{
	"contracts/manager/TableManager.sol": {
		"TableManager": {
			"abi": [
				{
					"inputs": [
						{
							"internalType": "address",
							"name": "_roleAccess",
							"type": "address"
						}
					],
					"stateMutability": "nonpayable",
					"type": "constructor"
				},
				{
					"anonymous": false,
					"inputs": [
						{
							"indexed": false,
							"internalType": "uint256",
							"name": "tableId",
							"type": "uint256"
						},
						{
							"indexed": false,
							"internalType": "uint256",
							"name": "staffId",
							"type": "uint256"
						}
					],
					"name": "StaffTableUpdated",
					"type": "event"
				},
				{
					"anonymous": false,
					"inputs": [
						{
							"indexed": false,
							"internalType": "uint256",
							"name": "tableId",
							"type": "uint256"
						},
						{
							"indexed": false,
							"internalType": "uint256",
							"name": "row",
							"type": "uint256"
						},
						{
							"indexed": false,
							"internalType": "uint256",
							"name": "col",
							"type": "uint256"
						}
					],
					"name": "TableAdded",
					"type": "event"
				},
				{
					"anonymous": false,
					"inputs": [
						{
							"indexed": false,
							"internalType": "uint256",
							"name": "_tableId",
							"type": "uint256"
						},
						{
							"indexed": false,
							"internalType": "uint256",
							"name": "_orderId",
							"type": "uint256"
						}
					],
					"name": "TableAddedToOrder",
					"type": "event"
				},
				{
					"anonymous": false,
					"inputs": [
						{
							"indexed": false,
							"internalType": "uint256",
							"name": "tableId",
							"type": "uint256"
						}
					],
					"name": "TableDeleted",
					"type": "event"
				},
				{
					"anonymous": false,
					"inputs": [
						{
							"indexed": false,
							"internalType": "uint256",
							"name": "tableId",
							"type": "uint256"
						},
						{
							"indexed": false,
							"internalType": "uint256",
							"name": "row",
							"type": "uint256"
						},
						{
							"indexed": false,
							"internalType": "uint256",
							"name": "col",
							"type": "uint256"
						}
					],
					"name": "TableEdited",
					"type": "event"
				},
				{
					"anonymous": false,
					"inputs": [
						{
							"indexed": true,
							"internalType": "uint256",
							"name": "tableId",
							"type": "uint256"
						},
						{
							"indexed": false,
							"internalType": "uint256",
							"name": "row",
							"type": "uint256"
						},
						{
							"indexed": false,
							"internalType": "uint256",
							"name": "col",
							"type": "uint256"
						},
						{
							"indexed": false,
							"internalType": "string",
							"name": "qrUrl",
							"type": "string"
						}
					],
					"name": "TableUpdated",
					"type": "event"
				},
				{
					"anonymous": false,
					"inputs": [
						{
							"indexed": false,
							"internalType": "uint256",
							"name": "_tableId",
							"type": "uint256"
						}
					],
					"name": "TableUpdatedStaus",
					"type": "event"
				},
				{
					"inputs": [
						{
							"internalType": "uint256",
							"name": "_row",
							"type": "uint256"
						},
						{
							"internalType": "uint256",
							"name": "_col",
							"type": "uint256"
						},
						{
							"internalType": "string",
							"name": "_qrUrl",
							"type": "string"
						}
					],
					"name": "addTable",
					"outputs": [
						{
							"internalType": "uint256",
							"name": "",
							"type": "uint256"
						}
					],
					"stateMutability": "nonpayable",
					"type": "function"
				},
				{
					"inputs": [
						{
							"internalType": "uint256",
							"name": "_orderId",
							"type": "uint256"
						},
						{
							"internalType": "uint256",
							"name": "_tableId",
							"type": "uint256"
						}
					],
					"name": "addTableToOrder",
					"outputs": [],
					"stateMutability": "nonpayable",
					"type": "function"
				},
				{
					"inputs": [
						{
							"internalType": "uint256",
							"name": "_tableId",
							"type": "uint256"
						}
					],
					"name": "deleteTable",
					"outputs": [],
					"stateMutability": "nonpayable",
					"type": "function"
				},
				{
					"inputs": [
						{
							"internalType": "uint256",
							"name": "_tableId",
							"type": "uint256"
						},
						{
							"internalType": "uint256",
							"name": "_row",
							"type": "uint256"
						},
						{
							"internalType": "uint256",
							"name": "_col",
							"type": "uint256"
						}
					],
					"name": "editTable",
					"outputs": [],
					"stateMutability": "nonpayable",
					"type": "function"
				},
				{
					"inputs": [
						{
							"internalType": "uint256",
							"name": "_tableId",
							"type": "uint256"
						}
					],
					"name": "getTableById",
					"outputs": [
						{
							"components": [
								{
									"internalType": "uint256",
									"name": "tableId",
									"type": "uint256"
								},
								{
									"internalType": "uint256",
									"name": "row",
									"type": "uint256"
								},
								{
									"internalType": "uint256",
									"name": "col",
									"type": "uint256"
								},
								{
									"internalType": "string",
									"name": "qrUrl",
									"type": "string"
								},
								{
									"internalType": "enum TableStatus",
									"name": "status",
									"type": "uint8"
								}
							],
							"internalType": "struct Table",
							"name": "",
							"type": "tuple"
						}
					],
					"stateMutability": "view",
					"type": "function"
				},
				{
					"inputs": [],
					"name": "nextTableId",
					"outputs": [
						{
							"internalType": "uint256",
							"name": "",
							"type": "uint256"
						}
					],
					"stateMutability": "view",
					"type": "function"
				},
				{
					"inputs": [],
					"name": "orderManager",
					"outputs": [
						{
							"internalType": "contract IOrderManager",
							"name": "",
							"type": "address"
						}
					],
					"stateMutability": "view",
					"type": "function"
				},
				{
					"inputs": [
						{
							"internalType": "uint256",
							"name": "",
							"type": "uint256"
						},
						{
							"internalType": "uint256",
							"name": "",
							"type": "uint256"
						}
					],
					"name": "orderTable",
					"outputs": [
						{
							"internalType": "uint256",
							"name": "",
							"type": "uint256"
						}
					],
					"stateMutability": "view",
					"type": "function"
				},
				{
					"inputs": [],
					"name": "roleAccess",
					"outputs": [
						{
							"internalType": "contract RoleAccess",
							"name": "",
							"type": "address"
						}
					],
					"stateMutability": "view",
					"type": "function"
				},
				{
					"inputs": [
						{
							"internalType": "address",
							"name": "_orderManager",
							"type": "address"
						}
					],
					"name": "setOrderManager",
					"outputs": [],
					"stateMutability": "nonpayable",
					"type": "function"
				},
				{
					"inputs": [
						{
							"internalType": "uint256",
							"name": "",
							"type": "uint256"
						}
					],
					"name": "tables",
					"outputs": [
						{
							"internalType": "uint256",
							"name": "tableId",
							"type": "uint256"
						},
						{
							"internalType": "uint256",
							"name": "row",
							"type": "uint256"
						},
						{
							"internalType": "uint256",
							"name": "col",
							"type": "uint256"
						},
						{
							"internalType": "string",
							"name": "qrUrl",
							"type": "string"
						},
						{
							"internalType": "enum TableStatus",
							"name": "status",
							"type": "uint8"
						}
					],
					"stateMutability": "view",
					"type": "function"
				},
				{
					"inputs": [
						{
							"internalType": "uint256",
							"name": "_tableId",
							"type": "uint256"
						},
						{
							"internalType": "enum TableStatus",
							"name": "_status",
							"type": "uint8"
						}
					],
					"name": "updateStatusTable",
					"outputs": [],
					"stateMutability": "nonpayable",
					"type": "function"
				},
				{
					"inputs": [
						{
							"internalType": "uint256",
							"name": "_tableId",
							"type": "uint256"
						},
						{
							"internalType": "uint256",
							"name": "_row",
							"type": "uint256"
						},
						{
							"internalType": "uint256",
							"name": "_col",
							"type": "uint256"
						},
						{
							"internalType": "string",
							"name": "_qrUrl",
							"type": "string"
						}
					],
					"name": "updateTable",
					"outputs": [],
					"stateMutability": "nonpayable",
					"type": "function"
				}
			],
			"devdoc": {
				"kind": "dev",
				"methods": {},
				"version": 1
			},
			"evm": {
				"assembly": "    /* \"contracts/manager/TableManager.sol\":176:3665  contract TableManager is ITableManager {... */\n  mstore(0x40, 0x80)\n    /* \"contracts/manager/TableManager.sol\":324:325  1 */\n  0x01\n    /* \"contracts/manager/TableManager.sol\":295:325  uint256 public nextTableId = 1 */\n  0x02\n  sstore\n    /* \"contracts/manager/TableManager.sol\":431:517  constructor(address _roleAccess) {... */\n  callvalue\n  dup1\n  iszero\n  tag_1\n  jumpi\n  revert(0x00, 0x00)\ntag_1:\n  pop\n  mload(0x40)\n  sub(codesize, bytecodeSize)\n  dup1\n  bytecodeSize\n  dup4\n  codecopy\n  dup2\n  add\n  0x40\n  dup2\n  swap1\n  mstore\n  tag_2\n  swap2\n  tag_3\n  jump\t// in\ntag_2:\n    /* \"contracts/manager/TableManager.sol\":474:484  roleAccess */\n  0x01\n    /* \"contracts/manager/TableManager.sol\":474:510  roleAccess = RoleAccess(_roleAccess) */\n  dup1\n  sload\n  not(sub(shl(0xa0, 0x01), 0x01))\n  and\n  sub(shl(0xa0, 0x01), 0x01)\n  swap3\n  swap1\n  swap3\n  and\n  swap2\n  swap1\n  swap2\n  or\n  swap1\n  sstore\n    /* \"contracts/manager/TableManager.sol\":176:3665  contract TableManager is ITableManager {... */\n  jump(tag_7)\n    /* \"#utility.yul\":14:304   */\ntag_3:\n    /* \"#utility.yul\":84:90   */\n  0x00\n    /* \"#utility.yul\":137:139   */\n  0x20\n    /* \"#utility.yul\":125:134   */\n  dup3\n    /* \"#utility.yul\":116:123   */\n  dup5\n    /* \"#utility.yul\":112:135   */\n  sub\n    /* \"#utility.yul\":108:140   */\n  slt\n    /* \"#utility.yul\":105:157   */\n  iszero\n  tag_9\n  jumpi\n    /* \"#utility.yul\":153:154   */\n  0x00\n    /* \"#utility.yul\":150:151   */\n  0x00\n    /* \"#utility.yul\":143:155   */\n  revert\n    /* \"#utility.yul\":105:157   */\ntag_9:\n    /* \"#utility.yul\":179:195   */\n  dup2\n  mload\n  sub(shl(0xa0, 0x01), 0x01)\n    /* \"#utility.yul\":224:255   */\n  dup2\n  and\n    /* \"#utility.yul\":214:256   */\n  dup2\n  eq\n    /* \"#utility.yul\":204:274   */\n  tag_10\n  jumpi\n    /* \"#utility.yul\":270:271   */\n  0x00\n    /* \"#utility.yul\":267:268   */\n  0x00\n    /* \"#utility.yul\":260:272   */\n  revert\n    /* \"#utility.yul\":204:274   */\ntag_10:\n    /* \"#utility.yul\":293:298   */\n  swap4\n    /* \"#utility.yul\":14:304   */\n  swap3\n  pop\n  pop\n  pop\n  jump\t// out\ntag_7:\n    /* \"contracts/manager/TableManager.sol\":176:3665  contract TableManager is ITableManager {... */\n  dataSize(sub_0)\n  dup1\n  dataOffset(sub_0)\n  0x00\n  codecopy\n  0x00\n  return\nstop\n\nsub_0: assembly {\n        /* \"contracts/manager/TableManager.sol\":176:3665  contract TableManager is ITableManager {... */\n      mstore(0x40, 0x80)\n      callvalue\n      dup1\n      iszero\n      tag_1\n      jumpi\n      revert(0x00, 0x00)\n    tag_1:\n      pop\n      jumpi(tag_2, lt(calldatasize, 0x04))\n      shr(0xe0, calldataload(0x00))\n      dup1\n      0x95ebcb24\n      gt\n      tag_16\n      jumpi\n      dup1\n      0xd50a9e46\n      gt\n      tag_17\n      jumpi\n      dup1\n      0xd50a9e46\n      eq\n      tag_12\n      jumpi\n      dup1\n      0xe6f318c6\n      eq\n      tag_13\n      jumpi\n      dup1\n      0xf9b6117f\n      eq\n      tag_14\n      jumpi\n      dup1\n      0xfb25d32f\n      eq\n      tag_15\n      jumpi\n      revert(0x00, 0x00)\n    tag_17:\n      dup1\n      0x95ebcb24\n      eq\n      tag_9\n      jumpi\n      dup1\n      0xb4afd52c\n      eq\n      tag_10\n      jumpi\n      dup1\n      0xc0da840d\n      eq\n      tag_11\n      jumpi\n      revert(0x00, 0x00)\n    tag_16:\n      dup1\n      0x3844ac5b\n      eq\n      tag_3\n      jumpi\n      dup1\n      0x42f54b89\n      eq\n      tag_4\n      jumpi\n      dup1\n      0x5cfd6607\n      eq\n      tag_5\n      jumpi\n      dup1\n      0x71671bf2\n      eq\n      tag_6\n      jumpi\n      dup1\n      0x88a01cd7\n      eq\n      tag_7\n      jumpi\n      dup1\n      0x90c86435\n      eq\n      tag_8\n      jumpi\n    tag_2:\n      revert(0x00, 0x00)\n        /* \"contracts/manager/TableManager.sol\":2811:3045  function getTableById(uint256 _tableId)... */\n    tag_3:\n      tag_18\n      tag_19\n      calldatasize\n      0x04\n      tag_20\n      jump\t// in\n    tag_19:\n      tag_21\n      jump\t// in\n    tag_18:\n      mload(0x40)\n      tag_22\n      swap2\n      swap1\n      tag_23\n      jump\t// in\n    tag_22:\n      mload(0x40)\n      dup1\n      swap2\n      sub\n      swap1\n      return\n        /* \"contracts/manager/TableManager.sol\":260:288  RoleAccess public roleAccess */\n    tag_4:\n      sload(0x01)\n      tag_24\n      swap1\n      sub(shl(0xa0, 0x01), 0x01)\n      and\n      dup2\n      jump\n    tag_24:\n      mload(0x40)\n      sub(shl(0xa0, 0x01), 0x01)\n        /* \"#utility.yul\":1782:1814   */\n      swap1\n      swap2\n      and\n        /* \"#utility.yul\":1764:1815   */\n      dup2\n      mstore\n        /* \"#utility.yul\":1752:1754   */\n      0x20\n        /* \"#utility.yul\":1737:1755   */\n      add\n        /* \"contracts/manager/TableManager.sol\":260:288  RoleAccess public roleAccess */\n      tag_22\n        /* \"#utility.yul\":1600:1821   */\n      jump\n        /* \"contracts/manager/TableManager.sol\":2189:2593  function editTable(... */\n    tag_5:\n      tag_28\n      tag_29\n      calldatasize\n      0x04\n      tag_30\n      jump\t// in\n    tag_29:\n      tag_31\n      jump\t// in\n    tag_28:\n      stop\n        /* \"contracts/manager/TableManager.sol\":331:370  mapping(uint256 => Table) public tables */\n    tag_6:\n      tag_32\n      tag_33\n      calldatasize\n      0x04\n      tag_20\n      jump\t// in\n    tag_33:\n      tag_34\n      jump\t// in\n    tag_32:\n      mload(0x40)\n      tag_22\n      swap6\n      swap5\n      swap4\n      swap3\n      swap2\n      swap1\n      tag_36\n      jump\t// in\n        /* \"contracts/manager/TableManager.sol\":295:325  uint256 public nextTableId = 1 */\n    tag_7:\n      tag_37\n      sload(0x02)\n      dup2\n      jump\n    tag_37:\n      mload(0x40)\n        /* \"#utility.yul\":3018:3043   */\n      swap1\n      dup2\n      mstore\n        /* \"#utility.yul\":3006:3008   */\n      0x20\n        /* \"#utility.yul\":2991:3009   */\n      add\n        /* \"contracts/manager/TableManager.sol\":295:325  uint256 public nextTableId = 1 */\n      tag_22\n        /* \"#utility.yul\":2872:3049   */\n      jump\n        /* \"contracts/manager/TableManager.sol\":377:424  mapping(uint256 => uint256[]) public orderTable */\n    tag_8:\n      tag_37\n      tag_42\n      calldatasize\n      0x04\n      tag_43\n      jump\t// in\n    tag_42:\n      tag_44\n      jump\t// in\n        /* \"contracts/manager/TableManager.sol\":3051:3361  function addTableToOrder(uint256 _orderId, uint256 _tableId)... */\n    tag_9:\n      tag_28\n      tag_47\n      calldatasize\n      0x04\n      tag_43\n      jump\t// in\n    tag_47:\n      tag_48\n      jump\t// in\n        /* \"contracts/manager/TableManager.sol\":3367:3663  function updateStatusTable(uint256 _tableId, TableStatus _status)... */\n    tag_10:\n      tag_28\n      tag_50\n      calldatasize\n      0x04\n      tag_51\n      jump\t// in\n    tag_50:\n      tag_52\n      jump\t// in\n        /* \"contracts/manager/TableManager.sol\":886:1012  function setOrderManager(address _orderManager) external override {... */\n    tag_11:\n      tag_28\n      tag_54\n      calldatasize\n      0x04\n      tag_55\n      jump\t// in\n    tag_54:\n        /* \"contracts/manager/TableManager.sol\":962:974  orderManager */\n      0x00\n        /* \"contracts/manager/TableManager.sol\":962:1005  orderManager = IOrderManager(_orderManager) */\n      dup1\n      sload\n      not(sub(shl(0xa0, 0x01), 0x01))\n      and\n      sub(shl(0xa0, 0x01), 0x01)\n      swap3\n      swap1\n      swap3\n      and\n      swap2\n      swap1\n      swap2\n      or\n      swap1\n      sstore\n        /* \"contracts/manager/TableManager.sol\":886:1012  function setOrderManager(address _orderManager) external override {... */\n      jump\n        /* \"contracts/manager/TableManager.sol\":1636:2183  function updateTable(... */\n    tag_12:\n      tag_28\n      tag_58\n      calldatasize\n      0x04\n      tag_59\n      jump\t// in\n    tag_58:\n      tag_60\n      jump\t// in\n        /* \"contracts/manager/TableManager.sol\":2599:2805  function deleteTable(uint256 _tableId) external override {... */\n    tag_13:\n      tag_28\n      tag_62\n      calldatasize\n      0x04\n      tag_20\n      jump\t// in\n    tag_62:\n      tag_63\n      jump\t// in\n        /* \"contracts/manager/TableManager.sol\":221:254  IOrderManager public orderManager */\n    tag_14:\n      sload(0x00)\n      tag_24\n      swap1\n      sub(shl(0xa0, 0x01), 0x01)\n      and\n      dup2\n      jump\n        /* \"contracts/manager/TableManager.sol\":1018:1630  function addTable(... */\n    tag_15:\n      tag_37\n      tag_69\n      calldatasize\n      0x04\n      tag_70\n      jump\t// in\n    tag_69:\n      tag_71\n      jump\t// in\n        /* \"contracts/manager/TableManager.sol\":2811:3045  function getTableById(uint256 _tableId)... */\n    tag_21:\n        /* \"contracts/manager/TableManager.sol\":2915:2927  Table memory */\n      tag_73\n      tag_74\n      jump\t// in\n    tag_73:\n        /* \"contracts/manager/TableManager.sol\":2951:2967  tables[_tableId] */\n      0x00\n      dup3\n      dup2\n      mstore\n        /* \"contracts/manager/TableManager.sol\":2951:2957  tables */\n      0x03\n        /* \"contracts/manager/TableManager.sol\":2951:2967  tables[_tableId] */\n      0x20\n      mstore\n      0x40\n      dup2\n      keccak256\n        /* \"contracts/manager/TableManager.sol\":2951:2975  tables[_tableId].tableId */\n      sload\n        /* \"contracts/manager/TableManager.sol\":2951:2980  tables[_tableId].tableId != 0 */\n      swap1\n      sub\n        /* \"contracts/manager/TableManager.sol\":2943:3005  require(tables[_tableId].tableId != 0, \"Table does not exist\") */\n      tag_76\n      jumpi\n      mload(0x40)\n      shl(0xe5, 0x461bcd)\n      dup2\n      mstore\n      0x04\n      add\n      tag_77\n      swap1\n      tag_78\n      jump\t// in\n    tag_77:\n      mload(0x40)\n      dup1\n      swap2\n      sub\n      swap1\n      revert\n    tag_76:\n        /* \"contracts/manager/TableManager.sol\":3022:3028  tables */\n      0x03\n        /* \"contracts/manager/TableManager.sol\":3022:3038  tables[_tableId] */\n      0x00\n        /* \"contracts/manager/TableManager.sol\":3029:3037  _tableId */\n      dup4\n        /* \"contracts/manager/TableManager.sol\":3022:3038  tables[_tableId] */\n      dup2\n      mstore\n      0x20\n      add\n      swap1\n      dup2\n      mstore\n      0x20\n      add\n      0x00\n      keccak256\n        /* \"contracts/manager/TableManager.sol\":3015:3038  return tables[_tableId] */\n      mload(0x40)\n      dup1\n      0xa0\n      add\n      0x40\n      mstore\n      swap1\n      dup2\n      0x00\n      dup3\n      add\n      sload\n      dup2\n      mstore\n      0x20\n      add\n      0x01\n      dup3\n      add\n      sload\n      dup2\n      mstore\n      0x20\n      add\n      0x02\n      dup3\n      add\n      sload\n      dup2\n      mstore\n      0x20\n      add\n      0x03\n      dup3\n      add\n      dup1\n      sload\n      tag_79\n      swap1\n      tag_80\n      jump\t// in\n    tag_79:\n      dup1\n      0x1f\n      add\n      0x20\n      dup1\n      swap2\n      div\n      mul\n      0x20\n      add\n      mload(0x40)\n      swap1\n      dup2\n      add\n      0x40\n      mstore\n      dup1\n      swap3\n      swap2\n      swap1\n      dup2\n      dup2\n      mstore\n      0x20\n      add\n      dup3\n      dup1\n      sload\n      tag_81\n      swap1\n      tag_80\n      jump\t// in\n    tag_81:\n      dup1\n      iszero\n      tag_82\n      jumpi\n      dup1\n      0x1f\n      lt\n      tag_83\n      jumpi\n      0x0100\n      dup1\n      dup4\n      sload\n      div\n      mul\n      dup4\n      mstore\n      swap2\n      0x20\n      add\n      swap2\n      jump(tag_82)\n    tag_83:\n      dup3\n      add\n      swap2\n      swap1\n      0x00\n      mstore\n      keccak256(0x00, 0x20)\n      swap1\n    tag_84:\n      dup2\n      sload\n      dup2\n      mstore\n      swap1\n      0x01\n      add\n      swap1\n      0x20\n      add\n      dup1\n      dup4\n      gt\n      tag_84\n      jumpi\n      dup3\n      swap1\n      sub\n      0x1f\n      and\n      dup3\n      add\n      swap2\n    tag_82:\n      pop\n      pop\n      pop\n      swap2\n      dup4\n      mstore\n      pop\n      pop\n      0x04\n      dup3\n      add\n      sload\n      0x20\n      swap1\n      swap2\n      add\n      swap1\n      0xff\n      and\n      0x01\n      dup2\n      gt\n      iszero\n      tag_86\n      jumpi\n      tag_86\n      tag_87\n      jump\t// in\n    tag_86:\n      0x01\n      dup2\n      gt\n      iszero\n      tag_89\n      jumpi\n      tag_89\n      tag_87\n      jump\t// in\n    tag_89:\n      swap1\n      mstore\n      pop\n      swap3\n        /* \"contracts/manager/TableManager.sol\":2811:3045  function getTableById(uint256 _tableId)... */\n      swap2\n      pop\n      pop\n      jump\t// out\n        /* \"contracts/manager/TableManager.sol\":2189:2593  function editTable(... */\n    tag_31:\n        /* \"contracts/manager/TableManager.sol\":562:572  roleAccess */\n      sload(0x01)\n        /* \"contracts/manager/TableManager.sol\":562:606  roleAccess.hasRole(tx.origin,RoleType.ADMIN) */\n      mload(0x40)\n      shl(0xe0, 0x95a8c58d)\n      dup2\n      mstore\n      sub(shl(0xa0, 0x01), 0x01)\n        /* \"contracts/manager/TableManager.sol\":562:572  roleAccess */\n      swap1\n      swap2\n      and\n      swap1\n        /* \"contracts/manager/TableManager.sol\":562:580  roleAccess.hasRole */\n      0x95a8c58d\n      swap1\n        /* \"contracts/manager/TableManager.sol\":562:606  roleAccess.hasRole(tx.origin,RoleType.ADMIN) */\n      tag_91\n      swap1\n        /* \"contracts/manager/TableManager.sol\":581:590  tx.origin */\n      origin\n      swap1\n        /* \"contracts/manager/TableManager.sol\":562:572  roleAccess */\n      0x00\n      swap1\n        /* \"contracts/manager/TableManager.sol\":562:606  roleAccess.hasRole(tx.origin,RoleType.ADMIN) */\n      0x04\n      add\n      tag_92\n      jump\t// in\n    tag_91:\n      0x20\n      mload(0x40)\n      dup1\n      dup4\n      sub\n      dup2\n      dup7\n      gas\n      staticcall\n      iszero\n      dup1\n      iszero\n      tag_94\n      jumpi\n      returndatacopy(0x00, 0x00, returndatasize)\n      revert(0x00, returndatasize)\n    tag_94:\n      pop\n      pop\n      pop\n      pop\n      mload(0x40)\n      returndatasize\n      not(0x1f)\n      0x1f\n      dup3\n      add\n      and\n      dup3\n      add\n      dup1\n      0x40\n      mstore\n      pop\n      dup2\n      add\n      swap1\n      tag_95\n      swap2\n      swap1\n      tag_96\n      jump\t// in\n    tag_95:\n        /* \"contracts/manager/TableManager.sol\":554:620  require(roleAccess.hasRole(tx.origin,RoleType.ADMIN), \"Not admin\") */\n      tag_97\n      jumpi\n      mload(0x40)\n      shl(0xe5, 0x461bcd)\n      dup2\n      mstore\n      0x04\n      add\n      tag_77\n      swap1\n      tag_99\n      jump\t// in\n    tag_97:\n        /* \"contracts/manager/TableManager.sol\":2330:2346  tables[_tableId] */\n      0x00\n      dup4\n      dup2\n      mstore\n        /* \"contracts/manager/TableManager.sol\":2330:2336  tables */\n      0x03\n        /* \"contracts/manager/TableManager.sol\":2330:2346  tables[_tableId] */\n      0x20\n      mstore\n      0x40\n      dup2\n      keccak256\n        /* \"contracts/manager/TableManager.sol\":2330:2354  tables[_tableId].tableId */\n      sload\n        /* \"contracts/manager/TableManager.sol\":2330:2359  tables[_tableId].tableId != 0 */\n      swap1\n      sub\n        /* \"contracts/manager/TableManager.sol\":2322:2384  require(tables[_tableId].tableId != 0, \"Table does not exist\") */\n      tag_101\n      jumpi\n      mload(0x40)\n      shl(0xe5, 0x461bcd)\n      dup2\n      mstore\n      0x04\n      add\n      tag_77\n      swap1\n      tag_78\n      jump\t// in\n    tag_101:\n        /* \"contracts/manager/TableManager.sol\":2409:2410  0 */\n      0x00\n        /* \"contracts/manager/TableManager.sol\":2402:2406  _row */\n      dup3\n        /* \"contracts/manager/TableManager.sol\":2402:2410  _row > 0 */\n      gt\n        /* \"contracts/manager/TableManager.sol\":2402:2422  _row > 0 && _col > 0 */\n      dup1\n      iszero\n      tag_103\n      jumpi\n      pop\n        /* \"contracts/manager/TableManager.sol\":2421:2422  0 */\n      0x00\n        /* \"contracts/manager/TableManager.sol\":2414:2418  _col */\n      dup2\n        /* \"contracts/manager/TableManager.sol\":2414:2422  _col > 0 */\n      gt\n        /* \"contracts/manager/TableManager.sol\":2402:2422  _row > 0 && _col > 0 */\n    tag_103:\n        /* \"contracts/manager/TableManager.sol\":2394:2464  require(_row > 0 && _col > 0, \"Row and column must be greater than 0\") */\n      tag_104\n      jumpi\n      mload(0x40)\n      shl(0xe5, 0x461bcd)\n      dup2\n      mstore\n      0x04\n      add\n      tag_77\n      swap1\n      tag_106\n      jump\t// in\n    tag_104:\n        /* \"contracts/manager/TableManager.sol\":2474:2490  tables[_tableId] */\n      0x00\n      dup4\n      dup2\n      mstore\n        /* \"contracts/manager/TableManager.sol\":2474:2480  tables */\n      0x03\n        /* \"contracts/manager/TableManager.sol\":2474:2490  tables[_tableId] */\n      0x20\n      swap1\n      dup2\n      mstore\n      0x40\n      swap2\n      dup3\n      swap1\n      keccak256\n        /* \"contracts/manager/TableManager.sol\":2474:2494  tables[_tableId].row */\n      0x01\n      dup2\n      add\n        /* \"contracts/manager/TableManager.sol\":2474:2501  tables[_tableId].row = _row */\n      dup6\n      swap1\n      sstore\n        /* \"contracts/manager/TableManager.sol\":2511:2531  tables[_tableId].col */\n      0x02\n      add\n        /* \"contracts/manager/TableManager.sol\":2511:2538  tables[_tableId].col = _col */\n      dup4\n      swap1\n      sstore\n        /* \"contracts/manager/TableManager.sol\":2553:2586  TableEdited(_tableId, _row, _col) */\n      dup2\n      mload\n        /* \"#utility.yul\":8727:8752   */\n      dup6\n      dup2\n      mstore\n        /* \"#utility.yul\":8768:8786   */\n      swap1\n      dup2\n      add\n        /* \"#utility.yul\":8761:8795   */\n      dup5\n      swap1\n      mstore\n        /* \"#utility.yul\":8811:8829   */\n      swap1\n      dup2\n      add\n        /* \"#utility.yul\":8804:8838   */\n      dup3\n      swap1\n      mstore\n        /* \"contracts/manager/TableManager.sol\":2553:2586  TableEdited(_tableId, _row, _col) */\n      0xf7237d4e5b6eb7009e4eb3d57722c89a2d5a309cb8766edd3d12c3a2f6369fea\n      swap1\n        /* \"#utility.yul\":8715:8717   */\n      0x60\n        /* \"#utility.yul\":8700:8718   */\n      add\n        /* \"contracts/manager/TableManager.sol\":2553:2586  TableEdited(_tableId, _row, _col) */\n      mload(0x40)\n      dup1\n      swap2\n      sub\n      swap1\n      log1\n        /* \"contracts/manager/TableManager.sol\":2189:2593  function editTable(... */\n      pop\n      pop\n      pop\n      jump\t// out\n        /* \"contracts/manager/TableManager.sol\":331:370  mapping(uint256 => Table) public tables */\n    tag_34:\n      mstore(0x20, 0x03)\n      dup1\n      0x00\n      mstore\n      keccak256(0x00, 0x40)\n      0x00\n      swap2\n      pop\n      swap1\n      pop\n      dup1\n      0x00\n      add\n      sload\n      swap1\n      dup1\n      0x01\n      add\n      sload\n      swap1\n      dup1\n      0x02\n      add\n      sload\n      swap1\n      dup1\n      0x03\n      add\n      dup1\n      sload\n      tag_109\n      swap1\n      tag_80\n      jump\t// in\n    tag_109:\n      dup1\n      0x1f\n      add\n      0x20\n      dup1\n      swap2\n      div\n      mul\n      0x20\n      add\n      mload(0x40)\n      swap1\n      dup2\n      add\n      0x40\n      mstore\n      dup1\n      swap3\n      swap2\n      swap1\n      dup2\n      dup2\n      mstore\n      0x20\n      add\n      dup3\n      dup1\n      sload\n      tag_110\n      swap1\n      tag_80\n      jump\t// in\n    tag_110:\n      dup1\n      iszero\n      tag_111\n      jumpi\n      dup1\n      0x1f\n      lt\n      tag_112\n      jumpi\n      0x0100\n      dup1\n      dup4\n      sload\n      div\n      mul\n      dup4\n      mstore\n      swap2\n      0x20\n      add\n      swap2\n      jump(tag_111)\n    tag_112:\n      dup3\n      add\n      swap2\n      swap1\n      0x00\n      mstore\n      keccak256(0x00, 0x20)\n      swap1\n    tag_113:\n      dup2\n      sload\n      dup2\n      mstore\n      swap1\n      0x01\n      add\n      swap1\n      0x20\n      add\n      dup1\n      dup4\n      gt\n      tag_113\n      jumpi\n      dup3\n      swap1\n      sub\n      0x1f\n      and\n      dup3\n      add\n      swap2\n    tag_111:\n      pop\n      pop\n      pop\n      0x04\n      swap1\n      swap4\n      add\n      sload\n      swap2\n      swap3\n      pop\n      pop\n      0xff\n      and\n      dup6\n      jump\t// out\n        /* \"contracts/manager/TableManager.sol\":377:424  mapping(uint256 => uint256[]) public orderTable */\n    tag_44:\n      mstore(0x20, 0x04)\n      dup2\n      0x00\n      mstore\n      keccak256(0x00, 0x40)\n      dup2\n      dup2\n      sload\n      dup2\n      lt\n      tag_114\n      jumpi\n      0x00\n      dup1\n      revert\n    tag_114:\n      swap1\n      0x00\n      mstore\n      keccak256(0x00, 0x20)\n      add\n      0x00\n      swap2\n      pop\n      swap2\n      pop\n      pop\n      sload\n      dup2\n      jump\t// out\n        /* \"contracts/manager/TableManager.sol\":3051:3361  function addTableToOrder(uint256 _orderId, uint256 _tableId)... */\n    tag_48:\n        /* \"contracts/manager/TableManager.sol\":562:572  roleAccess */\n      sload(0x01)\n        /* \"contracts/manager/TableManager.sol\":562:606  roleAccess.hasRole(tx.origin,RoleType.ADMIN) */\n      mload(0x40)\n      shl(0xe0, 0x95a8c58d)\n      dup2\n      mstore\n      sub(shl(0xa0, 0x01), 0x01)\n        /* \"contracts/manager/TableManager.sol\":562:572  roleAccess */\n      swap1\n      swap2\n      and\n      swap1\n        /* \"contracts/manager/TableManager.sol\":562:580  roleAccess.hasRole */\n      0x95a8c58d\n      swap1\n        /* \"contracts/manager/TableManager.sol\":562:606  roleAccess.hasRole(tx.origin,RoleType.ADMIN) */\n      tag_117\n      swap1\n        /* \"contracts/manager/TableManager.sol\":581:590  tx.origin */\n      origin\n      swap1\n        /* \"contracts/manager/TableManager.sol\":562:572  roleAccess */\n      0x00\n      swap1\n        /* \"contracts/manager/TableManager.sol\":562:606  roleAccess.hasRole(tx.origin,RoleType.ADMIN) */\n      0x04\n      add\n      tag_92\n      jump\t// in\n    tag_117:\n      0x20\n      mload(0x40)\n      dup1\n      dup4\n      sub\n      dup2\n      dup7\n      gas\n      staticcall\n      iszero\n      dup1\n      iszero\n      tag_119\n      jumpi\n      returndatacopy(0x00, 0x00, returndatasize)\n      revert(0x00, returndatasize)\n    tag_119:\n      pop\n      pop\n      pop\n      pop\n      mload(0x40)\n      returndatasize\n      not(0x1f)\n      0x1f\n      dup3\n      add\n      and\n      dup3\n      add\n      dup1\n      0x40\n      mstore\n      pop\n      dup2\n      add\n      swap1\n      tag_120\n      swap2\n      swap1\n      tag_96\n      jump\t// in\n    tag_120:\n        /* \"contracts/manager/TableManager.sol\":554:620  require(roleAccess.hasRole(tx.origin,RoleType.ADMIN), \"Not admin\") */\n      tag_121\n      jumpi\n      mload(0x40)\n      shl(0xe5, 0x461bcd)\n      dup2\n      mstore\n      0x04\n      add\n      tag_77\n      swap1\n      tag_99\n      jump\t// in\n    tag_121:\n        /* \"contracts/manager/TableManager.sol\":3186:3202  tables[_tableId] */\n      0x00\n      dup2\n      dup2\n      mstore\n        /* \"contracts/manager/TableManager.sol\":3186:3192  tables */\n      0x03\n        /* \"contracts/manager/TableManager.sol\":3186:3202  tables[_tableId] */\n      0x20\n      mstore\n      0x40\n      dup2\n      keccak256\n        /* \"contracts/manager/TableManager.sol\":3186:3210  tables[_tableId].tableId */\n      sload\n        /* \"contracts/manager/TableManager.sol\":3186:3215  tables[_tableId].tableId != 0 */\n      swap1\n      sub\n        /* \"contracts/manager/TableManager.sol\":3178:3243  require(tables[_tableId].tableId != 0, \"Table ID does not exist\") */\n      tag_124\n      jumpi\n      mload(0x40)\n      shl(0xe5, 0x461bcd)\n      dup2\n      mstore\n        /* \"#utility.yul\":9051:9053   */\n      0x20\n        /* \"contracts/manager/TableManager.sol\":3178:3243  require(tables[_tableId].tableId != 0, \"Table ID does not exist\") */\n      0x04\n      dup3\n      add\n        /* \"#utility.yul\":9033:9054   */\n      mstore\n        /* \"#utility.yul\":9090:9092   */\n      0x17\n        /* \"#utility.yul\":9070:9088   */\n      0x24\n      dup3\n      add\n        /* \"#utility.yul\":9063:9093   */\n      mstore\n      shl(0x4a, 0x1518589b1948125108191bd95cc81b9bdd08195e1a5cdd)\n        /* \"#utility.yul\":9109:9127   */\n      0x44\n      dup3\n      add\n        /* \"#utility.yul\":9102:9155   */\n      mstore\n        /* \"#utility.yul\":9172:9190   */\n      0x64\n      add\n        /* \"contracts/manager/TableManager.sol\":3178:3243  require(tables[_tableId].tableId != 0, \"Table ID does not exist\") */\n      tag_77\n        /* \"#utility.yul\":8849:9196   */\n      jump\n        /* \"contracts/manager/TableManager.sol\":3178:3243  require(tables[_tableId].tableId != 0, \"Table ID does not exist\") */\n    tag_124:\n        /* \"contracts/manager/TableManager.sol\":3253:3265  orderManager */\n      sload(0x00)\n        /* \"contracts/manager/TableManager.sol\":3253:3302  orderManager.addTableForOrder(_orderId, _tableId) */\n      mload(0x40)\n      shl(0xe0, 0x914ee455)\n      dup2\n      mstore\n      0x04\n      dup2\n      add\n        /* \"#utility.yul\":9375:9400   */\n      dup5\n      swap1\n      mstore\n        /* \"#utility.yul\":9416:9434   */\n      0x24\n      dup2\n      add\n        /* \"#utility.yul\":9409:9443   */\n      dup4\n      swap1\n      mstore\n      sub(shl(0xa0, 0x01), 0x01)\n        /* \"contracts/manager/TableManager.sol\":3253:3265  orderManager */\n      swap1\n      swap2\n      and\n      swap1\n        /* \"contracts/manager/TableManager.sol\":3253:3282  orderManager.addTableForOrder */\n      0x914ee455\n      swap1\n        /* \"#utility.yul\":9348:9366   */\n      0x44\n      add\n        /* \"contracts/manager/TableManager.sol\":3253:3302  orderManager.addTableForOrder(_orderId, _tableId) */\n      0x00\n      mload(0x40)\n      dup1\n      dup4\n      sub\n      dup2\n      0x00\n      dup8\n      dup1\n      extcodesize\n      iszero\n      dup1\n      iszero\n      tag_129\n      jumpi\n      revert(0x00, 0x00)\n    tag_129:\n      pop\n      gas\n      call\n      iszero\n      dup1\n      iszero\n      tag_131\n      jumpi\n      returndatacopy(0x00, 0x00, returndatasize)\n      revert(0x00, returndatasize)\n    tag_131:\n      pop\n      pop\n        /* \"contracts/manager/TableManager.sol\":3317:3354  TableAddedToOrder(_tableId, _orderId) */\n      0x40\n      dup1\n      mload\n        /* \"#utility.yul\":9375:9400   */\n      dup5\n      dup2\n      mstore\n        /* \"#utility.yul\":9431:9433   */\n      0x20\n        /* \"#utility.yul\":9416:9434   */\n      dup2\n      add\n        /* \"#utility.yul\":9409:9443   */\n      dup7\n      swap1\n      mstore\n        /* \"contracts/manager/TableManager.sol\":3317:3354  TableAddedToOrder(_tableId, _orderId) */\n      0xce055a555634f6b775cab0652d8bf5b7b02d31fd077b3e4459d806099d5c032a\n      swap4\n      pop\n        /* \"#utility.yul\":9348:9366   */\n      add\n      swap1\n      pop\n        /* \"contracts/manager/TableManager.sol\":3317:3354  TableAddedToOrder(_tableId, _orderId) */\n    tag_132:\n      mload(0x40)\n      dup1\n      swap2\n      sub\n      swap1\n      log1\n        /* \"contracts/manager/TableManager.sol\":3051:3361  function addTableToOrder(uint256 _orderId, uint256 _tableId)... */\n      pop\n      pop\n      jump\t// out\n        /* \"contracts/manager/TableManager.sol\":3367:3663  function updateStatusTable(uint256 _tableId, TableStatus _status)... */\n    tag_52:\n        /* \"contracts/manager/TableManager.sol\":707:717  roleAccess */\n      sload(0x01)\n        /* \"contracts/manager/TableManager.sol\":707:753  roleAccess.hasRole(msg.sender, RoleType.ADMIN) */\n      mload(0x40)\n      shl(0xe0, 0x95a8c58d)\n      dup2\n      mstore\n      sub(shl(0xa0, 0x01), 0x01)\n        /* \"contracts/manager/TableManager.sol\":707:717  roleAccess */\n      swap1\n      swap2\n      and\n      swap1\n        /* \"contracts/manager/TableManager.sol\":707:725  roleAccess.hasRole */\n      0x95a8c58d\n      swap1\n        /* \"contracts/manager/TableManager.sol\":707:753  roleAccess.hasRole(msg.sender, RoleType.ADMIN) */\n      tag_134\n      swap1\n        /* \"contracts/manager/TableManager.sol\":726:736  msg.sender */\n      caller\n      swap1\n        /* \"contracts/manager/TableManager.sol\":707:717  roleAccess */\n      0x00\n      swap1\n        /* \"contracts/manager/TableManager.sol\":707:753  roleAccess.hasRole(msg.sender, RoleType.ADMIN) */\n      0x04\n      add\n      tag_92\n      jump\t// in\n    tag_134:\n      0x20\n      mload(0x40)\n      dup1\n      dup4\n      sub\n      dup2\n      dup7\n      gas\n      staticcall\n      iszero\n      dup1\n      iszero\n      tag_136\n      jumpi\n      returndatacopy(0x00, 0x00, returndatasize)\n      revert(0x00, returndatasize)\n    tag_136:\n      pop\n      pop\n      pop\n      pop\n      mload(0x40)\n      returndatasize\n      not(0x1f)\n      0x1f\n      dup3\n      add\n      and\n      dup3\n      add\n      dup1\n      0x40\n      mstore\n      pop\n      dup2\n      add\n      swap1\n      tag_137\n      swap2\n      swap1\n      tag_96\n      jump\t// in\n    tag_137:\n        /* \"contracts/manager/TableManager.sol\":707:819  roleAccess.hasRole(msg.sender, RoleType.ADMIN) ||... */\n      dup1\n      tag_142\n      jumpi\n      pop\n        /* \"contracts/manager/TableManager.sol\":773:783  roleAccess */\n      0x01\n      dup1\n      sload\n        /* \"contracts/manager/TableManager.sol\":773:819  roleAccess.hasRole(msg.sender, RoleType.STAFF) */\n      mload(0x40)\n      shl(0xe0, 0x95a8c58d)\n      dup2\n      mstore\n      sub(shl(0xa0, 0x01), 0x01)\n        /* \"contracts/manager/TableManager.sol\":773:783  roleAccess */\n      swap1\n      swap2\n      and\n      swap2\n        /* \"contracts/manager/TableManager.sol\":773:791  roleAccess.hasRole */\n      0x95a8c58d\n      swap2\n        /* \"contracts/manager/TableManager.sol\":773:819  roleAccess.hasRole(msg.sender, RoleType.STAFF) */\n      tag_139\n      swap2\n        /* \"contracts/manager/TableManager.sol\":792:802  msg.sender */\n      caller\n      swap2\n        /* \"contracts/manager/TableManager.sol\":773:819  roleAccess.hasRole(msg.sender, RoleType.STAFF) */\n      0x04\n      add\n      tag_92\n      jump\t// in\n    tag_139:\n      0x20\n      mload(0x40)\n      dup1\n      dup4\n      sub\n      dup2\n      dup7\n      gas\n      staticcall\n      iszero\n      dup1\n      iszero\n      tag_141\n      jumpi\n      returndatacopy(0x00, 0x00, returndatasize)\n      revert(0x00, returndatasize)\n    tag_141:\n      pop\n      pop\n      pop\n      pop\n      mload(0x40)\n      returndatasize\n      not(0x1f)\n      0x1f\n      dup3\n      add\n      and\n      dup3\n      add\n      dup1\n      0x40\n      mstore\n      pop\n      dup2\n      add\n      swap1\n      tag_142\n      swap2\n      swap1\n      tag_96\n      jump\t// in\n    tag_142:\n        /* \"contracts/manager/TableManager.sol\":686:863  require(... */\n      tag_143\n      jumpi\n      mload(0x40)\n      shl(0xe5, 0x461bcd)\n      dup2\n      mstore\n        /* \"#utility.yul\":9656:9658   */\n      0x20\n        /* \"contracts/manager/TableManager.sol\":686:863  require(... */\n      0x04\n      dup3\n      add\n        /* \"#utility.yul\":9638:9659   */\n      mstore\n        /* \"#utility.yul\":9695:9697   */\n      0x12\n        /* \"#utility.yul\":9675:9693   */\n      0x24\n      dup3\n      add\n        /* \"#utility.yul\":9668:9698   */\n      mstore\n      shl(0x71, 0x2737ba1030b236b4b71037b91039ba30b333)\n        /* \"#utility.yul\":9714:9732   */\n      0x44\n      dup3\n      add\n        /* \"#utility.yul\":9707:9755   */\n      mstore\n        /* \"#utility.yul\":9772:9790   */\n      0x64\n      add\n        /* \"contracts/manager/TableManager.sol\":686:863  require(... */\n      tag_77\n        /* \"#utility.yul\":9454:9796   */\n      jump\n        /* \"contracts/manager/TableManager.sol\":686:863  require(... */\n    tag_143:\n        /* \"contracts/manager/TableManager.sol\":3514:3530  tables[_tableId] */\n      0x00\n      dup3\n      dup2\n      mstore\n        /* \"contracts/manager/TableManager.sol\":3514:3520  tables */\n      0x03\n        /* \"contracts/manager/TableManager.sol\":3514:3530  tables[_tableId] */\n      0x20\n      mstore\n      0x40\n      dup2\n      keccak256\n        /* \"contracts/manager/TableManager.sol\":3514:3538  tables[_tableId].tableId */\n      sload\n        /* \"contracts/manager/TableManager.sol\":3514:3543  tables[_tableId].tableId != 0 */\n      swap1\n      sub\n        /* \"contracts/manager/TableManager.sol\":3506:3571  require(tables[_tableId].tableId != 0, \"Table ID does not exist\") */\n      tag_147\n      jumpi\n      mload(0x40)\n      shl(0xe5, 0x461bcd)\n      dup2\n      mstore\n        /* \"#utility.yul\":9051:9053   */\n      0x20\n        /* \"contracts/manager/TableManager.sol\":3506:3571  require(tables[_tableId].tableId != 0, \"Table ID does not exist\") */\n      0x04\n      dup3\n      add\n        /* \"#utility.yul\":9033:9054   */\n      mstore\n        /* \"#utility.yul\":9090:9092   */\n      0x17\n        /* \"#utility.yul\":9070:9088   */\n      0x24\n      dup3\n      add\n        /* \"#utility.yul\":9063:9093   */\n      mstore\n      shl(0x4a, 0x1518589b1948125108191bd95cc81b9bdd08195e1a5cdd)\n        /* \"#utility.yul\":9109:9127   */\n      0x44\n      dup3\n      add\n        /* \"#utility.yul\":9102:9155   */\n      mstore\n        /* \"#utility.yul\":9172:9190   */\n      0x64\n      add\n        /* \"contracts/manager/TableManager.sol\":3506:3571  require(tables[_tableId].tableId != 0, \"Table ID does not exist\") */\n      tag_77\n        /* \"#utility.yul\":8849:9196   */\n      jump\n        /* \"contracts/manager/TableManager.sol\":3506:3571  require(tables[_tableId].tableId != 0, \"Table ID does not exist\") */\n    tag_147:\n        /* \"contracts/manager/TableManager.sol\":3581:3597  tables[_tableId] */\n      0x00\n      dup3\n      dup2\n      mstore\n        /* \"contracts/manager/TableManager.sol\":3581:3587  tables */\n      0x03\n        /* \"contracts/manager/TableManager.sol\":3581:3597  tables[_tableId] */\n      0x20\n      mstore\n      0x40\n      swap1\n      keccak256\n        /* \"contracts/manager/TableManager.sol\":3581:3604  tables[_tableId].status */\n      0x04\n      add\n        /* \"contracts/manager/TableManager.sol\":3581:3614  tables[_tableId].status = _status */\n      dup1\n      sload\n        /* \"contracts/manager/TableManager.sol\":3607:3614  _status */\n      dup3\n      swap2\n        /* \"contracts/manager/TableManager.sol\":3581:3604  tables[_tableId].status */\n      swap1\n      not(0xff)\n        /* \"contracts/manager/TableManager.sol\":3581:3614  tables[_tableId].status = _status */\n      and\n      0x01\n        /* \"contracts/manager/TableManager.sol\":3607:3614  _status */\n      dup4\n        /* \"contracts/manager/TableManager.sol\":3581:3614  tables[_tableId].status = _status */\n      dup2\n      dup2\n      gt\n      iszero\n      tag_150\n      jumpi\n      tag_150\n      tag_87\n      jump\t// in\n    tag_150:\n      mul\n      or\n      swap1\n      sstore\n      pop\n        /* \"contracts/manager/TableManager.sol\":3629:3656  TableUpdatedStaus(_tableId) */\n      mload(0x40)\n        /* \"#utility.yul\":3018:3043   */\n      dup3\n      dup2\n      mstore\n        /* \"contracts/manager/TableManager.sol\":3629:3656  TableUpdatedStaus(_tableId) */\n      0x806e02512e08b8327ec991fdaf88cc26768ac76f54ec0ce459e8d1215d937167\n      swap1\n        /* \"#utility.yul\":3006:3008   */\n      0x20\n        /* \"#utility.yul\":2991:3009   */\n      add\n        /* \"contracts/manager/TableManager.sol\":3629:3656  TableUpdatedStaus(_tableId) */\n      tag_132\n        /* \"#utility.yul\":2872:3049   */\n      jump\n        /* \"contracts/manager/TableManager.sol\":1636:2183  function updateTable(... */\n    tag_60:\n        /* \"contracts/manager/TableManager.sol\":562:572  roleAccess */\n      sload(0x01)\n        /* \"contracts/manager/TableManager.sol\":562:606  roleAccess.hasRole(tx.origin,RoleType.ADMIN) */\n      mload(0x40)\n      shl(0xe0, 0x95a8c58d)\n      dup2\n      mstore\n      sub(shl(0xa0, 0x01), 0x01)\n        /* \"contracts/manager/TableManager.sol\":562:572  roleAccess */\n      swap1\n      swap2\n      and\n      swap1\n        /* \"contracts/manager/TableManager.sol\":562:580  roleAccess.hasRole */\n      0x95a8c58d\n      swap1\n        /* \"contracts/manager/TableManager.sol\":562:606  roleAccess.hasRole(tx.origin,RoleType.ADMIN) */\n      tag_154\n      swap1\n        /* \"contracts/manager/TableManager.sol\":581:590  tx.origin */\n      origin\n      swap1\n        /* \"contracts/manager/TableManager.sol\":562:572  roleAccess */\n      0x00\n      swap1\n        /* \"contracts/manager/TableManager.sol\":562:606  roleAccess.hasRole(tx.origin,RoleType.ADMIN) */\n      0x04\n      add\n      tag_92\n      jump\t// in\n    tag_154:\n      0x20\n      mload(0x40)\n      dup1\n      dup4\n      sub\n      dup2\n      dup7\n      gas\n      staticcall\n      iszero\n      dup1\n      iszero\n      tag_156\n      jumpi\n      returndatacopy(0x00, 0x00, returndatasize)\n      revert(0x00, returndatasize)\n    tag_156:\n      pop\n      pop\n      pop\n      pop\n      mload(0x40)\n      returndatasize\n      not(0x1f)\n      0x1f\n      dup3\n      add\n      and\n      dup3\n      add\n      dup1\n      0x40\n      mstore\n      pop\n      dup2\n      add\n      swap1\n      tag_157\n      swap2\n      swap1\n      tag_96\n      jump\t// in\n    tag_157:\n        /* \"contracts/manager/TableManager.sol\":554:620  require(roleAccess.hasRole(tx.origin,RoleType.ADMIN), \"Not admin\") */\n      tag_158\n      jumpi\n      mload(0x40)\n      shl(0xe5, 0x461bcd)\n      dup2\n      mstore\n      0x04\n      add\n      tag_77\n      swap1\n      tag_99\n      jump\t// in\n    tag_158:\n        /* \"contracts/manager/TableManager.sol\":1800:1816  tables[_tableId] */\n      0x00\n      dup5\n      dup2\n      mstore\n        /* \"contracts/manager/TableManager.sol\":1800:1806  tables */\n      0x03\n        /* \"contracts/manager/TableManager.sol\":1800:1816  tables[_tableId] */\n      0x20\n      mstore\n      0x40\n      dup2\n      keccak256\n        /* \"contracts/manager/TableManager.sol\":1800:1824  tables[_tableId].tableId */\n      sload\n        /* \"contracts/manager/TableManager.sol\":1800:1829  tables[_tableId].tableId != 0 */\n      swap1\n      sub\n        /* \"contracts/manager/TableManager.sol\":1792:1854  require(tables[_tableId].tableId != 0, \"Table does not exist\") */\n      tag_161\n      jumpi\n      mload(0x40)\n      shl(0xe5, 0x461bcd)\n      dup2\n      mstore\n      0x04\n      add\n      tag_77\n      swap1\n      tag_78\n      jump\t// in\n    tag_161:\n        /* \"contracts/manager/TableManager.sol\":1865:1884  Table storage table */\n      0x00\n        /* \"contracts/manager/TableManager.sol\":1887:1903  tables[_tableId] */\n      dup5\n      dup2\n      mstore\n        /* \"contracts/manager/TableManager.sol\":1887:1893  tables */\n      0x03\n        /* \"contracts/manager/TableManager.sol\":1887:1903  tables[_tableId] */\n      0x20\n      mstore\n      0x40\n      swap1\n      keccak256\n        /* \"contracts/manager/TableManager.sol\":1913:1922  table.row */\n      0x01\n      dup2\n      add\n        /* \"contracts/manager/TableManager.sol\":1913:1929  table.row = _row */\n      dup5\n      swap1\n      sstore\n        /* \"contracts/manager/TableManager.sol\":1939:1948  table.col */\n      0x02\n      dup2\n      add\n        /* \"contracts/manager/TableManager.sol\":1939:1955  table.col = _col */\n      dup4\n      swap1\n      sstore\n        /* \"contracts/manager/TableManager.sol\":2033:2053  bytes(_qrUrl).length */\n      dup2\n      mload\n        /* \"contracts/manager/TableManager.sol\":2033:2057  bytes(_qrUrl).length > 0 */\n      iszero\n        /* \"contracts/manager/TableManager.sol\":2029:2104  if (bytes(_qrUrl).length > 0) {... */\n      tag_163\n      jumpi\n        /* \"contracts/manager/TableManager.sol\":2073:2084  table.qrUrl */\n      0x03\n      dup2\n      add\n        /* \"contracts/manager/TableManager.sol\":2073:2093  table.qrUrl = _qrUrl */\n      tag_164\n        /* \"contracts/manager/TableManager.sol\":2087:2093  _qrUrl */\n      dup4\n        /* \"contracts/manager/TableManager.sol\":2073:2084  table.qrUrl */\n      dup3\n        /* \"contracts/manager/TableManager.sol\":2073:2093  table.qrUrl = _qrUrl */\n      tag_165\n      jump\t// in\n    tag_164:\n      pop\n        /* \"contracts/manager/TableManager.sol\":2029:2104  if (bytes(_qrUrl).length > 0) {... */\n    tag_163:\n        /* \"contracts/manager/TableManager.sol\":2132:2140  _tableId */\n      dup5\n        /* \"contracts/manager/TableManager.sol\":2119:2176  TableUpdated(_tableId, table.row, table.col, table.qrUrl) */\n      0x931b192218d9d356ae347a117cba11643fad952e6585836fe64b5c19031476df\n        /* \"contracts/manager/TableManager.sol\":2142:2147  table */\n      dup3\n        /* \"contracts/manager/TableManager.sol\":2142:2151  table.row */\n      0x01\n      add\n      sload\n        /* \"contracts/manager/TableManager.sol\":2153:2158  table */\n      dup4\n        /* \"contracts/manager/TableManager.sol\":2153:2162  table.col */\n      0x02\n      add\n      sload\n        /* \"contracts/manager/TableManager.sol\":2164:2169  table */\n      dup5\n        /* \"contracts/manager/TableManager.sol\":2164:2175  table.qrUrl */\n      0x03\n      add\n        /* \"contracts/manager/TableManager.sol\":2119:2176  TableUpdated(_tableId, table.row, table.col, table.qrUrl) */\n      mload(0x40)\n      tag_166\n      swap4\n      swap3\n      swap2\n      swap1\n      tag_167\n      jump\t// in\n    tag_166:\n      mload(0x40)\n      dup1\n      swap2\n      sub\n      swap1\n      log2\n        /* \"contracts/manager/TableManager.sol\":1782:2183  {... */\n      pop\n        /* \"contracts/manager/TableManager.sol\":1636:2183  function updateTable(... */\n      pop\n      pop\n      pop\n      pop\n      jump\t// out\n        /* \"contracts/manager/TableManager.sol\":2599:2805  function deleteTable(uint256 _tableId) external override {... */\n    tag_63:\n        /* \"contracts/manager/TableManager.sol\":2674:2690  tables[_tableId] */\n      0x00\n      dup2\n      dup2\n      mstore\n        /* \"contracts/manager/TableManager.sol\":2674:2680  tables */\n      0x03\n        /* \"contracts/manager/TableManager.sol\":2674:2690  tables[_tableId] */\n      0x20\n      mstore\n      0x40\n      dup2\n      keccak256\n        /* \"contracts/manager/TableManager.sol\":2674:2698  tables[_tableId].tableId */\n      sload\n        /* \"contracts/manager/TableManager.sol\":2674:2703  tables[_tableId].tableId != 0 */\n      swap1\n      sub\n        /* \"contracts/manager/TableManager.sol\":2666:2728  require(tables[_tableId].tableId != 0, \"Table does not exist\") */\n      tag_169\n      jumpi\n      mload(0x40)\n      shl(0xe5, 0x461bcd)\n      dup2\n      mstore\n      0x04\n      add\n      tag_77\n      swap1\n      tag_78\n      jump\t// in\n    tag_169:\n        /* \"contracts/manager/TableManager.sol\":2745:2761  tables[_tableId] */\n      0x00\n      dup2\n      dup2\n      mstore\n        /* \"contracts/manager/TableManager.sol\":2745:2751  tables */\n      0x03\n        /* \"contracts/manager/TableManager.sol\":2745:2761  tables[_tableId] */\n      0x20\n      dup2\n      swap1\n      mstore\n      0x40\n      dup3\n      keccak256\n        /* \"contracts/manager/TableManager.sol\":2738:2761  delete tables[_tableId] */\n      dup3\n      dup2\n      sstore\n      0x01\n      dup2\n      add\n      dup4\n      swap1\n      sstore\n      0x02\n      dup2\n      add\n      dup4\n      swap1\n      sstore\n        /* \"contracts/manager/TableManager.sol\":2745:2761  tables[_tableId] */\n      swap2\n      swap1\n        /* \"contracts/manager/TableManager.sol\":2738:2761  delete tables[_tableId] */\n      tag_171\n      swap1\n      dup4\n      add\n        /* \"contracts/manager/TableManager.sol\":2745:2761  tables[_tableId] */\n      dup3\n        /* \"contracts/manager/TableManager.sol\":2738:2761  delete tables[_tableId] */\n      tag_172\n      jump\t// in\n    tag_171:\n      pop\n      0x04\n      add\n      dup1\n      sload\n      not(0xff)\n      and\n      swap1\n      sstore\n        /* \"contracts/manager/TableManager.sol\":2776:2798  TableDeleted(_tableId) */\n      mload(0x40)\n        /* \"#utility.yul\":3018:3043   */\n      dup2\n      dup2\n      mstore\n        /* \"contracts/manager/TableManager.sol\":2776:2798  TableDeleted(_tableId) */\n      0xe9acaee49f406ba06f0464ee11615009a1b531e51e3e9d4427228acae8a4e6ba\n      swap1\n        /* \"#utility.yul\":3006:3008   */\n      0x20\n        /* \"#utility.yul\":2991:3009   */\n      add\n        /* \"contracts/manager/TableManager.sol\":2776:2798  TableDeleted(_tableId) */\n      mload(0x40)\n      dup1\n      swap2\n      sub\n      swap1\n      log1\n        /* \"contracts/manager/TableManager.sol\":2599:2805  function deleteTable(uint256 _tableId) external override {... */\n      pop\n      jump\t// out\n        /* \"contracts/manager/TableManager.sol\":1018:1630  function addTable(... */\n    tag_71:\n        /* \"contracts/manager/TableManager.sol\":562:572  roleAccess */\n      sload(0x01)\n        /* \"contracts/manager/TableManager.sol\":562:606  roleAccess.hasRole(tx.origin,RoleType.ADMIN) */\n      mload(0x40)\n      shl(0xe0, 0x95a8c58d)\n      dup2\n      mstore\n        /* \"contracts/manager/TableManager.sol\":1153:1160  uint256 */\n      0x00\n      swap2\n      sub(shl(0xa0, 0x01), 0x01)\n        /* \"contracts/manager/TableManager.sol\":562:572  roleAccess */\n      and\n      swap1\n        /* \"contracts/manager/TableManager.sol\":562:580  roleAccess.hasRole */\n      0x95a8c58d\n      swap1\n        /* \"contracts/manager/TableManager.sol\":562:606  roleAccess.hasRole(tx.origin,RoleType.ADMIN) */\n      tag_175\n      swap1\n        /* \"contracts/manager/TableManager.sol\":581:590  tx.origin */\n      origin\n      swap1\n        /* \"contracts/manager/TableManager.sol\":1153:1160  uint256 */\n      dup6\n      swap1\n        /* \"contracts/manager/TableManager.sol\":562:606  roleAccess.hasRole(tx.origin,RoleType.ADMIN) */\n      0x04\n      add\n      tag_92\n      jump\t// in\n    tag_175:\n      0x20\n      mload(0x40)\n      dup1\n      dup4\n      sub\n      dup2\n      dup7\n      gas\n      staticcall\n      iszero\n      dup1\n      iszero\n      tag_177\n      jumpi\n      returndatacopy(0x00, 0x00, returndatasize)\n      revert(0x00, returndatasize)\n    tag_177:\n      pop\n      pop\n      pop\n      pop\n      mload(0x40)\n      returndatasize\n      not(0x1f)\n      0x1f\n      dup3\n      add\n      and\n      dup3\n      add\n      dup1\n      0x40\n      mstore\n      pop\n      dup2\n      add\n      swap1\n      tag_178\n      swap2\n      swap1\n      tag_96\n      jump\t// in\n    tag_178:\n        /* \"contracts/manager/TableManager.sol\":554:620  require(roleAccess.hasRole(tx.origin,RoleType.ADMIN), \"Not admin\") */\n      tag_179\n      jumpi\n      mload(0x40)\n      shl(0xe5, 0x461bcd)\n      dup2\n      mstore\n      0x04\n      add\n      tag_77\n      swap1\n      tag_99\n      jump\t// in\n    tag_179:\n        /* \"contracts/manager/TableManager.sol\":1187:1188  0 */\n      0x00\n        /* \"contracts/manager/TableManager.sol\":1180:1184  _row */\n      dup5\n        /* \"contracts/manager/TableManager.sol\":1180:1188  _row > 0 */\n      gt\n        /* \"contracts/manager/TableManager.sol\":1180:1200  _row > 0 && _col > 0 */\n      dup1\n      iszero\n      tag_182\n      jumpi\n      pop\n        /* \"contracts/manager/TableManager.sol\":1199:1200  0 */\n      0x00\n        /* \"contracts/manager/TableManager.sol\":1192:1196  _col */\n      dup4\n        /* \"contracts/manager/TableManager.sol\":1192:1200  _col > 0 */\n      gt\n        /* \"contracts/manager/TableManager.sol\":1180:1200  _row > 0 && _col > 0 */\n    tag_182:\n        /* \"contracts/manager/TableManager.sol\":1172:1242  require(_row > 0 && _col > 0, \"Row and column must be greater than 0\") */\n      tag_183\n      jumpi\n      mload(0x40)\n      shl(0xe5, 0x461bcd)\n      dup2\n      mstore\n      0x04\n      add\n      tag_77\n      swap1\n      tag_106\n      jump\t// in\n    tag_183:\n        /* \"contracts/manager/TableManager.sol\":1283:1284  0 */\n      0x00\n        /* \"contracts/manager/TableManager.sol\":1266:1272  _qrUrl */\n      dup3\n        /* \"contracts/manager/TableManager.sol\":1260:1280  bytes(_qrUrl).length */\n      mload\n        /* \"contracts/manager/TableManager.sol\":1260:1284  bytes(_qrUrl).length > 0 */\n      gt\n        /* \"contracts/manager/TableManager.sol\":1252:1311  require(bytes(_qrUrl).length > 0, \"QR URL cannot be empty\") */\n      tag_185\n      jumpi\n      mload(0x40)\n      shl(0xe5, 0x461bcd)\n      dup2\n      mstore\n        /* \"#utility.yul\":13177:13179   */\n      0x20\n        /* \"contracts/manager/TableManager.sol\":1252:1311  require(bytes(_qrUrl).length > 0, \"QR URL cannot be empty\") */\n      0x04\n      dup3\n      add\n        /* \"#utility.yul\":13159:13180   */\n      mstore\n        /* \"#utility.yul\":13216:13218   */\n      0x16\n        /* \"#utility.yul\":13196:13214   */\n      0x24\n      dup3\n      add\n        /* \"#utility.yul\":13189:13219   */\n      mstore\n      shl(0x50, 0x51522055524c2063616e6e6f7420626520656d707479)\n        /* \"#utility.yul\":13235:13253   */\n      0x44\n      dup3\n      add\n        /* \"#utility.yul\":13228:13280   */\n      mstore\n        /* \"#utility.yul\":13297:13315   */\n      0x64\n      add\n        /* \"contracts/manager/TableManager.sol\":1252:1311  require(bytes(_qrUrl).length > 0, \"QR URL cannot be empty\") */\n      tag_77\n        /* \"#utility.yul\":12975:13321   */\n      jump\n        /* \"contracts/manager/TableManager.sol\":1252:1311  require(bytes(_qrUrl).length > 0, \"QR URL cannot be empty\") */\n    tag_185:\n        /* \"contracts/manager/TableManager.sol\":1342:1353  nextTableId */\n      0x02\n        /* \"contracts/manager/TableManager.sol\":1342:1355  nextTableId++ */\n      dup1\n      sload\n        /* \"contracts/manager/TableManager.sol\":1321:1339  uint256 newTableId */\n      0x00\n      swap2\n      dup3\n        /* \"contracts/manager/TableManager.sol\":1342:1355  nextTableId++ */\n      tag_188\n      dup4\n      tag_189\n      jump\t// in\n    tag_188:\n      swap2\n      swap1\n      pop\n      sstore\n        /* \"contracts/manager/TableManager.sol\":1321:1355  uint256 newTableId = nextTableId++ */\n      swap1\n      pop\n        /* \"contracts/manager/TableManager.sol\":1386:1547  Table({... */\n      mload(0x40)\n      dup1\n      0xa0\n      add\n      0x40\n      mstore\n      dup1\n        /* \"contracts/manager/TableManager.sol\":1415:1425  newTableId */\n      dup3\n        /* \"contracts/manager/TableManager.sol\":1386:1547  Table({... */\n      dup2\n      mstore\n      0x20\n      add\n        /* \"contracts/manager/TableManager.sol\":1444:1448  _row */\n      dup7\n        /* \"contracts/manager/TableManager.sol\":1386:1547  Table({... */\n      dup2\n      mstore\n      0x20\n      add\n        /* \"contracts/manager/TableManager.sol\":1467:1471  _col */\n      dup6\n        /* \"contracts/manager/TableManager.sol\":1386:1547  Table({... */\n      dup2\n      mstore\n      0x20\n      add\n        /* \"contracts/manager/TableManager.sol\":1492:1498  _qrUrl */\n      dup5\n        /* \"contracts/manager/TableManager.sol\":1386:1547  Table({... */\n      dup2\n      mstore\n      0x20\n      add\n        /* \"contracts/manager/TableManager.sol\":1520:1536  TableStatus.Free */\n      0x00\n        /* \"contracts/manager/TableManager.sol\":1386:1547  Table({... */\n      0x01\n      dup2\n      gt\n      iszero\n      tag_191\n      jumpi\n      tag_191\n      tag_87\n      jump\t// in\n    tag_191:\n      swap1\n      mstore\n        /* \"contracts/manager/TableManager.sol\":1365:1383  tables[newTableId] */\n      0x00\n      dup3\n      dup2\n      mstore\n        /* \"contracts/manager/TableManager.sol\":1365:1371  tables */\n      0x03\n        /* \"contracts/manager/TableManager.sol\":1365:1383  tables[newTableId] */\n      0x20\n      dup2\n      dup2\n      mstore\n      0x40\n      swap3\n      dup4\n      swap1\n      keccak256\n        /* \"contracts/manager/TableManager.sol\":1365:1547  tables[newTableId] = Table({... */\n      dup5\n      mload\n      dup2\n      sstore\n      swap1\n      dup5\n      add\n      mload\n      0x01\n      dup3\n      add\n      sstore\n      swap2\n      dup4\n      add\n      mload\n      0x02\n      dup4\n      add\n      sstore\n      0x60\n      dup4\n      add\n      mload\n      swap1\n      dup3\n      add\n      swap1\n      tag_192\n      swap1\n      dup3\n      tag_165\n      jump\t// in\n    tag_192:\n      pop\n      0x80\n      dup3\n      add\n      mload\n      0x04\n      dup3\n      add\n      dup1\n      sload\n      not(0xff)\n      and\n      0x01\n      dup4\n      dup2\n      dup2\n      gt\n      iszero\n      tag_194\n      jumpi\n      tag_194\n      tag_87\n      jump\t// in\n    tag_194:\n      mul\n      or\n      swap1\n      sstore\n      pop\n      pop\n        /* \"contracts/manager/TableManager.sol\":1562:1596  TableAdded(newTableId, _row, _col) */\n      0x40\n      dup1\n      mload\n        /* \"#utility.yul\":8727:8752   */\n      dup4\n      dup2\n      mstore\n        /* \"#utility.yul\":8783:8785   */\n      0x20\n        /* \"#utility.yul\":8768:8786   */\n      dup2\n      add\n        /* \"#utility.yul\":8761:8795   */\n      dup9\n      swap1\n      mstore\n        /* \"#utility.yul\":8811:8829   */\n      swap1\n      dup2\n      add\n        /* \"#utility.yul\":8804:8838   */\n      dup7\n      swap1\n      mstore\n        /* \"contracts/manager/TableManager.sol\":1562:1596  TableAdded(newTableId, _row, _col) */\n      0x7c625ad207b65d4c400b3daab560616556395dfe69ebc199b59250c837db78e3\n      swap2\n      pop\n        /* \"#utility.yul\":8715:8717   */\n      0x60\n        /* \"#utility.yul\":8700:8718   */\n      add\n        /* \"contracts/manager/TableManager.sol\":1562:1596  TableAdded(newTableId, _row, _col) */\n      mload(0x40)\n      dup1\n      swap2\n      sub\n      swap1\n      log1\n        /* \"contracts/manager/TableManager.sol\":1613:1623  newTableId */\n      swap5\n        /* \"contracts/manager/TableManager.sol\":1018:1630  function addTable(... */\n      swap4\n      pop\n      pop\n      pop\n      pop\n      jump\t// out\n    tag_74:\n      mload(0x40)\n      dup1\n      0xa0\n      add\n      0x40\n      mstore\n      dup1\n      0x00\n      dup2\n      mstore\n      0x20\n      add\n      0x00\n      dup2\n      mstore\n      0x20\n      add\n      0x00\n      dup2\n      mstore\n      0x20\n      add\n      0x60\n      dup2\n      mstore\n      0x20\n      add\n      0x00\n      0x01\n      dup2\n      gt\n      iszero\n      tag_197\n      jumpi\n      tag_197\n      tag_87\n      jump\t// in\n    tag_197:\n      swap1\n      mstore\n      swap1\n      jump\t// out\n    tag_172:\n      pop\n      dup1\n      sload\n      tag_198\n      swap1\n      tag_80\n      jump\t// in\n    tag_198:\n      0x00\n      dup3\n      sstore\n      dup1\n      0x1f\n      lt\n      tag_200\n      jumpi\n      pop\n      pop\n      jump\t// out\n    tag_200:\n      0x1f\n      add\n      0x20\n      swap1\n      div\n      swap1\n      0x00\n      mstore\n      keccak256(0x00, 0x20)\n      swap1\n      dup2\n      add\n      swap1\n      tag_201\n      swap2\n      swap1\n      tag_202\n      jump\t// in\n    tag_201:\n      pop\n      jump\t// out\n    tag_202:\n    tag_203:\n      dup1\n      dup3\n      gt\n      iszero\n      tag_204\n      jumpi\n      0x00\n      dup2\n      sstore\n      0x01\n      add\n      jump(tag_203)\n    tag_204:\n      pop\n      swap1\n      jump\t// out\n        /* \"#utility.yul\":14:240   */\n    tag_20:\n        /* \"#utility.yul\":73:79   */\n      0x00\n        /* \"#utility.yul\":126:128   */\n      0x20\n        /* \"#utility.yul\":114:123   */\n      dup3\n        /* \"#utility.yul\":105:112   */\n      dup5\n        /* \"#utility.yul\":101:124   */\n      sub\n        /* \"#utility.yul\":97:129   */\n      slt\n        /* \"#utility.yul\":94:146   */\n      iszero\n      tag_214\n      jumpi\n        /* \"#utility.yul\":142:143   */\n      0x00\n        /* \"#utility.yul\":139:140   */\n      0x00\n        /* \"#utility.yul\":132:144   */\n      revert\n        /* \"#utility.yul\":94:146   */\n    tag_214:\n      pop\n        /* \"#utility.yul\":187:210   */\n      calldataload\n      swap2\n        /* \"#utility.yul\":14:240   */\n      swap1\n      pop\n      jump\t// out\n        /* \"#utility.yul\":245:534   */\n    tag_205:\n        /* \"#utility.yul\":287:290   */\n      0x00\n        /* \"#utility.yul\":325:330   */\n      dup2\n        /* \"#utility.yul\":319:331   */\n      mload\n        /* \"#utility.yul\":352:358   */\n      dup1\n        /* \"#utility.yul\":347:350   */\n      dup5\n        /* \"#utility.yul\":340:359   */\n      mstore\n        /* \"#utility.yul\":408:414   */\n      dup1\n        /* \"#utility.yul\":401:405   */\n      0x20\n        /* \"#utility.yul\":394:399   */\n      dup5\n        /* \"#utility.yul\":390:406   */\n      add\n        /* \"#utility.yul\":383:387   */\n      0x20\n        /* \"#utility.yul\":378:381   */\n      dup7\n        /* \"#utility.yul\":374:388   */\n      add\n        /* \"#utility.yul\":368:415   */\n      mcopy\n        /* \"#utility.yul\":460:461   */\n      0x00\n        /* \"#utility.yul\":453:457   */\n      0x20\n        /* \"#utility.yul\":444:450   */\n      dup3\n        /* \"#utility.yul\":439:442   */\n      dup7\n        /* \"#utility.yul\":435:451   */\n      add\n        /* \"#utility.yul\":431:458   */\n      add\n        /* \"#utility.yul\":424:462   */\n      mstore\n        /* \"#utility.yul\":523:527   */\n      0x20\n        /* \"#utility.yul\":516:518   */\n      0x1f\n        /* \"#utility.yul\":512:519   */\n      not\n        /* \"#utility.yul\":507:509   */\n      0x1f\n        /* \"#utility.yul\":499:505   */\n      dup4\n        /* \"#utility.yul\":495:510   */\n      add\n        /* \"#utility.yul\":491:520   */\n      and\n        /* \"#utility.yul\":486:489   */\n      dup6\n        /* \"#utility.yul\":482:521   */\n      add\n        /* \"#utility.yul\":478:528   */\n      add\n        /* \"#utility.yul\":471:528   */\n      swap2\n      pop\n      pop\n        /* \"#utility.yul\":245:534   */\n      swap3\n      swap2\n      pop\n      pop\n      jump\t// out\n        /* \"#utility.yul\":539:666   */\n    tag_87:\n        /* \"#utility.yul\":600:610   */\n      0x4e487b71\n        /* \"#utility.yul\":595:598   */\n      0xe0\n        /* \"#utility.yul\":591:611   */\n      shl\n        /* \"#utility.yul\":588:589   */\n      0x00\n        /* \"#utility.yul\":581:612   */\n      mstore\n        /* \"#utility.yul\":631:635   */\n      0x21\n        /* \"#utility.yul\":628:629   */\n      0x04\n        /* \"#utility.yul\":621:636   */\n      mstore\n        /* \"#utility.yul\":655:659   */\n      0x24\n        /* \"#utility.yul\":652:653   */\n      0x00\n        /* \"#utility.yul\":645:660   */\n      revert\n        /* \"#utility.yul\":671:884   */\n    tag_206:\n        /* \"#utility.yul\":755:756   */\n      0x02\n        /* \"#utility.yul\":748:753   */\n      dup2\n        /* \"#utility.yul\":745:757   */\n      lt\n        /* \"#utility.yul\":735:878   */\n      tag_201\n      jumpi\n        /* \"#utility.yul\":800:810   */\n      0x4e487b71\n        /* \"#utility.yul\":795:798   */\n      0xe0\n        /* \"#utility.yul\":791:811   */\n      shl\n        /* \"#utility.yul\":788:789   */\n      0x00\n        /* \"#utility.yul\":781:812   */\n      mstore\n        /* \"#utility.yul\":835:839   */\n      0x21\n        /* \"#utility.yul\":832:833   */\n      0x04\n        /* \"#utility.yul\":825:840   */\n      mstore\n        /* \"#utility.yul\":863:867   */\n      0x24\n        /* \"#utility.yul\":860:861   */\n      0x00\n        /* \"#utility.yul\":853:868   */\n      revert\n        /* \"#utility.yul\":889:1595   */\n    tag_23:\n        /* \"#utility.yul\":1062:1064   */\n      0x20\n        /* \"#utility.yul\":1051:1060   */\n      dup2\n        /* \"#utility.yul\":1044:1065   */\n      mstore\n        /* \"#utility.yul\":1107:1113   */\n      dup2\n        /* \"#utility.yul\":1101:1114   */\n      mload\n        /* \"#utility.yul\":1096:1098   */\n      0x20\n        /* \"#utility.yul\":1085:1094   */\n      dup3\n        /* \"#utility.yul\":1081:1099   */\n      add\n        /* \"#utility.yul\":1074:1115   */\n      mstore\n        /* \"#utility.yul\":1169:1171   */\n      0x20\n        /* \"#utility.yul\":1161:1167   */\n      dup3\n        /* \"#utility.yul\":1157:1172   */\n      add\n        /* \"#utility.yul\":1151:1173   */\n      mload\n        /* \"#utility.yul\":1146:1148   */\n      0x40\n        /* \"#utility.yul\":1135:1144   */\n      dup3\n        /* \"#utility.yul\":1131:1149   */\n      add\n        /* \"#utility.yul\":1124:1174   */\n      mstore\n        /* \"#utility.yul\":1228:1230   */\n      0x40\n        /* \"#utility.yul\":1220:1226   */\n      dup3\n        /* \"#utility.yul\":1216:1231   */\n      add\n        /* \"#utility.yul\":1210:1232   */\n      mload\n        /* \"#utility.yul\":1205:1207   */\n      0x60\n        /* \"#utility.yul\":1194:1203   */\n      dup3\n        /* \"#utility.yul\":1190:1208   */\n      add\n        /* \"#utility.yul\":1183:1233   */\n      mstore\n        /* \"#utility.yul\":1025:1029   */\n      0x00\n        /* \"#utility.yul\":1280:1282   */\n      0x60\n        /* \"#utility.yul\":1272:1278   */\n      dup4\n        /* \"#utility.yul\":1268:1283   */\n      add\n        /* \"#utility.yul\":1262:1284   */\n      mload\n        /* \"#utility.yul\":1321:1325   */\n      0xa0\n        /* \"#utility.yul\":1315:1318   */\n      0x80\n        /* \"#utility.yul\":1304:1313   */\n      dup5\n        /* \"#utility.yul\":1300:1319   */\n      add\n        /* \"#utility.yul\":1293:1326   */\n      mstore\n        /* \"#utility.yul\":1349:1401   */\n      tag_220\n        /* \"#utility.yul\":1396:1399   */\n      0xc0\n        /* \"#utility.yul\":1385:1394   */\n      dup5\n        /* \"#utility.yul\":1381:1400   */\n      add\n        /* \"#utility.yul\":1367:1379   */\n      dup3\n        /* \"#utility.yul\":1349:1401   */\n      tag_205\n      jump\t// in\n    tag_220:\n        /* \"#utility.yul\":1335:1401   */\n      swap1\n      pop\n        /* \"#utility.yul\":1450:1453   */\n      0x80\n        /* \"#utility.yul\":1442:1448   */\n      dup5\n        /* \"#utility.yul\":1438:1454   */\n      add\n        /* \"#utility.yul\":1432:1455   */\n      mload\n        /* \"#utility.yul\":1464:1513   */\n      tag_221\n        /* \"#utility.yul\":1498:1512   */\n      dup2\n        /* \"#utility.yul\":1464:1513   */\n      tag_206\n      jump\t// in\n    tag_221:\n        /* \"#utility.yul\":1544:1548   */\n      0xa0\n        /* \"#utility.yul\":1529:1549   */\n      swap4\n      swap1\n      swap4\n      add\n        /* \"#utility.yul\":1522:1566   */\n      swap3\n      swap1\n      swap3\n      mstore\n      pop\n        /* \"#utility.yul\":1583:1589   */\n      swap2\n        /* \"#utility.yul\":889:1595   */\n      swap1\n      pop\n      jump\t// out\n        /* \"#utility.yul\":1826:2292   */\n    tag_30:\n        /* \"#utility.yul\":1903:1909   */\n      0x00\n        /* \"#utility.yul\":1911:1917   */\n      0x00\n        /* \"#utility.yul\":1919:1925   */\n      0x00\n        /* \"#utility.yul\":1972:1974   */\n      0x60\n        /* \"#utility.yul\":1960:1969   */\n      dup5\n        /* \"#utility.yul\":1951:1958   */\n      dup7\n        /* \"#utility.yul\":1947:1970   */\n      sub\n        /* \"#utility.yul\":1943:1975   */\n      slt\n        /* \"#utility.yul\":1940:1992   */\n      iszero\n      tag_224\n      jumpi\n        /* \"#utility.yul\":1988:1989   */\n      0x00\n        /* \"#utility.yul\":1985:1986   */\n      0x00\n        /* \"#utility.yul\":1978:1990   */\n      revert\n        /* \"#utility.yul\":1940:1992   */\n    tag_224:\n      pop\n      pop\n        /* \"#utility.yul\":2033:2056   */\n      dup2\n      calldataload\n      swap4\n        /* \"#utility.yul\":2153:2155   */\n      0x20\n        /* \"#utility.yul\":2138:2156   */\n      dup4\n      add\n        /* \"#utility.yul\":2125:2157   */\n      calldataload\n      swap4\n      pop\n        /* \"#utility.yul\":2256:2258   */\n      0x40\n        /* \"#utility.yul\":2241:2259   */\n      swap1\n      swap3\n      add\n        /* \"#utility.yul\":2228:2260   */\n      calldataload\n      swap2\n        /* \"#utility.yul\":1826:2292   */\n      swap1\n      pop\n      jump\t// out\n        /* \"#utility.yul\":2297:2867   */\n    tag_36:\n        /* \"#utility.yul\":2571:2577   */\n      dup6\n        /* \"#utility.yul\":2560:2569   */\n      dup2\n        /* \"#utility.yul\":2553:2578   */\n      mstore\n        /* \"#utility.yul\":2614:2620   */\n      dup5\n        /* \"#utility.yul\":2609:2611   */\n      0x20\n        /* \"#utility.yul\":2598:2607   */\n      dup3\n        /* \"#utility.yul\":2594:2612   */\n      add\n        /* \"#utility.yul\":2587:2621   */\n      mstore\n        /* \"#utility.yul\":2657:2663   */\n      dup4\n        /* \"#utility.yul\":2652:2654   */\n      0x40\n        /* \"#utility.yul\":2641:2650   */\n      dup3\n        /* \"#utility.yul\":2637:2655   */\n      add\n        /* \"#utility.yul\":2630:2664   */\n      mstore\n        /* \"#utility.yul\":2700:2703   */\n      0xa0\n        /* \"#utility.yul\":2695:2697   */\n      0x60\n        /* \"#utility.yul\":2684:2693   */\n      dup3\n        /* \"#utility.yul\":2680:2698   */\n      add\n        /* \"#utility.yul\":2673:2704   */\n      mstore\n        /* \"#utility.yul\":2534:2538   */\n      0x00\n        /* \"#utility.yul\":2721:2767   */\n      tag_226\n        /* \"#utility.yul\":2762:2765   */\n      0xa0\n        /* \"#utility.yul\":2751:2760   */\n      dup4\n        /* \"#utility.yul\":2747:2766   */\n      add\n        /* \"#utility.yul\":2739:2745   */\n      dup6\n        /* \"#utility.yul\":2721:2767   */\n      tag_205\n      jump\t// in\n    tag_226:\n        /* \"#utility.yul\":2713:2767   */\n      swap1\n      pop\n        /* \"#utility.yul\":2776:2817   */\n      tag_227\n        /* \"#utility.yul\":2810:2816   */\n      dup4\n        /* \"#utility.yul\":2776:2817   */\n      tag_206\n      jump\t// in\n    tag_227:\n        /* \"#utility.yul\":2854:2860   */\n      dup3\n        /* \"#utility.yul\":2848:2851   */\n      0x80\n        /* \"#utility.yul\":2837:2846   */\n      dup4\n        /* \"#utility.yul\":2833:2852   */\n      add\n        /* \"#utility.yul\":2826:2861   */\n      mstore\n        /* \"#utility.yul\":2297:2867   */\n      swap7\n      swap6\n      pop\n      pop\n      pop\n      pop\n      pop\n      pop\n      jump\t// out\n        /* \"#utility.yul\":3054:3400   */\n    tag_43:\n        /* \"#utility.yul\":3122:3128   */\n      0x00\n        /* \"#utility.yul\":3130:3136   */\n      0x00\n        /* \"#utility.yul\":3183:3185   */\n      0x40\n        /* \"#utility.yul\":3171:3180   */\n      dup4\n        /* \"#utility.yul\":3162:3169   */\n      dup6\n        /* \"#utility.yul\":3158:3181   */\n      sub\n        /* \"#utility.yul\":3154:3186   */\n      slt\n        /* \"#utility.yul\":3151:3203   */\n      iszero\n      tag_230\n      jumpi\n        /* \"#utility.yul\":3199:3200   */\n      0x00\n        /* \"#utility.yul\":3196:3197   */\n      0x00\n        /* \"#utility.yul\":3189:3201   */\n      revert\n        /* \"#utility.yul\":3151:3203   */\n    tag_230:\n      pop\n      pop\n        /* \"#utility.yul\":3244:3267   */\n      dup1\n      calldataload\n      swap3\n        /* \"#utility.yul\":3364:3366   */\n      0x20\n        /* \"#utility.yul\":3349:3367   */\n      swap1\n      swap2\n      add\n        /* \"#utility.yul\":3336:3368   */\n      calldataload\n      swap2\n      pop\n        /* \"#utility.yul\":3054:3400   */\n      jump\t// out\n        /* \"#utility.yul\":3405:3796   */\n    tag_51:\n        /* \"#utility.yul\":3488:3494   */\n      0x00\n        /* \"#utility.yul\":3496:3502   */\n      0x00\n        /* \"#utility.yul\":3549:3551   */\n      0x40\n        /* \"#utility.yul\":3537:3546   */\n      dup4\n        /* \"#utility.yul\":3528:3535   */\n      dup6\n        /* \"#utility.yul\":3524:3547   */\n      sub\n        /* \"#utility.yul\":3520:3552   */\n      slt\n        /* \"#utility.yul\":3517:3569   */\n      iszero\n      tag_232\n      jumpi\n        /* \"#utility.yul\":3565:3566   */\n      0x00\n        /* \"#utility.yul\":3562:3563   */\n      0x00\n        /* \"#utility.yul\":3555:3567   */\n      revert\n        /* \"#utility.yul\":3517:3569   */\n    tag_232:\n        /* \"#utility.yul\":3610:3633   */\n      dup3\n      calldataload\n      swap2\n      pop\n        /* \"#utility.yul\":3709:3711   */\n      0x20\n        /* \"#utility.yul\":3694:3712   */\n      dup4\n      add\n        /* \"#utility.yul\":3681:3713   */\n      calldataload\n        /* \"#utility.yul\":3744:3745   */\n      0x02\n        /* \"#utility.yul\":3732:3746   */\n      dup2\n      lt\n        /* \"#utility.yul\":3722:3764   */\n      tag_233\n      jumpi\n        /* \"#utility.yul\":3760:3761   */\n      0x00\n        /* \"#utility.yul\":3757:3758   */\n      0x00\n        /* \"#utility.yul\":3750:3762   */\n      revert\n        /* \"#utility.yul\":3722:3764   */\n    tag_233:\n        /* \"#utility.yul\":3783:3790   */\n      dup1\n        /* \"#utility.yul\":3773:3790   */\n      swap2\n      pop\n      pop\n        /* \"#utility.yul\":3405:3796   */\n      swap3\n      pop\n      swap3\n      swap1\n      pop\n      jump\t// out\n        /* \"#utility.yul\":3801:4087   */\n    tag_55:\n        /* \"#utility.yul\":3860:3866   */\n      0x00\n        /* \"#utility.yul\":3913:3915   */\n      0x20\n        /* \"#utility.yul\":3901:3910   */\n      dup3\n        /* \"#utility.yul\":3892:3899   */\n      dup5\n        /* \"#utility.yul\":3888:3911   */\n      sub\n        /* \"#utility.yul\":3884:3916   */\n      slt\n        /* \"#utility.yul\":3881:3933   */\n      iszero\n      tag_235\n      jumpi\n        /* \"#utility.yul\":3929:3930   */\n      0x00\n        /* \"#utility.yul\":3926:3927   */\n      0x00\n        /* \"#utility.yul\":3919:3931   */\n      revert\n        /* \"#utility.yul\":3881:3933   */\n    tag_235:\n        /* \"#utility.yul\":3955:3978   */\n      dup2\n      calldataload\n      sub(shl(0xa0, 0x01), 0x01)\n        /* \"#utility.yul\":4007:4038   */\n      dup2\n      and\n        /* \"#utility.yul\":3997:4039   */\n      dup2\n      eq\n        /* \"#utility.yul\":3987:4057   */\n      tag_236\n      jumpi\n        /* \"#utility.yul\":4053:4054   */\n      0x00\n        /* \"#utility.yul\":4050:4051   */\n      0x00\n        /* \"#utility.yul\":4043:4055   */\n      revert\n        /* \"#utility.yul\":3987:4057   */\n    tag_236:\n        /* \"#utility.yul\":4076:4081   */\n      swap4\n        /* \"#utility.yul\":3801:4087   */\n      swap3\n      pop\n      pop\n      pop\n      jump\t// out\n        /* \"#utility.yul\":4092:4219   */\n    tag_207:\n        /* \"#utility.yul\":4153:4163   */\n      0x4e487b71\n        /* \"#utility.yul\":4148:4151   */\n      0xe0\n        /* \"#utility.yul\":4144:4164   */\n      shl\n        /* \"#utility.yul\":4141:4142   */\n      0x00\n        /* \"#utility.yul\":4134:4165   */\n      mstore\n        /* \"#utility.yul\":4184:4188   */\n      0x41\n        /* \"#utility.yul\":4181:4182   */\n      0x04\n        /* \"#utility.yul\":4174:4189   */\n      mstore\n        /* \"#utility.yul\":4208:4212   */\n      0x24\n        /* \"#utility.yul\":4205:4206   */\n      0x00\n        /* \"#utility.yul\":4198:4213   */\n      revert\n        /* \"#utility.yul\":4224:4950   */\n    tag_208:\n        /* \"#utility.yul\":4267:4272   */\n      0x00\n        /* \"#utility.yul\":4320:4323   */\n      dup3\n        /* \"#utility.yul\":4313:4317   */\n      0x1f\n        /* \"#utility.yul\":4305:4311   */\n      dup4\n        /* \"#utility.yul\":4301:4318   */\n      add\n        /* \"#utility.yul\":4297:4324   */\n      slt\n        /* \"#utility.yul\":4287:4342   */\n      tag_239\n      jumpi\n        /* \"#utility.yul\":4338:4339   */\n      0x00\n        /* \"#utility.yul\":4335:4336   */\n      0x00\n        /* \"#utility.yul\":4328:4340   */\n      revert\n        /* \"#utility.yul\":4287:4342   */\n    tag_239:\n        /* \"#utility.yul\":4378:4384   */\n      dup2\n        /* \"#utility.yul\":4365:4385   */\n      calldataload\n        /* \"#utility.yul\":4408:4426   */\n      0xffffffffffffffff\n        /* \"#utility.yul\":4400:4406   */\n      dup2\n        /* \"#utility.yul\":4397:4427   */\n      gt\n        /* \"#utility.yul\":4394:4450   */\n      iszero\n      tag_241\n      jumpi\n        /* \"#utility.yul\":4430:4448   */\n      tag_241\n      tag_207\n      jump\t// in\n    tag_241:\n        /* \"#utility.yul\":4479:4481   */\n      0x40\n        /* \"#utility.yul\":4473:4482   */\n      mload\n        /* \"#utility.yul\":4571:4573   */\n      0x1f\n        /* \"#utility.yul\":4533:4550   */\n      dup3\n      add\n      not(0x1f)\n        /* \"#utility.yul\":4529:4560   */\n      swap1\n      dup2\n      and\n        /* \"#utility.yul\":4562:4564   */\n      0x3f\n        /* \"#utility.yul\":4525:4565   */\n      add\n        /* \"#utility.yul\":4521:4575   */\n      and\n        /* \"#utility.yul\":4509:4576   */\n      dup2\n      add\n        /* \"#utility.yul\":4606:4624   */\n      0xffffffffffffffff\n        /* \"#utility.yul\":4591:4625   */\n      dup2\n      gt\n        /* \"#utility.yul\":4627:4649   */\n      dup3\n      dup3\n      lt\n        /* \"#utility.yul\":4588:4650   */\n      or\n        /* \"#utility.yul\":4585:4673   */\n      iszero\n      tag_243\n      jumpi\n        /* \"#utility.yul\":4653:4671   */\n      tag_243\n      tag_207\n      jump\t// in\n    tag_243:\n        /* \"#utility.yul\":4689:4691   */\n      0x40\n        /* \"#utility.yul\":4682:4704   */\n      mstore\n        /* \"#utility.yul\":4713:4735   */\n      dup2\n      dup2\n      mstore\n        /* \"#utility.yul\":4754:4773   */\n      dup4\n      dup3\n      add\n        /* \"#utility.yul\":4775:4779   */\n      0x20\n        /* \"#utility.yul\":4750:4780   */\n      add\n        /* \"#utility.yul\":4747:4786   */\n      dup6\n      lt\n        /* \"#utility.yul\":4744:4803   */\n      iszero\n      tag_244\n      jumpi\n        /* \"#utility.yul\":4799:4800   */\n      0x00\n        /* \"#utility.yul\":4796:4797   */\n      0x00\n        /* \"#utility.yul\":4789:4801   */\n      revert\n        /* \"#utility.yul\":4744:4803   */\n    tag_244:\n        /* \"#utility.yul\":4863:4869   */\n      dup2\n        /* \"#utility.yul\":4856:4860   */\n      0x20\n        /* \"#utility.yul\":4848:4854   */\n      dup6\n        /* \"#utility.yul\":4844:4861   */\n      add\n        /* \"#utility.yul\":4837:4841   */\n      0x20\n        /* \"#utility.yul\":4829:4835   */\n      dup4\n        /* \"#utility.yul\":4825:4842   */\n      add\n        /* \"#utility.yul\":4812:4870   */\n      calldatacopy\n        /* \"#utility.yul\":4918:4919   */\n      0x00\n        /* \"#utility.yul\":4890:4909   */\n      swap2\n      dup2\n      add\n        /* \"#utility.yul\":4911:4915   */\n      0x20\n        /* \"#utility.yul\":4886:4916   */\n      add\n        /* \"#utility.yul\":4879:4920   */\n      swap2\n      swap1\n      swap2\n      mstore\n        /* \"#utility.yul\":4894:4900   */\n      swap4\n        /* \"#utility.yul\":4224:4950   */\n      swap3\n      pop\n      pop\n      pop\n      jump\t// out\n        /* \"#utility.yul\":4955:5632   */\n    tag_59:\n        /* \"#utility.yul\":5051:5057   */\n      0x00\n        /* \"#utility.yul\":5059:5065   */\n      0x00\n        /* \"#utility.yul\":5067:5073   */\n      0x00\n        /* \"#utility.yul\":5075:5081   */\n      0x00\n        /* \"#utility.yul\":5128:5131   */\n      0x80\n        /* \"#utility.yul\":5116:5125   */\n      dup6\n        /* \"#utility.yul\":5107:5114   */\n      dup8\n        /* \"#utility.yul\":5103:5126   */\n      sub\n        /* \"#utility.yul\":5099:5132   */\n      slt\n        /* \"#utility.yul\":5096:5149   */\n      iszero\n      tag_246\n      jumpi\n        /* \"#utility.yul\":5145:5146   */\n      0x00\n        /* \"#utility.yul\":5142:5143   */\n      0x00\n        /* \"#utility.yul\":5135:5147   */\n      revert\n        /* \"#utility.yul\":5096:5149   */\n    tag_246:\n        /* \"#utility.yul\":5190:5213   */\n      dup5\n      calldataload\n      swap4\n      pop\n        /* \"#utility.yul\":5310:5312   */\n      0x20\n        /* \"#utility.yul\":5295:5313   */\n      dup6\n      add\n        /* \"#utility.yul\":5282:5314   */\n      calldataload\n      swap3\n      pop\n        /* \"#utility.yul\":5413:5415   */\n      0x40\n        /* \"#utility.yul\":5398:5416   */\n      dup6\n      add\n        /* \"#utility.yul\":5385:5417   */\n      calldataload\n      swap2\n      pop\n        /* \"#utility.yul\":5494:5496   */\n      0x60\n        /* \"#utility.yul\":5479:5497   */\n      dup6\n      add\n        /* \"#utility.yul\":5466:5498   */\n      calldataload\n        /* \"#utility.yul\":5521:5539   */\n      0xffffffffffffffff\n        /* \"#utility.yul\":5510:5540   */\n      dup2\n      gt\n        /* \"#utility.yul\":5507:5557   */\n      iszero\n      tag_247\n      jumpi\n        /* \"#utility.yul\":5553:5554   */\n      0x00\n        /* \"#utility.yul\":5550:5551   */\n      0x00\n        /* \"#utility.yul\":5543:5555   */\n      revert\n        /* \"#utility.yul\":5507:5557   */\n    tag_247:\n        /* \"#utility.yul\":5576:5626   */\n      tag_248\n        /* \"#utility.yul\":5618:5625   */\n      dup8\n        /* \"#utility.yul\":5609:5615   */\n      dup3\n        /* \"#utility.yul\":5598:5607   */\n      dup9\n        /* \"#utility.yul\":5594:5616   */\n      add\n        /* \"#utility.yul\":5576:5626   */\n      tag_208\n      jump\t// in\n    tag_248:\n        /* \"#utility.yul\":5566:5626   */\n      swap2\n      pop\n      pop\n        /* \"#utility.yul\":4955:5632   */\n      swap3\n      swap6\n      swap2\n      swap5\n      pop\n      swap3\n      pop\n      jump\t// out\n        /* \"#utility.yul\":5866:6422   */\n    tag_70:\n        /* \"#utility.yul\":5953:5959   */\n      0x00\n        /* \"#utility.yul\":5961:5967   */\n      0x00\n        /* \"#utility.yul\":5969:5975   */\n      0x00\n        /* \"#utility.yul\":6022:6024   */\n      0x60\n        /* \"#utility.yul\":6010:6019   */\n      dup5\n        /* \"#utility.yul\":6001:6008   */\n      dup7\n        /* \"#utility.yul\":5997:6020   */\n      sub\n        /* \"#utility.yul\":5993:6025   */\n      slt\n        /* \"#utility.yul\":5990:6042   */\n      iszero\n      tag_251\n      jumpi\n        /* \"#utility.yul\":6038:6039   */\n      0x00\n        /* \"#utility.yul\":6035:6036   */\n      0x00\n        /* \"#utility.yul\":6028:6040   */\n      revert\n        /* \"#utility.yul\":5990:6042   */\n    tag_251:\n        /* \"#utility.yul\":6083:6106   */\n      dup4\n      calldataload\n      swap3\n      pop\n        /* \"#utility.yul\":6203:6205   */\n      0x20\n        /* \"#utility.yul\":6188:6206   */\n      dup5\n      add\n        /* \"#utility.yul\":6175:6207   */\n      calldataload\n      swap2\n      pop\n        /* \"#utility.yul\":6284:6286   */\n      0x40\n        /* \"#utility.yul\":6269:6287   */\n      dup5\n      add\n        /* \"#utility.yul\":6256:6288   */\n      calldataload\n        /* \"#utility.yul\":6311:6329   */\n      0xffffffffffffffff\n        /* \"#utility.yul\":6300:6330   */\n      dup2\n      gt\n        /* \"#utility.yul\":6297:6347   */\n      iszero\n      tag_252\n      jumpi\n        /* \"#utility.yul\":6343:6344   */\n      0x00\n        /* \"#utility.yul\":6340:6341   */\n      0x00\n        /* \"#utility.yul\":6333:6345   */\n      revert\n        /* \"#utility.yul\":6297:6347   */\n    tag_252:\n        /* \"#utility.yul\":6366:6416   */\n      tag_253\n        /* \"#utility.yul\":6408:6415   */\n      dup7\n        /* \"#utility.yul\":6399:6405   */\n      dup3\n        /* \"#utility.yul\":6388:6397   */\n      dup8\n        /* \"#utility.yul\":6384:6406   */\n      add\n        /* \"#utility.yul\":6366:6416   */\n      tag_208\n      jump\t// in\n    tag_253:\n        /* \"#utility.yul\":6356:6416   */\n      swap2\n      pop\n      pop\n        /* \"#utility.yul\":5866:6422   */\n      swap3\n      pop\n      swap3\n      pop\n      swap3\n      jump\t// out\n        /* \"#utility.yul\":6427:6771   */\n    tag_78:\n        /* \"#utility.yul\":6629:6631   */\n      0x20\n        /* \"#utility.yul\":6611:6632   */\n      dup1\n      dup3\n      mstore\n        /* \"#utility.yul\":6668:6670   */\n      0x14\n        /* \"#utility.yul\":6648:6666   */\n      swap1\n      dup3\n      add\n        /* \"#utility.yul\":6641:6671   */\n      mstore\n      shl(0x62, 0x1518589b1948191bd95cc81b9bdd08195e1a5cdd)\n        /* \"#utility.yul\":6702:6704   */\n      0x40\n        /* \"#utility.yul\":6687:6705   */\n      dup3\n      add\n        /* \"#utility.yul\":6680:6730   */\n      mstore\n        /* \"#utility.yul\":6762:6764   */\n      0x60\n        /* \"#utility.yul\":6747:6765   */\n      add\n      swap1\n        /* \"#utility.yul\":6427:6771   */\n      jump\t// out\n        /* \"#utility.yul\":6776:7156   */\n    tag_80:\n        /* \"#utility.yul\":6855:6856   */\n      0x01\n        /* \"#utility.yul\":6851:6863   */\n      dup2\n      dup2\n      shr\n      swap1\n        /* \"#utility.yul\":6898:6910   */\n      dup3\n      and\n      dup1\n        /* \"#utility.yul\":6919:6980   */\n      tag_256\n      jumpi\n        /* \"#utility.yul\":6973:6977   */\n      0x7f\n        /* \"#utility.yul\":6965:6971   */\n      dup3\n        /* \"#utility.yul\":6961:6978   */\n      and\n        /* \"#utility.yul\":6951:6978   */\n      swap2\n      pop\n        /* \"#utility.yul\":6919:6980   */\n    tag_256:\n        /* \"#utility.yul\":7026:7028   */\n      0x20\n        /* \"#utility.yul\":7018:7024   */\n      dup3\n        /* \"#utility.yul\":7015:7029   */\n      lt\n        /* \"#utility.yul\":6995:7013   */\n      dup2\n        /* \"#utility.yul\":6992:7030   */\n      sub\n        /* \"#utility.yul\":6989:7150   */\n      tag_257\n      jumpi\n        /* \"#utility.yul\":7072:7082   */\n      0x4e487b71\n        /* \"#utility.yul\":7067:7070   */\n      0xe0\n        /* \"#utility.yul\":7063:7083   */\n      shl\n        /* \"#utility.yul\":7060:7061   */\n      0x00\n        /* \"#utility.yul\":7053:7084   */\n      mstore\n        /* \"#utility.yul\":7107:7111   */\n      0x22\n        /* \"#utility.yul\":7104:7105   */\n      0x04\n        /* \"#utility.yul\":7097:7112   */\n      mstore\n        /* \"#utility.yul\":7135:7139   */\n      0x24\n        /* \"#utility.yul\":7132:7133   */\n      0x00\n        /* \"#utility.yul\":7125:7140   */\n      revert\n        /* \"#utility.yul\":6989:7150   */\n    tag_257:\n      pop\n        /* \"#utility.yul\":6776:7156   */\n      swap2\n      swap1\n      pop\n      jump\t// out\n        /* \"#utility.yul\":7161:7495   */\n    tag_92:\n      sub(shl(0xa0, 0x01), 0x01)\n        /* \"#utility.yul\":7363:7395   */\n      dup4\n      and\n        /* \"#utility.yul\":7345:7396   */\n      dup2\n      mstore\n        /* \"#utility.yul\":7333:7335   */\n      0x40\n        /* \"#utility.yul\":7318:7336   */\n      dup2\n      add\n        /* \"#utility.yul\":7405:7446   */\n      tag_259\n        /* \"#utility.yul\":7439:7445   */\n      dup4\n        /* \"#utility.yul\":7405:7446   */\n      tag_206\n      jump\t// in\n    tag_259:\n        /* \"#utility.yul\":7482:7488   */\n      dup3\n        /* \"#utility.yul\":7477:7479   */\n      0x20\n        /* \"#utility.yul\":7466:7475   */\n      dup4\n        /* \"#utility.yul\":7462:7480   */\n      add\n        /* \"#utility.yul\":7455:7489   */\n      mstore\n        /* \"#utility.yul\":7161:7495   */\n      swap4\n      swap3\n      pop\n      pop\n      pop\n      jump\t// out\n        /* \"#utility.yul\":7500:7777   */\n    tag_96:\n        /* \"#utility.yul\":7567:7573   */\n      0x00\n        /* \"#utility.yul\":7620:7622   */\n      0x20\n        /* \"#utility.yul\":7608:7617   */\n      dup3\n        /* \"#utility.yul\":7599:7606   */\n      dup5\n        /* \"#utility.yul\":7595:7618   */\n      sub\n        /* \"#utility.yul\":7591:7623   */\n      slt\n        /* \"#utility.yul\":7588:7640   */\n      iszero\n      tag_261\n      jumpi\n        /* \"#utility.yul\":7636:7637   */\n      0x00\n        /* \"#utility.yul\":7633:7634   */\n      0x00\n        /* \"#utility.yul\":7626:7638   */\n      revert\n        /* \"#utility.yul\":7588:7640   */\n    tag_261:\n        /* \"#utility.yul\":7668:7677   */\n      dup2\n        /* \"#utility.yul\":7662:7678   */\n      mload\n        /* \"#utility.yul\":7721:7726   */\n      dup1\n        /* \"#utility.yul\":7714:7727   */\n      iszero\n        /* \"#utility.yul\":7707:7728   */\n      iszero\n        /* \"#utility.yul\":7700:7705   */\n      dup2\n        /* \"#utility.yul\":7697:7729   */\n      eq\n        /* \"#utility.yul\":7687:7747   */\n      tag_236\n      jumpi\n        /* \"#utility.yul\":7743:7744   */\n      0x00\n        /* \"#utility.yul\":7740:7741   */\n      0x00\n        /* \"#utility.yul\":7733:7745   */\n      revert\n        /* \"#utility.yul\":7782:8114   */\n    tag_99:\n        /* \"#utility.yul\":7984:7986   */\n      0x20\n        /* \"#utility.yul\":7966:7987   */\n      dup1\n      dup3\n      mstore\n        /* \"#utility.yul\":8023:8024   */\n      0x09\n        /* \"#utility.yul\":8003:8021   */\n      swap1\n      dup3\n      add\n        /* \"#utility.yul\":7996:8025   */\n      mstore\n      shl(0xb9, 0x2737ba1030b236b4b7)\n        /* \"#utility.yul\":8056:8058   */\n      0x40\n        /* \"#utility.yul\":8041:8059   */\n      dup3\n      add\n        /* \"#utility.yul\":8034:8073   */\n      mstore\n        /* \"#utility.yul\":8105:8107   */\n      0x60\n        /* \"#utility.yul\":8090:8108   */\n      add\n      swap1\n        /* \"#utility.yul\":7782:8114   */\n      jump\t// out\n        /* \"#utility.yul\":8119:8520   */\n    tag_106:\n        /* \"#utility.yul\":8321:8323   */\n      0x20\n        /* \"#utility.yul\":8303:8324   */\n      dup1\n      dup3\n      mstore\n        /* \"#utility.yul\":8360:8362   */\n      0x25\n        /* \"#utility.yul\":8340:8358   */\n      swap1\n      dup3\n      add\n        /* \"#utility.yul\":8333:8363   */\n      mstore\n        /* \"#utility.yul\":8399:8433   */\n      0x526f7720616e6420636f6c756d6e206d75737420626520677265617465722074\n        /* \"#utility.yul\":8394:8396   */\n      0x40\n        /* \"#utility.yul\":8379:8397   */\n      dup3\n      add\n        /* \"#utility.yul\":8372:8434   */\n      mstore\n      shl(0xdc, 0x068616e203)\n        /* \"#utility.yul\":8465:8467   */\n      0x60\n        /* \"#utility.yul\":8450:8468   */\n      dup3\n      add\n        /* \"#utility.yul\":8443:8478   */\n      mstore\n        /* \"#utility.yul\":8510:8513   */\n      0x80\n        /* \"#utility.yul\":8495:8514   */\n      add\n      swap1\n        /* \"#utility.yul\":8119:8520   */\n      jump\t// out\n        /* \"#utility.yul\":9927:10445   */\n    tag_210:\n        /* \"#utility.yul\":10029:10031   */\n      0x1f\n        /* \"#utility.yul\":10024:10027   */\n      dup3\n        /* \"#utility.yul\":10021:10032   */\n      gt\n        /* \"#utility.yul\":10018:10439   */\n      iszero\n      tag_271\n      jumpi\n        /* \"#utility.yul\":10065:10070   */\n      dup1\n        /* \"#utility.yul\":10062:10063   */\n      0x00\n        /* \"#utility.yul\":10055:10071   */\n      mstore\n        /* \"#utility.yul\":10109:10113   */\n      0x20\n        /* \"#utility.yul\":10106:10107   */\n      0x00\n        /* \"#utility.yul\":10096:10114   */\n      keccak256\n        /* \"#utility.yul\":10179:10181   */\n      0x1f\n        /* \"#utility.yul\":10167:10177   */\n      dup5\n        /* \"#utility.yul\":10163:10182   */\n      add\n        /* \"#utility.yul\":10160:10161   */\n      0x05\n        /* \"#utility.yul\":10156:10183   */\n      shr\n        /* \"#utility.yul\":10150:10154   */\n      dup2\n        /* \"#utility.yul\":10146:10184   */\n      add\n        /* \"#utility.yul\":10215:10219   */\n      0x20\n        /* \"#utility.yul\":10203:10213   */\n      dup6\n        /* \"#utility.yul\":10200:10220   */\n      lt\n        /* \"#utility.yul\":10197:10244   */\n      iszero\n      tag_272\n      jumpi\n      pop\n        /* \"#utility.yul\":10238:10242   */\n      dup1\n        /* \"#utility.yul\":10197:10244   */\n    tag_272:\n        /* \"#utility.yul\":10293:10295   */\n      0x1f\n        /* \"#utility.yul\":10288:10291   */\n      dup5\n        /* \"#utility.yul\":10284:10296   */\n      add\n        /* \"#utility.yul\":10281:10282   */\n      0x05\n        /* \"#utility.yul\":10277:10297   */\n      shr\n        /* \"#utility.yul\":10271:10275   */\n      dup3\n        /* \"#utility.yul\":10267:10298   */\n      add\n        /* \"#utility.yul\":10257:10298   */\n      swap2\n      pop\n        /* \"#utility.yul\":10348:10429   */\n    tag_273:\n        /* \"#utility.yul\":10366:10368   */\n      dup2\n        /* \"#utility.yul\":10359:10364   */\n      dup2\n        /* \"#utility.yul\":10356:10369   */\n      lt\n        /* \"#utility.yul\":10348:10429   */\n      iszero\n      tag_275\n      jumpi\n        /* \"#utility.yul\":10425:10426   */\n      0x00\n        /* \"#utility.yul\":10411:10427   */\n      dup2\n      sstore\n        /* \"#utility.yul\":10392:10393   */\n      0x01\n        /* \"#utility.yul\":10381:10394   */\n      add\n        /* \"#utility.yul\":10348:10429   */\n      jump(tag_273)\n    tag_275:\n        /* \"#utility.yul\":10352:10355   */\n      pop\n      pop\n        /* \"#utility.yul\":10018:10439   */\n    tag_271:\n        /* \"#utility.yul\":9927:10445   */\n      pop\n      pop\n      pop\n      jump\t// out\n        /* \"#utility.yul\":10621:11920   */\n    tag_165:\n        /* \"#utility.yul\":10747:10750   */\n      dup2\n        /* \"#utility.yul\":10741:10751   */\n      mload\n        /* \"#utility.yul\":10774:10792   */\n      0xffffffffffffffff\n        /* \"#utility.yul\":10766:10772   */\n      dup2\n        /* \"#utility.yul\":10763:10793   */\n      gt\n        /* \"#utility.yul\":10760:10816   */\n      iszero\n      tag_279\n      jumpi\n        /* \"#utility.yul\":10796:10814   */\n      tag_279\n      tag_207\n      jump\t// in\n    tag_279:\n        /* \"#utility.yul\":10825:10922   */\n      tag_280\n        /* \"#utility.yul\":10915:10921   */\n      dup2\n        /* \"#utility.yul\":10875:10913   */\n      tag_281\n        /* \"#utility.yul\":10907:10911   */\n      dup5\n        /* \"#utility.yul\":10901:10912   */\n      sload\n        /* \"#utility.yul\":10875:10913   */\n      tag_80\n      jump\t// in\n    tag_281:\n        /* \"#utility.yul\":10869:10873   */\n      dup5\n        /* \"#utility.yul\":10825:10922   */\n      tag_210\n      jump\t// in\n    tag_280:\n        /* \"#utility.yul\":10971:10975   */\n      0x20\n        /* \"#utility.yul\":11002:11004   */\n      0x1f\n        /* \"#utility.yul\":10991:11005   */\n      dup3\n      gt\n        /* \"#utility.yul\":11019:11020   */\n      0x01\n        /* \"#utility.yul\":11014:11663   */\n      dup2\n      eq\n      tag_283\n      jumpi\n        /* \"#utility.yul\":11707:11708   */\n      0x00\n        /* \"#utility.yul\":11724:11730   */\n      dup4\n        /* \"#utility.yul\":11721:11810   */\n      iszero\n      tag_284\n      jumpi\n      pop\n        /* \"#utility.yul\":11776:11795   */\n      dup5\n      dup3\n      add\n        /* \"#utility.yul\":11770:11796   */\n      mload\n        /* \"#utility.yul\":11721:11810   */\n    tag_284:\n      not(0x00)\n        /* \"#utility.yul\":10578:10579   */\n      0x03\n        /* \"#utility.yul\":10574:10585   */\n      dup6\n      swap1\n      shl\n        /* \"#utility.yul\":10570:10594   */\n      shr\n        /* \"#utility.yul\":10566:10595   */\n      not\n        /* \"#utility.yul\":10556:10596   */\n      and\n        /* \"#utility.yul\":10602:10603   */\n      0x01\n        /* \"#utility.yul\":10598:10609   */\n      dup5\n      swap1\n      shl\n        /* \"#utility.yul\":10553:10610   */\n      or\n        /* \"#utility.yul\":11823:11904   */\n      dup5\n      sstore\n        /* \"#utility.yul\":10984:11914   */\n      jump(tag_275)\n        /* \"#utility.yul\":11014:11663   */\n    tag_283:\n        /* \"#utility.yul\":9874:9875   */\n      0x00\n        /* \"#utility.yul\":9867:9881   */\n      dup5\n      dup2\n      mstore\n        /* \"#utility.yul\":9911:9915   */\n      0x20\n        /* \"#utility.yul\":9898:9916   */\n      dup2\n      keccak256\n      not(0x1f)\n        /* \"#utility.yul\":11050:11070   */\n      dup6\n      and\n      swap2\n        /* \"#utility.yul\":11168:11390   */\n    tag_287:\n        /* \"#utility.yul\":11182:11189   */\n      dup3\n        /* \"#utility.yul\":11179:11180   */\n      dup2\n        /* \"#utility.yul\":11176:11190   */\n      lt\n        /* \"#utility.yul\":11168:11390   */\n      iszero\n      tag_289\n      jumpi\n        /* \"#utility.yul\":11264:11283   */\n      dup8\n      dup6\n      add\n        /* \"#utility.yul\":11258:11284   */\n      mload\n        /* \"#utility.yul\":11243:11285   */\n      dup3\n      sstore\n        /* \"#utility.yul\":11371:11375   */\n      0x20\n        /* \"#utility.yul\":11356:11376   */\n      swap5\n      dup6\n      add\n      swap5\n        /* \"#utility.yul\":11324:11325   */\n      0x01\n        /* \"#utility.yul\":11312:11326   */\n      swap1\n      swap3\n      add\n      swap2\n        /* \"#utility.yul\":11198:11210   */\n      add\n        /* \"#utility.yul\":11168:11390   */\n      jump(tag_287)\n    tag_289:\n        /* \"#utility.yul\":11172:11175   */\n      pop\n        /* \"#utility.yul\":11418:11424   */\n      dup5\n        /* \"#utility.yul\":11409:11416   */\n      dup3\n        /* \"#utility.yul\":11406:11425   */\n      lt\n        /* \"#utility.yul\":11403:11604   */\n      iszero\n      tag_290\n      jumpi\n        /* \"#utility.yul\":11479:11498   */\n      dup7\n      dup5\n      add\n        /* \"#utility.yul\":11473:11499   */\n      mload\n      not(0x00)\n        /* \"#utility.yul\":11562:11563   */\n      0x03\n        /* \"#utility.yul\":11558:11572   */\n      dup8\n      swap1\n      shl\n        /* \"#utility.yul\":11574:11577   */\n      0xf8\n        /* \"#utility.yul\":11554:11578   */\n      and\n        /* \"#utility.yul\":11550:11587   */\n      shr\n        /* \"#utility.yul\":11546:11588   */\n      not\n        /* \"#utility.yul\":11531:11589   */\n      and\n        /* \"#utility.yul\":11516:11590   */\n      dup2\n      sstore\n        /* \"#utility.yul\":11403:11604   */\n    tag_290:\n      pop\n      pop\n      pop\n      pop\n        /* \"#utility.yul\":11650:11651   */\n      0x01\n        /* \"#utility.yul\":11634:11648   */\n      swap1\n      dup2\n      shl\n        /* \"#utility.yul\":11630:11652   */\n      add\n        /* \"#utility.yul\":11617:11653   */\n      swap1\n      sstore\n      pop\n        /* \"#utility.yul\":10621:11920   */\n      jump\t// out\n        /* \"#utility.yul\":11925:12970   */\n    tag_167:\n        /* \"#utility.yul\":12127:12133   */\n      dup4\n        /* \"#utility.yul\":12116:12125   */\n      dup2\n        /* \"#utility.yul\":12109:12134   */\n      mstore\n        /* \"#utility.yul\":12170:12176   */\n      dup3\n        /* \"#utility.yul\":12165:12167   */\n      0x20\n        /* \"#utility.yul\":12154:12163   */\n      dup3\n        /* \"#utility.yul\":12150:12168   */\n      add\n        /* \"#utility.yul\":12143:12177   */\n      mstore\n        /* \"#utility.yul\":12213:12215   */\n      0x60\n        /* \"#utility.yul\":12208:12210   */\n      0x40\n        /* \"#utility.yul\":12197:12206   */\n      dup3\n        /* \"#utility.yul\":12193:12211   */\n      add\n        /* \"#utility.yul\":12186:12216   */\n      mstore\n        /* \"#utility.yul\":12090:12094   */\n      0x00\n        /* \"#utility.yul\":12236:12237   */\n      0x00\n        /* \"#utility.yul\":12269:12275   */\n      dup4\n        /* \"#utility.yul\":12263:12276   */\n      sload\n        /* \"#utility.yul\":12299:12335   */\n      tag_292\n        /* \"#utility.yul\":12325:12334   */\n      dup2\n        /* \"#utility.yul\":12299:12335   */\n      tag_80\n      jump\t// in\n    tag_292:\n        /* \"#utility.yul\":12371:12377   */\n      dup1\n        /* \"#utility.yul\":12366:12368   */\n      0x60\n        /* \"#utility.yul\":12355:12364   */\n      dup7\n        /* \"#utility.yul\":12351:12369   */\n      add\n        /* \"#utility.yul\":12344:12378   */\n      mstore\n        /* \"#utility.yul\":12409:12410   */\n      0x01\n        /* \"#utility.yul\":12398:12407   */\n      dup3\n        /* \"#utility.yul\":12394:12411   */\n      and\n        /* \"#utility.yul\":12425:12426   */\n      0x00\n        /* \"#utility.yul\":12420:12580   */\n      dup2\n      eq\n      tag_294\n      jumpi\n        /* \"#utility.yul\":12594:12595   */\n      0x01\n        /* \"#utility.yul\":12589:12944   */\n      dup2\n      eq\n      tag_295\n      jumpi\n        /* \"#utility.yul\":12387:12944   */\n      jump(tag_293)\n        /* \"#utility.yul\":12420:12580   */\n    tag_294:\n        /* \"#utility.yul\":12488:12491   */\n      0xff\n        /* \"#utility.yul\":12484:12492   */\n      not\n        /* \"#utility.yul\":12473:12482   */\n      dup4\n        /* \"#utility.yul\":12469:12493   */\n      and\n        /* \"#utility.yul\":12463:12466   */\n      0x80\n        /* \"#utility.yul\":12452:12461   */\n      dup8\n        /* \"#utility.yul\":12448:12467   */\n      add\n        /* \"#utility.yul\":12441:12494   */\n      mstore\n        /* \"#utility.yul\":12566:12569   */\n      0x80\n        /* \"#utility.yul\":12554:12560   */\n      dup3\n        /* \"#utility.yul\":12547:12561   */\n      iszero\n        /* \"#utility.yul\":12540:12562   */\n      iszero\n        /* \"#utility.yul\":12537:12538   */\n      0x05\n        /* \"#utility.yul\":12533:12563   */\n      shl\n        /* \"#utility.yul\":12522:12531   */\n      dup8\n        /* \"#utility.yul\":12518:12564   */\n      add\n        /* \"#utility.yul\":12514:12570   */\n      add\n        /* \"#utility.yul\":12507:12570   */\n      swap4\n      pop\n        /* \"#utility.yul\":12420:12580   */\n      jump(tag_293)\n        /* \"#utility.yul\":12589:12944   */\n    tag_295:\n        /* \"#utility.yul\":12620:12626   */\n      dup7\n        /* \"#utility.yul\":12617:12618   */\n      0x00\n        /* \"#utility.yul\":12610:12627   */\n      mstore\n        /* \"#utility.yul\":12668:12670   */\n      0x20\n        /* \"#utility.yul\":12665:12666   */\n      0x00\n        /* \"#utility.yul\":12655:12671   */\n      keccak256\n        /* \"#utility.yul\":12693:12694   */\n      0x00\n        /* \"#utility.yul\":12707:12887   */\n    tag_296:\n        /* \"#utility.yul\":12721:12727   */\n      dup4\n        /* \"#utility.yul\":12718:12719   */\n      dup2\n        /* \"#utility.yul\":12715:12728   */\n      lt\n        /* \"#utility.yul\":12707:12887   */\n      iszero\n      tag_298\n      jumpi\n        /* \"#utility.yul\":12815:12829   */\n      dup2\n      sload\n        /* \"#utility.yul\":12790:12807   */\n      dup9\n      dup3\n      add\n        /* \"#utility.yul\":12809:12812   */\n      0x80\n        /* \"#utility.yul\":12786:12813   */\n      add\n        /* \"#utility.yul\":12779:12830   */\n      mstore\n        /* \"#utility.yul\":12871:12872   */\n      0x01\n        /* \"#utility.yul\":12858:12873   */\n      swap1\n      swap2\n      add\n      swap1\n        /* \"#utility.yul\":12743:12745   */\n      0x20\n        /* \"#utility.yul\":12736:12746   */\n      add\n        /* \"#utility.yul\":12707:12887   */\n      jump(tag_296)\n    tag_298:\n        /* \"#utility.yul\":12911:12928   */\n      dup8\n      add\n        /* \"#utility.yul\":12930:12933   */\n      0x80\n        /* \"#utility.yul\":12907:12934   */\n      add\n      swap5\n      pop\n      pop\n        /* \"#utility.yul\":12387:12944   */\n    tag_293:\n      pop\n        /* \"#utility.yul\":12961:12964   */\n      swap2\n      swap8\n        /* \"#utility.yul\":11925:12970   */\n      swap7\n      pop\n      pop\n      pop\n      pop\n      pop\n      pop\n      pop\n      jump\t// out\n        /* \"#utility.yul\":13326:13558   */\n    tag_189:\n        /* \"#utility.yul\":13365:13368   */\n      0x00\n        /* \"#utility.yul\":13386:13403   */\n      0x01\n      dup3\n      add\n        /* \"#utility.yul\":13383:13523   */\n      tag_301\n      jumpi\n        /* \"#utility.yul\":13445:13455   */\n      0x4e487b71\n        /* \"#utility.yul\":13440:13443   */\n      0xe0\n        /* \"#utility.yul\":13436:13456   */\n      shl\n        /* \"#utility.yul\":13433:13434   */\n      0x00\n        /* \"#utility.yul\":13426:13457   */\n      mstore\n        /* \"#utility.yul\":13480:13484   */\n      0x11\n        /* \"#utility.yul\":13477:13478   */\n      0x04\n        /* \"#utility.yul\":13470:13485   */\n      mstore\n        /* \"#utility.yul\":13508:13512   */\n      0x24\n        /* \"#utility.yul\":13505:13506   */\n      0x00\n        /* \"#utility.yul\":13498:13513   */\n      revert\n        /* \"#utility.yul\":13383:13523   */\n    tag_301:\n      pop\n        /* \"#utility.yul\":13550:13551   */\n      0x01\n        /* \"#utility.yul\":13539:13552   */\n      add\n      swap1\n        /* \"#utility.yul\":13326:13558   */\n      jump\t// out\n\n    auxdata: 0xa26469706673582212207fb7f37ed7c3b7920147aba1031f303775a28930ee568a3aaadb9ac6abdf43bf64736f6c634300081e0033\n}\n",
				"bytecode": {
					"linkReferences": {},
					"object": "608060405260016002553480156013575f5ffd5b506040516113d43803806113d48339810160408190526030916054565b600180546001600160a01b0319166001600160a01b0392909216919091179055607f565b5f602082840312156063575f5ffd5b81516001600160a01b03811681146078575f5ffd5b9392505050565b6113488061008c5f395ff3fe608060405234801561000f575f5ffd5b50600436106100cb575f3560e01c806395ebcb2411610088578063d50a9e4611610063578063d50a9e46146101db578063e6f318c6146101ee578063f9b6117f14610201578063fb25d32f14610213575f5ffd5b806395ebcb2414610186578063b4afd52c14610199578063c0da840d146101ac575f5ffd5b80633844ac5b146100cf57806342f54b89146100f85780635cfd66071461012357806371671bf21461013857806388a01cd71461015c57806390c8643514610173575b5f5ffd5b6100e26100dd366004610d4a565b610226565b6040516100ef9190610dbf565b60405180910390f35b60015461010b906001600160a01b031681565b6040516001600160a01b0390911681526020016100ef565b610136610131366004610e18565b610364565b005b61014b610146366004610d4a565b6104a8565b6040516100ef959493929190610e41565b61016560025481565b6040519081526020016100ef565b610165610181366004610e80565b610563565b610136610194366004610e80565b61058e565b6101366101a7366004610ea0565b61070f565b6101366101ba366004610ed1565b5f80546001600160a01b0319166001600160a01b0392909216919091179055565b6101366101e9366004610f9d565b6108ee565b6101366101fc366004610d4a565b610a27565b5f5461010b906001600160a01b031681565b610165610221366004610ff3565b610ac3565b61022e610cbd565b5f8281526003602052604081205490036102635760405162461bcd60e51b815260040161025a9061103f565b60405180910390fd5b60035f8381526020019081526020015f206040518060a00160405290815f820154815260200160018201548152602001600282015481526020016003820180546102ac9061106d565b80601f01602080910402602001604051908101604052809291908181526020018280546102d89061106d565b80156103235780601f106102fa57610100808354040283529160200191610323565b820191905f5260205f20905b81548152906001019060200180831161030657829003601f168201915b5050509183525050600482015460209091019060ff16600181111561034a5761034a610d8f565b600181111561035b5761035b610d8f565b90525092915050565b6001546040516395a8c58d60e01b81526001600160a01b03909116906395a8c58d906103969032905f906004016110a5565b602060405180830381865afa1580156103b1573d5f5f3e3d5ffd5b505050506040513d601f19601f820116820180604052508101906103d591906110cb565b6103f15760405162461bcd60e51b815260040161025a906110ea565b5f83815260036020526040812054900361041d5760405162461bcd60e51b815260040161025a9061103f565b5f8211801561042b57505f81115b6104475760405162461bcd60e51b815260040161025a9061110d565b5f838152600360209081526040918290206001810185905560020183905581518581529081018490529081018290527ff7237d4e5b6eb7009e4eb3d57722c89a2d5a309cb8766edd3d12c3a2f6369fea9060600160405180910390a1505050565b6003602052805f5260405f205f91509050805f0154908060010154908060020154908060030180546104d99061106d565b80601f01602080910402602001604051908101604052809291908181526020018280546105059061106d565b80156105505780601f1061052757610100808354040283529160200191610550565b820191905f5260205f20905b81548152906001019060200180831161053357829003601f168201915b5050506004909301549192505060ff1685565b6004602052815f5260405f20818154811061057c575f80fd5b905f5260205f20015f91509150505481565b6001546040516395a8c58d60e01b81526001600160a01b03909116906395a8c58d906105c09032905f906004016110a5565b602060405180830381865afa1580156105db573d5f5f3e3d5ffd5b505050506040513d601f19601f820116820180604052508101906105ff91906110cb565b61061b5760405162461bcd60e51b815260040161025a906110ea565b5f8181526003602052604081205490036106715760405162461bcd60e51b81526020600482015260176024820152761518589b1948125108191bd95cc81b9bdd08195e1a5cdd604a1b604482015260640161025a565b5f5460405163914ee45560e01b815260048101849052602481018390526001600160a01b039091169063914ee455906044015f604051808303815f87803b1580156106ba575f5ffd5b505af11580156106cc573d5f5f3e3d5ffd5b505060408051848152602081018690527fce055a555634f6b775cab0652d8bf5b7b02d31fd077b3e4459d806099d5c032a93500190505b60405180910390a15050565b6001546040516395a8c58d60e01b81526001600160a01b03909116906395a8c58d906107419033905f906004016110a5565b602060405180830381865afa15801561075c573d5f5f3e3d5ffd5b505050506040513d601f19601f8201168201806040525081019061078091906110cb565b806107f65750600180546040516395a8c58d60e01b81526001600160a01b03909116916395a8c58d916107b79133916004016110a5565b602060405180830381865afa1580156107d2573d5f5f3e3d5ffd5b505050506040513d601f19601f820116820180604052508101906107f691906110cb565b6108375760405162461bcd60e51b81526020600482015260126024820152712737ba1030b236b4b71037b91039ba30b33360711b604482015260640161025a565b5f82815260036020526040812054900361088d5760405162461bcd60e51b81526020600482015260176024820152761518589b1948125108191bd95cc81b9bdd08195e1a5cdd604a1b604482015260640161025a565b5f828152600360205260409020600401805482919060ff1916600183818111156108b9576108b9610d8f565b02179055506040518281527f806e02512e08b8327ec991fdaf88cc26768ac76f54ec0ce459e8d1215d93716790602001610703565b6001546040516395a8c58d60e01b81526001600160a01b03909116906395a8c58d906109209032905f906004016110a5565b602060405180830381865afa15801561093b573d5f5f3e3d5ffd5b505050506040513d601f19601f8201168201806040525081019061095f91906110cb565b61097b5760405162461bcd60e51b815260040161025a906110ea565b5f8481526003602052604081205490036109a75760405162461bcd60e51b815260040161025a9061103f565b5f84815260036020526040902060018101849055600281018390558151156109d957600381016109d7838261119e565b505b847f931b192218d9d356ae347a117cba11643fad952e6585836fe64b5c19031476df8260010154836002015484600301604051610a1893929190611259565b60405180910390a25050505050565b5f818152600360205260408120549003610a535760405162461bcd60e51b815260040161025a9061103f565b5f818152600360208190526040822082815560018101839055600281018390559190610a8190830182610cf8565b50600401805460ff191690556040518181527fe9acaee49f406ba06f0464ee11615009a1b531e51e3e9d4427228acae8a4e6ba9060200160405180910390a150565b6001546040516395a8c58d60e01b81525f916001600160a01b0316906395a8c58d90610af590329085906004016110a5565b602060405180830381865afa158015610b10573d5f5f3e3d5ffd5b505050506040513d601f19601f82011682018060405250810190610b3491906110cb565b610b505760405162461bcd60e51b815260040161025a906110ea565b5f84118015610b5e57505f83115b610b7a5760405162461bcd60e51b815260040161025a9061110d565b5f825111610bc35760405162461bcd60e51b815260206004820152601660248201527551522055524c2063616e6e6f7420626520656d70747960501b604482015260640161025a565b600280545f9182610bd3836112ee565b9190505590506040518060a001604052808281526020018681526020018581526020018481526020015f6001811115610c0e57610c0e610d8f565b90525f8281526003602081815260409283902084518155908401516001820155918301516002830155606083015190820190610c4a908261119e565b50608082015160048201805460ff191660018381811115610c6d57610c6d610d8f565b02179055505060408051838152602081018890529081018690527f7c625ad207b65d4c400b3daab560616556395dfe69ebc199b59250c837db78e3915060600160405180910390a1949350505050565b6040518060a001604052805f81526020015f81526020015f8152602001606081526020015f6001811115610cf357610cf3610d8f565b905290565b508054610d049061106d565b5f825580601f10610d13575050565b601f0160209004905f5260205f2090810190610d2f9190610d32565b50565b5b80821115610d46575f8155600101610d33565b5090565b5f60208284031215610d5a575f5ffd5b5035919050565b5f81518084528060208401602086015e5f602082860101526020601f19601f83011685010191505092915050565b634e487b7160e01b5f52602160045260245ffd5b60028110610d2f57634e487b7160e01b5f52602160045260245ffd5b602081528151602082015260208201516040820152604082015160608201525f606083015160a06080840152610df860c0840182610d61565b90506080840151610e0881610da3565b60a0939093019290925250919050565b5f5f5f60608486031215610e2a575f5ffd5b505081359360208301359350604090920135919050565b85815284602082015283604082015260a060608201525f610e6560a0830185610d61565b9050610e7083610da3565b8260808301529695505050505050565b5f5f60408385031215610e91575f5ffd5b50508035926020909101359150565b5f5f60408385031215610eb1575f5ffd5b82359150602083013560028110610ec6575f5ffd5b809150509250929050565b5f60208284031215610ee1575f5ffd5b81356001600160a01b0381168114610ef7575f5ffd5b9392505050565b634e487b7160e01b5f52604160045260245ffd5b5f82601f830112610f21575f5ffd5b813567ffffffffffffffff811115610f3b57610f3b610efe565b604051601f8201601f19908116603f0116810167ffffffffffffffff81118282101715610f6a57610f6a610efe565b604052818152838201602001851015610f81575f5ffd5b816020850160208301375f918101602001919091529392505050565b5f5f5f5f60808587031215610fb0575f5ffd5b843593506020850135925060408501359150606085013567ffffffffffffffff811115610fdb575f5ffd5b610fe787828801610f12565b91505092959194509250565b5f5f5f60608486031215611005575f5ffd5b8335925060208401359150604084013567ffffffffffffffff811115611029575f5ffd5b61103586828701610f12565b9150509250925092565b6020808252601490820152731518589b1948191bd95cc81b9bdd08195e1a5cdd60621b604082015260600190565b600181811c9082168061108157607f821691505b60208210810361109f57634e487b7160e01b5f52602260045260245ffd5b50919050565b6001600160a01b0383168152604081016110be83610da3565b8260208301529392505050565b5f602082840312156110db575f5ffd5b81518015158114610ef7575f5ffd5b6020808252600990820152682737ba1030b236b4b760b91b604082015260600190565b60208082526025908201527f526f7720616e6420636f6c756d6e206d75737420626520677265617465722074604082015264068616e20360dc1b606082015260800190565b601f82111561119957805f5260205f20601f840160051c810160208510156111775750805b601f840160051c820191505b81811015611196575f8155600101611183565b50505b505050565b815167ffffffffffffffff8111156111b8576111b8610efe565b6111cc816111c6845461106d565b84611152565b6020601f8211600181146111fe575f83156111e75750848201515b5f19600385901b1c1916600184901b178455611196565b5f84815260208120601f198516915b8281101561122d578785015182556020948501946001909201910161120d565b508482101561124a57868401515f19600387901b60f8161c191681555b50505050600190811b01905550565b838152826020820152606060408201525f5f83546112768161106d565b806060860152600182165f811461129457600181146112b0576112e1565b60ff1983166080870152608082151560051b87010193506112e1565b865f5260205f205f5b838110156112d8578154888201608001526001909101906020016112b9565b87016080019450505b5091979650505050505050565b5f6001820161130b57634e487b7160e01b5f52601160045260245ffd5b506001019056fea26469706673582212207fb7f37ed7c3b7920147aba1031f303775a28930ee568a3aaadb9ac6abdf43bf64736f6c634300081e0033",
					"opcodes": "PUSH1 0x80 PUSH1 0x40 MSTORE PUSH1 0x1 PUSH1 0x2 SSTORE CALLVALUE DUP1 ISZERO PUSH1 0x13 JUMPI PUSH0 PUSH0 REVERT JUMPDEST POP PUSH1 0x40 MLOAD PUSH2 0x13D4 CODESIZE SUB DUP1 PUSH2 0x13D4 DUP4 CODECOPY DUP2 ADD PUSH1 0x40 DUP2 SWAP1 MSTORE PUSH1 0x30 SWAP2 PUSH1 0x54 JUMP JUMPDEST PUSH1 0x1 DUP1 SLOAD PUSH1 0x1 PUSH1 0x1 PUSH1 0xA0 SHL SUB NOT AND PUSH1 0x1 PUSH1 0x1 PUSH1 0xA0 SHL SUB SWAP3 SWAP1 SWAP3 AND SWAP2 SWAP1 SWAP2 OR SWAP1 SSTORE PUSH1 0x7F JUMP JUMPDEST PUSH0 PUSH1 0x20 DUP3 DUP5 SUB SLT ISZERO PUSH1 0x63 JUMPI PUSH0 PUSH0 REVERT JUMPDEST DUP2 MLOAD PUSH1 0x1 PUSH1 0x1 PUSH1 0xA0 SHL SUB DUP2 AND DUP2 EQ PUSH1 0x78 JUMPI PUSH0 PUSH0 REVERT JUMPDEST SWAP4 SWAP3 POP POP POP JUMP JUMPDEST PUSH2 0x1348 DUP1 PUSH2 0x8C PUSH0 CODECOPY PUSH0 RETURN INVALID PUSH1 0x80 PUSH1 0x40 MSTORE CALLVALUE DUP1 ISZERO PUSH2 0xF JUMPI PUSH0 PUSH0 REVERT JUMPDEST POP PUSH1 0x4 CALLDATASIZE LT PUSH2 0xCB JUMPI PUSH0 CALLDATALOAD PUSH1 0xE0 SHR DUP1 PUSH4 0x95EBCB24 GT PUSH2 0x88 JUMPI DUP1 PUSH4 0xD50A9E46 GT PUSH2 0x63 JUMPI DUP1 PUSH4 0xD50A9E46 EQ PUSH2 0x1DB JUMPI DUP1 PUSH4 0xE6F318C6 EQ PUSH2 0x1EE JUMPI DUP1 PUSH4 0xF9B6117F EQ PUSH2 0x201 JUMPI DUP1 PUSH4 0xFB25D32F EQ PUSH2 0x213 JUMPI PUSH0 PUSH0 REVERT JUMPDEST DUP1 PUSH4 0x95EBCB24 EQ PUSH2 0x186 JUMPI DUP1 PUSH4 0xB4AFD52C EQ PUSH2 0x199 JUMPI DUP1 PUSH4 0xC0DA840D EQ PUSH2 0x1AC JUMPI PUSH0 PUSH0 REVERT JUMPDEST DUP1 PUSH4 0x3844AC5B EQ PUSH2 0xCF JUMPI DUP1 PUSH4 0x42F54B89 EQ PUSH2 0xF8 JUMPI DUP1 PUSH4 0x5CFD6607 EQ PUSH2 0x123 JUMPI DUP1 PUSH4 0x71671BF2 EQ PUSH2 0x138 JUMPI DUP1 PUSH4 0x88A01CD7 EQ PUSH2 0x15C JUMPI DUP1 PUSH4 0x90C86435 EQ PUSH2 0x173 JUMPI JUMPDEST PUSH0 PUSH0 REVERT JUMPDEST PUSH2 0xE2 PUSH2 0xDD CALLDATASIZE PUSH1 0x4 PUSH2 0xD4A JUMP JUMPDEST PUSH2 0x226 JUMP JUMPDEST PUSH1 0x40 MLOAD PUSH2 0xEF SWAP2 SWAP1 PUSH2 0xDBF JUMP JUMPDEST PUSH1 0x40 MLOAD DUP1 SWAP2 SUB SWAP1 RETURN JUMPDEST PUSH1 0x1 SLOAD PUSH2 0x10B SWAP1 PUSH1 0x1 PUSH1 0x1 PUSH1 0xA0 SHL SUB AND DUP2 JUMP JUMPDEST PUSH1 0x40 MLOAD PUSH1 0x1 PUSH1 0x1 PUSH1 0xA0 SHL SUB SWAP1 SWAP2 AND DUP2 MSTORE PUSH1 0x20 ADD PUSH2 0xEF JUMP JUMPDEST PUSH2 0x136 PUSH2 0x131 CALLDATASIZE PUSH1 0x4 PUSH2 0xE18 JUMP JUMPDEST PUSH2 0x364 JUMP JUMPDEST STOP JUMPDEST PUSH2 0x14B PUSH2 0x146 CALLDATASIZE PUSH1 0x4 PUSH2 0xD4A JUMP JUMPDEST PUSH2 0x4A8 JUMP JUMPDEST PUSH1 0x40 MLOAD PUSH2 0xEF SWAP6 SWAP5 SWAP4 SWAP3 SWAP2 SWAP1 PUSH2 0xE41 JUMP JUMPDEST PUSH2 0x165 PUSH1 0x2 SLOAD DUP2 JUMP JUMPDEST PUSH1 0x40 MLOAD SWAP1 DUP2 MSTORE PUSH1 0x20 ADD PUSH2 0xEF JUMP JUMPDEST PUSH2 0x165 PUSH2 0x181 CALLDATASIZE PUSH1 0x4 PUSH2 0xE80 JUMP JUMPDEST PUSH2 0x563 JUMP JUMPDEST PUSH2 0x136 PUSH2 0x194 CALLDATASIZE PUSH1 0x4 PUSH2 0xE80 JUMP JUMPDEST PUSH2 0x58E JUMP JUMPDEST PUSH2 0x136 PUSH2 0x1A7 CALLDATASIZE PUSH1 0x4 PUSH2 0xEA0 JUMP JUMPDEST PUSH2 0x70F JUMP JUMPDEST PUSH2 0x136 PUSH2 0x1BA CALLDATASIZE PUSH1 0x4 PUSH2 0xED1 JUMP JUMPDEST PUSH0 DUP1 SLOAD PUSH1 0x1 PUSH1 0x1 PUSH1 0xA0 SHL SUB NOT AND PUSH1 0x1 PUSH1 0x1 PUSH1 0xA0 SHL SUB SWAP3 SWAP1 SWAP3 AND SWAP2 SWAP1 SWAP2 OR SWAP1 SSTORE JUMP JUMPDEST PUSH2 0x136 PUSH2 0x1E9 CALLDATASIZE PUSH1 0x4 PUSH2 0xF9D JUMP JUMPDEST PUSH2 0x8EE JUMP JUMPDEST PUSH2 0x136 PUSH2 0x1FC CALLDATASIZE PUSH1 0x4 PUSH2 0xD4A JUMP JUMPDEST PUSH2 0xA27 JUMP JUMPDEST PUSH0 SLOAD PUSH2 0x10B SWAP1 PUSH1 0x1 PUSH1 0x1 PUSH1 0xA0 SHL SUB AND DUP2 JUMP JUMPDEST PUSH2 0x165 PUSH2 0x221 CALLDATASIZE PUSH1 0x4 PUSH2 0xFF3 JUMP JUMPDEST PUSH2 0xAC3 JUMP JUMPDEST PUSH2 0x22E PUSH2 0xCBD JUMP JUMPDEST PUSH0 DUP3 DUP2 MSTORE PUSH1 0x3 PUSH1 0x20 MSTORE PUSH1 0x40 DUP2 KECCAK256 SLOAD SWAP1 SUB PUSH2 0x263 JUMPI PUSH1 0x40 MLOAD PUSH3 0x461BCD PUSH1 0xE5 SHL DUP2 MSTORE PUSH1 0x4 ADD PUSH2 0x25A SWAP1 PUSH2 0x103F JUMP JUMPDEST PUSH1 0x40 MLOAD DUP1 SWAP2 SUB SWAP1 REVERT JUMPDEST PUSH1 0x3 PUSH0 DUP4 DUP2 MSTORE PUSH1 0x20 ADD SWAP1 DUP2 MSTORE PUSH1 0x20 ADD PUSH0 KECCAK256 PUSH1 0x40 MLOAD DUP1 PUSH1 0xA0 ADD PUSH1 0x40 MSTORE SWAP1 DUP2 PUSH0 DUP3 ADD SLOAD DUP2 MSTORE PUSH1 0x20 ADD PUSH1 0x1 DUP3 ADD SLOAD DUP2 MSTORE PUSH1 0x20 ADD PUSH1 0x2 DUP3 ADD SLOAD DUP2 MSTORE PUSH1 0x20 ADD PUSH1 0x3 DUP3 ADD DUP1 SLOAD PUSH2 0x2AC SWAP1 PUSH2 0x106D JUMP JUMPDEST DUP1 PUSH1 0x1F ADD PUSH1 0x20 DUP1 SWAP2 DIV MUL PUSH1 0x20 ADD PUSH1 0x40 MLOAD SWAP1 DUP2 ADD PUSH1 0x40 MSTORE DUP1 SWAP3 SWAP2 SWAP1 DUP2 DUP2 MSTORE PUSH1 0x20 ADD DUP3 DUP1 SLOAD PUSH2 0x2D8 SWAP1 PUSH2 0x106D JUMP JUMPDEST DUP1 ISZERO PUSH2 0x323 JUMPI DUP1 PUSH1 0x1F LT PUSH2 0x2FA JUMPI PUSH2 0x100 DUP1 DUP4 SLOAD DIV MUL DUP4 MSTORE SWAP2 PUSH1 0x20 ADD SWAP2 PUSH2 0x323 JUMP JUMPDEST DUP3 ADD SWAP2 SWAP1 PUSH0 MSTORE PUSH1 0x20 PUSH0 KECCAK256 SWAP1 JUMPDEST DUP2 SLOAD DUP2 MSTORE SWAP1 PUSH1 0x1 ADD SWAP1 PUSH1 0x20 ADD DUP1 DUP4 GT PUSH2 0x306 JUMPI DUP3 SWAP1 SUB PUSH1 0x1F AND DUP3 ADD SWAP2 JUMPDEST POP POP POP SWAP2 DUP4 MSTORE POP POP PUSH1 0x4 DUP3 ADD SLOAD PUSH1 0x20 SWAP1 SWAP2 ADD SWAP1 PUSH1 0xFF AND PUSH1 0x1 DUP2 GT ISZERO PUSH2 0x34A JUMPI PUSH2 0x34A PUSH2 0xD8F JUMP JUMPDEST PUSH1 0x1 DUP2 GT ISZERO PUSH2 0x35B JUMPI PUSH2 0x35B PUSH2 0xD8F JUMP JUMPDEST SWAP1 MSTORE POP SWAP3 SWAP2 POP POP JUMP JUMPDEST PUSH1 0x1 SLOAD PUSH1 0x40 MLOAD PUSH4 0x95A8C58D PUSH1 0xE0 SHL DUP2 MSTORE PUSH1 0x1 PUSH1 0x1 PUSH1 0xA0 SHL SUB SWAP1 SWAP2 AND SWAP1 PUSH4 0x95A8C58D SWAP1 PUSH2 0x396 SWAP1 ORIGIN SWAP1 PUSH0 SWAP1 PUSH1 0x4 ADD PUSH2 0x10A5 JUMP JUMPDEST PUSH1 0x20 PUSH1 0x40 MLOAD DUP1 DUP4 SUB DUP2 DUP7 GAS STATICCALL ISZERO DUP1 ISZERO PUSH2 0x3B1 JUMPI RETURNDATASIZE PUSH0 PUSH0 RETURNDATACOPY RETURNDATASIZE PUSH0 REVERT JUMPDEST POP POP POP POP PUSH1 0x40 MLOAD RETURNDATASIZE PUSH1 0x1F NOT PUSH1 0x1F DUP3 ADD AND DUP3 ADD DUP1 PUSH1 0x40 MSTORE POP DUP2 ADD SWAP1 PUSH2 0x3D5 SWAP2 SWAP1 PUSH2 0x10CB JUMP JUMPDEST PUSH2 0x3F1 JUMPI PUSH1 0x40 MLOAD PUSH3 0x461BCD PUSH1 0xE5 SHL DUP2 MSTORE PUSH1 0x4 ADD PUSH2 0x25A SWAP1 PUSH2 0x10EA JUMP JUMPDEST PUSH0 DUP4 DUP2 MSTORE PUSH1 0x3 PUSH1 0x20 MSTORE PUSH1 0x40 DUP2 KECCAK256 SLOAD SWAP1 SUB PUSH2 0x41D JUMPI PUSH1 0x40 MLOAD PUSH3 0x461BCD PUSH1 0xE5 SHL DUP2 MSTORE PUSH1 0x4 ADD PUSH2 0x25A SWAP1 PUSH2 0x103F JUMP JUMPDEST PUSH0 DUP3 GT DUP1 ISZERO PUSH2 0x42B JUMPI POP PUSH0 DUP2 GT JUMPDEST PUSH2 0x447 JUMPI PUSH1 0x40 MLOAD PUSH3 0x461BCD PUSH1 0xE5 SHL DUP2 MSTORE PUSH1 0x4 ADD PUSH2 0x25A SWAP1 PUSH2 0x110D JUMP JUMPDEST PUSH0 DUP4 DUP2 MSTORE PUSH1 0x3 PUSH1 0x20 SWAP1 DUP2 MSTORE PUSH1 0x40 SWAP2 DUP3 SWAP1 KECCAK256 PUSH1 0x1 DUP2 ADD DUP6 SWAP1 SSTORE PUSH1 0x2 ADD DUP4 SWAP1 SSTORE DUP2 MLOAD DUP6 DUP2 MSTORE SWAP1 DUP2 ADD DUP5 SWAP1 MSTORE SWAP1 DUP2 ADD DUP3 SWAP1 MSTORE PUSH32 0xF7237D4E5B6EB7009E4EB3D57722C89A2D5A309CB8766EDD3D12C3A2F6369FEA SWAP1 PUSH1 0x60 ADD PUSH1 0x40 MLOAD DUP1 SWAP2 SUB SWAP1 LOG1 POP POP POP JUMP JUMPDEST PUSH1 0x3 PUSH1 0x20 MSTORE DUP1 PUSH0 MSTORE PUSH1 0x40 PUSH0 KECCAK256 PUSH0 SWAP2 POP SWAP1 POP DUP1 PUSH0 ADD SLOAD SWAP1 DUP1 PUSH1 0x1 ADD SLOAD SWAP1 DUP1 PUSH1 0x2 ADD SLOAD SWAP1 DUP1 PUSH1 0x3 ADD DUP1 SLOAD PUSH2 0x4D9 SWAP1 PUSH2 0x106D JUMP JUMPDEST DUP1 PUSH1 0x1F ADD PUSH1 0x20 DUP1 SWAP2 DIV MUL PUSH1 0x20 ADD PUSH1 0x40 MLOAD SWAP1 DUP2 ADD PUSH1 0x40 MSTORE DUP1 SWAP3 SWAP2 SWAP1 DUP2 DUP2 MSTORE PUSH1 0x20 ADD DUP3 DUP1 SLOAD PUSH2 0x505 SWAP1 PUSH2 0x106D JUMP JUMPDEST DUP1 ISZERO PUSH2 0x550 JUMPI DUP1 PUSH1 0x1F LT PUSH2 0x527 JUMPI PUSH2 0x100 DUP1 DUP4 SLOAD DIV MUL DUP4 MSTORE SWAP2 PUSH1 0x20 ADD SWAP2 PUSH2 0x550 JUMP JUMPDEST DUP3 ADD SWAP2 SWAP1 PUSH0 MSTORE PUSH1 0x20 PUSH0 KECCAK256 SWAP1 JUMPDEST DUP2 SLOAD DUP2 MSTORE SWAP1 PUSH1 0x1 ADD SWAP1 PUSH1 0x20 ADD DUP1 DUP4 GT PUSH2 0x533 JUMPI DUP3 SWAP1 SUB PUSH1 0x1F AND DUP3 ADD SWAP2 JUMPDEST POP POP POP PUSH1 0x4 SWAP1 SWAP4 ADD SLOAD SWAP2 SWAP3 POP POP PUSH1 0xFF AND DUP6 JUMP JUMPDEST PUSH1 0x4 PUSH1 0x20 MSTORE DUP2 PUSH0 MSTORE PUSH1 0x40 PUSH0 KECCAK256 DUP2 DUP2 SLOAD DUP2 LT PUSH2 0x57C JUMPI PUSH0 DUP1 REVERT JUMPDEST SWAP1 PUSH0 MSTORE PUSH1 0x20 PUSH0 KECCAK256 ADD PUSH0 SWAP2 POP SWAP2 POP POP SLOAD DUP2 JUMP JUMPDEST PUSH1 0x1 SLOAD PUSH1 0x40 MLOAD PUSH4 0x95A8C58D PUSH1 0xE0 SHL DUP2 MSTORE PUSH1 0x1 PUSH1 0x1 PUSH1 0xA0 SHL SUB SWAP1 SWAP2 AND SWAP1 PUSH4 0x95A8C58D SWAP1 PUSH2 0x5C0 SWAP1 ORIGIN SWAP1 PUSH0 SWAP1 PUSH1 0x4 ADD PUSH2 0x10A5 JUMP JUMPDEST PUSH1 0x20 PUSH1 0x40 MLOAD DUP1 DUP4 SUB DUP2 DUP7 GAS STATICCALL ISZERO DUP1 ISZERO PUSH2 0x5DB JUMPI RETURNDATASIZE PUSH0 PUSH0 RETURNDATACOPY RETURNDATASIZE PUSH0 REVERT JUMPDEST POP POP POP POP PUSH1 0x40 MLOAD RETURNDATASIZE PUSH1 0x1F NOT PUSH1 0x1F DUP3 ADD AND DUP3 ADD DUP1 PUSH1 0x40 MSTORE POP DUP2 ADD SWAP1 PUSH2 0x5FF SWAP2 SWAP1 PUSH2 0x10CB JUMP JUMPDEST PUSH2 0x61B JUMPI PUSH1 0x40 MLOAD PUSH3 0x461BCD PUSH1 0xE5 SHL DUP2 MSTORE PUSH1 0x4 ADD PUSH2 0x25A SWAP1 PUSH2 0x10EA JUMP JUMPDEST PUSH0 DUP2 DUP2 MSTORE PUSH1 0x3 PUSH1 0x20 MSTORE PUSH1 0x40 DUP2 KECCAK256 SLOAD SWAP1 SUB PUSH2 0x671 JUMPI PUSH1 0x40 MLOAD PUSH3 0x461BCD PUSH1 0xE5 SHL DUP2 MSTORE PUSH1 0x20 PUSH1 0x4 DUP3 ADD MSTORE PUSH1 0x17 PUSH1 0x24 DUP3 ADD MSTORE PUSH23 0x1518589B1948125108191BD95CC81B9BDD08195E1A5CDD PUSH1 0x4A SHL PUSH1 0x44 DUP3 ADD MSTORE PUSH1 0x64 ADD PUSH2 0x25A JUMP JUMPDEST PUSH0 SLOAD PUSH1 0x40 MLOAD PUSH4 0x914EE455 PUSH1 0xE0 SHL DUP2 MSTORE PUSH1 0x4 DUP2 ADD DUP5 SWAP1 MSTORE PUSH1 0x24 DUP2 ADD DUP4 SWAP1 MSTORE PUSH1 0x1 PUSH1 0x1 PUSH1 0xA0 SHL SUB SWAP1 SWAP2 AND SWAP1 PUSH4 0x914EE455 SWAP1 PUSH1 0x44 ADD PUSH0 PUSH1 0x40 MLOAD DUP1 DUP4 SUB DUP2 PUSH0 DUP8 DUP1 EXTCODESIZE ISZERO DUP1 ISZERO PUSH2 0x6BA JUMPI PUSH0 PUSH0 REVERT JUMPDEST POP GAS CALL ISZERO DUP1 ISZERO PUSH2 0x6CC JUMPI RETURNDATASIZE PUSH0 PUSH0 RETURNDATACOPY RETURNDATASIZE PUSH0 REVERT JUMPDEST POP POP PUSH1 0x40 DUP1 MLOAD DUP5 DUP2 MSTORE PUSH1 0x20 DUP2 ADD DUP7 SWAP1 MSTORE PUSH32 0xCE055A555634F6B775CAB0652D8BF5B7B02D31FD077B3E4459D806099D5C032A SWAP4 POP ADD SWAP1 POP JUMPDEST PUSH1 0x40 MLOAD DUP1 SWAP2 SUB SWAP1 LOG1 POP POP JUMP JUMPDEST PUSH1 0x1 SLOAD PUSH1 0x40 MLOAD PUSH4 0x95A8C58D PUSH1 0xE0 SHL DUP2 MSTORE PUSH1 0x1 PUSH1 0x1 PUSH1 0xA0 SHL SUB SWAP1 SWAP2 AND SWAP1 PUSH4 0x95A8C58D SWAP1 PUSH2 0x741 SWAP1 CALLER SWAP1 PUSH0 SWAP1 PUSH1 0x4 ADD PUSH2 0x10A5 JUMP JUMPDEST PUSH1 0x20 PUSH1 0x40 MLOAD DUP1 DUP4 SUB DUP2 DUP7 GAS STATICCALL ISZERO DUP1 ISZERO PUSH2 0x75C JUMPI RETURNDATASIZE PUSH0 PUSH0 RETURNDATACOPY RETURNDATASIZE PUSH0 REVERT JUMPDEST POP POP POP POP PUSH1 0x40 MLOAD RETURNDATASIZE PUSH1 0x1F NOT PUSH1 0x1F DUP3 ADD AND DUP3 ADD DUP1 PUSH1 0x40 MSTORE POP DUP2 ADD SWAP1 PUSH2 0x780 SWAP2 SWAP1 PUSH2 0x10CB JUMP JUMPDEST DUP1 PUSH2 0x7F6 JUMPI POP PUSH1 0x1 DUP1 SLOAD PUSH1 0x40 MLOAD PUSH4 0x95A8C58D PUSH1 0xE0 SHL DUP2 MSTORE PUSH1 0x1 PUSH1 0x1 PUSH1 0xA0 SHL SUB SWAP1 SWAP2 AND SWAP2 PUSH4 0x95A8C58D SWAP2 PUSH2 0x7B7 SWAP2 CALLER SWAP2 PUSH1 0x4 ADD PUSH2 0x10A5 JUMP JUMPDEST PUSH1 0x20 PUSH1 0x40 MLOAD DUP1 DUP4 SUB DUP2 DUP7 GAS STATICCALL ISZERO DUP1 ISZERO PUSH2 0x7D2 JUMPI RETURNDATASIZE PUSH0 PUSH0 RETURNDATACOPY RETURNDATASIZE PUSH0 REVERT JUMPDEST POP POP POP POP PUSH1 0x40 MLOAD RETURNDATASIZE PUSH1 0x1F NOT PUSH1 0x1F DUP3 ADD AND DUP3 ADD DUP1 PUSH1 0x40 MSTORE POP DUP2 ADD SWAP1 PUSH2 0x7F6 SWAP2 SWAP1 PUSH2 0x10CB JUMP JUMPDEST PUSH2 0x837 JUMPI PUSH1 0x40 MLOAD PUSH3 0x461BCD PUSH1 0xE5 SHL DUP2 MSTORE PUSH1 0x20 PUSH1 0x4 DUP3 ADD MSTORE PUSH1 0x12 PUSH1 0x24 DUP3 ADD MSTORE PUSH18 0x2737BA1030B236B4B71037B91039BA30B333 PUSH1 0x71 SHL PUSH1 0x44 DUP3 ADD MSTORE PUSH1 0x64 ADD PUSH2 0x25A JUMP JUMPDEST PUSH0 DUP3 DUP2 MSTORE PUSH1 0x3 PUSH1 0x20 MSTORE PUSH1 0x40 DUP2 KECCAK256 SLOAD SWAP1 SUB PUSH2 0x88D JUMPI PUSH1 0x40 MLOAD PUSH3 0x461BCD PUSH1 0xE5 SHL DUP2 MSTORE PUSH1 0x20 PUSH1 0x4 DUP3 ADD MSTORE PUSH1 0x17 PUSH1 0x24 DUP3 ADD MSTORE PUSH23 0x1518589B1948125108191BD95CC81B9BDD08195E1A5CDD PUSH1 0x4A SHL PUSH1 0x44 DUP3 ADD MSTORE PUSH1 0x64 ADD PUSH2 0x25A JUMP JUMPDEST PUSH0 DUP3 DUP2 MSTORE PUSH1 0x3 PUSH1 0x20 MSTORE PUSH1 0x40 SWAP1 KECCAK256 PUSH1 0x4 ADD DUP1 SLOAD DUP3 SWAP2 SWAP1 PUSH1 0xFF NOT AND PUSH1 0x1 DUP4 DUP2 DUP2 GT ISZERO PUSH2 0x8B9 JUMPI PUSH2 0x8B9 PUSH2 0xD8F JUMP JUMPDEST MUL OR SWAP1 SSTORE POP PUSH1 0x40 MLOAD DUP3 DUP2 MSTORE PUSH32 0x806E02512E08B8327EC991FDAF88CC26768AC76F54EC0CE459E8D1215D937167 SWAP1 PUSH1 0x20 ADD PUSH2 0x703 JUMP JUMPDEST PUSH1 0x1 SLOAD PUSH1 0x40 MLOAD PUSH4 0x95A8C58D PUSH1 0xE0 SHL DUP2 MSTORE PUSH1 0x1 PUSH1 0x1 PUSH1 0xA0 SHL SUB SWAP1 SWAP2 AND SWAP1 PUSH4 0x95A8C58D SWAP1 PUSH2 0x920 SWAP1 ORIGIN SWAP1 PUSH0 SWAP1 PUSH1 0x4 ADD PUSH2 0x10A5 JUMP JUMPDEST PUSH1 0x20 PUSH1 0x40 MLOAD DUP1 DUP4 SUB DUP2 DUP7 GAS STATICCALL ISZERO DUP1 ISZERO PUSH2 0x93B JUMPI RETURNDATASIZE PUSH0 PUSH0 RETURNDATACOPY RETURNDATASIZE PUSH0 REVERT JUMPDEST POP POP POP POP PUSH1 0x40 MLOAD RETURNDATASIZE PUSH1 0x1F NOT PUSH1 0x1F DUP3 ADD AND DUP3 ADD DUP1 PUSH1 0x40 MSTORE POP DUP2 ADD SWAP1 PUSH2 0x95F SWAP2 SWAP1 PUSH2 0x10CB JUMP JUMPDEST PUSH2 0x97B JUMPI PUSH1 0x40 MLOAD PUSH3 0x461BCD PUSH1 0xE5 SHL DUP2 MSTORE PUSH1 0x4 ADD PUSH2 0x25A SWAP1 PUSH2 0x10EA JUMP JUMPDEST PUSH0 DUP5 DUP2 MSTORE PUSH1 0x3 PUSH1 0x20 MSTORE PUSH1 0x40 DUP2 KECCAK256 SLOAD SWAP1 SUB PUSH2 0x9A7 JUMPI PUSH1 0x40 MLOAD PUSH3 0x461BCD PUSH1 0xE5 SHL DUP2 MSTORE PUSH1 0x4 ADD PUSH2 0x25A SWAP1 PUSH2 0x103F JUMP JUMPDEST PUSH0 DUP5 DUP2 MSTORE PUSH1 0x3 PUSH1 0x20 MSTORE PUSH1 0x40 SWAP1 KECCAK256 PUSH1 0x1 DUP2 ADD DUP5 SWAP1 SSTORE PUSH1 0x2 DUP2 ADD DUP4 SWAP1 SSTORE DUP2 MLOAD ISZERO PUSH2 0x9D9 JUMPI PUSH1 0x3 DUP2 ADD PUSH2 0x9D7 DUP4 DUP3 PUSH2 0x119E JUMP JUMPDEST POP JUMPDEST DUP5 PUSH32 0x931B192218D9D356AE347A117CBA11643FAD952E6585836FE64B5C19031476DF DUP3 PUSH1 0x1 ADD SLOAD DUP4 PUSH1 0x2 ADD SLOAD DUP5 PUSH1 0x3 ADD PUSH1 0x40 MLOAD PUSH2 0xA18 SWAP4 SWAP3 SWAP2 SWAP1 PUSH2 0x1259 JUMP JUMPDEST PUSH1 0x40 MLOAD DUP1 SWAP2 SUB SWAP1 LOG2 POP POP POP POP POP JUMP JUMPDEST PUSH0 DUP2 DUP2 MSTORE PUSH1 0x3 PUSH1 0x20 MSTORE PUSH1 0x40 DUP2 KECCAK256 SLOAD SWAP1 SUB PUSH2 0xA53 JUMPI PUSH1 0x40 MLOAD PUSH3 0x461BCD PUSH1 0xE5 SHL DUP2 MSTORE PUSH1 0x4 ADD PUSH2 0x25A SWAP1 PUSH2 0x103F JUMP JUMPDEST PUSH0 DUP2 DUP2 MSTORE PUSH1 0x3 PUSH1 0x20 DUP2 SWAP1 MSTORE PUSH1 0x40 DUP3 KECCAK256 DUP3 DUP2 SSTORE PUSH1 0x1 DUP2 ADD DUP4 SWAP1 SSTORE PUSH1 0x2 DUP2 ADD DUP4 SWAP1 SSTORE SWAP2 SWAP1 PUSH2 0xA81 SWAP1 DUP4 ADD DUP3 PUSH2 0xCF8 JUMP JUMPDEST POP PUSH1 0x4 ADD DUP1 SLOAD PUSH1 0xFF NOT AND SWAP1 SSTORE PUSH1 0x40 MLOAD DUP2 DUP2 MSTORE PUSH32 0xE9ACAEE49F406BA06F0464EE11615009A1B531E51E3E9D4427228ACAE8A4E6BA SWAP1 PUSH1 0x20 ADD PUSH1 0x40 MLOAD DUP1 SWAP2 SUB SWAP1 LOG1 POP JUMP JUMPDEST PUSH1 0x1 SLOAD PUSH1 0x40 MLOAD PUSH4 0x95A8C58D PUSH1 0xE0 SHL DUP2 MSTORE PUSH0 SWAP2 PUSH1 0x1 PUSH1 0x1 PUSH1 0xA0 SHL SUB AND SWAP1 PUSH4 0x95A8C58D SWAP1 PUSH2 0xAF5 SWAP1 ORIGIN SWAP1 DUP6 SWAP1 PUSH1 0x4 ADD PUSH2 0x10A5 JUMP JUMPDEST PUSH1 0x20 PUSH1 0x40 MLOAD DUP1 DUP4 SUB DUP2 DUP7 GAS STATICCALL ISZERO DUP1 ISZERO PUSH2 0xB10 JUMPI RETURNDATASIZE PUSH0 PUSH0 RETURNDATACOPY RETURNDATASIZE PUSH0 REVERT JUMPDEST POP POP POP POP PUSH1 0x40 MLOAD RETURNDATASIZE PUSH1 0x1F NOT PUSH1 0x1F DUP3 ADD AND DUP3 ADD DUP1 PUSH1 0x40 MSTORE POP DUP2 ADD SWAP1 PUSH2 0xB34 SWAP2 SWAP1 PUSH2 0x10CB JUMP JUMPDEST PUSH2 0xB50 JUMPI PUSH1 0x40 MLOAD PUSH3 0x461BCD PUSH1 0xE5 SHL DUP2 MSTORE PUSH1 0x4 ADD PUSH2 0x25A SWAP1 PUSH2 0x10EA JUMP JUMPDEST PUSH0 DUP5 GT DUP1 ISZERO PUSH2 0xB5E JUMPI POP PUSH0 DUP4 GT JUMPDEST PUSH2 0xB7A JUMPI PUSH1 0x40 MLOAD PUSH3 0x461BCD PUSH1 0xE5 SHL DUP2 MSTORE PUSH1 0x4 ADD PUSH2 0x25A SWAP1 PUSH2 0x110D JUMP JUMPDEST PUSH0 DUP3 MLOAD GT PUSH2 0xBC3 JUMPI PUSH1 0x40 MLOAD PUSH3 0x461BCD PUSH1 0xE5 SHL DUP2 MSTORE PUSH1 0x20 PUSH1 0x4 DUP3 ADD MSTORE PUSH1 0x16 PUSH1 0x24 DUP3 ADD MSTORE PUSH22 0x51522055524C2063616E6E6F7420626520656D707479 PUSH1 0x50 SHL PUSH1 0x44 DUP3 ADD MSTORE PUSH1 0x64 ADD PUSH2 0x25A JUMP JUMPDEST PUSH1 0x2 DUP1 SLOAD PUSH0 SWAP2 DUP3 PUSH2 0xBD3 DUP4 PUSH2 0x12EE JUMP JUMPDEST SWAP2 SWAP1 POP SSTORE SWAP1 POP PUSH1 0x40 MLOAD DUP1 PUSH1 0xA0 ADD PUSH1 0x40 MSTORE DUP1 DUP3 DUP2 MSTORE PUSH1 0x20 ADD DUP7 DUP2 MSTORE PUSH1 0x20 ADD DUP6 DUP2 MSTORE PUSH1 0x20 ADD DUP5 DUP2 MSTORE PUSH1 0x20 ADD PUSH0 PUSH1 0x1 DUP2 GT ISZERO PUSH2 0xC0E JUMPI PUSH2 0xC0E PUSH2 0xD8F JUMP JUMPDEST SWAP1 MSTORE PUSH0 DUP3 DUP2 MSTORE PUSH1 0x3 PUSH1 0x20 DUP2 DUP2 MSTORE PUSH1 0x40 SWAP3 DUP4 SWAP1 KECCAK256 DUP5 MLOAD DUP2 SSTORE SWAP1 DUP5 ADD MLOAD PUSH1 0x1 DUP3 ADD SSTORE SWAP2 DUP4 ADD MLOAD PUSH1 0x2 DUP4 ADD SSTORE PUSH1 0x60 DUP4 ADD MLOAD SWAP1 DUP3 ADD SWAP1 PUSH2 0xC4A SWAP1 DUP3 PUSH2 0x119E JUMP JUMPDEST POP PUSH1 0x80 DUP3 ADD MLOAD PUSH1 0x4 DUP3 ADD DUP1 SLOAD PUSH1 0xFF NOT AND PUSH1 0x1 DUP4 DUP2 DUP2 GT ISZERO PUSH2 0xC6D JUMPI PUSH2 0xC6D PUSH2 0xD8F JUMP JUMPDEST MUL OR SWAP1 SSTORE POP POP PUSH1 0x40 DUP1 MLOAD DUP4 DUP2 MSTORE PUSH1 0x20 DUP2 ADD DUP9 SWAP1 MSTORE SWAP1 DUP2 ADD DUP7 SWAP1 MSTORE PUSH32 0x7C625AD207B65D4C400B3DAAB560616556395DFE69EBC199B59250C837DB78E3 SWAP2 POP PUSH1 0x60 ADD PUSH1 0x40 MLOAD DUP1 SWAP2 SUB SWAP1 LOG1 SWAP5 SWAP4 POP POP POP POP JUMP JUMPDEST PUSH1 0x40 MLOAD DUP1 PUSH1 0xA0 ADD PUSH1 0x40 MSTORE DUP1 PUSH0 DUP2 MSTORE PUSH1 0x20 ADD PUSH0 DUP2 MSTORE PUSH1 0x20 ADD PUSH0 DUP2 MSTORE PUSH1 0x20 ADD PUSH1 0x60 DUP2 MSTORE PUSH1 0x20 ADD PUSH0 PUSH1 0x1 DUP2 GT ISZERO PUSH2 0xCF3 JUMPI PUSH2 0xCF3 PUSH2 0xD8F JUMP JUMPDEST SWAP1 MSTORE SWAP1 JUMP JUMPDEST POP DUP1 SLOAD PUSH2 0xD04 SWAP1 PUSH2 0x106D JUMP JUMPDEST PUSH0 DUP3 SSTORE DUP1 PUSH1 0x1F LT PUSH2 0xD13 JUMPI POP POP JUMP JUMPDEST PUSH1 0x1F ADD PUSH1 0x20 SWAP1 DIV SWAP1 PUSH0 MSTORE PUSH1 0x20 PUSH0 KECCAK256 SWAP1 DUP2 ADD SWAP1 PUSH2 0xD2F SWAP2 SWAP1 PUSH2 0xD32 JUMP JUMPDEST POP JUMP JUMPDEST JUMPDEST DUP1 DUP3 GT ISZERO PUSH2 0xD46 JUMPI PUSH0 DUP2 SSTORE PUSH1 0x1 ADD PUSH2 0xD33 JUMP JUMPDEST POP SWAP1 JUMP JUMPDEST PUSH0 PUSH1 0x20 DUP3 DUP5 SUB SLT ISZERO PUSH2 0xD5A JUMPI PUSH0 PUSH0 REVERT JUMPDEST POP CALLDATALOAD SWAP2 SWAP1 POP JUMP JUMPDEST PUSH0 DUP2 MLOAD DUP1 DUP5 MSTORE DUP1 PUSH1 0x20 DUP5 ADD PUSH1 0x20 DUP7 ADD MCOPY PUSH0 PUSH1 0x20 DUP3 DUP7 ADD ADD MSTORE PUSH1 0x20 PUSH1 0x1F NOT PUSH1 0x1F DUP4 ADD AND DUP6 ADD ADD SWAP2 POP POP SWAP3 SWAP2 POP POP JUMP JUMPDEST PUSH4 0x4E487B71 PUSH1 0xE0 SHL PUSH0 MSTORE PUSH1 0x21 PUSH1 0x4 MSTORE PUSH1 0x24 PUSH0 REVERT JUMPDEST PUSH1 0x2 DUP2 LT PUSH2 0xD2F JUMPI PUSH4 0x4E487B71 PUSH1 0xE0 SHL PUSH0 MSTORE PUSH1 0x21 PUSH1 0x4 MSTORE PUSH1 0x24 PUSH0 REVERT JUMPDEST PUSH1 0x20 DUP2 MSTORE DUP2 MLOAD PUSH1 0x20 DUP3 ADD MSTORE PUSH1 0x20 DUP3 ADD MLOAD PUSH1 0x40 DUP3 ADD MSTORE PUSH1 0x40 DUP3 ADD MLOAD PUSH1 0x60 DUP3 ADD MSTORE PUSH0 PUSH1 0x60 DUP4 ADD MLOAD PUSH1 0xA0 PUSH1 0x80 DUP5 ADD MSTORE PUSH2 0xDF8 PUSH1 0xC0 DUP5 ADD DUP3 PUSH2 0xD61 JUMP JUMPDEST SWAP1 POP PUSH1 0x80 DUP5 ADD MLOAD PUSH2 0xE08 DUP2 PUSH2 0xDA3 JUMP JUMPDEST PUSH1 0xA0 SWAP4 SWAP1 SWAP4 ADD SWAP3 SWAP1 SWAP3 MSTORE POP SWAP2 SWAP1 POP JUMP JUMPDEST PUSH0 PUSH0 PUSH0 PUSH1 0x60 DUP5 DUP7 SUB SLT ISZERO PUSH2 0xE2A JUMPI PUSH0 PUSH0 REVERT JUMPDEST POP POP DUP2 CALLDATALOAD SWAP4 PUSH1 0x20 DUP4 ADD CALLDATALOAD SWAP4 POP PUSH1 0x40 SWAP1 SWAP3 ADD CALLDATALOAD SWAP2 SWAP1 POP JUMP JUMPDEST DUP6 DUP2 MSTORE DUP5 PUSH1 0x20 DUP3 ADD MSTORE DUP4 PUSH1 0x40 DUP3 ADD MSTORE PUSH1 0xA0 PUSH1 0x60 DUP3 ADD MSTORE PUSH0 PUSH2 0xE65 PUSH1 0xA0 DUP4 ADD DUP6 PUSH2 0xD61 JUMP JUMPDEST SWAP1 POP PUSH2 0xE70 DUP4 PUSH2 0xDA3 JUMP JUMPDEST DUP3 PUSH1 0x80 DUP4 ADD MSTORE SWAP7 SWAP6 POP POP POP POP POP POP JUMP JUMPDEST PUSH0 PUSH0 PUSH1 0x40 DUP4 DUP6 SUB SLT ISZERO PUSH2 0xE91 JUMPI PUSH0 PUSH0 REVERT JUMPDEST POP POP DUP1 CALLDATALOAD SWAP3 PUSH1 0x20 SWAP1 SWAP2 ADD CALLDATALOAD SWAP2 POP JUMP JUMPDEST PUSH0 PUSH0 PUSH1 0x40 DUP4 DUP6 SUB SLT ISZERO PUSH2 0xEB1 JUMPI PUSH0 PUSH0 REVERT JUMPDEST DUP3 CALLDATALOAD SWAP2 POP PUSH1 0x20 DUP4 ADD CALLDATALOAD PUSH1 0x2 DUP2 LT PUSH2 0xEC6 JUMPI PUSH0 PUSH0 REVERT JUMPDEST DUP1 SWAP2 POP POP SWAP3 POP SWAP3 SWAP1 POP JUMP JUMPDEST PUSH0 PUSH1 0x20 DUP3 DUP5 SUB SLT ISZERO PUSH2 0xEE1 JUMPI PUSH0 PUSH0 REVERT JUMPDEST DUP2 CALLDATALOAD PUSH1 0x1 PUSH1 0x1 PUSH1 0xA0 SHL SUB DUP2 AND DUP2 EQ PUSH2 0xEF7 JUMPI PUSH0 PUSH0 REVERT JUMPDEST SWAP4 SWAP3 POP POP POP JUMP JUMPDEST PUSH4 0x4E487B71 PUSH1 0xE0 SHL PUSH0 MSTORE PUSH1 0x41 PUSH1 0x4 MSTORE PUSH1 0x24 PUSH0 REVERT JUMPDEST PUSH0 DUP3 PUSH1 0x1F DUP4 ADD SLT PUSH2 0xF21 JUMPI PUSH0 PUSH0 REVERT JUMPDEST DUP2 CALLDATALOAD PUSH8 0xFFFFFFFFFFFFFFFF DUP2 GT ISZERO PUSH2 0xF3B JUMPI PUSH2 0xF3B PUSH2 0xEFE JUMP JUMPDEST PUSH1 0x40 MLOAD PUSH1 0x1F DUP3 ADD PUSH1 0x1F NOT SWAP1 DUP2 AND PUSH1 0x3F ADD AND DUP2 ADD PUSH8 0xFFFFFFFFFFFFFFFF DUP2 GT DUP3 DUP3 LT OR ISZERO PUSH2 0xF6A JUMPI PUSH2 0xF6A PUSH2 0xEFE JUMP JUMPDEST PUSH1 0x40 MSTORE DUP2 DUP2 MSTORE DUP4 DUP3 ADD PUSH1 0x20 ADD DUP6 LT ISZERO PUSH2 0xF81 JUMPI PUSH0 PUSH0 REVERT JUMPDEST DUP2 PUSH1 0x20 DUP6 ADD PUSH1 0x20 DUP4 ADD CALLDATACOPY PUSH0 SWAP2 DUP2 ADD PUSH1 0x20 ADD SWAP2 SWAP1 SWAP2 MSTORE SWAP4 SWAP3 POP POP POP JUMP JUMPDEST PUSH0 PUSH0 PUSH0 PUSH0 PUSH1 0x80 DUP6 DUP8 SUB SLT ISZERO PUSH2 0xFB0 JUMPI PUSH0 PUSH0 REVERT JUMPDEST DUP5 CALLDATALOAD SWAP4 POP PUSH1 0x20 DUP6 ADD CALLDATALOAD SWAP3 POP PUSH1 0x40 DUP6 ADD CALLDATALOAD SWAP2 POP PUSH1 0x60 DUP6 ADD CALLDATALOAD PUSH8 0xFFFFFFFFFFFFFFFF DUP2 GT ISZERO PUSH2 0xFDB JUMPI PUSH0 PUSH0 REVERT JUMPDEST PUSH2 0xFE7 DUP8 DUP3 DUP9 ADD PUSH2 0xF12 JUMP JUMPDEST SWAP2 POP POP SWAP3 SWAP6 SWAP2 SWAP5 POP SWAP3 POP JUMP JUMPDEST PUSH0 PUSH0 PUSH0 PUSH1 0x60 DUP5 DUP7 SUB SLT ISZERO PUSH2 0x1005 JUMPI PUSH0 PUSH0 REVERT JUMPDEST DUP4 CALLDATALOAD SWAP3 POP PUSH1 0x20 DUP5 ADD CALLDATALOAD SWAP2 POP PUSH1 0x40 DUP5 ADD CALLDATALOAD PUSH8 0xFFFFFFFFFFFFFFFF DUP2 GT ISZERO PUSH2 0x1029 JUMPI PUSH0 PUSH0 REVERT JUMPDEST PUSH2 0x1035 DUP7 DUP3 DUP8 ADD PUSH2 0xF12 JUMP JUMPDEST SWAP2 POP POP SWAP3 POP SWAP3 POP SWAP3 JUMP JUMPDEST PUSH1 0x20 DUP1 DUP3 MSTORE PUSH1 0x14 SWAP1 DUP3 ADD MSTORE PUSH20 0x1518589B1948191BD95CC81B9BDD08195E1A5CDD PUSH1 0x62 SHL PUSH1 0x40 DUP3 ADD MSTORE PUSH1 0x60 ADD SWAP1 JUMP JUMPDEST PUSH1 0x1 DUP2 DUP2 SHR SWAP1 DUP3 AND DUP1 PUSH2 0x1081 JUMPI PUSH1 0x7F DUP3 AND SWAP2 POP JUMPDEST PUSH1 0x20 DUP3 LT DUP2 SUB PUSH2 0x109F JUMPI PUSH4 0x4E487B71 PUSH1 0xE0 SHL PUSH0 MSTORE PUSH1 0x22 PUSH1 0x4 MSTORE PUSH1 0x24 PUSH0 REVERT JUMPDEST POP SWAP2 SWAP1 POP JUMP JUMPDEST PUSH1 0x1 PUSH1 0x1 PUSH1 0xA0 SHL SUB DUP4 AND DUP2 MSTORE PUSH1 0x40 DUP2 ADD PUSH2 0x10BE DUP4 PUSH2 0xDA3 JUMP JUMPDEST DUP3 PUSH1 0x20 DUP4 ADD MSTORE SWAP4 SWAP3 POP POP POP JUMP JUMPDEST PUSH0 PUSH1 0x20 DUP3 DUP5 SUB SLT ISZERO PUSH2 0x10DB JUMPI PUSH0 PUSH0 REVERT JUMPDEST DUP2 MLOAD DUP1 ISZERO ISZERO DUP2 EQ PUSH2 0xEF7 JUMPI PUSH0 PUSH0 REVERT JUMPDEST PUSH1 0x20 DUP1 DUP3 MSTORE PUSH1 0x9 SWAP1 DUP3 ADD MSTORE PUSH9 0x2737BA1030B236B4B7 PUSH1 0xB9 SHL PUSH1 0x40 DUP3 ADD MSTORE PUSH1 0x60 ADD SWAP1 JUMP JUMPDEST PUSH1 0x20 DUP1 DUP3 MSTORE PUSH1 0x25 SWAP1 DUP3 ADD MSTORE PUSH32 0x526F7720616E6420636F6C756D6E206D75737420626520677265617465722074 PUSH1 0x40 DUP3 ADD MSTORE PUSH5 0x68616E203 PUSH1 0xDC SHL PUSH1 0x60 DUP3 ADD MSTORE PUSH1 0x80 ADD SWAP1 JUMP JUMPDEST PUSH1 0x1F DUP3 GT ISZERO PUSH2 0x1199 JUMPI DUP1 PUSH0 MSTORE PUSH1 0x20 PUSH0 KECCAK256 PUSH1 0x1F DUP5 ADD PUSH1 0x5 SHR DUP2 ADD PUSH1 0x20 DUP6 LT ISZERO PUSH2 0x1177 JUMPI POP DUP1 JUMPDEST PUSH1 0x1F DUP5 ADD PUSH1 0x5 SHR DUP3 ADD SWAP2 POP JUMPDEST DUP2 DUP2 LT ISZERO PUSH2 0x1196 JUMPI PUSH0 DUP2 SSTORE PUSH1 0x1 ADD PUSH2 0x1183 JUMP JUMPDEST POP POP JUMPDEST POP POP POP JUMP JUMPDEST DUP2 MLOAD PUSH8 0xFFFFFFFFFFFFFFFF DUP2 GT ISZERO PUSH2 0x11B8 JUMPI PUSH2 0x11B8 PUSH2 0xEFE JUMP JUMPDEST PUSH2 0x11CC DUP2 PUSH2 0x11C6 DUP5 SLOAD PUSH2 0x106D JUMP JUMPDEST DUP5 PUSH2 0x1152 JUMP JUMPDEST PUSH1 0x20 PUSH1 0x1F DUP3 GT PUSH1 0x1 DUP2 EQ PUSH2 0x11FE JUMPI PUSH0 DUP4 ISZERO PUSH2 0x11E7 JUMPI POP DUP5 DUP3 ADD MLOAD JUMPDEST PUSH0 NOT PUSH1 0x3 DUP6 SWAP1 SHL SHR NOT AND PUSH1 0x1 DUP5 SWAP1 SHL OR DUP5 SSTORE PUSH2 0x1196 JUMP JUMPDEST PUSH0 DUP5 DUP2 MSTORE PUSH1 0x20 DUP2 KECCAK256 PUSH1 0x1F NOT DUP6 AND SWAP2 JUMPDEST DUP3 DUP2 LT ISZERO PUSH2 0x122D JUMPI DUP8 DUP6 ADD MLOAD DUP3 SSTORE PUSH1 0x20 SWAP5 DUP6 ADD SWAP5 PUSH1 0x1 SWAP1 SWAP3 ADD SWAP2 ADD PUSH2 0x120D JUMP JUMPDEST POP DUP5 DUP3 LT ISZERO PUSH2 0x124A JUMPI DUP7 DUP5 ADD MLOAD PUSH0 NOT PUSH1 0x3 DUP8 SWAP1 SHL PUSH1 0xF8 AND SHR NOT AND DUP2 SSTORE JUMPDEST POP POP POP POP PUSH1 0x1 SWAP1 DUP2 SHL ADD SWAP1 SSTORE POP JUMP JUMPDEST DUP4 DUP2 MSTORE DUP3 PUSH1 0x20 DUP3 ADD MSTORE PUSH1 0x60 PUSH1 0x40 DUP3 ADD MSTORE PUSH0 PUSH0 DUP4 SLOAD PUSH2 0x1276 DUP2 PUSH2 0x106D JUMP JUMPDEST DUP1 PUSH1 0x60 DUP7 ADD MSTORE PUSH1 0x1 DUP3 AND PUSH0 DUP2 EQ PUSH2 0x1294 JUMPI PUSH1 0x1 DUP2 EQ PUSH2 0x12B0 JUMPI PUSH2 0x12E1 JUMP JUMPDEST PUSH1 0xFF NOT DUP4 AND PUSH1 0x80 DUP8 ADD MSTORE PUSH1 0x80 DUP3 ISZERO ISZERO PUSH1 0x5 SHL DUP8 ADD ADD SWAP4 POP PUSH2 0x12E1 JUMP JUMPDEST DUP7 PUSH0 MSTORE PUSH1 0x20 PUSH0 KECCAK256 PUSH0 JUMPDEST DUP4 DUP2 LT ISZERO PUSH2 0x12D8 JUMPI DUP2 SLOAD DUP9 DUP3 ADD PUSH1 0x80 ADD MSTORE PUSH1 0x1 SWAP1 SWAP2 ADD SWAP1 PUSH1 0x20 ADD PUSH2 0x12B9 JUMP JUMPDEST DUP8 ADD PUSH1 0x80 ADD SWAP5 POP POP JUMPDEST POP SWAP2 SWAP8 SWAP7 POP POP POP POP POP POP POP JUMP JUMPDEST PUSH0 PUSH1 0x1 DUP3 ADD PUSH2 0x130B JUMPI PUSH4 0x4E487B71 PUSH1 0xE0 SHL PUSH0 MSTORE PUSH1 0x11 PUSH1 0x4 MSTORE PUSH1 0x24 PUSH0 REVERT JUMPDEST POP PUSH1 0x1 ADD SWAP1 JUMP INVALID LOG2 PUSH5 0x6970667358 0x22 SLT KECCAK256 PUSH32 0xB7F37ED7C3B7920147ABA1031F303775A28930EE568A3AAADB9AC6ABDF43BF64 PUSH20 0x6F6C634300081E00330000000000000000000000 "
				},
				"gasEstimates": {
					"creation": {
						"codeDepositCost": "987200",
						"executionCost": "infinite",
						"totalCost": "infinite"
					},
					"external": {
						"addTable(uint256,uint256,string)": "infinite",
						"addTableToOrder(uint256,uint256)": "infinite",
						"deleteTable(uint256)": "infinite",
						"editTable(uint256,uint256,uint256)": "infinite",
						"getTableById(uint256)": "infinite",
						"nextTableId()": "2383",
						"orderManager()": "2401",
						"orderTable(uint256,uint256)": "4768",
						"roleAccess()": "2359",
						"setOrderManager(address)": "24588",
						"tables(uint256)": "infinite",
						"updateStatusTable(uint256,uint8)": "infinite",
						"updateTable(uint256,uint256,uint256,string)": "infinite"
					}
				},
				"methodIdentifiers": {
					"addTable(uint256,uint256,string)": "fb25d32f",
					"addTableToOrder(uint256,uint256)": "95ebcb24",
					"deleteTable(uint256)": "e6f318c6",
					"editTable(uint256,uint256,uint256)": "5cfd6607",
					"getTableById(uint256)": "3844ac5b",
					"nextTableId()": "88a01cd7",
					"orderManager()": "f9b6117f",
					"orderTable(uint256,uint256)": "90c86435",
					"roleAccess()": "42f54b89",
					"setOrderManager(address)": "c0da840d",
					"tables(uint256)": "71671bf2",
					"updateStatusTable(uint256,uint8)": "b4afd52c",
					"updateTable(uint256,uint256,uint256,string)": "d50a9e46"
				}
			},
			"storageLayout": {
				"storage": [
					{
						"astId": 485,
						"contract": "contracts/manager/TableManager.sol:TableManager",
						"label": "orderManager",
						"offset": 0,
						"slot": "0",
						"type": "t_contract(IOrderManager)361"
					},
					{
						"astId": 488,
						"contract": "contracts/manager/TableManager.sol:TableManager",
						"label": "roleAccess",
						"offset": 0,
						"slot": "1",
						"type": "t_contract(RoleAccess)251"
					},
					{
						"astId": 491,
						"contract": "contracts/manager/TableManager.sol:TableManager",
						"label": "nextTableId",
						"offset": 0,
						"slot": "2",
						"type": "t_uint256"
					},
					{
						"astId": 496,
						"contract": "contracts/manager/TableManager.sol:TableManager",
						"label": "tables",
						"offset": 0,
						"slot": "3",
						"type": "t_mapping(t_uint256,t_struct(Table)958_storage)"
					},
					{
						"astId": 501,
						"contract": "contracts/manager/TableManager.sol:TableManager",
						"label": "orderTable",
						"offset": 0,
						"slot": "4",
						"type": "t_mapping(t_uint256,t_array(t_uint256)dyn_storage)"
					}
				],
				"types": {
					"t_array(t_uint256)dyn_storage": {
						"base": "t_uint256",
						"encoding": "dynamic_array",
						"label": "uint256[]",
						"numberOfBytes": "32"
					},
					"t_contract(IOrderManager)361": {
						"encoding": "inplace",
						"label": "contract IOrderManager",
						"numberOfBytes": "20"
					},
					"t_contract(RoleAccess)251": {
						"encoding": "inplace",
						"label": "contract RoleAccess",
						"numberOfBytes": "20"
					},
					"t_enum(TableStatus)946": {
						"encoding": "inplace",
						"label": "enum TableStatus",
						"numberOfBytes": "1"
					},
					"t_mapping(t_uint256,t_array(t_uint256)dyn_storage)": {
						"encoding": "mapping",
						"key": "t_uint256",
						"label": "mapping(uint256 => uint256[])",
						"numberOfBytes": "32",
						"value": "t_array(t_uint256)dyn_storage"
					},
					"t_mapping(t_uint256,t_struct(Table)958_storage)": {
						"encoding": "mapping",
						"key": "t_uint256",
						"label": "mapping(uint256 => struct Table)",
						"numberOfBytes": "32",
						"value": "t_struct(Table)958_storage"
					},
					"t_string_storage": {
						"encoding": "bytes",
						"label": "string",
						"numberOfBytes": "32"
					},
					"t_struct(Table)958_storage": {
						"encoding": "inplace",
						"label": "struct Table",
						"members": [
							{
								"astId": 948,
								"contract": "contracts/manager/TableManager.sol:TableManager",
								"label": "tableId",
								"offset": 0,
								"slot": "0",
								"type": "t_uint256"
							},
							{
								"astId": 950,
								"contract": "contracts/manager/TableManager.sol:TableManager",
								"label": "row",
								"offset": 0,
								"slot": "1",
								"type": "t_uint256"
							},
							{
								"astId": 952,
								"contract": "contracts/manager/TableManager.sol:TableManager",
								"label": "col",
								"offset": 0,
								"slot": "2",
								"type": "t_uint256"
							},
							{
								"astId": 954,
								"contract": "contracts/manager/TableManager.sol:TableManager",
								"label": "qrUrl",
								"offset": 0,
								"slot": "3",
								"type": "t_string_storage"
							},
							{
								"astId": 957,
								"contract": "contracts/manager/TableManager.sol:TableManager",
								"label": "status",
								"offset": 0,
								"slot": "4",
								"type": "t_enum(TableStatus)946"
							}
						],
						"numberOfBytes": "160"
					},
					"t_uint256": {
						"encoding": "inplace",
						"label": "uint256",
						"numberOfBytes": "32"
					}
				}
			},
			"userdoc": {
				"kind": "user",
				"methods": {},
				"version": 1
			}
		}
	}
}