{
	"contracts/manager/FoodManager.sol": {
		"FoodManager": {
			"abi": [
				{
					"inputs": [
						{
							"internalType": "address",
							"name": "_categoryManagerAddress",
							"type": "address"
						}
					],
					"stateMutability": "nonpayable",
					"type": "constructor"
				},
				{
					"anonymous": false,
					"inputs": [
						{
							"indexed": false,
							"internalType": "uint256",
							"name": "foodId",
							"type": "uint256"
						},
						{
							"indexed": false,
							"internalType": "string",
							"name": "name",
							"type": "string"
						},
						{
							"indexed": false,
							"internalType": "string",
							"name": "description",
							"type": "string"
						},
						{
							"indexed": false,
							"internalType": "uint256",
							"name": "categoryId",
							"type": "uint256"
						},
						{
							"indexed": false,
							"internalType": "string[]",
							"name": "imageUrl",
							"type": "string[]"
						}
					],
					"name": "FoodCreated",
					"type": "event"
				},
				{
					"anonymous": false,
					"inputs": [
						{
							"indexed": false,
							"internalType": "uint256",
							"name": "foodId",
							"type": "uint256"
						}
					],
					"name": "FoodDeleted",
					"type": "event"
				},
				{
					"anonymous": false,
					"inputs": [
						{
							"indexed": false,
							"internalType": "uint256",
							"name": "foodId",
							"type": "uint256"
						},
						{
							"indexed": false,
							"internalType": "uint256",
							"name": "foodDetailId",
							"type": "uint256"
						}
					],
					"name": "FoodDetailDeleted",
					"type": "event"
				},
				{
					"anonymous": false,
					"inputs": [
						{
							"indexed": false,
							"internalType": "uint256",
							"name": "foodId",
							"type": "uint256"
						},
						{
							"indexed": false,
							"internalType": "uint256",
							"name": "foodDetailId",
							"type": "uint256"
						}
					],
					"name": "FoodDetailUpdated",
					"type": "event"
				},
				{
					"anonymous": false,
					"inputs": [
						{
							"indexed": false,
							"internalType": "uint256",
							"name": "foodId",
							"type": "uint256"
						}
					],
					"name": "FoodDetailsAdded",
					"type": "event"
				},
				{
					"anonymous": false,
					"inputs": [
						{
							"indexed": false,
							"internalType": "uint256",
							"name": "foodId",
							"type": "uint256"
						},
						{
							"indexed": false,
							"internalType": "string",
							"name": "name",
							"type": "string"
						},
						{
							"indexed": false,
							"internalType": "string",
							"name": "description",
							"type": "string"
						},
						{
							"indexed": false,
							"internalType": "uint256",
							"name": "categoryId",
							"type": "uint256"
						},
						{
							"indexed": false,
							"internalType": "string[]",
							"name": "imageUrl",
							"type": "string[]"
						}
					],
					"name": "FoodUpdated",
					"type": "event"
				},
				{
					"inputs": [
						{
							"internalType": "address",
							"name": "_admin",
							"type": "address"
						}
					],
					"name": "addAdmin",
					"outputs": [],
					"stateMutability": "nonpayable",
					"type": "function"
				},
				{
					"inputs": [
						{
							"internalType": "uint256",
							"name": "foodId",
							"type": "uint256"
						},
						{
							"components": [
								{
									"internalType": "string",
									"name": "size",
									"type": "string"
								},
								{
									"internalType": "uint256",
									"name": "quantity",
									"type": "uint256"
								},
								{
									"internalType": "uint256",
									"name": "price",
									"type": "uint256"
								}
							],
							"internalType": "struct UpdateFoodDetail[]",
							"name": "details",
							"type": "tuple[]"
						}
					],
					"name": "addFoodDetails",
					"outputs": [],
					"stateMutability": "nonpayable",
					"type": "function"
				},
				{
					"inputs": [],
					"name": "categoryManager",
					"outputs": [
						{
							"internalType": "contract ICategoryManager",
							"name": "",
							"type": "address"
						}
					],
					"stateMutability": "view",
					"type": "function"
				},
				{
					"inputs": [
						{
							"internalType": "uint256",
							"name": "_foodId",
							"type": "uint256"
						},
						{
							"internalType": "string",
							"name": "_name",
							"type": "string"
						},
						{
							"internalType": "string",
							"name": "_description",
							"type": "string"
						},
						{
							"internalType": "uint256",
							"name": "_categoryId",
							"type": "uint256"
						},
						{
							"internalType": "string[]",
							"name": "_imageUrl",
							"type": "string[]"
						},
						{
							"components": [
								{
									"internalType": "string",
									"name": "size",
									"type": "string"
								},
								{
									"internalType": "uint256",
									"name": "quantity",
									"type": "uint256"
								},
								{
									"internalType": "uint256",
									"name": "price",
									"type": "uint256"
								}
							],
							"internalType": "struct UpdateFoodDetail[]",
							"name": "_foodDetail",
							"type": "tuple[]"
						}
					],
					"name": "createFood",
					"outputs": [],
					"stateMutability": "nonpayable",
					"type": "function"
				},
				{
					"inputs": [
						{
							"internalType": "uint256",
							"name": "foodId",
							"type": "uint256"
						}
					],
					"name": "deleteFood",
					"outputs": [],
					"stateMutability": "nonpayable",
					"type": "function"
				},
				{
					"inputs": [
						{
							"internalType": "uint256",
							"name": "foodId",
							"type": "uint256"
						},
						{
							"internalType": "uint256",
							"name": "foodDetailId",
							"type": "uint256"
						}
					],
					"name": "deleteFoodDetail",
					"outputs": [],
					"stateMutability": "nonpayable",
					"type": "function"
				},
				{
					"inputs": [],
					"name": "getAllFoods",
					"outputs": [
						{
							"components": [
								{
									"components": [
										{
											"internalType": "uint256",
											"name": "foodId",
											"type": "uint256"
										},
										{
											"internalType": "string",
											"name": "name",
											"type": "string"
										},
										{
											"internalType": "string",
											"name": "description",
											"type": "string"
										},
										{
											"internalType": "uint256",
											"name": "categoryId",
											"type": "uint256"
										},
										{
											"internalType": "string[]",
											"name": "imageUrl",
											"type": "string[]"
										},
										{
											"internalType": "uint256",
											"name": "sumRating",
											"type": "uint256"
										},
										{
											"internalType": "uint256",
											"name": "countRating",
											"type": "uint256"
										}
									],
									"internalType": "struct Food",
									"name": "food",
									"type": "tuple"
								},
								{
									"components": [
										{
											"internalType": "uint256",
											"name": "foodDetailId",
											"type": "uint256"
										},
										{
											"internalType": "string",
											"name": "size",
											"type": "string"
										},
										{
											"internalType": "uint256",
											"name": "quantity",
											"type": "uint256"
										},
										{
											"internalType": "uint256",
											"name": "price",
											"type": "uint256"
										}
									],
									"internalType": "struct FoodDetail[]",
									"name": "foodDetails",
									"type": "tuple[]"
								}
							],
							"internalType": "struct FoodWithDetails[]",
							"name": "",
							"type": "tuple[]"
						}
					],
					"stateMutability": "view",
					"type": "function"
				},
				{
					"inputs": [
						{
							"internalType": "uint256",
							"name": "foodId",
							"type": "uint256"
						}
					],
					"name": "getFood",
					"outputs": [
						{
							"components": [
								{
									"internalType": "uint256",
									"name": "foodId",
									"type": "uint256"
								},
								{
									"internalType": "string",
									"name": "name",
									"type": "string"
								},
								{
									"internalType": "string",
									"name": "description",
									"type": "string"
								},
								{
									"internalType": "uint256",
									"name": "categoryId",
									"type": "uint256"
								},
								{
									"internalType": "string[]",
									"name": "imageUrl",
									"type": "string[]"
								},
								{
									"internalType": "uint256",
									"name": "sumRating",
									"type": "uint256"
								},
								{
									"internalType": "uint256",
									"name": "countRating",
									"type": "uint256"
								}
							],
							"internalType": "struct Food",
							"name": "",
							"type": "tuple"
						}
					],
					"stateMutability": "view",
					"type": "function"
				},
				{
					"inputs": [
						{
							"internalType": "uint256",
							"name": "foodId",
							"type": "uint256"
						}
					],
					"name": "getFoodDetails",
					"outputs": [
						{
							"components": [
								{
									"internalType": "uint256",
									"name": "foodDetailId",
									"type": "uint256"
								},
								{
									"internalType": "string",
									"name": "size",
									"type": "string"
								},
								{
									"internalType": "uint256",
									"name": "quantity",
									"type": "uint256"
								},
								{
									"internalType": "uint256",
									"name": "price",
									"type": "uint256"
								}
							],
							"internalType": "struct FoodDetail[]",
							"name": "",
							"type": "tuple[]"
						}
					],
					"stateMutability": "view",
					"type": "function"
				},
				{
					"inputs": [],
					"name": "getOwner",
					"outputs": [
						{
							"internalType": "address",
							"name": "",
							"type": "address"
						}
					],
					"stateMutability": "view",
					"type": "function"
				},
				{
					"inputs": [
						{
							"internalType": "uint256",
							"name": "_foodId",
							"type": "uint256"
						},
						{
							"internalType": "uint256",
							"name": "foodDetailId",
							"type": "uint256"
						},
						{
							"internalType": "uint256",
							"name": "_quantity",
							"type": "uint256"
						}
					],
					"name": "increaseQuantiy",
					"outputs": [],
					"stateMutability": "nonpayable",
					"type": "function"
				},
				{
					"inputs": [
						{
							"internalType": "address",
							"name": "",
							"type": "address"
						}
					],
					"name": "isAdmin",
					"outputs": [
						{
							"internalType": "enum RoleAccess.Role",
							"name": "",
							"type": "uint8"
						}
					],
					"stateMutability": "view",
					"type": "function"
				},
				{
					"inputs": [],
					"name": "nextFoodDetailId",
					"outputs": [
						{
							"internalType": "uint256",
							"name": "",
							"type": "uint256"
						}
					],
					"stateMutability": "view",
					"type": "function"
				},
				{
					"inputs": [],
					"name": "nextFoodId",
					"outputs": [
						{
							"internalType": "uint256",
							"name": "",
							"type": "uint256"
						}
					],
					"stateMutability": "view",
					"type": "function"
				},
				{
					"inputs": [
						{
							"internalType": "uint256",
							"name": "_foodId",
							"type": "uint256"
						},
						{
							"internalType": "uint256",
							"name": "foodDetailId",
							"type": "uint256"
						},
						{
							"internalType": "uint256",
							"name": "_quantity",
							"type": "uint256"
						}
					],
					"name": "reduceQuantiy",
					"outputs": [],
					"stateMutability": "nonpayable",
					"type": "function"
				},
				{
					"inputs": [
						{
							"internalType": "address",
							"name": "_admin",
							"type": "address"
						}
					],
					"name": "removeAdmin",
					"outputs": [],
					"stateMutability": "nonpayable",
					"type": "function"
				},
				{
					"inputs": [
						{
							"internalType": "uint256",
							"name": "_foodId",
							"type": "uint256"
						},
						{
							"internalType": "string",
							"name": "_name",
							"type": "string"
						},
						{
							"internalType": "string",
							"name": "_description",
							"type": "string"
						},
						{
							"internalType": "uint256",
							"name": "_categoryId",
							"type": "uint256"
						},
						{
							"internalType": "string[]",
							"name": "_imageUrl",
							"type": "string[]"
						}
					],
					"name": "updateFood",
					"outputs": [],
					"stateMutability": "nonpayable",
					"type": "function"
				},
				{
					"inputs": [
						{
							"internalType": "uint256",
							"name": "foodId",
							"type": "uint256"
						},
						{
							"internalType": "uint256",
							"name": "foodDetailId",
							"type": "uint256"
						},
						{
							"components": [
								{
									"internalType": "string",
									"name": "size",
									"type": "string"
								},
								{
									"internalType": "uint256",
									"name": "quantity",
									"type": "uint256"
								},
								{
									"internalType": "uint256",
									"name": "price",
									"type": "uint256"
								}
							],
							"internalType": "struct UpdateFoodDetail",
							"name": "newDetail",
							"type": "tuple"
						}
					],
					"name": "updateFoodDetail",
					"outputs": [],
					"stateMutability": "nonpayable",
					"type": "function"
				}
			],
			"devdoc": {
				"kind": "dev",
				"methods": {},
				"version": 1
			},
			"evm": {
				"assembly": "    /* \"contracts/manager/FoodManager.sol\":216:7617  contract FoodManager is IFoodManager, RoleAccess {... */\n  mstore(0x40, 0x80)\n    /* \"contracts/manager/FoodManager.sol\":345:346  1 */\n  0x01\n    /* \"contracts/manager/FoodManager.sol\":317:346  uint256 public nextFoodId = 1 */\n  0x03\n  sstore\n    /* \"contracts/manager/FoodManager.sol\":386:387  1 */\n  0x01\n    /* \"contracts/manager/FoodManager.sol\":352:387  uint256 public nextFoodDetailId = 1 */\n  0x04\n  sstore\n    /* \"contracts/manager/FoodManager.sol\":527:680  constructor(address _categoryManagerAddress) {... */\n  callvalue\n  dup1\n  iszero\n  tag_1\n  jumpi\n  revert(0x00, 0x00)\ntag_1:\n  pop\n  mload(0x40)\n  sub(codesize, bytecodeSize)\n  dup1\n  bytecodeSize\n  dup4\n  codecopy\n  dup2\n  dup2\n  add\n  0x40\n  mstore\n  dup2\n  add\n  swap1\n  tag_2\n  swap2\n  swap1\n  tag_3\n  jump\t// in\ntag_2:\n    /* \"contracts/access/RoleAccess.sol\":512:522  msg.sender */\n  caller\n    /* \"contracts/access/RoleAccess.sol\":505:510  owner */\n  0x00\n  0x00\n    /* \"contracts/access/RoleAccess.sol\":505:522  owner =msg.sender */\n  0x0100\n  exp\n  dup2\n  sload\n  dup2\n  0xffffffffffffffffffffffffffffffffffffffff\n  mul\n  not\n  and\n  swap1\n  dup4\n  0xffffffffffffffffffffffffffffffffffffffff\n  and\n  mul\n  or\n  swap1\n  sstore\n  pop\n    /* \"contracts/manager/FoodManager.sol\":617:640  _categoryManagerAddress */\n  dup1\n    /* \"contracts/manager/FoodManager.sol\":582:597  categoryManager */\n  0x02\n  0x00\n    /* \"contracts/manager/FoodManager.sol\":582:641  categoryManager = ICategoryManager(_categoryManagerAddress) */\n  0x0100\n  exp\n  dup2\n  sload\n  dup2\n  0xffffffffffffffffffffffffffffffffffffffff\n  mul\n  not\n  and\n  swap1\n  dup4\n  0xffffffffffffffffffffffffffffffffffffffff\n  and\n  mul\n  or\n  swap1\n  sstore\n  pop\n    /* \"contracts/manager/FoodManager.sol\":527:680  constructor(address _categoryManagerAddress) {... */\n  pop\n    /* \"contracts/manager/FoodManager.sol\":216:7617  contract FoodManager is IFoodManager, RoleAccess {... */\n  jump(tag_8)\n    /* \"#utility.yul\":88:205   */\ntag_10:\n    /* \"#utility.yul\":197:198   */\n  0x00\n    /* \"#utility.yul\":194:195   */\n  0x00\n    /* \"#utility.yul\":187:199   */\n  revert\n    /* \"#utility.yul\":334:460   */\ntag_12:\n    /* \"#utility.yul\":371:378   */\n  0x00\n    /* \"#utility.yul\":411:453   */\n  0xffffffffffffffffffffffffffffffffffffffff\n    /* \"#utility.yul\":404:409   */\n  dup3\n    /* \"#utility.yul\":400:454   */\n  and\n    /* \"#utility.yul\":389:454   */\n  swap1\n  pop\n    /* \"#utility.yul\":334:460   */\n  swap2\n  swap1\n  pop\n  jump\t// out\n    /* \"#utility.yul\":466:562   */\ntag_13:\n    /* \"#utility.yul\":503:510   */\n  0x00\n    /* \"#utility.yul\":532:556   */\n  tag_22\n    /* \"#utility.yul\":550:555   */\n  dup3\n    /* \"#utility.yul\":532:556   */\n  tag_12\n  jump\t// in\ntag_22:\n    /* \"#utility.yul\":521:556   */\n  swap1\n  pop\n    /* \"#utility.yul\":466:562   */\n  swap2\n  swap1\n  pop\n  jump\t// out\n    /* \"#utility.yul\":568:690   */\ntag_14:\n    /* \"#utility.yul\":641:665   */\n  tag_24\n    /* \"#utility.yul\":659:664   */\n  dup2\n    /* \"#utility.yul\":641:665   */\n  tag_13\n  jump\t// in\ntag_24:\n    /* \"#utility.yul\":634:639   */\n  dup2\n    /* \"#utility.yul\":631:666   */\n  eq\n    /* \"#utility.yul\":621:684   */\n  tag_25\n  jumpi\n    /* \"#utility.yul\":680:681   */\n  0x00\n    /* \"#utility.yul\":677:678   */\n  0x00\n    /* \"#utility.yul\":670:682   */\n  revert\n    /* \"#utility.yul\":621:684   */\ntag_25:\n    /* \"#utility.yul\":568:690   */\n  pop\n  jump\t// out\n    /* \"#utility.yul\":696:839   */\ntag_15:\n    /* \"#utility.yul\":753:758   */\n  0x00\n    /* \"#utility.yul\":784:790   */\n  dup2\n    /* \"#utility.yul\":778:791   */\n  mload\n    /* \"#utility.yul\":769:791   */\n  swap1\n  pop\n    /* \"#utility.yul\":800:833   */\n  tag_27\n    /* \"#utility.yul\":827:832   */\n  dup2\n    /* \"#utility.yul\":800:833   */\n  tag_14\n  jump\t// in\ntag_27:\n    /* \"#utility.yul\":696:839   */\n  swap3\n  swap2\n  pop\n  pop\n  jump\t// out\n    /* \"#utility.yul\":845:1196   */\ntag_3:\n    /* \"#utility.yul\":915:921   */\n  0x00\n    /* \"#utility.yul\":964:966   */\n  0x20\n    /* \"#utility.yul\":952:961   */\n  dup3\n    /* \"#utility.yul\":943:950   */\n  dup5\n    /* \"#utility.yul\":939:962   */\n  sub\n    /* \"#utility.yul\":935:967   */\n  slt\n    /* \"#utility.yul\":932:1051   */\n  iszero\n  tag_29\n  jumpi\n    /* \"#utility.yul\":970:1049   */\n  tag_30\n  tag_10\n  jump\t// in\ntag_30:\n    /* \"#utility.yul\":932:1051   */\ntag_29:\n    /* \"#utility.yul\":1090:1091   */\n  0x00\n    /* \"#utility.yul\":1115:1179   */\n  tag_31\n    /* \"#utility.yul\":1171:1178   */\n  dup5\n    /* \"#utility.yul\":1162:1168   */\n  dup3\n    /* \"#utility.yul\":1151:1160   */\n  dup6\n    /* \"#utility.yul\":1147:1169   */\n  add\n    /* \"#utility.yul\":1115:1179   */\n  tag_15\n  jump\t// in\ntag_31:\n    /* \"#utility.yul\":1105:1179   */\n  swap2\n  pop\n    /* \"#utility.yul\":1061:1189   */\n  pop\n    /* \"#utility.yul\":845:1196   */\n  swap3\n  swap2\n  pop\n  pop\n  jump\t// out\n    /* \"contracts/manager/FoodManager.sol\":216:7617  contract FoodManager is IFoodManager, RoleAccess {... */\ntag_8:\n  dataSize(sub_0)\n  dup1\n  dataOffset(sub_0)\n  0x00\n  codecopy\n  0x00\n  return\nstop\n\nsub_0: assembly {\n        /* \"contracts/manager/FoodManager.sol\":216:7617  contract FoodManager is IFoodManager, RoleAccess {... */\n      mstore(0x40, 0x80)\n      callvalue\n      dup1\n      iszero\n      tag_1\n      jumpi\n      revert(0x00, 0x00)\n    tag_1:\n      pop\n      jumpi(tag_2, lt(calldatasize, 0x04))\n      shr(0xe0, calldataload(0x00))\n      dup1\n      0x70480275\n      gt\n      tag_21\n      jumpi\n      dup1\n      0xb447aaae\n      gt\n      tag_22\n      jumpi\n      dup1\n      0xb447aaae\n      eq\n      tag_16\n      jumpi\n      dup1\n      0xb9b5aae6\n      eq\n      tag_17\n      jumpi\n      dup1\n      0xbaf85306\n      eq\n      tag_18\n      jumpi\n      dup1\n      0xd198b650\n      eq\n      tag_19\n      jumpi\n      dup1\n      0xd86ec238\n      eq\n      tag_20\n      jumpi\n      jump(tag_2)\n    tag_22:\n      dup1\n      0x70480275\n      eq\n      tag_12\n      jumpi\n      dup1\n      0x893d20e8\n      eq\n      tag_13\n      jumpi\n      dup1\n      0x9a69bfa6\n      eq\n      tag_14\n      jumpi\n      dup1\n      0xaf5607f9\n      eq\n      tag_15\n      jumpi\n      jump(tag_2)\n    tag_21:\n      dup1\n      0x1e4de872\n      gt\n      tag_23\n      jumpi\n      dup1\n      0x1e4de872\n      eq\n      tag_7\n      jumpi\n      dup1\n      0x24d7806c\n      eq\n      tag_8\n      jumpi\n      dup1\n      0x4d30a39b\n      eq\n      tag_9\n      jumpi\n      dup1\n      0x64f77471\n      eq\n      tag_10\n      jumpi\n      dup1\n      0x6dd2dd88\n      eq\n      tag_11\n      jumpi\n      jump(tag_2)\n    tag_23:\n      dup1\n      0x094b9a53\n      eq\n      tag_3\n      jumpi\n      dup1\n      0x1785f53c\n      eq\n      tag_4\n      jumpi\n      dup1\n      0x1945ef58\n      eq\n      tag_5\n      jumpi\n      dup1\n      0x1b0d77cc\n      eq\n      tag_6\n      jumpi\n    tag_2:\n      revert(0x00, 0x00)\n        /* \"contracts/manager/FoodManager.sol\":7271:7615  function increaseQuantiy (uint _foodId,uint foodDetailId,uint _quantity) external override {... */\n    tag_3:\n      tag_24\n      0x04\n      dup1\n      calldatasize\n      sub\n      dup2\n      add\n      swap1\n      tag_25\n      swap2\n      swap1\n      tag_26\n      jump\t// in\n    tag_25:\n      tag_27\n      jump\t// in\n    tag_24:\n      stop\n        /* \"contracts/access/RoleAccess.sol\":789:881  function removeAdmin(address _admin) external {... */\n    tag_4:\n      tag_28\n      0x04\n      dup1\n      calldatasize\n      sub\n      dup2\n      add\n      swap1\n      tag_29\n      swap2\n      swap1\n      tag_30\n      jump\t// in\n    tag_29:\n      tag_31\n      jump\t// in\n    tag_28:\n      stop\n        /* \"contracts/manager/FoodManager.sol\":317:346  uint256 public nextFoodId = 1 */\n    tag_5:\n      tag_32\n      tag_33\n      jump\t// in\n    tag_32:\n      mload(0x40)\n      tag_34\n      swap2\n      swap1\n      tag_35\n      jump\t// in\n    tag_34:\n      mload(0x40)\n      dup1\n      swap2\n      sub\n      swap1\n      return\n        /* \"contracts/manager/FoodManager.sol\":352:387  uint256 public nextFoodDetailId = 1 */\n    tag_6:\n      tag_36\n      tag_37\n      jump\t// in\n    tag_36:\n      mload(0x40)\n      tag_38\n      swap2\n      swap1\n      tag_35\n      jump\t// in\n    tag_38:\n      mload(0x40)\n      dup1\n      swap2\n      sub\n      swap1\n      return\n        /* \"contracts/manager/FoodManager.sol\":6073:6291  function getFood(uint256 foodId)... */\n    tag_7:\n      tag_39\n      0x04\n      dup1\n      calldatasize\n      sub\n      dup2\n      add\n      swap1\n      tag_40\n      swap2\n      swap1\n      tag_41\n      jump\t// in\n    tag_40:\n      tag_42\n      jump\t// in\n    tag_39:\n      mload(0x40)\n      tag_43\n      swap2\n      swap1\n      tag_44\n      jump\t// in\n    tag_43:\n      mload(0x40)\n      dup1\n      swap2\n      sub\n      swap1\n      return\n        /* \"contracts/access/RoleAccess.sol\":180:219  mapping(address => Role) public isAdmin */\n    tag_8:\n      tag_45\n      0x04\n      dup1\n      calldatasize\n      sub\n      dup2\n      add\n      swap1\n      tag_46\n      swap2\n      swap1\n      tag_30\n      jump\t// in\n    tag_46:\n      tag_47\n      jump\t// in\n    tag_45:\n      mload(0x40)\n      tag_48\n      swap2\n      swap1\n      tag_49\n      jump\t// in\n    tag_48:\n      mload(0x40)\n      dup1\n      swap2\n      sub\n      swap1\n      return\n        /* \"contracts/manager/FoodManager.sol\":5008:5810  function deleteFoodDetail(uint256 foodId, uint256 foodDetailId)... */\n    tag_9:\n      tag_50\n      0x04\n      dup1\n      calldatasize\n      sub\n      dup2\n      add\n      swap1\n      tag_51\n      swap2\n      swap1\n      tag_52\n      jump\t// in\n    tag_51:\n      tag_53\n      jump\t// in\n    tag_50:\n      stop\n        /* \"contracts/manager/FoodManager.sol\":3533:4179  function addFoodDetails(uint256 foodId, UpdateFoodDetail[] memory details)... */\n    tag_10:\n      tag_54\n      0x04\n      dup1\n      calldatasize\n      sub\n      dup2\n      add\n      swap1\n      tag_55\n      swap2\n      swap1\n      tag_56\n      jump\t// in\n    tag_55:\n      tag_57\n      jump\t// in\n    tag_54:\n      stop\n        /* \"contracts/manager/FoodManager.sol\":2269:2942  function updateFood(... */\n    tag_11:\n      tag_58\n      0x04\n      dup1\n      calldatasize\n      sub\n      dup2\n      add\n      swap1\n      tag_59\n      swap2\n      swap1\n      tag_60\n      jump\t// in\n    tag_59:\n      tag_61\n      jump\t// in\n    tag_58:\n      stop\n        /* \"contracts/access/RoleAccess.sol\":625:781  function addAdmin(address _admin) external virtual  {... */\n    tag_12:\n      tag_62\n      0x04\n      dup1\n      calldatasize\n      sub\n      dup2\n      add\n      swap1\n      tag_63\n      swap2\n      swap1\n      tag_30\n      jump\t// in\n    tag_63:\n      tag_64\n      jump\t// in\n    tag_62:\n      stop\n        /* \"contracts/access/RoleAccess.sol\":537:619  function getOwner () public  view returns (address){... */\n    tag_13:\n      tag_65\n      tag_66\n      jump\t// in\n    tag_65:\n      mload(0x40)\n      tag_67\n      swap2\n      swap1\n      tag_68\n      jump\t// in\n    tag_67:\n      mload(0x40)\n      dup1\n      swap2\n      sub\n      swap1\n      return\n        /* \"contracts/manager/FoodManager.sol\":6809:7266  function reduceQuantiy (uint _foodId,uint foodDetailId,uint _quantity) external override {... */\n    tag_14:\n      tag_69\n      0x04\n      dup1\n      calldatasize\n      sub\n      dup2\n      add\n      swap1\n      tag_70\n      swap2\n      swap1\n      tag_26\n      jump\t// in\n    tag_70:\n      tag_71\n      jump\t// in\n    tag_69:\n      stop\n        /* \"contracts/manager/FoodManager.sol\":5828:6067  function getFoodDetails(uint256 foodId)... */\n    tag_15:\n      tag_72\n      0x04\n      dup1\n      calldatasize\n      sub\n      dup2\n      add\n      swap1\n      tag_73\n      swap2\n      swap1\n      tag_41\n      jump\t// in\n    tag_73:\n      tag_74\n      jump\t// in\n    tag_72:\n      mload(0x40)\n      tag_75\n      swap2\n      swap1\n      tag_76\n      jump\t// in\n    tag_75:\n      mload(0x40)\n      dup1\n      swap2\n      sub\n      swap1\n      return\n        /* \"contracts/manager/FoodManager.sol\":686:2263  function createFood(... */\n    tag_16:\n      tag_77\n      0x04\n      dup1\n      calldatasize\n      sub\n      dup2\n      add\n      swap1\n      tag_78\n      swap2\n      swap1\n      tag_79\n      jump\t// in\n    tag_78:\n      tag_80\n      jump\t// in\n    tag_77:\n      stop\n        /* \"contracts/manager/FoodManager.sol\":6297:6803  function getAllFoods()... */\n    tag_17:\n      tag_81\n      tag_82\n      jump\t// in\n    tag_81:\n      mload(0x40)\n      tag_83\n      swap2\n      swap1\n      tag_84\n      jump\t// in\n    tag_83:\n      mload(0x40)\n      dup1\n      swap2\n      sub\n      swap1\n      return\n        /* \"contracts/manager/FoodManager.sol\":4185:5002  function updateFoodDetail(... */\n    tag_18:\n      tag_85\n      0x04\n      dup1\n      calldatasize\n      sub\n      dup2\n      add\n      swap1\n      tag_86\n      swap2\n      swap1\n      tag_87\n      jump\t// in\n    tag_86:\n      tag_88\n      jump\t// in\n    tag_85:\n      stop\n        /* \"contracts/manager/FoodManager.sol\":2948:3491  function deleteFood(uint256 foodId) external override {... */\n    tag_19:\n      tag_89\n      0x04\n      dup1\n      calldatasize\n      sub\n      dup2\n      add\n      swap1\n      tag_90\n      swap2\n      swap1\n      tag_41\n      jump\t// in\n    tag_90:\n      tag_91\n      jump\t// in\n    tag_89:\n      stop\n        /* \"contracts/manager/FoodManager.sol\":271:310  ICategoryManager public categoryManager */\n    tag_20:\n      tag_92\n      tag_93\n      jump\t// in\n    tag_92:\n      mload(0x40)\n      tag_94\n      swap2\n      swap1\n      tag_95\n      jump\t// in\n    tag_94:\n      mload(0x40)\n      dup1\n      swap2\n      sub\n      swap1\n      return\n        /* \"contracts/manager/FoodManager.sol\":7271:7615  function increaseQuantiy (uint _foodId,uint foodDetailId,uint _quantity) external override {... */\n    tag_27:\n        /* \"contracts/manager/FoodManager.sol\":7376:7382  uint i */\n      0x00\n        /* \"contracts/manager/FoodManager.sol\":7385:7386  0 */\n      0x00\n        /* \"contracts/manager/FoodManager.sol\":7376:7386  uint i = 0 */\n      swap1\n      pop\n        /* \"contracts/manager/FoodManager.sol\":7372:7608  for(uint i = 0;  i< foodDetails[_foodId].length ; i++ ){... */\n    tag_97:\n        /* \"contracts/manager/FoodManager.sol\":7392:7403  foodDetails */\n      0x06\n        /* \"contracts/manager/FoodManager.sol\":7392:7412  foodDetails[_foodId] */\n      0x00\n        /* \"contracts/manager/FoodManager.sol\":7404:7411  _foodId */\n      dup6\n        /* \"contracts/manager/FoodManager.sol\":7392:7412  foodDetails[_foodId] */\n      dup2\n      mstore\n      0x20\n      add\n      swap1\n      dup2\n      mstore\n      0x20\n      add\n      0x00\n      keccak256\n        /* \"contracts/manager/FoodManager.sol\":7392:7419  foodDetails[_foodId].length */\n      dup1\n      sload\n      swap1\n      pop\n        /* \"contracts/manager/FoodManager.sol\":7389:7390  i */\n      dup2\n        /* \"contracts/manager/FoodManager.sol\":7389:7419  i< foodDetails[_foodId].length */\n      lt\n        /* \"contracts/manager/FoodManager.sol\":7372:7608  for(uint i = 0;  i< foodDetails[_foodId].length ; i++ ){... */\n      iszero\n      tag_98\n      jumpi\n        /* \"contracts/manager/FoodManager.sol\":7484:7496  foodDetailId */\n      dup3\n        /* \"contracts/manager/FoodManager.sol\":7444:7455  foodDetails */\n      0x06\n        /* \"contracts/manager/FoodManager.sol\":7444:7464  foodDetails[_foodId] */\n      0x00\n        /* \"contracts/manager/FoodManager.sol\":7456:7463  _foodId */\n      dup7\n        /* \"contracts/manager/FoodManager.sol\":7444:7464  foodDetails[_foodId] */\n      dup2\n      mstore\n      0x20\n      add\n      swap1\n      dup2\n      mstore\n      0x20\n      add\n      0x00\n      keccak256\n        /* \"contracts/manager/FoodManager.sol\":7465:7466  i */\n      dup3\n        /* \"contracts/manager/FoodManager.sol\":7444:7467  foodDetails[_foodId][i] */\n      dup2\n      sload\n      dup2\n      lt\n      tag_100\n      jumpi\n      tag_101\n      tag_102\n      jump\t// in\n    tag_101:\n    tag_100:\n      swap1\n      0x00\n      mstore\n      keccak256(0x00, 0x20)\n      swap1\n      0x04\n      mul\n      add\n        /* \"contracts/manager/FoodManager.sol\":7444:7480  foodDetails[_foodId][i].foodDetailId */\n      0x00\n      add\n      sload\n        /* \"contracts/manager/FoodManager.sol\":7444:7496  foodDetails[_foodId][i].foodDetailId == foodDetailId */\n      sub\n        /* \"contracts/manager/FoodManager.sol\":7441:7598  if(foodDetails[_foodId][i].foodDetailId == foodDetailId){... */\n      tag_104\n      jumpi\n        /* \"contracts/manager/FoodManager.sol\":7551:7560  _quantity */\n      dup2\n        /* \"contracts/manager/FoodManager.sol\":7515:7526  foodDetails */\n      0x06\n        /* \"contracts/manager/FoodManager.sol\":7515:7535  foodDetails[_foodId] */\n      0x00\n        /* \"contracts/manager/FoodManager.sol\":7527:7534  _foodId */\n      dup7\n        /* \"contracts/manager/FoodManager.sol\":7515:7535  foodDetails[_foodId] */\n      dup2\n      mstore\n      0x20\n      add\n      swap1\n      dup2\n      mstore\n      0x20\n      add\n      0x00\n      keccak256\n        /* \"contracts/manager/FoodManager.sol\":7536:7537  i */\n      dup3\n        /* \"contracts/manager/FoodManager.sol\":7515:7538  foodDetails[_foodId][i] */\n      dup2\n      sload\n      dup2\n      lt\n      tag_105\n      jumpi\n      tag_106\n      tag_102\n      jump\t// in\n    tag_106:\n    tag_105:\n      swap1\n      0x00\n      mstore\n      keccak256(0x00, 0x20)\n      swap1\n      0x04\n      mul\n      add\n        /* \"contracts/manager/FoodManager.sol\":7515:7547  foodDetails[_foodId][i].quantity */\n      0x02\n      add\n      0x00\n        /* \"contracts/manager/FoodManager.sol\":7515:7560  foodDetails[_foodId][i].quantity += _quantity */\n      dup3\n      dup3\n      sload\n      tag_108\n      swap2\n      swap1\n      tag_109\n      jump\t// in\n    tag_108:\n      swap3\n      pop\n      pop\n      dup2\n      swap1\n      sstore\n      pop\n        /* \"contracts/manager/FoodManager.sol\":7578:7583  break */\n      jump(tag_98)\n        /* \"contracts/manager/FoodManager.sol\":7441:7598  if(foodDetails[_foodId][i].foodDetailId == foodDetailId){... */\n    tag_104:\n        /* \"contracts/manager/FoodManager.sol\":7422:7425  i++ */\n      dup1\n      dup1\n      0x01\n      add\n      swap2\n      pop\n      pop\n        /* \"contracts/manager/FoodManager.sol\":7372:7608  for(uint i = 0;  i< foodDetails[_foodId].length ; i++ ){... */\n      jump(tag_97)\n    tag_98:\n      pop\n        /* \"contracts/manager/FoodManager.sol\":7271:7615  function increaseQuantiy (uint _foodId,uint foodDetailId,uint _quantity) external override {... */\n      pop\n      pop\n      pop\n      jump\t// out\n        /* \"contracts/access/RoleAccess.sol\":789:881  function removeAdmin(address _admin) external {... */\n    tag_31:\n        /* \"contracts/access/RoleAccess.sol\":864:873  Role.NONE */\n      0x00\n        /* \"contracts/access/RoleAccess.sol\":846:853  isAdmin */\n      0x01\n        /* \"contracts/access/RoleAccess.sol\":846:861  isAdmin[_admin] */\n      0x00\n        /* \"contracts/access/RoleAccess.sol\":854:860  _admin */\n      dup4\n        /* \"contracts/access/RoleAccess.sol\":846:861  isAdmin[_admin] */\n      0xffffffffffffffffffffffffffffffffffffffff\n      and\n      0xffffffffffffffffffffffffffffffffffffffff\n      and\n      dup2\n      mstore\n      0x20\n      add\n      swap1\n      dup2\n      mstore\n      0x20\n      add\n      0x00\n      keccak256\n      0x00\n        /* \"contracts/access/RoleAccess.sol\":846:873  isAdmin[_admin] = Role.NONE */\n      0x0100\n      exp\n      dup2\n      sload\n      dup2\n      0xff\n      mul\n      not\n      and\n      swap1\n      dup4\n      0x02\n      dup2\n      gt\n      iszero\n      tag_111\n      jumpi\n      tag_112\n      tag_113\n      jump\t// in\n    tag_112:\n    tag_111:\n      mul\n      or\n      swap1\n      sstore\n      pop\n        /* \"contracts/access/RoleAccess.sol\":789:881  function removeAdmin(address _admin) external {... */\n      pop\n      jump\t// out\n        /* \"contracts/manager/FoodManager.sol\":317:346  uint256 public nextFoodId = 1 */\n    tag_33:\n      sload(0x03)\n      dup2\n      jump\t// out\n        /* \"contracts/manager/FoodManager.sol\":352:387  uint256 public nextFoodDetailId = 1 */\n    tag_37:\n      sload(0x04)\n      dup2\n      jump\t// out\n        /* \"contracts/manager/FoodManager.sol\":6073:6291  function getFood(uint256 foodId)... */\n    tag_42:\n        /* \"contracts/manager/FoodManager.sol\":6170:6181  Food memory */\n      tag_114\n      tag_115\n      jump\t// in\n    tag_114:\n        /* \"contracts/manager/FoodManager.sol\":6229:6230  0 */\n      0x00\n        /* \"contracts/manager/FoodManager.sol\":6205:6210  foods */\n      0x05\n        /* \"contracts/manager/FoodManager.sol\":6205:6218  foods[foodId] */\n      0x00\n        /* \"contracts/manager/FoodManager.sol\":6211:6217  foodId */\n      dup5\n        /* \"contracts/manager/FoodManager.sol\":6205:6218  foods[foodId] */\n      dup2\n      mstore\n      0x20\n      add\n      swap1\n      dup2\n      mstore\n      0x20\n      add\n      0x00\n      keccak256\n        /* \"contracts/manager/FoodManager.sol\":6205:6225  foods[foodId].foodId */\n      0x00\n      add\n      sload\n        /* \"contracts/manager/FoodManager.sol\":6205:6230  foods[foodId].foodId != 0 */\n      sub\n        /* \"contracts/manager/FoodManager.sol\":6197:6254  require(foods[foodId].foodId != 0, \"Food does not exist\") */\n      tag_117\n      jumpi\n      mload(0x40)\n      0x08c379a000000000000000000000000000000000000000000000000000000000\n      dup2\n      mstore\n      0x04\n      add\n      tag_118\n      swap1\n      tag_119\n      jump\t// in\n    tag_118:\n      mload(0x40)\n      dup1\n      swap2\n      sub\n      swap1\n      revert\n    tag_117:\n        /* \"contracts/manager/FoodManager.sol\":6271:6276  foods */\n      0x05\n        /* \"contracts/manager/FoodManager.sol\":6271:6284  foods[foodId] */\n      0x00\n        /* \"contracts/manager/FoodManager.sol\":6277:6283  foodId */\n      dup4\n        /* \"contracts/manager/FoodManager.sol\":6271:6284  foods[foodId] */\n      dup2\n      mstore\n      0x20\n      add\n      swap1\n      dup2\n      mstore\n      0x20\n      add\n      0x00\n      keccak256\n        /* \"contracts/manager/FoodManager.sol\":6264:6284  return foods[foodId] */\n      mload(0x40)\n      dup1\n      0xe0\n      add\n      0x40\n      mstore\n      swap1\n      dup2\n      0x00\n      dup3\n      add\n      sload\n      dup2\n      mstore\n      0x20\n      add\n      0x01\n      dup3\n      add\n      dup1\n      sload\n      tag_120\n      swap1\n      tag_121\n      jump\t// in\n    tag_120:\n      dup1\n      0x1f\n      add\n      0x20\n      dup1\n      swap2\n      div\n      mul\n      0x20\n      add\n      mload(0x40)\n      swap1\n      dup2\n      add\n      0x40\n      mstore\n      dup1\n      swap3\n      swap2\n      swap1\n      dup2\n      dup2\n      mstore\n      0x20\n      add\n      dup3\n      dup1\n      sload\n      tag_122\n      swap1\n      tag_121\n      jump\t// in\n    tag_122:\n      dup1\n      iszero\n      tag_123\n      jumpi\n      dup1\n      0x1f\n      lt\n      tag_124\n      jumpi\n      0x0100\n      dup1\n      dup4\n      sload\n      div\n      mul\n      dup4\n      mstore\n      swap2\n      0x20\n      add\n      swap2\n      jump(tag_123)\n    tag_124:\n      dup3\n      add\n      swap2\n      swap1\n      0x00\n      mstore\n      keccak256(0x00, 0x20)\n      swap1\n    tag_125:\n      dup2\n      sload\n      dup2\n      mstore\n      swap1\n      0x01\n      add\n      swap1\n      0x20\n      add\n      dup1\n      dup4\n      gt\n      tag_125\n      jumpi\n      dup3\n      swap1\n      sub\n      0x1f\n      and\n      dup3\n      add\n      swap2\n    tag_123:\n      pop\n      pop\n      pop\n      pop\n      pop\n      dup2\n      mstore\n      0x20\n      add\n      0x02\n      dup3\n      add\n      dup1\n      sload\n      tag_126\n      swap1\n      tag_121\n      jump\t// in\n    tag_126:\n      dup1\n      0x1f\n      add\n      0x20\n      dup1\n      swap2\n      div\n      mul\n      0x20\n      add\n      mload(0x40)\n      swap1\n      dup2\n      add\n      0x40\n      mstore\n      dup1\n      swap3\n      swap2\n      swap1\n      dup2\n      dup2\n      mstore\n      0x20\n      add\n      dup3\n      dup1\n      sload\n      tag_127\n      swap1\n      tag_121\n      jump\t// in\n    tag_127:\n      dup1\n      iszero\n      tag_128\n      jumpi\n      dup1\n      0x1f\n      lt\n      tag_129\n      jumpi\n      0x0100\n      dup1\n      dup4\n      sload\n      div\n      mul\n      dup4\n      mstore\n      swap2\n      0x20\n      add\n      swap2\n      jump(tag_128)\n    tag_129:\n      dup3\n      add\n      swap2\n      swap1\n      0x00\n      mstore\n      keccak256(0x00, 0x20)\n      swap1\n    tag_130:\n      dup2\n      sload\n      dup2\n      mstore\n      swap1\n      0x01\n      add\n      swap1\n      0x20\n      add\n      dup1\n      dup4\n      gt\n      tag_130\n      jumpi\n      dup3\n      swap1\n      sub\n      0x1f\n      and\n      dup3\n      add\n      swap2\n    tag_128:\n      pop\n      pop\n      pop\n      pop\n      pop\n      dup2\n      mstore\n      0x20\n      add\n      0x03\n      dup3\n      add\n      sload\n      dup2\n      mstore\n      0x20\n      add\n      0x04\n      dup3\n      add\n      dup1\n      sload\n      dup1\n      0x20\n      mul\n      0x20\n      add\n      mload(0x40)\n      swap1\n      dup2\n      add\n      0x40\n      mstore\n      dup1\n      swap3\n      swap2\n      swap1\n      dup2\n      dup2\n      mstore\n      0x20\n      add\n      0x00\n      swap1\n    tag_131:\n      dup3\n      dup3\n      lt\n      iszero\n      tag_132\n      jumpi\n      dup4\n      dup3\n      swap1\n      0x00\n      mstore\n      keccak256(0x00, 0x20)\n      add\n      dup1\n      sload\n      tag_134\n      swap1\n      tag_121\n      jump\t// in\n    tag_134:\n      dup1\n      0x1f\n      add\n      0x20\n      dup1\n      swap2\n      div\n      mul\n      0x20\n      add\n      mload(0x40)\n      swap1\n      dup2\n      add\n      0x40\n      mstore\n      dup1\n      swap3\n      swap2\n      swap1\n      dup2\n      dup2\n      mstore\n      0x20\n      add\n      dup3\n      dup1\n      sload\n      tag_135\n      swap1\n      tag_121\n      jump\t// in\n    tag_135:\n      dup1\n      iszero\n      tag_136\n      jumpi\n      dup1\n      0x1f\n      lt\n      tag_137\n      jumpi\n      0x0100\n      dup1\n      dup4\n      sload\n      div\n      mul\n      dup4\n      mstore\n      swap2\n      0x20\n      add\n      swap2\n      jump(tag_136)\n    tag_137:\n      dup3\n      add\n      swap2\n      swap1\n      0x00\n      mstore\n      keccak256(0x00, 0x20)\n      swap1\n    tag_138:\n      dup2\n      sload\n      dup2\n      mstore\n      swap1\n      0x01\n      add\n      swap1\n      0x20\n      add\n      dup1\n      dup4\n      gt\n      tag_138\n      jumpi\n      dup3\n      swap1\n      sub\n      0x1f\n      and\n      dup3\n      add\n      swap2\n    tag_136:\n      pop\n      pop\n      pop\n      pop\n      pop\n      dup2\n      mstore\n      0x20\n      add\n      swap1\n      0x01\n      add\n      swap1\n      jump(tag_131)\n    tag_132:\n      pop\n      pop\n      pop\n      pop\n      dup2\n      mstore\n      0x20\n      add\n      0x05\n      dup3\n      add\n      sload\n      dup2\n      mstore\n      0x20\n      add\n      0x06\n      dup3\n      add\n      sload\n      dup2\n      mstore\n      pop\n      pop\n      swap1\n      pop\n        /* \"contracts/manager/FoodManager.sol\":6073:6291  function getFood(uint256 foodId)... */\n      swap2\n      swap1\n      pop\n      jump\t// out\n        /* \"contracts/access/RoleAccess.sol\":180:219  mapping(address => Role) public isAdmin */\n    tag_47:\n      mstore(0x20, 0x01)\n      dup1\n      0x00\n      mstore\n      keccak256(0x00, 0x40)\n      0x00\n      swap2\n      pop\n      sload\n      swap1\n      0x0100\n      exp\n      swap1\n      div\n      0xff\n      and\n      dup2\n      jump\t// out\n        /* \"contracts/manager/FoodManager.sol\":5008:5810  function deleteFoodDetail(uint256 foodId, uint256 foodDetailId)... */\n    tag_53:\n        /* \"contracts/manager/FoodManager.sol\":5152:5153  0 */\n      0x00\n        /* \"contracts/manager/FoodManager.sol\":5128:5133  foods */\n      0x05\n        /* \"contracts/manager/FoodManager.sol\":5128:5141  foods[foodId] */\n      0x00\n        /* \"contracts/manager/FoodManager.sol\":5134:5140  foodId */\n      dup5\n        /* \"contracts/manager/FoodManager.sol\":5128:5141  foods[foodId] */\n      dup2\n      mstore\n      0x20\n      add\n      swap1\n      dup2\n      mstore\n      0x20\n      add\n      0x00\n      keccak256\n        /* \"contracts/manager/FoodManager.sol\":5128:5148  foods[foodId].foodId */\n      0x00\n      add\n      sload\n        /* \"contracts/manager/FoodManager.sol\":5128:5153  foods[foodId].foodId != 0 */\n      sub\n        /* \"contracts/manager/FoodManager.sol\":5120:5177  require(foods[foodId].foodId != 0, \"Food does not exist\") */\n      tag_140\n      jumpi\n      mload(0x40)\n      0x08c379a000000000000000000000000000000000000000000000000000000000\n      dup2\n      mstore\n      0x04\n      add\n      tag_141\n      swap1\n      tag_119\n      jump\t// in\n    tag_141:\n      mload(0x40)\n      dup1\n      swap2\n      sub\n      swap1\n      revert\n    tag_140:\n        /* \"contracts/manager/FoodManager.sol\":5187:5222  FoodDetail[] storage foodDetailList */\n      0x00\n        /* \"contracts/manager/FoodManager.sol\":5225:5236  foodDetails */\n      0x06\n        /* \"contracts/manager/FoodManager.sol\":5225:5244  foodDetails[foodId] */\n      0x00\n        /* \"contracts/manager/FoodManager.sol\":5237:5243  foodId */\n      dup5\n        /* \"contracts/manager/FoodManager.sol\":5225:5244  foodDetails[foodId] */\n      dup2\n      mstore\n      0x20\n      add\n      swap1\n      dup2\n      mstore\n      0x20\n      add\n      0x00\n      keccak256\n        /* \"contracts/manager/FoodManager.sol\":5187:5244  FoodDetail[] storage foodDetailList = foodDetails[foodId] */\n      swap1\n      pop\n        /* \"contracts/manager/FoodManager.sol\":5254:5264  bool found */\n      0x00\n        /* \"contracts/manager/FoodManager.sol\":5267:5272  false */\n      0x00\n        /* \"contracts/manager/FoodManager.sol\":5254:5272  bool found = false */\n      swap1\n      pop\n        /* \"contracts/manager/FoodManager.sol\":5287:5296  uint256 i */\n      0x00\n        /* \"contracts/manager/FoodManager.sol\":5299:5300  0 */\n      0x00\n        /* \"contracts/manager/FoodManager.sol\":5287:5300  uint256 i = 0 */\n      swap1\n      pop\n        /* \"contracts/manager/FoodManager.sol\":5282:5751  for (uint256 i = 0; i < foodDetailList.length; i++) {... */\n    tag_142:\n        /* \"contracts/manager/FoodManager.sol\":5306:5320  foodDetailList */\n      dup3\n        /* \"contracts/manager/FoodManager.sol\":5306:5327  foodDetailList.length */\n      dup1\n      sload\n      swap1\n      pop\n        /* \"contracts/manager/FoodManager.sol\":5302:5303  i */\n      dup2\n        /* \"contracts/manager/FoodManager.sol\":5302:5327  i < foodDetailList.length */\n      lt\n        /* \"contracts/manager/FoodManager.sol\":5282:5751  for (uint256 i = 0; i < foodDetailList.length; i++) {... */\n      iszero\n      tag_143\n      jumpi\n        /* \"contracts/manager/FoodManager.sol\":5386:5398  foodDetailId */\n      dup4\n        /* \"contracts/manager/FoodManager.sol\":5352:5366  foodDetailList */\n      dup4\n        /* \"contracts/manager/FoodManager.sol\":5367:5368  i */\n      dup3\n        /* \"contracts/manager/FoodManager.sol\":5352:5369  foodDetailList[i] */\n      dup2\n      sload\n      dup2\n      lt\n      tag_145\n      jumpi\n      tag_146\n      tag_102\n      jump\t// in\n    tag_146:\n    tag_145:\n      swap1\n      0x00\n      mstore\n      keccak256(0x00, 0x20)\n      swap1\n      0x04\n      mul\n      add\n        /* \"contracts/manager/FoodManager.sol\":5352:5382  foodDetailList[i].foodDetailId */\n      0x00\n      add\n      sload\n        /* \"contracts/manager/FoodManager.sol\":5352:5398  foodDetailList[i].foodDetailId == foodDetailId */\n      sub\n        /* \"contracts/manager/FoodManager.sol\":5348:5741  if (foodDetailList[i].foodDetailId == foodDetailId) {... */\n      tag_148\n      jumpi\n        /* \"contracts/manager/FoodManager.sol\":5462:5463  1 */\n      0x01\n        /* \"contracts/manager/FoodManager.sol\":5438:5452  foodDetailList */\n      dup4\n        /* \"contracts/manager/FoodManager.sol\":5438:5459  foodDetailList.length */\n      dup1\n      sload\n      swap1\n      pop\n        /* \"contracts/manager/FoodManager.sol\":5438:5463  foodDetailList.length > 1 */\n      gt\n        /* \"contracts/manager/FoodManager.sol\":5438:5573  foodDetailList.length > 1... */\n      tag_149\n      jumpi\n        /* \"contracts/manager/FoodManager.sol\":5550:5573  FoodDetail(0, \"\", 0, 0) */\n      mload(0x40)\n      dup1\n      0x80\n      add\n      0x40\n      mstore\n      dup1\n        /* \"contracts/manager/FoodManager.sol\":5561:5562  0 */\n      0x00\n        /* \"contracts/manager/FoodManager.sol\":5550:5573  FoodDetail(0, \"\", 0, 0) */\n      dup2\n      mstore\n      0x20\n      add\n      mload(0x40)\n      dup1\n      0x20\n      add\n      0x40\n      mstore\n      dup1\n      0x00\n      dup2\n      mstore\n      pop\n      dup2\n      mstore\n      0x20\n      add\n        /* \"contracts/manager/FoodManager.sol\":5568:5569  0 */\n      0x00\n        /* \"contracts/manager/FoodManager.sol\":5550:5573  FoodDetail(0, \"\", 0, 0) */\n      dup2\n      mstore\n      0x20\n      add\n        /* \"contracts/manager/FoodManager.sol\":5571:5572  0 */\n      0x00\n        /* \"contracts/manager/FoodManager.sol\":5550:5573  FoodDetail(0, \"\", 0, 0) */\n      dup2\n      mstore\n      pop\n        /* \"contracts/manager/FoodManager.sol\":5438:5573  foodDetailList.length > 1... */\n      jump(tag_150)\n    tag_149:\n        /* \"contracts/manager/FoodManager.sol\":5486:5500  foodDetailList */\n      dup3\n        /* \"contracts/manager/FoodManager.sol\":5525:5526  1 */\n      0x01\n        /* \"contracts/manager/FoodManager.sol\":5501:5515  foodDetailList */\n      dup5\n        /* \"contracts/manager/FoodManager.sol\":5501:5522  foodDetailList.length */\n      dup1\n      sload\n      swap1\n      pop\n        /* \"contracts/manager/FoodManager.sol\":5501:5526  foodDetailList.length - 1 */\n      tag_151\n      swap2\n      swap1\n      tag_152\n      jump\t// in\n    tag_151:\n        /* \"contracts/manager/FoodManager.sol\":5486:5527  foodDetailList[foodDetailList.length - 1] */\n      dup2\n      sload\n      dup2\n      lt\n      tag_153\n      jumpi\n      tag_154\n      tag_102\n      jump\t// in\n    tag_154:\n    tag_153:\n      swap1\n      0x00\n      mstore\n      keccak256(0x00, 0x20)\n      swap1\n      0x04\n      mul\n      add\n        /* \"contracts/manager/FoodManager.sol\":5438:5573  foodDetailList.length > 1... */\n      mload(0x40)\n      dup1\n      0x80\n      add\n      0x40\n      mstore\n      swap1\n      dup2\n      0x00\n      dup3\n      add\n      sload\n      dup2\n      mstore\n      0x20\n      add\n      0x01\n      dup3\n      add\n      dup1\n      sload\n      tag_156\n      swap1\n      tag_121\n      jump\t// in\n    tag_156:\n      dup1\n      0x1f\n      add\n      0x20\n      dup1\n      swap2\n      div\n      mul\n      0x20\n      add\n      mload(0x40)\n      swap1\n      dup2\n      add\n      0x40\n      mstore\n      dup1\n      swap3\n      swap2\n      swap1\n      dup2\n      dup2\n      mstore\n      0x20\n      add\n      dup3\n      dup1\n      sload\n      tag_157\n      swap1\n      tag_121\n      jump\t// in\n    tag_157:\n      dup1\n      iszero\n      tag_158\n      jumpi\n      dup1\n      0x1f\n      lt\n      tag_159\n      jumpi\n      0x0100\n      dup1\n      dup4\n      sload\n      div\n      mul\n      dup4\n      mstore\n      swap2\n      0x20\n      add\n      swap2\n      jump(tag_158)\n    tag_159:\n      dup3\n      add\n      swap2\n      swap1\n      0x00\n      mstore\n      keccak256(0x00, 0x20)\n      swap1\n    tag_160:\n      dup2\n      sload\n      dup2\n      mstore\n      swap1\n      0x01\n      add\n      swap1\n      0x20\n      add\n      dup1\n      dup4\n      gt\n      tag_160\n      jumpi\n      dup3\n      swap1\n      sub\n      0x1f\n      and\n      dup3\n      add\n      swap2\n    tag_158:\n      pop\n      pop\n      pop\n      pop\n      pop\n      dup2\n      mstore\n      0x20\n      add\n      0x02\n      dup3\n      add\n      sload\n      dup2\n      mstore\n      0x20\n      add\n      0x03\n      dup3\n      add\n      sload\n      dup2\n      mstore\n      pop\n      pop\n    tag_150:\n        /* \"contracts/manager/FoodManager.sol\":5418:5432  foodDetailList */\n      dup4\n        /* \"contracts/manager/FoodManager.sol\":5433:5434  i */\n      dup3\n        /* \"contracts/manager/FoodManager.sol\":5418:5435  foodDetailList[i] */\n      dup2\n      sload\n      dup2\n      lt\n      tag_161\n      jumpi\n      tag_162\n      tag_102\n      jump\t// in\n    tag_162:\n    tag_161:\n      swap1\n      0x00\n      mstore\n      keccak256(0x00, 0x20)\n      swap1\n      0x04\n      mul\n      add\n        /* \"contracts/manager/FoodManager.sol\":5418:5573  foodDetailList[i] = foodDetailList.length > 1... */\n      0x00\n      dup3\n      add\n      mload\n      dup2\n      0x00\n      add\n      sstore\n      0x20\n      dup3\n      add\n      mload\n      dup2\n      0x01\n      add\n      swap1\n      dup2\n      tag_164\n      swap2\n      swap1\n      tag_165\n      jump\t// in\n    tag_164:\n      pop\n      0x40\n      dup3\n      add\n      mload\n      dup2\n      0x02\n      add\n      sstore\n      0x60\n      dup3\n      add\n      mload\n      dup2\n      0x03\n      add\n      sstore\n      swap1\n      pop\n      pop\n        /* \"contracts/manager/FoodManager.sol\":5591:5605  foodDetailList */\n      dup3\n        /* \"contracts/manager/FoodManager.sol\":5591:5611  foodDetailList.pop() */\n      dup1\n      sload\n      dup1\n      tag_166\n      jumpi\n      tag_167\n      tag_168\n      jump\t// in\n    tag_167:\n    tag_166:\n      0x01\n      swap1\n      sub\n      dup2\n      dup2\n      swap1\n      0x00\n      mstore\n      keccak256(0x00, 0x20)\n      swap1\n      0x04\n      mul\n      add\n      0x00\n      0x00\n      dup3\n      add\n      0x00\n      swap1\n      sstore\n      0x01\n      dup3\n      add\n      0x00\n      tag_170\n      swap2\n      swap1\n      tag_171\n      jump\t// in\n    tag_170:\n      0x02\n      dup3\n      add\n      0x00\n      swap1\n      sstore\n      0x03\n      dup3\n      add\n      0x00\n      swap1\n      sstore\n      pop\n      pop\n      swap1\n      sstore\n        /* \"contracts/manager/FoodManager.sol\":5637:5641  true */\n      0x01\n        /* \"contracts/manager/FoodManager.sol\":5629:5641  found = true */\n      swap2\n      pop\n        /* \"contracts/manager/FoodManager.sol\":5664:5703  FoodDetailDeleted(foodId, foodDetailId) */\n      0x55caa6a55acb7e3464dc13c54d94739e0f01b9141276caebb64f3ef500cd8900\n        /* \"contracts/manager/FoodManager.sol\":5682:5688  foodId */\n      dup6\n        /* \"contracts/manager/FoodManager.sol\":5690:5702  foodDetailId */\n      dup6\n        /* \"contracts/manager/FoodManager.sol\":5664:5703  FoodDetailDeleted(foodId, foodDetailId) */\n      mload(0x40)\n      tag_172\n      swap3\n      swap2\n      swap1\n      tag_173\n      jump\t// in\n    tag_172:\n      mload(0x40)\n      dup1\n      swap2\n      sub\n      swap1\n      log1\n        /* \"contracts/manager/FoodManager.sol\":5721:5726  break */\n      jump(tag_143)\n        /* \"contracts/manager/FoodManager.sol\":5348:5741  if (foodDetailList[i].foodDetailId == foodDetailId) {... */\n    tag_148:\n        /* \"contracts/manager/FoodManager.sol\":5329:5332  i++ */\n      dup1\n      dup1\n      0x01\n      add\n      swap2\n      pop\n      pop\n        /* \"contracts/manager/FoodManager.sol\":5282:5751  for (uint256 i = 0; i < foodDetailList.length; i++) {... */\n      jump(tag_142)\n    tag_143:\n      pop\n        /* \"contracts/manager/FoodManager.sol\":5768:5773  found */\n      dup1\n        /* \"contracts/manager/FoodManager.sol\":5760:5803  require(found, \"FoodDetail does not exist\") */\n      tag_174\n      jumpi\n      mload(0x40)\n      0x08c379a000000000000000000000000000000000000000000000000000000000\n      dup2\n      mstore\n      0x04\n      add\n      tag_175\n      swap1\n      tag_176\n      jump\t// in\n    tag_175:\n      mload(0x40)\n      dup1\n      swap2\n      sub\n      swap1\n      revert\n    tag_174:\n        /* \"contracts/manager/FoodManager.sol\":5110:5810  {... */\n      pop\n      pop\n        /* \"contracts/manager/FoodManager.sol\":5008:5810  function deleteFoodDetail(uint256 foodId, uint256 foodDetailId)... */\n      pop\n      pop\n      jump\t// out\n        /* \"contracts/manager/FoodManager.sol\":3533:4179  function addFoodDetails(uint256 foodId, UpdateFoodDetail[] memory details)... */\n    tag_57:\n        /* \"contracts/manager/FoodManager.sol\":3730:3731  0 */\n      0x00\n        /* \"contracts/manager/FoodManager.sol\":3706:3711  foods */\n      0x05\n        /* \"contracts/manager/FoodManager.sol\":3706:3719  foods[foodId] */\n      0x00\n        /* \"contracts/manager/FoodManager.sol\":3712:3718  foodId */\n      dup5\n        /* \"contracts/manager/FoodManager.sol\":3706:3719  foods[foodId] */\n      dup2\n      mstore\n      0x20\n      add\n      swap1\n      dup2\n      mstore\n      0x20\n      add\n      0x00\n      keccak256\n        /* \"contracts/manager/FoodManager.sol\":3706:3726  foods[foodId].foodId */\n      0x00\n      add\n      sload\n        /* \"contracts/manager/FoodManager.sol\":3706:3731  foods[foodId].foodId != 0 */\n      sub\n        /* \"contracts/manager/FoodManager.sol\":3698:3755  require(foods[foodId].foodId != 0, \"Food does not exist\") */\n      tag_178\n      jumpi\n      mload(0x40)\n      0x08c379a000000000000000000000000000000000000000000000000000000000\n      dup2\n      mstore\n      0x04\n      add\n      tag_179\n      swap1\n      tag_119\n      jump\t// in\n    tag_179:\n      mload(0x40)\n      dup1\n      swap2\n      sub\n      swap1\n      revert\n    tag_178:\n        /* \"contracts/manager/FoodManager.sol\":3770:3779  uint256 i */\n      0x00\n        /* \"contracts/manager/FoodManager.sol\":3782:3783  0 */\n      0x00\n        /* \"contracts/manager/FoodManager.sol\":3770:3783  uint256 i = 0 */\n      swap1\n      pop\n        /* \"contracts/manager/FoodManager.sol\":3765:4134  for (uint256 i = 0; i < details.length; i++) {... */\n    tag_180:\n        /* \"contracts/manager/FoodManager.sol\":3789:3796  details */\n      dup2\n        /* \"contracts/manager/FoodManager.sol\":3789:3803  details.length */\n      mload\n        /* \"contracts/manager/FoodManager.sol\":3785:3786  i */\n      dup2\n        /* \"contracts/manager/FoodManager.sol\":3785:3803  i < details.length */\n      lt\n        /* \"contracts/manager/FoodManager.sol\":3765:4134  for (uint256 i = 0; i < details.length; i++) {... */\n      iszero\n      tag_181\n      jumpi\n        /* \"contracts/manager/FoodManager.sol\":3824:3840  nextFoodDetailId */\n      0x04\n      0x00\n        /* \"contracts/manager/FoodManager.sol\":3824:3842  nextFoodDetailId++ */\n      dup2\n      sload\n      dup1\n      swap3\n      swap2\n      swap1\n      tag_183\n      swap1\n      tag_184\n      jump\t// in\n    tag_183:\n      swap2\n      swap1\n      pop\n      sstore\n      pop\n        /* \"contracts/manager/FoodManager.sol\":3857:3877  FoodDetail memory fd */\n      0x00\n        /* \"contracts/manager/FoodManager.sol\":3880:4081  FoodDetail({... */\n      mload(0x40)\n      dup1\n      0x80\n      add\n      0x40\n      mstore\n      dup1\n        /* \"contracts/manager/FoodManager.sol\":3923:3939  nextFoodDetailId */\n      sload(0x04)\n        /* \"contracts/manager/FoodManager.sol\":3880:4081  FoodDetail({... */\n      dup2\n      mstore\n      0x20\n      add\n        /* \"contracts/manager/FoodManager.sol\":3963:3970  details */\n      dup5\n        /* \"contracts/manager/FoodManager.sol\":3971:3972  i */\n      dup5\n        /* \"contracts/manager/FoodManager.sol\":3963:3973  details[i] */\n      dup2\n      mload\n      dup2\n      lt\n      tag_185\n      jumpi\n      tag_186\n      tag_102\n      jump\t// in\n    tag_186:\n    tag_185:\n      0x20\n      mul\n      0x20\n      add\n      add\n      mload\n        /* \"contracts/manager/FoodManager.sol\":3963:3978  details[i].size */\n      0x00\n      add\n      mload\n        /* \"contracts/manager/FoodManager.sol\":3880:4081  FoodDetail({... */\n      dup2\n      mstore\n      0x20\n      add\n        /* \"contracts/manager/FoodManager.sol\":4006:4013  details */\n      dup5\n        /* \"contracts/manager/FoodManager.sol\":4014:4015  i */\n      dup5\n        /* \"contracts/manager/FoodManager.sol\":4006:4016  details[i] */\n      dup2\n      mload\n      dup2\n      lt\n      tag_187\n      jumpi\n      tag_188\n      tag_102\n      jump\t// in\n    tag_188:\n    tag_187:\n      0x20\n      mul\n      0x20\n      add\n      add\n      mload\n        /* \"contracts/manager/FoodManager.sol\":4006:4025  details[i].quantity */\n      0x20\n      add\n      mload\n        /* \"contracts/manager/FoodManager.sol\":3880:4081  FoodDetail({... */\n      dup2\n      mstore\n      0x20\n      add\n        /* \"contracts/manager/FoodManager.sol\":4050:4057  details */\n      dup5\n        /* \"contracts/manager/FoodManager.sol\":4058:4059  i */\n      dup5\n        /* \"contracts/manager/FoodManager.sol\":4050:4060  details[i] */\n      dup2\n      mload\n      dup2\n      lt\n      tag_189\n      jumpi\n      tag_190\n      tag_102\n      jump\t// in\n    tag_190:\n    tag_189:\n      0x20\n      mul\n      0x20\n      add\n      add\n      mload\n        /* \"contracts/manager/FoodManager.sol\":4050:4066  details[i].price */\n      0x40\n      add\n      mload\n        /* \"contracts/manager/FoodManager.sol\":3880:4081  FoodDetail({... */\n      dup2\n      mstore\n      pop\n        /* \"contracts/manager/FoodManager.sol\":3857:4081  FoodDetail memory fd = FoodDetail({... */\n      swap1\n      pop\n        /* \"contracts/manager/FoodManager.sol\":4095:4106  foodDetails */\n      0x06\n        /* \"contracts/manager/FoodManager.sol\":4095:4114  foodDetails[foodId] */\n      0x00\n        /* \"contracts/manager/FoodManager.sol\":4107:4113  foodId */\n      dup6\n        /* \"contracts/manager/FoodManager.sol\":4095:4114  foodDetails[foodId] */\n      dup2\n      mstore\n      0x20\n      add\n      swap1\n      dup2\n      mstore\n      0x20\n      add\n      0x00\n      keccak256\n        /* \"contracts/manager/FoodManager.sol\":4120:4122  fd */\n      dup2\n        /* \"contracts/manager/FoodManager.sol\":4095:4123  foodDetails[foodId].push(fd) */\n      swap1\n      dup1\n      0x01\n      dup2\n      sload\n      add\n      dup1\n      dup3\n      sstore\n      dup1\n      swap2\n      pop\n      pop\n      0x01\n      swap1\n      sub\n      swap1\n      0x00\n      mstore\n      keccak256(0x00, 0x20)\n      swap1\n      0x04\n      mul\n      add\n      0x00\n      swap1\n      swap2\n      swap1\n      swap2\n      swap1\n      swap2\n      pop\n      0x00\n      dup3\n      add\n      mload\n      dup2\n      0x00\n      add\n      sstore\n      0x20\n      dup3\n      add\n      mload\n      dup2\n      0x01\n      add\n      swap1\n      dup2\n      tag_192\n      swap2\n      swap1\n      tag_165\n      jump\t// in\n    tag_192:\n      pop\n      0x40\n      dup3\n      add\n      mload\n      dup2\n      0x02\n      add\n      sstore\n      0x60\n      dup3\n      add\n      mload\n      dup2\n      0x03\n      add\n      sstore\n      pop\n      pop\n        /* \"contracts/manager/FoodManager.sol\":3810:4134  {... */\n      pop\n        /* \"contracts/manager/FoodManager.sol\":3805:3808  i++ */\n      dup1\n      dup1\n      0x01\n      add\n      swap2\n      pop\n      pop\n        /* \"contracts/manager/FoodManager.sol\":3765:4134  for (uint256 i = 0; i < details.length; i++) {... */\n      jump(tag_180)\n    tag_181:\n      pop\n        /* \"contracts/manager/FoodManager.sol\":4148:4172  FoodDetailsAdded(foodId) */\n      0x19a8e56286393226625dcdbc7cbb5a7611c71773d54c7e0680658cb9ceef6c22\n        /* \"contracts/manager/FoodManager.sol\":4165:4171  foodId */\n      dup3\n        /* \"contracts/manager/FoodManager.sol\":4148:4172  FoodDetailsAdded(foodId) */\n      mload(0x40)\n      tag_193\n      swap2\n      swap1\n      tag_35\n      jump\t// in\n    tag_193:\n      mload(0x40)\n      dup1\n      swap2\n      sub\n      swap1\n      log1\n        /* \"contracts/manager/FoodManager.sol\":3533:4179  function addFoodDetails(uint256 foodId, UpdateFoodDetail[] memory details)... */\n      pop\n      pop\n      jump\t// out\n        /* \"contracts/manager/FoodManager.sol\":2269:2942  function updateFood(... */\n    tag_61:\n        /* \"contracts/manager/FoodManager.sol\":2510:2511  0 */\n      0x00\n        /* \"contracts/manager/FoodManager.sol\":2485:2490  foods */\n      0x05\n        /* \"contracts/manager/FoodManager.sol\":2485:2499  foods[_foodId] */\n      0x00\n        /* \"contracts/manager/FoodManager.sol\":2491:2498  _foodId */\n      dup8\n        /* \"contracts/manager/FoodManager.sol\":2485:2499  foods[_foodId] */\n      dup2\n      mstore\n      0x20\n      add\n      swap1\n      dup2\n      mstore\n      0x20\n      add\n      0x00\n      keccak256\n        /* \"contracts/manager/FoodManager.sol\":2485:2506  foods[_foodId].foodId */\n      0x00\n      add\n      sload\n        /* \"contracts/manager/FoodManager.sol\":2485:2511  foods[_foodId].foodId != 0 */\n      sub\n        /* \"contracts/manager/FoodManager.sol\":2477:2535  require(foods[_foodId].foodId != 0, \"Food does not exist\") */\n      tag_195\n      jumpi\n      mload(0x40)\n      0x08c379a000000000000000000000000000000000000000000000000000000000\n      dup2\n      mstore\n      0x04\n      add\n      tag_196\n      swap1\n      tag_119\n      jump\t// in\n    tag_196:\n      mload(0x40)\n      dup1\n      swap2\n      sub\n      swap1\n      revert\n    tag_195:\n        /* \"contracts/manager/FoodManager.sol\":2621:2622  0 */\n      0x00\n        /* \"contracts/manager/FoodManager.sol\":2566:2581  categoryManager */\n      0x02\n      0x00\n      swap1\n      sload\n      swap1\n      0x0100\n      exp\n      swap1\n      div\n      0xffffffffffffffffffffffffffffffffffffffff\n      and\n        /* \"contracts/manager/FoodManager.sol\":2566:2593  categoryManager.getCategory */\n      0xffffffffffffffffffffffffffffffffffffffff\n      and\n      0xf3052d26\n        /* \"contracts/manager/FoodManager.sol\":2594:2605  _categoryId */\n      dup5\n        /* \"contracts/manager/FoodManager.sol\":2566:2606  categoryManager.getCategory(_categoryId) */\n      mload(0x40)\n      dup3\n      0xffffffff\n      and\n      0xe0\n      shl\n      dup2\n      mstore\n      0x04\n      add\n      tag_197\n      swap2\n      swap1\n      tag_35\n      jump\t// in\n    tag_197:\n      0x00\n      mload(0x40)\n      dup1\n      dup4\n      sub\n      dup2\n      dup7\n      gas\n      staticcall\n      iszero\n      dup1\n      iszero\n      tag_199\n      jumpi\n      returndatacopy(0x00, 0x00, returndatasize)\n      revert(0x00, returndatasize)\n    tag_199:\n      pop\n      pop\n      pop\n      pop\n      mload(0x40)\n      returndatasize\n      0x00\n      dup3\n      returndatacopy\n      returndatasize\n      not(0x1f)\n      0x1f\n      dup3\n      add\n      and\n      dup3\n      add\n      dup1\n      0x40\n      mstore\n      pop\n      dup2\n      add\n      swap1\n      tag_200\n      swap2\n      swap1\n      tag_201\n      jump\t// in\n    tag_200:\n        /* \"contracts/manager/FoodManager.sol\":2566:2617  categoryManager.getCategory(_categoryId).categoryId */\n      0x00\n      add\n      mload\n        /* \"contracts/manager/FoodManager.sol\":2566:2622  categoryManager.getCategory(_categoryId).categoryId != 0 */\n      sub\n        /* \"contracts/manager/FoodManager.sol\":2545:2671  require(... */\n      tag_202\n      jumpi\n      mload(0x40)\n      0x08c379a000000000000000000000000000000000000000000000000000000000\n      dup2\n      mstore\n      0x04\n      add\n      tag_203\n      swap1\n      tag_204\n      jump\t// in\n    tag_203:\n      mload(0x40)\n      dup1\n      swap2\n      sub\n      swap1\n      revert\n    tag_202:\n        /* \"contracts/manager/FoodManager.sol\":2704:2709  _name */\n      dup4\n        /* \"contracts/manager/FoodManager.sol\":2682:2687  foods */\n      0x05\n        /* \"contracts/manager/FoodManager.sol\":2682:2696  foods[_foodId] */\n      0x00\n        /* \"contracts/manager/FoodManager.sol\":2688:2695  _foodId */\n      dup8\n        /* \"contracts/manager/FoodManager.sol\":2682:2696  foods[_foodId] */\n      dup2\n      mstore\n      0x20\n      add\n      swap1\n      dup2\n      mstore\n      0x20\n      add\n      0x00\n      keccak256\n        /* \"contracts/manager/FoodManager.sol\":2682:2701  foods[_foodId].name */\n      0x01\n      add\n        /* \"contracts/manager/FoodManager.sol\":2682:2709  foods[_foodId].name = _name */\n      swap1\n      dup2\n      tag_205\n      swap2\n      swap1\n      tag_165\n      jump\t// in\n    tag_205:\n      pop\n        /* \"contracts/manager/FoodManager.sol\":2748:2760  _description */\n      dup3\n        /* \"contracts/manager/FoodManager.sol\":2719:2724  foods */\n      0x05\n        /* \"contracts/manager/FoodManager.sol\":2719:2733  foods[_foodId] */\n      0x00\n        /* \"contracts/manager/FoodManager.sol\":2725:2732  _foodId */\n      dup8\n        /* \"contracts/manager/FoodManager.sol\":2719:2733  foods[_foodId] */\n      dup2\n      mstore\n      0x20\n      add\n      swap1\n      dup2\n      mstore\n      0x20\n      add\n      0x00\n      keccak256\n        /* \"contracts/manager/FoodManager.sol\":2719:2745  foods[_foodId].description */\n      0x02\n      add\n        /* \"contracts/manager/FoodManager.sol\":2719:2760  foods[_foodId].description = _description */\n      swap1\n      dup2\n      tag_206\n      swap2\n      swap1\n      tag_165\n      jump\t// in\n    tag_206:\n      pop\n        /* \"contracts/manager/FoodManager.sol\":2798:2809  _categoryId */\n      dup2\n        /* \"contracts/manager/FoodManager.sol\":2770:2775  foods */\n      0x05\n        /* \"contracts/manager/FoodManager.sol\":2770:2784  foods[_foodId] */\n      0x00\n        /* \"contracts/manager/FoodManager.sol\":2776:2783  _foodId */\n      dup8\n        /* \"contracts/manager/FoodManager.sol\":2770:2784  foods[_foodId] */\n      dup2\n      mstore\n      0x20\n      add\n      swap1\n      dup2\n      mstore\n      0x20\n      add\n      0x00\n      keccak256\n        /* \"contracts/manager/FoodManager.sol\":2770:2795  foods[_foodId].categoryId */\n      0x03\n      add\n        /* \"contracts/manager/FoodManager.sol\":2770:2809  foods[_foodId].categoryId = _categoryId */\n      dup2\n      swap1\n      sstore\n      pop\n        /* \"contracts/manager/FoodManager.sol\":2845:2854  _imageUrl */\n      dup1\n        /* \"contracts/manager/FoodManager.sol\":2819:2824  foods */\n      0x05\n        /* \"contracts/manager/FoodManager.sol\":2819:2833  foods[_foodId] */\n      0x00\n        /* \"contracts/manager/FoodManager.sol\":2825:2832  _foodId */\n      dup8\n        /* \"contracts/manager/FoodManager.sol\":2819:2833  foods[_foodId] */\n      dup2\n      mstore\n      0x20\n      add\n      swap1\n      dup2\n      mstore\n      0x20\n      add\n      0x00\n      keccak256\n        /* \"contracts/manager/FoodManager.sol\":2819:2842  foods[_foodId].imageUrl */\n      0x04\n      add\n        /* \"contracts/manager/FoodManager.sol\":2819:2854  foods[_foodId].imageUrl = _imageUrl */\n      swap1\n      dup1\n      mload\n      swap1\n      0x20\n      add\n      swap1\n      tag_207\n      swap3\n      swap2\n      swap1\n      tag_208\n      jump\t// in\n    tag_207:\n      pop\n        /* \"contracts/manager/FoodManager.sol\":2870:2935  FoodUpdated(_foodId, _name, _description, _categoryId, _imageUrl) */\n      0x4f49710e0e59ea2e7096d7bad0267390d8bb5c007687f72b0de2db3afdadd5e5\n        /* \"contracts/manager/FoodManager.sol\":2882:2889  _foodId */\n      dup6\n        /* \"contracts/manager/FoodManager.sol\":2891:2896  _name */\n      dup6\n        /* \"contracts/manager/FoodManager.sol\":2898:2910  _description */\n      dup6\n        /* \"contracts/manager/FoodManager.sol\":2912:2923  _categoryId */\n      dup6\n        /* \"contracts/manager/FoodManager.sol\":2925:2934  _imageUrl */\n      dup6\n        /* \"contracts/manager/FoodManager.sol\":2870:2935  FoodUpdated(_foodId, _name, _description, _categoryId, _imageUrl) */\n      mload(0x40)\n      tag_209\n      swap6\n      swap5\n      swap4\n      swap3\n      swap2\n      swap1\n      tag_210\n      jump\t// in\n    tag_209:\n      mload(0x40)\n      dup1\n      swap2\n      sub\n      swap1\n      log1\n        /* \"contracts/manager/FoodManager.sol\":2269:2942  function updateFood(... */\n      pop\n      pop\n      pop\n      pop\n      pop\n      jump\t// out\n        /* \"contracts/access/RoleAccess.sol\":625:781  function addAdmin(address _admin) external virtual  {... */\n    tag_64:\n        /* \"contracts/access/RoleAccess.sol\":763:773  Role.ADMIN */\n      0x01\n        /* \"contracts/access/RoleAccess.sol\":745:752  isAdmin */\n      dup1\n        /* \"contracts/access/RoleAccess.sol\":745:760  isAdmin[_admin] */\n      0x00\n        /* \"contracts/access/RoleAccess.sol\":753:759  _admin */\n      dup4\n        /* \"contracts/access/RoleAccess.sol\":745:760  isAdmin[_admin] */\n      0xffffffffffffffffffffffffffffffffffffffff\n      and\n      0xffffffffffffffffffffffffffffffffffffffff\n      and\n      dup2\n      mstore\n      0x20\n      add\n      swap1\n      dup2\n      mstore\n      0x20\n      add\n      0x00\n      keccak256\n      0x00\n        /* \"contracts/access/RoleAccess.sol\":745:773  isAdmin[_admin] = Role.ADMIN */\n      0x0100\n      exp\n      dup2\n      sload\n      dup2\n      0xff\n      mul\n      not\n      and\n      swap1\n      dup4\n      0x02\n      dup2\n      gt\n      iszero\n      tag_212\n      jumpi\n      tag_213\n      tag_113\n      jump\t// in\n    tag_213:\n    tag_212:\n      mul\n      or\n      swap1\n      sstore\n      pop\n        /* \"contracts/access/RoleAccess.sol\":625:781  function addAdmin(address _admin) external virtual  {... */\n      pop\n      jump\t// out\n        /* \"contracts/access/RoleAccess.sol\":537:619  function getOwner () public  view returns (address){... */\n    tag_66:\n        /* \"contracts/access/RoleAccess.sol\":580:587  address */\n      0x00\n        /* \"contracts/access/RoleAccess.sol\":606:611  owner */\n      0x00\n      0x00\n      swap1\n      sload\n      swap1\n      0x0100\n      exp\n      swap1\n      div\n      0xffffffffffffffffffffffffffffffffffffffff\n      and\n        /* \"contracts/access/RoleAccess.sol\":599:611  return owner */\n      swap1\n      pop\n        /* \"contracts/access/RoleAccess.sol\":537:619  function getOwner () public  view returns (address){... */\n      swap1\n      jump\t// out\n        /* \"contracts/manager/FoodManager.sol\":6809:7266  function reduceQuantiy (uint _foodId,uint foodDetailId,uint _quantity) external override {... */\n    tag_71:\n        /* \"contracts/manager/FoodManager.sol\":6912:6918  uint i */\n      0x00\n        /* \"contracts/manager/FoodManager.sol\":6921:6922  0 */\n      0x00\n        /* \"contracts/manager/FoodManager.sol\":6912:6922  uint i = 0 */\n      swap1\n      pop\n        /* \"contracts/manager/FoodManager.sol\":6908:7259  for(uint i = 0;  i< foodDetails[_foodId].length ; i++ ){... */\n    tag_216:\n        /* \"contracts/manager/FoodManager.sol\":6928:6939  foodDetails */\n      0x06\n        /* \"contracts/manager/FoodManager.sol\":6928:6948  foodDetails[_foodId] */\n      0x00\n        /* \"contracts/manager/FoodManager.sol\":6940:6947  _foodId */\n      dup6\n        /* \"contracts/manager/FoodManager.sol\":6928:6948  foodDetails[_foodId] */\n      dup2\n      mstore\n      0x20\n      add\n      swap1\n      dup2\n      mstore\n      0x20\n      add\n      0x00\n      keccak256\n        /* \"contracts/manager/FoodManager.sol\":6928:6955  foodDetails[_foodId].length */\n      dup1\n      sload\n      swap1\n      pop\n        /* \"contracts/manager/FoodManager.sol\":6925:6926  i */\n      dup2\n        /* \"contracts/manager/FoodManager.sol\":6925:6955  i< foodDetails[_foodId].length */\n      lt\n        /* \"contracts/manager/FoodManager.sol\":6908:7259  for(uint i = 0;  i< foodDetails[_foodId].length ; i++ ){... */\n      iszero\n      tag_217\n      jumpi\n        /* \"contracts/manager/FoodManager.sol\":7020:7032  foodDetailId */\n      dup3\n        /* \"contracts/manager/FoodManager.sol\":6980:6991  foodDetails */\n      0x06\n        /* \"contracts/manager/FoodManager.sol\":6980:7000  foodDetails[_foodId] */\n      0x00\n        /* \"contracts/manager/FoodManager.sol\":6992:6999  _foodId */\n      dup7\n        /* \"contracts/manager/FoodManager.sol\":6980:7000  foodDetails[_foodId] */\n      dup2\n      mstore\n      0x20\n      add\n      swap1\n      dup2\n      mstore\n      0x20\n      add\n      0x00\n      keccak256\n        /* \"contracts/manager/FoodManager.sol\":7001:7002  i */\n      dup3\n        /* \"contracts/manager/FoodManager.sol\":6980:7003  foodDetails[_foodId][i] */\n      dup2\n      sload\n      dup2\n      lt\n      tag_219\n      jumpi\n      tag_220\n      tag_102\n      jump\t// in\n    tag_220:\n    tag_219:\n      swap1\n      0x00\n      mstore\n      keccak256(0x00, 0x20)\n      swap1\n      0x04\n      mul\n      add\n        /* \"contracts/manager/FoodManager.sol\":6980:7016  foodDetails[_foodId][i].foodDetailId */\n      0x00\n      add\n      sload\n        /* \"contracts/manager/FoodManager.sol\":6980:7032  foodDetails[_foodId][i].foodDetailId == foodDetailId */\n      sub\n        /* \"contracts/manager/FoodManager.sol\":6977:7249  if(foodDetails[_foodId][i].foodDetailId == foodDetailId){... */\n      tag_222\n      jumpi\n        /* \"contracts/manager/FoodManager.sol\":7071:7082  foodDetails */\n      0x06\n        /* \"contracts/manager/FoodManager.sol\":7071:7091  foodDetails[_foodId] */\n      0x00\n        /* \"contracts/manager/FoodManager.sol\":7083:7090  _foodId */\n      dup6\n        /* \"contracts/manager/FoodManager.sol\":7071:7091  foodDetails[_foodId] */\n      dup2\n      mstore\n      0x20\n      add\n      swap1\n      dup2\n      mstore\n      0x20\n      add\n      0x00\n      keccak256\n        /* \"contracts/manager/FoodManager.sol\":7092:7093  i */\n      dup2\n        /* \"contracts/manager/FoodManager.sol\":7071:7094  foodDetails[_foodId][i] */\n      dup2\n      sload\n      dup2\n      lt\n      tag_223\n      jumpi\n      tag_224\n      tag_102\n      jump\t// in\n    tag_224:\n    tag_223:\n      swap1\n      0x00\n      mstore\n      keccak256(0x00, 0x20)\n      swap1\n      0x04\n      mul\n      add\n        /* \"contracts/manager/FoodManager.sol\":7071:7103  foodDetails[_foodId][i].quantity */\n      0x02\n      add\n      sload\n        /* \"contracts/manager/FoodManager.sol\":7059:7068  _quantity */\n      dup3\n        /* \"contracts/manager/FoodManager.sol\":7059:7103  _quantity < foodDetails[_foodId][i].quantity */\n      lt\n        /* \"contracts/manager/FoodManager.sol\":7051:7148  require(_quantity < foodDetails[_foodId][i].quantity, \"Quantity's food cannot be smaller than 0\") */\n      tag_226\n      jumpi\n      mload(0x40)\n      0x08c379a000000000000000000000000000000000000000000000000000000000\n      dup2\n      mstore\n      0x04\n      add\n      tag_227\n      swap1\n      tag_228\n      jump\t// in\n    tag_227:\n      mload(0x40)\n      dup1\n      swap2\n      sub\n      swap1\n      revert\n    tag_226:\n        /* \"contracts/manager/FoodManager.sol\":7202:7211  _quantity */\n      dup2\n        /* \"contracts/manager/FoodManager.sol\":7166:7177  foodDetails */\n      0x06\n        /* \"contracts/manager/FoodManager.sol\":7166:7186  foodDetails[_foodId] */\n      0x00\n        /* \"contracts/manager/FoodManager.sol\":7178:7185  _foodId */\n      dup7\n        /* \"contracts/manager/FoodManager.sol\":7166:7186  foodDetails[_foodId] */\n      dup2\n      mstore\n      0x20\n      add\n      swap1\n      dup2\n      mstore\n      0x20\n      add\n      0x00\n      keccak256\n        /* \"contracts/manager/FoodManager.sol\":7187:7188  i */\n      dup3\n        /* \"contracts/manager/FoodManager.sol\":7166:7189  foodDetails[_foodId][i] */\n      dup2\n      sload\n      dup2\n      lt\n      tag_229\n      jumpi\n      tag_230\n      tag_102\n      jump\t// in\n    tag_230:\n    tag_229:\n      swap1\n      0x00\n      mstore\n      keccak256(0x00, 0x20)\n      swap1\n      0x04\n      mul\n      add\n        /* \"contracts/manager/FoodManager.sol\":7166:7198  foodDetails[_foodId][i].quantity */\n      0x02\n      add\n      0x00\n        /* \"contracts/manager/FoodManager.sol\":7166:7211  foodDetails[_foodId][i].quantity -= _quantity */\n      dup3\n      dup3\n      sload\n      tag_232\n      swap2\n      swap1\n      tag_152\n      jump\t// in\n    tag_232:\n      swap3\n      pop\n      pop\n      dup2\n      swap1\n      sstore\n      pop\n        /* \"contracts/manager/FoodManager.sol\":7229:7234  break */\n      jump(tag_217)\n        /* \"contracts/manager/FoodManager.sol\":6977:7249  if(foodDetails[_foodId][i].foodDetailId == foodDetailId){... */\n    tag_222:\n        /* \"contracts/manager/FoodManager.sol\":6958:6961  i++ */\n      dup1\n      dup1\n      0x01\n      add\n      swap2\n      pop\n      pop\n        /* \"contracts/manager/FoodManager.sol\":6908:7259  for(uint i = 0;  i< foodDetails[_foodId].length ; i++ ){... */\n      jump(tag_216)\n    tag_217:\n      pop\n        /* \"contracts/manager/FoodManager.sol\":6809:7266  function reduceQuantiy (uint _foodId,uint foodDetailId,uint _quantity) external override {... */\n      pop\n      pop\n      pop\n      jump\t// out\n        /* \"contracts/manager/FoodManager.sol\":5828:6067  function getFoodDetails(uint256 foodId)... */\n    tag_74:\n        /* \"contracts/manager/FoodManager.sol\":5932:5951  FoodDetail[] memory */\n      0x60\n        /* \"contracts/manager/FoodManager.sol\":5999:6000  0 */\n      0x00\n        /* \"contracts/manager/FoodManager.sol\":5975:5980  foods */\n      0x05\n        /* \"contracts/manager/FoodManager.sol\":5975:5988  foods[foodId] */\n      0x00\n        /* \"contracts/manager/FoodManager.sol\":5981:5987  foodId */\n      dup5\n        /* \"contracts/manager/FoodManager.sol\":5975:5988  foods[foodId] */\n      dup2\n      mstore\n      0x20\n      add\n      swap1\n      dup2\n      mstore\n      0x20\n      add\n      0x00\n      keccak256\n        /* \"contracts/manager/FoodManager.sol\":5975:5995  foods[foodId].foodId */\n      0x00\n      add\n      sload\n        /* \"contracts/manager/FoodManager.sol\":5975:6000  foods[foodId].foodId != 0 */\n      sub\n        /* \"contracts/manager/FoodManager.sol\":5967:6024  require(foods[foodId].foodId != 0, \"Food does not exist\") */\n      tag_234\n      jumpi\n      mload(0x40)\n      0x08c379a000000000000000000000000000000000000000000000000000000000\n      dup2\n      mstore\n      0x04\n      add\n      tag_235\n      swap1\n      tag_119\n      jump\t// in\n    tag_235:\n      mload(0x40)\n      dup1\n      swap2\n      sub\n      swap1\n      revert\n    tag_234:\n        /* \"contracts/manager/FoodManager.sol\":6041:6052  foodDetails */\n      0x06\n        /* \"contracts/manager/FoodManager.sol\":6041:6060  foodDetails[foodId] */\n      0x00\n        /* \"contracts/manager/FoodManager.sol\":6053:6059  foodId */\n      dup4\n        /* \"contracts/manager/FoodManager.sol\":6041:6060  foodDetails[foodId] */\n      dup2\n      mstore\n      0x20\n      add\n      swap1\n      dup2\n      mstore\n      0x20\n      add\n      0x00\n      keccak256\n        /* \"contracts/manager/FoodManager.sol\":6034:6060  return foodDetails[foodId] */\n      dup1\n      sload\n      dup1\n      0x20\n      mul\n      0x20\n      add\n      mload(0x40)\n      swap1\n      dup2\n      add\n      0x40\n      mstore\n      dup1\n      swap3\n      swap2\n      swap1\n      dup2\n      dup2\n      mstore\n      0x20\n      add\n      0x00\n      swap1\n    tag_236:\n      dup3\n      dup3\n      lt\n      iszero\n      tag_237\n      jumpi\n      dup4\n      dup3\n      swap1\n      0x00\n      mstore\n      keccak256(0x00, 0x20)\n      swap1\n      0x04\n      mul\n      add\n      mload(0x40)\n      dup1\n      0x80\n      add\n      0x40\n      mstore\n      swap1\n      dup2\n      0x00\n      dup3\n      add\n      sload\n      dup2\n      mstore\n      0x20\n      add\n      0x01\n      dup3\n      add\n      dup1\n      sload\n      tag_239\n      swap1\n      tag_121\n      jump\t// in\n    tag_239:\n      dup1\n      0x1f\n      add\n      0x20\n      dup1\n      swap2\n      div\n      mul\n      0x20\n      add\n      mload(0x40)\n      swap1\n      dup2\n      add\n      0x40\n      mstore\n      dup1\n      swap3\n      swap2\n      swap1\n      dup2\n      dup2\n      mstore\n      0x20\n      add\n      dup3\n      dup1\n      sload\n      tag_240\n      swap1\n      tag_121\n      jump\t// in\n    tag_240:\n      dup1\n      iszero\n      tag_241\n      jumpi\n      dup1\n      0x1f\n      lt\n      tag_242\n      jumpi\n      0x0100\n      dup1\n      dup4\n      sload\n      div\n      mul\n      dup4\n      mstore\n      swap2\n      0x20\n      add\n      swap2\n      jump(tag_241)\n    tag_242:\n      dup3\n      add\n      swap2\n      swap1\n      0x00\n      mstore\n      keccak256(0x00, 0x20)\n      swap1\n    tag_243:\n      dup2\n      sload\n      dup2\n      mstore\n      swap1\n      0x01\n      add\n      swap1\n      0x20\n      add\n      dup1\n      dup4\n      gt\n      tag_243\n      jumpi\n      dup3\n      swap1\n      sub\n      0x1f\n      and\n      dup3\n      add\n      swap2\n    tag_241:\n      pop\n      pop\n      pop\n      pop\n      pop\n      dup2\n      mstore\n      0x20\n      add\n      0x02\n      dup3\n      add\n      sload\n      dup2\n      mstore\n      0x20\n      add\n      0x03\n      dup3\n      add\n      sload\n      dup2\n      mstore\n      pop\n      pop\n      dup2\n      mstore\n      0x20\n      add\n      swap1\n      0x01\n      add\n      swap1\n      jump(tag_236)\n    tag_237:\n      pop\n      pop\n      pop\n      pop\n      swap1\n      pop\n        /* \"contracts/manager/FoodManager.sol\":5828:6067  function getFoodDetails(uint256 foodId)... */\n      swap2\n      swap1\n      pop\n      jump\t// out\n        /* \"contracts/manager/FoodManager.sol\":686:2263  function createFood(... */\n    tag_80:\n        /* \"contracts/manager/FoodManager.sol\":1041:1042  0 */\n      0x00\n        /* \"contracts/manager/FoodManager.sol\":1016:1021  foods */\n      0x05\n        /* \"contracts/manager/FoodManager.sol\":1016:1030  foods[_foodId] */\n      0x00\n        /* \"contracts/manager/FoodManager.sol\":1022:1029  _foodId */\n      dup9\n        /* \"contracts/manager/FoodManager.sol\":1016:1030  foods[_foodId] */\n      dup2\n      mstore\n      0x20\n      add\n      swap1\n      dup2\n      mstore\n      0x20\n      add\n      0x00\n      keccak256\n        /* \"contracts/manager/FoodManager.sol\":1016:1037  foods[_foodId].foodId */\n      0x00\n      add\n      sload\n        /* \"contracts/manager/FoodManager.sol\":1016:1042  foods[_foodId].foodId == 0 */\n      eq\n        /* \"contracts/manager/FoodManager.sol\":1008:1079  require(foods[_foodId].foodId == 0, \"Food with this ID already exists\") */\n      tag_245\n      jumpi\n      mload(0x40)\n      0x08c379a000000000000000000000000000000000000000000000000000000000\n      dup2\n      mstore\n      0x04\n      add\n      tag_246\n      swap1\n      tag_247\n      jump\t// in\n    tag_246:\n      mload(0x40)\n      dup1\n      swap2\n      sub\n      swap1\n      revert\n    tag_245:\n        /* \"contracts/manager/FoodManager.sol\":1165:1166  0 */\n      0x00\n        /* \"contracts/manager/FoodManager.sol\":1110:1125  categoryManager */\n      0x02\n      0x00\n      swap1\n      sload\n      swap1\n      0x0100\n      exp\n      swap1\n      div\n      0xffffffffffffffffffffffffffffffffffffffff\n      and\n        /* \"contracts/manager/FoodManager.sol\":1110:1137  categoryManager.getCategory */\n      0xffffffffffffffffffffffffffffffffffffffff\n      and\n      0xf3052d26\n        /* \"contracts/manager/FoodManager.sol\":1138:1149  _categoryId */\n      dup6\n        /* \"contracts/manager/FoodManager.sol\":1110:1150  categoryManager.getCategory(_categoryId) */\n      mload(0x40)\n      dup3\n      0xffffffff\n      and\n      0xe0\n      shl\n      dup2\n      mstore\n      0x04\n      add\n      tag_248\n      swap2\n      swap1\n      tag_35\n      jump\t// in\n    tag_248:\n      0x00\n      mload(0x40)\n      dup1\n      dup4\n      sub\n      dup2\n      dup7\n      gas\n      staticcall\n      iszero\n      dup1\n      iszero\n      tag_250\n      jumpi\n      returndatacopy(0x00, 0x00, returndatasize)\n      revert(0x00, returndatasize)\n    tag_250:\n      pop\n      pop\n      pop\n      pop\n      mload(0x40)\n      returndatasize\n      0x00\n      dup3\n      returndatacopy\n      returndatasize\n      not(0x1f)\n      0x1f\n      dup3\n      add\n      and\n      dup3\n      add\n      dup1\n      0x40\n      mstore\n      pop\n      dup2\n      add\n      swap1\n      tag_251\n      swap2\n      swap1\n      tag_201\n      jump\t// in\n    tag_251:\n        /* \"contracts/manager/FoodManager.sol\":1110:1161  categoryManager.getCategory(_categoryId).categoryId */\n      0x00\n      add\n      mload\n        /* \"contracts/manager/FoodManager.sol\":1110:1166  categoryManager.getCategory(_categoryId).categoryId != 0 */\n      sub\n        /* \"contracts/manager/FoodManager.sol\":1089:1215  require(... */\n      tag_252\n      jumpi\n      mload(0x40)\n      0x08c379a000000000000000000000000000000000000000000000000000000000\n      dup2\n      mstore\n      0x04\n      add\n      tag_253\n      swap1\n      tag_204\n      jump\t// in\n    tag_253:\n      mload(0x40)\n      dup1\n      swap2\n      sub\n      swap1\n      revert\n    tag_252:\n        /* \"contracts/manager/FoodManager.sol\":1285:1304  Food memory newFood */\n      0x00\n        /* \"contracts/manager/FoodManager.sol\":1307:1539  Food({... */\n      mload(0x40)\n      dup1\n      0xe0\n      add\n      0x40\n      mstore\n      dup1\n        /* \"contracts/manager/FoodManager.sol\":1334:1341  _foodId */\n      dup9\n        /* \"contracts/manager/FoodManager.sol\":1307:1539  Food({... */\n      dup2\n      mstore\n      0x20\n      add\n        /* \"contracts/manager/FoodManager.sol\":1361:1366  _name */\n      dup8\n        /* \"contracts/manager/FoodManager.sol\":1307:1539  Food({... */\n      dup2\n      mstore\n      0x20\n      add\n        /* \"contracts/manager/FoodManager.sol\":1393:1405  _description */\n      dup7\n        /* \"contracts/manager/FoodManager.sol\":1307:1539  Food({... */\n      dup2\n      mstore\n      0x20\n      add\n        /* \"contracts/manager/FoodManager.sol\":1431:1442  _categoryId */\n      dup6\n        /* \"contracts/manager/FoodManager.sol\":1307:1539  Food({... */\n      dup2\n      mstore\n      0x20\n      add\n        /* \"contracts/manager/FoodManager.sol\":1466:1475  _imageUrl */\n      dup5\n        /* \"contracts/manager/FoodManager.sol\":1307:1539  Food({... */\n      dup2\n      mstore\n      0x20\n      add\n        /* \"contracts/manager/FoodManager.sol\":1500:1501  0 */\n      0x00\n        /* \"contracts/manager/FoodManager.sol\":1307:1539  Food({... */\n      dup2\n      mstore\n      0x20\n      add\n        /* \"contracts/manager/FoodManager.sol\":1527:1528  0 */\n      0x00\n        /* \"contracts/manager/FoodManager.sol\":1307:1539  Food({... */\n      dup2\n      mstore\n      pop\n        /* \"contracts/manager/FoodManager.sol\":1285:1539  Food memory newFood = Food({... */\n      swap1\n      pop\n        /* \"contracts/manager/FoodManager.sol\":1566:1573  newFood */\n      dup1\n        /* \"contracts/manager/FoodManager.sol\":1549:1554  foods */\n      0x05\n        /* \"contracts/manager/FoodManager.sol\":1549:1563  foods[_foodId] */\n      0x00\n        /* \"contracts/manager/FoodManager.sol\":1555:1562  _foodId */\n      dup10\n        /* \"contracts/manager/FoodManager.sol\":1549:1563  foods[_foodId] */\n      dup2\n      mstore\n      0x20\n      add\n      swap1\n      dup2\n      mstore\n      0x20\n      add\n      0x00\n      keccak256\n        /* \"contracts/manager/FoodManager.sol\":1549:1573  foods[_foodId] = newFood */\n      0x00\n      dup3\n      add\n      mload\n      dup2\n      0x00\n      add\n      sstore\n      0x20\n      dup3\n      add\n      mload\n      dup2\n      0x01\n      add\n      swap1\n      dup2\n      tag_254\n      swap2\n      swap1\n      tag_165\n      jump\t// in\n    tag_254:\n      pop\n      0x40\n      dup3\n      add\n      mload\n      dup2\n      0x02\n      add\n      swap1\n      dup2\n      tag_255\n      swap2\n      swap1\n      tag_165\n      jump\t// in\n    tag_255:\n      pop\n      0x60\n      dup3\n      add\n      mload\n      dup2\n      0x03\n      add\n      sstore\n      0x80\n      dup3\n      add\n      mload\n      dup2\n      0x04\n      add\n      swap1\n      dup1\n      mload\n      swap1\n      0x20\n      add\n      swap1\n      tag_256\n      swap3\n      swap2\n      swap1\n      tag_208\n      jump\t// in\n    tag_256:\n      pop\n      0xa0\n      dup3\n      add\n      mload\n      dup2\n      0x05\n      add\n      sstore\n      0xc0\n      dup3\n      add\n      mload\n      dup2\n      0x06\n      add\n      sstore\n      swap1\n      pop\n      pop\n        /* \"contracts/manager/FoodManager.sol\":1583:1590  foodIds */\n      0x07\n        /* \"contracts/manager/FoodManager.sol\":1596:1603  _foodId */\n      dup8\n        /* \"contracts/manager/FoodManager.sol\":1583:1604  foodIds.push(_foodId) */\n      swap1\n      dup1\n      0x01\n      dup2\n      sload\n      add\n      dup1\n      dup3\n      sstore\n      dup1\n      swap2\n      pop\n      pop\n      0x01\n      swap1\n      sub\n      swap1\n      0x00\n      mstore\n      keccak256(0x00, 0x20)\n      add\n      0x00\n      swap1\n      swap2\n      swap1\n      swap2\n      swap1\n      swap2\n      pop\n      sstore\n        /* \"contracts/manager/FoodManager.sol\":1615:1630  categoryManager */\n      0x02\n      0x00\n      swap1\n      sload\n      swap1\n      0x0100\n      exp\n      swap1\n      div\n      0xffffffffffffffffffffffffffffffffffffffff\n      and\n        /* \"contracts/manager/FoodManager.sol\":1615:1650  categoryManager.addFoodIdToCategory */\n      0xffffffffffffffffffffffffffffffffffffffff\n      and\n      0x5f8069cc\n        /* \"contracts/manager/FoodManager.sol\":1651:1662  _categoryId */\n      dup6\n        /* \"contracts/manager/FoodManager.sol\":1663:1670  _foodId */\n      dup10\n        /* \"contracts/manager/FoodManager.sol\":1615:1671  categoryManager.addFoodIdToCategory(_categoryId,_foodId) */\n      mload(0x40)\n      dup4\n      0xffffffff\n      and\n      0xe0\n      shl\n      dup2\n      mstore\n      0x04\n      add\n      tag_258\n      swap3\n      swap2\n      swap1\n      tag_173\n      jump\t// in\n    tag_258:\n      0x00\n      mload(0x40)\n      dup1\n      dup4\n      sub\n      dup2\n      0x00\n      dup8\n      dup1\n      extcodesize\n      iszero\n      dup1\n      iszero\n      tag_259\n      jumpi\n      revert(0x00, 0x00)\n    tag_259:\n      pop\n      gas\n      call\n      iszero\n      dup1\n      iszero\n      tag_261\n      jumpi\n      returndatacopy(0x00, 0x00, returndatasize)\n      revert(0x00, returndatasize)\n    tag_261:\n      pop\n      pop\n      pop\n      pop\n        /* \"contracts/manager/FoodManager.sol\":1728:1737  uint256 i */\n      0x00\n        /* \"contracts/manager/FoodManager.sol\":1740:1741  0 */\n      0x00\n        /* \"contracts/manager/FoodManager.sol\":1728:1741  uint256 i = 0 */\n      swap1\n      pop\n        /* \"contracts/manager/FoodManager.sol\":1723:2130  for (uint256 i = 0; i < _foodDetail.length; i++) {... */\n    tag_262:\n        /* \"contracts/manager/FoodManager.sol\":1747:1758  _foodDetail */\n      dup3\n        /* \"contracts/manager/FoodManager.sol\":1747:1765  _foodDetail.length */\n      mload\n        /* \"contracts/manager/FoodManager.sol\":1743:1744  i */\n      dup2\n        /* \"contracts/manager/FoodManager.sol\":1743:1765  i < _foodDetail.length */\n      lt\n        /* \"contracts/manager/FoodManager.sol\":1723:2130  for (uint256 i = 0; i < _foodDetail.length; i++) {... */\n      iszero\n      tag_263\n      jumpi\n        /* \"contracts/manager/FoodManager.sol\":1786:1817  FoodDetail memory newFoodDetail */\n      0x00\n        /* \"contracts/manager/FoodManager.sol\":1820:2065  FoodDetail({... */\n      mload(0x40)\n      dup1\n      0x80\n      add\n      0x40\n      mstore\n      dup1\n        /* \"contracts/manager/FoodManager.sol\":1863:1879  nextFoodDetailId */\n      0x04\n      0x00\n        /* \"contracts/manager/FoodManager.sol\":1863:1881  nextFoodDetailId++ */\n      dup2\n      sload\n      dup1\n      swap3\n      swap2\n      swap1\n      tag_265\n      swap1\n      tag_184\n      jump\t// in\n    tag_265:\n      swap2\n      swap1\n      pop\n      sstore\n        /* \"contracts/manager/FoodManager.sol\":1820:2065  FoodDetail({... */\n      dup2\n      mstore\n      0x20\n      add\n        /* \"contracts/manager/FoodManager.sol\":1935:1946  _foodDetail */\n      dup6\n        /* \"contracts/manager/FoodManager.sol\":1947:1948  i */\n      dup5\n        /* \"contracts/manager/FoodManager.sol\":1935:1949  _foodDetail[i] */\n      dup2\n      mload\n      dup2\n      lt\n      tag_266\n      jumpi\n      tag_267\n      tag_102\n      jump\t// in\n    tag_267:\n    tag_266:\n      0x20\n      mul\n      0x20\n      add\n      add\n      mload\n        /* \"contracts/manager/FoodManager.sol\":1935:1954  _foodDetail[i].size */\n      0x00\n      add\n      mload\n        /* \"contracts/manager/FoodManager.sol\":1820:2065  FoodDetail({... */\n      dup2\n      mstore\n      0x20\n      add\n        /* \"contracts/manager/FoodManager.sol\":1982:1993  _foodDetail */\n      dup6\n        /* \"contracts/manager/FoodManager.sol\":1994:1995  i */\n      dup5\n        /* \"contracts/manager/FoodManager.sol\":1982:1996  _foodDetail[i] */\n      dup2\n      mload\n      dup2\n      lt\n      tag_268\n      jumpi\n      tag_269\n      tag_102\n      jump\t// in\n    tag_269:\n    tag_268:\n      0x20\n      mul\n      0x20\n      add\n      add\n      mload\n        /* \"contracts/manager/FoodManager.sol\":1982:2005  _foodDetail[i].quantity */\n      0x20\n      add\n      mload\n        /* \"contracts/manager/FoodManager.sol\":1820:2065  FoodDetail({... */\n      dup2\n      mstore\n      0x20\n      add\n        /* \"contracts/manager/FoodManager.sol\":2030:2041  _foodDetail */\n      dup6\n        /* \"contracts/manager/FoodManager.sol\":2042:2043  i */\n      dup5\n        /* \"contracts/manager/FoodManager.sol\":2030:2044  _foodDetail[i] */\n      dup2\n      mload\n      dup2\n      lt\n      tag_270\n      jumpi\n      tag_271\n      tag_102\n      jump\t// in\n    tag_271:\n    tag_270:\n      0x20\n      mul\n      0x20\n      add\n      add\n      mload\n        /* \"contracts/manager/FoodManager.sol\":2030:2050  _foodDetail[i].price */\n      0x40\n      add\n      mload\n        /* \"contracts/manager/FoodManager.sol\":1820:2065  FoodDetail({... */\n      dup2\n      mstore\n      pop\n        /* \"contracts/manager/FoodManager.sol\":1786:2065  FoodDetail memory newFoodDetail = FoodDetail({... */\n      swap1\n      pop\n        /* \"contracts/manager/FoodManager.sol\":2079:2090  foodDetails */\n      0x06\n        /* \"contracts/manager/FoodManager.sol\":2079:2099  foodDetails[_foodId] */\n      0x00\n        /* \"contracts/manager/FoodManager.sol\":2091:2098  _foodId */\n      dup11\n        /* \"contracts/manager/FoodManager.sol\":2079:2099  foodDetails[_foodId] */\n      dup2\n      mstore\n      0x20\n      add\n      swap1\n      dup2\n      mstore\n      0x20\n      add\n      0x00\n      keccak256\n        /* \"contracts/manager/FoodManager.sol\":2105:2118  newFoodDetail */\n      dup2\n        /* \"contracts/manager/FoodManager.sol\":2079:2119  foodDetails[_foodId].push(newFoodDetail) */\n      swap1\n      dup1\n      0x01\n      dup2\n      sload\n      add\n      dup1\n      dup3\n      sstore\n      dup1\n      swap2\n      pop\n      pop\n      0x01\n      swap1\n      sub\n      swap1\n      0x00\n      mstore\n      keccak256(0x00, 0x20)\n      swap1\n      0x04\n      mul\n      add\n      0x00\n      swap1\n      swap2\n      swap1\n      swap2\n      swap1\n      swap2\n      pop\n      0x00\n      dup3\n      add\n      mload\n      dup2\n      0x00\n      add\n      sstore\n      0x20\n      dup3\n      add\n      mload\n      dup2\n      0x01\n      add\n      swap1\n      dup2\n      tag_273\n      swap2\n      swap1\n      tag_165\n      jump\t// in\n    tag_273:\n      pop\n      0x40\n      dup3\n      add\n      mload\n      dup2\n      0x02\n      add\n      sstore\n      0x60\n      dup3\n      add\n      mload\n      dup2\n      0x03\n      add\n      sstore\n      pop\n      pop\n        /* \"contracts/manager/FoodManager.sol\":1772:2130  {... */\n      pop\n        /* \"contracts/manager/FoodManager.sol\":1767:1770  i++ */\n      dup1\n      dup1\n      0x01\n      add\n      swap2\n      pop\n      pop\n        /* \"contracts/manager/FoodManager.sol\":1723:2130  for (uint256 i = 0; i < _foodDetail.length; i++) {... */\n      jump(tag_262)\n    tag_263:\n      pop\n        /* \"contracts/manager/FoodManager.sol\":2191:2256  FoodCreated(_foodId, _name, _description, _categoryId, _imageUrl) */\n      0xbdf2814016d06bf27f22aa349fade26a888a8f7eac3e0963916b1c64cc37a5ce\n        /* \"contracts/manager/FoodManager.sol\":2203:2210  _foodId */\n      dup8\n        /* \"contracts/manager/FoodManager.sol\":2212:2217  _name */\n      dup8\n        /* \"contracts/manager/FoodManager.sol\":2219:2231  _description */\n      dup8\n        /* \"contracts/manager/FoodManager.sol\":2233:2244  _categoryId */\n      dup8\n        /* \"contracts/manager/FoodManager.sol\":2246:2255  _imageUrl */\n      dup8\n        /* \"contracts/manager/FoodManager.sol\":2191:2256  FoodCreated(_foodId, _name, _description, _categoryId, _imageUrl) */\n      mload(0x40)\n      tag_274\n      swap6\n      swap5\n      swap4\n      swap3\n      swap2\n      swap1\n      tag_210\n      jump\t// in\n    tag_274:\n      mload(0x40)\n      dup1\n      swap2\n      sub\n      swap1\n      log1\n        /* \"contracts/manager/FoodManager.sol\":932:2263  {... */\n      pop\n        /* \"contracts/manager/FoodManager.sol\":686:2263  function createFood(... */\n      pop\n      pop\n      pop\n      pop\n      pop\n      pop\n      jump\t// out\n        /* \"contracts/manager/FoodManager.sol\":6297:6803  function getAllFoods()... */\n    tag_82:\n        /* \"contracts/manager/FoodManager.sol\":6384:6408  FoodWithDetails[] memory */\n      0x60\n        /* \"contracts/manager/FoodManager.sol\":6424:6457  FoodWithDetails[] memory allFoods */\n      0x00\n        /* \"contracts/manager/FoodManager.sol\":6495:6502  foodIds */\n      0x07\n        /* \"contracts/manager/FoodManager.sol\":6495:6509  foodIds.length */\n      dup1\n      sload\n      swap1\n      pop\n        /* \"contracts/manager/FoodManager.sol\":6460:6519  new FoodWithDetails[](... */\n      0xffffffffffffffff\n      dup2\n      gt\n      iszero\n      tag_276\n      jumpi\n      tag_277\n      tag_278\n      jump\t// in\n    tag_277:\n    tag_276:\n      mload(0x40)\n      swap1\n      dup1\n      dup3\n      mstore\n      dup1\n      0x20\n      mul\n      0x20\n      add\n      dup3\n      add\n      0x40\n      mstore\n      dup1\n      iszero\n      tag_279\n      jumpi\n      dup2\n      0x20\n      add\n    tag_280:\n      tag_281\n      tag_282\n      jump\t// in\n    tag_281:\n      dup2\n      mstore\n      0x20\n      add\n      swap1\n      0x01\n      swap1\n      sub\n      swap1\n      dup2\n      tag_280\n      jumpi\n      swap1\n      pop\n    tag_279:\n      pop\n        /* \"contracts/manager/FoodManager.sol\":6424:6519  FoodWithDetails[] memory allFoods = new FoodWithDetails[](... */\n      swap1\n      pop\n        /* \"contracts/manager/FoodManager.sol\":6534:6543  uint256 i */\n      0x00\n        /* \"contracts/manager/FoodManager.sol\":6546:6547  0 */\n      0x00\n        /* \"contracts/manager/FoodManager.sol\":6534:6547  uint256 i = 0 */\n      swap1\n      pop\n        /* \"contracts/manager/FoodManager.sol\":6529:6772  for (uint256 i = 0; i < foodIds.length; i++) {... */\n    tag_283:\n        /* \"contracts/manager/FoodManager.sol\":6553:6560  foodIds */\n      0x07\n        /* \"contracts/manager/FoodManager.sol\":6553:6567  foodIds.length */\n      dup1\n      sload\n      swap1\n      pop\n        /* \"contracts/manager/FoodManager.sol\":6549:6550  i */\n      dup2\n        /* \"contracts/manager/FoodManager.sol\":6549:6567  i < foodIds.length */\n      lt\n        /* \"contracts/manager/FoodManager.sol\":6529:6772  for (uint256 i = 0; i < foodIds.length; i++) {... */\n      iszero\n      tag_284\n      jumpi\n        /* \"contracts/manager/FoodManager.sol\":6588:6602  uint256 foodId */\n      0x00\n        /* \"contracts/manager/FoodManager.sol\":6605:6612  foodIds */\n      0x07\n        /* \"contracts/manager/FoodManager.sol\":6613:6614  i */\n      dup3\n        /* \"contracts/manager/FoodManager.sol\":6605:6615  foodIds[i] */\n      dup2\n      sload\n      dup2\n      lt\n      tag_286\n      jumpi\n      tag_287\n      tag_102\n      jump\t// in\n    tag_287:\n    tag_286:\n      swap1\n      0x00\n      mstore\n      keccak256(0x00, 0x20)\n      add\n      sload\n        /* \"contracts/manager/FoodManager.sol\":6588:6615  uint256 foodId = foodIds[i] */\n      swap1\n      pop\n        /* \"contracts/manager/FoodManager.sol\":6643:6761  FoodWithDetails({... */\n      mload(0x40)\n      dup1\n      0x40\n      add\n      0x40\n      mstore\n      dup1\n        /* \"contracts/manager/FoodManager.sol\":6683:6688  foods */\n      0x05\n        /* \"contracts/manager/FoodManager.sol\":6683:6696  foods[foodId] */\n      0x00\n        /* \"contracts/manager/FoodManager.sol\":6689:6695  foodId */\n      dup5\n        /* \"contracts/manager/FoodManager.sol\":6683:6696  foods[foodId] */\n      dup2\n      mstore\n      0x20\n      add\n      swap1\n      dup2\n      mstore\n      0x20\n      add\n      0x00\n      keccak256\n        /* \"contracts/manager/FoodManager.sol\":6643:6761  FoodWithDetails({... */\n      mload(0x40)\n      dup1\n      0xe0\n      add\n      0x40\n      mstore\n      swap1\n      dup2\n      0x00\n      dup3\n      add\n      sload\n      dup2\n      mstore\n      0x20\n      add\n      0x01\n      dup3\n      add\n      dup1\n      sload\n      tag_289\n      swap1\n      tag_121\n      jump\t// in\n    tag_289:\n      dup1\n      0x1f\n      add\n      0x20\n      dup1\n      swap2\n      div\n      mul\n      0x20\n      add\n      mload(0x40)\n      swap1\n      dup2\n      add\n      0x40\n      mstore\n      dup1\n      swap3\n      swap2\n      swap1\n      dup2\n      dup2\n      mstore\n      0x20\n      add\n      dup3\n      dup1\n      sload\n      tag_290\n      swap1\n      tag_121\n      jump\t// in\n    tag_290:\n      dup1\n      iszero\n      tag_291\n      jumpi\n      dup1\n      0x1f\n      lt\n      tag_292\n      jumpi\n      0x0100\n      dup1\n      dup4\n      sload\n      div\n      mul\n      dup4\n      mstore\n      swap2\n      0x20\n      add\n      swap2\n      jump(tag_291)\n    tag_292:\n      dup3\n      add\n      swap2\n      swap1\n      0x00\n      mstore\n      keccak256(0x00, 0x20)\n      swap1\n    tag_293:\n      dup2\n      sload\n      dup2\n      mstore\n      swap1\n      0x01\n      add\n      swap1\n      0x20\n      add\n      dup1\n      dup4\n      gt\n      tag_293\n      jumpi\n      dup3\n      swap1\n      sub\n      0x1f\n      and\n      dup3\n      add\n      swap2\n    tag_291:\n      pop\n      pop\n      pop\n      pop\n      pop\n      dup2\n      mstore\n      0x20\n      add\n      0x02\n      dup3\n      add\n      dup1\n      sload\n      tag_294\n      swap1\n      tag_121\n      jump\t// in\n    tag_294:\n      dup1\n      0x1f\n      add\n      0x20\n      dup1\n      swap2\n      div\n      mul\n      0x20\n      add\n      mload(0x40)\n      swap1\n      dup2\n      add\n      0x40\n      mstore\n      dup1\n      swap3\n      swap2\n      swap1\n      dup2\n      dup2\n      mstore\n      0x20\n      add\n      dup3\n      dup1\n      sload\n      tag_295\n      swap1\n      tag_121\n      jump\t// in\n    tag_295:\n      dup1\n      iszero\n      tag_296\n      jumpi\n      dup1\n      0x1f\n      lt\n      tag_297\n      jumpi\n      0x0100\n      dup1\n      dup4\n      sload\n      div\n      mul\n      dup4\n      mstore\n      swap2\n      0x20\n      add\n      swap2\n      jump(tag_296)\n    tag_297:\n      dup3\n      add\n      swap2\n      swap1\n      0x00\n      mstore\n      keccak256(0x00, 0x20)\n      swap1\n    tag_298:\n      dup2\n      sload\n      dup2\n      mstore\n      swap1\n      0x01\n      add\n      swap1\n      0x20\n      add\n      dup1\n      dup4\n      gt\n      tag_298\n      jumpi\n      dup3\n      swap1\n      sub\n      0x1f\n      and\n      dup3\n      add\n      swap2\n    tag_296:\n      pop\n      pop\n      pop\n      pop\n      pop\n      dup2\n      mstore\n      0x20\n      add\n      0x03\n      dup3\n      add\n      sload\n      dup2\n      mstore\n      0x20\n      add\n      0x04\n      dup3\n      add\n      dup1\n      sload\n      dup1\n      0x20\n      mul\n      0x20\n      add\n      mload(0x40)\n      swap1\n      dup2\n      add\n      0x40\n      mstore\n      dup1\n      swap3\n      swap2\n      swap1\n      dup2\n      dup2\n      mstore\n      0x20\n      add\n      0x00\n      swap1\n    tag_299:\n      dup3\n      dup3\n      lt\n      iszero\n      tag_300\n      jumpi\n      dup4\n      dup3\n      swap1\n      0x00\n      mstore\n      keccak256(0x00, 0x20)\n      add\n      dup1\n      sload\n      tag_302\n      swap1\n      tag_121\n      jump\t// in\n    tag_302:\n      dup1\n      0x1f\n      add\n      0x20\n      dup1\n      swap2\n      div\n      mul\n      0x20\n      add\n      mload(0x40)\n      swap1\n      dup2\n      add\n      0x40\n      mstore\n      dup1\n      swap3\n      swap2\n      swap1\n      dup2\n      dup2\n      mstore\n      0x20\n      add\n      dup3\n      dup1\n      sload\n      tag_303\n      swap1\n      tag_121\n      jump\t// in\n    tag_303:\n      dup1\n      iszero\n      tag_304\n      jumpi\n      dup1\n      0x1f\n      lt\n      tag_305\n      jumpi\n      0x0100\n      dup1\n      dup4\n      sload\n      div\n      mul\n      dup4\n      mstore\n      swap2\n      0x20\n      add\n      swap2\n      jump(tag_304)\n    tag_305:\n      dup3\n      add\n      swap2\n      swap1\n      0x00\n      mstore\n      keccak256(0x00, 0x20)\n      swap1\n    tag_306:\n      dup2\n      sload\n      dup2\n      mstore\n      swap1\n      0x01\n      add\n      swap1\n      0x20\n      add\n      dup1\n      dup4\n      gt\n      tag_306\n      jumpi\n      dup3\n      swap1\n      sub\n      0x1f\n      and\n      dup3\n      add\n      swap2\n    tag_304:\n      pop\n      pop\n      pop\n      pop\n      pop\n      dup2\n      mstore\n      0x20\n      add\n      swap1\n      0x01\n      add\n      swap1\n      jump(tag_299)\n    tag_300:\n      pop\n      pop\n      pop\n      pop\n      dup2\n      mstore\n      0x20\n      add\n      0x05\n      dup3\n      add\n      sload\n      dup2\n      mstore\n      0x20\n      add\n      0x06\n      dup3\n      add\n      sload\n      dup2\n      mstore\n      pop\n      pop\n      dup2\n      mstore\n      0x20\n      add\n        /* \"contracts/manager/FoodManager.sol\":6727:6738  foodDetails */\n      0x06\n        /* \"contracts/manager/FoodManager.sol\":6727:6746  foodDetails[foodId] */\n      0x00\n        /* \"contracts/manager/FoodManager.sol\":6739:6745  foodId */\n      dup5\n        /* \"contracts/manager/FoodManager.sol\":6727:6746  foodDetails[foodId] */\n      dup2\n      mstore\n      0x20\n      add\n      swap1\n      dup2\n      mstore\n      0x20\n      add\n      0x00\n      keccak256\n        /* \"contracts/manager/FoodManager.sol\":6643:6761  FoodWithDetails({... */\n      dup1\n      sload\n      dup1\n      0x20\n      mul\n      0x20\n      add\n      mload(0x40)\n      swap1\n      dup2\n      add\n      0x40\n      mstore\n      dup1\n      swap3\n      swap2\n      swap1\n      dup2\n      dup2\n      mstore\n      0x20\n      add\n      0x00\n      swap1\n    tag_307:\n      dup3\n      dup3\n      lt\n      iszero\n      tag_308\n      jumpi\n      dup4\n      dup3\n      swap1\n      0x00\n      mstore\n      keccak256(0x00, 0x20)\n      swap1\n      0x04\n      mul\n      add\n      mload(0x40)\n      dup1\n      0x80\n      add\n      0x40\n      mstore\n      swap1\n      dup2\n      0x00\n      dup3\n      add\n      sload\n      dup2\n      mstore\n      0x20\n      add\n      0x01\n      dup3\n      add\n      dup1\n      sload\n      tag_310\n      swap1\n      tag_121\n      jump\t// in\n    tag_310:\n      dup1\n      0x1f\n      add\n      0x20\n      dup1\n      swap2\n      div\n      mul\n      0x20\n      add\n      mload(0x40)\n      swap1\n      dup2\n      add\n      0x40\n      mstore\n      dup1\n      swap3\n      swap2\n      swap1\n      dup2\n      dup2\n      mstore\n      0x20\n      add\n      dup3\n      dup1\n      sload\n      tag_311\n      swap1\n      tag_121\n      jump\t// in\n    tag_311:\n      dup1\n      iszero\n      tag_312\n      jumpi\n      dup1\n      0x1f\n      lt\n      tag_313\n      jumpi\n      0x0100\n      dup1\n      dup4\n      sload\n      div\n      mul\n      dup4\n      mstore\n      swap2\n      0x20\n      add\n      swap2\n      jump(tag_312)\n    tag_313:\n      dup3\n      add\n      swap2\n      swap1\n      0x00\n      mstore\n      keccak256(0x00, 0x20)\n      swap1\n    tag_314:\n      dup2\n      sload\n      dup2\n      mstore\n      swap1\n      0x01\n      add\n      swap1\n      0x20\n      add\n      dup1\n      dup4\n      gt\n      tag_314\n      jumpi\n      dup3\n      swap1\n      sub\n      0x1f\n      and\n      dup3\n      add\n      swap2\n    tag_312:\n      pop\n      pop\n      pop\n      pop\n      pop\n      dup2\n      mstore\n      0x20\n      add\n      0x02\n      dup3\n      add\n      sload\n      dup2\n      mstore\n      0x20\n      add\n      0x03\n      dup3\n      add\n      sload\n      dup2\n      mstore\n      pop\n      pop\n      dup2\n      mstore\n      0x20\n      add\n      swap1\n      0x01\n      add\n      swap1\n      jump(tag_307)\n    tag_308:\n      pop\n      pop\n      pop\n      pop\n      dup2\n      mstore\n      pop\n        /* \"contracts/manager/FoodManager.sol\":6629:6637  allFoods */\n      dup4\n        /* \"contracts/manager/FoodManager.sol\":6638:6639  i */\n      dup4\n        /* \"contracts/manager/FoodManager.sol\":6629:6640  allFoods[i] */\n      dup2\n      mload\n      dup2\n      lt\n      tag_315\n      jumpi\n      tag_316\n      tag_102\n      jump\t// in\n    tag_316:\n    tag_315:\n      0x20\n      mul\n      0x20\n      add\n      add\n        /* \"contracts/manager/FoodManager.sol\":6629:6761  allFoods[i] = FoodWithDetails({... */\n      dup2\n      swap1\n      mstore\n      pop\n        /* \"contracts/manager/FoodManager.sol\":6574:6772  {... */\n      pop\n        /* \"contracts/manager/FoodManager.sol\":6569:6572  i++ */\n      dup1\n      dup1\n      0x01\n      add\n      swap2\n      pop\n      pop\n        /* \"contracts/manager/FoodManager.sol\":6529:6772  for (uint256 i = 0; i < foodIds.length; i++) {... */\n      jump(tag_283)\n    tag_284:\n      pop\n        /* \"contracts/manager/FoodManager.sol\":6788:6796  allFoods */\n      dup1\n        /* \"contracts/manager/FoodManager.sol\":6781:6796  return allFoods */\n      swap2\n      pop\n      pop\n        /* \"contracts/manager/FoodManager.sol\":6297:6803  function getAllFoods()... */\n      swap1\n      jump\t// out\n        /* \"contracts/manager/FoodManager.sol\":4185:5002  function updateFoodDetail(... */\n    tag_88:\n        /* \"contracts/manager/FoodManager.sol\":4374:4375  0 */\n      0x00\n        /* \"contracts/manager/FoodManager.sol\":4350:4355  foods */\n      0x05\n        /* \"contracts/manager/FoodManager.sol\":4350:4363  foods[foodId] */\n      0x00\n        /* \"contracts/manager/FoodManager.sol\":4356:4362  foodId */\n      dup6\n        /* \"contracts/manager/FoodManager.sol\":4350:4363  foods[foodId] */\n      dup2\n      mstore\n      0x20\n      add\n      swap1\n      dup2\n      mstore\n      0x20\n      add\n      0x00\n      keccak256\n        /* \"contracts/manager/FoodManager.sol\":4350:4370  foods[foodId].foodId */\n      0x00\n      add\n      sload\n        /* \"contracts/manager/FoodManager.sol\":4350:4375  foods[foodId].foodId != 0 */\n      sub\n        /* \"contracts/manager/FoodManager.sol\":4342:4399  require(foods[foodId].foodId != 0, \"Food does not exist\") */\n      tag_318\n      jumpi\n      mload(0x40)\n      0x08c379a000000000000000000000000000000000000000000000000000000000\n      dup2\n      mstore\n      0x04\n      add\n      tag_319\n      swap1\n      tag_119\n      jump\t// in\n    tag_319:\n      mload(0x40)\n      dup1\n      swap2\n      sub\n      swap1\n      revert\n    tag_318:\n        /* \"contracts/manager/FoodManager.sol\":4409:4444  FoodDetail[] storage foodDetailList */\n      0x00\n        /* \"contracts/manager/FoodManager.sol\":4447:4458  foodDetails */\n      0x06\n        /* \"contracts/manager/FoodManager.sol\":4447:4466  foodDetails[foodId] */\n      0x00\n        /* \"contracts/manager/FoodManager.sol\":4459:4465  foodId */\n      dup6\n        /* \"contracts/manager/FoodManager.sol\":4447:4466  foodDetails[foodId] */\n      dup2\n      mstore\n      0x20\n      add\n      swap1\n      dup2\n      mstore\n      0x20\n      add\n      0x00\n      keccak256\n        /* \"contracts/manager/FoodManager.sol\":4409:4466  FoodDetail[] storage foodDetailList = foodDetails[foodId] */\n      swap1\n      pop\n        /* \"contracts/manager/FoodManager.sol\":4476:4486  bool found */\n      0x00\n        /* \"contracts/manager/FoodManager.sol\":4489:4494  false */\n      0x00\n        /* \"contracts/manager/FoodManager.sol\":4476:4494  bool found = false */\n      swap1\n      pop\n        /* \"contracts/manager/FoodManager.sol\":4509:4518  uint256 i */\n      0x00\n        /* \"contracts/manager/FoodManager.sol\":4521:4522  0 */\n      0x00\n        /* \"contracts/manager/FoodManager.sol\":4509:4522  uint256 i = 0 */\n      swap1\n      pop\n        /* \"contracts/manager/FoodManager.sol\":4504:4943  for (uint256 i = 0; i < foodDetailList.length; i++) {... */\n    tag_320:\n        /* \"contracts/manager/FoodManager.sol\":4528:4542  foodDetailList */\n      dup3\n        /* \"contracts/manager/FoodManager.sol\":4528:4549  foodDetailList.length */\n      dup1\n      sload\n      swap1\n      pop\n        /* \"contracts/manager/FoodManager.sol\":4524:4525  i */\n      dup2\n        /* \"contracts/manager/FoodManager.sol\":4524:4549  i < foodDetailList.length */\n      lt\n        /* \"contracts/manager/FoodManager.sol\":4504:4943  for (uint256 i = 0; i < foodDetailList.length; i++) {... */\n      iszero\n      tag_321\n      jumpi\n        /* \"contracts/manager/FoodManager.sol\":4608:4620  foodDetailId */\n      dup5\n        /* \"contracts/manager/FoodManager.sol\":4574:4588  foodDetailList */\n      dup4\n        /* \"contracts/manager/FoodManager.sol\":4589:4590  i */\n      dup3\n        /* \"contracts/manager/FoodManager.sol\":4574:4591  foodDetailList[i] */\n      dup2\n      sload\n      dup2\n      lt\n      tag_323\n      jumpi\n      tag_324\n      tag_102\n      jump\t// in\n    tag_324:\n    tag_323:\n      swap1\n      0x00\n      mstore\n      keccak256(0x00, 0x20)\n      swap1\n      0x04\n      mul\n      add\n        /* \"contracts/manager/FoodManager.sol\":4574:4604  foodDetailList[i].foodDetailId */\n      0x00\n      add\n      sload\n        /* \"contracts/manager/FoodManager.sol\":4574:4620  foodDetailList[i].foodDetailId == foodDetailId */\n      sub\n        /* \"contracts/manager/FoodManager.sol\":4570:4933  if (foodDetailList[i].foodDetailId == foodDetailId) {... */\n      tag_326\n      jumpi\n        /* \"contracts/manager/FoodManager.sol\":4665:4674  newDetail */\n      dup4\n        /* \"contracts/manager/FoodManager.sol\":4665:4679  newDetail.size */\n      0x00\n      add\n      mload\n        /* \"contracts/manager/FoodManager.sol\":4640:4654  foodDetailList */\n      dup4\n        /* \"contracts/manager/FoodManager.sol\":4655:4656  i */\n      dup3\n        /* \"contracts/manager/FoodManager.sol\":4640:4657  foodDetailList[i] */\n      dup2\n      sload\n      dup2\n      lt\n      tag_327\n      jumpi\n      tag_328\n      tag_102\n      jump\t// in\n    tag_328:\n    tag_327:\n      swap1\n      0x00\n      mstore\n      keccak256(0x00, 0x20)\n      swap1\n      0x04\n      mul\n      add\n        /* \"contracts/manager/FoodManager.sol\":4640:4662  foodDetailList[i].size */\n      0x01\n      add\n        /* \"contracts/manager/FoodManager.sol\":4640:4679  foodDetailList[i].size = newDetail.size */\n      swap1\n      dup2\n      tag_330\n      swap2\n      swap1\n      tag_165\n      jump\t// in\n    tag_330:\n      pop\n        /* \"contracts/manager/FoodManager.sol\":4726:4735  newDetail */\n      dup4\n        /* \"contracts/manager/FoodManager.sol\":4726:4744  newDetail.quantity */\n      0x20\n      add\n      mload\n        /* \"contracts/manager/FoodManager.sol\":4697:4711  foodDetailList */\n      dup4\n        /* \"contracts/manager/FoodManager.sol\":4712:4713  i */\n      dup3\n        /* \"contracts/manager/FoodManager.sol\":4697:4714  foodDetailList[i] */\n      dup2\n      sload\n      dup2\n      lt\n      tag_331\n      jumpi\n      tag_332\n      tag_102\n      jump\t// in\n    tag_332:\n    tag_331:\n      swap1\n      0x00\n      mstore\n      keccak256(0x00, 0x20)\n      swap1\n      0x04\n      mul\n      add\n        /* \"contracts/manager/FoodManager.sol\":4697:4723  foodDetailList[i].quantity */\n      0x02\n      add\n        /* \"contracts/manager/FoodManager.sol\":4697:4744  foodDetailList[i].quantity = newDetail.quantity */\n      dup2\n      swap1\n      sstore\n      pop\n        /* \"contracts/manager/FoodManager.sol\":4788:4797  newDetail */\n      dup4\n        /* \"contracts/manager/FoodManager.sol\":4788:4803  newDetail.price */\n      0x40\n      add\n      mload\n        /* \"contracts/manager/FoodManager.sol\":4762:4776  foodDetailList */\n      dup4\n        /* \"contracts/manager/FoodManager.sol\":4777:4778  i */\n      dup3\n        /* \"contracts/manager/FoodManager.sol\":4762:4779  foodDetailList[i] */\n      dup2\n      sload\n      dup2\n      lt\n      tag_334\n      jumpi\n      tag_335\n      tag_102\n      jump\t// in\n    tag_335:\n    tag_334:\n      swap1\n      0x00\n      mstore\n      keccak256(0x00, 0x20)\n      swap1\n      0x04\n      mul\n      add\n        /* \"contracts/manager/FoodManager.sol\":4762:4785  foodDetailList[i].price */\n      0x03\n      add\n        /* \"contracts/manager/FoodManager.sol\":4762:4803  foodDetailList[i].price = newDetail.price */\n      dup2\n      swap1\n      sstore\n      pop\n        /* \"contracts/manager/FoodManager.sol\":4829:4833  true */\n      0x01\n        /* \"contracts/manager/FoodManager.sol\":4821:4833  found = true */\n      swap2\n      pop\n        /* \"contracts/manager/FoodManager.sol\":4856:4895  FoodDetailUpdated(foodId, foodDetailId) */\n      0xe29e1e70959f0c301943d01c4bd294592a2105bc81e9b2523c4b1d7f7d1f393f\n        /* \"contracts/manager/FoodManager.sol\":4874:4880  foodId */\n      dup7\n        /* \"contracts/manager/FoodManager.sol\":4882:4894  foodDetailId */\n      dup7\n        /* \"contracts/manager/FoodManager.sol\":4856:4895  FoodDetailUpdated(foodId, foodDetailId) */\n      mload(0x40)\n      tag_337\n      swap3\n      swap2\n      swap1\n      tag_173\n      jump\t// in\n    tag_337:\n      mload(0x40)\n      dup1\n      swap2\n      sub\n      swap1\n      log1\n        /* \"contracts/manager/FoodManager.sol\":4913:4918  break */\n      jump(tag_321)\n        /* \"contracts/manager/FoodManager.sol\":4570:4933  if (foodDetailList[i].foodDetailId == foodDetailId) {... */\n    tag_326:\n        /* \"contracts/manager/FoodManager.sol\":4551:4554  i++ */\n      dup1\n      dup1\n      0x01\n      add\n      swap2\n      pop\n      pop\n        /* \"contracts/manager/FoodManager.sol\":4504:4943  for (uint256 i = 0; i < foodDetailList.length; i++) {... */\n      jump(tag_320)\n    tag_321:\n      pop\n        /* \"contracts/manager/FoodManager.sol\":4960:4965  found */\n      dup1\n        /* \"contracts/manager/FoodManager.sol\":4952:4995  require(found, \"FoodDetail does not exist\") */\n      tag_338\n      jumpi\n      mload(0x40)\n      0x08c379a000000000000000000000000000000000000000000000000000000000\n      dup2\n      mstore\n      0x04\n      add\n      tag_339\n      swap1\n      tag_176\n      jump\t// in\n    tag_339:\n      mload(0x40)\n      dup1\n      swap2\n      sub\n      swap1\n      revert\n    tag_338:\n        /* \"contracts/manager/FoodManager.sol\":4332:5002  {... */\n      pop\n      pop\n        /* \"contracts/manager/FoodManager.sol\":4185:5002  function updateFoodDetail(... */\n      pop\n      pop\n      pop\n      jump\t// out\n        /* \"contracts/manager/FoodManager.sol\":2948:3491  function deleteFood(uint256 foodId) external override {... */\n    tag_91:\n        /* \"contracts/manager/FoodManager.sol\":3044:3045  0 */\n      0x00\n        /* \"contracts/manager/FoodManager.sol\":3020:3025  foods */\n      0x05\n        /* \"contracts/manager/FoodManager.sol\":3020:3033  foods[foodId] */\n      0x00\n        /* \"contracts/manager/FoodManager.sol\":3026:3032  foodId */\n      dup4\n        /* \"contracts/manager/FoodManager.sol\":3020:3033  foods[foodId] */\n      dup2\n      mstore\n      0x20\n      add\n      swap1\n      dup2\n      mstore\n      0x20\n      add\n      0x00\n      keccak256\n        /* \"contracts/manager/FoodManager.sol\":3020:3040  foods[foodId].foodId */\n      0x00\n      add\n      sload\n        /* \"contracts/manager/FoodManager.sol\":3020:3045  foods[foodId].foodId != 0 */\n      sub\n        /* \"contracts/manager/FoodManager.sol\":3012:3069  require(foods[foodId].foodId != 0, \"Food does not exist\") */\n      tag_341\n      jumpi\n      mload(0x40)\n      0x08c379a000000000000000000000000000000000000000000000000000000000\n      dup2\n      mstore\n      0x04\n      add\n      tag_342\n      swap1\n      tag_119\n      jump\t// in\n    tag_342:\n      mload(0x40)\n      dup1\n      swap2\n      sub\n      swap1\n      revert\n    tag_341:\n        /* \"contracts/manager/FoodManager.sol\":3086:3091  foods */\n      0x05\n        /* \"contracts/manager/FoodManager.sol\":3086:3099  foods[foodId] */\n      0x00\n        /* \"contracts/manager/FoodManager.sol\":3092:3098  foodId */\n      dup3\n        /* \"contracts/manager/FoodManager.sol\":3086:3099  foods[foodId] */\n      dup2\n      mstore\n      0x20\n      add\n      swap1\n      dup2\n      mstore\n      0x20\n      add\n      0x00\n      keccak256\n      0x00\n        /* \"contracts/manager/FoodManager.sol\":3079:3099  delete foods[foodId] */\n      0x00\n      dup3\n      add\n      0x00\n      swap1\n      sstore\n      0x01\n      dup3\n      add\n      0x00\n      tag_343\n      swap2\n      swap1\n      tag_171\n      jump\t// in\n    tag_343:\n      0x02\n      dup3\n      add\n      0x00\n      tag_344\n      swap2\n      swap1\n      tag_171\n      jump\t// in\n    tag_344:\n      0x03\n      dup3\n      add\n      0x00\n      swap1\n      sstore\n      0x04\n      dup3\n      add\n      0x00\n      tag_345\n      swap2\n      swap1\n      tag_346\n      jump\t// in\n    tag_345:\n      0x05\n      dup3\n      add\n      0x00\n      swap1\n      sstore\n      0x06\n      dup3\n      add\n      0x00\n      swap1\n      sstore\n      pop\n      pop\n        /* \"contracts/manager/FoodManager.sol\":3163:3174  foodDetails */\n      0x06\n        /* \"contracts/manager/FoodManager.sol\":3163:3182  foodDetails[foodId] */\n      0x00\n        /* \"contracts/manager/FoodManager.sol\":3175:3181  foodId */\n      dup3\n        /* \"contracts/manager/FoodManager.sol\":3163:3182  foodDetails[foodId] */\n      dup2\n      mstore\n      0x20\n      add\n      swap1\n      dup2\n      mstore\n      0x20\n      add\n      0x00\n      keccak256\n      0x00\n        /* \"contracts/manager/FoodManager.sol\":3156:3182  delete foodDetails[foodId] */\n      tag_347\n      swap2\n      swap1\n      tag_348\n      jump\t// in\n    tag_347:\n        /* \"contracts/manager/FoodManager.sol\":3234:3243  uint256 i */\n      0x00\n        /* \"contracts/manager/FoodManager.sol\":3246:3247  0 */\n      0x00\n        /* \"contracts/manager/FoodManager.sol\":3234:3247  uint256 i = 0 */\n      swap1\n      pop\n        /* \"contracts/manager/FoodManager.sol\":3229:3451  for (uint256 i = 0; i < foodIds.length; i++) {... */\n    tag_349:\n        /* \"contracts/manager/FoodManager.sol\":3253:3260  foodIds */\n      0x07\n        /* \"contracts/manager/FoodManager.sol\":3253:3267  foodIds.length */\n      dup1\n      sload\n      swap1\n      pop\n        /* \"contracts/manager/FoodManager.sol\":3249:3250  i */\n      dup2\n        /* \"contracts/manager/FoodManager.sol\":3249:3267  i < foodIds.length */\n      lt\n        /* \"contracts/manager/FoodManager.sol\":3229:3451  for (uint256 i = 0; i < foodIds.length; i++) {... */\n      iszero\n      tag_350\n      jumpi\n        /* \"contracts/manager/FoodManager.sol\":3306:3312  foodId */\n      dup2\n        /* \"contracts/manager/FoodManager.sol\":3292:3299  foodIds */\n      0x07\n        /* \"contracts/manager/FoodManager.sol\":3300:3301  i */\n      dup3\n        /* \"contracts/manager/FoodManager.sol\":3292:3302  foodIds[i] */\n      dup2\n      sload\n      dup2\n      lt\n      tag_352\n      jumpi\n      tag_353\n      tag_102\n      jump\t// in\n    tag_353:\n    tag_352:\n      swap1\n      0x00\n      mstore\n      keccak256(0x00, 0x20)\n      add\n      sload\n        /* \"contracts/manager/FoodManager.sol\":3292:3312  foodIds[i] == foodId */\n      sub\n        /* \"contracts/manager/FoodManager.sol\":3288:3441  if (foodIds[i] == foodId) {... */\n      tag_355\n      jumpi\n        /* \"contracts/manager/FoodManager.sol\":3345:3352  foodIds */\n      0x07\n        /* \"contracts/manager/FoodManager.sol\":3370:3371  1 */\n      0x01\n        /* \"contracts/manager/FoodManager.sol\":3353:3360  foodIds */\n      0x07\n        /* \"contracts/manager/FoodManager.sol\":3353:3367  foodIds.length */\n      dup1\n      sload\n      swap1\n      pop\n        /* \"contracts/manager/FoodManager.sol\":3353:3371  foodIds.length - 1 */\n      tag_356\n      swap2\n      swap1\n      tag_152\n      jump\t// in\n    tag_356:\n        /* \"contracts/manager/FoodManager.sol\":3345:3372  foodIds[foodIds.length - 1] */\n      dup2\n      sload\n      dup2\n      lt\n      tag_357\n      jumpi\n      tag_358\n      tag_102\n      jump\t// in\n    tag_358:\n    tag_357:\n      swap1\n      0x00\n      mstore\n      keccak256(0x00, 0x20)\n      add\n      sload\n        /* \"contracts/manager/FoodManager.sol\":3332:3339  foodIds */\n      0x07\n        /* \"contracts/manager/FoodManager.sol\":3340:3341  i */\n      dup3\n        /* \"contracts/manager/FoodManager.sol\":3332:3342  foodIds[i] */\n      dup2\n      sload\n      dup2\n      lt\n      tag_360\n      jumpi\n      tag_361\n      tag_102\n      jump\t// in\n    tag_361:\n    tag_360:\n      swap1\n      0x00\n      mstore\n      keccak256(0x00, 0x20)\n      add\n        /* \"contracts/manager/FoodManager.sol\":3332:3372  foodIds[i] = foodIds[foodIds.length - 1] */\n      dup2\n      swap1\n      sstore\n      pop\n        /* \"contracts/manager/FoodManager.sol\":3390:3397  foodIds */\n      0x07\n        /* \"contracts/manager/FoodManager.sol\":3390:3403  foodIds.pop() */\n      dup1\n      sload\n      dup1\n      tag_363\n      jumpi\n      tag_364\n      tag_168\n      jump\t// in\n    tag_364:\n    tag_363:\n      0x01\n      swap1\n      sub\n      dup2\n      dup2\n      swap1\n      0x00\n      mstore\n      keccak256(0x00, 0x20)\n      add\n      0x00\n      swap1\n      sstore\n      swap1\n      sstore\n        /* \"contracts/manager/FoodManager.sol\":3421:3426  break */\n      jump(tag_350)\n        /* \"contracts/manager/FoodManager.sol\":3288:3441  if (foodIds[i] == foodId) {... */\n    tag_355:\n        /* \"contracts/manager/FoodManager.sol\":3269:3272  i++ */\n      dup1\n      dup1\n      0x01\n      add\n      swap2\n      pop\n      pop\n        /* \"contracts/manager/FoodManager.sol\":3229:3451  for (uint256 i = 0; i < foodIds.length; i++) {... */\n      jump(tag_349)\n    tag_350:\n      pop\n        /* \"contracts/manager/FoodManager.sol\":3465:3484  FoodDeleted(foodId) */\n      0x4d4e7c43d5805933523b1317fdd5acb7517962d3e9f52834633b9f0149477295\n        /* \"contracts/manager/FoodManager.sol\":3477:3483  foodId */\n      dup2\n        /* \"contracts/manager/FoodManager.sol\":3465:3484  FoodDeleted(foodId) */\n      mload(0x40)\n      tag_366\n      swap2\n      swap1\n      tag_35\n      jump\t// in\n    tag_366:\n      mload(0x40)\n      dup1\n      swap2\n      sub\n      swap1\n      log1\n        /* \"contracts/manager/FoodManager.sol\":2948:3491  function deleteFood(uint256 foodId) external override {... */\n      pop\n      jump\t// out\n        /* \"contracts/manager/FoodManager.sol\":271:310  ICategoryManager public categoryManager */\n    tag_93:\n      0x02\n      0x00\n      swap1\n      sload\n      swap1\n      0x0100\n      exp\n      swap1\n      div\n      0xffffffffffffffffffffffffffffffffffffffff\n      and\n      dup2\n      jump\t// out\n    tag_115:\n      mload(0x40)\n      dup1\n      0xe0\n      add\n      0x40\n      mstore\n      dup1\n      0x00\n      dup2\n      mstore\n      0x20\n      add\n      0x60\n      dup2\n      mstore\n      0x20\n      add\n      0x60\n      dup2\n      mstore\n      0x20\n      add\n      0x00\n      dup2\n      mstore\n      0x20\n      add\n      0x60\n      dup2\n      mstore\n      0x20\n      add\n      0x00\n      dup2\n      mstore\n      0x20\n      add\n      0x00\n      dup2\n      mstore\n      pop\n      swap1\n      jump\t// out\n    tag_171:\n      pop\n      dup1\n      sload\n      tag_367\n      swap1\n      tag_121\n      jump\t// in\n    tag_367:\n      0x00\n      dup3\n      sstore\n      dup1\n      0x1f\n      lt\n      tag_369\n      jumpi\n      pop\n      jump(tag_368)\n    tag_369:\n      0x1f\n      add\n      0x20\n      swap1\n      div\n      swap1\n      0x00\n      mstore\n      keccak256(0x00, 0x20)\n      swap1\n      dup2\n      add\n      swap1\n      tag_370\n      swap2\n      swap1\n      tag_371\n      jump\t// in\n    tag_370:\n    tag_368:\n      pop\n      jump\t// out\n    tag_208:\n      dup3\n      dup1\n      sload\n      dup3\n      dup3\n      sstore\n      swap1\n      0x00\n      mstore\n      keccak256(0x00, 0x20)\n      swap1\n      dup2\n      add\n      swap3\n      dup3\n      iszero\n      tag_372\n      jumpi\n      swap2\n      0x20\n      mul\n      dup3\n      add\n    tag_373:\n      dup3\n      dup2\n      gt\n      iszero\n      tag_374\n      jumpi\n      dup3\n      mload\n      dup3\n      swap1\n      dup2\n      tag_375\n      swap2\n      swap1\n      tag_165\n      jump\t// in\n    tag_375:\n      pop\n      swap2\n      0x20\n      add\n      swap2\n      swap1\n      0x01\n      add\n      swap1\n      jump(tag_373)\n    tag_374:\n    tag_372:\n      pop\n      swap1\n      pop\n      tag_376\n      swap2\n      swap1\n      tag_377\n      jump\t// in\n    tag_376:\n      pop\n      swap1\n      jump\t// out\n    tag_282:\n      mload(0x40)\n      dup1\n      0x40\n      add\n      0x40\n      mstore\n      dup1\n      tag_378\n      tag_115\n      jump\t// in\n    tag_378:\n      dup2\n      mstore\n      0x20\n      add\n      0x60\n      dup2\n      mstore\n      pop\n      swap1\n      jump\t// out\n    tag_346:\n      pop\n      dup1\n      sload\n      0x00\n      dup3\n      sstore\n      swap1\n      0x00\n      mstore\n      keccak256(0x00, 0x20)\n      swap1\n      dup2\n      add\n      swap1\n      tag_380\n      swap2\n      swap1\n      tag_377\n      jump\t// in\n    tag_380:\n      pop\n      jump\t// out\n    tag_348:\n      pop\n      dup1\n      sload\n      0x00\n      dup3\n      sstore\n      0x04\n      mul\n      swap1\n      0x00\n      mstore\n      keccak256(0x00, 0x20)\n      swap1\n      dup2\n      add\n      swap1\n      tag_382\n      swap2\n      swap1\n      tag_383\n      jump\t// in\n    tag_382:\n      pop\n      jump\t// out\n    tag_371:\n    tag_384:\n      dup1\n      dup3\n      gt\n      iszero\n      tag_385\n      jumpi\n      0x00\n      dup2\n      0x00\n      swap1\n      sstore\n      pop\n      0x01\n      add\n      jump(tag_384)\n    tag_385:\n      pop\n      swap1\n      jump\t// out\n    tag_377:\n    tag_386:\n      dup1\n      dup3\n      gt\n      iszero\n      tag_387\n      jumpi\n      0x00\n      dup2\n      dup2\n      tag_388\n      swap2\n      swap1\n      tag_171\n      jump\t// in\n    tag_388:\n      pop\n      0x01\n      add\n      jump(tag_386)\n    tag_387:\n      pop\n      swap1\n      jump\t// out\n    tag_383:\n    tag_389:\n      dup1\n      dup3\n      gt\n      iszero\n      tag_390\n      jumpi\n      0x00\n      0x00\n      dup3\n      add\n      0x00\n      swap1\n      sstore\n      0x01\n      dup3\n      add\n      0x00\n      tag_391\n      swap2\n      swap1\n      tag_171\n      jump\t// in\n    tag_391:\n      0x02\n      dup3\n      add\n      0x00\n      swap1\n      sstore\n      0x03\n      dup3\n      add\n      0x00\n      swap1\n      sstore\n      pop\n      0x04\n      add\n      jump(tag_389)\n    tag_390:\n      pop\n      swap1\n      jump\t// out\n        /* \"#utility.yul\":7:82   */\n    tag_392:\n        /* \"#utility.yul\":40:46   */\n      0x00\n        /* \"#utility.yul\":73:75   */\n      0x40\n        /* \"#utility.yul\":67:76   */\n      mload\n        /* \"#utility.yul\":57:76   */\n      swap1\n      pop\n        /* \"#utility.yul\":7:82   */\n      swap1\n      jump\t// out\n        /* \"#utility.yul\":88:205   */\n    tag_393:\n        /* \"#utility.yul\":197:198   */\n      0x00\n        /* \"#utility.yul\":194:195   */\n      0x00\n        /* \"#utility.yul\":187:199   */\n      revert\n        /* \"#utility.yul\":211:328   */\n    tag_394:\n        /* \"#utility.yul\":320:321   */\n      0x00\n        /* \"#utility.yul\":317:318   */\n      0x00\n        /* \"#utility.yul\":310:322   */\n      revert\n        /* \"#utility.yul\":334:411   */\n    tag_395:\n        /* \"#utility.yul\":371:378   */\n      0x00\n        /* \"#utility.yul\":400:405   */\n      dup2\n        /* \"#utility.yul\":389:405   */\n      swap1\n      pop\n        /* \"#utility.yul\":334:411   */\n      swap2\n      swap1\n      pop\n      jump\t// out\n        /* \"#utility.yul\":417:539   */\n    tag_396:\n        /* \"#utility.yul\":490:514   */\n      tag_501\n        /* \"#utility.yul\":508:513   */\n      dup2\n        /* \"#utility.yul\":490:514   */\n      tag_395\n      jump\t// in\n    tag_501:\n        /* \"#utility.yul\":483:488   */\n      dup2\n        /* \"#utility.yul\":480:515   */\n      eq\n        /* \"#utility.yul\":470:533   */\n      tag_502\n      jumpi\n        /* \"#utility.yul\":529:530   */\n      0x00\n        /* \"#utility.yul\":526:527   */\n      0x00\n        /* \"#utility.yul\":519:531   */\n      revert\n        /* \"#utility.yul\":470:533   */\n    tag_502:\n        /* \"#utility.yul\":417:539   */\n      pop\n      jump\t// out\n        /* \"#utility.yul\":545:684   */\n    tag_397:\n        /* \"#utility.yul\":591:596   */\n      0x00\n        /* \"#utility.yul\":629:635   */\n      dup2\n        /* \"#utility.yul\":616:636   */\n      calldataload\n        /* \"#utility.yul\":607:636   */\n      swap1\n      pop\n        /* \"#utility.yul\":645:678   */\n      tag_504\n        /* \"#utility.yul\":672:677   */\n      dup2\n        /* \"#utility.yul\":645:678   */\n      tag_396\n      jump\t// in\n    tag_504:\n        /* \"#utility.yul\":545:684   */\n      swap3\n      swap2\n      pop\n      pop\n      jump\t// out\n        /* \"#utility.yul\":690:1309   */\n    tag_26:\n        /* \"#utility.yul\":767:773   */\n      0x00\n        /* \"#utility.yul\":775:781   */\n      0x00\n        /* \"#utility.yul\":783:789   */\n      0x00\n        /* \"#utility.yul\":832:834   */\n      0x60\n        /* \"#utility.yul\":820:829   */\n      dup5\n        /* \"#utility.yul\":811:818   */\n      dup7\n        /* \"#utility.yul\":807:830   */\n      sub\n        /* \"#utility.yul\":803:835   */\n      slt\n        /* \"#utility.yul\":800:919   */\n      iszero\n      tag_506\n      jumpi\n        /* \"#utility.yul\":838:917   */\n      tag_507\n      tag_393\n      jump\t// in\n    tag_507:\n        /* \"#utility.yul\":800:919   */\n    tag_506:\n        /* \"#utility.yul\":958:959   */\n      0x00\n        /* \"#utility.yul\":983:1036   */\n      tag_508\n        /* \"#utility.yul\":1028:1035   */\n      dup7\n        /* \"#utility.yul\":1019:1025   */\n      dup3\n        /* \"#utility.yul\":1008:1017   */\n      dup8\n        /* \"#utility.yul\":1004:1026   */\n      add\n        /* \"#utility.yul\":983:1036   */\n      tag_397\n      jump\t// in\n    tag_508:\n        /* \"#utility.yul\":973:1036   */\n      swap4\n      pop\n        /* \"#utility.yul\":929:1046   */\n      pop\n        /* \"#utility.yul\":1085:1087   */\n      0x20\n        /* \"#utility.yul\":1111:1164   */\n      tag_509\n        /* \"#utility.yul\":1156:1163   */\n      dup7\n        /* \"#utility.yul\":1147:1153   */\n      dup3\n        /* \"#utility.yul\":1136:1145   */\n      dup8\n        /* \"#utility.yul\":1132:1154   */\n      add\n        /* \"#utility.yul\":1111:1164   */\n      tag_397\n      jump\t// in\n    tag_509:\n        /* \"#utility.yul\":1101:1164   */\n      swap3\n      pop\n        /* \"#utility.yul\":1056:1174   */\n      pop\n        /* \"#utility.yul\":1213:1215   */\n      0x40\n        /* \"#utility.yul\":1239:1292   */\n      tag_510\n        /* \"#utility.yul\":1284:1291   */\n      dup7\n        /* \"#utility.yul\":1275:1281   */\n      dup3\n        /* \"#utility.yul\":1264:1273   */\n      dup8\n        /* \"#utility.yul\":1260:1282   */\n      add\n        /* \"#utility.yul\":1239:1292   */\n      tag_397\n      jump\t// in\n    tag_510:\n        /* \"#utility.yul\":1229:1292   */\n      swap2\n      pop\n        /* \"#utility.yul\":1184:1302   */\n      pop\n        /* \"#utility.yul\":690:1309   */\n      swap3\n      pop\n      swap3\n      pop\n      swap3\n      jump\t// out\n        /* \"#utility.yul\":1315:1441   */\n    tag_398:\n        /* \"#utility.yul\":1352:1359   */\n      0x00\n        /* \"#utility.yul\":1392:1434   */\n      0xffffffffffffffffffffffffffffffffffffffff\n        /* \"#utility.yul\":1385:1390   */\n      dup3\n        /* \"#utility.yul\":1381:1435   */\n      and\n        /* \"#utility.yul\":1370:1435   */\n      swap1\n      pop\n        /* \"#utility.yul\":1315:1441   */\n      swap2\n      swap1\n      pop\n      jump\t// out\n        /* \"#utility.yul\":1447:1543   */\n    tag_399:\n        /* \"#utility.yul\":1484:1491   */\n      0x00\n        /* \"#utility.yul\":1513:1537   */\n      tag_513\n        /* \"#utility.yul\":1531:1536   */\n      dup3\n        /* \"#utility.yul\":1513:1537   */\n      tag_398\n      jump\t// in\n    tag_513:\n        /* \"#utility.yul\":1502:1537   */\n      swap1\n      pop\n        /* \"#utility.yul\":1447:1543   */\n      swap2\n      swap1\n      pop\n      jump\t// out\n        /* \"#utility.yul\":1549:1671   */\n    tag_400:\n        /* \"#utility.yul\":1622:1646   */\n      tag_515\n        /* \"#utility.yul\":1640:1645   */\n      dup2\n        /* \"#utility.yul\":1622:1646   */\n      tag_399\n      jump\t// in\n    tag_515:\n        /* \"#utility.yul\":1615:1620   */\n      dup2\n        /* \"#utility.yul\":1612:1647   */\n      eq\n        /* \"#utility.yul\":1602:1665   */\n      tag_516\n      jumpi\n        /* \"#utility.yul\":1661:1662   */\n      0x00\n        /* \"#utility.yul\":1658:1659   */\n      0x00\n        /* \"#utility.yul\":1651:1663   */\n      revert\n        /* \"#utility.yul\":1602:1665   */\n    tag_516:\n        /* \"#utility.yul\":1549:1671   */\n      pop\n      jump\t// out\n        /* \"#utility.yul\":1677:1816   */\n    tag_401:\n        /* \"#utility.yul\":1723:1728   */\n      0x00\n        /* \"#utility.yul\":1761:1767   */\n      dup2\n        /* \"#utility.yul\":1748:1768   */\n      calldataload\n        /* \"#utility.yul\":1739:1768   */\n      swap1\n      pop\n        /* \"#utility.yul\":1777:1810   */\n      tag_518\n        /* \"#utility.yul\":1804:1809   */\n      dup2\n        /* \"#utility.yul\":1777:1810   */\n      tag_400\n      jump\t// in\n    tag_518:\n        /* \"#utility.yul\":1677:1816   */\n      swap3\n      swap2\n      pop\n      pop\n      jump\t// out\n        /* \"#utility.yul\":1822:2151   */\n    tag_30:\n        /* \"#utility.yul\":1881:1887   */\n      0x00\n        /* \"#utility.yul\":1930:1932   */\n      0x20\n        /* \"#utility.yul\":1918:1927   */\n      dup3\n        /* \"#utility.yul\":1909:1916   */\n      dup5\n        /* \"#utility.yul\":1905:1928   */\n      sub\n        /* \"#utility.yul\":1901:1933   */\n      slt\n        /* \"#utility.yul\":1898:2017   */\n      iszero\n      tag_520\n      jumpi\n        /* \"#utility.yul\":1936:2015   */\n      tag_521\n      tag_393\n      jump\t// in\n    tag_521:\n        /* \"#utility.yul\":1898:2017   */\n    tag_520:\n        /* \"#utility.yul\":2056:2057   */\n      0x00\n        /* \"#utility.yul\":2081:2134   */\n      tag_522\n        /* \"#utility.yul\":2126:2133   */\n      dup5\n        /* \"#utility.yul\":2117:2123   */\n      dup3\n        /* \"#utility.yul\":2106:2115   */\n      dup6\n        /* \"#utility.yul\":2102:2124   */\n      add\n        /* \"#utility.yul\":2081:2134   */\n      tag_401\n      jump\t// in\n    tag_522:\n        /* \"#utility.yul\":2071:2134   */\n      swap2\n      pop\n        /* \"#utility.yul\":2027:2144   */\n      pop\n        /* \"#utility.yul\":1822:2151   */\n      swap3\n      swap2\n      pop\n      pop\n      jump\t// out\n        /* \"#utility.yul\":2157:2275   */\n    tag_402:\n        /* \"#utility.yul\":2244:2268   */\n      tag_524\n        /* \"#utility.yul\":2262:2267   */\n      dup2\n        /* \"#utility.yul\":2244:2268   */\n      tag_395\n      jump\t// in\n    tag_524:\n        /* \"#utility.yul\":2239:2242   */\n      dup3\n        /* \"#utility.yul\":2232:2269   */\n      mstore\n        /* \"#utility.yul\":2157:2275   */\n      pop\n      pop\n      jump\t// out\n        /* \"#utility.yul\":2281:2503   */\n    tag_35:\n        /* \"#utility.yul\":2374:2378   */\n      0x00\n        /* \"#utility.yul\":2412:2414   */\n      0x20\n        /* \"#utility.yul\":2401:2410   */\n      dup3\n        /* \"#utility.yul\":2397:2415   */\n      add\n        /* \"#utility.yul\":2389:2415   */\n      swap1\n      pop\n        /* \"#utility.yul\":2425:2496   */\n      tag_526\n        /* \"#utility.yul\":2493:2494   */\n      0x00\n        /* \"#utility.yul\":2482:2491   */\n      dup4\n        /* \"#utility.yul\":2478:2495   */\n      add\n        /* \"#utility.yul\":2469:2475   */\n      dup5\n        /* \"#utility.yul\":2425:2496   */\n      tag_402\n      jump\t// in\n    tag_526:\n        /* \"#utility.yul\":2281:2503   */\n      swap3\n      swap2\n      pop\n      pop\n      jump\t// out\n        /* \"#utility.yul\":2509:2838   */\n    tag_41:\n        /* \"#utility.yul\":2568:2574   */\n      0x00\n        /* \"#utility.yul\":2617:2619   */\n      0x20\n        /* \"#utility.yul\":2605:2614   */\n      dup3\n        /* \"#utility.yul\":2596:2603   */\n      dup5\n        /* \"#utility.yul\":2592:2615   */\n      sub\n        /* \"#utility.yul\":2588:2620   */\n      slt\n        /* \"#utility.yul\":2585:2704   */\n      iszero\n      tag_528\n      jumpi\n        /* \"#utility.yul\":2623:2702   */\n      tag_529\n      tag_393\n      jump\t// in\n    tag_529:\n        /* \"#utility.yul\":2585:2704   */\n    tag_528:\n        /* \"#utility.yul\":2743:2744   */\n      0x00\n        /* \"#utility.yul\":2768:2821   */\n      tag_530\n        /* \"#utility.yul\":2813:2820   */\n      dup5\n        /* \"#utility.yul\":2804:2810   */\n      dup3\n        /* \"#utility.yul\":2793:2802   */\n      dup6\n        /* \"#utility.yul\":2789:2811   */\n      add\n        /* \"#utility.yul\":2768:2821   */\n      tag_397\n      jump\t// in\n    tag_530:\n        /* \"#utility.yul\":2758:2821   */\n      swap2\n      pop\n        /* \"#utility.yul\":2714:2831   */\n      pop\n        /* \"#utility.yul\":2509:2838   */\n      swap3\n      swap2\n      pop\n      pop\n      jump\t// out\n        /* \"#utility.yul\":2844:2952   */\n    tag_403:\n        /* \"#utility.yul\":2921:2945   */\n      tag_532\n        /* \"#utility.yul\":2939:2944   */\n      dup2\n        /* \"#utility.yul\":2921:2945   */\n      tag_395\n      jump\t// in\n    tag_532:\n        /* \"#utility.yul\":2916:2919   */\n      dup3\n        /* \"#utility.yul\":2909:2946   */\n      mstore\n        /* \"#utility.yul\":2844:2952   */\n      pop\n      pop\n      jump\t// out\n        /* \"#utility.yul\":2958:3057   */\n    tag_404:\n        /* \"#utility.yul\":3010:3016   */\n      0x00\n        /* \"#utility.yul\":3044:3049   */\n      dup2\n        /* \"#utility.yul\":3038:3050   */\n      mload\n        /* \"#utility.yul\":3028:3050   */\n      swap1\n      pop\n        /* \"#utility.yul\":2958:3057   */\n      swap2\n      swap1\n      pop\n      jump\t// out\n        /* \"#utility.yul\":3063:3222   */\n    tag_405:\n        /* \"#utility.yul\":3137:3148   */\n      0x00\n        /* \"#utility.yul\":3171:3177   */\n      dup3\n        /* \"#utility.yul\":3166:3169   */\n      dup3\n        /* \"#utility.yul\":3159:3178   */\n      mstore\n        /* \"#utility.yul\":3211:3215   */\n      0x20\n        /* \"#utility.yul\":3206:3209   */\n      dup3\n        /* \"#utility.yul\":3202:3216   */\n      add\n        /* \"#utility.yul\":3187:3216   */\n      swap1\n      pop\n        /* \"#utility.yul\":3063:3222   */\n      swap3\n      swap2\n      pop\n      pop\n      jump\t// out\n        /* \"#utility.yul\":3228:3367   */\n    tag_406:\n        /* \"#utility.yul\":3317:3323   */\n      dup3\n        /* \"#utility.yul\":3312:3315   */\n      dup2\n        /* \"#utility.yul\":3307:3310   */\n      dup4\n        /* \"#utility.yul\":3301:3324   */\n      mcopy\n        /* \"#utility.yul\":3358:3359   */\n      0x00\n        /* \"#utility.yul\":3349:3355   */\n      dup4\n        /* \"#utility.yul\":3344:3347   */\n      dup4\n        /* \"#utility.yul\":3340:3356   */\n      add\n        /* \"#utility.yul\":3333:3360   */\n      mstore\n        /* \"#utility.yul\":3228:3367   */\n      pop\n      pop\n      pop\n      jump\t// out\n        /* \"#utility.yul\":3373:3475   */\n    tag_407:\n        /* \"#utility.yul\":3414:3420   */\n      0x00\n        /* \"#utility.yul\":3465:3467   */\n      0x1f\n        /* \"#utility.yul\":3461:3468   */\n      not\n        /* \"#utility.yul\":3456:3458   */\n      0x1f\n        /* \"#utility.yul\":3449:3454   */\n      dup4\n        /* \"#utility.yul\":3445:3459   */\n      add\n        /* \"#utility.yul\":3441:3469   */\n      and\n        /* \"#utility.yul\":3431:3469   */\n      swap1\n      pop\n        /* \"#utility.yul\":3373:3475   */\n      swap2\n      swap1\n      pop\n      jump\t// out\n        /* \"#utility.yul\":3481:3838   */\n    tag_408:\n        /* \"#utility.yul\":3559:3562   */\n      0x00\n        /* \"#utility.yul\":3587:3626   */\n      tag_538\n        /* \"#utility.yul\":3620:3625   */\n      dup3\n        /* \"#utility.yul\":3587:3626   */\n      tag_404\n      jump\t// in\n    tag_538:\n        /* \"#utility.yul\":3642:3703   */\n      tag_539\n        /* \"#utility.yul\":3696:3702   */\n      dup2\n        /* \"#utility.yul\":3691:3694   */\n      dup6\n        /* \"#utility.yul\":3642:3703   */\n      tag_405\n      jump\t// in\n    tag_539:\n        /* \"#utility.yul\":3635:3703   */\n      swap4\n      pop\n        /* \"#utility.yul\":3712:3777   */\n      tag_540\n        /* \"#utility.yul\":3770:3776   */\n      dup2\n        /* \"#utility.yul\":3765:3768   */\n      dup6\n        /* \"#utility.yul\":3758:3762   */\n      0x20\n        /* \"#utility.yul\":3751:3756   */\n      dup7\n        /* \"#utility.yul\":3747:3763   */\n      add\n        /* \"#utility.yul\":3712:3777   */\n      tag_406\n      jump\t// in\n    tag_540:\n        /* \"#utility.yul\":3802:3831   */\n      tag_541\n        /* \"#utility.yul\":3824:3830   */\n      dup2\n        /* \"#utility.yul\":3802:3831   */\n      tag_407\n      jump\t// in\n    tag_541:\n        /* \"#utility.yul\":3797:3800   */\n      dup5\n        /* \"#utility.yul\":3793:3832   */\n      add\n        /* \"#utility.yul\":3786:3832   */\n      swap2\n      pop\n        /* \"#utility.yul\":3563:3838   */\n      pop\n        /* \"#utility.yul\":3481:3838   */\n      swap3\n      swap2\n      pop\n      pop\n      jump\t// out\n        /* \"#utility.yul\":3844:3968   */\n    tag_409:\n        /* \"#utility.yul\":3921:3927   */\n      0x00\n        /* \"#utility.yul\":3955:3960   */\n      dup2\n        /* \"#utility.yul\":3949:3961   */\n      mload\n        /* \"#utility.yul\":3939:3961   */\n      swap1\n      pop\n        /* \"#utility.yul\":3844:3968   */\n      swap2\n      swap1\n      pop\n      jump\t// out\n        /* \"#utility.yul\":3974:4158   */\n    tag_410:\n        /* \"#utility.yul\":4073:4084   */\n      0x00\n        /* \"#utility.yul\":4107:4113   */\n      dup3\n        /* \"#utility.yul\":4102:4105   */\n      dup3\n        /* \"#utility.yul\":4095:4114   */\n      mstore\n        /* \"#utility.yul\":4147:4151   */\n      0x20\n        /* \"#utility.yul\":4142:4145   */\n      dup3\n        /* \"#utility.yul\":4138:4152   */\n      add\n        /* \"#utility.yul\":4123:4152   */\n      swap1\n      pop\n        /* \"#utility.yul\":3974:4158   */\n      swap3\n      swap2\n      pop\n      pop\n      jump\t// out\n        /* \"#utility.yul\":4164:4306   */\n    tag_411:\n        /* \"#utility.yul\":4241:4245   */\n      0x00\n        /* \"#utility.yul\":4264:4267   */\n      dup2\n        /* \"#utility.yul\":4256:4267   */\n      swap1\n      pop\n        /* \"#utility.yul\":4294:4298   */\n      0x20\n        /* \"#utility.yul\":4289:4292   */\n      dup3\n        /* \"#utility.yul\":4285:4299   */\n      add\n        /* \"#utility.yul\":4277:4299   */\n      swap1\n      pop\n        /* \"#utility.yul\":4164:4306   */\n      swap2\n      swap1\n      pop\n      jump\t// out\n        /* \"#utility.yul\":4312:4508   */\n    tag_412:\n        /* \"#utility.yul\":4401:4411   */\n      0x00\n        /* \"#utility.yul\":4436:4502   */\n      tag_546\n        /* \"#utility.yul\":4498:4501   */\n      dup4\n        /* \"#utility.yul\":4490:4496   */\n      dup4\n        /* \"#utility.yul\":4436:4502   */\n      tag_408\n      jump\t// in\n    tag_546:\n        /* \"#utility.yul\":4422:4502   */\n      swap1\n      pop\n        /* \"#utility.yul\":4312:4508   */\n      swap3\n      swap2\n      pop\n      pop\n      jump\t// out\n        /* \"#utility.yul\":4514:4637   */\n    tag_413:\n        /* \"#utility.yul\":4594:4598   */\n      0x00\n        /* \"#utility.yul\":4626:4630   */\n      0x20\n        /* \"#utility.yul\":4621:4624   */\n      dup3\n        /* \"#utility.yul\":4617:4631   */\n      add\n        /* \"#utility.yul\":4609:4631   */\n      swap1\n      pop\n        /* \"#utility.yul\":4514:4637   */\n      swap2\n      swap1\n      pop\n      jump\t// out\n        /* \"#utility.yul\":4671:5642   */\n    tag_414:\n        /* \"#utility.yul\":4800:4803   */\n      0x00\n        /* \"#utility.yul\":4829:4893   */\n      tag_549\n        /* \"#utility.yul\":4887:4892   */\n      dup3\n        /* \"#utility.yul\":4829:4893   */\n      tag_409\n      jump\t// in\n    tag_549:\n        /* \"#utility.yul\":4909:4995   */\n      tag_550\n        /* \"#utility.yul\":4988:4994   */\n      dup2\n        /* \"#utility.yul\":4983:4986   */\n      dup6\n        /* \"#utility.yul\":4909:4995   */\n      tag_410\n      jump\t// in\n    tag_550:\n        /* \"#utility.yul\":4902:4995   */\n      swap4\n      pop\n        /* \"#utility.yul\":5021:5024   */\n      dup4\n        /* \"#utility.yul\":5066:5070   */\n      0x20\n        /* \"#utility.yul\":5058:5064   */\n      dup3\n        /* \"#utility.yul\":5054:5071   */\n      mul\n        /* \"#utility.yul\":5049:5052   */\n      dup6\n        /* \"#utility.yul\":5045:5072   */\n      add\n        /* \"#utility.yul\":5096:5162   */\n      tag_551\n        /* \"#utility.yul\":5156:5161   */\n      dup6\n        /* \"#utility.yul\":5096:5162   */\n      tag_411\n      jump\t// in\n    tag_551:\n        /* \"#utility.yul\":5185:5192   */\n      dup1\n        /* \"#utility.yul\":5216:5217   */\n      0x00\n        /* \"#utility.yul\":5201:5597   */\n    tag_552:\n        /* \"#utility.yul\":5226:5232   */\n      dup6\n        /* \"#utility.yul\":5223:5224   */\n      dup2\n        /* \"#utility.yul\":5220:5233   */\n      lt\n        /* \"#utility.yul\":5201:5597   */\n      iszero\n      tag_554\n      jumpi\n        /* \"#utility.yul\":5297:5306   */\n      dup5\n        /* \"#utility.yul\":5291:5295   */\n      dup5\n        /* \"#utility.yul\":5287:5307   */\n      sub\n        /* \"#utility.yul\":5282:5285   */\n      dup10\n        /* \"#utility.yul\":5275:5308   */\n      mstore\n        /* \"#utility.yul\":5348:5354   */\n      dup2\n        /* \"#utility.yul\":5342:5355   */\n      mload\n        /* \"#utility.yul\":5376:5460   */\n      tag_555\n        /* \"#utility.yul\":5455:5459   */\n      dup6\n        /* \"#utility.yul\":5440:5453   */\n      dup3\n        /* \"#utility.yul\":5376:5460   */\n      tag_412\n      jump\t// in\n    tag_555:\n        /* \"#utility.yul\":5368:5460   */\n      swap5\n      pop\n        /* \"#utility.yul\":5483:5553   */\n      tag_556\n        /* \"#utility.yul\":5546:5552   */\n      dup4\n        /* \"#utility.yul\":5483:5553   */\n      tag_413\n      jump\t// in\n    tag_556:\n        /* \"#utility.yul\":5473:5553   */\n      swap3\n      pop\n        /* \"#utility.yul\":5582:5586   */\n      0x20\n        /* \"#utility.yul\":5577:5580   */\n      dup11\n        /* \"#utility.yul\":5573:5587   */\n      add\n        /* \"#utility.yul\":5566:5587   */\n      swap10\n      pop\n        /* \"#utility.yul\":5261:5597   */\n      pop\n        /* \"#utility.yul\":5248:5249   */\n      0x01\n        /* \"#utility.yul\":5245:5246   */\n      dup2\n        /* \"#utility.yul\":5241:5250   */\n      add\n        /* \"#utility.yul\":5236:5250   */\n      swap1\n      pop\n        /* \"#utility.yul\":5201:5597   */\n      jump(tag_552)\n    tag_554:\n        /* \"#utility.yul\":5205:5219   */\n      pop\n        /* \"#utility.yul\":5613:5617   */\n      dup3\n        /* \"#utility.yul\":5606:5617   */\n      swap8\n      pop\n        /* \"#utility.yul\":5633:5636   */\n      dup8\n        /* \"#utility.yul\":5626:5636   */\n      swap6\n      pop\n        /* \"#utility.yul\":4805:5642   */\n      pop\n      pop\n      pop\n      pop\n      pop\n        /* \"#utility.yul\":4671:5642   */\n      swap3\n      swap2\n      pop\n      pop\n      jump\t// out\n        /* \"#utility.yul\":5682:7375   */\n    tag_415:\n        /* \"#utility.yul\":5795:5798   */\n      0x00\n        /* \"#utility.yul\":5831:5835   */\n      0xe0\n        /* \"#utility.yul\":5826:5829   */\n      dup4\n        /* \"#utility.yul\":5822:5836   */\n      add\n        /* \"#utility.yul\":5920:5924   */\n      0x00\n        /* \"#utility.yul\":5913:5918   */\n      dup4\n        /* \"#utility.yul\":5909:5925   */\n      add\n        /* \"#utility.yul\":5903:5926   */\n      mload\n        /* \"#utility.yul\":5939:6002   */\n      tag_558\n        /* \"#utility.yul\":5996:6000   */\n      0x00\n        /* \"#utility.yul\":5991:5994   */\n      dup7\n        /* \"#utility.yul\":5987:6001   */\n      add\n        /* \"#utility.yul\":5973:5985   */\n      dup3\n        /* \"#utility.yul\":5939:6002   */\n      tag_403\n      jump\t// in\n    tag_558:\n        /* \"#utility.yul\":5846:6012   */\n      pop\n        /* \"#utility.yul\":6094:6098   */\n      0x20\n        /* \"#utility.yul\":6087:6092   */\n      dup4\n        /* \"#utility.yul\":6083:6099   */\n      add\n        /* \"#utility.yul\":6077:6100   */\n      mload\n        /* \"#utility.yul\":6147:6150   */\n      dup5\n        /* \"#utility.yul\":6141:6145   */\n      dup3\n        /* \"#utility.yul\":6137:6151   */\n      sub\n        /* \"#utility.yul\":6130:6134   */\n      0x20\n        /* \"#utility.yul\":6125:6128   */\n      dup7\n        /* \"#utility.yul\":6121:6135   */\n      add\n        /* \"#utility.yul\":6114:6152   */\n      mstore\n        /* \"#utility.yul\":6173:6246   */\n      tag_559\n        /* \"#utility.yul\":6241:6245   */\n      dup3\n        /* \"#utility.yul\":6227:6239   */\n      dup3\n        /* \"#utility.yul\":6173:6246   */\n      tag_408\n      jump\t// in\n    tag_559:\n        /* \"#utility.yul\":6165:6246   */\n      swap2\n      pop\n        /* \"#utility.yul\":6022:6257   */\n      pop\n        /* \"#utility.yul\":6346:6350   */\n      0x40\n        /* \"#utility.yul\":6339:6344   */\n      dup4\n        /* \"#utility.yul\":6335:6351   */\n      add\n        /* \"#utility.yul\":6329:6352   */\n      mload\n        /* \"#utility.yul\":6399:6402   */\n      dup5\n        /* \"#utility.yul\":6393:6397   */\n      dup3\n        /* \"#utility.yul\":6389:6403   */\n      sub\n        /* \"#utility.yul\":6382:6386   */\n      0x40\n        /* \"#utility.yul\":6377:6380   */\n      dup7\n        /* \"#utility.yul\":6373:6387   */\n      add\n        /* \"#utility.yul\":6366:6404   */\n      mstore\n        /* \"#utility.yul\":6425:6498   */\n      tag_560\n        /* \"#utility.yul\":6493:6497   */\n      dup3\n        /* \"#utility.yul\":6479:6491   */\n      dup3\n        /* \"#utility.yul\":6425:6498   */\n      tag_408\n      jump\t// in\n    tag_560:\n        /* \"#utility.yul\":6417:6498   */\n      swap2\n      pop\n        /* \"#utility.yul\":6267:6509   */\n      pop\n        /* \"#utility.yul\":6597:6601   */\n      0x60\n        /* \"#utility.yul\":6590:6595   */\n      dup4\n        /* \"#utility.yul\":6586:6602   */\n      add\n        /* \"#utility.yul\":6580:6603   */\n      mload\n        /* \"#utility.yul\":6616:6679   */\n      tag_561\n        /* \"#utility.yul\":6673:6677   */\n      0x60\n        /* \"#utility.yul\":6668:6671   */\n      dup7\n        /* \"#utility.yul\":6664:6678   */\n      add\n        /* \"#utility.yul\":6650:6662   */\n      dup3\n        /* \"#utility.yul\":6616:6679   */\n      tag_403\n      jump\t// in\n    tag_561:\n        /* \"#utility.yul\":6519:6689   */\n      pop\n        /* \"#utility.yul\":6775:6779   */\n      0x80\n        /* \"#utility.yul\":6768:6773   */\n      dup4\n        /* \"#utility.yul\":6764:6780   */\n      add\n        /* \"#utility.yul\":6758:6781   */\n      mload\n        /* \"#utility.yul\":6828:6831   */\n      dup5\n        /* \"#utility.yul\":6822:6826   */\n      dup3\n        /* \"#utility.yul\":6818:6832   */\n      sub\n        /* \"#utility.yul\":6811:6815   */\n      0x80\n        /* \"#utility.yul\":6806:6809   */\n      dup7\n        /* \"#utility.yul\":6802:6816   */\n      add\n        /* \"#utility.yul\":6795:6833   */\n      mstore\n        /* \"#utility.yul\":6854:6977   */\n      tag_562\n        /* \"#utility.yul\":6972:6976   */\n      dup3\n        /* \"#utility.yul\":6958:6970   */\n      dup3\n        /* \"#utility.yul\":6854:6977   */\n      tag_414\n      jump\t// in\n    tag_562:\n        /* \"#utility.yul\":6846:6977   */\n      swap2\n      pop\n        /* \"#utility.yul\":6699:6988   */\n      pop\n        /* \"#utility.yul\":7075:7079   */\n      0xa0\n        /* \"#utility.yul\":7068:7073   */\n      dup4\n        /* \"#utility.yul\":7064:7080   */\n      add\n        /* \"#utility.yul\":7058:7081   */\n      mload\n        /* \"#utility.yul\":7094:7157   */\n      tag_563\n        /* \"#utility.yul\":7151:7155   */\n      0xa0\n        /* \"#utility.yul\":7146:7149   */\n      dup7\n        /* \"#utility.yul\":7142:7156   */\n      add\n        /* \"#utility.yul\":7128:7140   */\n      dup3\n        /* \"#utility.yul\":7094:7157   */\n      tag_403\n      jump\t// in\n    tag_563:\n        /* \"#utility.yul\":6998:7167   */\n      pop\n        /* \"#utility.yul\":7256:7260   */\n      0xc0\n        /* \"#utility.yul\":7249:7254   */\n      dup4\n        /* \"#utility.yul\":7245:7261   */\n      add\n        /* \"#utility.yul\":7239:7262   */\n      mload\n        /* \"#utility.yul\":7275:7338   */\n      tag_564\n        /* \"#utility.yul\":7332:7336   */\n      0xc0\n        /* \"#utility.yul\":7327:7330   */\n      dup7\n        /* \"#utility.yul\":7323:7337   */\n      add\n        /* \"#utility.yul\":7309:7321   */\n      dup3\n        /* \"#utility.yul\":7275:7338   */\n      tag_403\n      jump\t// in\n    tag_564:\n        /* \"#utility.yul\":7177:7348   */\n      pop\n        /* \"#utility.yul\":7365:7369   */\n      dup1\n        /* \"#utility.yul\":7358:7369   */\n      swap2\n      pop\n        /* \"#utility.yul\":5800:7375   */\n      pop\n        /* \"#utility.yul\":5682:7375   */\n      swap3\n      swap2\n      pop\n      pop\n      jump\t// out\n        /* \"#utility.yul\":7381:7742   */\n    tag_44:\n        /* \"#utility.yul\":7518:7522   */\n      0x00\n        /* \"#utility.yul\":7556:7558   */\n      0x20\n        /* \"#utility.yul\":7545:7554   */\n      dup3\n        /* \"#utility.yul\":7541:7559   */\n      add\n        /* \"#utility.yul\":7533:7559   */\n      swap1\n      pop\n        /* \"#utility.yul\":7605:7614   */\n      dup2\n        /* \"#utility.yul\":7599:7603   */\n      dup2\n        /* \"#utility.yul\":7595:7615   */\n      sub\n        /* \"#utility.yul\":7591:7592   */\n      0x00\n        /* \"#utility.yul\":7580:7589   */\n      dup4\n        /* \"#utility.yul\":7576:7593   */\n      add\n        /* \"#utility.yul\":7569:7616   */\n      mstore\n        /* \"#utility.yul\":7633:7735   */\n      tag_566\n        /* \"#utility.yul\":7730:7734   */\n      dup2\n        /* \"#utility.yul\":7721:7727   */\n      dup5\n        /* \"#utility.yul\":7633:7735   */\n      tag_415\n      jump\t// in\n    tag_566:\n        /* \"#utility.yul\":7625:7735   */\n      swap1\n      pop\n        /* \"#utility.yul\":7381:7742   */\n      swap3\n      swap2\n      pop\n      pop\n      jump\t// out\n        /* \"#utility.yul\":7748:7928   */\n    tag_113:\n        /* \"#utility.yul\":7796:7873   */\n      0x4e487b7100000000000000000000000000000000000000000000000000000000\n        /* \"#utility.yul\":7793:7794   */\n      0x00\n        /* \"#utility.yul\":7786:7874   */\n      mstore\n        /* \"#utility.yul\":7893:7897   */\n      0x21\n        /* \"#utility.yul\":7890:7891   */\n      0x04\n        /* \"#utility.yul\":7883:7898   */\n      mstore\n        /* \"#utility.yul\":7917:7921   */\n      0x24\n        /* \"#utility.yul\":7914:7915   */\n      0x00\n        /* \"#utility.yul\":7907:7922   */\n      revert\n        /* \"#utility.yul\":7934:8045   */\n    tag_416:\n        /* \"#utility.yul\":8013:8014   */\n      0x03\n        /* \"#utility.yul\":8006:8011   */\n      dup2\n        /* \"#utility.yul\":8003:8015   */\n      lt\n        /* \"#utility.yul\":7993:8039   */\n      tag_569\n      jumpi\n        /* \"#utility.yul\":8019:8037   */\n      tag_570\n      tag_113\n      jump\t// in\n    tag_570:\n        /* \"#utility.yul\":7993:8039   */\n    tag_569:\n        /* \"#utility.yul\":7934:8045   */\n      pop\n      jump\t// out\n        /* \"#utility.yul\":8051:8174   */\n    tag_417:\n        /* \"#utility.yul\":8094:8101   */\n      0x00\n        /* \"#utility.yul\":8123:8128   */\n      dup2\n        /* \"#utility.yul\":8112:8128   */\n      swap1\n      pop\n        /* \"#utility.yul\":8129:8168   */\n      tag_572\n        /* \"#utility.yul\":8162:8167   */\n      dup3\n        /* \"#utility.yul\":8129:8168   */\n      tag_416\n      jump\t// in\n    tag_572:\n        /* \"#utility.yul\":8051:8174   */\n      swap2\n      swap1\n      pop\n      jump\t// out\n        /* \"#utility.yul\":8180:8303   */\n    tag_418:\n        /* \"#utility.yul\":8234:8243   */\n      0x00\n        /* \"#utility.yul\":8267:8297   */\n      tag_574\n        /* \"#utility.yul\":8291:8296   */\n      dup3\n        /* \"#utility.yul\":8267:8297   */\n      tag_417\n      jump\t// in\n    tag_574:\n        /* \"#utility.yul\":8254:8297   */\n      swap1\n      pop\n        /* \"#utility.yul\":8180:8303   */\n      swap2\n      swap1\n      pop\n      jump\t// out\n        /* \"#utility.yul\":8309:8448   */\n    tag_419:\n        /* \"#utility.yul\":8400:8441   */\n      tag_576\n        /* \"#utility.yul\":8435:8440   */\n      dup2\n        /* \"#utility.yul\":8400:8441   */\n      tag_418\n      jump\t// in\n    tag_576:\n        /* \"#utility.yul\":8395:8398   */\n      dup3\n        /* \"#utility.yul\":8388:8442   */\n      mstore\n        /* \"#utility.yul\":8309:8448   */\n      pop\n      pop\n      jump\t// out\n        /* \"#utility.yul\":8454:8684   */\n    tag_49:\n        /* \"#utility.yul\":8551:8555   */\n      0x00\n        /* \"#utility.yul\":8589:8591   */\n      0x20\n        /* \"#utility.yul\":8578:8587   */\n      dup3\n        /* \"#utility.yul\":8574:8592   */\n      add\n        /* \"#utility.yul\":8566:8592   */\n      swap1\n      pop\n        /* \"#utility.yul\":8602:8677   */\n      tag_578\n        /* \"#utility.yul\":8674:8675   */\n      0x00\n        /* \"#utility.yul\":8663:8672   */\n      dup4\n        /* \"#utility.yul\":8659:8676   */\n      add\n        /* \"#utility.yul\":8650:8656   */\n      dup5\n        /* \"#utility.yul\":8602:8677   */\n      tag_419\n      jump\t// in\n    tag_578:\n        /* \"#utility.yul\":8454:8684   */\n      swap3\n      swap2\n      pop\n      pop\n      jump\t// out\n        /* \"#utility.yul\":8690:9164   */\n    tag_52:\n        /* \"#utility.yul\":8758:8764   */\n      0x00\n        /* \"#utility.yul\":8766:8772   */\n      0x00\n        /* \"#utility.yul\":8815:8817   */\n      0x40\n        /* \"#utility.yul\":8803:8812   */\n      dup4\n        /* \"#utility.yul\":8794:8801   */\n      dup6\n        /* \"#utility.yul\":8790:8813   */\n      sub\n        /* \"#utility.yul\":8786:8818   */\n      slt\n        /* \"#utility.yul\":8783:8902   */\n      iszero\n      tag_580\n      jumpi\n        /* \"#utility.yul\":8821:8900   */\n      tag_581\n      tag_393\n      jump\t// in\n    tag_581:\n        /* \"#utility.yul\":8783:8902   */\n    tag_580:\n        /* \"#utility.yul\":8941:8942   */\n      0x00\n        /* \"#utility.yul\":8966:9019   */\n      tag_582\n        /* \"#utility.yul\":9011:9018   */\n      dup6\n        /* \"#utility.yul\":9002:9008   */\n      dup3\n        /* \"#utility.yul\":8991:9000   */\n      dup7\n        /* \"#utility.yul\":8987:9009   */\n      add\n        /* \"#utility.yul\":8966:9019   */\n      tag_397\n      jump\t// in\n    tag_582:\n        /* \"#utility.yul\":8956:9019   */\n      swap3\n      pop\n        /* \"#utility.yul\":8912:9029   */\n      pop\n        /* \"#utility.yul\":9068:9070   */\n      0x20\n        /* \"#utility.yul\":9094:9147   */\n      tag_583\n        /* \"#utility.yul\":9139:9146   */\n      dup6\n        /* \"#utility.yul\":9130:9136   */\n      dup3\n        /* \"#utility.yul\":9119:9128   */\n      dup7\n        /* \"#utility.yul\":9115:9137   */\n      add\n        /* \"#utility.yul\":9094:9147   */\n      tag_397\n      jump\t// in\n    tag_583:\n        /* \"#utility.yul\":9084:9147   */\n      swap2\n      pop\n        /* \"#utility.yul\":9039:9157   */\n      pop\n        /* \"#utility.yul\":8690:9164   */\n      swap3\n      pop\n      swap3\n      swap1\n      pop\n      jump\t// out\n        /* \"#utility.yul\":9170:9287   */\n    tag_420:\n        /* \"#utility.yul\":9279:9280   */\n      0x00\n        /* \"#utility.yul\":9276:9277   */\n      0x00\n        /* \"#utility.yul\":9269:9281   */\n      revert\n        /* \"#utility.yul\":9293:9473   */\n    tag_278:\n        /* \"#utility.yul\":9341:9418   */\n      0x4e487b7100000000000000000000000000000000000000000000000000000000\n        /* \"#utility.yul\":9338:9339   */\n      0x00\n        /* \"#utility.yul\":9331:9419   */\n      mstore\n        /* \"#utility.yul\":9438:9442   */\n      0x41\n        /* \"#utility.yul\":9435:9436   */\n      0x04\n        /* \"#utility.yul\":9428:9443   */\n      mstore\n        /* \"#utility.yul\":9462:9466   */\n      0x24\n        /* \"#utility.yul\":9459:9460   */\n      0x00\n        /* \"#utility.yul\":9452:9467   */\n      revert\n        /* \"#utility.yul\":9479:9760   */\n    tag_421:\n        /* \"#utility.yul\":9562:9589   */\n      tag_587\n        /* \"#utility.yul\":9584:9588   */\n      dup3\n        /* \"#utility.yul\":9562:9589   */\n      tag_407\n      jump\t// in\n    tag_587:\n        /* \"#utility.yul\":9554:9560   */\n      dup2\n        /* \"#utility.yul\":9550:9590   */\n      add\n        /* \"#utility.yul\":9692:9698   */\n      dup2\n        /* \"#utility.yul\":9680:9690   */\n      dup2\n        /* \"#utility.yul\":9677:9699   */\n      lt\n        /* \"#utility.yul\":9656:9674   */\n      0xffffffffffffffff\n        /* \"#utility.yul\":9644:9654   */\n      dup3\n        /* \"#utility.yul\":9641:9675   */\n      gt\n        /* \"#utility.yul\":9638:9700   */\n      or\n        /* \"#utility.yul\":9635:9723   */\n      iszero\n      tag_588\n      jumpi\n        /* \"#utility.yul\":9703:9721   */\n      tag_589\n      tag_278\n      jump\t// in\n    tag_589:\n        /* \"#utility.yul\":9635:9723   */\n    tag_588:\n        /* \"#utility.yul\":9743:9753   */\n      dup1\n        /* \"#utility.yul\":9739:9741   */\n      0x40\n        /* \"#utility.yul\":9732:9754   */\n      mstore\n        /* \"#utility.yul\":9522:9760   */\n      pop\n        /* \"#utility.yul\":9479:9760   */\n      pop\n      pop\n      jump\t// out\n        /* \"#utility.yul\":9766:9895   */\n    tag_422:\n        /* \"#utility.yul\":9800:9806   */\n      0x00\n        /* \"#utility.yul\":9827:9847   */\n      tag_591\n      tag_392\n      jump\t// in\n    tag_591:\n        /* \"#utility.yul\":9817:9847   */\n      swap1\n      pop\n        /* \"#utility.yul\":9856:9889   */\n      tag_592\n        /* \"#utility.yul\":9884:9888   */\n      dup3\n        /* \"#utility.yul\":9876:9882   */\n      dup3\n        /* \"#utility.yul\":9856:9889   */\n      tag_421\n      jump\t// in\n    tag_592:\n        /* \"#utility.yul\":9766:9895   */\n      swap2\n      swap1\n      pop\n      jump\t// out\n        /* \"#utility.yul\":9901:10246   */\n    tag_423:\n        /* \"#utility.yul\":10012:10016   */\n      0x00\n        /* \"#utility.yul\":10102:10120   */\n      0xffffffffffffffff\n        /* \"#utility.yul\":10094:10100   */\n      dup3\n        /* \"#utility.yul\":10091:10121   */\n      gt\n        /* \"#utility.yul\":10088:10144   */\n      iszero\n      tag_594\n      jumpi\n        /* \"#utility.yul\":10124:10142   */\n      tag_595\n      tag_278\n      jump\t// in\n    tag_595:\n        /* \"#utility.yul\":10088:10144   */\n    tag_594:\n        /* \"#utility.yul\":10174:10178   */\n      0x20\n        /* \"#utility.yul\":10166:10172   */\n      dup3\n        /* \"#utility.yul\":10162:10179   */\n      mul\n        /* \"#utility.yul\":10154:10179   */\n      swap1\n      pop\n        /* \"#utility.yul\":10234:10238   */\n      0x20\n        /* \"#utility.yul\":10228:10232   */\n      dup2\n        /* \"#utility.yul\":10224:10239   */\n      add\n        /* \"#utility.yul\":10216:10239   */\n      swap1\n      pop\n        /* \"#utility.yul\":9901:10246   */\n      swap2\n      swap1\n      pop\n      jump\t// out\n        /* \"#utility.yul\":10252:10369   */\n    tag_424:\n        /* \"#utility.yul\":10361:10362   */\n      0x00\n        /* \"#utility.yul\":10358:10359   */\n      0x00\n        /* \"#utility.yul\":10351:10363   */\n      revert\n        /* \"#utility.yul\":10375:10492   */\n    tag_425:\n        /* \"#utility.yul\":10484:10485   */\n      0x00\n        /* \"#utility.yul\":10481:10482   */\n      0x00\n        /* \"#utility.yul\":10474:10486   */\n      revert\n        /* \"#utility.yul\":10498:10615   */\n    tag_426:\n        /* \"#utility.yul\":10607:10608   */\n      0x00\n        /* \"#utility.yul\":10604:10605   */\n      0x00\n        /* \"#utility.yul\":10597:10609   */\n      revert\n        /* \"#utility.yul\":10621:10738   */\n    tag_427:\n        /* \"#utility.yul\":10730:10731   */\n      0x00\n        /* \"#utility.yul\":10727:10728   */\n      0x00\n        /* \"#utility.yul\":10720:10732   */\n      revert\n        /* \"#utility.yul\":10744:11052   */\n    tag_428:\n        /* \"#utility.yul\":10806:10810   */\n      0x00\n        /* \"#utility.yul\":10896:10914   */\n      0xffffffffffffffff\n        /* \"#utility.yul\":10888:10894   */\n      dup3\n        /* \"#utility.yul\":10885:10915   */\n      gt\n        /* \"#utility.yul\":10882:10938   */\n      iszero\n      tag_601\n      jumpi\n        /* \"#utility.yul\":10918:10936   */\n      tag_602\n      tag_278\n      jump\t// in\n    tag_602:\n        /* \"#utility.yul\":10882:10938   */\n    tag_601:\n        /* \"#utility.yul\":10956:10985   */\n      tag_603\n        /* \"#utility.yul\":10978:10984   */\n      dup3\n        /* \"#utility.yul\":10956:10985   */\n      tag_407\n      jump\t// in\n    tag_603:\n        /* \"#utility.yul\":10948:10985   */\n      swap1\n      pop\n        /* \"#utility.yul\":11040:11044   */\n      0x20\n        /* \"#utility.yul\":11034:11038   */\n      dup2\n        /* \"#utility.yul\":11030:11045   */\n      add\n        /* \"#utility.yul\":11022:11045   */\n      swap1\n      pop\n        /* \"#utility.yul\":10744:11052   */\n      swap2\n      swap1\n      pop\n      jump\t// out\n        /* \"#utility.yul\":11058:11206   */\n    tag_429:\n        /* \"#utility.yul\":11156:11162   */\n      dup3\n        /* \"#utility.yul\":11151:11154   */\n      dup2\n        /* \"#utility.yul\":11146:11149   */\n      dup4\n        /* \"#utility.yul\":11133:11163   */\n      calldatacopy\n        /* \"#utility.yul\":11197:11198   */\n      0x00\n        /* \"#utility.yul\":11188:11194   */\n      dup4\n        /* \"#utility.yul\":11183:11186   */\n      dup4\n        /* \"#utility.yul\":11179:11195   */\n      add\n        /* \"#utility.yul\":11172:11199   */\n      mstore\n        /* \"#utility.yul\":11058:11206   */\n      pop\n      pop\n      pop\n      jump\t// out\n        /* \"#utility.yul\":11212:11637   */\n    tag_430:\n        /* \"#utility.yul\":11290:11295   */\n      0x00\n        /* \"#utility.yul\":11315:11381   */\n      tag_606\n        /* \"#utility.yul\":11331:11380   */\n      tag_607\n        /* \"#utility.yul\":11373:11379   */\n      dup5\n        /* \"#utility.yul\":11331:11380   */\n      tag_428\n      jump\t// in\n    tag_607:\n        /* \"#utility.yul\":11315:11381   */\n      tag_422\n      jump\t// in\n    tag_606:\n        /* \"#utility.yul\":11306:11381   */\n      swap1\n      pop\n        /* \"#utility.yul\":11404:11410   */\n      dup3\n        /* \"#utility.yul\":11397:11402   */\n      dup2\n        /* \"#utility.yul\":11390:11411   */\n      mstore\n        /* \"#utility.yul\":11442:11446   */\n      0x20\n        /* \"#utility.yul\":11435:11440   */\n      dup2\n        /* \"#utility.yul\":11431:11447   */\n      add\n        /* \"#utility.yul\":11480:11483   */\n      dup5\n        /* \"#utility.yul\":11471:11477   */\n      dup5\n        /* \"#utility.yul\":11466:11469   */\n      dup5\n        /* \"#utility.yul\":11462:11478   */\n      add\n        /* \"#utility.yul\":11459:11484   */\n      gt\n        /* \"#utility.yul\":11456:11568   */\n      iszero\n      tag_608\n      jumpi\n        /* \"#utility.yul\":11487:11566   */\n      tag_609\n      tag_427\n      jump\t// in\n    tag_609:\n        /* \"#utility.yul\":11456:11568   */\n    tag_608:\n        /* \"#utility.yul\":11577:11631   */\n      tag_610\n        /* \"#utility.yul\":11624:11630   */\n      dup5\n        /* \"#utility.yul\":11619:11622   */\n      dup3\n        /* \"#utility.yul\":11614:11617   */\n      dup6\n        /* \"#utility.yul\":11577:11631   */\n      tag_429\n      jump\t// in\n    tag_610:\n        /* \"#utility.yul\":11296:11637   */\n      pop\n        /* \"#utility.yul\":11212:11637   */\n      swap4\n      swap3\n      pop\n      pop\n      pop\n      jump\t// out\n        /* \"#utility.yul\":11657:11997   */\n    tag_431:\n        /* \"#utility.yul\":11713:11718   */\n      0x00\n        /* \"#utility.yul\":11762:11765   */\n      dup3\n        /* \"#utility.yul\":11755:11759   */\n      0x1f\n        /* \"#utility.yul\":11747:11753   */\n      dup4\n        /* \"#utility.yul\":11743:11760   */\n      add\n        /* \"#utility.yul\":11739:11766   */\n      slt\n        /* \"#utility.yul\":11729:11851   */\n      tag_612\n      jumpi\n        /* \"#utility.yul\":11770:11849   */\n      tag_613\n      tag_420\n      jump\t// in\n    tag_613:\n        /* \"#utility.yul\":11729:11851   */\n    tag_612:\n        /* \"#utility.yul\":11887:11893   */\n      dup2\n        /* \"#utility.yul\":11874:11894   */\n      calldataload\n        /* \"#utility.yul\":11912:11991   */\n      tag_614\n        /* \"#utility.yul\":11987:11990   */\n      dup5\n        /* \"#utility.yul\":11979:11985   */\n      dup3\n        /* \"#utility.yul\":11972:11976   */\n      0x20\n        /* \"#utility.yul\":11964:11970   */\n      dup7\n        /* \"#utility.yul\":11960:11977   */\n      add\n        /* \"#utility.yul\":11912:11991   */\n      tag_430\n      jump\t// in\n    tag_614:\n        /* \"#utility.yul\":11903:11991   */\n      swap2\n      pop\n        /* \"#utility.yul\":11719:11997   */\n      pop\n        /* \"#utility.yul\":11657:11997   */\n      swap3\n      swap2\n      pop\n      pop\n      jump\t// out\n        /* \"#utility.yul\":12034:12953   */\n    tag_432:\n        /* \"#utility.yul\":12117:12122   */\n      0x00\n        /* \"#utility.yul\":12161:12165   */\n      0x60\n        /* \"#utility.yul\":12149:12158   */\n      dup3\n        /* \"#utility.yul\":12144:12147   */\n      dup5\n        /* \"#utility.yul\":12140:12159   */\n      sub\n        /* \"#utility.yul\":12136:12166   */\n      slt\n        /* \"#utility.yul\":12133:12250   */\n      iszero\n      tag_616\n      jumpi\n        /* \"#utility.yul\":12169:12248   */\n      tag_617\n      tag_425\n      jump\t// in\n    tag_617:\n        /* \"#utility.yul\":12133:12250   */\n    tag_616:\n        /* \"#utility.yul\":12268:12289   */\n      tag_618\n        /* \"#utility.yul\":12284:12288   */\n      0x60\n        /* \"#utility.yul\":12268:12289   */\n      tag_422\n      jump\t// in\n    tag_618:\n        /* \"#utility.yul\":12259:12289   */\n      swap1\n      pop\n        /* \"#utility.yul\":12376:12377   */\n      0x00\n        /* \"#utility.yul\":12365:12374   */\n      dup3\n        /* \"#utility.yul\":12361:12378   */\n      add\n        /* \"#utility.yul\":12348:12379   */\n      calldataload\n        /* \"#utility.yul\":12406:12424   */\n      0xffffffffffffffff\n        /* \"#utility.yul\":12398:12404   */\n      dup2\n        /* \"#utility.yul\":12395:12425   */\n      gt\n        /* \"#utility.yul\":12392:12509   */\n      iszero\n      tag_619\n      jumpi\n        /* \"#utility.yul\":12428:12507   */\n      tag_620\n      tag_426\n      jump\t// in\n    tag_620:\n        /* \"#utility.yul\":12392:12509   */\n    tag_619:\n        /* \"#utility.yul\":12548:12607   */\n      tag_621\n        /* \"#utility.yul\":12603:12606   */\n      dup5\n        /* \"#utility.yul\":12594:12600   */\n      dup3\n        /* \"#utility.yul\":12583:12592   */\n      dup6\n        /* \"#utility.yul\":12579:12601   */\n      add\n        /* \"#utility.yul\":12548:12607   */\n      tag_431\n      jump\t// in\n    tag_621:\n        /* \"#utility.yul\":12541:12545   */\n      0x00\n        /* \"#utility.yul\":12534:12539   */\n      dup4\n        /* \"#utility.yul\":12530:12546   */\n      add\n        /* \"#utility.yul\":12523:12608   */\n      mstore\n        /* \"#utility.yul\":12299:12619   */\n      pop\n        /* \"#utility.yul\":12682:12684   */\n      0x20\n        /* \"#utility.yul\":12723:12772   */\n      tag_622\n        /* \"#utility.yul\":12768:12771   */\n      dup5\n        /* \"#utility.yul\":12759:12765   */\n      dup3\n        /* \"#utility.yul\":12748:12757   */\n      dup6\n        /* \"#utility.yul\":12744:12766   */\n      add\n        /* \"#utility.yul\":12723:12772   */\n      tag_397\n      jump\t// in\n    tag_622:\n        /* \"#utility.yul\":12716:12720   */\n      0x20\n        /* \"#utility.yul\":12709:12714   */\n      dup4\n        /* \"#utility.yul\":12705:12721   */\n      add\n        /* \"#utility.yul\":12698:12773   */\n      mstore\n        /* \"#utility.yul\":12629:12784   */\n      pop\n        /* \"#utility.yul\":12844:12846   */\n      0x40\n        /* \"#utility.yul\":12885:12934   */\n      tag_623\n        /* \"#utility.yul\":12930:12933   */\n      dup5\n        /* \"#utility.yul\":12921:12927   */\n      dup3\n        /* \"#utility.yul\":12910:12919   */\n      dup6\n        /* \"#utility.yul\":12906:12928   */\n      add\n        /* \"#utility.yul\":12885:12934   */\n      tag_397\n      jump\t// in\n    tag_623:\n        /* \"#utility.yul\":12878:12882   */\n      0x40\n        /* \"#utility.yul\":12871:12876   */\n      dup4\n        /* \"#utility.yul\":12867:12883   */\n      add\n        /* \"#utility.yul\":12860:12935   */\n      mstore\n        /* \"#utility.yul\":12794:12946   */\n      pop\n        /* \"#utility.yul\":12034:12953   */\n      swap3\n      swap2\n      pop\n      pop\n      jump\t// out\n        /* \"#utility.yul\":12992:14009   */\n    tag_433:\n        /* \"#utility.yul\":13122:13127   */\n      0x00\n        /* \"#utility.yul\":13147:13262   */\n      tag_625\n        /* \"#utility.yul\":13163:13261   */\n      tag_626\n        /* \"#utility.yul\":13254:13260   */\n      dup5\n        /* \"#utility.yul\":13163:13261   */\n      tag_423\n      jump\t// in\n    tag_626:\n        /* \"#utility.yul\":13147:13262   */\n      tag_422\n      jump\t// in\n    tag_625:\n        /* \"#utility.yul\":13138:13262   */\n      swap1\n      pop\n        /* \"#utility.yul\":13282:13287   */\n      dup1\n        /* \"#utility.yul\":13311:13317   */\n      dup4\n        /* \"#utility.yul\":13304:13309   */\n      dup3\n        /* \"#utility.yul\":13297:13318   */\n      mstore\n        /* \"#utility.yul\":13345:13349   */\n      0x20\n        /* \"#utility.yul\":13338:13343   */\n      dup3\n        /* \"#utility.yul\":13334:13350   */\n      add\n        /* \"#utility.yul\":13327:13350   */\n      swap1\n      pop\n        /* \"#utility.yul\":13398:13402   */\n      0x20\n        /* \"#utility.yul\":13390:13396   */\n      dup5\n        /* \"#utility.yul\":13386:13403   */\n      mul\n        /* \"#utility.yul\":13378:13384   */\n      dup4\n        /* \"#utility.yul\":13374:13404   */\n      add\n        /* \"#utility.yul\":13427:13430   */\n      dup6\n        /* \"#utility.yul\":13419:13425   */\n      dup2\n        /* \"#utility.yul\":13416:13431   */\n      gt\n        /* \"#utility.yul\":13413:13535   */\n      iszero\n      tag_627\n      jumpi\n        /* \"#utility.yul\":13446:13525   */\n      tag_628\n      tag_424\n      jump\t// in\n    tag_628:\n        /* \"#utility.yul\":13413:13535   */\n    tag_627:\n        /* \"#utility.yul\":13561:13567   */\n      dup4\n        /* \"#utility.yul\":13544:14003   */\n    tag_629:\n        /* \"#utility.yul\":13578:13584   */\n      dup2\n        /* \"#utility.yul\":13573:13576   */\n      dup2\n        /* \"#utility.yul\":13570:13585   */\n      lt\n        /* \"#utility.yul\":13544:14003   */\n      iszero\n      tag_631\n      jumpi\n        /* \"#utility.yul\":13667:13670   */\n      dup1\n        /* \"#utility.yul\":13654:13671   */\n      calldataload\n        /* \"#utility.yul\":13703:13721   */\n      0xffffffffffffffff\n        /* \"#utility.yul\":13690:13701   */\n      dup2\n        /* \"#utility.yul\":13687:13722   */\n      gt\n        /* \"#utility.yul\":13684:13806   */\n      iszero\n      tag_632\n      jumpi\n        /* \"#utility.yul\":13725:13804   */\n      tag_633\n      tag_420\n      jump\t// in\n    tag_633:\n        /* \"#utility.yul\":13684:13806   */\n    tag_632:\n        /* \"#utility.yul\":13849:13860   */\n      dup1\n        /* \"#utility.yul\":13841:13847   */\n      dup7\n        /* \"#utility.yul\":13837:13861   */\n      add\n        /* \"#utility.yul\":13887:13958   */\n      tag_634\n        /* \"#utility.yul\":13954:13957   */\n      dup10\n        /* \"#utility.yul\":13942:13952   */\n      dup3\n        /* \"#utility.yul\":13887:13958   */\n      tag_432\n      jump\t// in\n    tag_634:\n        /* \"#utility.yul\":13882:13885   */\n      dup6\n        /* \"#utility.yul\":13875:13959   */\n      mstore\n        /* \"#utility.yul\":13988:13992   */\n      0x20\n        /* \"#utility.yul\":13983:13986   */\n      dup6\n        /* \"#utility.yul\":13979:13993   */\n      add\n        /* \"#utility.yul\":13972:13993   */\n      swap5\n      pop\n        /* \"#utility.yul\":13620:14003   */\n      pop\n      pop\n        /* \"#utility.yul\":13604:13608   */\n      0x20\n        /* \"#utility.yul\":13599:13602   */\n      dup2\n        /* \"#utility.yul\":13595:13609   */\n      add\n        /* \"#utility.yul\":13588:13609   */\n      swap1\n      pop\n        /* \"#utility.yul\":13544:14003   */\n      jump(tag_629)\n    tag_631:\n        /* \"#utility.yul\":13548:13569   */\n      pop\n        /* \"#utility.yul\":13128:14009   */\n      pop\n      pop\n        /* \"#utility.yul\":12992:14009   */\n      swap4\n      swap3\n      pop\n      pop\n      pop\n      jump\t// out\n        /* \"#utility.yul\":14048:14486   */\n    tag_434:\n        /* \"#utility.yul\":14153:14158   */\n      0x00\n        /* \"#utility.yul\":14202:14205   */\n      dup3\n        /* \"#utility.yul\":14195:14199   */\n      0x1f\n        /* \"#utility.yul\":14187:14193   */\n      dup4\n        /* \"#utility.yul\":14183:14200   */\n      add\n        /* \"#utility.yul\":14179:14206   */\n      slt\n        /* \"#utility.yul\":14169:14291   */\n      tag_636\n      jumpi\n        /* \"#utility.yul\":14210:14289   */\n      tag_637\n      tag_420\n      jump\t// in\n    tag_637:\n        /* \"#utility.yul\":14169:14291   */\n    tag_636:\n        /* \"#utility.yul\":14327:14333   */\n      dup2\n        /* \"#utility.yul\":14314:14334   */\n      calldataload\n        /* \"#utility.yul\":14352:14480   */\n      tag_638\n        /* \"#utility.yul\":14476:14479   */\n      dup5\n        /* \"#utility.yul\":14468:14474   */\n      dup3\n        /* \"#utility.yul\":14461:14465   */\n      0x20\n        /* \"#utility.yul\":14453:14459   */\n      dup7\n        /* \"#utility.yul\":14449:14466   */\n      add\n        /* \"#utility.yul\":14352:14480   */\n      tag_433\n      jump\t// in\n    tag_638:\n        /* \"#utility.yul\":14343:14480   */\n      swap2\n      pop\n        /* \"#utility.yul\":14159:14486   */\n      pop\n        /* \"#utility.yul\":14048:14486   */\n      swap3\n      swap2\n      pop\n      pop\n      jump\t// out\n        /* \"#utility.yul\":14492:15244   */\n    tag_56:\n        /* \"#utility.yul\":14619:14625   */\n      0x00\n        /* \"#utility.yul\":14627:14633   */\n      0x00\n        /* \"#utility.yul\":14676:14678   */\n      0x40\n        /* \"#utility.yul\":14664:14673   */\n      dup4\n        /* \"#utility.yul\":14655:14662   */\n      dup6\n        /* \"#utility.yul\":14651:14674   */\n      sub\n        /* \"#utility.yul\":14647:14679   */\n      slt\n        /* \"#utility.yul\":14644:14763   */\n      iszero\n      tag_640\n      jumpi\n        /* \"#utility.yul\":14682:14761   */\n      tag_641\n      tag_393\n      jump\t// in\n    tag_641:\n        /* \"#utility.yul\":14644:14763   */\n    tag_640:\n        /* \"#utility.yul\":14802:14803   */\n      0x00\n        /* \"#utility.yul\":14827:14880   */\n      tag_642\n        /* \"#utility.yul\":14872:14879   */\n      dup6\n        /* \"#utility.yul\":14863:14869   */\n      dup3\n        /* \"#utility.yul\":14852:14861   */\n      dup7\n        /* \"#utility.yul\":14848:14870   */\n      add\n        /* \"#utility.yul\":14827:14880   */\n      tag_397\n      jump\t// in\n    tag_642:\n        /* \"#utility.yul\":14817:14880   */\n      swap3\n      pop\n        /* \"#utility.yul\":14773:14890   */\n      pop\n        /* \"#utility.yul\":14957:14959   */\n      0x20\n        /* \"#utility.yul\":14946:14955   */\n      dup4\n        /* \"#utility.yul\":14942:14960   */\n      add\n        /* \"#utility.yul\":14929:14961   */\n      calldataload\n        /* \"#utility.yul\":14988:15006   */\n      0xffffffffffffffff\n        /* \"#utility.yul\":14980:14986   */\n      dup2\n        /* \"#utility.yul\":14977:15007   */\n      gt\n        /* \"#utility.yul\":14974:15091   */\n      iszero\n      tag_643\n      jumpi\n        /* \"#utility.yul\":15010:15089   */\n      tag_644\n      tag_394\n      jump\t// in\n    tag_644:\n        /* \"#utility.yul\":14974:15091   */\n    tag_643:\n        /* \"#utility.yul\":15115:15227   */\n      tag_645\n        /* \"#utility.yul\":15219:15226   */\n      dup6\n        /* \"#utility.yul\":15210:15216   */\n      dup3\n        /* \"#utility.yul\":15199:15208   */\n      dup7\n        /* \"#utility.yul\":15195:15217   */\n      add\n        /* \"#utility.yul\":15115:15227   */\n      tag_434\n      jump\t// in\n    tag_645:\n        /* \"#utility.yul\":15105:15227   */\n      swap2\n      pop\n        /* \"#utility.yul\":14900:15237   */\n      pop\n        /* \"#utility.yul\":14492:15244   */\n      swap3\n      pop\n      swap3\n      swap1\n      pop\n      jump\t// out\n        /* \"#utility.yul\":15250:15571   */\n    tag_435:\n        /* \"#utility.yul\":15337:15341   */\n      0x00\n        /* \"#utility.yul\":15427:15445   */\n      0xffffffffffffffff\n        /* \"#utility.yul\":15419:15425   */\n      dup3\n        /* \"#utility.yul\":15416:15446   */\n      gt\n        /* \"#utility.yul\":15413:15469   */\n      iszero\n      tag_647\n      jumpi\n        /* \"#utility.yul\":15449:15467   */\n      tag_648\n      tag_278\n      jump\t// in\n    tag_648:\n        /* \"#utility.yul\":15413:15469   */\n    tag_647:\n        /* \"#utility.yul\":15499:15503   */\n      0x20\n        /* \"#utility.yul\":15491:15497   */\n      dup3\n        /* \"#utility.yul\":15487:15504   */\n      mul\n        /* \"#utility.yul\":15479:15504   */\n      swap1\n      pop\n        /* \"#utility.yul\":15559:15563   */\n      0x20\n        /* \"#utility.yul\":15553:15557   */\n      dup2\n        /* \"#utility.yul\":15549:15564   */\n      add\n        /* \"#utility.yul\":15541:15564   */\n      swap1\n      pop\n        /* \"#utility.yul\":15250:15571   */\n      swap2\n      swap1\n      pop\n      jump\t// out\n        /* \"#utility.yul\":15593:16538   */\n    tag_436:\n        /* \"#utility.yul\":15699:15704   */\n      0x00\n        /* \"#utility.yul\":15724:15815   */\n      tag_650\n        /* \"#utility.yul\":15740:15814   */\n      tag_651\n        /* \"#utility.yul\":15807:15813   */\n      dup5\n        /* \"#utility.yul\":15740:15814   */\n      tag_435\n      jump\t// in\n    tag_651:\n        /* \"#utility.yul\":15724:15815   */\n      tag_422\n      jump\t// in\n    tag_650:\n        /* \"#utility.yul\":15715:15815   */\n      swap1\n      pop\n        /* \"#utility.yul\":15835:15840   */\n      dup1\n        /* \"#utility.yul\":15864:15870   */\n      dup4\n        /* \"#utility.yul\":15857:15862   */\n      dup3\n        /* \"#utility.yul\":15850:15871   */\n      mstore\n        /* \"#utility.yul\":15898:15902   */\n      0x20\n        /* \"#utility.yul\":15891:15896   */\n      dup3\n        /* \"#utility.yul\":15887:15903   */\n      add\n        /* \"#utility.yul\":15880:15903   */\n      swap1\n      pop\n        /* \"#utility.yul\":15951:15955   */\n      0x20\n        /* \"#utility.yul\":15943:15949   */\n      dup5\n        /* \"#utility.yul\":15939:15956   */\n      mul\n        /* \"#utility.yul\":15931:15937   */\n      dup4\n        /* \"#utility.yul\":15927:15957   */\n      add\n        /* \"#utility.yul\":15980:15983   */\n      dup6\n        /* \"#utility.yul\":15972:15978   */\n      dup2\n        /* \"#utility.yul\":15969:15984   */\n      gt\n        /* \"#utility.yul\":15966:16088   */\n      iszero\n      tag_652\n      jumpi\n        /* \"#utility.yul\":15999:16078   */\n      tag_653\n      tag_424\n      jump\t// in\n    tag_653:\n        /* \"#utility.yul\":15966:16088   */\n    tag_652:\n        /* \"#utility.yul\":16114:16120   */\n      dup4\n        /* \"#utility.yul\":16097:16532   */\n    tag_654:\n        /* \"#utility.yul\":16131:16137   */\n      dup2\n        /* \"#utility.yul\":16126:16129   */\n      dup2\n        /* \"#utility.yul\":16123:16138   */\n      lt\n        /* \"#utility.yul\":16097:16532   */\n      iszero\n      tag_656\n      jumpi\n        /* \"#utility.yul\":16220:16223   */\n      dup1\n        /* \"#utility.yul\":16207:16224   */\n      calldataload\n        /* \"#utility.yul\":16256:16274   */\n      0xffffffffffffffff\n        /* \"#utility.yul\":16243:16254   */\n      dup2\n        /* \"#utility.yul\":16240:16275   */\n      gt\n        /* \"#utility.yul\":16237:16359   */\n      iszero\n      tag_657\n      jumpi\n        /* \"#utility.yul\":16278:16357   */\n      tag_658\n      tag_420\n      jump\t// in\n    tag_658:\n        /* \"#utility.yul\":16237:16359   */\n    tag_657:\n        /* \"#utility.yul\":16402:16413   */\n      dup1\n        /* \"#utility.yul\":16394:16400   */\n      dup7\n        /* \"#utility.yul\":16390:16414   */\n      add\n        /* \"#utility.yul\":16440:16487   */\n      tag_659\n        /* \"#utility.yul\":16483:16486   */\n      dup10\n        /* \"#utility.yul\":16471:16481   */\n      dup3\n        /* \"#utility.yul\":16440:16487   */\n      tag_431\n      jump\t// in\n    tag_659:\n        /* \"#utility.yul\":16435:16438   */\n      dup6\n        /* \"#utility.yul\":16428:16488   */\n      mstore\n        /* \"#utility.yul\":16517:16521   */\n      0x20\n        /* \"#utility.yul\":16512:16515   */\n      dup6\n        /* \"#utility.yul\":16508:16522   */\n      add\n        /* \"#utility.yul\":16501:16522   */\n      swap5\n      pop\n        /* \"#utility.yul\":16173:16532   */\n      pop\n      pop\n        /* \"#utility.yul\":16157:16161   */\n      0x20\n        /* \"#utility.yul\":16152:16155   */\n      dup2\n        /* \"#utility.yul\":16148:16162   */\n      add\n        /* \"#utility.yul\":16141:16162   */\n      swap1\n      pop\n        /* \"#utility.yul\":16097:16532   */\n      jump(tag_654)\n    tag_656:\n        /* \"#utility.yul\":16101:16122   */\n      pop\n        /* \"#utility.yul\":15705:16538   */\n      pop\n      pop\n        /* \"#utility.yul\":15593:16538   */\n      swap4\n      swap3\n      pop\n      pop\n      pop\n      jump\t// out\n        /* \"#utility.yul\":16560:16950   */\n    tag_437:\n        /* \"#utility.yul\":16641:16646   */\n      0x00\n        /* \"#utility.yul\":16690:16693   */\n      dup3\n        /* \"#utility.yul\":16683:16687   */\n      0x1f\n        /* \"#utility.yul\":16675:16681   */\n      dup4\n        /* \"#utility.yul\":16671:16688   */\n      add\n        /* \"#utility.yul\":16667:16694   */\n      slt\n        /* \"#utility.yul\":16657:16779   */\n      tag_661\n      jumpi\n        /* \"#utility.yul\":16698:16777   */\n      tag_662\n      tag_420\n      jump\t// in\n    tag_662:\n        /* \"#utility.yul\":16657:16779   */\n    tag_661:\n        /* \"#utility.yul\":16815:16821   */\n      dup2\n        /* \"#utility.yul\":16802:16822   */\n      calldataload\n        /* \"#utility.yul\":16840:16944   */\n      tag_663\n        /* \"#utility.yul\":16940:16943   */\n      dup5\n        /* \"#utility.yul\":16932:16938   */\n      dup3\n        /* \"#utility.yul\":16925:16929   */\n      0x20\n        /* \"#utility.yul\":16917:16923   */\n      dup7\n        /* \"#utility.yul\":16913:16930   */\n      add\n        /* \"#utility.yul\":16840:16944   */\n      tag_436\n      jump\t// in\n    tag_663:\n        /* \"#utility.yul\":16831:16944   */\n      swap2\n      pop\n        /* \"#utility.yul\":16647:16950   */\n      pop\n        /* \"#utility.yul\":16560:16950   */\n      swap3\n      swap2\n      pop\n      pop\n      jump\t// out\n        /* \"#utility.yul\":16956:18457   */\n    tag_60:\n        /* \"#utility.yul\":17106:17112   */\n      0x00\n        /* \"#utility.yul\":17114:17120   */\n      0x00\n        /* \"#utility.yul\":17122:17128   */\n      0x00\n        /* \"#utility.yul\":17130:17136   */\n      0x00\n        /* \"#utility.yul\":17138:17144   */\n      0x00\n        /* \"#utility.yul\":17187:17190   */\n      0xa0\n        /* \"#utility.yul\":17175:17184   */\n      dup7\n        /* \"#utility.yul\":17166:17173   */\n      dup9\n        /* \"#utility.yul\":17162:17185   */\n      sub\n        /* \"#utility.yul\":17158:17191   */\n      slt\n        /* \"#utility.yul\":17155:17275   */\n      iszero\n      tag_665\n      jumpi\n        /* \"#utility.yul\":17194:17273   */\n      tag_666\n      tag_393\n      jump\t// in\n    tag_666:\n        /* \"#utility.yul\":17155:17275   */\n    tag_665:\n        /* \"#utility.yul\":17314:17315   */\n      0x00\n        /* \"#utility.yul\":17339:17392   */\n      tag_667\n        /* \"#utility.yul\":17384:17391   */\n      dup9\n        /* \"#utility.yul\":17375:17381   */\n      dup3\n        /* \"#utility.yul\":17364:17373   */\n      dup10\n        /* \"#utility.yul\":17360:17382   */\n      add\n        /* \"#utility.yul\":17339:17392   */\n      tag_397\n      jump\t// in\n    tag_667:\n        /* \"#utility.yul\":17329:17392   */\n      swap6\n      pop\n        /* \"#utility.yul\":17285:17402   */\n      pop\n        /* \"#utility.yul\":17469:17471   */\n      0x20\n        /* \"#utility.yul\":17458:17467   */\n      dup7\n        /* \"#utility.yul\":17454:17472   */\n      add\n        /* \"#utility.yul\":17441:17473   */\n      calldataload\n        /* \"#utility.yul\":17500:17518   */\n      0xffffffffffffffff\n        /* \"#utility.yul\":17492:17498   */\n      dup2\n        /* \"#utility.yul\":17489:17519   */\n      gt\n        /* \"#utility.yul\":17486:17603   */\n      iszero\n      tag_668\n      jumpi\n        /* \"#utility.yul\":17522:17601   */\n      tag_669\n      tag_394\n      jump\t// in\n    tag_669:\n        /* \"#utility.yul\":17486:17603   */\n    tag_668:\n        /* \"#utility.yul\":17627:17690   */\n      tag_670\n        /* \"#utility.yul\":17682:17689   */\n      dup9\n        /* \"#utility.yul\":17673:17679   */\n      dup3\n        /* \"#utility.yul\":17662:17671   */\n      dup10\n        /* \"#utility.yul\":17658:17680   */\n      add\n        /* \"#utility.yul\":17627:17690   */\n      tag_431\n      jump\t// in\n    tag_670:\n        /* \"#utility.yul\":17617:17690   */\n      swap5\n      pop\n        /* \"#utility.yul\":17412:17700   */\n      pop\n        /* \"#utility.yul\":17767:17769   */\n      0x40\n        /* \"#utility.yul\":17756:17765   */\n      dup7\n        /* \"#utility.yul\":17752:17770   */\n      add\n        /* \"#utility.yul\":17739:17771   */\n      calldataload\n        /* \"#utility.yul\":17798:17816   */\n      0xffffffffffffffff\n        /* \"#utility.yul\":17790:17796   */\n      dup2\n        /* \"#utility.yul\":17787:17817   */\n      gt\n        /* \"#utility.yul\":17784:17901   */\n      iszero\n      tag_671\n      jumpi\n        /* \"#utility.yul\":17820:17899   */\n      tag_672\n      tag_394\n      jump\t// in\n    tag_672:\n        /* \"#utility.yul\":17784:17901   */\n    tag_671:\n        /* \"#utility.yul\":17925:17988   */\n      tag_673\n        /* \"#utility.yul\":17980:17987   */\n      dup9\n        /* \"#utility.yul\":17971:17977   */\n      dup3\n        /* \"#utility.yul\":17960:17969   */\n      dup10\n        /* \"#utility.yul\":17956:17978   */\n      add\n        /* \"#utility.yul\":17925:17988   */\n      tag_431\n      jump\t// in\n    tag_673:\n        /* \"#utility.yul\":17915:17988   */\n      swap4\n      pop\n        /* \"#utility.yul\":17710:17998   */\n      pop\n        /* \"#utility.yul\":18037:18039   */\n      0x60\n        /* \"#utility.yul\":18063:18116   */\n      tag_674\n        /* \"#utility.yul\":18108:18115   */\n      dup9\n        /* \"#utility.yul\":18099:18105   */\n      dup3\n        /* \"#utility.yul\":18088:18097   */\n      dup10\n        /* \"#utility.yul\":18084:18106   */\n      add\n        /* \"#utility.yul\":18063:18116   */\n      tag_397\n      jump\t// in\n    tag_674:\n        /* \"#utility.yul\":18053:18116   */\n      swap3\n      pop\n        /* \"#utility.yul\":18008:18126   */\n      pop\n        /* \"#utility.yul\":18193:18196   */\n      0x80\n        /* \"#utility.yul\":18182:18191   */\n      dup7\n        /* \"#utility.yul\":18178:18197   */\n      add\n        /* \"#utility.yul\":18165:18198   */\n      calldataload\n        /* \"#utility.yul\":18225:18243   */\n      0xffffffffffffffff\n        /* \"#utility.yul\":18217:18223   */\n      dup2\n        /* \"#utility.yul\":18214:18244   */\n      gt\n        /* \"#utility.yul\":18211:18328   */\n      iszero\n      tag_675\n      jumpi\n        /* \"#utility.yul\":18247:18326   */\n      tag_676\n      tag_394\n      jump\t// in\n    tag_676:\n        /* \"#utility.yul\":18211:18328   */\n    tag_675:\n        /* \"#utility.yul\":18352:18440   */\n      tag_677\n        /* \"#utility.yul\":18432:18439   */\n      dup9\n        /* \"#utility.yul\":18423:18429   */\n      dup3\n        /* \"#utility.yul\":18412:18421   */\n      dup10\n        /* \"#utility.yul\":18408:18430   */\n      add\n        /* \"#utility.yul\":18352:18440   */\n      tag_437\n      jump\t// in\n    tag_677:\n        /* \"#utility.yul\":18342:18440   */\n      swap2\n      pop\n        /* \"#utility.yul\":18136:18450   */\n      pop\n        /* \"#utility.yul\":16956:18457   */\n      swap3\n      swap6\n      pop\n      swap3\n      swap6\n      swap1\n      swap4\n      pop\n      jump\t// out\n        /* \"#utility.yul\":18463:18581   */\n    tag_438:\n        /* \"#utility.yul\":18550:18574   */\n      tag_679\n        /* \"#utility.yul\":18568:18573   */\n      dup2\n        /* \"#utility.yul\":18550:18574   */\n      tag_399\n      jump\t// in\n    tag_679:\n        /* \"#utility.yul\":18545:18548   */\n      dup3\n        /* \"#utility.yul\":18538:18575   */\n      mstore\n        /* \"#utility.yul\":18463:18581   */\n      pop\n      pop\n      jump\t// out\n        /* \"#utility.yul\":18587:18809   */\n    tag_68:\n        /* \"#utility.yul\":18680:18684   */\n      0x00\n        /* \"#utility.yul\":18718:18720   */\n      0x20\n        /* \"#utility.yul\":18707:18716   */\n      dup3\n        /* \"#utility.yul\":18703:18721   */\n      add\n        /* \"#utility.yul\":18695:18721   */\n      swap1\n      pop\n        /* \"#utility.yul\":18731:18802   */\n      tag_681\n        /* \"#utility.yul\":18799:18800   */\n      0x00\n        /* \"#utility.yul\":18788:18797   */\n      dup4\n        /* \"#utility.yul\":18784:18801   */\n      add\n        /* \"#utility.yul\":18775:18781   */\n      dup5\n        /* \"#utility.yul\":18731:18802   */\n      tag_438\n      jump\t// in\n    tag_681:\n        /* \"#utility.yul\":18587:18809   */\n      swap3\n      swap2\n      pop\n      pop\n      jump\t// out\n        /* \"#utility.yul\":18815:18957   */\n    tag_439:\n        /* \"#utility.yul\":18910:18916   */\n      0x00\n        /* \"#utility.yul\":18944:18949   */\n      dup2\n        /* \"#utility.yul\":18938:18950   */\n      mload\n        /* \"#utility.yul\":18928:18950   */\n      swap1\n      pop\n        /* \"#utility.yul\":18815:18957   */\n      swap2\n      swap1\n      pop\n      jump\t// out\n        /* \"#utility.yul\":18963:19175   */\n    tag_440:\n        /* \"#utility.yul\":19090:19101   */\n      0x00\n        /* \"#utility.yul\":19124:19130   */\n      dup3\n        /* \"#utility.yul\":19119:19122   */\n      dup3\n        /* \"#utility.yul\":19112:19131   */\n      mstore\n        /* \"#utility.yul\":19164:19168   */\n      0x20\n        /* \"#utility.yul\":19159:19162   */\n      dup3\n        /* \"#utility.yul\":19155:19169   */\n      add\n        /* \"#utility.yul\":19140:19169   */\n      swap1\n      pop\n        /* \"#utility.yul\":18963:19175   */\n      swap3\n      swap2\n      pop\n      pop\n      jump\t// out\n        /* \"#utility.yul\":19181:19341   */\n    tag_441:\n        /* \"#utility.yul\":19276:19280   */\n      0x00\n        /* \"#utility.yul\":19299:19302   */\n      dup2\n        /* \"#utility.yul\":19291:19302   */\n      swap1\n      pop\n        /* \"#utility.yul\":19329:19333   */\n      0x20\n        /* \"#utility.yul\":19324:19327   */\n      dup3\n        /* \"#utility.yul\":19320:19334   */\n      add\n        /* \"#utility.yul\":19312:19334   */\n      swap1\n      pop\n        /* \"#utility.yul\":19181:19341   */\n      swap2\n      swap1\n      pop\n      jump\t// out\n        /* \"#utility.yul\":19393:20356   */\n    tag_442:\n        /* \"#utility.yul\":19508:19511   */\n      0x00\n        /* \"#utility.yul\":19544:19548   */\n      0x80\n        /* \"#utility.yul\":19539:19542   */\n      dup4\n        /* \"#utility.yul\":19535:19549   */\n      add\n        /* \"#utility.yul\":19639:19643   */\n      0x00\n        /* \"#utility.yul\":19632:19637   */\n      dup4\n        /* \"#utility.yul\":19628:19644   */\n      add\n        /* \"#utility.yul\":19622:19645   */\n      mload\n        /* \"#utility.yul\":19658:19721   */\n      tag_686\n        /* \"#utility.yul\":19715:19719   */\n      0x00\n        /* \"#utility.yul\":19710:19713   */\n      dup7\n        /* \"#utility.yul\":19706:19720   */\n      add\n        /* \"#utility.yul\":19692:19704   */\n      dup3\n        /* \"#utility.yul\":19658:19721   */\n      tag_403\n      jump\t// in\n    tag_686:\n        /* \"#utility.yul\":19559:19731   */\n      pop\n        /* \"#utility.yul\":19813:19817   */\n      0x20\n        /* \"#utility.yul\":19806:19811   */\n      dup4\n        /* \"#utility.yul\":19802:19818   */\n      add\n        /* \"#utility.yul\":19796:19819   */\n      mload\n        /* \"#utility.yul\":19866:19869   */\n      dup5\n        /* \"#utility.yul\":19860:19864   */\n      dup3\n        /* \"#utility.yul\":19856:19870   */\n      sub\n        /* \"#utility.yul\":19849:19853   */\n      0x20\n        /* \"#utility.yul\":19844:19847   */\n      dup7\n        /* \"#utility.yul\":19840:19854   */\n      add\n        /* \"#utility.yul\":19833:19871   */\n      mstore\n        /* \"#utility.yul\":19892:19965   */\n      tag_687\n        /* \"#utility.yul\":19960:19964   */\n      dup3\n        /* \"#utility.yul\":19946:19958   */\n      dup3\n        /* \"#utility.yul\":19892:19965   */\n      tag_408\n      jump\t// in\n    tag_687:\n        /* \"#utility.yul\":19884:19965   */\n      swap2\n      pop\n        /* \"#utility.yul\":19741:19976   */\n      pop\n        /* \"#utility.yul\":20062:20066   */\n      0x40\n        /* \"#utility.yul\":20055:20060   */\n      dup4\n        /* \"#utility.yul\":20051:20067   */\n      add\n        /* \"#utility.yul\":20045:20068   */\n      mload\n        /* \"#utility.yul\":20081:20144   */\n      tag_688\n        /* \"#utility.yul\":20138:20142   */\n      0x40\n        /* \"#utility.yul\":20133:20136   */\n      dup7\n        /* \"#utility.yul\":20129:20143   */\n      add\n        /* \"#utility.yul\":20115:20127   */\n      dup3\n        /* \"#utility.yul\":20081:20144   */\n      tag_403\n      jump\t// in\n    tag_688:\n        /* \"#utility.yul\":19986:20154   */\n      pop\n        /* \"#utility.yul\":20237:20241   */\n      0x60\n        /* \"#utility.yul\":20230:20235   */\n      dup4\n        /* \"#utility.yul\":20226:20242   */\n      add\n        /* \"#utility.yul\":20220:20243   */\n      mload\n        /* \"#utility.yul\":20256:20319   */\n      tag_689\n        /* \"#utility.yul\":20313:20317   */\n      0x60\n        /* \"#utility.yul\":20308:20311   */\n      dup7\n        /* \"#utility.yul\":20304:20318   */\n      add\n        /* \"#utility.yul\":20290:20302   */\n      dup3\n        /* \"#utility.yul\":20256:20319   */\n      tag_403\n      jump\t// in\n    tag_689:\n        /* \"#utility.yul\":20164:20329   */\n      pop\n        /* \"#utility.yul\":20346:20350   */\n      dup1\n        /* \"#utility.yul\":20339:20350   */\n      swap2\n      pop\n        /* \"#utility.yul\":19513:20356   */\n      pop\n        /* \"#utility.yul\":19393:20356   */\n      swap3\n      swap2\n      pop\n      pop\n      jump\t// out\n        /* \"#utility.yul\":20362:20630   */\n    tag_443:\n        /* \"#utility.yul\":20487:20497   */\n      0x00\n        /* \"#utility.yul\":20522:20624   */\n      tag_691\n        /* \"#utility.yul\":20620:20623   */\n      dup4\n        /* \"#utility.yul\":20612:20618   */\n      dup4\n        /* \"#utility.yul\":20522:20624   */\n      tag_442\n      jump\t// in\n    tag_691:\n        /* \"#utility.yul\":20508:20624   */\n      swap1\n      pop\n        /* \"#utility.yul\":20362:20630   */\n      swap3\n      swap2\n      pop\n      pop\n      jump\t// out\n        /* \"#utility.yul\":20636:20777   */\n    tag_444:\n        /* \"#utility.yul\":20734:20738   */\n      0x00\n        /* \"#utility.yul\":20766:20770   */\n      0x20\n        /* \"#utility.yul\":20761:20764   */\n      dup3\n        /* \"#utility.yul\":20757:20771   */\n      add\n        /* \"#utility.yul\":20749:20771   */\n      swap1\n      pop\n        /* \"#utility.yul\":20636:20777   */\n      swap2\n      swap1\n      pop\n      jump\t// out\n        /* \"#utility.yul\":20833:21968   */\n    tag_445:\n        /* \"#utility.yul\":21008:21011   */\n      0x00\n        /* \"#utility.yul\":21037:21119   */\n      tag_694\n        /* \"#utility.yul\":21113:21118   */\n      dup3\n        /* \"#utility.yul\":21037:21119   */\n      tag_439\n      jump\t// in\n    tag_694:\n        /* \"#utility.yul\":21135:21249   */\n      tag_695\n        /* \"#utility.yul\":21242:21248   */\n      dup2\n        /* \"#utility.yul\":21237:21240   */\n      dup6\n        /* \"#utility.yul\":21135:21249   */\n      tag_440\n      jump\t// in\n    tag_695:\n        /* \"#utility.yul\":21128:21249   */\n      swap4\n      pop\n        /* \"#utility.yul\":21275:21278   */\n      dup4\n        /* \"#utility.yul\":21320:21324   */\n      0x20\n        /* \"#utility.yul\":21312:21318   */\n      dup3\n        /* \"#utility.yul\":21308:21325   */\n      mul\n        /* \"#utility.yul\":21303:21306   */\n      dup6\n        /* \"#utility.yul\":21299:21326   */\n      add\n        /* \"#utility.yul\":21350:21434   */\n      tag_696\n        /* \"#utility.yul\":21428:21433   */\n      dup6\n        /* \"#utility.yul\":21350:21434   */\n      tag_441\n      jump\t// in\n    tag_696:\n        /* \"#utility.yul\":21457:21464   */\n      dup1\n        /* \"#utility.yul\":21488:21489   */\n      0x00\n        /* \"#utility.yul\":21473:21923   */\n    tag_697:\n        /* \"#utility.yul\":21498:21504   */\n      dup6\n        /* \"#utility.yul\":21495:21496   */\n      dup2\n        /* \"#utility.yul\":21492:21505   */\n      lt\n        /* \"#utility.yul\":21473:21923   */\n      iszero\n      tag_699\n      jumpi\n        /* \"#utility.yul\":21569:21578   */\n      dup5\n        /* \"#utility.yul\":21563:21567   */\n      dup5\n        /* \"#utility.yul\":21559:21579   */\n      sub\n        /* \"#utility.yul\":21554:21557   */\n      dup10\n        /* \"#utility.yul\":21547:21580   */\n      mstore\n        /* \"#utility.yul\":21620:21626   */\n      dup2\n        /* \"#utility.yul\":21614:21627   */\n      mload\n        /* \"#utility.yul\":21648:21768   */\n      tag_700\n        /* \"#utility.yul\":21763:21767   */\n      dup6\n        /* \"#utility.yul\":21748:21761   */\n      dup3\n        /* \"#utility.yul\":21648:21768   */\n      tag_443\n      jump\t// in\n    tag_700:\n        /* \"#utility.yul\":21640:21768   */\n      swap5\n      pop\n        /* \"#utility.yul\":21791:21879   */\n      tag_701\n        /* \"#utility.yul\":21872:21878   */\n      dup4\n        /* \"#utility.yul\":21791:21879   */\n      tag_444\n      jump\t// in\n    tag_701:\n        /* \"#utility.yul\":21781:21879   */\n      swap3\n      pop\n        /* \"#utility.yul\":21908:21912   */\n      0x20\n        /* \"#utility.yul\":21903:21906   */\n      dup11\n        /* \"#utility.yul\":21899:21913   */\n      add\n        /* \"#utility.yul\":21892:21913   */\n      swap10\n      pop\n        /* \"#utility.yul\":21533:21923   */\n      pop\n        /* \"#utility.yul\":21520:21521   */\n      0x01\n        /* \"#utility.yul\":21517:21518   */\n      dup2\n        /* \"#utility.yul\":21513:21522   */\n      add\n        /* \"#utility.yul\":21508:21522   */\n      swap1\n      pop\n        /* \"#utility.yul\":21473:21923   */\n      jump(tag_697)\n    tag_699:\n        /* \"#utility.yul\":21477:21491   */\n      pop\n        /* \"#utility.yul\":21939:21943   */\n      dup3\n        /* \"#utility.yul\":21932:21943   */\n      swap8\n      pop\n        /* \"#utility.yul\":21959:21962   */\n      dup8\n        /* \"#utility.yul\":21952:21962   */\n      swap6\n      pop\n        /* \"#utility.yul\":21013:21968   */\n      pop\n      pop\n      pop\n      pop\n      pop\n        /* \"#utility.yul\":20833:21968   */\n      swap3\n      swap2\n      pop\n      pop\n      jump\t// out\n        /* \"#utility.yul\":21974:22459   */\n    tag_76:\n        /* \"#utility.yul\":22173:22177   */\n      0x00\n        /* \"#utility.yul\":22211:22213   */\n      0x20\n        /* \"#utility.yul\":22200:22209   */\n      dup3\n        /* \"#utility.yul\":22196:22214   */\n      add\n        /* \"#utility.yul\":22188:22214   */\n      swap1\n      pop\n        /* \"#utility.yul\":22260:22269   */\n      dup2\n        /* \"#utility.yul\":22254:22258   */\n      dup2\n        /* \"#utility.yul\":22250:22270   */\n      sub\n        /* \"#utility.yul\":22246:22247   */\n      0x00\n        /* \"#utility.yul\":22235:22244   */\n      dup4\n        /* \"#utility.yul\":22231:22248   */\n      add\n        /* \"#utility.yul\":22224:22271   */\n      mstore\n        /* \"#utility.yul\":22288:22452   */\n      tag_703\n        /* \"#utility.yul\":22447:22451   */\n      dup2\n        /* \"#utility.yul\":22438:22444   */\n      dup5\n        /* \"#utility.yul\":22288:22452   */\n      tag_445\n      jump\t// in\n    tag_703:\n        /* \"#utility.yul\":22280:22452   */\n      swap1\n      pop\n        /* \"#utility.yul\":21974:22459   */\n      swap3\n      swap2\n      pop\n      pop\n      jump\t// out\n        /* \"#utility.yul\":22465:24390   */\n    tag_79:\n        /* \"#utility.yul\":22683:22689   */\n      0x00\n        /* \"#utility.yul\":22691:22697   */\n      0x00\n        /* \"#utility.yul\":22699:22705   */\n      0x00\n        /* \"#utility.yul\":22707:22713   */\n      0x00\n        /* \"#utility.yul\":22715:22721   */\n      0x00\n        /* \"#utility.yul\":22723:22729   */\n      0x00\n        /* \"#utility.yul\":22772:22775   */\n      0xc0\n        /* \"#utility.yul\":22760:22769   */\n      dup8\n        /* \"#utility.yul\":22751:22758   */\n      dup10\n        /* \"#utility.yul\":22747:22770   */\n      sub\n        /* \"#utility.yul\":22743:22776   */\n      slt\n        /* \"#utility.yul\":22740:22860   */\n      iszero\n      tag_705\n      jumpi\n        /* \"#utility.yul\":22779:22858   */\n      tag_706\n      tag_393\n      jump\t// in\n    tag_706:\n        /* \"#utility.yul\":22740:22860   */\n    tag_705:\n        /* \"#utility.yul\":22899:22900   */\n      0x00\n        /* \"#utility.yul\":22924:22977   */\n      tag_707\n        /* \"#utility.yul\":22969:22976   */\n      dup10\n        /* \"#utility.yul\":22960:22966   */\n      dup3\n        /* \"#utility.yul\":22949:22958   */\n      dup11\n        /* \"#utility.yul\":22945:22967   */\n      add\n        /* \"#utility.yul\":22924:22977   */\n      tag_397\n      jump\t// in\n    tag_707:\n        /* \"#utility.yul\":22914:22977   */\n      swap7\n      pop\n        /* \"#utility.yul\":22870:22987   */\n      pop\n        /* \"#utility.yul\":23054:23056   */\n      0x20\n        /* \"#utility.yul\":23043:23052   */\n      dup8\n        /* \"#utility.yul\":23039:23057   */\n      add\n        /* \"#utility.yul\":23026:23058   */\n      calldataload\n        /* \"#utility.yul\":23085:23103   */\n      0xffffffffffffffff\n        /* \"#utility.yul\":23077:23083   */\n      dup2\n        /* \"#utility.yul\":23074:23104   */\n      gt\n        /* \"#utility.yul\":23071:23188   */\n      iszero\n      tag_708\n      jumpi\n        /* \"#utility.yul\":23107:23186   */\n      tag_709\n      tag_394\n      jump\t// in\n    tag_709:\n        /* \"#utility.yul\":23071:23188   */\n    tag_708:\n        /* \"#utility.yul\":23212:23275   */\n      tag_710\n        /* \"#utility.yul\":23267:23274   */\n      dup10\n        /* \"#utility.yul\":23258:23264   */\n      dup3\n        /* \"#utility.yul\":23247:23256   */\n      dup11\n        /* \"#utility.yul\":23243:23265   */\n      add\n        /* \"#utility.yul\":23212:23275   */\n      tag_431\n      jump\t// in\n    tag_710:\n        /* \"#utility.yul\":23202:23275   */\n      swap6\n      pop\n        /* \"#utility.yul\":22997:23285   */\n      pop\n        /* \"#utility.yul\":23352:23354   */\n      0x40\n        /* \"#utility.yul\":23341:23350   */\n      dup8\n        /* \"#utility.yul\":23337:23355   */\n      add\n        /* \"#utility.yul\":23324:23356   */\n      calldataload\n        /* \"#utility.yul\":23383:23401   */\n      0xffffffffffffffff\n        /* \"#utility.yul\":23375:23381   */\n      dup2\n        /* \"#utility.yul\":23372:23402   */\n      gt\n        /* \"#utility.yul\":23369:23486   */\n      iszero\n      tag_711\n      jumpi\n        /* \"#utility.yul\":23405:23484   */\n      tag_712\n      tag_394\n      jump\t// in\n    tag_712:\n        /* \"#utility.yul\":23369:23486   */\n    tag_711:\n        /* \"#utility.yul\":23510:23573   */\n      tag_713\n        /* \"#utility.yul\":23565:23572   */\n      dup10\n        /* \"#utility.yul\":23556:23562   */\n      dup3\n        /* \"#utility.yul\":23545:23554   */\n      dup11\n        /* \"#utility.yul\":23541:23563   */\n      add\n        /* \"#utility.yul\":23510:23573   */\n      tag_431\n      jump\t// in\n    tag_713:\n        /* \"#utility.yul\":23500:23573   */\n      swap5\n      pop\n        /* \"#utility.yul\":23295:23583   */\n      pop\n        /* \"#utility.yul\":23622:23624   */\n      0x60\n        /* \"#utility.yul\":23648:23701   */\n      tag_714\n        /* \"#utility.yul\":23693:23700   */\n      dup10\n        /* \"#utility.yul\":23684:23690   */\n      dup3\n        /* \"#utility.yul\":23673:23682   */\n      dup11\n        /* \"#utility.yul\":23669:23691   */\n      add\n        /* \"#utility.yul\":23648:23701   */\n      tag_397\n      jump\t// in\n    tag_714:\n        /* \"#utility.yul\":23638:23701   */\n      swap4\n      pop\n        /* \"#utility.yul\":23593:23711   */\n      pop\n        /* \"#utility.yul\":23778:23781   */\n      0x80\n        /* \"#utility.yul\":23767:23776   */\n      dup8\n        /* \"#utility.yul\":23763:23782   */\n      add\n        /* \"#utility.yul\":23750:23783   */\n      calldataload\n        /* \"#utility.yul\":23810:23828   */\n      0xffffffffffffffff\n        /* \"#utility.yul\":23802:23808   */\n      dup2\n        /* \"#utility.yul\":23799:23829   */\n      gt\n        /* \"#utility.yul\":23796:23913   */\n      iszero\n      tag_715\n      jumpi\n        /* \"#utility.yul\":23832:23911   */\n      tag_716\n      tag_394\n      jump\t// in\n    tag_716:\n        /* \"#utility.yul\":23796:23913   */\n    tag_715:\n        /* \"#utility.yul\":23937:24025   */\n      tag_717\n        /* \"#utility.yul\":24017:24024   */\n      dup10\n        /* \"#utility.yul\":24008:24014   */\n      dup3\n        /* \"#utility.yul\":23997:24006   */\n      dup11\n        /* \"#utility.yul\":23993:24015   */\n      add\n        /* \"#utility.yul\":23937:24025   */\n      tag_437\n      jump\t// in\n    tag_717:\n        /* \"#utility.yul\":23927:24025   */\n      swap3\n      pop\n        /* \"#utility.yul\":23721:24035   */\n      pop\n        /* \"#utility.yul\":24102:24105   */\n      0xa0\n        /* \"#utility.yul\":24091:24100   */\n      dup8\n        /* \"#utility.yul\":24087:24106   */\n      add\n        /* \"#utility.yul\":24074:24107   */\n      calldataload\n        /* \"#utility.yul\":24134:24152   */\n      0xffffffffffffffff\n        /* \"#utility.yul\":24126:24132   */\n      dup2\n        /* \"#utility.yul\":24123:24153   */\n      gt\n        /* \"#utility.yul\":24120:24237   */\n      iszero\n      tag_718\n      jumpi\n        /* \"#utility.yul\":24156:24235   */\n      tag_719\n      tag_394\n      jump\t// in\n    tag_719:\n        /* \"#utility.yul\":24120:24237   */\n    tag_718:\n        /* \"#utility.yul\":24261:24373   */\n      tag_720\n        /* \"#utility.yul\":24365:24372   */\n      dup10\n        /* \"#utility.yul\":24356:24362   */\n      dup3\n        /* \"#utility.yul\":24345:24354   */\n      dup11\n        /* \"#utility.yul\":24341:24363   */\n      add\n        /* \"#utility.yul\":24261:24373   */\n      tag_434\n      jump\t// in\n    tag_720:\n        /* \"#utility.yul\":24251:24373   */\n      swap2\n      pop\n        /* \"#utility.yul\":24045:24383   */\n      pop\n        /* \"#utility.yul\":22465:24390   */\n      swap3\n      swap6\n      pop\n      swap3\n      swap6\n      pop\n      swap3\n      swap6\n      jump\t// out\n        /* \"#utility.yul\":24396:24543   */\n    tag_446:\n        /* \"#utility.yul\":24496:24502   */\n      0x00\n        /* \"#utility.yul\":24530:24535   */\n      dup2\n        /* \"#utility.yul\":24524:24536   */\n      mload\n        /* \"#utility.yul\":24514:24536   */\n      swap1\n      pop\n        /* \"#utility.yul\":24396:24543   */\n      swap2\n      swap1\n      pop\n      jump\t// out\n        /* \"#utility.yul\":24549:24766   */\n    tag_447:\n        /* \"#utility.yul\":24681:24692   */\n      0x00\n        /* \"#utility.yul\":24715:24721   */\n      dup3\n        /* \"#utility.yul\":24710:24713   */\n      dup3\n        /* \"#utility.yul\":24703:24722   */\n      mstore\n        /* \"#utility.yul\":24755:24759   */\n      0x20\n        /* \"#utility.yul\":24750:24753   */\n      dup3\n        /* \"#utility.yul\":24746:24760   */\n      add\n        /* \"#utility.yul\":24731:24760   */\n      swap1\n      pop\n        /* \"#utility.yul\":24549:24766   */\n      swap3\n      swap2\n      pop\n      pop\n      jump\t// out\n        /* \"#utility.yul\":24772:24937   */\n    tag_448:\n        /* \"#utility.yul\":24872:24876   */\n      0x00\n        /* \"#utility.yul\":24895:24898   */\n      dup2\n        /* \"#utility.yul\":24887:24898   */\n      swap1\n      pop\n        /* \"#utility.yul\":24925:24929   */\n      0x20\n        /* \"#utility.yul\":24920:24923   */\n      dup3\n        /* \"#utility.yul\":24916:24930   */\n      add\n        /* \"#utility.yul\":24908:24930   */\n      swap1\n      pop\n        /* \"#utility.yul\":24772:24937   */\n      swap2\n      swap1\n      pop\n      jump\t// out\n        /* \"#utility.yul\":24977:26660   */\n    tag_449:\n        /* \"#utility.yul\":25080:25083   */\n      0x00\n        /* \"#utility.yul\":25116:25120   */\n      0xe0\n        /* \"#utility.yul\":25111:25114   */\n      dup4\n        /* \"#utility.yul\":25107:25121   */\n      add\n        /* \"#utility.yul\":25205:25209   */\n      0x00\n        /* \"#utility.yul\":25198:25203   */\n      dup4\n        /* \"#utility.yul\":25194:25210   */\n      add\n        /* \"#utility.yul\":25188:25211   */\n      mload\n        /* \"#utility.yul\":25224:25287   */\n      tag_725\n        /* \"#utility.yul\":25281:25285   */\n      0x00\n        /* \"#utility.yul\":25276:25279   */\n      dup7\n        /* \"#utility.yul\":25272:25286   */\n      add\n        /* \"#utility.yul\":25258:25270   */\n      dup3\n        /* \"#utility.yul\":25224:25287   */\n      tag_403\n      jump\t// in\n    tag_725:\n        /* \"#utility.yul\":25131:25297   */\n      pop\n        /* \"#utility.yul\":25379:25383   */\n      0x20\n        /* \"#utility.yul\":25372:25377   */\n      dup4\n        /* \"#utility.yul\":25368:25384   */\n      add\n        /* \"#utility.yul\":25362:25385   */\n      mload\n        /* \"#utility.yul\":25432:25435   */\n      dup5\n        /* \"#utility.yul\":25426:25430   */\n      dup3\n        /* \"#utility.yul\":25422:25436   */\n      sub\n        /* \"#utility.yul\":25415:25419   */\n      0x20\n        /* \"#utility.yul\":25410:25413   */\n      dup7\n        /* \"#utility.yul\":25406:25420   */\n      add\n        /* \"#utility.yul\":25399:25437   */\n      mstore\n        /* \"#utility.yul\":25458:25531   */\n      tag_726\n        /* \"#utility.yul\":25526:25530   */\n      dup3\n        /* \"#utility.yul\":25512:25524   */\n      dup3\n        /* \"#utility.yul\":25458:25531   */\n      tag_408\n      jump\t// in\n    tag_726:\n        /* \"#utility.yul\":25450:25531   */\n      swap2\n      pop\n        /* \"#utility.yul\":25307:25542   */\n      pop\n        /* \"#utility.yul\":25631:25635   */\n      0x40\n        /* \"#utility.yul\":25624:25629   */\n      dup4\n        /* \"#utility.yul\":25620:25636   */\n      add\n        /* \"#utility.yul\":25614:25637   */\n      mload\n        /* \"#utility.yul\":25684:25687   */\n      dup5\n        /* \"#utility.yul\":25678:25682   */\n      dup3\n        /* \"#utility.yul\":25674:25688   */\n      sub\n        /* \"#utility.yul\":25667:25671   */\n      0x40\n        /* \"#utility.yul\":25662:25665   */\n      dup7\n        /* \"#utility.yul\":25658:25672   */\n      add\n        /* \"#utility.yul\":25651:25689   */\n      mstore\n        /* \"#utility.yul\":25710:25783   */\n      tag_727\n        /* \"#utility.yul\":25778:25782   */\n      dup3\n        /* \"#utility.yul\":25764:25776   */\n      dup3\n        /* \"#utility.yul\":25710:25783   */\n      tag_408\n      jump\t// in\n    tag_727:\n        /* \"#utility.yul\":25702:25783   */\n      swap2\n      pop\n        /* \"#utility.yul\":25552:25794   */\n      pop\n        /* \"#utility.yul\":25882:25886   */\n      0x60\n        /* \"#utility.yul\":25875:25880   */\n      dup4\n        /* \"#utility.yul\":25871:25887   */\n      add\n        /* \"#utility.yul\":25865:25888   */\n      mload\n        /* \"#utility.yul\":25901:25964   */\n      tag_728\n        /* \"#utility.yul\":25958:25962   */\n      0x60\n        /* \"#utility.yul\":25953:25956   */\n      dup7\n        /* \"#utility.yul\":25949:25963   */\n      add\n        /* \"#utility.yul\":25935:25947   */\n      dup3\n        /* \"#utility.yul\":25901:25964   */\n      tag_403\n      jump\t// in\n    tag_728:\n        /* \"#utility.yul\":25804:25974   */\n      pop\n        /* \"#utility.yul\":26060:26064   */\n      0x80\n        /* \"#utility.yul\":26053:26058   */\n      dup4\n        /* \"#utility.yul\":26049:26065   */\n      add\n        /* \"#utility.yul\":26043:26066   */\n      mload\n        /* \"#utility.yul\":26113:26116   */\n      dup5\n        /* \"#utility.yul\":26107:26111   */\n      dup3\n        /* \"#utility.yul\":26103:26117   */\n      sub\n        /* \"#utility.yul\":26096:26100   */\n      0x80\n        /* \"#utility.yul\":26091:26094   */\n      dup7\n        /* \"#utility.yul\":26087:26101   */\n      add\n        /* \"#utility.yul\":26080:26118   */\n      mstore\n        /* \"#utility.yul\":26139:26262   */\n      tag_729\n        /* \"#utility.yul\":26257:26261   */\n      dup3\n        /* \"#utility.yul\":26243:26255   */\n      dup3\n        /* \"#utility.yul\":26139:26262   */\n      tag_414\n      jump\t// in\n    tag_729:\n        /* \"#utility.yul\":26131:26262   */\n      swap2\n      pop\n        /* \"#utility.yul\":25984:26273   */\n      pop\n        /* \"#utility.yul\":26360:26364   */\n      0xa0\n        /* \"#utility.yul\":26353:26358   */\n      dup4\n        /* \"#utility.yul\":26349:26365   */\n      add\n        /* \"#utility.yul\":26343:26366   */\n      mload\n        /* \"#utility.yul\":26379:26442   */\n      tag_730\n        /* \"#utility.yul\":26436:26440   */\n      0xa0\n        /* \"#utility.yul\":26431:26434   */\n      dup7\n        /* \"#utility.yul\":26427:26441   */\n      add\n        /* \"#utility.yul\":26413:26425   */\n      dup3\n        /* \"#utility.yul\":26379:26442   */\n      tag_403\n      jump\t// in\n    tag_730:\n        /* \"#utility.yul\":26283:26452   */\n      pop\n        /* \"#utility.yul\":26541:26545   */\n      0xc0\n        /* \"#utility.yul\":26534:26539   */\n      dup4\n        /* \"#utility.yul\":26530:26546   */\n      add\n        /* \"#utility.yul\":26524:26547   */\n      mload\n        /* \"#utility.yul\":26560:26623   */\n      tag_731\n        /* \"#utility.yul\":26617:26621   */\n      0xc0\n        /* \"#utility.yul\":26612:26615   */\n      dup7\n        /* \"#utility.yul\":26608:26622   */\n      add\n        /* \"#utility.yul\":26594:26606   */\n      dup3\n        /* \"#utility.yul\":26560:26623   */\n      tag_403\n      jump\t// in\n    tag_731:\n        /* \"#utility.yul\":26462:26633   */\n      pop\n        /* \"#utility.yul\":26650:26654   */\n      dup1\n        /* \"#utility.yul\":26643:26654   */\n      swap2\n      pop\n        /* \"#utility.yul\":25085:26660   */\n      pop\n        /* \"#utility.yul\":24977:26660   */\n      swap3\n      swap2\n      pop\n      pop\n      jump\t// out\n        /* \"#utility.yul\":26666:26868   */\n    tag_450:\n        /* \"#utility.yul\":26783:26794   */\n      0x00\n        /* \"#utility.yul\":26817:26823   */\n      dup3\n        /* \"#utility.yul\":26812:26815   */\n      dup3\n        /* \"#utility.yul\":26805:26824   */\n      mstore\n        /* \"#utility.yul\":26857:26861   */\n      0x20\n        /* \"#utility.yul\":26852:26855   */\n      dup3\n        /* \"#utility.yul\":26848:26862   */\n      add\n        /* \"#utility.yul\":26833:26862   */\n      swap1\n      pop\n        /* \"#utility.yul\":26666:26868   */\n      swap3\n      swap2\n      pop\n      pop\n      jump\t// out\n        /* \"#utility.yul\":26924:28039   */\n    tag_451:\n        /* \"#utility.yul\":27089:27092   */\n      0x00\n        /* \"#utility.yul\":27118:27200   */\n      tag_734\n        /* \"#utility.yul\":27194:27199   */\n      dup3\n        /* \"#utility.yul\":27118:27200   */\n      tag_439\n      jump\t// in\n    tag_734:\n        /* \"#utility.yul\":27216:27320   */\n      tag_735\n        /* \"#utility.yul\":27313:27319   */\n      dup2\n        /* \"#utility.yul\":27308:27311   */\n      dup6\n        /* \"#utility.yul\":27216:27320   */\n      tag_450\n      jump\t// in\n    tag_735:\n        /* \"#utility.yul\":27209:27320   */\n      swap4\n      pop\n        /* \"#utility.yul\":27346:27349   */\n      dup4\n        /* \"#utility.yul\":27391:27395   */\n      0x20\n        /* \"#utility.yul\":27383:27389   */\n      dup3\n        /* \"#utility.yul\":27379:27396   */\n      mul\n        /* \"#utility.yul\":27374:27377   */\n      dup6\n        /* \"#utility.yul\":27370:27397   */\n      add\n        /* \"#utility.yul\":27421:27505   */\n      tag_736\n        /* \"#utility.yul\":27499:27504   */\n      dup6\n        /* \"#utility.yul\":27421:27505   */\n      tag_441\n      jump\t// in\n    tag_736:\n        /* \"#utility.yul\":27528:27535   */\n      dup1\n        /* \"#utility.yul\":27559:27560   */\n      0x00\n        /* \"#utility.yul\":27544:27994   */\n    tag_737:\n        /* \"#utility.yul\":27569:27575   */\n      dup6\n        /* \"#utility.yul\":27566:27567   */\n      dup2\n        /* \"#utility.yul\":27563:27576   */\n      lt\n        /* \"#utility.yul\":27544:27994   */\n      iszero\n      tag_739\n      jumpi\n        /* \"#utility.yul\":27640:27649   */\n      dup5\n        /* \"#utility.yul\":27634:27638   */\n      dup5\n        /* \"#utility.yul\":27630:27650   */\n      sub\n        /* \"#utility.yul\":27625:27628   */\n      dup10\n        /* \"#utility.yul\":27618:27651   */\n      mstore\n        /* \"#utility.yul\":27691:27697   */\n      dup2\n        /* \"#utility.yul\":27685:27698   */\n      mload\n        /* \"#utility.yul\":27719:27839   */\n      tag_740\n        /* \"#utility.yul\":27834:27838   */\n      dup6\n        /* \"#utility.yul\":27819:27832   */\n      dup3\n        /* \"#utility.yul\":27719:27839   */\n      tag_443\n      jump\t// in\n    tag_740:\n        /* \"#utility.yul\":27711:27839   */\n      swap5\n      pop\n        /* \"#utility.yul\":27862:27950   */\n      tag_741\n        /* \"#utility.yul\":27943:27949   */\n      dup4\n        /* \"#utility.yul\":27862:27950   */\n      tag_444\n      jump\t// in\n    tag_741:\n        /* \"#utility.yul\":27852:27950   */\n      swap3\n      pop\n        /* \"#utility.yul\":27979:27983   */\n      0x20\n        /* \"#utility.yul\":27974:27977   */\n      dup11\n        /* \"#utility.yul\":27970:27984   */\n      add\n        /* \"#utility.yul\":27963:27984   */\n      swap10\n      pop\n        /* \"#utility.yul\":27604:27994   */\n      pop\n        /* \"#utility.yul\":27591:27592   */\n      0x01\n        /* \"#utility.yul\":27588:27589   */\n      dup2\n        /* \"#utility.yul\":27584:27593   */\n      add\n        /* \"#utility.yul\":27579:27593   */\n      swap1\n      pop\n        /* \"#utility.yul\":27544:27994   */\n      jump(tag_737)\n    tag_739:\n        /* \"#utility.yul\":27548:27562   */\n      pop\n        /* \"#utility.yul\":28010:28014   */\n      dup3\n        /* \"#utility.yul\":28003:28014   */\n      swap8\n      pop\n        /* \"#utility.yul\":28030:28033   */\n      dup8\n        /* \"#utility.yul\":28023:28033   */\n      swap6\n      pop\n        /* \"#utility.yul\":27094:28039   */\n      pop\n      pop\n      pop\n      pop\n      pop\n        /* \"#utility.yul\":26924:28039   */\n      swap3\n      swap2\n      pop\n      pop\n      jump\t// out\n        /* \"#utility.yul\":28101:28901   */\n    tag_452:\n        /* \"#utility.yul\":28226:28229   */\n      0x00\n        /* \"#utility.yul\":28262:28266   */\n      0x40\n        /* \"#utility.yul\":28257:28260   */\n      dup4\n        /* \"#utility.yul\":28253:28267   */\n      add\n        /* \"#utility.yul\":28349:28353   */\n      0x00\n        /* \"#utility.yul\":28342:28347   */\n      dup4\n        /* \"#utility.yul\":28338:28354   */\n      add\n        /* \"#utility.yul\":28332:28355   */\n      mload\n        /* \"#utility.yul\":28402:28405   */\n      dup5\n        /* \"#utility.yul\":28396:28400   */\n      dup3\n        /* \"#utility.yul\":28392:28406   */\n      sub\n        /* \"#utility.yul\":28385:28389   */\n      0x00\n        /* \"#utility.yul\":28380:28383   */\n      dup7\n        /* \"#utility.yul\":28376:28390   */\n      add\n        /* \"#utility.yul\":28369:28407   */\n      mstore\n        /* \"#utility.yul\":28428:28525   */\n      tag_743\n        /* \"#utility.yul\":28520:28524   */\n      dup3\n        /* \"#utility.yul\":28506:28518   */\n      dup3\n        /* \"#utility.yul\":28428:28525   */\n      tag_449\n      jump\t// in\n    tag_743:\n        /* \"#utility.yul\":28420:28525   */\n      swap2\n      pop\n        /* \"#utility.yul\":28277:28536   */\n      pop\n        /* \"#utility.yul\":28625:28629   */\n      0x20\n        /* \"#utility.yul\":28618:28623   */\n      dup4\n        /* \"#utility.yul\":28614:28630   */\n      add\n        /* \"#utility.yul\":28608:28631   */\n      mload\n        /* \"#utility.yul\":28678:28681   */\n      dup5\n        /* \"#utility.yul\":28672:28676   */\n      dup3\n        /* \"#utility.yul\":28668:28682   */\n      sub\n        /* \"#utility.yul\":28661:28665   */\n      0x20\n        /* \"#utility.yul\":28656:28659   */\n      dup7\n        /* \"#utility.yul\":28652:28666   */\n      add\n        /* \"#utility.yul\":28645:28683   */\n      mstore\n        /* \"#utility.yul\":28704:28863   */\n      tag_744\n        /* \"#utility.yul\":28858:28862   */\n      dup3\n        /* \"#utility.yul\":28844:28856   */\n      dup3\n        /* \"#utility.yul\":28704:28863   */\n      tag_451\n      jump\t// in\n    tag_744:\n        /* \"#utility.yul\":28696:28863   */\n      swap2\n      pop\n        /* \"#utility.yul\":28546:28874   */\n      pop\n        /* \"#utility.yul\":28891:28895   */\n      dup1\n        /* \"#utility.yul\":28884:28895   */\n      swap2\n      pop\n        /* \"#utility.yul\":28231:28901   */\n      pop\n        /* \"#utility.yul\":28101:28901   */\n      swap3\n      swap2\n      pop\n      pop\n      jump\t// out\n        /* \"#utility.yul\":28907:29195   */\n    tag_453:\n        /* \"#utility.yul\":29042:29052   */\n      0x00\n        /* \"#utility.yul\":29077:29189   */\n      tag_746\n        /* \"#utility.yul\":29185:29188   */\n      dup4\n        /* \"#utility.yul\":29177:29183   */\n      dup4\n        /* \"#utility.yul\":29077:29189   */\n      tag_452\n      jump\t// in\n    tag_746:\n        /* \"#utility.yul\":29063:29189   */\n      swap1\n      pop\n        /* \"#utility.yul\":28907:29195   */\n      swap3\n      swap2\n      pop\n      pop\n      jump\t// out\n        /* \"#utility.yul\":29201:29347   */\n    tag_454:\n        /* \"#utility.yul\":29304:29308   */\n      0x00\n        /* \"#utility.yul\":29336:29340   */\n      0x20\n        /* \"#utility.yul\":29331:29334   */\n      dup3\n        /* \"#utility.yul\":29327:29341   */\n      add\n        /* \"#utility.yul\":29319:29341   */\n      swap1\n      pop\n        /* \"#utility.yul\":29201:29347   */\n      swap2\n      swap1\n      pop\n      jump\t// out\n        /* \"#utility.yul\":29413:30588   */\n    tag_455:\n        /* \"#utility.yul\":29598:29601   */\n      0x00\n        /* \"#utility.yul\":29627:29714   */\n      tag_749\n        /* \"#utility.yul\":29708:29713   */\n      dup3\n        /* \"#utility.yul\":29627:29714   */\n      tag_446\n      jump\t// in\n    tag_749:\n        /* \"#utility.yul\":29730:29849   */\n      tag_750\n        /* \"#utility.yul\":29842:29848   */\n      dup2\n        /* \"#utility.yul\":29837:29840   */\n      dup6\n        /* \"#utility.yul\":29730:29849   */\n      tag_447\n      jump\t// in\n    tag_750:\n        /* \"#utility.yul\":29723:29849   */\n      swap4\n      pop\n        /* \"#utility.yul\":29875:29878   */\n      dup4\n        /* \"#utility.yul\":29920:29924   */\n      0x20\n        /* \"#utility.yul\":29912:29918   */\n      dup3\n        /* \"#utility.yul\":29908:29925   */\n      mul\n        /* \"#utility.yul\":29903:29906   */\n      dup6\n        /* \"#utility.yul\":29899:29926   */\n      add\n        /* \"#utility.yul\":29950:30039   */\n      tag_751\n        /* \"#utility.yul\":30033:30038   */\n      dup6\n        /* \"#utility.yul\":29950:30039   */\n      tag_448\n      jump\t// in\n    tag_751:\n        /* \"#utility.yul\":30062:30069   */\n      dup1\n        /* \"#utility.yul\":30093:30094   */\n      0x00\n        /* \"#utility.yul\":30078:30543   */\n    tag_752:\n        /* \"#utility.yul\":30103:30109   */\n      dup6\n        /* \"#utility.yul\":30100:30101   */\n      dup2\n        /* \"#utility.yul\":30097:30110   */\n      lt\n        /* \"#utility.yul\":30078:30543   */\n      iszero\n      tag_754\n      jumpi\n        /* \"#utility.yul\":30174:30183   */\n      dup5\n        /* \"#utility.yul\":30168:30172   */\n      dup5\n        /* \"#utility.yul\":30164:30184   */\n      sub\n        /* \"#utility.yul\":30159:30162   */\n      dup10\n        /* \"#utility.yul\":30152:30185   */\n      mstore\n        /* \"#utility.yul\":30225:30231   */\n      dup2\n        /* \"#utility.yul\":30219:30232   */\n      mload\n        /* \"#utility.yul\":30253:30383   */\n      tag_755\n        /* \"#utility.yul\":30378:30382   */\n      dup6\n        /* \"#utility.yul\":30363:30376   */\n      dup3\n        /* \"#utility.yul\":30253:30383   */\n      tag_453\n      jump\t// in\n    tag_755:\n        /* \"#utility.yul\":30245:30383   */\n      swap5\n      pop\n        /* \"#utility.yul\":30406:30499   */\n      tag_756\n        /* \"#utility.yul\":30492:30498   */\n      dup4\n        /* \"#utility.yul\":30406:30499   */\n      tag_454\n      jump\t// in\n    tag_756:\n        /* \"#utility.yul\":30396:30499   */\n      swap3\n      pop\n        /* \"#utility.yul\":30528:30532   */\n      0x20\n        /* \"#utility.yul\":30523:30526   */\n      dup11\n        /* \"#utility.yul\":30519:30533   */\n      add\n        /* \"#utility.yul\":30512:30533   */\n      swap10\n      pop\n        /* \"#utility.yul\":30138:30543   */\n      pop\n        /* \"#utility.yul\":30125:30126   */\n      0x01\n        /* \"#utility.yul\":30122:30123   */\n      dup2\n        /* \"#utility.yul\":30118:30127   */\n      add\n        /* \"#utility.yul\":30113:30127   */\n      swap1\n      pop\n        /* \"#utility.yul\":30078:30543   */\n      jump(tag_752)\n    tag_754:\n        /* \"#utility.yul\":30082:30096   */\n      pop\n        /* \"#utility.yul\":30559:30563   */\n      dup3\n        /* \"#utility.yul\":30552:30563   */\n      swap8\n      pop\n        /* \"#utility.yul\":30579:30582   */\n      dup8\n        /* \"#utility.yul\":30572:30582   */\n      swap6\n      pop\n        /* \"#utility.yul\":29603:30588   */\n      pop\n      pop\n      pop\n      pop\n      pop\n        /* \"#utility.yul\":29413:30588   */\n      swap3\n      swap2\n      pop\n      pop\n      jump\t// out\n        /* \"#utility.yul\":30594:31099   */\n    tag_84:\n        /* \"#utility.yul\":30803:30807   */\n      0x00\n        /* \"#utility.yul\":30841:30843   */\n      0x20\n        /* \"#utility.yul\":30830:30839   */\n      dup3\n        /* \"#utility.yul\":30826:30844   */\n      add\n        /* \"#utility.yul\":30818:30844   */\n      swap1\n      pop\n        /* \"#utility.yul\":30890:30899   */\n      dup2\n        /* \"#utility.yul\":30884:30888   */\n      dup2\n        /* \"#utility.yul\":30880:30900   */\n      sub\n        /* \"#utility.yul\":30876:30877   */\n      0x00\n        /* \"#utility.yul\":30865:30874   */\n      dup4\n        /* \"#utility.yul\":30861:30878   */\n      add\n        /* \"#utility.yul\":30854:30901   */\n      mstore\n        /* \"#utility.yul\":30918:31092   */\n      tag_758\n        /* \"#utility.yul\":31087:31091   */\n      dup2\n        /* \"#utility.yul\":31078:31084   */\n      dup5\n        /* \"#utility.yul\":30918:31092   */\n      tag_455\n      jump\t// in\n    tag_758:\n        /* \"#utility.yul\":30910:31092   */\n      swap1\n      pop\n        /* \"#utility.yul\":30594:31099   */\n      swap3\n      swap2\n      pop\n      pop\n      jump\t// out\n        /* \"#utility.yul\":31105:31952   */\n    tag_87:\n        /* \"#utility.yul\":31216:31222   */\n      0x00\n        /* \"#utility.yul\":31224:31230   */\n      0x00\n        /* \"#utility.yul\":31232:31238   */\n      0x00\n        /* \"#utility.yul\":31281:31283   */\n      0x60\n        /* \"#utility.yul\":31269:31278   */\n      dup5\n        /* \"#utility.yul\":31260:31267   */\n      dup7\n        /* \"#utility.yul\":31256:31279   */\n      sub\n        /* \"#utility.yul\":31252:31284   */\n      slt\n        /* \"#utility.yul\":31249:31368   */\n      iszero\n      tag_760\n      jumpi\n        /* \"#utility.yul\":31287:31366   */\n      tag_761\n      tag_393\n      jump\t// in\n    tag_761:\n        /* \"#utility.yul\":31249:31368   */\n    tag_760:\n        /* \"#utility.yul\":31407:31408   */\n      0x00\n        /* \"#utility.yul\":31432:31485   */\n      tag_762\n        /* \"#utility.yul\":31477:31484   */\n      dup7\n        /* \"#utility.yul\":31468:31474   */\n      dup3\n        /* \"#utility.yul\":31457:31466   */\n      dup8\n        /* \"#utility.yul\":31453:31475   */\n      add\n        /* \"#utility.yul\":31432:31485   */\n      tag_397\n      jump\t// in\n    tag_762:\n        /* \"#utility.yul\":31422:31485   */\n      swap4\n      pop\n        /* \"#utility.yul\":31378:31495   */\n      pop\n        /* \"#utility.yul\":31534:31536   */\n      0x20\n        /* \"#utility.yul\":31560:31613   */\n      tag_763\n        /* \"#utility.yul\":31605:31612   */\n      dup7\n        /* \"#utility.yul\":31596:31602   */\n      dup3\n        /* \"#utility.yul\":31585:31594   */\n      dup8\n        /* \"#utility.yul\":31581:31603   */\n      add\n        /* \"#utility.yul\":31560:31613   */\n      tag_397\n      jump\t// in\n    tag_763:\n        /* \"#utility.yul\":31550:31613   */\n      swap3\n      pop\n        /* \"#utility.yul\":31505:31623   */\n      pop\n        /* \"#utility.yul\":31690:31692   */\n      0x40\n        /* \"#utility.yul\":31679:31688   */\n      dup5\n        /* \"#utility.yul\":31675:31693   */\n      add\n        /* \"#utility.yul\":31662:31694   */\n      calldataload\n        /* \"#utility.yul\":31721:31739   */\n      0xffffffffffffffff\n        /* \"#utility.yul\":31713:31719   */\n      dup2\n        /* \"#utility.yul\":31710:31740   */\n      gt\n        /* \"#utility.yul\":31707:31824   */\n      iszero\n      tag_764\n      jumpi\n        /* \"#utility.yul\":31743:31822   */\n      tag_765\n      tag_394\n      jump\t// in\n    tag_765:\n        /* \"#utility.yul\":31707:31824   */\n    tag_764:\n        /* \"#utility.yul\":31848:31935   */\n      tag_766\n        /* \"#utility.yul\":31927:31934   */\n      dup7\n        /* \"#utility.yul\":31918:31924   */\n      dup3\n        /* \"#utility.yul\":31907:31916   */\n      dup8\n        /* \"#utility.yul\":31903:31925   */\n      add\n        /* \"#utility.yul\":31848:31935   */\n      tag_432\n      jump\t// in\n    tag_766:\n        /* \"#utility.yul\":31838:31935   */\n      swap2\n      pop\n        /* \"#utility.yul\":31633:31945   */\n      pop\n        /* \"#utility.yul\":31105:31952   */\n      swap3\n      pop\n      swap3\n      pop\n      swap3\n      jump\t// out\n        /* \"#utility.yul\":31958:32018   */\n    tag_456:\n        /* \"#utility.yul\":31986:31989   */\n      0x00\n        /* \"#utility.yul\":32007:32012   */\n      dup2\n        /* \"#utility.yul\":32000:32012   */\n      swap1\n      pop\n        /* \"#utility.yul\":31958:32018   */\n      swap2\n      swap1\n      pop\n      jump\t// out\n        /* \"#utility.yul\":32024:32166   */\n    tag_457:\n        /* \"#utility.yul\":32074:32083   */\n      0x00\n        /* \"#utility.yul\":32107:32160   */\n      tag_769\n        /* \"#utility.yul\":32125:32159   */\n      tag_770\n        /* \"#utility.yul\":32134:32158   */\n      tag_771\n        /* \"#utility.yul\":32152:32157   */\n      dup5\n        /* \"#utility.yul\":32134:32158   */\n      tag_398\n      jump\t// in\n    tag_771:\n        /* \"#utility.yul\":32125:32159   */\n      tag_456\n      jump\t// in\n    tag_770:\n        /* \"#utility.yul\":32107:32160   */\n      tag_398\n      jump\t// in\n    tag_769:\n        /* \"#utility.yul\":32094:32160   */\n      swap1\n      pop\n        /* \"#utility.yul\":32024:32166   */\n      swap2\n      swap1\n      pop\n      jump\t// out\n        /* \"#utility.yul\":32172:32298   */\n    tag_458:\n        /* \"#utility.yul\":32222:32231   */\n      0x00\n        /* \"#utility.yul\":32255:32292   */\n      tag_773\n        /* \"#utility.yul\":32286:32291   */\n      dup3\n        /* \"#utility.yul\":32255:32292   */\n      tag_457\n      jump\t// in\n    tag_773:\n        /* \"#utility.yul\":32242:32292   */\n      swap1\n      pop\n        /* \"#utility.yul\":32172:32298   */\n      swap2\n      swap1\n      pop\n      jump\t// out\n        /* \"#utility.yul\":32304:32454   */\n    tag_459:\n        /* \"#utility.yul\":32378:32387   */\n      0x00\n        /* \"#utility.yul\":32411:32448   */\n      tag_775\n        /* \"#utility.yul\":32442:32447   */\n      dup3\n        /* \"#utility.yul\":32411:32448   */\n      tag_458\n      jump\t// in\n    tag_775:\n        /* \"#utility.yul\":32398:32448   */\n      swap1\n      pop\n        /* \"#utility.yul\":32304:32454   */\n      swap2\n      swap1\n      pop\n      jump\t// out\n        /* \"#utility.yul\":32460:32639   */\n    tag_460:\n        /* \"#utility.yul\":32571:32632   */\n      tag_777\n        /* \"#utility.yul\":32626:32631   */\n      dup2\n        /* \"#utility.yul\":32571:32632   */\n      tag_459\n      jump\t// in\n    tag_777:\n        /* \"#utility.yul\":32566:32569   */\n      dup3\n        /* \"#utility.yul\":32559:32633   */\n      mstore\n        /* \"#utility.yul\":32460:32639   */\n      pop\n      pop\n      jump\t// out\n        /* \"#utility.yul\":32645:32915   */\n    tag_95:\n        /* \"#utility.yul\":32762:32766   */\n      0x00\n        /* \"#utility.yul\":32800:32802   */\n      0x20\n        /* \"#utility.yul\":32789:32798   */\n      dup3\n        /* \"#utility.yul\":32785:32803   */\n      add\n        /* \"#utility.yul\":32777:32803   */\n      swap1\n      pop\n        /* \"#utility.yul\":32813:32908   */\n      tag_779\n        /* \"#utility.yul\":32905:32906   */\n      0x00\n        /* \"#utility.yul\":32894:32903   */\n      dup4\n        /* \"#utility.yul\":32890:32907   */\n      add\n        /* \"#utility.yul\":32881:32887   */\n      dup5\n        /* \"#utility.yul\":32813:32908   */\n      tag_460\n      jump\t// in\n    tag_779:\n        /* \"#utility.yul\":32645:32915   */\n      swap3\n      swap2\n      pop\n      pop\n      jump\t// out\n        /* \"#utility.yul\":32921:33101   */\n    tag_102:\n        /* \"#utility.yul\":32969:33046   */\n      0x4e487b7100000000000000000000000000000000000000000000000000000000\n        /* \"#utility.yul\":32966:32967   */\n      0x00\n        /* \"#utility.yul\":32959:33047   */\n      mstore\n        /* \"#utility.yul\":33066:33070   */\n      0x32\n        /* \"#utility.yul\":33063:33064   */\n      0x04\n        /* \"#utility.yul\":33056:33071   */\n      mstore\n        /* \"#utility.yul\":33090:33094   */\n      0x24\n        /* \"#utility.yul\":33087:33088   */\n      0x00\n        /* \"#utility.yul\":33080:33095   */\n      revert\n        /* \"#utility.yul\":33107:33287   */\n    tag_461:\n        /* \"#utility.yul\":33155:33232   */\n      0x4e487b7100000000000000000000000000000000000000000000000000000000\n        /* \"#utility.yul\":33152:33153   */\n      0x00\n        /* \"#utility.yul\":33145:33233   */\n      mstore\n        /* \"#utility.yul\":33252:33256   */\n      0x11\n        /* \"#utility.yul\":33249:33250   */\n      0x04\n        /* \"#utility.yul\":33242:33257   */\n      mstore\n        /* \"#utility.yul\":33276:33280   */\n      0x24\n        /* \"#utility.yul\":33273:33274   */\n      0x00\n        /* \"#utility.yul\":33266:33281   */\n      revert\n        /* \"#utility.yul\":33293:33484   */\n    tag_109:\n        /* \"#utility.yul\":33333:33336   */\n      0x00\n        /* \"#utility.yul\":33352:33372   */\n      tag_783\n        /* \"#utility.yul\":33370:33371   */\n      dup3\n        /* \"#utility.yul\":33352:33372   */\n      tag_395\n      jump\t// in\n    tag_783:\n        /* \"#utility.yul\":33347:33372   */\n      swap2\n      pop\n        /* \"#utility.yul\":33386:33406   */\n      tag_784\n        /* \"#utility.yul\":33404:33405   */\n      dup4\n        /* \"#utility.yul\":33386:33406   */\n      tag_395\n      jump\t// in\n    tag_784:\n        /* \"#utility.yul\":33381:33406   */\n      swap3\n      pop\n        /* \"#utility.yul\":33429:33430   */\n      dup3\n        /* \"#utility.yul\":33426:33427   */\n      dup3\n        /* \"#utility.yul\":33422:33431   */\n      add\n        /* \"#utility.yul\":33415:33431   */\n      swap1\n      pop\n        /* \"#utility.yul\":33450:33453   */\n      dup1\n        /* \"#utility.yul\":33447:33448   */\n      dup3\n        /* \"#utility.yul\":33444:33454   */\n      gt\n        /* \"#utility.yul\":33441:33477   */\n      iszero\n      tag_785\n      jumpi\n        /* \"#utility.yul\":33457:33475   */\n      tag_786\n      tag_461\n      jump\t// in\n    tag_786:\n        /* \"#utility.yul\":33441:33477   */\n    tag_785:\n        /* \"#utility.yul\":33293:33484   */\n      swap3\n      swap2\n      pop\n      pop\n      jump\t// out\n        /* \"#utility.yul\":33490:33659   */\n    tag_462:\n        /* \"#utility.yul\":33574:33585   */\n      0x00\n        /* \"#utility.yul\":33608:33614   */\n      dup3\n        /* \"#utility.yul\":33603:33606   */\n      dup3\n        /* \"#utility.yul\":33596:33615   */\n      mstore\n        /* \"#utility.yul\":33648:33652   */\n      0x20\n        /* \"#utility.yul\":33643:33646   */\n      dup3\n        /* \"#utility.yul\":33639:33653   */\n      add\n        /* \"#utility.yul\":33624:33653   */\n      swap1\n      pop\n        /* \"#utility.yul\":33490:33659   */\n      swap3\n      swap2\n      pop\n      pop\n      jump\t// out\n        /* \"#utility.yul\":33665:33834   */\n    tag_463:\n        /* \"#utility.yul\":33805:33826   */\n      0x466f6f6420646f6573206e6f7420657869737400000000000000000000000000\n        /* \"#utility.yul\":33801:33802   */\n      0x00\n        /* \"#utility.yul\":33793:33799   */\n      dup3\n        /* \"#utility.yul\":33789:33803   */\n      add\n        /* \"#utility.yul\":33782:33827   */\n      mstore\n        /* \"#utility.yul\":33665:33834   */\n      pop\n      jump\t// out\n        /* \"#utility.yul\":33840:34206   */\n    tag_464:\n        /* \"#utility.yul\":33982:33985   */\n      0x00\n        /* \"#utility.yul\":34003:34070   */\n      tag_790\n        /* \"#utility.yul\":34067:34069   */\n      0x13\n        /* \"#utility.yul\":34062:34065   */\n      dup4\n        /* \"#utility.yul\":34003:34070   */\n      tag_462\n      jump\t// in\n    tag_790:\n        /* \"#utility.yul\":33996:34070   */\n      swap2\n      pop\n        /* \"#utility.yul\":34079:34172   */\n      tag_791\n        /* \"#utility.yul\":34168:34171   */\n      dup3\n        /* \"#utility.yul\":34079:34172   */\n      tag_463\n      jump\t// in\n    tag_791:\n        /* \"#utility.yul\":34197:34199   */\n      0x20\n        /* \"#utility.yul\":34192:34195   */\n      dup3\n        /* \"#utility.yul\":34188:34200   */\n      add\n        /* \"#utility.yul\":34181:34200   */\n      swap1\n      pop\n        /* \"#utility.yul\":33840:34206   */\n      swap2\n      swap1\n      pop\n      jump\t// out\n        /* \"#utility.yul\":34212:34631   */\n    tag_119:\n        /* \"#utility.yul\":34378:34382   */\n      0x00\n        /* \"#utility.yul\":34416:34418   */\n      0x20\n        /* \"#utility.yul\":34405:34414   */\n      dup3\n        /* \"#utility.yul\":34401:34419   */\n      add\n        /* \"#utility.yul\":34393:34419   */\n      swap1\n      pop\n        /* \"#utility.yul\":34465:34474   */\n      dup2\n        /* \"#utility.yul\":34459:34463   */\n      dup2\n        /* \"#utility.yul\":34455:34475   */\n      sub\n        /* \"#utility.yul\":34451:34452   */\n      0x00\n        /* \"#utility.yul\":34440:34449   */\n      dup4\n        /* \"#utility.yul\":34436:34453   */\n      add\n        /* \"#utility.yul\":34429:34476   */\n      mstore\n        /* \"#utility.yul\":34493:34624   */\n      tag_793\n        /* \"#utility.yul\":34619:34623   */\n      dup2\n        /* \"#utility.yul\":34493:34624   */\n      tag_464\n      jump\t// in\n    tag_793:\n        /* \"#utility.yul\":34485:34624   */\n      swap1\n      pop\n        /* \"#utility.yul\":34212:34631   */\n      swap2\n      swap1\n      pop\n      jump\t// out\n        /* \"#utility.yul\":34637:34817   */\n    tag_465:\n        /* \"#utility.yul\":34685:34762   */\n      0x4e487b7100000000000000000000000000000000000000000000000000000000\n        /* \"#utility.yul\":34682:34683   */\n      0x00\n        /* \"#utility.yul\":34675:34763   */\n      mstore\n        /* \"#utility.yul\":34782:34786   */\n      0x22\n        /* \"#utility.yul\":34779:34780   */\n      0x04\n        /* \"#utility.yul\":34772:34787   */\n      mstore\n        /* \"#utility.yul\":34806:34810   */\n      0x24\n        /* \"#utility.yul\":34803:34804   */\n      0x00\n        /* \"#utility.yul\":34796:34811   */\n      revert\n        /* \"#utility.yul\":34823:35143   */\n    tag_121:\n        /* \"#utility.yul\":34867:34873   */\n      0x00\n        /* \"#utility.yul\":34904:34905   */\n      0x02\n        /* \"#utility.yul\":34898:34902   */\n      dup3\n        /* \"#utility.yul\":34894:34906   */\n      div\n        /* \"#utility.yul\":34884:34906   */\n      swap1\n      pop\n        /* \"#utility.yul\":34951:34952   */\n      0x01\n        /* \"#utility.yul\":34945:34949   */\n      dup3\n        /* \"#utility.yul\":34941:34953   */\n      and\n        /* \"#utility.yul\":34972:34990   */\n      dup1\n        /* \"#utility.yul\":34962:35043   */\n      tag_796\n      jumpi\n        /* \"#utility.yul\":35028:35032   */\n      0x7f\n        /* \"#utility.yul\":35020:35026   */\n      dup3\n        /* \"#utility.yul\":35016:35033   */\n      and\n        /* \"#utility.yul\":35006:35033   */\n      swap2\n      pop\n        /* \"#utility.yul\":34962:35043   */\n    tag_796:\n        /* \"#utility.yul\":35090:35092   */\n      0x20\n        /* \"#utility.yul\":35082:35088   */\n      dup3\n        /* \"#utility.yul\":35079:35093   */\n      lt\n        /* \"#utility.yul\":35059:35077   */\n      dup2\n        /* \"#utility.yul\":35056:35094   */\n      sub\n        /* \"#utility.yul\":35053:35137   */\n      tag_797\n      jumpi\n        /* \"#utility.yul\":35109:35127   */\n      tag_798\n      tag_465\n      jump\t// in\n    tag_798:\n        /* \"#utility.yul\":35053:35137   */\n    tag_797:\n        /* \"#utility.yul\":34874:35143   */\n      pop\n        /* \"#utility.yul\":34823:35143   */\n      swap2\n      swap1\n      pop\n      jump\t// out\n        /* \"#utility.yul\":35149:35343   */\n    tag_152:\n        /* \"#utility.yul\":35189:35193   */\n      0x00\n        /* \"#utility.yul\":35209:35229   */\n      tag_800\n        /* \"#utility.yul\":35227:35228   */\n      dup3\n        /* \"#utility.yul\":35209:35229   */\n      tag_395\n      jump\t// in\n    tag_800:\n        /* \"#utility.yul\":35204:35229   */\n      swap2\n      pop\n        /* \"#utility.yul\":35243:35263   */\n      tag_801\n        /* \"#utility.yul\":35261:35262   */\n      dup4\n        /* \"#utility.yul\":35243:35263   */\n      tag_395\n      jump\t// in\n    tag_801:\n        /* \"#utility.yul\":35238:35263   */\n      swap3\n      pop\n        /* \"#utility.yul\":35287:35288   */\n      dup3\n        /* \"#utility.yul\":35284:35285   */\n      dup3\n        /* \"#utility.yul\":35280:35289   */\n      sub\n        /* \"#utility.yul\":35272:35289   */\n      swap1\n      pop\n        /* \"#utility.yul\":35311:35312   */\n      dup2\n        /* \"#utility.yul\":35305:35309   */\n      dup2\n        /* \"#utility.yul\":35302:35313   */\n      gt\n        /* \"#utility.yul\":35299:35336   */\n      iszero\n      tag_802\n      jumpi\n        /* \"#utility.yul\":35316:35334   */\n      tag_803\n      tag_461\n      jump\t// in\n    tag_803:\n        /* \"#utility.yul\":35299:35336   */\n    tag_802:\n        /* \"#utility.yul\":35149:35343   */\n      swap3\n      swap2\n      pop\n      pop\n      jump\t// out\n        /* \"#utility.yul\":35349:35490   */\n    tag_466:\n        /* \"#utility.yul\":35398:35402   */\n      0x00\n        /* \"#utility.yul\":35421:35424   */\n      dup2\n        /* \"#utility.yul\":35413:35424   */\n      swap1\n      pop\n        /* \"#utility.yul\":35444:35447   */\n      dup2\n        /* \"#utility.yul\":35441:35442   */\n      0x00\n        /* \"#utility.yul\":35434:35448   */\n      mstore\n        /* \"#utility.yul\":35478:35482   */\n      0x20\n        /* \"#utility.yul\":35475:35476   */\n      0x00\n        /* \"#utility.yul\":35465:35483   */\n      keccak256\n        /* \"#utility.yul\":35457:35483   */\n      swap1\n      pop\n        /* \"#utility.yul\":35349:35490   */\n      swap2\n      swap1\n      pop\n      jump\t// out\n        /* \"#utility.yul\":35496:35589   */\n    tag_467:\n        /* \"#utility.yul\":35533:35539   */\n      0x00\n        /* \"#utility.yul\":35580:35582   */\n      0x20\n        /* \"#utility.yul\":35575:35577   */\n      0x1f\n        /* \"#utility.yul\":35568:35573   */\n      dup4\n        /* \"#utility.yul\":35564:35578   */\n      add\n        /* \"#utility.yul\":35560:35583   */\n      div\n        /* \"#utility.yul\":35550:35583   */\n      swap1\n      pop\n        /* \"#utility.yul\":35496:35589   */\n      swap2\n      swap1\n      pop\n      jump\t// out\n        /* \"#utility.yul\":35595:35702   */\n    tag_468:\n        /* \"#utility.yul\":35639:35647   */\n      0x00\n        /* \"#utility.yul\":35689:35694   */\n      dup3\n        /* \"#utility.yul\":35683:35687   */\n      dup3\n        /* \"#utility.yul\":35679:35695   */\n      shl\n        /* \"#utility.yul\":35658:35695   */\n      swap1\n      pop\n        /* \"#utility.yul\":35595:35702   */\n      swap3\n      swap2\n      pop\n      pop\n      jump\t// out\n        /* \"#utility.yul\":35708:36101   */\n    tag_469:\n        /* \"#utility.yul\":35777:35783   */\n      0x00\n        /* \"#utility.yul\":35827:35828   */\n      0x08\n        /* \"#utility.yul\":35815:35825   */\n      dup4\n        /* \"#utility.yul\":35811:35829   */\n      mul\n        /* \"#utility.yul\":35850:35947   */\n      tag_808\n        /* \"#utility.yul\":35880:35946   */\n      0xffffffffffffffffffffffffffffffffffffffffffffffffffffffffffffffff\n        /* \"#utility.yul\":35869:35878   */\n      dup3\n        /* \"#utility.yul\":35850:35947   */\n      tag_468\n      jump\t// in\n    tag_808:\n        /* \"#utility.yul\":35968:36007   */\n      tag_809\n        /* \"#utility.yul\":35998:36006   */\n      dup7\n        /* \"#utility.yul\":35987:35996   */\n      dup4\n        /* \"#utility.yul\":35968:36007   */\n      tag_468\n      jump\t// in\n    tag_809:\n        /* \"#utility.yul\":35956:36007   */\n      swap6\n      pop\n        /* \"#utility.yul\":36040:36044   */\n      dup1\n        /* \"#utility.yul\":36036:36045   */\n      not\n        /* \"#utility.yul\":36029:36034   */\n      dup5\n        /* \"#utility.yul\":36025:36046   */\n      and\n        /* \"#utility.yul\":36016:36046   */\n      swap4\n      pop\n        /* \"#utility.yul\":36089:36093   */\n      dup1\n        /* \"#utility.yul\":36079:36087   */\n      dup7\n        /* \"#utility.yul\":36075:36094   */\n      and\n        /* \"#utility.yul\":36068:36073   */\n      dup5\n        /* \"#utility.yul\":36065:36095   */\n      or\n        /* \"#utility.yul\":36055:36095   */\n      swap3\n      pop\n        /* \"#utility.yul\":35784:36101   */\n      pop\n      pop\n        /* \"#utility.yul\":35708:36101   */\n      swap4\n      swap3\n      pop\n      pop\n      pop\n      jump\t// out\n        /* \"#utility.yul\":36107:36249   */\n    tag_470:\n        /* \"#utility.yul\":36157:36166   */\n      0x00\n        /* \"#utility.yul\":36190:36243   */\n      tag_811\n        /* \"#utility.yul\":36208:36242   */\n      tag_812\n        /* \"#utility.yul\":36217:36241   */\n      tag_813\n        /* \"#utility.yul\":36235:36240   */\n      dup5\n        /* \"#utility.yul\":36217:36241   */\n      tag_395\n      jump\t// in\n    tag_813:\n        /* \"#utility.yul\":36208:36242   */\n      tag_456\n      jump\t// in\n    tag_812:\n        /* \"#utility.yul\":36190:36243   */\n      tag_395\n      jump\t// in\n    tag_811:\n        /* \"#utility.yul\":36177:36243   */\n      swap1\n      pop\n        /* \"#utility.yul\":36107:36249   */\n      swap2\n      swap1\n      pop\n      jump\t// out\n        /* \"#utility.yul\":36255:36330   */\n    tag_471:\n        /* \"#utility.yul\":36298:36301   */\n      0x00\n        /* \"#utility.yul\":36319:36324   */\n      dup2\n        /* \"#utility.yul\":36312:36324   */\n      swap1\n      pop\n        /* \"#utility.yul\":36255:36330   */\n      swap2\n      swap1\n      pop\n      jump\t// out\n        /* \"#utility.yul\":36336:36605   */\n    tag_472:\n        /* \"#utility.yul\":36446:36485   */\n      tag_816\n        /* \"#utility.yul\":36477:36484   */\n      dup4\n        /* \"#utility.yul\":36446:36485   */\n      tag_470\n      jump\t// in\n    tag_816:\n        /* \"#utility.yul\":36507:36598   */\n      tag_817\n        /* \"#utility.yul\":36556:36597   */\n      tag_818\n        /* \"#utility.yul\":36580:36596   */\n      dup3\n        /* \"#utility.yul\":36556:36597   */\n      tag_471\n      jump\t// in\n    tag_818:\n        /* \"#utility.yul\":36548:36554   */\n      dup5\n        /* \"#utility.yul\":36541:36545   */\n      dup5\n        /* \"#utility.yul\":36535:36546   */\n      sload\n        /* \"#utility.yul\":36507:36598   */\n      tag_469\n      jump\t// in\n    tag_817:\n        /* \"#utility.yul\":36501:36505   */\n      dup3\n        /* \"#utility.yul\":36494:36599   */\n      sstore\n        /* \"#utility.yul\":36412:36605   */\n      pop\n        /* \"#utility.yul\":36336:36605   */\n      pop\n      pop\n      pop\n      jump\t// out\n        /* \"#utility.yul\":36611:36684   */\n    tag_473:\n        /* \"#utility.yul\":36656:36659   */\n      0x00\n        /* \"#utility.yul\":36677:36678   */\n      0x00\n        /* \"#utility.yul\":36670:36678   */\n      swap1\n      pop\n        /* \"#utility.yul\":36611:36684   */\n      swap1\n      jump\t// out\n        /* \"#utility.yul\":36690:36879   */\n    tag_474:\n        /* \"#utility.yul\":36767:36799   */\n      tag_821\n      tag_473\n      jump\t// in\n    tag_821:\n        /* \"#utility.yul\":36808:36873   */\n      tag_822\n        /* \"#utility.yul\":36866:36872   */\n      dup2\n        /* \"#utility.yul\":36858:36864   */\n      dup5\n        /* \"#utility.yul\":36852:36856   */\n      dup5\n        /* \"#utility.yul\":36808:36873   */\n      tag_472\n      jump\t// in\n    tag_822:\n        /* \"#utility.yul\":36743:36879   */\n      pop\n        /* \"#utility.yul\":36690:36879   */\n      pop\n      pop\n      jump\t// out\n        /* \"#utility.yul\":36885:37071   */\n    tag_475:\n        /* \"#utility.yul\":36945:37065   */\n    tag_824:\n        /* \"#utility.yul\":36962:36965   */\n      dup2\n        /* \"#utility.yul\":36955:36960   */\n      dup2\n        /* \"#utility.yul\":36952:36966   */\n      lt\n        /* \"#utility.yul\":36945:37065   */\n      iszero\n      tag_826\n      jumpi\n        /* \"#utility.yul\":37016:37055   */\n      tag_827\n        /* \"#utility.yul\":37053:37054   */\n      0x00\n        /* \"#utility.yul\":37046:37051   */\n      dup3\n        /* \"#utility.yul\":37016:37055   */\n      tag_474\n      jump\t// in\n    tag_827:\n        /* \"#utility.yul\":36989:36990   */\n      0x01\n        /* \"#utility.yul\":36982:36987   */\n      dup2\n        /* \"#utility.yul\":36978:36991   */\n      add\n        /* \"#utility.yul\":36969:36991   */\n      swap1\n      pop\n        /* \"#utility.yul\":36945:37065   */\n      jump(tag_824)\n    tag_826:\n        /* \"#utility.yul\":36885:37071   */\n      pop\n      pop\n      jump\t// out\n        /* \"#utility.yul\":37077:37620   */\n    tag_476:\n        /* \"#utility.yul\":37178:37180   */\n      0x1f\n        /* \"#utility.yul\":37173:37176   */\n      dup3\n        /* \"#utility.yul\":37170:37181   */\n      gt\n        /* \"#utility.yul\":37167:37613   */\n      iszero\n      tag_829\n      jumpi\n        /* \"#utility.yul\":37212:37250   */\n      tag_830\n        /* \"#utility.yul\":37244:37249   */\n      dup2\n        /* \"#utility.yul\":37212:37250   */\n      tag_466\n      jump\t// in\n    tag_830:\n        /* \"#utility.yul\":37296:37325   */\n      tag_831\n        /* \"#utility.yul\":37314:37324   */\n      dup5\n        /* \"#utility.yul\":37296:37325   */\n      tag_467\n      jump\t// in\n    tag_831:\n        /* \"#utility.yul\":37286:37294   */\n      dup2\n        /* \"#utility.yul\":37282:37326   */\n      add\n        /* \"#utility.yul\":37479:37481   */\n      0x20\n        /* \"#utility.yul\":37467:37477   */\n      dup6\n        /* \"#utility.yul\":37464:37482   */\n      lt\n        /* \"#utility.yul\":37461:37510   */\n      iszero\n      tag_832\n      jumpi\n        /* \"#utility.yul\":37500:37508   */\n      dup2\n        /* \"#utility.yul\":37485:37508   */\n      swap1\n      pop\n        /* \"#utility.yul\":37461:37510   */\n    tag_832:\n        /* \"#utility.yul\":37523:37603   */\n      tag_833\n        /* \"#utility.yul\":37579:37601   */\n      tag_834\n        /* \"#utility.yul\":37597:37600   */\n      dup6\n        /* \"#utility.yul\":37579:37601   */\n      tag_467\n      jump\t// in\n    tag_834:\n        /* \"#utility.yul\":37569:37577   */\n      dup4\n        /* \"#utility.yul\":37565:37602   */\n      add\n        /* \"#utility.yul\":37552:37563   */\n      dup3\n        /* \"#utility.yul\":37523:37603   */\n      tag_475\n      jump\t// in\n    tag_833:\n        /* \"#utility.yul\":37182:37613   */\n      pop\n      pop\n        /* \"#utility.yul\":37167:37613   */\n    tag_829:\n        /* \"#utility.yul\":37077:37620   */\n      pop\n      pop\n      pop\n      jump\t// out\n        /* \"#utility.yul\":37626:37743   */\n    tag_477:\n        /* \"#utility.yul\":37680:37688   */\n      0x00\n        /* \"#utility.yul\":37730:37735   */\n      dup3\n        /* \"#utility.yul\":37724:37728   */\n      dup3\n        /* \"#utility.yul\":37720:37736   */\n      shr\n        /* \"#utility.yul\":37699:37736   */\n      swap1\n      pop\n        /* \"#utility.yul\":37626:37743   */\n      swap3\n      swap2\n      pop\n      pop\n      jump\t// out\n        /* \"#utility.yul\":37749:37918   */\n    tag_478:\n        /* \"#utility.yul\":37793:37799   */\n      0x00\n        /* \"#utility.yul\":37826:37877   */\n      tag_837\n        /* \"#utility.yul\":37874:37875   */\n      0x00\n        /* \"#utility.yul\":37870:37876   */\n      not\n        /* \"#utility.yul\":37862:37867   */\n      dup5\n        /* \"#utility.yul\":37859:37860   */\n      0x08\n        /* \"#utility.yul\":37855:37868   */\n      mul\n        /* \"#utility.yul\":37826:37877   */\n      tag_477\n      jump\t// in\n    tag_837:\n        /* \"#utility.yul\":37822:37878   */\n      not\n        /* \"#utility.yul\":37907:37911   */\n      dup1\n        /* \"#utility.yul\":37901:37905   */\n      dup4\n        /* \"#utility.yul\":37897:37912   */\n      and\n        /* \"#utility.yul\":37887:37912   */\n      swap2\n      pop\n        /* \"#utility.yul\":37800:37918   */\n      pop\n        /* \"#utility.yul\":37749:37918   */\n      swap3\n      swap2\n      pop\n      pop\n      jump\t// out\n        /* \"#utility.yul\":37923:38218   */\n    tag_479:\n        /* \"#utility.yul\":37999:38003   */\n      0x00\n        /* \"#utility.yul\":38145:38174   */\n      tag_839\n        /* \"#utility.yul\":38170:38173   */\n      dup4\n        /* \"#utility.yul\":38164:38168   */\n      dup4\n        /* \"#utility.yul\":38145:38174   */\n      tag_478\n      jump\t// in\n    tag_839:\n        /* \"#utility.yul\":38137:38174   */\n      swap2\n      pop\n        /* \"#utility.yul\":38207:38210   */\n      dup3\n        /* \"#utility.yul\":38204:38205   */\n      0x02\n        /* \"#utility.yul\":38200:38211   */\n      mul\n        /* \"#utility.yul\":38194:38198   */\n      dup3\n        /* \"#utility.yul\":38191:38212   */\n      or\n        /* \"#utility.yul\":38183:38212   */\n      swap1\n      pop\n        /* \"#utility.yul\":37923:38218   */\n      swap3\n      swap2\n      pop\n      pop\n      jump\t// out\n        /* \"#utility.yul\":38223:39618   */\n    tag_165:\n        /* \"#utility.yul\":38340:38377   */\n      tag_841\n        /* \"#utility.yul\":38373:38376   */\n      dup3\n        /* \"#utility.yul\":38340:38377   */\n      tag_404\n      jump\t// in\n    tag_841:\n        /* \"#utility.yul\":38442:38460   */\n      0xffffffffffffffff\n        /* \"#utility.yul\":38434:38440   */\n      dup2\n        /* \"#utility.yul\":38431:38461   */\n      gt\n        /* \"#utility.yul\":38428:38484   */\n      iszero\n      tag_842\n      jumpi\n        /* \"#utility.yul\":38464:38482   */\n      tag_843\n      tag_278\n      jump\t// in\n    tag_843:\n        /* \"#utility.yul\":38428:38484   */\n    tag_842:\n        /* \"#utility.yul\":38508:38546   */\n      tag_844\n        /* \"#utility.yul\":38540:38544   */\n      dup3\n        /* \"#utility.yul\":38534:38545   */\n      sload\n        /* \"#utility.yul\":38508:38546   */\n      tag_121\n      jump\t// in\n    tag_844:\n        /* \"#utility.yul\":38593:38660   */\n      tag_845\n        /* \"#utility.yul\":38653:38659   */\n      dup3\n        /* \"#utility.yul\":38645:38651   */\n      dup3\n        /* \"#utility.yul\":38639:38643   */\n      dup6\n        /* \"#utility.yul\":38593:38660   */\n      tag_476\n      jump\t// in\n    tag_845:\n        /* \"#utility.yul\":38687:38688   */\n      0x00\n        /* \"#utility.yul\":38711:38715   */\n      0x20\n        /* \"#utility.yul\":38698:38715   */\n      swap1\n      pop\n        /* \"#utility.yul\":38743:38745   */\n      0x1f\n        /* \"#utility.yul\":38735:38741   */\n      dup4\n        /* \"#utility.yul\":38732:38746   */\n      gt\n        /* \"#utility.yul\":38760:38761   */\n      0x01\n        /* \"#utility.yul\":38755:39373   */\n      dup2\n      eq\n      tag_847\n      jumpi\n        /* \"#utility.yul\":39417:39418   */\n      0x00\n        /* \"#utility.yul\":39434:39440   */\n      dup5\n        /* \"#utility.yul\":39431:39508   */\n      iszero\n      tag_848\n      jumpi\n        /* \"#utility.yul\":39483:39492   */\n      dup3\n        /* \"#utility.yul\":39478:39481   */\n      dup8\n        /* \"#utility.yul\":39474:39493   */\n      add\n        /* \"#utility.yul\":39468:39494   */\n      mload\n        /* \"#utility.yul\":39459:39494   */\n      swap1\n      pop\n        /* \"#utility.yul\":39431:39508   */\n    tag_848:\n        /* \"#utility.yul\":39534:39601   */\n      tag_849\n        /* \"#utility.yul\":39594:39600   */\n      dup6\n        /* \"#utility.yul\":39587:39592   */\n      dup3\n        /* \"#utility.yul\":39534:39601   */\n      tag_479\n      jump\t// in\n    tag_849:\n        /* \"#utility.yul\":39528:39532   */\n      dup7\n        /* \"#utility.yul\":39521:39602   */\n      sstore\n        /* \"#utility.yul\":39390:39612   */\n      pop\n        /* \"#utility.yul\":38725:39612   */\n      jump(tag_846)\n        /* \"#utility.yul\":38755:39373   */\n    tag_847:\n        /* \"#utility.yul\":38807:38811   */\n      0x1f\n        /* \"#utility.yul\":38803:38812   */\n      not\n        /* \"#utility.yul\":38795:38801   */\n      dup5\n        /* \"#utility.yul\":38791:38813   */\n      and\n        /* \"#utility.yul\":38841:38878   */\n      tag_850\n        /* \"#utility.yul\":38873:38877   */\n      dup7\n        /* \"#utility.yul\":38841:38878   */\n      tag_466\n      jump\t// in\n    tag_850:\n        /* \"#utility.yul\":38900:38901   */\n      0x00\n        /* \"#utility.yul\":38914:39122   */\n    tag_851:\n        /* \"#utility.yul\":38928:38935   */\n      dup3\n        /* \"#utility.yul\":38925:38926   */\n      dup2\n        /* \"#utility.yul\":38922:38936   */\n      lt\n        /* \"#utility.yul\":38914:39122   */\n      iszero\n      tag_853\n      jumpi\n        /* \"#utility.yul\":39007:39016   */\n      dup5\n        /* \"#utility.yul\":39002:39005   */\n      dup10\n        /* \"#utility.yul\":38998:39017   */\n      add\n        /* \"#utility.yul\":38992:39018   */\n      mload\n        /* \"#utility.yul\":38984:38990   */\n      dup3\n        /* \"#utility.yul\":38977:39019   */\n      sstore\n        /* \"#utility.yul\":39058:39059   */\n      0x01\n        /* \"#utility.yul\":39050:39056   */\n      dup3\n        /* \"#utility.yul\":39046:39060   */\n      add\n        /* \"#utility.yul\":39036:39060   */\n      swap2\n      pop\n        /* \"#utility.yul\":39105:39107   */\n      0x20\n        /* \"#utility.yul\":39094:39103   */\n      dup6\n        /* \"#utility.yul\":39090:39108   */\n      add\n        /* \"#utility.yul\":39077:39108   */\n      swap5\n      pop\n        /* \"#utility.yul\":38951:38955   */\n      0x20\n        /* \"#utility.yul\":38948:38949   */\n      dup2\n        /* \"#utility.yul\":38944:38956   */\n      add\n        /* \"#utility.yul\":38939:38956   */\n      swap1\n      pop\n        /* \"#utility.yul\":38914:39122   */\n      jump(tag_851)\n    tag_853:\n        /* \"#utility.yul\":39150:39156   */\n      dup7\n        /* \"#utility.yul\":39141:39148   */\n      dup4\n        /* \"#utility.yul\":39138:39157   */\n      lt\n        /* \"#utility.yul\":39135:39314   */\n      iszero\n      tag_854\n      jumpi\n        /* \"#utility.yul\":39208:39217   */\n      dup5\n        /* \"#utility.yul\":39203:39206   */\n      dup10\n        /* \"#utility.yul\":39199:39218   */\n      add\n        /* \"#utility.yul\":39193:39219   */\n      mload\n        /* \"#utility.yul\":39251:39299   */\n      tag_855\n        /* \"#utility.yul\":39293:39297   */\n      0x1f\n        /* \"#utility.yul\":39285:39291   */\n      dup10\n        /* \"#utility.yul\":39281:39298   */\n      and\n        /* \"#utility.yul\":39270:39279   */\n      dup3\n        /* \"#utility.yul\":39251:39299   */\n      tag_478\n      jump\t// in\n    tag_855:\n        /* \"#utility.yul\":39243:39249   */\n      dup4\n        /* \"#utility.yul\":39236:39300   */\n      sstore\n        /* \"#utility.yul\":39158:39314   */\n      pop\n        /* \"#utility.yul\":39135:39314   */\n    tag_854:\n        /* \"#utility.yul\":39360:39361   */\n      0x01\n        /* \"#utility.yul\":39356:39357   */\n      0x02\n        /* \"#utility.yul\":39348:39354   */\n      dup9\n        /* \"#utility.yul\":39344:39358   */\n      mul\n        /* \"#utility.yul\":39340:39362   */\n      add\n        /* \"#utility.yul\":39334:39338   */\n      dup9\n        /* \"#utility.yul\":39327:39363   */\n      sstore\n        /* \"#utility.yul\":38762:39373   */\n      pop\n      pop\n      pop\n        /* \"#utility.yul\":38725:39612   */\n    tag_846:\n      pop\n        /* \"#utility.yul\":38315:39618   */\n      pop\n      pop\n      pop\n        /* \"#utility.yul\":38223:39618   */\n      pop\n      pop\n      jump\t// out\n        /* \"#utility.yul\":39624:39804   */\n    tag_168:\n        /* \"#utility.yul\":39672:39749   */\n      0x4e487b7100000000000000000000000000000000000000000000000000000000\n        /* \"#utility.yul\":39669:39670   */\n      0x00\n        /* \"#utility.yul\":39662:39750   */\n      mstore\n        /* \"#utility.yul\":39769:39773   */\n      0x31\n        /* \"#utility.yul\":39766:39767   */\n      0x04\n        /* \"#utility.yul\":39759:39774   */\n      mstore\n        /* \"#utility.yul\":39793:39797   */\n      0x24\n        /* \"#utility.yul\":39790:39791   */\n      0x00\n        /* \"#utility.yul\":39783:39798   */\n      revert\n        /* \"#utility.yul\":39810:40142   */\n    tag_173:\n        /* \"#utility.yul\":39931:39935   */\n      0x00\n        /* \"#utility.yul\":39969:39971   */\n      0x40\n        /* \"#utility.yul\":39958:39967   */\n      dup3\n        /* \"#utility.yul\":39954:39972   */\n      add\n        /* \"#utility.yul\":39946:39972   */\n      swap1\n      pop\n        /* \"#utility.yul\":39982:40053   */\n      tag_858\n        /* \"#utility.yul\":40050:40051   */\n      0x00\n        /* \"#utility.yul\":40039:40048   */\n      dup4\n        /* \"#utility.yul\":40035:40052   */\n      add\n        /* \"#utility.yul\":40026:40032   */\n      dup6\n        /* \"#utility.yul\":39982:40053   */\n      tag_402\n      jump\t// in\n    tag_858:\n        /* \"#utility.yul\":40063:40135   */\n      tag_859\n        /* \"#utility.yul\":40131:40133   */\n      0x20\n        /* \"#utility.yul\":40120:40129   */\n      dup4\n        /* \"#utility.yul\":40116:40134   */\n      add\n        /* \"#utility.yul\":40107:40113   */\n      dup5\n        /* \"#utility.yul\":40063:40135   */\n      tag_402\n      jump\t// in\n    tag_859:\n        /* \"#utility.yul\":39810:40142   */\n      swap4\n      swap3\n      pop\n      pop\n      pop\n      jump\t// out\n        /* \"#utility.yul\":40148:40323   */\n    tag_480:\n        /* \"#utility.yul\":40288:40315   */\n      0x466f6f6444657461696c20646f6573206e6f7420657869737400000000000000\n        /* \"#utility.yul\":40284:40285   */\n      0x00\n        /* \"#utility.yul\":40276:40282   */\n      dup3\n        /* \"#utility.yul\":40272:40286   */\n      add\n        /* \"#utility.yul\":40265:40316   */\n      mstore\n        /* \"#utility.yul\":40148:40323   */\n      pop\n      jump\t// out\n        /* \"#utility.yul\":40329:40695   */\n    tag_481:\n        /* \"#utility.yul\":40471:40474   */\n      0x00\n        /* \"#utility.yul\":40492:40559   */\n      tag_862\n        /* \"#utility.yul\":40556:40558   */\n      0x19\n        /* \"#utility.yul\":40551:40554   */\n      dup4\n        /* \"#utility.yul\":40492:40559   */\n      tag_462\n      jump\t// in\n    tag_862:\n        /* \"#utility.yul\":40485:40559   */\n      swap2\n      pop\n        /* \"#utility.yul\":40568:40661   */\n      tag_863\n        /* \"#utility.yul\":40657:40660   */\n      dup3\n        /* \"#utility.yul\":40568:40661   */\n      tag_480\n      jump\t// in\n    tag_863:\n        /* \"#utility.yul\":40686:40688   */\n      0x20\n        /* \"#utility.yul\":40681:40684   */\n      dup3\n        /* \"#utility.yul\":40677:40689   */\n      add\n        /* \"#utility.yul\":40670:40689   */\n      swap1\n      pop\n        /* \"#utility.yul\":40329:40695   */\n      swap2\n      swap1\n      pop\n      jump\t// out\n        /* \"#utility.yul\":40701:41120   */\n    tag_176:\n        /* \"#utility.yul\":40867:40871   */\n      0x00\n        /* \"#utility.yul\":40905:40907   */\n      0x20\n        /* \"#utility.yul\":40894:40903   */\n      dup3\n        /* \"#utility.yul\":40890:40908   */\n      add\n        /* \"#utility.yul\":40882:40908   */\n      swap1\n      pop\n        /* \"#utility.yul\":40954:40963   */\n      dup2\n        /* \"#utility.yul\":40948:40952   */\n      dup2\n        /* \"#utility.yul\":40944:40964   */\n      sub\n        /* \"#utility.yul\":40940:40941   */\n      0x00\n        /* \"#utility.yul\":40929:40938   */\n      dup4\n        /* \"#utility.yul\":40925:40942   */\n      add\n        /* \"#utility.yul\":40918:40965   */\n      mstore\n        /* \"#utility.yul\":40982:41113   */\n      tag_865\n        /* \"#utility.yul\":41108:41112   */\n      dup2\n        /* \"#utility.yul\":40982:41113   */\n      tag_481\n      jump\t// in\n    tag_865:\n        /* \"#utility.yul\":40974:41113   */\n      swap1\n      pop\n        /* \"#utility.yul\":40701:41120   */\n      swap2\n      swap1\n      pop\n      jump\t// out\n        /* \"#utility.yul\":41126:41359   */\n    tag_184:\n        /* \"#utility.yul\":41165:41168   */\n      0x00\n        /* \"#utility.yul\":41188:41212   */\n      tag_867\n        /* \"#utility.yul\":41206:41211   */\n      dup3\n        /* \"#utility.yul\":41188:41212   */\n      tag_395\n      jump\t// in\n    tag_867:\n        /* \"#utility.yul\":41179:41212   */\n      swap2\n      pop\n        /* \"#utility.yul\":41234:41300   */\n      0xffffffffffffffffffffffffffffffffffffffffffffffffffffffffffffffff\n        /* \"#utility.yul\":41227:41232   */\n      dup3\n        /* \"#utility.yul\":41224:41301   */\n      sub\n        /* \"#utility.yul\":41221:41324   */\n      tag_868\n      jumpi\n        /* \"#utility.yul\":41304:41322   */\n      tag_869\n      tag_461\n      jump\t// in\n    tag_869:\n        /* \"#utility.yul\":41221:41324   */\n    tag_868:\n        /* \"#utility.yul\":41351:41352   */\n      0x01\n        /* \"#utility.yul\":41344:41349   */\n      dup3\n        /* \"#utility.yul\":41340:41353   */\n      add\n        /* \"#utility.yul\":41333:41353   */\n      swap1\n      pop\n        /* \"#utility.yul\":41126:41359   */\n      swap2\n      swap1\n      pop\n      jump\t// out\n        /* \"#utility.yul\":41365:41508   */\n    tag_482:\n        /* \"#utility.yul\":41422:41427   */\n      0x00\n        /* \"#utility.yul\":41453:41459   */\n      dup2\n        /* \"#utility.yul\":41447:41460   */\n      mload\n        /* \"#utility.yul\":41438:41460   */\n      swap1\n      pop\n        /* \"#utility.yul\":41469:41502   */\n      tag_871\n        /* \"#utility.yul\":41496:41501   */\n      dup2\n        /* \"#utility.yul\":41469:41502   */\n      tag_396\n      jump\t// in\n    tag_871:\n        /* \"#utility.yul\":41365:41508   */\n      swap3\n      swap2\n      pop\n      pop\n      jump\t// out\n        /* \"#utility.yul\":41514:41948   */\n    tag_483:\n        /* \"#utility.yul\":41603:41608   */\n      0x00\n        /* \"#utility.yul\":41628:41694   */\n      tag_873\n        /* \"#utility.yul\":41644:41693   */\n      tag_874\n        /* \"#utility.yul\":41686:41692   */\n      dup5\n        /* \"#utility.yul\":41644:41693   */\n      tag_428\n      jump\t// in\n    tag_874:\n        /* \"#utility.yul\":41628:41694   */\n      tag_422\n      jump\t// in\n    tag_873:\n        /* \"#utility.yul\":41619:41694   */\n      swap1\n      pop\n        /* \"#utility.yul\":41717:41723   */\n      dup3\n        /* \"#utility.yul\":41710:41715   */\n      dup2\n        /* \"#utility.yul\":41703:41724   */\n      mstore\n        /* \"#utility.yul\":41755:41759   */\n      0x20\n        /* \"#utility.yul\":41748:41753   */\n      dup2\n        /* \"#utility.yul\":41744:41760   */\n      add\n        /* \"#utility.yul\":41793:41796   */\n      dup5\n        /* \"#utility.yul\":41784:41790   */\n      dup5\n        /* \"#utility.yul\":41779:41782   */\n      dup5\n        /* \"#utility.yul\":41775:41791   */\n      add\n        /* \"#utility.yul\":41772:41797   */\n      gt\n        /* \"#utility.yul\":41769:41881   */\n      iszero\n      tag_875\n      jumpi\n        /* \"#utility.yul\":41800:41879   */\n      tag_876\n      tag_427\n      jump\t// in\n    tag_876:\n        /* \"#utility.yul\":41769:41881   */\n    tag_875:\n        /* \"#utility.yul\":41890:41942   */\n      tag_877\n        /* \"#utility.yul\":41935:41941   */\n      dup5\n        /* \"#utility.yul\":41930:41933   */\n      dup3\n        /* \"#utility.yul\":41925:41928   */\n      dup6\n        /* \"#utility.yul\":41890:41942   */\n      tag_406\n      jump\t// in\n    tag_877:\n        /* \"#utility.yul\":41609:41948   */\n      pop\n        /* \"#utility.yul\":41514:41948   */\n      swap4\n      swap3\n      pop\n      pop\n      pop\n      jump\t// out\n        /* \"#utility.yul\":41968:42323   */\n    tag_484:\n        /* \"#utility.yul\":42035:42040   */\n      0x00\n        /* \"#utility.yul\":42084:42087   */\n      dup3\n        /* \"#utility.yul\":42077:42081   */\n      0x1f\n        /* \"#utility.yul\":42069:42075   */\n      dup4\n        /* \"#utility.yul\":42065:42082   */\n      add\n        /* \"#utility.yul\":42061:42088   */\n      slt\n        /* \"#utility.yul\":42051:42173   */\n      tag_879\n      jumpi\n        /* \"#utility.yul\":42092:42171   */\n      tag_880\n      tag_420\n      jump\t// in\n    tag_880:\n        /* \"#utility.yul\":42051:42173   */\n    tag_879:\n        /* \"#utility.yul\":42202:42208   */\n      dup2\n        /* \"#utility.yul\":42196:42209   */\n      mload\n        /* \"#utility.yul\":42227:42317   */\n      tag_881\n        /* \"#utility.yul\":42313:42316   */\n      dup5\n        /* \"#utility.yul\":42305:42311   */\n      dup3\n        /* \"#utility.yul\":42298:42302   */\n      0x20\n        /* \"#utility.yul\":42290:42296   */\n      dup7\n        /* \"#utility.yul\":42286:42303   */\n      add\n        /* \"#utility.yul\":42227:42317   */\n      tag_483\n      jump\t// in\n    tag_881:\n        /* \"#utility.yul\":42218:42317   */\n      swap2\n      pop\n        /* \"#utility.yul\":42041:42323   */\n      pop\n        /* \"#utility.yul\":41968:42323   */\n      swap3\n      swap2\n      pop\n      pop\n      jump\t// out\n        /* \"#utility.yul\":42352:43129   */\n    tag_485:\n        /* \"#utility.yul\":42438:42443   */\n      0x00\n        /* \"#utility.yul\":42482:42486   */\n      0x40\n        /* \"#utility.yul\":42470:42479   */\n      dup3\n        /* \"#utility.yul\":42465:42468   */\n      dup5\n        /* \"#utility.yul\":42461:42480   */\n      sub\n        /* \"#utility.yul\":42457:42487   */\n      slt\n        /* \"#utility.yul\":42454:42571   */\n      iszero\n      tag_883\n      jumpi\n        /* \"#utility.yul\":42490:42569   */\n      tag_884\n      tag_425\n      jump\t// in\n    tag_884:\n        /* \"#utility.yul\":42454:42571   */\n    tag_883:\n        /* \"#utility.yul\":42589:42610   */\n      tag_885\n        /* \"#utility.yul\":42605:42609   */\n      0x40\n        /* \"#utility.yul\":42589:42610   */\n      tag_422\n      jump\t// in\n    tag_885:\n        /* \"#utility.yul\":42580:42610   */\n      swap1\n      pop\n        /* \"#utility.yul\":42675:42676   */\n      0x00\n        /* \"#utility.yul\":42715:42775   */\n      tag_886\n        /* \"#utility.yul\":42771:42774   */\n      dup5\n        /* \"#utility.yul\":42762:42768   */\n      dup3\n        /* \"#utility.yul\":42751:42760   */\n      dup6\n        /* \"#utility.yul\":42747:42769   */\n      add\n        /* \"#utility.yul\":42715:42775   */\n      tag_482\n      jump\t// in\n    tag_886:\n        /* \"#utility.yul\":42708:42712   */\n      0x00\n        /* \"#utility.yul\":42701:42706   */\n      dup4\n        /* \"#utility.yul\":42697:42713   */\n      add\n        /* \"#utility.yul\":42690:42776   */\n      mstore\n        /* \"#utility.yul\":42620:42787   */\n      pop\n        /* \"#utility.yul\":42867:42869   */\n      0x20\n        /* \"#utility.yul\":42856:42865   */\n      dup3\n        /* \"#utility.yul\":42852:42870   */\n      add\n        /* \"#utility.yul\":42846:42871   */\n      mload\n        /* \"#utility.yul\":42898:42916   */\n      0xffffffffffffffff\n        /* \"#utility.yul\":42890:42896   */\n      dup2\n        /* \"#utility.yul\":42887:42917   */\n      gt\n        /* \"#utility.yul\":42884:43001   */\n      iszero\n      tag_887\n      jumpi\n        /* \"#utility.yul\":42920:42999   */\n      tag_888\n      tag_426\n      jump\t// in\n    tag_888:\n        /* \"#utility.yul\":42884:43001   */\n    tag_887:\n        /* \"#utility.yul\":43040:43110   */\n      tag_889\n        /* \"#utility.yul\":43106:43109   */\n      dup5\n        /* \"#utility.yul\":43097:43103   */\n      dup3\n        /* \"#utility.yul\":43086:43095   */\n      dup6\n        /* \"#utility.yul\":43082:43104   */\n      add\n        /* \"#utility.yul\":43040:43110   */\n      tag_484\n      jump\t// in\n    tag_889:\n        /* \"#utility.yul\":43033:43037   */\n      0x20\n        /* \"#utility.yul\":43026:43031   */\n      dup4\n        /* \"#utility.yul\":43022:43038   */\n      add\n        /* \"#utility.yul\":43015:43111   */\n      mstore\n        /* \"#utility.yul\":42797:43122   */\n      pop\n        /* \"#utility.yul\":42352:43129   */\n      swap3\n      swap2\n      pop\n      pop\n      jump\t// out\n        /* \"#utility.yul\":43135:43691   */\n    tag_201:\n        /* \"#utility.yul\":43231:43237   */\n      0x00\n        /* \"#utility.yul\":43280:43282   */\n      0x20\n        /* \"#utility.yul\":43268:43277   */\n      dup3\n        /* \"#utility.yul\":43259:43266   */\n      dup5\n        /* \"#utility.yul\":43255:43278   */\n      sub\n        /* \"#utility.yul\":43251:43283   */\n      slt\n        /* \"#utility.yul\":43248:43367   */\n      iszero\n      tag_891\n      jumpi\n        /* \"#utility.yul\":43286:43365   */\n      tag_892\n      tag_393\n      jump\t// in\n    tag_892:\n        /* \"#utility.yul\":43248:43367   */\n    tag_891:\n        /* \"#utility.yul\":43427:43428   */\n      0x00\n        /* \"#utility.yul\":43416:43425   */\n      dup3\n        /* \"#utility.yul\":43412:43429   */\n      add\n        /* \"#utility.yul\":43406:43430   */\n      mload\n        /* \"#utility.yul\":43457:43475   */\n      0xffffffffffffffff\n        /* \"#utility.yul\":43449:43455   */\n      dup2\n        /* \"#utility.yul\":43446:43476   */\n      gt\n        /* \"#utility.yul\":43443:43560   */\n      iszero\n      tag_893\n      jumpi\n        /* \"#utility.yul\":43479:43558   */\n      tag_894\n      tag_394\n      jump\t// in\n    tag_894:\n        /* \"#utility.yul\":43443:43560   */\n    tag_893:\n        /* \"#utility.yul\":43584:43674   */\n      tag_895\n        /* \"#utility.yul\":43666:43673   */\n      dup5\n        /* \"#utility.yul\":43657:43663   */\n      dup3\n        /* \"#utility.yul\":43646:43655   */\n      dup6\n        /* \"#utility.yul\":43642:43664   */\n      add\n        /* \"#utility.yul\":43584:43674   */\n      tag_485\n      jump\t// in\n    tag_895:\n        /* \"#utility.yul\":43574:43674   */\n      swap2\n      pop\n        /* \"#utility.yul\":43377:43684   */\n      pop\n        /* \"#utility.yul\":43135:43691   */\n      swap3\n      swap2\n      pop\n      pop\n      jump\t// out\n        /* \"#utility.yul\":43697:43870   */\n    tag_486:\n        /* \"#utility.yul\":43837:43862   */\n      0x43617465676f727920646f6573206e6f74206578697374000000000000000000\n        /* \"#utility.yul\":43833:43834   */\n      0x00\n        /* \"#utility.yul\":43825:43831   */\n      dup3\n        /* \"#utility.yul\":43821:43835   */\n      add\n        /* \"#utility.yul\":43814:43863   */\n      mstore\n        /* \"#utility.yul\":43697:43870   */\n      pop\n      jump\t// out\n        /* \"#utility.yul\":43876:44242   */\n    tag_487:\n        /* \"#utility.yul\":44018:44021   */\n      0x00\n        /* \"#utility.yul\":44039:44106   */\n      tag_898\n        /* \"#utility.yul\":44103:44105   */\n      0x17\n        /* \"#utility.yul\":44098:44101   */\n      dup4\n        /* \"#utility.yul\":44039:44106   */\n      tag_462\n      jump\t// in\n    tag_898:\n        /* \"#utility.yul\":44032:44106   */\n      swap2\n      pop\n        /* \"#utility.yul\":44115:44208   */\n      tag_899\n        /* \"#utility.yul\":44204:44207   */\n      dup3\n        /* \"#utility.yul\":44115:44208   */\n      tag_486\n      jump\t// in\n    tag_899:\n        /* \"#utility.yul\":44233:44235   */\n      0x20\n        /* \"#utility.yul\":44228:44231   */\n      dup3\n        /* \"#utility.yul\":44224:44236   */\n      add\n        /* \"#utility.yul\":44217:44236   */\n      swap1\n      pop\n        /* \"#utility.yul\":43876:44242   */\n      swap2\n      swap1\n      pop\n      jump\t// out\n        /* \"#utility.yul\":44248:44667   */\n    tag_204:\n        /* \"#utility.yul\":44414:44418   */\n      0x00\n        /* \"#utility.yul\":44452:44454   */\n      0x20\n        /* \"#utility.yul\":44441:44450   */\n      dup3\n        /* \"#utility.yul\":44437:44455   */\n      add\n        /* \"#utility.yul\":44429:44455   */\n      swap1\n      pop\n        /* \"#utility.yul\":44501:44510   */\n      dup2\n        /* \"#utility.yul\":44495:44499   */\n      dup2\n        /* \"#utility.yul\":44491:44511   */\n      sub\n        /* \"#utility.yul\":44487:44488   */\n      0x00\n        /* \"#utility.yul\":44476:44485   */\n      dup4\n        /* \"#utility.yul\":44472:44489   */\n      add\n        /* \"#utility.yul\":44465:44512   */\n      mstore\n        /* \"#utility.yul\":44529:44660   */\n      tag_901\n        /* \"#utility.yul\":44655:44659   */\n      dup2\n        /* \"#utility.yul\":44529:44660   */\n      tag_487\n      jump\t// in\n    tag_901:\n        /* \"#utility.yul\":44521:44660   */\n      swap1\n      pop\n        /* \"#utility.yul\":44248:44667   */\n      swap2\n      swap1\n      pop\n      jump\t// out\n        /* \"#utility.yul\":44673:45050   */\n    tag_488:\n        /* \"#utility.yul\":44761:44764   */\n      0x00\n        /* \"#utility.yul\":44789:44828   */\n      tag_903\n        /* \"#utility.yul\":44822:44827   */\n      dup3\n        /* \"#utility.yul\":44789:44828   */\n      tag_404\n      jump\t// in\n    tag_903:\n        /* \"#utility.yul\":44844:44915   */\n      tag_904\n        /* \"#utility.yul\":44908:44914   */\n      dup2\n        /* \"#utility.yul\":44903:44906   */\n      dup6\n        /* \"#utility.yul\":44844:44915   */\n      tag_462\n      jump\t// in\n    tag_904:\n        /* \"#utility.yul\":44837:44915   */\n      swap4\n      pop\n        /* \"#utility.yul\":44924:44989   */\n      tag_905\n        /* \"#utility.yul\":44982:44988   */\n      dup2\n        /* \"#utility.yul\":44977:44980   */\n      dup6\n        /* \"#utility.yul\":44970:44974   */\n      0x20\n        /* \"#utility.yul\":44963:44968   */\n      dup7\n        /* \"#utility.yul\":44959:44975   */\n      add\n        /* \"#utility.yul\":44924:44989   */\n      tag_406\n      jump\t// in\n    tag_905:\n        /* \"#utility.yul\":45014:45043   */\n      tag_906\n        /* \"#utility.yul\":45036:45042   */\n      dup2\n        /* \"#utility.yul\":45014:45043   */\n      tag_407\n      jump\t// in\n    tag_906:\n        /* \"#utility.yul\":45009:45012   */\n      dup5\n        /* \"#utility.yul\":45005:45044   */\n      add\n        /* \"#utility.yul\":44998:45044   */\n      swap2\n      pop\n        /* \"#utility.yul\":44765:45050   */\n      pop\n        /* \"#utility.yul\":44673:45050   */\n      swap3\n      swap2\n      pop\n      pop\n      jump\t// out\n        /* \"#utility.yul\":45056:45250   */\n    tag_489:\n        /* \"#utility.yul\":45165:45176   */\n      0x00\n        /* \"#utility.yul\":45199:45205   */\n      dup3\n        /* \"#utility.yul\":45194:45197   */\n      dup3\n        /* \"#utility.yul\":45187:45206   */\n      mstore\n        /* \"#utility.yul\":45239:45243   */\n      0x20\n        /* \"#utility.yul\":45234:45237   */\n      dup3\n        /* \"#utility.yul\":45230:45244   */\n      add\n        /* \"#utility.yul\":45215:45244   */\n      swap1\n      pop\n        /* \"#utility.yul\":45056:45250   */\n      swap3\n      swap2\n      pop\n      pop\n      jump\t// out\n        /* \"#utility.yul\":45284:46275   */\n    tag_490:\n        /* \"#utility.yul\":45423:45426   */\n      0x00\n        /* \"#utility.yul\":45452:45516   */\n      tag_909\n        /* \"#utility.yul\":45510:45515   */\n      dup3\n        /* \"#utility.yul\":45452:45516   */\n      tag_409\n      jump\t// in\n    tag_909:\n        /* \"#utility.yul\":45532:45628   */\n      tag_910\n        /* \"#utility.yul\":45621:45627   */\n      dup2\n        /* \"#utility.yul\":45616:45619   */\n      dup6\n        /* \"#utility.yul\":45532:45628   */\n      tag_489\n      jump\t// in\n    tag_910:\n        /* \"#utility.yul\":45525:45628   */\n      swap4\n      pop\n        /* \"#utility.yul\":45654:45657   */\n      dup4\n        /* \"#utility.yul\":45699:45703   */\n      0x20\n        /* \"#utility.yul\":45691:45697   */\n      dup3\n        /* \"#utility.yul\":45687:45704   */\n      mul\n        /* \"#utility.yul\":45682:45685   */\n      dup6\n        /* \"#utility.yul\":45678:45705   */\n      add\n        /* \"#utility.yul\":45729:45795   */\n      tag_911\n        /* \"#utility.yul\":45789:45794   */\n      dup6\n        /* \"#utility.yul\":45729:45795   */\n      tag_411\n      jump\t// in\n    tag_911:\n        /* \"#utility.yul\":45818:45825   */\n      dup1\n        /* \"#utility.yul\":45849:45850   */\n      0x00\n        /* \"#utility.yul\":45834:46230   */\n    tag_912:\n        /* \"#utility.yul\":45859:45865   */\n      dup6\n        /* \"#utility.yul\":45856:45857   */\n      dup2\n        /* \"#utility.yul\":45853:45866   */\n      lt\n        /* \"#utility.yul\":45834:46230   */\n      iszero\n      tag_914\n      jumpi\n        /* \"#utility.yul\":45930:45939   */\n      dup5\n        /* \"#utility.yul\":45924:45928   */\n      dup5\n        /* \"#utility.yul\":45920:45940   */\n      sub\n        /* \"#utility.yul\":45915:45918   */\n      dup10\n        /* \"#utility.yul\":45908:45941   */\n      mstore\n        /* \"#utility.yul\":45981:45987   */\n      dup2\n        /* \"#utility.yul\":45975:45988   */\n      mload\n        /* \"#utility.yul\":46009:46093   */\n      tag_915\n        /* \"#utility.yul\":46088:46092   */\n      dup6\n        /* \"#utility.yul\":46073:46086   */\n      dup3\n        /* \"#utility.yul\":46009:46093   */\n      tag_412\n      jump\t// in\n    tag_915:\n        /* \"#utility.yul\":46001:46093   */\n      swap5\n      pop\n        /* \"#utility.yul\":46116:46186   */\n      tag_916\n        /* \"#utility.yul\":46179:46185   */\n      dup4\n        /* \"#utility.yul\":46116:46186   */\n      tag_413\n      jump\t// in\n    tag_916:\n        /* \"#utility.yul\":46106:46186   */\n      swap3\n      pop\n        /* \"#utility.yul\":46215:46219   */\n      0x20\n        /* \"#utility.yul\":46210:46213   */\n      dup11\n        /* \"#utility.yul\":46206:46220   */\n      add\n        /* \"#utility.yul\":46199:46220   */\n      swap10\n      pop\n        /* \"#utility.yul\":45894:46230   */\n      pop\n        /* \"#utility.yul\":45881:45882   */\n      0x01\n        /* \"#utility.yul\":45878:45879   */\n      dup2\n        /* \"#utility.yul\":45874:45883   */\n      add\n        /* \"#utility.yul\":45869:45883   */\n      swap1\n      pop\n        /* \"#utility.yul\":45834:46230   */\n      jump(tag_912)\n    tag_914:\n        /* \"#utility.yul\":45838:45852   */\n      pop\n        /* \"#utility.yul\":46246:46250   */\n      dup3\n        /* \"#utility.yul\":46239:46250   */\n      swap8\n      pop\n        /* \"#utility.yul\":46266:46269   */\n      dup8\n        /* \"#utility.yul\":46259:46269   */\n      swap6\n      pop\n        /* \"#utility.yul\":45428:46275   */\n      pop\n      pop\n      pop\n      pop\n      pop\n        /* \"#utility.yul\":45284:46275   */\n      swap3\n      swap2\n      pop\n      pop\n      jump\t// out\n        /* \"#utility.yul\":46281:47318   */\n    tag_210:\n        /* \"#utility.yul\":46596:46600   */\n      0x00\n        /* \"#utility.yul\":46634:46637   */\n      0xa0\n        /* \"#utility.yul\":46623:46632   */\n      dup3\n        /* \"#utility.yul\":46619:46638   */\n      add\n        /* \"#utility.yul\":46611:46638   */\n      swap1\n      pop\n        /* \"#utility.yul\":46648:46719   */\n      tag_918\n        /* \"#utility.yul\":46716:46717   */\n      0x00\n        /* \"#utility.yul\":46705:46714   */\n      dup4\n        /* \"#utility.yul\":46701:46718   */\n      add\n        /* \"#utility.yul\":46692:46698   */\n      dup9\n        /* \"#utility.yul\":46648:46719   */\n      tag_402\n      jump\t// in\n    tag_918:\n        /* \"#utility.yul\":46766:46775   */\n      dup2\n        /* \"#utility.yul\":46760:46764   */\n      dup2\n        /* \"#utility.yul\":46756:46776   */\n      sub\n        /* \"#utility.yul\":46751:46753   */\n      0x20\n        /* \"#utility.yul\":46740:46749   */\n      dup4\n        /* \"#utility.yul\":46736:46754   */\n      add\n        /* \"#utility.yul\":46729:46777   */\n      mstore\n        /* \"#utility.yul\":46794:46872   */\n      tag_919\n        /* \"#utility.yul\":46867:46871   */\n      dup2\n        /* \"#utility.yul\":46858:46864   */\n      dup8\n        /* \"#utility.yul\":46794:46872   */\n      tag_488\n      jump\t// in\n    tag_919:\n        /* \"#utility.yul\":46786:46872   */\n      swap1\n      pop\n        /* \"#utility.yul\":46919:46928   */\n      dup2\n        /* \"#utility.yul\":46913:46917   */\n      dup2\n        /* \"#utility.yul\":46909:46929   */\n      sub\n        /* \"#utility.yul\":46904:46906   */\n      0x40\n        /* \"#utility.yul\":46893:46902   */\n      dup4\n        /* \"#utility.yul\":46889:46907   */\n      add\n        /* \"#utility.yul\":46882:46930   */\n      mstore\n        /* \"#utility.yul\":46947:47025   */\n      tag_920\n        /* \"#utility.yul\":47020:47024   */\n      dup2\n        /* \"#utility.yul\":47011:47017   */\n      dup7\n        /* \"#utility.yul\":46947:47025   */\n      tag_488\n      jump\t// in\n    tag_920:\n        /* \"#utility.yul\":46939:47025   */\n      swap1\n      pop\n        /* \"#utility.yul\":47035:47107   */\n      tag_921\n        /* \"#utility.yul\":47103:47105   */\n      0x60\n        /* \"#utility.yul\":47092:47101   */\n      dup4\n        /* \"#utility.yul\":47088:47106   */\n      add\n        /* \"#utility.yul\":47079:47085   */\n      dup6\n        /* \"#utility.yul\":47035:47107   */\n      tag_402\n      jump\t// in\n    tag_921:\n        /* \"#utility.yul\":47155:47164   */\n      dup2\n        /* \"#utility.yul\":47149:47153   */\n      dup2\n        /* \"#utility.yul\":47145:47165   */\n      sub\n        /* \"#utility.yul\":47139:47142   */\n      0x80\n        /* \"#utility.yul\":47128:47137   */\n      dup4\n        /* \"#utility.yul\":47124:47143   */\n      add\n        /* \"#utility.yul\":47117:47166   */\n      mstore\n        /* \"#utility.yul\":47183:47311   */\n      tag_922\n        /* \"#utility.yul\":47306:47310   */\n      dup2\n        /* \"#utility.yul\":47297:47303   */\n      dup5\n        /* \"#utility.yul\":47183:47311   */\n      tag_490\n      jump\t// in\n    tag_922:\n        /* \"#utility.yul\":47175:47311   */\n      swap1\n      pop\n        /* \"#utility.yul\":46281:47318   */\n      swap7\n      swap6\n      pop\n      pop\n      pop\n      pop\n      pop\n      pop\n      jump\t// out\n        /* \"#utility.yul\":47324:47551   */\n    tag_491:\n        /* \"#utility.yul\":47464:47498   */\n      0x5175616e74697479277320666f6f642063616e6e6f7420626520736d616c6c65\n        /* \"#utility.yul\":47460:47461   */\n      0x00\n        /* \"#utility.yul\":47452:47458   */\n      dup3\n        /* \"#utility.yul\":47448:47462   */\n      add\n        /* \"#utility.yul\":47441:47499   */\n      mstore\n        /* \"#utility.yul\":47533:47543   */\n      0x72207468616e2030000000000000000000000000000000000000000000000000\n        /* \"#utility.yul\":47528:47530   */\n      0x20\n        /* \"#utility.yul\":47520:47526   */\n      dup3\n        /* \"#utility.yul\":47516:47531   */\n      add\n        /* \"#utility.yul\":47509:47544   */\n      mstore\n        /* \"#utility.yul\":47324:47551   */\n      pop\n      jump\t// out\n        /* \"#utility.yul\":47557:47923   */\n    tag_492:\n        /* \"#utility.yul\":47699:47702   */\n      0x00\n        /* \"#utility.yul\":47720:47787   */\n      tag_925\n        /* \"#utility.yul\":47784:47786   */\n      0x28\n        /* \"#utility.yul\":47779:47782   */\n      dup4\n        /* \"#utility.yul\":47720:47787   */\n      tag_462\n      jump\t// in\n    tag_925:\n        /* \"#utility.yul\":47713:47787   */\n      swap2\n      pop\n        /* \"#utility.yul\":47796:47889   */\n      tag_926\n        /* \"#utility.yul\":47885:47888   */\n      dup3\n        /* \"#utility.yul\":47796:47889   */\n      tag_491\n      jump\t// in\n    tag_926:\n        /* \"#utility.yul\":47914:47916   */\n      0x40\n        /* \"#utility.yul\":47909:47912   */\n      dup3\n        /* \"#utility.yul\":47905:47917   */\n      add\n        /* \"#utility.yul\":47898:47917   */\n      swap1\n      pop\n        /* \"#utility.yul\":47557:47923   */\n      swap2\n      swap1\n      pop\n      jump\t// out\n        /* \"#utility.yul\":47929:48348   */\n    tag_228:\n        /* \"#utility.yul\":48095:48099   */\n      0x00\n        /* \"#utility.yul\":48133:48135   */\n      0x20\n        /* \"#utility.yul\":48122:48131   */\n      dup3\n        /* \"#utility.yul\":48118:48136   */\n      add\n        /* \"#utility.yul\":48110:48136   */\n      swap1\n      pop\n        /* \"#utility.yul\":48182:48191   */\n      dup2\n        /* \"#utility.yul\":48176:48180   */\n      dup2\n        /* \"#utility.yul\":48172:48192   */\n      sub\n        /* \"#utility.yul\":48168:48169   */\n      0x00\n        /* \"#utility.yul\":48157:48166   */\n      dup4\n        /* \"#utility.yul\":48153:48170   */\n      add\n        /* \"#utility.yul\":48146:48193   */\n      mstore\n        /* \"#utility.yul\":48210:48341   */\n      tag_928\n        /* \"#utility.yul\":48336:48340   */\n      dup2\n        /* \"#utility.yul\":48210:48341   */\n      tag_492\n      jump\t// in\n    tag_928:\n        /* \"#utility.yul\":48202:48341   */\n      swap1\n      pop\n        /* \"#utility.yul\":47929:48348   */\n      swap2\n      swap1\n      pop\n      jump\t// out\n        /* \"#utility.yul\":48354:48536   */\n    tag_493:\n        /* \"#utility.yul\":48494:48528   */\n      0x466f6f642077697468207468697320494420616c726561647920657869737473\n        /* \"#utility.yul\":48490:48491   */\n      0x00\n        /* \"#utility.yul\":48482:48488   */\n      dup3\n        /* \"#utility.yul\":48478:48492   */\n      add\n        /* \"#utility.yul\":48471:48529   */\n      mstore\n        /* \"#utility.yul\":48354:48536   */\n      pop\n      jump\t// out\n        /* \"#utility.yul\":48542:48908   */\n    tag_494:\n        /* \"#utility.yul\":48684:48687   */\n      0x00\n        /* \"#utility.yul\":48705:48772   */\n      tag_931\n        /* \"#utility.yul\":48769:48771   */\n      0x20\n        /* \"#utility.yul\":48764:48767   */\n      dup4\n        /* \"#utility.yul\":48705:48772   */\n      tag_462\n      jump\t// in\n    tag_931:\n        /* \"#utility.yul\":48698:48772   */\n      swap2\n      pop\n        /* \"#utility.yul\":48781:48874   */\n      tag_932\n        /* \"#utility.yul\":48870:48873   */\n      dup3\n        /* \"#utility.yul\":48781:48874   */\n      tag_493\n      jump\t// in\n    tag_932:\n        /* \"#utility.yul\":48899:48901   */\n      0x20\n        /* \"#utility.yul\":48894:48897   */\n      dup3\n        /* \"#utility.yul\":48890:48902   */\n      add\n        /* \"#utility.yul\":48883:48902   */\n      swap1\n      pop\n        /* \"#utility.yul\":48542:48908   */\n      swap2\n      swap1\n      pop\n      jump\t// out\n        /* \"#utility.yul\":48914:49333   */\n    tag_247:\n        /* \"#utility.yul\":49080:49084   */\n      0x00\n        /* \"#utility.yul\":49118:49120   */\n      0x20\n        /* \"#utility.yul\":49107:49116   */\n      dup3\n        /* \"#utility.yul\":49103:49121   */\n      add\n        /* \"#utility.yul\":49095:49121   */\n      swap1\n      pop\n        /* \"#utility.yul\":49167:49176   */\n      dup2\n        /* \"#utility.yul\":49161:49165   */\n      dup2\n        /* \"#utility.yul\":49157:49177   */\n      sub\n        /* \"#utility.yul\":49153:49154   */\n      0x00\n        /* \"#utility.yul\":49142:49151   */\n      dup4\n        /* \"#utility.yul\":49138:49155   */\n      add\n        /* \"#utility.yul\":49131:49178   */\n      mstore\n        /* \"#utility.yul\":49195:49326   */\n      tag_934\n        /* \"#utility.yul\":49321:49325   */\n      dup2\n        /* \"#utility.yul\":49195:49326   */\n      tag_494\n      jump\t// in\n    tag_934:\n        /* \"#utility.yul\":49187:49326   */\n      swap1\n      pop\n        /* \"#utility.yul\":48914:49333   */\n      swap2\n      swap1\n      pop\n      jump\t// out\n\n    auxdata: 0xa26469706673582212209156f68b39ee5339171873e2235f23dcacbfe86bcc8a68d7519bab5d0cb03bcf64736f6c634300081e0033\n}\n",
				"bytecode": {
					"linkReferences": {},
					"object": "608060405260016003556001600455348015610019575f5ffd5b50604051613712380380613712833981810160405281019061003b919061011e565b335f5f6101000a81548173ffffffffffffffffffffffffffffffffffffffff021916908373ffffffffffffffffffffffffffffffffffffffff1602179055508060025f6101000a81548173ffffffffffffffffffffffffffffffffffffffff021916908373ffffffffffffffffffffffffffffffffffffffff16021790555050610149565b5f5ffd5b5f73ffffffffffffffffffffffffffffffffffffffff82169050919050565b5f6100ed826100c4565b9050919050565b6100fd816100e3565b8114610107575f5ffd5b50565b5f81519050610118816100f4565b92915050565b5f60208284031215610133576101326100c0565b5b5f6101408482850161010a565b91505092915050565b6135bc806101565f395ff3fe608060405234801561000f575f5ffd5b5060043610610114575f3560e01c806370480275116100a0578063b447aaae1161006f578063b447aaae146102c6578063b9b5aae6146102e2578063baf8530614610300578063d198b6501461031c578063d86ec2381461033857610114565b80637048027514610240578063893d20e81461025c5780639a69bfa61461027a578063af5607f91461029657610114565b80631e4de872116100e75780631e4de8721461018c57806324d7806c146101bc5780634d30a39b146101ec57806364f77471146102085780636dd2dd881461022457610114565b8063094b9a53146101185780631785f53c146101345780631945ef58146101505780631b0d77cc1461016e575b5f5ffd5b610132600480360381019061012d9190611ecc565b610356565b005b61014e60048036038101906101499190611f76565b61040f565b005b610158610476565b6040516101659190611fb0565b60405180910390f35b61017661047c565b6040516101839190611fb0565b60405180910390f35b6101a660048036038101906101a19190611fc9565b610482565b6040516101b391906121d5565b60405180910390f35b6101d660048036038101906101d19190611f76565b61071d565b6040516101e39190612268565b60405180910390f35b61020660048036038101906102019190612281565b61073a565b005b610222600480360381019061021d9190612552565b610a3d565b005b61023e6004803603810190610239919061268a565b610bec565b005b61025a60048036038101906102559190611f76565b610ded565b005b610264610e54565b6040516102719190612764565b60405180910390f35b610294600480360381019061028f9190611ecc565b610e7b565b005b6102b060048036038101906102ab9190611fc9565b610fa8565b6040516102bd9190612898565b60405180910390f35b6102e060048036038101906102db91906128b8565b611117565b005b6102ea611518565b6040516102f79190612bd7565b60405180910390f35b61031a60048036038101906103159190612bf7565b611937565b005b61033660048036038101906103319190611fc9565b611afd565b005b610340611cbf565b60405161034d9190612cbe565b60405180910390f35b5f5f90505b60065f8581526020019081526020015f2080549050811015610409578260065f8681526020019081526020015f20828154811061039b5761039a612cd7565b5b905f5260205f2090600402015f0154036103fc578160065f8681526020019081526020015f2082815481106103d3576103d2612cd7565b5b905f5260205f2090600402016002015f8282546103f09190612d31565b92505081905550610409565b808060010191505061035b565b50505050565b5f60015f8373ffffffffffffffffffffffffffffffffffffffff1673ffffffffffffffffffffffffffffffffffffffff1681526020019081526020015f205f6101000a81548160ff0219169083600281111561046e5761046d6121f5565b5b021790555050565b60035481565b60045481565b61048a611ce4565b5f60055f8481526020019081526020015f205f0154036104df576040517f08c379a00000000000000000000000000000000000000000000000000000000081526004016104d690612dbe565b60405180910390fd5b60055f8381526020019081526020015f206040518060e00160405290815f820154815260200160018201805461051490612e09565b80601f016020809104026020016040519081016040528092919081815260200182805461054090612e09565b801561058b5780601f106105625761010080835404028352916020019161058b565b820191905f5260205f20905b81548152906001019060200180831161056e57829003601f168201915b505050505081526020016002820180546105a490612e09565b80601f01602080910402602001604051908101604052809291908181526020018280546105d090612e09565b801561061b5780601f106105f25761010080835404028352916020019161061b565b820191905f5260205f20905b8154815290600101906020018083116105fe57829003601f168201915b505050505081526020016003820154815260200160048201805480602002602001604051908101604052809291908181526020015f905b828210156106fa578382905f5260205f2001805461066f90612e09565b80601f016020809104026020016040519081016040528092919081815260200182805461069b90612e09565b80156106e65780601f106106bd576101008083540402835291602001916106e6565b820191905f5260205f20905b8154815290600101906020018083116106c957829003601f168201915b505050505081526020019060010190610652565b505050508152602001600582015481526020016006820154815250509050919050565b6001602052805f5260405f205f915054906101000a900460ff1681565b5f60055f8481526020019081526020015f205f01540361078f576040517f08c379a000000000000000000000000000000000000000000000000000000000815260040161078690612dbe565b60405180910390fd5b5f60065f8481526020019081526020015f2090505f5f90505f5f90505b82805490508110156109f657838382815481106107cc576107cb612cd7565b5b905f5260205f2090600402015f0154036109e95760018380549050116108205760405180608001604052805f815260200160405180602001604052805f81525081526020015f81526020015f815250610908565b82600184805490506108329190612e39565b8154811061084357610842612cd7565b5b905f5260205f2090600402016040518060800160405290815f820154815260200160018201805461087390612e09565b80601f016020809104026020016040519081016040528092919081815260200182805461089f90612e09565b80156108ea5780601f106108c1576101008083540402835291602001916108ea565b820191905f5260205f20905b8154815290600101906020018083116108cd57829003601f168201915b50505050508152602001600282015481526020016003820154815250505b83828154811061091b5761091a612cd7565b5b905f5260205f2090600402015f820151815f015560208201518160010190816109449190613003565b5060408201518160020155606082015181600301559050508280548061096d5761096c6130d2565b5b600190038181905f5260205f2090600402015f5f82015f9055600182015f6109959190611d1d565b600282015f9055600382015f905550509055600191507f55caa6a55acb7e3464dc13c54d94739e0f01b9141276caebb64f3ef500cd890085856040516109dc9291906130ff565b60405180910390a16109f6565b80806001019150506107ac565b5080610a37576040517f08c379a0000000000000000000000000000000000000000000000000000000008152600401610a2e90613170565b60405180910390fd5b50505050565b5f60055f8481526020019081526020015f205f015403610a92576040517f08c379a0000000000000000000000000000000000000000000000000000000008152600401610a8990612dbe565b60405180910390fd5b5f5f90505b8151811015610bb05760045f815480929190610ab29061318e565b91905055505f60405180608001604052806004548152602001848481518110610ade57610add612cd7565b5b60200260200101515f01518152602001848481518110610b0157610b00612cd7565b5b6020026020010151602001518152602001848481518110610b2557610b24612cd7565b5b602002602001015160400151815250905060065f8581526020019081526020015f2081908060018154018082558091505060019003905f5260205f2090600402015f909190919091505f820151815f01556020820151816001019081610b8b9190613003565b5060408201518160020155606082015181600301555050508080600101915050610a97565b507f19a8e56286393226625dcdbc7cbb5a7611c71773d54c7e0680658cb9ceef6c2282604051610be09190611fb0565b60405180910390a15050565b5f60055f8781526020019081526020015f205f015403610c41576040517f08c379a0000000000000000000000000000000000000000000000000000000008152600401610c3890612dbe565b60405180910390fd5b5f60025f9054906101000a900473ffffffffffffffffffffffffffffffffffffffff1673ffffffffffffffffffffffffffffffffffffffff1663f3052d26846040518263ffffffff1660e01b8152600401610c9c9190611fb0565b5f60405180830381865afa158015610cb6573d5f5f3e3d5ffd5b505050506040513d5f823e3d601f19601f82011682018060405250810190610cde91906132c0565b5f015103610d21576040517f08c379a0000000000000000000000000000000000000000000000000000000008152600401610d1890613351565b60405180910390fd5b8360055f8781526020019081526020015f206001019081610d429190613003565b508260055f8781526020019081526020015f206002019081610d649190613003565b508160055f8781526020019081526020015f20600301819055508060055f8781526020019081526020015f206004019080519060200190610da6929190611d5a565b507f4f49710e0e59ea2e7096d7bad0267390d8bb5c007687f72b0de2db3afdadd5e58585858585604051610dde95949392919061342a565b60405180910390a15050505050565b6001805f8373ffffffffffffffffffffffffffffffffffffffff1673ffffffffffffffffffffffffffffffffffffffff1681526020019081526020015f205f6101000a81548160ff02191690836002811115610e4c57610e4b6121f5565b5b021790555050565b5f5f5f9054906101000a900473ffffffffffffffffffffffffffffffffffffffff16905090565b5f5f90505b60065f8581526020019081526020015f2080549050811015610fa2578260065f8681526020019081526020015f208281548110610ec057610ebf612cd7565b5b905f5260205f2090600402015f015403610f955760065f8581526020019081526020015f208181548110610ef757610ef6612cd7565b5b905f5260205f209060040201600201548210610f48576040517f08c379a0000000000000000000000000000000000000000000000000000000008152600401610f3f90613500565b60405180910390fd5b8160065f8681526020019081526020015f208281548110610f6c57610f6b612cd7565b5b905f5260205f2090600402016002015f828254610f899190612e39565b92505081905550610fa2565b8080600101915050610e80565b50505050565b60605f60055f8481526020019081526020015f205f015403610fff576040517f08c379a0000000000000000000000000000000000000000000000000000000008152600401610ff690612dbe565b60405180910390fd5b60065f8381526020019081526020015f20805480602002602001604051908101604052809291908181526020015f905b8282101561110c578382905f5260205f2090600402016040518060800160405290815f820154815260200160018201805461106990612e09565b80601f016020809104026020016040519081016040528092919081815260200182805461109590612e09565b80156110e05780601f106110b7576101008083540402835291602001916110e0565b820191905f5260205f20905b8154815290600101906020018083116110c357829003601f168201915b50505050508152602001600282015481526020016003820154815250508152602001906001019061102f565b505050509050919050565b5f60055f8881526020019081526020015f205f01541461116c576040517f08c379a000000000000000000000000000000000000000000000000000000000815260040161116390613568565b60405180910390fd5b5f60025f9054906101000a900473ffffffffffffffffffffffffffffffffffffffff1673ffffffffffffffffffffffffffffffffffffffff1663f3052d26856040518263ffffffff1660e01b81526004016111c79190611fb0565b5f60405180830381865afa1580156111e1573d5f5f3e3d5ffd5b505050506040513d5f823e3d601f19601f8201168201806040525081019061120991906132c0565b5f01510361124c576040517f08c379a000000000000000000000000000000000000000000000000000000000815260040161124390613351565b60405180910390fd5b5f6040518060e001604052808881526020018781526020018681526020018581526020018481526020015f81526020015f81525090508060055f8981526020019081526020015f205f820151815f015560208201518160010190816112b19190613003565b5060408201518160020190816112c79190613003565b506060820151816003015560808201518160040190805190602001906112ee929190611d5a565b5060a0820151816005015560c08201518160060155905050600787908060018154018082558091505060019003905f5260205f20015f909190919091505560025f9054906101000a900473ffffffffffffffffffffffffffffffffffffffff1673ffffffffffffffffffffffffffffffffffffffff16635f8069cc85896040518363ffffffff1660e01b81526004016113889291906130ff565b5f604051808303815f87803b15801561139f575f5ffd5b505af11580156113b1573d5f5f3e3d5ffd5b505050505f5f90505b82518110156114cf575f604051806080016040528060045f8154809291906113e19061318e565b9190505581526020018584815181106113fd576113fc612cd7565b5b60200260200101515f015181526020018584815181106114205761141f612cd7565b5b602002602001015160200151815260200185848151811061144457611443612cd7565b5b602002602001015160400151815250905060065f8a81526020019081526020015f2081908060018154018082558091505060019003905f5260205f2090600402015f909190919091505f820151815f015560208201518160010190816114aa9190613003565b50604082015181600201556060820151816003015550505080806001019150506113ba565b507fbdf2814016d06bf27f22aa349fade26a888a8f7eac3e0963916b1c64cc37a5ce878787878760405161150795949392919061342a565b60405180910390a150505050505050565b60605f60078054905067ffffffffffffffff81111561153a576115396122c3565b5b60405190808252806020026020018201604052801561157357816020015b611560611db1565b8152602001906001900390816115585790505b5090505f5f90505b60078054905081101561192f575f6007828154811061159d5761159c612cd7565b5b905f5260205f2001549050604051806040016040528060055f8481526020019081526020015f206040518060e00160405290815f82015481526020016001820180546115e890612e09565b80601f016020809104026020016040519081016040528092919081815260200182805461161490612e09565b801561165f5780601f106116365761010080835404028352916020019161165f565b820191905f5260205f20905b81548152906001019060200180831161164257829003601f168201915b5050505050815260200160028201805461167890612e09565b80601f01602080910402602001604051908101604052809291908181526020018280546116a490612e09565b80156116ef5780601f106116c6576101008083540402835291602001916116ef565b820191905f5260205f20905b8154815290600101906020018083116116d257829003601f168201915b505050505081526020016003820154815260200160048201805480602002602001604051908101604052809291908181526020015f905b828210156117ce578382905f5260205f2001805461174390612e09565b80601f016020809104026020016040519081016040528092919081815260200182805461176f90612e09565b80156117ba5780601f10611791576101008083540402835291602001916117ba565b820191905f5260205f20905b81548152906001019060200180831161179d57829003601f168201915b505050505081526020019060010190611726565b50505050815260200160058201548152602001600682015481525050815260200160065f8481526020019081526020015f20805480602002602001604051908101604052809291908181526020015f905b828210156118fc578382905f5260205f2090600402016040518060800160405290815f820154815260200160018201805461185990612e09565b80601f016020809104026020016040519081016040528092919081815260200182805461188590612e09565b80156118d05780601f106118a7576101008083540402835291602001916118d0565b820191905f5260205f20905b8154815290600101906020018083116118b357829003601f168201915b50505050508152602001600282015481526020016003820154815250508152602001906001019061181f565b5050505081525083838151811061191657611915612cd7565b5b602002602001018190525050808060010191505061157b565b508091505090565b5f60055f8581526020019081526020015f205f01540361198c576040517f08c379a000000000000000000000000000000000000000000000000000000000815260040161198390612dbe565b60405180910390fd5b5f60065f8581526020019081526020015f2090505f5f90505f5f90505b8280549050811015611ab557848382815481106119c9576119c8612cd7565b5b905f5260205f2090600402015f015403611aa857835f01518382815481106119f4576119f3612cd7565b5b905f5260205f2090600402016001019081611a0f9190613003565b508360200151838281548110611a2857611a27612cd7565b5b905f5260205f209060040201600201819055508360400151838281548110611a5357611a52612cd7565b5b905f5260205f20906004020160030181905550600191507fe29e1e70959f0c301943d01c4bd294592a2105bc81e9b2523c4b1d7f7d1f393f8686604051611a9b9291906130ff565b60405180910390a1611ab5565b80806001019150506119a9565b5080611af6576040517f08c379a0000000000000000000000000000000000000000000000000000000008152600401611aed90613170565b60405180910390fd5b5050505050565b5f60055f8381526020019081526020015f205f015403611b52576040517f08c379a0000000000000000000000000000000000000000000000000000000008152600401611b4990612dbe565b60405180910390fd5b60055f8281526020019081526020015f205f5f82015f9055600182015f611b799190611d1d565b600282015f611b889190611d1d565b600382015f9055600482015f611b9e9190611dd1565b600582015f9055600682015f9055505060065f8281526020019081526020015f205f611bca9190611def565b5f5f90505b600780549050811015611c84578160078281548110611bf157611bf0612cd7565b5b905f5260205f20015403611c775760076001600780549050611c139190612e39565b81548110611c2457611c23612cd7565b5b905f5260205f20015460078281548110611c4157611c40612cd7565b5b905f5260205f2001819055506007805480611c5f57611c5e6130d2565b5b600190038181905f5260205f20015f90559055611c84565b8080600101915050611bcf565b507f4d4e7c43d5805933523b1317fdd5acb7517962d3e9f52834633b9f014947729581604051611cb49190611fb0565b60405180910390a150565b60025f9054906101000a900473ffffffffffffffffffffffffffffffffffffffff1681565b6040518060e001604052805f815260200160608152602001606081526020015f8152602001606081526020015f81526020015f81525090565b508054611d2990612e09565b5f825580601f10611d3a5750611d57565b601f0160209004905f5260205f2090810190611d569190611e10565b5b50565b828054828255905f5260205f20908101928215611da0579160200282015b82811115611d9f578251829081611d8f9190613003565b5091602001919060010190611d78565b5b509050611dad9190611e2b565b5090565b6040518060400160405280611dc4611ce4565b8152602001606081525090565b5080545f8255905f5260205f2090810190611dec9190611e2b565b50565b5080545f8255600402905f5260205f2090810190611e0d9190611e4e565b50565b5b80821115611e27575f815f905550600101611e11565b5090565b5b80821115611e4a575f8181611e419190611d1d565b50600101611e2c565b5090565b5b80821115611e84575f5f82015f9055600182015f611e6d9190611d1d565b600282015f9055600382015f905550600401611e4f565b5090565b5f604051905090565b5f5ffd5b5f5ffd5b5f819050919050565b611eab81611e99565b8114611eb5575f5ffd5b50565b5f81359050611ec681611ea2565b92915050565b5f5f5f60608486031215611ee357611ee2611e91565b5b5f611ef086828701611eb8565b9350506020611f0186828701611eb8565b9250506040611f1286828701611eb8565b9150509250925092565b5f73ffffffffffffffffffffffffffffffffffffffff82169050919050565b5f611f4582611f1c565b9050919050565b611f5581611f3b565b8114611f5f575f5ffd5b50565b5f81359050611f7081611f4c565b92915050565b5f60208284031215611f8b57611f8a611e91565b5b5f611f9884828501611f62565b91505092915050565b611faa81611e99565b82525050565b5f602082019050611fc35f830184611fa1565b92915050565b5f60208284031215611fde57611fdd611e91565b5b5f611feb84828501611eb8565b91505092915050565b611ffd81611e99565b82525050565b5f81519050919050565b5f82825260208201905092915050565b8281835e5f83830152505050565b5f601f19601f8301169050919050565b5f61204582612003565b61204f818561200d565b935061205f81856020860161201d565b6120688161202b565b840191505092915050565b5f81519050919050565b5f82825260208201905092915050565b5f819050602082019050919050565b5f6120a7838361203b565b905092915050565b5f602082019050919050565b5f6120c582612073565b6120cf818561207d565b9350836020820285016120e18561208d565b805f5b8581101561211c57848403895281516120fd858261209c565b9450612108836120af565b925060208a019950506001810190506120e4565b50829750879550505050505092915050565b5f60e083015f8301516121435f860182611ff4565b506020830151848203602086015261215b828261203b565b91505060408301518482036040860152612175828261203b565b915050606083015161218a6060860182611ff4565b50608083015184820360808601526121a282826120bb565b91505060a08301516121b760a0860182611ff4565b5060c08301516121ca60c0860182611ff4565b508091505092915050565b5f6020820190508181035f8301526121ed818461212e565b905092915050565b7f4e487b71000000000000000000000000000000000000000000000000000000005f52602160045260245ffd5b60038110612233576122326121f5565b5b50565b5f81905061224382612222565b919050565b5f61225282612236565b9050919050565b61226281612248565b82525050565b5f60208201905061227b5f830184612259565b92915050565b5f5f6040838503121561229757612296611e91565b5b5f6122a485828601611eb8565b92505060206122b585828601611eb8565b9150509250929050565b5f5ffd5b7f4e487b71000000000000000000000000000000000000000000000000000000005f52604160045260245ffd5b6122f98261202b565b810181811067ffffffffffffffff82111715612318576123176122c3565b5b80604052505050565b5f61232a611e88565b905061233682826122f0565b919050565b5f67ffffffffffffffff821115612355576123546122c3565b5b602082029050602081019050919050565b5f5ffd5b5f5ffd5b5f5ffd5b5f5ffd5b5f67ffffffffffffffff8211156123905761238f6122c3565b5b6123998261202b565b9050602081019050919050565b828183375f83830152505050565b5f6123c66123c184612376565b612321565b9050828152602081018484840111156123e2576123e1612372565b5b6123ed8482856123a6565b509392505050565b5f82601f830112612409576124086122bf565b5b81356124198482602086016123b4565b91505092915050565b5f606082840312156124375761243661236a565b5b6124416060612321565b90505f82013567ffffffffffffffff8111156124605761245f61236e565b5b61246c848285016123f5565b5f83015250602061247f84828501611eb8565b602083015250604061249384828501611eb8565b60408301525092915050565b5f6124b16124ac8461233b565b612321565b905080838252602082019050602084028301858111156124d4576124d3612366565b5b835b8181101561251b57803567ffffffffffffffff8111156124f9576124f86122bf565b5b8086016125068982612422565b855260208501945050506020810190506124d6565b5050509392505050565b5f82601f830112612539576125386122bf565b5b813561254984826020860161249f565b91505092915050565b5f5f6040838503121561256857612567611e91565b5b5f61257585828601611eb8565b925050602083013567ffffffffffffffff81111561259657612595611e95565b5b6125a285828601612525565b9150509250929050565b5f67ffffffffffffffff8211156125c6576125c56122c3565b5b602082029050602081019050919050565b5f6125e96125e4846125ac565b612321565b9050808382526020820190506020840283018581111561260c5761260b612366565b5b835b8181101561265357803567ffffffffffffffff811115612631576126306122bf565b5b80860161263e89826123f5565b8552602085019450505060208101905061260e565b5050509392505050565b5f82601f830112612671576126706122bf565b5b81356126818482602086016125d7565b91505092915050565b5f5f5f5f5f60a086880312156126a3576126a2611e91565b5b5f6126b088828901611eb8565b955050602086013567ffffffffffffffff8111156126d1576126d0611e95565b5b6126dd888289016123f5565b945050604086013567ffffffffffffffff8111156126fe576126fd611e95565b5b61270a888289016123f5565b935050606061271b88828901611eb8565b925050608086013567ffffffffffffffff81111561273c5761273b611e95565b5b6127488882890161265d565b9150509295509295909350565b61275e81611f3b565b82525050565b5f6020820190506127775f830184612755565b92915050565b5f81519050919050565b5f82825260208201905092915050565b5f819050602082019050919050565b5f608083015f8301516127bb5f860182611ff4565b50602083015184820360208601526127d3828261203b565b91505060408301516127e86040860182611ff4565b5060608301516127fb6060860182611ff4565b508091505092915050565b5f61281183836127a6565b905092915050565b5f602082019050919050565b5f61282f8261277d565b6128398185612787565b93508360208202850161284b85612797565b805f5b8581101561288657848403895281516128678582612806565b945061287283612819565b925060208a0199505060018101905061284e565b50829750879550505050505092915050565b5f6020820190508181035f8301526128b08184612825565b905092915050565b5f5f5f5f5f5f60c087890312156128d2576128d1611e91565b5b5f6128df89828a01611eb8565b965050602087013567ffffffffffffffff811115612900576128ff611e95565b5b61290c89828a016123f5565b955050604087013567ffffffffffffffff81111561292d5761292c611e95565b5b61293989828a016123f5565b945050606061294a89828a01611eb8565b935050608087013567ffffffffffffffff81111561296b5761296a611e95565b5b61297789828a0161265d565b92505060a087013567ffffffffffffffff81111561299857612997611e95565b5b6129a489828a01612525565b9150509295509295509295565b5f81519050919050565b5f82825260208201905092915050565b5f819050602082019050919050565b5f60e083015f8301516129ef5f860182611ff4565b5060208301518482036020860152612a07828261203b565b91505060408301518482036040860152612a21828261203b565b9150506060830151612a366060860182611ff4565b5060808301518482036080860152612a4e82826120bb565b91505060a0830151612a6360a0860182611ff4565b5060c0830151612a7660c0860182611ff4565b508091505092915050565b5f82825260208201905092915050565b5f612a9b8261277d565b612aa58185612a81565b935083602082028501612ab785612797565b805f5b85811015612af25784840389528151612ad38582612806565b9450612ade83612819565b925060208a01995050600181019050612aba565b50829750879550505050505092915050565b5f604083015f8301518482035f860152612b1e82826129da565b91505060208301518482036020860152612b388282612a91565b9150508091505092915050565b5f612b508383612b04565b905092915050565b5f602082019050919050565b5f612b6e826129b1565b612b7881856129bb565b935083602082028501612b8a856129cb565b805f5b85811015612bc55784840389528151612ba68582612b45565b9450612bb183612b58565b925060208a01995050600181019050612b8d565b50829750879550505050505092915050565b5f6020820190508181035f830152612bef8184612b64565b905092915050565b5f5f5f60608486031215612c0e57612c0d611e91565b5b5f612c1b86828701611eb8565b9350506020612c2c86828701611eb8565b925050604084013567ffffffffffffffff811115612c4d57612c4c611e95565b5b612c5986828701612422565b9150509250925092565b5f819050919050565b5f612c86612c81612c7c84611f1c565b612c63565b611f1c565b9050919050565b5f612c9782612c6c565b9050919050565b5f612ca882612c8d565b9050919050565b612cb881612c9e565b82525050565b5f602082019050612cd15f830184612caf565b92915050565b7f4e487b71000000000000000000000000000000000000000000000000000000005f52603260045260245ffd5b7f4e487b71000000000000000000000000000000000000000000000000000000005f52601160045260245ffd5b5f612d3b82611e99565b9150612d4683611e99565b9250828201905080821115612d5e57612d5d612d04565b5b92915050565b5f82825260208201905092915050565b7f466f6f6420646f6573206e6f74206578697374000000000000000000000000005f82015250565b5f612da8601383612d64565b9150612db382612d74565b602082019050919050565b5f6020820190508181035f830152612dd581612d9c565b9050919050565b7f4e487b71000000000000000000000000000000000000000000000000000000005f52602260045260245ffd5b5f6002820490506001821680612e2057607f821691505b602082108103612e3357612e32612ddc565b5b50919050565b5f612e4382611e99565b9150612e4e83611e99565b9250828203905081811115612e6657612e65612d04565b5b92915050565b5f819050815f5260205f209050919050565b5f6020601f8301049050919050565b5f82821b905092915050565b5f60088302612ec87fffffffffffffffffffffffffffffffffffffffffffffffffffffffffffffffff82612e8d565b612ed28683612e8d565b95508019841693508086168417925050509392505050565b5f612f04612eff612efa84611e99565b612c63565b611e99565b9050919050565b5f819050919050565b612f1d83612eea565b612f31612f2982612f0b565b848454612e99565b825550505050565b5f5f905090565b612f48612f39565b612f53818484612f14565b505050565b5b81811015612f7657612f6b5f82612f40565b600181019050612f59565b5050565b601f821115612fbb57612f8c81612e6c565b612f9584612e7e565b81016020851015612fa4578190505b612fb8612fb085612e7e565b830182612f58565b50505b505050565b5f82821c905092915050565b5f612fdb5f1984600802612fc0565b1980831691505092915050565b5f612ff38383612fcc565b9150826002028217905092915050565b61300c82612003565b67ffffffffffffffff811115613025576130246122c3565b5b61302f8254612e09565b61303a828285612f7a565b5f60209050601f83116001811461306b575f8415613059578287015190505b6130638582612fe8565b8655506130ca565b601f19841661307986612e6c565b5f5b828110156130a05784890151825560018201915060208501945060208101905061307b565b868310156130bd57848901516130b9601f891682612fcc565b8355505b6001600288020188555050505b505050505050565b7f4e487b71000000000000000000000000000000000000000000000000000000005f52603160045260245ffd5b5f6040820190506131125f830185611fa1565b61311f6020830184611fa1565b9392505050565b7f466f6f6444657461696c20646f6573206e6f74206578697374000000000000005f82015250565b5f61315a601983612d64565b915061316582613126565b602082019050919050565b5f6020820190508181035f8301526131878161314e565b9050919050565b5f61319882611e99565b91507fffffffffffffffffffffffffffffffffffffffffffffffffffffffffffffffff82036131ca576131c9612d04565b5b600182019050919050565b5f815190506131e381611ea2565b92915050565b5f6131fb6131f684612376565b612321565b90508281526020810184848401111561321757613216612372565b5b61322284828561201d565b509392505050565b5f82601f83011261323e5761323d6122bf565b5b815161324e8482602086016131e9565b91505092915050565b5f6040828403121561326c5761326b61236a565b5b6132766040612321565b90505f613285848285016131d5565b5f83015250602082015167ffffffffffffffff8111156132a8576132a761236e565b5b6132b48482850161322a565b60208301525092915050565b5f602082840312156132d5576132d4611e91565b5b5f82015167ffffffffffffffff8111156132f2576132f1611e95565b5b6132fe84828501613257565b91505092915050565b7f43617465676f727920646f6573206e6f742065786973740000000000000000005f82015250565b5f61333b601783612d64565b915061334682613307565b602082019050919050565b5f6020820190508181035f8301526133688161332f565b9050919050565b5f61337982612003565b6133838185612d64565b935061339381856020860161201d565b61339c8161202b565b840191505092915050565b5f82825260208201905092915050565b5f6133c182612073565b6133cb81856133a7565b9350836020820285016133dd8561208d565b805f5b8581101561341857848403895281516133f9858261209c565b9450613404836120af565b925060208a019950506001810190506133e0565b50829750879550505050505092915050565b5f60a08201905061343d5f830188611fa1565b818103602083015261344f818761336f565b90508181036040830152613463818661336f565b90506134726060830185611fa1565b818103608083015261348481846133b7565b90509695505050505050565b7f5175616e74697479277320666f6f642063616e6e6f7420626520736d616c6c655f8201527f72207468616e2030000000000000000000000000000000000000000000000000602082015250565b5f6134ea602883612d64565b91506134f582613490565b604082019050919050565b5f6020820190508181035f830152613517816134de565b9050919050565b7f466f6f642077697468207468697320494420616c7265616479206578697374735f82015250565b5f613552602083612d64565b915061355d8261351e565b602082019050919050565b5f6020820190508181035f83015261357f81613546565b905091905056fea26469706673582212209156f68b39ee5339171873e2235f23dcacbfe86bcc8a68d7519bab5d0cb03bcf64736f6c634300081e0033",
					"opcodes": "PUSH1 0x80 PUSH1 0x40 MSTORE PUSH1 0x1 PUSH1 0x3 SSTORE PUSH1 0x1 PUSH1 0x4 SSTORE CALLVALUE DUP1 ISZERO PUSH2 0x19 JUMPI PUSH0 PUSH0 REVERT JUMPDEST POP PUSH1 0x40 MLOAD PUSH2 0x3712 CODESIZE SUB DUP1 PUSH2 0x3712 DUP4 CODECOPY DUP2 DUP2 ADD PUSH1 0x40 MSTORE DUP2 ADD SWAP1 PUSH2 0x3B SWAP2 SWAP1 PUSH2 0x11E JUMP JUMPDEST CALLER PUSH0 PUSH0 PUSH2 0x100 EXP DUP2 SLOAD DUP2 PUSH20 0xFFFFFFFFFFFFFFFFFFFFFFFFFFFFFFFFFFFFFFFF MUL NOT AND SWAP1 DUP4 PUSH20 0xFFFFFFFFFFFFFFFFFFFFFFFFFFFFFFFFFFFFFFFF AND MUL OR SWAP1 SSTORE POP DUP1 PUSH1 0x2 PUSH0 PUSH2 0x100 EXP DUP2 SLOAD DUP2 PUSH20 0xFFFFFFFFFFFFFFFFFFFFFFFFFFFFFFFFFFFFFFFF MUL NOT AND SWAP1 DUP4 PUSH20 0xFFFFFFFFFFFFFFFFFFFFFFFFFFFFFFFFFFFFFFFF AND MUL OR SWAP1 SSTORE POP POP PUSH2 0x149 JUMP JUMPDEST PUSH0 PUSH0 REVERT JUMPDEST PUSH0 PUSH20 0xFFFFFFFFFFFFFFFFFFFFFFFFFFFFFFFFFFFFFFFF DUP3 AND SWAP1 POP SWAP2 SWAP1 POP JUMP JUMPDEST PUSH0 PUSH2 0xED DUP3 PUSH2 0xC4 JUMP JUMPDEST SWAP1 POP SWAP2 SWAP1 POP JUMP JUMPDEST PUSH2 0xFD DUP2 PUSH2 0xE3 JUMP JUMPDEST DUP2 EQ PUSH2 0x107 JUMPI PUSH0 PUSH0 REVERT JUMPDEST POP JUMP JUMPDEST PUSH0 DUP2 MLOAD SWAP1 POP PUSH2 0x118 DUP2 PUSH2 0xF4 JUMP JUMPDEST SWAP3 SWAP2 POP POP JUMP JUMPDEST PUSH0 PUSH1 0x20 DUP3 DUP5 SUB SLT ISZERO PUSH2 0x133 JUMPI PUSH2 0x132 PUSH2 0xC0 JUMP JUMPDEST JUMPDEST PUSH0 PUSH2 0x140 DUP5 DUP3 DUP6 ADD PUSH2 0x10A JUMP JUMPDEST SWAP2 POP POP SWAP3 SWAP2 POP POP JUMP JUMPDEST PUSH2 0x35BC DUP1 PUSH2 0x156 PUSH0 CODECOPY PUSH0 RETURN INVALID PUSH1 0x80 PUSH1 0x40 MSTORE CALLVALUE DUP1 ISZERO PUSH2 0xF JUMPI PUSH0 PUSH0 REVERT JUMPDEST POP PUSH1 0x4 CALLDATASIZE LT PUSH2 0x114 JUMPI PUSH0 CALLDATALOAD PUSH1 0xE0 SHR DUP1 PUSH4 0x70480275 GT PUSH2 0xA0 JUMPI DUP1 PUSH4 0xB447AAAE GT PUSH2 0x6F JUMPI DUP1 PUSH4 0xB447AAAE EQ PUSH2 0x2C6 JUMPI DUP1 PUSH4 0xB9B5AAE6 EQ PUSH2 0x2E2 JUMPI DUP1 PUSH4 0xBAF85306 EQ PUSH2 0x300 JUMPI DUP1 PUSH4 0xD198B650 EQ PUSH2 0x31C JUMPI DUP1 PUSH4 0xD86EC238 EQ PUSH2 0x338 JUMPI PUSH2 0x114 JUMP JUMPDEST DUP1 PUSH4 0x70480275 EQ PUSH2 0x240 JUMPI DUP1 PUSH4 0x893D20E8 EQ PUSH2 0x25C JUMPI DUP1 PUSH4 0x9A69BFA6 EQ PUSH2 0x27A JUMPI DUP1 PUSH4 0xAF5607F9 EQ PUSH2 0x296 JUMPI PUSH2 0x114 JUMP JUMPDEST DUP1 PUSH4 0x1E4DE872 GT PUSH2 0xE7 JUMPI DUP1 PUSH4 0x1E4DE872 EQ PUSH2 0x18C JUMPI DUP1 PUSH4 0x24D7806C EQ PUSH2 0x1BC JUMPI DUP1 PUSH4 0x4D30A39B EQ PUSH2 0x1EC JUMPI DUP1 PUSH4 0x64F77471 EQ PUSH2 0x208 JUMPI DUP1 PUSH4 0x6DD2DD88 EQ PUSH2 0x224 JUMPI PUSH2 0x114 JUMP JUMPDEST DUP1 PUSH4 0x94B9A53 EQ PUSH2 0x118 JUMPI DUP1 PUSH4 0x1785F53C EQ PUSH2 0x134 JUMPI DUP1 PUSH4 0x1945EF58 EQ PUSH2 0x150 JUMPI DUP1 PUSH4 0x1B0D77CC EQ PUSH2 0x16E JUMPI JUMPDEST PUSH0 PUSH0 REVERT JUMPDEST PUSH2 0x132 PUSH1 0x4 DUP1 CALLDATASIZE SUB DUP2 ADD SWAP1 PUSH2 0x12D SWAP2 SWAP1 PUSH2 0x1ECC JUMP JUMPDEST PUSH2 0x356 JUMP JUMPDEST STOP JUMPDEST PUSH2 0x14E PUSH1 0x4 DUP1 CALLDATASIZE SUB DUP2 ADD SWAP1 PUSH2 0x149 SWAP2 SWAP1 PUSH2 0x1F76 JUMP JUMPDEST PUSH2 0x40F JUMP JUMPDEST STOP JUMPDEST PUSH2 0x158 PUSH2 0x476 JUMP JUMPDEST PUSH1 0x40 MLOAD PUSH2 0x165 SWAP2 SWAP1 PUSH2 0x1FB0 JUMP JUMPDEST PUSH1 0x40 MLOAD DUP1 SWAP2 SUB SWAP1 RETURN JUMPDEST PUSH2 0x176 PUSH2 0x47C JUMP JUMPDEST PUSH1 0x40 MLOAD PUSH2 0x183 SWAP2 SWAP1 PUSH2 0x1FB0 JUMP JUMPDEST PUSH1 0x40 MLOAD DUP1 SWAP2 SUB SWAP1 RETURN JUMPDEST PUSH2 0x1A6 PUSH1 0x4 DUP1 CALLDATASIZE SUB DUP2 ADD SWAP1 PUSH2 0x1A1 SWAP2 SWAP1 PUSH2 0x1FC9 JUMP JUMPDEST PUSH2 0x482 JUMP JUMPDEST PUSH1 0x40 MLOAD PUSH2 0x1B3 SWAP2 SWAP1 PUSH2 0x21D5 JUMP JUMPDEST PUSH1 0x40 MLOAD DUP1 SWAP2 SUB SWAP1 RETURN JUMPDEST PUSH2 0x1D6 PUSH1 0x4 DUP1 CALLDATASIZE SUB DUP2 ADD SWAP1 PUSH2 0x1D1 SWAP2 SWAP1 PUSH2 0x1F76 JUMP JUMPDEST PUSH2 0x71D JUMP JUMPDEST PUSH1 0x40 MLOAD PUSH2 0x1E3 SWAP2 SWAP1 PUSH2 0x2268 JUMP JUMPDEST PUSH1 0x40 MLOAD DUP1 SWAP2 SUB SWAP1 RETURN JUMPDEST PUSH2 0x206 PUSH1 0x4 DUP1 CALLDATASIZE SUB DUP2 ADD SWAP1 PUSH2 0x201 SWAP2 SWAP1 PUSH2 0x2281 JUMP JUMPDEST PUSH2 0x73A JUMP JUMPDEST STOP JUMPDEST PUSH2 0x222 PUSH1 0x4 DUP1 CALLDATASIZE SUB DUP2 ADD SWAP1 PUSH2 0x21D SWAP2 SWAP1 PUSH2 0x2552 JUMP JUMPDEST PUSH2 0xA3D JUMP JUMPDEST STOP JUMPDEST PUSH2 0x23E PUSH1 0x4 DUP1 CALLDATASIZE SUB DUP2 ADD SWAP1 PUSH2 0x239 SWAP2 SWAP1 PUSH2 0x268A JUMP JUMPDEST PUSH2 0xBEC JUMP JUMPDEST STOP JUMPDEST PUSH2 0x25A PUSH1 0x4 DUP1 CALLDATASIZE SUB DUP2 ADD SWAP1 PUSH2 0x255 SWAP2 SWAP1 PUSH2 0x1F76 JUMP JUMPDEST PUSH2 0xDED JUMP JUMPDEST STOP JUMPDEST PUSH2 0x264 PUSH2 0xE54 JUMP JUMPDEST PUSH1 0x40 MLOAD PUSH2 0x271 SWAP2 SWAP1 PUSH2 0x2764 JUMP JUMPDEST PUSH1 0x40 MLOAD DUP1 SWAP2 SUB SWAP1 RETURN JUMPDEST PUSH2 0x294 PUSH1 0x4 DUP1 CALLDATASIZE SUB DUP2 ADD SWAP1 PUSH2 0x28F SWAP2 SWAP1 PUSH2 0x1ECC JUMP JUMPDEST PUSH2 0xE7B JUMP JUMPDEST STOP JUMPDEST PUSH2 0x2B0 PUSH1 0x4 DUP1 CALLDATASIZE SUB DUP2 ADD SWAP1 PUSH2 0x2AB SWAP2 SWAP1 PUSH2 0x1FC9 JUMP JUMPDEST PUSH2 0xFA8 JUMP JUMPDEST PUSH1 0x40 MLOAD PUSH2 0x2BD SWAP2 SWAP1 PUSH2 0x2898 JUMP JUMPDEST PUSH1 0x40 MLOAD DUP1 SWAP2 SUB SWAP1 RETURN JUMPDEST PUSH2 0x2E0 PUSH1 0x4 DUP1 CALLDATASIZE SUB DUP2 ADD SWAP1 PUSH2 0x2DB SWAP2 SWAP1 PUSH2 0x28B8 JUMP JUMPDEST PUSH2 0x1117 JUMP JUMPDEST STOP JUMPDEST PUSH2 0x2EA PUSH2 0x1518 JUMP JUMPDEST PUSH1 0x40 MLOAD PUSH2 0x2F7 SWAP2 SWAP1 PUSH2 0x2BD7 JUMP JUMPDEST PUSH1 0x40 MLOAD DUP1 SWAP2 SUB SWAP1 RETURN JUMPDEST PUSH2 0x31A PUSH1 0x4 DUP1 CALLDATASIZE SUB DUP2 ADD SWAP1 PUSH2 0x315 SWAP2 SWAP1 PUSH2 0x2BF7 JUMP JUMPDEST PUSH2 0x1937 JUMP JUMPDEST STOP JUMPDEST PUSH2 0x336 PUSH1 0x4 DUP1 CALLDATASIZE SUB DUP2 ADD SWAP1 PUSH2 0x331 SWAP2 SWAP1 PUSH2 0x1FC9 JUMP JUMPDEST PUSH2 0x1AFD JUMP JUMPDEST STOP JUMPDEST PUSH2 0x340 PUSH2 0x1CBF JUMP JUMPDEST PUSH1 0x40 MLOAD PUSH2 0x34D SWAP2 SWAP1 PUSH2 0x2CBE JUMP JUMPDEST PUSH1 0x40 MLOAD DUP1 SWAP2 SUB SWAP1 RETURN JUMPDEST PUSH0 PUSH0 SWAP1 POP JUMPDEST PUSH1 0x6 PUSH0 DUP6 DUP2 MSTORE PUSH1 0x20 ADD SWAP1 DUP2 MSTORE PUSH1 0x20 ADD PUSH0 KECCAK256 DUP1 SLOAD SWAP1 POP DUP2 LT ISZERO PUSH2 0x409 JUMPI DUP3 PUSH1 0x6 PUSH0 DUP7 DUP2 MSTORE PUSH1 0x20 ADD SWAP1 DUP2 MSTORE PUSH1 0x20 ADD PUSH0 KECCAK256 DUP3 DUP2 SLOAD DUP2 LT PUSH2 0x39B JUMPI PUSH2 0x39A PUSH2 0x2CD7 JUMP JUMPDEST JUMPDEST SWAP1 PUSH0 MSTORE PUSH1 0x20 PUSH0 KECCAK256 SWAP1 PUSH1 0x4 MUL ADD PUSH0 ADD SLOAD SUB PUSH2 0x3FC JUMPI DUP2 PUSH1 0x6 PUSH0 DUP7 DUP2 MSTORE PUSH1 0x20 ADD SWAP1 DUP2 MSTORE PUSH1 0x20 ADD PUSH0 KECCAK256 DUP3 DUP2 SLOAD DUP2 LT PUSH2 0x3D3 JUMPI PUSH2 0x3D2 PUSH2 0x2CD7 JUMP JUMPDEST JUMPDEST SWAP1 PUSH0 MSTORE PUSH1 0x20 PUSH0 KECCAK256 SWAP1 PUSH1 0x4 MUL ADD PUSH1 0x2 ADD PUSH0 DUP3 DUP3 SLOAD PUSH2 0x3F0 SWAP2 SWAP1 PUSH2 0x2D31 JUMP JUMPDEST SWAP3 POP POP DUP2 SWAP1 SSTORE POP PUSH2 0x409 JUMP JUMPDEST DUP1 DUP1 PUSH1 0x1 ADD SWAP2 POP POP PUSH2 0x35B JUMP JUMPDEST POP POP POP POP JUMP JUMPDEST PUSH0 PUSH1 0x1 PUSH0 DUP4 PUSH20 0xFFFFFFFFFFFFFFFFFFFFFFFFFFFFFFFFFFFFFFFF AND PUSH20 0xFFFFFFFFFFFFFFFFFFFFFFFFFFFFFFFFFFFFFFFF AND DUP2 MSTORE PUSH1 0x20 ADD SWAP1 DUP2 MSTORE PUSH1 0x20 ADD PUSH0 KECCAK256 PUSH0 PUSH2 0x100 EXP DUP2 SLOAD DUP2 PUSH1 0xFF MUL NOT AND SWAP1 DUP4 PUSH1 0x2 DUP2 GT ISZERO PUSH2 0x46E JUMPI PUSH2 0x46D PUSH2 0x21F5 JUMP JUMPDEST JUMPDEST MUL OR SWAP1 SSTORE POP POP JUMP JUMPDEST PUSH1 0x3 SLOAD DUP2 JUMP JUMPDEST PUSH1 0x4 SLOAD DUP2 JUMP JUMPDEST PUSH2 0x48A PUSH2 0x1CE4 JUMP JUMPDEST PUSH0 PUSH1 0x5 PUSH0 DUP5 DUP2 MSTORE PUSH1 0x20 ADD SWAP1 DUP2 MSTORE PUSH1 0x20 ADD PUSH0 KECCAK256 PUSH0 ADD SLOAD SUB PUSH2 0x4DF JUMPI PUSH1 0x40 MLOAD PUSH32 0x8C379A000000000000000000000000000000000000000000000000000000000 DUP2 MSTORE PUSH1 0x4 ADD PUSH2 0x4D6 SWAP1 PUSH2 0x2DBE JUMP JUMPDEST PUSH1 0x40 MLOAD DUP1 SWAP2 SUB SWAP1 REVERT JUMPDEST PUSH1 0x5 PUSH0 DUP4 DUP2 MSTORE PUSH1 0x20 ADD SWAP1 DUP2 MSTORE PUSH1 0x20 ADD PUSH0 KECCAK256 PUSH1 0x40 MLOAD DUP1 PUSH1 0xE0 ADD PUSH1 0x40 MSTORE SWAP1 DUP2 PUSH0 DUP3 ADD SLOAD DUP2 MSTORE PUSH1 0x20 ADD PUSH1 0x1 DUP3 ADD DUP1 SLOAD PUSH2 0x514 SWAP1 PUSH2 0x2E09 JUMP JUMPDEST DUP1 PUSH1 0x1F ADD PUSH1 0x20 DUP1 SWAP2 DIV MUL PUSH1 0x20 ADD PUSH1 0x40 MLOAD SWAP1 DUP2 ADD PUSH1 0x40 MSTORE DUP1 SWAP3 SWAP2 SWAP1 DUP2 DUP2 MSTORE PUSH1 0x20 ADD DUP3 DUP1 SLOAD PUSH2 0x540 SWAP1 PUSH2 0x2E09 JUMP JUMPDEST DUP1 ISZERO PUSH2 0x58B JUMPI DUP1 PUSH1 0x1F LT PUSH2 0x562 JUMPI PUSH2 0x100 DUP1 DUP4 SLOAD DIV MUL DUP4 MSTORE SWAP2 PUSH1 0x20 ADD SWAP2 PUSH2 0x58B JUMP JUMPDEST DUP3 ADD SWAP2 SWAP1 PUSH0 MSTORE PUSH1 0x20 PUSH0 KECCAK256 SWAP1 JUMPDEST DUP2 SLOAD DUP2 MSTORE SWAP1 PUSH1 0x1 ADD SWAP1 PUSH1 0x20 ADD DUP1 DUP4 GT PUSH2 0x56E JUMPI DUP3 SWAP1 SUB PUSH1 0x1F AND DUP3 ADD SWAP2 JUMPDEST POP POP POP POP POP DUP2 MSTORE PUSH1 0x20 ADD PUSH1 0x2 DUP3 ADD DUP1 SLOAD PUSH2 0x5A4 SWAP1 PUSH2 0x2E09 JUMP JUMPDEST DUP1 PUSH1 0x1F ADD PUSH1 0x20 DUP1 SWAP2 DIV MUL PUSH1 0x20 ADD PUSH1 0x40 MLOAD SWAP1 DUP2 ADD PUSH1 0x40 MSTORE DUP1 SWAP3 SWAP2 SWAP1 DUP2 DUP2 MSTORE PUSH1 0x20 ADD DUP3 DUP1 SLOAD PUSH2 0x5D0 SWAP1 PUSH2 0x2E09 JUMP JUMPDEST DUP1 ISZERO PUSH2 0x61B JUMPI DUP1 PUSH1 0x1F LT PUSH2 0x5F2 JUMPI PUSH2 0x100 DUP1 DUP4 SLOAD DIV MUL DUP4 MSTORE SWAP2 PUSH1 0x20 ADD SWAP2 PUSH2 0x61B JUMP JUMPDEST DUP3 ADD SWAP2 SWAP1 PUSH0 MSTORE PUSH1 0x20 PUSH0 KECCAK256 SWAP1 JUMPDEST DUP2 SLOAD DUP2 MSTORE SWAP1 PUSH1 0x1 ADD SWAP1 PUSH1 0x20 ADD DUP1 DUP4 GT PUSH2 0x5FE JUMPI DUP3 SWAP1 SUB PUSH1 0x1F AND DUP3 ADD SWAP2 JUMPDEST POP POP POP POP POP DUP2 MSTORE PUSH1 0x20 ADD PUSH1 0x3 DUP3 ADD SLOAD DUP2 MSTORE PUSH1 0x20 ADD PUSH1 0x4 DUP3 ADD DUP1 SLOAD DUP1 PUSH1 0x20 MUL PUSH1 0x20 ADD PUSH1 0x40 MLOAD SWAP1 DUP2 ADD PUSH1 0x40 MSTORE DUP1 SWAP3 SWAP2 SWAP1 DUP2 DUP2 MSTORE PUSH1 0x20 ADD PUSH0 SWAP1 JUMPDEST DUP3 DUP3 LT ISZERO PUSH2 0x6FA JUMPI DUP4 DUP3 SWAP1 PUSH0 MSTORE PUSH1 0x20 PUSH0 KECCAK256 ADD DUP1 SLOAD PUSH2 0x66F SWAP1 PUSH2 0x2E09 JUMP JUMPDEST DUP1 PUSH1 0x1F ADD PUSH1 0x20 DUP1 SWAP2 DIV MUL PUSH1 0x20 ADD PUSH1 0x40 MLOAD SWAP1 DUP2 ADD PUSH1 0x40 MSTORE DUP1 SWAP3 SWAP2 SWAP1 DUP2 DUP2 MSTORE PUSH1 0x20 ADD DUP3 DUP1 SLOAD PUSH2 0x69B SWAP1 PUSH2 0x2E09 JUMP JUMPDEST DUP1 ISZERO PUSH2 0x6E6 JUMPI DUP1 PUSH1 0x1F LT PUSH2 0x6BD JUMPI PUSH2 0x100 DUP1 DUP4 SLOAD DIV MUL DUP4 MSTORE SWAP2 PUSH1 0x20 ADD SWAP2 PUSH2 0x6E6 JUMP JUMPDEST DUP3 ADD SWAP2 SWAP1 PUSH0 MSTORE PUSH1 0x20 PUSH0 KECCAK256 SWAP1 JUMPDEST DUP2 SLOAD DUP2 MSTORE SWAP1 PUSH1 0x1 ADD SWAP1 PUSH1 0x20 ADD DUP1 DUP4 GT PUSH2 0x6C9 JUMPI DUP3 SWAP1 SUB PUSH1 0x1F AND DUP3 ADD SWAP2 JUMPDEST POP POP POP POP POP DUP2 MSTORE PUSH1 0x20 ADD SWAP1 PUSH1 0x1 ADD SWAP1 PUSH2 0x652 JUMP JUMPDEST POP POP POP POP DUP2 MSTORE PUSH1 0x20 ADD PUSH1 0x5 DUP3 ADD SLOAD DUP2 MSTORE PUSH1 0x20 ADD PUSH1 0x6 DUP3 ADD SLOAD DUP2 MSTORE POP POP SWAP1 POP SWAP2 SWAP1 POP JUMP JUMPDEST PUSH1 0x1 PUSH1 0x20 MSTORE DUP1 PUSH0 MSTORE PUSH1 0x40 PUSH0 KECCAK256 PUSH0 SWAP2 POP SLOAD SWAP1 PUSH2 0x100 EXP SWAP1 DIV PUSH1 0xFF AND DUP2 JUMP JUMPDEST PUSH0 PUSH1 0x5 PUSH0 DUP5 DUP2 MSTORE PUSH1 0x20 ADD SWAP1 DUP2 MSTORE PUSH1 0x20 ADD PUSH0 KECCAK256 PUSH0 ADD SLOAD SUB PUSH2 0x78F JUMPI PUSH1 0x40 MLOAD PUSH32 0x8C379A000000000000000000000000000000000000000000000000000000000 DUP2 MSTORE PUSH1 0x4 ADD PUSH2 0x786 SWAP1 PUSH2 0x2DBE JUMP JUMPDEST PUSH1 0x40 MLOAD DUP1 SWAP2 SUB SWAP1 REVERT JUMPDEST PUSH0 PUSH1 0x6 PUSH0 DUP5 DUP2 MSTORE PUSH1 0x20 ADD SWAP1 DUP2 MSTORE PUSH1 0x20 ADD PUSH0 KECCAK256 SWAP1 POP PUSH0 PUSH0 SWAP1 POP PUSH0 PUSH0 SWAP1 POP JUMPDEST DUP3 DUP1 SLOAD SWAP1 POP DUP2 LT ISZERO PUSH2 0x9F6 JUMPI DUP4 DUP4 DUP3 DUP2 SLOAD DUP2 LT PUSH2 0x7CC JUMPI PUSH2 0x7CB PUSH2 0x2CD7 JUMP JUMPDEST JUMPDEST SWAP1 PUSH0 MSTORE PUSH1 0x20 PUSH0 KECCAK256 SWAP1 PUSH1 0x4 MUL ADD PUSH0 ADD SLOAD SUB PUSH2 0x9E9 JUMPI PUSH1 0x1 DUP4 DUP1 SLOAD SWAP1 POP GT PUSH2 0x820 JUMPI PUSH1 0x40 MLOAD DUP1 PUSH1 0x80 ADD PUSH1 0x40 MSTORE DUP1 PUSH0 DUP2 MSTORE PUSH1 0x20 ADD PUSH1 0x40 MLOAD DUP1 PUSH1 0x20 ADD PUSH1 0x40 MSTORE DUP1 PUSH0 DUP2 MSTORE POP DUP2 MSTORE PUSH1 0x20 ADD PUSH0 DUP2 MSTORE PUSH1 0x20 ADD PUSH0 DUP2 MSTORE POP PUSH2 0x908 JUMP JUMPDEST DUP3 PUSH1 0x1 DUP5 DUP1 SLOAD SWAP1 POP PUSH2 0x832 SWAP2 SWAP1 PUSH2 0x2E39 JUMP JUMPDEST DUP2 SLOAD DUP2 LT PUSH2 0x843 JUMPI PUSH2 0x842 PUSH2 0x2CD7 JUMP JUMPDEST JUMPDEST SWAP1 PUSH0 MSTORE PUSH1 0x20 PUSH0 KECCAK256 SWAP1 PUSH1 0x4 MUL ADD PUSH1 0x40 MLOAD DUP1 PUSH1 0x80 ADD PUSH1 0x40 MSTORE SWAP1 DUP2 PUSH0 DUP3 ADD SLOAD DUP2 MSTORE PUSH1 0x20 ADD PUSH1 0x1 DUP3 ADD DUP1 SLOAD PUSH2 0x873 SWAP1 PUSH2 0x2E09 JUMP JUMPDEST DUP1 PUSH1 0x1F ADD PUSH1 0x20 DUP1 SWAP2 DIV MUL PUSH1 0x20 ADD PUSH1 0x40 MLOAD SWAP1 DUP2 ADD PUSH1 0x40 MSTORE DUP1 SWAP3 SWAP2 SWAP1 DUP2 DUP2 MSTORE PUSH1 0x20 ADD DUP3 DUP1 SLOAD PUSH2 0x89F SWAP1 PUSH2 0x2E09 JUMP JUMPDEST DUP1 ISZERO PUSH2 0x8EA JUMPI DUP1 PUSH1 0x1F LT PUSH2 0x8C1 JUMPI PUSH2 0x100 DUP1 DUP4 SLOAD DIV MUL DUP4 MSTORE SWAP2 PUSH1 0x20 ADD SWAP2 PUSH2 0x8EA JUMP JUMPDEST DUP3 ADD SWAP2 SWAP1 PUSH0 MSTORE PUSH1 0x20 PUSH0 KECCAK256 SWAP1 JUMPDEST DUP2 SLOAD DUP2 MSTORE SWAP1 PUSH1 0x1 ADD SWAP1 PUSH1 0x20 ADD DUP1 DUP4 GT PUSH2 0x8CD JUMPI DUP3 SWAP1 SUB PUSH1 0x1F AND DUP3 ADD SWAP2 JUMPDEST POP POP POP POP POP DUP2 MSTORE PUSH1 0x20 ADD PUSH1 0x2 DUP3 ADD SLOAD DUP2 MSTORE PUSH1 0x20 ADD PUSH1 0x3 DUP3 ADD SLOAD DUP2 MSTORE POP POP JUMPDEST DUP4 DUP3 DUP2 SLOAD DUP2 LT PUSH2 0x91B JUMPI PUSH2 0x91A PUSH2 0x2CD7 JUMP JUMPDEST JUMPDEST SWAP1 PUSH0 MSTORE PUSH1 0x20 PUSH0 KECCAK256 SWAP1 PUSH1 0x4 MUL ADD PUSH0 DUP3 ADD MLOAD DUP2 PUSH0 ADD SSTORE PUSH1 0x20 DUP3 ADD MLOAD DUP2 PUSH1 0x1 ADD SWAP1 DUP2 PUSH2 0x944 SWAP2 SWAP1 PUSH2 0x3003 JUMP JUMPDEST POP PUSH1 0x40 DUP3 ADD MLOAD DUP2 PUSH1 0x2 ADD SSTORE PUSH1 0x60 DUP3 ADD MLOAD DUP2 PUSH1 0x3 ADD SSTORE SWAP1 POP POP DUP3 DUP1 SLOAD DUP1 PUSH2 0x96D JUMPI PUSH2 0x96C PUSH2 0x30D2 JUMP JUMPDEST JUMPDEST PUSH1 0x1 SWAP1 SUB DUP2 DUP2 SWAP1 PUSH0 MSTORE PUSH1 0x20 PUSH0 KECCAK256 SWAP1 PUSH1 0x4 MUL ADD PUSH0 PUSH0 DUP3 ADD PUSH0 SWAP1 SSTORE PUSH1 0x1 DUP3 ADD PUSH0 PUSH2 0x995 SWAP2 SWAP1 PUSH2 0x1D1D JUMP JUMPDEST PUSH1 0x2 DUP3 ADD PUSH0 SWAP1 SSTORE PUSH1 0x3 DUP3 ADD PUSH0 SWAP1 SSTORE POP POP SWAP1 SSTORE PUSH1 0x1 SWAP2 POP PUSH32 0x55CAA6A55ACB7E3464DC13C54D94739E0F01B9141276CAEBB64F3EF500CD8900 DUP6 DUP6 PUSH1 0x40 MLOAD PUSH2 0x9DC SWAP3 SWAP2 SWAP1 PUSH2 0x30FF JUMP JUMPDEST PUSH1 0x40 MLOAD DUP1 SWAP2 SUB SWAP1 LOG1 PUSH2 0x9F6 JUMP JUMPDEST DUP1 DUP1 PUSH1 0x1 ADD SWAP2 POP POP PUSH2 0x7AC JUMP JUMPDEST POP DUP1 PUSH2 0xA37 JUMPI PUSH1 0x40 MLOAD PUSH32 0x8C379A000000000000000000000000000000000000000000000000000000000 DUP2 MSTORE PUSH1 0x4 ADD PUSH2 0xA2E SWAP1 PUSH2 0x3170 JUMP JUMPDEST PUSH1 0x40 MLOAD DUP1 SWAP2 SUB SWAP1 REVERT JUMPDEST POP POP POP POP JUMP JUMPDEST PUSH0 PUSH1 0x5 PUSH0 DUP5 DUP2 MSTORE PUSH1 0x20 ADD SWAP1 DUP2 MSTORE PUSH1 0x20 ADD PUSH0 KECCAK256 PUSH0 ADD SLOAD SUB PUSH2 0xA92 JUMPI PUSH1 0x40 MLOAD PUSH32 0x8C379A000000000000000000000000000000000000000000000000000000000 DUP2 MSTORE PUSH1 0x4 ADD PUSH2 0xA89 SWAP1 PUSH2 0x2DBE JUMP JUMPDEST PUSH1 0x40 MLOAD DUP1 SWAP2 SUB SWAP1 REVERT JUMPDEST PUSH0 PUSH0 SWAP1 POP JUMPDEST DUP2 MLOAD DUP2 LT ISZERO PUSH2 0xBB0 JUMPI PUSH1 0x4 PUSH0 DUP2 SLOAD DUP1 SWAP3 SWAP2 SWAP1 PUSH2 0xAB2 SWAP1 PUSH2 0x318E JUMP JUMPDEST SWAP2 SWAP1 POP SSTORE POP PUSH0 PUSH1 0x40 MLOAD DUP1 PUSH1 0x80 ADD PUSH1 0x40 MSTORE DUP1 PUSH1 0x4 SLOAD DUP2 MSTORE PUSH1 0x20 ADD DUP5 DUP5 DUP2 MLOAD DUP2 LT PUSH2 0xADE JUMPI PUSH2 0xADD PUSH2 0x2CD7 JUMP JUMPDEST JUMPDEST PUSH1 0x20 MUL PUSH1 0x20 ADD ADD MLOAD PUSH0 ADD MLOAD DUP2 MSTORE PUSH1 0x20 ADD DUP5 DUP5 DUP2 MLOAD DUP2 LT PUSH2 0xB01 JUMPI PUSH2 0xB00 PUSH2 0x2CD7 JUMP JUMPDEST JUMPDEST PUSH1 0x20 MUL PUSH1 0x20 ADD ADD MLOAD PUSH1 0x20 ADD MLOAD DUP2 MSTORE PUSH1 0x20 ADD DUP5 DUP5 DUP2 MLOAD DUP2 LT PUSH2 0xB25 JUMPI PUSH2 0xB24 PUSH2 0x2CD7 JUMP JUMPDEST JUMPDEST PUSH1 0x20 MUL PUSH1 0x20 ADD ADD MLOAD PUSH1 0x40 ADD MLOAD DUP2 MSTORE POP SWAP1 POP PUSH1 0x6 PUSH0 DUP6 DUP2 MSTORE PUSH1 0x20 ADD SWAP1 DUP2 MSTORE PUSH1 0x20 ADD PUSH0 KECCAK256 DUP2 SWAP1 DUP1 PUSH1 0x1 DUP2 SLOAD ADD DUP1 DUP3 SSTORE DUP1 SWAP2 POP POP PUSH1 0x1 SWAP1 SUB SWAP1 PUSH0 MSTORE PUSH1 0x20 PUSH0 KECCAK256 SWAP1 PUSH1 0x4 MUL ADD PUSH0 SWAP1 SWAP2 SWAP1 SWAP2 SWAP1 SWAP2 POP PUSH0 DUP3 ADD MLOAD DUP2 PUSH0 ADD SSTORE PUSH1 0x20 DUP3 ADD MLOAD DUP2 PUSH1 0x1 ADD SWAP1 DUP2 PUSH2 0xB8B SWAP2 SWAP1 PUSH2 0x3003 JUMP JUMPDEST POP PUSH1 0x40 DUP3 ADD MLOAD DUP2 PUSH1 0x2 ADD SSTORE PUSH1 0x60 DUP3 ADD MLOAD DUP2 PUSH1 0x3 ADD SSTORE POP POP POP DUP1 DUP1 PUSH1 0x1 ADD SWAP2 POP POP PUSH2 0xA97 JUMP JUMPDEST POP PUSH32 0x19A8E56286393226625DCDBC7CBB5A7611C71773D54C7E0680658CB9CEEF6C22 DUP3 PUSH1 0x40 MLOAD PUSH2 0xBE0 SWAP2 SWAP1 PUSH2 0x1FB0 JUMP JUMPDEST PUSH1 0x40 MLOAD DUP1 SWAP2 SUB SWAP1 LOG1 POP POP JUMP JUMPDEST PUSH0 PUSH1 0x5 PUSH0 DUP8 DUP2 MSTORE PUSH1 0x20 ADD SWAP1 DUP2 MSTORE PUSH1 0x20 ADD PUSH0 KECCAK256 PUSH0 ADD SLOAD SUB PUSH2 0xC41 JUMPI PUSH1 0x40 MLOAD PUSH32 0x8C379A000000000000000000000000000000000000000000000000000000000 DUP2 MSTORE PUSH1 0x4 ADD PUSH2 0xC38 SWAP1 PUSH2 0x2DBE JUMP JUMPDEST PUSH1 0x40 MLOAD DUP1 SWAP2 SUB SWAP1 REVERT JUMPDEST PUSH0 PUSH1 0x2 PUSH0 SWAP1 SLOAD SWAP1 PUSH2 0x100 EXP SWAP1 DIV PUSH20 0xFFFFFFFFFFFFFFFFFFFFFFFFFFFFFFFFFFFFFFFF AND PUSH20 0xFFFFFFFFFFFFFFFFFFFFFFFFFFFFFFFFFFFFFFFF AND PUSH4 0xF3052D26 DUP5 PUSH1 0x40 MLOAD DUP3 PUSH4 0xFFFFFFFF AND PUSH1 0xE0 SHL DUP2 MSTORE PUSH1 0x4 ADD PUSH2 0xC9C SWAP2 SWAP1 PUSH2 0x1FB0 JUMP JUMPDEST PUSH0 PUSH1 0x40 MLOAD DUP1 DUP4 SUB DUP2 DUP7 GAS STATICCALL ISZERO DUP1 ISZERO PUSH2 0xCB6 JUMPI RETURNDATASIZE PUSH0 PUSH0 RETURNDATACOPY RETURNDATASIZE PUSH0 REVERT JUMPDEST POP POP POP POP PUSH1 0x40 MLOAD RETURNDATASIZE PUSH0 DUP3 RETURNDATACOPY RETURNDATASIZE PUSH1 0x1F NOT PUSH1 0x1F DUP3 ADD AND DUP3 ADD DUP1 PUSH1 0x40 MSTORE POP DUP2 ADD SWAP1 PUSH2 0xCDE SWAP2 SWAP1 PUSH2 0x32C0 JUMP JUMPDEST PUSH0 ADD MLOAD SUB PUSH2 0xD21 JUMPI PUSH1 0x40 MLOAD PUSH32 0x8C379A000000000000000000000000000000000000000000000000000000000 DUP2 MSTORE PUSH1 0x4 ADD PUSH2 0xD18 SWAP1 PUSH2 0x3351 JUMP JUMPDEST PUSH1 0x40 MLOAD DUP1 SWAP2 SUB SWAP1 REVERT JUMPDEST DUP4 PUSH1 0x5 PUSH0 DUP8 DUP2 MSTORE PUSH1 0x20 ADD SWAP1 DUP2 MSTORE PUSH1 0x20 ADD PUSH0 KECCAK256 PUSH1 0x1 ADD SWAP1 DUP2 PUSH2 0xD42 SWAP2 SWAP1 PUSH2 0x3003 JUMP JUMPDEST POP DUP3 PUSH1 0x5 PUSH0 DUP8 DUP2 MSTORE PUSH1 0x20 ADD SWAP1 DUP2 MSTORE PUSH1 0x20 ADD PUSH0 KECCAK256 PUSH1 0x2 ADD SWAP1 DUP2 PUSH2 0xD64 SWAP2 SWAP1 PUSH2 0x3003 JUMP JUMPDEST POP DUP2 PUSH1 0x5 PUSH0 DUP8 DUP2 MSTORE PUSH1 0x20 ADD SWAP1 DUP2 MSTORE PUSH1 0x20 ADD PUSH0 KECCAK256 PUSH1 0x3 ADD DUP2 SWAP1 SSTORE POP DUP1 PUSH1 0x5 PUSH0 DUP8 DUP2 MSTORE PUSH1 0x20 ADD SWAP1 DUP2 MSTORE PUSH1 0x20 ADD PUSH0 KECCAK256 PUSH1 0x4 ADD SWAP1 DUP1 MLOAD SWAP1 PUSH1 0x20 ADD SWAP1 PUSH2 0xDA6 SWAP3 SWAP2 SWAP1 PUSH2 0x1D5A JUMP JUMPDEST POP PUSH32 0x4F49710E0E59EA2E7096D7BAD0267390D8BB5C007687F72B0DE2DB3AFDADD5E5 DUP6 DUP6 DUP6 DUP6 DUP6 PUSH1 0x40 MLOAD PUSH2 0xDDE SWAP6 SWAP5 SWAP4 SWAP3 SWAP2 SWAP1 PUSH2 0x342A JUMP JUMPDEST PUSH1 0x40 MLOAD DUP1 SWAP2 SUB SWAP1 LOG1 POP POP POP POP POP JUMP JUMPDEST PUSH1 0x1 DUP1 PUSH0 DUP4 PUSH20 0xFFFFFFFFFFFFFFFFFFFFFFFFFFFFFFFFFFFFFFFF AND PUSH20 0xFFFFFFFFFFFFFFFFFFFFFFFFFFFFFFFFFFFFFFFF AND DUP2 MSTORE PUSH1 0x20 ADD SWAP1 DUP2 MSTORE PUSH1 0x20 ADD PUSH0 KECCAK256 PUSH0 PUSH2 0x100 EXP DUP2 SLOAD DUP2 PUSH1 0xFF MUL NOT AND SWAP1 DUP4 PUSH1 0x2 DUP2 GT ISZERO PUSH2 0xE4C JUMPI PUSH2 0xE4B PUSH2 0x21F5 JUMP JUMPDEST JUMPDEST MUL OR SWAP1 SSTORE POP POP JUMP JUMPDEST PUSH0 PUSH0 PUSH0 SWAP1 SLOAD SWAP1 PUSH2 0x100 EXP SWAP1 DIV PUSH20 0xFFFFFFFFFFFFFFFFFFFFFFFFFFFFFFFFFFFFFFFF AND SWAP1 POP SWAP1 JUMP JUMPDEST PUSH0 PUSH0 SWAP1 POP JUMPDEST PUSH1 0x6 PUSH0 DUP6 DUP2 MSTORE PUSH1 0x20 ADD SWAP1 DUP2 MSTORE PUSH1 0x20 ADD PUSH0 KECCAK256 DUP1 SLOAD SWAP1 POP DUP2 LT ISZERO PUSH2 0xFA2 JUMPI DUP3 PUSH1 0x6 PUSH0 DUP7 DUP2 MSTORE PUSH1 0x20 ADD SWAP1 DUP2 MSTORE PUSH1 0x20 ADD PUSH0 KECCAK256 DUP3 DUP2 SLOAD DUP2 LT PUSH2 0xEC0 JUMPI PUSH2 0xEBF PUSH2 0x2CD7 JUMP JUMPDEST JUMPDEST SWAP1 PUSH0 MSTORE PUSH1 0x20 PUSH0 KECCAK256 SWAP1 PUSH1 0x4 MUL ADD PUSH0 ADD SLOAD SUB PUSH2 0xF95 JUMPI PUSH1 0x6 PUSH0 DUP6 DUP2 MSTORE PUSH1 0x20 ADD SWAP1 DUP2 MSTORE PUSH1 0x20 ADD PUSH0 KECCAK256 DUP2 DUP2 SLOAD DUP2 LT PUSH2 0xEF7 JUMPI PUSH2 0xEF6 PUSH2 0x2CD7 JUMP JUMPDEST JUMPDEST SWAP1 PUSH0 MSTORE PUSH1 0x20 PUSH0 KECCAK256 SWAP1 PUSH1 0x4 MUL ADD PUSH1 0x2 ADD SLOAD DUP3 LT PUSH2 0xF48 JUMPI PUSH1 0x40 MLOAD PUSH32 0x8C379A000000000000000000000000000000000000000000000000000000000 DUP2 MSTORE PUSH1 0x4 ADD PUSH2 0xF3F SWAP1 PUSH2 0x3500 JUMP JUMPDEST PUSH1 0x40 MLOAD DUP1 SWAP2 SUB SWAP1 REVERT JUMPDEST DUP2 PUSH1 0x6 PUSH0 DUP7 DUP2 MSTORE PUSH1 0x20 ADD SWAP1 DUP2 MSTORE PUSH1 0x20 ADD PUSH0 KECCAK256 DUP3 DUP2 SLOAD DUP2 LT PUSH2 0xF6C JUMPI PUSH2 0xF6B PUSH2 0x2CD7 JUMP JUMPDEST JUMPDEST SWAP1 PUSH0 MSTORE PUSH1 0x20 PUSH0 KECCAK256 SWAP1 PUSH1 0x4 MUL ADD PUSH1 0x2 ADD PUSH0 DUP3 DUP3 SLOAD PUSH2 0xF89 SWAP2 SWAP1 PUSH2 0x2E39 JUMP JUMPDEST SWAP3 POP POP DUP2 SWAP1 SSTORE POP PUSH2 0xFA2 JUMP JUMPDEST DUP1 DUP1 PUSH1 0x1 ADD SWAP2 POP POP PUSH2 0xE80 JUMP JUMPDEST POP POP POP POP JUMP JUMPDEST PUSH1 0x60 PUSH0 PUSH1 0x5 PUSH0 DUP5 DUP2 MSTORE PUSH1 0x20 ADD SWAP1 DUP2 MSTORE PUSH1 0x20 ADD PUSH0 KECCAK256 PUSH0 ADD SLOAD SUB PUSH2 0xFFF JUMPI PUSH1 0x40 MLOAD PUSH32 0x8C379A000000000000000000000000000000000000000000000000000000000 DUP2 MSTORE PUSH1 0x4 ADD PUSH2 0xFF6 SWAP1 PUSH2 0x2DBE JUMP JUMPDEST PUSH1 0x40 MLOAD DUP1 SWAP2 SUB SWAP1 REVERT JUMPDEST PUSH1 0x6 PUSH0 DUP4 DUP2 MSTORE PUSH1 0x20 ADD SWAP1 DUP2 MSTORE PUSH1 0x20 ADD PUSH0 KECCAK256 DUP1 SLOAD DUP1 PUSH1 0x20 MUL PUSH1 0x20 ADD PUSH1 0x40 MLOAD SWAP1 DUP2 ADD PUSH1 0x40 MSTORE DUP1 SWAP3 SWAP2 SWAP1 DUP2 DUP2 MSTORE PUSH1 0x20 ADD PUSH0 SWAP1 JUMPDEST DUP3 DUP3 LT ISZERO PUSH2 0x110C JUMPI DUP4 DUP3 SWAP1 PUSH0 MSTORE PUSH1 0x20 PUSH0 KECCAK256 SWAP1 PUSH1 0x4 MUL ADD PUSH1 0x40 MLOAD DUP1 PUSH1 0x80 ADD PUSH1 0x40 MSTORE SWAP1 DUP2 PUSH0 DUP3 ADD SLOAD DUP2 MSTORE PUSH1 0x20 ADD PUSH1 0x1 DUP3 ADD DUP1 SLOAD PUSH2 0x1069 SWAP1 PUSH2 0x2E09 JUMP JUMPDEST DUP1 PUSH1 0x1F ADD PUSH1 0x20 DUP1 SWAP2 DIV MUL PUSH1 0x20 ADD PUSH1 0x40 MLOAD SWAP1 DUP2 ADD PUSH1 0x40 MSTORE DUP1 SWAP3 SWAP2 SWAP1 DUP2 DUP2 MSTORE PUSH1 0x20 ADD DUP3 DUP1 SLOAD PUSH2 0x1095 SWAP1 PUSH2 0x2E09 JUMP JUMPDEST DUP1 ISZERO PUSH2 0x10E0 JUMPI DUP1 PUSH1 0x1F LT PUSH2 0x10B7 JUMPI PUSH2 0x100 DUP1 DUP4 SLOAD DIV MUL DUP4 MSTORE SWAP2 PUSH1 0x20 ADD SWAP2 PUSH2 0x10E0 JUMP JUMPDEST DUP3 ADD SWAP2 SWAP1 PUSH0 MSTORE PUSH1 0x20 PUSH0 KECCAK256 SWAP1 JUMPDEST DUP2 SLOAD DUP2 MSTORE SWAP1 PUSH1 0x1 ADD SWAP1 PUSH1 0x20 ADD DUP1 DUP4 GT PUSH2 0x10C3 JUMPI DUP3 SWAP1 SUB PUSH1 0x1F AND DUP3 ADD SWAP2 JUMPDEST POP POP POP POP POP DUP2 MSTORE PUSH1 0x20 ADD PUSH1 0x2 DUP3 ADD SLOAD DUP2 MSTORE PUSH1 0x20 ADD PUSH1 0x3 DUP3 ADD SLOAD DUP2 MSTORE POP POP DUP2 MSTORE PUSH1 0x20 ADD SWAP1 PUSH1 0x1 ADD SWAP1 PUSH2 0x102F JUMP JUMPDEST POP POP POP POP SWAP1 POP SWAP2 SWAP1 POP JUMP JUMPDEST PUSH0 PUSH1 0x5 PUSH0 DUP9 DUP2 MSTORE PUSH1 0x20 ADD SWAP1 DUP2 MSTORE PUSH1 0x20 ADD PUSH0 KECCAK256 PUSH0 ADD SLOAD EQ PUSH2 0x116C JUMPI PUSH1 0x40 MLOAD PUSH32 0x8C379A000000000000000000000000000000000000000000000000000000000 DUP2 MSTORE PUSH1 0x4 ADD PUSH2 0x1163 SWAP1 PUSH2 0x3568 JUMP JUMPDEST PUSH1 0x40 MLOAD DUP1 SWAP2 SUB SWAP1 REVERT JUMPDEST PUSH0 PUSH1 0x2 PUSH0 SWAP1 SLOAD SWAP1 PUSH2 0x100 EXP SWAP1 DIV PUSH20 0xFFFFFFFFFFFFFFFFFFFFFFFFFFFFFFFFFFFFFFFF AND PUSH20 0xFFFFFFFFFFFFFFFFFFFFFFFFFFFFFFFFFFFFFFFF AND PUSH4 0xF3052D26 DUP6 PUSH1 0x40 MLOAD DUP3 PUSH4 0xFFFFFFFF AND PUSH1 0xE0 SHL DUP2 MSTORE PUSH1 0x4 ADD PUSH2 0x11C7 SWAP2 SWAP1 PUSH2 0x1FB0 JUMP JUMPDEST PUSH0 PUSH1 0x40 MLOAD DUP1 DUP4 SUB DUP2 DUP7 GAS STATICCALL ISZERO DUP1 ISZERO PUSH2 0x11E1 JUMPI RETURNDATASIZE PUSH0 PUSH0 RETURNDATACOPY RETURNDATASIZE PUSH0 REVERT JUMPDEST POP POP POP POP PUSH1 0x40 MLOAD RETURNDATASIZE PUSH0 DUP3 RETURNDATACOPY RETURNDATASIZE PUSH1 0x1F NOT PUSH1 0x1F DUP3 ADD AND DUP3 ADD DUP1 PUSH1 0x40 MSTORE POP DUP2 ADD SWAP1 PUSH2 0x1209 SWAP2 SWAP1 PUSH2 0x32C0 JUMP JUMPDEST PUSH0 ADD MLOAD SUB PUSH2 0x124C JUMPI PUSH1 0x40 MLOAD PUSH32 0x8C379A000000000000000000000000000000000000000000000000000000000 DUP2 MSTORE PUSH1 0x4 ADD PUSH2 0x1243 SWAP1 PUSH2 0x3351 JUMP JUMPDEST PUSH1 0x40 MLOAD DUP1 SWAP2 SUB SWAP1 REVERT JUMPDEST PUSH0 PUSH1 0x40 MLOAD DUP1 PUSH1 0xE0 ADD PUSH1 0x40 MSTORE DUP1 DUP9 DUP2 MSTORE PUSH1 0x20 ADD DUP8 DUP2 MSTORE PUSH1 0x20 ADD DUP7 DUP2 MSTORE PUSH1 0x20 ADD DUP6 DUP2 MSTORE PUSH1 0x20 ADD DUP5 DUP2 MSTORE PUSH1 0x20 ADD PUSH0 DUP2 MSTORE PUSH1 0x20 ADD PUSH0 DUP2 MSTORE POP SWAP1 POP DUP1 PUSH1 0x5 PUSH0 DUP10 DUP2 MSTORE PUSH1 0x20 ADD SWAP1 DUP2 MSTORE PUSH1 0x20 ADD PUSH0 KECCAK256 PUSH0 DUP3 ADD MLOAD DUP2 PUSH0 ADD SSTORE PUSH1 0x20 DUP3 ADD MLOAD DUP2 PUSH1 0x1 ADD SWAP1 DUP2 PUSH2 0x12B1 SWAP2 SWAP1 PUSH2 0x3003 JUMP JUMPDEST POP PUSH1 0x40 DUP3 ADD MLOAD DUP2 PUSH1 0x2 ADD SWAP1 DUP2 PUSH2 0x12C7 SWAP2 SWAP1 PUSH2 0x3003 JUMP JUMPDEST POP PUSH1 0x60 DUP3 ADD MLOAD DUP2 PUSH1 0x3 ADD SSTORE PUSH1 0x80 DUP3 ADD MLOAD DUP2 PUSH1 0x4 ADD SWAP1 DUP1 MLOAD SWAP1 PUSH1 0x20 ADD SWAP1 PUSH2 0x12EE SWAP3 SWAP2 SWAP1 PUSH2 0x1D5A JUMP JUMPDEST POP PUSH1 0xA0 DUP3 ADD MLOAD DUP2 PUSH1 0x5 ADD SSTORE PUSH1 0xC0 DUP3 ADD MLOAD DUP2 PUSH1 0x6 ADD SSTORE SWAP1 POP POP PUSH1 0x7 DUP8 SWAP1 DUP1 PUSH1 0x1 DUP2 SLOAD ADD DUP1 DUP3 SSTORE DUP1 SWAP2 POP POP PUSH1 0x1 SWAP1 SUB SWAP1 PUSH0 MSTORE PUSH1 0x20 PUSH0 KECCAK256 ADD PUSH0 SWAP1 SWAP2 SWAP1 SWAP2 SWAP1 SWAP2 POP SSTORE PUSH1 0x2 PUSH0 SWAP1 SLOAD SWAP1 PUSH2 0x100 EXP SWAP1 DIV PUSH20 0xFFFFFFFFFFFFFFFFFFFFFFFFFFFFFFFFFFFFFFFF AND PUSH20 0xFFFFFFFFFFFFFFFFFFFFFFFFFFFFFFFFFFFFFFFF AND PUSH4 0x5F8069CC DUP6 DUP10 PUSH1 0x40 MLOAD DUP4 PUSH4 0xFFFFFFFF AND PUSH1 0xE0 SHL DUP2 MSTORE PUSH1 0x4 ADD PUSH2 0x1388 SWAP3 SWAP2 SWAP1 PUSH2 0x30FF JUMP JUMPDEST PUSH0 PUSH1 0x40 MLOAD DUP1 DUP4 SUB DUP2 PUSH0 DUP8 DUP1 EXTCODESIZE ISZERO DUP1 ISZERO PUSH2 0x139F JUMPI PUSH0 PUSH0 REVERT JUMPDEST POP GAS CALL ISZERO DUP1 ISZERO PUSH2 0x13B1 JUMPI RETURNDATASIZE PUSH0 PUSH0 RETURNDATACOPY RETURNDATASIZE PUSH0 REVERT JUMPDEST POP POP POP POP PUSH0 PUSH0 SWAP1 POP JUMPDEST DUP3 MLOAD DUP2 LT ISZERO PUSH2 0x14CF JUMPI PUSH0 PUSH1 0x40 MLOAD DUP1 PUSH1 0x80 ADD PUSH1 0x40 MSTORE DUP1 PUSH1 0x4 PUSH0 DUP2 SLOAD DUP1 SWAP3 SWAP2 SWAP1 PUSH2 0x13E1 SWAP1 PUSH2 0x318E JUMP JUMPDEST SWAP2 SWAP1 POP SSTORE DUP2 MSTORE PUSH1 0x20 ADD DUP6 DUP5 DUP2 MLOAD DUP2 LT PUSH2 0x13FD JUMPI PUSH2 0x13FC PUSH2 0x2CD7 JUMP JUMPDEST JUMPDEST PUSH1 0x20 MUL PUSH1 0x20 ADD ADD MLOAD PUSH0 ADD MLOAD DUP2 MSTORE PUSH1 0x20 ADD DUP6 DUP5 DUP2 MLOAD DUP2 LT PUSH2 0x1420 JUMPI PUSH2 0x141F PUSH2 0x2CD7 JUMP JUMPDEST JUMPDEST PUSH1 0x20 MUL PUSH1 0x20 ADD ADD MLOAD PUSH1 0x20 ADD MLOAD DUP2 MSTORE PUSH1 0x20 ADD DUP6 DUP5 DUP2 MLOAD DUP2 LT PUSH2 0x1444 JUMPI PUSH2 0x1443 PUSH2 0x2CD7 JUMP JUMPDEST JUMPDEST PUSH1 0x20 MUL PUSH1 0x20 ADD ADD MLOAD PUSH1 0x40 ADD MLOAD DUP2 MSTORE POP SWAP1 POP PUSH1 0x6 PUSH0 DUP11 DUP2 MSTORE PUSH1 0x20 ADD SWAP1 DUP2 MSTORE PUSH1 0x20 ADD PUSH0 KECCAK256 DUP2 SWAP1 DUP1 PUSH1 0x1 DUP2 SLOAD ADD DUP1 DUP3 SSTORE DUP1 SWAP2 POP POP PUSH1 0x1 SWAP1 SUB SWAP1 PUSH0 MSTORE PUSH1 0x20 PUSH0 KECCAK256 SWAP1 PUSH1 0x4 MUL ADD PUSH0 SWAP1 SWAP2 SWAP1 SWAP2 SWAP1 SWAP2 POP PUSH0 DUP3 ADD MLOAD DUP2 PUSH0 ADD SSTORE PUSH1 0x20 DUP3 ADD MLOAD DUP2 PUSH1 0x1 ADD SWAP1 DUP2 PUSH2 0x14AA SWAP2 SWAP1 PUSH2 0x3003 JUMP JUMPDEST POP PUSH1 0x40 DUP3 ADD MLOAD DUP2 PUSH1 0x2 ADD SSTORE PUSH1 0x60 DUP3 ADD MLOAD DUP2 PUSH1 0x3 ADD SSTORE POP POP POP DUP1 DUP1 PUSH1 0x1 ADD SWAP2 POP POP PUSH2 0x13BA JUMP JUMPDEST POP PUSH32 0xBDF2814016D06BF27F22AA349FADE26A888A8F7EAC3E0963916B1C64CC37A5CE DUP8 DUP8 DUP8 DUP8 DUP8 PUSH1 0x40 MLOAD PUSH2 0x1507 SWAP6 SWAP5 SWAP4 SWAP3 SWAP2 SWAP1 PUSH2 0x342A JUMP JUMPDEST PUSH1 0x40 MLOAD DUP1 SWAP2 SUB SWAP1 LOG1 POP POP POP POP POP POP POP JUMP JUMPDEST PUSH1 0x60 PUSH0 PUSH1 0x7 DUP1 SLOAD SWAP1 POP PUSH8 0xFFFFFFFFFFFFFFFF DUP2 GT ISZERO PUSH2 0x153A JUMPI PUSH2 0x1539 PUSH2 0x22C3 JUMP JUMPDEST JUMPDEST PUSH1 0x40 MLOAD SWAP1 DUP1 DUP3 MSTORE DUP1 PUSH1 0x20 MUL PUSH1 0x20 ADD DUP3 ADD PUSH1 0x40 MSTORE DUP1 ISZERO PUSH2 0x1573 JUMPI DUP2 PUSH1 0x20 ADD JUMPDEST PUSH2 0x1560 PUSH2 0x1DB1 JUMP JUMPDEST DUP2 MSTORE PUSH1 0x20 ADD SWAP1 PUSH1 0x1 SWAP1 SUB SWAP1 DUP2 PUSH2 0x1558 JUMPI SWAP1 POP JUMPDEST POP SWAP1 POP PUSH0 PUSH0 SWAP1 POP JUMPDEST PUSH1 0x7 DUP1 SLOAD SWAP1 POP DUP2 LT ISZERO PUSH2 0x192F JUMPI PUSH0 PUSH1 0x7 DUP3 DUP2 SLOAD DUP2 LT PUSH2 0x159D JUMPI PUSH2 0x159C PUSH2 0x2CD7 JUMP JUMPDEST JUMPDEST SWAP1 PUSH0 MSTORE PUSH1 0x20 PUSH0 KECCAK256 ADD SLOAD SWAP1 POP PUSH1 0x40 MLOAD DUP1 PUSH1 0x40 ADD PUSH1 0x40 MSTORE DUP1 PUSH1 0x5 PUSH0 DUP5 DUP2 MSTORE PUSH1 0x20 ADD SWAP1 DUP2 MSTORE PUSH1 0x20 ADD PUSH0 KECCAK256 PUSH1 0x40 MLOAD DUP1 PUSH1 0xE0 ADD PUSH1 0x40 MSTORE SWAP1 DUP2 PUSH0 DUP3 ADD SLOAD DUP2 MSTORE PUSH1 0x20 ADD PUSH1 0x1 DUP3 ADD DUP1 SLOAD PUSH2 0x15E8 SWAP1 PUSH2 0x2E09 JUMP JUMPDEST DUP1 PUSH1 0x1F ADD PUSH1 0x20 DUP1 SWAP2 DIV MUL PUSH1 0x20 ADD PUSH1 0x40 MLOAD SWAP1 DUP2 ADD PUSH1 0x40 MSTORE DUP1 SWAP3 SWAP2 SWAP1 DUP2 DUP2 MSTORE PUSH1 0x20 ADD DUP3 DUP1 SLOAD PUSH2 0x1614 SWAP1 PUSH2 0x2E09 JUMP JUMPDEST DUP1 ISZERO PUSH2 0x165F JUMPI DUP1 PUSH1 0x1F LT PUSH2 0x1636 JUMPI PUSH2 0x100 DUP1 DUP4 SLOAD DIV MUL DUP4 MSTORE SWAP2 PUSH1 0x20 ADD SWAP2 PUSH2 0x165F JUMP JUMPDEST DUP3 ADD SWAP2 SWAP1 PUSH0 MSTORE PUSH1 0x20 PUSH0 KECCAK256 SWAP1 JUMPDEST DUP2 SLOAD DUP2 MSTORE SWAP1 PUSH1 0x1 ADD SWAP1 PUSH1 0x20 ADD DUP1 DUP4 GT PUSH2 0x1642 JUMPI DUP3 SWAP1 SUB PUSH1 0x1F AND DUP3 ADD SWAP2 JUMPDEST POP POP POP POP POP DUP2 MSTORE PUSH1 0x20 ADD PUSH1 0x2 DUP3 ADD DUP1 SLOAD PUSH2 0x1678 SWAP1 PUSH2 0x2E09 JUMP JUMPDEST DUP1 PUSH1 0x1F ADD PUSH1 0x20 DUP1 SWAP2 DIV MUL PUSH1 0x20 ADD PUSH1 0x40 MLOAD SWAP1 DUP2 ADD PUSH1 0x40 MSTORE DUP1 SWAP3 SWAP2 SWAP1 DUP2 DUP2 MSTORE PUSH1 0x20 ADD DUP3 DUP1 SLOAD PUSH2 0x16A4 SWAP1 PUSH2 0x2E09 JUMP JUMPDEST DUP1 ISZERO PUSH2 0x16EF JUMPI DUP1 PUSH1 0x1F LT PUSH2 0x16C6 JUMPI PUSH2 0x100 DUP1 DUP4 SLOAD DIV MUL DUP4 MSTORE SWAP2 PUSH1 0x20 ADD SWAP2 PUSH2 0x16EF JUMP JUMPDEST DUP3 ADD SWAP2 SWAP1 PUSH0 MSTORE PUSH1 0x20 PUSH0 KECCAK256 SWAP1 JUMPDEST DUP2 SLOAD DUP2 MSTORE SWAP1 PUSH1 0x1 ADD SWAP1 PUSH1 0x20 ADD DUP1 DUP4 GT PUSH2 0x16D2 JUMPI DUP3 SWAP1 SUB PUSH1 0x1F AND DUP3 ADD SWAP2 JUMPDEST POP POP POP POP POP DUP2 MSTORE PUSH1 0x20 ADD PUSH1 0x3 DUP3 ADD SLOAD DUP2 MSTORE PUSH1 0x20 ADD PUSH1 0x4 DUP3 ADD DUP1 SLOAD DUP1 PUSH1 0x20 MUL PUSH1 0x20 ADD PUSH1 0x40 MLOAD SWAP1 DUP2 ADD PUSH1 0x40 MSTORE DUP1 SWAP3 SWAP2 SWAP1 DUP2 DUP2 MSTORE PUSH1 0x20 ADD PUSH0 SWAP1 JUMPDEST DUP3 DUP3 LT ISZERO PUSH2 0x17CE JUMPI DUP4 DUP3 SWAP1 PUSH0 MSTORE PUSH1 0x20 PUSH0 KECCAK256 ADD DUP1 SLOAD PUSH2 0x1743 SWAP1 PUSH2 0x2E09 JUMP JUMPDEST DUP1 PUSH1 0x1F ADD PUSH1 0x20 DUP1 SWAP2 DIV MUL PUSH1 0x20 ADD PUSH1 0x40 MLOAD SWAP1 DUP2 ADD PUSH1 0x40 MSTORE DUP1 SWAP3 SWAP2 SWAP1 DUP2 DUP2 MSTORE PUSH1 0x20 ADD DUP3 DUP1 SLOAD PUSH2 0x176F SWAP1 PUSH2 0x2E09 JUMP JUMPDEST DUP1 ISZERO PUSH2 0x17BA JUMPI DUP1 PUSH1 0x1F LT PUSH2 0x1791 JUMPI PUSH2 0x100 DUP1 DUP4 SLOAD DIV MUL DUP4 MSTORE SWAP2 PUSH1 0x20 ADD SWAP2 PUSH2 0x17BA JUMP JUMPDEST DUP3 ADD SWAP2 SWAP1 PUSH0 MSTORE PUSH1 0x20 PUSH0 KECCAK256 SWAP1 JUMPDEST DUP2 SLOAD DUP2 MSTORE SWAP1 PUSH1 0x1 ADD SWAP1 PUSH1 0x20 ADD DUP1 DUP4 GT PUSH2 0x179D JUMPI DUP3 SWAP1 SUB PUSH1 0x1F AND DUP3 ADD SWAP2 JUMPDEST POP POP POP POP POP DUP2 MSTORE PUSH1 0x20 ADD SWAP1 PUSH1 0x1 ADD SWAP1 PUSH2 0x1726 JUMP JUMPDEST POP POP POP POP DUP2 MSTORE PUSH1 0x20 ADD PUSH1 0x5 DUP3 ADD SLOAD DUP2 MSTORE PUSH1 0x20 ADD PUSH1 0x6 DUP3 ADD SLOAD DUP2 MSTORE POP POP DUP2 MSTORE PUSH1 0x20 ADD PUSH1 0x6 PUSH0 DUP5 DUP2 MSTORE PUSH1 0x20 ADD SWAP1 DUP2 MSTORE PUSH1 0x20 ADD PUSH0 KECCAK256 DUP1 SLOAD DUP1 PUSH1 0x20 MUL PUSH1 0x20 ADD PUSH1 0x40 MLOAD SWAP1 DUP2 ADD PUSH1 0x40 MSTORE DUP1 SWAP3 SWAP2 SWAP1 DUP2 DUP2 MSTORE PUSH1 0x20 ADD PUSH0 SWAP1 JUMPDEST DUP3 DUP3 LT ISZERO PUSH2 0x18FC JUMPI DUP4 DUP3 SWAP1 PUSH0 MSTORE PUSH1 0x20 PUSH0 KECCAK256 SWAP1 PUSH1 0x4 MUL ADD PUSH1 0x40 MLOAD DUP1 PUSH1 0x80 ADD PUSH1 0x40 MSTORE SWAP1 DUP2 PUSH0 DUP3 ADD SLOAD DUP2 MSTORE PUSH1 0x20 ADD PUSH1 0x1 DUP3 ADD DUP1 SLOAD PUSH2 0x1859 SWAP1 PUSH2 0x2E09 JUMP JUMPDEST DUP1 PUSH1 0x1F ADD PUSH1 0x20 DUP1 SWAP2 DIV MUL PUSH1 0x20 ADD PUSH1 0x40 MLOAD SWAP1 DUP2 ADD PUSH1 0x40 MSTORE DUP1 SWAP3 SWAP2 SWAP1 DUP2 DUP2 MSTORE PUSH1 0x20 ADD DUP3 DUP1 SLOAD PUSH2 0x1885 SWAP1 PUSH2 0x2E09 JUMP JUMPDEST DUP1 ISZERO PUSH2 0x18D0 JUMPI DUP1 PUSH1 0x1F LT PUSH2 0x18A7 JUMPI PUSH2 0x100 DUP1 DUP4 SLOAD DIV MUL DUP4 MSTORE SWAP2 PUSH1 0x20 ADD SWAP2 PUSH2 0x18D0 JUMP JUMPDEST DUP3 ADD SWAP2 SWAP1 PUSH0 MSTORE PUSH1 0x20 PUSH0 KECCAK256 SWAP1 JUMPDEST DUP2 SLOAD DUP2 MSTORE SWAP1 PUSH1 0x1 ADD SWAP1 PUSH1 0x20 ADD DUP1 DUP4 GT PUSH2 0x18B3 JUMPI DUP3 SWAP1 SUB PUSH1 0x1F AND DUP3 ADD SWAP2 JUMPDEST POP POP POP POP POP DUP2 MSTORE PUSH1 0x20 ADD PUSH1 0x2 DUP3 ADD SLOAD DUP2 MSTORE PUSH1 0x20 ADD PUSH1 0x3 DUP3 ADD SLOAD DUP2 MSTORE POP POP DUP2 MSTORE PUSH1 0x20 ADD SWAP1 PUSH1 0x1 ADD SWAP1 PUSH2 0x181F JUMP JUMPDEST POP POP POP POP DUP2 MSTORE POP DUP4 DUP4 DUP2 MLOAD DUP2 LT PUSH2 0x1916 JUMPI PUSH2 0x1915 PUSH2 0x2CD7 JUMP JUMPDEST JUMPDEST PUSH1 0x20 MUL PUSH1 0x20 ADD ADD DUP2 SWAP1 MSTORE POP POP DUP1 DUP1 PUSH1 0x1 ADD SWAP2 POP POP PUSH2 0x157B JUMP JUMPDEST POP DUP1 SWAP2 POP POP SWAP1 JUMP JUMPDEST PUSH0 PUSH1 0x5 PUSH0 DUP6 DUP2 MSTORE PUSH1 0x20 ADD SWAP1 DUP2 MSTORE PUSH1 0x20 ADD PUSH0 KECCAK256 PUSH0 ADD SLOAD SUB PUSH2 0x198C JUMPI PUSH1 0x40 MLOAD PUSH32 0x8C379A000000000000000000000000000000000000000000000000000000000 DUP2 MSTORE PUSH1 0x4 ADD PUSH2 0x1983 SWAP1 PUSH2 0x2DBE JUMP JUMPDEST PUSH1 0x40 MLOAD DUP1 SWAP2 SUB SWAP1 REVERT JUMPDEST PUSH0 PUSH1 0x6 PUSH0 DUP6 DUP2 MSTORE PUSH1 0x20 ADD SWAP1 DUP2 MSTORE PUSH1 0x20 ADD PUSH0 KECCAK256 SWAP1 POP PUSH0 PUSH0 SWAP1 POP PUSH0 PUSH0 SWAP1 POP JUMPDEST DUP3 DUP1 SLOAD SWAP1 POP DUP2 LT ISZERO PUSH2 0x1AB5 JUMPI DUP5 DUP4 DUP3 DUP2 SLOAD DUP2 LT PUSH2 0x19C9 JUMPI PUSH2 0x19C8 PUSH2 0x2CD7 JUMP JUMPDEST JUMPDEST SWAP1 PUSH0 MSTORE PUSH1 0x20 PUSH0 KECCAK256 SWAP1 PUSH1 0x4 MUL ADD PUSH0 ADD SLOAD SUB PUSH2 0x1AA8 JUMPI DUP4 PUSH0 ADD MLOAD DUP4 DUP3 DUP2 SLOAD DUP2 LT PUSH2 0x19F4 JUMPI PUSH2 0x19F3 PUSH2 0x2CD7 JUMP JUMPDEST JUMPDEST SWAP1 PUSH0 MSTORE PUSH1 0x20 PUSH0 KECCAK256 SWAP1 PUSH1 0x4 MUL ADD PUSH1 0x1 ADD SWAP1 DUP2 PUSH2 0x1A0F SWAP2 SWAP1 PUSH2 0x3003 JUMP JUMPDEST POP DUP4 PUSH1 0x20 ADD MLOAD DUP4 DUP3 DUP2 SLOAD DUP2 LT PUSH2 0x1A28 JUMPI PUSH2 0x1A27 PUSH2 0x2CD7 JUMP JUMPDEST JUMPDEST SWAP1 PUSH0 MSTORE PUSH1 0x20 PUSH0 KECCAK256 SWAP1 PUSH1 0x4 MUL ADD PUSH1 0x2 ADD DUP2 SWAP1 SSTORE POP DUP4 PUSH1 0x40 ADD MLOAD DUP4 DUP3 DUP2 SLOAD DUP2 LT PUSH2 0x1A53 JUMPI PUSH2 0x1A52 PUSH2 0x2CD7 JUMP JUMPDEST JUMPDEST SWAP1 PUSH0 MSTORE PUSH1 0x20 PUSH0 KECCAK256 SWAP1 PUSH1 0x4 MUL ADD PUSH1 0x3 ADD DUP2 SWAP1 SSTORE POP PUSH1 0x1 SWAP2 POP PUSH32 0xE29E1E70959F0C301943D01C4BD294592A2105BC81E9B2523C4B1D7F7D1F393F DUP7 DUP7 PUSH1 0x40 MLOAD PUSH2 0x1A9B SWAP3 SWAP2 SWAP1 PUSH2 0x30FF JUMP JUMPDEST PUSH1 0x40 MLOAD DUP1 SWAP2 SUB SWAP1 LOG1 PUSH2 0x1AB5 JUMP JUMPDEST DUP1 DUP1 PUSH1 0x1 ADD SWAP2 POP POP PUSH2 0x19A9 JUMP JUMPDEST POP DUP1 PUSH2 0x1AF6 JUMPI PUSH1 0x40 MLOAD PUSH32 0x8C379A000000000000000000000000000000000000000000000000000000000 DUP2 MSTORE PUSH1 0x4 ADD PUSH2 0x1AED SWAP1 PUSH2 0x3170 JUMP JUMPDEST PUSH1 0x40 MLOAD DUP1 SWAP2 SUB SWAP1 REVERT JUMPDEST POP POP POP POP POP JUMP JUMPDEST PUSH0 PUSH1 0x5 PUSH0 DUP4 DUP2 MSTORE PUSH1 0x20 ADD SWAP1 DUP2 MSTORE PUSH1 0x20 ADD PUSH0 KECCAK256 PUSH0 ADD SLOAD SUB PUSH2 0x1B52 JUMPI PUSH1 0x40 MLOAD PUSH32 0x8C379A000000000000000000000000000000000000000000000000000000000 DUP2 MSTORE PUSH1 0x4 ADD PUSH2 0x1B49 SWAP1 PUSH2 0x2DBE JUMP JUMPDEST PUSH1 0x40 MLOAD DUP1 SWAP2 SUB SWAP1 REVERT JUMPDEST PUSH1 0x5 PUSH0 DUP3 DUP2 MSTORE PUSH1 0x20 ADD SWAP1 DUP2 MSTORE PUSH1 0x20 ADD PUSH0 KECCAK256 PUSH0 PUSH0 DUP3 ADD PUSH0 SWAP1 SSTORE PUSH1 0x1 DUP3 ADD PUSH0 PUSH2 0x1B79 SWAP2 SWAP1 PUSH2 0x1D1D JUMP JUMPDEST PUSH1 0x2 DUP3 ADD PUSH0 PUSH2 0x1B88 SWAP2 SWAP1 PUSH2 0x1D1D JUMP JUMPDEST PUSH1 0x3 DUP3 ADD PUSH0 SWAP1 SSTORE PUSH1 0x4 DUP3 ADD PUSH0 PUSH2 0x1B9E SWAP2 SWAP1 PUSH2 0x1DD1 JUMP JUMPDEST PUSH1 0x5 DUP3 ADD PUSH0 SWAP1 SSTORE PUSH1 0x6 DUP3 ADD PUSH0 SWAP1 SSTORE POP POP PUSH1 0x6 PUSH0 DUP3 DUP2 MSTORE PUSH1 0x20 ADD SWAP1 DUP2 MSTORE PUSH1 0x20 ADD PUSH0 KECCAK256 PUSH0 PUSH2 0x1BCA SWAP2 SWAP1 PUSH2 0x1DEF JUMP JUMPDEST PUSH0 PUSH0 SWAP1 POP JUMPDEST PUSH1 0x7 DUP1 SLOAD SWAP1 POP DUP2 LT ISZERO PUSH2 0x1C84 JUMPI DUP2 PUSH1 0x7 DUP3 DUP2 SLOAD DUP2 LT PUSH2 0x1BF1 JUMPI PUSH2 0x1BF0 PUSH2 0x2CD7 JUMP JUMPDEST JUMPDEST SWAP1 PUSH0 MSTORE PUSH1 0x20 PUSH0 KECCAK256 ADD SLOAD SUB PUSH2 0x1C77 JUMPI PUSH1 0x7 PUSH1 0x1 PUSH1 0x7 DUP1 SLOAD SWAP1 POP PUSH2 0x1C13 SWAP2 SWAP1 PUSH2 0x2E39 JUMP JUMPDEST DUP2 SLOAD DUP2 LT PUSH2 0x1C24 JUMPI PUSH2 0x1C23 PUSH2 0x2CD7 JUMP JUMPDEST JUMPDEST SWAP1 PUSH0 MSTORE PUSH1 0x20 PUSH0 KECCAK256 ADD SLOAD PUSH1 0x7 DUP3 DUP2 SLOAD DUP2 LT PUSH2 0x1C41 JUMPI PUSH2 0x1C40 PUSH2 0x2CD7 JUMP JUMPDEST JUMPDEST SWAP1 PUSH0 MSTORE PUSH1 0x20 PUSH0 KECCAK256 ADD DUP2 SWAP1 SSTORE POP PUSH1 0x7 DUP1 SLOAD DUP1 PUSH2 0x1C5F JUMPI PUSH2 0x1C5E PUSH2 0x30D2 JUMP JUMPDEST JUMPDEST PUSH1 0x1 SWAP1 SUB DUP2 DUP2 SWAP1 PUSH0 MSTORE PUSH1 0x20 PUSH0 KECCAK256 ADD PUSH0 SWAP1 SSTORE SWAP1 SSTORE PUSH2 0x1C84 JUMP JUMPDEST DUP1 DUP1 PUSH1 0x1 ADD SWAP2 POP POP PUSH2 0x1BCF JUMP JUMPDEST POP PUSH32 0x4D4E7C43D5805933523B1317FDD5ACB7517962D3E9F52834633B9F0149477295 DUP2 PUSH1 0x40 MLOAD PUSH2 0x1CB4 SWAP2 SWAP1 PUSH2 0x1FB0 JUMP JUMPDEST PUSH1 0x40 MLOAD DUP1 SWAP2 SUB SWAP1 LOG1 POP JUMP JUMPDEST PUSH1 0x2 PUSH0 SWAP1 SLOAD SWAP1 PUSH2 0x100 EXP SWAP1 DIV PUSH20 0xFFFFFFFFFFFFFFFFFFFFFFFFFFFFFFFFFFFFFFFF AND DUP2 JUMP JUMPDEST PUSH1 0x40 MLOAD DUP1 PUSH1 0xE0 ADD PUSH1 0x40 MSTORE DUP1 PUSH0 DUP2 MSTORE PUSH1 0x20 ADD PUSH1 0x60 DUP2 MSTORE PUSH1 0x20 ADD PUSH1 0x60 DUP2 MSTORE PUSH1 0x20 ADD PUSH0 DUP2 MSTORE PUSH1 0x20 ADD PUSH1 0x60 DUP2 MSTORE PUSH1 0x20 ADD PUSH0 DUP2 MSTORE PUSH1 0x20 ADD PUSH0 DUP2 MSTORE POP SWAP1 JUMP JUMPDEST POP DUP1 SLOAD PUSH2 0x1D29 SWAP1 PUSH2 0x2E09 JUMP JUMPDEST PUSH0 DUP3 SSTORE DUP1 PUSH1 0x1F LT PUSH2 0x1D3A JUMPI POP PUSH2 0x1D57 JUMP JUMPDEST PUSH1 0x1F ADD PUSH1 0x20 SWAP1 DIV SWAP1 PUSH0 MSTORE PUSH1 0x20 PUSH0 KECCAK256 SWAP1 DUP2 ADD SWAP1 PUSH2 0x1D56 SWAP2 SWAP1 PUSH2 0x1E10 JUMP JUMPDEST JUMPDEST POP JUMP JUMPDEST DUP3 DUP1 SLOAD DUP3 DUP3 SSTORE SWAP1 PUSH0 MSTORE PUSH1 0x20 PUSH0 KECCAK256 SWAP1 DUP2 ADD SWAP3 DUP3 ISZERO PUSH2 0x1DA0 JUMPI SWAP2 PUSH1 0x20 MUL DUP3 ADD JUMPDEST DUP3 DUP2 GT ISZERO PUSH2 0x1D9F JUMPI DUP3 MLOAD DUP3 SWAP1 DUP2 PUSH2 0x1D8F SWAP2 SWAP1 PUSH2 0x3003 JUMP JUMPDEST POP SWAP2 PUSH1 0x20 ADD SWAP2 SWAP1 PUSH1 0x1 ADD SWAP1 PUSH2 0x1D78 JUMP JUMPDEST JUMPDEST POP SWAP1 POP PUSH2 0x1DAD SWAP2 SWAP1 PUSH2 0x1E2B JUMP JUMPDEST POP SWAP1 JUMP JUMPDEST PUSH1 0x40 MLOAD DUP1 PUSH1 0x40 ADD PUSH1 0x40 MSTORE DUP1 PUSH2 0x1DC4 PUSH2 0x1CE4 JUMP JUMPDEST DUP2 MSTORE PUSH1 0x20 ADD PUSH1 0x60 DUP2 MSTORE POP SWAP1 JUMP JUMPDEST POP DUP1 SLOAD PUSH0 DUP3 SSTORE SWAP1 PUSH0 MSTORE PUSH1 0x20 PUSH0 KECCAK256 SWAP1 DUP2 ADD SWAP1 PUSH2 0x1DEC SWAP2 SWAP1 PUSH2 0x1E2B JUMP JUMPDEST POP JUMP JUMPDEST POP DUP1 SLOAD PUSH0 DUP3 SSTORE PUSH1 0x4 MUL SWAP1 PUSH0 MSTORE PUSH1 0x20 PUSH0 KECCAK256 SWAP1 DUP2 ADD SWAP1 PUSH2 0x1E0D SWAP2 SWAP1 PUSH2 0x1E4E JUMP JUMPDEST POP JUMP JUMPDEST JUMPDEST DUP1 DUP3 GT ISZERO PUSH2 0x1E27 JUMPI PUSH0 DUP2 PUSH0 SWAP1 SSTORE POP PUSH1 0x1 ADD PUSH2 0x1E11 JUMP JUMPDEST POP SWAP1 JUMP JUMPDEST JUMPDEST DUP1 DUP3 GT ISZERO PUSH2 0x1E4A JUMPI PUSH0 DUP2 DUP2 PUSH2 0x1E41 SWAP2 SWAP1 PUSH2 0x1D1D JUMP JUMPDEST POP PUSH1 0x1 ADD PUSH2 0x1E2C JUMP JUMPDEST POP SWAP1 JUMP JUMPDEST JUMPDEST DUP1 DUP3 GT ISZERO PUSH2 0x1E84 JUMPI PUSH0 PUSH0 DUP3 ADD PUSH0 SWAP1 SSTORE PUSH1 0x1 DUP3 ADD PUSH0 PUSH2 0x1E6D SWAP2 SWAP1 PUSH2 0x1D1D JUMP JUMPDEST PUSH1 0x2 DUP3 ADD PUSH0 SWAP1 SSTORE PUSH1 0x3 DUP3 ADD PUSH0 SWAP1 SSTORE POP PUSH1 0x4 ADD PUSH2 0x1E4F JUMP JUMPDEST POP SWAP1 JUMP JUMPDEST PUSH0 PUSH1 0x40 MLOAD SWAP1 POP SWAP1 JUMP JUMPDEST PUSH0 PUSH0 REVERT JUMPDEST PUSH0 PUSH0 REVERT JUMPDEST PUSH0 DUP2 SWAP1 POP SWAP2 SWAP1 POP JUMP JUMPDEST PUSH2 0x1EAB DUP2 PUSH2 0x1E99 JUMP JUMPDEST DUP2 EQ PUSH2 0x1EB5 JUMPI PUSH0 PUSH0 REVERT JUMPDEST POP JUMP JUMPDEST PUSH0 DUP2 CALLDATALOAD SWAP1 POP PUSH2 0x1EC6 DUP2 PUSH2 0x1EA2 JUMP JUMPDEST SWAP3 SWAP2 POP POP JUMP JUMPDEST PUSH0 PUSH0 PUSH0 PUSH1 0x60 DUP5 DUP7 SUB SLT ISZERO PUSH2 0x1EE3 JUMPI PUSH2 0x1EE2 PUSH2 0x1E91 JUMP JUMPDEST JUMPDEST PUSH0 PUSH2 0x1EF0 DUP7 DUP3 DUP8 ADD PUSH2 0x1EB8 JUMP JUMPDEST SWAP4 POP POP PUSH1 0x20 PUSH2 0x1F01 DUP7 DUP3 DUP8 ADD PUSH2 0x1EB8 JUMP JUMPDEST SWAP3 POP POP PUSH1 0x40 PUSH2 0x1F12 DUP7 DUP3 DUP8 ADD PUSH2 0x1EB8 JUMP JUMPDEST SWAP2 POP POP SWAP3 POP SWAP3 POP SWAP3 JUMP JUMPDEST PUSH0 PUSH20 0xFFFFFFFFFFFFFFFFFFFFFFFFFFFFFFFFFFFFFFFF DUP3 AND SWAP1 POP SWAP2 SWAP1 POP JUMP JUMPDEST PUSH0 PUSH2 0x1F45 DUP3 PUSH2 0x1F1C JUMP JUMPDEST SWAP1 POP SWAP2 SWAP1 POP JUMP JUMPDEST PUSH2 0x1F55 DUP2 PUSH2 0x1F3B JUMP JUMPDEST DUP2 EQ PUSH2 0x1F5F JUMPI PUSH0 PUSH0 REVERT JUMPDEST POP JUMP JUMPDEST PUSH0 DUP2 CALLDATALOAD SWAP1 POP PUSH2 0x1F70 DUP2 PUSH2 0x1F4C JUMP JUMPDEST SWAP3 SWAP2 POP POP JUMP JUMPDEST PUSH0 PUSH1 0x20 DUP3 DUP5 SUB SLT ISZERO PUSH2 0x1F8B JUMPI PUSH2 0x1F8A PUSH2 0x1E91 JUMP JUMPDEST JUMPDEST PUSH0 PUSH2 0x1F98 DUP5 DUP3 DUP6 ADD PUSH2 0x1F62 JUMP JUMPDEST SWAP2 POP POP SWAP3 SWAP2 POP POP JUMP JUMPDEST PUSH2 0x1FAA DUP2 PUSH2 0x1E99 JUMP JUMPDEST DUP3 MSTORE POP POP JUMP JUMPDEST PUSH0 PUSH1 0x20 DUP3 ADD SWAP1 POP PUSH2 0x1FC3 PUSH0 DUP4 ADD DUP5 PUSH2 0x1FA1 JUMP JUMPDEST SWAP3 SWAP2 POP POP JUMP JUMPDEST PUSH0 PUSH1 0x20 DUP3 DUP5 SUB SLT ISZERO PUSH2 0x1FDE JUMPI PUSH2 0x1FDD PUSH2 0x1E91 JUMP JUMPDEST JUMPDEST PUSH0 PUSH2 0x1FEB DUP5 DUP3 DUP6 ADD PUSH2 0x1EB8 JUMP JUMPDEST SWAP2 POP POP SWAP3 SWAP2 POP POP JUMP JUMPDEST PUSH2 0x1FFD DUP2 PUSH2 0x1E99 JUMP JUMPDEST DUP3 MSTORE POP POP JUMP JUMPDEST PUSH0 DUP2 MLOAD SWAP1 POP SWAP2 SWAP1 POP JUMP JUMPDEST PUSH0 DUP3 DUP3 MSTORE PUSH1 0x20 DUP3 ADD SWAP1 POP SWAP3 SWAP2 POP POP JUMP JUMPDEST DUP3 DUP2 DUP4 MCOPY PUSH0 DUP4 DUP4 ADD MSTORE POP POP POP JUMP JUMPDEST PUSH0 PUSH1 0x1F NOT PUSH1 0x1F DUP4 ADD AND SWAP1 POP SWAP2 SWAP1 POP JUMP JUMPDEST PUSH0 PUSH2 0x2045 DUP3 PUSH2 0x2003 JUMP JUMPDEST PUSH2 0x204F DUP2 DUP6 PUSH2 0x200D JUMP JUMPDEST SWAP4 POP PUSH2 0x205F DUP2 DUP6 PUSH1 0x20 DUP7 ADD PUSH2 0x201D JUMP JUMPDEST PUSH2 0x2068 DUP2 PUSH2 0x202B JUMP JUMPDEST DUP5 ADD SWAP2 POP POP SWAP3 SWAP2 POP POP JUMP JUMPDEST PUSH0 DUP2 MLOAD SWAP1 POP SWAP2 SWAP1 POP JUMP JUMPDEST PUSH0 DUP3 DUP3 MSTORE PUSH1 0x20 DUP3 ADD SWAP1 POP SWAP3 SWAP2 POP POP JUMP JUMPDEST PUSH0 DUP2 SWAP1 POP PUSH1 0x20 DUP3 ADD SWAP1 POP SWAP2 SWAP1 POP JUMP JUMPDEST PUSH0 PUSH2 0x20A7 DUP4 DUP4 PUSH2 0x203B JUMP JUMPDEST SWAP1 POP SWAP3 SWAP2 POP POP JUMP JUMPDEST PUSH0 PUSH1 0x20 DUP3 ADD SWAP1 POP SWAP2 SWAP1 POP JUMP JUMPDEST PUSH0 PUSH2 0x20C5 DUP3 PUSH2 0x2073 JUMP JUMPDEST PUSH2 0x20CF DUP2 DUP6 PUSH2 0x207D JUMP JUMPDEST SWAP4 POP DUP4 PUSH1 0x20 DUP3 MUL DUP6 ADD PUSH2 0x20E1 DUP6 PUSH2 0x208D JUMP JUMPDEST DUP1 PUSH0 JUMPDEST DUP6 DUP2 LT ISZERO PUSH2 0x211C JUMPI DUP5 DUP5 SUB DUP10 MSTORE DUP2 MLOAD PUSH2 0x20FD DUP6 DUP3 PUSH2 0x209C JUMP JUMPDEST SWAP5 POP PUSH2 0x2108 DUP4 PUSH2 0x20AF JUMP JUMPDEST SWAP3 POP PUSH1 0x20 DUP11 ADD SWAP10 POP POP PUSH1 0x1 DUP2 ADD SWAP1 POP PUSH2 0x20E4 JUMP JUMPDEST POP DUP3 SWAP8 POP DUP8 SWAP6 POP POP POP POP POP POP SWAP3 SWAP2 POP POP JUMP JUMPDEST PUSH0 PUSH1 0xE0 DUP4 ADD PUSH0 DUP4 ADD MLOAD PUSH2 0x2143 PUSH0 DUP7 ADD DUP3 PUSH2 0x1FF4 JUMP JUMPDEST POP PUSH1 0x20 DUP4 ADD MLOAD DUP5 DUP3 SUB PUSH1 0x20 DUP7 ADD MSTORE PUSH2 0x215B DUP3 DUP3 PUSH2 0x203B JUMP JUMPDEST SWAP2 POP POP PUSH1 0x40 DUP4 ADD MLOAD DUP5 DUP3 SUB PUSH1 0x40 DUP7 ADD MSTORE PUSH2 0x2175 DUP3 DUP3 PUSH2 0x203B JUMP JUMPDEST SWAP2 POP POP PUSH1 0x60 DUP4 ADD MLOAD PUSH2 0x218A PUSH1 0x60 DUP7 ADD DUP3 PUSH2 0x1FF4 JUMP JUMPDEST POP PUSH1 0x80 DUP4 ADD MLOAD DUP5 DUP3 SUB PUSH1 0x80 DUP7 ADD MSTORE PUSH2 0x21A2 DUP3 DUP3 PUSH2 0x20BB JUMP JUMPDEST SWAP2 POP POP PUSH1 0xA0 DUP4 ADD MLOAD PUSH2 0x21B7 PUSH1 0xA0 DUP7 ADD DUP3 PUSH2 0x1FF4 JUMP JUMPDEST POP PUSH1 0xC0 DUP4 ADD MLOAD PUSH2 0x21CA PUSH1 0xC0 DUP7 ADD DUP3 PUSH2 0x1FF4 JUMP JUMPDEST POP DUP1 SWAP2 POP POP SWAP3 SWAP2 POP POP JUMP JUMPDEST PUSH0 PUSH1 0x20 DUP3 ADD SWAP1 POP DUP2 DUP2 SUB PUSH0 DUP4 ADD MSTORE PUSH2 0x21ED DUP2 DUP5 PUSH2 0x212E JUMP JUMPDEST SWAP1 POP SWAP3 SWAP2 POP POP JUMP JUMPDEST PUSH32 0x4E487B7100000000000000000000000000000000000000000000000000000000 PUSH0 MSTORE PUSH1 0x21 PUSH1 0x4 MSTORE PUSH1 0x24 PUSH0 REVERT JUMPDEST PUSH1 0x3 DUP2 LT PUSH2 0x2233 JUMPI PUSH2 0x2232 PUSH2 0x21F5 JUMP JUMPDEST JUMPDEST POP JUMP JUMPDEST PUSH0 DUP2 SWAP1 POP PUSH2 0x2243 DUP3 PUSH2 0x2222 JUMP JUMPDEST SWAP2 SWAP1 POP JUMP JUMPDEST PUSH0 PUSH2 0x2252 DUP3 PUSH2 0x2236 JUMP JUMPDEST SWAP1 POP SWAP2 SWAP1 POP JUMP JUMPDEST PUSH2 0x2262 DUP2 PUSH2 0x2248 JUMP JUMPDEST DUP3 MSTORE POP POP JUMP JUMPDEST PUSH0 PUSH1 0x20 DUP3 ADD SWAP1 POP PUSH2 0x227B PUSH0 DUP4 ADD DUP5 PUSH2 0x2259 JUMP JUMPDEST SWAP3 SWAP2 POP POP JUMP JUMPDEST PUSH0 PUSH0 PUSH1 0x40 DUP4 DUP6 SUB SLT ISZERO PUSH2 0x2297 JUMPI PUSH2 0x2296 PUSH2 0x1E91 JUMP JUMPDEST JUMPDEST PUSH0 PUSH2 0x22A4 DUP6 DUP3 DUP7 ADD PUSH2 0x1EB8 JUMP JUMPDEST SWAP3 POP POP PUSH1 0x20 PUSH2 0x22B5 DUP6 DUP3 DUP7 ADD PUSH2 0x1EB8 JUMP JUMPDEST SWAP2 POP POP SWAP3 POP SWAP3 SWAP1 POP JUMP JUMPDEST PUSH0 PUSH0 REVERT JUMPDEST PUSH32 0x4E487B7100000000000000000000000000000000000000000000000000000000 PUSH0 MSTORE PUSH1 0x41 PUSH1 0x4 MSTORE PUSH1 0x24 PUSH0 REVERT JUMPDEST PUSH2 0x22F9 DUP3 PUSH2 0x202B JUMP JUMPDEST DUP2 ADD DUP2 DUP2 LT PUSH8 0xFFFFFFFFFFFFFFFF DUP3 GT OR ISZERO PUSH2 0x2318 JUMPI PUSH2 0x2317 PUSH2 0x22C3 JUMP JUMPDEST JUMPDEST DUP1 PUSH1 0x40 MSTORE POP POP POP JUMP JUMPDEST PUSH0 PUSH2 0x232A PUSH2 0x1E88 JUMP JUMPDEST SWAP1 POP PUSH2 0x2336 DUP3 DUP3 PUSH2 0x22F0 JUMP JUMPDEST SWAP2 SWAP1 POP JUMP JUMPDEST PUSH0 PUSH8 0xFFFFFFFFFFFFFFFF DUP3 GT ISZERO PUSH2 0x2355 JUMPI PUSH2 0x2354 PUSH2 0x22C3 JUMP JUMPDEST JUMPDEST PUSH1 0x20 DUP3 MUL SWAP1 POP PUSH1 0x20 DUP2 ADD SWAP1 POP SWAP2 SWAP1 POP JUMP JUMPDEST PUSH0 PUSH0 REVERT JUMPDEST PUSH0 PUSH0 REVERT JUMPDEST PUSH0 PUSH0 REVERT JUMPDEST PUSH0 PUSH0 REVERT JUMPDEST PUSH0 PUSH8 0xFFFFFFFFFFFFFFFF DUP3 GT ISZERO PUSH2 0x2390 JUMPI PUSH2 0x238F PUSH2 0x22C3 JUMP JUMPDEST JUMPDEST PUSH2 0x2399 DUP3 PUSH2 0x202B JUMP JUMPDEST SWAP1 POP PUSH1 0x20 DUP2 ADD SWAP1 POP SWAP2 SWAP1 POP JUMP JUMPDEST DUP3 DUP2 DUP4 CALLDATACOPY PUSH0 DUP4 DUP4 ADD MSTORE POP POP POP JUMP JUMPDEST PUSH0 PUSH2 0x23C6 PUSH2 0x23C1 DUP5 PUSH2 0x2376 JUMP JUMPDEST PUSH2 0x2321 JUMP JUMPDEST SWAP1 POP DUP3 DUP2 MSTORE PUSH1 0x20 DUP2 ADD DUP5 DUP5 DUP5 ADD GT ISZERO PUSH2 0x23E2 JUMPI PUSH2 0x23E1 PUSH2 0x2372 JUMP JUMPDEST JUMPDEST PUSH2 0x23ED DUP5 DUP3 DUP6 PUSH2 0x23A6 JUMP JUMPDEST POP SWAP4 SWAP3 POP POP POP JUMP JUMPDEST PUSH0 DUP3 PUSH1 0x1F DUP4 ADD SLT PUSH2 0x2409 JUMPI PUSH2 0x2408 PUSH2 0x22BF JUMP JUMPDEST JUMPDEST DUP2 CALLDATALOAD PUSH2 0x2419 DUP5 DUP3 PUSH1 0x20 DUP7 ADD PUSH2 0x23B4 JUMP JUMPDEST SWAP2 POP POP SWAP3 SWAP2 POP POP JUMP JUMPDEST PUSH0 PUSH1 0x60 DUP3 DUP5 SUB SLT ISZERO PUSH2 0x2437 JUMPI PUSH2 0x2436 PUSH2 0x236A JUMP JUMPDEST JUMPDEST PUSH2 0x2441 PUSH1 0x60 PUSH2 0x2321 JUMP JUMPDEST SWAP1 POP PUSH0 DUP3 ADD CALLDATALOAD PUSH8 0xFFFFFFFFFFFFFFFF DUP2 GT ISZERO PUSH2 0x2460 JUMPI PUSH2 0x245F PUSH2 0x236E JUMP JUMPDEST JUMPDEST PUSH2 0x246C DUP5 DUP3 DUP6 ADD PUSH2 0x23F5 JUMP JUMPDEST PUSH0 DUP4 ADD MSTORE POP PUSH1 0x20 PUSH2 0x247F DUP5 DUP3 DUP6 ADD PUSH2 0x1EB8 JUMP JUMPDEST PUSH1 0x20 DUP4 ADD MSTORE POP PUSH1 0x40 PUSH2 0x2493 DUP5 DUP3 DUP6 ADD PUSH2 0x1EB8 JUMP JUMPDEST PUSH1 0x40 DUP4 ADD MSTORE POP SWAP3 SWAP2 POP POP JUMP JUMPDEST PUSH0 PUSH2 0x24B1 PUSH2 0x24AC DUP5 PUSH2 0x233B JUMP JUMPDEST PUSH2 0x2321 JUMP JUMPDEST SWAP1 POP DUP1 DUP4 DUP3 MSTORE PUSH1 0x20 DUP3 ADD SWAP1 POP PUSH1 0x20 DUP5 MUL DUP4 ADD DUP6 DUP2 GT ISZERO PUSH2 0x24D4 JUMPI PUSH2 0x24D3 PUSH2 0x2366 JUMP JUMPDEST JUMPDEST DUP4 JUMPDEST DUP2 DUP2 LT ISZERO PUSH2 0x251B JUMPI DUP1 CALLDATALOAD PUSH8 0xFFFFFFFFFFFFFFFF DUP2 GT ISZERO PUSH2 0x24F9 JUMPI PUSH2 0x24F8 PUSH2 0x22BF JUMP JUMPDEST JUMPDEST DUP1 DUP7 ADD PUSH2 0x2506 DUP10 DUP3 PUSH2 0x2422 JUMP JUMPDEST DUP6 MSTORE PUSH1 0x20 DUP6 ADD SWAP5 POP POP POP PUSH1 0x20 DUP2 ADD SWAP1 POP PUSH2 0x24D6 JUMP JUMPDEST POP POP POP SWAP4 SWAP3 POP POP POP JUMP JUMPDEST PUSH0 DUP3 PUSH1 0x1F DUP4 ADD SLT PUSH2 0x2539 JUMPI PUSH2 0x2538 PUSH2 0x22BF JUMP JUMPDEST JUMPDEST DUP2 CALLDATALOAD PUSH2 0x2549 DUP5 DUP3 PUSH1 0x20 DUP7 ADD PUSH2 0x249F JUMP JUMPDEST SWAP2 POP POP SWAP3 SWAP2 POP POP JUMP JUMPDEST PUSH0 PUSH0 PUSH1 0x40 DUP4 DUP6 SUB SLT ISZERO PUSH2 0x2568 JUMPI PUSH2 0x2567 PUSH2 0x1E91 JUMP JUMPDEST JUMPDEST PUSH0 PUSH2 0x2575 DUP6 DUP3 DUP7 ADD PUSH2 0x1EB8 JUMP JUMPDEST SWAP3 POP POP PUSH1 0x20 DUP4 ADD CALLDATALOAD PUSH8 0xFFFFFFFFFFFFFFFF DUP2 GT ISZERO PUSH2 0x2596 JUMPI PUSH2 0x2595 PUSH2 0x1E95 JUMP JUMPDEST JUMPDEST PUSH2 0x25A2 DUP6 DUP3 DUP7 ADD PUSH2 0x2525 JUMP JUMPDEST SWAP2 POP POP SWAP3 POP SWAP3 SWAP1 POP JUMP JUMPDEST PUSH0 PUSH8 0xFFFFFFFFFFFFFFFF DUP3 GT ISZERO PUSH2 0x25C6 JUMPI PUSH2 0x25C5 PUSH2 0x22C3 JUMP JUMPDEST JUMPDEST PUSH1 0x20 DUP3 MUL SWAP1 POP PUSH1 0x20 DUP2 ADD SWAP1 POP SWAP2 SWAP1 POP JUMP JUMPDEST PUSH0 PUSH2 0x25E9 PUSH2 0x25E4 DUP5 PUSH2 0x25AC JUMP JUMPDEST PUSH2 0x2321 JUMP JUMPDEST SWAP1 POP DUP1 DUP4 DUP3 MSTORE PUSH1 0x20 DUP3 ADD SWAP1 POP PUSH1 0x20 DUP5 MUL DUP4 ADD DUP6 DUP2 GT ISZERO PUSH2 0x260C JUMPI PUSH2 0x260B PUSH2 0x2366 JUMP JUMPDEST JUMPDEST DUP4 JUMPDEST DUP2 DUP2 LT ISZERO PUSH2 0x2653 JUMPI DUP1 CALLDATALOAD PUSH8 0xFFFFFFFFFFFFFFFF DUP2 GT ISZERO PUSH2 0x2631 JUMPI PUSH2 0x2630 PUSH2 0x22BF JUMP JUMPDEST JUMPDEST DUP1 DUP7 ADD PUSH2 0x263E DUP10 DUP3 PUSH2 0x23F5 JUMP JUMPDEST DUP6 MSTORE PUSH1 0x20 DUP6 ADD SWAP5 POP POP POP PUSH1 0x20 DUP2 ADD SWAP1 POP PUSH2 0x260E JUMP JUMPDEST POP POP POP SWAP4 SWAP3 POP POP POP JUMP JUMPDEST PUSH0 DUP3 PUSH1 0x1F DUP4 ADD SLT PUSH2 0x2671 JUMPI PUSH2 0x2670 PUSH2 0x22BF JUMP JUMPDEST JUMPDEST DUP2 CALLDATALOAD PUSH2 0x2681 DUP5 DUP3 PUSH1 0x20 DUP7 ADD PUSH2 0x25D7 JUMP JUMPDEST SWAP2 POP POP SWAP3 SWAP2 POP POP JUMP JUMPDEST PUSH0 PUSH0 PUSH0 PUSH0 PUSH0 PUSH1 0xA0 DUP7 DUP9 SUB SLT ISZERO PUSH2 0x26A3 JUMPI PUSH2 0x26A2 PUSH2 0x1E91 JUMP JUMPDEST JUMPDEST PUSH0 PUSH2 0x26B0 DUP9 DUP3 DUP10 ADD PUSH2 0x1EB8 JUMP JUMPDEST SWAP6 POP POP PUSH1 0x20 DUP7 ADD CALLDATALOAD PUSH8 0xFFFFFFFFFFFFFFFF DUP2 GT ISZERO PUSH2 0x26D1 JUMPI PUSH2 0x26D0 PUSH2 0x1E95 JUMP JUMPDEST JUMPDEST PUSH2 0x26DD DUP9 DUP3 DUP10 ADD PUSH2 0x23F5 JUMP JUMPDEST SWAP5 POP POP PUSH1 0x40 DUP7 ADD CALLDATALOAD PUSH8 0xFFFFFFFFFFFFFFFF DUP2 GT ISZERO PUSH2 0x26FE JUMPI PUSH2 0x26FD PUSH2 0x1E95 JUMP JUMPDEST JUMPDEST PUSH2 0x270A DUP9 DUP3 DUP10 ADD PUSH2 0x23F5 JUMP JUMPDEST SWAP4 POP POP PUSH1 0x60 PUSH2 0x271B DUP9 DUP3 DUP10 ADD PUSH2 0x1EB8 JUMP JUMPDEST SWAP3 POP POP PUSH1 0x80 DUP7 ADD CALLDATALOAD PUSH8 0xFFFFFFFFFFFFFFFF DUP2 GT ISZERO PUSH2 0x273C JUMPI PUSH2 0x273B PUSH2 0x1E95 JUMP JUMPDEST JUMPDEST PUSH2 0x2748 DUP9 DUP3 DUP10 ADD PUSH2 0x265D JUMP JUMPDEST SWAP2 POP POP SWAP3 SWAP6 POP SWAP3 SWAP6 SWAP1 SWAP4 POP JUMP JUMPDEST PUSH2 0x275E DUP2 PUSH2 0x1F3B JUMP JUMPDEST DUP3 MSTORE POP POP JUMP JUMPDEST PUSH0 PUSH1 0x20 DUP3 ADD SWAP1 POP PUSH2 0x2777 PUSH0 DUP4 ADD DUP5 PUSH2 0x2755 JUMP JUMPDEST SWAP3 SWAP2 POP POP JUMP JUMPDEST PUSH0 DUP2 MLOAD SWAP1 POP SWAP2 SWAP1 POP JUMP JUMPDEST PUSH0 DUP3 DUP3 MSTORE PUSH1 0x20 DUP3 ADD SWAP1 POP SWAP3 SWAP2 POP POP JUMP JUMPDEST PUSH0 DUP2 SWAP1 POP PUSH1 0x20 DUP3 ADD SWAP1 POP SWAP2 SWAP1 POP JUMP JUMPDEST PUSH0 PUSH1 0x80 DUP4 ADD PUSH0 DUP4 ADD MLOAD PUSH2 0x27BB PUSH0 DUP7 ADD DUP3 PUSH2 0x1FF4 JUMP JUMPDEST POP PUSH1 0x20 DUP4 ADD MLOAD DUP5 DUP3 SUB PUSH1 0x20 DUP7 ADD MSTORE PUSH2 0x27D3 DUP3 DUP3 PUSH2 0x203B JUMP JUMPDEST SWAP2 POP POP PUSH1 0x40 DUP4 ADD MLOAD PUSH2 0x27E8 PUSH1 0x40 DUP7 ADD DUP3 PUSH2 0x1FF4 JUMP JUMPDEST POP PUSH1 0x60 DUP4 ADD MLOAD PUSH2 0x27FB PUSH1 0x60 DUP7 ADD DUP3 PUSH2 0x1FF4 JUMP JUMPDEST POP DUP1 SWAP2 POP POP SWAP3 SWAP2 POP POP JUMP JUMPDEST PUSH0 PUSH2 0x2811 DUP4 DUP4 PUSH2 0x27A6 JUMP JUMPDEST SWAP1 POP SWAP3 SWAP2 POP POP JUMP JUMPDEST PUSH0 PUSH1 0x20 DUP3 ADD SWAP1 POP SWAP2 SWAP1 POP JUMP JUMPDEST PUSH0 PUSH2 0x282F DUP3 PUSH2 0x277D JUMP JUMPDEST PUSH2 0x2839 DUP2 DUP6 PUSH2 0x2787 JUMP JUMPDEST SWAP4 POP DUP4 PUSH1 0x20 DUP3 MUL DUP6 ADD PUSH2 0x284B DUP6 PUSH2 0x2797 JUMP JUMPDEST DUP1 PUSH0 JUMPDEST DUP6 DUP2 LT ISZERO PUSH2 0x2886 JUMPI DUP5 DUP5 SUB DUP10 MSTORE DUP2 MLOAD PUSH2 0x2867 DUP6 DUP3 PUSH2 0x2806 JUMP JUMPDEST SWAP5 POP PUSH2 0x2872 DUP4 PUSH2 0x2819 JUMP JUMPDEST SWAP3 POP PUSH1 0x20 DUP11 ADD SWAP10 POP POP PUSH1 0x1 DUP2 ADD SWAP1 POP PUSH2 0x284E JUMP JUMPDEST POP DUP3 SWAP8 POP DUP8 SWAP6 POP POP POP POP POP POP SWAP3 SWAP2 POP POP JUMP JUMPDEST PUSH0 PUSH1 0x20 DUP3 ADD SWAP1 POP DUP2 DUP2 SUB PUSH0 DUP4 ADD MSTORE PUSH2 0x28B0 DUP2 DUP5 PUSH2 0x2825 JUMP JUMPDEST SWAP1 POP SWAP3 SWAP2 POP POP JUMP JUMPDEST PUSH0 PUSH0 PUSH0 PUSH0 PUSH0 PUSH0 PUSH1 0xC0 DUP8 DUP10 SUB SLT ISZERO PUSH2 0x28D2 JUMPI PUSH2 0x28D1 PUSH2 0x1E91 JUMP JUMPDEST JUMPDEST PUSH0 PUSH2 0x28DF DUP10 DUP3 DUP11 ADD PUSH2 0x1EB8 JUMP JUMPDEST SWAP7 POP POP PUSH1 0x20 DUP8 ADD CALLDATALOAD PUSH8 0xFFFFFFFFFFFFFFFF DUP2 GT ISZERO PUSH2 0x2900 JUMPI PUSH2 0x28FF PUSH2 0x1E95 JUMP JUMPDEST JUMPDEST PUSH2 0x290C DUP10 DUP3 DUP11 ADD PUSH2 0x23F5 JUMP JUMPDEST SWAP6 POP POP PUSH1 0x40 DUP8 ADD CALLDATALOAD PUSH8 0xFFFFFFFFFFFFFFFF DUP2 GT ISZERO PUSH2 0x292D JUMPI PUSH2 0x292C PUSH2 0x1E95 JUMP JUMPDEST JUMPDEST PUSH2 0x2939 DUP10 DUP3 DUP11 ADD PUSH2 0x23F5 JUMP JUMPDEST SWAP5 POP POP PUSH1 0x60 PUSH2 0x294A DUP10 DUP3 DUP11 ADD PUSH2 0x1EB8 JUMP JUMPDEST SWAP4 POP POP PUSH1 0x80 DUP8 ADD CALLDATALOAD PUSH8 0xFFFFFFFFFFFFFFFF DUP2 GT ISZERO PUSH2 0x296B JUMPI PUSH2 0x296A PUSH2 0x1E95 JUMP JUMPDEST JUMPDEST PUSH2 0x2977 DUP10 DUP3 DUP11 ADD PUSH2 0x265D JUMP JUMPDEST SWAP3 POP POP PUSH1 0xA0 DUP8 ADD CALLDATALOAD PUSH8 0xFFFFFFFFFFFFFFFF DUP2 GT ISZERO PUSH2 0x2998 JUMPI PUSH2 0x2997 PUSH2 0x1E95 JUMP JUMPDEST JUMPDEST PUSH2 0x29A4 DUP10 DUP3 DUP11 ADD PUSH2 0x2525 JUMP JUMPDEST SWAP2 POP POP SWAP3 SWAP6 POP SWAP3 SWAP6 POP SWAP3 SWAP6 JUMP JUMPDEST PUSH0 DUP2 MLOAD SWAP1 POP SWAP2 SWAP1 POP JUMP JUMPDEST PUSH0 DUP3 DUP3 MSTORE PUSH1 0x20 DUP3 ADD SWAP1 POP SWAP3 SWAP2 POP POP JUMP JUMPDEST PUSH0 DUP2 SWAP1 POP PUSH1 0x20 DUP3 ADD SWAP1 POP SWAP2 SWAP1 POP JUMP JUMPDEST PUSH0 PUSH1 0xE0 DUP4 ADD PUSH0 DUP4 ADD MLOAD PUSH2 0x29EF PUSH0 DUP7 ADD DUP3 PUSH2 0x1FF4 JUMP JUMPDEST POP PUSH1 0x20 DUP4 ADD MLOAD DUP5 DUP3 SUB PUSH1 0x20 DUP7 ADD MSTORE PUSH2 0x2A07 DUP3 DUP3 PUSH2 0x203B JUMP JUMPDEST SWAP2 POP POP PUSH1 0x40 DUP4 ADD MLOAD DUP5 DUP3 SUB PUSH1 0x40 DUP7 ADD MSTORE PUSH2 0x2A21 DUP3 DUP3 PUSH2 0x203B JUMP JUMPDEST SWAP2 POP POP PUSH1 0x60 DUP4 ADD MLOAD PUSH2 0x2A36 PUSH1 0x60 DUP7 ADD DUP3 PUSH2 0x1FF4 JUMP JUMPDEST POP PUSH1 0x80 DUP4 ADD MLOAD DUP5 DUP3 SUB PUSH1 0x80 DUP7 ADD MSTORE PUSH2 0x2A4E DUP3 DUP3 PUSH2 0x20BB JUMP JUMPDEST SWAP2 POP POP PUSH1 0xA0 DUP4 ADD MLOAD PUSH2 0x2A63 PUSH1 0xA0 DUP7 ADD DUP3 PUSH2 0x1FF4 JUMP JUMPDEST POP PUSH1 0xC0 DUP4 ADD MLOAD PUSH2 0x2A76 PUSH1 0xC0 DUP7 ADD DUP3 PUSH2 0x1FF4 JUMP JUMPDEST POP DUP1 SWAP2 POP POP SWAP3 SWAP2 POP POP JUMP JUMPDEST PUSH0 DUP3 DUP3 MSTORE PUSH1 0x20 DUP3 ADD SWAP1 POP SWAP3 SWAP2 POP POP JUMP JUMPDEST PUSH0 PUSH2 0x2A9B DUP3 PUSH2 0x277D JUMP JUMPDEST PUSH2 0x2AA5 DUP2 DUP6 PUSH2 0x2A81 JUMP JUMPDEST SWAP4 POP DUP4 PUSH1 0x20 DUP3 MUL DUP6 ADD PUSH2 0x2AB7 DUP6 PUSH2 0x2797 JUMP JUMPDEST DUP1 PUSH0 JUMPDEST DUP6 DUP2 LT ISZERO PUSH2 0x2AF2 JUMPI DUP5 DUP5 SUB DUP10 MSTORE DUP2 MLOAD PUSH2 0x2AD3 DUP6 DUP3 PUSH2 0x2806 JUMP JUMPDEST SWAP5 POP PUSH2 0x2ADE DUP4 PUSH2 0x2819 JUMP JUMPDEST SWAP3 POP PUSH1 0x20 DUP11 ADD SWAP10 POP POP PUSH1 0x1 DUP2 ADD SWAP1 POP PUSH2 0x2ABA JUMP JUMPDEST POP DUP3 SWAP8 POP DUP8 SWAP6 POP POP POP POP POP POP SWAP3 SWAP2 POP POP JUMP JUMPDEST PUSH0 PUSH1 0x40 DUP4 ADD PUSH0 DUP4 ADD MLOAD DUP5 DUP3 SUB PUSH0 DUP7 ADD MSTORE PUSH2 0x2B1E DUP3 DUP3 PUSH2 0x29DA JUMP JUMPDEST SWAP2 POP POP PUSH1 0x20 DUP4 ADD MLOAD DUP5 DUP3 SUB PUSH1 0x20 DUP7 ADD MSTORE PUSH2 0x2B38 DUP3 DUP3 PUSH2 0x2A91 JUMP JUMPDEST SWAP2 POP POP DUP1 SWAP2 POP POP SWAP3 SWAP2 POP POP JUMP JUMPDEST PUSH0 PUSH2 0x2B50 DUP4 DUP4 PUSH2 0x2B04 JUMP JUMPDEST SWAP1 POP SWAP3 SWAP2 POP POP JUMP JUMPDEST PUSH0 PUSH1 0x20 DUP3 ADD SWAP1 POP SWAP2 SWAP1 POP JUMP JUMPDEST PUSH0 PUSH2 0x2B6E DUP3 PUSH2 0x29B1 JUMP JUMPDEST PUSH2 0x2B78 DUP2 DUP6 PUSH2 0x29BB JUMP JUMPDEST SWAP4 POP DUP4 PUSH1 0x20 DUP3 MUL DUP6 ADD PUSH2 0x2B8A DUP6 PUSH2 0x29CB JUMP JUMPDEST DUP1 PUSH0 JUMPDEST DUP6 DUP2 LT ISZERO PUSH2 0x2BC5 JUMPI DUP5 DUP5 SUB DUP10 MSTORE DUP2 MLOAD PUSH2 0x2BA6 DUP6 DUP3 PUSH2 0x2B45 JUMP JUMPDEST SWAP5 POP PUSH2 0x2BB1 DUP4 PUSH2 0x2B58 JUMP JUMPDEST SWAP3 POP PUSH1 0x20 DUP11 ADD SWAP10 POP POP PUSH1 0x1 DUP2 ADD SWAP1 POP PUSH2 0x2B8D JUMP JUMPDEST POP DUP3 SWAP8 POP DUP8 SWAP6 POP POP POP POP POP POP SWAP3 SWAP2 POP POP JUMP JUMPDEST PUSH0 PUSH1 0x20 DUP3 ADD SWAP1 POP DUP2 DUP2 SUB PUSH0 DUP4 ADD MSTORE PUSH2 0x2BEF DUP2 DUP5 PUSH2 0x2B64 JUMP JUMPDEST SWAP1 POP SWAP3 SWAP2 POP POP JUMP JUMPDEST PUSH0 PUSH0 PUSH0 PUSH1 0x60 DUP5 DUP7 SUB SLT ISZERO PUSH2 0x2C0E JUMPI PUSH2 0x2C0D PUSH2 0x1E91 JUMP JUMPDEST JUMPDEST PUSH0 PUSH2 0x2C1B DUP7 DUP3 DUP8 ADD PUSH2 0x1EB8 JUMP JUMPDEST SWAP4 POP POP PUSH1 0x20 PUSH2 0x2C2C DUP7 DUP3 DUP8 ADD PUSH2 0x1EB8 JUMP JUMPDEST SWAP3 POP POP PUSH1 0x40 DUP5 ADD CALLDATALOAD PUSH8 0xFFFFFFFFFFFFFFFF DUP2 GT ISZERO PUSH2 0x2C4D JUMPI PUSH2 0x2C4C PUSH2 0x1E95 JUMP JUMPDEST JUMPDEST PUSH2 0x2C59 DUP7 DUP3 DUP8 ADD PUSH2 0x2422 JUMP JUMPDEST SWAP2 POP POP SWAP3 POP SWAP3 POP SWAP3 JUMP JUMPDEST PUSH0 DUP2 SWAP1 POP SWAP2 SWAP1 POP JUMP JUMPDEST PUSH0 PUSH2 0x2C86 PUSH2 0x2C81 PUSH2 0x2C7C DUP5 PUSH2 0x1F1C JUMP JUMPDEST PUSH2 0x2C63 JUMP JUMPDEST PUSH2 0x1F1C JUMP JUMPDEST SWAP1 POP SWAP2 SWAP1 POP JUMP JUMPDEST PUSH0 PUSH2 0x2C97 DUP3 PUSH2 0x2C6C JUMP JUMPDEST SWAP1 POP SWAP2 SWAP1 POP JUMP JUMPDEST PUSH0 PUSH2 0x2CA8 DUP3 PUSH2 0x2C8D JUMP JUMPDEST SWAP1 POP SWAP2 SWAP1 POP JUMP JUMPDEST PUSH2 0x2CB8 DUP2 PUSH2 0x2C9E JUMP JUMPDEST DUP3 MSTORE POP POP JUMP JUMPDEST PUSH0 PUSH1 0x20 DUP3 ADD SWAP1 POP PUSH2 0x2CD1 PUSH0 DUP4 ADD DUP5 PUSH2 0x2CAF JUMP JUMPDEST SWAP3 SWAP2 POP POP JUMP JUMPDEST PUSH32 0x4E487B7100000000000000000000000000000000000000000000000000000000 PUSH0 MSTORE PUSH1 0x32 PUSH1 0x4 MSTORE PUSH1 0x24 PUSH0 REVERT JUMPDEST PUSH32 0x4E487B7100000000000000000000000000000000000000000000000000000000 PUSH0 MSTORE PUSH1 0x11 PUSH1 0x4 MSTORE PUSH1 0x24 PUSH0 REVERT JUMPDEST PUSH0 PUSH2 0x2D3B DUP3 PUSH2 0x1E99 JUMP JUMPDEST SWAP2 POP PUSH2 0x2D46 DUP4 PUSH2 0x1E99 JUMP JUMPDEST SWAP3 POP DUP3 DUP3 ADD SWAP1 POP DUP1 DUP3 GT ISZERO PUSH2 0x2D5E JUMPI PUSH2 0x2D5D PUSH2 0x2D04 JUMP JUMPDEST JUMPDEST SWAP3 SWAP2 POP POP JUMP JUMPDEST PUSH0 DUP3 DUP3 MSTORE PUSH1 0x20 DUP3 ADD SWAP1 POP SWAP3 SWAP2 POP POP JUMP JUMPDEST PUSH32 0x466F6F6420646F6573206E6F7420657869737400000000000000000000000000 PUSH0 DUP3 ADD MSTORE POP JUMP JUMPDEST PUSH0 PUSH2 0x2DA8 PUSH1 0x13 DUP4 PUSH2 0x2D64 JUMP JUMPDEST SWAP2 POP PUSH2 0x2DB3 DUP3 PUSH2 0x2D74 JUMP JUMPDEST PUSH1 0x20 DUP3 ADD SWAP1 POP SWAP2 SWAP1 POP JUMP JUMPDEST PUSH0 PUSH1 0x20 DUP3 ADD SWAP1 POP DUP2 DUP2 SUB PUSH0 DUP4 ADD MSTORE PUSH2 0x2DD5 DUP2 PUSH2 0x2D9C JUMP JUMPDEST SWAP1 POP SWAP2 SWAP1 POP JUMP JUMPDEST PUSH32 0x4E487B7100000000000000000000000000000000000000000000000000000000 PUSH0 MSTORE PUSH1 0x22 PUSH1 0x4 MSTORE PUSH1 0x24 PUSH0 REVERT JUMPDEST PUSH0 PUSH1 0x2 DUP3 DIV SWAP1 POP PUSH1 0x1 DUP3 AND DUP1 PUSH2 0x2E20 JUMPI PUSH1 0x7F DUP3 AND SWAP2 POP JUMPDEST PUSH1 0x20 DUP3 LT DUP2 SUB PUSH2 0x2E33 JUMPI PUSH2 0x2E32 PUSH2 0x2DDC JUMP JUMPDEST JUMPDEST POP SWAP2 SWAP1 POP JUMP JUMPDEST PUSH0 PUSH2 0x2E43 DUP3 PUSH2 0x1E99 JUMP JUMPDEST SWAP2 POP PUSH2 0x2E4E DUP4 PUSH2 0x1E99 JUMP JUMPDEST SWAP3 POP DUP3 DUP3 SUB SWAP1 POP DUP2 DUP2 GT ISZERO PUSH2 0x2E66 JUMPI PUSH2 0x2E65 PUSH2 0x2D04 JUMP JUMPDEST JUMPDEST SWAP3 SWAP2 POP POP JUMP JUMPDEST PUSH0 DUP2 SWAP1 POP DUP2 PUSH0 MSTORE PUSH1 0x20 PUSH0 KECCAK256 SWAP1 POP SWAP2 SWAP1 POP JUMP JUMPDEST PUSH0 PUSH1 0x20 PUSH1 0x1F DUP4 ADD DIV SWAP1 POP SWAP2 SWAP1 POP JUMP JUMPDEST PUSH0 DUP3 DUP3 SHL SWAP1 POP SWAP3 SWAP2 POP POP JUMP JUMPDEST PUSH0 PUSH1 0x8 DUP4 MUL PUSH2 0x2EC8 PUSH32 0xFFFFFFFFFFFFFFFFFFFFFFFFFFFFFFFFFFFFFFFFFFFFFFFFFFFFFFFFFFFFFFFF DUP3 PUSH2 0x2E8D JUMP JUMPDEST PUSH2 0x2ED2 DUP7 DUP4 PUSH2 0x2E8D JUMP JUMPDEST SWAP6 POP DUP1 NOT DUP5 AND SWAP4 POP DUP1 DUP7 AND DUP5 OR SWAP3 POP POP POP SWAP4 SWAP3 POP POP POP JUMP JUMPDEST PUSH0 PUSH2 0x2F04 PUSH2 0x2EFF PUSH2 0x2EFA DUP5 PUSH2 0x1E99 JUMP JUMPDEST PUSH2 0x2C63 JUMP JUMPDEST PUSH2 0x1E99 JUMP JUMPDEST SWAP1 POP SWAP2 SWAP1 POP JUMP JUMPDEST PUSH0 DUP2 SWAP1 POP SWAP2 SWAP1 POP JUMP JUMPDEST PUSH2 0x2F1D DUP4 PUSH2 0x2EEA JUMP JUMPDEST PUSH2 0x2F31 PUSH2 0x2F29 DUP3 PUSH2 0x2F0B JUMP JUMPDEST DUP5 DUP5 SLOAD PUSH2 0x2E99 JUMP JUMPDEST DUP3 SSTORE POP POP POP POP JUMP JUMPDEST PUSH0 PUSH0 SWAP1 POP SWAP1 JUMP JUMPDEST PUSH2 0x2F48 PUSH2 0x2F39 JUMP JUMPDEST PUSH2 0x2F53 DUP2 DUP5 DUP5 PUSH2 0x2F14 JUMP JUMPDEST POP POP POP JUMP JUMPDEST JUMPDEST DUP2 DUP2 LT ISZERO PUSH2 0x2F76 JUMPI PUSH2 0x2F6B PUSH0 DUP3 PUSH2 0x2F40 JUMP JUMPDEST PUSH1 0x1 DUP2 ADD SWAP1 POP PUSH2 0x2F59 JUMP JUMPDEST POP POP JUMP JUMPDEST PUSH1 0x1F DUP3 GT ISZERO PUSH2 0x2FBB JUMPI PUSH2 0x2F8C DUP2 PUSH2 0x2E6C JUMP JUMPDEST PUSH2 0x2F95 DUP5 PUSH2 0x2E7E JUMP JUMPDEST DUP2 ADD PUSH1 0x20 DUP6 LT ISZERO PUSH2 0x2FA4 JUMPI DUP2 SWAP1 POP JUMPDEST PUSH2 0x2FB8 PUSH2 0x2FB0 DUP6 PUSH2 0x2E7E JUMP JUMPDEST DUP4 ADD DUP3 PUSH2 0x2F58 JUMP JUMPDEST POP POP JUMPDEST POP POP POP JUMP JUMPDEST PUSH0 DUP3 DUP3 SHR SWAP1 POP SWAP3 SWAP2 POP POP JUMP JUMPDEST PUSH0 PUSH2 0x2FDB PUSH0 NOT DUP5 PUSH1 0x8 MUL PUSH2 0x2FC0 JUMP JUMPDEST NOT DUP1 DUP4 AND SWAP2 POP POP SWAP3 SWAP2 POP POP JUMP JUMPDEST PUSH0 PUSH2 0x2FF3 DUP4 DUP4 PUSH2 0x2FCC JUMP JUMPDEST SWAP2 POP DUP3 PUSH1 0x2 MUL DUP3 OR SWAP1 POP SWAP3 SWAP2 POP POP JUMP JUMPDEST PUSH2 0x300C DUP3 PUSH2 0x2003 JUMP JUMPDEST PUSH8 0xFFFFFFFFFFFFFFFF DUP2 GT ISZERO PUSH2 0x3025 JUMPI PUSH2 0x3024 PUSH2 0x22C3 JUMP JUMPDEST JUMPDEST PUSH2 0x302F DUP3 SLOAD PUSH2 0x2E09 JUMP JUMPDEST PUSH2 0x303A DUP3 DUP3 DUP6 PUSH2 0x2F7A JUMP JUMPDEST PUSH0 PUSH1 0x20 SWAP1 POP PUSH1 0x1F DUP4 GT PUSH1 0x1 DUP2 EQ PUSH2 0x306B JUMPI PUSH0 DUP5 ISZERO PUSH2 0x3059 JUMPI DUP3 DUP8 ADD MLOAD SWAP1 POP JUMPDEST PUSH2 0x3063 DUP6 DUP3 PUSH2 0x2FE8 JUMP JUMPDEST DUP7 SSTORE POP PUSH2 0x30CA JUMP JUMPDEST PUSH1 0x1F NOT DUP5 AND PUSH2 0x3079 DUP7 PUSH2 0x2E6C JUMP JUMPDEST PUSH0 JUMPDEST DUP3 DUP2 LT ISZERO PUSH2 0x30A0 JUMPI DUP5 DUP10 ADD MLOAD DUP3 SSTORE PUSH1 0x1 DUP3 ADD SWAP2 POP PUSH1 0x20 DUP6 ADD SWAP5 POP PUSH1 0x20 DUP2 ADD SWAP1 POP PUSH2 0x307B JUMP JUMPDEST DUP7 DUP4 LT ISZERO PUSH2 0x30BD JUMPI DUP5 DUP10 ADD MLOAD PUSH2 0x30B9 PUSH1 0x1F DUP10 AND DUP3 PUSH2 0x2FCC JUMP JUMPDEST DUP4 SSTORE POP JUMPDEST PUSH1 0x1 PUSH1 0x2 DUP9 MUL ADD DUP9 SSTORE POP POP POP JUMPDEST POP POP POP POP POP POP JUMP JUMPDEST PUSH32 0x4E487B7100000000000000000000000000000000000000000000000000000000 PUSH0 MSTORE PUSH1 0x31 PUSH1 0x4 MSTORE PUSH1 0x24 PUSH0 REVERT JUMPDEST PUSH0 PUSH1 0x40 DUP3 ADD SWAP1 POP PUSH2 0x3112 PUSH0 DUP4 ADD DUP6 PUSH2 0x1FA1 JUMP JUMPDEST PUSH2 0x311F PUSH1 0x20 DUP4 ADD DUP5 PUSH2 0x1FA1 JUMP JUMPDEST SWAP4 SWAP3 POP POP POP JUMP JUMPDEST PUSH32 0x466F6F6444657461696C20646F6573206E6F7420657869737400000000000000 PUSH0 DUP3 ADD MSTORE POP JUMP JUMPDEST PUSH0 PUSH2 0x315A PUSH1 0x19 DUP4 PUSH2 0x2D64 JUMP JUMPDEST SWAP2 POP PUSH2 0x3165 DUP3 PUSH2 0x3126 JUMP JUMPDEST PUSH1 0x20 DUP3 ADD SWAP1 POP SWAP2 SWAP1 POP JUMP JUMPDEST PUSH0 PUSH1 0x20 DUP3 ADD SWAP1 POP DUP2 DUP2 SUB PUSH0 DUP4 ADD MSTORE PUSH2 0x3187 DUP2 PUSH2 0x314E JUMP JUMPDEST SWAP1 POP SWAP2 SWAP1 POP JUMP JUMPDEST PUSH0 PUSH2 0x3198 DUP3 PUSH2 0x1E99 JUMP JUMPDEST SWAP2 POP PUSH32 0xFFFFFFFFFFFFFFFFFFFFFFFFFFFFFFFFFFFFFFFFFFFFFFFFFFFFFFFFFFFFFFFF DUP3 SUB PUSH2 0x31CA JUMPI PUSH2 0x31C9 PUSH2 0x2D04 JUMP JUMPDEST JUMPDEST PUSH1 0x1 DUP3 ADD SWAP1 POP SWAP2 SWAP1 POP JUMP JUMPDEST PUSH0 DUP2 MLOAD SWAP1 POP PUSH2 0x31E3 DUP2 PUSH2 0x1EA2 JUMP JUMPDEST SWAP3 SWAP2 POP POP JUMP JUMPDEST PUSH0 PUSH2 0x31FB PUSH2 0x31F6 DUP5 PUSH2 0x2376 JUMP JUMPDEST PUSH2 0x2321 JUMP JUMPDEST SWAP1 POP DUP3 DUP2 MSTORE PUSH1 0x20 DUP2 ADD DUP5 DUP5 DUP5 ADD GT ISZERO PUSH2 0x3217 JUMPI PUSH2 0x3216 PUSH2 0x2372 JUMP JUMPDEST JUMPDEST PUSH2 0x3222 DUP5 DUP3 DUP6 PUSH2 0x201D JUMP JUMPDEST POP SWAP4 SWAP3 POP POP POP JUMP JUMPDEST PUSH0 DUP3 PUSH1 0x1F DUP4 ADD SLT PUSH2 0x323E JUMPI PUSH2 0x323D PUSH2 0x22BF JUMP JUMPDEST JUMPDEST DUP2 MLOAD PUSH2 0x324E DUP5 DUP3 PUSH1 0x20 DUP7 ADD PUSH2 0x31E9 JUMP JUMPDEST SWAP2 POP POP SWAP3 SWAP2 POP POP JUMP JUMPDEST PUSH0 PUSH1 0x40 DUP3 DUP5 SUB SLT ISZERO PUSH2 0x326C JUMPI PUSH2 0x326B PUSH2 0x236A JUMP JUMPDEST JUMPDEST PUSH2 0x3276 PUSH1 0x40 PUSH2 0x2321 JUMP JUMPDEST SWAP1 POP PUSH0 PUSH2 0x3285 DUP5 DUP3 DUP6 ADD PUSH2 0x31D5 JUMP JUMPDEST PUSH0 DUP4 ADD MSTORE POP PUSH1 0x20 DUP3 ADD MLOAD PUSH8 0xFFFFFFFFFFFFFFFF DUP2 GT ISZERO PUSH2 0x32A8 JUMPI PUSH2 0x32A7 PUSH2 0x236E JUMP JUMPDEST JUMPDEST PUSH2 0x32B4 DUP5 DUP3 DUP6 ADD PUSH2 0x322A JUMP JUMPDEST PUSH1 0x20 DUP4 ADD MSTORE POP SWAP3 SWAP2 POP POP JUMP JUMPDEST PUSH0 PUSH1 0x20 DUP3 DUP5 SUB SLT ISZERO PUSH2 0x32D5 JUMPI PUSH2 0x32D4 PUSH2 0x1E91 JUMP JUMPDEST JUMPDEST PUSH0 DUP3 ADD MLOAD PUSH8 0xFFFFFFFFFFFFFFFF DUP2 GT ISZERO PUSH2 0x32F2 JUMPI PUSH2 0x32F1 PUSH2 0x1E95 JUMP JUMPDEST JUMPDEST PUSH2 0x32FE DUP5 DUP3 DUP6 ADD PUSH2 0x3257 JUMP JUMPDEST SWAP2 POP POP SWAP3 SWAP2 POP POP JUMP JUMPDEST PUSH32 0x43617465676F727920646F6573206E6F74206578697374000000000000000000 PUSH0 DUP3 ADD MSTORE POP JUMP JUMPDEST PUSH0 PUSH2 0x333B PUSH1 0x17 DUP4 PUSH2 0x2D64 JUMP JUMPDEST SWAP2 POP PUSH2 0x3346 DUP3 PUSH2 0x3307 JUMP JUMPDEST PUSH1 0x20 DUP3 ADD SWAP1 POP SWAP2 SWAP1 POP JUMP JUMPDEST PUSH0 PUSH1 0x20 DUP3 ADD SWAP1 POP DUP2 DUP2 SUB PUSH0 DUP4 ADD MSTORE PUSH2 0x3368 DUP2 PUSH2 0x332F JUMP JUMPDEST SWAP1 POP SWAP2 SWAP1 POP JUMP JUMPDEST PUSH0 PUSH2 0x3379 DUP3 PUSH2 0x2003 JUMP JUMPDEST PUSH2 0x3383 DUP2 DUP6 PUSH2 0x2D64 JUMP JUMPDEST SWAP4 POP PUSH2 0x3393 DUP2 DUP6 PUSH1 0x20 DUP7 ADD PUSH2 0x201D JUMP JUMPDEST PUSH2 0x339C DUP2 PUSH2 0x202B JUMP JUMPDEST DUP5 ADD SWAP2 POP POP SWAP3 SWAP2 POP POP JUMP JUMPDEST PUSH0 DUP3 DUP3 MSTORE PUSH1 0x20 DUP3 ADD SWAP1 POP SWAP3 SWAP2 POP POP JUMP JUMPDEST PUSH0 PUSH2 0x33C1 DUP3 PUSH2 0x2073 JUMP JUMPDEST PUSH2 0x33CB DUP2 DUP6 PUSH2 0x33A7 JUMP JUMPDEST SWAP4 POP DUP4 PUSH1 0x20 DUP3 MUL DUP6 ADD PUSH2 0x33DD DUP6 PUSH2 0x208D JUMP JUMPDEST DUP1 PUSH0 JUMPDEST DUP6 DUP2 LT ISZERO PUSH2 0x3418 JUMPI DUP5 DUP5 SUB DUP10 MSTORE DUP2 MLOAD PUSH2 0x33F9 DUP6 DUP3 PUSH2 0x209C JUMP JUMPDEST SWAP5 POP PUSH2 0x3404 DUP4 PUSH2 0x20AF JUMP JUMPDEST SWAP3 POP PUSH1 0x20 DUP11 ADD SWAP10 POP POP PUSH1 0x1 DUP2 ADD SWAP1 POP PUSH2 0x33E0 JUMP JUMPDEST POP DUP3 SWAP8 POP DUP8 SWAP6 POP POP POP POP POP POP SWAP3 SWAP2 POP POP JUMP JUMPDEST PUSH0 PUSH1 0xA0 DUP3 ADD SWAP1 POP PUSH2 0x343D PUSH0 DUP4 ADD DUP9 PUSH2 0x1FA1 JUMP JUMPDEST DUP2 DUP2 SUB PUSH1 0x20 DUP4 ADD MSTORE PUSH2 0x344F DUP2 DUP8 PUSH2 0x336F JUMP JUMPDEST SWAP1 POP DUP2 DUP2 SUB PUSH1 0x40 DUP4 ADD MSTORE PUSH2 0x3463 DUP2 DUP7 PUSH2 0x336F JUMP JUMPDEST SWAP1 POP PUSH2 0x3472 PUSH1 0x60 DUP4 ADD DUP6 PUSH2 0x1FA1 JUMP JUMPDEST DUP2 DUP2 SUB PUSH1 0x80 DUP4 ADD MSTORE PUSH2 0x3484 DUP2 DUP5 PUSH2 0x33B7 JUMP JUMPDEST SWAP1 POP SWAP7 SWAP6 POP POP POP POP POP POP JUMP JUMPDEST PUSH32 0x5175616E74697479277320666F6F642063616E6E6F7420626520736D616C6C65 PUSH0 DUP3 ADD MSTORE PUSH32 0x72207468616E2030000000000000000000000000000000000000000000000000 PUSH1 0x20 DUP3 ADD MSTORE POP JUMP JUMPDEST PUSH0 PUSH2 0x34EA PUSH1 0x28 DUP4 PUSH2 0x2D64 JUMP JUMPDEST SWAP2 POP PUSH2 0x34F5 DUP3 PUSH2 0x3490 JUMP JUMPDEST PUSH1 0x40 DUP3 ADD SWAP1 POP SWAP2 SWAP1 POP JUMP JUMPDEST PUSH0 PUSH1 0x20 DUP3 ADD SWAP1 POP DUP2 DUP2 SUB PUSH0 DUP4 ADD MSTORE PUSH2 0x3517 DUP2 PUSH2 0x34DE JUMP JUMPDEST SWAP1 POP SWAP2 SWAP1 POP JUMP JUMPDEST PUSH32 0x466F6F642077697468207468697320494420616C726561647920657869737473 PUSH0 DUP3 ADD MSTORE POP JUMP JUMPDEST PUSH0 PUSH2 0x3552 PUSH1 0x20 DUP4 PUSH2 0x2D64 JUMP JUMPDEST SWAP2 POP PUSH2 0x355D DUP3 PUSH2 0x351E JUMP JUMPDEST PUSH1 0x20 DUP3 ADD SWAP1 POP SWAP2 SWAP1 POP JUMP JUMPDEST PUSH0 PUSH1 0x20 DUP3 ADD SWAP1 POP DUP2 DUP2 SUB PUSH0 DUP4 ADD MSTORE PUSH2 0x357F DUP2 PUSH2 0x3546 JUMP JUMPDEST SWAP1 POP SWAP2 SWAP1 POP JUMP INVALID LOG2 PUSH5 0x6970667358 0x22 SLT KECCAK256 SWAP2 JUMP 0xF6 DUP12 CODECOPY RETURNCONTRACT 0x53 CODECOPY OR XOR PUSH20 0xE2235F23DCACBFE86BCC8A68D7519BAB5D0CB03B 0xCF PUSH5 0x736F6C6343 STOP ADDMOD 0x1E STOP CALLER "
				},
				"gasEstimates": {
					"creation": {
						"codeDepositCost": "2751200",
						"executionCost": "infinite",
						"totalCost": "infinite"
					},
					"external": {
						"addAdmin(address)": "24846",
						"addFoodDetails(uint256,(string,uint256,uint256)[])": "infinite",
						"categoryManager()": "infinite",
						"createFood(uint256,string,string,uint256,string[],(string,uint256,uint256)[])": "infinite",
						"deleteFood(uint256)": "infinite",
						"deleteFoodDetail(uint256,uint256)": "infinite",
						"getAllFoods()": "infinite",
						"getFood(uint256)": "infinite",
						"getFoodDetails(uint256)": "infinite",
						"getOwner()": "2559",
						"increaseQuantiy(uint256,uint256,uint256)": "infinite",
						"isAdmin(address)": "2966",
						"nextFoodDetailId()": "2515",
						"nextFoodId()": "2493",
						"reduceQuantiy(uint256,uint256,uint256)": "infinite",
						"removeAdmin(address)": "24868",
						"updateFood(uint256,string,string,uint256,string[])": "infinite",
						"updateFoodDetail(uint256,uint256,(string,uint256,uint256))": "infinite"
					}
				},
				"methodIdentifiers": {
					"addAdmin(address)": "70480275",
					"addFoodDetails(uint256,(string,uint256,uint256)[])": "64f77471",
					"categoryManager()": "d86ec238",
					"createFood(uint256,string,string,uint256,string[],(string,uint256,uint256)[])": "b447aaae",
					"deleteFood(uint256)": "d198b650",
					"deleteFoodDetail(uint256,uint256)": "4d30a39b",
					"getAllFoods()": "b9b5aae6",
					"getFood(uint256)": "1e4de872",
					"getFoodDetails(uint256)": "af5607f9",
					"getOwner()": "893d20e8",
					"increaseQuantiy(uint256,uint256,uint256)": "094b9a53",
					"isAdmin(address)": "24d7806c",
					"nextFoodDetailId()": "1b0d77cc",
					"nextFoodId()": "1945ef58",
					"reduceQuantiy(uint256,uint256,uint256)": "9a69bfa6",
					"removeAdmin(address)": "1785f53c",
					"updateFood(uint256,string,string,uint256,string[])": "6dd2dd88",
					"updateFoodDetail(uint256,uint256,(string,uint256,uint256))": "baf85306"
				}
			},
			"storageLayout": {
				"storage": [
					{
						"astId": 3,
						"contract": "contracts/manager/FoodManager.sol:FoodManager",
						"label": "owner",
						"offset": 0,
						"slot": "0",
						"type": "t_address"
					},
					{
						"astId": 12,
						"contract": "contracts/manager/FoodManager.sol:FoodManager",
						"label": "isAdmin",
						"offset": 0,
						"slot": "1",
						"type": "t_mapping(t_address,t_enum(Role)7)"
					},
					{
						"astId": 312,
						"contract": "contracts/manager/FoodManager.sol:FoodManager",
						"label": "categoryManager",
						"offset": 0,
						"slot": "2",
						"type": "t_contract(ICategoryManager)144"
					},
					{
						"astId": 315,
						"contract": "contracts/manager/FoodManager.sol:FoodManager",
						"label": "nextFoodId",
						"offset": 0,
						"slot": "3",
						"type": "t_uint256"
					},
					{
						"astId": 318,
						"contract": "contracts/manager/FoodManager.sol:FoodManager",
						"label": "nextFoodDetailId",
						"offset": 0,
						"slot": "4",
						"type": "t_uint256"
					},
					{
						"astId": 323,
						"contract": "contracts/manager/FoodManager.sol:FoodManager",
						"label": "foods",
						"offset": 0,
						"slot": "5",
						"type": "t_mapping(t_uint256,t_struct(Food)1098_storage)"
					},
					{
						"astId": 329,
						"contract": "contracts/manager/FoodManager.sol:FoodManager",
						"label": "foodDetails",
						"offset": 0,
						"slot": "6",
						"type": "t_mapping(t_uint256,t_array(t_struct(FoodDetail)1107_storage)dyn_storage)"
					},
					{
						"astId": 332,
						"contract": "contracts/manager/FoodManager.sol:FoodManager",
						"label": "foodIds",
						"offset": 0,
						"slot": "7",
						"type": "t_array(t_uint256)dyn_storage"
					}
				],
				"types": {
					"t_address": {
						"encoding": "inplace",
						"label": "address",
						"numberOfBytes": "20"
					},
					"t_array(t_string_storage)dyn_storage": {
						"base": "t_string_storage",
						"encoding": "dynamic_array",
						"label": "string[]",
						"numberOfBytes": "32"
					},
					"t_array(t_struct(FoodDetail)1107_storage)dyn_storage": {
						"base": "t_struct(FoodDetail)1107_storage",
						"encoding": "dynamic_array",
						"label": "struct FoodDetail[]",
						"numberOfBytes": "32"
					},
					"t_array(t_uint256)dyn_storage": {
						"base": "t_uint256",
						"encoding": "dynamic_array",
						"label": "uint256[]",
						"numberOfBytes": "32"
					},
					"t_contract(ICategoryManager)144": {
						"encoding": "inplace",
						"label": "contract ICategoryManager",
						"numberOfBytes": "20"
					},
					"t_enum(Role)7": {
						"encoding": "inplace",
						"label": "enum RoleAccess.Role",
						"numberOfBytes": "1"
					},
					"t_mapping(t_address,t_enum(Role)7)": {
						"encoding": "mapping",
						"key": "t_address",
						"label": "mapping(address => enum RoleAccess.Role)",
						"numberOfBytes": "32",
						"value": "t_enum(Role)7"
					},
					"t_mapping(t_uint256,t_array(t_struct(FoodDetail)1107_storage)dyn_storage)": {
						"encoding": "mapping",
						"key": "t_uint256",
						"label": "mapping(uint256 => struct FoodDetail[])",
						"numberOfBytes": "32",
						"value": "t_array(t_struct(FoodDetail)1107_storage)dyn_storage"
					},
					"t_mapping(t_uint256,t_struct(Food)1098_storage)": {
						"encoding": "mapping",
						"key": "t_uint256",
						"label": "mapping(uint256 => struct Food)",
						"numberOfBytes": "32",
						"value": "t_struct(Food)1098_storage"
					},
					"t_string_storage": {
						"encoding": "bytes",
						"label": "string",
						"numberOfBytes": "32"
					},
					"t_struct(Food)1098_storage": {
						"encoding": "inplace",
						"label": "struct Food",
						"members": [
							{
								"astId": 1084,
								"contract": "contracts/manager/FoodManager.sol:FoodManager",
								"label": "foodId",
								"offset": 0,
								"slot": "0",
								"type": "t_uint256"
							},
							{
								"astId": 1086,
								"contract": "contracts/manager/FoodManager.sol:FoodManager",
								"label": "name",
								"offset": 0,
								"slot": "1",
								"type": "t_string_storage"
							},
							{
								"astId": 1088,
								"contract": "contracts/manager/FoodManager.sol:FoodManager",
								"label": "description",
								"offset": 0,
								"slot": "2",
								"type": "t_string_storage"
							},
							{
								"astId": 1090,
								"contract": "contracts/manager/FoodManager.sol:FoodManager",
								"label": "categoryId",
								"offset": 0,
								"slot": "3",
								"type": "t_uint256"
							},
							{
								"astId": 1093,
								"contract": "contracts/manager/FoodManager.sol:FoodManager",
								"label": "imageUrl",
								"offset": 0,
								"slot": "4",
								"type": "t_array(t_string_storage)dyn_storage"
							},
							{
								"astId": 1095,
								"contract": "contracts/manager/FoodManager.sol:FoodManager",
								"label": "sumRating",
								"offset": 0,
								"slot": "5",
								"type": "t_uint256"
							},
							{
								"astId": 1097,
								"contract": "contracts/manager/FoodManager.sol:FoodManager",
								"label": "countRating",
								"offset": 0,
								"slot": "6",
								"type": "t_uint256"
							}
						],
						"numberOfBytes": "224"
					},
					"t_struct(FoodDetail)1107_storage": {
						"encoding": "inplace",
						"label": "struct FoodDetail",
						"members": [
							{
								"astId": 1100,
								"contract": "contracts/manager/FoodManager.sol:FoodManager",
								"label": "foodDetailId",
								"offset": 0,
								"slot": "0",
								"type": "t_uint256"
							},
							{
								"astId": 1102,
								"contract": "contracts/manager/FoodManager.sol:FoodManager",
								"label": "size",
								"offset": 0,
								"slot": "1",
								"type": "t_string_storage"
							},
							{
								"astId": 1104,
								"contract": "contracts/manager/FoodManager.sol:FoodManager",
								"label": "quantity",
								"offset": 0,
								"slot": "2",
								"type": "t_uint256"
							},
							{
								"astId": 1106,
								"contract": "contracts/manager/FoodManager.sol:FoodManager",
								"label": "price",
								"offset": 0,
								"slot": "3",
								"type": "t_uint256"
							}
						],
						"numberOfBytes": "128"
					},
					"t_uint256": {
						"encoding": "inplace",
						"label": "uint256",
						"numberOfBytes": "32"
					}
				}
			},
			"userdoc": {
				"kind": "user",
				"methods": {},
				"version": 1
			}
		}
	}
}