{
	"contracts/manager/StaffManager.sol": {
		"StaffManagement": {
			"abi": [
				{
					"inputs": [
						{
							"internalType": "address",
							"name": "_orderManagerAddress",
							"type": "address"
						}
					],
					"stateMutability": "nonpayable",
					"type": "constructor"
				},
				{
					"anonymous": false,
					"inputs": [
						{
							"indexed": true,
							"internalType": "uint256",
							"name": "staffId",
							"type": "uint256"
						},
						{
							"indexed": false,
							"internalType": "string",
							"name": "name",
							"type": "string"
						}
					],
					"name": "StaffAdded",
					"type": "event"
				},
				{
					"anonymous": false,
					"inputs": [
						{
							"indexed": true,
							"internalType": "uint256",
							"name": "staffId",
							"type": "uint256"
						},
						{
							"indexed": false,
							"internalType": "uint256",
							"name": "_orderId",
							"type": "uint256"
						}
					],
					"name": "StaffAddedToOrder",
					"type": "event"
				},
				{
					"anonymous": false,
					"inputs": [
						{
							"indexed": true,
							"internalType": "uint256",
							"name": "staffId",
							"type": "uint256"
						},
						{
							"indexed": false,
							"internalType": "string",
							"name": "name",
							"type": "string"
						}
					],
					"name": "StaffUpdated",
					"type": "event"
				},
				{
					"inputs": [
						{
							"internalType": "uint256",
							"name": "_staffId",
							"type": "uint256"
						},
						{
							"internalType": "string",
							"name": "_name",
							"type": "string"
						},
						{
							"internalType": "string",
							"name": "_dob",
							"type": "string"
						},
						{
							"internalType": "string",
							"name": "_phone",
							"type": "string"
						}
					],
					"name": "addStaff",
					"outputs": [],
					"stateMutability": "nonpayable",
					"type": "function"
				},
				{
					"inputs": [
						{
							"internalType": "uint256",
							"name": "_orderId",
							"type": "uint256"
						},
						{
							"internalType": "uint256",
							"name": "_staffId",
							"type": "uint256"
						}
					],
					"name": "addStaffToOrder",
					"outputs": [],
					"stateMutability": "nonpayable",
					"type": "function"
				},
				{
					"inputs": [
						{
							"internalType": "uint256",
							"name": "_staffId",
							"type": "uint256"
						}
					],
					"name": "getStaff",
					"outputs": [
						{
							"components": [
								{
									"internalType": "uint256",
									"name": "staffId",
									"type": "uint256"
								},
								{
									"internalType": "string",
									"name": "name",
									"type": "string"
								},
								{
									"internalType": "string",
									"name": "dob",
									"type": "string"
								},
								{
									"internalType": "string",
									"name": "phone",
									"type": "string"
								},
								{
									"internalType": "uint256",
									"name": "sumRating",
									"type": "uint256"
								},
								{
									"internalType": "uint256",
									"name": "countRating",
									"type": "uint256"
								}
							],
							"internalType": "struct Staff",
							"name": "",
							"type": "tuple"
						}
					],
					"stateMutability": "view",
					"type": "function"
				},
				{
					"inputs": [
						{
							"internalType": "uint256",
							"name": "_orderId",
							"type": "uint256"
						}
					],
					"name": "getStaffForOrder",
					"outputs": [
						{
							"internalType": "uint256[]",
							"name": "",
							"type": "uint256[]"
						}
					],
					"stateMutability": "view",
					"type": "function"
				},
				{
					"inputs": [],
					"name": "nextStaffId",
					"outputs": [
						{
							"internalType": "uint256",
							"name": "",
							"type": "uint256"
						}
					],
					"stateMutability": "view",
					"type": "function"
				},
				{
					"inputs": [],
					"name": "orderManager",
					"outputs": [
						{
							"internalType": "contract IOrderManager",
							"name": "",
							"type": "address"
						}
					],
					"stateMutability": "view",
					"type": "function"
				},
				{
					"inputs": [
						{
							"internalType": "uint256",
							"name": "",
							"type": "uint256"
						},
						{
							"internalType": "uint256",
							"name": "",
							"type": "uint256"
						}
					],
					"name": "orderStaffs",
					"outputs": [
						{
							"internalType": "uint256",
							"name": "",
							"type": "uint256"
						}
					],
					"stateMutability": "view",
					"type": "function"
				},
				{
					"inputs": [
						{
							"internalType": "uint256",
							"name": "",
							"type": "uint256"
						}
					],
					"name": "staffs",
					"outputs": [
						{
							"internalType": "uint256",
							"name": "staffId",
							"type": "uint256"
						},
						{
							"internalType": "string",
							"name": "name",
							"type": "string"
						},
						{
							"internalType": "string",
							"name": "dob",
							"type": "string"
						},
						{
							"internalType": "string",
							"name": "phone",
							"type": "string"
						},
						{
							"internalType": "uint256",
							"name": "sumRating",
							"type": "uint256"
						},
						{
							"internalType": "uint256",
							"name": "countRating",
							"type": "uint256"
						}
					],
					"stateMutability": "view",
					"type": "function"
				},
				{
					"inputs": [
						{
							"internalType": "uint256",
							"name": "_staffId",
							"type": "uint256"
						},
						{
							"internalType": "string",
							"name": "_name",
							"type": "string"
						},
						{
							"internalType": "string",
							"name": "_dob",
							"type": "string"
						},
						{
							"internalType": "string",
							"name": "_phone",
							"type": "string"
						}
					],
					"name": "updateStaffInfo",
					"outputs": [],
					"stateMutability": "nonpayable",
					"type": "function"
				}
			],
			"devdoc": {
				"kind": "dev",
				"methods": {},
				"version": 1
			},
			"evm": {
				"assembly": "    /* \"contracts/manager/StaffManager.sol\":148:1786  contract StaffManagement is IStaffManager {... */\n  mstore(0x40, 0x80)\n    /* \"contracts/manager/StaffManager.sol\":355:356  1 */\n  0x01\n    /* \"contracts/manager/StaffManager.sol\":329:356  uint public nextStaffId = 1 */\n  0x03\n  sstore\n    /* \"contracts/manager/StaffManager.sol\":365:476  constructor(address _orderManagerAddress) {... */\n  callvalue\n  dup1\n  iszero\n  tag_1\n  jumpi\n  revert(0x00, 0x00)\ntag_1:\n  pop\n  mload(0x40)\n  sub(codesize, bytecodeSize)\n  dup1\n  bytecodeSize\n  dup4\n  codecopy\n  dup2\n  dup2\n  add\n  0x40\n  mstore\n  dup2\n  add\n  swap1\n  tag_2\n  swap2\n  swap1\n  tag_3\n  jump\t// in\ntag_2:\n    /* \"contracts/manager/StaffManager.sol\":447:467  _orderManagerAddress */\n  dup1\n    /* \"contracts/manager/StaffManager.sol\":418:430  orderManager */\n  0x00\n  0x00\n    /* \"contracts/manager/StaffManager.sol\":418:468  orderManager = IOrderManager(_orderManagerAddress) */\n  0x0100\n  exp\n  dup2\n  sload\n  dup2\n  0xffffffffffffffffffffffffffffffffffffffff\n  mul\n  not\n  and\n  swap1\n  dup4\n  0xffffffffffffffffffffffffffffffffffffffff\n  and\n  mul\n  or\n  swap1\n  sstore\n  pop\n    /* \"contracts/manager/StaffManager.sol\":365:476  constructor(address _orderManagerAddress) {... */\n  pop\n    /* \"contracts/manager/StaffManager.sol\":148:1786  contract StaffManagement is IStaffManager {... */\n  jump(tag_6)\n    /* \"#utility.yul\":88:205   */\ntag_8:\n    /* \"#utility.yul\":197:198   */\n  0x00\n    /* \"#utility.yul\":194:195   */\n  0x00\n    /* \"#utility.yul\":187:199   */\n  revert\n    /* \"#utility.yul\":334:460   */\ntag_10:\n    /* \"#utility.yul\":371:378   */\n  0x00\n    /* \"#utility.yul\":411:453   */\n  0xffffffffffffffffffffffffffffffffffffffff\n    /* \"#utility.yul\":404:409   */\n  dup3\n    /* \"#utility.yul\":400:454   */\n  and\n    /* \"#utility.yul\":389:454   */\n  swap1\n  pop\n    /* \"#utility.yul\":334:460   */\n  swap2\n  swap1\n  pop\n  jump\t// out\n    /* \"#utility.yul\":466:562   */\ntag_11:\n    /* \"#utility.yul\":503:510   */\n  0x00\n    /* \"#utility.yul\":532:556   */\n  tag_20\n    /* \"#utility.yul\":550:555   */\n  dup3\n    /* \"#utility.yul\":532:556   */\n  tag_10\n  jump\t// in\ntag_20:\n    /* \"#utility.yul\":521:556   */\n  swap1\n  pop\n    /* \"#utility.yul\":466:562   */\n  swap2\n  swap1\n  pop\n  jump\t// out\n    /* \"#utility.yul\":568:690   */\ntag_12:\n    /* \"#utility.yul\":641:665   */\n  tag_22\n    /* \"#utility.yul\":659:664   */\n  dup2\n    /* \"#utility.yul\":641:665   */\n  tag_11\n  jump\t// in\ntag_22:\n    /* \"#utility.yul\":634:639   */\n  dup2\n    /* \"#utility.yul\":631:666   */\n  eq\n    /* \"#utility.yul\":621:684   */\n  tag_23\n  jumpi\n    /* \"#utility.yul\":680:681   */\n  0x00\n    /* \"#utility.yul\":677:678   */\n  0x00\n    /* \"#utility.yul\":670:682   */\n  revert\n    /* \"#utility.yul\":621:684   */\ntag_23:\n    /* \"#utility.yul\":568:690   */\n  pop\n  jump\t// out\n    /* \"#utility.yul\":696:839   */\ntag_13:\n    /* \"#utility.yul\":753:758   */\n  0x00\n    /* \"#utility.yul\":784:790   */\n  dup2\n    /* \"#utility.yul\":778:791   */\n  mload\n    /* \"#utility.yul\":769:791   */\n  swap1\n  pop\n    /* \"#utility.yul\":800:833   */\n  tag_25\n    /* \"#utility.yul\":827:832   */\n  dup2\n    /* \"#utility.yul\":800:833   */\n  tag_12\n  jump\t// in\ntag_25:\n    /* \"#utility.yul\":696:839   */\n  swap3\n  swap2\n  pop\n  pop\n  jump\t// out\n    /* \"#utility.yul\":845:1196   */\ntag_3:\n    /* \"#utility.yul\":915:921   */\n  0x00\n    /* \"#utility.yul\":964:966   */\n  0x20\n    /* \"#utility.yul\":952:961   */\n  dup3\n    /* \"#utility.yul\":943:950   */\n  dup5\n    /* \"#utility.yul\":939:962   */\n  sub\n    /* \"#utility.yul\":935:967   */\n  slt\n    /* \"#utility.yul\":932:1051   */\n  iszero\n  tag_27\n  jumpi\n    /* \"#utility.yul\":970:1049   */\n  tag_28\n  tag_8\n  jump\t// in\ntag_28:\n    /* \"#utility.yul\":932:1051   */\ntag_27:\n    /* \"#utility.yul\":1090:1091   */\n  0x00\n    /* \"#utility.yul\":1115:1179   */\n  tag_29\n    /* \"#utility.yul\":1171:1178   */\n  dup5\n    /* \"#utility.yul\":1162:1168   */\n  dup3\n    /* \"#utility.yul\":1151:1160   */\n  dup6\n    /* \"#utility.yul\":1147:1169   */\n  add\n    /* \"#utility.yul\":1115:1179   */\n  tag_13\n  jump\t// in\ntag_29:\n    /* \"#utility.yul\":1105:1179   */\n  swap2\n  pop\n    /* \"#utility.yul\":1061:1189   */\n  pop\n    /* \"#utility.yul\":845:1196   */\n  swap3\n  swap2\n  pop\n  pop\n  jump\t// out\n    /* \"contracts/manager/StaffManager.sol\":148:1786  contract StaffManagement is IStaffManager {... */\ntag_6:\n  dataSize(sub_0)\n  dup1\n  dataOffset(sub_0)\n  0x00\n  codecopy\n  0x00\n  return\nstop\n\nsub_0: assembly {\n        /* \"contracts/manager/StaffManager.sol\":148:1786  contract StaffManagement is IStaffManager {... */\n      mstore(0x40, 0x80)\n      callvalue\n      dup1\n      iszero\n      tag_1\n      jumpi\n      revert(0x00, 0x00)\n    tag_1:\n      pop\n      jumpi(tag_2, lt(calldatasize, 0x04))\n      shr(0xe0, calldataload(0x00))\n      dup1\n      0xb3ce9dea\n      gt\n      tag_12\n      jumpi\n      dup1\n      0xb3ce9dea\n      eq\n      tag_7\n      jumpi\n      dup1\n      0xcbe8eaad\n      eq\n      tag_8\n      jumpi\n      dup1\n      0xf4def44b\n      eq\n      tag_9\n      jumpi\n      dup1\n      0xf9b6117f\n      eq\n      tag_10\n      jumpi\n      dup1\n      0xfdff9aab\n      eq\n      tag_11\n      jumpi\n      jump(tag_2)\n    tag_12:\n      dup1\n      0x2e026bef\n      eq\n      tag_3\n      jumpi\n      dup1\n      0x3fbc17f2\n      eq\n      tag_4\n      jumpi\n      dup1\n      0x498d4707\n      eq\n      tag_5\n      jumpi\n      dup1\n      0x9121f4eb\n      eq\n      tag_6\n      jumpi\n    tag_2:\n      revert(0x00, 0x00)\n        /* \"contracts/manager/StaffManager.sol\":280:322  mapping(uint => uint[]) public orderStaffs */\n    tag_3:\n      tag_13\n      0x04\n      dup1\n      calldatasize\n      sub\n      dup2\n      add\n      swap1\n      tag_14\n      swap2\n      swap1\n      tag_15\n      jump\t// in\n    tag_14:\n      tag_16\n      jump\t// in\n    tag_13:\n      mload(0x40)\n      tag_17\n      swap2\n      swap1\n      tag_18\n      jump\t// in\n    tag_17:\n      mload(0x40)\n      dup1\n      swap2\n      sub\n      swap1\n      return\n        /* \"contracts/manager/StaffManager.sol\":329:356  uint public nextStaffId = 1 */\n    tag_4:\n      tag_19\n      tag_20\n      jump\t// in\n    tag_19:\n      mload(0x40)\n      tag_21\n      swap2\n      swap1\n      tag_18\n      jump\t// in\n    tag_21:\n      mload(0x40)\n      dup1\n      swap2\n      sub\n      swap1\n      return\n        /* \"contracts/manager/StaffManager.sol\":237:273  mapping(uint => Staff) public staffs */\n    tag_5:\n      tag_22\n      0x04\n      dup1\n      calldatasize\n      sub\n      dup2\n      add\n      swap1\n      tag_23\n      swap2\n      swap1\n      tag_24\n      jump\t// in\n    tag_23:\n      tag_25\n      jump\t// in\n    tag_22:\n      mload(0x40)\n      tag_26\n      swap7\n      swap6\n      swap5\n      swap4\n      swap3\n      swap2\n      swap1\n      tag_27\n      jump\t// in\n    tag_26:\n      mload(0x40)\n      dup1\n      swap2\n      sub\n      swap1\n      return\n        /* \"contracts/manager/StaffManager.sol\":484:803  function addStaff(uint _staffId, string calldata _name, string calldata _dob, string calldata _phone) external override {... */\n    tag_6:\n      tag_28\n      0x04\n      dup1\n      calldatasize\n      sub\n      dup2\n      add\n      swap1\n      tag_29\n      swap2\n      swap1\n      tag_30\n      jump\t// in\n    tag_29:\n      tag_31\n      jump\t// in\n    tag_28:\n      stop\n        /* \"contracts/manager/StaffManager.sol\":940:1316  function updateStaffInfo(uint _staffId, string calldata _name, string calldata _dob, string calldata _phone) external override {... */\n    tag_7:\n      tag_32\n      0x04\n      dup1\n      calldatasize\n      sub\n      dup2\n      add\n      swap1\n      tag_33\n      swap2\n      swap1\n      tag_30\n      jump\t// in\n    tag_33:\n      tag_34\n      jump\t// in\n    tag_32:\n      stop\n        /* \"contracts/manager/StaffManager.sol\":1648:1783  function getStaffForOrder(uint _orderId) external view override returns (uint[] memory) {... */\n    tag_8:\n      tag_35\n      0x04\n      dup1\n      calldatasize\n      sub\n      dup2\n      add\n      swap1\n      tag_36\n      swap2\n      swap1\n      tag_24\n      jump\t// in\n    tag_36:\n      tag_37\n      jump\t// in\n    tag_35:\n      mload(0x40)\n      tag_38\n      swap2\n      swap1\n      tag_39\n      jump\t// in\n    tag_38:\n      mload(0x40)\n      dup1\n      swap2\n      sub\n      swap1\n      return\n        /* \"contracts/manager/StaffManager.sol\":811:932  function getStaff(uint _staffId) external view override returns (Staff memory) {... */\n    tag_9:\n      tag_40\n      0x04\n      dup1\n      calldatasize\n      sub\n      dup2\n      add\n      swap1\n      tag_41\n      swap2\n      swap1\n      tag_24\n      jump\t// in\n    tag_41:\n      tag_42\n      jump\t// in\n    tag_40:\n      mload(0x40)\n      tag_43\n      swap2\n      swap1\n      tag_44\n      jump\t// in\n    tag_43:\n      mload(0x40)\n      dup1\n      swap2\n      sub\n      swap1\n      return\n        /* \"contracts/manager/StaffManager.sol\":197:230  IOrderManager public orderManager */\n    tag_10:\n      tag_45\n      tag_46\n      jump\t// in\n    tag_45:\n      mload(0x40)\n      tag_47\n      swap2\n      swap1\n      tag_48\n      jump\t// in\n    tag_47:\n      mload(0x40)\n      dup1\n      swap2\n      sub\n      swap1\n      return\n        /* \"contracts/manager/StaffManager.sol\":1324:1640  function addStaffToOrder(uint _orderId, uint _staffId) external override {... */\n    tag_11:\n      tag_49\n      0x04\n      dup1\n      calldatasize\n      sub\n      dup2\n      add\n      swap1\n      tag_50\n      swap2\n      swap1\n      tag_15\n      jump\t// in\n    tag_50:\n      tag_51\n      jump\t// in\n    tag_49:\n      stop\n        /* \"contracts/manager/StaffManager.sol\":280:322  mapping(uint => uint[]) public orderStaffs */\n    tag_16:\n      mstore(0x20, 0x02)\n      dup2\n      0x00\n      mstore\n      keccak256(0x00, 0x40)\n      dup2\n      dup2\n      sload\n      dup2\n      lt\n      tag_52\n      jumpi\n      0x00\n      dup1\n      revert\n    tag_52:\n      swap1\n      0x00\n      mstore\n      keccak256(0x00, 0x20)\n      add\n      0x00\n      swap2\n      pop\n      swap2\n      pop\n      pop\n      sload\n      dup2\n      jump\t// out\n        /* \"contracts/manager/StaffManager.sol\":329:356  uint public nextStaffId = 1 */\n    tag_20:\n      sload(0x03)\n      dup2\n      jump\t// out\n        /* \"contracts/manager/StaffManager.sol\":237:273  mapping(uint => Staff) public staffs */\n    tag_25:\n      mstore(0x20, 0x01)\n      dup1\n      0x00\n      mstore\n      keccak256(0x00, 0x40)\n      0x00\n      swap2\n      pop\n      swap1\n      pop\n      dup1\n      0x00\n      add\n      sload\n      swap1\n      dup1\n      0x01\n      add\n      dup1\n      sload\n      tag_54\n      swap1\n      tag_55\n      jump\t// in\n    tag_54:\n      dup1\n      0x1f\n      add\n      0x20\n      dup1\n      swap2\n      div\n      mul\n      0x20\n      add\n      mload(0x40)\n      swap1\n      dup2\n      add\n      0x40\n      mstore\n      dup1\n      swap3\n      swap2\n      swap1\n      dup2\n      dup2\n      mstore\n      0x20\n      add\n      dup3\n      dup1\n      sload\n      tag_56\n      swap1\n      tag_55\n      jump\t// in\n    tag_56:\n      dup1\n      iszero\n      tag_57\n      jumpi\n      dup1\n      0x1f\n      lt\n      tag_58\n      jumpi\n      0x0100\n      dup1\n      dup4\n      sload\n      div\n      mul\n      dup4\n      mstore\n      swap2\n      0x20\n      add\n      swap2\n      jump(tag_57)\n    tag_58:\n      dup3\n      add\n      swap2\n      swap1\n      0x00\n      mstore\n      keccak256(0x00, 0x20)\n      swap1\n    tag_59:\n      dup2\n      sload\n      dup2\n      mstore\n      swap1\n      0x01\n      add\n      swap1\n      0x20\n      add\n      dup1\n      dup4\n      gt\n      tag_59\n      jumpi\n      dup3\n      swap1\n      sub\n      0x1f\n      and\n      dup3\n      add\n      swap2\n    tag_57:\n      pop\n      pop\n      pop\n      pop\n      pop\n      swap1\n      dup1\n      0x02\n      add\n      dup1\n      sload\n      tag_60\n      swap1\n      tag_55\n      jump\t// in\n    tag_60:\n      dup1\n      0x1f\n      add\n      0x20\n      dup1\n      swap2\n      div\n      mul\n      0x20\n      add\n      mload(0x40)\n      swap1\n      dup2\n      add\n      0x40\n      mstore\n      dup1\n      swap3\n      swap2\n      swap1\n      dup2\n      dup2\n      mstore\n      0x20\n      add\n      dup3\n      dup1\n      sload\n      tag_61\n      swap1\n      tag_55\n      jump\t// in\n    tag_61:\n      dup1\n      iszero\n      tag_62\n      jumpi\n      dup1\n      0x1f\n      lt\n      tag_63\n      jumpi\n      0x0100\n      dup1\n      dup4\n      sload\n      div\n      mul\n      dup4\n      mstore\n      swap2\n      0x20\n      add\n      swap2\n      jump(tag_62)\n    tag_63:\n      dup3\n      add\n      swap2\n      swap1\n      0x00\n      mstore\n      keccak256(0x00, 0x20)\n      swap1\n    tag_64:\n      dup2\n      sload\n      dup2\n      mstore\n      swap1\n      0x01\n      add\n      swap1\n      0x20\n      add\n      dup1\n      dup4\n      gt\n      tag_64\n      jumpi\n      dup3\n      swap1\n      sub\n      0x1f\n      and\n      dup3\n      add\n      swap2\n    tag_62:\n      pop\n      pop\n      pop\n      pop\n      pop\n      swap1\n      dup1\n      0x03\n      add\n      dup1\n      sload\n      tag_65\n      swap1\n      tag_55\n      jump\t// in\n    tag_65:\n      dup1\n      0x1f\n      add\n      0x20\n      dup1\n      swap2\n      div\n      mul\n      0x20\n      add\n      mload(0x40)\n      swap1\n      dup2\n      add\n      0x40\n      mstore\n      dup1\n      swap3\n      swap2\n      swap1\n      dup2\n      dup2\n      mstore\n      0x20\n      add\n      dup3\n      dup1\n      sload\n      tag_66\n      swap1\n      tag_55\n      jump\t// in\n    tag_66:\n      dup1\n      iszero\n      tag_67\n      jumpi\n      dup1\n      0x1f\n      lt\n      tag_68\n      jumpi\n      0x0100\n      dup1\n      dup4\n      sload\n      div\n      mul\n      dup4\n      mstore\n      swap2\n      0x20\n      add\n      swap2\n      jump(tag_67)\n    tag_68:\n      dup3\n      add\n      swap2\n      swap1\n      0x00\n      mstore\n      keccak256(0x00, 0x20)\n      swap1\n    tag_69:\n      dup2\n      sload\n      dup2\n      mstore\n      swap1\n      0x01\n      add\n      swap1\n      0x20\n      add\n      dup1\n      dup4\n      gt\n      tag_69\n      jumpi\n      dup3\n      swap1\n      sub\n      0x1f\n      and\n      dup3\n      add\n      swap2\n    tag_67:\n      pop\n      pop\n      pop\n      pop\n      pop\n      swap1\n      dup1\n      0x04\n      add\n      sload\n      swap1\n      dup1\n      0x05\n      add\n      sload\n      swap1\n      pop\n      dup7\n      jump\t// out\n        /* \"contracts/manager/StaffManager.sol\":484:803  function addStaff(uint _staffId, string calldata _name, string calldata _dob, string calldata _phone) external override {... */\n    tag_31:\n        /* \"contracts/manager/StaffManager.sol\":651:652  0 */\n      0x00\n        /* \"contracts/manager/StaffManager.sol\":623:629  staffs */\n      0x01\n        /* \"contracts/manager/StaffManager.sol\":623:639  staffs[_staffId] */\n      0x00\n        /* \"contracts/manager/StaffManager.sol\":630:638  _staffId */\n      dup10\n        /* \"contracts/manager/StaffManager.sol\":623:639  staffs[_staffId] */\n      dup2\n      mstore\n      0x20\n      add\n      swap1\n      dup2\n      mstore\n      0x20\n      add\n      0x00\n      keccak256\n        /* \"contracts/manager/StaffManager.sol\":623:647  staffs[_staffId].staffId */\n      0x00\n      add\n      sload\n        /* \"contracts/manager/StaffManager.sol\":623:652  staffs[_staffId].staffId == 0 */\n      eq\n        /* \"contracts/manager/StaffManager.sol\":615:680  require(staffs[_staffId].staffId == 0, \"Staff ID already exists\") */\n      tag_71\n      jumpi\n      mload(0x40)\n      0x08c379a000000000000000000000000000000000000000000000000000000000\n      dup2\n      mstore\n      0x04\n      add\n      tag_72\n      swap1\n      tag_73\n      jump\t// in\n    tag_72:\n      mload(0x40)\n      dup1\n      swap2\n      sub\n      swap1\n      revert\n    tag_71:\n        /* \"contracts/manager/StaffManager.sol\":710:752  Staff(_staffId, _name, _dob, _phone, 0, 0) */\n      mload(0x40)\n      dup1\n      0xc0\n      add\n      0x40\n      mstore\n      dup1\n        /* \"contracts/manager/StaffManager.sol\":716:724  _staffId */\n      dup9\n        /* \"contracts/manager/StaffManager.sol\":710:752  Staff(_staffId, _name, _dob, _phone, 0, 0) */\n      dup2\n      mstore\n      0x20\n      add\n        /* \"contracts/manager/StaffManager.sol\":726:731  _name */\n      dup8\n      dup8\n        /* \"contracts/manager/StaffManager.sol\":710:752  Staff(_staffId, _name, _dob, _phone, 0, 0) */\n      dup1\n      dup1\n      0x1f\n      add\n      0x20\n      dup1\n      swap2\n      div\n      mul\n      0x20\n      add\n      mload(0x40)\n      swap1\n      dup2\n      add\n      0x40\n      mstore\n      dup1\n      swap4\n      swap3\n      swap2\n      swap1\n      dup2\n      dup2\n      mstore\n      0x20\n      add\n      dup4\n      dup4\n      dup1\n      dup3\n      dup5\n      calldatacopy\n      0x00\n      dup2\n      dup5\n      add\n      mstore\n      not(0x1f)\n      0x1f\n      dup3\n      add\n      and\n      swap1\n      pop\n      dup1\n      dup4\n      add\n      swap3\n      pop\n      pop\n      pop\n      pop\n      pop\n      pop\n      pop\n      dup2\n      mstore\n      0x20\n      add\n        /* \"contracts/manager/StaffManager.sol\":733:737  _dob */\n      dup6\n      dup6\n        /* \"contracts/manager/StaffManager.sol\":710:752  Staff(_staffId, _name, _dob, _phone, 0, 0) */\n      dup1\n      dup1\n      0x1f\n      add\n      0x20\n      dup1\n      swap2\n      div\n      mul\n      0x20\n      add\n      mload(0x40)\n      swap1\n      dup2\n      add\n      0x40\n      mstore\n      dup1\n      swap4\n      swap3\n      swap2\n      swap1\n      dup2\n      dup2\n      mstore\n      0x20\n      add\n      dup4\n      dup4\n      dup1\n      dup3\n      dup5\n      calldatacopy\n      0x00\n      dup2\n      dup5\n      add\n      mstore\n      not(0x1f)\n      0x1f\n      dup3\n      add\n      and\n      swap1\n      pop\n      dup1\n      dup4\n      add\n      swap3\n      pop\n      pop\n      pop\n      pop\n      pop\n      pop\n      pop\n      dup2\n      mstore\n      0x20\n      add\n        /* \"contracts/manager/StaffManager.sol\":739:745  _phone */\n      dup4\n      dup4\n        /* \"contracts/manager/StaffManager.sol\":710:752  Staff(_staffId, _name, _dob, _phone, 0, 0) */\n      dup1\n      dup1\n      0x1f\n      add\n      0x20\n      dup1\n      swap2\n      div\n      mul\n      0x20\n      add\n      mload(0x40)\n      swap1\n      dup2\n      add\n      0x40\n      mstore\n      dup1\n      swap4\n      swap3\n      swap2\n      swap1\n      dup2\n      dup2\n      mstore\n      0x20\n      add\n      dup4\n      dup4\n      dup1\n      dup3\n      dup5\n      calldatacopy\n      0x00\n      dup2\n      dup5\n      add\n      mstore\n      not(0x1f)\n      0x1f\n      dup3\n      add\n      and\n      swap1\n      pop\n      dup1\n      dup4\n      add\n      swap3\n      pop\n      pop\n      pop\n      pop\n      pop\n      pop\n      pop\n      dup2\n      mstore\n      0x20\n      add\n        /* \"contracts/manager/StaffManager.sol\":747:748  0 */\n      0x00\n        /* \"contracts/manager/StaffManager.sol\":710:752  Staff(_staffId, _name, _dob, _phone, 0, 0) */\n      dup2\n      mstore\n      0x20\n      add\n        /* \"contracts/manager/StaffManager.sol\":750:751  0 */\n      0x00\n        /* \"contracts/manager/StaffManager.sol\":710:752  Staff(_staffId, _name, _dob, _phone, 0, 0) */\n      dup2\n      mstore\n      pop\n        /* \"contracts/manager/StaffManager.sol\":691:697  staffs */\n      0x01\n        /* \"contracts/manager/StaffManager.sol\":691:707  staffs[_staffId] */\n      0x00\n        /* \"contracts/manager/StaffManager.sol\":698:706  _staffId */\n      dup10\n        /* \"contracts/manager/StaffManager.sol\":691:707  staffs[_staffId] */\n      dup2\n      mstore\n      0x20\n      add\n      swap1\n      dup2\n      mstore\n      0x20\n      add\n      0x00\n      keccak256\n        /* \"contracts/manager/StaffManager.sol\":691:752  staffs[_staffId] = Staff(_staffId, _name, _dob, _phone, 0, 0) */\n      0x00\n      dup3\n      add\n      mload\n      dup2\n      0x00\n      add\n      sstore\n      0x20\n      dup3\n      add\n      mload\n      dup2\n      0x01\n      add\n      swap1\n      dup2\n      tag_74\n      swap2\n      swap1\n      tag_75\n      jump\t// in\n    tag_74:\n      pop\n      0x40\n      dup3\n      add\n      mload\n      dup2\n      0x02\n      add\n      swap1\n      dup2\n      tag_76\n      swap2\n      swap1\n      tag_75\n      jump\t// in\n    tag_76:\n      pop\n      0x60\n      dup3\n      add\n      mload\n      dup2\n      0x03\n      add\n      swap1\n      dup2\n      tag_77\n      swap2\n      swap1\n      tag_75\n      jump\t// in\n    tag_77:\n      pop\n      0x80\n      dup3\n      add\n      mload\n      dup2\n      0x04\n      add\n      sstore\n      0xa0\n      dup3\n      add\n      mload\n      dup2\n      0x05\n      add\n      sstore\n      swap1\n      pop\n      pop\n        /* \"contracts/manager/StaffManager.sol\":779:787  _staffId */\n      dup7\n        /* \"contracts/manager/StaffManager.sol\":768:795  StaffAdded(_staffId, _name) */\n      0xb9918942a2a29d1164ea11d03222c9a01a970e1d37797e67a114dd2c6196dac2\n        /* \"contracts/manager/StaffManager.sol\":789:794  _name */\n      dup8\n      dup8\n        /* \"contracts/manager/StaffManager.sol\":768:795  StaffAdded(_staffId, _name) */\n      mload(0x40)\n      tag_78\n      swap3\n      swap2\n      swap1\n      tag_79\n      jump\t// in\n    tag_78:\n      mload(0x40)\n      dup1\n      swap2\n      sub\n      swap1\n      log2\n        /* \"contracts/manager/StaffManager.sol\":484:803  function addStaff(uint _staffId, string calldata _name, string calldata _dob, string calldata _phone) external override {... */\n      pop\n      pop\n      pop\n      pop\n      pop\n      pop\n      pop\n      jump\t// out\n        /* \"contracts/manager/StaffManager.sol\":940:1316  function updateStaffInfo(uint _staffId, string calldata _name, string calldata _dob, string calldata _phone) external override {... */\n    tag_34:\n        /* \"contracts/manager/StaffManager.sol\":1114:1115  0 */\n      0x00\n        /* \"contracts/manager/StaffManager.sol\":1086:1092  staffs */\n      0x01\n        /* \"contracts/manager/StaffManager.sol\":1086:1102  staffs[_staffId] */\n      0x00\n        /* \"contracts/manager/StaffManager.sol\":1093:1101  _staffId */\n      dup10\n        /* \"contracts/manager/StaffManager.sol\":1086:1102  staffs[_staffId] */\n      dup2\n      mstore\n      0x20\n      add\n      swap1\n      dup2\n      mstore\n      0x20\n      add\n      0x00\n      keccak256\n        /* \"contracts/manager/StaffManager.sol\":1086:1110  staffs[_staffId].staffId */\n      0x00\n      add\n      sload\n        /* \"contracts/manager/StaffManager.sol\":1086:1115  staffs[_staffId].staffId != 0 */\n      sub\n        /* \"contracts/manager/StaffManager.sol\":1078:1143  require(staffs[_staffId].staffId != 0, \"Staff ID does not exist\") */\n      tag_81\n      jumpi\n      mload(0x40)\n      0x08c379a000000000000000000000000000000000000000000000000000000000\n      dup2\n      mstore\n      0x04\n      add\n      tag_82\n      swap1\n      tag_83\n      jump\t// in\n    tag_82:\n      mload(0x40)\n      dup1\n      swap2\n      sub\n      swap1\n      revert\n    tag_81:\n        /* \"contracts/manager/StaffManager.sol\":1178:1183  _name */\n      dup6\n      dup6\n        /* \"contracts/manager/StaffManager.sol\":1154:1160  staffs */\n      0x01\n        /* \"contracts/manager/StaffManager.sol\":1154:1170  staffs[_staffId] */\n      0x00\n        /* \"contracts/manager/StaffManager.sol\":1161:1169  _staffId */\n      dup11\n        /* \"contracts/manager/StaffManager.sol\":1154:1170  staffs[_staffId] */\n      dup2\n      mstore\n      0x20\n      add\n      swap1\n      dup2\n      mstore\n      0x20\n      add\n      0x00\n      keccak256\n        /* \"contracts/manager/StaffManager.sol\":1154:1175  staffs[_staffId].name */\n      0x01\n      add\n        /* \"contracts/manager/StaffManager.sol\":1154:1183  staffs[_staffId].name = _name */\n      swap2\n      dup3\n      tag_84\n      swap3\n      swap2\n      swap1\n      tag_85\n      jump\t// in\n    tag_84:\n      pop\n        /* \"contracts/manager/StaffManager.sol\":1217:1221  _dob */\n      dup4\n      dup4\n        /* \"contracts/manager/StaffManager.sol\":1194:1200  staffs */\n      0x01\n        /* \"contracts/manager/StaffManager.sol\":1194:1210  staffs[_staffId] */\n      0x00\n        /* \"contracts/manager/StaffManager.sol\":1201:1209  _staffId */\n      dup11\n        /* \"contracts/manager/StaffManager.sol\":1194:1210  staffs[_staffId] */\n      dup2\n      mstore\n      0x20\n      add\n      swap1\n      dup2\n      mstore\n      0x20\n      add\n      0x00\n      keccak256\n        /* \"contracts/manager/StaffManager.sol\":1194:1214  staffs[_staffId].dob */\n      0x02\n      add\n        /* \"contracts/manager/StaffManager.sol\":1194:1221  staffs[_staffId].dob = _dob */\n      swap2\n      dup3\n      tag_86\n      swap3\n      swap2\n      swap1\n      tag_85\n      jump\t// in\n    tag_86:\n      pop\n        /* \"contracts/manager/StaffManager.sol\":1257:1263  _phone */\n      dup2\n      dup2\n        /* \"contracts/manager/StaffManager.sol\":1232:1238  staffs */\n      0x01\n        /* \"contracts/manager/StaffManager.sol\":1232:1248  staffs[_staffId] */\n      0x00\n        /* \"contracts/manager/StaffManager.sol\":1239:1247  _staffId */\n      dup11\n        /* \"contracts/manager/StaffManager.sol\":1232:1248  staffs[_staffId] */\n      dup2\n      mstore\n      0x20\n      add\n      swap1\n      dup2\n      mstore\n      0x20\n      add\n      0x00\n      keccak256\n        /* \"contracts/manager/StaffManager.sol\":1232:1254  staffs[_staffId].phone */\n      0x03\n      add\n        /* \"contracts/manager/StaffManager.sol\":1232:1263  staffs[_staffId].phone = _phone */\n      swap2\n      dup3\n      tag_87\n      swap3\n      swap2\n      swap1\n      tag_85\n      jump\t// in\n    tag_87:\n      pop\n        /* \"contracts/manager/StaffManager.sol\":1292:1300  _staffId */\n      dup7\n        /* \"contracts/manager/StaffManager.sol\":1279:1308  StaffUpdated(_staffId, _name) */\n      0x27556b62664053de7a418476f2c4abc9b526d3c747991948d328082493d82c0e\n        /* \"contracts/manager/StaffManager.sol\":1302:1307  _name */\n      dup8\n      dup8\n        /* \"contracts/manager/StaffManager.sol\":1279:1308  StaffUpdated(_staffId, _name) */\n      mload(0x40)\n      tag_88\n      swap3\n      swap2\n      swap1\n      tag_79\n      jump\t// in\n    tag_88:\n      mload(0x40)\n      dup1\n      swap2\n      sub\n      swap1\n      log2\n        /* \"contracts/manager/StaffManager.sol\":940:1316  function updateStaffInfo(uint _staffId, string calldata _name, string calldata _dob, string calldata _phone) external override {... */\n      pop\n      pop\n      pop\n      pop\n      pop\n      pop\n      pop\n      jump\t// out\n        /* \"contracts/manager/StaffManager.sol\":1648:1783  function getStaffForOrder(uint _orderId) external view override returns (uint[] memory) {... */\n    tag_37:\n        /* \"contracts/manager/StaffManager.sol\":1721:1734  uint[] memory */\n      0x60\n        /* \"contracts/manager/StaffManager.sol\":1754:1765  orderStaffs */\n      0x02\n        /* \"contracts/manager/StaffManager.sol\":1754:1775  orderStaffs[_orderId] */\n      0x00\n        /* \"contracts/manager/StaffManager.sol\":1766:1774  _orderId */\n      dup4\n        /* \"contracts/manager/StaffManager.sol\":1754:1775  orderStaffs[_orderId] */\n      dup2\n      mstore\n      0x20\n      add\n      swap1\n      dup2\n      mstore\n      0x20\n      add\n      0x00\n      keccak256\n        /* \"contracts/manager/StaffManager.sol\":1747:1775  return orderStaffs[_orderId] */\n      dup1\n      sload\n      dup1\n      0x20\n      mul\n      0x20\n      add\n      mload(0x40)\n      swap1\n      dup2\n      add\n      0x40\n      mstore\n      dup1\n      swap3\n      swap2\n      swap1\n      dup2\n      dup2\n      mstore\n      0x20\n      add\n      dup3\n      dup1\n      sload\n      dup1\n      iszero\n      tag_90\n      jumpi\n      0x20\n      mul\n      dup3\n      add\n      swap2\n      swap1\n      0x00\n      mstore\n      keccak256(0x00, 0x20)\n      swap1\n    tag_91:\n      dup2\n      sload\n      dup2\n      mstore\n      0x20\n      add\n      swap1\n      0x01\n      add\n      swap1\n      dup1\n      dup4\n      gt\n      tag_91\n      jumpi\n    tag_90:\n      pop\n      pop\n      pop\n      pop\n      pop\n      swap1\n      pop\n        /* \"contracts/manager/StaffManager.sol\":1648:1783  function getStaffForOrder(uint _orderId) external view override returns (uint[] memory) {... */\n      swap2\n      swap1\n      pop\n      jump\t// out\n        /* \"contracts/manager/StaffManager.sol\":811:932  function getStaff(uint _staffId) external view override returns (Staff memory) {... */\n    tag_42:\n        /* \"contracts/manager/StaffManager.sol\":876:888  Staff memory */\n      tag_92\n      tag_93\n      jump\t// in\n    tag_92:\n        /* \"contracts/manager/StaffManager.sol\":908:914  staffs */\n      0x01\n        /* \"contracts/manager/StaffManager.sol\":908:924  staffs[_staffId] */\n      0x00\n        /* \"contracts/manager/StaffManager.sol\":915:923  _staffId */\n      dup4\n        /* \"contracts/manager/StaffManager.sol\":908:924  staffs[_staffId] */\n      dup2\n      mstore\n      0x20\n      add\n      swap1\n      dup2\n      mstore\n      0x20\n      add\n      0x00\n      keccak256\n        /* \"contracts/manager/StaffManager.sol\":901:924  return staffs[_staffId] */\n      mload(0x40)\n      dup1\n      0xc0\n      add\n      0x40\n      mstore\n      swap1\n      dup2\n      0x00\n      dup3\n      add\n      sload\n      dup2\n      mstore\n      0x20\n      add\n      0x01\n      dup3\n      add\n      dup1\n      sload\n      tag_95\n      swap1\n      tag_55\n      jump\t// in\n    tag_95:\n      dup1\n      0x1f\n      add\n      0x20\n      dup1\n      swap2\n      div\n      mul\n      0x20\n      add\n      mload(0x40)\n      swap1\n      dup2\n      add\n      0x40\n      mstore\n      dup1\n      swap3\n      swap2\n      swap1\n      dup2\n      dup2\n      mstore\n      0x20\n      add\n      dup3\n      dup1\n      sload\n      tag_96\n      swap1\n      tag_55\n      jump\t// in\n    tag_96:\n      dup1\n      iszero\n      tag_97\n      jumpi\n      dup1\n      0x1f\n      lt\n      tag_98\n      jumpi\n      0x0100\n      dup1\n      dup4\n      sload\n      div\n      mul\n      dup4\n      mstore\n      swap2\n      0x20\n      add\n      swap2\n      jump(tag_97)\n    tag_98:\n      dup3\n      add\n      swap2\n      swap1\n      0x00\n      mstore\n      keccak256(0x00, 0x20)\n      swap1\n    tag_99:\n      dup2\n      sload\n      dup2\n      mstore\n      swap1\n      0x01\n      add\n      swap1\n      0x20\n      add\n      dup1\n      dup4\n      gt\n      tag_99\n      jumpi\n      dup3\n      swap1\n      sub\n      0x1f\n      and\n      dup3\n      add\n      swap2\n    tag_97:\n      pop\n      pop\n      pop\n      pop\n      pop\n      dup2\n      mstore\n      0x20\n      add\n      0x02\n      dup3\n      add\n      dup1\n      sload\n      tag_100\n      swap1\n      tag_55\n      jump\t// in\n    tag_100:\n      dup1\n      0x1f\n      add\n      0x20\n      dup1\n      swap2\n      div\n      mul\n      0x20\n      add\n      mload(0x40)\n      swap1\n      dup2\n      add\n      0x40\n      mstore\n      dup1\n      swap3\n      swap2\n      swap1\n      dup2\n      dup2\n      mstore\n      0x20\n      add\n      dup3\n      dup1\n      sload\n      tag_101\n      swap1\n      tag_55\n      jump\t// in\n    tag_101:\n      dup1\n      iszero\n      tag_102\n      jumpi\n      dup1\n      0x1f\n      lt\n      tag_103\n      jumpi\n      0x0100\n      dup1\n      dup4\n      sload\n      div\n      mul\n      dup4\n      mstore\n      swap2\n      0x20\n      add\n      swap2\n      jump(tag_102)\n    tag_103:\n      dup3\n      add\n      swap2\n      swap1\n      0x00\n      mstore\n      keccak256(0x00, 0x20)\n      swap1\n    tag_104:\n      dup2\n      sload\n      dup2\n      mstore\n      swap1\n      0x01\n      add\n      swap1\n      0x20\n      add\n      dup1\n      dup4\n      gt\n      tag_104\n      jumpi\n      dup3\n      swap1\n      sub\n      0x1f\n      and\n      dup3\n      add\n      swap2\n    tag_102:\n      pop\n      pop\n      pop\n      pop\n      pop\n      dup2\n      mstore\n      0x20\n      add\n      0x03\n      dup3\n      add\n      dup1\n      sload\n      tag_105\n      swap1\n      tag_55\n      jump\t// in\n    tag_105:\n      dup1\n      0x1f\n      add\n      0x20\n      dup1\n      swap2\n      div\n      mul\n      0x20\n      add\n      mload(0x40)\n      swap1\n      dup2\n      add\n      0x40\n      mstore\n      dup1\n      swap3\n      swap2\n      swap1\n      dup2\n      dup2\n      mstore\n      0x20\n      add\n      dup3\n      dup1\n      sload\n      tag_106\n      swap1\n      tag_55\n      jump\t// in\n    tag_106:\n      dup1\n      iszero\n      tag_107\n      jumpi\n      dup1\n      0x1f\n      lt\n      tag_108\n      jumpi\n      0x0100\n      dup1\n      dup4\n      sload\n      div\n      mul\n      dup4\n      mstore\n      swap2\n      0x20\n      add\n      swap2\n      jump(tag_107)\n    tag_108:\n      dup3\n      add\n      swap2\n      swap1\n      0x00\n      mstore\n      keccak256(0x00, 0x20)\n      swap1\n    tag_109:\n      dup2\n      sload\n      dup2\n      mstore\n      swap1\n      0x01\n      add\n      swap1\n      0x20\n      add\n      dup1\n      dup4\n      gt\n      tag_109\n      jumpi\n      dup3\n      swap1\n      sub\n      0x1f\n      and\n      dup3\n      add\n      swap2\n    tag_107:\n      pop\n      pop\n      pop\n      pop\n      pop\n      dup2\n      mstore\n      0x20\n      add\n      0x04\n      dup3\n      add\n      sload\n      dup2\n      mstore\n      0x20\n      add\n      0x05\n      dup3\n      add\n      sload\n      dup2\n      mstore\n      pop\n      pop\n      swap1\n      pop\n        /* \"contracts/manager/StaffManager.sol\":811:932  function getStaff(uint _staffId) external view override returns (Staff memory) {... */\n      swap2\n      swap1\n      pop\n      jump\t// out\n        /* \"contracts/manager/StaffManager.sol\":197:230  IOrderManager public orderManager */\n    tag_46:\n      0x00\n      0x00\n      swap1\n      sload\n      swap1\n      0x0100\n      exp\n      swap1\n      div\n      0xffffffffffffffffffffffffffffffffffffffff\n      and\n      dup2\n      jump\t// out\n        /* \"contracts/manager/StaffManager.sol\":1324:1640  function addStaffToOrder(uint _orderId, uint _staffId) external override {... */\n    tag_51:\n        /* \"contracts/manager/StaffManager.sol\":1444:1445  0 */\n      0x00\n        /* \"contracts/manager/StaffManager.sol\":1416:1422  staffs */\n      0x01\n        /* \"contracts/manager/StaffManager.sol\":1416:1432  staffs[_staffId] */\n      0x00\n        /* \"contracts/manager/StaffManager.sol\":1423:1431  _staffId */\n      dup4\n        /* \"contracts/manager/StaffManager.sol\":1416:1432  staffs[_staffId] */\n      dup2\n      mstore\n      0x20\n      add\n      swap1\n      dup2\n      mstore\n      0x20\n      add\n      0x00\n      keccak256\n        /* \"contracts/manager/StaffManager.sol\":1416:1440  staffs[_staffId].staffId */\n      0x00\n      add\n      sload\n        /* \"contracts/manager/StaffManager.sol\":1416:1445  staffs[_staffId].staffId != 0 */\n      sub\n        /* \"contracts/manager/StaffManager.sol\":1408:1473  require(staffs[_staffId].staffId != 0, \"Staff ID does not exist\") */\n      tag_111\n      jumpi\n      mload(0x40)\n      0x08c379a000000000000000000000000000000000000000000000000000000000\n      dup2\n      mstore\n      0x04\n      add\n      tag_112\n      swap1\n      tag_83\n      jump\t// in\n    tag_112:\n      mload(0x40)\n      dup1\n      swap2\n      sub\n      swap1\n      revert\n    tag_111:\n        /* \"contracts/manager/StaffManager.sol\":1484:1495  orderStaffs */\n      0x02\n        /* \"contracts/manager/StaffManager.sol\":1484:1505  orderStaffs[_orderId] */\n      0x00\n        /* \"contracts/manager/StaffManager.sol\":1496:1504  _orderId */\n      dup4\n        /* \"contracts/manager/StaffManager.sol\":1484:1505  orderStaffs[_orderId] */\n      dup2\n      mstore\n      0x20\n      add\n      swap1\n      dup2\n      mstore\n      0x20\n      add\n      0x00\n      keccak256\n        /* \"contracts/manager/StaffManager.sol\":1511:1519  _staffId */\n      dup2\n        /* \"contracts/manager/StaffManager.sol\":1484:1520  orderStaffs[_orderId].push(_staffId) */\n      swap1\n      dup1\n      0x01\n      dup2\n      sload\n      add\n      dup1\n      dup3\n      sstore\n      dup1\n      swap2\n      pop\n      pop\n      0x01\n      swap1\n      sub\n      swap1\n      0x00\n      mstore\n      keccak256(0x00, 0x20)\n      add\n      0x00\n      swap1\n      swap2\n      swap1\n      swap2\n      swap1\n      swap2\n      pop\n      sstore\n        /* \"contracts/manager/StaffManager.sol\":1531:1543  orderManager */\n      0x00\n      0x00\n      swap1\n      sload\n      swap1\n      0x0100\n      exp\n      swap1\n      div\n      0xffffffffffffffffffffffffffffffffffffffff\n      and\n        /* \"contracts/manager/StaffManager.sol\":1531:1560  orderManager.addStaffForOrder */\n      0xffffffffffffffffffffffffffffffffffffffff\n      and\n      0x3f9fb5fd\n        /* \"contracts/manager/StaffManager.sol\":1561:1569  _orderId */\n      dup4\n        /* \"contracts/manager/StaffManager.sol\":1570:1578  _staffId */\n      dup4\n        /* \"contracts/manager/StaffManager.sol\":1531:1579  orderManager.addStaffForOrder(_orderId,_staffId) */\n      mload(0x40)\n      dup4\n      0xffffffff\n      and\n      0xe0\n      shl\n      dup2\n      mstore\n      0x04\n      add\n      tag_114\n      swap3\n      swap2\n      swap1\n      tag_115\n      jump\t// in\n    tag_114:\n      0x00\n      mload(0x40)\n      dup1\n      dup4\n      sub\n      dup2\n      0x00\n      dup8\n      dup1\n      extcodesize\n      iszero\n      dup1\n      iszero\n      tag_116\n      jumpi\n      revert(0x00, 0x00)\n    tag_116:\n      pop\n      gas\n      call\n      iszero\n      dup1\n      iszero\n      tag_118\n      jumpi\n      returndatacopy(0x00, 0x00, returndatasize)\n      revert(0x00, returndatasize)\n    tag_118:\n      pop\n      pop\n      pop\n      pop\n        /* \"contracts/manager/StaffManager.sol\":1614:1622  _staffId */\n      dup1\n        /* \"contracts/manager/StaffManager.sol\":1595:1632  StaffAddedToOrder( _staffId,_orderId) */\n      0x37fe5ba29264c8debd409a782c67744bf54751791ccf1197762b9819c10ab610\n        /* \"contracts/manager/StaffManager.sol\":1623:1631  _orderId */\n      dup4\n        /* \"contracts/manager/StaffManager.sol\":1595:1632  StaffAddedToOrder( _staffId,_orderId) */\n      mload(0x40)\n      tag_119\n      swap2\n      swap1\n      tag_18\n      jump\t// in\n    tag_119:\n      mload(0x40)\n      dup1\n      swap2\n      sub\n      swap1\n      log2\n        /* \"contracts/manager/StaffManager.sol\":1324:1640  function addStaffToOrder(uint _orderId, uint _staffId) external override {... */\n      pop\n      pop\n      jump\t// out\n    tag_93:\n      mload(0x40)\n      dup1\n      0xc0\n      add\n      0x40\n      mstore\n      dup1\n      0x00\n      dup2\n      mstore\n      0x20\n      add\n      0x60\n      dup2\n      mstore\n      0x20\n      add\n      0x60\n      dup2\n      mstore\n      0x20\n      add\n      0x60\n      dup2\n      mstore\n      0x20\n      add\n      0x00\n      dup2\n      mstore\n      0x20\n      add\n      0x00\n      dup2\n      mstore\n      pop\n      swap1\n      jump\t// out\n        /* \"#utility.yul\":88:205   */\n    tag_121:\n        /* \"#utility.yul\":197:198   */\n      0x00\n        /* \"#utility.yul\":194:195   */\n      0x00\n        /* \"#utility.yul\":187:199   */\n      revert\n        /* \"#utility.yul\":211:328   */\n    tag_122:\n        /* \"#utility.yul\":320:321   */\n      0x00\n        /* \"#utility.yul\":317:318   */\n      0x00\n        /* \"#utility.yul\":310:322   */\n      revert\n        /* \"#utility.yul\":334:411   */\n    tag_123:\n        /* \"#utility.yul\":371:378   */\n      0x00\n        /* \"#utility.yul\":400:405   */\n      dup2\n        /* \"#utility.yul\":389:405   */\n      swap1\n      pop\n        /* \"#utility.yul\":334:411   */\n      swap2\n      swap1\n      pop\n      jump\t// out\n        /* \"#utility.yul\":417:539   */\n    tag_124:\n        /* \"#utility.yul\":490:514   */\n      tag_181\n        /* \"#utility.yul\":508:513   */\n      dup2\n        /* \"#utility.yul\":490:514   */\n      tag_123\n      jump\t// in\n    tag_181:\n        /* \"#utility.yul\":483:488   */\n      dup2\n        /* \"#utility.yul\":480:515   */\n      eq\n        /* \"#utility.yul\":470:533   */\n      tag_182\n      jumpi\n        /* \"#utility.yul\":529:530   */\n      0x00\n        /* \"#utility.yul\":526:527   */\n      0x00\n        /* \"#utility.yul\":519:531   */\n      revert\n        /* \"#utility.yul\":470:533   */\n    tag_182:\n        /* \"#utility.yul\":417:539   */\n      pop\n      jump\t// out\n        /* \"#utility.yul\":545:684   */\n    tag_125:\n        /* \"#utility.yul\":591:596   */\n      0x00\n        /* \"#utility.yul\":629:635   */\n      dup2\n        /* \"#utility.yul\":616:636   */\n      calldataload\n        /* \"#utility.yul\":607:636   */\n      swap1\n      pop\n        /* \"#utility.yul\":645:678   */\n      tag_184\n        /* \"#utility.yul\":672:677   */\n      dup2\n        /* \"#utility.yul\":645:678   */\n      tag_124\n      jump\t// in\n    tag_184:\n        /* \"#utility.yul\":545:684   */\n      swap3\n      swap2\n      pop\n      pop\n      jump\t// out\n        /* \"#utility.yul\":690:1164   */\n    tag_15:\n        /* \"#utility.yul\":758:764   */\n      0x00\n        /* \"#utility.yul\":766:772   */\n      0x00\n        /* \"#utility.yul\":815:817   */\n      0x40\n        /* \"#utility.yul\":803:812   */\n      dup4\n        /* \"#utility.yul\":794:801   */\n      dup6\n        /* \"#utility.yul\":790:813   */\n      sub\n        /* \"#utility.yul\":786:818   */\n      slt\n        /* \"#utility.yul\":783:902   */\n      iszero\n      tag_186\n      jumpi\n        /* \"#utility.yul\":821:900   */\n      tag_187\n      tag_121\n      jump\t// in\n    tag_187:\n        /* \"#utility.yul\":783:902   */\n    tag_186:\n        /* \"#utility.yul\":941:942   */\n      0x00\n        /* \"#utility.yul\":966:1019   */\n      tag_188\n        /* \"#utility.yul\":1011:1018   */\n      dup6\n        /* \"#utility.yul\":1002:1008   */\n      dup3\n        /* \"#utility.yul\":991:1000   */\n      dup7\n        /* \"#utility.yul\":987:1009   */\n      add\n        /* \"#utility.yul\":966:1019   */\n      tag_125\n      jump\t// in\n    tag_188:\n        /* \"#utility.yul\":956:1019   */\n      swap3\n      pop\n        /* \"#utility.yul\":912:1029   */\n      pop\n        /* \"#utility.yul\":1068:1070   */\n      0x20\n        /* \"#utility.yul\":1094:1147   */\n      tag_189\n        /* \"#utility.yul\":1139:1146   */\n      dup6\n        /* \"#utility.yul\":1130:1136   */\n      dup3\n        /* \"#utility.yul\":1119:1128   */\n      dup7\n        /* \"#utility.yul\":1115:1137   */\n      add\n        /* \"#utility.yul\":1094:1147   */\n      tag_125\n      jump\t// in\n    tag_189:\n        /* \"#utility.yul\":1084:1147   */\n      swap2\n      pop\n        /* \"#utility.yul\":1039:1157   */\n      pop\n        /* \"#utility.yul\":690:1164   */\n      swap3\n      pop\n      swap3\n      swap1\n      pop\n      jump\t// out\n        /* \"#utility.yul\":1170:1288   */\n    tag_126:\n        /* \"#utility.yul\":1257:1281   */\n      tag_191\n        /* \"#utility.yul\":1275:1280   */\n      dup2\n        /* \"#utility.yul\":1257:1281   */\n      tag_123\n      jump\t// in\n    tag_191:\n        /* \"#utility.yul\":1252:1255   */\n      dup3\n        /* \"#utility.yul\":1245:1282   */\n      mstore\n        /* \"#utility.yul\":1170:1288   */\n      pop\n      pop\n      jump\t// out\n        /* \"#utility.yul\":1294:1516   */\n    tag_18:\n        /* \"#utility.yul\":1387:1391   */\n      0x00\n        /* \"#utility.yul\":1425:1427   */\n      0x20\n        /* \"#utility.yul\":1414:1423   */\n      dup3\n        /* \"#utility.yul\":1410:1428   */\n      add\n        /* \"#utility.yul\":1402:1428   */\n      swap1\n      pop\n        /* \"#utility.yul\":1438:1509   */\n      tag_193\n        /* \"#utility.yul\":1506:1507   */\n      0x00\n        /* \"#utility.yul\":1495:1504   */\n      dup4\n        /* \"#utility.yul\":1491:1508   */\n      add\n        /* \"#utility.yul\":1482:1488   */\n      dup5\n        /* \"#utility.yul\":1438:1509   */\n      tag_126\n      jump\t// in\n    tag_193:\n        /* \"#utility.yul\":1294:1516   */\n      swap3\n      swap2\n      pop\n      pop\n      jump\t// out\n        /* \"#utility.yul\":1522:1851   */\n    tag_24:\n        /* \"#utility.yul\":1581:1587   */\n      0x00\n        /* \"#utility.yul\":1630:1632   */\n      0x20\n        /* \"#utility.yul\":1618:1627   */\n      dup3\n        /* \"#utility.yul\":1609:1616   */\n      dup5\n        /* \"#utility.yul\":1605:1628   */\n      sub\n        /* \"#utility.yul\":1601:1633   */\n      slt\n        /* \"#utility.yul\":1598:1717   */\n      iszero\n      tag_195\n      jumpi\n        /* \"#utility.yul\":1636:1715   */\n      tag_196\n      tag_121\n      jump\t// in\n    tag_196:\n        /* \"#utility.yul\":1598:1717   */\n    tag_195:\n        /* \"#utility.yul\":1756:1757   */\n      0x00\n        /* \"#utility.yul\":1781:1834   */\n      tag_197\n        /* \"#utility.yul\":1826:1833   */\n      dup5\n        /* \"#utility.yul\":1817:1823   */\n      dup3\n        /* \"#utility.yul\":1806:1815   */\n      dup6\n        /* \"#utility.yul\":1802:1824   */\n      add\n        /* \"#utility.yul\":1781:1834   */\n      tag_125\n      jump\t// in\n    tag_197:\n        /* \"#utility.yul\":1771:1834   */\n      swap2\n      pop\n        /* \"#utility.yul\":1727:1844   */\n      pop\n        /* \"#utility.yul\":1522:1851   */\n      swap3\n      swap2\n      pop\n      pop\n      jump\t// out\n        /* \"#utility.yul\":1857:1956   */\n    tag_127:\n        /* \"#utility.yul\":1909:1915   */\n      0x00\n        /* \"#utility.yul\":1943:1948   */\n      dup2\n        /* \"#utility.yul\":1937:1949   */\n      mload\n        /* \"#utility.yul\":1927:1949   */\n      swap1\n      pop\n        /* \"#utility.yul\":1857:1956   */\n      swap2\n      swap1\n      pop\n      jump\t// out\n        /* \"#utility.yul\":1962:2131   */\n    tag_128:\n        /* \"#utility.yul\":2046:2057   */\n      0x00\n        /* \"#utility.yul\":2080:2086   */\n      dup3\n        /* \"#utility.yul\":2075:2078   */\n      dup3\n        /* \"#utility.yul\":2068:2087   */\n      mstore\n        /* \"#utility.yul\":2120:2124   */\n      0x20\n        /* \"#utility.yul\":2115:2118   */\n      dup3\n        /* \"#utility.yul\":2111:2125   */\n      add\n        /* \"#utility.yul\":2096:2125   */\n      swap1\n      pop\n        /* \"#utility.yul\":1962:2131   */\n      swap3\n      swap2\n      pop\n      pop\n      jump\t// out\n        /* \"#utility.yul\":2137:2276   */\n    tag_129:\n        /* \"#utility.yul\":2226:2232   */\n      dup3\n        /* \"#utility.yul\":2221:2224   */\n      dup2\n        /* \"#utility.yul\":2216:2219   */\n      dup4\n        /* \"#utility.yul\":2210:2233   */\n      mcopy\n        /* \"#utility.yul\":2267:2268   */\n      0x00\n        /* \"#utility.yul\":2258:2264   */\n      dup4\n        /* \"#utility.yul\":2253:2256   */\n      dup4\n        /* \"#utility.yul\":2249:2265   */\n      add\n        /* \"#utility.yul\":2242:2269   */\n      mstore\n        /* \"#utility.yul\":2137:2276   */\n      pop\n      pop\n      pop\n      jump\t// out\n        /* \"#utility.yul\":2282:2384   */\n    tag_130:\n        /* \"#utility.yul\":2323:2329   */\n      0x00\n        /* \"#utility.yul\":2374:2376   */\n      0x1f\n        /* \"#utility.yul\":2370:2377   */\n      not\n        /* \"#utility.yul\":2365:2367   */\n      0x1f\n        /* \"#utility.yul\":2358:2363   */\n      dup4\n        /* \"#utility.yul\":2354:2368   */\n      add\n        /* \"#utility.yul\":2350:2378   */\n      and\n        /* \"#utility.yul\":2340:2378   */\n      swap1\n      pop\n        /* \"#utility.yul\":2282:2384   */\n      swap2\n      swap1\n      pop\n      jump\t// out\n        /* \"#utility.yul\":2390:2767   */\n    tag_131:\n        /* \"#utility.yul\":2478:2481   */\n      0x00\n        /* \"#utility.yul\":2506:2545   */\n      tag_203\n        /* \"#utility.yul\":2539:2544   */\n      dup3\n        /* \"#utility.yul\":2506:2545   */\n      tag_127\n      jump\t// in\n    tag_203:\n        /* \"#utility.yul\":2561:2632   */\n      tag_204\n        /* \"#utility.yul\":2625:2631   */\n      dup2\n        /* \"#utility.yul\":2620:2623   */\n      dup6\n        /* \"#utility.yul\":2561:2632   */\n      tag_128\n      jump\t// in\n    tag_204:\n        /* \"#utility.yul\":2554:2632   */\n      swap4\n      pop\n        /* \"#utility.yul\":2641:2706   */\n      tag_205\n        /* \"#utility.yul\":2699:2705   */\n      dup2\n        /* \"#utility.yul\":2694:2697   */\n      dup6\n        /* \"#utility.yul\":2687:2691   */\n      0x20\n        /* \"#utility.yul\":2680:2685   */\n      dup7\n        /* \"#utility.yul\":2676:2692   */\n      add\n        /* \"#utility.yul\":2641:2706   */\n      tag_129\n      jump\t// in\n    tag_205:\n        /* \"#utility.yul\":2731:2760   */\n      tag_206\n        /* \"#utility.yul\":2753:2759   */\n      dup2\n        /* \"#utility.yul\":2731:2760   */\n      tag_130\n      jump\t// in\n    tag_206:\n        /* \"#utility.yul\":2726:2729   */\n      dup5\n        /* \"#utility.yul\":2722:2761   */\n      add\n        /* \"#utility.yul\":2715:2761   */\n      swap2\n      pop\n        /* \"#utility.yul\":2482:2767   */\n      pop\n        /* \"#utility.yul\":2390:2767   */\n      swap3\n      swap2\n      pop\n      pop\n      jump\t// out\n        /* \"#utility.yul\":2773:3821   */\n    tag_27:\n        /* \"#utility.yul\":3066:3070   */\n      0x00\n        /* \"#utility.yul\":3104:3107   */\n      0xc0\n        /* \"#utility.yul\":3093:3102   */\n      dup3\n        /* \"#utility.yul\":3089:3108   */\n      add\n        /* \"#utility.yul\":3081:3108   */\n      swap1\n      pop\n        /* \"#utility.yul\":3118:3189   */\n      tag_208\n        /* \"#utility.yul\":3186:3187   */\n      0x00\n        /* \"#utility.yul\":3175:3184   */\n      dup4\n        /* \"#utility.yul\":3171:3188   */\n      add\n        /* \"#utility.yul\":3162:3168   */\n      dup10\n        /* \"#utility.yul\":3118:3189   */\n      tag_126\n      jump\t// in\n    tag_208:\n        /* \"#utility.yul\":3236:3245   */\n      dup2\n        /* \"#utility.yul\":3230:3234   */\n      dup2\n        /* \"#utility.yul\":3226:3246   */\n      sub\n        /* \"#utility.yul\":3221:3223   */\n      0x20\n        /* \"#utility.yul\":3210:3219   */\n      dup4\n        /* \"#utility.yul\":3206:3224   */\n      add\n        /* \"#utility.yul\":3199:3247   */\n      mstore\n        /* \"#utility.yul\":3264:3342   */\n      tag_209\n        /* \"#utility.yul\":3337:3341   */\n      dup2\n        /* \"#utility.yul\":3328:3334   */\n      dup9\n        /* \"#utility.yul\":3264:3342   */\n      tag_131\n      jump\t// in\n    tag_209:\n        /* \"#utility.yul\":3256:3342   */\n      swap1\n      pop\n        /* \"#utility.yul\":3389:3398   */\n      dup2\n        /* \"#utility.yul\":3383:3387   */\n      dup2\n        /* \"#utility.yul\":3379:3399   */\n      sub\n        /* \"#utility.yul\":3374:3376   */\n      0x40\n        /* \"#utility.yul\":3363:3372   */\n      dup4\n        /* \"#utility.yul\":3359:3377   */\n      add\n        /* \"#utility.yul\":3352:3400   */\n      mstore\n        /* \"#utility.yul\":3417:3495   */\n      tag_210\n        /* \"#utility.yul\":3490:3494   */\n      dup2\n        /* \"#utility.yul\":3481:3487   */\n      dup8\n        /* \"#utility.yul\":3417:3495   */\n      tag_131\n      jump\t// in\n    tag_210:\n        /* \"#utility.yul\":3409:3495   */\n      swap1\n      pop\n        /* \"#utility.yul\":3542:3551   */\n      dup2\n        /* \"#utility.yul\":3536:3540   */\n      dup2\n        /* \"#utility.yul\":3532:3552   */\n      sub\n        /* \"#utility.yul\":3527:3529   */\n      0x60\n        /* \"#utility.yul\":3516:3525   */\n      dup4\n        /* \"#utility.yul\":3512:3530   */\n      add\n        /* \"#utility.yul\":3505:3553   */\n      mstore\n        /* \"#utility.yul\":3570:3648   */\n      tag_211\n        /* \"#utility.yul\":3643:3647   */\n      dup2\n        /* \"#utility.yul\":3634:3640   */\n      dup7\n        /* \"#utility.yul\":3570:3648   */\n      tag_131\n      jump\t// in\n    tag_211:\n        /* \"#utility.yul\":3562:3648   */\n      swap1\n      pop\n        /* \"#utility.yul\":3658:3731   */\n      tag_212\n        /* \"#utility.yul\":3726:3729   */\n      0x80\n        /* \"#utility.yul\":3715:3724   */\n      dup4\n        /* \"#utility.yul\":3711:3730   */\n      add\n        /* \"#utility.yul\":3702:3708   */\n      dup6\n        /* \"#utility.yul\":3658:3731   */\n      tag_126\n      jump\t// in\n    tag_212:\n        /* \"#utility.yul\":3741:3814   */\n      tag_213\n        /* \"#utility.yul\":3809:3812   */\n      0xa0\n        /* \"#utility.yul\":3798:3807   */\n      dup4\n        /* \"#utility.yul\":3794:3813   */\n      add\n        /* \"#utility.yul\":3785:3791   */\n      dup5\n        /* \"#utility.yul\":3741:3814   */\n      tag_126\n      jump\t// in\n    tag_213:\n        /* \"#utility.yul\":2773:3821   */\n      swap8\n      swap7\n      pop\n      pop\n      pop\n      pop\n      pop\n      pop\n      pop\n      jump\t// out\n        /* \"#utility.yul\":3827:3944   */\n    tag_132:\n        /* \"#utility.yul\":3936:3937   */\n      0x00\n        /* \"#utility.yul\":3933:3934   */\n      0x00\n        /* \"#utility.yul\":3926:3938   */\n      revert\n        /* \"#utility.yul\":3950:4067   */\n    tag_133:\n        /* \"#utility.yul\":4059:4060   */\n      0x00\n        /* \"#utility.yul\":4056:4057   */\n      0x00\n        /* \"#utility.yul\":4049:4061   */\n      revert\n        /* \"#utility.yul\":4073:4190   */\n    tag_134:\n        /* \"#utility.yul\":4182:4183   */\n      0x00\n        /* \"#utility.yul\":4179:4180   */\n      0x00\n        /* \"#utility.yul\":4172:4184   */\n      revert\n        /* \"#utility.yul\":4210:4763   */\n    tag_135:\n        /* \"#utility.yul\":4268:4276   */\n      0x00\n        /* \"#utility.yul\":4278:4284   */\n      0x00\n        /* \"#utility.yul\":4328:4331   */\n      dup4\n        /* \"#utility.yul\":4321:4325   */\n      0x1f\n        /* \"#utility.yul\":4313:4319   */\n      dup5\n        /* \"#utility.yul\":4309:4326   */\n      add\n        /* \"#utility.yul\":4305:4332   */\n      slt\n        /* \"#utility.yul\":4295:4417   */\n      tag_218\n      jumpi\n        /* \"#utility.yul\":4336:4415   */\n      tag_219\n      tag_132\n      jump\t// in\n    tag_219:\n        /* \"#utility.yul\":4295:4417   */\n    tag_218:\n        /* \"#utility.yul\":4449:4455   */\n      dup3\n        /* \"#utility.yul\":4436:4456   */\n      calldataload\n        /* \"#utility.yul\":4426:4456   */\n      swap1\n      pop\n        /* \"#utility.yul\":4479:4497   */\n      0xffffffffffffffff\n        /* \"#utility.yul\":4471:4477   */\n      dup2\n        /* \"#utility.yul\":4468:4498   */\n      gt\n        /* \"#utility.yul\":4465:4582   */\n      iszero\n      tag_220\n      jumpi\n        /* \"#utility.yul\":4501:4580   */\n      tag_221\n      tag_133\n      jump\t// in\n    tag_221:\n        /* \"#utility.yul\":4465:4582   */\n    tag_220:\n        /* \"#utility.yul\":4615:4619   */\n      0x20\n        /* \"#utility.yul\":4607:4613   */\n      dup4\n        /* \"#utility.yul\":4603:4620   */\n      add\n        /* \"#utility.yul\":4591:4620   */\n      swap2\n      pop\n        /* \"#utility.yul\":4669:4672   */\n      dup4\n        /* \"#utility.yul\":4661:4665   */\n      0x01\n        /* \"#utility.yul\":4653:4659   */\n      dup3\n        /* \"#utility.yul\":4649:4666   */\n      mul\n        /* \"#utility.yul\":4639:4647   */\n      dup4\n        /* \"#utility.yul\":4635:4667   */\n      add\n        /* \"#utility.yul\":4632:4673   */\n      gt\n        /* \"#utility.yul\":4629:4757   */\n      iszero\n      tag_222\n      jumpi\n        /* \"#utility.yul\":4676:4755   */\n      tag_223\n      tag_134\n      jump\t// in\n    tag_223:\n        /* \"#utility.yul\":4629:4757   */\n    tag_222:\n        /* \"#utility.yul\":4210:4763   */\n      swap3\n      pop\n      swap3\n      swap1\n      pop\n      jump\t// out\n        /* \"#utility.yul\":4769:6134   */\n    tag_30:\n        /* \"#utility.yul\":4891:4897   */\n      0x00\n        /* \"#utility.yul\":4899:4905   */\n      0x00\n        /* \"#utility.yul\":4907:4913   */\n      0x00\n        /* \"#utility.yul\":4915:4921   */\n      0x00\n        /* \"#utility.yul\":4923:4929   */\n      0x00\n        /* \"#utility.yul\":4931:4937   */\n      0x00\n        /* \"#utility.yul\":4939:4945   */\n      0x00\n        /* \"#utility.yul\":4988:4991   */\n      0x80\n        /* \"#utility.yul\":4976:4985   */\n      dup9\n        /* \"#utility.yul\":4967:4974   */\n      dup11\n        /* \"#utility.yul\":4963:4986   */\n      sub\n        /* \"#utility.yul\":4959:4992   */\n      slt\n        /* \"#utility.yul\":4956:5076   */\n      iszero\n      tag_225\n      jumpi\n        /* \"#utility.yul\":4995:5074   */\n      tag_226\n      tag_121\n      jump\t// in\n    tag_226:\n        /* \"#utility.yul\":4956:5076   */\n    tag_225:\n        /* \"#utility.yul\":5115:5116   */\n      0x00\n        /* \"#utility.yul\":5140:5193   */\n      tag_227\n        /* \"#utility.yul\":5185:5192   */\n      dup11\n        /* \"#utility.yul\":5176:5182   */\n      dup3\n        /* \"#utility.yul\":5165:5174   */\n      dup12\n        /* \"#utility.yul\":5161:5183   */\n      add\n        /* \"#utility.yul\":5140:5193   */\n      tag_125\n      jump\t// in\n    tag_227:\n        /* \"#utility.yul\":5130:5193   */\n      swap8\n      pop\n        /* \"#utility.yul\":5086:5203   */\n      pop\n        /* \"#utility.yul\":5270:5272   */\n      0x20\n        /* \"#utility.yul\":5259:5268   */\n      dup9\n        /* \"#utility.yul\":5255:5273   */\n      add\n        /* \"#utility.yul\":5242:5274   */\n      calldataload\n        /* \"#utility.yul\":5301:5319   */\n      0xffffffffffffffff\n        /* \"#utility.yul\":5293:5299   */\n      dup2\n        /* \"#utility.yul\":5290:5320   */\n      gt\n        /* \"#utility.yul\":5287:5404   */\n      iszero\n      tag_228\n      jumpi\n        /* \"#utility.yul\":5323:5402   */\n      tag_229\n      tag_122\n      jump\t// in\n    tag_229:\n        /* \"#utility.yul\":5287:5404   */\n    tag_228:\n        /* \"#utility.yul\":5436:5501   */\n      tag_230\n        /* \"#utility.yul\":5493:5500   */\n      dup11\n        /* \"#utility.yul\":5484:5490   */\n      dup3\n        /* \"#utility.yul\":5473:5482   */\n      dup12\n        /* \"#utility.yul\":5469:5491   */\n      add\n        /* \"#utility.yul\":5436:5501   */\n      tag_135\n      jump\t// in\n    tag_230:\n        /* \"#utility.yul\":5418:5501   */\n      swap7\n      pop\n      swap7\n      pop\n        /* \"#utility.yul\":5213:5511   */\n      pop\n        /* \"#utility.yul\":5578:5580   */\n      0x40\n        /* \"#utility.yul\":5567:5576   */\n      dup9\n        /* \"#utility.yul\":5563:5581   */\n      add\n        /* \"#utility.yul\":5550:5582   */\n      calldataload\n        /* \"#utility.yul\":5609:5627   */\n      0xffffffffffffffff\n        /* \"#utility.yul\":5601:5607   */\n      dup2\n        /* \"#utility.yul\":5598:5628   */\n      gt\n        /* \"#utility.yul\":5595:5712   */\n      iszero\n      tag_231\n      jumpi\n        /* \"#utility.yul\":5631:5710   */\n      tag_232\n      tag_122\n      jump\t// in\n    tag_232:\n        /* \"#utility.yul\":5595:5712   */\n    tag_231:\n        /* \"#utility.yul\":5744:5809   */\n      tag_233\n        /* \"#utility.yul\":5801:5808   */\n      dup11\n        /* \"#utility.yul\":5792:5798   */\n      dup3\n        /* \"#utility.yul\":5781:5790   */\n      dup12\n        /* \"#utility.yul\":5777:5799   */\n      add\n        /* \"#utility.yul\":5744:5809   */\n      tag_135\n      jump\t// in\n    tag_233:\n        /* \"#utility.yul\":5726:5809   */\n      swap5\n      pop\n      swap5\n      pop\n        /* \"#utility.yul\":5521:5819   */\n      pop\n        /* \"#utility.yul\":5886:5888   */\n      0x60\n        /* \"#utility.yul\":5875:5884   */\n      dup9\n        /* \"#utility.yul\":5871:5889   */\n      add\n        /* \"#utility.yul\":5858:5890   */\n      calldataload\n        /* \"#utility.yul\":5917:5935   */\n      0xffffffffffffffff\n        /* \"#utility.yul\":5909:5915   */\n      dup2\n        /* \"#utility.yul\":5906:5936   */\n      gt\n        /* \"#utility.yul\":5903:6020   */\n      iszero\n      tag_234\n      jumpi\n        /* \"#utility.yul\":5939:6018   */\n      tag_235\n      tag_122\n      jump\t// in\n    tag_235:\n        /* \"#utility.yul\":5903:6020   */\n    tag_234:\n        /* \"#utility.yul\":6052:6117   */\n      tag_236\n        /* \"#utility.yul\":6109:6116   */\n      dup11\n        /* \"#utility.yul\":6100:6106   */\n      dup3\n        /* \"#utility.yul\":6089:6098   */\n      dup12\n        /* \"#utility.yul\":6085:6107   */\n      add\n        /* \"#utility.yul\":6052:6117   */\n      tag_135\n      jump\t// in\n    tag_236:\n        /* \"#utility.yul\":6034:6117   */\n      swap3\n      pop\n      swap3\n      pop\n        /* \"#utility.yul\":5829:6127   */\n      pop\n        /* \"#utility.yul\":4769:6134   */\n      swap3\n      swap6\n      swap9\n      swap2\n      swap5\n      swap8\n      pop\n      swap3\n      swap6\n      pop\n      jump\t// out\n        /* \"#utility.yul\":6140:6254   */\n    tag_136:\n        /* \"#utility.yul\":6207:6213   */\n      0x00\n        /* \"#utility.yul\":6241:6246   */\n      dup2\n        /* \"#utility.yul\":6235:6247   */\n      mload\n        /* \"#utility.yul\":6225:6247   */\n      swap1\n      pop\n        /* \"#utility.yul\":6140:6254   */\n      swap2\n      swap1\n      pop\n      jump\t// out\n        /* \"#utility.yul\":6260:6444   */\n    tag_137:\n        /* \"#utility.yul\":6359:6370   */\n      0x00\n        /* \"#utility.yul\":6393:6399   */\n      dup3\n        /* \"#utility.yul\":6388:6391   */\n      dup3\n        /* \"#utility.yul\":6381:6400   */\n      mstore\n        /* \"#utility.yul\":6433:6437   */\n      0x20\n        /* \"#utility.yul\":6428:6431   */\n      dup3\n        /* \"#utility.yul\":6424:6438   */\n      add\n        /* \"#utility.yul\":6409:6438   */\n      swap1\n      pop\n        /* \"#utility.yul\":6260:6444   */\n      swap3\n      swap2\n      pop\n      pop\n      jump\t// out\n        /* \"#utility.yul\":6450:6582   */\n    tag_138:\n        /* \"#utility.yul\":6517:6521   */\n      0x00\n        /* \"#utility.yul\":6540:6543   */\n      dup2\n        /* \"#utility.yul\":6532:6543   */\n      swap1\n      pop\n        /* \"#utility.yul\":6570:6574   */\n      0x20\n        /* \"#utility.yul\":6565:6568   */\n      dup3\n        /* \"#utility.yul\":6561:6575   */\n      add\n        /* \"#utility.yul\":6553:6575   */\n      swap1\n      pop\n        /* \"#utility.yul\":6450:6582   */\n      swap2\n      swap1\n      pop\n      jump\t// out\n        /* \"#utility.yul\":6588:6696   */\n    tag_139:\n        /* \"#utility.yul\":6665:6689   */\n      tag_241\n        /* \"#utility.yul\":6683:6688   */\n      dup2\n        /* \"#utility.yul\":6665:6689   */\n      tag_123\n      jump\t// in\n    tag_241:\n        /* \"#utility.yul\":6660:6663   */\n      dup3\n        /* \"#utility.yul\":6653:6690   */\n      mstore\n        /* \"#utility.yul\":6588:6696   */\n      pop\n      pop\n      jump\t// out\n        /* \"#utility.yul\":6702:6881   */\n    tag_140:\n        /* \"#utility.yul\":6771:6781   */\n      0x00\n        /* \"#utility.yul\":6792:6838   */\n      tag_243\n        /* \"#utility.yul\":6834:6837   */\n      dup4\n        /* \"#utility.yul\":6826:6832   */\n      dup4\n        /* \"#utility.yul\":6792:6838   */\n      tag_139\n      jump\t// in\n    tag_243:\n        /* \"#utility.yul\":6870:6874   */\n      0x20\n        /* \"#utility.yul\":6865:6868   */\n      dup4\n        /* \"#utility.yul\":6861:6875   */\n      add\n        /* \"#utility.yul\":6847:6875   */\n      swap1\n      pop\n        /* \"#utility.yul\":6702:6881   */\n      swap3\n      swap2\n      pop\n      pop\n      jump\t// out\n        /* \"#utility.yul\":6887:7000   */\n    tag_141:\n        /* \"#utility.yul\":6957:6961   */\n      0x00\n        /* \"#utility.yul\":6989:6993   */\n      0x20\n        /* \"#utility.yul\":6984:6987   */\n      dup3\n        /* \"#utility.yul\":6980:6994   */\n      add\n        /* \"#utility.yul\":6972:6994   */\n      swap1\n      pop\n        /* \"#utility.yul\":6887:7000   */\n      swap2\n      swap1\n      pop\n      jump\t// out\n        /* \"#utility.yul\":7036:7768   */\n    tag_142:\n        /* \"#utility.yul\":7155:7158   */\n      0x00\n        /* \"#utility.yul\":7184:7238   */\n      tag_246\n        /* \"#utility.yul\":7232:7237   */\n      dup3\n        /* \"#utility.yul\":7184:7238   */\n      tag_136\n      jump\t// in\n    tag_246:\n        /* \"#utility.yul\":7254:7340   */\n      tag_247\n        /* \"#utility.yul\":7333:7339   */\n      dup2\n        /* \"#utility.yul\":7328:7331   */\n      dup6\n        /* \"#utility.yul\":7254:7340   */\n      tag_137\n      jump\t// in\n    tag_247:\n        /* \"#utility.yul\":7247:7340   */\n      swap4\n      pop\n        /* \"#utility.yul\":7364:7420   */\n      tag_248\n        /* \"#utility.yul\":7414:7419   */\n      dup4\n        /* \"#utility.yul\":7364:7420   */\n      tag_138\n      jump\t// in\n    tag_248:\n        /* \"#utility.yul\":7443:7450   */\n      dup1\n        /* \"#utility.yul\":7474:7475   */\n      0x00\n        /* \"#utility.yul\":7459:7743   */\n    tag_249:\n        /* \"#utility.yul\":7484:7490   */\n      dup4\n        /* \"#utility.yul\":7481:7482   */\n      dup2\n        /* \"#utility.yul\":7478:7491   */\n      lt\n        /* \"#utility.yul\":7459:7743   */\n      iszero\n      tag_251\n      jumpi\n        /* \"#utility.yul\":7560:7566   */\n      dup2\n        /* \"#utility.yul\":7554:7567   */\n      mload\n        /* \"#utility.yul\":7587:7650   */\n      tag_252\n        /* \"#utility.yul\":7646:7649   */\n      dup9\n        /* \"#utility.yul\":7631:7644   */\n      dup3\n        /* \"#utility.yul\":7587:7650   */\n      tag_140\n      jump\t// in\n    tag_252:\n        /* \"#utility.yul\":7580:7650   */\n      swap8\n      pop\n        /* \"#utility.yul\":7673:7733   */\n      tag_253\n        /* \"#utility.yul\":7726:7732   */\n      dup4\n        /* \"#utility.yul\":7673:7733   */\n      tag_141\n      jump\t// in\n    tag_253:\n        /* \"#utility.yul\":7663:7733   */\n      swap3\n      pop\n        /* \"#utility.yul\":7519:7743   */\n      pop\n        /* \"#utility.yul\":7506:7507   */\n      0x01\n        /* \"#utility.yul\":7503:7504   */\n      dup2\n        /* \"#utility.yul\":7499:7508   */\n      add\n        /* \"#utility.yul\":7494:7508   */\n      swap1\n      pop\n        /* \"#utility.yul\":7459:7743   */\n      jump(tag_249)\n    tag_251:\n        /* \"#utility.yul\":7463:7477   */\n      pop\n        /* \"#utility.yul\":7759:7762   */\n      dup6\n        /* \"#utility.yul\":7752:7762   */\n      swap4\n      pop\n        /* \"#utility.yul\":7160:7768   */\n      pop\n      pop\n      pop\n        /* \"#utility.yul\":7036:7768   */\n      swap3\n      swap2\n      pop\n      pop\n      jump\t// out\n        /* \"#utility.yul\":7774:8147   */\n    tag_39:\n        /* \"#utility.yul\":7917:7921   */\n      0x00\n        /* \"#utility.yul\":7955:7957   */\n      0x20\n        /* \"#utility.yul\":7944:7953   */\n      dup3\n        /* \"#utility.yul\":7940:7958   */\n      add\n        /* \"#utility.yul\":7932:7958   */\n      swap1\n      pop\n        /* \"#utility.yul\":8004:8013   */\n      dup2\n        /* \"#utility.yul\":7998:8002   */\n      dup2\n        /* \"#utility.yul\":7994:8014   */\n      sub\n        /* \"#utility.yul\":7990:7991   */\n      0x00\n        /* \"#utility.yul\":7979:7988   */\n      dup4\n        /* \"#utility.yul\":7975:7992   */\n      add\n        /* \"#utility.yul\":7968:8015   */\n      mstore\n        /* \"#utility.yul\":8032:8140   */\n      tag_255\n        /* \"#utility.yul\":8135:8139   */\n      dup2\n        /* \"#utility.yul\":8126:8132   */\n      dup5\n        /* \"#utility.yul\":8032:8140   */\n      tag_142\n      jump\t// in\n    tag_255:\n        /* \"#utility.yul\":8024:8140   */\n      swap1\n      pop\n        /* \"#utility.yul\":7774:8147   */\n      swap3\n      swap2\n      pop\n      pop\n      jump\t// out\n        /* \"#utility.yul\":8153:8312   */\n    tag_143:\n        /* \"#utility.yul\":8227:8238   */\n      0x00\n        /* \"#utility.yul\":8261:8267   */\n      dup3\n        /* \"#utility.yul\":8256:8259   */\n      dup3\n        /* \"#utility.yul\":8249:8268   */\n      mstore\n        /* \"#utility.yul\":8301:8305   */\n      0x20\n        /* \"#utility.yul\":8296:8299   */\n      dup3\n        /* \"#utility.yul\":8292:8306   */\n      add\n        /* \"#utility.yul\":8277:8306   */\n      swap1\n      pop\n        /* \"#utility.yul\":8153:8312   */\n      swap3\n      swap2\n      pop\n      pop\n      jump\t// out\n        /* \"#utility.yul\":8318:8675   */\n    tag_144:\n        /* \"#utility.yul\":8396:8399   */\n      0x00\n        /* \"#utility.yul\":8424:8463   */\n      tag_258\n        /* \"#utility.yul\":8457:8462   */\n      dup3\n        /* \"#utility.yul\":8424:8463   */\n      tag_127\n      jump\t// in\n    tag_258:\n        /* \"#utility.yul\":8479:8540   */\n      tag_259\n        /* \"#utility.yul\":8533:8539   */\n      dup2\n        /* \"#utility.yul\":8528:8531   */\n      dup6\n        /* \"#utility.yul\":8479:8540   */\n      tag_143\n      jump\t// in\n    tag_259:\n        /* \"#utility.yul\":8472:8540   */\n      swap4\n      pop\n        /* \"#utility.yul\":8549:8614   */\n      tag_260\n        /* \"#utility.yul\":8607:8613   */\n      dup2\n        /* \"#utility.yul\":8602:8605   */\n      dup6\n        /* \"#utility.yul\":8595:8599   */\n      0x20\n        /* \"#utility.yul\":8588:8593   */\n      dup7\n        /* \"#utility.yul\":8584:8600   */\n      add\n        /* \"#utility.yul\":8549:8614   */\n      tag_129\n      jump\t// in\n    tag_260:\n        /* \"#utility.yul\":8639:8668   */\n      tag_261\n        /* \"#utility.yul\":8661:8667   */\n      dup2\n        /* \"#utility.yul\":8639:8668   */\n      tag_130\n      jump\t// in\n    tag_261:\n        /* \"#utility.yul\":8634:8637   */\n      dup5\n        /* \"#utility.yul\":8630:8669   */\n      add\n        /* \"#utility.yul\":8623:8669   */\n      swap2\n      pop\n        /* \"#utility.yul\":8400:8675   */\n      pop\n        /* \"#utility.yul\":8318:8675   */\n      swap3\n      swap2\n      pop\n      pop\n      jump\t// out\n        /* \"#utility.yul\":8717:10170   */\n    tag_145:\n        /* \"#utility.yul\":8830:8833   */\n      0x00\n        /* \"#utility.yul\":8866:8870   */\n      0xc0\n        /* \"#utility.yul\":8861:8864   */\n      dup4\n        /* \"#utility.yul\":8857:8871   */\n      add\n        /* \"#utility.yul\":8956:8960   */\n      0x00\n        /* \"#utility.yul\":8949:8954   */\n      dup4\n        /* \"#utility.yul\":8945:8961   */\n      add\n        /* \"#utility.yul\":8939:8962   */\n      mload\n        /* \"#utility.yul\":8975:9038   */\n      tag_263\n        /* \"#utility.yul\":9032:9036   */\n      0x00\n        /* \"#utility.yul\":9027:9030   */\n      dup7\n        /* \"#utility.yul\":9023:9037   */\n      add\n        /* \"#utility.yul\":9009:9021   */\n      dup3\n        /* \"#utility.yul\":8975:9038   */\n      tag_139\n      jump\t// in\n    tag_263:\n        /* \"#utility.yul\":8881:9048   */\n      pop\n        /* \"#utility.yul\":9130:9134   */\n      0x20\n        /* \"#utility.yul\":9123:9128   */\n      dup4\n        /* \"#utility.yul\":9119:9135   */\n      add\n        /* \"#utility.yul\":9113:9136   */\n      mload\n        /* \"#utility.yul\":9183:9186   */\n      dup5\n        /* \"#utility.yul\":9177:9181   */\n      dup3\n        /* \"#utility.yul\":9173:9187   */\n      sub\n        /* \"#utility.yul\":9166:9170   */\n      0x20\n        /* \"#utility.yul\":9161:9164   */\n      dup7\n        /* \"#utility.yul\":9157:9171   */\n      add\n        /* \"#utility.yul\":9150:9188   */\n      mstore\n        /* \"#utility.yul\":9209:9282   */\n      tag_264\n        /* \"#utility.yul\":9277:9281   */\n      dup3\n        /* \"#utility.yul\":9263:9275   */\n      dup3\n        /* \"#utility.yul\":9209:9282   */\n      tag_144\n      jump\t// in\n    tag_264:\n        /* \"#utility.yul\":9201:9282   */\n      swap2\n      pop\n        /* \"#utility.yul\":9058:9293   */\n      pop\n        /* \"#utility.yul\":9374:9378   */\n      0x40\n        /* \"#utility.yul\":9367:9372   */\n      dup4\n        /* \"#utility.yul\":9363:9379   */\n      add\n        /* \"#utility.yul\":9357:9380   */\n      mload\n        /* \"#utility.yul\":9427:9430   */\n      dup5\n        /* \"#utility.yul\":9421:9425   */\n      dup3\n        /* \"#utility.yul\":9417:9431   */\n      sub\n        /* \"#utility.yul\":9410:9414   */\n      0x40\n        /* \"#utility.yul\":9405:9408   */\n      dup7\n        /* \"#utility.yul\":9401:9415   */\n      add\n        /* \"#utility.yul\":9394:9432   */\n      mstore\n        /* \"#utility.yul\":9453:9526   */\n      tag_265\n        /* \"#utility.yul\":9521:9525   */\n      dup3\n        /* \"#utility.yul\":9507:9519   */\n      dup3\n        /* \"#utility.yul\":9453:9526   */\n      tag_144\n      jump\t// in\n    tag_265:\n        /* \"#utility.yul\":9445:9526   */\n      swap2\n      pop\n        /* \"#utility.yul\":9303:9537   */\n      pop\n        /* \"#utility.yul\":9620:9624   */\n      0x60\n        /* \"#utility.yul\":9613:9618   */\n      dup4\n        /* \"#utility.yul\":9609:9625   */\n      add\n        /* \"#utility.yul\":9603:9626   */\n      mload\n        /* \"#utility.yul\":9673:9676   */\n      dup5\n        /* \"#utility.yul\":9667:9671   */\n      dup3\n        /* \"#utility.yul\":9663:9677   */\n      sub\n        /* \"#utility.yul\":9656:9660   */\n      0x60\n        /* \"#utility.yul\":9651:9654   */\n      dup7\n        /* \"#utility.yul\":9647:9661   */\n      add\n        /* \"#utility.yul\":9640:9678   */\n      mstore\n        /* \"#utility.yul\":9699:9772   */\n      tag_266\n        /* \"#utility.yul\":9767:9771   */\n      dup3\n        /* \"#utility.yul\":9753:9765   */\n      dup3\n        /* \"#utility.yul\":9699:9772   */\n      tag_144\n      jump\t// in\n    tag_266:\n        /* \"#utility.yul\":9691:9772   */\n      swap2\n      pop\n        /* \"#utility.yul\":9547:9783   */\n      pop\n        /* \"#utility.yul\":9870:9874   */\n      0x80\n        /* \"#utility.yul\":9863:9868   */\n      dup4\n        /* \"#utility.yul\":9859:9875   */\n      add\n        /* \"#utility.yul\":9853:9876   */\n      mload\n        /* \"#utility.yul\":9889:9952   */\n      tag_267\n        /* \"#utility.yul\":9946:9950   */\n      0x80\n        /* \"#utility.yul\":9941:9944   */\n      dup7\n        /* \"#utility.yul\":9937:9951   */\n      add\n        /* \"#utility.yul\":9923:9935   */\n      dup3\n        /* \"#utility.yul\":9889:9952   */\n      tag_139\n      jump\t// in\n    tag_267:\n        /* \"#utility.yul\":9793:9962   */\n      pop\n        /* \"#utility.yul\":10051:10055   */\n      0xa0\n        /* \"#utility.yul\":10044:10049   */\n      dup4\n        /* \"#utility.yul\":10040:10056   */\n      add\n        /* \"#utility.yul\":10034:10057   */\n      mload\n        /* \"#utility.yul\":10070:10133   */\n      tag_268\n        /* \"#utility.yul\":10127:10131   */\n      0xa0\n        /* \"#utility.yul\":10122:10125   */\n      dup7\n        /* \"#utility.yul\":10118:10132   */\n      add\n        /* \"#utility.yul\":10104:10116   */\n      dup3\n        /* \"#utility.yul\":10070:10133   */\n      tag_139\n      jump\t// in\n    tag_268:\n        /* \"#utility.yul\":9972:10143   */\n      pop\n        /* \"#utility.yul\":10160:10164   */\n      dup1\n        /* \"#utility.yul\":10153:10164   */\n      swap2\n      pop\n        /* \"#utility.yul\":8835:10170   */\n      pop\n        /* \"#utility.yul\":8717:10170   */\n      swap3\n      swap2\n      pop\n      pop\n      jump\t// out\n        /* \"#utility.yul\":10176:10537   */\n    tag_44:\n        /* \"#utility.yul\":10313:10317   */\n      0x00\n        /* \"#utility.yul\":10351:10353   */\n      0x20\n        /* \"#utility.yul\":10340:10349   */\n      dup3\n        /* \"#utility.yul\":10336:10354   */\n      add\n        /* \"#utility.yul\":10328:10354   */\n      swap1\n      pop\n        /* \"#utility.yul\":10400:10409   */\n      dup2\n        /* \"#utility.yul\":10394:10398   */\n      dup2\n        /* \"#utility.yul\":10390:10410   */\n      sub\n        /* \"#utility.yul\":10386:10387   */\n      0x00\n        /* \"#utility.yul\":10375:10384   */\n      dup4\n        /* \"#utility.yul\":10371:10388   */\n      add\n        /* \"#utility.yul\":10364:10411   */\n      mstore\n        /* \"#utility.yul\":10428:10530   */\n      tag_270\n        /* \"#utility.yul\":10525:10529   */\n      dup2\n        /* \"#utility.yul\":10516:10522   */\n      dup5\n        /* \"#utility.yul\":10428:10530   */\n      tag_145\n      jump\t// in\n    tag_270:\n        /* \"#utility.yul\":10420:10530   */\n      swap1\n      pop\n        /* \"#utility.yul\":10176:10537   */\n      swap3\n      swap2\n      pop\n      pop\n      jump\t// out\n        /* \"#utility.yul\":10543:10669   */\n    tag_146:\n        /* \"#utility.yul\":10580:10587   */\n      0x00\n        /* \"#utility.yul\":10620:10662   */\n      0xffffffffffffffffffffffffffffffffffffffff\n        /* \"#utility.yul\":10613:10618   */\n      dup3\n        /* \"#utility.yul\":10609:10663   */\n      and\n        /* \"#utility.yul\":10598:10663   */\n      swap1\n      pop\n        /* \"#utility.yul\":10543:10669   */\n      swap2\n      swap1\n      pop\n      jump\t// out\n        /* \"#utility.yul\":10675:10735   */\n    tag_147:\n        /* \"#utility.yul\":10703:10706   */\n      0x00\n        /* \"#utility.yul\":10724:10729   */\n      dup2\n        /* \"#utility.yul\":10717:10729   */\n      swap1\n      pop\n        /* \"#utility.yul\":10675:10735   */\n      swap2\n      swap1\n      pop\n      jump\t// out\n        /* \"#utility.yul\":10741:10883   */\n    tag_148:\n        /* \"#utility.yul\":10791:10800   */\n      0x00\n        /* \"#utility.yul\":10824:10877   */\n      tag_274\n        /* \"#utility.yul\":10842:10876   */\n      tag_275\n        /* \"#utility.yul\":10851:10875   */\n      tag_276\n        /* \"#utility.yul\":10869:10874   */\n      dup5\n        /* \"#utility.yul\":10851:10875   */\n      tag_146\n      jump\t// in\n    tag_276:\n        /* \"#utility.yul\":10842:10876   */\n      tag_147\n      jump\t// in\n    tag_275:\n        /* \"#utility.yul\":10824:10877   */\n      tag_146\n      jump\t// in\n    tag_274:\n        /* \"#utility.yul\":10811:10877   */\n      swap1\n      pop\n        /* \"#utility.yul\":10741:10883   */\n      swap2\n      swap1\n      pop\n      jump\t// out\n        /* \"#utility.yul\":10889:11015   */\n    tag_149:\n        /* \"#utility.yul\":10939:10948   */\n      0x00\n        /* \"#utility.yul\":10972:11009   */\n      tag_278\n        /* \"#utility.yul\":11003:11008   */\n      dup3\n        /* \"#utility.yul\":10972:11009   */\n      tag_148\n      jump\t// in\n    tag_278:\n        /* \"#utility.yul\":10959:11009   */\n      swap1\n      pop\n        /* \"#utility.yul\":10889:11015   */\n      swap2\n      swap1\n      pop\n      jump\t// out\n        /* \"#utility.yul\":11021:11167   */\n    tag_150:\n        /* \"#utility.yul\":11091:11100   */\n      0x00\n        /* \"#utility.yul\":11124:11161   */\n      tag_280\n        /* \"#utility.yul\":11155:11160   */\n      dup3\n        /* \"#utility.yul\":11124:11161   */\n      tag_149\n      jump\t// in\n    tag_280:\n        /* \"#utility.yul\":11111:11161   */\n      swap1\n      pop\n        /* \"#utility.yul\":11021:11167   */\n      swap2\n      swap1\n      pop\n      jump\t// out\n        /* \"#utility.yul\":11173:11344   */\n    tag_151:\n        /* \"#utility.yul\":11280:11337   */\n      tag_282\n        /* \"#utility.yul\":11331:11336   */\n      dup2\n        /* \"#utility.yul\":11280:11337   */\n      tag_150\n      jump\t// in\n    tag_282:\n        /* \"#utility.yul\":11275:11278   */\n      dup3\n        /* \"#utility.yul\":11268:11338   */\n      mstore\n        /* \"#utility.yul\":11173:11344   */\n      pop\n      pop\n      jump\t// out\n        /* \"#utility.yul\":11350:11612   */\n    tag_48:\n        /* \"#utility.yul\":11463:11467   */\n      0x00\n        /* \"#utility.yul\":11501:11503   */\n      0x20\n        /* \"#utility.yul\":11490:11499   */\n      dup3\n        /* \"#utility.yul\":11486:11504   */\n      add\n        /* \"#utility.yul\":11478:11504   */\n      swap1\n      pop\n        /* \"#utility.yul\":11514:11605   */\n      tag_284\n        /* \"#utility.yul\":11602:11603   */\n      0x00\n        /* \"#utility.yul\":11591:11600   */\n      dup4\n        /* \"#utility.yul\":11587:11604   */\n      add\n        /* \"#utility.yul\":11578:11584   */\n      dup5\n        /* \"#utility.yul\":11514:11605   */\n      tag_151\n      jump\t// in\n    tag_284:\n        /* \"#utility.yul\":11350:11612   */\n      swap3\n      swap2\n      pop\n      pop\n      jump\t// out\n        /* \"#utility.yul\":11618:11798   */\n    tag_152:\n        /* \"#utility.yul\":11666:11743   */\n      0x4e487b7100000000000000000000000000000000000000000000000000000000\n        /* \"#utility.yul\":11663:11664   */\n      0x00\n        /* \"#utility.yul\":11656:11744   */\n      mstore\n        /* \"#utility.yul\":11763:11767   */\n      0x22\n        /* \"#utility.yul\":11760:11761   */\n      0x04\n        /* \"#utility.yul\":11753:11768   */\n      mstore\n        /* \"#utility.yul\":11787:11791   */\n      0x24\n        /* \"#utility.yul\":11784:11785   */\n      0x00\n        /* \"#utility.yul\":11777:11792   */\n      revert\n        /* \"#utility.yul\":11804:12124   */\n    tag_55:\n        /* \"#utility.yul\":11848:11854   */\n      0x00\n        /* \"#utility.yul\":11885:11886   */\n      0x02\n        /* \"#utility.yul\":11879:11883   */\n      dup3\n        /* \"#utility.yul\":11875:11887   */\n      div\n        /* \"#utility.yul\":11865:11887   */\n      swap1\n      pop\n        /* \"#utility.yul\":11932:11933   */\n      0x01\n        /* \"#utility.yul\":11926:11930   */\n      dup3\n        /* \"#utility.yul\":11922:11934   */\n      and\n        /* \"#utility.yul\":11953:11971   */\n      dup1\n        /* \"#utility.yul\":11943:12024   */\n      tag_287\n      jumpi\n        /* \"#utility.yul\":12009:12013   */\n      0x7f\n        /* \"#utility.yul\":12001:12007   */\n      dup3\n        /* \"#utility.yul\":11997:12014   */\n      and\n        /* \"#utility.yul\":11987:12014   */\n      swap2\n      pop\n        /* \"#utility.yul\":11943:12024   */\n    tag_287:\n        /* \"#utility.yul\":12071:12073   */\n      0x20\n        /* \"#utility.yul\":12063:12069   */\n      dup3\n        /* \"#utility.yul\":12060:12074   */\n      lt\n        /* \"#utility.yul\":12040:12058   */\n      dup2\n        /* \"#utility.yul\":12037:12075   */\n      sub\n        /* \"#utility.yul\":12034:12118   */\n      tag_288\n      jumpi\n        /* \"#utility.yul\":12090:12108   */\n      tag_289\n      tag_152\n      jump\t// in\n    tag_289:\n        /* \"#utility.yul\":12034:12118   */\n    tag_288:\n        /* \"#utility.yul\":11855:12124   */\n      pop\n        /* \"#utility.yul\":11804:12124   */\n      swap2\n      swap1\n      pop\n      jump\t// out\n        /* \"#utility.yul\":12130:12303   */\n    tag_153:\n        /* \"#utility.yul\":12270:12295   */\n      0x537461666620494420616c726561647920657869737473000000000000000000\n        /* \"#utility.yul\":12266:12267   */\n      0x00\n        /* \"#utility.yul\":12258:12264   */\n      dup3\n        /* \"#utility.yul\":12254:12268   */\n      add\n        /* \"#utility.yul\":12247:12296   */\n      mstore\n        /* \"#utility.yul\":12130:12303   */\n      pop\n      jump\t// out\n        /* \"#utility.yul\":12309:12675   */\n    tag_154:\n        /* \"#utility.yul\":12451:12454   */\n      0x00\n        /* \"#utility.yul\":12472:12539   */\n      tag_292\n        /* \"#utility.yul\":12536:12538   */\n      0x17\n        /* \"#utility.yul\":12531:12534   */\n      dup4\n        /* \"#utility.yul\":12472:12539   */\n      tag_128\n      jump\t// in\n    tag_292:\n        /* \"#utility.yul\":12465:12539   */\n      swap2\n      pop\n        /* \"#utility.yul\":12548:12641   */\n      tag_293\n        /* \"#utility.yul\":12637:12640   */\n      dup3\n        /* \"#utility.yul\":12548:12641   */\n      tag_153\n      jump\t// in\n    tag_293:\n        /* \"#utility.yul\":12666:12668   */\n      0x20\n        /* \"#utility.yul\":12661:12664   */\n      dup3\n        /* \"#utility.yul\":12657:12669   */\n      add\n        /* \"#utility.yul\":12650:12669   */\n      swap1\n      pop\n        /* \"#utility.yul\":12309:12675   */\n      swap2\n      swap1\n      pop\n      jump\t// out\n        /* \"#utility.yul\":12681:13100   */\n    tag_73:\n        /* \"#utility.yul\":12847:12851   */\n      0x00\n        /* \"#utility.yul\":12885:12887   */\n      0x20\n        /* \"#utility.yul\":12874:12883   */\n      dup3\n        /* \"#utility.yul\":12870:12888   */\n      add\n        /* \"#utility.yul\":12862:12888   */\n      swap1\n      pop\n        /* \"#utility.yul\":12934:12943   */\n      dup2\n        /* \"#utility.yul\":12928:12932   */\n      dup2\n        /* \"#utility.yul\":12924:12944   */\n      sub\n        /* \"#utility.yul\":12920:12921   */\n      0x00\n        /* \"#utility.yul\":12909:12918   */\n      dup4\n        /* \"#utility.yul\":12905:12922   */\n      add\n        /* \"#utility.yul\":12898:12945   */\n      mstore\n        /* \"#utility.yul\":12962:13093   */\n      tag_295\n        /* \"#utility.yul\":13088:13092   */\n      dup2\n        /* \"#utility.yul\":12962:13093   */\n      tag_154\n      jump\t// in\n    tag_295:\n        /* \"#utility.yul\":12954:13093   */\n      swap1\n      pop\n        /* \"#utility.yul\":12681:13100   */\n      swap2\n      swap1\n      pop\n      jump\t// out\n        /* \"#utility.yul\":13106:13286   */\n    tag_155:\n        /* \"#utility.yul\":13154:13231   */\n      0x4e487b7100000000000000000000000000000000000000000000000000000000\n        /* \"#utility.yul\":13151:13152   */\n      0x00\n        /* \"#utility.yul\":13144:13232   */\n      mstore\n        /* \"#utility.yul\":13251:13255   */\n      0x41\n        /* \"#utility.yul\":13248:13249   */\n      0x04\n        /* \"#utility.yul\":13241:13256   */\n      mstore\n        /* \"#utility.yul\":13275:13279   */\n      0x24\n        /* \"#utility.yul\":13272:13273   */\n      0x00\n        /* \"#utility.yul\":13265:13280   */\n      revert\n        /* \"#utility.yul\":13292:13433   */\n    tag_156:\n        /* \"#utility.yul\":13341:13345   */\n      0x00\n        /* \"#utility.yul\":13364:13367   */\n      dup2\n        /* \"#utility.yul\":13356:13367   */\n      swap1\n      pop\n        /* \"#utility.yul\":13387:13390   */\n      dup2\n        /* \"#utility.yul\":13384:13385   */\n      0x00\n        /* \"#utility.yul\":13377:13391   */\n      mstore\n        /* \"#utility.yul\":13421:13425   */\n      0x20\n        /* \"#utility.yul\":13418:13419   */\n      0x00\n        /* \"#utility.yul\":13408:13426   */\n      keccak256\n        /* \"#utility.yul\":13400:13426   */\n      swap1\n      pop\n        /* \"#utility.yul\":13292:13433   */\n      swap2\n      swap1\n      pop\n      jump\t// out\n        /* \"#utility.yul\":13439:13532   */\n    tag_157:\n        /* \"#utility.yul\":13476:13482   */\n      0x00\n        /* \"#utility.yul\":13523:13525   */\n      0x20\n        /* \"#utility.yul\":13518:13520   */\n      0x1f\n        /* \"#utility.yul\":13511:13516   */\n      dup4\n        /* \"#utility.yul\":13507:13521   */\n      add\n        /* \"#utility.yul\":13503:13526   */\n      div\n        /* \"#utility.yul\":13493:13526   */\n      swap1\n      pop\n        /* \"#utility.yul\":13439:13532   */\n      swap2\n      swap1\n      pop\n      jump\t// out\n        /* \"#utility.yul\":13538:13645   */\n    tag_158:\n        /* \"#utility.yul\":13582:13590   */\n      0x00\n        /* \"#utility.yul\":13632:13637   */\n      dup3\n        /* \"#utility.yul\":13626:13630   */\n      dup3\n        /* \"#utility.yul\":13622:13638   */\n      shl\n        /* \"#utility.yul\":13601:13638   */\n      swap1\n      pop\n        /* \"#utility.yul\":13538:13645   */\n      swap3\n      swap2\n      pop\n      pop\n      jump\t// out\n        /* \"#utility.yul\":13651:14044   */\n    tag_159:\n        /* \"#utility.yul\":13720:13726   */\n      0x00\n        /* \"#utility.yul\":13770:13771   */\n      0x08\n        /* \"#utility.yul\":13758:13768   */\n      dup4\n        /* \"#utility.yul\":13754:13772   */\n      mul\n        /* \"#utility.yul\":13793:13890   */\n      tag_301\n        /* \"#utility.yul\":13823:13889   */\n      0xffffffffffffffffffffffffffffffffffffffffffffffffffffffffffffffff\n        /* \"#utility.yul\":13812:13821   */\n      dup3\n        /* \"#utility.yul\":13793:13890   */\n      tag_158\n      jump\t// in\n    tag_301:\n        /* \"#utility.yul\":13911:13950   */\n      tag_302\n        /* \"#utility.yul\":13941:13949   */\n      dup7\n        /* \"#utility.yul\":13930:13939   */\n      dup4\n        /* \"#utility.yul\":13911:13950   */\n      tag_158\n      jump\t// in\n    tag_302:\n        /* \"#utility.yul\":13899:13950   */\n      swap6\n      pop\n        /* \"#utility.yul\":13983:13987   */\n      dup1\n        /* \"#utility.yul\":13979:13988   */\n      not\n        /* \"#utility.yul\":13972:13977   */\n      dup5\n        /* \"#utility.yul\":13968:13989   */\n      and\n        /* \"#utility.yul\":13959:13989   */\n      swap4\n      pop\n        /* \"#utility.yul\":14032:14036   */\n      dup1\n        /* \"#utility.yul\":14022:14030   */\n      dup7\n        /* \"#utility.yul\":14018:14037   */\n      and\n        /* \"#utility.yul\":14011:14016   */\n      dup5\n        /* \"#utility.yul\":14008:14038   */\n      or\n        /* \"#utility.yul\":13998:14038   */\n      swap3\n      pop\n        /* \"#utility.yul\":13727:14044   */\n      pop\n      pop\n        /* \"#utility.yul\":13651:14044   */\n      swap4\n      swap3\n      pop\n      pop\n      pop\n      jump\t// out\n        /* \"#utility.yul\":14050:14192   */\n    tag_160:\n        /* \"#utility.yul\":14100:14109   */\n      0x00\n        /* \"#utility.yul\":14133:14186   */\n      tag_304\n        /* \"#utility.yul\":14151:14185   */\n      tag_305\n        /* \"#utility.yul\":14160:14184   */\n      tag_306\n        /* \"#utility.yul\":14178:14183   */\n      dup5\n        /* \"#utility.yul\":14160:14184   */\n      tag_123\n      jump\t// in\n    tag_306:\n        /* \"#utility.yul\":14151:14185   */\n      tag_147\n      jump\t// in\n    tag_305:\n        /* \"#utility.yul\":14133:14186   */\n      tag_123\n      jump\t// in\n    tag_304:\n        /* \"#utility.yul\":14120:14186   */\n      swap1\n      pop\n        /* \"#utility.yul\":14050:14192   */\n      swap2\n      swap1\n      pop\n      jump\t// out\n        /* \"#utility.yul\":14198:14273   */\n    tag_161:\n        /* \"#utility.yul\":14241:14244   */\n      0x00\n        /* \"#utility.yul\":14262:14267   */\n      dup2\n        /* \"#utility.yul\":14255:14267   */\n      swap1\n      pop\n        /* \"#utility.yul\":14198:14273   */\n      swap2\n      swap1\n      pop\n      jump\t// out\n        /* \"#utility.yul\":14279:14548   */\n    tag_162:\n        /* \"#utility.yul\":14389:14428   */\n      tag_309\n        /* \"#utility.yul\":14420:14427   */\n      dup4\n        /* \"#utility.yul\":14389:14428   */\n      tag_160\n      jump\t// in\n    tag_309:\n        /* \"#utility.yul\":14450:14541   */\n      tag_310\n        /* \"#utility.yul\":14499:14540   */\n      tag_311\n        /* \"#utility.yul\":14523:14539   */\n      dup3\n        /* \"#utility.yul\":14499:14540   */\n      tag_161\n      jump\t// in\n    tag_311:\n        /* \"#utility.yul\":14491:14497   */\n      dup5\n        /* \"#utility.yul\":14484:14488   */\n      dup5\n        /* \"#utility.yul\":14478:14489   */\n      sload\n        /* \"#utility.yul\":14450:14541   */\n      tag_159\n      jump\t// in\n    tag_310:\n        /* \"#utility.yul\":14444:14448   */\n      dup3\n        /* \"#utility.yul\":14437:14542   */\n      sstore\n        /* \"#utility.yul\":14355:14548   */\n      pop\n        /* \"#utility.yul\":14279:14548   */\n      pop\n      pop\n      pop\n      jump\t// out\n        /* \"#utility.yul\":14554:14627   */\n    tag_163:\n        /* \"#utility.yul\":14599:14602   */\n      0x00\n        /* \"#utility.yul\":14620:14621   */\n      0x00\n        /* \"#utility.yul\":14613:14621   */\n      swap1\n      pop\n        /* \"#utility.yul\":14554:14627   */\n      swap1\n      jump\t// out\n        /* \"#utility.yul\":14633:14822   */\n    tag_164:\n        /* \"#utility.yul\":14710:14742   */\n      tag_314\n      tag_163\n      jump\t// in\n    tag_314:\n        /* \"#utility.yul\":14751:14816   */\n      tag_315\n        /* \"#utility.yul\":14809:14815   */\n      dup2\n        /* \"#utility.yul\":14801:14807   */\n      dup5\n        /* \"#utility.yul\":14795:14799   */\n      dup5\n        /* \"#utility.yul\":14751:14816   */\n      tag_162\n      jump\t// in\n    tag_315:\n        /* \"#utility.yul\":14686:14822   */\n      pop\n        /* \"#utility.yul\":14633:14822   */\n      pop\n      pop\n      jump\t// out\n        /* \"#utility.yul\":14828:15014   */\n    tag_165:\n        /* \"#utility.yul\":14888:15008   */\n    tag_317:\n        /* \"#utility.yul\":14905:14908   */\n      dup2\n        /* \"#utility.yul\":14898:14903   */\n      dup2\n        /* \"#utility.yul\":14895:14909   */\n      lt\n        /* \"#utility.yul\":14888:15008   */\n      iszero\n      tag_319\n      jumpi\n        /* \"#utility.yul\":14959:14998   */\n      tag_320\n        /* \"#utility.yul\":14996:14997   */\n      0x00\n        /* \"#utility.yul\":14989:14994   */\n      dup3\n        /* \"#utility.yul\":14959:14998   */\n      tag_164\n      jump\t// in\n    tag_320:\n        /* \"#utility.yul\":14932:14933   */\n      0x01\n        /* \"#utility.yul\":14925:14930   */\n      dup2\n        /* \"#utility.yul\":14921:14934   */\n      add\n        /* \"#utility.yul\":14912:14934   */\n      swap1\n      pop\n        /* \"#utility.yul\":14888:15008   */\n      jump(tag_317)\n    tag_319:\n        /* \"#utility.yul\":14828:15014   */\n      pop\n      pop\n      jump\t// out\n        /* \"#utility.yul\":15020:15563   */\n    tag_166:\n        /* \"#utility.yul\":15121:15123   */\n      0x1f\n        /* \"#utility.yul\":15116:15119   */\n      dup3\n        /* \"#utility.yul\":15113:15124   */\n      gt\n        /* \"#utility.yul\":15110:15556   */\n      iszero\n      tag_322\n      jumpi\n        /* \"#utility.yul\":15155:15193   */\n      tag_323\n        /* \"#utility.yul\":15187:15192   */\n      dup2\n        /* \"#utility.yul\":15155:15193   */\n      tag_156\n      jump\t// in\n    tag_323:\n        /* \"#utility.yul\":15239:15268   */\n      tag_324\n        /* \"#utility.yul\":15257:15267   */\n      dup5\n        /* \"#utility.yul\":15239:15268   */\n      tag_157\n      jump\t// in\n    tag_324:\n        /* \"#utility.yul\":15229:15237   */\n      dup2\n        /* \"#utility.yul\":15225:15269   */\n      add\n        /* \"#utility.yul\":15422:15424   */\n      0x20\n        /* \"#utility.yul\":15410:15420   */\n      dup6\n        /* \"#utility.yul\":15407:15425   */\n      lt\n        /* \"#utility.yul\":15404:15453   */\n      iszero\n      tag_325\n      jumpi\n        /* \"#utility.yul\":15443:15451   */\n      dup2\n        /* \"#utility.yul\":15428:15451   */\n      swap1\n      pop\n        /* \"#utility.yul\":15404:15453   */\n    tag_325:\n        /* \"#utility.yul\":15466:15546   */\n      tag_326\n        /* \"#utility.yul\":15522:15544   */\n      tag_327\n        /* \"#utility.yul\":15540:15543   */\n      dup6\n        /* \"#utility.yul\":15522:15544   */\n      tag_157\n      jump\t// in\n    tag_327:\n        /* \"#utility.yul\":15512:15520   */\n      dup4\n        /* \"#utility.yul\":15508:15545   */\n      add\n        /* \"#utility.yul\":15495:15506   */\n      dup3\n        /* \"#utility.yul\":15466:15546   */\n      tag_165\n      jump\t// in\n    tag_326:\n        /* \"#utility.yul\":15125:15556   */\n      pop\n      pop\n        /* \"#utility.yul\":15110:15556   */\n    tag_322:\n        /* \"#utility.yul\":15020:15563   */\n      pop\n      pop\n      pop\n      jump\t// out\n        /* \"#utility.yul\":15569:15686   */\n    tag_167:\n        /* \"#utility.yul\":15623:15631   */\n      0x00\n        /* \"#utility.yul\":15673:15678   */\n      dup3\n        /* \"#utility.yul\":15667:15671   */\n      dup3\n        /* \"#utility.yul\":15663:15679   */\n      shr\n        /* \"#utility.yul\":15642:15679   */\n      swap1\n      pop\n        /* \"#utility.yul\":15569:15686   */\n      swap3\n      swap2\n      pop\n      pop\n      jump\t// out\n        /* \"#utility.yul\":15692:15861   */\n    tag_168:\n        /* \"#utility.yul\":15736:15742   */\n      0x00\n        /* \"#utility.yul\":15769:15820   */\n      tag_330\n        /* \"#utility.yul\":15817:15818   */\n      0x00\n        /* \"#utility.yul\":15813:15819   */\n      not\n        /* \"#utility.yul\":15805:15810   */\n      dup5\n        /* \"#utility.yul\":15802:15803   */\n      0x08\n        /* \"#utility.yul\":15798:15811   */\n      mul\n        /* \"#utility.yul\":15769:15820   */\n      tag_167\n      jump\t// in\n    tag_330:\n        /* \"#utility.yul\":15765:15821   */\n      not\n        /* \"#utility.yul\":15850:15854   */\n      dup1\n        /* \"#utility.yul\":15844:15848   */\n      dup4\n        /* \"#utility.yul\":15840:15855   */\n      and\n        /* \"#utility.yul\":15830:15855   */\n      swap2\n      pop\n        /* \"#utility.yul\":15743:15861   */\n      pop\n        /* \"#utility.yul\":15692:15861   */\n      swap3\n      swap2\n      pop\n      pop\n      jump\t// out\n        /* \"#utility.yul\":15866:16161   */\n    tag_169:\n        /* \"#utility.yul\":15942:15946   */\n      0x00\n        /* \"#utility.yul\":16088:16117   */\n      tag_332\n        /* \"#utility.yul\":16113:16116   */\n      dup4\n        /* \"#utility.yul\":16107:16111   */\n      dup4\n        /* \"#utility.yul\":16088:16117   */\n      tag_168\n      jump\t// in\n    tag_332:\n        /* \"#utility.yul\":16080:16117   */\n      swap2\n      pop\n        /* \"#utility.yul\":16150:16153   */\n      dup3\n        /* \"#utility.yul\":16147:16148   */\n      0x02\n        /* \"#utility.yul\":16143:16154   */\n      mul\n        /* \"#utility.yul\":16137:16141   */\n      dup3\n        /* \"#utility.yul\":16134:16155   */\n      or\n        /* \"#utility.yul\":16126:16155   */\n      swap1\n      pop\n        /* \"#utility.yul\":15866:16161   */\n      swap3\n      swap2\n      pop\n      pop\n      jump\t// out\n        /* \"#utility.yul\":16166:17561   */\n    tag_75:\n        /* \"#utility.yul\":16283:16320   */\n      tag_334\n        /* \"#utility.yul\":16316:16319   */\n      dup3\n        /* \"#utility.yul\":16283:16320   */\n      tag_127\n      jump\t// in\n    tag_334:\n        /* \"#utility.yul\":16385:16403   */\n      0xffffffffffffffff\n        /* \"#utility.yul\":16377:16383   */\n      dup2\n        /* \"#utility.yul\":16374:16404   */\n      gt\n        /* \"#utility.yul\":16371:16427   */\n      iszero\n      tag_335\n      jumpi\n        /* \"#utility.yul\":16407:16425   */\n      tag_336\n      tag_155\n      jump\t// in\n    tag_336:\n        /* \"#utility.yul\":16371:16427   */\n    tag_335:\n        /* \"#utility.yul\":16451:16489   */\n      tag_337\n        /* \"#utility.yul\":16483:16487   */\n      dup3\n        /* \"#utility.yul\":16477:16488   */\n      sload\n        /* \"#utility.yul\":16451:16489   */\n      tag_55\n      jump\t// in\n    tag_337:\n        /* \"#utility.yul\":16536:16603   */\n      tag_338\n        /* \"#utility.yul\":16596:16602   */\n      dup3\n        /* \"#utility.yul\":16588:16594   */\n      dup3\n        /* \"#utility.yul\":16582:16586   */\n      dup6\n        /* \"#utility.yul\":16536:16603   */\n      tag_166\n      jump\t// in\n    tag_338:\n        /* \"#utility.yul\":16630:16631   */\n      0x00\n        /* \"#utility.yul\":16654:16658   */\n      0x20\n        /* \"#utility.yul\":16641:16658   */\n      swap1\n      pop\n        /* \"#utility.yul\":16686:16688   */\n      0x1f\n        /* \"#utility.yul\":16678:16684   */\n      dup4\n        /* \"#utility.yul\":16675:16689   */\n      gt\n        /* \"#utility.yul\":16703:16704   */\n      0x01\n        /* \"#utility.yul\":16698:17316   */\n      dup2\n      eq\n      tag_340\n      jumpi\n        /* \"#utility.yul\":17360:17361   */\n      0x00\n        /* \"#utility.yul\":17377:17383   */\n      dup5\n        /* \"#utility.yul\":17374:17451   */\n      iszero\n      tag_341\n      jumpi\n        /* \"#utility.yul\":17426:17435   */\n      dup3\n        /* \"#utility.yul\":17421:17424   */\n      dup8\n        /* \"#utility.yul\":17417:17436   */\n      add\n        /* \"#utility.yul\":17411:17437   */\n      mload\n        /* \"#utility.yul\":17402:17437   */\n      swap1\n      pop\n        /* \"#utility.yul\":17374:17451   */\n    tag_341:\n        /* \"#utility.yul\":17477:17544   */\n      tag_342\n        /* \"#utility.yul\":17537:17543   */\n      dup6\n        /* \"#utility.yul\":17530:17535   */\n      dup3\n        /* \"#utility.yul\":17477:17544   */\n      tag_169\n      jump\t// in\n    tag_342:\n        /* \"#utility.yul\":17471:17475   */\n      dup7\n        /* \"#utility.yul\":17464:17545   */\n      sstore\n        /* \"#utility.yul\":17333:17555   */\n      pop\n        /* \"#utility.yul\":16668:17555   */\n      jump(tag_339)\n        /* \"#utility.yul\":16698:17316   */\n    tag_340:\n        /* \"#utility.yul\":16750:16754   */\n      0x1f\n        /* \"#utility.yul\":16746:16755   */\n      not\n        /* \"#utility.yul\":16738:16744   */\n      dup5\n        /* \"#utility.yul\":16734:16756   */\n      and\n        /* \"#utility.yul\":16784:16821   */\n      tag_343\n        /* \"#utility.yul\":16816:16820   */\n      dup7\n        /* \"#utility.yul\":16784:16821   */\n      tag_156\n      jump\t// in\n    tag_343:\n        /* \"#utility.yul\":16843:16844   */\n      0x00\n        /* \"#utility.yul\":16857:17065   */\n    tag_344:\n        /* \"#utility.yul\":16871:16878   */\n      dup3\n        /* \"#utility.yul\":16868:16869   */\n      dup2\n        /* \"#utility.yul\":16865:16879   */\n      lt\n        /* \"#utility.yul\":16857:17065   */\n      iszero\n      tag_346\n      jumpi\n        /* \"#utility.yul\":16950:16959   */\n      dup5\n        /* \"#utility.yul\":16945:16948   */\n      dup10\n        /* \"#utility.yul\":16941:16960   */\n      add\n        /* \"#utility.yul\":16935:16961   */\n      mload\n        /* \"#utility.yul\":16927:16933   */\n      dup3\n        /* \"#utility.yul\":16920:16962   */\n      sstore\n        /* \"#utility.yul\":17001:17002   */\n      0x01\n        /* \"#utility.yul\":16993:16999   */\n      dup3\n        /* \"#utility.yul\":16989:17003   */\n      add\n        /* \"#utility.yul\":16979:17003   */\n      swap2\n      pop\n        /* \"#utility.yul\":17048:17050   */\n      0x20\n        /* \"#utility.yul\":17037:17046   */\n      dup6\n        /* \"#utility.yul\":17033:17051   */\n      add\n        /* \"#utility.yul\":17020:17051   */\n      swap5\n      pop\n        /* \"#utility.yul\":16894:16898   */\n      0x20\n        /* \"#utility.yul\":16891:16892   */\n      dup2\n        /* \"#utility.yul\":16887:16899   */\n      add\n        /* \"#utility.yul\":16882:16899   */\n      swap1\n      pop\n        /* \"#utility.yul\":16857:17065   */\n      jump(tag_344)\n    tag_346:\n        /* \"#utility.yul\":17093:17099   */\n      dup7\n        /* \"#utility.yul\":17084:17091   */\n      dup4\n        /* \"#utility.yul\":17081:17100   */\n      lt\n        /* \"#utility.yul\":17078:17257   */\n      iszero\n      tag_347\n      jumpi\n        /* \"#utility.yul\":17151:17160   */\n      dup5\n        /* \"#utility.yul\":17146:17149   */\n      dup10\n        /* \"#utility.yul\":17142:17161   */\n      add\n        /* \"#utility.yul\":17136:17162   */\n      mload\n        /* \"#utility.yul\":17194:17242   */\n      tag_348\n        /* \"#utility.yul\":17236:17240   */\n      0x1f\n        /* \"#utility.yul\":17228:17234   */\n      dup10\n        /* \"#utility.yul\":17224:17241   */\n      and\n        /* \"#utility.yul\":17213:17222   */\n      dup3\n        /* \"#utility.yul\":17194:17242   */\n      tag_168\n      jump\t// in\n    tag_348:\n        /* \"#utility.yul\":17186:17192   */\n      dup4\n        /* \"#utility.yul\":17179:17243   */\n      sstore\n        /* \"#utility.yul\":17101:17257   */\n      pop\n        /* \"#utility.yul\":17078:17257   */\n    tag_347:\n        /* \"#utility.yul\":17303:17304   */\n      0x01\n        /* \"#utility.yul\":17299:17300   */\n      0x02\n        /* \"#utility.yul\":17291:17297   */\n      dup9\n        /* \"#utility.yul\":17287:17301   */\n      mul\n        /* \"#utility.yul\":17283:17305   */\n      add\n        /* \"#utility.yul\":17277:17281   */\n      dup9\n        /* \"#utility.yul\":17270:17306   */\n      sstore\n        /* \"#utility.yul\":16705:17316   */\n      pop\n      pop\n      pop\n        /* \"#utility.yul\":16668:17555   */\n    tag_339:\n      pop\n        /* \"#utility.yul\":16258:17561   */\n      pop\n      pop\n      pop\n        /* \"#utility.yul\":16166:17561   */\n      pop\n      pop\n      jump\t// out\n        /* \"#utility.yul\":17567:17715   */\n    tag_170:\n        /* \"#utility.yul\":17665:17671   */\n      dup3\n        /* \"#utility.yul\":17660:17663   */\n      dup2\n        /* \"#utility.yul\":17655:17658   */\n      dup4\n        /* \"#utility.yul\":17642:17672   */\n      calldatacopy\n        /* \"#utility.yul\":17706:17707   */\n      0x00\n        /* \"#utility.yul\":17697:17703   */\n      dup4\n        /* \"#utility.yul\":17692:17695   */\n      dup4\n        /* \"#utility.yul\":17688:17704   */\n      add\n        /* \"#utility.yul\":17681:17708   */\n      mstore\n        /* \"#utility.yul\":17567:17715   */\n      pop\n      pop\n      pop\n      jump\t// out\n        /* \"#utility.yul\":17745:18062   */\n    tag_171:\n        /* \"#utility.yul\":17843:17846   */\n      0x00\n        /* \"#utility.yul\":17864:17935   */\n      tag_351\n        /* \"#utility.yul\":17928:17934   */\n      dup4\n        /* \"#utility.yul\":17923:17926   */\n      dup6\n        /* \"#utility.yul\":17864:17935   */\n      tag_128\n      jump\t// in\n    tag_351:\n        /* \"#utility.yul\":17857:17935   */\n      swap4\n      pop\n        /* \"#utility.yul\":17945:18001   */\n      tag_352\n        /* \"#utility.yul\":17994:18000   */\n      dup4\n        /* \"#utility.yul\":17989:17992   */\n      dup6\n        /* \"#utility.yul\":17982:17987   */\n      dup5\n        /* \"#utility.yul\":17945:18001   */\n      tag_170\n      jump\t// in\n    tag_352:\n        /* \"#utility.yul\":18026:18055   */\n      tag_353\n        /* \"#utility.yul\":18048:18054   */\n      dup4\n        /* \"#utility.yul\":18026:18055   */\n      tag_130\n      jump\t// in\n    tag_353:\n        /* \"#utility.yul\":18021:18024   */\n      dup5\n        /* \"#utility.yul\":18017:18056   */\n      add\n        /* \"#utility.yul\":18010:18056   */\n      swap1\n      pop\n        /* \"#utility.yul\":17745:18062   */\n      swap4\n      swap3\n      pop\n      pop\n      pop\n      jump\t// out\n        /* \"#utility.yul\":18068:18401   */\n    tag_79:\n        /* \"#utility.yul\":18191:18195   */\n      0x00\n        /* \"#utility.yul\":18229:18231   */\n      0x20\n        /* \"#utility.yul\":18218:18227   */\n      dup3\n        /* \"#utility.yul\":18214:18232   */\n      add\n        /* \"#utility.yul\":18206:18232   */\n      swap1\n      pop\n        /* \"#utility.yul\":18278:18287   */\n      dup2\n        /* \"#utility.yul\":18272:18276   */\n      dup2\n        /* \"#utility.yul\":18268:18288   */\n      sub\n        /* \"#utility.yul\":18264:18265   */\n      0x00\n        /* \"#utility.yul\":18253:18262   */\n      dup4\n        /* \"#utility.yul\":18249:18266   */\n      add\n        /* \"#utility.yul\":18242:18289   */\n      mstore\n        /* \"#utility.yul\":18306:18394   */\n      tag_355\n        /* \"#utility.yul\":18389:18393   */\n      dup2\n        /* \"#utility.yul\":18380:18386   */\n      dup5\n        /* \"#utility.yul\":18372:18378   */\n      dup7\n        /* \"#utility.yul\":18306:18394   */\n      tag_171\n      jump\t// in\n    tag_355:\n        /* \"#utility.yul\":18298:18394   */\n      swap1\n      pop\n        /* \"#utility.yul\":18068:18401   */\n      swap4\n      swap3\n      pop\n      pop\n      pop\n      jump\t// out\n        /* \"#utility.yul\":18407:18580   */\n    tag_172:\n        /* \"#utility.yul\":18547:18572   */\n      0x537461666620494420646f6573206e6f74206578697374000000000000000000\n        /* \"#utility.yul\":18543:18544   */\n      0x00\n        /* \"#utility.yul\":18535:18541   */\n      dup3\n        /* \"#utility.yul\":18531:18545   */\n      add\n        /* \"#utility.yul\":18524:18573   */\n      mstore\n        /* \"#utility.yul\":18407:18580   */\n      pop\n      jump\t// out\n        /* \"#utility.yul\":18586:18952   */\n    tag_173:\n        /* \"#utility.yul\":18728:18731   */\n      0x00\n        /* \"#utility.yul\":18749:18816   */\n      tag_358\n        /* \"#utility.yul\":18813:18815   */\n      0x17\n        /* \"#utility.yul\":18808:18811   */\n      dup4\n        /* \"#utility.yul\":18749:18816   */\n      tag_128\n      jump\t// in\n    tag_358:\n        /* \"#utility.yul\":18742:18816   */\n      swap2\n      pop\n        /* \"#utility.yul\":18825:18918   */\n      tag_359\n        /* \"#utility.yul\":18914:18917   */\n      dup3\n        /* \"#utility.yul\":18825:18918   */\n      tag_172\n      jump\t// in\n    tag_359:\n        /* \"#utility.yul\":18943:18945   */\n      0x20\n        /* \"#utility.yul\":18938:18941   */\n      dup3\n        /* \"#utility.yul\":18934:18946   */\n      add\n        /* \"#utility.yul\":18927:18946   */\n      swap1\n      pop\n        /* \"#utility.yul\":18586:18952   */\n      swap2\n      swap1\n      pop\n      jump\t// out\n        /* \"#utility.yul\":18958:19377   */\n    tag_83:\n        /* \"#utility.yul\":19124:19128   */\n      0x00\n        /* \"#utility.yul\":19162:19164   */\n      0x20\n        /* \"#utility.yul\":19151:19160   */\n      dup3\n        /* \"#utility.yul\":19147:19165   */\n      add\n        /* \"#utility.yul\":19139:19165   */\n      swap1\n      pop\n        /* \"#utility.yul\":19211:19220   */\n      dup2\n        /* \"#utility.yul\":19205:19209   */\n      dup2\n        /* \"#utility.yul\":19201:19221   */\n      sub\n        /* \"#utility.yul\":19197:19198   */\n      0x00\n        /* \"#utility.yul\":19186:19195   */\n      dup4\n        /* \"#utility.yul\":19182:19199   */\n      add\n        /* \"#utility.yul\":19175:19222   */\n      mstore\n        /* \"#utility.yul\":19239:19370   */\n      tag_361\n        /* \"#utility.yul\":19365:19369   */\n      dup2\n        /* \"#utility.yul\":19239:19370   */\n      tag_173\n      jump\t// in\n    tag_361:\n        /* \"#utility.yul\":19231:19370   */\n      swap1\n      pop\n        /* \"#utility.yul\":18958:19377   */\n      swap2\n      swap1\n      pop\n      jump\t// out\n        /* \"#utility.yul\":19383:19480   */\n    tag_174:\n        /* \"#utility.yul\":19442:19448   */\n      0x00\n        /* \"#utility.yul\":19470:19473   */\n      dup3\n        /* \"#utility.yul\":19460:19473   */\n      swap1\n      pop\n        /* \"#utility.yul\":19383:19480   */\n      swap3\n      swap2\n      pop\n      pop\n      jump\t// out\n        /* \"#utility.yul\":19486:20889   */\n    tag_85:\n        /* \"#utility.yul\":19610:19654   */\n      tag_364\n        /* \"#utility.yul\":19650:19653   */\n      dup4\n        /* \"#utility.yul\":19645:19648   */\n      dup4\n        /* \"#utility.yul\":19610:19654   */\n      tag_174\n      jump\t// in\n    tag_364:\n        /* \"#utility.yul\":19719:19737   */\n      0xffffffffffffffff\n        /* \"#utility.yul\":19711:19717   */\n      dup2\n        /* \"#utility.yul\":19708:19738   */\n      gt\n        /* \"#utility.yul\":19705:19761   */\n      iszero\n      tag_365\n      jumpi\n        /* \"#utility.yul\":19741:19759   */\n      tag_366\n      tag_155\n      jump\t// in\n    tag_366:\n        /* \"#utility.yul\":19705:19761   */\n    tag_365:\n        /* \"#utility.yul\":19785:19823   */\n      tag_367\n        /* \"#utility.yul\":19817:19821   */\n      dup3\n        /* \"#utility.yul\":19811:19822   */\n      sload\n        /* \"#utility.yul\":19785:19823   */\n      tag_55\n      jump\t// in\n    tag_367:\n        /* \"#utility.yul\":19870:19937   */\n      tag_368\n        /* \"#utility.yul\":19930:19936   */\n      dup3\n        /* \"#utility.yul\":19922:19928   */\n      dup3\n        /* \"#utility.yul\":19916:19920   */\n      dup6\n        /* \"#utility.yul\":19870:19937   */\n      tag_166\n      jump\t// in\n    tag_368:\n        /* \"#utility.yul\":19964:19965   */\n      0x00\n        /* \"#utility.yul\":19993:19995   */\n      0x1f\n        /* \"#utility.yul\":19985:19991   */\n      dup4\n        /* \"#utility.yul\":19982:19996   */\n      gt\n        /* \"#utility.yul\":20010:20011   */\n      0x01\n        /* \"#utility.yul\":20005:20637   */\n      dup2\n      eq\n      tag_370\n      jumpi\n        /* \"#utility.yul\":20681:20682   */\n      0x00\n        /* \"#utility.yul\":20698:20704   */\n      dup5\n        /* \"#utility.yul\":20695:20779   */\n      iszero\n      tag_371\n      jumpi\n        /* \"#utility.yul\":20754:20763   */\n      dup3\n        /* \"#utility.yul\":20749:20752   */\n      dup8\n        /* \"#utility.yul\":20745:20764   */\n      add\n        /* \"#utility.yul\":20732:20765   */\n      calldataload\n        /* \"#utility.yul\":20723:20765   */\n      swap1\n      pop\n        /* \"#utility.yul\":20695:20779   */\n    tag_371:\n        /* \"#utility.yul\":20805:20872   */\n      tag_372\n        /* \"#utility.yul\":20865:20871   */\n      dup6\n        /* \"#utility.yul\":20858:20863   */\n      dup3\n        /* \"#utility.yul\":20805:20872   */\n      tag_169\n      jump\t// in\n    tag_372:\n        /* \"#utility.yul\":20799:20803   */\n      dup7\n        /* \"#utility.yul\":20792:20873   */\n      sstore\n        /* \"#utility.yul\":20654:20883   */\n      pop\n        /* \"#utility.yul\":19975:20883   */\n      jump(tag_369)\n        /* \"#utility.yul\":20005:20637   */\n    tag_370:\n        /* \"#utility.yul\":20057:20061   */\n      0x1f\n        /* \"#utility.yul\":20053:20062   */\n      not\n        /* \"#utility.yul\":20045:20051   */\n      dup5\n        /* \"#utility.yul\":20041:20063   */\n      and\n        /* \"#utility.yul\":20091:20128   */\n      tag_373\n        /* \"#utility.yul\":20123:20127   */\n      dup7\n        /* \"#utility.yul\":20091:20128   */\n      tag_156\n      jump\t// in\n    tag_373:\n        /* \"#utility.yul\":20150:20151   */\n      0x00\n        /* \"#utility.yul\":20164:20379   */\n    tag_374:\n        /* \"#utility.yul\":20178:20185   */\n      dup3\n        /* \"#utility.yul\":20175:20176   */\n      dup2\n        /* \"#utility.yul\":20172:20186   */\n      lt\n        /* \"#utility.yul\":20164:20379   */\n      iszero\n      tag_376\n      jumpi\n        /* \"#utility.yul\":20264:20273   */\n      dup5\n        /* \"#utility.yul\":20259:20262   */\n      dup10\n        /* \"#utility.yul\":20255:20274   */\n      add\n        /* \"#utility.yul\":20242:20275   */\n      calldataload\n        /* \"#utility.yul\":20234:20240   */\n      dup3\n        /* \"#utility.yul\":20227:20276   */\n      sstore\n        /* \"#utility.yul\":20315:20316   */\n      0x01\n        /* \"#utility.yul\":20307:20313   */\n      dup3\n        /* \"#utility.yul\":20303:20317   */\n      add\n        /* \"#utility.yul\":20293:20317   */\n      swap2\n      pop\n        /* \"#utility.yul\":20362:20364   */\n      0x20\n        /* \"#utility.yul\":20351:20360   */\n      dup6\n        /* \"#utility.yul\":20347:20365   */\n      add\n        /* \"#utility.yul\":20334:20365   */\n      swap5\n      pop\n        /* \"#utility.yul\":20201:20205   */\n      0x20\n        /* \"#utility.yul\":20198:20199   */\n      dup2\n        /* \"#utility.yul\":20194:20206   */\n      add\n        /* \"#utility.yul\":20189:20206   */\n      swap1\n      pop\n        /* \"#utility.yul\":20164:20379   */\n      jump(tag_374)\n    tag_376:\n        /* \"#utility.yul\":20407:20413   */\n      dup7\n        /* \"#utility.yul\":20398:20405   */\n      dup4\n        /* \"#utility.yul\":20395:20414   */\n      lt\n        /* \"#utility.yul\":20392:20578   */\n      iszero\n      tag_377\n      jumpi\n        /* \"#utility.yul\":20472:20481   */\n      dup5\n        /* \"#utility.yul\":20467:20470   */\n      dup10\n        /* \"#utility.yul\":20463:20482   */\n      add\n        /* \"#utility.yul\":20450:20483   */\n      calldataload\n        /* \"#utility.yul\":20515:20563   */\n      tag_378\n        /* \"#utility.yul\":20557:20561   */\n      0x1f\n        /* \"#utility.yul\":20549:20555   */\n      dup10\n        /* \"#utility.yul\":20545:20562   */\n      and\n        /* \"#utility.yul\":20534:20543   */\n      dup3\n        /* \"#utility.yul\":20515:20563   */\n      tag_168\n      jump\t// in\n    tag_378:\n        /* \"#utility.yul\":20507:20513   */\n      dup4\n        /* \"#utility.yul\":20500:20564   */\n      sstore\n        /* \"#utility.yul\":20415:20578   */\n      pop\n        /* \"#utility.yul\":20392:20578   */\n    tag_377:\n        /* \"#utility.yul\":20624:20625   */\n      0x01\n        /* \"#utility.yul\":20620:20621   */\n      0x02\n        /* \"#utility.yul\":20612:20618   */\n      dup9\n        /* \"#utility.yul\":20608:20622   */\n      mul\n        /* \"#utility.yul\":20604:20626   */\n      add\n        /* \"#utility.yul\":20598:20602   */\n      dup9\n        /* \"#utility.yul\":20591:20627   */\n      sstore\n        /* \"#utility.yul\":20012:20637   */\n      pop\n      pop\n      pop\n        /* \"#utility.yul\":19975:20883   */\n    tag_369:\n      pop\n        /* \"#utility.yul\":19585:20889   */\n      pop\n      pop\n      pop\n        /* \"#utility.yul\":19486:20889   */\n      pop\n      pop\n      pop\n      jump\t// out\n        /* \"#utility.yul\":20895:21227   */\n    tag_115:\n        /* \"#utility.yul\":21016:21020   */\n      0x00\n        /* \"#utility.yul\":21054:21056   */\n      0x40\n        /* \"#utility.yul\":21043:21052   */\n      dup3\n        /* \"#utility.yul\":21039:21057   */\n      add\n        /* \"#utility.yul\":21031:21057   */\n      swap1\n      pop\n        /* \"#utility.yul\":21067:21138   */\n      tag_380\n        /* \"#utility.yul\":21135:21136   */\n      0x00\n        /* \"#utility.yul\":21124:21133   */\n      dup4\n        /* \"#utility.yul\":21120:21137   */\n      add\n        /* \"#utility.yul\":21111:21117   */\n      dup6\n        /* \"#utility.yul\":21067:21138   */\n      tag_126\n      jump\t// in\n    tag_380:\n        /* \"#utility.yul\":21148:21220   */\n      tag_381\n        /* \"#utility.yul\":21216:21218   */\n      0x20\n        /* \"#utility.yul\":21205:21214   */\n      dup4\n        /* \"#utility.yul\":21201:21219   */\n      add\n        /* \"#utility.yul\":21192:21198   */\n      dup5\n        /* \"#utility.yul\":21148:21220   */\n      tag_126\n      jump\t// in\n    tag_381:\n        /* \"#utility.yul\":20895:21227   */\n      swap4\n      swap3\n      pop\n      pop\n      pop\n      jump\t// out\n\n    auxdata: 0xa26469706673582212204c3a9cf9a1a094c6895b47cef0184be6ae769593d59e98705db7e36b1d5a7ad864736f6c634300081e0033\n}\n",
				"bytecode": {
					"linkReferences": {},
					"object": "60806040526001600355348015610014575f5ffd5b50604051611689380380611689833981810160405281019061003691906100d9565b805f5f6101000a81548173ffffffffffffffffffffffffffffffffffffffff021916908373ffffffffffffffffffffffffffffffffffffffff16021790555050610104565b5f5ffd5b5f73ffffffffffffffffffffffffffffffffffffffff82169050919050565b5f6100a88261007f565b9050919050565b6100b88161009e565b81146100c2575f5ffd5b50565b5f815190506100d3816100af565b92915050565b5f602082840312156100ee576100ed61007b565b5b5f6100fb848285016100c5565b91505092915050565b611578806101115f395ff3fe608060405234801561000f575f5ffd5b5060043610610091575f3560e01c8063b3ce9dea11610064578063b3ce9dea14610134578063cbe8eaad14610150578063f4def44b14610180578063f9b6117f146101b0578063fdff9aab146101ce57610091565b80632e026bef146100955780633fbc17f2146100c5578063498d4707146100e35780639121f4eb14610118575b5f5ffd5b6100af60048036038101906100aa9190610b28565b6101ea565b6040516100bc9190610b75565b60405180910390f35b6100cd610215565b6040516100da9190610b75565b60405180910390f35b6100fd60048036038101906100f89190610b8e565b61021b565b60405161010f96959493929190610c29565b60405180910390f35b610132600480360381019061012d9190610cfe565b6103e5565b005b61014e60048036038101906101499190610cfe565b6105e5565b005b61016a60048036038101906101659190610b8e565b6106e9565b6040516101779190610e79565b60405180910390f35b61019a60048036038101906101959190610b8e565b610750565b6040516101a79190610f75565b60405180910390f35b6101b8610948565b6040516101c5919061100f565b60405180910390f35b6101e860048036038101906101e39190610b28565b61096c565b005b6002602052815f5260405f208181548110610203575f80fd5b905f5260205f20015f91509150505481565b60035481565b6001602052805f5260405f205f91509050805f01549080600101805461024090611055565b80601f016020809104026020016040519081016040528092919081815260200182805461026c90611055565b80156102b75780601f1061028e576101008083540402835291602001916102b7565b820191905f5260205f20905b81548152906001019060200180831161029a57829003601f168201915b5050505050908060020180546102cc90611055565b80601f01602080910402602001604051908101604052809291908181526020018280546102f890611055565b80156103435780601f1061031a57610100808354040283529160200191610343565b820191905f5260205f20905b81548152906001019060200180831161032657829003601f168201915b50505050509080600301805461035890611055565b80601f016020809104026020016040519081016040528092919081815260200182805461038490611055565b80156103cf5780601f106103a6576101008083540402835291602001916103cf565b820191905f5260205f20905b8154815290600101906020018083116103b257829003601f168201915b5050505050908060040154908060050154905086565b5f60015f8981526020019081526020015f205f01541461043a576040517f08c379a0000000000000000000000000000000000000000000000000000000008152600401610431906110cf565b60405180910390fd5b6040518060c0016040528088815260200187878080601f0160208091040260200160405190810160405280939291908181526020018383808284375f81840152601f19601f82011690508083019250505050505050815260200185858080601f0160208091040260200160405190810160405280939291908181526020018383808284375f81840152601f19601f82011690508083019250505050505050815260200183838080601f0160208091040260200160405190810160405280939291908181526020018383808284375f81840152601f19601f8201169050808301925050505050505081526020015f81526020015f81525060015f8981526020019081526020015f205f820151815f0155602082015181600101908161055e91906112b1565b50604082015181600201908161057491906112b1565b50606082015181600301908161058a91906112b1565b506080820151816004015560a08201518160050155905050867fb9918942a2a29d1164ea11d03222c9a01a970e1d37797e67a114dd2c6196dac287876040516105d49291906113ba565b60405180910390a250505050505050565b5f60015f8981526020019081526020015f205f01540361063a576040517f08c379a000000000000000000000000000000000000000000000000000000000815260040161063190611426565b60405180910390fd5b858560015f8a81526020019081526020015f20600101918261065d92919061144e565b50838360015f8a81526020019081526020015f20600201918261068192919061144e565b50818160015f8a81526020019081526020015f2060030191826106a592919061144e565b50867f27556b62664053de7a418476f2c4abc9b526d3c747991948d328082493d82c0e87876040516106d89291906113ba565b60405180910390a250505050505050565b606060025f8381526020019081526020015f2080548060200260200160405190810160405280929190818152602001828054801561074457602002820191905f5260205f20905b815481526020019060010190808311610730575b50505050509050919050565b610758610aba565b60015f8381526020019081526020015f206040518060c00160405290815f820154815260200160018201805461078d90611055565b80601f01602080910402602001604051908101604052809291908181526020018280546107b990611055565b80156108045780601f106107db57610100808354040283529160200191610804565b820191905f5260205f20905b8154815290600101906020018083116107e757829003601f168201915b5050505050815260200160028201805461081d90611055565b80601f016020809104026020016040519081016040528092919081815260200182805461084990611055565b80156108945780601f1061086b57610100808354040283529160200191610894565b820191905f5260205f20905b81548152906001019060200180831161087757829003601f168201915b505050505081526020016003820180546108ad90611055565b80601f01602080910402602001604051908101604052809291908181526020018280546108d990611055565b80156109245780601f106108fb57610100808354040283529160200191610924565b820191905f5260205f20905b81548152906001019060200180831161090757829003601f168201915b50505050508152602001600482015481526020016005820154815250509050919050565b5f5f9054906101000a900473ffffffffffffffffffffffffffffffffffffffff1681565b5f60015f8381526020019081526020015f205f0154036109c1576040517f08c379a00000000000000000000000000000000000000000000000000000000081526004016109b890611426565b60405180910390fd5b60025f8381526020019081526020015f2081908060018154018082558091505060019003905f5260205f20015f90919091909150555f5f9054906101000a900473ffffffffffffffffffffffffffffffffffffffff1673ffffffffffffffffffffffffffffffffffffffff16633f9fb5fd83836040518363ffffffff1660e01b8152600401610a5192919061151b565b5f604051808303815f87803b158015610a68575f5ffd5b505af1158015610a7a573d5f5f3e3d5ffd5b50505050807f37fe5ba29264c8debd409a782c67744bf54751791ccf1197762b9819c10ab61083604051610aae9190610b75565b60405180910390a25050565b6040518060c001604052805f81526020016060815260200160608152602001606081526020015f81526020015f81525090565b5f5ffd5b5f5ffd5b5f819050919050565b610b0781610af5565b8114610b11575f5ffd5b50565b5f81359050610b2281610afe565b92915050565b5f5f60408385031215610b3e57610b3d610aed565b5b5f610b4b85828601610b14565b9250506020610b5c85828601610b14565b9150509250929050565b610b6f81610af5565b82525050565b5f602082019050610b885f830184610b66565b92915050565b5f60208284031215610ba357610ba2610aed565b5b5f610bb084828501610b14565b91505092915050565b5f81519050919050565b5f82825260208201905092915050565b8281835e5f83830152505050565b5f601f19601f8301169050919050565b5f610bfb82610bb9565b610c058185610bc3565b9350610c15818560208601610bd3565b610c1e81610be1565b840191505092915050565b5f60c082019050610c3c5f830189610b66565b8181036020830152610c4e8188610bf1565b90508181036040830152610c628187610bf1565b90508181036060830152610c768186610bf1565b9050610c856080830185610b66565b610c9260a0830184610b66565b979650505050505050565b5f5ffd5b5f5ffd5b5f5ffd5b5f5f83601f840112610cbe57610cbd610c9d565b5b8235905067ffffffffffffffff811115610cdb57610cda610ca1565b5b602083019150836001820283011115610cf757610cf6610ca5565b5b9250929050565b5f5f5f5f5f5f5f6080888a031215610d1957610d18610aed565b5b5f610d268a828b01610b14565b975050602088013567ffffffffffffffff811115610d4757610d46610af1565b5b610d538a828b01610ca9565b9650965050604088013567ffffffffffffffff811115610d7657610d75610af1565b5b610d828a828b01610ca9565b9450945050606088013567ffffffffffffffff811115610da557610da4610af1565b5b610db18a828b01610ca9565b925092505092959891949750929550565b5f81519050919050565b5f82825260208201905092915050565b5f819050602082019050919050565b610df481610af5565b82525050565b5f610e058383610deb565b60208301905092915050565b5f602082019050919050565b5f610e2782610dc2565b610e318185610dcc565b9350610e3c83610ddc565b805f5b83811015610e6c578151610e538882610dfa565b9750610e5e83610e11565b925050600181019050610e3f565b5085935050505092915050565b5f6020820190508181035f830152610e918184610e1d565b905092915050565b5f82825260208201905092915050565b5f610eb382610bb9565b610ebd8185610e99565b9350610ecd818560208601610bd3565b610ed681610be1565b840191505092915050565b5f60c083015f830151610ef65f860182610deb565b5060208301518482036020860152610f0e8282610ea9565b91505060408301518482036040860152610f288282610ea9565b91505060608301518482036060860152610f428282610ea9565b9150506080830151610f576080860182610deb565b5060a0830151610f6a60a0860182610deb565b508091505092915050565b5f6020820190508181035f830152610f8d8184610ee1565b905092915050565b5f73ffffffffffffffffffffffffffffffffffffffff82169050919050565b5f819050919050565b5f610fd7610fd2610fcd84610f95565b610fb4565b610f95565b9050919050565b5f610fe882610fbd565b9050919050565b5f610ff982610fde565b9050919050565b61100981610fef565b82525050565b5f6020820190506110225f830184611000565b92915050565b7f4e487b71000000000000000000000000000000000000000000000000000000005f52602260045260245ffd5b5f600282049050600182168061106c57607f821691505b60208210810361107f5761107e611028565b5b50919050565b7f537461666620494420616c7265616479206578697374730000000000000000005f82015250565b5f6110b9601783610bc3565b91506110c482611085565b602082019050919050565b5f6020820190508181035f8301526110e6816110ad565b9050919050565b7f4e487b71000000000000000000000000000000000000000000000000000000005f52604160045260245ffd5b5f819050815f5260205f209050919050565b5f6020601f8301049050919050565b5f82821b905092915050565b5f600883026111767fffffffffffffffffffffffffffffffffffffffffffffffffffffffffffffffff8261113b565b611180868361113b565b95508019841693508086168417925050509392505050565b5f6111b26111ad6111a884610af5565b610fb4565b610af5565b9050919050565b5f819050919050565b6111cb83611198565b6111df6111d7826111b9565b848454611147565b825550505050565b5f5f905090565b6111f66111e7565b6112018184846111c2565b505050565b5b81811015611224576112195f826111ee565b600181019050611207565b5050565b601f8211156112695761123a8161111a565b6112438461112c565b81016020851015611252578190505b61126661125e8561112c565b830182611206565b50505b505050565b5f82821c905092915050565b5f6112895f198460080261126e565b1980831691505092915050565b5f6112a1838361127a565b9150826002028217905092915050565b6112ba82610bb9565b67ffffffffffffffff8111156112d3576112d26110ed565b5b6112dd8254611055565b6112e8828285611228565b5f60209050601f831160018114611319575f8415611307578287015190505b6113118582611296565b865550611378565b601f1984166113278661111a565b5f5b8281101561134e57848901518255600182019150602085019450602081019050611329565b8683101561136b5784890151611367601f89168261127a565b8355505b6001600288020188555050505b505050505050565b828183375f83830152505050565b5f6113998385610bc3565b93506113a6838584611380565b6113af83610be1565b840190509392505050565b5f6020820190508181035f8301526113d381848661138e565b90509392505050565b7f537461666620494420646f6573206e6f742065786973740000000000000000005f82015250565b5f611410601783610bc3565b915061141b826113dc565b602082019050919050565b5f6020820190508181035f83015261143d81611404565b9050919050565b5f82905092915050565b6114588383611444565b67ffffffffffffffff811115611471576114706110ed565b5b61147b8254611055565b611486828285611228565b5f601f8311600181146114b3575f84156114a1578287013590505b6114ab8582611296565b865550611512565b601f1984166114c18661111a565b5f5b828110156114e8578489013582556001820191506020850194506020810190506114c3565b868310156115055784890135611501601f89168261127a565b8355505b6001600288020188555050505b50505050505050565b5f60408201905061152e5f830185610b66565b61153b6020830184610b66565b939250505056fea26469706673582212204c3a9cf9a1a094c6895b47cef0184be6ae769593d59e98705db7e36b1d5a7ad864736f6c634300081e0033",
					"opcodes": "PUSH1 0x80 PUSH1 0x40 MSTORE PUSH1 0x1 PUSH1 0x3 SSTORE CALLVALUE DUP1 ISZERO PUSH2 0x14 JUMPI PUSH0 PUSH0 REVERT JUMPDEST POP PUSH1 0x40 MLOAD PUSH2 0x1689 CODESIZE SUB DUP1 PUSH2 0x1689 DUP4 CODECOPY DUP2 DUP2 ADD PUSH1 0x40 MSTORE DUP2 ADD SWAP1 PUSH2 0x36 SWAP2 SWAP1 PUSH2 0xD9 JUMP JUMPDEST DUP1 PUSH0 PUSH0 PUSH2 0x100 EXP DUP2 SLOAD DUP2 PUSH20 0xFFFFFFFFFFFFFFFFFFFFFFFFFFFFFFFFFFFFFFFF MUL NOT AND SWAP1 DUP4 PUSH20 0xFFFFFFFFFFFFFFFFFFFFFFFFFFFFFFFFFFFFFFFF AND MUL OR SWAP1 SSTORE POP POP PUSH2 0x104 JUMP JUMPDEST PUSH0 PUSH0 REVERT JUMPDEST PUSH0 PUSH20 0xFFFFFFFFFFFFFFFFFFFFFFFFFFFFFFFFFFFFFFFF DUP3 AND SWAP1 POP SWAP2 SWAP1 POP JUMP JUMPDEST PUSH0 PUSH2 0xA8 DUP3 PUSH2 0x7F JUMP JUMPDEST SWAP1 POP SWAP2 SWAP1 POP JUMP JUMPDEST PUSH2 0xB8 DUP2 PUSH2 0x9E JUMP JUMPDEST DUP2 EQ PUSH2 0xC2 JUMPI PUSH0 PUSH0 REVERT JUMPDEST POP JUMP JUMPDEST PUSH0 DUP2 MLOAD SWAP1 POP PUSH2 0xD3 DUP2 PUSH2 0xAF JUMP JUMPDEST SWAP3 SWAP2 POP POP JUMP JUMPDEST PUSH0 PUSH1 0x20 DUP3 DUP5 SUB SLT ISZERO PUSH2 0xEE JUMPI PUSH2 0xED PUSH2 0x7B JUMP JUMPDEST JUMPDEST PUSH0 PUSH2 0xFB DUP5 DUP3 DUP6 ADD PUSH2 0xC5 JUMP JUMPDEST SWAP2 POP POP SWAP3 SWAP2 POP POP JUMP JUMPDEST PUSH2 0x1578 DUP1 PUSH2 0x111 PUSH0 CODECOPY PUSH0 RETURN INVALID PUSH1 0x80 PUSH1 0x40 MSTORE CALLVALUE DUP1 ISZERO PUSH2 0xF JUMPI PUSH0 PUSH0 REVERT JUMPDEST POP PUSH1 0x4 CALLDATASIZE LT PUSH2 0x91 JUMPI PUSH0 CALLDATALOAD PUSH1 0xE0 SHR DUP1 PUSH4 0xB3CE9DEA GT PUSH2 0x64 JUMPI DUP1 PUSH4 0xB3CE9DEA EQ PUSH2 0x134 JUMPI DUP1 PUSH4 0xCBE8EAAD EQ PUSH2 0x150 JUMPI DUP1 PUSH4 0xF4DEF44B EQ PUSH2 0x180 JUMPI DUP1 PUSH4 0xF9B6117F EQ PUSH2 0x1B0 JUMPI DUP1 PUSH4 0xFDFF9AAB EQ PUSH2 0x1CE JUMPI PUSH2 0x91 JUMP JUMPDEST DUP1 PUSH4 0x2E026BEF EQ PUSH2 0x95 JUMPI DUP1 PUSH4 0x3FBC17F2 EQ PUSH2 0xC5 JUMPI DUP1 PUSH4 0x498D4707 EQ PUSH2 0xE3 JUMPI DUP1 PUSH4 0x9121F4EB EQ PUSH2 0x118 JUMPI JUMPDEST PUSH0 PUSH0 REVERT JUMPDEST PUSH2 0xAF PUSH1 0x4 DUP1 CALLDATASIZE SUB DUP2 ADD SWAP1 PUSH2 0xAA SWAP2 SWAP1 PUSH2 0xB28 JUMP JUMPDEST PUSH2 0x1EA JUMP JUMPDEST PUSH1 0x40 MLOAD PUSH2 0xBC SWAP2 SWAP1 PUSH2 0xB75 JUMP JUMPDEST PUSH1 0x40 MLOAD DUP1 SWAP2 SUB SWAP1 RETURN JUMPDEST PUSH2 0xCD PUSH2 0x215 JUMP JUMPDEST PUSH1 0x40 MLOAD PUSH2 0xDA SWAP2 SWAP1 PUSH2 0xB75 JUMP JUMPDEST PUSH1 0x40 MLOAD DUP1 SWAP2 SUB SWAP1 RETURN JUMPDEST PUSH2 0xFD PUSH1 0x4 DUP1 CALLDATASIZE SUB DUP2 ADD SWAP1 PUSH2 0xF8 SWAP2 SWAP1 PUSH2 0xB8E JUMP JUMPDEST PUSH2 0x21B JUMP JUMPDEST PUSH1 0x40 MLOAD PUSH2 0x10F SWAP7 SWAP6 SWAP5 SWAP4 SWAP3 SWAP2 SWAP1 PUSH2 0xC29 JUMP JUMPDEST PUSH1 0x40 MLOAD DUP1 SWAP2 SUB SWAP1 RETURN JUMPDEST PUSH2 0x132 PUSH1 0x4 DUP1 CALLDATASIZE SUB DUP2 ADD SWAP1 PUSH2 0x12D SWAP2 SWAP1 PUSH2 0xCFE JUMP JUMPDEST PUSH2 0x3E5 JUMP JUMPDEST STOP JUMPDEST PUSH2 0x14E PUSH1 0x4 DUP1 CALLDATASIZE SUB DUP2 ADD SWAP1 PUSH2 0x149 SWAP2 SWAP1 PUSH2 0xCFE JUMP JUMPDEST PUSH2 0x5E5 JUMP JUMPDEST STOP JUMPDEST PUSH2 0x16A PUSH1 0x4 DUP1 CALLDATASIZE SUB DUP2 ADD SWAP1 PUSH2 0x165 SWAP2 SWAP1 PUSH2 0xB8E JUMP JUMPDEST PUSH2 0x6E9 JUMP JUMPDEST PUSH1 0x40 MLOAD PUSH2 0x177 SWAP2 SWAP1 PUSH2 0xE79 JUMP JUMPDEST PUSH1 0x40 MLOAD DUP1 SWAP2 SUB SWAP1 RETURN JUMPDEST PUSH2 0x19A PUSH1 0x4 DUP1 CALLDATASIZE SUB DUP2 ADD SWAP1 PUSH2 0x195 SWAP2 SWAP1 PUSH2 0xB8E JUMP JUMPDEST PUSH2 0x750 JUMP JUMPDEST PUSH1 0x40 MLOAD PUSH2 0x1A7 SWAP2 SWAP1 PUSH2 0xF75 JUMP JUMPDEST PUSH1 0x40 MLOAD DUP1 SWAP2 SUB SWAP1 RETURN JUMPDEST PUSH2 0x1B8 PUSH2 0x948 JUMP JUMPDEST PUSH1 0x40 MLOAD PUSH2 0x1C5 SWAP2 SWAP1 PUSH2 0x100F JUMP JUMPDEST PUSH1 0x40 MLOAD DUP1 SWAP2 SUB SWAP1 RETURN JUMPDEST PUSH2 0x1E8 PUSH1 0x4 DUP1 CALLDATASIZE SUB DUP2 ADD SWAP1 PUSH2 0x1E3 SWAP2 SWAP1 PUSH2 0xB28 JUMP JUMPDEST PUSH2 0x96C JUMP JUMPDEST STOP JUMPDEST PUSH1 0x2 PUSH1 0x20 MSTORE DUP2 PUSH0 MSTORE PUSH1 0x40 PUSH0 KECCAK256 DUP2 DUP2 SLOAD DUP2 LT PUSH2 0x203 JUMPI PUSH0 DUP1 REVERT JUMPDEST SWAP1 PUSH0 MSTORE PUSH1 0x20 PUSH0 KECCAK256 ADD PUSH0 SWAP2 POP SWAP2 POP POP SLOAD DUP2 JUMP JUMPDEST PUSH1 0x3 SLOAD DUP2 JUMP JUMPDEST PUSH1 0x1 PUSH1 0x20 MSTORE DUP1 PUSH0 MSTORE PUSH1 0x40 PUSH0 KECCAK256 PUSH0 SWAP2 POP SWAP1 POP DUP1 PUSH0 ADD SLOAD SWAP1 DUP1 PUSH1 0x1 ADD DUP1 SLOAD PUSH2 0x240 SWAP1 PUSH2 0x1055 JUMP JUMPDEST DUP1 PUSH1 0x1F ADD PUSH1 0x20 DUP1 SWAP2 DIV MUL PUSH1 0x20 ADD PUSH1 0x40 MLOAD SWAP1 DUP2 ADD PUSH1 0x40 MSTORE DUP1 SWAP3 SWAP2 SWAP1 DUP2 DUP2 MSTORE PUSH1 0x20 ADD DUP3 DUP1 SLOAD PUSH2 0x26C SWAP1 PUSH2 0x1055 JUMP JUMPDEST DUP1 ISZERO PUSH2 0x2B7 JUMPI DUP1 PUSH1 0x1F LT PUSH2 0x28E JUMPI PUSH2 0x100 DUP1 DUP4 SLOAD DIV MUL DUP4 MSTORE SWAP2 PUSH1 0x20 ADD SWAP2 PUSH2 0x2B7 JUMP JUMPDEST DUP3 ADD SWAP2 SWAP1 PUSH0 MSTORE PUSH1 0x20 PUSH0 KECCAK256 SWAP1 JUMPDEST DUP2 SLOAD DUP2 MSTORE SWAP1 PUSH1 0x1 ADD SWAP1 PUSH1 0x20 ADD DUP1 DUP4 GT PUSH2 0x29A JUMPI DUP3 SWAP1 SUB PUSH1 0x1F AND DUP3 ADD SWAP2 JUMPDEST POP POP POP POP POP SWAP1 DUP1 PUSH1 0x2 ADD DUP1 SLOAD PUSH2 0x2CC SWAP1 PUSH2 0x1055 JUMP JUMPDEST DUP1 PUSH1 0x1F ADD PUSH1 0x20 DUP1 SWAP2 DIV MUL PUSH1 0x20 ADD PUSH1 0x40 MLOAD SWAP1 DUP2 ADD PUSH1 0x40 MSTORE DUP1 SWAP3 SWAP2 SWAP1 DUP2 DUP2 MSTORE PUSH1 0x20 ADD DUP3 DUP1 SLOAD PUSH2 0x2F8 SWAP1 PUSH2 0x1055 JUMP JUMPDEST DUP1 ISZERO PUSH2 0x343 JUMPI DUP1 PUSH1 0x1F LT PUSH2 0x31A JUMPI PUSH2 0x100 DUP1 DUP4 SLOAD DIV MUL DUP4 MSTORE SWAP2 PUSH1 0x20 ADD SWAP2 PUSH2 0x343 JUMP JUMPDEST DUP3 ADD SWAP2 SWAP1 PUSH0 MSTORE PUSH1 0x20 PUSH0 KECCAK256 SWAP1 JUMPDEST DUP2 SLOAD DUP2 MSTORE SWAP1 PUSH1 0x1 ADD SWAP1 PUSH1 0x20 ADD DUP1 DUP4 GT PUSH2 0x326 JUMPI DUP3 SWAP1 SUB PUSH1 0x1F AND DUP3 ADD SWAP2 JUMPDEST POP POP POP POP POP SWAP1 DUP1 PUSH1 0x3 ADD DUP1 SLOAD PUSH2 0x358 SWAP1 PUSH2 0x1055 JUMP JUMPDEST DUP1 PUSH1 0x1F ADD PUSH1 0x20 DUP1 SWAP2 DIV MUL PUSH1 0x20 ADD PUSH1 0x40 MLOAD SWAP1 DUP2 ADD PUSH1 0x40 MSTORE DUP1 SWAP3 SWAP2 SWAP1 DUP2 DUP2 MSTORE PUSH1 0x20 ADD DUP3 DUP1 SLOAD PUSH2 0x384 SWAP1 PUSH2 0x1055 JUMP JUMPDEST DUP1 ISZERO PUSH2 0x3CF JUMPI DUP1 PUSH1 0x1F LT PUSH2 0x3A6 JUMPI PUSH2 0x100 DUP1 DUP4 SLOAD DIV MUL DUP4 MSTORE SWAP2 PUSH1 0x20 ADD SWAP2 PUSH2 0x3CF JUMP JUMPDEST DUP3 ADD SWAP2 SWAP1 PUSH0 MSTORE PUSH1 0x20 PUSH0 KECCAK256 SWAP1 JUMPDEST DUP2 SLOAD DUP2 MSTORE SWAP1 PUSH1 0x1 ADD SWAP1 PUSH1 0x20 ADD DUP1 DUP4 GT PUSH2 0x3B2 JUMPI DUP3 SWAP1 SUB PUSH1 0x1F AND DUP3 ADD SWAP2 JUMPDEST POP POP POP POP POP SWAP1 DUP1 PUSH1 0x4 ADD SLOAD SWAP1 DUP1 PUSH1 0x5 ADD SLOAD SWAP1 POP DUP7 JUMP JUMPDEST PUSH0 PUSH1 0x1 PUSH0 DUP10 DUP2 MSTORE PUSH1 0x20 ADD SWAP1 DUP2 MSTORE PUSH1 0x20 ADD PUSH0 KECCAK256 PUSH0 ADD SLOAD EQ PUSH2 0x43A JUMPI PUSH1 0x40 MLOAD PUSH32 0x8C379A000000000000000000000000000000000000000000000000000000000 DUP2 MSTORE PUSH1 0x4 ADD PUSH2 0x431 SWAP1 PUSH2 0x10CF JUMP JUMPDEST PUSH1 0x40 MLOAD DUP1 SWAP2 SUB SWAP1 REVERT JUMPDEST PUSH1 0x40 MLOAD DUP1 PUSH1 0xC0 ADD PUSH1 0x40 MSTORE DUP1 DUP9 DUP2 MSTORE PUSH1 0x20 ADD DUP8 DUP8 DUP1 DUP1 PUSH1 0x1F ADD PUSH1 0x20 DUP1 SWAP2 DIV MUL PUSH1 0x20 ADD PUSH1 0x40 MLOAD SWAP1 DUP2 ADD PUSH1 0x40 MSTORE DUP1 SWAP4 SWAP3 SWAP2 SWAP1 DUP2 DUP2 MSTORE PUSH1 0x20 ADD DUP4 DUP4 DUP1 DUP3 DUP5 CALLDATACOPY PUSH0 DUP2 DUP5 ADD MSTORE PUSH1 0x1F NOT PUSH1 0x1F DUP3 ADD AND SWAP1 POP DUP1 DUP4 ADD SWAP3 POP POP POP POP POP POP POP DUP2 MSTORE PUSH1 0x20 ADD DUP6 DUP6 DUP1 DUP1 PUSH1 0x1F ADD PUSH1 0x20 DUP1 SWAP2 DIV MUL PUSH1 0x20 ADD PUSH1 0x40 MLOAD SWAP1 DUP2 ADD PUSH1 0x40 MSTORE DUP1 SWAP4 SWAP3 SWAP2 SWAP1 DUP2 DUP2 MSTORE PUSH1 0x20 ADD DUP4 DUP4 DUP1 DUP3 DUP5 CALLDATACOPY PUSH0 DUP2 DUP5 ADD MSTORE PUSH1 0x1F NOT PUSH1 0x1F DUP3 ADD AND SWAP1 POP DUP1 DUP4 ADD SWAP3 POP POP POP POP POP POP POP DUP2 MSTORE PUSH1 0x20 ADD DUP4 DUP4 DUP1 DUP1 PUSH1 0x1F ADD PUSH1 0x20 DUP1 SWAP2 DIV MUL PUSH1 0x20 ADD PUSH1 0x40 MLOAD SWAP1 DUP2 ADD PUSH1 0x40 MSTORE DUP1 SWAP4 SWAP3 SWAP2 SWAP1 DUP2 DUP2 MSTORE PUSH1 0x20 ADD DUP4 DUP4 DUP1 DUP3 DUP5 CALLDATACOPY PUSH0 DUP2 DUP5 ADD MSTORE PUSH1 0x1F NOT PUSH1 0x1F DUP3 ADD AND SWAP1 POP DUP1 DUP4 ADD SWAP3 POP POP POP POP POP POP POP DUP2 MSTORE PUSH1 0x20 ADD PUSH0 DUP2 MSTORE PUSH1 0x20 ADD PUSH0 DUP2 MSTORE POP PUSH1 0x1 PUSH0 DUP10 DUP2 MSTORE PUSH1 0x20 ADD SWAP1 DUP2 MSTORE PUSH1 0x20 ADD PUSH0 KECCAK256 PUSH0 DUP3 ADD MLOAD DUP2 PUSH0 ADD SSTORE PUSH1 0x20 DUP3 ADD MLOAD DUP2 PUSH1 0x1 ADD SWAP1 DUP2 PUSH2 0x55E SWAP2 SWAP1 PUSH2 0x12B1 JUMP JUMPDEST POP PUSH1 0x40 DUP3 ADD MLOAD DUP2 PUSH1 0x2 ADD SWAP1 DUP2 PUSH2 0x574 SWAP2 SWAP1 PUSH2 0x12B1 JUMP JUMPDEST POP PUSH1 0x60 DUP3 ADD MLOAD DUP2 PUSH1 0x3 ADD SWAP1 DUP2 PUSH2 0x58A SWAP2 SWAP1 PUSH2 0x12B1 JUMP JUMPDEST POP PUSH1 0x80 DUP3 ADD MLOAD DUP2 PUSH1 0x4 ADD SSTORE PUSH1 0xA0 DUP3 ADD MLOAD DUP2 PUSH1 0x5 ADD SSTORE SWAP1 POP POP DUP7 PUSH32 0xB9918942A2A29D1164EA11D03222C9A01A970E1D37797E67A114DD2C6196DAC2 DUP8 DUP8 PUSH1 0x40 MLOAD PUSH2 0x5D4 SWAP3 SWAP2 SWAP1 PUSH2 0x13BA JUMP JUMPDEST PUSH1 0x40 MLOAD DUP1 SWAP2 SUB SWAP1 LOG2 POP POP POP POP POP POP POP JUMP JUMPDEST PUSH0 PUSH1 0x1 PUSH0 DUP10 DUP2 MSTORE PUSH1 0x20 ADD SWAP1 DUP2 MSTORE PUSH1 0x20 ADD PUSH0 KECCAK256 PUSH0 ADD SLOAD SUB PUSH2 0x63A JUMPI PUSH1 0x40 MLOAD PUSH32 0x8C379A000000000000000000000000000000000000000000000000000000000 DUP2 MSTORE PUSH1 0x4 ADD PUSH2 0x631 SWAP1 PUSH2 0x1426 JUMP JUMPDEST PUSH1 0x40 MLOAD DUP1 SWAP2 SUB SWAP1 REVERT JUMPDEST DUP6 DUP6 PUSH1 0x1 PUSH0 DUP11 DUP2 MSTORE PUSH1 0x20 ADD SWAP1 DUP2 MSTORE PUSH1 0x20 ADD PUSH0 KECCAK256 PUSH1 0x1 ADD SWAP2 DUP3 PUSH2 0x65D SWAP3 SWAP2 SWAP1 PUSH2 0x144E JUMP JUMPDEST POP DUP4 DUP4 PUSH1 0x1 PUSH0 DUP11 DUP2 MSTORE PUSH1 0x20 ADD SWAP1 DUP2 MSTORE PUSH1 0x20 ADD PUSH0 KECCAK256 PUSH1 0x2 ADD SWAP2 DUP3 PUSH2 0x681 SWAP3 SWAP2 SWAP1 PUSH2 0x144E JUMP JUMPDEST POP DUP2 DUP2 PUSH1 0x1 PUSH0 DUP11 DUP2 MSTORE PUSH1 0x20 ADD SWAP1 DUP2 MSTORE PUSH1 0x20 ADD PUSH0 KECCAK256 PUSH1 0x3 ADD SWAP2 DUP3 PUSH2 0x6A5 SWAP3 SWAP2 SWAP1 PUSH2 0x144E JUMP JUMPDEST POP DUP7 PUSH32 0x27556B62664053DE7A418476F2C4ABC9B526D3C747991948D328082493D82C0E DUP8 DUP8 PUSH1 0x40 MLOAD PUSH2 0x6D8 SWAP3 SWAP2 SWAP1 PUSH2 0x13BA JUMP JUMPDEST PUSH1 0x40 MLOAD DUP1 SWAP2 SUB SWAP1 LOG2 POP POP POP POP POP POP POP JUMP JUMPDEST PUSH1 0x60 PUSH1 0x2 PUSH0 DUP4 DUP2 MSTORE PUSH1 0x20 ADD SWAP1 DUP2 MSTORE PUSH1 0x20 ADD PUSH0 KECCAK256 DUP1 SLOAD DUP1 PUSH1 0x20 MUL PUSH1 0x20 ADD PUSH1 0x40 MLOAD SWAP1 DUP2 ADD PUSH1 0x40 MSTORE DUP1 SWAP3 SWAP2 SWAP1 DUP2 DUP2 MSTORE PUSH1 0x20 ADD DUP3 DUP1 SLOAD DUP1 ISZERO PUSH2 0x744 JUMPI PUSH1 0x20 MUL DUP3 ADD SWAP2 SWAP1 PUSH0 MSTORE PUSH1 0x20 PUSH0 KECCAK256 SWAP1 JUMPDEST DUP2 SLOAD DUP2 MSTORE PUSH1 0x20 ADD SWAP1 PUSH1 0x1 ADD SWAP1 DUP1 DUP4 GT PUSH2 0x730 JUMPI JUMPDEST POP POP POP POP POP SWAP1 POP SWAP2 SWAP1 POP JUMP JUMPDEST PUSH2 0x758 PUSH2 0xABA JUMP JUMPDEST PUSH1 0x1 PUSH0 DUP4 DUP2 MSTORE PUSH1 0x20 ADD SWAP1 DUP2 MSTORE PUSH1 0x20 ADD PUSH0 KECCAK256 PUSH1 0x40 MLOAD DUP1 PUSH1 0xC0 ADD PUSH1 0x40 MSTORE SWAP1 DUP2 PUSH0 DUP3 ADD SLOAD DUP2 MSTORE PUSH1 0x20 ADD PUSH1 0x1 DUP3 ADD DUP1 SLOAD PUSH2 0x78D SWAP1 PUSH2 0x1055 JUMP JUMPDEST DUP1 PUSH1 0x1F ADD PUSH1 0x20 DUP1 SWAP2 DIV MUL PUSH1 0x20 ADD PUSH1 0x40 MLOAD SWAP1 DUP2 ADD PUSH1 0x40 MSTORE DUP1 SWAP3 SWAP2 SWAP1 DUP2 DUP2 MSTORE PUSH1 0x20 ADD DUP3 DUP1 SLOAD PUSH2 0x7B9 SWAP1 PUSH2 0x1055 JUMP JUMPDEST DUP1 ISZERO PUSH2 0x804 JUMPI DUP1 PUSH1 0x1F LT PUSH2 0x7DB JUMPI PUSH2 0x100 DUP1 DUP4 SLOAD DIV MUL DUP4 MSTORE SWAP2 PUSH1 0x20 ADD SWAP2 PUSH2 0x804 JUMP JUMPDEST DUP3 ADD SWAP2 SWAP1 PUSH0 MSTORE PUSH1 0x20 PUSH0 KECCAK256 SWAP1 JUMPDEST DUP2 SLOAD DUP2 MSTORE SWAP1 PUSH1 0x1 ADD SWAP1 PUSH1 0x20 ADD DUP1 DUP4 GT PUSH2 0x7E7 JUMPI DUP3 SWAP1 SUB PUSH1 0x1F AND DUP3 ADD SWAP2 JUMPDEST POP POP POP POP POP DUP2 MSTORE PUSH1 0x20 ADD PUSH1 0x2 DUP3 ADD DUP1 SLOAD PUSH2 0x81D SWAP1 PUSH2 0x1055 JUMP JUMPDEST DUP1 PUSH1 0x1F ADD PUSH1 0x20 DUP1 SWAP2 DIV MUL PUSH1 0x20 ADD PUSH1 0x40 MLOAD SWAP1 DUP2 ADD PUSH1 0x40 MSTORE DUP1 SWAP3 SWAP2 SWAP1 DUP2 DUP2 MSTORE PUSH1 0x20 ADD DUP3 DUP1 SLOAD PUSH2 0x849 SWAP1 PUSH2 0x1055 JUMP JUMPDEST DUP1 ISZERO PUSH2 0x894 JUMPI DUP1 PUSH1 0x1F LT PUSH2 0x86B JUMPI PUSH2 0x100 DUP1 DUP4 SLOAD DIV MUL DUP4 MSTORE SWAP2 PUSH1 0x20 ADD SWAP2 PUSH2 0x894 JUMP JUMPDEST DUP3 ADD SWAP2 SWAP1 PUSH0 MSTORE PUSH1 0x20 PUSH0 KECCAK256 SWAP1 JUMPDEST DUP2 SLOAD DUP2 MSTORE SWAP1 PUSH1 0x1 ADD SWAP1 PUSH1 0x20 ADD DUP1 DUP4 GT PUSH2 0x877 JUMPI DUP3 SWAP1 SUB PUSH1 0x1F AND DUP3 ADD SWAP2 JUMPDEST POP POP POP POP POP DUP2 MSTORE PUSH1 0x20 ADD PUSH1 0x3 DUP3 ADD DUP1 SLOAD PUSH2 0x8AD SWAP1 PUSH2 0x1055 JUMP JUMPDEST DUP1 PUSH1 0x1F ADD PUSH1 0x20 DUP1 SWAP2 DIV MUL PUSH1 0x20 ADD PUSH1 0x40 MLOAD SWAP1 DUP2 ADD PUSH1 0x40 MSTORE DUP1 SWAP3 SWAP2 SWAP1 DUP2 DUP2 MSTORE PUSH1 0x20 ADD DUP3 DUP1 SLOAD PUSH2 0x8D9 SWAP1 PUSH2 0x1055 JUMP JUMPDEST DUP1 ISZERO PUSH2 0x924 JUMPI DUP1 PUSH1 0x1F LT PUSH2 0x8FB JUMPI PUSH2 0x100 DUP1 DUP4 SLOAD DIV MUL DUP4 MSTORE SWAP2 PUSH1 0x20 ADD SWAP2 PUSH2 0x924 JUMP JUMPDEST DUP3 ADD SWAP2 SWAP1 PUSH0 MSTORE PUSH1 0x20 PUSH0 KECCAK256 SWAP1 JUMPDEST DUP2 SLOAD DUP2 MSTORE SWAP1 PUSH1 0x1 ADD SWAP1 PUSH1 0x20 ADD DUP1 DUP4 GT PUSH2 0x907 JUMPI DUP3 SWAP1 SUB PUSH1 0x1F AND DUP3 ADD SWAP2 JUMPDEST POP POP POP POP POP DUP2 MSTORE PUSH1 0x20 ADD PUSH1 0x4 DUP3 ADD SLOAD DUP2 MSTORE PUSH1 0x20 ADD PUSH1 0x5 DUP3 ADD SLOAD DUP2 MSTORE POP POP SWAP1 POP SWAP2 SWAP1 POP JUMP JUMPDEST PUSH0 PUSH0 SWAP1 SLOAD SWAP1 PUSH2 0x100 EXP SWAP1 DIV PUSH20 0xFFFFFFFFFFFFFFFFFFFFFFFFFFFFFFFFFFFFFFFF AND DUP2 JUMP JUMPDEST PUSH0 PUSH1 0x1 PUSH0 DUP4 DUP2 MSTORE PUSH1 0x20 ADD SWAP1 DUP2 MSTORE PUSH1 0x20 ADD PUSH0 KECCAK256 PUSH0 ADD SLOAD SUB PUSH2 0x9C1 JUMPI PUSH1 0x40 MLOAD PUSH32 0x8C379A000000000000000000000000000000000000000000000000000000000 DUP2 MSTORE PUSH1 0x4 ADD PUSH2 0x9B8 SWAP1 PUSH2 0x1426 JUMP JUMPDEST PUSH1 0x40 MLOAD DUP1 SWAP2 SUB SWAP1 REVERT JUMPDEST PUSH1 0x2 PUSH0 DUP4 DUP2 MSTORE PUSH1 0x20 ADD SWAP1 DUP2 MSTORE PUSH1 0x20 ADD PUSH0 KECCAK256 DUP2 SWAP1 DUP1 PUSH1 0x1 DUP2 SLOAD ADD DUP1 DUP3 SSTORE DUP1 SWAP2 POP POP PUSH1 0x1 SWAP1 SUB SWAP1 PUSH0 MSTORE PUSH1 0x20 PUSH0 KECCAK256 ADD PUSH0 SWAP1 SWAP2 SWAP1 SWAP2 SWAP1 SWAP2 POP SSTORE PUSH0 PUSH0 SWAP1 SLOAD SWAP1 PUSH2 0x100 EXP SWAP1 DIV PUSH20 0xFFFFFFFFFFFFFFFFFFFFFFFFFFFFFFFFFFFFFFFF AND PUSH20 0xFFFFFFFFFFFFFFFFFFFFFFFFFFFFFFFFFFFFFFFF AND PUSH4 0x3F9FB5FD DUP4 DUP4 PUSH1 0x40 MLOAD DUP4 PUSH4 0xFFFFFFFF AND PUSH1 0xE0 SHL DUP2 MSTORE PUSH1 0x4 ADD PUSH2 0xA51 SWAP3 SWAP2 SWAP1 PUSH2 0x151B JUMP JUMPDEST PUSH0 PUSH1 0x40 MLOAD DUP1 DUP4 SUB DUP2 PUSH0 DUP8 DUP1 EXTCODESIZE ISZERO DUP1 ISZERO PUSH2 0xA68 JUMPI PUSH0 PUSH0 REVERT JUMPDEST POP GAS CALL ISZERO DUP1 ISZERO PUSH2 0xA7A JUMPI RETURNDATASIZE PUSH0 PUSH0 RETURNDATACOPY RETURNDATASIZE PUSH0 REVERT JUMPDEST POP POP POP POP DUP1 PUSH32 0x37FE5BA29264C8DEBD409A782C67744BF54751791CCF1197762B9819C10AB610 DUP4 PUSH1 0x40 MLOAD PUSH2 0xAAE SWAP2 SWAP1 PUSH2 0xB75 JUMP JUMPDEST PUSH1 0x40 MLOAD DUP1 SWAP2 SUB SWAP1 LOG2 POP POP JUMP JUMPDEST PUSH1 0x40 MLOAD DUP1 PUSH1 0xC0 ADD PUSH1 0x40 MSTORE DUP1 PUSH0 DUP2 MSTORE PUSH1 0x20 ADD PUSH1 0x60 DUP2 MSTORE PUSH1 0x20 ADD PUSH1 0x60 DUP2 MSTORE PUSH1 0x20 ADD PUSH1 0x60 DUP2 MSTORE PUSH1 0x20 ADD PUSH0 DUP2 MSTORE PUSH1 0x20 ADD PUSH0 DUP2 MSTORE POP SWAP1 JUMP JUMPDEST PUSH0 PUSH0 REVERT JUMPDEST PUSH0 PUSH0 REVERT JUMPDEST PUSH0 DUP2 SWAP1 POP SWAP2 SWAP1 POP JUMP JUMPDEST PUSH2 0xB07 DUP2 PUSH2 0xAF5 JUMP JUMPDEST DUP2 EQ PUSH2 0xB11 JUMPI PUSH0 PUSH0 REVERT JUMPDEST POP JUMP JUMPDEST PUSH0 DUP2 CALLDATALOAD SWAP1 POP PUSH2 0xB22 DUP2 PUSH2 0xAFE JUMP JUMPDEST SWAP3 SWAP2 POP POP JUMP JUMPDEST PUSH0 PUSH0 PUSH1 0x40 DUP4 DUP6 SUB SLT ISZERO PUSH2 0xB3E JUMPI PUSH2 0xB3D PUSH2 0xAED JUMP JUMPDEST JUMPDEST PUSH0 PUSH2 0xB4B DUP6 DUP3 DUP7 ADD PUSH2 0xB14 JUMP JUMPDEST SWAP3 POP POP PUSH1 0x20 PUSH2 0xB5C DUP6 DUP3 DUP7 ADD PUSH2 0xB14 JUMP JUMPDEST SWAP2 POP POP SWAP3 POP SWAP3 SWAP1 POP JUMP JUMPDEST PUSH2 0xB6F DUP2 PUSH2 0xAF5 JUMP JUMPDEST DUP3 MSTORE POP POP JUMP JUMPDEST PUSH0 PUSH1 0x20 DUP3 ADD SWAP1 POP PUSH2 0xB88 PUSH0 DUP4 ADD DUP5 PUSH2 0xB66 JUMP JUMPDEST SWAP3 SWAP2 POP POP JUMP JUMPDEST PUSH0 PUSH1 0x20 DUP3 DUP5 SUB SLT ISZERO PUSH2 0xBA3 JUMPI PUSH2 0xBA2 PUSH2 0xAED JUMP JUMPDEST JUMPDEST PUSH0 PUSH2 0xBB0 DUP5 DUP3 DUP6 ADD PUSH2 0xB14 JUMP JUMPDEST SWAP2 POP POP SWAP3 SWAP2 POP POP JUMP JUMPDEST PUSH0 DUP2 MLOAD SWAP1 POP SWAP2 SWAP1 POP JUMP JUMPDEST PUSH0 DUP3 DUP3 MSTORE PUSH1 0x20 DUP3 ADD SWAP1 POP SWAP3 SWAP2 POP POP JUMP JUMPDEST DUP3 DUP2 DUP4 MCOPY PUSH0 DUP4 DUP4 ADD MSTORE POP POP POP JUMP JUMPDEST PUSH0 PUSH1 0x1F NOT PUSH1 0x1F DUP4 ADD AND SWAP1 POP SWAP2 SWAP1 POP JUMP JUMPDEST PUSH0 PUSH2 0xBFB DUP3 PUSH2 0xBB9 JUMP JUMPDEST PUSH2 0xC05 DUP2 DUP6 PUSH2 0xBC3 JUMP JUMPDEST SWAP4 POP PUSH2 0xC15 DUP2 DUP6 PUSH1 0x20 DUP7 ADD PUSH2 0xBD3 JUMP JUMPDEST PUSH2 0xC1E DUP2 PUSH2 0xBE1 JUMP JUMPDEST DUP5 ADD SWAP2 POP POP SWAP3 SWAP2 POP POP JUMP JUMPDEST PUSH0 PUSH1 0xC0 DUP3 ADD SWAP1 POP PUSH2 0xC3C PUSH0 DUP4 ADD DUP10 PUSH2 0xB66 JUMP JUMPDEST DUP2 DUP2 SUB PUSH1 0x20 DUP4 ADD MSTORE PUSH2 0xC4E DUP2 DUP9 PUSH2 0xBF1 JUMP JUMPDEST SWAP1 POP DUP2 DUP2 SUB PUSH1 0x40 DUP4 ADD MSTORE PUSH2 0xC62 DUP2 DUP8 PUSH2 0xBF1 JUMP JUMPDEST SWAP1 POP DUP2 DUP2 SUB PUSH1 0x60 DUP4 ADD MSTORE PUSH2 0xC76 DUP2 DUP7 PUSH2 0xBF1 JUMP JUMPDEST SWAP1 POP PUSH2 0xC85 PUSH1 0x80 DUP4 ADD DUP6 PUSH2 0xB66 JUMP JUMPDEST PUSH2 0xC92 PUSH1 0xA0 DUP4 ADD DUP5 PUSH2 0xB66 JUMP JUMPDEST SWAP8 SWAP7 POP POP POP POP POP POP POP JUMP JUMPDEST PUSH0 PUSH0 REVERT JUMPDEST PUSH0 PUSH0 REVERT JUMPDEST PUSH0 PUSH0 REVERT JUMPDEST PUSH0 PUSH0 DUP4 PUSH1 0x1F DUP5 ADD SLT PUSH2 0xCBE JUMPI PUSH2 0xCBD PUSH2 0xC9D JUMP JUMPDEST JUMPDEST DUP3 CALLDATALOAD SWAP1 POP PUSH8 0xFFFFFFFFFFFFFFFF DUP2 GT ISZERO PUSH2 0xCDB JUMPI PUSH2 0xCDA PUSH2 0xCA1 JUMP JUMPDEST JUMPDEST PUSH1 0x20 DUP4 ADD SWAP2 POP DUP4 PUSH1 0x1 DUP3 MUL DUP4 ADD GT ISZERO PUSH2 0xCF7 JUMPI PUSH2 0xCF6 PUSH2 0xCA5 JUMP JUMPDEST JUMPDEST SWAP3 POP SWAP3 SWAP1 POP JUMP JUMPDEST PUSH0 PUSH0 PUSH0 PUSH0 PUSH0 PUSH0 PUSH0 PUSH1 0x80 DUP9 DUP11 SUB SLT ISZERO PUSH2 0xD19 JUMPI PUSH2 0xD18 PUSH2 0xAED JUMP JUMPDEST JUMPDEST PUSH0 PUSH2 0xD26 DUP11 DUP3 DUP12 ADD PUSH2 0xB14 JUMP JUMPDEST SWAP8 POP POP PUSH1 0x20 DUP9 ADD CALLDATALOAD PUSH8 0xFFFFFFFFFFFFFFFF DUP2 GT ISZERO PUSH2 0xD47 JUMPI PUSH2 0xD46 PUSH2 0xAF1 JUMP JUMPDEST JUMPDEST PUSH2 0xD53 DUP11 DUP3 DUP12 ADD PUSH2 0xCA9 JUMP JUMPDEST SWAP7 POP SWAP7 POP POP PUSH1 0x40 DUP9 ADD CALLDATALOAD PUSH8 0xFFFFFFFFFFFFFFFF DUP2 GT ISZERO PUSH2 0xD76 JUMPI PUSH2 0xD75 PUSH2 0xAF1 JUMP JUMPDEST JUMPDEST PUSH2 0xD82 DUP11 DUP3 DUP12 ADD PUSH2 0xCA9 JUMP JUMPDEST SWAP5 POP SWAP5 POP POP PUSH1 0x60 DUP9 ADD CALLDATALOAD PUSH8 0xFFFFFFFFFFFFFFFF DUP2 GT ISZERO PUSH2 0xDA5 JUMPI PUSH2 0xDA4 PUSH2 0xAF1 JUMP JUMPDEST JUMPDEST PUSH2 0xDB1 DUP11 DUP3 DUP12 ADD PUSH2 0xCA9 JUMP JUMPDEST SWAP3 POP SWAP3 POP POP SWAP3 SWAP6 SWAP9 SWAP2 SWAP5 SWAP8 POP SWAP3 SWAP6 POP JUMP JUMPDEST PUSH0 DUP2 MLOAD SWAP1 POP SWAP2 SWAP1 POP JUMP JUMPDEST PUSH0 DUP3 DUP3 MSTORE PUSH1 0x20 DUP3 ADD SWAP1 POP SWAP3 SWAP2 POP POP JUMP JUMPDEST PUSH0 DUP2 SWAP1 POP PUSH1 0x20 DUP3 ADD SWAP1 POP SWAP2 SWAP1 POP JUMP JUMPDEST PUSH2 0xDF4 DUP2 PUSH2 0xAF5 JUMP JUMPDEST DUP3 MSTORE POP POP JUMP JUMPDEST PUSH0 PUSH2 0xE05 DUP4 DUP4 PUSH2 0xDEB JUMP JUMPDEST PUSH1 0x20 DUP4 ADD SWAP1 POP SWAP3 SWAP2 POP POP JUMP JUMPDEST PUSH0 PUSH1 0x20 DUP3 ADD SWAP1 POP SWAP2 SWAP1 POP JUMP JUMPDEST PUSH0 PUSH2 0xE27 DUP3 PUSH2 0xDC2 JUMP JUMPDEST PUSH2 0xE31 DUP2 DUP6 PUSH2 0xDCC JUMP JUMPDEST SWAP4 POP PUSH2 0xE3C DUP4 PUSH2 0xDDC JUMP JUMPDEST DUP1 PUSH0 JUMPDEST DUP4 DUP2 LT ISZERO PUSH2 0xE6C JUMPI DUP2 MLOAD PUSH2 0xE53 DUP9 DUP3 PUSH2 0xDFA JUMP JUMPDEST SWAP8 POP PUSH2 0xE5E DUP4 PUSH2 0xE11 JUMP JUMPDEST SWAP3 POP POP PUSH1 0x1 DUP2 ADD SWAP1 POP PUSH2 0xE3F JUMP JUMPDEST POP DUP6 SWAP4 POP POP POP POP SWAP3 SWAP2 POP POP JUMP JUMPDEST PUSH0 PUSH1 0x20 DUP3 ADD SWAP1 POP DUP2 DUP2 SUB PUSH0 DUP4 ADD MSTORE PUSH2 0xE91 DUP2 DUP5 PUSH2 0xE1D JUMP JUMPDEST SWAP1 POP SWAP3 SWAP2 POP POP JUMP JUMPDEST PUSH0 DUP3 DUP3 MSTORE PUSH1 0x20 DUP3 ADD SWAP1 POP SWAP3 SWAP2 POP POP JUMP JUMPDEST PUSH0 PUSH2 0xEB3 DUP3 PUSH2 0xBB9 JUMP JUMPDEST PUSH2 0xEBD DUP2 DUP6 PUSH2 0xE99 JUMP JUMPDEST SWAP4 POP PUSH2 0xECD DUP2 DUP6 PUSH1 0x20 DUP7 ADD PUSH2 0xBD3 JUMP JUMPDEST PUSH2 0xED6 DUP2 PUSH2 0xBE1 JUMP JUMPDEST DUP5 ADD SWAP2 POP POP SWAP3 SWAP2 POP POP JUMP JUMPDEST PUSH0 PUSH1 0xC0 DUP4 ADD PUSH0 DUP4 ADD MLOAD PUSH2 0xEF6 PUSH0 DUP7 ADD DUP3 PUSH2 0xDEB JUMP JUMPDEST POP PUSH1 0x20 DUP4 ADD MLOAD DUP5 DUP3 SUB PUSH1 0x20 DUP7 ADD MSTORE PUSH2 0xF0E DUP3 DUP3 PUSH2 0xEA9 JUMP JUMPDEST SWAP2 POP POP PUSH1 0x40 DUP4 ADD MLOAD DUP5 DUP3 SUB PUSH1 0x40 DUP7 ADD MSTORE PUSH2 0xF28 DUP3 DUP3 PUSH2 0xEA9 JUMP JUMPDEST SWAP2 POP POP PUSH1 0x60 DUP4 ADD MLOAD DUP5 DUP3 SUB PUSH1 0x60 DUP7 ADD MSTORE PUSH2 0xF42 DUP3 DUP3 PUSH2 0xEA9 JUMP JUMPDEST SWAP2 POP POP PUSH1 0x80 DUP4 ADD MLOAD PUSH2 0xF57 PUSH1 0x80 DUP7 ADD DUP3 PUSH2 0xDEB JUMP JUMPDEST POP PUSH1 0xA0 DUP4 ADD MLOAD PUSH2 0xF6A PUSH1 0xA0 DUP7 ADD DUP3 PUSH2 0xDEB JUMP JUMPDEST POP DUP1 SWAP2 POP POP SWAP3 SWAP2 POP POP JUMP JUMPDEST PUSH0 PUSH1 0x20 DUP3 ADD SWAP1 POP DUP2 DUP2 SUB PUSH0 DUP4 ADD MSTORE PUSH2 0xF8D DUP2 DUP5 PUSH2 0xEE1 JUMP JUMPDEST SWAP1 POP SWAP3 SWAP2 POP POP JUMP JUMPDEST PUSH0 PUSH20 0xFFFFFFFFFFFFFFFFFFFFFFFFFFFFFFFFFFFFFFFF DUP3 AND SWAP1 POP SWAP2 SWAP1 POP JUMP JUMPDEST PUSH0 DUP2 SWAP1 POP SWAP2 SWAP1 POP JUMP JUMPDEST PUSH0 PUSH2 0xFD7 PUSH2 0xFD2 PUSH2 0xFCD DUP5 PUSH2 0xF95 JUMP JUMPDEST PUSH2 0xFB4 JUMP JUMPDEST PUSH2 0xF95 JUMP JUMPDEST SWAP1 POP SWAP2 SWAP1 POP JUMP JUMPDEST PUSH0 PUSH2 0xFE8 DUP3 PUSH2 0xFBD JUMP JUMPDEST SWAP1 POP SWAP2 SWAP1 POP JUMP JUMPDEST PUSH0 PUSH2 0xFF9 DUP3 PUSH2 0xFDE JUMP JUMPDEST SWAP1 POP SWAP2 SWAP1 POP JUMP JUMPDEST PUSH2 0x1009 DUP2 PUSH2 0xFEF JUMP JUMPDEST DUP3 MSTORE POP POP JUMP JUMPDEST PUSH0 PUSH1 0x20 DUP3 ADD SWAP1 POP PUSH2 0x1022 PUSH0 DUP4 ADD DUP5 PUSH2 0x1000 JUMP JUMPDEST SWAP3 SWAP2 POP POP JUMP JUMPDEST PUSH32 0x4E487B7100000000000000000000000000000000000000000000000000000000 PUSH0 MSTORE PUSH1 0x22 PUSH1 0x4 MSTORE PUSH1 0x24 PUSH0 REVERT JUMPDEST PUSH0 PUSH1 0x2 DUP3 DIV SWAP1 POP PUSH1 0x1 DUP3 AND DUP1 PUSH2 0x106C JUMPI PUSH1 0x7F DUP3 AND SWAP2 POP JUMPDEST PUSH1 0x20 DUP3 LT DUP2 SUB PUSH2 0x107F JUMPI PUSH2 0x107E PUSH2 0x1028 JUMP JUMPDEST JUMPDEST POP SWAP2 SWAP1 POP JUMP JUMPDEST PUSH32 0x537461666620494420616C726561647920657869737473000000000000000000 PUSH0 DUP3 ADD MSTORE POP JUMP JUMPDEST PUSH0 PUSH2 0x10B9 PUSH1 0x17 DUP4 PUSH2 0xBC3 JUMP JUMPDEST SWAP2 POP PUSH2 0x10C4 DUP3 PUSH2 0x1085 JUMP JUMPDEST PUSH1 0x20 DUP3 ADD SWAP1 POP SWAP2 SWAP1 POP JUMP JUMPDEST PUSH0 PUSH1 0x20 DUP3 ADD SWAP1 POP DUP2 DUP2 SUB PUSH0 DUP4 ADD MSTORE PUSH2 0x10E6 DUP2 PUSH2 0x10AD JUMP JUMPDEST SWAP1 POP SWAP2 SWAP1 POP JUMP JUMPDEST PUSH32 0x4E487B7100000000000000000000000000000000000000000000000000000000 PUSH0 MSTORE PUSH1 0x41 PUSH1 0x4 MSTORE PUSH1 0x24 PUSH0 REVERT JUMPDEST PUSH0 DUP2 SWAP1 POP DUP2 PUSH0 MSTORE PUSH1 0x20 PUSH0 KECCAK256 SWAP1 POP SWAP2 SWAP1 POP JUMP JUMPDEST PUSH0 PUSH1 0x20 PUSH1 0x1F DUP4 ADD DIV SWAP1 POP SWAP2 SWAP1 POP JUMP JUMPDEST PUSH0 DUP3 DUP3 SHL SWAP1 POP SWAP3 SWAP2 POP POP JUMP JUMPDEST PUSH0 PUSH1 0x8 DUP4 MUL PUSH2 0x1176 PUSH32 0xFFFFFFFFFFFFFFFFFFFFFFFFFFFFFFFFFFFFFFFFFFFFFFFFFFFFFFFFFFFFFFFF DUP3 PUSH2 0x113B JUMP JUMPDEST PUSH2 0x1180 DUP7 DUP4 PUSH2 0x113B JUMP JUMPDEST SWAP6 POP DUP1 NOT DUP5 AND SWAP4 POP DUP1 DUP7 AND DUP5 OR SWAP3 POP POP POP SWAP4 SWAP3 POP POP POP JUMP JUMPDEST PUSH0 PUSH2 0x11B2 PUSH2 0x11AD PUSH2 0x11A8 DUP5 PUSH2 0xAF5 JUMP JUMPDEST PUSH2 0xFB4 JUMP JUMPDEST PUSH2 0xAF5 JUMP JUMPDEST SWAP1 POP SWAP2 SWAP1 POP JUMP JUMPDEST PUSH0 DUP2 SWAP1 POP SWAP2 SWAP1 POP JUMP JUMPDEST PUSH2 0x11CB DUP4 PUSH2 0x1198 JUMP JUMPDEST PUSH2 0x11DF PUSH2 0x11D7 DUP3 PUSH2 0x11B9 JUMP JUMPDEST DUP5 DUP5 SLOAD PUSH2 0x1147 JUMP JUMPDEST DUP3 SSTORE POP POP POP POP JUMP JUMPDEST PUSH0 PUSH0 SWAP1 POP SWAP1 JUMP JUMPDEST PUSH2 0x11F6 PUSH2 0x11E7 JUMP JUMPDEST PUSH2 0x1201 DUP2 DUP5 DUP5 PUSH2 0x11C2 JUMP JUMPDEST POP POP POP JUMP JUMPDEST JUMPDEST DUP2 DUP2 LT ISZERO PUSH2 0x1224 JUMPI PUSH2 0x1219 PUSH0 DUP3 PUSH2 0x11EE JUMP JUMPDEST PUSH1 0x1 DUP2 ADD SWAP1 POP PUSH2 0x1207 JUMP JUMPDEST POP POP JUMP JUMPDEST PUSH1 0x1F DUP3 GT ISZERO PUSH2 0x1269 JUMPI PUSH2 0x123A DUP2 PUSH2 0x111A JUMP JUMPDEST PUSH2 0x1243 DUP5 PUSH2 0x112C JUMP JUMPDEST DUP2 ADD PUSH1 0x20 DUP6 LT ISZERO PUSH2 0x1252 JUMPI DUP2 SWAP1 POP JUMPDEST PUSH2 0x1266 PUSH2 0x125E DUP6 PUSH2 0x112C JUMP JUMPDEST DUP4 ADD DUP3 PUSH2 0x1206 JUMP JUMPDEST POP POP JUMPDEST POP POP POP JUMP JUMPDEST PUSH0 DUP3 DUP3 SHR SWAP1 POP SWAP3 SWAP2 POP POP JUMP JUMPDEST PUSH0 PUSH2 0x1289 PUSH0 NOT DUP5 PUSH1 0x8 MUL PUSH2 0x126E JUMP JUMPDEST NOT DUP1 DUP4 AND SWAP2 POP POP SWAP3 SWAP2 POP POP JUMP JUMPDEST PUSH0 PUSH2 0x12A1 DUP4 DUP4 PUSH2 0x127A JUMP JUMPDEST SWAP2 POP DUP3 PUSH1 0x2 MUL DUP3 OR SWAP1 POP SWAP3 SWAP2 POP POP JUMP JUMPDEST PUSH2 0x12BA DUP3 PUSH2 0xBB9 JUMP JUMPDEST PUSH8 0xFFFFFFFFFFFFFFFF DUP2 GT ISZERO PUSH2 0x12D3 JUMPI PUSH2 0x12D2 PUSH2 0x10ED JUMP JUMPDEST JUMPDEST PUSH2 0x12DD DUP3 SLOAD PUSH2 0x1055 JUMP JUMPDEST PUSH2 0x12E8 DUP3 DUP3 DUP6 PUSH2 0x1228 JUMP JUMPDEST PUSH0 PUSH1 0x20 SWAP1 POP PUSH1 0x1F DUP4 GT PUSH1 0x1 DUP2 EQ PUSH2 0x1319 JUMPI PUSH0 DUP5 ISZERO PUSH2 0x1307 JUMPI DUP3 DUP8 ADD MLOAD SWAP1 POP JUMPDEST PUSH2 0x1311 DUP6 DUP3 PUSH2 0x1296 JUMP JUMPDEST DUP7 SSTORE POP PUSH2 0x1378 JUMP JUMPDEST PUSH1 0x1F NOT DUP5 AND PUSH2 0x1327 DUP7 PUSH2 0x111A JUMP JUMPDEST PUSH0 JUMPDEST DUP3 DUP2 LT ISZERO PUSH2 0x134E JUMPI DUP5 DUP10 ADD MLOAD DUP3 SSTORE PUSH1 0x1 DUP3 ADD SWAP2 POP PUSH1 0x20 DUP6 ADD SWAP5 POP PUSH1 0x20 DUP2 ADD SWAP1 POP PUSH2 0x1329 JUMP JUMPDEST DUP7 DUP4 LT ISZERO PUSH2 0x136B JUMPI DUP5 DUP10 ADD MLOAD PUSH2 0x1367 PUSH1 0x1F DUP10 AND DUP3 PUSH2 0x127A JUMP JUMPDEST DUP4 SSTORE POP JUMPDEST PUSH1 0x1 PUSH1 0x2 DUP9 MUL ADD DUP9 SSTORE POP POP POP JUMPDEST POP POP POP POP POP POP JUMP JUMPDEST DUP3 DUP2 DUP4 CALLDATACOPY PUSH0 DUP4 DUP4 ADD MSTORE POP POP POP JUMP JUMPDEST PUSH0 PUSH2 0x1399 DUP4 DUP6 PUSH2 0xBC3 JUMP JUMPDEST SWAP4 POP PUSH2 0x13A6 DUP4 DUP6 DUP5 PUSH2 0x1380 JUMP JUMPDEST PUSH2 0x13AF DUP4 PUSH2 0xBE1 JUMP JUMPDEST DUP5 ADD SWAP1 POP SWAP4 SWAP3 POP POP POP JUMP JUMPDEST PUSH0 PUSH1 0x20 DUP3 ADD SWAP1 POP DUP2 DUP2 SUB PUSH0 DUP4 ADD MSTORE PUSH2 0x13D3 DUP2 DUP5 DUP7 PUSH2 0x138E JUMP JUMPDEST SWAP1 POP SWAP4 SWAP3 POP POP POP JUMP JUMPDEST PUSH32 0x537461666620494420646F6573206E6F74206578697374000000000000000000 PUSH0 DUP3 ADD MSTORE POP JUMP JUMPDEST PUSH0 PUSH2 0x1410 PUSH1 0x17 DUP4 PUSH2 0xBC3 JUMP JUMPDEST SWAP2 POP PUSH2 0x141B DUP3 PUSH2 0x13DC JUMP JUMPDEST PUSH1 0x20 DUP3 ADD SWAP1 POP SWAP2 SWAP1 POP JUMP JUMPDEST PUSH0 PUSH1 0x20 DUP3 ADD SWAP1 POP DUP2 DUP2 SUB PUSH0 DUP4 ADD MSTORE PUSH2 0x143D DUP2 PUSH2 0x1404 JUMP JUMPDEST SWAP1 POP SWAP2 SWAP1 POP JUMP JUMPDEST PUSH0 DUP3 SWAP1 POP SWAP3 SWAP2 POP POP JUMP JUMPDEST PUSH2 0x1458 DUP4 DUP4 PUSH2 0x1444 JUMP JUMPDEST PUSH8 0xFFFFFFFFFFFFFFFF DUP2 GT ISZERO PUSH2 0x1471 JUMPI PUSH2 0x1470 PUSH2 0x10ED JUMP JUMPDEST JUMPDEST PUSH2 0x147B DUP3 SLOAD PUSH2 0x1055 JUMP JUMPDEST PUSH2 0x1486 DUP3 DUP3 DUP6 PUSH2 0x1228 JUMP JUMPDEST PUSH0 PUSH1 0x1F DUP4 GT PUSH1 0x1 DUP2 EQ PUSH2 0x14B3 JUMPI PUSH0 DUP5 ISZERO PUSH2 0x14A1 JUMPI DUP3 DUP8 ADD CALLDATALOAD SWAP1 POP JUMPDEST PUSH2 0x14AB DUP6 DUP3 PUSH2 0x1296 JUMP JUMPDEST DUP7 SSTORE POP PUSH2 0x1512 JUMP JUMPDEST PUSH1 0x1F NOT DUP5 AND PUSH2 0x14C1 DUP7 PUSH2 0x111A JUMP JUMPDEST PUSH0 JUMPDEST DUP3 DUP2 LT ISZERO PUSH2 0x14E8 JUMPI DUP5 DUP10 ADD CALLDATALOAD DUP3 SSTORE PUSH1 0x1 DUP3 ADD SWAP2 POP PUSH1 0x20 DUP6 ADD SWAP5 POP PUSH1 0x20 DUP2 ADD SWAP1 POP PUSH2 0x14C3 JUMP JUMPDEST DUP7 DUP4 LT ISZERO PUSH2 0x1505 JUMPI DUP5 DUP10 ADD CALLDATALOAD PUSH2 0x1501 PUSH1 0x1F DUP10 AND DUP3 PUSH2 0x127A JUMP JUMPDEST DUP4 SSTORE POP JUMPDEST PUSH1 0x1 PUSH1 0x2 DUP9 MUL ADD DUP9 SSTORE POP POP POP JUMPDEST POP POP POP POP POP POP POP JUMP JUMPDEST PUSH0 PUSH1 0x40 DUP3 ADD SWAP1 POP PUSH2 0x152E PUSH0 DUP4 ADD DUP6 PUSH2 0xB66 JUMP JUMPDEST PUSH2 0x153B PUSH1 0x20 DUP4 ADD DUP5 PUSH2 0xB66 JUMP JUMPDEST SWAP4 SWAP3 POP POP POP JUMP INVALID LOG2 PUSH5 0x6970667358 0x22 SLT KECCAK256 0x4C GASPRICE SWAP13 EXTDELEGATECALL LOG1 LOG0 SWAP5 0xC6 DUP10 JUMPDEST SELFBALANCE 0xCE CREATE XOR 0x4B DUPN 0xAE PUSH23 0x9593D59E98705DB7E36B1D5A7AD864736F6C634300081E STOP CALLER "
				},
				"gasEstimates": {
					"creation": {
						"codeDepositCost": "1099200",
						"executionCost": "infinite",
						"totalCost": "infinite"
					},
					"external": {
						"addStaff(uint256,string,string,string)": "infinite",
						"addStaffToOrder(uint256,uint256)": "infinite",
						"getStaff(uint256)": "infinite",
						"getStaffForOrder(uint256)": "infinite",
						"nextStaffId()": "2448",
						"orderManager()": "infinite",
						"orderStaffs(uint256,uint256)": "infinite",
						"staffs(uint256)": "infinite",
						"updateStaffInfo(uint256,string,string,string)": "infinite"
					}
				},
				"methodIdentifiers": {
					"addStaff(uint256,string,string,string)": "9121f4eb",
					"addStaffToOrder(uint256,uint256)": "fdff9aab",
					"getStaff(uint256)": "f4def44b",
					"getStaffForOrder(uint256)": "cbe8eaad",
					"nextStaffId()": "3fbc17f2",
					"orderManager()": "f9b6117f",
					"orderStaffs(uint256,uint256)": "2e026bef",
					"staffs(uint256)": "498d4707",
					"updateStaffInfo(uint256,string,string,string)": "b3ce9dea"
				}
			},
			"storageLayout": {
				"storage": [
					{
						"astId": 171,
						"contract": "contracts/manager/StaffManager.sol:StaffManagement",
						"label": "orderManager",
						"offset": 0,
						"slot": "0",
						"type": "t_contract(IOrderManager)95"
					},
					{
						"astId": 176,
						"contract": "contracts/manager/StaffManager.sol:StaffManagement",
						"label": "staffs",
						"offset": 0,
						"slot": "1",
						"type": "t_mapping(t_uint256,t_struct(Staff)425_storage)"
					},
					{
						"astId": 181,
						"contract": "contracts/manager/StaffManager.sol:StaffManagement",
						"label": "orderStaffs",
						"offset": 0,
						"slot": "2",
						"type": "t_mapping(t_uint256,t_array(t_uint256)dyn_storage)"
					},
					{
						"astId": 184,
						"contract": "contracts/manager/StaffManager.sol:StaffManagement",
						"label": "nextStaffId",
						"offset": 0,
						"slot": "3",
						"type": "t_uint256"
					}
				],
				"types": {
					"t_array(t_uint256)dyn_storage": {
						"base": "t_uint256",
						"encoding": "dynamic_array",
						"label": "uint256[]",
						"numberOfBytes": "32"
					},
					"t_contract(IOrderManager)95": {
						"encoding": "inplace",
						"label": "contract IOrderManager",
						"numberOfBytes": "20"
					},
					"t_mapping(t_uint256,t_array(t_uint256)dyn_storage)": {
						"encoding": "mapping",
						"key": "t_uint256",
						"label": "mapping(uint256 => uint256[])",
						"numberOfBytes": "32",
						"value": "t_array(t_uint256)dyn_storage"
					},
					"t_mapping(t_uint256,t_struct(Staff)425_storage)": {
						"encoding": "mapping",
						"key": "t_uint256",
						"label": "mapping(uint256 => struct Staff)",
						"numberOfBytes": "32",
						"value": "t_struct(Staff)425_storage"
					},
					"t_string_storage": {
						"encoding": "bytes",
						"label": "string",
						"numberOfBytes": "32"
					},
					"t_struct(Staff)425_storage": {
						"encoding": "inplace",
						"label": "struct Staff",
						"members": [
							{
								"astId": 414,
								"contract": "contracts/manager/StaffManager.sol:StaffManagement",
								"label": "staffId",
								"offset": 0,
								"slot": "0",
								"type": "t_uint256"
							},
							{
								"astId": 416,
								"contract": "contracts/manager/StaffManager.sol:StaffManagement",
								"label": "name",
								"offset": 0,
								"slot": "1",
								"type": "t_string_storage"
							},
							{
								"astId": 418,
								"contract": "contracts/manager/StaffManager.sol:StaffManagement",
								"label": "dob",
								"offset": 0,
								"slot": "2",
								"type": "t_string_storage"
							},
							{
								"astId": 420,
								"contract": "contracts/manager/StaffManager.sol:StaffManagement",
								"label": "phone",
								"offset": 0,
								"slot": "3",
								"type": "t_string_storage"
							},
							{
								"astId": 422,
								"contract": "contracts/manager/StaffManager.sol:StaffManagement",
								"label": "sumRating",
								"offset": 0,
								"slot": "4",
								"type": "t_uint256"
							},
							{
								"astId": 424,
								"contract": "contracts/manager/StaffManager.sol:StaffManagement",
								"label": "countRating",
								"offset": 0,
								"slot": "5",
								"type": "t_uint256"
							}
						],
						"numberOfBytes": "192"
					},
					"t_uint256": {
						"encoding": "inplace",
						"label": "uint256",
						"numberOfBytes": "32"
					}
				}
			},
			"userdoc": {
				"kind": "user",
				"methods": {},
				"version": 1
			}
		}
	}
}