{
	"contracts/manager/TableManager.sol": {
		"TableManager": {
			"abi": [
				{
					"inputs": [
						{
							"internalType": "address",
							"name": "_roleAccess",
							"type": "address"
						}
					],
					"stateMutability": "nonpayable",
					"type": "constructor"
				},
				{
					"anonymous": false,
					"inputs": [
						{
							"indexed": false,
							"internalType": "uint256",
							"name": "tableId",
							"type": "uint256"
						},
						{
							"indexed": false,
							"internalType": "uint256",
							"name": "staffId",
							"type": "uint256"
						}
					],
					"name": "StaffTableUpdated",
					"type": "event"
				},
				{
					"anonymous": false,
					"inputs": [
						{
							"indexed": false,
							"internalType": "uint256",
							"name": "tableId",
							"type": "uint256"
						},
						{
							"indexed": false,
							"internalType": "uint256",
							"name": "row",
							"type": "uint256"
						},
						{
							"indexed": false,
							"internalType": "uint256",
							"name": "col",
							"type": "uint256"
						}
					],
					"name": "TableAdded",
					"type": "event"
				},
				{
					"anonymous": false,
					"inputs": [
						{
							"indexed": false,
							"internalType": "uint256",
							"name": "_tableId",
							"type": "uint256"
						},
						{
							"indexed": false,
							"internalType": "uint256",
							"name": "_orderId",
							"type": "uint256"
						}
					],
					"name": "TableAddedToOrder",
					"type": "event"
				},
				{
					"anonymous": false,
					"inputs": [
						{
							"indexed": false,
							"internalType": "uint256",
							"name": "tableId",
							"type": "uint256"
						}
					],
					"name": "TableDeleted",
					"type": "event"
				},
				{
					"anonymous": false,
					"inputs": [
						{
							"indexed": false,
							"internalType": "uint256",
							"name": "tableId",
							"type": "uint256"
						},
						{
							"indexed": false,
							"internalType": "uint256",
							"name": "row",
							"type": "uint256"
						},
						{
							"indexed": false,
							"internalType": "uint256",
							"name": "col",
							"type": "uint256"
						}
					],
					"name": "TableEdited",
					"type": "event"
				},
				{
					"anonymous": false,
					"inputs": [
						{
							"indexed": false,
							"internalType": "uint256",
							"name": "_tableId",
							"type": "uint256"
						}
					],
					"name": "TableUpdatedStaus",
					"type": "event"
				},
				{
					"inputs": [
						{
							"internalType": "uint256",
							"name": "_row",
							"type": "uint256"
						},
						{
							"internalType": "uint256",
							"name": "_col",
							"type": "uint256"
						}
					],
					"name": "addTable",
					"outputs": [
						{
							"internalType": "uint256",
							"name": "",
							"type": "uint256"
						}
					],
					"stateMutability": "nonpayable",
					"type": "function"
				},
				{
					"inputs": [
						{
							"internalType": "uint256",
							"name": "_orderId",
							"type": "uint256"
						},
						{
							"internalType": "uint256",
							"name": "_tableId",
							"type": "uint256"
						}
					],
					"name": "addTableToOrder",
					"outputs": [],
					"stateMutability": "nonpayable",
					"type": "function"
				},
				{
					"inputs": [
						{
							"internalType": "uint256",
							"name": "_tableId",
							"type": "uint256"
						}
					],
					"name": "deleteTable",
					"outputs": [],
					"stateMutability": "nonpayable",
					"type": "function"
				},
				{
					"inputs": [
						{
							"internalType": "uint256",
							"name": "_tableId",
							"type": "uint256"
						},
						{
							"internalType": "uint256",
							"name": "_row",
							"type": "uint256"
						},
						{
							"internalType": "uint256",
							"name": "_col",
							"type": "uint256"
						}
					],
					"name": "editTable",
					"outputs": [],
					"stateMutability": "nonpayable",
					"type": "function"
				},
				{
					"inputs": [
						{
							"internalType": "uint256",
							"name": "_tableId",
							"type": "uint256"
						}
					],
					"name": "getTableById",
					"outputs": [
						{
							"components": [
								{
									"internalType": "uint256",
									"name": "tableId",
									"type": "uint256"
								},
								{
									"internalType": "uint256",
									"name": "row",
									"type": "uint256"
								},
								{
									"internalType": "uint256",
									"name": "col",
									"type": "uint256"
								},
								{
									"internalType": "enum TableStatus",
									"name": "status",
									"type": "uint8"
								}
							],
							"internalType": "struct Table",
							"name": "",
							"type": "tuple"
						}
					],
					"stateMutability": "view",
					"type": "function"
				},
				{
					"inputs": [],
					"name": "nextTableId",
					"outputs": [
						{
							"internalType": "uint256",
							"name": "",
							"type": "uint256"
						}
					],
					"stateMutability": "view",
					"type": "function"
				},
				{
					"inputs": [],
					"name": "orderManager",
					"outputs": [
						{
							"internalType": "contract IOrderManager",
							"name": "",
							"type": "address"
						}
					],
					"stateMutability": "view",
					"type": "function"
				},
				{
					"inputs": [
						{
							"internalType": "uint256",
							"name": "",
							"type": "uint256"
						},
						{
							"internalType": "uint256",
							"name": "",
							"type": "uint256"
						}
					],
					"name": "orderTable",
					"outputs": [
						{
							"internalType": "uint256",
							"name": "",
							"type": "uint256"
						}
					],
					"stateMutability": "view",
					"type": "function"
				},
				{
					"inputs": [],
					"name": "roleAccess",
					"outputs": [
						{
							"internalType": "contract RoleAccess",
							"name": "",
							"type": "address"
						}
					],
					"stateMutability": "view",
					"type": "function"
				},
				{
					"inputs": [
						{
							"internalType": "address",
							"name": "_orderManager",
							"type": "address"
						}
					],
					"name": "setOrderManager",
					"outputs": [],
					"stateMutability": "nonpayable",
					"type": "function"
				},
				{
					"inputs": [
						{
							"internalType": "uint256",
							"name": "",
							"type": "uint256"
						}
					],
					"name": "tables",
					"outputs": [
						{
							"internalType": "uint256",
							"name": "tableId",
							"type": "uint256"
						},
						{
							"internalType": "uint256",
							"name": "row",
							"type": "uint256"
						},
						{
							"internalType": "uint256",
							"name": "col",
							"type": "uint256"
						},
						{
							"internalType": "enum TableStatus",
							"name": "status",
							"type": "uint8"
						}
					],
					"stateMutability": "view",
					"type": "function"
				},
				{
					"inputs": [
						{
							"internalType": "uint256",
							"name": "_tableId",
							"type": "uint256"
						},
						{
							"internalType": "enum TableStatus",
							"name": "_status",
							"type": "uint8"
						}
					],
					"name": "updateStatusTable",
					"outputs": [],
					"stateMutability": "nonpayable",
					"type": "function"
				}
			],
			"devdoc": {
				"kind": "dev",
				"methods": {},
				"version": 1
			},
			"evm": {
				"assembly": "    /* \"contracts/manager/TableManager.sol\":180:2604  contract TableManager is ITableManager {... */\n  mstore(0x40, 0x80)\n    /* \"contracts/manager/TableManager.sol\":329:330  1 */\n  0x01\n    /* \"contracts/manager/TableManager.sol\":303:330  uint public nextTableId = 1 */\n  0x02\n  sstore\n    /* \"contracts/manager/TableManager.sol\":432:520  constructor(address _roleAccess) {... */\n  callvalue\n  dup1\n  iszero\n  tag_1\n  jumpi\n  revert(0x00, 0x00)\ntag_1:\n  pop\n  mload(0x40)\n  sub(codesize, bytecodeSize)\n  dup1\n  bytecodeSize\n  dup4\n  codecopy\n  dup2\n  add\n  0x40\n  dup2\n  swap1\n  mstore\n  tag_2\n  swap2\n  tag_3\n  jump\t// in\ntag_2:\n    /* \"contracts/manager/TableManager.sol\":476:486  roleAccess */\n  0x01\n    /* \"contracts/manager/TableManager.sol\":476:512  roleAccess = RoleAccess(_roleAccess) */\n  dup1\n  sload\n  not(sub(shl(0xa0, 0x01), 0x01))\n  and\n  sub(shl(0xa0, 0x01), 0x01)\n  swap3\n  swap1\n  swap3\n  and\n  swap2\n  swap1\n  swap2\n  or\n  swap1\n  sstore\n    /* \"contracts/manager/TableManager.sol\":180:2604  contract TableManager is ITableManager {... */\n  jump(tag_7)\n    /* \"#utility.yul\":14:304   */\ntag_3:\n    /* \"#utility.yul\":84:90   */\n  0x00\n    /* \"#utility.yul\":137:139   */\n  0x20\n    /* \"#utility.yul\":125:134   */\n  dup3\n    /* \"#utility.yul\":116:123   */\n  dup5\n    /* \"#utility.yul\":112:135   */\n  sub\n    /* \"#utility.yul\":108:140   */\n  slt\n    /* \"#utility.yul\":105:157   */\n  iszero\n  tag_9\n  jumpi\n    /* \"#utility.yul\":153:154   */\n  0x00\n    /* \"#utility.yul\":150:151   */\n  0x00\n    /* \"#utility.yul\":143:155   */\n  revert\n    /* \"#utility.yul\":105:157   */\ntag_9:\n    /* \"#utility.yul\":179:195   */\n  dup2\n  mload\n  sub(shl(0xa0, 0x01), 0x01)\n    /* \"#utility.yul\":224:255   */\n  dup2\n  and\n    /* \"#utility.yul\":214:256   */\n  dup2\n  eq\n    /* \"#utility.yul\":204:274   */\n  tag_10\n  jumpi\n    /* \"#utility.yul\":270:271   */\n  0x00\n    /* \"#utility.yul\":267:268   */\n  0x00\n    /* \"#utility.yul\":260:272   */\n  revert\n    /* \"#utility.yul\":204:274   */\ntag_10:\n    /* \"#utility.yul\":293:298   */\n  swap4\n    /* \"#utility.yul\":14:304   */\n  swap3\n  pop\n  pop\n  pop\n  jump\t// out\ntag_7:\n    /* \"contracts/manager/TableManager.sol\":180:2604  contract TableManager is ITableManager {... */\n  dataSize(sub_0)\n  dup1\n  dataOffset(sub_0)\n  0x00\n  codecopy\n  0x00\n  return\nstop\n\nsub_0: assembly {\n        /* \"contracts/manager/TableManager.sol\":180:2604  contract TableManager is ITableManager {... */\n      mstore(0x40, 0x80)\n      callvalue\n      dup1\n      iszero\n      tag_1\n      jumpi\n      revert(0x00, 0x00)\n    tag_1:\n      pop\n      jumpi(tag_2, lt(calldatasize, 0x04))\n      shr(0xe0, calldataload(0x00))\n      dup1\n      0x95ebcb24\n      gt\n      tag_15\n      jumpi\n      dup1\n      0x95ebcb24\n      eq\n      tag_9\n      jumpi\n      dup1\n      0xb4afd52c\n      eq\n      tag_10\n      jumpi\n      dup1\n      0xc0da840d\n      eq\n      tag_11\n      jumpi\n      dup1\n      0xe1f1c48d\n      eq\n      tag_12\n      jumpi\n      dup1\n      0xe6f318c6\n      eq\n      tag_13\n      jumpi\n      dup1\n      0xf9b6117f\n      eq\n      tag_14\n      jumpi\n      revert(0x00, 0x00)\n    tag_15:\n      dup1\n      0x3844ac5b\n      eq\n      tag_3\n      jumpi\n      dup1\n      0x42f54b89\n      eq\n      tag_4\n      jumpi\n      dup1\n      0x5cfd6607\n      eq\n      tag_5\n      jumpi\n      dup1\n      0x71671bf2\n      eq\n      tag_6\n      jumpi\n      dup1\n      0x88a01cd7\n      eq\n      tag_7\n      jumpi\n      dup1\n      0x90c86435\n      eq\n      tag_8\n      jumpi\n    tag_2:\n      revert(0x00, 0x00)\n        /* \"contracts/manager/TableManager.sol\":1851:2049  function getTableById(uint _tableId) external override view returns (Table memory) {... */\n    tag_3:\n      tag_16\n      tag_17\n      calldatasize\n      0x04\n      tag_18\n      jump\t// in\n    tag_17:\n      tag_19\n      jump\t// in\n    tag_16:\n      mload(0x40)\n      tag_20\n      swap2\n      swap1\n      tag_21\n      jump\t// in\n    tag_20:\n      mload(0x40)\n      dup1\n      swap2\n      sub\n      swap1\n      return\n        /* \"contracts/manager/TableManager.sol\":266:294  RoleAccess public roleAccess */\n    tag_4:\n      sload(0x01)\n      tag_22\n      swap1\n      sub(shl(0xa0, 0x01), 0x01)\n      and\n      dup2\n      jump\n    tag_22:\n      mload(0x40)\n      sub(shl(0xa0, 0x01), 0x01)\n        /* \"#utility.yul\":1287:1319   */\n      swap1\n      swap2\n      and\n        /* \"#utility.yul\":1269:1320   */\n      dup2\n      mstore\n        /* \"#utility.yul\":1257:1259   */\n      0x20\n        /* \"#utility.yul\":1242:1260   */\n      add\n        /* \"contracts/manager/TableManager.sol\":266:294  RoleAccess public roleAccess */\n      tag_20\n        /* \"#utility.yul\":1106:1326   */\n      jump\n        /* \"contracts/manager/TableManager.sol\":1253:1627  function editTable(uint _tableId, uint _row, uint _col) external onlyAdmin override  {... */\n    tag_5:\n      tag_26\n      tag_27\n      calldatasize\n      0x04\n      tag_28\n      jump\t// in\n    tag_27:\n      tag_29\n      jump\t// in\n    tag_26:\n      stop\n        /* \"contracts/manager/TableManager.sol\":337:373  mapping(uint => Table) public tables */\n    tag_6:\n      tag_30\n      tag_31\n      calldatasize\n      0x04\n      tag_18\n      jump\t// in\n    tag_31:\n      0x03\n      0x20\n      dup2\n      swap1\n      mstore\n      0x00\n      swap2\n      dup3\n      mstore\n      0x40\n      swap1\n      swap2\n      keccak256\n      dup1\n      sload\n      0x01\n      dup3\n      add\n      sload\n      0x02\n      dup4\n      add\n      sload\n      swap3\n      swap1\n      swap4\n      add\n      sload\n      swap1\n      swap3\n      swap2\n      swap1\n      0xff\n      and\n      dup5\n      jump\n    tag_30:\n      mload(0x40)\n      tag_20\n      swap5\n      swap4\n      swap3\n      swap2\n      swap1\n      tag_34\n      jump\t// in\n        /* \"contracts/manager/TableManager.sol\":303:330  uint public nextTableId = 1 */\n    tag_7:\n      tag_35\n      sload(0x02)\n      dup2\n      jump\n    tag_35:\n      mload(0x40)\n        /* \"#utility.yul\":2378:2403   */\n      swap1\n      dup2\n      mstore\n        /* \"#utility.yul\":2366:2368   */\n      0x20\n        /* \"#utility.yul\":2351:2369   */\n      add\n        /* \"contracts/manager/TableManager.sol\":303:330  uint public nextTableId = 1 */\n      tag_20\n        /* \"#utility.yul\":2232:2409   */\n      jump\n        /* \"contracts/manager/TableManager.sol\":382:423  mapping(uint => uint[]) public orderTable */\n    tag_8:\n      tag_35\n      tag_40\n      calldatasize\n      0x04\n      tag_41\n      jump\t// in\n    tag_40:\n      tag_42\n      jump\t// in\n        /* \"contracts/manager/TableManager.sol\":2055:2333  function addTableToOrder(uint _orderId, uint _tableId) external override onlyAdmin{... */\n    tag_9:\n      tag_26\n      tag_45\n      calldatasize\n      0x04\n      tag_41\n      jump\t// in\n    tag_45:\n      tag_46\n      jump\t// in\n        /* \"contracts/manager/TableManager.sol\":2339:2601  function updateStatusTable(uint _tableId, TableStatus _status) external override onlyAdmin {... */\n    tag_10:\n      tag_26\n      tag_48\n      calldatasize\n      0x04\n      tag_49\n      jump\t// in\n    tag_48:\n      tag_50\n      jump\t// in\n        /* \"contracts/manager/TableManager.sol\":645:774  function setOrderManager(address _orderManager) external onlyAdmin {... */\n    tag_11:\n      tag_26\n      tag_52\n      calldatasize\n      0x04\n      tag_53\n      jump\t// in\n    tag_52:\n      tag_54\n      jump\t// in\n        /* \"contracts/manager/TableManager.sol\":782:1245  function addTable(uint _row, uint _col) external override onlyAdmin returns (uint) {... */\n    tag_12:\n      tag_35\n      tag_56\n      calldatasize\n      0x04\n      tag_41\n      jump\t// in\n    tag_56:\n      tag_57\n      jump\t// in\n        /* \"contracts/manager/TableManager.sol\":1635:1843  function deleteTable(uint _tableId) external override  {... */\n    tag_13:\n      tag_26\n      tag_60\n      calldatasize\n      0x04\n      tag_18\n      jump\t// in\n    tag_60:\n      tag_61\n      jump\t// in\n        /* \"contracts/manager/TableManager.sol\":226:259  IOrderManager public orderManager */\n    tag_14:\n      sload(0x00)\n      tag_22\n      swap1\n      sub(shl(0xa0, 0x01), 0x01)\n      and\n      dup2\n      jump\n        /* \"contracts/manager/TableManager.sol\":1851:2049  function getTableById(uint _tableId) external override view returns (Table memory) {... */\n    tag_19:\n        /* \"contracts/manager/TableManager.sol\":1920:1932  Table memory */\n      tag_66\n      tag_67\n      jump\t// in\n    tag_66:\n        /* \"contracts/manager/TableManager.sol\":1953:1969  tables[_tableId] */\n      0x00\n      dup3\n      dup2\n      mstore\n        /* \"contracts/manager/TableManager.sol\":1953:1959  tables */\n      0x03\n        /* \"contracts/manager/TableManager.sol\":1953:1969  tables[_tableId] */\n      0x20\n      mstore\n      0x40\n      dup2\n      keccak256\n        /* \"contracts/manager/TableManager.sol\":1953:1977  tables[_tableId].tableId */\n      sload\n        /* \"contracts/manager/TableManager.sol\":1953:1982  tables[_tableId].tableId != 0 */\n      swap1\n      sub\n        /* \"contracts/manager/TableManager.sol\":1945:2007  require(tables[_tableId].tableId != 0, \"Table does not exist\") */\n      tag_69\n      jumpi\n      mload(0x40)\n      shl(0xe5, 0x461bcd)\n      dup2\n      mstore\n      0x04\n      add\n      tag_70\n      swap1\n      tag_71\n      jump\t// in\n    tag_70:\n      mload(0x40)\n      dup1\n      swap2\n      sub\n      swap1\n      revert\n    tag_69:\n        /* \"contracts/manager/TableManager.sol\":2025:2031  tables */\n      0x03\n        /* \"contracts/manager/TableManager.sol\":2025:2041  tables[_tableId] */\n      0x00\n        /* \"contracts/manager/TableManager.sol\":2032:2040  _tableId */\n      dup4\n        /* \"contracts/manager/TableManager.sol\":2025:2041  tables[_tableId] */\n      dup2\n      mstore\n      0x20\n      add\n      swap1\n      dup2\n      mstore\n      0x20\n      add\n      0x00\n      keccak256\n        /* \"contracts/manager/TableManager.sol\":2018:2041  return tables[_tableId] */\n      mload(0x40)\n      dup1\n      0x80\n      add\n      0x40\n      mstore\n      swap1\n      dup2\n      0x00\n      dup3\n      add\n      sload\n      dup2\n      mstore\n      0x20\n      add\n      0x01\n      dup3\n      add\n      sload\n      dup2\n      mstore\n      0x20\n      add\n      0x02\n      dup3\n      add\n      sload\n      dup2\n      mstore\n      0x20\n      add\n      0x03\n      dup3\n      add\n      0x00\n      swap1\n      sload\n      swap1\n      0x0100\n      exp\n      swap1\n      div\n      0xff\n      and\n      0x01\n      dup2\n      gt\n      iszero\n      tag_73\n      jumpi\n      tag_73\n      tag_74\n      jump\t// in\n    tag_73:\n      0x01\n      dup2\n      gt\n      iszero\n      tag_76\n      jumpi\n      tag_76\n      tag_74\n      jump\t// in\n    tag_76:\n      swap1\n      mstore\n      pop\n      swap3\n        /* \"contracts/manager/TableManager.sol\":1851:2049  function getTableById(uint _tableId) external override view returns (Table memory) {... */\n      swap2\n      pop\n      pop\n      jump\t// out\n        /* \"contracts/manager/TableManager.sol\":1253:1627  function editTable(uint _tableId, uint _row, uint _col) external onlyAdmin override  {... */\n    tag_29:\n        /* \"contracts/manager/TableManager.sol\":568:578  roleAccess */\n      sload(0x01)\n        /* \"contracts/manager/TableManager.sol\":568:597  roleAccess.isAdmin(tx.origin) */\n      mload(0x40)\n      shl(0xe2, 0x0935e01b)\n      dup2\n      mstore\n        /* \"contracts/manager/TableManager.sol\":587:596  tx.origin */\n      origin\n        /* \"contracts/manager/TableManager.sol\":568:597  roleAccess.isAdmin(tx.origin) */\n      0x04\n      dup3\n      add\n        /* \"#utility.yul\":1269:1320   */\n      mstore\n      sub(shl(0xa0, 0x01), 0x01)\n        /* \"contracts/manager/TableManager.sol\":568:578  roleAccess */\n      swap1\n      swap2\n      and\n      swap1\n        /* \"contracts/manager/TableManager.sol\":568:586  roleAccess.isAdmin */\n      0x24d7806c\n      swap1\n        /* \"#utility.yul\":1242:1260   */\n      0x24\n      add\n        /* \"contracts/manager/TableManager.sol\":568:597  roleAccess.isAdmin(tx.origin) */\n      0x20\n      mload(0x40)\n      dup1\n      dup4\n      sub\n      dup2\n      dup7\n      gas\n      staticcall\n      iszero\n      dup1\n      iszero\n      tag_81\n      jumpi\n      returndatacopy(0x00, 0x00, returndatasize)\n      revert(0x00, returndatasize)\n    tag_81:\n      pop\n      pop\n      pop\n      pop\n      mload(0x40)\n      returndatasize\n      not(0x1f)\n      0x1f\n      dup3\n      add\n      and\n      dup3\n      add\n      dup1\n      0x40\n      mstore\n      pop\n      dup2\n      add\n      swap1\n      tag_82\n      swap2\n      swap1\n      tag_83\n      jump\t// in\n    tag_82:\n        /* \"contracts/manager/TableManager.sol\":560:619  require(roleAccess.isAdmin(tx.origin), \"You are not admin\") */\n      tag_84\n      jumpi\n      mload(0x40)\n      shl(0xe5, 0x461bcd)\n      dup2\n      mstore\n      0x04\n      add\n      tag_70\n      swap1\n      tag_86\n      jump\t// in\n    tag_84:\n        /* \"contracts/manager/TableManager.sol\":1357:1373  tables[_tableId] */\n      0x00\n      dup4\n      dup2\n      mstore\n        /* \"contracts/manager/TableManager.sol\":1357:1363  tables */\n      0x03\n        /* \"contracts/manager/TableManager.sol\":1357:1373  tables[_tableId] */\n      0x20\n      mstore\n      0x40\n      dup2\n      keccak256\n        /* \"contracts/manager/TableManager.sol\":1357:1381  tables[_tableId].tableId */\n      sload\n        /* \"contracts/manager/TableManager.sol\":1357:1386  tables[_tableId].tableId != 0 */\n      swap1\n      sub\n        /* \"contracts/manager/TableManager.sol\":1349:1411  require(tables[_tableId].tableId != 0, \"Table does not exist\") */\n      tag_88\n      jumpi\n      mload(0x40)\n      shl(0xe5, 0x461bcd)\n      dup2\n      mstore\n      0x04\n      add\n      tag_70\n      swap1\n      tag_71\n      jump\t// in\n    tag_88:\n        /* \"contracts/manager/TableManager.sol\":1437:1438  0 */\n      0x00\n        /* \"contracts/manager/TableManager.sol\":1430:1434  _row */\n      dup3\n        /* \"contracts/manager/TableManager.sol\":1430:1438  _row > 0 */\n      gt\n        /* \"contracts/manager/TableManager.sol\":1430:1450  _row > 0 && _col > 0 */\n      dup1\n      iszero\n      tag_90\n      jumpi\n      pop\n        /* \"contracts/manager/TableManager.sol\":1449:1450  0 */\n      0x00\n        /* \"contracts/manager/TableManager.sol\":1442:1446  _col */\n      dup2\n        /* \"contracts/manager/TableManager.sol\":1442:1450  _col > 0 */\n      gt\n        /* \"contracts/manager/TableManager.sol\":1430:1450  _row > 0 && _col > 0 */\n    tag_90:\n        /* \"contracts/manager/TableManager.sol\":1422:1492  require(_row > 0 && _col > 0, \"Row and column must be greater than 0\") */\n      tag_91\n      jumpi\n      mload(0x40)\n      shl(0xe5, 0x461bcd)\n      dup2\n      mstore\n      0x04\n      add\n      tag_70\n      swap1\n      tag_93\n      jump\t// in\n    tag_91:\n        /* \"contracts/manager/TableManager.sol\":1503:1519  tables[_tableId] */\n      0x00\n      dup4\n      dup2\n      mstore\n        /* \"contracts/manager/TableManager.sol\":1503:1509  tables */\n      0x03\n        /* \"contracts/manager/TableManager.sol\":1503:1519  tables[_tableId] */\n      0x20\n      swap1\n      dup2\n      mstore\n      0x40\n      swap2\n      dup3\n      swap1\n      keccak256\n        /* \"contracts/manager/TableManager.sol\":1503:1523  tables[_tableId].row */\n      0x01\n      dup2\n      add\n        /* \"contracts/manager/TableManager.sol\":1503:1530  tables[_tableId].row = _row */\n      dup6\n      swap1\n      sstore\n        /* \"contracts/manager/TableManager.sol\":1541:1561  tables[_tableId].col */\n      0x02\n      add\n        /* \"contracts/manager/TableManager.sol\":1541:1568  tables[_tableId].col = _col */\n      dup4\n      swap1\n      sstore\n        /* \"contracts/manager/TableManager.sol\":1584:1617  TableEdited(_tableId, _row, _col) */\n      dup2\n      mload\n        /* \"#utility.yul\":5474:5499   */\n      dup6\n      dup2\n      mstore\n        /* \"#utility.yul\":5515:5533   */\n      swap1\n      dup2\n      add\n        /* \"#utility.yul\":5508:5542   */\n      dup5\n      swap1\n      mstore\n        /* \"#utility.yul\":5558:5576   */\n      swap1\n      dup2\n      add\n        /* \"#utility.yul\":5551:5585   */\n      dup3\n      swap1\n      mstore\n        /* \"contracts/manager/TableManager.sol\":1584:1617  TableEdited(_tableId, _row, _col) */\n      0xf7237d4e5b6eb7009e4eb3d57722c89a2d5a309cb8766edd3d12c3a2f6369fea\n      swap1\n        /* \"#utility.yul\":5462:5464   */\n      0x60\n        /* \"#utility.yul\":5447:5465   */\n      add\n        /* \"contracts/manager/TableManager.sol\":1584:1617  TableEdited(_tableId, _row, _col) */\n      mload(0x40)\n      dup1\n      swap2\n      sub\n      swap1\n      log1\n        /* \"contracts/manager/TableManager.sol\":1253:1627  function editTable(uint _tableId, uint _row, uint _col) external onlyAdmin override  {... */\n      pop\n      pop\n      pop\n      jump\t// out\n        /* \"contracts/manager/TableManager.sol\":382:423  mapping(uint => uint[]) public orderTable */\n    tag_42:\n      mstore(0x20, 0x04)\n      dup2\n      0x00\n      mstore\n      keccak256(0x00, 0x40)\n      dup2\n      dup2\n      sload\n      dup2\n      lt\n      tag_96\n      jumpi\n      0x00\n      dup1\n      revert\n    tag_96:\n      swap1\n      0x00\n      mstore\n      keccak256(0x00, 0x20)\n      add\n      0x00\n      swap2\n      pop\n      swap2\n      pop\n      pop\n      sload\n      dup2\n      jump\t// out\n        /* \"contracts/manager/TableManager.sol\":2055:2333  function addTableToOrder(uint _orderId, uint _tableId) external override onlyAdmin{... */\n    tag_46:\n        /* \"contracts/manager/TableManager.sol\":568:578  roleAccess */\n      sload(0x01)\n        /* \"contracts/manager/TableManager.sol\":568:597  roleAccess.isAdmin(tx.origin) */\n      mload(0x40)\n      shl(0xe2, 0x0935e01b)\n      dup2\n      mstore\n        /* \"contracts/manager/TableManager.sol\":587:596  tx.origin */\n      origin\n        /* \"contracts/manager/TableManager.sol\":568:597  roleAccess.isAdmin(tx.origin) */\n      0x04\n      dup3\n      add\n        /* \"#utility.yul\":1269:1320   */\n      mstore\n      sub(shl(0xa0, 0x01), 0x01)\n        /* \"contracts/manager/TableManager.sol\":568:578  roleAccess */\n      swap1\n      swap2\n      and\n      swap1\n        /* \"contracts/manager/TableManager.sol\":568:586  roleAccess.isAdmin */\n      0x24d7806c\n      swap1\n        /* \"#utility.yul\":1242:1260   */\n      0x24\n      add\n        /* \"contracts/manager/TableManager.sol\":568:597  roleAccess.isAdmin(tx.origin) */\n      0x20\n      mload(0x40)\n      dup1\n      dup4\n      sub\n      dup2\n      dup7\n      gas\n      staticcall\n      iszero\n      dup1\n      iszero\n      tag_101\n      jumpi\n      returndatacopy(0x00, 0x00, returndatasize)\n      revert(0x00, returndatasize)\n    tag_101:\n      pop\n      pop\n      pop\n      pop\n      mload(0x40)\n      returndatasize\n      not(0x1f)\n      0x1f\n      dup3\n      add\n      and\n      dup3\n      add\n      dup1\n      0x40\n      mstore\n      pop\n      dup2\n      add\n      swap1\n      tag_102\n      swap2\n      swap1\n      tag_83\n      jump\t// in\n    tag_102:\n        /* \"contracts/manager/TableManager.sol\":560:619  require(roleAccess.isAdmin(tx.origin), \"You are not admin\") */\n      tag_103\n      jumpi\n      mload(0x40)\n      shl(0xe5, 0x461bcd)\n      dup2\n      mstore\n      0x04\n      add\n      tag_70\n      swap1\n      tag_86\n      jump\t// in\n    tag_103:\n        /* \"contracts/manager/TableManager.sol\":2156:2172  tables[_tableId] */\n      0x00\n      dup2\n      dup2\n      mstore\n        /* \"contracts/manager/TableManager.sol\":2156:2162  tables */\n      0x03\n        /* \"contracts/manager/TableManager.sol\":2156:2172  tables[_tableId] */\n      0x20\n      mstore\n      0x40\n      dup2\n      keccak256\n        /* \"contracts/manager/TableManager.sol\":2156:2180  tables[_tableId].tableId */\n      sload\n        /* \"contracts/manager/TableManager.sol\":2156:2185  tables[_tableId].tableId != 0 */\n      swap1\n      sub\n        /* \"contracts/manager/TableManager.sol\":2148:2213  require(tables[_tableId].tableId != 0, \"Table ID does not exist\") */\n      tag_106\n      jumpi\n      mload(0x40)\n      shl(0xe5, 0x461bcd)\n      dup2\n      mstore\n        /* \"#utility.yul\":5798:5800   */\n      0x20\n        /* \"contracts/manager/TableManager.sol\":2148:2213  require(tables[_tableId].tableId != 0, \"Table ID does not exist\") */\n      0x04\n      dup3\n      add\n        /* \"#utility.yul\":5780:5801   */\n      mstore\n        /* \"#utility.yul\":5837:5839   */\n      0x17\n        /* \"#utility.yul\":5817:5835   */\n      0x24\n      dup3\n      add\n        /* \"#utility.yul\":5810:5840   */\n      mstore\n      shl(0x4a, 0x1518589b1948125108191bd95cc81b9bdd08195e1a5cdd)\n        /* \"#utility.yul\":5856:5874   */\n      0x44\n      dup3\n      add\n        /* \"#utility.yul\":5849:5902   */\n      mstore\n        /* \"#utility.yul\":5919:5937   */\n      0x64\n      add\n        /* \"contracts/manager/TableManager.sol\":2148:2213  require(tables[_tableId].tableId != 0, \"Table ID does not exist\") */\n      tag_70\n        /* \"#utility.yul\":5596:5943   */\n      jump\n        /* \"contracts/manager/TableManager.sol\":2148:2213  require(tables[_tableId].tableId != 0, \"Table ID does not exist\") */\n    tag_106:\n        /* \"contracts/manager/TableManager.sol\":2224:2236  orderManager */\n      sload(0x00)\n        /* \"contracts/manager/TableManager.sol\":2224:2272  orderManager.addTableForOrder(_orderId,_tableId) */\n      mload(0x40)\n      shl(0xe0, 0x914ee455)\n      dup2\n      mstore\n      0x04\n      dup2\n      add\n        /* \"#utility.yul\":6122:6147   */\n      dup5\n      swap1\n      mstore\n        /* \"#utility.yul\":6163:6181   */\n      0x24\n      dup2\n      add\n        /* \"#utility.yul\":6156:6190   */\n      dup4\n      swap1\n      mstore\n      sub(shl(0xa0, 0x01), 0x01)\n        /* \"contracts/manager/TableManager.sol\":2224:2236  orderManager */\n      swap1\n      swap2\n      and\n      swap1\n        /* \"contracts/manager/TableManager.sol\":2224:2253  orderManager.addTableForOrder */\n      0x914ee455\n      swap1\n        /* \"#utility.yul\":6095:6113   */\n      0x44\n      add\n        /* \"contracts/manager/TableManager.sol\":2224:2272  orderManager.addTableForOrder(_orderId,_tableId) */\n      0x00\n      mload(0x40)\n      dup1\n      dup4\n      sub\n      dup2\n      0x00\n      dup8\n      dup1\n      extcodesize\n      iszero\n      dup1\n      iszero\n      tag_111\n      jumpi\n      revert(0x00, 0x00)\n    tag_111:\n      pop\n      gas\n      call\n      iszero\n      dup1\n      iszero\n      tag_113\n      jumpi\n      returndatacopy(0x00, 0x00, returndatasize)\n      revert(0x00, returndatasize)\n    tag_113:\n      pop\n      pop\n        /* \"contracts/manager/TableManager.sol\":2288:2325  TableAddedToOrder( _tableId,_orderId) */\n      0x40\n      dup1\n      mload\n        /* \"#utility.yul\":6122:6147   */\n      dup5\n      dup2\n      mstore\n        /* \"#utility.yul\":6178:6180   */\n      0x20\n        /* \"#utility.yul\":6163:6181   */\n      dup2\n      add\n        /* \"#utility.yul\":6156:6190   */\n      dup7\n      swap1\n      mstore\n        /* \"contracts/manager/TableManager.sol\":2288:2325  TableAddedToOrder( _tableId,_orderId) */\n      0xce055a555634f6b775cab0652d8bf5b7b02d31fd077b3e4459d806099d5c032a\n      swap4\n      pop\n        /* \"#utility.yul\":6095:6113   */\n      add\n      swap1\n      pop\n        /* \"contracts/manager/TableManager.sol\":2288:2325  TableAddedToOrder( _tableId,_orderId) */\n    tag_114:\n      mload(0x40)\n      dup1\n      swap2\n      sub\n      swap1\n      log1\n        /* \"contracts/manager/TableManager.sol\":2055:2333  function addTableToOrder(uint _orderId, uint _tableId) external override onlyAdmin{... */\n      pop\n      pop\n      jump\t// out\n        /* \"contracts/manager/TableManager.sol\":2339:2601  function updateStatusTable(uint _tableId, TableStatus _status) external override onlyAdmin {... */\n    tag_50:\n        /* \"contracts/manager/TableManager.sol\":568:578  roleAccess */\n      sload(0x01)\n        /* \"contracts/manager/TableManager.sol\":568:597  roleAccess.isAdmin(tx.origin) */\n      mload(0x40)\n      shl(0xe2, 0x0935e01b)\n      dup2\n      mstore\n        /* \"contracts/manager/TableManager.sol\":587:596  tx.origin */\n      origin\n        /* \"contracts/manager/TableManager.sol\":568:597  roleAccess.isAdmin(tx.origin) */\n      0x04\n      dup3\n      add\n        /* \"#utility.yul\":1269:1320   */\n      mstore\n      sub(shl(0xa0, 0x01), 0x01)\n        /* \"contracts/manager/TableManager.sol\":568:578  roleAccess */\n      swap1\n      swap2\n      and\n      swap1\n        /* \"contracts/manager/TableManager.sol\":568:586  roleAccess.isAdmin */\n      0x24d7806c\n      swap1\n        /* \"#utility.yul\":1242:1260   */\n      0x24\n      add\n        /* \"contracts/manager/TableManager.sol\":568:597  roleAccess.isAdmin(tx.origin) */\n      0x20\n      mload(0x40)\n      dup1\n      dup4\n      sub\n      dup2\n      dup7\n      gas\n      staticcall\n      iszero\n      dup1\n      iszero\n      tag_118\n      jumpi\n      returndatacopy(0x00, 0x00, returndatasize)\n      revert(0x00, returndatasize)\n    tag_118:\n      pop\n      pop\n      pop\n      pop\n      mload(0x40)\n      returndatasize\n      not(0x1f)\n      0x1f\n      dup3\n      add\n      and\n      dup3\n      add\n      dup1\n      0x40\n      mstore\n      pop\n      dup2\n      add\n      swap1\n      tag_119\n      swap2\n      swap1\n      tag_83\n      jump\t// in\n    tag_119:\n        /* \"contracts/manager/TableManager.sol\":560:619  require(roleAccess.isAdmin(tx.origin), \"You are not admin\") */\n      tag_120\n      jumpi\n      mload(0x40)\n      shl(0xe5, 0x461bcd)\n      dup2\n      mstore\n      0x04\n      add\n      tag_70\n      swap1\n      tag_86\n      jump\t// in\n    tag_120:\n        /* \"contracts/manager/TableManager.sol\":2449:2465  tables[_tableId] */\n      0x00\n      dup3\n      dup2\n      mstore\n        /* \"contracts/manager/TableManager.sol\":2449:2455  tables */\n      0x03\n        /* \"contracts/manager/TableManager.sol\":2449:2465  tables[_tableId] */\n      0x20\n      mstore\n      0x40\n      dup2\n      keccak256\n        /* \"contracts/manager/TableManager.sol\":2449:2473  tables[_tableId].tableId */\n      sload\n        /* \"contracts/manager/TableManager.sol\":2449:2478  tables[_tableId].tableId != 0 */\n      swap1\n      sub\n        /* \"contracts/manager/TableManager.sol\":2441:2506  require(tables[_tableId].tableId != 0, \"Table ID does not exist\") */\n      tag_123\n      jumpi\n      mload(0x40)\n      shl(0xe5, 0x461bcd)\n      dup2\n      mstore\n        /* \"#utility.yul\":5798:5800   */\n      0x20\n        /* \"contracts/manager/TableManager.sol\":2441:2506  require(tables[_tableId].tableId != 0, \"Table ID does not exist\") */\n      0x04\n      dup3\n      add\n        /* \"#utility.yul\":5780:5801   */\n      mstore\n        /* \"#utility.yul\":5837:5839   */\n      0x17\n        /* \"#utility.yul\":5817:5835   */\n      0x24\n      dup3\n      add\n        /* \"#utility.yul\":5810:5840   */\n      mstore\n      shl(0x4a, 0x1518589b1948125108191bd95cc81b9bdd08195e1a5cdd)\n        /* \"#utility.yul\":5856:5874   */\n      0x44\n      dup3\n      add\n        /* \"#utility.yul\":5849:5902   */\n      mstore\n        /* \"#utility.yul\":5919:5937   */\n      0x64\n      add\n        /* \"contracts/manager/TableManager.sol\":2441:2506  require(tables[_tableId].tableId != 0, \"Table ID does not exist\") */\n      tag_70\n        /* \"#utility.yul\":5596:5943   */\n      jump\n        /* \"contracts/manager/TableManager.sol\":2441:2506  require(tables[_tableId].tableId != 0, \"Table ID does not exist\") */\n    tag_123:\n        /* \"contracts/manager/TableManager.sol\":2517:2533  tables[_tableId] */\n      0x00\n      dup3\n      dup2\n      mstore\n        /* \"contracts/manager/TableManager.sol\":2517:2523  tables */\n      0x03\n        /* \"contracts/manager/TableManager.sol\":2517:2533  tables[_tableId] */\n      0x20\n      dup2\n      swap1\n      mstore\n      0x40\n      swap1\n      swap2\n      keccak256\n        /* \"contracts/manager/TableManager.sol\":2517:2540  tables[_tableId].status */\n      add\n        /* \"contracts/manager/TableManager.sol\":2517:2550  tables[_tableId].status = _status */\n      dup1\n      sload\n        /* \"contracts/manager/TableManager.sol\":2543:2550  _status */\n      dup3\n      swap2\n        /* \"contracts/manager/TableManager.sol\":2517:2540  tables[_tableId].status */\n      swap1\n      not(0xff)\n        /* \"contracts/manager/TableManager.sol\":2517:2550  tables[_tableId].status = _status */\n      and\n      0x01\n        /* \"contracts/manager/TableManager.sol\":2543:2550  _status */\n      dup4\n        /* \"contracts/manager/TableManager.sol\":2517:2550  tables[_tableId].status = _status */\n      dup2\n      dup2\n      gt\n      iszero\n      tag_126\n      jumpi\n      tag_126\n      tag_74\n      jump\t// in\n    tag_126:\n      mul\n      or\n      swap1\n      sstore\n      pop\n        /* \"contracts/manager/TableManager.sol\":2566:2593  TableUpdatedStaus(_tableId) */\n      mload(0x40)\n        /* \"#utility.yul\":2378:2403   */\n      dup3\n      dup2\n      mstore\n        /* \"contracts/manager/TableManager.sol\":2566:2593  TableUpdatedStaus(_tableId) */\n      0x806e02512e08b8327ec991fdaf88cc26768ac76f54ec0ce459e8d1215d937167\n      swap1\n        /* \"#utility.yul\":2366:2368   */\n      0x20\n        /* \"#utility.yul\":2351:2369   */\n      add\n        /* \"contracts/manager/TableManager.sol\":2566:2593  TableUpdatedStaus(_tableId) */\n      tag_114\n        /* \"#utility.yul\":2232:2409   */\n      jump\n        /* \"contracts/manager/TableManager.sol\":645:774  function setOrderManager(address _orderManager) external onlyAdmin {... */\n    tag_54:\n        /* \"contracts/manager/TableManager.sol\":568:578  roleAccess */\n      sload(0x01)\n        /* \"contracts/manager/TableManager.sol\":568:597  roleAccess.isAdmin(tx.origin) */\n      mload(0x40)\n      shl(0xe2, 0x0935e01b)\n      dup2\n      mstore\n        /* \"contracts/manager/TableManager.sol\":587:596  tx.origin */\n      origin\n        /* \"contracts/manager/TableManager.sol\":568:597  roleAccess.isAdmin(tx.origin) */\n      0x04\n      dup3\n      add\n        /* \"#utility.yul\":1269:1320   */\n      mstore\n      sub(shl(0xa0, 0x01), 0x01)\n        /* \"contracts/manager/TableManager.sol\":568:578  roleAccess */\n      swap1\n      swap2\n      and\n      swap1\n        /* \"contracts/manager/TableManager.sol\":568:586  roleAccess.isAdmin */\n      0x24d7806c\n      swap1\n        /* \"#utility.yul\":1242:1260   */\n      0x24\n      add\n        /* \"contracts/manager/TableManager.sol\":568:597  roleAccess.isAdmin(tx.origin) */\n      0x20\n      mload(0x40)\n      dup1\n      dup4\n      sub\n      dup2\n      dup7\n      gas\n      staticcall\n      iszero\n      dup1\n      iszero\n      tag_131\n      jumpi\n      returndatacopy(0x00, 0x00, returndatasize)\n      revert(0x00, returndatasize)\n    tag_131:\n      pop\n      pop\n      pop\n      pop\n      mload(0x40)\n      returndatasize\n      not(0x1f)\n      0x1f\n      dup3\n      add\n      and\n      dup3\n      add\n      dup1\n      0x40\n      mstore\n      pop\n      dup2\n      add\n      swap1\n      tag_132\n      swap2\n      swap1\n      tag_83\n      jump\t// in\n    tag_132:\n        /* \"contracts/manager/TableManager.sol\":560:619  require(roleAccess.isAdmin(tx.origin), \"You are not admin\") */\n      tag_133\n      jumpi\n      mload(0x40)\n      shl(0xe5, 0x461bcd)\n      dup2\n      mstore\n      0x04\n      add\n      tag_70\n      swap1\n      tag_86\n      jump\t// in\n    tag_133:\n        /* \"contracts/manager/TableManager.sol\":723:735  orderManager */\n      0x00\n        /* \"contracts/manager/TableManager.sol\":723:766  orderManager = IOrderManager(_orderManager) */\n      dup1\n      sload\n      not(sub(shl(0xa0, 0x01), 0x01))\n      and\n      sub(shl(0xa0, 0x01), 0x01)\n      swap3\n      swap1\n      swap3\n      and\n      swap2\n      swap1\n      swap2\n      or\n      swap1\n      sstore\n        /* \"contracts/manager/TableManager.sol\":645:774  function setOrderManager(address _orderManager) external onlyAdmin {... */\n      jump\t// out\n        /* \"contracts/manager/TableManager.sol\":782:1245  function addTable(uint _row, uint _col) external override onlyAdmin returns (uint) {... */\n    tag_57:\n        /* \"contracts/manager/TableManager.sol\":568:578  roleAccess */\n      sload(0x01)\n        /* \"contracts/manager/TableManager.sol\":568:597  roleAccess.isAdmin(tx.origin) */\n      mload(0x40)\n      shl(0xe2, 0x0935e01b)\n      dup2\n      mstore\n        /* \"contracts/manager/TableManager.sol\":587:596  tx.origin */\n      origin\n        /* \"contracts/manager/TableManager.sol\":568:597  roleAccess.isAdmin(tx.origin) */\n      0x04\n      dup3\n      add\n        /* \"#utility.yul\":1269:1320   */\n      mstore\n        /* \"contracts/manager/TableManager.sol\":859:863  uint */\n      0x00\n      swap2\n      sub(shl(0xa0, 0x01), 0x01)\n        /* \"contracts/manager/TableManager.sol\":568:578  roleAccess */\n      and\n      swap1\n        /* \"contracts/manager/TableManager.sol\":568:586  roleAccess.isAdmin */\n      0x24d7806c\n      swap1\n        /* \"#utility.yul\":1242:1260   */\n      0x24\n      add\n        /* \"contracts/manager/TableManager.sol\":568:597  roleAccess.isAdmin(tx.origin) */\n      0x20\n      mload(0x40)\n      dup1\n      dup4\n      sub\n      dup2\n      dup7\n      gas\n      staticcall\n      iszero\n      dup1\n      iszero\n      tag_139\n      jumpi\n      returndatacopy(0x00, 0x00, returndatasize)\n      revert(0x00, returndatasize)\n    tag_139:\n      pop\n      pop\n      pop\n      pop\n      mload(0x40)\n      returndatasize\n      not(0x1f)\n      0x1f\n      dup3\n      add\n      and\n      dup3\n      add\n      dup1\n      0x40\n      mstore\n      pop\n      dup2\n      add\n      swap1\n      tag_140\n      swap2\n      swap1\n      tag_83\n      jump\t// in\n    tag_140:\n        /* \"contracts/manager/TableManager.sol\":560:619  require(roleAccess.isAdmin(tx.origin), \"You are not admin\") */\n      tag_141\n      jumpi\n      mload(0x40)\n      shl(0xe5, 0x461bcd)\n      dup2\n      mstore\n      0x04\n      add\n      tag_70\n      swap1\n      tag_86\n      jump\t// in\n    tag_141:\n        /* \"contracts/manager/TableManager.sol\":891:892  0 */\n      0x00\n        /* \"contracts/manager/TableManager.sol\":884:888  _row */\n      dup4\n        /* \"contracts/manager/TableManager.sol\":884:892  _row > 0 */\n      gt\n        /* \"contracts/manager/TableManager.sol\":884:904  _row > 0 && _col > 0 */\n      dup1\n      iszero\n      tag_144\n      jumpi\n      pop\n        /* \"contracts/manager/TableManager.sol\":903:904  0 */\n      0x00\n        /* \"contracts/manager/TableManager.sol\":896:900  _col */\n      dup3\n        /* \"contracts/manager/TableManager.sol\":896:904  _col > 0 */\n      gt\n        /* \"contracts/manager/TableManager.sol\":884:904  _row > 0 && _col > 0 */\n    tag_144:\n        /* \"contracts/manager/TableManager.sol\":876:946  require(_row > 0 && _col > 0, \"Row and column must be greater than 0\") */\n      tag_145\n      jumpi\n      mload(0x40)\n      shl(0xe5, 0x461bcd)\n      dup2\n      mstore\n      0x04\n      add\n      tag_70\n      swap1\n      tag_93\n      jump\t// in\n    tag_145:\n        /* \"contracts/manager/TableManager.sol\":975:986  nextTableId */\n      0x02\n        /* \"contracts/manager/TableManager.sol\":975:988  nextTableId++ */\n      dup1\n      sload\n        /* \"contracts/manager/TableManager.sol\":957:972  uint newTableId */\n      0x00\n      swap2\n      dup3\n        /* \"contracts/manager/TableManager.sol\":975:988  nextTableId++ */\n      tag_147\n      dup4\n      tag_148\n      jump\t// in\n    tag_147:\n      swap2\n      swap1\n      pop\n      sstore\n        /* \"contracts/manager/TableManager.sol\":957:988  uint newTableId = nextTableId++ */\n      swap1\n      pop\n        /* \"contracts/manager/TableManager.sol\":1020:1159  Table({... */\n      mload(0x40)\n      dup1\n      0x80\n      add\n      0x40\n      mstore\n      dup1\n        /* \"contracts/manager/TableManager.sol\":1050:1060  newTableId */\n      dup3\n        /* \"contracts/manager/TableManager.sol\":1020:1159  Table({... */\n      dup2\n      mstore\n      0x20\n      add\n        /* \"contracts/manager/TableManager.sol\":1080:1084  _row */\n      dup6\n        /* \"contracts/manager/TableManager.sol\":1020:1159  Table({... */\n      dup2\n      mstore\n      0x20\n      add\n        /* \"contracts/manager/TableManager.sol\":1104:1108  _col */\n      dup5\n        /* \"contracts/manager/TableManager.sol\":1020:1159  Table({... */\n      dup2\n      mstore\n      0x20\n      add\n        /* \"contracts/manager/TableManager.sol\":1131:1147  TableStatus.Free */\n      0x00\n        /* \"contracts/manager/TableManager.sol\":1020:1159  Table({... */\n      0x01\n      dup2\n      gt\n      iszero\n      tag_150\n      jumpi\n      tag_150\n      tag_74\n      jump\t// in\n    tag_150:\n      swap1\n      mstore\n        /* \"contracts/manager/TableManager.sol\":999:1017  tables[newTableId] */\n      0x00\n      dup3\n      dup2\n      mstore\n        /* \"contracts/manager/TableManager.sol\":999:1005  tables */\n      0x03\n        /* \"contracts/manager/TableManager.sol\":999:1017  tables[newTableId] */\n      0x20\n      dup2\n      dup2\n      mstore\n      0x40\n      swap3\n      dup4\n      swap1\n      keccak256\n        /* \"contracts/manager/TableManager.sol\":999:1159  tables[newTableId] = Table({... */\n      dup5\n      mload\n      dup2\n      sstore\n      swap1\n      dup5\n      add\n      mload\n      0x01\n      dup1\n      dup4\n      add\n      swap2\n      swap1\n      swap2\n      sstore\n      swap3\n      dup5\n      add\n      mload\n      0x02\n      dup3\n      add\n      sstore\n      0x60\n      dup5\n      add\n      mload\n      swap2\n      dup2\n      add\n      dup1\n      sload\n        /* \"contracts/manager/TableManager.sol\":999:1017  tables[newTableId] */\n      swap2\n      swap4\n        /* \"contracts/manager/TableManager.sol\":999:1159  tables[newTableId] = Table({... */\n      swap1\n      swap2\n      not(0xff)\n      and\n      swap1\n      dup4\n      dup2\n      dup2\n      gt\n      iszero\n      tag_152\n      jumpi\n      tag_152\n      tag_74\n      jump\t// in\n    tag_152:\n      mul\n      or\n      swap1\n      sstore\n      pop\n      pop\n        /* \"contracts/manager/TableManager.sol\":1175:1209  TableAdded(newTableId, _row, _col) */\n      0x40\n      dup1\n      mload\n        /* \"#utility.yul\":5474:5499   */\n      dup4\n      dup2\n      mstore\n        /* \"#utility.yul\":5530:5532   */\n      0x20\n        /* \"#utility.yul\":5515:5533   */\n      dup2\n      add\n        /* \"#utility.yul\":5508:5542   */\n      dup8\n      swap1\n      mstore\n        /* \"#utility.yul\":5558:5576   */\n      swap1\n      dup2\n      add\n        /* \"#utility.yul\":5551:5585   */\n      dup6\n      swap1\n      mstore\n        /* \"contracts/manager/TableManager.sol\":1175:1209  TableAdded(newTableId, _row, _col) */\n      0x7c625ad207b65d4c400b3daab560616556395dfe69ebc199b59250c837db78e3\n      swap2\n      pop\n        /* \"#utility.yul\":5462:5464   */\n      0x60\n        /* \"#utility.yul\":5447:5465   */\n      add\n        /* \"contracts/manager/TableManager.sol\":1175:1209  TableAdded(newTableId, _row, _col) */\n      mload(0x40)\n      dup1\n      swap2\n      sub\n      swap1\n      log1\n        /* \"contracts/manager/TableManager.sol\":1227:1237  newTableId */\n      swap4\n        /* \"contracts/manager/TableManager.sol\":782:1245  function addTable(uint _row, uint _col) external override onlyAdmin returns (uint) {... */\n      swap3\n      pop\n      pop\n      pop\n      jump\t// out\n        /* \"contracts/manager/TableManager.sol\":1635:1843  function deleteTable(uint _tableId) external override  {... */\n    tag_61:\n        /* \"contracts/manager/TableManager.sol\":1709:1725  tables[_tableId] */\n      0x00\n      dup2\n      dup2\n      mstore\n        /* \"contracts/manager/TableManager.sol\":1709:1715  tables */\n      0x03\n        /* \"contracts/manager/TableManager.sol\":1709:1725  tables[_tableId] */\n      0x20\n      mstore\n      0x40\n      dup2\n      keccak256\n        /* \"contracts/manager/TableManager.sol\":1709:1733  tables[_tableId].tableId */\n      sload\n        /* \"contracts/manager/TableManager.sol\":1709:1738  tables[_tableId].tableId != 0 */\n      swap1\n      sub\n        /* \"contracts/manager/TableManager.sol\":1701:1763  require(tables[_tableId].tableId != 0, \"Table does not exist\") */\n      tag_155\n      jumpi\n      mload(0x40)\n      shl(0xe5, 0x461bcd)\n      dup2\n      mstore\n      0x04\n      add\n      tag_70\n      swap1\n      tag_71\n      jump\t// in\n    tag_155:\n        /* \"contracts/manager/TableManager.sol\":1781:1797  tables[_tableId] */\n      0x00\n      dup2\n      dup2\n      mstore\n        /* \"contracts/manager/TableManager.sol\":1781:1787  tables */\n      0x03\n        /* \"contracts/manager/TableManager.sol\":1781:1797  tables[_tableId] */\n      0x20\n      dup2\n      swap1\n      mstore\n      0x40\n      dup1\n      dup4\n      keccak256\n        /* \"contracts/manager/TableManager.sol\":1774:1797  delete tables[_tableId] */\n      dup4\n      dup2\n      sstore\n      0x01\n      dup2\n      add\n      dup5\n      swap1\n      sstore\n      0x02\n      dup2\n      add\n      swap4\n      swap1\n      swap4\n      sstore\n      swap2\n      add\n      dup1\n      sload\n      not(0xff)\n      and\n      swap1\n      sstore\n        /* \"contracts/manager/TableManager.sol\":1813:1835  TableDeleted(_tableId) */\n      mload\n      0xe9acaee49f406ba06f0464ee11615009a1b531e51e3e9d4427228acae8a4e6ba\n      swap1\n      tag_157\n      swap1\n        /* \"contracts/manager/TableManager.sol\":1788:1796  _tableId */\n      dup4\n        /* \"#utility.yul\":2378:2403   */\n      dup2\n      mstore\n        /* \"#utility.yul\":2366:2368   */\n      0x20\n        /* \"#utility.yul\":2351:2369   */\n      add\n      swap1\n        /* \"#utility.yul\":2232:2409   */\n      jump\n        /* \"contracts/manager/TableManager.sol\":1813:1835  TableDeleted(_tableId) */\n    tag_157:\n      mload(0x40)\n      dup1\n      swap2\n      sub\n      swap1\n      log1\n        /* \"contracts/manager/TableManager.sol\":1635:1843  function deleteTable(uint _tableId) external override  {... */\n      pop\n      jump\t// out\n    tag_67:\n      mload(0x40)\n      dup1\n      0x80\n      add\n      0x40\n      mstore\n      dup1\n      0x00\n      dup2\n      mstore\n      0x20\n      add\n      0x00\n      dup2\n      mstore\n      0x20\n      add\n      0x00\n      dup2\n      mstore\n      0x20\n      add\n      0x00\n      0x01\n      dup2\n      gt\n      iszero\n      tag_159\n      jumpi\n      tag_159\n      tag_74\n      jump\t// in\n    tag_159:\n      swap1\n      mstore\n      swap1\n      jump\t// out\n        /* \"#utility.yul\":14:240   */\n    tag_18:\n        /* \"#utility.yul\":73:79   */\n      0x00\n        /* \"#utility.yul\":126:128   */\n      0x20\n        /* \"#utility.yul\":114:123   */\n      dup3\n        /* \"#utility.yul\":105:112   */\n      dup5\n        /* \"#utility.yul\":101:124   */\n      sub\n        /* \"#utility.yul\":97:129   */\n      slt\n        /* \"#utility.yul\":94:146   */\n      iszero\n      tag_163\n      jumpi\n        /* \"#utility.yul\":142:143   */\n      0x00\n        /* \"#utility.yul\":139:140   */\n      0x00\n        /* \"#utility.yul\":132:144   */\n      revert\n        /* \"#utility.yul\":94:146   */\n    tag_163:\n      pop\n        /* \"#utility.yul\":187:210   */\n      calldataload\n      swap2\n        /* \"#utility.yul\":14:240   */\n      swap1\n      pop\n      jump\t// out\n        /* \"#utility.yul\":245:372   */\n    tag_74:\n        /* \"#utility.yul\":306:316   */\n      0x4e487b71\n        /* \"#utility.yul\":301:304   */\n      0xe0\n        /* \"#utility.yul\":297:317   */\n      shl\n        /* \"#utility.yul\":294:295   */\n      0x00\n        /* \"#utility.yul\":287:318   */\n      mstore\n        /* \"#utility.yul\":337:341   */\n      0x21\n        /* \"#utility.yul\":334:335   */\n      0x04\n        /* \"#utility.yul\":327:342   */\n      mstore\n        /* \"#utility.yul\":361:365   */\n      0x24\n        /* \"#utility.yul\":358:359   */\n      0x00\n        /* \"#utility.yul\":351:366   */\n      revert\n        /* \"#utility.yul\":377:616   */\n    tag_160:\n        /* \"#utility.yul\":460:461   */\n      0x02\n        /* \"#utility.yul\":453:458   */\n      dup2\n        /* \"#utility.yul\":450:462   */\n      lt\n        /* \"#utility.yul\":440:583   */\n      tag_166\n      jumpi\n        /* \"#utility.yul\":505:515   */\n      0x4e487b71\n        /* \"#utility.yul\":500:503   */\n      0xe0\n        /* \"#utility.yul\":496:516   */\n      shl\n        /* \"#utility.yul\":493:494   */\n      0x00\n        /* \"#utility.yul\":486:517   */\n      mstore\n        /* \"#utility.yul\":540:544   */\n      0x21\n        /* \"#utility.yul\":537:538   */\n      0x04\n        /* \"#utility.yul\":530:545   */\n      mstore\n        /* \"#utility.yul\":568:572   */\n      0x24\n        /* \"#utility.yul\":565:566   */\n      0x00\n        /* \"#utility.yul\":558:573   */\n      revert\n        /* \"#utility.yul\":440:583   */\n    tag_166:\n        /* \"#utility.yul\":592:610   */\n      swap1\n      mstore\n        /* \"#utility.yul\":377:616   */\n      jump\t// out\n        /* \"#utility.yul\":621:1101   */\n    tag_21:\n        /* \"#utility.yul\":757:761   */\n      0x00\n        /* \"#utility.yul\":799:802   */\n      0x80\n        /* \"#utility.yul\":788:797   */\n      dup3\n        /* \"#utility.yul\":784:803   */\n      add\n        /* \"#utility.yul\":776:803   */\n      swap1\n      pop\n        /* \"#utility.yul\":836:842   */\n      dup3\n        /* \"#utility.yul\":830:843   */\n      mload\n        /* \"#utility.yul\":819:828   */\n      dup3\n        /* \"#utility.yul\":812:844   */\n      mstore\n        /* \"#utility.yul\":900:904   */\n      0x20\n        /* \"#utility.yul\":892:898   */\n      dup4\n        /* \"#utility.yul\":888:905   */\n      add\n        /* \"#utility.yul\":882:906   */\n      mload\n        /* \"#utility.yul\":875:879   */\n      0x20\n        /* \"#utility.yul\":864:873   */\n      dup4\n        /* \"#utility.yul\":860:880   */\n      add\n        /* \"#utility.yul\":853:907   */\n      mstore\n        /* \"#utility.yul\":963:967   */\n      0x40\n        /* \"#utility.yul\":955:961   */\n      dup4\n        /* \"#utility.yul\":951:968   */\n      add\n        /* \"#utility.yul\":945:969   */\n      mload\n        /* \"#utility.yul\":938:942   */\n      0x40\n        /* \"#utility.yul\":927:936   */\n      dup4\n        /* \"#utility.yul\":923:943   */\n      add\n        /* \"#utility.yul\":916:970   */\n      mstore\n        /* \"#utility.yul\":1017:1021   */\n      0x60\n        /* \"#utility.yul\":1009:1015   */\n      dup4\n        /* \"#utility.yul\":1005:1022   */\n      add\n        /* \"#utility.yul\":999:1023   */\n      mload\n        /* \"#utility.yul\":1032:1095   */\n      tag_168\n        /* \"#utility.yul\":1089:1093   */\n      0x60\n        /* \"#utility.yul\":1078:1087   */\n      dup5\n        /* \"#utility.yul\":1074:1094   */\n      add\n        /* \"#utility.yul\":1060:1072   */\n      dup3\n        /* \"#utility.yul\":1032:1095   */\n      tag_160\n      jump\t// in\n    tag_168:\n      pop\n        /* \"#utility.yul\":621:1101   */\n      swap3\n      swap2\n      pop\n      pop\n      jump\t// out\n        /* \"#utility.yul\":1331:1797   */\n    tag_28:\n        /* \"#utility.yul\":1408:1414   */\n      0x00\n        /* \"#utility.yul\":1416:1422   */\n      0x00\n        /* \"#utility.yul\":1424:1430   */\n      0x00\n        /* \"#utility.yul\":1477:1479   */\n      0x60\n        /* \"#utility.yul\":1465:1474   */\n      dup5\n        /* \"#utility.yul\":1456:1463   */\n      dup7\n        /* \"#utility.yul\":1452:1475   */\n      sub\n        /* \"#utility.yul\":1448:1480   */\n      slt\n        /* \"#utility.yul\":1445:1497   */\n      iszero\n      tag_171\n      jumpi\n        /* \"#utility.yul\":1493:1494   */\n      0x00\n        /* \"#utility.yul\":1490:1491   */\n      0x00\n        /* \"#utility.yul\":1483:1495   */\n      revert\n        /* \"#utility.yul\":1445:1497   */\n    tag_171:\n      pop\n      pop\n        /* \"#utility.yul\":1538:1561   */\n      dup2\n      calldataload\n      swap4\n        /* \"#utility.yul\":1658:1660   */\n      0x20\n        /* \"#utility.yul\":1643:1661   */\n      dup4\n      add\n        /* \"#utility.yul\":1630:1662   */\n      calldataload\n      swap4\n      pop\n        /* \"#utility.yul\":1761:1763   */\n      0x40\n        /* \"#utility.yul\":1746:1764   */\n      swap1\n      swap3\n      add\n        /* \"#utility.yul\":1733:1765   */\n      calldataload\n      swap2\n        /* \"#utility.yul\":1331:1797   */\n      swap1\n      pop\n      jump\t// out\n        /* \"#utility.yul\":1802:2227   */\n    tag_34:\n        /* \"#utility.yul\":2046:2071   */\n      dup5\n      dup2\n      mstore\n        /* \"#utility.yul\":2102:2104   */\n      0x20\n        /* \"#utility.yul\":2087:2105   */\n      dup2\n      add\n        /* \"#utility.yul\":2080:2114   */\n      dup5\n      swap1\n      mstore\n        /* \"#utility.yul\":2145:2147   */\n      0x40\n        /* \"#utility.yul\":2130:2148   */\n      dup2\n      add\n        /* \"#utility.yul\":2123:2157   */\n      dup4\n      swap1\n      mstore\n        /* \"#utility.yul\":2033:2036   */\n      0x80\n        /* \"#utility.yul\":2018:2037   */\n      dup2\n      add\n        /* \"#utility.yul\":2166:2221   */\n      tag_173\n        /* \"#utility.yul\":2217:2219   */\n      0x60\n        /* \"#utility.yul\":2202:2220   */\n      dup4\n      add\n        /* \"#utility.yul\":2194:2200   */\n      dup5\n        /* \"#utility.yul\":2166:2221   */\n      tag_160\n      jump\t// in\n    tag_173:\n        /* \"#utility.yul\":1802:2227   */\n      swap6\n      swap5\n      pop\n      pop\n      pop\n      pop\n      pop\n      jump\t// out\n        /* \"#utility.yul\":2414:2760   */\n    tag_41:\n        /* \"#utility.yul\":2482:2488   */\n      0x00\n        /* \"#utility.yul\":2490:2496   */\n      0x00\n        /* \"#utility.yul\":2543:2545   */\n      0x40\n        /* \"#utility.yul\":2531:2540   */\n      dup4\n        /* \"#utility.yul\":2522:2529   */\n      dup6\n        /* \"#utility.yul\":2518:2541   */\n      sub\n        /* \"#utility.yul\":2514:2546   */\n      slt\n        /* \"#utility.yul\":2511:2563   */\n      iszero\n      tag_176\n      jumpi\n        /* \"#utility.yul\":2559:2560   */\n      0x00\n        /* \"#utility.yul\":2556:2557   */\n      0x00\n        /* \"#utility.yul\":2549:2561   */\n      revert\n        /* \"#utility.yul\":2511:2563   */\n    tag_176:\n      pop\n      pop\n        /* \"#utility.yul\":2604:2627   */\n      dup1\n      calldataload\n      swap3\n        /* \"#utility.yul\":2724:2726   */\n      0x20\n        /* \"#utility.yul\":2709:2727   */\n      swap1\n      swap2\n      add\n        /* \"#utility.yul\":2696:2728   */\n      calldataload\n      swap2\n      pop\n        /* \"#utility.yul\":2414:2760   */\n      jump\t// out\n        /* \"#utility.yul\":2765:3156   */\n    tag_49:\n        /* \"#utility.yul\":2848:2854   */\n      0x00\n        /* \"#utility.yul\":2856:2862   */\n      0x00\n        /* \"#utility.yul\":2909:2911   */\n      0x40\n        /* \"#utility.yul\":2897:2906   */\n      dup4\n        /* \"#utility.yul\":2888:2895   */\n      dup6\n        /* \"#utility.yul\":2884:2907   */\n      sub\n        /* \"#utility.yul\":2880:2912   */\n      slt\n        /* \"#utility.yul\":2877:2929   */\n      iszero\n      tag_178\n      jumpi\n        /* \"#utility.yul\":2925:2926   */\n      0x00\n        /* \"#utility.yul\":2922:2923   */\n      0x00\n        /* \"#utility.yul\":2915:2927   */\n      revert\n        /* \"#utility.yul\":2877:2929   */\n    tag_178:\n        /* \"#utility.yul\":2970:2993   */\n      dup3\n      calldataload\n      swap2\n      pop\n        /* \"#utility.yul\":3069:3071   */\n      0x20\n        /* \"#utility.yul\":3054:3072   */\n      dup4\n      add\n        /* \"#utility.yul\":3041:3073   */\n      calldataload\n        /* \"#utility.yul\":3104:3105   */\n      0x02\n        /* \"#utility.yul\":3092:3106   */\n      dup2\n      lt\n        /* \"#utility.yul\":3082:3124   */\n      tag_179\n      jumpi\n        /* \"#utility.yul\":3120:3121   */\n      0x00\n        /* \"#utility.yul\":3117:3118   */\n      0x00\n        /* \"#utility.yul\":3110:3122   */\n      revert\n        /* \"#utility.yul\":3082:3124   */\n    tag_179:\n        /* \"#utility.yul\":3143:3150   */\n      dup1\n        /* \"#utility.yul\":3133:3150   */\n      swap2\n      pop\n      pop\n        /* \"#utility.yul\":2765:3156   */\n      swap3\n      pop\n      swap3\n      swap1\n      pop\n      jump\t// out\n        /* \"#utility.yul\":3161:3447   */\n    tag_53:\n        /* \"#utility.yul\":3220:3226   */\n      0x00\n        /* \"#utility.yul\":3273:3275   */\n      0x20\n        /* \"#utility.yul\":3261:3270   */\n      dup3\n        /* \"#utility.yul\":3252:3259   */\n      dup5\n        /* \"#utility.yul\":3248:3271   */\n      sub\n        /* \"#utility.yul\":3244:3276   */\n      slt\n        /* \"#utility.yul\":3241:3293   */\n      iszero\n      tag_181\n      jumpi\n        /* \"#utility.yul\":3289:3290   */\n      0x00\n        /* \"#utility.yul\":3286:3287   */\n      0x00\n        /* \"#utility.yul\":3279:3291   */\n      revert\n        /* \"#utility.yul\":3241:3293   */\n    tag_181:\n        /* \"#utility.yul\":3315:3338   */\n      dup2\n      calldataload\n      sub(shl(0xa0, 0x01), 0x01)\n        /* \"#utility.yul\":3367:3398   */\n      dup2\n      and\n        /* \"#utility.yul\":3357:3399   */\n      dup2\n      eq\n        /* \"#utility.yul\":3347:3417   */\n      tag_182\n      jumpi\n        /* \"#utility.yul\":3413:3414   */\n      0x00\n        /* \"#utility.yul\":3410:3411   */\n      0x00\n        /* \"#utility.yul\":3403:3415   */\n      revert\n        /* \"#utility.yul\":3347:3417   */\n    tag_182:\n        /* \"#utility.yul\":3436:3441   */\n      swap4\n        /* \"#utility.yul\":3161:3447   */\n      swap3\n      pop\n      pop\n      pop\n      jump\t// out\n        /* \"#utility.yul\":3681:4025   */\n    tag_71:\n        /* \"#utility.yul\":3883:3885   */\n      0x20\n        /* \"#utility.yul\":3865:3886   */\n      dup1\n      dup3\n      mstore\n        /* \"#utility.yul\":3922:3924   */\n      0x14\n        /* \"#utility.yul\":3902:3920   */\n      swap1\n      dup3\n      add\n        /* \"#utility.yul\":3895:3925   */\n      mstore\n      shl(0x62, 0x1518589b1948191bd95cc81b9bdd08195e1a5cdd)\n        /* \"#utility.yul\":3956:3958   */\n      0x40\n        /* \"#utility.yul\":3941:3959   */\n      dup3\n      add\n        /* \"#utility.yul\":3934:3984   */\n      mstore\n        /* \"#utility.yul\":4016:4018   */\n      0x60\n        /* \"#utility.yul\":4001:4019   */\n      add\n      swap1\n        /* \"#utility.yul\":3681:4025   */\n      jump\t// out\n        /* \"#utility.yul\":4238:4515   */\n    tag_83:\n        /* \"#utility.yul\":4305:4311   */\n      0x00\n        /* \"#utility.yul\":4358:4360   */\n      0x20\n        /* \"#utility.yul\":4346:4355   */\n      dup3\n        /* \"#utility.yul\":4337:4344   */\n      dup5\n        /* \"#utility.yul\":4333:4356   */\n      sub\n        /* \"#utility.yul\":4329:4361   */\n      slt\n        /* \"#utility.yul\":4326:4378   */\n      iszero\n      tag_187\n      jumpi\n        /* \"#utility.yul\":4374:4375   */\n      0x00\n        /* \"#utility.yul\":4371:4372   */\n      0x00\n        /* \"#utility.yul\":4364:4376   */\n      revert\n        /* \"#utility.yul\":4326:4378   */\n    tag_187:\n        /* \"#utility.yul\":4406:4415   */\n      dup2\n        /* \"#utility.yul\":4400:4416   */\n      mload\n        /* \"#utility.yul\":4459:4464   */\n      dup1\n        /* \"#utility.yul\":4452:4465   */\n      iszero\n        /* \"#utility.yul\":4445:4466   */\n      iszero\n        /* \"#utility.yul\":4438:4443   */\n      dup2\n        /* \"#utility.yul\":4435:4467   */\n      eq\n        /* \"#utility.yul\":4425:4485   */\n      tag_182\n      jumpi\n        /* \"#utility.yul\":4481:4482   */\n      0x00\n        /* \"#utility.yul\":4478:4479   */\n      0x00\n        /* \"#utility.yul\":4471:4483   */\n      revert\n        /* \"#utility.yul\":4520:4861   */\n    tag_86:\n        /* \"#utility.yul\":4722:4724   */\n      0x20\n        /* \"#utility.yul\":4704:4725   */\n      dup1\n      dup3\n      mstore\n        /* \"#utility.yul\":4761:4763   */\n      0x11\n        /* \"#utility.yul\":4741:4759   */\n      swap1\n      dup3\n      add\n        /* \"#utility.yul\":4734:4764   */\n      mstore\n      shl(0x79, 0x2cb7ba9030b932903737ba1030b236b4b7)\n        /* \"#utility.yul\":4795:4797   */\n      0x40\n        /* \"#utility.yul\":4780:4798   */\n      dup3\n      add\n        /* \"#utility.yul\":4773:4820   */\n      mstore\n        /* \"#utility.yul\":4852:4854   */\n      0x60\n        /* \"#utility.yul\":4837:4855   */\n      add\n      swap1\n        /* \"#utility.yul\":4520:4861   */\n      jump\t// out\n        /* \"#utility.yul\":4866:5267   */\n    tag_93:\n        /* \"#utility.yul\":5068:5070   */\n      0x20\n        /* \"#utility.yul\":5050:5071   */\n      dup1\n      dup3\n      mstore\n        /* \"#utility.yul\":5107:5109   */\n      0x25\n        /* \"#utility.yul\":5087:5105   */\n      swap1\n      dup3\n      add\n        /* \"#utility.yul\":5080:5110   */\n      mstore\n        /* \"#utility.yul\":5146:5180   */\n      0x526f7720616e6420636f6c756d6e206d75737420626520677265617465722074\n        /* \"#utility.yul\":5141:5143   */\n      0x40\n        /* \"#utility.yul\":5126:5144   */\n      dup3\n      add\n        /* \"#utility.yul\":5119:5181   */\n      mstore\n      shl(0xdc, 0x068616e203)\n        /* \"#utility.yul\":5212:5214   */\n      0x60\n        /* \"#utility.yul\":5197:5215   */\n      dup3\n      add\n        /* \"#utility.yul\":5190:5225   */\n      mstore\n        /* \"#utility.yul\":5257:5260   */\n      0x80\n        /* \"#utility.yul\":5242:5261   */\n      add\n      swap1\n        /* \"#utility.yul\":4866:5267   */\n      jump\t// out\n        /* \"#utility.yul\":6201:6433   */\n    tag_148:\n        /* \"#utility.yul\":6240:6243   */\n      0x00\n        /* \"#utility.yul\":6261:6278   */\n      0x01\n      dup3\n      add\n        /* \"#utility.yul\":6258:6398   */\n      tag_195\n      jumpi\n        /* \"#utility.yul\":6320:6330   */\n      0x4e487b71\n        /* \"#utility.yul\":6315:6318   */\n      0xe0\n        /* \"#utility.yul\":6311:6331   */\n      shl\n        /* \"#utility.yul\":6308:6309   */\n      0x00\n        /* \"#utility.yul\":6301:6332   */\n      mstore\n        /* \"#utility.yul\":6355:6359   */\n      0x11\n        /* \"#utility.yul\":6352:6353   */\n      0x04\n        /* \"#utility.yul\":6345:6360   */\n      mstore\n        /* \"#utility.yul\":6383:6387   */\n      0x24\n        /* \"#utility.yul\":6380:6381   */\n      0x00\n        /* \"#utility.yul\":6373:6388   */\n      revert\n        /* \"#utility.yul\":6258:6398   */\n    tag_195:\n      pop\n        /* \"#utility.yul\":6425:6426   */\n      0x01\n        /* \"#utility.yul\":6414:6427   */\n      add\n      swap1\n        /* \"#utility.yul\":6201:6433   */\n      jump\t// out\n\n    auxdata: 0xa26469706673582212208ee46faa8cda48a6d2883e15ffb18b66c781c3e8086977d31c7542e191e392f064736f6c634300081e0033\n}\n",
				"bytecode": {
					"linkReferences": {},
					"object": "608060405260016002553480156013575f5ffd5b50604051610cd0380380610cd08339810160408190526030916054565b600180546001600160a01b0319166001600160a01b0392909216919091179055607f565b5f602082840312156063575f5ffd5b81516001600160a01b03811681146078575f5ffd5b9392505050565b610c448061008c5f395ff3fe608060405234801561000f575f5ffd5b50600436106100b1575f3560e01c806395ebcb241161006e57806395ebcb2414610191578063b4afd52c146101a4578063c0da840d146101b7578063e1f1c48d146101ca578063e6f318c6146101dd578063f9b6117f146101f0575f5ffd5b80633844ac5b146100b557806342f54b89146100de5780635cfd66071461010957806371671bf21461011e57806388a01cd71461016757806390c864351461017e575b5f5ffd5b6100c86100c33660046109d8565b610202565b6040516100d59190610a23565b60405180910390f35b6001546100f1906001600160a01b031681565b6040516001600160a01b0390911681526020016100d5565b61011c610117366004610a5b565b6102b5565b005b61015761012c3660046109d8565b600360208190525f918252604090912080546001820154600283015492909301549092919060ff1684565b6040516100d59493929190610a84565b61017060025481565b6040519081526020016100d5565b61017061018c366004610aaf565b6103f2565b61011c61019f366004610aaf565b61041d565b61011c6101b2366004610acf565b610597565b61011c6101c5366004610b00565b6106d5565b6101706101d8366004610aaf565b61077c565b61011c6101eb3660046109d8565b610911565b5f546100f1906001600160a01b031681565b61020a6109a4565b5f82815260036020526040812054900361023f5760405162461bcd60e51b815260040161023690610b2d565b60405180910390fd5b60035f8381526020019081526020015f206040518060800160405290815f82015481526020016001820154815260200160028201548152602001600382015f9054906101000a900460ff16600181111561029b5761029b6109ef565b60018111156102ac576102ac6109ef565b90525092915050565b600154604051630935e01b60e21b81523260048201526001600160a01b03909116906324d7806c90602401602060405180830381865afa1580156102fb573d5f5f3e3d5ffd5b505050506040513d601f19601f8201168201806040525081019061031f9190610b5b565b61033b5760405162461bcd60e51b815260040161023690610b7a565b5f8381526003602052604081205490036103675760405162461bcd60e51b815260040161023690610b2d565b5f8211801561037557505f81115b6103915760405162461bcd60e51b815260040161023690610ba5565b5f838152600360209081526040918290206001810185905560020183905581518581529081018490529081018290527ff7237d4e5b6eb7009e4eb3d57722c89a2d5a309cb8766edd3d12c3a2f6369fea9060600160405180910390a1505050565b6004602052815f5260405f20818154811061040b575f80fd5b905f5260205f20015f91509150505481565b600154604051630935e01b60e21b81523260048201526001600160a01b03909116906324d7806c90602401602060405180830381865afa158015610463573d5f5f3e3d5ffd5b505050506040513d601f19601f820116820180604052508101906104879190610b5b565b6104a35760405162461bcd60e51b815260040161023690610b7a565b5f8181526003602052604081205490036104f95760405162461bcd60e51b81526020600482015260176024820152761518589b1948125108191bd95cc81b9bdd08195e1a5cdd604a1b6044820152606401610236565b5f5460405163914ee45560e01b815260048101849052602481018390526001600160a01b039091169063914ee455906044015f604051808303815f87803b158015610542575f5ffd5b505af1158015610554573d5f5f3e3d5ffd5b505060408051848152602081018690527fce055a555634f6b775cab0652d8bf5b7b02d31fd077b3e4459d806099d5c032a93500190505b60405180910390a15050565b600154604051630935e01b60e21b81523260048201526001600160a01b03909116906324d7806c90602401602060405180830381865afa1580156105dd573d5f5f3e3d5ffd5b505050506040513d601f19601f820116820180604052508101906106019190610b5b565b61061d5760405162461bcd60e51b815260040161023690610b7a565b5f8281526003602052604081205490036106735760405162461bcd60e51b81526020600482015260176024820152761518589b1948125108191bd95cc81b9bdd08195e1a5cdd604a1b6044820152606401610236565b5f82815260036020819052604090912001805482919060ff1916600183818111156106a0576106a06109ef565b02179055506040518281527f806e02512e08b8327ec991fdaf88cc26768ac76f54ec0ce459e8d1215d9371679060200161058b565b600154604051630935e01b60e21b81523260048201526001600160a01b03909116906324d7806c90602401602060405180830381865afa15801561071b573d5f5f3e3d5ffd5b505050506040513d601f19601f8201168201806040525081019061073f9190610b5b565b61075b5760405162461bcd60e51b815260040161023690610b7a565b5f80546001600160a01b0319166001600160a01b0392909216919091179055565b600154604051630935e01b60e21b81523260048201525f916001600160a01b0316906324d7806c90602401602060405180830381865afa1580156107c2573d5f5f3e3d5ffd5b505050506040513d601f19601f820116820180604052508101906107e69190610b5b565b6108025760405162461bcd60e51b815260040161023690610b7a565b5f8311801561081057505f82115b61082c5760405162461bcd60e51b815260040161023690610ba5565b600280545f918261083c83610bea565b91905055905060405180608001604052808281526020018581526020018481526020015f6001811115610871576108716109ef565b90525f828152600360208181526040928390208451815590840151600180830191909155928401516002820155606084015191810180549193909160ff19169083818111156108c2576108c26109ef565b02179055505060408051838152602081018790529081018590527f7c625ad207b65d4c400b3daab560616556395dfe69ebc199b59250c837db78e3915060600160405180910390a19392505050565b5f81815260036020526040812054900361093d5760405162461bcd60e51b815260040161023690610b2d565b5f8181526003602081905260408083208381556001810184905560028101939093559101805460ff19169055517fe9acaee49f406ba06f0464ee11615009a1b531e51e3e9d4427228acae8a4e6ba906109999083815260200190565b60405180910390a150565b60405180608001604052805f81526020015f81526020015f81526020015f60018111156109d3576109d36109ef565b905290565b5f602082840312156109e8575f5ffd5b5035919050565b634e487b7160e01b5f52602160045260245ffd5b60028110610a1f57634e487b7160e01b5f52602160045260245ffd5b9052565b5f6080820190508251825260208301516020830152604083015160408301526060830151610a546060840182610a03565b5092915050565b5f5f5f60608486031215610a6d575f5ffd5b505081359360208301359350604090920135919050565b848152602081018490526040810183905260808101610aa66060830184610a03565b95945050505050565b5f5f60408385031215610ac0575f5ffd5b50508035926020909101359150565b5f5f60408385031215610ae0575f5ffd5b82359150602083013560028110610af5575f5ffd5b809150509250929050565b5f60208284031215610b10575f5ffd5b81356001600160a01b0381168114610b26575f5ffd5b9392505050565b6020808252601490820152731518589b1948191bd95cc81b9bdd08195e1a5cdd60621b604082015260600190565b5f60208284031215610b6b575f5ffd5b81518015158114610b26575f5ffd5b6020808252601190820152702cb7ba9030b932903737ba1030b236b4b760791b604082015260600190565b60208082526025908201527f526f7720616e6420636f6c756d6e206d75737420626520677265617465722074604082015264068616e20360dc1b606082015260800190565b5f60018201610c0757634e487b7160e01b5f52601160045260245ffd5b506001019056fea26469706673582212208ee46faa8cda48a6d2883e15ffb18b66c781c3e8086977d31c7542e191e392f064736f6c634300081e0033",
					"opcodes": "PUSH1 0x80 PUSH1 0x40 MSTORE PUSH1 0x1 PUSH1 0x2 SSTORE CALLVALUE DUP1 ISZERO PUSH1 0x13 JUMPI PUSH0 PUSH0 REVERT JUMPDEST POP PUSH1 0x40 MLOAD PUSH2 0xCD0 CODESIZE SUB DUP1 PUSH2 0xCD0 DUP4 CODECOPY DUP2 ADD PUSH1 0x40 DUP2 SWAP1 MSTORE PUSH1 0x30 SWAP2 PUSH1 0x54 JUMP JUMPDEST PUSH1 0x1 DUP1 SLOAD PUSH1 0x1 PUSH1 0x1 PUSH1 0xA0 SHL SUB NOT AND PUSH1 0x1 PUSH1 0x1 PUSH1 0xA0 SHL SUB SWAP3 SWAP1 SWAP3 AND SWAP2 SWAP1 SWAP2 OR SWAP1 SSTORE PUSH1 0x7F JUMP JUMPDEST PUSH0 PUSH1 0x20 DUP3 DUP5 SUB SLT ISZERO PUSH1 0x63 JUMPI PUSH0 PUSH0 REVERT JUMPDEST DUP2 MLOAD PUSH1 0x1 PUSH1 0x1 PUSH1 0xA0 SHL SUB DUP2 AND DUP2 EQ PUSH1 0x78 JUMPI PUSH0 PUSH0 REVERT JUMPDEST SWAP4 SWAP3 POP POP POP JUMP JUMPDEST PUSH2 0xC44 DUP1 PUSH2 0x8C PUSH0 CODECOPY PUSH0 RETURN INVALID PUSH1 0x80 PUSH1 0x40 MSTORE CALLVALUE DUP1 ISZERO PUSH2 0xF JUMPI PUSH0 PUSH0 REVERT JUMPDEST POP PUSH1 0x4 CALLDATASIZE LT PUSH2 0xB1 JUMPI PUSH0 CALLDATALOAD PUSH1 0xE0 SHR DUP1 PUSH4 0x95EBCB24 GT PUSH2 0x6E JUMPI DUP1 PUSH4 0x95EBCB24 EQ PUSH2 0x191 JUMPI DUP1 PUSH4 0xB4AFD52C EQ PUSH2 0x1A4 JUMPI DUP1 PUSH4 0xC0DA840D EQ PUSH2 0x1B7 JUMPI DUP1 PUSH4 0xE1F1C48D EQ PUSH2 0x1CA JUMPI DUP1 PUSH4 0xE6F318C6 EQ PUSH2 0x1DD JUMPI DUP1 PUSH4 0xF9B6117F EQ PUSH2 0x1F0 JUMPI PUSH0 PUSH0 REVERT JUMPDEST DUP1 PUSH4 0x3844AC5B EQ PUSH2 0xB5 JUMPI DUP1 PUSH4 0x42F54B89 EQ PUSH2 0xDE JUMPI DUP1 PUSH4 0x5CFD6607 EQ PUSH2 0x109 JUMPI DUP1 PUSH4 0x71671BF2 EQ PUSH2 0x11E JUMPI DUP1 PUSH4 0x88A01CD7 EQ PUSH2 0x167 JUMPI DUP1 PUSH4 0x90C86435 EQ PUSH2 0x17E JUMPI JUMPDEST PUSH0 PUSH0 REVERT JUMPDEST PUSH2 0xC8 PUSH2 0xC3 CALLDATASIZE PUSH1 0x4 PUSH2 0x9D8 JUMP JUMPDEST PUSH2 0x202 JUMP JUMPDEST PUSH1 0x40 MLOAD PUSH2 0xD5 SWAP2 SWAP1 PUSH2 0xA23 JUMP JUMPDEST PUSH1 0x40 MLOAD DUP1 SWAP2 SUB SWAP1 RETURN JUMPDEST PUSH1 0x1 SLOAD PUSH2 0xF1 SWAP1 PUSH1 0x1 PUSH1 0x1 PUSH1 0xA0 SHL SUB AND DUP2 JUMP JUMPDEST PUSH1 0x40 MLOAD PUSH1 0x1 PUSH1 0x1 PUSH1 0xA0 SHL SUB SWAP1 SWAP2 AND DUP2 MSTORE PUSH1 0x20 ADD PUSH2 0xD5 JUMP JUMPDEST PUSH2 0x11C PUSH2 0x117 CALLDATASIZE PUSH1 0x4 PUSH2 0xA5B JUMP JUMPDEST PUSH2 0x2B5 JUMP JUMPDEST STOP JUMPDEST PUSH2 0x157 PUSH2 0x12C CALLDATASIZE PUSH1 0x4 PUSH2 0x9D8 JUMP JUMPDEST PUSH1 0x3 PUSH1 0x20 DUP2 SWAP1 MSTORE PUSH0 SWAP2 DUP3 MSTORE PUSH1 0x40 SWAP1 SWAP2 KECCAK256 DUP1 SLOAD PUSH1 0x1 DUP3 ADD SLOAD PUSH1 0x2 DUP4 ADD SLOAD SWAP3 SWAP1 SWAP4 ADD SLOAD SWAP1 SWAP3 SWAP2 SWAP1 PUSH1 0xFF AND DUP5 JUMP JUMPDEST PUSH1 0x40 MLOAD PUSH2 0xD5 SWAP5 SWAP4 SWAP3 SWAP2 SWAP1 PUSH2 0xA84 JUMP JUMPDEST PUSH2 0x170 PUSH1 0x2 SLOAD DUP2 JUMP JUMPDEST PUSH1 0x40 MLOAD SWAP1 DUP2 MSTORE PUSH1 0x20 ADD PUSH2 0xD5 JUMP JUMPDEST PUSH2 0x170 PUSH2 0x18C CALLDATASIZE PUSH1 0x4 PUSH2 0xAAF JUMP JUMPDEST PUSH2 0x3F2 JUMP JUMPDEST PUSH2 0x11C PUSH2 0x19F CALLDATASIZE PUSH1 0x4 PUSH2 0xAAF JUMP JUMPDEST PUSH2 0x41D JUMP JUMPDEST PUSH2 0x11C PUSH2 0x1B2 CALLDATASIZE PUSH1 0x4 PUSH2 0xACF JUMP JUMPDEST PUSH2 0x597 JUMP JUMPDEST PUSH2 0x11C PUSH2 0x1C5 CALLDATASIZE PUSH1 0x4 PUSH2 0xB00 JUMP JUMPDEST PUSH2 0x6D5 JUMP JUMPDEST PUSH2 0x170 PUSH2 0x1D8 CALLDATASIZE PUSH1 0x4 PUSH2 0xAAF JUMP JUMPDEST PUSH2 0x77C JUMP JUMPDEST PUSH2 0x11C PUSH2 0x1EB CALLDATASIZE PUSH1 0x4 PUSH2 0x9D8 JUMP JUMPDEST PUSH2 0x911 JUMP JUMPDEST PUSH0 SLOAD PUSH2 0xF1 SWAP1 PUSH1 0x1 PUSH1 0x1 PUSH1 0xA0 SHL SUB AND DUP2 JUMP JUMPDEST PUSH2 0x20A PUSH2 0x9A4 JUMP JUMPDEST PUSH0 DUP3 DUP2 MSTORE PUSH1 0x3 PUSH1 0x20 MSTORE PUSH1 0x40 DUP2 KECCAK256 SLOAD SWAP1 SUB PUSH2 0x23F JUMPI PUSH1 0x40 MLOAD PUSH3 0x461BCD PUSH1 0xE5 SHL DUP2 MSTORE PUSH1 0x4 ADD PUSH2 0x236 SWAP1 PUSH2 0xB2D JUMP JUMPDEST PUSH1 0x40 MLOAD DUP1 SWAP2 SUB SWAP1 REVERT JUMPDEST PUSH1 0x3 PUSH0 DUP4 DUP2 MSTORE PUSH1 0x20 ADD SWAP1 DUP2 MSTORE PUSH1 0x20 ADD PUSH0 KECCAK256 PUSH1 0x40 MLOAD DUP1 PUSH1 0x80 ADD PUSH1 0x40 MSTORE SWAP1 DUP2 PUSH0 DUP3 ADD SLOAD DUP2 MSTORE PUSH1 0x20 ADD PUSH1 0x1 DUP3 ADD SLOAD DUP2 MSTORE PUSH1 0x20 ADD PUSH1 0x2 DUP3 ADD SLOAD DUP2 MSTORE PUSH1 0x20 ADD PUSH1 0x3 DUP3 ADD PUSH0 SWAP1 SLOAD SWAP1 PUSH2 0x100 EXP SWAP1 DIV PUSH1 0xFF AND PUSH1 0x1 DUP2 GT ISZERO PUSH2 0x29B JUMPI PUSH2 0x29B PUSH2 0x9EF JUMP JUMPDEST PUSH1 0x1 DUP2 GT ISZERO PUSH2 0x2AC JUMPI PUSH2 0x2AC PUSH2 0x9EF JUMP JUMPDEST SWAP1 MSTORE POP SWAP3 SWAP2 POP POP JUMP JUMPDEST PUSH1 0x1 SLOAD PUSH1 0x40 MLOAD PUSH4 0x935E01B PUSH1 0xE2 SHL DUP2 MSTORE ORIGIN PUSH1 0x4 DUP3 ADD MSTORE PUSH1 0x1 PUSH1 0x1 PUSH1 0xA0 SHL SUB SWAP1 SWAP2 AND SWAP1 PUSH4 0x24D7806C SWAP1 PUSH1 0x24 ADD PUSH1 0x20 PUSH1 0x40 MLOAD DUP1 DUP4 SUB DUP2 DUP7 GAS STATICCALL ISZERO DUP1 ISZERO PUSH2 0x2FB JUMPI RETURNDATASIZE PUSH0 PUSH0 RETURNDATACOPY RETURNDATASIZE PUSH0 REVERT JUMPDEST POP POP POP POP PUSH1 0x40 MLOAD RETURNDATASIZE PUSH1 0x1F NOT PUSH1 0x1F DUP3 ADD AND DUP3 ADD DUP1 PUSH1 0x40 MSTORE POP DUP2 ADD SWAP1 PUSH2 0x31F SWAP2 SWAP1 PUSH2 0xB5B JUMP JUMPDEST PUSH2 0x33B JUMPI PUSH1 0x40 MLOAD PUSH3 0x461BCD PUSH1 0xE5 SHL DUP2 MSTORE PUSH1 0x4 ADD PUSH2 0x236 SWAP1 PUSH2 0xB7A JUMP JUMPDEST PUSH0 DUP4 DUP2 MSTORE PUSH1 0x3 PUSH1 0x20 MSTORE PUSH1 0x40 DUP2 KECCAK256 SLOAD SWAP1 SUB PUSH2 0x367 JUMPI PUSH1 0x40 MLOAD PUSH3 0x461BCD PUSH1 0xE5 SHL DUP2 MSTORE PUSH1 0x4 ADD PUSH2 0x236 SWAP1 PUSH2 0xB2D JUMP JUMPDEST PUSH0 DUP3 GT DUP1 ISZERO PUSH2 0x375 JUMPI POP PUSH0 DUP2 GT JUMPDEST PUSH2 0x391 JUMPI PUSH1 0x40 MLOAD PUSH3 0x461BCD PUSH1 0xE5 SHL DUP2 MSTORE PUSH1 0x4 ADD PUSH2 0x236 SWAP1 PUSH2 0xBA5 JUMP JUMPDEST PUSH0 DUP4 DUP2 MSTORE PUSH1 0x3 PUSH1 0x20 SWAP1 DUP2 MSTORE PUSH1 0x40 SWAP2 DUP3 SWAP1 KECCAK256 PUSH1 0x1 DUP2 ADD DUP6 SWAP1 SSTORE PUSH1 0x2 ADD DUP4 SWAP1 SSTORE DUP2 MLOAD DUP6 DUP2 MSTORE SWAP1 DUP2 ADD DUP5 SWAP1 MSTORE SWAP1 DUP2 ADD DUP3 SWAP1 MSTORE PUSH32 0xF7237D4E5B6EB7009E4EB3D57722C89A2D5A309CB8766EDD3D12C3A2F6369FEA SWAP1 PUSH1 0x60 ADD PUSH1 0x40 MLOAD DUP1 SWAP2 SUB SWAP1 LOG1 POP POP POP JUMP JUMPDEST PUSH1 0x4 PUSH1 0x20 MSTORE DUP2 PUSH0 MSTORE PUSH1 0x40 PUSH0 KECCAK256 DUP2 DUP2 SLOAD DUP2 LT PUSH2 0x40B JUMPI PUSH0 DUP1 REVERT JUMPDEST SWAP1 PUSH0 MSTORE PUSH1 0x20 PUSH0 KECCAK256 ADD PUSH0 SWAP2 POP SWAP2 POP POP SLOAD DUP2 JUMP JUMPDEST PUSH1 0x1 SLOAD PUSH1 0x40 MLOAD PUSH4 0x935E01B PUSH1 0xE2 SHL DUP2 MSTORE ORIGIN PUSH1 0x4 DUP3 ADD MSTORE PUSH1 0x1 PUSH1 0x1 PUSH1 0xA0 SHL SUB SWAP1 SWAP2 AND SWAP1 PUSH4 0x24D7806C SWAP1 PUSH1 0x24 ADD PUSH1 0x20 PUSH1 0x40 MLOAD DUP1 DUP4 SUB DUP2 DUP7 GAS STATICCALL ISZERO DUP1 ISZERO PUSH2 0x463 JUMPI RETURNDATASIZE PUSH0 PUSH0 RETURNDATACOPY RETURNDATASIZE PUSH0 REVERT JUMPDEST POP POP POP POP PUSH1 0x40 MLOAD RETURNDATASIZE PUSH1 0x1F NOT PUSH1 0x1F DUP3 ADD AND DUP3 ADD DUP1 PUSH1 0x40 MSTORE POP DUP2 ADD SWAP1 PUSH2 0x487 SWAP2 SWAP1 PUSH2 0xB5B JUMP JUMPDEST PUSH2 0x4A3 JUMPI PUSH1 0x40 MLOAD PUSH3 0x461BCD PUSH1 0xE5 SHL DUP2 MSTORE PUSH1 0x4 ADD PUSH2 0x236 SWAP1 PUSH2 0xB7A JUMP JUMPDEST PUSH0 DUP2 DUP2 MSTORE PUSH1 0x3 PUSH1 0x20 MSTORE PUSH1 0x40 DUP2 KECCAK256 SLOAD SWAP1 SUB PUSH2 0x4F9 JUMPI PUSH1 0x40 MLOAD PUSH3 0x461BCD PUSH1 0xE5 SHL DUP2 MSTORE PUSH1 0x20 PUSH1 0x4 DUP3 ADD MSTORE PUSH1 0x17 PUSH1 0x24 DUP3 ADD MSTORE PUSH23 0x1518589B1948125108191BD95CC81B9BDD08195E1A5CDD PUSH1 0x4A SHL PUSH1 0x44 DUP3 ADD MSTORE PUSH1 0x64 ADD PUSH2 0x236 JUMP JUMPDEST PUSH0 SLOAD PUSH1 0x40 MLOAD PUSH4 0x914EE455 PUSH1 0xE0 SHL DUP2 MSTORE PUSH1 0x4 DUP2 ADD DUP5 SWAP1 MSTORE PUSH1 0x24 DUP2 ADD DUP4 SWAP1 MSTORE PUSH1 0x1 PUSH1 0x1 PUSH1 0xA0 SHL SUB SWAP1 SWAP2 AND SWAP1 PUSH4 0x914EE455 SWAP1 PUSH1 0x44 ADD PUSH0 PUSH1 0x40 MLOAD DUP1 DUP4 SUB DUP2 PUSH0 DUP8 DUP1 EXTCODESIZE ISZERO DUP1 ISZERO PUSH2 0x542 JUMPI PUSH0 PUSH0 REVERT JUMPDEST POP GAS CALL ISZERO DUP1 ISZERO PUSH2 0x554 JUMPI RETURNDATASIZE PUSH0 PUSH0 RETURNDATACOPY RETURNDATASIZE PUSH0 REVERT JUMPDEST POP POP PUSH1 0x40 DUP1 MLOAD DUP5 DUP2 MSTORE PUSH1 0x20 DUP2 ADD DUP7 SWAP1 MSTORE PUSH32 0xCE055A555634F6B775CAB0652D8BF5B7B02D31FD077B3E4459D806099D5C032A SWAP4 POP ADD SWAP1 POP JUMPDEST PUSH1 0x40 MLOAD DUP1 SWAP2 SUB SWAP1 LOG1 POP POP JUMP JUMPDEST PUSH1 0x1 SLOAD PUSH1 0x40 MLOAD PUSH4 0x935E01B PUSH1 0xE2 SHL DUP2 MSTORE ORIGIN PUSH1 0x4 DUP3 ADD MSTORE PUSH1 0x1 PUSH1 0x1 PUSH1 0xA0 SHL SUB SWAP1 SWAP2 AND SWAP1 PUSH4 0x24D7806C SWAP1 PUSH1 0x24 ADD PUSH1 0x20 PUSH1 0x40 MLOAD DUP1 DUP4 SUB DUP2 DUP7 GAS STATICCALL ISZERO DUP1 ISZERO PUSH2 0x5DD JUMPI RETURNDATASIZE PUSH0 PUSH0 RETURNDATACOPY RETURNDATASIZE PUSH0 REVERT JUMPDEST POP POP POP POP PUSH1 0x40 MLOAD RETURNDATASIZE PUSH1 0x1F NOT PUSH1 0x1F DUP3 ADD AND DUP3 ADD DUP1 PUSH1 0x40 MSTORE POP DUP2 ADD SWAP1 PUSH2 0x601 SWAP2 SWAP1 PUSH2 0xB5B JUMP JUMPDEST PUSH2 0x61D JUMPI PUSH1 0x40 MLOAD PUSH3 0x461BCD PUSH1 0xE5 SHL DUP2 MSTORE PUSH1 0x4 ADD PUSH2 0x236 SWAP1 PUSH2 0xB7A JUMP JUMPDEST PUSH0 DUP3 DUP2 MSTORE PUSH1 0x3 PUSH1 0x20 MSTORE PUSH1 0x40 DUP2 KECCAK256 SLOAD SWAP1 SUB PUSH2 0x673 JUMPI PUSH1 0x40 MLOAD PUSH3 0x461BCD PUSH1 0xE5 SHL DUP2 MSTORE PUSH1 0x20 PUSH1 0x4 DUP3 ADD MSTORE PUSH1 0x17 PUSH1 0x24 DUP3 ADD MSTORE PUSH23 0x1518589B1948125108191BD95CC81B9BDD08195E1A5CDD PUSH1 0x4A SHL PUSH1 0x44 DUP3 ADD MSTORE PUSH1 0x64 ADD PUSH2 0x236 JUMP JUMPDEST PUSH0 DUP3 DUP2 MSTORE PUSH1 0x3 PUSH1 0x20 DUP2 SWAP1 MSTORE PUSH1 0x40 SWAP1 SWAP2 KECCAK256 ADD DUP1 SLOAD DUP3 SWAP2 SWAP1 PUSH1 0xFF NOT AND PUSH1 0x1 DUP4 DUP2 DUP2 GT ISZERO PUSH2 0x6A0 JUMPI PUSH2 0x6A0 PUSH2 0x9EF JUMP JUMPDEST MUL OR SWAP1 SSTORE POP PUSH1 0x40 MLOAD DUP3 DUP2 MSTORE PUSH32 0x806E02512E08B8327EC991FDAF88CC26768AC76F54EC0CE459E8D1215D937167 SWAP1 PUSH1 0x20 ADD PUSH2 0x58B JUMP JUMPDEST PUSH1 0x1 SLOAD PUSH1 0x40 MLOAD PUSH4 0x935E01B PUSH1 0xE2 SHL DUP2 MSTORE ORIGIN PUSH1 0x4 DUP3 ADD MSTORE PUSH1 0x1 PUSH1 0x1 PUSH1 0xA0 SHL SUB SWAP1 SWAP2 AND SWAP1 PUSH4 0x24D7806C SWAP1 PUSH1 0x24 ADD PUSH1 0x20 PUSH1 0x40 MLOAD DUP1 DUP4 SUB DUP2 DUP7 GAS STATICCALL ISZERO DUP1 ISZERO PUSH2 0x71B JUMPI RETURNDATASIZE PUSH0 PUSH0 RETURNDATACOPY RETURNDATASIZE PUSH0 REVERT JUMPDEST POP POP POP POP PUSH1 0x40 MLOAD RETURNDATASIZE PUSH1 0x1F NOT PUSH1 0x1F DUP3 ADD AND DUP3 ADD DUP1 PUSH1 0x40 MSTORE POP DUP2 ADD SWAP1 PUSH2 0x73F SWAP2 SWAP1 PUSH2 0xB5B JUMP JUMPDEST PUSH2 0x75B JUMPI PUSH1 0x40 MLOAD PUSH3 0x461BCD PUSH1 0xE5 SHL DUP2 MSTORE PUSH1 0x4 ADD PUSH2 0x236 SWAP1 PUSH2 0xB7A JUMP JUMPDEST PUSH0 DUP1 SLOAD PUSH1 0x1 PUSH1 0x1 PUSH1 0xA0 SHL SUB NOT AND PUSH1 0x1 PUSH1 0x1 PUSH1 0xA0 SHL SUB SWAP3 SWAP1 SWAP3 AND SWAP2 SWAP1 SWAP2 OR SWAP1 SSTORE JUMP JUMPDEST PUSH1 0x1 SLOAD PUSH1 0x40 MLOAD PUSH4 0x935E01B PUSH1 0xE2 SHL DUP2 MSTORE ORIGIN PUSH1 0x4 DUP3 ADD MSTORE PUSH0 SWAP2 PUSH1 0x1 PUSH1 0x1 PUSH1 0xA0 SHL SUB AND SWAP1 PUSH4 0x24D7806C SWAP1 PUSH1 0x24 ADD PUSH1 0x20 PUSH1 0x40 MLOAD DUP1 DUP4 SUB DUP2 DUP7 GAS STATICCALL ISZERO DUP1 ISZERO PUSH2 0x7C2 JUMPI RETURNDATASIZE PUSH0 PUSH0 RETURNDATACOPY RETURNDATASIZE PUSH0 REVERT JUMPDEST POP POP POP POP PUSH1 0x40 MLOAD RETURNDATASIZE PUSH1 0x1F NOT PUSH1 0x1F DUP3 ADD AND DUP3 ADD DUP1 PUSH1 0x40 MSTORE POP DUP2 ADD SWAP1 PUSH2 0x7E6 SWAP2 SWAP1 PUSH2 0xB5B JUMP JUMPDEST PUSH2 0x802 JUMPI PUSH1 0x40 MLOAD PUSH3 0x461BCD PUSH1 0xE5 SHL DUP2 MSTORE PUSH1 0x4 ADD PUSH2 0x236 SWAP1 PUSH2 0xB7A JUMP JUMPDEST PUSH0 DUP4 GT DUP1 ISZERO PUSH2 0x810 JUMPI POP PUSH0 DUP3 GT JUMPDEST PUSH2 0x82C JUMPI PUSH1 0x40 MLOAD PUSH3 0x461BCD PUSH1 0xE5 SHL DUP2 MSTORE PUSH1 0x4 ADD PUSH2 0x236 SWAP1 PUSH2 0xBA5 JUMP JUMPDEST PUSH1 0x2 DUP1 SLOAD PUSH0 SWAP2 DUP3 PUSH2 0x83C DUP4 PUSH2 0xBEA JUMP JUMPDEST SWAP2 SWAP1 POP SSTORE SWAP1 POP PUSH1 0x40 MLOAD DUP1 PUSH1 0x80 ADD PUSH1 0x40 MSTORE DUP1 DUP3 DUP2 MSTORE PUSH1 0x20 ADD DUP6 DUP2 MSTORE PUSH1 0x20 ADD DUP5 DUP2 MSTORE PUSH1 0x20 ADD PUSH0 PUSH1 0x1 DUP2 GT ISZERO PUSH2 0x871 JUMPI PUSH2 0x871 PUSH2 0x9EF JUMP JUMPDEST SWAP1 MSTORE PUSH0 DUP3 DUP2 MSTORE PUSH1 0x3 PUSH1 0x20 DUP2 DUP2 MSTORE PUSH1 0x40 SWAP3 DUP4 SWAP1 KECCAK256 DUP5 MLOAD DUP2 SSTORE SWAP1 DUP5 ADD MLOAD PUSH1 0x1 DUP1 DUP4 ADD SWAP2 SWAP1 SWAP2 SSTORE SWAP3 DUP5 ADD MLOAD PUSH1 0x2 DUP3 ADD SSTORE PUSH1 0x60 DUP5 ADD MLOAD SWAP2 DUP2 ADD DUP1 SLOAD SWAP2 SWAP4 SWAP1 SWAP2 PUSH1 0xFF NOT AND SWAP1 DUP4 DUP2 DUP2 GT ISZERO PUSH2 0x8C2 JUMPI PUSH2 0x8C2 PUSH2 0x9EF JUMP JUMPDEST MUL OR SWAP1 SSTORE POP POP PUSH1 0x40 DUP1 MLOAD DUP4 DUP2 MSTORE PUSH1 0x20 DUP2 ADD DUP8 SWAP1 MSTORE SWAP1 DUP2 ADD DUP6 SWAP1 MSTORE PUSH32 0x7C625AD207B65D4C400B3DAAB560616556395DFE69EBC199B59250C837DB78E3 SWAP2 POP PUSH1 0x60 ADD PUSH1 0x40 MLOAD DUP1 SWAP2 SUB SWAP1 LOG1 SWAP4 SWAP3 POP POP POP JUMP JUMPDEST PUSH0 DUP2 DUP2 MSTORE PUSH1 0x3 PUSH1 0x20 MSTORE PUSH1 0x40 DUP2 KECCAK256 SLOAD SWAP1 SUB PUSH2 0x93D JUMPI PUSH1 0x40 MLOAD PUSH3 0x461BCD PUSH1 0xE5 SHL DUP2 MSTORE PUSH1 0x4 ADD PUSH2 0x236 SWAP1 PUSH2 0xB2D JUMP JUMPDEST PUSH0 DUP2 DUP2 MSTORE PUSH1 0x3 PUSH1 0x20 DUP2 SWAP1 MSTORE PUSH1 0x40 DUP1 DUP4 KECCAK256 DUP4 DUP2 SSTORE PUSH1 0x1 DUP2 ADD DUP5 SWAP1 SSTORE PUSH1 0x2 DUP2 ADD SWAP4 SWAP1 SWAP4 SSTORE SWAP2 ADD DUP1 SLOAD PUSH1 0xFF NOT AND SWAP1 SSTORE MLOAD PUSH32 0xE9ACAEE49F406BA06F0464EE11615009A1B531E51E3E9D4427228ACAE8A4E6BA SWAP1 PUSH2 0x999 SWAP1 DUP4 DUP2 MSTORE PUSH1 0x20 ADD SWAP1 JUMP JUMPDEST PUSH1 0x40 MLOAD DUP1 SWAP2 SUB SWAP1 LOG1 POP JUMP JUMPDEST PUSH1 0x40 MLOAD DUP1 PUSH1 0x80 ADD PUSH1 0x40 MSTORE DUP1 PUSH0 DUP2 MSTORE PUSH1 0x20 ADD PUSH0 DUP2 MSTORE PUSH1 0x20 ADD PUSH0 DUP2 MSTORE PUSH1 0x20 ADD PUSH0 PUSH1 0x1 DUP2 GT ISZERO PUSH2 0x9D3 JUMPI PUSH2 0x9D3 PUSH2 0x9EF JUMP JUMPDEST SWAP1 MSTORE SWAP1 JUMP JUMPDEST PUSH0 PUSH1 0x20 DUP3 DUP5 SUB SLT ISZERO PUSH2 0x9E8 JUMPI PUSH0 PUSH0 REVERT JUMPDEST POP CALLDATALOAD SWAP2 SWAP1 POP JUMP JUMPDEST PUSH4 0x4E487B71 PUSH1 0xE0 SHL PUSH0 MSTORE PUSH1 0x21 PUSH1 0x4 MSTORE PUSH1 0x24 PUSH0 REVERT JUMPDEST PUSH1 0x2 DUP2 LT PUSH2 0xA1F JUMPI PUSH4 0x4E487B71 PUSH1 0xE0 SHL PUSH0 MSTORE PUSH1 0x21 PUSH1 0x4 MSTORE PUSH1 0x24 PUSH0 REVERT JUMPDEST SWAP1 MSTORE JUMP JUMPDEST PUSH0 PUSH1 0x80 DUP3 ADD SWAP1 POP DUP3 MLOAD DUP3 MSTORE PUSH1 0x20 DUP4 ADD MLOAD PUSH1 0x20 DUP4 ADD MSTORE PUSH1 0x40 DUP4 ADD MLOAD PUSH1 0x40 DUP4 ADD MSTORE PUSH1 0x60 DUP4 ADD MLOAD PUSH2 0xA54 PUSH1 0x60 DUP5 ADD DUP3 PUSH2 0xA03 JUMP JUMPDEST POP SWAP3 SWAP2 POP POP JUMP JUMPDEST PUSH0 PUSH0 PUSH0 PUSH1 0x60 DUP5 DUP7 SUB SLT ISZERO PUSH2 0xA6D JUMPI PUSH0 PUSH0 REVERT JUMPDEST POP POP DUP2 CALLDATALOAD SWAP4 PUSH1 0x20 DUP4 ADD CALLDATALOAD SWAP4 POP PUSH1 0x40 SWAP1 SWAP3 ADD CALLDATALOAD SWAP2 SWAP1 POP JUMP JUMPDEST DUP5 DUP2 MSTORE PUSH1 0x20 DUP2 ADD DUP5 SWAP1 MSTORE PUSH1 0x40 DUP2 ADD DUP4 SWAP1 MSTORE PUSH1 0x80 DUP2 ADD PUSH2 0xAA6 PUSH1 0x60 DUP4 ADD DUP5 PUSH2 0xA03 JUMP JUMPDEST SWAP6 SWAP5 POP POP POP POP POP JUMP JUMPDEST PUSH0 PUSH0 PUSH1 0x40 DUP4 DUP6 SUB SLT ISZERO PUSH2 0xAC0 JUMPI PUSH0 PUSH0 REVERT JUMPDEST POP POP DUP1 CALLDATALOAD SWAP3 PUSH1 0x20 SWAP1 SWAP2 ADD CALLDATALOAD SWAP2 POP JUMP JUMPDEST PUSH0 PUSH0 PUSH1 0x40 DUP4 DUP6 SUB SLT ISZERO PUSH2 0xAE0 JUMPI PUSH0 PUSH0 REVERT JUMPDEST DUP3 CALLDATALOAD SWAP2 POP PUSH1 0x20 DUP4 ADD CALLDATALOAD PUSH1 0x2 DUP2 LT PUSH2 0xAF5 JUMPI PUSH0 PUSH0 REVERT JUMPDEST DUP1 SWAP2 POP POP SWAP3 POP SWAP3 SWAP1 POP JUMP JUMPDEST PUSH0 PUSH1 0x20 DUP3 DUP5 SUB SLT ISZERO PUSH2 0xB10 JUMPI PUSH0 PUSH0 REVERT JUMPDEST DUP2 CALLDATALOAD PUSH1 0x1 PUSH1 0x1 PUSH1 0xA0 SHL SUB DUP2 AND DUP2 EQ PUSH2 0xB26 JUMPI PUSH0 PUSH0 REVERT JUMPDEST SWAP4 SWAP3 POP POP POP JUMP JUMPDEST PUSH1 0x20 DUP1 DUP3 MSTORE PUSH1 0x14 SWAP1 DUP3 ADD MSTORE PUSH20 0x1518589B1948191BD95CC81B9BDD08195E1A5CDD PUSH1 0x62 SHL PUSH1 0x40 DUP3 ADD MSTORE PUSH1 0x60 ADD SWAP1 JUMP JUMPDEST PUSH0 PUSH1 0x20 DUP3 DUP5 SUB SLT ISZERO PUSH2 0xB6B JUMPI PUSH0 PUSH0 REVERT JUMPDEST DUP2 MLOAD DUP1 ISZERO ISZERO DUP2 EQ PUSH2 0xB26 JUMPI PUSH0 PUSH0 REVERT JUMPDEST PUSH1 0x20 DUP1 DUP3 MSTORE PUSH1 0x11 SWAP1 DUP3 ADD MSTORE PUSH17 0x2CB7BA9030B932903737BA1030B236B4B7 PUSH1 0x79 SHL PUSH1 0x40 DUP3 ADD MSTORE PUSH1 0x60 ADD SWAP1 JUMP JUMPDEST PUSH1 0x20 DUP1 DUP3 MSTORE PUSH1 0x25 SWAP1 DUP3 ADD MSTORE PUSH32 0x526F7720616E6420636F6C756D6E206D75737420626520677265617465722074 PUSH1 0x40 DUP3 ADD MSTORE PUSH5 0x68616E203 PUSH1 0xDC SHL PUSH1 0x60 DUP3 ADD MSTORE PUSH1 0x80 ADD SWAP1 JUMP JUMPDEST PUSH0 PUSH1 0x1 DUP3 ADD PUSH2 0xC07 JUMPI PUSH4 0x4E487B71 PUSH1 0xE0 SHL PUSH0 MSTORE PUSH1 0x11 PUSH1 0x4 MSTORE PUSH1 0x24 PUSH0 REVERT JUMPDEST POP PUSH1 0x1 ADD SWAP1 JUMP INVALID LOG2 PUSH5 0x6970667358 0x22 SLT KECCAK256 DUP15 RETF PUSH16 0xAA8CDA48A6D2883E15FFB18B66C781C3 0xE8 ADDMOD PUSH10 0x77D31C7542E191E392F0 PUSH5 0x736F6C6343 STOP ADDMOD 0x1E STOP CALLER "
				},
				"gasEstimates": {
					"creation": {
						"codeDepositCost": "628000",
						"executionCost": "infinite",
						"totalCost": "infinite"
					},
					"external": {
						"addTable(uint256,uint256)": "infinite",
						"addTableToOrder(uint256,uint256)": "infinite",
						"deleteTable(uint256)": "42906",
						"editTable(uint256,uint256,uint256)": "infinite",
						"getTableById(uint256)": "11475",
						"nextTableId()": "2383",
						"orderManager()": "2445",
						"orderTable(uint256,uint256)": "4768",
						"roleAccess()": "2359",
						"setOrderManager(address)": "infinite",
						"tables(uint256)": "9018",
						"updateStatusTable(uint256,uint8)": "infinite"
					}
				},
				"methodIdentifiers": {
					"addTable(uint256,uint256)": "e1f1c48d",
					"addTableToOrder(uint256,uint256)": "95ebcb24",
					"deleteTable(uint256)": "e6f318c6",
					"editTable(uint256,uint256,uint256)": "5cfd6607",
					"getTableById(uint256)": "3844ac5b",
					"nextTableId()": "88a01cd7",
					"orderManager()": "f9b6117f",
					"orderTable(uint256,uint256)": "90c86435",
					"roleAccess()": "42f54b89",
					"setOrderManager(address)": "c0da840d",
					"tables(uint256)": "71671bf2",
					"updateStatusTable(uint256,uint8)": "b4afd52c"
				}
			},
			"storageLayout": {
				"storage": [
					{
						"astId": 299,
						"contract": "contracts/manager/TableManager.sol:TableManager",
						"label": "orderManager",
						"offset": 0,
						"slot": "0",
						"type": "t_contract(IOrderManager)203"
					},
					{
						"astId": 302,
						"contract": "contracts/manager/TableManager.sol:TableManager",
						"label": "roleAccess",
						"offset": 0,
						"slot": "1",
						"type": "t_contract(RoleAccess)98"
					},
					{
						"astId": 305,
						"contract": "contracts/manager/TableManager.sol:TableManager",
						"label": "nextTableId",
						"offset": 0,
						"slot": "2",
						"type": "t_uint256"
					},
					{
						"astId": 310,
						"contract": "contracts/manager/TableManager.sol:TableManager",
						"label": "tables",
						"offset": 0,
						"slot": "3",
						"type": "t_mapping(t_uint256,t_struct(Table)648_storage)"
					},
					{
						"astId": 315,
						"contract": "contracts/manager/TableManager.sol:TableManager",
						"label": "orderTable",
						"offset": 0,
						"slot": "4",
						"type": "t_mapping(t_uint256,t_array(t_uint256)dyn_storage)"
					}
				],
				"types": {
					"t_array(t_uint256)dyn_storage": {
						"base": "t_uint256",
						"encoding": "dynamic_array",
						"label": "uint256[]",
						"numberOfBytes": "32"
					},
					"t_contract(IOrderManager)203": {
						"encoding": "inplace",
						"label": "contract IOrderManager",
						"numberOfBytes": "20"
					},
					"t_contract(RoleAccess)98": {
						"encoding": "inplace",
						"label": "contract RoleAccess",
						"numberOfBytes": "20"
					},
					"t_enum(TableStatus)638": {
						"encoding": "inplace",
						"label": "enum TableStatus",
						"numberOfBytes": "1"
					},
					"t_mapping(t_uint256,t_array(t_uint256)dyn_storage)": {
						"encoding": "mapping",
						"key": "t_uint256",
						"label": "mapping(uint256 => uint256[])",
						"numberOfBytes": "32",
						"value": "t_array(t_uint256)dyn_storage"
					},
					"t_mapping(t_uint256,t_struct(Table)648_storage)": {
						"encoding": "mapping",
						"key": "t_uint256",
						"label": "mapping(uint256 => struct Table)",
						"numberOfBytes": "32",
						"value": "t_struct(Table)648_storage"
					},
					"t_struct(Table)648_storage": {
						"encoding": "inplace",
						"label": "struct Table",
						"members": [
							{
								"astId": 640,
								"contract": "contracts/manager/TableManager.sol:TableManager",
								"label": "tableId",
								"offset": 0,
								"slot": "0",
								"type": "t_uint256"
							},
							{
								"astId": 642,
								"contract": "contracts/manager/TableManager.sol:TableManager",
								"label": "row",
								"offset": 0,
								"slot": "1",
								"type": "t_uint256"
							},
							{
								"astId": 644,
								"contract": "contracts/manager/TableManager.sol:TableManager",
								"label": "col",
								"offset": 0,
								"slot": "2",
								"type": "t_uint256"
							},
							{
								"astId": 647,
								"contract": "contracts/manager/TableManager.sol:TableManager",
								"label": "status",
								"offset": 0,
								"slot": "3",
								"type": "t_enum(TableStatus)638"
							}
						],
						"numberOfBytes": "128"
					},
					"t_uint256": {
						"encoding": "inplace",
						"label": "uint256",
						"numberOfBytes": "32"
					}
				}
			},
			"userdoc": {
				"kind": "user",
				"methods": {},
				"version": 1
			}
		}
	}
}