{
	"contracts/manager/FoodManager.sol": {
		"FoodManager": {
			"abi": [
				{
					"inputs": [
						{
							"internalType": "address",
							"name": "_categoryManagerAddress",
							"type": "address"
						}
					],
					"stateMutability": "nonpayable",
					"type": "constructor"
				},
				{
					"anonymous": false,
					"inputs": [
						{
							"indexed": false,
							"internalType": "uint256",
							"name": "foodId",
							"type": "uint256"
						},
						{
							"indexed": false,
							"internalType": "string",
							"name": "name",
							"type": "string"
						},
						{
							"indexed": false,
							"internalType": "string",
							"name": "description",
							"type": "string"
						},
						{
							"indexed": false,
							"internalType": "uint256",
							"name": "categoryId",
							"type": "uint256"
						},
						{
							"indexed": false,
							"internalType": "string[]",
							"name": "imageUrl",
							"type": "string[]"
						}
					],
					"name": "FoodCreated",
					"type": "event"
				},
				{
					"anonymous": false,
					"inputs": [
						{
							"indexed": false,
							"internalType": "uint256",
							"name": "foodId",
							"type": "uint256"
						}
					],
					"name": "FoodDeleted",
					"type": "event"
				},
				{
					"anonymous": false,
					"inputs": [
						{
							"indexed": false,
							"internalType": "uint256",
							"name": "foodId",
							"type": "uint256"
						},
						{
							"indexed": false,
							"internalType": "uint256",
							"name": "foodDetailId",
							"type": "uint256"
						}
					],
					"name": "FoodDetailDeleted",
					"type": "event"
				},
				{
					"anonymous": false,
					"inputs": [
						{
							"indexed": false,
							"internalType": "uint256",
							"name": "foodId",
							"type": "uint256"
						},
						{
							"indexed": false,
							"internalType": "uint256",
							"name": "foodDetailId",
							"type": "uint256"
						}
					],
					"name": "FoodDetailUpdated",
					"type": "event"
				},
				{
					"anonymous": false,
					"inputs": [
						{
							"indexed": false,
							"internalType": "uint256",
							"name": "foodId",
							"type": "uint256"
						}
					],
					"name": "FoodDetailsAdded",
					"type": "event"
				},
				{
					"anonymous": false,
					"inputs": [
						{
							"indexed": false,
							"internalType": "uint256",
							"name": "foodId",
							"type": "uint256"
						},
						{
							"indexed": false,
							"internalType": "string",
							"name": "name",
							"type": "string"
						},
						{
							"indexed": false,
							"internalType": "string",
							"name": "description",
							"type": "string"
						},
						{
							"indexed": false,
							"internalType": "uint256",
							"name": "categoryId",
							"type": "uint256"
						},
						{
							"indexed": false,
							"internalType": "string[]",
							"name": "imageUrl",
							"type": "string[]"
						}
					],
					"name": "FoodUpdated",
					"type": "event"
				},
				{
					"inputs": [
						{
							"internalType": "address",
							"name": "_admin",
							"type": "address"
						}
					],
					"name": "addAdmin",
					"outputs": [],
					"stateMutability": "nonpayable",
					"type": "function"
				},
				{
					"inputs": [
						{
							"internalType": "uint256",
							"name": "foodId",
							"type": "uint256"
						},
						{
							"components": [
								{
									"internalType": "string",
									"name": "size",
									"type": "string"
								},
								{
									"internalType": "uint256",
									"name": "quantity",
									"type": "uint256"
								},
								{
									"internalType": "uint256",
									"name": "price",
									"type": "uint256"
								}
							],
							"internalType": "struct UpdateFoodDetail[]",
							"name": "details",
							"type": "tuple[]"
						}
					],
					"name": "addFoodDetails",
					"outputs": [],
					"stateMutability": "nonpayable",
					"type": "function"
				},
				{
					"inputs": [],
					"name": "categoryManager",
					"outputs": [
						{
							"internalType": "contract ICategoryManager",
							"name": "",
							"type": "address"
						}
					],
					"stateMutability": "view",
					"type": "function"
				},
				{
					"inputs": [
						{
							"internalType": "uint256",
							"name": "_foodId",
							"type": "uint256"
						},
						{
							"internalType": "string",
							"name": "_name",
							"type": "string"
						},
						{
							"internalType": "string",
							"name": "_description",
							"type": "string"
						},
						{
							"internalType": "uint256",
							"name": "_categoryId",
							"type": "uint256"
						},
						{
							"internalType": "string[]",
							"name": "_imageUrl",
							"type": "string[]"
						},
						{
							"components": [
								{
									"internalType": "string",
									"name": "size",
									"type": "string"
								},
								{
									"internalType": "uint256",
									"name": "quantity",
									"type": "uint256"
								},
								{
									"internalType": "uint256",
									"name": "price",
									"type": "uint256"
								}
							],
							"internalType": "struct UpdateFoodDetail[]",
							"name": "_foodDetail",
							"type": "tuple[]"
						}
					],
					"name": "createFood",
					"outputs": [],
					"stateMutability": "nonpayable",
					"type": "function"
				},
				{
					"inputs": [
						{
							"internalType": "uint256",
							"name": "foodId",
							"type": "uint256"
						}
					],
					"name": "deleteFood",
					"outputs": [],
					"stateMutability": "nonpayable",
					"type": "function"
				},
				{
					"inputs": [
						{
							"internalType": "uint256",
							"name": "foodId",
							"type": "uint256"
						},
						{
							"internalType": "uint256",
							"name": "foodDetailId",
							"type": "uint256"
						}
					],
					"name": "deleteFoodDetail",
					"outputs": [],
					"stateMutability": "nonpayable",
					"type": "function"
				},
				{
					"inputs": [],
					"name": "getAllFoods",
					"outputs": [
						{
							"components": [
								{
									"components": [
										{
											"internalType": "uint256",
											"name": "foodId",
											"type": "uint256"
										},
										{
											"internalType": "string",
											"name": "name",
											"type": "string"
										},
										{
											"internalType": "string",
											"name": "description",
											"type": "string"
										},
										{
											"internalType": "uint256",
											"name": "categoryId",
											"type": "uint256"
										},
										{
											"internalType": "string[]",
											"name": "imageUrl",
											"type": "string[]"
										},
										{
											"internalType": "uint256",
											"name": "sumRating",
											"type": "uint256"
										},
										{
											"internalType": "uint256",
											"name": "countRating",
											"type": "uint256"
										}
									],
									"internalType": "struct Food",
									"name": "food",
									"type": "tuple"
								},
								{
									"components": [
										{
											"internalType": "uint256",
											"name": "foodDetailId",
											"type": "uint256"
										},
										{
											"internalType": "string",
											"name": "size",
											"type": "string"
										},
										{
											"internalType": "uint256",
											"name": "quantity",
											"type": "uint256"
										},
										{
											"internalType": "uint256",
											"name": "price",
											"type": "uint256"
										}
									],
									"internalType": "struct FoodDetail[]",
									"name": "foodDetails",
									"type": "tuple[]"
								}
							],
							"internalType": "struct FoodWithDetails[]",
							"name": "",
							"type": "tuple[]"
						}
					],
					"stateMutability": "view",
					"type": "function"
				},
				{
					"inputs": [
						{
							"internalType": "uint256",
							"name": "foodId",
							"type": "uint256"
						}
					],
					"name": "getFood",
					"outputs": [
						{
							"components": [
								{
									"internalType": "uint256",
									"name": "foodId",
									"type": "uint256"
								},
								{
									"internalType": "string",
									"name": "name",
									"type": "string"
								},
								{
									"internalType": "string",
									"name": "description",
									"type": "string"
								},
								{
									"internalType": "uint256",
									"name": "categoryId",
									"type": "uint256"
								},
								{
									"internalType": "string[]",
									"name": "imageUrl",
									"type": "string[]"
								},
								{
									"internalType": "uint256",
									"name": "sumRating",
									"type": "uint256"
								},
								{
									"internalType": "uint256",
									"name": "countRating",
									"type": "uint256"
								}
							],
							"internalType": "struct Food",
							"name": "",
							"type": "tuple"
						}
					],
					"stateMutability": "view",
					"type": "function"
				},
				{
					"inputs": [
						{
							"internalType": "uint256",
							"name": "_foodId",
							"type": "uint256"
						},
						{
							"internalType": "uint256",
							"name": "_foodDetailId",
							"type": "uint256"
						}
					],
					"name": "getFoodDetailByFoodId_FoodDetailId",
					"outputs": [
						{
							"components": [
								{
									"internalType": "uint256",
									"name": "foodDetailId",
									"type": "uint256"
								},
								{
									"internalType": "string",
									"name": "size",
									"type": "string"
								},
								{
									"internalType": "uint256",
									"name": "quantity",
									"type": "uint256"
								},
								{
									"internalType": "uint256",
									"name": "price",
									"type": "uint256"
								}
							],
							"internalType": "struct FoodDetail",
							"name": "fd",
							"type": "tuple"
						}
					],
					"stateMutability": "view",
					"type": "function"
				},
				{
					"inputs": [
						{
							"internalType": "uint256",
							"name": "foodId",
							"type": "uint256"
						}
					],
					"name": "getFoodDetails",
					"outputs": [
						{
							"components": [
								{
									"internalType": "uint256",
									"name": "foodDetailId",
									"type": "uint256"
								},
								{
									"internalType": "string",
									"name": "size",
									"type": "string"
								},
								{
									"internalType": "uint256",
									"name": "quantity",
									"type": "uint256"
								},
								{
									"internalType": "uint256",
									"name": "price",
									"type": "uint256"
								}
							],
							"internalType": "struct FoodDetail[]",
							"name": "",
							"type": "tuple[]"
						}
					],
					"stateMutability": "view",
					"type": "function"
				},
				{
					"inputs": [],
					"name": "getOwner",
					"outputs": [
						{
							"internalType": "address",
							"name": "",
							"type": "address"
						}
					],
					"stateMutability": "view",
					"type": "function"
				},
				{
					"inputs": [
						{
							"internalType": "uint256",
							"name": "_foodId",
							"type": "uint256"
						},
						{
							"internalType": "uint256",
							"name": "foodDetailId",
							"type": "uint256"
						},
						{
							"internalType": "uint256",
							"name": "_quantity",
							"type": "uint256"
						}
					],
					"name": "increaseQuantiy",
					"outputs": [],
					"stateMutability": "nonpayable",
					"type": "function"
				},
				{
					"inputs": [
						{
							"internalType": "address",
							"name": "",
							"type": "address"
						}
					],
					"name": "isAdmin",
					"outputs": [
						{
							"internalType": "enum RoleAccess.Role",
							"name": "",
							"type": "uint8"
						}
					],
					"stateMutability": "view",
					"type": "function"
				},
				{
					"inputs": [],
					"name": "nextFoodDetailId",
					"outputs": [
						{
							"internalType": "uint256",
							"name": "",
							"type": "uint256"
						}
					],
					"stateMutability": "view",
					"type": "function"
				},
				{
					"inputs": [],
					"name": "nextFoodId",
					"outputs": [
						{
							"internalType": "uint256",
							"name": "",
							"type": "uint256"
						}
					],
					"stateMutability": "view",
					"type": "function"
				},
				{
					"inputs": [
						{
							"internalType": "uint256",
							"name": "_foodId",
							"type": "uint256"
						},
						{
							"internalType": "uint256",
							"name": "foodDetailId",
							"type": "uint256"
						},
						{
							"internalType": "uint256",
							"name": "_quantity",
							"type": "uint256"
						}
					],
					"name": "reduceQuantiy",
					"outputs": [],
					"stateMutability": "nonpayable",
					"type": "function"
				},
				{
					"inputs": [
						{
							"internalType": "address",
							"name": "_admin",
							"type": "address"
						}
					],
					"name": "removeAdmin",
					"outputs": [],
					"stateMutability": "nonpayable",
					"type": "function"
				},
				{
					"inputs": [
						{
							"internalType": "uint256",
							"name": "_foodId",
							"type": "uint256"
						},
						{
							"internalType": "string",
							"name": "_name",
							"type": "string"
						},
						{
							"internalType": "string",
							"name": "_description",
							"type": "string"
						},
						{
							"internalType": "uint256",
							"name": "_categoryId",
							"type": "uint256"
						},
						{
							"internalType": "string[]",
							"name": "_imageUrl",
							"type": "string[]"
						}
					],
					"name": "updateFood",
					"outputs": [],
					"stateMutability": "nonpayable",
					"type": "function"
				},
				{
					"inputs": [
						{
							"internalType": "uint256",
							"name": "foodId",
							"type": "uint256"
						},
						{
							"internalType": "uint256",
							"name": "foodDetailId",
							"type": "uint256"
						},
						{
							"components": [
								{
									"internalType": "string",
									"name": "size",
									"type": "string"
								},
								{
									"internalType": "uint256",
									"name": "quantity",
									"type": "uint256"
								},
								{
									"internalType": "uint256",
									"name": "price",
									"type": "uint256"
								}
							],
							"internalType": "struct UpdateFoodDetail",
							"name": "newDetail",
							"type": "tuple"
						}
					],
					"name": "updateFoodDetail",
					"outputs": [],
					"stateMutability": "nonpayable",
					"type": "function"
				}
			],
			"devdoc": {
				"kind": "dev",
				"methods": {},
				"version": 1
			},
			"evm": {
				"assembly": "    /* \"contracts/manager/FoodManager.sol\":216:8046  contract FoodManager is IFoodManager, RoleAccess {... */\n  mstore(0x40, 0x80)\n    /* \"contracts/manager/FoodManager.sol\":345:346  1 */\n  0x01\n    /* \"contracts/manager/FoodManager.sol\":317:346  uint256 public nextFoodId = 1 */\n  0x03\n  sstore\n    /* \"contracts/manager/FoodManager.sol\":386:387  1 */\n  0x01\n    /* \"contracts/manager/FoodManager.sol\":352:387  uint256 public nextFoodDetailId = 1 */\n  0x04\n  sstore\n    /* \"contracts/manager/FoodManager.sol\":527:680  constructor(address _categoryManagerAddress) {... */\n  callvalue\n  dup1\n  iszero\n  tag_1\n  jumpi\n  revert(0x00, 0x00)\ntag_1:\n  pop\n  mload(0x40)\n  sub(codesize, bytecodeSize)\n  dup1\n  bytecodeSize\n  dup4\n  codecopy\n  dup2\n  dup2\n  add\n  0x40\n  mstore\n  dup2\n  add\n  swap1\n  tag_2\n  swap2\n  swap1\n  tag_3\n  jump\t// in\ntag_2:\n    /* \"contracts/access/RoleAccess.sol\":512:522  msg.sender */\n  caller\n    /* \"contracts/access/RoleAccess.sol\":505:510  owner */\n  0x00\n  0x00\n    /* \"contracts/access/RoleAccess.sol\":505:522  owner =msg.sender */\n  0x0100\n  exp\n  dup2\n  sload\n  dup2\n  0xffffffffffffffffffffffffffffffffffffffff\n  mul\n  not\n  and\n  swap1\n  dup4\n  0xffffffffffffffffffffffffffffffffffffffff\n  and\n  mul\n  or\n  swap1\n  sstore\n  pop\n    /* \"contracts/manager/FoodManager.sol\":617:640  _categoryManagerAddress */\n  dup1\n    /* \"contracts/manager/FoodManager.sol\":582:597  categoryManager */\n  0x02\n  0x00\n    /* \"contracts/manager/FoodManager.sol\":582:641  categoryManager = ICategoryManager(_categoryManagerAddress) */\n  0x0100\n  exp\n  dup2\n  sload\n  dup2\n  0xffffffffffffffffffffffffffffffffffffffff\n  mul\n  not\n  and\n  swap1\n  dup4\n  0xffffffffffffffffffffffffffffffffffffffff\n  and\n  mul\n  or\n  swap1\n  sstore\n  pop\n    /* \"contracts/manager/FoodManager.sol\":527:680  constructor(address _categoryManagerAddress) {... */\n  pop\n    /* \"contracts/manager/FoodManager.sol\":216:8046  contract FoodManager is IFoodManager, RoleAccess {... */\n  jump(tag_8)\n    /* \"#utility.yul\":88:205   */\ntag_10:\n    /* \"#utility.yul\":197:198   */\n  0x00\n    /* \"#utility.yul\":194:195   */\n  0x00\n    /* \"#utility.yul\":187:199   */\n  revert\n    /* \"#utility.yul\":334:460   */\ntag_12:\n    /* \"#utility.yul\":371:378   */\n  0x00\n    /* \"#utility.yul\":411:453   */\n  0xffffffffffffffffffffffffffffffffffffffff\n    /* \"#utility.yul\":404:409   */\n  dup3\n    /* \"#utility.yul\":400:454   */\n  and\n    /* \"#utility.yul\":389:454   */\n  swap1\n  pop\n    /* \"#utility.yul\":334:460   */\n  swap2\n  swap1\n  pop\n  jump\t// out\n    /* \"#utility.yul\":466:562   */\ntag_13:\n    /* \"#utility.yul\":503:510   */\n  0x00\n    /* \"#utility.yul\":532:556   */\n  tag_22\n    /* \"#utility.yul\":550:555   */\n  dup3\n    /* \"#utility.yul\":532:556   */\n  tag_12\n  jump\t// in\ntag_22:\n    /* \"#utility.yul\":521:556   */\n  swap1\n  pop\n    /* \"#utility.yul\":466:562   */\n  swap2\n  swap1\n  pop\n  jump\t// out\n    /* \"#utility.yul\":568:690   */\ntag_14:\n    /* \"#utility.yul\":641:665   */\n  tag_24\n    /* \"#utility.yul\":659:664   */\n  dup2\n    /* \"#utility.yul\":641:665   */\n  tag_13\n  jump\t// in\ntag_24:\n    /* \"#utility.yul\":634:639   */\n  dup2\n    /* \"#utility.yul\":631:666   */\n  eq\n    /* \"#utility.yul\":621:684   */\n  tag_25\n  jumpi\n    /* \"#utility.yul\":680:681   */\n  0x00\n    /* \"#utility.yul\":677:678   */\n  0x00\n    /* \"#utility.yul\":670:682   */\n  revert\n    /* \"#utility.yul\":621:684   */\ntag_25:\n    /* \"#utility.yul\":568:690   */\n  pop\n  jump\t// out\n    /* \"#utility.yul\":696:839   */\ntag_15:\n    /* \"#utility.yul\":753:758   */\n  0x00\n    /* \"#utility.yul\":784:790   */\n  dup2\n    /* \"#utility.yul\":778:791   */\n  mload\n    /* \"#utility.yul\":769:791   */\n  swap1\n  pop\n    /* \"#utility.yul\":800:833   */\n  tag_27\n    /* \"#utility.yul\":827:832   */\n  dup2\n    /* \"#utility.yul\":800:833   */\n  tag_14\n  jump\t// in\ntag_27:\n    /* \"#utility.yul\":696:839   */\n  swap3\n  swap2\n  pop\n  pop\n  jump\t// out\n    /* \"#utility.yul\":845:1196   */\ntag_3:\n    /* \"#utility.yul\":915:921   */\n  0x00\n    /* \"#utility.yul\":964:966   */\n  0x20\n    /* \"#utility.yul\":952:961   */\n  dup3\n    /* \"#utility.yul\":943:950   */\n  dup5\n    /* \"#utility.yul\":939:962   */\n  sub\n    /* \"#utility.yul\":935:967   */\n  slt\n    /* \"#utility.yul\":932:1051   */\n  iszero\n  tag_29\n  jumpi\n    /* \"#utility.yul\":970:1049   */\n  tag_30\n  tag_10\n  jump\t// in\ntag_30:\n    /* \"#utility.yul\":932:1051   */\ntag_29:\n    /* \"#utility.yul\":1090:1091   */\n  0x00\n    /* \"#utility.yul\":1115:1179   */\n  tag_31\n    /* \"#utility.yul\":1171:1178   */\n  dup5\n    /* \"#utility.yul\":1162:1168   */\n  dup3\n    /* \"#utility.yul\":1151:1160   */\n  dup6\n    /* \"#utility.yul\":1147:1169   */\n  add\n    /* \"#utility.yul\":1115:1179   */\n  tag_15\n  jump\t// in\ntag_31:\n    /* \"#utility.yul\":1105:1179   */\n  swap2\n  pop\n    /* \"#utility.yul\":1061:1189   */\n  pop\n    /* \"#utility.yul\":845:1196   */\n  swap3\n  swap2\n  pop\n  pop\n  jump\t// out\n    /* \"contracts/manager/FoodManager.sol\":216:8046  contract FoodManager is IFoodManager, RoleAccess {... */\ntag_8:\n  dataSize(sub_0)\n  dup1\n  dataOffset(sub_0)\n  0x00\n  codecopy\n  0x00\n  return\nstop\n\nsub_0: assembly {\n        /* \"contracts/manager/FoodManager.sol\":216:8046  contract FoodManager is IFoodManager, RoleAccess {... */\n      mstore(0x40, 0x80)\n      callvalue\n      dup1\n      iszero\n      tag_1\n      jumpi\n      revert(0x00, 0x00)\n    tag_1:\n      pop\n      jumpi(tag_2, lt(calldatasize, 0x04))\n      shr(0xe0, calldataload(0x00))\n      dup1\n      0x6dd2dd88\n      gt\n      tag_22\n      jumpi\n      dup1\n      0xb447aaae\n      gt\n      tag_23\n      jumpi\n      dup1\n      0xb447aaae\n      eq\n      tag_17\n      jumpi\n      dup1\n      0xb9b5aae6\n      eq\n      tag_18\n      jumpi\n      dup1\n      0xbaf85306\n      eq\n      tag_19\n      jumpi\n      dup1\n      0xd198b650\n      eq\n      tag_20\n      jumpi\n      dup1\n      0xd86ec238\n      eq\n      tag_21\n      jumpi\n      jump(tag_2)\n    tag_23:\n      dup1\n      0x6dd2dd88\n      eq\n      tag_12\n      jumpi\n      dup1\n      0x70480275\n      eq\n      tag_13\n      jumpi\n      dup1\n      0x893d20e8\n      eq\n      tag_14\n      jumpi\n      dup1\n      0x9a69bfa6\n      eq\n      tag_15\n      jumpi\n      dup1\n      0xaf5607f9\n      eq\n      tag_16\n      jumpi\n      jump(tag_2)\n    tag_22:\n      dup1\n      0x1e4de872\n      gt\n      tag_24\n      jumpi\n      dup1\n      0x1e4de872\n      eq\n      tag_7\n      jumpi\n      dup1\n      0x24d7806c\n      eq\n      tag_8\n      jumpi\n      dup1\n      0x35085515\n      eq\n      tag_9\n      jumpi\n      dup1\n      0x4d30a39b\n      eq\n      tag_10\n      jumpi\n      dup1\n      0x64f77471\n      eq\n      tag_11\n      jumpi\n      jump(tag_2)\n    tag_24:\n      dup1\n      0x094b9a53\n      eq\n      tag_3\n      jumpi\n      dup1\n      0x1785f53c\n      eq\n      tag_4\n      jumpi\n      dup1\n      0x1945ef58\n      eq\n      tag_5\n      jumpi\n      dup1\n      0x1b0d77cc\n      eq\n      tag_6\n      jumpi\n    tag_2:\n      revert(0x00, 0x00)\n        /* \"contracts/manager/FoodManager.sol\":7311:7655  function increaseQuantiy (uint _foodId,uint foodDetailId,uint _quantity) external override {... */\n    tag_3:\n      tag_25\n      0x04\n      dup1\n      calldatasize\n      sub\n      dup2\n      add\n      swap1\n      tag_26\n      swap2\n      swap1\n      tag_27\n      jump\t// in\n    tag_26:\n      tag_28\n      jump\t// in\n    tag_25:\n      stop\n        /* \"contracts/access/RoleAccess.sol\":789:881  function removeAdmin(address _admin) external {... */\n    tag_4:\n      tag_29\n      0x04\n      dup1\n      calldatasize\n      sub\n      dup2\n      add\n      swap1\n      tag_30\n      swap2\n      swap1\n      tag_31\n      jump\t// in\n    tag_30:\n      tag_32\n      jump\t// in\n    tag_29:\n      stop\n        /* \"contracts/manager/FoodManager.sol\":317:346  uint256 public nextFoodId = 1 */\n    tag_5:\n      tag_33\n      tag_34\n      jump\t// in\n    tag_33:\n      mload(0x40)\n      tag_35\n      swap2\n      swap1\n      tag_36\n      jump\t// in\n    tag_35:\n      mload(0x40)\n      dup1\n      swap2\n      sub\n      swap1\n      return\n        /* \"contracts/manager/FoodManager.sol\":352:387  uint256 public nextFoodDetailId = 1 */\n    tag_6:\n      tag_37\n      tag_38\n      jump\t// in\n    tag_37:\n      mload(0x40)\n      tag_39\n      swap2\n      swap1\n      tag_36\n      jump\t// in\n    tag_39:\n      mload(0x40)\n      dup1\n      swap2\n      sub\n      swap1\n      return\n        /* \"contracts/manager/FoodManager.sol\":6113:6331  function getFood(uint256 foodId)... */\n    tag_7:\n      tag_40\n      0x04\n      dup1\n      calldatasize\n      sub\n      dup2\n      add\n      swap1\n      tag_41\n      swap2\n      swap1\n      tag_42\n      jump\t// in\n    tag_41:\n      tag_43\n      jump\t// in\n    tag_40:\n      mload(0x40)\n      tag_44\n      swap2\n      swap1\n      tag_45\n      jump\t// in\n    tag_44:\n      mload(0x40)\n      dup1\n      swap2\n      sub\n      swap1\n      return\n        /* \"contracts/access/RoleAccess.sol\":180:219  mapping(address => Role) public isAdmin */\n    tag_8:\n      tag_46\n      0x04\n      dup1\n      calldatasize\n      sub\n      dup2\n      add\n      swap1\n      tag_47\n      swap2\n      swap1\n      tag_31\n      jump\t// in\n    tag_47:\n      tag_48\n      jump\t// in\n    tag_46:\n      mload(0x40)\n      tag_49\n      swap2\n      swap1\n      tag_50\n      jump\t// in\n    tag_49:\n      mload(0x40)\n      dup1\n      swap2\n      sub\n      swap1\n      return\n        /* \"contracts/manager/FoodManager.sol\":7660:8042  function getFoodDetailByFoodId_FoodDetailId(uint _foodId, uint _foodDetailId) ... */\n    tag_9:\n      tag_51\n      0x04\n      dup1\n      calldatasize\n      sub\n      dup2\n      add\n      swap1\n      tag_52\n      swap2\n      swap1\n      tag_53\n      jump\t// in\n    tag_52:\n      tag_54\n      jump\t// in\n    tag_51:\n      mload(0x40)\n      tag_55\n      swap2\n      swap1\n      tag_56\n      jump\t// in\n    tag_55:\n      mload(0x40)\n      dup1\n      swap2\n      sub\n      swap1\n      return\n        /* \"contracts/manager/FoodManager.sol\":5008:5810  function deleteFoodDetail(uint256 foodId, uint256 foodDetailId)... */\n    tag_10:\n      tag_57\n      0x04\n      dup1\n      calldatasize\n      sub\n      dup2\n      add\n      swap1\n      tag_58\n      swap2\n      swap1\n      tag_53\n      jump\t// in\n    tag_58:\n      tag_59\n      jump\t// in\n    tag_57:\n      stop\n        /* \"contracts/manager/FoodManager.sol\":3533:4179  function addFoodDetails(uint256 foodId, UpdateFoodDetail[] memory details)... */\n    tag_11:\n      tag_60\n      0x04\n      dup1\n      calldatasize\n      sub\n      dup2\n      add\n      swap1\n      tag_61\n      swap2\n      swap1\n      tag_62\n      jump\t// in\n    tag_61:\n      tag_63\n      jump\t// in\n    tag_60:\n      stop\n        /* \"contracts/manager/FoodManager.sol\":2269:2942  function updateFood(... */\n    tag_12:\n      tag_64\n      0x04\n      dup1\n      calldatasize\n      sub\n      dup2\n      add\n      swap1\n      tag_65\n      swap2\n      swap1\n      tag_66\n      jump\t// in\n    tag_65:\n      tag_67\n      jump\t// in\n    tag_64:\n      stop\n        /* \"contracts/access/RoleAccess.sol\":625:781  function addAdmin(address _admin) external virtual  {... */\n    tag_13:\n      tag_68\n      0x04\n      dup1\n      calldatasize\n      sub\n      dup2\n      add\n      swap1\n      tag_69\n      swap2\n      swap1\n      tag_31\n      jump\t// in\n    tag_69:\n      tag_70\n      jump\t// in\n    tag_68:\n      stop\n        /* \"contracts/access/RoleAccess.sol\":537:619  function getOwner () public  view returns (address){... */\n    tag_14:\n      tag_71\n      tag_72\n      jump\t// in\n    tag_71:\n      mload(0x40)\n      tag_73\n      swap2\n      swap1\n      tag_74\n      jump\t// in\n    tag_73:\n      mload(0x40)\n      dup1\n      swap2\n      sub\n      swap1\n      return\n        /* \"contracts/manager/FoodManager.sol\":6849:7306  function reduceQuantiy (uint _foodId,uint foodDetailId,uint _quantity) external override {... */\n    tag_15:\n      tag_75\n      0x04\n      dup1\n      calldatasize\n      sub\n      dup2\n      add\n      swap1\n      tag_76\n      swap2\n      swap1\n      tag_27\n      jump\t// in\n    tag_76:\n      tag_77\n      jump\t// in\n    tag_75:\n      stop\n        /* \"contracts/manager/FoodManager.sol\":5828:6067  function getFoodDetails(uint256 foodId)... */\n    tag_16:\n      tag_78\n      0x04\n      dup1\n      calldatasize\n      sub\n      dup2\n      add\n      swap1\n      tag_79\n      swap2\n      swap1\n      tag_42\n      jump\t// in\n    tag_79:\n      tag_80\n      jump\t// in\n    tag_78:\n      mload(0x40)\n      tag_81\n      swap2\n      swap1\n      tag_82\n      jump\t// in\n    tag_81:\n      mload(0x40)\n      dup1\n      swap2\n      sub\n      swap1\n      return\n        /* \"contracts/manager/FoodManager.sol\":686:2263  function createFood(... */\n    tag_17:\n      tag_83\n      0x04\n      dup1\n      calldatasize\n      sub\n      dup2\n      add\n      swap1\n      tag_84\n      swap2\n      swap1\n      tag_85\n      jump\t// in\n    tag_84:\n      tag_86\n      jump\t// in\n    tag_83:\n      stop\n        /* \"contracts/manager/FoodManager.sol\":6337:6843  function getAllFoods()... */\n    tag_18:\n      tag_87\n      tag_88\n      jump\t// in\n    tag_87:\n      mload(0x40)\n      tag_89\n      swap2\n      swap1\n      tag_90\n      jump\t// in\n    tag_89:\n      mload(0x40)\n      dup1\n      swap2\n      sub\n      swap1\n      return\n        /* \"contracts/manager/FoodManager.sol\":4185:5002  function updateFoodDetail(... */\n    tag_19:\n      tag_91\n      0x04\n      dup1\n      calldatasize\n      sub\n      dup2\n      add\n      swap1\n      tag_92\n      swap2\n      swap1\n      tag_93\n      jump\t// in\n    tag_92:\n      tag_94\n      jump\t// in\n    tag_91:\n      stop\n        /* \"contracts/manager/FoodManager.sol\":2948:3491  function deleteFood(uint256 foodId) external override {... */\n    tag_20:\n      tag_95\n      0x04\n      dup1\n      calldatasize\n      sub\n      dup2\n      add\n      swap1\n      tag_96\n      swap2\n      swap1\n      tag_42\n      jump\t// in\n    tag_96:\n      tag_97\n      jump\t// in\n    tag_95:\n      stop\n        /* \"contracts/manager/FoodManager.sol\":271:310  ICategoryManager public categoryManager */\n    tag_21:\n      tag_98\n      tag_99\n      jump\t// in\n    tag_98:\n      mload(0x40)\n      tag_100\n      swap2\n      swap1\n      tag_101\n      jump\t// in\n    tag_100:\n      mload(0x40)\n      dup1\n      swap2\n      sub\n      swap1\n      return\n        /* \"contracts/manager/FoodManager.sol\":7311:7655  function increaseQuantiy (uint _foodId,uint foodDetailId,uint _quantity) external override {... */\n    tag_28:\n        /* \"contracts/manager/FoodManager.sol\":7416:7422  uint i */\n      0x00\n        /* \"contracts/manager/FoodManager.sol\":7425:7426  0 */\n      0x00\n        /* \"contracts/manager/FoodManager.sol\":7416:7426  uint i = 0 */\n      swap1\n      pop\n        /* \"contracts/manager/FoodManager.sol\":7412:7648  for(uint i = 0;  i< foodDetails[_foodId].length ; i++ ){... */\n    tag_103:\n        /* \"contracts/manager/FoodManager.sol\":7432:7443  foodDetails */\n      0x06\n        /* \"contracts/manager/FoodManager.sol\":7432:7452  foodDetails[_foodId] */\n      0x00\n        /* \"contracts/manager/FoodManager.sol\":7444:7451  _foodId */\n      dup6\n        /* \"contracts/manager/FoodManager.sol\":7432:7452  foodDetails[_foodId] */\n      dup2\n      mstore\n      0x20\n      add\n      swap1\n      dup2\n      mstore\n      0x20\n      add\n      0x00\n      keccak256\n        /* \"contracts/manager/FoodManager.sol\":7432:7459  foodDetails[_foodId].length */\n      dup1\n      sload\n      swap1\n      pop\n        /* \"contracts/manager/FoodManager.sol\":7429:7430  i */\n      dup2\n        /* \"contracts/manager/FoodManager.sol\":7429:7459  i< foodDetails[_foodId].length */\n      lt\n        /* \"contracts/manager/FoodManager.sol\":7412:7648  for(uint i = 0;  i< foodDetails[_foodId].length ; i++ ){... */\n      iszero\n      tag_104\n      jumpi\n        /* \"contracts/manager/FoodManager.sol\":7524:7536  foodDetailId */\n      dup3\n        /* \"contracts/manager/FoodManager.sol\":7484:7495  foodDetails */\n      0x06\n        /* \"contracts/manager/FoodManager.sol\":7484:7504  foodDetails[_foodId] */\n      0x00\n        /* \"contracts/manager/FoodManager.sol\":7496:7503  _foodId */\n      dup7\n        /* \"contracts/manager/FoodManager.sol\":7484:7504  foodDetails[_foodId] */\n      dup2\n      mstore\n      0x20\n      add\n      swap1\n      dup2\n      mstore\n      0x20\n      add\n      0x00\n      keccak256\n        /* \"contracts/manager/FoodManager.sol\":7505:7506  i */\n      dup3\n        /* \"contracts/manager/FoodManager.sol\":7484:7507  foodDetails[_foodId][i] */\n      dup2\n      sload\n      dup2\n      lt\n      tag_106\n      jumpi\n      tag_107\n      tag_108\n      jump\t// in\n    tag_107:\n    tag_106:\n      swap1\n      0x00\n      mstore\n      keccak256(0x00, 0x20)\n      swap1\n      0x04\n      mul\n      add\n        /* \"contracts/manager/FoodManager.sol\":7484:7520  foodDetails[_foodId][i].foodDetailId */\n      0x00\n      add\n      sload\n        /* \"contracts/manager/FoodManager.sol\":7484:7536  foodDetails[_foodId][i].foodDetailId == foodDetailId */\n      sub\n        /* \"contracts/manager/FoodManager.sol\":7481:7638  if(foodDetails[_foodId][i].foodDetailId == foodDetailId){... */\n      tag_110\n      jumpi\n        /* \"contracts/manager/FoodManager.sol\":7591:7600  _quantity */\n      dup2\n        /* \"contracts/manager/FoodManager.sol\":7555:7566  foodDetails */\n      0x06\n        /* \"contracts/manager/FoodManager.sol\":7555:7575  foodDetails[_foodId] */\n      0x00\n        /* \"contracts/manager/FoodManager.sol\":7567:7574  _foodId */\n      dup7\n        /* \"contracts/manager/FoodManager.sol\":7555:7575  foodDetails[_foodId] */\n      dup2\n      mstore\n      0x20\n      add\n      swap1\n      dup2\n      mstore\n      0x20\n      add\n      0x00\n      keccak256\n        /* \"contracts/manager/FoodManager.sol\":7576:7577  i */\n      dup3\n        /* \"contracts/manager/FoodManager.sol\":7555:7578  foodDetails[_foodId][i] */\n      dup2\n      sload\n      dup2\n      lt\n      tag_111\n      jumpi\n      tag_112\n      tag_108\n      jump\t// in\n    tag_112:\n    tag_111:\n      swap1\n      0x00\n      mstore\n      keccak256(0x00, 0x20)\n      swap1\n      0x04\n      mul\n      add\n        /* \"contracts/manager/FoodManager.sol\":7555:7587  foodDetails[_foodId][i].quantity */\n      0x02\n      add\n      0x00\n        /* \"contracts/manager/FoodManager.sol\":7555:7600  foodDetails[_foodId][i].quantity += _quantity */\n      dup3\n      dup3\n      sload\n      tag_114\n      swap2\n      swap1\n      tag_115\n      jump\t// in\n    tag_114:\n      swap3\n      pop\n      pop\n      dup2\n      swap1\n      sstore\n      pop\n        /* \"contracts/manager/FoodManager.sol\":7618:7623  break */\n      jump(tag_104)\n        /* \"contracts/manager/FoodManager.sol\":7481:7638  if(foodDetails[_foodId][i].foodDetailId == foodDetailId){... */\n    tag_110:\n        /* \"contracts/manager/FoodManager.sol\":7462:7465  i++ */\n      dup1\n      dup1\n      0x01\n      add\n      swap2\n      pop\n      pop\n        /* \"contracts/manager/FoodManager.sol\":7412:7648  for(uint i = 0;  i< foodDetails[_foodId].length ; i++ ){... */\n      jump(tag_103)\n    tag_104:\n      pop\n        /* \"contracts/manager/FoodManager.sol\":7311:7655  function increaseQuantiy (uint _foodId,uint foodDetailId,uint _quantity) external override {... */\n      pop\n      pop\n      pop\n      jump\t// out\n        /* \"contracts/access/RoleAccess.sol\":789:881  function removeAdmin(address _admin) external {... */\n    tag_32:\n        /* \"contracts/access/RoleAccess.sol\":864:873  Role.NONE */\n      0x00\n        /* \"contracts/access/RoleAccess.sol\":846:853  isAdmin */\n      0x01\n        /* \"contracts/access/RoleAccess.sol\":846:861  isAdmin[_admin] */\n      0x00\n        /* \"contracts/access/RoleAccess.sol\":854:860  _admin */\n      dup4\n        /* \"contracts/access/RoleAccess.sol\":846:861  isAdmin[_admin] */\n      0xffffffffffffffffffffffffffffffffffffffff\n      and\n      0xffffffffffffffffffffffffffffffffffffffff\n      and\n      dup2\n      mstore\n      0x20\n      add\n      swap1\n      dup2\n      mstore\n      0x20\n      add\n      0x00\n      keccak256\n      0x00\n        /* \"contracts/access/RoleAccess.sol\":846:873  isAdmin[_admin] = Role.NONE */\n      0x0100\n      exp\n      dup2\n      sload\n      dup2\n      0xff\n      mul\n      not\n      and\n      swap1\n      dup4\n      0x02\n      dup2\n      gt\n      iszero\n      tag_117\n      jumpi\n      tag_118\n      tag_119\n      jump\t// in\n    tag_118:\n    tag_117:\n      mul\n      or\n      swap1\n      sstore\n      pop\n        /* \"contracts/access/RoleAccess.sol\":789:881  function removeAdmin(address _admin) external {... */\n      pop\n      jump\t// out\n        /* \"contracts/manager/FoodManager.sol\":317:346  uint256 public nextFoodId = 1 */\n    tag_34:\n      sload(0x03)\n      dup2\n      jump\t// out\n        /* \"contracts/manager/FoodManager.sol\":352:387  uint256 public nextFoodDetailId = 1 */\n    tag_38:\n      sload(0x04)\n      dup2\n      jump\t// out\n        /* \"contracts/manager/FoodManager.sol\":6113:6331  function getFood(uint256 foodId)... */\n    tag_43:\n        /* \"contracts/manager/FoodManager.sol\":6210:6221  Food memory */\n      tag_120\n      tag_121\n      jump\t// in\n    tag_120:\n        /* \"contracts/manager/FoodManager.sol\":6269:6270  0 */\n      0x00\n        /* \"contracts/manager/FoodManager.sol\":6245:6250  foods */\n      0x05\n        /* \"contracts/manager/FoodManager.sol\":6245:6258  foods[foodId] */\n      0x00\n        /* \"contracts/manager/FoodManager.sol\":6251:6257  foodId */\n      dup5\n        /* \"contracts/manager/FoodManager.sol\":6245:6258  foods[foodId] */\n      dup2\n      mstore\n      0x20\n      add\n      swap1\n      dup2\n      mstore\n      0x20\n      add\n      0x00\n      keccak256\n        /* \"contracts/manager/FoodManager.sol\":6245:6265  foods[foodId].foodId */\n      0x00\n      add\n      sload\n        /* \"contracts/manager/FoodManager.sol\":6245:6270  foods[foodId].foodId != 0 */\n      sub\n        /* \"contracts/manager/FoodManager.sol\":6237:6294  require(foods[foodId].foodId != 0, \"Food does not exist\") */\n      tag_123\n      jumpi\n      mload(0x40)\n      0x08c379a000000000000000000000000000000000000000000000000000000000\n      dup2\n      mstore\n      0x04\n      add\n      tag_124\n      swap1\n      tag_125\n      jump\t// in\n    tag_124:\n      mload(0x40)\n      dup1\n      swap2\n      sub\n      swap1\n      revert\n    tag_123:\n        /* \"contracts/manager/FoodManager.sol\":6311:6316  foods */\n      0x05\n        /* \"contracts/manager/FoodManager.sol\":6311:6324  foods[foodId] */\n      0x00\n        /* \"contracts/manager/FoodManager.sol\":6317:6323  foodId */\n      dup4\n        /* \"contracts/manager/FoodManager.sol\":6311:6324  foods[foodId] */\n      dup2\n      mstore\n      0x20\n      add\n      swap1\n      dup2\n      mstore\n      0x20\n      add\n      0x00\n      keccak256\n        /* \"contracts/manager/FoodManager.sol\":6304:6324  return foods[foodId] */\n      mload(0x40)\n      dup1\n      0xe0\n      add\n      0x40\n      mstore\n      swap1\n      dup2\n      0x00\n      dup3\n      add\n      sload\n      dup2\n      mstore\n      0x20\n      add\n      0x01\n      dup3\n      add\n      dup1\n      sload\n      tag_126\n      swap1\n      tag_127\n      jump\t// in\n    tag_126:\n      dup1\n      0x1f\n      add\n      0x20\n      dup1\n      swap2\n      div\n      mul\n      0x20\n      add\n      mload(0x40)\n      swap1\n      dup2\n      add\n      0x40\n      mstore\n      dup1\n      swap3\n      swap2\n      swap1\n      dup2\n      dup2\n      mstore\n      0x20\n      add\n      dup3\n      dup1\n      sload\n      tag_128\n      swap1\n      tag_127\n      jump\t// in\n    tag_128:\n      dup1\n      iszero\n      tag_129\n      jumpi\n      dup1\n      0x1f\n      lt\n      tag_130\n      jumpi\n      0x0100\n      dup1\n      dup4\n      sload\n      div\n      mul\n      dup4\n      mstore\n      swap2\n      0x20\n      add\n      swap2\n      jump(tag_129)\n    tag_130:\n      dup3\n      add\n      swap2\n      swap1\n      0x00\n      mstore\n      keccak256(0x00, 0x20)\n      swap1\n    tag_131:\n      dup2\n      sload\n      dup2\n      mstore\n      swap1\n      0x01\n      add\n      swap1\n      0x20\n      add\n      dup1\n      dup4\n      gt\n      tag_131\n      jumpi\n      dup3\n      swap1\n      sub\n      0x1f\n      and\n      dup3\n      add\n      swap2\n    tag_129:\n      pop\n      pop\n      pop\n      pop\n      pop\n      dup2\n      mstore\n      0x20\n      add\n      0x02\n      dup3\n      add\n      dup1\n      sload\n      tag_132\n      swap1\n      tag_127\n      jump\t// in\n    tag_132:\n      dup1\n      0x1f\n      add\n      0x20\n      dup1\n      swap2\n      div\n      mul\n      0x20\n      add\n      mload(0x40)\n      swap1\n      dup2\n      add\n      0x40\n      mstore\n      dup1\n      swap3\n      swap2\n      swap1\n      dup2\n      dup2\n      mstore\n      0x20\n      add\n      dup3\n      dup1\n      sload\n      tag_133\n      swap1\n      tag_127\n      jump\t// in\n    tag_133:\n      dup1\n      iszero\n      tag_134\n      jumpi\n      dup1\n      0x1f\n      lt\n      tag_135\n      jumpi\n      0x0100\n      dup1\n      dup4\n      sload\n      div\n      mul\n      dup4\n      mstore\n      swap2\n      0x20\n      add\n      swap2\n      jump(tag_134)\n    tag_135:\n      dup3\n      add\n      swap2\n      swap1\n      0x00\n      mstore\n      keccak256(0x00, 0x20)\n      swap1\n    tag_136:\n      dup2\n      sload\n      dup2\n      mstore\n      swap1\n      0x01\n      add\n      swap1\n      0x20\n      add\n      dup1\n      dup4\n      gt\n      tag_136\n      jumpi\n      dup3\n      swap1\n      sub\n      0x1f\n      and\n      dup3\n      add\n      swap2\n    tag_134:\n      pop\n      pop\n      pop\n      pop\n      pop\n      dup2\n      mstore\n      0x20\n      add\n      0x03\n      dup3\n      add\n      sload\n      dup2\n      mstore\n      0x20\n      add\n      0x04\n      dup3\n      add\n      dup1\n      sload\n      dup1\n      0x20\n      mul\n      0x20\n      add\n      mload(0x40)\n      swap1\n      dup2\n      add\n      0x40\n      mstore\n      dup1\n      swap3\n      swap2\n      swap1\n      dup2\n      dup2\n      mstore\n      0x20\n      add\n      0x00\n      swap1\n    tag_137:\n      dup3\n      dup3\n      lt\n      iszero\n      tag_138\n      jumpi\n      dup4\n      dup3\n      swap1\n      0x00\n      mstore\n      keccak256(0x00, 0x20)\n      add\n      dup1\n      sload\n      tag_140\n      swap1\n      tag_127\n      jump\t// in\n    tag_140:\n      dup1\n      0x1f\n      add\n      0x20\n      dup1\n      swap2\n      div\n      mul\n      0x20\n      add\n      mload(0x40)\n      swap1\n      dup2\n      add\n      0x40\n      mstore\n      dup1\n      swap3\n      swap2\n      swap1\n      dup2\n      dup2\n      mstore\n      0x20\n      add\n      dup3\n      dup1\n      sload\n      tag_141\n      swap1\n      tag_127\n      jump\t// in\n    tag_141:\n      dup1\n      iszero\n      tag_142\n      jumpi\n      dup1\n      0x1f\n      lt\n      tag_143\n      jumpi\n      0x0100\n      dup1\n      dup4\n      sload\n      div\n      mul\n      dup4\n      mstore\n      swap2\n      0x20\n      add\n      swap2\n      jump(tag_142)\n    tag_143:\n      dup3\n      add\n      swap2\n      swap1\n      0x00\n      mstore\n      keccak256(0x00, 0x20)\n      swap1\n    tag_144:\n      dup2\n      sload\n      dup2\n      mstore\n      swap1\n      0x01\n      add\n      swap1\n      0x20\n      add\n      dup1\n      dup4\n      gt\n      tag_144\n      jumpi\n      dup3\n      swap1\n      sub\n      0x1f\n      and\n      dup3\n      add\n      swap2\n    tag_142:\n      pop\n      pop\n      pop\n      pop\n      pop\n      dup2\n      mstore\n      0x20\n      add\n      swap1\n      0x01\n      add\n      swap1\n      jump(tag_137)\n    tag_138:\n      pop\n      pop\n      pop\n      pop\n      dup2\n      mstore\n      0x20\n      add\n      0x05\n      dup3\n      add\n      sload\n      dup2\n      mstore\n      0x20\n      add\n      0x06\n      dup3\n      add\n      sload\n      dup2\n      mstore\n      pop\n      pop\n      swap1\n      pop\n        /* \"contracts/manager/FoodManager.sol\":6113:6331  function getFood(uint256 foodId)... */\n      swap2\n      swap1\n      pop\n      jump\t// out\n        /* \"contracts/access/RoleAccess.sol\":180:219  mapping(address => Role) public isAdmin */\n    tag_48:\n      mstore(0x20, 0x01)\n      dup1\n      0x00\n      mstore\n      keccak256(0x00, 0x40)\n      0x00\n      swap2\n      pop\n      sload\n      swap1\n      0x0100\n      exp\n      swap1\n      div\n      0xff\n      and\n      dup2\n      jump\t// out\n        /* \"contracts/manager/FoodManager.sol\":7660:8042  function getFoodDetailByFoodId_FoodDetailId(uint _foodId, uint _foodDetailId) ... */\n    tag_54:\n        /* \"contracts/manager/FoodManager.sol\":7790:7810  FoodDetail memory fd */\n      tag_145\n      tag_146\n      jump\t// in\n    tag_145:\n        /* \"contracts/manager/FoodManager.sol\":7824:7830  uint i */\n      0x00\n        /* \"contracts/manager/FoodManager.sol\":7833:7834  0 */\n      0x00\n        /* \"contracts/manager/FoodManager.sol\":7824:7834  uint i = 0 */\n      swap1\n      pop\n        /* \"contracts/manager/FoodManager.sol\":7819:8004  for (uint i = 0; i < foodDetails[_foodId].length; i++) {... */\n    tag_148:\n        /* \"contracts/manager/FoodManager.sol\":7840:7851  foodDetails */\n      0x06\n        /* \"contracts/manager/FoodManager.sol\":7840:7860  foodDetails[_foodId] */\n      0x00\n        /* \"contracts/manager/FoodManager.sol\":7852:7859  _foodId */\n      dup6\n        /* \"contracts/manager/FoodManager.sol\":7840:7860  foodDetails[_foodId] */\n      dup2\n      mstore\n      0x20\n      add\n      swap1\n      dup2\n      mstore\n      0x20\n      add\n      0x00\n      keccak256\n        /* \"contracts/manager/FoodManager.sol\":7840:7867  foodDetails[_foodId].length */\n      dup1\n      sload\n      swap1\n      pop\n        /* \"contracts/manager/FoodManager.sol\":7836:7837  i */\n      dup2\n        /* \"contracts/manager/FoodManager.sol\":7836:7867  i < foodDetails[_foodId].length */\n      lt\n        /* \"contracts/manager/FoodManager.sol\":7819:8004  for (uint i = 0; i < foodDetails[_foodId].length; i++) {... */\n      iszero\n      tag_149\n      jumpi\n        /* \"contracts/manager/FoodManager.sol\":7928:7941  _foodDetailId */\n      dup3\n        /* \"contracts/manager/FoodManager.sol\":7888:7899  foodDetails */\n      0x06\n        /* \"contracts/manager/FoodManager.sol\":7888:7908  foodDetails[_foodId] */\n      0x00\n        /* \"contracts/manager/FoodManager.sol\":7900:7907  _foodId */\n      dup7\n        /* \"contracts/manager/FoodManager.sol\":7888:7908  foodDetails[_foodId] */\n      dup2\n      mstore\n      0x20\n      add\n      swap1\n      dup2\n      mstore\n      0x20\n      add\n      0x00\n      keccak256\n        /* \"contracts/manager/FoodManager.sol\":7909:7910  i */\n      dup3\n        /* \"contracts/manager/FoodManager.sol\":7888:7911  foodDetails[_foodId][i] */\n      dup2\n      sload\n      dup2\n      lt\n      tag_151\n      jumpi\n      tag_152\n      tag_108\n      jump\t// in\n    tag_152:\n    tag_151:\n      swap1\n      0x00\n      mstore\n      keccak256(0x00, 0x20)\n      swap1\n      0x04\n      mul\n      add\n        /* \"contracts/manager/FoodManager.sol\":7888:7924  foodDetails[_foodId][i].foodDetailId */\n      0x00\n      add\n      sload\n        /* \"contracts/manager/FoodManager.sol\":7888:7941  foodDetails[_foodId][i].foodDetailId == _foodDetailId */\n      sub\n        /* \"contracts/manager/FoodManager.sol\":7884:7998  if (foodDetails[_foodId][i].foodDetailId == _foodDetailId) {... */\n      tag_154\n      jumpi\n        /* \"contracts/manager/FoodManager.sol\":7964:7975  foodDetails */\n      0x06\n        /* \"contracts/manager/FoodManager.sol\":7964:7984  foodDetails[_foodId] */\n      0x00\n        /* \"contracts/manager/FoodManager.sol\":7976:7983  _foodId */\n      dup6\n        /* \"contracts/manager/FoodManager.sol\":7964:7984  foodDetails[_foodId] */\n      dup2\n      mstore\n      0x20\n      add\n      swap1\n      dup2\n      mstore\n      0x20\n      add\n      0x00\n      keccak256\n        /* \"contracts/manager/FoodManager.sol\":7985:7986  i */\n      dup2\n        /* \"contracts/manager/FoodManager.sol\":7964:7987  foodDetails[_foodId][i] */\n      dup2\n      sload\n      dup2\n      lt\n      tag_155\n      jumpi\n      tag_156\n      tag_108\n      jump\t// in\n    tag_156:\n    tag_155:\n      swap1\n      0x00\n      mstore\n      keccak256(0x00, 0x20)\n      swap1\n      0x04\n      mul\n      add\n        /* \"contracts/manager/FoodManager.sol\":7957:7987  return foodDetails[_foodId][i] */\n      mload(0x40)\n      dup1\n      0x80\n      add\n      0x40\n      mstore\n      swap1\n      dup2\n      0x00\n      dup3\n      add\n      sload\n      dup2\n      mstore\n      0x20\n      add\n      0x01\n      dup3\n      add\n      dup1\n      sload\n      tag_158\n      swap1\n      tag_127\n      jump\t// in\n    tag_158:\n      dup1\n      0x1f\n      add\n      0x20\n      dup1\n      swap2\n      div\n      mul\n      0x20\n      add\n      mload(0x40)\n      swap1\n      dup2\n      add\n      0x40\n      mstore\n      dup1\n      swap3\n      swap2\n      swap1\n      dup2\n      dup2\n      mstore\n      0x20\n      add\n      dup3\n      dup1\n      sload\n      tag_159\n      swap1\n      tag_127\n      jump\t// in\n    tag_159:\n      dup1\n      iszero\n      tag_160\n      jumpi\n      dup1\n      0x1f\n      lt\n      tag_161\n      jumpi\n      0x0100\n      dup1\n      dup4\n      sload\n      div\n      mul\n      dup4\n      mstore\n      swap2\n      0x20\n      add\n      swap2\n      jump(tag_160)\n    tag_161:\n      dup3\n      add\n      swap2\n      swap1\n      0x00\n      mstore\n      keccak256(0x00, 0x20)\n      swap1\n    tag_162:\n      dup2\n      sload\n      dup2\n      mstore\n      swap1\n      0x01\n      add\n      swap1\n      0x20\n      add\n      dup1\n      dup4\n      gt\n      tag_162\n      jumpi\n      dup3\n      swap1\n      sub\n      0x1f\n      and\n      dup3\n      add\n      swap2\n    tag_160:\n      pop\n      pop\n      pop\n      pop\n      pop\n      dup2\n      mstore\n      0x20\n      add\n      0x02\n      dup3\n      add\n      sload\n      dup2\n      mstore\n      0x20\n      add\n      0x03\n      dup3\n      add\n      sload\n      dup2\n      mstore\n      pop\n      pop\n      swap2\n      pop\n      pop\n      jump(tag_147)\n        /* \"contracts/manager/FoodManager.sol\":7884:7998  if (foodDetails[_foodId][i].foodDetailId == _foodDetailId) {... */\n    tag_154:\n        /* \"contracts/manager/FoodManager.sol\":7869:7872  i++ */\n      dup1\n      dup1\n      0x01\n      add\n      swap2\n      pop\n      pop\n        /* \"contracts/manager/FoodManager.sol\":7819:8004  for (uint i = 0; i < foodDetails[_foodId].length; i++) {... */\n      jump(tag_148)\n    tag_149:\n      pop\n        /* \"contracts/manager/FoodManager.sol\":8009:8039  revert(\"FoodDetail not found\") */\n      mload(0x40)\n      0x08c379a000000000000000000000000000000000000000000000000000000000\n      dup2\n      mstore\n      0x04\n      add\n      tag_163\n      swap1\n      tag_164\n      jump\t// in\n    tag_163:\n      mload(0x40)\n      dup1\n      swap2\n      sub\n      swap1\n      revert\n        /* \"contracts/manager/FoodManager.sol\":7660:8042  function getFoodDetailByFoodId_FoodDetailId(uint _foodId, uint _foodDetailId) ... */\n    tag_147:\n      swap3\n      swap2\n      pop\n      pop\n      jump\t// out\n        /* \"contracts/manager/FoodManager.sol\":5008:5810  function deleteFoodDetail(uint256 foodId, uint256 foodDetailId)... */\n    tag_59:\n        /* \"contracts/manager/FoodManager.sol\":5152:5153  0 */\n      0x00\n        /* \"contracts/manager/FoodManager.sol\":5128:5133  foods */\n      0x05\n        /* \"contracts/manager/FoodManager.sol\":5128:5141  foods[foodId] */\n      0x00\n        /* \"contracts/manager/FoodManager.sol\":5134:5140  foodId */\n      dup5\n        /* \"contracts/manager/FoodManager.sol\":5128:5141  foods[foodId] */\n      dup2\n      mstore\n      0x20\n      add\n      swap1\n      dup2\n      mstore\n      0x20\n      add\n      0x00\n      keccak256\n        /* \"contracts/manager/FoodManager.sol\":5128:5148  foods[foodId].foodId */\n      0x00\n      add\n      sload\n        /* \"contracts/manager/FoodManager.sol\":5128:5153  foods[foodId].foodId != 0 */\n      sub\n        /* \"contracts/manager/FoodManager.sol\":5120:5177  require(foods[foodId].foodId != 0, \"Food does not exist\") */\n      tag_166\n      jumpi\n      mload(0x40)\n      0x08c379a000000000000000000000000000000000000000000000000000000000\n      dup2\n      mstore\n      0x04\n      add\n      tag_167\n      swap1\n      tag_125\n      jump\t// in\n    tag_167:\n      mload(0x40)\n      dup1\n      swap2\n      sub\n      swap1\n      revert\n    tag_166:\n        /* \"contracts/manager/FoodManager.sol\":5187:5222  FoodDetail[] storage foodDetailList */\n      0x00\n        /* \"contracts/manager/FoodManager.sol\":5225:5236  foodDetails */\n      0x06\n        /* \"contracts/manager/FoodManager.sol\":5225:5244  foodDetails[foodId] */\n      0x00\n        /* \"contracts/manager/FoodManager.sol\":5237:5243  foodId */\n      dup5\n        /* \"contracts/manager/FoodManager.sol\":5225:5244  foodDetails[foodId] */\n      dup2\n      mstore\n      0x20\n      add\n      swap1\n      dup2\n      mstore\n      0x20\n      add\n      0x00\n      keccak256\n        /* \"contracts/manager/FoodManager.sol\":5187:5244  FoodDetail[] storage foodDetailList = foodDetails[foodId] */\n      swap1\n      pop\n        /* \"contracts/manager/FoodManager.sol\":5254:5264  bool found */\n      0x00\n        /* \"contracts/manager/FoodManager.sol\":5267:5272  false */\n      0x00\n        /* \"contracts/manager/FoodManager.sol\":5254:5272  bool found = false */\n      swap1\n      pop\n        /* \"contracts/manager/FoodManager.sol\":5287:5296  uint256 i */\n      0x00\n        /* \"contracts/manager/FoodManager.sol\":5299:5300  0 */\n      0x00\n        /* \"contracts/manager/FoodManager.sol\":5287:5300  uint256 i = 0 */\n      swap1\n      pop\n        /* \"contracts/manager/FoodManager.sol\":5282:5751  for (uint256 i = 0; i < foodDetailList.length; i++) {... */\n    tag_168:\n        /* \"contracts/manager/FoodManager.sol\":5306:5320  foodDetailList */\n      dup3\n        /* \"contracts/manager/FoodManager.sol\":5306:5327  foodDetailList.length */\n      dup1\n      sload\n      swap1\n      pop\n        /* \"contracts/manager/FoodManager.sol\":5302:5303  i */\n      dup2\n        /* \"contracts/manager/FoodManager.sol\":5302:5327  i < foodDetailList.length */\n      lt\n        /* \"contracts/manager/FoodManager.sol\":5282:5751  for (uint256 i = 0; i < foodDetailList.length; i++) {... */\n      iszero\n      tag_169\n      jumpi\n        /* \"contracts/manager/FoodManager.sol\":5386:5398  foodDetailId */\n      dup4\n        /* \"contracts/manager/FoodManager.sol\":5352:5366  foodDetailList */\n      dup4\n        /* \"contracts/manager/FoodManager.sol\":5367:5368  i */\n      dup3\n        /* \"contracts/manager/FoodManager.sol\":5352:5369  foodDetailList[i] */\n      dup2\n      sload\n      dup2\n      lt\n      tag_171\n      jumpi\n      tag_172\n      tag_108\n      jump\t// in\n    tag_172:\n    tag_171:\n      swap1\n      0x00\n      mstore\n      keccak256(0x00, 0x20)\n      swap1\n      0x04\n      mul\n      add\n        /* \"contracts/manager/FoodManager.sol\":5352:5382  foodDetailList[i].foodDetailId */\n      0x00\n      add\n      sload\n        /* \"contracts/manager/FoodManager.sol\":5352:5398  foodDetailList[i].foodDetailId == foodDetailId */\n      sub\n        /* \"contracts/manager/FoodManager.sol\":5348:5741  if (foodDetailList[i].foodDetailId == foodDetailId) {... */\n      tag_174\n      jumpi\n        /* \"contracts/manager/FoodManager.sol\":5462:5463  1 */\n      0x01\n        /* \"contracts/manager/FoodManager.sol\":5438:5452  foodDetailList */\n      dup4\n        /* \"contracts/manager/FoodManager.sol\":5438:5459  foodDetailList.length */\n      dup1\n      sload\n      swap1\n      pop\n        /* \"contracts/manager/FoodManager.sol\":5438:5463  foodDetailList.length > 1 */\n      gt\n        /* \"contracts/manager/FoodManager.sol\":5438:5573  foodDetailList.length > 1... */\n      tag_175\n      jumpi\n        /* \"contracts/manager/FoodManager.sol\":5550:5573  FoodDetail(0, \"\", 0, 0) */\n      mload(0x40)\n      dup1\n      0x80\n      add\n      0x40\n      mstore\n      dup1\n        /* \"contracts/manager/FoodManager.sol\":5561:5562  0 */\n      0x00\n        /* \"contracts/manager/FoodManager.sol\":5550:5573  FoodDetail(0, \"\", 0, 0) */\n      dup2\n      mstore\n      0x20\n      add\n      mload(0x40)\n      dup1\n      0x20\n      add\n      0x40\n      mstore\n      dup1\n      0x00\n      dup2\n      mstore\n      pop\n      dup2\n      mstore\n      0x20\n      add\n        /* \"contracts/manager/FoodManager.sol\":5568:5569  0 */\n      0x00\n        /* \"contracts/manager/FoodManager.sol\":5550:5573  FoodDetail(0, \"\", 0, 0) */\n      dup2\n      mstore\n      0x20\n      add\n        /* \"contracts/manager/FoodManager.sol\":5571:5572  0 */\n      0x00\n        /* \"contracts/manager/FoodManager.sol\":5550:5573  FoodDetail(0, \"\", 0, 0) */\n      dup2\n      mstore\n      pop\n        /* \"contracts/manager/FoodManager.sol\":5438:5573  foodDetailList.length > 1... */\n      jump(tag_176)\n    tag_175:\n        /* \"contracts/manager/FoodManager.sol\":5486:5500  foodDetailList */\n      dup3\n        /* \"contracts/manager/FoodManager.sol\":5525:5526  1 */\n      0x01\n        /* \"contracts/manager/FoodManager.sol\":5501:5515  foodDetailList */\n      dup5\n        /* \"contracts/manager/FoodManager.sol\":5501:5522  foodDetailList.length */\n      dup1\n      sload\n      swap1\n      pop\n        /* \"contracts/manager/FoodManager.sol\":5501:5526  foodDetailList.length - 1 */\n      tag_177\n      swap2\n      swap1\n      tag_178\n      jump\t// in\n    tag_177:\n        /* \"contracts/manager/FoodManager.sol\":5486:5527  foodDetailList[foodDetailList.length - 1] */\n      dup2\n      sload\n      dup2\n      lt\n      tag_179\n      jumpi\n      tag_180\n      tag_108\n      jump\t// in\n    tag_180:\n    tag_179:\n      swap1\n      0x00\n      mstore\n      keccak256(0x00, 0x20)\n      swap1\n      0x04\n      mul\n      add\n        /* \"contracts/manager/FoodManager.sol\":5438:5573  foodDetailList.length > 1... */\n      mload(0x40)\n      dup1\n      0x80\n      add\n      0x40\n      mstore\n      swap1\n      dup2\n      0x00\n      dup3\n      add\n      sload\n      dup2\n      mstore\n      0x20\n      add\n      0x01\n      dup3\n      add\n      dup1\n      sload\n      tag_182\n      swap1\n      tag_127\n      jump\t// in\n    tag_182:\n      dup1\n      0x1f\n      add\n      0x20\n      dup1\n      swap2\n      div\n      mul\n      0x20\n      add\n      mload(0x40)\n      swap1\n      dup2\n      add\n      0x40\n      mstore\n      dup1\n      swap3\n      swap2\n      swap1\n      dup2\n      dup2\n      mstore\n      0x20\n      add\n      dup3\n      dup1\n      sload\n      tag_183\n      swap1\n      tag_127\n      jump\t// in\n    tag_183:\n      dup1\n      iszero\n      tag_184\n      jumpi\n      dup1\n      0x1f\n      lt\n      tag_185\n      jumpi\n      0x0100\n      dup1\n      dup4\n      sload\n      div\n      mul\n      dup4\n      mstore\n      swap2\n      0x20\n      add\n      swap2\n      jump(tag_184)\n    tag_185:\n      dup3\n      add\n      swap2\n      swap1\n      0x00\n      mstore\n      keccak256(0x00, 0x20)\n      swap1\n    tag_186:\n      dup2\n      sload\n      dup2\n      mstore\n      swap1\n      0x01\n      add\n      swap1\n      0x20\n      add\n      dup1\n      dup4\n      gt\n      tag_186\n      jumpi\n      dup3\n      swap1\n      sub\n      0x1f\n      and\n      dup3\n      add\n      swap2\n    tag_184:\n      pop\n      pop\n      pop\n      pop\n      pop\n      dup2\n      mstore\n      0x20\n      add\n      0x02\n      dup3\n      add\n      sload\n      dup2\n      mstore\n      0x20\n      add\n      0x03\n      dup3\n      add\n      sload\n      dup2\n      mstore\n      pop\n      pop\n    tag_176:\n        /* \"contracts/manager/FoodManager.sol\":5418:5432  foodDetailList */\n      dup4\n        /* \"contracts/manager/FoodManager.sol\":5433:5434  i */\n      dup3\n        /* \"contracts/manager/FoodManager.sol\":5418:5435  foodDetailList[i] */\n      dup2\n      sload\n      dup2\n      lt\n      tag_187\n      jumpi\n      tag_188\n      tag_108\n      jump\t// in\n    tag_188:\n    tag_187:\n      swap1\n      0x00\n      mstore\n      keccak256(0x00, 0x20)\n      swap1\n      0x04\n      mul\n      add\n        /* \"contracts/manager/FoodManager.sol\":5418:5573  foodDetailList[i] = foodDetailList.length > 1... */\n      0x00\n      dup3\n      add\n      mload\n      dup2\n      0x00\n      add\n      sstore\n      0x20\n      dup3\n      add\n      mload\n      dup2\n      0x01\n      add\n      swap1\n      dup2\n      tag_190\n      swap2\n      swap1\n      tag_191\n      jump\t// in\n    tag_190:\n      pop\n      0x40\n      dup3\n      add\n      mload\n      dup2\n      0x02\n      add\n      sstore\n      0x60\n      dup3\n      add\n      mload\n      dup2\n      0x03\n      add\n      sstore\n      swap1\n      pop\n      pop\n        /* \"contracts/manager/FoodManager.sol\":5591:5605  foodDetailList */\n      dup3\n        /* \"contracts/manager/FoodManager.sol\":5591:5611  foodDetailList.pop() */\n      dup1\n      sload\n      dup1\n      tag_192\n      jumpi\n      tag_193\n      tag_194\n      jump\t// in\n    tag_193:\n    tag_192:\n      0x01\n      swap1\n      sub\n      dup2\n      dup2\n      swap1\n      0x00\n      mstore\n      keccak256(0x00, 0x20)\n      swap1\n      0x04\n      mul\n      add\n      0x00\n      0x00\n      dup3\n      add\n      0x00\n      swap1\n      sstore\n      0x01\n      dup3\n      add\n      0x00\n      tag_196\n      swap2\n      swap1\n      tag_197\n      jump\t// in\n    tag_196:\n      0x02\n      dup3\n      add\n      0x00\n      swap1\n      sstore\n      0x03\n      dup3\n      add\n      0x00\n      swap1\n      sstore\n      pop\n      pop\n      swap1\n      sstore\n        /* \"contracts/manager/FoodManager.sol\":5637:5641  true */\n      0x01\n        /* \"contracts/manager/FoodManager.sol\":5629:5641  found = true */\n      swap2\n      pop\n        /* \"contracts/manager/FoodManager.sol\":5664:5703  FoodDetailDeleted(foodId, foodDetailId) */\n      0x55caa6a55acb7e3464dc13c54d94739e0f01b9141276caebb64f3ef500cd8900\n        /* \"contracts/manager/FoodManager.sol\":5682:5688  foodId */\n      dup6\n        /* \"contracts/manager/FoodManager.sol\":5690:5702  foodDetailId */\n      dup6\n        /* \"contracts/manager/FoodManager.sol\":5664:5703  FoodDetailDeleted(foodId, foodDetailId) */\n      mload(0x40)\n      tag_198\n      swap3\n      swap2\n      swap1\n      tag_199\n      jump\t// in\n    tag_198:\n      mload(0x40)\n      dup1\n      swap2\n      sub\n      swap1\n      log1\n        /* \"contracts/manager/FoodManager.sol\":5721:5726  break */\n      jump(tag_169)\n        /* \"contracts/manager/FoodManager.sol\":5348:5741  if (foodDetailList[i].foodDetailId == foodDetailId) {... */\n    tag_174:\n        /* \"contracts/manager/FoodManager.sol\":5329:5332  i++ */\n      dup1\n      dup1\n      0x01\n      add\n      swap2\n      pop\n      pop\n        /* \"contracts/manager/FoodManager.sol\":5282:5751  for (uint256 i = 0; i < foodDetailList.length; i++) {... */\n      jump(tag_168)\n    tag_169:\n      pop\n        /* \"contracts/manager/FoodManager.sol\":5768:5773  found */\n      dup1\n        /* \"contracts/manager/FoodManager.sol\":5760:5803  require(found, \"FoodDetail does not exist\") */\n      tag_200\n      jumpi\n      mload(0x40)\n      0x08c379a000000000000000000000000000000000000000000000000000000000\n      dup2\n      mstore\n      0x04\n      add\n      tag_201\n      swap1\n      tag_202\n      jump\t// in\n    tag_201:\n      mload(0x40)\n      dup1\n      swap2\n      sub\n      swap1\n      revert\n    tag_200:\n        /* \"contracts/manager/FoodManager.sol\":5110:5810  {... */\n      pop\n      pop\n        /* \"contracts/manager/FoodManager.sol\":5008:5810  function deleteFoodDetail(uint256 foodId, uint256 foodDetailId)... */\n      pop\n      pop\n      jump\t// out\n        /* \"contracts/manager/FoodManager.sol\":3533:4179  function addFoodDetails(uint256 foodId, UpdateFoodDetail[] memory details)... */\n    tag_63:\n        /* \"contracts/manager/FoodManager.sol\":3730:3731  0 */\n      0x00\n        /* \"contracts/manager/FoodManager.sol\":3706:3711  foods */\n      0x05\n        /* \"contracts/manager/FoodManager.sol\":3706:3719  foods[foodId] */\n      0x00\n        /* \"contracts/manager/FoodManager.sol\":3712:3718  foodId */\n      dup5\n        /* \"contracts/manager/FoodManager.sol\":3706:3719  foods[foodId] */\n      dup2\n      mstore\n      0x20\n      add\n      swap1\n      dup2\n      mstore\n      0x20\n      add\n      0x00\n      keccak256\n        /* \"contracts/manager/FoodManager.sol\":3706:3726  foods[foodId].foodId */\n      0x00\n      add\n      sload\n        /* \"contracts/manager/FoodManager.sol\":3706:3731  foods[foodId].foodId != 0 */\n      sub\n        /* \"contracts/manager/FoodManager.sol\":3698:3755  require(foods[foodId].foodId != 0, \"Food does not exist\") */\n      tag_204\n      jumpi\n      mload(0x40)\n      0x08c379a000000000000000000000000000000000000000000000000000000000\n      dup2\n      mstore\n      0x04\n      add\n      tag_205\n      swap1\n      tag_125\n      jump\t// in\n    tag_205:\n      mload(0x40)\n      dup1\n      swap2\n      sub\n      swap1\n      revert\n    tag_204:\n        /* \"contracts/manager/FoodManager.sol\":3770:3779  uint256 i */\n      0x00\n        /* \"contracts/manager/FoodManager.sol\":3782:3783  0 */\n      0x00\n        /* \"contracts/manager/FoodManager.sol\":3770:3783  uint256 i = 0 */\n      swap1\n      pop\n        /* \"contracts/manager/FoodManager.sol\":3765:4134  for (uint256 i = 0; i < details.length; i++) {... */\n    tag_206:\n        /* \"contracts/manager/FoodManager.sol\":3789:3796  details */\n      dup2\n        /* \"contracts/manager/FoodManager.sol\":3789:3803  details.length */\n      mload\n        /* \"contracts/manager/FoodManager.sol\":3785:3786  i */\n      dup2\n        /* \"contracts/manager/FoodManager.sol\":3785:3803  i < details.length */\n      lt\n        /* \"contracts/manager/FoodManager.sol\":3765:4134  for (uint256 i = 0; i < details.length; i++) {... */\n      iszero\n      tag_207\n      jumpi\n        /* \"contracts/manager/FoodManager.sol\":3824:3840  nextFoodDetailId */\n      0x04\n      0x00\n        /* \"contracts/manager/FoodManager.sol\":3824:3842  nextFoodDetailId++ */\n      dup2\n      sload\n      dup1\n      swap3\n      swap2\n      swap1\n      tag_209\n      swap1\n      tag_210\n      jump\t// in\n    tag_209:\n      swap2\n      swap1\n      pop\n      sstore\n      pop\n        /* \"contracts/manager/FoodManager.sol\":3857:3877  FoodDetail memory fd */\n      0x00\n        /* \"contracts/manager/FoodManager.sol\":3880:4081  FoodDetail({... */\n      mload(0x40)\n      dup1\n      0x80\n      add\n      0x40\n      mstore\n      dup1\n        /* \"contracts/manager/FoodManager.sol\":3923:3939  nextFoodDetailId */\n      sload(0x04)\n        /* \"contracts/manager/FoodManager.sol\":3880:4081  FoodDetail({... */\n      dup2\n      mstore\n      0x20\n      add\n        /* \"contracts/manager/FoodManager.sol\":3963:3970  details */\n      dup5\n        /* \"contracts/manager/FoodManager.sol\":3971:3972  i */\n      dup5\n        /* \"contracts/manager/FoodManager.sol\":3963:3973  details[i] */\n      dup2\n      mload\n      dup2\n      lt\n      tag_211\n      jumpi\n      tag_212\n      tag_108\n      jump\t// in\n    tag_212:\n    tag_211:\n      0x20\n      mul\n      0x20\n      add\n      add\n      mload\n        /* \"contracts/manager/FoodManager.sol\":3963:3978  details[i].size */\n      0x00\n      add\n      mload\n        /* \"contracts/manager/FoodManager.sol\":3880:4081  FoodDetail({... */\n      dup2\n      mstore\n      0x20\n      add\n        /* \"contracts/manager/FoodManager.sol\":4006:4013  details */\n      dup5\n        /* \"contracts/manager/FoodManager.sol\":4014:4015  i */\n      dup5\n        /* \"contracts/manager/FoodManager.sol\":4006:4016  details[i] */\n      dup2\n      mload\n      dup2\n      lt\n      tag_213\n      jumpi\n      tag_214\n      tag_108\n      jump\t// in\n    tag_214:\n    tag_213:\n      0x20\n      mul\n      0x20\n      add\n      add\n      mload\n        /* \"contracts/manager/FoodManager.sol\":4006:4025  details[i].quantity */\n      0x20\n      add\n      mload\n        /* \"contracts/manager/FoodManager.sol\":3880:4081  FoodDetail({... */\n      dup2\n      mstore\n      0x20\n      add\n        /* \"contracts/manager/FoodManager.sol\":4050:4057  details */\n      dup5\n        /* \"contracts/manager/FoodManager.sol\":4058:4059  i */\n      dup5\n        /* \"contracts/manager/FoodManager.sol\":4050:4060  details[i] */\n      dup2\n      mload\n      dup2\n      lt\n      tag_215\n      jumpi\n      tag_216\n      tag_108\n      jump\t// in\n    tag_216:\n    tag_215:\n      0x20\n      mul\n      0x20\n      add\n      add\n      mload\n        /* \"contracts/manager/FoodManager.sol\":4050:4066  details[i].price */\n      0x40\n      add\n      mload\n        /* \"contracts/manager/FoodManager.sol\":3880:4081  FoodDetail({... */\n      dup2\n      mstore\n      pop\n        /* \"contracts/manager/FoodManager.sol\":3857:4081  FoodDetail memory fd = FoodDetail({... */\n      swap1\n      pop\n        /* \"contracts/manager/FoodManager.sol\":4095:4106  foodDetails */\n      0x06\n        /* \"contracts/manager/FoodManager.sol\":4095:4114  foodDetails[foodId] */\n      0x00\n        /* \"contracts/manager/FoodManager.sol\":4107:4113  foodId */\n      dup6\n        /* \"contracts/manager/FoodManager.sol\":4095:4114  foodDetails[foodId] */\n      dup2\n      mstore\n      0x20\n      add\n      swap1\n      dup2\n      mstore\n      0x20\n      add\n      0x00\n      keccak256\n        /* \"contracts/manager/FoodManager.sol\":4120:4122  fd */\n      dup2\n        /* \"contracts/manager/FoodManager.sol\":4095:4123  foodDetails[foodId].push(fd) */\n      swap1\n      dup1\n      0x01\n      dup2\n      sload\n      add\n      dup1\n      dup3\n      sstore\n      dup1\n      swap2\n      pop\n      pop\n      0x01\n      swap1\n      sub\n      swap1\n      0x00\n      mstore\n      keccak256(0x00, 0x20)\n      swap1\n      0x04\n      mul\n      add\n      0x00\n      swap1\n      swap2\n      swap1\n      swap2\n      swap1\n      swap2\n      pop\n      0x00\n      dup3\n      add\n      mload\n      dup2\n      0x00\n      add\n      sstore\n      0x20\n      dup3\n      add\n      mload\n      dup2\n      0x01\n      add\n      swap1\n      dup2\n      tag_218\n      swap2\n      swap1\n      tag_191\n      jump\t// in\n    tag_218:\n      pop\n      0x40\n      dup3\n      add\n      mload\n      dup2\n      0x02\n      add\n      sstore\n      0x60\n      dup3\n      add\n      mload\n      dup2\n      0x03\n      add\n      sstore\n      pop\n      pop\n        /* \"contracts/manager/FoodManager.sol\":3810:4134  {... */\n      pop\n        /* \"contracts/manager/FoodManager.sol\":3805:3808  i++ */\n      dup1\n      dup1\n      0x01\n      add\n      swap2\n      pop\n      pop\n        /* \"contracts/manager/FoodManager.sol\":3765:4134  for (uint256 i = 0; i < details.length; i++) {... */\n      jump(tag_206)\n    tag_207:\n      pop\n        /* \"contracts/manager/FoodManager.sol\":4148:4172  FoodDetailsAdded(foodId) */\n      0x19a8e56286393226625dcdbc7cbb5a7611c71773d54c7e0680658cb9ceef6c22\n        /* \"contracts/manager/FoodManager.sol\":4165:4171  foodId */\n      dup3\n        /* \"contracts/manager/FoodManager.sol\":4148:4172  FoodDetailsAdded(foodId) */\n      mload(0x40)\n      tag_219\n      swap2\n      swap1\n      tag_36\n      jump\t// in\n    tag_219:\n      mload(0x40)\n      dup1\n      swap2\n      sub\n      swap1\n      log1\n        /* \"contracts/manager/FoodManager.sol\":3533:4179  function addFoodDetails(uint256 foodId, UpdateFoodDetail[] memory details)... */\n      pop\n      pop\n      jump\t// out\n        /* \"contracts/manager/FoodManager.sol\":2269:2942  function updateFood(... */\n    tag_67:\n        /* \"contracts/manager/FoodManager.sol\":2510:2511  0 */\n      0x00\n        /* \"contracts/manager/FoodManager.sol\":2485:2490  foods */\n      0x05\n        /* \"contracts/manager/FoodManager.sol\":2485:2499  foods[_foodId] */\n      0x00\n        /* \"contracts/manager/FoodManager.sol\":2491:2498  _foodId */\n      dup8\n        /* \"contracts/manager/FoodManager.sol\":2485:2499  foods[_foodId] */\n      dup2\n      mstore\n      0x20\n      add\n      swap1\n      dup2\n      mstore\n      0x20\n      add\n      0x00\n      keccak256\n        /* \"contracts/manager/FoodManager.sol\":2485:2506  foods[_foodId].foodId */\n      0x00\n      add\n      sload\n        /* \"contracts/manager/FoodManager.sol\":2485:2511  foods[_foodId].foodId != 0 */\n      sub\n        /* \"contracts/manager/FoodManager.sol\":2477:2535  require(foods[_foodId].foodId != 0, \"Food does not exist\") */\n      tag_221\n      jumpi\n      mload(0x40)\n      0x08c379a000000000000000000000000000000000000000000000000000000000\n      dup2\n      mstore\n      0x04\n      add\n      tag_222\n      swap1\n      tag_125\n      jump\t// in\n    tag_222:\n      mload(0x40)\n      dup1\n      swap2\n      sub\n      swap1\n      revert\n    tag_221:\n        /* \"contracts/manager/FoodManager.sol\":2621:2622  0 */\n      0x00\n        /* \"contracts/manager/FoodManager.sol\":2566:2581  categoryManager */\n      0x02\n      0x00\n      swap1\n      sload\n      swap1\n      0x0100\n      exp\n      swap1\n      div\n      0xffffffffffffffffffffffffffffffffffffffff\n      and\n        /* \"contracts/manager/FoodManager.sol\":2566:2593  categoryManager.getCategory */\n      0xffffffffffffffffffffffffffffffffffffffff\n      and\n      0xf3052d26\n        /* \"contracts/manager/FoodManager.sol\":2594:2605  _categoryId */\n      dup5\n        /* \"contracts/manager/FoodManager.sol\":2566:2606  categoryManager.getCategory(_categoryId) */\n      mload(0x40)\n      dup3\n      0xffffffff\n      and\n      0xe0\n      shl\n      dup2\n      mstore\n      0x04\n      add\n      tag_223\n      swap2\n      swap1\n      tag_36\n      jump\t// in\n    tag_223:\n      0x00\n      mload(0x40)\n      dup1\n      dup4\n      sub\n      dup2\n      dup7\n      gas\n      staticcall\n      iszero\n      dup1\n      iszero\n      tag_225\n      jumpi\n      returndatacopy(0x00, 0x00, returndatasize)\n      revert(0x00, returndatasize)\n    tag_225:\n      pop\n      pop\n      pop\n      pop\n      mload(0x40)\n      returndatasize\n      0x00\n      dup3\n      returndatacopy\n      returndatasize\n      not(0x1f)\n      0x1f\n      dup3\n      add\n      and\n      dup3\n      add\n      dup1\n      0x40\n      mstore\n      pop\n      dup2\n      add\n      swap1\n      tag_226\n      swap2\n      swap1\n      tag_227\n      jump\t// in\n    tag_226:\n        /* \"contracts/manager/FoodManager.sol\":2566:2617  categoryManager.getCategory(_categoryId).categoryId */\n      0x00\n      add\n      mload\n        /* \"contracts/manager/FoodManager.sol\":2566:2622  categoryManager.getCategory(_categoryId).categoryId != 0 */\n      sub\n        /* \"contracts/manager/FoodManager.sol\":2545:2671  require(... */\n      tag_228\n      jumpi\n      mload(0x40)\n      0x08c379a000000000000000000000000000000000000000000000000000000000\n      dup2\n      mstore\n      0x04\n      add\n      tag_229\n      swap1\n      tag_230\n      jump\t// in\n    tag_229:\n      mload(0x40)\n      dup1\n      swap2\n      sub\n      swap1\n      revert\n    tag_228:\n        /* \"contracts/manager/FoodManager.sol\":2704:2709  _name */\n      dup4\n        /* \"contracts/manager/FoodManager.sol\":2682:2687  foods */\n      0x05\n        /* \"contracts/manager/FoodManager.sol\":2682:2696  foods[_foodId] */\n      0x00\n        /* \"contracts/manager/FoodManager.sol\":2688:2695  _foodId */\n      dup8\n        /* \"contracts/manager/FoodManager.sol\":2682:2696  foods[_foodId] */\n      dup2\n      mstore\n      0x20\n      add\n      swap1\n      dup2\n      mstore\n      0x20\n      add\n      0x00\n      keccak256\n        /* \"contracts/manager/FoodManager.sol\":2682:2701  foods[_foodId].name */\n      0x01\n      add\n        /* \"contracts/manager/FoodManager.sol\":2682:2709  foods[_foodId].name = _name */\n      swap1\n      dup2\n      tag_231\n      swap2\n      swap1\n      tag_191\n      jump\t// in\n    tag_231:\n      pop\n        /* \"contracts/manager/FoodManager.sol\":2748:2760  _description */\n      dup3\n        /* \"contracts/manager/FoodManager.sol\":2719:2724  foods */\n      0x05\n        /* \"contracts/manager/FoodManager.sol\":2719:2733  foods[_foodId] */\n      0x00\n        /* \"contracts/manager/FoodManager.sol\":2725:2732  _foodId */\n      dup8\n        /* \"contracts/manager/FoodManager.sol\":2719:2733  foods[_foodId] */\n      dup2\n      mstore\n      0x20\n      add\n      swap1\n      dup2\n      mstore\n      0x20\n      add\n      0x00\n      keccak256\n        /* \"contracts/manager/FoodManager.sol\":2719:2745  foods[_foodId].description */\n      0x02\n      add\n        /* \"contracts/manager/FoodManager.sol\":2719:2760  foods[_foodId].description = _description */\n      swap1\n      dup2\n      tag_232\n      swap2\n      swap1\n      tag_191\n      jump\t// in\n    tag_232:\n      pop\n        /* \"contracts/manager/FoodManager.sol\":2798:2809  _categoryId */\n      dup2\n        /* \"contracts/manager/FoodManager.sol\":2770:2775  foods */\n      0x05\n        /* \"contracts/manager/FoodManager.sol\":2770:2784  foods[_foodId] */\n      0x00\n        /* \"contracts/manager/FoodManager.sol\":2776:2783  _foodId */\n      dup8\n        /* \"contracts/manager/FoodManager.sol\":2770:2784  foods[_foodId] */\n      dup2\n      mstore\n      0x20\n      add\n      swap1\n      dup2\n      mstore\n      0x20\n      add\n      0x00\n      keccak256\n        /* \"contracts/manager/FoodManager.sol\":2770:2795  foods[_foodId].categoryId */\n      0x03\n      add\n        /* \"contracts/manager/FoodManager.sol\":2770:2809  foods[_foodId].categoryId = _categoryId */\n      dup2\n      swap1\n      sstore\n      pop\n        /* \"contracts/manager/FoodManager.sol\":2845:2854  _imageUrl */\n      dup1\n        /* \"contracts/manager/FoodManager.sol\":2819:2824  foods */\n      0x05\n        /* \"contracts/manager/FoodManager.sol\":2819:2833  foods[_foodId] */\n      0x00\n        /* \"contracts/manager/FoodManager.sol\":2825:2832  _foodId */\n      dup8\n        /* \"contracts/manager/FoodManager.sol\":2819:2833  foods[_foodId] */\n      dup2\n      mstore\n      0x20\n      add\n      swap1\n      dup2\n      mstore\n      0x20\n      add\n      0x00\n      keccak256\n        /* \"contracts/manager/FoodManager.sol\":2819:2842  foods[_foodId].imageUrl */\n      0x04\n      add\n        /* \"contracts/manager/FoodManager.sol\":2819:2854  foods[_foodId].imageUrl = _imageUrl */\n      swap1\n      dup1\n      mload\n      swap1\n      0x20\n      add\n      swap1\n      tag_233\n      swap3\n      swap2\n      swap1\n      tag_234\n      jump\t// in\n    tag_233:\n      pop\n        /* \"contracts/manager/FoodManager.sol\":2870:2935  FoodUpdated(_foodId, _name, _description, _categoryId, _imageUrl) */\n      0x4f49710e0e59ea2e7096d7bad0267390d8bb5c007687f72b0de2db3afdadd5e5\n        /* \"contracts/manager/FoodManager.sol\":2882:2889  _foodId */\n      dup6\n        /* \"contracts/manager/FoodManager.sol\":2891:2896  _name */\n      dup6\n        /* \"contracts/manager/FoodManager.sol\":2898:2910  _description */\n      dup6\n        /* \"contracts/manager/FoodManager.sol\":2912:2923  _categoryId */\n      dup6\n        /* \"contracts/manager/FoodManager.sol\":2925:2934  _imageUrl */\n      dup6\n        /* \"contracts/manager/FoodManager.sol\":2870:2935  FoodUpdated(_foodId, _name, _description, _categoryId, _imageUrl) */\n      mload(0x40)\n      tag_235\n      swap6\n      swap5\n      swap4\n      swap3\n      swap2\n      swap1\n      tag_236\n      jump\t// in\n    tag_235:\n      mload(0x40)\n      dup1\n      swap2\n      sub\n      swap1\n      log1\n        /* \"contracts/manager/FoodManager.sol\":2269:2942  function updateFood(... */\n      pop\n      pop\n      pop\n      pop\n      pop\n      jump\t// out\n        /* \"contracts/access/RoleAccess.sol\":625:781  function addAdmin(address _admin) external virtual  {... */\n    tag_70:\n        /* \"contracts/access/RoleAccess.sol\":763:773  Role.ADMIN */\n      0x01\n        /* \"contracts/access/RoleAccess.sol\":745:752  isAdmin */\n      dup1\n        /* \"contracts/access/RoleAccess.sol\":745:760  isAdmin[_admin] */\n      0x00\n        /* \"contracts/access/RoleAccess.sol\":753:759  _admin */\n      dup4\n        /* \"contracts/access/RoleAccess.sol\":745:760  isAdmin[_admin] */\n      0xffffffffffffffffffffffffffffffffffffffff\n      and\n      0xffffffffffffffffffffffffffffffffffffffff\n      and\n      dup2\n      mstore\n      0x20\n      add\n      swap1\n      dup2\n      mstore\n      0x20\n      add\n      0x00\n      keccak256\n      0x00\n        /* \"contracts/access/RoleAccess.sol\":745:773  isAdmin[_admin] = Role.ADMIN */\n      0x0100\n      exp\n      dup2\n      sload\n      dup2\n      0xff\n      mul\n      not\n      and\n      swap1\n      dup4\n      0x02\n      dup2\n      gt\n      iszero\n      tag_238\n      jumpi\n      tag_239\n      tag_119\n      jump\t// in\n    tag_239:\n    tag_238:\n      mul\n      or\n      swap1\n      sstore\n      pop\n        /* \"contracts/access/RoleAccess.sol\":625:781  function addAdmin(address _admin) external virtual  {... */\n      pop\n      jump\t// out\n        /* \"contracts/access/RoleAccess.sol\":537:619  function getOwner () public  view returns (address){... */\n    tag_72:\n        /* \"contracts/access/RoleAccess.sol\":580:587  address */\n      0x00\n        /* \"contracts/access/RoleAccess.sol\":606:611  owner */\n      0x00\n      0x00\n      swap1\n      sload\n      swap1\n      0x0100\n      exp\n      swap1\n      div\n      0xffffffffffffffffffffffffffffffffffffffff\n      and\n        /* \"contracts/access/RoleAccess.sol\":599:611  return owner */\n      swap1\n      pop\n        /* \"contracts/access/RoleAccess.sol\":537:619  function getOwner () public  view returns (address){... */\n      swap1\n      jump\t// out\n        /* \"contracts/manager/FoodManager.sol\":6849:7306  function reduceQuantiy (uint _foodId,uint foodDetailId,uint _quantity) external override {... */\n    tag_77:\n        /* \"contracts/manager/FoodManager.sol\":6952:6958  uint i */\n      0x00\n        /* \"contracts/manager/FoodManager.sol\":6961:6962  0 */\n      0x00\n        /* \"contracts/manager/FoodManager.sol\":6952:6962  uint i = 0 */\n      swap1\n      pop\n        /* \"contracts/manager/FoodManager.sol\":6948:7299  for(uint i = 0;  i< foodDetails[_foodId].length ; i++ ){... */\n    tag_242:\n        /* \"contracts/manager/FoodManager.sol\":6968:6979  foodDetails */\n      0x06\n        /* \"contracts/manager/FoodManager.sol\":6968:6988  foodDetails[_foodId] */\n      0x00\n        /* \"contracts/manager/FoodManager.sol\":6980:6987  _foodId */\n      dup6\n        /* \"contracts/manager/FoodManager.sol\":6968:6988  foodDetails[_foodId] */\n      dup2\n      mstore\n      0x20\n      add\n      swap1\n      dup2\n      mstore\n      0x20\n      add\n      0x00\n      keccak256\n        /* \"contracts/manager/FoodManager.sol\":6968:6995  foodDetails[_foodId].length */\n      dup1\n      sload\n      swap1\n      pop\n        /* \"contracts/manager/FoodManager.sol\":6965:6966  i */\n      dup2\n        /* \"contracts/manager/FoodManager.sol\":6965:6995  i< foodDetails[_foodId].length */\n      lt\n        /* \"contracts/manager/FoodManager.sol\":6948:7299  for(uint i = 0;  i< foodDetails[_foodId].length ; i++ ){... */\n      iszero\n      tag_243\n      jumpi\n        /* \"contracts/manager/FoodManager.sol\":7060:7072  foodDetailId */\n      dup3\n        /* \"contracts/manager/FoodManager.sol\":7020:7031  foodDetails */\n      0x06\n        /* \"contracts/manager/FoodManager.sol\":7020:7040  foodDetails[_foodId] */\n      0x00\n        /* \"contracts/manager/FoodManager.sol\":7032:7039  _foodId */\n      dup7\n        /* \"contracts/manager/FoodManager.sol\":7020:7040  foodDetails[_foodId] */\n      dup2\n      mstore\n      0x20\n      add\n      swap1\n      dup2\n      mstore\n      0x20\n      add\n      0x00\n      keccak256\n        /* \"contracts/manager/FoodManager.sol\":7041:7042  i */\n      dup3\n        /* \"contracts/manager/FoodManager.sol\":7020:7043  foodDetails[_foodId][i] */\n      dup2\n      sload\n      dup2\n      lt\n      tag_245\n      jumpi\n      tag_246\n      tag_108\n      jump\t// in\n    tag_246:\n    tag_245:\n      swap1\n      0x00\n      mstore\n      keccak256(0x00, 0x20)\n      swap1\n      0x04\n      mul\n      add\n        /* \"contracts/manager/FoodManager.sol\":7020:7056  foodDetails[_foodId][i].foodDetailId */\n      0x00\n      add\n      sload\n        /* \"contracts/manager/FoodManager.sol\":7020:7072  foodDetails[_foodId][i].foodDetailId == foodDetailId */\n      sub\n        /* \"contracts/manager/FoodManager.sol\":7017:7289  if(foodDetails[_foodId][i].foodDetailId == foodDetailId){... */\n      tag_248\n      jumpi\n        /* \"contracts/manager/FoodManager.sol\":7111:7122  foodDetails */\n      0x06\n        /* \"contracts/manager/FoodManager.sol\":7111:7131  foodDetails[_foodId] */\n      0x00\n        /* \"contracts/manager/FoodManager.sol\":7123:7130  _foodId */\n      dup6\n        /* \"contracts/manager/FoodManager.sol\":7111:7131  foodDetails[_foodId] */\n      dup2\n      mstore\n      0x20\n      add\n      swap1\n      dup2\n      mstore\n      0x20\n      add\n      0x00\n      keccak256\n        /* \"contracts/manager/FoodManager.sol\":7132:7133  i */\n      dup2\n        /* \"contracts/manager/FoodManager.sol\":7111:7134  foodDetails[_foodId][i] */\n      dup2\n      sload\n      dup2\n      lt\n      tag_249\n      jumpi\n      tag_250\n      tag_108\n      jump\t// in\n    tag_250:\n    tag_249:\n      swap1\n      0x00\n      mstore\n      keccak256(0x00, 0x20)\n      swap1\n      0x04\n      mul\n      add\n        /* \"contracts/manager/FoodManager.sol\":7111:7143  foodDetails[_foodId][i].quantity */\n      0x02\n      add\n      sload\n        /* \"contracts/manager/FoodManager.sol\":7099:7108  _quantity */\n      dup3\n        /* \"contracts/manager/FoodManager.sol\":7099:7143  _quantity < foodDetails[_foodId][i].quantity */\n      lt\n        /* \"contracts/manager/FoodManager.sol\":7091:7188  require(_quantity < foodDetails[_foodId][i].quantity, \"Quantity's food cannot be smaller than 0\") */\n      tag_252\n      jumpi\n      mload(0x40)\n      0x08c379a000000000000000000000000000000000000000000000000000000000\n      dup2\n      mstore\n      0x04\n      add\n      tag_253\n      swap1\n      tag_254\n      jump\t// in\n    tag_253:\n      mload(0x40)\n      dup1\n      swap2\n      sub\n      swap1\n      revert\n    tag_252:\n        /* \"contracts/manager/FoodManager.sol\":7242:7251  _quantity */\n      dup2\n        /* \"contracts/manager/FoodManager.sol\":7206:7217  foodDetails */\n      0x06\n        /* \"contracts/manager/FoodManager.sol\":7206:7226  foodDetails[_foodId] */\n      0x00\n        /* \"contracts/manager/FoodManager.sol\":7218:7225  _foodId */\n      dup7\n        /* \"contracts/manager/FoodManager.sol\":7206:7226  foodDetails[_foodId] */\n      dup2\n      mstore\n      0x20\n      add\n      swap1\n      dup2\n      mstore\n      0x20\n      add\n      0x00\n      keccak256\n        /* \"contracts/manager/FoodManager.sol\":7227:7228  i */\n      dup3\n        /* \"contracts/manager/FoodManager.sol\":7206:7229  foodDetails[_foodId][i] */\n      dup2\n      sload\n      dup2\n      lt\n      tag_255\n      jumpi\n      tag_256\n      tag_108\n      jump\t// in\n    tag_256:\n    tag_255:\n      swap1\n      0x00\n      mstore\n      keccak256(0x00, 0x20)\n      swap1\n      0x04\n      mul\n      add\n        /* \"contracts/manager/FoodManager.sol\":7206:7238  foodDetails[_foodId][i].quantity */\n      0x02\n      add\n      0x00\n        /* \"contracts/manager/FoodManager.sol\":7206:7251  foodDetails[_foodId][i].quantity -= _quantity */\n      dup3\n      dup3\n      sload\n      tag_258\n      swap2\n      swap1\n      tag_178\n      jump\t// in\n    tag_258:\n      swap3\n      pop\n      pop\n      dup2\n      swap1\n      sstore\n      pop\n        /* \"contracts/manager/FoodManager.sol\":7269:7274  break */\n      jump(tag_243)\n        /* \"contracts/manager/FoodManager.sol\":7017:7289  if(foodDetails[_foodId][i].foodDetailId == foodDetailId){... */\n    tag_248:\n        /* \"contracts/manager/FoodManager.sol\":6998:7001  i++ */\n      dup1\n      dup1\n      0x01\n      add\n      swap2\n      pop\n      pop\n        /* \"contracts/manager/FoodManager.sol\":6948:7299  for(uint i = 0;  i< foodDetails[_foodId].length ; i++ ){... */\n      jump(tag_242)\n    tag_243:\n      pop\n        /* \"contracts/manager/FoodManager.sol\":6849:7306  function reduceQuantiy (uint _foodId,uint foodDetailId,uint _quantity) external override {... */\n      pop\n      pop\n      pop\n      jump\t// out\n        /* \"contracts/manager/FoodManager.sol\":5828:6067  function getFoodDetails(uint256 foodId)... */\n    tag_80:\n        /* \"contracts/manager/FoodManager.sol\":5932:5951  FoodDetail[] memory */\n      0x60\n        /* \"contracts/manager/FoodManager.sol\":5999:6000  0 */\n      0x00\n        /* \"contracts/manager/FoodManager.sol\":5975:5980  foods */\n      0x05\n        /* \"contracts/manager/FoodManager.sol\":5975:5988  foods[foodId] */\n      0x00\n        /* \"contracts/manager/FoodManager.sol\":5981:5987  foodId */\n      dup5\n        /* \"contracts/manager/FoodManager.sol\":5975:5988  foods[foodId] */\n      dup2\n      mstore\n      0x20\n      add\n      swap1\n      dup2\n      mstore\n      0x20\n      add\n      0x00\n      keccak256\n        /* \"contracts/manager/FoodManager.sol\":5975:5995  foods[foodId].foodId */\n      0x00\n      add\n      sload\n        /* \"contracts/manager/FoodManager.sol\":5975:6000  foods[foodId].foodId != 0 */\n      sub\n        /* \"contracts/manager/FoodManager.sol\":5967:6024  require(foods[foodId].foodId != 0, \"Food does not exist\") */\n      tag_260\n      jumpi\n      mload(0x40)\n      0x08c379a000000000000000000000000000000000000000000000000000000000\n      dup2\n      mstore\n      0x04\n      add\n      tag_261\n      swap1\n      tag_125\n      jump\t// in\n    tag_261:\n      mload(0x40)\n      dup1\n      swap2\n      sub\n      swap1\n      revert\n    tag_260:\n        /* \"contracts/manager/FoodManager.sol\":6041:6052  foodDetails */\n      0x06\n        /* \"contracts/manager/FoodManager.sol\":6041:6060  foodDetails[foodId] */\n      0x00\n        /* \"contracts/manager/FoodManager.sol\":6053:6059  foodId */\n      dup4\n        /* \"contracts/manager/FoodManager.sol\":6041:6060  foodDetails[foodId] */\n      dup2\n      mstore\n      0x20\n      add\n      swap1\n      dup2\n      mstore\n      0x20\n      add\n      0x00\n      keccak256\n        /* \"contracts/manager/FoodManager.sol\":6034:6060  return foodDetails[foodId] */\n      dup1\n      sload\n      dup1\n      0x20\n      mul\n      0x20\n      add\n      mload(0x40)\n      swap1\n      dup2\n      add\n      0x40\n      mstore\n      dup1\n      swap3\n      swap2\n      swap1\n      dup2\n      dup2\n      mstore\n      0x20\n      add\n      0x00\n      swap1\n    tag_262:\n      dup3\n      dup3\n      lt\n      iszero\n      tag_263\n      jumpi\n      dup4\n      dup3\n      swap1\n      0x00\n      mstore\n      keccak256(0x00, 0x20)\n      swap1\n      0x04\n      mul\n      add\n      mload(0x40)\n      dup1\n      0x80\n      add\n      0x40\n      mstore\n      swap1\n      dup2\n      0x00\n      dup3\n      add\n      sload\n      dup2\n      mstore\n      0x20\n      add\n      0x01\n      dup3\n      add\n      dup1\n      sload\n      tag_265\n      swap1\n      tag_127\n      jump\t// in\n    tag_265:\n      dup1\n      0x1f\n      add\n      0x20\n      dup1\n      swap2\n      div\n      mul\n      0x20\n      add\n      mload(0x40)\n      swap1\n      dup2\n      add\n      0x40\n      mstore\n      dup1\n      swap3\n      swap2\n      swap1\n      dup2\n      dup2\n      mstore\n      0x20\n      add\n      dup3\n      dup1\n      sload\n      tag_266\n      swap1\n      tag_127\n      jump\t// in\n    tag_266:\n      dup1\n      iszero\n      tag_267\n      jumpi\n      dup1\n      0x1f\n      lt\n      tag_268\n      jumpi\n      0x0100\n      dup1\n      dup4\n      sload\n      div\n      mul\n      dup4\n      mstore\n      swap2\n      0x20\n      add\n      swap2\n      jump(tag_267)\n    tag_268:\n      dup3\n      add\n      swap2\n      swap1\n      0x00\n      mstore\n      keccak256(0x00, 0x20)\n      swap1\n    tag_269:\n      dup2\n      sload\n      dup2\n      mstore\n      swap1\n      0x01\n      add\n      swap1\n      0x20\n      add\n      dup1\n      dup4\n      gt\n      tag_269\n      jumpi\n      dup3\n      swap1\n      sub\n      0x1f\n      and\n      dup3\n      add\n      swap2\n    tag_267:\n      pop\n      pop\n      pop\n      pop\n      pop\n      dup2\n      mstore\n      0x20\n      add\n      0x02\n      dup3\n      add\n      sload\n      dup2\n      mstore\n      0x20\n      add\n      0x03\n      dup3\n      add\n      sload\n      dup2\n      mstore\n      pop\n      pop\n      dup2\n      mstore\n      0x20\n      add\n      swap1\n      0x01\n      add\n      swap1\n      jump(tag_262)\n    tag_263:\n      pop\n      pop\n      pop\n      pop\n      swap1\n      pop\n        /* \"contracts/manager/FoodManager.sol\":5828:6067  function getFoodDetails(uint256 foodId)... */\n      swap2\n      swap1\n      pop\n      jump\t// out\n        /* \"contracts/manager/FoodManager.sol\":686:2263  function createFood(... */\n    tag_86:\n        /* \"contracts/manager/FoodManager.sol\":1041:1042  0 */\n      0x00\n        /* \"contracts/manager/FoodManager.sol\":1016:1021  foods */\n      0x05\n        /* \"contracts/manager/FoodManager.sol\":1016:1030  foods[_foodId] */\n      0x00\n        /* \"contracts/manager/FoodManager.sol\":1022:1029  _foodId */\n      dup9\n        /* \"contracts/manager/FoodManager.sol\":1016:1030  foods[_foodId] */\n      dup2\n      mstore\n      0x20\n      add\n      swap1\n      dup2\n      mstore\n      0x20\n      add\n      0x00\n      keccak256\n        /* \"contracts/manager/FoodManager.sol\":1016:1037  foods[_foodId].foodId */\n      0x00\n      add\n      sload\n        /* \"contracts/manager/FoodManager.sol\":1016:1042  foods[_foodId].foodId == 0 */\n      eq\n        /* \"contracts/manager/FoodManager.sol\":1008:1079  require(foods[_foodId].foodId == 0, \"Food with this ID already exists\") */\n      tag_271\n      jumpi\n      mload(0x40)\n      0x08c379a000000000000000000000000000000000000000000000000000000000\n      dup2\n      mstore\n      0x04\n      add\n      tag_272\n      swap1\n      tag_273\n      jump\t// in\n    tag_272:\n      mload(0x40)\n      dup1\n      swap2\n      sub\n      swap1\n      revert\n    tag_271:\n        /* \"contracts/manager/FoodManager.sol\":1165:1166  0 */\n      0x00\n        /* \"contracts/manager/FoodManager.sol\":1110:1125  categoryManager */\n      0x02\n      0x00\n      swap1\n      sload\n      swap1\n      0x0100\n      exp\n      swap1\n      div\n      0xffffffffffffffffffffffffffffffffffffffff\n      and\n        /* \"contracts/manager/FoodManager.sol\":1110:1137  categoryManager.getCategory */\n      0xffffffffffffffffffffffffffffffffffffffff\n      and\n      0xf3052d26\n        /* \"contracts/manager/FoodManager.sol\":1138:1149  _categoryId */\n      dup6\n        /* \"contracts/manager/FoodManager.sol\":1110:1150  categoryManager.getCategory(_categoryId) */\n      mload(0x40)\n      dup3\n      0xffffffff\n      and\n      0xe0\n      shl\n      dup2\n      mstore\n      0x04\n      add\n      tag_274\n      swap2\n      swap1\n      tag_36\n      jump\t// in\n    tag_274:\n      0x00\n      mload(0x40)\n      dup1\n      dup4\n      sub\n      dup2\n      dup7\n      gas\n      staticcall\n      iszero\n      dup1\n      iszero\n      tag_276\n      jumpi\n      returndatacopy(0x00, 0x00, returndatasize)\n      revert(0x00, returndatasize)\n    tag_276:\n      pop\n      pop\n      pop\n      pop\n      mload(0x40)\n      returndatasize\n      0x00\n      dup3\n      returndatacopy\n      returndatasize\n      not(0x1f)\n      0x1f\n      dup3\n      add\n      and\n      dup3\n      add\n      dup1\n      0x40\n      mstore\n      pop\n      dup2\n      add\n      swap1\n      tag_277\n      swap2\n      swap1\n      tag_227\n      jump\t// in\n    tag_277:\n        /* \"contracts/manager/FoodManager.sol\":1110:1161  categoryManager.getCategory(_categoryId).categoryId */\n      0x00\n      add\n      mload\n        /* \"contracts/manager/FoodManager.sol\":1110:1166  categoryManager.getCategory(_categoryId).categoryId != 0 */\n      sub\n        /* \"contracts/manager/FoodManager.sol\":1089:1215  require(... */\n      tag_278\n      jumpi\n      mload(0x40)\n      0x08c379a000000000000000000000000000000000000000000000000000000000\n      dup2\n      mstore\n      0x04\n      add\n      tag_279\n      swap1\n      tag_230\n      jump\t// in\n    tag_279:\n      mload(0x40)\n      dup1\n      swap2\n      sub\n      swap1\n      revert\n    tag_278:\n        /* \"contracts/manager/FoodManager.sol\":1285:1304  Food memory newFood */\n      0x00\n        /* \"contracts/manager/FoodManager.sol\":1307:1539  Food({... */\n      mload(0x40)\n      dup1\n      0xe0\n      add\n      0x40\n      mstore\n      dup1\n        /* \"contracts/manager/FoodManager.sol\":1334:1341  _foodId */\n      dup9\n        /* \"contracts/manager/FoodManager.sol\":1307:1539  Food({... */\n      dup2\n      mstore\n      0x20\n      add\n        /* \"contracts/manager/FoodManager.sol\":1361:1366  _name */\n      dup8\n        /* \"contracts/manager/FoodManager.sol\":1307:1539  Food({... */\n      dup2\n      mstore\n      0x20\n      add\n        /* \"contracts/manager/FoodManager.sol\":1393:1405  _description */\n      dup7\n        /* \"contracts/manager/FoodManager.sol\":1307:1539  Food({... */\n      dup2\n      mstore\n      0x20\n      add\n        /* \"contracts/manager/FoodManager.sol\":1431:1442  _categoryId */\n      dup6\n        /* \"contracts/manager/FoodManager.sol\":1307:1539  Food({... */\n      dup2\n      mstore\n      0x20\n      add\n        /* \"contracts/manager/FoodManager.sol\":1466:1475  _imageUrl */\n      dup5\n        /* \"contracts/manager/FoodManager.sol\":1307:1539  Food({... */\n      dup2\n      mstore\n      0x20\n      add\n        /* \"contracts/manager/FoodManager.sol\":1500:1501  0 */\n      0x00\n        /* \"contracts/manager/FoodManager.sol\":1307:1539  Food({... */\n      dup2\n      mstore\n      0x20\n      add\n        /* \"contracts/manager/FoodManager.sol\":1527:1528  0 */\n      0x00\n        /* \"contracts/manager/FoodManager.sol\":1307:1539  Food({... */\n      dup2\n      mstore\n      pop\n        /* \"contracts/manager/FoodManager.sol\":1285:1539  Food memory newFood = Food({... */\n      swap1\n      pop\n        /* \"contracts/manager/FoodManager.sol\":1566:1573  newFood */\n      dup1\n        /* \"contracts/manager/FoodManager.sol\":1549:1554  foods */\n      0x05\n        /* \"contracts/manager/FoodManager.sol\":1549:1563  foods[_foodId] */\n      0x00\n        /* \"contracts/manager/FoodManager.sol\":1555:1562  _foodId */\n      dup10\n        /* \"contracts/manager/FoodManager.sol\":1549:1563  foods[_foodId] */\n      dup2\n      mstore\n      0x20\n      add\n      swap1\n      dup2\n      mstore\n      0x20\n      add\n      0x00\n      keccak256\n        /* \"contracts/manager/FoodManager.sol\":1549:1573  foods[_foodId] = newFood */\n      0x00\n      dup3\n      add\n      mload\n      dup2\n      0x00\n      add\n      sstore\n      0x20\n      dup3\n      add\n      mload\n      dup2\n      0x01\n      add\n      swap1\n      dup2\n      tag_280\n      swap2\n      swap1\n      tag_191\n      jump\t// in\n    tag_280:\n      pop\n      0x40\n      dup3\n      add\n      mload\n      dup2\n      0x02\n      add\n      swap1\n      dup2\n      tag_281\n      swap2\n      swap1\n      tag_191\n      jump\t// in\n    tag_281:\n      pop\n      0x60\n      dup3\n      add\n      mload\n      dup2\n      0x03\n      add\n      sstore\n      0x80\n      dup3\n      add\n      mload\n      dup2\n      0x04\n      add\n      swap1\n      dup1\n      mload\n      swap1\n      0x20\n      add\n      swap1\n      tag_282\n      swap3\n      swap2\n      swap1\n      tag_234\n      jump\t// in\n    tag_282:\n      pop\n      0xa0\n      dup3\n      add\n      mload\n      dup2\n      0x05\n      add\n      sstore\n      0xc0\n      dup3\n      add\n      mload\n      dup2\n      0x06\n      add\n      sstore\n      swap1\n      pop\n      pop\n        /* \"contracts/manager/FoodManager.sol\":1583:1590  foodIds */\n      0x07\n        /* \"contracts/manager/FoodManager.sol\":1596:1603  _foodId */\n      dup8\n        /* \"contracts/manager/FoodManager.sol\":1583:1604  foodIds.push(_foodId) */\n      swap1\n      dup1\n      0x01\n      dup2\n      sload\n      add\n      dup1\n      dup3\n      sstore\n      dup1\n      swap2\n      pop\n      pop\n      0x01\n      swap1\n      sub\n      swap1\n      0x00\n      mstore\n      keccak256(0x00, 0x20)\n      add\n      0x00\n      swap1\n      swap2\n      swap1\n      swap2\n      swap1\n      swap2\n      pop\n      sstore\n        /* \"contracts/manager/FoodManager.sol\":1615:1630  categoryManager */\n      0x02\n      0x00\n      swap1\n      sload\n      swap1\n      0x0100\n      exp\n      swap1\n      div\n      0xffffffffffffffffffffffffffffffffffffffff\n      and\n        /* \"contracts/manager/FoodManager.sol\":1615:1650  categoryManager.addFoodIdToCategory */\n      0xffffffffffffffffffffffffffffffffffffffff\n      and\n      0x5f8069cc\n        /* \"contracts/manager/FoodManager.sol\":1651:1662  _categoryId */\n      dup6\n        /* \"contracts/manager/FoodManager.sol\":1663:1670  _foodId */\n      dup10\n        /* \"contracts/manager/FoodManager.sol\":1615:1671  categoryManager.addFoodIdToCategory(_categoryId,_foodId) */\n      mload(0x40)\n      dup4\n      0xffffffff\n      and\n      0xe0\n      shl\n      dup2\n      mstore\n      0x04\n      add\n      tag_284\n      swap3\n      swap2\n      swap1\n      tag_199\n      jump\t// in\n    tag_284:\n      0x00\n      mload(0x40)\n      dup1\n      dup4\n      sub\n      dup2\n      0x00\n      dup8\n      dup1\n      extcodesize\n      iszero\n      dup1\n      iszero\n      tag_285\n      jumpi\n      revert(0x00, 0x00)\n    tag_285:\n      pop\n      gas\n      call\n      iszero\n      dup1\n      iszero\n      tag_287\n      jumpi\n      returndatacopy(0x00, 0x00, returndatasize)\n      revert(0x00, returndatasize)\n    tag_287:\n      pop\n      pop\n      pop\n      pop\n        /* \"contracts/manager/FoodManager.sol\":1728:1737  uint256 i */\n      0x00\n        /* \"contracts/manager/FoodManager.sol\":1740:1741  0 */\n      0x00\n        /* \"contracts/manager/FoodManager.sol\":1728:1741  uint256 i = 0 */\n      swap1\n      pop\n        /* \"contracts/manager/FoodManager.sol\":1723:2130  for (uint256 i = 0; i < _foodDetail.length; i++) {... */\n    tag_288:\n        /* \"contracts/manager/FoodManager.sol\":1747:1758  _foodDetail */\n      dup3\n        /* \"contracts/manager/FoodManager.sol\":1747:1765  _foodDetail.length */\n      mload\n        /* \"contracts/manager/FoodManager.sol\":1743:1744  i */\n      dup2\n        /* \"contracts/manager/FoodManager.sol\":1743:1765  i < _foodDetail.length */\n      lt\n        /* \"contracts/manager/FoodManager.sol\":1723:2130  for (uint256 i = 0; i < _foodDetail.length; i++) {... */\n      iszero\n      tag_289\n      jumpi\n        /* \"contracts/manager/FoodManager.sol\":1786:1817  FoodDetail memory newFoodDetail */\n      0x00\n        /* \"contracts/manager/FoodManager.sol\":1820:2065  FoodDetail({... */\n      mload(0x40)\n      dup1\n      0x80\n      add\n      0x40\n      mstore\n      dup1\n        /* \"contracts/manager/FoodManager.sol\":1863:1879  nextFoodDetailId */\n      0x04\n      0x00\n        /* \"contracts/manager/FoodManager.sol\":1863:1881  nextFoodDetailId++ */\n      dup2\n      sload\n      dup1\n      swap3\n      swap2\n      swap1\n      tag_291\n      swap1\n      tag_210\n      jump\t// in\n    tag_291:\n      swap2\n      swap1\n      pop\n      sstore\n        /* \"contracts/manager/FoodManager.sol\":1820:2065  FoodDetail({... */\n      dup2\n      mstore\n      0x20\n      add\n        /* \"contracts/manager/FoodManager.sol\":1935:1946  _foodDetail */\n      dup6\n        /* \"contracts/manager/FoodManager.sol\":1947:1948  i */\n      dup5\n        /* \"contracts/manager/FoodManager.sol\":1935:1949  _foodDetail[i] */\n      dup2\n      mload\n      dup2\n      lt\n      tag_292\n      jumpi\n      tag_293\n      tag_108\n      jump\t// in\n    tag_293:\n    tag_292:\n      0x20\n      mul\n      0x20\n      add\n      add\n      mload\n        /* \"contracts/manager/FoodManager.sol\":1935:1954  _foodDetail[i].size */\n      0x00\n      add\n      mload\n        /* \"contracts/manager/FoodManager.sol\":1820:2065  FoodDetail({... */\n      dup2\n      mstore\n      0x20\n      add\n        /* \"contracts/manager/FoodManager.sol\":1982:1993  _foodDetail */\n      dup6\n        /* \"contracts/manager/FoodManager.sol\":1994:1995  i */\n      dup5\n        /* \"contracts/manager/FoodManager.sol\":1982:1996  _foodDetail[i] */\n      dup2\n      mload\n      dup2\n      lt\n      tag_294\n      jumpi\n      tag_295\n      tag_108\n      jump\t// in\n    tag_295:\n    tag_294:\n      0x20\n      mul\n      0x20\n      add\n      add\n      mload\n        /* \"contracts/manager/FoodManager.sol\":1982:2005  _foodDetail[i].quantity */\n      0x20\n      add\n      mload\n        /* \"contracts/manager/FoodManager.sol\":1820:2065  FoodDetail({... */\n      dup2\n      mstore\n      0x20\n      add\n        /* \"contracts/manager/FoodManager.sol\":2030:2041  _foodDetail */\n      dup6\n        /* \"contracts/manager/FoodManager.sol\":2042:2043  i */\n      dup5\n        /* \"contracts/manager/FoodManager.sol\":2030:2044  _foodDetail[i] */\n      dup2\n      mload\n      dup2\n      lt\n      tag_296\n      jumpi\n      tag_297\n      tag_108\n      jump\t// in\n    tag_297:\n    tag_296:\n      0x20\n      mul\n      0x20\n      add\n      add\n      mload\n        /* \"contracts/manager/FoodManager.sol\":2030:2050  _foodDetail[i].price */\n      0x40\n      add\n      mload\n        /* \"contracts/manager/FoodManager.sol\":1820:2065  FoodDetail({... */\n      dup2\n      mstore\n      pop\n        /* \"contracts/manager/FoodManager.sol\":1786:2065  FoodDetail memory newFoodDetail = FoodDetail({... */\n      swap1\n      pop\n        /* \"contracts/manager/FoodManager.sol\":2079:2090  foodDetails */\n      0x06\n        /* \"contracts/manager/FoodManager.sol\":2079:2099  foodDetails[_foodId] */\n      0x00\n        /* \"contracts/manager/FoodManager.sol\":2091:2098  _foodId */\n      dup11\n        /* \"contracts/manager/FoodManager.sol\":2079:2099  foodDetails[_foodId] */\n      dup2\n      mstore\n      0x20\n      add\n      swap1\n      dup2\n      mstore\n      0x20\n      add\n      0x00\n      keccak256\n        /* \"contracts/manager/FoodManager.sol\":2105:2118  newFoodDetail */\n      dup2\n        /* \"contracts/manager/FoodManager.sol\":2079:2119  foodDetails[_foodId].push(newFoodDetail) */\n      swap1\n      dup1\n      0x01\n      dup2\n      sload\n      add\n      dup1\n      dup3\n      sstore\n      dup1\n      swap2\n      pop\n      pop\n      0x01\n      swap1\n      sub\n      swap1\n      0x00\n      mstore\n      keccak256(0x00, 0x20)\n      swap1\n      0x04\n      mul\n      add\n      0x00\n      swap1\n      swap2\n      swap1\n      swap2\n      swap1\n      swap2\n      pop\n      0x00\n      dup3\n      add\n      mload\n      dup2\n      0x00\n      add\n      sstore\n      0x20\n      dup3\n      add\n      mload\n      dup2\n      0x01\n      add\n      swap1\n      dup2\n      tag_299\n      swap2\n      swap1\n      tag_191\n      jump\t// in\n    tag_299:\n      pop\n      0x40\n      dup3\n      add\n      mload\n      dup2\n      0x02\n      add\n      sstore\n      0x60\n      dup3\n      add\n      mload\n      dup2\n      0x03\n      add\n      sstore\n      pop\n      pop\n        /* \"contracts/manager/FoodManager.sol\":1772:2130  {... */\n      pop\n        /* \"contracts/manager/FoodManager.sol\":1767:1770  i++ */\n      dup1\n      dup1\n      0x01\n      add\n      swap2\n      pop\n      pop\n        /* \"contracts/manager/FoodManager.sol\":1723:2130  for (uint256 i = 0; i < _foodDetail.length; i++) {... */\n      jump(tag_288)\n    tag_289:\n      pop\n        /* \"contracts/manager/FoodManager.sol\":2191:2256  FoodCreated(_foodId, _name, _description, _categoryId, _imageUrl) */\n      0xbdf2814016d06bf27f22aa349fade26a888a8f7eac3e0963916b1c64cc37a5ce\n        /* \"contracts/manager/FoodManager.sol\":2203:2210  _foodId */\n      dup8\n        /* \"contracts/manager/FoodManager.sol\":2212:2217  _name */\n      dup8\n        /* \"contracts/manager/FoodManager.sol\":2219:2231  _description */\n      dup8\n        /* \"contracts/manager/FoodManager.sol\":2233:2244  _categoryId */\n      dup8\n        /* \"contracts/manager/FoodManager.sol\":2246:2255  _imageUrl */\n      dup8\n        /* \"contracts/manager/FoodManager.sol\":2191:2256  FoodCreated(_foodId, _name, _description, _categoryId, _imageUrl) */\n      mload(0x40)\n      tag_300\n      swap6\n      swap5\n      swap4\n      swap3\n      swap2\n      swap1\n      tag_236\n      jump\t// in\n    tag_300:\n      mload(0x40)\n      dup1\n      swap2\n      sub\n      swap1\n      log1\n        /* \"contracts/manager/FoodManager.sol\":932:2263  {... */\n      pop\n        /* \"contracts/manager/FoodManager.sol\":686:2263  function createFood(... */\n      pop\n      pop\n      pop\n      pop\n      pop\n      pop\n      jump\t// out\n        /* \"contracts/manager/FoodManager.sol\":6337:6843  function getAllFoods()... */\n    tag_88:\n        /* \"contracts/manager/FoodManager.sol\":6424:6448  FoodWithDetails[] memory */\n      0x60\n        /* \"contracts/manager/FoodManager.sol\":6464:6497  FoodWithDetails[] memory allFoods */\n      0x00\n        /* \"contracts/manager/FoodManager.sol\":6535:6542  foodIds */\n      0x07\n        /* \"contracts/manager/FoodManager.sol\":6535:6549  foodIds.length */\n      dup1\n      sload\n      swap1\n      pop\n        /* \"contracts/manager/FoodManager.sol\":6500:6559  new FoodWithDetails[](... */\n      0xffffffffffffffff\n      dup2\n      gt\n      iszero\n      tag_302\n      jumpi\n      tag_303\n      tag_304\n      jump\t// in\n    tag_303:\n    tag_302:\n      mload(0x40)\n      swap1\n      dup1\n      dup3\n      mstore\n      dup1\n      0x20\n      mul\n      0x20\n      add\n      dup3\n      add\n      0x40\n      mstore\n      dup1\n      iszero\n      tag_305\n      jumpi\n      dup2\n      0x20\n      add\n    tag_306:\n      tag_307\n      tag_308\n      jump\t// in\n    tag_307:\n      dup2\n      mstore\n      0x20\n      add\n      swap1\n      0x01\n      swap1\n      sub\n      swap1\n      dup2\n      tag_306\n      jumpi\n      swap1\n      pop\n    tag_305:\n      pop\n        /* \"contracts/manager/FoodManager.sol\":6464:6559  FoodWithDetails[] memory allFoods = new FoodWithDetails[](... */\n      swap1\n      pop\n        /* \"contracts/manager/FoodManager.sol\":6574:6583  uint256 i */\n      0x00\n        /* \"contracts/manager/FoodManager.sol\":6586:6587  0 */\n      0x00\n        /* \"contracts/manager/FoodManager.sol\":6574:6587  uint256 i = 0 */\n      swap1\n      pop\n        /* \"contracts/manager/FoodManager.sol\":6569:6812  for (uint256 i = 0; i < foodIds.length; i++) {... */\n    tag_309:\n        /* \"contracts/manager/FoodManager.sol\":6593:6600  foodIds */\n      0x07\n        /* \"contracts/manager/FoodManager.sol\":6593:6607  foodIds.length */\n      dup1\n      sload\n      swap1\n      pop\n        /* \"contracts/manager/FoodManager.sol\":6589:6590  i */\n      dup2\n        /* \"contracts/manager/FoodManager.sol\":6589:6607  i < foodIds.length */\n      lt\n        /* \"contracts/manager/FoodManager.sol\":6569:6812  for (uint256 i = 0; i < foodIds.length; i++) {... */\n      iszero\n      tag_310\n      jumpi\n        /* \"contracts/manager/FoodManager.sol\":6628:6642  uint256 foodId */\n      0x00\n        /* \"contracts/manager/FoodManager.sol\":6645:6652  foodIds */\n      0x07\n        /* \"contracts/manager/FoodManager.sol\":6653:6654  i */\n      dup3\n        /* \"contracts/manager/FoodManager.sol\":6645:6655  foodIds[i] */\n      dup2\n      sload\n      dup2\n      lt\n      tag_312\n      jumpi\n      tag_313\n      tag_108\n      jump\t// in\n    tag_313:\n    tag_312:\n      swap1\n      0x00\n      mstore\n      keccak256(0x00, 0x20)\n      add\n      sload\n        /* \"contracts/manager/FoodManager.sol\":6628:6655  uint256 foodId = foodIds[i] */\n      swap1\n      pop\n        /* \"contracts/manager/FoodManager.sol\":6683:6801  FoodWithDetails({... */\n      mload(0x40)\n      dup1\n      0x40\n      add\n      0x40\n      mstore\n      dup1\n        /* \"contracts/manager/FoodManager.sol\":6723:6728  foods */\n      0x05\n        /* \"contracts/manager/FoodManager.sol\":6723:6736  foods[foodId] */\n      0x00\n        /* \"contracts/manager/FoodManager.sol\":6729:6735  foodId */\n      dup5\n        /* \"contracts/manager/FoodManager.sol\":6723:6736  foods[foodId] */\n      dup2\n      mstore\n      0x20\n      add\n      swap1\n      dup2\n      mstore\n      0x20\n      add\n      0x00\n      keccak256\n        /* \"contracts/manager/FoodManager.sol\":6683:6801  FoodWithDetails({... */\n      mload(0x40)\n      dup1\n      0xe0\n      add\n      0x40\n      mstore\n      swap1\n      dup2\n      0x00\n      dup3\n      add\n      sload\n      dup2\n      mstore\n      0x20\n      add\n      0x01\n      dup3\n      add\n      dup1\n      sload\n      tag_315\n      swap1\n      tag_127\n      jump\t// in\n    tag_315:\n      dup1\n      0x1f\n      add\n      0x20\n      dup1\n      swap2\n      div\n      mul\n      0x20\n      add\n      mload(0x40)\n      swap1\n      dup2\n      add\n      0x40\n      mstore\n      dup1\n      swap3\n      swap2\n      swap1\n      dup2\n      dup2\n      mstore\n      0x20\n      add\n      dup3\n      dup1\n      sload\n      tag_316\n      swap1\n      tag_127\n      jump\t// in\n    tag_316:\n      dup1\n      iszero\n      tag_317\n      jumpi\n      dup1\n      0x1f\n      lt\n      tag_318\n      jumpi\n      0x0100\n      dup1\n      dup4\n      sload\n      div\n      mul\n      dup4\n      mstore\n      swap2\n      0x20\n      add\n      swap2\n      jump(tag_317)\n    tag_318:\n      dup3\n      add\n      swap2\n      swap1\n      0x00\n      mstore\n      keccak256(0x00, 0x20)\n      swap1\n    tag_319:\n      dup2\n      sload\n      dup2\n      mstore\n      swap1\n      0x01\n      add\n      swap1\n      0x20\n      add\n      dup1\n      dup4\n      gt\n      tag_319\n      jumpi\n      dup3\n      swap1\n      sub\n      0x1f\n      and\n      dup3\n      add\n      swap2\n    tag_317:\n      pop\n      pop\n      pop\n      pop\n      pop\n      dup2\n      mstore\n      0x20\n      add\n      0x02\n      dup3\n      add\n      dup1\n      sload\n      tag_320\n      swap1\n      tag_127\n      jump\t// in\n    tag_320:\n      dup1\n      0x1f\n      add\n      0x20\n      dup1\n      swap2\n      div\n      mul\n      0x20\n      add\n      mload(0x40)\n      swap1\n      dup2\n      add\n      0x40\n      mstore\n      dup1\n      swap3\n      swap2\n      swap1\n      dup2\n      dup2\n      mstore\n      0x20\n      add\n      dup3\n      dup1\n      sload\n      tag_321\n      swap1\n      tag_127\n      jump\t// in\n    tag_321:\n      dup1\n      iszero\n      tag_322\n      jumpi\n      dup1\n      0x1f\n      lt\n      tag_323\n      jumpi\n      0x0100\n      dup1\n      dup4\n      sload\n      div\n      mul\n      dup4\n      mstore\n      swap2\n      0x20\n      add\n      swap2\n      jump(tag_322)\n    tag_323:\n      dup3\n      add\n      swap2\n      swap1\n      0x00\n      mstore\n      keccak256(0x00, 0x20)\n      swap1\n    tag_324:\n      dup2\n      sload\n      dup2\n      mstore\n      swap1\n      0x01\n      add\n      swap1\n      0x20\n      add\n      dup1\n      dup4\n      gt\n      tag_324\n      jumpi\n      dup3\n      swap1\n      sub\n      0x1f\n      and\n      dup3\n      add\n      swap2\n    tag_322:\n      pop\n      pop\n      pop\n      pop\n      pop\n      dup2\n      mstore\n      0x20\n      add\n      0x03\n      dup3\n      add\n      sload\n      dup2\n      mstore\n      0x20\n      add\n      0x04\n      dup3\n      add\n      dup1\n      sload\n      dup1\n      0x20\n      mul\n      0x20\n      add\n      mload(0x40)\n      swap1\n      dup2\n      add\n      0x40\n      mstore\n      dup1\n      swap3\n      swap2\n      swap1\n      dup2\n      dup2\n      mstore\n      0x20\n      add\n      0x00\n      swap1\n    tag_325:\n      dup3\n      dup3\n      lt\n      iszero\n      tag_326\n      jumpi\n      dup4\n      dup3\n      swap1\n      0x00\n      mstore\n      keccak256(0x00, 0x20)\n      add\n      dup1\n      sload\n      tag_328\n      swap1\n      tag_127\n      jump\t// in\n    tag_328:\n      dup1\n      0x1f\n      add\n      0x20\n      dup1\n      swap2\n      div\n      mul\n      0x20\n      add\n      mload(0x40)\n      swap1\n      dup2\n      add\n      0x40\n      mstore\n      dup1\n      swap3\n      swap2\n      swap1\n      dup2\n      dup2\n      mstore\n      0x20\n      add\n      dup3\n      dup1\n      sload\n      tag_329\n      swap1\n      tag_127\n      jump\t// in\n    tag_329:\n      dup1\n      iszero\n      tag_330\n      jumpi\n      dup1\n      0x1f\n      lt\n      tag_331\n      jumpi\n      0x0100\n      dup1\n      dup4\n      sload\n      div\n      mul\n      dup4\n      mstore\n      swap2\n      0x20\n      add\n      swap2\n      jump(tag_330)\n    tag_331:\n      dup3\n      add\n      swap2\n      swap1\n      0x00\n      mstore\n      keccak256(0x00, 0x20)\n      swap1\n    tag_332:\n      dup2\n      sload\n      dup2\n      mstore\n      swap1\n      0x01\n      add\n      swap1\n      0x20\n      add\n      dup1\n      dup4\n      gt\n      tag_332\n      jumpi\n      dup3\n      swap1\n      sub\n      0x1f\n      and\n      dup3\n      add\n      swap2\n    tag_330:\n      pop\n      pop\n      pop\n      pop\n      pop\n      dup2\n      mstore\n      0x20\n      add\n      swap1\n      0x01\n      add\n      swap1\n      jump(tag_325)\n    tag_326:\n      pop\n      pop\n      pop\n      pop\n      dup2\n      mstore\n      0x20\n      add\n      0x05\n      dup3\n      add\n      sload\n      dup2\n      mstore\n      0x20\n      add\n      0x06\n      dup3\n      add\n      sload\n      dup2\n      mstore\n      pop\n      pop\n      dup2\n      mstore\n      0x20\n      add\n        /* \"contracts/manager/FoodManager.sol\":6767:6778  foodDetails */\n      0x06\n        /* \"contracts/manager/FoodManager.sol\":6767:6786  foodDetails[foodId] */\n      0x00\n        /* \"contracts/manager/FoodManager.sol\":6779:6785  foodId */\n      dup5\n        /* \"contracts/manager/FoodManager.sol\":6767:6786  foodDetails[foodId] */\n      dup2\n      mstore\n      0x20\n      add\n      swap1\n      dup2\n      mstore\n      0x20\n      add\n      0x00\n      keccak256\n        /* \"contracts/manager/FoodManager.sol\":6683:6801  FoodWithDetails({... */\n      dup1\n      sload\n      dup1\n      0x20\n      mul\n      0x20\n      add\n      mload(0x40)\n      swap1\n      dup2\n      add\n      0x40\n      mstore\n      dup1\n      swap3\n      swap2\n      swap1\n      dup2\n      dup2\n      mstore\n      0x20\n      add\n      0x00\n      swap1\n    tag_333:\n      dup3\n      dup3\n      lt\n      iszero\n      tag_334\n      jumpi\n      dup4\n      dup3\n      swap1\n      0x00\n      mstore\n      keccak256(0x00, 0x20)\n      swap1\n      0x04\n      mul\n      add\n      mload(0x40)\n      dup1\n      0x80\n      add\n      0x40\n      mstore\n      swap1\n      dup2\n      0x00\n      dup3\n      add\n      sload\n      dup2\n      mstore\n      0x20\n      add\n      0x01\n      dup3\n      add\n      dup1\n      sload\n      tag_336\n      swap1\n      tag_127\n      jump\t// in\n    tag_336:\n      dup1\n      0x1f\n      add\n      0x20\n      dup1\n      swap2\n      div\n      mul\n      0x20\n      add\n      mload(0x40)\n      swap1\n      dup2\n      add\n      0x40\n      mstore\n      dup1\n      swap3\n      swap2\n      swap1\n      dup2\n      dup2\n      mstore\n      0x20\n      add\n      dup3\n      dup1\n      sload\n      tag_337\n      swap1\n      tag_127\n      jump\t// in\n    tag_337:\n      dup1\n      iszero\n      tag_338\n      jumpi\n      dup1\n      0x1f\n      lt\n      tag_339\n      jumpi\n      0x0100\n      dup1\n      dup4\n      sload\n      div\n      mul\n      dup4\n      mstore\n      swap2\n      0x20\n      add\n      swap2\n      jump(tag_338)\n    tag_339:\n      dup3\n      add\n      swap2\n      swap1\n      0x00\n      mstore\n      keccak256(0x00, 0x20)\n      swap1\n    tag_340:\n      dup2\n      sload\n      dup2\n      mstore\n      swap1\n      0x01\n      add\n      swap1\n      0x20\n      add\n      dup1\n      dup4\n      gt\n      tag_340\n      jumpi\n      dup3\n      swap1\n      sub\n      0x1f\n      and\n      dup3\n      add\n      swap2\n    tag_338:\n      pop\n      pop\n      pop\n      pop\n      pop\n      dup2\n      mstore\n      0x20\n      add\n      0x02\n      dup3\n      add\n      sload\n      dup2\n      mstore\n      0x20\n      add\n      0x03\n      dup3\n      add\n      sload\n      dup2\n      mstore\n      pop\n      pop\n      dup2\n      mstore\n      0x20\n      add\n      swap1\n      0x01\n      add\n      swap1\n      jump(tag_333)\n    tag_334:\n      pop\n      pop\n      pop\n      pop\n      dup2\n      mstore\n      pop\n        /* \"contracts/manager/FoodManager.sol\":6669:6677  allFoods */\n      dup4\n        /* \"contracts/manager/FoodManager.sol\":6678:6679  i */\n      dup4\n        /* \"contracts/manager/FoodManager.sol\":6669:6680  allFoods[i] */\n      dup2\n      mload\n      dup2\n      lt\n      tag_341\n      jumpi\n      tag_342\n      tag_108\n      jump\t// in\n    tag_342:\n    tag_341:\n      0x20\n      mul\n      0x20\n      add\n      add\n        /* \"contracts/manager/FoodManager.sol\":6669:6801  allFoods[i] = FoodWithDetails({... */\n      dup2\n      swap1\n      mstore\n      pop\n        /* \"contracts/manager/FoodManager.sol\":6614:6812  {... */\n      pop\n        /* \"contracts/manager/FoodManager.sol\":6609:6612  i++ */\n      dup1\n      dup1\n      0x01\n      add\n      swap2\n      pop\n      pop\n        /* \"contracts/manager/FoodManager.sol\":6569:6812  for (uint256 i = 0; i < foodIds.length; i++) {... */\n      jump(tag_309)\n    tag_310:\n      pop\n        /* \"contracts/manager/FoodManager.sol\":6828:6836  allFoods */\n      dup1\n        /* \"contracts/manager/FoodManager.sol\":6821:6836  return allFoods */\n      swap2\n      pop\n      pop\n        /* \"contracts/manager/FoodManager.sol\":6337:6843  function getAllFoods()... */\n      swap1\n      jump\t// out\n        /* \"contracts/manager/FoodManager.sol\":4185:5002  function updateFoodDetail(... */\n    tag_94:\n        /* \"contracts/manager/FoodManager.sol\":4374:4375  0 */\n      0x00\n        /* \"contracts/manager/FoodManager.sol\":4350:4355  foods */\n      0x05\n        /* \"contracts/manager/FoodManager.sol\":4350:4363  foods[foodId] */\n      0x00\n        /* \"contracts/manager/FoodManager.sol\":4356:4362  foodId */\n      dup6\n        /* \"contracts/manager/FoodManager.sol\":4350:4363  foods[foodId] */\n      dup2\n      mstore\n      0x20\n      add\n      swap1\n      dup2\n      mstore\n      0x20\n      add\n      0x00\n      keccak256\n        /* \"contracts/manager/FoodManager.sol\":4350:4370  foods[foodId].foodId */\n      0x00\n      add\n      sload\n        /* \"contracts/manager/FoodManager.sol\":4350:4375  foods[foodId].foodId != 0 */\n      sub\n        /* \"contracts/manager/FoodManager.sol\":4342:4399  require(foods[foodId].foodId != 0, \"Food does not exist\") */\n      tag_344\n      jumpi\n      mload(0x40)\n      0x08c379a000000000000000000000000000000000000000000000000000000000\n      dup2\n      mstore\n      0x04\n      add\n      tag_345\n      swap1\n      tag_125\n      jump\t// in\n    tag_345:\n      mload(0x40)\n      dup1\n      swap2\n      sub\n      swap1\n      revert\n    tag_344:\n        /* \"contracts/manager/FoodManager.sol\":4409:4444  FoodDetail[] storage foodDetailList */\n      0x00\n        /* \"contracts/manager/FoodManager.sol\":4447:4458  foodDetails */\n      0x06\n        /* \"contracts/manager/FoodManager.sol\":4447:4466  foodDetails[foodId] */\n      0x00\n        /* \"contracts/manager/FoodManager.sol\":4459:4465  foodId */\n      dup6\n        /* \"contracts/manager/FoodManager.sol\":4447:4466  foodDetails[foodId] */\n      dup2\n      mstore\n      0x20\n      add\n      swap1\n      dup2\n      mstore\n      0x20\n      add\n      0x00\n      keccak256\n        /* \"contracts/manager/FoodManager.sol\":4409:4466  FoodDetail[] storage foodDetailList = foodDetails[foodId] */\n      swap1\n      pop\n        /* \"contracts/manager/FoodManager.sol\":4476:4486  bool found */\n      0x00\n        /* \"contracts/manager/FoodManager.sol\":4489:4494  false */\n      0x00\n        /* \"contracts/manager/FoodManager.sol\":4476:4494  bool found = false */\n      swap1\n      pop\n        /* \"contracts/manager/FoodManager.sol\":4509:4518  uint256 i */\n      0x00\n        /* \"contracts/manager/FoodManager.sol\":4521:4522  0 */\n      0x00\n        /* \"contracts/manager/FoodManager.sol\":4509:4522  uint256 i = 0 */\n      swap1\n      pop\n        /* \"contracts/manager/FoodManager.sol\":4504:4943  for (uint256 i = 0; i < foodDetailList.length; i++) {... */\n    tag_346:\n        /* \"contracts/manager/FoodManager.sol\":4528:4542  foodDetailList */\n      dup3\n        /* \"contracts/manager/FoodManager.sol\":4528:4549  foodDetailList.length */\n      dup1\n      sload\n      swap1\n      pop\n        /* \"contracts/manager/FoodManager.sol\":4524:4525  i */\n      dup2\n        /* \"contracts/manager/FoodManager.sol\":4524:4549  i < foodDetailList.length */\n      lt\n        /* \"contracts/manager/FoodManager.sol\":4504:4943  for (uint256 i = 0; i < foodDetailList.length; i++) {... */\n      iszero\n      tag_347\n      jumpi\n        /* \"contracts/manager/FoodManager.sol\":4608:4620  foodDetailId */\n      dup5\n        /* \"contracts/manager/FoodManager.sol\":4574:4588  foodDetailList */\n      dup4\n        /* \"contracts/manager/FoodManager.sol\":4589:4590  i */\n      dup3\n        /* \"contracts/manager/FoodManager.sol\":4574:4591  foodDetailList[i] */\n      dup2\n      sload\n      dup2\n      lt\n      tag_349\n      jumpi\n      tag_350\n      tag_108\n      jump\t// in\n    tag_350:\n    tag_349:\n      swap1\n      0x00\n      mstore\n      keccak256(0x00, 0x20)\n      swap1\n      0x04\n      mul\n      add\n        /* \"contracts/manager/FoodManager.sol\":4574:4604  foodDetailList[i].foodDetailId */\n      0x00\n      add\n      sload\n        /* \"contracts/manager/FoodManager.sol\":4574:4620  foodDetailList[i].foodDetailId == foodDetailId */\n      sub\n        /* \"contracts/manager/FoodManager.sol\":4570:4933  if (foodDetailList[i].foodDetailId == foodDetailId) {... */\n      tag_352\n      jumpi\n        /* \"contracts/manager/FoodManager.sol\":4665:4674  newDetail */\n      dup4\n        /* \"contracts/manager/FoodManager.sol\":4665:4679  newDetail.size */\n      0x00\n      add\n      mload\n        /* \"contracts/manager/FoodManager.sol\":4640:4654  foodDetailList */\n      dup4\n        /* \"contracts/manager/FoodManager.sol\":4655:4656  i */\n      dup3\n        /* \"contracts/manager/FoodManager.sol\":4640:4657  foodDetailList[i] */\n      dup2\n      sload\n      dup2\n      lt\n      tag_353\n      jumpi\n      tag_354\n      tag_108\n      jump\t// in\n    tag_354:\n    tag_353:\n      swap1\n      0x00\n      mstore\n      keccak256(0x00, 0x20)\n      swap1\n      0x04\n      mul\n      add\n        /* \"contracts/manager/FoodManager.sol\":4640:4662  foodDetailList[i].size */\n      0x01\n      add\n        /* \"contracts/manager/FoodManager.sol\":4640:4679  foodDetailList[i].size = newDetail.size */\n      swap1\n      dup2\n      tag_356\n      swap2\n      swap1\n      tag_191\n      jump\t// in\n    tag_356:\n      pop\n        /* \"contracts/manager/FoodManager.sol\":4726:4735  newDetail */\n      dup4\n        /* \"contracts/manager/FoodManager.sol\":4726:4744  newDetail.quantity */\n      0x20\n      add\n      mload\n        /* \"contracts/manager/FoodManager.sol\":4697:4711  foodDetailList */\n      dup4\n        /* \"contracts/manager/FoodManager.sol\":4712:4713  i */\n      dup3\n        /* \"contracts/manager/FoodManager.sol\":4697:4714  foodDetailList[i] */\n      dup2\n      sload\n      dup2\n      lt\n      tag_357\n      jumpi\n      tag_358\n      tag_108\n      jump\t// in\n    tag_358:\n    tag_357:\n      swap1\n      0x00\n      mstore\n      keccak256(0x00, 0x20)\n      swap1\n      0x04\n      mul\n      add\n        /* \"contracts/manager/FoodManager.sol\":4697:4723  foodDetailList[i].quantity */\n      0x02\n      add\n        /* \"contracts/manager/FoodManager.sol\":4697:4744  foodDetailList[i].quantity = newDetail.quantity */\n      dup2\n      swap1\n      sstore\n      pop\n        /* \"contracts/manager/FoodManager.sol\":4788:4797  newDetail */\n      dup4\n        /* \"contracts/manager/FoodManager.sol\":4788:4803  newDetail.price */\n      0x40\n      add\n      mload\n        /* \"contracts/manager/FoodManager.sol\":4762:4776  foodDetailList */\n      dup4\n        /* \"contracts/manager/FoodManager.sol\":4777:4778  i */\n      dup3\n        /* \"contracts/manager/FoodManager.sol\":4762:4779  foodDetailList[i] */\n      dup2\n      sload\n      dup2\n      lt\n      tag_360\n      jumpi\n      tag_361\n      tag_108\n      jump\t// in\n    tag_361:\n    tag_360:\n      swap1\n      0x00\n      mstore\n      keccak256(0x00, 0x20)\n      swap1\n      0x04\n      mul\n      add\n        /* \"contracts/manager/FoodManager.sol\":4762:4785  foodDetailList[i].price */\n      0x03\n      add\n        /* \"contracts/manager/FoodManager.sol\":4762:4803  foodDetailList[i].price = newDetail.price */\n      dup2\n      swap1\n      sstore\n      pop\n        /* \"contracts/manager/FoodManager.sol\":4829:4833  true */\n      0x01\n        /* \"contracts/manager/FoodManager.sol\":4821:4833  found = true */\n      swap2\n      pop\n        /* \"contracts/manager/FoodManager.sol\":4856:4895  FoodDetailUpdated(foodId, foodDetailId) */\n      0xe29e1e70959f0c301943d01c4bd294592a2105bc81e9b2523c4b1d7f7d1f393f\n        /* \"contracts/manager/FoodManager.sol\":4874:4880  foodId */\n      dup7\n        /* \"contracts/manager/FoodManager.sol\":4882:4894  foodDetailId */\n      dup7\n        /* \"contracts/manager/FoodManager.sol\":4856:4895  FoodDetailUpdated(foodId, foodDetailId) */\n      mload(0x40)\n      tag_363\n      swap3\n      swap2\n      swap1\n      tag_199\n      jump\t// in\n    tag_363:\n      mload(0x40)\n      dup1\n      swap2\n      sub\n      swap1\n      log1\n        /* \"contracts/manager/FoodManager.sol\":4913:4918  break */\n      jump(tag_347)\n        /* \"contracts/manager/FoodManager.sol\":4570:4933  if (foodDetailList[i].foodDetailId == foodDetailId) {... */\n    tag_352:\n        /* \"contracts/manager/FoodManager.sol\":4551:4554  i++ */\n      dup1\n      dup1\n      0x01\n      add\n      swap2\n      pop\n      pop\n        /* \"contracts/manager/FoodManager.sol\":4504:4943  for (uint256 i = 0; i < foodDetailList.length; i++) {... */\n      jump(tag_346)\n    tag_347:\n      pop\n        /* \"contracts/manager/FoodManager.sol\":4960:4965  found */\n      dup1\n        /* \"contracts/manager/FoodManager.sol\":4952:4995  require(found, \"FoodDetail does not exist\") */\n      tag_364\n      jumpi\n      mload(0x40)\n      0x08c379a000000000000000000000000000000000000000000000000000000000\n      dup2\n      mstore\n      0x04\n      add\n      tag_365\n      swap1\n      tag_202\n      jump\t// in\n    tag_365:\n      mload(0x40)\n      dup1\n      swap2\n      sub\n      swap1\n      revert\n    tag_364:\n        /* \"contracts/manager/FoodManager.sol\":4332:5002  {... */\n      pop\n      pop\n        /* \"contracts/manager/FoodManager.sol\":4185:5002  function updateFoodDetail(... */\n      pop\n      pop\n      pop\n      jump\t// out\n        /* \"contracts/manager/FoodManager.sol\":2948:3491  function deleteFood(uint256 foodId) external override {... */\n    tag_97:\n        /* \"contracts/manager/FoodManager.sol\":3044:3045  0 */\n      0x00\n        /* \"contracts/manager/FoodManager.sol\":3020:3025  foods */\n      0x05\n        /* \"contracts/manager/FoodManager.sol\":3020:3033  foods[foodId] */\n      0x00\n        /* \"contracts/manager/FoodManager.sol\":3026:3032  foodId */\n      dup4\n        /* \"contracts/manager/FoodManager.sol\":3020:3033  foods[foodId] */\n      dup2\n      mstore\n      0x20\n      add\n      swap1\n      dup2\n      mstore\n      0x20\n      add\n      0x00\n      keccak256\n        /* \"contracts/manager/FoodManager.sol\":3020:3040  foods[foodId].foodId */\n      0x00\n      add\n      sload\n        /* \"contracts/manager/FoodManager.sol\":3020:3045  foods[foodId].foodId != 0 */\n      sub\n        /* \"contracts/manager/FoodManager.sol\":3012:3069  require(foods[foodId].foodId != 0, \"Food does not exist\") */\n      tag_367\n      jumpi\n      mload(0x40)\n      0x08c379a000000000000000000000000000000000000000000000000000000000\n      dup2\n      mstore\n      0x04\n      add\n      tag_368\n      swap1\n      tag_125\n      jump\t// in\n    tag_368:\n      mload(0x40)\n      dup1\n      swap2\n      sub\n      swap1\n      revert\n    tag_367:\n        /* \"contracts/manager/FoodManager.sol\":3086:3091  foods */\n      0x05\n        /* \"contracts/manager/FoodManager.sol\":3086:3099  foods[foodId] */\n      0x00\n        /* \"contracts/manager/FoodManager.sol\":3092:3098  foodId */\n      dup3\n        /* \"contracts/manager/FoodManager.sol\":3086:3099  foods[foodId] */\n      dup2\n      mstore\n      0x20\n      add\n      swap1\n      dup2\n      mstore\n      0x20\n      add\n      0x00\n      keccak256\n      0x00\n        /* \"contracts/manager/FoodManager.sol\":3079:3099  delete foods[foodId] */\n      0x00\n      dup3\n      add\n      0x00\n      swap1\n      sstore\n      0x01\n      dup3\n      add\n      0x00\n      tag_369\n      swap2\n      swap1\n      tag_197\n      jump\t// in\n    tag_369:\n      0x02\n      dup3\n      add\n      0x00\n      tag_370\n      swap2\n      swap1\n      tag_197\n      jump\t// in\n    tag_370:\n      0x03\n      dup3\n      add\n      0x00\n      swap1\n      sstore\n      0x04\n      dup3\n      add\n      0x00\n      tag_371\n      swap2\n      swap1\n      tag_372\n      jump\t// in\n    tag_371:\n      0x05\n      dup3\n      add\n      0x00\n      swap1\n      sstore\n      0x06\n      dup3\n      add\n      0x00\n      swap1\n      sstore\n      pop\n      pop\n        /* \"contracts/manager/FoodManager.sol\":3163:3174  foodDetails */\n      0x06\n        /* \"contracts/manager/FoodManager.sol\":3163:3182  foodDetails[foodId] */\n      0x00\n        /* \"contracts/manager/FoodManager.sol\":3175:3181  foodId */\n      dup3\n        /* \"contracts/manager/FoodManager.sol\":3163:3182  foodDetails[foodId] */\n      dup2\n      mstore\n      0x20\n      add\n      swap1\n      dup2\n      mstore\n      0x20\n      add\n      0x00\n      keccak256\n      0x00\n        /* \"contracts/manager/FoodManager.sol\":3156:3182  delete foodDetails[foodId] */\n      tag_373\n      swap2\n      swap1\n      tag_374\n      jump\t// in\n    tag_373:\n        /* \"contracts/manager/FoodManager.sol\":3234:3243  uint256 i */\n      0x00\n        /* \"contracts/manager/FoodManager.sol\":3246:3247  0 */\n      0x00\n        /* \"contracts/manager/FoodManager.sol\":3234:3247  uint256 i = 0 */\n      swap1\n      pop\n        /* \"contracts/manager/FoodManager.sol\":3229:3451  for (uint256 i = 0; i < foodIds.length; i++) {... */\n    tag_375:\n        /* \"contracts/manager/FoodManager.sol\":3253:3260  foodIds */\n      0x07\n        /* \"contracts/manager/FoodManager.sol\":3253:3267  foodIds.length */\n      dup1\n      sload\n      swap1\n      pop\n        /* \"contracts/manager/FoodManager.sol\":3249:3250  i */\n      dup2\n        /* \"contracts/manager/FoodManager.sol\":3249:3267  i < foodIds.length */\n      lt\n        /* \"contracts/manager/FoodManager.sol\":3229:3451  for (uint256 i = 0; i < foodIds.length; i++) {... */\n      iszero\n      tag_376\n      jumpi\n        /* \"contracts/manager/FoodManager.sol\":3306:3312  foodId */\n      dup2\n        /* \"contracts/manager/FoodManager.sol\":3292:3299  foodIds */\n      0x07\n        /* \"contracts/manager/FoodManager.sol\":3300:3301  i */\n      dup3\n        /* \"contracts/manager/FoodManager.sol\":3292:3302  foodIds[i] */\n      dup2\n      sload\n      dup2\n      lt\n      tag_378\n      jumpi\n      tag_379\n      tag_108\n      jump\t// in\n    tag_379:\n    tag_378:\n      swap1\n      0x00\n      mstore\n      keccak256(0x00, 0x20)\n      add\n      sload\n        /* \"contracts/manager/FoodManager.sol\":3292:3312  foodIds[i] == foodId */\n      sub\n        /* \"contracts/manager/FoodManager.sol\":3288:3441  if (foodIds[i] == foodId) {... */\n      tag_381\n      jumpi\n        /* \"contracts/manager/FoodManager.sol\":3345:3352  foodIds */\n      0x07\n        /* \"contracts/manager/FoodManager.sol\":3370:3371  1 */\n      0x01\n        /* \"contracts/manager/FoodManager.sol\":3353:3360  foodIds */\n      0x07\n        /* \"contracts/manager/FoodManager.sol\":3353:3367  foodIds.length */\n      dup1\n      sload\n      swap1\n      pop\n        /* \"contracts/manager/FoodManager.sol\":3353:3371  foodIds.length - 1 */\n      tag_382\n      swap2\n      swap1\n      tag_178\n      jump\t// in\n    tag_382:\n        /* \"contracts/manager/FoodManager.sol\":3345:3372  foodIds[foodIds.length - 1] */\n      dup2\n      sload\n      dup2\n      lt\n      tag_383\n      jumpi\n      tag_384\n      tag_108\n      jump\t// in\n    tag_384:\n    tag_383:\n      swap1\n      0x00\n      mstore\n      keccak256(0x00, 0x20)\n      add\n      sload\n        /* \"contracts/manager/FoodManager.sol\":3332:3339  foodIds */\n      0x07\n        /* \"contracts/manager/FoodManager.sol\":3340:3341  i */\n      dup3\n        /* \"contracts/manager/FoodManager.sol\":3332:3342  foodIds[i] */\n      dup2\n      sload\n      dup2\n      lt\n      tag_386\n      jumpi\n      tag_387\n      tag_108\n      jump\t// in\n    tag_387:\n    tag_386:\n      swap1\n      0x00\n      mstore\n      keccak256(0x00, 0x20)\n      add\n        /* \"contracts/manager/FoodManager.sol\":3332:3372  foodIds[i] = foodIds[foodIds.length - 1] */\n      dup2\n      swap1\n      sstore\n      pop\n        /* \"contracts/manager/FoodManager.sol\":3390:3397  foodIds */\n      0x07\n        /* \"contracts/manager/FoodManager.sol\":3390:3403  foodIds.pop() */\n      dup1\n      sload\n      dup1\n      tag_389\n      jumpi\n      tag_390\n      tag_194\n      jump\t// in\n    tag_390:\n    tag_389:\n      0x01\n      swap1\n      sub\n      dup2\n      dup2\n      swap1\n      0x00\n      mstore\n      keccak256(0x00, 0x20)\n      add\n      0x00\n      swap1\n      sstore\n      swap1\n      sstore\n        /* \"contracts/manager/FoodManager.sol\":3421:3426  break */\n      jump(tag_376)\n        /* \"contracts/manager/FoodManager.sol\":3288:3441  if (foodIds[i] == foodId) {... */\n    tag_381:\n        /* \"contracts/manager/FoodManager.sol\":3269:3272  i++ */\n      dup1\n      dup1\n      0x01\n      add\n      swap2\n      pop\n      pop\n        /* \"contracts/manager/FoodManager.sol\":3229:3451  for (uint256 i = 0; i < foodIds.length; i++) {... */\n      jump(tag_375)\n    tag_376:\n      pop\n        /* \"contracts/manager/FoodManager.sol\":3465:3484  FoodDeleted(foodId) */\n      0x4d4e7c43d5805933523b1317fdd5acb7517962d3e9f52834633b9f0149477295\n        /* \"contracts/manager/FoodManager.sol\":3477:3483  foodId */\n      dup2\n        /* \"contracts/manager/FoodManager.sol\":3465:3484  FoodDeleted(foodId) */\n      mload(0x40)\n      tag_392\n      swap2\n      swap1\n      tag_36\n      jump\t// in\n    tag_392:\n      mload(0x40)\n      dup1\n      swap2\n      sub\n      swap1\n      log1\n        /* \"contracts/manager/FoodManager.sol\":2948:3491  function deleteFood(uint256 foodId) external override {... */\n      pop\n      jump\t// out\n        /* \"contracts/manager/FoodManager.sol\":271:310  ICategoryManager public categoryManager */\n    tag_99:\n      0x02\n      0x00\n      swap1\n      sload\n      swap1\n      0x0100\n      exp\n      swap1\n      div\n      0xffffffffffffffffffffffffffffffffffffffff\n      and\n      dup2\n      jump\t// out\n    tag_121:\n      mload(0x40)\n      dup1\n      0xe0\n      add\n      0x40\n      mstore\n      dup1\n      0x00\n      dup2\n      mstore\n      0x20\n      add\n      0x60\n      dup2\n      mstore\n      0x20\n      add\n      0x60\n      dup2\n      mstore\n      0x20\n      add\n      0x00\n      dup2\n      mstore\n      0x20\n      add\n      0x60\n      dup2\n      mstore\n      0x20\n      add\n      0x00\n      dup2\n      mstore\n      0x20\n      add\n      0x00\n      dup2\n      mstore\n      pop\n      swap1\n      jump\t// out\n    tag_146:\n      mload(0x40)\n      dup1\n      0x80\n      add\n      0x40\n      mstore\n      dup1\n      0x00\n      dup2\n      mstore\n      0x20\n      add\n      0x60\n      dup2\n      mstore\n      0x20\n      add\n      0x00\n      dup2\n      mstore\n      0x20\n      add\n      0x00\n      dup2\n      mstore\n      pop\n      swap1\n      jump\t// out\n    tag_197:\n      pop\n      dup1\n      sload\n      tag_393\n      swap1\n      tag_127\n      jump\t// in\n    tag_393:\n      0x00\n      dup3\n      sstore\n      dup1\n      0x1f\n      lt\n      tag_395\n      jumpi\n      pop\n      jump(tag_394)\n    tag_395:\n      0x1f\n      add\n      0x20\n      swap1\n      div\n      swap1\n      0x00\n      mstore\n      keccak256(0x00, 0x20)\n      swap1\n      dup2\n      add\n      swap1\n      tag_396\n      swap2\n      swap1\n      tag_397\n      jump\t// in\n    tag_396:\n    tag_394:\n      pop\n      jump\t// out\n    tag_234:\n      dup3\n      dup1\n      sload\n      dup3\n      dup3\n      sstore\n      swap1\n      0x00\n      mstore\n      keccak256(0x00, 0x20)\n      swap1\n      dup2\n      add\n      swap3\n      dup3\n      iszero\n      tag_398\n      jumpi\n      swap2\n      0x20\n      mul\n      dup3\n      add\n    tag_399:\n      dup3\n      dup2\n      gt\n      iszero\n      tag_400\n      jumpi\n      dup3\n      mload\n      dup3\n      swap1\n      dup2\n      tag_401\n      swap2\n      swap1\n      tag_191\n      jump\t// in\n    tag_401:\n      pop\n      swap2\n      0x20\n      add\n      swap2\n      swap1\n      0x01\n      add\n      swap1\n      jump(tag_399)\n    tag_400:\n    tag_398:\n      pop\n      swap1\n      pop\n      tag_402\n      swap2\n      swap1\n      tag_403\n      jump\t// in\n    tag_402:\n      pop\n      swap1\n      jump\t// out\n    tag_308:\n      mload(0x40)\n      dup1\n      0x40\n      add\n      0x40\n      mstore\n      dup1\n      tag_404\n      tag_121\n      jump\t// in\n    tag_404:\n      dup2\n      mstore\n      0x20\n      add\n      0x60\n      dup2\n      mstore\n      pop\n      swap1\n      jump\t// out\n    tag_372:\n      pop\n      dup1\n      sload\n      0x00\n      dup3\n      sstore\n      swap1\n      0x00\n      mstore\n      keccak256(0x00, 0x20)\n      swap1\n      dup2\n      add\n      swap1\n      tag_406\n      swap2\n      swap1\n      tag_403\n      jump\t// in\n    tag_406:\n      pop\n      jump\t// out\n    tag_374:\n      pop\n      dup1\n      sload\n      0x00\n      dup3\n      sstore\n      0x04\n      mul\n      swap1\n      0x00\n      mstore\n      keccak256(0x00, 0x20)\n      swap1\n      dup2\n      add\n      swap1\n      tag_408\n      swap2\n      swap1\n      tag_409\n      jump\t// in\n    tag_408:\n      pop\n      jump\t// out\n    tag_397:\n    tag_410:\n      dup1\n      dup3\n      gt\n      iszero\n      tag_411\n      jumpi\n      0x00\n      dup2\n      0x00\n      swap1\n      sstore\n      pop\n      0x01\n      add\n      jump(tag_410)\n    tag_411:\n      pop\n      swap1\n      jump\t// out\n    tag_403:\n    tag_412:\n      dup1\n      dup3\n      gt\n      iszero\n      tag_413\n      jumpi\n      0x00\n      dup2\n      dup2\n      tag_414\n      swap2\n      swap1\n      tag_197\n      jump\t// in\n    tag_414:\n      pop\n      0x01\n      add\n      jump(tag_412)\n    tag_413:\n      pop\n      swap1\n      jump\t// out\n    tag_409:\n    tag_415:\n      dup1\n      dup3\n      gt\n      iszero\n      tag_416\n      jumpi\n      0x00\n      0x00\n      dup3\n      add\n      0x00\n      swap1\n      sstore\n      0x01\n      dup3\n      add\n      0x00\n      tag_417\n      swap2\n      swap1\n      tag_197\n      jump\t// in\n    tag_417:\n      0x02\n      dup3\n      add\n      0x00\n      swap1\n      sstore\n      0x03\n      dup3\n      add\n      0x00\n      swap1\n      sstore\n      pop\n      0x04\n      add\n      jump(tag_415)\n    tag_416:\n      pop\n      swap1\n      jump\t// out\n        /* \"#utility.yul\":7:82   */\n    tag_418:\n        /* \"#utility.yul\":40:46   */\n      0x00\n        /* \"#utility.yul\":73:75   */\n      0x40\n        /* \"#utility.yul\":67:76   */\n      mload\n        /* \"#utility.yul\":57:76   */\n      swap1\n      pop\n        /* \"#utility.yul\":7:82   */\n      swap1\n      jump\t// out\n        /* \"#utility.yul\":88:205   */\n    tag_419:\n        /* \"#utility.yul\":197:198   */\n      0x00\n        /* \"#utility.yul\":194:195   */\n      0x00\n        /* \"#utility.yul\":187:199   */\n      revert\n        /* \"#utility.yul\":211:328   */\n    tag_420:\n        /* \"#utility.yul\":320:321   */\n      0x00\n        /* \"#utility.yul\":317:318   */\n      0x00\n        /* \"#utility.yul\":310:322   */\n      revert\n        /* \"#utility.yul\":334:411   */\n    tag_421:\n        /* \"#utility.yul\":371:378   */\n      0x00\n        /* \"#utility.yul\":400:405   */\n      dup2\n        /* \"#utility.yul\":389:405   */\n      swap1\n      pop\n        /* \"#utility.yul\":334:411   */\n      swap2\n      swap1\n      pop\n      jump\t// out\n        /* \"#utility.yul\":417:539   */\n    tag_422:\n        /* \"#utility.yul\":490:514   */\n      tag_530\n        /* \"#utility.yul\":508:513   */\n      dup2\n        /* \"#utility.yul\":490:514   */\n      tag_421\n      jump\t// in\n    tag_530:\n        /* \"#utility.yul\":483:488   */\n      dup2\n        /* \"#utility.yul\":480:515   */\n      eq\n        /* \"#utility.yul\":470:533   */\n      tag_531\n      jumpi\n        /* \"#utility.yul\":529:530   */\n      0x00\n        /* \"#utility.yul\":526:527   */\n      0x00\n        /* \"#utility.yul\":519:531   */\n      revert\n        /* \"#utility.yul\":470:533   */\n    tag_531:\n        /* \"#utility.yul\":417:539   */\n      pop\n      jump\t// out\n        /* \"#utility.yul\":545:684   */\n    tag_423:\n        /* \"#utility.yul\":591:596   */\n      0x00\n        /* \"#utility.yul\":629:635   */\n      dup2\n        /* \"#utility.yul\":616:636   */\n      calldataload\n        /* \"#utility.yul\":607:636   */\n      swap1\n      pop\n        /* \"#utility.yul\":645:678   */\n      tag_533\n        /* \"#utility.yul\":672:677   */\n      dup2\n        /* \"#utility.yul\":645:678   */\n      tag_422\n      jump\t// in\n    tag_533:\n        /* \"#utility.yul\":545:684   */\n      swap3\n      swap2\n      pop\n      pop\n      jump\t// out\n        /* \"#utility.yul\":690:1309   */\n    tag_27:\n        /* \"#utility.yul\":767:773   */\n      0x00\n        /* \"#utility.yul\":775:781   */\n      0x00\n        /* \"#utility.yul\":783:789   */\n      0x00\n        /* \"#utility.yul\":832:834   */\n      0x60\n        /* \"#utility.yul\":820:829   */\n      dup5\n        /* \"#utility.yul\":811:818   */\n      dup7\n        /* \"#utility.yul\":807:830   */\n      sub\n        /* \"#utility.yul\":803:835   */\n      slt\n        /* \"#utility.yul\":800:919   */\n      iszero\n      tag_535\n      jumpi\n        /* \"#utility.yul\":838:917   */\n      tag_536\n      tag_419\n      jump\t// in\n    tag_536:\n        /* \"#utility.yul\":800:919   */\n    tag_535:\n        /* \"#utility.yul\":958:959   */\n      0x00\n        /* \"#utility.yul\":983:1036   */\n      tag_537\n        /* \"#utility.yul\":1028:1035   */\n      dup7\n        /* \"#utility.yul\":1019:1025   */\n      dup3\n        /* \"#utility.yul\":1008:1017   */\n      dup8\n        /* \"#utility.yul\":1004:1026   */\n      add\n        /* \"#utility.yul\":983:1036   */\n      tag_423\n      jump\t// in\n    tag_537:\n        /* \"#utility.yul\":973:1036   */\n      swap4\n      pop\n        /* \"#utility.yul\":929:1046   */\n      pop\n        /* \"#utility.yul\":1085:1087   */\n      0x20\n        /* \"#utility.yul\":1111:1164   */\n      tag_538\n        /* \"#utility.yul\":1156:1163   */\n      dup7\n        /* \"#utility.yul\":1147:1153   */\n      dup3\n        /* \"#utility.yul\":1136:1145   */\n      dup8\n        /* \"#utility.yul\":1132:1154   */\n      add\n        /* \"#utility.yul\":1111:1164   */\n      tag_423\n      jump\t// in\n    tag_538:\n        /* \"#utility.yul\":1101:1164   */\n      swap3\n      pop\n        /* \"#utility.yul\":1056:1174   */\n      pop\n        /* \"#utility.yul\":1213:1215   */\n      0x40\n        /* \"#utility.yul\":1239:1292   */\n      tag_539\n        /* \"#utility.yul\":1284:1291   */\n      dup7\n        /* \"#utility.yul\":1275:1281   */\n      dup3\n        /* \"#utility.yul\":1264:1273   */\n      dup8\n        /* \"#utility.yul\":1260:1282   */\n      add\n        /* \"#utility.yul\":1239:1292   */\n      tag_423\n      jump\t// in\n    tag_539:\n        /* \"#utility.yul\":1229:1292   */\n      swap2\n      pop\n        /* \"#utility.yul\":1184:1302   */\n      pop\n        /* \"#utility.yul\":690:1309   */\n      swap3\n      pop\n      swap3\n      pop\n      swap3\n      jump\t// out\n        /* \"#utility.yul\":1315:1441   */\n    tag_424:\n        /* \"#utility.yul\":1352:1359   */\n      0x00\n        /* \"#utility.yul\":1392:1434   */\n      0xffffffffffffffffffffffffffffffffffffffff\n        /* \"#utility.yul\":1385:1390   */\n      dup3\n        /* \"#utility.yul\":1381:1435   */\n      and\n        /* \"#utility.yul\":1370:1435   */\n      swap1\n      pop\n        /* \"#utility.yul\":1315:1441   */\n      swap2\n      swap1\n      pop\n      jump\t// out\n        /* \"#utility.yul\":1447:1543   */\n    tag_425:\n        /* \"#utility.yul\":1484:1491   */\n      0x00\n        /* \"#utility.yul\":1513:1537   */\n      tag_542\n        /* \"#utility.yul\":1531:1536   */\n      dup3\n        /* \"#utility.yul\":1513:1537   */\n      tag_424\n      jump\t// in\n    tag_542:\n        /* \"#utility.yul\":1502:1537   */\n      swap1\n      pop\n        /* \"#utility.yul\":1447:1543   */\n      swap2\n      swap1\n      pop\n      jump\t// out\n        /* \"#utility.yul\":1549:1671   */\n    tag_426:\n        /* \"#utility.yul\":1622:1646   */\n      tag_544\n        /* \"#utility.yul\":1640:1645   */\n      dup2\n        /* \"#utility.yul\":1622:1646   */\n      tag_425\n      jump\t// in\n    tag_544:\n        /* \"#utility.yul\":1615:1620   */\n      dup2\n        /* \"#utility.yul\":1612:1647   */\n      eq\n        /* \"#utility.yul\":1602:1665   */\n      tag_545\n      jumpi\n        /* \"#utility.yul\":1661:1662   */\n      0x00\n        /* \"#utility.yul\":1658:1659   */\n      0x00\n        /* \"#utility.yul\":1651:1663   */\n      revert\n        /* \"#utility.yul\":1602:1665   */\n    tag_545:\n        /* \"#utility.yul\":1549:1671   */\n      pop\n      jump\t// out\n        /* \"#utility.yul\":1677:1816   */\n    tag_427:\n        /* \"#utility.yul\":1723:1728   */\n      0x00\n        /* \"#utility.yul\":1761:1767   */\n      dup2\n        /* \"#utility.yul\":1748:1768   */\n      calldataload\n        /* \"#utility.yul\":1739:1768   */\n      swap1\n      pop\n        /* \"#utility.yul\":1777:1810   */\n      tag_547\n        /* \"#utility.yul\":1804:1809   */\n      dup2\n        /* \"#utility.yul\":1777:1810   */\n      tag_426\n      jump\t// in\n    tag_547:\n        /* \"#utility.yul\":1677:1816   */\n      swap3\n      swap2\n      pop\n      pop\n      jump\t// out\n        /* \"#utility.yul\":1822:2151   */\n    tag_31:\n        /* \"#utility.yul\":1881:1887   */\n      0x00\n        /* \"#utility.yul\":1930:1932   */\n      0x20\n        /* \"#utility.yul\":1918:1927   */\n      dup3\n        /* \"#utility.yul\":1909:1916   */\n      dup5\n        /* \"#utility.yul\":1905:1928   */\n      sub\n        /* \"#utility.yul\":1901:1933   */\n      slt\n        /* \"#utility.yul\":1898:2017   */\n      iszero\n      tag_549\n      jumpi\n        /* \"#utility.yul\":1936:2015   */\n      tag_550\n      tag_419\n      jump\t// in\n    tag_550:\n        /* \"#utility.yul\":1898:2017   */\n    tag_549:\n        /* \"#utility.yul\":2056:2057   */\n      0x00\n        /* \"#utility.yul\":2081:2134   */\n      tag_551\n        /* \"#utility.yul\":2126:2133   */\n      dup5\n        /* \"#utility.yul\":2117:2123   */\n      dup3\n        /* \"#utility.yul\":2106:2115   */\n      dup6\n        /* \"#utility.yul\":2102:2124   */\n      add\n        /* \"#utility.yul\":2081:2134   */\n      tag_427\n      jump\t// in\n    tag_551:\n        /* \"#utility.yul\":2071:2134   */\n      swap2\n      pop\n        /* \"#utility.yul\":2027:2144   */\n      pop\n        /* \"#utility.yul\":1822:2151   */\n      swap3\n      swap2\n      pop\n      pop\n      jump\t// out\n        /* \"#utility.yul\":2157:2275   */\n    tag_428:\n        /* \"#utility.yul\":2244:2268   */\n      tag_553\n        /* \"#utility.yul\":2262:2267   */\n      dup2\n        /* \"#utility.yul\":2244:2268   */\n      tag_421\n      jump\t// in\n    tag_553:\n        /* \"#utility.yul\":2239:2242   */\n      dup3\n        /* \"#utility.yul\":2232:2269   */\n      mstore\n        /* \"#utility.yul\":2157:2275   */\n      pop\n      pop\n      jump\t// out\n        /* \"#utility.yul\":2281:2503   */\n    tag_36:\n        /* \"#utility.yul\":2374:2378   */\n      0x00\n        /* \"#utility.yul\":2412:2414   */\n      0x20\n        /* \"#utility.yul\":2401:2410   */\n      dup3\n        /* \"#utility.yul\":2397:2415   */\n      add\n        /* \"#utility.yul\":2389:2415   */\n      swap1\n      pop\n        /* \"#utility.yul\":2425:2496   */\n      tag_555\n        /* \"#utility.yul\":2493:2494   */\n      0x00\n        /* \"#utility.yul\":2482:2491   */\n      dup4\n        /* \"#utility.yul\":2478:2495   */\n      add\n        /* \"#utility.yul\":2469:2475   */\n      dup5\n        /* \"#utility.yul\":2425:2496   */\n      tag_428\n      jump\t// in\n    tag_555:\n        /* \"#utility.yul\":2281:2503   */\n      swap3\n      swap2\n      pop\n      pop\n      jump\t// out\n        /* \"#utility.yul\":2509:2838   */\n    tag_42:\n        /* \"#utility.yul\":2568:2574   */\n      0x00\n        /* \"#utility.yul\":2617:2619   */\n      0x20\n        /* \"#utility.yul\":2605:2614   */\n      dup3\n        /* \"#utility.yul\":2596:2603   */\n      dup5\n        /* \"#utility.yul\":2592:2615   */\n      sub\n        /* \"#utility.yul\":2588:2620   */\n      slt\n        /* \"#utility.yul\":2585:2704   */\n      iszero\n      tag_557\n      jumpi\n        /* \"#utility.yul\":2623:2702   */\n      tag_558\n      tag_419\n      jump\t// in\n    tag_558:\n        /* \"#utility.yul\":2585:2704   */\n    tag_557:\n        /* \"#utility.yul\":2743:2744   */\n      0x00\n        /* \"#utility.yul\":2768:2821   */\n      tag_559\n        /* \"#utility.yul\":2813:2820   */\n      dup5\n        /* \"#utility.yul\":2804:2810   */\n      dup3\n        /* \"#utility.yul\":2793:2802   */\n      dup6\n        /* \"#utility.yul\":2789:2811   */\n      add\n        /* \"#utility.yul\":2768:2821   */\n      tag_423\n      jump\t// in\n    tag_559:\n        /* \"#utility.yul\":2758:2821   */\n      swap2\n      pop\n        /* \"#utility.yul\":2714:2831   */\n      pop\n        /* \"#utility.yul\":2509:2838   */\n      swap3\n      swap2\n      pop\n      pop\n      jump\t// out\n        /* \"#utility.yul\":2844:2952   */\n    tag_429:\n        /* \"#utility.yul\":2921:2945   */\n      tag_561\n        /* \"#utility.yul\":2939:2944   */\n      dup2\n        /* \"#utility.yul\":2921:2945   */\n      tag_421\n      jump\t// in\n    tag_561:\n        /* \"#utility.yul\":2916:2919   */\n      dup3\n        /* \"#utility.yul\":2909:2946   */\n      mstore\n        /* \"#utility.yul\":2844:2952   */\n      pop\n      pop\n      jump\t// out\n        /* \"#utility.yul\":2958:3057   */\n    tag_430:\n        /* \"#utility.yul\":3010:3016   */\n      0x00\n        /* \"#utility.yul\":3044:3049   */\n      dup2\n        /* \"#utility.yul\":3038:3050   */\n      mload\n        /* \"#utility.yul\":3028:3050   */\n      swap1\n      pop\n        /* \"#utility.yul\":2958:3057   */\n      swap2\n      swap1\n      pop\n      jump\t// out\n        /* \"#utility.yul\":3063:3222   */\n    tag_431:\n        /* \"#utility.yul\":3137:3148   */\n      0x00\n        /* \"#utility.yul\":3171:3177   */\n      dup3\n        /* \"#utility.yul\":3166:3169   */\n      dup3\n        /* \"#utility.yul\":3159:3178   */\n      mstore\n        /* \"#utility.yul\":3211:3215   */\n      0x20\n        /* \"#utility.yul\":3206:3209   */\n      dup3\n        /* \"#utility.yul\":3202:3216   */\n      add\n        /* \"#utility.yul\":3187:3216   */\n      swap1\n      pop\n        /* \"#utility.yul\":3063:3222   */\n      swap3\n      swap2\n      pop\n      pop\n      jump\t// out\n        /* \"#utility.yul\":3228:3367   */\n    tag_432:\n        /* \"#utility.yul\":3317:3323   */\n      dup3\n        /* \"#utility.yul\":3312:3315   */\n      dup2\n        /* \"#utility.yul\":3307:3310   */\n      dup4\n        /* \"#utility.yul\":3301:3324   */\n      mcopy\n        /* \"#utility.yul\":3358:3359   */\n      0x00\n        /* \"#utility.yul\":3349:3355   */\n      dup4\n        /* \"#utility.yul\":3344:3347   */\n      dup4\n        /* \"#utility.yul\":3340:3356   */\n      add\n        /* \"#utility.yul\":3333:3360   */\n      mstore\n        /* \"#utility.yul\":3228:3367   */\n      pop\n      pop\n      pop\n      jump\t// out\n        /* \"#utility.yul\":3373:3475   */\n    tag_433:\n        /* \"#utility.yul\":3414:3420   */\n      0x00\n        /* \"#utility.yul\":3465:3467   */\n      0x1f\n        /* \"#utility.yul\":3461:3468   */\n      not\n        /* \"#utility.yul\":3456:3458   */\n      0x1f\n        /* \"#utility.yul\":3449:3454   */\n      dup4\n        /* \"#utility.yul\":3445:3459   */\n      add\n        /* \"#utility.yul\":3441:3469   */\n      and\n        /* \"#utility.yul\":3431:3469   */\n      swap1\n      pop\n        /* \"#utility.yul\":3373:3475   */\n      swap2\n      swap1\n      pop\n      jump\t// out\n        /* \"#utility.yul\":3481:3838   */\n    tag_434:\n        /* \"#utility.yul\":3559:3562   */\n      0x00\n        /* \"#utility.yul\":3587:3626   */\n      tag_567\n        /* \"#utility.yul\":3620:3625   */\n      dup3\n        /* \"#utility.yul\":3587:3626   */\n      tag_430\n      jump\t// in\n    tag_567:\n        /* \"#utility.yul\":3642:3703   */\n      tag_568\n        /* \"#utility.yul\":3696:3702   */\n      dup2\n        /* \"#utility.yul\":3691:3694   */\n      dup6\n        /* \"#utility.yul\":3642:3703   */\n      tag_431\n      jump\t// in\n    tag_568:\n        /* \"#utility.yul\":3635:3703   */\n      swap4\n      pop\n        /* \"#utility.yul\":3712:3777   */\n      tag_569\n        /* \"#utility.yul\":3770:3776   */\n      dup2\n        /* \"#utility.yul\":3765:3768   */\n      dup6\n        /* \"#utility.yul\":3758:3762   */\n      0x20\n        /* \"#utility.yul\":3751:3756   */\n      dup7\n        /* \"#utility.yul\":3747:3763   */\n      add\n        /* \"#utility.yul\":3712:3777   */\n      tag_432\n      jump\t// in\n    tag_569:\n        /* \"#utility.yul\":3802:3831   */\n      tag_570\n        /* \"#utility.yul\":3824:3830   */\n      dup2\n        /* \"#utility.yul\":3802:3831   */\n      tag_433\n      jump\t// in\n    tag_570:\n        /* \"#utility.yul\":3797:3800   */\n      dup5\n        /* \"#utility.yul\":3793:3832   */\n      add\n        /* \"#utility.yul\":3786:3832   */\n      swap2\n      pop\n        /* \"#utility.yul\":3563:3838   */\n      pop\n        /* \"#utility.yul\":3481:3838   */\n      swap3\n      swap2\n      pop\n      pop\n      jump\t// out\n        /* \"#utility.yul\":3844:3968   */\n    tag_435:\n        /* \"#utility.yul\":3921:3927   */\n      0x00\n        /* \"#utility.yul\":3955:3960   */\n      dup2\n        /* \"#utility.yul\":3949:3961   */\n      mload\n        /* \"#utility.yul\":3939:3961   */\n      swap1\n      pop\n        /* \"#utility.yul\":3844:3968   */\n      swap2\n      swap1\n      pop\n      jump\t// out\n        /* \"#utility.yul\":3974:4158   */\n    tag_436:\n        /* \"#utility.yul\":4073:4084   */\n      0x00\n        /* \"#utility.yul\":4107:4113   */\n      dup3\n        /* \"#utility.yul\":4102:4105   */\n      dup3\n        /* \"#utility.yul\":4095:4114   */\n      mstore\n        /* \"#utility.yul\":4147:4151   */\n      0x20\n        /* \"#utility.yul\":4142:4145   */\n      dup3\n        /* \"#utility.yul\":4138:4152   */\n      add\n        /* \"#utility.yul\":4123:4152   */\n      swap1\n      pop\n        /* \"#utility.yul\":3974:4158   */\n      swap3\n      swap2\n      pop\n      pop\n      jump\t// out\n        /* \"#utility.yul\":4164:4306   */\n    tag_437:\n        /* \"#utility.yul\":4241:4245   */\n      0x00\n        /* \"#utility.yul\":4264:4267   */\n      dup2\n        /* \"#utility.yul\":4256:4267   */\n      swap1\n      pop\n        /* \"#utility.yul\":4294:4298   */\n      0x20\n        /* \"#utility.yul\":4289:4292   */\n      dup3\n        /* \"#utility.yul\":4285:4299   */\n      add\n        /* \"#utility.yul\":4277:4299   */\n      swap1\n      pop\n        /* \"#utility.yul\":4164:4306   */\n      swap2\n      swap1\n      pop\n      jump\t// out\n        /* \"#utility.yul\":4312:4508   */\n    tag_438:\n        /* \"#utility.yul\":4401:4411   */\n      0x00\n        /* \"#utility.yul\":4436:4502   */\n      tag_575\n        /* \"#utility.yul\":4498:4501   */\n      dup4\n        /* \"#utility.yul\":4490:4496   */\n      dup4\n        /* \"#utility.yul\":4436:4502   */\n      tag_434\n      jump\t// in\n    tag_575:\n        /* \"#utility.yul\":4422:4502   */\n      swap1\n      pop\n        /* \"#utility.yul\":4312:4508   */\n      swap3\n      swap2\n      pop\n      pop\n      jump\t// out\n        /* \"#utility.yul\":4514:4637   */\n    tag_439:\n        /* \"#utility.yul\":4594:4598   */\n      0x00\n        /* \"#utility.yul\":4626:4630   */\n      0x20\n        /* \"#utility.yul\":4621:4624   */\n      dup3\n        /* \"#utility.yul\":4617:4631   */\n      add\n        /* \"#utility.yul\":4609:4631   */\n      swap1\n      pop\n        /* \"#utility.yul\":4514:4637   */\n      swap2\n      swap1\n      pop\n      jump\t// out\n        /* \"#utility.yul\":4671:5642   */\n    tag_440:\n        /* \"#utility.yul\":4800:4803   */\n      0x00\n        /* \"#utility.yul\":4829:4893   */\n      tag_578\n        /* \"#utility.yul\":4887:4892   */\n      dup3\n        /* \"#utility.yul\":4829:4893   */\n      tag_435\n      jump\t// in\n    tag_578:\n        /* \"#utility.yul\":4909:4995   */\n      tag_579\n        /* \"#utility.yul\":4988:4994   */\n      dup2\n        /* \"#utility.yul\":4983:4986   */\n      dup6\n        /* \"#utility.yul\":4909:4995   */\n      tag_436\n      jump\t// in\n    tag_579:\n        /* \"#utility.yul\":4902:4995   */\n      swap4\n      pop\n        /* \"#utility.yul\":5021:5024   */\n      dup4\n        /* \"#utility.yul\":5066:5070   */\n      0x20\n        /* \"#utility.yul\":5058:5064   */\n      dup3\n        /* \"#utility.yul\":5054:5071   */\n      mul\n        /* \"#utility.yul\":5049:5052   */\n      dup6\n        /* \"#utility.yul\":5045:5072   */\n      add\n        /* \"#utility.yul\":5096:5162   */\n      tag_580\n        /* \"#utility.yul\":5156:5161   */\n      dup6\n        /* \"#utility.yul\":5096:5162   */\n      tag_437\n      jump\t// in\n    tag_580:\n        /* \"#utility.yul\":5185:5192   */\n      dup1\n        /* \"#utility.yul\":5216:5217   */\n      0x00\n        /* \"#utility.yul\":5201:5597   */\n    tag_581:\n        /* \"#utility.yul\":5226:5232   */\n      dup6\n        /* \"#utility.yul\":5223:5224   */\n      dup2\n        /* \"#utility.yul\":5220:5233   */\n      lt\n        /* \"#utility.yul\":5201:5597   */\n      iszero\n      tag_583\n      jumpi\n        /* \"#utility.yul\":5297:5306   */\n      dup5\n        /* \"#utility.yul\":5291:5295   */\n      dup5\n        /* \"#utility.yul\":5287:5307   */\n      sub\n        /* \"#utility.yul\":5282:5285   */\n      dup10\n        /* \"#utility.yul\":5275:5308   */\n      mstore\n        /* \"#utility.yul\":5348:5354   */\n      dup2\n        /* \"#utility.yul\":5342:5355   */\n      mload\n        /* \"#utility.yul\":5376:5460   */\n      tag_584\n        /* \"#utility.yul\":5455:5459   */\n      dup6\n        /* \"#utility.yul\":5440:5453   */\n      dup3\n        /* \"#utility.yul\":5376:5460   */\n      tag_438\n      jump\t// in\n    tag_584:\n        /* \"#utility.yul\":5368:5460   */\n      swap5\n      pop\n        /* \"#utility.yul\":5483:5553   */\n      tag_585\n        /* \"#utility.yul\":5546:5552   */\n      dup4\n        /* \"#utility.yul\":5483:5553   */\n      tag_439\n      jump\t// in\n    tag_585:\n        /* \"#utility.yul\":5473:5553   */\n      swap3\n      pop\n        /* \"#utility.yul\":5582:5586   */\n      0x20\n        /* \"#utility.yul\":5577:5580   */\n      dup11\n        /* \"#utility.yul\":5573:5587   */\n      add\n        /* \"#utility.yul\":5566:5587   */\n      swap10\n      pop\n        /* \"#utility.yul\":5261:5597   */\n      pop\n        /* \"#utility.yul\":5248:5249   */\n      0x01\n        /* \"#utility.yul\":5245:5246   */\n      dup2\n        /* \"#utility.yul\":5241:5250   */\n      add\n        /* \"#utility.yul\":5236:5250   */\n      swap1\n      pop\n        /* \"#utility.yul\":5201:5597   */\n      jump(tag_581)\n    tag_583:\n        /* \"#utility.yul\":5205:5219   */\n      pop\n        /* \"#utility.yul\":5613:5617   */\n      dup3\n        /* \"#utility.yul\":5606:5617   */\n      swap8\n      pop\n        /* \"#utility.yul\":5633:5636   */\n      dup8\n        /* \"#utility.yul\":5626:5636   */\n      swap6\n      pop\n        /* \"#utility.yul\":4805:5642   */\n      pop\n      pop\n      pop\n      pop\n      pop\n        /* \"#utility.yul\":4671:5642   */\n      swap3\n      swap2\n      pop\n      pop\n      jump\t// out\n        /* \"#utility.yul\":5682:7375   */\n    tag_441:\n        /* \"#utility.yul\":5795:5798   */\n      0x00\n        /* \"#utility.yul\":5831:5835   */\n      0xe0\n        /* \"#utility.yul\":5826:5829   */\n      dup4\n        /* \"#utility.yul\":5822:5836   */\n      add\n        /* \"#utility.yul\":5920:5924   */\n      0x00\n        /* \"#utility.yul\":5913:5918   */\n      dup4\n        /* \"#utility.yul\":5909:5925   */\n      add\n        /* \"#utility.yul\":5903:5926   */\n      mload\n        /* \"#utility.yul\":5939:6002   */\n      tag_587\n        /* \"#utility.yul\":5996:6000   */\n      0x00\n        /* \"#utility.yul\":5991:5994   */\n      dup7\n        /* \"#utility.yul\":5987:6001   */\n      add\n        /* \"#utility.yul\":5973:5985   */\n      dup3\n        /* \"#utility.yul\":5939:6002   */\n      tag_429\n      jump\t// in\n    tag_587:\n        /* \"#utility.yul\":5846:6012   */\n      pop\n        /* \"#utility.yul\":6094:6098   */\n      0x20\n        /* \"#utility.yul\":6087:6092   */\n      dup4\n        /* \"#utility.yul\":6083:6099   */\n      add\n        /* \"#utility.yul\":6077:6100   */\n      mload\n        /* \"#utility.yul\":6147:6150   */\n      dup5\n        /* \"#utility.yul\":6141:6145   */\n      dup3\n        /* \"#utility.yul\":6137:6151   */\n      sub\n        /* \"#utility.yul\":6130:6134   */\n      0x20\n        /* \"#utility.yul\":6125:6128   */\n      dup7\n        /* \"#utility.yul\":6121:6135   */\n      add\n        /* \"#utility.yul\":6114:6152   */\n      mstore\n        /* \"#utility.yul\":6173:6246   */\n      tag_588\n        /* \"#utility.yul\":6241:6245   */\n      dup3\n        /* \"#utility.yul\":6227:6239   */\n      dup3\n        /* \"#utility.yul\":6173:6246   */\n      tag_434\n      jump\t// in\n    tag_588:\n        /* \"#utility.yul\":6165:6246   */\n      swap2\n      pop\n        /* \"#utility.yul\":6022:6257   */\n      pop\n        /* \"#utility.yul\":6346:6350   */\n      0x40\n        /* \"#utility.yul\":6339:6344   */\n      dup4\n        /* \"#utility.yul\":6335:6351   */\n      add\n        /* \"#utility.yul\":6329:6352   */\n      mload\n        /* \"#utility.yul\":6399:6402   */\n      dup5\n        /* \"#utility.yul\":6393:6397   */\n      dup3\n        /* \"#utility.yul\":6389:6403   */\n      sub\n        /* \"#utility.yul\":6382:6386   */\n      0x40\n        /* \"#utility.yul\":6377:6380   */\n      dup7\n        /* \"#utility.yul\":6373:6387   */\n      add\n        /* \"#utility.yul\":6366:6404   */\n      mstore\n        /* \"#utility.yul\":6425:6498   */\n      tag_589\n        /* \"#utility.yul\":6493:6497   */\n      dup3\n        /* \"#utility.yul\":6479:6491   */\n      dup3\n        /* \"#utility.yul\":6425:6498   */\n      tag_434\n      jump\t// in\n    tag_589:\n        /* \"#utility.yul\":6417:6498   */\n      swap2\n      pop\n        /* \"#utility.yul\":6267:6509   */\n      pop\n        /* \"#utility.yul\":6597:6601   */\n      0x60\n        /* \"#utility.yul\":6590:6595   */\n      dup4\n        /* \"#utility.yul\":6586:6602   */\n      add\n        /* \"#utility.yul\":6580:6603   */\n      mload\n        /* \"#utility.yul\":6616:6679   */\n      tag_590\n        /* \"#utility.yul\":6673:6677   */\n      0x60\n        /* \"#utility.yul\":6668:6671   */\n      dup7\n        /* \"#utility.yul\":6664:6678   */\n      add\n        /* \"#utility.yul\":6650:6662   */\n      dup3\n        /* \"#utility.yul\":6616:6679   */\n      tag_429\n      jump\t// in\n    tag_590:\n        /* \"#utility.yul\":6519:6689   */\n      pop\n        /* \"#utility.yul\":6775:6779   */\n      0x80\n        /* \"#utility.yul\":6768:6773   */\n      dup4\n        /* \"#utility.yul\":6764:6780   */\n      add\n        /* \"#utility.yul\":6758:6781   */\n      mload\n        /* \"#utility.yul\":6828:6831   */\n      dup5\n        /* \"#utility.yul\":6822:6826   */\n      dup3\n        /* \"#utility.yul\":6818:6832   */\n      sub\n        /* \"#utility.yul\":6811:6815   */\n      0x80\n        /* \"#utility.yul\":6806:6809   */\n      dup7\n        /* \"#utility.yul\":6802:6816   */\n      add\n        /* \"#utility.yul\":6795:6833   */\n      mstore\n        /* \"#utility.yul\":6854:6977   */\n      tag_591\n        /* \"#utility.yul\":6972:6976   */\n      dup3\n        /* \"#utility.yul\":6958:6970   */\n      dup3\n        /* \"#utility.yul\":6854:6977   */\n      tag_440\n      jump\t// in\n    tag_591:\n        /* \"#utility.yul\":6846:6977   */\n      swap2\n      pop\n        /* \"#utility.yul\":6699:6988   */\n      pop\n        /* \"#utility.yul\":7075:7079   */\n      0xa0\n        /* \"#utility.yul\":7068:7073   */\n      dup4\n        /* \"#utility.yul\":7064:7080   */\n      add\n        /* \"#utility.yul\":7058:7081   */\n      mload\n        /* \"#utility.yul\":7094:7157   */\n      tag_592\n        /* \"#utility.yul\":7151:7155   */\n      0xa0\n        /* \"#utility.yul\":7146:7149   */\n      dup7\n        /* \"#utility.yul\":7142:7156   */\n      add\n        /* \"#utility.yul\":7128:7140   */\n      dup3\n        /* \"#utility.yul\":7094:7157   */\n      tag_429\n      jump\t// in\n    tag_592:\n        /* \"#utility.yul\":6998:7167   */\n      pop\n        /* \"#utility.yul\":7256:7260   */\n      0xc0\n        /* \"#utility.yul\":7249:7254   */\n      dup4\n        /* \"#utility.yul\":7245:7261   */\n      add\n        /* \"#utility.yul\":7239:7262   */\n      mload\n        /* \"#utility.yul\":7275:7338   */\n      tag_593\n        /* \"#utility.yul\":7332:7336   */\n      0xc0\n        /* \"#utility.yul\":7327:7330   */\n      dup7\n        /* \"#utility.yul\":7323:7337   */\n      add\n        /* \"#utility.yul\":7309:7321   */\n      dup3\n        /* \"#utility.yul\":7275:7338   */\n      tag_429\n      jump\t// in\n    tag_593:\n        /* \"#utility.yul\":7177:7348   */\n      pop\n        /* \"#utility.yul\":7365:7369   */\n      dup1\n        /* \"#utility.yul\":7358:7369   */\n      swap2\n      pop\n        /* \"#utility.yul\":5800:7375   */\n      pop\n        /* \"#utility.yul\":5682:7375   */\n      swap3\n      swap2\n      pop\n      pop\n      jump\t// out\n        /* \"#utility.yul\":7381:7742   */\n    tag_45:\n        /* \"#utility.yul\":7518:7522   */\n      0x00\n        /* \"#utility.yul\":7556:7558   */\n      0x20\n        /* \"#utility.yul\":7545:7554   */\n      dup3\n        /* \"#utility.yul\":7541:7559   */\n      add\n        /* \"#utility.yul\":7533:7559   */\n      swap1\n      pop\n        /* \"#utility.yul\":7605:7614   */\n      dup2\n        /* \"#utility.yul\":7599:7603   */\n      dup2\n        /* \"#utility.yul\":7595:7615   */\n      sub\n        /* \"#utility.yul\":7591:7592   */\n      0x00\n        /* \"#utility.yul\":7580:7589   */\n      dup4\n        /* \"#utility.yul\":7576:7593   */\n      add\n        /* \"#utility.yul\":7569:7616   */\n      mstore\n        /* \"#utility.yul\":7633:7735   */\n      tag_595\n        /* \"#utility.yul\":7730:7734   */\n      dup2\n        /* \"#utility.yul\":7721:7727   */\n      dup5\n        /* \"#utility.yul\":7633:7735   */\n      tag_441\n      jump\t// in\n    tag_595:\n        /* \"#utility.yul\":7625:7735   */\n      swap1\n      pop\n        /* \"#utility.yul\":7381:7742   */\n      swap3\n      swap2\n      pop\n      pop\n      jump\t// out\n        /* \"#utility.yul\":7748:7928   */\n    tag_119:\n        /* \"#utility.yul\":7796:7873   */\n      0x4e487b7100000000000000000000000000000000000000000000000000000000\n        /* \"#utility.yul\":7793:7794   */\n      0x00\n        /* \"#utility.yul\":7786:7874   */\n      mstore\n        /* \"#utility.yul\":7893:7897   */\n      0x21\n        /* \"#utility.yul\":7890:7891   */\n      0x04\n        /* \"#utility.yul\":7883:7898   */\n      mstore\n        /* \"#utility.yul\":7917:7921   */\n      0x24\n        /* \"#utility.yul\":7914:7915   */\n      0x00\n        /* \"#utility.yul\":7907:7922   */\n      revert\n        /* \"#utility.yul\":7934:8045   */\n    tag_442:\n        /* \"#utility.yul\":8013:8014   */\n      0x03\n        /* \"#utility.yul\":8006:8011   */\n      dup2\n        /* \"#utility.yul\":8003:8015   */\n      lt\n        /* \"#utility.yul\":7993:8039   */\n      tag_598\n      jumpi\n        /* \"#utility.yul\":8019:8037   */\n      tag_599\n      tag_119\n      jump\t// in\n    tag_599:\n        /* \"#utility.yul\":7993:8039   */\n    tag_598:\n        /* \"#utility.yul\":7934:8045   */\n      pop\n      jump\t// out\n        /* \"#utility.yul\":8051:8174   */\n    tag_443:\n        /* \"#utility.yul\":8094:8101   */\n      0x00\n        /* \"#utility.yul\":8123:8128   */\n      dup2\n        /* \"#utility.yul\":8112:8128   */\n      swap1\n      pop\n        /* \"#utility.yul\":8129:8168   */\n      tag_601\n        /* \"#utility.yul\":8162:8167   */\n      dup3\n        /* \"#utility.yul\":8129:8168   */\n      tag_442\n      jump\t// in\n    tag_601:\n        /* \"#utility.yul\":8051:8174   */\n      swap2\n      swap1\n      pop\n      jump\t// out\n        /* \"#utility.yul\":8180:8303   */\n    tag_444:\n        /* \"#utility.yul\":8234:8243   */\n      0x00\n        /* \"#utility.yul\":8267:8297   */\n      tag_603\n        /* \"#utility.yul\":8291:8296   */\n      dup3\n        /* \"#utility.yul\":8267:8297   */\n      tag_443\n      jump\t// in\n    tag_603:\n        /* \"#utility.yul\":8254:8297   */\n      swap1\n      pop\n        /* \"#utility.yul\":8180:8303   */\n      swap2\n      swap1\n      pop\n      jump\t// out\n        /* \"#utility.yul\":8309:8448   */\n    tag_445:\n        /* \"#utility.yul\":8400:8441   */\n      tag_605\n        /* \"#utility.yul\":8435:8440   */\n      dup2\n        /* \"#utility.yul\":8400:8441   */\n      tag_444\n      jump\t// in\n    tag_605:\n        /* \"#utility.yul\":8395:8398   */\n      dup3\n        /* \"#utility.yul\":8388:8442   */\n      mstore\n        /* \"#utility.yul\":8309:8448   */\n      pop\n      pop\n      jump\t// out\n        /* \"#utility.yul\":8454:8684   */\n    tag_50:\n        /* \"#utility.yul\":8551:8555   */\n      0x00\n        /* \"#utility.yul\":8589:8591   */\n      0x20\n        /* \"#utility.yul\":8578:8587   */\n      dup3\n        /* \"#utility.yul\":8574:8592   */\n      add\n        /* \"#utility.yul\":8566:8592   */\n      swap1\n      pop\n        /* \"#utility.yul\":8602:8677   */\n      tag_607\n        /* \"#utility.yul\":8674:8675   */\n      0x00\n        /* \"#utility.yul\":8663:8672   */\n      dup4\n        /* \"#utility.yul\":8659:8676   */\n      add\n        /* \"#utility.yul\":8650:8656   */\n      dup5\n        /* \"#utility.yul\":8602:8677   */\n      tag_445\n      jump\t// in\n    tag_607:\n        /* \"#utility.yul\":8454:8684   */\n      swap3\n      swap2\n      pop\n      pop\n      jump\t// out\n        /* \"#utility.yul\":8690:9164   */\n    tag_53:\n        /* \"#utility.yul\":8758:8764   */\n      0x00\n        /* \"#utility.yul\":8766:8772   */\n      0x00\n        /* \"#utility.yul\":8815:8817   */\n      0x40\n        /* \"#utility.yul\":8803:8812   */\n      dup4\n        /* \"#utility.yul\":8794:8801   */\n      dup6\n        /* \"#utility.yul\":8790:8813   */\n      sub\n        /* \"#utility.yul\":8786:8818   */\n      slt\n        /* \"#utility.yul\":8783:8902   */\n      iszero\n      tag_609\n      jumpi\n        /* \"#utility.yul\":8821:8900   */\n      tag_610\n      tag_419\n      jump\t// in\n    tag_610:\n        /* \"#utility.yul\":8783:8902   */\n    tag_609:\n        /* \"#utility.yul\":8941:8942   */\n      0x00\n        /* \"#utility.yul\":8966:9019   */\n      tag_611\n        /* \"#utility.yul\":9011:9018   */\n      dup6\n        /* \"#utility.yul\":9002:9008   */\n      dup3\n        /* \"#utility.yul\":8991:9000   */\n      dup7\n        /* \"#utility.yul\":8987:9009   */\n      add\n        /* \"#utility.yul\":8966:9019   */\n      tag_423\n      jump\t// in\n    tag_611:\n        /* \"#utility.yul\":8956:9019   */\n      swap3\n      pop\n        /* \"#utility.yul\":8912:9029   */\n      pop\n        /* \"#utility.yul\":9068:9070   */\n      0x20\n        /* \"#utility.yul\":9094:9147   */\n      tag_612\n        /* \"#utility.yul\":9139:9146   */\n      dup6\n        /* \"#utility.yul\":9130:9136   */\n      dup3\n        /* \"#utility.yul\":9119:9128   */\n      dup7\n        /* \"#utility.yul\":9115:9137   */\n      add\n        /* \"#utility.yul\":9094:9147   */\n      tag_423\n      jump\t// in\n    tag_612:\n        /* \"#utility.yul\":9084:9147   */\n      swap2\n      pop\n        /* \"#utility.yul\":9039:9157   */\n      pop\n        /* \"#utility.yul\":8690:9164   */\n      swap3\n      pop\n      swap3\n      swap1\n      pop\n      jump\t// out\n        /* \"#utility.yul\":9216:10189   */\n    tag_446:\n        /* \"#utility.yul\":9341:9344   */\n      0x00\n        /* \"#utility.yul\":9377:9381   */\n      0x80\n        /* \"#utility.yul\":9372:9375   */\n      dup4\n        /* \"#utility.yul\":9368:9382   */\n      add\n        /* \"#utility.yul\":9472:9476   */\n      0x00\n        /* \"#utility.yul\":9465:9470   */\n      dup4\n        /* \"#utility.yul\":9461:9477   */\n      add\n        /* \"#utility.yul\":9455:9478   */\n      mload\n        /* \"#utility.yul\":9491:9554   */\n      tag_614\n        /* \"#utility.yul\":9548:9552   */\n      0x00\n        /* \"#utility.yul\":9543:9546   */\n      dup7\n        /* \"#utility.yul\":9539:9553   */\n      add\n        /* \"#utility.yul\":9525:9537   */\n      dup3\n        /* \"#utility.yul\":9491:9554   */\n      tag_429\n      jump\t// in\n    tag_614:\n        /* \"#utility.yul\":9392:9564   */\n      pop\n        /* \"#utility.yul\":9646:9650   */\n      0x20\n        /* \"#utility.yul\":9639:9644   */\n      dup4\n        /* \"#utility.yul\":9635:9651   */\n      add\n        /* \"#utility.yul\":9629:9652   */\n      mload\n        /* \"#utility.yul\":9699:9702   */\n      dup5\n        /* \"#utility.yul\":9693:9697   */\n      dup3\n        /* \"#utility.yul\":9689:9703   */\n      sub\n        /* \"#utility.yul\":9682:9686   */\n      0x20\n        /* \"#utility.yul\":9677:9680   */\n      dup7\n        /* \"#utility.yul\":9673:9687   */\n      add\n        /* \"#utility.yul\":9666:9704   */\n      mstore\n        /* \"#utility.yul\":9725:9798   */\n      tag_615\n        /* \"#utility.yul\":9793:9797   */\n      dup3\n        /* \"#utility.yul\":9779:9791   */\n      dup3\n        /* \"#utility.yul\":9725:9798   */\n      tag_434\n      jump\t// in\n    tag_615:\n        /* \"#utility.yul\":9717:9798   */\n      swap2\n      pop\n        /* \"#utility.yul\":9574:9809   */\n      pop\n        /* \"#utility.yul\":9895:9899   */\n      0x40\n        /* \"#utility.yul\":9888:9893   */\n      dup4\n        /* \"#utility.yul\":9884:9900   */\n      add\n        /* \"#utility.yul\":9878:9901   */\n      mload\n        /* \"#utility.yul\":9914:9977   */\n      tag_616\n        /* \"#utility.yul\":9971:9975   */\n      0x40\n        /* \"#utility.yul\":9966:9969   */\n      dup7\n        /* \"#utility.yul\":9962:9976   */\n      add\n        /* \"#utility.yul\":9948:9960   */\n      dup3\n        /* \"#utility.yul\":9914:9977   */\n      tag_429\n      jump\t// in\n    tag_616:\n        /* \"#utility.yul\":9819:9987   */\n      pop\n        /* \"#utility.yul\":10070:10074   */\n      0x60\n        /* \"#utility.yul\":10063:10068   */\n      dup4\n        /* \"#utility.yul\":10059:10075   */\n      add\n        /* \"#utility.yul\":10053:10076   */\n      mload\n        /* \"#utility.yul\":10089:10152   */\n      tag_617\n        /* \"#utility.yul\":10146:10150   */\n      0x60\n        /* \"#utility.yul\":10141:10144   */\n      dup7\n        /* \"#utility.yul\":10137:10151   */\n      add\n        /* \"#utility.yul\":10123:10135   */\n      dup3\n        /* \"#utility.yul\":10089:10152   */\n      tag_429\n      jump\t// in\n    tag_617:\n        /* \"#utility.yul\":9997:10162   */\n      pop\n        /* \"#utility.yul\":10179:10183   */\n      dup1\n        /* \"#utility.yul\":10172:10183   */\n      swap2\n      pop\n        /* \"#utility.yul\":9346:10189   */\n      pop\n        /* \"#utility.yul\":9216:10189   */\n      swap3\n      swap2\n      pop\n      pop\n      jump\t// out\n        /* \"#utility.yul\":10195:10580   */\n    tag_56:\n        /* \"#utility.yul\":10344:10348   */\n      0x00\n        /* \"#utility.yul\":10382:10384   */\n      0x20\n        /* \"#utility.yul\":10371:10380   */\n      dup3\n        /* \"#utility.yul\":10367:10385   */\n      add\n        /* \"#utility.yul\":10359:10385   */\n      swap1\n      pop\n        /* \"#utility.yul\":10431:10440   */\n      dup2\n        /* \"#utility.yul\":10425:10429   */\n      dup2\n        /* \"#utility.yul\":10421:10441   */\n      sub\n        /* \"#utility.yul\":10417:10418   */\n      0x00\n        /* \"#utility.yul\":10406:10415   */\n      dup4\n        /* \"#utility.yul\":10402:10419   */\n      add\n        /* \"#utility.yul\":10395:10442   */\n      mstore\n        /* \"#utility.yul\":10459:10573   */\n      tag_619\n        /* \"#utility.yul\":10568:10572   */\n      dup2\n        /* \"#utility.yul\":10559:10565   */\n      dup5\n        /* \"#utility.yul\":10459:10573   */\n      tag_446\n      jump\t// in\n    tag_619:\n        /* \"#utility.yul\":10451:10573   */\n      swap1\n      pop\n        /* \"#utility.yul\":10195:10580   */\n      swap3\n      swap2\n      pop\n      pop\n      jump\t// out\n        /* \"#utility.yul\":10586:10703   */\n    tag_447:\n        /* \"#utility.yul\":10695:10696   */\n      0x00\n        /* \"#utility.yul\":10692:10693   */\n      0x00\n        /* \"#utility.yul\":10685:10697   */\n      revert\n        /* \"#utility.yul\":10709:10889   */\n    tag_304:\n        /* \"#utility.yul\":10757:10834   */\n      0x4e487b7100000000000000000000000000000000000000000000000000000000\n        /* \"#utility.yul\":10754:10755   */\n      0x00\n        /* \"#utility.yul\":10747:10835   */\n      mstore\n        /* \"#utility.yul\":10854:10858   */\n      0x41\n        /* \"#utility.yul\":10851:10852   */\n      0x04\n        /* \"#utility.yul\":10844:10859   */\n      mstore\n        /* \"#utility.yul\":10878:10882   */\n      0x24\n        /* \"#utility.yul\":10875:10876   */\n      0x00\n        /* \"#utility.yul\":10868:10883   */\n      revert\n        /* \"#utility.yul\":10895:11176   */\n    tag_448:\n        /* \"#utility.yul\":10978:11005   */\n      tag_623\n        /* \"#utility.yul\":11000:11004   */\n      dup3\n        /* \"#utility.yul\":10978:11005   */\n      tag_433\n      jump\t// in\n    tag_623:\n        /* \"#utility.yul\":10970:10976   */\n      dup2\n        /* \"#utility.yul\":10966:11006   */\n      add\n        /* \"#utility.yul\":11108:11114   */\n      dup2\n        /* \"#utility.yul\":11096:11106   */\n      dup2\n        /* \"#utility.yul\":11093:11115   */\n      lt\n        /* \"#utility.yul\":11072:11090   */\n      0xffffffffffffffff\n        /* \"#utility.yul\":11060:11070   */\n      dup3\n        /* \"#utility.yul\":11057:11091   */\n      gt\n        /* \"#utility.yul\":11054:11116   */\n      or\n        /* \"#utility.yul\":11051:11139   */\n      iszero\n      tag_624\n      jumpi\n        /* \"#utility.yul\":11119:11137   */\n      tag_625\n      tag_304\n      jump\t// in\n    tag_625:\n        /* \"#utility.yul\":11051:11139   */\n    tag_624:\n        /* \"#utility.yul\":11159:11169   */\n      dup1\n        /* \"#utility.yul\":11155:11157   */\n      0x40\n        /* \"#utility.yul\":11148:11170   */\n      mstore\n        /* \"#utility.yul\":10938:11176   */\n      pop\n        /* \"#utility.yul\":10895:11176   */\n      pop\n      pop\n      jump\t// out\n        /* \"#utility.yul\":11182:11311   */\n    tag_449:\n        /* \"#utility.yul\":11216:11222   */\n      0x00\n        /* \"#utility.yul\":11243:11263   */\n      tag_627\n      tag_418\n      jump\t// in\n    tag_627:\n        /* \"#utility.yul\":11233:11263   */\n      swap1\n      pop\n        /* \"#utility.yul\":11272:11305   */\n      tag_628\n        /* \"#utility.yul\":11300:11304   */\n      dup3\n        /* \"#utility.yul\":11292:11298   */\n      dup3\n        /* \"#utility.yul\":11272:11305   */\n      tag_448\n      jump\t// in\n    tag_628:\n        /* \"#utility.yul\":11182:11311   */\n      swap2\n      swap1\n      pop\n      jump\t// out\n        /* \"#utility.yul\":11317:11662   */\n    tag_450:\n        /* \"#utility.yul\":11428:11432   */\n      0x00\n        /* \"#utility.yul\":11518:11536   */\n      0xffffffffffffffff\n        /* \"#utility.yul\":11510:11516   */\n      dup3\n        /* \"#utility.yul\":11507:11537   */\n      gt\n        /* \"#utility.yul\":11504:11560   */\n      iszero\n      tag_630\n      jumpi\n        /* \"#utility.yul\":11540:11558   */\n      tag_631\n      tag_304\n      jump\t// in\n    tag_631:\n        /* \"#utility.yul\":11504:11560   */\n    tag_630:\n        /* \"#utility.yul\":11590:11594   */\n      0x20\n        /* \"#utility.yul\":11582:11588   */\n      dup3\n        /* \"#utility.yul\":11578:11595   */\n      mul\n        /* \"#utility.yul\":11570:11595   */\n      swap1\n      pop\n        /* \"#utility.yul\":11650:11654   */\n      0x20\n        /* \"#utility.yul\":11644:11648   */\n      dup2\n        /* \"#utility.yul\":11640:11655   */\n      add\n        /* \"#utility.yul\":11632:11655   */\n      swap1\n      pop\n        /* \"#utility.yul\":11317:11662   */\n      swap2\n      swap1\n      pop\n      jump\t// out\n        /* \"#utility.yul\":11668:11785   */\n    tag_451:\n        /* \"#utility.yul\":11777:11778   */\n      0x00\n        /* \"#utility.yul\":11774:11775   */\n      0x00\n        /* \"#utility.yul\":11767:11779   */\n      revert\n        /* \"#utility.yul\":11791:11908   */\n    tag_452:\n        /* \"#utility.yul\":11900:11901   */\n      0x00\n        /* \"#utility.yul\":11897:11898   */\n      0x00\n        /* \"#utility.yul\":11890:11902   */\n      revert\n        /* \"#utility.yul\":11914:12031   */\n    tag_453:\n        /* \"#utility.yul\":12023:12024   */\n      0x00\n        /* \"#utility.yul\":12020:12021   */\n      0x00\n        /* \"#utility.yul\":12013:12025   */\n      revert\n        /* \"#utility.yul\":12037:12154   */\n    tag_454:\n        /* \"#utility.yul\":12146:12147   */\n      0x00\n        /* \"#utility.yul\":12143:12144   */\n      0x00\n        /* \"#utility.yul\":12136:12148   */\n      revert\n        /* \"#utility.yul\":12160:12468   */\n    tag_455:\n        /* \"#utility.yul\":12222:12226   */\n      0x00\n        /* \"#utility.yul\":12312:12330   */\n      0xffffffffffffffff\n        /* \"#utility.yul\":12304:12310   */\n      dup3\n        /* \"#utility.yul\":12301:12331   */\n      gt\n        /* \"#utility.yul\":12298:12354   */\n      iszero\n      tag_637\n      jumpi\n        /* \"#utility.yul\":12334:12352   */\n      tag_638\n      tag_304\n      jump\t// in\n    tag_638:\n        /* \"#utility.yul\":12298:12354   */\n    tag_637:\n        /* \"#utility.yul\":12372:12401   */\n      tag_639\n        /* \"#utility.yul\":12394:12400   */\n      dup3\n        /* \"#utility.yul\":12372:12401   */\n      tag_433\n      jump\t// in\n    tag_639:\n        /* \"#utility.yul\":12364:12401   */\n      swap1\n      pop\n        /* \"#utility.yul\":12456:12460   */\n      0x20\n        /* \"#utility.yul\":12450:12454   */\n      dup2\n        /* \"#utility.yul\":12446:12461   */\n      add\n        /* \"#utility.yul\":12438:12461   */\n      swap1\n      pop\n        /* \"#utility.yul\":12160:12468   */\n      swap2\n      swap1\n      pop\n      jump\t// out\n        /* \"#utility.yul\":12474:12622   */\n    tag_456:\n        /* \"#utility.yul\":12572:12578   */\n      dup3\n        /* \"#utility.yul\":12567:12570   */\n      dup2\n        /* \"#utility.yul\":12562:12565   */\n      dup4\n        /* \"#utility.yul\":12549:12579   */\n      calldatacopy\n        /* \"#utility.yul\":12613:12614   */\n      0x00\n        /* \"#utility.yul\":12604:12610   */\n      dup4\n        /* \"#utility.yul\":12599:12602   */\n      dup4\n        /* \"#utility.yul\":12595:12611   */\n      add\n        /* \"#utility.yul\":12588:12615   */\n      mstore\n        /* \"#utility.yul\":12474:12622   */\n      pop\n      pop\n      pop\n      jump\t// out\n        /* \"#utility.yul\":12628:13053   */\n    tag_457:\n        /* \"#utility.yul\":12706:12711   */\n      0x00\n        /* \"#utility.yul\":12731:12797   */\n      tag_642\n        /* \"#utility.yul\":12747:12796   */\n      tag_643\n        /* \"#utility.yul\":12789:12795   */\n      dup5\n        /* \"#utility.yul\":12747:12796   */\n      tag_455\n      jump\t// in\n    tag_643:\n        /* \"#utility.yul\":12731:12797   */\n      tag_449\n      jump\t// in\n    tag_642:\n        /* \"#utility.yul\":12722:12797   */\n      swap1\n      pop\n        /* \"#utility.yul\":12820:12826   */\n      dup3\n        /* \"#utility.yul\":12813:12818   */\n      dup2\n        /* \"#utility.yul\":12806:12827   */\n      mstore\n        /* \"#utility.yul\":12858:12862   */\n      0x20\n        /* \"#utility.yul\":12851:12856   */\n      dup2\n        /* \"#utility.yul\":12847:12863   */\n      add\n        /* \"#utility.yul\":12896:12899   */\n      dup5\n        /* \"#utility.yul\":12887:12893   */\n      dup5\n        /* \"#utility.yul\":12882:12885   */\n      dup5\n        /* \"#utility.yul\":12878:12894   */\n      add\n        /* \"#utility.yul\":12875:12900   */\n      gt\n        /* \"#utility.yul\":12872:12984   */\n      iszero\n      tag_644\n      jumpi\n        /* \"#utility.yul\":12903:12982   */\n      tag_645\n      tag_454\n      jump\t// in\n    tag_645:\n        /* \"#utility.yul\":12872:12984   */\n    tag_644:\n        /* \"#utility.yul\":12993:13047   */\n      tag_646\n        /* \"#utility.yul\":13040:13046   */\n      dup5\n        /* \"#utility.yul\":13035:13038   */\n      dup3\n        /* \"#utility.yul\":13030:13033   */\n      dup6\n        /* \"#utility.yul\":12993:13047   */\n      tag_456\n      jump\t// in\n    tag_646:\n        /* \"#utility.yul\":12712:13053   */\n      pop\n        /* \"#utility.yul\":12628:13053   */\n      swap4\n      swap3\n      pop\n      pop\n      pop\n      jump\t// out\n        /* \"#utility.yul\":13073:13413   */\n    tag_458:\n        /* \"#utility.yul\":13129:13134   */\n      0x00\n        /* \"#utility.yul\":13178:13181   */\n      dup3\n        /* \"#utility.yul\":13171:13175   */\n      0x1f\n        /* \"#utility.yul\":13163:13169   */\n      dup4\n        /* \"#utility.yul\":13159:13176   */\n      add\n        /* \"#utility.yul\":13155:13182   */\n      slt\n        /* \"#utility.yul\":13145:13267   */\n      tag_648\n      jumpi\n        /* \"#utility.yul\":13186:13265   */\n      tag_649\n      tag_447\n      jump\t// in\n    tag_649:\n        /* \"#utility.yul\":13145:13267   */\n    tag_648:\n        /* \"#utility.yul\":13303:13309   */\n      dup2\n        /* \"#utility.yul\":13290:13310   */\n      calldataload\n        /* \"#utility.yul\":13328:13407   */\n      tag_650\n        /* \"#utility.yul\":13403:13406   */\n      dup5\n        /* \"#utility.yul\":13395:13401   */\n      dup3\n        /* \"#utility.yul\":13388:13392   */\n      0x20\n        /* \"#utility.yul\":13380:13386   */\n      dup7\n        /* \"#utility.yul\":13376:13393   */\n      add\n        /* \"#utility.yul\":13328:13407   */\n      tag_457\n      jump\t// in\n    tag_650:\n        /* \"#utility.yul\":13319:13407   */\n      swap2\n      pop\n        /* \"#utility.yul\":13135:13413   */\n      pop\n        /* \"#utility.yul\":13073:13413   */\n      swap3\n      swap2\n      pop\n      pop\n      jump\t// out\n        /* \"#utility.yul\":13450:14369   */\n    tag_459:\n        /* \"#utility.yul\":13533:13538   */\n      0x00\n        /* \"#utility.yul\":13577:13581   */\n      0x60\n        /* \"#utility.yul\":13565:13574   */\n      dup3\n        /* \"#utility.yul\":13560:13563   */\n      dup5\n        /* \"#utility.yul\":13556:13575   */\n      sub\n        /* \"#utility.yul\":13552:13582   */\n      slt\n        /* \"#utility.yul\":13549:13666   */\n      iszero\n      tag_652\n      jumpi\n        /* \"#utility.yul\":13585:13664   */\n      tag_653\n      tag_452\n      jump\t// in\n    tag_653:\n        /* \"#utility.yul\":13549:13666   */\n    tag_652:\n        /* \"#utility.yul\":13684:13705   */\n      tag_654\n        /* \"#utility.yul\":13700:13704   */\n      0x60\n        /* \"#utility.yul\":13684:13705   */\n      tag_449\n      jump\t// in\n    tag_654:\n        /* \"#utility.yul\":13675:13705   */\n      swap1\n      pop\n        /* \"#utility.yul\":13792:13793   */\n      0x00\n        /* \"#utility.yul\":13781:13790   */\n      dup3\n        /* \"#utility.yul\":13777:13794   */\n      add\n        /* \"#utility.yul\":13764:13795   */\n      calldataload\n        /* \"#utility.yul\":13822:13840   */\n      0xffffffffffffffff\n        /* \"#utility.yul\":13814:13820   */\n      dup2\n        /* \"#utility.yul\":13811:13841   */\n      gt\n        /* \"#utility.yul\":13808:13925   */\n      iszero\n      tag_655\n      jumpi\n        /* \"#utility.yul\":13844:13923   */\n      tag_656\n      tag_453\n      jump\t// in\n    tag_656:\n        /* \"#utility.yul\":13808:13925   */\n    tag_655:\n        /* \"#utility.yul\":13964:14023   */\n      tag_657\n        /* \"#utility.yul\":14019:14022   */\n      dup5\n        /* \"#utility.yul\":14010:14016   */\n      dup3\n        /* \"#utility.yul\":13999:14008   */\n      dup6\n        /* \"#utility.yul\":13995:14017   */\n      add\n        /* \"#utility.yul\":13964:14023   */\n      tag_458\n      jump\t// in\n    tag_657:\n        /* \"#utility.yul\":13957:13961   */\n      0x00\n        /* \"#utility.yul\":13950:13955   */\n      dup4\n        /* \"#utility.yul\":13946:13962   */\n      add\n        /* \"#utility.yul\":13939:14024   */\n      mstore\n        /* \"#utility.yul\":13715:14035   */\n      pop\n        /* \"#utility.yul\":14098:14100   */\n      0x20\n        /* \"#utility.yul\":14139:14188   */\n      tag_658\n        /* \"#utility.yul\":14184:14187   */\n      dup5\n        /* \"#utility.yul\":14175:14181   */\n      dup3\n        /* \"#utility.yul\":14164:14173   */\n      dup6\n        /* \"#utility.yul\":14160:14182   */\n      add\n        /* \"#utility.yul\":14139:14188   */\n      tag_423\n      jump\t// in\n    tag_658:\n        /* \"#utility.yul\":14132:14136   */\n      0x20\n        /* \"#utility.yul\":14125:14130   */\n      dup4\n        /* \"#utility.yul\":14121:14137   */\n      add\n        /* \"#utility.yul\":14114:14189   */\n      mstore\n        /* \"#utility.yul\":14045:14200   */\n      pop\n        /* \"#utility.yul\":14260:14262   */\n      0x40\n        /* \"#utility.yul\":14301:14350   */\n      tag_659\n        /* \"#utility.yul\":14346:14349   */\n      dup5\n        /* \"#utility.yul\":14337:14343   */\n      dup3\n        /* \"#utility.yul\":14326:14335   */\n      dup6\n        /* \"#utility.yul\":14322:14344   */\n      add\n        /* \"#utility.yul\":14301:14350   */\n      tag_423\n      jump\t// in\n    tag_659:\n        /* \"#utility.yul\":14294:14298   */\n      0x40\n        /* \"#utility.yul\":14287:14292   */\n      dup4\n        /* \"#utility.yul\":14283:14299   */\n      add\n        /* \"#utility.yul\":14276:14351   */\n      mstore\n        /* \"#utility.yul\":14210:14362   */\n      pop\n        /* \"#utility.yul\":13450:14369   */\n      swap3\n      swap2\n      pop\n      pop\n      jump\t// out\n        /* \"#utility.yul\":14408:15425   */\n    tag_460:\n        /* \"#utility.yul\":14538:14543   */\n      0x00\n        /* \"#utility.yul\":14563:14678   */\n      tag_661\n        /* \"#utility.yul\":14579:14677   */\n      tag_662\n        /* \"#utility.yul\":14670:14676   */\n      dup5\n        /* \"#utility.yul\":14579:14677   */\n      tag_450\n      jump\t// in\n    tag_662:\n        /* \"#utility.yul\":14563:14678   */\n      tag_449\n      jump\t// in\n    tag_661:\n        /* \"#utility.yul\":14554:14678   */\n      swap1\n      pop\n        /* \"#utility.yul\":14698:14703   */\n      dup1\n        /* \"#utility.yul\":14727:14733   */\n      dup4\n        /* \"#utility.yul\":14720:14725   */\n      dup3\n        /* \"#utility.yul\":14713:14734   */\n      mstore\n        /* \"#utility.yul\":14761:14765   */\n      0x20\n        /* \"#utility.yul\":14754:14759   */\n      dup3\n        /* \"#utility.yul\":14750:14766   */\n      add\n        /* \"#utility.yul\":14743:14766   */\n      swap1\n      pop\n        /* \"#utility.yul\":14814:14818   */\n      0x20\n        /* \"#utility.yul\":14806:14812   */\n      dup5\n        /* \"#utility.yul\":14802:14819   */\n      mul\n        /* \"#utility.yul\":14794:14800   */\n      dup4\n        /* \"#utility.yul\":14790:14820   */\n      add\n        /* \"#utility.yul\":14843:14846   */\n      dup6\n        /* \"#utility.yul\":14835:14841   */\n      dup2\n        /* \"#utility.yul\":14832:14847   */\n      gt\n        /* \"#utility.yul\":14829:14951   */\n      iszero\n      tag_663\n      jumpi\n        /* \"#utility.yul\":14862:14941   */\n      tag_664\n      tag_451\n      jump\t// in\n    tag_664:\n        /* \"#utility.yul\":14829:14951   */\n    tag_663:\n        /* \"#utility.yul\":14977:14983   */\n      dup4\n        /* \"#utility.yul\":14960:15419   */\n    tag_665:\n        /* \"#utility.yul\":14994:15000   */\n      dup2\n        /* \"#utility.yul\":14989:14992   */\n      dup2\n        /* \"#utility.yul\":14986:15001   */\n      lt\n        /* \"#utility.yul\":14960:15419   */\n      iszero\n      tag_667\n      jumpi\n        /* \"#utility.yul\":15083:15086   */\n      dup1\n        /* \"#utility.yul\":15070:15087   */\n      calldataload\n        /* \"#utility.yul\":15119:15137   */\n      0xffffffffffffffff\n        /* \"#utility.yul\":15106:15117   */\n      dup2\n        /* \"#utility.yul\":15103:15138   */\n      gt\n        /* \"#utility.yul\":15100:15222   */\n      iszero\n      tag_668\n      jumpi\n        /* \"#utility.yul\":15141:15220   */\n      tag_669\n      tag_447\n      jump\t// in\n    tag_669:\n        /* \"#utility.yul\":15100:15222   */\n    tag_668:\n        /* \"#utility.yul\":15265:15276   */\n      dup1\n        /* \"#utility.yul\":15257:15263   */\n      dup7\n        /* \"#utility.yul\":15253:15277   */\n      add\n        /* \"#utility.yul\":15303:15374   */\n      tag_670\n        /* \"#utility.yul\":15370:15373   */\n      dup10\n        /* \"#utility.yul\":15358:15368   */\n      dup3\n        /* \"#utility.yul\":15303:15374   */\n      tag_459\n      jump\t// in\n    tag_670:\n        /* \"#utility.yul\":15298:15301   */\n      dup6\n        /* \"#utility.yul\":15291:15375   */\n      mstore\n        /* \"#utility.yul\":15404:15408   */\n      0x20\n        /* \"#utility.yul\":15399:15402   */\n      dup6\n        /* \"#utility.yul\":15395:15409   */\n      add\n        /* \"#utility.yul\":15388:15409   */\n      swap5\n      pop\n        /* \"#utility.yul\":15036:15419   */\n      pop\n      pop\n        /* \"#utility.yul\":15020:15024   */\n      0x20\n        /* \"#utility.yul\":15015:15018   */\n      dup2\n        /* \"#utility.yul\":15011:15025   */\n      add\n        /* \"#utility.yul\":15004:15025   */\n      swap1\n      pop\n        /* \"#utility.yul\":14960:15419   */\n      jump(tag_665)\n    tag_667:\n        /* \"#utility.yul\":14964:14985   */\n      pop\n        /* \"#utility.yul\":14544:15425   */\n      pop\n      pop\n        /* \"#utility.yul\":14408:15425   */\n      swap4\n      swap3\n      pop\n      pop\n      pop\n      jump\t// out\n        /* \"#utility.yul\":15464:15902   */\n    tag_461:\n        /* \"#utility.yul\":15569:15574   */\n      0x00\n        /* \"#utility.yul\":15618:15621   */\n      dup3\n        /* \"#utility.yul\":15611:15615   */\n      0x1f\n        /* \"#utility.yul\":15603:15609   */\n      dup4\n        /* \"#utility.yul\":15599:15616   */\n      add\n        /* \"#utility.yul\":15595:15622   */\n      slt\n        /* \"#utility.yul\":15585:15707   */\n      tag_672\n      jumpi\n        /* \"#utility.yul\":15626:15705   */\n      tag_673\n      tag_447\n      jump\t// in\n    tag_673:\n        /* \"#utility.yul\":15585:15707   */\n    tag_672:\n        /* \"#utility.yul\":15743:15749   */\n      dup2\n        /* \"#utility.yul\":15730:15750   */\n      calldataload\n        /* \"#utility.yul\":15768:15896   */\n      tag_674\n        /* \"#utility.yul\":15892:15895   */\n      dup5\n        /* \"#utility.yul\":15884:15890   */\n      dup3\n        /* \"#utility.yul\":15877:15881   */\n      0x20\n        /* \"#utility.yul\":15869:15875   */\n      dup7\n        /* \"#utility.yul\":15865:15882   */\n      add\n        /* \"#utility.yul\":15768:15896   */\n      tag_460\n      jump\t// in\n    tag_674:\n        /* \"#utility.yul\":15759:15896   */\n      swap2\n      pop\n        /* \"#utility.yul\":15575:15902   */\n      pop\n        /* \"#utility.yul\":15464:15902   */\n      swap3\n      swap2\n      pop\n      pop\n      jump\t// out\n        /* \"#utility.yul\":15908:16660   */\n    tag_62:\n        /* \"#utility.yul\":16035:16041   */\n      0x00\n        /* \"#utility.yul\":16043:16049   */\n      0x00\n        /* \"#utility.yul\":16092:16094   */\n      0x40\n        /* \"#utility.yul\":16080:16089   */\n      dup4\n        /* \"#utility.yul\":16071:16078   */\n      dup6\n        /* \"#utility.yul\":16067:16090   */\n      sub\n        /* \"#utility.yul\":16063:16095   */\n      slt\n        /* \"#utility.yul\":16060:16179   */\n      iszero\n      tag_676\n      jumpi\n        /* \"#utility.yul\":16098:16177   */\n      tag_677\n      tag_419\n      jump\t// in\n    tag_677:\n        /* \"#utility.yul\":16060:16179   */\n    tag_676:\n        /* \"#utility.yul\":16218:16219   */\n      0x00\n        /* \"#utility.yul\":16243:16296   */\n      tag_678\n        /* \"#utility.yul\":16288:16295   */\n      dup6\n        /* \"#utility.yul\":16279:16285   */\n      dup3\n        /* \"#utility.yul\":16268:16277   */\n      dup7\n        /* \"#utility.yul\":16264:16286   */\n      add\n        /* \"#utility.yul\":16243:16296   */\n      tag_423\n      jump\t// in\n    tag_678:\n        /* \"#utility.yul\":16233:16296   */\n      swap3\n      pop\n        /* \"#utility.yul\":16189:16306   */\n      pop\n        /* \"#utility.yul\":16373:16375   */\n      0x20\n        /* \"#utility.yul\":16362:16371   */\n      dup4\n        /* \"#utility.yul\":16358:16376   */\n      add\n        /* \"#utility.yul\":16345:16377   */\n      calldataload\n        /* \"#utility.yul\":16404:16422   */\n      0xffffffffffffffff\n        /* \"#utility.yul\":16396:16402   */\n      dup2\n        /* \"#utility.yul\":16393:16423   */\n      gt\n        /* \"#utility.yul\":16390:16507   */\n      iszero\n      tag_679\n      jumpi\n        /* \"#utility.yul\":16426:16505   */\n      tag_680\n      tag_420\n      jump\t// in\n    tag_680:\n        /* \"#utility.yul\":16390:16507   */\n    tag_679:\n        /* \"#utility.yul\":16531:16643   */\n      tag_681\n        /* \"#utility.yul\":16635:16642   */\n      dup6\n        /* \"#utility.yul\":16626:16632   */\n      dup3\n        /* \"#utility.yul\":16615:16624   */\n      dup7\n        /* \"#utility.yul\":16611:16633   */\n      add\n        /* \"#utility.yul\":16531:16643   */\n      tag_461\n      jump\t// in\n    tag_681:\n        /* \"#utility.yul\":16521:16643   */\n      swap2\n      pop\n        /* \"#utility.yul\":16316:16653   */\n      pop\n        /* \"#utility.yul\":15908:16660   */\n      swap3\n      pop\n      swap3\n      swap1\n      pop\n      jump\t// out\n        /* \"#utility.yul\":16666:16987   */\n    tag_462:\n        /* \"#utility.yul\":16753:16757   */\n      0x00\n        /* \"#utility.yul\":16843:16861   */\n      0xffffffffffffffff\n        /* \"#utility.yul\":16835:16841   */\n      dup3\n        /* \"#utility.yul\":16832:16862   */\n      gt\n        /* \"#utility.yul\":16829:16885   */\n      iszero\n      tag_683\n      jumpi\n        /* \"#utility.yul\":16865:16883   */\n      tag_684\n      tag_304\n      jump\t// in\n    tag_684:\n        /* \"#utility.yul\":16829:16885   */\n    tag_683:\n        /* \"#utility.yul\":16915:16919   */\n      0x20\n        /* \"#utility.yul\":16907:16913   */\n      dup3\n        /* \"#utility.yul\":16903:16920   */\n      mul\n        /* \"#utility.yul\":16895:16920   */\n      swap1\n      pop\n        /* \"#utility.yul\":16975:16979   */\n      0x20\n        /* \"#utility.yul\":16969:16973   */\n      dup2\n        /* \"#utility.yul\":16965:16980   */\n      add\n        /* \"#utility.yul\":16957:16980   */\n      swap1\n      pop\n        /* \"#utility.yul\":16666:16987   */\n      swap2\n      swap1\n      pop\n      jump\t// out\n        /* \"#utility.yul\":17009:17954   */\n    tag_463:\n        /* \"#utility.yul\":17115:17120   */\n      0x00\n        /* \"#utility.yul\":17140:17231   */\n      tag_686\n        /* \"#utility.yul\":17156:17230   */\n      tag_687\n        /* \"#utility.yul\":17223:17229   */\n      dup5\n        /* \"#utility.yul\":17156:17230   */\n      tag_462\n      jump\t// in\n    tag_687:\n        /* \"#utility.yul\":17140:17231   */\n      tag_449\n      jump\t// in\n    tag_686:\n        /* \"#utility.yul\":17131:17231   */\n      swap1\n      pop\n        /* \"#utility.yul\":17251:17256   */\n      dup1\n        /* \"#utility.yul\":17280:17286   */\n      dup4\n        /* \"#utility.yul\":17273:17278   */\n      dup3\n        /* \"#utility.yul\":17266:17287   */\n      mstore\n        /* \"#utility.yul\":17314:17318   */\n      0x20\n        /* \"#utility.yul\":17307:17312   */\n      dup3\n        /* \"#utility.yul\":17303:17319   */\n      add\n        /* \"#utility.yul\":17296:17319   */\n      swap1\n      pop\n        /* \"#utility.yul\":17367:17371   */\n      0x20\n        /* \"#utility.yul\":17359:17365   */\n      dup5\n        /* \"#utility.yul\":17355:17372   */\n      mul\n        /* \"#utility.yul\":17347:17353   */\n      dup4\n        /* \"#utility.yul\":17343:17373   */\n      add\n        /* \"#utility.yul\":17396:17399   */\n      dup6\n        /* \"#utility.yul\":17388:17394   */\n      dup2\n        /* \"#utility.yul\":17385:17400   */\n      gt\n        /* \"#utility.yul\":17382:17504   */\n      iszero\n      tag_688\n      jumpi\n        /* \"#utility.yul\":17415:17494   */\n      tag_689\n      tag_451\n      jump\t// in\n    tag_689:\n        /* \"#utility.yul\":17382:17504   */\n    tag_688:\n        /* \"#utility.yul\":17530:17536   */\n      dup4\n        /* \"#utility.yul\":17513:17948   */\n    tag_690:\n        /* \"#utility.yul\":17547:17553   */\n      dup2\n        /* \"#utility.yul\":17542:17545   */\n      dup2\n        /* \"#utility.yul\":17539:17554   */\n      lt\n        /* \"#utility.yul\":17513:17948   */\n      iszero\n      tag_692\n      jumpi\n        /* \"#utility.yul\":17636:17639   */\n      dup1\n        /* \"#utility.yul\":17623:17640   */\n      calldataload\n        /* \"#utility.yul\":17672:17690   */\n      0xffffffffffffffff\n        /* \"#utility.yul\":17659:17670   */\n      dup2\n        /* \"#utility.yul\":17656:17691   */\n      gt\n        /* \"#utility.yul\":17653:17775   */\n      iszero\n      tag_693\n      jumpi\n        /* \"#utility.yul\":17694:17773   */\n      tag_694\n      tag_447\n      jump\t// in\n    tag_694:\n        /* \"#utility.yul\":17653:17775   */\n    tag_693:\n        /* \"#utility.yul\":17818:17829   */\n      dup1\n        /* \"#utility.yul\":17810:17816   */\n      dup7\n        /* \"#utility.yul\":17806:17830   */\n      add\n        /* \"#utility.yul\":17856:17903   */\n      tag_695\n        /* \"#utility.yul\":17899:17902   */\n      dup10\n        /* \"#utility.yul\":17887:17897   */\n      dup3\n        /* \"#utility.yul\":17856:17903   */\n      tag_458\n      jump\t// in\n    tag_695:\n        /* \"#utility.yul\":17851:17854   */\n      dup6\n        /* \"#utility.yul\":17844:17904   */\n      mstore\n        /* \"#utility.yul\":17933:17937   */\n      0x20\n        /* \"#utility.yul\":17928:17931   */\n      dup6\n        /* \"#utility.yul\":17924:17938   */\n      add\n        /* \"#utility.yul\":17917:17938   */\n      swap5\n      pop\n        /* \"#utility.yul\":17589:17948   */\n      pop\n      pop\n        /* \"#utility.yul\":17573:17577   */\n      0x20\n        /* \"#utility.yul\":17568:17571   */\n      dup2\n        /* \"#utility.yul\":17564:17578   */\n      add\n        /* \"#utility.yul\":17557:17578   */\n      swap1\n      pop\n        /* \"#utility.yul\":17513:17948   */\n      jump(tag_690)\n    tag_692:\n        /* \"#utility.yul\":17517:17538   */\n      pop\n        /* \"#utility.yul\":17121:17954   */\n      pop\n      pop\n        /* \"#utility.yul\":17009:17954   */\n      swap4\n      swap3\n      pop\n      pop\n      pop\n      jump\t// out\n        /* \"#utility.yul\":17976:18366   */\n    tag_464:\n        /* \"#utility.yul\":18057:18062   */\n      0x00\n        /* \"#utility.yul\":18106:18109   */\n      dup3\n        /* \"#utility.yul\":18099:18103   */\n      0x1f\n        /* \"#utility.yul\":18091:18097   */\n      dup4\n        /* \"#utility.yul\":18087:18104   */\n      add\n        /* \"#utility.yul\":18083:18110   */\n      slt\n        /* \"#utility.yul\":18073:18195   */\n      tag_697\n      jumpi\n        /* \"#utility.yul\":18114:18193   */\n      tag_698\n      tag_447\n      jump\t// in\n    tag_698:\n        /* \"#utility.yul\":18073:18195   */\n    tag_697:\n        /* \"#utility.yul\":18231:18237   */\n      dup2\n        /* \"#utility.yul\":18218:18238   */\n      calldataload\n        /* \"#utility.yul\":18256:18360   */\n      tag_699\n        /* \"#utility.yul\":18356:18359   */\n      dup5\n        /* \"#utility.yul\":18348:18354   */\n      dup3\n        /* \"#utility.yul\":18341:18345   */\n      0x20\n        /* \"#utility.yul\":18333:18339   */\n      dup7\n        /* \"#utility.yul\":18329:18346   */\n      add\n        /* \"#utility.yul\":18256:18360   */\n      tag_463\n      jump\t// in\n    tag_699:\n        /* \"#utility.yul\":18247:18360   */\n      swap2\n      pop\n        /* \"#utility.yul\":18063:18366   */\n      pop\n        /* \"#utility.yul\":17976:18366   */\n      swap3\n      swap2\n      pop\n      pop\n      jump\t// out\n        /* \"#utility.yul\":18372:19873   */\n    tag_66:\n        /* \"#utility.yul\":18522:18528   */\n      0x00\n        /* \"#utility.yul\":18530:18536   */\n      0x00\n        /* \"#utility.yul\":18538:18544   */\n      0x00\n        /* \"#utility.yul\":18546:18552   */\n      0x00\n        /* \"#utility.yul\":18554:18560   */\n      0x00\n        /* \"#utility.yul\":18603:18606   */\n      0xa0\n        /* \"#utility.yul\":18591:18600   */\n      dup7\n        /* \"#utility.yul\":18582:18589   */\n      dup9\n        /* \"#utility.yul\":18578:18601   */\n      sub\n        /* \"#utility.yul\":18574:18607   */\n      slt\n        /* \"#utility.yul\":18571:18691   */\n      iszero\n      tag_701\n      jumpi\n        /* \"#utility.yul\":18610:18689   */\n      tag_702\n      tag_419\n      jump\t// in\n    tag_702:\n        /* \"#utility.yul\":18571:18691   */\n    tag_701:\n        /* \"#utility.yul\":18730:18731   */\n      0x00\n        /* \"#utility.yul\":18755:18808   */\n      tag_703\n        /* \"#utility.yul\":18800:18807   */\n      dup9\n        /* \"#utility.yul\":18791:18797   */\n      dup3\n        /* \"#utility.yul\":18780:18789   */\n      dup10\n        /* \"#utility.yul\":18776:18798   */\n      add\n        /* \"#utility.yul\":18755:18808   */\n      tag_423\n      jump\t// in\n    tag_703:\n        /* \"#utility.yul\":18745:18808   */\n      swap6\n      pop\n        /* \"#utility.yul\":18701:18818   */\n      pop\n        /* \"#utility.yul\":18885:18887   */\n      0x20\n        /* \"#utility.yul\":18874:18883   */\n      dup7\n        /* \"#utility.yul\":18870:18888   */\n      add\n        /* \"#utility.yul\":18857:18889   */\n      calldataload\n        /* \"#utility.yul\":18916:18934   */\n      0xffffffffffffffff\n        /* \"#utility.yul\":18908:18914   */\n      dup2\n        /* \"#utility.yul\":18905:18935   */\n      gt\n        /* \"#utility.yul\":18902:19019   */\n      iszero\n      tag_704\n      jumpi\n        /* \"#utility.yul\":18938:19017   */\n      tag_705\n      tag_420\n      jump\t// in\n    tag_705:\n        /* \"#utility.yul\":18902:19019   */\n    tag_704:\n        /* \"#utility.yul\":19043:19106   */\n      tag_706\n        /* \"#utility.yul\":19098:19105   */\n      dup9\n        /* \"#utility.yul\":19089:19095   */\n      dup3\n        /* \"#utility.yul\":19078:19087   */\n      dup10\n        /* \"#utility.yul\":19074:19096   */\n      add\n        /* \"#utility.yul\":19043:19106   */\n      tag_458\n      jump\t// in\n    tag_706:\n        /* \"#utility.yul\":19033:19106   */\n      swap5\n      pop\n        /* \"#utility.yul\":18828:19116   */\n      pop\n        /* \"#utility.yul\":19183:19185   */\n      0x40\n        /* \"#utility.yul\":19172:19181   */\n      dup7\n        /* \"#utility.yul\":19168:19186   */\n      add\n        /* \"#utility.yul\":19155:19187   */\n      calldataload\n        /* \"#utility.yul\":19214:19232   */\n      0xffffffffffffffff\n        /* \"#utility.yul\":19206:19212   */\n      dup2\n        /* \"#utility.yul\":19203:19233   */\n      gt\n        /* \"#utility.yul\":19200:19317   */\n      iszero\n      tag_707\n      jumpi\n        /* \"#utility.yul\":19236:19315   */\n      tag_708\n      tag_420\n      jump\t// in\n    tag_708:\n        /* \"#utility.yul\":19200:19317   */\n    tag_707:\n        /* \"#utility.yul\":19341:19404   */\n      tag_709\n        /* \"#utility.yul\":19396:19403   */\n      dup9\n        /* \"#utility.yul\":19387:19393   */\n      dup3\n        /* \"#utility.yul\":19376:19385   */\n      dup10\n        /* \"#utility.yul\":19372:19394   */\n      add\n        /* \"#utility.yul\":19341:19404   */\n      tag_458\n      jump\t// in\n    tag_709:\n        /* \"#utility.yul\":19331:19404   */\n      swap4\n      pop\n        /* \"#utility.yul\":19126:19414   */\n      pop\n        /* \"#utility.yul\":19453:19455   */\n      0x60\n        /* \"#utility.yul\":19479:19532   */\n      tag_710\n        /* \"#utility.yul\":19524:19531   */\n      dup9\n        /* \"#utility.yul\":19515:19521   */\n      dup3\n        /* \"#utility.yul\":19504:19513   */\n      dup10\n        /* \"#utility.yul\":19500:19522   */\n      add\n        /* \"#utility.yul\":19479:19532   */\n      tag_423\n      jump\t// in\n    tag_710:\n        /* \"#utility.yul\":19469:19532   */\n      swap3\n      pop\n        /* \"#utility.yul\":19424:19542   */\n      pop\n        /* \"#utility.yul\":19609:19612   */\n      0x80\n        /* \"#utility.yul\":19598:19607   */\n      dup7\n        /* \"#utility.yul\":19594:19613   */\n      add\n        /* \"#utility.yul\":19581:19614   */\n      calldataload\n        /* \"#utility.yul\":19641:19659   */\n      0xffffffffffffffff\n        /* \"#utility.yul\":19633:19639   */\n      dup2\n        /* \"#utility.yul\":19630:19660   */\n      gt\n        /* \"#utility.yul\":19627:19744   */\n      iszero\n      tag_711\n      jumpi\n        /* \"#utility.yul\":19663:19742   */\n      tag_712\n      tag_420\n      jump\t// in\n    tag_712:\n        /* \"#utility.yul\":19627:19744   */\n    tag_711:\n        /* \"#utility.yul\":19768:19856   */\n      tag_713\n        /* \"#utility.yul\":19848:19855   */\n      dup9\n        /* \"#utility.yul\":19839:19845   */\n      dup3\n        /* \"#utility.yul\":19828:19837   */\n      dup10\n        /* \"#utility.yul\":19824:19846   */\n      add\n        /* \"#utility.yul\":19768:19856   */\n      tag_464\n      jump\t// in\n    tag_713:\n        /* \"#utility.yul\":19758:19856   */\n      swap2\n      pop\n        /* \"#utility.yul\":19552:19866   */\n      pop\n        /* \"#utility.yul\":18372:19873   */\n      swap3\n      swap6\n      pop\n      swap3\n      swap6\n      swap1\n      swap4\n      pop\n      jump\t// out\n        /* \"#utility.yul\":19879:19997   */\n    tag_465:\n        /* \"#utility.yul\":19966:19990   */\n      tag_715\n        /* \"#utility.yul\":19984:19989   */\n      dup2\n        /* \"#utility.yul\":19966:19990   */\n      tag_425\n      jump\t// in\n    tag_715:\n        /* \"#utility.yul\":19961:19964   */\n      dup3\n        /* \"#utility.yul\":19954:19991   */\n      mstore\n        /* \"#utility.yul\":19879:19997   */\n      pop\n      pop\n      jump\t// out\n        /* \"#utility.yul\":20003:20225   */\n    tag_74:\n        /* \"#utility.yul\":20096:20100   */\n      0x00\n        /* \"#utility.yul\":20134:20136   */\n      0x20\n        /* \"#utility.yul\":20123:20132   */\n      dup3\n        /* \"#utility.yul\":20119:20137   */\n      add\n        /* \"#utility.yul\":20111:20137   */\n      swap1\n      pop\n        /* \"#utility.yul\":20147:20218   */\n      tag_717\n        /* \"#utility.yul\":20215:20216   */\n      0x00\n        /* \"#utility.yul\":20204:20213   */\n      dup4\n        /* \"#utility.yul\":20200:20217   */\n      add\n        /* \"#utility.yul\":20191:20197   */\n      dup5\n        /* \"#utility.yul\":20147:20218   */\n      tag_465\n      jump\t// in\n    tag_717:\n        /* \"#utility.yul\":20003:20225   */\n      swap3\n      swap2\n      pop\n      pop\n      jump\t// out\n        /* \"#utility.yul\":20231:20373   */\n    tag_466:\n        /* \"#utility.yul\":20326:20332   */\n      0x00\n        /* \"#utility.yul\":20360:20365   */\n      dup2\n        /* \"#utility.yul\":20354:20366   */\n      mload\n        /* \"#utility.yul\":20344:20366   */\n      swap1\n      pop\n        /* \"#utility.yul\":20231:20373   */\n      swap2\n      swap1\n      pop\n      jump\t// out\n        /* \"#utility.yul\":20379:20591   */\n    tag_467:\n        /* \"#utility.yul\":20506:20517   */\n      0x00\n        /* \"#utility.yul\":20540:20546   */\n      dup3\n        /* \"#utility.yul\":20535:20538   */\n      dup3\n        /* \"#utility.yul\":20528:20547   */\n      mstore\n        /* \"#utility.yul\":20580:20584   */\n      0x20\n        /* \"#utility.yul\":20575:20578   */\n      dup3\n        /* \"#utility.yul\":20571:20585   */\n      add\n        /* \"#utility.yul\":20556:20585   */\n      swap1\n      pop\n        /* \"#utility.yul\":20379:20591   */\n      swap3\n      swap2\n      pop\n      pop\n      jump\t// out\n        /* \"#utility.yul\":20597:20757   */\n    tag_468:\n        /* \"#utility.yul\":20692:20696   */\n      0x00\n        /* \"#utility.yul\":20715:20718   */\n      dup2\n        /* \"#utility.yul\":20707:20718   */\n      swap1\n      pop\n        /* \"#utility.yul\":20745:20749   */\n      0x20\n        /* \"#utility.yul\":20740:20743   */\n      dup3\n        /* \"#utility.yul\":20736:20750   */\n      add\n        /* \"#utility.yul\":20728:20750   */\n      swap1\n      pop\n        /* \"#utility.yul\":20597:20757   */\n      swap2\n      swap1\n      pop\n      jump\t// out\n        /* \"#utility.yul\":20809:21772   */\n    tag_469:\n        /* \"#utility.yul\":20924:20927   */\n      0x00\n        /* \"#utility.yul\":20960:20964   */\n      0x80\n        /* \"#utility.yul\":20955:20958   */\n      dup4\n        /* \"#utility.yul\":20951:20965   */\n      add\n        /* \"#utility.yul\":21055:21059   */\n      0x00\n        /* \"#utility.yul\":21048:21053   */\n      dup4\n        /* \"#utility.yul\":21044:21060   */\n      add\n        /* \"#utility.yul\":21038:21061   */\n      mload\n        /* \"#utility.yul\":21074:21137   */\n      tag_722\n        /* \"#utility.yul\":21131:21135   */\n      0x00\n        /* \"#utility.yul\":21126:21129   */\n      dup7\n        /* \"#utility.yul\":21122:21136   */\n      add\n        /* \"#utility.yul\":21108:21120   */\n      dup3\n        /* \"#utility.yul\":21074:21137   */\n      tag_429\n      jump\t// in\n    tag_722:\n        /* \"#utility.yul\":20975:21147   */\n      pop\n        /* \"#utility.yul\":21229:21233   */\n      0x20\n        /* \"#utility.yul\":21222:21227   */\n      dup4\n        /* \"#utility.yul\":21218:21234   */\n      add\n        /* \"#utility.yul\":21212:21235   */\n      mload\n        /* \"#utility.yul\":21282:21285   */\n      dup5\n        /* \"#utility.yul\":21276:21280   */\n      dup3\n        /* \"#utility.yul\":21272:21286   */\n      sub\n        /* \"#utility.yul\":21265:21269   */\n      0x20\n        /* \"#utility.yul\":21260:21263   */\n      dup7\n        /* \"#utility.yul\":21256:21270   */\n      add\n        /* \"#utility.yul\":21249:21287   */\n      mstore\n        /* \"#utility.yul\":21308:21381   */\n      tag_723\n        /* \"#utility.yul\":21376:21380   */\n      dup3\n        /* \"#utility.yul\":21362:21374   */\n      dup3\n        /* \"#utility.yul\":21308:21381   */\n      tag_434\n      jump\t// in\n    tag_723:\n        /* \"#utility.yul\":21300:21381   */\n      swap2\n      pop\n        /* \"#utility.yul\":21157:21392   */\n      pop\n        /* \"#utility.yul\":21478:21482   */\n      0x40\n        /* \"#utility.yul\":21471:21476   */\n      dup4\n        /* \"#utility.yul\":21467:21483   */\n      add\n        /* \"#utility.yul\":21461:21484   */\n      mload\n        /* \"#utility.yul\":21497:21560   */\n      tag_724\n        /* \"#utility.yul\":21554:21558   */\n      0x40\n        /* \"#utility.yul\":21549:21552   */\n      dup7\n        /* \"#utility.yul\":21545:21559   */\n      add\n        /* \"#utility.yul\":21531:21543   */\n      dup3\n        /* \"#utility.yul\":21497:21560   */\n      tag_429\n      jump\t// in\n    tag_724:\n        /* \"#utility.yul\":21402:21570   */\n      pop\n        /* \"#utility.yul\":21653:21657   */\n      0x60\n        /* \"#utility.yul\":21646:21651   */\n      dup4\n        /* \"#utility.yul\":21642:21658   */\n      add\n        /* \"#utility.yul\":21636:21659   */\n      mload\n        /* \"#utility.yul\":21672:21735   */\n      tag_725\n        /* \"#utility.yul\":21729:21733   */\n      0x60\n        /* \"#utility.yul\":21724:21727   */\n      dup7\n        /* \"#utility.yul\":21720:21734   */\n      add\n        /* \"#utility.yul\":21706:21718   */\n      dup3\n        /* \"#utility.yul\":21672:21735   */\n      tag_429\n      jump\t// in\n    tag_725:\n        /* \"#utility.yul\":21580:21745   */\n      pop\n        /* \"#utility.yul\":21762:21766   */\n      dup1\n        /* \"#utility.yul\":21755:21766   */\n      swap2\n      pop\n        /* \"#utility.yul\":20929:21772   */\n      pop\n        /* \"#utility.yul\":20809:21772   */\n      swap3\n      swap2\n      pop\n      pop\n      jump\t// out\n        /* \"#utility.yul\":21778:22046   */\n    tag_470:\n        /* \"#utility.yul\":21903:21913   */\n      0x00\n        /* \"#utility.yul\":21938:22040   */\n      tag_727\n        /* \"#utility.yul\":22036:22039   */\n      dup4\n        /* \"#utility.yul\":22028:22034   */\n      dup4\n        /* \"#utility.yul\":21938:22040   */\n      tag_469\n      jump\t// in\n    tag_727:\n        /* \"#utility.yul\":21924:22040   */\n      swap1\n      pop\n        /* \"#utility.yul\":21778:22046   */\n      swap3\n      swap2\n      pop\n      pop\n      jump\t// out\n        /* \"#utility.yul\":22052:22193   */\n    tag_471:\n        /* \"#utility.yul\":22150:22154   */\n      0x00\n        /* \"#utility.yul\":22182:22186   */\n      0x20\n        /* \"#utility.yul\":22177:22180   */\n      dup3\n        /* \"#utility.yul\":22173:22187   */\n      add\n        /* \"#utility.yul\":22165:22187   */\n      swap1\n      pop\n        /* \"#utility.yul\":22052:22193   */\n      swap2\n      swap1\n      pop\n      jump\t// out\n        /* \"#utility.yul\":22249:23384   */\n    tag_472:\n        /* \"#utility.yul\":22424:22427   */\n      0x00\n        /* \"#utility.yul\":22453:22535   */\n      tag_730\n        /* \"#utility.yul\":22529:22534   */\n      dup3\n        /* \"#utility.yul\":22453:22535   */\n      tag_466\n      jump\t// in\n    tag_730:\n        /* \"#utility.yul\":22551:22665   */\n      tag_731\n        /* \"#utility.yul\":22658:22664   */\n      dup2\n        /* \"#utility.yul\":22653:22656   */\n      dup6\n        /* \"#utility.yul\":22551:22665   */\n      tag_467\n      jump\t// in\n    tag_731:\n        /* \"#utility.yul\":22544:22665   */\n      swap4\n      pop\n        /* \"#utility.yul\":22691:22694   */\n      dup4\n        /* \"#utility.yul\":22736:22740   */\n      0x20\n        /* \"#utility.yul\":22728:22734   */\n      dup3\n        /* \"#utility.yul\":22724:22741   */\n      mul\n        /* \"#utility.yul\":22719:22722   */\n      dup6\n        /* \"#utility.yul\":22715:22742   */\n      add\n        /* \"#utility.yul\":22766:22850   */\n      tag_732\n        /* \"#utility.yul\":22844:22849   */\n      dup6\n        /* \"#utility.yul\":22766:22850   */\n      tag_468\n      jump\t// in\n    tag_732:\n        /* \"#utility.yul\":22873:22880   */\n      dup1\n        /* \"#utility.yul\":22904:22905   */\n      0x00\n        /* \"#utility.yul\":22889:23339   */\n    tag_733:\n        /* \"#utility.yul\":22914:22920   */\n      dup6\n        /* \"#utility.yul\":22911:22912   */\n      dup2\n        /* \"#utility.yul\":22908:22921   */\n      lt\n        /* \"#utility.yul\":22889:23339   */\n      iszero\n      tag_735\n      jumpi\n        /* \"#utility.yul\":22985:22994   */\n      dup5\n        /* \"#utility.yul\":22979:22983   */\n      dup5\n        /* \"#utility.yul\":22975:22995   */\n      sub\n        /* \"#utility.yul\":22970:22973   */\n      dup10\n        /* \"#utility.yul\":22963:22996   */\n      mstore\n        /* \"#utility.yul\":23036:23042   */\n      dup2\n        /* \"#utility.yul\":23030:23043   */\n      mload\n        /* \"#utility.yul\":23064:23184   */\n      tag_736\n        /* \"#utility.yul\":23179:23183   */\n      dup6\n        /* \"#utility.yul\":23164:23177   */\n      dup3\n        /* \"#utility.yul\":23064:23184   */\n      tag_470\n      jump\t// in\n    tag_736:\n        /* \"#utility.yul\":23056:23184   */\n      swap5\n      pop\n        /* \"#utility.yul\":23207:23295   */\n      tag_737\n        /* \"#utility.yul\":23288:23294   */\n      dup4\n        /* \"#utility.yul\":23207:23295   */\n      tag_471\n      jump\t// in\n    tag_737:\n        /* \"#utility.yul\":23197:23295   */\n      swap3\n      pop\n        /* \"#utility.yul\":23324:23328   */\n      0x20\n        /* \"#utility.yul\":23319:23322   */\n      dup11\n        /* \"#utility.yul\":23315:23329   */\n      add\n        /* \"#utility.yul\":23308:23329   */\n      swap10\n      pop\n        /* \"#utility.yul\":22949:23339   */\n      pop\n        /* \"#utility.yul\":22936:22937   */\n      0x01\n        /* \"#utility.yul\":22933:22934   */\n      dup2\n        /* \"#utility.yul\":22929:22938   */\n      add\n        /* \"#utility.yul\":22924:22938   */\n      swap1\n      pop\n        /* \"#utility.yul\":22889:23339   */\n      jump(tag_733)\n    tag_735:\n        /* \"#utility.yul\":22893:22907   */\n      pop\n        /* \"#utility.yul\":23355:23359   */\n      dup3\n        /* \"#utility.yul\":23348:23359   */\n      swap8\n      pop\n        /* \"#utility.yul\":23375:23378   */\n      dup8\n        /* \"#utility.yul\":23368:23378   */\n      swap6\n      pop\n        /* \"#utility.yul\":22429:23384   */\n      pop\n      pop\n      pop\n      pop\n      pop\n        /* \"#utility.yul\":22249:23384   */\n      swap3\n      swap2\n      pop\n      pop\n      jump\t// out\n        /* \"#utility.yul\":23390:23875   */\n    tag_82:\n        /* \"#utility.yul\":23589:23593   */\n      0x00\n        /* \"#utility.yul\":23627:23629   */\n      0x20\n        /* \"#utility.yul\":23616:23625   */\n      dup3\n        /* \"#utility.yul\":23612:23630   */\n      add\n        /* \"#utility.yul\":23604:23630   */\n      swap1\n      pop\n        /* \"#utility.yul\":23676:23685   */\n      dup2\n        /* \"#utility.yul\":23670:23674   */\n      dup2\n        /* \"#utility.yul\":23666:23686   */\n      sub\n        /* \"#utility.yul\":23662:23663   */\n      0x00\n        /* \"#utility.yul\":23651:23660   */\n      dup4\n        /* \"#utility.yul\":23647:23664   */\n      add\n        /* \"#utility.yul\":23640:23687   */\n      mstore\n        /* \"#utility.yul\":23704:23868   */\n      tag_739\n        /* \"#utility.yul\":23863:23867   */\n      dup2\n        /* \"#utility.yul\":23854:23860   */\n      dup5\n        /* \"#utility.yul\":23704:23868   */\n      tag_472\n      jump\t// in\n    tag_739:\n        /* \"#utility.yul\":23696:23868   */\n      swap1\n      pop\n        /* \"#utility.yul\":23390:23875   */\n      swap3\n      swap2\n      pop\n      pop\n      jump\t// out\n        /* \"#utility.yul\":23881:25806   */\n    tag_85:\n        /* \"#utility.yul\":24099:24105   */\n      0x00\n        /* \"#utility.yul\":24107:24113   */\n      0x00\n        /* \"#utility.yul\":24115:24121   */\n      0x00\n        /* \"#utility.yul\":24123:24129   */\n      0x00\n        /* \"#utility.yul\":24131:24137   */\n      0x00\n        /* \"#utility.yul\":24139:24145   */\n      0x00\n        /* \"#utility.yul\":24188:24191   */\n      0xc0\n        /* \"#utility.yul\":24176:24185   */\n      dup8\n        /* \"#utility.yul\":24167:24174   */\n      dup10\n        /* \"#utility.yul\":24163:24186   */\n      sub\n        /* \"#utility.yul\":24159:24192   */\n      slt\n        /* \"#utility.yul\":24156:24276   */\n      iszero\n      tag_741\n      jumpi\n        /* \"#utility.yul\":24195:24274   */\n      tag_742\n      tag_419\n      jump\t// in\n    tag_742:\n        /* \"#utility.yul\":24156:24276   */\n    tag_741:\n        /* \"#utility.yul\":24315:24316   */\n      0x00\n        /* \"#utility.yul\":24340:24393   */\n      tag_743\n        /* \"#utility.yul\":24385:24392   */\n      dup10\n        /* \"#utility.yul\":24376:24382   */\n      dup3\n        /* \"#utility.yul\":24365:24374   */\n      dup11\n        /* \"#utility.yul\":24361:24383   */\n      add\n        /* \"#utility.yul\":24340:24393   */\n      tag_423\n      jump\t// in\n    tag_743:\n        /* \"#utility.yul\":24330:24393   */\n      swap7\n      pop\n        /* \"#utility.yul\":24286:24403   */\n      pop\n        /* \"#utility.yul\":24470:24472   */\n      0x20\n        /* \"#utility.yul\":24459:24468   */\n      dup8\n        /* \"#utility.yul\":24455:24473   */\n      add\n        /* \"#utility.yul\":24442:24474   */\n      calldataload\n        /* \"#utility.yul\":24501:24519   */\n      0xffffffffffffffff\n        /* \"#utility.yul\":24493:24499   */\n      dup2\n        /* \"#utility.yul\":24490:24520   */\n      gt\n        /* \"#utility.yul\":24487:24604   */\n      iszero\n      tag_744\n      jumpi\n        /* \"#utility.yul\":24523:24602   */\n      tag_745\n      tag_420\n      jump\t// in\n    tag_745:\n        /* \"#utility.yul\":24487:24604   */\n    tag_744:\n        /* \"#utility.yul\":24628:24691   */\n      tag_746\n        /* \"#utility.yul\":24683:24690   */\n      dup10\n        /* \"#utility.yul\":24674:24680   */\n      dup3\n        /* \"#utility.yul\":24663:24672   */\n      dup11\n        /* \"#utility.yul\":24659:24681   */\n      add\n        /* \"#utility.yul\":24628:24691   */\n      tag_458\n      jump\t// in\n    tag_746:\n        /* \"#utility.yul\":24618:24691   */\n      swap6\n      pop\n        /* \"#utility.yul\":24413:24701   */\n      pop\n        /* \"#utility.yul\":24768:24770   */\n      0x40\n        /* \"#utility.yul\":24757:24766   */\n      dup8\n        /* \"#utility.yul\":24753:24771   */\n      add\n        /* \"#utility.yul\":24740:24772   */\n      calldataload\n        /* \"#utility.yul\":24799:24817   */\n      0xffffffffffffffff\n        /* \"#utility.yul\":24791:24797   */\n      dup2\n        /* \"#utility.yul\":24788:24818   */\n      gt\n        /* \"#utility.yul\":24785:24902   */\n      iszero\n      tag_747\n      jumpi\n        /* \"#utility.yul\":24821:24900   */\n      tag_748\n      tag_420\n      jump\t// in\n    tag_748:\n        /* \"#utility.yul\":24785:24902   */\n    tag_747:\n        /* \"#utility.yul\":24926:24989   */\n      tag_749\n        /* \"#utility.yul\":24981:24988   */\n      dup10\n        /* \"#utility.yul\":24972:24978   */\n      dup3\n        /* \"#utility.yul\":24961:24970   */\n      dup11\n        /* \"#utility.yul\":24957:24979   */\n      add\n        /* \"#utility.yul\":24926:24989   */\n      tag_458\n      jump\t// in\n    tag_749:\n        /* \"#utility.yul\":24916:24989   */\n      swap5\n      pop\n        /* \"#utility.yul\":24711:24999   */\n      pop\n        /* \"#utility.yul\":25038:25040   */\n      0x60\n        /* \"#utility.yul\":25064:25117   */\n      tag_750\n        /* \"#utility.yul\":25109:25116   */\n      dup10\n        /* \"#utility.yul\":25100:25106   */\n      dup3\n        /* \"#utility.yul\":25089:25098   */\n      dup11\n        /* \"#utility.yul\":25085:25107   */\n      add\n        /* \"#utility.yul\":25064:25117   */\n      tag_423\n      jump\t// in\n    tag_750:\n        /* \"#utility.yul\":25054:25117   */\n      swap4\n      pop\n        /* \"#utility.yul\":25009:25127   */\n      pop\n        /* \"#utility.yul\":25194:25197   */\n      0x80\n        /* \"#utility.yul\":25183:25192   */\n      dup8\n        /* \"#utility.yul\":25179:25198   */\n      add\n        /* \"#utility.yul\":25166:25199   */\n      calldataload\n        /* \"#utility.yul\":25226:25244   */\n      0xffffffffffffffff\n        /* \"#utility.yul\":25218:25224   */\n      dup2\n        /* \"#utility.yul\":25215:25245   */\n      gt\n        /* \"#utility.yul\":25212:25329   */\n      iszero\n      tag_751\n      jumpi\n        /* \"#utility.yul\":25248:25327   */\n      tag_752\n      tag_420\n      jump\t// in\n    tag_752:\n        /* \"#utility.yul\":25212:25329   */\n    tag_751:\n        /* \"#utility.yul\":25353:25441   */\n      tag_753\n        /* \"#utility.yul\":25433:25440   */\n      dup10\n        /* \"#utility.yul\":25424:25430   */\n      dup3\n        /* \"#utility.yul\":25413:25422   */\n      dup11\n        /* \"#utility.yul\":25409:25431   */\n      add\n        /* \"#utility.yul\":25353:25441   */\n      tag_464\n      jump\t// in\n    tag_753:\n        /* \"#utility.yul\":25343:25441   */\n      swap3\n      pop\n        /* \"#utility.yul\":25137:25451   */\n      pop\n        /* \"#utility.yul\":25518:25521   */\n      0xa0\n        /* \"#utility.yul\":25507:25516   */\n      dup8\n        /* \"#utility.yul\":25503:25522   */\n      add\n        /* \"#utility.yul\":25490:25523   */\n      calldataload\n        /* \"#utility.yul\":25550:25568   */\n      0xffffffffffffffff\n        /* \"#utility.yul\":25542:25548   */\n      dup2\n        /* \"#utility.yul\":25539:25569   */\n      gt\n        /* \"#utility.yul\":25536:25653   */\n      iszero\n      tag_754\n      jumpi\n        /* \"#utility.yul\":25572:25651   */\n      tag_755\n      tag_420\n      jump\t// in\n    tag_755:\n        /* \"#utility.yul\":25536:25653   */\n    tag_754:\n        /* \"#utility.yul\":25677:25789   */\n      tag_756\n        /* \"#utility.yul\":25781:25788   */\n      dup10\n        /* \"#utility.yul\":25772:25778   */\n      dup3\n        /* \"#utility.yul\":25761:25770   */\n      dup11\n        /* \"#utility.yul\":25757:25779   */\n      add\n        /* \"#utility.yul\":25677:25789   */\n      tag_461\n      jump\t// in\n    tag_756:\n        /* \"#utility.yul\":25667:25789   */\n      swap2\n      pop\n        /* \"#utility.yul\":25461:25799   */\n      pop\n        /* \"#utility.yul\":23881:25806   */\n      swap3\n      swap6\n      pop\n      swap3\n      swap6\n      pop\n      swap3\n      swap6\n      jump\t// out\n        /* \"#utility.yul\":25812:25959   */\n    tag_473:\n        /* \"#utility.yul\":25912:25918   */\n      0x00\n        /* \"#utility.yul\":25946:25951   */\n      dup2\n        /* \"#utility.yul\":25940:25952   */\n      mload\n        /* \"#utility.yul\":25930:25952   */\n      swap1\n      pop\n        /* \"#utility.yul\":25812:25959   */\n      swap2\n      swap1\n      pop\n      jump\t// out\n        /* \"#utility.yul\":25965:26182   */\n    tag_474:\n        /* \"#utility.yul\":26097:26108   */\n      0x00\n        /* \"#utility.yul\":26131:26137   */\n      dup3\n        /* \"#utility.yul\":26126:26129   */\n      dup3\n        /* \"#utility.yul\":26119:26138   */\n      mstore\n        /* \"#utility.yul\":26171:26175   */\n      0x20\n        /* \"#utility.yul\":26166:26169   */\n      dup3\n        /* \"#utility.yul\":26162:26176   */\n      add\n        /* \"#utility.yul\":26147:26176   */\n      swap1\n      pop\n        /* \"#utility.yul\":25965:26182   */\n      swap3\n      swap2\n      pop\n      pop\n      jump\t// out\n        /* \"#utility.yul\":26188:26353   */\n    tag_475:\n        /* \"#utility.yul\":26288:26292   */\n      0x00\n        /* \"#utility.yul\":26311:26314   */\n      dup2\n        /* \"#utility.yul\":26303:26314   */\n      swap1\n      pop\n        /* \"#utility.yul\":26341:26345   */\n      0x20\n        /* \"#utility.yul\":26336:26339   */\n      dup3\n        /* \"#utility.yul\":26332:26346   */\n      add\n        /* \"#utility.yul\":26324:26346   */\n      swap1\n      pop\n        /* \"#utility.yul\":26188:26353   */\n      swap2\n      swap1\n      pop\n      jump\t// out\n        /* \"#utility.yul\":26393:28076   */\n    tag_476:\n        /* \"#utility.yul\":26496:26499   */\n      0x00\n        /* \"#utility.yul\":26532:26536   */\n      0xe0\n        /* \"#utility.yul\":26527:26530   */\n      dup4\n        /* \"#utility.yul\":26523:26537   */\n      add\n        /* \"#utility.yul\":26621:26625   */\n      0x00\n        /* \"#utility.yul\":26614:26619   */\n      dup4\n        /* \"#utility.yul\":26610:26626   */\n      add\n        /* \"#utility.yul\":26604:26627   */\n      mload\n        /* \"#utility.yul\":26640:26703   */\n      tag_761\n        /* \"#utility.yul\":26697:26701   */\n      0x00\n        /* \"#utility.yul\":26692:26695   */\n      dup7\n        /* \"#utility.yul\":26688:26702   */\n      add\n        /* \"#utility.yul\":26674:26686   */\n      dup3\n        /* \"#utility.yul\":26640:26703   */\n      tag_429\n      jump\t// in\n    tag_761:\n        /* \"#utility.yul\":26547:26713   */\n      pop\n        /* \"#utility.yul\":26795:26799   */\n      0x20\n        /* \"#utility.yul\":26788:26793   */\n      dup4\n        /* \"#utility.yul\":26784:26800   */\n      add\n        /* \"#utility.yul\":26778:26801   */\n      mload\n        /* \"#utility.yul\":26848:26851   */\n      dup5\n        /* \"#utility.yul\":26842:26846   */\n      dup3\n        /* \"#utility.yul\":26838:26852   */\n      sub\n        /* \"#utility.yul\":26831:26835   */\n      0x20\n        /* \"#utility.yul\":26826:26829   */\n      dup7\n        /* \"#utility.yul\":26822:26836   */\n      add\n        /* \"#utility.yul\":26815:26853   */\n      mstore\n        /* \"#utility.yul\":26874:26947   */\n      tag_762\n        /* \"#utility.yul\":26942:26946   */\n      dup3\n        /* \"#utility.yul\":26928:26940   */\n      dup3\n        /* \"#utility.yul\":26874:26947   */\n      tag_434\n      jump\t// in\n    tag_762:\n        /* \"#utility.yul\":26866:26947   */\n      swap2\n      pop\n        /* \"#utility.yul\":26723:26958   */\n      pop\n        /* \"#utility.yul\":27047:27051   */\n      0x40\n        /* \"#utility.yul\":27040:27045   */\n      dup4\n        /* \"#utility.yul\":27036:27052   */\n      add\n        /* \"#utility.yul\":27030:27053   */\n      mload\n        /* \"#utility.yul\":27100:27103   */\n      dup5\n        /* \"#utility.yul\":27094:27098   */\n      dup3\n        /* \"#utility.yul\":27090:27104   */\n      sub\n        /* \"#utility.yul\":27083:27087   */\n      0x40\n        /* \"#utility.yul\":27078:27081   */\n      dup7\n        /* \"#utility.yul\":27074:27088   */\n      add\n        /* \"#utility.yul\":27067:27105   */\n      mstore\n        /* \"#utility.yul\":27126:27199   */\n      tag_763\n        /* \"#utility.yul\":27194:27198   */\n      dup3\n        /* \"#utility.yul\":27180:27192   */\n      dup3\n        /* \"#utility.yul\":27126:27199   */\n      tag_434\n      jump\t// in\n    tag_763:\n        /* \"#utility.yul\":27118:27199   */\n      swap2\n      pop\n        /* \"#utility.yul\":26968:27210   */\n      pop\n        /* \"#utility.yul\":27298:27302   */\n      0x60\n        /* \"#utility.yul\":27291:27296   */\n      dup4\n        /* \"#utility.yul\":27287:27303   */\n      add\n        /* \"#utility.yul\":27281:27304   */\n      mload\n        /* \"#utility.yul\":27317:27380   */\n      tag_764\n        /* \"#utility.yul\":27374:27378   */\n      0x60\n        /* \"#utility.yul\":27369:27372   */\n      dup7\n        /* \"#utility.yul\":27365:27379   */\n      add\n        /* \"#utility.yul\":27351:27363   */\n      dup3\n        /* \"#utility.yul\":27317:27380   */\n      tag_429\n      jump\t// in\n    tag_764:\n        /* \"#utility.yul\":27220:27390   */\n      pop\n        /* \"#utility.yul\":27476:27480   */\n      0x80\n        /* \"#utility.yul\":27469:27474   */\n      dup4\n        /* \"#utility.yul\":27465:27481   */\n      add\n        /* \"#utility.yul\":27459:27482   */\n      mload\n        /* \"#utility.yul\":27529:27532   */\n      dup5\n        /* \"#utility.yul\":27523:27527   */\n      dup3\n        /* \"#utility.yul\":27519:27533   */\n      sub\n        /* \"#utility.yul\":27512:27516   */\n      0x80\n        /* \"#utility.yul\":27507:27510   */\n      dup7\n        /* \"#utility.yul\":27503:27517   */\n      add\n        /* \"#utility.yul\":27496:27534   */\n      mstore\n        /* \"#utility.yul\":27555:27678   */\n      tag_765\n        /* \"#utility.yul\":27673:27677   */\n      dup3\n        /* \"#utility.yul\":27659:27671   */\n      dup3\n        /* \"#utility.yul\":27555:27678   */\n      tag_440\n      jump\t// in\n    tag_765:\n        /* \"#utility.yul\":27547:27678   */\n      swap2\n      pop\n        /* \"#utility.yul\":27400:27689   */\n      pop\n        /* \"#utility.yul\":27776:27780   */\n      0xa0\n        /* \"#utility.yul\":27769:27774   */\n      dup4\n        /* \"#utility.yul\":27765:27781   */\n      add\n        /* \"#utility.yul\":27759:27782   */\n      mload\n        /* \"#utility.yul\":27795:27858   */\n      tag_766\n        /* \"#utility.yul\":27852:27856   */\n      0xa0\n        /* \"#utility.yul\":27847:27850   */\n      dup7\n        /* \"#utility.yul\":27843:27857   */\n      add\n        /* \"#utility.yul\":27829:27841   */\n      dup3\n        /* \"#utility.yul\":27795:27858   */\n      tag_429\n      jump\t// in\n    tag_766:\n        /* \"#utility.yul\":27699:27868   */\n      pop\n        /* \"#utility.yul\":27957:27961   */\n      0xc0\n        /* \"#utility.yul\":27950:27955   */\n      dup4\n        /* \"#utility.yul\":27946:27962   */\n      add\n        /* \"#utility.yul\":27940:27963   */\n      mload\n        /* \"#utility.yul\":27976:28039   */\n      tag_767\n        /* \"#utility.yul\":28033:28037   */\n      0xc0\n        /* \"#utility.yul\":28028:28031   */\n      dup7\n        /* \"#utility.yul\":28024:28038   */\n      add\n        /* \"#utility.yul\":28010:28022   */\n      dup3\n        /* \"#utility.yul\":27976:28039   */\n      tag_429\n      jump\t// in\n    tag_767:\n        /* \"#utility.yul\":27878:28049   */\n      pop\n        /* \"#utility.yul\":28066:28070   */\n      dup1\n        /* \"#utility.yul\":28059:28070   */\n      swap2\n      pop\n        /* \"#utility.yul\":26501:28076   */\n      pop\n        /* \"#utility.yul\":26393:28076   */\n      swap3\n      swap2\n      pop\n      pop\n      jump\t// out\n        /* \"#utility.yul\":28082:28284   */\n    tag_477:\n        /* \"#utility.yul\":28199:28210   */\n      0x00\n        /* \"#utility.yul\":28233:28239   */\n      dup3\n        /* \"#utility.yul\":28228:28231   */\n      dup3\n        /* \"#utility.yul\":28221:28240   */\n      mstore\n        /* \"#utility.yul\":28273:28277   */\n      0x20\n        /* \"#utility.yul\":28268:28271   */\n      dup3\n        /* \"#utility.yul\":28264:28278   */\n      add\n        /* \"#utility.yul\":28249:28278   */\n      swap1\n      pop\n        /* \"#utility.yul\":28082:28284   */\n      swap3\n      swap2\n      pop\n      pop\n      jump\t// out\n        /* \"#utility.yul\":28340:29455   */\n    tag_478:\n        /* \"#utility.yul\":28505:28508   */\n      0x00\n        /* \"#utility.yul\":28534:28616   */\n      tag_770\n        /* \"#utility.yul\":28610:28615   */\n      dup3\n        /* \"#utility.yul\":28534:28616   */\n      tag_466\n      jump\t// in\n    tag_770:\n        /* \"#utility.yul\":28632:28736   */\n      tag_771\n        /* \"#utility.yul\":28729:28735   */\n      dup2\n        /* \"#utility.yul\":28724:28727   */\n      dup6\n        /* \"#utility.yul\":28632:28736   */\n      tag_477\n      jump\t// in\n    tag_771:\n        /* \"#utility.yul\":28625:28736   */\n      swap4\n      pop\n        /* \"#utility.yul\":28762:28765   */\n      dup4\n        /* \"#utility.yul\":28807:28811   */\n      0x20\n        /* \"#utility.yul\":28799:28805   */\n      dup3\n        /* \"#utility.yul\":28795:28812   */\n      mul\n        /* \"#utility.yul\":28790:28793   */\n      dup6\n        /* \"#utility.yul\":28786:28813   */\n      add\n        /* \"#utility.yul\":28837:28921   */\n      tag_772\n        /* \"#utility.yul\":28915:28920   */\n      dup6\n        /* \"#utility.yul\":28837:28921   */\n      tag_468\n      jump\t// in\n    tag_772:\n        /* \"#utility.yul\":28944:28951   */\n      dup1\n        /* \"#utility.yul\":28975:28976   */\n      0x00\n        /* \"#utility.yul\":28960:29410   */\n    tag_773:\n        /* \"#utility.yul\":28985:28991   */\n      dup6\n        /* \"#utility.yul\":28982:28983   */\n      dup2\n        /* \"#utility.yul\":28979:28992   */\n      lt\n        /* \"#utility.yul\":28960:29410   */\n      iszero\n      tag_775\n      jumpi\n        /* \"#utility.yul\":29056:29065   */\n      dup5\n        /* \"#utility.yul\":29050:29054   */\n      dup5\n        /* \"#utility.yul\":29046:29066   */\n      sub\n        /* \"#utility.yul\":29041:29044   */\n      dup10\n        /* \"#utility.yul\":29034:29067   */\n      mstore\n        /* \"#utility.yul\":29107:29113   */\n      dup2\n        /* \"#utility.yul\":29101:29114   */\n      mload\n        /* \"#utility.yul\":29135:29255   */\n      tag_776\n        /* \"#utility.yul\":29250:29254   */\n      dup6\n        /* \"#utility.yul\":29235:29248   */\n      dup3\n        /* \"#utility.yul\":29135:29255   */\n      tag_470\n      jump\t// in\n    tag_776:\n        /* \"#utility.yul\":29127:29255   */\n      swap5\n      pop\n        /* \"#utility.yul\":29278:29366   */\n      tag_777\n        /* \"#utility.yul\":29359:29365   */\n      dup4\n        /* \"#utility.yul\":29278:29366   */\n      tag_471\n      jump\t// in\n    tag_777:\n        /* \"#utility.yul\":29268:29366   */\n      swap3\n      pop\n        /* \"#utility.yul\":29395:29399   */\n      0x20\n        /* \"#utility.yul\":29390:29393   */\n      dup11\n        /* \"#utility.yul\":29386:29400   */\n      add\n        /* \"#utility.yul\":29379:29400   */\n      swap10\n      pop\n        /* \"#utility.yul\":29020:29410   */\n      pop\n        /* \"#utility.yul\":29007:29008   */\n      0x01\n        /* \"#utility.yul\":29004:29005   */\n      dup2\n        /* \"#utility.yul\":29000:29009   */\n      add\n        /* \"#utility.yul\":28995:29009   */\n      swap1\n      pop\n        /* \"#utility.yul\":28960:29410   */\n      jump(tag_773)\n    tag_775:\n        /* \"#utility.yul\":28964:28978   */\n      pop\n        /* \"#utility.yul\":29426:29430   */\n      dup3\n        /* \"#utility.yul\":29419:29430   */\n      swap8\n      pop\n        /* \"#utility.yul\":29446:29449   */\n      dup8\n        /* \"#utility.yul\":29439:29449   */\n      swap6\n      pop\n        /* \"#utility.yul\":28510:29455   */\n      pop\n      pop\n      pop\n      pop\n      pop\n        /* \"#utility.yul\":28340:29455   */\n      swap3\n      swap2\n      pop\n      pop\n      jump\t// out\n        /* \"#utility.yul\":29517:30317   */\n    tag_479:\n        /* \"#utility.yul\":29642:29645   */\n      0x00\n        /* \"#utility.yul\":29678:29682   */\n      0x40\n        /* \"#utility.yul\":29673:29676   */\n      dup4\n        /* \"#utility.yul\":29669:29683   */\n      add\n        /* \"#utility.yul\":29765:29769   */\n      0x00\n        /* \"#utility.yul\":29758:29763   */\n      dup4\n        /* \"#utility.yul\":29754:29770   */\n      add\n        /* \"#utility.yul\":29748:29771   */\n      mload\n        /* \"#utility.yul\":29818:29821   */\n      dup5\n        /* \"#utility.yul\":29812:29816   */\n      dup3\n        /* \"#utility.yul\":29808:29822   */\n      sub\n        /* \"#utility.yul\":29801:29805   */\n      0x00\n        /* \"#utility.yul\":29796:29799   */\n      dup7\n        /* \"#utility.yul\":29792:29806   */\n      add\n        /* \"#utility.yul\":29785:29823   */\n      mstore\n        /* \"#utility.yul\":29844:29941   */\n      tag_779\n        /* \"#utility.yul\":29936:29940   */\n      dup3\n        /* \"#utility.yul\":29922:29934   */\n      dup3\n        /* \"#utility.yul\":29844:29941   */\n      tag_476\n      jump\t// in\n    tag_779:\n        /* \"#utility.yul\":29836:29941   */\n      swap2\n      pop\n        /* \"#utility.yul\":29693:29952   */\n      pop\n        /* \"#utility.yul\":30041:30045   */\n      0x20\n        /* \"#utility.yul\":30034:30039   */\n      dup4\n        /* \"#utility.yul\":30030:30046   */\n      add\n        /* \"#utility.yul\":30024:30047   */\n      mload\n        /* \"#utility.yul\":30094:30097   */\n      dup5\n        /* \"#utility.yul\":30088:30092   */\n      dup3\n        /* \"#utility.yul\":30084:30098   */\n      sub\n        /* \"#utility.yul\":30077:30081   */\n      0x20\n        /* \"#utility.yul\":30072:30075   */\n      dup7\n        /* \"#utility.yul\":30068:30082   */\n      add\n        /* \"#utility.yul\":30061:30099   */\n      mstore\n        /* \"#utility.yul\":30120:30279   */\n      tag_780\n        /* \"#utility.yul\":30274:30278   */\n      dup3\n        /* \"#utility.yul\":30260:30272   */\n      dup3\n        /* \"#utility.yul\":30120:30279   */\n      tag_478\n      jump\t// in\n    tag_780:\n        /* \"#utility.yul\":30112:30279   */\n      swap2\n      pop\n        /* \"#utility.yul\":29962:30290   */\n      pop\n        /* \"#utility.yul\":30307:30311   */\n      dup1\n        /* \"#utility.yul\":30300:30311   */\n      swap2\n      pop\n        /* \"#utility.yul\":29647:30317   */\n      pop\n        /* \"#utility.yul\":29517:30317   */\n      swap3\n      swap2\n      pop\n      pop\n      jump\t// out\n        /* \"#utility.yul\":30323:30611   */\n    tag_480:\n        /* \"#utility.yul\":30458:30468   */\n      0x00\n        /* \"#utility.yul\":30493:30605   */\n      tag_782\n        /* \"#utility.yul\":30601:30604   */\n      dup4\n        /* \"#utility.yul\":30593:30599   */\n      dup4\n        /* \"#utility.yul\":30493:30605   */\n      tag_479\n      jump\t// in\n    tag_782:\n        /* \"#utility.yul\":30479:30605   */\n      swap1\n      pop\n        /* \"#utility.yul\":30323:30611   */\n      swap3\n      swap2\n      pop\n      pop\n      jump\t// out\n        /* \"#utility.yul\":30617:30763   */\n    tag_481:\n        /* \"#utility.yul\":30720:30724   */\n      0x00\n        /* \"#utility.yul\":30752:30756   */\n      0x20\n        /* \"#utility.yul\":30747:30750   */\n      dup3\n        /* \"#utility.yul\":30743:30757   */\n      add\n        /* \"#utility.yul\":30735:30757   */\n      swap1\n      pop\n        /* \"#utility.yul\":30617:30763   */\n      swap2\n      swap1\n      pop\n      jump\t// out\n        /* \"#utility.yul\":30829:32004   */\n    tag_482:\n        /* \"#utility.yul\":31014:31017   */\n      0x00\n        /* \"#utility.yul\":31043:31130   */\n      tag_785\n        /* \"#utility.yul\":31124:31129   */\n      dup3\n        /* \"#utility.yul\":31043:31130   */\n      tag_473\n      jump\t// in\n    tag_785:\n        /* \"#utility.yul\":31146:31265   */\n      tag_786\n        /* \"#utility.yul\":31258:31264   */\n      dup2\n        /* \"#utility.yul\":31253:31256   */\n      dup6\n        /* \"#utility.yul\":31146:31265   */\n      tag_474\n      jump\t// in\n    tag_786:\n        /* \"#utility.yul\":31139:31265   */\n      swap4\n      pop\n        /* \"#utility.yul\":31291:31294   */\n      dup4\n        /* \"#utility.yul\":31336:31340   */\n      0x20\n        /* \"#utility.yul\":31328:31334   */\n      dup3\n        /* \"#utility.yul\":31324:31341   */\n      mul\n        /* \"#utility.yul\":31319:31322   */\n      dup6\n        /* \"#utility.yul\":31315:31342   */\n      add\n        /* \"#utility.yul\":31366:31455   */\n      tag_787\n        /* \"#utility.yul\":31449:31454   */\n      dup6\n        /* \"#utility.yul\":31366:31455   */\n      tag_475\n      jump\t// in\n    tag_787:\n        /* \"#utility.yul\":31478:31485   */\n      dup1\n        /* \"#utility.yul\":31509:31510   */\n      0x00\n        /* \"#utility.yul\":31494:31959   */\n    tag_788:\n        /* \"#utility.yul\":31519:31525   */\n      dup6\n        /* \"#utility.yul\":31516:31517   */\n      dup2\n        /* \"#utility.yul\":31513:31526   */\n      lt\n        /* \"#utility.yul\":31494:31959   */\n      iszero\n      tag_790\n      jumpi\n        /* \"#utility.yul\":31590:31599   */\n      dup5\n        /* \"#utility.yul\":31584:31588   */\n      dup5\n        /* \"#utility.yul\":31580:31600   */\n      sub\n        /* \"#utility.yul\":31575:31578   */\n      dup10\n        /* \"#utility.yul\":31568:31601   */\n      mstore\n        /* \"#utility.yul\":31641:31647   */\n      dup2\n        /* \"#utility.yul\":31635:31648   */\n      mload\n        /* \"#utility.yul\":31669:31799   */\n      tag_791\n        /* \"#utility.yul\":31794:31798   */\n      dup6\n        /* \"#utility.yul\":31779:31792   */\n      dup3\n        /* \"#utility.yul\":31669:31799   */\n      tag_480\n      jump\t// in\n    tag_791:\n        /* \"#utility.yul\":31661:31799   */\n      swap5\n      pop\n        /* \"#utility.yul\":31822:31915   */\n      tag_792\n        /* \"#utility.yul\":31908:31914   */\n      dup4\n        /* \"#utility.yul\":31822:31915   */\n      tag_481\n      jump\t// in\n    tag_792:\n        /* \"#utility.yul\":31812:31915   */\n      swap3\n      pop\n        /* \"#utility.yul\":31944:31948   */\n      0x20\n        /* \"#utility.yul\":31939:31942   */\n      dup11\n        /* \"#utility.yul\":31935:31949   */\n      add\n        /* \"#utility.yul\":31928:31949   */\n      swap10\n      pop\n        /* \"#utility.yul\":31554:31959   */\n      pop\n        /* \"#utility.yul\":31541:31542   */\n      0x01\n        /* \"#utility.yul\":31538:31539   */\n      dup2\n        /* \"#utility.yul\":31534:31543   */\n      add\n        /* \"#utility.yul\":31529:31543   */\n      swap1\n      pop\n        /* \"#utility.yul\":31494:31959   */\n      jump(tag_788)\n    tag_790:\n        /* \"#utility.yul\":31498:31512   */\n      pop\n        /* \"#utility.yul\":31975:31979   */\n      dup3\n        /* \"#utility.yul\":31968:31979   */\n      swap8\n      pop\n        /* \"#utility.yul\":31995:31998   */\n      dup8\n        /* \"#utility.yul\":31988:31998   */\n      swap6\n      pop\n        /* \"#utility.yul\":31019:32004   */\n      pop\n      pop\n      pop\n      pop\n      pop\n        /* \"#utility.yul\":30829:32004   */\n      swap3\n      swap2\n      pop\n      pop\n      jump\t// out\n        /* \"#utility.yul\":32010:32515   */\n    tag_90:\n        /* \"#utility.yul\":32219:32223   */\n      0x00\n        /* \"#utility.yul\":32257:32259   */\n      0x20\n        /* \"#utility.yul\":32246:32255   */\n      dup3\n        /* \"#utility.yul\":32242:32260   */\n      add\n        /* \"#utility.yul\":32234:32260   */\n      swap1\n      pop\n        /* \"#utility.yul\":32306:32315   */\n      dup2\n        /* \"#utility.yul\":32300:32304   */\n      dup2\n        /* \"#utility.yul\":32296:32316   */\n      sub\n        /* \"#utility.yul\":32292:32293   */\n      0x00\n        /* \"#utility.yul\":32281:32290   */\n      dup4\n        /* \"#utility.yul\":32277:32294   */\n      add\n        /* \"#utility.yul\":32270:32317   */\n      mstore\n        /* \"#utility.yul\":32334:32508   */\n      tag_794\n        /* \"#utility.yul\":32503:32507   */\n      dup2\n        /* \"#utility.yul\":32494:32500   */\n      dup5\n        /* \"#utility.yul\":32334:32508   */\n      tag_482\n      jump\t// in\n    tag_794:\n        /* \"#utility.yul\":32326:32508   */\n      swap1\n      pop\n        /* \"#utility.yul\":32010:32515   */\n      swap3\n      swap2\n      pop\n      pop\n      jump\t// out\n        /* \"#utility.yul\":32521:33368   */\n    tag_93:\n        /* \"#utility.yul\":32632:32638   */\n      0x00\n        /* \"#utility.yul\":32640:32646   */\n      0x00\n        /* \"#utility.yul\":32648:32654   */\n      0x00\n        /* \"#utility.yul\":32697:32699   */\n      0x60\n        /* \"#utility.yul\":32685:32694   */\n      dup5\n        /* \"#utility.yul\":32676:32683   */\n      dup7\n        /* \"#utility.yul\":32672:32695   */\n      sub\n        /* \"#utility.yul\":32668:32700   */\n      slt\n        /* \"#utility.yul\":32665:32784   */\n      iszero\n      tag_796\n      jumpi\n        /* \"#utility.yul\":32703:32782   */\n      tag_797\n      tag_419\n      jump\t// in\n    tag_797:\n        /* \"#utility.yul\":32665:32784   */\n    tag_796:\n        /* \"#utility.yul\":32823:32824   */\n      0x00\n        /* \"#utility.yul\":32848:32901   */\n      tag_798\n        /* \"#utility.yul\":32893:32900   */\n      dup7\n        /* \"#utility.yul\":32884:32890   */\n      dup3\n        /* \"#utility.yul\":32873:32882   */\n      dup8\n        /* \"#utility.yul\":32869:32891   */\n      add\n        /* \"#utility.yul\":32848:32901   */\n      tag_423\n      jump\t// in\n    tag_798:\n        /* \"#utility.yul\":32838:32901   */\n      swap4\n      pop\n        /* \"#utility.yul\":32794:32911   */\n      pop\n        /* \"#utility.yul\":32950:32952   */\n      0x20\n        /* \"#utility.yul\":32976:33029   */\n      tag_799\n        /* \"#utility.yul\":33021:33028   */\n      dup7\n        /* \"#utility.yul\":33012:33018   */\n      dup3\n        /* \"#utility.yul\":33001:33010   */\n      dup8\n        /* \"#utility.yul\":32997:33019   */\n      add\n        /* \"#utility.yul\":32976:33029   */\n      tag_423\n      jump\t// in\n    tag_799:\n        /* \"#utility.yul\":32966:33029   */\n      swap3\n      pop\n        /* \"#utility.yul\":32921:33039   */\n      pop\n        /* \"#utility.yul\":33106:33108   */\n      0x40\n        /* \"#utility.yul\":33095:33104   */\n      dup5\n        /* \"#utility.yul\":33091:33109   */\n      add\n        /* \"#utility.yul\":33078:33110   */\n      calldataload\n        /* \"#utility.yul\":33137:33155   */\n      0xffffffffffffffff\n        /* \"#utility.yul\":33129:33135   */\n      dup2\n        /* \"#utility.yul\":33126:33156   */\n      gt\n        /* \"#utility.yul\":33123:33240   */\n      iszero\n      tag_800\n      jumpi\n        /* \"#utility.yul\":33159:33238   */\n      tag_801\n      tag_420\n      jump\t// in\n    tag_801:\n        /* \"#utility.yul\":33123:33240   */\n    tag_800:\n        /* \"#utility.yul\":33264:33351   */\n      tag_802\n        /* \"#utility.yul\":33343:33350   */\n      dup7\n        /* \"#utility.yul\":33334:33340   */\n      dup3\n        /* \"#utility.yul\":33323:33332   */\n      dup8\n        /* \"#utility.yul\":33319:33341   */\n      add\n        /* \"#utility.yul\":33264:33351   */\n      tag_459\n      jump\t// in\n    tag_802:\n        /* \"#utility.yul\":33254:33351   */\n      swap2\n      pop\n        /* \"#utility.yul\":33049:33361   */\n      pop\n        /* \"#utility.yul\":32521:33368   */\n      swap3\n      pop\n      swap3\n      pop\n      swap3\n      jump\t// out\n        /* \"#utility.yul\":33374:33434   */\n    tag_483:\n        /* \"#utility.yul\":33402:33405   */\n      0x00\n        /* \"#utility.yul\":33423:33428   */\n      dup2\n        /* \"#utility.yul\":33416:33428   */\n      swap1\n      pop\n        /* \"#utility.yul\":33374:33434   */\n      swap2\n      swap1\n      pop\n      jump\t// out\n        /* \"#utility.yul\":33440:33582   */\n    tag_484:\n        /* \"#utility.yul\":33490:33499   */\n      0x00\n        /* \"#utility.yul\":33523:33576   */\n      tag_805\n        /* \"#utility.yul\":33541:33575   */\n      tag_806\n        /* \"#utility.yul\":33550:33574   */\n      tag_807\n        /* \"#utility.yul\":33568:33573   */\n      dup5\n        /* \"#utility.yul\":33550:33574   */\n      tag_424\n      jump\t// in\n    tag_807:\n        /* \"#utility.yul\":33541:33575   */\n      tag_483\n      jump\t// in\n    tag_806:\n        /* \"#utility.yul\":33523:33576   */\n      tag_424\n      jump\t// in\n    tag_805:\n        /* \"#utility.yul\":33510:33576   */\n      swap1\n      pop\n        /* \"#utility.yul\":33440:33582   */\n      swap2\n      swap1\n      pop\n      jump\t// out\n        /* \"#utility.yul\":33588:33714   */\n    tag_485:\n        /* \"#utility.yul\":33638:33647   */\n      0x00\n        /* \"#utility.yul\":33671:33708   */\n      tag_809\n        /* \"#utility.yul\":33702:33707   */\n      dup3\n        /* \"#utility.yul\":33671:33708   */\n      tag_484\n      jump\t// in\n    tag_809:\n        /* \"#utility.yul\":33658:33708   */\n      swap1\n      pop\n        /* \"#utility.yul\":33588:33714   */\n      swap2\n      swap1\n      pop\n      jump\t// out\n        /* \"#utility.yul\":33720:33870   */\n    tag_486:\n        /* \"#utility.yul\":33794:33803   */\n      0x00\n        /* \"#utility.yul\":33827:33864   */\n      tag_811\n        /* \"#utility.yul\":33858:33863   */\n      dup3\n        /* \"#utility.yul\":33827:33864   */\n      tag_485\n      jump\t// in\n    tag_811:\n        /* \"#utility.yul\":33814:33864   */\n      swap1\n      pop\n        /* \"#utility.yul\":33720:33870   */\n      swap2\n      swap1\n      pop\n      jump\t// out\n        /* \"#utility.yul\":33876:34055   */\n    tag_487:\n        /* \"#utility.yul\":33987:34048   */\n      tag_813\n        /* \"#utility.yul\":34042:34047   */\n      dup2\n        /* \"#utility.yul\":33987:34048   */\n      tag_486\n      jump\t// in\n    tag_813:\n        /* \"#utility.yul\":33982:33985   */\n      dup3\n        /* \"#utility.yul\":33975:34049   */\n      mstore\n        /* \"#utility.yul\":33876:34055   */\n      pop\n      pop\n      jump\t// out\n        /* \"#utility.yul\":34061:34331   */\n    tag_101:\n        /* \"#utility.yul\":34178:34182   */\n      0x00\n        /* \"#utility.yul\":34216:34218   */\n      0x20\n        /* \"#utility.yul\":34205:34214   */\n      dup3\n        /* \"#utility.yul\":34201:34219   */\n      add\n        /* \"#utility.yul\":34193:34219   */\n      swap1\n      pop\n        /* \"#utility.yul\":34229:34324   */\n      tag_815\n        /* \"#utility.yul\":34321:34322   */\n      0x00\n        /* \"#utility.yul\":34310:34319   */\n      dup4\n        /* \"#utility.yul\":34306:34323   */\n      add\n        /* \"#utility.yul\":34297:34303   */\n      dup5\n        /* \"#utility.yul\":34229:34324   */\n      tag_487\n      jump\t// in\n    tag_815:\n        /* \"#utility.yul\":34061:34331   */\n      swap3\n      swap2\n      pop\n      pop\n      jump\t// out\n        /* \"#utility.yul\":34337:34517   */\n    tag_108:\n        /* \"#utility.yul\":34385:34462   */\n      0x4e487b7100000000000000000000000000000000000000000000000000000000\n        /* \"#utility.yul\":34382:34383   */\n      0x00\n        /* \"#utility.yul\":34375:34463   */\n      mstore\n        /* \"#utility.yul\":34482:34486   */\n      0x32\n        /* \"#utility.yul\":34479:34480   */\n      0x04\n        /* \"#utility.yul\":34472:34487   */\n      mstore\n        /* \"#utility.yul\":34506:34510   */\n      0x24\n        /* \"#utility.yul\":34503:34504   */\n      0x00\n        /* \"#utility.yul\":34496:34511   */\n      revert\n        /* \"#utility.yul\":34523:34703   */\n    tag_488:\n        /* \"#utility.yul\":34571:34648   */\n      0x4e487b7100000000000000000000000000000000000000000000000000000000\n        /* \"#utility.yul\":34568:34569   */\n      0x00\n        /* \"#utility.yul\":34561:34649   */\n      mstore\n        /* \"#utility.yul\":34668:34672   */\n      0x11\n        /* \"#utility.yul\":34665:34666   */\n      0x04\n        /* \"#utility.yul\":34658:34673   */\n      mstore\n        /* \"#utility.yul\":34692:34696   */\n      0x24\n        /* \"#utility.yul\":34689:34690   */\n      0x00\n        /* \"#utility.yul\":34682:34697   */\n      revert\n        /* \"#utility.yul\":34709:34900   */\n    tag_115:\n        /* \"#utility.yul\":34749:34752   */\n      0x00\n        /* \"#utility.yul\":34768:34788   */\n      tag_819\n        /* \"#utility.yul\":34786:34787   */\n      dup3\n        /* \"#utility.yul\":34768:34788   */\n      tag_421\n      jump\t// in\n    tag_819:\n        /* \"#utility.yul\":34763:34788   */\n      swap2\n      pop\n        /* \"#utility.yul\":34802:34822   */\n      tag_820\n        /* \"#utility.yul\":34820:34821   */\n      dup4\n        /* \"#utility.yul\":34802:34822   */\n      tag_421\n      jump\t// in\n    tag_820:\n        /* \"#utility.yul\":34797:34822   */\n      swap3\n      pop\n        /* \"#utility.yul\":34845:34846   */\n      dup3\n        /* \"#utility.yul\":34842:34843   */\n      dup3\n        /* \"#utility.yul\":34838:34847   */\n      add\n        /* \"#utility.yul\":34831:34847   */\n      swap1\n      pop\n        /* \"#utility.yul\":34866:34869   */\n      dup1\n        /* \"#utility.yul\":34863:34864   */\n      dup3\n        /* \"#utility.yul\":34860:34870   */\n      gt\n        /* \"#utility.yul\":34857:34893   */\n      iszero\n      tag_821\n      jumpi\n        /* \"#utility.yul\":34873:34891   */\n      tag_822\n      tag_488\n      jump\t// in\n    tag_822:\n        /* \"#utility.yul\":34857:34893   */\n    tag_821:\n        /* \"#utility.yul\":34709:34900   */\n      swap3\n      swap2\n      pop\n      pop\n      jump\t// out\n        /* \"#utility.yul\":34906:35075   */\n    tag_489:\n        /* \"#utility.yul\":34990:35001   */\n      0x00\n        /* \"#utility.yul\":35024:35030   */\n      dup3\n        /* \"#utility.yul\":35019:35022   */\n      dup3\n        /* \"#utility.yul\":35012:35031   */\n      mstore\n        /* \"#utility.yul\":35064:35068   */\n      0x20\n        /* \"#utility.yul\":35059:35062   */\n      dup3\n        /* \"#utility.yul\":35055:35069   */\n      add\n        /* \"#utility.yul\":35040:35069   */\n      swap1\n      pop\n        /* \"#utility.yul\":34906:35075   */\n      swap3\n      swap2\n      pop\n      pop\n      jump\t// out\n        /* \"#utility.yul\":35081:35250   */\n    tag_490:\n        /* \"#utility.yul\":35221:35242   */\n      0x466f6f6420646f6573206e6f7420657869737400000000000000000000000000\n        /* \"#utility.yul\":35217:35218   */\n      0x00\n        /* \"#utility.yul\":35209:35215   */\n      dup3\n        /* \"#utility.yul\":35205:35219   */\n      add\n        /* \"#utility.yul\":35198:35243   */\n      mstore\n        /* \"#utility.yul\":35081:35250   */\n      pop\n      jump\t// out\n        /* \"#utility.yul\":35256:35622   */\n    tag_491:\n        /* \"#utility.yul\":35398:35401   */\n      0x00\n        /* \"#utility.yul\":35419:35486   */\n      tag_826\n        /* \"#utility.yul\":35483:35485   */\n      0x13\n        /* \"#utility.yul\":35478:35481   */\n      dup4\n        /* \"#utility.yul\":35419:35486   */\n      tag_489\n      jump\t// in\n    tag_826:\n        /* \"#utility.yul\":35412:35486   */\n      swap2\n      pop\n        /* \"#utility.yul\":35495:35588   */\n      tag_827\n        /* \"#utility.yul\":35584:35587   */\n      dup3\n        /* \"#utility.yul\":35495:35588   */\n      tag_490\n      jump\t// in\n    tag_827:\n        /* \"#utility.yul\":35613:35615   */\n      0x20\n        /* \"#utility.yul\":35608:35611   */\n      dup3\n        /* \"#utility.yul\":35604:35616   */\n      add\n        /* \"#utility.yul\":35597:35616   */\n      swap1\n      pop\n        /* \"#utility.yul\":35256:35622   */\n      swap2\n      swap1\n      pop\n      jump\t// out\n        /* \"#utility.yul\":35628:36047   */\n    tag_125:\n        /* \"#utility.yul\":35794:35798   */\n      0x00\n        /* \"#utility.yul\":35832:35834   */\n      0x20\n        /* \"#utility.yul\":35821:35830   */\n      dup3\n        /* \"#utility.yul\":35817:35835   */\n      add\n        /* \"#utility.yul\":35809:35835   */\n      swap1\n      pop\n        /* \"#utility.yul\":35881:35890   */\n      dup2\n        /* \"#utility.yul\":35875:35879   */\n      dup2\n        /* \"#utility.yul\":35871:35891   */\n      sub\n        /* \"#utility.yul\":35867:35868   */\n      0x00\n        /* \"#utility.yul\":35856:35865   */\n      dup4\n        /* \"#utility.yul\":35852:35869   */\n      add\n        /* \"#utility.yul\":35845:35892   */\n      mstore\n        /* \"#utility.yul\":35909:36040   */\n      tag_829\n        /* \"#utility.yul\":36035:36039   */\n      dup2\n        /* \"#utility.yul\":35909:36040   */\n      tag_491\n      jump\t// in\n    tag_829:\n        /* \"#utility.yul\":35901:36040   */\n      swap1\n      pop\n        /* \"#utility.yul\":35628:36047   */\n      swap2\n      swap1\n      pop\n      jump\t// out\n        /* \"#utility.yul\":36053:36233   */\n    tag_492:\n        /* \"#utility.yul\":36101:36178   */\n      0x4e487b7100000000000000000000000000000000000000000000000000000000\n        /* \"#utility.yul\":36098:36099   */\n      0x00\n        /* \"#utility.yul\":36091:36179   */\n      mstore\n        /* \"#utility.yul\":36198:36202   */\n      0x22\n        /* \"#utility.yul\":36195:36196   */\n      0x04\n        /* \"#utility.yul\":36188:36203   */\n      mstore\n        /* \"#utility.yul\":36222:36226   */\n      0x24\n        /* \"#utility.yul\":36219:36220   */\n      0x00\n        /* \"#utility.yul\":36212:36227   */\n      revert\n        /* \"#utility.yul\":36239:36559   */\n    tag_127:\n        /* \"#utility.yul\":36283:36289   */\n      0x00\n        /* \"#utility.yul\":36320:36321   */\n      0x02\n        /* \"#utility.yul\":36314:36318   */\n      dup3\n        /* \"#utility.yul\":36310:36322   */\n      div\n        /* \"#utility.yul\":36300:36322   */\n      swap1\n      pop\n        /* \"#utility.yul\":36367:36368   */\n      0x01\n        /* \"#utility.yul\":36361:36365   */\n      dup3\n        /* \"#utility.yul\":36357:36369   */\n      and\n        /* \"#utility.yul\":36388:36406   */\n      dup1\n        /* \"#utility.yul\":36378:36459   */\n      tag_832\n      jumpi\n        /* \"#utility.yul\":36444:36448   */\n      0x7f\n        /* \"#utility.yul\":36436:36442   */\n      dup3\n        /* \"#utility.yul\":36432:36449   */\n      and\n        /* \"#utility.yul\":36422:36449   */\n      swap2\n      pop\n        /* \"#utility.yul\":36378:36459   */\n    tag_832:\n        /* \"#utility.yul\":36506:36508   */\n      0x20\n        /* \"#utility.yul\":36498:36504   */\n      dup3\n        /* \"#utility.yul\":36495:36509   */\n      lt\n        /* \"#utility.yul\":36475:36493   */\n      dup2\n        /* \"#utility.yul\":36472:36510   */\n      sub\n        /* \"#utility.yul\":36469:36553   */\n      tag_833\n      jumpi\n        /* \"#utility.yul\":36525:36543   */\n      tag_834\n      tag_492\n      jump\t// in\n    tag_834:\n        /* \"#utility.yul\":36469:36553   */\n    tag_833:\n        /* \"#utility.yul\":36290:36559   */\n      pop\n        /* \"#utility.yul\":36239:36559   */\n      swap2\n      swap1\n      pop\n      jump\t// out\n        /* \"#utility.yul\":36565:36735   */\n    tag_493:\n        /* \"#utility.yul\":36705:36727   */\n      0x466f6f6444657461696c206e6f7420666f756e64000000000000000000000000\n        /* \"#utility.yul\":36701:36702   */\n      0x00\n        /* \"#utility.yul\":36693:36699   */\n      dup3\n        /* \"#utility.yul\":36689:36703   */\n      add\n        /* \"#utility.yul\":36682:36728   */\n      mstore\n        /* \"#utility.yul\":36565:36735   */\n      pop\n      jump\t// out\n        /* \"#utility.yul\":36741:37107   */\n    tag_494:\n        /* \"#utility.yul\":36883:36886   */\n      0x00\n        /* \"#utility.yul\":36904:36971   */\n      tag_837\n        /* \"#utility.yul\":36968:36970   */\n      0x14\n        /* \"#utility.yul\":36963:36966   */\n      dup4\n        /* \"#utility.yul\":36904:36971   */\n      tag_489\n      jump\t// in\n    tag_837:\n        /* \"#utility.yul\":36897:36971   */\n      swap2\n      pop\n        /* \"#utility.yul\":36980:37073   */\n      tag_838\n        /* \"#utility.yul\":37069:37072   */\n      dup3\n        /* \"#utility.yul\":36980:37073   */\n      tag_493\n      jump\t// in\n    tag_838:\n        /* \"#utility.yul\":37098:37100   */\n      0x20\n        /* \"#utility.yul\":37093:37096   */\n      dup3\n        /* \"#utility.yul\":37089:37101   */\n      add\n        /* \"#utility.yul\":37082:37101   */\n      swap1\n      pop\n        /* \"#utility.yul\":36741:37107   */\n      swap2\n      swap1\n      pop\n      jump\t// out\n        /* \"#utility.yul\":37113:37532   */\n    tag_164:\n        /* \"#utility.yul\":37279:37283   */\n      0x00\n        /* \"#utility.yul\":37317:37319   */\n      0x20\n        /* \"#utility.yul\":37306:37315   */\n      dup3\n        /* \"#utility.yul\":37302:37320   */\n      add\n        /* \"#utility.yul\":37294:37320   */\n      swap1\n      pop\n        /* \"#utility.yul\":37366:37375   */\n      dup2\n        /* \"#utility.yul\":37360:37364   */\n      dup2\n        /* \"#utility.yul\":37356:37376   */\n      sub\n        /* \"#utility.yul\":37352:37353   */\n      0x00\n        /* \"#utility.yul\":37341:37350   */\n      dup4\n        /* \"#utility.yul\":37337:37354   */\n      add\n        /* \"#utility.yul\":37330:37377   */\n      mstore\n        /* \"#utility.yul\":37394:37525   */\n      tag_840\n        /* \"#utility.yul\":37520:37524   */\n      dup2\n        /* \"#utility.yul\":37394:37525   */\n      tag_494\n      jump\t// in\n    tag_840:\n        /* \"#utility.yul\":37386:37525   */\n      swap1\n      pop\n        /* \"#utility.yul\":37113:37532   */\n      swap2\n      swap1\n      pop\n      jump\t// out\n        /* \"#utility.yul\":37538:37732   */\n    tag_178:\n        /* \"#utility.yul\":37578:37582   */\n      0x00\n        /* \"#utility.yul\":37598:37618   */\n      tag_842\n        /* \"#utility.yul\":37616:37617   */\n      dup3\n        /* \"#utility.yul\":37598:37618   */\n      tag_421\n      jump\t// in\n    tag_842:\n        /* \"#utility.yul\":37593:37618   */\n      swap2\n      pop\n        /* \"#utility.yul\":37632:37652   */\n      tag_843\n        /* \"#utility.yul\":37650:37651   */\n      dup4\n        /* \"#utility.yul\":37632:37652   */\n      tag_421\n      jump\t// in\n    tag_843:\n        /* \"#utility.yul\":37627:37652   */\n      swap3\n      pop\n        /* \"#utility.yul\":37676:37677   */\n      dup3\n        /* \"#utility.yul\":37673:37674   */\n      dup3\n        /* \"#utility.yul\":37669:37678   */\n      sub\n        /* \"#utility.yul\":37661:37678   */\n      swap1\n      pop\n        /* \"#utility.yul\":37700:37701   */\n      dup2\n        /* \"#utility.yul\":37694:37698   */\n      dup2\n        /* \"#utility.yul\":37691:37702   */\n      gt\n        /* \"#utility.yul\":37688:37725   */\n      iszero\n      tag_844\n      jumpi\n        /* \"#utility.yul\":37705:37723   */\n      tag_845\n      tag_488\n      jump\t// in\n    tag_845:\n        /* \"#utility.yul\":37688:37725   */\n    tag_844:\n        /* \"#utility.yul\":37538:37732   */\n      swap3\n      swap2\n      pop\n      pop\n      jump\t// out\n        /* \"#utility.yul\":37738:37879   */\n    tag_495:\n        /* \"#utility.yul\":37787:37791   */\n      0x00\n        /* \"#utility.yul\":37810:37813   */\n      dup2\n        /* \"#utility.yul\":37802:37813   */\n      swap1\n      pop\n        /* \"#utility.yul\":37833:37836   */\n      dup2\n        /* \"#utility.yul\":37830:37831   */\n      0x00\n        /* \"#utility.yul\":37823:37837   */\n      mstore\n        /* \"#utility.yul\":37867:37871   */\n      0x20\n        /* \"#utility.yul\":37864:37865   */\n      0x00\n        /* \"#utility.yul\":37854:37872   */\n      keccak256\n        /* \"#utility.yul\":37846:37872   */\n      swap1\n      pop\n        /* \"#utility.yul\":37738:37879   */\n      swap2\n      swap1\n      pop\n      jump\t// out\n        /* \"#utility.yul\":37885:37978   */\n    tag_496:\n        /* \"#utility.yul\":37922:37928   */\n      0x00\n        /* \"#utility.yul\":37969:37971   */\n      0x20\n        /* \"#utility.yul\":37964:37966   */\n      0x1f\n        /* \"#utility.yul\":37957:37962   */\n      dup4\n        /* \"#utility.yul\":37953:37967   */\n      add\n        /* \"#utility.yul\":37949:37972   */\n      div\n        /* \"#utility.yul\":37939:37972   */\n      swap1\n      pop\n        /* \"#utility.yul\":37885:37978   */\n      swap2\n      swap1\n      pop\n      jump\t// out\n        /* \"#utility.yul\":37984:38091   */\n    tag_497:\n        /* \"#utility.yul\":38028:38036   */\n      0x00\n        /* \"#utility.yul\":38078:38083   */\n      dup3\n        /* \"#utility.yul\":38072:38076   */\n      dup3\n        /* \"#utility.yul\":38068:38084   */\n      shl\n        /* \"#utility.yul\":38047:38084   */\n      swap1\n      pop\n        /* \"#utility.yul\":37984:38091   */\n      swap3\n      swap2\n      pop\n      pop\n      jump\t// out\n        /* \"#utility.yul\":38097:38490   */\n    tag_498:\n        /* \"#utility.yul\":38166:38172   */\n      0x00\n        /* \"#utility.yul\":38216:38217   */\n      0x08\n        /* \"#utility.yul\":38204:38214   */\n      dup4\n        /* \"#utility.yul\":38200:38218   */\n      mul\n        /* \"#utility.yul\":38239:38336   */\n      tag_850\n        /* \"#utility.yul\":38269:38335   */\n      0xffffffffffffffffffffffffffffffffffffffffffffffffffffffffffffffff\n        /* \"#utility.yul\":38258:38267   */\n      dup3\n        /* \"#utility.yul\":38239:38336   */\n      tag_497\n      jump\t// in\n    tag_850:\n        /* \"#utility.yul\":38357:38396   */\n      tag_851\n        /* \"#utility.yul\":38387:38395   */\n      dup7\n        /* \"#utility.yul\":38376:38385   */\n      dup4\n        /* \"#utility.yul\":38357:38396   */\n      tag_497\n      jump\t// in\n    tag_851:\n        /* \"#utility.yul\":38345:38396   */\n      swap6\n      pop\n        /* \"#utility.yul\":38429:38433   */\n      dup1\n        /* \"#utility.yul\":38425:38434   */\n      not\n        /* \"#utility.yul\":38418:38423   */\n      dup5\n        /* \"#utility.yul\":38414:38435   */\n      and\n        /* \"#utility.yul\":38405:38435   */\n      swap4\n      pop\n        /* \"#utility.yul\":38478:38482   */\n      dup1\n        /* \"#utility.yul\":38468:38476   */\n      dup7\n        /* \"#utility.yul\":38464:38483   */\n      and\n        /* \"#utility.yul\":38457:38462   */\n      dup5\n        /* \"#utility.yul\":38454:38484   */\n      or\n        /* \"#utility.yul\":38444:38484   */\n      swap3\n      pop\n        /* \"#utility.yul\":38173:38490   */\n      pop\n      pop\n        /* \"#utility.yul\":38097:38490   */\n      swap4\n      swap3\n      pop\n      pop\n      pop\n      jump\t// out\n        /* \"#utility.yul\":38496:38638   */\n    tag_499:\n        /* \"#utility.yul\":38546:38555   */\n      0x00\n        /* \"#utility.yul\":38579:38632   */\n      tag_853\n        /* \"#utility.yul\":38597:38631   */\n      tag_854\n        /* \"#utility.yul\":38606:38630   */\n      tag_855\n        /* \"#utility.yul\":38624:38629   */\n      dup5\n        /* \"#utility.yul\":38606:38630   */\n      tag_421\n      jump\t// in\n    tag_855:\n        /* \"#utility.yul\":38597:38631   */\n      tag_483\n      jump\t// in\n    tag_854:\n        /* \"#utility.yul\":38579:38632   */\n      tag_421\n      jump\t// in\n    tag_853:\n        /* \"#utility.yul\":38566:38632   */\n      swap1\n      pop\n        /* \"#utility.yul\":38496:38638   */\n      swap2\n      swap1\n      pop\n      jump\t// out\n        /* \"#utility.yul\":38644:38719   */\n    tag_500:\n        /* \"#utility.yul\":38687:38690   */\n      0x00\n        /* \"#utility.yul\":38708:38713   */\n      dup2\n        /* \"#utility.yul\":38701:38713   */\n      swap1\n      pop\n        /* \"#utility.yul\":38644:38719   */\n      swap2\n      swap1\n      pop\n      jump\t// out\n        /* \"#utility.yul\":38725:38994   */\n    tag_501:\n        /* \"#utility.yul\":38835:38874   */\n      tag_858\n        /* \"#utility.yul\":38866:38873   */\n      dup4\n        /* \"#utility.yul\":38835:38874   */\n      tag_499\n      jump\t// in\n    tag_858:\n        /* \"#utility.yul\":38896:38987   */\n      tag_859\n        /* \"#utility.yul\":38945:38986   */\n      tag_860\n        /* \"#utility.yul\":38969:38985   */\n      dup3\n        /* \"#utility.yul\":38945:38986   */\n      tag_500\n      jump\t// in\n    tag_860:\n        /* \"#utility.yul\":38937:38943   */\n      dup5\n        /* \"#utility.yul\":38930:38934   */\n      dup5\n        /* \"#utility.yul\":38924:38935   */\n      sload\n        /* \"#utility.yul\":38896:38987   */\n      tag_498\n      jump\t// in\n    tag_859:\n        /* \"#utility.yul\":38890:38894   */\n      dup3\n        /* \"#utility.yul\":38883:38988   */\n      sstore\n        /* \"#utility.yul\":38801:38994   */\n      pop\n        /* \"#utility.yul\":38725:38994   */\n      pop\n      pop\n      pop\n      jump\t// out\n        /* \"#utility.yul\":39000:39073   */\n    tag_502:\n        /* \"#utility.yul\":39045:39048   */\n      0x00\n        /* \"#utility.yul\":39066:39067   */\n      0x00\n        /* \"#utility.yul\":39059:39067   */\n      swap1\n      pop\n        /* \"#utility.yul\":39000:39073   */\n      swap1\n      jump\t// out\n        /* \"#utility.yul\":39079:39268   */\n    tag_503:\n        /* \"#utility.yul\":39156:39188   */\n      tag_863\n      tag_502\n      jump\t// in\n    tag_863:\n        /* \"#utility.yul\":39197:39262   */\n      tag_864\n        /* \"#utility.yul\":39255:39261   */\n      dup2\n        /* \"#utility.yul\":39247:39253   */\n      dup5\n        /* \"#utility.yul\":39241:39245   */\n      dup5\n        /* \"#utility.yul\":39197:39262   */\n      tag_501\n      jump\t// in\n    tag_864:\n        /* \"#utility.yul\":39132:39268   */\n      pop\n        /* \"#utility.yul\":39079:39268   */\n      pop\n      pop\n      jump\t// out\n        /* \"#utility.yul\":39274:39460   */\n    tag_504:\n        /* \"#utility.yul\":39334:39454   */\n    tag_866:\n        /* \"#utility.yul\":39351:39354   */\n      dup2\n        /* \"#utility.yul\":39344:39349   */\n      dup2\n        /* \"#utility.yul\":39341:39355   */\n      lt\n        /* \"#utility.yul\":39334:39454   */\n      iszero\n      tag_868\n      jumpi\n        /* \"#utility.yul\":39405:39444   */\n      tag_869\n        /* \"#utility.yul\":39442:39443   */\n      0x00\n        /* \"#utility.yul\":39435:39440   */\n      dup3\n        /* \"#utility.yul\":39405:39444   */\n      tag_503\n      jump\t// in\n    tag_869:\n        /* \"#utility.yul\":39378:39379   */\n      0x01\n        /* \"#utility.yul\":39371:39376   */\n      dup2\n        /* \"#utility.yul\":39367:39380   */\n      add\n        /* \"#utility.yul\":39358:39380   */\n      swap1\n      pop\n        /* \"#utility.yul\":39334:39454   */\n      jump(tag_866)\n    tag_868:\n        /* \"#utility.yul\":39274:39460   */\n      pop\n      pop\n      jump\t// out\n        /* \"#utility.yul\":39466:40009   */\n    tag_505:\n        /* \"#utility.yul\":39567:39569   */\n      0x1f\n        /* \"#utility.yul\":39562:39565   */\n      dup3\n        /* \"#utility.yul\":39559:39570   */\n      gt\n        /* \"#utility.yul\":39556:40002   */\n      iszero\n      tag_871\n      jumpi\n        /* \"#utility.yul\":39601:39639   */\n      tag_872\n        /* \"#utility.yul\":39633:39638   */\n      dup2\n        /* \"#utility.yul\":39601:39639   */\n      tag_495\n      jump\t// in\n    tag_872:\n        /* \"#utility.yul\":39685:39714   */\n      tag_873\n        /* \"#utility.yul\":39703:39713   */\n      dup5\n        /* \"#utility.yul\":39685:39714   */\n      tag_496\n      jump\t// in\n    tag_873:\n        /* \"#utility.yul\":39675:39683   */\n      dup2\n        /* \"#utility.yul\":39671:39715   */\n      add\n        /* \"#utility.yul\":39868:39870   */\n      0x20\n        /* \"#utility.yul\":39856:39866   */\n      dup6\n        /* \"#utility.yul\":39853:39871   */\n      lt\n        /* \"#utility.yul\":39850:39899   */\n      iszero\n      tag_874\n      jumpi\n        /* \"#utility.yul\":39889:39897   */\n      dup2\n        /* \"#utility.yul\":39874:39897   */\n      swap1\n      pop\n        /* \"#utility.yul\":39850:39899   */\n    tag_874:\n        /* \"#utility.yul\":39912:39992   */\n      tag_875\n        /* \"#utility.yul\":39968:39990   */\n      tag_876\n        /* \"#utility.yul\":39986:39989   */\n      dup6\n        /* \"#utility.yul\":39968:39990   */\n      tag_496\n      jump\t// in\n    tag_876:\n        /* \"#utility.yul\":39958:39966   */\n      dup4\n        /* \"#utility.yul\":39954:39991   */\n      add\n        /* \"#utility.yul\":39941:39952   */\n      dup3\n        /* \"#utility.yul\":39912:39992   */\n      tag_504\n      jump\t// in\n    tag_875:\n        /* \"#utility.yul\":39571:40002   */\n      pop\n      pop\n        /* \"#utility.yul\":39556:40002   */\n    tag_871:\n        /* \"#utility.yul\":39466:40009   */\n      pop\n      pop\n      pop\n      jump\t// out\n        /* \"#utility.yul\":40015:40132   */\n    tag_506:\n        /* \"#utility.yul\":40069:40077   */\n      0x00\n        /* \"#utility.yul\":40119:40124   */\n      dup3\n        /* \"#utility.yul\":40113:40117   */\n      dup3\n        /* \"#utility.yul\":40109:40125   */\n      shr\n        /* \"#utility.yul\":40088:40125   */\n      swap1\n      pop\n        /* \"#utility.yul\":40015:40132   */\n      swap3\n      swap2\n      pop\n      pop\n      jump\t// out\n        /* \"#utility.yul\":40138:40307   */\n    tag_507:\n        /* \"#utility.yul\":40182:40188   */\n      0x00\n        /* \"#utility.yul\":40215:40266   */\n      tag_879\n        /* \"#utility.yul\":40263:40264   */\n      0x00\n        /* \"#utility.yul\":40259:40265   */\n      not\n        /* \"#utility.yul\":40251:40256   */\n      dup5\n        /* \"#utility.yul\":40248:40249   */\n      0x08\n        /* \"#utility.yul\":40244:40257   */\n      mul\n        /* \"#utility.yul\":40215:40266   */\n      tag_506\n      jump\t// in\n    tag_879:\n        /* \"#utility.yul\":40211:40267   */\n      not\n        /* \"#utility.yul\":40296:40300   */\n      dup1\n        /* \"#utility.yul\":40290:40294   */\n      dup4\n        /* \"#utility.yul\":40286:40301   */\n      and\n        /* \"#utility.yul\":40276:40301   */\n      swap2\n      pop\n        /* \"#utility.yul\":40189:40307   */\n      pop\n        /* \"#utility.yul\":40138:40307   */\n      swap3\n      swap2\n      pop\n      pop\n      jump\t// out\n        /* \"#utility.yul\":40312:40607   */\n    tag_508:\n        /* \"#utility.yul\":40388:40392   */\n      0x00\n        /* \"#utility.yul\":40534:40563   */\n      tag_881\n        /* \"#utility.yul\":40559:40562   */\n      dup4\n        /* \"#utility.yul\":40553:40557   */\n      dup4\n        /* \"#utility.yul\":40534:40563   */\n      tag_507\n      jump\t// in\n    tag_881:\n        /* \"#utility.yul\":40526:40563   */\n      swap2\n      pop\n        /* \"#utility.yul\":40596:40599   */\n      dup3\n        /* \"#utility.yul\":40593:40594   */\n      0x02\n        /* \"#utility.yul\":40589:40600   */\n      mul\n        /* \"#utility.yul\":40583:40587   */\n      dup3\n        /* \"#utility.yul\":40580:40601   */\n      or\n        /* \"#utility.yul\":40572:40601   */\n      swap1\n      pop\n        /* \"#utility.yul\":40312:40607   */\n      swap3\n      swap2\n      pop\n      pop\n      jump\t// out\n        /* \"#utility.yul\":40612:42007   */\n    tag_191:\n        /* \"#utility.yul\":40729:40766   */\n      tag_883\n        /* \"#utility.yul\":40762:40765   */\n      dup3\n        /* \"#utility.yul\":40729:40766   */\n      tag_430\n      jump\t// in\n    tag_883:\n        /* \"#utility.yul\":40831:40849   */\n      0xffffffffffffffff\n        /* \"#utility.yul\":40823:40829   */\n      dup2\n        /* \"#utility.yul\":40820:40850   */\n      gt\n        /* \"#utility.yul\":40817:40873   */\n      iszero\n      tag_884\n      jumpi\n        /* \"#utility.yul\":40853:40871   */\n      tag_885\n      tag_304\n      jump\t// in\n    tag_885:\n        /* \"#utility.yul\":40817:40873   */\n    tag_884:\n        /* \"#utility.yul\":40897:40935   */\n      tag_886\n        /* \"#utility.yul\":40929:40933   */\n      dup3\n        /* \"#utility.yul\":40923:40934   */\n      sload\n        /* \"#utility.yul\":40897:40935   */\n      tag_127\n      jump\t// in\n    tag_886:\n        /* \"#utility.yul\":40982:41049   */\n      tag_887\n        /* \"#utility.yul\":41042:41048   */\n      dup3\n        /* \"#utility.yul\":41034:41040   */\n      dup3\n        /* \"#utility.yul\":41028:41032   */\n      dup6\n        /* \"#utility.yul\":40982:41049   */\n      tag_505\n      jump\t// in\n    tag_887:\n        /* \"#utility.yul\":41076:41077   */\n      0x00\n        /* \"#utility.yul\":41100:41104   */\n      0x20\n        /* \"#utility.yul\":41087:41104   */\n      swap1\n      pop\n        /* \"#utility.yul\":41132:41134   */\n      0x1f\n        /* \"#utility.yul\":41124:41130   */\n      dup4\n        /* \"#utility.yul\":41121:41135   */\n      gt\n        /* \"#utility.yul\":41149:41150   */\n      0x01\n        /* \"#utility.yul\":41144:41762   */\n      dup2\n      eq\n      tag_889\n      jumpi\n        /* \"#utility.yul\":41806:41807   */\n      0x00\n        /* \"#utility.yul\":41823:41829   */\n      dup5\n        /* \"#utility.yul\":41820:41897   */\n      iszero\n      tag_890\n      jumpi\n        /* \"#utility.yul\":41872:41881   */\n      dup3\n        /* \"#utility.yul\":41867:41870   */\n      dup8\n        /* \"#utility.yul\":41863:41882   */\n      add\n        /* \"#utility.yul\":41857:41883   */\n      mload\n        /* \"#utility.yul\":41848:41883   */\n      swap1\n      pop\n        /* \"#utility.yul\":41820:41897   */\n    tag_890:\n        /* \"#utility.yul\":41923:41990   */\n      tag_891\n        /* \"#utility.yul\":41983:41989   */\n      dup6\n        /* \"#utility.yul\":41976:41981   */\n      dup3\n        /* \"#utility.yul\":41923:41990   */\n      tag_508\n      jump\t// in\n    tag_891:\n        /* \"#utility.yul\":41917:41921   */\n      dup7\n        /* \"#utility.yul\":41910:41991   */\n      sstore\n        /* \"#utility.yul\":41779:42001   */\n      pop\n        /* \"#utility.yul\":41114:42001   */\n      jump(tag_888)\n        /* \"#utility.yul\":41144:41762   */\n    tag_889:\n        /* \"#utility.yul\":41196:41200   */\n      0x1f\n        /* \"#utility.yul\":41192:41201   */\n      not\n        /* \"#utility.yul\":41184:41190   */\n      dup5\n        /* \"#utility.yul\":41180:41202   */\n      and\n        /* \"#utility.yul\":41230:41267   */\n      tag_892\n        /* \"#utility.yul\":41262:41266   */\n      dup7\n        /* \"#utility.yul\":41230:41267   */\n      tag_495\n      jump\t// in\n    tag_892:\n        /* \"#utility.yul\":41289:41290   */\n      0x00\n        /* \"#utility.yul\":41303:41511   */\n    tag_893:\n        /* \"#utility.yul\":41317:41324   */\n      dup3\n        /* \"#utility.yul\":41314:41315   */\n      dup2\n        /* \"#utility.yul\":41311:41325   */\n      lt\n        /* \"#utility.yul\":41303:41511   */\n      iszero\n      tag_895\n      jumpi\n        /* \"#utility.yul\":41396:41405   */\n      dup5\n        /* \"#utility.yul\":41391:41394   */\n      dup10\n        /* \"#utility.yul\":41387:41406   */\n      add\n        /* \"#utility.yul\":41381:41407   */\n      mload\n        /* \"#utility.yul\":41373:41379   */\n      dup3\n        /* \"#utility.yul\":41366:41408   */\n      sstore\n        /* \"#utility.yul\":41447:41448   */\n      0x01\n        /* \"#utility.yul\":41439:41445   */\n      dup3\n        /* \"#utility.yul\":41435:41449   */\n      add\n        /* \"#utility.yul\":41425:41449   */\n      swap2\n      pop\n        /* \"#utility.yul\":41494:41496   */\n      0x20\n        /* \"#utility.yul\":41483:41492   */\n      dup6\n        /* \"#utility.yul\":41479:41497   */\n      add\n        /* \"#utility.yul\":41466:41497   */\n      swap5\n      pop\n        /* \"#utility.yul\":41340:41344   */\n      0x20\n        /* \"#utility.yul\":41337:41338   */\n      dup2\n        /* \"#utility.yul\":41333:41345   */\n      add\n        /* \"#utility.yul\":41328:41345   */\n      swap1\n      pop\n        /* \"#utility.yul\":41303:41511   */\n      jump(tag_893)\n    tag_895:\n        /* \"#utility.yul\":41539:41545   */\n      dup7\n        /* \"#utility.yul\":41530:41537   */\n      dup4\n        /* \"#utility.yul\":41527:41546   */\n      lt\n        /* \"#utility.yul\":41524:41703   */\n      iszero\n      tag_896\n      jumpi\n        /* \"#utility.yul\":41597:41606   */\n      dup5\n        /* \"#utility.yul\":41592:41595   */\n      dup10\n        /* \"#utility.yul\":41588:41607   */\n      add\n        /* \"#utility.yul\":41582:41608   */\n      mload\n        /* \"#utility.yul\":41640:41688   */\n      tag_897\n        /* \"#utility.yul\":41682:41686   */\n      0x1f\n        /* \"#utility.yul\":41674:41680   */\n      dup10\n        /* \"#utility.yul\":41670:41687   */\n      and\n        /* \"#utility.yul\":41659:41668   */\n      dup3\n        /* \"#utility.yul\":41640:41688   */\n      tag_507\n      jump\t// in\n    tag_897:\n        /* \"#utility.yul\":41632:41638   */\n      dup4\n        /* \"#utility.yul\":41625:41689   */\n      sstore\n        /* \"#utility.yul\":41547:41703   */\n      pop\n        /* \"#utility.yul\":41524:41703   */\n    tag_896:\n        /* \"#utility.yul\":41749:41750   */\n      0x01\n        /* \"#utility.yul\":41745:41746   */\n      0x02\n        /* \"#utility.yul\":41737:41743   */\n      dup9\n        /* \"#utility.yul\":41733:41747   */\n      mul\n        /* \"#utility.yul\":41729:41751   */\n      add\n        /* \"#utility.yul\":41723:41727   */\n      dup9\n        /* \"#utility.yul\":41716:41752   */\n      sstore\n        /* \"#utility.yul\":41151:41762   */\n      pop\n      pop\n      pop\n        /* \"#utility.yul\":41114:42001   */\n    tag_888:\n      pop\n        /* \"#utility.yul\":40704:42007   */\n      pop\n      pop\n      pop\n        /* \"#utility.yul\":40612:42007   */\n      pop\n      pop\n      jump\t// out\n        /* \"#utility.yul\":42013:42193   */\n    tag_194:\n        /* \"#utility.yul\":42061:42138   */\n      0x4e487b7100000000000000000000000000000000000000000000000000000000\n        /* \"#utility.yul\":42058:42059   */\n      0x00\n        /* \"#utility.yul\":42051:42139   */\n      mstore\n        /* \"#utility.yul\":42158:42162   */\n      0x31\n        /* \"#utility.yul\":42155:42156   */\n      0x04\n        /* \"#utility.yul\":42148:42163   */\n      mstore\n        /* \"#utility.yul\":42182:42186   */\n      0x24\n        /* \"#utility.yul\":42179:42180   */\n      0x00\n        /* \"#utility.yul\":42172:42187   */\n      revert\n        /* \"#utility.yul\":42199:42531   */\n    tag_199:\n        /* \"#utility.yul\":42320:42324   */\n      0x00\n        /* \"#utility.yul\":42358:42360   */\n      0x40\n        /* \"#utility.yul\":42347:42356   */\n      dup3\n        /* \"#utility.yul\":42343:42361   */\n      add\n        /* \"#utility.yul\":42335:42361   */\n      swap1\n      pop\n        /* \"#utility.yul\":42371:42442   */\n      tag_900\n        /* \"#utility.yul\":42439:42440   */\n      0x00\n        /* \"#utility.yul\":42428:42437   */\n      dup4\n        /* \"#utility.yul\":42424:42441   */\n      add\n        /* \"#utility.yul\":42415:42421   */\n      dup6\n        /* \"#utility.yul\":42371:42442   */\n      tag_428\n      jump\t// in\n    tag_900:\n        /* \"#utility.yul\":42452:42524   */\n      tag_901\n        /* \"#utility.yul\":42520:42522   */\n      0x20\n        /* \"#utility.yul\":42509:42518   */\n      dup4\n        /* \"#utility.yul\":42505:42523   */\n      add\n        /* \"#utility.yul\":42496:42502   */\n      dup5\n        /* \"#utility.yul\":42452:42524   */\n      tag_428\n      jump\t// in\n    tag_901:\n        /* \"#utility.yul\":42199:42531   */\n      swap4\n      swap3\n      pop\n      pop\n      pop\n      jump\t// out\n        /* \"#utility.yul\":42537:42712   */\n    tag_509:\n        /* \"#utility.yul\":42677:42704   */\n      0x466f6f6444657461696c20646f6573206e6f7420657869737400000000000000\n        /* \"#utility.yul\":42673:42674   */\n      0x00\n        /* \"#utility.yul\":42665:42671   */\n      dup3\n        /* \"#utility.yul\":42661:42675   */\n      add\n        /* \"#utility.yul\":42654:42705   */\n      mstore\n        /* \"#utility.yul\":42537:42712   */\n      pop\n      jump\t// out\n        /* \"#utility.yul\":42718:43084   */\n    tag_510:\n        /* \"#utility.yul\":42860:42863   */\n      0x00\n        /* \"#utility.yul\":42881:42948   */\n      tag_904\n        /* \"#utility.yul\":42945:42947   */\n      0x19\n        /* \"#utility.yul\":42940:42943   */\n      dup4\n        /* \"#utility.yul\":42881:42948   */\n      tag_489\n      jump\t// in\n    tag_904:\n        /* \"#utility.yul\":42874:42948   */\n      swap2\n      pop\n        /* \"#utility.yul\":42957:43050   */\n      tag_905\n        /* \"#utility.yul\":43046:43049   */\n      dup3\n        /* \"#utility.yul\":42957:43050   */\n      tag_509\n      jump\t// in\n    tag_905:\n        /* \"#utility.yul\":43075:43077   */\n      0x20\n        /* \"#utility.yul\":43070:43073   */\n      dup3\n        /* \"#utility.yul\":43066:43078   */\n      add\n        /* \"#utility.yul\":43059:43078   */\n      swap1\n      pop\n        /* \"#utility.yul\":42718:43084   */\n      swap2\n      swap1\n      pop\n      jump\t// out\n        /* \"#utility.yul\":43090:43509   */\n    tag_202:\n        /* \"#utility.yul\":43256:43260   */\n      0x00\n        /* \"#utility.yul\":43294:43296   */\n      0x20\n        /* \"#utility.yul\":43283:43292   */\n      dup3\n        /* \"#utility.yul\":43279:43297   */\n      add\n        /* \"#utility.yul\":43271:43297   */\n      swap1\n      pop\n        /* \"#utility.yul\":43343:43352   */\n      dup2\n        /* \"#utility.yul\":43337:43341   */\n      dup2\n        /* \"#utility.yul\":43333:43353   */\n      sub\n        /* \"#utility.yul\":43329:43330   */\n      0x00\n        /* \"#utility.yul\":43318:43327   */\n      dup4\n        /* \"#utility.yul\":43314:43331   */\n      add\n        /* \"#utility.yul\":43307:43354   */\n      mstore\n        /* \"#utility.yul\":43371:43502   */\n      tag_907\n        /* \"#utility.yul\":43497:43501   */\n      dup2\n        /* \"#utility.yul\":43371:43502   */\n      tag_510\n      jump\t// in\n    tag_907:\n        /* \"#utility.yul\":43363:43502   */\n      swap1\n      pop\n        /* \"#utility.yul\":43090:43509   */\n      swap2\n      swap1\n      pop\n      jump\t// out\n        /* \"#utility.yul\":43515:43748   */\n    tag_210:\n        /* \"#utility.yul\":43554:43557   */\n      0x00\n        /* \"#utility.yul\":43577:43601   */\n      tag_909\n        /* \"#utility.yul\":43595:43600   */\n      dup3\n        /* \"#utility.yul\":43577:43601   */\n      tag_421\n      jump\t// in\n    tag_909:\n        /* \"#utility.yul\":43568:43601   */\n      swap2\n      pop\n        /* \"#utility.yul\":43623:43689   */\n      0xffffffffffffffffffffffffffffffffffffffffffffffffffffffffffffffff\n        /* \"#utility.yul\":43616:43621   */\n      dup3\n        /* \"#utility.yul\":43613:43690   */\n      sub\n        /* \"#utility.yul\":43610:43713   */\n      tag_910\n      jumpi\n        /* \"#utility.yul\":43693:43711   */\n      tag_911\n      tag_488\n      jump\t// in\n    tag_911:\n        /* \"#utility.yul\":43610:43713   */\n    tag_910:\n        /* \"#utility.yul\":43740:43741   */\n      0x01\n        /* \"#utility.yul\":43733:43738   */\n      dup3\n        /* \"#utility.yul\":43729:43742   */\n      add\n        /* \"#utility.yul\":43722:43742   */\n      swap1\n      pop\n        /* \"#utility.yul\":43515:43748   */\n      swap2\n      swap1\n      pop\n      jump\t// out\n        /* \"#utility.yul\":43754:43897   */\n    tag_511:\n        /* \"#utility.yul\":43811:43816   */\n      0x00\n        /* \"#utility.yul\":43842:43848   */\n      dup2\n        /* \"#utility.yul\":43836:43849   */\n      mload\n        /* \"#utility.yul\":43827:43849   */\n      swap1\n      pop\n        /* \"#utility.yul\":43858:43891   */\n      tag_913\n        /* \"#utility.yul\":43885:43890   */\n      dup2\n        /* \"#utility.yul\":43858:43891   */\n      tag_422\n      jump\t// in\n    tag_913:\n        /* \"#utility.yul\":43754:43897   */\n      swap3\n      swap2\n      pop\n      pop\n      jump\t// out\n        /* \"#utility.yul\":43903:44337   */\n    tag_512:\n        /* \"#utility.yul\":43992:43997   */\n      0x00\n        /* \"#utility.yul\":44017:44083   */\n      tag_915\n        /* \"#utility.yul\":44033:44082   */\n      tag_916\n        /* \"#utility.yul\":44075:44081   */\n      dup5\n        /* \"#utility.yul\":44033:44082   */\n      tag_455\n      jump\t// in\n    tag_916:\n        /* \"#utility.yul\":44017:44083   */\n      tag_449\n      jump\t// in\n    tag_915:\n        /* \"#utility.yul\":44008:44083   */\n      swap1\n      pop\n        /* \"#utility.yul\":44106:44112   */\n      dup3\n        /* \"#utility.yul\":44099:44104   */\n      dup2\n        /* \"#utility.yul\":44092:44113   */\n      mstore\n        /* \"#utility.yul\":44144:44148   */\n      0x20\n        /* \"#utility.yul\":44137:44142   */\n      dup2\n        /* \"#utility.yul\":44133:44149   */\n      add\n        /* \"#utility.yul\":44182:44185   */\n      dup5\n        /* \"#utility.yul\":44173:44179   */\n      dup5\n        /* \"#utility.yul\":44168:44171   */\n      dup5\n        /* \"#utility.yul\":44164:44180   */\n      add\n        /* \"#utility.yul\":44161:44186   */\n      gt\n        /* \"#utility.yul\":44158:44270   */\n      iszero\n      tag_917\n      jumpi\n        /* \"#utility.yul\":44189:44268   */\n      tag_918\n      tag_454\n      jump\t// in\n    tag_918:\n        /* \"#utility.yul\":44158:44270   */\n    tag_917:\n        /* \"#utility.yul\":44279:44331   */\n      tag_919\n        /* \"#utility.yul\":44324:44330   */\n      dup5\n        /* \"#utility.yul\":44319:44322   */\n      dup3\n        /* \"#utility.yul\":44314:44317   */\n      dup6\n        /* \"#utility.yul\":44279:44331   */\n      tag_432\n      jump\t// in\n    tag_919:\n        /* \"#utility.yul\":43998:44337   */\n      pop\n        /* \"#utility.yul\":43903:44337   */\n      swap4\n      swap3\n      pop\n      pop\n      pop\n      jump\t// out\n        /* \"#utility.yul\":44357:44712   */\n    tag_513:\n        /* \"#utility.yul\":44424:44429   */\n      0x00\n        /* \"#utility.yul\":44473:44476   */\n      dup3\n        /* \"#utility.yul\":44466:44470   */\n      0x1f\n        /* \"#utility.yul\":44458:44464   */\n      dup4\n        /* \"#utility.yul\":44454:44471   */\n      add\n        /* \"#utility.yul\":44450:44477   */\n      slt\n        /* \"#utility.yul\":44440:44562   */\n      tag_921\n      jumpi\n        /* \"#utility.yul\":44481:44560   */\n      tag_922\n      tag_447\n      jump\t// in\n    tag_922:\n        /* \"#utility.yul\":44440:44562   */\n    tag_921:\n        /* \"#utility.yul\":44591:44597   */\n      dup2\n        /* \"#utility.yul\":44585:44598   */\n      mload\n        /* \"#utility.yul\":44616:44706   */\n      tag_923\n        /* \"#utility.yul\":44702:44705   */\n      dup5\n        /* \"#utility.yul\":44694:44700   */\n      dup3\n        /* \"#utility.yul\":44687:44691   */\n      0x20\n        /* \"#utility.yul\":44679:44685   */\n      dup7\n        /* \"#utility.yul\":44675:44692   */\n      add\n        /* \"#utility.yul\":44616:44706   */\n      tag_512\n      jump\t// in\n    tag_923:\n        /* \"#utility.yul\":44607:44706   */\n      swap2\n      pop\n        /* \"#utility.yul\":44430:44712   */\n      pop\n        /* \"#utility.yul\":44357:44712   */\n      swap3\n      swap2\n      pop\n      pop\n      jump\t// out\n        /* \"#utility.yul\":44741:45518   */\n    tag_514:\n        /* \"#utility.yul\":44827:44832   */\n      0x00\n        /* \"#utility.yul\":44871:44875   */\n      0x40\n        /* \"#utility.yul\":44859:44868   */\n      dup3\n        /* \"#utility.yul\":44854:44857   */\n      dup5\n        /* \"#utility.yul\":44850:44869   */\n      sub\n        /* \"#utility.yul\":44846:44876   */\n      slt\n        /* \"#utility.yul\":44843:44960   */\n      iszero\n      tag_925\n      jumpi\n        /* \"#utility.yul\":44879:44958   */\n      tag_926\n      tag_452\n      jump\t// in\n    tag_926:\n        /* \"#utility.yul\":44843:44960   */\n    tag_925:\n        /* \"#utility.yul\":44978:44999   */\n      tag_927\n        /* \"#utility.yul\":44994:44998   */\n      0x40\n        /* \"#utility.yul\":44978:44999   */\n      tag_449\n      jump\t// in\n    tag_927:\n        /* \"#utility.yul\":44969:44999   */\n      swap1\n      pop\n        /* \"#utility.yul\":45064:45065   */\n      0x00\n        /* \"#utility.yul\":45104:45164   */\n      tag_928\n        /* \"#utility.yul\":45160:45163   */\n      dup5\n        /* \"#utility.yul\":45151:45157   */\n      dup3\n        /* \"#utility.yul\":45140:45149   */\n      dup6\n        /* \"#utility.yul\":45136:45158   */\n      add\n        /* \"#utility.yul\":45104:45164   */\n      tag_511\n      jump\t// in\n    tag_928:\n        /* \"#utility.yul\":45097:45101   */\n      0x00\n        /* \"#utility.yul\":45090:45095   */\n      dup4\n        /* \"#utility.yul\":45086:45102   */\n      add\n        /* \"#utility.yul\":45079:45165   */\n      mstore\n        /* \"#utility.yul\":45009:45176   */\n      pop\n        /* \"#utility.yul\":45256:45258   */\n      0x20\n        /* \"#utility.yul\":45245:45254   */\n      dup3\n        /* \"#utility.yul\":45241:45259   */\n      add\n        /* \"#utility.yul\":45235:45260   */\n      mload\n        /* \"#utility.yul\":45287:45305   */\n      0xffffffffffffffff\n        /* \"#utility.yul\":45279:45285   */\n      dup2\n        /* \"#utility.yul\":45276:45306   */\n      gt\n        /* \"#utility.yul\":45273:45390   */\n      iszero\n      tag_929\n      jumpi\n        /* \"#utility.yul\":45309:45388   */\n      tag_930\n      tag_453\n      jump\t// in\n    tag_930:\n        /* \"#utility.yul\":45273:45390   */\n    tag_929:\n        /* \"#utility.yul\":45429:45499   */\n      tag_931\n        /* \"#utility.yul\":45495:45498   */\n      dup5\n        /* \"#utility.yul\":45486:45492   */\n      dup3\n        /* \"#utility.yul\":45475:45484   */\n      dup6\n        /* \"#utility.yul\":45471:45493   */\n      add\n        /* \"#utility.yul\":45429:45499   */\n      tag_513\n      jump\t// in\n    tag_931:\n        /* \"#utility.yul\":45422:45426   */\n      0x20\n        /* \"#utility.yul\":45415:45420   */\n      dup4\n        /* \"#utility.yul\":45411:45427   */\n      add\n        /* \"#utility.yul\":45404:45500   */\n      mstore\n        /* \"#utility.yul\":45186:45511   */\n      pop\n        /* \"#utility.yul\":44741:45518   */\n      swap3\n      swap2\n      pop\n      pop\n      jump\t// out\n        /* \"#utility.yul\":45524:46080   */\n    tag_227:\n        /* \"#utility.yul\":45620:45626   */\n      0x00\n        /* \"#utility.yul\":45669:45671   */\n      0x20\n        /* \"#utility.yul\":45657:45666   */\n      dup3\n        /* \"#utility.yul\":45648:45655   */\n      dup5\n        /* \"#utility.yul\":45644:45667   */\n      sub\n        /* \"#utility.yul\":45640:45672   */\n      slt\n        /* \"#utility.yul\":45637:45756   */\n      iszero\n      tag_933\n      jumpi\n        /* \"#utility.yul\":45675:45754   */\n      tag_934\n      tag_419\n      jump\t// in\n    tag_934:\n        /* \"#utility.yul\":45637:45756   */\n    tag_933:\n        /* \"#utility.yul\":45816:45817   */\n      0x00\n        /* \"#utility.yul\":45805:45814   */\n      dup3\n        /* \"#utility.yul\":45801:45818   */\n      add\n        /* \"#utility.yul\":45795:45819   */\n      mload\n        /* \"#utility.yul\":45846:45864   */\n      0xffffffffffffffff\n        /* \"#utility.yul\":45838:45844   */\n      dup2\n        /* \"#utility.yul\":45835:45865   */\n      gt\n        /* \"#utility.yul\":45832:45949   */\n      iszero\n      tag_935\n      jumpi\n        /* \"#utility.yul\":45868:45947   */\n      tag_936\n      tag_420\n      jump\t// in\n    tag_936:\n        /* \"#utility.yul\":45832:45949   */\n    tag_935:\n        /* \"#utility.yul\":45973:46063   */\n      tag_937\n        /* \"#utility.yul\":46055:46062   */\n      dup5\n        /* \"#utility.yul\":46046:46052   */\n      dup3\n        /* \"#utility.yul\":46035:46044   */\n      dup6\n        /* \"#utility.yul\":46031:46053   */\n      add\n        /* \"#utility.yul\":45973:46063   */\n      tag_514\n      jump\t// in\n    tag_937:\n        /* \"#utility.yul\":45963:46063   */\n      swap2\n      pop\n        /* \"#utility.yul\":45766:46073   */\n      pop\n        /* \"#utility.yul\":45524:46080   */\n      swap3\n      swap2\n      pop\n      pop\n      jump\t// out\n        /* \"#utility.yul\":46086:46259   */\n    tag_515:\n        /* \"#utility.yul\":46226:46251   */\n      0x43617465676f727920646f6573206e6f74206578697374000000000000000000\n        /* \"#utility.yul\":46222:46223   */\n      0x00\n        /* \"#utility.yul\":46214:46220   */\n      dup3\n        /* \"#utility.yul\":46210:46224   */\n      add\n        /* \"#utility.yul\":46203:46252   */\n      mstore\n        /* \"#utility.yul\":46086:46259   */\n      pop\n      jump\t// out\n        /* \"#utility.yul\":46265:46631   */\n    tag_516:\n        /* \"#utility.yul\":46407:46410   */\n      0x00\n        /* \"#utility.yul\":46428:46495   */\n      tag_940\n        /* \"#utility.yul\":46492:46494   */\n      0x17\n        /* \"#utility.yul\":46487:46490   */\n      dup4\n        /* \"#utility.yul\":46428:46495   */\n      tag_489\n      jump\t// in\n    tag_940:\n        /* \"#utility.yul\":46421:46495   */\n      swap2\n      pop\n        /* \"#utility.yul\":46504:46597   */\n      tag_941\n        /* \"#utility.yul\":46593:46596   */\n      dup3\n        /* \"#utility.yul\":46504:46597   */\n      tag_515\n      jump\t// in\n    tag_941:\n        /* \"#utility.yul\":46622:46624   */\n      0x20\n        /* \"#utility.yul\":46617:46620   */\n      dup3\n        /* \"#utility.yul\":46613:46625   */\n      add\n        /* \"#utility.yul\":46606:46625   */\n      swap1\n      pop\n        /* \"#utility.yul\":46265:46631   */\n      swap2\n      swap1\n      pop\n      jump\t// out\n        /* \"#utility.yul\":46637:47056   */\n    tag_230:\n        /* \"#utility.yul\":46803:46807   */\n      0x00\n        /* \"#utility.yul\":46841:46843   */\n      0x20\n        /* \"#utility.yul\":46830:46839   */\n      dup3\n        /* \"#utility.yul\":46826:46844   */\n      add\n        /* \"#utility.yul\":46818:46844   */\n      swap1\n      pop\n        /* \"#utility.yul\":46890:46899   */\n      dup2\n        /* \"#utility.yul\":46884:46888   */\n      dup2\n        /* \"#utility.yul\":46880:46900   */\n      sub\n        /* \"#utility.yul\":46876:46877   */\n      0x00\n        /* \"#utility.yul\":46865:46874   */\n      dup4\n        /* \"#utility.yul\":46861:46878   */\n      add\n        /* \"#utility.yul\":46854:46901   */\n      mstore\n        /* \"#utility.yul\":46918:47049   */\n      tag_943\n        /* \"#utility.yul\":47044:47048   */\n      dup2\n        /* \"#utility.yul\":46918:47049   */\n      tag_516\n      jump\t// in\n    tag_943:\n        /* \"#utility.yul\":46910:47049   */\n      swap1\n      pop\n        /* \"#utility.yul\":46637:47056   */\n      swap2\n      swap1\n      pop\n      jump\t// out\n        /* \"#utility.yul\":47062:47439   */\n    tag_517:\n        /* \"#utility.yul\":47150:47153   */\n      0x00\n        /* \"#utility.yul\":47178:47217   */\n      tag_945\n        /* \"#utility.yul\":47211:47216   */\n      dup3\n        /* \"#utility.yul\":47178:47217   */\n      tag_430\n      jump\t// in\n    tag_945:\n        /* \"#utility.yul\":47233:47304   */\n      tag_946\n        /* \"#utility.yul\":47297:47303   */\n      dup2\n        /* \"#utility.yul\":47292:47295   */\n      dup6\n        /* \"#utility.yul\":47233:47304   */\n      tag_489\n      jump\t// in\n    tag_946:\n        /* \"#utility.yul\":47226:47304   */\n      swap4\n      pop\n        /* \"#utility.yul\":47313:47378   */\n      tag_947\n        /* \"#utility.yul\":47371:47377   */\n      dup2\n        /* \"#utility.yul\":47366:47369   */\n      dup6\n        /* \"#utility.yul\":47359:47363   */\n      0x20\n        /* \"#utility.yul\":47352:47357   */\n      dup7\n        /* \"#utility.yul\":47348:47364   */\n      add\n        /* \"#utility.yul\":47313:47378   */\n      tag_432\n      jump\t// in\n    tag_947:\n        /* \"#utility.yul\":47403:47432   */\n      tag_948\n        /* \"#utility.yul\":47425:47431   */\n      dup2\n        /* \"#utility.yul\":47403:47432   */\n      tag_433\n      jump\t// in\n    tag_948:\n        /* \"#utility.yul\":47398:47401   */\n      dup5\n        /* \"#utility.yul\":47394:47433   */\n      add\n        /* \"#utility.yul\":47387:47433   */\n      swap2\n      pop\n        /* \"#utility.yul\":47154:47439   */\n      pop\n        /* \"#utility.yul\":47062:47439   */\n      swap3\n      swap2\n      pop\n      pop\n      jump\t// out\n        /* \"#utility.yul\":47445:47639   */\n    tag_518:\n        /* \"#utility.yul\":47554:47565   */\n      0x00\n        /* \"#utility.yul\":47588:47594   */\n      dup3\n        /* \"#utility.yul\":47583:47586   */\n      dup3\n        /* \"#utility.yul\":47576:47595   */\n      mstore\n        /* \"#utility.yul\":47628:47632   */\n      0x20\n        /* \"#utility.yul\":47623:47626   */\n      dup3\n        /* \"#utility.yul\":47619:47633   */\n      add\n        /* \"#utility.yul\":47604:47633   */\n      swap1\n      pop\n        /* \"#utility.yul\":47445:47639   */\n      swap3\n      swap2\n      pop\n      pop\n      jump\t// out\n        /* \"#utility.yul\":47673:48664   */\n    tag_519:\n        /* \"#utility.yul\":47812:47815   */\n      0x00\n        /* \"#utility.yul\":47841:47905   */\n      tag_951\n        /* \"#utility.yul\":47899:47904   */\n      dup3\n        /* \"#utility.yul\":47841:47905   */\n      tag_435\n      jump\t// in\n    tag_951:\n        /* \"#utility.yul\":47921:48017   */\n      tag_952\n        /* \"#utility.yul\":48010:48016   */\n      dup2\n        /* \"#utility.yul\":48005:48008   */\n      dup6\n        /* \"#utility.yul\":47921:48017   */\n      tag_518\n      jump\t// in\n    tag_952:\n        /* \"#utility.yul\":47914:48017   */\n      swap4\n      pop\n        /* \"#utility.yul\":48043:48046   */\n      dup4\n        /* \"#utility.yul\":48088:48092   */\n      0x20\n        /* \"#utility.yul\":48080:48086   */\n      dup3\n        /* \"#utility.yul\":48076:48093   */\n      mul\n        /* \"#utility.yul\":48071:48074   */\n      dup6\n        /* \"#utility.yul\":48067:48094   */\n      add\n        /* \"#utility.yul\":48118:48184   */\n      tag_953\n        /* \"#utility.yul\":48178:48183   */\n      dup6\n        /* \"#utility.yul\":48118:48184   */\n      tag_437\n      jump\t// in\n    tag_953:\n        /* \"#utility.yul\":48207:48214   */\n      dup1\n        /* \"#utility.yul\":48238:48239   */\n      0x00\n        /* \"#utility.yul\":48223:48619   */\n    tag_954:\n        /* \"#utility.yul\":48248:48254   */\n      dup6\n        /* \"#utility.yul\":48245:48246   */\n      dup2\n        /* \"#utility.yul\":48242:48255   */\n      lt\n        /* \"#utility.yul\":48223:48619   */\n      iszero\n      tag_956\n      jumpi\n        /* \"#utility.yul\":48319:48328   */\n      dup5\n        /* \"#utility.yul\":48313:48317   */\n      dup5\n        /* \"#utility.yul\":48309:48329   */\n      sub\n        /* \"#utility.yul\":48304:48307   */\n      dup10\n        /* \"#utility.yul\":48297:48330   */\n      mstore\n        /* \"#utility.yul\":48370:48376   */\n      dup2\n        /* \"#utility.yul\":48364:48377   */\n      mload\n        /* \"#utility.yul\":48398:48482   */\n      tag_957\n        /* \"#utility.yul\":48477:48481   */\n      dup6\n        /* \"#utility.yul\":48462:48475   */\n      dup3\n        /* \"#utility.yul\":48398:48482   */\n      tag_438\n      jump\t// in\n    tag_957:\n        /* \"#utility.yul\":48390:48482   */\n      swap5\n      pop\n        /* \"#utility.yul\":48505:48575   */\n      tag_958\n        /* \"#utility.yul\":48568:48574   */\n      dup4\n        /* \"#utility.yul\":48505:48575   */\n      tag_439\n      jump\t// in\n    tag_958:\n        /* \"#utility.yul\":48495:48575   */\n      swap3\n      pop\n        /* \"#utility.yul\":48604:48608   */\n      0x20\n        /* \"#utility.yul\":48599:48602   */\n      dup11\n        /* \"#utility.yul\":48595:48609   */\n      add\n        /* \"#utility.yul\":48588:48609   */\n      swap10\n      pop\n        /* \"#utility.yul\":48283:48619   */\n      pop\n        /* \"#utility.yul\":48270:48271   */\n      0x01\n        /* \"#utility.yul\":48267:48268   */\n      dup2\n        /* \"#utility.yul\":48263:48272   */\n      add\n        /* \"#utility.yul\":48258:48272   */\n      swap1\n      pop\n        /* \"#utility.yul\":48223:48619   */\n      jump(tag_954)\n    tag_956:\n        /* \"#utility.yul\":48227:48241   */\n      pop\n        /* \"#utility.yul\":48635:48639   */\n      dup3\n        /* \"#utility.yul\":48628:48639   */\n      swap8\n      pop\n        /* \"#utility.yul\":48655:48658   */\n      dup8\n        /* \"#utility.yul\":48648:48658   */\n      swap6\n      pop\n        /* \"#utility.yul\":47817:48664   */\n      pop\n      pop\n      pop\n      pop\n      pop\n        /* \"#utility.yul\":47673:48664   */\n      swap3\n      swap2\n      pop\n      pop\n      jump\t// out\n        /* \"#utility.yul\":48670:49707   */\n    tag_236:\n        /* \"#utility.yul\":48985:48989   */\n      0x00\n        /* \"#utility.yul\":49023:49026   */\n      0xa0\n        /* \"#utility.yul\":49012:49021   */\n      dup3\n        /* \"#utility.yul\":49008:49027   */\n      add\n        /* \"#utility.yul\":49000:49027   */\n      swap1\n      pop\n        /* \"#utility.yul\":49037:49108   */\n      tag_960\n        /* \"#utility.yul\":49105:49106   */\n      0x00\n        /* \"#utility.yul\":49094:49103   */\n      dup4\n        /* \"#utility.yul\":49090:49107   */\n      add\n        /* \"#utility.yul\":49081:49087   */\n      dup9\n        /* \"#utility.yul\":49037:49108   */\n      tag_428\n      jump\t// in\n    tag_960:\n        /* \"#utility.yul\":49155:49164   */\n      dup2\n        /* \"#utility.yul\":49149:49153   */\n      dup2\n        /* \"#utility.yul\":49145:49165   */\n      sub\n        /* \"#utility.yul\":49140:49142   */\n      0x20\n        /* \"#utility.yul\":49129:49138   */\n      dup4\n        /* \"#utility.yul\":49125:49143   */\n      add\n        /* \"#utility.yul\":49118:49166   */\n      mstore\n        /* \"#utility.yul\":49183:49261   */\n      tag_961\n        /* \"#utility.yul\":49256:49260   */\n      dup2\n        /* \"#utility.yul\":49247:49253   */\n      dup8\n        /* \"#utility.yul\":49183:49261   */\n      tag_517\n      jump\t// in\n    tag_961:\n        /* \"#utility.yul\":49175:49261   */\n      swap1\n      pop\n        /* \"#utility.yul\":49308:49317   */\n      dup2\n        /* \"#utility.yul\":49302:49306   */\n      dup2\n        /* \"#utility.yul\":49298:49318   */\n      sub\n        /* \"#utility.yul\":49293:49295   */\n      0x40\n        /* \"#utility.yul\":49282:49291   */\n      dup4\n        /* \"#utility.yul\":49278:49296   */\n      add\n        /* \"#utility.yul\":49271:49319   */\n      mstore\n        /* \"#utility.yul\":49336:49414   */\n      tag_962\n        /* \"#utility.yul\":49409:49413   */\n      dup2\n        /* \"#utility.yul\":49400:49406   */\n      dup7\n        /* \"#utility.yul\":49336:49414   */\n      tag_517\n      jump\t// in\n    tag_962:\n        /* \"#utility.yul\":49328:49414   */\n      swap1\n      pop\n        /* \"#utility.yul\":49424:49496   */\n      tag_963\n        /* \"#utility.yul\":49492:49494   */\n      0x60\n        /* \"#utility.yul\":49481:49490   */\n      dup4\n        /* \"#utility.yul\":49477:49495   */\n      add\n        /* \"#utility.yul\":49468:49474   */\n      dup6\n        /* \"#utility.yul\":49424:49496   */\n      tag_428\n      jump\t// in\n    tag_963:\n        /* \"#utility.yul\":49544:49553   */\n      dup2\n        /* \"#utility.yul\":49538:49542   */\n      dup2\n        /* \"#utility.yul\":49534:49554   */\n      sub\n        /* \"#utility.yul\":49528:49531   */\n      0x80\n        /* \"#utility.yul\":49517:49526   */\n      dup4\n        /* \"#utility.yul\":49513:49532   */\n      add\n        /* \"#utility.yul\":49506:49555   */\n      mstore\n        /* \"#utility.yul\":49572:49700   */\n      tag_964\n        /* \"#utility.yul\":49695:49699   */\n      dup2\n        /* \"#utility.yul\":49686:49692   */\n      dup5\n        /* \"#utility.yul\":49572:49700   */\n      tag_519\n      jump\t// in\n    tag_964:\n        /* \"#utility.yul\":49564:49700   */\n      swap1\n      pop\n        /* \"#utility.yul\":48670:49707   */\n      swap7\n      swap6\n      pop\n      pop\n      pop\n      pop\n      pop\n      pop\n      jump\t// out\n        /* \"#utility.yul\":49713:49940   */\n    tag_520:\n        /* \"#utility.yul\":49853:49887   */\n      0x5175616e74697479277320666f6f642063616e6e6f7420626520736d616c6c65\n        /* \"#utility.yul\":49849:49850   */\n      0x00\n        /* \"#utility.yul\":49841:49847   */\n      dup3\n        /* \"#utility.yul\":49837:49851   */\n      add\n        /* \"#utility.yul\":49830:49888   */\n      mstore\n        /* \"#utility.yul\":49922:49932   */\n      0x72207468616e2030000000000000000000000000000000000000000000000000\n        /* \"#utility.yul\":49917:49919   */\n      0x20\n        /* \"#utility.yul\":49909:49915   */\n      dup3\n        /* \"#utility.yul\":49905:49920   */\n      add\n        /* \"#utility.yul\":49898:49933   */\n      mstore\n        /* \"#utility.yul\":49713:49940   */\n      pop\n      jump\t// out\n        /* \"#utility.yul\":49946:50312   */\n    tag_521:\n        /* \"#utility.yul\":50088:50091   */\n      0x00\n        /* \"#utility.yul\":50109:50176   */\n      tag_967\n        /* \"#utility.yul\":50173:50175   */\n      0x28\n        /* \"#utility.yul\":50168:50171   */\n      dup4\n        /* \"#utility.yul\":50109:50176   */\n      tag_489\n      jump\t// in\n    tag_967:\n        /* \"#utility.yul\":50102:50176   */\n      swap2\n      pop\n        /* \"#utility.yul\":50185:50278   */\n      tag_968\n        /* \"#utility.yul\":50274:50277   */\n      dup3\n        /* \"#utility.yul\":50185:50278   */\n      tag_520\n      jump\t// in\n    tag_968:\n        /* \"#utility.yul\":50303:50305   */\n      0x40\n        /* \"#utility.yul\":50298:50301   */\n      dup3\n        /* \"#utility.yul\":50294:50306   */\n      add\n        /* \"#utility.yul\":50287:50306   */\n      swap1\n      pop\n        /* \"#utility.yul\":49946:50312   */\n      swap2\n      swap1\n      pop\n      jump\t// out\n        /* \"#utility.yul\":50318:50737   */\n    tag_254:\n        /* \"#utility.yul\":50484:50488   */\n      0x00\n        /* \"#utility.yul\":50522:50524   */\n      0x20\n        /* \"#utility.yul\":50511:50520   */\n      dup3\n        /* \"#utility.yul\":50507:50525   */\n      add\n        /* \"#utility.yul\":50499:50525   */\n      swap1\n      pop\n        /* \"#utility.yul\":50571:50580   */\n      dup2\n        /* \"#utility.yul\":50565:50569   */\n      dup2\n        /* \"#utility.yul\":50561:50581   */\n      sub\n        /* \"#utility.yul\":50557:50558   */\n      0x00\n        /* \"#utility.yul\":50546:50555   */\n      dup4\n        /* \"#utility.yul\":50542:50559   */\n      add\n        /* \"#utility.yul\":50535:50582   */\n      mstore\n        /* \"#utility.yul\":50599:50730   */\n      tag_970\n        /* \"#utility.yul\":50725:50729   */\n      dup2\n        /* \"#utility.yul\":50599:50730   */\n      tag_521\n      jump\t// in\n    tag_970:\n        /* \"#utility.yul\":50591:50730   */\n      swap1\n      pop\n        /* \"#utility.yul\":50318:50737   */\n      swap2\n      swap1\n      pop\n      jump\t// out\n        /* \"#utility.yul\":50743:50925   */\n    tag_522:\n        /* \"#utility.yul\":50883:50917   */\n      0x466f6f642077697468207468697320494420616c726561647920657869737473\n        /* \"#utility.yul\":50879:50880   */\n      0x00\n        /* \"#utility.yul\":50871:50877   */\n      dup3\n        /* \"#utility.yul\":50867:50881   */\n      add\n        /* \"#utility.yul\":50860:50918   */\n      mstore\n        /* \"#utility.yul\":50743:50925   */\n      pop\n      jump\t// out\n        /* \"#utility.yul\":50931:51297   */\n    tag_523:\n        /* \"#utility.yul\":51073:51076   */\n      0x00\n        /* \"#utility.yul\":51094:51161   */\n      tag_973\n        /* \"#utility.yul\":51158:51160   */\n      0x20\n        /* \"#utility.yul\":51153:51156   */\n      dup4\n        /* \"#utility.yul\":51094:51161   */\n      tag_489\n      jump\t// in\n    tag_973:\n        /* \"#utility.yul\":51087:51161   */\n      swap2\n      pop\n        /* \"#utility.yul\":51170:51263   */\n      tag_974\n        /* \"#utility.yul\":51259:51262   */\n      dup3\n        /* \"#utility.yul\":51170:51263   */\n      tag_522\n      jump\t// in\n    tag_974:\n        /* \"#utility.yul\":51288:51290   */\n      0x20\n        /* \"#utility.yul\":51283:51286   */\n      dup3\n        /* \"#utility.yul\":51279:51291   */\n      add\n        /* \"#utility.yul\":51272:51291   */\n      swap1\n      pop\n        /* \"#utility.yul\":50931:51297   */\n      swap2\n      swap1\n      pop\n      jump\t// out\n        /* \"#utility.yul\":51303:51722   */\n    tag_273:\n        /* \"#utility.yul\":51469:51473   */\n      0x00\n        /* \"#utility.yul\":51507:51509   */\n      0x20\n        /* \"#utility.yul\":51496:51505   */\n      dup3\n        /* \"#utility.yul\":51492:51510   */\n      add\n        /* \"#utility.yul\":51484:51510   */\n      swap1\n      pop\n        /* \"#utility.yul\":51556:51565   */\n      dup2\n        /* \"#utility.yul\":51550:51554   */\n      dup2\n        /* \"#utility.yul\":51546:51566   */\n      sub\n        /* \"#utility.yul\":51542:51543   */\n      0x00\n        /* \"#utility.yul\":51531:51540   */\n      dup4\n        /* \"#utility.yul\":51527:51544   */\n      add\n        /* \"#utility.yul\":51520:51567   */\n      mstore\n        /* \"#utility.yul\":51584:51715   */\n      tag_976\n        /* \"#utility.yul\":51710:51714   */\n      dup2\n        /* \"#utility.yul\":51584:51715   */\n      tag_523\n      jump\t// in\n    tag_976:\n        /* \"#utility.yul\":51576:51715   */\n      swap1\n      pop\n        /* \"#utility.yul\":51303:51722   */\n      swap2\n      swap1\n      pop\n      jump\t// out\n\n    auxdata: 0xa264697066735822122025e8b4e0a9ab1bbef0a686718c0d1294ce2de5002b86568be745d18a044a78f264736f6c634300081e0033\n}\n",
				"bytecode": {
					"linkReferences": {},
					"object": "608060405260016003556001600455348015610019575f5ffd5b506040516139f93803806139f9833981810160405281019061003b919061011e565b335f5f6101000a81548173ffffffffffffffffffffffffffffffffffffffff021916908373ffffffffffffffffffffffffffffffffffffffff1602179055508060025f6101000a81548173ffffffffffffffffffffffffffffffffffffffff021916908373ffffffffffffffffffffffffffffffffffffffff16021790555050610149565b5f5ffd5b5f73ffffffffffffffffffffffffffffffffffffffff82169050919050565b5f6100ed826100c4565b9050919050565b6100fd816100e3565b8114610107575f5ffd5b50565b5f81519050610118816100f4565b92915050565b5f60208284031215610133576101326100c0565b5b5f6101408482850161010a565b91505092915050565b6138a3806101565f395ff3fe608060405234801561000f575f5ffd5b506004361061011f575f3560e01c80636dd2dd88116100ab578063b447aaae1161006f578063b447aaae14610301578063b9b5aae61461031d578063baf853061461033b578063d198b65014610357578063d86ec238146103735761011f565b80636dd2dd881461025f578063704802751461027b578063893d20e8146102975780639a69bfa6146102b5578063af5607f9146102d15761011f565b80631e4de872116100f25780631e4de8721461019757806324d7806c146101c757806335085515146101f75780634d30a39b1461022757806364f77471146102435761011f565b8063094b9a53146101235780631785f53c1461013f5780631945ef581461015b5780631b0d77cc14610179575b5f5ffd5b61013d600480360381019061013891906120cb565b610391565b005b61015960048036038101906101549190612175565b61044a565b005b6101636104b1565b60405161017091906121af565b60405180910390f35b6101816104b7565b60405161018e91906121af565b60405180910390f35b6101b160048036038101906101ac91906121c8565b6104bd565b6040516101be91906123d4565b60405180910390f35b6101e160048036038101906101dc9190612175565b610758565b6040516101ee9190612467565b60405180910390f35b610211600480360381019061020c9190612480565b610775565b60405161021e919061251e565b60405180910390f35b610241600480360381019061023c9190612480565b610914565b005b61025d600480360381019061025891906127d1565b610c17565b005b61027960048036038101906102749190612909565b610dc6565b005b61029560048036038101906102909190612175565b610fc7565b005b61029f61102e565b6040516102ac91906129e3565b60405180910390f35b6102cf60048036038101906102ca91906120cb565b611055565b005b6102eb60048036038101906102e691906121c8565b611182565b6040516102f89190612b17565b60405180910390f35b61031b60048036038101906103169190612b37565b6112f1565b005b6103256116f2565b6040516103329190612e56565b60405180910390f35b61035560048036038101906103509190612e76565b611b11565b005b610371600480360381019061036c91906121c8565b611cd7565b005b61037b611e99565b6040516103889190612f3d565b60405180910390f35b5f5f90505b60065f8581526020019081526020015f2080549050811015610444578260065f8681526020019081526020015f2082815481106103d6576103d5612f56565b5b905f5260205f2090600402015f015403610437578160065f8681526020019081526020015f20828154811061040e5761040d612f56565b5b905f5260205f2090600402016002015f82825461042b9190612fb0565b92505081905550610444565b8080600101915050610396565b50505050565b5f60015f8373ffffffffffffffffffffffffffffffffffffffff1673ffffffffffffffffffffffffffffffffffffffff1681526020019081526020015f205f6101000a81548160ff021916908360028111156104a9576104a86123f4565b5b021790555050565b60035481565b60045481565b6104c5611ebe565b5f60055f8481526020019081526020015f205f01540361051a576040517f08c379a00000000000000000000000000000000000000000000000000000000081526004016105119061303d565b60405180910390fd5b60055f8381526020019081526020015f206040518060e00160405290815f820154815260200160018201805461054f90613088565b80601f016020809104026020016040519081016040528092919081815260200182805461057b90613088565b80156105c65780601f1061059d576101008083540402835291602001916105c6565b820191905f5260205f20905b8154815290600101906020018083116105a957829003601f168201915b505050505081526020016002820180546105df90613088565b80601f016020809104026020016040519081016040528092919081815260200182805461060b90613088565b80156106565780601f1061062d57610100808354040283529160200191610656565b820191905f5260205f20905b81548152906001019060200180831161063957829003601f168201915b505050505081526020016003820154815260200160048201805480602002602001604051908101604052809291908181526020015f905b82821015610735578382905f5260205f200180546106aa90613088565b80601f01602080910402602001604051908101604052809291908181526020018280546106d690613088565b80156107215780601f106106f857610100808354040283529160200191610721565b820191905f5260205f20905b81548152906001019060200180831161070457829003601f168201915b50505050508152602001906001019061068d565b505050508152602001600582015481526020016006820154815250509050919050565b6001602052805f5260405f205f915054906101000a900460ff1681565b61077d611ef7565b5f5f90505b60065f8581526020019081526020015f20805490508110156108d2578260065f8681526020019081526020015f2082815481106107c2576107c1612f56565b5b905f5260205f2090600402015f0154036108c55760065f8581526020019081526020015f2081815481106107f9576107f8612f56565b5b905f5260205f2090600402016040518060800160405290815f820154815260200160018201805461082990613088565b80601f016020809104026020016040519081016040528092919081815260200182805461085590613088565b80156108a05780601f10610877576101008083540402835291602001916108a0565b820191905f5260205f20905b81548152906001019060200180831161088357829003601f168201915b505050505081526020016002820154815260200160038201548152505091505061090e565b8080600101915050610782565b506040517f08c379a000000000000000000000000000000000000000000000000000000000815260040161090590613102565b60405180910390fd5b92915050565b5f60055f8481526020019081526020015f205f015403610969576040517f08c379a00000000000000000000000000000000000000000000000000000000081526004016109609061303d565b60405180910390fd5b5f60065f8481526020019081526020015f2090505f5f90505f5f90505b8280549050811015610bd057838382815481106109a6576109a5612f56565b5b905f5260205f2090600402015f015403610bc35760018380549050116109fa5760405180608001604052805f815260200160405180602001604052805f81525081526020015f81526020015f815250610ae2565b8260018480549050610a0c9190613120565b81548110610a1d57610a1c612f56565b5b905f5260205f2090600402016040518060800160405290815f8201548152602001600182018054610a4d90613088565b80601f0160208091040260200160405190810160405280929190818152602001828054610a7990613088565b8015610ac45780601f10610a9b57610100808354040283529160200191610ac4565b820191905f5260205f20905b815481529060010190602001808311610aa757829003601f168201915b50505050508152602001600282015481526020016003820154815250505b838281548110610af557610af4612f56565b5b905f5260205f2090600402015f820151815f01556020820151816001019081610b1e91906132ea565b50604082015181600201556060820151816003015590505082805480610b4757610b466133b9565b5b600190038181905f5260205f2090600402015f5f82015f9055600182015f610b6f9190611f1c565b600282015f9055600382015f905550509055600191507f55caa6a55acb7e3464dc13c54d94739e0f01b9141276caebb64f3ef500cd89008585604051610bb69291906133e6565b60405180910390a1610bd0565b8080600101915050610986565b5080610c11576040517f08c379a0000000000000000000000000000000000000000000000000000000008152600401610c0890613457565b60405180910390fd5b50505050565b5f60055f8481526020019081526020015f205f015403610c6c576040517f08c379a0000000000000000000000000000000000000000000000000000000008152600401610c639061303d565b60405180910390fd5b5f5f90505b8151811015610d8a5760045f815480929190610c8c90613475565b91905055505f60405180608001604052806004548152602001848481518110610cb857610cb7612f56565b5b60200260200101515f01518152602001848481518110610cdb57610cda612f56565b5b6020026020010151602001518152602001848481518110610cff57610cfe612f56565b5b602002602001015160400151815250905060065f8581526020019081526020015f2081908060018154018082558091505060019003905f5260205f2090600402015f909190919091505f820151815f01556020820151816001019081610d6591906132ea565b5060408201518160020155606082015181600301555050508080600101915050610c71565b507f19a8e56286393226625dcdbc7cbb5a7611c71773d54c7e0680658cb9ceef6c2282604051610dba91906121af565b60405180910390a15050565b5f60055f8781526020019081526020015f205f015403610e1b576040517f08c379a0000000000000000000000000000000000000000000000000000000008152600401610e129061303d565b60405180910390fd5b5f60025f9054906101000a900473ffffffffffffffffffffffffffffffffffffffff1673ffffffffffffffffffffffffffffffffffffffff1663f3052d26846040518263ffffffff1660e01b8152600401610e7691906121af565b5f60405180830381865afa158015610e90573d5f5f3e3d5ffd5b505050506040513d5f823e3d601f19601f82011682018060405250810190610eb891906135a7565b5f015103610efb576040517f08c379a0000000000000000000000000000000000000000000000000000000008152600401610ef290613638565b60405180910390fd5b8360055f8781526020019081526020015f206001019081610f1c91906132ea565b508260055f8781526020019081526020015f206002019081610f3e91906132ea565b508160055f8781526020019081526020015f20600301819055508060055f8781526020019081526020015f206004019080519060200190610f80929190611f59565b507f4f49710e0e59ea2e7096d7bad0267390d8bb5c007687f72b0de2db3afdadd5e58585858585604051610fb8959493929190613711565b60405180910390a15050505050565b6001805f8373ffffffffffffffffffffffffffffffffffffffff1673ffffffffffffffffffffffffffffffffffffffff1681526020019081526020015f205f6101000a81548160ff02191690836002811115611026576110256123f4565b5b021790555050565b5f5f5f9054906101000a900473ffffffffffffffffffffffffffffffffffffffff16905090565b5f5f90505b60065f8581526020019081526020015f208054905081101561117c578260065f8681526020019081526020015f20828154811061109a57611099612f56565b5b905f5260205f2090600402015f01540361116f5760065f8581526020019081526020015f2081815481106110d1576110d0612f56565b5b905f5260205f209060040201600201548210611122576040517f08c379a0000000000000000000000000000000000000000000000000000000008152600401611119906137e7565b60405180910390fd5b8160065f8681526020019081526020015f20828154811061114657611145612f56565b5b905f5260205f2090600402016002015f8282546111639190613120565b9250508190555061117c565b808060010191505061105a565b50505050565b60605f60055f8481526020019081526020015f205f0154036111d9576040517f08c379a00000000000000000000000000000000000000000000000000000000081526004016111d09061303d565b60405180910390fd5b60065f8381526020019081526020015f20805480602002602001604051908101604052809291908181526020015f905b828210156112e6578382905f5260205f2090600402016040518060800160405290815f820154815260200160018201805461124390613088565b80601f016020809104026020016040519081016040528092919081815260200182805461126f90613088565b80156112ba5780601f10611291576101008083540402835291602001916112ba565b820191905f5260205f20905b81548152906001019060200180831161129d57829003601f168201915b505050505081526020016002820154815260200160038201548152505081526020019060010190611209565b505050509050919050565b5f60055f8881526020019081526020015f205f015414611346576040517f08c379a000000000000000000000000000000000000000000000000000000000815260040161133d9061384f565b60405180910390fd5b5f60025f9054906101000a900473ffffffffffffffffffffffffffffffffffffffff1673ffffffffffffffffffffffffffffffffffffffff1663f3052d26856040518263ffffffff1660e01b81526004016113a191906121af565b5f60405180830381865afa1580156113bb573d5f5f3e3d5ffd5b505050506040513d5f823e3d601f19601f820116820180604052508101906113e391906135a7565b5f015103611426576040517f08c379a000000000000000000000000000000000000000000000000000000000815260040161141d90613638565b60405180910390fd5b5f6040518060e001604052808881526020018781526020018681526020018581526020018481526020015f81526020015f81525090508060055f8981526020019081526020015f205f820151815f0155602082015181600101908161148b91906132ea565b5060408201518160020190816114a191906132ea565b506060820151816003015560808201518160040190805190602001906114c8929190611f59565b5060a0820151816005015560c08201518160060155905050600787908060018154018082558091505060019003905f5260205f20015f909190919091505560025f9054906101000a900473ffffffffffffffffffffffffffffffffffffffff1673ffffffffffffffffffffffffffffffffffffffff16635f8069cc85896040518363ffffffff1660e01b81526004016115629291906133e6565b5f604051808303815f87803b158015611579575f5ffd5b505af115801561158b573d5f5f3e3d5ffd5b505050505f5f90505b82518110156116a9575f604051806080016040528060045f8154809291906115bb90613475565b9190505581526020018584815181106115d7576115d6612f56565b5b60200260200101515f015181526020018584815181106115fa576115f9612f56565b5b602002602001015160200151815260200185848151811061161e5761161d612f56565b5b602002602001015160400151815250905060065f8a81526020019081526020015f2081908060018154018082558091505060019003905f5260205f2090600402015f909190919091505f820151815f0155602082015181600101908161168491906132ea565b5060408201518160020155606082015181600301555050508080600101915050611594565b507fbdf2814016d06bf27f22aa349fade26a888a8f7eac3e0963916b1c64cc37a5ce87878787876040516116e1959493929190613711565b60405180910390a150505050505050565b60605f60078054905067ffffffffffffffff81111561171457611713612542565b5b60405190808252806020026020018201604052801561174d57816020015b61173a611fb0565b8152602001906001900390816117325790505b5090505f5f90505b600780549050811015611b09575f6007828154811061177757611776612f56565b5b905f5260205f2001549050604051806040016040528060055f8481526020019081526020015f206040518060e00160405290815f82015481526020016001820180546117c290613088565b80601f01602080910402602001604051908101604052809291908181526020018280546117ee90613088565b80156118395780601f1061181057610100808354040283529160200191611839565b820191905f5260205f20905b81548152906001019060200180831161181c57829003601f168201915b5050505050815260200160028201805461185290613088565b80601f016020809104026020016040519081016040528092919081815260200182805461187e90613088565b80156118c95780601f106118a0576101008083540402835291602001916118c9565b820191905f5260205f20905b8154815290600101906020018083116118ac57829003601f168201915b505050505081526020016003820154815260200160048201805480602002602001604051908101604052809291908181526020015f905b828210156119a8578382905f5260205f2001805461191d90613088565b80601f016020809104026020016040519081016040528092919081815260200182805461194990613088565b80156119945780601f1061196b57610100808354040283529160200191611994565b820191905f5260205f20905b81548152906001019060200180831161197757829003601f168201915b505050505081526020019060010190611900565b50505050815260200160058201548152602001600682015481525050815260200160065f8481526020019081526020015f20805480602002602001604051908101604052809291908181526020015f905b82821015611ad6578382905f5260205f2090600402016040518060800160405290815f8201548152602001600182018054611a3390613088565b80601f0160208091040260200160405190810160405280929190818152602001828054611a5f90613088565b8015611aaa5780601f10611a8157610100808354040283529160200191611aaa565b820191905f5260205f20905b815481529060010190602001808311611a8d57829003601f168201915b5050505050815260200160028201548152602001600382015481525050815260200190600101906119f9565b50505050815250838381518110611af057611aef612f56565b5b6020026020010181905250508080600101915050611755565b508091505090565b5f60055f8581526020019081526020015f205f015403611b66576040517f08c379a0000000000000000000000000000000000000000000000000000000008152600401611b5d9061303d565b60405180910390fd5b5f60065f8581526020019081526020015f2090505f5f90505f5f90505b8280549050811015611c8f5784838281548110611ba357611ba2612f56565b5b905f5260205f2090600402015f015403611c8257835f0151838281548110611bce57611bcd612f56565b5b905f5260205f2090600402016001019081611be991906132ea565b508360200151838281548110611c0257611c01612f56565b5b905f5260205f209060040201600201819055508360400151838281548110611c2d57611c2c612f56565b5b905f5260205f20906004020160030181905550600191507fe29e1e70959f0c301943d01c4bd294592a2105bc81e9b2523c4b1d7f7d1f393f8686604051611c759291906133e6565b60405180910390a1611c8f565b8080600101915050611b83565b5080611cd0576040517f08c379a0000000000000000000000000000000000000000000000000000000008152600401611cc790613457565b60405180910390fd5b5050505050565b5f60055f8381526020019081526020015f205f015403611d2c576040517f08c379a0000000000000000000000000000000000000000000000000000000008152600401611d239061303d565b60405180910390fd5b60055f8281526020019081526020015f205f5f82015f9055600182015f611d539190611f1c565b600282015f611d629190611f1c565b600382015f9055600482015f611d789190611fd0565b600582015f9055600682015f9055505060065f8281526020019081526020015f205f611da49190611fee565b5f5f90505b600780549050811015611e5e578160078281548110611dcb57611dca612f56565b5b905f5260205f20015403611e515760076001600780549050611ded9190613120565b81548110611dfe57611dfd612f56565b5b905f5260205f20015460078281548110611e1b57611e1a612f56565b5b905f5260205f2001819055506007805480611e3957611e386133b9565b5b600190038181905f5260205f20015f90559055611e5e565b8080600101915050611da9565b507f4d4e7c43d5805933523b1317fdd5acb7517962d3e9f52834633b9f014947729581604051611e8e91906121af565b60405180910390a150565b60025f9054906101000a900473ffffffffffffffffffffffffffffffffffffffff1681565b6040518060e001604052805f815260200160608152602001606081526020015f8152602001606081526020015f81526020015f81525090565b60405180608001604052805f8152602001606081526020015f81526020015f81525090565b508054611f2890613088565b5f825580601f10611f395750611f56565b601f0160209004905f5260205f2090810190611f55919061200f565b5b50565b828054828255905f5260205f20908101928215611f9f579160200282015b82811115611f9e578251829081611f8e91906132ea565b5091602001919060010190611f77565b5b509050611fac919061202a565b5090565b6040518060400160405280611fc3611ebe565b8152602001606081525090565b5080545f8255905f5260205f2090810190611feb919061202a565b50565b5080545f8255600402905f5260205f209081019061200c919061204d565b50565b5b80821115612026575f815f905550600101612010565b5090565b5b80821115612049575f81816120409190611f1c565b5060010161202b565b5090565b5b80821115612083575f5f82015f9055600182015f61206c9190611f1c565b600282015f9055600382015f90555060040161204e565b5090565b5f604051905090565b5f5ffd5b5f5ffd5b5f819050919050565b6120aa81612098565b81146120b4575f5ffd5b50565b5f813590506120c5816120a1565b92915050565b5f5f5f606084860312156120e2576120e1612090565b5b5f6120ef868287016120b7565b9350506020612100868287016120b7565b9250506040612111868287016120b7565b9150509250925092565b5f73ffffffffffffffffffffffffffffffffffffffff82169050919050565b5f6121448261211b565b9050919050565b6121548161213a565b811461215e575f5ffd5b50565b5f8135905061216f8161214b565b92915050565b5f6020828403121561218a57612189612090565b5b5f61219784828501612161565b91505092915050565b6121a981612098565b82525050565b5f6020820190506121c25f8301846121a0565b92915050565b5f602082840312156121dd576121dc612090565b5b5f6121ea848285016120b7565b91505092915050565b6121fc81612098565b82525050565b5f81519050919050565b5f82825260208201905092915050565b8281835e5f83830152505050565b5f601f19601f8301169050919050565b5f61224482612202565b61224e818561220c565b935061225e81856020860161221c565b6122678161222a565b840191505092915050565b5f81519050919050565b5f82825260208201905092915050565b5f819050602082019050919050565b5f6122a6838361223a565b905092915050565b5f602082019050919050565b5f6122c482612272565b6122ce818561227c565b9350836020820285016122e08561228c565b805f5b8581101561231b57848403895281516122fc858261229b565b9450612307836122ae565b925060208a019950506001810190506122e3565b50829750879550505050505092915050565b5f60e083015f8301516123425f8601826121f3565b506020830151848203602086015261235a828261223a565b91505060408301518482036040860152612374828261223a565b915050606083015161238960608601826121f3565b50608083015184820360808601526123a182826122ba565b91505060a08301516123b660a08601826121f3565b5060c08301516123c960c08601826121f3565b508091505092915050565b5f6020820190508181035f8301526123ec818461232d565b905092915050565b7f4e487b71000000000000000000000000000000000000000000000000000000005f52602160045260245ffd5b60038110612432576124316123f4565b5b50565b5f81905061244282612421565b919050565b5f61245182612435565b9050919050565b61246181612447565b82525050565b5f60208201905061247a5f830184612458565b92915050565b5f5f6040838503121561249657612495612090565b5b5f6124a3858286016120b7565b92505060206124b4858286016120b7565b9150509250929050565b5f608083015f8301516124d35f8601826121f3565b50602083015184820360208601526124eb828261223a565b915050604083015161250060408601826121f3565b50606083015161251360608601826121f3565b508091505092915050565b5f6020820190508181035f83015261253681846124be565b905092915050565b5f5ffd5b7f4e487b71000000000000000000000000000000000000000000000000000000005f52604160045260245ffd5b6125788261222a565b810181811067ffffffffffffffff8211171561259757612596612542565b5b80604052505050565b5f6125a9612087565b90506125b5828261256f565b919050565b5f67ffffffffffffffff8211156125d4576125d3612542565b5b602082029050602081019050919050565b5f5ffd5b5f5ffd5b5f5ffd5b5f5ffd5b5f67ffffffffffffffff82111561260f5761260e612542565b5b6126188261222a565b9050602081019050919050565b828183375f83830152505050565b5f612645612640846125f5565b6125a0565b905082815260208101848484011115612661576126606125f1565b5b61266c848285612625565b509392505050565b5f82601f8301126126885761268761253e565b5b8135612698848260208601612633565b91505092915050565b5f606082840312156126b6576126b56125e9565b5b6126c060606125a0565b90505f82013567ffffffffffffffff8111156126df576126de6125ed565b5b6126eb84828501612674565b5f8301525060206126fe848285016120b7565b6020830152506040612712848285016120b7565b60408301525092915050565b5f61273061272b846125ba565b6125a0565b90508083825260208201905060208402830185811115612753576127526125e5565b5b835b8181101561279a57803567ffffffffffffffff8111156127785761277761253e565b5b80860161278589826126a1565b85526020850194505050602081019050612755565b5050509392505050565b5f82601f8301126127b8576127b761253e565b5b81356127c884826020860161271e565b91505092915050565b5f5f604083850312156127e7576127e6612090565b5b5f6127f4858286016120b7565b925050602083013567ffffffffffffffff81111561281557612814612094565b5b612821858286016127a4565b9150509250929050565b5f67ffffffffffffffff82111561284557612844612542565b5b602082029050602081019050919050565b5f6128686128638461282b565b6125a0565b9050808382526020820190506020840283018581111561288b5761288a6125e5565b5b835b818110156128d257803567ffffffffffffffff8111156128b0576128af61253e565b5b8086016128bd8982612674565b8552602085019450505060208101905061288d565b5050509392505050565b5f82601f8301126128f0576128ef61253e565b5b8135612900848260208601612856565b91505092915050565b5f5f5f5f5f60a0868803121561292257612921612090565b5b5f61292f888289016120b7565b955050602086013567ffffffffffffffff8111156129505761294f612094565b5b61295c88828901612674565b945050604086013567ffffffffffffffff81111561297d5761297c612094565b5b61298988828901612674565b935050606061299a888289016120b7565b925050608086013567ffffffffffffffff8111156129bb576129ba612094565b5b6129c7888289016128dc565b9150509295509295909350565b6129dd8161213a565b82525050565b5f6020820190506129f65f8301846129d4565b92915050565b5f81519050919050565b5f82825260208201905092915050565b5f819050602082019050919050565b5f608083015f830151612a3a5f8601826121f3565b5060208301518482036020860152612a52828261223a565b9150506040830151612a6760408601826121f3565b506060830151612a7a60608601826121f3565b508091505092915050565b5f612a908383612a25565b905092915050565b5f602082019050919050565b5f612aae826129fc565b612ab88185612a06565b935083602082028501612aca85612a16565b805f5b85811015612b055784840389528151612ae68582612a85565b9450612af183612a98565b925060208a01995050600181019050612acd565b50829750879550505050505092915050565b5f6020820190508181035f830152612b2f8184612aa4565b905092915050565b5f5f5f5f5f5f60c08789031215612b5157612b50612090565b5b5f612b5e89828a016120b7565b965050602087013567ffffffffffffffff811115612b7f57612b7e612094565b5b612b8b89828a01612674565b955050604087013567ffffffffffffffff811115612bac57612bab612094565b5b612bb889828a01612674565b9450506060612bc989828a016120b7565b935050608087013567ffffffffffffffff811115612bea57612be9612094565b5b612bf689828a016128dc565b92505060a087013567ffffffffffffffff811115612c1757612c16612094565b5b612c2389828a016127a4565b9150509295509295509295565b5f81519050919050565b5f82825260208201905092915050565b5f819050602082019050919050565b5f60e083015f830151612c6e5f8601826121f3565b5060208301518482036020860152612c86828261223a565b91505060408301518482036040860152612ca0828261223a565b9150506060830151612cb560608601826121f3565b5060808301518482036080860152612ccd82826122ba565b91505060a0830151612ce260a08601826121f3565b5060c0830151612cf560c08601826121f3565b508091505092915050565b5f82825260208201905092915050565b5f612d1a826129fc565b612d248185612d00565b935083602082028501612d3685612a16565b805f5b85811015612d715784840389528151612d528582612a85565b9450612d5d83612a98565b925060208a01995050600181019050612d39565b50829750879550505050505092915050565b5f604083015f8301518482035f860152612d9d8282612c59565b91505060208301518482036020860152612db78282612d10565b9150508091505092915050565b5f612dcf8383612d83565b905092915050565b5f602082019050919050565b5f612ded82612c30565b612df78185612c3a565b935083602082028501612e0985612c4a565b805f5b85811015612e445784840389528151612e258582612dc4565b9450612e3083612dd7565b925060208a01995050600181019050612e0c565b50829750879550505050505092915050565b5f6020820190508181035f830152612e6e8184612de3565b905092915050565b5f5f5f60608486031215612e8d57612e8c612090565b5b5f612e9a868287016120b7565b9350506020612eab868287016120b7565b925050604084013567ffffffffffffffff811115612ecc57612ecb612094565b5b612ed8868287016126a1565b9150509250925092565b5f819050919050565b5f612f05612f00612efb8461211b565b612ee2565b61211b565b9050919050565b5f612f1682612eeb565b9050919050565b5f612f2782612f0c565b9050919050565b612f3781612f1d565b82525050565b5f602082019050612f505f830184612f2e565b92915050565b7f4e487b71000000000000000000000000000000000000000000000000000000005f52603260045260245ffd5b7f4e487b71000000000000000000000000000000000000000000000000000000005f52601160045260245ffd5b5f612fba82612098565b9150612fc583612098565b9250828201905080821115612fdd57612fdc612f83565b5b92915050565b5f82825260208201905092915050565b7f466f6f6420646f6573206e6f74206578697374000000000000000000000000005f82015250565b5f613027601383612fe3565b915061303282612ff3565b602082019050919050565b5f6020820190508181035f8301526130548161301b565b9050919050565b7f4e487b71000000000000000000000000000000000000000000000000000000005f52602260045260245ffd5b5f600282049050600182168061309f57607f821691505b6020821081036130b2576130b161305b565b5b50919050565b7f466f6f6444657461696c206e6f7420666f756e640000000000000000000000005f82015250565b5f6130ec601483612fe3565b91506130f7826130b8565b602082019050919050565b5f6020820190508181035f830152613119816130e0565b9050919050565b5f61312a82612098565b915061313583612098565b925082820390508181111561314d5761314c612f83565b5b92915050565b5f819050815f5260205f209050919050565b5f6020601f8301049050919050565b5f82821b905092915050565b5f600883026131af7fffffffffffffffffffffffffffffffffffffffffffffffffffffffffffffffff82613174565b6131b98683613174565b95508019841693508086168417925050509392505050565b5f6131eb6131e66131e184612098565b612ee2565b612098565b9050919050565b5f819050919050565b613204836131d1565b613218613210826131f2565b848454613180565b825550505050565b5f5f905090565b61322f613220565b61323a8184846131fb565b505050565b5b8181101561325d576132525f82613227565b600181019050613240565b5050565b601f8211156132a25761327381613153565b61327c84613165565b8101602085101561328b578190505b61329f61329785613165565b83018261323f565b50505b505050565b5f82821c905092915050565b5f6132c25f19846008026132a7565b1980831691505092915050565b5f6132da83836132b3565b9150826002028217905092915050565b6132f382612202565b67ffffffffffffffff81111561330c5761330b612542565b5b6133168254613088565b613321828285613261565b5f60209050601f831160018114613352575f8415613340578287015190505b61334a85826132cf565b8655506133b1565b601f19841661336086613153565b5f5b8281101561338757848901518255600182019150602085019450602081019050613362565b868310156133a457848901516133a0601f8916826132b3565b8355505b6001600288020188555050505b505050505050565b7f4e487b71000000000000000000000000000000000000000000000000000000005f52603160045260245ffd5b5f6040820190506133f95f8301856121a0565b61340660208301846121a0565b9392505050565b7f466f6f6444657461696c20646f6573206e6f74206578697374000000000000005f82015250565b5f613441601983612fe3565b915061344c8261340d565b602082019050919050565b5f6020820190508181035f83015261346e81613435565b9050919050565b5f61347f82612098565b91507fffffffffffffffffffffffffffffffffffffffffffffffffffffffffffffffff82036134b1576134b0612f83565b5b600182019050919050565b5f815190506134ca816120a1565b92915050565b5f6134e26134dd846125f5565b6125a0565b9050828152602081018484840111156134fe576134fd6125f1565b5b61350984828561221c565b509392505050565b5f82601f8301126135255761352461253e565b5b81516135358482602086016134d0565b91505092915050565b5f60408284031215613553576135526125e9565b5b61355d60406125a0565b90505f61356c848285016134bc565b5f83015250602082015167ffffffffffffffff81111561358f5761358e6125ed565b5b61359b84828501613511565b60208301525092915050565b5f602082840312156135bc576135bb612090565b5b5f82015167ffffffffffffffff8111156135d9576135d8612094565b5b6135e58482850161353e565b91505092915050565b7f43617465676f727920646f6573206e6f742065786973740000000000000000005f82015250565b5f613622601783612fe3565b915061362d826135ee565b602082019050919050565b5f6020820190508181035f83015261364f81613616565b9050919050565b5f61366082612202565b61366a8185612fe3565b935061367a81856020860161221c565b6136838161222a565b840191505092915050565b5f82825260208201905092915050565b5f6136a882612272565b6136b2818561368e565b9350836020820285016136c48561228c565b805f5b858110156136ff57848403895281516136e0858261229b565b94506136eb836122ae565b925060208a019950506001810190506136c7565b50829750879550505050505092915050565b5f60a0820190506137245f8301886121a0565b81810360208301526137368187613656565b9050818103604083015261374a8186613656565b905061375960608301856121a0565b818103608083015261376b818461369e565b90509695505050505050565b7f5175616e74697479277320666f6f642063616e6e6f7420626520736d616c6c655f8201527f72207468616e2030000000000000000000000000000000000000000000000000602082015250565b5f6137d1602883612fe3565b91506137dc82613777565b604082019050919050565b5f6020820190508181035f8301526137fe816137c5565b9050919050565b7f466f6f642077697468207468697320494420616c7265616479206578697374735f82015250565b5f613839602083612fe3565b915061384482613805565b602082019050919050565b5f6020820190508181035f8301526138668161382d565b905091905056fea264697066735822122025e8b4e0a9ab1bbef0a686718c0d1294ce2de5002b86568be745d18a044a78f264736f6c634300081e0033",
					"opcodes": "PUSH1 0x80 PUSH1 0x40 MSTORE PUSH1 0x1 PUSH1 0x3 SSTORE PUSH1 0x1 PUSH1 0x4 SSTORE CALLVALUE DUP1 ISZERO PUSH2 0x19 JUMPI PUSH0 PUSH0 REVERT JUMPDEST POP PUSH1 0x40 MLOAD PUSH2 0x39F9 CODESIZE SUB DUP1 PUSH2 0x39F9 DUP4 CODECOPY DUP2 DUP2 ADD PUSH1 0x40 MSTORE DUP2 ADD SWAP1 PUSH2 0x3B SWAP2 SWAP1 PUSH2 0x11E JUMP JUMPDEST CALLER PUSH0 PUSH0 PUSH2 0x100 EXP DUP2 SLOAD DUP2 PUSH20 0xFFFFFFFFFFFFFFFFFFFFFFFFFFFFFFFFFFFFFFFF MUL NOT AND SWAP1 DUP4 PUSH20 0xFFFFFFFFFFFFFFFFFFFFFFFFFFFFFFFFFFFFFFFF AND MUL OR SWAP1 SSTORE POP DUP1 PUSH1 0x2 PUSH0 PUSH2 0x100 EXP DUP2 SLOAD DUP2 PUSH20 0xFFFFFFFFFFFFFFFFFFFFFFFFFFFFFFFFFFFFFFFF MUL NOT AND SWAP1 DUP4 PUSH20 0xFFFFFFFFFFFFFFFFFFFFFFFFFFFFFFFFFFFFFFFF AND MUL OR SWAP1 SSTORE POP POP PUSH2 0x149 JUMP JUMPDEST PUSH0 PUSH0 REVERT JUMPDEST PUSH0 PUSH20 0xFFFFFFFFFFFFFFFFFFFFFFFFFFFFFFFFFFFFFFFF DUP3 AND SWAP1 POP SWAP2 SWAP1 POP JUMP JUMPDEST PUSH0 PUSH2 0xED DUP3 PUSH2 0xC4 JUMP JUMPDEST SWAP1 POP SWAP2 SWAP1 POP JUMP JUMPDEST PUSH2 0xFD DUP2 PUSH2 0xE3 JUMP JUMPDEST DUP2 EQ PUSH2 0x107 JUMPI PUSH0 PUSH0 REVERT JUMPDEST POP JUMP JUMPDEST PUSH0 DUP2 MLOAD SWAP1 POP PUSH2 0x118 DUP2 PUSH2 0xF4 JUMP JUMPDEST SWAP3 SWAP2 POP POP JUMP JUMPDEST PUSH0 PUSH1 0x20 DUP3 DUP5 SUB SLT ISZERO PUSH2 0x133 JUMPI PUSH2 0x132 PUSH2 0xC0 JUMP JUMPDEST JUMPDEST PUSH0 PUSH2 0x140 DUP5 DUP3 DUP6 ADD PUSH2 0x10A JUMP JUMPDEST SWAP2 POP POP SWAP3 SWAP2 POP POP JUMP JUMPDEST PUSH2 0x38A3 DUP1 PUSH2 0x156 PUSH0 CODECOPY PUSH0 RETURN INVALID PUSH1 0x80 PUSH1 0x40 MSTORE CALLVALUE DUP1 ISZERO PUSH2 0xF JUMPI PUSH0 PUSH0 REVERT JUMPDEST POP PUSH1 0x4 CALLDATASIZE LT PUSH2 0x11F JUMPI PUSH0 CALLDATALOAD PUSH1 0xE0 SHR DUP1 PUSH4 0x6DD2DD88 GT PUSH2 0xAB JUMPI DUP1 PUSH4 0xB447AAAE GT PUSH2 0x6F JUMPI DUP1 PUSH4 0xB447AAAE EQ PUSH2 0x301 JUMPI DUP1 PUSH4 0xB9B5AAE6 EQ PUSH2 0x31D JUMPI DUP1 PUSH4 0xBAF85306 EQ PUSH2 0x33B JUMPI DUP1 PUSH4 0xD198B650 EQ PUSH2 0x357 JUMPI DUP1 PUSH4 0xD86EC238 EQ PUSH2 0x373 JUMPI PUSH2 0x11F JUMP JUMPDEST DUP1 PUSH4 0x6DD2DD88 EQ PUSH2 0x25F JUMPI DUP1 PUSH4 0x70480275 EQ PUSH2 0x27B JUMPI DUP1 PUSH4 0x893D20E8 EQ PUSH2 0x297 JUMPI DUP1 PUSH4 0x9A69BFA6 EQ PUSH2 0x2B5 JUMPI DUP1 PUSH4 0xAF5607F9 EQ PUSH2 0x2D1 JUMPI PUSH2 0x11F JUMP JUMPDEST DUP1 PUSH4 0x1E4DE872 GT PUSH2 0xF2 JUMPI DUP1 PUSH4 0x1E4DE872 EQ PUSH2 0x197 JUMPI DUP1 PUSH4 0x24D7806C EQ PUSH2 0x1C7 JUMPI DUP1 PUSH4 0x35085515 EQ PUSH2 0x1F7 JUMPI DUP1 PUSH4 0x4D30A39B EQ PUSH2 0x227 JUMPI DUP1 PUSH4 0x64F77471 EQ PUSH2 0x243 JUMPI PUSH2 0x11F JUMP JUMPDEST DUP1 PUSH4 0x94B9A53 EQ PUSH2 0x123 JUMPI DUP1 PUSH4 0x1785F53C EQ PUSH2 0x13F JUMPI DUP1 PUSH4 0x1945EF58 EQ PUSH2 0x15B JUMPI DUP1 PUSH4 0x1B0D77CC EQ PUSH2 0x179 JUMPI JUMPDEST PUSH0 PUSH0 REVERT JUMPDEST PUSH2 0x13D PUSH1 0x4 DUP1 CALLDATASIZE SUB DUP2 ADD SWAP1 PUSH2 0x138 SWAP2 SWAP1 PUSH2 0x20CB JUMP JUMPDEST PUSH2 0x391 JUMP JUMPDEST STOP JUMPDEST PUSH2 0x159 PUSH1 0x4 DUP1 CALLDATASIZE SUB DUP2 ADD SWAP1 PUSH2 0x154 SWAP2 SWAP1 PUSH2 0x2175 JUMP JUMPDEST PUSH2 0x44A JUMP JUMPDEST STOP JUMPDEST PUSH2 0x163 PUSH2 0x4B1 JUMP JUMPDEST PUSH1 0x40 MLOAD PUSH2 0x170 SWAP2 SWAP1 PUSH2 0x21AF JUMP JUMPDEST PUSH1 0x40 MLOAD DUP1 SWAP2 SUB SWAP1 RETURN JUMPDEST PUSH2 0x181 PUSH2 0x4B7 JUMP JUMPDEST PUSH1 0x40 MLOAD PUSH2 0x18E SWAP2 SWAP1 PUSH2 0x21AF JUMP JUMPDEST PUSH1 0x40 MLOAD DUP1 SWAP2 SUB SWAP1 RETURN JUMPDEST PUSH2 0x1B1 PUSH1 0x4 DUP1 CALLDATASIZE SUB DUP2 ADD SWAP1 PUSH2 0x1AC SWAP2 SWAP1 PUSH2 0x21C8 JUMP JUMPDEST PUSH2 0x4BD JUMP JUMPDEST PUSH1 0x40 MLOAD PUSH2 0x1BE SWAP2 SWAP1 PUSH2 0x23D4 JUMP JUMPDEST PUSH1 0x40 MLOAD DUP1 SWAP2 SUB SWAP1 RETURN JUMPDEST PUSH2 0x1E1 PUSH1 0x4 DUP1 CALLDATASIZE SUB DUP2 ADD SWAP1 PUSH2 0x1DC SWAP2 SWAP1 PUSH2 0x2175 JUMP JUMPDEST PUSH2 0x758 JUMP JUMPDEST PUSH1 0x40 MLOAD PUSH2 0x1EE SWAP2 SWAP1 PUSH2 0x2467 JUMP JUMPDEST PUSH1 0x40 MLOAD DUP1 SWAP2 SUB SWAP1 RETURN JUMPDEST PUSH2 0x211 PUSH1 0x4 DUP1 CALLDATASIZE SUB DUP2 ADD SWAP1 PUSH2 0x20C SWAP2 SWAP1 PUSH2 0x2480 JUMP JUMPDEST PUSH2 0x775 JUMP JUMPDEST PUSH1 0x40 MLOAD PUSH2 0x21E SWAP2 SWAP1 PUSH2 0x251E JUMP JUMPDEST PUSH1 0x40 MLOAD DUP1 SWAP2 SUB SWAP1 RETURN JUMPDEST PUSH2 0x241 PUSH1 0x4 DUP1 CALLDATASIZE SUB DUP2 ADD SWAP1 PUSH2 0x23C SWAP2 SWAP1 PUSH2 0x2480 JUMP JUMPDEST PUSH2 0x914 JUMP JUMPDEST STOP JUMPDEST PUSH2 0x25D PUSH1 0x4 DUP1 CALLDATASIZE SUB DUP2 ADD SWAP1 PUSH2 0x258 SWAP2 SWAP1 PUSH2 0x27D1 JUMP JUMPDEST PUSH2 0xC17 JUMP JUMPDEST STOP JUMPDEST PUSH2 0x279 PUSH1 0x4 DUP1 CALLDATASIZE SUB DUP2 ADD SWAP1 PUSH2 0x274 SWAP2 SWAP1 PUSH2 0x2909 JUMP JUMPDEST PUSH2 0xDC6 JUMP JUMPDEST STOP JUMPDEST PUSH2 0x295 PUSH1 0x4 DUP1 CALLDATASIZE SUB DUP2 ADD SWAP1 PUSH2 0x290 SWAP2 SWAP1 PUSH2 0x2175 JUMP JUMPDEST PUSH2 0xFC7 JUMP JUMPDEST STOP JUMPDEST PUSH2 0x29F PUSH2 0x102E JUMP JUMPDEST PUSH1 0x40 MLOAD PUSH2 0x2AC SWAP2 SWAP1 PUSH2 0x29E3 JUMP JUMPDEST PUSH1 0x40 MLOAD DUP1 SWAP2 SUB SWAP1 RETURN JUMPDEST PUSH2 0x2CF PUSH1 0x4 DUP1 CALLDATASIZE SUB DUP2 ADD SWAP1 PUSH2 0x2CA SWAP2 SWAP1 PUSH2 0x20CB JUMP JUMPDEST PUSH2 0x1055 JUMP JUMPDEST STOP JUMPDEST PUSH2 0x2EB PUSH1 0x4 DUP1 CALLDATASIZE SUB DUP2 ADD SWAP1 PUSH2 0x2E6 SWAP2 SWAP1 PUSH2 0x21C8 JUMP JUMPDEST PUSH2 0x1182 JUMP JUMPDEST PUSH1 0x40 MLOAD PUSH2 0x2F8 SWAP2 SWAP1 PUSH2 0x2B17 JUMP JUMPDEST PUSH1 0x40 MLOAD DUP1 SWAP2 SUB SWAP1 RETURN JUMPDEST PUSH2 0x31B PUSH1 0x4 DUP1 CALLDATASIZE SUB DUP2 ADD SWAP1 PUSH2 0x316 SWAP2 SWAP1 PUSH2 0x2B37 JUMP JUMPDEST PUSH2 0x12F1 JUMP JUMPDEST STOP JUMPDEST PUSH2 0x325 PUSH2 0x16F2 JUMP JUMPDEST PUSH1 0x40 MLOAD PUSH2 0x332 SWAP2 SWAP1 PUSH2 0x2E56 JUMP JUMPDEST PUSH1 0x40 MLOAD DUP1 SWAP2 SUB SWAP1 RETURN JUMPDEST PUSH2 0x355 PUSH1 0x4 DUP1 CALLDATASIZE SUB DUP2 ADD SWAP1 PUSH2 0x350 SWAP2 SWAP1 PUSH2 0x2E76 JUMP JUMPDEST PUSH2 0x1B11 JUMP JUMPDEST STOP JUMPDEST PUSH2 0x371 PUSH1 0x4 DUP1 CALLDATASIZE SUB DUP2 ADD SWAP1 PUSH2 0x36C SWAP2 SWAP1 PUSH2 0x21C8 JUMP JUMPDEST PUSH2 0x1CD7 JUMP JUMPDEST STOP JUMPDEST PUSH2 0x37B PUSH2 0x1E99 JUMP JUMPDEST PUSH1 0x40 MLOAD PUSH2 0x388 SWAP2 SWAP1 PUSH2 0x2F3D JUMP JUMPDEST PUSH1 0x40 MLOAD DUP1 SWAP2 SUB SWAP1 RETURN JUMPDEST PUSH0 PUSH0 SWAP1 POP JUMPDEST PUSH1 0x6 PUSH0 DUP6 DUP2 MSTORE PUSH1 0x20 ADD SWAP1 DUP2 MSTORE PUSH1 0x20 ADD PUSH0 KECCAK256 DUP1 SLOAD SWAP1 POP DUP2 LT ISZERO PUSH2 0x444 JUMPI DUP3 PUSH1 0x6 PUSH0 DUP7 DUP2 MSTORE PUSH1 0x20 ADD SWAP1 DUP2 MSTORE PUSH1 0x20 ADD PUSH0 KECCAK256 DUP3 DUP2 SLOAD DUP2 LT PUSH2 0x3D6 JUMPI PUSH2 0x3D5 PUSH2 0x2F56 JUMP JUMPDEST JUMPDEST SWAP1 PUSH0 MSTORE PUSH1 0x20 PUSH0 KECCAK256 SWAP1 PUSH1 0x4 MUL ADD PUSH0 ADD SLOAD SUB PUSH2 0x437 JUMPI DUP2 PUSH1 0x6 PUSH0 DUP7 DUP2 MSTORE PUSH1 0x20 ADD SWAP1 DUP2 MSTORE PUSH1 0x20 ADD PUSH0 KECCAK256 DUP3 DUP2 SLOAD DUP2 LT PUSH2 0x40E JUMPI PUSH2 0x40D PUSH2 0x2F56 JUMP JUMPDEST JUMPDEST SWAP1 PUSH0 MSTORE PUSH1 0x20 PUSH0 KECCAK256 SWAP1 PUSH1 0x4 MUL ADD PUSH1 0x2 ADD PUSH0 DUP3 DUP3 SLOAD PUSH2 0x42B SWAP2 SWAP1 PUSH2 0x2FB0 JUMP JUMPDEST SWAP3 POP POP DUP2 SWAP1 SSTORE POP PUSH2 0x444 JUMP JUMPDEST DUP1 DUP1 PUSH1 0x1 ADD SWAP2 POP POP PUSH2 0x396 JUMP JUMPDEST POP POP POP POP JUMP JUMPDEST PUSH0 PUSH1 0x1 PUSH0 DUP4 PUSH20 0xFFFFFFFFFFFFFFFFFFFFFFFFFFFFFFFFFFFFFFFF AND PUSH20 0xFFFFFFFFFFFFFFFFFFFFFFFFFFFFFFFFFFFFFFFF AND DUP2 MSTORE PUSH1 0x20 ADD SWAP1 DUP2 MSTORE PUSH1 0x20 ADD PUSH0 KECCAK256 PUSH0 PUSH2 0x100 EXP DUP2 SLOAD DUP2 PUSH1 0xFF MUL NOT AND SWAP1 DUP4 PUSH1 0x2 DUP2 GT ISZERO PUSH2 0x4A9 JUMPI PUSH2 0x4A8 PUSH2 0x23F4 JUMP JUMPDEST JUMPDEST MUL OR SWAP1 SSTORE POP POP JUMP JUMPDEST PUSH1 0x3 SLOAD DUP2 JUMP JUMPDEST PUSH1 0x4 SLOAD DUP2 JUMP JUMPDEST PUSH2 0x4C5 PUSH2 0x1EBE JUMP JUMPDEST PUSH0 PUSH1 0x5 PUSH0 DUP5 DUP2 MSTORE PUSH1 0x20 ADD SWAP1 DUP2 MSTORE PUSH1 0x20 ADD PUSH0 KECCAK256 PUSH0 ADD SLOAD SUB PUSH2 0x51A JUMPI PUSH1 0x40 MLOAD PUSH32 0x8C379A000000000000000000000000000000000000000000000000000000000 DUP2 MSTORE PUSH1 0x4 ADD PUSH2 0x511 SWAP1 PUSH2 0x303D JUMP JUMPDEST PUSH1 0x40 MLOAD DUP1 SWAP2 SUB SWAP1 REVERT JUMPDEST PUSH1 0x5 PUSH0 DUP4 DUP2 MSTORE PUSH1 0x20 ADD SWAP1 DUP2 MSTORE PUSH1 0x20 ADD PUSH0 KECCAK256 PUSH1 0x40 MLOAD DUP1 PUSH1 0xE0 ADD PUSH1 0x40 MSTORE SWAP1 DUP2 PUSH0 DUP3 ADD SLOAD DUP2 MSTORE PUSH1 0x20 ADD PUSH1 0x1 DUP3 ADD DUP1 SLOAD PUSH2 0x54F SWAP1 PUSH2 0x3088 JUMP JUMPDEST DUP1 PUSH1 0x1F ADD PUSH1 0x20 DUP1 SWAP2 DIV MUL PUSH1 0x20 ADD PUSH1 0x40 MLOAD SWAP1 DUP2 ADD PUSH1 0x40 MSTORE DUP1 SWAP3 SWAP2 SWAP1 DUP2 DUP2 MSTORE PUSH1 0x20 ADD DUP3 DUP1 SLOAD PUSH2 0x57B SWAP1 PUSH2 0x3088 JUMP JUMPDEST DUP1 ISZERO PUSH2 0x5C6 JUMPI DUP1 PUSH1 0x1F LT PUSH2 0x59D JUMPI PUSH2 0x100 DUP1 DUP4 SLOAD DIV MUL DUP4 MSTORE SWAP2 PUSH1 0x20 ADD SWAP2 PUSH2 0x5C6 JUMP JUMPDEST DUP3 ADD SWAP2 SWAP1 PUSH0 MSTORE PUSH1 0x20 PUSH0 KECCAK256 SWAP1 JUMPDEST DUP2 SLOAD DUP2 MSTORE SWAP1 PUSH1 0x1 ADD SWAP1 PUSH1 0x20 ADD DUP1 DUP4 GT PUSH2 0x5A9 JUMPI DUP3 SWAP1 SUB PUSH1 0x1F AND DUP3 ADD SWAP2 JUMPDEST POP POP POP POP POP DUP2 MSTORE PUSH1 0x20 ADD PUSH1 0x2 DUP3 ADD DUP1 SLOAD PUSH2 0x5DF SWAP1 PUSH2 0x3088 JUMP JUMPDEST DUP1 PUSH1 0x1F ADD PUSH1 0x20 DUP1 SWAP2 DIV MUL PUSH1 0x20 ADD PUSH1 0x40 MLOAD SWAP1 DUP2 ADD PUSH1 0x40 MSTORE DUP1 SWAP3 SWAP2 SWAP1 DUP2 DUP2 MSTORE PUSH1 0x20 ADD DUP3 DUP1 SLOAD PUSH2 0x60B SWAP1 PUSH2 0x3088 JUMP JUMPDEST DUP1 ISZERO PUSH2 0x656 JUMPI DUP1 PUSH1 0x1F LT PUSH2 0x62D JUMPI PUSH2 0x100 DUP1 DUP4 SLOAD DIV MUL DUP4 MSTORE SWAP2 PUSH1 0x20 ADD SWAP2 PUSH2 0x656 JUMP JUMPDEST DUP3 ADD SWAP2 SWAP1 PUSH0 MSTORE PUSH1 0x20 PUSH0 KECCAK256 SWAP1 JUMPDEST DUP2 SLOAD DUP2 MSTORE SWAP1 PUSH1 0x1 ADD SWAP1 PUSH1 0x20 ADD DUP1 DUP4 GT PUSH2 0x639 JUMPI DUP3 SWAP1 SUB PUSH1 0x1F AND DUP3 ADD SWAP2 JUMPDEST POP POP POP POP POP DUP2 MSTORE PUSH1 0x20 ADD PUSH1 0x3 DUP3 ADD SLOAD DUP2 MSTORE PUSH1 0x20 ADD PUSH1 0x4 DUP3 ADD DUP1 SLOAD DUP1 PUSH1 0x20 MUL PUSH1 0x20 ADD PUSH1 0x40 MLOAD SWAP1 DUP2 ADD PUSH1 0x40 MSTORE DUP1 SWAP3 SWAP2 SWAP1 DUP2 DUP2 MSTORE PUSH1 0x20 ADD PUSH0 SWAP1 JUMPDEST DUP3 DUP3 LT ISZERO PUSH2 0x735 JUMPI DUP4 DUP3 SWAP1 PUSH0 MSTORE PUSH1 0x20 PUSH0 KECCAK256 ADD DUP1 SLOAD PUSH2 0x6AA SWAP1 PUSH2 0x3088 JUMP JUMPDEST DUP1 PUSH1 0x1F ADD PUSH1 0x20 DUP1 SWAP2 DIV MUL PUSH1 0x20 ADD PUSH1 0x40 MLOAD SWAP1 DUP2 ADD PUSH1 0x40 MSTORE DUP1 SWAP3 SWAP2 SWAP1 DUP2 DUP2 MSTORE PUSH1 0x20 ADD DUP3 DUP1 SLOAD PUSH2 0x6D6 SWAP1 PUSH2 0x3088 JUMP JUMPDEST DUP1 ISZERO PUSH2 0x721 JUMPI DUP1 PUSH1 0x1F LT PUSH2 0x6F8 JUMPI PUSH2 0x100 DUP1 DUP4 SLOAD DIV MUL DUP4 MSTORE SWAP2 PUSH1 0x20 ADD SWAP2 PUSH2 0x721 JUMP JUMPDEST DUP3 ADD SWAP2 SWAP1 PUSH0 MSTORE PUSH1 0x20 PUSH0 KECCAK256 SWAP1 JUMPDEST DUP2 SLOAD DUP2 MSTORE SWAP1 PUSH1 0x1 ADD SWAP1 PUSH1 0x20 ADD DUP1 DUP4 GT PUSH2 0x704 JUMPI DUP3 SWAP1 SUB PUSH1 0x1F AND DUP3 ADD SWAP2 JUMPDEST POP POP POP POP POP DUP2 MSTORE PUSH1 0x20 ADD SWAP1 PUSH1 0x1 ADD SWAP1 PUSH2 0x68D JUMP JUMPDEST POP POP POP POP DUP2 MSTORE PUSH1 0x20 ADD PUSH1 0x5 DUP3 ADD SLOAD DUP2 MSTORE PUSH1 0x20 ADD PUSH1 0x6 DUP3 ADD SLOAD DUP2 MSTORE POP POP SWAP1 POP SWAP2 SWAP1 POP JUMP JUMPDEST PUSH1 0x1 PUSH1 0x20 MSTORE DUP1 PUSH0 MSTORE PUSH1 0x40 PUSH0 KECCAK256 PUSH0 SWAP2 POP SLOAD SWAP1 PUSH2 0x100 EXP SWAP1 DIV PUSH1 0xFF AND DUP2 JUMP JUMPDEST PUSH2 0x77D PUSH2 0x1EF7 JUMP JUMPDEST PUSH0 PUSH0 SWAP1 POP JUMPDEST PUSH1 0x6 PUSH0 DUP6 DUP2 MSTORE PUSH1 0x20 ADD SWAP1 DUP2 MSTORE PUSH1 0x20 ADD PUSH0 KECCAK256 DUP1 SLOAD SWAP1 POP DUP2 LT ISZERO PUSH2 0x8D2 JUMPI DUP3 PUSH1 0x6 PUSH0 DUP7 DUP2 MSTORE PUSH1 0x20 ADD SWAP1 DUP2 MSTORE PUSH1 0x20 ADD PUSH0 KECCAK256 DUP3 DUP2 SLOAD DUP2 LT PUSH2 0x7C2 JUMPI PUSH2 0x7C1 PUSH2 0x2F56 JUMP JUMPDEST JUMPDEST SWAP1 PUSH0 MSTORE PUSH1 0x20 PUSH0 KECCAK256 SWAP1 PUSH1 0x4 MUL ADD PUSH0 ADD SLOAD SUB PUSH2 0x8C5 JUMPI PUSH1 0x6 PUSH0 DUP6 DUP2 MSTORE PUSH1 0x20 ADD SWAP1 DUP2 MSTORE PUSH1 0x20 ADD PUSH0 KECCAK256 DUP2 DUP2 SLOAD DUP2 LT PUSH2 0x7F9 JUMPI PUSH2 0x7F8 PUSH2 0x2F56 JUMP JUMPDEST JUMPDEST SWAP1 PUSH0 MSTORE PUSH1 0x20 PUSH0 KECCAK256 SWAP1 PUSH1 0x4 MUL ADD PUSH1 0x40 MLOAD DUP1 PUSH1 0x80 ADD PUSH1 0x40 MSTORE SWAP1 DUP2 PUSH0 DUP3 ADD SLOAD DUP2 MSTORE PUSH1 0x20 ADD PUSH1 0x1 DUP3 ADD DUP1 SLOAD PUSH2 0x829 SWAP1 PUSH2 0x3088 JUMP JUMPDEST DUP1 PUSH1 0x1F ADD PUSH1 0x20 DUP1 SWAP2 DIV MUL PUSH1 0x20 ADD PUSH1 0x40 MLOAD SWAP1 DUP2 ADD PUSH1 0x40 MSTORE DUP1 SWAP3 SWAP2 SWAP1 DUP2 DUP2 MSTORE PUSH1 0x20 ADD DUP3 DUP1 SLOAD PUSH2 0x855 SWAP1 PUSH2 0x3088 JUMP JUMPDEST DUP1 ISZERO PUSH2 0x8A0 JUMPI DUP1 PUSH1 0x1F LT PUSH2 0x877 JUMPI PUSH2 0x100 DUP1 DUP4 SLOAD DIV MUL DUP4 MSTORE SWAP2 PUSH1 0x20 ADD SWAP2 PUSH2 0x8A0 JUMP JUMPDEST DUP3 ADD SWAP2 SWAP1 PUSH0 MSTORE PUSH1 0x20 PUSH0 KECCAK256 SWAP1 JUMPDEST DUP2 SLOAD DUP2 MSTORE SWAP1 PUSH1 0x1 ADD SWAP1 PUSH1 0x20 ADD DUP1 DUP4 GT PUSH2 0x883 JUMPI DUP3 SWAP1 SUB PUSH1 0x1F AND DUP3 ADD SWAP2 JUMPDEST POP POP POP POP POP DUP2 MSTORE PUSH1 0x20 ADD PUSH1 0x2 DUP3 ADD SLOAD DUP2 MSTORE PUSH1 0x20 ADD PUSH1 0x3 DUP3 ADD SLOAD DUP2 MSTORE POP POP SWAP2 POP POP PUSH2 0x90E JUMP JUMPDEST DUP1 DUP1 PUSH1 0x1 ADD SWAP2 POP POP PUSH2 0x782 JUMP JUMPDEST POP PUSH1 0x40 MLOAD PUSH32 0x8C379A000000000000000000000000000000000000000000000000000000000 DUP2 MSTORE PUSH1 0x4 ADD PUSH2 0x905 SWAP1 PUSH2 0x3102 JUMP JUMPDEST PUSH1 0x40 MLOAD DUP1 SWAP2 SUB SWAP1 REVERT JUMPDEST SWAP3 SWAP2 POP POP JUMP JUMPDEST PUSH0 PUSH1 0x5 PUSH0 DUP5 DUP2 MSTORE PUSH1 0x20 ADD SWAP1 DUP2 MSTORE PUSH1 0x20 ADD PUSH0 KECCAK256 PUSH0 ADD SLOAD SUB PUSH2 0x969 JUMPI PUSH1 0x40 MLOAD PUSH32 0x8C379A000000000000000000000000000000000000000000000000000000000 DUP2 MSTORE PUSH1 0x4 ADD PUSH2 0x960 SWAP1 PUSH2 0x303D JUMP JUMPDEST PUSH1 0x40 MLOAD DUP1 SWAP2 SUB SWAP1 REVERT JUMPDEST PUSH0 PUSH1 0x6 PUSH0 DUP5 DUP2 MSTORE PUSH1 0x20 ADD SWAP1 DUP2 MSTORE PUSH1 0x20 ADD PUSH0 KECCAK256 SWAP1 POP PUSH0 PUSH0 SWAP1 POP PUSH0 PUSH0 SWAP1 POP JUMPDEST DUP3 DUP1 SLOAD SWAP1 POP DUP2 LT ISZERO PUSH2 0xBD0 JUMPI DUP4 DUP4 DUP3 DUP2 SLOAD DUP2 LT PUSH2 0x9A6 JUMPI PUSH2 0x9A5 PUSH2 0x2F56 JUMP JUMPDEST JUMPDEST SWAP1 PUSH0 MSTORE PUSH1 0x20 PUSH0 KECCAK256 SWAP1 PUSH1 0x4 MUL ADD PUSH0 ADD SLOAD SUB PUSH2 0xBC3 JUMPI PUSH1 0x1 DUP4 DUP1 SLOAD SWAP1 POP GT PUSH2 0x9FA JUMPI PUSH1 0x40 MLOAD DUP1 PUSH1 0x80 ADD PUSH1 0x40 MSTORE DUP1 PUSH0 DUP2 MSTORE PUSH1 0x20 ADD PUSH1 0x40 MLOAD DUP1 PUSH1 0x20 ADD PUSH1 0x40 MSTORE DUP1 PUSH0 DUP2 MSTORE POP DUP2 MSTORE PUSH1 0x20 ADD PUSH0 DUP2 MSTORE PUSH1 0x20 ADD PUSH0 DUP2 MSTORE POP PUSH2 0xAE2 JUMP JUMPDEST DUP3 PUSH1 0x1 DUP5 DUP1 SLOAD SWAP1 POP PUSH2 0xA0C SWAP2 SWAP1 PUSH2 0x3120 JUMP JUMPDEST DUP2 SLOAD DUP2 LT PUSH2 0xA1D JUMPI PUSH2 0xA1C PUSH2 0x2F56 JUMP JUMPDEST JUMPDEST SWAP1 PUSH0 MSTORE PUSH1 0x20 PUSH0 KECCAK256 SWAP1 PUSH1 0x4 MUL ADD PUSH1 0x40 MLOAD DUP1 PUSH1 0x80 ADD PUSH1 0x40 MSTORE SWAP1 DUP2 PUSH0 DUP3 ADD SLOAD DUP2 MSTORE PUSH1 0x20 ADD PUSH1 0x1 DUP3 ADD DUP1 SLOAD PUSH2 0xA4D SWAP1 PUSH2 0x3088 JUMP JUMPDEST DUP1 PUSH1 0x1F ADD PUSH1 0x20 DUP1 SWAP2 DIV MUL PUSH1 0x20 ADD PUSH1 0x40 MLOAD SWAP1 DUP2 ADD PUSH1 0x40 MSTORE DUP1 SWAP3 SWAP2 SWAP1 DUP2 DUP2 MSTORE PUSH1 0x20 ADD DUP3 DUP1 SLOAD PUSH2 0xA79 SWAP1 PUSH2 0x3088 JUMP JUMPDEST DUP1 ISZERO PUSH2 0xAC4 JUMPI DUP1 PUSH1 0x1F LT PUSH2 0xA9B JUMPI PUSH2 0x100 DUP1 DUP4 SLOAD DIV MUL DUP4 MSTORE SWAP2 PUSH1 0x20 ADD SWAP2 PUSH2 0xAC4 JUMP JUMPDEST DUP3 ADD SWAP2 SWAP1 PUSH0 MSTORE PUSH1 0x20 PUSH0 KECCAK256 SWAP1 JUMPDEST DUP2 SLOAD DUP2 MSTORE SWAP1 PUSH1 0x1 ADD SWAP1 PUSH1 0x20 ADD DUP1 DUP4 GT PUSH2 0xAA7 JUMPI DUP3 SWAP1 SUB PUSH1 0x1F AND DUP3 ADD SWAP2 JUMPDEST POP POP POP POP POP DUP2 MSTORE PUSH1 0x20 ADD PUSH1 0x2 DUP3 ADD SLOAD DUP2 MSTORE PUSH1 0x20 ADD PUSH1 0x3 DUP3 ADD SLOAD DUP2 MSTORE POP POP JUMPDEST DUP4 DUP3 DUP2 SLOAD DUP2 LT PUSH2 0xAF5 JUMPI PUSH2 0xAF4 PUSH2 0x2F56 JUMP JUMPDEST JUMPDEST SWAP1 PUSH0 MSTORE PUSH1 0x20 PUSH0 KECCAK256 SWAP1 PUSH1 0x4 MUL ADD PUSH0 DUP3 ADD MLOAD DUP2 PUSH0 ADD SSTORE PUSH1 0x20 DUP3 ADD MLOAD DUP2 PUSH1 0x1 ADD SWAP1 DUP2 PUSH2 0xB1E SWAP2 SWAP1 PUSH2 0x32EA JUMP JUMPDEST POP PUSH1 0x40 DUP3 ADD MLOAD DUP2 PUSH1 0x2 ADD SSTORE PUSH1 0x60 DUP3 ADD MLOAD DUP2 PUSH1 0x3 ADD SSTORE SWAP1 POP POP DUP3 DUP1 SLOAD DUP1 PUSH2 0xB47 JUMPI PUSH2 0xB46 PUSH2 0x33B9 JUMP JUMPDEST JUMPDEST PUSH1 0x1 SWAP1 SUB DUP2 DUP2 SWAP1 PUSH0 MSTORE PUSH1 0x20 PUSH0 KECCAK256 SWAP1 PUSH1 0x4 MUL ADD PUSH0 PUSH0 DUP3 ADD PUSH0 SWAP1 SSTORE PUSH1 0x1 DUP3 ADD PUSH0 PUSH2 0xB6F SWAP2 SWAP1 PUSH2 0x1F1C JUMP JUMPDEST PUSH1 0x2 DUP3 ADD PUSH0 SWAP1 SSTORE PUSH1 0x3 DUP3 ADD PUSH0 SWAP1 SSTORE POP POP SWAP1 SSTORE PUSH1 0x1 SWAP2 POP PUSH32 0x55CAA6A55ACB7E3464DC13C54D94739E0F01B9141276CAEBB64F3EF500CD8900 DUP6 DUP6 PUSH1 0x40 MLOAD PUSH2 0xBB6 SWAP3 SWAP2 SWAP1 PUSH2 0x33E6 JUMP JUMPDEST PUSH1 0x40 MLOAD DUP1 SWAP2 SUB SWAP1 LOG1 PUSH2 0xBD0 JUMP JUMPDEST DUP1 DUP1 PUSH1 0x1 ADD SWAP2 POP POP PUSH2 0x986 JUMP JUMPDEST POP DUP1 PUSH2 0xC11 JUMPI PUSH1 0x40 MLOAD PUSH32 0x8C379A000000000000000000000000000000000000000000000000000000000 DUP2 MSTORE PUSH1 0x4 ADD PUSH2 0xC08 SWAP1 PUSH2 0x3457 JUMP JUMPDEST PUSH1 0x40 MLOAD DUP1 SWAP2 SUB SWAP1 REVERT JUMPDEST POP POP POP POP JUMP JUMPDEST PUSH0 PUSH1 0x5 PUSH0 DUP5 DUP2 MSTORE PUSH1 0x20 ADD SWAP1 DUP2 MSTORE PUSH1 0x20 ADD PUSH0 KECCAK256 PUSH0 ADD SLOAD SUB PUSH2 0xC6C JUMPI PUSH1 0x40 MLOAD PUSH32 0x8C379A000000000000000000000000000000000000000000000000000000000 DUP2 MSTORE PUSH1 0x4 ADD PUSH2 0xC63 SWAP1 PUSH2 0x303D JUMP JUMPDEST PUSH1 0x40 MLOAD DUP1 SWAP2 SUB SWAP1 REVERT JUMPDEST PUSH0 PUSH0 SWAP1 POP JUMPDEST DUP2 MLOAD DUP2 LT ISZERO PUSH2 0xD8A JUMPI PUSH1 0x4 PUSH0 DUP2 SLOAD DUP1 SWAP3 SWAP2 SWAP1 PUSH2 0xC8C SWAP1 PUSH2 0x3475 JUMP JUMPDEST SWAP2 SWAP1 POP SSTORE POP PUSH0 PUSH1 0x40 MLOAD DUP1 PUSH1 0x80 ADD PUSH1 0x40 MSTORE DUP1 PUSH1 0x4 SLOAD DUP2 MSTORE PUSH1 0x20 ADD DUP5 DUP5 DUP2 MLOAD DUP2 LT PUSH2 0xCB8 JUMPI PUSH2 0xCB7 PUSH2 0x2F56 JUMP JUMPDEST JUMPDEST PUSH1 0x20 MUL PUSH1 0x20 ADD ADD MLOAD PUSH0 ADD MLOAD DUP2 MSTORE PUSH1 0x20 ADD DUP5 DUP5 DUP2 MLOAD DUP2 LT PUSH2 0xCDB JUMPI PUSH2 0xCDA PUSH2 0x2F56 JUMP JUMPDEST JUMPDEST PUSH1 0x20 MUL PUSH1 0x20 ADD ADD MLOAD PUSH1 0x20 ADD MLOAD DUP2 MSTORE PUSH1 0x20 ADD DUP5 DUP5 DUP2 MLOAD DUP2 LT PUSH2 0xCFF JUMPI PUSH2 0xCFE PUSH2 0x2F56 JUMP JUMPDEST JUMPDEST PUSH1 0x20 MUL PUSH1 0x20 ADD ADD MLOAD PUSH1 0x40 ADD MLOAD DUP2 MSTORE POP SWAP1 POP PUSH1 0x6 PUSH0 DUP6 DUP2 MSTORE PUSH1 0x20 ADD SWAP1 DUP2 MSTORE PUSH1 0x20 ADD PUSH0 KECCAK256 DUP2 SWAP1 DUP1 PUSH1 0x1 DUP2 SLOAD ADD DUP1 DUP3 SSTORE DUP1 SWAP2 POP POP PUSH1 0x1 SWAP1 SUB SWAP1 PUSH0 MSTORE PUSH1 0x20 PUSH0 KECCAK256 SWAP1 PUSH1 0x4 MUL ADD PUSH0 SWAP1 SWAP2 SWAP1 SWAP2 SWAP1 SWAP2 POP PUSH0 DUP3 ADD MLOAD DUP2 PUSH0 ADD SSTORE PUSH1 0x20 DUP3 ADD MLOAD DUP2 PUSH1 0x1 ADD SWAP1 DUP2 PUSH2 0xD65 SWAP2 SWAP1 PUSH2 0x32EA JUMP JUMPDEST POP PUSH1 0x40 DUP3 ADD MLOAD DUP2 PUSH1 0x2 ADD SSTORE PUSH1 0x60 DUP3 ADD MLOAD DUP2 PUSH1 0x3 ADD SSTORE POP POP POP DUP1 DUP1 PUSH1 0x1 ADD SWAP2 POP POP PUSH2 0xC71 JUMP JUMPDEST POP PUSH32 0x19A8E56286393226625DCDBC7CBB5A7611C71773D54C7E0680658CB9CEEF6C22 DUP3 PUSH1 0x40 MLOAD PUSH2 0xDBA SWAP2 SWAP1 PUSH2 0x21AF JUMP JUMPDEST PUSH1 0x40 MLOAD DUP1 SWAP2 SUB SWAP1 LOG1 POP POP JUMP JUMPDEST PUSH0 PUSH1 0x5 PUSH0 DUP8 DUP2 MSTORE PUSH1 0x20 ADD SWAP1 DUP2 MSTORE PUSH1 0x20 ADD PUSH0 KECCAK256 PUSH0 ADD SLOAD SUB PUSH2 0xE1B JUMPI PUSH1 0x40 MLOAD PUSH32 0x8C379A000000000000000000000000000000000000000000000000000000000 DUP2 MSTORE PUSH1 0x4 ADD PUSH2 0xE12 SWAP1 PUSH2 0x303D JUMP JUMPDEST PUSH1 0x40 MLOAD DUP1 SWAP2 SUB SWAP1 REVERT JUMPDEST PUSH0 PUSH1 0x2 PUSH0 SWAP1 SLOAD SWAP1 PUSH2 0x100 EXP SWAP1 DIV PUSH20 0xFFFFFFFFFFFFFFFFFFFFFFFFFFFFFFFFFFFFFFFF AND PUSH20 0xFFFFFFFFFFFFFFFFFFFFFFFFFFFFFFFFFFFFFFFF AND PUSH4 0xF3052D26 DUP5 PUSH1 0x40 MLOAD DUP3 PUSH4 0xFFFFFFFF AND PUSH1 0xE0 SHL DUP2 MSTORE PUSH1 0x4 ADD PUSH2 0xE76 SWAP2 SWAP1 PUSH2 0x21AF JUMP JUMPDEST PUSH0 PUSH1 0x40 MLOAD DUP1 DUP4 SUB DUP2 DUP7 GAS STATICCALL ISZERO DUP1 ISZERO PUSH2 0xE90 JUMPI RETURNDATASIZE PUSH0 PUSH0 RETURNDATACOPY RETURNDATASIZE PUSH0 REVERT JUMPDEST POP POP POP POP PUSH1 0x40 MLOAD RETURNDATASIZE PUSH0 DUP3 RETURNDATACOPY RETURNDATASIZE PUSH1 0x1F NOT PUSH1 0x1F DUP3 ADD AND DUP3 ADD DUP1 PUSH1 0x40 MSTORE POP DUP2 ADD SWAP1 PUSH2 0xEB8 SWAP2 SWAP1 PUSH2 0x35A7 JUMP JUMPDEST PUSH0 ADD MLOAD SUB PUSH2 0xEFB JUMPI PUSH1 0x40 MLOAD PUSH32 0x8C379A000000000000000000000000000000000000000000000000000000000 DUP2 MSTORE PUSH1 0x4 ADD PUSH2 0xEF2 SWAP1 PUSH2 0x3638 JUMP JUMPDEST PUSH1 0x40 MLOAD DUP1 SWAP2 SUB SWAP1 REVERT JUMPDEST DUP4 PUSH1 0x5 PUSH0 DUP8 DUP2 MSTORE PUSH1 0x20 ADD SWAP1 DUP2 MSTORE PUSH1 0x20 ADD PUSH0 KECCAK256 PUSH1 0x1 ADD SWAP1 DUP2 PUSH2 0xF1C SWAP2 SWAP1 PUSH2 0x32EA JUMP JUMPDEST POP DUP3 PUSH1 0x5 PUSH0 DUP8 DUP2 MSTORE PUSH1 0x20 ADD SWAP1 DUP2 MSTORE PUSH1 0x20 ADD PUSH0 KECCAK256 PUSH1 0x2 ADD SWAP1 DUP2 PUSH2 0xF3E SWAP2 SWAP1 PUSH2 0x32EA JUMP JUMPDEST POP DUP2 PUSH1 0x5 PUSH0 DUP8 DUP2 MSTORE PUSH1 0x20 ADD SWAP1 DUP2 MSTORE PUSH1 0x20 ADD PUSH0 KECCAK256 PUSH1 0x3 ADD DUP2 SWAP1 SSTORE POP DUP1 PUSH1 0x5 PUSH0 DUP8 DUP2 MSTORE PUSH1 0x20 ADD SWAP1 DUP2 MSTORE PUSH1 0x20 ADD PUSH0 KECCAK256 PUSH1 0x4 ADD SWAP1 DUP1 MLOAD SWAP1 PUSH1 0x20 ADD SWAP1 PUSH2 0xF80 SWAP3 SWAP2 SWAP1 PUSH2 0x1F59 JUMP JUMPDEST POP PUSH32 0x4F49710E0E59EA2E7096D7BAD0267390D8BB5C007687F72B0DE2DB3AFDADD5E5 DUP6 DUP6 DUP6 DUP6 DUP6 PUSH1 0x40 MLOAD PUSH2 0xFB8 SWAP6 SWAP5 SWAP4 SWAP3 SWAP2 SWAP1 PUSH2 0x3711 JUMP JUMPDEST PUSH1 0x40 MLOAD DUP1 SWAP2 SUB SWAP1 LOG1 POP POP POP POP POP JUMP JUMPDEST PUSH1 0x1 DUP1 PUSH0 DUP4 PUSH20 0xFFFFFFFFFFFFFFFFFFFFFFFFFFFFFFFFFFFFFFFF AND PUSH20 0xFFFFFFFFFFFFFFFFFFFFFFFFFFFFFFFFFFFFFFFF AND DUP2 MSTORE PUSH1 0x20 ADD SWAP1 DUP2 MSTORE PUSH1 0x20 ADD PUSH0 KECCAK256 PUSH0 PUSH2 0x100 EXP DUP2 SLOAD DUP2 PUSH1 0xFF MUL NOT AND SWAP1 DUP4 PUSH1 0x2 DUP2 GT ISZERO PUSH2 0x1026 JUMPI PUSH2 0x1025 PUSH2 0x23F4 JUMP JUMPDEST JUMPDEST MUL OR SWAP1 SSTORE POP POP JUMP JUMPDEST PUSH0 PUSH0 PUSH0 SWAP1 SLOAD SWAP1 PUSH2 0x100 EXP SWAP1 DIV PUSH20 0xFFFFFFFFFFFFFFFFFFFFFFFFFFFFFFFFFFFFFFFF AND SWAP1 POP SWAP1 JUMP JUMPDEST PUSH0 PUSH0 SWAP1 POP JUMPDEST PUSH1 0x6 PUSH0 DUP6 DUP2 MSTORE PUSH1 0x20 ADD SWAP1 DUP2 MSTORE PUSH1 0x20 ADD PUSH0 KECCAK256 DUP1 SLOAD SWAP1 POP DUP2 LT ISZERO PUSH2 0x117C JUMPI DUP3 PUSH1 0x6 PUSH0 DUP7 DUP2 MSTORE PUSH1 0x20 ADD SWAP1 DUP2 MSTORE PUSH1 0x20 ADD PUSH0 KECCAK256 DUP3 DUP2 SLOAD DUP2 LT PUSH2 0x109A JUMPI PUSH2 0x1099 PUSH2 0x2F56 JUMP JUMPDEST JUMPDEST SWAP1 PUSH0 MSTORE PUSH1 0x20 PUSH0 KECCAK256 SWAP1 PUSH1 0x4 MUL ADD PUSH0 ADD SLOAD SUB PUSH2 0x116F JUMPI PUSH1 0x6 PUSH0 DUP6 DUP2 MSTORE PUSH1 0x20 ADD SWAP1 DUP2 MSTORE PUSH1 0x20 ADD PUSH0 KECCAK256 DUP2 DUP2 SLOAD DUP2 LT PUSH2 0x10D1 JUMPI PUSH2 0x10D0 PUSH2 0x2F56 JUMP JUMPDEST JUMPDEST SWAP1 PUSH0 MSTORE PUSH1 0x20 PUSH0 KECCAK256 SWAP1 PUSH1 0x4 MUL ADD PUSH1 0x2 ADD SLOAD DUP3 LT PUSH2 0x1122 JUMPI PUSH1 0x40 MLOAD PUSH32 0x8C379A000000000000000000000000000000000000000000000000000000000 DUP2 MSTORE PUSH1 0x4 ADD PUSH2 0x1119 SWAP1 PUSH2 0x37E7 JUMP JUMPDEST PUSH1 0x40 MLOAD DUP1 SWAP2 SUB SWAP1 REVERT JUMPDEST DUP2 PUSH1 0x6 PUSH0 DUP7 DUP2 MSTORE PUSH1 0x20 ADD SWAP1 DUP2 MSTORE PUSH1 0x20 ADD PUSH0 KECCAK256 DUP3 DUP2 SLOAD DUP2 LT PUSH2 0x1146 JUMPI PUSH2 0x1145 PUSH2 0x2F56 JUMP JUMPDEST JUMPDEST SWAP1 PUSH0 MSTORE PUSH1 0x20 PUSH0 KECCAK256 SWAP1 PUSH1 0x4 MUL ADD PUSH1 0x2 ADD PUSH0 DUP3 DUP3 SLOAD PUSH2 0x1163 SWAP2 SWAP1 PUSH2 0x3120 JUMP JUMPDEST SWAP3 POP POP DUP2 SWAP1 SSTORE POP PUSH2 0x117C JUMP JUMPDEST DUP1 DUP1 PUSH1 0x1 ADD SWAP2 POP POP PUSH2 0x105A JUMP JUMPDEST POP POP POP POP JUMP JUMPDEST PUSH1 0x60 PUSH0 PUSH1 0x5 PUSH0 DUP5 DUP2 MSTORE PUSH1 0x20 ADD SWAP1 DUP2 MSTORE PUSH1 0x20 ADD PUSH0 KECCAK256 PUSH0 ADD SLOAD SUB PUSH2 0x11D9 JUMPI PUSH1 0x40 MLOAD PUSH32 0x8C379A000000000000000000000000000000000000000000000000000000000 DUP2 MSTORE PUSH1 0x4 ADD PUSH2 0x11D0 SWAP1 PUSH2 0x303D JUMP JUMPDEST PUSH1 0x40 MLOAD DUP1 SWAP2 SUB SWAP1 REVERT JUMPDEST PUSH1 0x6 PUSH0 DUP4 DUP2 MSTORE PUSH1 0x20 ADD SWAP1 DUP2 MSTORE PUSH1 0x20 ADD PUSH0 KECCAK256 DUP1 SLOAD DUP1 PUSH1 0x20 MUL PUSH1 0x20 ADD PUSH1 0x40 MLOAD SWAP1 DUP2 ADD PUSH1 0x40 MSTORE DUP1 SWAP3 SWAP2 SWAP1 DUP2 DUP2 MSTORE PUSH1 0x20 ADD PUSH0 SWAP1 JUMPDEST DUP3 DUP3 LT ISZERO PUSH2 0x12E6 JUMPI DUP4 DUP3 SWAP1 PUSH0 MSTORE PUSH1 0x20 PUSH0 KECCAK256 SWAP1 PUSH1 0x4 MUL ADD PUSH1 0x40 MLOAD DUP1 PUSH1 0x80 ADD PUSH1 0x40 MSTORE SWAP1 DUP2 PUSH0 DUP3 ADD SLOAD DUP2 MSTORE PUSH1 0x20 ADD PUSH1 0x1 DUP3 ADD DUP1 SLOAD PUSH2 0x1243 SWAP1 PUSH2 0x3088 JUMP JUMPDEST DUP1 PUSH1 0x1F ADD PUSH1 0x20 DUP1 SWAP2 DIV MUL PUSH1 0x20 ADD PUSH1 0x40 MLOAD SWAP1 DUP2 ADD PUSH1 0x40 MSTORE DUP1 SWAP3 SWAP2 SWAP1 DUP2 DUP2 MSTORE PUSH1 0x20 ADD DUP3 DUP1 SLOAD PUSH2 0x126F SWAP1 PUSH2 0x3088 JUMP JUMPDEST DUP1 ISZERO PUSH2 0x12BA JUMPI DUP1 PUSH1 0x1F LT PUSH2 0x1291 JUMPI PUSH2 0x100 DUP1 DUP4 SLOAD DIV MUL DUP4 MSTORE SWAP2 PUSH1 0x20 ADD SWAP2 PUSH2 0x12BA JUMP JUMPDEST DUP3 ADD SWAP2 SWAP1 PUSH0 MSTORE PUSH1 0x20 PUSH0 KECCAK256 SWAP1 JUMPDEST DUP2 SLOAD DUP2 MSTORE SWAP1 PUSH1 0x1 ADD SWAP1 PUSH1 0x20 ADD DUP1 DUP4 GT PUSH2 0x129D JUMPI DUP3 SWAP1 SUB PUSH1 0x1F AND DUP3 ADD SWAP2 JUMPDEST POP POP POP POP POP DUP2 MSTORE PUSH1 0x20 ADD PUSH1 0x2 DUP3 ADD SLOAD DUP2 MSTORE PUSH1 0x20 ADD PUSH1 0x3 DUP3 ADD SLOAD DUP2 MSTORE POP POP DUP2 MSTORE PUSH1 0x20 ADD SWAP1 PUSH1 0x1 ADD SWAP1 PUSH2 0x1209 JUMP JUMPDEST POP POP POP POP SWAP1 POP SWAP2 SWAP1 POP JUMP JUMPDEST PUSH0 PUSH1 0x5 PUSH0 DUP9 DUP2 MSTORE PUSH1 0x20 ADD SWAP1 DUP2 MSTORE PUSH1 0x20 ADD PUSH0 KECCAK256 PUSH0 ADD SLOAD EQ PUSH2 0x1346 JUMPI PUSH1 0x40 MLOAD PUSH32 0x8C379A000000000000000000000000000000000000000000000000000000000 DUP2 MSTORE PUSH1 0x4 ADD PUSH2 0x133D SWAP1 PUSH2 0x384F JUMP JUMPDEST PUSH1 0x40 MLOAD DUP1 SWAP2 SUB SWAP1 REVERT JUMPDEST PUSH0 PUSH1 0x2 PUSH0 SWAP1 SLOAD SWAP1 PUSH2 0x100 EXP SWAP1 DIV PUSH20 0xFFFFFFFFFFFFFFFFFFFFFFFFFFFFFFFFFFFFFFFF AND PUSH20 0xFFFFFFFFFFFFFFFFFFFFFFFFFFFFFFFFFFFFFFFF AND PUSH4 0xF3052D26 DUP6 PUSH1 0x40 MLOAD DUP3 PUSH4 0xFFFFFFFF AND PUSH1 0xE0 SHL DUP2 MSTORE PUSH1 0x4 ADD PUSH2 0x13A1 SWAP2 SWAP1 PUSH2 0x21AF JUMP JUMPDEST PUSH0 PUSH1 0x40 MLOAD DUP1 DUP4 SUB DUP2 DUP7 GAS STATICCALL ISZERO DUP1 ISZERO PUSH2 0x13BB JUMPI RETURNDATASIZE PUSH0 PUSH0 RETURNDATACOPY RETURNDATASIZE PUSH0 REVERT JUMPDEST POP POP POP POP PUSH1 0x40 MLOAD RETURNDATASIZE PUSH0 DUP3 RETURNDATACOPY RETURNDATASIZE PUSH1 0x1F NOT PUSH1 0x1F DUP3 ADD AND DUP3 ADD DUP1 PUSH1 0x40 MSTORE POP DUP2 ADD SWAP1 PUSH2 0x13E3 SWAP2 SWAP1 PUSH2 0x35A7 JUMP JUMPDEST PUSH0 ADD MLOAD SUB PUSH2 0x1426 JUMPI PUSH1 0x40 MLOAD PUSH32 0x8C379A000000000000000000000000000000000000000000000000000000000 DUP2 MSTORE PUSH1 0x4 ADD PUSH2 0x141D SWAP1 PUSH2 0x3638 JUMP JUMPDEST PUSH1 0x40 MLOAD DUP1 SWAP2 SUB SWAP1 REVERT JUMPDEST PUSH0 PUSH1 0x40 MLOAD DUP1 PUSH1 0xE0 ADD PUSH1 0x40 MSTORE DUP1 DUP9 DUP2 MSTORE PUSH1 0x20 ADD DUP8 DUP2 MSTORE PUSH1 0x20 ADD DUP7 DUP2 MSTORE PUSH1 0x20 ADD DUP6 DUP2 MSTORE PUSH1 0x20 ADD DUP5 DUP2 MSTORE PUSH1 0x20 ADD PUSH0 DUP2 MSTORE PUSH1 0x20 ADD PUSH0 DUP2 MSTORE POP SWAP1 POP DUP1 PUSH1 0x5 PUSH0 DUP10 DUP2 MSTORE PUSH1 0x20 ADD SWAP1 DUP2 MSTORE PUSH1 0x20 ADD PUSH0 KECCAK256 PUSH0 DUP3 ADD MLOAD DUP2 PUSH0 ADD SSTORE PUSH1 0x20 DUP3 ADD MLOAD DUP2 PUSH1 0x1 ADD SWAP1 DUP2 PUSH2 0x148B SWAP2 SWAP1 PUSH2 0x32EA JUMP JUMPDEST POP PUSH1 0x40 DUP3 ADD MLOAD DUP2 PUSH1 0x2 ADD SWAP1 DUP2 PUSH2 0x14A1 SWAP2 SWAP1 PUSH2 0x32EA JUMP JUMPDEST POP PUSH1 0x60 DUP3 ADD MLOAD DUP2 PUSH1 0x3 ADD SSTORE PUSH1 0x80 DUP3 ADD MLOAD DUP2 PUSH1 0x4 ADD SWAP1 DUP1 MLOAD SWAP1 PUSH1 0x20 ADD SWAP1 PUSH2 0x14C8 SWAP3 SWAP2 SWAP1 PUSH2 0x1F59 JUMP JUMPDEST POP PUSH1 0xA0 DUP3 ADD MLOAD DUP2 PUSH1 0x5 ADD SSTORE PUSH1 0xC0 DUP3 ADD MLOAD DUP2 PUSH1 0x6 ADD SSTORE SWAP1 POP POP PUSH1 0x7 DUP8 SWAP1 DUP1 PUSH1 0x1 DUP2 SLOAD ADD DUP1 DUP3 SSTORE DUP1 SWAP2 POP POP PUSH1 0x1 SWAP1 SUB SWAP1 PUSH0 MSTORE PUSH1 0x20 PUSH0 KECCAK256 ADD PUSH0 SWAP1 SWAP2 SWAP1 SWAP2 SWAP1 SWAP2 POP SSTORE PUSH1 0x2 PUSH0 SWAP1 SLOAD SWAP1 PUSH2 0x100 EXP SWAP1 DIV PUSH20 0xFFFFFFFFFFFFFFFFFFFFFFFFFFFFFFFFFFFFFFFF AND PUSH20 0xFFFFFFFFFFFFFFFFFFFFFFFFFFFFFFFFFFFFFFFF AND PUSH4 0x5F8069CC DUP6 DUP10 PUSH1 0x40 MLOAD DUP4 PUSH4 0xFFFFFFFF AND PUSH1 0xE0 SHL DUP2 MSTORE PUSH1 0x4 ADD PUSH2 0x1562 SWAP3 SWAP2 SWAP1 PUSH2 0x33E6 JUMP JUMPDEST PUSH0 PUSH1 0x40 MLOAD DUP1 DUP4 SUB DUP2 PUSH0 DUP8 DUP1 EXTCODESIZE ISZERO DUP1 ISZERO PUSH2 0x1579 JUMPI PUSH0 PUSH0 REVERT JUMPDEST POP GAS CALL ISZERO DUP1 ISZERO PUSH2 0x158B JUMPI RETURNDATASIZE PUSH0 PUSH0 RETURNDATACOPY RETURNDATASIZE PUSH0 REVERT JUMPDEST POP POP POP POP PUSH0 PUSH0 SWAP1 POP JUMPDEST DUP3 MLOAD DUP2 LT ISZERO PUSH2 0x16A9 JUMPI PUSH0 PUSH1 0x40 MLOAD DUP1 PUSH1 0x80 ADD PUSH1 0x40 MSTORE DUP1 PUSH1 0x4 PUSH0 DUP2 SLOAD DUP1 SWAP3 SWAP2 SWAP1 PUSH2 0x15BB SWAP1 PUSH2 0x3475 JUMP JUMPDEST SWAP2 SWAP1 POP SSTORE DUP2 MSTORE PUSH1 0x20 ADD DUP6 DUP5 DUP2 MLOAD DUP2 LT PUSH2 0x15D7 JUMPI PUSH2 0x15D6 PUSH2 0x2F56 JUMP JUMPDEST JUMPDEST PUSH1 0x20 MUL PUSH1 0x20 ADD ADD MLOAD PUSH0 ADD MLOAD DUP2 MSTORE PUSH1 0x20 ADD DUP6 DUP5 DUP2 MLOAD DUP2 LT PUSH2 0x15FA JUMPI PUSH2 0x15F9 PUSH2 0x2F56 JUMP JUMPDEST JUMPDEST PUSH1 0x20 MUL PUSH1 0x20 ADD ADD MLOAD PUSH1 0x20 ADD MLOAD DUP2 MSTORE PUSH1 0x20 ADD DUP6 DUP5 DUP2 MLOAD DUP2 LT PUSH2 0x161E JUMPI PUSH2 0x161D PUSH2 0x2F56 JUMP JUMPDEST JUMPDEST PUSH1 0x20 MUL PUSH1 0x20 ADD ADD MLOAD PUSH1 0x40 ADD MLOAD DUP2 MSTORE POP SWAP1 POP PUSH1 0x6 PUSH0 DUP11 DUP2 MSTORE PUSH1 0x20 ADD SWAP1 DUP2 MSTORE PUSH1 0x20 ADD PUSH0 KECCAK256 DUP2 SWAP1 DUP1 PUSH1 0x1 DUP2 SLOAD ADD DUP1 DUP3 SSTORE DUP1 SWAP2 POP POP PUSH1 0x1 SWAP1 SUB SWAP1 PUSH0 MSTORE PUSH1 0x20 PUSH0 KECCAK256 SWAP1 PUSH1 0x4 MUL ADD PUSH0 SWAP1 SWAP2 SWAP1 SWAP2 SWAP1 SWAP2 POP PUSH0 DUP3 ADD MLOAD DUP2 PUSH0 ADD SSTORE PUSH1 0x20 DUP3 ADD MLOAD DUP2 PUSH1 0x1 ADD SWAP1 DUP2 PUSH2 0x1684 SWAP2 SWAP1 PUSH2 0x32EA JUMP JUMPDEST POP PUSH1 0x40 DUP3 ADD MLOAD DUP2 PUSH1 0x2 ADD SSTORE PUSH1 0x60 DUP3 ADD MLOAD DUP2 PUSH1 0x3 ADD SSTORE POP POP POP DUP1 DUP1 PUSH1 0x1 ADD SWAP2 POP POP PUSH2 0x1594 JUMP JUMPDEST POP PUSH32 0xBDF2814016D06BF27F22AA349FADE26A888A8F7EAC3E0963916B1C64CC37A5CE DUP8 DUP8 DUP8 DUP8 DUP8 PUSH1 0x40 MLOAD PUSH2 0x16E1 SWAP6 SWAP5 SWAP4 SWAP3 SWAP2 SWAP1 PUSH2 0x3711 JUMP JUMPDEST PUSH1 0x40 MLOAD DUP1 SWAP2 SUB SWAP1 LOG1 POP POP POP POP POP POP POP JUMP JUMPDEST PUSH1 0x60 PUSH0 PUSH1 0x7 DUP1 SLOAD SWAP1 POP PUSH8 0xFFFFFFFFFFFFFFFF DUP2 GT ISZERO PUSH2 0x1714 JUMPI PUSH2 0x1713 PUSH2 0x2542 JUMP JUMPDEST JUMPDEST PUSH1 0x40 MLOAD SWAP1 DUP1 DUP3 MSTORE DUP1 PUSH1 0x20 MUL PUSH1 0x20 ADD DUP3 ADD PUSH1 0x40 MSTORE DUP1 ISZERO PUSH2 0x174D JUMPI DUP2 PUSH1 0x20 ADD JUMPDEST PUSH2 0x173A PUSH2 0x1FB0 JUMP JUMPDEST DUP2 MSTORE PUSH1 0x20 ADD SWAP1 PUSH1 0x1 SWAP1 SUB SWAP1 DUP2 PUSH2 0x1732 JUMPI SWAP1 POP JUMPDEST POP SWAP1 POP PUSH0 PUSH0 SWAP1 POP JUMPDEST PUSH1 0x7 DUP1 SLOAD SWAP1 POP DUP2 LT ISZERO PUSH2 0x1B09 JUMPI PUSH0 PUSH1 0x7 DUP3 DUP2 SLOAD DUP2 LT PUSH2 0x1777 JUMPI PUSH2 0x1776 PUSH2 0x2F56 JUMP JUMPDEST JUMPDEST SWAP1 PUSH0 MSTORE PUSH1 0x20 PUSH0 KECCAK256 ADD SLOAD SWAP1 POP PUSH1 0x40 MLOAD DUP1 PUSH1 0x40 ADD PUSH1 0x40 MSTORE DUP1 PUSH1 0x5 PUSH0 DUP5 DUP2 MSTORE PUSH1 0x20 ADD SWAP1 DUP2 MSTORE PUSH1 0x20 ADD PUSH0 KECCAK256 PUSH1 0x40 MLOAD DUP1 PUSH1 0xE0 ADD PUSH1 0x40 MSTORE SWAP1 DUP2 PUSH0 DUP3 ADD SLOAD DUP2 MSTORE PUSH1 0x20 ADD PUSH1 0x1 DUP3 ADD DUP1 SLOAD PUSH2 0x17C2 SWAP1 PUSH2 0x3088 JUMP JUMPDEST DUP1 PUSH1 0x1F ADD PUSH1 0x20 DUP1 SWAP2 DIV MUL PUSH1 0x20 ADD PUSH1 0x40 MLOAD SWAP1 DUP2 ADD PUSH1 0x40 MSTORE DUP1 SWAP3 SWAP2 SWAP1 DUP2 DUP2 MSTORE PUSH1 0x20 ADD DUP3 DUP1 SLOAD PUSH2 0x17EE SWAP1 PUSH2 0x3088 JUMP JUMPDEST DUP1 ISZERO PUSH2 0x1839 JUMPI DUP1 PUSH1 0x1F LT PUSH2 0x1810 JUMPI PUSH2 0x100 DUP1 DUP4 SLOAD DIV MUL DUP4 MSTORE SWAP2 PUSH1 0x20 ADD SWAP2 PUSH2 0x1839 JUMP JUMPDEST DUP3 ADD SWAP2 SWAP1 PUSH0 MSTORE PUSH1 0x20 PUSH0 KECCAK256 SWAP1 JUMPDEST DUP2 SLOAD DUP2 MSTORE SWAP1 PUSH1 0x1 ADD SWAP1 PUSH1 0x20 ADD DUP1 DUP4 GT PUSH2 0x181C JUMPI DUP3 SWAP1 SUB PUSH1 0x1F AND DUP3 ADD SWAP2 JUMPDEST POP POP POP POP POP DUP2 MSTORE PUSH1 0x20 ADD PUSH1 0x2 DUP3 ADD DUP1 SLOAD PUSH2 0x1852 SWAP1 PUSH2 0x3088 JUMP JUMPDEST DUP1 PUSH1 0x1F ADD PUSH1 0x20 DUP1 SWAP2 DIV MUL PUSH1 0x20 ADD PUSH1 0x40 MLOAD SWAP1 DUP2 ADD PUSH1 0x40 MSTORE DUP1 SWAP3 SWAP2 SWAP1 DUP2 DUP2 MSTORE PUSH1 0x20 ADD DUP3 DUP1 SLOAD PUSH2 0x187E SWAP1 PUSH2 0x3088 JUMP JUMPDEST DUP1 ISZERO PUSH2 0x18C9 JUMPI DUP1 PUSH1 0x1F LT PUSH2 0x18A0 JUMPI PUSH2 0x100 DUP1 DUP4 SLOAD DIV MUL DUP4 MSTORE SWAP2 PUSH1 0x20 ADD SWAP2 PUSH2 0x18C9 JUMP JUMPDEST DUP3 ADD SWAP2 SWAP1 PUSH0 MSTORE PUSH1 0x20 PUSH0 KECCAK256 SWAP1 JUMPDEST DUP2 SLOAD DUP2 MSTORE SWAP1 PUSH1 0x1 ADD SWAP1 PUSH1 0x20 ADD DUP1 DUP4 GT PUSH2 0x18AC JUMPI DUP3 SWAP1 SUB PUSH1 0x1F AND DUP3 ADD SWAP2 JUMPDEST POP POP POP POP POP DUP2 MSTORE PUSH1 0x20 ADD PUSH1 0x3 DUP3 ADD SLOAD DUP2 MSTORE PUSH1 0x20 ADD PUSH1 0x4 DUP3 ADD DUP1 SLOAD DUP1 PUSH1 0x20 MUL PUSH1 0x20 ADD PUSH1 0x40 MLOAD SWAP1 DUP2 ADD PUSH1 0x40 MSTORE DUP1 SWAP3 SWAP2 SWAP1 DUP2 DUP2 MSTORE PUSH1 0x20 ADD PUSH0 SWAP1 JUMPDEST DUP3 DUP3 LT ISZERO PUSH2 0x19A8 JUMPI DUP4 DUP3 SWAP1 PUSH0 MSTORE PUSH1 0x20 PUSH0 KECCAK256 ADD DUP1 SLOAD PUSH2 0x191D SWAP1 PUSH2 0x3088 JUMP JUMPDEST DUP1 PUSH1 0x1F ADD PUSH1 0x20 DUP1 SWAP2 DIV MUL PUSH1 0x20 ADD PUSH1 0x40 MLOAD SWAP1 DUP2 ADD PUSH1 0x40 MSTORE DUP1 SWAP3 SWAP2 SWAP1 DUP2 DUP2 MSTORE PUSH1 0x20 ADD DUP3 DUP1 SLOAD PUSH2 0x1949 SWAP1 PUSH2 0x3088 JUMP JUMPDEST DUP1 ISZERO PUSH2 0x1994 JUMPI DUP1 PUSH1 0x1F LT PUSH2 0x196B JUMPI PUSH2 0x100 DUP1 DUP4 SLOAD DIV MUL DUP4 MSTORE SWAP2 PUSH1 0x20 ADD SWAP2 PUSH2 0x1994 JUMP JUMPDEST DUP3 ADD SWAP2 SWAP1 PUSH0 MSTORE PUSH1 0x20 PUSH0 KECCAK256 SWAP1 JUMPDEST DUP2 SLOAD DUP2 MSTORE SWAP1 PUSH1 0x1 ADD SWAP1 PUSH1 0x20 ADD DUP1 DUP4 GT PUSH2 0x1977 JUMPI DUP3 SWAP1 SUB PUSH1 0x1F AND DUP3 ADD SWAP2 JUMPDEST POP POP POP POP POP DUP2 MSTORE PUSH1 0x20 ADD SWAP1 PUSH1 0x1 ADD SWAP1 PUSH2 0x1900 JUMP JUMPDEST POP POP POP POP DUP2 MSTORE PUSH1 0x20 ADD PUSH1 0x5 DUP3 ADD SLOAD DUP2 MSTORE PUSH1 0x20 ADD PUSH1 0x6 DUP3 ADD SLOAD DUP2 MSTORE POP POP DUP2 MSTORE PUSH1 0x20 ADD PUSH1 0x6 PUSH0 DUP5 DUP2 MSTORE PUSH1 0x20 ADD SWAP1 DUP2 MSTORE PUSH1 0x20 ADD PUSH0 KECCAK256 DUP1 SLOAD DUP1 PUSH1 0x20 MUL PUSH1 0x20 ADD PUSH1 0x40 MLOAD SWAP1 DUP2 ADD PUSH1 0x40 MSTORE DUP1 SWAP3 SWAP2 SWAP1 DUP2 DUP2 MSTORE PUSH1 0x20 ADD PUSH0 SWAP1 JUMPDEST DUP3 DUP3 LT ISZERO PUSH2 0x1AD6 JUMPI DUP4 DUP3 SWAP1 PUSH0 MSTORE PUSH1 0x20 PUSH0 KECCAK256 SWAP1 PUSH1 0x4 MUL ADD PUSH1 0x40 MLOAD DUP1 PUSH1 0x80 ADD PUSH1 0x40 MSTORE SWAP1 DUP2 PUSH0 DUP3 ADD SLOAD DUP2 MSTORE PUSH1 0x20 ADD PUSH1 0x1 DUP3 ADD DUP1 SLOAD PUSH2 0x1A33 SWAP1 PUSH2 0x3088 JUMP JUMPDEST DUP1 PUSH1 0x1F ADD PUSH1 0x20 DUP1 SWAP2 DIV MUL PUSH1 0x20 ADD PUSH1 0x40 MLOAD SWAP1 DUP2 ADD PUSH1 0x40 MSTORE DUP1 SWAP3 SWAP2 SWAP1 DUP2 DUP2 MSTORE PUSH1 0x20 ADD DUP3 DUP1 SLOAD PUSH2 0x1A5F SWAP1 PUSH2 0x3088 JUMP JUMPDEST DUP1 ISZERO PUSH2 0x1AAA JUMPI DUP1 PUSH1 0x1F LT PUSH2 0x1A81 JUMPI PUSH2 0x100 DUP1 DUP4 SLOAD DIV MUL DUP4 MSTORE SWAP2 PUSH1 0x20 ADD SWAP2 PUSH2 0x1AAA JUMP JUMPDEST DUP3 ADD SWAP2 SWAP1 PUSH0 MSTORE PUSH1 0x20 PUSH0 KECCAK256 SWAP1 JUMPDEST DUP2 SLOAD DUP2 MSTORE SWAP1 PUSH1 0x1 ADD SWAP1 PUSH1 0x20 ADD DUP1 DUP4 GT PUSH2 0x1A8D JUMPI DUP3 SWAP1 SUB PUSH1 0x1F AND DUP3 ADD SWAP2 JUMPDEST POP POP POP POP POP DUP2 MSTORE PUSH1 0x20 ADD PUSH1 0x2 DUP3 ADD SLOAD DUP2 MSTORE PUSH1 0x20 ADD PUSH1 0x3 DUP3 ADD SLOAD DUP2 MSTORE POP POP DUP2 MSTORE PUSH1 0x20 ADD SWAP1 PUSH1 0x1 ADD SWAP1 PUSH2 0x19F9 JUMP JUMPDEST POP POP POP POP DUP2 MSTORE POP DUP4 DUP4 DUP2 MLOAD DUP2 LT PUSH2 0x1AF0 JUMPI PUSH2 0x1AEF PUSH2 0x2F56 JUMP JUMPDEST JUMPDEST PUSH1 0x20 MUL PUSH1 0x20 ADD ADD DUP2 SWAP1 MSTORE POP POP DUP1 DUP1 PUSH1 0x1 ADD SWAP2 POP POP PUSH2 0x1755 JUMP JUMPDEST POP DUP1 SWAP2 POP POP SWAP1 JUMP JUMPDEST PUSH0 PUSH1 0x5 PUSH0 DUP6 DUP2 MSTORE PUSH1 0x20 ADD SWAP1 DUP2 MSTORE PUSH1 0x20 ADD PUSH0 KECCAK256 PUSH0 ADD SLOAD SUB PUSH2 0x1B66 JUMPI PUSH1 0x40 MLOAD PUSH32 0x8C379A000000000000000000000000000000000000000000000000000000000 DUP2 MSTORE PUSH1 0x4 ADD PUSH2 0x1B5D SWAP1 PUSH2 0x303D JUMP JUMPDEST PUSH1 0x40 MLOAD DUP1 SWAP2 SUB SWAP1 REVERT JUMPDEST PUSH0 PUSH1 0x6 PUSH0 DUP6 DUP2 MSTORE PUSH1 0x20 ADD SWAP1 DUP2 MSTORE PUSH1 0x20 ADD PUSH0 KECCAK256 SWAP1 POP PUSH0 PUSH0 SWAP1 POP PUSH0 PUSH0 SWAP1 POP JUMPDEST DUP3 DUP1 SLOAD SWAP1 POP DUP2 LT ISZERO PUSH2 0x1C8F JUMPI DUP5 DUP4 DUP3 DUP2 SLOAD DUP2 LT PUSH2 0x1BA3 JUMPI PUSH2 0x1BA2 PUSH2 0x2F56 JUMP JUMPDEST JUMPDEST SWAP1 PUSH0 MSTORE PUSH1 0x20 PUSH0 KECCAK256 SWAP1 PUSH1 0x4 MUL ADD PUSH0 ADD SLOAD SUB PUSH2 0x1C82 JUMPI DUP4 PUSH0 ADD MLOAD DUP4 DUP3 DUP2 SLOAD DUP2 LT PUSH2 0x1BCE JUMPI PUSH2 0x1BCD PUSH2 0x2F56 JUMP JUMPDEST JUMPDEST SWAP1 PUSH0 MSTORE PUSH1 0x20 PUSH0 KECCAK256 SWAP1 PUSH1 0x4 MUL ADD PUSH1 0x1 ADD SWAP1 DUP2 PUSH2 0x1BE9 SWAP2 SWAP1 PUSH2 0x32EA JUMP JUMPDEST POP DUP4 PUSH1 0x20 ADD MLOAD DUP4 DUP3 DUP2 SLOAD DUP2 LT PUSH2 0x1C02 JUMPI PUSH2 0x1C01 PUSH2 0x2F56 JUMP JUMPDEST JUMPDEST SWAP1 PUSH0 MSTORE PUSH1 0x20 PUSH0 KECCAK256 SWAP1 PUSH1 0x4 MUL ADD PUSH1 0x2 ADD DUP2 SWAP1 SSTORE POP DUP4 PUSH1 0x40 ADD MLOAD DUP4 DUP3 DUP2 SLOAD DUP2 LT PUSH2 0x1C2D JUMPI PUSH2 0x1C2C PUSH2 0x2F56 JUMP JUMPDEST JUMPDEST SWAP1 PUSH0 MSTORE PUSH1 0x20 PUSH0 KECCAK256 SWAP1 PUSH1 0x4 MUL ADD PUSH1 0x3 ADD DUP2 SWAP1 SSTORE POP PUSH1 0x1 SWAP2 POP PUSH32 0xE29E1E70959F0C301943D01C4BD294592A2105BC81E9B2523C4B1D7F7D1F393F DUP7 DUP7 PUSH1 0x40 MLOAD PUSH2 0x1C75 SWAP3 SWAP2 SWAP1 PUSH2 0x33E6 JUMP JUMPDEST PUSH1 0x40 MLOAD DUP1 SWAP2 SUB SWAP1 LOG1 PUSH2 0x1C8F JUMP JUMPDEST DUP1 DUP1 PUSH1 0x1 ADD SWAP2 POP POP PUSH2 0x1B83 JUMP JUMPDEST POP DUP1 PUSH2 0x1CD0 JUMPI PUSH1 0x40 MLOAD PUSH32 0x8C379A000000000000000000000000000000000000000000000000000000000 DUP2 MSTORE PUSH1 0x4 ADD PUSH2 0x1CC7 SWAP1 PUSH2 0x3457 JUMP JUMPDEST PUSH1 0x40 MLOAD DUP1 SWAP2 SUB SWAP1 REVERT JUMPDEST POP POP POP POP POP JUMP JUMPDEST PUSH0 PUSH1 0x5 PUSH0 DUP4 DUP2 MSTORE PUSH1 0x20 ADD SWAP1 DUP2 MSTORE PUSH1 0x20 ADD PUSH0 KECCAK256 PUSH0 ADD SLOAD SUB PUSH2 0x1D2C JUMPI PUSH1 0x40 MLOAD PUSH32 0x8C379A000000000000000000000000000000000000000000000000000000000 DUP2 MSTORE PUSH1 0x4 ADD PUSH2 0x1D23 SWAP1 PUSH2 0x303D JUMP JUMPDEST PUSH1 0x40 MLOAD DUP1 SWAP2 SUB SWAP1 REVERT JUMPDEST PUSH1 0x5 PUSH0 DUP3 DUP2 MSTORE PUSH1 0x20 ADD SWAP1 DUP2 MSTORE PUSH1 0x20 ADD PUSH0 KECCAK256 PUSH0 PUSH0 DUP3 ADD PUSH0 SWAP1 SSTORE PUSH1 0x1 DUP3 ADD PUSH0 PUSH2 0x1D53 SWAP2 SWAP1 PUSH2 0x1F1C JUMP JUMPDEST PUSH1 0x2 DUP3 ADD PUSH0 PUSH2 0x1D62 SWAP2 SWAP1 PUSH2 0x1F1C JUMP JUMPDEST PUSH1 0x3 DUP3 ADD PUSH0 SWAP1 SSTORE PUSH1 0x4 DUP3 ADD PUSH0 PUSH2 0x1D78 SWAP2 SWAP1 PUSH2 0x1FD0 JUMP JUMPDEST PUSH1 0x5 DUP3 ADD PUSH0 SWAP1 SSTORE PUSH1 0x6 DUP3 ADD PUSH0 SWAP1 SSTORE POP POP PUSH1 0x6 PUSH0 DUP3 DUP2 MSTORE PUSH1 0x20 ADD SWAP1 DUP2 MSTORE PUSH1 0x20 ADD PUSH0 KECCAK256 PUSH0 PUSH2 0x1DA4 SWAP2 SWAP1 PUSH2 0x1FEE JUMP JUMPDEST PUSH0 PUSH0 SWAP1 POP JUMPDEST PUSH1 0x7 DUP1 SLOAD SWAP1 POP DUP2 LT ISZERO PUSH2 0x1E5E JUMPI DUP2 PUSH1 0x7 DUP3 DUP2 SLOAD DUP2 LT PUSH2 0x1DCB JUMPI PUSH2 0x1DCA PUSH2 0x2F56 JUMP JUMPDEST JUMPDEST SWAP1 PUSH0 MSTORE PUSH1 0x20 PUSH0 KECCAK256 ADD SLOAD SUB PUSH2 0x1E51 JUMPI PUSH1 0x7 PUSH1 0x1 PUSH1 0x7 DUP1 SLOAD SWAP1 POP PUSH2 0x1DED SWAP2 SWAP1 PUSH2 0x3120 JUMP JUMPDEST DUP2 SLOAD DUP2 LT PUSH2 0x1DFE JUMPI PUSH2 0x1DFD PUSH2 0x2F56 JUMP JUMPDEST JUMPDEST SWAP1 PUSH0 MSTORE PUSH1 0x20 PUSH0 KECCAK256 ADD SLOAD PUSH1 0x7 DUP3 DUP2 SLOAD DUP2 LT PUSH2 0x1E1B JUMPI PUSH2 0x1E1A PUSH2 0x2F56 JUMP JUMPDEST JUMPDEST SWAP1 PUSH0 MSTORE PUSH1 0x20 PUSH0 KECCAK256 ADD DUP2 SWAP1 SSTORE POP PUSH1 0x7 DUP1 SLOAD DUP1 PUSH2 0x1E39 JUMPI PUSH2 0x1E38 PUSH2 0x33B9 JUMP JUMPDEST JUMPDEST PUSH1 0x1 SWAP1 SUB DUP2 DUP2 SWAP1 PUSH0 MSTORE PUSH1 0x20 PUSH0 KECCAK256 ADD PUSH0 SWAP1 SSTORE SWAP1 SSTORE PUSH2 0x1E5E JUMP JUMPDEST DUP1 DUP1 PUSH1 0x1 ADD SWAP2 POP POP PUSH2 0x1DA9 JUMP JUMPDEST POP PUSH32 0x4D4E7C43D5805933523B1317FDD5ACB7517962D3E9F52834633B9F0149477295 DUP2 PUSH1 0x40 MLOAD PUSH2 0x1E8E SWAP2 SWAP1 PUSH2 0x21AF JUMP JUMPDEST PUSH1 0x40 MLOAD DUP1 SWAP2 SUB SWAP1 LOG1 POP JUMP JUMPDEST PUSH1 0x2 PUSH0 SWAP1 SLOAD SWAP1 PUSH2 0x100 EXP SWAP1 DIV PUSH20 0xFFFFFFFFFFFFFFFFFFFFFFFFFFFFFFFFFFFFFFFF AND DUP2 JUMP JUMPDEST PUSH1 0x40 MLOAD DUP1 PUSH1 0xE0 ADD PUSH1 0x40 MSTORE DUP1 PUSH0 DUP2 MSTORE PUSH1 0x20 ADD PUSH1 0x60 DUP2 MSTORE PUSH1 0x20 ADD PUSH1 0x60 DUP2 MSTORE PUSH1 0x20 ADD PUSH0 DUP2 MSTORE PUSH1 0x20 ADD PUSH1 0x60 DUP2 MSTORE PUSH1 0x20 ADD PUSH0 DUP2 MSTORE PUSH1 0x20 ADD PUSH0 DUP2 MSTORE POP SWAP1 JUMP JUMPDEST PUSH1 0x40 MLOAD DUP1 PUSH1 0x80 ADD PUSH1 0x40 MSTORE DUP1 PUSH0 DUP2 MSTORE PUSH1 0x20 ADD PUSH1 0x60 DUP2 MSTORE PUSH1 0x20 ADD PUSH0 DUP2 MSTORE PUSH1 0x20 ADD PUSH0 DUP2 MSTORE POP SWAP1 JUMP JUMPDEST POP DUP1 SLOAD PUSH2 0x1F28 SWAP1 PUSH2 0x3088 JUMP JUMPDEST PUSH0 DUP3 SSTORE DUP1 PUSH1 0x1F LT PUSH2 0x1F39 JUMPI POP PUSH2 0x1F56 JUMP JUMPDEST PUSH1 0x1F ADD PUSH1 0x20 SWAP1 DIV SWAP1 PUSH0 MSTORE PUSH1 0x20 PUSH0 KECCAK256 SWAP1 DUP2 ADD SWAP1 PUSH2 0x1F55 SWAP2 SWAP1 PUSH2 0x200F JUMP JUMPDEST JUMPDEST POP JUMP JUMPDEST DUP3 DUP1 SLOAD DUP3 DUP3 SSTORE SWAP1 PUSH0 MSTORE PUSH1 0x20 PUSH0 KECCAK256 SWAP1 DUP2 ADD SWAP3 DUP3 ISZERO PUSH2 0x1F9F JUMPI SWAP2 PUSH1 0x20 MUL DUP3 ADD JUMPDEST DUP3 DUP2 GT ISZERO PUSH2 0x1F9E JUMPI DUP3 MLOAD DUP3 SWAP1 DUP2 PUSH2 0x1F8E SWAP2 SWAP1 PUSH2 0x32EA JUMP JUMPDEST POP SWAP2 PUSH1 0x20 ADD SWAP2 SWAP1 PUSH1 0x1 ADD SWAP1 PUSH2 0x1F77 JUMP JUMPDEST JUMPDEST POP SWAP1 POP PUSH2 0x1FAC SWAP2 SWAP1 PUSH2 0x202A JUMP JUMPDEST POP SWAP1 JUMP JUMPDEST PUSH1 0x40 MLOAD DUP1 PUSH1 0x40 ADD PUSH1 0x40 MSTORE DUP1 PUSH2 0x1FC3 PUSH2 0x1EBE JUMP JUMPDEST DUP2 MSTORE PUSH1 0x20 ADD PUSH1 0x60 DUP2 MSTORE POP SWAP1 JUMP JUMPDEST POP DUP1 SLOAD PUSH0 DUP3 SSTORE SWAP1 PUSH0 MSTORE PUSH1 0x20 PUSH0 KECCAK256 SWAP1 DUP2 ADD SWAP1 PUSH2 0x1FEB SWAP2 SWAP1 PUSH2 0x202A JUMP JUMPDEST POP JUMP JUMPDEST POP DUP1 SLOAD PUSH0 DUP3 SSTORE PUSH1 0x4 MUL SWAP1 PUSH0 MSTORE PUSH1 0x20 PUSH0 KECCAK256 SWAP1 DUP2 ADD SWAP1 PUSH2 0x200C SWAP2 SWAP1 PUSH2 0x204D JUMP JUMPDEST POP JUMP JUMPDEST JUMPDEST DUP1 DUP3 GT ISZERO PUSH2 0x2026 JUMPI PUSH0 DUP2 PUSH0 SWAP1 SSTORE POP PUSH1 0x1 ADD PUSH2 0x2010 JUMP JUMPDEST POP SWAP1 JUMP JUMPDEST JUMPDEST DUP1 DUP3 GT ISZERO PUSH2 0x2049 JUMPI PUSH0 DUP2 DUP2 PUSH2 0x2040 SWAP2 SWAP1 PUSH2 0x1F1C JUMP JUMPDEST POP PUSH1 0x1 ADD PUSH2 0x202B JUMP JUMPDEST POP SWAP1 JUMP JUMPDEST JUMPDEST DUP1 DUP3 GT ISZERO PUSH2 0x2083 JUMPI PUSH0 PUSH0 DUP3 ADD PUSH0 SWAP1 SSTORE PUSH1 0x1 DUP3 ADD PUSH0 PUSH2 0x206C SWAP2 SWAP1 PUSH2 0x1F1C JUMP JUMPDEST PUSH1 0x2 DUP3 ADD PUSH0 SWAP1 SSTORE PUSH1 0x3 DUP3 ADD PUSH0 SWAP1 SSTORE POP PUSH1 0x4 ADD PUSH2 0x204E JUMP JUMPDEST POP SWAP1 JUMP JUMPDEST PUSH0 PUSH1 0x40 MLOAD SWAP1 POP SWAP1 JUMP JUMPDEST PUSH0 PUSH0 REVERT JUMPDEST PUSH0 PUSH0 REVERT JUMPDEST PUSH0 DUP2 SWAP1 POP SWAP2 SWAP1 POP JUMP JUMPDEST PUSH2 0x20AA DUP2 PUSH2 0x2098 JUMP JUMPDEST DUP2 EQ PUSH2 0x20B4 JUMPI PUSH0 PUSH0 REVERT JUMPDEST POP JUMP JUMPDEST PUSH0 DUP2 CALLDATALOAD SWAP1 POP PUSH2 0x20C5 DUP2 PUSH2 0x20A1 JUMP JUMPDEST SWAP3 SWAP2 POP POP JUMP JUMPDEST PUSH0 PUSH0 PUSH0 PUSH1 0x60 DUP5 DUP7 SUB SLT ISZERO PUSH2 0x20E2 JUMPI PUSH2 0x20E1 PUSH2 0x2090 JUMP JUMPDEST JUMPDEST PUSH0 PUSH2 0x20EF DUP7 DUP3 DUP8 ADD PUSH2 0x20B7 JUMP JUMPDEST SWAP4 POP POP PUSH1 0x20 PUSH2 0x2100 DUP7 DUP3 DUP8 ADD PUSH2 0x20B7 JUMP JUMPDEST SWAP3 POP POP PUSH1 0x40 PUSH2 0x2111 DUP7 DUP3 DUP8 ADD PUSH2 0x20B7 JUMP JUMPDEST SWAP2 POP POP SWAP3 POP SWAP3 POP SWAP3 JUMP JUMPDEST PUSH0 PUSH20 0xFFFFFFFFFFFFFFFFFFFFFFFFFFFFFFFFFFFFFFFF DUP3 AND SWAP1 POP SWAP2 SWAP1 POP JUMP JUMPDEST PUSH0 PUSH2 0x2144 DUP3 PUSH2 0x211B JUMP JUMPDEST SWAP1 POP SWAP2 SWAP1 POP JUMP JUMPDEST PUSH2 0x2154 DUP2 PUSH2 0x213A JUMP JUMPDEST DUP2 EQ PUSH2 0x215E JUMPI PUSH0 PUSH0 REVERT JUMPDEST POP JUMP JUMPDEST PUSH0 DUP2 CALLDATALOAD SWAP1 POP PUSH2 0x216F DUP2 PUSH2 0x214B JUMP JUMPDEST SWAP3 SWAP2 POP POP JUMP JUMPDEST PUSH0 PUSH1 0x20 DUP3 DUP5 SUB SLT ISZERO PUSH2 0x218A JUMPI PUSH2 0x2189 PUSH2 0x2090 JUMP JUMPDEST JUMPDEST PUSH0 PUSH2 0x2197 DUP5 DUP3 DUP6 ADD PUSH2 0x2161 JUMP JUMPDEST SWAP2 POP POP SWAP3 SWAP2 POP POP JUMP JUMPDEST PUSH2 0x21A9 DUP2 PUSH2 0x2098 JUMP JUMPDEST DUP3 MSTORE POP POP JUMP JUMPDEST PUSH0 PUSH1 0x20 DUP3 ADD SWAP1 POP PUSH2 0x21C2 PUSH0 DUP4 ADD DUP5 PUSH2 0x21A0 JUMP JUMPDEST SWAP3 SWAP2 POP POP JUMP JUMPDEST PUSH0 PUSH1 0x20 DUP3 DUP5 SUB SLT ISZERO PUSH2 0x21DD JUMPI PUSH2 0x21DC PUSH2 0x2090 JUMP JUMPDEST JUMPDEST PUSH0 PUSH2 0x21EA DUP5 DUP3 DUP6 ADD PUSH2 0x20B7 JUMP JUMPDEST SWAP2 POP POP SWAP3 SWAP2 POP POP JUMP JUMPDEST PUSH2 0x21FC DUP2 PUSH2 0x2098 JUMP JUMPDEST DUP3 MSTORE POP POP JUMP JUMPDEST PUSH0 DUP2 MLOAD SWAP1 POP SWAP2 SWAP1 POP JUMP JUMPDEST PUSH0 DUP3 DUP3 MSTORE PUSH1 0x20 DUP3 ADD SWAP1 POP SWAP3 SWAP2 POP POP JUMP JUMPDEST DUP3 DUP2 DUP4 MCOPY PUSH0 DUP4 DUP4 ADD MSTORE POP POP POP JUMP JUMPDEST PUSH0 PUSH1 0x1F NOT PUSH1 0x1F DUP4 ADD AND SWAP1 POP SWAP2 SWAP1 POP JUMP JUMPDEST PUSH0 PUSH2 0x2244 DUP3 PUSH2 0x2202 JUMP JUMPDEST PUSH2 0x224E DUP2 DUP6 PUSH2 0x220C JUMP JUMPDEST SWAP4 POP PUSH2 0x225E DUP2 DUP6 PUSH1 0x20 DUP7 ADD PUSH2 0x221C JUMP JUMPDEST PUSH2 0x2267 DUP2 PUSH2 0x222A JUMP JUMPDEST DUP5 ADD SWAP2 POP POP SWAP3 SWAP2 POP POP JUMP JUMPDEST PUSH0 DUP2 MLOAD SWAP1 POP SWAP2 SWAP1 POP JUMP JUMPDEST PUSH0 DUP3 DUP3 MSTORE PUSH1 0x20 DUP3 ADD SWAP1 POP SWAP3 SWAP2 POP POP JUMP JUMPDEST PUSH0 DUP2 SWAP1 POP PUSH1 0x20 DUP3 ADD SWAP1 POP SWAP2 SWAP1 POP JUMP JUMPDEST PUSH0 PUSH2 0x22A6 DUP4 DUP4 PUSH2 0x223A JUMP JUMPDEST SWAP1 POP SWAP3 SWAP2 POP POP JUMP JUMPDEST PUSH0 PUSH1 0x20 DUP3 ADD SWAP1 POP SWAP2 SWAP1 POP JUMP JUMPDEST PUSH0 PUSH2 0x22C4 DUP3 PUSH2 0x2272 JUMP JUMPDEST PUSH2 0x22CE DUP2 DUP6 PUSH2 0x227C JUMP JUMPDEST SWAP4 POP DUP4 PUSH1 0x20 DUP3 MUL DUP6 ADD PUSH2 0x22E0 DUP6 PUSH2 0x228C JUMP JUMPDEST DUP1 PUSH0 JUMPDEST DUP6 DUP2 LT ISZERO PUSH2 0x231B JUMPI DUP5 DUP5 SUB DUP10 MSTORE DUP2 MLOAD PUSH2 0x22FC DUP6 DUP3 PUSH2 0x229B JUMP JUMPDEST SWAP5 POP PUSH2 0x2307 DUP4 PUSH2 0x22AE JUMP JUMPDEST SWAP3 POP PUSH1 0x20 DUP11 ADD SWAP10 POP POP PUSH1 0x1 DUP2 ADD SWAP1 POP PUSH2 0x22E3 JUMP JUMPDEST POP DUP3 SWAP8 POP DUP8 SWAP6 POP POP POP POP POP POP SWAP3 SWAP2 POP POP JUMP JUMPDEST PUSH0 PUSH1 0xE0 DUP4 ADD PUSH0 DUP4 ADD MLOAD PUSH2 0x2342 PUSH0 DUP7 ADD DUP3 PUSH2 0x21F3 JUMP JUMPDEST POP PUSH1 0x20 DUP4 ADD MLOAD DUP5 DUP3 SUB PUSH1 0x20 DUP7 ADD MSTORE PUSH2 0x235A DUP3 DUP3 PUSH2 0x223A JUMP JUMPDEST SWAP2 POP POP PUSH1 0x40 DUP4 ADD MLOAD DUP5 DUP3 SUB PUSH1 0x40 DUP7 ADD MSTORE PUSH2 0x2374 DUP3 DUP3 PUSH2 0x223A JUMP JUMPDEST SWAP2 POP POP PUSH1 0x60 DUP4 ADD MLOAD PUSH2 0x2389 PUSH1 0x60 DUP7 ADD DUP3 PUSH2 0x21F3 JUMP JUMPDEST POP PUSH1 0x80 DUP4 ADD MLOAD DUP5 DUP3 SUB PUSH1 0x80 DUP7 ADD MSTORE PUSH2 0x23A1 DUP3 DUP3 PUSH2 0x22BA JUMP JUMPDEST SWAP2 POP POP PUSH1 0xA0 DUP4 ADD MLOAD PUSH2 0x23B6 PUSH1 0xA0 DUP7 ADD DUP3 PUSH2 0x21F3 JUMP JUMPDEST POP PUSH1 0xC0 DUP4 ADD MLOAD PUSH2 0x23C9 PUSH1 0xC0 DUP7 ADD DUP3 PUSH2 0x21F3 JUMP JUMPDEST POP DUP1 SWAP2 POP POP SWAP3 SWAP2 POP POP JUMP JUMPDEST PUSH0 PUSH1 0x20 DUP3 ADD SWAP1 POP DUP2 DUP2 SUB PUSH0 DUP4 ADD MSTORE PUSH2 0x23EC DUP2 DUP5 PUSH2 0x232D JUMP JUMPDEST SWAP1 POP SWAP3 SWAP2 POP POP JUMP JUMPDEST PUSH32 0x4E487B7100000000000000000000000000000000000000000000000000000000 PUSH0 MSTORE PUSH1 0x21 PUSH1 0x4 MSTORE PUSH1 0x24 PUSH0 REVERT JUMPDEST PUSH1 0x3 DUP2 LT PUSH2 0x2432 JUMPI PUSH2 0x2431 PUSH2 0x23F4 JUMP JUMPDEST JUMPDEST POP JUMP JUMPDEST PUSH0 DUP2 SWAP1 POP PUSH2 0x2442 DUP3 PUSH2 0x2421 JUMP JUMPDEST SWAP2 SWAP1 POP JUMP JUMPDEST PUSH0 PUSH2 0x2451 DUP3 PUSH2 0x2435 JUMP JUMPDEST SWAP1 POP SWAP2 SWAP1 POP JUMP JUMPDEST PUSH2 0x2461 DUP2 PUSH2 0x2447 JUMP JUMPDEST DUP3 MSTORE POP POP JUMP JUMPDEST PUSH0 PUSH1 0x20 DUP3 ADD SWAP1 POP PUSH2 0x247A PUSH0 DUP4 ADD DUP5 PUSH2 0x2458 JUMP JUMPDEST SWAP3 SWAP2 POP POP JUMP JUMPDEST PUSH0 PUSH0 PUSH1 0x40 DUP4 DUP6 SUB SLT ISZERO PUSH2 0x2496 JUMPI PUSH2 0x2495 PUSH2 0x2090 JUMP JUMPDEST JUMPDEST PUSH0 PUSH2 0x24A3 DUP6 DUP3 DUP7 ADD PUSH2 0x20B7 JUMP JUMPDEST SWAP3 POP POP PUSH1 0x20 PUSH2 0x24B4 DUP6 DUP3 DUP7 ADD PUSH2 0x20B7 JUMP JUMPDEST SWAP2 POP POP SWAP3 POP SWAP3 SWAP1 POP JUMP JUMPDEST PUSH0 PUSH1 0x80 DUP4 ADD PUSH0 DUP4 ADD MLOAD PUSH2 0x24D3 PUSH0 DUP7 ADD DUP3 PUSH2 0x21F3 JUMP JUMPDEST POP PUSH1 0x20 DUP4 ADD MLOAD DUP5 DUP3 SUB PUSH1 0x20 DUP7 ADD MSTORE PUSH2 0x24EB DUP3 DUP3 PUSH2 0x223A JUMP JUMPDEST SWAP2 POP POP PUSH1 0x40 DUP4 ADD MLOAD PUSH2 0x2500 PUSH1 0x40 DUP7 ADD DUP3 PUSH2 0x21F3 JUMP JUMPDEST POP PUSH1 0x60 DUP4 ADD MLOAD PUSH2 0x2513 PUSH1 0x60 DUP7 ADD DUP3 PUSH2 0x21F3 JUMP JUMPDEST POP DUP1 SWAP2 POP POP SWAP3 SWAP2 POP POP JUMP JUMPDEST PUSH0 PUSH1 0x20 DUP3 ADD SWAP1 POP DUP2 DUP2 SUB PUSH0 DUP4 ADD MSTORE PUSH2 0x2536 DUP2 DUP5 PUSH2 0x24BE JUMP JUMPDEST SWAP1 POP SWAP3 SWAP2 POP POP JUMP JUMPDEST PUSH0 PUSH0 REVERT JUMPDEST PUSH32 0x4E487B7100000000000000000000000000000000000000000000000000000000 PUSH0 MSTORE PUSH1 0x41 PUSH1 0x4 MSTORE PUSH1 0x24 PUSH0 REVERT JUMPDEST PUSH2 0x2578 DUP3 PUSH2 0x222A JUMP JUMPDEST DUP2 ADD DUP2 DUP2 LT PUSH8 0xFFFFFFFFFFFFFFFF DUP3 GT OR ISZERO PUSH2 0x2597 JUMPI PUSH2 0x2596 PUSH2 0x2542 JUMP JUMPDEST JUMPDEST DUP1 PUSH1 0x40 MSTORE POP POP POP JUMP JUMPDEST PUSH0 PUSH2 0x25A9 PUSH2 0x2087 JUMP JUMPDEST SWAP1 POP PUSH2 0x25B5 DUP3 DUP3 PUSH2 0x256F JUMP JUMPDEST SWAP2 SWAP1 POP JUMP JUMPDEST PUSH0 PUSH8 0xFFFFFFFFFFFFFFFF DUP3 GT ISZERO PUSH2 0x25D4 JUMPI PUSH2 0x25D3 PUSH2 0x2542 JUMP JUMPDEST JUMPDEST PUSH1 0x20 DUP3 MUL SWAP1 POP PUSH1 0x20 DUP2 ADD SWAP1 POP SWAP2 SWAP1 POP JUMP JUMPDEST PUSH0 PUSH0 REVERT JUMPDEST PUSH0 PUSH0 REVERT JUMPDEST PUSH0 PUSH0 REVERT JUMPDEST PUSH0 PUSH0 REVERT JUMPDEST PUSH0 PUSH8 0xFFFFFFFFFFFFFFFF DUP3 GT ISZERO PUSH2 0x260F JUMPI PUSH2 0x260E PUSH2 0x2542 JUMP JUMPDEST JUMPDEST PUSH2 0x2618 DUP3 PUSH2 0x222A JUMP JUMPDEST SWAP1 POP PUSH1 0x20 DUP2 ADD SWAP1 POP SWAP2 SWAP1 POP JUMP JUMPDEST DUP3 DUP2 DUP4 CALLDATACOPY PUSH0 DUP4 DUP4 ADD MSTORE POP POP POP JUMP JUMPDEST PUSH0 PUSH2 0x2645 PUSH2 0x2640 DUP5 PUSH2 0x25F5 JUMP JUMPDEST PUSH2 0x25A0 JUMP JUMPDEST SWAP1 POP DUP3 DUP2 MSTORE PUSH1 0x20 DUP2 ADD DUP5 DUP5 DUP5 ADD GT ISZERO PUSH2 0x2661 JUMPI PUSH2 0x2660 PUSH2 0x25F1 JUMP JUMPDEST JUMPDEST PUSH2 0x266C DUP5 DUP3 DUP6 PUSH2 0x2625 JUMP JUMPDEST POP SWAP4 SWAP3 POP POP POP JUMP JUMPDEST PUSH0 DUP3 PUSH1 0x1F DUP4 ADD SLT PUSH2 0x2688 JUMPI PUSH2 0x2687 PUSH2 0x253E JUMP JUMPDEST JUMPDEST DUP2 CALLDATALOAD PUSH2 0x2698 DUP5 DUP3 PUSH1 0x20 DUP7 ADD PUSH2 0x2633 JUMP JUMPDEST SWAP2 POP POP SWAP3 SWAP2 POP POP JUMP JUMPDEST PUSH0 PUSH1 0x60 DUP3 DUP5 SUB SLT ISZERO PUSH2 0x26B6 JUMPI PUSH2 0x26B5 PUSH2 0x25E9 JUMP JUMPDEST JUMPDEST PUSH2 0x26C0 PUSH1 0x60 PUSH2 0x25A0 JUMP JUMPDEST SWAP1 POP PUSH0 DUP3 ADD CALLDATALOAD PUSH8 0xFFFFFFFFFFFFFFFF DUP2 GT ISZERO PUSH2 0x26DF JUMPI PUSH2 0x26DE PUSH2 0x25ED JUMP JUMPDEST JUMPDEST PUSH2 0x26EB DUP5 DUP3 DUP6 ADD PUSH2 0x2674 JUMP JUMPDEST PUSH0 DUP4 ADD MSTORE POP PUSH1 0x20 PUSH2 0x26FE DUP5 DUP3 DUP6 ADD PUSH2 0x20B7 JUMP JUMPDEST PUSH1 0x20 DUP4 ADD MSTORE POP PUSH1 0x40 PUSH2 0x2712 DUP5 DUP3 DUP6 ADD PUSH2 0x20B7 JUMP JUMPDEST PUSH1 0x40 DUP4 ADD MSTORE POP SWAP3 SWAP2 POP POP JUMP JUMPDEST PUSH0 PUSH2 0x2730 PUSH2 0x272B DUP5 PUSH2 0x25BA JUMP JUMPDEST PUSH2 0x25A0 JUMP JUMPDEST SWAP1 POP DUP1 DUP4 DUP3 MSTORE PUSH1 0x20 DUP3 ADD SWAP1 POP PUSH1 0x20 DUP5 MUL DUP4 ADD DUP6 DUP2 GT ISZERO PUSH2 0x2753 JUMPI PUSH2 0x2752 PUSH2 0x25E5 JUMP JUMPDEST JUMPDEST DUP4 JUMPDEST DUP2 DUP2 LT ISZERO PUSH2 0x279A JUMPI DUP1 CALLDATALOAD PUSH8 0xFFFFFFFFFFFFFFFF DUP2 GT ISZERO PUSH2 0x2778 JUMPI PUSH2 0x2777 PUSH2 0x253E JUMP JUMPDEST JUMPDEST DUP1 DUP7 ADD PUSH2 0x2785 DUP10 DUP3 PUSH2 0x26A1 JUMP JUMPDEST DUP6 MSTORE PUSH1 0x20 DUP6 ADD SWAP5 POP POP POP PUSH1 0x20 DUP2 ADD SWAP1 POP PUSH2 0x2755 JUMP JUMPDEST POP POP POP SWAP4 SWAP3 POP POP POP JUMP JUMPDEST PUSH0 DUP3 PUSH1 0x1F DUP4 ADD SLT PUSH2 0x27B8 JUMPI PUSH2 0x27B7 PUSH2 0x253E JUMP JUMPDEST JUMPDEST DUP2 CALLDATALOAD PUSH2 0x27C8 DUP5 DUP3 PUSH1 0x20 DUP7 ADD PUSH2 0x271E JUMP JUMPDEST SWAP2 POP POP SWAP3 SWAP2 POP POP JUMP JUMPDEST PUSH0 PUSH0 PUSH1 0x40 DUP4 DUP6 SUB SLT ISZERO PUSH2 0x27E7 JUMPI PUSH2 0x27E6 PUSH2 0x2090 JUMP JUMPDEST JUMPDEST PUSH0 PUSH2 0x27F4 DUP6 DUP3 DUP7 ADD PUSH2 0x20B7 JUMP JUMPDEST SWAP3 POP POP PUSH1 0x20 DUP4 ADD CALLDATALOAD PUSH8 0xFFFFFFFFFFFFFFFF DUP2 GT ISZERO PUSH2 0x2815 JUMPI PUSH2 0x2814 PUSH2 0x2094 JUMP JUMPDEST JUMPDEST PUSH2 0x2821 DUP6 DUP3 DUP7 ADD PUSH2 0x27A4 JUMP JUMPDEST SWAP2 POP POP SWAP3 POP SWAP3 SWAP1 POP JUMP JUMPDEST PUSH0 PUSH8 0xFFFFFFFFFFFFFFFF DUP3 GT ISZERO PUSH2 0x2845 JUMPI PUSH2 0x2844 PUSH2 0x2542 JUMP JUMPDEST JUMPDEST PUSH1 0x20 DUP3 MUL SWAP1 POP PUSH1 0x20 DUP2 ADD SWAP1 POP SWAP2 SWAP1 POP JUMP JUMPDEST PUSH0 PUSH2 0x2868 PUSH2 0x2863 DUP5 PUSH2 0x282B JUMP JUMPDEST PUSH2 0x25A0 JUMP JUMPDEST SWAP1 POP DUP1 DUP4 DUP3 MSTORE PUSH1 0x20 DUP3 ADD SWAP1 POP PUSH1 0x20 DUP5 MUL DUP4 ADD DUP6 DUP2 GT ISZERO PUSH2 0x288B JUMPI PUSH2 0x288A PUSH2 0x25E5 JUMP JUMPDEST JUMPDEST DUP4 JUMPDEST DUP2 DUP2 LT ISZERO PUSH2 0x28D2 JUMPI DUP1 CALLDATALOAD PUSH8 0xFFFFFFFFFFFFFFFF DUP2 GT ISZERO PUSH2 0x28B0 JUMPI PUSH2 0x28AF PUSH2 0x253E JUMP JUMPDEST JUMPDEST DUP1 DUP7 ADD PUSH2 0x28BD DUP10 DUP3 PUSH2 0x2674 JUMP JUMPDEST DUP6 MSTORE PUSH1 0x20 DUP6 ADD SWAP5 POP POP POP PUSH1 0x20 DUP2 ADD SWAP1 POP PUSH2 0x288D JUMP JUMPDEST POP POP POP SWAP4 SWAP3 POP POP POP JUMP JUMPDEST PUSH0 DUP3 PUSH1 0x1F DUP4 ADD SLT PUSH2 0x28F0 JUMPI PUSH2 0x28EF PUSH2 0x253E JUMP JUMPDEST JUMPDEST DUP2 CALLDATALOAD PUSH2 0x2900 DUP5 DUP3 PUSH1 0x20 DUP7 ADD PUSH2 0x2856 JUMP JUMPDEST SWAP2 POP POP SWAP3 SWAP2 POP POP JUMP JUMPDEST PUSH0 PUSH0 PUSH0 PUSH0 PUSH0 PUSH1 0xA0 DUP7 DUP9 SUB SLT ISZERO PUSH2 0x2922 JUMPI PUSH2 0x2921 PUSH2 0x2090 JUMP JUMPDEST JUMPDEST PUSH0 PUSH2 0x292F DUP9 DUP3 DUP10 ADD PUSH2 0x20B7 JUMP JUMPDEST SWAP6 POP POP PUSH1 0x20 DUP7 ADD CALLDATALOAD PUSH8 0xFFFFFFFFFFFFFFFF DUP2 GT ISZERO PUSH2 0x2950 JUMPI PUSH2 0x294F PUSH2 0x2094 JUMP JUMPDEST JUMPDEST PUSH2 0x295C DUP9 DUP3 DUP10 ADD PUSH2 0x2674 JUMP JUMPDEST SWAP5 POP POP PUSH1 0x40 DUP7 ADD CALLDATALOAD PUSH8 0xFFFFFFFFFFFFFFFF DUP2 GT ISZERO PUSH2 0x297D JUMPI PUSH2 0x297C PUSH2 0x2094 JUMP JUMPDEST JUMPDEST PUSH2 0x2989 DUP9 DUP3 DUP10 ADD PUSH2 0x2674 JUMP JUMPDEST SWAP4 POP POP PUSH1 0x60 PUSH2 0x299A DUP9 DUP3 DUP10 ADD PUSH2 0x20B7 JUMP JUMPDEST SWAP3 POP POP PUSH1 0x80 DUP7 ADD CALLDATALOAD PUSH8 0xFFFFFFFFFFFFFFFF DUP2 GT ISZERO PUSH2 0x29BB JUMPI PUSH2 0x29BA PUSH2 0x2094 JUMP JUMPDEST JUMPDEST PUSH2 0x29C7 DUP9 DUP3 DUP10 ADD PUSH2 0x28DC JUMP JUMPDEST SWAP2 POP POP SWAP3 SWAP6 POP SWAP3 SWAP6 SWAP1 SWAP4 POP JUMP JUMPDEST PUSH2 0x29DD DUP2 PUSH2 0x213A JUMP JUMPDEST DUP3 MSTORE POP POP JUMP JUMPDEST PUSH0 PUSH1 0x20 DUP3 ADD SWAP1 POP PUSH2 0x29F6 PUSH0 DUP4 ADD DUP5 PUSH2 0x29D4 JUMP JUMPDEST SWAP3 SWAP2 POP POP JUMP JUMPDEST PUSH0 DUP2 MLOAD SWAP1 POP SWAP2 SWAP1 POP JUMP JUMPDEST PUSH0 DUP3 DUP3 MSTORE PUSH1 0x20 DUP3 ADD SWAP1 POP SWAP3 SWAP2 POP POP JUMP JUMPDEST PUSH0 DUP2 SWAP1 POP PUSH1 0x20 DUP3 ADD SWAP1 POP SWAP2 SWAP1 POP JUMP JUMPDEST PUSH0 PUSH1 0x80 DUP4 ADD PUSH0 DUP4 ADD MLOAD PUSH2 0x2A3A PUSH0 DUP7 ADD DUP3 PUSH2 0x21F3 JUMP JUMPDEST POP PUSH1 0x20 DUP4 ADD MLOAD DUP5 DUP3 SUB PUSH1 0x20 DUP7 ADD MSTORE PUSH2 0x2A52 DUP3 DUP3 PUSH2 0x223A JUMP JUMPDEST SWAP2 POP POP PUSH1 0x40 DUP4 ADD MLOAD PUSH2 0x2A67 PUSH1 0x40 DUP7 ADD DUP3 PUSH2 0x21F3 JUMP JUMPDEST POP PUSH1 0x60 DUP4 ADD MLOAD PUSH2 0x2A7A PUSH1 0x60 DUP7 ADD DUP3 PUSH2 0x21F3 JUMP JUMPDEST POP DUP1 SWAP2 POP POP SWAP3 SWAP2 POP POP JUMP JUMPDEST PUSH0 PUSH2 0x2A90 DUP4 DUP4 PUSH2 0x2A25 JUMP JUMPDEST SWAP1 POP SWAP3 SWAP2 POP POP JUMP JUMPDEST PUSH0 PUSH1 0x20 DUP3 ADD SWAP1 POP SWAP2 SWAP1 POP JUMP JUMPDEST PUSH0 PUSH2 0x2AAE DUP3 PUSH2 0x29FC JUMP JUMPDEST PUSH2 0x2AB8 DUP2 DUP6 PUSH2 0x2A06 JUMP JUMPDEST SWAP4 POP DUP4 PUSH1 0x20 DUP3 MUL DUP6 ADD PUSH2 0x2ACA DUP6 PUSH2 0x2A16 JUMP JUMPDEST DUP1 PUSH0 JUMPDEST DUP6 DUP2 LT ISZERO PUSH2 0x2B05 JUMPI DUP5 DUP5 SUB DUP10 MSTORE DUP2 MLOAD PUSH2 0x2AE6 DUP6 DUP3 PUSH2 0x2A85 JUMP JUMPDEST SWAP5 POP PUSH2 0x2AF1 DUP4 PUSH2 0x2A98 JUMP JUMPDEST SWAP3 POP PUSH1 0x20 DUP11 ADD SWAP10 POP POP PUSH1 0x1 DUP2 ADD SWAP1 POP PUSH2 0x2ACD JUMP JUMPDEST POP DUP3 SWAP8 POP DUP8 SWAP6 POP POP POP POP POP POP SWAP3 SWAP2 POP POP JUMP JUMPDEST PUSH0 PUSH1 0x20 DUP3 ADD SWAP1 POP DUP2 DUP2 SUB PUSH0 DUP4 ADD MSTORE PUSH2 0x2B2F DUP2 DUP5 PUSH2 0x2AA4 JUMP JUMPDEST SWAP1 POP SWAP3 SWAP2 POP POP JUMP JUMPDEST PUSH0 PUSH0 PUSH0 PUSH0 PUSH0 PUSH0 PUSH1 0xC0 DUP8 DUP10 SUB SLT ISZERO PUSH2 0x2B51 JUMPI PUSH2 0x2B50 PUSH2 0x2090 JUMP JUMPDEST JUMPDEST PUSH0 PUSH2 0x2B5E DUP10 DUP3 DUP11 ADD PUSH2 0x20B7 JUMP JUMPDEST SWAP7 POP POP PUSH1 0x20 DUP8 ADD CALLDATALOAD PUSH8 0xFFFFFFFFFFFFFFFF DUP2 GT ISZERO PUSH2 0x2B7F JUMPI PUSH2 0x2B7E PUSH2 0x2094 JUMP JUMPDEST JUMPDEST PUSH2 0x2B8B DUP10 DUP3 DUP11 ADD PUSH2 0x2674 JUMP JUMPDEST SWAP6 POP POP PUSH1 0x40 DUP8 ADD CALLDATALOAD PUSH8 0xFFFFFFFFFFFFFFFF DUP2 GT ISZERO PUSH2 0x2BAC JUMPI PUSH2 0x2BAB PUSH2 0x2094 JUMP JUMPDEST JUMPDEST PUSH2 0x2BB8 DUP10 DUP3 DUP11 ADD PUSH2 0x2674 JUMP JUMPDEST SWAP5 POP POP PUSH1 0x60 PUSH2 0x2BC9 DUP10 DUP3 DUP11 ADD PUSH2 0x20B7 JUMP JUMPDEST SWAP4 POP POP PUSH1 0x80 DUP8 ADD CALLDATALOAD PUSH8 0xFFFFFFFFFFFFFFFF DUP2 GT ISZERO PUSH2 0x2BEA JUMPI PUSH2 0x2BE9 PUSH2 0x2094 JUMP JUMPDEST JUMPDEST PUSH2 0x2BF6 DUP10 DUP3 DUP11 ADD PUSH2 0x28DC JUMP JUMPDEST SWAP3 POP POP PUSH1 0xA0 DUP8 ADD CALLDATALOAD PUSH8 0xFFFFFFFFFFFFFFFF DUP2 GT ISZERO PUSH2 0x2C17 JUMPI PUSH2 0x2C16 PUSH2 0x2094 JUMP JUMPDEST JUMPDEST PUSH2 0x2C23 DUP10 DUP3 DUP11 ADD PUSH2 0x27A4 JUMP JUMPDEST SWAP2 POP POP SWAP3 SWAP6 POP SWAP3 SWAP6 POP SWAP3 SWAP6 JUMP JUMPDEST PUSH0 DUP2 MLOAD SWAP1 POP SWAP2 SWAP1 POP JUMP JUMPDEST PUSH0 DUP3 DUP3 MSTORE PUSH1 0x20 DUP3 ADD SWAP1 POP SWAP3 SWAP2 POP POP JUMP JUMPDEST PUSH0 DUP2 SWAP1 POP PUSH1 0x20 DUP3 ADD SWAP1 POP SWAP2 SWAP1 POP JUMP JUMPDEST PUSH0 PUSH1 0xE0 DUP4 ADD PUSH0 DUP4 ADD MLOAD PUSH2 0x2C6E PUSH0 DUP7 ADD DUP3 PUSH2 0x21F3 JUMP JUMPDEST POP PUSH1 0x20 DUP4 ADD MLOAD DUP5 DUP3 SUB PUSH1 0x20 DUP7 ADD MSTORE PUSH2 0x2C86 DUP3 DUP3 PUSH2 0x223A JUMP JUMPDEST SWAP2 POP POP PUSH1 0x40 DUP4 ADD MLOAD DUP5 DUP3 SUB PUSH1 0x40 DUP7 ADD MSTORE PUSH2 0x2CA0 DUP3 DUP3 PUSH2 0x223A JUMP JUMPDEST SWAP2 POP POP PUSH1 0x60 DUP4 ADD MLOAD PUSH2 0x2CB5 PUSH1 0x60 DUP7 ADD DUP3 PUSH2 0x21F3 JUMP JUMPDEST POP PUSH1 0x80 DUP4 ADD MLOAD DUP5 DUP3 SUB PUSH1 0x80 DUP7 ADD MSTORE PUSH2 0x2CCD DUP3 DUP3 PUSH2 0x22BA JUMP JUMPDEST SWAP2 POP POP PUSH1 0xA0 DUP4 ADD MLOAD PUSH2 0x2CE2 PUSH1 0xA0 DUP7 ADD DUP3 PUSH2 0x21F3 JUMP JUMPDEST POP PUSH1 0xC0 DUP4 ADD MLOAD PUSH2 0x2CF5 PUSH1 0xC0 DUP7 ADD DUP3 PUSH2 0x21F3 JUMP JUMPDEST POP DUP1 SWAP2 POP POP SWAP3 SWAP2 POP POP JUMP JUMPDEST PUSH0 DUP3 DUP3 MSTORE PUSH1 0x20 DUP3 ADD SWAP1 POP SWAP3 SWAP2 POP POP JUMP JUMPDEST PUSH0 PUSH2 0x2D1A DUP3 PUSH2 0x29FC JUMP JUMPDEST PUSH2 0x2D24 DUP2 DUP6 PUSH2 0x2D00 JUMP JUMPDEST SWAP4 POP DUP4 PUSH1 0x20 DUP3 MUL DUP6 ADD PUSH2 0x2D36 DUP6 PUSH2 0x2A16 JUMP JUMPDEST DUP1 PUSH0 JUMPDEST DUP6 DUP2 LT ISZERO PUSH2 0x2D71 JUMPI DUP5 DUP5 SUB DUP10 MSTORE DUP2 MLOAD PUSH2 0x2D52 DUP6 DUP3 PUSH2 0x2A85 JUMP JUMPDEST SWAP5 POP PUSH2 0x2D5D DUP4 PUSH2 0x2A98 JUMP JUMPDEST SWAP3 POP PUSH1 0x20 DUP11 ADD SWAP10 POP POP PUSH1 0x1 DUP2 ADD SWAP1 POP PUSH2 0x2D39 JUMP JUMPDEST POP DUP3 SWAP8 POP DUP8 SWAP6 POP POP POP POP POP POP SWAP3 SWAP2 POP POP JUMP JUMPDEST PUSH0 PUSH1 0x40 DUP4 ADD PUSH0 DUP4 ADD MLOAD DUP5 DUP3 SUB PUSH0 DUP7 ADD MSTORE PUSH2 0x2D9D DUP3 DUP3 PUSH2 0x2C59 JUMP JUMPDEST SWAP2 POP POP PUSH1 0x20 DUP4 ADD MLOAD DUP5 DUP3 SUB PUSH1 0x20 DUP7 ADD MSTORE PUSH2 0x2DB7 DUP3 DUP3 PUSH2 0x2D10 JUMP JUMPDEST SWAP2 POP POP DUP1 SWAP2 POP POP SWAP3 SWAP2 POP POP JUMP JUMPDEST PUSH0 PUSH2 0x2DCF DUP4 DUP4 PUSH2 0x2D83 JUMP JUMPDEST SWAP1 POP SWAP3 SWAP2 POP POP JUMP JUMPDEST PUSH0 PUSH1 0x20 DUP3 ADD SWAP1 POP SWAP2 SWAP1 POP JUMP JUMPDEST PUSH0 PUSH2 0x2DED DUP3 PUSH2 0x2C30 JUMP JUMPDEST PUSH2 0x2DF7 DUP2 DUP6 PUSH2 0x2C3A JUMP JUMPDEST SWAP4 POP DUP4 PUSH1 0x20 DUP3 MUL DUP6 ADD PUSH2 0x2E09 DUP6 PUSH2 0x2C4A JUMP JUMPDEST DUP1 PUSH0 JUMPDEST DUP6 DUP2 LT ISZERO PUSH2 0x2E44 JUMPI DUP5 DUP5 SUB DUP10 MSTORE DUP2 MLOAD PUSH2 0x2E25 DUP6 DUP3 PUSH2 0x2DC4 JUMP JUMPDEST SWAP5 POP PUSH2 0x2E30 DUP4 PUSH2 0x2DD7 JUMP JUMPDEST SWAP3 POP PUSH1 0x20 DUP11 ADD SWAP10 POP POP PUSH1 0x1 DUP2 ADD SWAP1 POP PUSH2 0x2E0C JUMP JUMPDEST POP DUP3 SWAP8 POP DUP8 SWAP6 POP POP POP POP POP POP SWAP3 SWAP2 POP POP JUMP JUMPDEST PUSH0 PUSH1 0x20 DUP3 ADD SWAP1 POP DUP2 DUP2 SUB PUSH0 DUP4 ADD MSTORE PUSH2 0x2E6E DUP2 DUP5 PUSH2 0x2DE3 JUMP JUMPDEST SWAP1 POP SWAP3 SWAP2 POP POP JUMP JUMPDEST PUSH0 PUSH0 PUSH0 PUSH1 0x60 DUP5 DUP7 SUB SLT ISZERO PUSH2 0x2E8D JUMPI PUSH2 0x2E8C PUSH2 0x2090 JUMP JUMPDEST JUMPDEST PUSH0 PUSH2 0x2E9A DUP7 DUP3 DUP8 ADD PUSH2 0x20B7 JUMP JUMPDEST SWAP4 POP POP PUSH1 0x20 PUSH2 0x2EAB DUP7 DUP3 DUP8 ADD PUSH2 0x20B7 JUMP JUMPDEST SWAP3 POP POP PUSH1 0x40 DUP5 ADD CALLDATALOAD PUSH8 0xFFFFFFFFFFFFFFFF DUP2 GT ISZERO PUSH2 0x2ECC JUMPI PUSH2 0x2ECB PUSH2 0x2094 JUMP JUMPDEST JUMPDEST PUSH2 0x2ED8 DUP7 DUP3 DUP8 ADD PUSH2 0x26A1 JUMP JUMPDEST SWAP2 POP POP SWAP3 POP SWAP3 POP SWAP3 JUMP JUMPDEST PUSH0 DUP2 SWAP1 POP SWAP2 SWAP1 POP JUMP JUMPDEST PUSH0 PUSH2 0x2F05 PUSH2 0x2F00 PUSH2 0x2EFB DUP5 PUSH2 0x211B JUMP JUMPDEST PUSH2 0x2EE2 JUMP JUMPDEST PUSH2 0x211B JUMP JUMPDEST SWAP1 POP SWAP2 SWAP1 POP JUMP JUMPDEST PUSH0 PUSH2 0x2F16 DUP3 PUSH2 0x2EEB JUMP JUMPDEST SWAP1 POP SWAP2 SWAP1 POP JUMP JUMPDEST PUSH0 PUSH2 0x2F27 DUP3 PUSH2 0x2F0C JUMP JUMPDEST SWAP1 POP SWAP2 SWAP1 POP JUMP JUMPDEST PUSH2 0x2F37 DUP2 PUSH2 0x2F1D JUMP JUMPDEST DUP3 MSTORE POP POP JUMP JUMPDEST PUSH0 PUSH1 0x20 DUP3 ADD SWAP1 POP PUSH2 0x2F50 PUSH0 DUP4 ADD DUP5 PUSH2 0x2F2E JUMP JUMPDEST SWAP3 SWAP2 POP POP JUMP JUMPDEST PUSH32 0x4E487B7100000000000000000000000000000000000000000000000000000000 PUSH0 MSTORE PUSH1 0x32 PUSH1 0x4 MSTORE PUSH1 0x24 PUSH0 REVERT JUMPDEST PUSH32 0x4E487B7100000000000000000000000000000000000000000000000000000000 PUSH0 MSTORE PUSH1 0x11 PUSH1 0x4 MSTORE PUSH1 0x24 PUSH0 REVERT JUMPDEST PUSH0 PUSH2 0x2FBA DUP3 PUSH2 0x2098 JUMP JUMPDEST SWAP2 POP PUSH2 0x2FC5 DUP4 PUSH2 0x2098 JUMP JUMPDEST SWAP3 POP DUP3 DUP3 ADD SWAP1 POP DUP1 DUP3 GT ISZERO PUSH2 0x2FDD JUMPI PUSH2 0x2FDC PUSH2 0x2F83 JUMP JUMPDEST JUMPDEST SWAP3 SWAP2 POP POP JUMP JUMPDEST PUSH0 DUP3 DUP3 MSTORE PUSH1 0x20 DUP3 ADD SWAP1 POP SWAP3 SWAP2 POP POP JUMP JUMPDEST PUSH32 0x466F6F6420646F6573206E6F7420657869737400000000000000000000000000 PUSH0 DUP3 ADD MSTORE POP JUMP JUMPDEST PUSH0 PUSH2 0x3027 PUSH1 0x13 DUP4 PUSH2 0x2FE3 JUMP JUMPDEST SWAP2 POP PUSH2 0x3032 DUP3 PUSH2 0x2FF3 JUMP JUMPDEST PUSH1 0x20 DUP3 ADD SWAP1 POP SWAP2 SWAP1 POP JUMP JUMPDEST PUSH0 PUSH1 0x20 DUP3 ADD SWAP1 POP DUP2 DUP2 SUB PUSH0 DUP4 ADD MSTORE PUSH2 0x3054 DUP2 PUSH2 0x301B JUMP JUMPDEST SWAP1 POP SWAP2 SWAP1 POP JUMP JUMPDEST PUSH32 0x4E487B7100000000000000000000000000000000000000000000000000000000 PUSH0 MSTORE PUSH1 0x22 PUSH1 0x4 MSTORE PUSH1 0x24 PUSH0 REVERT JUMPDEST PUSH0 PUSH1 0x2 DUP3 DIV SWAP1 POP PUSH1 0x1 DUP3 AND DUP1 PUSH2 0x309F JUMPI PUSH1 0x7F DUP3 AND SWAP2 POP JUMPDEST PUSH1 0x20 DUP3 LT DUP2 SUB PUSH2 0x30B2 JUMPI PUSH2 0x30B1 PUSH2 0x305B JUMP JUMPDEST JUMPDEST POP SWAP2 SWAP1 POP JUMP JUMPDEST PUSH32 0x466F6F6444657461696C206E6F7420666F756E64000000000000000000000000 PUSH0 DUP3 ADD MSTORE POP JUMP JUMPDEST PUSH0 PUSH2 0x30EC PUSH1 0x14 DUP4 PUSH2 0x2FE3 JUMP JUMPDEST SWAP2 POP PUSH2 0x30F7 DUP3 PUSH2 0x30B8 JUMP JUMPDEST PUSH1 0x20 DUP3 ADD SWAP1 POP SWAP2 SWAP1 POP JUMP JUMPDEST PUSH0 PUSH1 0x20 DUP3 ADD SWAP1 POP DUP2 DUP2 SUB PUSH0 DUP4 ADD MSTORE PUSH2 0x3119 DUP2 PUSH2 0x30E0 JUMP JUMPDEST SWAP1 POP SWAP2 SWAP1 POP JUMP JUMPDEST PUSH0 PUSH2 0x312A DUP3 PUSH2 0x2098 JUMP JUMPDEST SWAP2 POP PUSH2 0x3135 DUP4 PUSH2 0x2098 JUMP JUMPDEST SWAP3 POP DUP3 DUP3 SUB SWAP1 POP DUP2 DUP2 GT ISZERO PUSH2 0x314D JUMPI PUSH2 0x314C PUSH2 0x2F83 JUMP JUMPDEST JUMPDEST SWAP3 SWAP2 POP POP JUMP JUMPDEST PUSH0 DUP2 SWAP1 POP DUP2 PUSH0 MSTORE PUSH1 0x20 PUSH0 KECCAK256 SWAP1 POP SWAP2 SWAP1 POP JUMP JUMPDEST PUSH0 PUSH1 0x20 PUSH1 0x1F DUP4 ADD DIV SWAP1 POP SWAP2 SWAP1 POP JUMP JUMPDEST PUSH0 DUP3 DUP3 SHL SWAP1 POP SWAP3 SWAP2 POP POP JUMP JUMPDEST PUSH0 PUSH1 0x8 DUP4 MUL PUSH2 0x31AF PUSH32 0xFFFFFFFFFFFFFFFFFFFFFFFFFFFFFFFFFFFFFFFFFFFFFFFFFFFFFFFFFFFFFFFF DUP3 PUSH2 0x3174 JUMP JUMPDEST PUSH2 0x31B9 DUP7 DUP4 PUSH2 0x3174 JUMP JUMPDEST SWAP6 POP DUP1 NOT DUP5 AND SWAP4 POP DUP1 DUP7 AND DUP5 OR SWAP3 POP POP POP SWAP4 SWAP3 POP POP POP JUMP JUMPDEST PUSH0 PUSH2 0x31EB PUSH2 0x31E6 PUSH2 0x31E1 DUP5 PUSH2 0x2098 JUMP JUMPDEST PUSH2 0x2EE2 JUMP JUMPDEST PUSH2 0x2098 JUMP JUMPDEST SWAP1 POP SWAP2 SWAP1 POP JUMP JUMPDEST PUSH0 DUP2 SWAP1 POP SWAP2 SWAP1 POP JUMP JUMPDEST PUSH2 0x3204 DUP4 PUSH2 0x31D1 JUMP JUMPDEST PUSH2 0x3218 PUSH2 0x3210 DUP3 PUSH2 0x31F2 JUMP JUMPDEST DUP5 DUP5 SLOAD PUSH2 0x3180 JUMP JUMPDEST DUP3 SSTORE POP POP POP POP JUMP JUMPDEST PUSH0 PUSH0 SWAP1 POP SWAP1 JUMP JUMPDEST PUSH2 0x322F PUSH2 0x3220 JUMP JUMPDEST PUSH2 0x323A DUP2 DUP5 DUP5 PUSH2 0x31FB JUMP JUMPDEST POP POP POP JUMP JUMPDEST JUMPDEST DUP2 DUP2 LT ISZERO PUSH2 0x325D JUMPI PUSH2 0x3252 PUSH0 DUP3 PUSH2 0x3227 JUMP JUMPDEST PUSH1 0x1 DUP2 ADD SWAP1 POP PUSH2 0x3240 JUMP JUMPDEST POP POP JUMP JUMPDEST PUSH1 0x1F DUP3 GT ISZERO PUSH2 0x32A2 JUMPI PUSH2 0x3273 DUP2 PUSH2 0x3153 JUMP JUMPDEST PUSH2 0x327C DUP5 PUSH2 0x3165 JUMP JUMPDEST DUP2 ADD PUSH1 0x20 DUP6 LT ISZERO PUSH2 0x328B JUMPI DUP2 SWAP1 POP JUMPDEST PUSH2 0x329F PUSH2 0x3297 DUP6 PUSH2 0x3165 JUMP JUMPDEST DUP4 ADD DUP3 PUSH2 0x323F JUMP JUMPDEST POP POP JUMPDEST POP POP POP JUMP JUMPDEST PUSH0 DUP3 DUP3 SHR SWAP1 POP SWAP3 SWAP2 POP POP JUMP JUMPDEST PUSH0 PUSH2 0x32C2 PUSH0 NOT DUP5 PUSH1 0x8 MUL PUSH2 0x32A7 JUMP JUMPDEST NOT DUP1 DUP4 AND SWAP2 POP POP SWAP3 SWAP2 POP POP JUMP JUMPDEST PUSH0 PUSH2 0x32DA DUP4 DUP4 PUSH2 0x32B3 JUMP JUMPDEST SWAP2 POP DUP3 PUSH1 0x2 MUL DUP3 OR SWAP1 POP SWAP3 SWAP2 POP POP JUMP JUMPDEST PUSH2 0x32F3 DUP3 PUSH2 0x2202 JUMP JUMPDEST PUSH8 0xFFFFFFFFFFFFFFFF DUP2 GT ISZERO PUSH2 0x330C JUMPI PUSH2 0x330B PUSH2 0x2542 JUMP JUMPDEST JUMPDEST PUSH2 0x3316 DUP3 SLOAD PUSH2 0x3088 JUMP JUMPDEST PUSH2 0x3321 DUP3 DUP3 DUP6 PUSH2 0x3261 JUMP JUMPDEST PUSH0 PUSH1 0x20 SWAP1 POP PUSH1 0x1F DUP4 GT PUSH1 0x1 DUP2 EQ PUSH2 0x3352 JUMPI PUSH0 DUP5 ISZERO PUSH2 0x3340 JUMPI DUP3 DUP8 ADD MLOAD SWAP1 POP JUMPDEST PUSH2 0x334A DUP6 DUP3 PUSH2 0x32CF JUMP JUMPDEST DUP7 SSTORE POP PUSH2 0x33B1 JUMP JUMPDEST PUSH1 0x1F NOT DUP5 AND PUSH2 0x3360 DUP7 PUSH2 0x3153 JUMP JUMPDEST PUSH0 JUMPDEST DUP3 DUP2 LT ISZERO PUSH2 0x3387 JUMPI DUP5 DUP10 ADD MLOAD DUP3 SSTORE PUSH1 0x1 DUP3 ADD SWAP2 POP PUSH1 0x20 DUP6 ADD SWAP5 POP PUSH1 0x20 DUP2 ADD SWAP1 POP PUSH2 0x3362 JUMP JUMPDEST DUP7 DUP4 LT ISZERO PUSH2 0x33A4 JUMPI DUP5 DUP10 ADD MLOAD PUSH2 0x33A0 PUSH1 0x1F DUP10 AND DUP3 PUSH2 0x32B3 JUMP JUMPDEST DUP4 SSTORE POP JUMPDEST PUSH1 0x1 PUSH1 0x2 DUP9 MUL ADD DUP9 SSTORE POP POP POP JUMPDEST POP POP POP POP POP POP JUMP JUMPDEST PUSH32 0x4E487B7100000000000000000000000000000000000000000000000000000000 PUSH0 MSTORE PUSH1 0x31 PUSH1 0x4 MSTORE PUSH1 0x24 PUSH0 REVERT JUMPDEST PUSH0 PUSH1 0x40 DUP3 ADD SWAP1 POP PUSH2 0x33F9 PUSH0 DUP4 ADD DUP6 PUSH2 0x21A0 JUMP JUMPDEST PUSH2 0x3406 PUSH1 0x20 DUP4 ADD DUP5 PUSH2 0x21A0 JUMP JUMPDEST SWAP4 SWAP3 POP POP POP JUMP JUMPDEST PUSH32 0x466F6F6444657461696C20646F6573206E6F7420657869737400000000000000 PUSH0 DUP3 ADD MSTORE POP JUMP JUMPDEST PUSH0 PUSH2 0x3441 PUSH1 0x19 DUP4 PUSH2 0x2FE3 JUMP JUMPDEST SWAP2 POP PUSH2 0x344C DUP3 PUSH2 0x340D JUMP JUMPDEST PUSH1 0x20 DUP3 ADD SWAP1 POP SWAP2 SWAP1 POP JUMP JUMPDEST PUSH0 PUSH1 0x20 DUP3 ADD SWAP1 POP DUP2 DUP2 SUB PUSH0 DUP4 ADD MSTORE PUSH2 0x346E DUP2 PUSH2 0x3435 JUMP JUMPDEST SWAP1 POP SWAP2 SWAP1 POP JUMP JUMPDEST PUSH0 PUSH2 0x347F DUP3 PUSH2 0x2098 JUMP JUMPDEST SWAP2 POP PUSH32 0xFFFFFFFFFFFFFFFFFFFFFFFFFFFFFFFFFFFFFFFFFFFFFFFFFFFFFFFFFFFFFFFF DUP3 SUB PUSH2 0x34B1 JUMPI PUSH2 0x34B0 PUSH2 0x2F83 JUMP JUMPDEST JUMPDEST PUSH1 0x1 DUP3 ADD SWAP1 POP SWAP2 SWAP1 POP JUMP JUMPDEST PUSH0 DUP2 MLOAD SWAP1 POP PUSH2 0x34CA DUP2 PUSH2 0x20A1 JUMP JUMPDEST SWAP3 SWAP2 POP POP JUMP JUMPDEST PUSH0 PUSH2 0x34E2 PUSH2 0x34DD DUP5 PUSH2 0x25F5 JUMP JUMPDEST PUSH2 0x25A0 JUMP JUMPDEST SWAP1 POP DUP3 DUP2 MSTORE PUSH1 0x20 DUP2 ADD DUP5 DUP5 DUP5 ADD GT ISZERO PUSH2 0x34FE JUMPI PUSH2 0x34FD PUSH2 0x25F1 JUMP JUMPDEST JUMPDEST PUSH2 0x3509 DUP5 DUP3 DUP6 PUSH2 0x221C JUMP JUMPDEST POP SWAP4 SWAP3 POP POP POP JUMP JUMPDEST PUSH0 DUP3 PUSH1 0x1F DUP4 ADD SLT PUSH2 0x3525 JUMPI PUSH2 0x3524 PUSH2 0x253E JUMP JUMPDEST JUMPDEST DUP2 MLOAD PUSH2 0x3535 DUP5 DUP3 PUSH1 0x20 DUP7 ADD PUSH2 0x34D0 JUMP JUMPDEST SWAP2 POP POP SWAP3 SWAP2 POP POP JUMP JUMPDEST PUSH0 PUSH1 0x40 DUP3 DUP5 SUB SLT ISZERO PUSH2 0x3553 JUMPI PUSH2 0x3552 PUSH2 0x25E9 JUMP JUMPDEST JUMPDEST PUSH2 0x355D PUSH1 0x40 PUSH2 0x25A0 JUMP JUMPDEST SWAP1 POP PUSH0 PUSH2 0x356C DUP5 DUP3 DUP6 ADD PUSH2 0x34BC JUMP JUMPDEST PUSH0 DUP4 ADD MSTORE POP PUSH1 0x20 DUP3 ADD MLOAD PUSH8 0xFFFFFFFFFFFFFFFF DUP2 GT ISZERO PUSH2 0x358F JUMPI PUSH2 0x358E PUSH2 0x25ED JUMP JUMPDEST JUMPDEST PUSH2 0x359B DUP5 DUP3 DUP6 ADD PUSH2 0x3511 JUMP JUMPDEST PUSH1 0x20 DUP4 ADD MSTORE POP SWAP3 SWAP2 POP POP JUMP JUMPDEST PUSH0 PUSH1 0x20 DUP3 DUP5 SUB SLT ISZERO PUSH2 0x35BC JUMPI PUSH2 0x35BB PUSH2 0x2090 JUMP JUMPDEST JUMPDEST PUSH0 DUP3 ADD MLOAD PUSH8 0xFFFFFFFFFFFFFFFF DUP2 GT ISZERO PUSH2 0x35D9 JUMPI PUSH2 0x35D8 PUSH2 0x2094 JUMP JUMPDEST JUMPDEST PUSH2 0x35E5 DUP5 DUP3 DUP6 ADD PUSH2 0x353E JUMP JUMPDEST SWAP2 POP POP SWAP3 SWAP2 POP POP JUMP JUMPDEST PUSH32 0x43617465676F727920646F6573206E6F74206578697374000000000000000000 PUSH0 DUP3 ADD MSTORE POP JUMP JUMPDEST PUSH0 PUSH2 0x3622 PUSH1 0x17 DUP4 PUSH2 0x2FE3 JUMP JUMPDEST SWAP2 POP PUSH2 0x362D DUP3 PUSH2 0x35EE JUMP JUMPDEST PUSH1 0x20 DUP3 ADD SWAP1 POP SWAP2 SWAP1 POP JUMP JUMPDEST PUSH0 PUSH1 0x20 DUP3 ADD SWAP1 POP DUP2 DUP2 SUB PUSH0 DUP4 ADD MSTORE PUSH2 0x364F DUP2 PUSH2 0x3616 JUMP JUMPDEST SWAP1 POP SWAP2 SWAP1 POP JUMP JUMPDEST PUSH0 PUSH2 0x3660 DUP3 PUSH2 0x2202 JUMP JUMPDEST PUSH2 0x366A DUP2 DUP6 PUSH2 0x2FE3 JUMP JUMPDEST SWAP4 POP PUSH2 0x367A DUP2 DUP6 PUSH1 0x20 DUP7 ADD PUSH2 0x221C JUMP JUMPDEST PUSH2 0x3683 DUP2 PUSH2 0x222A JUMP JUMPDEST DUP5 ADD SWAP2 POP POP SWAP3 SWAP2 POP POP JUMP JUMPDEST PUSH0 DUP3 DUP3 MSTORE PUSH1 0x20 DUP3 ADD SWAP1 POP SWAP3 SWAP2 POP POP JUMP JUMPDEST PUSH0 PUSH2 0x36A8 DUP3 PUSH2 0x2272 JUMP JUMPDEST PUSH2 0x36B2 DUP2 DUP6 PUSH2 0x368E JUMP JUMPDEST SWAP4 POP DUP4 PUSH1 0x20 DUP3 MUL DUP6 ADD PUSH2 0x36C4 DUP6 PUSH2 0x228C JUMP JUMPDEST DUP1 PUSH0 JUMPDEST DUP6 DUP2 LT ISZERO PUSH2 0x36FF JUMPI DUP5 DUP5 SUB DUP10 MSTORE DUP2 MLOAD PUSH2 0x36E0 DUP6 DUP3 PUSH2 0x229B JUMP JUMPDEST SWAP5 POP PUSH2 0x36EB DUP4 PUSH2 0x22AE JUMP JUMPDEST SWAP3 POP PUSH1 0x20 DUP11 ADD SWAP10 POP POP PUSH1 0x1 DUP2 ADD SWAP1 POP PUSH2 0x36C7 JUMP JUMPDEST POP DUP3 SWAP8 POP DUP8 SWAP6 POP POP POP POP POP POP SWAP3 SWAP2 POP POP JUMP JUMPDEST PUSH0 PUSH1 0xA0 DUP3 ADD SWAP1 POP PUSH2 0x3724 PUSH0 DUP4 ADD DUP9 PUSH2 0x21A0 JUMP JUMPDEST DUP2 DUP2 SUB PUSH1 0x20 DUP4 ADD MSTORE PUSH2 0x3736 DUP2 DUP8 PUSH2 0x3656 JUMP JUMPDEST SWAP1 POP DUP2 DUP2 SUB PUSH1 0x40 DUP4 ADD MSTORE PUSH2 0x374A DUP2 DUP7 PUSH2 0x3656 JUMP JUMPDEST SWAP1 POP PUSH2 0x3759 PUSH1 0x60 DUP4 ADD DUP6 PUSH2 0x21A0 JUMP JUMPDEST DUP2 DUP2 SUB PUSH1 0x80 DUP4 ADD MSTORE PUSH2 0x376B DUP2 DUP5 PUSH2 0x369E JUMP JUMPDEST SWAP1 POP SWAP7 SWAP6 POP POP POP POP POP POP JUMP JUMPDEST PUSH32 0x5175616E74697479277320666F6F642063616E6E6F7420626520736D616C6C65 PUSH0 DUP3 ADD MSTORE PUSH32 0x72207468616E2030000000000000000000000000000000000000000000000000 PUSH1 0x20 DUP3 ADD MSTORE POP JUMP JUMPDEST PUSH0 PUSH2 0x37D1 PUSH1 0x28 DUP4 PUSH2 0x2FE3 JUMP JUMPDEST SWAP2 POP PUSH2 0x37DC DUP3 PUSH2 0x3777 JUMP JUMPDEST PUSH1 0x40 DUP3 ADD SWAP1 POP SWAP2 SWAP1 POP JUMP JUMPDEST PUSH0 PUSH1 0x20 DUP3 ADD SWAP1 POP DUP2 DUP2 SUB PUSH0 DUP4 ADD MSTORE PUSH2 0x37FE DUP2 PUSH2 0x37C5 JUMP JUMPDEST SWAP1 POP SWAP2 SWAP1 POP JUMP JUMPDEST PUSH32 0x466F6F642077697468207468697320494420616C726561647920657869737473 PUSH0 DUP3 ADD MSTORE POP JUMP JUMPDEST PUSH0 PUSH2 0x3839 PUSH1 0x20 DUP4 PUSH2 0x2FE3 JUMP JUMPDEST SWAP2 POP PUSH2 0x3844 DUP3 PUSH2 0x3805 JUMP JUMPDEST PUSH1 0x20 DUP3 ADD SWAP1 POP SWAP2 SWAP1 POP JUMP JUMPDEST PUSH0 PUSH1 0x20 DUP3 ADD SWAP1 POP DUP2 DUP2 SUB PUSH0 DUP4 ADD MSTORE PUSH2 0x3866 DUP2 PUSH2 0x382D JUMP JUMPDEST SWAP1 POP SWAP2 SWAP1 POP JUMP INVALID LOG2 PUSH5 0x6970667358 0x22 SLT KECCAK256 0x25 0xE8 0xB4 RJUMP 0xA9AB SHL 0xBE CREATE 0xA6 DUP7 PUSH18 0x8C0D1294CE2DE5002B86568BE745D18A044A PUSH25 0xF264736F6C634300081E003300000000000000000000000000 "
				},
				"gasEstimates": {
					"creation": {
						"codeDepositCost": "2899800",
						"executionCost": "infinite",
						"totalCost": "infinite"
					},
					"external": {
						"addAdmin(address)": "24868",
						"addFoodDetails(uint256,(string,uint256,uint256)[])": "infinite",
						"categoryManager()": "infinite",
						"createFood(uint256,string,string,uint256,string[],(string,uint256,uint256)[])": "infinite",
						"deleteFood(uint256)": "infinite",
						"deleteFoodDetail(uint256,uint256)": "infinite",
						"getAllFoods()": "infinite",
						"getFood(uint256)": "infinite",
						"getFoodDetailByFoodId_FoodDetailId(uint256,uint256)": "infinite",
						"getFoodDetails(uint256)": "infinite",
						"getOwner()": "2581",
						"increaseQuantiy(uint256,uint256,uint256)": "infinite",
						"isAdmin(address)": "2966",
						"nextFoodDetailId()": "2515",
						"nextFoodId()": "2493",
						"reduceQuantiy(uint256,uint256,uint256)": "infinite",
						"removeAdmin(address)": "24868",
						"updateFood(uint256,string,string,uint256,string[])": "infinite",
						"updateFoodDetail(uint256,uint256,(string,uint256,uint256))": "infinite"
					}
				},
				"methodIdentifiers": {
					"addAdmin(address)": "70480275",
					"addFoodDetails(uint256,(string,uint256,uint256)[])": "64f77471",
					"categoryManager()": "d86ec238",
					"createFood(uint256,string,string,uint256,string[],(string,uint256,uint256)[])": "b447aaae",
					"deleteFood(uint256)": "d198b650",
					"deleteFoodDetail(uint256,uint256)": "4d30a39b",
					"getAllFoods()": "b9b5aae6",
					"getFood(uint256)": "1e4de872",
					"getFoodDetailByFoodId_FoodDetailId(uint256,uint256)": "35085515",
					"getFoodDetails(uint256)": "af5607f9",
					"getOwner()": "893d20e8",
					"increaseQuantiy(uint256,uint256,uint256)": "094b9a53",
					"isAdmin(address)": "24d7806c",
					"nextFoodDetailId()": "1b0d77cc",
					"nextFoodId()": "1945ef58",
					"reduceQuantiy(uint256,uint256,uint256)": "9a69bfa6",
					"removeAdmin(address)": "1785f53c",
					"updateFood(uint256,string,string,uint256,string[])": "6dd2dd88",
					"updateFoodDetail(uint256,uint256,(string,uint256,uint256))": "baf85306"
				}
			},
			"storageLayout": {
				"storage": [
					{
						"astId": 3,
						"contract": "contracts/manager/FoodManager.sol:FoodManager",
						"label": "owner",
						"offset": 0,
						"slot": "0",
						"type": "t_address"
					},
					{
						"astId": 12,
						"contract": "contracts/manager/FoodManager.sol:FoodManager",
						"label": "isAdmin",
						"offset": 0,
						"slot": "1",
						"type": "t_mapping(t_address,t_enum(Role)7)"
					},
					{
						"astId": 322,
						"contract": "contracts/manager/FoodManager.sol:FoodManager",
						"label": "categoryManager",
						"offset": 0,
						"slot": "2",
						"type": "t_contract(ICategoryManager)144"
					},
					{
						"astId": 325,
						"contract": "contracts/manager/FoodManager.sol:FoodManager",
						"label": "nextFoodId",
						"offset": 0,
						"slot": "3",
						"type": "t_uint256"
					},
					{
						"astId": 328,
						"contract": "contracts/manager/FoodManager.sol:FoodManager",
						"label": "nextFoodDetailId",
						"offset": 0,
						"slot": "4",
						"type": "t_uint256"
					},
					{
						"astId": 333,
						"contract": "contracts/manager/FoodManager.sol:FoodManager",
						"label": "foods",
						"offset": 0,
						"slot": "5",
						"type": "t_mapping(t_uint256,t_struct(Food)1155_storage)"
					},
					{
						"astId": 339,
						"contract": "contracts/manager/FoodManager.sol:FoodManager",
						"label": "foodDetails",
						"offset": 0,
						"slot": "6",
						"type": "t_mapping(t_uint256,t_array(t_struct(FoodDetail)1164_storage)dyn_storage)"
					},
					{
						"astId": 342,
						"contract": "contracts/manager/FoodManager.sol:FoodManager",
						"label": "foodIds",
						"offset": 0,
						"slot": "7",
						"type": "t_array(t_uint256)dyn_storage"
					}
				],
				"types": {
					"t_address": {
						"encoding": "inplace",
						"label": "address",
						"numberOfBytes": "20"
					},
					"t_array(t_string_storage)dyn_storage": {
						"base": "t_string_storage",
						"encoding": "dynamic_array",
						"label": "string[]",
						"numberOfBytes": "32"
					},
					"t_array(t_struct(FoodDetail)1164_storage)dyn_storage": {
						"base": "t_struct(FoodDetail)1164_storage",
						"encoding": "dynamic_array",
						"label": "struct FoodDetail[]",
						"numberOfBytes": "32"
					},
					"t_array(t_uint256)dyn_storage": {
						"base": "t_uint256",
						"encoding": "dynamic_array",
						"label": "uint256[]",
						"numberOfBytes": "32"
					},
					"t_contract(ICategoryManager)144": {
						"encoding": "inplace",
						"label": "contract ICategoryManager",
						"numberOfBytes": "20"
					},
					"t_enum(Role)7": {
						"encoding": "inplace",
						"label": "enum RoleAccess.Role",
						"numberOfBytes": "1"
					},
					"t_mapping(t_address,t_enum(Role)7)": {
						"encoding": "mapping",
						"key": "t_address",
						"label": "mapping(address => enum RoleAccess.Role)",
						"numberOfBytes": "32",
						"value": "t_enum(Role)7"
					},
					"t_mapping(t_uint256,t_array(t_struct(FoodDetail)1164_storage)dyn_storage)": {
						"encoding": "mapping",
						"key": "t_uint256",
						"label": "mapping(uint256 => struct FoodDetail[])",
						"numberOfBytes": "32",
						"value": "t_array(t_struct(FoodDetail)1164_storage)dyn_storage"
					},
					"t_mapping(t_uint256,t_struct(Food)1155_storage)": {
						"encoding": "mapping",
						"key": "t_uint256",
						"label": "mapping(uint256 => struct Food)",
						"numberOfBytes": "32",
						"value": "t_struct(Food)1155_storage"
					},
					"t_string_storage": {
						"encoding": "bytes",
						"label": "string",
						"numberOfBytes": "32"
					},
					"t_struct(Food)1155_storage": {
						"encoding": "inplace",
						"label": "struct Food",
						"members": [
							{
								"astId": 1141,
								"contract": "contracts/manager/FoodManager.sol:FoodManager",
								"label": "foodId",
								"offset": 0,
								"slot": "0",
								"type": "t_uint256"
							},
							{
								"astId": 1143,
								"contract": "contracts/manager/FoodManager.sol:FoodManager",
								"label": "name",
								"offset": 0,
								"slot": "1",
								"type": "t_string_storage"
							},
							{
								"astId": 1145,
								"contract": "contracts/manager/FoodManager.sol:FoodManager",
								"label": "description",
								"offset": 0,
								"slot": "2",
								"type": "t_string_storage"
							},
							{
								"astId": 1147,
								"contract": "contracts/manager/FoodManager.sol:FoodManager",
								"label": "categoryId",
								"offset": 0,
								"slot": "3",
								"type": "t_uint256"
							},
							{
								"astId": 1150,
								"contract": "contracts/manager/FoodManager.sol:FoodManager",
								"label": "imageUrl",
								"offset": 0,
								"slot": "4",
								"type": "t_array(t_string_storage)dyn_storage"
							},
							{
								"astId": 1152,
								"contract": "contracts/manager/FoodManager.sol:FoodManager",
								"label": "sumRating",
								"offset": 0,
								"slot": "5",
								"type": "t_uint256"
							},
							{
								"astId": 1154,
								"contract": "contracts/manager/FoodManager.sol:FoodManager",
								"label": "countRating",
								"offset": 0,
								"slot": "6",
								"type": "t_uint256"
							}
						],
						"numberOfBytes": "224"
					},
					"t_struct(FoodDetail)1164_storage": {
						"encoding": "inplace",
						"label": "struct FoodDetail",
						"members": [
							{
								"astId": 1157,
								"contract": "contracts/manager/FoodManager.sol:FoodManager",
								"label": "foodDetailId",
								"offset": 0,
								"slot": "0",
								"type": "t_uint256"
							},
							{
								"astId": 1159,
								"contract": "contracts/manager/FoodManager.sol:FoodManager",
								"label": "size",
								"offset": 0,
								"slot": "1",
								"type": "t_string_storage"
							},
							{
								"astId": 1161,
								"contract": "contracts/manager/FoodManager.sol:FoodManager",
								"label": "quantity",
								"offset": 0,
								"slot": "2",
								"type": "t_uint256"
							},
							{
								"astId": 1163,
								"contract": "contracts/manager/FoodManager.sol:FoodManager",
								"label": "price",
								"offset": 0,
								"slot": "3",
								"type": "t_uint256"
							}
						],
						"numberOfBytes": "128"
					},
					"t_uint256": {
						"encoding": "inplace",
						"label": "uint256",
						"numberOfBytes": "32"
					}
				}
			},
			"userdoc": {
				"kind": "user",
				"methods": {},
				"version": 1
			}
		}
	}
}