{
	"contracts/manager/StaffManager.sol": {
		"StaffManagement": {
			"abi": [
				{
					"inputs": [
						{
							"internalType": "address",
							"name": "_orderManagerAddress",
							"type": "address"
						},
						{
							"internalType": "address",
							"name": "_roleAccess",
							"type": "address"
						}
					],
					"stateMutability": "nonpayable",
					"type": "constructor"
				},
				{
					"anonymous": false,
					"inputs": [
						{
							"indexed": true,
							"internalType": "uint256",
							"name": "staffId",
							"type": "uint256"
						},
						{
							"indexed": false,
							"internalType": "string",
							"name": "name",
							"type": "string"
						}
					],
					"name": "StaffAdded",
					"type": "event"
				},
				{
					"anonymous": false,
					"inputs": [
						{
							"indexed": true,
							"internalType": "uint256",
							"name": "staffId",
							"type": "uint256"
						},
						{
							"indexed": false,
							"internalType": "uint256",
							"name": "_orderId",
							"type": "uint256"
						}
					],
					"name": "StaffAddedToOrder",
					"type": "event"
				},
				{
					"anonymous": false,
					"inputs": [
						{
							"indexed": false,
							"internalType": "uint256",
							"name": "staffId",
							"type": "uint256"
						},
						{
							"indexed": false,
							"internalType": "uint256",
							"name": "sumRating",
							"type": "uint256"
						},
						{
							"indexed": false,
							"internalType": "uint256",
							"name": "countRating",
							"type": "uint256"
						}
					],
					"name": "StaffRatingUpdated",
					"type": "event"
				},
				{
					"anonymous": false,
					"inputs": [
						{
							"indexed": true,
							"internalType": "uint256",
							"name": "staffId",
							"type": "uint256"
						},
						{
							"indexed": false,
							"internalType": "string",
							"name": "name",
							"type": "string"
						}
					],
					"name": "StaffUpdated",
					"type": "event"
				},
				{
					"inputs": [
						{
							"internalType": "uint256",
							"name": "_staffId",
							"type": "uint256"
						},
						{
							"internalType": "string",
							"name": "_name",
							"type": "string"
						},
						{
							"internalType": "string",
							"name": "_dob",
							"type": "string"
						},
						{
							"internalType": "string",
							"name": "_phone",
							"type": "string"
						}
					],
					"name": "addStaff",
					"outputs": [],
					"stateMutability": "nonpayable",
					"type": "function"
				},
				{
					"inputs": [
						{
							"internalType": "uint256",
							"name": "_orderId",
							"type": "uint256"
						},
						{
							"internalType": "uint256",
							"name": "_staffId",
							"type": "uint256"
						}
					],
					"name": "addStaffToOrder",
					"outputs": [],
					"stateMutability": "nonpayable",
					"type": "function"
				},
				{
					"inputs": [
						{
							"internalType": "uint256",
							"name": "_staffId",
							"type": "uint256"
						}
					],
					"name": "getStaff",
					"outputs": [
						{
							"components": [
								{
									"internalType": "uint256",
									"name": "staffId",
									"type": "uint256"
								},
								{
									"internalType": "string",
									"name": "name",
									"type": "string"
								},
								{
									"internalType": "string",
									"name": "dob",
									"type": "string"
								},
								{
									"internalType": "string",
									"name": "phone",
									"type": "string"
								},
								{
									"internalType": "uint256",
									"name": "sumRating",
									"type": "uint256"
								},
								{
									"internalType": "uint256",
									"name": "countRating",
									"type": "uint256"
								}
							],
							"internalType": "struct Staff",
							"name": "",
							"type": "tuple"
						}
					],
					"stateMutability": "view",
					"type": "function"
				},
				{
					"inputs": [],
					"name": "orderManager",
					"outputs": [
						{
							"internalType": "contract IOrderManager",
							"name": "",
							"type": "address"
						}
					],
					"stateMutability": "view",
					"type": "function"
				},
				{
					"inputs": [],
					"name": "roleAccess",
					"outputs": [
						{
							"internalType": "contract RoleAccess",
							"name": "",
							"type": "address"
						}
					],
					"stateMutability": "view",
					"type": "function"
				},
				{
					"inputs": [
						{
							"internalType": "uint256",
							"name": "",
							"type": "uint256"
						}
					],
					"name": "staffs",
					"outputs": [
						{
							"internalType": "uint256",
							"name": "staffId",
							"type": "uint256"
						},
						{
							"internalType": "string",
							"name": "name",
							"type": "string"
						},
						{
							"internalType": "string",
							"name": "dob",
							"type": "string"
						},
						{
							"internalType": "string",
							"name": "phone",
							"type": "string"
						},
						{
							"internalType": "uint256",
							"name": "sumRating",
							"type": "uint256"
						},
						{
							"internalType": "uint256",
							"name": "countRating",
							"type": "uint256"
						}
					],
					"stateMutability": "view",
					"type": "function"
				},
				{
					"inputs": [
						{
							"internalType": "uint256",
							"name": "_staffId",
							"type": "uint256"
						},
						{
							"internalType": "uint256",
							"name": "_sumRating",
							"type": "uint256"
						},
						{
							"internalType": "uint256",
							"name": "_countRating",
							"type": "uint256"
						}
					],
					"name": "updateRatingStaff",
					"outputs": [],
					"stateMutability": "nonpayable",
					"type": "function"
				},
				{
					"inputs": [
						{
							"internalType": "uint256",
							"name": "_staffId",
							"type": "uint256"
						},
						{
							"internalType": "string",
							"name": "_name",
							"type": "string"
						},
						{
							"internalType": "string",
							"name": "_dob",
							"type": "string"
						},
						{
							"internalType": "string",
							"name": "_phone",
							"type": "string"
						}
					],
					"name": "updateStaffInfo",
					"outputs": [],
					"stateMutability": "nonpayable",
					"type": "function"
				}
			],
			"devdoc": {
				"kind": "dev",
				"methods": {},
				"version": 1
			},
			"evm": {
				"assembly": "    /* \"contracts/manager/StaffManager.sol\":177:2297  contract StaffManagement is IStaffManager {... */\n  mstore(0x40, 0x80)\n    /* \"contracts/manager/StaffManager.sol\":344:520  constructor(address _orderManagerAddress, address _roleAccess) {... */\n  callvalue\n  dup1\n  iszero\n  tag_1\n  jumpi\n  revert(0x00, 0x00)\ntag_1:\n  pop\n  mload(0x40)\n  sub(codesize, bytecodeSize)\n  dup1\n  bytecodeSize\n  dup4\n  codecopy\n  dup2\n  add\n  0x40\n  dup2\n  swap1\n  mstore\n  tag_2\n  swap2\n  tag_3\n  jump\t// in\ntag_2:\n    /* \"contracts/manager/StaffManager.sol\":417:429  orderManager */\n  0x00\n    /* \"contracts/manager/StaffManager.sol\":417:467  orderManager = IOrderManager(_orderManagerAddress) */\n  dup1\n  sload\n  sub(shl(0xa0, 0x01), 0x01)\n  swap4\n  dup5\n  and\n  not(sub(shl(0xa0, 0x01), 0x01))\n  swap2\n  dup3\n  and\n  or\n  swap1\n  swap2\n  sstore\n  0x01\n    /* \"contracts/manager/StaffManager.sol\":477:513  roleAccess = RoleAccess(_roleAccess) */\n  dup1\n  sload\n  swap3\n  swap1\n  swap4\n  and\n  swap2\n  and\n  or\n  swap1\n  sstore\n    /* \"contracts/manager/StaffManager.sol\":177:2297  contract StaffManagement is IStaffManager {... */\n  jump(tag_8)\n    /* \"#utility.yul\":14:191   */\ntag_7:\n    /* \"#utility.yul\":93:106   */\n  dup1\n  mload\n  sub(shl(0xa0, 0x01), 0x01)\n    /* \"#utility.yul\":135:166   */\n  dup2\n  and\n    /* \"#utility.yul\":125:167   */\n  dup2\n  eq\n    /* \"#utility.yul\":115:185   */\n  tag_10\n  jumpi\n    /* \"#utility.yul\":181:182   */\n  0x00\n    /* \"#utility.yul\":178:179   */\n  0x00\n    /* \"#utility.yul\":171:183   */\n  revert\n    /* \"#utility.yul\":115:185   */\ntag_10:\n    /* \"#utility.yul\":14:191   */\n  swap2\n  swap1\n  pop\n  jump\t// out\n    /* \"#utility.yul\":196:489   */\ntag_3:\n    /* \"#utility.yul\":275:281   */\n  0x00\n    /* \"#utility.yul\":283:289   */\n  0x00\n    /* \"#utility.yul\":336:338   */\n  0x40\n    /* \"#utility.yul\":324:333   */\n  dup4\n    /* \"#utility.yul\":315:322   */\n  dup6\n    /* \"#utility.yul\":311:334   */\n  sub\n    /* \"#utility.yul\":307:339   */\n  slt\n    /* \"#utility.yul\":304:356   */\n  iszero\n  tag_12\n  jumpi\n    /* \"#utility.yul\":352:353   */\n  0x00\n    /* \"#utility.yul\":349:350   */\n  0x00\n    /* \"#utility.yul\":342:354   */\n  revert\n    /* \"#utility.yul\":304:356   */\ntag_12:\n    /* \"#utility.yul\":375:415   */\n  tag_13\n    /* \"#utility.yul\":405:414   */\n  dup4\n    /* \"#utility.yul\":375:415   */\n  tag_7\n  jump\t// in\ntag_13:\n    /* \"#utility.yul\":365:415   */\n  swap2\n  pop\n    /* \"#utility.yul\":434:483   */\n  tag_14\n    /* \"#utility.yul\":479:481   */\n  0x20\n    /* \"#utility.yul\":468:477   */\n  dup5\n    /* \"#utility.yul\":464:482   */\n  add\n    /* \"#utility.yul\":434:483   */\n  tag_7\n  jump\t// in\ntag_14:\n    /* \"#utility.yul\":424:483   */\n  swap1\n  pop\n    /* \"#utility.yul\":196:489   */\n  swap3\n  pop\n  swap3\n  swap1\n  pop\n  jump\t// out\ntag_8:\n    /* \"contracts/manager/StaffManager.sol\":177:2297  contract StaffManagement is IStaffManager {... */\n  dataSize(sub_0)\n  dup1\n  dataOffset(sub_0)\n  0x00\n  codecopy\n  0x00\n  return\nstop\n\nsub_0: assembly {\n        /* \"contracts/manager/StaffManager.sol\":177:2297  contract StaffManagement is IStaffManager {... */\n      mstore(0x40, 0x80)\n      callvalue\n      dup1\n      iszero\n      tag_1\n      jumpi\n      revert(0x00, 0x00)\n    tag_1:\n      pop\n      jumpi(tag_2, lt(calldatasize, 0x04))\n      shr(0xe0, calldataload(0x00))\n      dup1\n      0xdeab8c75\n      gt\n      tag_11\n      jumpi\n      dup1\n      0xdeab8c75\n      eq\n      tag_7\n      jumpi\n      dup1\n      0xf4def44b\n      eq\n      tag_8\n      jumpi\n      dup1\n      0xf9b6117f\n      eq\n      tag_9\n      jumpi\n      dup1\n      0xfdff9aab\n      eq\n      tag_10\n      jumpi\n      revert(0x00, 0x00)\n    tag_11:\n      dup1\n      0x42f54b89\n      eq\n      tag_3\n      jumpi\n      dup1\n      0x498d4707\n      eq\n      tag_4\n      jumpi\n      dup1\n      0x9121f4eb\n      eq\n      tag_5\n      jumpi\n      dup1\n      0xb3ce9dea\n      eq\n      tag_6\n      jumpi\n    tag_2:\n      revert(0x00, 0x00)\n        /* \"contracts/manager/StaffManager.sol\":264:292  RoleAccess public roleAccess */\n    tag_3:\n      sload(0x01)\n      tag_12\n      swap1\n      sub(shl(0xa0, 0x01), 0x01)\n      and\n      dup2\n      jump\n    tag_12:\n      mload(0x40)\n      sub(shl(0xa0, 0x01), 0x01)\n        /* \"#utility.yul\":195:227   */\n      swap1\n      swap2\n      and\n        /* \"#utility.yul\":177:228   */\n      dup2\n      mstore\n        /* \"#utility.yul\":165:167   */\n      0x20\n        /* \"#utility.yul\":150:168   */\n      add\n        /* \"contracts/manager/StaffManager.sol\":264:292  RoleAccess public roleAccess */\n    tag_14:\n      mload(0x40)\n      dup1\n      swap2\n      sub\n      swap1\n      return\n        /* \"contracts/manager/StaffManager.sol\":298:337  mapping(uint256 => Staff) public staffs */\n    tag_4:\n      tag_16\n      tag_17\n      calldatasize\n      0x04\n      tag_18\n      jump\t// in\n    tag_17:\n      tag_19\n      jump\t// in\n    tag_16:\n      mload(0x40)\n      tag_14\n      swap7\n      swap6\n      swap5\n      swap4\n      swap3\n      swap2\n      swap1\n      tag_21\n      jump\t// in\n        /* \"contracts/manager/StaffManager.sol\":640:1006  function addStaff(... */\n    tag_5:\n      tag_22\n      tag_23\n      calldatasize\n      0x04\n      tag_24\n      jump\t// in\n    tag_23:\n      tag_25\n      jump\t// in\n    tag_22:\n      stop\n        /* \"contracts/manager/StaffManager.sol\":1176:1587  function updateStaffInfo(... */\n    tag_6:\n      tag_22\n      tag_27\n      calldatasize\n      0x04\n      tag_24\n      jump\t// in\n    tag_27:\n      tag_28\n      jump\t// in\n        /* \"contracts/manager/StaffManager.sol\":1909:2295  function updateRatingStaff(... */\n    tag_7:\n      tag_22\n      tag_30\n      calldatasize\n      0x04\n      tag_31\n      jump\t// in\n    tag_30:\n      tag_32\n      jump\t// in\n        /* \"contracts/manager/StaffManager.sol\":1012:1170  function getStaff(uint256 _staffId)... */\n    tag_8:\n      tag_33\n      tag_34\n      calldatasize\n      0x04\n      tag_18\n      jump\t// in\n    tag_34:\n      tag_35\n      jump\t// in\n    tag_33:\n      mload(0x40)\n      tag_14\n      swap2\n      swap1\n      tag_37\n      jump\t// in\n        /* \"contracts/manager/StaffManager.sol\":225:258  IOrderManager public orderManager */\n    tag_9:\n      sload(0x00)\n      tag_12\n      swap1\n      sub(shl(0xa0, 0x01), 0x01)\n      and\n      dup2\n      jump\n        /* \"contracts/manager/StaffManager.sol\":1593:1903  function addStaffToOrder(uint256 _orderId, uint256 _staffId)... */\n    tag_10:\n      tag_22\n      tag_43\n      calldatasize\n      0x04\n      tag_44\n      jump\t// in\n    tag_43:\n      tag_45\n      jump\t// in\n        /* \"contracts/manager/StaffManager.sol\":298:337  mapping(uint256 => Staff) public staffs */\n    tag_19:\n      mstore(0x20, 0x02)\n      0x00\n      swap1\n      dup2\n      mstore\n      0x40\n      swap1\n      keccak256\n      dup1\n      sload\n      0x01\n      dup3\n      add\n      dup1\n      sload\n      swap2\n      swap3\n      swap2\n      tag_46\n      swap1\n      tag_47\n      jump\t// in\n    tag_46:\n      dup1\n      0x1f\n      add\n      0x20\n      dup1\n      swap2\n      div\n      mul\n      0x20\n      add\n      mload(0x40)\n      swap1\n      dup2\n      add\n      0x40\n      mstore\n      dup1\n      swap3\n      swap2\n      swap1\n      dup2\n      dup2\n      mstore\n      0x20\n      add\n      dup3\n      dup1\n      sload\n      tag_48\n      swap1\n      tag_47\n      jump\t// in\n    tag_48:\n      dup1\n      iszero\n      tag_49\n      jumpi\n      dup1\n      0x1f\n      lt\n      tag_50\n      jumpi\n      0x0100\n      dup1\n      dup4\n      sload\n      div\n      mul\n      dup4\n      mstore\n      swap2\n      0x20\n      add\n      swap2\n      jump(tag_49)\n    tag_50:\n      dup3\n      add\n      swap2\n      swap1\n      0x00\n      mstore\n      keccak256(0x00, 0x20)\n      swap1\n    tag_51:\n      dup2\n      sload\n      dup2\n      mstore\n      swap1\n      0x01\n      add\n      swap1\n      0x20\n      add\n      dup1\n      dup4\n      gt\n      tag_51\n      jumpi\n      dup3\n      swap1\n      sub\n      0x1f\n      and\n      dup3\n      add\n      swap2\n    tag_49:\n      pop\n      pop\n      pop\n      pop\n      pop\n      swap1\n      dup1\n      0x02\n      add\n      dup1\n      sload\n      tag_52\n      swap1\n      tag_47\n      jump\t// in\n    tag_52:\n      dup1\n      0x1f\n      add\n      0x20\n      dup1\n      swap2\n      div\n      mul\n      0x20\n      add\n      mload(0x40)\n      swap1\n      dup2\n      add\n      0x40\n      mstore\n      dup1\n      swap3\n      swap2\n      swap1\n      dup2\n      dup2\n      mstore\n      0x20\n      add\n      dup3\n      dup1\n      sload\n      tag_53\n      swap1\n      tag_47\n      jump\t// in\n    tag_53:\n      dup1\n      iszero\n      tag_54\n      jumpi\n      dup1\n      0x1f\n      lt\n      tag_55\n      jumpi\n      0x0100\n      dup1\n      dup4\n      sload\n      div\n      mul\n      dup4\n      mstore\n      swap2\n      0x20\n      add\n      swap2\n      jump(tag_54)\n    tag_55:\n      dup3\n      add\n      swap2\n      swap1\n      0x00\n      mstore\n      keccak256(0x00, 0x20)\n      swap1\n    tag_56:\n      dup2\n      sload\n      dup2\n      mstore\n      swap1\n      0x01\n      add\n      swap1\n      0x20\n      add\n      dup1\n      dup4\n      gt\n      tag_56\n      jumpi\n      dup3\n      swap1\n      sub\n      0x1f\n      and\n      dup3\n      add\n      swap2\n    tag_54:\n      pop\n      pop\n      pop\n      pop\n      pop\n      swap1\n      dup1\n      0x03\n      add\n      dup1\n      sload\n      tag_57\n      swap1\n      tag_47\n      jump\t// in\n    tag_57:\n      dup1\n      0x1f\n      add\n      0x20\n      dup1\n      swap2\n      div\n      mul\n      0x20\n      add\n      mload(0x40)\n      swap1\n      dup2\n      add\n      0x40\n      mstore\n      dup1\n      swap3\n      swap2\n      swap1\n      dup2\n      dup2\n      mstore\n      0x20\n      add\n      dup3\n      dup1\n      sload\n      tag_58\n      swap1\n      tag_47\n      jump\t// in\n    tag_58:\n      dup1\n      iszero\n      tag_59\n      jumpi\n      dup1\n      0x1f\n      lt\n      tag_60\n      jumpi\n      0x0100\n      dup1\n      dup4\n      sload\n      div\n      mul\n      dup4\n      mstore\n      swap2\n      0x20\n      add\n      swap2\n      jump(tag_59)\n    tag_60:\n      dup3\n      add\n      swap2\n      swap1\n      0x00\n      mstore\n      keccak256(0x00, 0x20)\n      swap1\n    tag_61:\n      dup2\n      sload\n      dup2\n      mstore\n      swap1\n      0x01\n      add\n      swap1\n      0x20\n      add\n      dup1\n      dup4\n      gt\n      tag_61\n      jumpi\n      dup3\n      swap1\n      sub\n      0x1f\n      and\n      dup3\n      add\n      swap2\n    tag_59:\n      pop\n      pop\n      pop\n      pop\n      pop\n      swap1\n      dup1\n      0x04\n      add\n      sload\n      swap1\n      dup1\n      0x05\n      add\n      sload\n      swap1\n      pop\n      dup7\n      jump\t// out\n        /* \"contracts/manager/StaffManager.sol\":640:1006  function addStaff(... */\n    tag_25:\n        /* \"contracts/manager/StaffManager.sol\":565:575  roleAccess */\n      sload(0x01)\n        /* \"contracts/manager/StaffManager.sol\":565:594  roleAccess.isAdmin(tx.origin) */\n      mload(0x40)\n      shl(0xe2, 0x0935e01b)\n      dup2\n      mstore\n        /* \"contracts/manager/StaffManager.sol\":584:593  tx.origin */\n      origin\n        /* \"contracts/manager/StaffManager.sol\":565:594  roleAccess.isAdmin(tx.origin) */\n      0x04\n      dup3\n      add\n        /* \"#utility.yul\":177:228   */\n      mstore\n      sub(shl(0xa0, 0x01), 0x01)\n        /* \"contracts/manager/StaffManager.sol\":565:575  roleAccess */\n      swap1\n      swap2\n      and\n      swap1\n        /* \"contracts/manager/StaffManager.sol\":565:583  roleAccess.isAdmin */\n      0x24d7806c\n      swap1\n        /* \"#utility.yul\":150:168   */\n      0x24\n      add\n        /* \"contracts/manager/StaffManager.sol\":565:594  roleAccess.isAdmin(tx.origin) */\n      0x20\n      mload(0x40)\n      dup1\n      dup4\n      sub\n      dup2\n      dup7\n      gas\n      staticcall\n      iszero\n      dup1\n      iszero\n      tag_66\n      jumpi\n      returndatacopy(0x00, 0x00, returndatasize)\n      revert(0x00, returndatasize)\n    tag_66:\n      pop\n      pop\n      pop\n      pop\n      mload(0x40)\n      returndatasize\n      not(0x1f)\n      0x1f\n      dup3\n      add\n      and\n      dup3\n      add\n      dup1\n      0x40\n      mstore\n      pop\n      dup2\n      add\n      swap1\n      tag_67\n      swap2\n      swap1\n      tag_68\n      jump\t// in\n    tag_67:\n        /* \"contracts/manager/StaffManager.sol\":557:616  require(roleAccess.isAdmin(tx.origin), \"You are not admin\") */\n      tag_69\n      jumpi\n      mload(0x40)\n      shl(0xe5, 0x461bcd)\n      dup2\n      mstore\n      0x04\n      add\n      tag_70\n      swap1\n      tag_71\n      jump\t// in\n    tag_70:\n      mload(0x40)\n      dup1\n      swap2\n      sub\n      swap1\n      revert\n    tag_69:\n        /* \"contracts/manager/StaffManager.sol\":829:845  staffs[_staffId] */\n      0x00\n      dup8\n      dup2\n      mstore\n        /* \"contracts/manager/StaffManager.sol\":829:835  staffs */\n      0x02\n        /* \"contracts/manager/StaffManager.sol\":829:845  staffs[_staffId] */\n      0x20\n      mstore\n      0x40\n      swap1\n      keccak256\n        /* \"contracts/manager/StaffManager.sol\":829:853  staffs[_staffId].staffId */\n      sload\n        /* \"contracts/manager/StaffManager.sol\":829:858  staffs[_staffId].staffId == 0 */\n      iszero\n        /* \"contracts/manager/StaffManager.sol\":821:886  require(staffs[_staffId].staffId == 0, \"Staff ID already exists\") */\n      tag_73\n      jumpi\n      mload(0x40)\n      shl(0xe5, 0x461bcd)\n      dup2\n      mstore\n        /* \"#utility.yul\":6431:6433   */\n      0x20\n        /* \"contracts/manager/StaffManager.sol\":821:886  require(staffs[_staffId].staffId == 0, \"Staff ID already exists\") */\n      0x04\n      dup3\n      add\n        /* \"#utility.yul\":6413:6434   */\n      mstore\n        /* \"#utility.yul\":6470:6472   */\n      0x17\n        /* \"#utility.yul\":6450:6468   */\n      0x24\n      dup3\n      add\n        /* \"#utility.yul\":6443:6473   */\n      mstore\n        /* \"#utility.yul\":6509:6534   */\n      0x537461666620494420616c726561647920657869737473000000000000000000\n        /* \"#utility.yul\":6489:6507   */\n      0x44\n      dup3\n      add\n        /* \"#utility.yul\":6482:6535   */\n      mstore\n        /* \"#utility.yul\":6552:6570   */\n      0x64\n      add\n        /* \"contracts/manager/StaffManager.sol\":821:886  require(staffs[_staffId].staffId == 0, \"Staff ID already exists\") */\n      tag_70\n        /* \"#utility.yul\":6229:6576   */\n      jump\n        /* \"contracts/manager/StaffManager.sol\":821:886  require(staffs[_staffId].staffId == 0, \"Staff ID already exists\") */\n    tag_73:\n        /* \"contracts/manager/StaffManager.sol\":915:957  Staff(_staffId, _name, _dob, _phone, 0, 0) */\n      mload(0x40)\n      dup1\n      0xc0\n      add\n      0x40\n      mstore\n      dup1\n        /* \"contracts/manager/StaffManager.sol\":921:929  _staffId */\n      dup9\n        /* \"contracts/manager/StaffManager.sol\":915:957  Staff(_staffId, _name, _dob, _phone, 0, 0) */\n      dup2\n      mstore\n      0x20\n      add\n        /* \"contracts/manager/StaffManager.sol\":931:936  _name */\n      dup8\n      dup8\n        /* \"contracts/manager/StaffManager.sol\":915:957  Staff(_staffId, _name, _dob, _phone, 0, 0) */\n      dup1\n      dup1\n      0x1f\n      add\n      0x20\n      dup1\n      swap2\n      div\n      mul\n      0x20\n      add\n      mload(0x40)\n      swap1\n      dup2\n      add\n      0x40\n      mstore\n      dup1\n      swap4\n      swap3\n      swap2\n      swap1\n      dup2\n      dup2\n      mstore\n      0x20\n      add\n      dup4\n      dup4\n      dup1\n      dup3\n      dup5\n      calldatacopy\n      0x00\n      swap3\n      add\n      swap2\n      swap1\n      swap2\n      mstore\n      pop\n      pop\n      pop\n      swap1\n      dup3\n      mstore\n      pop\n      0x40\n      dup1\n      mload\n      0x20\n      0x1f\n      dup9\n      add\n      dup2\n      swap1\n      div\n      dup2\n      mul\n      dup3\n      add\n      dup2\n      add\n      swap1\n      swap3\n      mstore\n      dup7\n      dup2\n      mstore\n      swap2\n      dup2\n      add\n      swap2\n      swap1\n        /* \"contracts/manager/StaffManager.sol\":938:942  _dob */\n      dup8\n      swap1\n      dup8\n      swap1\n      dup2\n      swap1\n        /* \"contracts/manager/StaffManager.sol\":915:957  Staff(_staffId, _name, _dob, _phone, 0, 0) */\n      dup5\n      add\n        /* \"contracts/manager/StaffManager.sol\":938:942  _dob */\n      dup4\n      dup3\n      dup1\n      dup3\n        /* \"contracts/manager/StaffManager.sol\":915:957  Staff(_staffId, _name, _dob, _phone, 0, 0) */\n      dup5\n      calldatacopy\n      0x00\n      swap3\n      add\n      swap2\n      swap1\n      swap2\n      mstore\n      pop\n      pop\n      pop\n      swap1\n      dup3\n      mstore\n      pop\n      0x40\n      dup1\n      mload\n      0x20\n      0x1f\n      dup7\n      add\n      dup2\n      swap1\n      div\n      dup2\n      mul\n      dup3\n      add\n      dup2\n      add\n      swap1\n      swap3\n      mstore\n      dup5\n      dup2\n      mstore\n      swap2\n      dup2\n      add\n      swap2\n      swap1\n        /* \"contracts/manager/StaffManager.sol\":944:950  _phone */\n      dup6\n      swap1\n      dup6\n      swap1\n      dup2\n      swap1\n        /* \"contracts/manager/StaffManager.sol\":915:957  Staff(_staffId, _name, _dob, _phone, 0, 0) */\n      dup5\n      add\n        /* \"contracts/manager/StaffManager.sol\":944:950  _phone */\n      dup4\n      dup3\n      dup1\n      dup3\n        /* \"contracts/manager/StaffManager.sol\":915:957  Staff(_staffId, _name, _dob, _phone, 0, 0) */\n      dup5\n      calldatacopy\n      0x00\n      swap3\n      add\n      dup3\n      swap1\n      mstore\n      pop\n      swap4\n      dup6\n      mstore\n      pop\n      pop\n      pop\n      0x20\n      dup1\n      dup4\n      add\n      dup3\n      swap1\n      mstore\n      0x40\n      swap3\n      dup4\n      add\n      dup3\n      swap1\n      mstore\n        /* \"contracts/manager/StaffManager.sol\":896:912  staffs[_staffId] */\n      dup11\n      dup3\n      mstore\n        /* \"contracts/manager/StaffManager.sol\":896:902  staffs */\n      0x02\n        /* \"contracts/manager/StaffManager.sol\":896:912  staffs[_staffId] */\n      dup2\n      mstore\n      swap2\n      swap1\n      keccak256\n        /* \"contracts/manager/StaffManager.sol\":896:957  staffs[_staffId] = Staff(_staffId, _name, _dob, _phone, 0, 0) */\n      dup3\n      mload\n      dup2\n      sstore\n      swap1\n      dup3\n      add\n      mload\n      0x01\n      dup3\n      add\n      swap1\n      tag_76\n      swap1\n      dup3\n      tag_77\n      jump\t// in\n    tag_76:\n      pop\n      0x40\n      dup3\n      add\n      mload\n      0x02\n      dup3\n      add\n      swap1\n      tag_78\n      swap1\n      dup3\n      tag_77\n      jump\t// in\n    tag_78:\n      pop\n      0x60\n      dup3\n      add\n      mload\n      0x03\n      dup3\n      add\n      swap1\n      tag_79\n      swap1\n      dup3\n      tag_77\n      jump\t// in\n    tag_79:\n      pop\n      0x80\n      dup3\n      add\n      mload\n      dup2\n      0x04\n      add\n      sstore\n      0xa0\n      dup3\n      add\n      mload\n      dup2\n      0x05\n      add\n      sstore\n      swap1\n      pop\n      pop\n        /* \"contracts/manager/StaffManager.sol\":983:991  _staffId */\n      dup7\n        /* \"contracts/manager/StaffManager.sol\":972:999  StaffAdded(_staffId, _name) */\n      0xb9918942a2a29d1164ea11d03222c9a01a970e1d37797e67a114dd2c6196dac2\n        /* \"contracts/manager/StaffManager.sol\":993:998  _name */\n      dup8\n      dup8\n        /* \"contracts/manager/StaffManager.sol\":972:999  StaffAdded(_staffId, _name) */\n      mload(0x40)\n      tag_80\n      swap3\n      swap2\n      swap1\n      tag_81\n      jump\t// in\n    tag_80:\n      mload(0x40)\n      dup1\n      swap2\n      sub\n      swap1\n      log2\n        /* \"contracts/manager/StaffManager.sol\":640:1006  function addStaff(... */\n      pop\n      pop\n      pop\n      pop\n      pop\n      pop\n      pop\n      jump\t// out\n        /* \"contracts/manager/StaffManager.sol\":1176:1587  function updateStaffInfo(... */\n    tag_28:\n        /* \"contracts/manager/StaffManager.sol\":1362:1378  staffs[_staffId] */\n      0x00\n      dup8\n      dup2\n      mstore\n        /* \"contracts/manager/StaffManager.sol\":1362:1368  staffs */\n      0x02\n        /* \"contracts/manager/StaffManager.sol\":1362:1378  staffs[_staffId] */\n      0x20\n      mstore\n      0x40\n      dup2\n      keccak256\n        /* \"contracts/manager/StaffManager.sol\":1362:1386  staffs[_staffId].staffId */\n      sload\n        /* \"contracts/manager/StaffManager.sol\":1362:1391  staffs[_staffId].staffId != 0 */\n      swap1\n      sub\n        /* \"contracts/manager/StaffManager.sol\":1354:1419  require(staffs[_staffId].staffId != 0, \"Staff ID does not exist\") */\n      tag_83\n      jumpi\n      mload(0x40)\n      shl(0xe5, 0x461bcd)\n      dup2\n      mstore\n        /* \"#utility.yul\":9434:9436   */\n      0x20\n        /* \"contracts/manager/StaffManager.sol\":1354:1419  require(staffs[_staffId].staffId != 0, \"Staff ID does not exist\") */\n      0x04\n      dup3\n      add\n        /* \"#utility.yul\":9416:9437   */\n      mstore\n        /* \"#utility.yul\":9473:9475   */\n      0x17\n        /* \"#utility.yul\":9453:9471   */\n      0x24\n      dup3\n      add\n        /* \"#utility.yul\":9446:9476   */\n      mstore\n      shl(0x4a, 0x14dd18599988125108191bd95cc81b9bdd08195e1a5cdd)\n        /* \"#utility.yul\":9492:9510   */\n      0x44\n      dup3\n      add\n        /* \"#utility.yul\":9485:9538   */\n      mstore\n        /* \"#utility.yul\":9555:9573   */\n      0x64\n      add\n        /* \"contracts/manager/StaffManager.sol\":1354:1419  require(staffs[_staffId].staffId != 0, \"Staff ID does not exist\") */\n      tag_70\n        /* \"#utility.yul\":9232:9579   */\n      jump\n        /* \"contracts/manager/StaffManager.sol\":1354:1419  require(staffs[_staffId].staffId != 0, \"Staff ID does not exist\") */\n    tag_83:\n        /* \"contracts/manager/StaffManager.sol\":1429:1445  staffs[_staffId] */\n      0x00\n      dup8\n      dup2\n      mstore\n        /* \"contracts/manager/StaffManager.sol\":1429:1435  staffs */\n      0x02\n        /* \"contracts/manager/StaffManager.sol\":1429:1445  staffs[_staffId] */\n      0x20\n      mstore\n      0x40\n      swap1\n      keccak256\n        /* \"contracts/manager/StaffManager.sol\":1429:1450  staffs[_staffId].name */\n      0x01\n      add\n        /* \"contracts/manager/StaffManager.sol\":1429:1458  staffs[_staffId].name = _name */\n      tag_86\n        /* \"contracts/manager/StaffManager.sol\":1453:1458  _name */\n      dup7\n      dup9\n        /* \"contracts/manager/StaffManager.sol\":1429:1450  staffs[_staffId].name */\n      dup4\n        /* \"contracts/manager/StaffManager.sol\":1429:1458  staffs[_staffId].name = _name */\n      tag_87\n      jump\t// in\n    tag_86:\n      pop\n        /* \"contracts/manager/StaffManager.sol\":1468:1484  staffs[_staffId] */\n      0x00\n      dup8\n      dup2\n      mstore\n        /* \"contracts/manager/StaffManager.sol\":1468:1474  staffs */\n      0x02\n        /* \"contracts/manager/StaffManager.sol\":1468:1484  staffs[_staffId] */\n      0x20\n      dup2\n      swap1\n      mstore\n      0x40\n      swap1\n      swap2\n      keccak256\n        /* \"contracts/manager/StaffManager.sol\":1468:1488  staffs[_staffId].dob */\n      add\n        /* \"contracts/manager/StaffManager.sol\":1468:1495  staffs[_staffId].dob = _dob */\n      tag_88\n        /* \"contracts/manager/StaffManager.sol\":1491:1495  _dob */\n      dup5\n      dup7\n        /* \"contracts/manager/StaffManager.sol\":1468:1488  staffs[_staffId].dob */\n      dup4\n        /* \"contracts/manager/StaffManager.sol\":1468:1495  staffs[_staffId].dob = _dob */\n      tag_87\n      jump\t// in\n    tag_88:\n      pop\n        /* \"contracts/manager/StaffManager.sol\":1505:1521  staffs[_staffId] */\n      0x00\n      dup8\n      dup2\n      mstore\n        /* \"contracts/manager/StaffManager.sol\":1505:1511  staffs */\n      0x02\n        /* \"contracts/manager/StaffManager.sol\":1505:1521  staffs[_staffId] */\n      0x20\n      mstore\n      0x40\n      swap1\n      keccak256\n        /* \"contracts/manager/StaffManager.sol\":1505:1527  staffs[_staffId].phone */\n      0x03\n      add\n        /* \"contracts/manager/StaffManager.sol\":1505:1536  staffs[_staffId].phone = _phone */\n      tag_89\n        /* \"contracts/manager/StaffManager.sol\":1530:1536  _phone */\n      dup3\n      dup5\n        /* \"contracts/manager/StaffManager.sol\":1505:1527  staffs[_staffId].phone */\n      dup4\n        /* \"contracts/manager/StaffManager.sol\":1505:1536  staffs[_staffId].phone = _phone */\n      tag_87\n      jump\t// in\n    tag_89:\n      pop\n        /* \"contracts/manager/StaffManager.sol\":1564:1572  _staffId */\n      dup7\n        /* \"contracts/manager/StaffManager.sol\":1551:1580  StaffUpdated(_staffId, _name) */\n      0x27556b62664053de7a418476f2c4abc9b526d3c747991948d328082493d82c0e\n        /* \"contracts/manager/StaffManager.sol\":1574:1579  _name */\n      dup8\n      dup8\n        /* \"contracts/manager/StaffManager.sol\":1551:1580  StaffUpdated(_staffId, _name) */\n      mload(0x40)\n      tag_80\n      swap3\n      swap2\n      swap1\n      tag_81\n      jump\t// in\n        /* \"contracts/manager/StaffManager.sol\":1909:2295  function updateRatingStaff(... */\n    tag_32:\n        /* \"contracts/manager/StaffManager.sol\":565:575  roleAccess */\n      sload(0x01)\n        /* \"contracts/manager/StaffManager.sol\":565:594  roleAccess.isAdmin(tx.origin) */\n      mload(0x40)\n      shl(0xe2, 0x0935e01b)\n      dup2\n      mstore\n        /* \"contracts/manager/StaffManager.sol\":584:593  tx.origin */\n      origin\n        /* \"contracts/manager/StaffManager.sol\":565:594  roleAccess.isAdmin(tx.origin) */\n      0x04\n      dup3\n      add\n        /* \"#utility.yul\":177:228   */\n      mstore\n      sub(shl(0xa0, 0x01), 0x01)\n        /* \"contracts/manager/StaffManager.sol\":565:575  roleAccess */\n      swap1\n      swap2\n      and\n      swap1\n        /* \"contracts/manager/StaffManager.sol\":565:583  roleAccess.isAdmin */\n      0x24d7806c\n      swap1\n        /* \"#utility.yul\":150:168   */\n      0x24\n      add\n        /* \"contracts/manager/StaffManager.sol\":565:594  roleAccess.isAdmin(tx.origin) */\n      0x20\n      mload(0x40)\n      dup1\n      dup4\n      sub\n      dup2\n      dup7\n      gas\n      staticcall\n      iszero\n      dup1\n      iszero\n      tag_94\n      jumpi\n      returndatacopy(0x00, 0x00, returndatasize)\n      revert(0x00, returndatasize)\n    tag_94:\n      pop\n      pop\n      pop\n      pop\n      mload(0x40)\n      returndatasize\n      not(0x1f)\n      0x1f\n      dup3\n      add\n      and\n      dup3\n      add\n      dup1\n      0x40\n      mstore\n      pop\n      dup2\n      add\n      swap1\n      tag_95\n      swap2\n      swap1\n      tag_68\n      jump\t// in\n    tag_95:\n        /* \"contracts/manager/StaffManager.sol\":557:616  require(roleAccess.isAdmin(tx.origin), \"You are not admin\") */\n      tag_96\n      jumpi\n      mload(0x40)\n      shl(0xe5, 0x461bcd)\n      dup2\n      mstore\n      0x04\n      add\n      tag_70\n      swap1\n      tag_71\n      jump\t// in\n    tag_96:\n        /* \"contracts/manager/StaffManager.sol\":2063:2079  staffs[_staffId] */\n      0x00\n      dup4\n      dup2\n      mstore\n        /* \"contracts/manager/StaffManager.sol\":2063:2069  staffs */\n      0x02\n        /* \"contracts/manager/StaffManager.sol\":2063:2079  staffs[_staffId] */\n      0x20\n      mstore\n      0x40\n      dup2\n      keccak256\n        /* \"contracts/manager/StaffManager.sol\":2063:2087  staffs[_staffId].staffId */\n      sload\n        /* \"contracts/manager/StaffManager.sol\":2063:2092  staffs[_staffId].staffId != 0 */\n      swap1\n      sub\n        /* \"contracts/manager/StaffManager.sol\":2055:2117  require(staffs[_staffId].staffId != 0, \"Staff does not exist\") */\n      tag_99\n      jumpi\n      mload(0x40)\n      shl(0xe5, 0x461bcd)\n      dup2\n      mstore\n        /* \"#utility.yul\":10989:10991   */\n      0x20\n        /* \"contracts/manager/StaffManager.sol\":2055:2117  require(staffs[_staffId].staffId != 0, \"Staff does not exist\") */\n      0x04\n      dup3\n      add\n        /* \"#utility.yul\":10971:10992   */\n      mstore\n        /* \"#utility.yul\":11028:11030   */\n      0x14\n        /* \"#utility.yul\":11008:11026   */\n      0x24\n      dup3\n      add\n        /* \"#utility.yul\":11001:11031   */\n      mstore\n      shl(0x62, 0x14dd18599988191bd95cc81b9bdd08195e1a5cdd)\n        /* \"#utility.yul\":11047:11065   */\n      0x44\n      dup3\n      add\n        /* \"#utility.yul\":11040:11090   */\n      mstore\n        /* \"#utility.yul\":11107:11125   */\n      0x64\n      add\n        /* \"contracts/manager/StaffManager.sol\":2055:2117  require(staffs[_staffId].staffId != 0, \"Staff does not exist\") */\n      tag_70\n        /* \"#utility.yul\":10787:11131   */\n      jump\n        /* \"contracts/manager/StaffManager.sol\":2055:2117  require(staffs[_staffId].staffId != 0, \"Staff does not exist\") */\n    tag_99:\n        /* \"contracts/manager/StaffManager.sol\":2127:2143  staffs[_staffId] */\n      0x00\n      dup4\n      dup2\n      mstore\n        /* \"contracts/manager/StaffManager.sol\":2127:2133  staffs */\n      0x02\n        /* \"contracts/manager/StaffManager.sol\":2127:2143  staffs[_staffId] */\n      0x20\n      swap1\n      dup2\n      mstore\n      0x40\n      swap2\n      dup3\n      swap1\n      keccak256\n        /* \"contracts/manager/StaffManager.sol\":2127:2153  staffs[_staffId].sumRating */\n      0x04\n      dup2\n      add\n        /* \"contracts/manager/StaffManager.sol\":2127:2166  staffs[_staffId].sumRating = _sumRating */\n      dup6\n      swap1\n      sstore\n        /* \"contracts/manager/StaffManager.sol\":2176:2204  staffs[_staffId].countRating */\n      0x05\n      add\n        /* \"contracts/manager/StaffManager.sol\":2176:2219  staffs[_staffId].countRating = _countRating */\n      dup4\n      swap1\n      sstore\n        /* \"contracts/manager/StaffManager.sol\":2234:2288  StaffRatingUpdated(_staffId, _sumRating, _countRating) */\n      dup2\n      mload\n        /* \"#utility.yul\":11338:11363   */\n      dup6\n      dup2\n      mstore\n        /* \"#utility.yul\":11379:11397   */\n      swap1\n      dup2\n      add\n        /* \"#utility.yul\":11372:11406   */\n      dup5\n      swap1\n      mstore\n        /* \"#utility.yul\":11422:11440   */\n      swap1\n      dup2\n      add\n        /* \"#utility.yul\":11415:11449   */\n      dup3\n      swap1\n      mstore\n        /* \"contracts/manager/StaffManager.sol\":2234:2288  StaffRatingUpdated(_staffId, _sumRating, _countRating) */\n      0x9e2a40167f414f24ed49cbf67801d7ca9206eea4d409f6734bed8f92b0c9f2da\n      swap1\n        /* \"#utility.yul\":11326:11328   */\n      0x60\n        /* \"#utility.yul\":11311:11329   */\n      add\n        /* \"contracts/manager/StaffManager.sol\":2234:2288  StaffRatingUpdated(_staffId, _sumRating, _countRating) */\n      mload(0x40)\n      dup1\n      swap2\n      sub\n      swap1\n      log1\n        /* \"contracts/manager/StaffManager.sol\":1909:2295  function updateRatingStaff(... */\n      pop\n      pop\n      pop\n      jump\t// out\n        /* \"contracts/manager/StaffManager.sol\":1012:1170  function getStaff(uint256 _staffId)... */\n    tag_35:\n        /* \"contracts/manager/StaffManager.sol\":1112:1124  Staff memory */\n      tag_104\n      mload(0x40)\n      dup1\n      0xc0\n      add\n      0x40\n      mstore\n      dup1\n      0x00\n      dup2\n      mstore\n      0x20\n      add\n      0x60\n      dup2\n      mstore\n      0x20\n      add\n      0x60\n      dup2\n      mstore\n      0x20\n      add\n      0x60\n      dup2\n      mstore\n      0x20\n      add\n      0x00\n      dup2\n      mstore\n      0x20\n      add\n      0x00\n      dup2\n      mstore\n      pop\n      swap1\n      jump\n    tag_104:\n        /* \"contracts/manager/StaffManager.sol\":1147:1153  staffs */\n      0x02\n        /* \"contracts/manager/StaffManager.sol\":1147:1163  staffs[_staffId] */\n      0x00\n        /* \"contracts/manager/StaffManager.sol\":1154:1162  _staffId */\n      dup4\n        /* \"contracts/manager/StaffManager.sol\":1147:1163  staffs[_staffId] */\n      dup2\n      mstore\n      0x20\n      add\n      swap1\n      dup2\n      mstore\n      0x20\n      add\n      0x00\n      keccak256\n        /* \"contracts/manager/StaffManager.sol\":1140:1163  return staffs[_staffId] */\n      mload(0x40)\n      dup1\n      0xc0\n      add\n      0x40\n      mstore\n      swap1\n      dup2\n      0x00\n      dup3\n      add\n      sload\n      dup2\n      mstore\n      0x20\n      add\n      0x01\n      dup3\n      add\n      dup1\n      sload\n      tag_107\n      swap1\n      tag_47\n      jump\t// in\n    tag_107:\n      dup1\n      0x1f\n      add\n      0x20\n      dup1\n      swap2\n      div\n      mul\n      0x20\n      add\n      mload(0x40)\n      swap1\n      dup2\n      add\n      0x40\n      mstore\n      dup1\n      swap3\n      swap2\n      swap1\n      dup2\n      dup2\n      mstore\n      0x20\n      add\n      dup3\n      dup1\n      sload\n      tag_108\n      swap1\n      tag_47\n      jump\t// in\n    tag_108:\n      dup1\n      iszero\n      tag_109\n      jumpi\n      dup1\n      0x1f\n      lt\n      tag_110\n      jumpi\n      0x0100\n      dup1\n      dup4\n      sload\n      div\n      mul\n      dup4\n      mstore\n      swap2\n      0x20\n      add\n      swap2\n      jump(tag_109)\n    tag_110:\n      dup3\n      add\n      swap2\n      swap1\n      0x00\n      mstore\n      keccak256(0x00, 0x20)\n      swap1\n    tag_111:\n      dup2\n      sload\n      dup2\n      mstore\n      swap1\n      0x01\n      add\n      swap1\n      0x20\n      add\n      dup1\n      dup4\n      gt\n      tag_111\n      jumpi\n      dup3\n      swap1\n      sub\n      0x1f\n      and\n      dup3\n      add\n      swap2\n    tag_109:\n      pop\n      pop\n      pop\n      pop\n      pop\n      dup2\n      mstore\n      0x20\n      add\n      0x02\n      dup3\n      add\n      dup1\n      sload\n      tag_112\n      swap1\n      tag_47\n      jump\t// in\n    tag_112:\n      dup1\n      0x1f\n      add\n      0x20\n      dup1\n      swap2\n      div\n      mul\n      0x20\n      add\n      mload(0x40)\n      swap1\n      dup2\n      add\n      0x40\n      mstore\n      dup1\n      swap3\n      swap2\n      swap1\n      dup2\n      dup2\n      mstore\n      0x20\n      add\n      dup3\n      dup1\n      sload\n      tag_113\n      swap1\n      tag_47\n      jump\t// in\n    tag_113:\n      dup1\n      iszero\n      tag_114\n      jumpi\n      dup1\n      0x1f\n      lt\n      tag_115\n      jumpi\n      0x0100\n      dup1\n      dup4\n      sload\n      div\n      mul\n      dup4\n      mstore\n      swap2\n      0x20\n      add\n      swap2\n      jump(tag_114)\n    tag_115:\n      dup3\n      add\n      swap2\n      swap1\n      0x00\n      mstore\n      keccak256(0x00, 0x20)\n      swap1\n    tag_116:\n      dup2\n      sload\n      dup2\n      mstore\n      swap1\n      0x01\n      add\n      swap1\n      0x20\n      add\n      dup1\n      dup4\n      gt\n      tag_116\n      jumpi\n      dup3\n      swap1\n      sub\n      0x1f\n      and\n      dup3\n      add\n      swap2\n    tag_114:\n      pop\n      pop\n      pop\n      pop\n      pop\n      dup2\n      mstore\n      0x20\n      add\n      0x03\n      dup3\n      add\n      dup1\n      sload\n      tag_117\n      swap1\n      tag_47\n      jump\t// in\n    tag_117:\n      dup1\n      0x1f\n      add\n      0x20\n      dup1\n      swap2\n      div\n      mul\n      0x20\n      add\n      mload(0x40)\n      swap1\n      dup2\n      add\n      0x40\n      mstore\n      dup1\n      swap3\n      swap2\n      swap1\n      dup2\n      dup2\n      mstore\n      0x20\n      add\n      dup3\n      dup1\n      sload\n      tag_118\n      swap1\n      tag_47\n      jump\t// in\n    tag_118:\n      dup1\n      iszero\n      tag_119\n      jumpi\n      dup1\n      0x1f\n      lt\n      tag_120\n      jumpi\n      0x0100\n      dup1\n      dup4\n      sload\n      div\n      mul\n      dup4\n      mstore\n      swap2\n      0x20\n      add\n      swap2\n      jump(tag_119)\n    tag_120:\n      dup3\n      add\n      swap2\n      swap1\n      0x00\n      mstore\n      keccak256(0x00, 0x20)\n      swap1\n    tag_121:\n      dup2\n      sload\n      dup2\n      mstore\n      swap1\n      0x01\n      add\n      swap1\n      0x20\n      add\n      dup1\n      dup4\n      gt\n      tag_121\n      jumpi\n      dup3\n      swap1\n      sub\n      0x1f\n      and\n      dup3\n      add\n      swap2\n    tag_119:\n      pop\n      pop\n      pop\n      pop\n      pop\n      dup2\n      mstore\n      0x20\n      add\n      0x04\n      dup3\n      add\n      sload\n      dup2\n      mstore\n      0x20\n      add\n      0x05\n      dup3\n      add\n      sload\n      dup2\n      mstore\n      pop\n      pop\n      swap1\n      pop\n        /* \"contracts/manager/StaffManager.sol\":1012:1170  function getStaff(uint256 _staffId)... */\n      swap2\n      swap1\n      pop\n      jump\t// out\n        /* \"contracts/manager/StaffManager.sol\":1593:1903  function addStaffToOrder(uint256 _orderId, uint256 _staffId)... */\n    tag_45:\n        /* \"contracts/manager/StaffManager.sol\":565:575  roleAccess */\n      sload(0x01)\n        /* \"contracts/manager/StaffManager.sol\":565:594  roleAccess.isAdmin(tx.origin) */\n      mload(0x40)\n      shl(0xe2, 0x0935e01b)\n      dup2\n      mstore\n        /* \"contracts/manager/StaffManager.sol\":584:593  tx.origin */\n      origin\n        /* \"contracts/manager/StaffManager.sol\":565:594  roleAccess.isAdmin(tx.origin) */\n      0x04\n      dup3\n      add\n        /* \"#utility.yul\":177:228   */\n      mstore\n      sub(shl(0xa0, 0x01), 0x01)\n        /* \"contracts/manager/StaffManager.sol\":565:575  roleAccess */\n      swap1\n      swap2\n      and\n      swap1\n        /* \"contracts/manager/StaffManager.sol\":565:583  roleAccess.isAdmin */\n      0x24d7806c\n      swap1\n        /* \"#utility.yul\":150:168   */\n      0x24\n      add\n        /* \"contracts/manager/StaffManager.sol\":565:594  roleAccess.isAdmin(tx.origin) */\n      0x20\n      mload(0x40)\n      dup1\n      dup4\n      sub\n      dup2\n      dup7\n      gas\n      staticcall\n      iszero\n      dup1\n      iszero\n      tag_125\n      jumpi\n      returndatacopy(0x00, 0x00, returndatasize)\n      revert(0x00, returndatasize)\n    tag_125:\n      pop\n      pop\n      pop\n      pop\n      mload(0x40)\n      returndatasize\n      not(0x1f)\n      0x1f\n      dup3\n      add\n      and\n      dup3\n      add\n      dup1\n      0x40\n      mstore\n      pop\n      dup2\n      add\n      swap1\n      tag_126\n      swap2\n      swap1\n      tag_68\n      jump\t// in\n    tag_126:\n        /* \"contracts/manager/StaffManager.sol\":557:616  require(roleAccess.isAdmin(tx.origin), \"You are not admin\") */\n      tag_127\n      jumpi\n      mload(0x40)\n      shl(0xe5, 0x461bcd)\n      dup2\n      mstore\n      0x04\n      add\n      tag_70\n      swap1\n      tag_71\n      jump\t// in\n    tag_127:\n        /* \"contracts/manager/StaffManager.sol\":1728:1744  staffs[_staffId] */\n      0x00\n      dup2\n      dup2\n      mstore\n        /* \"contracts/manager/StaffManager.sol\":1728:1734  staffs */\n      0x02\n        /* \"contracts/manager/StaffManager.sol\":1728:1744  staffs[_staffId] */\n      0x20\n      mstore\n      0x40\n      dup2\n      keccak256\n        /* \"contracts/manager/StaffManager.sol\":1728:1752  staffs[_staffId].staffId */\n      sload\n        /* \"contracts/manager/StaffManager.sol\":1728:1757  staffs[_staffId].staffId != 0 */\n      swap1\n      sub\n        /* \"contracts/manager/StaffManager.sol\":1720:1785  require(staffs[_staffId].staffId != 0, \"Staff ID does not exist\") */\n      tag_130\n      jumpi\n      mload(0x40)\n      shl(0xe5, 0x461bcd)\n      dup2\n      mstore\n        /* \"#utility.yul\":9434:9436   */\n      0x20\n        /* \"contracts/manager/StaffManager.sol\":1720:1785  require(staffs[_staffId].staffId != 0, \"Staff ID does not exist\") */\n      0x04\n      dup3\n      add\n        /* \"#utility.yul\":9416:9437   */\n      mstore\n        /* \"#utility.yul\":9473:9475   */\n      0x17\n        /* \"#utility.yul\":9453:9471   */\n      0x24\n      dup3\n      add\n        /* \"#utility.yul\":9446:9476   */\n      mstore\n      shl(0x4a, 0x14dd18599988125108191bd95cc81b9bdd08195e1a5cdd)\n        /* \"#utility.yul\":9492:9510   */\n      0x44\n      dup3\n      add\n        /* \"#utility.yul\":9485:9538   */\n      mstore\n        /* \"#utility.yul\":9555:9573   */\n      0x64\n      add\n        /* \"contracts/manager/StaffManager.sol\":1720:1785  require(staffs[_staffId].staffId != 0, \"Staff ID does not exist\") */\n      tag_70\n        /* \"#utility.yul\":9232:9579   */\n      jump\n        /* \"contracts/manager/StaffManager.sol\":1720:1785  require(staffs[_staffId].staffId != 0, \"Staff ID does not exist\") */\n    tag_130:\n        /* \"contracts/manager/StaffManager.sol\":1795:1807  orderManager */\n      sload(0x00)\n        /* \"contracts/manager/StaffManager.sol\":1795:1844  orderManager.addStaffForOrder(_orderId, _staffId) */\n      mload(0x40)\n      shl(0xe0, 0x3f9fb5fd)\n      dup2\n      mstore\n      0x04\n      dup2\n      add\n        /* \"#utility.yul\":11634:11659   */\n      dup5\n      swap1\n      mstore\n        /* \"#utility.yul\":11675:11693   */\n      0x24\n      dup2\n      add\n        /* \"#utility.yul\":11668:11702   */\n      dup4\n      swap1\n      mstore\n      sub(shl(0xa0, 0x01), 0x01)\n        /* \"contracts/manager/StaffManager.sol\":1795:1807  orderManager */\n      swap1\n      swap2\n      and\n      swap1\n        /* \"contracts/manager/StaffManager.sol\":1795:1824  orderManager.addStaffForOrder */\n      0x3f9fb5fd\n      swap1\n        /* \"#utility.yul\":11607:11625   */\n      0x44\n      add\n        /* \"contracts/manager/StaffManager.sol\":1795:1844  orderManager.addStaffForOrder(_orderId, _staffId) */\n      0x00\n      mload(0x40)\n      dup1\n      dup4\n      sub\n      dup2\n      0x00\n      dup8\n      dup1\n      extcodesize\n      iszero\n      dup1\n      iszero\n      tag_134\n      jumpi\n      revert(0x00, 0x00)\n    tag_134:\n      pop\n      gas\n      call\n      iszero\n      dup1\n      iszero\n      tag_136\n      jumpi\n      returndatacopy(0x00, 0x00, returndatasize)\n      revert(0x00, returndatasize)\n    tag_136:\n      pop\n      pop\n      pop\n      pop\n        /* \"contracts/manager/StaffManager.sol\":1877:1885  _staffId */\n      dup1\n        /* \"contracts/manager/StaffManager.sol\":1859:1896  StaffAddedToOrder(_staffId, _orderId) */\n      0x37fe5ba29264c8debd409a782c67744bf54751791ccf1197762b9819c10ab610\n        /* \"contracts/manager/StaffManager.sol\":1887:1895  _orderId */\n      dup4\n        /* \"contracts/manager/StaffManager.sol\":1859:1896  StaffAddedToOrder(_staffId, _orderId) */\n      mload(0x40)\n      tag_137\n      swap2\n        /* \"#utility.yul\":11859:11884   */\n      dup2\n      mstore\n        /* \"#utility.yul\":11847:11849   */\n      0x20\n        /* \"#utility.yul\":11832:11850   */\n      add\n      swap1\n        /* \"#utility.yul\":11713:11890   */\n      jump\n        /* \"contracts/manager/StaffManager.sol\":1859:1896  StaffAddedToOrder(_staffId, _orderId) */\n    tag_137:\n      mload(0x40)\n      dup1\n      swap2\n      sub\n      swap1\n      log2\n        /* \"contracts/manager/StaffManager.sol\":1593:1903  function addStaffToOrder(uint256 _orderId, uint256 _staffId)... */\n      pop\n      pop\n      jump\t// out\n        /* \"#utility.yul\":239:465   */\n    tag_18:\n        /* \"#utility.yul\":298:304   */\n      0x00\n        /* \"#utility.yul\":351:353   */\n      0x20\n        /* \"#utility.yul\":339:348   */\n      dup3\n        /* \"#utility.yul\":330:337   */\n      dup5\n        /* \"#utility.yul\":326:349   */\n      sub\n        /* \"#utility.yul\":322:354   */\n      slt\n        /* \"#utility.yul\":319:371   */\n      iszero\n      tag_148\n      jumpi\n        /* \"#utility.yul\":367:368   */\n      0x00\n        /* \"#utility.yul\":364:365   */\n      0x00\n        /* \"#utility.yul\":357:369   */\n      revert\n        /* \"#utility.yul\":319:371   */\n    tag_148:\n      pop\n        /* \"#utility.yul\":412:435   */\n      calldataload\n      swap2\n        /* \"#utility.yul\":239:465   */\n      swap1\n      pop\n      jump\t// out\n        /* \"#utility.yul\":470:759   */\n    tag_139:\n        /* \"#utility.yul\":512:515   */\n      0x00\n        /* \"#utility.yul\":550:555   */\n      dup2\n        /* \"#utility.yul\":544:556   */\n      mload\n        /* \"#utility.yul\":577:583   */\n      dup1\n        /* \"#utility.yul\":572:575   */\n      dup5\n        /* \"#utility.yul\":565:584   */\n      mstore\n        /* \"#utility.yul\":633:639   */\n      dup1\n        /* \"#utility.yul\":626:630   */\n      0x20\n        /* \"#utility.yul\":619:624   */\n      dup5\n        /* \"#utility.yul\":615:631   */\n      add\n        /* \"#utility.yul\":608:612   */\n      0x20\n        /* \"#utility.yul\":603:606   */\n      dup7\n        /* \"#utility.yul\":599:613   */\n      add\n        /* \"#utility.yul\":593:640   */\n      mcopy\n        /* \"#utility.yul\":685:686   */\n      0x00\n        /* \"#utility.yul\":678:682   */\n      0x20\n        /* \"#utility.yul\":669:675   */\n      dup3\n        /* \"#utility.yul\":664:667   */\n      dup7\n        /* \"#utility.yul\":660:676   */\n      add\n        /* \"#utility.yul\":656:683   */\n      add\n        /* \"#utility.yul\":649:687   */\n      mstore\n        /* \"#utility.yul\":748:752   */\n      0x20\n        /* \"#utility.yul\":741:743   */\n      0x1f\n        /* \"#utility.yul\":737:744   */\n      not\n        /* \"#utility.yul\":732:734   */\n      0x1f\n        /* \"#utility.yul\":724:730   */\n      dup4\n        /* \"#utility.yul\":720:735   */\n      add\n        /* \"#utility.yul\":716:745   */\n      and\n        /* \"#utility.yul\":711:714   */\n      dup6\n        /* \"#utility.yul\":707:746   */\n      add\n        /* \"#utility.yul\":703:753   */\n      add\n        /* \"#utility.yul\":696:753   */\n      swap2\n      pop\n      pop\n        /* \"#utility.yul\":470:759   */\n      swap3\n      swap2\n      pop\n      pop\n      jump\t// out\n        /* \"#utility.yul\":764:1527   */\n    tag_21:\n        /* \"#utility.yul\":1093:1099   */\n      dup7\n        /* \"#utility.yul\":1082:1091   */\n      dup2\n        /* \"#utility.yul\":1075:1100   */\n      mstore\n        /* \"#utility.yul\":1136:1139   */\n      0xc0\n        /* \"#utility.yul\":1131:1133   */\n      0x20\n        /* \"#utility.yul\":1120:1129   */\n      dup3\n        /* \"#utility.yul\":1116:1134   */\n      add\n        /* \"#utility.yul\":1109:1140   */\n      mstore\n        /* \"#utility.yul\":1056:1060   */\n      0x00\n        /* \"#utility.yul\":1163:1209   */\n      tag_151\n        /* \"#utility.yul\":1204:1207   */\n      0xc0\n        /* \"#utility.yul\":1193:1202   */\n      dup4\n        /* \"#utility.yul\":1189:1208   */\n      add\n        /* \"#utility.yul\":1181:1187   */\n      dup9\n        /* \"#utility.yul\":1163:1209   */\n      tag_139\n      jump\t// in\n    tag_151:\n        /* \"#utility.yul\":1257:1266   */\n      dup3\n        /* \"#utility.yul\":1249:1255   */\n      dup2\n        /* \"#utility.yul\":1245:1267   */\n      sub\n        /* \"#utility.yul\":1240:1242   */\n      0x40\n        /* \"#utility.yul\":1229:1238   */\n      dup5\n        /* \"#utility.yul\":1225:1243   */\n      add\n        /* \"#utility.yul\":1218:1268   */\n      mstore\n        /* \"#utility.yul\":1291:1324   */\n      tag_152\n        /* \"#utility.yul\":1317:1323   */\n      dup2\n        /* \"#utility.yul\":1309:1315   */\n      dup9\n        /* \"#utility.yul\":1291:1324   */\n      tag_139\n      jump\t// in\n    tag_152:\n        /* \"#utility.yul\":1277:1324   */\n      swap1\n      pop\n        /* \"#utility.yul\":1372:1381   */\n      dup3\n        /* \"#utility.yul\":1364:1370   */\n      dup2\n        /* \"#utility.yul\":1360:1382   */\n      sub\n        /* \"#utility.yul\":1355:1357   */\n      0x60\n        /* \"#utility.yul\":1344:1353   */\n      dup5\n        /* \"#utility.yul\":1340:1358   */\n      add\n        /* \"#utility.yul\":1333:1383   */\n      mstore\n        /* \"#utility.yul\":1400:1433   */\n      tag_153\n        /* \"#utility.yul\":1426:1432   */\n      dup2\n        /* \"#utility.yul\":1418:1424   */\n      dup8\n        /* \"#utility.yul\":1400:1433   */\n      tag_139\n      jump\t// in\n    tag_153:\n        /* \"#utility.yul\":1464:1467   */\n      0x80\n        /* \"#utility.yul\":1449:1468   */\n      dup5\n      add\n        /* \"#utility.yul\":1442:1477   */\n      swap6\n      swap1\n      swap6\n      mstore\n      pop\n      pop\n        /* \"#utility.yul\":1508:1511   */\n      0xa0\n        /* \"#utility.yul\":1493:1512   */\n      add\n        /* \"#utility.yul\":1486:1521   */\n      mstore\n        /* \"#utility.yul\":1392:1433   */\n      swap5\n        /* \"#utility.yul\":764:1527   */\n      swap4\n      pop\n      pop\n      pop\n      pop\n      jump\t// out\n        /* \"#utility.yul\":1532:1880   */\n    tag_140:\n        /* \"#utility.yul\":1584:1592   */\n      0x00\n        /* \"#utility.yul\":1594:1600   */\n      0x00\n        /* \"#utility.yul\":1648:1651   */\n      dup4\n        /* \"#utility.yul\":1641:1645   */\n      0x1f\n        /* \"#utility.yul\":1633:1639   */\n      dup5\n        /* \"#utility.yul\":1629:1646   */\n      add\n        /* \"#utility.yul\":1625:1652   */\n      slt\n        /* \"#utility.yul\":1615:1670   */\n      tag_155\n      jumpi\n        /* \"#utility.yul\":1666:1667   */\n      0x00\n        /* \"#utility.yul\":1663:1664   */\n      0x00\n        /* \"#utility.yul\":1656:1668   */\n      revert\n        /* \"#utility.yul\":1615:1670   */\n    tag_155:\n      pop\n        /* \"#utility.yul\":1689:1709   */\n      dup2\n      calldataload\n        /* \"#utility.yul\":1732:1750   */\n      0xffffffffffffffff\n        /* \"#utility.yul\":1721:1751   */\n      dup2\n      gt\n        /* \"#utility.yul\":1718:1768   */\n      iszero\n      tag_156\n      jumpi\n        /* \"#utility.yul\":1764:1765   */\n      0x00\n        /* \"#utility.yul\":1761:1762   */\n      0x00\n        /* \"#utility.yul\":1754:1766   */\n      revert\n        /* \"#utility.yul\":1718:1768   */\n    tag_156:\n        /* \"#utility.yul\":1801:1805   */\n      0x20\n        /* \"#utility.yul\":1793:1799   */\n      dup4\n        /* \"#utility.yul\":1789:1806   */\n      add\n        /* \"#utility.yul\":1777:1806   */\n      swap2\n      pop\n        /* \"#utility.yul\":1853:1856   */\n      dup4\n        /* \"#utility.yul\":1846:1850   */\n      0x20\n        /* \"#utility.yul\":1837:1843   */\n      dup3\n        /* \"#utility.yul\":1829:1835   */\n      dup6\n        /* \"#utility.yul\":1825:1844   */\n      add\n        /* \"#utility.yul\":1821:1851   */\n      add\n        /* \"#utility.yul\":1818:1857   */\n      gt\n        /* \"#utility.yul\":1815:1874   */\n      iszero\n      tag_157\n      jumpi\n        /* \"#utility.yul\":1870:1871   */\n      0x00\n        /* \"#utility.yul\":1867:1868   */\n      0x00\n        /* \"#utility.yul\":1860:1872   */\n      revert\n        /* \"#utility.yul\":1815:1874   */\n    tag_157:\n        /* \"#utility.yul\":1532:1880   */\n      swap3\n      pop\n      swap3\n      swap1\n      pop\n      jump\t// out\n        /* \"#utility.yul\":1885:3021   */\n    tag_24:\n        /* \"#utility.yul\":2007:2013   */\n      0x00\n        /* \"#utility.yul\":2015:2021   */\n      0x00\n        /* \"#utility.yul\":2023:2029   */\n      0x00\n        /* \"#utility.yul\":2031:2037   */\n      0x00\n        /* \"#utility.yul\":2039:2045   */\n      0x00\n        /* \"#utility.yul\":2047:2053   */\n      0x00\n        /* \"#utility.yul\":2055:2061   */\n      0x00\n        /* \"#utility.yul\":2108:2111   */\n      0x80\n        /* \"#utility.yul\":2096:2105   */\n      dup9\n        /* \"#utility.yul\":2087:2094   */\n      dup11\n        /* \"#utility.yul\":2083:2106   */\n      sub\n        /* \"#utility.yul\":2079:2112   */\n      slt\n        /* \"#utility.yul\":2076:2129   */\n      iszero\n      tag_159\n      jumpi\n        /* \"#utility.yul\":2125:2126   */\n      0x00\n        /* \"#utility.yul\":2122:2123   */\n      0x00\n        /* \"#utility.yul\":2115:2127   */\n      revert\n        /* \"#utility.yul\":2076:2129   */\n    tag_159:\n        /* \"#utility.yul\":2170:2193   */\n      dup8\n      calldataload\n      swap7\n      pop\n        /* \"#utility.yul\":2268:2270   */\n      0x20\n        /* \"#utility.yul\":2253:2271   */\n      dup9\n      add\n        /* \"#utility.yul\":2240:2272   */\n      calldataload\n        /* \"#utility.yul\":2295:2313   */\n      0xffffffffffffffff\n        /* \"#utility.yul\":2284:2314   */\n      dup2\n      gt\n        /* \"#utility.yul\":2281:2331   */\n      iszero\n      tag_160\n      jumpi\n        /* \"#utility.yul\":2327:2328   */\n      0x00\n        /* \"#utility.yul\":2324:2325   */\n      0x00\n        /* \"#utility.yul\":2317:2329   */\n      revert\n        /* \"#utility.yul\":2281:2331   */\n    tag_160:\n        /* \"#utility.yul\":2366:2425   */\n      tag_161\n        /* \"#utility.yul\":2417:2424   */\n      dup11\n        /* \"#utility.yul\":2408:2414   */\n      dup3\n        /* \"#utility.yul\":2397:2406   */\n      dup12\n        /* \"#utility.yul\":2393:2415   */\n      add\n        /* \"#utility.yul\":2366:2425   */\n      tag_140\n      jump\t// in\n    tag_161:\n        /* \"#utility.yul\":2444:2452   */\n      swap1\n      swap8\n      pop\n        /* \"#utility.yul\":2340:2425   */\n      swap6\n      pop\n      pop\n        /* \"#utility.yul\":2532:2534   */\n      0x40\n        /* \"#utility.yul\":2517:2535   */\n      dup9\n      add\n        /* \"#utility.yul\":2504:2536   */\n      calldataload\n        /* \"#utility.yul\":2561:2579   */\n      0xffffffffffffffff\n        /* \"#utility.yul\":2548:2580   */\n      dup2\n      gt\n        /* \"#utility.yul\":2545:2597   */\n      iszero\n      tag_162\n      jumpi\n        /* \"#utility.yul\":2593:2594   */\n      0x00\n        /* \"#utility.yul\":2590:2591   */\n      0x00\n        /* \"#utility.yul\":2583:2595   */\n      revert\n        /* \"#utility.yul\":2545:2597   */\n    tag_162:\n        /* \"#utility.yul\":2632:2693   */\n      tag_163\n        /* \"#utility.yul\":2685:2692   */\n      dup11\n        /* \"#utility.yul\":2674:2682   */\n      dup3\n        /* \"#utility.yul\":2663:2672   */\n      dup12\n        /* \"#utility.yul\":2659:2683   */\n      add\n        /* \"#utility.yul\":2632:2693   */\n      tag_140\n      jump\t// in\n    tag_163:\n        /* \"#utility.yul\":2712:2720   */\n      swap1\n      swap6\n      pop\n        /* \"#utility.yul\":2606:2693   */\n      swap4\n      pop\n      pop\n        /* \"#utility.yul\":2800:2802   */\n      0x60\n        /* \"#utility.yul\":2785:2803   */\n      dup9\n      add\n        /* \"#utility.yul\":2772:2804   */\n      calldataload\n        /* \"#utility.yul\":2829:2847   */\n      0xffffffffffffffff\n        /* \"#utility.yul\":2816:2848   */\n      dup2\n      gt\n        /* \"#utility.yul\":2813:2865   */\n      iszero\n      tag_164\n      jumpi\n        /* \"#utility.yul\":2861:2862   */\n      0x00\n        /* \"#utility.yul\":2858:2859   */\n      0x00\n        /* \"#utility.yul\":2851:2863   */\n      revert\n        /* \"#utility.yul\":2813:2865   */\n    tag_164:\n        /* \"#utility.yul\":2900:2961   */\n      tag_165\n        /* \"#utility.yul\":2953:2960   */\n      dup11\n        /* \"#utility.yul\":2942:2950   */\n      dup3\n        /* \"#utility.yul\":2931:2940   */\n      dup12\n        /* \"#utility.yul\":2927:2951   */\n      add\n        /* \"#utility.yul\":2900:2961   */\n      tag_140\n      jump\t// in\n    tag_165:\n        /* \"#utility.yul\":1885:3021   */\n      swap9\n      swap12\n      swap8\n      swap11\n      pop\n      swap6\n      swap9\n      pop\n      swap4\n      swap7\n      swap3\n      swap6\n        /* \"#utility.yul\":2874:2961   */\n      swap3\n      swap4\n      pop\n      pop\n      pop\n        /* \"#utility.yul\":1885:3021   */\n      jump\t// out\n        /* \"#utility.yul\":3026:3492   */\n    tag_31:\n        /* \"#utility.yul\":3103:3109   */\n      0x00\n        /* \"#utility.yul\":3111:3117   */\n      0x00\n        /* \"#utility.yul\":3119:3125   */\n      0x00\n        /* \"#utility.yul\":3172:3174   */\n      0x60\n        /* \"#utility.yul\":3160:3169   */\n      dup5\n        /* \"#utility.yul\":3151:3158   */\n      dup7\n        /* \"#utility.yul\":3147:3170   */\n      sub\n        /* \"#utility.yul\":3143:3175   */\n      slt\n        /* \"#utility.yul\":3140:3192   */\n      iszero\n      tag_167\n      jumpi\n        /* \"#utility.yul\":3188:3189   */\n      0x00\n        /* \"#utility.yul\":3185:3186   */\n      0x00\n        /* \"#utility.yul\":3178:3190   */\n      revert\n        /* \"#utility.yul\":3140:3192   */\n    tag_167:\n      pop\n      pop\n        /* \"#utility.yul\":3233:3256   */\n      dup2\n      calldataload\n      swap4\n        /* \"#utility.yul\":3353:3355   */\n      0x20\n        /* \"#utility.yul\":3338:3356   */\n      dup4\n      add\n        /* \"#utility.yul\":3325:3357   */\n      calldataload\n      swap4\n      pop\n        /* \"#utility.yul\":3456:3458   */\n      0x40\n        /* \"#utility.yul\":3441:3459   */\n      swap1\n      swap3\n      add\n        /* \"#utility.yul\":3428:3460   */\n      calldataload\n      swap2\n        /* \"#utility.yul\":3026:3492   */\n      swap1\n      pop\n      jump\t// out\n        /* \"#utility.yul\":3497:4423   */\n    tag_37:\n        /* \"#utility.yul\":3670:3672   */\n      0x20\n        /* \"#utility.yul\":3659:3668   */\n      dup2\n        /* \"#utility.yul\":3652:3673   */\n      mstore\n        /* \"#utility.yul\":3715:3721   */\n      dup2\n        /* \"#utility.yul\":3709:3722   */\n      mload\n        /* \"#utility.yul\":3704:3706   */\n      0x20\n        /* \"#utility.yul\":3693:3702   */\n      dup3\n        /* \"#utility.yul\":3689:3707   */\n      add\n        /* \"#utility.yul\":3682:3723   */\n      mstore\n        /* \"#utility.yul\":3633:3637   */\n      0x00\n        /* \"#utility.yul\":3770:3772   */\n      0x20\n        /* \"#utility.yul\":3762:3768   */\n      dup4\n        /* \"#utility.yul\":3758:3773   */\n      add\n        /* \"#utility.yul\":3752:3774   */\n      mload\n        /* \"#utility.yul\":3810:3814   */\n      0xc0\n        /* \"#utility.yul\":3805:3807   */\n      0x40\n        /* \"#utility.yul\":3794:3803   */\n      dup5\n        /* \"#utility.yul\":3790:3808   */\n      add\n        /* \"#utility.yul\":3783:3815   */\n      mstore\n        /* \"#utility.yul\":3838:3890   */\n      tag_169\n        /* \"#utility.yul\":3885:3888   */\n      0xe0\n        /* \"#utility.yul\":3874:3883   */\n      dup5\n        /* \"#utility.yul\":3870:3889   */\n      add\n        /* \"#utility.yul\":3856:3868   */\n      dup3\n        /* \"#utility.yul\":3838:3890   */\n      tag_139\n      jump\t// in\n    tag_169:\n        /* \"#utility.yul\":3824:3890   */\n      swap1\n      pop\n        /* \"#utility.yul\":3939:3941   */\n      0x40\n        /* \"#utility.yul\":3931:3937   */\n      dup5\n        /* \"#utility.yul\":3927:3942   */\n      add\n        /* \"#utility.yul\":3921:3943   */\n      mload\n        /* \"#utility.yul\":4011:4013   */\n      0x1f\n        /* \"#utility.yul\":4007:4014   */\n      not\n        /* \"#utility.yul\":3995:4004   */\n      dup5\n        /* \"#utility.yul\":3987:3993   */\n      dup4\n        /* \"#utility.yul\":3983:4005   */\n      sub\n        /* \"#utility.yul\":3979:4015   */\n      add\n        /* \"#utility.yul\":3974:3976   */\n      0x60\n        /* \"#utility.yul\":3963:3972   */\n      dup6\n        /* \"#utility.yul\":3959:3977   */\n      add\n        /* \"#utility.yul\":3952:4016   */\n      mstore\n        /* \"#utility.yul\":4039:4080   */\n      tag_170\n        /* \"#utility.yul\":4073:4079   */\n      dup3\n        /* \"#utility.yul\":4057:4071   */\n      dup3\n        /* \"#utility.yul\":4039:4080   */\n      tag_139\n      jump\t// in\n    tag_170:\n        /* \"#utility.yul\":4025:4080   */\n      swap2\n      pop\n      pop\n        /* \"#utility.yul\":4129:4131   */\n      0x60\n        /* \"#utility.yul\":4121:4127   */\n      dup5\n        /* \"#utility.yul\":4117:4132   */\n      add\n        /* \"#utility.yul\":4111:4133   */\n      mload\n        /* \"#utility.yul\":4202:4204   */\n      0x1f\n        /* \"#utility.yul\":4198:4205   */\n      not\n        /* \"#utility.yul\":4186:4195   */\n      dup5\n        /* \"#utility.yul\":4178:4184   */\n      dup4\n        /* \"#utility.yul\":4174:4196   */\n      sub\n        /* \"#utility.yul\":4170:4206   */\n      add\n        /* \"#utility.yul\":4164:4167   */\n      0x80\n        /* \"#utility.yul\":4153:4162   */\n      dup6\n        /* \"#utility.yul\":4149:4168   */\n      add\n        /* \"#utility.yul\":4142:4207   */\n      mstore\n        /* \"#utility.yul\":4230:4271   */\n      tag_171\n        /* \"#utility.yul\":4264:4270   */\n      dup3\n        /* \"#utility.yul\":4248:4262   */\n      dup3\n        /* \"#utility.yul\":4230:4271   */\n      tag_139\n      jump\t// in\n    tag_171:\n        /* \"#utility.yul\":4216:4271   */\n      swap2\n      pop\n      pop\n        /* \"#utility.yul\":4326:4329   */\n      0x80\n        /* \"#utility.yul\":4318:4324   */\n      dup5\n        /* \"#utility.yul\":4314:4330   */\n      add\n        /* \"#utility.yul\":4308:4331   */\n      mload\n        /* \"#utility.yul\":4302:4305   */\n      0xa0\n        /* \"#utility.yul\":4291:4300   */\n      dup5\n        /* \"#utility.yul\":4287:4306   */\n      add\n        /* \"#utility.yul\":4280:4332   */\n      mstore\n        /* \"#utility.yul\":4388:4391   */\n      0xa0\n        /* \"#utility.yul\":4380:4386   */\n      dup5\n        /* \"#utility.yul\":4376:4392   */\n      add\n        /* \"#utility.yul\":4370:4393   */\n      mload\n        /* \"#utility.yul\":4363:4367   */\n      0xc0\n        /* \"#utility.yul\":4352:4361   */\n      dup5\n        /* \"#utility.yul\":4348:4368   */\n      add\n        /* \"#utility.yul\":4341:4394   */\n      mstore\n        /* \"#utility.yul\":4411:4417   */\n      dup1\n        /* \"#utility.yul\":4403:4417   */\n      swap2\n      pop\n      pop\n        /* \"#utility.yul\":3497:4423   */\n      swap3\n      swap2\n      pop\n      pop\n      jump\t// out\n        /* \"#utility.yul\":4657:5003   */\n    tag_44:\n        /* \"#utility.yul\":4725:4731   */\n      0x00\n        /* \"#utility.yul\":4733:4739   */\n      0x00\n        /* \"#utility.yul\":4786:4788   */\n      0x40\n        /* \"#utility.yul\":4774:4783   */\n      dup4\n        /* \"#utility.yul\":4765:4772   */\n      dup6\n        /* \"#utility.yul\":4761:4784   */\n      sub\n        /* \"#utility.yul\":4757:4789   */\n      slt\n        /* \"#utility.yul\":4754:4806   */\n      iszero\n      tag_174\n      jumpi\n        /* \"#utility.yul\":4802:4803   */\n      0x00\n        /* \"#utility.yul\":4799:4800   */\n      0x00\n        /* \"#utility.yul\":4792:4804   */\n      revert\n        /* \"#utility.yul\":4754:4806   */\n    tag_174:\n      pop\n      pop\n        /* \"#utility.yul\":4847:4870   */\n      dup1\n      calldataload\n      swap3\n        /* \"#utility.yul\":4967:4969   */\n      0x20\n        /* \"#utility.yul\":4952:4970   */\n      swap1\n      swap2\n      add\n        /* \"#utility.yul\":4939:4971   */\n      calldataload\n      swap2\n      pop\n        /* \"#utility.yul\":4657:5003   */\n      jump\t// out\n        /* \"#utility.yul\":5008:5388   */\n    tag_47:\n        /* \"#utility.yul\":5087:5088   */\n      0x01\n        /* \"#utility.yul\":5083:5095   */\n      dup2\n      dup2\n      shr\n      swap1\n        /* \"#utility.yul\":5130:5142   */\n      dup3\n      and\n      dup1\n        /* \"#utility.yul\":5151:5212   */\n      tag_176\n      jumpi\n        /* \"#utility.yul\":5205:5209   */\n      0x7f\n        /* \"#utility.yul\":5197:5203   */\n      dup3\n        /* \"#utility.yul\":5193:5210   */\n      and\n        /* \"#utility.yul\":5183:5210   */\n      swap2\n      pop\n        /* \"#utility.yul\":5151:5212   */\n    tag_176:\n        /* \"#utility.yul\":5258:5260   */\n      0x20\n        /* \"#utility.yul\":5250:5256   */\n      dup3\n        /* \"#utility.yul\":5247:5261   */\n      lt\n        /* \"#utility.yul\":5227:5245   */\n      dup2\n        /* \"#utility.yul\":5224:5262   */\n      sub\n        /* \"#utility.yul\":5221:5382   */\n      tag_177\n      jumpi\n        /* \"#utility.yul\":5304:5314   */\n      0x4e487b71\n        /* \"#utility.yul\":5299:5302   */\n      0xe0\n        /* \"#utility.yul\":5295:5315   */\n      shl\n        /* \"#utility.yul\":5292:5293   */\n      0x00\n        /* \"#utility.yul\":5285:5316   */\n      mstore\n        /* \"#utility.yul\":5339:5343   */\n      0x22\n        /* \"#utility.yul\":5336:5337   */\n      0x04\n        /* \"#utility.yul\":5329:5344   */\n      mstore\n        /* \"#utility.yul\":5367:5371   */\n      0x24\n        /* \"#utility.yul\":5364:5365   */\n      0x00\n        /* \"#utility.yul\":5357:5372   */\n      revert\n        /* \"#utility.yul\":5221:5382   */\n    tag_177:\n      pop\n        /* \"#utility.yul\":5008:5388   */\n      swap2\n      swap1\n      pop\n      jump\t// out\n        /* \"#utility.yul\":5601:5878   */\n    tag_68:\n        /* \"#utility.yul\":5668:5674   */\n      0x00\n        /* \"#utility.yul\":5721:5723   */\n      0x20\n        /* \"#utility.yul\":5709:5718   */\n      dup3\n        /* \"#utility.yul\":5700:5707   */\n      dup5\n        /* \"#utility.yul\":5696:5719   */\n      sub\n        /* \"#utility.yul\":5692:5724   */\n      slt\n        /* \"#utility.yul\":5689:5741   */\n      iszero\n      tag_180\n      jumpi\n        /* \"#utility.yul\":5737:5738   */\n      0x00\n        /* \"#utility.yul\":5734:5735   */\n      0x00\n        /* \"#utility.yul\":5727:5739   */\n      revert\n        /* \"#utility.yul\":5689:5741   */\n    tag_180:\n        /* \"#utility.yul\":5769:5778   */\n      dup2\n        /* \"#utility.yul\":5763:5779   */\n      mload\n        /* \"#utility.yul\":5822:5827   */\n      dup1\n        /* \"#utility.yul\":5815:5828   */\n      iszero\n        /* \"#utility.yul\":5808:5829   */\n      iszero\n        /* \"#utility.yul\":5801:5806   */\n      dup2\n        /* \"#utility.yul\":5798:5830   */\n      eq\n        /* \"#utility.yul\":5788:5848   */\n      tag_181\n      jumpi\n        /* \"#utility.yul\":5844:5845   */\n      0x00\n        /* \"#utility.yul\":5841:5842   */\n      0x00\n        /* \"#utility.yul\":5834:5846   */\n      revert\n        /* \"#utility.yul\":5788:5848   */\n    tag_181:\n        /* \"#utility.yul\":5867:5872   */\n      swap4\n        /* \"#utility.yul\":5601:5878   */\n      swap3\n      pop\n      pop\n      pop\n      jump\t// out\n        /* \"#utility.yul\":5883:6224   */\n    tag_71:\n        /* \"#utility.yul\":6085:6087   */\n      0x20\n        /* \"#utility.yul\":6067:6088   */\n      dup1\n      dup3\n      mstore\n        /* \"#utility.yul\":6124:6126   */\n      0x11\n        /* \"#utility.yul\":6104:6122   */\n      swap1\n      dup3\n      add\n        /* \"#utility.yul\":6097:6127   */\n      mstore\n      shl(0x79, 0x2cb7ba9030b932903737ba1030b236b4b7)\n        /* \"#utility.yul\":6158:6160   */\n      0x40\n        /* \"#utility.yul\":6143:6161   */\n      dup3\n      add\n        /* \"#utility.yul\":6136:6183   */\n      mstore\n        /* \"#utility.yul\":6215:6217   */\n      0x60\n        /* \"#utility.yul\":6200:6218   */\n      add\n      swap1\n        /* \"#utility.yul\":5883:6224   */\n      jump\t// out\n        /* \"#utility.yul\":6581:6708   */\n    tag_141:\n        /* \"#utility.yul\":6642:6652   */\n      0x4e487b71\n        /* \"#utility.yul\":6637:6640   */\n      0xe0\n        /* \"#utility.yul\":6633:6653   */\n      shl\n        /* \"#utility.yul\":6630:6631   */\n      0x00\n        /* \"#utility.yul\":6623:6654   */\n      mstore\n        /* \"#utility.yul\":6673:6677   */\n      0x41\n        /* \"#utility.yul\":6670:6671   */\n      0x04\n        /* \"#utility.yul\":6663:6678   */\n      mstore\n        /* \"#utility.yul\":6697:6701   */\n      0x24\n        /* \"#utility.yul\":6694:6695   */\n      0x00\n        /* \"#utility.yul\":6687:6702   */\n      revert\n        /* \"#utility.yul\":6839:7357   */\n    tag_143:\n        /* \"#utility.yul\":6941:6943   */\n      0x1f\n        /* \"#utility.yul\":6936:6939   */\n      dup3\n        /* \"#utility.yul\":6933:6944   */\n      gt\n        /* \"#utility.yul\":6930:7351   */\n      iszero\n      tag_187\n      jumpi\n        /* \"#utility.yul\":6977:6982   */\n      dup1\n        /* \"#utility.yul\":6974:6975   */\n      0x00\n        /* \"#utility.yul\":6967:6983   */\n      mstore\n        /* \"#utility.yul\":7021:7025   */\n      0x20\n        /* \"#utility.yul\":7018:7019   */\n      0x00\n        /* \"#utility.yul\":7008:7026   */\n      keccak256\n        /* \"#utility.yul\":7091:7093   */\n      0x1f\n        /* \"#utility.yul\":7079:7089   */\n      dup5\n        /* \"#utility.yul\":7075:7094   */\n      add\n        /* \"#utility.yul\":7072:7073   */\n      0x05\n        /* \"#utility.yul\":7068:7095   */\n      shr\n        /* \"#utility.yul\":7062:7066   */\n      dup2\n        /* \"#utility.yul\":7058:7096   */\n      add\n        /* \"#utility.yul\":7127:7131   */\n      0x20\n        /* \"#utility.yul\":7115:7125   */\n      dup6\n        /* \"#utility.yul\":7112:7132   */\n      lt\n        /* \"#utility.yul\":7109:7156   */\n      iszero\n      tag_188\n      jumpi\n      pop\n        /* \"#utility.yul\":7150:7154   */\n      dup1\n        /* \"#utility.yul\":7109:7156   */\n    tag_188:\n        /* \"#utility.yul\":7205:7207   */\n      0x1f\n        /* \"#utility.yul\":7200:7203   */\n      dup5\n        /* \"#utility.yul\":7196:7208   */\n      add\n        /* \"#utility.yul\":7193:7194   */\n      0x05\n        /* \"#utility.yul\":7189:7209   */\n      shr\n        /* \"#utility.yul\":7183:7187   */\n      dup3\n        /* \"#utility.yul\":7179:7210   */\n      add\n        /* \"#utility.yul\":7169:7210   */\n      swap2\n      pop\n        /* \"#utility.yul\":7260:7341   */\n    tag_189:\n        /* \"#utility.yul\":7278:7280   */\n      dup2\n        /* \"#utility.yul\":7271:7276   */\n      dup2\n        /* \"#utility.yul\":7268:7281   */\n      lt\n        /* \"#utility.yul\":7260:7341   */\n      iszero\n      tag_191\n      jumpi\n        /* \"#utility.yul\":7337:7338   */\n      0x00\n        /* \"#utility.yul\":7323:7339   */\n      dup2\n      sstore\n        /* \"#utility.yul\":7304:7305   */\n      0x01\n        /* \"#utility.yul\":7293:7306   */\n      add\n        /* \"#utility.yul\":7260:7341   */\n      jump(tag_189)\n    tag_191:\n        /* \"#utility.yul\":7264:7267   */\n      pop\n      pop\n        /* \"#utility.yul\":6930:7351   */\n    tag_187:\n        /* \"#utility.yul\":6839:7357   */\n      pop\n      pop\n      pop\n      jump\t// out\n        /* \"#utility.yul\":7533:8832   */\n    tag_77:\n        /* \"#utility.yul\":7659:7662   */\n      dup2\n        /* \"#utility.yul\":7653:7663   */\n      mload\n        /* \"#utility.yul\":7686:7704   */\n      0xffffffffffffffff\n        /* \"#utility.yul\":7678:7684   */\n      dup2\n        /* \"#utility.yul\":7675:7705   */\n      gt\n        /* \"#utility.yul\":7672:7728   */\n      iszero\n      tag_195\n      jumpi\n        /* \"#utility.yul\":7708:7726   */\n      tag_195\n      tag_141\n      jump\t// in\n    tag_195:\n        /* \"#utility.yul\":7737:7834   */\n      tag_196\n        /* \"#utility.yul\":7827:7833   */\n      dup2\n        /* \"#utility.yul\":7787:7825   */\n      tag_197\n        /* \"#utility.yul\":7819:7823   */\n      dup5\n        /* \"#utility.yul\":7813:7824   */\n      sload\n        /* \"#utility.yul\":7787:7825   */\n      tag_47\n      jump\t// in\n    tag_197:\n        /* \"#utility.yul\":7781:7785   */\n      dup5\n        /* \"#utility.yul\":7737:7834   */\n      tag_143\n      jump\t// in\n    tag_196:\n        /* \"#utility.yul\":7883:7887   */\n      0x20\n        /* \"#utility.yul\":7914:7916   */\n      0x1f\n        /* \"#utility.yul\":7903:7917   */\n      dup3\n      gt\n        /* \"#utility.yul\":7931:7932   */\n      0x01\n        /* \"#utility.yul\":7926:8575   */\n      dup2\n      eq\n      tag_199\n      jumpi\n        /* \"#utility.yul\":8619:8620   */\n      0x00\n        /* \"#utility.yul\":8636:8642   */\n      dup4\n        /* \"#utility.yul\":8633:8722   */\n      iszero\n      tag_200\n      jumpi\n      pop\n        /* \"#utility.yul\":8688:8707   */\n      dup5\n      dup3\n      add\n        /* \"#utility.yul\":8682:8708   */\n      mload\n        /* \"#utility.yul\":8633:8722   */\n    tag_200:\n      not(0x00)\n        /* \"#utility.yul\":7490:7491   */\n      0x03\n        /* \"#utility.yul\":7486:7497   */\n      dup6\n      swap1\n      shl\n        /* \"#utility.yul\":7482:7506   */\n      shr\n        /* \"#utility.yul\":7478:7507   */\n      not\n        /* \"#utility.yul\":7468:7508   */\n      and\n        /* \"#utility.yul\":7514:7515   */\n      0x01\n        /* \"#utility.yul\":7510:7521   */\n      dup5\n      swap1\n      shl\n        /* \"#utility.yul\":7465:7522   */\n      or\n        /* \"#utility.yul\":8735:8816   */\n      dup5\n      sstore\n        /* \"#utility.yul\":7896:8826   */\n      jump(tag_191)\n        /* \"#utility.yul\":7926:8575   */\n    tag_199:\n        /* \"#utility.yul\":6786:6787   */\n      0x00\n        /* \"#utility.yul\":6779:6793   */\n      dup5\n      dup2\n      mstore\n        /* \"#utility.yul\":6823:6827   */\n      0x20\n        /* \"#utility.yul\":6810:6828   */\n      dup2\n      keccak256\n      not(0x1f)\n        /* \"#utility.yul\":7962:7982   */\n      dup6\n      and\n      swap2\n        /* \"#utility.yul\":8080:8302   */\n    tag_203:\n        /* \"#utility.yul\":8094:8101   */\n      dup3\n        /* \"#utility.yul\":8091:8092   */\n      dup2\n        /* \"#utility.yul\":8088:8102   */\n      lt\n        /* \"#utility.yul\":8080:8302   */\n      iszero\n      tag_205\n      jumpi\n        /* \"#utility.yul\":8176:8195   */\n      dup8\n      dup6\n      add\n        /* \"#utility.yul\":8170:8196   */\n      mload\n        /* \"#utility.yul\":8155:8197   */\n      dup3\n      sstore\n        /* \"#utility.yul\":8283:8287   */\n      0x20\n        /* \"#utility.yul\":8268:8288   */\n      swap5\n      dup6\n      add\n      swap5\n        /* \"#utility.yul\":8236:8237   */\n      0x01\n        /* \"#utility.yul\":8224:8238   */\n      swap1\n      swap3\n      add\n      swap2\n        /* \"#utility.yul\":8110:8122   */\n      add\n        /* \"#utility.yul\":8080:8302   */\n      jump(tag_203)\n    tag_205:\n        /* \"#utility.yul\":8084:8087   */\n      pop\n        /* \"#utility.yul\":8330:8336   */\n      dup5\n        /* \"#utility.yul\":8321:8328   */\n      dup3\n        /* \"#utility.yul\":8318:8337   */\n      lt\n        /* \"#utility.yul\":8315:8516   */\n      iszero\n      tag_206\n      jumpi\n        /* \"#utility.yul\":8391:8410   */\n      dup7\n      dup5\n      add\n        /* \"#utility.yul\":8385:8411   */\n      mload\n      not(0x00)\n        /* \"#utility.yul\":8474:8475   */\n      0x03\n        /* \"#utility.yul\":8470:8484   */\n      dup8\n      swap1\n      shl\n        /* \"#utility.yul\":8486:8489   */\n      0xf8\n        /* \"#utility.yul\":8466:8490   */\n      and\n        /* \"#utility.yul\":8462:8499   */\n      shr\n        /* \"#utility.yul\":8458:8500   */\n      not\n        /* \"#utility.yul\":8443:8501   */\n      and\n        /* \"#utility.yul\":8428:8502   */\n      dup2\n      sstore\n        /* \"#utility.yul\":8315:8516   */\n    tag_206:\n      pop\n      pop\n      pop\n      pop\n        /* \"#utility.yul\":8562:8563   */\n      0x01\n        /* \"#utility.yul\":8546:8560   */\n      swap1\n      dup2\n      shl\n        /* \"#utility.yul\":8542:8564   */\n      add\n        /* \"#utility.yul\":8529:8565   */\n      swap1\n      sstore\n      pop\n        /* \"#utility.yul\":7533:8832   */\n      jump\t// out\n        /* \"#utility.yul\":8837:9227   */\n    tag_81:\n        /* \"#utility.yul\":8996:8998   */\n      0x20\n        /* \"#utility.yul\":8985:8994   */\n      dup2\n        /* \"#utility.yul\":8978:8999   */\n      mstore\n        /* \"#utility.yul\":9035:9041   */\n      dup2\n        /* \"#utility.yul\":9030:9032   */\n      0x20\n        /* \"#utility.yul\":9019:9028   */\n      dup3\n        /* \"#utility.yul\":9015:9033   */\n      add\n        /* \"#utility.yul\":9008:9042   */\n      mstore\n        /* \"#utility.yul\":9092:9098   */\n      dup2\n        /* \"#utility.yul\":9084:9090   */\n      dup4\n        /* \"#utility.yul\":9079:9081   */\n      0x40\n        /* \"#utility.yul\":9068:9077   */\n      dup4\n        /* \"#utility.yul\":9064:9082   */\n      add\n        /* \"#utility.yul\":9051:9099   */\n      calldatacopy\n        /* \"#utility.yul\":9148:9149   */\n      0x00\n        /* \"#utility.yul\":9119:9141   */\n      dup2\n      dup4\n      add\n        /* \"#utility.yul\":9143:9145   */\n      0x40\n        /* \"#utility.yul\":9115:9146   */\n      swap1\n      dup2\n      add\n        /* \"#utility.yul\":9108:9150   */\n      swap2\n      swap1\n      swap2\n      mstore\n        /* \"#utility.yul\":9211:9213   */\n      0x1f\n        /* \"#utility.yul\":9190:9205   */\n      swap1\n      swap3\n      add\n      not(0x1f)\n        /* \"#utility.yul\":9186:9215   */\n      and\n        /* \"#utility.yul\":9171:9216   */\n      add\n        /* \"#utility.yul\":9167:9221   */\n      add\n      swap2\n        /* \"#utility.yul\":8837:9227   */\n      swap1\n      pop\n      jump\t// out\n        /* \"#utility.yul\":9584:10782   */\n    tag_87:\n        /* \"#utility.yul\":9708:9726   */\n      0xffffffffffffffff\n        /* \"#utility.yul\":9703:9706   */\n      dup4\n        /* \"#utility.yul\":9700:9727   */\n      gt\n        /* \"#utility.yul\":9697:9750   */\n      iszero\n      tag_211\n      jumpi\n        /* \"#utility.yul\":9730:9748   */\n      tag_211\n      tag_141\n      jump\t// in\n    tag_211:\n        /* \"#utility.yul\":9759:9853   */\n      tag_212\n        /* \"#utility.yul\":9849:9852   */\n      dup4\n        /* \"#utility.yul\":9809:9847   */\n      tag_213\n        /* \"#utility.yul\":9841:9845   */\n      dup4\n        /* \"#utility.yul\":9835:9846   */\n      sload\n        /* \"#utility.yul\":9809:9847   */\n      tag_47\n      jump\t// in\n    tag_213:\n        /* \"#utility.yul\":9803:9807   */\n      dup4\n        /* \"#utility.yul\":9759:9853   */\n      tag_143\n      jump\t// in\n    tag_212:\n        /* \"#utility.yul\":9879:9880   */\n      0x00\n        /* \"#utility.yul\":9904:9906   */\n      0x1f\n        /* \"#utility.yul\":9899:9902   */\n      dup5\n        /* \"#utility.yul\":9896:9907   */\n      gt\n        /* \"#utility.yul\":9921:9922   */\n      0x01\n        /* \"#utility.yul\":9916:10524   */\n      dup2\n      eq\n      tag_215\n      jumpi\n        /* \"#utility.yul\":10568:10569   */\n      0x00\n        /* \"#utility.yul\":10585:10588   */\n      dup6\n        /* \"#utility.yul\":10582:10675   */\n      iszero\n      tag_216\n      jumpi\n      pop\n        /* \"#utility.yul\":10641:10660   */\n      dup4\n      dup3\n      add\n        /* \"#utility.yul\":10628:10661   */\n      calldataload\n        /* \"#utility.yul\":10582:10675   */\n    tag_216:\n      not(0x00)\n        /* \"#utility.yul\":7490:7491   */\n      0x03\n        /* \"#utility.yul\":7486:7497   */\n      dup8\n      swap1\n      shl\n        /* \"#utility.yul\":7482:7506   */\n      shr\n        /* \"#utility.yul\":7478:7507   */\n      not\n        /* \"#utility.yul\":7468:7508   */\n      and\n        /* \"#utility.yul\":7514:7515   */\n      0x01\n        /* \"#utility.yul\":7510:7521   */\n      dup7\n      swap1\n      shl\n        /* \"#utility.yul\":7465:7522   */\n      or\n        /* \"#utility.yul\":10688:10766   */\n      dup4\n      sstore\n        /* \"#utility.yul\":9889:10776   */\n      jump(tag_191)\n        /* \"#utility.yul\":9916:10524   */\n    tag_215:\n        /* \"#utility.yul\":6786:6787   */\n      0x00\n        /* \"#utility.yul\":6779:6793   */\n      dup4\n      dup2\n      mstore\n        /* \"#utility.yul\":6823:6827   */\n      0x20\n        /* \"#utility.yul\":6810:6828   */\n      dup2\n      keccak256\n      not(0x1f)\n        /* \"#utility.yul\":9952:9969   */\n      dup8\n      and\n      swap2\n        /* \"#utility.yul\":10067:10296   */\n    tag_219:\n        /* \"#utility.yul\":10081:10088   */\n      dup3\n        /* \"#utility.yul\":10078:10079   */\n      dup2\n        /* \"#utility.yul\":10075:10089   */\n      lt\n        /* \"#utility.yul\":10067:10296   */\n      iszero\n      tag_221\n      jumpi\n        /* \"#utility.yul\":10170:10189   */\n      dup7\n      dup6\n      add\n        /* \"#utility.yul\":10157:10190   */\n      calldataload\n        /* \"#utility.yul\":10142:10191   */\n      dup3\n      sstore\n        /* \"#utility.yul\":10277:10281   */\n      0x20\n        /* \"#utility.yul\":10262:10282   */\n      swap5\n      dup6\n      add\n      swap5\n        /* \"#utility.yul\":10230:10231   */\n      0x01\n        /* \"#utility.yul\":10218:10232   */\n      swap1\n      swap3\n      add\n      swap2\n        /* \"#utility.yul\":10097:10109   */\n      add\n        /* \"#utility.yul\":10067:10296   */\n      jump(tag_219)\n    tag_221:\n        /* \"#utility.yul\":10071:10074   */\n      pop\n        /* \"#utility.yul\":10324:10327   */\n      dup7\n        /* \"#utility.yul\":10315:10322   */\n      dup3\n        /* \"#utility.yul\":10312:10328   */\n      lt\n        /* \"#utility.yul\":10309:10468   */\n      iszero\n      tag_222\n      jumpi\n        /* \"#utility.yul\":10448:10449   */\n      0x00\n        /* \"#utility.yul\":10444:10450   */\n      not\n        /* \"#utility.yul\":10438:10441   */\n      0xf8\n        /* \"#utility.yul\":10432:10435   */\n      dup9\n        /* \"#utility.yul\":10429:10430   */\n      0x03\n        /* \"#utility.yul\":10425:10436   */\n      shl\n        /* \"#utility.yul\":10421:10442   */\n      and\n        /* \"#utility.yul\":10417:10451   */\n      shr\n        /* \"#utility.yul\":10413:10452   */\n      not\n        /* \"#utility.yul\":10400:10409   */\n      dup5\n        /* \"#utility.yul\":10395:10398   */\n      dup8\n        /* \"#utility.yul\":10391:10410   */\n      add\n        /* \"#utility.yul\":10378:10411   */\n      calldataload\n        /* \"#utility.yul\":10374:10453   */\n      and\n        /* \"#utility.yul\":10366:10372   */\n      dup2\n        /* \"#utility.yul\":10359:10454   */\n      sstore\n        /* \"#utility.yul\":10309:10468   */\n    tag_222:\n      pop\n      pop\n        /* \"#utility.yul\":10511:10512   */\n      0x01\n        /* \"#utility.yul\":10505:10508   */\n      dup6\n        /* \"#utility.yul\":10502:10503   */\n      0x01\n        /* \"#utility.yul\":10498:10509   */\n      shl\n        /* \"#utility.yul\":10494:10513   */\n      add\n        /* \"#utility.yul\":10488:10492   */\n      dup4\n        /* \"#utility.yul\":10481:10514   */\n      sstore\n        /* \"#utility.yul\":9889:10776   */\n      pop\n      pop\n        /* \"#utility.yul\":9584:10782   */\n      pop\n      pop\n      pop\n      jump\t// out\n\n    auxdata: 0xa26469706673582212200aa22c15a466a85c80a9ae98e35fe40505f94279ef324ebdcb646a360d1fc13364736f6c634300081e0033\n}\n",
				"bytecode": {
					"linkReferences": {},
					"object": "6080604052348015600e575f5ffd5b506040516110f53803806110f5833981016040819052602b916074565b5f80546001600160a01b039384166001600160a01b0319918216179091556001805492909316911617905560a0565b80516001600160a01b0381168114606f575f5ffd5b919050565b5f5f604083850312156084575f5ffd5b608b83605a565b9150609760208401605a565b90509250929050565b611048806100ad5f395ff3fe608060405234801561000f575f5ffd5b5060043610610085575f3560e01c8063deab8c7511610058578063deab8c7514610106578063f4def44b14610119578063f9b6117f14610139578063fdff9aab1461014b575f5ffd5b806342f54b8914610089578063498d4707146100b95780639121f4eb146100de578063b3ce9dea146100f3575b5f5ffd5b60015461009c906001600160a01b031681565b6040516001600160a01b0390911681526020015b60405180910390f35b6100cc6100c7366004610b36565b61015e565b6040516100b096959493929190610b7b565b6100f16100ec366004610c14565b610324565b005b6100f1610101366004610c14565b610580565b6100f1610114366004610cbc565b61065d565b61012c610127366004610b36565b610797565b6040516100b09190610ce5565b5f5461009c906001600160a01b031681565b6100f1610159366004610d66565b6109bd565b60026020525f90815260409020805460018201805491929161017f90610d86565b80601f01602080910402602001604051908101604052809291908181526020018280546101ab90610d86565b80156101f65780601f106101cd576101008083540402835291602001916101f6565b820191905f5260205f20905b8154815290600101906020018083116101d957829003601f168201915b50505050509080600201805461020b90610d86565b80601f016020809104026020016040519081016040528092919081815260200182805461023790610d86565b80156102825780601f1061025957610100808354040283529160200191610282565b820191905f5260205f20905b81548152906001019060200180831161026557829003601f168201915b50505050509080600301805461029790610d86565b80601f01602080910402602001604051908101604052809291908181526020018280546102c390610d86565b801561030e5780601f106102e55761010080835404028352916020019161030e565b820191905f5260205f20905b8154815290600101906020018083116102f157829003601f168201915b5050505050908060040154908060050154905086565b600154604051630935e01b60e21b81523260048201526001600160a01b03909116906324d7806c90602401602060405180830381865afa15801561036a573d5f5f3e3d5ffd5b505050506040513d601f19601f8201168201806040525081019061038e9190610dbe565b6103b35760405162461bcd60e51b81526004016103aa90610de4565b60405180910390fd5b5f878152600260205260409020541561040e5760405162461bcd60e51b815260206004820152601760248201527f537461666620494420616c72656164792065786973747300000000000000000060448201526064016103aa565b6040518060c0016040528088815260200187878080601f0160208091040260200160405190810160405280939291908181526020018383808284375f92019190915250505090825250604080516020601f8801819004810282018101909252868152918101919087908790819084018382808284375f92019190915250505090825250604080516020601f8601819004810282018101909252848152918101919085908590819084018382808284375f920182905250938552505050602080830182905260409283018290528a825260028152919020825181559082015160018201906104fb9082610e6f565b50604082015160028201906105109082610e6f565b50606082015160038201906105259082610e6f565b506080820151816004015560a08201518160050155905050867fb9918942a2a29d1164ea11d03222c9a01a970e1d37797e67a114dd2c6196dac2878760405161056f929190610f2a565b60405180910390a250505050505050565b5f8781526002602052604081205490036105d65760405162461bcd60e51b815260206004820152601760248201527614dd18599988125108191bd95cc81b9bdd08195e1a5cdd604a1b60448201526064016103aa565b5f8781526002602052604090206001016105f1868883610f58565b505f8781526002602081905260409091200161060e848683610f58565b505f87815260026020526040902060030161062a828483610f58565b50867f27556b62664053de7a418476f2c4abc9b526d3c747991948d328082493d82c0e878760405161056f929190610f2a565b600154604051630935e01b60e21b81523260048201526001600160a01b03909116906324d7806c90602401602060405180830381865afa1580156106a3573d5f5f3e3d5ffd5b505050506040513d601f19601f820116820180604052508101906106c79190610dbe565b6106e35760405162461bcd60e51b81526004016103aa90610de4565b5f8381526002602052604081205490036107365760405162461bcd60e51b815260206004820152601460248201527314dd18599988191bd95cc81b9bdd08195e1a5cdd60621b60448201526064016103aa565b5f838152600260209081526040918290206004810185905560050183905581518581529081018490529081018290527f9e2a40167f414f24ed49cbf67801d7ca9206eea4d409f6734bed8f92b0c9f2da9060600160405180910390a1505050565b6107cd6040518060c001604052805f81526020016060815260200160608152602001606081526020015f81526020015f81525090565b60025f8381526020019081526020015f206040518060c00160405290815f820154815260200160018201805461080290610d86565b80601f016020809104026020016040519081016040528092919081815260200182805461082e90610d86565b80156108795780601f1061085057610100808354040283529160200191610879565b820191905f5260205f20905b81548152906001019060200180831161085c57829003601f168201915b5050505050815260200160028201805461089290610d86565b80601f01602080910402602001604051908101604052809291908181526020018280546108be90610d86565b80156109095780601f106108e057610100808354040283529160200191610909565b820191905f5260205f20905b8154815290600101906020018083116108ec57829003601f168201915b5050505050815260200160038201805461092290610d86565b80601f016020809104026020016040519081016040528092919081815260200182805461094e90610d86565b80156109995780601f1061097057610100808354040283529160200191610999565b820191905f5260205f20905b81548152906001019060200180831161097c57829003601f168201915b50505050508152602001600482015481526020016005820154815250509050919050565b600154604051630935e01b60e21b81523260048201526001600160a01b03909116906324d7806c90602401602060405180830381865afa158015610a03573d5f5f3e3d5ffd5b505050506040513d601f19601f82011682018060405250810190610a279190610dbe565b610a435760405162461bcd60e51b81526004016103aa90610de4565b5f818152600260205260408120549003610a995760405162461bcd60e51b815260206004820152601760248201527614dd18599988125108191bd95cc81b9bdd08195e1a5cdd604a1b60448201526064016103aa565b5f54604051633f9fb5fd60e01b815260048101849052602481018390526001600160a01b0390911690633f9fb5fd906044015f604051808303815f87803b158015610ae2575f5ffd5b505af1158015610af4573d5f5f3e3d5ffd5b50505050807f37fe5ba29264c8debd409a782c67744bf54751791ccf1197762b9819c10ab61083604051610b2a91815260200190565b60405180910390a25050565b5f60208284031215610b46575f5ffd5b5035919050565b5f81518084528060208401602086015e5f602082860101526020601f19601f83011685010191505092915050565b86815260c060208201525f610b9360c0830188610b4d565b8281036040840152610ba58188610b4d565b90508281036060840152610bb98187610b4d565b6080840195909552505060a00152949350505050565b5f5f83601f840112610bdf575f5ffd5b50813567ffffffffffffffff811115610bf6575f5ffd5b602083019150836020828501011115610c0d575f5ffd5b9250929050565b5f5f5f5f5f5f5f6080888a031215610c2a575f5ffd5b87359650602088013567ffffffffffffffff811115610c47575f5ffd5b610c538a828b01610bcf565b909750955050604088013567ffffffffffffffff811115610c72575f5ffd5b610c7e8a828b01610bcf565b909550935050606088013567ffffffffffffffff811115610c9d575f5ffd5b610ca98a828b01610bcf565b989b979a50959850939692959293505050565b5f5f5f60608486031215610cce575f5ffd5b505081359360208301359350604090920135919050565b60208152815160208201525f602083015160c06040840152610d0a60e0840182610b4d565b90506040840151601f19848303016060850152610d278282610b4d565b9150506060840151601f19848303016080850152610d458282610b4d565b915050608084015160a084015260a084015160c08401528091505092915050565b5f5f60408385031215610d77575f5ffd5b50508035926020909101359150565b600181811c90821680610d9a57607f821691505b602082108103610db857634e487b7160e01b5f52602260045260245ffd5b50919050565b5f60208284031215610dce575f5ffd5b81518015158114610ddd575f5ffd5b9392505050565b6020808252601190820152702cb7ba9030b932903737ba1030b236b4b760791b604082015260600190565b634e487b7160e01b5f52604160045260245ffd5b601f821115610e6a57805f5260205f20601f840160051c81016020851015610e485750805b601f840160051c820191505b81811015610e67575f8155600101610e54565b50505b505050565b815167ffffffffffffffff811115610e8957610e89610e0f565b610e9d81610e978454610d86565b84610e23565b6020601f821160018114610ecf575f8315610eb85750848201515b5f19600385901b1c1916600184901b178455610e67565b5f84815260208120601f198516915b82811015610efe5787850151825560209485019460019092019101610ede565b5084821015610f1b57868401515f19600387901b60f8161c191681555b50505050600190811b01905550565b60208152816020820152818360408301375f818301604090810191909152601f909201601f19160101919050565b67ffffffffffffffff831115610f7057610f70610e0f565b610f8483610f7e8354610d86565b83610e23565b5f601f841160018114610fb5575f8515610f9e5750838201355b5f19600387901b1c1916600186901b178355610e67565b5f83815260208120601f198716915b82811015610fe45786850135825560209485019460019092019101610fc4565b5086821015611000575f1960f88860031b161c19848701351681555b505060018560011b018355505050505056fea26469706673582212200aa22c15a466a85c80a9ae98e35fe40505f94279ef324ebdcb646a360d1fc13364736f6c634300081e0033",
					"opcodes": "PUSH1 0x80 PUSH1 0x40 MSTORE CALLVALUE DUP1 ISZERO PUSH1 0xE JUMPI PUSH0 PUSH0 REVERT JUMPDEST POP PUSH1 0x40 MLOAD PUSH2 0x10F5 CODESIZE SUB DUP1 PUSH2 0x10F5 DUP4 CODECOPY DUP2 ADD PUSH1 0x40 DUP2 SWAP1 MSTORE PUSH1 0x2B SWAP2 PUSH1 0x74 JUMP JUMPDEST PUSH0 DUP1 SLOAD PUSH1 0x1 PUSH1 0x1 PUSH1 0xA0 SHL SUB SWAP4 DUP5 AND PUSH1 0x1 PUSH1 0x1 PUSH1 0xA0 SHL SUB NOT SWAP2 DUP3 AND OR SWAP1 SWAP2 SSTORE PUSH1 0x1 DUP1 SLOAD SWAP3 SWAP1 SWAP4 AND SWAP2 AND OR SWAP1 SSTORE PUSH1 0xA0 JUMP JUMPDEST DUP1 MLOAD PUSH1 0x1 PUSH1 0x1 PUSH1 0xA0 SHL SUB DUP2 AND DUP2 EQ PUSH1 0x6F JUMPI PUSH0 PUSH0 REVERT JUMPDEST SWAP2 SWAP1 POP JUMP JUMPDEST PUSH0 PUSH0 PUSH1 0x40 DUP4 DUP6 SUB SLT ISZERO PUSH1 0x84 JUMPI PUSH0 PUSH0 REVERT JUMPDEST PUSH1 0x8B DUP4 PUSH1 0x5A JUMP JUMPDEST SWAP2 POP PUSH1 0x97 PUSH1 0x20 DUP5 ADD PUSH1 0x5A JUMP JUMPDEST SWAP1 POP SWAP3 POP SWAP3 SWAP1 POP JUMP JUMPDEST PUSH2 0x1048 DUP1 PUSH2 0xAD PUSH0 CODECOPY PUSH0 RETURN INVALID PUSH1 0x80 PUSH1 0x40 MSTORE CALLVALUE DUP1 ISZERO PUSH2 0xF JUMPI PUSH0 PUSH0 REVERT JUMPDEST POP PUSH1 0x4 CALLDATASIZE LT PUSH2 0x85 JUMPI PUSH0 CALLDATALOAD PUSH1 0xE0 SHR DUP1 PUSH4 0xDEAB8C75 GT PUSH2 0x58 JUMPI DUP1 PUSH4 0xDEAB8C75 EQ PUSH2 0x106 JUMPI DUP1 PUSH4 0xF4DEF44B EQ PUSH2 0x119 JUMPI DUP1 PUSH4 0xF9B6117F EQ PUSH2 0x139 JUMPI DUP1 PUSH4 0xFDFF9AAB EQ PUSH2 0x14B JUMPI PUSH0 PUSH0 REVERT JUMPDEST DUP1 PUSH4 0x42F54B89 EQ PUSH2 0x89 JUMPI DUP1 PUSH4 0x498D4707 EQ PUSH2 0xB9 JUMPI DUP1 PUSH4 0x9121F4EB EQ PUSH2 0xDE JUMPI DUP1 PUSH4 0xB3CE9DEA EQ PUSH2 0xF3 JUMPI JUMPDEST PUSH0 PUSH0 REVERT JUMPDEST PUSH1 0x1 SLOAD PUSH2 0x9C SWAP1 PUSH1 0x1 PUSH1 0x1 PUSH1 0xA0 SHL SUB AND DUP2 JUMP JUMPDEST PUSH1 0x40 MLOAD PUSH1 0x1 PUSH1 0x1 PUSH1 0xA0 SHL SUB SWAP1 SWAP2 AND DUP2 MSTORE PUSH1 0x20 ADD JUMPDEST PUSH1 0x40 MLOAD DUP1 SWAP2 SUB SWAP1 RETURN JUMPDEST PUSH2 0xCC PUSH2 0xC7 CALLDATASIZE PUSH1 0x4 PUSH2 0xB36 JUMP JUMPDEST PUSH2 0x15E JUMP JUMPDEST PUSH1 0x40 MLOAD PUSH2 0xB0 SWAP7 SWAP6 SWAP5 SWAP4 SWAP3 SWAP2 SWAP1 PUSH2 0xB7B JUMP JUMPDEST PUSH2 0xF1 PUSH2 0xEC CALLDATASIZE PUSH1 0x4 PUSH2 0xC14 JUMP JUMPDEST PUSH2 0x324 JUMP JUMPDEST STOP JUMPDEST PUSH2 0xF1 PUSH2 0x101 CALLDATASIZE PUSH1 0x4 PUSH2 0xC14 JUMP JUMPDEST PUSH2 0x580 JUMP JUMPDEST PUSH2 0xF1 PUSH2 0x114 CALLDATASIZE PUSH1 0x4 PUSH2 0xCBC JUMP JUMPDEST PUSH2 0x65D JUMP JUMPDEST PUSH2 0x12C PUSH2 0x127 CALLDATASIZE PUSH1 0x4 PUSH2 0xB36 JUMP JUMPDEST PUSH2 0x797 JUMP JUMPDEST PUSH1 0x40 MLOAD PUSH2 0xB0 SWAP2 SWAP1 PUSH2 0xCE5 JUMP JUMPDEST PUSH0 SLOAD PUSH2 0x9C SWAP1 PUSH1 0x1 PUSH1 0x1 PUSH1 0xA0 SHL SUB AND DUP2 JUMP JUMPDEST PUSH2 0xF1 PUSH2 0x159 CALLDATASIZE PUSH1 0x4 PUSH2 0xD66 JUMP JUMPDEST PUSH2 0x9BD JUMP JUMPDEST PUSH1 0x2 PUSH1 0x20 MSTORE PUSH0 SWAP1 DUP2 MSTORE PUSH1 0x40 SWAP1 KECCAK256 DUP1 SLOAD PUSH1 0x1 DUP3 ADD DUP1 SLOAD SWAP2 SWAP3 SWAP2 PUSH2 0x17F SWAP1 PUSH2 0xD86 JUMP JUMPDEST DUP1 PUSH1 0x1F ADD PUSH1 0x20 DUP1 SWAP2 DIV MUL PUSH1 0x20 ADD PUSH1 0x40 MLOAD SWAP1 DUP2 ADD PUSH1 0x40 MSTORE DUP1 SWAP3 SWAP2 SWAP1 DUP2 DUP2 MSTORE PUSH1 0x20 ADD DUP3 DUP1 SLOAD PUSH2 0x1AB SWAP1 PUSH2 0xD86 JUMP JUMPDEST DUP1 ISZERO PUSH2 0x1F6 JUMPI DUP1 PUSH1 0x1F LT PUSH2 0x1CD JUMPI PUSH2 0x100 DUP1 DUP4 SLOAD DIV MUL DUP4 MSTORE SWAP2 PUSH1 0x20 ADD SWAP2 PUSH2 0x1F6 JUMP JUMPDEST DUP3 ADD SWAP2 SWAP1 PUSH0 MSTORE PUSH1 0x20 PUSH0 KECCAK256 SWAP1 JUMPDEST DUP2 SLOAD DUP2 MSTORE SWAP1 PUSH1 0x1 ADD SWAP1 PUSH1 0x20 ADD DUP1 DUP4 GT PUSH2 0x1D9 JUMPI DUP3 SWAP1 SUB PUSH1 0x1F AND DUP3 ADD SWAP2 JUMPDEST POP POP POP POP POP SWAP1 DUP1 PUSH1 0x2 ADD DUP1 SLOAD PUSH2 0x20B SWAP1 PUSH2 0xD86 JUMP JUMPDEST DUP1 PUSH1 0x1F ADD PUSH1 0x20 DUP1 SWAP2 DIV MUL PUSH1 0x20 ADD PUSH1 0x40 MLOAD SWAP1 DUP2 ADD PUSH1 0x40 MSTORE DUP1 SWAP3 SWAP2 SWAP1 DUP2 DUP2 MSTORE PUSH1 0x20 ADD DUP3 DUP1 SLOAD PUSH2 0x237 SWAP1 PUSH2 0xD86 JUMP JUMPDEST DUP1 ISZERO PUSH2 0x282 JUMPI DUP1 PUSH1 0x1F LT PUSH2 0x259 JUMPI PUSH2 0x100 DUP1 DUP4 SLOAD DIV MUL DUP4 MSTORE SWAP2 PUSH1 0x20 ADD SWAP2 PUSH2 0x282 JUMP JUMPDEST DUP3 ADD SWAP2 SWAP1 PUSH0 MSTORE PUSH1 0x20 PUSH0 KECCAK256 SWAP1 JUMPDEST DUP2 SLOAD DUP2 MSTORE SWAP1 PUSH1 0x1 ADD SWAP1 PUSH1 0x20 ADD DUP1 DUP4 GT PUSH2 0x265 JUMPI DUP3 SWAP1 SUB PUSH1 0x1F AND DUP3 ADD SWAP2 JUMPDEST POP POP POP POP POP SWAP1 DUP1 PUSH1 0x3 ADD DUP1 SLOAD PUSH2 0x297 SWAP1 PUSH2 0xD86 JUMP JUMPDEST DUP1 PUSH1 0x1F ADD PUSH1 0x20 DUP1 SWAP2 DIV MUL PUSH1 0x20 ADD PUSH1 0x40 MLOAD SWAP1 DUP2 ADD PUSH1 0x40 MSTORE DUP1 SWAP3 SWAP2 SWAP1 DUP2 DUP2 MSTORE PUSH1 0x20 ADD DUP3 DUP1 SLOAD PUSH2 0x2C3 SWAP1 PUSH2 0xD86 JUMP JUMPDEST DUP1 ISZERO PUSH2 0x30E JUMPI DUP1 PUSH1 0x1F LT PUSH2 0x2E5 JUMPI PUSH2 0x100 DUP1 DUP4 SLOAD DIV MUL DUP4 MSTORE SWAP2 PUSH1 0x20 ADD SWAP2 PUSH2 0x30E JUMP JUMPDEST DUP3 ADD SWAP2 SWAP1 PUSH0 MSTORE PUSH1 0x20 PUSH0 KECCAK256 SWAP1 JUMPDEST DUP2 SLOAD DUP2 MSTORE SWAP1 PUSH1 0x1 ADD SWAP1 PUSH1 0x20 ADD DUP1 DUP4 GT PUSH2 0x2F1 JUMPI DUP3 SWAP1 SUB PUSH1 0x1F AND DUP3 ADD SWAP2 JUMPDEST POP POP POP POP POP SWAP1 DUP1 PUSH1 0x4 ADD SLOAD SWAP1 DUP1 PUSH1 0x5 ADD SLOAD SWAP1 POP DUP7 JUMP JUMPDEST PUSH1 0x1 SLOAD PUSH1 0x40 MLOAD PUSH4 0x935E01B PUSH1 0xE2 SHL DUP2 MSTORE ORIGIN PUSH1 0x4 DUP3 ADD MSTORE PUSH1 0x1 PUSH1 0x1 PUSH1 0xA0 SHL SUB SWAP1 SWAP2 AND SWAP1 PUSH4 0x24D7806C SWAP1 PUSH1 0x24 ADD PUSH1 0x20 PUSH1 0x40 MLOAD DUP1 DUP4 SUB DUP2 DUP7 GAS STATICCALL ISZERO DUP1 ISZERO PUSH2 0x36A JUMPI RETURNDATASIZE PUSH0 PUSH0 RETURNDATACOPY RETURNDATASIZE PUSH0 REVERT JUMPDEST POP POP POP POP PUSH1 0x40 MLOAD RETURNDATASIZE PUSH1 0x1F NOT PUSH1 0x1F DUP3 ADD AND DUP3 ADD DUP1 PUSH1 0x40 MSTORE POP DUP2 ADD SWAP1 PUSH2 0x38E SWAP2 SWAP1 PUSH2 0xDBE JUMP JUMPDEST PUSH2 0x3B3 JUMPI PUSH1 0x40 MLOAD PUSH3 0x461BCD PUSH1 0xE5 SHL DUP2 MSTORE PUSH1 0x4 ADD PUSH2 0x3AA SWAP1 PUSH2 0xDE4 JUMP JUMPDEST PUSH1 0x40 MLOAD DUP1 SWAP2 SUB SWAP1 REVERT JUMPDEST PUSH0 DUP8 DUP2 MSTORE PUSH1 0x2 PUSH1 0x20 MSTORE PUSH1 0x40 SWAP1 KECCAK256 SLOAD ISZERO PUSH2 0x40E JUMPI PUSH1 0x40 MLOAD PUSH3 0x461BCD PUSH1 0xE5 SHL DUP2 MSTORE PUSH1 0x20 PUSH1 0x4 DUP3 ADD MSTORE PUSH1 0x17 PUSH1 0x24 DUP3 ADD MSTORE PUSH32 0x537461666620494420616C726561647920657869737473000000000000000000 PUSH1 0x44 DUP3 ADD MSTORE PUSH1 0x64 ADD PUSH2 0x3AA JUMP JUMPDEST PUSH1 0x40 MLOAD DUP1 PUSH1 0xC0 ADD PUSH1 0x40 MSTORE DUP1 DUP9 DUP2 MSTORE PUSH1 0x20 ADD DUP8 DUP8 DUP1 DUP1 PUSH1 0x1F ADD PUSH1 0x20 DUP1 SWAP2 DIV MUL PUSH1 0x20 ADD PUSH1 0x40 MLOAD SWAP1 DUP2 ADD PUSH1 0x40 MSTORE DUP1 SWAP4 SWAP3 SWAP2 SWAP1 DUP2 DUP2 MSTORE PUSH1 0x20 ADD DUP4 DUP4 DUP1 DUP3 DUP5 CALLDATACOPY PUSH0 SWAP3 ADD SWAP2 SWAP1 SWAP2 MSTORE POP POP POP SWAP1 DUP3 MSTORE POP PUSH1 0x40 DUP1 MLOAD PUSH1 0x20 PUSH1 0x1F DUP9 ADD DUP2 SWAP1 DIV DUP2 MUL DUP3 ADD DUP2 ADD SWAP1 SWAP3 MSTORE DUP7 DUP2 MSTORE SWAP2 DUP2 ADD SWAP2 SWAP1 DUP8 SWAP1 DUP8 SWAP1 DUP2 SWAP1 DUP5 ADD DUP4 DUP3 DUP1 DUP3 DUP5 CALLDATACOPY PUSH0 SWAP3 ADD SWAP2 SWAP1 SWAP2 MSTORE POP POP POP SWAP1 DUP3 MSTORE POP PUSH1 0x40 DUP1 MLOAD PUSH1 0x20 PUSH1 0x1F DUP7 ADD DUP2 SWAP1 DIV DUP2 MUL DUP3 ADD DUP2 ADD SWAP1 SWAP3 MSTORE DUP5 DUP2 MSTORE SWAP2 DUP2 ADD SWAP2 SWAP1 DUP6 SWAP1 DUP6 SWAP1 DUP2 SWAP1 DUP5 ADD DUP4 DUP3 DUP1 DUP3 DUP5 CALLDATACOPY PUSH0 SWAP3 ADD DUP3 SWAP1 MSTORE POP SWAP4 DUP6 MSTORE POP POP POP PUSH1 0x20 DUP1 DUP4 ADD DUP3 SWAP1 MSTORE PUSH1 0x40 SWAP3 DUP4 ADD DUP3 SWAP1 MSTORE DUP11 DUP3 MSTORE PUSH1 0x2 DUP2 MSTORE SWAP2 SWAP1 KECCAK256 DUP3 MLOAD DUP2 SSTORE SWAP1 DUP3 ADD MLOAD PUSH1 0x1 DUP3 ADD SWAP1 PUSH2 0x4FB SWAP1 DUP3 PUSH2 0xE6F JUMP JUMPDEST POP PUSH1 0x40 DUP3 ADD MLOAD PUSH1 0x2 DUP3 ADD SWAP1 PUSH2 0x510 SWAP1 DUP3 PUSH2 0xE6F JUMP JUMPDEST POP PUSH1 0x60 DUP3 ADD MLOAD PUSH1 0x3 DUP3 ADD SWAP1 PUSH2 0x525 SWAP1 DUP3 PUSH2 0xE6F JUMP JUMPDEST POP PUSH1 0x80 DUP3 ADD MLOAD DUP2 PUSH1 0x4 ADD SSTORE PUSH1 0xA0 DUP3 ADD MLOAD DUP2 PUSH1 0x5 ADD SSTORE SWAP1 POP POP DUP7 PUSH32 0xB9918942A2A29D1164EA11D03222C9A01A970E1D37797E67A114DD2C6196DAC2 DUP8 DUP8 PUSH1 0x40 MLOAD PUSH2 0x56F SWAP3 SWAP2 SWAP1 PUSH2 0xF2A JUMP JUMPDEST PUSH1 0x40 MLOAD DUP1 SWAP2 SUB SWAP1 LOG2 POP POP POP POP POP POP POP JUMP JUMPDEST PUSH0 DUP8 DUP2 MSTORE PUSH1 0x2 PUSH1 0x20 MSTORE PUSH1 0x40 DUP2 KECCAK256 SLOAD SWAP1 SUB PUSH2 0x5D6 JUMPI PUSH1 0x40 MLOAD PUSH3 0x461BCD PUSH1 0xE5 SHL DUP2 MSTORE PUSH1 0x20 PUSH1 0x4 DUP3 ADD MSTORE PUSH1 0x17 PUSH1 0x24 DUP3 ADD MSTORE PUSH23 0x14DD18599988125108191BD95CC81B9BDD08195E1A5CDD PUSH1 0x4A SHL PUSH1 0x44 DUP3 ADD MSTORE PUSH1 0x64 ADD PUSH2 0x3AA JUMP JUMPDEST PUSH0 DUP8 DUP2 MSTORE PUSH1 0x2 PUSH1 0x20 MSTORE PUSH1 0x40 SWAP1 KECCAK256 PUSH1 0x1 ADD PUSH2 0x5F1 DUP7 DUP9 DUP4 PUSH2 0xF58 JUMP JUMPDEST POP PUSH0 DUP8 DUP2 MSTORE PUSH1 0x2 PUSH1 0x20 DUP2 SWAP1 MSTORE PUSH1 0x40 SWAP1 SWAP2 KECCAK256 ADD PUSH2 0x60E DUP5 DUP7 DUP4 PUSH2 0xF58 JUMP JUMPDEST POP PUSH0 DUP8 DUP2 MSTORE PUSH1 0x2 PUSH1 0x20 MSTORE PUSH1 0x40 SWAP1 KECCAK256 PUSH1 0x3 ADD PUSH2 0x62A DUP3 DUP5 DUP4 PUSH2 0xF58 JUMP JUMPDEST POP DUP7 PUSH32 0x27556B62664053DE7A418476F2C4ABC9B526D3C747991948D328082493D82C0E DUP8 DUP8 PUSH1 0x40 MLOAD PUSH2 0x56F SWAP3 SWAP2 SWAP1 PUSH2 0xF2A JUMP JUMPDEST PUSH1 0x1 SLOAD PUSH1 0x40 MLOAD PUSH4 0x935E01B PUSH1 0xE2 SHL DUP2 MSTORE ORIGIN PUSH1 0x4 DUP3 ADD MSTORE PUSH1 0x1 PUSH1 0x1 PUSH1 0xA0 SHL SUB SWAP1 SWAP2 AND SWAP1 PUSH4 0x24D7806C SWAP1 PUSH1 0x24 ADD PUSH1 0x20 PUSH1 0x40 MLOAD DUP1 DUP4 SUB DUP2 DUP7 GAS STATICCALL ISZERO DUP1 ISZERO PUSH2 0x6A3 JUMPI RETURNDATASIZE PUSH0 PUSH0 RETURNDATACOPY RETURNDATASIZE PUSH0 REVERT JUMPDEST POP POP POP POP PUSH1 0x40 MLOAD RETURNDATASIZE PUSH1 0x1F NOT PUSH1 0x1F DUP3 ADD AND DUP3 ADD DUP1 PUSH1 0x40 MSTORE POP DUP2 ADD SWAP1 PUSH2 0x6C7 SWAP2 SWAP1 PUSH2 0xDBE JUMP JUMPDEST PUSH2 0x6E3 JUMPI PUSH1 0x40 MLOAD PUSH3 0x461BCD PUSH1 0xE5 SHL DUP2 MSTORE PUSH1 0x4 ADD PUSH2 0x3AA SWAP1 PUSH2 0xDE4 JUMP JUMPDEST PUSH0 DUP4 DUP2 MSTORE PUSH1 0x2 PUSH1 0x20 MSTORE PUSH1 0x40 DUP2 KECCAK256 SLOAD SWAP1 SUB PUSH2 0x736 JUMPI PUSH1 0x40 MLOAD PUSH3 0x461BCD PUSH1 0xE5 SHL DUP2 MSTORE PUSH1 0x20 PUSH1 0x4 DUP3 ADD MSTORE PUSH1 0x14 PUSH1 0x24 DUP3 ADD MSTORE PUSH20 0x14DD18599988191BD95CC81B9BDD08195E1A5CDD PUSH1 0x62 SHL PUSH1 0x44 DUP3 ADD MSTORE PUSH1 0x64 ADD PUSH2 0x3AA JUMP JUMPDEST PUSH0 DUP4 DUP2 MSTORE PUSH1 0x2 PUSH1 0x20 SWAP1 DUP2 MSTORE PUSH1 0x40 SWAP2 DUP3 SWAP1 KECCAK256 PUSH1 0x4 DUP2 ADD DUP6 SWAP1 SSTORE PUSH1 0x5 ADD DUP4 SWAP1 SSTORE DUP2 MLOAD DUP6 DUP2 MSTORE SWAP1 DUP2 ADD DUP5 SWAP1 MSTORE SWAP1 DUP2 ADD DUP3 SWAP1 MSTORE PUSH32 0x9E2A40167F414F24ED49CBF67801D7CA9206EEA4D409F6734BED8F92B0C9F2DA SWAP1 PUSH1 0x60 ADD PUSH1 0x40 MLOAD DUP1 SWAP2 SUB SWAP1 LOG1 POP POP POP JUMP JUMPDEST PUSH2 0x7CD PUSH1 0x40 MLOAD DUP1 PUSH1 0xC0 ADD PUSH1 0x40 MSTORE DUP1 PUSH0 DUP2 MSTORE PUSH1 0x20 ADD PUSH1 0x60 DUP2 MSTORE PUSH1 0x20 ADD PUSH1 0x60 DUP2 MSTORE PUSH1 0x20 ADD PUSH1 0x60 DUP2 MSTORE PUSH1 0x20 ADD PUSH0 DUP2 MSTORE PUSH1 0x20 ADD PUSH0 DUP2 MSTORE POP SWAP1 JUMP JUMPDEST PUSH1 0x2 PUSH0 DUP4 DUP2 MSTORE PUSH1 0x20 ADD SWAP1 DUP2 MSTORE PUSH1 0x20 ADD PUSH0 KECCAK256 PUSH1 0x40 MLOAD DUP1 PUSH1 0xC0 ADD PUSH1 0x40 MSTORE SWAP1 DUP2 PUSH0 DUP3 ADD SLOAD DUP2 MSTORE PUSH1 0x20 ADD PUSH1 0x1 DUP3 ADD DUP1 SLOAD PUSH2 0x802 SWAP1 PUSH2 0xD86 JUMP JUMPDEST DUP1 PUSH1 0x1F ADD PUSH1 0x20 DUP1 SWAP2 DIV MUL PUSH1 0x20 ADD PUSH1 0x40 MLOAD SWAP1 DUP2 ADD PUSH1 0x40 MSTORE DUP1 SWAP3 SWAP2 SWAP1 DUP2 DUP2 MSTORE PUSH1 0x20 ADD DUP3 DUP1 SLOAD PUSH2 0x82E SWAP1 PUSH2 0xD86 JUMP JUMPDEST DUP1 ISZERO PUSH2 0x879 JUMPI DUP1 PUSH1 0x1F LT PUSH2 0x850 JUMPI PUSH2 0x100 DUP1 DUP4 SLOAD DIV MUL DUP4 MSTORE SWAP2 PUSH1 0x20 ADD SWAP2 PUSH2 0x879 JUMP JUMPDEST DUP3 ADD SWAP2 SWAP1 PUSH0 MSTORE PUSH1 0x20 PUSH0 KECCAK256 SWAP1 JUMPDEST DUP2 SLOAD DUP2 MSTORE SWAP1 PUSH1 0x1 ADD SWAP1 PUSH1 0x20 ADD DUP1 DUP4 GT PUSH2 0x85C JUMPI DUP3 SWAP1 SUB PUSH1 0x1F AND DUP3 ADD SWAP2 JUMPDEST POP POP POP POP POP DUP2 MSTORE PUSH1 0x20 ADD PUSH1 0x2 DUP3 ADD DUP1 SLOAD PUSH2 0x892 SWAP1 PUSH2 0xD86 JUMP JUMPDEST DUP1 PUSH1 0x1F ADD PUSH1 0x20 DUP1 SWAP2 DIV MUL PUSH1 0x20 ADD PUSH1 0x40 MLOAD SWAP1 DUP2 ADD PUSH1 0x40 MSTORE DUP1 SWAP3 SWAP2 SWAP1 DUP2 DUP2 MSTORE PUSH1 0x20 ADD DUP3 DUP1 SLOAD PUSH2 0x8BE SWAP1 PUSH2 0xD86 JUMP JUMPDEST DUP1 ISZERO PUSH2 0x909 JUMPI DUP1 PUSH1 0x1F LT PUSH2 0x8E0 JUMPI PUSH2 0x100 DUP1 DUP4 SLOAD DIV MUL DUP4 MSTORE SWAP2 PUSH1 0x20 ADD SWAP2 PUSH2 0x909 JUMP JUMPDEST DUP3 ADD SWAP2 SWAP1 PUSH0 MSTORE PUSH1 0x20 PUSH0 KECCAK256 SWAP1 JUMPDEST DUP2 SLOAD DUP2 MSTORE SWAP1 PUSH1 0x1 ADD SWAP1 PUSH1 0x20 ADD DUP1 DUP4 GT PUSH2 0x8EC JUMPI DUP3 SWAP1 SUB PUSH1 0x1F AND DUP3 ADD SWAP2 JUMPDEST POP POP POP POP POP DUP2 MSTORE PUSH1 0x20 ADD PUSH1 0x3 DUP3 ADD DUP1 SLOAD PUSH2 0x922 SWAP1 PUSH2 0xD86 JUMP JUMPDEST DUP1 PUSH1 0x1F ADD PUSH1 0x20 DUP1 SWAP2 DIV MUL PUSH1 0x20 ADD PUSH1 0x40 MLOAD SWAP1 DUP2 ADD PUSH1 0x40 MSTORE DUP1 SWAP3 SWAP2 SWAP1 DUP2 DUP2 MSTORE PUSH1 0x20 ADD DUP3 DUP1 SLOAD PUSH2 0x94E SWAP1 PUSH2 0xD86 JUMP JUMPDEST DUP1 ISZERO PUSH2 0x999 JUMPI DUP1 PUSH1 0x1F LT PUSH2 0x970 JUMPI PUSH2 0x100 DUP1 DUP4 SLOAD DIV MUL DUP4 MSTORE SWAP2 PUSH1 0x20 ADD SWAP2 PUSH2 0x999 JUMP JUMPDEST DUP3 ADD SWAP2 SWAP1 PUSH0 MSTORE PUSH1 0x20 PUSH0 KECCAK256 SWAP1 JUMPDEST DUP2 SLOAD DUP2 MSTORE SWAP1 PUSH1 0x1 ADD SWAP1 PUSH1 0x20 ADD DUP1 DUP4 GT PUSH2 0x97C JUMPI DUP3 SWAP1 SUB PUSH1 0x1F AND DUP3 ADD SWAP2 JUMPDEST POP POP POP POP POP DUP2 MSTORE PUSH1 0x20 ADD PUSH1 0x4 DUP3 ADD SLOAD DUP2 MSTORE PUSH1 0x20 ADD PUSH1 0x5 DUP3 ADD SLOAD DUP2 MSTORE POP POP SWAP1 POP SWAP2 SWAP1 POP JUMP JUMPDEST PUSH1 0x1 SLOAD PUSH1 0x40 MLOAD PUSH4 0x935E01B PUSH1 0xE2 SHL DUP2 MSTORE ORIGIN PUSH1 0x4 DUP3 ADD MSTORE PUSH1 0x1 PUSH1 0x1 PUSH1 0xA0 SHL SUB SWAP1 SWAP2 AND SWAP1 PUSH4 0x24D7806C SWAP1 PUSH1 0x24 ADD PUSH1 0x20 PUSH1 0x40 MLOAD DUP1 DUP4 SUB DUP2 DUP7 GAS STATICCALL ISZERO DUP1 ISZERO PUSH2 0xA03 JUMPI RETURNDATASIZE PUSH0 PUSH0 RETURNDATACOPY RETURNDATASIZE PUSH0 REVERT JUMPDEST POP POP POP POP PUSH1 0x40 MLOAD RETURNDATASIZE PUSH1 0x1F NOT PUSH1 0x1F DUP3 ADD AND DUP3 ADD DUP1 PUSH1 0x40 MSTORE POP DUP2 ADD SWAP1 PUSH2 0xA27 SWAP2 SWAP1 PUSH2 0xDBE JUMP JUMPDEST PUSH2 0xA43 JUMPI PUSH1 0x40 MLOAD PUSH3 0x461BCD PUSH1 0xE5 SHL DUP2 MSTORE PUSH1 0x4 ADD PUSH2 0x3AA SWAP1 PUSH2 0xDE4 JUMP JUMPDEST PUSH0 DUP2 DUP2 MSTORE PUSH1 0x2 PUSH1 0x20 MSTORE PUSH1 0x40 DUP2 KECCAK256 SLOAD SWAP1 SUB PUSH2 0xA99 JUMPI PUSH1 0x40 MLOAD PUSH3 0x461BCD PUSH1 0xE5 SHL DUP2 MSTORE PUSH1 0x20 PUSH1 0x4 DUP3 ADD MSTORE PUSH1 0x17 PUSH1 0x24 DUP3 ADD MSTORE PUSH23 0x14DD18599988125108191BD95CC81B9BDD08195E1A5CDD PUSH1 0x4A SHL PUSH1 0x44 DUP3 ADD MSTORE PUSH1 0x64 ADD PUSH2 0x3AA JUMP JUMPDEST PUSH0 SLOAD PUSH1 0x40 MLOAD PUSH4 0x3F9FB5FD PUSH1 0xE0 SHL DUP2 MSTORE PUSH1 0x4 DUP2 ADD DUP5 SWAP1 MSTORE PUSH1 0x24 DUP2 ADD DUP4 SWAP1 MSTORE PUSH1 0x1 PUSH1 0x1 PUSH1 0xA0 SHL SUB SWAP1 SWAP2 AND SWAP1 PUSH4 0x3F9FB5FD SWAP1 PUSH1 0x44 ADD PUSH0 PUSH1 0x40 MLOAD DUP1 DUP4 SUB DUP2 PUSH0 DUP8 DUP1 EXTCODESIZE ISZERO DUP1 ISZERO PUSH2 0xAE2 JUMPI PUSH0 PUSH0 REVERT JUMPDEST POP GAS CALL ISZERO DUP1 ISZERO PUSH2 0xAF4 JUMPI RETURNDATASIZE PUSH0 PUSH0 RETURNDATACOPY RETURNDATASIZE PUSH0 REVERT JUMPDEST POP POP POP POP DUP1 PUSH32 0x37FE5BA29264C8DEBD409A782C67744BF54751791CCF1197762B9819C10AB610 DUP4 PUSH1 0x40 MLOAD PUSH2 0xB2A SWAP2 DUP2 MSTORE PUSH1 0x20 ADD SWAP1 JUMP JUMPDEST PUSH1 0x40 MLOAD DUP1 SWAP2 SUB SWAP1 LOG2 POP POP JUMP JUMPDEST PUSH0 PUSH1 0x20 DUP3 DUP5 SUB SLT ISZERO PUSH2 0xB46 JUMPI PUSH0 PUSH0 REVERT JUMPDEST POP CALLDATALOAD SWAP2 SWAP1 POP JUMP JUMPDEST PUSH0 DUP2 MLOAD DUP1 DUP5 MSTORE DUP1 PUSH1 0x20 DUP5 ADD PUSH1 0x20 DUP7 ADD MCOPY PUSH0 PUSH1 0x20 DUP3 DUP7 ADD ADD MSTORE PUSH1 0x20 PUSH1 0x1F NOT PUSH1 0x1F DUP4 ADD AND DUP6 ADD ADD SWAP2 POP POP SWAP3 SWAP2 POP POP JUMP JUMPDEST DUP7 DUP2 MSTORE PUSH1 0xC0 PUSH1 0x20 DUP3 ADD MSTORE PUSH0 PUSH2 0xB93 PUSH1 0xC0 DUP4 ADD DUP9 PUSH2 0xB4D JUMP JUMPDEST DUP3 DUP2 SUB PUSH1 0x40 DUP5 ADD MSTORE PUSH2 0xBA5 DUP2 DUP9 PUSH2 0xB4D JUMP JUMPDEST SWAP1 POP DUP3 DUP2 SUB PUSH1 0x60 DUP5 ADD MSTORE PUSH2 0xBB9 DUP2 DUP8 PUSH2 0xB4D JUMP JUMPDEST PUSH1 0x80 DUP5 ADD SWAP6 SWAP1 SWAP6 MSTORE POP POP PUSH1 0xA0 ADD MSTORE SWAP5 SWAP4 POP POP POP POP JUMP JUMPDEST PUSH0 PUSH0 DUP4 PUSH1 0x1F DUP5 ADD SLT PUSH2 0xBDF JUMPI PUSH0 PUSH0 REVERT JUMPDEST POP DUP2 CALLDATALOAD PUSH8 0xFFFFFFFFFFFFFFFF DUP2 GT ISZERO PUSH2 0xBF6 JUMPI PUSH0 PUSH0 REVERT JUMPDEST PUSH1 0x20 DUP4 ADD SWAP2 POP DUP4 PUSH1 0x20 DUP3 DUP6 ADD ADD GT ISZERO PUSH2 0xC0D JUMPI PUSH0 PUSH0 REVERT JUMPDEST SWAP3 POP SWAP3 SWAP1 POP JUMP JUMPDEST PUSH0 PUSH0 PUSH0 PUSH0 PUSH0 PUSH0 PUSH0 PUSH1 0x80 DUP9 DUP11 SUB SLT ISZERO PUSH2 0xC2A JUMPI PUSH0 PUSH0 REVERT JUMPDEST DUP8 CALLDATALOAD SWAP7 POP PUSH1 0x20 DUP9 ADD CALLDATALOAD PUSH8 0xFFFFFFFFFFFFFFFF DUP2 GT ISZERO PUSH2 0xC47 JUMPI PUSH0 PUSH0 REVERT JUMPDEST PUSH2 0xC53 DUP11 DUP3 DUP12 ADD PUSH2 0xBCF JUMP JUMPDEST SWAP1 SWAP8 POP SWAP6 POP POP PUSH1 0x40 DUP9 ADD CALLDATALOAD PUSH8 0xFFFFFFFFFFFFFFFF DUP2 GT ISZERO PUSH2 0xC72 JUMPI PUSH0 PUSH0 REVERT JUMPDEST PUSH2 0xC7E DUP11 DUP3 DUP12 ADD PUSH2 0xBCF JUMP JUMPDEST SWAP1 SWAP6 POP SWAP4 POP POP PUSH1 0x60 DUP9 ADD CALLDATALOAD PUSH8 0xFFFFFFFFFFFFFFFF DUP2 GT ISZERO PUSH2 0xC9D JUMPI PUSH0 PUSH0 REVERT JUMPDEST PUSH2 0xCA9 DUP11 DUP3 DUP12 ADD PUSH2 0xBCF JUMP JUMPDEST SWAP9 SWAP12 SWAP8 SWAP11 POP SWAP6 SWAP9 POP SWAP4 SWAP7 SWAP3 SWAP6 SWAP3 SWAP4 POP POP POP JUMP JUMPDEST PUSH0 PUSH0 PUSH0 PUSH1 0x60 DUP5 DUP7 SUB SLT ISZERO PUSH2 0xCCE JUMPI PUSH0 PUSH0 REVERT JUMPDEST POP POP DUP2 CALLDATALOAD SWAP4 PUSH1 0x20 DUP4 ADD CALLDATALOAD SWAP4 POP PUSH1 0x40 SWAP1 SWAP3 ADD CALLDATALOAD SWAP2 SWAP1 POP JUMP JUMPDEST PUSH1 0x20 DUP2 MSTORE DUP2 MLOAD PUSH1 0x20 DUP3 ADD MSTORE PUSH0 PUSH1 0x20 DUP4 ADD MLOAD PUSH1 0xC0 PUSH1 0x40 DUP5 ADD MSTORE PUSH2 0xD0A PUSH1 0xE0 DUP5 ADD DUP3 PUSH2 0xB4D JUMP JUMPDEST SWAP1 POP PUSH1 0x40 DUP5 ADD MLOAD PUSH1 0x1F NOT DUP5 DUP4 SUB ADD PUSH1 0x60 DUP6 ADD MSTORE PUSH2 0xD27 DUP3 DUP3 PUSH2 0xB4D JUMP JUMPDEST SWAP2 POP POP PUSH1 0x60 DUP5 ADD MLOAD PUSH1 0x1F NOT DUP5 DUP4 SUB ADD PUSH1 0x80 DUP6 ADD MSTORE PUSH2 0xD45 DUP3 DUP3 PUSH2 0xB4D JUMP JUMPDEST SWAP2 POP POP PUSH1 0x80 DUP5 ADD MLOAD PUSH1 0xA0 DUP5 ADD MSTORE PUSH1 0xA0 DUP5 ADD MLOAD PUSH1 0xC0 DUP5 ADD MSTORE DUP1 SWAP2 POP POP SWAP3 SWAP2 POP POP JUMP JUMPDEST PUSH0 PUSH0 PUSH1 0x40 DUP4 DUP6 SUB SLT ISZERO PUSH2 0xD77 JUMPI PUSH0 PUSH0 REVERT JUMPDEST POP POP DUP1 CALLDATALOAD SWAP3 PUSH1 0x20 SWAP1 SWAP2 ADD CALLDATALOAD SWAP2 POP JUMP JUMPDEST PUSH1 0x1 DUP2 DUP2 SHR SWAP1 DUP3 AND DUP1 PUSH2 0xD9A JUMPI PUSH1 0x7F DUP3 AND SWAP2 POP JUMPDEST PUSH1 0x20 DUP3 LT DUP2 SUB PUSH2 0xDB8 JUMPI PUSH4 0x4E487B71 PUSH1 0xE0 SHL PUSH0 MSTORE PUSH1 0x22 PUSH1 0x4 MSTORE PUSH1 0x24 PUSH0 REVERT JUMPDEST POP SWAP2 SWAP1 POP JUMP JUMPDEST PUSH0 PUSH1 0x20 DUP3 DUP5 SUB SLT ISZERO PUSH2 0xDCE JUMPI PUSH0 PUSH0 REVERT JUMPDEST DUP2 MLOAD DUP1 ISZERO ISZERO DUP2 EQ PUSH2 0xDDD JUMPI PUSH0 PUSH0 REVERT JUMPDEST SWAP4 SWAP3 POP POP POP JUMP JUMPDEST PUSH1 0x20 DUP1 DUP3 MSTORE PUSH1 0x11 SWAP1 DUP3 ADD MSTORE PUSH17 0x2CB7BA9030B932903737BA1030B236B4B7 PUSH1 0x79 SHL PUSH1 0x40 DUP3 ADD MSTORE PUSH1 0x60 ADD SWAP1 JUMP JUMPDEST PUSH4 0x4E487B71 PUSH1 0xE0 SHL PUSH0 MSTORE PUSH1 0x41 PUSH1 0x4 MSTORE PUSH1 0x24 PUSH0 REVERT JUMPDEST PUSH1 0x1F DUP3 GT ISZERO PUSH2 0xE6A JUMPI DUP1 PUSH0 MSTORE PUSH1 0x20 PUSH0 KECCAK256 PUSH1 0x1F DUP5 ADD PUSH1 0x5 SHR DUP2 ADD PUSH1 0x20 DUP6 LT ISZERO PUSH2 0xE48 JUMPI POP DUP1 JUMPDEST PUSH1 0x1F DUP5 ADD PUSH1 0x5 SHR DUP3 ADD SWAP2 POP JUMPDEST DUP2 DUP2 LT ISZERO PUSH2 0xE67 JUMPI PUSH0 DUP2 SSTORE PUSH1 0x1 ADD PUSH2 0xE54 JUMP JUMPDEST POP POP JUMPDEST POP POP POP JUMP JUMPDEST DUP2 MLOAD PUSH8 0xFFFFFFFFFFFFFFFF DUP2 GT ISZERO PUSH2 0xE89 JUMPI PUSH2 0xE89 PUSH2 0xE0F JUMP JUMPDEST PUSH2 0xE9D DUP2 PUSH2 0xE97 DUP5 SLOAD PUSH2 0xD86 JUMP JUMPDEST DUP5 PUSH2 0xE23 JUMP JUMPDEST PUSH1 0x20 PUSH1 0x1F DUP3 GT PUSH1 0x1 DUP2 EQ PUSH2 0xECF JUMPI PUSH0 DUP4 ISZERO PUSH2 0xEB8 JUMPI POP DUP5 DUP3 ADD MLOAD JUMPDEST PUSH0 NOT PUSH1 0x3 DUP6 SWAP1 SHL SHR NOT AND PUSH1 0x1 DUP5 SWAP1 SHL OR DUP5 SSTORE PUSH2 0xE67 JUMP JUMPDEST PUSH0 DUP5 DUP2 MSTORE PUSH1 0x20 DUP2 KECCAK256 PUSH1 0x1F NOT DUP6 AND SWAP2 JUMPDEST DUP3 DUP2 LT ISZERO PUSH2 0xEFE JUMPI DUP8 DUP6 ADD MLOAD DUP3 SSTORE PUSH1 0x20 SWAP5 DUP6 ADD SWAP5 PUSH1 0x1 SWAP1 SWAP3 ADD SWAP2 ADD PUSH2 0xEDE JUMP JUMPDEST POP DUP5 DUP3 LT ISZERO PUSH2 0xF1B JUMPI DUP7 DUP5 ADD MLOAD PUSH0 NOT PUSH1 0x3 DUP8 SWAP1 SHL PUSH1 0xF8 AND SHR NOT AND DUP2 SSTORE JUMPDEST POP POP POP POP PUSH1 0x1 SWAP1 DUP2 SHL ADD SWAP1 SSTORE POP JUMP JUMPDEST PUSH1 0x20 DUP2 MSTORE DUP2 PUSH1 0x20 DUP3 ADD MSTORE DUP2 DUP4 PUSH1 0x40 DUP4 ADD CALLDATACOPY PUSH0 DUP2 DUP4 ADD PUSH1 0x40 SWAP1 DUP2 ADD SWAP2 SWAP1 SWAP2 MSTORE PUSH1 0x1F SWAP1 SWAP3 ADD PUSH1 0x1F NOT AND ADD ADD SWAP2 SWAP1 POP JUMP JUMPDEST PUSH8 0xFFFFFFFFFFFFFFFF DUP4 GT ISZERO PUSH2 0xF70 JUMPI PUSH2 0xF70 PUSH2 0xE0F JUMP JUMPDEST PUSH2 0xF84 DUP4 PUSH2 0xF7E DUP4 SLOAD PUSH2 0xD86 JUMP JUMPDEST DUP4 PUSH2 0xE23 JUMP JUMPDEST PUSH0 PUSH1 0x1F DUP5 GT PUSH1 0x1 DUP2 EQ PUSH2 0xFB5 JUMPI PUSH0 DUP6 ISZERO PUSH2 0xF9E JUMPI POP DUP4 DUP3 ADD CALLDATALOAD JUMPDEST PUSH0 NOT PUSH1 0x3 DUP8 SWAP1 SHL SHR NOT AND PUSH1 0x1 DUP7 SWAP1 SHL OR DUP4 SSTORE PUSH2 0xE67 JUMP JUMPDEST PUSH0 DUP4 DUP2 MSTORE PUSH1 0x20 DUP2 KECCAK256 PUSH1 0x1F NOT DUP8 AND SWAP2 JUMPDEST DUP3 DUP2 LT ISZERO PUSH2 0xFE4 JUMPI DUP7 DUP6 ADD CALLDATALOAD DUP3 SSTORE PUSH1 0x20 SWAP5 DUP6 ADD SWAP5 PUSH1 0x1 SWAP1 SWAP3 ADD SWAP2 ADD PUSH2 0xFC4 JUMP JUMPDEST POP DUP7 DUP3 LT ISZERO PUSH2 0x1000 JUMPI PUSH0 NOT PUSH1 0xF8 DUP9 PUSH1 0x3 SHL AND SHR NOT DUP5 DUP8 ADD CALLDATALOAD AND DUP2 SSTORE JUMPDEST POP POP PUSH1 0x1 DUP6 PUSH1 0x1 SHL ADD DUP4 SSTORE POP POP POP POP POP JUMP INVALID LOG2 PUSH5 0x6970667358 0x22 SLT KECCAK256 EXP LOG2 0x2C ISZERO LOG4 PUSH7 0xA85C80A9AE98E3 PUSH0 RETF SDIV SDIV EXTDELEGATECALL TIMESTAMP PUSH26 0xEF324EBDCB646A360D1FC13364736F6C634300081E0033000000 "
				},
				"gasEstimates": {
					"creation": {
						"codeDepositCost": "833600",
						"executionCost": "infinite",
						"totalCost": "infinite"
					},
					"external": {
						"addStaff(uint256,string,string,string)": "infinite",
						"addStaffToOrder(uint256,uint256)": "infinite",
						"getStaff(uint256)": "infinite",
						"orderManager()": "2368",
						"roleAccess()": "2326",
						"staffs(uint256)": "infinite",
						"updateRatingStaff(uint256,uint256,uint256)": "infinite",
						"updateStaffInfo(uint256,string,string,string)": "infinite"
					}
				},
				"methodIdentifiers": {
					"addStaff(uint256,string,string,string)": "9121f4eb",
					"addStaffToOrder(uint256,uint256)": "fdff9aab",
					"getStaff(uint256)": "f4def44b",
					"orderManager()": "f9b6117f",
					"roleAccess()": "42f54b89",
					"staffs(uint256)": "498d4707",
					"updateRatingStaff(uint256,uint256,uint256)": "deab8c75",
					"updateStaffInfo(uint256,string,string,string)": "b3ce9dea"
				}
			},
			"storageLayout": {
				"storage": [
					{
						"astId": 289,
						"contract": "contracts/manager/StaffManager.sol:StaffManagement",
						"label": "orderManager",
						"offset": 0,
						"slot": "0",
						"type": "t_contract(IOrderManager)203"
					},
					{
						"astId": 292,
						"contract": "contracts/manager/StaffManager.sol:StaffManagement",
						"label": "roleAccess",
						"offset": 0,
						"slot": "1",
						"type": "t_contract(RoleAccess)98"
					},
					{
						"astId": 297,
						"contract": "contracts/manager/StaffManager.sol:StaffManagement",
						"label": "staffs",
						"offset": 0,
						"slot": "2",
						"type": "t_mapping(t_uint256,t_struct(Staff)586_storage)"
					}
				],
				"types": {
					"t_contract(IOrderManager)203": {
						"encoding": "inplace",
						"label": "contract IOrderManager",
						"numberOfBytes": "20"
					},
					"t_contract(RoleAccess)98": {
						"encoding": "inplace",
						"label": "contract RoleAccess",
						"numberOfBytes": "20"
					},
					"t_mapping(t_uint256,t_struct(Staff)586_storage)": {
						"encoding": "mapping",
						"key": "t_uint256",
						"label": "mapping(uint256 => struct Staff)",
						"numberOfBytes": "32",
						"value": "t_struct(Staff)586_storage"
					},
					"t_string_storage": {
						"encoding": "bytes",
						"label": "string",
						"numberOfBytes": "32"
					},
					"t_struct(Staff)586_storage": {
						"encoding": "inplace",
						"label": "struct Staff",
						"members": [
							{
								"astId": 575,
								"contract": "contracts/manager/StaffManager.sol:StaffManagement",
								"label": "staffId",
								"offset": 0,
								"slot": "0",
								"type": "t_uint256"
							},
							{
								"astId": 577,
								"contract": "contracts/manager/StaffManager.sol:StaffManagement",
								"label": "name",
								"offset": 0,
								"slot": "1",
								"type": "t_string_storage"
							},
							{
								"astId": 579,
								"contract": "contracts/manager/StaffManager.sol:StaffManagement",
								"label": "dob",
								"offset": 0,
								"slot": "2",
								"type": "t_string_storage"
							},
							{
								"astId": 581,
								"contract": "contracts/manager/StaffManager.sol:StaffManagement",
								"label": "phone",
								"offset": 0,
								"slot": "3",
								"type": "t_string_storage"
							},
							{
								"astId": 583,
								"contract": "contracts/manager/StaffManager.sol:StaffManagement",
								"label": "sumRating",
								"offset": 0,
								"slot": "4",
								"type": "t_uint256"
							},
							{
								"astId": 585,
								"contract": "contracts/manager/StaffManager.sol:StaffManagement",
								"label": "countRating",
								"offset": 0,
								"slot": "5",
								"type": "t_uint256"
							}
						],
						"numberOfBytes": "192"
					},
					"t_uint256": {
						"encoding": "inplace",
						"label": "uint256",
						"numberOfBytes": "32"
					}
				}
			},
			"userdoc": {
				"kind": "user",
				"methods": {},
				"version": 1
			}
		}
	}
}