{
	"contracts/manager/FoodRating.sol": {
		"FoodRatingManager": {
			"abi": [
				{
					"inputs": [
						{
							"internalType": "address",
							"name": "_roleAccess",
							"type": "address"
						}
					],
					"stateMutability": "nonpayable",
					"type": "constructor"
				},
				{
					"anonymous": false,
					"inputs": [
						{
							"indexed": false,
							"internalType": "uint256",
							"name": "ratingId",
							"type": "uint256"
						},
						{
							"indexed": false,
							"internalType": "uint256",
							"name": "foodId",
							"type": "uint256"
						},
						{
							"indexed": false,
							"internalType": "address",
							"name": "reviewer",
							"type": "address"
						},
						{
							"indexed": false,
							"internalType": "uint8",
							"name": "stars",
							"type": "uint8"
						}
					],
					"name": "FoodRatingAdded",
					"type": "event"
				},
				{
					"anonymous": false,
					"inputs": [
						{
							"indexed": false,
							"internalType": "uint256",
							"name": "ratingId",
							"type": "uint256"
						},
						{
							"indexed": false,
							"internalType": "uint256",
							"name": "foodId",
							"type": "uint256"
						}
					],
					"name": "FoodRatingDeleted",
					"type": "event"
				},
				{
					"anonymous": false,
					"inputs": [
						{
							"indexed": false,
							"internalType": "uint256",
							"name": "ratingId",
							"type": "uint256"
						},
						{
							"indexed": false,
							"internalType": "uint256",
							"name": "foodId",
							"type": "uint256"
						},
						{
							"indexed": false,
							"internalType": "address",
							"name": "reviewer",
							"type": "address"
						},
						{
							"indexed": false,
							"internalType": "uint8",
							"name": "stars",
							"type": "uint8"
						}
					],
					"name": "FoodRatingUpdated",
					"type": "event"
				},
				{
					"inputs": [
						{
							"internalType": "uint256",
							"name": "foodId",
							"type": "uint256"
						},
						{
							"internalType": "string",
							"name": "content",
							"type": "string"
						},
						{
							"internalType": "uint8",
							"name": "stars",
							"type": "uint8"
						}
					],
					"name": "addFoodRating",
					"outputs": [
						{
							"internalType": "uint256",
							"name": "",
							"type": "uint256"
						}
					],
					"stateMutability": "nonpayable",
					"type": "function"
				},
				{
					"inputs": [
						{
							"internalType": "uint256",
							"name": "ratingId",
							"type": "uint256"
						}
					],
					"name": "deleteFoodRating",
					"outputs": [],
					"stateMutability": "nonpayable",
					"type": "function"
				},
				{
					"inputs": [
						{
							"internalType": "uint256",
							"name": "",
							"type": "uint256"
						},
						{
							"internalType": "uint256",
							"name": "",
							"type": "uint256"
						}
					],
					"name": "foodIdToRatingIds",
					"outputs": [
						{
							"internalType": "uint256",
							"name": "",
							"type": "uint256"
						}
					],
					"stateMutability": "view",
					"type": "function"
				},
				{
					"inputs": [],
					"name": "foodManager",
					"outputs": [
						{
							"internalType": "contract IFoodManager",
							"name": "",
							"type": "address"
						}
					],
					"stateMutability": "view",
					"type": "function"
				},
				{
					"inputs": [
						{
							"internalType": "uint256",
							"name": "",
							"type": "uint256"
						}
					],
					"name": "foodRatings",
					"outputs": [
						{
							"internalType": "uint256",
							"name": "id",
							"type": "uint256"
						},
						{
							"internalType": "address",
							"name": "reviewer",
							"type": "address"
						},
						{
							"internalType": "uint256",
							"name": "foodId",
							"type": "uint256"
						},
						{
							"internalType": "string",
							"name": "content",
							"type": "string"
						},
						{
							"internalType": "uint8",
							"name": "stars",
							"type": "uint8"
						},
						{
							"internalType": "uint256",
							"name": "timestamp",
							"type": "uint256"
						}
					],
					"stateMutability": "view",
					"type": "function"
				},
				{
					"inputs": [
						{
							"internalType": "uint256",
							"name": "foodId",
							"type": "uint256"
						}
					],
					"name": "getFoodRatingsByFoodId",
					"outputs": [
						{
							"components": [
								{
									"internalType": "uint256",
									"name": "id",
									"type": "uint256"
								},
								{
									"internalType": "address",
									"name": "reviewer",
									"type": "address"
								},
								{
									"internalType": "uint256",
									"name": "foodId",
									"type": "uint256"
								},
								{
									"internalType": "string",
									"name": "content",
									"type": "string"
								},
								{
									"internalType": "uint8",
									"name": "stars",
									"type": "uint8"
								},
								{
									"internalType": "uint256",
									"name": "timestamp",
									"type": "uint256"
								}
							],
							"internalType": "struct FoodRating[]",
							"name": "",
							"type": "tuple[]"
						}
					],
					"stateMutability": "view",
					"type": "function"
				},
				{
					"inputs": [],
					"name": "nextFoodRatingId",
					"outputs": [
						{
							"internalType": "uint256",
							"name": "",
							"type": "uint256"
						}
					],
					"stateMutability": "view",
					"type": "function"
				},
				{
					"inputs": [],
					"name": "roleAccess",
					"outputs": [
						{
							"internalType": "contract RoleAccess",
							"name": "",
							"type": "address"
						}
					],
					"stateMutability": "view",
					"type": "function"
				},
				{
					"inputs": [
						{
							"internalType": "address",
							"name": "_foodManager",
							"type": "address"
						}
					],
					"name": "setFoodManager",
					"outputs": [],
					"stateMutability": "nonpayable",
					"type": "function"
				},
				{
					"inputs": [
						{
							"internalType": "uint256",
							"name": "ratingId",
							"type": "uint256"
						},
						{
							"internalType": "string",
							"name": "content",
							"type": "string"
						},
						{
							"internalType": "uint8",
							"name": "stars",
							"type": "uint8"
						}
					],
					"name": "updateFoodRating",
					"outputs": [],
					"stateMutability": "nonpayable",
					"type": "function"
				}
			],
			"devdoc": {
				"kind": "dev",
				"methods": {},
				"version": 1
			},
			"evm": {
				"assembly": "    /* \"contracts/manager/FoodRating.sol\":188:4446  contract FoodRatingManager is IFoodRatingManager {... */\n  mstore(0x40, 0x80)\n    /* \"contracts/manager/FoodRating.sol\":348:349  1 */\n  0x01\n    /* \"contracts/manager/FoodRating.sol\":317:349  uint public nextFoodRatingId = 1 */\n  0x02\n  sstore\n    /* \"contracts/manager/FoodRating.sol\":701:789  constructor(address _roleAccess) {... */\n  callvalue\n  dup1\n  iszero\n  tag_1\n  jumpi\n  revert(0x00, 0x00)\ntag_1:\n  pop\n  mload(0x40)\n  sub(codesize, bytecodeSize)\n  dup1\n  bytecodeSize\n  dup4\n  codecopy\n  dup2\n  add\n  0x40\n  dup2\n  swap1\n  mstore\n  tag_2\n  swap2\n  tag_3\n  jump\t// in\ntag_2:\n    /* \"contracts/manager/FoodRating.sol\":745:755  roleAccess */\n  0x00\n    /* \"contracts/manager/FoodRating.sol\":745:781  roleAccess = RoleAccess(_roleAccess) */\n  dup1\n  sload\n  not(sub(shl(0xa0, 0x01), 0x01))\n  and\n  sub(shl(0xa0, 0x01), 0x01)\n  swap3\n  swap1\n  swap3\n  and\n  swap2\n  swap1\n  swap2\n  or\n  swap1\n  sstore\n    /* \"contracts/manager/FoodRating.sol\":188:4446  contract FoodRatingManager is IFoodRatingManager {... */\n  jump(tag_7)\n    /* \"#utility.yul\":14:304   */\ntag_3:\n    /* \"#utility.yul\":84:90   */\n  0x00\n    /* \"#utility.yul\":137:139   */\n  0x20\n    /* \"#utility.yul\":125:134   */\n  dup3\n    /* \"#utility.yul\":116:123   */\n  dup5\n    /* \"#utility.yul\":112:135   */\n  sub\n    /* \"#utility.yul\":108:140   */\n  slt\n    /* \"#utility.yul\":105:157   */\n  iszero\n  tag_9\n  jumpi\n    /* \"#utility.yul\":153:154   */\n  0x00\n    /* \"#utility.yul\":150:151   */\n  0x00\n    /* \"#utility.yul\":143:155   */\n  revert\n    /* \"#utility.yul\":105:157   */\ntag_9:\n    /* \"#utility.yul\":179:195   */\n  dup2\n  mload\n  sub(shl(0xa0, 0x01), 0x01)\n    /* \"#utility.yul\":224:255   */\n  dup2\n  and\n    /* \"#utility.yul\":214:256   */\n  dup2\n  eq\n    /* \"#utility.yul\":204:274   */\n  tag_10\n  jumpi\n    /* \"#utility.yul\":270:271   */\n  0x00\n    /* \"#utility.yul\":267:268   */\n  0x00\n    /* \"#utility.yul\":260:272   */\n  revert\n    /* \"#utility.yul\":204:274   */\ntag_10:\n    /* \"#utility.yul\":293:298   */\n  swap4\n    /* \"#utility.yul\":14:304   */\n  swap3\n  pop\n  pop\n  pop\n  jump\t// out\ntag_7:\n    /* \"contracts/manager/FoodRating.sol\":188:4446  contract FoodRatingManager is IFoodRatingManager {... */\n  dataSize(sub_0)\n  dup1\n  dataOffset(sub_0)\n  0x00\n  codecopy\n  0x00\n  return\nstop\n\nsub_0: assembly {\n        /* \"contracts/manager/FoodRating.sol\":188:4446  contract FoodRatingManager is IFoodRatingManager {... */\n      mstore(0x40, 0x80)\n      callvalue\n      dup1\n      iszero\n      tag_1\n      jumpi\n      revert(0x00, 0x00)\n    tag_1:\n      pop\n      jumpi(tag_2, lt(calldatasize, 0x04))\n      shr(0xe0, calldataload(0x00))\n      dup1\n      0xbad1365e\n      gt\n      tag_13\n      jumpi\n      dup1\n      0xbad1365e\n      eq\n      tag_8\n      jumpi\n      dup1\n      0xd15af016\n      eq\n      tag_9\n      jumpi\n      dup1\n      0xe3c9c7b3\n      eq\n      tag_10\n      jumpi\n      dup1\n      0xf44a8583\n      eq\n      tag_11\n      jumpi\n      dup1\n      0xf6b829a0\n      eq\n      tag_12\n      jumpi\n      revert(0x00, 0x00)\n    tag_13:\n      dup1\n      0x17650263\n      eq\n      tag_3\n      jumpi\n      dup1\n      0x42f54b89\n      eq\n      tag_4\n      jumpi\n      dup1\n      0x439e61fa\n      eq\n      tag_5\n      jumpi\n      dup1\n      0x97d2b92a\n      eq\n      tag_6\n      jumpi\n      dup1\n      0x9d77eb83\n      eq\n      tag_7\n      jumpi\n    tag_2:\n      revert(0x00, 0x00)\n        /* \"contracts/manager/FoodRating.sol\":409:457  mapping(uint => uint[]) public foodIdToRatingIds */\n    tag_3:\n      tag_14\n      tag_15\n      calldatasize\n      0x04\n      tag_16\n      jump\t// in\n    tag_15:\n      tag_17\n      jump\t// in\n    tag_14:\n      mload(0x40)\n        /* \"#utility.yul\":511:536   */\n      swap1\n      dup2\n      mstore\n        /* \"#utility.yul\":499:501   */\n      0x20\n        /* \"#utility.yul\":484:502   */\n      add\n        /* \"contracts/manager/FoodRating.sol\":409:457  mapping(uint => uint[]) public foodIdToRatingIds */\n    tag_18:\n      mload(0x40)\n      dup1\n      swap2\n      sub\n      swap1\n      return\n        /* \"contracts/manager/FoodRating.sol\":244:272  RoleAccess public roleAccess */\n    tag_4:\n      sload(0x00)\n      tag_20\n      swap1\n      sub(shl(0xa0, 0x01), 0x01)\n      and\n      dup2\n      jump\n    tag_20:\n      mload(0x40)\n      sub(shl(0xa0, 0x01), 0x01)\n        /* \"#utility.yul\":728:760   */\n      swap1\n      swap2\n      and\n        /* \"#utility.yul\":710:761   */\n      dup2\n      mstore\n        /* \"#utility.yul\":698:700   */\n      0x20\n        /* \"#utility.yul\":683:701   */\n      add\n        /* \"contracts/manager/FoodRating.sol\":244:272  RoleAccess public roleAccess */\n      tag_18\n        /* \"#utility.yul\":547:767   */\n      jump\n        /* \"contracts/manager/FoodRating.sol\":279:310  IFoodManager public foodManager */\n    tag_5:\n      sload(0x01)\n      tag_20\n      swap1\n      sub(shl(0xa0, 0x01), 0x01)\n      and\n      dup2\n      jump\n        /* \"contracts/manager/FoodRating.sol\":3165:4436  function deleteFoodRating(uint ratingId) external override {... */\n    tag_6:\n      tag_28\n      tag_29\n      calldatasize\n      0x04\n      tag_30\n      jump\t// in\n    tag_29:\n      tag_31\n      jump\t// in\n    tag_28:\n      stop\n        /* \"contracts/manager/FoodRating.sol\":980:1861  function addFoodRating(uint foodId, string calldata content, uint8 stars) external override returns (uint) {... */\n    tag_7:\n      tag_14\n      tag_33\n      calldatasize\n      0x04\n      tag_34\n      jump\t// in\n    tag_33:\n      tag_35\n      jump\t// in\n        /* \"contracts/manager/FoodRating.sol\":795:974  function setFoodManager(address _foodManager) external {... */\n    tag_8:\n      tag_28\n      tag_38\n      calldatasize\n      0x04\n      tag_39\n      jump\t// in\n    tag_38:\n      tag_40\n      jump\t// in\n        /* \"contracts/manager/FoodRating.sol\":356:402  mapping(uint => FoodRating) public foodRatings */\n    tag_9:\n      tag_41\n      tag_42\n      calldatasize\n      0x04\n      tag_30\n      jump\t// in\n    tag_42:\n      tag_43\n      jump\t// in\n    tag_41:\n      mload(0x40)\n      tag_18\n      swap7\n      swap6\n      swap5\n      swap4\n      swap3\n      swap2\n      swap1\n      tag_45\n      jump\t// in\n        /* \"contracts/manager/FoodRating.sol\":317:349  uint public nextFoodRatingId = 1 */\n    tag_10:\n      tag_14\n      sload(0x02)\n      dup2\n      jump\n        /* \"contracts/manager/FoodRating.sol\":1871:2277  function getFoodRatingsByFoodId(uint foodId) external view override returns (FoodRating[] memory) {... */\n    tag_11:\n      tag_49\n      tag_50\n      calldatasize\n      0x04\n      tag_30\n      jump\t// in\n    tag_50:\n      tag_51\n      jump\t// in\n    tag_49:\n      mload(0x40)\n      tag_18\n      swap2\n      swap1\n      tag_53\n      jump\t// in\n        /* \"contracts/manager/FoodRating.sol\":2285:3157  function updateFoodRating(uint ratingId, string calldata content, uint8 stars) external override {... */\n    tag_12:\n      tag_28\n      tag_55\n      calldatasize\n      0x04\n      tag_34\n      jump\t// in\n    tag_55:\n      tag_56\n      jump\t// in\n        /* \"contracts/manager/FoodRating.sol\":409:457  mapping(uint => uint[]) public foodIdToRatingIds */\n    tag_17:\n      mstore(0x20, 0x04)\n      dup2\n      0x00\n      mstore\n      keccak256(0x00, 0x40)\n      dup2\n      dup2\n      sload\n      dup2\n      lt\n      tag_57\n      jumpi\n      0x00\n      dup1\n      revert\n    tag_57:\n      swap1\n      0x00\n      mstore\n      keccak256(0x00, 0x20)\n      add\n      0x00\n      swap2\n      pop\n      swap2\n      pop\n      pop\n      sload\n      dup2\n      jump\t// out\n        /* \"contracts/manager/FoodRating.sol\":3165:4436  function deleteFoodRating(uint ratingId) external override {... */\n    tag_31:\n        /* \"contracts/manager/FoodRating.sol\":3243:3264  foodRatings[ratingId] */\n      0x00\n      dup2\n      dup2\n      mstore\n        /* \"contracts/manager/FoodRating.sol\":3243:3254  foodRatings */\n      0x03\n        /* \"contracts/manager/FoodRating.sol\":3243:3264  foodRatings[ratingId] */\n      0x20\n      mstore\n      0x40\n      dup2\n      keccak256\n        /* \"contracts/manager/FoodRating.sol\":3243:3267  foodRatings[ratingId].id */\n      sload\n        /* \"contracts/manager/FoodRating.sol\":3243:3272  foodRatings[ratingId].id != 0 */\n      swap1\n      sub\n        /* \"contracts/manager/FoodRating.sol\":3235:3298  require(foodRatings[ratingId].id != 0, \"Rating does not exist\") */\n      tag_60\n      jumpi\n      mload(0x40)\n      shl(0xe5, 0x461bcd)\n      dup2\n      mstore\n        /* \"#utility.yul\":4810:4812   */\n      0x20\n        /* \"contracts/manager/FoodRating.sol\":3235:3298  require(foodRatings[ratingId].id != 0, \"Rating does not exist\") */\n      0x04\n      dup3\n      add\n        /* \"#utility.yul\":4792:4813   */\n      mstore\n        /* \"#utility.yul\":4849:4851   */\n      0x15\n        /* \"#utility.yul\":4829:4847   */\n      0x24\n      dup3\n      add\n        /* \"#utility.yul\":4822:4852   */\n      mstore\n      shl(0x5a, 0x14985d1a5b99c8191bd95cc81b9bdd08195e1a5cdd)\n        /* \"#utility.yul\":4868:4886   */\n      0x44\n      dup3\n      add\n        /* \"#utility.yul\":4861:4912   */\n      mstore\n        /* \"#utility.yul\":4929:4947   */\n      0x64\n      add\n        /* \"contracts/manager/FoodRating.sol\":3235:3298  require(foodRatings[ratingId].id != 0, \"Rating does not exist\") */\n    tag_61:\n      mload(0x40)\n      dup1\n      swap2\n      sub\n      swap1\n      revert\n    tag_60:\n        /* \"contracts/manager/FoodRating.sol\":3566:3577  uint foodId */\n      0x00\n        /* \"contracts/manager/FoodRating.sol\":3580:3601  foodRatings[ratingId] */\n      dup2\n      dup2\n      mstore\n        /* \"contracts/manager/FoodRating.sol\":3580:3591  foodRatings */\n      0x03\n        /* \"contracts/manager/FoodRating.sol\":3580:3601  foodRatings[ratingId] */\n      0x20\n      swap1\n      dup2\n      mstore\n      0x40\n      dup1\n      dup4\n      keccak256\n        /* \"contracts/manager/FoodRating.sol\":3580:3608  foodRatings[ratingId].foodId */\n      0x02\n      dup2\n      add\n      sload\n        /* \"contracts/manager/FoodRating.sol\":3636:3663  foodRatings[ratingId].stars */\n      0x04\n      swap2\n      dup3\n      add\n      sload\n        /* \"contracts/manager/FoodRating.sol\":3701:3726  foodIdToRatingIds[foodId] */\n      dup2\n      dup7\n      mstore\n      swap2\n      swap1\n      swap4\n      mstore\n      swap1\n      dup4\n      keccak256\n        /* \"contracts/manager/FoodRating.sol\":3580:3608  foodRatings[ratingId].foodId */\n      swap2\n      swap3\n        /* \"contracts/manager/FoodRating.sol\":3636:3663  foodRatings[ratingId].stars */\n      0xff\n      swap1\n      swap2\n      and\n      swap2\n        /* \"contracts/manager/FoodRating.sol\":3701:3726  foodIdToRatingIds[foodId] */\n      swap1\n        /* \"contracts/manager/FoodRating.sol\":3737:4112  for (uint i = 0; i < ratingIds.length; i++) {... */\n    tag_63:\n        /* \"contracts/manager/FoodRating.sol\":3758:3774  ratingIds.length */\n      dup2\n      sload\n        /* \"contracts/manager/FoodRating.sol\":3754:3774  i < ratingIds.length */\n      dup2\n      lt\n        /* \"contracts/manager/FoodRating.sol\":3737:4112  for (uint i = 0; i < ratingIds.length; i++) {... */\n      iszero\n      tag_64\n      jumpi\n        /* \"contracts/manager/FoodRating.sol\":3816:3824  ratingId */\n      dup5\n        /* \"contracts/manager/FoodRating.sol\":3800:3809  ratingIds */\n      dup3\n        /* \"contracts/manager/FoodRating.sol\":3810:3811  i */\n      dup3\n        /* \"contracts/manager/FoodRating.sol\":3800:3812  ratingIds[i] */\n      dup2\n      sload\n      dup2\n      lt\n      tag_67\n      jumpi\n      tag_67\n      tag_68\n      jump\t// in\n    tag_67:\n      swap1\n      0x00\n      mstore\n      keccak256(0x00, 0x20)\n      add\n      sload\n        /* \"contracts/manager/FoodRating.sol\":3800:3824  ratingIds[i] == ratingId */\n      sub\n        /* \"contracts/manager/FoodRating.sol\":3796:4101  if (ratingIds[i] == ratingId) {... */\n      tag_70\n      jumpi\n        /* \"contracts/manager/FoodRating.sol\":4006:4022  ratingIds.length */\n      dup2\n      sload\n        /* \"contracts/manager/FoodRating.sol\":3996:4005  ratingIds */\n      dup3\n      swap1\n        /* \"contracts/manager/FoodRating.sol\":4006:4026  ratingIds.length - 1 */\n      tag_71\n      swap1\n        /* \"contracts/manager/FoodRating.sol\":4025:4026  1 */\n      0x01\n      swap1\n        /* \"contracts/manager/FoodRating.sol\":4006:4026  ratingIds.length - 1 */\n      tag_72\n      jump\t// in\n    tag_71:\n        /* \"contracts/manager/FoodRating.sol\":3996:4027  ratingIds[ratingIds.length - 1] */\n      dup2\n      sload\n      dup2\n      lt\n      tag_74\n      jumpi\n      tag_74\n      tag_68\n      jump\t// in\n    tag_74:\n      swap1\n      0x00\n      mstore\n      keccak256(0x00, 0x20)\n      add\n      sload\n        /* \"contracts/manager/FoodRating.sol\":3981:3990  ratingIds */\n      dup3\n        /* \"contracts/manager/FoodRating.sol\":3991:3992  i */\n      dup3\n        /* \"contracts/manager/FoodRating.sol\":3981:3993  ratingIds[i] */\n      dup2\n      sload\n      dup2\n      lt\n      tag_77\n      jumpi\n      tag_77\n      tag_68\n      jump\t// in\n    tag_77:\n      swap1\n      0x00\n      mstore\n      keccak256(0x00, 0x20)\n      add\n        /* \"contracts/manager/FoodRating.sol\":3981:4027  ratingIds[i] = ratingIds[ratingIds.length - 1] */\n      dup2\n      swap1\n      sstore\n      pop\n        /* \"contracts/manager/FoodRating.sol\":4046:4055  ratingIds */\n      dup2\n        /* \"contracts/manager/FoodRating.sol\":4046:4061  ratingIds.pop() */\n      dup1\n      sload\n      dup1\n      tag_80\n      jumpi\n      tag_80\n      tag_81\n      jump\t// in\n    tag_80:\n      0x01\n      swap1\n      sub\n      dup2\n      dup2\n      swap1\n      0x00\n      mstore\n      keccak256(0x00, 0x20)\n      add\n      0x00\n      swap1\n      sstore\n      swap1\n      sstore\n        /* \"contracts/manager/FoodRating.sol\":4080:4085  break */\n      jump(tag_64)\n        /* \"contracts/manager/FoodRating.sol\":3796:4101  if (ratingIds[i] == ratingId) {... */\n    tag_70:\n        /* \"contracts/manager/FoodRating.sol\":3776:3779  i++ */\n      0x01\n      add\n        /* \"contracts/manager/FoodRating.sol\":3737:4112  for (uint i = 0; i < ratingIds.length; i++) {... */\n      jump(tag_63)\n    tag_64:\n      pop\n        /* \"contracts/manager/FoodRating.sol\":4141:4152  foodManager */\n      sload(0x01)\n        /* \"contracts/manager/FoodRating.sol\":4141:4168  foodManager.getFood(foodId) */\n      mload(0x40)\n      shl(0xe1, 0x0f26f439)\n      dup2\n      mstore\n      0x04\n      dup2\n      add\n        /* \"#utility.yul\":511:536   */\n      dup6\n      swap1\n      mstore\n        /* \"contracts/manager/FoodRating.sol\":4122:4138  Food memory food */\n      0x00\n      swap2\n      sub(shl(0xa0, 0x01), 0x01)\n        /* \"contracts/manager/FoodRating.sol\":4141:4152  foodManager */\n      and\n      swap1\n        /* \"contracts/manager/FoodRating.sol\":4141:4160  foodManager.getFood */\n      0x1e4de872\n      swap1\n        /* \"#utility.yul\":484:502   */\n      0x24\n      add\n        /* \"contracts/manager/FoodRating.sol\":4141:4168  foodManager.getFood(foodId) */\n      0x00\n      mload(0x40)\n      dup1\n      dup4\n      sub\n      dup2\n      dup7\n      gas\n      staticcall\n      iszero\n      dup1\n      iszero\n      tag_85\n      jumpi\n      returndatacopy(0x00, 0x00, returndatasize)\n      revert(0x00, returndatasize)\n    tag_85:\n      pop\n      pop\n      pop\n      pop\n      mload(0x40)\n      returndatasize\n      0x00\n      dup3\n      returndatacopy\n      0x1f\n      returndatasize\n      swap1\n      dup2\n      add\n      not(0x1f)\n      and\n      dup3\n      add\n      0x40\n      mstore\n      tag_86\n      swap2\n      swap1\n      dup2\n      add\n      swap1\n      tag_87\n      jump\t// in\n    tag_86:\n        /* \"contracts/manager/FoodRating.sol\":4122:4168  Food memory food = foodManager.getFood(foodId) */\n      swap1\n      pop\n        /* \"contracts/manager/FoodRating.sol\":4179:4193  uint sumRating */\n      0x00\n        /* \"contracts/manager/FoodRating.sol\":4213:4221  oldStars */\n      dup4\n        /* \"contracts/manager/FoodRating.sol\":4196:4200  food */\n      dup3\n        /* \"contracts/manager/FoodRating.sol\":4196:4210  food.sumRating */\n      0xe0\n      add\n      mload\n        /* \"contracts/manager/FoodRating.sol\":4196:4221  food.sumRating - oldStars */\n      tag_88\n      swap2\n      swap1\n      tag_72\n      jump\t// in\n    tag_88:\n        /* \"contracts/manager/FoodRating.sol\":4179:4221  uint sumRating = food.sumRating - oldStars */\n      swap1\n      pop\n        /* \"contracts/manager/FoodRating.sol\":4232:4248  uint countRating */\n      0x00\n        /* \"contracts/manager/FoodRating.sol\":4268:4269  1 */\n      0x01\n        /* \"contracts/manager/FoodRating.sol\":4251:4255  food */\n      dup4\n        /* \"contracts/manager/FoodRating.sol\":4251:4267  food.countRating */\n      0x0100\n      add\n      mload\n        /* \"contracts/manager/FoodRating.sol\":4251:4269  food.countRating-1 */\n      tag_89\n      swap2\n      swap1\n      tag_72\n      jump\t// in\n    tag_89:\n        /* \"contracts/manager/FoodRating.sol\":4280:4291  foodManager */\n      sload(0x01)\n        /* \"contracts/manager/FoodRating.sol\":4280:4338  foodManager.updateRatingFood(foodId,sumRating,countRating) */\n      mload(0x40)\n      shl(0xe0, 0x3143e00f)\n      dup2\n      mstore\n      0x04\n      dup2\n      add\n        /* \"#utility.yul\":9696:9721   */\n      dup10\n      swap1\n      mstore\n        /* \"#utility.yul\":9737:9755   */\n      0x24\n      dup2\n      add\n        /* \"#utility.yul\":9730:9764   */\n      dup6\n      swap1\n      mstore\n        /* \"#utility.yul\":9780:9798   */\n      0x44\n      dup2\n      add\n        /* \"#utility.yul\":9773:9807   */\n      dup4\n      swap1\n      mstore\n        /* \"contracts/manager/FoodRating.sol\":4232:4269  uint countRating = food.countRating-1 */\n      swap2\n      swap3\n      pop\n      sub(shl(0xa0, 0x01), 0x01)\n        /* \"contracts/manager/FoodRating.sol\":4280:4291  foodManager */\n      and\n      swap1\n        /* \"contracts/manager/FoodRating.sol\":4280:4308  foodManager.updateRatingFood */\n      0x3143e00f\n      swap1\n        /* \"#utility.yul\":9669:9687   */\n      0x64\n      add\n        /* \"contracts/manager/FoodRating.sol\":4280:4338  foodManager.updateRatingFood(foodId,sumRating,countRating) */\n      0x00\n      mload(0x40)\n      dup1\n      dup4\n      sub\n      dup2\n      0x00\n      dup8\n      dup1\n      extcodesize\n      iszero\n      dup1\n      iszero\n      tag_92\n      jumpi\n      revert(0x00, 0x00)\n    tag_92:\n      pop\n      gas\n      call\n      iszero\n      dup1\n      iszero\n      tag_94\n      jumpi\n      returndatacopy(0x00, 0x00, returndatasize)\n      revert(0x00, returndatasize)\n    tag_94:\n      pop\n      pop\n      pop\n        /* \"contracts/manager/FoodRating.sol\":4356:4377  foodRatings[ratingId] */\n      0x00\n      dup9\n      dup2\n      mstore\n        /* \"contracts/manager/FoodRating.sol\":4356:4367  foodRatings */\n      0x03\n        /* \"contracts/manager/FoodRating.sol\":4356:4377  foodRatings[ratingId] */\n      0x20\n      dup2\n      swap1\n      mstore\n      0x40\n      dup3\n      keccak256\n        /* \"contracts/manager/FoodRating.sol\":4349:4377  delete foodRatings[ratingId] */\n      dup3\n      dup2\n      sstore\n      0x01\n      dup2\n      add\n      dup1\n      sload\n      not(sub(shl(0xa0, 0x01), 0x01))\n      and\n      swap1\n      sstore\n      0x02\n      dup2\n      add\n      dup4\n      swap1\n      sstore\n        /* \"contracts/manager/FoodRating.sol\":4356:4377  foodRatings[ratingId] */\n      swap3\n      pop\n        /* \"contracts/manager/FoodRating.sol\":4349:4377  delete foodRatings[ratingId] */\n      tag_95\n      swap1\n      dup4\n      add\n        /* \"contracts/manager/FoodRating.sol\":4356:4377  foodRatings[ratingId] */\n      dup3\n        /* \"contracts/manager/FoodRating.sol\":4349:4377  delete foodRatings[ratingId] */\n      tag_96\n      jump\t// in\n    tag_95:\n      pop\n      0x04\n      dup2\n      add\n      dup1\n      sload\n      not(0xff)\n      and\n      swap1\n      sstore\n      0x00\n      0x05\n      swap1\n      swap2\n      add\n      sstore\n        /* \"contracts/manager/FoodRating.sol\":4393:4428  FoodRatingDeleted(ratingId, foodId) */\n      0x40\n      dup1\n      mload\n        /* \"#utility.yul\":9992:10017   */\n      dup9\n      dup2\n      mstore\n        /* \"#utility.yul\":10048:10050   */\n      0x20\n        /* \"#utility.yul\":10033:10051   */\n      dup2\n      add\n        /* \"#utility.yul\":10026:10060   */\n      dup9\n      swap1\n      mstore\n        /* \"contracts/manager/FoodRating.sol\":4393:4428  FoodRatingDeleted(ratingId, foodId) */\n      0x90ae297d8d6959eb0abe3dab17e00dc8d797d5bc917cce29a82760b2d65ab3a9\n      swap2\n        /* \"#utility.yul\":9965:9983   */\n      add\n        /* \"contracts/manager/FoodRating.sol\":4393:4428  FoodRatingDeleted(ratingId, foodId) */\n      mload(0x40)\n      dup1\n      swap2\n      sub\n      swap1\n      log1\n        /* \"contracts/manager/FoodRating.sol\":3224:4436  {... */\n      pop\n      pop\n      pop\n      pop\n      pop\n      pop\n        /* \"contracts/manager/FoodRating.sol\":3165:4436  function deleteFoodRating(uint ratingId) external override {... */\n      pop\n      jump\t// out\n        /* \"contracts/manager/FoodRating.sol\":980:1861  function addFoodRating(uint foodId, string calldata content, uint8 stars) external override returns (uint) {... */\n    tag_35:\n        /* \"contracts/manager/FoodRating.sol\":1081:1085  uint */\n      0x00\n        /* \"contracts/manager/FoodRating.sol\":1114:1115  0 */\n      0x00\n        /* \"contracts/manager/FoodRating.sol\":1106:1111  stars */\n      dup3\n        /* \"contracts/manager/FoodRating.sol\":1106:1115  stars > 0 */\n      0xff\n      and\n      gt\n        /* \"contracts/manager/FoodRating.sol\":1106:1129  stars > 0 && stars <= 5 */\n      dup1\n      iszero\n      tag_100\n      jumpi\n      pop\n        /* \"contracts/manager/FoodRating.sol\":1128:1129  5 */\n      0x05\n        /* \"contracts/manager/FoodRating.sol\":1119:1124  stars */\n      dup3\n        /* \"contracts/manager/FoodRating.sol\":1119:1129  stars <= 5 */\n      0xff\n      and\n      gt\n      iszero\n        /* \"contracts/manager/FoodRating.sol\":1106:1129  stars > 0 && stars <= 5 */\n    tag_100:\n        /* \"contracts/manager/FoodRating.sol\":1098:1163  require(stars > 0 && stars <= 5, \"Stars must be between 1 and 5\") */\n      tag_101\n      jumpi\n      mload(0x40)\n      shl(0xe5, 0x461bcd)\n      dup2\n      mstore\n        /* \"#utility.yul\":10273:10275   */\n      0x20\n        /* \"contracts/manager/FoodRating.sol\":1098:1163  require(stars > 0 && stars <= 5, \"Stars must be between 1 and 5\") */\n      0x04\n      dup3\n      add\n        /* \"#utility.yul\":10255:10276   */\n      mstore\n        /* \"#utility.yul\":10312:10314   */\n      0x1d\n        /* \"#utility.yul\":10292:10310   */\n      0x24\n      dup3\n      add\n        /* \"#utility.yul\":10285:10315   */\n      mstore\n        /* \"#utility.yul\":10351:10382   */\n      0x5374617273206d757374206265206265747765656e203120616e642035000000\n        /* \"#utility.yul\":10331:10349   */\n      0x44\n      dup3\n      add\n        /* \"#utility.yul\":10324:10383   */\n      mstore\n        /* \"#utility.yul\":10400:10418   */\n      0x64\n      add\n        /* \"contracts/manager/FoodRating.sol\":1098:1163  require(stars > 0 && stars <= 5, \"Stars must be between 1 and 5\") */\n      tag_61\n        /* \"#utility.yul\":10071:10424   */\n      jump\n        /* \"contracts/manager/FoodRating.sol\":1098:1163  require(stars > 0 && stars <= 5, \"Stars must be between 1 and 5\") */\n    tag_101:\n        /* \"contracts/manager/FoodRating.sol\":1190:1206  nextFoodRatingId */\n      0x02\n        /* \"contracts/manager/FoodRating.sol\":1190:1208  nextFoodRatingId++ */\n      dup1\n      sload\n        /* \"contracts/manager/FoodRating.sol\":1174:1187  uint ratingId */\n      0x00\n      swap2\n      dup3\n        /* \"contracts/manager/FoodRating.sol\":1190:1208  nextFoodRatingId++ */\n      tag_104\n      dup4\n      tag_105\n      jump\t// in\n    tag_104:\n      swap1\n      swap2\n      sstore\n      pop\n        /* \"contracts/manager/FoodRating.sol\":1219:1244  FoodRating storage rating */\n      0x00\n        /* \"contracts/manager/FoodRating.sol\":1247:1268  foodRatings[ratingId] */\n      dup2\n      dup2\n      mstore\n        /* \"contracts/manager/FoodRating.sol\":1247:1258  foodRatings */\n      0x03\n        /* \"contracts/manager/FoodRating.sol\":1247:1268  foodRatings[ratingId] */\n      0x20\n      dup2\n      swap1\n      mstore\n      0x40\n      swap1\n      swap2\n      keccak256\n        /* \"contracts/manager/FoodRating.sol\":1279:1299  rating.id = ratingId */\n      dup3\n      dup2\n      sstore\n        /* \"contracts/manager/FoodRating.sol\":1310:1325  rating.reviewer */\n      0x01\n      dup2\n      add\n        /* \"contracts/manager/FoodRating.sol\":1310:1338  rating.reviewer = msg.sender */\n      dup1\n      sload\n      not(sub(shl(0xa0, 0x01), 0x01))\n      and\n        /* \"contracts/manager/FoodRating.sol\":1328:1338  msg.sender */\n      caller\n        /* \"contracts/manager/FoodRating.sol\":1310:1338  rating.reviewer = msg.sender */\n      or\n      swap1\n      sstore\n        /* \"contracts/manager/FoodRating.sol\":1349:1362  rating.foodId */\n      0x02\n      dup2\n      add\n        /* \"contracts/manager/FoodRating.sol\":1349:1371  rating.foodId = foodId */\n      dup10\n      swap1\n      sstore\n        /* \"contracts/manager/FoodRating.sol\":1174:1208  uint ratingId = nextFoodRatingId++ */\n      swap2\n      swap3\n      pop\n        /* \"contracts/manager/FoodRating.sol\":1382:1396  rating.content */\n      dup2\n      add\n        /* \"contracts/manager/FoodRating.sol\":1382:1406  rating.content = content */\n      tag_106\n        /* \"contracts/manager/FoodRating.sol\":1399:1406  content */\n      dup7\n      dup9\n        /* \"contracts/manager/FoodRating.sol\":1382:1396  rating.content */\n      dup4\n        /* \"contracts/manager/FoodRating.sol\":1382:1406  rating.content = content */\n      tag_107\n      jump\t// in\n    tag_106:\n      pop\n        /* \"contracts/manager/FoodRating.sol\":1417:1429  rating.stars */\n      0x04\n      dup2\n      dup2\n      add\n        /* \"contracts/manager/FoodRating.sol\":1417:1437  rating.stars = stars */\n      dup1\n      sload\n      not(0xff)\n      and\n      0xff\n      dup8\n      and\n      or\n      swap1\n      sstore\n        /* \"contracts/manager/FoodRating.sol\":1467:1482  block.timestamp */\n      timestamp\n        /* \"contracts/manager/FoodRating.sol\":1448:1464  rating.timestamp */\n      0x05\n      dup4\n      add\n        /* \"contracts/manager/FoodRating.sol\":1448:1482  rating.timestamp = block.timestamp */\n      sstore\n      0x00\n        /* \"contracts/manager/FoodRating.sol\":1495:1520  foodIdToRatingIds[foodId] */\n      dup9\n      dup2\n      mstore\n      0x20\n      dup3\n      dup2\n      mstore\n      0x40\n      dup1\n      dup4\n      keccak256\n        /* \"contracts/manager/FoodRating.sol\":1495:1535  foodIdToRatingIds[foodId].push(ratingId) */\n      dup1\n      sload\n      0x01\n      dup2\n      dup2\n      add\n      dup4\n      sstore\n      swap2\n      dup6\n      mstore\n      swap3\n      dup5\n      keccak256\n      swap1\n      swap3\n      add\n      dup7\n      swap1\n      sstore\n        /* \"contracts/manager/FoodRating.sol\":1565:1576  foodManager */\n      swap1\n      sload\n        /* \"contracts/manager/FoodRating.sol\":1565:1592  foodManager.getFood(foodId) */\n      swap1\n      mload\n      shl(0xe1, 0x0f26f439)\n      dup2\n      mstore\n      swap3\n      dup4\n      add\n        /* \"#utility.yul\":511:536   */\n      dup11\n      swap1\n      mstore\n      swap1\n      swap2\n      sub(shl(0xa0, 0x01), 0x01)\n        /* \"contracts/manager/FoodRating.sol\":1565:1576  foodManager */\n      swap1\n      swap2\n      and\n      swap1\n        /* \"contracts/manager/FoodRating.sol\":1565:1584  foodManager.getFood */\n      0x1e4de872\n      swap1\n        /* \"#utility.yul\":484:502   */\n      0x24\n      add\n        /* \"contracts/manager/FoodRating.sol\":1565:1592  foodManager.getFood(foodId) */\n      0x00\n      mload(0x40)\n      dup1\n      dup4\n      sub\n      dup2\n      dup7\n      gas\n      staticcall\n      iszero\n      dup1\n      iszero\n      tag_111\n      jumpi\n      returndatacopy(0x00, 0x00, returndatasize)\n      revert(0x00, returndatasize)\n    tag_111:\n      pop\n      pop\n      pop\n      pop\n      mload(0x40)\n      returndatasize\n      0x00\n      dup3\n      returndatacopy\n      0x1f\n      returndatasize\n      swap1\n      dup2\n      add\n      not(0x1f)\n      and\n      dup3\n      add\n      0x40\n      mstore\n      tag_112\n      swap2\n      swap1\n      dup2\n      add\n      swap1\n      tag_87\n      jump\t// in\n    tag_112:\n        /* \"contracts/manager/FoodRating.sol\":1546:1592  Food memory food = foodManager.getFood(foodId) */\n      swap1\n      pop\n        /* \"contracts/manager/FoodRating.sol\":1603:1617  uint sumRating */\n      0x00\n        /* \"contracts/manager/FoodRating.sol\":1637:1642  stars */\n      dup6\n        /* \"contracts/manager/FoodRating.sol\":1620:1642  food.sumRating + stars */\n      0xff\n      and\n        /* \"contracts/manager/FoodRating.sol\":1620:1624  food */\n      dup3\n        /* \"contracts/manager/FoodRating.sol\":1620:1634  food.sumRating */\n      0xe0\n      add\n      mload\n        /* \"contracts/manager/FoodRating.sol\":1620:1642  food.sumRating + stars */\n      tag_113\n      swap2\n      swap1\n      tag_114\n      jump\t// in\n    tag_113:\n        /* \"contracts/manager/FoodRating.sol\":1603:1642  uint sumRating = food.sumRating + stars */\n      swap1\n      pop\n        /* \"contracts/manager/FoodRating.sol\":1653:1669  uint countRating */\n      0x00\n        /* \"contracts/manager/FoodRating.sol\":1672:1676  food */\n      dup3\n        /* \"contracts/manager/FoodRating.sol\":1672:1688  food.countRating */\n      0x0100\n      add\n      mload\n        /* \"contracts/manager/FoodRating.sol\":1689:1690  1 */\n      0x01\n        /* \"contracts/manager/FoodRating.sol\":1672:1690  food.countRating+1 */\n      tag_115\n      swap2\n      swap1\n      tag_114\n      jump\t// in\n    tag_115:\n        /* \"contracts/manager/FoodRating.sol\":1701:1712  foodManager */\n      sload(0x01)\n        /* \"contracts/manager/FoodRating.sol\":1701:1759  foodManager.updateRatingFood(foodId,sumRating,countRating) */\n      mload(0x40)\n      shl(0xe0, 0x3143e00f)\n      dup2\n      mstore\n      0x04\n      dup2\n      add\n        /* \"#utility.yul\":9696:9721   */\n      dup14\n      swap1\n      mstore\n        /* \"#utility.yul\":9737:9755   */\n      0x24\n      dup2\n      add\n        /* \"#utility.yul\":9730:9764   */\n      dup6\n      swap1\n      mstore\n        /* \"#utility.yul\":9780:9798   */\n      0x44\n      dup2\n      add\n        /* \"#utility.yul\":9773:9807   */\n      dup4\n      swap1\n      mstore\n        /* \"contracts/manager/FoodRating.sol\":1653:1690  uint countRating = food.countRating+1 */\n      swap2\n      swap3\n      pop\n      sub(shl(0xa0, 0x01), 0x01)\n        /* \"contracts/manager/FoodRating.sol\":1701:1712  foodManager */\n      and\n      swap1\n        /* \"contracts/manager/FoodRating.sol\":1701:1729  foodManager.updateRatingFood */\n      0x3143e00f\n      swap1\n        /* \"#utility.yul\":9669:9687   */\n      0x64\n      add\n        /* \"contracts/manager/FoodRating.sol\":1701:1759  foodManager.updateRatingFood(foodId,sumRating,countRating) */\n      0x00\n      mload(0x40)\n      dup1\n      dup4\n      sub\n      dup2\n      0x00\n      dup8\n      dup1\n      extcodesize\n      iszero\n      dup1\n      iszero\n      tag_117\n      jumpi\n      revert(0x00, 0x00)\n    tag_117:\n      pop\n      gas\n      call\n      iszero\n      dup1\n      iszero\n      tag_119\n      jumpi\n      returndatacopy(0x00, 0x00, returndatasize)\n      revert(0x00, returndatasize)\n    tag_119:\n      pop\n      pop\n        /* \"contracts/manager/FoodRating.sol\":1775:1827  FoodRatingAdded(ratingId, foodId, msg.sender, stars) */\n      0x40\n      dup1\n      mload\n        /* \"#utility.yul\":13334:13359   */\n      dup9\n      dup2\n      mstore\n        /* \"#utility.yul\":13390:13392   */\n      0x20\n        /* \"#utility.yul\":13375:13393   */\n      dup2\n      add\n        /* \"#utility.yul\":13368:13402   */\n      dup15\n      swap1\n      mstore\n        /* \"contracts/manager/FoodRating.sol\":1809:1819  msg.sender */\n      caller\n        /* \"#utility.yul\":13418:13436   */\n      dup2\n      dup4\n      add\n        /* \"#utility.yul\":13411:13471   */\n      mstore\n        /* \"#utility.yul\":13519:13523   */\n      0xff\n        /* \"#utility.yul\":13507:13524   */\n      dup12\n      and\n        /* \"#utility.yul\":13502:13504   */\n      0x60\n        /* \"#utility.yul\":13487:13505   */\n      dup3\n      add\n        /* \"#utility.yul\":13480:13525   */\n      mstore\n        /* \"contracts/manager/FoodRating.sol\":1775:1827  FoodRatingAdded(ratingId, foodId, msg.sender, stars) */\n      swap1\n      mload\n      0x47a5e78e07c9f8fb30d316fcb3cbfef5e535c7a26574f22e7bb4de0bab897bfe\n      swap4\n      pop\n      swap1\n      dup2\n      swap1\n      sub\n        /* \"#utility.yul\":13321:13324   */\n      0x80\n        /* \"contracts/manager/FoodRating.sol\":1775:1827  FoodRatingAdded(ratingId, foodId, msg.sender, stars) */\n      add\n      swap2\n      pop\n      log1\n      pop\n        /* \"contracts/manager/FoodRating.sol\":1845:1853  ratingId */\n      swap3\n      swap9\n        /* \"contracts/manager/FoodRating.sol\":980:1861  function addFoodRating(uint foodId, string calldata content, uint8 stars) external override returns (uint) {... */\n      swap8\n      pop\n      pop\n      pop\n      pop\n      pop\n      pop\n      pop\n      pop\n      jump\t// out\n        /* \"contracts/manager/FoodRating.sol\":795:974  function setFoodManager(address _foodManager) external {... */\n    tag_40:\n      sub(shl(0xa0, 0x01), 0x01)\n        /* \"contracts/manager/FoodRating.sol\":869:895  _foodManager != address(0) */\n      dup2\n      and\n        /* \"contracts/manager/FoodRating.sol\":861:915  require(_foodManager != address(0), \"Invalid address\") */\n      tag_123\n      jumpi\n      mload(0x40)\n      shl(0xe5, 0x461bcd)\n      dup2\n      mstore\n        /* \"#utility.yul\":13738:13740   */\n      0x20\n        /* \"contracts/manager/FoodRating.sol\":861:915  require(_foodManager != address(0), \"Invalid address\") */\n      0x04\n      dup3\n      add\n        /* \"#utility.yul\":13720:13741   */\n      mstore\n        /* \"#utility.yul\":13777:13779   */\n      0x0f\n        /* \"#utility.yul\":13757:13775   */\n      0x24\n      dup3\n      add\n        /* \"#utility.yul\":13750:13780   */\n      mstore\n      shl(0x88, 0x496e76616c69642061646472657373)\n        /* \"#utility.yul\":13796:13814   */\n      0x44\n      dup3\n      add\n        /* \"#utility.yul\":13789:13834   */\n      mstore\n        /* \"#utility.yul\":13851:13869   */\n      0x64\n      add\n        /* \"contracts/manager/FoodRating.sol\":861:915  require(_foodManager != address(0), \"Invalid address\") */\n      tag_61\n        /* \"#utility.yul\":13536:13875   */\n      jump\n        /* \"contracts/manager/FoodRating.sol\":861:915  require(_foodManager != address(0), \"Invalid address\") */\n    tag_123:\n        /* \"contracts/manager/FoodRating.sol\":926:937  foodManager */\n      0x01\n        /* \"contracts/manager/FoodRating.sol\":926:966  foodManager = IFoodManager(_foodManager) */\n      dup1\n      sload\n      not(sub(shl(0xa0, 0x01), 0x01))\n      and\n      sub(shl(0xa0, 0x01), 0x01)\n      swap3\n      swap1\n      swap3\n      and\n      swap2\n      swap1\n      swap2\n      or\n      swap1\n      sstore\n        /* \"contracts/manager/FoodRating.sol\":795:974  function setFoodManager(address _foodManager) external {... */\n      jump\t// out\n        /* \"contracts/manager/FoodRating.sol\":356:402  mapping(uint => FoodRating) public foodRatings */\n    tag_43:\n      0x03\n      0x20\n      dup2\n      swap1\n      mstore\n      0x00\n      swap2\n      dup3\n      mstore\n      0x40\n      swap1\n      swap2\n      keccak256\n      dup1\n      sload\n      0x01\n      dup3\n      add\n      sload\n      0x02\n      dup4\n      add\n      sload\n      swap4\n      dup4\n      add\n      dup1\n      sload\n      swap3\n      swap5\n      sub(shl(0xa0, 0x01), 0x01)\n      swap1\n      swap3\n      and\n      swap4\n      swap2\n      swap3\n      tag_126\n      swap1\n      tag_127\n      jump\t// in\n    tag_126:\n      dup1\n      0x1f\n      add\n      0x20\n      dup1\n      swap2\n      div\n      mul\n      0x20\n      add\n      mload(0x40)\n      swap1\n      dup2\n      add\n      0x40\n      mstore\n      dup1\n      swap3\n      swap2\n      swap1\n      dup2\n      dup2\n      mstore\n      0x20\n      add\n      dup3\n      dup1\n      sload\n      tag_128\n      swap1\n      tag_127\n      jump\t// in\n    tag_128:\n      dup1\n      iszero\n      tag_129\n      jumpi\n      dup1\n      0x1f\n      lt\n      tag_130\n      jumpi\n      0x0100\n      dup1\n      dup4\n      sload\n      div\n      mul\n      dup4\n      mstore\n      swap2\n      0x20\n      add\n      swap2\n      jump(tag_129)\n    tag_130:\n      dup3\n      add\n      swap2\n      swap1\n      0x00\n      mstore\n      keccak256(0x00, 0x20)\n      swap1\n    tag_131:\n      dup2\n      sload\n      dup2\n      mstore\n      swap1\n      0x01\n      add\n      swap1\n      0x20\n      add\n      dup1\n      dup4\n      gt\n      tag_131\n      jumpi\n      dup3\n      swap1\n      sub\n      0x1f\n      and\n      dup3\n      add\n      swap2\n    tag_129:\n      pop\n      pop\n      pop\n      pop\n      0x04\n      dup4\n      add\n      sload\n      0x05\n      swap1\n      swap4\n      add\n      sload\n      swap2\n      swap3\n      0xff\n      and\n      swap2\n      swap1\n      pop\n      dup7\n      jump\t// out\n        /* \"contracts/manager/FoodRating.sol\":1871:2277  function getFoodRatingsByFoodId(uint foodId) external view override returns (FoodRating[] memory) {... */\n    tag_51:\n        /* \"contracts/manager/FoodRating.sol\":1980:2004  uint[] storage ratingIds */\n      0x00\n        /* \"contracts/manager/FoodRating.sol\":2007:2032  foodIdToRatingIds[foodId] */\n      dup2\n      dup2\n      mstore\n        /* \"contracts/manager/FoodRating.sol\":2007:2024  foodIdToRatingIds */\n      0x04\n        /* \"contracts/manager/FoodRating.sol\":2007:2032  foodIdToRatingIds[foodId] */\n      0x20\n      mstore\n      0x40\n      dup2\n      keccak256\n        /* \"contracts/manager/FoodRating.sol\":2056:2072  ratingIds.length */\n      dup1\n      sload\n        /* \"contracts/manager/FoodRating.sol\":1948:1967  FoodRating[] memory */\n      0x60\n      swap3\n        /* \"contracts/manager/FoodRating.sol\":2056:2072  ratingIds.length */\n      dup2\n      sub(shl(0x40, 0x01), 0x01)\n        /* \"contracts/manager/FoodRating.sol\":2113:2136  new FoodRating[](count) */\n      dup2\n      gt\n      iszero\n      tag_134\n      jumpi\n      tag_134\n      tag_135\n      jump\t// in\n    tag_134:\n      mload(0x40)\n      swap1\n      dup1\n      dup3\n      mstore\n      dup1\n      0x20\n      mul\n      0x20\n      add\n      dup3\n      add\n      0x40\n      mstore\n      dup1\n      iszero\n      tag_136\n      jumpi\n      dup2\n      0x20\n      add\n    tag_137:\n      tag_138\n      mload(0x40)\n      dup1\n      0xc0\n      add\n      0x40\n      mstore\n      dup1\n      0x00\n      dup2\n      mstore\n      0x20\n      add\n      and(sub(shl(0xa0, 0x01), 0x01), 0x00)\n      dup2\n      mstore\n      0x20\n      add\n      0x00\n      dup2\n      mstore\n      0x20\n      add\n      0x60\n      dup2\n      mstore\n      0x20\n      add\n      and(0xff, 0x00)\n      dup2\n      mstore\n      0x20\n      add\n      0x00\n      dup2\n      mstore\n      pop\n      swap1\n      jump\n    tag_138:\n      dup2\n      mstore\n      0x20\n      add\n      swap1\n      0x01\n      swap1\n      sub\n      swap1\n      dup2\n      tag_137\n      jumpi\n      swap1\n      pop\n    tag_136:\n      pop\n        /* \"contracts/manager/FoodRating.sol\":2083:2136  FoodRating[] memory ratings = new FoodRating[](count) */\n      swap1\n      pop\n        /* \"contracts/manager/FoodRating.sol\":2152:2158  uint i */\n      0x00\n        /* \"contracts/manager/FoodRating.sol\":2147:2245  for (uint i = 0; i < count; i++) {... */\n    tag_140:\n        /* \"contracts/manager/FoodRating.sol\":2168:2173  count */\n      dup3\n        /* \"contracts/manager/FoodRating.sol\":2164:2165  i */\n      dup2\n        /* \"contracts/manager/FoodRating.sol\":2164:2173  i < count */\n      lt\n        /* \"contracts/manager/FoodRating.sol\":2147:2245  for (uint i = 0; i < count; i++) {... */\n      iszero\n      tag_141\n      jumpi\n        /* \"contracts/manager/FoodRating.sol\":2208:2219  foodRatings */\n      0x03\n        /* \"contracts/manager/FoodRating.sol\":2208:2233  foodRatings[ratingIds[i]] */\n      0x00\n        /* \"contracts/manager/FoodRating.sol\":2220:2229  ratingIds */\n      dup6\n        /* \"contracts/manager/FoodRating.sol\":2230:2231  i */\n      dup4\n        /* \"contracts/manager/FoodRating.sol\":2220:2232  ratingIds[i] */\n      dup2\n      sload\n      dup2\n      lt\n      tag_144\n      jumpi\n      tag_144\n      tag_68\n      jump\t// in\n    tag_144:\n      swap1\n      0x00\n      mstore\n      keccak256(0x00, 0x20)\n      add\n      sload\n        /* \"contracts/manager/FoodRating.sol\":2208:2233  foodRatings[ratingIds[i]] */\n      dup2\n      mstore\n      0x20\n      add\n      swap1\n      dup2\n      mstore\n      0x20\n      add\n      0x00\n      keccak256\n        /* \"contracts/manager/FoodRating.sol\":2195:2233  ratings[i] = foodRatings[ratingIds[i]] */\n      mload(0x40)\n      dup1\n      0xc0\n      add\n      0x40\n      mstore\n      swap1\n      dup2\n      0x00\n      dup3\n      add\n      sload\n      dup2\n      mstore\n      0x20\n      add\n      0x01\n      dup3\n      add\n      0x00\n      swap1\n      sload\n      swap1\n      0x0100\n      exp\n      swap1\n      div\n      sub(shl(0xa0, 0x01), 0x01)\n      and\n      sub(shl(0xa0, 0x01), 0x01)\n      and\n      sub(shl(0xa0, 0x01), 0x01)\n      and\n      dup2\n      mstore\n      0x20\n      add\n      0x02\n      dup3\n      add\n      sload\n      dup2\n      mstore\n      0x20\n      add\n      0x03\n      dup3\n      add\n      dup1\n      sload\n      tag_146\n      swap1\n      tag_127\n      jump\t// in\n    tag_146:\n      dup1\n      0x1f\n      add\n      0x20\n      dup1\n      swap2\n      div\n      mul\n      0x20\n      add\n      mload(0x40)\n      swap1\n      dup2\n      add\n      0x40\n      mstore\n      dup1\n      swap3\n      swap2\n      swap1\n      dup2\n      dup2\n      mstore\n      0x20\n      add\n      dup3\n      dup1\n      sload\n      tag_147\n      swap1\n      tag_127\n      jump\t// in\n    tag_147:\n      dup1\n      iszero\n      tag_148\n      jumpi\n      dup1\n      0x1f\n      lt\n      tag_149\n      jumpi\n      0x0100\n      dup1\n      dup4\n      sload\n      div\n      mul\n      dup4\n      mstore\n      swap2\n      0x20\n      add\n      swap2\n      jump(tag_148)\n    tag_149:\n      dup3\n      add\n      swap2\n      swap1\n      0x00\n      mstore\n      keccak256(0x00, 0x20)\n      swap1\n    tag_150:\n      dup2\n      sload\n      dup2\n      mstore\n      swap1\n      0x01\n      add\n      swap1\n      0x20\n      add\n      dup1\n      dup4\n      gt\n      tag_150\n      jumpi\n      dup3\n      swap1\n      sub\n      0x1f\n      and\n      dup3\n      add\n      swap2\n    tag_148:\n      pop\n      pop\n      pop\n      swap2\n      dup4\n      mstore\n      pop\n      pop\n      0x04\n      dup3\n      add\n      sload\n      0xff\n      and\n      0x20\n      dup3\n      add\n      mstore\n      0x05\n      swap1\n      swap2\n      add\n      sload\n      0x40\n      swap1\n      swap2\n      add\n      mstore\n        /* \"contracts/manager/FoodRating.sol\":2195:2205  ratings[i] */\n      dup3\n      mload\n        /* \"contracts/manager/FoodRating.sol\":2195:2202  ratings */\n      dup4\n      swap1\n        /* \"contracts/manager/FoodRating.sol\":2203:2204  i */\n      dup4\n      swap1\n        /* \"contracts/manager/FoodRating.sol\":2195:2205  ratings[i] */\n      dup2\n      lt\n      tag_152\n      jumpi\n      tag_152\n      tag_68\n      jump\t// in\n    tag_152:\n      0x20\n      swap1\n      dup2\n      mul\n      swap2\n      swap1\n      swap2\n      add\n      add\n        /* \"contracts/manager/FoodRating.sol\":2195:2233  ratings[i] = foodRatings[ratingIds[i]] */\n      mstore\n        /* \"contracts/manager/FoodRating.sol\":2175:2178  i++ */\n      0x01\n      add\n        /* \"contracts/manager/FoodRating.sol\":2147:2245  for (uint i = 0; i < count; i++) {... */\n      jump(tag_140)\n    tag_141:\n      pop\n        /* \"contracts/manager/FoodRating.sol\":2262:2269  ratings */\n      swap5\n        /* \"contracts/manager/FoodRating.sol\":1871:2277  function getFoodRatingsByFoodId(uint foodId) external view override returns (FoodRating[] memory) {... */\n      swap4\n      pop\n      pop\n      pop\n      pop\n      jump\t// out\n        /* \"contracts/manager/FoodRating.sol\":2285:3157  function updateFoodRating(uint ratingId, string calldata content, uint8 stars) external override {... */\n    tag_56:\n        /* \"contracts/manager/FoodRating.sol\":2401:2422  foodRatings[ratingId] */\n      0x00\n      dup5\n      dup2\n      mstore\n        /* \"contracts/manager/FoodRating.sol\":2401:2412  foodRatings */\n      0x03\n        /* \"contracts/manager/FoodRating.sol\":2401:2422  foodRatings[ratingId] */\n      0x20\n      mstore\n      0x40\n      dup2\n      keccak256\n        /* \"contracts/manager/FoodRating.sol\":2401:2425  foodRatings[ratingId].id */\n      sload\n        /* \"contracts/manager/FoodRating.sol\":2401:2430  foodRatings[ratingId].id != 0 */\n      swap1\n      sub\n        /* \"contracts/manager/FoodRating.sol\":2393:2456  require(foodRatings[ratingId].id != 0, \"Rating does not exist\") */\n      tag_154\n      jumpi\n      mload(0x40)\n      shl(0xe5, 0x461bcd)\n      dup2\n      mstore\n        /* \"#utility.yul\":4810:4812   */\n      0x20\n        /* \"contracts/manager/FoodRating.sol\":2393:2456  require(foodRatings[ratingId].id != 0, \"Rating does not exist\") */\n      0x04\n      dup3\n      add\n        /* \"#utility.yul\":4792:4813   */\n      mstore\n        /* \"#utility.yul\":4849:4851   */\n      0x15\n        /* \"#utility.yul\":4829:4847   */\n      0x24\n      dup3\n      add\n        /* \"#utility.yul\":4822:4852   */\n      mstore\n      shl(0x5a, 0x14985d1a5b99c8191bd95cc81b9bdd08195e1a5cdd)\n        /* \"#utility.yul\":4868:4886   */\n      0x44\n      dup3\n      add\n        /* \"#utility.yul\":4861:4912   */\n      mstore\n        /* \"#utility.yul\":4929:4947   */\n      0x64\n      add\n        /* \"contracts/manager/FoodRating.sol\":2393:2456  require(foodRatings[ratingId].id != 0, \"Rating does not exist\") */\n      tag_61\n        /* \"#utility.yul\":4608:4953   */\n      jump\n        /* \"contracts/manager/FoodRating.sol\":2393:2456  require(foodRatings[ratingId].id != 0, \"Rating does not exist\") */\n    tag_154:\n        /* \"contracts/manager/FoodRating.sol\":2578:2579  0 */\n      0x00\n        /* \"contracts/manager/FoodRating.sol\":2570:2575  stars */\n      dup2\n        /* \"contracts/manager/FoodRating.sol\":2570:2579  stars > 0 */\n      0xff\n      and\n      gt\n        /* \"contracts/manager/FoodRating.sol\":2570:2593  stars > 0 && stars <= 5 */\n      dup1\n      iszero\n      tag_156\n      jumpi\n      pop\n        /* \"contracts/manager/FoodRating.sol\":2592:2593  5 */\n      0x05\n        /* \"contracts/manager/FoodRating.sol\":2583:2588  stars */\n      dup2\n        /* \"contracts/manager/FoodRating.sol\":2583:2593  stars <= 5 */\n      0xff\n      and\n      gt\n      iszero\n        /* \"contracts/manager/FoodRating.sol\":2570:2593  stars > 0 && stars <= 5 */\n    tag_156:\n        /* \"contracts/manager/FoodRating.sol\":2562:2627  require(stars > 0 && stars <= 5, \"Stars must be between 1 and 5\") */\n      tag_157\n      jumpi\n      mload(0x40)\n      shl(0xe5, 0x461bcd)\n      dup2\n      mstore\n        /* \"#utility.yul\":10273:10275   */\n      0x20\n        /* \"contracts/manager/FoodRating.sol\":2562:2627  require(stars > 0 && stars <= 5, \"Stars must be between 1 and 5\") */\n      0x04\n      dup3\n      add\n        /* \"#utility.yul\":10255:10276   */\n      mstore\n        /* \"#utility.yul\":10312:10314   */\n      0x1d\n        /* \"#utility.yul\":10292:10310   */\n      0x24\n      dup3\n      add\n        /* \"#utility.yul\":10285:10315   */\n      mstore\n        /* \"#utility.yul\":10351:10382   */\n      0x5374617273206d757374206265206265747765656e203120616e642035000000\n        /* \"#utility.yul\":10331:10349   */\n      0x44\n      dup3\n      add\n        /* \"#utility.yul\":10324:10383   */\n      mstore\n        /* \"#utility.yul\":10400:10418   */\n      0x64\n      add\n        /* \"contracts/manager/FoodRating.sol\":2562:2627  require(stars > 0 && stars <= 5, \"Stars must be between 1 and 5\") */\n      tag_61\n        /* \"#utility.yul\":10071:10424   */\n      jump\n        /* \"contracts/manager/FoodRating.sol\":2562:2627  require(stars > 0 && stars <= 5, \"Stars must be between 1 and 5\") */\n    tag_157:\n        /* \"contracts/manager/FoodRating.sol\":2638:2651  uint oldStars */\n      0x00\n        /* \"contracts/manager/FoodRating.sol\":2655:2676  foodRatings[ratingId] */\n      dup5\n      dup2\n      mstore\n        /* \"contracts/manager/FoodRating.sol\":2655:2666  foodRatings */\n      0x03\n        /* \"contracts/manager/FoodRating.sol\":2655:2676  foodRatings[ratingId] */\n      0x20\n      dup2\n      swap1\n      mstore\n      0x40\n      swap1\n      swap2\n      keccak256\n        /* \"contracts/manager/FoodRating.sol\":2655:2682  foodRatings[ratingId].stars */\n      0x04\n      dup2\n      add\n      sload\n      0xff\n      and\n      swap2\n        /* \"contracts/manager/FoodRating.sol\":2694:2723  foodRatings[ratingId].content */\n      add\n        /* \"contracts/manager/FoodRating.sol\":2694:2733  foodRatings[ratingId].content = content */\n      tag_159\n        /* \"contracts/manager/FoodRating.sol\":2726:2733  content */\n      dup5\n      dup7\n        /* \"contracts/manager/FoodRating.sol\":2694:2723  foodRatings[ratingId].content */\n      dup4\n        /* \"contracts/manager/FoodRating.sol\":2694:2733  foodRatings[ratingId].content = content */\n      tag_107\n      jump\t// in\n    tag_159:\n      pop\n        /* \"contracts/manager/FoodRating.sol\":2744:2765  foodRatings[ratingId] */\n      0x00\n      dup6\n      dup2\n      mstore\n        /* \"contracts/manager/FoodRating.sol\":2744:2755  foodRatings */\n      0x03\n        /* \"contracts/manager/FoodRating.sol\":2744:2765  foodRatings[ratingId] */\n      0x20\n      mstore\n      0x40\n      dup1\n      dup3\n      keccak256\n        /* \"contracts/manager/FoodRating.sol\":2744:2771  foodRatings[ratingId].stars */\n      0x04\n      dup1\n      dup3\n      add\n        /* \"contracts/manager/FoodRating.sol\":2744:2779  foodRatings[ratingId].stars = stars */\n      dup1\n      sload\n      not(0xff)\n      and\n      0xff\n      dup9\n      and\n      or\n      swap1\n      sstore\n      0x01\n        /* \"contracts/manager/FoodRating.sol\":2810:2821  foodManager */\n      sload\n        /* \"contracts/manager/FoodRating.sol\":2830:2858  foodRatings[ratingId].foodId */\n      0x02\n      swap1\n      swap3\n      add\n      sload\n        /* \"contracts/manager/FoodRating.sol\":2810:2859  foodManager.getFood(foodRatings[ratingId].foodId) */\n      swap3\n      mload\n      shl(0xe1, 0x0f26f439)\n      dup2\n      mstore\n      swap1\n      dup2\n      add\n        /* \"#utility.yul\":511:536   */\n      swap3\n      swap1\n      swap3\n      mstore\n      sub(shl(0xa0, 0x01), 0x01)\n        /* \"contracts/manager/FoodRating.sol\":2810:2821  foodManager */\n      and\n      swap1\n        /* \"contracts/manager/FoodRating.sol\":2810:2829  foodManager.getFood */\n      0x1e4de872\n      swap1\n        /* \"#utility.yul\":484:502   */\n      0x24\n      add\n        /* \"contracts/manager/FoodRating.sol\":2810:2859  foodManager.getFood(foodRatings[ratingId].foodId) */\n      0x00\n      mload(0x40)\n      dup1\n      dup4\n      sub\n      dup2\n      dup7\n      gas\n      staticcall\n      iszero\n      dup1\n      iszero\n      tag_162\n      jumpi\n      returndatacopy(0x00, 0x00, returndatasize)\n      revert(0x00, returndatasize)\n    tag_162:\n      pop\n      pop\n      pop\n      pop\n      mload(0x40)\n      returndatasize\n      0x00\n      dup3\n      returndatacopy\n      0x1f\n      returndatasize\n      swap1\n      dup2\n      add\n      not(0x1f)\n      and\n      dup3\n      add\n      0x40\n      mstore\n      tag_163\n      swap2\n      swap1\n      dup2\n      add\n      swap1\n      tag_87\n      jump\t// in\n    tag_163:\n        /* \"contracts/manager/FoodRating.sol\":2791:2859  Food memory food = foodManager.getFood(foodRatings[ratingId].foodId) */\n      swap1\n      pop\n        /* \"contracts/manager/FoodRating.sol\":2870:2884  uint sumRating */\n      0x00\n        /* \"contracts/manager/FoodRating.sol\":2912:2920  oldStars */\n      dup3\n        /* \"contracts/manager/FoodRating.sol\":2904:2909  stars */\n      dup5\n        /* \"contracts/manager/FoodRating.sol\":2887:2909  food.sumRating + stars */\n      0xff\n      and\n        /* \"contracts/manager/FoodRating.sol\":2887:2891  food */\n      dup4\n        /* \"contracts/manager/FoodRating.sol\":2887:2901  food.sumRating */\n      0xe0\n      add\n      mload\n        /* \"contracts/manager/FoodRating.sol\":2887:2909  food.sumRating + stars */\n      tag_164\n      swap2\n      swap1\n      tag_114\n      jump\t// in\n    tag_164:\n        /* \"contracts/manager/FoodRating.sol\":2887:2920  food.sumRating + stars - oldStars */\n      tag_165\n      swap2\n      swap1\n      tag_72\n      jump\t// in\n    tag_165:\n        /* \"contracts/manager/FoodRating.sol\":2950:2966  food.countRating */\n      0x0100\n      dup4\n      add\n      mload\n        /* \"contracts/manager/FoodRating.sol\":2977:2988  foodManager */\n      sload(0x01)\n        /* \"contracts/manager/FoodRating.sol\":2931:2947  uint countRating */\n      0x00\n        /* \"contracts/manager/FoodRating.sol\":3006:3027  foodRatings[ratingId] */\n      dup11\n      dup2\n      mstore\n        /* \"contracts/manager/FoodRating.sol\":3006:3017  foodRatings */\n      0x03\n        /* \"contracts/manager/FoodRating.sol\":3006:3027  foodRatings[ratingId] */\n      0x20\n      mstore\n      0x40\n      swap1\n      dup2\n      swap1\n      keccak256\n        /* \"contracts/manager/FoodRating.sol\":3006:3034  foodRatings[ratingId].foodId */\n      0x02\n      add\n      sload\n        /* \"contracts/manager/FoodRating.sol\":2977:3057  foodManager.updateRatingFood(foodRatings[ratingId].foodId,sumRating,countRating) */\n      swap1\n      mload\n      shl(0xe0, 0x3143e00f)\n      dup2\n      mstore\n      0x04\n      dup2\n      add\n        /* \"#utility.yul\":9696:9721   */\n      swap2\n      swap1\n      swap2\n      mstore\n        /* \"#utility.yul\":9737:9755   */\n      0x24\n      dup2\n      add\n        /* \"#utility.yul\":9730:9764   */\n      dup5\n      swap1\n      mstore\n        /* \"#utility.yul\":9780:9798   */\n      0x44\n      dup2\n      add\n        /* \"#utility.yul\":9773:9807   */\n      dup4\n      swap1\n      mstore\n        /* \"contracts/manager/FoodRating.sol\":2870:2920  uint sumRating = food.sumRating + stars - oldStars */\n      swap3\n      swap4\n      pop\n        /* \"contracts/manager/FoodRating.sol\":2950:2966  food.countRating */\n      swap1\n      swap2\n      sub(shl(0xa0, 0x01), 0x01)\n        /* \"contracts/manager/FoodRating.sol\":2977:2988  foodManager */\n      swap1\n      swap2\n      and\n      swap1\n        /* \"contracts/manager/FoodRating.sol\":2977:3005  foodManager.updateRatingFood */\n      0x3143e00f\n      swap1\n        /* \"#utility.yul\":9669:9687   */\n      0x64\n      add\n        /* \"contracts/manager/FoodRating.sol\":2977:3057  foodManager.updateRatingFood(foodRatings[ratingId].foodId,sumRating,countRating) */\n      0x00\n      mload(0x40)\n      dup1\n      dup4\n      sub\n      dup2\n      0x00\n      dup8\n      dup1\n      extcodesize\n      iszero\n      dup1\n      iszero\n      tag_167\n      jumpi\n      revert(0x00, 0x00)\n    tag_167:\n      pop\n      gas\n      call\n      iszero\n      dup1\n      iszero\n      tag_169\n      jumpi\n      returndatacopy(0x00, 0x00, returndatasize)\n      revert(0x00, returndatasize)\n    tag_169:\n      pop\n      pop\n      pop\n        /* \"contracts/manager/FoodRating.sol\":3101:3122  foodRatings[ratingId] */\n      0x00\n      dup10\n      dup2\n      mstore\n        /* \"contracts/manager/FoodRating.sol\":3101:3112  foodRatings */\n      0x03\n        /* \"contracts/manager/FoodRating.sol\":3101:3122  foodRatings[ratingId] */\n      0x20\n      swap1\n      dup2\n      mstore\n      0x40\n      swap2\n      dup3\n      swap1\n      keccak256\n        /* \"contracts/manager/FoodRating.sol\":3101:3129  foodRatings[ratingId].foodId */\n      0x02\n      add\n      sload\n        /* \"contracts/manager/FoodRating.sol\":3073:3149  FoodRatingUpdated(ratingId, foodRatings[ratingId].foodId, msg.sender, stars) */\n      dup3\n      mload\n        /* \"#utility.yul\":13334:13359   */\n      dup13\n      dup2\n      mstore\n        /* \"#utility.yul\":13375:13393   */\n      swap2\n      dup3\n      add\n        /* \"#utility.yul\":13368:13402   */\n      mstore\n        /* \"contracts/manager/FoodRating.sol\":3131:3141  msg.sender */\n      caller\n        /* \"#utility.yul\":13418:13436   */\n      dup2\n      dup4\n      add\n        /* \"#utility.yul\":13411:13471   */\n      mstore\n        /* \"#utility.yul\":13519:13523   */\n      0xff\n        /* \"#utility.yul\":13507:13524   */\n      dup9\n      and\n        /* \"#utility.yul\":13502:13504   */\n      0x60\n        /* \"#utility.yul\":13487:13505   */\n      dup3\n      add\n        /* \"#utility.yul\":13480:13525   */\n      mstore\n        /* \"contracts/manager/FoodRating.sol\":3073:3149  FoodRatingUpdated(ratingId, foodRatings[ratingId].foodId, msg.sender, stars) */\n      swap1\n      mload\n      0x24acfd6197e24ed4392757b2b8669ec63a8448d82a54697d7e032a31b71f3920\n      swap3\n      pop\n      swap1\n      dup2\n      swap1\n      sub\n        /* \"#utility.yul\":13321:13324   */\n      0x80\n        /* \"contracts/manager/FoodRating.sol\":3073:3149  FoodRatingUpdated(ratingId, foodRatings[ratingId].foodId, msg.sender, stars) */\n      add\n      swap1\n      log1\n        /* \"contracts/manager/FoodRating.sol\":2382:3157  {... */\n      pop\n      pop\n      pop\n      pop\n        /* \"contracts/manager/FoodRating.sol\":2285:3157  function updateFoodRating(uint ratingId, string calldata content, uint8 stars) external override {... */\n      pop\n      pop\n      pop\n      pop\n      jump\t// out\n    tag_96:\n      pop\n      dup1\n      sload\n      tag_171\n      swap1\n      tag_127\n      jump\t// in\n    tag_171:\n      0x00\n      dup3\n      sstore\n      dup1\n      0x1f\n      lt\n      tag_173\n      jumpi\n      pop\n      pop\n      jump\t// out\n    tag_173:\n      0x1f\n      add\n      0x20\n      swap1\n      div\n      swap1\n      0x00\n      mstore\n      keccak256(0x00, 0x20)\n      swap1\n      dup2\n      add\n      swap1\n      tag_174\n      swap2\n      swap1\n      tag_175\n      jump\t// in\n    tag_174:\n      pop\n      jump\t// out\n    tag_175:\n    tag_176:\n      dup1\n      dup3\n      gt\n      iszero\n      tag_177\n      jumpi\n      0x00\n      dup2\n      sstore\n      0x01\n      add\n      jump(tag_176)\n    tag_177:\n      pop\n      swap1\n      jump\t// out\n        /* \"#utility.yul\":14:360   */\n    tag_16:\n        /* \"#utility.yul\":82:88   */\n      0x00\n        /* \"#utility.yul\":90:96   */\n      0x00\n        /* \"#utility.yul\":143:145   */\n      0x40\n        /* \"#utility.yul\":131:140   */\n      dup4\n        /* \"#utility.yul\":122:129   */\n      dup6\n        /* \"#utility.yul\":118:141   */\n      sub\n        /* \"#utility.yul\":114:146   */\n      slt\n        /* \"#utility.yul\":111:163   */\n      iszero\n      tag_190\n      jumpi\n        /* \"#utility.yul\":159:160   */\n      0x00\n        /* \"#utility.yul\":156:157   */\n      0x00\n        /* \"#utility.yul\":149:161   */\n      revert\n        /* \"#utility.yul\":111:163   */\n    tag_190:\n      pop\n      pop\n        /* \"#utility.yul\":204:227   */\n      dup1\n      calldataload\n      swap3\n        /* \"#utility.yul\":324:326   */\n      0x20\n        /* \"#utility.yul\":309:327   */\n      swap1\n      swap2\n      add\n        /* \"#utility.yul\":296:328   */\n      calldataload\n      swap2\n      pop\n        /* \"#utility.yul\":14:360   */\n      jump\t// out\n        /* \"#utility.yul\":1000:1226   */\n    tag_30:\n        /* \"#utility.yul\":1059:1065   */\n      0x00\n        /* \"#utility.yul\":1112:1114   */\n      0x20\n        /* \"#utility.yul\":1100:1109   */\n      dup3\n        /* \"#utility.yul\":1091:1098   */\n      dup5\n        /* \"#utility.yul\":1087:1110   */\n      sub\n        /* \"#utility.yul\":1083:1115   */\n      slt\n        /* \"#utility.yul\":1080:1132   */\n      iszero\n      tag_195\n      jumpi\n        /* \"#utility.yul\":1128:1129   */\n      0x00\n        /* \"#utility.yul\":1125:1126   */\n      0x00\n        /* \"#utility.yul\":1118:1130   */\n      revert\n        /* \"#utility.yul\":1080:1132   */\n    tag_195:\n      pop\n        /* \"#utility.yul\":1173:1196   */\n      calldataload\n      swap2\n        /* \"#utility.yul\":1000:1226   */\n      swap1\n      pop\n      jump\t// out\n        /* \"#utility.yul\":1231:2097   */\n    tag_34:\n        /* \"#utility.yul\":1318:1324   */\n      0x00\n        /* \"#utility.yul\":1326:1332   */\n      0x00\n        /* \"#utility.yul\":1334:1340   */\n      0x00\n        /* \"#utility.yul\":1342:1348   */\n      0x00\n        /* \"#utility.yul\":1395:1397   */\n      0x60\n        /* \"#utility.yul\":1383:1392   */\n      dup6\n        /* \"#utility.yul\":1374:1381   */\n      dup8\n        /* \"#utility.yul\":1370:1393   */\n      sub\n        /* \"#utility.yul\":1366:1398   */\n      slt\n        /* \"#utility.yul\":1363:1415   */\n      iszero\n      tag_197\n      jumpi\n        /* \"#utility.yul\":1411:1412   */\n      0x00\n        /* \"#utility.yul\":1408:1409   */\n      0x00\n        /* \"#utility.yul\":1401:1413   */\n      revert\n        /* \"#utility.yul\":1363:1415   */\n    tag_197:\n        /* \"#utility.yul\":1456:1479   */\n      dup5\n      calldataload\n      swap4\n      pop\n        /* \"#utility.yul\":1554:1556   */\n      0x20\n        /* \"#utility.yul\":1539:1557   */\n      dup6\n      add\n        /* \"#utility.yul\":1526:1558   */\n      calldataload\n      sub(shl(0x40, 0x01), 0x01)\n        /* \"#utility.yul\":1570:1600   */\n      dup2\n      gt\n        /* \"#utility.yul\":1567:1617   */\n      iszero\n      tag_198\n      jumpi\n        /* \"#utility.yul\":1613:1614   */\n      0x00\n        /* \"#utility.yul\":1610:1611   */\n      0x00\n        /* \"#utility.yul\":1603:1615   */\n      revert\n        /* \"#utility.yul\":1567:1617   */\n    tag_198:\n        /* \"#utility.yul\":1636:1658   */\n      dup6\n      add\n        /* \"#utility.yul\":1689:1693   */\n      0x1f\n        /* \"#utility.yul\":1681:1694   */\n      dup2\n      add\n        /* \"#utility.yul\":1677:1704   */\n      dup8\n      sgt\n        /* \"#utility.yul\":1667:1722   */\n      tag_199\n      jumpi\n        /* \"#utility.yul\":1718:1719   */\n      0x00\n        /* \"#utility.yul\":1715:1716   */\n      0x00\n        /* \"#utility.yul\":1708:1720   */\n      revert\n        /* \"#utility.yul\":1667:1722   */\n    tag_199:\n        /* \"#utility.yul\":1758:1760   */\n      dup1\n        /* \"#utility.yul\":1745:1761   */\n      calldataload\n      sub(shl(0x40, 0x01), 0x01)\n        /* \"#utility.yul\":1776:1782   */\n      dup2\n        /* \"#utility.yul\":1773:1803   */\n      gt\n        /* \"#utility.yul\":1770:1820   */\n      iszero\n      tag_200\n      jumpi\n        /* \"#utility.yul\":1816:1817   */\n      0x00\n        /* \"#utility.yul\":1813:1814   */\n      0x00\n        /* \"#utility.yul\":1806:1818   */\n      revert\n        /* \"#utility.yul\":1770:1820   */\n    tag_200:\n        /* \"#utility.yul\":1861:1868   */\n      dup8\n        /* \"#utility.yul\":1856:1858   */\n      0x20\n        /* \"#utility.yul\":1847:1853   */\n      dup3\n        /* \"#utility.yul\":1843:1845   */\n      dup5\n        /* \"#utility.yul\":1839:1854   */\n      add\n        /* \"#utility.yul\":1835:1859   */\n      add\n        /* \"#utility.yul\":1832:1869   */\n      gt\n        /* \"#utility.yul\":1829:1886   */\n      iszero\n      tag_201\n      jumpi\n        /* \"#utility.yul\":1882:1883   */\n      0x00\n        /* \"#utility.yul\":1879:1880   */\n      0x00\n        /* \"#utility.yul\":1872:1884   */\n      revert\n        /* \"#utility.yul\":1829:1886   */\n    tag_201:\n        /* \"#utility.yul\":1913:1915   */\n      0x20\n        /* \"#utility.yul\":1905:1916   */\n      swap2\n      swap1\n      swap2\n      add\n      swap4\n      pop\n        /* \"#utility.yul\":1935:1941   */\n      swap2\n      pop\n        /* \"#utility.yul\":1993:1995   */\n      0x40\n        /* \"#utility.yul\":1978:1996   */\n      dup6\n      add\n        /* \"#utility.yul\":1965:1997   */\n      calldataload\n        /* \"#utility.yul\":2041:2045   */\n      0xff\n        /* \"#utility.yul\":2028:2046   */\n      dup2\n      and\n        /* \"#utility.yul\":2016:2047   */\n      dup2\n      eq\n        /* \"#utility.yul\":2006:2065   */\n      tag_202\n      jumpi\n        /* \"#utility.yul\":2061:2062   */\n      0x00\n        /* \"#utility.yul\":2058:2059   */\n      0x00\n        /* \"#utility.yul\":2051:2063   */\n      revert\n        /* \"#utility.yul\":2006:2065   */\n    tag_202:\n        /* \"#utility.yul\":1231:2097   */\n      swap4\n      swap7\n      swap3\n      swap6\n      pop\n      swap1\n      swap4\n      pop\n      pop\n      jump\t// out\n        /* \"#utility.yul\":2102:2388   */\n    tag_39:\n        /* \"#utility.yul\":2161:2167   */\n      0x00\n        /* \"#utility.yul\":2214:2216   */\n      0x20\n        /* \"#utility.yul\":2202:2211   */\n      dup3\n        /* \"#utility.yul\":2193:2200   */\n      dup5\n        /* \"#utility.yul\":2189:2212   */\n      sub\n        /* \"#utility.yul\":2185:2217   */\n      slt\n        /* \"#utility.yul\":2182:2234   */\n      iszero\n      tag_204\n      jumpi\n        /* \"#utility.yul\":2230:2231   */\n      0x00\n        /* \"#utility.yul\":2227:2228   */\n      0x00\n        /* \"#utility.yul\":2220:2232   */\n      revert\n        /* \"#utility.yul\":2182:2234   */\n    tag_204:\n        /* \"#utility.yul\":2256:2279   */\n      dup2\n      calldataload\n      sub(shl(0xa0, 0x01), 0x01)\n        /* \"#utility.yul\":2308:2339   */\n      dup2\n      and\n        /* \"#utility.yul\":2298:2340   */\n      dup2\n      eq\n        /* \"#utility.yul\":2288:2358   */\n      tag_205\n      jumpi\n        /* \"#utility.yul\":2354:2355   */\n      0x00\n        /* \"#utility.yul\":2351:2352   */\n      0x00\n        /* \"#utility.yul\":2344:2356   */\n      revert\n        /* \"#utility.yul\":2288:2358   */\n    tag_205:\n        /* \"#utility.yul\":2377:2382   */\n      swap4\n        /* \"#utility.yul\":2102:2388   */\n      swap3\n      pop\n      pop\n      pop\n      jump\t// out\n        /* \"#utility.yul\":2393:2682   */\n    tag_178:\n        /* \"#utility.yul\":2435:2438   */\n      0x00\n        /* \"#utility.yul\":2473:2478   */\n      dup2\n        /* \"#utility.yul\":2467:2479   */\n      mload\n        /* \"#utility.yul\":2500:2506   */\n      dup1\n        /* \"#utility.yul\":2495:2498   */\n      dup5\n        /* \"#utility.yul\":2488:2507   */\n      mstore\n        /* \"#utility.yul\":2556:2562   */\n      dup1\n        /* \"#utility.yul\":2549:2553   */\n      0x20\n        /* \"#utility.yul\":2542:2547   */\n      dup5\n        /* \"#utility.yul\":2538:2554   */\n      add\n        /* \"#utility.yul\":2531:2535   */\n      0x20\n        /* \"#utility.yul\":2526:2529   */\n      dup7\n        /* \"#utility.yul\":2522:2536   */\n      add\n        /* \"#utility.yul\":2516:2563   */\n      mcopy\n        /* \"#utility.yul\":2608:2609   */\n      0x00\n        /* \"#utility.yul\":2601:2605   */\n      0x20\n        /* \"#utility.yul\":2592:2598   */\n      dup3\n        /* \"#utility.yul\":2587:2590   */\n      dup7\n        /* \"#utility.yul\":2583:2599   */\n      add\n        /* \"#utility.yul\":2579:2606   */\n      add\n        /* \"#utility.yul\":2572:2610   */\n      mstore\n        /* \"#utility.yul\":2671:2675   */\n      0x20\n        /* \"#utility.yul\":2664:2666   */\n      0x1f\n        /* \"#utility.yul\":2660:2667   */\n      not\n        /* \"#utility.yul\":2655:2657   */\n      0x1f\n        /* \"#utility.yul\":2647:2653   */\n      dup4\n        /* \"#utility.yul\":2643:2658   */\n      add\n        /* \"#utility.yul\":2639:2668   */\n      and\n        /* \"#utility.yul\":2634:2637   */\n      dup6\n        /* \"#utility.yul\":2630:2669   */\n      add\n        /* \"#utility.yul\":2626:2676   */\n      add\n        /* \"#utility.yul\":2619:2676   */\n      swap2\n      pop\n      pop\n        /* \"#utility.yul\":2393:2682   */\n      swap3\n      swap2\n      pop\n      pop\n      jump\t// out\n        /* \"#utility.yul\":2687:3299   */\n    tag_45:\n        /* \"#utility.yul\":2972:2978   */\n      dup7\n        /* \"#utility.yul\":2961:2970   */\n      dup2\n        /* \"#utility.yul\":2954:2979   */\n      mstore\n        /* \"#utility.yul\":3044:3045   */\n      0x01\n        /* \"#utility.yul\":3040:3041   */\n      dup1\n        /* \"#utility.yul\":3035:3038   */\n      0xa0\n        /* \"#utility.yul\":3031:3042   */\n      shl\n        /* \"#utility.yul\":3027:3046   */\n      sub\n        /* \"#utility.yul\":3019:3025   */\n      dup7\n        /* \"#utility.yul\":3015:3047   */\n      and\n        /* \"#utility.yul\":3010:3012   */\n      0x20\n        /* \"#utility.yul\":2999:3008   */\n      dup3\n        /* \"#utility.yul\":2995:3013   */\n      add\n        /* \"#utility.yul\":2988:3048   */\n      mstore\n        /* \"#utility.yul\":3084:3090   */\n      dup5\n        /* \"#utility.yul\":3079:3081   */\n      0x40\n        /* \"#utility.yul\":3068:3077   */\n      dup3\n        /* \"#utility.yul\":3064:3082   */\n      add\n        /* \"#utility.yul\":3057:3091   */\n      mstore\n        /* \"#utility.yul\":3127:3130   */\n      0xc0\n        /* \"#utility.yul\":3122:3124   */\n      0x60\n        /* \"#utility.yul\":3111:3120   */\n      dup3\n        /* \"#utility.yul\":3107:3125   */\n      add\n        /* \"#utility.yul\":3100:3131   */\n      mstore\n        /* \"#utility.yul\":2935:2939   */\n      0x00\n        /* \"#utility.yul\":3148:3194   */\n      tag_208\n        /* \"#utility.yul\":3189:3192   */\n      0xc0\n        /* \"#utility.yul\":3178:3187   */\n      dup4\n        /* \"#utility.yul\":3174:3193   */\n      add\n        /* \"#utility.yul\":3166:3172   */\n      dup7\n        /* \"#utility.yul\":3148:3194   */\n      tag_178\n      jump\t// in\n    tag_208:\n        /* \"#utility.yul\":3243:3247   */\n      0xff\n        /* \"#utility.yul\":3231:3248   */\n      swap5\n      swap1\n      swap5\n      and\n        /* \"#utility.yul\":3225:3228   */\n      0x80\n        /* \"#utility.yul\":3210:3229   */\n      dup4\n      add\n        /* \"#utility.yul\":3203:3249   */\n      mstore\n      pop\n        /* \"#utility.yul\":3280:3283   */\n      0xa0\n        /* \"#utility.yul\":3265:3284   */\n      add\n        /* \"#utility.yul\":3258:3293   */\n      mstore\n        /* \"#utility.yul\":3140:3194   */\n      swap5\n        /* \"#utility.yul\":2687:3299   */\n      swap4\n      pop\n      pop\n      pop\n      pop\n      jump\t// out\n        /* \"#utility.yul\":3304:4603   */\n    tag_53:\n        /* \"#utility.yul\":3500:3504   */\n      0x00\n        /* \"#utility.yul\":3548:3550   */\n      0x20\n        /* \"#utility.yul\":3537:3546   */\n      dup3\n        /* \"#utility.yul\":3533:3551   */\n      add\n        /* \"#utility.yul\":3578:3580   */\n      0x20\n        /* \"#utility.yul\":3567:3576   */\n      dup4\n        /* \"#utility.yul\":3560:3581   */\n      mstore\n        /* \"#utility.yul\":3601:3607   */\n      dup1\n        /* \"#utility.yul\":3636:3642   */\n      dup5\n        /* \"#utility.yul\":3630:3643   */\n      mload\n        /* \"#utility.yul\":3667:3673   */\n      dup1\n        /* \"#utility.yul\":3659:3665   */\n      dup4\n        /* \"#utility.yul\":3652:3674   */\n      mstore\n        /* \"#utility.yul\":3705:3707   */\n      0x40\n        /* \"#utility.yul\":3694:3703   */\n      dup6\n        /* \"#utility.yul\":3690:3708   */\n      add\n        /* \"#utility.yul\":3683:3708   */\n      swap2\n      pop\n        /* \"#utility.yul\":3767:3769   */\n      0x40\n        /* \"#utility.yul\":3757:3763   */\n      dup2\n        /* \"#utility.yul\":3754:3755   */\n      0x05\n        /* \"#utility.yul\":3750:3764   */\n      shl\n        /* \"#utility.yul\":3739:3748   */\n      dup7\n        /* \"#utility.yul\":3735:3765   */\n      add\n        /* \"#utility.yul\":3731:3770   */\n      add\n        /* \"#utility.yul\":3717:3770   */\n      swap3\n      pop\n        /* \"#utility.yul\":3805:3807   */\n      0x20\n        /* \"#utility.yul\":3797:3803   */\n      dup7\n        /* \"#utility.yul\":3793:3808   */\n      add\n        /* \"#utility.yul\":3826:3827   */\n      0x00\n        /* \"#utility.yul\":3836:4574   */\n    tag_210:\n        /* \"#utility.yul\":3850:3856   */\n      dup3\n        /* \"#utility.yul\":3847:3848   */\n      dup2\n        /* \"#utility.yul\":3844:3857   */\n      lt\n        /* \"#utility.yul\":3836:4574   */\n      iszero\n      tag_212\n      jumpi\n        /* \"#utility.yul\":3943:3945   */\n      0x3f\n        /* \"#utility.yul\":3939:3946   */\n      not\n        /* \"#utility.yul\":3927:3936   */\n      dup8\n        /* \"#utility.yul\":3919:3925   */\n      dup7\n        /* \"#utility.yul\":3915:3937   */\n      sub\n        /* \"#utility.yul\":3911:3947   */\n      add\n        /* \"#utility.yul\":3906:3909   */\n      dup5\n        /* \"#utility.yul\":3899:3948   */\n      mstore\n        /* \"#utility.yul\":3977:3983   */\n      dup2\n        /* \"#utility.yul\":3971:3984   */\n      mload\n        /* \"#utility.yul\":4018:4020   */\n      dup1\n        /* \"#utility.yul\":4012:4021   */\n      mload\n        /* \"#utility.yul\":4004:4010   */\n      dup7\n        /* \"#utility.yul\":3997:4022   */\n      mstore\n        /* \"#utility.yul\":4100:4101   */\n      0x01\n        /* \"#utility.yul\":4096:4097   */\n      dup1\n        /* \"#utility.yul\":4091:4094   */\n      0xa0\n        /* \"#utility.yul\":4087:4098   */\n      shl\n        /* \"#utility.yul\":4083:4102   */\n      sub\n        /* \"#utility.yul\":4077:4079   */\n      0x20\n        /* \"#utility.yul\":4073:4075   */\n      dup3\n        /* \"#utility.yul\":4069:4080   */\n      add\n        /* \"#utility.yul\":4063:4081   */\n      mload\n        /* \"#utility.yul\":4059:4103   */\n      and\n        /* \"#utility.yul\":4054:4056   */\n      0x20\n        /* \"#utility.yul\":4046:4052   */\n      dup8\n        /* \"#utility.yul\":4042:4057   */\n      add\n        /* \"#utility.yul\":4035:4104   */\n      mstore\n        /* \"#utility.yul\":4155:4157   */\n      0x40\n        /* \"#utility.yul\":4151:4153   */\n      dup2\n        /* \"#utility.yul\":4147:4158   */\n      add\n        /* \"#utility.yul\":4141:4159   */\n      mload\n        /* \"#utility.yul\":4136:4138   */\n      0x40\n        /* \"#utility.yul\":4128:4134   */\n      dup8\n        /* \"#utility.yul\":4124:4139   */\n      add\n        /* \"#utility.yul\":4117:4160   */\n      mstore\n        /* \"#utility.yul\":4207:4211   */\n      0x60\n        /* \"#utility.yul\":4203:4205   */\n      dup2\n        /* \"#utility.yul\":4199:4212   */\n      add\n        /* \"#utility.yul\":4193:4213   */\n      mload\n        /* \"#utility.yul\":4252:4256   */\n      0xc0\n        /* \"#utility.yul\":4245:4249   */\n      0x60\n        /* \"#utility.yul\":4237:4243   */\n      dup9\n        /* \"#utility.yul\":4233:4250   */\n      add\n        /* \"#utility.yul\":4226:4257   */\n      mstore\n        /* \"#utility.yul\":4284:4334   */\n      tag_213\n        /* \"#utility.yul\":4328:4332   */\n      0xc0\n        /* \"#utility.yul\":4320:4326   */\n      dup9\n        /* \"#utility.yul\":4316:4333   */\n      add\n        /* \"#utility.yul\":4302:4314   */\n      dup3\n        /* \"#utility.yul\":4284:4334   */\n      tag_178\n      jump\t// in\n    tag_213:\n        /* \"#utility.yul\":4391:4395   */\n      0x80\n        /* \"#utility.yul\":4383:4396   */\n      dup4\n      dup2\n      add\n        /* \"#utility.yul\":4377:4397   */\n      mload\n        /* \"#utility.yul\":4399:4403   */\n      0xff\n        /* \"#utility.yul\":4373:4404   */\n      and\n        /* \"#utility.yul\":4354:4371   */\n      swap1\n      dup10\n      add\n        /* \"#utility.yul\":4347:4405   */\n      mstore\n        /* \"#utility.yul\":4458:4462   */\n      0xa0\n        /* \"#utility.yul\":4450:4463   */\n      swap3\n      dup4\n      add\n        /* \"#utility.yul\":4444:4464   */\n      mload\n        /* \"#utility.yul\":4425:4442   */\n      swap3\n      swap1\n      swap8\n      add\n        /* \"#utility.yul\":4418:4465   */\n      swap2\n      swap1\n      swap2\n      mstore\n      pop\n        /* \"#utility.yul\":4529:4531   */\n      0x20\n        /* \"#utility.yul\":4552:4564   */\n      swap4\n      dup5\n      add\n      swap4\n        /* \"#utility.yul\":4517:4532   */\n      swap2\n      swap1\n      swap2\n      add\n      swap1\n        /* \"#utility.yul\":3872:3873   */\n      0x01\n        /* \"#utility.yul\":3865:3874   */\n      add\n        /* \"#utility.yul\":3836:4574   */\n      jump(tag_210)\n    tag_212:\n      pop\n        /* \"#utility.yul\":4591:4597   */\n      swap3\n      swap7\n        /* \"#utility.yul\":3304:4603   */\n      swap6\n      pop\n      pop\n      pop\n      pop\n      pop\n      pop\n      jump\t// out\n        /* \"#utility.yul\":4958:5085   */\n    tag_68:\n        /* \"#utility.yul\":5019:5029   */\n      0x4e487b71\n        /* \"#utility.yul\":5014:5017   */\n      0xe0\n        /* \"#utility.yul\":5010:5030   */\n      shl\n        /* \"#utility.yul\":5007:5008   */\n      0x00\n        /* \"#utility.yul\":5000:5031   */\n      mstore\n        /* \"#utility.yul\":5050:5054   */\n      0x32\n        /* \"#utility.yul\":5047:5048   */\n      0x04\n        /* \"#utility.yul\":5040:5055   */\n      mstore\n        /* \"#utility.yul\":5074:5078   */\n      0x24\n        /* \"#utility.yul\":5071:5072   */\n      0x00\n        /* \"#utility.yul\":5064:5079   */\n      revert\n        /* \"#utility.yul\":5090:5217   */\n    tag_179:\n        /* \"#utility.yul\":5151:5161   */\n      0x4e487b71\n        /* \"#utility.yul\":5146:5149   */\n      0xe0\n        /* \"#utility.yul\":5142:5162   */\n      shl\n        /* \"#utility.yul\":5139:5140   */\n      0x00\n        /* \"#utility.yul\":5132:5163   */\n      mstore\n        /* \"#utility.yul\":5182:5186   */\n      0x11\n        /* \"#utility.yul\":5179:5180   */\n      0x04\n        /* \"#utility.yul\":5172:5187   */\n      mstore\n        /* \"#utility.yul\":5206:5210   */\n      0x24\n        /* \"#utility.yul\":5203:5204   */\n      0x00\n        /* \"#utility.yul\":5196:5211   */\n      revert\n        /* \"#utility.yul\":5222:5350   */\n    tag_72:\n        /* \"#utility.yul\":5289:5298   */\n      dup2\n      dup2\n      sub\n        /* \"#utility.yul\":5310:5321   */\n      dup2\n      dup2\n      gt\n        /* \"#utility.yul\":5307:5344   */\n      iszero\n      tag_219\n      jumpi\n        /* \"#utility.yul\":5324:5342   */\n      tag_219\n      tag_179\n      jump\t// in\n    tag_219:\n        /* \"#utility.yul\":5222:5350   */\n      swap3\n      swap2\n      pop\n      pop\n      jump\t// out\n        /* \"#utility.yul\":5355:5482   */\n    tag_81:\n        /* \"#utility.yul\":5416:5426   */\n      0x4e487b71\n        /* \"#utility.yul\":5411:5414   */\n      0xe0\n        /* \"#utility.yul\":5407:5427   */\n      shl\n        /* \"#utility.yul\":5404:5405   */\n      0x00\n        /* \"#utility.yul\":5397:5428   */\n      mstore\n        /* \"#utility.yul\":5447:5451   */\n      0x31\n        /* \"#utility.yul\":5444:5445   */\n      0x04\n        /* \"#utility.yul\":5437:5452   */\n      mstore\n        /* \"#utility.yul\":5471:5475   */\n      0x24\n        /* \"#utility.yul\":5468:5469   */\n      0x00\n        /* \"#utility.yul\":5461:5476   */\n      revert\n        /* \"#utility.yul\":5487:5614   */\n    tag_135:\n        /* \"#utility.yul\":5548:5558   */\n      0x4e487b71\n        /* \"#utility.yul\":5543:5546   */\n      0xe0\n        /* \"#utility.yul\":5539:5559   */\n      shl\n        /* \"#utility.yul\":5536:5537   */\n      0x00\n        /* \"#utility.yul\":5529:5560   */\n      mstore\n        /* \"#utility.yul\":5579:5583   */\n      0x41\n        /* \"#utility.yul\":5576:5577   */\n      0x04\n        /* \"#utility.yul\":5569:5584   */\n      mstore\n        /* \"#utility.yul\":5603:5607   */\n      0x24\n        /* \"#utility.yul\":5600:5601   */\n      0x00\n        /* \"#utility.yul\":5593:5608   */\n      revert\n        /* \"#utility.yul\":5619:5874   */\n    tag_180:\n        /* \"#utility.yul\":5691:5693   */\n      0x40\n        /* \"#utility.yul\":5685:5694   */\n      mload\n        /* \"#utility.yul\":5733:5739   */\n      0x0140\n        /* \"#utility.yul\":5721:5740   */\n      dup2\n      add\n      sub(shl(0x40, 0x01), 0x01)\n        /* \"#utility.yul\":5755:5789   */\n      dup2\n      gt\n        /* \"#utility.yul\":5791:5813   */\n      dup3\n      dup3\n      lt\n        /* \"#utility.yul\":5752:5814   */\n      or\n        /* \"#utility.yul\":5749:5837   */\n      iszero\n      tag_224\n      jumpi\n        /* \"#utility.yul\":5817:5835   */\n      tag_224\n      tag_135\n      jump\t// in\n    tag_224:\n        /* \"#utility.yul\":5853:5855   */\n      0x40\n        /* \"#utility.yul\":5846:5868   */\n      mstore\n        /* \"#utility.yul\":5619:5874   */\n      swap1\n      jump\t// out\n        /* \"#utility.yul\":5879:6154   */\n    tag_181:\n        /* \"#utility.yul\":5950:5952   */\n      0x40\n        /* \"#utility.yul\":5944:5953   */\n      mload\n        /* \"#utility.yul\":6015:6017   */\n      0x1f\n        /* \"#utility.yul\":5996:6009   */\n      dup3\n      add\n      not(0x1f)\n        /* \"#utility.yul\":5992:6019   */\n      and\n        /* \"#utility.yul\":5980:6020   */\n      dup2\n      add\n      sub(shl(0x40, 0x01), 0x01)\n        /* \"#utility.yul\":6035:6069   */\n      dup2\n      gt\n        /* \"#utility.yul\":6071:6093   */\n      dup3\n      dup3\n      lt\n        /* \"#utility.yul\":6032:6094   */\n      or\n        /* \"#utility.yul\":6029:6117   */\n      iszero\n      tag_227\n      jumpi\n        /* \"#utility.yul\":6097:6115   */\n      tag_227\n      tag_135\n      jump\t// in\n    tag_227:\n        /* \"#utility.yul\":6133:6135   */\n      0x40\n        /* \"#utility.yul\":6126:6148   */\n      mstore\n        /* \"#utility.yul\":5879:6154   */\n      swap2\n      swap1\n      pop\n      jump\t// out\n        /* \"#utility.yul\":6159:6715   */\n    tag_182:\n        /* \"#utility.yul\":6213:6218   */\n      0x00\n        /* \"#utility.yul\":6266:6269   */\n      dup3\n        /* \"#utility.yul\":6259:6263   */\n      0x1f\n        /* \"#utility.yul\":6251:6257   */\n      dup4\n        /* \"#utility.yul\":6247:6264   */\n      add\n        /* \"#utility.yul\":6243:6270   */\n      slt\n        /* \"#utility.yul\":6233:6288   */\n      tag_229\n      jumpi\n        /* \"#utility.yul\":6284:6285   */\n      0x00\n        /* \"#utility.yul\":6281:6282   */\n      0x00\n        /* \"#utility.yul\":6274:6286   */\n      revert\n        /* \"#utility.yul\":6233:6288   */\n    tag_229:\n        /* \"#utility.yul\":6317:6323   */\n      dup2\n        /* \"#utility.yul\":6311:6324   */\n      mload\n      sub(shl(0x40, 0x01), 0x01)\n        /* \"#utility.yul\":6339:6345   */\n      dup2\n        /* \"#utility.yul\":6336:6366   */\n      gt\n        /* \"#utility.yul\":6333:6389   */\n      iszero\n      tag_231\n      jumpi\n        /* \"#utility.yul\":6369:6387   */\n      tag_231\n      tag_135\n      jump\t// in\n    tag_231:\n        /* \"#utility.yul\":6413:6472   */\n      tag_232\n        /* \"#utility.yul\":6460:6462   */\n      0x1f\n        /* \"#utility.yul\":6437:6454   */\n      dup3\n      add\n      not(0x1f)\n        /* \"#utility.yul\":6433:6464   */\n      and\n        /* \"#utility.yul\":6466:6470   */\n      0x20\n        /* \"#utility.yul\":6429:6471   */\n      add\n        /* \"#utility.yul\":6413:6472   */\n      tag_181\n      jump\t// in\n    tag_232:\n        /* \"#utility.yul\":6497:6503   */\n      dup2\n        /* \"#utility.yul\":6488:6495   */\n      dup2\n        /* \"#utility.yul\":6481:6504   */\n      mstore\n        /* \"#utility.yul\":6551:6554   */\n      dup5\n        /* \"#utility.yul\":6544:6548   */\n      0x20\n        /* \"#utility.yul\":6535:6541   */\n      dup4\n        /* \"#utility.yul\":6527:6533   */\n      dup7\n        /* \"#utility.yul\":6523:6542   */\n      add\n        /* \"#utility.yul\":6519:6549   */\n      add\n        /* \"#utility.yul\":6516:6555   */\n      gt\n        /* \"#utility.yul\":6513:6572   */\n      iszero\n      tag_233\n      jumpi\n        /* \"#utility.yul\":6568:6569   */\n      0x00\n        /* \"#utility.yul\":6565:6566   */\n      0x00\n        /* \"#utility.yul\":6558:6570   */\n      revert\n        /* \"#utility.yul\":6513:6572   */\n    tag_233:\n        /* \"#utility.yul\":6626:6632   */\n      dup2\n        /* \"#utility.yul\":6619:6623   */\n      0x20\n        /* \"#utility.yul\":6611:6617   */\n      dup6\n        /* \"#utility.yul\":6607:6624   */\n      add\n        /* \"#utility.yul\":6600:6604   */\n      0x20\n        /* \"#utility.yul\":6591:6598   */\n      dup4\n        /* \"#utility.yul\":6587:6605   */\n      add\n        /* \"#utility.yul\":6581:6633   */\n      mcopy\n        /* \"#utility.yul\":6682:6683   */\n      0x00\n        /* \"#utility.yul\":6653:6673   */\n      swap2\n      dup2\n      add\n        /* \"#utility.yul\":6675:6679   */\n      0x20\n        /* \"#utility.yul\":6649:6680   */\n      add\n        /* \"#utility.yul\":6642:6684   */\n      swap2\n      swap1\n      swap2\n      mstore\n        /* \"#utility.yul\":6657:6664   */\n      swap4\n        /* \"#utility.yul\":6159:6715   */\n      swap3\n      pop\n      pop\n      pop\n      jump\t// out\n        /* \"#utility.yul\":6720:7607   */\n    tag_183:\n        /* \"#utility.yul\":6784:6789   */\n      0x00\n        /* \"#utility.yul\":6837:6840   */\n      dup3\n        /* \"#utility.yul\":6830:6834   */\n      0x1f\n        /* \"#utility.yul\":6822:6828   */\n      dup4\n        /* \"#utility.yul\":6818:6835   */\n      add\n        /* \"#utility.yul\":6814:6841   */\n      slt\n        /* \"#utility.yul\":6804:6859   */\n      tag_235\n      jumpi\n        /* \"#utility.yul\":6855:6856   */\n      0x00\n        /* \"#utility.yul\":6852:6853   */\n      0x00\n        /* \"#utility.yul\":6845:6857   */\n      revert\n        /* \"#utility.yul\":6804:6859   */\n    tag_235:\n        /* \"#utility.yul\":6888:6894   */\n      dup2\n        /* \"#utility.yul\":6882:6895   */\n      mload\n      sub(shl(0x40, 0x01), 0x01)\n        /* \"#utility.yul\":6910:6916   */\n      dup2\n        /* \"#utility.yul\":6907:6937   */\n      gt\n        /* \"#utility.yul\":6904:6960   */\n      iszero\n      tag_237\n      jumpi\n        /* \"#utility.yul\":6940:6958   */\n      tag_237\n      tag_135\n      jump\t// in\n    tag_237:\n        /* \"#utility.yul\":6986:6992   */\n      dup1\n        /* \"#utility.yul\":6983:6984   */\n      0x05\n        /* \"#utility.yul\":6979:6993   */\n      shl\n        /* \"#utility.yul\":7013:7043   */\n      tag_238\n        /* \"#utility.yul\":7037:7041   */\n      0x20\n        /* \"#utility.yul\":7033:7035   */\n      dup3\n        /* \"#utility.yul\":7029:7042   */\n      add\n        /* \"#utility.yul\":7013:7043   */\n      tag_181\n      jump\t// in\n    tag_238:\n        /* \"#utility.yul\":7079:7098   */\n      swap2\n      dup3\n      mstore\n        /* \"#utility.yul\":7123:7127   */\n      0x20\n        /* \"#utility.yul\":7155:7170   */\n      dup2\n      dup6\n      add\n        /* \"#utility.yul\":7151:7177   */\n      dup2\n      add\n      swap3\n        /* \"#utility.yul\":7114:7128   */\n      swap1\n      dup2\n      add\n      swap1\n        /* \"#utility.yul\":7189:7204   */\n      dup7\n      dup5\n      gt\n        /* \"#utility.yul\":7186:7221   */\n      iszero\n      tag_239\n      jumpi\n        /* \"#utility.yul\":7217:7218   */\n      0x00\n        /* \"#utility.yul\":7214:7215   */\n      0x00\n        /* \"#utility.yul\":7207:7219   */\n      revert\n        /* \"#utility.yul\":7186:7221   */\n    tag_239:\n        /* \"#utility.yul\":7253:7257   */\n      0x20\n        /* \"#utility.yul\":7245:7251   */\n      dup7\n        /* \"#utility.yul\":7241:7258   */\n      add\n        /* \"#utility.yul\":7230:7258   */\n      swap3\n      pop\n        /* \"#utility.yul\":7267:7576   */\n    tag_240:\n        /* \"#utility.yul\":7283:7289   */\n      dup4\n        /* \"#utility.yul\":7278:7281   */\n      dup4\n        /* \"#utility.yul\":7275:7290   */\n      lt\n        /* \"#utility.yul\":7267:7576   */\n      iszero\n      tag_242\n      jumpi\n        /* \"#utility.yul\":7364:7367   */\n      dup3\n        /* \"#utility.yul\":7358:7368   */\n      mload\n      sub(shl(0x40, 0x01), 0x01)\n        /* \"#utility.yul\":7387:7398   */\n      dup2\n        /* \"#utility.yul\":7384:7419   */\n      gt\n        /* \"#utility.yul\":7381:7436   */\n      iszero\n      tag_243\n      jumpi\n        /* \"#utility.yul\":7432:7433   */\n      0x00\n        /* \"#utility.yul\":7429:7430   */\n      0x00\n        /* \"#utility.yul\":7422:7434   */\n      revert\n        /* \"#utility.yul\":7381:7436   */\n    tag_243:\n        /* \"#utility.yul\":7461:7531   */\n      tag_244\n        /* \"#utility.yul\":7527:7530   */\n      dup9\n        /* \"#utility.yul\":7520:7524   */\n      0x20\n        /* \"#utility.yul\":7506:7517   */\n      dup4\n        /* \"#utility.yul\":7498:7504   */\n      dup11\n        /* \"#utility.yul\":7494:7518   */\n      add\n        /* \"#utility.yul\":7490:7525   */\n      add\n        /* \"#utility.yul\":7461:7531   */\n      tag_182\n      jump\t// in\n    tag_244:\n        /* \"#utility.yul\":7449:7532   */\n      dup4\n      mstore\n      pop\n        /* \"#utility.yul\":7561:7565   */\n      0x20\n        /* \"#utility.yul\":7300:7314   */\n      swap3\n      dup4\n      add\n      swap3\n        /* \"#utility.yul\":7552:7566   */\n      swap1\n      swap2\n      add\n      swap1\n        /* \"#utility.yul\":7267:7576   */\n      jump(tag_240)\n    tag_242:\n        /* \"#utility.yul\":7594:7601   */\n      swap7\n        /* \"#utility.yul\":6720:7607   */\n      swap6\n      pop\n      pop\n      pop\n      pop\n      pop\n      pop\n      jump\t// out\n        /* \"#utility.yul\":7612:7776   */\n    tag_184:\n        /* \"#utility.yul\":7688:7701   */\n      dup1\n      mload\n        /* \"#utility.yul\":7737:7750   */\n      dup1\n      iszero\n        /* \"#utility.yul\":7730:7751   */\n      iszero\n        /* \"#utility.yul\":7720:7752   */\n      dup2\n      eq\n        /* \"#utility.yul\":7710:7770   */\n      tag_246\n      jumpi\n        /* \"#utility.yul\":7766:7767   */\n      0x00\n        /* \"#utility.yul\":7763:7764   */\n      0x00\n        /* \"#utility.yul\":7756:7768   */\n      revert\n        /* \"#utility.yul\":7710:7770   */\n    tag_246:\n        /* \"#utility.yul\":7612:7776   */\n      swap2\n      swap1\n      pop\n      jump\t// out\n        /* \"#utility.yul\":7781:9489   */\n    tag_87:\n        /* \"#utility.yul\":7872:7878   */\n      0x00\n        /* \"#utility.yul\":7925:7927   */\n      0x20\n        /* \"#utility.yul\":7913:7922   */\n      dup3\n        /* \"#utility.yul\":7904:7911   */\n      dup5\n        /* \"#utility.yul\":7900:7923   */\n      sub\n        /* \"#utility.yul\":7896:7928   */\n      slt\n        /* \"#utility.yul\":7893:7945   */\n      iszero\n      tag_248\n      jumpi\n        /* \"#utility.yul\":7941:7942   */\n      0x00\n        /* \"#utility.yul\":7938:7939   */\n      0x00\n        /* \"#utility.yul\":7931:7943   */\n      revert\n        /* \"#utility.yul\":7893:7945   */\n    tag_248:\n        /* \"#utility.yul\":7974:7983   */\n      dup2\n        /* \"#utility.yul\":7968:7984   */\n      mload\n      sub(shl(0x40, 0x01), 0x01)\n        /* \"#utility.yul\":7999:8005   */\n      dup2\n        /* \"#utility.yul\":7996:8026   */\n      gt\n        /* \"#utility.yul\":7993:8043   */\n      iszero\n      tag_249\n      jumpi\n        /* \"#utility.yul\":8039:8040   */\n      0x00\n        /* \"#utility.yul\":8036:8037   */\n      0x00\n        /* \"#utility.yul\":8029:8041   */\n      revert\n        /* \"#utility.yul\":7993:8043   */\n    tag_249:\n        /* \"#utility.yul\":8062:8084   */\n      dup3\n      add\n        /* \"#utility.yul\":8118:8124   */\n      0x0140\n        /* \"#utility.yul\":8100:8116   */\n      dup2\n      dup6\n      sub\n        /* \"#utility.yul\":8096:8125   */\n      slt\n        /* \"#utility.yul\":8093:8142   */\n      iszero\n      tag_250\n      jumpi\n        /* \"#utility.yul\":8138:8139   */\n      0x00\n        /* \"#utility.yul\":8135:8136   */\n      0x00\n        /* \"#utility.yul\":8128:8140   */\n      revert\n        /* \"#utility.yul\":8093:8142   */\n    tag_250:\n        /* \"#utility.yul\":8164:8186   */\n      tag_251\n      tag_180\n      jump\t// in\n    tag_251:\n        /* \"#utility.yul\":8231:8240   */\n      dup2\n      mload\n        /* \"#utility.yul\":8249:8271   */\n      dup2\n      mstore\n        /* \"#utility.yul\":8310:8312   */\n      0x20\n        /* \"#utility.yul\":8302:8313   */\n      dup3\n      add\n        /* \"#utility.yul\":8296:8314   */\n      mload\n      sub(shl(0x40, 0x01), 0x01)\n        /* \"#utility.yul\":8326:8358   */\n      dup2\n      gt\n        /* \"#utility.yul\":8323:8375   */\n      iszero\n      tag_252\n      jumpi\n        /* \"#utility.yul\":8371:8372   */\n      0x00\n        /* \"#utility.yul\":8368:8369   */\n      0x00\n        /* \"#utility.yul\":8361:8373   */\n      revert\n        /* \"#utility.yul\":8323:8375   */\n    tag_252:\n        /* \"#utility.yul\":8407:8463   */\n      tag_253\n        /* \"#utility.yul\":8455:8462   */\n      dup7\n        /* \"#utility.yul\":8444:8452   */\n      dup3\n        /* \"#utility.yul\":8440:8442   */\n      dup6\n        /* \"#utility.yul\":8436:8453   */\n      add\n        /* \"#utility.yul\":8407:8463   */\n      tag_182\n      jump\t// in\n    tag_253:\n        /* \"#utility.yul\":8402:8404   */\n      0x20\n        /* \"#utility.yul\":8395:8400   */\n      dup4\n        /* \"#utility.yul\":8391:8405   */\n      add\n        /* \"#utility.yul\":8384:8464   */\n      mstore\n      pop\n        /* \"#utility.yul\":8503:8505   */\n      0x40\n        /* \"#utility.yul\":8499:8501   */\n      dup3\n        /* \"#utility.yul\":8495:8506   */\n      add\n        /* \"#utility.yul\":8489:8507   */\n      mload\n      sub(shl(0x40, 0x01), 0x01)\n        /* \"#utility.yul\":8522:8530   */\n      dup2\n        /* \"#utility.yul\":8519:8551   */\n      gt\n        /* \"#utility.yul\":8516:8568   */\n      iszero\n      tag_254\n      jumpi\n        /* \"#utility.yul\":8564:8565   */\n      0x00\n        /* \"#utility.yul\":8561:8562   */\n      0x00\n        /* \"#utility.yul\":8554:8566   */\n      revert\n        /* \"#utility.yul\":8516:8568   */\n    tag_254:\n        /* \"#utility.yul\":8600:8656   */\n      tag_255\n        /* \"#utility.yul\":8648:8655   */\n      dup7\n        /* \"#utility.yul\":8637:8645   */\n      dup3\n        /* \"#utility.yul\":8633:8635   */\n      dup6\n        /* \"#utility.yul\":8629:8646   */\n      add\n        /* \"#utility.yul\":8600:8656   */\n      tag_182\n      jump\t// in\n    tag_255:\n        /* \"#utility.yul\":8595:8597   */\n      0x40\n        /* \"#utility.yul\":8584:8598   */\n      dup4\n      add\n        /* \"#utility.yul\":8577:8657   */\n      mstore\n      pop\n        /* \"#utility.yul\":8716:8718   */\n      0x60\n        /* \"#utility.yul\":8708:8719   */\n      dup3\n      dup2\n      add\n        /* \"#utility.yul\":8702:8720   */\n      mload\n        /* \"#utility.yul\":8736:8750   */\n      swap1\n      dup3\n      add\n        /* \"#utility.yul\":8729:8760   */\n      mstore\n        /* \"#utility.yul\":8799:8802   */\n      0x80\n        /* \"#utility.yul\":8791:8803   */\n      dup3\n      add\n        /* \"#utility.yul\":8785:8804   */\n      mload\n      sub(shl(0x40, 0x01), 0x01)\n        /* \"#utility.yul\":8816:8848   */\n      dup2\n      gt\n        /* \"#utility.yul\":8813:8865   */\n      iszero\n      tag_256\n      jumpi\n        /* \"#utility.yul\":8861:8862   */\n      0x00\n        /* \"#utility.yul\":8858:8859   */\n      0x00\n        /* \"#utility.yul\":8851:8863   */\n      revert\n        /* \"#utility.yul\":8813:8865   */\n    tag_256:\n        /* \"#utility.yul\":8898:8964   */\n      tag_257\n        /* \"#utility.yul\":8956:8963   */\n      dup7\n        /* \"#utility.yul\":8945:8953   */\n      dup3\n        /* \"#utility.yul\":8941:8943   */\n      dup6\n        /* \"#utility.yul\":8937:8954   */\n      add\n        /* \"#utility.yul\":8898:8964   */\n      tag_183\n      jump\t// in\n    tag_257:\n        /* \"#utility.yul\":8892:8895   */\n      0x80\n        /* \"#utility.yul\":8881:8896   */\n      dup4\n      add\n        /* \"#utility.yul\":8874:8965   */\n      mstore\n      pop\n        /* \"#utility.yul\":9024:9027   */\n      0xa0\n        /* \"#utility.yul\":9016:9028   */\n      dup3\n      dup2\n      add\n        /* \"#utility.yul\":9010:9029   */\n      mload\n        /* \"#utility.yul\":9045:9060   */\n      swap1\n      dup3\n      add\n        /* \"#utility.yul\":9038:9070   */\n      mstore\n        /* \"#utility.yul\":9129:9132   */\n      0xc0\n        /* \"#utility.yul\":9121:9133   */\n      dup1\n      dup4\n      add\n        /* \"#utility.yul\":9115:9134   */\n      mload\n        /* \"#utility.yul\":9150:9165   */\n      swap1\n      dup3\n      add\n        /* \"#utility.yul\":9143:9175   */\n      mstore\n        /* \"#utility.yul\":9234:9237   */\n      0xe0\n        /* \"#utility.yul\":9226:9238   */\n      dup1\n      dup4\n      add\n        /* \"#utility.yul\":9220:9239   */\n      mload\n        /* \"#utility.yul\":9255:9270   */\n      swap1\n      dup3\n      add\n        /* \"#utility.yul\":9248:9280   */\n      mstore\n        /* \"#utility.yul\":9339:9342   */\n      0x0100\n        /* \"#utility.yul\":9331:9343   */\n      dup1\n      dup4\n      add\n        /* \"#utility.yul\":9325:9344   */\n      mload\n        /* \"#utility.yul\":9360:9375   */\n      swap1\n      dup3\n      add\n        /* \"#utility.yul\":9353:9385   */\n      mstore\n        /* \"#utility.yul\":9418:9458   */\n      tag_258\n        /* \"#utility.yul\":9453:9456   */\n      0x0120\n        /* \"#utility.yul\":9445:9457   */\n      dup4\n      add\n        /* \"#utility.yul\":9418:9458   */\n      tag_184\n      jump\t// in\n    tag_258:\n        /* \"#utility.yul\":9412:9415   */\n      0x0120\n        /* \"#utility.yul\":9401:9416   */\n      dup3\n      add\n        /* \"#utility.yul\":9394:9459   */\n      mstore\n        /* \"#utility.yul\":9405:9410   */\n      swap5\n        /* \"#utility.yul\":7781:9489   */\n      swap4\n      pop\n      pop\n      pop\n      pop\n      jump\t// out\n        /* \"#utility.yul\":10429:10564   */\n    tag_105:\n        /* \"#utility.yul\":10468:10471   */\n      0x00\n        /* \"#utility.yul\":10489:10506   */\n      0x01\n      dup3\n      add\n        /* \"#utility.yul\":10486:10529   */\n      tag_264\n      jumpi\n        /* \"#utility.yul\":10509:10527   */\n      tag_264\n      tag_179\n      jump\t// in\n    tag_264:\n      pop\n        /* \"#utility.yul\":10556:10557   */\n      0x01\n        /* \"#utility.yul\":10545:10558   */\n      add\n      swap1\n        /* \"#utility.yul\":10429:10564   */\n      jump\t// out\n        /* \"#utility.yul\":10569:10949   */\n    tag_127:\n        /* \"#utility.yul\":10648:10649   */\n      0x01\n        /* \"#utility.yul\":10644:10656   */\n      dup2\n      dup2\n      shr\n      swap1\n        /* \"#utility.yul\":10691:10703   */\n      dup3\n      and\n      dup1\n        /* \"#utility.yul\":10712:10773   */\n      tag_266\n      jumpi\n        /* \"#utility.yul\":10766:10770   */\n      0x7f\n        /* \"#utility.yul\":10758:10764   */\n      dup3\n        /* \"#utility.yul\":10754:10771   */\n      and\n        /* \"#utility.yul\":10744:10771   */\n      swap2\n      pop\n        /* \"#utility.yul\":10712:10773   */\n    tag_266:\n        /* \"#utility.yul\":10819:10821   */\n      0x20\n        /* \"#utility.yul\":10811:10817   */\n      dup3\n        /* \"#utility.yul\":10808:10822   */\n      lt\n        /* \"#utility.yul\":10788:10806   */\n      dup2\n        /* \"#utility.yul\":10785:10823   */\n      sub\n        /* \"#utility.yul\":10782:10943   */\n      tag_267\n      jumpi\n        /* \"#utility.yul\":10865:10875   */\n      0x4e487b71\n        /* \"#utility.yul\":10860:10863   */\n      0xe0\n        /* \"#utility.yul\":10856:10876   */\n      shl\n        /* \"#utility.yul\":10853:10854   */\n      0x00\n        /* \"#utility.yul\":10846:10877   */\n      mstore\n        /* \"#utility.yul\":10900:10904   */\n      0x22\n        /* \"#utility.yul\":10897:10898   */\n      0x04\n        /* \"#utility.yul\":10890:10905   */\n      mstore\n        /* \"#utility.yul\":10928:10932   */\n      0x24\n        /* \"#utility.yul\":10925:10926   */\n      0x00\n        /* \"#utility.yul\":10918:10933   */\n      revert\n        /* \"#utility.yul\":10782:10943   */\n    tag_267:\n      pop\n        /* \"#utility.yul\":10569:10949   */\n      swap2\n      swap1\n      pop\n      jump\t// out\n        /* \"#utility.yul\":11080:11598   */\n    tag_186:\n        /* \"#utility.yul\":11182:11184   */\n      0x1f\n        /* \"#utility.yul\":11177:11180   */\n      dup3\n        /* \"#utility.yul\":11174:11185   */\n      gt\n        /* \"#utility.yul\":11171:11592   */\n      iszero\n      tag_270\n      jumpi\n        /* \"#utility.yul\":11218:11223   */\n      dup1\n        /* \"#utility.yul\":11215:11216   */\n      0x00\n        /* \"#utility.yul\":11208:11224   */\n      mstore\n        /* \"#utility.yul\":11262:11266   */\n      0x20\n        /* \"#utility.yul\":11259:11260   */\n      0x00\n        /* \"#utility.yul\":11249:11267   */\n      keccak256\n        /* \"#utility.yul\":11332:11334   */\n      0x1f\n        /* \"#utility.yul\":11320:11330   */\n      dup5\n        /* \"#utility.yul\":11316:11335   */\n      add\n        /* \"#utility.yul\":11313:11314   */\n      0x05\n        /* \"#utility.yul\":11309:11336   */\n      shr\n        /* \"#utility.yul\":11303:11307   */\n      dup2\n        /* \"#utility.yul\":11299:11337   */\n      add\n        /* \"#utility.yul\":11368:11372   */\n      0x20\n        /* \"#utility.yul\":11356:11366   */\n      dup6\n        /* \"#utility.yul\":11353:11373   */\n      lt\n        /* \"#utility.yul\":11350:11397   */\n      iszero\n      tag_271\n      jumpi\n      pop\n        /* \"#utility.yul\":11391:11395   */\n      dup1\n        /* \"#utility.yul\":11350:11397   */\n    tag_271:\n        /* \"#utility.yul\":11446:11448   */\n      0x1f\n        /* \"#utility.yul\":11441:11444   */\n      dup5\n        /* \"#utility.yul\":11437:11449   */\n      add\n        /* \"#utility.yul\":11434:11435   */\n      0x05\n        /* \"#utility.yul\":11430:11450   */\n      shr\n        /* \"#utility.yul\":11424:11428   */\n      dup3\n        /* \"#utility.yul\":11420:11451   */\n      add\n        /* \"#utility.yul\":11410:11451   */\n      swap2\n      pop\n        /* \"#utility.yul\":11501:11582   */\n    tag_272:\n        /* \"#utility.yul\":11519:11521   */\n      dup2\n        /* \"#utility.yul\":11512:11517   */\n      dup2\n        /* \"#utility.yul\":11509:11522   */\n      lt\n        /* \"#utility.yul\":11501:11582   */\n      iszero\n      tag_274\n      jumpi\n        /* \"#utility.yul\":11578:11579   */\n      0x00\n        /* \"#utility.yul\":11564:11580   */\n      dup2\n      sstore\n        /* \"#utility.yul\":11545:11546   */\n      0x01\n        /* \"#utility.yul\":11534:11547   */\n      add\n        /* \"#utility.yul\":11501:11582   */\n      jump(tag_272)\n    tag_274:\n        /* \"#utility.yul\":11505:11508   */\n      pop\n      pop\n        /* \"#utility.yul\":11171:11592   */\n    tag_270:\n        /* \"#utility.yul\":11080:11598   */\n      pop\n      pop\n      pop\n      jump\t// out\n        /* \"#utility.yul\":11774:12972   */\n    tag_107:\n      sub(shl(0x40, 0x01), 0x01)\n        /* \"#utility.yul\":11893:11896   */\n      dup4\n        /* \"#utility.yul\":11890:11917   */\n      gt\n        /* \"#utility.yul\":11887:11940   */\n      iszero\n      tag_278\n      jumpi\n        /* \"#utility.yul\":11920:11938   */\n      tag_278\n      tag_135\n      jump\t// in\n    tag_278:\n        /* \"#utility.yul\":11949:12043   */\n      tag_279\n        /* \"#utility.yul\":12039:12042   */\n      dup4\n        /* \"#utility.yul\":11999:12037   */\n      tag_280\n        /* \"#utility.yul\":12031:12035   */\n      dup4\n        /* \"#utility.yul\":12025:12036   */\n      sload\n        /* \"#utility.yul\":11999:12037   */\n      tag_127\n      jump\t// in\n    tag_280:\n        /* \"#utility.yul\":11993:11997   */\n      dup4\n        /* \"#utility.yul\":11949:12043   */\n      tag_186\n      jump\t// in\n    tag_279:\n        /* \"#utility.yul\":12069:12070   */\n      0x00\n        /* \"#utility.yul\":12094:12096   */\n      0x1f\n        /* \"#utility.yul\":12089:12092   */\n      dup5\n        /* \"#utility.yul\":12086:12097   */\n      gt\n        /* \"#utility.yul\":12111:12112   */\n      0x01\n        /* \"#utility.yul\":12106:12714   */\n      dup2\n      eq\n      tag_282\n      jumpi\n        /* \"#utility.yul\":12758:12759   */\n      0x00\n        /* \"#utility.yul\":12775:12778   */\n      dup6\n        /* \"#utility.yul\":12772:12865   */\n      iszero\n      tag_283\n      jumpi\n      pop\n        /* \"#utility.yul\":12831:12850   */\n      dup4\n      dup3\n      add\n        /* \"#utility.yul\":12818:12851   */\n      calldataload\n        /* \"#utility.yul\":12772:12865   */\n    tag_283:\n      not(0x00)\n        /* \"#utility.yul\":11731:11732   */\n      0x03\n        /* \"#utility.yul\":11727:11738   */\n      dup8\n      swap1\n      shl\n        /* \"#utility.yul\":11723:11747   */\n      shr\n        /* \"#utility.yul\":11719:11748   */\n      not\n        /* \"#utility.yul\":11709:11749   */\n      and\n        /* \"#utility.yul\":11755:11756   */\n      0x01\n        /* \"#utility.yul\":11751:11762   */\n      dup7\n      swap1\n      shl\n        /* \"#utility.yul\":11706:11763   */\n      or\n        /* \"#utility.yul\":12878:12956   */\n      dup4\n      sstore\n        /* \"#utility.yul\":12079:12966   */\n      jump(tag_274)\n        /* \"#utility.yul\":12106:12714   */\n    tag_282:\n        /* \"#utility.yul\":11027:11028   */\n      0x00\n        /* \"#utility.yul\":11020:11034   */\n      dup4\n      dup2\n      mstore\n        /* \"#utility.yul\":11064:11068   */\n      0x20\n        /* \"#utility.yul\":11051:11069   */\n      dup2\n      keccak256\n      not(0x1f)\n        /* \"#utility.yul\":12142:12159   */\n      dup8\n      and\n      swap2\n        /* \"#utility.yul\":12257:12486   */\n    tag_286:\n        /* \"#utility.yul\":12271:12278   */\n      dup3\n        /* \"#utility.yul\":12268:12269   */\n      dup2\n        /* \"#utility.yul\":12265:12279   */\n      lt\n        /* \"#utility.yul\":12257:12486   */\n      iszero\n      tag_288\n      jumpi\n        /* \"#utility.yul\":12360:12379   */\n      dup7\n      dup6\n      add\n        /* \"#utility.yul\":12347:12380   */\n      calldataload\n        /* \"#utility.yul\":12332:12381   */\n      dup3\n      sstore\n        /* \"#utility.yul\":12467:12471   */\n      0x20\n        /* \"#utility.yul\":12452:12472   */\n      swap5\n      dup6\n      add\n      swap5\n        /* \"#utility.yul\":12420:12421   */\n      0x01\n        /* \"#utility.yul\":12408:12422   */\n      swap1\n      swap3\n      add\n      swap2\n        /* \"#utility.yul\":12287:12299   */\n      add\n        /* \"#utility.yul\":12257:12486   */\n      jump(tag_286)\n    tag_288:\n        /* \"#utility.yul\":12261:12264   */\n      pop\n        /* \"#utility.yul\":12514:12517   */\n      dup7\n        /* \"#utility.yul\":12505:12512   */\n      dup3\n        /* \"#utility.yul\":12502:12518   */\n      lt\n        /* \"#utility.yul\":12499:12658   */\n      iszero\n      tag_289\n      jumpi\n        /* \"#utility.yul\":12638:12639   */\n      0x00\n        /* \"#utility.yul\":12634:12640   */\n      not\n        /* \"#utility.yul\":12628:12631   */\n      0xf8\n        /* \"#utility.yul\":12622:12625   */\n      dup9\n        /* \"#utility.yul\":12619:12620   */\n      0x03\n        /* \"#utility.yul\":12615:12626   */\n      shl\n        /* \"#utility.yul\":12611:12632   */\n      and\n        /* \"#utility.yul\":12607:12641   */\n      shr\n        /* \"#utility.yul\":12603:12642   */\n      not\n        /* \"#utility.yul\":12590:12599   */\n      dup5\n        /* \"#utility.yul\":12585:12588   */\n      dup8\n        /* \"#utility.yul\":12581:12600   */\n      add\n        /* \"#utility.yul\":12568:12601   */\n      calldataload\n        /* \"#utility.yul\":12564:12643   */\n      and\n        /* \"#utility.yul\":12556:12562   */\n      dup2\n        /* \"#utility.yul\":12549:12644   */\n      sstore\n        /* \"#utility.yul\":12499:12658   */\n    tag_289:\n      pop\n      pop\n        /* \"#utility.yul\":12701:12702   */\n      0x01\n        /* \"#utility.yul\":12695:12698   */\n      dup6\n        /* \"#utility.yul\":12692:12693   */\n      0x01\n        /* \"#utility.yul\":12688:12699   */\n      shl\n        /* \"#utility.yul\":12684:12703   */\n      add\n        /* \"#utility.yul\":12678:12682   */\n      dup4\n        /* \"#utility.yul\":12671:12704   */\n      sstore\n        /* \"#utility.yul\":12079:12966   */\n      pop\n      pop\n        /* \"#utility.yul\":11774:12972   */\n      pop\n      pop\n      pop\n      jump\t// out\n        /* \"#utility.yul\":12977:13102   */\n    tag_114:\n        /* \"#utility.yul\":13042:13051   */\n      dup1\n      dup3\n      add\n        /* \"#utility.yul\":13063:13073   */\n      dup1\n      dup3\n      gt\n        /* \"#utility.yul\":13060:13096   */\n      iszero\n      tag_219\n      jumpi\n        /* \"#utility.yul\":13076:13094   */\n      tag_219\n      tag_179\n      jump\t// in\n\n    auxdata: 0xa26469706673582212208fd2189ab0786d3374d0d77c5e2cdc8c31e8c253d4a10f34957c3c680770503764736f6c634300081e0033\n}\n",
				"bytecode": {
					"linkReferences": {},
					"object": "608060405260016002553480156013575f5ffd5b506040516113e33803806113e38339810160408190526030916053565b5f80546001600160a01b0319166001600160a01b0392909216919091179055607e565b5f602082840312156062575f5ffd5b81516001600160a01b03811681146077575f5ffd5b9392505050565b6113588061008b5f395ff3fe608060405234801561000f575f5ffd5b506004361061009b575f3560e01c8063bad1365e11610063578063bad1365e1461012a578063d15af0161461013d578063e3c9c7b314610162578063f44a85831461016b578063f6b829a01461018b575f5ffd5b8063176502631461009f57806342f54b89146100c5578063439e61fa146100ef57806397d2b92a146101025780639d77eb8314610117575b5f5ffd5b6100b26100ad366004610cb8565b61019e565b6040519081526020015b60405180910390f35b5f546100d7906001600160a01b031681565b6040516001600160a01b0390911681526020016100bc565b6001546100d7906001600160a01b031681565b610115610110366004610cd8565b6101c9565b005b6100b2610125366004610cef565b61047e565b610115610138366004610d7c565b6106c5565b61015061014b366004610cd8565b61072f565b6040516100bc96959493929190610dd7565b6100b260025481565b61017e610179366004610cd8565b6107fa565b6040516100bc9190610e1b565b610115610199366004610cef565b6109f1565b6004602052815f5260405f2081815481106101b7575f80fd5b905f5260205f20015f91509150505481565b5f8181526003602052604081205490036102225760405162461bcd60e51b815260206004820152601560248201527414985d1a5b99c8191bd95cc81b9bdd08195e1a5cdd605a1b60448201526064015b60405180910390fd5b5f818152600360209081526040808320600281015460049182015481865291909352908320919260ff90911691905b81548110156102f2578482828154811061026d5761026d610ec8565b905f5260205f200154036102ea578154829061028b90600190610ef0565b8154811061029b5761029b610ec8565b905f5260205f2001548282815481106102b6576102b6610ec8565b905f5260205f200181905550818054806102d2576102d2610f09565b600190038181905f5260205f20015f905590556102f2565b600101610251565b50600154604051630f26f43960e11b8152600481018590525f916001600160a01b031690631e4de872906024015f60405180830381865afa158015610339573d5f5f3e3d5ffd5b505050506040513d5f823e601f3d908101601f1916820160405261036091908101906110ab565b90505f838260e001516103739190610ef0565b90505f60018361010001516103889190610ef0565b600154604051633143e00f60e01b81526004810189905260248101859052604481018390529192506001600160a01b031690633143e00f906064015f604051808303815f87803b1580156103da575f5ffd5b505af11580156103ec573d5f5f3e3d5ffd5b5050505f88815260036020819052604082208281556001810180546001600160a01b031916905560028101839055925061042890830182610c66565b5060048101805460ff191690555f60059091015560408051888152602081018890527f90ae297d8d6959eb0abe3dab17e00dc8d797d5bc917cce29a82760b2d65ab3a9910160405180910390a150505050505050565b5f5f8260ff16118015610495575060058260ff1611155b6104e15760405162461bcd60e51b815260206004820152601d60248201527f5374617273206d757374206265206265747765656e203120616e6420350000006044820152606401610219565b600280545f91826104f1836111ba565b909155505f8181526003602081905260409091208281556001810180546001600160a01b03191633179055600281018990559192508101610533868883611256565b506004818101805460ff191660ff87161790554260058301555f8881526020828152604080832080546001818101835591855292842090920186905590549051630f26f43960e11b81529283018a905290916001600160a01b0390911690631e4de872906024015f60405180830381865afa1580156105b4573d5f5f3e3d5ffd5b505050506040513d5f823e601f3d908101601f191682016040526105db91908101906110ab565b90505f8560ff168260e001516105f1919061130f565b90505f8261010001516001610606919061130f565b600154604051633143e00f60e01b8152600481018d905260248101859052604481018390529192506001600160a01b031690633143e00f906064015f604051808303815f87803b158015610658575f5ffd5b505af115801561066a573d5f5f3e3d5ffd5b505060408051888152602081018e9052338183015260ff8b16606082015290517f47a5e78e07c9f8fb30d316fcb3cbfef5e535c7a26574f22e7bb4de0bab897bfe9350908190036080019150a1509298975050505050505050565b6001600160a01b03811661070d5760405162461bcd60e51b815260206004820152600f60248201526e496e76616c6964206164647265737360881b6044820152606401610219565b600180546001600160a01b0319166001600160a01b0392909216919091179055565b600360208190525f9182526040909120805460018201546002830154938301805492946001600160a01b03909216939192610769906111d2565b80601f0160208091040260200160405190810160405280929190818152602001828054610795906111d2565b80156107e05780601f106107b7576101008083540402835291602001916107e0565b820191905f5260205f20905b8154815290600101906020018083116107c357829003601f168201915b505050506004830154600590930154919260ff1691905086565b5f8181526004602052604081208054606092816001600160401b0381111561082457610824610f1d565b60405190808252806020026020018201604052801561089557816020015b6108826040518060c001604052805f81526020015f6001600160a01b031681526020015f8152602001606081526020015f60ff1681526020015f81525090565b8152602001906001900390816108425790505b5090505f5b828110156109e85760035f8583815481106108b7576108b7610ec8565b905f5260205f20015481526020019081526020015f206040518060c00160405290815f8201548152602001600182015f9054906101000a90046001600160a01b03166001600160a01b03166001600160a01b0316815260200160028201548152602001600382018054610929906111d2565b80601f0160208091040260200160405190810160405280929190818152602001828054610955906111d2565b80156109a05780601f10610977576101008083540402835291602001916109a0565b820191905f5260205f20905b81548152906001019060200180831161098357829003601f168201915b5050509183525050600482015460ff16602082015260059091015460409091015282518390839081106109d5576109d5610ec8565b602090810291909101015260010161089a565b50949350505050565b5f848152600360205260408120549003610a455760405162461bcd60e51b815260206004820152601560248201527414985d1a5b99c8191bd95cc81b9bdd08195e1a5cdd605a1b6044820152606401610219565b5f8160ff16118015610a5b575060058160ff1611155b610aa75760405162461bcd60e51b815260206004820152601d60248201527f5374617273206d757374206265206265747765656e203120616e6420350000006044820152606401610219565b5f848152600360208190526040909120600481015460ff169101610acc848683611256565b505f858152600360205260408082206004808201805460ff191660ff88161790556001546002909201549251630f26f43960e11b8152908101929092526001600160a01b031690631e4de872906024015f60405180830381865afa158015610b36573d5f5f3e3d5ffd5b505050506040513d5f823e601f3d908101601f19168201604052610b5d91908101906110ab565b90505f828460ff168360e00151610b74919061130f565b610b7e9190610ef0565b6101008301516001545f8a81526003602052604090819020600201549051633143e00f60e01b81526004810191909152602481018490526044810183905292935090916001600160a01b0390911690633143e00f906064015f604051808303815f87803b158015610bed575f5ffd5b505af1158015610bff573d5f5f3e3d5ffd5b5050505f898152600360209081526040918290206002015482518c815291820152338183015260ff8816606082015290517f24acfd6197e24ed4392757b2b8669ec63a8448d82a54697d7e032a31b71f392092509081900360800190a15050505050505050565b508054610c72906111d2565b5f825580601f10610c81575050565b601f0160209004905f5260205f2090810190610c9d9190610ca0565b50565b5b80821115610cb4575f8155600101610ca1565b5090565b5f5f60408385031215610cc9575f5ffd5b50508035926020909101359150565b5f60208284031215610ce8575f5ffd5b5035919050565b5f5f5f5f60608587031215610d02575f5ffd5b8435935060208501356001600160401b03811115610d1e575f5ffd5b8501601f81018713610d2e575f5ffd5b80356001600160401b03811115610d43575f5ffd5b876020828401011115610d54575f5ffd5b60209190910193509150604085013560ff81168114610d71575f5ffd5b939692955090935050565b5f60208284031215610d8c575f5ffd5b81356001600160a01b0381168114610da2575f5ffd5b9392505050565b5f81518084528060208401602086015e5f602082860101526020601f19601f83011685010191505092915050565b86815260018060a01b038616602082015284604082015260c060608201525f610e0360c0830186610da9565b60ff9490941660808301525060a00152949350505050565b5f602082016020835280845180835260408501915060408160051b8601019250602086015f5b82811015610ebc57603f1987860301845281518051865260018060a01b03602082015116602087015260408101516040870152606081015160c06060880152610e8d60c0880182610da9565b60808381015160ff169089015260a0928301519290970191909152506020938401939190910190600101610e41565b50929695505050505050565b634e487b7160e01b5f52603260045260245ffd5b634e487b7160e01b5f52601160045260245ffd5b81810381811115610f0357610f03610edc565b92915050565b634e487b7160e01b5f52603160045260245ffd5b634e487b7160e01b5f52604160045260245ffd5b60405161014081016001600160401b0381118282101715610f5457610f54610f1d565b60405290565b604051601f8201601f191681016001600160401b0381118282101715610f8257610f82610f1d565b604052919050565b5f82601f830112610f99575f5ffd5b81516001600160401b03811115610fb257610fb2610f1d565b610fc5601f8201601f1916602001610f5a565b818152846020838601011115610fd9575f5ffd5b8160208501602083015e5f918101602001919091529392505050565b5f82601f830112611004575f5ffd5b81516001600160401b0381111561101d5761101d610f1d565b8060051b61102d60208201610f5a565b91825260208185018101929081019086841115611048575f5ffd5b6020860192505b8383101561108d5782516001600160401b0381111561106c575f5ffd5b61107b886020838a0101610f8a565b8352506020928301929091019061104f565b9695505050505050565b805180151581146110a6575f5ffd5b919050565b5f602082840312156110bb575f5ffd5b81516001600160401b038111156110d0575f5ffd5b820161014081850312156110e2575f5ffd5b6110ea610f31565b8151815260208201516001600160401b03811115611106575f5ffd5b61111286828501610f8a565b60208301525060408201516001600160401b03811115611130575f5ffd5b61113c86828501610f8a565b6040830152506060828101519082015260808201516001600160401b03811115611164575f5ffd5b61117086828501610ff5565b60808301525060a0828101519082015260c0808301519082015260e0808301519082015261010080830151908201526111ac6101208301611097565b610120820152949350505050565b5f600182016111cb576111cb610edc565b5060010190565b600181811c908216806111e657607f821691505b60208210810361120457634e487b7160e01b5f52602260045260245ffd5b50919050565b601f82111561125157805f5260205f20601f840160051c8101602085101561122f5750805b601f840160051c820191505b8181101561124e575f815560010161123b565b50505b505050565b6001600160401b0383111561126d5761126d610f1d565b6112818361127b83546111d2565b8361120a565b5f601f8411600181146112b2575f851561129b5750838201355b5f19600387901b1c1916600186901b17835561124e565b5f83815260208120601f198716915b828110156112e157868501358255602094850194600190920191016112c1565b50868210156112fd575f1960f88860031b161c19848701351681555b505060018560011b0183555050505050565b80820180821115610f0357610f03610edc56fea26469706673582212208fd2189ab0786d3374d0d77c5e2cdc8c31e8c253d4a10f34957c3c680770503764736f6c634300081e0033",
					"opcodes": "PUSH1 0x80 PUSH1 0x40 MSTORE PUSH1 0x1 PUSH1 0x2 SSTORE CALLVALUE DUP1 ISZERO PUSH1 0x13 JUMPI PUSH0 PUSH0 REVERT JUMPDEST POP PUSH1 0x40 MLOAD PUSH2 0x13E3 CODESIZE SUB DUP1 PUSH2 0x13E3 DUP4 CODECOPY DUP2 ADD PUSH1 0x40 DUP2 SWAP1 MSTORE PUSH1 0x30 SWAP2 PUSH1 0x53 JUMP JUMPDEST PUSH0 DUP1 SLOAD PUSH1 0x1 PUSH1 0x1 PUSH1 0xA0 SHL SUB NOT AND PUSH1 0x1 PUSH1 0x1 PUSH1 0xA0 SHL SUB SWAP3 SWAP1 SWAP3 AND SWAP2 SWAP1 SWAP2 OR SWAP1 SSTORE PUSH1 0x7E JUMP JUMPDEST PUSH0 PUSH1 0x20 DUP3 DUP5 SUB SLT ISZERO PUSH1 0x62 JUMPI PUSH0 PUSH0 REVERT JUMPDEST DUP2 MLOAD PUSH1 0x1 PUSH1 0x1 PUSH1 0xA0 SHL SUB DUP2 AND DUP2 EQ PUSH1 0x77 JUMPI PUSH0 PUSH0 REVERT JUMPDEST SWAP4 SWAP3 POP POP POP JUMP JUMPDEST PUSH2 0x1358 DUP1 PUSH2 0x8B PUSH0 CODECOPY PUSH0 RETURN INVALID PUSH1 0x80 PUSH1 0x40 MSTORE CALLVALUE DUP1 ISZERO PUSH2 0xF JUMPI PUSH0 PUSH0 REVERT JUMPDEST POP PUSH1 0x4 CALLDATASIZE LT PUSH2 0x9B JUMPI PUSH0 CALLDATALOAD PUSH1 0xE0 SHR DUP1 PUSH4 0xBAD1365E GT PUSH2 0x63 JUMPI DUP1 PUSH4 0xBAD1365E EQ PUSH2 0x12A JUMPI DUP1 PUSH4 0xD15AF016 EQ PUSH2 0x13D JUMPI DUP1 PUSH4 0xE3C9C7B3 EQ PUSH2 0x162 JUMPI DUP1 PUSH4 0xF44A8583 EQ PUSH2 0x16B JUMPI DUP1 PUSH4 0xF6B829A0 EQ PUSH2 0x18B JUMPI PUSH0 PUSH0 REVERT JUMPDEST DUP1 PUSH4 0x17650263 EQ PUSH2 0x9F JUMPI DUP1 PUSH4 0x42F54B89 EQ PUSH2 0xC5 JUMPI DUP1 PUSH4 0x439E61FA EQ PUSH2 0xEF JUMPI DUP1 PUSH4 0x97D2B92A EQ PUSH2 0x102 JUMPI DUP1 PUSH4 0x9D77EB83 EQ PUSH2 0x117 JUMPI JUMPDEST PUSH0 PUSH0 REVERT JUMPDEST PUSH2 0xB2 PUSH2 0xAD CALLDATASIZE PUSH1 0x4 PUSH2 0xCB8 JUMP JUMPDEST PUSH2 0x19E JUMP JUMPDEST PUSH1 0x40 MLOAD SWAP1 DUP2 MSTORE PUSH1 0x20 ADD JUMPDEST PUSH1 0x40 MLOAD DUP1 SWAP2 SUB SWAP1 RETURN JUMPDEST PUSH0 SLOAD PUSH2 0xD7 SWAP1 PUSH1 0x1 PUSH1 0x1 PUSH1 0xA0 SHL SUB AND DUP2 JUMP JUMPDEST PUSH1 0x40 MLOAD PUSH1 0x1 PUSH1 0x1 PUSH1 0xA0 SHL SUB SWAP1 SWAP2 AND DUP2 MSTORE PUSH1 0x20 ADD PUSH2 0xBC JUMP JUMPDEST PUSH1 0x1 SLOAD PUSH2 0xD7 SWAP1 PUSH1 0x1 PUSH1 0x1 PUSH1 0xA0 SHL SUB AND DUP2 JUMP JUMPDEST PUSH2 0x115 PUSH2 0x110 CALLDATASIZE PUSH1 0x4 PUSH2 0xCD8 JUMP JUMPDEST PUSH2 0x1C9 JUMP JUMPDEST STOP JUMPDEST PUSH2 0xB2 PUSH2 0x125 CALLDATASIZE PUSH1 0x4 PUSH2 0xCEF JUMP JUMPDEST PUSH2 0x47E JUMP JUMPDEST PUSH2 0x115 PUSH2 0x138 CALLDATASIZE PUSH1 0x4 PUSH2 0xD7C JUMP JUMPDEST PUSH2 0x6C5 JUMP JUMPDEST PUSH2 0x150 PUSH2 0x14B CALLDATASIZE PUSH1 0x4 PUSH2 0xCD8 JUMP JUMPDEST PUSH2 0x72F JUMP JUMPDEST PUSH1 0x40 MLOAD PUSH2 0xBC SWAP7 SWAP6 SWAP5 SWAP4 SWAP3 SWAP2 SWAP1 PUSH2 0xDD7 JUMP JUMPDEST PUSH2 0xB2 PUSH1 0x2 SLOAD DUP2 JUMP JUMPDEST PUSH2 0x17E PUSH2 0x179 CALLDATASIZE PUSH1 0x4 PUSH2 0xCD8 JUMP JUMPDEST PUSH2 0x7FA JUMP JUMPDEST PUSH1 0x40 MLOAD PUSH2 0xBC SWAP2 SWAP1 PUSH2 0xE1B JUMP JUMPDEST PUSH2 0x115 PUSH2 0x199 CALLDATASIZE PUSH1 0x4 PUSH2 0xCEF JUMP JUMPDEST PUSH2 0x9F1 JUMP JUMPDEST PUSH1 0x4 PUSH1 0x20 MSTORE DUP2 PUSH0 MSTORE PUSH1 0x40 PUSH0 KECCAK256 DUP2 DUP2 SLOAD DUP2 LT PUSH2 0x1B7 JUMPI PUSH0 DUP1 REVERT JUMPDEST SWAP1 PUSH0 MSTORE PUSH1 0x20 PUSH0 KECCAK256 ADD PUSH0 SWAP2 POP SWAP2 POP POP SLOAD DUP2 JUMP JUMPDEST PUSH0 DUP2 DUP2 MSTORE PUSH1 0x3 PUSH1 0x20 MSTORE PUSH1 0x40 DUP2 KECCAK256 SLOAD SWAP1 SUB PUSH2 0x222 JUMPI PUSH1 0x40 MLOAD PUSH3 0x461BCD PUSH1 0xE5 SHL DUP2 MSTORE PUSH1 0x20 PUSH1 0x4 DUP3 ADD MSTORE PUSH1 0x15 PUSH1 0x24 DUP3 ADD MSTORE PUSH21 0x14985D1A5B99C8191BD95CC81B9BDD08195E1A5CDD PUSH1 0x5A SHL PUSH1 0x44 DUP3 ADD MSTORE PUSH1 0x64 ADD JUMPDEST PUSH1 0x40 MLOAD DUP1 SWAP2 SUB SWAP1 REVERT JUMPDEST PUSH0 DUP2 DUP2 MSTORE PUSH1 0x3 PUSH1 0x20 SWAP1 DUP2 MSTORE PUSH1 0x40 DUP1 DUP4 KECCAK256 PUSH1 0x2 DUP2 ADD SLOAD PUSH1 0x4 SWAP2 DUP3 ADD SLOAD DUP2 DUP7 MSTORE SWAP2 SWAP1 SWAP4 MSTORE SWAP1 DUP4 KECCAK256 SWAP2 SWAP3 PUSH1 0xFF SWAP1 SWAP2 AND SWAP2 SWAP1 JUMPDEST DUP2 SLOAD DUP2 LT ISZERO PUSH2 0x2F2 JUMPI DUP5 DUP3 DUP3 DUP2 SLOAD DUP2 LT PUSH2 0x26D JUMPI PUSH2 0x26D PUSH2 0xEC8 JUMP JUMPDEST SWAP1 PUSH0 MSTORE PUSH1 0x20 PUSH0 KECCAK256 ADD SLOAD SUB PUSH2 0x2EA JUMPI DUP2 SLOAD DUP3 SWAP1 PUSH2 0x28B SWAP1 PUSH1 0x1 SWAP1 PUSH2 0xEF0 JUMP JUMPDEST DUP2 SLOAD DUP2 LT PUSH2 0x29B JUMPI PUSH2 0x29B PUSH2 0xEC8 JUMP JUMPDEST SWAP1 PUSH0 MSTORE PUSH1 0x20 PUSH0 KECCAK256 ADD SLOAD DUP3 DUP3 DUP2 SLOAD DUP2 LT PUSH2 0x2B6 JUMPI PUSH2 0x2B6 PUSH2 0xEC8 JUMP JUMPDEST SWAP1 PUSH0 MSTORE PUSH1 0x20 PUSH0 KECCAK256 ADD DUP2 SWAP1 SSTORE POP DUP2 DUP1 SLOAD DUP1 PUSH2 0x2D2 JUMPI PUSH2 0x2D2 PUSH2 0xF09 JUMP JUMPDEST PUSH1 0x1 SWAP1 SUB DUP2 DUP2 SWAP1 PUSH0 MSTORE PUSH1 0x20 PUSH0 KECCAK256 ADD PUSH0 SWAP1 SSTORE SWAP1 SSTORE PUSH2 0x2F2 JUMP JUMPDEST PUSH1 0x1 ADD PUSH2 0x251 JUMP JUMPDEST POP PUSH1 0x1 SLOAD PUSH1 0x40 MLOAD PUSH4 0xF26F439 PUSH1 0xE1 SHL DUP2 MSTORE PUSH1 0x4 DUP2 ADD DUP6 SWAP1 MSTORE PUSH0 SWAP2 PUSH1 0x1 PUSH1 0x1 PUSH1 0xA0 SHL SUB AND SWAP1 PUSH4 0x1E4DE872 SWAP1 PUSH1 0x24 ADD PUSH0 PUSH1 0x40 MLOAD DUP1 DUP4 SUB DUP2 DUP7 GAS STATICCALL ISZERO DUP1 ISZERO PUSH2 0x339 JUMPI RETURNDATASIZE PUSH0 PUSH0 RETURNDATACOPY RETURNDATASIZE PUSH0 REVERT JUMPDEST POP POP POP POP PUSH1 0x40 MLOAD RETURNDATASIZE PUSH0 DUP3 RETURNDATACOPY PUSH1 0x1F RETURNDATASIZE SWAP1 DUP2 ADD PUSH1 0x1F NOT AND DUP3 ADD PUSH1 0x40 MSTORE PUSH2 0x360 SWAP2 SWAP1 DUP2 ADD SWAP1 PUSH2 0x10AB JUMP JUMPDEST SWAP1 POP PUSH0 DUP4 DUP3 PUSH1 0xE0 ADD MLOAD PUSH2 0x373 SWAP2 SWAP1 PUSH2 0xEF0 JUMP JUMPDEST SWAP1 POP PUSH0 PUSH1 0x1 DUP4 PUSH2 0x100 ADD MLOAD PUSH2 0x388 SWAP2 SWAP1 PUSH2 0xEF0 JUMP JUMPDEST PUSH1 0x1 SLOAD PUSH1 0x40 MLOAD PUSH4 0x3143E00F PUSH1 0xE0 SHL DUP2 MSTORE PUSH1 0x4 DUP2 ADD DUP10 SWAP1 MSTORE PUSH1 0x24 DUP2 ADD DUP6 SWAP1 MSTORE PUSH1 0x44 DUP2 ADD DUP4 SWAP1 MSTORE SWAP2 SWAP3 POP PUSH1 0x1 PUSH1 0x1 PUSH1 0xA0 SHL SUB AND SWAP1 PUSH4 0x3143E00F SWAP1 PUSH1 0x64 ADD PUSH0 PUSH1 0x40 MLOAD DUP1 DUP4 SUB DUP2 PUSH0 DUP8 DUP1 EXTCODESIZE ISZERO DUP1 ISZERO PUSH2 0x3DA JUMPI PUSH0 PUSH0 REVERT JUMPDEST POP GAS CALL ISZERO DUP1 ISZERO PUSH2 0x3EC JUMPI RETURNDATASIZE PUSH0 PUSH0 RETURNDATACOPY RETURNDATASIZE PUSH0 REVERT JUMPDEST POP POP POP PUSH0 DUP9 DUP2 MSTORE PUSH1 0x3 PUSH1 0x20 DUP2 SWAP1 MSTORE PUSH1 0x40 DUP3 KECCAK256 DUP3 DUP2 SSTORE PUSH1 0x1 DUP2 ADD DUP1 SLOAD PUSH1 0x1 PUSH1 0x1 PUSH1 0xA0 SHL SUB NOT AND SWAP1 SSTORE PUSH1 0x2 DUP2 ADD DUP4 SWAP1 SSTORE SWAP3 POP PUSH2 0x428 SWAP1 DUP4 ADD DUP3 PUSH2 0xC66 JUMP JUMPDEST POP PUSH1 0x4 DUP2 ADD DUP1 SLOAD PUSH1 0xFF NOT AND SWAP1 SSTORE PUSH0 PUSH1 0x5 SWAP1 SWAP2 ADD SSTORE PUSH1 0x40 DUP1 MLOAD DUP9 DUP2 MSTORE PUSH1 0x20 DUP2 ADD DUP9 SWAP1 MSTORE PUSH32 0x90AE297D8D6959EB0ABE3DAB17E00DC8D797D5BC917CCE29A82760B2D65AB3A9 SWAP2 ADD PUSH1 0x40 MLOAD DUP1 SWAP2 SUB SWAP1 LOG1 POP POP POP POP POP POP POP JUMP JUMPDEST PUSH0 PUSH0 DUP3 PUSH1 0xFF AND GT DUP1 ISZERO PUSH2 0x495 JUMPI POP PUSH1 0x5 DUP3 PUSH1 0xFF AND GT ISZERO JUMPDEST PUSH2 0x4E1 JUMPI PUSH1 0x40 MLOAD PUSH3 0x461BCD PUSH1 0xE5 SHL DUP2 MSTORE PUSH1 0x20 PUSH1 0x4 DUP3 ADD MSTORE PUSH1 0x1D PUSH1 0x24 DUP3 ADD MSTORE PUSH32 0x5374617273206D757374206265206265747765656E203120616E642035000000 PUSH1 0x44 DUP3 ADD MSTORE PUSH1 0x64 ADD PUSH2 0x219 JUMP JUMPDEST PUSH1 0x2 DUP1 SLOAD PUSH0 SWAP2 DUP3 PUSH2 0x4F1 DUP4 PUSH2 0x11BA JUMP JUMPDEST SWAP1 SWAP2 SSTORE POP PUSH0 DUP2 DUP2 MSTORE PUSH1 0x3 PUSH1 0x20 DUP2 SWAP1 MSTORE PUSH1 0x40 SWAP1 SWAP2 KECCAK256 DUP3 DUP2 SSTORE PUSH1 0x1 DUP2 ADD DUP1 SLOAD PUSH1 0x1 PUSH1 0x1 PUSH1 0xA0 SHL SUB NOT AND CALLER OR SWAP1 SSTORE PUSH1 0x2 DUP2 ADD DUP10 SWAP1 SSTORE SWAP2 SWAP3 POP DUP2 ADD PUSH2 0x533 DUP7 DUP9 DUP4 PUSH2 0x1256 JUMP JUMPDEST POP PUSH1 0x4 DUP2 DUP2 ADD DUP1 SLOAD PUSH1 0xFF NOT AND PUSH1 0xFF DUP8 AND OR SWAP1 SSTORE TIMESTAMP PUSH1 0x5 DUP4 ADD SSTORE PUSH0 DUP9 DUP2 MSTORE PUSH1 0x20 DUP3 DUP2 MSTORE PUSH1 0x40 DUP1 DUP4 KECCAK256 DUP1 SLOAD PUSH1 0x1 DUP2 DUP2 ADD DUP4 SSTORE SWAP2 DUP6 MSTORE SWAP3 DUP5 KECCAK256 SWAP1 SWAP3 ADD DUP7 SWAP1 SSTORE SWAP1 SLOAD SWAP1 MLOAD PUSH4 0xF26F439 PUSH1 0xE1 SHL DUP2 MSTORE SWAP3 DUP4 ADD DUP11 SWAP1 MSTORE SWAP1 SWAP2 PUSH1 0x1 PUSH1 0x1 PUSH1 0xA0 SHL SUB SWAP1 SWAP2 AND SWAP1 PUSH4 0x1E4DE872 SWAP1 PUSH1 0x24 ADD PUSH0 PUSH1 0x40 MLOAD DUP1 DUP4 SUB DUP2 DUP7 GAS STATICCALL ISZERO DUP1 ISZERO PUSH2 0x5B4 JUMPI RETURNDATASIZE PUSH0 PUSH0 RETURNDATACOPY RETURNDATASIZE PUSH0 REVERT JUMPDEST POP POP POP POP PUSH1 0x40 MLOAD RETURNDATASIZE PUSH0 DUP3 RETURNDATACOPY PUSH1 0x1F RETURNDATASIZE SWAP1 DUP2 ADD PUSH1 0x1F NOT AND DUP3 ADD PUSH1 0x40 MSTORE PUSH2 0x5DB SWAP2 SWAP1 DUP2 ADD SWAP1 PUSH2 0x10AB JUMP JUMPDEST SWAP1 POP PUSH0 DUP6 PUSH1 0xFF AND DUP3 PUSH1 0xE0 ADD MLOAD PUSH2 0x5F1 SWAP2 SWAP1 PUSH2 0x130F JUMP JUMPDEST SWAP1 POP PUSH0 DUP3 PUSH2 0x100 ADD MLOAD PUSH1 0x1 PUSH2 0x606 SWAP2 SWAP1 PUSH2 0x130F JUMP JUMPDEST PUSH1 0x1 SLOAD PUSH1 0x40 MLOAD PUSH4 0x3143E00F PUSH1 0xE0 SHL DUP2 MSTORE PUSH1 0x4 DUP2 ADD DUP14 SWAP1 MSTORE PUSH1 0x24 DUP2 ADD DUP6 SWAP1 MSTORE PUSH1 0x44 DUP2 ADD DUP4 SWAP1 MSTORE SWAP2 SWAP3 POP PUSH1 0x1 PUSH1 0x1 PUSH1 0xA0 SHL SUB AND SWAP1 PUSH4 0x3143E00F SWAP1 PUSH1 0x64 ADD PUSH0 PUSH1 0x40 MLOAD DUP1 DUP4 SUB DUP2 PUSH0 DUP8 DUP1 EXTCODESIZE ISZERO DUP1 ISZERO PUSH2 0x658 JUMPI PUSH0 PUSH0 REVERT JUMPDEST POP GAS CALL ISZERO DUP1 ISZERO PUSH2 0x66A JUMPI RETURNDATASIZE PUSH0 PUSH0 RETURNDATACOPY RETURNDATASIZE PUSH0 REVERT JUMPDEST POP POP PUSH1 0x40 DUP1 MLOAD DUP9 DUP2 MSTORE PUSH1 0x20 DUP2 ADD DUP15 SWAP1 MSTORE CALLER DUP2 DUP4 ADD MSTORE PUSH1 0xFF DUP12 AND PUSH1 0x60 DUP3 ADD MSTORE SWAP1 MLOAD PUSH32 0x47A5E78E07C9F8FB30D316FCB3CBFEF5E535C7A26574F22E7BB4DE0BAB897BFE SWAP4 POP SWAP1 DUP2 SWAP1 SUB PUSH1 0x80 ADD SWAP2 POP LOG1 POP SWAP3 SWAP9 SWAP8 POP POP POP POP POP POP POP POP JUMP JUMPDEST PUSH1 0x1 PUSH1 0x1 PUSH1 0xA0 SHL SUB DUP2 AND PUSH2 0x70D JUMPI PUSH1 0x40 MLOAD PUSH3 0x461BCD PUSH1 0xE5 SHL DUP2 MSTORE PUSH1 0x20 PUSH1 0x4 DUP3 ADD MSTORE PUSH1 0xF PUSH1 0x24 DUP3 ADD MSTORE PUSH15 0x496E76616C69642061646472657373 PUSH1 0x88 SHL PUSH1 0x44 DUP3 ADD MSTORE PUSH1 0x64 ADD PUSH2 0x219 JUMP JUMPDEST PUSH1 0x1 DUP1 SLOAD PUSH1 0x1 PUSH1 0x1 PUSH1 0xA0 SHL SUB NOT AND PUSH1 0x1 PUSH1 0x1 PUSH1 0xA0 SHL SUB SWAP3 SWAP1 SWAP3 AND SWAP2 SWAP1 SWAP2 OR SWAP1 SSTORE JUMP JUMPDEST PUSH1 0x3 PUSH1 0x20 DUP2 SWAP1 MSTORE PUSH0 SWAP2 DUP3 MSTORE PUSH1 0x40 SWAP1 SWAP2 KECCAK256 DUP1 SLOAD PUSH1 0x1 DUP3 ADD SLOAD PUSH1 0x2 DUP4 ADD SLOAD SWAP4 DUP4 ADD DUP1 SLOAD SWAP3 SWAP5 PUSH1 0x1 PUSH1 0x1 PUSH1 0xA0 SHL SUB SWAP1 SWAP3 AND SWAP4 SWAP2 SWAP3 PUSH2 0x769 SWAP1 PUSH2 0x11D2 JUMP JUMPDEST DUP1 PUSH1 0x1F ADD PUSH1 0x20 DUP1 SWAP2 DIV MUL PUSH1 0x20 ADD PUSH1 0x40 MLOAD SWAP1 DUP2 ADD PUSH1 0x40 MSTORE DUP1 SWAP3 SWAP2 SWAP1 DUP2 DUP2 MSTORE PUSH1 0x20 ADD DUP3 DUP1 SLOAD PUSH2 0x795 SWAP1 PUSH2 0x11D2 JUMP JUMPDEST DUP1 ISZERO PUSH2 0x7E0 JUMPI DUP1 PUSH1 0x1F LT PUSH2 0x7B7 JUMPI PUSH2 0x100 DUP1 DUP4 SLOAD DIV MUL DUP4 MSTORE SWAP2 PUSH1 0x20 ADD SWAP2 PUSH2 0x7E0 JUMP JUMPDEST DUP3 ADD SWAP2 SWAP1 PUSH0 MSTORE PUSH1 0x20 PUSH0 KECCAK256 SWAP1 JUMPDEST DUP2 SLOAD DUP2 MSTORE SWAP1 PUSH1 0x1 ADD SWAP1 PUSH1 0x20 ADD DUP1 DUP4 GT PUSH2 0x7C3 JUMPI DUP3 SWAP1 SUB PUSH1 0x1F AND DUP3 ADD SWAP2 JUMPDEST POP POP POP POP PUSH1 0x4 DUP4 ADD SLOAD PUSH1 0x5 SWAP1 SWAP4 ADD SLOAD SWAP2 SWAP3 PUSH1 0xFF AND SWAP2 SWAP1 POP DUP7 JUMP JUMPDEST PUSH0 DUP2 DUP2 MSTORE PUSH1 0x4 PUSH1 0x20 MSTORE PUSH1 0x40 DUP2 KECCAK256 DUP1 SLOAD PUSH1 0x60 SWAP3 DUP2 PUSH1 0x1 PUSH1 0x1 PUSH1 0x40 SHL SUB DUP2 GT ISZERO PUSH2 0x824 JUMPI PUSH2 0x824 PUSH2 0xF1D JUMP JUMPDEST PUSH1 0x40 MLOAD SWAP1 DUP1 DUP3 MSTORE DUP1 PUSH1 0x20 MUL PUSH1 0x20 ADD DUP3 ADD PUSH1 0x40 MSTORE DUP1 ISZERO PUSH2 0x895 JUMPI DUP2 PUSH1 0x20 ADD JUMPDEST PUSH2 0x882 PUSH1 0x40 MLOAD DUP1 PUSH1 0xC0 ADD PUSH1 0x40 MSTORE DUP1 PUSH0 DUP2 MSTORE PUSH1 0x20 ADD PUSH0 PUSH1 0x1 PUSH1 0x1 PUSH1 0xA0 SHL SUB AND DUP2 MSTORE PUSH1 0x20 ADD PUSH0 DUP2 MSTORE PUSH1 0x20 ADD PUSH1 0x60 DUP2 MSTORE PUSH1 0x20 ADD PUSH0 PUSH1 0xFF AND DUP2 MSTORE PUSH1 0x20 ADD PUSH0 DUP2 MSTORE POP SWAP1 JUMP JUMPDEST DUP2 MSTORE PUSH1 0x20 ADD SWAP1 PUSH1 0x1 SWAP1 SUB SWAP1 DUP2 PUSH2 0x842 JUMPI SWAP1 POP JUMPDEST POP SWAP1 POP PUSH0 JUMPDEST DUP3 DUP2 LT ISZERO PUSH2 0x9E8 JUMPI PUSH1 0x3 PUSH0 DUP6 DUP4 DUP2 SLOAD DUP2 LT PUSH2 0x8B7 JUMPI PUSH2 0x8B7 PUSH2 0xEC8 JUMP JUMPDEST SWAP1 PUSH0 MSTORE PUSH1 0x20 PUSH0 KECCAK256 ADD SLOAD DUP2 MSTORE PUSH1 0x20 ADD SWAP1 DUP2 MSTORE PUSH1 0x20 ADD PUSH0 KECCAK256 PUSH1 0x40 MLOAD DUP1 PUSH1 0xC0 ADD PUSH1 0x40 MSTORE SWAP1 DUP2 PUSH0 DUP3 ADD SLOAD DUP2 MSTORE PUSH1 0x20 ADD PUSH1 0x1 DUP3 ADD PUSH0 SWAP1 SLOAD SWAP1 PUSH2 0x100 EXP SWAP1 DIV PUSH1 0x1 PUSH1 0x1 PUSH1 0xA0 SHL SUB AND PUSH1 0x1 PUSH1 0x1 PUSH1 0xA0 SHL SUB AND PUSH1 0x1 PUSH1 0x1 PUSH1 0xA0 SHL SUB AND DUP2 MSTORE PUSH1 0x20 ADD PUSH1 0x2 DUP3 ADD SLOAD DUP2 MSTORE PUSH1 0x20 ADD PUSH1 0x3 DUP3 ADD DUP1 SLOAD PUSH2 0x929 SWAP1 PUSH2 0x11D2 JUMP JUMPDEST DUP1 PUSH1 0x1F ADD PUSH1 0x20 DUP1 SWAP2 DIV MUL PUSH1 0x20 ADD PUSH1 0x40 MLOAD SWAP1 DUP2 ADD PUSH1 0x40 MSTORE DUP1 SWAP3 SWAP2 SWAP1 DUP2 DUP2 MSTORE PUSH1 0x20 ADD DUP3 DUP1 SLOAD PUSH2 0x955 SWAP1 PUSH2 0x11D2 JUMP JUMPDEST DUP1 ISZERO PUSH2 0x9A0 JUMPI DUP1 PUSH1 0x1F LT PUSH2 0x977 JUMPI PUSH2 0x100 DUP1 DUP4 SLOAD DIV MUL DUP4 MSTORE SWAP2 PUSH1 0x20 ADD SWAP2 PUSH2 0x9A0 JUMP JUMPDEST DUP3 ADD SWAP2 SWAP1 PUSH0 MSTORE PUSH1 0x20 PUSH0 KECCAK256 SWAP1 JUMPDEST DUP2 SLOAD DUP2 MSTORE SWAP1 PUSH1 0x1 ADD SWAP1 PUSH1 0x20 ADD DUP1 DUP4 GT PUSH2 0x983 JUMPI DUP3 SWAP1 SUB PUSH1 0x1F AND DUP3 ADD SWAP2 JUMPDEST POP POP POP SWAP2 DUP4 MSTORE POP POP PUSH1 0x4 DUP3 ADD SLOAD PUSH1 0xFF AND PUSH1 0x20 DUP3 ADD MSTORE PUSH1 0x5 SWAP1 SWAP2 ADD SLOAD PUSH1 0x40 SWAP1 SWAP2 ADD MSTORE DUP3 MLOAD DUP4 SWAP1 DUP4 SWAP1 DUP2 LT PUSH2 0x9D5 JUMPI PUSH2 0x9D5 PUSH2 0xEC8 JUMP JUMPDEST PUSH1 0x20 SWAP1 DUP2 MUL SWAP2 SWAP1 SWAP2 ADD ADD MSTORE PUSH1 0x1 ADD PUSH2 0x89A JUMP JUMPDEST POP SWAP5 SWAP4 POP POP POP POP JUMP JUMPDEST PUSH0 DUP5 DUP2 MSTORE PUSH1 0x3 PUSH1 0x20 MSTORE PUSH1 0x40 DUP2 KECCAK256 SLOAD SWAP1 SUB PUSH2 0xA45 JUMPI PUSH1 0x40 MLOAD PUSH3 0x461BCD PUSH1 0xE5 SHL DUP2 MSTORE PUSH1 0x20 PUSH1 0x4 DUP3 ADD MSTORE PUSH1 0x15 PUSH1 0x24 DUP3 ADD MSTORE PUSH21 0x14985D1A5B99C8191BD95CC81B9BDD08195E1A5CDD PUSH1 0x5A SHL PUSH1 0x44 DUP3 ADD MSTORE PUSH1 0x64 ADD PUSH2 0x219 JUMP JUMPDEST PUSH0 DUP2 PUSH1 0xFF AND GT DUP1 ISZERO PUSH2 0xA5B JUMPI POP PUSH1 0x5 DUP2 PUSH1 0xFF AND GT ISZERO JUMPDEST PUSH2 0xAA7 JUMPI PUSH1 0x40 MLOAD PUSH3 0x461BCD PUSH1 0xE5 SHL DUP2 MSTORE PUSH1 0x20 PUSH1 0x4 DUP3 ADD MSTORE PUSH1 0x1D PUSH1 0x24 DUP3 ADD MSTORE PUSH32 0x5374617273206D757374206265206265747765656E203120616E642035000000 PUSH1 0x44 DUP3 ADD MSTORE PUSH1 0x64 ADD PUSH2 0x219 JUMP JUMPDEST PUSH0 DUP5 DUP2 MSTORE PUSH1 0x3 PUSH1 0x20 DUP2 SWAP1 MSTORE PUSH1 0x40 SWAP1 SWAP2 KECCAK256 PUSH1 0x4 DUP2 ADD SLOAD PUSH1 0xFF AND SWAP2 ADD PUSH2 0xACC DUP5 DUP7 DUP4 PUSH2 0x1256 JUMP JUMPDEST POP PUSH0 DUP6 DUP2 MSTORE PUSH1 0x3 PUSH1 0x20 MSTORE PUSH1 0x40 DUP1 DUP3 KECCAK256 PUSH1 0x4 DUP1 DUP3 ADD DUP1 SLOAD PUSH1 0xFF NOT AND PUSH1 0xFF DUP9 AND OR SWAP1 SSTORE PUSH1 0x1 SLOAD PUSH1 0x2 SWAP1 SWAP3 ADD SLOAD SWAP3 MLOAD PUSH4 0xF26F439 PUSH1 0xE1 SHL DUP2 MSTORE SWAP1 DUP2 ADD SWAP3 SWAP1 SWAP3 MSTORE PUSH1 0x1 PUSH1 0x1 PUSH1 0xA0 SHL SUB AND SWAP1 PUSH4 0x1E4DE872 SWAP1 PUSH1 0x24 ADD PUSH0 PUSH1 0x40 MLOAD DUP1 DUP4 SUB DUP2 DUP7 GAS STATICCALL ISZERO DUP1 ISZERO PUSH2 0xB36 JUMPI RETURNDATASIZE PUSH0 PUSH0 RETURNDATACOPY RETURNDATASIZE PUSH0 REVERT JUMPDEST POP POP POP POP PUSH1 0x40 MLOAD RETURNDATASIZE PUSH0 DUP3 RETURNDATACOPY PUSH1 0x1F RETURNDATASIZE SWAP1 DUP2 ADD PUSH1 0x1F NOT AND DUP3 ADD PUSH1 0x40 MSTORE PUSH2 0xB5D SWAP2 SWAP1 DUP2 ADD SWAP1 PUSH2 0x10AB JUMP JUMPDEST SWAP1 POP PUSH0 DUP3 DUP5 PUSH1 0xFF AND DUP4 PUSH1 0xE0 ADD MLOAD PUSH2 0xB74 SWAP2 SWAP1 PUSH2 0x130F JUMP JUMPDEST PUSH2 0xB7E SWAP2 SWAP1 PUSH2 0xEF0 JUMP JUMPDEST PUSH2 0x100 DUP4 ADD MLOAD PUSH1 0x1 SLOAD PUSH0 DUP11 DUP2 MSTORE PUSH1 0x3 PUSH1 0x20 MSTORE PUSH1 0x40 SWAP1 DUP2 SWAP1 KECCAK256 PUSH1 0x2 ADD SLOAD SWAP1 MLOAD PUSH4 0x3143E00F PUSH1 0xE0 SHL DUP2 MSTORE PUSH1 0x4 DUP2 ADD SWAP2 SWAP1 SWAP2 MSTORE PUSH1 0x24 DUP2 ADD DUP5 SWAP1 MSTORE PUSH1 0x44 DUP2 ADD DUP4 SWAP1 MSTORE SWAP3 SWAP4 POP SWAP1 SWAP2 PUSH1 0x1 PUSH1 0x1 PUSH1 0xA0 SHL SUB SWAP1 SWAP2 AND SWAP1 PUSH4 0x3143E00F SWAP1 PUSH1 0x64 ADD PUSH0 PUSH1 0x40 MLOAD DUP1 DUP4 SUB DUP2 PUSH0 DUP8 DUP1 EXTCODESIZE ISZERO DUP1 ISZERO PUSH2 0xBED JUMPI PUSH0 PUSH0 REVERT JUMPDEST POP GAS CALL ISZERO DUP1 ISZERO PUSH2 0xBFF JUMPI RETURNDATASIZE PUSH0 PUSH0 RETURNDATACOPY RETURNDATASIZE PUSH0 REVERT JUMPDEST POP POP POP PUSH0 DUP10 DUP2 MSTORE PUSH1 0x3 PUSH1 0x20 SWAP1 DUP2 MSTORE PUSH1 0x40 SWAP2 DUP3 SWAP1 KECCAK256 PUSH1 0x2 ADD SLOAD DUP3 MLOAD DUP13 DUP2 MSTORE SWAP2 DUP3 ADD MSTORE CALLER DUP2 DUP4 ADD MSTORE PUSH1 0xFF DUP9 AND PUSH1 0x60 DUP3 ADD MSTORE SWAP1 MLOAD PUSH32 0x24ACFD6197E24ED4392757B2B8669EC63A8448D82A54697D7E032A31B71F3920 SWAP3 POP SWAP1 DUP2 SWAP1 SUB PUSH1 0x80 ADD SWAP1 LOG1 POP POP POP POP POP POP POP POP JUMP JUMPDEST POP DUP1 SLOAD PUSH2 0xC72 SWAP1 PUSH2 0x11D2 JUMP JUMPDEST PUSH0 DUP3 SSTORE DUP1 PUSH1 0x1F LT PUSH2 0xC81 JUMPI POP POP JUMP JUMPDEST PUSH1 0x1F ADD PUSH1 0x20 SWAP1 DIV SWAP1 PUSH0 MSTORE PUSH1 0x20 PUSH0 KECCAK256 SWAP1 DUP2 ADD SWAP1 PUSH2 0xC9D SWAP2 SWAP1 PUSH2 0xCA0 JUMP JUMPDEST POP JUMP JUMPDEST JUMPDEST DUP1 DUP3 GT ISZERO PUSH2 0xCB4 JUMPI PUSH0 DUP2 SSTORE PUSH1 0x1 ADD PUSH2 0xCA1 JUMP JUMPDEST POP SWAP1 JUMP JUMPDEST PUSH0 PUSH0 PUSH1 0x40 DUP4 DUP6 SUB SLT ISZERO PUSH2 0xCC9 JUMPI PUSH0 PUSH0 REVERT JUMPDEST POP POP DUP1 CALLDATALOAD SWAP3 PUSH1 0x20 SWAP1 SWAP2 ADD CALLDATALOAD SWAP2 POP JUMP JUMPDEST PUSH0 PUSH1 0x20 DUP3 DUP5 SUB SLT ISZERO PUSH2 0xCE8 JUMPI PUSH0 PUSH0 REVERT JUMPDEST POP CALLDATALOAD SWAP2 SWAP1 POP JUMP JUMPDEST PUSH0 PUSH0 PUSH0 PUSH0 PUSH1 0x60 DUP6 DUP8 SUB SLT ISZERO PUSH2 0xD02 JUMPI PUSH0 PUSH0 REVERT JUMPDEST DUP5 CALLDATALOAD SWAP4 POP PUSH1 0x20 DUP6 ADD CALLDATALOAD PUSH1 0x1 PUSH1 0x1 PUSH1 0x40 SHL SUB DUP2 GT ISZERO PUSH2 0xD1E JUMPI PUSH0 PUSH0 REVERT JUMPDEST DUP6 ADD PUSH1 0x1F DUP2 ADD DUP8 SGT PUSH2 0xD2E JUMPI PUSH0 PUSH0 REVERT JUMPDEST DUP1 CALLDATALOAD PUSH1 0x1 PUSH1 0x1 PUSH1 0x40 SHL SUB DUP2 GT ISZERO PUSH2 0xD43 JUMPI PUSH0 PUSH0 REVERT JUMPDEST DUP8 PUSH1 0x20 DUP3 DUP5 ADD ADD GT ISZERO PUSH2 0xD54 JUMPI PUSH0 PUSH0 REVERT JUMPDEST PUSH1 0x20 SWAP2 SWAP1 SWAP2 ADD SWAP4 POP SWAP2 POP PUSH1 0x40 DUP6 ADD CALLDATALOAD PUSH1 0xFF DUP2 AND DUP2 EQ PUSH2 0xD71 JUMPI PUSH0 PUSH0 REVERT JUMPDEST SWAP4 SWAP7 SWAP3 SWAP6 POP SWAP1 SWAP4 POP POP JUMP JUMPDEST PUSH0 PUSH1 0x20 DUP3 DUP5 SUB SLT ISZERO PUSH2 0xD8C JUMPI PUSH0 PUSH0 REVERT JUMPDEST DUP2 CALLDATALOAD PUSH1 0x1 PUSH1 0x1 PUSH1 0xA0 SHL SUB DUP2 AND DUP2 EQ PUSH2 0xDA2 JUMPI PUSH0 PUSH0 REVERT JUMPDEST SWAP4 SWAP3 POP POP POP JUMP JUMPDEST PUSH0 DUP2 MLOAD DUP1 DUP5 MSTORE DUP1 PUSH1 0x20 DUP5 ADD PUSH1 0x20 DUP7 ADD MCOPY PUSH0 PUSH1 0x20 DUP3 DUP7 ADD ADD MSTORE PUSH1 0x20 PUSH1 0x1F NOT PUSH1 0x1F DUP4 ADD AND DUP6 ADD ADD SWAP2 POP POP SWAP3 SWAP2 POP POP JUMP JUMPDEST DUP7 DUP2 MSTORE PUSH1 0x1 DUP1 PUSH1 0xA0 SHL SUB DUP7 AND PUSH1 0x20 DUP3 ADD MSTORE DUP5 PUSH1 0x40 DUP3 ADD MSTORE PUSH1 0xC0 PUSH1 0x60 DUP3 ADD MSTORE PUSH0 PUSH2 0xE03 PUSH1 0xC0 DUP4 ADD DUP7 PUSH2 0xDA9 JUMP JUMPDEST PUSH1 0xFF SWAP5 SWAP1 SWAP5 AND PUSH1 0x80 DUP4 ADD MSTORE POP PUSH1 0xA0 ADD MSTORE SWAP5 SWAP4 POP POP POP POP JUMP JUMPDEST PUSH0 PUSH1 0x20 DUP3 ADD PUSH1 0x20 DUP4 MSTORE DUP1 DUP5 MLOAD DUP1 DUP4 MSTORE PUSH1 0x40 DUP6 ADD SWAP2 POP PUSH1 0x40 DUP2 PUSH1 0x5 SHL DUP7 ADD ADD SWAP3 POP PUSH1 0x20 DUP7 ADD PUSH0 JUMPDEST DUP3 DUP2 LT ISZERO PUSH2 0xEBC JUMPI PUSH1 0x3F NOT DUP8 DUP7 SUB ADD DUP5 MSTORE DUP2 MLOAD DUP1 MLOAD DUP7 MSTORE PUSH1 0x1 DUP1 PUSH1 0xA0 SHL SUB PUSH1 0x20 DUP3 ADD MLOAD AND PUSH1 0x20 DUP8 ADD MSTORE PUSH1 0x40 DUP2 ADD MLOAD PUSH1 0x40 DUP8 ADD MSTORE PUSH1 0x60 DUP2 ADD MLOAD PUSH1 0xC0 PUSH1 0x60 DUP9 ADD MSTORE PUSH2 0xE8D PUSH1 0xC0 DUP9 ADD DUP3 PUSH2 0xDA9 JUMP JUMPDEST PUSH1 0x80 DUP4 DUP2 ADD MLOAD PUSH1 0xFF AND SWAP1 DUP10 ADD MSTORE PUSH1 0xA0 SWAP3 DUP4 ADD MLOAD SWAP3 SWAP1 SWAP8 ADD SWAP2 SWAP1 SWAP2 MSTORE POP PUSH1 0x20 SWAP4 DUP5 ADD SWAP4 SWAP2 SWAP1 SWAP2 ADD SWAP1 PUSH1 0x1 ADD PUSH2 0xE41 JUMP JUMPDEST POP SWAP3 SWAP7 SWAP6 POP POP POP POP POP POP JUMP JUMPDEST PUSH4 0x4E487B71 PUSH1 0xE0 SHL PUSH0 MSTORE PUSH1 0x32 PUSH1 0x4 MSTORE PUSH1 0x24 PUSH0 REVERT JUMPDEST PUSH4 0x4E487B71 PUSH1 0xE0 SHL PUSH0 MSTORE PUSH1 0x11 PUSH1 0x4 MSTORE PUSH1 0x24 PUSH0 REVERT JUMPDEST DUP2 DUP2 SUB DUP2 DUP2 GT ISZERO PUSH2 0xF03 JUMPI PUSH2 0xF03 PUSH2 0xEDC JUMP JUMPDEST SWAP3 SWAP2 POP POP JUMP JUMPDEST PUSH4 0x4E487B71 PUSH1 0xE0 SHL PUSH0 MSTORE PUSH1 0x31 PUSH1 0x4 MSTORE PUSH1 0x24 PUSH0 REVERT JUMPDEST PUSH4 0x4E487B71 PUSH1 0xE0 SHL PUSH0 MSTORE PUSH1 0x41 PUSH1 0x4 MSTORE PUSH1 0x24 PUSH0 REVERT JUMPDEST PUSH1 0x40 MLOAD PUSH2 0x140 DUP2 ADD PUSH1 0x1 PUSH1 0x1 PUSH1 0x40 SHL SUB DUP2 GT DUP3 DUP3 LT OR ISZERO PUSH2 0xF54 JUMPI PUSH2 0xF54 PUSH2 0xF1D JUMP JUMPDEST PUSH1 0x40 MSTORE SWAP1 JUMP JUMPDEST PUSH1 0x40 MLOAD PUSH1 0x1F DUP3 ADD PUSH1 0x1F NOT AND DUP2 ADD PUSH1 0x1 PUSH1 0x1 PUSH1 0x40 SHL SUB DUP2 GT DUP3 DUP3 LT OR ISZERO PUSH2 0xF82 JUMPI PUSH2 0xF82 PUSH2 0xF1D JUMP JUMPDEST PUSH1 0x40 MSTORE SWAP2 SWAP1 POP JUMP JUMPDEST PUSH0 DUP3 PUSH1 0x1F DUP4 ADD SLT PUSH2 0xF99 JUMPI PUSH0 PUSH0 REVERT JUMPDEST DUP2 MLOAD PUSH1 0x1 PUSH1 0x1 PUSH1 0x40 SHL SUB DUP2 GT ISZERO PUSH2 0xFB2 JUMPI PUSH2 0xFB2 PUSH2 0xF1D JUMP JUMPDEST PUSH2 0xFC5 PUSH1 0x1F DUP3 ADD PUSH1 0x1F NOT AND PUSH1 0x20 ADD PUSH2 0xF5A JUMP JUMPDEST DUP2 DUP2 MSTORE DUP5 PUSH1 0x20 DUP4 DUP7 ADD ADD GT ISZERO PUSH2 0xFD9 JUMPI PUSH0 PUSH0 REVERT JUMPDEST DUP2 PUSH1 0x20 DUP6 ADD PUSH1 0x20 DUP4 ADD MCOPY PUSH0 SWAP2 DUP2 ADD PUSH1 0x20 ADD SWAP2 SWAP1 SWAP2 MSTORE SWAP4 SWAP3 POP POP POP JUMP JUMPDEST PUSH0 DUP3 PUSH1 0x1F DUP4 ADD SLT PUSH2 0x1004 JUMPI PUSH0 PUSH0 REVERT JUMPDEST DUP2 MLOAD PUSH1 0x1 PUSH1 0x1 PUSH1 0x40 SHL SUB DUP2 GT ISZERO PUSH2 0x101D JUMPI PUSH2 0x101D PUSH2 0xF1D JUMP JUMPDEST DUP1 PUSH1 0x5 SHL PUSH2 0x102D PUSH1 0x20 DUP3 ADD PUSH2 0xF5A JUMP JUMPDEST SWAP2 DUP3 MSTORE PUSH1 0x20 DUP2 DUP6 ADD DUP2 ADD SWAP3 SWAP1 DUP2 ADD SWAP1 DUP7 DUP5 GT ISZERO PUSH2 0x1048 JUMPI PUSH0 PUSH0 REVERT JUMPDEST PUSH1 0x20 DUP7 ADD SWAP3 POP JUMPDEST DUP4 DUP4 LT ISZERO PUSH2 0x108D JUMPI DUP3 MLOAD PUSH1 0x1 PUSH1 0x1 PUSH1 0x40 SHL SUB DUP2 GT ISZERO PUSH2 0x106C JUMPI PUSH0 PUSH0 REVERT JUMPDEST PUSH2 0x107B DUP9 PUSH1 0x20 DUP4 DUP11 ADD ADD PUSH2 0xF8A JUMP JUMPDEST DUP4 MSTORE POP PUSH1 0x20 SWAP3 DUP4 ADD SWAP3 SWAP1 SWAP2 ADD SWAP1 PUSH2 0x104F JUMP JUMPDEST SWAP7 SWAP6 POP POP POP POP POP POP JUMP JUMPDEST DUP1 MLOAD DUP1 ISZERO ISZERO DUP2 EQ PUSH2 0x10A6 JUMPI PUSH0 PUSH0 REVERT JUMPDEST SWAP2 SWAP1 POP JUMP JUMPDEST PUSH0 PUSH1 0x20 DUP3 DUP5 SUB SLT ISZERO PUSH2 0x10BB JUMPI PUSH0 PUSH0 REVERT JUMPDEST DUP2 MLOAD PUSH1 0x1 PUSH1 0x1 PUSH1 0x40 SHL SUB DUP2 GT ISZERO PUSH2 0x10D0 JUMPI PUSH0 PUSH0 REVERT JUMPDEST DUP3 ADD PUSH2 0x140 DUP2 DUP6 SUB SLT ISZERO PUSH2 0x10E2 JUMPI PUSH0 PUSH0 REVERT JUMPDEST PUSH2 0x10EA PUSH2 0xF31 JUMP JUMPDEST DUP2 MLOAD DUP2 MSTORE PUSH1 0x20 DUP3 ADD MLOAD PUSH1 0x1 PUSH1 0x1 PUSH1 0x40 SHL SUB DUP2 GT ISZERO PUSH2 0x1106 JUMPI PUSH0 PUSH0 REVERT JUMPDEST PUSH2 0x1112 DUP7 DUP3 DUP6 ADD PUSH2 0xF8A JUMP JUMPDEST PUSH1 0x20 DUP4 ADD MSTORE POP PUSH1 0x40 DUP3 ADD MLOAD PUSH1 0x1 PUSH1 0x1 PUSH1 0x40 SHL SUB DUP2 GT ISZERO PUSH2 0x1130 JUMPI PUSH0 PUSH0 REVERT JUMPDEST PUSH2 0x113C DUP7 DUP3 DUP6 ADD PUSH2 0xF8A JUMP JUMPDEST PUSH1 0x40 DUP4 ADD MSTORE POP PUSH1 0x60 DUP3 DUP2 ADD MLOAD SWAP1 DUP3 ADD MSTORE PUSH1 0x80 DUP3 ADD MLOAD PUSH1 0x1 PUSH1 0x1 PUSH1 0x40 SHL SUB DUP2 GT ISZERO PUSH2 0x1164 JUMPI PUSH0 PUSH0 REVERT JUMPDEST PUSH2 0x1170 DUP7 DUP3 DUP6 ADD PUSH2 0xFF5 JUMP JUMPDEST PUSH1 0x80 DUP4 ADD MSTORE POP PUSH1 0xA0 DUP3 DUP2 ADD MLOAD SWAP1 DUP3 ADD MSTORE PUSH1 0xC0 DUP1 DUP4 ADD MLOAD SWAP1 DUP3 ADD MSTORE PUSH1 0xE0 DUP1 DUP4 ADD MLOAD SWAP1 DUP3 ADD MSTORE PUSH2 0x100 DUP1 DUP4 ADD MLOAD SWAP1 DUP3 ADD MSTORE PUSH2 0x11AC PUSH2 0x120 DUP4 ADD PUSH2 0x1097 JUMP JUMPDEST PUSH2 0x120 DUP3 ADD MSTORE SWAP5 SWAP4 POP POP POP POP JUMP JUMPDEST PUSH0 PUSH1 0x1 DUP3 ADD PUSH2 0x11CB JUMPI PUSH2 0x11CB PUSH2 0xEDC JUMP JUMPDEST POP PUSH1 0x1 ADD SWAP1 JUMP JUMPDEST PUSH1 0x1 DUP2 DUP2 SHR SWAP1 DUP3 AND DUP1 PUSH2 0x11E6 JUMPI PUSH1 0x7F DUP3 AND SWAP2 POP JUMPDEST PUSH1 0x20 DUP3 LT DUP2 SUB PUSH2 0x1204 JUMPI PUSH4 0x4E487B71 PUSH1 0xE0 SHL PUSH0 MSTORE PUSH1 0x22 PUSH1 0x4 MSTORE PUSH1 0x24 PUSH0 REVERT JUMPDEST POP SWAP2 SWAP1 POP JUMP JUMPDEST PUSH1 0x1F DUP3 GT ISZERO PUSH2 0x1251 JUMPI DUP1 PUSH0 MSTORE PUSH1 0x20 PUSH0 KECCAK256 PUSH1 0x1F DUP5 ADD PUSH1 0x5 SHR DUP2 ADD PUSH1 0x20 DUP6 LT ISZERO PUSH2 0x122F JUMPI POP DUP1 JUMPDEST PUSH1 0x1F DUP5 ADD PUSH1 0x5 SHR DUP3 ADD SWAP2 POP JUMPDEST DUP2 DUP2 LT ISZERO PUSH2 0x124E JUMPI PUSH0 DUP2 SSTORE PUSH1 0x1 ADD PUSH2 0x123B JUMP JUMPDEST POP POP JUMPDEST POP POP POP JUMP JUMPDEST PUSH1 0x1 PUSH1 0x1 PUSH1 0x40 SHL SUB DUP4 GT ISZERO PUSH2 0x126D JUMPI PUSH2 0x126D PUSH2 0xF1D JUMP JUMPDEST PUSH2 0x1281 DUP4 PUSH2 0x127B DUP4 SLOAD PUSH2 0x11D2 JUMP JUMPDEST DUP4 PUSH2 0x120A JUMP JUMPDEST PUSH0 PUSH1 0x1F DUP5 GT PUSH1 0x1 DUP2 EQ PUSH2 0x12B2 JUMPI PUSH0 DUP6 ISZERO PUSH2 0x129B JUMPI POP DUP4 DUP3 ADD CALLDATALOAD JUMPDEST PUSH0 NOT PUSH1 0x3 DUP8 SWAP1 SHL SHR NOT AND PUSH1 0x1 DUP7 SWAP1 SHL OR DUP4 SSTORE PUSH2 0x124E JUMP JUMPDEST PUSH0 DUP4 DUP2 MSTORE PUSH1 0x20 DUP2 KECCAK256 PUSH1 0x1F NOT DUP8 AND SWAP2 JUMPDEST DUP3 DUP2 LT ISZERO PUSH2 0x12E1 JUMPI DUP7 DUP6 ADD CALLDATALOAD DUP3 SSTORE PUSH1 0x20 SWAP5 DUP6 ADD SWAP5 PUSH1 0x1 SWAP1 SWAP3 ADD SWAP2 ADD PUSH2 0x12C1 JUMP JUMPDEST POP DUP7 DUP3 LT ISZERO PUSH2 0x12FD JUMPI PUSH0 NOT PUSH1 0xF8 DUP9 PUSH1 0x3 SHL AND SHR NOT DUP5 DUP8 ADD CALLDATALOAD AND DUP2 SSTORE JUMPDEST POP POP PUSH1 0x1 DUP6 PUSH1 0x1 SHL ADD DUP4 SSTORE POP POP POP POP POP JUMP JUMPDEST DUP1 DUP3 ADD DUP1 DUP3 GT ISZERO PUSH2 0xF03 JUMPI PUSH2 0xF03 PUSH2 0xEDC JUMP INVALID LOG2 PUSH5 0x6970667358 0x22 SLT KECCAK256 DUP16 0xD2 XOR SWAP11 0xB0 PUSH25 0x6D3374D0D77C5E2CDC8C31E8C253D4A10F34957C3C68077050 CALLDATACOPY PUSH5 0x736F6C6343 STOP ADDMOD 0x1E STOP CALLER "
				},
				"gasEstimates": {
					"creation": {
						"codeDepositCost": "990400",
						"executionCost": "infinite",
						"totalCost": "infinite"
					},
					"external": {
						"addFoodRating(uint256,string,uint8)": "infinite",
						"deleteFoodRating(uint256)": "infinite",
						"foodIdToRatingIds(uint256,uint256)": "4647",
						"foodManager()": "2381",
						"foodRatings(uint256)": "infinite",
						"getFoodRatingsByFoodId(uint256)": "infinite",
						"nextFoodRatingId()": "2327",
						"roleAccess()": "2358",
						"setFoodManager(address)": "24569",
						"updateFoodRating(uint256,string,uint8)": "infinite"
					}
				},
				"methodIdentifiers": {
					"addFoodRating(uint256,string,uint8)": "9d77eb83",
					"deleteFoodRating(uint256)": "97d2b92a",
					"foodIdToRatingIds(uint256,uint256)": "17650263",
					"foodManager()": "439e61fa",
					"foodRatings(uint256)": "d15af016",
					"getFoodRatingsByFoodId(uint256)": "f44a8583",
					"nextFoodRatingId()": "e3c9c7b3",
					"roleAccess()": "42f54b89",
					"setFoodManager(address)": "bad1365e",
					"updateFoodRating(uint256,string,uint8)": "f6b829a0"
				}
			},
			"storageLayout": {
				"storage": [
					{
						"astId": 383,
						"contract": "contracts/manager/FoodRating.sol:FoodRatingManager",
						"label": "roleAccess",
						"offset": 0,
						"slot": "0",
						"type": "t_contract(RoleAccess)98"
					},
					{
						"astId": 386,
						"contract": "contracts/manager/FoodRating.sol:FoodRatingManager",
						"label": "foodManager",
						"offset": 0,
						"slot": "1",
						"type": "t_contract(IFoodManager)309"
					},
					{
						"astId": 389,
						"contract": "contracts/manager/FoodRating.sol:FoodRatingManager",
						"label": "nextFoodRatingId",
						"offset": 0,
						"slot": "2",
						"type": "t_uint256"
					},
					{
						"astId": 394,
						"contract": "contracts/manager/FoodRating.sol:FoodRatingManager",
						"label": "foodRatings",
						"offset": 0,
						"slot": "3",
						"type": "t_mapping(t_uint256,t_struct(FoodRating)911_storage)"
					},
					{
						"astId": 399,
						"contract": "contracts/manager/FoodRating.sol:FoodRatingManager",
						"label": "foodIdToRatingIds",
						"offset": 0,
						"slot": "4",
						"type": "t_mapping(t_uint256,t_array(t_uint256)dyn_storage)"
					}
				],
				"types": {
					"t_address": {
						"encoding": "inplace",
						"label": "address",
						"numberOfBytes": "20"
					},
					"t_array(t_uint256)dyn_storage": {
						"base": "t_uint256",
						"encoding": "dynamic_array",
						"label": "uint256[]",
						"numberOfBytes": "32"
					},
					"t_contract(IFoodManager)309": {
						"encoding": "inplace",
						"label": "contract IFoodManager",
						"numberOfBytes": "20"
					},
					"t_contract(RoleAccess)98": {
						"encoding": "inplace",
						"label": "contract RoleAccess",
						"numberOfBytes": "20"
					},
					"t_mapping(t_uint256,t_array(t_uint256)dyn_storage)": {
						"encoding": "mapping",
						"key": "t_uint256",
						"label": "mapping(uint256 => uint256[])",
						"numberOfBytes": "32",
						"value": "t_array(t_uint256)dyn_storage"
					},
					"t_mapping(t_uint256,t_struct(FoodRating)911_storage)": {
						"encoding": "mapping",
						"key": "t_uint256",
						"label": "mapping(uint256 => struct FoodRating)",
						"numberOfBytes": "32",
						"value": "t_struct(FoodRating)911_storage"
					},
					"t_string_storage": {
						"encoding": "bytes",
						"label": "string",
						"numberOfBytes": "32"
					},
					"t_struct(FoodRating)911_storage": {
						"encoding": "inplace",
						"label": "struct FoodRating",
						"members": [
							{
								"astId": 900,
								"contract": "contracts/manager/FoodRating.sol:FoodRatingManager",
								"label": "id",
								"offset": 0,
								"slot": "0",
								"type": "t_uint256"
							},
							{
								"astId": 902,
								"contract": "contracts/manager/FoodRating.sol:FoodRatingManager",
								"label": "reviewer",
								"offset": 0,
								"slot": "1",
								"type": "t_address"
							},
							{
								"astId": 904,
								"contract": "contracts/manager/FoodRating.sol:FoodRatingManager",
								"label": "foodId",
								"offset": 0,
								"slot": "2",
								"type": "t_uint256"
							},
							{
								"astId": 906,
								"contract": "contracts/manager/FoodRating.sol:FoodRatingManager",
								"label": "content",
								"offset": 0,
								"slot": "3",
								"type": "t_string_storage"
							},
							{
								"astId": 908,
								"contract": "contracts/manager/FoodRating.sol:FoodRatingManager",
								"label": "stars",
								"offset": 0,
								"slot": "4",
								"type": "t_uint8"
							},
							{
								"astId": 910,
								"contract": "contracts/manager/FoodRating.sol:FoodRatingManager",
								"label": "timestamp",
								"offset": 0,
								"slot": "5",
								"type": "t_uint256"
							}
						],
						"numberOfBytes": "192"
					},
					"t_uint256": {
						"encoding": "inplace",
						"label": "uint256",
						"numberOfBytes": "32"
					},
					"t_uint8": {
						"encoding": "inplace",
						"label": "uint8",
						"numberOfBytes": "1"
					}
				}
			},
			"userdoc": {
				"kind": "user",
				"methods": {},
				"version": 1
			}
		}
	}
}