{
	"contracts/manager/CategoryManager.sol": {
		"CategoryManager": {
			"abi": [
				{
					"anonymous": false,
					"inputs": [
						{
							"indexed": false,
							"internalType": "uint256",
							"name": "categoryId",
							"type": "uint256"
						},
						{
							"indexed": false,
							"internalType": "string",
							"name": "name",
							"type": "string"
						}
					],
					"name": "CategoryCreated",
					"type": "event"
				},
				{
					"anonymous": false,
					"inputs": [
						{
							"indexed": false,
							"internalType": "uint256",
							"name": "categoryId",
							"type": "uint256"
						}
					],
					"name": "CategoryDeleted",
					"type": "event"
				},
				{
					"anonymous": false,
					"inputs": [
						{
							"indexed": false,
							"internalType": "uint256",
							"name": "categoryId",
							"type": "uint256"
						},
						{
							"indexed": false,
							"internalType": "string",
							"name": "newName",
							"type": "string"
						}
					],
					"name": "CategoryUpdated",
					"type": "event"
				},
				{
					"inputs": [
						{
							"internalType": "address",
							"name": "_admin",
							"type": "address"
						}
					],
					"name": "addAdmin",
					"outputs": [],
					"stateMutability": "nonpayable",
					"type": "function"
				},
				{
					"inputs": [
						{
							"internalType": "uint256",
							"name": "",
							"type": "uint256"
						}
					],
					"name": "categories",
					"outputs": [
						{
							"internalType": "uint256",
							"name": "categoryId",
							"type": "uint256"
						},
						{
							"internalType": "string",
							"name": "name",
							"type": "string"
						}
					],
					"stateMutability": "view",
					"type": "function"
				},
				{
					"inputs": [
						{
							"internalType": "uint256",
							"name": "categoryId",
							"type": "uint256"
						},
						{
							"internalType": "string",
							"name": "name",
							"type": "string"
						}
					],
					"name": "createCategory",
					"outputs": [],
					"stateMutability": "nonpayable",
					"type": "function"
				},
				{
					"inputs": [
						{
							"internalType": "uint256",
							"name": "categoryId",
							"type": "uint256"
						}
					],
					"name": "deleteCategory",
					"outputs": [],
					"stateMutability": "nonpayable",
					"type": "function"
				},
				{
					"inputs": [],
					"name": "getAllCategories",
					"outputs": [
						{
							"components": [
								{
									"internalType": "uint256",
									"name": "categoryId",
									"type": "uint256"
								},
								{
									"internalType": "string",
									"name": "name",
									"type": "string"
								}
							],
							"internalType": "struct Category[]",
							"name": "",
							"type": "tuple[]"
						}
					],
					"stateMutability": "view",
					"type": "function"
				},
				{
					"inputs": [
						{
							"internalType": "uint256",
							"name": "categoryId",
							"type": "uint256"
						}
					],
					"name": "getCategory",
					"outputs": [
						{
							"components": [
								{
									"internalType": "uint256",
									"name": "categoryId",
									"type": "uint256"
								},
								{
									"internalType": "string",
									"name": "name",
									"type": "string"
								}
							],
							"internalType": "struct Category",
							"name": "",
							"type": "tuple"
						}
					],
					"stateMutability": "view",
					"type": "function"
				},
				{
					"inputs": [],
					"name": "getOwner",
					"outputs": [
						{
							"internalType": "address",
							"name": "",
							"type": "address"
						}
					],
					"stateMutability": "view",
					"type": "function"
				},
				{
					"inputs": [
						{
							"internalType": "address",
							"name": "",
							"type": "address"
						}
					],
					"name": "isAdmin",
					"outputs": [
						{
							"internalType": "bool",
							"name": "",
							"type": "bool"
						}
					],
					"stateMutability": "view",
					"type": "function"
				},
				{
					"inputs": [
						{
							"internalType": "address",
							"name": "_admin",
							"type": "address"
						}
					],
					"name": "removeAdmin",
					"outputs": [],
					"stateMutability": "nonpayable",
					"type": "function"
				},
				{
					"inputs": [
						{
							"internalType": "uint256",
							"name": "categoryId",
							"type": "uint256"
						},
						{
							"internalType": "string",
							"name": "newName",
							"type": "string"
						}
					],
					"name": "updateCategory",
					"outputs": [],
					"stateMutability": "nonpayable",
					"type": "function"
				}
			],
			"devdoc": {
				"kind": "dev",
				"methods": {},
				"version": 1
			},
			"evm": {
				"assembly": "    /* \"contracts/manager/CategoryManager.sol\":208:2336  contract CategoryManager is ICategoryManager, RoleAccess {... */\n  mstore(0x40, 0x80)\n  callvalue\n  dup1\n  iszero\n  tag_1\n  jumpi\n  revert(0x00, 0x00)\ntag_1:\n  pop\n    /* \"contracts/access/RoleAccess.sol\":425:435  msg.sender */\n  caller\n    /* \"contracts/access/RoleAccess.sol\":418:423  owner */\n  0x00\n  0x00\n    /* \"contracts/access/RoleAccess.sol\":418:435  owner =msg.sender */\n  0x0100\n  exp\n  dup2\n  sload\n  dup2\n  0xffffffffffffffffffffffffffffffffffffffff\n  mul\n  not\n  and\n  swap1\n  dup4\n  0xffffffffffffffffffffffffffffffffffffffff\n  and\n  mul\n  or\n  swap1\n  sstore\n  pop\n    /* \"contracts/manager/CategoryManager.sol\":208:2336  contract CategoryManager is ICategoryManager, RoleAccess {... */\n  dataSize(sub_0)\n  dup1\n  dataOffset(sub_0)\n  0x00\n  codecopy\n  0x00\n  return\nstop\n\nsub_0: assembly {\n        /* \"contracts/manager/CategoryManager.sol\":208:2336  contract CategoryManager is ICategoryManager, RoleAccess {... */\n      mstore(0x40, 0x80)\n      callvalue\n      dup1\n      iszero\n      tag_1\n      jumpi\n      revert(0x00, 0x00)\n    tag_1:\n      pop\n      jumpi(tag_2, lt(calldatasize, 0x04))\n      shr(0xe0, calldataload(0x00))\n      dup1\n      0xc6cdbe5e\n      gt\n      tag_13\n      jumpi\n      dup1\n      0xc6cdbe5e\n      eq\n      tag_8\n      jumpi\n      dup1\n      0xceca737f\n      eq\n      tag_9\n      jumpi\n      dup1\n      0xdadd0a57\n      eq\n      tag_10\n      jumpi\n      dup1\n      0xf3052d26\n      eq\n      tag_11\n      jumpi\n      dup1\n      0xf7868a52\n      eq\n      tag_12\n      jumpi\n      jump(tag_2)\n    tag_13:\n      dup1\n      0x1785f53c\n      eq\n      tag_3\n      jumpi\n      dup1\n      0x24d7806c\n      eq\n      tag_4\n      jumpi\n      dup1\n      0x70480275\n      eq\n      tag_5\n      jumpi\n      dup1\n      0x78697e5b\n      eq\n      tag_6\n      jumpi\n      dup1\n      0x893d20e8\n      eq\n      tag_7\n      jumpi\n    tag_2:\n      revert(0x00, 0x00)\n        /* \"contracts/access/RoleAccess.sol\":696:784  function removeAdmin(address _admin) external {... */\n    tag_3:\n      tag_14\n      0x04\n      dup1\n      calldatasize\n      sub\n      dup2\n      add\n      swap1\n      tag_15\n      swap2\n      swap1\n      tag_16\n      jump\t// in\n    tag_15:\n      tag_17\n      jump\t// in\n    tag_14:\n      stop\n        /* \"contracts/access/RoleAccess.sol\":107:146  mapping(address => bool) public isAdmin */\n    tag_4:\n      tag_18\n      0x04\n      dup1\n      calldatasize\n      sub\n      dup2\n      add\n      swap1\n      tag_19\n      swap2\n      swap1\n      tag_16\n      jump\t// in\n    tag_19:\n      tag_20\n      jump\t// in\n    tag_18:\n      mload(0x40)\n      tag_21\n      swap2\n      swap1\n      tag_22\n      jump\t// in\n    tag_21:\n      mload(0x40)\n      dup1\n      swap2\n      sub\n      swap1\n      return\n        /* \"contracts/access/RoleAccess.sol\":538:688  function addAdmin(address _admin) external virtual  {... */\n    tag_5:\n      tag_23\n      0x04\n      dup1\n      calldatasize\n      sub\n      dup2\n      add\n      swap1\n      tag_24\n      swap2\n      swap1\n      tag_16\n      jump\t// in\n    tag_24:\n      tag_25\n      jump\t// in\n    tag_23:\n      stop\n        /* \"contracts/manager/CategoryManager.sol\":1095:1448  function updateCategory(uint categoryId, string memory newName) external override {... */\n    tag_6:\n      tag_26\n      0x04\n      dup1\n      calldatasize\n      sub\n      dup2\n      add\n      swap1\n      tag_27\n      swap2\n      swap1\n      tag_28\n      jump\t// in\n    tag_27:\n      tag_29\n      jump\t// in\n    tag_26:\n      stop\n        /* \"contracts/access/RoleAccess.sol\":450:532  function getOwner () public  view returns (address){... */\n    tag_7:\n      tag_30\n      tag_31\n      jump\t// in\n    tag_30:\n      mload(0x40)\n      tag_32\n      swap2\n      swap1\n      tag_33\n      jump\t// in\n    tag_32:\n      mload(0x40)\n      dup1\n      swap2\n      sub\n      swap1\n      return\n        /* \"contracts/manager/CategoryManager.sol\":272:315  mapping(uint => Category) public categories */\n    tag_8:\n      tag_34\n      0x04\n      dup1\n      calldatasize\n      sub\n      dup2\n      add\n      swap1\n      tag_35\n      swap2\n      swap1\n      tag_36\n      jump\t// in\n    tag_35:\n      tag_37\n      jump\t// in\n    tag_34:\n      mload(0x40)\n      tag_38\n      swap3\n      swap2\n      swap1\n      tag_39\n      jump\t// in\n    tag_38:\n      mload(0x40)\n      dup1\n      swap2\n      sub\n      swap1\n      return\n        /* \"contracts/manager/CategoryManager.sol\":1456:2000  function deleteCategory(uint categoryId) external override {... */\n    tag_9:\n      tag_40\n      0x04\n      dup1\n      calldatasize\n      sub\n      dup2\n      add\n      swap1\n      tag_41\n      swap2\n      swap1\n      tag_36\n      jump\t// in\n    tag_41:\n      tag_42\n      jump\t// in\n    tag_40:\n      stop\n        /* \"contracts/manager/CategoryManager.sol\":2008:2333  function getAllCategories() external view override returns (Category[] memory) {... */\n    tag_10:\n      tag_43\n      tag_44\n      jump\t// in\n    tag_43:\n      mload(0x40)\n      tag_45\n      swap2\n      swap1\n      tag_46\n      jump\t// in\n    tag_45:\n      mload(0x40)\n      dup1\n      swap2\n      sub\n      swap1\n      return\n        /* \"contracts/manager/CategoryManager.sol\":867:1087  function getCategory(uint categoryId) external view override returns (Category memory) {... */\n    tag_11:\n      tag_47\n      0x04\n      dup1\n      calldatasize\n      sub\n      dup2\n      add\n      swap1\n      tag_48\n      swap2\n      swap1\n      tag_36\n      jump\t// in\n    tag_48:\n      tag_49\n      jump\t// in\n    tag_47:\n      mload(0x40)\n      tag_50\n      swap2\n      swap1\n      tag_51\n      jump\t// in\n    tag_50:\n      mload(0x40)\n      dup1\n      swap2\n      sub\n      swap1\n      return\n        /* \"contracts/manager/CategoryManager.sol\":357:859  function createCategory(uint categoryId, string memory name) external override {... */\n    tag_12:\n      tag_52\n      0x04\n      dup1\n      calldatasize\n      sub\n      dup2\n      add\n      swap1\n      tag_53\n      swap2\n      swap1\n      tag_28\n      jump\t// in\n    tag_53:\n      tag_54\n      jump\t// in\n    tag_52:\n      stop\n        /* \"contracts/access/RoleAccess.sol\":696:784  function removeAdmin(address _admin) external {... */\n    tag_17:\n        /* \"contracts/access/RoleAccess.sol\":771:776  false */\n      0x00\n        /* \"contracts/access/RoleAccess.sol\":753:760  isAdmin */\n      0x01\n        /* \"contracts/access/RoleAccess.sol\":753:768  isAdmin[_admin] */\n      0x00\n        /* \"contracts/access/RoleAccess.sol\":761:767  _admin */\n      dup4\n        /* \"contracts/access/RoleAccess.sol\":753:768  isAdmin[_admin] */\n      0xffffffffffffffffffffffffffffffffffffffff\n      and\n      0xffffffffffffffffffffffffffffffffffffffff\n      and\n      dup2\n      mstore\n      0x20\n      add\n      swap1\n      dup2\n      mstore\n      0x20\n      add\n      0x00\n      keccak256\n      0x00\n        /* \"contracts/access/RoleAccess.sol\":753:776  isAdmin[_admin] = false */\n      0x0100\n      exp\n      dup2\n      sload\n      dup2\n      0xff\n      mul\n      not\n      and\n      swap1\n      dup4\n      iszero\n      iszero\n      mul\n      or\n      swap1\n      sstore\n      pop\n        /* \"contracts/access/RoleAccess.sol\":696:784  function removeAdmin(address _admin) external {... */\n      pop\n      jump\t// out\n        /* \"contracts/access/RoleAccess.sol\":107:146  mapping(address => bool) public isAdmin */\n    tag_20:\n      mstore(0x20, 0x01)\n      dup1\n      0x00\n      mstore\n      keccak256(0x00, 0x40)\n      0x00\n      swap2\n      pop\n      sload\n      swap1\n      0x0100\n      exp\n      swap1\n      div\n      0xff\n      and\n      dup2\n      jump\t// out\n        /* \"contracts/access/RoleAccess.sol\":538:688  function addAdmin(address _admin) external virtual  {... */\n    tag_25:\n        /* \"contracts/access/RoleAccess.sol\":676:680  true */\n      0x01\n        /* \"contracts/access/RoleAccess.sol\":658:665  isAdmin */\n      dup1\n        /* \"contracts/access/RoleAccess.sol\":658:673  isAdmin[_admin] */\n      0x00\n        /* \"contracts/access/RoleAccess.sol\":666:672  _admin */\n      dup4\n        /* \"contracts/access/RoleAccess.sol\":658:673  isAdmin[_admin] */\n      0xffffffffffffffffffffffffffffffffffffffff\n      and\n      0xffffffffffffffffffffffffffffffffffffffff\n      and\n      dup2\n      mstore\n      0x20\n      add\n      swap1\n      dup2\n      mstore\n      0x20\n      add\n      0x00\n      keccak256\n      0x00\n        /* \"contracts/access/RoleAccess.sol\":658:680  isAdmin[_admin] = true */\n      0x0100\n      exp\n      dup2\n      sload\n      dup2\n      0xff\n      mul\n      not\n      and\n      swap1\n      dup4\n      iszero\n      iszero\n      mul\n      or\n      swap1\n      sstore\n      pop\n        /* \"contracts/access/RoleAccess.sol\":538:688  function addAdmin(address _admin) external virtual  {... */\n      pop\n      jump\t// out\n        /* \"contracts/manager/CategoryManager.sol\":1095:1448  function updateCategory(uint categoryId, string memory newName) external override {... */\n    tag_29:\n        /* \"contracts/manager/CategoryManager.sol\":1220:1221  0 */\n      0x00\n        /* \"contracts/manager/CategoryManager.sol\":1202:1209  newName */\n      dup2\n        /* \"contracts/manager/CategoryManager.sol\":1196:1217  bytes(newName).length */\n      mload\n        /* \"contracts/manager/CategoryManager.sol\":1196:1221  bytes(newName).length > 0 */\n      gt\n        /* \"contracts/manager/CategoryManager.sol\":1188:1255  require(bytes(newName).length > 0, \"Category name cannot be empty\") */\n      tag_58\n      jumpi\n      mload(0x40)\n      0x08c379a000000000000000000000000000000000000000000000000000000000\n      dup2\n      mstore\n      0x04\n      add\n      tag_59\n      swap1\n      tag_60\n      jump\t// in\n    tag_59:\n      mload(0x40)\n      dup1\n      swap2\n      sub\n      swap1\n      revert\n    tag_58:\n        /* \"contracts/manager/CategoryManager.sol\":1311:1312  0 */\n      0x00\n        /* \"contracts/manager/CategoryManager.sol\":1274:1284  categories */\n      0x02\n        /* \"contracts/manager/CategoryManager.sol\":1274:1296  categories[categoryId] */\n      0x00\n        /* \"contracts/manager/CategoryManager.sol\":1285:1295  categoryId */\n      dup5\n        /* \"contracts/manager/CategoryManager.sol\":1274:1296  categories[categoryId] */\n      dup2\n      mstore\n      0x20\n      add\n      swap1\n      dup2\n      mstore\n      0x20\n      add\n      0x00\n      keccak256\n        /* \"contracts/manager/CategoryManager.sol\":1274:1307  categories[categoryId].categoryId */\n      0x00\n      add\n      sload\n        /* \"contracts/manager/CategoryManager.sol\":1274:1312  categories[categoryId].categoryId != 0 */\n      sub\n        /* \"contracts/manager/CategoryManager.sol\":1266:1340  require(categories[categoryId].categoryId != 0, \"Category does not exist\") */\n      tag_61\n      jumpi\n      mload(0x40)\n      0x08c379a000000000000000000000000000000000000000000000000000000000\n      dup2\n      mstore\n      0x04\n      add\n      tag_62\n      swap1\n      tag_63\n      jump\t// in\n    tag_62:\n      mload(0x40)\n      dup1\n      swap2\n      sub\n      swap1\n      revert\n    tag_61:\n        /* \"contracts/manager/CategoryManager.sol\":1381:1388  newName */\n      dup1\n        /* \"contracts/manager/CategoryManager.sol\":1351:1361  categories */\n      0x02\n        /* \"contracts/manager/CategoryManager.sol\":1351:1373  categories[categoryId] */\n      0x00\n        /* \"contracts/manager/CategoryManager.sol\":1362:1372  categoryId */\n      dup5\n        /* \"contracts/manager/CategoryManager.sol\":1351:1373  categories[categoryId] */\n      dup2\n      mstore\n      0x20\n      add\n      swap1\n      dup2\n      mstore\n      0x20\n      add\n      0x00\n      keccak256\n        /* \"contracts/manager/CategoryManager.sol\":1351:1378  categories[categoryId].name */\n      0x01\n      add\n        /* \"contracts/manager/CategoryManager.sol\":1351:1388  categories[categoryId].name = newName */\n      swap1\n      dup2\n      tag_64\n      swap2\n      swap1\n      tag_65\n      jump\t// in\n    tag_64:\n      pop\n        /* \"contracts/manager/CategoryManager.sol\":1404:1440  CategoryUpdated(categoryId, newName) */\n      0x5bdd46fc25129a7ae160f84298da28664e8970f8874a02f19537b0313d8f8dc7\n        /* \"contracts/manager/CategoryManager.sol\":1420:1430  categoryId */\n      dup3\n        /* \"contracts/manager/CategoryManager.sol\":1432:1439  newName */\n      dup3\n        /* \"contracts/manager/CategoryManager.sol\":1404:1440  CategoryUpdated(categoryId, newName) */\n      mload(0x40)\n      tag_66\n      swap3\n      swap2\n      swap1\n      tag_39\n      jump\t// in\n    tag_66:\n      mload(0x40)\n      dup1\n      swap2\n      sub\n      swap1\n      log1\n        /* \"contracts/manager/CategoryManager.sol\":1095:1448  function updateCategory(uint categoryId, string memory newName) external override {... */\n      pop\n      pop\n      jump\t// out\n        /* \"contracts/access/RoleAccess.sol\":450:532  function getOwner () public  view returns (address){... */\n    tag_31:\n        /* \"contracts/access/RoleAccess.sol\":493:500  address */\n      0x00\n        /* \"contracts/access/RoleAccess.sol\":519:524  owner */\n      0x00\n      0x00\n      swap1\n      sload\n      swap1\n      0x0100\n      exp\n      swap1\n      div\n      0xffffffffffffffffffffffffffffffffffffffff\n      and\n        /* \"contracts/access/RoleAccess.sol\":512:524  return owner */\n      swap1\n      pop\n        /* \"contracts/access/RoleAccess.sol\":450:532  function getOwner () public  view returns (address){... */\n      swap1\n      jump\t// out\n        /* \"contracts/manager/CategoryManager.sol\":272:315  mapping(uint => Category) public categories */\n    tag_37:\n      mstore(0x20, 0x02)\n      dup1\n      0x00\n      mstore\n      keccak256(0x00, 0x40)\n      0x00\n      swap2\n      pop\n      swap1\n      pop\n      dup1\n      0x00\n      add\n      sload\n      swap1\n      dup1\n      0x01\n      add\n      dup1\n      sload\n      tag_68\n      swap1\n      tag_69\n      jump\t// in\n    tag_68:\n      dup1\n      0x1f\n      add\n      0x20\n      dup1\n      swap2\n      div\n      mul\n      0x20\n      add\n      mload(0x40)\n      swap1\n      dup2\n      add\n      0x40\n      mstore\n      dup1\n      swap3\n      swap2\n      swap1\n      dup2\n      dup2\n      mstore\n      0x20\n      add\n      dup3\n      dup1\n      sload\n      tag_70\n      swap1\n      tag_69\n      jump\t// in\n    tag_70:\n      dup1\n      iszero\n      tag_71\n      jumpi\n      dup1\n      0x1f\n      lt\n      tag_72\n      jumpi\n      0x0100\n      dup1\n      dup4\n      sload\n      div\n      mul\n      dup4\n      mstore\n      swap2\n      0x20\n      add\n      swap2\n      jump(tag_71)\n    tag_72:\n      dup3\n      add\n      swap2\n      swap1\n      0x00\n      mstore\n      keccak256(0x00, 0x20)\n      swap1\n    tag_73:\n      dup2\n      sload\n      dup2\n      mstore\n      swap1\n      0x01\n      add\n      swap1\n      0x20\n      add\n      dup1\n      dup4\n      gt\n      tag_73\n      jumpi\n      dup3\n      swap1\n      sub\n      0x1f\n      and\n      dup3\n      add\n      swap2\n    tag_71:\n      pop\n      pop\n      pop\n      pop\n      pop\n      swap1\n      pop\n      dup3\n      jump\t// out\n        /* \"contracts/manager/CategoryManager.sol\":1456:2000  function deleteCategory(uint categoryId) external override {... */\n    tag_42:\n        /* \"contracts/manager/CategoryManager.sol\":1571:1572  0 */\n      0x00\n        /* \"contracts/manager/CategoryManager.sol\":1534:1544  categories */\n      0x02\n        /* \"contracts/manager/CategoryManager.sol\":1534:1556  categories[categoryId] */\n      0x00\n        /* \"contracts/manager/CategoryManager.sol\":1545:1555  categoryId */\n      dup4\n        /* \"contracts/manager/CategoryManager.sol\":1534:1556  categories[categoryId] */\n      dup2\n      mstore\n      0x20\n      add\n      swap1\n      dup2\n      mstore\n      0x20\n      add\n      0x00\n      keccak256\n        /* \"contracts/manager/CategoryManager.sol\":1534:1567  categories[categoryId].categoryId */\n      0x00\n      add\n      sload\n        /* \"contracts/manager/CategoryManager.sol\":1534:1572  categories[categoryId].categoryId != 0 */\n      sub\n        /* \"contracts/manager/CategoryManager.sol\":1526:1600  require(categories[categoryId].categoryId != 0, \"Category does not exist\") */\n      tag_75\n      jumpi\n      mload(0x40)\n      0x08c379a000000000000000000000000000000000000000000000000000000000\n      dup2\n      mstore\n      0x04\n      add\n      tag_76\n      swap1\n      tag_63\n      jump\t// in\n    tag_76:\n      mload(0x40)\n      dup1\n      swap2\n      sub\n      swap1\n      revert\n    tag_75:\n        /* \"contracts/manager/CategoryManager.sol\":1618:1628  categories */\n      0x02\n        /* \"contracts/manager/CategoryManager.sol\":1618:1640  categories[categoryId] */\n      0x00\n        /* \"contracts/manager/CategoryManager.sol\":1629:1639  categoryId */\n      dup3\n        /* \"contracts/manager/CategoryManager.sol\":1618:1640  categories[categoryId] */\n      dup2\n      mstore\n      0x20\n      add\n      swap1\n      dup2\n      mstore\n      0x20\n      add\n      0x00\n      keccak256\n      0x00\n        /* \"contracts/manager/CategoryManager.sol\":1611:1640  delete categories[categoryId] */\n      0x00\n      dup3\n      add\n      0x00\n      swap1\n      sstore\n      0x01\n      dup3\n      add\n      0x00\n      tag_77\n      swap2\n      swap1\n      tag_78\n      jump\t// in\n    tag_77:\n      pop\n      pop\n        /* \"contracts/manager/CategoryManager.sol\":1700:1706  uint i */\n      0x00\n        /* \"contracts/manager/CategoryManager.sol\":1709:1710  0 */\n      0x00\n        /* \"contracts/manager/CategoryManager.sol\":1700:1710  uint i = 0 */\n      swap1\n      pop\n        /* \"contracts/manager/CategoryManager.sol\":1695:1948  for (uint i = 0; i < categoryIds.length; i++) {... */\n    tag_79:\n        /* \"contracts/manager/CategoryManager.sol\":1716:1727  categoryIds */\n      0x03\n        /* \"contracts/manager/CategoryManager.sol\":1716:1734  categoryIds.length */\n      dup1\n      sload\n      swap1\n      pop\n        /* \"contracts/manager/CategoryManager.sol\":1712:1713  i */\n      dup2\n        /* \"contracts/manager/CategoryManager.sol\":1712:1734  i < categoryIds.length */\n      lt\n        /* \"contracts/manager/CategoryManager.sol\":1695:1948  for (uint i = 0; i < categoryIds.length; i++) {... */\n      iszero\n      tag_80\n      jumpi\n        /* \"contracts/manager/CategoryManager.sol\":1778:1788  categoryId */\n      dup2\n        /* \"contracts/manager/CategoryManager.sol\":1760:1771  categoryIds */\n      0x03\n        /* \"contracts/manager/CategoryManager.sol\":1772:1773  i */\n      dup3\n        /* \"contracts/manager/CategoryManager.sol\":1760:1774  categoryIds[i] */\n      dup2\n      sload\n      dup2\n      lt\n      tag_82\n      jumpi\n      tag_83\n      tag_84\n      jump\t// in\n    tag_83:\n    tag_82:\n      swap1\n      0x00\n      mstore\n      keccak256(0x00, 0x20)\n      add\n      sload\n        /* \"contracts/manager/CategoryManager.sol\":1760:1788  categoryIds[i] == categoryId */\n      sub\n        /* \"contracts/manager/CategoryManager.sol\":1756:1937  if (categoryIds[i] == categoryId) {... */\n      tag_86\n      jumpi\n        /* \"contracts/manager/CategoryManager.sol\":1826:1837  categoryIds */\n      0x03\n        /* \"contracts/manager/CategoryManager.sol\":1859:1860  1 */\n      0x01\n        /* \"contracts/manager/CategoryManager.sol\":1838:1849  categoryIds */\n      0x03\n        /* \"contracts/manager/CategoryManager.sol\":1838:1856  categoryIds.length */\n      dup1\n      sload\n      swap1\n      pop\n        /* \"contracts/manager/CategoryManager.sol\":1838:1860  categoryIds.length - 1 */\n      tag_87\n      swap2\n      swap1\n      tag_88\n      jump\t// in\n    tag_87:\n        /* \"contracts/manager/CategoryManager.sol\":1826:1861  categoryIds[categoryIds.length - 1] */\n      dup2\n      sload\n      dup2\n      lt\n      tag_89\n      jumpi\n      tag_90\n      tag_84\n      jump\t// in\n    tag_90:\n    tag_89:\n      swap1\n      0x00\n      mstore\n      keccak256(0x00, 0x20)\n      add\n      sload\n        /* \"contracts/manager/CategoryManager.sol\":1809:1820  categoryIds */\n      0x03\n        /* \"contracts/manager/CategoryManager.sol\":1821:1822  i */\n      dup3\n        /* \"contracts/manager/CategoryManager.sol\":1809:1823  categoryIds[i] */\n      dup2\n      sload\n      dup2\n      lt\n      tag_92\n      jumpi\n      tag_93\n      tag_84\n      jump\t// in\n    tag_93:\n    tag_92:\n      swap1\n      0x00\n      mstore\n      keccak256(0x00, 0x20)\n      add\n        /* \"contracts/manager/CategoryManager.sol\":1809:1861  categoryIds[i] = categoryIds[categoryIds.length - 1] */\n      dup2\n      swap1\n      sstore\n      pop\n        /* \"contracts/manager/CategoryManager.sol\":1880:1891  categoryIds */\n      0x03\n        /* \"contracts/manager/CategoryManager.sol\":1880:1897  categoryIds.pop() */\n      dup1\n      sload\n      dup1\n      tag_95\n      jumpi\n      tag_96\n      tag_97\n      jump\t// in\n    tag_96:\n    tag_95:\n      0x01\n      swap1\n      sub\n      dup2\n      dup2\n      swap1\n      0x00\n      mstore\n      keccak256(0x00, 0x20)\n      add\n      0x00\n      swap1\n      sstore\n      swap1\n      sstore\n        /* \"contracts/manager/CategoryManager.sol\":1916:1921  break */\n      jump(tag_80)\n        /* \"contracts/manager/CategoryManager.sol\":1756:1937  if (categoryIds[i] == categoryId) {... */\n    tag_86:\n        /* \"contracts/manager/CategoryManager.sol\":1736:1739  i++ */\n      dup1\n      dup1\n      0x01\n      add\n      swap2\n      pop\n      pop\n        /* \"contracts/manager/CategoryManager.sol\":1695:1948  for (uint i = 0; i < categoryIds.length; i++) {... */\n      jump(tag_79)\n    tag_80:\n      pop\n        /* \"contracts/manager/CategoryManager.sol\":1965:1992  CategoryDeleted(categoryId) */\n      0x510c8243d59e6c99aa1a4cf786d70d3e2e425109eb3870cc957ccb326a11ea97\n        /* \"contracts/manager/CategoryManager.sol\":1981:1991  categoryId */\n      dup2\n        /* \"contracts/manager/CategoryManager.sol\":1965:1992  CategoryDeleted(categoryId) */\n      mload(0x40)\n      tag_99\n      swap2\n      swap1\n      tag_100\n      jump\t// in\n    tag_99:\n      mload(0x40)\n      dup1\n      swap2\n      sub\n      swap1\n      log1\n        /* \"contracts/manager/CategoryManager.sol\":1456:2000  function deleteCategory(uint categoryId) external override {... */\n      pop\n      jump\t// out\n        /* \"contracts/manager/CategoryManager.sol\":2008:2333  function getAllCategories() external view override returns (Category[] memory) {... */\n    tag_44:\n        /* \"contracts/manager/CategoryManager.sol\":2068:2085  Category[] memory */\n      0x60\n        /* \"contracts/manager/CategoryManager.sol\":2098:2129  Category[] memory allCategories */\n      0x00\n        /* \"contracts/manager/CategoryManager.sol\":2147:2158  categoryIds */\n      0x03\n        /* \"contracts/manager/CategoryManager.sol\":2147:2165  categoryIds.length */\n      dup1\n      sload\n      swap1\n      pop\n        /* \"contracts/manager/CategoryManager.sol\":2132:2166  new Category[](categoryIds.length) */\n      0xffffffffffffffff\n      dup2\n      gt\n      iszero\n      tag_102\n      jumpi\n      tag_103\n      tag_104\n      jump\t// in\n    tag_103:\n    tag_102:\n      mload(0x40)\n      swap1\n      dup1\n      dup3\n      mstore\n      dup1\n      0x20\n      mul\n      0x20\n      add\n      dup3\n      add\n      0x40\n      mstore\n      dup1\n      iszero\n      tag_105\n      jumpi\n      dup2\n      0x20\n      add\n    tag_106:\n      tag_107\n      tag_108\n      jump\t// in\n    tag_107:\n      dup2\n      mstore\n      0x20\n      add\n      swap1\n      0x01\n      swap1\n      sub\n      swap1\n      dup2\n      tag_106\n      jumpi\n      swap1\n      pop\n    tag_105:\n      pop\n        /* \"contracts/manager/CategoryManager.sol\":2098:2166  Category[] memory allCategories = new Category[](categoryIds.length) */\n      swap1\n      pop\n        /* \"contracts/manager/CategoryManager.sol\":2182:2188  uint i */\n      0x00\n        /* \"contracts/manager/CategoryManager.sol\":2191:2192  0 */\n      0x00\n        /* \"contracts/manager/CategoryManager.sol\":2182:2192  uint i = 0 */\n      swap1\n      pop\n        /* \"contracts/manager/CategoryManager.sol\":2177:2295  for (uint i = 0; i < categoryIds.length; i++) {... */\n    tag_109:\n        /* \"contracts/manager/CategoryManager.sol\":2198:2209  categoryIds */\n      0x03\n        /* \"contracts/manager/CategoryManager.sol\":2198:2216  categoryIds.length */\n      dup1\n      sload\n      swap1\n      pop\n        /* \"contracts/manager/CategoryManager.sol\":2194:2195  i */\n      dup2\n        /* \"contracts/manager/CategoryManager.sol\":2194:2216  i < categoryIds.length */\n      lt\n        /* \"contracts/manager/CategoryManager.sol\":2177:2295  for (uint i = 0; i < categoryIds.length; i++) {... */\n      iszero\n      tag_110\n      jumpi\n        /* \"contracts/manager/CategoryManager.sol\":2257:2267  categories */\n      0x02\n        /* \"contracts/manager/CategoryManager.sol\":2257:2283  categories[categoryIds[i]] */\n      0x00\n        /* \"contracts/manager/CategoryManager.sol\":2268:2279  categoryIds */\n      0x03\n        /* \"contracts/manager/CategoryManager.sol\":2280:2281  i */\n      dup4\n        /* \"contracts/manager/CategoryManager.sol\":2268:2282  categoryIds[i] */\n      dup2\n      sload\n      dup2\n      lt\n      tag_112\n      jumpi\n      tag_113\n      tag_84\n      jump\t// in\n    tag_113:\n    tag_112:\n      swap1\n      0x00\n      mstore\n      keccak256(0x00, 0x20)\n      add\n      sload\n        /* \"contracts/manager/CategoryManager.sol\":2257:2283  categories[categoryIds[i]] */\n      dup2\n      mstore\n      0x20\n      add\n      swap1\n      dup2\n      mstore\n      0x20\n      add\n      0x00\n      keccak256\n        /* \"contracts/manager/CategoryManager.sol\":2238:2283  allCategories[i] = categories[categoryIds[i]] */\n      mload(0x40)\n      dup1\n      0x40\n      add\n      0x40\n      mstore\n      swap1\n      dup2\n      0x00\n      dup3\n      add\n      sload\n      dup2\n      mstore\n      0x20\n      add\n      0x01\n      dup3\n      add\n      dup1\n      sload\n      tag_115\n      swap1\n      tag_69\n      jump\t// in\n    tag_115:\n      dup1\n      0x1f\n      add\n      0x20\n      dup1\n      swap2\n      div\n      mul\n      0x20\n      add\n      mload(0x40)\n      swap1\n      dup2\n      add\n      0x40\n      mstore\n      dup1\n      swap3\n      swap2\n      swap1\n      dup2\n      dup2\n      mstore\n      0x20\n      add\n      dup3\n      dup1\n      sload\n      tag_116\n      swap1\n      tag_69\n      jump\t// in\n    tag_116:\n      dup1\n      iszero\n      tag_117\n      jumpi\n      dup1\n      0x1f\n      lt\n      tag_118\n      jumpi\n      0x0100\n      dup1\n      dup4\n      sload\n      div\n      mul\n      dup4\n      mstore\n      swap2\n      0x20\n      add\n      swap2\n      jump(tag_117)\n    tag_118:\n      dup3\n      add\n      swap2\n      swap1\n      0x00\n      mstore\n      keccak256(0x00, 0x20)\n      swap1\n    tag_119:\n      dup2\n      sload\n      dup2\n      mstore\n      swap1\n      0x01\n      add\n      swap1\n      0x20\n      add\n      dup1\n      dup4\n      gt\n      tag_119\n      jumpi\n      dup3\n      swap1\n      sub\n      0x1f\n      and\n      dup3\n      add\n      swap2\n    tag_117:\n      pop\n      pop\n      pop\n      pop\n      pop\n      dup2\n      mstore\n      pop\n      pop\n        /* \"contracts/manager/CategoryManager.sol\":2238:2251  allCategories */\n      dup3\n        /* \"contracts/manager/CategoryManager.sol\":2252:2253  i */\n      dup3\n        /* \"contracts/manager/CategoryManager.sol\":2238:2254  allCategories[i] */\n      dup2\n      mload\n      dup2\n      lt\n      tag_120\n      jumpi\n      tag_121\n      tag_84\n      jump\t// in\n    tag_121:\n    tag_120:\n      0x20\n      mul\n      0x20\n      add\n      add\n        /* \"contracts/manager/CategoryManager.sol\":2238:2283  allCategories[i] = categories[categoryIds[i]] */\n      dup2\n      swap1\n      mstore\n      pop\n        /* \"contracts/manager/CategoryManager.sol\":2218:2221  i++ */\n      dup1\n      dup1\n      0x01\n      add\n      swap2\n      pop\n      pop\n        /* \"contracts/manager/CategoryManager.sol\":2177:2295  for (uint i = 0; i < categoryIds.length; i++) {... */\n      jump(tag_109)\n    tag_110:\n      pop\n        /* \"contracts/manager/CategoryManager.sol\":2312:2325  allCategories */\n      dup1\n        /* \"contracts/manager/CategoryManager.sol\":2305:2325  return allCategories */\n      swap2\n      pop\n      pop\n        /* \"contracts/manager/CategoryManager.sol\":2008:2333  function getAllCategories() external view override returns (Category[] memory) {... */\n      swap1\n      jump\t// out\n        /* \"contracts/manager/CategoryManager.sol\":867:1087  function getCategory(uint categoryId) external view override returns (Category memory) {... */\n    tag_49:\n        /* \"contracts/manager/CategoryManager.sol\":937:952  Category memory */\n      tag_122\n      tag_108\n      jump\t// in\n    tag_122:\n        /* \"contracts/manager/CategoryManager.sol\":1010:1011  0 */\n      0x00\n        /* \"contracts/manager/CategoryManager.sol\":973:983  categories */\n      0x02\n        /* \"contracts/manager/CategoryManager.sol\":973:995  categories[categoryId] */\n      0x00\n        /* \"contracts/manager/CategoryManager.sol\":984:994  categoryId */\n      dup5\n        /* \"contracts/manager/CategoryManager.sol\":973:995  categories[categoryId] */\n      dup2\n      mstore\n      0x20\n      add\n      swap1\n      dup2\n      mstore\n      0x20\n      add\n      0x00\n      keccak256\n        /* \"contracts/manager/CategoryManager.sol\":973:1006  categories[categoryId].categoryId */\n      0x00\n      add\n      sload\n        /* \"contracts/manager/CategoryManager.sol\":973:1011  categories[categoryId].categoryId != 0 */\n      sub\n        /* \"contracts/manager/CategoryManager.sol\":965:1039  require(categories[categoryId].categoryId != 0, \"Category does not exist\") */\n      tag_124\n      jumpi\n      mload(0x40)\n      0x08c379a000000000000000000000000000000000000000000000000000000000\n      dup2\n      mstore\n      0x04\n      add\n      tag_125\n      swap1\n      tag_63\n      jump\t// in\n    tag_125:\n      mload(0x40)\n      dup1\n      swap2\n      sub\n      swap1\n      revert\n    tag_124:\n        /* \"contracts/manager/CategoryManager.sol\":1057:1067  categories */\n      0x02\n        /* \"contracts/manager/CategoryManager.sol\":1057:1079  categories[categoryId] */\n      0x00\n        /* \"contracts/manager/CategoryManager.sol\":1068:1078  categoryId */\n      dup4\n        /* \"contracts/manager/CategoryManager.sol\":1057:1079  categories[categoryId] */\n      dup2\n      mstore\n      0x20\n      add\n      swap1\n      dup2\n      mstore\n      0x20\n      add\n      0x00\n      keccak256\n        /* \"contracts/manager/CategoryManager.sol\":1050:1079  return categories[categoryId] */\n      mload(0x40)\n      dup1\n      0x40\n      add\n      0x40\n      mstore\n      swap1\n      dup2\n      0x00\n      dup3\n      add\n      sload\n      dup2\n      mstore\n      0x20\n      add\n      0x01\n      dup3\n      add\n      dup1\n      sload\n      tag_126\n      swap1\n      tag_69\n      jump\t// in\n    tag_126:\n      dup1\n      0x1f\n      add\n      0x20\n      dup1\n      swap2\n      div\n      mul\n      0x20\n      add\n      mload(0x40)\n      swap1\n      dup2\n      add\n      0x40\n      mstore\n      dup1\n      swap3\n      swap2\n      swap1\n      dup2\n      dup2\n      mstore\n      0x20\n      add\n      dup3\n      dup1\n      sload\n      tag_127\n      swap1\n      tag_69\n      jump\t// in\n    tag_127:\n      dup1\n      iszero\n      tag_128\n      jumpi\n      dup1\n      0x1f\n      lt\n      tag_129\n      jumpi\n      0x0100\n      dup1\n      dup4\n      sload\n      div\n      mul\n      dup4\n      mstore\n      swap2\n      0x20\n      add\n      swap2\n      jump(tag_128)\n    tag_129:\n      dup3\n      add\n      swap2\n      swap1\n      0x00\n      mstore\n      keccak256(0x00, 0x20)\n      swap1\n    tag_130:\n      dup2\n      sload\n      dup2\n      mstore\n      swap1\n      0x01\n      add\n      swap1\n      0x20\n      add\n      dup1\n      dup4\n      gt\n      tag_130\n      jumpi\n      dup3\n      swap1\n      sub\n      0x1f\n      and\n      dup3\n      add\n      swap2\n    tag_128:\n      pop\n      pop\n      pop\n      pop\n      pop\n      dup2\n      mstore\n      pop\n      pop\n      swap1\n      pop\n        /* \"contracts/manager/CategoryManager.sol\":867:1087  function getCategory(uint categoryId) external view override returns (Category memory) {... */\n      swap2\n      swap1\n      pop\n      jump\t// out\n        /* \"contracts/manager/CategoryManager.sol\":357:859  function createCategory(uint categoryId, string memory name) external override {... */\n    tag_54:\n        /* \"contracts/manager/CategoryManager.sol\":476:477  0 */\n      0x00\n        /* \"contracts/manager/CategoryManager.sol\":461:465  name */\n      dup2\n        /* \"contracts/manager/CategoryManager.sol\":455:473  bytes(name).length */\n      mload\n        /* \"contracts/manager/CategoryManager.sol\":455:477  bytes(name).length > 0 */\n      gt\n        /* \"contracts/manager/CategoryManager.sol\":447:511  require(bytes(name).length > 0, \"Category name cannot be empty\") */\n      tag_132\n      jumpi\n      mload(0x40)\n      0x08c379a000000000000000000000000000000000000000000000000000000000\n      dup2\n      mstore\n      0x04\n      add\n      tag_133\n      swap1\n      tag_60\n      jump\t// in\n    tag_133:\n      mload(0x40)\n      dup1\n      swap2\n      sub\n      swap1\n      revert\n    tag_132:\n        /* \"contracts/manager/CategoryManager.sol\":567:568  0 */\n      0x00\n        /* \"contracts/manager/CategoryManager.sol\":530:540  categories */\n      0x02\n        /* \"contracts/manager/CategoryManager.sol\":530:552  categories[categoryId] */\n      0x00\n        /* \"contracts/manager/CategoryManager.sol\":541:551  categoryId */\n      dup5\n        /* \"contracts/manager/CategoryManager.sol\":530:552  categories[categoryId] */\n      dup2\n      mstore\n      0x20\n      add\n      swap1\n      dup2\n      mstore\n      0x20\n      add\n      0x00\n      keccak256\n        /* \"contracts/manager/CategoryManager.sol\":530:563  categories[categoryId].categoryId */\n      0x00\n      add\n      sload\n        /* \"contracts/manager/CategoryManager.sol\":530:568  categories[categoryId].categoryId == 0 */\n      eq\n        /* \"contracts/manager/CategoryManager.sol\":522:599  require(categories[categoryId].categoryId == 0, \"Category ID already exists\") */\n      tag_134\n      jumpi\n      mload(0x40)\n      0x08c379a000000000000000000000000000000000000000000000000000000000\n      dup2\n      mstore\n      0x04\n      add\n      tag_135\n      swap1\n      tag_136\n      jump\t// in\n    tag_135:\n      mload(0x40)\n      dup1\n      swap2\n      sub\n      swap1\n      revert\n    tag_134:\n        /* \"contracts/manager/CategoryManager.sol\":640:667  Category memory newCategory */\n      0x00\n        /* \"contracts/manager/CategoryManager.sol\":670:716  Category({categoryId: categoryId, name: name}) */\n      mload(0x40)\n      dup1\n      0x40\n      add\n      0x40\n      mstore\n      dup1\n        /* \"contracts/manager/CategoryManager.sol\":692:702  categoryId */\n      dup5\n        /* \"contracts/manager/CategoryManager.sol\":670:716  Category({categoryId: categoryId, name: name}) */\n      dup2\n      mstore\n      0x20\n      add\n        /* \"contracts/manager/CategoryManager.sol\":710:714  name */\n      dup4\n        /* \"contracts/manager/CategoryManager.sol\":670:716  Category({categoryId: categoryId, name: name}) */\n      dup2\n      mstore\n      pop\n        /* \"contracts/manager/CategoryManager.sol\":640:716  Category memory newCategory = Category({categoryId: categoryId, name: name}) */\n      swap1\n      pop\n        /* \"contracts/manager/CategoryManager.sol\":752:763  newCategory */\n      dup1\n        /* \"contracts/manager/CategoryManager.sol\":727:737  categories */\n      0x02\n        /* \"contracts/manager/CategoryManager.sol\":727:749  categories[categoryId] */\n      0x00\n        /* \"contracts/manager/CategoryManager.sol\":738:748  categoryId */\n      dup6\n        /* \"contracts/manager/CategoryManager.sol\":727:749  categories[categoryId] */\n      dup2\n      mstore\n      0x20\n      add\n      swap1\n      dup2\n      mstore\n      0x20\n      add\n      0x00\n      keccak256\n        /* \"contracts/manager/CategoryManager.sol\":727:763  categories[categoryId] = newCategory */\n      0x00\n      dup3\n      add\n      mload\n      dup2\n      0x00\n      add\n      sstore\n      0x20\n      dup3\n      add\n      mload\n      dup2\n      0x01\n      add\n      swap1\n      dup2\n      tag_137\n      swap2\n      swap1\n      tag_65\n      jump\t// in\n    tag_137:\n      pop\n      swap1\n      pop\n      pop\n        /* \"contracts/manager/CategoryManager.sol\":774:785  categoryIds */\n      0x03\n        /* \"contracts/manager/CategoryManager.sol\":791:801  categoryId */\n      dup4\n        /* \"contracts/manager/CategoryManager.sol\":774:802  categoryIds.push(categoryId) */\n      swap1\n      dup1\n      0x01\n      dup2\n      sload\n      add\n      dup1\n      dup3\n      sstore\n      dup1\n      swap2\n      pop\n      pop\n      0x01\n      swap1\n      sub\n      swap1\n      0x00\n      mstore\n      keccak256(0x00, 0x20)\n      add\n      0x00\n      swap1\n      swap2\n      swap1\n      swap2\n      swap1\n      swap2\n      pop\n      sstore\n        /* \"contracts/manager/CategoryManager.sol\":818:851  CategoryCreated(categoryId, name) */\n      0x11c167cc9b439f0ad8bec5588159f1b06b813bc38d50c867a41b23b077be2c1a\n        /* \"contracts/manager/CategoryManager.sol\":834:844  categoryId */\n      dup4\n        /* \"contracts/manager/CategoryManager.sol\":846:850  name */\n      dup4\n        /* \"contracts/manager/CategoryManager.sol\":818:851  CategoryCreated(categoryId, name) */\n      mload(0x40)\n      tag_139\n      swap3\n      swap2\n      swap1\n      tag_39\n      jump\t// in\n    tag_139:\n      mload(0x40)\n      dup1\n      swap2\n      sub\n      swap1\n      log1\n        /* \"contracts/manager/CategoryManager.sol\":436:859  {... */\n      pop\n        /* \"contracts/manager/CategoryManager.sol\":357:859  function createCategory(uint categoryId, string memory name) external override {... */\n      pop\n      pop\n      jump\t// out\n    tag_78:\n      pop\n      dup1\n      sload\n      tag_140\n      swap1\n      tag_69\n      jump\t// in\n    tag_140:\n      0x00\n      dup3\n      sstore\n      dup1\n      0x1f\n      lt\n      tag_142\n      jumpi\n      pop\n      jump(tag_141)\n    tag_142:\n      0x1f\n      add\n      0x20\n      swap1\n      div\n      swap1\n      0x00\n      mstore\n      keccak256(0x00, 0x20)\n      swap1\n      dup2\n      add\n      swap1\n      tag_143\n      swap2\n      swap1\n      tag_144\n      jump\t// in\n    tag_143:\n    tag_141:\n      pop\n      jump\t// out\n    tag_108:\n      mload(0x40)\n      dup1\n      0x40\n      add\n      0x40\n      mstore\n      dup1\n      0x00\n      dup2\n      mstore\n      0x20\n      add\n      0x60\n      dup2\n      mstore\n      pop\n      swap1\n      jump\t// out\n    tag_144:\n    tag_145:\n      dup1\n      dup3\n      gt\n      iszero\n      tag_146\n      jumpi\n      0x00\n      dup2\n      0x00\n      swap1\n      sstore\n      pop\n      0x01\n      add\n      jump(tag_145)\n    tag_146:\n      pop\n      swap1\n      jump\t// out\n        /* \"#utility.yul\":7:82   */\n    tag_147:\n        /* \"#utility.yul\":40:46   */\n      0x00\n        /* \"#utility.yul\":73:75   */\n      0x40\n        /* \"#utility.yul\":67:76   */\n      mload\n        /* \"#utility.yul\":57:76   */\n      swap1\n      pop\n        /* \"#utility.yul\":7:82   */\n      swap1\n      jump\t// out\n        /* \"#utility.yul\":88:205   */\n    tag_148:\n        /* \"#utility.yul\":197:198   */\n      0x00\n        /* \"#utility.yul\":194:195   */\n      0x00\n        /* \"#utility.yul\":187:199   */\n      revert\n        /* \"#utility.yul\":211:328   */\n    tag_149:\n        /* \"#utility.yul\":320:321   */\n      0x00\n        /* \"#utility.yul\":317:318   */\n      0x00\n        /* \"#utility.yul\":310:322   */\n      revert\n        /* \"#utility.yul\":334:460   */\n    tag_150:\n        /* \"#utility.yul\":371:378   */\n      0x00\n        /* \"#utility.yul\":411:453   */\n      0xffffffffffffffffffffffffffffffffffffffff\n        /* \"#utility.yul\":404:409   */\n      dup3\n        /* \"#utility.yul\":400:454   */\n      and\n        /* \"#utility.yul\":389:454   */\n      swap1\n      pop\n        /* \"#utility.yul\":334:460   */\n      swap2\n      swap1\n      pop\n      jump\t// out\n        /* \"#utility.yul\":466:562   */\n    tag_151:\n        /* \"#utility.yul\":503:510   */\n      0x00\n        /* \"#utility.yul\":532:556   */\n      tag_214\n        /* \"#utility.yul\":550:555   */\n      dup3\n        /* \"#utility.yul\":532:556   */\n      tag_150\n      jump\t// in\n    tag_214:\n        /* \"#utility.yul\":521:556   */\n      swap1\n      pop\n        /* \"#utility.yul\":466:562   */\n      swap2\n      swap1\n      pop\n      jump\t// out\n        /* \"#utility.yul\":568:690   */\n    tag_152:\n        /* \"#utility.yul\":641:665   */\n      tag_216\n        /* \"#utility.yul\":659:664   */\n      dup2\n        /* \"#utility.yul\":641:665   */\n      tag_151\n      jump\t// in\n    tag_216:\n        /* \"#utility.yul\":634:639   */\n      dup2\n        /* \"#utility.yul\":631:666   */\n      eq\n        /* \"#utility.yul\":621:684   */\n      tag_217\n      jumpi\n        /* \"#utility.yul\":680:681   */\n      0x00\n        /* \"#utility.yul\":677:678   */\n      0x00\n        /* \"#utility.yul\":670:682   */\n      revert\n        /* \"#utility.yul\":621:684   */\n    tag_217:\n        /* \"#utility.yul\":568:690   */\n      pop\n      jump\t// out\n        /* \"#utility.yul\":696:835   */\n    tag_153:\n        /* \"#utility.yul\":742:747   */\n      0x00\n        /* \"#utility.yul\":780:786   */\n      dup2\n        /* \"#utility.yul\":767:787   */\n      calldataload\n        /* \"#utility.yul\":758:787   */\n      swap1\n      pop\n        /* \"#utility.yul\":796:829   */\n      tag_219\n        /* \"#utility.yul\":823:828   */\n      dup2\n        /* \"#utility.yul\":796:829   */\n      tag_152\n      jump\t// in\n    tag_219:\n        /* \"#utility.yul\":696:835   */\n      swap3\n      swap2\n      pop\n      pop\n      jump\t// out\n        /* \"#utility.yul\":841:1170   */\n    tag_16:\n        /* \"#utility.yul\":900:906   */\n      0x00\n        /* \"#utility.yul\":949:951   */\n      0x20\n        /* \"#utility.yul\":937:946   */\n      dup3\n        /* \"#utility.yul\":928:935   */\n      dup5\n        /* \"#utility.yul\":924:947   */\n      sub\n        /* \"#utility.yul\":920:952   */\n      slt\n        /* \"#utility.yul\":917:1036   */\n      iszero\n      tag_221\n      jumpi\n        /* \"#utility.yul\":955:1034   */\n      tag_222\n      tag_148\n      jump\t// in\n    tag_222:\n        /* \"#utility.yul\":917:1036   */\n    tag_221:\n        /* \"#utility.yul\":1075:1076   */\n      0x00\n        /* \"#utility.yul\":1100:1153   */\n      tag_223\n        /* \"#utility.yul\":1145:1152   */\n      dup5\n        /* \"#utility.yul\":1136:1142   */\n      dup3\n        /* \"#utility.yul\":1125:1134   */\n      dup6\n        /* \"#utility.yul\":1121:1143   */\n      add\n        /* \"#utility.yul\":1100:1153   */\n      tag_153\n      jump\t// in\n    tag_223:\n        /* \"#utility.yul\":1090:1153   */\n      swap2\n      pop\n        /* \"#utility.yul\":1046:1163   */\n      pop\n        /* \"#utility.yul\":841:1170   */\n      swap3\n      swap2\n      pop\n      pop\n      jump\t// out\n        /* \"#utility.yul\":1176:1266   */\n    tag_154:\n        /* \"#utility.yul\":1210:1217   */\n      0x00\n        /* \"#utility.yul\":1253:1258   */\n      dup2\n        /* \"#utility.yul\":1246:1259   */\n      iszero\n        /* \"#utility.yul\":1239:1260   */\n      iszero\n        /* \"#utility.yul\":1228:1260   */\n      swap1\n      pop\n        /* \"#utility.yul\":1176:1266   */\n      swap2\n      swap1\n      pop\n      jump\t// out\n        /* \"#utility.yul\":1272:1381   */\n    tag_155:\n        /* \"#utility.yul\":1353:1374   */\n      tag_226\n        /* \"#utility.yul\":1368:1373   */\n      dup2\n        /* \"#utility.yul\":1353:1374   */\n      tag_154\n      jump\t// in\n    tag_226:\n        /* \"#utility.yul\":1348:1351   */\n      dup3\n        /* \"#utility.yul\":1341:1375   */\n      mstore\n        /* \"#utility.yul\":1272:1381   */\n      pop\n      pop\n      jump\t// out\n        /* \"#utility.yul\":1387:1597   */\n    tag_22:\n        /* \"#utility.yul\":1474:1478   */\n      0x00\n        /* \"#utility.yul\":1512:1514   */\n      0x20\n        /* \"#utility.yul\":1501:1510   */\n      dup3\n        /* \"#utility.yul\":1497:1515   */\n      add\n        /* \"#utility.yul\":1489:1515   */\n      swap1\n      pop\n        /* \"#utility.yul\":1525:1590   */\n      tag_228\n        /* \"#utility.yul\":1587:1588   */\n      0x00\n        /* \"#utility.yul\":1576:1585   */\n      dup4\n        /* \"#utility.yul\":1572:1589   */\n      add\n        /* \"#utility.yul\":1563:1569   */\n      dup5\n        /* \"#utility.yul\":1525:1590   */\n      tag_155\n      jump\t// in\n    tag_228:\n        /* \"#utility.yul\":1387:1597   */\n      swap3\n      swap2\n      pop\n      pop\n      jump\t// out\n        /* \"#utility.yul\":1603:1680   */\n    tag_156:\n        /* \"#utility.yul\":1640:1647   */\n      0x00\n        /* \"#utility.yul\":1669:1674   */\n      dup2\n        /* \"#utility.yul\":1658:1674   */\n      swap1\n      pop\n        /* \"#utility.yul\":1603:1680   */\n      swap2\n      swap1\n      pop\n      jump\t// out\n        /* \"#utility.yul\":1686:1808   */\n    tag_157:\n        /* \"#utility.yul\":1759:1783   */\n      tag_231\n        /* \"#utility.yul\":1777:1782   */\n      dup2\n        /* \"#utility.yul\":1759:1783   */\n      tag_156\n      jump\t// in\n    tag_231:\n        /* \"#utility.yul\":1752:1757   */\n      dup2\n        /* \"#utility.yul\":1749:1784   */\n      eq\n        /* \"#utility.yul\":1739:1802   */\n      tag_232\n      jumpi\n        /* \"#utility.yul\":1798:1799   */\n      0x00\n        /* \"#utility.yul\":1795:1796   */\n      0x00\n        /* \"#utility.yul\":1788:1800   */\n      revert\n        /* \"#utility.yul\":1739:1802   */\n    tag_232:\n        /* \"#utility.yul\":1686:1808   */\n      pop\n      jump\t// out\n        /* \"#utility.yul\":1814:1953   */\n    tag_158:\n        /* \"#utility.yul\":1860:1865   */\n      0x00\n        /* \"#utility.yul\":1898:1904   */\n      dup2\n        /* \"#utility.yul\":1885:1905   */\n      calldataload\n        /* \"#utility.yul\":1876:1905   */\n      swap1\n      pop\n        /* \"#utility.yul\":1914:1947   */\n      tag_234\n        /* \"#utility.yul\":1941:1946   */\n      dup2\n        /* \"#utility.yul\":1914:1947   */\n      tag_157\n      jump\t// in\n    tag_234:\n        /* \"#utility.yul\":1814:1953   */\n      swap3\n      swap2\n      pop\n      pop\n      jump\t// out\n        /* \"#utility.yul\":1959:2076   */\n    tag_159:\n        /* \"#utility.yul\":2068:2069   */\n      0x00\n        /* \"#utility.yul\":2065:2066   */\n      0x00\n        /* \"#utility.yul\":2058:2070   */\n      revert\n        /* \"#utility.yul\":2082:2199   */\n    tag_160:\n        /* \"#utility.yul\":2191:2192   */\n      0x00\n        /* \"#utility.yul\":2188:2189   */\n      0x00\n        /* \"#utility.yul\":2181:2193   */\n      revert\n        /* \"#utility.yul\":2205:2307   */\n    tag_161:\n        /* \"#utility.yul\":2246:2252   */\n      0x00\n        /* \"#utility.yul\":2297:2299   */\n      0x1f\n        /* \"#utility.yul\":2293:2300   */\n      not\n        /* \"#utility.yul\":2288:2290   */\n      0x1f\n        /* \"#utility.yul\":2281:2286   */\n      dup4\n        /* \"#utility.yul\":2277:2291   */\n      add\n        /* \"#utility.yul\":2273:2301   */\n      and\n        /* \"#utility.yul\":2263:2301   */\n      swap1\n      pop\n        /* \"#utility.yul\":2205:2307   */\n      swap2\n      swap1\n      pop\n      jump\t// out\n        /* \"#utility.yul\":2313:2493   */\n    tag_104:\n        /* \"#utility.yul\":2361:2438   */\n      0x4e487b7100000000000000000000000000000000000000000000000000000000\n        /* \"#utility.yul\":2358:2359   */\n      0x00\n        /* \"#utility.yul\":2351:2439   */\n      mstore\n        /* \"#utility.yul\":2458:2462   */\n      0x41\n        /* \"#utility.yul\":2455:2456   */\n      0x04\n        /* \"#utility.yul\":2448:2463   */\n      mstore\n        /* \"#utility.yul\":2482:2486   */\n      0x24\n        /* \"#utility.yul\":2479:2480   */\n      0x00\n        /* \"#utility.yul\":2472:2487   */\n      revert\n        /* \"#utility.yul\":2499:2780   */\n    tag_162:\n        /* \"#utility.yul\":2582:2609   */\n      tag_240\n        /* \"#utility.yul\":2604:2608   */\n      dup3\n        /* \"#utility.yul\":2582:2609   */\n      tag_161\n      jump\t// in\n    tag_240:\n        /* \"#utility.yul\":2574:2580   */\n      dup2\n        /* \"#utility.yul\":2570:2610   */\n      add\n        /* \"#utility.yul\":2712:2718   */\n      dup2\n        /* \"#utility.yul\":2700:2710   */\n      dup2\n        /* \"#utility.yul\":2697:2719   */\n      lt\n        /* \"#utility.yul\":2676:2694   */\n      0xffffffffffffffff\n        /* \"#utility.yul\":2664:2674   */\n      dup3\n        /* \"#utility.yul\":2661:2695   */\n      gt\n        /* \"#utility.yul\":2658:2720   */\n      or\n        /* \"#utility.yul\":2655:2743   */\n      iszero\n      tag_241\n      jumpi\n        /* \"#utility.yul\":2723:2741   */\n      tag_242\n      tag_104\n      jump\t// in\n    tag_242:\n        /* \"#utility.yul\":2655:2743   */\n    tag_241:\n        /* \"#utility.yul\":2763:2773   */\n      dup1\n        /* \"#utility.yul\":2759:2761   */\n      0x40\n        /* \"#utility.yul\":2752:2774   */\n      mstore\n        /* \"#utility.yul\":2542:2780   */\n      pop\n        /* \"#utility.yul\":2499:2780   */\n      pop\n      pop\n      jump\t// out\n        /* \"#utility.yul\":2786:2915   */\n    tag_163:\n        /* \"#utility.yul\":2820:2826   */\n      0x00\n        /* \"#utility.yul\":2847:2867   */\n      tag_244\n      tag_147\n      jump\t// in\n    tag_244:\n        /* \"#utility.yul\":2837:2867   */\n      swap1\n      pop\n        /* \"#utility.yul\":2876:2909   */\n      tag_245\n        /* \"#utility.yul\":2904:2908   */\n      dup3\n        /* \"#utility.yul\":2896:2902   */\n      dup3\n        /* \"#utility.yul\":2876:2909   */\n      tag_162\n      jump\t// in\n    tag_245:\n        /* \"#utility.yul\":2786:2915   */\n      swap2\n      swap1\n      pop\n      jump\t// out\n        /* \"#utility.yul\":2921:3229   */\n    tag_164:\n        /* \"#utility.yul\":2983:2987   */\n      0x00\n        /* \"#utility.yul\":3073:3091   */\n      0xffffffffffffffff\n        /* \"#utility.yul\":3065:3071   */\n      dup3\n        /* \"#utility.yul\":3062:3092   */\n      gt\n        /* \"#utility.yul\":3059:3115   */\n      iszero\n      tag_247\n      jumpi\n        /* \"#utility.yul\":3095:3113   */\n      tag_248\n      tag_104\n      jump\t// in\n    tag_248:\n        /* \"#utility.yul\":3059:3115   */\n    tag_247:\n        /* \"#utility.yul\":3133:3162   */\n      tag_249\n        /* \"#utility.yul\":3155:3161   */\n      dup3\n        /* \"#utility.yul\":3133:3162   */\n      tag_161\n      jump\t// in\n    tag_249:\n        /* \"#utility.yul\":3125:3162   */\n      swap1\n      pop\n        /* \"#utility.yul\":3217:3221   */\n      0x20\n        /* \"#utility.yul\":3211:3215   */\n      dup2\n        /* \"#utility.yul\":3207:3222   */\n      add\n        /* \"#utility.yul\":3199:3222   */\n      swap1\n      pop\n        /* \"#utility.yul\":2921:3229   */\n      swap2\n      swap1\n      pop\n      jump\t// out\n        /* \"#utility.yul\":3235:3383   */\n    tag_165:\n        /* \"#utility.yul\":3333:3339   */\n      dup3\n        /* \"#utility.yul\":3328:3331   */\n      dup2\n        /* \"#utility.yul\":3323:3326   */\n      dup4\n        /* \"#utility.yul\":3310:3340   */\n      calldatacopy\n        /* \"#utility.yul\":3374:3375   */\n      0x00\n        /* \"#utility.yul\":3365:3371   */\n      dup4\n        /* \"#utility.yul\":3360:3363   */\n      dup4\n        /* \"#utility.yul\":3356:3372   */\n      add\n        /* \"#utility.yul\":3349:3376   */\n      mstore\n        /* \"#utility.yul\":3235:3383   */\n      pop\n      pop\n      pop\n      jump\t// out\n        /* \"#utility.yul\":3389:3814   */\n    tag_166:\n        /* \"#utility.yul\":3467:3472   */\n      0x00\n        /* \"#utility.yul\":3492:3558   */\n      tag_252\n        /* \"#utility.yul\":3508:3557   */\n      tag_253\n        /* \"#utility.yul\":3550:3556   */\n      dup5\n        /* \"#utility.yul\":3508:3557   */\n      tag_164\n      jump\t// in\n    tag_253:\n        /* \"#utility.yul\":3492:3558   */\n      tag_163\n      jump\t// in\n    tag_252:\n        /* \"#utility.yul\":3483:3558   */\n      swap1\n      pop\n        /* \"#utility.yul\":3581:3587   */\n      dup3\n        /* \"#utility.yul\":3574:3579   */\n      dup2\n        /* \"#utility.yul\":3567:3588   */\n      mstore\n        /* \"#utility.yul\":3619:3623   */\n      0x20\n        /* \"#utility.yul\":3612:3617   */\n      dup2\n        /* \"#utility.yul\":3608:3624   */\n      add\n        /* \"#utility.yul\":3657:3660   */\n      dup5\n        /* \"#utility.yul\":3648:3654   */\n      dup5\n        /* \"#utility.yul\":3643:3646   */\n      dup5\n        /* \"#utility.yul\":3639:3655   */\n      add\n        /* \"#utility.yul\":3636:3661   */\n      gt\n        /* \"#utility.yul\":3633:3745   */\n      iszero\n      tag_254\n      jumpi\n        /* \"#utility.yul\":3664:3743   */\n      tag_255\n      tag_160\n      jump\t// in\n    tag_255:\n        /* \"#utility.yul\":3633:3745   */\n    tag_254:\n        /* \"#utility.yul\":3754:3808   */\n      tag_256\n        /* \"#utility.yul\":3801:3807   */\n      dup5\n        /* \"#utility.yul\":3796:3799   */\n      dup3\n        /* \"#utility.yul\":3791:3794   */\n      dup6\n        /* \"#utility.yul\":3754:3808   */\n      tag_165\n      jump\t// in\n    tag_256:\n        /* \"#utility.yul\":3473:3814   */\n      pop\n        /* \"#utility.yul\":3389:3814   */\n      swap4\n      swap3\n      pop\n      pop\n      pop\n      jump\t// out\n        /* \"#utility.yul\":3834:4174   */\n    tag_167:\n        /* \"#utility.yul\":3890:3895   */\n      0x00\n        /* \"#utility.yul\":3939:3942   */\n      dup3\n        /* \"#utility.yul\":3932:3936   */\n      0x1f\n        /* \"#utility.yul\":3924:3930   */\n      dup4\n        /* \"#utility.yul\":3920:3937   */\n      add\n        /* \"#utility.yul\":3916:3943   */\n      slt\n        /* \"#utility.yul\":3906:4028   */\n      tag_258\n      jumpi\n        /* \"#utility.yul\":3947:4026   */\n      tag_259\n      tag_159\n      jump\t// in\n    tag_259:\n        /* \"#utility.yul\":3906:4028   */\n    tag_258:\n        /* \"#utility.yul\":4064:4070   */\n      dup2\n        /* \"#utility.yul\":4051:4071   */\n      calldataload\n        /* \"#utility.yul\":4089:4168   */\n      tag_260\n        /* \"#utility.yul\":4164:4167   */\n      dup5\n        /* \"#utility.yul\":4156:4162   */\n      dup3\n        /* \"#utility.yul\":4149:4153   */\n      0x20\n        /* \"#utility.yul\":4141:4147   */\n      dup7\n        /* \"#utility.yul\":4137:4154   */\n      add\n        /* \"#utility.yul\":4089:4168   */\n      tag_166\n      jump\t// in\n    tag_260:\n        /* \"#utility.yul\":4080:4168   */\n      swap2\n      pop\n        /* \"#utility.yul\":3896:4174   */\n      pop\n        /* \"#utility.yul\":3834:4174   */\n      swap3\n      swap2\n      pop\n      pop\n      jump\t// out\n        /* \"#utility.yul\":4180:4834   */\n    tag_28:\n        /* \"#utility.yul\":4258:4264   */\n      0x00\n        /* \"#utility.yul\":4266:4272   */\n      0x00\n        /* \"#utility.yul\":4315:4317   */\n      0x40\n        /* \"#utility.yul\":4303:4312   */\n      dup4\n        /* \"#utility.yul\":4294:4301   */\n      dup6\n        /* \"#utility.yul\":4290:4313   */\n      sub\n        /* \"#utility.yul\":4286:4318   */\n      slt\n        /* \"#utility.yul\":4283:4402   */\n      iszero\n      tag_262\n      jumpi\n        /* \"#utility.yul\":4321:4400   */\n      tag_263\n      tag_148\n      jump\t// in\n    tag_263:\n        /* \"#utility.yul\":4283:4402   */\n    tag_262:\n        /* \"#utility.yul\":4441:4442   */\n      0x00\n        /* \"#utility.yul\":4466:4519   */\n      tag_264\n        /* \"#utility.yul\":4511:4518   */\n      dup6\n        /* \"#utility.yul\":4502:4508   */\n      dup3\n        /* \"#utility.yul\":4491:4500   */\n      dup7\n        /* \"#utility.yul\":4487:4509   */\n      add\n        /* \"#utility.yul\":4466:4519   */\n      tag_158\n      jump\t// in\n    tag_264:\n        /* \"#utility.yul\":4456:4519   */\n      swap3\n      pop\n        /* \"#utility.yul\":4412:4529   */\n      pop\n        /* \"#utility.yul\":4596:4598   */\n      0x20\n        /* \"#utility.yul\":4585:4594   */\n      dup4\n        /* \"#utility.yul\":4581:4599   */\n      add\n        /* \"#utility.yul\":4568:4600   */\n      calldataload\n        /* \"#utility.yul\":4627:4645   */\n      0xffffffffffffffff\n        /* \"#utility.yul\":4619:4625   */\n      dup2\n        /* \"#utility.yul\":4616:4646   */\n      gt\n        /* \"#utility.yul\":4613:4730   */\n      iszero\n      tag_265\n      jumpi\n        /* \"#utility.yul\":4649:4728   */\n      tag_266\n      tag_149\n      jump\t// in\n    tag_266:\n        /* \"#utility.yul\":4613:4730   */\n    tag_265:\n        /* \"#utility.yul\":4754:4817   */\n      tag_267\n        /* \"#utility.yul\":4809:4816   */\n      dup6\n        /* \"#utility.yul\":4800:4806   */\n      dup3\n        /* \"#utility.yul\":4789:4798   */\n      dup7\n        /* \"#utility.yul\":4785:4807   */\n      add\n        /* \"#utility.yul\":4754:4817   */\n      tag_167\n      jump\t// in\n    tag_267:\n        /* \"#utility.yul\":4744:4817   */\n      swap2\n      pop\n        /* \"#utility.yul\":4539:4827   */\n      pop\n        /* \"#utility.yul\":4180:4834   */\n      swap3\n      pop\n      swap3\n      swap1\n      pop\n      jump\t// out\n        /* \"#utility.yul\":4840:4958   */\n    tag_168:\n        /* \"#utility.yul\":4927:4951   */\n      tag_269\n        /* \"#utility.yul\":4945:4950   */\n      dup2\n        /* \"#utility.yul\":4927:4951   */\n      tag_151\n      jump\t// in\n    tag_269:\n        /* \"#utility.yul\":4922:4925   */\n      dup3\n        /* \"#utility.yul\":4915:4952   */\n      mstore\n        /* \"#utility.yul\":4840:4958   */\n      pop\n      pop\n      jump\t// out\n        /* \"#utility.yul\":4964:5186   */\n    tag_33:\n        /* \"#utility.yul\":5057:5061   */\n      0x00\n        /* \"#utility.yul\":5095:5097   */\n      0x20\n        /* \"#utility.yul\":5084:5093   */\n      dup3\n        /* \"#utility.yul\":5080:5098   */\n      add\n        /* \"#utility.yul\":5072:5098   */\n      swap1\n      pop\n        /* \"#utility.yul\":5108:5179   */\n      tag_271\n        /* \"#utility.yul\":5176:5177   */\n      0x00\n        /* \"#utility.yul\":5165:5174   */\n      dup4\n        /* \"#utility.yul\":5161:5178   */\n      add\n        /* \"#utility.yul\":5152:5158   */\n      dup5\n        /* \"#utility.yul\":5108:5179   */\n      tag_168\n      jump\t// in\n    tag_271:\n        /* \"#utility.yul\":4964:5186   */\n      swap3\n      swap2\n      pop\n      pop\n      jump\t// out\n        /* \"#utility.yul\":5192:5521   */\n    tag_36:\n        /* \"#utility.yul\":5251:5257   */\n      0x00\n        /* \"#utility.yul\":5300:5302   */\n      0x20\n        /* \"#utility.yul\":5288:5297   */\n      dup3\n        /* \"#utility.yul\":5279:5286   */\n      dup5\n        /* \"#utility.yul\":5275:5298   */\n      sub\n        /* \"#utility.yul\":5271:5303   */\n      slt\n        /* \"#utility.yul\":5268:5387   */\n      iszero\n      tag_273\n      jumpi\n        /* \"#utility.yul\":5306:5385   */\n      tag_274\n      tag_148\n      jump\t// in\n    tag_274:\n        /* \"#utility.yul\":5268:5387   */\n    tag_273:\n        /* \"#utility.yul\":5426:5427   */\n      0x00\n        /* \"#utility.yul\":5451:5504   */\n      tag_275\n        /* \"#utility.yul\":5496:5503   */\n      dup5\n        /* \"#utility.yul\":5487:5493   */\n      dup3\n        /* \"#utility.yul\":5476:5485   */\n      dup6\n        /* \"#utility.yul\":5472:5494   */\n      add\n        /* \"#utility.yul\":5451:5504   */\n      tag_158\n      jump\t// in\n    tag_275:\n        /* \"#utility.yul\":5441:5504   */\n      swap2\n      pop\n        /* \"#utility.yul\":5397:5514   */\n      pop\n        /* \"#utility.yul\":5192:5521   */\n      swap3\n      swap2\n      pop\n      pop\n      jump\t// out\n        /* \"#utility.yul\":5527:5645   */\n    tag_169:\n        /* \"#utility.yul\":5614:5638   */\n      tag_277\n        /* \"#utility.yul\":5632:5637   */\n      dup2\n        /* \"#utility.yul\":5614:5638   */\n      tag_156\n      jump\t// in\n    tag_277:\n        /* \"#utility.yul\":5609:5612   */\n      dup3\n        /* \"#utility.yul\":5602:5639   */\n      mstore\n        /* \"#utility.yul\":5527:5645   */\n      pop\n      pop\n      jump\t// out\n        /* \"#utility.yul\":5651:5750   */\n    tag_170:\n        /* \"#utility.yul\":5703:5709   */\n      0x00\n        /* \"#utility.yul\":5737:5742   */\n      dup2\n        /* \"#utility.yul\":5731:5743   */\n      mload\n        /* \"#utility.yul\":5721:5743   */\n      swap1\n      pop\n        /* \"#utility.yul\":5651:5750   */\n      swap2\n      swap1\n      pop\n      jump\t// out\n        /* \"#utility.yul\":5756:5925   */\n    tag_171:\n        /* \"#utility.yul\":5840:5851   */\n      0x00\n        /* \"#utility.yul\":5874:5880   */\n      dup3\n        /* \"#utility.yul\":5869:5872   */\n      dup3\n        /* \"#utility.yul\":5862:5881   */\n      mstore\n        /* \"#utility.yul\":5914:5918   */\n      0x20\n        /* \"#utility.yul\":5909:5912   */\n      dup3\n        /* \"#utility.yul\":5905:5919   */\n      add\n        /* \"#utility.yul\":5890:5919   */\n      swap1\n      pop\n        /* \"#utility.yul\":5756:5925   */\n      swap3\n      swap2\n      pop\n      pop\n      jump\t// out\n        /* \"#utility.yul\":5931:6070   */\n    tag_172:\n        /* \"#utility.yul\":6020:6026   */\n      dup3\n        /* \"#utility.yul\":6015:6018   */\n      dup2\n        /* \"#utility.yul\":6010:6013   */\n      dup4\n        /* \"#utility.yul\":6004:6027   */\n      mcopy\n        /* \"#utility.yul\":6061:6062   */\n      0x00\n        /* \"#utility.yul\":6052:6058   */\n      dup4\n        /* \"#utility.yul\":6047:6050   */\n      dup4\n        /* \"#utility.yul\":6043:6059   */\n      add\n        /* \"#utility.yul\":6036:6063   */\n      mstore\n        /* \"#utility.yul\":5931:6070   */\n      pop\n      pop\n      pop\n      jump\t// out\n        /* \"#utility.yul\":6076:6453   */\n    tag_173:\n        /* \"#utility.yul\":6164:6167   */\n      0x00\n        /* \"#utility.yul\":6192:6231   */\n      tag_282\n        /* \"#utility.yul\":6225:6230   */\n      dup3\n        /* \"#utility.yul\":6192:6231   */\n      tag_170\n      jump\t// in\n    tag_282:\n        /* \"#utility.yul\":6247:6318   */\n      tag_283\n        /* \"#utility.yul\":6311:6317   */\n      dup2\n        /* \"#utility.yul\":6306:6309   */\n      dup6\n        /* \"#utility.yul\":6247:6318   */\n      tag_171\n      jump\t// in\n    tag_283:\n        /* \"#utility.yul\":6240:6318   */\n      swap4\n      pop\n        /* \"#utility.yul\":6327:6392   */\n      tag_284\n        /* \"#utility.yul\":6385:6391   */\n      dup2\n        /* \"#utility.yul\":6380:6383   */\n      dup6\n        /* \"#utility.yul\":6373:6377   */\n      0x20\n        /* \"#utility.yul\":6366:6371   */\n      dup7\n        /* \"#utility.yul\":6362:6378   */\n      add\n        /* \"#utility.yul\":6327:6392   */\n      tag_172\n      jump\t// in\n    tag_284:\n        /* \"#utility.yul\":6417:6446   */\n      tag_285\n        /* \"#utility.yul\":6439:6445   */\n      dup2\n        /* \"#utility.yul\":6417:6446   */\n      tag_161\n      jump\t// in\n    tag_285:\n        /* \"#utility.yul\":6412:6415   */\n      dup5\n        /* \"#utility.yul\":6408:6447   */\n      add\n        /* \"#utility.yul\":6401:6447   */\n      swap2\n      pop\n        /* \"#utility.yul\":6168:6453   */\n      pop\n        /* \"#utility.yul\":6076:6453   */\n      swap3\n      swap2\n      pop\n      pop\n      jump\t// out\n        /* \"#utility.yul\":6459:6882   */\n    tag_39:\n        /* \"#utility.yul\":6600:6604   */\n      0x00\n        /* \"#utility.yul\":6638:6640   */\n      0x40\n        /* \"#utility.yul\":6627:6636   */\n      dup3\n        /* \"#utility.yul\":6623:6641   */\n      add\n        /* \"#utility.yul\":6615:6641   */\n      swap1\n      pop\n        /* \"#utility.yul\":6651:6722   */\n      tag_287\n        /* \"#utility.yul\":6719:6720   */\n      0x00\n        /* \"#utility.yul\":6708:6717   */\n      dup4\n        /* \"#utility.yul\":6704:6721   */\n      add\n        /* \"#utility.yul\":6695:6701   */\n      dup6\n        /* \"#utility.yul\":6651:6722   */\n      tag_169\n      jump\t// in\n    tag_287:\n        /* \"#utility.yul\":6769:6778   */\n      dup2\n        /* \"#utility.yul\":6763:6767   */\n      dup2\n        /* \"#utility.yul\":6759:6779   */\n      sub\n        /* \"#utility.yul\":6754:6756   */\n      0x20\n        /* \"#utility.yul\":6743:6752   */\n      dup4\n        /* \"#utility.yul\":6739:6757   */\n      add\n        /* \"#utility.yul\":6732:6780   */\n      mstore\n        /* \"#utility.yul\":6797:6875   */\n      tag_288\n        /* \"#utility.yul\":6870:6874   */\n      dup2\n        /* \"#utility.yul\":6861:6867   */\n      dup5\n        /* \"#utility.yul\":6797:6875   */\n      tag_173\n      jump\t// in\n    tag_288:\n        /* \"#utility.yul\":6789:6875   */\n      swap1\n      pop\n        /* \"#utility.yul\":6459:6882   */\n      swap4\n      swap3\n      pop\n      pop\n      pop\n      jump\t// out\n        /* \"#utility.yul\":6888:7027   */\n    tag_174:\n        /* \"#utility.yul\":6980:6986   */\n      0x00\n        /* \"#utility.yul\":7014:7019   */\n      dup2\n        /* \"#utility.yul\":7008:7020   */\n      mload\n        /* \"#utility.yul\":6998:7020   */\n      swap1\n      pop\n        /* \"#utility.yul\":6888:7027   */\n      swap2\n      swap1\n      pop\n      jump\t// out\n        /* \"#utility.yul\":7033:7242   */\n    tag_175:\n        /* \"#utility.yul\":7157:7168   */\n      0x00\n        /* \"#utility.yul\":7191:7197   */\n      dup3\n        /* \"#utility.yul\":7186:7189   */\n      dup3\n        /* \"#utility.yul\":7179:7198   */\n      mstore\n        /* \"#utility.yul\":7231:7235   */\n      0x20\n        /* \"#utility.yul\":7226:7229   */\n      dup3\n        /* \"#utility.yul\":7222:7236   */\n      add\n        /* \"#utility.yul\":7207:7236   */\n      swap1\n      pop\n        /* \"#utility.yul\":7033:7242   */\n      swap3\n      swap2\n      pop\n      pop\n      jump\t// out\n        /* \"#utility.yul\":7248:7405   */\n    tag_176:\n        /* \"#utility.yul\":7340:7344   */\n      0x00\n        /* \"#utility.yul\":7363:7366   */\n      dup2\n        /* \"#utility.yul\":7355:7366   */\n      swap1\n      pop\n        /* \"#utility.yul\":7393:7397   */\n      0x20\n        /* \"#utility.yul\":7388:7391   */\n      dup3\n        /* \"#utility.yul\":7384:7398   */\n      add\n        /* \"#utility.yul\":7376:7398   */\n      swap1\n      pop\n        /* \"#utility.yul\":7248:7405   */\n      swap2\n      swap1\n      pop\n      jump\t// out\n        /* \"#utility.yul\":7411:7519   */\n    tag_177:\n        /* \"#utility.yul\":7488:7512   */\n      tag_293\n        /* \"#utility.yul\":7506:7511   */\n      dup2\n        /* \"#utility.yul\":7488:7512   */\n      tag_156\n      jump\t// in\n    tag_293:\n        /* \"#utility.yul\":7483:7486   */\n      dup3\n        /* \"#utility.yul\":7476:7513   */\n      mstore\n        /* \"#utility.yul\":7411:7519   */\n      pop\n      pop\n      jump\t// out\n        /* \"#utility.yul\":7525:7684   */\n    tag_178:\n        /* \"#utility.yul\":7599:7610   */\n      0x00\n        /* \"#utility.yul\":7633:7639   */\n      dup3\n        /* \"#utility.yul\":7628:7631   */\n      dup3\n        /* \"#utility.yul\":7621:7640   */\n      mstore\n        /* \"#utility.yul\":7673:7677   */\n      0x20\n        /* \"#utility.yul\":7668:7671   */\n      dup3\n        /* \"#utility.yul\":7664:7678   */\n      add\n        /* \"#utility.yul\":7649:7678   */\n      swap1\n      pop\n        /* \"#utility.yul\":7525:7684   */\n      swap3\n      swap2\n      pop\n      pop\n      jump\t// out\n        /* \"#utility.yul\":7690:8047   */\n    tag_179:\n        /* \"#utility.yul\":7768:7771   */\n      0x00\n        /* \"#utility.yul\":7796:7835   */\n      tag_296\n        /* \"#utility.yul\":7829:7834   */\n      dup3\n        /* \"#utility.yul\":7796:7835   */\n      tag_170\n      jump\t// in\n    tag_296:\n        /* \"#utility.yul\":7851:7912   */\n      tag_297\n        /* \"#utility.yul\":7905:7911   */\n      dup2\n        /* \"#utility.yul\":7900:7903   */\n      dup6\n        /* \"#utility.yul\":7851:7912   */\n      tag_178\n      jump\t// in\n    tag_297:\n        /* \"#utility.yul\":7844:7912   */\n      swap4\n      pop\n        /* \"#utility.yul\":7921:7986   */\n      tag_298\n        /* \"#utility.yul\":7979:7985   */\n      dup2\n        /* \"#utility.yul\":7974:7977   */\n      dup6\n        /* \"#utility.yul\":7967:7971   */\n      0x20\n        /* \"#utility.yul\":7960:7965   */\n      dup7\n        /* \"#utility.yul\":7956:7972   */\n      add\n        /* \"#utility.yul\":7921:7986   */\n      tag_172\n      jump\t// in\n    tag_298:\n        /* \"#utility.yul\":8011:8040   */\n      tag_299\n        /* \"#utility.yul\":8033:8039   */\n      dup2\n        /* \"#utility.yul\":8011:8040   */\n      tag_161\n      jump\t// in\n    tag_299:\n        /* \"#utility.yul\":8006:8009   */\n      dup5\n        /* \"#utility.yul\":8002:8041   */\n      add\n        /* \"#utility.yul\":7995:8041   */\n      swap2\n      pop\n        /* \"#utility.yul\":7772:8047   */\n      pop\n        /* \"#utility.yul\":7690:8047   */\n      swap3\n      swap2\n      pop\n      pop\n      jump\t// out\n        /* \"#utility.yul\":8095:8697   */\n    tag_180:\n        /* \"#utility.yul\":8204:8207   */\n      0x00\n        /* \"#utility.yul\":8240:8244   */\n      0x40\n        /* \"#utility.yul\":8235:8238   */\n      dup4\n        /* \"#utility.yul\":8231:8245   */\n      add\n        /* \"#utility.yul\":8333:8337   */\n      0x00\n        /* \"#utility.yul\":8326:8331   */\n      dup4\n        /* \"#utility.yul\":8322:8338   */\n      add\n        /* \"#utility.yul\":8316:8339   */\n      mload\n        /* \"#utility.yul\":8352:8415   */\n      tag_301\n        /* \"#utility.yul\":8409:8413   */\n      0x00\n        /* \"#utility.yul\":8404:8407   */\n      dup7\n        /* \"#utility.yul\":8400:8414   */\n      add\n        /* \"#utility.yul\":8386:8398   */\n      dup3\n        /* \"#utility.yul\":8352:8415   */\n      tag_177\n      jump\t// in\n    tag_301:\n        /* \"#utility.yul\":8255:8425   */\n      pop\n        /* \"#utility.yul\":8507:8511   */\n      0x20\n        /* \"#utility.yul\":8500:8505   */\n      dup4\n        /* \"#utility.yul\":8496:8512   */\n      add\n        /* \"#utility.yul\":8490:8513   */\n      mload\n        /* \"#utility.yul\":8560:8563   */\n      dup5\n        /* \"#utility.yul\":8554:8558   */\n      dup3\n        /* \"#utility.yul\":8550:8564   */\n      sub\n        /* \"#utility.yul\":8543:8547   */\n      0x20\n        /* \"#utility.yul\":8538:8541   */\n      dup7\n        /* \"#utility.yul\":8534:8548   */\n      add\n        /* \"#utility.yul\":8527:8565   */\n      mstore\n        /* \"#utility.yul\":8586:8659   */\n      tag_302\n        /* \"#utility.yul\":8654:8658   */\n      dup3\n        /* \"#utility.yul\":8640:8652   */\n      dup3\n        /* \"#utility.yul\":8586:8659   */\n      tag_179\n      jump\t// in\n    tag_302:\n        /* \"#utility.yul\":8578:8659   */\n      swap2\n      pop\n        /* \"#utility.yul\":8435:8670   */\n      pop\n        /* \"#utility.yul\":8687:8691   */\n      dup1\n        /* \"#utility.yul\":8680:8691   */\n      swap2\n      pop\n        /* \"#utility.yul\":8209:8697   */\n      pop\n        /* \"#utility.yul\":8095:8697   */\n      swap3\n      swap2\n      pop\n      pop\n      jump\t// out\n        /* \"#utility.yul\":8703:8959   */\n    tag_181:\n        /* \"#utility.yul\":8822:8832   */\n      0x00\n        /* \"#utility.yul\":8857:8953   */\n      tag_304\n        /* \"#utility.yul\":8949:8952   */\n      dup4\n        /* \"#utility.yul\":8941:8947   */\n      dup4\n        /* \"#utility.yul\":8857:8953   */\n      tag_180\n      jump\t// in\n    tag_304:\n        /* \"#utility.yul\":8843:8953   */\n      swap1\n      pop\n        /* \"#utility.yul\":8703:8959   */\n      swap3\n      swap2\n      pop\n      pop\n      jump\t// out\n        /* \"#utility.yul\":8965:9103   */\n    tag_182:\n        /* \"#utility.yul\":9060:9064   */\n      0x00\n        /* \"#utility.yul\":9092:9096   */\n      0x20\n        /* \"#utility.yul\":9087:9090   */\n      dup3\n        /* \"#utility.yul\":9083:9097   */\n      add\n        /* \"#utility.yul\":9075:9097   */\n      swap1\n      pop\n        /* \"#utility.yul\":8965:9103   */\n      swap2\n      swap1\n      pop\n      jump\t// out\n        /* \"#utility.yul\":9155:10266   */\n    tag_183:\n        /* \"#utility.yul\":9324:9327   */\n      0x00\n        /* \"#utility.yul\":9353:9432   */\n      tag_307\n        /* \"#utility.yul\":9426:9431   */\n      dup3\n        /* \"#utility.yul\":9353:9432   */\n      tag_174\n      jump\t// in\n    tag_307:\n        /* \"#utility.yul\":9448:9559   */\n      tag_308\n        /* \"#utility.yul\":9552:9558   */\n      dup2\n        /* \"#utility.yul\":9547:9550   */\n      dup6\n        /* \"#utility.yul\":9448:9559   */\n      tag_175\n      jump\t// in\n    tag_308:\n        /* \"#utility.yul\":9441:9559   */\n      swap4\n      pop\n        /* \"#utility.yul\":9585:9588   */\n      dup4\n        /* \"#utility.yul\":9630:9634   */\n      0x20\n        /* \"#utility.yul\":9622:9628   */\n      dup3\n        /* \"#utility.yul\":9618:9635   */\n      mul\n        /* \"#utility.yul\":9613:9616   */\n      dup6\n        /* \"#utility.yul\":9609:9636   */\n      add\n        /* \"#utility.yul\":9660:9741   */\n      tag_309\n        /* \"#utility.yul\":9735:9740   */\n      dup6\n        /* \"#utility.yul\":9660:9741   */\n      tag_176\n      jump\t// in\n    tag_309:\n        /* \"#utility.yul\":9764:9771   */\n      dup1\n        /* \"#utility.yul\":9795:9796   */\n      0x00\n        /* \"#utility.yul\":9780:10221   */\n    tag_310:\n        /* \"#utility.yul\":9805:9811   */\n      dup6\n        /* \"#utility.yul\":9802:9803   */\n      dup2\n        /* \"#utility.yul\":9799:9812   */\n      lt\n        /* \"#utility.yul\":9780:10221   */\n      iszero\n      tag_312\n      jumpi\n        /* \"#utility.yul\":9876:9885   */\n      dup5\n        /* \"#utility.yul\":9870:9874   */\n      dup5\n        /* \"#utility.yul\":9866:9886   */\n      sub\n        /* \"#utility.yul\":9861:9864   */\n      dup10\n        /* \"#utility.yul\":9854:9887   */\n      mstore\n        /* \"#utility.yul\":9927:9933   */\n      dup2\n        /* \"#utility.yul\":9921:9934   */\n      mload\n        /* \"#utility.yul\":9955:10069   */\n      tag_313\n        /* \"#utility.yul\":10064:10068   */\n      dup6\n        /* \"#utility.yul\":10049:10062   */\n      dup3\n        /* \"#utility.yul\":9955:10069   */\n      tag_181\n      jump\t// in\n    tag_313:\n        /* \"#utility.yul\":9947:10069   */\n      swap5\n      pop\n        /* \"#utility.yul\":10092:10177   */\n      tag_314\n        /* \"#utility.yul\":10170:10176   */\n      dup4\n        /* \"#utility.yul\":10092:10177   */\n      tag_182\n      jump\t// in\n    tag_314:\n        /* \"#utility.yul\":10082:10177   */\n      swap3\n      pop\n        /* \"#utility.yul\":10206:10210   */\n      0x20\n        /* \"#utility.yul\":10201:10204   */\n      dup11\n        /* \"#utility.yul\":10197:10211   */\n      add\n        /* \"#utility.yul\":10190:10211   */\n      swap10\n      pop\n        /* \"#utility.yul\":9840:10221   */\n      pop\n        /* \"#utility.yul\":9827:9828   */\n      0x01\n        /* \"#utility.yul\":9824:9825   */\n      dup2\n        /* \"#utility.yul\":9820:9829   */\n      add\n        /* \"#utility.yul\":9815:9829   */\n      swap1\n      pop\n        /* \"#utility.yul\":9780:10221   */\n      jump(tag_310)\n    tag_312:\n        /* \"#utility.yul\":9784:9798   */\n      pop\n        /* \"#utility.yul\":10237:10241   */\n      dup3\n        /* \"#utility.yul\":10230:10241   */\n      swap8\n      pop\n        /* \"#utility.yul\":10257:10260   */\n      dup8\n        /* \"#utility.yul\":10250:10260   */\n      swap6\n      pop\n        /* \"#utility.yul\":9329:10266   */\n      pop\n      pop\n      pop\n      pop\n      pop\n        /* \"#utility.yul\":9155:10266   */\n      swap3\n      swap2\n      pop\n      pop\n      jump\t// out\n        /* \"#utility.yul\":10272:10745   */\n    tag_46:\n        /* \"#utility.yul\":10465:10469   */\n      0x00\n        /* \"#utility.yul\":10503:10505   */\n      0x20\n        /* \"#utility.yul\":10492:10501   */\n      dup3\n        /* \"#utility.yul\":10488:10506   */\n      add\n        /* \"#utility.yul\":10480:10506   */\n      swap1\n      pop\n        /* \"#utility.yul\":10552:10561   */\n      dup2\n        /* \"#utility.yul\":10546:10550   */\n      dup2\n        /* \"#utility.yul\":10542:10562   */\n      sub\n        /* \"#utility.yul\":10538:10539   */\n      0x00\n        /* \"#utility.yul\":10527:10536   */\n      dup4\n        /* \"#utility.yul\":10523:10540   */\n      add\n        /* \"#utility.yul\":10516:10563   */\n      mstore\n        /* \"#utility.yul\":10580:10738   */\n      tag_316\n        /* \"#utility.yul\":10733:10737   */\n      dup2\n        /* \"#utility.yul\":10724:10730   */\n      dup5\n        /* \"#utility.yul\":10580:10738   */\n      tag_183\n      jump\t// in\n    tag_316:\n        /* \"#utility.yul\":10572:10738   */\n      swap1\n      pop\n        /* \"#utility.yul\":10272:10745   */\n      swap3\n      swap2\n      pop\n      pop\n      jump\t// out\n        /* \"#utility.yul\":10793:11405   */\n    tag_184:\n        /* \"#utility.yul\":10912:10915   */\n      0x00\n        /* \"#utility.yul\":10948:10952   */\n      0x40\n        /* \"#utility.yul\":10943:10946   */\n      dup4\n        /* \"#utility.yul\":10939:10953   */\n      add\n        /* \"#utility.yul\":11041:11045   */\n      0x00\n        /* \"#utility.yul\":11034:11039   */\n      dup4\n        /* \"#utility.yul\":11030:11046   */\n      add\n        /* \"#utility.yul\":11024:11047   */\n      mload\n        /* \"#utility.yul\":11060:11123   */\n      tag_318\n        /* \"#utility.yul\":11117:11121   */\n      0x00\n        /* \"#utility.yul\":11112:11115   */\n      dup7\n        /* \"#utility.yul\":11108:11122   */\n      add\n        /* \"#utility.yul\":11094:11106   */\n      dup3\n        /* \"#utility.yul\":11060:11123   */\n      tag_177\n      jump\t// in\n    tag_318:\n        /* \"#utility.yul\":10963:11133   */\n      pop\n        /* \"#utility.yul\":11215:11219   */\n      0x20\n        /* \"#utility.yul\":11208:11213   */\n      dup4\n        /* \"#utility.yul\":11204:11220   */\n      add\n        /* \"#utility.yul\":11198:11221   */\n      mload\n        /* \"#utility.yul\":11268:11271   */\n      dup5\n        /* \"#utility.yul\":11262:11266   */\n      dup3\n        /* \"#utility.yul\":11258:11272   */\n      sub\n        /* \"#utility.yul\":11251:11255   */\n      0x20\n        /* \"#utility.yul\":11246:11249   */\n      dup7\n        /* \"#utility.yul\":11242:11256   */\n      add\n        /* \"#utility.yul\":11235:11273   */\n      mstore\n        /* \"#utility.yul\":11294:11367   */\n      tag_319\n        /* \"#utility.yul\":11362:11366   */\n      dup3\n        /* \"#utility.yul\":11348:11360   */\n      dup3\n        /* \"#utility.yul\":11294:11367   */\n      tag_179\n      jump\t// in\n    tag_319:\n        /* \"#utility.yul\":11286:11367   */\n      swap2\n      pop\n        /* \"#utility.yul\":11143:11378   */\n      pop\n        /* \"#utility.yul\":11395:11399   */\n      dup1\n        /* \"#utility.yul\":11388:11399   */\n      swap2\n      pop\n        /* \"#utility.yul\":10917:11405   */\n      pop\n        /* \"#utility.yul\":10793:11405   */\n      swap3\n      swap2\n      pop\n      pop\n      jump\t// out\n        /* \"#utility.yul\":11411:11784   */\n    tag_51:\n        /* \"#utility.yul\":11554:11558   */\n      0x00\n        /* \"#utility.yul\":11592:11594   */\n      0x20\n        /* \"#utility.yul\":11581:11590   */\n      dup3\n        /* \"#utility.yul\":11577:11595   */\n      add\n        /* \"#utility.yul\":11569:11595   */\n      swap1\n      pop\n        /* \"#utility.yul\":11641:11650   */\n      dup2\n        /* \"#utility.yul\":11635:11639   */\n      dup2\n        /* \"#utility.yul\":11631:11651   */\n      sub\n        /* \"#utility.yul\":11627:11628   */\n      0x00\n        /* \"#utility.yul\":11616:11625   */\n      dup4\n        /* \"#utility.yul\":11612:11629   */\n      add\n        /* \"#utility.yul\":11605:11652   */\n      mstore\n        /* \"#utility.yul\":11669:11777   */\n      tag_321\n        /* \"#utility.yul\":11772:11776   */\n      dup2\n        /* \"#utility.yul\":11763:11769   */\n      dup5\n        /* \"#utility.yul\":11669:11777   */\n      tag_184\n      jump\t// in\n    tag_321:\n        /* \"#utility.yul\":11661:11777   */\n      swap1\n      pop\n        /* \"#utility.yul\":11411:11784   */\n      swap3\n      swap2\n      pop\n      pop\n      jump\t// out\n        /* \"#utility.yul\":11790:11969   */\n    tag_185:\n        /* \"#utility.yul\":11930:11961   */\n      0x43617465676f7279206e616d652063616e6e6f7420626520656d707479000000\n        /* \"#utility.yul\":11926:11927   */\n      0x00\n        /* \"#utility.yul\":11918:11924   */\n      dup3\n        /* \"#utility.yul\":11914:11928   */\n      add\n        /* \"#utility.yul\":11907:11962   */\n      mstore\n        /* \"#utility.yul\":11790:11969   */\n      pop\n      jump\t// out\n        /* \"#utility.yul\":11975:12341   */\n    tag_186:\n        /* \"#utility.yul\":12117:12120   */\n      0x00\n        /* \"#utility.yul\":12138:12205   */\n      tag_324\n        /* \"#utility.yul\":12202:12204   */\n      0x1d\n        /* \"#utility.yul\":12197:12200   */\n      dup4\n        /* \"#utility.yul\":12138:12205   */\n      tag_171\n      jump\t// in\n    tag_324:\n        /* \"#utility.yul\":12131:12205   */\n      swap2\n      pop\n        /* \"#utility.yul\":12214:12307   */\n      tag_325\n        /* \"#utility.yul\":12303:12306   */\n      dup3\n        /* \"#utility.yul\":12214:12307   */\n      tag_185\n      jump\t// in\n    tag_325:\n        /* \"#utility.yul\":12332:12334   */\n      0x20\n        /* \"#utility.yul\":12327:12330   */\n      dup3\n        /* \"#utility.yul\":12323:12335   */\n      add\n        /* \"#utility.yul\":12316:12335   */\n      swap1\n      pop\n        /* \"#utility.yul\":11975:12341   */\n      swap2\n      swap1\n      pop\n      jump\t// out\n        /* \"#utility.yul\":12347:12766   */\n    tag_60:\n        /* \"#utility.yul\":12513:12517   */\n      0x00\n        /* \"#utility.yul\":12551:12553   */\n      0x20\n        /* \"#utility.yul\":12540:12549   */\n      dup3\n        /* \"#utility.yul\":12536:12554   */\n      add\n        /* \"#utility.yul\":12528:12554   */\n      swap1\n      pop\n        /* \"#utility.yul\":12600:12609   */\n      dup2\n        /* \"#utility.yul\":12594:12598   */\n      dup2\n        /* \"#utility.yul\":12590:12610   */\n      sub\n        /* \"#utility.yul\":12586:12587   */\n      0x00\n        /* \"#utility.yul\":12575:12584   */\n      dup4\n        /* \"#utility.yul\":12571:12588   */\n      add\n        /* \"#utility.yul\":12564:12611   */\n      mstore\n        /* \"#utility.yul\":12628:12759   */\n      tag_327\n        /* \"#utility.yul\":12754:12758   */\n      dup2\n        /* \"#utility.yul\":12628:12759   */\n      tag_186\n      jump\t// in\n    tag_327:\n        /* \"#utility.yul\":12620:12759   */\n      swap1\n      pop\n        /* \"#utility.yul\":12347:12766   */\n      swap2\n      swap1\n      pop\n      jump\t// out\n        /* \"#utility.yul\":12772:12945   */\n    tag_187:\n        /* \"#utility.yul\":12912:12937   */\n      0x43617465676f727920646f6573206e6f74206578697374000000000000000000\n        /* \"#utility.yul\":12908:12909   */\n      0x00\n        /* \"#utility.yul\":12900:12906   */\n      dup3\n        /* \"#utility.yul\":12896:12910   */\n      add\n        /* \"#utility.yul\":12889:12938   */\n      mstore\n        /* \"#utility.yul\":12772:12945   */\n      pop\n      jump\t// out\n        /* \"#utility.yul\":12951:13317   */\n    tag_188:\n        /* \"#utility.yul\":13093:13096   */\n      0x00\n        /* \"#utility.yul\":13114:13181   */\n      tag_330\n        /* \"#utility.yul\":13178:13180   */\n      0x17\n        /* \"#utility.yul\":13173:13176   */\n      dup4\n        /* \"#utility.yul\":13114:13181   */\n      tag_171\n      jump\t// in\n    tag_330:\n        /* \"#utility.yul\":13107:13181   */\n      swap2\n      pop\n        /* \"#utility.yul\":13190:13283   */\n      tag_331\n        /* \"#utility.yul\":13279:13282   */\n      dup3\n        /* \"#utility.yul\":13190:13283   */\n      tag_187\n      jump\t// in\n    tag_331:\n        /* \"#utility.yul\":13308:13310   */\n      0x20\n        /* \"#utility.yul\":13303:13306   */\n      dup3\n        /* \"#utility.yul\":13299:13311   */\n      add\n        /* \"#utility.yul\":13292:13311   */\n      swap1\n      pop\n        /* \"#utility.yul\":12951:13317   */\n      swap2\n      swap1\n      pop\n      jump\t// out\n        /* \"#utility.yul\":13323:13742   */\n    tag_63:\n        /* \"#utility.yul\":13489:13493   */\n      0x00\n        /* \"#utility.yul\":13527:13529   */\n      0x20\n        /* \"#utility.yul\":13516:13525   */\n      dup3\n        /* \"#utility.yul\":13512:13530   */\n      add\n        /* \"#utility.yul\":13504:13530   */\n      swap1\n      pop\n        /* \"#utility.yul\":13576:13585   */\n      dup2\n        /* \"#utility.yul\":13570:13574   */\n      dup2\n        /* \"#utility.yul\":13566:13586   */\n      sub\n        /* \"#utility.yul\":13562:13563   */\n      0x00\n        /* \"#utility.yul\":13551:13560   */\n      dup4\n        /* \"#utility.yul\":13547:13564   */\n      add\n        /* \"#utility.yul\":13540:13587   */\n      mstore\n        /* \"#utility.yul\":13604:13735   */\n      tag_333\n        /* \"#utility.yul\":13730:13734   */\n      dup2\n        /* \"#utility.yul\":13604:13735   */\n      tag_188\n      jump\t// in\n    tag_333:\n        /* \"#utility.yul\":13596:13735   */\n      swap1\n      pop\n        /* \"#utility.yul\":13323:13742   */\n      swap2\n      swap1\n      pop\n      jump\t// out\n        /* \"#utility.yul\":13748:13928   */\n    tag_189:\n        /* \"#utility.yul\":13796:13873   */\n      0x4e487b7100000000000000000000000000000000000000000000000000000000\n        /* \"#utility.yul\":13793:13794   */\n      0x00\n        /* \"#utility.yul\":13786:13874   */\n      mstore\n        /* \"#utility.yul\":13893:13897   */\n      0x22\n        /* \"#utility.yul\":13890:13891   */\n      0x04\n        /* \"#utility.yul\":13883:13898   */\n      mstore\n        /* \"#utility.yul\":13917:13921   */\n      0x24\n        /* \"#utility.yul\":13914:13915   */\n      0x00\n        /* \"#utility.yul\":13907:13922   */\n      revert\n        /* \"#utility.yul\":13934:14254   */\n    tag_69:\n        /* \"#utility.yul\":13978:13984   */\n      0x00\n        /* \"#utility.yul\":14015:14016   */\n      0x02\n        /* \"#utility.yul\":14009:14013   */\n      dup3\n        /* \"#utility.yul\":14005:14017   */\n      div\n        /* \"#utility.yul\":13995:14017   */\n      swap1\n      pop\n        /* \"#utility.yul\":14062:14063   */\n      0x01\n        /* \"#utility.yul\":14056:14060   */\n      dup3\n        /* \"#utility.yul\":14052:14064   */\n      and\n        /* \"#utility.yul\":14083:14101   */\n      dup1\n        /* \"#utility.yul\":14073:14154   */\n      tag_336\n      jumpi\n        /* \"#utility.yul\":14139:14143   */\n      0x7f\n        /* \"#utility.yul\":14131:14137   */\n      dup3\n        /* \"#utility.yul\":14127:14144   */\n      and\n        /* \"#utility.yul\":14117:14144   */\n      swap2\n      pop\n        /* \"#utility.yul\":14073:14154   */\n    tag_336:\n        /* \"#utility.yul\":14201:14203   */\n      0x20\n        /* \"#utility.yul\":14193:14199   */\n      dup3\n        /* \"#utility.yul\":14190:14204   */\n      lt\n        /* \"#utility.yul\":14170:14188   */\n      dup2\n        /* \"#utility.yul\":14167:14205   */\n      sub\n        /* \"#utility.yul\":14164:14248   */\n      tag_337\n      jumpi\n        /* \"#utility.yul\":14220:14238   */\n      tag_338\n      tag_189\n      jump\t// in\n    tag_338:\n        /* \"#utility.yul\":14164:14248   */\n    tag_337:\n        /* \"#utility.yul\":13985:14254   */\n      pop\n        /* \"#utility.yul\":13934:14254   */\n      swap2\n      swap1\n      pop\n      jump\t// out\n        /* \"#utility.yul\":14260:14401   */\n    tag_190:\n        /* \"#utility.yul\":14309:14313   */\n      0x00\n        /* \"#utility.yul\":14332:14335   */\n      dup2\n        /* \"#utility.yul\":14324:14335   */\n      swap1\n      pop\n        /* \"#utility.yul\":14355:14358   */\n      dup2\n        /* \"#utility.yul\":14352:14353   */\n      0x00\n        /* \"#utility.yul\":14345:14359   */\n      mstore\n        /* \"#utility.yul\":14389:14393   */\n      0x20\n        /* \"#utility.yul\":14386:14387   */\n      0x00\n        /* \"#utility.yul\":14376:14394   */\n      keccak256\n        /* \"#utility.yul\":14368:14394   */\n      swap1\n      pop\n        /* \"#utility.yul\":14260:14401   */\n      swap2\n      swap1\n      pop\n      jump\t// out\n        /* \"#utility.yul\":14407:14500   */\n    tag_191:\n        /* \"#utility.yul\":14444:14450   */\n      0x00\n        /* \"#utility.yul\":14491:14493   */\n      0x20\n        /* \"#utility.yul\":14486:14488   */\n      0x1f\n        /* \"#utility.yul\":14479:14484   */\n      dup4\n        /* \"#utility.yul\":14475:14489   */\n      add\n        /* \"#utility.yul\":14471:14494   */\n      div\n        /* \"#utility.yul\":14461:14494   */\n      swap1\n      pop\n        /* \"#utility.yul\":14407:14500   */\n      swap2\n      swap1\n      pop\n      jump\t// out\n        /* \"#utility.yul\":14506:14613   */\n    tag_192:\n        /* \"#utility.yul\":14550:14558   */\n      0x00\n        /* \"#utility.yul\":14600:14605   */\n      dup3\n        /* \"#utility.yul\":14594:14598   */\n      dup3\n        /* \"#utility.yul\":14590:14606   */\n      shl\n        /* \"#utility.yul\":14569:14606   */\n      swap1\n      pop\n        /* \"#utility.yul\":14506:14613   */\n      swap3\n      swap2\n      pop\n      pop\n      jump\t// out\n        /* \"#utility.yul\":14619:15012   */\n    tag_193:\n        /* \"#utility.yul\":14688:14694   */\n      0x00\n        /* \"#utility.yul\":14738:14739   */\n      0x08\n        /* \"#utility.yul\":14726:14736   */\n      dup4\n        /* \"#utility.yul\":14722:14740   */\n      mul\n        /* \"#utility.yul\":14761:14858   */\n      tag_343\n        /* \"#utility.yul\":14791:14857   */\n      0xffffffffffffffffffffffffffffffffffffffffffffffffffffffffffffffff\n        /* \"#utility.yul\":14780:14789   */\n      dup3\n        /* \"#utility.yul\":14761:14858   */\n      tag_192\n      jump\t// in\n    tag_343:\n        /* \"#utility.yul\":14879:14918   */\n      tag_344\n        /* \"#utility.yul\":14909:14917   */\n      dup7\n        /* \"#utility.yul\":14898:14907   */\n      dup4\n        /* \"#utility.yul\":14879:14918   */\n      tag_192\n      jump\t// in\n    tag_344:\n        /* \"#utility.yul\":14867:14918   */\n      swap6\n      pop\n        /* \"#utility.yul\":14951:14955   */\n      dup1\n        /* \"#utility.yul\":14947:14956   */\n      not\n        /* \"#utility.yul\":14940:14945   */\n      dup5\n        /* \"#utility.yul\":14936:14957   */\n      and\n        /* \"#utility.yul\":14927:14957   */\n      swap4\n      pop\n        /* \"#utility.yul\":15000:15004   */\n      dup1\n        /* \"#utility.yul\":14990:14998   */\n      dup7\n        /* \"#utility.yul\":14986:15005   */\n      and\n        /* \"#utility.yul\":14979:14984   */\n      dup5\n        /* \"#utility.yul\":14976:15006   */\n      or\n        /* \"#utility.yul\":14966:15006   */\n      swap3\n      pop\n        /* \"#utility.yul\":14695:15012   */\n      pop\n      pop\n        /* \"#utility.yul\":14619:15012   */\n      swap4\n      swap3\n      pop\n      pop\n      pop\n      jump\t// out\n        /* \"#utility.yul\":15018:15078   */\n    tag_194:\n        /* \"#utility.yul\":15046:15049   */\n      0x00\n        /* \"#utility.yul\":15067:15072   */\n      dup2\n        /* \"#utility.yul\":15060:15072   */\n      swap1\n      pop\n        /* \"#utility.yul\":15018:15078   */\n      swap2\n      swap1\n      pop\n      jump\t// out\n        /* \"#utility.yul\":15084:15226   */\n    tag_195:\n        /* \"#utility.yul\":15134:15143   */\n      0x00\n        /* \"#utility.yul\":15167:15220   */\n      tag_347\n        /* \"#utility.yul\":15185:15219   */\n      tag_348\n        /* \"#utility.yul\":15194:15218   */\n      tag_349\n        /* \"#utility.yul\":15212:15217   */\n      dup5\n        /* \"#utility.yul\":15194:15218   */\n      tag_156\n      jump\t// in\n    tag_349:\n        /* \"#utility.yul\":15185:15219   */\n      tag_194\n      jump\t// in\n    tag_348:\n        /* \"#utility.yul\":15167:15220   */\n      tag_156\n      jump\t// in\n    tag_347:\n        /* \"#utility.yul\":15154:15220   */\n      swap1\n      pop\n        /* \"#utility.yul\":15084:15226   */\n      swap2\n      swap1\n      pop\n      jump\t// out\n        /* \"#utility.yul\":15232:15307   */\n    tag_196:\n        /* \"#utility.yul\":15275:15278   */\n      0x00\n        /* \"#utility.yul\":15296:15301   */\n      dup2\n        /* \"#utility.yul\":15289:15301   */\n      swap1\n      pop\n        /* \"#utility.yul\":15232:15307   */\n      swap2\n      swap1\n      pop\n      jump\t// out\n        /* \"#utility.yul\":15313:15582   */\n    tag_197:\n        /* \"#utility.yul\":15423:15462   */\n      tag_352\n        /* \"#utility.yul\":15454:15461   */\n      dup4\n        /* \"#utility.yul\":15423:15462   */\n      tag_195\n      jump\t// in\n    tag_352:\n        /* \"#utility.yul\":15484:15575   */\n      tag_353\n        /* \"#utility.yul\":15533:15574   */\n      tag_354\n        /* \"#utility.yul\":15557:15573   */\n      dup3\n        /* \"#utility.yul\":15533:15574   */\n      tag_196\n      jump\t// in\n    tag_354:\n        /* \"#utility.yul\":15525:15531   */\n      dup5\n        /* \"#utility.yul\":15518:15522   */\n      dup5\n        /* \"#utility.yul\":15512:15523   */\n      sload\n        /* \"#utility.yul\":15484:15575   */\n      tag_193\n      jump\t// in\n    tag_353:\n        /* \"#utility.yul\":15478:15482   */\n      dup3\n        /* \"#utility.yul\":15471:15576   */\n      sstore\n        /* \"#utility.yul\":15389:15582   */\n      pop\n        /* \"#utility.yul\":15313:15582   */\n      pop\n      pop\n      pop\n      jump\t// out\n        /* \"#utility.yul\":15588:15661   */\n    tag_198:\n        /* \"#utility.yul\":15633:15636   */\n      0x00\n        /* \"#utility.yul\":15654:15655   */\n      0x00\n        /* \"#utility.yul\":15647:15655   */\n      swap1\n      pop\n        /* \"#utility.yul\":15588:15661   */\n      swap1\n      jump\t// out\n        /* \"#utility.yul\":15667:15856   */\n    tag_199:\n        /* \"#utility.yul\":15744:15776   */\n      tag_357\n      tag_198\n      jump\t// in\n    tag_357:\n        /* \"#utility.yul\":15785:15850   */\n      tag_358\n        /* \"#utility.yul\":15843:15849   */\n      dup2\n        /* \"#utility.yul\":15835:15841   */\n      dup5\n        /* \"#utility.yul\":15829:15833   */\n      dup5\n        /* \"#utility.yul\":15785:15850   */\n      tag_197\n      jump\t// in\n    tag_358:\n        /* \"#utility.yul\":15720:15856   */\n      pop\n        /* \"#utility.yul\":15667:15856   */\n      pop\n      pop\n      jump\t// out\n        /* \"#utility.yul\":15862:16048   */\n    tag_200:\n        /* \"#utility.yul\":15922:16042   */\n    tag_360:\n        /* \"#utility.yul\":15939:15942   */\n      dup2\n        /* \"#utility.yul\":15932:15937   */\n      dup2\n        /* \"#utility.yul\":15929:15943   */\n      lt\n        /* \"#utility.yul\":15922:16042   */\n      iszero\n      tag_362\n      jumpi\n        /* \"#utility.yul\":15993:16032   */\n      tag_363\n        /* \"#utility.yul\":16030:16031   */\n      0x00\n        /* \"#utility.yul\":16023:16028   */\n      dup3\n        /* \"#utility.yul\":15993:16032   */\n      tag_199\n      jump\t// in\n    tag_363:\n        /* \"#utility.yul\":15966:15967   */\n      0x01\n        /* \"#utility.yul\":15959:15964   */\n      dup2\n        /* \"#utility.yul\":15955:15968   */\n      add\n        /* \"#utility.yul\":15946:15968   */\n      swap1\n      pop\n        /* \"#utility.yul\":15922:16042   */\n      jump(tag_360)\n    tag_362:\n        /* \"#utility.yul\":15862:16048   */\n      pop\n      pop\n      jump\t// out\n        /* \"#utility.yul\":16054:16597   */\n    tag_201:\n        /* \"#utility.yul\":16155:16157   */\n      0x1f\n        /* \"#utility.yul\":16150:16153   */\n      dup3\n        /* \"#utility.yul\":16147:16158   */\n      gt\n        /* \"#utility.yul\":16144:16590   */\n      iszero\n      tag_365\n      jumpi\n        /* \"#utility.yul\":16189:16227   */\n      tag_366\n        /* \"#utility.yul\":16221:16226   */\n      dup2\n        /* \"#utility.yul\":16189:16227   */\n      tag_190\n      jump\t// in\n    tag_366:\n        /* \"#utility.yul\":16273:16302   */\n      tag_367\n        /* \"#utility.yul\":16291:16301   */\n      dup5\n        /* \"#utility.yul\":16273:16302   */\n      tag_191\n      jump\t// in\n    tag_367:\n        /* \"#utility.yul\":16263:16271   */\n      dup2\n        /* \"#utility.yul\":16259:16303   */\n      add\n        /* \"#utility.yul\":16456:16458   */\n      0x20\n        /* \"#utility.yul\":16444:16454   */\n      dup6\n        /* \"#utility.yul\":16441:16459   */\n      lt\n        /* \"#utility.yul\":16438:16487   */\n      iszero\n      tag_368\n      jumpi\n        /* \"#utility.yul\":16477:16485   */\n      dup2\n        /* \"#utility.yul\":16462:16485   */\n      swap1\n      pop\n        /* \"#utility.yul\":16438:16487   */\n    tag_368:\n        /* \"#utility.yul\":16500:16580   */\n      tag_369\n        /* \"#utility.yul\":16556:16578   */\n      tag_370\n        /* \"#utility.yul\":16574:16577   */\n      dup6\n        /* \"#utility.yul\":16556:16578   */\n      tag_191\n      jump\t// in\n    tag_370:\n        /* \"#utility.yul\":16546:16554   */\n      dup4\n        /* \"#utility.yul\":16542:16579   */\n      add\n        /* \"#utility.yul\":16529:16540   */\n      dup3\n        /* \"#utility.yul\":16500:16580   */\n      tag_200\n      jump\t// in\n    tag_369:\n        /* \"#utility.yul\":16159:16590   */\n      pop\n      pop\n        /* \"#utility.yul\":16144:16590   */\n    tag_365:\n        /* \"#utility.yul\":16054:16597   */\n      pop\n      pop\n      pop\n      jump\t// out\n        /* \"#utility.yul\":16603:16720   */\n    tag_202:\n        /* \"#utility.yul\":16657:16665   */\n      0x00\n        /* \"#utility.yul\":16707:16712   */\n      dup3\n        /* \"#utility.yul\":16701:16705   */\n      dup3\n        /* \"#utility.yul\":16697:16713   */\n      shr\n        /* \"#utility.yul\":16676:16713   */\n      swap1\n      pop\n        /* \"#utility.yul\":16603:16720   */\n      swap3\n      swap2\n      pop\n      pop\n      jump\t// out\n        /* \"#utility.yul\":16726:16895   */\n    tag_203:\n        /* \"#utility.yul\":16770:16776   */\n      0x00\n        /* \"#utility.yul\":16803:16854   */\n      tag_373\n        /* \"#utility.yul\":16851:16852   */\n      0x00\n        /* \"#utility.yul\":16847:16853   */\n      not\n        /* \"#utility.yul\":16839:16844   */\n      dup5\n        /* \"#utility.yul\":16836:16837   */\n      0x08\n        /* \"#utility.yul\":16832:16845   */\n      mul\n        /* \"#utility.yul\":16803:16854   */\n      tag_202\n      jump\t// in\n    tag_373:\n        /* \"#utility.yul\":16799:16855   */\n      not\n        /* \"#utility.yul\":16884:16888   */\n      dup1\n        /* \"#utility.yul\":16878:16882   */\n      dup4\n        /* \"#utility.yul\":16874:16889   */\n      and\n        /* \"#utility.yul\":16864:16889   */\n      swap2\n      pop\n        /* \"#utility.yul\":16777:16895   */\n      pop\n        /* \"#utility.yul\":16726:16895   */\n      swap3\n      swap2\n      pop\n      pop\n      jump\t// out\n        /* \"#utility.yul\":16900:17195   */\n    tag_204:\n        /* \"#utility.yul\":16976:16980   */\n      0x00\n        /* \"#utility.yul\":17122:17151   */\n      tag_375\n        /* \"#utility.yul\":17147:17150   */\n      dup4\n        /* \"#utility.yul\":17141:17145   */\n      dup4\n        /* \"#utility.yul\":17122:17151   */\n      tag_203\n      jump\t// in\n    tag_375:\n        /* \"#utility.yul\":17114:17151   */\n      swap2\n      pop\n        /* \"#utility.yul\":17184:17187   */\n      dup3\n        /* \"#utility.yul\":17181:17182   */\n      0x02\n        /* \"#utility.yul\":17177:17188   */\n      mul\n        /* \"#utility.yul\":17171:17175   */\n      dup3\n        /* \"#utility.yul\":17168:17189   */\n      or\n        /* \"#utility.yul\":17160:17189   */\n      swap1\n      pop\n        /* \"#utility.yul\":16900:17195   */\n      swap3\n      swap2\n      pop\n      pop\n      jump\t// out\n        /* \"#utility.yul\":17200:18595   */\n    tag_65:\n        /* \"#utility.yul\":17317:17354   */\n      tag_377\n        /* \"#utility.yul\":17350:17353   */\n      dup3\n        /* \"#utility.yul\":17317:17354   */\n      tag_170\n      jump\t// in\n    tag_377:\n        /* \"#utility.yul\":17419:17437   */\n      0xffffffffffffffff\n        /* \"#utility.yul\":17411:17417   */\n      dup2\n        /* \"#utility.yul\":17408:17438   */\n      gt\n        /* \"#utility.yul\":17405:17461   */\n      iszero\n      tag_378\n      jumpi\n        /* \"#utility.yul\":17441:17459   */\n      tag_379\n      tag_104\n      jump\t// in\n    tag_379:\n        /* \"#utility.yul\":17405:17461   */\n    tag_378:\n        /* \"#utility.yul\":17485:17523   */\n      tag_380\n        /* \"#utility.yul\":17517:17521   */\n      dup3\n        /* \"#utility.yul\":17511:17522   */\n      sload\n        /* \"#utility.yul\":17485:17523   */\n      tag_69\n      jump\t// in\n    tag_380:\n        /* \"#utility.yul\":17570:17637   */\n      tag_381\n        /* \"#utility.yul\":17630:17636   */\n      dup3\n        /* \"#utility.yul\":17622:17628   */\n      dup3\n        /* \"#utility.yul\":17616:17620   */\n      dup6\n        /* \"#utility.yul\":17570:17637   */\n      tag_201\n      jump\t// in\n    tag_381:\n        /* \"#utility.yul\":17664:17665   */\n      0x00\n        /* \"#utility.yul\":17688:17692   */\n      0x20\n        /* \"#utility.yul\":17675:17692   */\n      swap1\n      pop\n        /* \"#utility.yul\":17720:17722   */\n      0x1f\n        /* \"#utility.yul\":17712:17718   */\n      dup4\n        /* \"#utility.yul\":17709:17723   */\n      gt\n        /* \"#utility.yul\":17737:17738   */\n      0x01\n        /* \"#utility.yul\":17732:18350   */\n      dup2\n      eq\n      tag_383\n      jumpi\n        /* \"#utility.yul\":18394:18395   */\n      0x00\n        /* \"#utility.yul\":18411:18417   */\n      dup5\n        /* \"#utility.yul\":18408:18485   */\n      iszero\n      tag_384\n      jumpi\n        /* \"#utility.yul\":18460:18469   */\n      dup3\n        /* \"#utility.yul\":18455:18458   */\n      dup8\n        /* \"#utility.yul\":18451:18470   */\n      add\n        /* \"#utility.yul\":18445:18471   */\n      mload\n        /* \"#utility.yul\":18436:18471   */\n      swap1\n      pop\n        /* \"#utility.yul\":18408:18485   */\n    tag_384:\n        /* \"#utility.yul\":18511:18578   */\n      tag_385\n        /* \"#utility.yul\":18571:18577   */\n      dup6\n        /* \"#utility.yul\":18564:18569   */\n      dup3\n        /* \"#utility.yul\":18511:18578   */\n      tag_204\n      jump\t// in\n    tag_385:\n        /* \"#utility.yul\":18505:18509   */\n      dup7\n        /* \"#utility.yul\":18498:18579   */\n      sstore\n        /* \"#utility.yul\":18367:18589   */\n      pop\n        /* \"#utility.yul\":17702:18589   */\n      jump(tag_382)\n        /* \"#utility.yul\":17732:18350   */\n    tag_383:\n        /* \"#utility.yul\":17784:17788   */\n      0x1f\n        /* \"#utility.yul\":17780:17789   */\n      not\n        /* \"#utility.yul\":17772:17778   */\n      dup5\n        /* \"#utility.yul\":17768:17790   */\n      and\n        /* \"#utility.yul\":17818:17855   */\n      tag_386\n        /* \"#utility.yul\":17850:17854   */\n      dup7\n        /* \"#utility.yul\":17818:17855   */\n      tag_190\n      jump\t// in\n    tag_386:\n        /* \"#utility.yul\":17877:17878   */\n      0x00\n        /* \"#utility.yul\":17891:18099   */\n    tag_387:\n        /* \"#utility.yul\":17905:17912   */\n      dup3\n        /* \"#utility.yul\":17902:17903   */\n      dup2\n        /* \"#utility.yul\":17899:17913   */\n      lt\n        /* \"#utility.yul\":17891:18099   */\n      iszero\n      tag_389\n      jumpi\n        /* \"#utility.yul\":17984:17993   */\n      dup5\n        /* \"#utility.yul\":17979:17982   */\n      dup10\n        /* \"#utility.yul\":17975:17994   */\n      add\n        /* \"#utility.yul\":17969:17995   */\n      mload\n        /* \"#utility.yul\":17961:17967   */\n      dup3\n        /* \"#utility.yul\":17954:17996   */\n      sstore\n        /* \"#utility.yul\":18035:18036   */\n      0x01\n        /* \"#utility.yul\":18027:18033   */\n      dup3\n        /* \"#utility.yul\":18023:18037   */\n      add\n        /* \"#utility.yul\":18013:18037   */\n      swap2\n      pop\n        /* \"#utility.yul\":18082:18084   */\n      0x20\n        /* \"#utility.yul\":18071:18080   */\n      dup6\n        /* \"#utility.yul\":18067:18085   */\n      add\n        /* \"#utility.yul\":18054:18085   */\n      swap5\n      pop\n        /* \"#utility.yul\":17928:17932   */\n      0x20\n        /* \"#utility.yul\":17925:17926   */\n      dup2\n        /* \"#utility.yul\":17921:17933   */\n      add\n        /* \"#utility.yul\":17916:17933   */\n      swap1\n      pop\n        /* \"#utility.yul\":17891:18099   */\n      jump(tag_387)\n    tag_389:\n        /* \"#utility.yul\":18127:18133   */\n      dup7\n        /* \"#utility.yul\":18118:18125   */\n      dup4\n        /* \"#utility.yul\":18115:18134   */\n      lt\n        /* \"#utility.yul\":18112:18291   */\n      iszero\n      tag_390\n      jumpi\n        /* \"#utility.yul\":18185:18194   */\n      dup5\n        /* \"#utility.yul\":18180:18183   */\n      dup10\n        /* \"#utility.yul\":18176:18195   */\n      add\n        /* \"#utility.yul\":18170:18196   */\n      mload\n        /* \"#utility.yul\":18228:18276   */\n      tag_391\n        /* \"#utility.yul\":18270:18274   */\n      0x1f\n        /* \"#utility.yul\":18262:18268   */\n      dup10\n        /* \"#utility.yul\":18258:18275   */\n      and\n        /* \"#utility.yul\":18247:18256   */\n      dup3\n        /* \"#utility.yul\":18228:18276   */\n      tag_203\n      jump\t// in\n    tag_391:\n        /* \"#utility.yul\":18220:18226   */\n      dup4\n        /* \"#utility.yul\":18213:18277   */\n      sstore\n        /* \"#utility.yul\":18135:18291   */\n      pop\n        /* \"#utility.yul\":18112:18291   */\n    tag_390:\n        /* \"#utility.yul\":18337:18338   */\n      0x01\n        /* \"#utility.yul\":18333:18334   */\n      0x02\n        /* \"#utility.yul\":18325:18331   */\n      dup9\n        /* \"#utility.yul\":18321:18335   */\n      mul\n        /* \"#utility.yul\":18317:18339   */\n      add\n        /* \"#utility.yul\":18311:18315   */\n      dup9\n        /* \"#utility.yul\":18304:18340   */\n      sstore\n        /* \"#utility.yul\":17739:18350   */\n      pop\n      pop\n      pop\n        /* \"#utility.yul\":17702:18589   */\n    tag_382:\n      pop\n        /* \"#utility.yul\":17292:18595   */\n      pop\n      pop\n      pop\n        /* \"#utility.yul\":17200:18595   */\n      pop\n      pop\n      jump\t// out\n        /* \"#utility.yul\":18601:18781   */\n    tag_84:\n        /* \"#utility.yul\":18649:18726   */\n      0x4e487b7100000000000000000000000000000000000000000000000000000000\n        /* \"#utility.yul\":18646:18647   */\n      0x00\n        /* \"#utility.yul\":18639:18727   */\n      mstore\n        /* \"#utility.yul\":18746:18750   */\n      0x32\n        /* \"#utility.yul\":18743:18744   */\n      0x04\n        /* \"#utility.yul\":18736:18751   */\n      mstore\n        /* \"#utility.yul\":18770:18774   */\n      0x24\n        /* \"#utility.yul\":18767:18768   */\n      0x00\n        /* \"#utility.yul\":18760:18775   */\n      revert\n        /* \"#utility.yul\":18787:18967   */\n    tag_205:\n        /* \"#utility.yul\":18835:18912   */\n      0x4e487b7100000000000000000000000000000000000000000000000000000000\n        /* \"#utility.yul\":18832:18833   */\n      0x00\n        /* \"#utility.yul\":18825:18913   */\n      mstore\n        /* \"#utility.yul\":18932:18936   */\n      0x11\n        /* \"#utility.yul\":18929:18930   */\n      0x04\n        /* \"#utility.yul\":18922:18937   */\n      mstore\n        /* \"#utility.yul\":18956:18960   */\n      0x24\n        /* \"#utility.yul\":18953:18954   */\n      0x00\n        /* \"#utility.yul\":18946:18961   */\n      revert\n        /* \"#utility.yul\":18973:19167   */\n    tag_88:\n        /* \"#utility.yul\":19013:19017   */\n      0x00\n        /* \"#utility.yul\":19033:19053   */\n      tag_395\n        /* \"#utility.yul\":19051:19052   */\n      dup3\n        /* \"#utility.yul\":19033:19053   */\n      tag_156\n      jump\t// in\n    tag_395:\n        /* \"#utility.yul\":19028:19053   */\n      swap2\n      pop\n        /* \"#utility.yul\":19067:19087   */\n      tag_396\n        /* \"#utility.yul\":19085:19086   */\n      dup4\n        /* \"#utility.yul\":19067:19087   */\n      tag_156\n      jump\t// in\n    tag_396:\n        /* \"#utility.yul\":19062:19087   */\n      swap3\n      pop\n        /* \"#utility.yul\":19111:19112   */\n      dup3\n        /* \"#utility.yul\":19108:19109   */\n      dup3\n        /* \"#utility.yul\":19104:19113   */\n      sub\n        /* \"#utility.yul\":19096:19113   */\n      swap1\n      pop\n        /* \"#utility.yul\":19135:19136   */\n      dup2\n        /* \"#utility.yul\":19129:19133   */\n      dup2\n        /* \"#utility.yul\":19126:19137   */\n      gt\n        /* \"#utility.yul\":19123:19160   */\n      iszero\n      tag_397\n      jumpi\n        /* \"#utility.yul\":19140:19158   */\n      tag_398\n      tag_205\n      jump\t// in\n    tag_398:\n        /* \"#utility.yul\":19123:19160   */\n    tag_397:\n        /* \"#utility.yul\":18973:19167   */\n      swap3\n      swap2\n      pop\n      pop\n      jump\t// out\n        /* \"#utility.yul\":19173:19353   */\n    tag_97:\n        /* \"#utility.yul\":19221:19298   */\n      0x4e487b7100000000000000000000000000000000000000000000000000000000\n        /* \"#utility.yul\":19218:19219   */\n      0x00\n        /* \"#utility.yul\":19211:19299   */\n      mstore\n        /* \"#utility.yul\":19318:19322   */\n      0x31\n        /* \"#utility.yul\":19315:19316   */\n      0x04\n        /* \"#utility.yul\":19308:19323   */\n      mstore\n        /* \"#utility.yul\":19342:19346   */\n      0x24\n        /* \"#utility.yul\":19339:19340   */\n      0x00\n        /* \"#utility.yul\":19332:19347   */\n      revert\n        /* \"#utility.yul\":19359:19581   */\n    tag_100:\n        /* \"#utility.yul\":19452:19456   */\n      0x00\n        /* \"#utility.yul\":19490:19492   */\n      0x20\n        /* \"#utility.yul\":19479:19488   */\n      dup3\n        /* \"#utility.yul\":19475:19493   */\n      add\n        /* \"#utility.yul\":19467:19493   */\n      swap1\n      pop\n        /* \"#utility.yul\":19503:19574   */\n      tag_401\n        /* \"#utility.yul\":19571:19572   */\n      0x00\n        /* \"#utility.yul\":19560:19569   */\n      dup4\n        /* \"#utility.yul\":19556:19573   */\n      add\n        /* \"#utility.yul\":19547:19553   */\n      dup5\n        /* \"#utility.yul\":19503:19574   */\n      tag_169\n      jump\t// in\n    tag_401:\n        /* \"#utility.yul\":19359:19581   */\n      swap3\n      swap2\n      pop\n      pop\n      jump\t// out\n        /* \"#utility.yul\":19587:19763   */\n    tag_206:\n        /* \"#utility.yul\":19727:19755   */\n      0x43617465676f727920494420616c726561647920657869737473000000000000\n        /* \"#utility.yul\":19723:19724   */\n      0x00\n        /* \"#utility.yul\":19715:19721   */\n      dup3\n        /* \"#utility.yul\":19711:19725   */\n      add\n        /* \"#utility.yul\":19704:19756   */\n      mstore\n        /* \"#utility.yul\":19587:19763   */\n      pop\n      jump\t// out\n        /* \"#utility.yul\":19769:20135   */\n    tag_207:\n        /* \"#utility.yul\":19911:19914   */\n      0x00\n        /* \"#utility.yul\":19932:19999   */\n      tag_404\n        /* \"#utility.yul\":19996:19998   */\n      0x1a\n        /* \"#utility.yul\":19991:19994   */\n      dup4\n        /* \"#utility.yul\":19932:19999   */\n      tag_171\n      jump\t// in\n    tag_404:\n        /* \"#utility.yul\":19925:19999   */\n      swap2\n      pop\n        /* \"#utility.yul\":20008:20101   */\n      tag_405\n        /* \"#utility.yul\":20097:20100   */\n      dup3\n        /* \"#utility.yul\":20008:20101   */\n      tag_206\n      jump\t// in\n    tag_405:\n        /* \"#utility.yul\":20126:20128   */\n      0x20\n        /* \"#utility.yul\":20121:20124   */\n      dup3\n        /* \"#utility.yul\":20117:20129   */\n      add\n        /* \"#utility.yul\":20110:20129   */\n      swap1\n      pop\n        /* \"#utility.yul\":19769:20135   */\n      swap2\n      swap1\n      pop\n      jump\t// out\n        /* \"#utility.yul\":20141:20560   */\n    tag_136:\n        /* \"#utility.yul\":20307:20311   */\n      0x00\n        /* \"#utility.yul\":20345:20347   */\n      0x20\n        /* \"#utility.yul\":20334:20343   */\n      dup3\n        /* \"#utility.yul\":20330:20348   */\n      add\n        /* \"#utility.yul\":20322:20348   */\n      swap1\n      pop\n        /* \"#utility.yul\":20394:20403   */\n      dup2\n        /* \"#utility.yul\":20388:20392   */\n      dup2\n        /* \"#utility.yul\":20384:20404   */\n      sub\n        /* \"#utility.yul\":20380:20381   */\n      0x00\n        /* \"#utility.yul\":20369:20378   */\n      dup4\n        /* \"#utility.yul\":20365:20382   */\n      add\n        /* \"#utility.yul\":20358:20405   */\n      mstore\n        /* \"#utility.yul\":20422:20553   */\n      tag_407\n        /* \"#utility.yul\":20548:20552   */\n      dup2\n        /* \"#utility.yul\":20422:20553   */\n      tag_207\n      jump\t// in\n    tag_407:\n        /* \"#utility.yul\":20414:20553   */\n      swap1\n      pop\n        /* \"#utility.yul\":20141:20560   */\n      swap2\n      swap1\n      pop\n      jump\t// out\n\n    auxdata: 0xa264697066735822122057cf4bde50df144e90d6f067d259b5baebd6deeef37833b9317050cc06666bd164736f6c634300081e0033\n}\n",
				"bytecode": {
					"linkReferences": {},
					"object": "6080604052348015600e575f5ffd5b50335f5f6101000a81548173ffffffffffffffffffffffffffffffffffffffff021916908373ffffffffffffffffffffffffffffffffffffffff1602179055506114958061005b5f395ff3fe608060405234801561000f575f5ffd5b506004361061009c575f3560e01c8063c6cdbe5e11610064578063c6cdbe5e14610142578063ceca737f14610173578063dadd0a571461018f578063f3052d26146101ad578063f7868a52146101dd5761009c565b80631785f53c146100a057806324d7806c146100bc57806370480275146100ec57806378697e5b14610108578063893d20e814610124575b5f5ffd5b6100ba60048036038101906100b59190610aab565b6101f9565b005b6100d660048036038101906100d19190610aab565b610250565b6040516100e39190610af0565b60405180910390f35b61010660048036038101906101019190610aab565b61026d565b005b610122600480360381019061011d9190610c78565b6102c4565b005b61012c6103bb565b6040516101399190610ce1565b60405180910390f35b61015c60048036038101906101579190610cfa565b6103e2565b60405161016a929190610d94565b60405180910390f35b61018d60048036038101906101889190610cfa565b610488565b005b6101976105fb565b6040516101a49190610f0e565b60405180910390f35b6101c760048036038101906101c29190610cfa565b61076f565b6040516101d49190610f68565b60405180910390f35b6101f760048036038101906101f29190610c78565b610888565b005b5f60015f8373ffffffffffffffffffffffffffffffffffffffff1673ffffffffffffffffffffffffffffffffffffffff1681526020019081526020015f205f6101000a81548160ff02191690831515021790555050565b6001602052805f5260405f205f915054906101000a900460ff1681565b6001805f8373ffffffffffffffffffffffffffffffffffffffff1673ffffffffffffffffffffffffffffffffffffffff1681526020019081526020015f205f6101000a81548160ff02191690831515021790555050565b5f815111610307576040517f08c379a00000000000000000000000000000000000000000000000000000000081526004016102fe90610fd2565b60405180910390fd5b5f60025f8481526020019081526020015f205f01540361035c576040517f08c379a00000000000000000000000000000000000000000000000000000000081526004016103539061103a565b60405180910390fd5b8060025f8481526020019081526020015f20600101908161037d9190611255565b507f5bdd46fc25129a7ae160f84298da28664e8970f8874a02f19537b0313d8f8dc782826040516103af929190610d94565b60405180910390a15050565b5f5f5f9054906101000a900473ffffffffffffffffffffffffffffffffffffffff16905090565b6002602052805f5260405f205f91509050805f01549080600101805461040790611085565b80601f016020809104026020016040519081016040528092919081815260200182805461043390611085565b801561047e5780601f106104555761010080835404028352916020019161047e565b820191905f5260205f20905b81548152906001019060200180831161046157829003601f168201915b5050505050905082565b5f60025f8381526020019081526020015f205f0154036104dd576040517f08c379a00000000000000000000000000000000000000000000000000000000081526004016104d49061103a565b60405180910390fd5b60025f8281526020019081526020015f205f5f82015f9055600182015f61050491906109cf565b50505f5f90505b6003805490508110156105c057816003828154811061052d5761052c611324565b5b905f5260205f200154036105b3576003600160038054905061054f919061137e565b815481106105605761055f611324565b5b905f5260205f2001546003828154811061057d5761057c611324565b5b905f5260205f200181905550600380548061059b5761059a6113b1565b5b600190038181905f5260205f20015f905590556105c0565b808060010191505061050b565b507f510c8243d59e6c99aa1a4cf786d70d3e2e425109eb3870cc957ccb326a11ea97816040516105f091906113de565b60405180910390a150565b60605f60038054905067ffffffffffffffff81111561061d5761061c610b54565b5b60405190808252806020026020018201604052801561065657816020015b610643610a0c565b81526020019060019003908161063b5790505b5090505f5f90505b6003805490508110156107675760025f6003838154811061068257610681611324565b5b905f5260205f20015481526020019081526020015f206040518060400160405290815f82015481526020016001820180546106bc90611085565b80601f01602080910402602001604051908101604052809291908181526020018280546106e890611085565b80156107335780601f1061070a57610100808354040283529160200191610733565b820191905f5260205f20905b81548152906001019060200180831161071657829003601f168201915b50505050508152505082828151811061074f5761074e611324565b5b6020026020010181905250808060010191505061065e565b508091505090565b610777610a0c565b5f60025f8481526020019081526020015f205f0154036107cc576040517f08c379a00000000000000000000000000000000000000000000000000000000081526004016107c39061103a565b60405180910390fd5b60025f8381526020019081526020015f206040518060400160405290815f820154815260200160018201805461080190611085565b80601f016020809104026020016040519081016040528092919081815260200182805461082d90611085565b80156108785780601f1061084f57610100808354040283529160200191610878565b820191905f5260205f20905b81548152906001019060200180831161085b57829003601f168201915b5050505050815250509050919050565b5f8151116108cb576040517f08c379a00000000000000000000000000000000000000000000000000000000081526004016108c290610fd2565b60405180910390fd5b5f60025f8481526020019081526020015f205f015414610920576040517f08c379a000000000000000000000000000000000000000000000000000000000815260040161091790611441565b60405180910390fd5b5f60405180604001604052808481526020018381525090508060025f8581526020019081526020015f205f820151815f015560208201518160010190816109679190611255565b50905050600383908060018154018082558091505060019003905f5260205f20015f90919091909150557f11c167cc9b439f0ad8bec5588159f1b06b813bc38d50c867a41b23b077be2c1a83836040516109c2929190610d94565b60405180910390a1505050565b5080546109db90611085565b5f825580601f106109ec5750610a09565b601f0160209004905f5260205f2090810190610a089190610a25565b5b50565b60405180604001604052805f8152602001606081525090565b5b80821115610a3c575f815f905550600101610a26565b5090565b5f604051905090565b5f5ffd5b5f5ffd5b5f73ffffffffffffffffffffffffffffffffffffffff82169050919050565b5f610a7a82610a51565b9050919050565b610a8a81610a70565b8114610a94575f5ffd5b50565b5f81359050610aa581610a81565b92915050565b5f60208284031215610ac057610abf610a49565b5b5f610acd84828501610a97565b91505092915050565b5f8115159050919050565b610aea81610ad6565b82525050565b5f602082019050610b035f830184610ae1565b92915050565b5f819050919050565b610b1b81610b09565b8114610b25575f5ffd5b50565b5f81359050610b3681610b12565b92915050565b5f5ffd5b5f5ffd5b5f601f19601f8301169050919050565b7f4e487b71000000000000000000000000000000000000000000000000000000005f52604160045260245ffd5b610b8a82610b44565b810181811067ffffffffffffffff82111715610ba957610ba8610b54565b5b80604052505050565b5f610bbb610a40565b9050610bc78282610b81565b919050565b5f67ffffffffffffffff821115610be657610be5610b54565b5b610bef82610b44565b9050602081019050919050565b828183375f83830152505050565b5f610c1c610c1784610bcc565b610bb2565b905082815260208101848484011115610c3857610c37610b40565b5b610c43848285610bfc565b509392505050565b5f82601f830112610c5f57610c5e610b3c565b5b8135610c6f848260208601610c0a565b91505092915050565b5f5f60408385031215610c8e57610c8d610a49565b5b5f610c9b85828601610b28565b925050602083013567ffffffffffffffff811115610cbc57610cbb610a4d565b5b610cc885828601610c4b565b9150509250929050565b610cdb81610a70565b82525050565b5f602082019050610cf45f830184610cd2565b92915050565b5f60208284031215610d0f57610d0e610a49565b5b5f610d1c84828501610b28565b91505092915050565b610d2e81610b09565b82525050565b5f81519050919050565b5f82825260208201905092915050565b8281835e5f83830152505050565b5f610d6682610d34565b610d708185610d3e565b9350610d80818560208601610d4e565b610d8981610b44565b840191505092915050565b5f604082019050610da75f830185610d25565b8181036020830152610db98184610d5c565b90509392505050565b5f81519050919050565b5f82825260208201905092915050565b5f819050602082019050919050565b610df481610b09565b82525050565b5f82825260208201905092915050565b5f610e1482610d34565b610e1e8185610dfa565b9350610e2e818560208601610d4e565b610e3781610b44565b840191505092915050565b5f604083015f830151610e575f860182610deb565b5060208301518482036020860152610e6f8282610e0a565b9150508091505092915050565b5f610e878383610e42565b905092915050565b5f602082019050919050565b5f610ea582610dc2565b610eaf8185610dcc565b935083602082028501610ec185610ddc565b805f5b85811015610efc5784840389528151610edd8582610e7c565b9450610ee883610e8f565b925060208a01995050600181019050610ec4565b50829750879550505050505092915050565b5f6020820190508181035f830152610f268184610e9b565b905092915050565b5f604083015f830151610f435f860182610deb565b5060208301518482036020860152610f5b8282610e0a565b9150508091505092915050565b5f6020820190508181035f830152610f808184610f2e565b905092915050565b7f43617465676f7279206e616d652063616e6e6f7420626520656d7074790000005f82015250565b5f610fbc601d83610d3e565b9150610fc782610f88565b602082019050919050565b5f6020820190508181035f830152610fe981610fb0565b9050919050565b7f43617465676f727920646f6573206e6f742065786973740000000000000000005f82015250565b5f611024601783610d3e565b915061102f82610ff0565b602082019050919050565b5f6020820190508181035f83015261105181611018565b9050919050565b7f4e487b71000000000000000000000000000000000000000000000000000000005f52602260045260245ffd5b5f600282049050600182168061109c57607f821691505b6020821081036110af576110ae611058565b5b50919050565b5f819050815f5260205f209050919050565b5f6020601f8301049050919050565b5f82821b905092915050565b5f600883026111117fffffffffffffffffffffffffffffffffffffffffffffffffffffffffffffffff826110d6565b61111b86836110d6565b95508019841693508086168417925050509392505050565b5f819050919050565b5f61115661115161114c84610b09565b611133565b610b09565b9050919050565b5f819050919050565b61116f8361113c565b61118361117b8261115d565b8484546110e2565b825550505050565b5f5f905090565b61119a61118b565b6111a5818484611166565b505050565b5b818110156111c8576111bd5f82611192565b6001810190506111ab565b5050565b601f82111561120d576111de816110b5565b6111e7846110c7565b810160208510156111f6578190505b61120a611202856110c7565b8301826111aa565b50505b505050565b5f82821c905092915050565b5f61122d5f1984600802611212565b1980831691505092915050565b5f611245838361121e565b9150826002028217905092915050565b61125e82610d34565b67ffffffffffffffff81111561127757611276610b54565b5b6112818254611085565b61128c8282856111cc565b5f60209050601f8311600181146112bd575f84156112ab578287015190505b6112b5858261123a565b86555061131c565b601f1984166112cb866110b5565b5f5b828110156112f2578489015182556001820191506020850194506020810190506112cd565b8683101561130f578489015161130b601f89168261121e565b8355505b6001600288020188555050505b505050505050565b7f4e487b71000000000000000000000000000000000000000000000000000000005f52603260045260245ffd5b7f4e487b71000000000000000000000000000000000000000000000000000000005f52601160045260245ffd5b5f61138882610b09565b915061139383610b09565b92508282039050818111156113ab576113aa611351565b5b92915050565b7f4e487b71000000000000000000000000000000000000000000000000000000005f52603160045260245ffd5b5f6020820190506113f15f830184610d25565b92915050565b7f43617465676f727920494420616c7265616479206578697374730000000000005f82015250565b5f61142b601a83610d3e565b9150611436826113f7565b602082019050919050565b5f6020820190508181035f8301526114588161141f565b905091905056fea264697066735822122057cf4bde50df144e90d6f067d259b5baebd6deeef37833b9317050cc06666bd164736f6c634300081e0033",
					"opcodes": "PUSH1 0x80 PUSH1 0x40 MSTORE CALLVALUE DUP1 ISZERO PUSH1 0xE JUMPI PUSH0 PUSH0 REVERT JUMPDEST POP CALLER PUSH0 PUSH0 PUSH2 0x100 EXP DUP2 SLOAD DUP2 PUSH20 0xFFFFFFFFFFFFFFFFFFFFFFFFFFFFFFFFFFFFFFFF MUL NOT AND SWAP1 DUP4 PUSH20 0xFFFFFFFFFFFFFFFFFFFFFFFFFFFFFFFFFFFFFFFF AND MUL OR SWAP1 SSTORE POP PUSH2 0x1495 DUP1 PUSH2 0x5B PUSH0 CODECOPY PUSH0 RETURN INVALID PUSH1 0x80 PUSH1 0x40 MSTORE CALLVALUE DUP1 ISZERO PUSH2 0xF JUMPI PUSH0 PUSH0 REVERT JUMPDEST POP PUSH1 0x4 CALLDATASIZE LT PUSH2 0x9C JUMPI PUSH0 CALLDATALOAD PUSH1 0xE0 SHR DUP1 PUSH4 0xC6CDBE5E GT PUSH2 0x64 JUMPI DUP1 PUSH4 0xC6CDBE5E EQ PUSH2 0x142 JUMPI DUP1 PUSH4 0xCECA737F EQ PUSH2 0x173 JUMPI DUP1 PUSH4 0xDADD0A57 EQ PUSH2 0x18F JUMPI DUP1 PUSH4 0xF3052D26 EQ PUSH2 0x1AD JUMPI DUP1 PUSH4 0xF7868A52 EQ PUSH2 0x1DD JUMPI PUSH2 0x9C JUMP JUMPDEST DUP1 PUSH4 0x1785F53C EQ PUSH2 0xA0 JUMPI DUP1 PUSH4 0x24D7806C EQ PUSH2 0xBC JUMPI DUP1 PUSH4 0x70480275 EQ PUSH2 0xEC JUMPI DUP1 PUSH4 0x78697E5B EQ PUSH2 0x108 JUMPI DUP1 PUSH4 0x893D20E8 EQ PUSH2 0x124 JUMPI JUMPDEST PUSH0 PUSH0 REVERT JUMPDEST PUSH2 0xBA PUSH1 0x4 DUP1 CALLDATASIZE SUB DUP2 ADD SWAP1 PUSH2 0xB5 SWAP2 SWAP1 PUSH2 0xAAB JUMP JUMPDEST PUSH2 0x1F9 JUMP JUMPDEST STOP JUMPDEST PUSH2 0xD6 PUSH1 0x4 DUP1 CALLDATASIZE SUB DUP2 ADD SWAP1 PUSH2 0xD1 SWAP2 SWAP1 PUSH2 0xAAB JUMP JUMPDEST PUSH2 0x250 JUMP JUMPDEST PUSH1 0x40 MLOAD PUSH2 0xE3 SWAP2 SWAP1 PUSH2 0xAF0 JUMP JUMPDEST PUSH1 0x40 MLOAD DUP1 SWAP2 SUB SWAP1 RETURN JUMPDEST PUSH2 0x106 PUSH1 0x4 DUP1 CALLDATASIZE SUB DUP2 ADD SWAP1 PUSH2 0x101 SWAP2 SWAP1 PUSH2 0xAAB JUMP JUMPDEST PUSH2 0x26D JUMP JUMPDEST STOP JUMPDEST PUSH2 0x122 PUSH1 0x4 DUP1 CALLDATASIZE SUB DUP2 ADD SWAP1 PUSH2 0x11D SWAP2 SWAP1 PUSH2 0xC78 JUMP JUMPDEST PUSH2 0x2C4 JUMP JUMPDEST STOP JUMPDEST PUSH2 0x12C PUSH2 0x3BB JUMP JUMPDEST PUSH1 0x40 MLOAD PUSH2 0x139 SWAP2 SWAP1 PUSH2 0xCE1 JUMP JUMPDEST PUSH1 0x40 MLOAD DUP1 SWAP2 SUB SWAP1 RETURN JUMPDEST PUSH2 0x15C PUSH1 0x4 DUP1 CALLDATASIZE SUB DUP2 ADD SWAP1 PUSH2 0x157 SWAP2 SWAP1 PUSH2 0xCFA JUMP JUMPDEST PUSH2 0x3E2 JUMP JUMPDEST PUSH1 0x40 MLOAD PUSH2 0x16A SWAP3 SWAP2 SWAP1 PUSH2 0xD94 JUMP JUMPDEST PUSH1 0x40 MLOAD DUP1 SWAP2 SUB SWAP1 RETURN JUMPDEST PUSH2 0x18D PUSH1 0x4 DUP1 CALLDATASIZE SUB DUP2 ADD SWAP1 PUSH2 0x188 SWAP2 SWAP1 PUSH2 0xCFA JUMP JUMPDEST PUSH2 0x488 JUMP JUMPDEST STOP JUMPDEST PUSH2 0x197 PUSH2 0x5FB JUMP JUMPDEST PUSH1 0x40 MLOAD PUSH2 0x1A4 SWAP2 SWAP1 PUSH2 0xF0E JUMP JUMPDEST PUSH1 0x40 MLOAD DUP1 SWAP2 SUB SWAP1 RETURN JUMPDEST PUSH2 0x1C7 PUSH1 0x4 DUP1 CALLDATASIZE SUB DUP2 ADD SWAP1 PUSH2 0x1C2 SWAP2 SWAP1 PUSH2 0xCFA JUMP JUMPDEST PUSH2 0x76F JUMP JUMPDEST PUSH1 0x40 MLOAD PUSH2 0x1D4 SWAP2 SWAP1 PUSH2 0xF68 JUMP JUMPDEST PUSH1 0x40 MLOAD DUP1 SWAP2 SUB SWAP1 RETURN JUMPDEST PUSH2 0x1F7 PUSH1 0x4 DUP1 CALLDATASIZE SUB DUP2 ADD SWAP1 PUSH2 0x1F2 SWAP2 SWAP1 PUSH2 0xC78 JUMP JUMPDEST PUSH2 0x888 JUMP JUMPDEST STOP JUMPDEST PUSH0 PUSH1 0x1 PUSH0 DUP4 PUSH20 0xFFFFFFFFFFFFFFFFFFFFFFFFFFFFFFFFFFFFFFFF AND PUSH20 0xFFFFFFFFFFFFFFFFFFFFFFFFFFFFFFFFFFFFFFFF AND DUP2 MSTORE PUSH1 0x20 ADD SWAP1 DUP2 MSTORE PUSH1 0x20 ADD PUSH0 KECCAK256 PUSH0 PUSH2 0x100 EXP DUP2 SLOAD DUP2 PUSH1 0xFF MUL NOT AND SWAP1 DUP4 ISZERO ISZERO MUL OR SWAP1 SSTORE POP POP JUMP JUMPDEST PUSH1 0x1 PUSH1 0x20 MSTORE DUP1 PUSH0 MSTORE PUSH1 0x40 PUSH0 KECCAK256 PUSH0 SWAP2 POP SLOAD SWAP1 PUSH2 0x100 EXP SWAP1 DIV PUSH1 0xFF AND DUP2 JUMP JUMPDEST PUSH1 0x1 DUP1 PUSH0 DUP4 PUSH20 0xFFFFFFFFFFFFFFFFFFFFFFFFFFFFFFFFFFFFFFFF AND PUSH20 0xFFFFFFFFFFFFFFFFFFFFFFFFFFFFFFFFFFFFFFFF AND DUP2 MSTORE PUSH1 0x20 ADD SWAP1 DUP2 MSTORE PUSH1 0x20 ADD PUSH0 KECCAK256 PUSH0 PUSH2 0x100 EXP DUP2 SLOAD DUP2 PUSH1 0xFF MUL NOT AND SWAP1 DUP4 ISZERO ISZERO MUL OR SWAP1 SSTORE POP POP JUMP JUMPDEST PUSH0 DUP2 MLOAD GT PUSH2 0x307 JUMPI PUSH1 0x40 MLOAD PUSH32 0x8C379A000000000000000000000000000000000000000000000000000000000 DUP2 MSTORE PUSH1 0x4 ADD PUSH2 0x2FE SWAP1 PUSH2 0xFD2 JUMP JUMPDEST PUSH1 0x40 MLOAD DUP1 SWAP2 SUB SWAP1 REVERT JUMPDEST PUSH0 PUSH1 0x2 PUSH0 DUP5 DUP2 MSTORE PUSH1 0x20 ADD SWAP1 DUP2 MSTORE PUSH1 0x20 ADD PUSH0 KECCAK256 PUSH0 ADD SLOAD SUB PUSH2 0x35C JUMPI PUSH1 0x40 MLOAD PUSH32 0x8C379A000000000000000000000000000000000000000000000000000000000 DUP2 MSTORE PUSH1 0x4 ADD PUSH2 0x353 SWAP1 PUSH2 0x103A JUMP JUMPDEST PUSH1 0x40 MLOAD DUP1 SWAP2 SUB SWAP1 REVERT JUMPDEST DUP1 PUSH1 0x2 PUSH0 DUP5 DUP2 MSTORE PUSH1 0x20 ADD SWAP1 DUP2 MSTORE PUSH1 0x20 ADD PUSH0 KECCAK256 PUSH1 0x1 ADD SWAP1 DUP2 PUSH2 0x37D SWAP2 SWAP1 PUSH2 0x1255 JUMP JUMPDEST POP PUSH32 0x5BDD46FC25129A7AE160F84298DA28664E8970F8874A02F19537B0313D8F8DC7 DUP3 DUP3 PUSH1 0x40 MLOAD PUSH2 0x3AF SWAP3 SWAP2 SWAP1 PUSH2 0xD94 JUMP JUMPDEST PUSH1 0x40 MLOAD DUP1 SWAP2 SUB SWAP1 LOG1 POP POP JUMP JUMPDEST PUSH0 PUSH0 PUSH0 SWAP1 SLOAD SWAP1 PUSH2 0x100 EXP SWAP1 DIV PUSH20 0xFFFFFFFFFFFFFFFFFFFFFFFFFFFFFFFFFFFFFFFF AND SWAP1 POP SWAP1 JUMP JUMPDEST PUSH1 0x2 PUSH1 0x20 MSTORE DUP1 PUSH0 MSTORE PUSH1 0x40 PUSH0 KECCAK256 PUSH0 SWAP2 POP SWAP1 POP DUP1 PUSH0 ADD SLOAD SWAP1 DUP1 PUSH1 0x1 ADD DUP1 SLOAD PUSH2 0x407 SWAP1 PUSH2 0x1085 JUMP JUMPDEST DUP1 PUSH1 0x1F ADD PUSH1 0x20 DUP1 SWAP2 DIV MUL PUSH1 0x20 ADD PUSH1 0x40 MLOAD SWAP1 DUP2 ADD PUSH1 0x40 MSTORE DUP1 SWAP3 SWAP2 SWAP1 DUP2 DUP2 MSTORE PUSH1 0x20 ADD DUP3 DUP1 SLOAD PUSH2 0x433 SWAP1 PUSH2 0x1085 JUMP JUMPDEST DUP1 ISZERO PUSH2 0x47E JUMPI DUP1 PUSH1 0x1F LT PUSH2 0x455 JUMPI PUSH2 0x100 DUP1 DUP4 SLOAD DIV MUL DUP4 MSTORE SWAP2 PUSH1 0x20 ADD SWAP2 PUSH2 0x47E JUMP JUMPDEST DUP3 ADD SWAP2 SWAP1 PUSH0 MSTORE PUSH1 0x20 PUSH0 KECCAK256 SWAP1 JUMPDEST DUP2 SLOAD DUP2 MSTORE SWAP1 PUSH1 0x1 ADD SWAP1 PUSH1 0x20 ADD DUP1 DUP4 GT PUSH2 0x461 JUMPI DUP3 SWAP1 SUB PUSH1 0x1F AND DUP3 ADD SWAP2 JUMPDEST POP POP POP POP POP SWAP1 POP DUP3 JUMP JUMPDEST PUSH0 PUSH1 0x2 PUSH0 DUP4 DUP2 MSTORE PUSH1 0x20 ADD SWAP1 DUP2 MSTORE PUSH1 0x20 ADD PUSH0 KECCAK256 PUSH0 ADD SLOAD SUB PUSH2 0x4DD JUMPI PUSH1 0x40 MLOAD PUSH32 0x8C379A000000000000000000000000000000000000000000000000000000000 DUP2 MSTORE PUSH1 0x4 ADD PUSH2 0x4D4 SWAP1 PUSH2 0x103A JUMP JUMPDEST PUSH1 0x40 MLOAD DUP1 SWAP2 SUB SWAP1 REVERT JUMPDEST PUSH1 0x2 PUSH0 DUP3 DUP2 MSTORE PUSH1 0x20 ADD SWAP1 DUP2 MSTORE PUSH1 0x20 ADD PUSH0 KECCAK256 PUSH0 PUSH0 DUP3 ADD PUSH0 SWAP1 SSTORE PUSH1 0x1 DUP3 ADD PUSH0 PUSH2 0x504 SWAP2 SWAP1 PUSH2 0x9CF JUMP JUMPDEST POP POP PUSH0 PUSH0 SWAP1 POP JUMPDEST PUSH1 0x3 DUP1 SLOAD SWAP1 POP DUP2 LT ISZERO PUSH2 0x5C0 JUMPI DUP2 PUSH1 0x3 DUP3 DUP2 SLOAD DUP2 LT PUSH2 0x52D JUMPI PUSH2 0x52C PUSH2 0x1324 JUMP JUMPDEST JUMPDEST SWAP1 PUSH0 MSTORE PUSH1 0x20 PUSH0 KECCAK256 ADD SLOAD SUB PUSH2 0x5B3 JUMPI PUSH1 0x3 PUSH1 0x1 PUSH1 0x3 DUP1 SLOAD SWAP1 POP PUSH2 0x54F SWAP2 SWAP1 PUSH2 0x137E JUMP JUMPDEST DUP2 SLOAD DUP2 LT PUSH2 0x560 JUMPI PUSH2 0x55F PUSH2 0x1324 JUMP JUMPDEST JUMPDEST SWAP1 PUSH0 MSTORE PUSH1 0x20 PUSH0 KECCAK256 ADD SLOAD PUSH1 0x3 DUP3 DUP2 SLOAD DUP2 LT PUSH2 0x57D JUMPI PUSH2 0x57C PUSH2 0x1324 JUMP JUMPDEST JUMPDEST SWAP1 PUSH0 MSTORE PUSH1 0x20 PUSH0 KECCAK256 ADD DUP2 SWAP1 SSTORE POP PUSH1 0x3 DUP1 SLOAD DUP1 PUSH2 0x59B JUMPI PUSH2 0x59A PUSH2 0x13B1 JUMP JUMPDEST JUMPDEST PUSH1 0x1 SWAP1 SUB DUP2 DUP2 SWAP1 PUSH0 MSTORE PUSH1 0x20 PUSH0 KECCAK256 ADD PUSH0 SWAP1 SSTORE SWAP1 SSTORE PUSH2 0x5C0 JUMP JUMPDEST DUP1 DUP1 PUSH1 0x1 ADD SWAP2 POP POP PUSH2 0x50B JUMP JUMPDEST POP PUSH32 0x510C8243D59E6C99AA1A4CF786D70D3E2E425109EB3870CC957CCB326A11EA97 DUP2 PUSH1 0x40 MLOAD PUSH2 0x5F0 SWAP2 SWAP1 PUSH2 0x13DE JUMP JUMPDEST PUSH1 0x40 MLOAD DUP1 SWAP2 SUB SWAP1 LOG1 POP JUMP JUMPDEST PUSH1 0x60 PUSH0 PUSH1 0x3 DUP1 SLOAD SWAP1 POP PUSH8 0xFFFFFFFFFFFFFFFF DUP2 GT ISZERO PUSH2 0x61D JUMPI PUSH2 0x61C PUSH2 0xB54 JUMP JUMPDEST JUMPDEST PUSH1 0x40 MLOAD SWAP1 DUP1 DUP3 MSTORE DUP1 PUSH1 0x20 MUL PUSH1 0x20 ADD DUP3 ADD PUSH1 0x40 MSTORE DUP1 ISZERO PUSH2 0x656 JUMPI DUP2 PUSH1 0x20 ADD JUMPDEST PUSH2 0x643 PUSH2 0xA0C JUMP JUMPDEST DUP2 MSTORE PUSH1 0x20 ADD SWAP1 PUSH1 0x1 SWAP1 SUB SWAP1 DUP2 PUSH2 0x63B JUMPI SWAP1 POP JUMPDEST POP SWAP1 POP PUSH0 PUSH0 SWAP1 POP JUMPDEST PUSH1 0x3 DUP1 SLOAD SWAP1 POP DUP2 LT ISZERO PUSH2 0x767 JUMPI PUSH1 0x2 PUSH0 PUSH1 0x3 DUP4 DUP2 SLOAD DUP2 LT PUSH2 0x682 JUMPI PUSH2 0x681 PUSH2 0x1324 JUMP JUMPDEST JUMPDEST SWAP1 PUSH0 MSTORE PUSH1 0x20 PUSH0 KECCAK256 ADD SLOAD DUP2 MSTORE PUSH1 0x20 ADD SWAP1 DUP2 MSTORE PUSH1 0x20 ADD PUSH0 KECCAK256 PUSH1 0x40 MLOAD DUP1 PUSH1 0x40 ADD PUSH1 0x40 MSTORE SWAP1 DUP2 PUSH0 DUP3 ADD SLOAD DUP2 MSTORE PUSH1 0x20 ADD PUSH1 0x1 DUP3 ADD DUP1 SLOAD PUSH2 0x6BC SWAP1 PUSH2 0x1085 JUMP JUMPDEST DUP1 PUSH1 0x1F ADD PUSH1 0x20 DUP1 SWAP2 DIV MUL PUSH1 0x20 ADD PUSH1 0x40 MLOAD SWAP1 DUP2 ADD PUSH1 0x40 MSTORE DUP1 SWAP3 SWAP2 SWAP1 DUP2 DUP2 MSTORE PUSH1 0x20 ADD DUP3 DUP1 SLOAD PUSH2 0x6E8 SWAP1 PUSH2 0x1085 JUMP JUMPDEST DUP1 ISZERO PUSH2 0x733 JUMPI DUP1 PUSH1 0x1F LT PUSH2 0x70A JUMPI PUSH2 0x100 DUP1 DUP4 SLOAD DIV MUL DUP4 MSTORE SWAP2 PUSH1 0x20 ADD SWAP2 PUSH2 0x733 JUMP JUMPDEST DUP3 ADD SWAP2 SWAP1 PUSH0 MSTORE PUSH1 0x20 PUSH0 KECCAK256 SWAP1 JUMPDEST DUP2 SLOAD DUP2 MSTORE SWAP1 PUSH1 0x1 ADD SWAP1 PUSH1 0x20 ADD DUP1 DUP4 GT PUSH2 0x716 JUMPI DUP3 SWAP1 SUB PUSH1 0x1F AND DUP3 ADD SWAP2 JUMPDEST POP POP POP POP POP DUP2 MSTORE POP POP DUP3 DUP3 DUP2 MLOAD DUP2 LT PUSH2 0x74F JUMPI PUSH2 0x74E PUSH2 0x1324 JUMP JUMPDEST JUMPDEST PUSH1 0x20 MUL PUSH1 0x20 ADD ADD DUP2 SWAP1 MSTORE POP DUP1 DUP1 PUSH1 0x1 ADD SWAP2 POP POP PUSH2 0x65E JUMP JUMPDEST POP DUP1 SWAP2 POP POP SWAP1 JUMP JUMPDEST PUSH2 0x777 PUSH2 0xA0C JUMP JUMPDEST PUSH0 PUSH1 0x2 PUSH0 DUP5 DUP2 MSTORE PUSH1 0x20 ADD SWAP1 DUP2 MSTORE PUSH1 0x20 ADD PUSH0 KECCAK256 PUSH0 ADD SLOAD SUB PUSH2 0x7CC JUMPI PUSH1 0x40 MLOAD PUSH32 0x8C379A000000000000000000000000000000000000000000000000000000000 DUP2 MSTORE PUSH1 0x4 ADD PUSH2 0x7C3 SWAP1 PUSH2 0x103A JUMP JUMPDEST PUSH1 0x40 MLOAD DUP1 SWAP2 SUB SWAP1 REVERT JUMPDEST PUSH1 0x2 PUSH0 DUP4 DUP2 MSTORE PUSH1 0x20 ADD SWAP1 DUP2 MSTORE PUSH1 0x20 ADD PUSH0 KECCAK256 PUSH1 0x40 MLOAD DUP1 PUSH1 0x40 ADD PUSH1 0x40 MSTORE SWAP1 DUP2 PUSH0 DUP3 ADD SLOAD DUP2 MSTORE PUSH1 0x20 ADD PUSH1 0x1 DUP3 ADD DUP1 SLOAD PUSH2 0x801 SWAP1 PUSH2 0x1085 JUMP JUMPDEST DUP1 PUSH1 0x1F ADD PUSH1 0x20 DUP1 SWAP2 DIV MUL PUSH1 0x20 ADD PUSH1 0x40 MLOAD SWAP1 DUP2 ADD PUSH1 0x40 MSTORE DUP1 SWAP3 SWAP2 SWAP1 DUP2 DUP2 MSTORE PUSH1 0x20 ADD DUP3 DUP1 SLOAD PUSH2 0x82D SWAP1 PUSH2 0x1085 JUMP JUMPDEST DUP1 ISZERO PUSH2 0x878 JUMPI DUP1 PUSH1 0x1F LT PUSH2 0x84F JUMPI PUSH2 0x100 DUP1 DUP4 SLOAD DIV MUL DUP4 MSTORE SWAP2 PUSH1 0x20 ADD SWAP2 PUSH2 0x878 JUMP JUMPDEST DUP3 ADD SWAP2 SWAP1 PUSH0 MSTORE PUSH1 0x20 PUSH0 KECCAK256 SWAP1 JUMPDEST DUP2 SLOAD DUP2 MSTORE SWAP1 PUSH1 0x1 ADD SWAP1 PUSH1 0x20 ADD DUP1 DUP4 GT PUSH2 0x85B JUMPI DUP3 SWAP1 SUB PUSH1 0x1F AND DUP3 ADD SWAP2 JUMPDEST POP POP POP POP POP DUP2 MSTORE POP POP SWAP1 POP SWAP2 SWAP1 POP JUMP JUMPDEST PUSH0 DUP2 MLOAD GT PUSH2 0x8CB JUMPI PUSH1 0x40 MLOAD PUSH32 0x8C379A000000000000000000000000000000000000000000000000000000000 DUP2 MSTORE PUSH1 0x4 ADD PUSH2 0x8C2 SWAP1 PUSH2 0xFD2 JUMP JUMPDEST PUSH1 0x40 MLOAD DUP1 SWAP2 SUB SWAP1 REVERT JUMPDEST PUSH0 PUSH1 0x2 PUSH0 DUP5 DUP2 MSTORE PUSH1 0x20 ADD SWAP1 DUP2 MSTORE PUSH1 0x20 ADD PUSH0 KECCAK256 PUSH0 ADD SLOAD EQ PUSH2 0x920 JUMPI PUSH1 0x40 MLOAD PUSH32 0x8C379A000000000000000000000000000000000000000000000000000000000 DUP2 MSTORE PUSH1 0x4 ADD PUSH2 0x917 SWAP1 PUSH2 0x1441 JUMP JUMPDEST PUSH1 0x40 MLOAD DUP1 SWAP2 SUB SWAP1 REVERT JUMPDEST PUSH0 PUSH1 0x40 MLOAD DUP1 PUSH1 0x40 ADD PUSH1 0x40 MSTORE DUP1 DUP5 DUP2 MSTORE PUSH1 0x20 ADD DUP4 DUP2 MSTORE POP SWAP1 POP DUP1 PUSH1 0x2 PUSH0 DUP6 DUP2 MSTORE PUSH1 0x20 ADD SWAP1 DUP2 MSTORE PUSH1 0x20 ADD PUSH0 KECCAK256 PUSH0 DUP3 ADD MLOAD DUP2 PUSH0 ADD SSTORE PUSH1 0x20 DUP3 ADD MLOAD DUP2 PUSH1 0x1 ADD SWAP1 DUP2 PUSH2 0x967 SWAP2 SWAP1 PUSH2 0x1255 JUMP JUMPDEST POP SWAP1 POP POP PUSH1 0x3 DUP4 SWAP1 DUP1 PUSH1 0x1 DUP2 SLOAD ADD DUP1 DUP3 SSTORE DUP1 SWAP2 POP POP PUSH1 0x1 SWAP1 SUB SWAP1 PUSH0 MSTORE PUSH1 0x20 PUSH0 KECCAK256 ADD PUSH0 SWAP1 SWAP2 SWAP1 SWAP2 SWAP1 SWAP2 POP SSTORE PUSH32 0x11C167CC9B439F0AD8BEC5588159F1B06B813BC38D50C867A41B23B077BE2C1A DUP4 DUP4 PUSH1 0x40 MLOAD PUSH2 0x9C2 SWAP3 SWAP2 SWAP1 PUSH2 0xD94 JUMP JUMPDEST PUSH1 0x40 MLOAD DUP1 SWAP2 SUB SWAP1 LOG1 POP POP POP JUMP JUMPDEST POP DUP1 SLOAD PUSH2 0x9DB SWAP1 PUSH2 0x1085 JUMP JUMPDEST PUSH0 DUP3 SSTORE DUP1 PUSH1 0x1F LT PUSH2 0x9EC JUMPI POP PUSH2 0xA09 JUMP JUMPDEST PUSH1 0x1F ADD PUSH1 0x20 SWAP1 DIV SWAP1 PUSH0 MSTORE PUSH1 0x20 PUSH0 KECCAK256 SWAP1 DUP2 ADD SWAP1 PUSH2 0xA08 SWAP2 SWAP1 PUSH2 0xA25 JUMP JUMPDEST JUMPDEST POP JUMP JUMPDEST PUSH1 0x40 MLOAD DUP1 PUSH1 0x40 ADD PUSH1 0x40 MSTORE DUP1 PUSH0 DUP2 MSTORE PUSH1 0x20 ADD PUSH1 0x60 DUP2 MSTORE POP SWAP1 JUMP JUMPDEST JUMPDEST DUP1 DUP3 GT ISZERO PUSH2 0xA3C JUMPI PUSH0 DUP2 PUSH0 SWAP1 SSTORE POP PUSH1 0x1 ADD PUSH2 0xA26 JUMP JUMPDEST POP SWAP1 JUMP JUMPDEST PUSH0 PUSH1 0x40 MLOAD SWAP1 POP SWAP1 JUMP JUMPDEST PUSH0 PUSH0 REVERT JUMPDEST PUSH0 PUSH0 REVERT JUMPDEST PUSH0 PUSH20 0xFFFFFFFFFFFFFFFFFFFFFFFFFFFFFFFFFFFFFFFF DUP3 AND SWAP1 POP SWAP2 SWAP1 POP JUMP JUMPDEST PUSH0 PUSH2 0xA7A DUP3 PUSH2 0xA51 JUMP JUMPDEST SWAP1 POP SWAP2 SWAP1 POP JUMP JUMPDEST PUSH2 0xA8A DUP2 PUSH2 0xA70 JUMP JUMPDEST DUP2 EQ PUSH2 0xA94 JUMPI PUSH0 PUSH0 REVERT JUMPDEST POP JUMP JUMPDEST PUSH0 DUP2 CALLDATALOAD SWAP1 POP PUSH2 0xAA5 DUP2 PUSH2 0xA81 JUMP JUMPDEST SWAP3 SWAP2 POP POP JUMP JUMPDEST PUSH0 PUSH1 0x20 DUP3 DUP5 SUB SLT ISZERO PUSH2 0xAC0 JUMPI PUSH2 0xABF PUSH2 0xA49 JUMP JUMPDEST JUMPDEST PUSH0 PUSH2 0xACD DUP5 DUP3 DUP6 ADD PUSH2 0xA97 JUMP JUMPDEST SWAP2 POP POP SWAP3 SWAP2 POP POP JUMP JUMPDEST PUSH0 DUP2 ISZERO ISZERO SWAP1 POP SWAP2 SWAP1 POP JUMP JUMPDEST PUSH2 0xAEA DUP2 PUSH2 0xAD6 JUMP JUMPDEST DUP3 MSTORE POP POP JUMP JUMPDEST PUSH0 PUSH1 0x20 DUP3 ADD SWAP1 POP PUSH2 0xB03 PUSH0 DUP4 ADD DUP5 PUSH2 0xAE1 JUMP JUMPDEST SWAP3 SWAP2 POP POP JUMP JUMPDEST PUSH0 DUP2 SWAP1 POP SWAP2 SWAP1 POP JUMP JUMPDEST PUSH2 0xB1B DUP2 PUSH2 0xB09 JUMP JUMPDEST DUP2 EQ PUSH2 0xB25 JUMPI PUSH0 PUSH0 REVERT JUMPDEST POP JUMP JUMPDEST PUSH0 DUP2 CALLDATALOAD SWAP1 POP PUSH2 0xB36 DUP2 PUSH2 0xB12 JUMP JUMPDEST SWAP3 SWAP2 POP POP JUMP JUMPDEST PUSH0 PUSH0 REVERT JUMPDEST PUSH0 PUSH0 REVERT JUMPDEST PUSH0 PUSH1 0x1F NOT PUSH1 0x1F DUP4 ADD AND SWAP1 POP SWAP2 SWAP1 POP JUMP JUMPDEST PUSH32 0x4E487B7100000000000000000000000000000000000000000000000000000000 PUSH0 MSTORE PUSH1 0x41 PUSH1 0x4 MSTORE PUSH1 0x24 PUSH0 REVERT JUMPDEST PUSH2 0xB8A DUP3 PUSH2 0xB44 JUMP JUMPDEST DUP2 ADD DUP2 DUP2 LT PUSH8 0xFFFFFFFFFFFFFFFF DUP3 GT OR ISZERO PUSH2 0xBA9 JUMPI PUSH2 0xBA8 PUSH2 0xB54 JUMP JUMPDEST JUMPDEST DUP1 PUSH1 0x40 MSTORE POP POP POP JUMP JUMPDEST PUSH0 PUSH2 0xBBB PUSH2 0xA40 JUMP JUMPDEST SWAP1 POP PUSH2 0xBC7 DUP3 DUP3 PUSH2 0xB81 JUMP JUMPDEST SWAP2 SWAP1 POP JUMP JUMPDEST PUSH0 PUSH8 0xFFFFFFFFFFFFFFFF DUP3 GT ISZERO PUSH2 0xBE6 JUMPI PUSH2 0xBE5 PUSH2 0xB54 JUMP JUMPDEST JUMPDEST PUSH2 0xBEF DUP3 PUSH2 0xB44 JUMP JUMPDEST SWAP1 POP PUSH1 0x20 DUP2 ADD SWAP1 POP SWAP2 SWAP1 POP JUMP JUMPDEST DUP3 DUP2 DUP4 CALLDATACOPY PUSH0 DUP4 DUP4 ADD MSTORE POP POP POP JUMP JUMPDEST PUSH0 PUSH2 0xC1C PUSH2 0xC17 DUP5 PUSH2 0xBCC JUMP JUMPDEST PUSH2 0xBB2 JUMP JUMPDEST SWAP1 POP DUP3 DUP2 MSTORE PUSH1 0x20 DUP2 ADD DUP5 DUP5 DUP5 ADD GT ISZERO PUSH2 0xC38 JUMPI PUSH2 0xC37 PUSH2 0xB40 JUMP JUMPDEST JUMPDEST PUSH2 0xC43 DUP5 DUP3 DUP6 PUSH2 0xBFC JUMP JUMPDEST POP SWAP4 SWAP3 POP POP POP JUMP JUMPDEST PUSH0 DUP3 PUSH1 0x1F DUP4 ADD SLT PUSH2 0xC5F JUMPI PUSH2 0xC5E PUSH2 0xB3C JUMP JUMPDEST JUMPDEST DUP2 CALLDATALOAD PUSH2 0xC6F DUP5 DUP3 PUSH1 0x20 DUP7 ADD PUSH2 0xC0A JUMP JUMPDEST SWAP2 POP POP SWAP3 SWAP2 POP POP JUMP JUMPDEST PUSH0 PUSH0 PUSH1 0x40 DUP4 DUP6 SUB SLT ISZERO PUSH2 0xC8E JUMPI PUSH2 0xC8D PUSH2 0xA49 JUMP JUMPDEST JUMPDEST PUSH0 PUSH2 0xC9B DUP6 DUP3 DUP7 ADD PUSH2 0xB28 JUMP JUMPDEST SWAP3 POP POP PUSH1 0x20 DUP4 ADD CALLDATALOAD PUSH8 0xFFFFFFFFFFFFFFFF DUP2 GT ISZERO PUSH2 0xCBC JUMPI PUSH2 0xCBB PUSH2 0xA4D JUMP JUMPDEST JUMPDEST PUSH2 0xCC8 DUP6 DUP3 DUP7 ADD PUSH2 0xC4B JUMP JUMPDEST SWAP2 POP POP SWAP3 POP SWAP3 SWAP1 POP JUMP JUMPDEST PUSH2 0xCDB DUP2 PUSH2 0xA70 JUMP JUMPDEST DUP3 MSTORE POP POP JUMP JUMPDEST PUSH0 PUSH1 0x20 DUP3 ADD SWAP1 POP PUSH2 0xCF4 PUSH0 DUP4 ADD DUP5 PUSH2 0xCD2 JUMP JUMPDEST SWAP3 SWAP2 POP POP JUMP JUMPDEST PUSH0 PUSH1 0x20 DUP3 DUP5 SUB SLT ISZERO PUSH2 0xD0F JUMPI PUSH2 0xD0E PUSH2 0xA49 JUMP JUMPDEST JUMPDEST PUSH0 PUSH2 0xD1C DUP5 DUP3 DUP6 ADD PUSH2 0xB28 JUMP JUMPDEST SWAP2 POP POP SWAP3 SWAP2 POP POP JUMP JUMPDEST PUSH2 0xD2E DUP2 PUSH2 0xB09 JUMP JUMPDEST DUP3 MSTORE POP POP JUMP JUMPDEST PUSH0 DUP2 MLOAD SWAP1 POP SWAP2 SWAP1 POP JUMP JUMPDEST PUSH0 DUP3 DUP3 MSTORE PUSH1 0x20 DUP3 ADD SWAP1 POP SWAP3 SWAP2 POP POP JUMP JUMPDEST DUP3 DUP2 DUP4 MCOPY PUSH0 DUP4 DUP4 ADD MSTORE POP POP POP JUMP JUMPDEST PUSH0 PUSH2 0xD66 DUP3 PUSH2 0xD34 JUMP JUMPDEST PUSH2 0xD70 DUP2 DUP6 PUSH2 0xD3E JUMP JUMPDEST SWAP4 POP PUSH2 0xD80 DUP2 DUP6 PUSH1 0x20 DUP7 ADD PUSH2 0xD4E JUMP JUMPDEST PUSH2 0xD89 DUP2 PUSH2 0xB44 JUMP JUMPDEST DUP5 ADD SWAP2 POP POP SWAP3 SWAP2 POP POP JUMP JUMPDEST PUSH0 PUSH1 0x40 DUP3 ADD SWAP1 POP PUSH2 0xDA7 PUSH0 DUP4 ADD DUP6 PUSH2 0xD25 JUMP JUMPDEST DUP2 DUP2 SUB PUSH1 0x20 DUP4 ADD MSTORE PUSH2 0xDB9 DUP2 DUP5 PUSH2 0xD5C JUMP JUMPDEST SWAP1 POP SWAP4 SWAP3 POP POP POP JUMP JUMPDEST PUSH0 DUP2 MLOAD SWAP1 POP SWAP2 SWAP1 POP JUMP JUMPDEST PUSH0 DUP3 DUP3 MSTORE PUSH1 0x20 DUP3 ADD SWAP1 POP SWAP3 SWAP2 POP POP JUMP JUMPDEST PUSH0 DUP2 SWAP1 POP PUSH1 0x20 DUP3 ADD SWAP1 POP SWAP2 SWAP1 POP JUMP JUMPDEST PUSH2 0xDF4 DUP2 PUSH2 0xB09 JUMP JUMPDEST DUP3 MSTORE POP POP JUMP JUMPDEST PUSH0 DUP3 DUP3 MSTORE PUSH1 0x20 DUP3 ADD SWAP1 POP SWAP3 SWAP2 POP POP JUMP JUMPDEST PUSH0 PUSH2 0xE14 DUP3 PUSH2 0xD34 JUMP JUMPDEST PUSH2 0xE1E DUP2 DUP6 PUSH2 0xDFA JUMP JUMPDEST SWAP4 POP PUSH2 0xE2E DUP2 DUP6 PUSH1 0x20 DUP7 ADD PUSH2 0xD4E JUMP JUMPDEST PUSH2 0xE37 DUP2 PUSH2 0xB44 JUMP JUMPDEST DUP5 ADD SWAP2 POP POP SWAP3 SWAP2 POP POP JUMP JUMPDEST PUSH0 PUSH1 0x40 DUP4 ADD PUSH0 DUP4 ADD MLOAD PUSH2 0xE57 PUSH0 DUP7 ADD DUP3 PUSH2 0xDEB JUMP JUMPDEST POP PUSH1 0x20 DUP4 ADD MLOAD DUP5 DUP3 SUB PUSH1 0x20 DUP7 ADD MSTORE PUSH2 0xE6F DUP3 DUP3 PUSH2 0xE0A JUMP JUMPDEST SWAP2 POP POP DUP1 SWAP2 POP POP SWAP3 SWAP2 POP POP JUMP JUMPDEST PUSH0 PUSH2 0xE87 DUP4 DUP4 PUSH2 0xE42 JUMP JUMPDEST SWAP1 POP SWAP3 SWAP2 POP POP JUMP JUMPDEST PUSH0 PUSH1 0x20 DUP3 ADD SWAP1 POP SWAP2 SWAP1 POP JUMP JUMPDEST PUSH0 PUSH2 0xEA5 DUP3 PUSH2 0xDC2 JUMP JUMPDEST PUSH2 0xEAF DUP2 DUP6 PUSH2 0xDCC JUMP JUMPDEST SWAP4 POP DUP4 PUSH1 0x20 DUP3 MUL DUP6 ADD PUSH2 0xEC1 DUP6 PUSH2 0xDDC JUMP JUMPDEST DUP1 PUSH0 JUMPDEST DUP6 DUP2 LT ISZERO PUSH2 0xEFC JUMPI DUP5 DUP5 SUB DUP10 MSTORE DUP2 MLOAD PUSH2 0xEDD DUP6 DUP3 PUSH2 0xE7C JUMP JUMPDEST SWAP5 POP PUSH2 0xEE8 DUP4 PUSH2 0xE8F JUMP JUMPDEST SWAP3 POP PUSH1 0x20 DUP11 ADD SWAP10 POP POP PUSH1 0x1 DUP2 ADD SWAP1 POP PUSH2 0xEC4 JUMP JUMPDEST POP DUP3 SWAP8 POP DUP8 SWAP6 POP POP POP POP POP POP SWAP3 SWAP2 POP POP JUMP JUMPDEST PUSH0 PUSH1 0x20 DUP3 ADD SWAP1 POP DUP2 DUP2 SUB PUSH0 DUP4 ADD MSTORE PUSH2 0xF26 DUP2 DUP5 PUSH2 0xE9B JUMP JUMPDEST SWAP1 POP SWAP3 SWAP2 POP POP JUMP JUMPDEST PUSH0 PUSH1 0x40 DUP4 ADD PUSH0 DUP4 ADD MLOAD PUSH2 0xF43 PUSH0 DUP7 ADD DUP3 PUSH2 0xDEB JUMP JUMPDEST POP PUSH1 0x20 DUP4 ADD MLOAD DUP5 DUP3 SUB PUSH1 0x20 DUP7 ADD MSTORE PUSH2 0xF5B DUP3 DUP3 PUSH2 0xE0A JUMP JUMPDEST SWAP2 POP POP DUP1 SWAP2 POP POP SWAP3 SWAP2 POP POP JUMP JUMPDEST PUSH0 PUSH1 0x20 DUP3 ADD SWAP1 POP DUP2 DUP2 SUB PUSH0 DUP4 ADD MSTORE PUSH2 0xF80 DUP2 DUP5 PUSH2 0xF2E JUMP JUMPDEST SWAP1 POP SWAP3 SWAP2 POP POP JUMP JUMPDEST PUSH32 0x43617465676F7279206E616D652063616E6E6F7420626520656D707479000000 PUSH0 DUP3 ADD MSTORE POP JUMP JUMPDEST PUSH0 PUSH2 0xFBC PUSH1 0x1D DUP4 PUSH2 0xD3E JUMP JUMPDEST SWAP2 POP PUSH2 0xFC7 DUP3 PUSH2 0xF88 JUMP JUMPDEST PUSH1 0x20 DUP3 ADD SWAP1 POP SWAP2 SWAP1 POP JUMP JUMPDEST PUSH0 PUSH1 0x20 DUP3 ADD SWAP1 POP DUP2 DUP2 SUB PUSH0 DUP4 ADD MSTORE PUSH2 0xFE9 DUP2 PUSH2 0xFB0 JUMP JUMPDEST SWAP1 POP SWAP2 SWAP1 POP JUMP JUMPDEST PUSH32 0x43617465676F727920646F6573206E6F74206578697374000000000000000000 PUSH0 DUP3 ADD MSTORE POP JUMP JUMPDEST PUSH0 PUSH2 0x1024 PUSH1 0x17 DUP4 PUSH2 0xD3E JUMP JUMPDEST SWAP2 POP PUSH2 0x102F DUP3 PUSH2 0xFF0 JUMP JUMPDEST PUSH1 0x20 DUP3 ADD SWAP1 POP SWAP2 SWAP1 POP JUMP JUMPDEST PUSH0 PUSH1 0x20 DUP3 ADD SWAP1 POP DUP2 DUP2 SUB PUSH0 DUP4 ADD MSTORE PUSH2 0x1051 DUP2 PUSH2 0x1018 JUMP JUMPDEST SWAP1 POP SWAP2 SWAP1 POP JUMP JUMPDEST PUSH32 0x4E487B7100000000000000000000000000000000000000000000000000000000 PUSH0 MSTORE PUSH1 0x22 PUSH1 0x4 MSTORE PUSH1 0x24 PUSH0 REVERT JUMPDEST PUSH0 PUSH1 0x2 DUP3 DIV SWAP1 POP PUSH1 0x1 DUP3 AND DUP1 PUSH2 0x109C JUMPI PUSH1 0x7F DUP3 AND SWAP2 POP JUMPDEST PUSH1 0x20 DUP3 LT DUP2 SUB PUSH2 0x10AF JUMPI PUSH2 0x10AE PUSH2 0x1058 JUMP JUMPDEST JUMPDEST POP SWAP2 SWAP1 POP JUMP JUMPDEST PUSH0 DUP2 SWAP1 POP DUP2 PUSH0 MSTORE PUSH1 0x20 PUSH0 KECCAK256 SWAP1 POP SWAP2 SWAP1 POP JUMP JUMPDEST PUSH0 PUSH1 0x20 PUSH1 0x1F DUP4 ADD DIV SWAP1 POP SWAP2 SWAP1 POP JUMP JUMPDEST PUSH0 DUP3 DUP3 SHL SWAP1 POP SWAP3 SWAP2 POP POP JUMP JUMPDEST PUSH0 PUSH1 0x8 DUP4 MUL PUSH2 0x1111 PUSH32 0xFFFFFFFFFFFFFFFFFFFFFFFFFFFFFFFFFFFFFFFFFFFFFFFFFFFFFFFFFFFFFFFF DUP3 PUSH2 0x10D6 JUMP JUMPDEST PUSH2 0x111B DUP7 DUP4 PUSH2 0x10D6 JUMP JUMPDEST SWAP6 POP DUP1 NOT DUP5 AND SWAP4 POP DUP1 DUP7 AND DUP5 OR SWAP3 POP POP POP SWAP4 SWAP3 POP POP POP JUMP JUMPDEST PUSH0 DUP2 SWAP1 POP SWAP2 SWAP1 POP JUMP JUMPDEST PUSH0 PUSH2 0x1156 PUSH2 0x1151 PUSH2 0x114C DUP5 PUSH2 0xB09 JUMP JUMPDEST PUSH2 0x1133 JUMP JUMPDEST PUSH2 0xB09 JUMP JUMPDEST SWAP1 POP SWAP2 SWAP1 POP JUMP JUMPDEST PUSH0 DUP2 SWAP1 POP SWAP2 SWAP1 POP JUMP JUMPDEST PUSH2 0x116F DUP4 PUSH2 0x113C JUMP JUMPDEST PUSH2 0x1183 PUSH2 0x117B DUP3 PUSH2 0x115D JUMP JUMPDEST DUP5 DUP5 SLOAD PUSH2 0x10E2 JUMP JUMPDEST DUP3 SSTORE POP POP POP POP JUMP JUMPDEST PUSH0 PUSH0 SWAP1 POP SWAP1 JUMP JUMPDEST PUSH2 0x119A PUSH2 0x118B JUMP JUMPDEST PUSH2 0x11A5 DUP2 DUP5 DUP5 PUSH2 0x1166 JUMP JUMPDEST POP POP POP JUMP JUMPDEST JUMPDEST DUP2 DUP2 LT ISZERO PUSH2 0x11C8 JUMPI PUSH2 0x11BD PUSH0 DUP3 PUSH2 0x1192 JUMP JUMPDEST PUSH1 0x1 DUP2 ADD SWAP1 POP PUSH2 0x11AB JUMP JUMPDEST POP POP JUMP JUMPDEST PUSH1 0x1F DUP3 GT ISZERO PUSH2 0x120D JUMPI PUSH2 0x11DE DUP2 PUSH2 0x10B5 JUMP JUMPDEST PUSH2 0x11E7 DUP5 PUSH2 0x10C7 JUMP JUMPDEST DUP2 ADD PUSH1 0x20 DUP6 LT ISZERO PUSH2 0x11F6 JUMPI DUP2 SWAP1 POP JUMPDEST PUSH2 0x120A PUSH2 0x1202 DUP6 PUSH2 0x10C7 JUMP JUMPDEST DUP4 ADD DUP3 PUSH2 0x11AA JUMP JUMPDEST POP POP JUMPDEST POP POP POP JUMP JUMPDEST PUSH0 DUP3 DUP3 SHR SWAP1 POP SWAP3 SWAP2 POP POP JUMP JUMPDEST PUSH0 PUSH2 0x122D PUSH0 NOT DUP5 PUSH1 0x8 MUL PUSH2 0x1212 JUMP JUMPDEST NOT DUP1 DUP4 AND SWAP2 POP POP SWAP3 SWAP2 POP POP JUMP JUMPDEST PUSH0 PUSH2 0x1245 DUP4 DUP4 PUSH2 0x121E JUMP JUMPDEST SWAP2 POP DUP3 PUSH1 0x2 MUL DUP3 OR SWAP1 POP SWAP3 SWAP2 POP POP JUMP JUMPDEST PUSH2 0x125E DUP3 PUSH2 0xD34 JUMP JUMPDEST PUSH8 0xFFFFFFFFFFFFFFFF DUP2 GT ISZERO PUSH2 0x1277 JUMPI PUSH2 0x1276 PUSH2 0xB54 JUMP JUMPDEST JUMPDEST PUSH2 0x1281 DUP3 SLOAD PUSH2 0x1085 JUMP JUMPDEST PUSH2 0x128C DUP3 DUP3 DUP6 PUSH2 0x11CC JUMP JUMPDEST PUSH0 PUSH1 0x20 SWAP1 POP PUSH1 0x1F DUP4 GT PUSH1 0x1 DUP2 EQ PUSH2 0x12BD JUMPI PUSH0 DUP5 ISZERO PUSH2 0x12AB JUMPI DUP3 DUP8 ADD MLOAD SWAP1 POP JUMPDEST PUSH2 0x12B5 DUP6 DUP3 PUSH2 0x123A JUMP JUMPDEST DUP7 SSTORE POP PUSH2 0x131C JUMP JUMPDEST PUSH1 0x1F NOT DUP5 AND PUSH2 0x12CB DUP7 PUSH2 0x10B5 JUMP JUMPDEST PUSH0 JUMPDEST DUP3 DUP2 LT ISZERO PUSH2 0x12F2 JUMPI DUP5 DUP10 ADD MLOAD DUP3 SSTORE PUSH1 0x1 DUP3 ADD SWAP2 POP PUSH1 0x20 DUP6 ADD SWAP5 POP PUSH1 0x20 DUP2 ADD SWAP1 POP PUSH2 0x12CD JUMP JUMPDEST DUP7 DUP4 LT ISZERO PUSH2 0x130F JUMPI DUP5 DUP10 ADD MLOAD PUSH2 0x130B PUSH1 0x1F DUP10 AND DUP3 PUSH2 0x121E JUMP JUMPDEST DUP4 SSTORE POP JUMPDEST PUSH1 0x1 PUSH1 0x2 DUP9 MUL ADD DUP9 SSTORE POP POP POP JUMPDEST POP POP POP POP POP POP JUMP JUMPDEST PUSH32 0x4E487B7100000000000000000000000000000000000000000000000000000000 PUSH0 MSTORE PUSH1 0x32 PUSH1 0x4 MSTORE PUSH1 0x24 PUSH0 REVERT JUMPDEST PUSH32 0x4E487B7100000000000000000000000000000000000000000000000000000000 PUSH0 MSTORE PUSH1 0x11 PUSH1 0x4 MSTORE PUSH1 0x24 PUSH0 REVERT JUMPDEST PUSH0 PUSH2 0x1388 DUP3 PUSH2 0xB09 JUMP JUMPDEST SWAP2 POP PUSH2 0x1393 DUP4 PUSH2 0xB09 JUMP JUMPDEST SWAP3 POP DUP3 DUP3 SUB SWAP1 POP DUP2 DUP2 GT ISZERO PUSH2 0x13AB JUMPI PUSH2 0x13AA PUSH2 0x1351 JUMP JUMPDEST JUMPDEST SWAP3 SWAP2 POP POP JUMP JUMPDEST PUSH32 0x4E487B7100000000000000000000000000000000000000000000000000000000 PUSH0 MSTORE PUSH1 0x31 PUSH1 0x4 MSTORE PUSH1 0x24 PUSH0 REVERT JUMPDEST PUSH0 PUSH1 0x20 DUP3 ADD SWAP1 POP PUSH2 0x13F1 PUSH0 DUP4 ADD DUP5 PUSH2 0xD25 JUMP JUMPDEST SWAP3 SWAP2 POP POP JUMP JUMPDEST PUSH32 0x43617465676F727920494420616C726561647920657869737473000000000000 PUSH0 DUP3 ADD MSTORE POP JUMP JUMPDEST PUSH0 PUSH2 0x142B PUSH1 0x1A DUP4 PUSH2 0xD3E JUMP JUMPDEST SWAP2 POP PUSH2 0x1436 DUP3 PUSH2 0x13F7 JUMP JUMPDEST PUSH1 0x20 DUP3 ADD SWAP1 POP SWAP2 SWAP1 POP JUMP JUMPDEST PUSH0 PUSH1 0x20 DUP3 ADD SWAP1 POP DUP2 DUP2 SUB PUSH0 DUP4 ADD MSTORE PUSH2 0x1458 DUP2 PUSH2 0x141F JUMP JUMPDEST SWAP1 POP SWAP2 SWAP1 POP JUMP INVALID LOG2 PUSH5 0x6970667358 0x22 SLT KECCAK256 JUMPI 0xCF 0x4B 0xDE POP 0xDF EQ 0x4E SWAP1 0xD6 CREATE PUSH8 0xD259B5BAEBD6DEEE RETURN PUSH25 0x33B9317050CC06666BD164736F6C634300081E003300000000 "
				},
				"gasEstimates": {
					"creation": {
						"codeDepositCost": "1053800",
						"executionCost": "25356",
						"totalCost": "1079156"
					},
					"external": {
						"addAdmin(address)": "24848",
						"categories(uint256)": "infinite",
						"createCategory(uint256,string)": "infinite",
						"deleteCategory(uint256)": "infinite",
						"getAllCategories()": "infinite",
						"getCategory(uint256)": "infinite",
						"getOwner()": "2603",
						"isAdmin(address)": "2856",
						"removeAdmin(address)": "24803",
						"updateCategory(uint256,string)": "infinite"
					}
				},
				"methodIdentifiers": {
					"addAdmin(address)": "70480275",
					"categories(uint256)": "c6cdbe5e",
					"createCategory(uint256,string)": "f7868a52",
					"deleteCategory(uint256)": "ceca737f",
					"getAllCategories()": "dadd0a57",
					"getCategory(uint256)": "f3052d26",
					"getOwner()": "893d20e8",
					"isAdmin(address)": "24d7806c",
					"removeAdmin(address)": "1785f53c",
					"updateCategory(uint256,string)": "78697e5b"
				}
			},
			"storageLayout": {
				"storage": [
					{
						"astId": 3,
						"contract": "contracts/manager/CategoryManager.sol:CategoryManager",
						"label": "owner",
						"offset": 0,
						"slot": "0",
						"type": "t_address"
					},
					{
						"astId": 7,
						"contract": "contracts/manager/CategoryManager.sol:CategoryManager",
						"label": "isAdmin",
						"offset": 0,
						"slot": "1",
						"type": "t_mapping(t_address,t_bool)"
					},
					{
						"astId": 141,
						"contract": "contracts/manager/CategoryManager.sol:CategoryManager",
						"label": "categories",
						"offset": 0,
						"slot": "2",
						"type": "t_mapping(t_uint256,t_struct(Category)383_storage)"
					},
					{
						"astId": 144,
						"contract": "contracts/manager/CategoryManager.sol:CategoryManager",
						"label": "categoryIds",
						"offset": 0,
						"slot": "3",
						"type": "t_array(t_uint256)dyn_storage"
					}
				],
				"types": {
					"t_address": {
						"encoding": "inplace",
						"label": "address",
						"numberOfBytes": "20"
					},
					"t_array(t_uint256)dyn_storage": {
						"base": "t_uint256",
						"encoding": "dynamic_array",
						"label": "uint256[]",
						"numberOfBytes": "32"
					},
					"t_bool": {
						"encoding": "inplace",
						"label": "bool",
						"numberOfBytes": "1"
					},
					"t_mapping(t_address,t_bool)": {
						"encoding": "mapping",
						"key": "t_address",
						"label": "mapping(address => bool)",
						"numberOfBytes": "32",
						"value": "t_bool"
					},
					"t_mapping(t_uint256,t_struct(Category)383_storage)": {
						"encoding": "mapping",
						"key": "t_uint256",
						"label": "mapping(uint256 => struct Category)",
						"numberOfBytes": "32",
						"value": "t_struct(Category)383_storage"
					},
					"t_string_storage": {
						"encoding": "bytes",
						"label": "string",
						"numberOfBytes": "32"
					},
					"t_struct(Category)383_storage": {
						"encoding": "inplace",
						"label": "struct Category",
						"members": [
							{
								"astId": 380,
								"contract": "contracts/manager/CategoryManager.sol:CategoryManager",
								"label": "categoryId",
								"offset": 0,
								"slot": "0",
								"type": "t_uint256"
							},
							{
								"astId": 382,
								"contract": "contracts/manager/CategoryManager.sol:CategoryManager",
								"label": "name",
								"offset": 0,
								"slot": "1",
								"type": "t_string_storage"
							}
						],
						"numberOfBytes": "64"
					},
					"t_uint256": {
						"encoding": "inplace",
						"label": "uint256",
						"numberOfBytes": "32"
					}
				}
			},
			"userdoc": {
				"kind": "user",
				"methods": {},
				"version": 1
			}
		}
	}
}