{
	"contracts/manager/OrderManager.sol": {
		"OrderManager": {
			"abi": [
				{
					"anonymous": false,
					"inputs": [
						{
							"indexed": false,
							"internalType": "uint256",
							"name": "orderId",
							"type": "uint256"
						},
						{
							"indexed": false,
							"internalType": "address",
							"name": "user",
							"type": "address"
						},
						{
							"indexed": false,
							"internalType": "uint256",
							"name": "totalAmount",
							"type": "uint256"
						},
						{
							"indexed": false,
							"internalType": "enum OrderStatus",
							"name": "status",
							"type": "uint8"
						},
						{
							"components": [
								{
									"internalType": "uint256",
									"name": "name",
									"type": "uint256"
								},
								{
									"internalType": "uint256",
									"name": "quantity",
									"type": "uint256"
								},
								{
									"internalType": "uint256",
									"name": "price",
									"type": "uint256"
								},
								{
									"internalType": "string",
									"name": "imageUrl",
									"type": "string"
								}
							],
							"indexed": false,
							"internalType": "struct OrderItemRequest[]",
							"name": "orderItems",
							"type": "tuple[]"
						}
					],
					"name": "OrderCreated",
					"type": "event"
				},
				{
					"anonymous": false,
					"inputs": [
						{
							"indexed": false,
							"internalType": "uint256",
							"name": "orderId",
							"type": "uint256"
						}
					],
					"name": "OrderDeleted",
					"type": "event"
				},
				{
					"anonymous": false,
					"inputs": [
						{
							"indexed": false,
							"internalType": "uint256",
							"name": "orderId",
							"type": "uint256"
						},
						{
							"indexed": false,
							"internalType": "uint256",
							"name": "orderItemId",
							"type": "uint256"
						},
						{
							"indexed": false,
							"internalType": "enum OrderItemStatus",
							"name": "newStatus",
							"type": "uint8"
						}
					],
					"name": "OrderItemStatusUpdated",
					"type": "event"
				},
				{
					"anonymous": false,
					"inputs": [
						{
							"indexed": false,
							"internalType": "uint256",
							"name": "orderId",
							"type": "uint256"
						},
						{
							"indexed": false,
							"internalType": "enum OrderStatus",
							"name": "status",
							"type": "uint8"
						}
					],
					"name": "OrderUpdated",
					"type": "event"
				},
				{
					"inputs": [
						{
							"internalType": "address",
							"name": "_user",
							"type": "address"
						},
						{
							"internalType": "string",
							"name": "_userInfo",
							"type": "string"
						},
						{
							"components": [
								{
									"internalType": "uint256",
									"name": "name",
									"type": "uint256"
								},
								{
									"internalType": "uint256",
									"name": "quantity",
									"type": "uint256"
								},
								{
									"internalType": "uint256",
									"name": "price",
									"type": "uint256"
								},
								{
									"internalType": "string",
									"name": "imageUrl",
									"type": "string"
								}
							],
							"internalType": "struct OrderItemRequest[]",
							"name": "_items",
							"type": "tuple[]"
						}
					],
					"name": "createOrder",
					"outputs": [
						{
							"components": [
								{
									"internalType": "uint256",
									"name": "orderId",
									"type": "uint256"
								},
								{
									"internalType": "address",
									"name": "user",
									"type": "address"
								},
								{
									"internalType": "string",
									"name": "userInfo",
									"type": "string"
								},
								{
									"components": [
										{
											"internalType": "uint256",
											"name": "orderItemId",
											"type": "uint256"
										},
										{
											"internalType": "uint256",
											"name": "name",
											"type": "uint256"
										},
										{
											"internalType": "uint256",
											"name": "quantity",
											"type": "uint256"
										},
										{
											"internalType": "uint256",
											"name": "price",
											"type": "uint256"
										},
										{
											"internalType": "string",
											"name": "imageUrl",
											"type": "string"
										},
										{
											"internalType": "enum OrderItemStatus",
											"name": "status",
											"type": "uint8"
										}
									],
									"internalType": "struct OrderItem[]",
									"name": "items",
									"type": "tuple[]"
								},
								{
									"internalType": "uint256",
									"name": "totalAmount",
									"type": "uint256"
								},
								{
									"internalType": "enum OrderStatus",
									"name": "status",
									"type": "uint8"
								},
								{
									"internalType": "uint256",
									"name": "timestamp",
									"type": "uint256"
								}
							],
							"internalType": "struct Order",
							"name": "",
							"type": "tuple"
						}
					],
					"stateMutability": "nonpayable",
					"type": "function"
				},
				{
					"inputs": [
						{
							"internalType": "enum OrderStatus",
							"name": "_status",
							"type": "uint8"
						}
					],
					"name": "getOrdersByStatus",
					"outputs": [
						{
							"components": [
								{
									"internalType": "uint256",
									"name": "orderId",
									"type": "uint256"
								},
								{
									"internalType": "address",
									"name": "user",
									"type": "address"
								},
								{
									"internalType": "string",
									"name": "userInfo",
									"type": "string"
								},
								{
									"components": [
										{
											"internalType": "uint256",
											"name": "orderItemId",
											"type": "uint256"
										},
										{
											"internalType": "uint256",
											"name": "name",
											"type": "uint256"
										},
										{
											"internalType": "uint256",
											"name": "quantity",
											"type": "uint256"
										},
										{
											"internalType": "uint256",
											"name": "price",
											"type": "uint256"
										},
										{
											"internalType": "string",
											"name": "imageUrl",
											"type": "string"
										},
										{
											"internalType": "enum OrderItemStatus",
											"name": "status",
											"type": "uint8"
										}
									],
									"internalType": "struct OrderItem[]",
									"name": "items",
									"type": "tuple[]"
								},
								{
									"internalType": "uint256",
									"name": "totalAmount",
									"type": "uint256"
								},
								{
									"internalType": "enum OrderStatus",
									"name": "status",
									"type": "uint8"
								},
								{
									"internalType": "uint256",
									"name": "timestamp",
									"type": "uint256"
								}
							],
							"internalType": "struct Order[]",
							"name": "",
							"type": "tuple[]"
						}
					],
					"stateMutability": "view",
					"type": "function"
				},
				{
					"inputs": [
						{
							"internalType": "address",
							"name": "_user",
							"type": "address"
						}
					],
					"name": "getUserOrders",
					"outputs": [
						{
							"internalType": "uint256[]",
							"name": "",
							"type": "uint256[]"
						}
					],
					"stateMutability": "view",
					"type": "function"
				},
				{
					"inputs": [],
					"name": "nextOrderId",
					"outputs": [
						{
							"internalType": "uint256",
							"name": "",
							"type": "uint256"
						}
					],
					"stateMutability": "view",
					"type": "function"
				},
				{
					"inputs": [
						{
							"internalType": "uint256",
							"name": "",
							"type": "uint256"
						}
					],
					"name": "orders",
					"outputs": [
						{
							"internalType": "uint256",
							"name": "orderId",
							"type": "uint256"
						},
						{
							"internalType": "address",
							"name": "user",
							"type": "address"
						},
						{
							"internalType": "string",
							"name": "userInfo",
							"type": "string"
						},
						{
							"internalType": "uint256",
							"name": "totalAmount",
							"type": "uint256"
						},
						{
							"internalType": "enum OrderStatus",
							"name": "status",
							"type": "uint8"
						},
						{
							"internalType": "uint256",
							"name": "timestamp",
							"type": "uint256"
						}
					],
					"stateMutability": "view",
					"type": "function"
				},
				{
					"inputs": [
						{
							"internalType": "uint256",
							"name": "_orderId",
							"type": "uint256"
						},
						{
							"internalType": "uint256",
							"name": "_orderItemId",
							"type": "uint256"
						},
						{
							"internalType": "enum OrderItemStatus",
							"name": "_newStatus",
							"type": "uint8"
						}
					],
					"name": "updateOrderItemStatus",
					"outputs": [],
					"stateMutability": "nonpayable",
					"type": "function"
				},
				{
					"inputs": [
						{
							"internalType": "uint256",
							"name": "_orderId",
							"type": "uint256"
						},
						{
							"internalType": "enum OrderStatus",
							"name": "_status",
							"type": "uint8"
						}
					],
					"name": "updateOrderStatus",
					"outputs": [],
					"stateMutability": "nonpayable",
					"type": "function"
				},
				{
					"inputs": [
						{
							"internalType": "address",
							"name": "",
							"type": "address"
						},
						{
							"internalType": "uint256",
							"name": "",
							"type": "uint256"
						}
					],
					"name": "userOrders",
					"outputs": [
						{
							"internalType": "uint256",
							"name": "",
							"type": "uint256"
						}
					],
					"stateMutability": "view",
					"type": "function"
				}
			],
			"devdoc": {
				"kind": "dev",
				"methods": {},
				"version": 1
			},
			"evm": {
				"assembly": "    /* \"contracts/manager/OrderManager.sol\":99:3776  contract OrderManager is IOrderManager {... */\n  mstore(0x40, 0x80)\n    /* \"contracts/manager/OrderManager.sol\":170:171  1 */\n  0x01\n    /* \"contracts/manager/OrderManager.sol\":144:171  uint256 nextOrderItemId = 1 */\n  0x00\n  sstore\n    /* \"contracts/manager/OrderManager.sol\":251:252  1 */\n  0x01\n    /* \"contracts/manager/OrderManager.sol\":222:252  uint256 public nextOrderId = 1 */\n  0x02\n  sstore\n    /* \"contracts/manager/OrderManager.sol\":99:3776  contract OrderManager is IOrderManager {... */\n  callvalue\n  dup1\n  iszero\n  tag_1\n  jumpi\n  revert(0x00, 0x00)\ntag_1:\n  pop\n  dataSize(sub_0)\n  dup1\n  dataOffset(sub_0)\n  0x00\n  codecopy\n  0x00\n  return\nstop\n\nsub_0: assembly {\n        /* \"contracts/manager/OrderManager.sol\":99:3776  contract OrderManager is IOrderManager {... */\n      mstore(0x40, 0x80)\n      callvalue\n      dup1\n      iszero\n      tag_1\n      jumpi\n      revert(0x00, 0x00)\n    tag_1:\n      pop\n      jumpi(tag_2, lt(calldatasize, 0x04))\n      shr(0xe0, calldataload(0x00))\n      dup1\n      0x8a46e8eb\n      gt\n      tag_11\n      jumpi\n      dup1\n      0x8a46e8eb\n      eq\n      tag_7\n      jumpi\n      dup1\n      0x8ce2ec79\n      eq\n      tag_8\n      jumpi\n      dup1\n      0xa85c38ef\n      eq\n      tag_9\n      jumpi\n      dup1\n      0xaab3196d\n      eq\n      tag_10\n      jumpi\n      jump(tag_2)\n    tag_11:\n      dup1\n      0x2a58b330\n      eq\n      tag_3\n      jumpi\n      dup1\n      0x63c69f08\n      eq\n      tag_4\n      jumpi\n      dup1\n      0x6590209d\n      eq\n      tag_5\n      jumpi\n      dup1\n      0x856652e9\n      eq\n      tag_6\n      jumpi\n    tag_2:\n      revert(0x00, 0x00)\n        /* \"contracts/manager/OrderManager.sol\":222:252  uint256 public nextOrderId = 1 */\n    tag_3:\n      tag_12\n      tag_13\n      jump\t// in\n    tag_12:\n      mload(0x40)\n      tag_14\n      swap2\n      swap1\n      tag_15\n      jump\t// in\n    tag_14:\n      mload(0x40)\n      dup1\n      swap2\n      sub\n      swap1\n      return\n        /* \"contracts/manager/OrderManager.sol\":3651:3774  function getUserOrders(address _user) public view override returns (uint[] memory){... */\n    tag_4:\n      tag_16\n      0x04\n      dup1\n      calldatasize\n      sub\n      dup2\n      add\n      swap1\n      tag_17\n      swap2\n      swap1\n      tag_18\n      jump\t// in\n    tag_17:\n      tag_19\n      jump\t// in\n    tag_16:\n      mload(0x40)\n      tag_20\n      swap2\n      swap1\n      tag_21\n      jump\t// in\n    tag_20:\n      mload(0x40)\n      dup1\n      swap2\n      sub\n      swap1\n      return\n        /* \"contracts/manager/OrderManager.sol\":338:1778  function createOrder(... */\n    tag_5:\n      tag_22\n      0x04\n      dup1\n      calldatasize\n      sub\n      dup2\n      add\n      swap1\n      tag_23\n      swap2\n      swap1\n      tag_24\n      jump\t// in\n    tag_23:\n      tag_25\n      jump\t// in\n    tag_22:\n      mload(0x40)\n      tag_26\n      swap2\n      swap1\n      tag_27\n      jump\t// in\n    tag_26:\n      mload(0x40)\n      dup1\n      swap2\n      sub\n      swap1\n      return\n        /* \"contracts/manager/OrderManager.sol\":258:305  mapping(address => uint256[]) public userOrders */\n    tag_6:\n      tag_28\n      0x04\n      dup1\n      calldatasize\n      sub\n      dup2\n      add\n      swap1\n      tag_29\n      swap2\n      swap1\n      tag_30\n      jump\t// in\n    tag_29:\n      tag_31\n      jump\t// in\n    tag_28:\n      mload(0x40)\n      tag_32\n      swap2\n      swap1\n      tag_15\n      jump\t// in\n    tag_32:\n      mload(0x40)\n      dup1\n      swap2\n      sub\n      swap1\n      return\n        /* \"contracts/manager/OrderManager.sol\":1784:2742  function updateOrderItemStatus(... */\n    tag_7:\n      tag_33\n      0x04\n      dup1\n      calldatasize\n      sub\n      dup2\n      add\n      swap1\n      tag_34\n      swap2\n      swap1\n      tag_35\n      jump\t// in\n    tag_34:\n      tag_36\n      jump\t// in\n    tag_33:\n      stop\n        /* \"contracts/manager/OrderManager.sol\":2747:3318  function getOrdersByStatus(OrderStatus _status)... */\n    tag_8:\n      tag_37\n      0x04\n      dup1\n      calldatasize\n      sub\n      dup2\n      add\n      swap1\n      tag_38\n      swap2\n      swap1\n      tag_39\n      jump\t// in\n    tag_38:\n      tag_40\n      jump\t// in\n    tag_37:\n      mload(0x40)\n      tag_41\n      swap2\n      swap1\n      tag_42\n      jump\t// in\n    tag_41:\n      mload(0x40)\n      dup1\n      swap2\n      sub\n      swap1\n      return\n        /* \"contracts/manager/OrderManager.sol\":177:216  mapping(uint256 => Order) public orders */\n    tag_9:\n      tag_43\n      0x04\n      dup1\n      calldatasize\n      sub\n      dup2\n      add\n      swap1\n      tag_44\n      swap2\n      swap1\n      tag_45\n      jump\t// in\n    tag_44:\n      tag_46\n      jump\t// in\n    tag_43:\n      mload(0x40)\n      tag_47\n      swap7\n      swap6\n      swap5\n      swap4\n      swap3\n      swap2\n      swap1\n      tag_48\n      jump\t// in\n    tag_47:\n      mload(0x40)\n      dup1\n      swap2\n      sub\n      swap1\n      return\n        /* \"contracts/manager/OrderManager.sol\":3399:3646  function updateOrderStatus(uint _orderId, OrderStatus _status) public override {... */\n    tag_10:\n      tag_49\n      0x04\n      dup1\n      calldatasize\n      sub\n      dup2\n      add\n      swap1\n      tag_50\n      swap2\n      swap1\n      tag_51\n      jump\t// in\n    tag_50:\n      tag_52\n      jump\t// in\n    tag_49:\n      stop\n        /* \"contracts/manager/OrderManager.sol\":222:252  uint256 public nextOrderId = 1 */\n    tag_13:\n      sload(0x02)\n      dup2\n      jump\t// out\n        /* \"contracts/manager/OrderManager.sol\":3651:3774  function getUserOrders(address _user) public view override returns (uint[] memory){... */\n    tag_19:\n        /* \"contracts/manager/OrderManager.sol\":3719:3732  uint[] memory */\n      0x60\n        /* \"contracts/manager/OrderManager.sol\":3750:3760  userOrders */\n      0x03\n        /* \"contracts/manager/OrderManager.sol\":3750:3767  userOrders[_user] */\n      0x00\n        /* \"contracts/manager/OrderManager.sol\":3761:3766  _user */\n      dup4\n        /* \"contracts/manager/OrderManager.sol\":3750:3767  userOrders[_user] */\n      0xffffffffffffffffffffffffffffffffffffffff\n      and\n      0xffffffffffffffffffffffffffffffffffffffff\n      and\n      dup2\n      mstore\n      0x20\n      add\n      swap1\n      dup2\n      mstore\n      0x20\n      add\n      0x00\n      keccak256\n        /* \"contracts/manager/OrderManager.sol\":3743:3767  return userOrders[_user] */\n      dup1\n      sload\n      dup1\n      0x20\n      mul\n      0x20\n      add\n      mload(0x40)\n      swap1\n      dup2\n      add\n      0x40\n      mstore\n      dup1\n      swap3\n      swap2\n      swap1\n      dup2\n      dup2\n      mstore\n      0x20\n      add\n      dup3\n      dup1\n      sload\n      dup1\n      iszero\n      tag_54\n      jumpi\n      0x20\n      mul\n      dup3\n      add\n      swap2\n      swap1\n      0x00\n      mstore\n      keccak256(0x00, 0x20)\n      swap1\n    tag_55:\n      dup2\n      sload\n      dup2\n      mstore\n      0x20\n      add\n      swap1\n      0x01\n      add\n      swap1\n      dup1\n      dup4\n      gt\n      tag_55\n      jumpi\n    tag_54:\n      pop\n      pop\n      pop\n      pop\n      pop\n      swap1\n      pop\n        /* \"contracts/manager/OrderManager.sol\":3651:3774  function getUserOrders(address _user) public view override returns (uint[] memory){... */\n      swap2\n      swap1\n      pop\n      jump\t// out\n        /* \"contracts/manager/OrderManager.sol\":338:1778  function createOrder(... */\n    tag_25:\n        /* \"contracts/manager/OrderManager.sol\":488:500  Order memory */\n      tag_56\n      tag_57\n      jump\t// in\n    tag_56:\n        /* \"contracts/manager/OrderManager.sol\":536:537  0 */\n      0x00\n        /* \"contracts/manager/OrderManager.sol\":520:526  _items */\n      dup3\n        /* \"contracts/manager/OrderManager.sol\":520:533  _items.length */\n      mload\n        /* \"contracts/manager/OrderManager.sol\":520:537  _items.length > 0 */\n      gt\n        /* \"contracts/manager/OrderManager.sol\":512:578  require(_items.length > 0, \"Order must contain at least one item\") */\n      tag_59\n      jumpi\n      mload(0x40)\n      0x08c379a000000000000000000000000000000000000000000000000000000000\n      dup2\n      mstore\n      0x04\n      add\n      tag_60\n      swap1\n      tag_61\n      jump\t// in\n    tag_60:\n      mload(0x40)\n      dup1\n      swap2\n      sub\n      swap1\n      revert\n    tag_59:\n        /* \"contracts/manager/OrderManager.sol\":589:608  uint256 totalAmount */\n      0x00\n        /* \"contracts/manager/OrderManager.sol\":611:612  0 */\n      0x00\n        /* \"contracts/manager/OrderManager.sol\":589:612  uint256 totalAmount = 0 */\n      swap1\n      pop\n        /* \"contracts/manager/OrderManager.sol\":622:650  OrderItem[] memory tempItems */\n      0x00\n        /* \"contracts/manager/OrderManager.sol\":669:675  _items */\n      dup4\n        /* \"contracts/manager/OrderManager.sol\":669:682  _items.length */\n      mload\n        /* \"contracts/manager/OrderManager.sol\":653:683  new OrderItem[](_items.length) */\n      0xffffffffffffffff\n      dup2\n      gt\n      iszero\n      tag_62\n      jumpi\n      tag_63\n      tag_64\n      jump\t// in\n    tag_63:\n    tag_62:\n      mload(0x40)\n      swap1\n      dup1\n      dup3\n      mstore\n      dup1\n      0x20\n      mul\n      0x20\n      add\n      dup3\n      add\n      0x40\n      mstore\n      dup1\n      iszero\n      tag_65\n      jumpi\n      dup2\n      0x20\n      add\n    tag_66:\n      tag_67\n      tag_68\n      jump\t// in\n    tag_67:\n      dup2\n      mstore\n      0x20\n      add\n      swap1\n      0x01\n      swap1\n      sub\n      swap1\n      dup2\n      tag_66\n      jumpi\n      swap1\n      pop\n    tag_65:\n      pop\n        /* \"contracts/manager/OrderManager.sol\":622:683  OrderItem[] memory tempItems = new OrderItem[](_items.length) */\n      swap1\n      pop\n        /* \"contracts/manager/OrderManager.sol\":698:707  uint256 i */\n      0x00\n        /* \"contracts/manager/OrderManager.sol\":710:711  0 */\n      0x00\n        /* \"contracts/manager/OrderManager.sol\":698:711  uint256 i = 0 */\n      swap1\n      pop\n        /* \"contracts/manager/OrderManager.sol\":693:1135  for (uint256 i = 0; i < _items.length; i++) {... */\n    tag_69:\n        /* \"contracts/manager/OrderManager.sol\":717:723  _items */\n      dup5\n        /* \"contracts/manager/OrderManager.sol\":717:730  _items.length */\n      mload\n        /* \"contracts/manager/OrderManager.sol\":713:714  i */\n      dup2\n        /* \"contracts/manager/OrderManager.sol\":713:730  i < _items.length */\n      lt\n        /* \"contracts/manager/OrderManager.sol\":693:1135  for (uint256 i = 0; i < _items.length; i++) {... */\n      iszero\n      tag_70\n      jumpi\n        /* \"contracts/manager/OrderManager.sol\":784:790  _items */\n      dup5\n        /* \"contracts/manager/OrderManager.sol\":791:792  i */\n      dup2\n        /* \"contracts/manager/OrderManager.sol\":784:793  _items[i] */\n      dup2\n      mload\n      dup2\n      lt\n      tag_72\n      jumpi\n      tag_73\n      tag_74\n      jump\t// in\n    tag_73:\n    tag_72:\n      0x20\n      mul\n      0x20\n      add\n      add\n      mload\n        /* \"contracts/manager/OrderManager.sol\":784:802  _items[i].quantity */\n      0x20\n      add\n      mload\n        /* \"contracts/manager/OrderManager.sol\":766:772  _items */\n      dup6\n        /* \"contracts/manager/OrderManager.sol\":773:774  i */\n      dup3\n        /* \"contracts/manager/OrderManager.sol\":766:775  _items[i] */\n      dup2\n      mload\n      dup2\n      lt\n      tag_75\n      jumpi\n      tag_76\n      tag_74\n      jump\t// in\n    tag_76:\n    tag_75:\n      0x20\n      mul\n      0x20\n      add\n      add\n      mload\n        /* \"contracts/manager/OrderManager.sol\":766:781  _items[i].price */\n      0x40\n      add\n      mload\n        /* \"contracts/manager/OrderManager.sol\":766:802  _items[i].price * _items[i].quantity */\n      tag_77\n      swap2\n      swap1\n      tag_78\n      jump\t// in\n    tag_77:\n        /* \"contracts/manager/OrderManager.sol\":751:802  totalAmount += _items[i].price * _items[i].quantity */\n      dup4\n      tag_79\n      swap2\n      swap1\n      tag_80\n      jump\t// in\n    tag_79:\n      swap3\n      pop\n        /* \"contracts/manager/OrderManager.sol\":831:1124  OrderItem({... */\n      mload(0x40)\n      dup1\n      0xc0\n      add\n      0x40\n      mstore\n      dup1\n        /* \"contracts/manager/OrderManager.sol\":872:887  nextOrderItemId */\n      0x00\n      0x00\n        /* \"contracts/manager/OrderManager.sol\":872:889  nextOrderItemId++ */\n      dup2\n      sload\n      dup1\n      swap3\n      swap2\n      swap1\n      tag_81\n      swap1\n      tag_82\n      jump\t// in\n    tag_81:\n      swap2\n      swap1\n      pop\n      sstore\n        /* \"contracts/manager/OrderManager.sol\":831:1124  OrderItem({... */\n      dup2\n      mstore\n      0x20\n      add\n        /* \"contracts/manager/OrderManager.sol\":913:919  _items */\n      dup7\n        /* \"contracts/manager/OrderManager.sol\":920:921  i */\n      dup4\n        /* \"contracts/manager/OrderManager.sol\":913:922  _items[i] */\n      dup2\n      mload\n      dup2\n      lt\n      tag_83\n      jumpi\n      tag_84\n      tag_74\n      jump\t// in\n    tag_84:\n    tag_83:\n      0x20\n      mul\n      0x20\n      add\n      add\n      mload\n        /* \"contracts/manager/OrderManager.sol\":913:927  _items[i].name */\n      0x00\n      add\n      mload\n        /* \"contracts/manager/OrderManager.sol\":831:1124  OrderItem({... */\n      dup2\n      mstore\n      0x20\n      add\n        /* \"contracts/manager/OrderManager.sol\":955:961  _items */\n      dup7\n        /* \"contracts/manager/OrderManager.sol\":962:963  i */\n      dup4\n        /* \"contracts/manager/OrderManager.sol\":955:964  _items[i] */\n      dup2\n      mload\n      dup2\n      lt\n      tag_85\n      jumpi\n      tag_86\n      tag_74\n      jump\t// in\n    tag_86:\n    tag_85:\n      0x20\n      mul\n      0x20\n      add\n      add\n      mload\n        /* \"contracts/manager/OrderManager.sol\":955:973  _items[i].quantity */\n      0x20\n      add\n      mload\n        /* \"contracts/manager/OrderManager.sol\":831:1124  OrderItem({... */\n      dup2\n      mstore\n      0x20\n      add\n        /* \"contracts/manager/OrderManager.sol\":998:1004  _items */\n      dup7\n        /* \"contracts/manager/OrderManager.sol\":1005:1006  i */\n      dup4\n        /* \"contracts/manager/OrderManager.sol\":998:1007  _items[i] */\n      dup2\n      mload\n      dup2\n      lt\n      tag_87\n      jumpi\n      tag_88\n      tag_74\n      jump\t// in\n    tag_88:\n    tag_87:\n      0x20\n      mul\n      0x20\n      add\n      add\n      mload\n        /* \"contracts/manager/OrderManager.sol\":998:1013  _items[i].price */\n      0x40\n      add\n      mload\n        /* \"contracts/manager/OrderManager.sol\":831:1124  OrderItem({... */\n      dup2\n      mstore\n      0x20\n      add\n        /* \"contracts/manager/OrderManager.sol\":1041:1047  _items */\n      dup7\n        /* \"contracts/manager/OrderManager.sol\":1048:1049  i */\n      dup4\n        /* \"contracts/manager/OrderManager.sol\":1041:1050  _items[i] */\n      dup2\n      mload\n      dup2\n      lt\n      tag_89\n      jumpi\n      tag_90\n      tag_74\n      jump\t// in\n    tag_90:\n    tag_89:\n      0x20\n      mul\n      0x20\n      add\n      add\n      mload\n        /* \"contracts/manager/OrderManager.sol\":1041:1059  _items[i].imageUrl */\n      0x60\n      add\n      mload\n        /* \"contracts/manager/OrderManager.sol\":831:1124  OrderItem({... */\n      dup2\n      mstore\n      0x20\n      add\n        /* \"contracts/manager/OrderManager.sol\":1085:1109  OrderItemStatus.Shipping */\n      0x02\n        /* \"contracts/manager/OrderManager.sol\":831:1124  OrderItem({... */\n      dup1\n      dup2\n      gt\n      iszero\n      tag_91\n      jumpi\n      tag_92\n      tag_93\n      jump\t// in\n    tag_92:\n    tag_91:\n      dup2\n      mstore\n      pop\n        /* \"contracts/manager/OrderManager.sol\":816:825  tempItems */\n      dup3\n        /* \"contracts/manager/OrderManager.sol\":826:827  i */\n      dup3\n        /* \"contracts/manager/OrderManager.sol\":816:828  tempItems[i] */\n      dup2\n      mload\n      dup2\n      lt\n      tag_94\n      jumpi\n      tag_95\n      tag_74\n      jump\t// in\n    tag_95:\n    tag_94:\n      0x20\n      mul\n      0x20\n      add\n      add\n        /* \"contracts/manager/OrderManager.sol\":816:1124  tempItems[i] = OrderItem({... */\n      dup2\n      swap1\n      mstore\n      pop\n        /* \"contracts/manager/OrderManager.sol\":732:735  i++ */\n      dup1\n      dup1\n      0x01\n      add\n      swap2\n      pop\n      pop\n        /* \"contracts/manager/OrderManager.sol\":693:1135  for (uint256 i = 0; i < _items.length; i++) {... */\n      jump(tag_69)\n    tag_70:\n      pop\n        /* \"contracts/manager/OrderManager.sol\":1144:1159  uint256 orderId */\n      0x00\n        /* \"contracts/manager/OrderManager.sol\":1162:1173  nextOrderId */\n      0x02\n      0x00\n        /* \"contracts/manager/OrderManager.sol\":1162:1175  nextOrderId++ */\n      dup2\n      sload\n      dup1\n      swap3\n      swap2\n      swap1\n      tag_96\n      swap1\n      tag_82\n      jump\t// in\n    tag_96:\n      swap2\n      swap1\n      pop\n      sstore\n        /* \"contracts/manager/OrderManager.sol\":1144:1175  uint256 orderId = nextOrderId++ */\n      swap1\n      pop\n        /* \"contracts/manager/OrderManager.sol\":1185:1200  Order storage o */\n      0x00\n        /* \"contracts/manager/OrderManager.sol\":1203:1209  orders */\n      0x01\n        /* \"contracts/manager/OrderManager.sol\":1203:1218  orders[orderId] */\n      0x00\n        /* \"contracts/manager/OrderManager.sol\":1210:1217  orderId */\n      dup4\n        /* \"contracts/manager/OrderManager.sol\":1203:1218  orders[orderId] */\n      dup2\n      mstore\n      0x20\n      add\n      swap1\n      dup2\n      mstore\n      0x20\n      add\n      0x00\n      keccak256\n        /* \"contracts/manager/OrderManager.sol\":1185:1218  Order storage o = orders[orderId] */\n      swap1\n      pop\n        /* \"contracts/manager/OrderManager.sol\":1240:1247  orderId */\n      dup2\n        /* \"contracts/manager/OrderManager.sol\":1228:1229  o */\n      dup2\n        /* \"contracts/manager/OrderManager.sol\":1228:1237  o.orderId */\n      0x00\n      add\n        /* \"contracts/manager/OrderManager.sol\":1228:1247  o.orderId = orderId */\n      dup2\n      swap1\n      sstore\n      pop\n        /* \"contracts/manager/OrderManager.sol\":1266:1271  _user */\n      dup8\n        /* \"contracts/manager/OrderManager.sol\":1257:1258  o */\n      dup2\n        /* \"contracts/manager/OrderManager.sol\":1257:1263  o.user */\n      0x01\n      add\n      0x00\n        /* \"contracts/manager/OrderManager.sol\":1257:1271  o.user = _user */\n      0x0100\n      exp\n      dup2\n      sload\n      dup2\n      0xffffffffffffffffffffffffffffffffffffffff\n      mul\n      not\n      and\n      swap1\n      dup4\n      0xffffffffffffffffffffffffffffffffffffffff\n      and\n      mul\n      or\n      swap1\n      sstore\n      pop\n        /* \"contracts/manager/OrderManager.sol\":1294:1303  _userInfo */\n      dup7\n        /* \"contracts/manager/OrderManager.sol\":1281:1282  o */\n      dup2\n        /* \"contracts/manager/OrderManager.sol\":1281:1291  o.userInfo */\n      0x02\n      add\n        /* \"contracts/manager/OrderManager.sol\":1281:1303  o.userInfo = _userInfo */\n      swap1\n      dup2\n      tag_97\n      swap2\n      swap1\n      tag_98\n      jump\t// in\n    tag_97:\n      pop\n        /* \"contracts/manager/OrderManager.sol\":1329:1340  totalAmount */\n      dup4\n        /* \"contracts/manager/OrderManager.sol\":1313:1314  o */\n      dup2\n        /* \"contracts/manager/OrderManager.sol\":1313:1326  o.totalAmount */\n      0x04\n      add\n        /* \"contracts/manager/OrderManager.sol\":1313:1340  o.totalAmount = totalAmount */\n      dup2\n      swap1\n      sstore\n      pop\n        /* \"contracts/manager/OrderManager.sol\":1361:1380  OrderStatus.Pending */\n      0x00\n        /* \"contracts/manager/OrderManager.sol\":1350:1351  o */\n      dup2\n        /* \"contracts/manager/OrderManager.sol\":1350:1358  o.status */\n      0x05\n      add\n      0x00\n        /* \"contracts/manager/OrderManager.sol\":1350:1380  o.status = OrderStatus.Pending */\n      0x0100\n      exp\n      dup2\n      sload\n      dup2\n      0xff\n      mul\n      not\n      and\n      swap1\n      dup4\n      0x02\n      dup2\n      gt\n      iszero\n      tag_99\n      jumpi\n      tag_100\n      tag_93\n      jump\t// in\n    tag_100:\n    tag_99:\n      mul\n      or\n      swap1\n      sstore\n      pop\n        /* \"contracts/manager/OrderManager.sol\":1404:1419  block.timestamp */\n      timestamp\n        /* \"contracts/manager/OrderManager.sol\":1390:1391  o */\n      dup2\n        /* \"contracts/manager/OrderManager.sol\":1390:1401  o.timestamp */\n      0x06\n      add\n        /* \"contracts/manager/OrderManager.sol\":1390:1419  o.timestamp = block.timestamp */\n      dup2\n      swap1\n      sstore\n      pop\n        /* \"contracts/manager/OrderManager.sol\":1435:1444  uint256 i */\n      0x00\n        /* \"contracts/manager/OrderManager.sol\":1447:1448  0 */\n      0x00\n        /* \"contracts/manager/OrderManager.sol\":1435:1448  uint256 i = 0 */\n      swap1\n      pop\n        /* \"contracts/manager/OrderManager.sol\":1430:1528  for (uint256 i = 0; i < tempItems.length; i++) {... */\n    tag_101:\n        /* \"contracts/manager/OrderManager.sol\":1454:1463  tempItems */\n      dup4\n        /* \"contracts/manager/OrderManager.sol\":1454:1470  tempItems.length */\n      mload\n        /* \"contracts/manager/OrderManager.sol\":1450:1451  i */\n      dup2\n        /* \"contracts/manager/OrderManager.sol\":1450:1470  i < tempItems.length */\n      lt\n        /* \"contracts/manager/OrderManager.sol\":1430:1528  for (uint256 i = 0; i < tempItems.length; i++) {... */\n      iszero\n      tag_102\n      jumpi\n        /* \"contracts/manager/OrderManager.sol\":1491:1492  o */\n      dup2\n        /* \"contracts/manager/OrderManager.sol\":1491:1498  o.items */\n      0x03\n      add\n        /* \"contracts/manager/OrderManager.sol\":1504:1513  tempItems */\n      dup5\n        /* \"contracts/manager/OrderManager.sol\":1514:1515  i */\n      dup3\n        /* \"contracts/manager/OrderManager.sol\":1504:1516  tempItems[i] */\n      dup2\n      mload\n      dup2\n      lt\n      tag_104\n      jumpi\n      tag_105\n      tag_74\n      jump\t// in\n    tag_105:\n    tag_104:\n      0x20\n      mul\n      0x20\n      add\n      add\n      mload\n        /* \"contracts/manager/OrderManager.sol\":1491:1517  o.items.push(tempItems[i]) */\n      swap1\n      dup1\n      0x01\n      dup2\n      sload\n      add\n      dup1\n      dup3\n      sstore\n      dup1\n      swap2\n      pop\n      pop\n      0x01\n      swap1\n      sub\n      swap1\n      0x00\n      mstore\n      keccak256(0x00, 0x20)\n      swap1\n      0x06\n      mul\n      add\n      0x00\n      swap1\n      swap2\n      swap1\n      swap2\n      swap1\n      swap2\n      pop\n      0x00\n      dup3\n      add\n      mload\n      dup2\n      0x00\n      add\n      sstore\n      0x20\n      dup3\n      add\n      mload\n      dup2\n      0x01\n      add\n      sstore\n      0x40\n      dup3\n      add\n      mload\n      dup2\n      0x02\n      add\n      sstore\n      0x60\n      dup3\n      add\n      mload\n      dup2\n      0x03\n      add\n      sstore\n      0x80\n      dup3\n      add\n      mload\n      dup2\n      0x04\n      add\n      swap1\n      dup2\n      tag_107\n      swap2\n      swap1\n      tag_98\n      jump\t// in\n    tag_107:\n      pop\n      0xa0\n      dup3\n      add\n      mload\n      dup2\n      0x05\n      add\n      exp(0x0100, 0x00)\n      dup2\n      sload\n      dup2\n      0xff\n      mul\n      not\n      and\n      swap1\n      dup4\n      0x02\n      dup2\n      gt\n      iszero\n      tag_108\n      jumpi\n      tag_109\n      tag_93\n      jump\t// in\n    tag_109:\n    tag_108:\n      mul\n      or\n      swap1\n      sstore\n      pop\n      pop\n      pop\n        /* \"contracts/manager/OrderManager.sol\":1472:1475  i++ */\n      dup1\n      dup1\n      0x01\n      add\n      swap2\n      pop\n      pop\n        /* \"contracts/manager/OrderManager.sol\":1430:1528  for (uint256 i = 0; i < tempItems.length; i++) {... */\n      jump(tag_101)\n    tag_102:\n      pop\n        /* \"contracts/manager/OrderManager.sol\":1556:1557  o */\n      dup1\n        /* \"contracts/manager/OrderManager.sol\":1538:1544  orders */\n      0x01\n        /* \"contracts/manager/OrderManager.sol\":1538:1553  orders[orderId] */\n      0x00\n        /* \"contracts/manager/OrderManager.sol\":1545:1552  orderId */\n      dup5\n        /* \"contracts/manager/OrderManager.sol\":1538:1553  orders[orderId] */\n      dup2\n      mstore\n      0x20\n      add\n      swap1\n      dup2\n      mstore\n      0x20\n      add\n      0x00\n      keccak256\n        /* \"contracts/manager/OrderManager.sol\":1538:1557  orders[orderId] = o */\n      0x00\n      dup3\n      add\n      sload\n      dup2\n      0x00\n      add\n      sstore\n      0x01\n      dup3\n      add\n      0x00\n      swap1\n      sload\n      swap1\n      0x0100\n      exp\n      swap1\n      div\n      0xffffffffffffffffffffffffffffffffffffffff\n      and\n      dup2\n      0x01\n      add\n      exp(0x0100, 0x00)\n      dup2\n      sload\n      dup2\n      0xffffffffffffffffffffffffffffffffffffffff\n      mul\n      not\n      and\n      swap1\n      dup4\n      0xffffffffffffffffffffffffffffffffffffffff\n      and\n      mul\n      or\n      swap1\n      sstore\n      pop\n      0x02\n      dup3\n      add\n      dup2\n      0x02\n      add\n      swap1\n      dup2\n      tag_110\n      swap2\n      swap1\n      tag_111\n      jump\t// in\n    tag_110:\n      pop\n      0x03\n      dup3\n      add\n      dup2\n      0x03\n      add\n      swap1\n      dup1\n      sload\n      tag_112\n      swap3\n      swap2\n      swap1\n      tag_113\n      jump\t// in\n    tag_112:\n      pop\n      0x04\n      dup3\n      add\n      sload\n      dup2\n      0x04\n      add\n      sstore\n      0x05\n      dup3\n      add\n      0x00\n      swap1\n      sload\n      swap1\n      0x0100\n      exp\n      swap1\n      div\n      0xff\n      and\n      dup2\n      0x05\n      add\n      exp(0x0100, 0x00)\n      dup2\n      sload\n      dup2\n      0xff\n      mul\n      not\n      and\n      swap1\n      dup4\n      0x02\n      dup2\n      gt\n      iszero\n      tag_114\n      jumpi\n      tag_115\n      tag_93\n      jump\t// in\n    tag_115:\n    tag_114:\n      mul\n      or\n      swap1\n      sstore\n      pop\n      0x06\n      dup3\n      add\n      sload\n      dup2\n      0x06\n      add\n      sstore\n      swap1\n      pop\n      pop\n        /* \"contracts/manager/OrderManager.sol\":1567:1577  userOrders */\n      0x03\n        /* \"contracts/manager/OrderManager.sol\":1567:1584  userOrders[_user] */\n      0x00\n        /* \"contracts/manager/OrderManager.sol\":1578:1583  _user */\n      dup10\n        /* \"contracts/manager/OrderManager.sol\":1567:1584  userOrders[_user] */\n      0xffffffffffffffffffffffffffffffffffffffff\n      and\n      0xffffffffffffffffffffffffffffffffffffffff\n      and\n      dup2\n      mstore\n      0x20\n      add\n      swap1\n      dup2\n      mstore\n      0x20\n      add\n      0x00\n      keccak256\n        /* \"contracts/manager/OrderManager.sol\":1590:1597  orderId */\n      dup3\n        /* \"contracts/manager/OrderManager.sol\":1567:1598  userOrders[_user].push(orderId) */\n      swap1\n      dup1\n      0x01\n      dup2\n      sload\n      add\n      dup1\n      dup3\n      sstore\n      dup1\n      swap2\n      pop\n      pop\n      0x01\n      swap1\n      sub\n      swap1\n      0x00\n      mstore\n      keccak256(0x00, 0x20)\n      add\n      0x00\n      swap1\n      swap2\n      swap1\n      swap2\n      swap1\n      swap2\n      pop\n      sstore\n        /* \"contracts/manager/OrderManager.sol\":1613:1753  OrderCreated(... */\n      0x0775f96371002afbe57d2480d177685c05526801bf220210de69b14801ab7738\n        /* \"contracts/manager/OrderManager.sol\":1639:1646  orderId */\n      dup3\n        /* \"contracts/manager/OrderManager.sol\":1660:1665  _user */\n      dup10\n        /* \"contracts/manager/OrderManager.sol\":1679:1690  totalAmount */\n      dup7\n        /* \"contracts/manager/OrderManager.sol\":1704:1723  OrderStatus.Pending */\n      0x00\n        /* \"contracts/manager/OrderManager.sol\":1737:1743  _items */\n      dup11\n        /* \"contracts/manager/OrderManager.sol\":1613:1753  OrderCreated(... */\n      mload(0x40)\n      tag_117\n      swap6\n      swap5\n      swap4\n      swap3\n      swap2\n      swap1\n      tag_118\n      jump\t// in\n    tag_117:\n      mload(0x40)\n      dup1\n      swap2\n      sub\n      swap1\n      log1\n        /* \"contracts/manager/OrderManager.sol\":1770:1771  o */\n      dup1\n        /* \"contracts/manager/OrderManager.sol\":1763:1771  return o */\n      mload(0x40)\n      dup1\n      0xe0\n      add\n      0x40\n      mstore\n      swap1\n      dup2\n      0x00\n      dup3\n      add\n      sload\n      dup2\n      mstore\n      0x20\n      add\n      0x01\n      dup3\n      add\n      0x00\n      swap1\n      sload\n      swap1\n      0x0100\n      exp\n      swap1\n      div\n      0xffffffffffffffffffffffffffffffffffffffff\n      and\n      0xffffffffffffffffffffffffffffffffffffffff\n      and\n      0xffffffffffffffffffffffffffffffffffffffff\n      and\n      dup2\n      mstore\n      0x20\n      add\n      0x02\n      dup3\n      add\n      dup1\n      sload\n      tag_119\n      swap1\n      tag_120\n      jump\t// in\n    tag_119:\n      dup1\n      0x1f\n      add\n      0x20\n      dup1\n      swap2\n      div\n      mul\n      0x20\n      add\n      mload(0x40)\n      swap1\n      dup2\n      add\n      0x40\n      mstore\n      dup1\n      swap3\n      swap2\n      swap1\n      dup2\n      dup2\n      mstore\n      0x20\n      add\n      dup3\n      dup1\n      sload\n      tag_121\n      swap1\n      tag_120\n      jump\t// in\n    tag_121:\n      dup1\n      iszero\n      tag_122\n      jumpi\n      dup1\n      0x1f\n      lt\n      tag_123\n      jumpi\n      0x0100\n      dup1\n      dup4\n      sload\n      div\n      mul\n      dup4\n      mstore\n      swap2\n      0x20\n      add\n      swap2\n      jump(tag_122)\n    tag_123:\n      dup3\n      add\n      swap2\n      swap1\n      0x00\n      mstore\n      keccak256(0x00, 0x20)\n      swap1\n    tag_124:\n      dup2\n      sload\n      dup2\n      mstore\n      swap1\n      0x01\n      add\n      swap1\n      0x20\n      add\n      dup1\n      dup4\n      gt\n      tag_124\n      jumpi\n      dup3\n      swap1\n      sub\n      0x1f\n      and\n      dup3\n      add\n      swap2\n    tag_122:\n      pop\n      pop\n      pop\n      pop\n      pop\n      dup2\n      mstore\n      0x20\n      add\n      0x03\n      dup3\n      add\n      dup1\n      sload\n      dup1\n      0x20\n      mul\n      0x20\n      add\n      mload(0x40)\n      swap1\n      dup2\n      add\n      0x40\n      mstore\n      dup1\n      swap3\n      swap2\n      swap1\n      dup2\n      dup2\n      mstore\n      0x20\n      add\n      0x00\n      swap1\n    tag_125:\n      dup3\n      dup3\n      lt\n      iszero\n      tag_126\n      jumpi\n      dup4\n      dup3\n      swap1\n      0x00\n      mstore\n      keccak256(0x00, 0x20)\n      swap1\n      0x06\n      mul\n      add\n      mload(0x40)\n      dup1\n      0xc0\n      add\n      0x40\n      mstore\n      swap1\n      dup2\n      0x00\n      dup3\n      add\n      sload\n      dup2\n      mstore\n      0x20\n      add\n      0x01\n      dup3\n      add\n      sload\n      dup2\n      mstore\n      0x20\n      add\n      0x02\n      dup3\n      add\n      sload\n      dup2\n      mstore\n      0x20\n      add\n      0x03\n      dup3\n      add\n      sload\n      dup2\n      mstore\n      0x20\n      add\n      0x04\n      dup3\n      add\n      dup1\n      sload\n      tag_128\n      swap1\n      tag_120\n      jump\t// in\n    tag_128:\n      dup1\n      0x1f\n      add\n      0x20\n      dup1\n      swap2\n      div\n      mul\n      0x20\n      add\n      mload(0x40)\n      swap1\n      dup2\n      add\n      0x40\n      mstore\n      dup1\n      swap3\n      swap2\n      swap1\n      dup2\n      dup2\n      mstore\n      0x20\n      add\n      dup3\n      dup1\n      sload\n      tag_129\n      swap1\n      tag_120\n      jump\t// in\n    tag_129:\n      dup1\n      iszero\n      tag_130\n      jumpi\n      dup1\n      0x1f\n      lt\n      tag_131\n      jumpi\n      0x0100\n      dup1\n      dup4\n      sload\n      div\n      mul\n      dup4\n      mstore\n      swap2\n      0x20\n      add\n      swap2\n      jump(tag_130)\n    tag_131:\n      dup3\n      add\n      swap2\n      swap1\n      0x00\n      mstore\n      keccak256(0x00, 0x20)\n      swap1\n    tag_132:\n      dup2\n      sload\n      dup2\n      mstore\n      swap1\n      0x01\n      add\n      swap1\n      0x20\n      add\n      dup1\n      dup4\n      gt\n      tag_132\n      jumpi\n      dup3\n      swap1\n      sub\n      0x1f\n      and\n      dup3\n      add\n      swap2\n    tag_130:\n      pop\n      pop\n      pop\n      pop\n      pop\n      dup2\n      mstore\n      0x20\n      add\n      0x05\n      dup3\n      add\n      0x00\n      swap1\n      sload\n      swap1\n      0x0100\n      exp\n      swap1\n      div\n      0xff\n      and\n      0x02\n      dup2\n      gt\n      iszero\n      tag_133\n      jumpi\n      tag_134\n      tag_93\n      jump\t// in\n    tag_134:\n    tag_133:\n      0x02\n      dup2\n      gt\n      iszero\n      tag_135\n      jumpi\n      tag_136\n      tag_93\n      jump\t// in\n    tag_136:\n    tag_135:\n      dup2\n      mstore\n      pop\n      pop\n      dup2\n      mstore\n      0x20\n      add\n      swap1\n      0x01\n      add\n      swap1\n      jump(tag_125)\n    tag_126:\n      pop\n      pop\n      pop\n      pop\n      dup2\n      mstore\n      0x20\n      add\n      0x04\n      dup3\n      add\n      sload\n      dup2\n      mstore\n      0x20\n      add\n      0x05\n      dup3\n      add\n      0x00\n      swap1\n      sload\n      swap1\n      0x0100\n      exp\n      swap1\n      div\n      0xff\n      and\n      0x02\n      dup2\n      gt\n      iszero\n      tag_137\n      jumpi\n      tag_138\n      tag_93\n      jump\t// in\n    tag_138:\n    tag_137:\n      0x02\n      dup2\n      gt\n      iszero\n      tag_139\n      jumpi\n      tag_140\n      tag_93\n      jump\t// in\n    tag_140:\n    tag_139:\n      dup2\n      mstore\n      0x20\n      add\n      0x06\n      dup3\n      add\n      sload\n      dup2\n      mstore\n      pop\n      pop\n      swap5\n      pop\n      pop\n      pop\n      pop\n      pop\n        /* \"contracts/manager/OrderManager.sol\":338:1778  function createOrder(... */\n      swap4\n      swap3\n      pop\n      pop\n      pop\n      jump\t// out\n        /* \"contracts/manager/OrderManager.sol\":258:305  mapping(address => uint256[]) public userOrders */\n    tag_31:\n      mstore(0x20, 0x03)\n      dup2\n      0x00\n      mstore\n      keccak256(0x00, 0x40)\n      dup2\n      dup2\n      sload\n      dup2\n      lt\n      tag_141\n      jumpi\n      0x00\n      dup1\n      revert\n    tag_141:\n      swap1\n      0x00\n      mstore\n      keccak256(0x00, 0x20)\n      add\n      0x00\n      swap2\n      pop\n      swap2\n      pop\n      pop\n      sload\n      dup2\n      jump\t// out\n        /* \"contracts/manager/OrderManager.sol\":1784:2742  function updateOrderItemStatus(... */\n    tag_36:\n        /* \"contracts/manager/OrderManager.sol\":1969:1970  0 */\n      0x00\n        /* \"contracts/manager/OrderManager.sol\":1941:1947  orders */\n      0x01\n        /* \"contracts/manager/OrderManager.sol\":1941:1957  orders[_orderId] */\n      0x00\n        /* \"contracts/manager/OrderManager.sol\":1948:1956  _orderId */\n      dup6\n        /* \"contracts/manager/OrderManager.sol\":1941:1957  orders[_orderId] */\n      dup2\n      mstore\n      0x20\n      add\n      swap1\n      dup2\n      mstore\n      0x20\n      add\n      0x00\n      keccak256\n        /* \"contracts/manager/OrderManager.sol\":1941:1965  orders[_orderId].orderId */\n      0x00\n      add\n      sload\n        /* \"contracts/manager/OrderManager.sol\":1941:1970  orders[_orderId].orderId != 0 */\n      sub\n        /* \"contracts/manager/OrderManager.sol\":1933:1995  require(orders[_orderId].orderId != 0, \"Order does not exist\") */\n      tag_144\n      jumpi\n      mload(0x40)\n      0x08c379a000000000000000000000000000000000000000000000000000000000\n      dup2\n      mstore\n      0x04\n      add\n      tag_145\n      swap1\n      tag_146\n      jump\t// in\n    tag_145:\n      mload(0x40)\n      dup1\n      swap2\n      sub\n      swap1\n      revert\n    tag_144:\n        /* \"contracts/manager/OrderManager.sol\":2005:2027  Order memory tempOrder */\n      0x00\n        /* \"contracts/manager/OrderManager.sol\":2030:2036  orders */\n      0x01\n        /* \"contracts/manager/OrderManager.sol\":2030:2046  orders[_orderId] */\n      0x00\n        /* \"contracts/manager/OrderManager.sol\":2037:2045  _orderId */\n      dup6\n        /* \"contracts/manager/OrderManager.sol\":2030:2046  orders[_orderId] */\n      dup2\n      mstore\n      0x20\n      add\n      swap1\n      dup2\n      mstore\n      0x20\n      add\n      0x00\n      keccak256\n        /* \"contracts/manager/OrderManager.sol\":2005:2046  Order memory tempOrder = orders[_orderId] */\n      mload(0x40)\n      dup1\n      0xe0\n      add\n      0x40\n      mstore\n      swap1\n      dup2\n      0x00\n      dup3\n      add\n      sload\n      dup2\n      mstore\n      0x20\n      add\n      0x01\n      dup3\n      add\n      0x00\n      swap1\n      sload\n      swap1\n      0x0100\n      exp\n      swap1\n      div\n      0xffffffffffffffffffffffffffffffffffffffff\n      and\n      0xffffffffffffffffffffffffffffffffffffffff\n      and\n      0xffffffffffffffffffffffffffffffffffffffff\n      and\n      dup2\n      mstore\n      0x20\n      add\n      0x02\n      dup3\n      add\n      dup1\n      sload\n      tag_147\n      swap1\n      tag_120\n      jump\t// in\n    tag_147:\n      dup1\n      0x1f\n      add\n      0x20\n      dup1\n      swap2\n      div\n      mul\n      0x20\n      add\n      mload(0x40)\n      swap1\n      dup2\n      add\n      0x40\n      mstore\n      dup1\n      swap3\n      swap2\n      swap1\n      dup2\n      dup2\n      mstore\n      0x20\n      add\n      dup3\n      dup1\n      sload\n      tag_148\n      swap1\n      tag_120\n      jump\t// in\n    tag_148:\n      dup1\n      iszero\n      tag_149\n      jumpi\n      dup1\n      0x1f\n      lt\n      tag_150\n      jumpi\n      0x0100\n      dup1\n      dup4\n      sload\n      div\n      mul\n      dup4\n      mstore\n      swap2\n      0x20\n      add\n      swap2\n      jump(tag_149)\n    tag_150:\n      dup3\n      add\n      swap2\n      swap1\n      0x00\n      mstore\n      keccak256(0x00, 0x20)\n      swap1\n    tag_151:\n      dup2\n      sload\n      dup2\n      mstore\n      swap1\n      0x01\n      add\n      swap1\n      0x20\n      add\n      dup1\n      dup4\n      gt\n      tag_151\n      jumpi\n      dup3\n      swap1\n      sub\n      0x1f\n      and\n      dup3\n      add\n      swap2\n    tag_149:\n      pop\n      pop\n      pop\n      pop\n      pop\n      dup2\n      mstore\n      0x20\n      add\n      0x03\n      dup3\n      add\n      dup1\n      sload\n      dup1\n      0x20\n      mul\n      0x20\n      add\n      mload(0x40)\n      swap1\n      dup2\n      add\n      0x40\n      mstore\n      dup1\n      swap3\n      swap2\n      swap1\n      dup2\n      dup2\n      mstore\n      0x20\n      add\n      0x00\n      swap1\n    tag_152:\n      dup3\n      dup3\n      lt\n      iszero\n      tag_153\n      jumpi\n      dup4\n      dup3\n      swap1\n      0x00\n      mstore\n      keccak256(0x00, 0x20)\n      swap1\n      0x06\n      mul\n      add\n      mload(0x40)\n      dup1\n      0xc0\n      add\n      0x40\n      mstore\n      swap1\n      dup2\n      0x00\n      dup3\n      add\n      sload\n      dup2\n      mstore\n      0x20\n      add\n      0x01\n      dup3\n      add\n      sload\n      dup2\n      mstore\n      0x20\n      add\n      0x02\n      dup3\n      add\n      sload\n      dup2\n      mstore\n      0x20\n      add\n      0x03\n      dup3\n      add\n      sload\n      dup2\n      mstore\n      0x20\n      add\n      0x04\n      dup3\n      add\n      dup1\n      sload\n      tag_155\n      swap1\n      tag_120\n      jump\t// in\n    tag_155:\n      dup1\n      0x1f\n      add\n      0x20\n      dup1\n      swap2\n      div\n      mul\n      0x20\n      add\n      mload(0x40)\n      swap1\n      dup2\n      add\n      0x40\n      mstore\n      dup1\n      swap3\n      swap2\n      swap1\n      dup2\n      dup2\n      mstore\n      0x20\n      add\n      dup3\n      dup1\n      sload\n      tag_156\n      swap1\n      tag_120\n      jump\t// in\n    tag_156:\n      dup1\n      iszero\n      tag_157\n      jumpi\n      dup1\n      0x1f\n      lt\n      tag_158\n      jumpi\n      0x0100\n      dup1\n      dup4\n      sload\n      div\n      mul\n      dup4\n      mstore\n      swap2\n      0x20\n      add\n      swap2\n      jump(tag_157)\n    tag_158:\n      dup3\n      add\n      swap2\n      swap1\n      0x00\n      mstore\n      keccak256(0x00, 0x20)\n      swap1\n    tag_159:\n      dup2\n      sload\n      dup2\n      mstore\n      swap1\n      0x01\n      add\n      swap1\n      0x20\n      add\n      dup1\n      dup4\n      gt\n      tag_159\n      jumpi\n      dup3\n      swap1\n      sub\n      0x1f\n      and\n      dup3\n      add\n      swap2\n    tag_157:\n      pop\n      pop\n      pop\n      pop\n      pop\n      dup2\n      mstore\n      0x20\n      add\n      0x05\n      dup3\n      add\n      0x00\n      swap1\n      sload\n      swap1\n      0x0100\n      exp\n      swap1\n      div\n      0xff\n      and\n      0x02\n      dup2\n      gt\n      iszero\n      tag_160\n      jumpi\n      tag_161\n      tag_93\n      jump\t// in\n    tag_161:\n    tag_160:\n      0x02\n      dup2\n      gt\n      iszero\n      tag_162\n      jumpi\n      tag_163\n      tag_93\n      jump\t// in\n    tag_163:\n    tag_162:\n      dup2\n      mstore\n      pop\n      pop\n      dup2\n      mstore\n      0x20\n      add\n      swap1\n      0x01\n      add\n      swap1\n      jump(tag_152)\n    tag_153:\n      pop\n      pop\n      pop\n      pop\n      dup2\n      mstore\n      0x20\n      add\n      0x04\n      dup3\n      add\n      sload\n      dup2\n      mstore\n      0x20\n      add\n      0x05\n      dup3\n      add\n      0x00\n      swap1\n      sload\n      swap1\n      0x0100\n      exp\n      swap1\n      div\n      0xff\n      and\n      0x02\n      dup2\n      gt\n      iszero\n      tag_164\n      jumpi\n      tag_165\n      tag_93\n      jump\t// in\n    tag_165:\n    tag_164:\n      0x02\n      dup2\n      gt\n      iszero\n      tag_166\n      jumpi\n      tag_167\n      tag_93\n      jump\t// in\n    tag_167:\n    tag_166:\n      dup2\n      mstore\n      0x20\n      add\n      0x06\n      dup3\n      add\n      sload\n      dup2\n      mstore\n      pop\n      pop\n      swap1\n      pop\n        /* \"contracts/manager/OrderManager.sol\":2060:2066  uint i */\n      0x00\n        /* \"contracts/manager/OrderManager.sol\":2067:2068  0 */\n      0x00\n        /* \"contracts/manager/OrderManager.sol\":2060:2068  uint i=0 */\n      swap1\n      pop\n        /* \"contracts/manager/OrderManager.sol\":2056:2663  for(uint i=0 ; i< tempOrder.items.length ; i++){... */\n    tag_168:\n        /* \"contracts/manager/OrderManager.sol\":2074:2083  tempOrder */\n      dup2\n        /* \"contracts/manager/OrderManager.sol\":2074:2089  tempOrder.items */\n      0x60\n      add\n      mload\n        /* \"contracts/manager/OrderManager.sol\":2074:2096  tempOrder.items.length */\n      mload\n        /* \"contracts/manager/OrderManager.sol\":2071:2072  i */\n      dup2\n        /* \"contracts/manager/OrderManager.sol\":2071:2096  i< tempOrder.items.length */\n      lt\n        /* \"contracts/manager/OrderManager.sol\":2056:2663  for(uint i=0 ; i< tempOrder.items.length ; i++){... */\n      iszero\n      tag_169\n      jumpi\n        /* \"contracts/manager/OrderManager.sol\":2165:2177  _orderItemId */\n      dup4\n        /* \"contracts/manager/OrderManager.sol\":2120:2126  orders */\n      0x01\n        /* \"contracts/manager/OrderManager.sol\":2120:2140  orders[_orderItemId] */\n      0x00\n        /* \"contracts/manager/OrderManager.sol\":2127:2139  _orderItemId */\n      dup7\n        /* \"contracts/manager/OrderManager.sol\":2120:2140  orders[_orderItemId] */\n      dup2\n      mstore\n      0x20\n      add\n      swap1\n      dup2\n      mstore\n      0x20\n      add\n      0x00\n      keccak256\n        /* \"contracts/manager/OrderManager.sol\":2120:2146  orders[_orderItemId].items */\n      0x03\n      add\n        /* \"contracts/manager/OrderManager.sol\":2147:2148  i */\n      dup3\n        /* \"contracts/manager/OrderManager.sol\":2120:2149  orders[_orderItemId].items[i] */\n      dup2\n      sload\n      dup2\n      lt\n      tag_171\n      jumpi\n      tag_172\n      tag_74\n      jump\t// in\n    tag_172:\n    tag_171:\n      swap1\n      0x00\n      mstore\n      keccak256(0x00, 0x20)\n      swap1\n      0x06\n      mul\n      add\n        /* \"contracts/manager/OrderManager.sol\":2120:2161  orders[_orderItemId].items[i].orderItemId */\n      0x00\n      add\n      sload\n        /* \"contracts/manager/OrderManager.sol\":2120:2177  orders[_orderItemId].items[i].orderItemId == _orderItemId */\n      sub\n        /* \"contracts/manager/OrderManager.sol\":2117:2653  if(orders[_orderItemId].items[i].orderItemId == _orderItemId){... */\n      tag_174\n      jumpi\n        /* \"contracts/manager/OrderManager.sol\":2234:2257  OrderItemStatus.Success */\n      0x00\n        /* \"contracts/manager/OrderManager.sol\":2205:2257  tempOrder.items[i].status != OrderItemStatus.Success */\n      0x02\n      dup2\n      gt\n      iszero\n      tag_175\n      jumpi\n      tag_176\n      tag_93\n      jump\t// in\n    tag_176:\n    tag_175:\n        /* \"contracts/manager/OrderManager.sol\":2205:2214  tempOrder */\n      dup3\n        /* \"contracts/manager/OrderManager.sol\":2205:2220  tempOrder.items */\n      0x60\n      add\n      mload\n        /* \"contracts/manager/OrderManager.sol\":2221:2222  i */\n      dup3\n        /* \"contracts/manager/OrderManager.sol\":2205:2223  tempOrder.items[i] */\n      dup2\n      mload\n      dup2\n      lt\n      tag_177\n      jumpi\n      tag_178\n      tag_74\n      jump\t// in\n    tag_178:\n    tag_177:\n      0x20\n      mul\n      0x20\n      add\n      add\n      mload\n        /* \"contracts/manager/OrderManager.sol\":2205:2230  tempOrder.items[i].status */\n      0xa0\n      add\n      mload\n        /* \"contracts/manager/OrderManager.sol\":2205:2257  tempOrder.items[i].status != OrderItemStatus.Success */\n      0x02\n      dup2\n      gt\n      iszero\n      tag_179\n      jumpi\n      tag_180\n      tag_93\n      jump\t// in\n    tag_180:\n    tag_179:\n      sub\n        /* \"contracts/manager/OrderManager.sol\":2197:2314  require(tempOrder.items[i].status != OrderItemStatus.Success, \"Order item already marked as success. Can not update\") */\n      tag_181\n      jumpi\n      mload(0x40)\n      0x08c379a000000000000000000000000000000000000000000000000000000000\n      dup2\n      mstore\n      0x04\n      add\n      tag_182\n      swap1\n      tag_183\n      jump\t// in\n    tag_182:\n      mload(0x40)\n      dup1\n      swap2\n      sub\n      swap1\n      revert\n    tag_181:\n        /* \"contracts/manager/OrderManager.sol\":2367:2377  _newStatus */\n      dup3\n        /* \"contracts/manager/OrderManager.sol\":2332:2338  orders */\n      0x01\n        /* \"contracts/manager/OrderManager.sol\":2332:2348  orders[_orderId] */\n      0x00\n        /* \"contracts/manager/OrderManager.sol\":2339:2347  _orderId */\n      dup8\n        /* \"contracts/manager/OrderManager.sol\":2332:2348  orders[_orderId] */\n      dup2\n      mstore\n      0x20\n      add\n      swap1\n      dup2\n      mstore\n      0x20\n      add\n      0x00\n      keccak256\n        /* \"contracts/manager/OrderManager.sol\":2332:2354  orders[_orderId].items */\n      0x03\n      add\n        /* \"contracts/manager/OrderManager.sol\":2355:2356  i */\n      dup3\n        /* \"contracts/manager/OrderManager.sol\":2332:2357  orders[_orderId].items[i] */\n      dup2\n      sload\n      dup2\n      lt\n      tag_184\n      jumpi\n      tag_185\n      tag_74\n      jump\t// in\n    tag_185:\n    tag_184:\n      swap1\n      0x00\n      mstore\n      keccak256(0x00, 0x20)\n      swap1\n      0x06\n      mul\n      add\n        /* \"contracts/manager/OrderManager.sol\":2332:2364  orders[_orderId].items[i].status */\n      0x05\n      add\n      0x00\n        /* \"contracts/manager/OrderManager.sol\":2332:2377  orders[_orderId].items[i].status = _newStatus */\n      0x0100\n      exp\n      dup2\n      sload\n      dup2\n      0xff\n      mul\n      not\n      and\n      swap1\n      dup4\n      0x02\n      dup2\n      gt\n      iszero\n      tag_187\n      jumpi\n      tag_188\n      tag_93\n      jump\t// in\n    tag_188:\n    tag_187:\n      mul\n      or\n      swap1\n      sstore\n      pop\n        /* \"contracts/manager/OrderManager.sol\":2412:2435  OrderItemStatus.Success */\n      0x00\n        /* \"contracts/manager/OrderManager.sol\":2398:2435  _newStatus != OrderItemStatus.Success */\n      0x02\n      dup2\n      gt\n      iszero\n      tag_189\n      jumpi\n      tag_190\n      tag_93\n      jump\t// in\n    tag_190:\n    tag_189:\n        /* \"contracts/manager/OrderManager.sol\":2398:2408  _newStatus */\n      dup4\n        /* \"contracts/manager/OrderManager.sol\":2398:2435  _newStatus != OrderItemStatus.Success */\n      0x02\n      dup2\n      gt\n      iszero\n      tag_191\n      jumpi\n      tag_192\n      tag_93\n      jump\t// in\n    tag_192:\n    tag_191:\n      eq\n        /* \"contracts/manager/OrderManager.sol\":2395:2542  if(_newStatus != OrderItemStatus.Success){... */\n      tag_193\n      jumpi\n        /* \"contracts/manager/OrderManager.sol\":2496:2505  tempOrder */\n      dup2\n        /* \"contracts/manager/OrderManager.sol\":2496:2511  tempOrder.items */\n      0x60\n      add\n      mload\n        /* \"contracts/manager/OrderManager.sol\":2512:2513  i */\n      dup2\n        /* \"contracts/manager/OrderManager.sol\":2496:2514  tempOrder.items[i] */\n      dup2\n      mload\n      dup2\n      lt\n      tag_194\n      jumpi\n      tag_195\n      tag_74\n      jump\t// in\n    tag_195:\n    tag_194:\n      0x20\n      mul\n      0x20\n      add\n      add\n      mload\n        /* \"contracts/manager/OrderManager.sol\":2496:2523  tempOrder.items[i].quantity */\n      0x40\n      add\n      mload\n        /* \"contracts/manager/OrderManager.sol\":2458:2464  orders */\n      0x01\n        /* \"contracts/manager/OrderManager.sol\":2458:2474  orders[_orderId] */\n      0x00\n        /* \"contracts/manager/OrderManager.sol\":2465:2473  _orderId */\n      dup8\n        /* \"contracts/manager/OrderManager.sol\":2458:2474  orders[_orderId] */\n      dup2\n      mstore\n      0x20\n      add\n      swap1\n      dup2\n      mstore\n      0x20\n      add\n      0x00\n      keccak256\n        /* \"contracts/manager/OrderManager.sol\":2458:2480  orders[_orderId].items */\n      0x03\n      add\n        /* \"contracts/manager/OrderManager.sol\":2481:2482  i */\n      dup3\n        /* \"contracts/manager/OrderManager.sol\":2458:2483  orders[_orderId].items[i] */\n      dup2\n      sload\n      dup2\n      lt\n      tag_196\n      jumpi\n      tag_197\n      tag_74\n      jump\t// in\n    tag_197:\n    tag_196:\n      swap1\n      0x00\n      mstore\n      keccak256(0x00, 0x20)\n      swap1\n      0x06\n      mul\n      add\n        /* \"contracts/manager/OrderManager.sol\":2458:2492  orders[_orderId].items[i].quantity */\n      0x02\n      add\n      0x00\n        /* \"contracts/manager/OrderManager.sol\":2458:2523  orders[_orderId].items[i].quantity -= tempOrder.items[i].quantity */\n      dup3\n      dup3\n      sload\n      tag_199\n      swap2\n      swap1\n      tag_200\n      jump\t// in\n    tag_199:\n      swap3\n      pop\n      pop\n      dup2\n      swap1\n      sstore\n      pop\n        /* \"contracts/manager/OrderManager.sol\":2395:2542  if(_newStatus != OrderItemStatus.Success){... */\n    tag_193:\n        /* \"contracts/manager/OrderManager.sol\":2591:2600  tempOrder */\n      dup2\n        /* \"contracts/manager/OrderManager.sol\":2591:2606  tempOrder.items */\n      0x60\n      add\n      mload\n        /* \"contracts/manager/OrderManager.sol\":2607:2608  i */\n      dup2\n        /* \"contracts/manager/OrderManager.sol\":2591:2609  tempOrder.items[i] */\n      dup2\n      mload\n      dup2\n      lt\n      tag_201\n      jumpi\n      tag_202\n      tag_74\n      jump\t// in\n    tag_202:\n    tag_201:\n      0x20\n      mul\n      0x20\n      add\n      add\n      mload\n        /* \"contracts/manager/OrderManager.sol\":2591:2615  tempOrder.items[i].price */\n      0x60\n      add\n      mload\n        /* \"contracts/manager/OrderManager.sol\":2559:2565  orders */\n      0x01\n        /* \"contracts/manager/OrderManager.sol\":2559:2575  orders[_orderId] */\n      0x00\n        /* \"contracts/manager/OrderManager.sol\":2566:2574  _orderId */\n      dup8\n        /* \"contracts/manager/OrderManager.sol\":2559:2575  orders[_orderId] */\n      dup2\n      mstore\n      0x20\n      add\n      swap1\n      dup2\n      mstore\n      0x20\n      add\n      0x00\n      keccak256\n        /* \"contracts/manager/OrderManager.sol\":2559:2587  orders[_orderId].totalAmount */\n      0x04\n      add\n      0x00\n        /* \"contracts/manager/OrderManager.sol\":2559:2615  orders[_orderId].totalAmount -= tempOrder.items[i].price */\n      dup3\n      dup3\n      sload\n      tag_203\n      swap2\n      swap1\n      tag_200\n      jump\t// in\n    tag_203:\n      swap3\n      pop\n      pop\n      dup2\n      swap1\n      sstore\n      pop\n        /* \"contracts/manager/OrderManager.sol\":2633:2638  break */\n      jump(tag_169)\n        /* \"contracts/manager/OrderManager.sol\":2117:2653  if(orders[_orderItemId].items[i].orderItemId == _orderItemId){... */\n    tag_174:\n        /* \"contracts/manager/OrderManager.sol\":2099:2102  i++ */\n      dup1\n      dup1\n      0x01\n      add\n      swap2\n      pop\n      pop\n        /* \"contracts/manager/OrderManager.sol\":2056:2663  for(uint i=0 ; i< tempOrder.items.length ; i++){... */\n      jump(tag_168)\n    tag_169:\n      pop\n        /* \"contracts/manager/OrderManager.sol\":2677:2735  OrderItemStatusUpdated(_orderId, _orderItemId, _newStatus) */\n      0xaed146b8e6504d3a57dea2f60152e1133fa978a366cbdfbfa83328f48ff1ec09\n        /* \"contracts/manager/OrderManager.sol\":2700:2708  _orderId */\n      dup5\n        /* \"contracts/manager/OrderManager.sol\":2710:2722  _orderItemId */\n      dup5\n        /* \"contracts/manager/OrderManager.sol\":2724:2734  _newStatus */\n      dup5\n        /* \"contracts/manager/OrderManager.sol\":2677:2735  OrderItemStatusUpdated(_orderId, _orderItemId, _newStatus) */\n      mload(0x40)\n      tag_204\n      swap4\n      swap3\n      swap2\n      swap1\n      tag_205\n      jump\t// in\n    tag_204:\n      mload(0x40)\n      dup1\n      swap2\n      sub\n      swap1\n      log1\n        /* \"contracts/manager/OrderManager.sol\":1923:2742  {... */\n      pop\n        /* \"contracts/manager/OrderManager.sol\":1784:2742  function updateOrderItemStatus(... */\n      pop\n      pop\n      pop\n      jump\t// out\n        /* \"contracts/manager/OrderManager.sol\":2747:3318  function getOrdersByStatus(OrderStatus _status)... */\n    tag_40:\n        /* \"contracts/manager/OrderManager.sol\":2857:2871  Order[] memory */\n      0x60\n        /* \"contracts/manager/OrderManager.sol\":2887:2897  uint count */\n      0x00\n        /* \"contracts/manager/OrderManager.sol\":2900:2901  0 */\n      0x00\n        /* \"contracts/manager/OrderManager.sol\":2887:2901  uint count = 0 */\n      swap1\n      pop\n        /* \"contracts/manager/OrderManager.sol\":2916:2922  uint i */\n      0x00\n        /* \"contracts/manager/OrderManager.sol\":2925:2926  1 */\n      0x01\n        /* \"contracts/manager/OrderManager.sol\":2916:2926  uint i = 1 */\n      swap1\n      pop\n        /* \"contracts/manager/OrderManager.sol\":2911:3047  for (uint i = 1; i < nextOrderId; i++) {... */\n    tag_207:\n        /* \"contracts/manager/OrderManager.sol\":2932:2943  nextOrderId */\n      sload(0x02)\n        /* \"contracts/manager/OrderManager.sol\":2928:2929  i */\n      dup2\n        /* \"contracts/manager/OrderManager.sol\":2928:2943  i < nextOrderId */\n      lt\n        /* \"contracts/manager/OrderManager.sol\":2911:3047  for (uint i = 1; i < nextOrderId; i++) {... */\n      iszero\n      tag_208\n      jumpi\n        /* \"contracts/manager/OrderManager.sol\":2988:2995  _status */\n      dup4\n        /* \"contracts/manager/OrderManager.sol\":2968:2995  orders[i].status == _status */\n      0x02\n      dup2\n      gt\n      iszero\n      tag_210\n      jumpi\n      tag_211\n      tag_93\n      jump\t// in\n    tag_211:\n    tag_210:\n        /* \"contracts/manager/OrderManager.sol\":2968:2974  orders */\n      0x01\n        /* \"contracts/manager/OrderManager.sol\":2968:2977  orders[i] */\n      0x00\n        /* \"contracts/manager/OrderManager.sol\":2975:2976  i */\n      dup4\n        /* \"contracts/manager/OrderManager.sol\":2968:2977  orders[i] */\n      dup2\n      mstore\n      0x20\n      add\n      swap1\n      dup2\n      mstore\n      0x20\n      add\n      0x00\n      keccak256\n        /* \"contracts/manager/OrderManager.sol\":2968:2984  orders[i].status */\n      0x05\n      add\n      0x00\n      swap1\n      sload\n      swap1\n      0x0100\n      exp\n      swap1\n      div\n      0xff\n      and\n        /* \"contracts/manager/OrderManager.sol\":2968:2995  orders[i].status == _status */\n      0x02\n      dup2\n      gt\n      iszero\n      tag_212\n      jumpi\n      tag_213\n      tag_93\n      jump\t// in\n    tag_213:\n    tag_212:\n      sub\n        /* \"contracts/manager/OrderManager.sol\":2964:3037  if (orders[i].status == _status) {... */\n      tag_214\n      jumpi\n        /* \"contracts/manager/OrderManager.sol\":3015:3022  count++ */\n      dup2\n      dup1\n      tag_215\n      swap1\n      tag_82\n      jump\t// in\n    tag_215:\n      swap3\n      pop\n      pop\n        /* \"contracts/manager/OrderManager.sol\":2964:3037  if (orders[i].status == _status) {... */\n    tag_214:\n        /* \"contracts/manager/OrderManager.sol\":2945:2948  i++ */\n      dup1\n      dup1\n      0x01\n      add\n      swap2\n      pop\n      pop\n        /* \"contracts/manager/OrderManager.sol\":2911:3047  for (uint i = 1; i < nextOrderId; i++) {... */\n      jump(tag_207)\n    tag_208:\n      pop\n        /* \"contracts/manager/OrderManager.sol\":3057:3078  Order[] memory result */\n      0x00\n        /* \"contracts/manager/OrderManager.sol\":3093:3098  count */\n      dup2\n        /* \"contracts/manager/OrderManager.sol\":3081:3099  new Order[](count) */\n      0xffffffffffffffff\n      dup2\n      gt\n      iszero\n      tag_216\n      jumpi\n      tag_217\n      tag_64\n      jump\t// in\n    tag_217:\n    tag_216:\n      mload(0x40)\n      swap1\n      dup1\n      dup3\n      mstore\n      dup1\n      0x20\n      mul\n      0x20\n      add\n      dup3\n      add\n      0x40\n      mstore\n      dup1\n      iszero\n      tag_218\n      jumpi\n      dup2\n      0x20\n      add\n    tag_219:\n      tag_220\n      tag_57\n      jump\t// in\n    tag_220:\n      dup2\n      mstore\n      0x20\n      add\n      swap1\n      0x01\n      swap1\n      sub\n      swap1\n      dup2\n      tag_219\n      jumpi\n      swap1\n      pop\n    tag_218:\n      pop\n        /* \"contracts/manager/OrderManager.sol\":3057:3099  Order[] memory result = new Order[](count) */\n      swap1\n      pop\n        /* \"contracts/manager/OrderManager.sol\":3109:3119  uint index */\n      0x00\n        /* \"contracts/manager/OrderManager.sol\":3122:3123  0 */\n      0x00\n        /* \"contracts/manager/OrderManager.sol\":3109:3123  uint index = 0 */\n      swap1\n      pop\n        /* \"contracts/manager/OrderManager.sol\":3138:3144  uint i */\n      0x00\n        /* \"contracts/manager/OrderManager.sol\":3147:3148  1 */\n      0x01\n        /* \"contracts/manager/OrderManager.sol\":3138:3148  uint i = 1 */\n      swap1\n      pop\n        /* \"contracts/manager/OrderManager.sol\":3133:3289  for (uint i = 1; i < nextOrderId; i++) {... */\n    tag_221:\n        /* \"contracts/manager/OrderManager.sol\":3154:3165  nextOrderId */\n      sload(0x02)\n        /* \"contracts/manager/OrderManager.sol\":3150:3151  i */\n      dup2\n        /* \"contracts/manager/OrderManager.sol\":3150:3165  i < nextOrderId */\n      lt\n        /* \"contracts/manager/OrderManager.sol\":3133:3289  for (uint i = 1; i < nextOrderId; i++) {... */\n      iszero\n      tag_222\n      jumpi\n        /* \"contracts/manager/OrderManager.sol\":3210:3217  _status */\n      dup6\n        /* \"contracts/manager/OrderManager.sol\":3190:3217  orders[i].status == _status */\n      0x02\n      dup2\n      gt\n      iszero\n      tag_224\n      jumpi\n      tag_225\n      tag_93\n      jump\t// in\n    tag_225:\n    tag_224:\n        /* \"contracts/manager/OrderManager.sol\":3190:3196  orders */\n      0x01\n        /* \"contracts/manager/OrderManager.sol\":3190:3199  orders[i] */\n      0x00\n        /* \"contracts/manager/OrderManager.sol\":3197:3198  i */\n      dup4\n        /* \"contracts/manager/OrderManager.sol\":3190:3199  orders[i] */\n      dup2\n      mstore\n      0x20\n      add\n      swap1\n      dup2\n      mstore\n      0x20\n      add\n      0x00\n      keccak256\n        /* \"contracts/manager/OrderManager.sol\":3190:3206  orders[i].status */\n      0x05\n      add\n      0x00\n      swap1\n      sload\n      swap1\n      0x0100\n      exp\n      swap1\n      div\n      0xff\n      and\n        /* \"contracts/manager/OrderManager.sol\":3190:3217  orders[i].status == _status */\n      0x02\n      dup2\n      gt\n      iszero\n      tag_226\n      jumpi\n      tag_227\n      tag_93\n      jump\t// in\n    tag_227:\n    tag_226:\n      sub\n        /* \"contracts/manager/OrderManager.sol\":3186:3279  if (orders[i].status == _status) {... */\n      tag_228\n      jumpi\n        /* \"contracts/manager/OrderManager.sol\":3255:3261  orders */\n      0x01\n        /* \"contracts/manager/OrderManager.sol\":3255:3264  orders[i] */\n      0x00\n        /* \"contracts/manager/OrderManager.sol\":3262:3263  i */\n      dup3\n        /* \"contracts/manager/OrderManager.sol\":3255:3264  orders[i] */\n      dup2\n      mstore\n      0x20\n      add\n      swap1\n      dup2\n      mstore\n      0x20\n      add\n      0x00\n      keccak256\n        /* \"contracts/manager/OrderManager.sol\":3237:3264  result[index++] = orders[i] */\n      mload(0x40)\n      dup1\n      0xe0\n      add\n      0x40\n      mstore\n      swap1\n      dup2\n      0x00\n      dup3\n      add\n      sload\n      dup2\n      mstore\n      0x20\n      add\n      0x01\n      dup3\n      add\n      0x00\n      swap1\n      sload\n      swap1\n      0x0100\n      exp\n      swap1\n      div\n      0xffffffffffffffffffffffffffffffffffffffff\n      and\n      0xffffffffffffffffffffffffffffffffffffffff\n      and\n      0xffffffffffffffffffffffffffffffffffffffff\n      and\n      dup2\n      mstore\n      0x20\n      add\n      0x02\n      dup3\n      add\n      dup1\n      sload\n      tag_229\n      swap1\n      tag_120\n      jump\t// in\n    tag_229:\n      dup1\n      0x1f\n      add\n      0x20\n      dup1\n      swap2\n      div\n      mul\n      0x20\n      add\n      mload(0x40)\n      swap1\n      dup2\n      add\n      0x40\n      mstore\n      dup1\n      swap3\n      swap2\n      swap1\n      dup2\n      dup2\n      mstore\n      0x20\n      add\n      dup3\n      dup1\n      sload\n      tag_230\n      swap1\n      tag_120\n      jump\t// in\n    tag_230:\n      dup1\n      iszero\n      tag_231\n      jumpi\n      dup1\n      0x1f\n      lt\n      tag_232\n      jumpi\n      0x0100\n      dup1\n      dup4\n      sload\n      div\n      mul\n      dup4\n      mstore\n      swap2\n      0x20\n      add\n      swap2\n      jump(tag_231)\n    tag_232:\n      dup3\n      add\n      swap2\n      swap1\n      0x00\n      mstore\n      keccak256(0x00, 0x20)\n      swap1\n    tag_233:\n      dup2\n      sload\n      dup2\n      mstore\n      swap1\n      0x01\n      add\n      swap1\n      0x20\n      add\n      dup1\n      dup4\n      gt\n      tag_233\n      jumpi\n      dup3\n      swap1\n      sub\n      0x1f\n      and\n      dup3\n      add\n      swap2\n    tag_231:\n      pop\n      pop\n      pop\n      pop\n      pop\n      dup2\n      mstore\n      0x20\n      add\n      0x03\n      dup3\n      add\n      dup1\n      sload\n      dup1\n      0x20\n      mul\n      0x20\n      add\n      mload(0x40)\n      swap1\n      dup2\n      add\n      0x40\n      mstore\n      dup1\n      swap3\n      swap2\n      swap1\n      dup2\n      dup2\n      mstore\n      0x20\n      add\n      0x00\n      swap1\n    tag_234:\n      dup3\n      dup3\n      lt\n      iszero\n      tag_235\n      jumpi\n      dup4\n      dup3\n      swap1\n      0x00\n      mstore\n      keccak256(0x00, 0x20)\n      swap1\n      0x06\n      mul\n      add\n      mload(0x40)\n      dup1\n      0xc0\n      add\n      0x40\n      mstore\n      swap1\n      dup2\n      0x00\n      dup3\n      add\n      sload\n      dup2\n      mstore\n      0x20\n      add\n      0x01\n      dup3\n      add\n      sload\n      dup2\n      mstore\n      0x20\n      add\n      0x02\n      dup3\n      add\n      sload\n      dup2\n      mstore\n      0x20\n      add\n      0x03\n      dup3\n      add\n      sload\n      dup2\n      mstore\n      0x20\n      add\n      0x04\n      dup3\n      add\n      dup1\n      sload\n      tag_237\n      swap1\n      tag_120\n      jump\t// in\n    tag_237:\n      dup1\n      0x1f\n      add\n      0x20\n      dup1\n      swap2\n      div\n      mul\n      0x20\n      add\n      mload(0x40)\n      swap1\n      dup2\n      add\n      0x40\n      mstore\n      dup1\n      swap3\n      swap2\n      swap1\n      dup2\n      dup2\n      mstore\n      0x20\n      add\n      dup3\n      dup1\n      sload\n      tag_238\n      swap1\n      tag_120\n      jump\t// in\n    tag_238:\n      dup1\n      iszero\n      tag_239\n      jumpi\n      dup1\n      0x1f\n      lt\n      tag_240\n      jumpi\n      0x0100\n      dup1\n      dup4\n      sload\n      div\n      mul\n      dup4\n      mstore\n      swap2\n      0x20\n      add\n      swap2\n      jump(tag_239)\n    tag_240:\n      dup3\n      add\n      swap2\n      swap1\n      0x00\n      mstore\n      keccak256(0x00, 0x20)\n      swap1\n    tag_241:\n      dup2\n      sload\n      dup2\n      mstore\n      swap1\n      0x01\n      add\n      swap1\n      0x20\n      add\n      dup1\n      dup4\n      gt\n      tag_241\n      jumpi\n      dup3\n      swap1\n      sub\n      0x1f\n      and\n      dup3\n      add\n      swap2\n    tag_239:\n      pop\n      pop\n      pop\n      pop\n      pop\n      dup2\n      mstore\n      0x20\n      add\n      0x05\n      dup3\n      add\n      0x00\n      swap1\n      sload\n      swap1\n      0x0100\n      exp\n      swap1\n      div\n      0xff\n      and\n      0x02\n      dup2\n      gt\n      iszero\n      tag_242\n      jumpi\n      tag_243\n      tag_93\n      jump\t// in\n    tag_243:\n    tag_242:\n      0x02\n      dup2\n      gt\n      iszero\n      tag_244\n      jumpi\n      tag_245\n      tag_93\n      jump\t// in\n    tag_245:\n    tag_244:\n      dup2\n      mstore\n      pop\n      pop\n      dup2\n      mstore\n      0x20\n      add\n      swap1\n      0x01\n      add\n      swap1\n      jump(tag_234)\n    tag_235:\n      pop\n      pop\n      pop\n      pop\n      dup2\n      mstore\n      0x20\n      add\n      0x04\n      dup3\n      add\n      sload\n      dup2\n      mstore\n      0x20\n      add\n      0x05\n      dup3\n      add\n      0x00\n      swap1\n      sload\n      swap1\n      0x0100\n      exp\n      swap1\n      div\n      0xff\n      and\n      0x02\n      dup2\n      gt\n      iszero\n      tag_246\n      jumpi\n      tag_247\n      tag_93\n      jump\t// in\n    tag_247:\n    tag_246:\n      0x02\n      dup2\n      gt\n      iszero\n      tag_248\n      jumpi\n      tag_249\n      tag_93\n      jump\t// in\n    tag_249:\n    tag_248:\n      dup2\n      mstore\n      0x20\n      add\n      0x06\n      dup3\n      add\n      sload\n      dup2\n      mstore\n      pop\n      pop\n        /* \"contracts/manager/OrderManager.sol\":3237:3243  result */\n      dup4\n        /* \"contracts/manager/OrderManager.sol\":3244:3251  index++ */\n      dup4\n      dup1\n      tag_250\n      swap1\n      tag_82\n      jump\t// in\n    tag_250:\n      swap5\n      pop\n        /* \"contracts/manager/OrderManager.sol\":3237:3252  result[index++] */\n      dup2\n      mload\n      dup2\n      lt\n      tag_251\n      jumpi\n      tag_252\n      tag_74\n      jump\t// in\n    tag_252:\n    tag_251:\n      0x20\n      mul\n      0x20\n      add\n      add\n        /* \"contracts/manager/OrderManager.sol\":3237:3264  result[index++] = orders[i] */\n      dup2\n      swap1\n      mstore\n      pop\n        /* \"contracts/manager/OrderManager.sol\":3186:3279  if (orders[i].status == _status) {... */\n    tag_228:\n        /* \"contracts/manager/OrderManager.sol\":3167:3170  i++ */\n      dup1\n      dup1\n      0x01\n      add\n      swap2\n      pop\n      pop\n        /* \"contracts/manager/OrderManager.sol\":3133:3289  for (uint i = 1; i < nextOrderId; i++) {... */\n      jump(tag_221)\n    tag_222:\n      pop\n        /* \"contracts/manager/OrderManager.sol\":3305:3311  result */\n      dup2\n        /* \"contracts/manager/OrderManager.sol\":3298:3311  return result */\n      swap4\n      pop\n      pop\n      pop\n      pop\n        /* \"contracts/manager/OrderManager.sol\":2747:3318  function getOrdersByStatus(OrderStatus _status)... */\n      swap2\n      swap1\n      pop\n      jump\t// out\n        /* \"contracts/manager/OrderManager.sol\":177:216  mapping(uint256 => Order) public orders */\n    tag_46:\n      mstore(0x20, 0x01)\n      dup1\n      0x00\n      mstore\n      keccak256(0x00, 0x40)\n      0x00\n      swap2\n      pop\n      swap1\n      pop\n      dup1\n      0x00\n      add\n      sload\n      swap1\n      dup1\n      0x01\n      add\n      0x00\n      swap1\n      sload\n      swap1\n      0x0100\n      exp\n      swap1\n      div\n      0xffffffffffffffffffffffffffffffffffffffff\n      and\n      swap1\n      dup1\n      0x02\n      add\n      dup1\n      sload\n      tag_253\n      swap1\n      tag_120\n      jump\t// in\n    tag_253:\n      dup1\n      0x1f\n      add\n      0x20\n      dup1\n      swap2\n      div\n      mul\n      0x20\n      add\n      mload(0x40)\n      swap1\n      dup2\n      add\n      0x40\n      mstore\n      dup1\n      swap3\n      swap2\n      swap1\n      dup2\n      dup2\n      mstore\n      0x20\n      add\n      dup3\n      dup1\n      sload\n      tag_254\n      swap1\n      tag_120\n      jump\t// in\n    tag_254:\n      dup1\n      iszero\n      tag_255\n      jumpi\n      dup1\n      0x1f\n      lt\n      tag_256\n      jumpi\n      0x0100\n      dup1\n      dup4\n      sload\n      div\n      mul\n      dup4\n      mstore\n      swap2\n      0x20\n      add\n      swap2\n      jump(tag_255)\n    tag_256:\n      dup3\n      add\n      swap2\n      swap1\n      0x00\n      mstore\n      keccak256(0x00, 0x20)\n      swap1\n    tag_257:\n      dup2\n      sload\n      dup2\n      mstore\n      swap1\n      0x01\n      add\n      swap1\n      0x20\n      add\n      dup1\n      dup4\n      gt\n      tag_257\n      jumpi\n      dup3\n      swap1\n      sub\n      0x1f\n      and\n      dup3\n      add\n      swap2\n    tag_255:\n      pop\n      pop\n      pop\n      pop\n      pop\n      swap1\n      dup1\n      0x04\n      add\n      sload\n      swap1\n      dup1\n      0x05\n      add\n      0x00\n      swap1\n      sload\n      swap1\n      0x0100\n      exp\n      swap1\n      div\n      0xff\n      and\n      swap1\n      dup1\n      0x06\n      add\n      sload\n      swap1\n      pop\n      dup7\n      jump\t// out\n        /* \"contracts/manager/OrderManager.sol\":3399:3646  function updateOrderStatus(uint _orderId, OrderStatus _status) public override {... */\n    tag_52:\n        /* \"contracts/manager/OrderManager.sol\":3524:3525  0 */\n      0x00\n        /* \"contracts/manager/OrderManager.sol\":3496:3502  orders */\n      0x01\n        /* \"contracts/manager/OrderManager.sol\":3496:3512  orders[_orderId] */\n      0x00\n        /* \"contracts/manager/OrderManager.sol\":3503:3511  _orderId */\n      dup5\n        /* \"contracts/manager/OrderManager.sol\":3496:3512  orders[_orderId] */\n      dup2\n      mstore\n      0x20\n      add\n      swap1\n      dup2\n      mstore\n      0x20\n      add\n      0x00\n      keccak256\n        /* \"contracts/manager/OrderManager.sol\":3496:3520  orders[_orderId].orderId */\n      0x00\n      add\n      sload\n        /* \"contracts/manager/OrderManager.sol\":3496:3525  orders[_orderId].orderId != 0 */\n      sub\n        /* \"contracts/manager/OrderManager.sol\":3488:3550  require(orders[_orderId].orderId != 0, \"Order does not exist\") */\n      tag_259\n      jumpi\n      mload(0x40)\n      0x08c379a000000000000000000000000000000000000000000000000000000000\n      dup2\n      mstore\n      0x04\n      add\n      tag_260\n      swap1\n      tag_146\n      jump\t// in\n    tag_260:\n      mload(0x40)\n      dup1\n      swap2\n      sub\n      swap1\n      revert\n    tag_259:\n        /* \"contracts/manager/OrderManager.sol\":3586:3593  _status */\n      dup1\n        /* \"contracts/manager/OrderManager.sol\":3560:3566  orders */\n      0x01\n        /* \"contracts/manager/OrderManager.sol\":3560:3576  orders[_orderId] */\n      0x00\n        /* \"contracts/manager/OrderManager.sol\":3567:3575  _orderId */\n      dup5\n        /* \"contracts/manager/OrderManager.sol\":3560:3576  orders[_orderId] */\n      dup2\n      mstore\n      0x20\n      add\n      swap1\n      dup2\n      mstore\n      0x20\n      add\n      0x00\n      keccak256\n        /* \"contracts/manager/OrderManager.sol\":3560:3583  orders[_orderId].status */\n      0x05\n      add\n      0x00\n        /* \"contracts/manager/OrderManager.sol\":3560:3593  orders[_orderId].status = _status */\n      0x0100\n      exp\n      dup2\n      sload\n      dup2\n      0xff\n      mul\n      not\n      and\n      swap1\n      dup4\n      0x02\n      dup2\n      gt\n      iszero\n      tag_261\n      jumpi\n      tag_262\n      tag_93\n      jump\t// in\n    tag_262:\n    tag_261:\n      mul\n      or\n      swap1\n      sstore\n      pop\n        /* \"contracts/manager/OrderManager.sol\":3608:3639  OrderUpdated(_orderId, _status) */\n      0x575764e5527275e78fb8b8cecd6ae324a82d9904ef7a29349dabdff1e1f54c35\n        /* \"contracts/manager/OrderManager.sol\":3621:3629  _orderId */\n      dup3\n        /* \"contracts/manager/OrderManager.sol\":3631:3638  _status */\n      dup3\n        /* \"contracts/manager/OrderManager.sol\":3608:3639  OrderUpdated(_orderId, _status) */\n      mload(0x40)\n      tag_263\n      swap3\n      swap2\n      swap1\n      tag_264\n      jump\t// in\n    tag_263:\n      mload(0x40)\n      dup1\n      swap2\n      sub\n      swap1\n      log1\n        /* \"contracts/manager/OrderManager.sol\":3399:3646  function updateOrderStatus(uint _orderId, OrderStatus _status) public override {... */\n      pop\n      pop\n      jump\t// out\n    tag_57:\n      mload(0x40)\n      dup1\n      0xe0\n      add\n      0x40\n      mstore\n      dup1\n      0x00\n      dup2\n      mstore\n      0x20\n      add\n      and(0xffffffffffffffffffffffffffffffffffffffff, 0x00)\n      dup2\n      mstore\n      0x20\n      add\n      0x60\n      dup2\n      mstore\n      0x20\n      add\n      0x60\n      dup2\n      mstore\n      0x20\n      add\n      0x00\n      dup2\n      mstore\n      0x20\n      add\n      0x00\n      0x02\n      dup2\n      gt\n      iszero\n      tag_265\n      jumpi\n      tag_266\n      tag_93\n      jump\t// in\n    tag_266:\n    tag_265:\n      dup2\n      mstore\n      0x20\n      add\n      0x00\n      dup2\n      mstore\n      pop\n      swap1\n      jump\t// out\n    tag_68:\n      mload(0x40)\n      dup1\n      0xc0\n      add\n      0x40\n      mstore\n      dup1\n      0x00\n      dup2\n      mstore\n      0x20\n      add\n      0x00\n      dup2\n      mstore\n      0x20\n      add\n      0x00\n      dup2\n      mstore\n      0x20\n      add\n      0x00\n      dup2\n      mstore\n      0x20\n      add\n      0x60\n      dup2\n      mstore\n      0x20\n      add\n      0x00\n      0x02\n      dup2\n      gt\n      iszero\n      tag_267\n      jumpi\n      tag_268\n      tag_93\n      jump\t// in\n    tag_268:\n    tag_267:\n      dup2\n      mstore\n      pop\n      swap1\n      jump\t// out\n    tag_113:\n      dup3\n      dup1\n      sload\n      dup3\n      dup3\n      sstore\n      swap1\n      0x00\n      mstore\n      keccak256(0x00, 0x20)\n      swap1\n      0x06\n      mul\n      dup2\n      add\n      swap3\n      dup3\n      iszero\n      tag_269\n      jumpi\n      0x00\n      mstore\n      keccak256(0x00, 0x20)\n      swap2\n      0x06\n      mul\n      dup3\n      add\n    tag_270:\n      dup3\n      dup2\n      gt\n      iszero\n      tag_271\n      jumpi\n      dup3\n      dup3\n      0x00\n      dup3\n      add\n      sload\n      dup2\n      0x00\n      add\n      sstore\n      0x01\n      dup3\n      add\n      sload\n      dup2\n      0x01\n      add\n      sstore\n      0x02\n      dup3\n      add\n      sload\n      dup2\n      0x02\n      add\n      sstore\n      0x03\n      dup3\n      add\n      sload\n      dup2\n      0x03\n      add\n      sstore\n      0x04\n      dup3\n      add\n      dup2\n      0x04\n      add\n      swap1\n      dup2\n      tag_272\n      swap2\n      swap1\n      tag_111\n      jump\t// in\n    tag_272:\n      pop\n      0x05\n      dup3\n      add\n      0x00\n      swap1\n      sload\n      swap1\n      0x0100\n      exp\n      swap1\n      div\n      0xff\n      and\n      dup2\n      0x05\n      add\n      exp(0x0100, 0x00)\n      dup2\n      sload\n      dup2\n      0xff\n      mul\n      not\n      and\n      swap1\n      dup4\n      0x02\n      dup2\n      gt\n      iszero\n      tag_273\n      jumpi\n      tag_274\n      tag_93\n      jump\t// in\n    tag_274:\n    tag_273:\n      mul\n      or\n      swap1\n      sstore\n      pop\n      pop\n      pop\n      swap2\n      0x06\n      add\n      swap2\n      swap1\n      0x06\n      add\n      swap1\n      jump(tag_270)\n    tag_271:\n    tag_269:\n      pop\n      swap1\n      pop\n      tag_275\n      swap2\n      swap1\n      tag_276\n      jump\t// in\n    tag_275:\n      pop\n      swap1\n      jump\t// out\n    tag_276:\n    tag_277:\n      dup1\n      dup3\n      gt\n      iszero\n      tag_278\n      jumpi\n      0x00\n      0x00\n      dup3\n      add\n      0x00\n      swap1\n      sstore\n      0x01\n      dup3\n      add\n      0x00\n      swap1\n      sstore\n      0x02\n      dup3\n      add\n      0x00\n      swap1\n      sstore\n      0x03\n      dup3\n      add\n      0x00\n      swap1\n      sstore\n      0x04\n      dup3\n      add\n      0x00\n      tag_279\n      swap2\n      swap1\n      tag_280\n      jump\t// in\n    tag_279:\n      0x05\n      dup3\n      add\n      exp(0x0100, 0x00)\n      dup2\n      sload\n      swap1\n      0xff\n      mul\n      not\n      and\n      swap1\n      sstore\n      pop\n      0x06\n      add\n      jump(tag_277)\n    tag_278:\n      pop\n      swap1\n      jump\t// out\n    tag_280:\n      pop\n      dup1\n      sload\n      tag_281\n      swap1\n      tag_120\n      jump\t// in\n    tag_281:\n      0x00\n      dup3\n      sstore\n      dup1\n      0x1f\n      lt\n      tag_283\n      jumpi\n      pop\n      jump(tag_282)\n    tag_283:\n      0x1f\n      add\n      0x20\n      swap1\n      div\n      swap1\n      0x00\n      mstore\n      keccak256(0x00, 0x20)\n      swap1\n      dup2\n      add\n      swap1\n      tag_284\n      swap2\n      swap1\n      tag_285\n      jump\t// in\n    tag_284:\n    tag_282:\n      pop\n      jump\t// out\n    tag_285:\n    tag_286:\n      dup1\n      dup3\n      gt\n      iszero\n      tag_287\n      jumpi\n      0x00\n      dup2\n      0x00\n      swap1\n      sstore\n      pop\n      0x01\n      add\n      jump(tag_286)\n    tag_287:\n      pop\n      swap1\n      jump\t// out\n        /* \"#utility.yul\":7:84   */\n    tag_288:\n        /* \"#utility.yul\":44:51   */\n      0x00\n        /* \"#utility.yul\":73:78   */\n      dup2\n        /* \"#utility.yul\":62:78   */\n      swap1\n      pop\n        /* \"#utility.yul\":7:84   */\n      swap2\n      swap1\n      pop\n      jump\t// out\n        /* \"#utility.yul\":90:208   */\n    tag_289:\n        /* \"#utility.yul\":177:201   */\n      tag_393\n        /* \"#utility.yul\":195:200   */\n      dup2\n        /* \"#utility.yul\":177:201   */\n      tag_288\n      jump\t// in\n    tag_393:\n        /* \"#utility.yul\":172:175   */\n      dup3\n        /* \"#utility.yul\":165:202   */\n      mstore\n        /* \"#utility.yul\":90:208   */\n      pop\n      pop\n      jump\t// out\n        /* \"#utility.yul\":214:436   */\n    tag_15:\n        /* \"#utility.yul\":307:311   */\n      0x00\n        /* \"#utility.yul\":345:347   */\n      0x20\n        /* \"#utility.yul\":334:343   */\n      dup3\n        /* \"#utility.yul\":330:348   */\n      add\n        /* \"#utility.yul\":322:348   */\n      swap1\n      pop\n        /* \"#utility.yul\":358:429   */\n      tag_395\n        /* \"#utility.yul\":426:427   */\n      0x00\n        /* \"#utility.yul\":415:424   */\n      dup4\n        /* \"#utility.yul\":411:428   */\n      add\n        /* \"#utility.yul\":402:408   */\n      dup5\n        /* \"#utility.yul\":358:429   */\n      tag_289\n      jump\t// in\n    tag_395:\n        /* \"#utility.yul\":214:436   */\n      swap3\n      swap2\n      pop\n      pop\n      jump\t// out\n        /* \"#utility.yul\":442:517   */\n    tag_290:\n        /* \"#utility.yul\":475:481   */\n      0x00\n        /* \"#utility.yul\":508:510   */\n      0x40\n        /* \"#utility.yul\":502:511   */\n      mload\n        /* \"#utility.yul\":492:511   */\n      swap1\n      pop\n        /* \"#utility.yul\":442:517   */\n      swap1\n      jump\t// out\n        /* \"#utility.yul\":523:640   */\n    tag_291:\n        /* \"#utility.yul\":632:633   */\n      0x00\n        /* \"#utility.yul\":629:630   */\n      0x00\n        /* \"#utility.yul\":622:634   */\n      revert\n        /* \"#utility.yul\":646:763   */\n    tag_292:\n        /* \"#utility.yul\":755:756   */\n      0x00\n        /* \"#utility.yul\":752:753   */\n      0x00\n        /* \"#utility.yul\":745:757   */\n      revert\n        /* \"#utility.yul\":769:895   */\n    tag_293:\n        /* \"#utility.yul\":806:813   */\n      0x00\n        /* \"#utility.yul\":846:888   */\n      0xffffffffffffffffffffffffffffffffffffffff\n        /* \"#utility.yul\":839:844   */\n      dup3\n        /* \"#utility.yul\":835:889   */\n      and\n        /* \"#utility.yul\":824:889   */\n      swap1\n      pop\n        /* \"#utility.yul\":769:895   */\n      swap2\n      swap1\n      pop\n      jump\t// out\n        /* \"#utility.yul\":901:997   */\n    tag_294:\n        /* \"#utility.yul\":938:945   */\n      0x00\n        /* \"#utility.yul\":967:991   */\n      tag_401\n        /* \"#utility.yul\":985:990   */\n      dup3\n        /* \"#utility.yul\":967:991   */\n      tag_293\n      jump\t// in\n    tag_401:\n        /* \"#utility.yul\":956:991   */\n      swap1\n      pop\n        /* \"#utility.yul\":901:997   */\n      swap2\n      swap1\n      pop\n      jump\t// out\n        /* \"#utility.yul\":1003:1125   */\n    tag_295:\n        /* \"#utility.yul\":1076:1100   */\n      tag_403\n        /* \"#utility.yul\":1094:1099   */\n      dup2\n        /* \"#utility.yul\":1076:1100   */\n      tag_294\n      jump\t// in\n    tag_403:\n        /* \"#utility.yul\":1069:1074   */\n      dup2\n        /* \"#utility.yul\":1066:1101   */\n      eq\n        /* \"#utility.yul\":1056:1119   */\n      tag_404\n      jumpi\n        /* \"#utility.yul\":1115:1116   */\n      0x00\n        /* \"#utility.yul\":1112:1113   */\n      0x00\n        /* \"#utility.yul\":1105:1117   */\n      revert\n        /* \"#utility.yul\":1056:1119   */\n    tag_404:\n        /* \"#utility.yul\":1003:1125   */\n      pop\n      jump\t// out\n        /* \"#utility.yul\":1131:1270   */\n    tag_296:\n        /* \"#utility.yul\":1177:1182   */\n      0x00\n        /* \"#utility.yul\":1215:1221   */\n      dup2\n        /* \"#utility.yul\":1202:1222   */\n      calldataload\n        /* \"#utility.yul\":1193:1222   */\n      swap1\n      pop\n        /* \"#utility.yul\":1231:1264   */\n      tag_406\n        /* \"#utility.yul\":1258:1263   */\n      dup2\n        /* \"#utility.yul\":1231:1264   */\n      tag_295\n      jump\t// in\n    tag_406:\n        /* \"#utility.yul\":1131:1270   */\n      swap3\n      swap2\n      pop\n      pop\n      jump\t// out\n        /* \"#utility.yul\":1276:1605   */\n    tag_18:\n        /* \"#utility.yul\":1335:1341   */\n      0x00\n        /* \"#utility.yul\":1384:1386   */\n      0x20\n        /* \"#utility.yul\":1372:1381   */\n      dup3\n        /* \"#utility.yul\":1363:1370   */\n      dup5\n        /* \"#utility.yul\":1359:1382   */\n      sub\n        /* \"#utility.yul\":1355:1387   */\n      slt\n        /* \"#utility.yul\":1352:1471   */\n      iszero\n      tag_408\n      jumpi\n        /* \"#utility.yul\":1390:1469   */\n      tag_409\n      tag_291\n      jump\t// in\n    tag_409:\n        /* \"#utility.yul\":1352:1471   */\n    tag_408:\n        /* \"#utility.yul\":1510:1511   */\n      0x00\n        /* \"#utility.yul\":1535:1588   */\n      tag_410\n        /* \"#utility.yul\":1580:1587   */\n      dup5\n        /* \"#utility.yul\":1571:1577   */\n      dup3\n        /* \"#utility.yul\":1560:1569   */\n      dup6\n        /* \"#utility.yul\":1556:1578   */\n      add\n        /* \"#utility.yul\":1535:1588   */\n      tag_296\n      jump\t// in\n    tag_410:\n        /* \"#utility.yul\":1525:1588   */\n      swap2\n      pop\n        /* \"#utility.yul\":1481:1598   */\n      pop\n        /* \"#utility.yul\":1276:1605   */\n      swap3\n      swap2\n      pop\n      pop\n      jump\t// out\n        /* \"#utility.yul\":1611:1725   */\n    tag_297:\n        /* \"#utility.yul\":1678:1684   */\n      0x00\n        /* \"#utility.yul\":1712:1717   */\n      dup2\n        /* \"#utility.yul\":1706:1718   */\n      mload\n        /* \"#utility.yul\":1696:1718   */\n      swap1\n      pop\n        /* \"#utility.yul\":1611:1725   */\n      swap2\n      swap1\n      pop\n      jump\t// out\n        /* \"#utility.yul\":1731:1915   */\n    tag_298:\n        /* \"#utility.yul\":1830:1841   */\n      0x00\n        /* \"#utility.yul\":1864:1870   */\n      dup3\n        /* \"#utility.yul\":1859:1862   */\n      dup3\n        /* \"#utility.yul\":1852:1871   */\n      mstore\n        /* \"#utility.yul\":1904:1908   */\n      0x20\n        /* \"#utility.yul\":1899:1902   */\n      dup3\n        /* \"#utility.yul\":1895:1909   */\n      add\n        /* \"#utility.yul\":1880:1909   */\n      swap1\n      pop\n        /* \"#utility.yul\":1731:1915   */\n      swap3\n      swap2\n      pop\n      pop\n      jump\t// out\n        /* \"#utility.yul\":1921:2053   */\n    tag_299:\n        /* \"#utility.yul\":1988:1992   */\n      0x00\n        /* \"#utility.yul\":2011:2014   */\n      dup2\n        /* \"#utility.yul\":2003:2014   */\n      swap1\n      pop\n        /* \"#utility.yul\":2041:2045   */\n      0x20\n        /* \"#utility.yul\":2036:2039   */\n      dup3\n        /* \"#utility.yul\":2032:2046   */\n      add\n        /* \"#utility.yul\":2024:2046   */\n      swap1\n      pop\n        /* \"#utility.yul\":1921:2053   */\n      swap2\n      swap1\n      pop\n      jump\t// out\n        /* \"#utility.yul\":2059:2167   */\n    tag_300:\n        /* \"#utility.yul\":2136:2160   */\n      tag_415\n        /* \"#utility.yul\":2154:2159   */\n      dup2\n        /* \"#utility.yul\":2136:2160   */\n      tag_288\n      jump\t// in\n    tag_415:\n        /* \"#utility.yul\":2131:2134   */\n      dup3\n        /* \"#utility.yul\":2124:2161   */\n      mstore\n        /* \"#utility.yul\":2059:2167   */\n      pop\n      pop\n      jump\t// out\n        /* \"#utility.yul\":2173:2352   */\n    tag_301:\n        /* \"#utility.yul\":2242:2252   */\n      0x00\n        /* \"#utility.yul\":2263:2309   */\n      tag_417\n        /* \"#utility.yul\":2305:2308   */\n      dup4\n        /* \"#utility.yul\":2297:2303   */\n      dup4\n        /* \"#utility.yul\":2263:2309   */\n      tag_300\n      jump\t// in\n    tag_417:\n        /* \"#utility.yul\":2341:2345   */\n      0x20\n        /* \"#utility.yul\":2336:2339   */\n      dup4\n        /* \"#utility.yul\":2332:2346   */\n      add\n        /* \"#utility.yul\":2318:2346   */\n      swap1\n      pop\n        /* \"#utility.yul\":2173:2352   */\n      swap3\n      swap2\n      pop\n      pop\n      jump\t// out\n        /* \"#utility.yul\":2358:2471   */\n    tag_302:\n        /* \"#utility.yul\":2428:2432   */\n      0x00\n        /* \"#utility.yul\":2460:2464   */\n      0x20\n        /* \"#utility.yul\":2455:2458   */\n      dup3\n        /* \"#utility.yul\":2451:2465   */\n      add\n        /* \"#utility.yul\":2443:2465   */\n      swap1\n      pop\n        /* \"#utility.yul\":2358:2471   */\n      swap2\n      swap1\n      pop\n      jump\t// out\n        /* \"#utility.yul\":2507:3239   */\n    tag_303:\n        /* \"#utility.yul\":2626:2629   */\n      0x00\n        /* \"#utility.yul\":2655:2709   */\n      tag_420\n        /* \"#utility.yul\":2703:2708   */\n      dup3\n        /* \"#utility.yul\":2655:2709   */\n      tag_297\n      jump\t// in\n    tag_420:\n        /* \"#utility.yul\":2725:2811   */\n      tag_421\n        /* \"#utility.yul\":2804:2810   */\n      dup2\n        /* \"#utility.yul\":2799:2802   */\n      dup6\n        /* \"#utility.yul\":2725:2811   */\n      tag_298\n      jump\t// in\n    tag_421:\n        /* \"#utility.yul\":2718:2811   */\n      swap4\n      pop\n        /* \"#utility.yul\":2835:2891   */\n      tag_422\n        /* \"#utility.yul\":2885:2890   */\n      dup4\n        /* \"#utility.yul\":2835:2891   */\n      tag_299\n      jump\t// in\n    tag_422:\n        /* \"#utility.yul\":2914:2921   */\n      dup1\n        /* \"#utility.yul\":2945:2946   */\n      0x00\n        /* \"#utility.yul\":2930:3214   */\n    tag_423:\n        /* \"#utility.yul\":2955:2961   */\n      dup4\n        /* \"#utility.yul\":2952:2953   */\n      dup2\n        /* \"#utility.yul\":2949:2962   */\n      lt\n        /* \"#utility.yul\":2930:3214   */\n      iszero\n      tag_425\n      jumpi\n        /* \"#utility.yul\":3031:3037   */\n      dup2\n        /* \"#utility.yul\":3025:3038   */\n      mload\n        /* \"#utility.yul\":3058:3121   */\n      tag_426\n        /* \"#utility.yul\":3117:3120   */\n      dup9\n        /* \"#utility.yul\":3102:3115   */\n      dup3\n        /* \"#utility.yul\":3058:3121   */\n      tag_301\n      jump\t// in\n    tag_426:\n        /* \"#utility.yul\":3051:3121   */\n      swap8\n      pop\n        /* \"#utility.yul\":3144:3204   */\n      tag_427\n        /* \"#utility.yul\":3197:3203   */\n      dup4\n        /* \"#utility.yul\":3144:3204   */\n      tag_302\n      jump\t// in\n    tag_427:\n        /* \"#utility.yul\":3134:3204   */\n      swap3\n      pop\n        /* \"#utility.yul\":2990:3214   */\n      pop\n        /* \"#utility.yul\":2977:2978   */\n      0x01\n        /* \"#utility.yul\":2974:2975   */\n      dup2\n        /* \"#utility.yul\":2970:2979   */\n      add\n        /* \"#utility.yul\":2965:2979   */\n      swap1\n      pop\n        /* \"#utility.yul\":2930:3214   */\n      jump(tag_423)\n    tag_425:\n        /* \"#utility.yul\":2934:2948   */\n      pop\n        /* \"#utility.yul\":3230:3233   */\n      dup6\n        /* \"#utility.yul\":3223:3233   */\n      swap4\n      pop\n        /* \"#utility.yul\":2631:3239   */\n      pop\n      pop\n      pop\n        /* \"#utility.yul\":2507:3239   */\n      swap3\n      swap2\n      pop\n      pop\n      jump\t// out\n        /* \"#utility.yul\":3245:3618   */\n    tag_21:\n        /* \"#utility.yul\":3388:3392   */\n      0x00\n        /* \"#utility.yul\":3426:3428   */\n      0x20\n        /* \"#utility.yul\":3415:3424   */\n      dup3\n        /* \"#utility.yul\":3411:3429   */\n      add\n        /* \"#utility.yul\":3403:3429   */\n      swap1\n      pop\n        /* \"#utility.yul\":3475:3484   */\n      dup2\n        /* \"#utility.yul\":3469:3473   */\n      dup2\n        /* \"#utility.yul\":3465:3485   */\n      sub\n        /* \"#utility.yul\":3461:3462   */\n      0x00\n        /* \"#utility.yul\":3450:3459   */\n      dup4\n        /* \"#utility.yul\":3446:3463   */\n      add\n        /* \"#utility.yul\":3439:3486   */\n      mstore\n        /* \"#utility.yul\":3503:3611   */\n      tag_429\n        /* \"#utility.yul\":3606:3610   */\n      dup2\n        /* \"#utility.yul\":3597:3603   */\n      dup5\n        /* \"#utility.yul\":3503:3611   */\n      tag_303\n      jump\t// in\n    tag_429:\n        /* \"#utility.yul\":3495:3611   */\n      swap1\n      pop\n        /* \"#utility.yul\":3245:3618   */\n      swap3\n      swap2\n      pop\n      pop\n      jump\t// out\n        /* \"#utility.yul\":3624:3741   */\n    tag_304:\n        /* \"#utility.yul\":3733:3734   */\n      0x00\n        /* \"#utility.yul\":3730:3731   */\n      0x00\n        /* \"#utility.yul\":3723:3735   */\n      revert\n        /* \"#utility.yul\":3747:3864   */\n    tag_305:\n        /* \"#utility.yul\":3856:3857   */\n      0x00\n        /* \"#utility.yul\":3853:3854   */\n      0x00\n        /* \"#utility.yul\":3846:3858   */\n      revert\n        /* \"#utility.yul\":3870:3972   */\n    tag_306:\n        /* \"#utility.yul\":3911:3917   */\n      0x00\n        /* \"#utility.yul\":3962:3964   */\n      0x1f\n        /* \"#utility.yul\":3958:3965   */\n      not\n        /* \"#utility.yul\":3953:3955   */\n      0x1f\n        /* \"#utility.yul\":3946:3951   */\n      dup4\n        /* \"#utility.yul\":3942:3956   */\n      add\n        /* \"#utility.yul\":3938:3966   */\n      and\n        /* \"#utility.yul\":3928:3966   */\n      swap1\n      pop\n        /* \"#utility.yul\":3870:3972   */\n      swap2\n      swap1\n      pop\n      jump\t// out\n        /* \"#utility.yul\":3978:4158   */\n    tag_64:\n        /* \"#utility.yul\":4026:4103   */\n      0x4e487b7100000000000000000000000000000000000000000000000000000000\n        /* \"#utility.yul\":4023:4024   */\n      0x00\n        /* \"#utility.yul\":4016:4104   */\n      mstore\n        /* \"#utility.yul\":4123:4127   */\n      0x41\n        /* \"#utility.yul\":4120:4121   */\n      0x04\n        /* \"#utility.yul\":4113:4128   */\n      mstore\n        /* \"#utility.yul\":4147:4151   */\n      0x24\n        /* \"#utility.yul\":4144:4145   */\n      0x00\n        /* \"#utility.yul\":4137:4152   */\n      revert\n        /* \"#utility.yul\":4164:4445   */\n    tag_307:\n        /* \"#utility.yul\":4247:4274   */\n      tag_435\n        /* \"#utility.yul\":4269:4273   */\n      dup3\n        /* \"#utility.yul\":4247:4274   */\n      tag_306\n      jump\t// in\n    tag_435:\n        /* \"#utility.yul\":4239:4245   */\n      dup2\n        /* \"#utility.yul\":4235:4275   */\n      add\n        /* \"#utility.yul\":4377:4383   */\n      dup2\n        /* \"#utility.yul\":4365:4375   */\n      dup2\n        /* \"#utility.yul\":4362:4384   */\n      lt\n        /* \"#utility.yul\":4341:4359   */\n      0xffffffffffffffff\n        /* \"#utility.yul\":4329:4339   */\n      dup3\n        /* \"#utility.yul\":4326:4360   */\n      gt\n        /* \"#utility.yul\":4323:4385   */\n      or\n        /* \"#utility.yul\":4320:4408   */\n      iszero\n      tag_436\n      jumpi\n        /* \"#utility.yul\":4388:4406   */\n      tag_437\n      tag_64\n      jump\t// in\n    tag_437:\n        /* \"#utility.yul\":4320:4408   */\n    tag_436:\n        /* \"#utility.yul\":4428:4438   */\n      dup1\n        /* \"#utility.yul\":4424:4426   */\n      0x40\n        /* \"#utility.yul\":4417:4439   */\n      mstore\n        /* \"#utility.yul\":4207:4445   */\n      pop\n        /* \"#utility.yul\":4164:4445   */\n      pop\n      pop\n      jump\t// out\n        /* \"#utility.yul\":4451:4580   */\n    tag_308:\n        /* \"#utility.yul\":4485:4491   */\n      0x00\n        /* \"#utility.yul\":4512:4532   */\n      tag_439\n      tag_290\n      jump\t// in\n    tag_439:\n        /* \"#utility.yul\":4502:4532   */\n      swap1\n      pop\n        /* \"#utility.yul\":4541:4574   */\n      tag_440\n        /* \"#utility.yul\":4569:4573   */\n      dup3\n        /* \"#utility.yul\":4561:4567   */\n      dup3\n        /* \"#utility.yul\":4541:4574   */\n      tag_307\n      jump\t// in\n    tag_440:\n        /* \"#utility.yul\":4451:4580   */\n      swap2\n      swap1\n      pop\n      jump\t// out\n        /* \"#utility.yul\":4586:4894   */\n    tag_309:\n        /* \"#utility.yul\":4648:4652   */\n      0x00\n        /* \"#utility.yul\":4738:4756   */\n      0xffffffffffffffff\n        /* \"#utility.yul\":4730:4736   */\n      dup3\n        /* \"#utility.yul\":4727:4757   */\n      gt\n        /* \"#utility.yul\":4724:4780   */\n      iszero\n      tag_442\n      jumpi\n        /* \"#utility.yul\":4760:4778   */\n      tag_443\n      tag_64\n      jump\t// in\n    tag_443:\n        /* \"#utility.yul\":4724:4780   */\n    tag_442:\n        /* \"#utility.yul\":4798:4827   */\n      tag_444\n        /* \"#utility.yul\":4820:4826   */\n      dup3\n        /* \"#utility.yul\":4798:4827   */\n      tag_306\n      jump\t// in\n    tag_444:\n        /* \"#utility.yul\":4790:4827   */\n      swap1\n      pop\n        /* \"#utility.yul\":4882:4886   */\n      0x20\n        /* \"#utility.yul\":4876:4880   */\n      dup2\n        /* \"#utility.yul\":4872:4887   */\n      add\n        /* \"#utility.yul\":4864:4887   */\n      swap1\n      pop\n        /* \"#utility.yul\":4586:4894   */\n      swap2\n      swap1\n      pop\n      jump\t// out\n        /* \"#utility.yul\":4900:5048   */\n    tag_310:\n        /* \"#utility.yul\":4998:5004   */\n      dup3\n        /* \"#utility.yul\":4993:4996   */\n      dup2\n        /* \"#utility.yul\":4988:4991   */\n      dup4\n        /* \"#utility.yul\":4975:5005   */\n      calldatacopy\n        /* \"#utility.yul\":5039:5040   */\n      0x00\n        /* \"#utility.yul\":5030:5036   */\n      dup4\n        /* \"#utility.yul\":5025:5028   */\n      dup4\n        /* \"#utility.yul\":5021:5037   */\n      add\n        /* \"#utility.yul\":5014:5041   */\n      mstore\n        /* \"#utility.yul\":4900:5048   */\n      pop\n      pop\n      pop\n      jump\t// out\n        /* \"#utility.yul\":5054:5479   */\n    tag_311:\n        /* \"#utility.yul\":5132:5137   */\n      0x00\n        /* \"#utility.yul\":5157:5223   */\n      tag_447\n        /* \"#utility.yul\":5173:5222   */\n      tag_448\n        /* \"#utility.yul\":5215:5221   */\n      dup5\n        /* \"#utility.yul\":5173:5222   */\n      tag_309\n      jump\t// in\n    tag_448:\n        /* \"#utility.yul\":5157:5223   */\n      tag_308\n      jump\t// in\n    tag_447:\n        /* \"#utility.yul\":5148:5223   */\n      swap1\n      pop\n        /* \"#utility.yul\":5246:5252   */\n      dup3\n        /* \"#utility.yul\":5239:5244   */\n      dup2\n        /* \"#utility.yul\":5232:5253   */\n      mstore\n        /* \"#utility.yul\":5284:5288   */\n      0x20\n        /* \"#utility.yul\":5277:5282   */\n      dup2\n        /* \"#utility.yul\":5273:5289   */\n      add\n        /* \"#utility.yul\":5322:5325   */\n      dup5\n        /* \"#utility.yul\":5313:5319   */\n      dup5\n        /* \"#utility.yul\":5308:5311   */\n      dup5\n        /* \"#utility.yul\":5304:5320   */\n      add\n        /* \"#utility.yul\":5301:5326   */\n      gt\n        /* \"#utility.yul\":5298:5410   */\n      iszero\n      tag_449\n      jumpi\n        /* \"#utility.yul\":5329:5408   */\n      tag_450\n      tag_305\n      jump\t// in\n    tag_450:\n        /* \"#utility.yul\":5298:5410   */\n    tag_449:\n        /* \"#utility.yul\":5419:5473   */\n      tag_451\n        /* \"#utility.yul\":5466:5472   */\n      dup5\n        /* \"#utility.yul\":5461:5464   */\n      dup3\n        /* \"#utility.yul\":5456:5459   */\n      dup6\n        /* \"#utility.yul\":5419:5473   */\n      tag_310\n      jump\t// in\n    tag_451:\n        /* \"#utility.yul\":5138:5479   */\n      pop\n        /* \"#utility.yul\":5054:5479   */\n      swap4\n      swap3\n      pop\n      pop\n      pop\n      jump\t// out\n        /* \"#utility.yul\":5499:5839   */\n    tag_312:\n        /* \"#utility.yul\":5555:5560   */\n      0x00\n        /* \"#utility.yul\":5604:5607   */\n      dup3\n        /* \"#utility.yul\":5597:5601   */\n      0x1f\n        /* \"#utility.yul\":5589:5595   */\n      dup4\n        /* \"#utility.yul\":5585:5602   */\n      add\n        /* \"#utility.yul\":5581:5608   */\n      slt\n        /* \"#utility.yul\":5571:5693   */\n      tag_453\n      jumpi\n        /* \"#utility.yul\":5612:5691   */\n      tag_454\n      tag_304\n      jump\t// in\n    tag_454:\n        /* \"#utility.yul\":5571:5693   */\n    tag_453:\n        /* \"#utility.yul\":5729:5735   */\n      dup2\n        /* \"#utility.yul\":5716:5736   */\n      calldataload\n        /* \"#utility.yul\":5754:5833   */\n      tag_455\n        /* \"#utility.yul\":5829:5832   */\n      dup5\n        /* \"#utility.yul\":5821:5827   */\n      dup3\n        /* \"#utility.yul\":5814:5818   */\n      0x20\n        /* \"#utility.yul\":5806:5812   */\n      dup7\n        /* \"#utility.yul\":5802:5819   */\n      add\n        /* \"#utility.yul\":5754:5833   */\n      tag_311\n      jump\t// in\n    tag_455:\n        /* \"#utility.yul\":5745:5833   */\n      swap2\n      pop\n        /* \"#utility.yul\":5561:5839   */\n      pop\n        /* \"#utility.yul\":5499:5839   */\n      swap3\n      swap2\n      pop\n      pop\n      jump\t// out\n        /* \"#utility.yul\":5845:6189   */\n    tag_313:\n        /* \"#utility.yul\":5955:5959   */\n      0x00\n        /* \"#utility.yul\":6045:6063   */\n      0xffffffffffffffff\n        /* \"#utility.yul\":6037:6043   */\n      dup3\n        /* \"#utility.yul\":6034:6064   */\n      gt\n        /* \"#utility.yul\":6031:6087   */\n      iszero\n      tag_457\n      jumpi\n        /* \"#utility.yul\":6067:6085   */\n      tag_458\n      tag_64\n      jump\t// in\n    tag_458:\n        /* \"#utility.yul\":6031:6087   */\n    tag_457:\n        /* \"#utility.yul\":6117:6121   */\n      0x20\n        /* \"#utility.yul\":6109:6115   */\n      dup3\n        /* \"#utility.yul\":6105:6122   */\n      mul\n        /* \"#utility.yul\":6097:6122   */\n      swap1\n      pop\n        /* \"#utility.yul\":6177:6181   */\n      0x20\n        /* \"#utility.yul\":6171:6175   */\n      dup2\n        /* \"#utility.yul\":6167:6182   */\n      add\n        /* \"#utility.yul\":6159:6182   */\n      swap1\n      pop\n        /* \"#utility.yul\":5845:6189   */\n      swap2\n      swap1\n      pop\n      jump\t// out\n        /* \"#utility.yul\":6195:6312   */\n    tag_314:\n        /* \"#utility.yul\":6304:6305   */\n      0x00\n        /* \"#utility.yul\":6301:6302   */\n      0x00\n        /* \"#utility.yul\":6294:6306   */\n      revert\n        /* \"#utility.yul\":6318:6435   */\n    tag_315:\n        /* \"#utility.yul\":6427:6428   */\n      0x00\n        /* \"#utility.yul\":6424:6425   */\n      0x00\n        /* \"#utility.yul\":6417:6429   */\n      revert\n        /* \"#utility.yul\":6441:6558   */\n    tag_316:\n        /* \"#utility.yul\":6550:6551   */\n      0x00\n        /* \"#utility.yul\":6547:6548   */\n      0x00\n        /* \"#utility.yul\":6540:6552   */\n      revert\n        /* \"#utility.yul\":6564:6686   */\n    tag_317:\n        /* \"#utility.yul\":6637:6661   */\n      tag_463\n        /* \"#utility.yul\":6655:6660   */\n      dup2\n        /* \"#utility.yul\":6637:6661   */\n      tag_288\n      jump\t// in\n    tag_463:\n        /* \"#utility.yul\":6630:6635   */\n      dup2\n        /* \"#utility.yul\":6627:6662   */\n      eq\n        /* \"#utility.yul\":6617:6680   */\n      tag_464\n      jumpi\n        /* \"#utility.yul\":6676:6677   */\n      0x00\n        /* \"#utility.yul\":6673:6674   */\n      0x00\n        /* \"#utility.yul\":6666:6678   */\n      revert\n        /* \"#utility.yul\":6617:6680   */\n    tag_464:\n        /* \"#utility.yul\":6564:6686   */\n      pop\n      jump\t// out\n        /* \"#utility.yul\":6692:6831   */\n    tag_318:\n        /* \"#utility.yul\":6738:6743   */\n      0x00\n        /* \"#utility.yul\":6776:6782   */\n      dup2\n        /* \"#utility.yul\":6763:6783   */\n      calldataload\n        /* \"#utility.yul\":6754:6783   */\n      swap1\n      pop\n        /* \"#utility.yul\":6792:6825   */\n      tag_466\n        /* \"#utility.yul\":6819:6824   */\n      dup2\n        /* \"#utility.yul\":6792:6825   */\n      tag_317\n      jump\t// in\n    tag_466:\n        /* \"#utility.yul\":6692:6831   */\n      swap3\n      swap2\n      pop\n      pop\n      jump\t// out\n        /* \"#utility.yul\":6868:7951   */\n    tag_319:\n        /* \"#utility.yul\":6950:6955   */\n      0x00\n        /* \"#utility.yul\":6994:6998   */\n      0x80\n        /* \"#utility.yul\":6982:6991   */\n      dup3\n        /* \"#utility.yul\":6977:6980   */\n      dup5\n        /* \"#utility.yul\":6973:6992   */\n      sub\n        /* \"#utility.yul\":6969:6999   */\n      slt\n        /* \"#utility.yul\":6966:7083   */\n      iszero\n      tag_468\n      jumpi\n        /* \"#utility.yul\":7002:7081   */\n      tag_469\n      tag_315\n      jump\t// in\n    tag_469:\n        /* \"#utility.yul\":6966:7083   */\n    tag_468:\n        /* \"#utility.yul\":7101:7122   */\n      tag_470\n        /* \"#utility.yul\":7117:7121   */\n      0x80\n        /* \"#utility.yul\":7101:7122   */\n      tag_308\n      jump\t// in\n    tag_470:\n        /* \"#utility.yul\":7092:7122   */\n      swap1\n      pop\n        /* \"#utility.yul\":7181:7182   */\n      0x00\n        /* \"#utility.yul\":7221:7270   */\n      tag_471\n        /* \"#utility.yul\":7266:7269   */\n      dup5\n        /* \"#utility.yul\":7257:7263   */\n      dup3\n        /* \"#utility.yul\":7246:7255   */\n      dup6\n        /* \"#utility.yul\":7242:7264   */\n      add\n        /* \"#utility.yul\":7221:7270   */\n      tag_318\n      jump\t// in\n    tag_471:\n        /* \"#utility.yul\":7214:7218   */\n      0x00\n        /* \"#utility.yul\":7207:7212   */\n      dup4\n        /* \"#utility.yul\":7203:7219   */\n      add\n        /* \"#utility.yul\":7196:7271   */\n      mstore\n        /* \"#utility.yul\":7132:7282   */\n      pop\n        /* \"#utility.yul\":7345:7347   */\n      0x20\n        /* \"#utility.yul\":7386:7435   */\n      tag_472\n        /* \"#utility.yul\":7431:7434   */\n      dup5\n        /* \"#utility.yul\":7422:7428   */\n      dup3\n        /* \"#utility.yul\":7411:7420   */\n      dup6\n        /* \"#utility.yul\":7407:7429   */\n      add\n        /* \"#utility.yul\":7386:7435   */\n      tag_318\n      jump\t// in\n    tag_472:\n        /* \"#utility.yul\":7379:7383   */\n      0x20\n        /* \"#utility.yul\":7372:7377   */\n      dup4\n        /* \"#utility.yul\":7368:7384   */\n      add\n        /* \"#utility.yul\":7361:7436   */\n      mstore\n        /* \"#utility.yul\":7292:7447   */\n      pop\n        /* \"#utility.yul\":7507:7509   */\n      0x40\n        /* \"#utility.yul\":7548:7597   */\n      tag_473\n        /* \"#utility.yul\":7593:7596   */\n      dup5\n        /* \"#utility.yul\":7584:7590   */\n      dup3\n        /* \"#utility.yul\":7573:7582   */\n      dup6\n        /* \"#utility.yul\":7569:7591   */\n      add\n        /* \"#utility.yul\":7548:7597   */\n      tag_318\n      jump\t// in\n    tag_473:\n        /* \"#utility.yul\":7541:7545   */\n      0x40\n        /* \"#utility.yul\":7534:7539   */\n      dup4\n        /* \"#utility.yul\":7530:7546   */\n      add\n        /* \"#utility.yul\":7523:7598   */\n      mstore\n        /* \"#utility.yul\":7457:7609   */\n      pop\n        /* \"#utility.yul\":7700:7702   */\n      0x60\n        /* \"#utility.yul\":7689:7698   */\n      dup3\n        /* \"#utility.yul\":7685:7703   */\n      add\n        /* \"#utility.yul\":7672:7704   */\n      calldataload\n        /* \"#utility.yul\":7731:7749   */\n      0xffffffffffffffff\n        /* \"#utility.yul\":7723:7729   */\n      dup2\n        /* \"#utility.yul\":7720:7750   */\n      gt\n        /* \"#utility.yul\":7717:7834   */\n      iszero\n      tag_474\n      jumpi\n        /* \"#utility.yul\":7753:7832   */\n      tag_475\n      tag_316\n      jump\t// in\n    tag_475:\n        /* \"#utility.yul\":7717:7834   */\n    tag_474:\n        /* \"#utility.yul\":7873:7932   */\n      tag_476\n        /* \"#utility.yul\":7928:7931   */\n      dup5\n        /* \"#utility.yul\":7919:7925   */\n      dup3\n        /* \"#utility.yul\":7908:7917   */\n      dup6\n        /* \"#utility.yul\":7904:7926   */\n      add\n        /* \"#utility.yul\":7873:7932   */\n      tag_312\n      jump\t// in\n    tag_476:\n        /* \"#utility.yul\":7866:7870   */\n      0x60\n        /* \"#utility.yul\":7859:7864   */\n      dup4\n        /* \"#utility.yul\":7855:7871   */\n      add\n        /* \"#utility.yul\":7848:7933   */\n      mstore\n        /* \"#utility.yul\":7619:7944   */\n      pop\n        /* \"#utility.yul\":6868:7951   */\n      swap3\n      swap2\n      pop\n      pop\n      jump\t// out\n        /* \"#utility.yul\":7990:9004   */\n    tag_320:\n        /* \"#utility.yul\":8119:8124   */\n      0x00\n        /* \"#utility.yul\":8144:8258   */\n      tag_478\n        /* \"#utility.yul\":8160:8257   */\n      tag_479\n        /* \"#utility.yul\":8250:8256   */\n      dup5\n        /* \"#utility.yul\":8160:8257   */\n      tag_313\n      jump\t// in\n    tag_479:\n        /* \"#utility.yul\":8144:8258   */\n      tag_308\n      jump\t// in\n    tag_478:\n        /* \"#utility.yul\":8135:8258   */\n      swap1\n      pop\n        /* \"#utility.yul\":8278:8283   */\n      dup1\n        /* \"#utility.yul\":8307:8313   */\n      dup4\n        /* \"#utility.yul\":8300:8305   */\n      dup3\n        /* \"#utility.yul\":8293:8314   */\n      mstore\n        /* \"#utility.yul\":8341:8345   */\n      0x20\n        /* \"#utility.yul\":8334:8339   */\n      dup3\n        /* \"#utility.yul\":8330:8346   */\n      add\n        /* \"#utility.yul\":8323:8346   */\n      swap1\n      pop\n        /* \"#utility.yul\":8394:8398   */\n      0x20\n        /* \"#utility.yul\":8386:8392   */\n      dup5\n        /* \"#utility.yul\":8382:8399   */\n      mul\n        /* \"#utility.yul\":8374:8380   */\n      dup4\n        /* \"#utility.yul\":8370:8400   */\n      add\n        /* \"#utility.yul\":8423:8426   */\n      dup6\n        /* \"#utility.yul\":8415:8421   */\n      dup2\n        /* \"#utility.yul\":8412:8427   */\n      gt\n        /* \"#utility.yul\":8409:8531   */\n      iszero\n      tag_480\n      jumpi\n        /* \"#utility.yul\":8442:8521   */\n      tag_481\n      tag_314\n      jump\t// in\n    tag_481:\n        /* \"#utility.yul\":8409:8531   */\n    tag_480:\n        /* \"#utility.yul\":8557:8563   */\n      dup4\n        /* \"#utility.yul\":8540:8998   */\n    tag_482:\n        /* \"#utility.yul\":8574:8580   */\n      dup2\n        /* \"#utility.yul\":8569:8572   */\n      dup2\n        /* \"#utility.yul\":8566:8581   */\n      lt\n        /* \"#utility.yul\":8540:8998   */\n      iszero\n      tag_484\n      jumpi\n        /* \"#utility.yul\":8663:8666   */\n      dup1\n        /* \"#utility.yul\":8650:8667   */\n      calldataload\n        /* \"#utility.yul\":8699:8717   */\n      0xffffffffffffffff\n        /* \"#utility.yul\":8686:8697   */\n      dup2\n        /* \"#utility.yul\":8683:8718   */\n      gt\n        /* \"#utility.yul\":8680:8802   */\n      iszero\n      tag_485\n      jumpi\n        /* \"#utility.yul\":8721:8800   */\n      tag_486\n      tag_304\n      jump\t// in\n    tag_486:\n        /* \"#utility.yul\":8680:8802   */\n    tag_485:\n        /* \"#utility.yul\":8845:8856   */\n      dup1\n        /* \"#utility.yul\":8837:8843   */\n      dup7\n        /* \"#utility.yul\":8833:8857   */\n      add\n        /* \"#utility.yul\":8883:8953   */\n      tag_487\n        /* \"#utility.yul\":8949:8952   */\n      dup10\n        /* \"#utility.yul\":8937:8947   */\n      dup3\n        /* \"#utility.yul\":8883:8953   */\n      tag_319\n      jump\t// in\n    tag_487:\n        /* \"#utility.yul\":8878:8881   */\n      dup6\n        /* \"#utility.yul\":8871:8954   */\n      mstore\n        /* \"#utility.yul\":8983:8987   */\n      0x20\n        /* \"#utility.yul\":8978:8981   */\n      dup6\n        /* \"#utility.yul\":8974:8988   */\n      add\n        /* \"#utility.yul\":8967:8988   */\n      swap5\n      pop\n        /* \"#utility.yul\":8616:8998   */\n      pop\n      pop\n        /* \"#utility.yul\":8600:8604   */\n      0x20\n        /* \"#utility.yul\":8595:8598   */\n      dup2\n        /* \"#utility.yul\":8591:8605   */\n      add\n        /* \"#utility.yul\":8584:8605   */\n      swap1\n      pop\n        /* \"#utility.yul\":8540:8998   */\n      jump(tag_482)\n    tag_484:\n        /* \"#utility.yul\":8544:8565   */\n      pop\n        /* \"#utility.yul\":8125:9004   */\n      pop\n      pop\n        /* \"#utility.yul\":7990:9004   */\n      swap4\n      swap3\n      pop\n      pop\n      pop\n      jump\t// out\n        /* \"#utility.yul\":9043:9479   */\n    tag_321:\n        /* \"#utility.yul\":9147:9152   */\n      0x00\n        /* \"#utility.yul\":9196:9199   */\n      dup3\n        /* \"#utility.yul\":9189:9193   */\n      0x1f\n        /* \"#utility.yul\":9181:9187   */\n      dup4\n        /* \"#utility.yul\":9177:9194   */\n      add\n        /* \"#utility.yul\":9173:9200   */\n      slt\n        /* \"#utility.yul\":9163:9285   */\n      tag_489\n      jumpi\n        /* \"#utility.yul\":9204:9283   */\n      tag_490\n      tag_304\n      jump\t// in\n    tag_490:\n        /* \"#utility.yul\":9163:9285   */\n    tag_489:\n        /* \"#utility.yul\":9321:9327   */\n      dup2\n        /* \"#utility.yul\":9308:9328   */\n      calldataload\n        /* \"#utility.yul\":9346:9473   */\n      tag_491\n        /* \"#utility.yul\":9469:9472   */\n      dup5\n        /* \"#utility.yul\":9461:9467   */\n      dup3\n        /* \"#utility.yul\":9454:9458   */\n      0x20\n        /* \"#utility.yul\":9446:9452   */\n      dup7\n        /* \"#utility.yul\":9442:9459   */\n      add\n        /* \"#utility.yul\":9346:9473   */\n      tag_320\n      jump\t// in\n    tag_491:\n        /* \"#utility.yul\":9337:9473   */\n      swap2\n      pop\n        /* \"#utility.yul\":9153:9479   */\n      pop\n        /* \"#utility.yul\":9043:9479   */\n      swap3\n      swap2\n      pop\n      pop\n      jump\t// out\n        /* \"#utility.yul\":9485:10560   */\n    tag_24:\n        /* \"#utility.yul\":9630:9636   */\n      0x00\n        /* \"#utility.yul\":9638:9644   */\n      0x00\n        /* \"#utility.yul\":9646:9652   */\n      0x00\n        /* \"#utility.yul\":9695:9697   */\n      0x60\n        /* \"#utility.yul\":9683:9692   */\n      dup5\n        /* \"#utility.yul\":9674:9681   */\n      dup7\n        /* \"#utility.yul\":9670:9693   */\n      sub\n        /* \"#utility.yul\":9666:9698   */\n      slt\n        /* \"#utility.yul\":9663:9782   */\n      iszero\n      tag_493\n      jumpi\n        /* \"#utility.yul\":9701:9780   */\n      tag_494\n      tag_291\n      jump\t// in\n    tag_494:\n        /* \"#utility.yul\":9663:9782   */\n    tag_493:\n        /* \"#utility.yul\":9821:9822   */\n      0x00\n        /* \"#utility.yul\":9846:9899   */\n      tag_495\n        /* \"#utility.yul\":9891:9898   */\n      dup7\n        /* \"#utility.yul\":9882:9888   */\n      dup3\n        /* \"#utility.yul\":9871:9880   */\n      dup8\n        /* \"#utility.yul\":9867:9889   */\n      add\n        /* \"#utility.yul\":9846:9899   */\n      tag_296\n      jump\t// in\n    tag_495:\n        /* \"#utility.yul\":9836:9899   */\n      swap4\n      pop\n        /* \"#utility.yul\":9792:9909   */\n      pop\n        /* \"#utility.yul\":9976:9978   */\n      0x20\n        /* \"#utility.yul\":9965:9974   */\n      dup5\n        /* \"#utility.yul\":9961:9979   */\n      add\n        /* \"#utility.yul\":9948:9980   */\n      calldataload\n        /* \"#utility.yul\":10007:10025   */\n      0xffffffffffffffff\n        /* \"#utility.yul\":9999:10005   */\n      dup2\n        /* \"#utility.yul\":9996:10026   */\n      gt\n        /* \"#utility.yul\":9993:10110   */\n      iszero\n      tag_496\n      jumpi\n        /* \"#utility.yul\":10029:10108   */\n      tag_497\n      tag_292\n      jump\t// in\n    tag_497:\n        /* \"#utility.yul\":9993:10110   */\n    tag_496:\n        /* \"#utility.yul\":10134:10197   */\n      tag_498\n        /* \"#utility.yul\":10189:10196   */\n      dup7\n        /* \"#utility.yul\":10180:10186   */\n      dup3\n        /* \"#utility.yul\":10169:10178   */\n      dup8\n        /* \"#utility.yul\":10165:10187   */\n      add\n        /* \"#utility.yul\":10134:10197   */\n      tag_312\n      jump\t// in\n    tag_498:\n        /* \"#utility.yul\":10124:10197   */\n      swap3\n      pop\n        /* \"#utility.yul\":9919:10207   */\n      pop\n        /* \"#utility.yul\":10274:10276   */\n      0x40\n        /* \"#utility.yul\":10263:10272   */\n      dup5\n        /* \"#utility.yul\":10259:10277   */\n      add\n        /* \"#utility.yul\":10246:10278   */\n      calldataload\n        /* \"#utility.yul\":10305:10323   */\n      0xffffffffffffffff\n        /* \"#utility.yul\":10297:10303   */\n      dup2\n        /* \"#utility.yul\":10294:10324   */\n      gt\n        /* \"#utility.yul\":10291:10408   */\n      iszero\n      tag_499\n      jumpi\n        /* \"#utility.yul\":10327:10406   */\n      tag_500\n      tag_292\n      jump\t// in\n    tag_500:\n        /* \"#utility.yul\":10291:10408   */\n    tag_499:\n        /* \"#utility.yul\":10432:10543   */\n      tag_501\n        /* \"#utility.yul\":10535:10542   */\n      dup7\n        /* \"#utility.yul\":10526:10532   */\n      dup3\n        /* \"#utility.yul\":10515:10524   */\n      dup8\n        /* \"#utility.yul\":10511:10533   */\n      add\n        /* \"#utility.yul\":10432:10543   */\n      tag_321\n      jump\t// in\n    tag_501:\n        /* \"#utility.yul\":10422:10543   */\n      swap2\n      pop\n        /* \"#utility.yul\":10217:10553   */\n      pop\n        /* \"#utility.yul\":9485:10560   */\n      swap3\n      pop\n      swap3\n      pop\n      swap3\n      jump\t// out\n        /* \"#utility.yul\":10566:10674   */\n    tag_322:\n        /* \"#utility.yul\":10643:10667   */\n      tag_503\n        /* \"#utility.yul\":10661:10666   */\n      dup2\n        /* \"#utility.yul\":10643:10667   */\n      tag_294\n      jump\t// in\n    tag_503:\n        /* \"#utility.yul\":10638:10641   */\n      dup3\n        /* \"#utility.yul\":10631:10668   */\n      mstore\n        /* \"#utility.yul\":10566:10674   */\n      pop\n      pop\n      jump\t// out\n        /* \"#utility.yul\":10680:10779   */\n    tag_323:\n        /* \"#utility.yul\":10732:10738   */\n      0x00\n        /* \"#utility.yul\":10766:10771   */\n      dup2\n        /* \"#utility.yul\":10760:10772   */\n      mload\n        /* \"#utility.yul\":10750:10772   */\n      swap1\n      pop\n        /* \"#utility.yul\":10680:10779   */\n      swap2\n      swap1\n      pop\n      jump\t// out\n        /* \"#utility.yul\":10785:10944   */\n    tag_324:\n        /* \"#utility.yul\":10859:10870   */\n      0x00\n        /* \"#utility.yul\":10893:10899   */\n      dup3\n        /* \"#utility.yul\":10888:10891   */\n      dup3\n        /* \"#utility.yul\":10881:10900   */\n      mstore\n        /* \"#utility.yul\":10933:10937   */\n      0x20\n        /* \"#utility.yul\":10928:10931   */\n      dup3\n        /* \"#utility.yul\":10924:10938   */\n      add\n        /* \"#utility.yul\":10909:10938   */\n      swap1\n      pop\n        /* \"#utility.yul\":10785:10944   */\n      swap3\n      swap2\n      pop\n      pop\n      jump\t// out\n        /* \"#utility.yul\":10950:11089   */\n    tag_325:\n        /* \"#utility.yul\":11039:11045   */\n      dup3\n        /* \"#utility.yul\":11034:11037   */\n      dup2\n        /* \"#utility.yul\":11029:11032   */\n      dup4\n        /* \"#utility.yul\":11023:11046   */\n      mcopy\n        /* \"#utility.yul\":11080:11081   */\n      0x00\n        /* \"#utility.yul\":11071:11077   */\n      dup4\n        /* \"#utility.yul\":11066:11069   */\n      dup4\n        /* \"#utility.yul\":11062:11078   */\n      add\n        /* \"#utility.yul\":11055:11082   */\n      mstore\n        /* \"#utility.yul\":10950:11089   */\n      pop\n      pop\n      pop\n      jump\t// out\n        /* \"#utility.yul\":11095:11452   */\n    tag_326:\n        /* \"#utility.yul\":11173:11176   */\n      0x00\n        /* \"#utility.yul\":11201:11240   */\n      tag_508\n        /* \"#utility.yul\":11234:11239   */\n      dup3\n        /* \"#utility.yul\":11201:11240   */\n      tag_323\n      jump\t// in\n    tag_508:\n        /* \"#utility.yul\":11256:11317   */\n      tag_509\n        /* \"#utility.yul\":11310:11316   */\n      dup2\n        /* \"#utility.yul\":11305:11308   */\n      dup6\n        /* \"#utility.yul\":11256:11317   */\n      tag_324\n      jump\t// in\n    tag_509:\n        /* \"#utility.yul\":11249:11317   */\n      swap4\n      pop\n        /* \"#utility.yul\":11326:11391   */\n      tag_510\n        /* \"#utility.yul\":11384:11390   */\n      dup2\n        /* \"#utility.yul\":11379:11382   */\n      dup6\n        /* \"#utility.yul\":11372:11376   */\n      0x20\n        /* \"#utility.yul\":11365:11370   */\n      dup7\n        /* \"#utility.yul\":11361:11377   */\n      add\n        /* \"#utility.yul\":11326:11391   */\n      tag_325\n      jump\t// in\n    tag_510:\n        /* \"#utility.yul\":11416:11445   */\n      tag_511\n        /* \"#utility.yul\":11438:11444   */\n      dup2\n        /* \"#utility.yul\":11416:11445   */\n      tag_306\n      jump\t// in\n    tag_511:\n        /* \"#utility.yul\":11411:11414   */\n      dup5\n        /* \"#utility.yul\":11407:11446   */\n      add\n        /* \"#utility.yul\":11400:11446   */\n      swap2\n      pop\n        /* \"#utility.yul\":11177:11452   */\n      pop\n        /* \"#utility.yul\":11095:11452   */\n      swap3\n      swap2\n      pop\n      pop\n      jump\t// out\n        /* \"#utility.yul\":11458:11598   */\n    tag_327:\n        /* \"#utility.yul\":11551:11557   */\n      0x00\n        /* \"#utility.yul\":11585:11590   */\n      dup2\n        /* \"#utility.yul\":11579:11591   */\n      mload\n        /* \"#utility.yul\":11569:11591   */\n      swap1\n      pop\n        /* \"#utility.yul\":11458:11598   */\n      swap2\n      swap1\n      pop\n      jump\t// out\n        /* \"#utility.yul\":11604:11804   */\n    tag_328:\n        /* \"#utility.yul\":11719:11730   */\n      0x00\n        /* \"#utility.yul\":11753:11759   */\n      dup3\n        /* \"#utility.yul\":11748:11751   */\n      dup3\n        /* \"#utility.yul\":11741:11760   */\n      mstore\n        /* \"#utility.yul\":11793:11797   */\n      0x20\n        /* \"#utility.yul\":11788:11791   */\n      dup3\n        /* \"#utility.yul\":11784:11798   */\n      add\n        /* \"#utility.yul\":11769:11798   */\n      swap1\n      pop\n        /* \"#utility.yul\":11604:11804   */\n      swap3\n      swap2\n      pop\n      pop\n      jump\t// out\n        /* \"#utility.yul\":11810:11968   */\n    tag_329:\n        /* \"#utility.yul\":11903:11907   */\n      0x00\n        /* \"#utility.yul\":11926:11929   */\n      dup2\n        /* \"#utility.yul\":11918:11929   */\n      swap1\n      pop\n        /* \"#utility.yul\":11956:11960   */\n      0x20\n        /* \"#utility.yul\":11951:11954   */\n      dup3\n        /* \"#utility.yul\":11947:11961   */\n      add\n        /* \"#utility.yul\":11939:11961   */\n      swap1\n      pop\n        /* \"#utility.yul\":11810:11968   */\n      swap2\n      swap1\n      pop\n      jump\t// out\n        /* \"#utility.yul\":11974:12154   */\n    tag_93:\n        /* \"#utility.yul\":12022:12099   */\n      0x4e487b7100000000000000000000000000000000000000000000000000000000\n        /* \"#utility.yul\":12019:12020   */\n      0x00\n        /* \"#utility.yul\":12012:12100   */\n      mstore\n        /* \"#utility.yul\":12119:12123   */\n      0x21\n        /* \"#utility.yul\":12116:12117   */\n      0x04\n        /* \"#utility.yul\":12109:12124   */\n      mstore\n        /* \"#utility.yul\":12143:12147   */\n      0x24\n        /* \"#utility.yul\":12140:12141   */\n      0x00\n        /* \"#utility.yul\":12133:12148   */\n      revert\n        /* \"#utility.yul\":12160:12284   */\n    tag_330:\n        /* \"#utility.yul\":12252:12253   */\n      0x03\n        /* \"#utility.yul\":12245:12250   */\n      dup2\n        /* \"#utility.yul\":12242:12254   */\n      lt\n        /* \"#utility.yul\":12232:12278   */\n      tag_517\n      jumpi\n        /* \"#utility.yul\":12258:12276   */\n      tag_518\n      tag_93\n      jump\t// in\n    tag_518:\n        /* \"#utility.yul\":12232:12278   */\n    tag_517:\n        /* \"#utility.yul\":12160:12284   */\n      pop\n      jump\t// out\n        /* \"#utility.yul\":12290:12439   */\n    tag_331:\n        /* \"#utility.yul\":12346:12353   */\n      0x00\n        /* \"#utility.yul\":12375:12380   */\n      dup2\n        /* \"#utility.yul\":12364:12380   */\n      swap1\n      pop\n        /* \"#utility.yul\":12381:12433   */\n      tag_520\n        /* \"#utility.yul\":12427:12432   */\n      dup3\n        /* \"#utility.yul\":12381:12433   */\n      tag_330\n      jump\t// in\n    tag_520:\n        /* \"#utility.yul\":12290:12439   */\n      swap2\n      swap1\n      pop\n      jump\t// out\n        /* \"#utility.yul\":12445:12594   */\n    tag_332:\n        /* \"#utility.yul\":12512:12521   */\n      0x00\n        /* \"#utility.yul\":12545:12588   */\n      tag_522\n        /* \"#utility.yul\":12582:12587   */\n      dup3\n        /* \"#utility.yul\":12545:12588   */\n      tag_331\n      jump\t// in\n    tag_522:\n        /* \"#utility.yul\":12532:12588   */\n      swap1\n      pop\n        /* \"#utility.yul\":12445:12594   */\n      swap2\n      swap1\n      pop\n      jump\t// out\n        /* \"#utility.yul\":12600:12755   */\n    tag_333:\n        /* \"#utility.yul\":12694:12748   */\n      tag_524\n        /* \"#utility.yul\":12742:12747   */\n      dup2\n        /* \"#utility.yul\":12694:12748   */\n      tag_332\n      jump\t// in\n    tag_524:\n        /* \"#utility.yul\":12689:12692   */\n      dup3\n        /* \"#utility.yul\":12682:12749   */\n      mstore\n        /* \"#utility.yul\":12600:12755   */\n      pop\n      pop\n      jump\t// out\n        /* \"#utility.yul\":12805:14134   */\n    tag_334:\n        /* \"#utility.yul\":12916:12919   */\n      0x00\n        /* \"#utility.yul\":12952:12956   */\n      0xc0\n        /* \"#utility.yul\":12947:12950   */\n      dup4\n        /* \"#utility.yul\":12943:12957   */\n      add\n        /* \"#utility.yul\":13046:13050   */\n      0x00\n        /* \"#utility.yul\":13039:13044   */\n      dup4\n        /* \"#utility.yul\":13035:13051   */\n      add\n        /* \"#utility.yul\":13029:13052   */\n      mload\n        /* \"#utility.yul\":13065:13128   */\n      tag_526\n        /* \"#utility.yul\":13122:13126   */\n      0x00\n        /* \"#utility.yul\":13117:13120   */\n      dup7\n        /* \"#utility.yul\":13113:13127   */\n      add\n        /* \"#utility.yul\":13099:13111   */\n      dup3\n        /* \"#utility.yul\":13065:13128   */\n      tag_300\n      jump\t// in\n    tag_526:\n        /* \"#utility.yul\":12967:13138   */\n      pop\n        /* \"#utility.yul\":13220:13224   */\n      0x20\n        /* \"#utility.yul\":13213:13218   */\n      dup4\n        /* \"#utility.yul\":13209:13225   */\n      add\n        /* \"#utility.yul\":13203:13226   */\n      mload\n        /* \"#utility.yul\":13239:13302   */\n      tag_527\n        /* \"#utility.yul\":13296:13300   */\n      0x20\n        /* \"#utility.yul\":13291:13294   */\n      dup7\n        /* \"#utility.yul\":13287:13301   */\n      add\n        /* \"#utility.yul\":13273:13285   */\n      dup3\n        /* \"#utility.yul\":13239:13302   */\n      tag_300\n      jump\t// in\n    tag_527:\n        /* \"#utility.yul\":13148:13312   */\n      pop\n        /* \"#utility.yul\":13398:13402   */\n      0x40\n        /* \"#utility.yul\":13391:13396   */\n      dup4\n        /* \"#utility.yul\":13387:13403   */\n      add\n        /* \"#utility.yul\":13381:13404   */\n      mload\n        /* \"#utility.yul\":13417:13480   */\n      tag_528\n        /* \"#utility.yul\":13474:13478   */\n      0x40\n        /* \"#utility.yul\":13469:13472   */\n      dup7\n        /* \"#utility.yul\":13465:13479   */\n      add\n        /* \"#utility.yul\":13451:13463   */\n      dup3\n        /* \"#utility.yul\":13417:13480   */\n      tag_300\n      jump\t// in\n    tag_528:\n        /* \"#utility.yul\":13322:13490   */\n      pop\n        /* \"#utility.yul\":13573:13577   */\n      0x60\n        /* \"#utility.yul\":13566:13571   */\n      dup4\n        /* \"#utility.yul\":13562:13578   */\n      add\n        /* \"#utility.yul\":13556:13579   */\n      mload\n        /* \"#utility.yul\":13592:13655   */\n      tag_529\n        /* \"#utility.yul\":13649:13653   */\n      0x60\n        /* \"#utility.yul\":13644:13647   */\n      dup7\n        /* \"#utility.yul\":13640:13654   */\n      add\n        /* \"#utility.yul\":13626:13638   */\n      dup3\n        /* \"#utility.yul\":13592:13655   */\n      tag_300\n      jump\t// in\n    tag_529:\n        /* \"#utility.yul\":13500:13665   */\n      pop\n        /* \"#utility.yul\":13751:13755   */\n      0x80\n        /* \"#utility.yul\":13744:13749   */\n      dup4\n        /* \"#utility.yul\":13740:13756   */\n      add\n        /* \"#utility.yul\":13734:13757   */\n      mload\n        /* \"#utility.yul\":13804:13807   */\n      dup5\n        /* \"#utility.yul\":13798:13802   */\n      dup3\n        /* \"#utility.yul\":13794:13808   */\n      sub\n        /* \"#utility.yul\":13787:13791   */\n      0x80\n        /* \"#utility.yul\":13782:13785   */\n      dup7\n        /* \"#utility.yul\":13778:13792   */\n      add\n        /* \"#utility.yul\":13771:13809   */\n      mstore\n        /* \"#utility.yul\":13830:13903   */\n      tag_530\n        /* \"#utility.yul\":13898:13902   */\n      dup3\n        /* \"#utility.yul\":13884:13896   */\n      dup3\n        /* \"#utility.yul\":13830:13903   */\n      tag_326\n      jump\t// in\n    tag_530:\n        /* \"#utility.yul\":13822:13903   */\n      swap2\n      pop\n        /* \"#utility.yul\":13675:13914   */\n      pop\n        /* \"#utility.yul\":13998:14002   */\n      0xa0\n        /* \"#utility.yul\":13991:13996   */\n      dup4\n        /* \"#utility.yul\":13987:14003   */\n      add\n        /* \"#utility.yul\":13981:14004   */\n      mload\n        /* \"#utility.yul\":14017:14097   */\n      tag_531\n        /* \"#utility.yul\":14091:14095   */\n      0xa0\n        /* \"#utility.yul\":14086:14089   */\n      dup7\n        /* \"#utility.yul\":14082:14096   */\n      add\n        /* \"#utility.yul\":14068:14080   */\n      dup3\n        /* \"#utility.yul\":14017:14097   */\n      tag_333\n      jump\t// in\n    tag_531:\n        /* \"#utility.yul\":13924:14107   */\n      pop\n        /* \"#utility.yul\":14124:14128   */\n      dup1\n        /* \"#utility.yul\":14117:14128   */\n      swap2\n      pop\n        /* \"#utility.yul\":12921:14134   */\n      pop\n        /* \"#utility.yul\":12805:14134   */\n      swap3\n      swap2\n      pop\n      pop\n      jump\t// out\n        /* \"#utility.yul\":14140:14400   */\n    tag_335:\n        /* \"#utility.yul\":14261:14271   */\n      0x00\n        /* \"#utility.yul\":14296:14394   */\n      tag_533\n        /* \"#utility.yul\":14390:14393   */\n      dup4\n        /* \"#utility.yul\":14382:14388   */\n      dup4\n        /* \"#utility.yul\":14296:14394   */\n      tag_334\n      jump\t// in\n    tag_533:\n        /* \"#utility.yul\":14282:14394   */\n      swap1\n      pop\n        /* \"#utility.yul\":14140:14400   */\n      swap3\n      swap2\n      pop\n      pop\n      jump\t// out\n        /* \"#utility.yul\":14406:14545   */\n    tag_336:\n        /* \"#utility.yul\":14502:14506   */\n      0x00\n        /* \"#utility.yul\":14534:14538   */\n      0x20\n        /* \"#utility.yul\":14529:14532   */\n      dup3\n        /* \"#utility.yul\":14525:14539   */\n      add\n        /* \"#utility.yul\":14517:14539   */\n      swap1\n      pop\n        /* \"#utility.yul\":14406:14545   */\n      swap2\n      swap1\n      pop\n      jump\t// out\n        /* \"#utility.yul\":14599:15698   */\n    tag_337:\n        /* \"#utility.yul\":14760:14763   */\n      0x00\n        /* \"#utility.yul\":14789:14869   */\n      tag_536\n        /* \"#utility.yul\":14863:14868   */\n      dup3\n        /* \"#utility.yul\":14789:14869   */\n      tag_327\n      jump\t// in\n    tag_536:\n        /* \"#utility.yul\":14885:14987   */\n      tag_537\n        /* \"#utility.yul\":14980:14986   */\n      dup2\n        /* \"#utility.yul\":14975:14978   */\n      dup6\n        /* \"#utility.yul\":14885:14987   */\n      tag_328\n      jump\t// in\n    tag_537:\n        /* \"#utility.yul\":14878:14987   */\n      swap4\n      pop\n        /* \"#utility.yul\":15013:15016   */\n      dup4\n        /* \"#utility.yul\":15058:15062   */\n      0x20\n        /* \"#utility.yul\":15050:15056   */\n      dup3\n        /* \"#utility.yul\":15046:15063   */\n      mul\n        /* \"#utility.yul\":15041:15044   */\n      dup6\n        /* \"#utility.yul\":15037:15064   */\n      add\n        /* \"#utility.yul\":15088:15170   */\n      tag_538\n        /* \"#utility.yul\":15164:15169   */\n      dup6\n        /* \"#utility.yul\":15088:15170   */\n      tag_329\n      jump\t// in\n    tag_538:\n        /* \"#utility.yul\":15193:15200   */\n      dup1\n        /* \"#utility.yul\":15224:15225   */\n      0x00\n        /* \"#utility.yul\":15209:15653   */\n    tag_539:\n        /* \"#utility.yul\":15234:15240   */\n      dup6\n        /* \"#utility.yul\":15231:15232   */\n      dup2\n        /* \"#utility.yul\":15228:15241   */\n      lt\n        /* \"#utility.yul\":15209:15653   */\n      iszero\n      tag_541\n      jumpi\n        /* \"#utility.yul\":15305:15314   */\n      dup5\n        /* \"#utility.yul\":15299:15303   */\n      dup5\n        /* \"#utility.yul\":15295:15315   */\n      sub\n        /* \"#utility.yul\":15290:15293   */\n      dup10\n        /* \"#utility.yul\":15283:15316   */\n      mstore\n        /* \"#utility.yul\":15356:15362   */\n      dup2\n        /* \"#utility.yul\":15350:15363   */\n      mload\n        /* \"#utility.yul\":15384:15500   */\n      tag_542\n        /* \"#utility.yul\":15495:15499   */\n      dup6\n        /* \"#utility.yul\":15480:15493   */\n      dup3\n        /* \"#utility.yul\":15384:15500   */\n      tag_335\n      jump\t// in\n    tag_542:\n        /* \"#utility.yul\":15376:15500   */\n      swap5\n      pop\n        /* \"#utility.yul\":15523:15609   */\n      tag_543\n        /* \"#utility.yul\":15602:15608   */\n      dup4\n        /* \"#utility.yul\":15523:15609   */\n      tag_336\n      jump\t// in\n    tag_543:\n        /* \"#utility.yul\":15513:15609   */\n      swap3\n      pop\n        /* \"#utility.yul\":15638:15642   */\n      0x20\n        /* \"#utility.yul\":15633:15636   */\n      dup11\n        /* \"#utility.yul\":15629:15643   */\n      add\n        /* \"#utility.yul\":15622:15643   */\n      swap10\n      pop\n        /* \"#utility.yul\":15269:15653   */\n      pop\n        /* \"#utility.yul\":15256:15257   */\n      0x01\n        /* \"#utility.yul\":15253:15254   */\n      dup2\n        /* \"#utility.yul\":15249:15258   */\n      add\n        /* \"#utility.yul\":15244:15258   */\n      swap1\n      pop\n        /* \"#utility.yul\":15209:15653   */\n      jump(tag_539)\n    tag_541:\n        /* \"#utility.yul\":15213:15227   */\n      pop\n        /* \"#utility.yul\":15669:15673   */\n      dup3\n        /* \"#utility.yul\":15662:15673   */\n      swap8\n      pop\n        /* \"#utility.yul\":15689:15692   */\n      dup8\n        /* \"#utility.yul\":15682:15692   */\n      swap6\n      pop\n        /* \"#utility.yul\":14765:15698   */\n      pop\n      pop\n      pop\n      pop\n      pop\n        /* \"#utility.yul\":14599:15698   */\n      swap3\n      swap2\n      pop\n      pop\n      jump\t// out\n        /* \"#utility.yul\":15704:15824   */\n    tag_338:\n        /* \"#utility.yul\":15792:15793   */\n      0x03\n        /* \"#utility.yul\":15785:15790   */\n      dup2\n        /* \"#utility.yul\":15782:15794   */\n      lt\n        /* \"#utility.yul\":15772:15818   */\n      tag_545\n      jumpi\n        /* \"#utility.yul\":15798:15816   */\n      tag_546\n      tag_93\n      jump\t// in\n    tag_546:\n        /* \"#utility.yul\":15772:15818   */\n    tag_545:\n        /* \"#utility.yul\":15704:15824   */\n      pop\n      jump\t// out\n        /* \"#utility.yul\":15830:15971   */\n    tag_339:\n        /* \"#utility.yul\":15882:15889   */\n      0x00\n        /* \"#utility.yul\":15911:15916   */\n      dup2\n        /* \"#utility.yul\":15900:15916   */\n      swap1\n      pop\n        /* \"#utility.yul\":15917:15965   */\n      tag_548\n        /* \"#utility.yul\":15959:15964   */\n      dup3\n        /* \"#utility.yul\":15917:15965   */\n      tag_338\n      jump\t// in\n    tag_548:\n        /* \"#utility.yul\":15830:15971   */\n      swap2\n      swap1\n      pop\n      jump\t// out\n        /* \"#utility.yul\":15977:16118   */\n    tag_340:\n        /* \"#utility.yul\":16040:16049   */\n      0x00\n        /* \"#utility.yul\":16073:16112   */\n      tag_550\n        /* \"#utility.yul\":16106:16111   */\n      dup3\n        /* \"#utility.yul\":16073:16112   */\n      tag_339\n      jump\t// in\n    tag_550:\n        /* \"#utility.yul\":16060:16112   */\n      swap1\n      pop\n        /* \"#utility.yul\":15977:16118   */\n      swap2\n      swap1\n      pop\n      jump\t// out\n        /* \"#utility.yul\":16124:16271   */\n    tag_341:\n        /* \"#utility.yul\":16214:16264   */\n      tag_552\n        /* \"#utility.yul\":16258:16263   */\n      dup2\n        /* \"#utility.yul\":16214:16264   */\n      tag_340\n      jump\t// in\n    tag_552:\n        /* \"#utility.yul\":16209:16212   */\n      dup3\n        /* \"#utility.yul\":16202:16265   */\n      mstore\n        /* \"#utility.yul\":16124:16271   */\n      pop\n      pop\n      jump\t// out\n        /* \"#utility.yul\":16313:17971   */\n    tag_342:\n        /* \"#utility.yul\":16426:16429   */\n      0x00\n        /* \"#utility.yul\":16462:16466   */\n      0xe0\n        /* \"#utility.yul\":16457:16460   */\n      dup4\n        /* \"#utility.yul\":16453:16467   */\n      add\n        /* \"#utility.yul\":16552:16556   */\n      0x00\n        /* \"#utility.yul\":16545:16550   */\n      dup4\n        /* \"#utility.yul\":16541:16557   */\n      add\n        /* \"#utility.yul\":16535:16558   */\n      mload\n        /* \"#utility.yul\":16571:16634   */\n      tag_554\n        /* \"#utility.yul\":16628:16632   */\n      0x00\n        /* \"#utility.yul\":16623:16626   */\n      dup7\n        /* \"#utility.yul\":16619:16633   */\n      add\n        /* \"#utility.yul\":16605:16617   */\n      dup3\n        /* \"#utility.yul\":16571:16634   */\n      tag_300\n      jump\t// in\n    tag_554:\n        /* \"#utility.yul\":16477:16644   */\n      pop\n        /* \"#utility.yul\":16726:16730   */\n      0x20\n        /* \"#utility.yul\":16719:16724   */\n      dup4\n        /* \"#utility.yul\":16715:16731   */\n      add\n        /* \"#utility.yul\":16709:16732   */\n      mload\n        /* \"#utility.yul\":16745:16808   */\n      tag_555\n        /* \"#utility.yul\":16802:16806   */\n      0x20\n        /* \"#utility.yul\":16797:16800   */\n      dup7\n        /* \"#utility.yul\":16793:16807   */\n      add\n        /* \"#utility.yul\":16779:16791   */\n      dup3\n        /* \"#utility.yul\":16745:16808   */\n      tag_322\n      jump\t// in\n    tag_555:\n        /* \"#utility.yul\":16654:16818   */\n      pop\n        /* \"#utility.yul\":16904:16908   */\n      0x40\n        /* \"#utility.yul\":16897:16902   */\n      dup4\n        /* \"#utility.yul\":16893:16909   */\n      add\n        /* \"#utility.yul\":16887:16910   */\n      mload\n        /* \"#utility.yul\":16957:16960   */\n      dup5\n        /* \"#utility.yul\":16951:16955   */\n      dup3\n        /* \"#utility.yul\":16947:16961   */\n      sub\n        /* \"#utility.yul\":16940:16944   */\n      0x40\n        /* \"#utility.yul\":16935:16938   */\n      dup7\n        /* \"#utility.yul\":16931:16945   */\n      add\n        /* \"#utility.yul\":16924:16962   */\n      mstore\n        /* \"#utility.yul\":16983:17056   */\n      tag_556\n        /* \"#utility.yul\":17051:17055   */\n      dup3\n        /* \"#utility.yul\":17037:17049   */\n      dup3\n        /* \"#utility.yul\":16983:17056   */\n      tag_326\n      jump\t// in\n    tag_556:\n        /* \"#utility.yul\":16975:17056   */\n      swap2\n      pop\n        /* \"#utility.yul\":16828:17067   */\n      pop\n        /* \"#utility.yul\":17150:17154   */\n      0x60\n        /* \"#utility.yul\":17143:17148   */\n      dup4\n        /* \"#utility.yul\":17139:17155   */\n      add\n        /* \"#utility.yul\":17133:17156   */\n      mload\n        /* \"#utility.yul\":17203:17206   */\n      dup5\n        /* \"#utility.yul\":17197:17201   */\n      dup3\n        /* \"#utility.yul\":17193:17207   */\n      sub\n        /* \"#utility.yul\":17186:17190   */\n      0x60\n        /* \"#utility.yul\":17181:17184   */\n      dup7\n        /* \"#utility.yul\":17177:17191   */\n      add\n        /* \"#utility.yul\":17170:17208   */\n      mstore\n        /* \"#utility.yul\":17229:17384   */\n      tag_557\n        /* \"#utility.yul\":17379:17383   */\n      dup3\n        /* \"#utility.yul\":17365:17377   */\n      dup3\n        /* \"#utility.yul\":17229:17384   */\n      tag_337\n      jump\t// in\n    tag_557:\n        /* \"#utility.yul\":17221:17384   */\n      swap2\n      pop\n        /* \"#utility.yul\":17077:17395   */\n      pop\n        /* \"#utility.yul\":17484:17488   */\n      0x80\n        /* \"#utility.yul\":17477:17482   */\n      dup4\n        /* \"#utility.yul\":17473:17489   */\n      add\n        /* \"#utility.yul\":17467:17490   */\n      mload\n        /* \"#utility.yul\":17503:17566   */\n      tag_558\n        /* \"#utility.yul\":17560:17564   */\n      0x80\n        /* \"#utility.yul\":17555:17558   */\n      dup7\n        /* \"#utility.yul\":17551:17565   */\n      add\n        /* \"#utility.yul\":17537:17549   */\n      dup3\n        /* \"#utility.yul\":17503:17566   */\n      tag_300\n      jump\t// in\n    tag_558:\n        /* \"#utility.yul\":17405:17576   */\n      pop\n        /* \"#utility.yul\":17660:17664   */\n      0xa0\n        /* \"#utility.yul\":17653:17658   */\n      dup4\n        /* \"#utility.yul\":17649:17665   */\n      add\n        /* \"#utility.yul\":17643:17666   */\n      mload\n        /* \"#utility.yul\":17679:17755   */\n      tag_559\n        /* \"#utility.yul\":17749:17753   */\n      0xa0\n        /* \"#utility.yul\":17744:17747   */\n      dup7\n        /* \"#utility.yul\":17740:17754   */\n      add\n        /* \"#utility.yul\":17726:17738   */\n      dup3\n        /* \"#utility.yul\":17679:17755   */\n      tag_341\n      jump\t// in\n    tag_559:\n        /* \"#utility.yul\":17586:17765   */\n      pop\n        /* \"#utility.yul\":17852:17856   */\n      0xc0\n        /* \"#utility.yul\":17845:17850   */\n      dup4\n        /* \"#utility.yul\":17841:17857   */\n      add\n        /* \"#utility.yul\":17835:17858   */\n      mload\n        /* \"#utility.yul\":17871:17934   */\n      tag_560\n        /* \"#utility.yul\":17928:17932   */\n      0xc0\n        /* \"#utility.yul\":17923:17926   */\n      dup7\n        /* \"#utility.yul\":17919:17933   */\n      add\n        /* \"#utility.yul\":17905:17917   */\n      dup3\n        /* \"#utility.yul\":17871:17934   */\n      tag_300\n      jump\t// in\n    tag_560:\n        /* \"#utility.yul\":17775:17944   */\n      pop\n        /* \"#utility.yul\":17961:17965   */\n      dup1\n        /* \"#utility.yul\":17954:17965   */\n      swap2\n      pop\n        /* \"#utility.yul\":16431:17971   */\n      pop\n        /* \"#utility.yul\":16313:17971   */\n      swap3\n      swap2\n      pop\n      pop\n      jump\t// out\n        /* \"#utility.yul\":17977:18338   */\n    tag_27:\n        /* \"#utility.yul\":18114:18118   */\n      0x00\n        /* \"#utility.yul\":18152:18154   */\n      0x20\n        /* \"#utility.yul\":18141:18150   */\n      dup3\n        /* \"#utility.yul\":18137:18155   */\n      add\n        /* \"#utility.yul\":18129:18155   */\n      swap1\n      pop\n        /* \"#utility.yul\":18201:18210   */\n      dup2\n        /* \"#utility.yul\":18195:18199   */\n      dup2\n        /* \"#utility.yul\":18191:18211   */\n      sub\n        /* \"#utility.yul\":18187:18188   */\n      0x00\n        /* \"#utility.yul\":18176:18185   */\n      dup4\n        /* \"#utility.yul\":18172:18189   */\n      add\n        /* \"#utility.yul\":18165:18212   */\n      mstore\n        /* \"#utility.yul\":18229:18331   */\n      tag_562\n        /* \"#utility.yul\":18326:18330   */\n      dup2\n        /* \"#utility.yul\":18317:18323   */\n      dup5\n        /* \"#utility.yul\":18229:18331   */\n      tag_342\n      jump\t// in\n    tag_562:\n        /* \"#utility.yul\":18221:18331   */\n      swap1\n      pop\n        /* \"#utility.yul\":17977:18338   */\n      swap3\n      swap2\n      pop\n      pop\n      jump\t// out\n        /* \"#utility.yul\":18344:18818   */\n    tag_30:\n        /* \"#utility.yul\":18412:18418   */\n      0x00\n        /* \"#utility.yul\":18420:18426   */\n      0x00\n        /* \"#utility.yul\":18469:18471   */\n      0x40\n        /* \"#utility.yul\":18457:18466   */\n      dup4\n        /* \"#utility.yul\":18448:18455   */\n      dup6\n        /* \"#utility.yul\":18444:18467   */\n      sub\n        /* \"#utility.yul\":18440:18472   */\n      slt\n        /* \"#utility.yul\":18437:18556   */\n      iszero\n      tag_564\n      jumpi\n        /* \"#utility.yul\":18475:18554   */\n      tag_565\n      tag_291\n      jump\t// in\n    tag_565:\n        /* \"#utility.yul\":18437:18556   */\n    tag_564:\n        /* \"#utility.yul\":18595:18596   */\n      0x00\n        /* \"#utility.yul\":18620:18673   */\n      tag_566\n        /* \"#utility.yul\":18665:18672   */\n      dup6\n        /* \"#utility.yul\":18656:18662   */\n      dup3\n        /* \"#utility.yul\":18645:18654   */\n      dup7\n        /* \"#utility.yul\":18641:18663   */\n      add\n        /* \"#utility.yul\":18620:18673   */\n      tag_296\n      jump\t// in\n    tag_566:\n        /* \"#utility.yul\":18610:18673   */\n      swap3\n      pop\n        /* \"#utility.yul\":18566:18683   */\n      pop\n        /* \"#utility.yul\":18722:18724   */\n      0x20\n        /* \"#utility.yul\":18748:18801   */\n      tag_567\n        /* \"#utility.yul\":18793:18800   */\n      dup6\n        /* \"#utility.yul\":18784:18790   */\n      dup3\n        /* \"#utility.yul\":18773:18782   */\n      dup7\n        /* \"#utility.yul\":18769:18791   */\n      add\n        /* \"#utility.yul\":18748:18801   */\n      tag_318\n      jump\t// in\n    tag_567:\n        /* \"#utility.yul\":18738:18801   */\n      swap2\n      pop\n        /* \"#utility.yul\":18693:18811   */\n      pop\n        /* \"#utility.yul\":18344:18818   */\n      swap3\n      pop\n      swap3\n      swap1\n      pop\n      jump\t// out\n        /* \"#utility.yul\":18824:18942   */\n    tag_343:\n        /* \"#utility.yul\":18916:18917   */\n      0x03\n        /* \"#utility.yul\":18909:18914   */\n      dup2\n        /* \"#utility.yul\":18906:18918   */\n      lt\n        /* \"#utility.yul\":18896:18936   */\n      tag_569\n      jumpi\n        /* \"#utility.yul\":18932:18933   */\n      0x00\n        /* \"#utility.yul\":18929:18930   */\n      0x00\n        /* \"#utility.yul\":18922:18934   */\n      revert\n        /* \"#utility.yul\":18896:18936   */\n    tag_569:\n        /* \"#utility.yul\":18824:18942   */\n      pop\n      jump\t// out\n        /* \"#utility.yul\":18948:19125   */\n    tag_344:\n        /* \"#utility.yul\":19013:19018   */\n      0x00\n        /* \"#utility.yul\":19051:19057   */\n      dup2\n        /* \"#utility.yul\":19038:19058   */\n      calldataload\n        /* \"#utility.yul\":19029:19058   */\n      swap1\n      pop\n        /* \"#utility.yul\":19067:19119   */\n      tag_571\n        /* \"#utility.yul\":19113:19118   */\n      dup2\n        /* \"#utility.yul\":19067:19119   */\n      tag_343\n      jump\t// in\n    tag_571:\n        /* \"#utility.yul\":18948:19125   */\n      swap3\n      swap2\n      pop\n      pop\n      jump\t// out\n        /* \"#utility.yul\":19131:19788   */\n    tag_35:\n        /* \"#utility.yul\":19227:19233   */\n      0x00\n        /* \"#utility.yul\":19235:19241   */\n      0x00\n        /* \"#utility.yul\":19243:19249   */\n      0x00\n        /* \"#utility.yul\":19292:19294   */\n      0x60\n        /* \"#utility.yul\":19280:19289   */\n      dup5\n        /* \"#utility.yul\":19271:19278   */\n      dup7\n        /* \"#utility.yul\":19267:19290   */\n      sub\n        /* \"#utility.yul\":19263:19295   */\n      slt\n        /* \"#utility.yul\":19260:19379   */\n      iszero\n      tag_573\n      jumpi\n        /* \"#utility.yul\":19298:19377   */\n      tag_574\n      tag_291\n      jump\t// in\n    tag_574:\n        /* \"#utility.yul\":19260:19379   */\n    tag_573:\n        /* \"#utility.yul\":19418:19419   */\n      0x00\n        /* \"#utility.yul\":19443:19496   */\n      tag_575\n        /* \"#utility.yul\":19488:19495   */\n      dup7\n        /* \"#utility.yul\":19479:19485   */\n      dup3\n        /* \"#utility.yul\":19468:19477   */\n      dup8\n        /* \"#utility.yul\":19464:19486   */\n      add\n        /* \"#utility.yul\":19443:19496   */\n      tag_318\n      jump\t// in\n    tag_575:\n        /* \"#utility.yul\":19433:19496   */\n      swap4\n      pop\n        /* \"#utility.yul\":19389:19506   */\n      pop\n        /* \"#utility.yul\":19545:19547   */\n      0x20\n        /* \"#utility.yul\":19571:19624   */\n      tag_576\n        /* \"#utility.yul\":19616:19623   */\n      dup7\n        /* \"#utility.yul\":19607:19613   */\n      dup3\n        /* \"#utility.yul\":19596:19605   */\n      dup8\n        /* \"#utility.yul\":19592:19614   */\n      add\n        /* \"#utility.yul\":19571:19624   */\n      tag_318\n      jump\t// in\n    tag_576:\n        /* \"#utility.yul\":19561:19624   */\n      swap3\n      pop\n        /* \"#utility.yul\":19516:19634   */\n      pop\n        /* \"#utility.yul\":19673:19675   */\n      0x40\n        /* \"#utility.yul\":19699:19771   */\n      tag_577\n        /* \"#utility.yul\":19763:19770   */\n      dup7\n        /* \"#utility.yul\":19754:19760   */\n      dup3\n        /* \"#utility.yul\":19743:19752   */\n      dup8\n        /* \"#utility.yul\":19739:19761   */\n      add\n        /* \"#utility.yul\":19699:19771   */\n      tag_344\n      jump\t// in\n    tag_577:\n        /* \"#utility.yul\":19689:19771   */\n      swap2\n      pop\n        /* \"#utility.yul\":19644:19781   */\n      pop\n        /* \"#utility.yul\":19131:19788   */\n      swap3\n      pop\n      swap3\n      pop\n      swap3\n      jump\t// out\n        /* \"#utility.yul\":19794:19908   */\n    tag_345:\n        /* \"#utility.yul\":19882:19883   */\n      0x03\n        /* \"#utility.yul\":19875:19880   */\n      dup2\n        /* \"#utility.yul\":19872:19884   */\n      lt\n        /* \"#utility.yul\":19862:19902   */\n      tag_579\n      jumpi\n        /* \"#utility.yul\":19898:19899   */\n      0x00\n        /* \"#utility.yul\":19895:19896   */\n      0x00\n        /* \"#utility.yul\":19888:19900   */\n      revert\n        /* \"#utility.yul\":19862:19902   */\n    tag_579:\n        /* \"#utility.yul\":19794:19908   */\n      pop\n      jump\t// out\n        /* \"#utility.yul\":19914:20083   */\n    tag_346:\n        /* \"#utility.yul\":19975:19980   */\n      0x00\n        /* \"#utility.yul\":20013:20019   */\n      dup2\n        /* \"#utility.yul\":20000:20020   */\n      calldataload\n        /* \"#utility.yul\":19991:20020   */\n      swap1\n      pop\n        /* \"#utility.yul\":20029:20077   */\n      tag_581\n        /* \"#utility.yul\":20071:20076   */\n      dup2\n        /* \"#utility.yul\":20029:20077   */\n      tag_345\n      jump\t// in\n    tag_581:\n        /* \"#utility.yul\":19914:20083   */\n      swap3\n      swap2\n      pop\n      pop\n      jump\t// out\n        /* \"#utility.yul\":20089:20448   */\n    tag_39:\n        /* \"#utility.yul\":20163:20169   */\n      0x00\n        /* \"#utility.yul\":20212:20214   */\n      0x20\n        /* \"#utility.yul\":20200:20209   */\n      dup3\n        /* \"#utility.yul\":20191:20198   */\n      dup5\n        /* \"#utility.yul\":20187:20210   */\n      sub\n        /* \"#utility.yul\":20183:20215   */\n      slt\n        /* \"#utility.yul\":20180:20299   */\n      iszero\n      tag_583\n      jumpi\n        /* \"#utility.yul\":20218:20297   */\n      tag_584\n      tag_291\n      jump\t// in\n    tag_584:\n        /* \"#utility.yul\":20180:20299   */\n    tag_583:\n        /* \"#utility.yul\":20338:20339   */\n      0x00\n        /* \"#utility.yul\":20363:20431   */\n      tag_585\n        /* \"#utility.yul\":20423:20430   */\n      dup5\n        /* \"#utility.yul\":20414:20420   */\n      dup3\n        /* \"#utility.yul\":20403:20412   */\n      dup6\n        /* \"#utility.yul\":20399:20421   */\n      add\n        /* \"#utility.yul\":20363:20431   */\n      tag_346\n      jump\t// in\n    tag_585:\n        /* \"#utility.yul\":20353:20431   */\n      swap2\n      pop\n        /* \"#utility.yul\":20309:20441   */\n      pop\n        /* \"#utility.yul\":20089:20448   */\n      swap3\n      swap2\n      pop\n      pop\n      jump\t// out\n        /* \"#utility.yul\":20454:20590   */\n    tag_347:\n        /* \"#utility.yul\":20543:20549   */\n      0x00\n        /* \"#utility.yul\":20577:20582   */\n      dup2\n        /* \"#utility.yul\":20571:20583   */\n      mload\n        /* \"#utility.yul\":20561:20583   */\n      swap1\n      pop\n        /* \"#utility.yul\":20454:20590   */\n      swap2\n      swap1\n      pop\n      jump\t// out\n        /* \"#utility.yul\":20596:20802   */\n    tag_348:\n        /* \"#utility.yul\":20717:20728   */\n      0x00\n        /* \"#utility.yul\":20751:20757   */\n      dup3\n        /* \"#utility.yul\":20746:20749   */\n      dup3\n        /* \"#utility.yul\":20739:20758   */\n      mstore\n        /* \"#utility.yul\":20791:20795   */\n      0x20\n        /* \"#utility.yul\":20786:20789   */\n      dup3\n        /* \"#utility.yul\":20782:20796   */\n      add\n        /* \"#utility.yul\":20767:20796   */\n      swap1\n      pop\n        /* \"#utility.yul\":20596:20802   */\n      swap3\n      swap2\n      pop\n      pop\n      jump\t// out\n        /* \"#utility.yul\":20808:20962   */\n    tag_349:\n        /* \"#utility.yul\":20897:20901   */\n      0x00\n        /* \"#utility.yul\":20920:20923   */\n      dup2\n        /* \"#utility.yul\":20912:20923   */\n      swap1\n      pop\n        /* \"#utility.yul\":20950:20954   */\n      0x20\n        /* \"#utility.yul\":20945:20948   */\n      dup3\n        /* \"#utility.yul\":20941:20955   */\n      add\n        /* \"#utility.yul\":20933:20955   */\n      swap1\n      pop\n        /* \"#utility.yul\":20808:20962   */\n      swap2\n      swap1\n      pop\n      jump\t// out\n        /* \"#utility.yul\":21004:22652   */\n    tag_350:\n        /* \"#utility.yul\":21107:21110   */\n      0x00\n        /* \"#utility.yul\":21143:21147   */\n      0xe0\n        /* \"#utility.yul\":21138:21141   */\n      dup4\n        /* \"#utility.yul\":21134:21148   */\n      add\n        /* \"#utility.yul\":21233:21237   */\n      0x00\n        /* \"#utility.yul\":21226:21231   */\n      dup4\n        /* \"#utility.yul\":21222:21238   */\n      add\n        /* \"#utility.yul\":21216:21239   */\n      mload\n        /* \"#utility.yul\":21252:21315   */\n      tag_590\n        /* \"#utility.yul\":21309:21313   */\n      0x00\n        /* \"#utility.yul\":21304:21307   */\n      dup7\n        /* \"#utility.yul\":21300:21314   */\n      add\n        /* \"#utility.yul\":21286:21298   */\n      dup3\n        /* \"#utility.yul\":21252:21315   */\n      tag_300\n      jump\t// in\n    tag_590:\n        /* \"#utility.yul\":21158:21325   */\n      pop\n        /* \"#utility.yul\":21407:21411   */\n      0x20\n        /* \"#utility.yul\":21400:21405   */\n      dup4\n        /* \"#utility.yul\":21396:21412   */\n      add\n        /* \"#utility.yul\":21390:21413   */\n      mload\n        /* \"#utility.yul\":21426:21489   */\n      tag_591\n        /* \"#utility.yul\":21483:21487   */\n      0x20\n        /* \"#utility.yul\":21478:21481   */\n      dup7\n        /* \"#utility.yul\":21474:21488   */\n      add\n        /* \"#utility.yul\":21460:21472   */\n      dup3\n        /* \"#utility.yul\":21426:21489   */\n      tag_322\n      jump\t// in\n    tag_591:\n        /* \"#utility.yul\":21335:21499   */\n      pop\n        /* \"#utility.yul\":21585:21589   */\n      0x40\n        /* \"#utility.yul\":21578:21583   */\n      dup4\n        /* \"#utility.yul\":21574:21590   */\n      add\n        /* \"#utility.yul\":21568:21591   */\n      mload\n        /* \"#utility.yul\":21638:21641   */\n      dup5\n        /* \"#utility.yul\":21632:21636   */\n      dup3\n        /* \"#utility.yul\":21628:21642   */\n      sub\n        /* \"#utility.yul\":21621:21625   */\n      0x40\n        /* \"#utility.yul\":21616:21619   */\n      dup7\n        /* \"#utility.yul\":21612:21626   */\n      add\n        /* \"#utility.yul\":21605:21643   */\n      mstore\n        /* \"#utility.yul\":21664:21737   */\n      tag_592\n        /* \"#utility.yul\":21732:21736   */\n      dup3\n        /* \"#utility.yul\":21718:21730   */\n      dup3\n        /* \"#utility.yul\":21664:21737   */\n      tag_326\n      jump\t// in\n    tag_592:\n        /* \"#utility.yul\":21656:21737   */\n      swap2\n      pop\n        /* \"#utility.yul\":21509:21748   */\n      pop\n        /* \"#utility.yul\":21831:21835   */\n      0x60\n        /* \"#utility.yul\":21824:21829   */\n      dup4\n        /* \"#utility.yul\":21820:21836   */\n      add\n        /* \"#utility.yul\":21814:21837   */\n      mload\n        /* \"#utility.yul\":21884:21887   */\n      dup5\n        /* \"#utility.yul\":21878:21882   */\n      dup3\n        /* \"#utility.yul\":21874:21888   */\n      sub\n        /* \"#utility.yul\":21867:21871   */\n      0x60\n        /* \"#utility.yul\":21862:21865   */\n      dup7\n        /* \"#utility.yul\":21858:21872   */\n      add\n        /* \"#utility.yul\":21851:21889   */\n      mstore\n        /* \"#utility.yul\":21910:22065   */\n      tag_593\n        /* \"#utility.yul\":22060:22064   */\n      dup3\n        /* \"#utility.yul\":22046:22058   */\n      dup3\n        /* \"#utility.yul\":21910:22065   */\n      tag_337\n      jump\t// in\n    tag_593:\n        /* \"#utility.yul\":21902:22065   */\n      swap2\n      pop\n        /* \"#utility.yul\":21758:22076   */\n      pop\n        /* \"#utility.yul\":22165:22169   */\n      0x80\n        /* \"#utility.yul\":22158:22163   */\n      dup4\n        /* \"#utility.yul\":22154:22170   */\n      add\n        /* \"#utility.yul\":22148:22171   */\n      mload\n        /* \"#utility.yul\":22184:22247   */\n      tag_594\n        /* \"#utility.yul\":22241:22245   */\n      0x80\n        /* \"#utility.yul\":22236:22239   */\n      dup7\n        /* \"#utility.yul\":22232:22246   */\n      add\n        /* \"#utility.yul\":22218:22230   */\n      dup3\n        /* \"#utility.yul\":22184:22247   */\n      tag_300\n      jump\t// in\n    tag_594:\n        /* \"#utility.yul\":22086:22257   */\n      pop\n        /* \"#utility.yul\":22341:22345   */\n      0xa0\n        /* \"#utility.yul\":22334:22339   */\n      dup4\n        /* \"#utility.yul\":22330:22346   */\n      add\n        /* \"#utility.yul\":22324:22347   */\n      mload\n        /* \"#utility.yul\":22360:22436   */\n      tag_595\n        /* \"#utility.yul\":22430:22434   */\n      0xa0\n        /* \"#utility.yul\":22425:22428   */\n      dup7\n        /* \"#utility.yul\":22421:22435   */\n      add\n        /* \"#utility.yul\":22407:22419   */\n      dup3\n        /* \"#utility.yul\":22360:22436   */\n      tag_341\n      jump\t// in\n    tag_595:\n        /* \"#utility.yul\":22267:22446   */\n      pop\n        /* \"#utility.yul\":22533:22537   */\n      0xc0\n        /* \"#utility.yul\":22526:22531   */\n      dup4\n        /* \"#utility.yul\":22522:22538   */\n      add\n        /* \"#utility.yul\":22516:22539   */\n      mload\n        /* \"#utility.yul\":22552:22615   */\n      tag_596\n        /* \"#utility.yul\":22609:22613   */\n      0xc0\n        /* \"#utility.yul\":22604:22607   */\n      dup7\n        /* \"#utility.yul\":22600:22614   */\n      add\n        /* \"#utility.yul\":22586:22598   */\n      dup3\n        /* \"#utility.yul\":22552:22615   */\n      tag_300\n      jump\t// in\n    tag_596:\n        /* \"#utility.yul\":22456:22625   */\n      pop\n        /* \"#utility.yul\":22642:22646   */\n      dup1\n        /* \"#utility.yul\":22635:22646   */\n      swap2\n      pop\n        /* \"#utility.yul\":21112:22652   */\n      pop\n        /* \"#utility.yul\":21004:22652   */\n      swap3\n      swap2\n      pop\n      pop\n      jump\t// out\n        /* \"#utility.yul\":22658:22902   */\n    tag_351:\n        /* \"#utility.yul\":22771:22781   */\n      0x00\n        /* \"#utility.yul\":22806:22896   */\n      tag_598\n        /* \"#utility.yul\":22892:22895   */\n      dup4\n        /* \"#utility.yul\":22884:22890   */\n      dup4\n        /* \"#utility.yul\":22806:22896   */\n      tag_350\n      jump\t// in\n    tag_598:\n        /* \"#utility.yul\":22792:22896   */\n      swap1\n      pop\n        /* \"#utility.yul\":22658:22902   */\n      swap3\n      swap2\n      pop\n      pop\n      jump\t// out\n        /* \"#utility.yul\":22908:23043   */\n    tag_352:\n        /* \"#utility.yul\":23000:23004   */\n      0x00\n        /* \"#utility.yul\":23032:23036   */\n      0x20\n        /* \"#utility.yul\":23027:23030   */\n      dup3\n        /* \"#utility.yul\":23023:23037   */\n      add\n        /* \"#utility.yul\":23015:23037   */\n      swap1\n      pop\n        /* \"#utility.yul\":22908:23043   */\n      swap2\n      swap1\n      pop\n      jump\t// out\n        /* \"#utility.yul\":23089:24176   */\n    tag_353:\n        /* \"#utility.yul\":23252:23255   */\n      0x00\n        /* \"#utility.yul\":23281:23357   */\n      tag_601\n        /* \"#utility.yul\":23351:23356   */\n      dup3\n        /* \"#utility.yul\":23281:23357   */\n      tag_347\n      jump\t// in\n    tag_601:\n        /* \"#utility.yul\":23373:23481   */\n      tag_602\n        /* \"#utility.yul\":23474:23480   */\n      dup2\n        /* \"#utility.yul\":23469:23472   */\n      dup6\n        /* \"#utility.yul\":23373:23481   */\n      tag_348\n      jump\t// in\n    tag_602:\n        /* \"#utility.yul\":23366:23481   */\n      swap4\n      pop\n        /* \"#utility.yul\":23507:23510   */\n      dup4\n        /* \"#utility.yul\":23552:23556   */\n      0x20\n        /* \"#utility.yul\":23544:23550   */\n      dup3\n        /* \"#utility.yul\":23540:23557   */\n      mul\n        /* \"#utility.yul\":23535:23538   */\n      dup6\n        /* \"#utility.yul\":23531:23558   */\n      add\n        /* \"#utility.yul\":23582:23660   */\n      tag_603\n        /* \"#utility.yul\":23654:23659   */\n      dup6\n        /* \"#utility.yul\":23582:23660   */\n      tag_349\n      jump\t// in\n    tag_603:\n        /* \"#utility.yul\":23683:23690   */\n      dup1\n        /* \"#utility.yul\":23714:23715   */\n      0x00\n        /* \"#utility.yul\":23699:24131   */\n    tag_604:\n        /* \"#utility.yul\":23724:23730   */\n      dup6\n        /* \"#utility.yul\":23721:23722   */\n      dup2\n        /* \"#utility.yul\":23718:23731   */\n      lt\n        /* \"#utility.yul\":23699:24131   */\n      iszero\n      tag_606\n      jumpi\n        /* \"#utility.yul\":23795:23804   */\n      dup5\n        /* \"#utility.yul\":23789:23793   */\n      dup5\n        /* \"#utility.yul\":23785:23805   */\n      sub\n        /* \"#utility.yul\":23780:23783   */\n      dup10\n        /* \"#utility.yul\":23773:23806   */\n      mstore\n        /* \"#utility.yul\":23846:23852   */\n      dup2\n        /* \"#utility.yul\":23840:23853   */\n      mload\n        /* \"#utility.yul\":23874:23982   */\n      tag_607\n        /* \"#utility.yul\":23977:23981   */\n      dup6\n        /* \"#utility.yul\":23962:23975   */\n      dup3\n        /* \"#utility.yul\":23874:23982   */\n      tag_351\n      jump\t// in\n    tag_607:\n        /* \"#utility.yul\":23866:23982   */\n      swap5\n      pop\n        /* \"#utility.yul\":24005:24087   */\n      tag_608\n        /* \"#utility.yul\":24080:24086   */\n      dup4\n        /* \"#utility.yul\":24005:24087   */\n      tag_352\n      jump\t// in\n    tag_608:\n        /* \"#utility.yul\":23995:24087   */\n      swap3\n      pop\n        /* \"#utility.yul\":24116:24120   */\n      0x20\n        /* \"#utility.yul\":24111:24114   */\n      dup11\n        /* \"#utility.yul\":24107:24121   */\n      add\n        /* \"#utility.yul\":24100:24121   */\n      swap10\n      pop\n        /* \"#utility.yul\":23759:24131   */\n      pop\n        /* \"#utility.yul\":23746:23747   */\n      0x01\n        /* \"#utility.yul\":23743:23744   */\n      dup2\n        /* \"#utility.yul\":23739:23748   */\n      add\n        /* \"#utility.yul\":23734:23748   */\n      swap1\n      pop\n        /* \"#utility.yul\":23699:24131   */\n      jump(tag_604)\n    tag_606:\n        /* \"#utility.yul\":23703:23717   */\n      pop\n        /* \"#utility.yul\":24147:24151   */\n      dup3\n        /* \"#utility.yul\":24140:24151   */\n      swap8\n      pop\n        /* \"#utility.yul\":24167:24170   */\n      dup8\n        /* \"#utility.yul\":24160:24170   */\n      swap6\n      pop\n        /* \"#utility.yul\":23257:24176   */\n      pop\n      pop\n      pop\n      pop\n      pop\n        /* \"#utility.yul\":23089:24176   */\n      swap3\n      swap2\n      pop\n      pop\n      jump\t// out\n        /* \"#utility.yul\":24182:24643   */\n    tag_42:\n        /* \"#utility.yul\":24369:24373   */\n      0x00\n        /* \"#utility.yul\":24407:24409   */\n      0x20\n        /* \"#utility.yul\":24396:24405   */\n      dup3\n        /* \"#utility.yul\":24392:24410   */\n      add\n        /* \"#utility.yul\":24384:24410   */\n      swap1\n      pop\n        /* \"#utility.yul\":24456:24465   */\n      dup2\n        /* \"#utility.yul\":24450:24454   */\n      dup2\n        /* \"#utility.yul\":24446:24466   */\n      sub\n        /* \"#utility.yul\":24442:24443   */\n      0x00\n        /* \"#utility.yul\":24431:24440   */\n      dup4\n        /* \"#utility.yul\":24427:24444   */\n      add\n        /* \"#utility.yul\":24420:24467   */\n      mstore\n        /* \"#utility.yul\":24484:24636   */\n      tag_610\n        /* \"#utility.yul\":24631:24635   */\n      dup2\n        /* \"#utility.yul\":24622:24628   */\n      dup5\n        /* \"#utility.yul\":24484:24636   */\n      tag_353\n      jump\t// in\n    tag_610:\n        /* \"#utility.yul\":24476:24636   */\n      swap1\n      pop\n        /* \"#utility.yul\":24182:24643   */\n      swap3\n      swap2\n      pop\n      pop\n      jump\t// out\n        /* \"#utility.yul\":24649:24978   */\n    tag_45:\n        /* \"#utility.yul\":24708:24714   */\n      0x00\n        /* \"#utility.yul\":24757:24759   */\n      0x20\n        /* \"#utility.yul\":24745:24754   */\n      dup3\n        /* \"#utility.yul\":24736:24743   */\n      dup5\n        /* \"#utility.yul\":24732:24755   */\n      sub\n        /* \"#utility.yul\":24728:24760   */\n      slt\n        /* \"#utility.yul\":24725:24844   */\n      iszero\n      tag_612\n      jumpi\n        /* \"#utility.yul\":24763:24842   */\n      tag_613\n      tag_291\n      jump\t// in\n    tag_613:\n        /* \"#utility.yul\":24725:24844   */\n    tag_612:\n        /* \"#utility.yul\":24883:24884   */\n      0x00\n        /* \"#utility.yul\":24908:24961   */\n      tag_614\n        /* \"#utility.yul\":24953:24960   */\n      dup5\n        /* \"#utility.yul\":24944:24950   */\n      dup3\n        /* \"#utility.yul\":24933:24942   */\n      dup6\n        /* \"#utility.yul\":24929:24951   */\n      add\n        /* \"#utility.yul\":24908:24961   */\n      tag_318\n      jump\t// in\n    tag_614:\n        /* \"#utility.yul\":24898:24961   */\n      swap2\n      pop\n        /* \"#utility.yul\":24854:24971   */\n      pop\n        /* \"#utility.yul\":24649:24978   */\n      swap3\n      swap2\n      pop\n      pop\n      jump\t// out\n        /* \"#utility.yul\":24984:25102   */\n    tag_354:\n        /* \"#utility.yul\":25071:25095   */\n      tag_616\n        /* \"#utility.yul\":25089:25094   */\n      dup2\n        /* \"#utility.yul\":25071:25095   */\n      tag_294\n      jump\t// in\n    tag_616:\n        /* \"#utility.yul\":25066:25069   */\n      dup3\n        /* \"#utility.yul\":25059:25096   */\n      mstore\n        /* \"#utility.yul\":24984:25102   */\n      pop\n      pop\n      jump\t// out\n        /* \"#utility.yul\":25108:25277   */\n    tag_355:\n        /* \"#utility.yul\":25192:25203   */\n      0x00\n        /* \"#utility.yul\":25226:25232   */\n      dup3\n        /* \"#utility.yul\":25221:25224   */\n      dup3\n        /* \"#utility.yul\":25214:25233   */\n      mstore\n        /* \"#utility.yul\":25266:25270   */\n      0x20\n        /* \"#utility.yul\":25261:25264   */\n      dup3\n        /* \"#utility.yul\":25257:25271   */\n      add\n        /* \"#utility.yul\":25242:25271   */\n      swap1\n      pop\n        /* \"#utility.yul\":25108:25277   */\n      swap3\n      swap2\n      pop\n      pop\n      jump\t// out\n        /* \"#utility.yul\":25283:25660   */\n    tag_356:\n        /* \"#utility.yul\":25371:25374   */\n      0x00\n        /* \"#utility.yul\":25399:25438   */\n      tag_619\n        /* \"#utility.yul\":25432:25437   */\n      dup3\n        /* \"#utility.yul\":25399:25438   */\n      tag_323\n      jump\t// in\n    tag_619:\n        /* \"#utility.yul\":25454:25525   */\n      tag_620\n        /* \"#utility.yul\":25518:25524   */\n      dup2\n        /* \"#utility.yul\":25513:25516   */\n      dup6\n        /* \"#utility.yul\":25454:25525   */\n      tag_355\n      jump\t// in\n    tag_620:\n        /* \"#utility.yul\":25447:25525   */\n      swap4\n      pop\n        /* \"#utility.yul\":25534:25599   */\n      tag_621\n        /* \"#utility.yul\":25592:25598   */\n      dup2\n        /* \"#utility.yul\":25587:25590   */\n      dup6\n        /* \"#utility.yul\":25580:25584   */\n      0x20\n        /* \"#utility.yul\":25573:25578   */\n      dup7\n        /* \"#utility.yul\":25569:25585   */\n      add\n        /* \"#utility.yul\":25534:25599   */\n      tag_325\n      jump\t// in\n    tag_621:\n        /* \"#utility.yul\":25624:25653   */\n      tag_622\n        /* \"#utility.yul\":25646:25652   */\n      dup2\n        /* \"#utility.yul\":25624:25653   */\n      tag_306\n      jump\t// in\n    tag_622:\n        /* \"#utility.yul\":25619:25622   */\n      dup5\n        /* \"#utility.yul\":25615:25654   */\n      add\n        /* \"#utility.yul\":25608:25654   */\n      swap2\n      pop\n        /* \"#utility.yul\":25375:25660   */\n      pop\n        /* \"#utility.yul\":25283:25660   */\n      swap3\n      swap2\n      pop\n      pop\n      jump\t// out\n        /* \"#utility.yul\":25666:25823   */\n    tag_357:\n        /* \"#utility.yul\":25766:25816   */\n      tag_624\n        /* \"#utility.yul\":25810:25815   */\n      dup2\n        /* \"#utility.yul\":25766:25816   */\n      tag_340\n      jump\t// in\n    tag_624:\n        /* \"#utility.yul\":25761:25764   */\n      dup3\n        /* \"#utility.yul\":25754:25817   */\n      mstore\n        /* \"#utility.yul\":25666:25823   */\n      pop\n      pop\n      jump\t// out\n        /* \"#utility.yul\":25829:26721   */\n    tag_48:\n        /* \"#utility.yul\":26095:26099   */\n      0x00\n        /* \"#utility.yul\":26133:26136   */\n      0xc0\n        /* \"#utility.yul\":26122:26131   */\n      dup3\n        /* \"#utility.yul\":26118:26137   */\n      add\n        /* \"#utility.yul\":26110:26137   */\n      swap1\n      pop\n        /* \"#utility.yul\":26147:26218   */\n      tag_626\n        /* \"#utility.yul\":26215:26216   */\n      0x00\n        /* \"#utility.yul\":26204:26213   */\n      dup4\n        /* \"#utility.yul\":26200:26217   */\n      add\n        /* \"#utility.yul\":26191:26197   */\n      dup10\n        /* \"#utility.yul\":26147:26218   */\n      tag_289\n      jump\t// in\n    tag_626:\n        /* \"#utility.yul\":26228:26300   */\n      tag_627\n        /* \"#utility.yul\":26296:26298   */\n      0x20\n        /* \"#utility.yul\":26285:26294   */\n      dup4\n        /* \"#utility.yul\":26281:26299   */\n      add\n        /* \"#utility.yul\":26272:26278   */\n      dup9\n        /* \"#utility.yul\":26228:26300   */\n      tag_354\n      jump\t// in\n    tag_627:\n        /* \"#utility.yul\":26347:26356   */\n      dup2\n        /* \"#utility.yul\":26341:26345   */\n      dup2\n        /* \"#utility.yul\":26337:26357   */\n      sub\n        /* \"#utility.yul\":26332:26334   */\n      0x40\n        /* \"#utility.yul\":26321:26330   */\n      dup4\n        /* \"#utility.yul\":26317:26335   */\n      add\n        /* \"#utility.yul\":26310:26358   */\n      mstore\n        /* \"#utility.yul\":26375:26453   */\n      tag_628\n        /* \"#utility.yul\":26448:26452   */\n      dup2\n        /* \"#utility.yul\":26439:26445   */\n      dup8\n        /* \"#utility.yul\":26375:26453   */\n      tag_356\n      jump\t// in\n    tag_628:\n        /* \"#utility.yul\":26367:26453   */\n      swap1\n      pop\n        /* \"#utility.yul\":26463:26535   */\n      tag_629\n        /* \"#utility.yul\":26531:26533   */\n      0x60\n        /* \"#utility.yul\":26520:26529   */\n      dup4\n        /* \"#utility.yul\":26516:26534   */\n      add\n        /* \"#utility.yul\":26507:26513   */\n      dup7\n        /* \"#utility.yul\":26463:26535   */\n      tag_289\n      jump\t// in\n    tag_629:\n        /* \"#utility.yul\":26545:26631   */\n      tag_630\n        /* \"#utility.yul\":26626:26629   */\n      0x80\n        /* \"#utility.yul\":26615:26624   */\n      dup4\n        /* \"#utility.yul\":26611:26630   */\n      add\n        /* \"#utility.yul\":26602:26608   */\n      dup6\n        /* \"#utility.yul\":26545:26631   */\n      tag_357\n      jump\t// in\n    tag_630:\n        /* \"#utility.yul\":26641:26714   */\n      tag_631\n        /* \"#utility.yul\":26709:26712   */\n      0xa0\n        /* \"#utility.yul\":26698:26707   */\n      dup4\n        /* \"#utility.yul\":26694:26713   */\n      add\n        /* \"#utility.yul\":26685:26691   */\n      dup5\n        /* \"#utility.yul\":26641:26714   */\n      tag_289\n      jump\t// in\n    tag_631:\n        /* \"#utility.yul\":25829:26721   */\n      swap8\n      swap7\n      pop\n      pop\n      pop\n      pop\n      pop\n      pop\n      pop\n      jump\t// out\n        /* \"#utility.yul\":26727:27231   */\n    tag_51:\n        /* \"#utility.yul\":26810:26816   */\n      0x00\n        /* \"#utility.yul\":26818:26824   */\n      0x00\n        /* \"#utility.yul\":26867:26869   */\n      0x40\n        /* \"#utility.yul\":26855:26864   */\n      dup4\n        /* \"#utility.yul\":26846:26853   */\n      dup6\n        /* \"#utility.yul\":26842:26865   */\n      sub\n        /* \"#utility.yul\":26838:26870   */\n      slt\n        /* \"#utility.yul\":26835:26954   */\n      iszero\n      tag_633\n      jumpi\n        /* \"#utility.yul\":26873:26952   */\n      tag_634\n      tag_291\n      jump\t// in\n    tag_634:\n        /* \"#utility.yul\":26835:26954   */\n    tag_633:\n        /* \"#utility.yul\":26993:26994   */\n      0x00\n        /* \"#utility.yul\":27018:27071   */\n      tag_635\n        /* \"#utility.yul\":27063:27070   */\n      dup6\n        /* \"#utility.yul\":27054:27060   */\n      dup3\n        /* \"#utility.yul\":27043:27052   */\n      dup7\n        /* \"#utility.yul\":27039:27061   */\n      add\n        /* \"#utility.yul\":27018:27071   */\n      tag_318\n      jump\t// in\n    tag_635:\n        /* \"#utility.yul\":27008:27071   */\n      swap3\n      pop\n        /* \"#utility.yul\":26964:27081   */\n      pop\n        /* \"#utility.yul\":27120:27122   */\n      0x20\n        /* \"#utility.yul\":27146:27214   */\n      tag_636\n        /* \"#utility.yul\":27206:27213   */\n      dup6\n        /* \"#utility.yul\":27197:27203   */\n      dup3\n        /* \"#utility.yul\":27186:27195   */\n      dup7\n        /* \"#utility.yul\":27182:27204   */\n      add\n        /* \"#utility.yul\":27146:27214   */\n      tag_346\n      jump\t// in\n    tag_636:\n        /* \"#utility.yul\":27136:27214   */\n      swap2\n      pop\n        /* \"#utility.yul\":27091:27224   */\n      pop\n        /* \"#utility.yul\":26727:27231   */\n      swap3\n      pop\n      swap3\n      swap1\n      pop\n      jump\t// out\n        /* \"#utility.yul\":27237:27460   */\n    tag_358:\n        /* \"#utility.yul\":27377:27411   */\n      0x4f72646572206d75737420636f6e7461696e206174206c65617374206f6e6520\n        /* \"#utility.yul\":27373:27374   */\n      0x00\n        /* \"#utility.yul\":27365:27371   */\n      dup3\n        /* \"#utility.yul\":27361:27375   */\n      add\n        /* \"#utility.yul\":27354:27412   */\n      mstore\n        /* \"#utility.yul\":27446:27452   */\n      0x6974656d00000000000000000000000000000000000000000000000000000000\n        /* \"#utility.yul\":27441:27443   */\n      0x20\n        /* \"#utility.yul\":27433:27439   */\n      dup3\n        /* \"#utility.yul\":27429:27444   */\n      add\n        /* \"#utility.yul\":27422:27453   */\n      mstore\n        /* \"#utility.yul\":27237:27460   */\n      pop\n      jump\t// out\n        /* \"#utility.yul\":27466:27832   */\n    tag_359:\n        /* \"#utility.yul\":27608:27611   */\n      0x00\n        /* \"#utility.yul\":27629:27696   */\n      tag_639\n        /* \"#utility.yul\":27693:27695   */\n      0x24\n        /* \"#utility.yul\":27688:27691   */\n      dup4\n        /* \"#utility.yul\":27629:27696   */\n      tag_355\n      jump\t// in\n    tag_639:\n        /* \"#utility.yul\":27622:27696   */\n      swap2\n      pop\n        /* \"#utility.yul\":27705:27798   */\n      tag_640\n        /* \"#utility.yul\":27794:27797   */\n      dup3\n        /* \"#utility.yul\":27705:27798   */\n      tag_358\n      jump\t// in\n    tag_640:\n        /* \"#utility.yul\":27823:27825   */\n      0x40\n        /* \"#utility.yul\":27818:27821   */\n      dup3\n        /* \"#utility.yul\":27814:27826   */\n      add\n        /* \"#utility.yul\":27807:27826   */\n      swap1\n      pop\n        /* \"#utility.yul\":27466:27832   */\n      swap2\n      swap1\n      pop\n      jump\t// out\n        /* \"#utility.yul\":27838:28257   */\n    tag_61:\n        /* \"#utility.yul\":28004:28008   */\n      0x00\n        /* \"#utility.yul\":28042:28044   */\n      0x20\n        /* \"#utility.yul\":28031:28040   */\n      dup3\n        /* \"#utility.yul\":28027:28045   */\n      add\n        /* \"#utility.yul\":28019:28045   */\n      swap1\n      pop\n        /* \"#utility.yul\":28091:28100   */\n      dup2\n        /* \"#utility.yul\":28085:28089   */\n      dup2\n        /* \"#utility.yul\":28081:28101   */\n      sub\n        /* \"#utility.yul\":28077:28078   */\n      0x00\n        /* \"#utility.yul\":28066:28075   */\n      dup4\n        /* \"#utility.yul\":28062:28079   */\n      add\n        /* \"#utility.yul\":28055:28102   */\n      mstore\n        /* \"#utility.yul\":28119:28250   */\n      tag_642\n        /* \"#utility.yul\":28245:28249   */\n      dup2\n        /* \"#utility.yul\":28119:28250   */\n      tag_359\n      jump\t// in\n    tag_642:\n        /* \"#utility.yul\":28111:28250   */\n      swap1\n      pop\n        /* \"#utility.yul\":27838:28257   */\n      swap2\n      swap1\n      pop\n      jump\t// out\n        /* \"#utility.yul\":28263:28443   */\n    tag_74:\n        /* \"#utility.yul\":28311:28388   */\n      0x4e487b7100000000000000000000000000000000000000000000000000000000\n        /* \"#utility.yul\":28308:28309   */\n      0x00\n        /* \"#utility.yul\":28301:28389   */\n      mstore\n        /* \"#utility.yul\":28408:28412   */\n      0x32\n        /* \"#utility.yul\":28405:28406   */\n      0x04\n        /* \"#utility.yul\":28398:28413   */\n      mstore\n        /* \"#utility.yul\":28432:28436   */\n      0x24\n        /* \"#utility.yul\":28429:28430   */\n      0x00\n        /* \"#utility.yul\":28422:28437   */\n      revert\n        /* \"#utility.yul\":28449:28629   */\n    tag_360:\n        /* \"#utility.yul\":28497:28574   */\n      0x4e487b7100000000000000000000000000000000000000000000000000000000\n        /* \"#utility.yul\":28494:28495   */\n      0x00\n        /* \"#utility.yul\":28487:28575   */\n      mstore\n        /* \"#utility.yul\":28594:28598   */\n      0x11\n        /* \"#utility.yul\":28591:28592   */\n      0x04\n        /* \"#utility.yul\":28584:28599   */\n      mstore\n        /* \"#utility.yul\":28618:28622   */\n      0x24\n        /* \"#utility.yul\":28615:28616   */\n      0x00\n        /* \"#utility.yul\":28608:28623   */\n      revert\n        /* \"#utility.yul\":28635:29045   */\n    tag_78:\n        /* \"#utility.yul\":28675:28682   */\n      0x00\n        /* \"#utility.yul\":28698:28718   */\n      tag_646\n        /* \"#utility.yul\":28716:28717   */\n      dup3\n        /* \"#utility.yul\":28698:28718   */\n      tag_288\n      jump\t// in\n    tag_646:\n        /* \"#utility.yul\":28693:28718   */\n      swap2\n      pop\n        /* \"#utility.yul\":28732:28752   */\n      tag_647\n        /* \"#utility.yul\":28750:28751   */\n      dup4\n        /* \"#utility.yul\":28732:28752   */\n      tag_288\n      jump\t// in\n    tag_647:\n        /* \"#utility.yul\":28727:28752   */\n      swap3\n      pop\n        /* \"#utility.yul\":28787:28788   */\n      dup3\n        /* \"#utility.yul\":28784:28785   */\n      dup3\n        /* \"#utility.yul\":28780:28789   */\n      mul\n        /* \"#utility.yul\":28809:28839   */\n      tag_648\n        /* \"#utility.yul\":28827:28838   */\n      dup2\n        /* \"#utility.yul\":28809:28839   */\n      tag_288\n      jump\t// in\n    tag_648:\n        /* \"#utility.yul\":28798:28839   */\n      swap2\n      pop\n        /* \"#utility.yul\":28988:28989   */\n      dup3\n        /* \"#utility.yul\":28979:28986   */\n      dup3\n        /* \"#utility.yul\":28975:28990   */\n      div\n        /* \"#utility.yul\":28972:28973   */\n      dup5\n        /* \"#utility.yul\":28969:28991   */\n      eq\n        /* \"#utility.yul\":28949:28950   */\n      dup4\n        /* \"#utility.yul\":28942:28951   */\n      iszero\n        /* \"#utility.yul\":28922:29005   */\n      or\n        /* \"#utility.yul\":28899:29038   */\n      tag_649\n      jumpi\n        /* \"#utility.yul\":29018:29036   */\n      tag_650\n      tag_360\n      jump\t// in\n    tag_650:\n        /* \"#utility.yul\":28899:29038   */\n    tag_649:\n        /* \"#utility.yul\":28683:29045   */\n      pop\n        /* \"#utility.yul\":28635:29045   */\n      swap3\n      swap2\n      pop\n      pop\n      jump\t// out\n        /* \"#utility.yul\":29051:29242   */\n    tag_80:\n        /* \"#utility.yul\":29091:29094   */\n      0x00\n        /* \"#utility.yul\":29110:29130   */\n      tag_652\n        /* \"#utility.yul\":29128:29129   */\n      dup3\n        /* \"#utility.yul\":29110:29130   */\n      tag_288\n      jump\t// in\n    tag_652:\n        /* \"#utility.yul\":29105:29130   */\n      swap2\n      pop\n        /* \"#utility.yul\":29144:29164   */\n      tag_653\n        /* \"#utility.yul\":29162:29163   */\n      dup4\n        /* \"#utility.yul\":29144:29164   */\n      tag_288\n      jump\t// in\n    tag_653:\n        /* \"#utility.yul\":29139:29164   */\n      swap3\n      pop\n        /* \"#utility.yul\":29187:29188   */\n      dup3\n        /* \"#utility.yul\":29184:29185   */\n      dup3\n        /* \"#utility.yul\":29180:29189   */\n      add\n        /* \"#utility.yul\":29173:29189   */\n      swap1\n      pop\n        /* \"#utility.yul\":29208:29211   */\n      dup1\n        /* \"#utility.yul\":29205:29206   */\n      dup3\n        /* \"#utility.yul\":29202:29212   */\n      gt\n        /* \"#utility.yul\":29199:29235   */\n      iszero\n      tag_654\n      jumpi\n        /* \"#utility.yul\":29215:29233   */\n      tag_655\n      tag_360\n      jump\t// in\n    tag_655:\n        /* \"#utility.yul\":29199:29235   */\n    tag_654:\n        /* \"#utility.yul\":29051:29242   */\n      swap3\n      swap2\n      pop\n      pop\n      jump\t// out\n        /* \"#utility.yul\":29248:29481   */\n    tag_82:\n        /* \"#utility.yul\":29287:29290   */\n      0x00\n        /* \"#utility.yul\":29310:29334   */\n      tag_657\n        /* \"#utility.yul\":29328:29333   */\n      dup3\n        /* \"#utility.yul\":29310:29334   */\n      tag_288\n      jump\t// in\n    tag_657:\n        /* \"#utility.yul\":29301:29334   */\n      swap2\n      pop\n        /* \"#utility.yul\":29356:29422   */\n      0xffffffffffffffffffffffffffffffffffffffffffffffffffffffffffffffff\n        /* \"#utility.yul\":29349:29354   */\n      dup3\n        /* \"#utility.yul\":29346:29423   */\n      sub\n        /* \"#utility.yul\":29343:29446   */\n      tag_658\n      jumpi\n        /* \"#utility.yul\":29426:29444   */\n      tag_659\n      tag_360\n      jump\t// in\n    tag_659:\n        /* \"#utility.yul\":29343:29446   */\n    tag_658:\n        /* \"#utility.yul\":29473:29474   */\n      0x01\n        /* \"#utility.yul\":29466:29471   */\n      dup3\n        /* \"#utility.yul\":29462:29475   */\n      add\n        /* \"#utility.yul\":29455:29475   */\n      swap1\n      pop\n        /* \"#utility.yul\":29248:29481   */\n      swap2\n      swap1\n      pop\n      jump\t// out\n        /* \"#utility.yul\":29487:29667   */\n    tag_361:\n        /* \"#utility.yul\":29535:29612   */\n      0x4e487b7100000000000000000000000000000000000000000000000000000000\n        /* \"#utility.yul\":29532:29533   */\n      0x00\n        /* \"#utility.yul\":29525:29613   */\n      mstore\n        /* \"#utility.yul\":29632:29636   */\n      0x22\n        /* \"#utility.yul\":29629:29630   */\n      0x04\n        /* \"#utility.yul\":29622:29637   */\n      mstore\n        /* \"#utility.yul\":29656:29660   */\n      0x24\n        /* \"#utility.yul\":29653:29654   */\n      0x00\n        /* \"#utility.yul\":29646:29661   */\n      revert\n        /* \"#utility.yul\":29673:29993   */\n    tag_120:\n        /* \"#utility.yul\":29717:29723   */\n      0x00\n        /* \"#utility.yul\":29754:29755   */\n      0x02\n        /* \"#utility.yul\":29748:29752   */\n      dup3\n        /* \"#utility.yul\":29744:29756   */\n      div\n        /* \"#utility.yul\":29734:29756   */\n      swap1\n      pop\n        /* \"#utility.yul\":29801:29802   */\n      0x01\n        /* \"#utility.yul\":29795:29799   */\n      dup3\n        /* \"#utility.yul\":29791:29803   */\n      and\n        /* \"#utility.yul\":29822:29840   */\n      dup1\n        /* \"#utility.yul\":29812:29893   */\n      tag_662\n      jumpi\n        /* \"#utility.yul\":29878:29882   */\n      0x7f\n        /* \"#utility.yul\":29870:29876   */\n      dup3\n        /* \"#utility.yul\":29866:29883   */\n      and\n        /* \"#utility.yul\":29856:29883   */\n      swap2\n      pop\n        /* \"#utility.yul\":29812:29893   */\n    tag_662:\n        /* \"#utility.yul\":29940:29942   */\n      0x20\n        /* \"#utility.yul\":29932:29938   */\n      dup3\n        /* \"#utility.yul\":29929:29943   */\n      lt\n        /* \"#utility.yul\":29909:29927   */\n      dup2\n        /* \"#utility.yul\":29906:29944   */\n      sub\n        /* \"#utility.yul\":29903:29987   */\n      tag_663\n      jumpi\n        /* \"#utility.yul\":29959:29977   */\n      tag_664\n      tag_361\n      jump\t// in\n    tag_664:\n        /* \"#utility.yul\":29903:29987   */\n    tag_663:\n        /* \"#utility.yul\":29724:29993   */\n      pop\n        /* \"#utility.yul\":29673:29993   */\n      swap2\n      swap1\n      pop\n      jump\t// out\n        /* \"#utility.yul\":29999:30140   */\n    tag_362:\n        /* \"#utility.yul\":30048:30052   */\n      0x00\n        /* \"#utility.yul\":30071:30074   */\n      dup2\n        /* \"#utility.yul\":30063:30074   */\n      swap1\n      pop\n        /* \"#utility.yul\":30094:30097   */\n      dup2\n        /* \"#utility.yul\":30091:30092   */\n      0x00\n        /* \"#utility.yul\":30084:30098   */\n      mstore\n        /* \"#utility.yul\":30128:30132   */\n      0x20\n        /* \"#utility.yul\":30125:30126   */\n      0x00\n        /* \"#utility.yul\":30115:30133   */\n      keccak256\n        /* \"#utility.yul\":30107:30133   */\n      swap1\n      pop\n        /* \"#utility.yul\":29999:30140   */\n      swap2\n      swap1\n      pop\n      jump\t// out\n        /* \"#utility.yul\":30146:30239   */\n    tag_363:\n        /* \"#utility.yul\":30183:30189   */\n      0x00\n        /* \"#utility.yul\":30230:30232   */\n      0x20\n        /* \"#utility.yul\":30225:30227   */\n      0x1f\n        /* \"#utility.yul\":30218:30223   */\n      dup4\n        /* \"#utility.yul\":30214:30228   */\n      add\n        /* \"#utility.yul\":30210:30233   */\n      div\n        /* \"#utility.yul\":30200:30233   */\n      swap1\n      pop\n        /* \"#utility.yul\":30146:30239   */\n      swap2\n      swap1\n      pop\n      jump\t// out\n        /* \"#utility.yul\":30245:30352   */\n    tag_364:\n        /* \"#utility.yul\":30289:30297   */\n      0x00\n        /* \"#utility.yul\":30339:30344   */\n      dup3\n        /* \"#utility.yul\":30333:30337   */\n      dup3\n        /* \"#utility.yul\":30329:30345   */\n      shl\n        /* \"#utility.yul\":30308:30345   */\n      swap1\n      pop\n        /* \"#utility.yul\":30245:30352   */\n      swap3\n      swap2\n      pop\n      pop\n      jump\t// out\n        /* \"#utility.yul\":30358:30751   */\n    tag_365:\n        /* \"#utility.yul\":30427:30433   */\n      0x00\n        /* \"#utility.yul\":30477:30478   */\n      0x08\n        /* \"#utility.yul\":30465:30475   */\n      dup4\n        /* \"#utility.yul\":30461:30479   */\n      mul\n        /* \"#utility.yul\":30500:30597   */\n      tag_669\n        /* \"#utility.yul\":30530:30596   */\n      0xffffffffffffffffffffffffffffffffffffffffffffffffffffffffffffffff\n        /* \"#utility.yul\":30519:30528   */\n      dup3\n        /* \"#utility.yul\":30500:30597   */\n      tag_364\n      jump\t// in\n    tag_669:\n        /* \"#utility.yul\":30618:30657   */\n      tag_670\n        /* \"#utility.yul\":30648:30656   */\n      dup7\n        /* \"#utility.yul\":30637:30646   */\n      dup4\n        /* \"#utility.yul\":30618:30657   */\n      tag_364\n      jump\t// in\n    tag_670:\n        /* \"#utility.yul\":30606:30657   */\n      swap6\n      pop\n        /* \"#utility.yul\":30690:30694   */\n      dup1\n        /* \"#utility.yul\":30686:30695   */\n      not\n        /* \"#utility.yul\":30679:30684   */\n      dup5\n        /* \"#utility.yul\":30675:30696   */\n      and\n        /* \"#utility.yul\":30666:30696   */\n      swap4\n      pop\n        /* \"#utility.yul\":30739:30743   */\n      dup1\n        /* \"#utility.yul\":30729:30737   */\n      dup7\n        /* \"#utility.yul\":30725:30744   */\n      and\n        /* \"#utility.yul\":30718:30723   */\n      dup5\n        /* \"#utility.yul\":30715:30745   */\n      or\n        /* \"#utility.yul\":30705:30745   */\n      swap3\n      pop\n        /* \"#utility.yul\":30434:30751   */\n      pop\n      pop\n        /* \"#utility.yul\":30358:30751   */\n      swap4\n      swap3\n      pop\n      pop\n      pop\n      jump\t// out\n        /* \"#utility.yul\":30757:30817   */\n    tag_366:\n        /* \"#utility.yul\":30785:30788   */\n      0x00\n        /* \"#utility.yul\":30806:30811   */\n      dup2\n        /* \"#utility.yul\":30799:30811   */\n      swap1\n      pop\n        /* \"#utility.yul\":30757:30817   */\n      swap2\n      swap1\n      pop\n      jump\t// out\n        /* \"#utility.yul\":30823:30965   */\n    tag_367:\n        /* \"#utility.yul\":30873:30882   */\n      0x00\n        /* \"#utility.yul\":30906:30959   */\n      tag_673\n        /* \"#utility.yul\":30924:30958   */\n      tag_674\n        /* \"#utility.yul\":30933:30957   */\n      tag_675\n        /* \"#utility.yul\":30951:30956   */\n      dup5\n        /* \"#utility.yul\":30933:30957   */\n      tag_288\n      jump\t// in\n    tag_675:\n        /* \"#utility.yul\":30924:30958   */\n      tag_366\n      jump\t// in\n    tag_674:\n        /* \"#utility.yul\":30906:30959   */\n      tag_288\n      jump\t// in\n    tag_673:\n        /* \"#utility.yul\":30893:30959   */\n      swap1\n      pop\n        /* \"#utility.yul\":30823:30965   */\n      swap2\n      swap1\n      pop\n      jump\t// out\n        /* \"#utility.yul\":30971:31046   */\n    tag_368:\n        /* \"#utility.yul\":31014:31017   */\n      0x00\n        /* \"#utility.yul\":31035:31040   */\n      dup2\n        /* \"#utility.yul\":31028:31040   */\n      swap1\n      pop\n        /* \"#utility.yul\":30971:31046   */\n      swap2\n      swap1\n      pop\n      jump\t// out\n        /* \"#utility.yul\":31052:31321   */\n    tag_369:\n        /* \"#utility.yul\":31162:31201   */\n      tag_678\n        /* \"#utility.yul\":31193:31200   */\n      dup4\n        /* \"#utility.yul\":31162:31201   */\n      tag_367\n      jump\t// in\n    tag_678:\n        /* \"#utility.yul\":31223:31314   */\n      tag_679\n        /* \"#utility.yul\":31272:31313   */\n      tag_680\n        /* \"#utility.yul\":31296:31312   */\n      dup3\n        /* \"#utility.yul\":31272:31313   */\n      tag_368\n      jump\t// in\n    tag_680:\n        /* \"#utility.yul\":31264:31270   */\n      dup5\n        /* \"#utility.yul\":31257:31261   */\n      dup5\n        /* \"#utility.yul\":31251:31262   */\n      sload\n        /* \"#utility.yul\":31223:31314   */\n      tag_365\n      jump\t// in\n    tag_679:\n        /* \"#utility.yul\":31217:31221   */\n      dup3\n        /* \"#utility.yul\":31210:31315   */\n      sstore\n        /* \"#utility.yul\":31128:31321   */\n      pop\n        /* \"#utility.yul\":31052:31321   */\n      pop\n      pop\n      pop\n      jump\t// out\n        /* \"#utility.yul\":31327:31400   */\n    tag_370:\n        /* \"#utility.yul\":31372:31375   */\n      0x00\n        /* \"#utility.yul\":31393:31394   */\n      0x00\n        /* \"#utility.yul\":31386:31394   */\n      swap1\n      pop\n        /* \"#utility.yul\":31327:31400   */\n      swap1\n      jump\t// out\n        /* \"#utility.yul\":31406:31595   */\n    tag_371:\n        /* \"#utility.yul\":31483:31515   */\n      tag_683\n      tag_370\n      jump\t// in\n    tag_683:\n        /* \"#utility.yul\":31524:31589   */\n      tag_684\n        /* \"#utility.yul\":31582:31588   */\n      dup2\n        /* \"#utility.yul\":31574:31580   */\n      dup5\n        /* \"#utility.yul\":31568:31572   */\n      dup5\n        /* \"#utility.yul\":31524:31589   */\n      tag_369\n      jump\t// in\n    tag_684:\n        /* \"#utility.yul\":31459:31595   */\n      pop\n        /* \"#utility.yul\":31406:31595   */\n      pop\n      pop\n      jump\t// out\n        /* \"#utility.yul\":31601:31787   */\n    tag_372:\n        /* \"#utility.yul\":31661:31781   */\n    tag_686:\n        /* \"#utility.yul\":31678:31681   */\n      dup2\n        /* \"#utility.yul\":31671:31676   */\n      dup2\n        /* \"#utility.yul\":31668:31682   */\n      lt\n        /* \"#utility.yul\":31661:31781   */\n      iszero\n      tag_688\n      jumpi\n        /* \"#utility.yul\":31732:31771   */\n      tag_689\n        /* \"#utility.yul\":31769:31770   */\n      0x00\n        /* \"#utility.yul\":31762:31767   */\n      dup3\n        /* \"#utility.yul\":31732:31771   */\n      tag_371\n      jump\t// in\n    tag_689:\n        /* \"#utility.yul\":31705:31706   */\n      0x01\n        /* \"#utility.yul\":31698:31703   */\n      dup2\n        /* \"#utility.yul\":31694:31707   */\n      add\n        /* \"#utility.yul\":31685:31707   */\n      swap1\n      pop\n        /* \"#utility.yul\":31661:31781   */\n      jump(tag_686)\n    tag_688:\n        /* \"#utility.yul\":31601:31787   */\n      pop\n      pop\n      jump\t// out\n        /* \"#utility.yul\":31793:32336   */\n    tag_373:\n        /* \"#utility.yul\":31894:31896   */\n      0x1f\n        /* \"#utility.yul\":31889:31892   */\n      dup3\n        /* \"#utility.yul\":31886:31897   */\n      gt\n        /* \"#utility.yul\":31883:32329   */\n      iszero\n      tag_691\n      jumpi\n        /* \"#utility.yul\":31928:31966   */\n      tag_692\n        /* \"#utility.yul\":31960:31965   */\n      dup2\n        /* \"#utility.yul\":31928:31966   */\n      tag_362\n      jump\t// in\n    tag_692:\n        /* \"#utility.yul\":32012:32041   */\n      tag_693\n        /* \"#utility.yul\":32030:32040   */\n      dup5\n        /* \"#utility.yul\":32012:32041   */\n      tag_363\n      jump\t// in\n    tag_693:\n        /* \"#utility.yul\":32002:32010   */\n      dup2\n        /* \"#utility.yul\":31998:32042   */\n      add\n        /* \"#utility.yul\":32195:32197   */\n      0x20\n        /* \"#utility.yul\":32183:32193   */\n      dup6\n        /* \"#utility.yul\":32180:32198   */\n      lt\n        /* \"#utility.yul\":32177:32226   */\n      iszero\n      tag_694\n      jumpi\n        /* \"#utility.yul\":32216:32224   */\n      dup2\n        /* \"#utility.yul\":32201:32224   */\n      swap1\n      pop\n        /* \"#utility.yul\":32177:32226   */\n    tag_694:\n        /* \"#utility.yul\":32239:32319   */\n      tag_695\n        /* \"#utility.yul\":32295:32317   */\n      tag_696\n        /* \"#utility.yul\":32313:32316   */\n      dup6\n        /* \"#utility.yul\":32295:32317   */\n      tag_363\n      jump\t// in\n    tag_696:\n        /* \"#utility.yul\":32285:32293   */\n      dup4\n        /* \"#utility.yul\":32281:32318   */\n      add\n        /* \"#utility.yul\":32268:32279   */\n      dup3\n        /* \"#utility.yul\":32239:32319   */\n      tag_372\n      jump\t// in\n    tag_695:\n        /* \"#utility.yul\":31898:32329   */\n      pop\n      pop\n        /* \"#utility.yul\":31883:32329   */\n    tag_691:\n        /* \"#utility.yul\":31793:32336   */\n      pop\n      pop\n      pop\n      jump\t// out\n        /* \"#utility.yul\":32342:32459   */\n    tag_374:\n        /* \"#utility.yul\":32396:32404   */\n      0x00\n        /* \"#utility.yul\":32446:32451   */\n      dup3\n        /* \"#utility.yul\":32440:32444   */\n      dup3\n        /* \"#utility.yul\":32436:32452   */\n      shr\n        /* \"#utility.yul\":32415:32452   */\n      swap1\n      pop\n        /* \"#utility.yul\":32342:32459   */\n      swap3\n      swap2\n      pop\n      pop\n      jump\t// out\n        /* \"#utility.yul\":32465:32634   */\n    tag_375:\n        /* \"#utility.yul\":32509:32515   */\n      0x00\n        /* \"#utility.yul\":32542:32593   */\n      tag_699\n        /* \"#utility.yul\":32590:32591   */\n      0x00\n        /* \"#utility.yul\":32586:32592   */\n      not\n        /* \"#utility.yul\":32578:32583   */\n      dup5\n        /* \"#utility.yul\":32575:32576   */\n      0x08\n        /* \"#utility.yul\":32571:32584   */\n      mul\n        /* \"#utility.yul\":32542:32593   */\n      tag_374\n      jump\t// in\n    tag_699:\n        /* \"#utility.yul\":32538:32594   */\n      not\n        /* \"#utility.yul\":32623:32627   */\n      dup1\n        /* \"#utility.yul\":32617:32621   */\n      dup4\n        /* \"#utility.yul\":32613:32628   */\n      and\n        /* \"#utility.yul\":32603:32628   */\n      swap2\n      pop\n        /* \"#utility.yul\":32516:32634   */\n      pop\n        /* \"#utility.yul\":32465:32634   */\n      swap3\n      swap2\n      pop\n      pop\n      jump\t// out\n        /* \"#utility.yul\":32639:32934   */\n    tag_376:\n        /* \"#utility.yul\":32715:32719   */\n      0x00\n        /* \"#utility.yul\":32861:32890   */\n      tag_701\n        /* \"#utility.yul\":32886:32889   */\n      dup4\n        /* \"#utility.yul\":32880:32884   */\n      dup4\n        /* \"#utility.yul\":32861:32890   */\n      tag_375\n      jump\t// in\n    tag_701:\n        /* \"#utility.yul\":32853:32890   */\n      swap2\n      pop\n        /* \"#utility.yul\":32923:32926   */\n      dup3\n        /* \"#utility.yul\":32920:32921   */\n      0x02\n        /* \"#utility.yul\":32916:32927   */\n      mul\n        /* \"#utility.yul\":32910:32914   */\n      dup3\n        /* \"#utility.yul\":32907:32928   */\n      or\n        /* \"#utility.yul\":32899:32928   */\n      swap1\n      pop\n        /* \"#utility.yul\":32639:32934   */\n      swap3\n      swap2\n      pop\n      pop\n      jump\t// out\n        /* \"#utility.yul\":32939:34334   */\n    tag_98:\n        /* \"#utility.yul\":33056:33093   */\n      tag_703\n        /* \"#utility.yul\":33089:33092   */\n      dup3\n        /* \"#utility.yul\":33056:33093   */\n      tag_323\n      jump\t// in\n    tag_703:\n        /* \"#utility.yul\":33158:33176   */\n      0xffffffffffffffff\n        /* \"#utility.yul\":33150:33156   */\n      dup2\n        /* \"#utility.yul\":33147:33177   */\n      gt\n        /* \"#utility.yul\":33144:33200   */\n      iszero\n      tag_704\n      jumpi\n        /* \"#utility.yul\":33180:33198   */\n      tag_705\n      tag_64\n      jump\t// in\n    tag_705:\n        /* \"#utility.yul\":33144:33200   */\n    tag_704:\n        /* \"#utility.yul\":33224:33262   */\n      tag_706\n        /* \"#utility.yul\":33256:33260   */\n      dup3\n        /* \"#utility.yul\":33250:33261   */\n      sload\n        /* \"#utility.yul\":33224:33262   */\n      tag_120\n      jump\t// in\n    tag_706:\n        /* \"#utility.yul\":33309:33376   */\n      tag_707\n        /* \"#utility.yul\":33369:33375   */\n      dup3\n        /* \"#utility.yul\":33361:33367   */\n      dup3\n        /* \"#utility.yul\":33355:33359   */\n      dup6\n        /* \"#utility.yul\":33309:33376   */\n      tag_373\n      jump\t// in\n    tag_707:\n        /* \"#utility.yul\":33403:33404   */\n      0x00\n        /* \"#utility.yul\":33427:33431   */\n      0x20\n        /* \"#utility.yul\":33414:33431   */\n      swap1\n      pop\n        /* \"#utility.yul\":33459:33461   */\n      0x1f\n        /* \"#utility.yul\":33451:33457   */\n      dup4\n        /* \"#utility.yul\":33448:33462   */\n      gt\n        /* \"#utility.yul\":33476:33477   */\n      0x01\n        /* \"#utility.yul\":33471:34089   */\n      dup2\n      eq\n      tag_709\n      jumpi\n        /* \"#utility.yul\":34133:34134   */\n      0x00\n        /* \"#utility.yul\":34150:34156   */\n      dup5\n        /* \"#utility.yul\":34147:34224   */\n      iszero\n      tag_710\n      jumpi\n        /* \"#utility.yul\":34199:34208   */\n      dup3\n        /* \"#utility.yul\":34194:34197   */\n      dup8\n        /* \"#utility.yul\":34190:34209   */\n      add\n        /* \"#utility.yul\":34184:34210   */\n      mload\n        /* \"#utility.yul\":34175:34210   */\n      swap1\n      pop\n        /* \"#utility.yul\":34147:34224   */\n    tag_710:\n        /* \"#utility.yul\":34250:34317   */\n      tag_711\n        /* \"#utility.yul\":34310:34316   */\n      dup6\n        /* \"#utility.yul\":34303:34308   */\n      dup3\n        /* \"#utility.yul\":34250:34317   */\n      tag_376\n      jump\t// in\n    tag_711:\n        /* \"#utility.yul\":34244:34248   */\n      dup7\n        /* \"#utility.yul\":34237:34318   */\n      sstore\n        /* \"#utility.yul\":34106:34328   */\n      pop\n        /* \"#utility.yul\":33441:34328   */\n      jump(tag_708)\n        /* \"#utility.yul\":33471:34089   */\n    tag_709:\n        /* \"#utility.yul\":33523:33527   */\n      0x1f\n        /* \"#utility.yul\":33519:33528   */\n      not\n        /* \"#utility.yul\":33511:33517   */\n      dup5\n        /* \"#utility.yul\":33507:33529   */\n      and\n        /* \"#utility.yul\":33557:33594   */\n      tag_712\n        /* \"#utility.yul\":33589:33593   */\n      dup7\n        /* \"#utility.yul\":33557:33594   */\n      tag_362\n      jump\t// in\n    tag_712:\n        /* \"#utility.yul\":33616:33617   */\n      0x00\n        /* \"#utility.yul\":33630:33838   */\n    tag_713:\n        /* \"#utility.yul\":33644:33651   */\n      dup3\n        /* \"#utility.yul\":33641:33642   */\n      dup2\n        /* \"#utility.yul\":33638:33652   */\n      lt\n        /* \"#utility.yul\":33630:33838   */\n      iszero\n      tag_715\n      jumpi\n        /* \"#utility.yul\":33723:33732   */\n      dup5\n        /* \"#utility.yul\":33718:33721   */\n      dup10\n        /* \"#utility.yul\":33714:33733   */\n      add\n        /* \"#utility.yul\":33708:33734   */\n      mload\n        /* \"#utility.yul\":33700:33706   */\n      dup3\n        /* \"#utility.yul\":33693:33735   */\n      sstore\n        /* \"#utility.yul\":33774:33775   */\n      0x01\n        /* \"#utility.yul\":33766:33772   */\n      dup3\n        /* \"#utility.yul\":33762:33776   */\n      add\n        /* \"#utility.yul\":33752:33776   */\n      swap2\n      pop\n        /* \"#utility.yul\":33821:33823   */\n      0x20\n        /* \"#utility.yul\":33810:33819   */\n      dup6\n        /* \"#utility.yul\":33806:33824   */\n      add\n        /* \"#utility.yul\":33793:33824   */\n      swap5\n      pop\n        /* \"#utility.yul\":33667:33671   */\n      0x20\n        /* \"#utility.yul\":33664:33665   */\n      dup2\n        /* \"#utility.yul\":33660:33672   */\n      add\n        /* \"#utility.yul\":33655:33672   */\n      swap1\n      pop\n        /* \"#utility.yul\":33630:33838   */\n      jump(tag_713)\n    tag_715:\n        /* \"#utility.yul\":33866:33872   */\n      dup7\n        /* \"#utility.yul\":33857:33864   */\n      dup4\n        /* \"#utility.yul\":33854:33873   */\n      lt\n        /* \"#utility.yul\":33851:34030   */\n      iszero\n      tag_716\n      jumpi\n        /* \"#utility.yul\":33924:33933   */\n      dup5\n        /* \"#utility.yul\":33919:33922   */\n      dup10\n        /* \"#utility.yul\":33915:33934   */\n      add\n        /* \"#utility.yul\":33909:33935   */\n      mload\n        /* \"#utility.yul\":33967:34015   */\n      tag_717\n        /* \"#utility.yul\":34009:34013   */\n      0x1f\n        /* \"#utility.yul\":34001:34007   */\n      dup10\n        /* \"#utility.yul\":33997:34014   */\n      and\n        /* \"#utility.yul\":33986:33995   */\n      dup3\n        /* \"#utility.yul\":33967:34015   */\n      tag_375\n      jump\t// in\n    tag_717:\n        /* \"#utility.yul\":33959:33965   */\n      dup4\n        /* \"#utility.yul\":33952:34016   */\n      sstore\n        /* \"#utility.yul\":33874:34030   */\n      pop\n        /* \"#utility.yul\":33851:34030   */\n    tag_716:\n        /* \"#utility.yul\":34076:34077   */\n      0x01\n        /* \"#utility.yul\":34072:34073   */\n      0x02\n        /* \"#utility.yul\":34064:34070   */\n      dup9\n        /* \"#utility.yul\":34060:34074   */\n      mul\n        /* \"#utility.yul\":34056:34078   */\n      add\n        /* \"#utility.yul\":34050:34054   */\n      dup9\n        /* \"#utility.yul\":34043:34079   */\n      sstore\n        /* \"#utility.yul\":33478:34089   */\n      pop\n      pop\n      pop\n        /* \"#utility.yul\":33441:34328   */\n    tag_708:\n      pop\n        /* \"#utility.yul\":33031:34334   */\n      pop\n      pop\n      pop\n        /* \"#utility.yul\":32939:34334   */\n      pop\n      pop\n      jump\t// out\n        /* \"#utility.yul\":34340:34489   */\n    tag_377:\n        /* \"#utility.yul\":34389:34395   */\n      0x00\n        /* \"#utility.yul\":34423:34428   */\n      dup2\n        /* \"#utility.yul\":34417:34429   */\n      sload\n        /* \"#utility.yul\":34407:34429   */\n      swap1\n      pop\n        /* \"#utility.yul\":34449:34482   */\n      tag_719\n        /* \"#utility.yul\":34475:34481   */\n      dup2\n        /* \"#utility.yul\":34449:34482   */\n      tag_120\n      jump\t// in\n    tag_719:\n        /* \"#utility.yul\":34439:34482   */\n      swap1\n      pop\n        /* \"#utility.yul\":34340:34489   */\n      swap2\n      swap1\n      pop\n      jump\t// out\n        /* \"#utility.yul\":34495:35946   */\n    tag_111:\n        /* \"#utility.yul\":34606:34609   */\n      dup2\n        /* \"#utility.yul\":34600:34604   */\n      dup2\n        /* \"#utility.yul\":34597:34610   */\n      sub\n        /* \"#utility.yul\":34594:34620   */\n      tag_721\n      jumpi\n        /* \"#utility.yul\":34613:34618   */\n      pop\n      pop\n      jump(tag_720)\n        /* \"#utility.yul\":34594:34620   */\n    tag_721:\n        /* \"#utility.yul\":34644:34678   */\n      tag_722\n        /* \"#utility.yul\":34674:34677   */\n      dup3\n        /* \"#utility.yul\":34644:34678   */\n      tag_377\n      jump\t// in\n    tag_722:\n        /* \"#utility.yul\":34743:34761   */\n      0xffffffffffffffff\n        /* \"#utility.yul\":34735:34741   */\n      dup2\n        /* \"#utility.yul\":34732:34762   */\n      gt\n        /* \"#utility.yul\":34729:34785   */\n      iszero\n      tag_723\n      jumpi\n        /* \"#utility.yul\":34765:34783   */\n      tag_724\n      tag_64\n      jump\t// in\n    tag_724:\n        /* \"#utility.yul\":34729:34785   */\n    tag_723:\n        /* \"#utility.yul\":34809:34847   */\n      tag_725\n        /* \"#utility.yul\":34841:34845   */\n      dup3\n        /* \"#utility.yul\":34835:34846   */\n      sload\n        /* \"#utility.yul\":34809:34847   */\n      tag_120\n      jump\t// in\n    tag_725:\n        /* \"#utility.yul\":34894:34961   */\n      tag_726\n        /* \"#utility.yul\":34954:34960   */\n      dup3\n        /* \"#utility.yul\":34946:34952   */\n      dup3\n        /* \"#utility.yul\":34940:34944   */\n      dup6\n        /* \"#utility.yul\":34894:34961   */\n      tag_373\n      jump\t// in\n    tag_726:\n        /* \"#utility.yul\":34988:34989   */\n      0x00\n        /* \"#utility.yul\":35017:35019   */\n      0x1f\n        /* \"#utility.yul\":35009:35015   */\n      dup4\n        /* \"#utility.yul\":35006:35020   */\n      gt\n        /* \"#utility.yul\":35034:35035   */\n      0x01\n        /* \"#utility.yul\":35029:35701   */\n      dup2\n      eq\n      tag_728\n      jumpi\n        /* \"#utility.yul\":35745:35746   */\n      0x00\n        /* \"#utility.yul\":35762:35768   */\n      dup5\n        /* \"#utility.yul\":35759:35836   */\n      iszero\n      tag_729\n      jumpi\n        /* \"#utility.yul\":35811:35820   */\n      dup3\n        /* \"#utility.yul\":35806:35809   */\n      dup8\n        /* \"#utility.yul\":35802:35821   */\n      add\n        /* \"#utility.yul\":35796:35822   */\n      sload\n        /* \"#utility.yul\":35787:35822   */\n      swap1\n      pop\n        /* \"#utility.yul\":35759:35836   */\n    tag_729:\n        /* \"#utility.yul\":35862:35929   */\n      tag_730\n        /* \"#utility.yul\":35922:35928   */\n      dup6\n        /* \"#utility.yul\":35915:35920   */\n      dup3\n        /* \"#utility.yul\":35862:35929   */\n      tag_376\n      jump\t// in\n    tag_730:\n        /* \"#utility.yul\":35856:35860   */\n      dup7\n        /* \"#utility.yul\":35849:35930   */\n      sstore\n        /* \"#utility.yul\":35718:35940   */\n      pop\n        /* \"#utility.yul\":34999:35940   */\n      jump(tag_727)\n        /* \"#utility.yul\":35029:35701   */\n    tag_728:\n        /* \"#utility.yul\":35081:35085   */\n      0x1f\n        /* \"#utility.yul\":35077:35086   */\n      not\n        /* \"#utility.yul\":35069:35075   */\n      dup5\n        /* \"#utility.yul\":35065:35087   */\n      and\n        /* \"#utility.yul\":35107:35143   */\n      tag_731\n        /* \"#utility.yul\":35139:35142   */\n      dup8\n        /* \"#utility.yul\":35107:35143   */\n      tag_362\n      jump\t// in\n    tag_731:\n        /* \"#utility.yul\":35100:35143   */\n      swap7\n      pop\n        /* \"#utility.yul\":35170:35207   */\n      tag_732\n        /* \"#utility.yul\":35202:35206   */\n      dup7\n        /* \"#utility.yul\":35170:35207   */\n      tag_362\n      jump\t// in\n    tag_732:\n        /* \"#utility.yul\":35229:35230   */\n      0x00\n        /* \"#utility.yul\":35243:35450   */\n    tag_733:\n        /* \"#utility.yul\":35257:35264   */\n      dup3\n        /* \"#utility.yul\":35254:35255   */\n      dup2\n        /* \"#utility.yul\":35251:35265   */\n      lt\n        /* \"#utility.yul\":35243:35450   */\n      iszero\n      tag_735\n      jumpi\n        /* \"#utility.yul\":35336:35345   */\n      dup5\n        /* \"#utility.yul\":35331:35334   */\n      dup10\n        /* \"#utility.yul\":35327:35346   */\n      add\n        /* \"#utility.yul\":35321:35347   */\n      sload\n        /* \"#utility.yul\":35313:35319   */\n      dup3\n        /* \"#utility.yul\":35306:35348   */\n      sstore\n        /* \"#utility.yul\":35387:35388   */\n      0x01\n        /* \"#utility.yul\":35379:35385   */\n      dup3\n        /* \"#utility.yul\":35375:35389   */\n      add\n        /* \"#utility.yul\":35365:35389   */\n      swap2\n      pop\n        /* \"#utility.yul\":35434:35435   */\n      0x01\n        /* \"#utility.yul\":35423:35432   */\n      dup6\n        /* \"#utility.yul\":35419:35436   */\n      add\n        /* \"#utility.yul\":35406:35436   */\n      swap5\n      pop\n        /* \"#utility.yul\":35280:35284   */\n      0x20\n        /* \"#utility.yul\":35277:35278   */\n      dup2\n        /* \"#utility.yul\":35273:35285   */\n      add\n        /* \"#utility.yul\":35268:35285   */\n      swap1\n      pop\n        /* \"#utility.yul\":35243:35450   */\n      jump(tag_733)\n    tag_735:\n        /* \"#utility.yul\":35478:35484   */\n      dup7\n        /* \"#utility.yul\":35469:35476   */\n      dup4\n        /* \"#utility.yul\":35466:35485   */\n      lt\n        /* \"#utility.yul\":35463:35642   */\n      iszero\n      tag_736\n      jumpi\n        /* \"#utility.yul\":35536:35545   */\n      dup5\n        /* \"#utility.yul\":35531:35534   */\n      dup10\n        /* \"#utility.yul\":35527:35546   */\n      add\n        /* \"#utility.yul\":35521:35547   */\n      sload\n        /* \"#utility.yul\":35579:35627   */\n      tag_737\n        /* \"#utility.yul\":35621:35625   */\n      0x1f\n        /* \"#utility.yul\":35613:35619   */\n      dup10\n        /* \"#utility.yul\":35609:35626   */\n      and\n        /* \"#utility.yul\":35598:35607   */\n      dup3\n        /* \"#utility.yul\":35579:35627   */\n      tag_375\n      jump\t// in\n    tag_737:\n        /* \"#utility.yul\":35571:35577   */\n      dup4\n        /* \"#utility.yul\":35564:35628   */\n      sstore\n        /* \"#utility.yul\":35486:35642   */\n      pop\n        /* \"#utility.yul\":35463:35642   */\n    tag_736:\n        /* \"#utility.yul\":35688:35689   */\n      0x01\n        /* \"#utility.yul\":35684:35685   */\n      0x02\n        /* \"#utility.yul\":35676:35682   */\n      dup9\n        /* \"#utility.yul\":35672:35686   */\n      mul\n        /* \"#utility.yul\":35668:35690   */\n      add\n        /* \"#utility.yul\":35662:35666   */\n      dup9\n        /* \"#utility.yul\":35655:35691   */\n      sstore\n        /* \"#utility.yul\":35036:35701   */\n      pop\n      pop\n      pop\n        /* \"#utility.yul\":34999:35940   */\n    tag_727:\n      pop\n        /* \"#utility.yul\":34584:35946   */\n      pop\n      pop\n      pop\n        /* \"#utility.yul\":34495:35946   */\n      pop\n      pop\n    tag_720:\n      jump\t// out\n        /* \"#utility.yul\":35952:36099   */\n    tag_378:\n        /* \"#utility.yul\":36052:36058   */\n      0x00\n        /* \"#utility.yul\":36086:36091   */\n      dup2\n        /* \"#utility.yul\":36080:36092   */\n      mload\n        /* \"#utility.yul\":36070:36092   */\n      swap1\n      pop\n        /* \"#utility.yul\":35952:36099   */\n      swap2\n      swap1\n      pop\n      jump\t// out\n        /* \"#utility.yul\":36105:36322   */\n    tag_379:\n        /* \"#utility.yul\":36237:36248   */\n      0x00\n        /* \"#utility.yul\":36271:36277   */\n      dup3\n        /* \"#utility.yul\":36266:36269   */\n      dup3\n        /* \"#utility.yul\":36259:36278   */\n      mstore\n        /* \"#utility.yul\":36311:36315   */\n      0x20\n        /* \"#utility.yul\":36306:36309   */\n      dup3\n        /* \"#utility.yul\":36302:36316   */\n      add\n        /* \"#utility.yul\":36287:36316   */\n      swap1\n      pop\n        /* \"#utility.yul\":36105:36322   */\n      swap3\n      swap2\n      pop\n      pop\n      jump\t// out\n        /* \"#utility.yul\":36328:36493   */\n    tag_380:\n        /* \"#utility.yul\":36428:36432   */\n      0x00\n        /* \"#utility.yul\":36451:36454   */\n      dup2\n        /* \"#utility.yul\":36443:36454   */\n      swap1\n      pop\n        /* \"#utility.yul\":36481:36485   */\n      0x20\n        /* \"#utility.yul\":36476:36479   */\n      dup3\n        /* \"#utility.yul\":36472:36486   */\n      add\n        /* \"#utility.yul\":36464:36486   */\n      swap1\n      pop\n        /* \"#utility.yul\":36328:36493   */\n      swap2\n      swap1\n      pop\n      jump\t// out\n        /* \"#utility.yul\":36557:37526   */\n    tag_381:\n        /* \"#utility.yul\":36682:36685   */\n      0x00\n        /* \"#utility.yul\":36718:36722   */\n      0x80\n        /* \"#utility.yul\":36713:36716   */\n      dup4\n        /* \"#utility.yul\":36709:36723   */\n      add\n        /* \"#utility.yul\":36805:36809   */\n      0x00\n        /* \"#utility.yul\":36798:36803   */\n      dup4\n        /* \"#utility.yul\":36794:36810   */\n      add\n        /* \"#utility.yul\":36788:36811   */\n      mload\n        /* \"#utility.yul\":36824:36887   */\n      tag_742\n        /* \"#utility.yul\":36881:36885   */\n      0x00\n        /* \"#utility.yul\":36876:36879   */\n      dup7\n        /* \"#utility.yul\":36872:36886   */\n      add\n        /* \"#utility.yul\":36858:36870   */\n      dup3\n        /* \"#utility.yul\":36824:36887   */\n      tag_300\n      jump\t// in\n    tag_742:\n        /* \"#utility.yul\":36733:36897   */\n      pop\n        /* \"#utility.yul\":36983:36987   */\n      0x20\n        /* \"#utility.yul\":36976:36981   */\n      dup4\n        /* \"#utility.yul\":36972:36988   */\n      add\n        /* \"#utility.yul\":36966:36989   */\n      mload\n        /* \"#utility.yul\":37002:37065   */\n      tag_743\n        /* \"#utility.yul\":37059:37063   */\n      0x20\n        /* \"#utility.yul\":37054:37057   */\n      dup7\n        /* \"#utility.yul\":37050:37064   */\n      add\n        /* \"#utility.yul\":37036:37048   */\n      dup3\n        /* \"#utility.yul\":37002:37065   */\n      tag_300\n      jump\t// in\n    tag_743:\n        /* \"#utility.yul\":36907:37075   */\n      pop\n        /* \"#utility.yul\":37158:37162   */\n      0x40\n        /* \"#utility.yul\":37151:37156   */\n      dup4\n        /* \"#utility.yul\":37147:37163   */\n      add\n        /* \"#utility.yul\":37141:37164   */\n      mload\n        /* \"#utility.yul\":37177:37240   */\n      tag_744\n        /* \"#utility.yul\":37234:37238   */\n      0x40\n        /* \"#utility.yul\":37229:37232   */\n      dup7\n        /* \"#utility.yul\":37225:37239   */\n      add\n        /* \"#utility.yul\":37211:37223   */\n      dup3\n        /* \"#utility.yul\":37177:37240   */\n      tag_300\n      jump\t// in\n    tag_744:\n        /* \"#utility.yul\":37085:37250   */\n      pop\n        /* \"#utility.yul\":37336:37340   */\n      0x60\n        /* \"#utility.yul\":37329:37334   */\n      dup4\n        /* \"#utility.yul\":37325:37341   */\n      add\n        /* \"#utility.yul\":37319:37342   */\n      mload\n        /* \"#utility.yul\":37389:37392   */\n      dup5\n        /* \"#utility.yul\":37383:37387   */\n      dup3\n        /* \"#utility.yul\":37379:37393   */\n      sub\n        /* \"#utility.yul\":37372:37376   */\n      0x60\n        /* \"#utility.yul\":37367:37370   */\n      dup7\n        /* \"#utility.yul\":37363:37377   */\n      add\n        /* \"#utility.yul\":37356:37394   */\n      mstore\n        /* \"#utility.yul\":37415:37488   */\n      tag_745\n        /* \"#utility.yul\":37483:37487   */\n      dup3\n        /* \"#utility.yul\":37469:37481   */\n      dup3\n        /* \"#utility.yul\":37415:37488   */\n      tag_326\n      jump\t// in\n    tag_745:\n        /* \"#utility.yul\":37407:37488   */\n      swap2\n      pop\n        /* \"#utility.yul\":37260:37499   */\n      pop\n        /* \"#utility.yul\":37516:37520   */\n      dup1\n        /* \"#utility.yul\":37509:37520   */\n      swap2\n      pop\n        /* \"#utility.yul\":36687:37526   */\n      pop\n        /* \"#utility.yul\":36557:37526   */\n      swap3\n      swap2\n      pop\n      pop\n      jump\t// out\n        /* \"#utility.yul\":37532:37820   */\n    tag_382:\n        /* \"#utility.yul\":37667:37677   */\n      0x00\n        /* \"#utility.yul\":37702:37814   */\n      tag_747\n        /* \"#utility.yul\":37810:37813   */\n      dup4\n        /* \"#utility.yul\":37802:37808   */\n      dup4\n        /* \"#utility.yul\":37702:37814   */\n      tag_381\n      jump\t// in\n    tag_747:\n        /* \"#utility.yul\":37688:37814   */\n      swap1\n      pop\n        /* \"#utility.yul\":37532:37820   */\n      swap3\n      swap2\n      pop\n      pop\n      jump\t// out\n        /* \"#utility.yul\":37826:37972   */\n    tag_383:\n        /* \"#utility.yul\":37929:37933   */\n      0x00\n        /* \"#utility.yul\":37961:37965   */\n      0x20\n        /* \"#utility.yul\":37956:37959   */\n      dup3\n        /* \"#utility.yul\":37952:37966   */\n      add\n        /* \"#utility.yul\":37944:37966   */\n      swap1\n      pop\n        /* \"#utility.yul\":37826:37972   */\n      swap2\n      swap1\n      pop\n      jump\t// out\n        /* \"#utility.yul\":38040:39215   */\n    tag_384:\n        /* \"#utility.yul\":38225:38228   */\n      0x00\n        /* \"#utility.yul\":38254:38341   */\n      tag_750\n        /* \"#utility.yul\":38335:38340   */\n      dup3\n        /* \"#utility.yul\":38254:38341   */\n      tag_378\n      jump\t// in\n    tag_750:\n        /* \"#utility.yul\":38357:38476   */\n      tag_751\n        /* \"#utility.yul\":38469:38475   */\n      dup2\n        /* \"#utility.yul\":38464:38467   */\n      dup6\n        /* \"#utility.yul\":38357:38476   */\n      tag_379\n      jump\t// in\n    tag_751:\n        /* \"#utility.yul\":38350:38476   */\n      swap4\n      pop\n        /* \"#utility.yul\":38502:38505   */\n      dup4\n        /* \"#utility.yul\":38547:38551   */\n      0x20\n        /* \"#utility.yul\":38539:38545   */\n      dup3\n        /* \"#utility.yul\":38535:38552   */\n      mul\n        /* \"#utility.yul\":38530:38533   */\n      dup6\n        /* \"#utility.yul\":38526:38553   */\n      add\n        /* \"#utility.yul\":38577:38666   */\n      tag_752\n        /* \"#utility.yul\":38660:38665   */\n      dup6\n        /* \"#utility.yul\":38577:38666   */\n      tag_380\n      jump\t// in\n    tag_752:\n        /* \"#utility.yul\":38689:38696   */\n      dup1\n        /* \"#utility.yul\":38720:38721   */\n      0x00\n        /* \"#utility.yul\":38705:39170   */\n    tag_753:\n        /* \"#utility.yul\":38730:38736   */\n      dup6\n        /* \"#utility.yul\":38727:38728   */\n      dup2\n        /* \"#utility.yul\":38724:38737   */\n      lt\n        /* \"#utility.yul\":38705:39170   */\n      iszero\n      tag_755\n      jumpi\n        /* \"#utility.yul\":38801:38810   */\n      dup5\n        /* \"#utility.yul\":38795:38799   */\n      dup5\n        /* \"#utility.yul\":38791:38811   */\n      sub\n        /* \"#utility.yul\":38786:38789   */\n      dup10\n        /* \"#utility.yul\":38779:38812   */\n      mstore\n        /* \"#utility.yul\":38852:38858   */\n      dup2\n        /* \"#utility.yul\":38846:38859   */\n      mload\n        /* \"#utility.yul\":38880:39010   */\n      tag_756\n        /* \"#utility.yul\":39005:39009   */\n      dup6\n        /* \"#utility.yul\":38990:39003   */\n      dup3\n        /* \"#utility.yul\":38880:39010   */\n      tag_382\n      jump\t// in\n    tag_756:\n        /* \"#utility.yul\":38872:39010   */\n      swap5\n      pop\n        /* \"#utility.yul\":39033:39126   */\n      tag_757\n        /* \"#utility.yul\":39119:39125   */\n      dup4\n        /* \"#utility.yul\":39033:39126   */\n      tag_383\n      jump\t// in\n    tag_757:\n        /* \"#utility.yul\":39023:39126   */\n      swap3\n      pop\n        /* \"#utility.yul\":39155:39159   */\n      0x20\n        /* \"#utility.yul\":39150:39153   */\n      dup11\n        /* \"#utility.yul\":39146:39160   */\n      add\n        /* \"#utility.yul\":39139:39160   */\n      swap10\n      pop\n        /* \"#utility.yul\":38765:39170   */\n      pop\n        /* \"#utility.yul\":38752:38753   */\n      0x01\n        /* \"#utility.yul\":38749:38750   */\n      dup2\n        /* \"#utility.yul\":38745:38754   */\n      add\n        /* \"#utility.yul\":38740:38754   */\n      swap1\n      pop\n        /* \"#utility.yul\":38705:39170   */\n      jump(tag_753)\n    tag_755:\n        /* \"#utility.yul\":38709:38723   */\n      pop\n        /* \"#utility.yul\":39186:39190   */\n      dup3\n        /* \"#utility.yul\":39179:39190   */\n      swap8\n      pop\n        /* \"#utility.yul\":39206:39209   */\n      dup8\n        /* \"#utility.yul\":39199:39209   */\n      swap6\n      pop\n        /* \"#utility.yul\":38230:39215   */\n      pop\n      pop\n      pop\n      pop\n      pop\n        /* \"#utility.yul\":38040:39215   */\n      swap3\n      swap2\n      pop\n      pop\n      jump\t// out\n        /* \"#utility.yul\":39221:40194   */\n    tag_118:\n        /* \"#utility.yul\":39555:39559   */\n      0x00\n        /* \"#utility.yul\":39593:39596   */\n      0xa0\n        /* \"#utility.yul\":39582:39591   */\n      dup3\n        /* \"#utility.yul\":39578:39597   */\n      add\n        /* \"#utility.yul\":39570:39597   */\n      swap1\n      pop\n        /* \"#utility.yul\":39607:39678   */\n      tag_759\n        /* \"#utility.yul\":39675:39676   */\n      0x00\n        /* \"#utility.yul\":39664:39673   */\n      dup4\n        /* \"#utility.yul\":39660:39677   */\n      add\n        /* \"#utility.yul\":39651:39657   */\n      dup9\n        /* \"#utility.yul\":39607:39678   */\n      tag_289\n      jump\t// in\n    tag_759:\n        /* \"#utility.yul\":39688:39760   */\n      tag_760\n        /* \"#utility.yul\":39756:39758   */\n      0x20\n        /* \"#utility.yul\":39745:39754   */\n      dup4\n        /* \"#utility.yul\":39741:39759   */\n      add\n        /* \"#utility.yul\":39732:39738   */\n      dup8\n        /* \"#utility.yul\":39688:39760   */\n      tag_354\n      jump\t// in\n    tag_760:\n        /* \"#utility.yul\":39770:39842   */\n      tag_761\n        /* \"#utility.yul\":39838:39840   */\n      0x40\n        /* \"#utility.yul\":39827:39836   */\n      dup4\n        /* \"#utility.yul\":39823:39841   */\n      add\n        /* \"#utility.yul\":39814:39820   */\n      dup7\n        /* \"#utility.yul\":39770:39842   */\n      tag_289\n      jump\t// in\n    tag_761:\n        /* \"#utility.yul\":39852:39937   */\n      tag_762\n        /* \"#utility.yul\":39933:39935   */\n      0x60\n        /* \"#utility.yul\":39922:39931   */\n      dup4\n        /* \"#utility.yul\":39918:39936   */\n      add\n        /* \"#utility.yul\":39909:39915   */\n      dup6\n        /* \"#utility.yul\":39852:39937   */\n      tag_357\n      jump\t// in\n    tag_762:\n        /* \"#utility.yul\":39985:39994   */\n      dup2\n        /* \"#utility.yul\":39979:39983   */\n      dup2\n        /* \"#utility.yul\":39975:39995   */\n      sub\n        /* \"#utility.yul\":39969:39972   */\n      0x80\n        /* \"#utility.yul\":39958:39967   */\n      dup4\n        /* \"#utility.yul\":39954:39973   */\n      add\n        /* \"#utility.yul\":39947:39996   */\n      mstore\n        /* \"#utility.yul\":40013:40187   */\n      tag_763\n        /* \"#utility.yul\":40182:40186   */\n      dup2\n        /* \"#utility.yul\":40173:40179   */\n      dup5\n        /* \"#utility.yul\":40013:40187   */\n      tag_384\n      jump\t// in\n    tag_763:\n        /* \"#utility.yul\":40005:40187   */\n      swap1\n      pop\n        /* \"#utility.yul\":39221:40194   */\n      swap7\n      swap6\n      pop\n      pop\n      pop\n      pop\n      pop\n      pop\n      jump\t// out\n        /* \"#utility.yul\":40200:40370   */\n    tag_385:\n        /* \"#utility.yul\":40340:40362   */\n      0x4f7264657220646f6573206e6f74206578697374000000000000000000000000\n        /* \"#utility.yul\":40336:40337   */\n      0x00\n        /* \"#utility.yul\":40328:40334   */\n      dup3\n        /* \"#utility.yul\":40324:40338   */\n      add\n        /* \"#utility.yul\":40317:40363   */\n      mstore\n        /* \"#utility.yul\":40200:40370   */\n      pop\n      jump\t// out\n        /* \"#utility.yul\":40376:40742   */\n    tag_386:\n        /* \"#utility.yul\":40518:40521   */\n      0x00\n        /* \"#utility.yul\":40539:40606   */\n      tag_766\n        /* \"#utility.yul\":40603:40605   */\n      0x14\n        /* \"#utility.yul\":40598:40601   */\n      dup4\n        /* \"#utility.yul\":40539:40606   */\n      tag_355\n      jump\t// in\n    tag_766:\n        /* \"#utility.yul\":40532:40606   */\n      swap2\n      pop\n        /* \"#utility.yul\":40615:40708   */\n      tag_767\n        /* \"#utility.yul\":40704:40707   */\n      dup3\n        /* \"#utility.yul\":40615:40708   */\n      tag_385\n      jump\t// in\n    tag_767:\n        /* \"#utility.yul\":40733:40735   */\n      0x20\n        /* \"#utility.yul\":40728:40731   */\n      dup3\n        /* \"#utility.yul\":40724:40736   */\n      add\n        /* \"#utility.yul\":40717:40736   */\n      swap1\n      pop\n        /* \"#utility.yul\":40376:40742   */\n      swap2\n      swap1\n      pop\n      jump\t// out\n        /* \"#utility.yul\":40748:41167   */\n    tag_146:\n        /* \"#utility.yul\":40914:40918   */\n      0x00\n        /* \"#utility.yul\":40952:40954   */\n      0x20\n        /* \"#utility.yul\":40941:40950   */\n      dup3\n        /* \"#utility.yul\":40937:40955   */\n      add\n        /* \"#utility.yul\":40929:40955   */\n      swap1\n      pop\n        /* \"#utility.yul\":41001:41010   */\n      dup2\n        /* \"#utility.yul\":40995:40999   */\n      dup2\n        /* \"#utility.yul\":40991:41011   */\n      sub\n        /* \"#utility.yul\":40987:40988   */\n      0x00\n        /* \"#utility.yul\":40976:40985   */\n      dup4\n        /* \"#utility.yul\":40972:40989   */\n      add\n        /* \"#utility.yul\":40965:41012   */\n      mstore\n        /* \"#utility.yul\":41029:41160   */\n      tag_769\n        /* \"#utility.yul\":41155:41159   */\n      dup2\n        /* \"#utility.yul\":41029:41160   */\n      tag_386\n      jump\t// in\n    tag_769:\n        /* \"#utility.yul\":41021:41160   */\n      swap1\n      pop\n        /* \"#utility.yul\":40748:41167   */\n      swap2\n      swap1\n      pop\n      jump\t// out\n        /* \"#utility.yul\":41173:41412   */\n    tag_387:\n        /* \"#utility.yul\":41313:41347   */\n      0x4f72646572206974656d20616c7265616479206d61726b656420617320737563\n        /* \"#utility.yul\":41309:41310   */\n      0x00\n        /* \"#utility.yul\":41301:41307   */\n      dup3\n        /* \"#utility.yul\":41297:41311   */\n      add\n        /* \"#utility.yul\":41290:41348   */\n      mstore\n        /* \"#utility.yul\":41382:41404   */\n      0x636573732e2043616e206e6f7420757064617465000000000000000000000000\n        /* \"#utility.yul\":41377:41379   */\n      0x20\n        /* \"#utility.yul\":41369:41375   */\n      dup3\n        /* \"#utility.yul\":41365:41380   */\n      add\n        /* \"#utility.yul\":41358:41405   */\n      mstore\n        /* \"#utility.yul\":41173:41412   */\n      pop\n      jump\t// out\n        /* \"#utility.yul\":41418:41784   */\n    tag_388:\n        /* \"#utility.yul\":41560:41563   */\n      0x00\n        /* \"#utility.yul\":41581:41648   */\n      tag_772\n        /* \"#utility.yul\":41645:41647   */\n      0x34\n        /* \"#utility.yul\":41640:41643   */\n      dup4\n        /* \"#utility.yul\":41581:41648   */\n      tag_355\n      jump\t// in\n    tag_772:\n        /* \"#utility.yul\":41574:41648   */\n      swap2\n      pop\n        /* \"#utility.yul\":41657:41750   */\n      tag_773\n        /* \"#utility.yul\":41746:41749   */\n      dup3\n        /* \"#utility.yul\":41657:41750   */\n      tag_387\n      jump\t// in\n    tag_773:\n        /* \"#utility.yul\":41775:41777   */\n      0x40\n        /* \"#utility.yul\":41770:41773   */\n      dup3\n        /* \"#utility.yul\":41766:41778   */\n      add\n        /* \"#utility.yul\":41759:41778   */\n      swap1\n      pop\n        /* \"#utility.yul\":41418:41784   */\n      swap2\n      swap1\n      pop\n      jump\t// out\n        /* \"#utility.yul\":41790:42209   */\n    tag_183:\n        /* \"#utility.yul\":41956:41960   */\n      0x00\n        /* \"#utility.yul\":41994:41996   */\n      0x20\n        /* \"#utility.yul\":41983:41992   */\n      dup3\n        /* \"#utility.yul\":41979:41997   */\n      add\n        /* \"#utility.yul\":41971:41997   */\n      swap1\n      pop\n        /* \"#utility.yul\":42043:42052   */\n      dup2\n        /* \"#utility.yul\":42037:42041   */\n      dup2\n        /* \"#utility.yul\":42033:42053   */\n      sub\n        /* \"#utility.yul\":42029:42030   */\n      0x00\n        /* \"#utility.yul\":42018:42027   */\n      dup4\n        /* \"#utility.yul\":42014:42031   */\n      add\n        /* \"#utility.yul\":42007:42054   */\n      mstore\n        /* \"#utility.yul\":42071:42202   */\n      tag_775\n        /* \"#utility.yul\":42197:42201   */\n      dup2\n        /* \"#utility.yul\":42071:42202   */\n      tag_388\n      jump\t// in\n    tag_775:\n        /* \"#utility.yul\":42063:42202   */\n      swap1\n      pop\n        /* \"#utility.yul\":41790:42209   */\n      swap2\n      swap1\n      pop\n      jump\t// out\n        /* \"#utility.yul\":42215:42409   */\n    tag_200:\n        /* \"#utility.yul\":42255:42259   */\n      0x00\n        /* \"#utility.yul\":42275:42295   */\n      tag_777\n        /* \"#utility.yul\":42293:42294   */\n      dup3\n        /* \"#utility.yul\":42275:42295   */\n      tag_288\n      jump\t// in\n    tag_777:\n        /* \"#utility.yul\":42270:42295   */\n      swap2\n      pop\n        /* \"#utility.yul\":42309:42329   */\n      tag_778\n        /* \"#utility.yul\":42327:42328   */\n      dup4\n        /* \"#utility.yul\":42309:42329   */\n      tag_288\n      jump\t// in\n    tag_778:\n        /* \"#utility.yul\":42304:42329   */\n      swap3\n      pop\n        /* \"#utility.yul\":42353:42354   */\n      dup3\n        /* \"#utility.yul\":42350:42351   */\n      dup3\n        /* \"#utility.yul\":42346:42355   */\n      sub\n        /* \"#utility.yul\":42338:42355   */\n      swap1\n      pop\n        /* \"#utility.yul\":42377:42378   */\n      dup2\n        /* \"#utility.yul\":42371:42375   */\n      dup2\n        /* \"#utility.yul\":42368:42379   */\n      gt\n        /* \"#utility.yul\":42365:42402   */\n      iszero\n      tag_779\n      jumpi\n        /* \"#utility.yul\":42382:42400   */\n      tag_780\n      tag_360\n      jump\t// in\n    tag_780:\n        /* \"#utility.yul\":42365:42402   */\n    tag_779:\n        /* \"#utility.yul\":42215:42409   */\n      swap3\n      swap2\n      pop\n      pop\n      jump\t// out\n        /* \"#utility.yul\":42415:42580   */\n    tag_389:\n        /* \"#utility.yul\":42519:42573   */\n      tag_782\n        /* \"#utility.yul\":42567:42572   */\n      dup2\n        /* \"#utility.yul\":42519:42573   */\n      tag_332\n      jump\t// in\n    tag_782:\n        /* \"#utility.yul\":42514:42517   */\n      dup3\n        /* \"#utility.yul\":42507:42574   */\n      mstore\n        /* \"#utility.yul\":42415:42580   */\n      pop\n      pop\n      jump\t// out\n        /* \"#utility.yul\":42586:43062   */\n    tag_205:\n        /* \"#utility.yul\":42752:42756   */\n      0x00\n        /* \"#utility.yul\":42790:42792   */\n      0x60\n        /* \"#utility.yul\":42779:42788   */\n      dup3\n        /* \"#utility.yul\":42775:42793   */\n      add\n        /* \"#utility.yul\":42767:42793   */\n      swap1\n      pop\n        /* \"#utility.yul\":42803:42874   */\n      tag_784\n        /* \"#utility.yul\":42871:42872   */\n      0x00\n        /* \"#utility.yul\":42860:42869   */\n      dup4\n        /* \"#utility.yul\":42856:42873   */\n      add\n        /* \"#utility.yul\":42847:42853   */\n      dup7\n        /* \"#utility.yul\":42803:42874   */\n      tag_289\n      jump\t// in\n    tag_784:\n        /* \"#utility.yul\":42884:42956   */\n      tag_785\n        /* \"#utility.yul\":42952:42954   */\n      0x20\n        /* \"#utility.yul\":42941:42950   */\n      dup4\n        /* \"#utility.yul\":42937:42955   */\n      add\n        /* \"#utility.yul\":42928:42934   */\n      dup6\n        /* \"#utility.yul\":42884:42956   */\n      tag_289\n      jump\t// in\n    tag_785:\n        /* \"#utility.yul\":42966:43055   */\n      tag_786\n        /* \"#utility.yul\":43051:43053   */\n      0x40\n        /* \"#utility.yul\":43040:43049   */\n      dup4\n        /* \"#utility.yul\":43036:43054   */\n      add\n        /* \"#utility.yul\":43027:43033   */\n      dup5\n        /* \"#utility.yul\":42966:43055   */\n      tag_389\n      jump\t// in\n    tag_786:\n        /* \"#utility.yul\":42586:43062   */\n      swap5\n      swap4\n      pop\n      pop\n      pop\n      pop\n      jump\t// out\n        /* \"#utility.yul\":43068:43426   */\n    tag_264:\n        /* \"#utility.yul\":43202:43206   */\n      0x00\n        /* \"#utility.yul\":43240:43242   */\n      0x40\n        /* \"#utility.yul\":43229:43238   */\n      dup3\n        /* \"#utility.yul\":43225:43243   */\n      add\n        /* \"#utility.yul\":43217:43243   */\n      swap1\n      pop\n        /* \"#utility.yul\":43253:43324   */\n      tag_788\n        /* \"#utility.yul\":43321:43322   */\n      0x00\n        /* \"#utility.yul\":43310:43319   */\n      dup4\n        /* \"#utility.yul\":43306:43323   */\n      add\n        /* \"#utility.yul\":43297:43303   */\n      dup6\n        /* \"#utility.yul\":43253:43324   */\n      tag_289\n      jump\t// in\n    tag_788:\n        /* \"#utility.yul\":43334:43419   */\n      tag_789\n        /* \"#utility.yul\":43415:43417   */\n      0x20\n        /* \"#utility.yul\":43404:43413   */\n      dup4\n        /* \"#utility.yul\":43400:43418   */\n      add\n        /* \"#utility.yul\":43391:43397   */\n      dup5\n        /* \"#utility.yul\":43334:43419   */\n      tag_357\n      jump\t// in\n    tag_789:\n        /* \"#utility.yul\":43068:43426   */\n      swap4\n      swap3\n      pop\n      pop\n      pop\n      jump\t// out\n\n    auxdata: 0xa26469706673582212209f217c20fa40bf6c2e7ccaf5dd985f3cf2d125ab989cbf5cc05be0eb019842c564736f6c634300081e0033\n}\n",
				"bytecode": {
					"linkReferences": {},
					"object": "608060405260015f5560016002553480156017575f5ffd5b50612c44806100255f395ff3fe608060405234801561000f575f5ffd5b5060043610610086575f3560e01c80638a46e8eb116100595780638a46e8eb146101385780638ce2ec7914610154578063a85c38ef14610184578063aab3196d146101b957610086565b80632a58b3301461008a57806363c69f08146100a85780636590209d146100d8578063856652e914610108575b5f5ffd5b6100926101d5565b60405161009f91906117d7565b60405180910390f35b6100c260048036038101906100bd919061185b565b6101db565b6040516100cf919061193d565b60405180910390f35b6100f260048036038101906100ed9190611c3e565b61026e565b6040516100ff9190611fcf565b60405180910390f35b610122600480360381019061011d9190611fef565b610a41565b60405161012f91906117d7565b60405180910390f35b610152600480360381019061014d9190612050565b610a6c565b005b61016e600480360381019061016991906120c3565b610fd3565b60405161017b9190612249565b60405180910390f35b61019e60048036038101906101999190612269565b6113f0565b6040516101b0969594939291906122fa565b60405180910390f35b6101d360048036038101906101ce9190612360565b6114d9565b005b60025481565b606060035f8373ffffffffffffffffffffffffffffffffffffffff1673ffffffffffffffffffffffffffffffffffffffff1681526020019081526020015f2080548060200260200160405190810160405280929190818152602001828054801561026257602002820191905f5260205f20905b81548152602001906001019080831161024e575b50505050509050919050565b6102766115a6565b5f8251116102b9576040517f08c379a00000000000000000000000000000000000000000000000000000000081526004016102b09061240e565b60405180910390fd5b5f5f90505f835167ffffffffffffffff8111156102d9576102d8611975565b5b60405190808252806020026020018201604052801561031257816020015b6102ff611606565b8152602001906001900390816102f75790505b5090505f5f90505b845181101561046d578481815181106103365761033561242c565b5b6020026020010151602001518582815181106103555761035461242c565b5b60200260200101516040015161036b9190612486565b8361037691906124c7565b92506040518060c001604052805f5f815480929190610394906124fa565b9190505581526020018683815181106103b0576103af61242c565b5b60200260200101515f015181526020018683815181106103d3576103d261242c565b5b60200260200101516020015181526020018683815181106103f7576103f661242c565b5b602002602001015160400151815260200186838151811061041b5761041a61242c565b5b602002602001015160600151815260200160028081111561043f5761043e611d5e565b5b8152508282815181106104555761045461242c565b5b6020026020010181905250808060010191505061031a565b505f60025f815480929190610481906124fa565b9190505590505f60015f8381526020019081526020015f20905081815f018190555087816001015f6101000a81548173ffffffffffffffffffffffffffffffffffffffff021916908373ffffffffffffffffffffffffffffffffffffffff160217905550868160020190816104f6919061273e565b508381600401819055505f816005015f6101000a81548160ff0219169083600281111561052657610525611d5e565b5b02179055504281600601819055505f5f90505b835181101561060157816003018482815181106105595761055861242c565b5b6020026020010151908060018154018082558091505060019003905f5260205f2090600602015f909190919091505f820151815f015560208201518160010155604082015181600201556060820151816003015560808201518160040190816105c2919061273e565b5060a0820151816005015f6101000a81548160ff021916908360028111156105ed576105ec611d5e565b5b021790555050508080600101915050610539565b508060015f8481526020019081526020015f205f820154815f0155600182015f9054906101000a900473ffffffffffffffffffffffffffffffffffffffff16816001015f6101000a81548173ffffffffffffffffffffffffffffffffffffffff021916908373ffffffffffffffffffffffffffffffffffffffff160217905550600282018160020190816106959190612822565b5060038201816003019080546106ac929190611649565b5060048201548160040155600582015f9054906101000a900460ff16816005015f6101000a81548160ff021916908360028111156106ed576106ec611d5e565b5b02179055506006820154816006015590505060035f8973ffffffffffffffffffffffffffffffffffffffff1673ffffffffffffffffffffffffffffffffffffffff1681526020019081526020015f2082908060018154018082558091505060019003905f5260205f20015f90919091909150557f0775f96371002afbe57d2480d177685c05526801bf220210de69b14801ab77388289865f8a604051610797959493929190612a22565b60405180910390a1806040518060e00160405290815f8201548152602001600182015f9054906101000a900473ffffffffffffffffffffffffffffffffffffffff1673ffffffffffffffffffffffffffffffffffffffff1673ffffffffffffffffffffffffffffffffffffffff1681526020016002820180546108199061256e565b80601f01602080910402602001604051908101604052809291908181526020018280546108459061256e565b80156108905780601f1061086757610100808354040283529160200191610890565b820191905f5260205f20905b81548152906001019060200180831161087357829003601f168201915b5050505050815260200160038201805480602002602001604051908101604052809291908181526020015f905b828210156109de578382905f5260205f2090600602016040518060c00160405290815f82015481526020016001820154815260200160028201548152602001600382015481526020016004820180546109159061256e565b80601f01602080910402602001604051908101604052809291908181526020018280546109419061256e565b801561098c5780601f106109635761010080835404028352916020019161098c565b820191905f5260205f20905b81548152906001019060200180831161096f57829003601f168201915b50505050508152602001600582015f9054906101000a900460ff1660028111156109b9576109b8611d5e565b5b60028111156109cb576109ca611d5e565b5b81525050815260200190600101906108bd565b50505050815260200160048201548152602001600582015f9054906101000a900460ff166002811115610a1457610a13611d5e565b5b6002811115610a2657610a25611d5e565b5b81526020016006820154815250509450505050509392505050565b6003602052815f5260405f208181548110610a5a575f80fd5b905f5260205f20015f91509150505481565b5f60015f8581526020019081526020015f205f015403610ac1576040517f08c379a0000000000000000000000000000000000000000000000000000000008152600401610ab890612ac4565b60405180910390fd5b5f60015f8581526020019081526020015f206040518060e00160405290815f8201548152602001600182015f9054906101000a900473ffffffffffffffffffffffffffffffffffffffff1673ffffffffffffffffffffffffffffffffffffffff1673ffffffffffffffffffffffffffffffffffffffff168152602001600282018054610b4c9061256e565b80601f0160208091040260200160405190810160405280929190818152602001828054610b789061256e565b8015610bc35780601f10610b9a57610100808354040283529160200191610bc3565b820191905f5260205f20905b815481529060010190602001808311610ba657829003601f168201915b5050505050815260200160038201805480602002602001604051908101604052809291908181526020015f905b82821015610d11578382905f5260205f2090600602016040518060c00160405290815f8201548152602001600182015481526020016002820154815260200160038201548152602001600482018054610c489061256e565b80601f0160208091040260200160405190810160405280929190818152602001828054610c749061256e565b8015610cbf5780601f10610c9657610100808354040283529160200191610cbf565b820191905f5260205f20905b815481529060010190602001808311610ca257829003601f168201915b50505050508152602001600582015f9054906101000a900460ff166002811115610cec57610ceb611d5e565b5b6002811115610cfe57610cfd611d5e565b5b8152505081526020019060010190610bf0565b50505050815260200160048201548152602001600582015f9054906101000a900460ff166002811115610d4757610d46611d5e565b5b6002811115610d5957610d58611d5e565b5b815260200160068201548152505090505f5f90505b816060015151811015610f91578360015f8681526020019081526020015f206003018281548110610da257610da161242c565b5b905f5260205f2090600602015f015403610f84575f6002811115610dc957610dc8611d5e565b5b82606001518281518110610de057610ddf61242c565b5b602002602001015160a001516002811115610dfe57610dfd611d5e565b5b03610e3e576040517f08c379a0000000000000000000000000000000000000000000000000000000008152600401610e3590612b52565b60405180910390fd5b8260015f8781526020019081526020015f206003018281548110610e6557610e6461242c565b5b905f5260205f2090600602016005015f6101000a81548160ff02191690836002811115610e9557610e94611d5e565b5b02179055505f6002811115610ead57610eac611d5e565b5b836002811115610ec057610ebf611d5e565b5b14610f335781606001518181518110610edc57610edb61242c565b5b60200260200101516040015160015f8781526020019081526020015f206003018281548110610f0e57610f0d61242c565b5b905f5260205f2090600602016002015f828254610f2b9190612b70565b925050819055505b81606001518181518110610f4a57610f4961242c565b5b60200260200101516060015160015f8781526020019081526020015f206004015f828254610f789190612b70565b92505081905550610f91565b8080600101915050610d6e565b507faed146b8e6504d3a57dea2f60152e1133fa978a366cbdfbfa83328f48ff1ec09848484604051610fc593929190612bb2565b60405180910390a150505050565b60605f5f90505f600190505b60025481101561105057836002811115610ffc57610ffb611d5e565b5b60015f8381526020019081526020015f206005015f9054906101000a900460ff16600281111561102f5761102e611d5e565b5b0361104357818061103f906124fa565b9250505b8080600101915050610fdf565b505f8167ffffffffffffffff81111561106c5761106b611975565b5b6040519080825280602002602001820160405280156110a557816020015b6110926115a6565b81526020019060019003908161108a5790505b5090505f5f90505f600190505b6002548110156113e4578560028111156110cf576110ce611d5e565b5b60015f8381526020019081526020015f206005015f9054906101000a900460ff16600281111561110257611101611d5e565b5b036113d75760015f8281526020019081526020015f206040518060e00160405290815f8201548152602001600182015f9054906101000a900473ffffffffffffffffffffffffffffffffffffffff1673ffffffffffffffffffffffffffffffffffffffff1673ffffffffffffffffffffffffffffffffffffffff1681526020016002820180546111919061256e565b80601f01602080910402602001604051908101604052809291908181526020018280546111bd9061256e565b80156112085780601f106111df57610100808354040283529160200191611208565b820191905f5260205f20905b8154815290600101906020018083116111eb57829003601f168201915b5050505050815260200160038201805480602002602001604051908101604052809291908181526020015f905b82821015611356578382905f5260205f2090600602016040518060c00160405290815f820154815260200160018201548152602001600282015481526020016003820154815260200160048201805461128d9061256e565b80601f01602080910402602001604051908101604052809291908181526020018280546112b99061256e565b80156113045780601f106112db57610100808354040283529160200191611304565b820191905f5260205f20905b8154815290600101906020018083116112e757829003601f168201915b50505050508152602001600582015f9054906101000a900460ff16600281111561133157611330611d5e565b5b600281111561134357611342611d5e565b5b8152505081526020019060010190611235565b50505050815260200160048201548152602001600582015f9054906101000a900460ff16600281111561138c5761138b611d5e565b5b600281111561139e5761139d611d5e565b5b81526020016006820154815250508383806113b8906124fa565b9450815181106113cb576113ca61242c565b5b60200260200101819052505b80806001019150506110b2565b50819350505050919050565b6001602052805f5260405f205f91509050805f015490806001015f9054906101000a900473ffffffffffffffffffffffffffffffffffffffff169080600201805461143a9061256e565b80601f01602080910402602001604051908101604052809291908181526020018280546114669061256e565b80156114b15780601f10611488576101008083540402835291602001916114b1565b820191905f5260205f20905b81548152906001019060200180831161149457829003601f168201915b505050505090806004015490806005015f9054906101000a900460ff16908060060154905086565b5f60015f8481526020019081526020015f205f01540361152e576040517f08c379a000000000000000000000000000000000000000000000000000000000815260040161152590612ac4565b60405180910390fd5b8060015f8481526020019081526020015f206005015f6101000a81548160ff0219169083600281111561156457611563611d5e565b5b02179055507f575764e5527275e78fb8b8cecd6ae324a82d9904ef7a29349dabdff1e1f54c35828260405161159a929190612be7565b60405180910390a15050565b6040518060e001604052805f81526020015f73ffffffffffffffffffffffffffffffffffffffff16815260200160608152602001606081526020015f81526020015f60028111156115fa576115f9611d5e565b5b81526020015f81525090565b6040518060c001604052805f81526020015f81526020015f81526020015f8152602001606081526020015f600281111561164357611642611d5e565b5b81525090565b828054828255905f5260205f20906006028101928215611702575f5260205f209160060282015b828111156117015782825f820154815f0155600182015481600101556002820154816002015560038201548160030155600482018160040190816116b49190612822565b50600582015f9054906101000a900460ff16816005015f6101000a81548160ff021916908360028111156116eb576116ea611d5e565b5b0217905550505091600601919060060190611670565b5b50905061170f9190611713565b5090565b5b80821115611763575f5f82015f9055600182015f9055600282015f9055600382015f9055600482015f6117479190611767565b600582015f6101000a81549060ff021916905550600601611714565b5090565b5080546117739061256e565b5f825580601f1061178457506117a1565b601f0160209004905f5260205f20908101906117a091906117a4565b5b50565b5b808211156117bb575f815f9055506001016117a5565b5090565b5f819050919050565b6117d1816117bf565b82525050565b5f6020820190506117ea5f8301846117c8565b92915050565b5f604051905090565b5f5ffd5b5f5ffd5b5f73ffffffffffffffffffffffffffffffffffffffff82169050919050565b5f61182a82611801565b9050919050565b61183a81611820565b8114611844575f5ffd5b50565b5f8135905061185581611831565b92915050565b5f602082840312156118705761186f6117f9565b5b5f61187d84828501611847565b91505092915050565b5f81519050919050565b5f82825260208201905092915050565b5f819050602082019050919050565b6118b8816117bf565b82525050565b5f6118c983836118af565b60208301905092915050565b5f602082019050919050565b5f6118eb82611886565b6118f58185611890565b9350611900836118a0565b805f5b8381101561193057815161191788826118be565b9750611922836118d5565b925050600181019050611903565b5085935050505092915050565b5f6020820190508181035f83015261195581846118e1565b905092915050565b5f5ffd5b5f5ffd5b5f601f19601f8301169050919050565b7f4e487b71000000000000000000000000000000000000000000000000000000005f52604160045260245ffd5b6119ab82611965565b810181811067ffffffffffffffff821117156119ca576119c9611975565b5b80604052505050565b5f6119dc6117f0565b90506119e882826119a2565b919050565b5f67ffffffffffffffff821115611a0757611a06611975565b5b611a1082611965565b9050602081019050919050565b828183375f83830152505050565b5f611a3d611a38846119ed565b6119d3565b905082815260208101848484011115611a5957611a58611961565b5b611a64848285611a1d565b509392505050565b5f82601f830112611a8057611a7f61195d565b5b8135611a90848260208601611a2b565b91505092915050565b5f67ffffffffffffffff821115611ab357611ab2611975565b5b602082029050602081019050919050565b5f5ffd5b5f5ffd5b5f5ffd5b611ad9816117bf565b8114611ae3575f5ffd5b50565b5f81359050611af481611ad0565b92915050565b5f60808284031215611b0f57611b0e611ac8565b5b611b1960806119d3565b90505f611b2884828501611ae6565b5f830152506020611b3b84828501611ae6565b6020830152506040611b4f84828501611ae6565b604083015250606082013567ffffffffffffffff811115611b7357611b72611acc565b5b611b7f84828501611a6c565b60608301525092915050565b5f611b9d611b9884611a99565b6119d3565b90508083825260208201905060208402830185811115611bc057611bbf611ac4565b5b835b81811015611c0757803567ffffffffffffffff811115611be557611be461195d565b5b808601611bf28982611afa565b85526020850194505050602081019050611bc2565b5050509392505050565b5f82601f830112611c2557611c2461195d565b5b8135611c35848260208601611b8b565b91505092915050565b5f5f5f60608486031215611c5557611c546117f9565b5b5f611c6286828701611847565b935050602084013567ffffffffffffffff811115611c8357611c826117fd565b5b611c8f86828701611a6c565b925050604084013567ffffffffffffffff811115611cb057611caf6117fd565b5b611cbc86828701611c11565b9150509250925092565b611ccf81611820565b82525050565b5f81519050919050565b5f82825260208201905092915050565b8281835e5f83830152505050565b5f611d0782611cd5565b611d118185611cdf565b9350611d21818560208601611cef565b611d2a81611965565b840191505092915050565b5f81519050919050565b5f82825260208201905092915050565b5f819050602082019050919050565b7f4e487b71000000000000000000000000000000000000000000000000000000005f52602160045260245ffd5b60038110611d9c57611d9b611d5e565b5b50565b5f819050611dac82611d8b565b919050565b5f611dbb82611d9f565b9050919050565b611dcb81611db1565b82525050565b5f60c083015f830151611de65f8601826118af565b506020830151611df960208601826118af565b506040830151611e0c60408601826118af565b506060830151611e1f60608601826118af565b5060808301518482036080860152611e378282611cfd565b91505060a0830151611e4c60a0860182611dc2565b508091505092915050565b5f611e628383611dd1565b905092915050565b5f602082019050919050565b5f611e8082611d35565b611e8a8185611d3f565b935083602082028501611e9c85611d4f565b805f5b85811015611ed75784840389528151611eb88582611e57565b9450611ec383611e6a565b925060208a01995050600181019050611e9f565b50829750879550505050505092915050565b60038110611efa57611ef9611d5e565b5b50565b5f819050611f0a82611ee9565b919050565b5f611f1982611efd565b9050919050565b611f2981611f0f565b82525050565b5f60e083015f830151611f445f8601826118af565b506020830151611f576020860182611cc6565b5060408301518482036040860152611f6f8282611cfd565b91505060608301518482036060860152611f898282611e76565b9150506080830151611f9e60808601826118af565b5060a0830151611fb160a0860182611f20565b5060c0830151611fc460c08601826118af565b508091505092915050565b5f6020820190508181035f830152611fe78184611f2f565b905092915050565b5f5f60408385031215612005576120046117f9565b5b5f61201285828601611847565b925050602061202385828601611ae6565b9150509250929050565b60038110612039575f5ffd5b50565b5f8135905061204a8161202d565b92915050565b5f5f5f60608486031215612067576120666117f9565b5b5f61207486828701611ae6565b935050602061208586828701611ae6565b92505060406120968682870161203c565b9150509250925092565b600381106120ac575f5ffd5b50565b5f813590506120bd816120a0565b92915050565b5f602082840312156120d8576120d76117f9565b5b5f6120e5848285016120af565b91505092915050565b5f81519050919050565b5f82825260208201905092915050565b5f819050602082019050919050565b5f60e083015f83015161212c5f8601826118af565b50602083015161213f6020860182611cc6565b50604083015184820360408601526121578282611cfd565b915050606083015184820360608601526121718282611e76565b915050608083015161218660808601826118af565b5060a083015161219960a0860182611f20565b5060c08301516121ac60c08601826118af565b508091505092915050565b5f6121c28383612117565b905092915050565b5f602082019050919050565b5f6121e0826120ee565b6121ea81856120f8565b9350836020820285016121fc85612108565b805f5b85811015612237578484038952815161221885826121b7565b9450612223836121ca565b925060208a019950506001810190506121ff565b50829750879550505050505092915050565b5f6020820190508181035f83015261226181846121d6565b905092915050565b5f6020828403121561227e5761227d6117f9565b5b5f61228b84828501611ae6565b91505092915050565b61229d81611820565b82525050565b5f82825260208201905092915050565b5f6122bd82611cd5565b6122c781856122a3565b93506122d7818560208601611cef565b6122e081611965565b840191505092915050565b6122f481611f0f565b82525050565b5f60c08201905061230d5f8301896117c8565b61231a6020830188612294565b818103604083015261232c81876122b3565b905061233b60608301866117c8565b61234860808301856122eb565b61235560a08301846117c8565b979650505050505050565b5f5f60408385031215612376576123756117f9565b5b5f61238385828601611ae6565b9250506020612394858286016120af565b9150509250929050565b7f4f72646572206d75737420636f6e7461696e206174206c65617374206f6e65205f8201527f6974656d00000000000000000000000000000000000000000000000000000000602082015250565b5f6123f86024836122a3565b91506124038261239e565b604082019050919050565b5f6020820190508181035f830152612425816123ec565b9050919050565b7f4e487b71000000000000000000000000000000000000000000000000000000005f52603260045260245ffd5b7f4e487b71000000000000000000000000000000000000000000000000000000005f52601160045260245ffd5b5f612490826117bf565b915061249b836117bf565b92508282026124a9816117bf565b915082820484148315176124c0576124bf612459565b5b5092915050565b5f6124d1826117bf565b91506124dc836117bf565b92508282019050808211156124f4576124f3612459565b5b92915050565b5f612504826117bf565b91507fffffffffffffffffffffffffffffffffffffffffffffffffffffffffffffffff820361253657612535612459565b5b600182019050919050565b7f4e487b71000000000000000000000000000000000000000000000000000000005f52602260045260245ffd5b5f600282049050600182168061258557607f821691505b60208210810361259857612597612541565b5b50919050565b5f819050815f5260205f209050919050565b5f6020601f8301049050919050565b5f82821b905092915050565b5f600883026125fa7fffffffffffffffffffffffffffffffffffffffffffffffffffffffffffffffff826125bf565b61260486836125bf565b95508019841693508086168417925050509392505050565b5f819050919050565b5f61263f61263a612635846117bf565b61261c565b6117bf565b9050919050565b5f819050919050565b61265883612625565b61266c61266482612646565b8484546125cb565b825550505050565b5f5f905090565b612683612674565b61268e81848461264f565b505050565b5b818110156126b1576126a65f8261267b565b600181019050612694565b5050565b601f8211156126f6576126c78161259e565b6126d0846125b0565b810160208510156126df578190505b6126f36126eb856125b0565b830182612693565b50505b505050565b5f82821c905092915050565b5f6127165f19846008026126fb565b1980831691505092915050565b5f61272e8383612707565b9150826002028217905092915050565b61274782611cd5565b67ffffffffffffffff8111156127605761275f611975565b5b61276a825461256e565b6127758282856126b5565b5f60209050601f8311600181146127a6575f8415612794578287015190505b61279e8582612723565b865550612805565b601f1984166127b48661259e565b5f5b828110156127db578489015182556001820191506020850194506020810190506127b6565b868310156127f857848901516127f4601f891682612707565b8355505b6001600288020188555050505b505050505050565b5f8154905061281b8161256e565b9050919050565b818103612830575050612905565b6128398261280d565b67ffffffffffffffff81111561285257612851611975565b5b61285c825461256e565b6128678282856126b5565b5f601f831160018114612894575f8415612882578287015490505b61288c8582612723565b8655506128fe565b601f1984166128a28761259e565b96506128ad8661259e565b5f5b828110156128d4578489015482556001820191506001850194506020810190506128af565b868310156128f157848901546128ed601f891682612707565b8355505b6001600288020188555050505b5050505050505b565b5f81519050919050565b5f82825260208201905092915050565b5f819050602082019050919050565b5f608083015f8301516129455f8601826118af565b50602083015161295860208601826118af565b50604083015161296b60408601826118af565b50606083015184820360608601526129838282611cfd565b9150508091505092915050565b5f61299b8383612930565b905092915050565b5f602082019050919050565b5f6129b982612907565b6129c38185612911565b9350836020820285016129d585612921565b805f5b85811015612a1057848403895281516129f18582612990565b94506129fc836129a3565b925060208a019950506001810190506129d8565b50829750879550505050505092915050565b5f60a082019050612a355f8301886117c8565b612a426020830187612294565b612a4f60408301866117c8565b612a5c60608301856122eb565b8181036080830152612a6e81846129af565b90509695505050505050565b7f4f7264657220646f6573206e6f742065786973740000000000000000000000005f82015250565b5f612aae6014836122a3565b9150612ab982612a7a565b602082019050919050565b5f6020820190508181035f830152612adb81612aa2565b9050919050565b7f4f72646572206974656d20616c7265616479206d61726b6564206173207375635f8201527f636573732e2043616e206e6f7420757064617465000000000000000000000000602082015250565b5f612b3c6034836122a3565b9150612b4782612ae2565b604082019050919050565b5f6020820190508181035f830152612b6981612b30565b9050919050565b5f612b7a826117bf565b9150612b85836117bf565b9250828203905081811115612b9d57612b9c612459565b5b92915050565b612bac81611db1565b82525050565b5f606082019050612bc55f8301866117c8565b612bd260208301856117c8565b612bdf6040830184612ba3565b949350505050565b5f604082019050612bfa5f8301856117c8565b612c0760208301846122eb565b939250505056fea26469706673582212209f217c20fa40bf6c2e7ccaf5dd985f3cf2d125ab989cbf5cc05be0eb019842c564736f6c634300081e0033",
					"opcodes": "PUSH1 0x80 PUSH1 0x40 MSTORE PUSH1 0x1 PUSH0 SSTORE PUSH1 0x1 PUSH1 0x2 SSTORE CALLVALUE DUP1 ISZERO PUSH1 0x17 JUMPI PUSH0 PUSH0 REVERT JUMPDEST POP PUSH2 0x2C44 DUP1 PUSH2 0x25 PUSH0 CODECOPY PUSH0 RETURN INVALID PUSH1 0x80 PUSH1 0x40 MSTORE CALLVALUE DUP1 ISZERO PUSH2 0xF JUMPI PUSH0 PUSH0 REVERT JUMPDEST POP PUSH1 0x4 CALLDATASIZE LT PUSH2 0x86 JUMPI PUSH0 CALLDATALOAD PUSH1 0xE0 SHR DUP1 PUSH4 0x8A46E8EB GT PUSH2 0x59 JUMPI DUP1 PUSH4 0x8A46E8EB EQ PUSH2 0x138 JUMPI DUP1 PUSH4 0x8CE2EC79 EQ PUSH2 0x154 JUMPI DUP1 PUSH4 0xA85C38EF EQ PUSH2 0x184 JUMPI DUP1 PUSH4 0xAAB3196D EQ PUSH2 0x1B9 JUMPI PUSH2 0x86 JUMP JUMPDEST DUP1 PUSH4 0x2A58B330 EQ PUSH2 0x8A JUMPI DUP1 PUSH4 0x63C69F08 EQ PUSH2 0xA8 JUMPI DUP1 PUSH4 0x6590209D EQ PUSH2 0xD8 JUMPI DUP1 PUSH4 0x856652E9 EQ PUSH2 0x108 JUMPI JUMPDEST PUSH0 PUSH0 REVERT JUMPDEST PUSH2 0x92 PUSH2 0x1D5 JUMP JUMPDEST PUSH1 0x40 MLOAD PUSH2 0x9F SWAP2 SWAP1 PUSH2 0x17D7 JUMP JUMPDEST PUSH1 0x40 MLOAD DUP1 SWAP2 SUB SWAP1 RETURN JUMPDEST PUSH2 0xC2 PUSH1 0x4 DUP1 CALLDATASIZE SUB DUP2 ADD SWAP1 PUSH2 0xBD SWAP2 SWAP1 PUSH2 0x185B JUMP JUMPDEST PUSH2 0x1DB JUMP JUMPDEST PUSH1 0x40 MLOAD PUSH2 0xCF SWAP2 SWAP1 PUSH2 0x193D JUMP JUMPDEST PUSH1 0x40 MLOAD DUP1 SWAP2 SUB SWAP1 RETURN JUMPDEST PUSH2 0xF2 PUSH1 0x4 DUP1 CALLDATASIZE SUB DUP2 ADD SWAP1 PUSH2 0xED SWAP2 SWAP1 PUSH2 0x1C3E JUMP JUMPDEST PUSH2 0x26E JUMP JUMPDEST PUSH1 0x40 MLOAD PUSH2 0xFF SWAP2 SWAP1 PUSH2 0x1FCF JUMP JUMPDEST PUSH1 0x40 MLOAD DUP1 SWAP2 SUB SWAP1 RETURN JUMPDEST PUSH2 0x122 PUSH1 0x4 DUP1 CALLDATASIZE SUB DUP2 ADD SWAP1 PUSH2 0x11D SWAP2 SWAP1 PUSH2 0x1FEF JUMP JUMPDEST PUSH2 0xA41 JUMP JUMPDEST PUSH1 0x40 MLOAD PUSH2 0x12F SWAP2 SWAP1 PUSH2 0x17D7 JUMP JUMPDEST PUSH1 0x40 MLOAD DUP1 SWAP2 SUB SWAP1 RETURN JUMPDEST PUSH2 0x152 PUSH1 0x4 DUP1 CALLDATASIZE SUB DUP2 ADD SWAP1 PUSH2 0x14D SWAP2 SWAP1 PUSH2 0x2050 JUMP JUMPDEST PUSH2 0xA6C JUMP JUMPDEST STOP JUMPDEST PUSH2 0x16E PUSH1 0x4 DUP1 CALLDATASIZE SUB DUP2 ADD SWAP1 PUSH2 0x169 SWAP2 SWAP1 PUSH2 0x20C3 JUMP JUMPDEST PUSH2 0xFD3 JUMP JUMPDEST PUSH1 0x40 MLOAD PUSH2 0x17B SWAP2 SWAP1 PUSH2 0x2249 JUMP JUMPDEST PUSH1 0x40 MLOAD DUP1 SWAP2 SUB SWAP1 RETURN JUMPDEST PUSH2 0x19E PUSH1 0x4 DUP1 CALLDATASIZE SUB DUP2 ADD SWAP1 PUSH2 0x199 SWAP2 SWAP1 PUSH2 0x2269 JUMP JUMPDEST PUSH2 0x13F0 JUMP JUMPDEST PUSH1 0x40 MLOAD PUSH2 0x1B0 SWAP7 SWAP6 SWAP5 SWAP4 SWAP3 SWAP2 SWAP1 PUSH2 0x22FA JUMP JUMPDEST PUSH1 0x40 MLOAD DUP1 SWAP2 SUB SWAP1 RETURN JUMPDEST PUSH2 0x1D3 PUSH1 0x4 DUP1 CALLDATASIZE SUB DUP2 ADD SWAP1 PUSH2 0x1CE SWAP2 SWAP1 PUSH2 0x2360 JUMP JUMPDEST PUSH2 0x14D9 JUMP JUMPDEST STOP JUMPDEST PUSH1 0x2 SLOAD DUP2 JUMP JUMPDEST PUSH1 0x60 PUSH1 0x3 PUSH0 DUP4 PUSH20 0xFFFFFFFFFFFFFFFFFFFFFFFFFFFFFFFFFFFFFFFF AND PUSH20 0xFFFFFFFFFFFFFFFFFFFFFFFFFFFFFFFFFFFFFFFF AND DUP2 MSTORE PUSH1 0x20 ADD SWAP1 DUP2 MSTORE PUSH1 0x20 ADD PUSH0 KECCAK256 DUP1 SLOAD DUP1 PUSH1 0x20 MUL PUSH1 0x20 ADD PUSH1 0x40 MLOAD SWAP1 DUP2 ADD PUSH1 0x40 MSTORE DUP1 SWAP3 SWAP2 SWAP1 DUP2 DUP2 MSTORE PUSH1 0x20 ADD DUP3 DUP1 SLOAD DUP1 ISZERO PUSH2 0x262 JUMPI PUSH1 0x20 MUL DUP3 ADD SWAP2 SWAP1 PUSH0 MSTORE PUSH1 0x20 PUSH0 KECCAK256 SWAP1 JUMPDEST DUP2 SLOAD DUP2 MSTORE PUSH1 0x20 ADD SWAP1 PUSH1 0x1 ADD SWAP1 DUP1 DUP4 GT PUSH2 0x24E JUMPI JUMPDEST POP POP POP POP POP SWAP1 POP SWAP2 SWAP1 POP JUMP JUMPDEST PUSH2 0x276 PUSH2 0x15A6 JUMP JUMPDEST PUSH0 DUP3 MLOAD GT PUSH2 0x2B9 JUMPI PUSH1 0x40 MLOAD PUSH32 0x8C379A000000000000000000000000000000000000000000000000000000000 DUP2 MSTORE PUSH1 0x4 ADD PUSH2 0x2B0 SWAP1 PUSH2 0x240E JUMP JUMPDEST PUSH1 0x40 MLOAD DUP1 SWAP2 SUB SWAP1 REVERT JUMPDEST PUSH0 PUSH0 SWAP1 POP PUSH0 DUP4 MLOAD PUSH8 0xFFFFFFFFFFFFFFFF DUP2 GT ISZERO PUSH2 0x2D9 JUMPI PUSH2 0x2D8 PUSH2 0x1975 JUMP JUMPDEST JUMPDEST PUSH1 0x40 MLOAD SWAP1 DUP1 DUP3 MSTORE DUP1 PUSH1 0x20 MUL PUSH1 0x20 ADD DUP3 ADD PUSH1 0x40 MSTORE DUP1 ISZERO PUSH2 0x312 JUMPI DUP2 PUSH1 0x20 ADD JUMPDEST PUSH2 0x2FF PUSH2 0x1606 JUMP JUMPDEST DUP2 MSTORE PUSH1 0x20 ADD SWAP1 PUSH1 0x1 SWAP1 SUB SWAP1 DUP2 PUSH2 0x2F7 JUMPI SWAP1 POP JUMPDEST POP SWAP1 POP PUSH0 PUSH0 SWAP1 POP JUMPDEST DUP5 MLOAD DUP2 LT ISZERO PUSH2 0x46D JUMPI DUP5 DUP2 DUP2 MLOAD DUP2 LT PUSH2 0x336 JUMPI PUSH2 0x335 PUSH2 0x242C JUMP JUMPDEST JUMPDEST PUSH1 0x20 MUL PUSH1 0x20 ADD ADD MLOAD PUSH1 0x20 ADD MLOAD DUP6 DUP3 DUP2 MLOAD DUP2 LT PUSH2 0x355 JUMPI PUSH2 0x354 PUSH2 0x242C JUMP JUMPDEST JUMPDEST PUSH1 0x20 MUL PUSH1 0x20 ADD ADD MLOAD PUSH1 0x40 ADD MLOAD PUSH2 0x36B SWAP2 SWAP1 PUSH2 0x2486 JUMP JUMPDEST DUP4 PUSH2 0x376 SWAP2 SWAP1 PUSH2 0x24C7 JUMP JUMPDEST SWAP3 POP PUSH1 0x40 MLOAD DUP1 PUSH1 0xC0 ADD PUSH1 0x40 MSTORE DUP1 PUSH0 PUSH0 DUP2 SLOAD DUP1 SWAP3 SWAP2 SWAP1 PUSH2 0x394 SWAP1 PUSH2 0x24FA JUMP JUMPDEST SWAP2 SWAP1 POP SSTORE DUP2 MSTORE PUSH1 0x20 ADD DUP7 DUP4 DUP2 MLOAD DUP2 LT PUSH2 0x3B0 JUMPI PUSH2 0x3AF PUSH2 0x242C JUMP JUMPDEST JUMPDEST PUSH1 0x20 MUL PUSH1 0x20 ADD ADD MLOAD PUSH0 ADD MLOAD DUP2 MSTORE PUSH1 0x20 ADD DUP7 DUP4 DUP2 MLOAD DUP2 LT PUSH2 0x3D3 JUMPI PUSH2 0x3D2 PUSH2 0x242C JUMP JUMPDEST JUMPDEST PUSH1 0x20 MUL PUSH1 0x20 ADD ADD MLOAD PUSH1 0x20 ADD MLOAD DUP2 MSTORE PUSH1 0x20 ADD DUP7 DUP4 DUP2 MLOAD DUP2 LT PUSH2 0x3F7 JUMPI PUSH2 0x3F6 PUSH2 0x242C JUMP JUMPDEST JUMPDEST PUSH1 0x20 MUL PUSH1 0x20 ADD ADD MLOAD PUSH1 0x40 ADD MLOAD DUP2 MSTORE PUSH1 0x20 ADD DUP7 DUP4 DUP2 MLOAD DUP2 LT PUSH2 0x41B JUMPI PUSH2 0x41A PUSH2 0x242C JUMP JUMPDEST JUMPDEST PUSH1 0x20 MUL PUSH1 0x20 ADD ADD MLOAD PUSH1 0x60 ADD MLOAD DUP2 MSTORE PUSH1 0x20 ADD PUSH1 0x2 DUP1 DUP2 GT ISZERO PUSH2 0x43F JUMPI PUSH2 0x43E PUSH2 0x1D5E JUMP JUMPDEST JUMPDEST DUP2 MSTORE POP DUP3 DUP3 DUP2 MLOAD DUP2 LT PUSH2 0x455 JUMPI PUSH2 0x454 PUSH2 0x242C JUMP JUMPDEST JUMPDEST PUSH1 0x20 MUL PUSH1 0x20 ADD ADD DUP2 SWAP1 MSTORE POP DUP1 DUP1 PUSH1 0x1 ADD SWAP2 POP POP PUSH2 0x31A JUMP JUMPDEST POP PUSH0 PUSH1 0x2 PUSH0 DUP2 SLOAD DUP1 SWAP3 SWAP2 SWAP1 PUSH2 0x481 SWAP1 PUSH2 0x24FA JUMP JUMPDEST SWAP2 SWAP1 POP SSTORE SWAP1 POP PUSH0 PUSH1 0x1 PUSH0 DUP4 DUP2 MSTORE PUSH1 0x20 ADD SWAP1 DUP2 MSTORE PUSH1 0x20 ADD PUSH0 KECCAK256 SWAP1 POP DUP2 DUP2 PUSH0 ADD DUP2 SWAP1 SSTORE POP DUP8 DUP2 PUSH1 0x1 ADD PUSH0 PUSH2 0x100 EXP DUP2 SLOAD DUP2 PUSH20 0xFFFFFFFFFFFFFFFFFFFFFFFFFFFFFFFFFFFFFFFF MUL NOT AND SWAP1 DUP4 PUSH20 0xFFFFFFFFFFFFFFFFFFFFFFFFFFFFFFFFFFFFFFFF AND MUL OR SWAP1 SSTORE POP DUP7 DUP2 PUSH1 0x2 ADD SWAP1 DUP2 PUSH2 0x4F6 SWAP2 SWAP1 PUSH2 0x273E JUMP JUMPDEST POP DUP4 DUP2 PUSH1 0x4 ADD DUP2 SWAP1 SSTORE POP PUSH0 DUP2 PUSH1 0x5 ADD PUSH0 PUSH2 0x100 EXP DUP2 SLOAD DUP2 PUSH1 0xFF MUL NOT AND SWAP1 DUP4 PUSH1 0x2 DUP2 GT ISZERO PUSH2 0x526 JUMPI PUSH2 0x525 PUSH2 0x1D5E JUMP JUMPDEST JUMPDEST MUL OR SWAP1 SSTORE POP TIMESTAMP DUP2 PUSH1 0x6 ADD DUP2 SWAP1 SSTORE POP PUSH0 PUSH0 SWAP1 POP JUMPDEST DUP4 MLOAD DUP2 LT ISZERO PUSH2 0x601 JUMPI DUP2 PUSH1 0x3 ADD DUP5 DUP3 DUP2 MLOAD DUP2 LT PUSH2 0x559 JUMPI PUSH2 0x558 PUSH2 0x242C JUMP JUMPDEST JUMPDEST PUSH1 0x20 MUL PUSH1 0x20 ADD ADD MLOAD SWAP1 DUP1 PUSH1 0x1 DUP2 SLOAD ADD DUP1 DUP3 SSTORE DUP1 SWAP2 POP POP PUSH1 0x1 SWAP1 SUB SWAP1 PUSH0 MSTORE PUSH1 0x20 PUSH0 KECCAK256 SWAP1 PUSH1 0x6 MUL ADD PUSH0 SWAP1 SWAP2 SWAP1 SWAP2 SWAP1 SWAP2 POP PUSH0 DUP3 ADD MLOAD DUP2 PUSH0 ADD SSTORE PUSH1 0x20 DUP3 ADD MLOAD DUP2 PUSH1 0x1 ADD SSTORE PUSH1 0x40 DUP3 ADD MLOAD DUP2 PUSH1 0x2 ADD SSTORE PUSH1 0x60 DUP3 ADD MLOAD DUP2 PUSH1 0x3 ADD SSTORE PUSH1 0x80 DUP3 ADD MLOAD DUP2 PUSH1 0x4 ADD SWAP1 DUP2 PUSH2 0x5C2 SWAP2 SWAP1 PUSH2 0x273E JUMP JUMPDEST POP PUSH1 0xA0 DUP3 ADD MLOAD DUP2 PUSH1 0x5 ADD PUSH0 PUSH2 0x100 EXP DUP2 SLOAD DUP2 PUSH1 0xFF MUL NOT AND SWAP1 DUP4 PUSH1 0x2 DUP2 GT ISZERO PUSH2 0x5ED JUMPI PUSH2 0x5EC PUSH2 0x1D5E JUMP JUMPDEST JUMPDEST MUL OR SWAP1 SSTORE POP POP POP DUP1 DUP1 PUSH1 0x1 ADD SWAP2 POP POP PUSH2 0x539 JUMP JUMPDEST POP DUP1 PUSH1 0x1 PUSH0 DUP5 DUP2 MSTORE PUSH1 0x20 ADD SWAP1 DUP2 MSTORE PUSH1 0x20 ADD PUSH0 KECCAK256 PUSH0 DUP3 ADD SLOAD DUP2 PUSH0 ADD SSTORE PUSH1 0x1 DUP3 ADD PUSH0 SWAP1 SLOAD SWAP1 PUSH2 0x100 EXP SWAP1 DIV PUSH20 0xFFFFFFFFFFFFFFFFFFFFFFFFFFFFFFFFFFFFFFFF AND DUP2 PUSH1 0x1 ADD PUSH0 PUSH2 0x100 EXP DUP2 SLOAD DUP2 PUSH20 0xFFFFFFFFFFFFFFFFFFFFFFFFFFFFFFFFFFFFFFFF MUL NOT AND SWAP1 DUP4 PUSH20 0xFFFFFFFFFFFFFFFFFFFFFFFFFFFFFFFFFFFFFFFF AND MUL OR SWAP1 SSTORE POP PUSH1 0x2 DUP3 ADD DUP2 PUSH1 0x2 ADD SWAP1 DUP2 PUSH2 0x695 SWAP2 SWAP1 PUSH2 0x2822 JUMP JUMPDEST POP PUSH1 0x3 DUP3 ADD DUP2 PUSH1 0x3 ADD SWAP1 DUP1 SLOAD PUSH2 0x6AC SWAP3 SWAP2 SWAP1 PUSH2 0x1649 JUMP JUMPDEST POP PUSH1 0x4 DUP3 ADD SLOAD DUP2 PUSH1 0x4 ADD SSTORE PUSH1 0x5 DUP3 ADD PUSH0 SWAP1 SLOAD SWAP1 PUSH2 0x100 EXP SWAP1 DIV PUSH1 0xFF AND DUP2 PUSH1 0x5 ADD PUSH0 PUSH2 0x100 EXP DUP2 SLOAD DUP2 PUSH1 0xFF MUL NOT AND SWAP1 DUP4 PUSH1 0x2 DUP2 GT ISZERO PUSH2 0x6ED JUMPI PUSH2 0x6EC PUSH2 0x1D5E JUMP JUMPDEST JUMPDEST MUL OR SWAP1 SSTORE POP PUSH1 0x6 DUP3 ADD SLOAD DUP2 PUSH1 0x6 ADD SSTORE SWAP1 POP POP PUSH1 0x3 PUSH0 DUP10 PUSH20 0xFFFFFFFFFFFFFFFFFFFFFFFFFFFFFFFFFFFFFFFF AND PUSH20 0xFFFFFFFFFFFFFFFFFFFFFFFFFFFFFFFFFFFFFFFF AND DUP2 MSTORE PUSH1 0x20 ADD SWAP1 DUP2 MSTORE PUSH1 0x20 ADD PUSH0 KECCAK256 DUP3 SWAP1 DUP1 PUSH1 0x1 DUP2 SLOAD ADD DUP1 DUP3 SSTORE DUP1 SWAP2 POP POP PUSH1 0x1 SWAP1 SUB SWAP1 PUSH0 MSTORE PUSH1 0x20 PUSH0 KECCAK256 ADD PUSH0 SWAP1 SWAP2 SWAP1 SWAP2 SWAP1 SWAP2 POP SSTORE PUSH32 0x775F96371002AFBE57D2480D177685C05526801BF220210DE69B14801AB7738 DUP3 DUP10 DUP7 PUSH0 DUP11 PUSH1 0x40 MLOAD PUSH2 0x797 SWAP6 SWAP5 SWAP4 SWAP3 SWAP2 SWAP1 PUSH2 0x2A22 JUMP JUMPDEST PUSH1 0x40 MLOAD DUP1 SWAP2 SUB SWAP1 LOG1 DUP1 PUSH1 0x40 MLOAD DUP1 PUSH1 0xE0 ADD PUSH1 0x40 MSTORE SWAP1 DUP2 PUSH0 DUP3 ADD SLOAD DUP2 MSTORE PUSH1 0x20 ADD PUSH1 0x1 DUP3 ADD PUSH0 SWAP1 SLOAD SWAP1 PUSH2 0x100 EXP SWAP1 DIV PUSH20 0xFFFFFFFFFFFFFFFFFFFFFFFFFFFFFFFFFFFFFFFF AND PUSH20 0xFFFFFFFFFFFFFFFFFFFFFFFFFFFFFFFFFFFFFFFF AND PUSH20 0xFFFFFFFFFFFFFFFFFFFFFFFFFFFFFFFFFFFFFFFF AND DUP2 MSTORE PUSH1 0x20 ADD PUSH1 0x2 DUP3 ADD DUP1 SLOAD PUSH2 0x819 SWAP1 PUSH2 0x256E JUMP JUMPDEST DUP1 PUSH1 0x1F ADD PUSH1 0x20 DUP1 SWAP2 DIV MUL PUSH1 0x20 ADD PUSH1 0x40 MLOAD SWAP1 DUP2 ADD PUSH1 0x40 MSTORE DUP1 SWAP3 SWAP2 SWAP1 DUP2 DUP2 MSTORE PUSH1 0x20 ADD DUP3 DUP1 SLOAD PUSH2 0x845 SWAP1 PUSH2 0x256E JUMP JUMPDEST DUP1 ISZERO PUSH2 0x890 JUMPI DUP1 PUSH1 0x1F LT PUSH2 0x867 JUMPI PUSH2 0x100 DUP1 DUP4 SLOAD DIV MUL DUP4 MSTORE SWAP2 PUSH1 0x20 ADD SWAP2 PUSH2 0x890 JUMP JUMPDEST DUP3 ADD SWAP2 SWAP1 PUSH0 MSTORE PUSH1 0x20 PUSH0 KECCAK256 SWAP1 JUMPDEST DUP2 SLOAD DUP2 MSTORE SWAP1 PUSH1 0x1 ADD SWAP1 PUSH1 0x20 ADD DUP1 DUP4 GT PUSH2 0x873 JUMPI DUP3 SWAP1 SUB PUSH1 0x1F AND DUP3 ADD SWAP2 JUMPDEST POP POP POP POP POP DUP2 MSTORE PUSH1 0x20 ADD PUSH1 0x3 DUP3 ADD DUP1 SLOAD DUP1 PUSH1 0x20 MUL PUSH1 0x20 ADD PUSH1 0x40 MLOAD SWAP1 DUP2 ADD PUSH1 0x40 MSTORE DUP1 SWAP3 SWAP2 SWAP1 DUP2 DUP2 MSTORE PUSH1 0x20 ADD PUSH0 SWAP1 JUMPDEST DUP3 DUP3 LT ISZERO PUSH2 0x9DE JUMPI DUP4 DUP3 SWAP1 PUSH0 MSTORE PUSH1 0x20 PUSH0 KECCAK256 SWAP1 PUSH1 0x6 MUL ADD PUSH1 0x40 MLOAD DUP1 PUSH1 0xC0 ADD PUSH1 0x40 MSTORE SWAP1 DUP2 PUSH0 DUP3 ADD SLOAD DUP2 MSTORE PUSH1 0x20 ADD PUSH1 0x1 DUP3 ADD SLOAD DUP2 MSTORE PUSH1 0x20 ADD PUSH1 0x2 DUP3 ADD SLOAD DUP2 MSTORE PUSH1 0x20 ADD PUSH1 0x3 DUP3 ADD SLOAD DUP2 MSTORE PUSH1 0x20 ADD PUSH1 0x4 DUP3 ADD DUP1 SLOAD PUSH2 0x915 SWAP1 PUSH2 0x256E JUMP JUMPDEST DUP1 PUSH1 0x1F ADD PUSH1 0x20 DUP1 SWAP2 DIV MUL PUSH1 0x20 ADD PUSH1 0x40 MLOAD SWAP1 DUP2 ADD PUSH1 0x40 MSTORE DUP1 SWAP3 SWAP2 SWAP1 DUP2 DUP2 MSTORE PUSH1 0x20 ADD DUP3 DUP1 SLOAD PUSH2 0x941 SWAP1 PUSH2 0x256E JUMP JUMPDEST DUP1 ISZERO PUSH2 0x98C JUMPI DUP1 PUSH1 0x1F LT PUSH2 0x963 JUMPI PUSH2 0x100 DUP1 DUP4 SLOAD DIV MUL DUP4 MSTORE SWAP2 PUSH1 0x20 ADD SWAP2 PUSH2 0x98C JUMP JUMPDEST DUP3 ADD SWAP2 SWAP1 PUSH0 MSTORE PUSH1 0x20 PUSH0 KECCAK256 SWAP1 JUMPDEST DUP2 SLOAD DUP2 MSTORE SWAP1 PUSH1 0x1 ADD SWAP1 PUSH1 0x20 ADD DUP1 DUP4 GT PUSH2 0x96F JUMPI DUP3 SWAP1 SUB PUSH1 0x1F AND DUP3 ADD SWAP2 JUMPDEST POP POP POP POP POP DUP2 MSTORE PUSH1 0x20 ADD PUSH1 0x5 DUP3 ADD PUSH0 SWAP1 SLOAD SWAP1 PUSH2 0x100 EXP SWAP1 DIV PUSH1 0xFF AND PUSH1 0x2 DUP2 GT ISZERO PUSH2 0x9B9 JUMPI PUSH2 0x9B8 PUSH2 0x1D5E JUMP JUMPDEST JUMPDEST PUSH1 0x2 DUP2 GT ISZERO PUSH2 0x9CB JUMPI PUSH2 0x9CA PUSH2 0x1D5E JUMP JUMPDEST JUMPDEST DUP2 MSTORE POP POP DUP2 MSTORE PUSH1 0x20 ADD SWAP1 PUSH1 0x1 ADD SWAP1 PUSH2 0x8BD JUMP JUMPDEST POP POP POP POP DUP2 MSTORE PUSH1 0x20 ADD PUSH1 0x4 DUP3 ADD SLOAD DUP2 MSTORE PUSH1 0x20 ADD PUSH1 0x5 DUP3 ADD PUSH0 SWAP1 SLOAD SWAP1 PUSH2 0x100 EXP SWAP1 DIV PUSH1 0xFF AND PUSH1 0x2 DUP2 GT ISZERO PUSH2 0xA14 JUMPI PUSH2 0xA13 PUSH2 0x1D5E JUMP JUMPDEST JUMPDEST PUSH1 0x2 DUP2 GT ISZERO PUSH2 0xA26 JUMPI PUSH2 0xA25 PUSH2 0x1D5E JUMP JUMPDEST JUMPDEST DUP2 MSTORE PUSH1 0x20 ADD PUSH1 0x6 DUP3 ADD SLOAD DUP2 MSTORE POP POP SWAP5 POP POP POP POP POP SWAP4 SWAP3 POP POP POP JUMP JUMPDEST PUSH1 0x3 PUSH1 0x20 MSTORE DUP2 PUSH0 MSTORE PUSH1 0x40 PUSH0 KECCAK256 DUP2 DUP2 SLOAD DUP2 LT PUSH2 0xA5A JUMPI PUSH0 DUP1 REVERT JUMPDEST SWAP1 PUSH0 MSTORE PUSH1 0x20 PUSH0 KECCAK256 ADD PUSH0 SWAP2 POP SWAP2 POP POP SLOAD DUP2 JUMP JUMPDEST PUSH0 PUSH1 0x1 PUSH0 DUP6 DUP2 MSTORE PUSH1 0x20 ADD SWAP1 DUP2 MSTORE PUSH1 0x20 ADD PUSH0 KECCAK256 PUSH0 ADD SLOAD SUB PUSH2 0xAC1 JUMPI PUSH1 0x40 MLOAD PUSH32 0x8C379A000000000000000000000000000000000000000000000000000000000 DUP2 MSTORE PUSH1 0x4 ADD PUSH2 0xAB8 SWAP1 PUSH2 0x2AC4 JUMP JUMPDEST PUSH1 0x40 MLOAD DUP1 SWAP2 SUB SWAP1 REVERT JUMPDEST PUSH0 PUSH1 0x1 PUSH0 DUP6 DUP2 MSTORE PUSH1 0x20 ADD SWAP1 DUP2 MSTORE PUSH1 0x20 ADD PUSH0 KECCAK256 PUSH1 0x40 MLOAD DUP1 PUSH1 0xE0 ADD PUSH1 0x40 MSTORE SWAP1 DUP2 PUSH0 DUP3 ADD SLOAD DUP2 MSTORE PUSH1 0x20 ADD PUSH1 0x1 DUP3 ADD PUSH0 SWAP1 SLOAD SWAP1 PUSH2 0x100 EXP SWAP1 DIV PUSH20 0xFFFFFFFFFFFFFFFFFFFFFFFFFFFFFFFFFFFFFFFF AND PUSH20 0xFFFFFFFFFFFFFFFFFFFFFFFFFFFFFFFFFFFFFFFF AND PUSH20 0xFFFFFFFFFFFFFFFFFFFFFFFFFFFFFFFFFFFFFFFF AND DUP2 MSTORE PUSH1 0x20 ADD PUSH1 0x2 DUP3 ADD DUP1 SLOAD PUSH2 0xB4C SWAP1 PUSH2 0x256E JUMP JUMPDEST DUP1 PUSH1 0x1F ADD PUSH1 0x20 DUP1 SWAP2 DIV MUL PUSH1 0x20 ADD PUSH1 0x40 MLOAD SWAP1 DUP2 ADD PUSH1 0x40 MSTORE DUP1 SWAP3 SWAP2 SWAP1 DUP2 DUP2 MSTORE PUSH1 0x20 ADD DUP3 DUP1 SLOAD PUSH2 0xB78 SWAP1 PUSH2 0x256E JUMP JUMPDEST DUP1 ISZERO PUSH2 0xBC3 JUMPI DUP1 PUSH1 0x1F LT PUSH2 0xB9A JUMPI PUSH2 0x100 DUP1 DUP4 SLOAD DIV MUL DUP4 MSTORE SWAP2 PUSH1 0x20 ADD SWAP2 PUSH2 0xBC3 JUMP JUMPDEST DUP3 ADD SWAP2 SWAP1 PUSH0 MSTORE PUSH1 0x20 PUSH0 KECCAK256 SWAP1 JUMPDEST DUP2 SLOAD DUP2 MSTORE SWAP1 PUSH1 0x1 ADD SWAP1 PUSH1 0x20 ADD DUP1 DUP4 GT PUSH2 0xBA6 JUMPI DUP3 SWAP1 SUB PUSH1 0x1F AND DUP3 ADD SWAP2 JUMPDEST POP POP POP POP POP DUP2 MSTORE PUSH1 0x20 ADD PUSH1 0x3 DUP3 ADD DUP1 SLOAD DUP1 PUSH1 0x20 MUL PUSH1 0x20 ADD PUSH1 0x40 MLOAD SWAP1 DUP2 ADD PUSH1 0x40 MSTORE DUP1 SWAP3 SWAP2 SWAP1 DUP2 DUP2 MSTORE PUSH1 0x20 ADD PUSH0 SWAP1 JUMPDEST DUP3 DUP3 LT ISZERO PUSH2 0xD11 JUMPI DUP4 DUP3 SWAP1 PUSH0 MSTORE PUSH1 0x20 PUSH0 KECCAK256 SWAP1 PUSH1 0x6 MUL ADD PUSH1 0x40 MLOAD DUP1 PUSH1 0xC0 ADD PUSH1 0x40 MSTORE SWAP1 DUP2 PUSH0 DUP3 ADD SLOAD DUP2 MSTORE PUSH1 0x20 ADD PUSH1 0x1 DUP3 ADD SLOAD DUP2 MSTORE PUSH1 0x20 ADD PUSH1 0x2 DUP3 ADD SLOAD DUP2 MSTORE PUSH1 0x20 ADD PUSH1 0x3 DUP3 ADD SLOAD DUP2 MSTORE PUSH1 0x20 ADD PUSH1 0x4 DUP3 ADD DUP1 SLOAD PUSH2 0xC48 SWAP1 PUSH2 0x256E JUMP JUMPDEST DUP1 PUSH1 0x1F ADD PUSH1 0x20 DUP1 SWAP2 DIV MUL PUSH1 0x20 ADD PUSH1 0x40 MLOAD SWAP1 DUP2 ADD PUSH1 0x40 MSTORE DUP1 SWAP3 SWAP2 SWAP1 DUP2 DUP2 MSTORE PUSH1 0x20 ADD DUP3 DUP1 SLOAD PUSH2 0xC74 SWAP1 PUSH2 0x256E JUMP JUMPDEST DUP1 ISZERO PUSH2 0xCBF JUMPI DUP1 PUSH1 0x1F LT PUSH2 0xC96 JUMPI PUSH2 0x100 DUP1 DUP4 SLOAD DIV MUL DUP4 MSTORE SWAP2 PUSH1 0x20 ADD SWAP2 PUSH2 0xCBF JUMP JUMPDEST DUP3 ADD SWAP2 SWAP1 PUSH0 MSTORE PUSH1 0x20 PUSH0 KECCAK256 SWAP1 JUMPDEST DUP2 SLOAD DUP2 MSTORE SWAP1 PUSH1 0x1 ADD SWAP1 PUSH1 0x20 ADD DUP1 DUP4 GT PUSH2 0xCA2 JUMPI DUP3 SWAP1 SUB PUSH1 0x1F AND DUP3 ADD SWAP2 JUMPDEST POP POP POP POP POP DUP2 MSTORE PUSH1 0x20 ADD PUSH1 0x5 DUP3 ADD PUSH0 SWAP1 SLOAD SWAP1 PUSH2 0x100 EXP SWAP1 DIV PUSH1 0xFF AND PUSH1 0x2 DUP2 GT ISZERO PUSH2 0xCEC JUMPI PUSH2 0xCEB PUSH2 0x1D5E JUMP JUMPDEST JUMPDEST PUSH1 0x2 DUP2 GT ISZERO PUSH2 0xCFE JUMPI PUSH2 0xCFD PUSH2 0x1D5E JUMP JUMPDEST JUMPDEST DUP2 MSTORE POP POP DUP2 MSTORE PUSH1 0x20 ADD SWAP1 PUSH1 0x1 ADD SWAP1 PUSH2 0xBF0 JUMP JUMPDEST POP POP POP POP DUP2 MSTORE PUSH1 0x20 ADD PUSH1 0x4 DUP3 ADD SLOAD DUP2 MSTORE PUSH1 0x20 ADD PUSH1 0x5 DUP3 ADD PUSH0 SWAP1 SLOAD SWAP1 PUSH2 0x100 EXP SWAP1 DIV PUSH1 0xFF AND PUSH1 0x2 DUP2 GT ISZERO PUSH2 0xD47 JUMPI PUSH2 0xD46 PUSH2 0x1D5E JUMP JUMPDEST JUMPDEST PUSH1 0x2 DUP2 GT ISZERO PUSH2 0xD59 JUMPI PUSH2 0xD58 PUSH2 0x1D5E JUMP JUMPDEST JUMPDEST DUP2 MSTORE PUSH1 0x20 ADD PUSH1 0x6 DUP3 ADD SLOAD DUP2 MSTORE POP POP SWAP1 POP PUSH0 PUSH0 SWAP1 POP JUMPDEST DUP2 PUSH1 0x60 ADD MLOAD MLOAD DUP2 LT ISZERO PUSH2 0xF91 JUMPI DUP4 PUSH1 0x1 PUSH0 DUP7 DUP2 MSTORE PUSH1 0x20 ADD SWAP1 DUP2 MSTORE PUSH1 0x20 ADD PUSH0 KECCAK256 PUSH1 0x3 ADD DUP3 DUP2 SLOAD DUP2 LT PUSH2 0xDA2 JUMPI PUSH2 0xDA1 PUSH2 0x242C JUMP JUMPDEST JUMPDEST SWAP1 PUSH0 MSTORE PUSH1 0x20 PUSH0 KECCAK256 SWAP1 PUSH1 0x6 MUL ADD PUSH0 ADD SLOAD SUB PUSH2 0xF84 JUMPI PUSH0 PUSH1 0x2 DUP2 GT ISZERO PUSH2 0xDC9 JUMPI PUSH2 0xDC8 PUSH2 0x1D5E JUMP JUMPDEST JUMPDEST DUP3 PUSH1 0x60 ADD MLOAD DUP3 DUP2 MLOAD DUP2 LT PUSH2 0xDE0 JUMPI PUSH2 0xDDF PUSH2 0x242C JUMP JUMPDEST JUMPDEST PUSH1 0x20 MUL PUSH1 0x20 ADD ADD MLOAD PUSH1 0xA0 ADD MLOAD PUSH1 0x2 DUP2 GT ISZERO PUSH2 0xDFE JUMPI PUSH2 0xDFD PUSH2 0x1D5E JUMP JUMPDEST JUMPDEST SUB PUSH2 0xE3E JUMPI PUSH1 0x40 MLOAD PUSH32 0x8C379A000000000000000000000000000000000000000000000000000000000 DUP2 MSTORE PUSH1 0x4 ADD PUSH2 0xE35 SWAP1 PUSH2 0x2B52 JUMP JUMPDEST PUSH1 0x40 MLOAD DUP1 SWAP2 SUB SWAP1 REVERT JUMPDEST DUP3 PUSH1 0x1 PUSH0 DUP8 DUP2 MSTORE PUSH1 0x20 ADD SWAP1 DUP2 MSTORE PUSH1 0x20 ADD PUSH0 KECCAK256 PUSH1 0x3 ADD DUP3 DUP2 SLOAD DUP2 LT PUSH2 0xE65 JUMPI PUSH2 0xE64 PUSH2 0x242C JUMP JUMPDEST JUMPDEST SWAP1 PUSH0 MSTORE PUSH1 0x20 PUSH0 KECCAK256 SWAP1 PUSH1 0x6 MUL ADD PUSH1 0x5 ADD PUSH0 PUSH2 0x100 EXP DUP2 SLOAD DUP2 PUSH1 0xFF MUL NOT AND SWAP1 DUP4 PUSH1 0x2 DUP2 GT ISZERO PUSH2 0xE95 JUMPI PUSH2 0xE94 PUSH2 0x1D5E JUMP JUMPDEST JUMPDEST MUL OR SWAP1 SSTORE POP PUSH0 PUSH1 0x2 DUP2 GT ISZERO PUSH2 0xEAD JUMPI PUSH2 0xEAC PUSH2 0x1D5E JUMP JUMPDEST JUMPDEST DUP4 PUSH1 0x2 DUP2 GT ISZERO PUSH2 0xEC0 JUMPI PUSH2 0xEBF PUSH2 0x1D5E JUMP JUMPDEST JUMPDEST EQ PUSH2 0xF33 JUMPI DUP2 PUSH1 0x60 ADD MLOAD DUP2 DUP2 MLOAD DUP2 LT PUSH2 0xEDC JUMPI PUSH2 0xEDB PUSH2 0x242C JUMP JUMPDEST JUMPDEST PUSH1 0x20 MUL PUSH1 0x20 ADD ADD MLOAD PUSH1 0x40 ADD MLOAD PUSH1 0x1 PUSH0 DUP8 DUP2 MSTORE PUSH1 0x20 ADD SWAP1 DUP2 MSTORE PUSH1 0x20 ADD PUSH0 KECCAK256 PUSH1 0x3 ADD DUP3 DUP2 SLOAD DUP2 LT PUSH2 0xF0E JUMPI PUSH2 0xF0D PUSH2 0x242C JUMP JUMPDEST JUMPDEST SWAP1 PUSH0 MSTORE PUSH1 0x20 PUSH0 KECCAK256 SWAP1 PUSH1 0x6 MUL ADD PUSH1 0x2 ADD PUSH0 DUP3 DUP3 SLOAD PUSH2 0xF2B SWAP2 SWAP1 PUSH2 0x2B70 JUMP JUMPDEST SWAP3 POP POP DUP2 SWAP1 SSTORE POP JUMPDEST DUP2 PUSH1 0x60 ADD MLOAD DUP2 DUP2 MLOAD DUP2 LT PUSH2 0xF4A JUMPI PUSH2 0xF49 PUSH2 0x242C JUMP JUMPDEST JUMPDEST PUSH1 0x20 MUL PUSH1 0x20 ADD ADD MLOAD PUSH1 0x60 ADD MLOAD PUSH1 0x1 PUSH0 DUP8 DUP2 MSTORE PUSH1 0x20 ADD SWAP1 DUP2 MSTORE PUSH1 0x20 ADD PUSH0 KECCAK256 PUSH1 0x4 ADD PUSH0 DUP3 DUP3 SLOAD PUSH2 0xF78 SWAP2 SWAP1 PUSH2 0x2B70 JUMP JUMPDEST SWAP3 POP POP DUP2 SWAP1 SSTORE POP PUSH2 0xF91 JUMP JUMPDEST DUP1 DUP1 PUSH1 0x1 ADD SWAP2 POP POP PUSH2 0xD6E JUMP JUMPDEST POP PUSH32 0xAED146B8E6504D3A57DEA2F60152E1133FA978A366CBDFBFA83328F48FF1EC09 DUP5 DUP5 DUP5 PUSH1 0x40 MLOAD PUSH2 0xFC5 SWAP4 SWAP3 SWAP2 SWAP1 PUSH2 0x2BB2 JUMP JUMPDEST PUSH1 0x40 MLOAD DUP1 SWAP2 SUB SWAP1 LOG1 POP POP POP POP JUMP JUMPDEST PUSH1 0x60 PUSH0 PUSH0 SWAP1 POP PUSH0 PUSH1 0x1 SWAP1 POP JUMPDEST PUSH1 0x2 SLOAD DUP2 LT ISZERO PUSH2 0x1050 JUMPI DUP4 PUSH1 0x2 DUP2 GT ISZERO PUSH2 0xFFC JUMPI PUSH2 0xFFB PUSH2 0x1D5E JUMP JUMPDEST JUMPDEST PUSH1 0x1 PUSH0 DUP4 DUP2 MSTORE PUSH1 0x20 ADD SWAP1 DUP2 MSTORE PUSH1 0x20 ADD PUSH0 KECCAK256 PUSH1 0x5 ADD PUSH0 SWAP1 SLOAD SWAP1 PUSH2 0x100 EXP SWAP1 DIV PUSH1 0xFF AND PUSH1 0x2 DUP2 GT ISZERO PUSH2 0x102F JUMPI PUSH2 0x102E PUSH2 0x1D5E JUMP JUMPDEST JUMPDEST SUB PUSH2 0x1043 JUMPI DUP2 DUP1 PUSH2 0x103F SWAP1 PUSH2 0x24FA JUMP JUMPDEST SWAP3 POP POP JUMPDEST DUP1 DUP1 PUSH1 0x1 ADD SWAP2 POP POP PUSH2 0xFDF JUMP JUMPDEST POP PUSH0 DUP2 PUSH8 0xFFFFFFFFFFFFFFFF DUP2 GT ISZERO PUSH2 0x106C JUMPI PUSH2 0x106B PUSH2 0x1975 JUMP JUMPDEST JUMPDEST PUSH1 0x40 MLOAD SWAP1 DUP1 DUP3 MSTORE DUP1 PUSH1 0x20 MUL PUSH1 0x20 ADD DUP3 ADD PUSH1 0x40 MSTORE DUP1 ISZERO PUSH2 0x10A5 JUMPI DUP2 PUSH1 0x20 ADD JUMPDEST PUSH2 0x1092 PUSH2 0x15A6 JUMP JUMPDEST DUP2 MSTORE PUSH1 0x20 ADD SWAP1 PUSH1 0x1 SWAP1 SUB SWAP1 DUP2 PUSH2 0x108A JUMPI SWAP1 POP JUMPDEST POP SWAP1 POP PUSH0 PUSH0 SWAP1 POP PUSH0 PUSH1 0x1 SWAP1 POP JUMPDEST PUSH1 0x2 SLOAD DUP2 LT ISZERO PUSH2 0x13E4 JUMPI DUP6 PUSH1 0x2 DUP2 GT ISZERO PUSH2 0x10CF JUMPI PUSH2 0x10CE PUSH2 0x1D5E JUMP JUMPDEST JUMPDEST PUSH1 0x1 PUSH0 DUP4 DUP2 MSTORE PUSH1 0x20 ADD SWAP1 DUP2 MSTORE PUSH1 0x20 ADD PUSH0 KECCAK256 PUSH1 0x5 ADD PUSH0 SWAP1 SLOAD SWAP1 PUSH2 0x100 EXP SWAP1 DIV PUSH1 0xFF AND PUSH1 0x2 DUP2 GT ISZERO PUSH2 0x1102 JUMPI PUSH2 0x1101 PUSH2 0x1D5E JUMP JUMPDEST JUMPDEST SUB PUSH2 0x13D7 JUMPI PUSH1 0x1 PUSH0 DUP3 DUP2 MSTORE PUSH1 0x20 ADD SWAP1 DUP2 MSTORE PUSH1 0x20 ADD PUSH0 KECCAK256 PUSH1 0x40 MLOAD DUP1 PUSH1 0xE0 ADD PUSH1 0x40 MSTORE SWAP1 DUP2 PUSH0 DUP3 ADD SLOAD DUP2 MSTORE PUSH1 0x20 ADD PUSH1 0x1 DUP3 ADD PUSH0 SWAP1 SLOAD SWAP1 PUSH2 0x100 EXP SWAP1 DIV PUSH20 0xFFFFFFFFFFFFFFFFFFFFFFFFFFFFFFFFFFFFFFFF AND PUSH20 0xFFFFFFFFFFFFFFFFFFFFFFFFFFFFFFFFFFFFFFFF AND PUSH20 0xFFFFFFFFFFFFFFFFFFFFFFFFFFFFFFFFFFFFFFFF AND DUP2 MSTORE PUSH1 0x20 ADD PUSH1 0x2 DUP3 ADD DUP1 SLOAD PUSH2 0x1191 SWAP1 PUSH2 0x256E JUMP JUMPDEST DUP1 PUSH1 0x1F ADD PUSH1 0x20 DUP1 SWAP2 DIV MUL PUSH1 0x20 ADD PUSH1 0x40 MLOAD SWAP1 DUP2 ADD PUSH1 0x40 MSTORE DUP1 SWAP3 SWAP2 SWAP1 DUP2 DUP2 MSTORE PUSH1 0x20 ADD DUP3 DUP1 SLOAD PUSH2 0x11BD SWAP1 PUSH2 0x256E JUMP JUMPDEST DUP1 ISZERO PUSH2 0x1208 JUMPI DUP1 PUSH1 0x1F LT PUSH2 0x11DF JUMPI PUSH2 0x100 DUP1 DUP4 SLOAD DIV MUL DUP4 MSTORE SWAP2 PUSH1 0x20 ADD SWAP2 PUSH2 0x1208 JUMP JUMPDEST DUP3 ADD SWAP2 SWAP1 PUSH0 MSTORE PUSH1 0x20 PUSH0 KECCAK256 SWAP1 JUMPDEST DUP2 SLOAD DUP2 MSTORE SWAP1 PUSH1 0x1 ADD SWAP1 PUSH1 0x20 ADD DUP1 DUP4 GT PUSH2 0x11EB JUMPI DUP3 SWAP1 SUB PUSH1 0x1F AND DUP3 ADD SWAP2 JUMPDEST POP POP POP POP POP DUP2 MSTORE PUSH1 0x20 ADD PUSH1 0x3 DUP3 ADD DUP1 SLOAD DUP1 PUSH1 0x20 MUL PUSH1 0x20 ADD PUSH1 0x40 MLOAD SWAP1 DUP2 ADD PUSH1 0x40 MSTORE DUP1 SWAP3 SWAP2 SWAP1 DUP2 DUP2 MSTORE PUSH1 0x20 ADD PUSH0 SWAP1 JUMPDEST DUP3 DUP3 LT ISZERO PUSH2 0x1356 JUMPI DUP4 DUP3 SWAP1 PUSH0 MSTORE PUSH1 0x20 PUSH0 KECCAK256 SWAP1 PUSH1 0x6 MUL ADD PUSH1 0x40 MLOAD DUP1 PUSH1 0xC0 ADD PUSH1 0x40 MSTORE SWAP1 DUP2 PUSH0 DUP3 ADD SLOAD DUP2 MSTORE PUSH1 0x20 ADD PUSH1 0x1 DUP3 ADD SLOAD DUP2 MSTORE PUSH1 0x20 ADD PUSH1 0x2 DUP3 ADD SLOAD DUP2 MSTORE PUSH1 0x20 ADD PUSH1 0x3 DUP3 ADD SLOAD DUP2 MSTORE PUSH1 0x20 ADD PUSH1 0x4 DUP3 ADD DUP1 SLOAD PUSH2 0x128D SWAP1 PUSH2 0x256E JUMP JUMPDEST DUP1 PUSH1 0x1F ADD PUSH1 0x20 DUP1 SWAP2 DIV MUL PUSH1 0x20 ADD PUSH1 0x40 MLOAD SWAP1 DUP2 ADD PUSH1 0x40 MSTORE DUP1 SWAP3 SWAP2 SWAP1 DUP2 DUP2 MSTORE PUSH1 0x20 ADD DUP3 DUP1 SLOAD PUSH2 0x12B9 SWAP1 PUSH2 0x256E JUMP JUMPDEST DUP1 ISZERO PUSH2 0x1304 JUMPI DUP1 PUSH1 0x1F LT PUSH2 0x12DB JUMPI PUSH2 0x100 DUP1 DUP4 SLOAD DIV MUL DUP4 MSTORE SWAP2 PUSH1 0x20 ADD SWAP2 PUSH2 0x1304 JUMP JUMPDEST DUP3 ADD SWAP2 SWAP1 PUSH0 MSTORE PUSH1 0x20 PUSH0 KECCAK256 SWAP1 JUMPDEST DUP2 SLOAD DUP2 MSTORE SWAP1 PUSH1 0x1 ADD SWAP1 PUSH1 0x20 ADD DUP1 DUP4 GT PUSH2 0x12E7 JUMPI DUP3 SWAP1 SUB PUSH1 0x1F AND DUP3 ADD SWAP2 JUMPDEST POP POP POP POP POP DUP2 MSTORE PUSH1 0x20 ADD PUSH1 0x5 DUP3 ADD PUSH0 SWAP1 SLOAD SWAP1 PUSH2 0x100 EXP SWAP1 DIV PUSH1 0xFF AND PUSH1 0x2 DUP2 GT ISZERO PUSH2 0x1331 JUMPI PUSH2 0x1330 PUSH2 0x1D5E JUMP JUMPDEST JUMPDEST PUSH1 0x2 DUP2 GT ISZERO PUSH2 0x1343 JUMPI PUSH2 0x1342 PUSH2 0x1D5E JUMP JUMPDEST JUMPDEST DUP2 MSTORE POP POP DUP2 MSTORE PUSH1 0x20 ADD SWAP1 PUSH1 0x1 ADD SWAP1 PUSH2 0x1235 JUMP JUMPDEST POP POP POP POP DUP2 MSTORE PUSH1 0x20 ADD PUSH1 0x4 DUP3 ADD SLOAD DUP2 MSTORE PUSH1 0x20 ADD PUSH1 0x5 DUP3 ADD PUSH0 SWAP1 SLOAD SWAP1 PUSH2 0x100 EXP SWAP1 DIV PUSH1 0xFF AND PUSH1 0x2 DUP2 GT ISZERO PUSH2 0x138C JUMPI PUSH2 0x138B PUSH2 0x1D5E JUMP JUMPDEST JUMPDEST PUSH1 0x2 DUP2 GT ISZERO PUSH2 0x139E JUMPI PUSH2 0x139D PUSH2 0x1D5E JUMP JUMPDEST JUMPDEST DUP2 MSTORE PUSH1 0x20 ADD PUSH1 0x6 DUP3 ADD SLOAD DUP2 MSTORE POP POP DUP4 DUP4 DUP1 PUSH2 0x13B8 SWAP1 PUSH2 0x24FA JUMP JUMPDEST SWAP5 POP DUP2 MLOAD DUP2 LT PUSH2 0x13CB JUMPI PUSH2 0x13CA PUSH2 0x242C JUMP JUMPDEST JUMPDEST PUSH1 0x20 MUL PUSH1 0x20 ADD ADD DUP2 SWAP1 MSTORE POP JUMPDEST DUP1 DUP1 PUSH1 0x1 ADD SWAP2 POP POP PUSH2 0x10B2 JUMP JUMPDEST POP DUP2 SWAP4 POP POP POP POP SWAP2 SWAP1 POP JUMP JUMPDEST PUSH1 0x1 PUSH1 0x20 MSTORE DUP1 PUSH0 MSTORE PUSH1 0x40 PUSH0 KECCAK256 PUSH0 SWAP2 POP SWAP1 POP DUP1 PUSH0 ADD SLOAD SWAP1 DUP1 PUSH1 0x1 ADD PUSH0 SWAP1 SLOAD SWAP1 PUSH2 0x100 EXP SWAP1 DIV PUSH20 0xFFFFFFFFFFFFFFFFFFFFFFFFFFFFFFFFFFFFFFFF AND SWAP1 DUP1 PUSH1 0x2 ADD DUP1 SLOAD PUSH2 0x143A SWAP1 PUSH2 0x256E JUMP JUMPDEST DUP1 PUSH1 0x1F ADD PUSH1 0x20 DUP1 SWAP2 DIV MUL PUSH1 0x20 ADD PUSH1 0x40 MLOAD SWAP1 DUP2 ADD PUSH1 0x40 MSTORE DUP1 SWAP3 SWAP2 SWAP1 DUP2 DUP2 MSTORE PUSH1 0x20 ADD DUP3 DUP1 SLOAD PUSH2 0x1466 SWAP1 PUSH2 0x256E JUMP JUMPDEST DUP1 ISZERO PUSH2 0x14B1 JUMPI DUP1 PUSH1 0x1F LT PUSH2 0x1488 JUMPI PUSH2 0x100 DUP1 DUP4 SLOAD DIV MUL DUP4 MSTORE SWAP2 PUSH1 0x20 ADD SWAP2 PUSH2 0x14B1 JUMP JUMPDEST DUP3 ADD SWAP2 SWAP1 PUSH0 MSTORE PUSH1 0x20 PUSH0 KECCAK256 SWAP1 JUMPDEST DUP2 SLOAD DUP2 MSTORE SWAP1 PUSH1 0x1 ADD SWAP1 PUSH1 0x20 ADD DUP1 DUP4 GT PUSH2 0x1494 JUMPI DUP3 SWAP1 SUB PUSH1 0x1F AND DUP3 ADD SWAP2 JUMPDEST POP POP POP POP POP SWAP1 DUP1 PUSH1 0x4 ADD SLOAD SWAP1 DUP1 PUSH1 0x5 ADD PUSH0 SWAP1 SLOAD SWAP1 PUSH2 0x100 EXP SWAP1 DIV PUSH1 0xFF AND SWAP1 DUP1 PUSH1 0x6 ADD SLOAD SWAP1 POP DUP7 JUMP JUMPDEST PUSH0 PUSH1 0x1 PUSH0 DUP5 DUP2 MSTORE PUSH1 0x20 ADD SWAP1 DUP2 MSTORE PUSH1 0x20 ADD PUSH0 KECCAK256 PUSH0 ADD SLOAD SUB PUSH2 0x152E JUMPI PUSH1 0x40 MLOAD PUSH32 0x8C379A000000000000000000000000000000000000000000000000000000000 DUP2 MSTORE PUSH1 0x4 ADD PUSH2 0x1525 SWAP1 PUSH2 0x2AC4 JUMP JUMPDEST PUSH1 0x40 MLOAD DUP1 SWAP2 SUB SWAP1 REVERT JUMPDEST DUP1 PUSH1 0x1 PUSH0 DUP5 DUP2 MSTORE PUSH1 0x20 ADD SWAP1 DUP2 MSTORE PUSH1 0x20 ADD PUSH0 KECCAK256 PUSH1 0x5 ADD PUSH0 PUSH2 0x100 EXP DUP2 SLOAD DUP2 PUSH1 0xFF MUL NOT AND SWAP1 DUP4 PUSH1 0x2 DUP2 GT ISZERO PUSH2 0x1564 JUMPI PUSH2 0x1563 PUSH2 0x1D5E JUMP JUMPDEST JUMPDEST MUL OR SWAP1 SSTORE POP PUSH32 0x575764E5527275E78FB8B8CECD6AE324A82D9904EF7A29349DABDFF1E1F54C35 DUP3 DUP3 PUSH1 0x40 MLOAD PUSH2 0x159A SWAP3 SWAP2 SWAP1 PUSH2 0x2BE7 JUMP JUMPDEST PUSH1 0x40 MLOAD DUP1 SWAP2 SUB SWAP1 LOG1 POP POP JUMP JUMPDEST PUSH1 0x40 MLOAD DUP1 PUSH1 0xE0 ADD PUSH1 0x40 MSTORE DUP1 PUSH0 DUP2 MSTORE PUSH1 0x20 ADD PUSH0 PUSH20 0xFFFFFFFFFFFFFFFFFFFFFFFFFFFFFFFFFFFFFFFF AND DUP2 MSTORE PUSH1 0x20 ADD PUSH1 0x60 DUP2 MSTORE PUSH1 0x20 ADD PUSH1 0x60 DUP2 MSTORE PUSH1 0x20 ADD PUSH0 DUP2 MSTORE PUSH1 0x20 ADD PUSH0 PUSH1 0x2 DUP2 GT ISZERO PUSH2 0x15FA JUMPI PUSH2 0x15F9 PUSH2 0x1D5E JUMP JUMPDEST JUMPDEST DUP2 MSTORE PUSH1 0x20 ADD PUSH0 DUP2 MSTORE POP SWAP1 JUMP JUMPDEST PUSH1 0x40 MLOAD DUP1 PUSH1 0xC0 ADD PUSH1 0x40 MSTORE DUP1 PUSH0 DUP2 MSTORE PUSH1 0x20 ADD PUSH0 DUP2 MSTORE PUSH1 0x20 ADD PUSH0 DUP2 MSTORE PUSH1 0x20 ADD PUSH0 DUP2 MSTORE PUSH1 0x20 ADD PUSH1 0x60 DUP2 MSTORE PUSH1 0x20 ADD PUSH0 PUSH1 0x2 DUP2 GT ISZERO PUSH2 0x1643 JUMPI PUSH2 0x1642 PUSH2 0x1D5E JUMP JUMPDEST JUMPDEST DUP2 MSTORE POP SWAP1 JUMP JUMPDEST DUP3 DUP1 SLOAD DUP3 DUP3 SSTORE SWAP1 PUSH0 MSTORE PUSH1 0x20 PUSH0 KECCAK256 SWAP1 PUSH1 0x6 MUL DUP2 ADD SWAP3 DUP3 ISZERO PUSH2 0x1702 JUMPI PUSH0 MSTORE PUSH1 0x20 PUSH0 KECCAK256 SWAP2 PUSH1 0x6 MUL DUP3 ADD JUMPDEST DUP3 DUP2 GT ISZERO PUSH2 0x1701 JUMPI DUP3 DUP3 PUSH0 DUP3 ADD SLOAD DUP2 PUSH0 ADD SSTORE PUSH1 0x1 DUP3 ADD SLOAD DUP2 PUSH1 0x1 ADD SSTORE PUSH1 0x2 DUP3 ADD SLOAD DUP2 PUSH1 0x2 ADD SSTORE PUSH1 0x3 DUP3 ADD SLOAD DUP2 PUSH1 0x3 ADD SSTORE PUSH1 0x4 DUP3 ADD DUP2 PUSH1 0x4 ADD SWAP1 DUP2 PUSH2 0x16B4 SWAP2 SWAP1 PUSH2 0x2822 JUMP JUMPDEST POP PUSH1 0x5 DUP3 ADD PUSH0 SWAP1 SLOAD SWAP1 PUSH2 0x100 EXP SWAP1 DIV PUSH1 0xFF AND DUP2 PUSH1 0x5 ADD PUSH0 PUSH2 0x100 EXP DUP2 SLOAD DUP2 PUSH1 0xFF MUL NOT AND SWAP1 DUP4 PUSH1 0x2 DUP2 GT ISZERO PUSH2 0x16EB JUMPI PUSH2 0x16EA PUSH2 0x1D5E JUMP JUMPDEST JUMPDEST MUL OR SWAP1 SSTORE POP POP POP SWAP2 PUSH1 0x6 ADD SWAP2 SWAP1 PUSH1 0x6 ADD SWAP1 PUSH2 0x1670 JUMP JUMPDEST JUMPDEST POP SWAP1 POP PUSH2 0x170F SWAP2 SWAP1 PUSH2 0x1713 JUMP JUMPDEST POP SWAP1 JUMP JUMPDEST JUMPDEST DUP1 DUP3 GT ISZERO PUSH2 0x1763 JUMPI PUSH0 PUSH0 DUP3 ADD PUSH0 SWAP1 SSTORE PUSH1 0x1 DUP3 ADD PUSH0 SWAP1 SSTORE PUSH1 0x2 DUP3 ADD PUSH0 SWAP1 SSTORE PUSH1 0x3 DUP3 ADD PUSH0 SWAP1 SSTORE PUSH1 0x4 DUP3 ADD PUSH0 PUSH2 0x1747 SWAP2 SWAP1 PUSH2 0x1767 JUMP JUMPDEST PUSH1 0x5 DUP3 ADD PUSH0 PUSH2 0x100 EXP DUP2 SLOAD SWAP1 PUSH1 0xFF MUL NOT AND SWAP1 SSTORE POP PUSH1 0x6 ADD PUSH2 0x1714 JUMP JUMPDEST POP SWAP1 JUMP JUMPDEST POP DUP1 SLOAD PUSH2 0x1773 SWAP1 PUSH2 0x256E JUMP JUMPDEST PUSH0 DUP3 SSTORE DUP1 PUSH1 0x1F LT PUSH2 0x1784 JUMPI POP PUSH2 0x17A1 JUMP JUMPDEST PUSH1 0x1F ADD PUSH1 0x20 SWAP1 DIV SWAP1 PUSH0 MSTORE PUSH1 0x20 PUSH0 KECCAK256 SWAP1 DUP2 ADD SWAP1 PUSH2 0x17A0 SWAP2 SWAP1 PUSH2 0x17A4 JUMP JUMPDEST JUMPDEST POP JUMP JUMPDEST JUMPDEST DUP1 DUP3 GT ISZERO PUSH2 0x17BB JUMPI PUSH0 DUP2 PUSH0 SWAP1 SSTORE POP PUSH1 0x1 ADD PUSH2 0x17A5 JUMP JUMPDEST POP SWAP1 JUMP JUMPDEST PUSH0 DUP2 SWAP1 POP SWAP2 SWAP1 POP JUMP JUMPDEST PUSH2 0x17D1 DUP2 PUSH2 0x17BF JUMP JUMPDEST DUP3 MSTORE POP POP JUMP JUMPDEST PUSH0 PUSH1 0x20 DUP3 ADD SWAP1 POP PUSH2 0x17EA PUSH0 DUP4 ADD DUP5 PUSH2 0x17C8 JUMP JUMPDEST SWAP3 SWAP2 POP POP JUMP JUMPDEST PUSH0 PUSH1 0x40 MLOAD SWAP1 POP SWAP1 JUMP JUMPDEST PUSH0 PUSH0 REVERT JUMPDEST PUSH0 PUSH0 REVERT JUMPDEST PUSH0 PUSH20 0xFFFFFFFFFFFFFFFFFFFFFFFFFFFFFFFFFFFFFFFF DUP3 AND SWAP1 POP SWAP2 SWAP1 POP JUMP JUMPDEST PUSH0 PUSH2 0x182A DUP3 PUSH2 0x1801 JUMP JUMPDEST SWAP1 POP SWAP2 SWAP1 POP JUMP JUMPDEST PUSH2 0x183A DUP2 PUSH2 0x1820 JUMP JUMPDEST DUP2 EQ PUSH2 0x1844 JUMPI PUSH0 PUSH0 REVERT JUMPDEST POP JUMP JUMPDEST PUSH0 DUP2 CALLDATALOAD SWAP1 POP PUSH2 0x1855 DUP2 PUSH2 0x1831 JUMP JUMPDEST SWAP3 SWAP2 POP POP JUMP JUMPDEST PUSH0 PUSH1 0x20 DUP3 DUP5 SUB SLT ISZERO PUSH2 0x1870 JUMPI PUSH2 0x186F PUSH2 0x17F9 JUMP JUMPDEST JUMPDEST PUSH0 PUSH2 0x187D DUP5 DUP3 DUP6 ADD PUSH2 0x1847 JUMP JUMPDEST SWAP2 POP POP SWAP3 SWAP2 POP POP JUMP JUMPDEST PUSH0 DUP2 MLOAD SWAP1 POP SWAP2 SWAP1 POP JUMP JUMPDEST PUSH0 DUP3 DUP3 MSTORE PUSH1 0x20 DUP3 ADD SWAP1 POP SWAP3 SWAP2 POP POP JUMP JUMPDEST PUSH0 DUP2 SWAP1 POP PUSH1 0x20 DUP3 ADD SWAP1 POP SWAP2 SWAP1 POP JUMP JUMPDEST PUSH2 0x18B8 DUP2 PUSH2 0x17BF JUMP JUMPDEST DUP3 MSTORE POP POP JUMP JUMPDEST PUSH0 PUSH2 0x18C9 DUP4 DUP4 PUSH2 0x18AF JUMP JUMPDEST PUSH1 0x20 DUP4 ADD SWAP1 POP SWAP3 SWAP2 POP POP JUMP JUMPDEST PUSH0 PUSH1 0x20 DUP3 ADD SWAP1 POP SWAP2 SWAP1 POP JUMP JUMPDEST PUSH0 PUSH2 0x18EB DUP3 PUSH2 0x1886 JUMP JUMPDEST PUSH2 0x18F5 DUP2 DUP6 PUSH2 0x1890 JUMP JUMPDEST SWAP4 POP PUSH2 0x1900 DUP4 PUSH2 0x18A0 JUMP JUMPDEST DUP1 PUSH0 JUMPDEST DUP4 DUP2 LT ISZERO PUSH2 0x1930 JUMPI DUP2 MLOAD PUSH2 0x1917 DUP9 DUP3 PUSH2 0x18BE JUMP JUMPDEST SWAP8 POP PUSH2 0x1922 DUP4 PUSH2 0x18D5 JUMP JUMPDEST SWAP3 POP POP PUSH1 0x1 DUP2 ADD SWAP1 POP PUSH2 0x1903 JUMP JUMPDEST POP DUP6 SWAP4 POP POP POP POP SWAP3 SWAP2 POP POP JUMP JUMPDEST PUSH0 PUSH1 0x20 DUP3 ADD SWAP1 POP DUP2 DUP2 SUB PUSH0 DUP4 ADD MSTORE PUSH2 0x1955 DUP2 DUP5 PUSH2 0x18E1 JUMP JUMPDEST SWAP1 POP SWAP3 SWAP2 POP POP JUMP JUMPDEST PUSH0 PUSH0 REVERT JUMPDEST PUSH0 PUSH0 REVERT JUMPDEST PUSH0 PUSH1 0x1F NOT PUSH1 0x1F DUP4 ADD AND SWAP1 POP SWAP2 SWAP1 POP JUMP JUMPDEST PUSH32 0x4E487B7100000000000000000000000000000000000000000000000000000000 PUSH0 MSTORE PUSH1 0x41 PUSH1 0x4 MSTORE PUSH1 0x24 PUSH0 REVERT JUMPDEST PUSH2 0x19AB DUP3 PUSH2 0x1965 JUMP JUMPDEST DUP2 ADD DUP2 DUP2 LT PUSH8 0xFFFFFFFFFFFFFFFF DUP3 GT OR ISZERO PUSH2 0x19CA JUMPI PUSH2 0x19C9 PUSH2 0x1975 JUMP JUMPDEST JUMPDEST DUP1 PUSH1 0x40 MSTORE POP POP POP JUMP JUMPDEST PUSH0 PUSH2 0x19DC PUSH2 0x17F0 JUMP JUMPDEST SWAP1 POP PUSH2 0x19E8 DUP3 DUP3 PUSH2 0x19A2 JUMP JUMPDEST SWAP2 SWAP1 POP JUMP JUMPDEST PUSH0 PUSH8 0xFFFFFFFFFFFFFFFF DUP3 GT ISZERO PUSH2 0x1A07 JUMPI PUSH2 0x1A06 PUSH2 0x1975 JUMP JUMPDEST JUMPDEST PUSH2 0x1A10 DUP3 PUSH2 0x1965 JUMP JUMPDEST SWAP1 POP PUSH1 0x20 DUP2 ADD SWAP1 POP SWAP2 SWAP1 POP JUMP JUMPDEST DUP3 DUP2 DUP4 CALLDATACOPY PUSH0 DUP4 DUP4 ADD MSTORE POP POP POP JUMP JUMPDEST PUSH0 PUSH2 0x1A3D PUSH2 0x1A38 DUP5 PUSH2 0x19ED JUMP JUMPDEST PUSH2 0x19D3 JUMP JUMPDEST SWAP1 POP DUP3 DUP2 MSTORE PUSH1 0x20 DUP2 ADD DUP5 DUP5 DUP5 ADD GT ISZERO PUSH2 0x1A59 JUMPI PUSH2 0x1A58 PUSH2 0x1961 JUMP JUMPDEST JUMPDEST PUSH2 0x1A64 DUP5 DUP3 DUP6 PUSH2 0x1A1D JUMP JUMPDEST POP SWAP4 SWAP3 POP POP POP JUMP JUMPDEST PUSH0 DUP3 PUSH1 0x1F DUP4 ADD SLT PUSH2 0x1A80 JUMPI PUSH2 0x1A7F PUSH2 0x195D JUMP JUMPDEST JUMPDEST DUP2 CALLDATALOAD PUSH2 0x1A90 DUP5 DUP3 PUSH1 0x20 DUP7 ADD PUSH2 0x1A2B JUMP JUMPDEST SWAP2 POP POP SWAP3 SWAP2 POP POP JUMP JUMPDEST PUSH0 PUSH8 0xFFFFFFFFFFFFFFFF DUP3 GT ISZERO PUSH2 0x1AB3 JUMPI PUSH2 0x1AB2 PUSH2 0x1975 JUMP JUMPDEST JUMPDEST PUSH1 0x20 DUP3 MUL SWAP1 POP PUSH1 0x20 DUP2 ADD SWAP1 POP SWAP2 SWAP1 POP JUMP JUMPDEST PUSH0 PUSH0 REVERT JUMPDEST PUSH0 PUSH0 REVERT JUMPDEST PUSH0 PUSH0 REVERT JUMPDEST PUSH2 0x1AD9 DUP2 PUSH2 0x17BF JUMP JUMPDEST DUP2 EQ PUSH2 0x1AE3 JUMPI PUSH0 PUSH0 REVERT JUMPDEST POP JUMP JUMPDEST PUSH0 DUP2 CALLDATALOAD SWAP1 POP PUSH2 0x1AF4 DUP2 PUSH2 0x1AD0 JUMP JUMPDEST SWAP3 SWAP2 POP POP JUMP JUMPDEST PUSH0 PUSH1 0x80 DUP3 DUP5 SUB SLT ISZERO PUSH2 0x1B0F JUMPI PUSH2 0x1B0E PUSH2 0x1AC8 JUMP JUMPDEST JUMPDEST PUSH2 0x1B19 PUSH1 0x80 PUSH2 0x19D3 JUMP JUMPDEST SWAP1 POP PUSH0 PUSH2 0x1B28 DUP5 DUP3 DUP6 ADD PUSH2 0x1AE6 JUMP JUMPDEST PUSH0 DUP4 ADD MSTORE POP PUSH1 0x20 PUSH2 0x1B3B DUP5 DUP3 DUP6 ADD PUSH2 0x1AE6 JUMP JUMPDEST PUSH1 0x20 DUP4 ADD MSTORE POP PUSH1 0x40 PUSH2 0x1B4F DUP5 DUP3 DUP6 ADD PUSH2 0x1AE6 JUMP JUMPDEST PUSH1 0x40 DUP4 ADD MSTORE POP PUSH1 0x60 DUP3 ADD CALLDATALOAD PUSH8 0xFFFFFFFFFFFFFFFF DUP2 GT ISZERO PUSH2 0x1B73 JUMPI PUSH2 0x1B72 PUSH2 0x1ACC JUMP JUMPDEST JUMPDEST PUSH2 0x1B7F DUP5 DUP3 DUP6 ADD PUSH2 0x1A6C JUMP JUMPDEST PUSH1 0x60 DUP4 ADD MSTORE POP SWAP3 SWAP2 POP POP JUMP JUMPDEST PUSH0 PUSH2 0x1B9D PUSH2 0x1B98 DUP5 PUSH2 0x1A99 JUMP JUMPDEST PUSH2 0x19D3 JUMP JUMPDEST SWAP1 POP DUP1 DUP4 DUP3 MSTORE PUSH1 0x20 DUP3 ADD SWAP1 POP PUSH1 0x20 DUP5 MUL DUP4 ADD DUP6 DUP2 GT ISZERO PUSH2 0x1BC0 JUMPI PUSH2 0x1BBF PUSH2 0x1AC4 JUMP JUMPDEST JUMPDEST DUP4 JUMPDEST DUP2 DUP2 LT ISZERO PUSH2 0x1C07 JUMPI DUP1 CALLDATALOAD PUSH8 0xFFFFFFFFFFFFFFFF DUP2 GT ISZERO PUSH2 0x1BE5 JUMPI PUSH2 0x1BE4 PUSH2 0x195D JUMP JUMPDEST JUMPDEST DUP1 DUP7 ADD PUSH2 0x1BF2 DUP10 DUP3 PUSH2 0x1AFA JUMP JUMPDEST DUP6 MSTORE PUSH1 0x20 DUP6 ADD SWAP5 POP POP POP PUSH1 0x20 DUP2 ADD SWAP1 POP PUSH2 0x1BC2 JUMP JUMPDEST POP POP POP SWAP4 SWAP3 POP POP POP JUMP JUMPDEST PUSH0 DUP3 PUSH1 0x1F DUP4 ADD SLT PUSH2 0x1C25 JUMPI PUSH2 0x1C24 PUSH2 0x195D JUMP JUMPDEST JUMPDEST DUP2 CALLDATALOAD PUSH2 0x1C35 DUP5 DUP3 PUSH1 0x20 DUP7 ADD PUSH2 0x1B8B JUMP JUMPDEST SWAP2 POP POP SWAP3 SWAP2 POP POP JUMP JUMPDEST PUSH0 PUSH0 PUSH0 PUSH1 0x60 DUP5 DUP7 SUB SLT ISZERO PUSH2 0x1C55 JUMPI PUSH2 0x1C54 PUSH2 0x17F9 JUMP JUMPDEST JUMPDEST PUSH0 PUSH2 0x1C62 DUP7 DUP3 DUP8 ADD PUSH2 0x1847 JUMP JUMPDEST SWAP4 POP POP PUSH1 0x20 DUP5 ADD CALLDATALOAD PUSH8 0xFFFFFFFFFFFFFFFF DUP2 GT ISZERO PUSH2 0x1C83 JUMPI PUSH2 0x1C82 PUSH2 0x17FD JUMP JUMPDEST JUMPDEST PUSH2 0x1C8F DUP7 DUP3 DUP8 ADD PUSH2 0x1A6C JUMP JUMPDEST SWAP3 POP POP PUSH1 0x40 DUP5 ADD CALLDATALOAD PUSH8 0xFFFFFFFFFFFFFFFF DUP2 GT ISZERO PUSH2 0x1CB0 JUMPI PUSH2 0x1CAF PUSH2 0x17FD JUMP JUMPDEST JUMPDEST PUSH2 0x1CBC DUP7 DUP3 DUP8 ADD PUSH2 0x1C11 JUMP JUMPDEST SWAP2 POP POP SWAP3 POP SWAP3 POP SWAP3 JUMP JUMPDEST PUSH2 0x1CCF DUP2 PUSH2 0x1820 JUMP JUMPDEST DUP3 MSTORE POP POP JUMP JUMPDEST PUSH0 DUP2 MLOAD SWAP1 POP SWAP2 SWAP1 POP JUMP JUMPDEST PUSH0 DUP3 DUP3 MSTORE PUSH1 0x20 DUP3 ADD SWAP1 POP SWAP3 SWAP2 POP POP JUMP JUMPDEST DUP3 DUP2 DUP4 MCOPY PUSH0 DUP4 DUP4 ADD MSTORE POP POP POP JUMP JUMPDEST PUSH0 PUSH2 0x1D07 DUP3 PUSH2 0x1CD5 JUMP JUMPDEST PUSH2 0x1D11 DUP2 DUP6 PUSH2 0x1CDF JUMP JUMPDEST SWAP4 POP PUSH2 0x1D21 DUP2 DUP6 PUSH1 0x20 DUP7 ADD PUSH2 0x1CEF JUMP JUMPDEST PUSH2 0x1D2A DUP2 PUSH2 0x1965 JUMP JUMPDEST DUP5 ADD SWAP2 POP POP SWAP3 SWAP2 POP POP JUMP JUMPDEST PUSH0 DUP2 MLOAD SWAP1 POP SWAP2 SWAP1 POP JUMP JUMPDEST PUSH0 DUP3 DUP3 MSTORE PUSH1 0x20 DUP3 ADD SWAP1 POP SWAP3 SWAP2 POP POP JUMP JUMPDEST PUSH0 DUP2 SWAP1 POP PUSH1 0x20 DUP3 ADD SWAP1 POP SWAP2 SWAP1 POP JUMP JUMPDEST PUSH32 0x4E487B7100000000000000000000000000000000000000000000000000000000 PUSH0 MSTORE PUSH1 0x21 PUSH1 0x4 MSTORE PUSH1 0x24 PUSH0 REVERT JUMPDEST PUSH1 0x3 DUP2 LT PUSH2 0x1D9C JUMPI PUSH2 0x1D9B PUSH2 0x1D5E JUMP JUMPDEST JUMPDEST POP JUMP JUMPDEST PUSH0 DUP2 SWAP1 POP PUSH2 0x1DAC DUP3 PUSH2 0x1D8B JUMP JUMPDEST SWAP2 SWAP1 POP JUMP JUMPDEST PUSH0 PUSH2 0x1DBB DUP3 PUSH2 0x1D9F JUMP JUMPDEST SWAP1 POP SWAP2 SWAP1 POP JUMP JUMPDEST PUSH2 0x1DCB DUP2 PUSH2 0x1DB1 JUMP JUMPDEST DUP3 MSTORE POP POP JUMP JUMPDEST PUSH0 PUSH1 0xC0 DUP4 ADD PUSH0 DUP4 ADD MLOAD PUSH2 0x1DE6 PUSH0 DUP7 ADD DUP3 PUSH2 0x18AF JUMP JUMPDEST POP PUSH1 0x20 DUP4 ADD MLOAD PUSH2 0x1DF9 PUSH1 0x20 DUP7 ADD DUP3 PUSH2 0x18AF JUMP JUMPDEST POP PUSH1 0x40 DUP4 ADD MLOAD PUSH2 0x1E0C PUSH1 0x40 DUP7 ADD DUP3 PUSH2 0x18AF JUMP JUMPDEST POP PUSH1 0x60 DUP4 ADD MLOAD PUSH2 0x1E1F PUSH1 0x60 DUP7 ADD DUP3 PUSH2 0x18AF JUMP JUMPDEST POP PUSH1 0x80 DUP4 ADD MLOAD DUP5 DUP3 SUB PUSH1 0x80 DUP7 ADD MSTORE PUSH2 0x1E37 DUP3 DUP3 PUSH2 0x1CFD JUMP JUMPDEST SWAP2 POP POP PUSH1 0xA0 DUP4 ADD MLOAD PUSH2 0x1E4C PUSH1 0xA0 DUP7 ADD DUP3 PUSH2 0x1DC2 JUMP JUMPDEST POP DUP1 SWAP2 POP POP SWAP3 SWAP2 POP POP JUMP JUMPDEST PUSH0 PUSH2 0x1E62 DUP4 DUP4 PUSH2 0x1DD1 JUMP JUMPDEST SWAP1 POP SWAP3 SWAP2 POP POP JUMP JUMPDEST PUSH0 PUSH1 0x20 DUP3 ADD SWAP1 POP SWAP2 SWAP1 POP JUMP JUMPDEST PUSH0 PUSH2 0x1E80 DUP3 PUSH2 0x1D35 JUMP JUMPDEST PUSH2 0x1E8A DUP2 DUP6 PUSH2 0x1D3F JUMP JUMPDEST SWAP4 POP DUP4 PUSH1 0x20 DUP3 MUL DUP6 ADD PUSH2 0x1E9C DUP6 PUSH2 0x1D4F JUMP JUMPDEST DUP1 PUSH0 JUMPDEST DUP6 DUP2 LT ISZERO PUSH2 0x1ED7 JUMPI DUP5 DUP5 SUB DUP10 MSTORE DUP2 MLOAD PUSH2 0x1EB8 DUP6 DUP3 PUSH2 0x1E57 JUMP JUMPDEST SWAP5 POP PUSH2 0x1EC3 DUP4 PUSH2 0x1E6A JUMP JUMPDEST SWAP3 POP PUSH1 0x20 DUP11 ADD SWAP10 POP POP PUSH1 0x1 DUP2 ADD SWAP1 POP PUSH2 0x1E9F JUMP JUMPDEST POP DUP3 SWAP8 POP DUP8 SWAP6 POP POP POP POP POP POP SWAP3 SWAP2 POP POP JUMP JUMPDEST PUSH1 0x3 DUP2 LT PUSH2 0x1EFA JUMPI PUSH2 0x1EF9 PUSH2 0x1D5E JUMP JUMPDEST JUMPDEST POP JUMP JUMPDEST PUSH0 DUP2 SWAP1 POP PUSH2 0x1F0A DUP3 PUSH2 0x1EE9 JUMP JUMPDEST SWAP2 SWAP1 POP JUMP JUMPDEST PUSH0 PUSH2 0x1F19 DUP3 PUSH2 0x1EFD JUMP JUMPDEST SWAP1 POP SWAP2 SWAP1 POP JUMP JUMPDEST PUSH2 0x1F29 DUP2 PUSH2 0x1F0F JUMP JUMPDEST DUP3 MSTORE POP POP JUMP JUMPDEST PUSH0 PUSH1 0xE0 DUP4 ADD PUSH0 DUP4 ADD MLOAD PUSH2 0x1F44 PUSH0 DUP7 ADD DUP3 PUSH2 0x18AF JUMP JUMPDEST POP PUSH1 0x20 DUP4 ADD MLOAD PUSH2 0x1F57 PUSH1 0x20 DUP7 ADD DUP3 PUSH2 0x1CC6 JUMP JUMPDEST POP PUSH1 0x40 DUP4 ADD MLOAD DUP5 DUP3 SUB PUSH1 0x40 DUP7 ADD MSTORE PUSH2 0x1F6F DUP3 DUP3 PUSH2 0x1CFD JUMP JUMPDEST SWAP2 POP POP PUSH1 0x60 DUP4 ADD MLOAD DUP5 DUP3 SUB PUSH1 0x60 DUP7 ADD MSTORE PUSH2 0x1F89 DUP3 DUP3 PUSH2 0x1E76 JUMP JUMPDEST SWAP2 POP POP PUSH1 0x80 DUP4 ADD MLOAD PUSH2 0x1F9E PUSH1 0x80 DUP7 ADD DUP3 PUSH2 0x18AF JUMP JUMPDEST POP PUSH1 0xA0 DUP4 ADD MLOAD PUSH2 0x1FB1 PUSH1 0xA0 DUP7 ADD DUP3 PUSH2 0x1F20 JUMP JUMPDEST POP PUSH1 0xC0 DUP4 ADD MLOAD PUSH2 0x1FC4 PUSH1 0xC0 DUP7 ADD DUP3 PUSH2 0x18AF JUMP JUMPDEST POP DUP1 SWAP2 POP POP SWAP3 SWAP2 POP POP JUMP JUMPDEST PUSH0 PUSH1 0x20 DUP3 ADD SWAP1 POP DUP2 DUP2 SUB PUSH0 DUP4 ADD MSTORE PUSH2 0x1FE7 DUP2 DUP5 PUSH2 0x1F2F JUMP JUMPDEST SWAP1 POP SWAP3 SWAP2 POP POP JUMP JUMPDEST PUSH0 PUSH0 PUSH1 0x40 DUP4 DUP6 SUB SLT ISZERO PUSH2 0x2005 JUMPI PUSH2 0x2004 PUSH2 0x17F9 JUMP JUMPDEST JUMPDEST PUSH0 PUSH2 0x2012 DUP6 DUP3 DUP7 ADD PUSH2 0x1847 JUMP JUMPDEST SWAP3 POP POP PUSH1 0x20 PUSH2 0x2023 DUP6 DUP3 DUP7 ADD PUSH2 0x1AE6 JUMP JUMPDEST SWAP2 POP POP SWAP3 POP SWAP3 SWAP1 POP JUMP JUMPDEST PUSH1 0x3 DUP2 LT PUSH2 0x2039 JUMPI PUSH0 PUSH0 REVERT JUMPDEST POP JUMP JUMPDEST PUSH0 DUP2 CALLDATALOAD SWAP1 POP PUSH2 0x204A DUP2 PUSH2 0x202D JUMP JUMPDEST SWAP3 SWAP2 POP POP JUMP JUMPDEST PUSH0 PUSH0 PUSH0 PUSH1 0x60 DUP5 DUP7 SUB SLT ISZERO PUSH2 0x2067 JUMPI PUSH2 0x2066 PUSH2 0x17F9 JUMP JUMPDEST JUMPDEST PUSH0 PUSH2 0x2074 DUP7 DUP3 DUP8 ADD PUSH2 0x1AE6 JUMP JUMPDEST SWAP4 POP POP PUSH1 0x20 PUSH2 0x2085 DUP7 DUP3 DUP8 ADD PUSH2 0x1AE6 JUMP JUMPDEST SWAP3 POP POP PUSH1 0x40 PUSH2 0x2096 DUP7 DUP3 DUP8 ADD PUSH2 0x203C JUMP JUMPDEST SWAP2 POP POP SWAP3 POP SWAP3 POP SWAP3 JUMP JUMPDEST PUSH1 0x3 DUP2 LT PUSH2 0x20AC JUMPI PUSH0 PUSH0 REVERT JUMPDEST POP JUMP JUMPDEST PUSH0 DUP2 CALLDATALOAD SWAP1 POP PUSH2 0x20BD DUP2 PUSH2 0x20A0 JUMP JUMPDEST SWAP3 SWAP2 POP POP JUMP JUMPDEST PUSH0 PUSH1 0x20 DUP3 DUP5 SUB SLT ISZERO PUSH2 0x20D8 JUMPI PUSH2 0x20D7 PUSH2 0x17F9 JUMP JUMPDEST JUMPDEST PUSH0 PUSH2 0x20E5 DUP5 DUP3 DUP6 ADD PUSH2 0x20AF JUMP JUMPDEST SWAP2 POP POP SWAP3 SWAP2 POP POP JUMP JUMPDEST PUSH0 DUP2 MLOAD SWAP1 POP SWAP2 SWAP1 POP JUMP JUMPDEST PUSH0 DUP3 DUP3 MSTORE PUSH1 0x20 DUP3 ADD SWAP1 POP SWAP3 SWAP2 POP POP JUMP JUMPDEST PUSH0 DUP2 SWAP1 POP PUSH1 0x20 DUP3 ADD SWAP1 POP SWAP2 SWAP1 POP JUMP JUMPDEST PUSH0 PUSH1 0xE0 DUP4 ADD PUSH0 DUP4 ADD MLOAD PUSH2 0x212C PUSH0 DUP7 ADD DUP3 PUSH2 0x18AF JUMP JUMPDEST POP PUSH1 0x20 DUP4 ADD MLOAD PUSH2 0x213F PUSH1 0x20 DUP7 ADD DUP3 PUSH2 0x1CC6 JUMP JUMPDEST POP PUSH1 0x40 DUP4 ADD MLOAD DUP5 DUP3 SUB PUSH1 0x40 DUP7 ADD MSTORE PUSH2 0x2157 DUP3 DUP3 PUSH2 0x1CFD JUMP JUMPDEST SWAP2 POP POP PUSH1 0x60 DUP4 ADD MLOAD DUP5 DUP3 SUB PUSH1 0x60 DUP7 ADD MSTORE PUSH2 0x2171 DUP3 DUP3 PUSH2 0x1E76 JUMP JUMPDEST SWAP2 POP POP PUSH1 0x80 DUP4 ADD MLOAD PUSH2 0x2186 PUSH1 0x80 DUP7 ADD DUP3 PUSH2 0x18AF JUMP JUMPDEST POP PUSH1 0xA0 DUP4 ADD MLOAD PUSH2 0x2199 PUSH1 0xA0 DUP7 ADD DUP3 PUSH2 0x1F20 JUMP JUMPDEST POP PUSH1 0xC0 DUP4 ADD MLOAD PUSH2 0x21AC PUSH1 0xC0 DUP7 ADD DUP3 PUSH2 0x18AF JUMP JUMPDEST POP DUP1 SWAP2 POP POP SWAP3 SWAP2 POP POP JUMP JUMPDEST PUSH0 PUSH2 0x21C2 DUP4 DUP4 PUSH2 0x2117 JUMP JUMPDEST SWAP1 POP SWAP3 SWAP2 POP POP JUMP JUMPDEST PUSH0 PUSH1 0x20 DUP3 ADD SWAP1 POP SWAP2 SWAP1 POP JUMP JUMPDEST PUSH0 PUSH2 0x21E0 DUP3 PUSH2 0x20EE JUMP JUMPDEST PUSH2 0x21EA DUP2 DUP6 PUSH2 0x20F8 JUMP JUMPDEST SWAP4 POP DUP4 PUSH1 0x20 DUP3 MUL DUP6 ADD PUSH2 0x21FC DUP6 PUSH2 0x2108 JUMP JUMPDEST DUP1 PUSH0 JUMPDEST DUP6 DUP2 LT ISZERO PUSH2 0x2237 JUMPI DUP5 DUP5 SUB DUP10 MSTORE DUP2 MLOAD PUSH2 0x2218 DUP6 DUP3 PUSH2 0x21B7 JUMP JUMPDEST SWAP5 POP PUSH2 0x2223 DUP4 PUSH2 0x21CA JUMP JUMPDEST SWAP3 POP PUSH1 0x20 DUP11 ADD SWAP10 POP POP PUSH1 0x1 DUP2 ADD SWAP1 POP PUSH2 0x21FF JUMP JUMPDEST POP DUP3 SWAP8 POP DUP8 SWAP6 POP POP POP POP POP POP SWAP3 SWAP2 POP POP JUMP JUMPDEST PUSH0 PUSH1 0x20 DUP3 ADD SWAP1 POP DUP2 DUP2 SUB PUSH0 DUP4 ADD MSTORE PUSH2 0x2261 DUP2 DUP5 PUSH2 0x21D6 JUMP JUMPDEST SWAP1 POP SWAP3 SWAP2 POP POP JUMP JUMPDEST PUSH0 PUSH1 0x20 DUP3 DUP5 SUB SLT ISZERO PUSH2 0x227E JUMPI PUSH2 0x227D PUSH2 0x17F9 JUMP JUMPDEST JUMPDEST PUSH0 PUSH2 0x228B DUP5 DUP3 DUP6 ADD PUSH2 0x1AE6 JUMP JUMPDEST SWAP2 POP POP SWAP3 SWAP2 POP POP JUMP JUMPDEST PUSH2 0x229D DUP2 PUSH2 0x1820 JUMP JUMPDEST DUP3 MSTORE POP POP JUMP JUMPDEST PUSH0 DUP3 DUP3 MSTORE PUSH1 0x20 DUP3 ADD SWAP1 POP SWAP3 SWAP2 POP POP JUMP JUMPDEST PUSH0 PUSH2 0x22BD DUP3 PUSH2 0x1CD5 JUMP JUMPDEST PUSH2 0x22C7 DUP2 DUP6 PUSH2 0x22A3 JUMP JUMPDEST SWAP4 POP PUSH2 0x22D7 DUP2 DUP6 PUSH1 0x20 DUP7 ADD PUSH2 0x1CEF JUMP JUMPDEST PUSH2 0x22E0 DUP2 PUSH2 0x1965 JUMP JUMPDEST DUP5 ADD SWAP2 POP POP SWAP3 SWAP2 POP POP JUMP JUMPDEST PUSH2 0x22F4 DUP2 PUSH2 0x1F0F JUMP JUMPDEST DUP3 MSTORE POP POP JUMP JUMPDEST PUSH0 PUSH1 0xC0 DUP3 ADD SWAP1 POP PUSH2 0x230D PUSH0 DUP4 ADD DUP10 PUSH2 0x17C8 JUMP JUMPDEST PUSH2 0x231A PUSH1 0x20 DUP4 ADD DUP9 PUSH2 0x2294 JUMP JUMPDEST DUP2 DUP2 SUB PUSH1 0x40 DUP4 ADD MSTORE PUSH2 0x232C DUP2 DUP8 PUSH2 0x22B3 JUMP JUMPDEST SWAP1 POP PUSH2 0x233B PUSH1 0x60 DUP4 ADD DUP7 PUSH2 0x17C8 JUMP JUMPDEST PUSH2 0x2348 PUSH1 0x80 DUP4 ADD DUP6 PUSH2 0x22EB JUMP JUMPDEST PUSH2 0x2355 PUSH1 0xA0 DUP4 ADD DUP5 PUSH2 0x17C8 JUMP JUMPDEST SWAP8 SWAP7 POP POP POP POP POP POP POP JUMP JUMPDEST PUSH0 PUSH0 PUSH1 0x40 DUP4 DUP6 SUB SLT ISZERO PUSH2 0x2376 JUMPI PUSH2 0x2375 PUSH2 0x17F9 JUMP JUMPDEST JUMPDEST PUSH0 PUSH2 0x2383 DUP6 DUP3 DUP7 ADD PUSH2 0x1AE6 JUMP JUMPDEST SWAP3 POP POP PUSH1 0x20 PUSH2 0x2394 DUP6 DUP3 DUP7 ADD PUSH2 0x20AF JUMP JUMPDEST SWAP2 POP POP SWAP3 POP SWAP3 SWAP1 POP JUMP JUMPDEST PUSH32 0x4F72646572206D75737420636F6E7461696E206174206C65617374206F6E6520 PUSH0 DUP3 ADD MSTORE PUSH32 0x6974656D00000000000000000000000000000000000000000000000000000000 PUSH1 0x20 DUP3 ADD MSTORE POP JUMP JUMPDEST PUSH0 PUSH2 0x23F8 PUSH1 0x24 DUP4 PUSH2 0x22A3 JUMP JUMPDEST SWAP2 POP PUSH2 0x2403 DUP3 PUSH2 0x239E JUMP JUMPDEST PUSH1 0x40 DUP3 ADD SWAP1 POP SWAP2 SWAP1 POP JUMP JUMPDEST PUSH0 PUSH1 0x20 DUP3 ADD SWAP1 POP DUP2 DUP2 SUB PUSH0 DUP4 ADD MSTORE PUSH2 0x2425 DUP2 PUSH2 0x23EC JUMP JUMPDEST SWAP1 POP SWAP2 SWAP1 POP JUMP JUMPDEST PUSH32 0x4E487B7100000000000000000000000000000000000000000000000000000000 PUSH0 MSTORE PUSH1 0x32 PUSH1 0x4 MSTORE PUSH1 0x24 PUSH0 REVERT JUMPDEST PUSH32 0x4E487B7100000000000000000000000000000000000000000000000000000000 PUSH0 MSTORE PUSH1 0x11 PUSH1 0x4 MSTORE PUSH1 0x24 PUSH0 REVERT JUMPDEST PUSH0 PUSH2 0x2490 DUP3 PUSH2 0x17BF JUMP JUMPDEST SWAP2 POP PUSH2 0x249B DUP4 PUSH2 0x17BF JUMP JUMPDEST SWAP3 POP DUP3 DUP3 MUL PUSH2 0x24A9 DUP2 PUSH2 0x17BF JUMP JUMPDEST SWAP2 POP DUP3 DUP3 DIV DUP5 EQ DUP4 ISZERO OR PUSH2 0x24C0 JUMPI PUSH2 0x24BF PUSH2 0x2459 JUMP JUMPDEST JUMPDEST POP SWAP3 SWAP2 POP POP JUMP JUMPDEST PUSH0 PUSH2 0x24D1 DUP3 PUSH2 0x17BF JUMP JUMPDEST SWAP2 POP PUSH2 0x24DC DUP4 PUSH2 0x17BF JUMP JUMPDEST SWAP3 POP DUP3 DUP3 ADD SWAP1 POP DUP1 DUP3 GT ISZERO PUSH2 0x24F4 JUMPI PUSH2 0x24F3 PUSH2 0x2459 JUMP JUMPDEST JUMPDEST SWAP3 SWAP2 POP POP JUMP JUMPDEST PUSH0 PUSH2 0x2504 DUP3 PUSH2 0x17BF JUMP JUMPDEST SWAP2 POP PUSH32 0xFFFFFFFFFFFFFFFFFFFFFFFFFFFFFFFFFFFFFFFFFFFFFFFFFFFFFFFFFFFFFFFF DUP3 SUB PUSH2 0x2536 JUMPI PUSH2 0x2535 PUSH2 0x2459 JUMP JUMPDEST JUMPDEST PUSH1 0x1 DUP3 ADD SWAP1 POP SWAP2 SWAP1 POP JUMP JUMPDEST PUSH32 0x4E487B7100000000000000000000000000000000000000000000000000000000 PUSH0 MSTORE PUSH1 0x22 PUSH1 0x4 MSTORE PUSH1 0x24 PUSH0 REVERT JUMPDEST PUSH0 PUSH1 0x2 DUP3 DIV SWAP1 POP PUSH1 0x1 DUP3 AND DUP1 PUSH2 0x2585 JUMPI PUSH1 0x7F DUP3 AND SWAP2 POP JUMPDEST PUSH1 0x20 DUP3 LT DUP2 SUB PUSH2 0x2598 JUMPI PUSH2 0x2597 PUSH2 0x2541 JUMP JUMPDEST JUMPDEST POP SWAP2 SWAP1 POP JUMP JUMPDEST PUSH0 DUP2 SWAP1 POP DUP2 PUSH0 MSTORE PUSH1 0x20 PUSH0 KECCAK256 SWAP1 POP SWAP2 SWAP1 POP JUMP JUMPDEST PUSH0 PUSH1 0x20 PUSH1 0x1F DUP4 ADD DIV SWAP1 POP SWAP2 SWAP1 POP JUMP JUMPDEST PUSH0 DUP3 DUP3 SHL SWAP1 POP SWAP3 SWAP2 POP POP JUMP JUMPDEST PUSH0 PUSH1 0x8 DUP4 MUL PUSH2 0x25FA PUSH32 0xFFFFFFFFFFFFFFFFFFFFFFFFFFFFFFFFFFFFFFFFFFFFFFFFFFFFFFFFFFFFFFFF DUP3 PUSH2 0x25BF JUMP JUMPDEST PUSH2 0x2604 DUP7 DUP4 PUSH2 0x25BF JUMP JUMPDEST SWAP6 POP DUP1 NOT DUP5 AND SWAP4 POP DUP1 DUP7 AND DUP5 OR SWAP3 POP POP POP SWAP4 SWAP3 POP POP POP JUMP JUMPDEST PUSH0 DUP2 SWAP1 POP SWAP2 SWAP1 POP JUMP JUMPDEST PUSH0 PUSH2 0x263F PUSH2 0x263A PUSH2 0x2635 DUP5 PUSH2 0x17BF JUMP JUMPDEST PUSH2 0x261C JUMP JUMPDEST PUSH2 0x17BF JUMP JUMPDEST SWAP1 POP SWAP2 SWAP1 POP JUMP JUMPDEST PUSH0 DUP2 SWAP1 POP SWAP2 SWAP1 POP JUMP JUMPDEST PUSH2 0x2658 DUP4 PUSH2 0x2625 JUMP JUMPDEST PUSH2 0x266C PUSH2 0x2664 DUP3 PUSH2 0x2646 JUMP JUMPDEST DUP5 DUP5 SLOAD PUSH2 0x25CB JUMP JUMPDEST DUP3 SSTORE POP POP POP POP JUMP JUMPDEST PUSH0 PUSH0 SWAP1 POP SWAP1 JUMP JUMPDEST PUSH2 0x2683 PUSH2 0x2674 JUMP JUMPDEST PUSH2 0x268E DUP2 DUP5 DUP5 PUSH2 0x264F JUMP JUMPDEST POP POP POP JUMP JUMPDEST JUMPDEST DUP2 DUP2 LT ISZERO PUSH2 0x26B1 JUMPI PUSH2 0x26A6 PUSH0 DUP3 PUSH2 0x267B JUMP JUMPDEST PUSH1 0x1 DUP2 ADD SWAP1 POP PUSH2 0x2694 JUMP JUMPDEST POP POP JUMP JUMPDEST PUSH1 0x1F DUP3 GT ISZERO PUSH2 0x26F6 JUMPI PUSH2 0x26C7 DUP2 PUSH2 0x259E JUMP JUMPDEST PUSH2 0x26D0 DUP5 PUSH2 0x25B0 JUMP JUMPDEST DUP2 ADD PUSH1 0x20 DUP6 LT ISZERO PUSH2 0x26DF JUMPI DUP2 SWAP1 POP JUMPDEST PUSH2 0x26F3 PUSH2 0x26EB DUP6 PUSH2 0x25B0 JUMP JUMPDEST DUP4 ADD DUP3 PUSH2 0x2693 JUMP JUMPDEST POP POP JUMPDEST POP POP POP JUMP JUMPDEST PUSH0 DUP3 DUP3 SHR SWAP1 POP SWAP3 SWAP2 POP POP JUMP JUMPDEST PUSH0 PUSH2 0x2716 PUSH0 NOT DUP5 PUSH1 0x8 MUL PUSH2 0x26FB JUMP JUMPDEST NOT DUP1 DUP4 AND SWAP2 POP POP SWAP3 SWAP2 POP POP JUMP JUMPDEST PUSH0 PUSH2 0x272E DUP4 DUP4 PUSH2 0x2707 JUMP JUMPDEST SWAP2 POP DUP3 PUSH1 0x2 MUL DUP3 OR SWAP1 POP SWAP3 SWAP2 POP POP JUMP JUMPDEST PUSH2 0x2747 DUP3 PUSH2 0x1CD5 JUMP JUMPDEST PUSH8 0xFFFFFFFFFFFFFFFF DUP2 GT ISZERO PUSH2 0x2760 JUMPI PUSH2 0x275F PUSH2 0x1975 JUMP JUMPDEST JUMPDEST PUSH2 0x276A DUP3 SLOAD PUSH2 0x256E JUMP JUMPDEST PUSH2 0x2775 DUP3 DUP3 DUP6 PUSH2 0x26B5 JUMP JUMPDEST PUSH0 PUSH1 0x20 SWAP1 POP PUSH1 0x1F DUP4 GT PUSH1 0x1 DUP2 EQ PUSH2 0x27A6 JUMPI PUSH0 DUP5 ISZERO PUSH2 0x2794 JUMPI DUP3 DUP8 ADD MLOAD SWAP1 POP JUMPDEST PUSH2 0x279E DUP6 DUP3 PUSH2 0x2723 JUMP JUMPDEST DUP7 SSTORE POP PUSH2 0x2805 JUMP JUMPDEST PUSH1 0x1F NOT DUP5 AND PUSH2 0x27B4 DUP7 PUSH2 0x259E JUMP JUMPDEST PUSH0 JUMPDEST DUP3 DUP2 LT ISZERO PUSH2 0x27DB JUMPI DUP5 DUP10 ADD MLOAD DUP3 SSTORE PUSH1 0x1 DUP3 ADD SWAP2 POP PUSH1 0x20 DUP6 ADD SWAP5 POP PUSH1 0x20 DUP2 ADD SWAP1 POP PUSH2 0x27B6 JUMP JUMPDEST DUP7 DUP4 LT ISZERO PUSH2 0x27F8 JUMPI DUP5 DUP10 ADD MLOAD PUSH2 0x27F4 PUSH1 0x1F DUP10 AND DUP3 PUSH2 0x2707 JUMP JUMPDEST DUP4 SSTORE POP JUMPDEST PUSH1 0x1 PUSH1 0x2 DUP9 MUL ADD DUP9 SSTORE POP POP POP JUMPDEST POP POP POP POP POP POP JUMP JUMPDEST PUSH0 DUP2 SLOAD SWAP1 POP PUSH2 0x281B DUP2 PUSH2 0x256E JUMP JUMPDEST SWAP1 POP SWAP2 SWAP1 POP JUMP JUMPDEST DUP2 DUP2 SUB PUSH2 0x2830 JUMPI POP POP PUSH2 0x2905 JUMP JUMPDEST PUSH2 0x2839 DUP3 PUSH2 0x280D JUMP JUMPDEST PUSH8 0xFFFFFFFFFFFFFFFF DUP2 GT ISZERO PUSH2 0x2852 JUMPI PUSH2 0x2851 PUSH2 0x1975 JUMP JUMPDEST JUMPDEST PUSH2 0x285C DUP3 SLOAD PUSH2 0x256E JUMP JUMPDEST PUSH2 0x2867 DUP3 DUP3 DUP6 PUSH2 0x26B5 JUMP JUMPDEST PUSH0 PUSH1 0x1F DUP4 GT PUSH1 0x1 DUP2 EQ PUSH2 0x2894 JUMPI PUSH0 DUP5 ISZERO PUSH2 0x2882 JUMPI DUP3 DUP8 ADD SLOAD SWAP1 POP JUMPDEST PUSH2 0x288C DUP6 DUP3 PUSH2 0x2723 JUMP JUMPDEST DUP7 SSTORE POP PUSH2 0x28FE JUMP JUMPDEST PUSH1 0x1F NOT DUP5 AND PUSH2 0x28A2 DUP8 PUSH2 0x259E JUMP JUMPDEST SWAP7 POP PUSH2 0x28AD DUP7 PUSH2 0x259E JUMP JUMPDEST PUSH0 JUMPDEST DUP3 DUP2 LT ISZERO PUSH2 0x28D4 JUMPI DUP5 DUP10 ADD SLOAD DUP3 SSTORE PUSH1 0x1 DUP3 ADD SWAP2 POP PUSH1 0x1 DUP6 ADD SWAP5 POP PUSH1 0x20 DUP2 ADD SWAP1 POP PUSH2 0x28AF JUMP JUMPDEST DUP7 DUP4 LT ISZERO PUSH2 0x28F1 JUMPI DUP5 DUP10 ADD SLOAD PUSH2 0x28ED PUSH1 0x1F DUP10 AND DUP3 PUSH2 0x2707 JUMP JUMPDEST DUP4 SSTORE POP JUMPDEST PUSH1 0x1 PUSH1 0x2 DUP9 MUL ADD DUP9 SSTORE POP POP POP JUMPDEST POP POP POP POP POP POP JUMPDEST JUMP JUMPDEST PUSH0 DUP2 MLOAD SWAP1 POP SWAP2 SWAP1 POP JUMP JUMPDEST PUSH0 DUP3 DUP3 MSTORE PUSH1 0x20 DUP3 ADD SWAP1 POP SWAP3 SWAP2 POP POP JUMP JUMPDEST PUSH0 DUP2 SWAP1 POP PUSH1 0x20 DUP3 ADD SWAP1 POP SWAP2 SWAP1 POP JUMP JUMPDEST PUSH0 PUSH1 0x80 DUP4 ADD PUSH0 DUP4 ADD MLOAD PUSH2 0x2945 PUSH0 DUP7 ADD DUP3 PUSH2 0x18AF JUMP JUMPDEST POP PUSH1 0x20 DUP4 ADD MLOAD PUSH2 0x2958 PUSH1 0x20 DUP7 ADD DUP3 PUSH2 0x18AF JUMP JUMPDEST POP PUSH1 0x40 DUP4 ADD MLOAD PUSH2 0x296B PUSH1 0x40 DUP7 ADD DUP3 PUSH2 0x18AF JUMP JUMPDEST POP PUSH1 0x60 DUP4 ADD MLOAD DUP5 DUP3 SUB PUSH1 0x60 DUP7 ADD MSTORE PUSH2 0x2983 DUP3 DUP3 PUSH2 0x1CFD JUMP JUMPDEST SWAP2 POP POP DUP1 SWAP2 POP POP SWAP3 SWAP2 POP POP JUMP JUMPDEST PUSH0 PUSH2 0x299B DUP4 DUP4 PUSH2 0x2930 JUMP JUMPDEST SWAP1 POP SWAP3 SWAP2 POP POP JUMP JUMPDEST PUSH0 PUSH1 0x20 DUP3 ADD SWAP1 POP SWAP2 SWAP1 POP JUMP JUMPDEST PUSH0 PUSH2 0x29B9 DUP3 PUSH2 0x2907 JUMP JUMPDEST PUSH2 0x29C3 DUP2 DUP6 PUSH2 0x2911 JUMP JUMPDEST SWAP4 POP DUP4 PUSH1 0x20 DUP3 MUL DUP6 ADD PUSH2 0x29D5 DUP6 PUSH2 0x2921 JUMP JUMPDEST DUP1 PUSH0 JUMPDEST DUP6 DUP2 LT ISZERO PUSH2 0x2A10 JUMPI DUP5 DUP5 SUB DUP10 MSTORE DUP2 MLOAD PUSH2 0x29F1 DUP6 DUP3 PUSH2 0x2990 JUMP JUMPDEST SWAP5 POP PUSH2 0x29FC DUP4 PUSH2 0x29A3 JUMP JUMPDEST SWAP3 POP PUSH1 0x20 DUP11 ADD SWAP10 POP POP PUSH1 0x1 DUP2 ADD SWAP1 POP PUSH2 0x29D8 JUMP JUMPDEST POP DUP3 SWAP8 POP DUP8 SWAP6 POP POP POP POP POP POP SWAP3 SWAP2 POP POP JUMP JUMPDEST PUSH0 PUSH1 0xA0 DUP3 ADD SWAP1 POP PUSH2 0x2A35 PUSH0 DUP4 ADD DUP9 PUSH2 0x17C8 JUMP JUMPDEST PUSH2 0x2A42 PUSH1 0x20 DUP4 ADD DUP8 PUSH2 0x2294 JUMP JUMPDEST PUSH2 0x2A4F PUSH1 0x40 DUP4 ADD DUP7 PUSH2 0x17C8 JUMP JUMPDEST PUSH2 0x2A5C PUSH1 0x60 DUP4 ADD DUP6 PUSH2 0x22EB JUMP JUMPDEST DUP2 DUP2 SUB PUSH1 0x80 DUP4 ADD MSTORE PUSH2 0x2A6E DUP2 DUP5 PUSH2 0x29AF JUMP JUMPDEST SWAP1 POP SWAP7 SWAP6 POP POP POP POP POP POP JUMP JUMPDEST PUSH32 0x4F7264657220646F6573206E6F74206578697374000000000000000000000000 PUSH0 DUP3 ADD MSTORE POP JUMP JUMPDEST PUSH0 PUSH2 0x2AAE PUSH1 0x14 DUP4 PUSH2 0x22A3 JUMP JUMPDEST SWAP2 POP PUSH2 0x2AB9 DUP3 PUSH2 0x2A7A JUMP JUMPDEST PUSH1 0x20 DUP3 ADD SWAP1 POP SWAP2 SWAP1 POP JUMP JUMPDEST PUSH0 PUSH1 0x20 DUP3 ADD SWAP1 POP DUP2 DUP2 SUB PUSH0 DUP4 ADD MSTORE PUSH2 0x2ADB DUP2 PUSH2 0x2AA2 JUMP JUMPDEST SWAP1 POP SWAP2 SWAP1 POP JUMP JUMPDEST PUSH32 0x4F72646572206974656D20616C7265616479206D61726B656420617320737563 PUSH0 DUP3 ADD MSTORE PUSH32 0x636573732E2043616E206E6F7420757064617465000000000000000000000000 PUSH1 0x20 DUP3 ADD MSTORE POP JUMP JUMPDEST PUSH0 PUSH2 0x2B3C PUSH1 0x34 DUP4 PUSH2 0x22A3 JUMP JUMPDEST SWAP2 POP PUSH2 0x2B47 DUP3 PUSH2 0x2AE2 JUMP JUMPDEST PUSH1 0x40 DUP3 ADD SWAP1 POP SWAP2 SWAP1 POP JUMP JUMPDEST PUSH0 PUSH1 0x20 DUP3 ADD SWAP1 POP DUP2 DUP2 SUB PUSH0 DUP4 ADD MSTORE PUSH2 0x2B69 DUP2 PUSH2 0x2B30 JUMP JUMPDEST SWAP1 POP SWAP2 SWAP1 POP JUMP JUMPDEST PUSH0 PUSH2 0x2B7A DUP3 PUSH2 0x17BF JUMP JUMPDEST SWAP2 POP PUSH2 0x2B85 DUP4 PUSH2 0x17BF JUMP JUMPDEST SWAP3 POP DUP3 DUP3 SUB SWAP1 POP DUP2 DUP2 GT ISZERO PUSH2 0x2B9D JUMPI PUSH2 0x2B9C PUSH2 0x2459 JUMP JUMPDEST JUMPDEST SWAP3 SWAP2 POP POP JUMP JUMPDEST PUSH2 0x2BAC DUP2 PUSH2 0x1DB1 JUMP JUMPDEST DUP3 MSTORE POP POP JUMP JUMPDEST PUSH0 PUSH1 0x60 DUP3 ADD SWAP1 POP PUSH2 0x2BC5 PUSH0 DUP4 ADD DUP7 PUSH2 0x17C8 JUMP JUMPDEST PUSH2 0x2BD2 PUSH1 0x20 DUP4 ADD DUP6 PUSH2 0x17C8 JUMP JUMPDEST PUSH2 0x2BDF PUSH1 0x40 DUP4 ADD DUP5 PUSH2 0x2BA3 JUMP JUMPDEST SWAP5 SWAP4 POP POP POP POP JUMP JUMPDEST PUSH0 PUSH1 0x40 DUP3 ADD SWAP1 POP PUSH2 0x2BFA PUSH0 DUP4 ADD DUP6 PUSH2 0x17C8 JUMP JUMPDEST PUSH2 0x2C07 PUSH1 0x20 DUP4 ADD DUP5 PUSH2 0x22EB JUMP JUMPDEST SWAP4 SWAP3 POP POP POP JUMP INVALID LOG2 PUSH5 0x6970667358 0x22 SLT KECCAK256 SWAP16 0x21 PUSH29 0x20FA40BF6C2E7CCAF5DD985F3CF2D125AB989CBF5CC05BE0EB019842C5 PUSH5 0x736F6C6343 STOP ADDMOD 0x1E STOP CALLER "
				},
				"gasEstimates": {
					"creation": {
						"codeDepositCost": "2266400",
						"executionCost": "46636",
						"totalCost": "2313036"
					},
					"external": {
						"createOrder(address,string,(uint256,uint256,uint256,string)[])": "infinite",
						"getOrdersByStatus(uint8)": "infinite",
						"getUserOrders(address)": "infinite",
						"nextOrderId()": "2426",
						"orders(uint256)": "infinite",
						"updateOrderItemStatus(uint256,uint256,uint8)": "infinite",
						"updateOrderStatus(uint256,uint8)": "infinite",
						"userOrders(address,uint256)": "infinite"
					}
				},
				"methodIdentifiers": {
					"createOrder(address,string,(uint256,uint256,uint256,string)[])": "6590209d",
					"getOrdersByStatus(uint8)": "8ce2ec79",
					"getUserOrders(address)": "63c69f08",
					"nextOrderId()": "2a58b330",
					"orders(uint256)": "a85c38ef",
					"updateOrderItemStatus(uint256,uint256,uint8)": "8a46e8eb",
					"updateOrderStatus(uint256,uint8)": "aab3196d",
					"userOrders(address,uint256)": "856652e9"
				}
			},
			"storageLayout": {
				"storage": [
					{
						"astId": 96,
						"contract": "contracts/manager/OrderManager.sol:OrderManager",
						"label": "nextOrderItemId",
						"offset": 0,
						"slot": "0",
						"type": "t_uint256"
					},
					{
						"astId": 101,
						"contract": "contracts/manager/OrderManager.sol:OrderManager",
						"label": "orders",
						"offset": 0,
						"slot": "1",
						"type": "t_mapping(t_uint256,t_struct(Order)597_storage)"
					},
					{
						"astId": 104,
						"contract": "contracts/manager/OrderManager.sol:OrderManager",
						"label": "nextOrderId",
						"offset": 0,
						"slot": "2",
						"type": "t_uint256"
					},
					{
						"astId": 109,
						"contract": "contracts/manager/OrderManager.sol:OrderManager",
						"label": "userOrders",
						"offset": 0,
						"slot": "3",
						"type": "t_mapping(t_address,t_array(t_uint256)dyn_storage)"
					}
				],
				"types": {
					"t_address": {
						"encoding": "inplace",
						"label": "address",
						"numberOfBytes": "20"
					},
					"t_array(t_struct(OrderItem)570_storage)dyn_storage": {
						"base": "t_struct(OrderItem)570_storage",
						"encoding": "dynamic_array",
						"label": "struct OrderItem[]",
						"numberOfBytes": "32"
					},
					"t_array(t_uint256)dyn_storage": {
						"base": "t_uint256",
						"encoding": "dynamic_array",
						"label": "uint256[]",
						"numberOfBytes": "32"
					},
					"t_enum(OrderItemStatus)556": {
						"encoding": "inplace",
						"label": "enum OrderItemStatus",
						"numberOfBytes": "1"
					},
					"t_enum(OrderStatus)552": {
						"encoding": "inplace",
						"label": "enum OrderStatus",
						"numberOfBytes": "1"
					},
					"t_mapping(t_address,t_array(t_uint256)dyn_storage)": {
						"encoding": "mapping",
						"key": "t_address",
						"label": "mapping(address => uint256[])",
						"numberOfBytes": "32",
						"value": "t_array(t_uint256)dyn_storage"
					},
					"t_mapping(t_uint256,t_struct(Order)597_storage)": {
						"encoding": "mapping",
						"key": "t_uint256",
						"label": "mapping(uint256 => struct Order)",
						"numberOfBytes": "32",
						"value": "t_struct(Order)597_storage"
					},
					"t_string_storage": {
						"encoding": "bytes",
						"label": "string",
						"numberOfBytes": "32"
					},
					"t_struct(Order)597_storage": {
						"encoding": "inplace",
						"label": "struct Order",
						"members": [
							{
								"astId": 581,
								"contract": "contracts/manager/OrderManager.sol:OrderManager",
								"label": "orderId",
								"offset": 0,
								"slot": "0",
								"type": "t_uint256"
							},
							{
								"astId": 583,
								"contract": "contracts/manager/OrderManager.sol:OrderManager",
								"label": "user",
								"offset": 0,
								"slot": "1",
								"type": "t_address"
							},
							{
								"astId": 585,
								"contract": "contracts/manager/OrderManager.sol:OrderManager",
								"label": "userInfo",
								"offset": 0,
								"slot": "2",
								"type": "t_string_storage"
							},
							{
								"astId": 589,
								"contract": "contracts/manager/OrderManager.sol:OrderManager",
								"label": "items",
								"offset": 0,
								"slot": "3",
								"type": "t_array(t_struct(OrderItem)570_storage)dyn_storage"
							},
							{
								"astId": 591,
								"contract": "contracts/manager/OrderManager.sol:OrderManager",
								"label": "totalAmount",
								"offset": 0,
								"slot": "4",
								"type": "t_uint256"
							},
							{
								"astId": 594,
								"contract": "contracts/manager/OrderManager.sol:OrderManager",
								"label": "status",
								"offset": 0,
								"slot": "5",
								"type": "t_enum(OrderStatus)552"
							},
							{
								"astId": 596,
								"contract": "contracts/manager/OrderManager.sol:OrderManager",
								"label": "timestamp",
								"offset": 0,
								"slot": "6",
								"type": "t_uint256"
							}
						],
						"numberOfBytes": "224"
					},
					"t_struct(OrderItem)570_storage": {
						"encoding": "inplace",
						"label": "struct OrderItem",
						"members": [
							{
								"astId": 558,
								"contract": "contracts/manager/OrderManager.sol:OrderManager",
								"label": "orderItemId",
								"offset": 0,
								"slot": "0",
								"type": "t_uint256"
							},
							{
								"astId": 560,
								"contract": "contracts/manager/OrderManager.sol:OrderManager",
								"label": "name",
								"offset": 0,
								"slot": "1",
								"type": "t_uint256"
							},
							{
								"astId": 562,
								"contract": "contracts/manager/OrderManager.sol:OrderManager",
								"label": "quantity",
								"offset": 0,
								"slot": "2",
								"type": "t_uint256"
							},
							{
								"astId": 564,
								"contract": "contracts/manager/OrderManager.sol:OrderManager",
								"label": "price",
								"offset": 0,
								"slot": "3",
								"type": "t_uint256"
							},
							{
								"astId": 566,
								"contract": "contracts/manager/OrderManager.sol:OrderManager",
								"label": "imageUrl",
								"offset": 0,
								"slot": "4",
								"type": "t_string_storage"
							},
							{
								"astId": 569,
								"contract": "contracts/manager/OrderManager.sol:OrderManager",
								"label": "status",
								"offset": 0,
								"slot": "5",
								"type": "t_enum(OrderItemStatus)556"
							}
						],
						"numberOfBytes": "192"
					},
					"t_uint256": {
						"encoding": "inplace",
						"label": "uint256",
						"numberOfBytes": "32"
					}
				}
			},
			"userdoc": {
				"kind": "user",
				"methods": {},
				"version": 1
			}
		}
	}
}