{
	"contracts/manager/FoodManager.sol": {
		"FoodManager": {
			"abi": [
				{
					"inputs": [
						{
							"internalType": "address",
							"name": "_categoryManagerAddress",
							"type": "address"
						}
					],
					"stateMutability": "nonpayable",
					"type": "constructor"
				},
				{
					"anonymous": false,
					"inputs": [
						{
							"indexed": false,
							"internalType": "uint256",
							"name": "foodId",
							"type": "uint256"
						},
						{
							"indexed": false,
							"internalType": "string",
							"name": "name",
							"type": "string"
						},
						{
							"indexed": false,
							"internalType": "string",
							"name": "description",
							"type": "string"
						},
						{
							"indexed": false,
							"internalType": "uint256",
							"name": "categoryId",
							"type": "uint256"
						},
						{
							"indexed": false,
							"internalType": "string[]",
							"name": "imageUrl",
							"type": "string[]"
						}
					],
					"name": "FoodCreated",
					"type": "event"
				},
				{
					"anonymous": false,
					"inputs": [
						{
							"indexed": false,
							"internalType": "uint256",
							"name": "foodId",
							"type": "uint256"
						}
					],
					"name": "FoodDeleted",
					"type": "event"
				},
				{
					"anonymous": false,
					"inputs": [
						{
							"indexed": false,
							"internalType": "uint256",
							"name": "foodId",
							"type": "uint256"
						},
						{
							"indexed": false,
							"internalType": "uint256",
							"name": "foodDetailId",
							"type": "uint256"
						}
					],
					"name": "FoodDetailDeleted",
					"type": "event"
				},
				{
					"anonymous": false,
					"inputs": [
						{
							"indexed": false,
							"internalType": "uint256",
							"name": "foodId",
							"type": "uint256"
						},
						{
							"indexed": false,
							"internalType": "uint256",
							"name": "foodDetailId",
							"type": "uint256"
						}
					],
					"name": "FoodDetailUpdated",
					"type": "event"
				},
				{
					"anonymous": false,
					"inputs": [
						{
							"indexed": false,
							"internalType": "uint256",
							"name": "foodId",
							"type": "uint256"
						}
					],
					"name": "FoodDetailsAdded",
					"type": "event"
				},
				{
					"anonymous": false,
					"inputs": [
						{
							"indexed": false,
							"internalType": "uint256",
							"name": "foodId",
							"type": "uint256"
						},
						{
							"indexed": false,
							"internalType": "string",
							"name": "name",
							"type": "string"
						},
						{
							"indexed": false,
							"internalType": "string",
							"name": "description",
							"type": "string"
						},
						{
							"indexed": false,
							"internalType": "uint256",
							"name": "categoryId",
							"type": "uint256"
						},
						{
							"indexed": false,
							"internalType": "string[]",
							"name": "imageUrl",
							"type": "string[]"
						}
					],
					"name": "FoodUpdated",
					"type": "event"
				},
				{
					"inputs": [
						{
							"internalType": "address",
							"name": "_admin",
							"type": "address"
						}
					],
					"name": "addAdmin",
					"outputs": [],
					"stateMutability": "nonpayable",
					"type": "function"
				},
				{
					"inputs": [
						{
							"internalType": "uint256",
							"name": "foodId",
							"type": "uint256"
						},
						{
							"components": [
								{
									"internalType": "string",
									"name": "size",
									"type": "string"
								},
								{
									"internalType": "uint256",
									"name": "quantity",
									"type": "uint256"
								},
								{
									"internalType": "uint256",
									"name": "price",
									"type": "uint256"
								}
							],
							"internalType": "struct UpdateFoodDetail[]",
							"name": "details",
							"type": "tuple[]"
						}
					],
					"name": "addFoodDetails",
					"outputs": [],
					"stateMutability": "nonpayable",
					"type": "function"
				},
				{
					"inputs": [],
					"name": "categoryManager",
					"outputs": [
						{
							"internalType": "contract ICategoryManager",
							"name": "",
							"type": "address"
						}
					],
					"stateMutability": "view",
					"type": "function"
				},
				{
					"inputs": [
						{
							"internalType": "uint256",
							"name": "_foodId",
							"type": "uint256"
						},
						{
							"internalType": "string",
							"name": "_name",
							"type": "string"
						},
						{
							"internalType": "string",
							"name": "_description",
							"type": "string"
						},
						{
							"internalType": "uint256",
							"name": "_categoryId",
							"type": "uint256"
						},
						{
							"internalType": "string[]",
							"name": "_imageUrl",
							"type": "string[]"
						},
						{
							"components": [
								{
									"internalType": "string",
									"name": "size",
									"type": "string"
								},
								{
									"internalType": "uint256",
									"name": "quantity",
									"type": "uint256"
								},
								{
									"internalType": "uint256",
									"name": "price",
									"type": "uint256"
								}
							],
							"internalType": "struct UpdateFoodDetail[]",
							"name": "_foodDetail",
							"type": "tuple[]"
						}
					],
					"name": "createFood",
					"outputs": [],
					"stateMutability": "nonpayable",
					"type": "function"
				},
				{
					"inputs": [
						{
							"internalType": "uint256",
							"name": "foodId",
							"type": "uint256"
						}
					],
					"name": "deleteFood",
					"outputs": [],
					"stateMutability": "nonpayable",
					"type": "function"
				},
				{
					"inputs": [
						{
							"internalType": "uint256",
							"name": "foodId",
							"type": "uint256"
						},
						{
							"internalType": "uint256",
							"name": "foodDetailId",
							"type": "uint256"
						}
					],
					"name": "deleteFoodDetail",
					"outputs": [],
					"stateMutability": "nonpayable",
					"type": "function"
				},
				{
					"inputs": [],
					"name": "getAllFoods",
					"outputs": [
						{
							"components": [
								{
									"components": [
										{
											"internalType": "uint256",
											"name": "foodId",
											"type": "uint256"
										},
										{
											"internalType": "string",
											"name": "name",
											"type": "string"
										},
										{
											"internalType": "string",
											"name": "description",
											"type": "string"
										},
										{
											"internalType": "uint256",
											"name": "categoryId",
											"type": "uint256"
										},
										{
											"internalType": "string[]",
											"name": "imageUrl",
											"type": "string[]"
										},
										{
											"internalType": "uint256",
											"name": "soldQuantity",
											"type": "uint256"
										},
										{
											"internalType": "uint256",
											"name": "sumRating",
											"type": "uint256"
										},
										{
											"internalType": "uint256",
											"name": "countRating",
											"type": "uint256"
										}
									],
									"internalType": "struct Food",
									"name": "food",
									"type": "tuple"
								},
								{
									"components": [
										{
											"internalType": "uint256",
											"name": "foodDetailId",
											"type": "uint256"
										},
										{
											"internalType": "string",
											"name": "size",
											"type": "string"
										},
										{
											"internalType": "uint256",
											"name": "quantity",
											"type": "uint256"
										},
										{
											"internalType": "uint256",
											"name": "price",
											"type": "uint256"
										}
									],
									"internalType": "struct FoodDetail[]",
									"name": "foodDetails",
									"type": "tuple[]"
								}
							],
							"internalType": "struct FoodWithDetails[]",
							"name": "",
							"type": "tuple[]"
						}
					],
					"stateMutability": "view",
					"type": "function"
				},
				{
					"inputs": [
						{
							"internalType": "uint256",
							"name": "foodId",
							"type": "uint256"
						}
					],
					"name": "getFood",
					"outputs": [
						{
							"components": [
								{
									"internalType": "uint256",
									"name": "foodId",
									"type": "uint256"
								},
								{
									"internalType": "string",
									"name": "name",
									"type": "string"
								},
								{
									"internalType": "string",
									"name": "description",
									"type": "string"
								},
								{
									"internalType": "uint256",
									"name": "categoryId",
									"type": "uint256"
								},
								{
									"internalType": "string[]",
									"name": "imageUrl",
									"type": "string[]"
								},
								{
									"internalType": "uint256",
									"name": "soldQuantity",
									"type": "uint256"
								},
								{
									"internalType": "uint256",
									"name": "sumRating",
									"type": "uint256"
								},
								{
									"internalType": "uint256",
									"name": "countRating",
									"type": "uint256"
								}
							],
							"internalType": "struct Food",
							"name": "",
							"type": "tuple"
						}
					],
					"stateMutability": "view",
					"type": "function"
				},
				{
					"inputs": [
						{
							"internalType": "uint256",
							"name": "_foodId",
							"type": "uint256"
						},
						{
							"internalType": "uint256",
							"name": "_foodDetailId",
							"type": "uint256"
						}
					],
					"name": "getFoodDetailByFoodId_FoodDetailId",
					"outputs": [
						{
							"components": [
								{
									"internalType": "uint256",
									"name": "foodDetailId",
									"type": "uint256"
								},
								{
									"internalType": "string",
									"name": "size",
									"type": "string"
								},
								{
									"internalType": "uint256",
									"name": "quantity",
									"type": "uint256"
								},
								{
									"internalType": "uint256",
									"name": "price",
									"type": "uint256"
								}
							],
							"internalType": "struct FoodDetail",
							"name": "fd",
							"type": "tuple"
						}
					],
					"stateMutability": "view",
					"type": "function"
				},
				{
					"inputs": [
						{
							"internalType": "uint256",
							"name": "foodId",
							"type": "uint256"
						}
					],
					"name": "getFoodDetails",
					"outputs": [
						{
							"components": [
								{
									"internalType": "uint256",
									"name": "foodDetailId",
									"type": "uint256"
								},
								{
									"internalType": "string",
									"name": "size",
									"type": "string"
								},
								{
									"internalType": "uint256",
									"name": "quantity",
									"type": "uint256"
								},
								{
									"internalType": "uint256",
									"name": "price",
									"type": "uint256"
								}
							],
							"internalType": "struct FoodDetail[]",
							"name": "",
							"type": "tuple[]"
						}
					],
					"stateMutability": "view",
					"type": "function"
				},
				{
					"inputs": [],
					"name": "getOwner",
					"outputs": [
						{
							"internalType": "address",
							"name": "",
							"type": "address"
						}
					],
					"stateMutability": "view",
					"type": "function"
				},
				{
					"inputs": [
						{
							"internalType": "uint256",
							"name": "_foodId",
							"type": "uint256"
						},
						{
							"internalType": "uint256",
							"name": "foodDetailId",
							"type": "uint256"
						},
						{
							"internalType": "uint256",
							"name": "_quantity",
							"type": "uint256"
						}
					],
					"name": "increaseQuantiy",
					"outputs": [],
					"stateMutability": "nonpayable",
					"type": "function"
				},
				{
					"inputs": [
						{
							"internalType": "address",
							"name": "",
							"type": "address"
						}
					],
					"name": "isAdmin",
					"outputs": [
						{
							"internalType": "enum RoleAccess.Role",
							"name": "",
							"type": "uint8"
						}
					],
					"stateMutability": "view",
					"type": "function"
				},
				{
					"inputs": [],
					"name": "nextFoodDetailId",
					"outputs": [
						{
							"internalType": "uint256",
							"name": "",
							"type": "uint256"
						}
					],
					"stateMutability": "view",
					"type": "function"
				},
				{
					"inputs": [],
					"name": "nextFoodId",
					"outputs": [
						{
							"internalType": "uint256",
							"name": "",
							"type": "uint256"
						}
					],
					"stateMutability": "view",
					"type": "function"
				},
				{
					"inputs": [
						{
							"internalType": "uint256",
							"name": "_foodId",
							"type": "uint256"
						},
						{
							"internalType": "uint256",
							"name": "foodDetailId",
							"type": "uint256"
						},
						{
							"internalType": "uint256",
							"name": "_quantity",
							"type": "uint256"
						}
					],
					"name": "reduceQuantiy",
					"outputs": [],
					"stateMutability": "nonpayable",
					"type": "function"
				},
				{
					"inputs": [
						{
							"internalType": "address",
							"name": "_admin",
							"type": "address"
						}
					],
					"name": "removeAdmin",
					"outputs": [],
					"stateMutability": "nonpayable",
					"type": "function"
				},
				{
					"inputs": [
						{
							"internalType": "uint256",
							"name": "_foodId",
							"type": "uint256"
						},
						{
							"internalType": "string",
							"name": "_name",
							"type": "string"
						},
						{
							"internalType": "string",
							"name": "_description",
							"type": "string"
						},
						{
							"internalType": "uint256",
							"name": "_categoryId",
							"type": "uint256"
						},
						{
							"internalType": "string[]",
							"name": "_imageUrl",
							"type": "string[]"
						}
					],
					"name": "updateFood",
					"outputs": [],
					"stateMutability": "nonpayable",
					"type": "function"
				},
				{
					"inputs": [
						{
							"internalType": "uint256",
							"name": "foodId",
							"type": "uint256"
						},
						{
							"internalType": "uint256",
							"name": "foodDetailId",
							"type": "uint256"
						},
						{
							"components": [
								{
									"internalType": "string",
									"name": "size",
									"type": "string"
								},
								{
									"internalType": "uint256",
									"name": "quantity",
									"type": "uint256"
								},
								{
									"internalType": "uint256",
									"name": "price",
									"type": "uint256"
								}
							],
							"internalType": "struct UpdateFoodDetail",
							"name": "newDetail",
							"type": "tuple"
						}
					],
					"name": "updateFoodDetail",
					"outputs": [],
					"stateMutability": "nonpayable",
					"type": "function"
				}
			],
			"devdoc": {
				"kind": "dev",
				"methods": {},
				"version": 1
			},
			"evm": {
				"assembly": "    /* \"contracts/manager/FoodManager.sol\":216:8146  contract FoodManager is IFoodManager, RoleAccess {... */\n  mstore(0x40, 0x80)\n    /* \"contracts/manager/FoodManager.sol\":345:346  1 */\n  0x01\n    /* \"contracts/manager/FoodManager.sol\":317:346  uint256 public nextFoodId = 1 */\n  0x03\n  sstore\n    /* \"contracts/manager/FoodManager.sol\":386:387  1 */\n  0x01\n    /* \"contracts/manager/FoodManager.sol\":352:387  uint256 public nextFoodDetailId = 1 */\n  0x04\n  sstore\n    /* \"contracts/manager/FoodManager.sol\":527:680  constructor(address _categoryManagerAddress) {... */\n  callvalue\n  dup1\n  iszero\n  tag_1\n  jumpi\n  revert(0x00, 0x00)\ntag_1:\n  pop\n  mload(0x40)\n  sub(codesize, bytecodeSize)\n  dup1\n  bytecodeSize\n  dup4\n  codecopy\n  dup2\n  dup2\n  add\n  0x40\n  mstore\n  dup2\n  add\n  swap1\n  tag_2\n  swap2\n  swap1\n  tag_3\n  jump\t// in\ntag_2:\n    /* \"contracts/access/RoleAccess.sol\":512:522  msg.sender */\n  caller\n    /* \"contracts/access/RoleAccess.sol\":505:510  owner */\n  0x00\n  0x00\n    /* \"contracts/access/RoleAccess.sol\":505:522  owner =msg.sender */\n  0x0100\n  exp\n  dup2\n  sload\n  dup2\n  0xffffffffffffffffffffffffffffffffffffffff\n  mul\n  not\n  and\n  swap1\n  dup4\n  0xffffffffffffffffffffffffffffffffffffffff\n  and\n  mul\n  or\n  swap1\n  sstore\n  pop\n    /* \"contracts/manager/FoodManager.sol\":617:640  _categoryManagerAddress */\n  dup1\n    /* \"contracts/manager/FoodManager.sol\":582:597  categoryManager */\n  0x02\n  0x00\n    /* \"contracts/manager/FoodManager.sol\":582:641  categoryManager = ICategoryManager(_categoryManagerAddress) */\n  0x0100\n  exp\n  dup2\n  sload\n  dup2\n  0xffffffffffffffffffffffffffffffffffffffff\n  mul\n  not\n  and\n  swap1\n  dup4\n  0xffffffffffffffffffffffffffffffffffffffff\n  and\n  mul\n  or\n  swap1\n  sstore\n  pop\n    /* \"contracts/manager/FoodManager.sol\":527:680  constructor(address _categoryManagerAddress) {... */\n  pop\n    /* \"contracts/manager/FoodManager.sol\":216:8146  contract FoodManager is IFoodManager, RoleAccess {... */\n  jump(tag_8)\n    /* \"#utility.yul\":88:205   */\ntag_10:\n    /* \"#utility.yul\":197:198   */\n  0x00\n    /* \"#utility.yul\":194:195   */\n  0x00\n    /* \"#utility.yul\":187:199   */\n  revert\n    /* \"#utility.yul\":334:460   */\ntag_12:\n    /* \"#utility.yul\":371:378   */\n  0x00\n    /* \"#utility.yul\":411:453   */\n  0xffffffffffffffffffffffffffffffffffffffff\n    /* \"#utility.yul\":404:409   */\n  dup3\n    /* \"#utility.yul\":400:454   */\n  and\n    /* \"#utility.yul\":389:454   */\n  swap1\n  pop\n    /* \"#utility.yul\":334:460   */\n  swap2\n  swap1\n  pop\n  jump\t// out\n    /* \"#utility.yul\":466:562   */\ntag_13:\n    /* \"#utility.yul\":503:510   */\n  0x00\n    /* \"#utility.yul\":532:556   */\n  tag_22\n    /* \"#utility.yul\":550:555   */\n  dup3\n    /* \"#utility.yul\":532:556   */\n  tag_12\n  jump\t// in\ntag_22:\n    /* \"#utility.yul\":521:556   */\n  swap1\n  pop\n    /* \"#utility.yul\":466:562   */\n  swap2\n  swap1\n  pop\n  jump\t// out\n    /* \"#utility.yul\":568:690   */\ntag_14:\n    /* \"#utility.yul\":641:665   */\n  tag_24\n    /* \"#utility.yul\":659:664   */\n  dup2\n    /* \"#utility.yul\":641:665   */\n  tag_13\n  jump\t// in\ntag_24:\n    /* \"#utility.yul\":634:639   */\n  dup2\n    /* \"#utility.yul\":631:666   */\n  eq\n    /* \"#utility.yul\":621:684   */\n  tag_25\n  jumpi\n    /* \"#utility.yul\":680:681   */\n  0x00\n    /* \"#utility.yul\":677:678   */\n  0x00\n    /* \"#utility.yul\":670:682   */\n  revert\n    /* \"#utility.yul\":621:684   */\ntag_25:\n    /* \"#utility.yul\":568:690   */\n  pop\n  jump\t// out\n    /* \"#utility.yul\":696:839   */\ntag_15:\n    /* \"#utility.yul\":753:758   */\n  0x00\n    /* \"#utility.yul\":784:790   */\n  dup2\n    /* \"#utility.yul\":778:791   */\n  mload\n    /* \"#utility.yul\":769:791   */\n  swap1\n  pop\n    /* \"#utility.yul\":800:833   */\n  tag_27\n    /* \"#utility.yul\":827:832   */\n  dup2\n    /* \"#utility.yul\":800:833   */\n  tag_14\n  jump\t// in\ntag_27:\n    /* \"#utility.yul\":696:839   */\n  swap3\n  swap2\n  pop\n  pop\n  jump\t// out\n    /* \"#utility.yul\":845:1196   */\ntag_3:\n    /* \"#utility.yul\":915:921   */\n  0x00\n    /* \"#utility.yul\":964:966   */\n  0x20\n    /* \"#utility.yul\":952:961   */\n  dup3\n    /* \"#utility.yul\":943:950   */\n  dup5\n    /* \"#utility.yul\":939:962   */\n  sub\n    /* \"#utility.yul\":935:967   */\n  slt\n    /* \"#utility.yul\":932:1051   */\n  iszero\n  tag_29\n  jumpi\n    /* \"#utility.yul\":970:1049   */\n  tag_30\n  tag_10\n  jump\t// in\ntag_30:\n    /* \"#utility.yul\":932:1051   */\ntag_29:\n    /* \"#utility.yul\":1090:1091   */\n  0x00\n    /* \"#utility.yul\":1115:1179   */\n  tag_31\n    /* \"#utility.yul\":1171:1178   */\n  dup5\n    /* \"#utility.yul\":1162:1168   */\n  dup3\n    /* \"#utility.yul\":1151:1160   */\n  dup6\n    /* \"#utility.yul\":1147:1169   */\n  add\n    /* \"#utility.yul\":1115:1179   */\n  tag_15\n  jump\t// in\ntag_31:\n    /* \"#utility.yul\":1105:1179   */\n  swap2\n  pop\n    /* \"#utility.yul\":1061:1189   */\n  pop\n    /* \"#utility.yul\":845:1196   */\n  swap3\n  swap2\n  pop\n  pop\n  jump\t// out\n    /* \"contracts/manager/FoodManager.sol\":216:8146  contract FoodManager is IFoodManager, RoleAccess {... */\ntag_8:\n  dataSize(sub_0)\n  dup1\n  dataOffset(sub_0)\n  0x00\n  codecopy\n  0x00\n  return\nstop\n\nsub_0: assembly {\n        /* \"contracts/manager/FoodManager.sol\":216:8146  contract FoodManager is IFoodManager, RoleAccess {... */\n      mstore(0x40, 0x80)\n      callvalue\n      dup1\n      iszero\n      tag_1\n      jumpi\n      revert(0x00, 0x00)\n    tag_1:\n      pop\n      jumpi(tag_2, lt(calldatasize, 0x04))\n      shr(0xe0, calldataload(0x00))\n      dup1\n      0x6dd2dd88\n      gt\n      tag_22\n      jumpi\n      dup1\n      0xb447aaae\n      gt\n      tag_23\n      jumpi\n      dup1\n      0xb447aaae\n      eq\n      tag_17\n      jumpi\n      dup1\n      0xb9b5aae6\n      eq\n      tag_18\n      jumpi\n      dup1\n      0xbaf85306\n      eq\n      tag_19\n      jumpi\n      dup1\n      0xd198b650\n      eq\n      tag_20\n      jumpi\n      dup1\n      0xd86ec238\n      eq\n      tag_21\n      jumpi\n      jump(tag_2)\n    tag_23:\n      dup1\n      0x6dd2dd88\n      eq\n      tag_12\n      jumpi\n      dup1\n      0x70480275\n      eq\n      tag_13\n      jumpi\n      dup1\n      0x893d20e8\n      eq\n      tag_14\n      jumpi\n      dup1\n      0x9a69bfa6\n      eq\n      tag_15\n      jumpi\n      dup1\n      0xaf5607f9\n      eq\n      tag_16\n      jumpi\n      jump(tag_2)\n    tag_22:\n      dup1\n      0x1e4de872\n      gt\n      tag_24\n      jumpi\n      dup1\n      0x1e4de872\n      eq\n      tag_7\n      jumpi\n      dup1\n      0x24d7806c\n      eq\n      tag_8\n      jumpi\n      dup1\n      0x35085515\n      eq\n      tag_9\n      jumpi\n      dup1\n      0x4d30a39b\n      eq\n      tag_10\n      jumpi\n      dup1\n      0x64f77471\n      eq\n      tag_11\n      jumpi\n      jump(tag_2)\n    tag_24:\n      dup1\n      0x094b9a53\n      eq\n      tag_3\n      jumpi\n      dup1\n      0x1785f53c\n      eq\n      tag_4\n      jumpi\n      dup1\n      0x1945ef58\n      eq\n      tag_5\n      jumpi\n      dup1\n      0x1b0d77cc\n      eq\n      tag_6\n      jumpi\n    tag_2:\n      revert(0x00, 0x00)\n        /* \"contracts/manager/FoodManager.sol\":7339:7683  function increaseQuantiy (uint _foodId,uint foodDetailId,uint _quantity) external override {... */\n    tag_3:\n      tag_25\n      0x04\n      dup1\n      calldatasize\n      sub\n      dup2\n      add\n      swap1\n      tag_26\n      swap2\n      swap1\n      tag_27\n      jump\t// in\n    tag_26:\n      tag_28\n      jump\t// in\n    tag_25:\n      stop\n        /* \"contracts/access/RoleAccess.sol\":789:881  function removeAdmin(address _admin) external {... */\n    tag_4:\n      tag_29\n      0x04\n      dup1\n      calldatasize\n      sub\n      dup2\n      add\n      swap1\n      tag_30\n      swap2\n      swap1\n      tag_31\n      jump\t// in\n    tag_30:\n      tag_32\n      jump\t// in\n    tag_29:\n      stop\n        /* \"contracts/manager/FoodManager.sol\":317:346  uint256 public nextFoodId = 1 */\n    tag_5:\n      tag_33\n      tag_34\n      jump\t// in\n    tag_33:\n      mload(0x40)\n      tag_35\n      swap2\n      swap1\n      tag_36\n      jump\t// in\n    tag_35:\n      mload(0x40)\n      dup1\n      swap2\n      sub\n      swap1\n      return\n        /* \"contracts/manager/FoodManager.sol\":352:387  uint256 public nextFoodDetailId = 1 */\n    tag_6:\n      tag_37\n      tag_38\n      jump\t// in\n    tag_37:\n      mload(0x40)\n      tag_39\n      swap2\n      swap1\n      tag_36\n      jump\t// in\n    tag_39:\n      mload(0x40)\n      dup1\n      swap2\n      sub\n      swap1\n      return\n        /* \"contracts/manager/FoodManager.sol\":6141:6359  function getFood(uint256 foodId)... */\n    tag_7:\n      tag_40\n      0x04\n      dup1\n      calldatasize\n      sub\n      dup2\n      add\n      swap1\n      tag_41\n      swap2\n      swap1\n      tag_42\n      jump\t// in\n    tag_41:\n      tag_43\n      jump\t// in\n    tag_40:\n      mload(0x40)\n      tag_44\n      swap2\n      swap1\n      tag_45\n      jump\t// in\n    tag_44:\n      mload(0x40)\n      dup1\n      swap2\n      sub\n      swap1\n      return\n        /* \"contracts/access/RoleAccess.sol\":180:219  mapping(address => Role) public isAdmin */\n    tag_8:\n      tag_46\n      0x04\n      dup1\n      calldatasize\n      sub\n      dup2\n      add\n      swap1\n      tag_47\n      swap2\n      swap1\n      tag_31\n      jump\t// in\n    tag_47:\n      tag_48\n      jump\t// in\n    tag_46:\n      mload(0x40)\n      tag_49\n      swap2\n      swap1\n      tag_50\n      jump\t// in\n    tag_49:\n      mload(0x40)\n      dup1\n      swap2\n      sub\n      swap1\n      return\n        /* \"contracts/manager/FoodManager.sol\":7688:8142  function getFoodDetailByFoodId_FoodDetailId(uint _foodId, uint _foodDetailId) ... */\n    tag_9:\n      tag_51\n      0x04\n      dup1\n      calldatasize\n      sub\n      dup2\n      add\n      swap1\n      tag_52\n      swap2\n      swap1\n      tag_53\n      jump\t// in\n    tag_52:\n      tag_54\n      jump\t// in\n    tag_51:\n      mload(0x40)\n      tag_55\n      swap2\n      swap1\n      tag_56\n      jump\t// in\n    tag_55:\n      mload(0x40)\n      dup1\n      swap2\n      sub\n      swap1\n      return\n        /* \"contracts/manager/FoodManager.sol\":5036:5838  function deleteFoodDetail(uint256 foodId, uint256 foodDetailId)... */\n    tag_10:\n      tag_57\n      0x04\n      dup1\n      calldatasize\n      sub\n      dup2\n      add\n      swap1\n      tag_58\n      swap2\n      swap1\n      tag_53\n      jump\t// in\n    tag_58:\n      tag_59\n      jump\t// in\n    tag_57:\n      stop\n        /* \"contracts/manager/FoodManager.sol\":3561:4207  function addFoodDetails(uint256 foodId, UpdateFoodDetail[] memory details)... */\n    tag_11:\n      tag_60\n      0x04\n      dup1\n      calldatasize\n      sub\n      dup2\n      add\n      swap1\n      tag_61\n      swap2\n      swap1\n      tag_62\n      jump\t// in\n    tag_61:\n      tag_63\n      jump\t// in\n    tag_60:\n      stop\n        /* \"contracts/manager/FoodManager.sol\":2297:2970  function updateFood(... */\n    tag_12:\n      tag_64\n      0x04\n      dup1\n      calldatasize\n      sub\n      dup2\n      add\n      swap1\n      tag_65\n      swap2\n      swap1\n      tag_66\n      jump\t// in\n    tag_65:\n      tag_67\n      jump\t// in\n    tag_64:\n      stop\n        /* \"contracts/access/RoleAccess.sol\":625:781  function addAdmin(address _admin) external virtual  {... */\n    tag_13:\n      tag_68\n      0x04\n      dup1\n      calldatasize\n      sub\n      dup2\n      add\n      swap1\n      tag_69\n      swap2\n      swap1\n      tag_31\n      jump\t// in\n    tag_69:\n      tag_70\n      jump\t// in\n    tag_68:\n      stop\n        /* \"contracts/access/RoleAccess.sol\":537:619  function getOwner () public  view returns (address){... */\n    tag_14:\n      tag_71\n      tag_72\n      jump\t// in\n    tag_71:\n      mload(0x40)\n      tag_73\n      swap2\n      swap1\n      tag_74\n      jump\t// in\n    tag_73:\n      mload(0x40)\n      dup1\n      swap2\n      sub\n      swap1\n      return\n        /* \"contracts/manager/FoodManager.sol\":6877:7334  function reduceQuantiy (uint _foodId,uint foodDetailId,uint _quantity) external override {... */\n    tag_15:\n      tag_75\n      0x04\n      dup1\n      calldatasize\n      sub\n      dup2\n      add\n      swap1\n      tag_76\n      swap2\n      swap1\n      tag_27\n      jump\t// in\n    tag_76:\n      tag_77\n      jump\t// in\n    tag_75:\n      stop\n        /* \"contracts/manager/FoodManager.sol\":5856:6095  function getFoodDetails(uint256 foodId)... */\n    tag_16:\n      tag_78\n      0x04\n      dup1\n      calldatasize\n      sub\n      dup2\n      add\n      swap1\n      tag_79\n      swap2\n      swap1\n      tag_42\n      jump\t// in\n    tag_79:\n      tag_80\n      jump\t// in\n    tag_78:\n      mload(0x40)\n      tag_81\n      swap2\n      swap1\n      tag_82\n      jump\t// in\n    tag_81:\n      mload(0x40)\n      dup1\n      swap2\n      sub\n      swap1\n      return\n        /* \"contracts/manager/FoodManager.sol\":686:2291  function createFood(... */\n    tag_17:\n      tag_83\n      0x04\n      dup1\n      calldatasize\n      sub\n      dup2\n      add\n      swap1\n      tag_84\n      swap2\n      swap1\n      tag_85\n      jump\t// in\n    tag_84:\n      tag_86\n      jump\t// in\n    tag_83:\n      stop\n        /* \"contracts/manager/FoodManager.sol\":6365:6871  function getAllFoods()... */\n    tag_18:\n      tag_87\n      tag_88\n      jump\t// in\n    tag_87:\n      mload(0x40)\n      tag_89\n      swap2\n      swap1\n      tag_90\n      jump\t// in\n    tag_89:\n      mload(0x40)\n      dup1\n      swap2\n      sub\n      swap1\n      return\n        /* \"contracts/manager/FoodManager.sol\":4213:5030  function updateFoodDetail(... */\n    tag_19:\n      tag_91\n      0x04\n      dup1\n      calldatasize\n      sub\n      dup2\n      add\n      swap1\n      tag_92\n      swap2\n      swap1\n      tag_93\n      jump\t// in\n    tag_92:\n      tag_94\n      jump\t// in\n    tag_91:\n      stop\n        /* \"contracts/manager/FoodManager.sol\":2976:3519  function deleteFood(uint256 foodId) external override {... */\n    tag_20:\n      tag_95\n      0x04\n      dup1\n      calldatasize\n      sub\n      dup2\n      add\n      swap1\n      tag_96\n      swap2\n      swap1\n      tag_42\n      jump\t// in\n    tag_96:\n      tag_97\n      jump\t// in\n    tag_95:\n      stop\n        /* \"contracts/manager/FoodManager.sol\":271:310  ICategoryManager public categoryManager */\n    tag_21:\n      tag_98\n      tag_99\n      jump\t// in\n    tag_98:\n      mload(0x40)\n      tag_100\n      swap2\n      swap1\n      tag_101\n      jump\t// in\n    tag_100:\n      mload(0x40)\n      dup1\n      swap2\n      sub\n      swap1\n      return\n        /* \"contracts/manager/FoodManager.sol\":7339:7683  function increaseQuantiy (uint _foodId,uint foodDetailId,uint _quantity) external override {... */\n    tag_28:\n        /* \"contracts/manager/FoodManager.sol\":7444:7450  uint i */\n      0x00\n        /* \"contracts/manager/FoodManager.sol\":7453:7454  0 */\n      0x00\n        /* \"contracts/manager/FoodManager.sol\":7444:7454  uint i = 0 */\n      swap1\n      pop\n        /* \"contracts/manager/FoodManager.sol\":7440:7676  for(uint i = 0;  i< foodDetails[_foodId].length ; i++ ){... */\n    tag_103:\n        /* \"contracts/manager/FoodManager.sol\":7460:7471  foodDetails */\n      0x06\n        /* \"contracts/manager/FoodManager.sol\":7460:7480  foodDetails[_foodId] */\n      0x00\n        /* \"contracts/manager/FoodManager.sol\":7472:7479  _foodId */\n      dup6\n        /* \"contracts/manager/FoodManager.sol\":7460:7480  foodDetails[_foodId] */\n      dup2\n      mstore\n      0x20\n      add\n      swap1\n      dup2\n      mstore\n      0x20\n      add\n      0x00\n      keccak256\n        /* \"contracts/manager/FoodManager.sol\":7460:7487  foodDetails[_foodId].length */\n      dup1\n      sload\n      swap1\n      pop\n        /* \"contracts/manager/FoodManager.sol\":7457:7458  i */\n      dup2\n        /* \"contracts/manager/FoodManager.sol\":7457:7487  i< foodDetails[_foodId].length */\n      lt\n        /* \"contracts/manager/FoodManager.sol\":7440:7676  for(uint i = 0;  i< foodDetails[_foodId].length ; i++ ){... */\n      iszero\n      tag_104\n      jumpi\n        /* \"contracts/manager/FoodManager.sol\":7552:7564  foodDetailId */\n      dup3\n        /* \"contracts/manager/FoodManager.sol\":7512:7523  foodDetails */\n      0x06\n        /* \"contracts/manager/FoodManager.sol\":7512:7532  foodDetails[_foodId] */\n      0x00\n        /* \"contracts/manager/FoodManager.sol\":7524:7531  _foodId */\n      dup7\n        /* \"contracts/manager/FoodManager.sol\":7512:7532  foodDetails[_foodId] */\n      dup2\n      mstore\n      0x20\n      add\n      swap1\n      dup2\n      mstore\n      0x20\n      add\n      0x00\n      keccak256\n        /* \"contracts/manager/FoodManager.sol\":7533:7534  i */\n      dup3\n        /* \"contracts/manager/FoodManager.sol\":7512:7535  foodDetails[_foodId][i] */\n      dup2\n      sload\n      dup2\n      lt\n      tag_106\n      jumpi\n      tag_107\n      tag_108\n      jump\t// in\n    tag_107:\n    tag_106:\n      swap1\n      0x00\n      mstore\n      keccak256(0x00, 0x20)\n      swap1\n      0x04\n      mul\n      add\n        /* \"contracts/manager/FoodManager.sol\":7512:7548  foodDetails[_foodId][i].foodDetailId */\n      0x00\n      add\n      sload\n        /* \"contracts/manager/FoodManager.sol\":7512:7564  foodDetails[_foodId][i].foodDetailId == foodDetailId */\n      sub\n        /* \"contracts/manager/FoodManager.sol\":7509:7666  if(foodDetails[_foodId][i].foodDetailId == foodDetailId){... */\n      tag_110\n      jumpi\n        /* \"contracts/manager/FoodManager.sol\":7619:7628  _quantity */\n      dup2\n        /* \"contracts/manager/FoodManager.sol\":7583:7594  foodDetails */\n      0x06\n        /* \"contracts/manager/FoodManager.sol\":7583:7603  foodDetails[_foodId] */\n      0x00\n        /* \"contracts/manager/FoodManager.sol\":7595:7602  _foodId */\n      dup7\n        /* \"contracts/manager/FoodManager.sol\":7583:7603  foodDetails[_foodId] */\n      dup2\n      mstore\n      0x20\n      add\n      swap1\n      dup2\n      mstore\n      0x20\n      add\n      0x00\n      keccak256\n        /* \"contracts/manager/FoodManager.sol\":7604:7605  i */\n      dup3\n        /* \"contracts/manager/FoodManager.sol\":7583:7606  foodDetails[_foodId][i] */\n      dup2\n      sload\n      dup2\n      lt\n      tag_111\n      jumpi\n      tag_112\n      tag_108\n      jump\t// in\n    tag_112:\n    tag_111:\n      swap1\n      0x00\n      mstore\n      keccak256(0x00, 0x20)\n      swap1\n      0x04\n      mul\n      add\n        /* \"contracts/manager/FoodManager.sol\":7583:7615  foodDetails[_foodId][i].quantity */\n      0x02\n      add\n      0x00\n        /* \"contracts/manager/FoodManager.sol\":7583:7628  foodDetails[_foodId][i].quantity += _quantity */\n      dup3\n      dup3\n      sload\n      tag_114\n      swap2\n      swap1\n      tag_115\n      jump\t// in\n    tag_114:\n      swap3\n      pop\n      pop\n      dup2\n      swap1\n      sstore\n      pop\n        /* \"contracts/manager/FoodManager.sol\":7646:7651  break */\n      jump(tag_104)\n        /* \"contracts/manager/FoodManager.sol\":7509:7666  if(foodDetails[_foodId][i].foodDetailId == foodDetailId){... */\n    tag_110:\n        /* \"contracts/manager/FoodManager.sol\":7490:7493  i++ */\n      dup1\n      dup1\n      0x01\n      add\n      swap2\n      pop\n      pop\n        /* \"contracts/manager/FoodManager.sol\":7440:7676  for(uint i = 0;  i< foodDetails[_foodId].length ; i++ ){... */\n      jump(tag_103)\n    tag_104:\n      pop\n        /* \"contracts/manager/FoodManager.sol\":7339:7683  function increaseQuantiy (uint _foodId,uint foodDetailId,uint _quantity) external override {... */\n      pop\n      pop\n      pop\n      jump\t// out\n        /* \"contracts/access/RoleAccess.sol\":789:881  function removeAdmin(address _admin) external {... */\n    tag_32:\n        /* \"contracts/access/RoleAccess.sol\":864:873  Role.NONE */\n      0x00\n        /* \"contracts/access/RoleAccess.sol\":846:853  isAdmin */\n      0x01\n        /* \"contracts/access/RoleAccess.sol\":846:861  isAdmin[_admin] */\n      0x00\n        /* \"contracts/access/RoleAccess.sol\":854:860  _admin */\n      dup4\n        /* \"contracts/access/RoleAccess.sol\":846:861  isAdmin[_admin] */\n      0xffffffffffffffffffffffffffffffffffffffff\n      and\n      0xffffffffffffffffffffffffffffffffffffffff\n      and\n      dup2\n      mstore\n      0x20\n      add\n      swap1\n      dup2\n      mstore\n      0x20\n      add\n      0x00\n      keccak256\n      0x00\n        /* \"contracts/access/RoleAccess.sol\":846:873  isAdmin[_admin] = Role.NONE */\n      0x0100\n      exp\n      dup2\n      sload\n      dup2\n      0xff\n      mul\n      not\n      and\n      swap1\n      dup4\n      0x02\n      dup2\n      gt\n      iszero\n      tag_117\n      jumpi\n      tag_118\n      tag_119\n      jump\t// in\n    tag_118:\n    tag_117:\n      mul\n      or\n      swap1\n      sstore\n      pop\n        /* \"contracts/access/RoleAccess.sol\":789:881  function removeAdmin(address _admin) external {... */\n      pop\n      jump\t// out\n        /* \"contracts/manager/FoodManager.sol\":317:346  uint256 public nextFoodId = 1 */\n    tag_34:\n      sload(0x03)\n      dup2\n      jump\t// out\n        /* \"contracts/manager/FoodManager.sol\":352:387  uint256 public nextFoodDetailId = 1 */\n    tag_38:\n      sload(0x04)\n      dup2\n      jump\t// out\n        /* \"contracts/manager/FoodManager.sol\":6141:6359  function getFood(uint256 foodId)... */\n    tag_43:\n        /* \"contracts/manager/FoodManager.sol\":6238:6249  Food memory */\n      tag_120\n      tag_121\n      jump\t// in\n    tag_120:\n        /* \"contracts/manager/FoodManager.sol\":6297:6298  0 */\n      0x00\n        /* \"contracts/manager/FoodManager.sol\":6273:6278  foods */\n      0x05\n        /* \"contracts/manager/FoodManager.sol\":6273:6286  foods[foodId] */\n      0x00\n        /* \"contracts/manager/FoodManager.sol\":6279:6285  foodId */\n      dup5\n        /* \"contracts/manager/FoodManager.sol\":6273:6286  foods[foodId] */\n      dup2\n      mstore\n      0x20\n      add\n      swap1\n      dup2\n      mstore\n      0x20\n      add\n      0x00\n      keccak256\n        /* \"contracts/manager/FoodManager.sol\":6273:6293  foods[foodId].foodId */\n      0x00\n      add\n      sload\n        /* \"contracts/manager/FoodManager.sol\":6273:6298  foods[foodId].foodId != 0 */\n      sub\n        /* \"contracts/manager/FoodManager.sol\":6265:6322  require(foods[foodId].foodId != 0, \"Food does not exist\") */\n      tag_123\n      jumpi\n      mload(0x40)\n      0x08c379a000000000000000000000000000000000000000000000000000000000\n      dup2\n      mstore\n      0x04\n      add\n      tag_124\n      swap1\n      tag_125\n      jump\t// in\n    tag_124:\n      mload(0x40)\n      dup1\n      swap2\n      sub\n      swap1\n      revert\n    tag_123:\n        /* \"contracts/manager/FoodManager.sol\":6339:6344  foods */\n      0x05\n        /* \"contracts/manager/FoodManager.sol\":6339:6352  foods[foodId] */\n      0x00\n        /* \"contracts/manager/FoodManager.sol\":6345:6351  foodId */\n      dup4\n        /* \"contracts/manager/FoodManager.sol\":6339:6352  foods[foodId] */\n      dup2\n      mstore\n      0x20\n      add\n      swap1\n      dup2\n      mstore\n      0x20\n      add\n      0x00\n      keccak256\n        /* \"contracts/manager/FoodManager.sol\":6332:6352  return foods[foodId] */\n      mload(0x40)\n      dup1\n      0x0100\n      add\n      0x40\n      mstore\n      swap1\n      dup2\n      0x00\n      dup3\n      add\n      sload\n      dup2\n      mstore\n      0x20\n      add\n      0x01\n      dup3\n      add\n      dup1\n      sload\n      tag_126\n      swap1\n      tag_127\n      jump\t// in\n    tag_126:\n      dup1\n      0x1f\n      add\n      0x20\n      dup1\n      swap2\n      div\n      mul\n      0x20\n      add\n      mload(0x40)\n      swap1\n      dup2\n      add\n      0x40\n      mstore\n      dup1\n      swap3\n      swap2\n      swap1\n      dup2\n      dup2\n      mstore\n      0x20\n      add\n      dup3\n      dup1\n      sload\n      tag_128\n      swap1\n      tag_127\n      jump\t// in\n    tag_128:\n      dup1\n      iszero\n      tag_129\n      jumpi\n      dup1\n      0x1f\n      lt\n      tag_130\n      jumpi\n      0x0100\n      dup1\n      dup4\n      sload\n      div\n      mul\n      dup4\n      mstore\n      swap2\n      0x20\n      add\n      swap2\n      jump(tag_129)\n    tag_130:\n      dup3\n      add\n      swap2\n      swap1\n      0x00\n      mstore\n      keccak256(0x00, 0x20)\n      swap1\n    tag_131:\n      dup2\n      sload\n      dup2\n      mstore\n      swap1\n      0x01\n      add\n      swap1\n      0x20\n      add\n      dup1\n      dup4\n      gt\n      tag_131\n      jumpi\n      dup3\n      swap1\n      sub\n      0x1f\n      and\n      dup3\n      add\n      swap2\n    tag_129:\n      pop\n      pop\n      pop\n      pop\n      pop\n      dup2\n      mstore\n      0x20\n      add\n      0x02\n      dup3\n      add\n      dup1\n      sload\n      tag_132\n      swap1\n      tag_127\n      jump\t// in\n    tag_132:\n      dup1\n      0x1f\n      add\n      0x20\n      dup1\n      swap2\n      div\n      mul\n      0x20\n      add\n      mload(0x40)\n      swap1\n      dup2\n      add\n      0x40\n      mstore\n      dup1\n      swap3\n      swap2\n      swap1\n      dup2\n      dup2\n      mstore\n      0x20\n      add\n      dup3\n      dup1\n      sload\n      tag_133\n      swap1\n      tag_127\n      jump\t// in\n    tag_133:\n      dup1\n      iszero\n      tag_134\n      jumpi\n      dup1\n      0x1f\n      lt\n      tag_135\n      jumpi\n      0x0100\n      dup1\n      dup4\n      sload\n      div\n      mul\n      dup4\n      mstore\n      swap2\n      0x20\n      add\n      swap2\n      jump(tag_134)\n    tag_135:\n      dup3\n      add\n      swap2\n      swap1\n      0x00\n      mstore\n      keccak256(0x00, 0x20)\n      swap1\n    tag_136:\n      dup2\n      sload\n      dup2\n      mstore\n      swap1\n      0x01\n      add\n      swap1\n      0x20\n      add\n      dup1\n      dup4\n      gt\n      tag_136\n      jumpi\n      dup3\n      swap1\n      sub\n      0x1f\n      and\n      dup3\n      add\n      swap2\n    tag_134:\n      pop\n      pop\n      pop\n      pop\n      pop\n      dup2\n      mstore\n      0x20\n      add\n      0x03\n      dup3\n      add\n      sload\n      dup2\n      mstore\n      0x20\n      add\n      0x04\n      dup3\n      add\n      dup1\n      sload\n      dup1\n      0x20\n      mul\n      0x20\n      add\n      mload(0x40)\n      swap1\n      dup2\n      add\n      0x40\n      mstore\n      dup1\n      swap3\n      swap2\n      swap1\n      dup2\n      dup2\n      mstore\n      0x20\n      add\n      0x00\n      swap1\n    tag_137:\n      dup3\n      dup3\n      lt\n      iszero\n      tag_138\n      jumpi\n      dup4\n      dup3\n      swap1\n      0x00\n      mstore\n      keccak256(0x00, 0x20)\n      add\n      dup1\n      sload\n      tag_140\n      swap1\n      tag_127\n      jump\t// in\n    tag_140:\n      dup1\n      0x1f\n      add\n      0x20\n      dup1\n      swap2\n      div\n      mul\n      0x20\n      add\n      mload(0x40)\n      swap1\n      dup2\n      add\n      0x40\n      mstore\n      dup1\n      swap3\n      swap2\n      swap1\n      dup2\n      dup2\n      mstore\n      0x20\n      add\n      dup3\n      dup1\n      sload\n      tag_141\n      swap1\n      tag_127\n      jump\t// in\n    tag_141:\n      dup1\n      iszero\n      tag_142\n      jumpi\n      dup1\n      0x1f\n      lt\n      tag_143\n      jumpi\n      0x0100\n      dup1\n      dup4\n      sload\n      div\n      mul\n      dup4\n      mstore\n      swap2\n      0x20\n      add\n      swap2\n      jump(tag_142)\n    tag_143:\n      dup3\n      add\n      swap2\n      swap1\n      0x00\n      mstore\n      keccak256(0x00, 0x20)\n      swap1\n    tag_144:\n      dup2\n      sload\n      dup2\n      mstore\n      swap1\n      0x01\n      add\n      swap1\n      0x20\n      add\n      dup1\n      dup4\n      gt\n      tag_144\n      jumpi\n      dup3\n      swap1\n      sub\n      0x1f\n      and\n      dup3\n      add\n      swap2\n    tag_142:\n      pop\n      pop\n      pop\n      pop\n      pop\n      dup2\n      mstore\n      0x20\n      add\n      swap1\n      0x01\n      add\n      swap1\n      jump(tag_137)\n    tag_138:\n      pop\n      pop\n      pop\n      pop\n      dup2\n      mstore\n      0x20\n      add\n      0x05\n      dup3\n      add\n      sload\n      dup2\n      mstore\n      0x20\n      add\n      0x06\n      dup3\n      add\n      sload\n      dup2\n      mstore\n      0x20\n      add\n      0x07\n      dup3\n      add\n      sload\n      dup2\n      mstore\n      pop\n      pop\n      swap1\n      pop\n        /* \"contracts/manager/FoodManager.sol\":6141:6359  function getFood(uint256 foodId)... */\n      swap2\n      swap1\n      pop\n      jump\t// out\n        /* \"contracts/access/RoleAccess.sol\":180:219  mapping(address => Role) public isAdmin */\n    tag_48:\n      mstore(0x20, 0x01)\n      dup1\n      0x00\n      mstore\n      keccak256(0x00, 0x40)\n      0x00\n      swap2\n      pop\n      sload\n      swap1\n      0x0100\n      exp\n      swap1\n      div\n      0xff\n      and\n      dup2\n      jump\t// out\n        /* \"contracts/manager/FoodManager.sol\":7688:8142  function getFoodDetailByFoodId_FoodDetailId(uint _foodId, uint _foodDetailId) ... */\n    tag_54:\n        /* \"contracts/manager/FoodManager.sol\":7818:7838  FoodDetail memory fd */\n      tag_145\n      tag_146\n      jump\t// in\n    tag_145:\n        /* \"contracts/manager/FoodManager.sol\":7888:7889  0 */\n      0x00\n        /* \"contracts/manager/FoodManager.sol\":7858:7869  foodDetails */\n      0x06\n        /* \"contracts/manager/FoodManager.sol\":7858:7878  foodDetails[_foodId] */\n      0x00\n        /* \"contracts/manager/FoodManager.sol\":7870:7877  _foodId */\n      dup6\n        /* \"contracts/manager/FoodManager.sol\":7858:7878  foodDetails[_foodId] */\n      dup2\n      mstore\n      0x20\n      add\n      swap1\n      dup2\n      mstore\n      0x20\n      add\n      0x00\n      keccak256\n        /* \"contracts/manager/FoodManager.sol\":7858:7885  foodDetails[_foodId].length */\n      dup1\n      sload\n      swap1\n      pop\n        /* \"contracts/manager/FoodManager.sol\":7858:7889  foodDetails[_foodId].length > 0 */\n      gt\n        /* \"contracts/manager/FoodManager.sol\":7850:7908  require(foodDetails[_foodId].length > 0, \"Invalid foodId\") */\n      tag_148\n      jumpi\n      mload(0x40)\n      0x08c379a000000000000000000000000000000000000000000000000000000000\n      dup2\n      mstore\n      0x04\n      add\n      tag_149\n      swap1\n      tag_150\n      jump\t// in\n    tag_149:\n      mload(0x40)\n      dup1\n      swap2\n      sub\n      swap1\n      revert\n    tag_148:\n        /* \"contracts/manager/FoodManager.sol\":7919:7925  uint i */\n      0x00\n        /* \"contracts/manager/FoodManager.sol\":7928:7929  0 */\n      0x00\n        /* \"contracts/manager/FoodManager.sol\":7919:7929  uint i = 0 */\n      swap1\n      pop\n        /* \"contracts/manager/FoodManager.sol\":7914:8099  for (uint i = 0; i < foodDetails[_foodId].length; i++) {... */\n    tag_151:\n        /* \"contracts/manager/FoodManager.sol\":7935:7946  foodDetails */\n      0x06\n        /* \"contracts/manager/FoodManager.sol\":7935:7955  foodDetails[_foodId] */\n      0x00\n        /* \"contracts/manager/FoodManager.sol\":7947:7954  _foodId */\n      dup6\n        /* \"contracts/manager/FoodManager.sol\":7935:7955  foodDetails[_foodId] */\n      dup2\n      mstore\n      0x20\n      add\n      swap1\n      dup2\n      mstore\n      0x20\n      add\n      0x00\n      keccak256\n        /* \"contracts/manager/FoodManager.sol\":7935:7962  foodDetails[_foodId].length */\n      dup1\n      sload\n      swap1\n      pop\n        /* \"contracts/manager/FoodManager.sol\":7931:7932  i */\n      dup2\n        /* \"contracts/manager/FoodManager.sol\":7931:7962  i < foodDetails[_foodId].length */\n      lt\n        /* \"contracts/manager/FoodManager.sol\":7914:8099  for (uint i = 0; i < foodDetails[_foodId].length; i++) {... */\n      iszero\n      tag_152\n      jumpi\n        /* \"contracts/manager/FoodManager.sol\":8023:8036  _foodDetailId */\n      dup3\n        /* \"contracts/manager/FoodManager.sol\":7983:7994  foodDetails */\n      0x06\n        /* \"contracts/manager/FoodManager.sol\":7983:8003  foodDetails[_foodId] */\n      0x00\n        /* \"contracts/manager/FoodManager.sol\":7995:8002  _foodId */\n      dup7\n        /* \"contracts/manager/FoodManager.sol\":7983:8003  foodDetails[_foodId] */\n      dup2\n      mstore\n      0x20\n      add\n      swap1\n      dup2\n      mstore\n      0x20\n      add\n      0x00\n      keccak256\n        /* \"contracts/manager/FoodManager.sol\":8004:8005  i */\n      dup3\n        /* \"contracts/manager/FoodManager.sol\":7983:8006  foodDetails[_foodId][i] */\n      dup2\n      sload\n      dup2\n      lt\n      tag_154\n      jumpi\n      tag_155\n      tag_108\n      jump\t// in\n    tag_155:\n    tag_154:\n      swap1\n      0x00\n      mstore\n      keccak256(0x00, 0x20)\n      swap1\n      0x04\n      mul\n      add\n        /* \"contracts/manager/FoodManager.sol\":7983:8019  foodDetails[_foodId][i].foodDetailId */\n      0x00\n      add\n      sload\n        /* \"contracts/manager/FoodManager.sol\":7983:8036  foodDetails[_foodId][i].foodDetailId == _foodDetailId */\n      sub\n        /* \"contracts/manager/FoodManager.sol\":7979:8093  if (foodDetails[_foodId][i].foodDetailId == _foodDetailId) {... */\n      tag_157\n      jumpi\n        /* \"contracts/manager/FoodManager.sol\":8059:8070  foodDetails */\n      0x06\n        /* \"contracts/manager/FoodManager.sol\":8059:8079  foodDetails[_foodId] */\n      0x00\n        /* \"contracts/manager/FoodManager.sol\":8071:8078  _foodId */\n      dup6\n        /* \"contracts/manager/FoodManager.sol\":8059:8079  foodDetails[_foodId] */\n      dup2\n      mstore\n      0x20\n      add\n      swap1\n      dup2\n      mstore\n      0x20\n      add\n      0x00\n      keccak256\n        /* \"contracts/manager/FoodManager.sol\":8080:8081  i */\n      dup2\n        /* \"contracts/manager/FoodManager.sol\":8059:8082  foodDetails[_foodId][i] */\n      dup2\n      sload\n      dup2\n      lt\n      tag_158\n      jumpi\n      tag_159\n      tag_108\n      jump\t// in\n    tag_159:\n    tag_158:\n      swap1\n      0x00\n      mstore\n      keccak256(0x00, 0x20)\n      swap1\n      0x04\n      mul\n      add\n        /* \"contracts/manager/FoodManager.sol\":8052:8082  return foodDetails[_foodId][i] */\n      mload(0x40)\n      dup1\n      0x80\n      add\n      0x40\n      mstore\n      swap1\n      dup2\n      0x00\n      dup3\n      add\n      sload\n      dup2\n      mstore\n      0x20\n      add\n      0x01\n      dup3\n      add\n      dup1\n      sload\n      tag_161\n      swap1\n      tag_127\n      jump\t// in\n    tag_161:\n      dup1\n      0x1f\n      add\n      0x20\n      dup1\n      swap2\n      div\n      mul\n      0x20\n      add\n      mload(0x40)\n      swap1\n      dup2\n      add\n      0x40\n      mstore\n      dup1\n      swap3\n      swap2\n      swap1\n      dup2\n      dup2\n      mstore\n      0x20\n      add\n      dup3\n      dup1\n      sload\n      tag_162\n      swap1\n      tag_127\n      jump\t// in\n    tag_162:\n      dup1\n      iszero\n      tag_163\n      jumpi\n      dup1\n      0x1f\n      lt\n      tag_164\n      jumpi\n      0x0100\n      dup1\n      dup4\n      sload\n      div\n      mul\n      dup4\n      mstore\n      swap2\n      0x20\n      add\n      swap2\n      jump(tag_163)\n    tag_164:\n      dup3\n      add\n      swap2\n      swap1\n      0x00\n      mstore\n      keccak256(0x00, 0x20)\n      swap1\n    tag_165:\n      dup2\n      sload\n      dup2\n      mstore\n      swap1\n      0x01\n      add\n      swap1\n      0x20\n      add\n      dup1\n      dup4\n      gt\n      tag_165\n      jumpi\n      dup3\n      swap1\n      sub\n      0x1f\n      and\n      dup3\n      add\n      swap2\n    tag_163:\n      pop\n      pop\n      pop\n      pop\n      pop\n      dup2\n      mstore\n      0x20\n      add\n      0x02\n      dup3\n      add\n      sload\n      dup2\n      mstore\n      0x20\n      add\n      0x03\n      dup3\n      add\n      sload\n      dup2\n      mstore\n      pop\n      pop\n      swap2\n      pop\n      pop\n      jump(tag_147)\n        /* \"contracts/manager/FoodManager.sol\":7979:8093  if (foodDetails[_foodId][i].foodDetailId == _foodDetailId) {... */\n    tag_157:\n        /* \"contracts/manager/FoodManager.sol\":7964:7967  i++ */\n      dup1\n      dup1\n      0x01\n      add\n      swap2\n      pop\n      pop\n        /* \"contracts/manager/FoodManager.sol\":7914:8099  for (uint i = 0; i < foodDetails[_foodId].length; i++) {... */\n      jump(tag_151)\n    tag_152:\n      pop\n        /* \"contracts/manager/FoodManager.sol\":8104:8139  revert(\"FoodDetail not found ___.\") */\n      mload(0x40)\n      0x08c379a000000000000000000000000000000000000000000000000000000000\n      dup2\n      mstore\n      0x04\n      add\n      tag_166\n      swap1\n      tag_167\n      jump\t// in\n    tag_166:\n      mload(0x40)\n      dup1\n      swap2\n      sub\n      swap1\n      revert\n        /* \"contracts/manager/FoodManager.sol\":7688:8142  function getFoodDetailByFoodId_FoodDetailId(uint _foodId, uint _foodDetailId) ... */\n    tag_147:\n      swap3\n      swap2\n      pop\n      pop\n      jump\t// out\n        /* \"contracts/manager/FoodManager.sol\":5036:5838  function deleteFoodDetail(uint256 foodId, uint256 foodDetailId)... */\n    tag_59:\n        /* \"contracts/manager/FoodManager.sol\":5180:5181  0 */\n      0x00\n        /* \"contracts/manager/FoodManager.sol\":5156:5161  foods */\n      0x05\n        /* \"contracts/manager/FoodManager.sol\":5156:5169  foods[foodId] */\n      0x00\n        /* \"contracts/manager/FoodManager.sol\":5162:5168  foodId */\n      dup5\n        /* \"contracts/manager/FoodManager.sol\":5156:5169  foods[foodId] */\n      dup2\n      mstore\n      0x20\n      add\n      swap1\n      dup2\n      mstore\n      0x20\n      add\n      0x00\n      keccak256\n        /* \"contracts/manager/FoodManager.sol\":5156:5176  foods[foodId].foodId */\n      0x00\n      add\n      sload\n        /* \"contracts/manager/FoodManager.sol\":5156:5181  foods[foodId].foodId != 0 */\n      sub\n        /* \"contracts/manager/FoodManager.sol\":5148:5205  require(foods[foodId].foodId != 0, \"Food does not exist\") */\n      tag_169\n      jumpi\n      mload(0x40)\n      0x08c379a000000000000000000000000000000000000000000000000000000000\n      dup2\n      mstore\n      0x04\n      add\n      tag_170\n      swap1\n      tag_125\n      jump\t// in\n    tag_170:\n      mload(0x40)\n      dup1\n      swap2\n      sub\n      swap1\n      revert\n    tag_169:\n        /* \"contracts/manager/FoodManager.sol\":5215:5250  FoodDetail[] storage foodDetailList */\n      0x00\n        /* \"contracts/manager/FoodManager.sol\":5253:5264  foodDetails */\n      0x06\n        /* \"contracts/manager/FoodManager.sol\":5253:5272  foodDetails[foodId] */\n      0x00\n        /* \"contracts/manager/FoodManager.sol\":5265:5271  foodId */\n      dup5\n        /* \"contracts/manager/FoodManager.sol\":5253:5272  foodDetails[foodId] */\n      dup2\n      mstore\n      0x20\n      add\n      swap1\n      dup2\n      mstore\n      0x20\n      add\n      0x00\n      keccak256\n        /* \"contracts/manager/FoodManager.sol\":5215:5272  FoodDetail[] storage foodDetailList = foodDetails[foodId] */\n      swap1\n      pop\n        /* \"contracts/manager/FoodManager.sol\":5282:5292  bool found */\n      0x00\n        /* \"contracts/manager/FoodManager.sol\":5295:5300  false */\n      0x00\n        /* \"contracts/manager/FoodManager.sol\":5282:5300  bool found = false */\n      swap1\n      pop\n        /* \"contracts/manager/FoodManager.sol\":5315:5324  uint256 i */\n      0x00\n        /* \"contracts/manager/FoodManager.sol\":5327:5328  0 */\n      0x00\n        /* \"contracts/manager/FoodManager.sol\":5315:5328  uint256 i = 0 */\n      swap1\n      pop\n        /* \"contracts/manager/FoodManager.sol\":5310:5779  for (uint256 i = 0; i < foodDetailList.length; i++) {... */\n    tag_171:\n        /* \"contracts/manager/FoodManager.sol\":5334:5348  foodDetailList */\n      dup3\n        /* \"contracts/manager/FoodManager.sol\":5334:5355  foodDetailList.length */\n      dup1\n      sload\n      swap1\n      pop\n        /* \"contracts/manager/FoodManager.sol\":5330:5331  i */\n      dup2\n        /* \"contracts/manager/FoodManager.sol\":5330:5355  i < foodDetailList.length */\n      lt\n        /* \"contracts/manager/FoodManager.sol\":5310:5779  for (uint256 i = 0; i < foodDetailList.length; i++) {... */\n      iszero\n      tag_172\n      jumpi\n        /* \"contracts/manager/FoodManager.sol\":5414:5426  foodDetailId */\n      dup4\n        /* \"contracts/manager/FoodManager.sol\":5380:5394  foodDetailList */\n      dup4\n        /* \"contracts/manager/FoodManager.sol\":5395:5396  i */\n      dup3\n        /* \"contracts/manager/FoodManager.sol\":5380:5397  foodDetailList[i] */\n      dup2\n      sload\n      dup2\n      lt\n      tag_174\n      jumpi\n      tag_175\n      tag_108\n      jump\t// in\n    tag_175:\n    tag_174:\n      swap1\n      0x00\n      mstore\n      keccak256(0x00, 0x20)\n      swap1\n      0x04\n      mul\n      add\n        /* \"contracts/manager/FoodManager.sol\":5380:5410  foodDetailList[i].foodDetailId */\n      0x00\n      add\n      sload\n        /* \"contracts/manager/FoodManager.sol\":5380:5426  foodDetailList[i].foodDetailId == foodDetailId */\n      sub\n        /* \"contracts/manager/FoodManager.sol\":5376:5769  if (foodDetailList[i].foodDetailId == foodDetailId) {... */\n      tag_177\n      jumpi\n        /* \"contracts/manager/FoodManager.sol\":5490:5491  1 */\n      0x01\n        /* \"contracts/manager/FoodManager.sol\":5466:5480  foodDetailList */\n      dup4\n        /* \"contracts/manager/FoodManager.sol\":5466:5487  foodDetailList.length */\n      dup1\n      sload\n      swap1\n      pop\n        /* \"contracts/manager/FoodManager.sol\":5466:5491  foodDetailList.length > 1 */\n      gt\n        /* \"contracts/manager/FoodManager.sol\":5466:5601  foodDetailList.length > 1... */\n      tag_178\n      jumpi\n        /* \"contracts/manager/FoodManager.sol\":5578:5601  FoodDetail(0, \"\", 0, 0) */\n      mload(0x40)\n      dup1\n      0x80\n      add\n      0x40\n      mstore\n      dup1\n        /* \"contracts/manager/FoodManager.sol\":5589:5590  0 */\n      0x00\n        /* \"contracts/manager/FoodManager.sol\":5578:5601  FoodDetail(0, \"\", 0, 0) */\n      dup2\n      mstore\n      0x20\n      add\n      mload(0x40)\n      dup1\n      0x20\n      add\n      0x40\n      mstore\n      dup1\n      0x00\n      dup2\n      mstore\n      pop\n      dup2\n      mstore\n      0x20\n      add\n        /* \"contracts/manager/FoodManager.sol\":5596:5597  0 */\n      0x00\n        /* \"contracts/manager/FoodManager.sol\":5578:5601  FoodDetail(0, \"\", 0, 0) */\n      dup2\n      mstore\n      0x20\n      add\n        /* \"contracts/manager/FoodManager.sol\":5599:5600  0 */\n      0x00\n        /* \"contracts/manager/FoodManager.sol\":5578:5601  FoodDetail(0, \"\", 0, 0) */\n      dup2\n      mstore\n      pop\n        /* \"contracts/manager/FoodManager.sol\":5466:5601  foodDetailList.length > 1... */\n      jump(tag_179)\n    tag_178:\n        /* \"contracts/manager/FoodManager.sol\":5514:5528  foodDetailList */\n      dup3\n        /* \"contracts/manager/FoodManager.sol\":5553:5554  1 */\n      0x01\n        /* \"contracts/manager/FoodManager.sol\":5529:5543  foodDetailList */\n      dup5\n        /* \"contracts/manager/FoodManager.sol\":5529:5550  foodDetailList.length */\n      dup1\n      sload\n      swap1\n      pop\n        /* \"contracts/manager/FoodManager.sol\":5529:5554  foodDetailList.length - 1 */\n      tag_180\n      swap2\n      swap1\n      tag_181\n      jump\t// in\n    tag_180:\n        /* \"contracts/manager/FoodManager.sol\":5514:5555  foodDetailList[foodDetailList.length - 1] */\n      dup2\n      sload\n      dup2\n      lt\n      tag_182\n      jumpi\n      tag_183\n      tag_108\n      jump\t// in\n    tag_183:\n    tag_182:\n      swap1\n      0x00\n      mstore\n      keccak256(0x00, 0x20)\n      swap1\n      0x04\n      mul\n      add\n        /* \"contracts/manager/FoodManager.sol\":5466:5601  foodDetailList.length > 1... */\n      mload(0x40)\n      dup1\n      0x80\n      add\n      0x40\n      mstore\n      swap1\n      dup2\n      0x00\n      dup3\n      add\n      sload\n      dup2\n      mstore\n      0x20\n      add\n      0x01\n      dup3\n      add\n      dup1\n      sload\n      tag_185\n      swap1\n      tag_127\n      jump\t// in\n    tag_185:\n      dup1\n      0x1f\n      add\n      0x20\n      dup1\n      swap2\n      div\n      mul\n      0x20\n      add\n      mload(0x40)\n      swap1\n      dup2\n      add\n      0x40\n      mstore\n      dup1\n      swap3\n      swap2\n      swap1\n      dup2\n      dup2\n      mstore\n      0x20\n      add\n      dup3\n      dup1\n      sload\n      tag_186\n      swap1\n      tag_127\n      jump\t// in\n    tag_186:\n      dup1\n      iszero\n      tag_187\n      jumpi\n      dup1\n      0x1f\n      lt\n      tag_188\n      jumpi\n      0x0100\n      dup1\n      dup4\n      sload\n      div\n      mul\n      dup4\n      mstore\n      swap2\n      0x20\n      add\n      swap2\n      jump(tag_187)\n    tag_188:\n      dup3\n      add\n      swap2\n      swap1\n      0x00\n      mstore\n      keccak256(0x00, 0x20)\n      swap1\n    tag_189:\n      dup2\n      sload\n      dup2\n      mstore\n      swap1\n      0x01\n      add\n      swap1\n      0x20\n      add\n      dup1\n      dup4\n      gt\n      tag_189\n      jumpi\n      dup3\n      swap1\n      sub\n      0x1f\n      and\n      dup3\n      add\n      swap2\n    tag_187:\n      pop\n      pop\n      pop\n      pop\n      pop\n      dup2\n      mstore\n      0x20\n      add\n      0x02\n      dup3\n      add\n      sload\n      dup2\n      mstore\n      0x20\n      add\n      0x03\n      dup3\n      add\n      sload\n      dup2\n      mstore\n      pop\n      pop\n    tag_179:\n        /* \"contracts/manager/FoodManager.sol\":5446:5460  foodDetailList */\n      dup4\n        /* \"contracts/manager/FoodManager.sol\":5461:5462  i */\n      dup3\n        /* \"contracts/manager/FoodManager.sol\":5446:5463  foodDetailList[i] */\n      dup2\n      sload\n      dup2\n      lt\n      tag_190\n      jumpi\n      tag_191\n      tag_108\n      jump\t// in\n    tag_191:\n    tag_190:\n      swap1\n      0x00\n      mstore\n      keccak256(0x00, 0x20)\n      swap1\n      0x04\n      mul\n      add\n        /* \"contracts/manager/FoodManager.sol\":5446:5601  foodDetailList[i] = foodDetailList.length > 1... */\n      0x00\n      dup3\n      add\n      mload\n      dup2\n      0x00\n      add\n      sstore\n      0x20\n      dup3\n      add\n      mload\n      dup2\n      0x01\n      add\n      swap1\n      dup2\n      tag_193\n      swap2\n      swap1\n      tag_194\n      jump\t// in\n    tag_193:\n      pop\n      0x40\n      dup3\n      add\n      mload\n      dup2\n      0x02\n      add\n      sstore\n      0x60\n      dup3\n      add\n      mload\n      dup2\n      0x03\n      add\n      sstore\n      swap1\n      pop\n      pop\n        /* \"contracts/manager/FoodManager.sol\":5619:5633  foodDetailList */\n      dup3\n        /* \"contracts/manager/FoodManager.sol\":5619:5639  foodDetailList.pop() */\n      dup1\n      sload\n      dup1\n      tag_195\n      jumpi\n      tag_196\n      tag_197\n      jump\t// in\n    tag_196:\n    tag_195:\n      0x01\n      swap1\n      sub\n      dup2\n      dup2\n      swap1\n      0x00\n      mstore\n      keccak256(0x00, 0x20)\n      swap1\n      0x04\n      mul\n      add\n      0x00\n      0x00\n      dup3\n      add\n      0x00\n      swap1\n      sstore\n      0x01\n      dup3\n      add\n      0x00\n      tag_199\n      swap2\n      swap1\n      tag_200\n      jump\t// in\n    tag_199:\n      0x02\n      dup3\n      add\n      0x00\n      swap1\n      sstore\n      0x03\n      dup3\n      add\n      0x00\n      swap1\n      sstore\n      pop\n      pop\n      swap1\n      sstore\n        /* \"contracts/manager/FoodManager.sol\":5665:5669  true */\n      0x01\n        /* \"contracts/manager/FoodManager.sol\":5657:5669  found = true */\n      swap2\n      pop\n        /* \"contracts/manager/FoodManager.sol\":5692:5731  FoodDetailDeleted(foodId, foodDetailId) */\n      0x55caa6a55acb7e3464dc13c54d94739e0f01b9141276caebb64f3ef500cd8900\n        /* \"contracts/manager/FoodManager.sol\":5710:5716  foodId */\n      dup6\n        /* \"contracts/manager/FoodManager.sol\":5718:5730  foodDetailId */\n      dup6\n        /* \"contracts/manager/FoodManager.sol\":5692:5731  FoodDetailDeleted(foodId, foodDetailId) */\n      mload(0x40)\n      tag_201\n      swap3\n      swap2\n      swap1\n      tag_202\n      jump\t// in\n    tag_201:\n      mload(0x40)\n      dup1\n      swap2\n      sub\n      swap1\n      log1\n        /* \"contracts/manager/FoodManager.sol\":5749:5754  break */\n      jump(tag_172)\n        /* \"contracts/manager/FoodManager.sol\":5376:5769  if (foodDetailList[i].foodDetailId == foodDetailId) {... */\n    tag_177:\n        /* \"contracts/manager/FoodManager.sol\":5357:5360  i++ */\n      dup1\n      dup1\n      0x01\n      add\n      swap2\n      pop\n      pop\n        /* \"contracts/manager/FoodManager.sol\":5310:5779  for (uint256 i = 0; i < foodDetailList.length; i++) {... */\n      jump(tag_171)\n    tag_172:\n      pop\n        /* \"contracts/manager/FoodManager.sol\":5796:5801  found */\n      dup1\n        /* \"contracts/manager/FoodManager.sol\":5788:5831  require(found, \"FoodDetail does not exist\") */\n      tag_203\n      jumpi\n      mload(0x40)\n      0x08c379a000000000000000000000000000000000000000000000000000000000\n      dup2\n      mstore\n      0x04\n      add\n      tag_204\n      swap1\n      tag_205\n      jump\t// in\n    tag_204:\n      mload(0x40)\n      dup1\n      swap2\n      sub\n      swap1\n      revert\n    tag_203:\n        /* \"contracts/manager/FoodManager.sol\":5138:5838  {... */\n      pop\n      pop\n        /* \"contracts/manager/FoodManager.sol\":5036:5838  function deleteFoodDetail(uint256 foodId, uint256 foodDetailId)... */\n      pop\n      pop\n      jump\t// out\n        /* \"contracts/manager/FoodManager.sol\":3561:4207  function addFoodDetails(uint256 foodId, UpdateFoodDetail[] memory details)... */\n    tag_63:\n        /* \"contracts/manager/FoodManager.sol\":3758:3759  0 */\n      0x00\n        /* \"contracts/manager/FoodManager.sol\":3734:3739  foods */\n      0x05\n        /* \"contracts/manager/FoodManager.sol\":3734:3747  foods[foodId] */\n      0x00\n        /* \"contracts/manager/FoodManager.sol\":3740:3746  foodId */\n      dup5\n        /* \"contracts/manager/FoodManager.sol\":3734:3747  foods[foodId] */\n      dup2\n      mstore\n      0x20\n      add\n      swap1\n      dup2\n      mstore\n      0x20\n      add\n      0x00\n      keccak256\n        /* \"contracts/manager/FoodManager.sol\":3734:3754  foods[foodId].foodId */\n      0x00\n      add\n      sload\n        /* \"contracts/manager/FoodManager.sol\":3734:3759  foods[foodId].foodId != 0 */\n      sub\n        /* \"contracts/manager/FoodManager.sol\":3726:3783  require(foods[foodId].foodId != 0, \"Food does not exist\") */\n      tag_207\n      jumpi\n      mload(0x40)\n      0x08c379a000000000000000000000000000000000000000000000000000000000\n      dup2\n      mstore\n      0x04\n      add\n      tag_208\n      swap1\n      tag_125\n      jump\t// in\n    tag_208:\n      mload(0x40)\n      dup1\n      swap2\n      sub\n      swap1\n      revert\n    tag_207:\n        /* \"contracts/manager/FoodManager.sol\":3798:3807  uint256 i */\n      0x00\n        /* \"contracts/manager/FoodManager.sol\":3810:3811  0 */\n      0x00\n        /* \"contracts/manager/FoodManager.sol\":3798:3811  uint256 i = 0 */\n      swap1\n      pop\n        /* \"contracts/manager/FoodManager.sol\":3793:4162  for (uint256 i = 0; i < details.length; i++) {... */\n    tag_209:\n        /* \"contracts/manager/FoodManager.sol\":3817:3824  details */\n      dup2\n        /* \"contracts/manager/FoodManager.sol\":3817:3831  details.length */\n      mload\n        /* \"contracts/manager/FoodManager.sol\":3813:3814  i */\n      dup2\n        /* \"contracts/manager/FoodManager.sol\":3813:3831  i < details.length */\n      lt\n        /* \"contracts/manager/FoodManager.sol\":3793:4162  for (uint256 i = 0; i < details.length; i++) {... */\n      iszero\n      tag_210\n      jumpi\n        /* \"contracts/manager/FoodManager.sol\":3852:3868  nextFoodDetailId */\n      0x04\n      0x00\n        /* \"contracts/manager/FoodManager.sol\":3852:3870  nextFoodDetailId++ */\n      dup2\n      sload\n      dup1\n      swap3\n      swap2\n      swap1\n      tag_212\n      swap1\n      tag_213\n      jump\t// in\n    tag_212:\n      swap2\n      swap1\n      pop\n      sstore\n      pop\n        /* \"contracts/manager/FoodManager.sol\":3885:3905  FoodDetail memory fd */\n      0x00\n        /* \"contracts/manager/FoodManager.sol\":3908:4109  FoodDetail({... */\n      mload(0x40)\n      dup1\n      0x80\n      add\n      0x40\n      mstore\n      dup1\n        /* \"contracts/manager/FoodManager.sol\":3951:3967  nextFoodDetailId */\n      sload(0x04)\n        /* \"contracts/manager/FoodManager.sol\":3908:4109  FoodDetail({... */\n      dup2\n      mstore\n      0x20\n      add\n        /* \"contracts/manager/FoodManager.sol\":3991:3998  details */\n      dup5\n        /* \"contracts/manager/FoodManager.sol\":3999:4000  i */\n      dup5\n        /* \"contracts/manager/FoodManager.sol\":3991:4001  details[i] */\n      dup2\n      mload\n      dup2\n      lt\n      tag_214\n      jumpi\n      tag_215\n      tag_108\n      jump\t// in\n    tag_215:\n    tag_214:\n      0x20\n      mul\n      0x20\n      add\n      add\n      mload\n        /* \"contracts/manager/FoodManager.sol\":3991:4006  details[i].size */\n      0x00\n      add\n      mload\n        /* \"contracts/manager/FoodManager.sol\":3908:4109  FoodDetail({... */\n      dup2\n      mstore\n      0x20\n      add\n        /* \"contracts/manager/FoodManager.sol\":4034:4041  details */\n      dup5\n        /* \"contracts/manager/FoodManager.sol\":4042:4043  i */\n      dup5\n        /* \"contracts/manager/FoodManager.sol\":4034:4044  details[i] */\n      dup2\n      mload\n      dup2\n      lt\n      tag_216\n      jumpi\n      tag_217\n      tag_108\n      jump\t// in\n    tag_217:\n    tag_216:\n      0x20\n      mul\n      0x20\n      add\n      add\n      mload\n        /* \"contracts/manager/FoodManager.sol\":4034:4053  details[i].quantity */\n      0x20\n      add\n      mload\n        /* \"contracts/manager/FoodManager.sol\":3908:4109  FoodDetail({... */\n      dup2\n      mstore\n      0x20\n      add\n        /* \"contracts/manager/FoodManager.sol\":4078:4085  details */\n      dup5\n        /* \"contracts/manager/FoodManager.sol\":4086:4087  i */\n      dup5\n        /* \"contracts/manager/FoodManager.sol\":4078:4088  details[i] */\n      dup2\n      mload\n      dup2\n      lt\n      tag_218\n      jumpi\n      tag_219\n      tag_108\n      jump\t// in\n    tag_219:\n    tag_218:\n      0x20\n      mul\n      0x20\n      add\n      add\n      mload\n        /* \"contracts/manager/FoodManager.sol\":4078:4094  details[i].price */\n      0x40\n      add\n      mload\n        /* \"contracts/manager/FoodManager.sol\":3908:4109  FoodDetail({... */\n      dup2\n      mstore\n      pop\n        /* \"contracts/manager/FoodManager.sol\":3885:4109  FoodDetail memory fd = FoodDetail({... */\n      swap1\n      pop\n        /* \"contracts/manager/FoodManager.sol\":4123:4134  foodDetails */\n      0x06\n        /* \"contracts/manager/FoodManager.sol\":4123:4142  foodDetails[foodId] */\n      0x00\n        /* \"contracts/manager/FoodManager.sol\":4135:4141  foodId */\n      dup6\n        /* \"contracts/manager/FoodManager.sol\":4123:4142  foodDetails[foodId] */\n      dup2\n      mstore\n      0x20\n      add\n      swap1\n      dup2\n      mstore\n      0x20\n      add\n      0x00\n      keccak256\n        /* \"contracts/manager/FoodManager.sol\":4148:4150  fd */\n      dup2\n        /* \"contracts/manager/FoodManager.sol\":4123:4151  foodDetails[foodId].push(fd) */\n      swap1\n      dup1\n      0x01\n      dup2\n      sload\n      add\n      dup1\n      dup3\n      sstore\n      dup1\n      swap2\n      pop\n      pop\n      0x01\n      swap1\n      sub\n      swap1\n      0x00\n      mstore\n      keccak256(0x00, 0x20)\n      swap1\n      0x04\n      mul\n      add\n      0x00\n      swap1\n      swap2\n      swap1\n      swap2\n      swap1\n      swap2\n      pop\n      0x00\n      dup3\n      add\n      mload\n      dup2\n      0x00\n      add\n      sstore\n      0x20\n      dup3\n      add\n      mload\n      dup2\n      0x01\n      add\n      swap1\n      dup2\n      tag_221\n      swap2\n      swap1\n      tag_194\n      jump\t// in\n    tag_221:\n      pop\n      0x40\n      dup3\n      add\n      mload\n      dup2\n      0x02\n      add\n      sstore\n      0x60\n      dup3\n      add\n      mload\n      dup2\n      0x03\n      add\n      sstore\n      pop\n      pop\n        /* \"contracts/manager/FoodManager.sol\":3838:4162  {... */\n      pop\n        /* \"contracts/manager/FoodManager.sol\":3833:3836  i++ */\n      dup1\n      dup1\n      0x01\n      add\n      swap2\n      pop\n      pop\n        /* \"contracts/manager/FoodManager.sol\":3793:4162  for (uint256 i = 0; i < details.length; i++) {... */\n      jump(tag_209)\n    tag_210:\n      pop\n        /* \"contracts/manager/FoodManager.sol\":4176:4200  FoodDetailsAdded(foodId) */\n      0x19a8e56286393226625dcdbc7cbb5a7611c71773d54c7e0680658cb9ceef6c22\n        /* \"contracts/manager/FoodManager.sol\":4193:4199  foodId */\n      dup3\n        /* \"contracts/manager/FoodManager.sol\":4176:4200  FoodDetailsAdded(foodId) */\n      mload(0x40)\n      tag_222\n      swap2\n      swap1\n      tag_36\n      jump\t// in\n    tag_222:\n      mload(0x40)\n      dup1\n      swap2\n      sub\n      swap1\n      log1\n        /* \"contracts/manager/FoodManager.sol\":3561:4207  function addFoodDetails(uint256 foodId, UpdateFoodDetail[] memory details)... */\n      pop\n      pop\n      jump\t// out\n        /* \"contracts/manager/FoodManager.sol\":2297:2970  function updateFood(... */\n    tag_67:\n        /* \"contracts/manager/FoodManager.sol\":2538:2539  0 */\n      0x00\n        /* \"contracts/manager/FoodManager.sol\":2513:2518  foods */\n      0x05\n        /* \"contracts/manager/FoodManager.sol\":2513:2527  foods[_foodId] */\n      0x00\n        /* \"contracts/manager/FoodManager.sol\":2519:2526  _foodId */\n      dup8\n        /* \"contracts/manager/FoodManager.sol\":2513:2527  foods[_foodId] */\n      dup2\n      mstore\n      0x20\n      add\n      swap1\n      dup2\n      mstore\n      0x20\n      add\n      0x00\n      keccak256\n        /* \"contracts/manager/FoodManager.sol\":2513:2534  foods[_foodId].foodId */\n      0x00\n      add\n      sload\n        /* \"contracts/manager/FoodManager.sol\":2513:2539  foods[_foodId].foodId != 0 */\n      sub\n        /* \"contracts/manager/FoodManager.sol\":2505:2563  require(foods[_foodId].foodId != 0, \"Food does not exist\") */\n      tag_224\n      jumpi\n      mload(0x40)\n      0x08c379a000000000000000000000000000000000000000000000000000000000\n      dup2\n      mstore\n      0x04\n      add\n      tag_225\n      swap1\n      tag_125\n      jump\t// in\n    tag_225:\n      mload(0x40)\n      dup1\n      swap2\n      sub\n      swap1\n      revert\n    tag_224:\n        /* \"contracts/manager/FoodManager.sol\":2649:2650  0 */\n      0x00\n        /* \"contracts/manager/FoodManager.sol\":2594:2609  categoryManager */\n      0x02\n      0x00\n      swap1\n      sload\n      swap1\n      0x0100\n      exp\n      swap1\n      div\n      0xffffffffffffffffffffffffffffffffffffffff\n      and\n        /* \"contracts/manager/FoodManager.sol\":2594:2621  categoryManager.getCategory */\n      0xffffffffffffffffffffffffffffffffffffffff\n      and\n      0xf3052d26\n        /* \"contracts/manager/FoodManager.sol\":2622:2633  _categoryId */\n      dup5\n        /* \"contracts/manager/FoodManager.sol\":2594:2634  categoryManager.getCategory(_categoryId) */\n      mload(0x40)\n      dup3\n      0xffffffff\n      and\n      0xe0\n      shl\n      dup2\n      mstore\n      0x04\n      add\n      tag_226\n      swap2\n      swap1\n      tag_36\n      jump\t// in\n    tag_226:\n      0x00\n      mload(0x40)\n      dup1\n      dup4\n      sub\n      dup2\n      dup7\n      gas\n      staticcall\n      iszero\n      dup1\n      iszero\n      tag_228\n      jumpi\n      returndatacopy(0x00, 0x00, returndatasize)\n      revert(0x00, returndatasize)\n    tag_228:\n      pop\n      pop\n      pop\n      pop\n      mload(0x40)\n      returndatasize\n      0x00\n      dup3\n      returndatacopy\n      returndatasize\n      not(0x1f)\n      0x1f\n      dup3\n      add\n      and\n      dup3\n      add\n      dup1\n      0x40\n      mstore\n      pop\n      dup2\n      add\n      swap1\n      tag_229\n      swap2\n      swap1\n      tag_230\n      jump\t// in\n    tag_229:\n        /* \"contracts/manager/FoodManager.sol\":2594:2645  categoryManager.getCategory(_categoryId).categoryId */\n      0x00\n      add\n      mload\n        /* \"contracts/manager/FoodManager.sol\":2594:2650  categoryManager.getCategory(_categoryId).categoryId != 0 */\n      sub\n        /* \"contracts/manager/FoodManager.sol\":2573:2699  require(... */\n      tag_231\n      jumpi\n      mload(0x40)\n      0x08c379a000000000000000000000000000000000000000000000000000000000\n      dup2\n      mstore\n      0x04\n      add\n      tag_232\n      swap1\n      tag_233\n      jump\t// in\n    tag_232:\n      mload(0x40)\n      dup1\n      swap2\n      sub\n      swap1\n      revert\n    tag_231:\n        /* \"contracts/manager/FoodManager.sol\":2732:2737  _name */\n      dup4\n        /* \"contracts/manager/FoodManager.sol\":2710:2715  foods */\n      0x05\n        /* \"contracts/manager/FoodManager.sol\":2710:2724  foods[_foodId] */\n      0x00\n        /* \"contracts/manager/FoodManager.sol\":2716:2723  _foodId */\n      dup8\n        /* \"contracts/manager/FoodManager.sol\":2710:2724  foods[_foodId] */\n      dup2\n      mstore\n      0x20\n      add\n      swap1\n      dup2\n      mstore\n      0x20\n      add\n      0x00\n      keccak256\n        /* \"contracts/manager/FoodManager.sol\":2710:2729  foods[_foodId].name */\n      0x01\n      add\n        /* \"contracts/manager/FoodManager.sol\":2710:2737  foods[_foodId].name = _name */\n      swap1\n      dup2\n      tag_234\n      swap2\n      swap1\n      tag_194\n      jump\t// in\n    tag_234:\n      pop\n        /* \"contracts/manager/FoodManager.sol\":2776:2788  _description */\n      dup3\n        /* \"contracts/manager/FoodManager.sol\":2747:2752  foods */\n      0x05\n        /* \"contracts/manager/FoodManager.sol\":2747:2761  foods[_foodId] */\n      0x00\n        /* \"contracts/manager/FoodManager.sol\":2753:2760  _foodId */\n      dup8\n        /* \"contracts/manager/FoodManager.sol\":2747:2761  foods[_foodId] */\n      dup2\n      mstore\n      0x20\n      add\n      swap1\n      dup2\n      mstore\n      0x20\n      add\n      0x00\n      keccak256\n        /* \"contracts/manager/FoodManager.sol\":2747:2773  foods[_foodId].description */\n      0x02\n      add\n        /* \"contracts/manager/FoodManager.sol\":2747:2788  foods[_foodId].description = _description */\n      swap1\n      dup2\n      tag_235\n      swap2\n      swap1\n      tag_194\n      jump\t// in\n    tag_235:\n      pop\n        /* \"contracts/manager/FoodManager.sol\":2826:2837  _categoryId */\n      dup2\n        /* \"contracts/manager/FoodManager.sol\":2798:2803  foods */\n      0x05\n        /* \"contracts/manager/FoodManager.sol\":2798:2812  foods[_foodId] */\n      0x00\n        /* \"contracts/manager/FoodManager.sol\":2804:2811  _foodId */\n      dup8\n        /* \"contracts/manager/FoodManager.sol\":2798:2812  foods[_foodId] */\n      dup2\n      mstore\n      0x20\n      add\n      swap1\n      dup2\n      mstore\n      0x20\n      add\n      0x00\n      keccak256\n        /* \"contracts/manager/FoodManager.sol\":2798:2823  foods[_foodId].categoryId */\n      0x03\n      add\n        /* \"contracts/manager/FoodManager.sol\":2798:2837  foods[_foodId].categoryId = _categoryId */\n      dup2\n      swap1\n      sstore\n      pop\n        /* \"contracts/manager/FoodManager.sol\":2873:2882  _imageUrl */\n      dup1\n        /* \"contracts/manager/FoodManager.sol\":2847:2852  foods */\n      0x05\n        /* \"contracts/manager/FoodManager.sol\":2847:2861  foods[_foodId] */\n      0x00\n        /* \"contracts/manager/FoodManager.sol\":2853:2860  _foodId */\n      dup8\n        /* \"contracts/manager/FoodManager.sol\":2847:2861  foods[_foodId] */\n      dup2\n      mstore\n      0x20\n      add\n      swap1\n      dup2\n      mstore\n      0x20\n      add\n      0x00\n      keccak256\n        /* \"contracts/manager/FoodManager.sol\":2847:2870  foods[_foodId].imageUrl */\n      0x04\n      add\n        /* \"contracts/manager/FoodManager.sol\":2847:2882  foods[_foodId].imageUrl = _imageUrl */\n      swap1\n      dup1\n      mload\n      swap1\n      0x20\n      add\n      swap1\n      tag_236\n      swap3\n      swap2\n      swap1\n      tag_237\n      jump\t// in\n    tag_236:\n      pop\n        /* \"contracts/manager/FoodManager.sol\":2898:2963  FoodUpdated(_foodId, _name, _description, _categoryId, _imageUrl) */\n      0x4f49710e0e59ea2e7096d7bad0267390d8bb5c007687f72b0de2db3afdadd5e5\n        /* \"contracts/manager/FoodManager.sol\":2910:2917  _foodId */\n      dup6\n        /* \"contracts/manager/FoodManager.sol\":2919:2924  _name */\n      dup6\n        /* \"contracts/manager/FoodManager.sol\":2926:2938  _description */\n      dup6\n        /* \"contracts/manager/FoodManager.sol\":2940:2951  _categoryId */\n      dup6\n        /* \"contracts/manager/FoodManager.sol\":2953:2962  _imageUrl */\n      dup6\n        /* \"contracts/manager/FoodManager.sol\":2898:2963  FoodUpdated(_foodId, _name, _description, _categoryId, _imageUrl) */\n      mload(0x40)\n      tag_238\n      swap6\n      swap5\n      swap4\n      swap3\n      swap2\n      swap1\n      tag_239\n      jump\t// in\n    tag_238:\n      mload(0x40)\n      dup1\n      swap2\n      sub\n      swap1\n      log1\n        /* \"contracts/manager/FoodManager.sol\":2297:2970  function updateFood(... */\n      pop\n      pop\n      pop\n      pop\n      pop\n      jump\t// out\n        /* \"contracts/access/RoleAccess.sol\":625:781  function addAdmin(address _admin) external virtual  {... */\n    tag_70:\n        /* \"contracts/access/RoleAccess.sol\":763:773  Role.ADMIN */\n      0x01\n        /* \"contracts/access/RoleAccess.sol\":745:752  isAdmin */\n      dup1\n        /* \"contracts/access/RoleAccess.sol\":745:760  isAdmin[_admin] */\n      0x00\n        /* \"contracts/access/RoleAccess.sol\":753:759  _admin */\n      dup4\n        /* \"contracts/access/RoleAccess.sol\":745:760  isAdmin[_admin] */\n      0xffffffffffffffffffffffffffffffffffffffff\n      and\n      0xffffffffffffffffffffffffffffffffffffffff\n      and\n      dup2\n      mstore\n      0x20\n      add\n      swap1\n      dup2\n      mstore\n      0x20\n      add\n      0x00\n      keccak256\n      0x00\n        /* \"contracts/access/RoleAccess.sol\":745:773  isAdmin[_admin] = Role.ADMIN */\n      0x0100\n      exp\n      dup2\n      sload\n      dup2\n      0xff\n      mul\n      not\n      and\n      swap1\n      dup4\n      0x02\n      dup2\n      gt\n      iszero\n      tag_241\n      jumpi\n      tag_242\n      tag_119\n      jump\t// in\n    tag_242:\n    tag_241:\n      mul\n      or\n      swap1\n      sstore\n      pop\n        /* \"contracts/access/RoleAccess.sol\":625:781  function addAdmin(address _admin) external virtual  {... */\n      pop\n      jump\t// out\n        /* \"contracts/access/RoleAccess.sol\":537:619  function getOwner () public  view returns (address){... */\n    tag_72:\n        /* \"contracts/access/RoleAccess.sol\":580:587  address */\n      0x00\n        /* \"contracts/access/RoleAccess.sol\":606:611  owner */\n      0x00\n      0x00\n      swap1\n      sload\n      swap1\n      0x0100\n      exp\n      swap1\n      div\n      0xffffffffffffffffffffffffffffffffffffffff\n      and\n        /* \"contracts/access/RoleAccess.sol\":599:611  return owner */\n      swap1\n      pop\n        /* \"contracts/access/RoleAccess.sol\":537:619  function getOwner () public  view returns (address){... */\n      swap1\n      jump\t// out\n        /* \"contracts/manager/FoodManager.sol\":6877:7334  function reduceQuantiy (uint _foodId,uint foodDetailId,uint _quantity) external override {... */\n    tag_77:\n        /* \"contracts/manager/FoodManager.sol\":6980:6986  uint i */\n      0x00\n        /* \"contracts/manager/FoodManager.sol\":6989:6990  0 */\n      0x00\n        /* \"contracts/manager/FoodManager.sol\":6980:6990  uint i = 0 */\n      swap1\n      pop\n        /* \"contracts/manager/FoodManager.sol\":6976:7327  for(uint i = 0;  i< foodDetails[_foodId].length ; i++ ){... */\n    tag_245:\n        /* \"contracts/manager/FoodManager.sol\":6996:7007  foodDetails */\n      0x06\n        /* \"contracts/manager/FoodManager.sol\":6996:7016  foodDetails[_foodId] */\n      0x00\n        /* \"contracts/manager/FoodManager.sol\":7008:7015  _foodId */\n      dup6\n        /* \"contracts/manager/FoodManager.sol\":6996:7016  foodDetails[_foodId] */\n      dup2\n      mstore\n      0x20\n      add\n      swap1\n      dup2\n      mstore\n      0x20\n      add\n      0x00\n      keccak256\n        /* \"contracts/manager/FoodManager.sol\":6996:7023  foodDetails[_foodId].length */\n      dup1\n      sload\n      swap1\n      pop\n        /* \"contracts/manager/FoodManager.sol\":6993:6994  i */\n      dup2\n        /* \"contracts/manager/FoodManager.sol\":6993:7023  i< foodDetails[_foodId].length */\n      lt\n        /* \"contracts/manager/FoodManager.sol\":6976:7327  for(uint i = 0;  i< foodDetails[_foodId].length ; i++ ){... */\n      iszero\n      tag_246\n      jumpi\n        /* \"contracts/manager/FoodManager.sol\":7088:7100  foodDetailId */\n      dup3\n        /* \"contracts/manager/FoodManager.sol\":7048:7059  foodDetails */\n      0x06\n        /* \"contracts/manager/FoodManager.sol\":7048:7068  foodDetails[_foodId] */\n      0x00\n        /* \"contracts/manager/FoodManager.sol\":7060:7067  _foodId */\n      dup7\n        /* \"contracts/manager/FoodManager.sol\":7048:7068  foodDetails[_foodId] */\n      dup2\n      mstore\n      0x20\n      add\n      swap1\n      dup2\n      mstore\n      0x20\n      add\n      0x00\n      keccak256\n        /* \"contracts/manager/FoodManager.sol\":7069:7070  i */\n      dup3\n        /* \"contracts/manager/FoodManager.sol\":7048:7071  foodDetails[_foodId][i] */\n      dup2\n      sload\n      dup2\n      lt\n      tag_248\n      jumpi\n      tag_249\n      tag_108\n      jump\t// in\n    tag_249:\n    tag_248:\n      swap1\n      0x00\n      mstore\n      keccak256(0x00, 0x20)\n      swap1\n      0x04\n      mul\n      add\n        /* \"contracts/manager/FoodManager.sol\":7048:7084  foodDetails[_foodId][i].foodDetailId */\n      0x00\n      add\n      sload\n        /* \"contracts/manager/FoodManager.sol\":7048:7100  foodDetails[_foodId][i].foodDetailId == foodDetailId */\n      sub\n        /* \"contracts/manager/FoodManager.sol\":7045:7317  if(foodDetails[_foodId][i].foodDetailId == foodDetailId){... */\n      tag_251\n      jumpi\n        /* \"contracts/manager/FoodManager.sol\":7139:7150  foodDetails */\n      0x06\n        /* \"contracts/manager/FoodManager.sol\":7139:7159  foodDetails[_foodId] */\n      0x00\n        /* \"contracts/manager/FoodManager.sol\":7151:7158  _foodId */\n      dup6\n        /* \"contracts/manager/FoodManager.sol\":7139:7159  foodDetails[_foodId] */\n      dup2\n      mstore\n      0x20\n      add\n      swap1\n      dup2\n      mstore\n      0x20\n      add\n      0x00\n      keccak256\n        /* \"contracts/manager/FoodManager.sol\":7160:7161  i */\n      dup2\n        /* \"contracts/manager/FoodManager.sol\":7139:7162  foodDetails[_foodId][i] */\n      dup2\n      sload\n      dup2\n      lt\n      tag_252\n      jumpi\n      tag_253\n      tag_108\n      jump\t// in\n    tag_253:\n    tag_252:\n      swap1\n      0x00\n      mstore\n      keccak256(0x00, 0x20)\n      swap1\n      0x04\n      mul\n      add\n        /* \"contracts/manager/FoodManager.sol\":7139:7171  foodDetails[_foodId][i].quantity */\n      0x02\n      add\n      sload\n        /* \"contracts/manager/FoodManager.sol\":7127:7136  _quantity */\n      dup3\n        /* \"contracts/manager/FoodManager.sol\":7127:7171  _quantity < foodDetails[_foodId][i].quantity */\n      lt\n        /* \"contracts/manager/FoodManager.sol\":7119:7216  require(_quantity < foodDetails[_foodId][i].quantity, \"Quantity's food cannot be smaller than 0\") */\n      tag_255\n      jumpi\n      mload(0x40)\n      0x08c379a000000000000000000000000000000000000000000000000000000000\n      dup2\n      mstore\n      0x04\n      add\n      tag_256\n      swap1\n      tag_257\n      jump\t// in\n    tag_256:\n      mload(0x40)\n      dup1\n      swap2\n      sub\n      swap1\n      revert\n    tag_255:\n        /* \"contracts/manager/FoodManager.sol\":7270:7279  _quantity */\n      dup2\n        /* \"contracts/manager/FoodManager.sol\":7234:7245  foodDetails */\n      0x06\n        /* \"contracts/manager/FoodManager.sol\":7234:7254  foodDetails[_foodId] */\n      0x00\n        /* \"contracts/manager/FoodManager.sol\":7246:7253  _foodId */\n      dup7\n        /* \"contracts/manager/FoodManager.sol\":7234:7254  foodDetails[_foodId] */\n      dup2\n      mstore\n      0x20\n      add\n      swap1\n      dup2\n      mstore\n      0x20\n      add\n      0x00\n      keccak256\n        /* \"contracts/manager/FoodManager.sol\":7255:7256  i */\n      dup3\n        /* \"contracts/manager/FoodManager.sol\":7234:7257  foodDetails[_foodId][i] */\n      dup2\n      sload\n      dup2\n      lt\n      tag_258\n      jumpi\n      tag_259\n      tag_108\n      jump\t// in\n    tag_259:\n    tag_258:\n      swap1\n      0x00\n      mstore\n      keccak256(0x00, 0x20)\n      swap1\n      0x04\n      mul\n      add\n        /* \"contracts/manager/FoodManager.sol\":7234:7266  foodDetails[_foodId][i].quantity */\n      0x02\n      add\n      0x00\n        /* \"contracts/manager/FoodManager.sol\":7234:7279  foodDetails[_foodId][i].quantity -= _quantity */\n      dup3\n      dup3\n      sload\n      tag_261\n      swap2\n      swap1\n      tag_181\n      jump\t// in\n    tag_261:\n      swap3\n      pop\n      pop\n      dup2\n      swap1\n      sstore\n      pop\n        /* \"contracts/manager/FoodManager.sol\":7297:7302  break */\n      jump(tag_246)\n        /* \"contracts/manager/FoodManager.sol\":7045:7317  if(foodDetails[_foodId][i].foodDetailId == foodDetailId){... */\n    tag_251:\n        /* \"contracts/manager/FoodManager.sol\":7026:7029  i++ */\n      dup1\n      dup1\n      0x01\n      add\n      swap2\n      pop\n      pop\n        /* \"contracts/manager/FoodManager.sol\":6976:7327  for(uint i = 0;  i< foodDetails[_foodId].length ; i++ ){... */\n      jump(tag_245)\n    tag_246:\n      pop\n        /* \"contracts/manager/FoodManager.sol\":6877:7334  function reduceQuantiy (uint _foodId,uint foodDetailId,uint _quantity) external override {... */\n      pop\n      pop\n      pop\n      jump\t// out\n        /* \"contracts/manager/FoodManager.sol\":5856:6095  function getFoodDetails(uint256 foodId)... */\n    tag_80:\n        /* \"contracts/manager/FoodManager.sol\":5960:5979  FoodDetail[] memory */\n      0x60\n        /* \"contracts/manager/FoodManager.sol\":6027:6028  0 */\n      0x00\n        /* \"contracts/manager/FoodManager.sol\":6003:6008  foods */\n      0x05\n        /* \"contracts/manager/FoodManager.sol\":6003:6016  foods[foodId] */\n      0x00\n        /* \"contracts/manager/FoodManager.sol\":6009:6015  foodId */\n      dup5\n        /* \"contracts/manager/FoodManager.sol\":6003:6016  foods[foodId] */\n      dup2\n      mstore\n      0x20\n      add\n      swap1\n      dup2\n      mstore\n      0x20\n      add\n      0x00\n      keccak256\n        /* \"contracts/manager/FoodManager.sol\":6003:6023  foods[foodId].foodId */\n      0x00\n      add\n      sload\n        /* \"contracts/manager/FoodManager.sol\":6003:6028  foods[foodId].foodId != 0 */\n      sub\n        /* \"contracts/manager/FoodManager.sol\":5995:6052  require(foods[foodId].foodId != 0, \"Food does not exist\") */\n      tag_263\n      jumpi\n      mload(0x40)\n      0x08c379a000000000000000000000000000000000000000000000000000000000\n      dup2\n      mstore\n      0x04\n      add\n      tag_264\n      swap1\n      tag_125\n      jump\t// in\n    tag_264:\n      mload(0x40)\n      dup1\n      swap2\n      sub\n      swap1\n      revert\n    tag_263:\n        /* \"contracts/manager/FoodManager.sol\":6069:6080  foodDetails */\n      0x06\n        /* \"contracts/manager/FoodManager.sol\":6069:6088  foodDetails[foodId] */\n      0x00\n        /* \"contracts/manager/FoodManager.sol\":6081:6087  foodId */\n      dup4\n        /* \"contracts/manager/FoodManager.sol\":6069:6088  foodDetails[foodId] */\n      dup2\n      mstore\n      0x20\n      add\n      swap1\n      dup2\n      mstore\n      0x20\n      add\n      0x00\n      keccak256\n        /* \"contracts/manager/FoodManager.sol\":6062:6088  return foodDetails[foodId] */\n      dup1\n      sload\n      dup1\n      0x20\n      mul\n      0x20\n      add\n      mload(0x40)\n      swap1\n      dup2\n      add\n      0x40\n      mstore\n      dup1\n      swap3\n      swap2\n      swap1\n      dup2\n      dup2\n      mstore\n      0x20\n      add\n      0x00\n      swap1\n    tag_265:\n      dup3\n      dup3\n      lt\n      iszero\n      tag_266\n      jumpi\n      dup4\n      dup3\n      swap1\n      0x00\n      mstore\n      keccak256(0x00, 0x20)\n      swap1\n      0x04\n      mul\n      add\n      mload(0x40)\n      dup1\n      0x80\n      add\n      0x40\n      mstore\n      swap1\n      dup2\n      0x00\n      dup3\n      add\n      sload\n      dup2\n      mstore\n      0x20\n      add\n      0x01\n      dup3\n      add\n      dup1\n      sload\n      tag_268\n      swap1\n      tag_127\n      jump\t// in\n    tag_268:\n      dup1\n      0x1f\n      add\n      0x20\n      dup1\n      swap2\n      div\n      mul\n      0x20\n      add\n      mload(0x40)\n      swap1\n      dup2\n      add\n      0x40\n      mstore\n      dup1\n      swap3\n      swap2\n      swap1\n      dup2\n      dup2\n      mstore\n      0x20\n      add\n      dup3\n      dup1\n      sload\n      tag_269\n      swap1\n      tag_127\n      jump\t// in\n    tag_269:\n      dup1\n      iszero\n      tag_270\n      jumpi\n      dup1\n      0x1f\n      lt\n      tag_271\n      jumpi\n      0x0100\n      dup1\n      dup4\n      sload\n      div\n      mul\n      dup4\n      mstore\n      swap2\n      0x20\n      add\n      swap2\n      jump(tag_270)\n    tag_271:\n      dup3\n      add\n      swap2\n      swap1\n      0x00\n      mstore\n      keccak256(0x00, 0x20)\n      swap1\n    tag_272:\n      dup2\n      sload\n      dup2\n      mstore\n      swap1\n      0x01\n      add\n      swap1\n      0x20\n      add\n      dup1\n      dup4\n      gt\n      tag_272\n      jumpi\n      dup3\n      swap1\n      sub\n      0x1f\n      and\n      dup3\n      add\n      swap2\n    tag_270:\n      pop\n      pop\n      pop\n      pop\n      pop\n      dup2\n      mstore\n      0x20\n      add\n      0x02\n      dup3\n      add\n      sload\n      dup2\n      mstore\n      0x20\n      add\n      0x03\n      dup3\n      add\n      sload\n      dup2\n      mstore\n      pop\n      pop\n      dup2\n      mstore\n      0x20\n      add\n      swap1\n      0x01\n      add\n      swap1\n      jump(tag_265)\n    tag_266:\n      pop\n      pop\n      pop\n      pop\n      swap1\n      pop\n        /* \"contracts/manager/FoodManager.sol\":5856:6095  function getFoodDetails(uint256 foodId)... */\n      swap2\n      swap1\n      pop\n      jump\t// out\n        /* \"contracts/manager/FoodManager.sol\":686:2291  function createFood(... */\n    tag_86:\n        /* \"contracts/manager/FoodManager.sol\":1041:1042  0 */\n      0x00\n        /* \"contracts/manager/FoodManager.sol\":1016:1021  foods */\n      0x05\n        /* \"contracts/manager/FoodManager.sol\":1016:1030  foods[_foodId] */\n      0x00\n        /* \"contracts/manager/FoodManager.sol\":1022:1029  _foodId */\n      dup9\n        /* \"contracts/manager/FoodManager.sol\":1016:1030  foods[_foodId] */\n      dup2\n      mstore\n      0x20\n      add\n      swap1\n      dup2\n      mstore\n      0x20\n      add\n      0x00\n      keccak256\n        /* \"contracts/manager/FoodManager.sol\":1016:1037  foods[_foodId].foodId */\n      0x00\n      add\n      sload\n        /* \"contracts/manager/FoodManager.sol\":1016:1042  foods[_foodId].foodId == 0 */\n      eq\n        /* \"contracts/manager/FoodManager.sol\":1008:1079  require(foods[_foodId].foodId == 0, \"Food with this ID already exists\") */\n      tag_274\n      jumpi\n      mload(0x40)\n      0x08c379a000000000000000000000000000000000000000000000000000000000\n      dup2\n      mstore\n      0x04\n      add\n      tag_275\n      swap1\n      tag_276\n      jump\t// in\n    tag_275:\n      mload(0x40)\n      dup1\n      swap2\n      sub\n      swap1\n      revert\n    tag_274:\n        /* \"contracts/manager/FoodManager.sol\":1165:1166  0 */\n      0x00\n        /* \"contracts/manager/FoodManager.sol\":1110:1125  categoryManager */\n      0x02\n      0x00\n      swap1\n      sload\n      swap1\n      0x0100\n      exp\n      swap1\n      div\n      0xffffffffffffffffffffffffffffffffffffffff\n      and\n        /* \"contracts/manager/FoodManager.sol\":1110:1137  categoryManager.getCategory */\n      0xffffffffffffffffffffffffffffffffffffffff\n      and\n      0xf3052d26\n        /* \"contracts/manager/FoodManager.sol\":1138:1149  _categoryId */\n      dup6\n        /* \"contracts/manager/FoodManager.sol\":1110:1150  categoryManager.getCategory(_categoryId) */\n      mload(0x40)\n      dup3\n      0xffffffff\n      and\n      0xe0\n      shl\n      dup2\n      mstore\n      0x04\n      add\n      tag_277\n      swap2\n      swap1\n      tag_36\n      jump\t// in\n    tag_277:\n      0x00\n      mload(0x40)\n      dup1\n      dup4\n      sub\n      dup2\n      dup7\n      gas\n      staticcall\n      iszero\n      dup1\n      iszero\n      tag_279\n      jumpi\n      returndatacopy(0x00, 0x00, returndatasize)\n      revert(0x00, returndatasize)\n    tag_279:\n      pop\n      pop\n      pop\n      pop\n      mload(0x40)\n      returndatasize\n      0x00\n      dup3\n      returndatacopy\n      returndatasize\n      not(0x1f)\n      0x1f\n      dup3\n      add\n      and\n      dup3\n      add\n      dup1\n      0x40\n      mstore\n      pop\n      dup2\n      add\n      swap1\n      tag_280\n      swap2\n      swap1\n      tag_230\n      jump\t// in\n    tag_280:\n        /* \"contracts/manager/FoodManager.sol\":1110:1161  categoryManager.getCategory(_categoryId).categoryId */\n      0x00\n      add\n      mload\n        /* \"contracts/manager/FoodManager.sol\":1110:1166  categoryManager.getCategory(_categoryId).categoryId != 0 */\n      sub\n        /* \"contracts/manager/FoodManager.sol\":1089:1215  require(... */\n      tag_281\n      jumpi\n      mload(0x40)\n      0x08c379a000000000000000000000000000000000000000000000000000000000\n      dup2\n      mstore\n      0x04\n      add\n      tag_282\n      swap1\n      tag_233\n      jump\t// in\n    tag_282:\n      mload(0x40)\n      dup1\n      swap2\n      sub\n      swap1\n      revert\n    tag_281:\n        /* \"contracts/manager/FoodManager.sol\":1285:1304  Food memory newFood */\n      0x00\n        /* \"contracts/manager/FoodManager.sol\":1307:1567  Food({... */\n      mload(0x40)\n      dup1\n      0x0100\n      add\n      0x40\n      mstore\n      dup1\n        /* \"contracts/manager/FoodManager.sol\":1334:1341  _foodId */\n      dup9\n        /* \"contracts/manager/FoodManager.sol\":1307:1567  Food({... */\n      dup2\n      mstore\n      0x20\n      add\n        /* \"contracts/manager/FoodManager.sol\":1361:1366  _name */\n      dup8\n        /* \"contracts/manager/FoodManager.sol\":1307:1567  Food({... */\n      dup2\n      mstore\n      0x20\n      add\n        /* \"contracts/manager/FoodManager.sol\":1393:1405  _description */\n      dup7\n        /* \"contracts/manager/FoodManager.sol\":1307:1567  Food({... */\n      dup2\n      mstore\n      0x20\n      add\n        /* \"contracts/manager/FoodManager.sol\":1431:1442  _categoryId */\n      dup6\n        /* \"contracts/manager/FoodManager.sol\":1307:1567  Food({... */\n      dup2\n      mstore\n      0x20\n      add\n        /* \"contracts/manager/FoodManager.sol\":1466:1475  _imageUrl */\n      dup5\n        /* \"contracts/manager/FoodManager.sol\":1307:1567  Food({... */\n      dup2\n      mstore\n      0x20\n      add\n        /* \"contracts/manager/FoodManager.sol\":1502:1503  0 */\n      0x00\n        /* \"contracts/manager/FoodManager.sol\":1307:1567  Food({... */\n      dup2\n      mstore\n      0x20\n      add\n        /* \"contracts/manager/FoodManager.sol\":1528:1529  0 */\n      0x00\n        /* \"contracts/manager/FoodManager.sol\":1307:1567  Food({... */\n      dup2\n      mstore\n      0x20\n      add\n        /* \"contracts/manager/FoodManager.sol\":1555:1556  0 */\n      0x00\n        /* \"contracts/manager/FoodManager.sol\":1307:1567  Food({... */\n      dup2\n      mstore\n      pop\n        /* \"contracts/manager/FoodManager.sol\":1285:1567  Food memory newFood = Food({... */\n      swap1\n      pop\n        /* \"contracts/manager/FoodManager.sol\":1594:1601  newFood */\n      dup1\n        /* \"contracts/manager/FoodManager.sol\":1577:1582  foods */\n      0x05\n        /* \"contracts/manager/FoodManager.sol\":1577:1591  foods[_foodId] */\n      0x00\n        /* \"contracts/manager/FoodManager.sol\":1583:1590  _foodId */\n      dup10\n        /* \"contracts/manager/FoodManager.sol\":1577:1591  foods[_foodId] */\n      dup2\n      mstore\n      0x20\n      add\n      swap1\n      dup2\n      mstore\n      0x20\n      add\n      0x00\n      keccak256\n        /* \"contracts/manager/FoodManager.sol\":1577:1601  foods[_foodId] = newFood */\n      0x00\n      dup3\n      add\n      mload\n      dup2\n      0x00\n      add\n      sstore\n      0x20\n      dup3\n      add\n      mload\n      dup2\n      0x01\n      add\n      swap1\n      dup2\n      tag_283\n      swap2\n      swap1\n      tag_194\n      jump\t// in\n    tag_283:\n      pop\n      0x40\n      dup3\n      add\n      mload\n      dup2\n      0x02\n      add\n      swap1\n      dup2\n      tag_284\n      swap2\n      swap1\n      tag_194\n      jump\t// in\n    tag_284:\n      pop\n      0x60\n      dup3\n      add\n      mload\n      dup2\n      0x03\n      add\n      sstore\n      0x80\n      dup3\n      add\n      mload\n      dup2\n      0x04\n      add\n      swap1\n      dup1\n      mload\n      swap1\n      0x20\n      add\n      swap1\n      tag_285\n      swap3\n      swap2\n      swap1\n      tag_237\n      jump\t// in\n    tag_285:\n      pop\n      0xa0\n      dup3\n      add\n      mload\n      dup2\n      0x05\n      add\n      sstore\n      0xc0\n      dup3\n      add\n      mload\n      dup2\n      0x06\n      add\n      sstore\n      0xe0\n      dup3\n      add\n      mload\n      dup2\n      0x07\n      add\n      sstore\n      swap1\n      pop\n      pop\n        /* \"contracts/manager/FoodManager.sol\":1611:1618  foodIds */\n      0x07\n        /* \"contracts/manager/FoodManager.sol\":1624:1631  _foodId */\n      dup8\n        /* \"contracts/manager/FoodManager.sol\":1611:1632  foodIds.push(_foodId) */\n      swap1\n      dup1\n      0x01\n      dup2\n      sload\n      add\n      dup1\n      dup3\n      sstore\n      dup1\n      swap2\n      pop\n      pop\n      0x01\n      swap1\n      sub\n      swap1\n      0x00\n      mstore\n      keccak256(0x00, 0x20)\n      add\n      0x00\n      swap1\n      swap2\n      swap1\n      swap2\n      swap1\n      swap2\n      pop\n      sstore\n        /* \"contracts/manager/FoodManager.sol\":1643:1658  categoryManager */\n      0x02\n      0x00\n      swap1\n      sload\n      swap1\n      0x0100\n      exp\n      swap1\n      div\n      0xffffffffffffffffffffffffffffffffffffffff\n      and\n        /* \"contracts/manager/FoodManager.sol\":1643:1678  categoryManager.addFoodIdToCategory */\n      0xffffffffffffffffffffffffffffffffffffffff\n      and\n      0x5f8069cc\n        /* \"contracts/manager/FoodManager.sol\":1679:1690  _categoryId */\n      dup6\n        /* \"contracts/manager/FoodManager.sol\":1691:1698  _foodId */\n      dup10\n        /* \"contracts/manager/FoodManager.sol\":1643:1699  categoryManager.addFoodIdToCategory(_categoryId,_foodId) */\n      mload(0x40)\n      dup4\n      0xffffffff\n      and\n      0xe0\n      shl\n      dup2\n      mstore\n      0x04\n      add\n      tag_287\n      swap3\n      swap2\n      swap1\n      tag_202\n      jump\t// in\n    tag_287:\n      0x00\n      mload(0x40)\n      dup1\n      dup4\n      sub\n      dup2\n      0x00\n      dup8\n      dup1\n      extcodesize\n      iszero\n      dup1\n      iszero\n      tag_288\n      jumpi\n      revert(0x00, 0x00)\n    tag_288:\n      pop\n      gas\n      call\n      iszero\n      dup1\n      iszero\n      tag_290\n      jumpi\n      returndatacopy(0x00, 0x00, returndatasize)\n      revert(0x00, returndatasize)\n    tag_290:\n      pop\n      pop\n      pop\n      pop\n        /* \"contracts/manager/FoodManager.sol\":1756:1765  uint256 i */\n      0x00\n        /* \"contracts/manager/FoodManager.sol\":1768:1769  0 */\n      0x00\n        /* \"contracts/manager/FoodManager.sol\":1756:1769  uint256 i = 0 */\n      swap1\n      pop\n        /* \"contracts/manager/FoodManager.sol\":1751:2158  for (uint256 i = 0; i < _foodDetail.length; i++) {... */\n    tag_291:\n        /* \"contracts/manager/FoodManager.sol\":1775:1786  _foodDetail */\n      dup3\n        /* \"contracts/manager/FoodManager.sol\":1775:1793  _foodDetail.length */\n      mload\n        /* \"contracts/manager/FoodManager.sol\":1771:1772  i */\n      dup2\n        /* \"contracts/manager/FoodManager.sol\":1771:1793  i < _foodDetail.length */\n      lt\n        /* \"contracts/manager/FoodManager.sol\":1751:2158  for (uint256 i = 0; i < _foodDetail.length; i++) {... */\n      iszero\n      tag_292\n      jumpi\n        /* \"contracts/manager/FoodManager.sol\":1814:1845  FoodDetail memory newFoodDetail */\n      0x00\n        /* \"contracts/manager/FoodManager.sol\":1848:2093  FoodDetail({... */\n      mload(0x40)\n      dup1\n      0x80\n      add\n      0x40\n      mstore\n      dup1\n        /* \"contracts/manager/FoodManager.sol\":1891:1907  nextFoodDetailId */\n      0x04\n      0x00\n        /* \"contracts/manager/FoodManager.sol\":1891:1909  nextFoodDetailId++ */\n      dup2\n      sload\n      dup1\n      swap3\n      swap2\n      swap1\n      tag_294\n      swap1\n      tag_213\n      jump\t// in\n    tag_294:\n      swap2\n      swap1\n      pop\n      sstore\n        /* \"contracts/manager/FoodManager.sol\":1848:2093  FoodDetail({... */\n      dup2\n      mstore\n      0x20\n      add\n        /* \"contracts/manager/FoodManager.sol\":1963:1974  _foodDetail */\n      dup6\n        /* \"contracts/manager/FoodManager.sol\":1975:1976  i */\n      dup5\n        /* \"contracts/manager/FoodManager.sol\":1963:1977  _foodDetail[i] */\n      dup2\n      mload\n      dup2\n      lt\n      tag_295\n      jumpi\n      tag_296\n      tag_108\n      jump\t// in\n    tag_296:\n    tag_295:\n      0x20\n      mul\n      0x20\n      add\n      add\n      mload\n        /* \"contracts/manager/FoodManager.sol\":1963:1982  _foodDetail[i].size */\n      0x00\n      add\n      mload\n        /* \"contracts/manager/FoodManager.sol\":1848:2093  FoodDetail({... */\n      dup2\n      mstore\n      0x20\n      add\n        /* \"contracts/manager/FoodManager.sol\":2010:2021  _foodDetail */\n      dup6\n        /* \"contracts/manager/FoodManager.sol\":2022:2023  i */\n      dup5\n        /* \"contracts/manager/FoodManager.sol\":2010:2024  _foodDetail[i] */\n      dup2\n      mload\n      dup2\n      lt\n      tag_297\n      jumpi\n      tag_298\n      tag_108\n      jump\t// in\n    tag_298:\n    tag_297:\n      0x20\n      mul\n      0x20\n      add\n      add\n      mload\n        /* \"contracts/manager/FoodManager.sol\":2010:2033  _foodDetail[i].quantity */\n      0x20\n      add\n      mload\n        /* \"contracts/manager/FoodManager.sol\":1848:2093  FoodDetail({... */\n      dup2\n      mstore\n      0x20\n      add\n        /* \"contracts/manager/FoodManager.sol\":2058:2069  _foodDetail */\n      dup6\n        /* \"contracts/manager/FoodManager.sol\":2070:2071  i */\n      dup5\n        /* \"contracts/manager/FoodManager.sol\":2058:2072  _foodDetail[i] */\n      dup2\n      mload\n      dup2\n      lt\n      tag_299\n      jumpi\n      tag_300\n      tag_108\n      jump\t// in\n    tag_300:\n    tag_299:\n      0x20\n      mul\n      0x20\n      add\n      add\n      mload\n        /* \"contracts/manager/FoodManager.sol\":2058:2078  _foodDetail[i].price */\n      0x40\n      add\n      mload\n        /* \"contracts/manager/FoodManager.sol\":1848:2093  FoodDetail({... */\n      dup2\n      mstore\n      pop\n        /* \"contracts/manager/FoodManager.sol\":1814:2093  FoodDetail memory newFoodDetail = FoodDetail({... */\n      swap1\n      pop\n        /* \"contracts/manager/FoodManager.sol\":2107:2118  foodDetails */\n      0x06\n        /* \"contracts/manager/FoodManager.sol\":2107:2127  foodDetails[_foodId] */\n      0x00\n        /* \"contracts/manager/FoodManager.sol\":2119:2126  _foodId */\n      dup11\n        /* \"contracts/manager/FoodManager.sol\":2107:2127  foodDetails[_foodId] */\n      dup2\n      mstore\n      0x20\n      add\n      swap1\n      dup2\n      mstore\n      0x20\n      add\n      0x00\n      keccak256\n        /* \"contracts/manager/FoodManager.sol\":2133:2146  newFoodDetail */\n      dup2\n        /* \"contracts/manager/FoodManager.sol\":2107:2147  foodDetails[_foodId].push(newFoodDetail) */\n      swap1\n      dup1\n      0x01\n      dup2\n      sload\n      add\n      dup1\n      dup3\n      sstore\n      dup1\n      swap2\n      pop\n      pop\n      0x01\n      swap1\n      sub\n      swap1\n      0x00\n      mstore\n      keccak256(0x00, 0x20)\n      swap1\n      0x04\n      mul\n      add\n      0x00\n      swap1\n      swap2\n      swap1\n      swap2\n      swap1\n      swap2\n      pop\n      0x00\n      dup3\n      add\n      mload\n      dup2\n      0x00\n      add\n      sstore\n      0x20\n      dup3\n      add\n      mload\n      dup2\n      0x01\n      add\n      swap1\n      dup2\n      tag_302\n      swap2\n      swap1\n      tag_194\n      jump\t// in\n    tag_302:\n      pop\n      0x40\n      dup3\n      add\n      mload\n      dup2\n      0x02\n      add\n      sstore\n      0x60\n      dup3\n      add\n      mload\n      dup2\n      0x03\n      add\n      sstore\n      pop\n      pop\n        /* \"contracts/manager/FoodManager.sol\":1800:2158  {... */\n      pop\n        /* \"contracts/manager/FoodManager.sol\":1795:1798  i++ */\n      dup1\n      dup1\n      0x01\n      add\n      swap2\n      pop\n      pop\n        /* \"contracts/manager/FoodManager.sol\":1751:2158  for (uint256 i = 0; i < _foodDetail.length; i++) {... */\n      jump(tag_291)\n    tag_292:\n      pop\n        /* \"contracts/manager/FoodManager.sol\":2219:2284  FoodCreated(_foodId, _name, _description, _categoryId, _imageUrl) */\n      0xbdf2814016d06bf27f22aa349fade26a888a8f7eac3e0963916b1c64cc37a5ce\n        /* \"contracts/manager/FoodManager.sol\":2231:2238  _foodId */\n      dup8\n        /* \"contracts/manager/FoodManager.sol\":2240:2245  _name */\n      dup8\n        /* \"contracts/manager/FoodManager.sol\":2247:2259  _description */\n      dup8\n        /* \"contracts/manager/FoodManager.sol\":2261:2272  _categoryId */\n      dup8\n        /* \"contracts/manager/FoodManager.sol\":2274:2283  _imageUrl */\n      dup8\n        /* \"contracts/manager/FoodManager.sol\":2219:2284  FoodCreated(_foodId, _name, _description, _categoryId, _imageUrl) */\n      mload(0x40)\n      tag_303\n      swap6\n      swap5\n      swap4\n      swap3\n      swap2\n      swap1\n      tag_239\n      jump\t// in\n    tag_303:\n      mload(0x40)\n      dup1\n      swap2\n      sub\n      swap1\n      log1\n        /* \"contracts/manager/FoodManager.sol\":932:2291  {... */\n      pop\n        /* \"contracts/manager/FoodManager.sol\":686:2291  function createFood(... */\n      pop\n      pop\n      pop\n      pop\n      pop\n      pop\n      jump\t// out\n        /* \"contracts/manager/FoodManager.sol\":6365:6871  function getAllFoods()... */\n    tag_88:\n        /* \"contracts/manager/FoodManager.sol\":6452:6476  FoodWithDetails[] memory */\n      0x60\n        /* \"contracts/manager/FoodManager.sol\":6492:6525  FoodWithDetails[] memory allFoods */\n      0x00\n        /* \"contracts/manager/FoodManager.sol\":6563:6570  foodIds */\n      0x07\n        /* \"contracts/manager/FoodManager.sol\":6563:6577  foodIds.length */\n      dup1\n      sload\n      swap1\n      pop\n        /* \"contracts/manager/FoodManager.sol\":6528:6587  new FoodWithDetails[](... */\n      0xffffffffffffffff\n      dup2\n      gt\n      iszero\n      tag_305\n      jumpi\n      tag_306\n      tag_307\n      jump\t// in\n    tag_306:\n    tag_305:\n      mload(0x40)\n      swap1\n      dup1\n      dup3\n      mstore\n      dup1\n      0x20\n      mul\n      0x20\n      add\n      dup3\n      add\n      0x40\n      mstore\n      dup1\n      iszero\n      tag_308\n      jumpi\n      dup2\n      0x20\n      add\n    tag_309:\n      tag_310\n      tag_311\n      jump\t// in\n    tag_310:\n      dup2\n      mstore\n      0x20\n      add\n      swap1\n      0x01\n      swap1\n      sub\n      swap1\n      dup2\n      tag_309\n      jumpi\n      swap1\n      pop\n    tag_308:\n      pop\n        /* \"contracts/manager/FoodManager.sol\":6492:6587  FoodWithDetails[] memory allFoods = new FoodWithDetails[](... */\n      swap1\n      pop\n        /* \"contracts/manager/FoodManager.sol\":6602:6611  uint256 i */\n      0x00\n        /* \"contracts/manager/FoodManager.sol\":6614:6615  0 */\n      0x00\n        /* \"contracts/manager/FoodManager.sol\":6602:6615  uint256 i = 0 */\n      swap1\n      pop\n        /* \"contracts/manager/FoodManager.sol\":6597:6840  for (uint256 i = 0; i < foodIds.length; i++) {... */\n    tag_312:\n        /* \"contracts/manager/FoodManager.sol\":6621:6628  foodIds */\n      0x07\n        /* \"contracts/manager/FoodManager.sol\":6621:6635  foodIds.length */\n      dup1\n      sload\n      swap1\n      pop\n        /* \"contracts/manager/FoodManager.sol\":6617:6618  i */\n      dup2\n        /* \"contracts/manager/FoodManager.sol\":6617:6635  i < foodIds.length */\n      lt\n        /* \"contracts/manager/FoodManager.sol\":6597:6840  for (uint256 i = 0; i < foodIds.length; i++) {... */\n      iszero\n      tag_313\n      jumpi\n        /* \"contracts/manager/FoodManager.sol\":6656:6670  uint256 foodId */\n      0x00\n        /* \"contracts/manager/FoodManager.sol\":6673:6680  foodIds */\n      0x07\n        /* \"contracts/manager/FoodManager.sol\":6681:6682  i */\n      dup3\n        /* \"contracts/manager/FoodManager.sol\":6673:6683  foodIds[i] */\n      dup2\n      sload\n      dup2\n      lt\n      tag_315\n      jumpi\n      tag_316\n      tag_108\n      jump\t// in\n    tag_316:\n    tag_315:\n      swap1\n      0x00\n      mstore\n      keccak256(0x00, 0x20)\n      add\n      sload\n        /* \"contracts/manager/FoodManager.sol\":6656:6683  uint256 foodId = foodIds[i] */\n      swap1\n      pop\n        /* \"contracts/manager/FoodManager.sol\":6711:6829  FoodWithDetails({... */\n      mload(0x40)\n      dup1\n      0x40\n      add\n      0x40\n      mstore\n      dup1\n        /* \"contracts/manager/FoodManager.sol\":6751:6756  foods */\n      0x05\n        /* \"contracts/manager/FoodManager.sol\":6751:6764  foods[foodId] */\n      0x00\n        /* \"contracts/manager/FoodManager.sol\":6757:6763  foodId */\n      dup5\n        /* \"contracts/manager/FoodManager.sol\":6751:6764  foods[foodId] */\n      dup2\n      mstore\n      0x20\n      add\n      swap1\n      dup2\n      mstore\n      0x20\n      add\n      0x00\n      keccak256\n        /* \"contracts/manager/FoodManager.sol\":6711:6829  FoodWithDetails({... */\n      mload(0x40)\n      dup1\n      0x0100\n      add\n      0x40\n      mstore\n      swap1\n      dup2\n      0x00\n      dup3\n      add\n      sload\n      dup2\n      mstore\n      0x20\n      add\n      0x01\n      dup3\n      add\n      dup1\n      sload\n      tag_318\n      swap1\n      tag_127\n      jump\t// in\n    tag_318:\n      dup1\n      0x1f\n      add\n      0x20\n      dup1\n      swap2\n      div\n      mul\n      0x20\n      add\n      mload(0x40)\n      swap1\n      dup2\n      add\n      0x40\n      mstore\n      dup1\n      swap3\n      swap2\n      swap1\n      dup2\n      dup2\n      mstore\n      0x20\n      add\n      dup3\n      dup1\n      sload\n      tag_319\n      swap1\n      tag_127\n      jump\t// in\n    tag_319:\n      dup1\n      iszero\n      tag_320\n      jumpi\n      dup1\n      0x1f\n      lt\n      tag_321\n      jumpi\n      0x0100\n      dup1\n      dup4\n      sload\n      div\n      mul\n      dup4\n      mstore\n      swap2\n      0x20\n      add\n      swap2\n      jump(tag_320)\n    tag_321:\n      dup3\n      add\n      swap2\n      swap1\n      0x00\n      mstore\n      keccak256(0x00, 0x20)\n      swap1\n    tag_322:\n      dup2\n      sload\n      dup2\n      mstore\n      swap1\n      0x01\n      add\n      swap1\n      0x20\n      add\n      dup1\n      dup4\n      gt\n      tag_322\n      jumpi\n      dup3\n      swap1\n      sub\n      0x1f\n      and\n      dup3\n      add\n      swap2\n    tag_320:\n      pop\n      pop\n      pop\n      pop\n      pop\n      dup2\n      mstore\n      0x20\n      add\n      0x02\n      dup3\n      add\n      dup1\n      sload\n      tag_323\n      swap1\n      tag_127\n      jump\t// in\n    tag_323:\n      dup1\n      0x1f\n      add\n      0x20\n      dup1\n      swap2\n      div\n      mul\n      0x20\n      add\n      mload(0x40)\n      swap1\n      dup2\n      add\n      0x40\n      mstore\n      dup1\n      swap3\n      swap2\n      swap1\n      dup2\n      dup2\n      mstore\n      0x20\n      add\n      dup3\n      dup1\n      sload\n      tag_324\n      swap1\n      tag_127\n      jump\t// in\n    tag_324:\n      dup1\n      iszero\n      tag_325\n      jumpi\n      dup1\n      0x1f\n      lt\n      tag_326\n      jumpi\n      0x0100\n      dup1\n      dup4\n      sload\n      div\n      mul\n      dup4\n      mstore\n      swap2\n      0x20\n      add\n      swap2\n      jump(tag_325)\n    tag_326:\n      dup3\n      add\n      swap2\n      swap1\n      0x00\n      mstore\n      keccak256(0x00, 0x20)\n      swap1\n    tag_327:\n      dup2\n      sload\n      dup2\n      mstore\n      swap1\n      0x01\n      add\n      swap1\n      0x20\n      add\n      dup1\n      dup4\n      gt\n      tag_327\n      jumpi\n      dup3\n      swap1\n      sub\n      0x1f\n      and\n      dup3\n      add\n      swap2\n    tag_325:\n      pop\n      pop\n      pop\n      pop\n      pop\n      dup2\n      mstore\n      0x20\n      add\n      0x03\n      dup3\n      add\n      sload\n      dup2\n      mstore\n      0x20\n      add\n      0x04\n      dup3\n      add\n      dup1\n      sload\n      dup1\n      0x20\n      mul\n      0x20\n      add\n      mload(0x40)\n      swap1\n      dup2\n      add\n      0x40\n      mstore\n      dup1\n      swap3\n      swap2\n      swap1\n      dup2\n      dup2\n      mstore\n      0x20\n      add\n      0x00\n      swap1\n    tag_328:\n      dup3\n      dup3\n      lt\n      iszero\n      tag_329\n      jumpi\n      dup4\n      dup3\n      swap1\n      0x00\n      mstore\n      keccak256(0x00, 0x20)\n      add\n      dup1\n      sload\n      tag_331\n      swap1\n      tag_127\n      jump\t// in\n    tag_331:\n      dup1\n      0x1f\n      add\n      0x20\n      dup1\n      swap2\n      div\n      mul\n      0x20\n      add\n      mload(0x40)\n      swap1\n      dup2\n      add\n      0x40\n      mstore\n      dup1\n      swap3\n      swap2\n      swap1\n      dup2\n      dup2\n      mstore\n      0x20\n      add\n      dup3\n      dup1\n      sload\n      tag_332\n      swap1\n      tag_127\n      jump\t// in\n    tag_332:\n      dup1\n      iszero\n      tag_333\n      jumpi\n      dup1\n      0x1f\n      lt\n      tag_334\n      jumpi\n      0x0100\n      dup1\n      dup4\n      sload\n      div\n      mul\n      dup4\n      mstore\n      swap2\n      0x20\n      add\n      swap2\n      jump(tag_333)\n    tag_334:\n      dup3\n      add\n      swap2\n      swap1\n      0x00\n      mstore\n      keccak256(0x00, 0x20)\n      swap1\n    tag_335:\n      dup2\n      sload\n      dup2\n      mstore\n      swap1\n      0x01\n      add\n      swap1\n      0x20\n      add\n      dup1\n      dup4\n      gt\n      tag_335\n      jumpi\n      dup3\n      swap1\n      sub\n      0x1f\n      and\n      dup3\n      add\n      swap2\n    tag_333:\n      pop\n      pop\n      pop\n      pop\n      pop\n      dup2\n      mstore\n      0x20\n      add\n      swap1\n      0x01\n      add\n      swap1\n      jump(tag_328)\n    tag_329:\n      pop\n      pop\n      pop\n      pop\n      dup2\n      mstore\n      0x20\n      add\n      0x05\n      dup3\n      add\n      sload\n      dup2\n      mstore\n      0x20\n      add\n      0x06\n      dup3\n      add\n      sload\n      dup2\n      mstore\n      0x20\n      add\n      0x07\n      dup3\n      add\n      sload\n      dup2\n      mstore\n      pop\n      pop\n      dup2\n      mstore\n      0x20\n      add\n        /* \"contracts/manager/FoodManager.sol\":6795:6806  foodDetails */\n      0x06\n        /* \"contracts/manager/FoodManager.sol\":6795:6814  foodDetails[foodId] */\n      0x00\n        /* \"contracts/manager/FoodManager.sol\":6807:6813  foodId */\n      dup5\n        /* \"contracts/manager/FoodManager.sol\":6795:6814  foodDetails[foodId] */\n      dup2\n      mstore\n      0x20\n      add\n      swap1\n      dup2\n      mstore\n      0x20\n      add\n      0x00\n      keccak256\n        /* \"contracts/manager/FoodManager.sol\":6711:6829  FoodWithDetails({... */\n      dup1\n      sload\n      dup1\n      0x20\n      mul\n      0x20\n      add\n      mload(0x40)\n      swap1\n      dup2\n      add\n      0x40\n      mstore\n      dup1\n      swap3\n      swap2\n      swap1\n      dup2\n      dup2\n      mstore\n      0x20\n      add\n      0x00\n      swap1\n    tag_336:\n      dup3\n      dup3\n      lt\n      iszero\n      tag_337\n      jumpi\n      dup4\n      dup3\n      swap1\n      0x00\n      mstore\n      keccak256(0x00, 0x20)\n      swap1\n      0x04\n      mul\n      add\n      mload(0x40)\n      dup1\n      0x80\n      add\n      0x40\n      mstore\n      swap1\n      dup2\n      0x00\n      dup3\n      add\n      sload\n      dup2\n      mstore\n      0x20\n      add\n      0x01\n      dup3\n      add\n      dup1\n      sload\n      tag_339\n      swap1\n      tag_127\n      jump\t// in\n    tag_339:\n      dup1\n      0x1f\n      add\n      0x20\n      dup1\n      swap2\n      div\n      mul\n      0x20\n      add\n      mload(0x40)\n      swap1\n      dup2\n      add\n      0x40\n      mstore\n      dup1\n      swap3\n      swap2\n      swap1\n      dup2\n      dup2\n      mstore\n      0x20\n      add\n      dup3\n      dup1\n      sload\n      tag_340\n      swap1\n      tag_127\n      jump\t// in\n    tag_340:\n      dup1\n      iszero\n      tag_341\n      jumpi\n      dup1\n      0x1f\n      lt\n      tag_342\n      jumpi\n      0x0100\n      dup1\n      dup4\n      sload\n      div\n      mul\n      dup4\n      mstore\n      swap2\n      0x20\n      add\n      swap2\n      jump(tag_341)\n    tag_342:\n      dup3\n      add\n      swap2\n      swap1\n      0x00\n      mstore\n      keccak256(0x00, 0x20)\n      swap1\n    tag_343:\n      dup2\n      sload\n      dup2\n      mstore\n      swap1\n      0x01\n      add\n      swap1\n      0x20\n      add\n      dup1\n      dup4\n      gt\n      tag_343\n      jumpi\n      dup3\n      swap1\n      sub\n      0x1f\n      and\n      dup3\n      add\n      swap2\n    tag_341:\n      pop\n      pop\n      pop\n      pop\n      pop\n      dup2\n      mstore\n      0x20\n      add\n      0x02\n      dup3\n      add\n      sload\n      dup2\n      mstore\n      0x20\n      add\n      0x03\n      dup3\n      add\n      sload\n      dup2\n      mstore\n      pop\n      pop\n      dup2\n      mstore\n      0x20\n      add\n      swap1\n      0x01\n      add\n      swap1\n      jump(tag_336)\n    tag_337:\n      pop\n      pop\n      pop\n      pop\n      dup2\n      mstore\n      pop\n        /* \"contracts/manager/FoodManager.sol\":6697:6705  allFoods */\n      dup4\n        /* \"contracts/manager/FoodManager.sol\":6706:6707  i */\n      dup4\n        /* \"contracts/manager/FoodManager.sol\":6697:6708  allFoods[i] */\n      dup2\n      mload\n      dup2\n      lt\n      tag_344\n      jumpi\n      tag_345\n      tag_108\n      jump\t// in\n    tag_345:\n    tag_344:\n      0x20\n      mul\n      0x20\n      add\n      add\n        /* \"contracts/manager/FoodManager.sol\":6697:6829  allFoods[i] = FoodWithDetails({... */\n      dup2\n      swap1\n      mstore\n      pop\n        /* \"contracts/manager/FoodManager.sol\":6642:6840  {... */\n      pop\n        /* \"contracts/manager/FoodManager.sol\":6637:6640  i++ */\n      dup1\n      dup1\n      0x01\n      add\n      swap2\n      pop\n      pop\n        /* \"contracts/manager/FoodManager.sol\":6597:6840  for (uint256 i = 0; i < foodIds.length; i++) {... */\n      jump(tag_312)\n    tag_313:\n      pop\n        /* \"contracts/manager/FoodManager.sol\":6856:6864  allFoods */\n      dup1\n        /* \"contracts/manager/FoodManager.sol\":6849:6864  return allFoods */\n      swap2\n      pop\n      pop\n        /* \"contracts/manager/FoodManager.sol\":6365:6871  function getAllFoods()... */\n      swap1\n      jump\t// out\n        /* \"contracts/manager/FoodManager.sol\":4213:5030  function updateFoodDetail(... */\n    tag_94:\n        /* \"contracts/manager/FoodManager.sol\":4402:4403  0 */\n      0x00\n        /* \"contracts/manager/FoodManager.sol\":4378:4383  foods */\n      0x05\n        /* \"contracts/manager/FoodManager.sol\":4378:4391  foods[foodId] */\n      0x00\n        /* \"contracts/manager/FoodManager.sol\":4384:4390  foodId */\n      dup6\n        /* \"contracts/manager/FoodManager.sol\":4378:4391  foods[foodId] */\n      dup2\n      mstore\n      0x20\n      add\n      swap1\n      dup2\n      mstore\n      0x20\n      add\n      0x00\n      keccak256\n        /* \"contracts/manager/FoodManager.sol\":4378:4398  foods[foodId].foodId */\n      0x00\n      add\n      sload\n        /* \"contracts/manager/FoodManager.sol\":4378:4403  foods[foodId].foodId != 0 */\n      sub\n        /* \"contracts/manager/FoodManager.sol\":4370:4427  require(foods[foodId].foodId != 0, \"Food does not exist\") */\n      tag_347\n      jumpi\n      mload(0x40)\n      0x08c379a000000000000000000000000000000000000000000000000000000000\n      dup2\n      mstore\n      0x04\n      add\n      tag_348\n      swap1\n      tag_125\n      jump\t// in\n    tag_348:\n      mload(0x40)\n      dup1\n      swap2\n      sub\n      swap1\n      revert\n    tag_347:\n        /* \"contracts/manager/FoodManager.sol\":4437:4472  FoodDetail[] storage foodDetailList */\n      0x00\n        /* \"contracts/manager/FoodManager.sol\":4475:4486  foodDetails */\n      0x06\n        /* \"contracts/manager/FoodManager.sol\":4475:4494  foodDetails[foodId] */\n      0x00\n        /* \"contracts/manager/FoodManager.sol\":4487:4493  foodId */\n      dup6\n        /* \"contracts/manager/FoodManager.sol\":4475:4494  foodDetails[foodId] */\n      dup2\n      mstore\n      0x20\n      add\n      swap1\n      dup2\n      mstore\n      0x20\n      add\n      0x00\n      keccak256\n        /* \"contracts/manager/FoodManager.sol\":4437:4494  FoodDetail[] storage foodDetailList = foodDetails[foodId] */\n      swap1\n      pop\n        /* \"contracts/manager/FoodManager.sol\":4504:4514  bool found */\n      0x00\n        /* \"contracts/manager/FoodManager.sol\":4517:4522  false */\n      0x00\n        /* \"contracts/manager/FoodManager.sol\":4504:4522  bool found = false */\n      swap1\n      pop\n        /* \"contracts/manager/FoodManager.sol\":4537:4546  uint256 i */\n      0x00\n        /* \"contracts/manager/FoodManager.sol\":4549:4550  0 */\n      0x00\n        /* \"contracts/manager/FoodManager.sol\":4537:4550  uint256 i = 0 */\n      swap1\n      pop\n        /* \"contracts/manager/FoodManager.sol\":4532:4971  for (uint256 i = 0; i < foodDetailList.length; i++) {... */\n    tag_349:\n        /* \"contracts/manager/FoodManager.sol\":4556:4570  foodDetailList */\n      dup3\n        /* \"contracts/manager/FoodManager.sol\":4556:4577  foodDetailList.length */\n      dup1\n      sload\n      swap1\n      pop\n        /* \"contracts/manager/FoodManager.sol\":4552:4553  i */\n      dup2\n        /* \"contracts/manager/FoodManager.sol\":4552:4577  i < foodDetailList.length */\n      lt\n        /* \"contracts/manager/FoodManager.sol\":4532:4971  for (uint256 i = 0; i < foodDetailList.length; i++) {... */\n      iszero\n      tag_350\n      jumpi\n        /* \"contracts/manager/FoodManager.sol\":4636:4648  foodDetailId */\n      dup5\n        /* \"contracts/manager/FoodManager.sol\":4602:4616  foodDetailList */\n      dup4\n        /* \"contracts/manager/FoodManager.sol\":4617:4618  i */\n      dup3\n        /* \"contracts/manager/FoodManager.sol\":4602:4619  foodDetailList[i] */\n      dup2\n      sload\n      dup2\n      lt\n      tag_352\n      jumpi\n      tag_353\n      tag_108\n      jump\t// in\n    tag_353:\n    tag_352:\n      swap1\n      0x00\n      mstore\n      keccak256(0x00, 0x20)\n      swap1\n      0x04\n      mul\n      add\n        /* \"contracts/manager/FoodManager.sol\":4602:4632  foodDetailList[i].foodDetailId */\n      0x00\n      add\n      sload\n        /* \"contracts/manager/FoodManager.sol\":4602:4648  foodDetailList[i].foodDetailId == foodDetailId */\n      sub\n        /* \"contracts/manager/FoodManager.sol\":4598:4961  if (foodDetailList[i].foodDetailId == foodDetailId) {... */\n      tag_355\n      jumpi\n        /* \"contracts/manager/FoodManager.sol\":4693:4702  newDetail */\n      dup4\n        /* \"contracts/manager/FoodManager.sol\":4693:4707  newDetail.size */\n      0x00\n      add\n      mload\n        /* \"contracts/manager/FoodManager.sol\":4668:4682  foodDetailList */\n      dup4\n        /* \"contracts/manager/FoodManager.sol\":4683:4684  i */\n      dup3\n        /* \"contracts/manager/FoodManager.sol\":4668:4685  foodDetailList[i] */\n      dup2\n      sload\n      dup2\n      lt\n      tag_356\n      jumpi\n      tag_357\n      tag_108\n      jump\t// in\n    tag_357:\n    tag_356:\n      swap1\n      0x00\n      mstore\n      keccak256(0x00, 0x20)\n      swap1\n      0x04\n      mul\n      add\n        /* \"contracts/manager/FoodManager.sol\":4668:4690  foodDetailList[i].size */\n      0x01\n      add\n        /* \"contracts/manager/FoodManager.sol\":4668:4707  foodDetailList[i].size = newDetail.size */\n      swap1\n      dup2\n      tag_359\n      swap2\n      swap1\n      tag_194\n      jump\t// in\n    tag_359:\n      pop\n        /* \"contracts/manager/FoodManager.sol\":4754:4763  newDetail */\n      dup4\n        /* \"contracts/manager/FoodManager.sol\":4754:4772  newDetail.quantity */\n      0x20\n      add\n      mload\n        /* \"contracts/manager/FoodManager.sol\":4725:4739  foodDetailList */\n      dup4\n        /* \"contracts/manager/FoodManager.sol\":4740:4741  i */\n      dup3\n        /* \"contracts/manager/FoodManager.sol\":4725:4742  foodDetailList[i] */\n      dup2\n      sload\n      dup2\n      lt\n      tag_360\n      jumpi\n      tag_361\n      tag_108\n      jump\t// in\n    tag_361:\n    tag_360:\n      swap1\n      0x00\n      mstore\n      keccak256(0x00, 0x20)\n      swap1\n      0x04\n      mul\n      add\n        /* \"contracts/manager/FoodManager.sol\":4725:4751  foodDetailList[i].quantity */\n      0x02\n      add\n        /* \"contracts/manager/FoodManager.sol\":4725:4772  foodDetailList[i].quantity = newDetail.quantity */\n      dup2\n      swap1\n      sstore\n      pop\n        /* \"contracts/manager/FoodManager.sol\":4816:4825  newDetail */\n      dup4\n        /* \"contracts/manager/FoodManager.sol\":4816:4831  newDetail.price */\n      0x40\n      add\n      mload\n        /* \"contracts/manager/FoodManager.sol\":4790:4804  foodDetailList */\n      dup4\n        /* \"contracts/manager/FoodManager.sol\":4805:4806  i */\n      dup3\n        /* \"contracts/manager/FoodManager.sol\":4790:4807  foodDetailList[i] */\n      dup2\n      sload\n      dup2\n      lt\n      tag_363\n      jumpi\n      tag_364\n      tag_108\n      jump\t// in\n    tag_364:\n    tag_363:\n      swap1\n      0x00\n      mstore\n      keccak256(0x00, 0x20)\n      swap1\n      0x04\n      mul\n      add\n        /* \"contracts/manager/FoodManager.sol\":4790:4813  foodDetailList[i].price */\n      0x03\n      add\n        /* \"contracts/manager/FoodManager.sol\":4790:4831  foodDetailList[i].price = newDetail.price */\n      dup2\n      swap1\n      sstore\n      pop\n        /* \"contracts/manager/FoodManager.sol\":4857:4861  true */\n      0x01\n        /* \"contracts/manager/FoodManager.sol\":4849:4861  found = true */\n      swap2\n      pop\n        /* \"contracts/manager/FoodManager.sol\":4884:4923  FoodDetailUpdated(foodId, foodDetailId) */\n      0xe29e1e70959f0c301943d01c4bd294592a2105bc81e9b2523c4b1d7f7d1f393f\n        /* \"contracts/manager/FoodManager.sol\":4902:4908  foodId */\n      dup7\n        /* \"contracts/manager/FoodManager.sol\":4910:4922  foodDetailId */\n      dup7\n        /* \"contracts/manager/FoodManager.sol\":4884:4923  FoodDetailUpdated(foodId, foodDetailId) */\n      mload(0x40)\n      tag_366\n      swap3\n      swap2\n      swap1\n      tag_202\n      jump\t// in\n    tag_366:\n      mload(0x40)\n      dup1\n      swap2\n      sub\n      swap1\n      log1\n        /* \"contracts/manager/FoodManager.sol\":4941:4946  break */\n      jump(tag_350)\n        /* \"contracts/manager/FoodManager.sol\":4598:4961  if (foodDetailList[i].foodDetailId == foodDetailId) {... */\n    tag_355:\n        /* \"contracts/manager/FoodManager.sol\":4579:4582  i++ */\n      dup1\n      dup1\n      0x01\n      add\n      swap2\n      pop\n      pop\n        /* \"contracts/manager/FoodManager.sol\":4532:4971  for (uint256 i = 0; i < foodDetailList.length; i++) {... */\n      jump(tag_349)\n    tag_350:\n      pop\n        /* \"contracts/manager/FoodManager.sol\":4988:4993  found */\n      dup1\n        /* \"contracts/manager/FoodManager.sol\":4980:5023  require(found, \"FoodDetail does not exist\") */\n      tag_367\n      jumpi\n      mload(0x40)\n      0x08c379a000000000000000000000000000000000000000000000000000000000\n      dup2\n      mstore\n      0x04\n      add\n      tag_368\n      swap1\n      tag_205\n      jump\t// in\n    tag_368:\n      mload(0x40)\n      dup1\n      swap2\n      sub\n      swap1\n      revert\n    tag_367:\n        /* \"contracts/manager/FoodManager.sol\":4360:5030  {... */\n      pop\n      pop\n        /* \"contracts/manager/FoodManager.sol\":4213:5030  function updateFoodDetail(... */\n      pop\n      pop\n      pop\n      jump\t// out\n        /* \"contracts/manager/FoodManager.sol\":2976:3519  function deleteFood(uint256 foodId) external override {... */\n    tag_97:\n        /* \"contracts/manager/FoodManager.sol\":3072:3073  0 */\n      0x00\n        /* \"contracts/manager/FoodManager.sol\":3048:3053  foods */\n      0x05\n        /* \"contracts/manager/FoodManager.sol\":3048:3061  foods[foodId] */\n      0x00\n        /* \"contracts/manager/FoodManager.sol\":3054:3060  foodId */\n      dup4\n        /* \"contracts/manager/FoodManager.sol\":3048:3061  foods[foodId] */\n      dup2\n      mstore\n      0x20\n      add\n      swap1\n      dup2\n      mstore\n      0x20\n      add\n      0x00\n      keccak256\n        /* \"contracts/manager/FoodManager.sol\":3048:3068  foods[foodId].foodId */\n      0x00\n      add\n      sload\n        /* \"contracts/manager/FoodManager.sol\":3048:3073  foods[foodId].foodId != 0 */\n      sub\n        /* \"contracts/manager/FoodManager.sol\":3040:3097  require(foods[foodId].foodId != 0, \"Food does not exist\") */\n      tag_370\n      jumpi\n      mload(0x40)\n      0x08c379a000000000000000000000000000000000000000000000000000000000\n      dup2\n      mstore\n      0x04\n      add\n      tag_371\n      swap1\n      tag_125\n      jump\t// in\n    tag_371:\n      mload(0x40)\n      dup1\n      swap2\n      sub\n      swap1\n      revert\n    tag_370:\n        /* \"contracts/manager/FoodManager.sol\":3114:3119  foods */\n      0x05\n        /* \"contracts/manager/FoodManager.sol\":3114:3127  foods[foodId] */\n      0x00\n        /* \"contracts/manager/FoodManager.sol\":3120:3126  foodId */\n      dup3\n        /* \"contracts/manager/FoodManager.sol\":3114:3127  foods[foodId] */\n      dup2\n      mstore\n      0x20\n      add\n      swap1\n      dup2\n      mstore\n      0x20\n      add\n      0x00\n      keccak256\n      0x00\n        /* \"contracts/manager/FoodManager.sol\":3107:3127  delete foods[foodId] */\n      0x00\n      dup3\n      add\n      0x00\n      swap1\n      sstore\n      0x01\n      dup3\n      add\n      0x00\n      tag_372\n      swap2\n      swap1\n      tag_200\n      jump\t// in\n    tag_372:\n      0x02\n      dup3\n      add\n      0x00\n      tag_373\n      swap2\n      swap1\n      tag_200\n      jump\t// in\n    tag_373:\n      0x03\n      dup3\n      add\n      0x00\n      swap1\n      sstore\n      0x04\n      dup3\n      add\n      0x00\n      tag_374\n      swap2\n      swap1\n      tag_375\n      jump\t// in\n    tag_374:\n      0x05\n      dup3\n      add\n      0x00\n      swap1\n      sstore\n      0x06\n      dup3\n      add\n      0x00\n      swap1\n      sstore\n      0x07\n      dup3\n      add\n      0x00\n      swap1\n      sstore\n      pop\n      pop\n        /* \"contracts/manager/FoodManager.sol\":3191:3202  foodDetails */\n      0x06\n        /* \"contracts/manager/FoodManager.sol\":3191:3210  foodDetails[foodId] */\n      0x00\n        /* \"contracts/manager/FoodManager.sol\":3203:3209  foodId */\n      dup3\n        /* \"contracts/manager/FoodManager.sol\":3191:3210  foodDetails[foodId] */\n      dup2\n      mstore\n      0x20\n      add\n      swap1\n      dup2\n      mstore\n      0x20\n      add\n      0x00\n      keccak256\n      0x00\n        /* \"contracts/manager/FoodManager.sol\":3184:3210  delete foodDetails[foodId] */\n      tag_376\n      swap2\n      swap1\n      tag_377\n      jump\t// in\n    tag_376:\n        /* \"contracts/manager/FoodManager.sol\":3262:3271  uint256 i */\n      0x00\n        /* \"contracts/manager/FoodManager.sol\":3274:3275  0 */\n      0x00\n        /* \"contracts/manager/FoodManager.sol\":3262:3275  uint256 i = 0 */\n      swap1\n      pop\n        /* \"contracts/manager/FoodManager.sol\":3257:3479  for (uint256 i = 0; i < foodIds.length; i++) {... */\n    tag_378:\n        /* \"contracts/manager/FoodManager.sol\":3281:3288  foodIds */\n      0x07\n        /* \"contracts/manager/FoodManager.sol\":3281:3295  foodIds.length */\n      dup1\n      sload\n      swap1\n      pop\n        /* \"contracts/manager/FoodManager.sol\":3277:3278  i */\n      dup2\n        /* \"contracts/manager/FoodManager.sol\":3277:3295  i < foodIds.length */\n      lt\n        /* \"contracts/manager/FoodManager.sol\":3257:3479  for (uint256 i = 0; i < foodIds.length; i++) {... */\n      iszero\n      tag_379\n      jumpi\n        /* \"contracts/manager/FoodManager.sol\":3334:3340  foodId */\n      dup2\n        /* \"contracts/manager/FoodManager.sol\":3320:3327  foodIds */\n      0x07\n        /* \"contracts/manager/FoodManager.sol\":3328:3329  i */\n      dup3\n        /* \"contracts/manager/FoodManager.sol\":3320:3330  foodIds[i] */\n      dup2\n      sload\n      dup2\n      lt\n      tag_381\n      jumpi\n      tag_382\n      tag_108\n      jump\t// in\n    tag_382:\n    tag_381:\n      swap1\n      0x00\n      mstore\n      keccak256(0x00, 0x20)\n      add\n      sload\n        /* \"contracts/manager/FoodManager.sol\":3320:3340  foodIds[i] == foodId */\n      sub\n        /* \"contracts/manager/FoodManager.sol\":3316:3469  if (foodIds[i] == foodId) {... */\n      tag_384\n      jumpi\n        /* \"contracts/manager/FoodManager.sol\":3373:3380  foodIds */\n      0x07\n        /* \"contracts/manager/FoodManager.sol\":3398:3399  1 */\n      0x01\n        /* \"contracts/manager/FoodManager.sol\":3381:3388  foodIds */\n      0x07\n        /* \"contracts/manager/FoodManager.sol\":3381:3395  foodIds.length */\n      dup1\n      sload\n      swap1\n      pop\n        /* \"contracts/manager/FoodManager.sol\":3381:3399  foodIds.length - 1 */\n      tag_385\n      swap2\n      swap1\n      tag_181\n      jump\t// in\n    tag_385:\n        /* \"contracts/manager/FoodManager.sol\":3373:3400  foodIds[foodIds.length - 1] */\n      dup2\n      sload\n      dup2\n      lt\n      tag_386\n      jumpi\n      tag_387\n      tag_108\n      jump\t// in\n    tag_387:\n    tag_386:\n      swap1\n      0x00\n      mstore\n      keccak256(0x00, 0x20)\n      add\n      sload\n        /* \"contracts/manager/FoodManager.sol\":3360:3367  foodIds */\n      0x07\n        /* \"contracts/manager/FoodManager.sol\":3368:3369  i */\n      dup3\n        /* \"contracts/manager/FoodManager.sol\":3360:3370  foodIds[i] */\n      dup2\n      sload\n      dup2\n      lt\n      tag_389\n      jumpi\n      tag_390\n      tag_108\n      jump\t// in\n    tag_390:\n    tag_389:\n      swap1\n      0x00\n      mstore\n      keccak256(0x00, 0x20)\n      add\n        /* \"contracts/manager/FoodManager.sol\":3360:3400  foodIds[i] = foodIds[foodIds.length - 1] */\n      dup2\n      swap1\n      sstore\n      pop\n        /* \"contracts/manager/FoodManager.sol\":3418:3425  foodIds */\n      0x07\n        /* \"contracts/manager/FoodManager.sol\":3418:3431  foodIds.pop() */\n      dup1\n      sload\n      dup1\n      tag_392\n      jumpi\n      tag_393\n      tag_197\n      jump\t// in\n    tag_393:\n    tag_392:\n      0x01\n      swap1\n      sub\n      dup2\n      dup2\n      swap1\n      0x00\n      mstore\n      keccak256(0x00, 0x20)\n      add\n      0x00\n      swap1\n      sstore\n      swap1\n      sstore\n        /* \"contracts/manager/FoodManager.sol\":3449:3454  break */\n      jump(tag_379)\n        /* \"contracts/manager/FoodManager.sol\":3316:3469  if (foodIds[i] == foodId) {... */\n    tag_384:\n        /* \"contracts/manager/FoodManager.sol\":3297:3300  i++ */\n      dup1\n      dup1\n      0x01\n      add\n      swap2\n      pop\n      pop\n        /* \"contracts/manager/FoodManager.sol\":3257:3479  for (uint256 i = 0; i < foodIds.length; i++) {... */\n      jump(tag_378)\n    tag_379:\n      pop\n        /* \"contracts/manager/FoodManager.sol\":3493:3512  FoodDeleted(foodId) */\n      0x4d4e7c43d5805933523b1317fdd5acb7517962d3e9f52834633b9f0149477295\n        /* \"contracts/manager/FoodManager.sol\":3505:3511  foodId */\n      dup2\n        /* \"contracts/manager/FoodManager.sol\":3493:3512  FoodDeleted(foodId) */\n      mload(0x40)\n      tag_395\n      swap2\n      swap1\n      tag_36\n      jump\t// in\n    tag_395:\n      mload(0x40)\n      dup1\n      swap2\n      sub\n      swap1\n      log1\n        /* \"contracts/manager/FoodManager.sol\":2976:3519  function deleteFood(uint256 foodId) external override {... */\n      pop\n      jump\t// out\n        /* \"contracts/manager/FoodManager.sol\":271:310  ICategoryManager public categoryManager */\n    tag_99:\n      0x02\n      0x00\n      swap1\n      sload\n      swap1\n      0x0100\n      exp\n      swap1\n      div\n      0xffffffffffffffffffffffffffffffffffffffff\n      and\n      dup2\n      jump\t// out\n    tag_121:\n      mload(0x40)\n      dup1\n      0x0100\n      add\n      0x40\n      mstore\n      dup1\n      0x00\n      dup2\n      mstore\n      0x20\n      add\n      0x60\n      dup2\n      mstore\n      0x20\n      add\n      0x60\n      dup2\n      mstore\n      0x20\n      add\n      0x00\n      dup2\n      mstore\n      0x20\n      add\n      0x60\n      dup2\n      mstore\n      0x20\n      add\n      0x00\n      dup2\n      mstore\n      0x20\n      add\n      0x00\n      dup2\n      mstore\n      0x20\n      add\n      0x00\n      dup2\n      mstore\n      pop\n      swap1\n      jump\t// out\n    tag_146:\n      mload(0x40)\n      dup1\n      0x80\n      add\n      0x40\n      mstore\n      dup1\n      0x00\n      dup2\n      mstore\n      0x20\n      add\n      0x60\n      dup2\n      mstore\n      0x20\n      add\n      0x00\n      dup2\n      mstore\n      0x20\n      add\n      0x00\n      dup2\n      mstore\n      pop\n      swap1\n      jump\t// out\n    tag_200:\n      pop\n      dup1\n      sload\n      tag_396\n      swap1\n      tag_127\n      jump\t// in\n    tag_396:\n      0x00\n      dup3\n      sstore\n      dup1\n      0x1f\n      lt\n      tag_398\n      jumpi\n      pop\n      jump(tag_397)\n    tag_398:\n      0x1f\n      add\n      0x20\n      swap1\n      div\n      swap1\n      0x00\n      mstore\n      keccak256(0x00, 0x20)\n      swap1\n      dup2\n      add\n      swap1\n      tag_399\n      swap2\n      swap1\n      tag_400\n      jump\t// in\n    tag_399:\n    tag_397:\n      pop\n      jump\t// out\n    tag_237:\n      dup3\n      dup1\n      sload\n      dup3\n      dup3\n      sstore\n      swap1\n      0x00\n      mstore\n      keccak256(0x00, 0x20)\n      swap1\n      dup2\n      add\n      swap3\n      dup3\n      iszero\n      tag_401\n      jumpi\n      swap2\n      0x20\n      mul\n      dup3\n      add\n    tag_402:\n      dup3\n      dup2\n      gt\n      iszero\n      tag_403\n      jumpi\n      dup3\n      mload\n      dup3\n      swap1\n      dup2\n      tag_404\n      swap2\n      swap1\n      tag_194\n      jump\t// in\n    tag_404:\n      pop\n      swap2\n      0x20\n      add\n      swap2\n      swap1\n      0x01\n      add\n      swap1\n      jump(tag_402)\n    tag_403:\n    tag_401:\n      pop\n      swap1\n      pop\n      tag_405\n      swap2\n      swap1\n      tag_406\n      jump\t// in\n    tag_405:\n      pop\n      swap1\n      jump\t// out\n    tag_311:\n      mload(0x40)\n      dup1\n      0x40\n      add\n      0x40\n      mstore\n      dup1\n      tag_407\n      tag_121\n      jump\t// in\n    tag_407:\n      dup2\n      mstore\n      0x20\n      add\n      0x60\n      dup2\n      mstore\n      pop\n      swap1\n      jump\t// out\n    tag_375:\n      pop\n      dup1\n      sload\n      0x00\n      dup3\n      sstore\n      swap1\n      0x00\n      mstore\n      keccak256(0x00, 0x20)\n      swap1\n      dup2\n      add\n      swap1\n      tag_409\n      swap2\n      swap1\n      tag_406\n      jump\t// in\n    tag_409:\n      pop\n      jump\t// out\n    tag_377:\n      pop\n      dup1\n      sload\n      0x00\n      dup3\n      sstore\n      0x04\n      mul\n      swap1\n      0x00\n      mstore\n      keccak256(0x00, 0x20)\n      swap1\n      dup2\n      add\n      swap1\n      tag_411\n      swap2\n      swap1\n      tag_412\n      jump\t// in\n    tag_411:\n      pop\n      jump\t// out\n    tag_400:\n    tag_413:\n      dup1\n      dup3\n      gt\n      iszero\n      tag_414\n      jumpi\n      0x00\n      dup2\n      0x00\n      swap1\n      sstore\n      pop\n      0x01\n      add\n      jump(tag_413)\n    tag_414:\n      pop\n      swap1\n      jump\t// out\n    tag_406:\n    tag_415:\n      dup1\n      dup3\n      gt\n      iszero\n      tag_416\n      jumpi\n      0x00\n      dup2\n      dup2\n      tag_417\n      swap2\n      swap1\n      tag_200\n      jump\t// in\n    tag_417:\n      pop\n      0x01\n      add\n      jump(tag_415)\n    tag_416:\n      pop\n      swap1\n      jump\t// out\n    tag_412:\n    tag_418:\n      dup1\n      dup3\n      gt\n      iszero\n      tag_419\n      jumpi\n      0x00\n      0x00\n      dup3\n      add\n      0x00\n      swap1\n      sstore\n      0x01\n      dup3\n      add\n      0x00\n      tag_420\n      swap2\n      swap1\n      tag_200\n      jump\t// in\n    tag_420:\n      0x02\n      dup3\n      add\n      0x00\n      swap1\n      sstore\n      0x03\n      dup3\n      add\n      0x00\n      swap1\n      sstore\n      pop\n      0x04\n      add\n      jump(tag_418)\n    tag_419:\n      pop\n      swap1\n      jump\t// out\n        /* \"#utility.yul\":7:82   */\n    tag_421:\n        /* \"#utility.yul\":40:46   */\n      0x00\n        /* \"#utility.yul\":73:75   */\n      0x40\n        /* \"#utility.yul\":67:76   */\n      mload\n        /* \"#utility.yul\":57:76   */\n      swap1\n      pop\n        /* \"#utility.yul\":7:82   */\n      swap1\n      jump\t// out\n        /* \"#utility.yul\":88:205   */\n    tag_422:\n        /* \"#utility.yul\":197:198   */\n      0x00\n        /* \"#utility.yul\":194:195   */\n      0x00\n        /* \"#utility.yul\":187:199   */\n      revert\n        /* \"#utility.yul\":211:328   */\n    tag_423:\n        /* \"#utility.yul\":320:321   */\n      0x00\n        /* \"#utility.yul\":317:318   */\n      0x00\n        /* \"#utility.yul\":310:322   */\n      revert\n        /* \"#utility.yul\":334:411   */\n    tag_424:\n        /* \"#utility.yul\":371:378   */\n      0x00\n        /* \"#utility.yul\":400:405   */\n      dup2\n        /* \"#utility.yul\":389:405   */\n      swap1\n      pop\n        /* \"#utility.yul\":334:411   */\n      swap2\n      swap1\n      pop\n      jump\t// out\n        /* \"#utility.yul\":417:539   */\n    tag_425:\n        /* \"#utility.yul\":490:514   */\n      tag_535\n        /* \"#utility.yul\":508:513   */\n      dup2\n        /* \"#utility.yul\":490:514   */\n      tag_424\n      jump\t// in\n    tag_535:\n        /* \"#utility.yul\":483:488   */\n      dup2\n        /* \"#utility.yul\":480:515   */\n      eq\n        /* \"#utility.yul\":470:533   */\n      tag_536\n      jumpi\n        /* \"#utility.yul\":529:530   */\n      0x00\n        /* \"#utility.yul\":526:527   */\n      0x00\n        /* \"#utility.yul\":519:531   */\n      revert\n        /* \"#utility.yul\":470:533   */\n    tag_536:\n        /* \"#utility.yul\":417:539   */\n      pop\n      jump\t// out\n        /* \"#utility.yul\":545:684   */\n    tag_426:\n        /* \"#utility.yul\":591:596   */\n      0x00\n        /* \"#utility.yul\":629:635   */\n      dup2\n        /* \"#utility.yul\":616:636   */\n      calldataload\n        /* \"#utility.yul\":607:636   */\n      swap1\n      pop\n        /* \"#utility.yul\":645:678   */\n      tag_538\n        /* \"#utility.yul\":672:677   */\n      dup2\n        /* \"#utility.yul\":645:678   */\n      tag_425\n      jump\t// in\n    tag_538:\n        /* \"#utility.yul\":545:684   */\n      swap3\n      swap2\n      pop\n      pop\n      jump\t// out\n        /* \"#utility.yul\":690:1309   */\n    tag_27:\n        /* \"#utility.yul\":767:773   */\n      0x00\n        /* \"#utility.yul\":775:781   */\n      0x00\n        /* \"#utility.yul\":783:789   */\n      0x00\n        /* \"#utility.yul\":832:834   */\n      0x60\n        /* \"#utility.yul\":820:829   */\n      dup5\n        /* \"#utility.yul\":811:818   */\n      dup7\n        /* \"#utility.yul\":807:830   */\n      sub\n        /* \"#utility.yul\":803:835   */\n      slt\n        /* \"#utility.yul\":800:919   */\n      iszero\n      tag_540\n      jumpi\n        /* \"#utility.yul\":838:917   */\n      tag_541\n      tag_422\n      jump\t// in\n    tag_541:\n        /* \"#utility.yul\":800:919   */\n    tag_540:\n        /* \"#utility.yul\":958:959   */\n      0x00\n        /* \"#utility.yul\":983:1036   */\n      tag_542\n        /* \"#utility.yul\":1028:1035   */\n      dup7\n        /* \"#utility.yul\":1019:1025   */\n      dup3\n        /* \"#utility.yul\":1008:1017   */\n      dup8\n        /* \"#utility.yul\":1004:1026   */\n      add\n        /* \"#utility.yul\":983:1036   */\n      tag_426\n      jump\t// in\n    tag_542:\n        /* \"#utility.yul\":973:1036   */\n      swap4\n      pop\n        /* \"#utility.yul\":929:1046   */\n      pop\n        /* \"#utility.yul\":1085:1087   */\n      0x20\n        /* \"#utility.yul\":1111:1164   */\n      tag_543\n        /* \"#utility.yul\":1156:1163   */\n      dup7\n        /* \"#utility.yul\":1147:1153   */\n      dup3\n        /* \"#utility.yul\":1136:1145   */\n      dup8\n        /* \"#utility.yul\":1132:1154   */\n      add\n        /* \"#utility.yul\":1111:1164   */\n      tag_426\n      jump\t// in\n    tag_543:\n        /* \"#utility.yul\":1101:1164   */\n      swap3\n      pop\n        /* \"#utility.yul\":1056:1174   */\n      pop\n        /* \"#utility.yul\":1213:1215   */\n      0x40\n        /* \"#utility.yul\":1239:1292   */\n      tag_544\n        /* \"#utility.yul\":1284:1291   */\n      dup7\n        /* \"#utility.yul\":1275:1281   */\n      dup3\n        /* \"#utility.yul\":1264:1273   */\n      dup8\n        /* \"#utility.yul\":1260:1282   */\n      add\n        /* \"#utility.yul\":1239:1292   */\n      tag_426\n      jump\t// in\n    tag_544:\n        /* \"#utility.yul\":1229:1292   */\n      swap2\n      pop\n        /* \"#utility.yul\":1184:1302   */\n      pop\n        /* \"#utility.yul\":690:1309   */\n      swap3\n      pop\n      swap3\n      pop\n      swap3\n      jump\t// out\n        /* \"#utility.yul\":1315:1441   */\n    tag_427:\n        /* \"#utility.yul\":1352:1359   */\n      0x00\n        /* \"#utility.yul\":1392:1434   */\n      0xffffffffffffffffffffffffffffffffffffffff\n        /* \"#utility.yul\":1385:1390   */\n      dup3\n        /* \"#utility.yul\":1381:1435   */\n      and\n        /* \"#utility.yul\":1370:1435   */\n      swap1\n      pop\n        /* \"#utility.yul\":1315:1441   */\n      swap2\n      swap1\n      pop\n      jump\t// out\n        /* \"#utility.yul\":1447:1543   */\n    tag_428:\n        /* \"#utility.yul\":1484:1491   */\n      0x00\n        /* \"#utility.yul\":1513:1537   */\n      tag_547\n        /* \"#utility.yul\":1531:1536   */\n      dup3\n        /* \"#utility.yul\":1513:1537   */\n      tag_427\n      jump\t// in\n    tag_547:\n        /* \"#utility.yul\":1502:1537   */\n      swap1\n      pop\n        /* \"#utility.yul\":1447:1543   */\n      swap2\n      swap1\n      pop\n      jump\t// out\n        /* \"#utility.yul\":1549:1671   */\n    tag_429:\n        /* \"#utility.yul\":1622:1646   */\n      tag_549\n        /* \"#utility.yul\":1640:1645   */\n      dup2\n        /* \"#utility.yul\":1622:1646   */\n      tag_428\n      jump\t// in\n    tag_549:\n        /* \"#utility.yul\":1615:1620   */\n      dup2\n        /* \"#utility.yul\":1612:1647   */\n      eq\n        /* \"#utility.yul\":1602:1665   */\n      tag_550\n      jumpi\n        /* \"#utility.yul\":1661:1662   */\n      0x00\n        /* \"#utility.yul\":1658:1659   */\n      0x00\n        /* \"#utility.yul\":1651:1663   */\n      revert\n        /* \"#utility.yul\":1602:1665   */\n    tag_550:\n        /* \"#utility.yul\":1549:1671   */\n      pop\n      jump\t// out\n        /* \"#utility.yul\":1677:1816   */\n    tag_430:\n        /* \"#utility.yul\":1723:1728   */\n      0x00\n        /* \"#utility.yul\":1761:1767   */\n      dup2\n        /* \"#utility.yul\":1748:1768   */\n      calldataload\n        /* \"#utility.yul\":1739:1768   */\n      swap1\n      pop\n        /* \"#utility.yul\":1777:1810   */\n      tag_552\n        /* \"#utility.yul\":1804:1809   */\n      dup2\n        /* \"#utility.yul\":1777:1810   */\n      tag_429\n      jump\t// in\n    tag_552:\n        /* \"#utility.yul\":1677:1816   */\n      swap3\n      swap2\n      pop\n      pop\n      jump\t// out\n        /* \"#utility.yul\":1822:2151   */\n    tag_31:\n        /* \"#utility.yul\":1881:1887   */\n      0x00\n        /* \"#utility.yul\":1930:1932   */\n      0x20\n        /* \"#utility.yul\":1918:1927   */\n      dup3\n        /* \"#utility.yul\":1909:1916   */\n      dup5\n        /* \"#utility.yul\":1905:1928   */\n      sub\n        /* \"#utility.yul\":1901:1933   */\n      slt\n        /* \"#utility.yul\":1898:2017   */\n      iszero\n      tag_554\n      jumpi\n        /* \"#utility.yul\":1936:2015   */\n      tag_555\n      tag_422\n      jump\t// in\n    tag_555:\n        /* \"#utility.yul\":1898:2017   */\n    tag_554:\n        /* \"#utility.yul\":2056:2057   */\n      0x00\n        /* \"#utility.yul\":2081:2134   */\n      tag_556\n        /* \"#utility.yul\":2126:2133   */\n      dup5\n        /* \"#utility.yul\":2117:2123   */\n      dup3\n        /* \"#utility.yul\":2106:2115   */\n      dup6\n        /* \"#utility.yul\":2102:2124   */\n      add\n        /* \"#utility.yul\":2081:2134   */\n      tag_430\n      jump\t// in\n    tag_556:\n        /* \"#utility.yul\":2071:2134   */\n      swap2\n      pop\n        /* \"#utility.yul\":2027:2144   */\n      pop\n        /* \"#utility.yul\":1822:2151   */\n      swap3\n      swap2\n      pop\n      pop\n      jump\t// out\n        /* \"#utility.yul\":2157:2275   */\n    tag_431:\n        /* \"#utility.yul\":2244:2268   */\n      tag_558\n        /* \"#utility.yul\":2262:2267   */\n      dup2\n        /* \"#utility.yul\":2244:2268   */\n      tag_424\n      jump\t// in\n    tag_558:\n        /* \"#utility.yul\":2239:2242   */\n      dup3\n        /* \"#utility.yul\":2232:2269   */\n      mstore\n        /* \"#utility.yul\":2157:2275   */\n      pop\n      pop\n      jump\t// out\n        /* \"#utility.yul\":2281:2503   */\n    tag_36:\n        /* \"#utility.yul\":2374:2378   */\n      0x00\n        /* \"#utility.yul\":2412:2414   */\n      0x20\n        /* \"#utility.yul\":2401:2410   */\n      dup3\n        /* \"#utility.yul\":2397:2415   */\n      add\n        /* \"#utility.yul\":2389:2415   */\n      swap1\n      pop\n        /* \"#utility.yul\":2425:2496   */\n      tag_560\n        /* \"#utility.yul\":2493:2494   */\n      0x00\n        /* \"#utility.yul\":2482:2491   */\n      dup4\n        /* \"#utility.yul\":2478:2495   */\n      add\n        /* \"#utility.yul\":2469:2475   */\n      dup5\n        /* \"#utility.yul\":2425:2496   */\n      tag_431\n      jump\t// in\n    tag_560:\n        /* \"#utility.yul\":2281:2503   */\n      swap3\n      swap2\n      pop\n      pop\n      jump\t// out\n        /* \"#utility.yul\":2509:2838   */\n    tag_42:\n        /* \"#utility.yul\":2568:2574   */\n      0x00\n        /* \"#utility.yul\":2617:2619   */\n      0x20\n        /* \"#utility.yul\":2605:2614   */\n      dup3\n        /* \"#utility.yul\":2596:2603   */\n      dup5\n        /* \"#utility.yul\":2592:2615   */\n      sub\n        /* \"#utility.yul\":2588:2620   */\n      slt\n        /* \"#utility.yul\":2585:2704   */\n      iszero\n      tag_562\n      jumpi\n        /* \"#utility.yul\":2623:2702   */\n      tag_563\n      tag_422\n      jump\t// in\n    tag_563:\n        /* \"#utility.yul\":2585:2704   */\n    tag_562:\n        /* \"#utility.yul\":2743:2744   */\n      0x00\n        /* \"#utility.yul\":2768:2821   */\n      tag_564\n        /* \"#utility.yul\":2813:2820   */\n      dup5\n        /* \"#utility.yul\":2804:2810   */\n      dup3\n        /* \"#utility.yul\":2793:2802   */\n      dup6\n        /* \"#utility.yul\":2789:2811   */\n      add\n        /* \"#utility.yul\":2768:2821   */\n      tag_426\n      jump\t// in\n    tag_564:\n        /* \"#utility.yul\":2758:2821   */\n      swap2\n      pop\n        /* \"#utility.yul\":2714:2831   */\n      pop\n        /* \"#utility.yul\":2509:2838   */\n      swap3\n      swap2\n      pop\n      pop\n      jump\t// out\n        /* \"#utility.yul\":2844:2952   */\n    tag_432:\n        /* \"#utility.yul\":2921:2945   */\n      tag_566\n        /* \"#utility.yul\":2939:2944   */\n      dup2\n        /* \"#utility.yul\":2921:2945   */\n      tag_424\n      jump\t// in\n    tag_566:\n        /* \"#utility.yul\":2916:2919   */\n      dup3\n        /* \"#utility.yul\":2909:2946   */\n      mstore\n        /* \"#utility.yul\":2844:2952   */\n      pop\n      pop\n      jump\t// out\n        /* \"#utility.yul\":2958:3057   */\n    tag_433:\n        /* \"#utility.yul\":3010:3016   */\n      0x00\n        /* \"#utility.yul\":3044:3049   */\n      dup2\n        /* \"#utility.yul\":3038:3050   */\n      mload\n        /* \"#utility.yul\":3028:3050   */\n      swap1\n      pop\n        /* \"#utility.yul\":2958:3057   */\n      swap2\n      swap1\n      pop\n      jump\t// out\n        /* \"#utility.yul\":3063:3222   */\n    tag_434:\n        /* \"#utility.yul\":3137:3148   */\n      0x00\n        /* \"#utility.yul\":3171:3177   */\n      dup3\n        /* \"#utility.yul\":3166:3169   */\n      dup3\n        /* \"#utility.yul\":3159:3178   */\n      mstore\n        /* \"#utility.yul\":3211:3215   */\n      0x20\n        /* \"#utility.yul\":3206:3209   */\n      dup3\n        /* \"#utility.yul\":3202:3216   */\n      add\n        /* \"#utility.yul\":3187:3216   */\n      swap1\n      pop\n        /* \"#utility.yul\":3063:3222   */\n      swap3\n      swap2\n      pop\n      pop\n      jump\t// out\n        /* \"#utility.yul\":3228:3367   */\n    tag_435:\n        /* \"#utility.yul\":3317:3323   */\n      dup3\n        /* \"#utility.yul\":3312:3315   */\n      dup2\n        /* \"#utility.yul\":3307:3310   */\n      dup4\n        /* \"#utility.yul\":3301:3324   */\n      mcopy\n        /* \"#utility.yul\":3358:3359   */\n      0x00\n        /* \"#utility.yul\":3349:3355   */\n      dup4\n        /* \"#utility.yul\":3344:3347   */\n      dup4\n        /* \"#utility.yul\":3340:3356   */\n      add\n        /* \"#utility.yul\":3333:3360   */\n      mstore\n        /* \"#utility.yul\":3228:3367   */\n      pop\n      pop\n      pop\n      jump\t// out\n        /* \"#utility.yul\":3373:3475   */\n    tag_436:\n        /* \"#utility.yul\":3414:3420   */\n      0x00\n        /* \"#utility.yul\":3465:3467   */\n      0x1f\n        /* \"#utility.yul\":3461:3468   */\n      not\n        /* \"#utility.yul\":3456:3458   */\n      0x1f\n        /* \"#utility.yul\":3449:3454   */\n      dup4\n        /* \"#utility.yul\":3445:3459   */\n      add\n        /* \"#utility.yul\":3441:3469   */\n      and\n        /* \"#utility.yul\":3431:3469   */\n      swap1\n      pop\n        /* \"#utility.yul\":3373:3475   */\n      swap2\n      swap1\n      pop\n      jump\t// out\n        /* \"#utility.yul\":3481:3838   */\n    tag_437:\n        /* \"#utility.yul\":3559:3562   */\n      0x00\n        /* \"#utility.yul\":3587:3626   */\n      tag_572\n        /* \"#utility.yul\":3620:3625   */\n      dup3\n        /* \"#utility.yul\":3587:3626   */\n      tag_433\n      jump\t// in\n    tag_572:\n        /* \"#utility.yul\":3642:3703   */\n      tag_573\n        /* \"#utility.yul\":3696:3702   */\n      dup2\n        /* \"#utility.yul\":3691:3694   */\n      dup6\n        /* \"#utility.yul\":3642:3703   */\n      tag_434\n      jump\t// in\n    tag_573:\n        /* \"#utility.yul\":3635:3703   */\n      swap4\n      pop\n        /* \"#utility.yul\":3712:3777   */\n      tag_574\n        /* \"#utility.yul\":3770:3776   */\n      dup2\n        /* \"#utility.yul\":3765:3768   */\n      dup6\n        /* \"#utility.yul\":3758:3762   */\n      0x20\n        /* \"#utility.yul\":3751:3756   */\n      dup7\n        /* \"#utility.yul\":3747:3763   */\n      add\n        /* \"#utility.yul\":3712:3777   */\n      tag_435\n      jump\t// in\n    tag_574:\n        /* \"#utility.yul\":3802:3831   */\n      tag_575\n        /* \"#utility.yul\":3824:3830   */\n      dup2\n        /* \"#utility.yul\":3802:3831   */\n      tag_436\n      jump\t// in\n    tag_575:\n        /* \"#utility.yul\":3797:3800   */\n      dup5\n        /* \"#utility.yul\":3793:3832   */\n      add\n        /* \"#utility.yul\":3786:3832   */\n      swap2\n      pop\n        /* \"#utility.yul\":3563:3838   */\n      pop\n        /* \"#utility.yul\":3481:3838   */\n      swap3\n      swap2\n      pop\n      pop\n      jump\t// out\n        /* \"#utility.yul\":3844:3968   */\n    tag_438:\n        /* \"#utility.yul\":3921:3927   */\n      0x00\n        /* \"#utility.yul\":3955:3960   */\n      dup2\n        /* \"#utility.yul\":3949:3961   */\n      mload\n        /* \"#utility.yul\":3939:3961   */\n      swap1\n      pop\n        /* \"#utility.yul\":3844:3968   */\n      swap2\n      swap1\n      pop\n      jump\t// out\n        /* \"#utility.yul\":3974:4158   */\n    tag_439:\n        /* \"#utility.yul\":4073:4084   */\n      0x00\n        /* \"#utility.yul\":4107:4113   */\n      dup3\n        /* \"#utility.yul\":4102:4105   */\n      dup3\n        /* \"#utility.yul\":4095:4114   */\n      mstore\n        /* \"#utility.yul\":4147:4151   */\n      0x20\n        /* \"#utility.yul\":4142:4145   */\n      dup3\n        /* \"#utility.yul\":4138:4152   */\n      add\n        /* \"#utility.yul\":4123:4152   */\n      swap1\n      pop\n        /* \"#utility.yul\":3974:4158   */\n      swap3\n      swap2\n      pop\n      pop\n      jump\t// out\n        /* \"#utility.yul\":4164:4306   */\n    tag_440:\n        /* \"#utility.yul\":4241:4245   */\n      0x00\n        /* \"#utility.yul\":4264:4267   */\n      dup2\n        /* \"#utility.yul\":4256:4267   */\n      swap1\n      pop\n        /* \"#utility.yul\":4294:4298   */\n      0x20\n        /* \"#utility.yul\":4289:4292   */\n      dup3\n        /* \"#utility.yul\":4285:4299   */\n      add\n        /* \"#utility.yul\":4277:4299   */\n      swap1\n      pop\n        /* \"#utility.yul\":4164:4306   */\n      swap2\n      swap1\n      pop\n      jump\t// out\n        /* \"#utility.yul\":4312:4508   */\n    tag_441:\n        /* \"#utility.yul\":4401:4411   */\n      0x00\n        /* \"#utility.yul\":4436:4502   */\n      tag_580\n        /* \"#utility.yul\":4498:4501   */\n      dup4\n        /* \"#utility.yul\":4490:4496   */\n      dup4\n        /* \"#utility.yul\":4436:4502   */\n      tag_437\n      jump\t// in\n    tag_580:\n        /* \"#utility.yul\":4422:4502   */\n      swap1\n      pop\n        /* \"#utility.yul\":4312:4508   */\n      swap3\n      swap2\n      pop\n      pop\n      jump\t// out\n        /* \"#utility.yul\":4514:4637   */\n    tag_442:\n        /* \"#utility.yul\":4594:4598   */\n      0x00\n        /* \"#utility.yul\":4626:4630   */\n      0x20\n        /* \"#utility.yul\":4621:4624   */\n      dup3\n        /* \"#utility.yul\":4617:4631   */\n      add\n        /* \"#utility.yul\":4609:4631   */\n      swap1\n      pop\n        /* \"#utility.yul\":4514:4637   */\n      swap2\n      swap1\n      pop\n      jump\t// out\n        /* \"#utility.yul\":4671:5642   */\n    tag_443:\n        /* \"#utility.yul\":4800:4803   */\n      0x00\n        /* \"#utility.yul\":4829:4893   */\n      tag_583\n        /* \"#utility.yul\":4887:4892   */\n      dup3\n        /* \"#utility.yul\":4829:4893   */\n      tag_438\n      jump\t// in\n    tag_583:\n        /* \"#utility.yul\":4909:4995   */\n      tag_584\n        /* \"#utility.yul\":4988:4994   */\n      dup2\n        /* \"#utility.yul\":4983:4986   */\n      dup6\n        /* \"#utility.yul\":4909:4995   */\n      tag_439\n      jump\t// in\n    tag_584:\n        /* \"#utility.yul\":4902:4995   */\n      swap4\n      pop\n        /* \"#utility.yul\":5021:5024   */\n      dup4\n        /* \"#utility.yul\":5066:5070   */\n      0x20\n        /* \"#utility.yul\":5058:5064   */\n      dup3\n        /* \"#utility.yul\":5054:5071   */\n      mul\n        /* \"#utility.yul\":5049:5052   */\n      dup6\n        /* \"#utility.yul\":5045:5072   */\n      add\n        /* \"#utility.yul\":5096:5162   */\n      tag_585\n        /* \"#utility.yul\":5156:5161   */\n      dup6\n        /* \"#utility.yul\":5096:5162   */\n      tag_440\n      jump\t// in\n    tag_585:\n        /* \"#utility.yul\":5185:5192   */\n      dup1\n        /* \"#utility.yul\":5216:5217   */\n      0x00\n        /* \"#utility.yul\":5201:5597   */\n    tag_586:\n        /* \"#utility.yul\":5226:5232   */\n      dup6\n        /* \"#utility.yul\":5223:5224   */\n      dup2\n        /* \"#utility.yul\":5220:5233   */\n      lt\n        /* \"#utility.yul\":5201:5597   */\n      iszero\n      tag_588\n      jumpi\n        /* \"#utility.yul\":5297:5306   */\n      dup5\n        /* \"#utility.yul\":5291:5295   */\n      dup5\n        /* \"#utility.yul\":5287:5307   */\n      sub\n        /* \"#utility.yul\":5282:5285   */\n      dup10\n        /* \"#utility.yul\":5275:5308   */\n      mstore\n        /* \"#utility.yul\":5348:5354   */\n      dup2\n        /* \"#utility.yul\":5342:5355   */\n      mload\n        /* \"#utility.yul\":5376:5460   */\n      tag_589\n        /* \"#utility.yul\":5455:5459   */\n      dup6\n        /* \"#utility.yul\":5440:5453   */\n      dup3\n        /* \"#utility.yul\":5376:5460   */\n      tag_441\n      jump\t// in\n    tag_589:\n        /* \"#utility.yul\":5368:5460   */\n      swap5\n      pop\n        /* \"#utility.yul\":5483:5553   */\n      tag_590\n        /* \"#utility.yul\":5546:5552   */\n      dup4\n        /* \"#utility.yul\":5483:5553   */\n      tag_442\n      jump\t// in\n    tag_590:\n        /* \"#utility.yul\":5473:5553   */\n      swap3\n      pop\n        /* \"#utility.yul\":5582:5586   */\n      0x20\n        /* \"#utility.yul\":5577:5580   */\n      dup11\n        /* \"#utility.yul\":5573:5587   */\n      add\n        /* \"#utility.yul\":5566:5587   */\n      swap10\n      pop\n        /* \"#utility.yul\":5261:5597   */\n      pop\n        /* \"#utility.yul\":5248:5249   */\n      0x01\n        /* \"#utility.yul\":5245:5246   */\n      dup2\n        /* \"#utility.yul\":5241:5250   */\n      add\n        /* \"#utility.yul\":5236:5250   */\n      swap1\n      pop\n        /* \"#utility.yul\":5201:5597   */\n      jump(tag_586)\n    tag_588:\n        /* \"#utility.yul\":5205:5219   */\n      pop\n        /* \"#utility.yul\":5613:5617   */\n      dup3\n        /* \"#utility.yul\":5606:5617   */\n      swap8\n      pop\n        /* \"#utility.yul\":5633:5636   */\n      dup8\n        /* \"#utility.yul\":5626:5636   */\n      swap6\n      pop\n        /* \"#utility.yul\":4805:5642   */\n      pop\n      pop\n      pop\n      pop\n      pop\n        /* \"#utility.yul\":4671:5642   */\n      swap3\n      swap2\n      pop\n      pop\n      jump\t// out\n        /* \"#utility.yul\":5682:7559   */\n    tag_444:\n        /* \"#utility.yul\":5795:5798   */\n      0x00\n        /* \"#utility.yul\":5831:5837   */\n      0x0100\n        /* \"#utility.yul\":5826:5829   */\n      dup4\n        /* \"#utility.yul\":5822:5838   */\n      add\n        /* \"#utility.yul\":5922:5926   */\n      0x00\n        /* \"#utility.yul\":5915:5920   */\n      dup4\n        /* \"#utility.yul\":5911:5927   */\n      add\n        /* \"#utility.yul\":5905:5928   */\n      mload\n        /* \"#utility.yul\":5941:6004   */\n      tag_592\n        /* \"#utility.yul\":5998:6002   */\n      0x00\n        /* \"#utility.yul\":5993:5996   */\n      dup7\n        /* \"#utility.yul\":5989:6003   */\n      add\n        /* \"#utility.yul\":5975:5987   */\n      dup3\n        /* \"#utility.yul\":5941:6004   */\n      tag_432\n      jump\t// in\n    tag_592:\n        /* \"#utility.yul\":5848:6014   */\n      pop\n        /* \"#utility.yul\":6096:6100   */\n      0x20\n        /* \"#utility.yul\":6089:6094   */\n      dup4\n        /* \"#utility.yul\":6085:6101   */\n      add\n        /* \"#utility.yul\":6079:6102   */\n      mload\n        /* \"#utility.yul\":6149:6152   */\n      dup5\n        /* \"#utility.yul\":6143:6147   */\n      dup3\n        /* \"#utility.yul\":6139:6153   */\n      sub\n        /* \"#utility.yul\":6132:6136   */\n      0x20\n        /* \"#utility.yul\":6127:6130   */\n      dup7\n        /* \"#utility.yul\":6123:6137   */\n      add\n        /* \"#utility.yul\":6116:6154   */\n      mstore\n        /* \"#utility.yul\":6175:6248   */\n      tag_593\n        /* \"#utility.yul\":6243:6247   */\n      dup3\n        /* \"#utility.yul\":6229:6241   */\n      dup3\n        /* \"#utility.yul\":6175:6248   */\n      tag_437\n      jump\t// in\n    tag_593:\n        /* \"#utility.yul\":6167:6248   */\n      swap2\n      pop\n        /* \"#utility.yul\":6024:6259   */\n      pop\n        /* \"#utility.yul\":6348:6352   */\n      0x40\n        /* \"#utility.yul\":6341:6346   */\n      dup4\n        /* \"#utility.yul\":6337:6353   */\n      add\n        /* \"#utility.yul\":6331:6354   */\n      mload\n        /* \"#utility.yul\":6401:6404   */\n      dup5\n        /* \"#utility.yul\":6395:6399   */\n      dup3\n        /* \"#utility.yul\":6391:6405   */\n      sub\n        /* \"#utility.yul\":6384:6388   */\n      0x40\n        /* \"#utility.yul\":6379:6382   */\n      dup7\n        /* \"#utility.yul\":6375:6389   */\n      add\n        /* \"#utility.yul\":6368:6406   */\n      mstore\n        /* \"#utility.yul\":6427:6500   */\n      tag_594\n        /* \"#utility.yul\":6495:6499   */\n      dup3\n        /* \"#utility.yul\":6481:6493   */\n      dup3\n        /* \"#utility.yul\":6427:6500   */\n      tag_437\n      jump\t// in\n    tag_594:\n        /* \"#utility.yul\":6419:6500   */\n      swap2\n      pop\n        /* \"#utility.yul\":6269:6511   */\n      pop\n        /* \"#utility.yul\":6599:6603   */\n      0x60\n        /* \"#utility.yul\":6592:6597   */\n      dup4\n        /* \"#utility.yul\":6588:6604   */\n      add\n        /* \"#utility.yul\":6582:6605   */\n      mload\n        /* \"#utility.yul\":6618:6681   */\n      tag_595\n        /* \"#utility.yul\":6675:6679   */\n      0x60\n        /* \"#utility.yul\":6670:6673   */\n      dup7\n        /* \"#utility.yul\":6666:6680   */\n      add\n        /* \"#utility.yul\":6652:6664   */\n      dup3\n        /* \"#utility.yul\":6618:6681   */\n      tag_432\n      jump\t// in\n    tag_595:\n        /* \"#utility.yul\":6521:6691   */\n      pop\n        /* \"#utility.yul\":6777:6781   */\n      0x80\n        /* \"#utility.yul\":6770:6775   */\n      dup4\n        /* \"#utility.yul\":6766:6782   */\n      add\n        /* \"#utility.yul\":6760:6783   */\n      mload\n        /* \"#utility.yul\":6830:6833   */\n      dup5\n        /* \"#utility.yul\":6824:6828   */\n      dup3\n        /* \"#utility.yul\":6820:6834   */\n      sub\n        /* \"#utility.yul\":6813:6817   */\n      0x80\n        /* \"#utility.yul\":6808:6811   */\n      dup7\n        /* \"#utility.yul\":6804:6818   */\n      add\n        /* \"#utility.yul\":6797:6835   */\n      mstore\n        /* \"#utility.yul\":6856:6979   */\n      tag_596\n        /* \"#utility.yul\":6974:6978   */\n      dup3\n        /* \"#utility.yul\":6960:6972   */\n      dup3\n        /* \"#utility.yul\":6856:6979   */\n      tag_443\n      jump\t// in\n    tag_596:\n        /* \"#utility.yul\":6848:6979   */\n      swap2\n      pop\n        /* \"#utility.yul\":6701:6990   */\n      pop\n        /* \"#utility.yul\":7080:7084   */\n      0xa0\n        /* \"#utility.yul\":7073:7078   */\n      dup4\n        /* \"#utility.yul\":7069:7085   */\n      add\n        /* \"#utility.yul\":7063:7086   */\n      mload\n        /* \"#utility.yul\":7099:7162   */\n      tag_597\n        /* \"#utility.yul\":7156:7160   */\n      0xa0\n        /* \"#utility.yul\":7151:7154   */\n      dup7\n        /* \"#utility.yul\":7147:7161   */\n      add\n        /* \"#utility.yul\":7133:7145   */\n      dup3\n        /* \"#utility.yul\":7099:7162   */\n      tag_432\n      jump\t// in\n    tag_597:\n        /* \"#utility.yul\":7000:7172   */\n      pop\n        /* \"#utility.yul\":7259:7263   */\n      0xc0\n        /* \"#utility.yul\":7252:7257   */\n      dup4\n        /* \"#utility.yul\":7248:7264   */\n      add\n        /* \"#utility.yul\":7242:7265   */\n      mload\n        /* \"#utility.yul\":7278:7341   */\n      tag_598\n        /* \"#utility.yul\":7335:7339   */\n      0xc0\n        /* \"#utility.yul\":7330:7333   */\n      dup7\n        /* \"#utility.yul\":7326:7340   */\n      add\n        /* \"#utility.yul\":7312:7324   */\n      dup3\n        /* \"#utility.yul\":7278:7341   */\n      tag_432\n      jump\t// in\n    tag_598:\n        /* \"#utility.yul\":7182:7351   */\n      pop\n        /* \"#utility.yul\":7440:7444   */\n      0xe0\n        /* \"#utility.yul\":7433:7438   */\n      dup4\n        /* \"#utility.yul\":7429:7445   */\n      add\n        /* \"#utility.yul\":7423:7446   */\n      mload\n        /* \"#utility.yul\":7459:7522   */\n      tag_599\n        /* \"#utility.yul\":7516:7520   */\n      0xe0\n        /* \"#utility.yul\":7511:7514   */\n      dup7\n        /* \"#utility.yul\":7507:7521   */\n      add\n        /* \"#utility.yul\":7493:7505   */\n      dup3\n        /* \"#utility.yul\":7459:7522   */\n      tag_432\n      jump\t// in\n    tag_599:\n        /* \"#utility.yul\":7361:7532   */\n      pop\n        /* \"#utility.yul\":7549:7553   */\n      dup1\n        /* \"#utility.yul\":7542:7553   */\n      swap2\n      pop\n        /* \"#utility.yul\":5800:7559   */\n      pop\n        /* \"#utility.yul\":5682:7559   */\n      swap3\n      swap2\n      pop\n      pop\n      jump\t// out\n        /* \"#utility.yul\":7565:7926   */\n    tag_45:\n        /* \"#utility.yul\":7702:7706   */\n      0x00\n        /* \"#utility.yul\":7740:7742   */\n      0x20\n        /* \"#utility.yul\":7729:7738   */\n      dup3\n        /* \"#utility.yul\":7725:7743   */\n      add\n        /* \"#utility.yul\":7717:7743   */\n      swap1\n      pop\n        /* \"#utility.yul\":7789:7798   */\n      dup2\n        /* \"#utility.yul\":7783:7787   */\n      dup2\n        /* \"#utility.yul\":7779:7799   */\n      sub\n        /* \"#utility.yul\":7775:7776   */\n      0x00\n        /* \"#utility.yul\":7764:7773   */\n      dup4\n        /* \"#utility.yul\":7760:7777   */\n      add\n        /* \"#utility.yul\":7753:7800   */\n      mstore\n        /* \"#utility.yul\":7817:7919   */\n      tag_601\n        /* \"#utility.yul\":7914:7918   */\n      dup2\n        /* \"#utility.yul\":7905:7911   */\n      dup5\n        /* \"#utility.yul\":7817:7919   */\n      tag_444\n      jump\t// in\n    tag_601:\n        /* \"#utility.yul\":7809:7919   */\n      swap1\n      pop\n        /* \"#utility.yul\":7565:7926   */\n      swap3\n      swap2\n      pop\n      pop\n      jump\t// out\n        /* \"#utility.yul\":7932:8112   */\n    tag_119:\n        /* \"#utility.yul\":7980:8057   */\n      0x4e487b7100000000000000000000000000000000000000000000000000000000\n        /* \"#utility.yul\":7977:7978   */\n      0x00\n        /* \"#utility.yul\":7970:8058   */\n      mstore\n        /* \"#utility.yul\":8077:8081   */\n      0x21\n        /* \"#utility.yul\":8074:8075   */\n      0x04\n        /* \"#utility.yul\":8067:8082   */\n      mstore\n        /* \"#utility.yul\":8101:8105   */\n      0x24\n        /* \"#utility.yul\":8098:8099   */\n      0x00\n        /* \"#utility.yul\":8091:8106   */\n      revert\n        /* \"#utility.yul\":8118:8229   */\n    tag_445:\n        /* \"#utility.yul\":8197:8198   */\n      0x03\n        /* \"#utility.yul\":8190:8195   */\n      dup2\n        /* \"#utility.yul\":8187:8199   */\n      lt\n        /* \"#utility.yul\":8177:8223   */\n      tag_604\n      jumpi\n        /* \"#utility.yul\":8203:8221   */\n      tag_605\n      tag_119\n      jump\t// in\n    tag_605:\n        /* \"#utility.yul\":8177:8223   */\n    tag_604:\n        /* \"#utility.yul\":8118:8229   */\n      pop\n      jump\t// out\n        /* \"#utility.yul\":8235:8358   */\n    tag_446:\n        /* \"#utility.yul\":8278:8285   */\n      0x00\n        /* \"#utility.yul\":8307:8312   */\n      dup2\n        /* \"#utility.yul\":8296:8312   */\n      swap1\n      pop\n        /* \"#utility.yul\":8313:8352   */\n      tag_607\n        /* \"#utility.yul\":8346:8351   */\n      dup3\n        /* \"#utility.yul\":8313:8352   */\n      tag_445\n      jump\t// in\n    tag_607:\n        /* \"#utility.yul\":8235:8358   */\n      swap2\n      swap1\n      pop\n      jump\t// out\n        /* \"#utility.yul\":8364:8487   */\n    tag_447:\n        /* \"#utility.yul\":8418:8427   */\n      0x00\n        /* \"#utility.yul\":8451:8481   */\n      tag_609\n        /* \"#utility.yul\":8475:8480   */\n      dup3\n        /* \"#utility.yul\":8451:8481   */\n      tag_446\n      jump\t// in\n    tag_609:\n        /* \"#utility.yul\":8438:8481   */\n      swap1\n      pop\n        /* \"#utility.yul\":8364:8487   */\n      swap2\n      swap1\n      pop\n      jump\t// out\n        /* \"#utility.yul\":8493:8632   */\n    tag_448:\n        /* \"#utility.yul\":8584:8625   */\n      tag_611\n        /* \"#utility.yul\":8619:8624   */\n      dup2\n        /* \"#utility.yul\":8584:8625   */\n      tag_447\n      jump\t// in\n    tag_611:\n        /* \"#utility.yul\":8579:8582   */\n      dup3\n        /* \"#utility.yul\":8572:8626   */\n      mstore\n        /* \"#utility.yul\":8493:8632   */\n      pop\n      pop\n      jump\t// out\n        /* \"#utility.yul\":8638:8868   */\n    tag_50:\n        /* \"#utility.yul\":8735:8739   */\n      0x00\n        /* \"#utility.yul\":8773:8775   */\n      0x20\n        /* \"#utility.yul\":8762:8771   */\n      dup3\n        /* \"#utility.yul\":8758:8776   */\n      add\n        /* \"#utility.yul\":8750:8776   */\n      swap1\n      pop\n        /* \"#utility.yul\":8786:8861   */\n      tag_613\n        /* \"#utility.yul\":8858:8859   */\n      0x00\n        /* \"#utility.yul\":8847:8856   */\n      dup4\n        /* \"#utility.yul\":8843:8860   */\n      add\n        /* \"#utility.yul\":8834:8840   */\n      dup5\n        /* \"#utility.yul\":8786:8861   */\n      tag_448\n      jump\t// in\n    tag_613:\n        /* \"#utility.yul\":8638:8868   */\n      swap3\n      swap2\n      pop\n      pop\n      jump\t// out\n        /* \"#utility.yul\":8874:9348   */\n    tag_53:\n        /* \"#utility.yul\":8942:8948   */\n      0x00\n        /* \"#utility.yul\":8950:8956   */\n      0x00\n        /* \"#utility.yul\":8999:9001   */\n      0x40\n        /* \"#utility.yul\":8987:8996   */\n      dup4\n        /* \"#utility.yul\":8978:8985   */\n      dup6\n        /* \"#utility.yul\":8974:8997   */\n      sub\n        /* \"#utility.yul\":8970:9002   */\n      slt\n        /* \"#utility.yul\":8967:9086   */\n      iszero\n      tag_615\n      jumpi\n        /* \"#utility.yul\":9005:9084   */\n      tag_616\n      tag_422\n      jump\t// in\n    tag_616:\n        /* \"#utility.yul\":8967:9086   */\n    tag_615:\n        /* \"#utility.yul\":9125:9126   */\n      0x00\n        /* \"#utility.yul\":9150:9203   */\n      tag_617\n        /* \"#utility.yul\":9195:9202   */\n      dup6\n        /* \"#utility.yul\":9186:9192   */\n      dup3\n        /* \"#utility.yul\":9175:9184   */\n      dup7\n        /* \"#utility.yul\":9171:9193   */\n      add\n        /* \"#utility.yul\":9150:9203   */\n      tag_426\n      jump\t// in\n    tag_617:\n        /* \"#utility.yul\":9140:9203   */\n      swap3\n      pop\n        /* \"#utility.yul\":9096:9213   */\n      pop\n        /* \"#utility.yul\":9252:9254   */\n      0x20\n        /* \"#utility.yul\":9278:9331   */\n      tag_618\n        /* \"#utility.yul\":9323:9330   */\n      dup6\n        /* \"#utility.yul\":9314:9320   */\n      dup3\n        /* \"#utility.yul\":9303:9312   */\n      dup7\n        /* \"#utility.yul\":9299:9321   */\n      add\n        /* \"#utility.yul\":9278:9331   */\n      tag_426\n      jump\t// in\n    tag_618:\n        /* \"#utility.yul\":9268:9331   */\n      swap2\n      pop\n        /* \"#utility.yul\":9223:9341   */\n      pop\n        /* \"#utility.yul\":8874:9348   */\n      swap3\n      pop\n      swap3\n      swap1\n      pop\n      jump\t// out\n        /* \"#utility.yul\":9400:10373   */\n    tag_449:\n        /* \"#utility.yul\":9525:9528   */\n      0x00\n        /* \"#utility.yul\":9561:9565   */\n      0x80\n        /* \"#utility.yul\":9556:9559   */\n      dup4\n        /* \"#utility.yul\":9552:9566   */\n      add\n        /* \"#utility.yul\":9656:9660   */\n      0x00\n        /* \"#utility.yul\":9649:9654   */\n      dup4\n        /* \"#utility.yul\":9645:9661   */\n      add\n        /* \"#utility.yul\":9639:9662   */\n      mload\n        /* \"#utility.yul\":9675:9738   */\n      tag_620\n        /* \"#utility.yul\":9732:9736   */\n      0x00\n        /* \"#utility.yul\":9727:9730   */\n      dup7\n        /* \"#utility.yul\":9723:9737   */\n      add\n        /* \"#utility.yul\":9709:9721   */\n      dup3\n        /* \"#utility.yul\":9675:9738   */\n      tag_432\n      jump\t// in\n    tag_620:\n        /* \"#utility.yul\":9576:9748   */\n      pop\n        /* \"#utility.yul\":9830:9834   */\n      0x20\n        /* \"#utility.yul\":9823:9828   */\n      dup4\n        /* \"#utility.yul\":9819:9835   */\n      add\n        /* \"#utility.yul\":9813:9836   */\n      mload\n        /* \"#utility.yul\":9883:9886   */\n      dup5\n        /* \"#utility.yul\":9877:9881   */\n      dup3\n        /* \"#utility.yul\":9873:9887   */\n      sub\n        /* \"#utility.yul\":9866:9870   */\n      0x20\n        /* \"#utility.yul\":9861:9864   */\n      dup7\n        /* \"#utility.yul\":9857:9871   */\n      add\n        /* \"#utility.yul\":9850:9888   */\n      mstore\n        /* \"#utility.yul\":9909:9982   */\n      tag_621\n        /* \"#utility.yul\":9977:9981   */\n      dup3\n        /* \"#utility.yul\":9963:9975   */\n      dup3\n        /* \"#utility.yul\":9909:9982   */\n      tag_437\n      jump\t// in\n    tag_621:\n        /* \"#utility.yul\":9901:9982   */\n      swap2\n      pop\n        /* \"#utility.yul\":9758:9993   */\n      pop\n        /* \"#utility.yul\":10079:10083   */\n      0x40\n        /* \"#utility.yul\":10072:10077   */\n      dup4\n        /* \"#utility.yul\":10068:10084   */\n      add\n        /* \"#utility.yul\":10062:10085   */\n      mload\n        /* \"#utility.yul\":10098:10161   */\n      tag_622\n        /* \"#utility.yul\":10155:10159   */\n      0x40\n        /* \"#utility.yul\":10150:10153   */\n      dup7\n        /* \"#utility.yul\":10146:10160   */\n      add\n        /* \"#utility.yul\":10132:10144   */\n      dup3\n        /* \"#utility.yul\":10098:10161   */\n      tag_432\n      jump\t// in\n    tag_622:\n        /* \"#utility.yul\":10003:10171   */\n      pop\n        /* \"#utility.yul\":10254:10258   */\n      0x60\n        /* \"#utility.yul\":10247:10252   */\n      dup4\n        /* \"#utility.yul\":10243:10259   */\n      add\n        /* \"#utility.yul\":10237:10260   */\n      mload\n        /* \"#utility.yul\":10273:10336   */\n      tag_623\n        /* \"#utility.yul\":10330:10334   */\n      0x60\n        /* \"#utility.yul\":10325:10328   */\n      dup7\n        /* \"#utility.yul\":10321:10335   */\n      add\n        /* \"#utility.yul\":10307:10319   */\n      dup3\n        /* \"#utility.yul\":10273:10336   */\n      tag_432\n      jump\t// in\n    tag_623:\n        /* \"#utility.yul\":10181:10346   */\n      pop\n        /* \"#utility.yul\":10363:10367   */\n      dup1\n        /* \"#utility.yul\":10356:10367   */\n      swap2\n      pop\n        /* \"#utility.yul\":9530:10373   */\n      pop\n        /* \"#utility.yul\":9400:10373   */\n      swap3\n      swap2\n      pop\n      pop\n      jump\t// out\n        /* \"#utility.yul\":10379:10764   */\n    tag_56:\n        /* \"#utility.yul\":10528:10532   */\n      0x00\n        /* \"#utility.yul\":10566:10568   */\n      0x20\n        /* \"#utility.yul\":10555:10564   */\n      dup3\n        /* \"#utility.yul\":10551:10569   */\n      add\n        /* \"#utility.yul\":10543:10569   */\n      swap1\n      pop\n        /* \"#utility.yul\":10615:10624   */\n      dup2\n        /* \"#utility.yul\":10609:10613   */\n      dup2\n        /* \"#utility.yul\":10605:10625   */\n      sub\n        /* \"#utility.yul\":10601:10602   */\n      0x00\n        /* \"#utility.yul\":10590:10599   */\n      dup4\n        /* \"#utility.yul\":10586:10603   */\n      add\n        /* \"#utility.yul\":10579:10626   */\n      mstore\n        /* \"#utility.yul\":10643:10757   */\n      tag_625\n        /* \"#utility.yul\":10752:10756   */\n      dup2\n        /* \"#utility.yul\":10743:10749   */\n      dup5\n        /* \"#utility.yul\":10643:10757   */\n      tag_449\n      jump\t// in\n    tag_625:\n        /* \"#utility.yul\":10635:10757   */\n      swap1\n      pop\n        /* \"#utility.yul\":10379:10764   */\n      swap3\n      swap2\n      pop\n      pop\n      jump\t// out\n        /* \"#utility.yul\":10770:10887   */\n    tag_450:\n        /* \"#utility.yul\":10879:10880   */\n      0x00\n        /* \"#utility.yul\":10876:10877   */\n      0x00\n        /* \"#utility.yul\":10869:10881   */\n      revert\n        /* \"#utility.yul\":10893:11073   */\n    tag_307:\n        /* \"#utility.yul\":10941:11018   */\n      0x4e487b7100000000000000000000000000000000000000000000000000000000\n        /* \"#utility.yul\":10938:10939   */\n      0x00\n        /* \"#utility.yul\":10931:11019   */\n      mstore\n        /* \"#utility.yul\":11038:11042   */\n      0x41\n        /* \"#utility.yul\":11035:11036   */\n      0x04\n        /* \"#utility.yul\":11028:11043   */\n      mstore\n        /* \"#utility.yul\":11062:11066   */\n      0x24\n        /* \"#utility.yul\":11059:11060   */\n      0x00\n        /* \"#utility.yul\":11052:11067   */\n      revert\n        /* \"#utility.yul\":11079:11360   */\n    tag_451:\n        /* \"#utility.yul\":11162:11189   */\n      tag_629\n        /* \"#utility.yul\":11184:11188   */\n      dup3\n        /* \"#utility.yul\":11162:11189   */\n      tag_436\n      jump\t// in\n    tag_629:\n        /* \"#utility.yul\":11154:11160   */\n      dup2\n        /* \"#utility.yul\":11150:11190   */\n      add\n        /* \"#utility.yul\":11292:11298   */\n      dup2\n        /* \"#utility.yul\":11280:11290   */\n      dup2\n        /* \"#utility.yul\":11277:11299   */\n      lt\n        /* \"#utility.yul\":11256:11274   */\n      0xffffffffffffffff\n        /* \"#utility.yul\":11244:11254   */\n      dup3\n        /* \"#utility.yul\":11241:11275   */\n      gt\n        /* \"#utility.yul\":11238:11300   */\n      or\n        /* \"#utility.yul\":11235:11323   */\n      iszero\n      tag_630\n      jumpi\n        /* \"#utility.yul\":11303:11321   */\n      tag_631\n      tag_307\n      jump\t// in\n    tag_631:\n        /* \"#utility.yul\":11235:11323   */\n    tag_630:\n        /* \"#utility.yul\":11343:11353   */\n      dup1\n        /* \"#utility.yul\":11339:11341   */\n      0x40\n        /* \"#utility.yul\":11332:11354   */\n      mstore\n        /* \"#utility.yul\":11122:11360   */\n      pop\n        /* \"#utility.yul\":11079:11360   */\n      pop\n      pop\n      jump\t// out\n        /* \"#utility.yul\":11366:11495   */\n    tag_452:\n        /* \"#utility.yul\":11400:11406   */\n      0x00\n        /* \"#utility.yul\":11427:11447   */\n      tag_633\n      tag_421\n      jump\t// in\n    tag_633:\n        /* \"#utility.yul\":11417:11447   */\n      swap1\n      pop\n        /* \"#utility.yul\":11456:11489   */\n      tag_634\n        /* \"#utility.yul\":11484:11488   */\n      dup3\n        /* \"#utility.yul\":11476:11482   */\n      dup3\n        /* \"#utility.yul\":11456:11489   */\n      tag_451\n      jump\t// in\n    tag_634:\n        /* \"#utility.yul\":11366:11495   */\n      swap2\n      swap1\n      pop\n      jump\t// out\n        /* \"#utility.yul\":11501:11846   */\n    tag_453:\n        /* \"#utility.yul\":11612:11616   */\n      0x00\n        /* \"#utility.yul\":11702:11720   */\n      0xffffffffffffffff\n        /* \"#utility.yul\":11694:11700   */\n      dup3\n        /* \"#utility.yul\":11691:11721   */\n      gt\n        /* \"#utility.yul\":11688:11744   */\n      iszero\n      tag_636\n      jumpi\n        /* \"#utility.yul\":11724:11742   */\n      tag_637\n      tag_307\n      jump\t// in\n    tag_637:\n        /* \"#utility.yul\":11688:11744   */\n    tag_636:\n        /* \"#utility.yul\":11774:11778   */\n      0x20\n        /* \"#utility.yul\":11766:11772   */\n      dup3\n        /* \"#utility.yul\":11762:11779   */\n      mul\n        /* \"#utility.yul\":11754:11779   */\n      swap1\n      pop\n        /* \"#utility.yul\":11834:11838   */\n      0x20\n        /* \"#utility.yul\":11828:11832   */\n      dup2\n        /* \"#utility.yul\":11824:11839   */\n      add\n        /* \"#utility.yul\":11816:11839   */\n      swap1\n      pop\n        /* \"#utility.yul\":11501:11846   */\n      swap2\n      swap1\n      pop\n      jump\t// out\n        /* \"#utility.yul\":11852:11969   */\n    tag_454:\n        /* \"#utility.yul\":11961:11962   */\n      0x00\n        /* \"#utility.yul\":11958:11959   */\n      0x00\n        /* \"#utility.yul\":11951:11963   */\n      revert\n        /* \"#utility.yul\":11975:12092   */\n    tag_455:\n        /* \"#utility.yul\":12084:12085   */\n      0x00\n        /* \"#utility.yul\":12081:12082   */\n      0x00\n        /* \"#utility.yul\":12074:12086   */\n      revert\n        /* \"#utility.yul\":12098:12215   */\n    tag_456:\n        /* \"#utility.yul\":12207:12208   */\n      0x00\n        /* \"#utility.yul\":12204:12205   */\n      0x00\n        /* \"#utility.yul\":12197:12209   */\n      revert\n        /* \"#utility.yul\":12221:12338   */\n    tag_457:\n        /* \"#utility.yul\":12330:12331   */\n      0x00\n        /* \"#utility.yul\":12327:12328   */\n      0x00\n        /* \"#utility.yul\":12320:12332   */\n      revert\n        /* \"#utility.yul\":12344:12652   */\n    tag_458:\n        /* \"#utility.yul\":12406:12410   */\n      0x00\n        /* \"#utility.yul\":12496:12514   */\n      0xffffffffffffffff\n        /* \"#utility.yul\":12488:12494   */\n      dup3\n        /* \"#utility.yul\":12485:12515   */\n      gt\n        /* \"#utility.yul\":12482:12538   */\n      iszero\n      tag_643\n      jumpi\n        /* \"#utility.yul\":12518:12536   */\n      tag_644\n      tag_307\n      jump\t// in\n    tag_644:\n        /* \"#utility.yul\":12482:12538   */\n    tag_643:\n        /* \"#utility.yul\":12556:12585   */\n      tag_645\n        /* \"#utility.yul\":12578:12584   */\n      dup3\n        /* \"#utility.yul\":12556:12585   */\n      tag_436\n      jump\t// in\n    tag_645:\n        /* \"#utility.yul\":12548:12585   */\n      swap1\n      pop\n        /* \"#utility.yul\":12640:12644   */\n      0x20\n        /* \"#utility.yul\":12634:12638   */\n      dup2\n        /* \"#utility.yul\":12630:12645   */\n      add\n        /* \"#utility.yul\":12622:12645   */\n      swap1\n      pop\n        /* \"#utility.yul\":12344:12652   */\n      swap2\n      swap1\n      pop\n      jump\t// out\n        /* \"#utility.yul\":12658:12806   */\n    tag_459:\n        /* \"#utility.yul\":12756:12762   */\n      dup3\n        /* \"#utility.yul\":12751:12754   */\n      dup2\n        /* \"#utility.yul\":12746:12749   */\n      dup4\n        /* \"#utility.yul\":12733:12763   */\n      calldatacopy\n        /* \"#utility.yul\":12797:12798   */\n      0x00\n        /* \"#utility.yul\":12788:12794   */\n      dup4\n        /* \"#utility.yul\":12783:12786   */\n      dup4\n        /* \"#utility.yul\":12779:12795   */\n      add\n        /* \"#utility.yul\":12772:12799   */\n      mstore\n        /* \"#utility.yul\":12658:12806   */\n      pop\n      pop\n      pop\n      jump\t// out\n        /* \"#utility.yul\":12812:13237   */\n    tag_460:\n        /* \"#utility.yul\":12890:12895   */\n      0x00\n        /* \"#utility.yul\":12915:12981   */\n      tag_648\n        /* \"#utility.yul\":12931:12980   */\n      tag_649\n        /* \"#utility.yul\":12973:12979   */\n      dup5\n        /* \"#utility.yul\":12931:12980   */\n      tag_458\n      jump\t// in\n    tag_649:\n        /* \"#utility.yul\":12915:12981   */\n      tag_452\n      jump\t// in\n    tag_648:\n        /* \"#utility.yul\":12906:12981   */\n      swap1\n      pop\n        /* \"#utility.yul\":13004:13010   */\n      dup3\n        /* \"#utility.yul\":12997:13002   */\n      dup2\n        /* \"#utility.yul\":12990:13011   */\n      mstore\n        /* \"#utility.yul\":13042:13046   */\n      0x20\n        /* \"#utility.yul\":13035:13040   */\n      dup2\n        /* \"#utility.yul\":13031:13047   */\n      add\n        /* \"#utility.yul\":13080:13083   */\n      dup5\n        /* \"#utility.yul\":13071:13077   */\n      dup5\n        /* \"#utility.yul\":13066:13069   */\n      dup5\n        /* \"#utility.yul\":13062:13078   */\n      add\n        /* \"#utility.yul\":13059:13084   */\n      gt\n        /* \"#utility.yul\":13056:13168   */\n      iszero\n      tag_650\n      jumpi\n        /* \"#utility.yul\":13087:13166   */\n      tag_651\n      tag_457\n      jump\t// in\n    tag_651:\n        /* \"#utility.yul\":13056:13168   */\n    tag_650:\n        /* \"#utility.yul\":13177:13231   */\n      tag_652\n        /* \"#utility.yul\":13224:13230   */\n      dup5\n        /* \"#utility.yul\":13219:13222   */\n      dup3\n        /* \"#utility.yul\":13214:13217   */\n      dup6\n        /* \"#utility.yul\":13177:13231   */\n      tag_459\n      jump\t// in\n    tag_652:\n        /* \"#utility.yul\":12896:13237   */\n      pop\n        /* \"#utility.yul\":12812:13237   */\n      swap4\n      swap3\n      pop\n      pop\n      pop\n      jump\t// out\n        /* \"#utility.yul\":13257:13597   */\n    tag_461:\n        /* \"#utility.yul\":13313:13318   */\n      0x00\n        /* \"#utility.yul\":13362:13365   */\n      dup3\n        /* \"#utility.yul\":13355:13359   */\n      0x1f\n        /* \"#utility.yul\":13347:13353   */\n      dup4\n        /* \"#utility.yul\":13343:13360   */\n      add\n        /* \"#utility.yul\":13339:13366   */\n      slt\n        /* \"#utility.yul\":13329:13451   */\n      tag_654\n      jumpi\n        /* \"#utility.yul\":13370:13449   */\n      tag_655\n      tag_450\n      jump\t// in\n    tag_655:\n        /* \"#utility.yul\":13329:13451   */\n    tag_654:\n        /* \"#utility.yul\":13487:13493   */\n      dup2\n        /* \"#utility.yul\":13474:13494   */\n      calldataload\n        /* \"#utility.yul\":13512:13591   */\n      tag_656\n        /* \"#utility.yul\":13587:13590   */\n      dup5\n        /* \"#utility.yul\":13579:13585   */\n      dup3\n        /* \"#utility.yul\":13572:13576   */\n      0x20\n        /* \"#utility.yul\":13564:13570   */\n      dup7\n        /* \"#utility.yul\":13560:13577   */\n      add\n        /* \"#utility.yul\":13512:13591   */\n      tag_460\n      jump\t// in\n    tag_656:\n        /* \"#utility.yul\":13503:13591   */\n      swap2\n      pop\n        /* \"#utility.yul\":13319:13597   */\n      pop\n        /* \"#utility.yul\":13257:13597   */\n      swap3\n      swap2\n      pop\n      pop\n      jump\t// out\n        /* \"#utility.yul\":13634:14553   */\n    tag_462:\n        /* \"#utility.yul\":13717:13722   */\n      0x00\n        /* \"#utility.yul\":13761:13765   */\n      0x60\n        /* \"#utility.yul\":13749:13758   */\n      dup3\n        /* \"#utility.yul\":13744:13747   */\n      dup5\n        /* \"#utility.yul\":13740:13759   */\n      sub\n        /* \"#utility.yul\":13736:13766   */\n      slt\n        /* \"#utility.yul\":13733:13850   */\n      iszero\n      tag_658\n      jumpi\n        /* \"#utility.yul\":13769:13848   */\n      tag_659\n      tag_455\n      jump\t// in\n    tag_659:\n        /* \"#utility.yul\":13733:13850   */\n    tag_658:\n        /* \"#utility.yul\":13868:13889   */\n      tag_660\n        /* \"#utility.yul\":13884:13888   */\n      0x60\n        /* \"#utility.yul\":13868:13889   */\n      tag_452\n      jump\t// in\n    tag_660:\n        /* \"#utility.yul\":13859:13889   */\n      swap1\n      pop\n        /* \"#utility.yul\":13976:13977   */\n      0x00\n        /* \"#utility.yul\":13965:13974   */\n      dup3\n        /* \"#utility.yul\":13961:13978   */\n      add\n        /* \"#utility.yul\":13948:13979   */\n      calldataload\n        /* \"#utility.yul\":14006:14024   */\n      0xffffffffffffffff\n        /* \"#utility.yul\":13998:14004   */\n      dup2\n        /* \"#utility.yul\":13995:14025   */\n      gt\n        /* \"#utility.yul\":13992:14109   */\n      iszero\n      tag_661\n      jumpi\n        /* \"#utility.yul\":14028:14107   */\n      tag_662\n      tag_456\n      jump\t// in\n    tag_662:\n        /* \"#utility.yul\":13992:14109   */\n    tag_661:\n        /* \"#utility.yul\":14148:14207   */\n      tag_663\n        /* \"#utility.yul\":14203:14206   */\n      dup5\n        /* \"#utility.yul\":14194:14200   */\n      dup3\n        /* \"#utility.yul\":14183:14192   */\n      dup6\n        /* \"#utility.yul\":14179:14201   */\n      add\n        /* \"#utility.yul\":14148:14207   */\n      tag_461\n      jump\t// in\n    tag_663:\n        /* \"#utility.yul\":14141:14145   */\n      0x00\n        /* \"#utility.yul\":14134:14139   */\n      dup4\n        /* \"#utility.yul\":14130:14146   */\n      add\n        /* \"#utility.yul\":14123:14208   */\n      mstore\n        /* \"#utility.yul\":13899:14219   */\n      pop\n        /* \"#utility.yul\":14282:14284   */\n      0x20\n        /* \"#utility.yul\":14323:14372   */\n      tag_664\n        /* \"#utility.yul\":14368:14371   */\n      dup5\n        /* \"#utility.yul\":14359:14365   */\n      dup3\n        /* \"#utility.yul\":14348:14357   */\n      dup6\n        /* \"#utility.yul\":14344:14366   */\n      add\n        /* \"#utility.yul\":14323:14372   */\n      tag_426\n      jump\t// in\n    tag_664:\n        /* \"#utility.yul\":14316:14320   */\n      0x20\n        /* \"#utility.yul\":14309:14314   */\n      dup4\n        /* \"#utility.yul\":14305:14321   */\n      add\n        /* \"#utility.yul\":14298:14373   */\n      mstore\n        /* \"#utility.yul\":14229:14384   */\n      pop\n        /* \"#utility.yul\":14444:14446   */\n      0x40\n        /* \"#utility.yul\":14485:14534   */\n      tag_665\n        /* \"#utility.yul\":14530:14533   */\n      dup5\n        /* \"#utility.yul\":14521:14527   */\n      dup3\n        /* \"#utility.yul\":14510:14519   */\n      dup6\n        /* \"#utility.yul\":14506:14528   */\n      add\n        /* \"#utility.yul\":14485:14534   */\n      tag_426\n      jump\t// in\n    tag_665:\n        /* \"#utility.yul\":14478:14482   */\n      0x40\n        /* \"#utility.yul\":14471:14476   */\n      dup4\n        /* \"#utility.yul\":14467:14483   */\n      add\n        /* \"#utility.yul\":14460:14535   */\n      mstore\n        /* \"#utility.yul\":14394:14546   */\n      pop\n        /* \"#utility.yul\":13634:14553   */\n      swap3\n      swap2\n      pop\n      pop\n      jump\t// out\n        /* \"#utility.yul\":14592:15609   */\n    tag_463:\n        /* \"#utility.yul\":14722:14727   */\n      0x00\n        /* \"#utility.yul\":14747:14862   */\n      tag_667\n        /* \"#utility.yul\":14763:14861   */\n      tag_668\n        /* \"#utility.yul\":14854:14860   */\n      dup5\n        /* \"#utility.yul\":14763:14861   */\n      tag_453\n      jump\t// in\n    tag_668:\n        /* \"#utility.yul\":14747:14862   */\n      tag_452\n      jump\t// in\n    tag_667:\n        /* \"#utility.yul\":14738:14862   */\n      swap1\n      pop\n        /* \"#utility.yul\":14882:14887   */\n      dup1\n        /* \"#utility.yul\":14911:14917   */\n      dup4\n        /* \"#utility.yul\":14904:14909   */\n      dup3\n        /* \"#utility.yul\":14897:14918   */\n      mstore\n        /* \"#utility.yul\":14945:14949   */\n      0x20\n        /* \"#utility.yul\":14938:14943   */\n      dup3\n        /* \"#utility.yul\":14934:14950   */\n      add\n        /* \"#utility.yul\":14927:14950   */\n      swap1\n      pop\n        /* \"#utility.yul\":14998:15002   */\n      0x20\n        /* \"#utility.yul\":14990:14996   */\n      dup5\n        /* \"#utility.yul\":14986:15003   */\n      mul\n        /* \"#utility.yul\":14978:14984   */\n      dup4\n        /* \"#utility.yul\":14974:15004   */\n      add\n        /* \"#utility.yul\":15027:15030   */\n      dup6\n        /* \"#utility.yul\":15019:15025   */\n      dup2\n        /* \"#utility.yul\":15016:15031   */\n      gt\n        /* \"#utility.yul\":15013:15135   */\n      iszero\n      tag_669\n      jumpi\n        /* \"#utility.yul\":15046:15125   */\n      tag_670\n      tag_454\n      jump\t// in\n    tag_670:\n        /* \"#utility.yul\":15013:15135   */\n    tag_669:\n        /* \"#utility.yul\":15161:15167   */\n      dup4\n        /* \"#utility.yul\":15144:15603   */\n    tag_671:\n        /* \"#utility.yul\":15178:15184   */\n      dup2\n        /* \"#utility.yul\":15173:15176   */\n      dup2\n        /* \"#utility.yul\":15170:15185   */\n      lt\n        /* \"#utility.yul\":15144:15603   */\n      iszero\n      tag_673\n      jumpi\n        /* \"#utility.yul\":15267:15270   */\n      dup1\n        /* \"#utility.yul\":15254:15271   */\n      calldataload\n        /* \"#utility.yul\":15303:15321   */\n      0xffffffffffffffff\n        /* \"#utility.yul\":15290:15301   */\n      dup2\n        /* \"#utility.yul\":15287:15322   */\n      gt\n        /* \"#utility.yul\":15284:15406   */\n      iszero\n      tag_674\n      jumpi\n        /* \"#utility.yul\":15325:15404   */\n      tag_675\n      tag_450\n      jump\t// in\n    tag_675:\n        /* \"#utility.yul\":15284:15406   */\n    tag_674:\n        /* \"#utility.yul\":15449:15460   */\n      dup1\n        /* \"#utility.yul\":15441:15447   */\n      dup7\n        /* \"#utility.yul\":15437:15461   */\n      add\n        /* \"#utility.yul\":15487:15558   */\n      tag_676\n        /* \"#utility.yul\":15554:15557   */\n      dup10\n        /* \"#utility.yul\":15542:15552   */\n      dup3\n        /* \"#utility.yul\":15487:15558   */\n      tag_462\n      jump\t// in\n    tag_676:\n        /* \"#utility.yul\":15482:15485   */\n      dup6\n        /* \"#utility.yul\":15475:15559   */\n      mstore\n        /* \"#utility.yul\":15588:15592   */\n      0x20\n        /* \"#utility.yul\":15583:15586   */\n      dup6\n        /* \"#utility.yul\":15579:15593   */\n      add\n        /* \"#utility.yul\":15572:15593   */\n      swap5\n      pop\n        /* \"#utility.yul\":15220:15603   */\n      pop\n      pop\n        /* \"#utility.yul\":15204:15208   */\n      0x20\n        /* \"#utility.yul\":15199:15202   */\n      dup2\n        /* \"#utility.yul\":15195:15209   */\n      add\n        /* \"#utility.yul\":15188:15209   */\n      swap1\n      pop\n        /* \"#utility.yul\":15144:15603   */\n      jump(tag_671)\n    tag_673:\n        /* \"#utility.yul\":15148:15169   */\n      pop\n        /* \"#utility.yul\":14728:15609   */\n      pop\n      pop\n        /* \"#utility.yul\":14592:15609   */\n      swap4\n      swap3\n      pop\n      pop\n      pop\n      jump\t// out\n        /* \"#utility.yul\":15648:16086   */\n    tag_464:\n        /* \"#utility.yul\":15753:15758   */\n      0x00\n        /* \"#utility.yul\":15802:15805   */\n      dup3\n        /* \"#utility.yul\":15795:15799   */\n      0x1f\n        /* \"#utility.yul\":15787:15793   */\n      dup4\n        /* \"#utility.yul\":15783:15800   */\n      add\n        /* \"#utility.yul\":15779:15806   */\n      slt\n        /* \"#utility.yul\":15769:15891   */\n      tag_678\n      jumpi\n        /* \"#utility.yul\":15810:15889   */\n      tag_679\n      tag_450\n      jump\t// in\n    tag_679:\n        /* \"#utility.yul\":15769:15891   */\n    tag_678:\n        /* \"#utility.yul\":15927:15933   */\n      dup2\n        /* \"#utility.yul\":15914:15934   */\n      calldataload\n        /* \"#utility.yul\":15952:16080   */\n      tag_680\n        /* \"#utility.yul\":16076:16079   */\n      dup5\n        /* \"#utility.yul\":16068:16074   */\n      dup3\n        /* \"#utility.yul\":16061:16065   */\n      0x20\n        /* \"#utility.yul\":16053:16059   */\n      dup7\n        /* \"#utility.yul\":16049:16066   */\n      add\n        /* \"#utility.yul\":15952:16080   */\n      tag_463\n      jump\t// in\n    tag_680:\n        /* \"#utility.yul\":15943:16080   */\n      swap2\n      pop\n        /* \"#utility.yul\":15759:16086   */\n      pop\n        /* \"#utility.yul\":15648:16086   */\n      swap3\n      swap2\n      pop\n      pop\n      jump\t// out\n        /* \"#utility.yul\":16092:16844   */\n    tag_62:\n        /* \"#utility.yul\":16219:16225   */\n      0x00\n        /* \"#utility.yul\":16227:16233   */\n      0x00\n        /* \"#utility.yul\":16276:16278   */\n      0x40\n        /* \"#utility.yul\":16264:16273   */\n      dup4\n        /* \"#utility.yul\":16255:16262   */\n      dup6\n        /* \"#utility.yul\":16251:16274   */\n      sub\n        /* \"#utility.yul\":16247:16279   */\n      slt\n        /* \"#utility.yul\":16244:16363   */\n      iszero\n      tag_682\n      jumpi\n        /* \"#utility.yul\":16282:16361   */\n      tag_683\n      tag_422\n      jump\t// in\n    tag_683:\n        /* \"#utility.yul\":16244:16363   */\n    tag_682:\n        /* \"#utility.yul\":16402:16403   */\n      0x00\n        /* \"#utility.yul\":16427:16480   */\n      tag_684\n        /* \"#utility.yul\":16472:16479   */\n      dup6\n        /* \"#utility.yul\":16463:16469   */\n      dup3\n        /* \"#utility.yul\":16452:16461   */\n      dup7\n        /* \"#utility.yul\":16448:16470   */\n      add\n        /* \"#utility.yul\":16427:16480   */\n      tag_426\n      jump\t// in\n    tag_684:\n        /* \"#utility.yul\":16417:16480   */\n      swap3\n      pop\n        /* \"#utility.yul\":16373:16490   */\n      pop\n        /* \"#utility.yul\":16557:16559   */\n      0x20\n        /* \"#utility.yul\":16546:16555   */\n      dup4\n        /* \"#utility.yul\":16542:16560   */\n      add\n        /* \"#utility.yul\":16529:16561   */\n      calldataload\n        /* \"#utility.yul\":16588:16606   */\n      0xffffffffffffffff\n        /* \"#utility.yul\":16580:16586   */\n      dup2\n        /* \"#utility.yul\":16577:16607   */\n      gt\n        /* \"#utility.yul\":16574:16691   */\n      iszero\n      tag_685\n      jumpi\n        /* \"#utility.yul\":16610:16689   */\n      tag_686\n      tag_423\n      jump\t// in\n    tag_686:\n        /* \"#utility.yul\":16574:16691   */\n    tag_685:\n        /* \"#utility.yul\":16715:16827   */\n      tag_687\n        /* \"#utility.yul\":16819:16826   */\n      dup6\n        /* \"#utility.yul\":16810:16816   */\n      dup3\n        /* \"#utility.yul\":16799:16808   */\n      dup7\n        /* \"#utility.yul\":16795:16817   */\n      add\n        /* \"#utility.yul\":16715:16827   */\n      tag_464\n      jump\t// in\n    tag_687:\n        /* \"#utility.yul\":16705:16827   */\n      swap2\n      pop\n        /* \"#utility.yul\":16500:16837   */\n      pop\n        /* \"#utility.yul\":16092:16844   */\n      swap3\n      pop\n      swap3\n      swap1\n      pop\n      jump\t// out\n        /* \"#utility.yul\":16850:17171   */\n    tag_465:\n        /* \"#utility.yul\":16937:16941   */\n      0x00\n        /* \"#utility.yul\":17027:17045   */\n      0xffffffffffffffff\n        /* \"#utility.yul\":17019:17025   */\n      dup3\n        /* \"#utility.yul\":17016:17046   */\n      gt\n        /* \"#utility.yul\":17013:17069   */\n      iszero\n      tag_689\n      jumpi\n        /* \"#utility.yul\":17049:17067   */\n      tag_690\n      tag_307\n      jump\t// in\n    tag_690:\n        /* \"#utility.yul\":17013:17069   */\n    tag_689:\n        /* \"#utility.yul\":17099:17103   */\n      0x20\n        /* \"#utility.yul\":17091:17097   */\n      dup3\n        /* \"#utility.yul\":17087:17104   */\n      mul\n        /* \"#utility.yul\":17079:17104   */\n      swap1\n      pop\n        /* \"#utility.yul\":17159:17163   */\n      0x20\n        /* \"#utility.yul\":17153:17157   */\n      dup2\n        /* \"#utility.yul\":17149:17164   */\n      add\n        /* \"#utility.yul\":17141:17164   */\n      swap1\n      pop\n        /* \"#utility.yul\":16850:17171   */\n      swap2\n      swap1\n      pop\n      jump\t// out\n        /* \"#utility.yul\":17193:18138   */\n    tag_466:\n        /* \"#utility.yul\":17299:17304   */\n      0x00\n        /* \"#utility.yul\":17324:17415   */\n      tag_692\n        /* \"#utility.yul\":17340:17414   */\n      tag_693\n        /* \"#utility.yul\":17407:17413   */\n      dup5\n        /* \"#utility.yul\":17340:17414   */\n      tag_465\n      jump\t// in\n    tag_693:\n        /* \"#utility.yul\":17324:17415   */\n      tag_452\n      jump\t// in\n    tag_692:\n        /* \"#utility.yul\":17315:17415   */\n      swap1\n      pop\n        /* \"#utility.yul\":17435:17440   */\n      dup1\n        /* \"#utility.yul\":17464:17470   */\n      dup4\n        /* \"#utility.yul\":17457:17462   */\n      dup3\n        /* \"#utility.yul\":17450:17471   */\n      mstore\n        /* \"#utility.yul\":17498:17502   */\n      0x20\n        /* \"#utility.yul\":17491:17496   */\n      dup3\n        /* \"#utility.yul\":17487:17503   */\n      add\n        /* \"#utility.yul\":17480:17503   */\n      swap1\n      pop\n        /* \"#utility.yul\":17551:17555   */\n      0x20\n        /* \"#utility.yul\":17543:17549   */\n      dup5\n        /* \"#utility.yul\":17539:17556   */\n      mul\n        /* \"#utility.yul\":17531:17537   */\n      dup4\n        /* \"#utility.yul\":17527:17557   */\n      add\n        /* \"#utility.yul\":17580:17583   */\n      dup6\n        /* \"#utility.yul\":17572:17578   */\n      dup2\n        /* \"#utility.yul\":17569:17584   */\n      gt\n        /* \"#utility.yul\":17566:17688   */\n      iszero\n      tag_694\n      jumpi\n        /* \"#utility.yul\":17599:17678   */\n      tag_695\n      tag_454\n      jump\t// in\n    tag_695:\n        /* \"#utility.yul\":17566:17688   */\n    tag_694:\n        /* \"#utility.yul\":17714:17720   */\n      dup4\n        /* \"#utility.yul\":17697:18132   */\n    tag_696:\n        /* \"#utility.yul\":17731:17737   */\n      dup2\n        /* \"#utility.yul\":17726:17729   */\n      dup2\n        /* \"#utility.yul\":17723:17738   */\n      lt\n        /* \"#utility.yul\":17697:18132   */\n      iszero\n      tag_698\n      jumpi\n        /* \"#utility.yul\":17820:17823   */\n      dup1\n        /* \"#utility.yul\":17807:17824   */\n      calldataload\n        /* \"#utility.yul\":17856:17874   */\n      0xffffffffffffffff\n        /* \"#utility.yul\":17843:17854   */\n      dup2\n        /* \"#utility.yul\":17840:17875   */\n      gt\n        /* \"#utility.yul\":17837:17959   */\n      iszero\n      tag_699\n      jumpi\n        /* \"#utility.yul\":17878:17957   */\n      tag_700\n      tag_450\n      jump\t// in\n    tag_700:\n        /* \"#utility.yul\":17837:17959   */\n    tag_699:\n        /* \"#utility.yul\":18002:18013   */\n      dup1\n        /* \"#utility.yul\":17994:18000   */\n      dup7\n        /* \"#utility.yul\":17990:18014   */\n      add\n        /* \"#utility.yul\":18040:18087   */\n      tag_701\n        /* \"#utility.yul\":18083:18086   */\n      dup10\n        /* \"#utility.yul\":18071:18081   */\n      dup3\n        /* \"#utility.yul\":18040:18087   */\n      tag_461\n      jump\t// in\n    tag_701:\n        /* \"#utility.yul\":18035:18038   */\n      dup6\n        /* \"#utility.yul\":18028:18088   */\n      mstore\n        /* \"#utility.yul\":18117:18121   */\n      0x20\n        /* \"#utility.yul\":18112:18115   */\n      dup6\n        /* \"#utility.yul\":18108:18122   */\n      add\n        /* \"#utility.yul\":18101:18122   */\n      swap5\n      pop\n        /* \"#utility.yul\":17773:18132   */\n      pop\n      pop\n        /* \"#utility.yul\":17757:17761   */\n      0x20\n        /* \"#utility.yul\":17752:17755   */\n      dup2\n        /* \"#utility.yul\":17748:17762   */\n      add\n        /* \"#utility.yul\":17741:17762   */\n      swap1\n      pop\n        /* \"#utility.yul\":17697:18132   */\n      jump(tag_696)\n    tag_698:\n        /* \"#utility.yul\":17701:17722   */\n      pop\n        /* \"#utility.yul\":17305:18138   */\n      pop\n      pop\n        /* \"#utility.yul\":17193:18138   */\n      swap4\n      swap3\n      pop\n      pop\n      pop\n      jump\t// out\n        /* \"#utility.yul\":18160:18550   */\n    tag_467:\n        /* \"#utility.yul\":18241:18246   */\n      0x00\n        /* \"#utility.yul\":18290:18293   */\n      dup3\n        /* \"#utility.yul\":18283:18287   */\n      0x1f\n        /* \"#utility.yul\":18275:18281   */\n      dup4\n        /* \"#utility.yul\":18271:18288   */\n      add\n        /* \"#utility.yul\":18267:18294   */\n      slt\n        /* \"#utility.yul\":18257:18379   */\n      tag_703\n      jumpi\n        /* \"#utility.yul\":18298:18377   */\n      tag_704\n      tag_450\n      jump\t// in\n    tag_704:\n        /* \"#utility.yul\":18257:18379   */\n    tag_703:\n        /* \"#utility.yul\":18415:18421   */\n      dup2\n        /* \"#utility.yul\":18402:18422   */\n      calldataload\n        /* \"#utility.yul\":18440:18544   */\n      tag_705\n        /* \"#utility.yul\":18540:18543   */\n      dup5\n        /* \"#utility.yul\":18532:18538   */\n      dup3\n        /* \"#utility.yul\":18525:18529   */\n      0x20\n        /* \"#utility.yul\":18517:18523   */\n      dup7\n        /* \"#utility.yul\":18513:18530   */\n      add\n        /* \"#utility.yul\":18440:18544   */\n      tag_466\n      jump\t// in\n    tag_705:\n        /* \"#utility.yul\":18431:18544   */\n      swap2\n      pop\n        /* \"#utility.yul\":18247:18550   */\n      pop\n        /* \"#utility.yul\":18160:18550   */\n      swap3\n      swap2\n      pop\n      pop\n      jump\t// out\n        /* \"#utility.yul\":18556:20057   */\n    tag_66:\n        /* \"#utility.yul\":18706:18712   */\n      0x00\n        /* \"#utility.yul\":18714:18720   */\n      0x00\n        /* \"#utility.yul\":18722:18728   */\n      0x00\n        /* \"#utility.yul\":18730:18736   */\n      0x00\n        /* \"#utility.yul\":18738:18744   */\n      0x00\n        /* \"#utility.yul\":18787:18790   */\n      0xa0\n        /* \"#utility.yul\":18775:18784   */\n      dup7\n        /* \"#utility.yul\":18766:18773   */\n      dup9\n        /* \"#utility.yul\":18762:18785   */\n      sub\n        /* \"#utility.yul\":18758:18791   */\n      slt\n        /* \"#utility.yul\":18755:18875   */\n      iszero\n      tag_707\n      jumpi\n        /* \"#utility.yul\":18794:18873   */\n      tag_708\n      tag_422\n      jump\t// in\n    tag_708:\n        /* \"#utility.yul\":18755:18875   */\n    tag_707:\n        /* \"#utility.yul\":18914:18915   */\n      0x00\n        /* \"#utility.yul\":18939:18992   */\n      tag_709\n        /* \"#utility.yul\":18984:18991   */\n      dup9\n        /* \"#utility.yul\":18975:18981   */\n      dup3\n        /* \"#utility.yul\":18964:18973   */\n      dup10\n        /* \"#utility.yul\":18960:18982   */\n      add\n        /* \"#utility.yul\":18939:18992   */\n      tag_426\n      jump\t// in\n    tag_709:\n        /* \"#utility.yul\":18929:18992   */\n      swap6\n      pop\n        /* \"#utility.yul\":18885:19002   */\n      pop\n        /* \"#utility.yul\":19069:19071   */\n      0x20\n        /* \"#utility.yul\":19058:19067   */\n      dup7\n        /* \"#utility.yul\":19054:19072   */\n      add\n        /* \"#utility.yul\":19041:19073   */\n      calldataload\n        /* \"#utility.yul\":19100:19118   */\n      0xffffffffffffffff\n        /* \"#utility.yul\":19092:19098   */\n      dup2\n        /* \"#utility.yul\":19089:19119   */\n      gt\n        /* \"#utility.yul\":19086:19203   */\n      iszero\n      tag_710\n      jumpi\n        /* \"#utility.yul\":19122:19201   */\n      tag_711\n      tag_423\n      jump\t// in\n    tag_711:\n        /* \"#utility.yul\":19086:19203   */\n    tag_710:\n        /* \"#utility.yul\":19227:19290   */\n      tag_712\n        /* \"#utility.yul\":19282:19289   */\n      dup9\n        /* \"#utility.yul\":19273:19279   */\n      dup3\n        /* \"#utility.yul\":19262:19271   */\n      dup10\n        /* \"#utility.yul\":19258:19280   */\n      add\n        /* \"#utility.yul\":19227:19290   */\n      tag_461\n      jump\t// in\n    tag_712:\n        /* \"#utility.yul\":19217:19290   */\n      swap5\n      pop\n        /* \"#utility.yul\":19012:19300   */\n      pop\n        /* \"#utility.yul\":19367:19369   */\n      0x40\n        /* \"#utility.yul\":19356:19365   */\n      dup7\n        /* \"#utility.yul\":19352:19370   */\n      add\n        /* \"#utility.yul\":19339:19371   */\n      calldataload\n        /* \"#utility.yul\":19398:19416   */\n      0xffffffffffffffff\n        /* \"#utility.yul\":19390:19396   */\n      dup2\n        /* \"#utility.yul\":19387:19417   */\n      gt\n        /* \"#utility.yul\":19384:19501   */\n      iszero\n      tag_713\n      jumpi\n        /* \"#utility.yul\":19420:19499   */\n      tag_714\n      tag_423\n      jump\t// in\n    tag_714:\n        /* \"#utility.yul\":19384:19501   */\n    tag_713:\n        /* \"#utility.yul\":19525:19588   */\n      tag_715\n        /* \"#utility.yul\":19580:19587   */\n      dup9\n        /* \"#utility.yul\":19571:19577   */\n      dup3\n        /* \"#utility.yul\":19560:19569   */\n      dup10\n        /* \"#utility.yul\":19556:19578   */\n      add\n        /* \"#utility.yul\":19525:19588   */\n      tag_461\n      jump\t// in\n    tag_715:\n        /* \"#utility.yul\":19515:19588   */\n      swap4\n      pop\n        /* \"#utility.yul\":19310:19598   */\n      pop\n        /* \"#utility.yul\":19637:19639   */\n      0x60\n        /* \"#utility.yul\":19663:19716   */\n      tag_716\n        /* \"#utility.yul\":19708:19715   */\n      dup9\n        /* \"#utility.yul\":19699:19705   */\n      dup3\n        /* \"#utility.yul\":19688:19697   */\n      dup10\n        /* \"#utility.yul\":19684:19706   */\n      add\n        /* \"#utility.yul\":19663:19716   */\n      tag_426\n      jump\t// in\n    tag_716:\n        /* \"#utility.yul\":19653:19716   */\n      swap3\n      pop\n        /* \"#utility.yul\":19608:19726   */\n      pop\n        /* \"#utility.yul\":19793:19796   */\n      0x80\n        /* \"#utility.yul\":19782:19791   */\n      dup7\n        /* \"#utility.yul\":19778:19797   */\n      add\n        /* \"#utility.yul\":19765:19798   */\n      calldataload\n        /* \"#utility.yul\":19825:19843   */\n      0xffffffffffffffff\n        /* \"#utility.yul\":19817:19823   */\n      dup2\n        /* \"#utility.yul\":19814:19844   */\n      gt\n        /* \"#utility.yul\":19811:19928   */\n      iszero\n      tag_717\n      jumpi\n        /* \"#utility.yul\":19847:19926   */\n      tag_718\n      tag_423\n      jump\t// in\n    tag_718:\n        /* \"#utility.yul\":19811:19928   */\n    tag_717:\n        /* \"#utility.yul\":19952:20040   */\n      tag_719\n        /* \"#utility.yul\":20032:20039   */\n      dup9\n        /* \"#utility.yul\":20023:20029   */\n      dup3\n        /* \"#utility.yul\":20012:20021   */\n      dup10\n        /* \"#utility.yul\":20008:20030   */\n      add\n        /* \"#utility.yul\":19952:20040   */\n      tag_467\n      jump\t// in\n    tag_719:\n        /* \"#utility.yul\":19942:20040   */\n      swap2\n      pop\n        /* \"#utility.yul\":19736:20050   */\n      pop\n        /* \"#utility.yul\":18556:20057   */\n      swap3\n      swap6\n      pop\n      swap3\n      swap6\n      swap1\n      swap4\n      pop\n      jump\t// out\n        /* \"#utility.yul\":20063:20181   */\n    tag_468:\n        /* \"#utility.yul\":20150:20174   */\n      tag_721\n        /* \"#utility.yul\":20168:20173   */\n      dup2\n        /* \"#utility.yul\":20150:20174   */\n      tag_428\n      jump\t// in\n    tag_721:\n        /* \"#utility.yul\":20145:20148   */\n      dup3\n        /* \"#utility.yul\":20138:20175   */\n      mstore\n        /* \"#utility.yul\":20063:20181   */\n      pop\n      pop\n      jump\t// out\n        /* \"#utility.yul\":20187:20409   */\n    tag_74:\n        /* \"#utility.yul\":20280:20284   */\n      0x00\n        /* \"#utility.yul\":20318:20320   */\n      0x20\n        /* \"#utility.yul\":20307:20316   */\n      dup3\n        /* \"#utility.yul\":20303:20321   */\n      add\n        /* \"#utility.yul\":20295:20321   */\n      swap1\n      pop\n        /* \"#utility.yul\":20331:20402   */\n      tag_723\n        /* \"#utility.yul\":20399:20400   */\n      0x00\n        /* \"#utility.yul\":20388:20397   */\n      dup4\n        /* \"#utility.yul\":20384:20401   */\n      add\n        /* \"#utility.yul\":20375:20381   */\n      dup5\n        /* \"#utility.yul\":20331:20402   */\n      tag_468\n      jump\t// in\n    tag_723:\n        /* \"#utility.yul\":20187:20409   */\n      swap3\n      swap2\n      pop\n      pop\n      jump\t// out\n        /* \"#utility.yul\":20415:20557   */\n    tag_469:\n        /* \"#utility.yul\":20510:20516   */\n      0x00\n        /* \"#utility.yul\":20544:20549   */\n      dup2\n        /* \"#utility.yul\":20538:20550   */\n      mload\n        /* \"#utility.yul\":20528:20550   */\n      swap1\n      pop\n        /* \"#utility.yul\":20415:20557   */\n      swap2\n      swap1\n      pop\n      jump\t// out\n        /* \"#utility.yul\":20563:20775   */\n    tag_470:\n        /* \"#utility.yul\":20690:20701   */\n      0x00\n        /* \"#utility.yul\":20724:20730   */\n      dup3\n        /* \"#utility.yul\":20719:20722   */\n      dup3\n        /* \"#utility.yul\":20712:20731   */\n      mstore\n        /* \"#utility.yul\":20764:20768   */\n      0x20\n        /* \"#utility.yul\":20759:20762   */\n      dup3\n        /* \"#utility.yul\":20755:20769   */\n      add\n        /* \"#utility.yul\":20740:20769   */\n      swap1\n      pop\n        /* \"#utility.yul\":20563:20775   */\n      swap3\n      swap2\n      pop\n      pop\n      jump\t// out\n        /* \"#utility.yul\":20781:20941   */\n    tag_471:\n        /* \"#utility.yul\":20876:20880   */\n      0x00\n        /* \"#utility.yul\":20899:20902   */\n      dup2\n        /* \"#utility.yul\":20891:20902   */\n      swap1\n      pop\n        /* \"#utility.yul\":20929:20933   */\n      0x20\n        /* \"#utility.yul\":20924:20927   */\n      dup3\n        /* \"#utility.yul\":20920:20934   */\n      add\n        /* \"#utility.yul\":20912:20934   */\n      swap1\n      pop\n        /* \"#utility.yul\":20781:20941   */\n      swap2\n      swap1\n      pop\n      jump\t// out\n        /* \"#utility.yul\":20993:21956   */\n    tag_472:\n        /* \"#utility.yul\":21108:21111   */\n      0x00\n        /* \"#utility.yul\":21144:21148   */\n      0x80\n        /* \"#utility.yul\":21139:21142   */\n      dup4\n        /* \"#utility.yul\":21135:21149   */\n      add\n        /* \"#utility.yul\":21239:21243   */\n      0x00\n        /* \"#utility.yul\":21232:21237   */\n      dup4\n        /* \"#utility.yul\":21228:21244   */\n      add\n        /* \"#utility.yul\":21222:21245   */\n      mload\n        /* \"#utility.yul\":21258:21321   */\n      tag_728\n        /* \"#utility.yul\":21315:21319   */\n      0x00\n        /* \"#utility.yul\":21310:21313   */\n      dup7\n        /* \"#utility.yul\":21306:21320   */\n      add\n        /* \"#utility.yul\":21292:21304   */\n      dup3\n        /* \"#utility.yul\":21258:21321   */\n      tag_432\n      jump\t// in\n    tag_728:\n        /* \"#utility.yul\":21159:21331   */\n      pop\n        /* \"#utility.yul\":21413:21417   */\n      0x20\n        /* \"#utility.yul\":21406:21411   */\n      dup4\n        /* \"#utility.yul\":21402:21418   */\n      add\n        /* \"#utility.yul\":21396:21419   */\n      mload\n        /* \"#utility.yul\":21466:21469   */\n      dup5\n        /* \"#utility.yul\":21460:21464   */\n      dup3\n        /* \"#utility.yul\":21456:21470   */\n      sub\n        /* \"#utility.yul\":21449:21453   */\n      0x20\n        /* \"#utility.yul\":21444:21447   */\n      dup7\n        /* \"#utility.yul\":21440:21454   */\n      add\n        /* \"#utility.yul\":21433:21471   */\n      mstore\n        /* \"#utility.yul\":21492:21565   */\n      tag_729\n        /* \"#utility.yul\":21560:21564   */\n      dup3\n        /* \"#utility.yul\":21546:21558   */\n      dup3\n        /* \"#utility.yul\":21492:21565   */\n      tag_437\n      jump\t// in\n    tag_729:\n        /* \"#utility.yul\":21484:21565   */\n      swap2\n      pop\n        /* \"#utility.yul\":21341:21576   */\n      pop\n        /* \"#utility.yul\":21662:21666   */\n      0x40\n        /* \"#utility.yul\":21655:21660   */\n      dup4\n        /* \"#utility.yul\":21651:21667   */\n      add\n        /* \"#utility.yul\":21645:21668   */\n      mload\n        /* \"#utility.yul\":21681:21744   */\n      tag_730\n        /* \"#utility.yul\":21738:21742   */\n      0x40\n        /* \"#utility.yul\":21733:21736   */\n      dup7\n        /* \"#utility.yul\":21729:21743   */\n      add\n        /* \"#utility.yul\":21715:21727   */\n      dup3\n        /* \"#utility.yul\":21681:21744   */\n      tag_432\n      jump\t// in\n    tag_730:\n        /* \"#utility.yul\":21586:21754   */\n      pop\n        /* \"#utility.yul\":21837:21841   */\n      0x60\n        /* \"#utility.yul\":21830:21835   */\n      dup4\n        /* \"#utility.yul\":21826:21842   */\n      add\n        /* \"#utility.yul\":21820:21843   */\n      mload\n        /* \"#utility.yul\":21856:21919   */\n      tag_731\n        /* \"#utility.yul\":21913:21917   */\n      0x60\n        /* \"#utility.yul\":21908:21911   */\n      dup7\n        /* \"#utility.yul\":21904:21918   */\n      add\n        /* \"#utility.yul\":21890:21902   */\n      dup3\n        /* \"#utility.yul\":21856:21919   */\n      tag_432\n      jump\t// in\n    tag_731:\n        /* \"#utility.yul\":21764:21929   */\n      pop\n        /* \"#utility.yul\":21946:21950   */\n      dup1\n        /* \"#utility.yul\":21939:21950   */\n      swap2\n      pop\n        /* \"#utility.yul\":21113:21956   */\n      pop\n        /* \"#utility.yul\":20993:21956   */\n      swap3\n      swap2\n      pop\n      pop\n      jump\t// out\n        /* \"#utility.yul\":21962:22230   */\n    tag_473:\n        /* \"#utility.yul\":22087:22097   */\n      0x00\n        /* \"#utility.yul\":22122:22224   */\n      tag_733\n        /* \"#utility.yul\":22220:22223   */\n      dup4\n        /* \"#utility.yul\":22212:22218   */\n      dup4\n        /* \"#utility.yul\":22122:22224   */\n      tag_472\n      jump\t// in\n    tag_733:\n        /* \"#utility.yul\":22108:22224   */\n      swap1\n      pop\n        /* \"#utility.yul\":21962:22230   */\n      swap3\n      swap2\n      pop\n      pop\n      jump\t// out\n        /* \"#utility.yul\":22236:22377   */\n    tag_474:\n        /* \"#utility.yul\":22334:22338   */\n      0x00\n        /* \"#utility.yul\":22366:22370   */\n      0x20\n        /* \"#utility.yul\":22361:22364   */\n      dup3\n        /* \"#utility.yul\":22357:22371   */\n      add\n        /* \"#utility.yul\":22349:22371   */\n      swap1\n      pop\n        /* \"#utility.yul\":22236:22377   */\n      swap2\n      swap1\n      pop\n      jump\t// out\n        /* \"#utility.yul\":22433:23568   */\n    tag_475:\n        /* \"#utility.yul\":22608:22611   */\n      0x00\n        /* \"#utility.yul\":22637:22719   */\n      tag_736\n        /* \"#utility.yul\":22713:22718   */\n      dup3\n        /* \"#utility.yul\":22637:22719   */\n      tag_469\n      jump\t// in\n    tag_736:\n        /* \"#utility.yul\":22735:22849   */\n      tag_737\n        /* \"#utility.yul\":22842:22848   */\n      dup2\n        /* \"#utility.yul\":22837:22840   */\n      dup6\n        /* \"#utility.yul\":22735:22849   */\n      tag_470\n      jump\t// in\n    tag_737:\n        /* \"#utility.yul\":22728:22849   */\n      swap4\n      pop\n        /* \"#utility.yul\":22875:22878   */\n      dup4\n        /* \"#utility.yul\":22920:22924   */\n      0x20\n        /* \"#utility.yul\":22912:22918   */\n      dup3\n        /* \"#utility.yul\":22908:22925   */\n      mul\n        /* \"#utility.yul\":22903:22906   */\n      dup6\n        /* \"#utility.yul\":22899:22926   */\n      add\n        /* \"#utility.yul\":22950:23034   */\n      tag_738\n        /* \"#utility.yul\":23028:23033   */\n      dup6\n        /* \"#utility.yul\":22950:23034   */\n      tag_471\n      jump\t// in\n    tag_738:\n        /* \"#utility.yul\":23057:23064   */\n      dup1\n        /* \"#utility.yul\":23088:23089   */\n      0x00\n        /* \"#utility.yul\":23073:23523   */\n    tag_739:\n        /* \"#utility.yul\":23098:23104   */\n      dup6\n        /* \"#utility.yul\":23095:23096   */\n      dup2\n        /* \"#utility.yul\":23092:23105   */\n      lt\n        /* \"#utility.yul\":23073:23523   */\n      iszero\n      tag_741\n      jumpi\n        /* \"#utility.yul\":23169:23178   */\n      dup5\n        /* \"#utility.yul\":23163:23167   */\n      dup5\n        /* \"#utility.yul\":23159:23179   */\n      sub\n        /* \"#utility.yul\":23154:23157   */\n      dup10\n        /* \"#utility.yul\":23147:23180   */\n      mstore\n        /* \"#utility.yul\":23220:23226   */\n      dup2\n        /* \"#utility.yul\":23214:23227   */\n      mload\n        /* \"#utility.yul\":23248:23368   */\n      tag_742\n        /* \"#utility.yul\":23363:23367   */\n      dup6\n        /* \"#utility.yul\":23348:23361   */\n      dup3\n        /* \"#utility.yul\":23248:23368   */\n      tag_473\n      jump\t// in\n    tag_742:\n        /* \"#utility.yul\":23240:23368   */\n      swap5\n      pop\n        /* \"#utility.yul\":23391:23479   */\n      tag_743\n        /* \"#utility.yul\":23472:23478   */\n      dup4\n        /* \"#utility.yul\":23391:23479   */\n      tag_474\n      jump\t// in\n    tag_743:\n        /* \"#utility.yul\":23381:23479   */\n      swap3\n      pop\n        /* \"#utility.yul\":23508:23512   */\n      0x20\n        /* \"#utility.yul\":23503:23506   */\n      dup11\n        /* \"#utility.yul\":23499:23513   */\n      add\n        /* \"#utility.yul\":23492:23513   */\n      swap10\n      pop\n        /* \"#utility.yul\":23133:23523   */\n      pop\n        /* \"#utility.yul\":23120:23121   */\n      0x01\n        /* \"#utility.yul\":23117:23118   */\n      dup2\n        /* \"#utility.yul\":23113:23122   */\n      add\n        /* \"#utility.yul\":23108:23122   */\n      swap1\n      pop\n        /* \"#utility.yul\":23073:23523   */\n      jump(tag_739)\n    tag_741:\n        /* \"#utility.yul\":23077:23091   */\n      pop\n        /* \"#utility.yul\":23539:23543   */\n      dup3\n        /* \"#utility.yul\":23532:23543   */\n      swap8\n      pop\n        /* \"#utility.yul\":23559:23562   */\n      dup8\n        /* \"#utility.yul\":23552:23562   */\n      swap6\n      pop\n        /* \"#utility.yul\":22613:23568   */\n      pop\n      pop\n      pop\n      pop\n      pop\n        /* \"#utility.yul\":22433:23568   */\n      swap3\n      swap2\n      pop\n      pop\n      jump\t// out\n        /* \"#utility.yul\":23574:24059   */\n    tag_82:\n        /* \"#utility.yul\":23773:23777   */\n      0x00\n        /* \"#utility.yul\":23811:23813   */\n      0x20\n        /* \"#utility.yul\":23800:23809   */\n      dup3\n        /* \"#utility.yul\":23796:23814   */\n      add\n        /* \"#utility.yul\":23788:23814   */\n      swap1\n      pop\n        /* \"#utility.yul\":23860:23869   */\n      dup2\n        /* \"#utility.yul\":23854:23858   */\n      dup2\n        /* \"#utility.yul\":23850:23870   */\n      sub\n        /* \"#utility.yul\":23846:23847   */\n      0x00\n        /* \"#utility.yul\":23835:23844   */\n      dup4\n        /* \"#utility.yul\":23831:23848   */\n      add\n        /* \"#utility.yul\":23824:23871   */\n      mstore\n        /* \"#utility.yul\":23888:24052   */\n      tag_745\n        /* \"#utility.yul\":24047:24051   */\n      dup2\n        /* \"#utility.yul\":24038:24044   */\n      dup5\n        /* \"#utility.yul\":23888:24052   */\n      tag_475\n      jump\t// in\n    tag_745:\n        /* \"#utility.yul\":23880:24052   */\n      swap1\n      pop\n        /* \"#utility.yul\":23574:24059   */\n      swap3\n      swap2\n      pop\n      pop\n      jump\t// out\n        /* \"#utility.yul\":24065:25990   */\n    tag_85:\n        /* \"#utility.yul\":24283:24289   */\n      0x00\n        /* \"#utility.yul\":24291:24297   */\n      0x00\n        /* \"#utility.yul\":24299:24305   */\n      0x00\n        /* \"#utility.yul\":24307:24313   */\n      0x00\n        /* \"#utility.yul\":24315:24321   */\n      0x00\n        /* \"#utility.yul\":24323:24329   */\n      0x00\n        /* \"#utility.yul\":24372:24375   */\n      0xc0\n        /* \"#utility.yul\":24360:24369   */\n      dup8\n        /* \"#utility.yul\":24351:24358   */\n      dup10\n        /* \"#utility.yul\":24347:24370   */\n      sub\n        /* \"#utility.yul\":24343:24376   */\n      slt\n        /* \"#utility.yul\":24340:24460   */\n      iszero\n      tag_747\n      jumpi\n        /* \"#utility.yul\":24379:24458   */\n      tag_748\n      tag_422\n      jump\t// in\n    tag_748:\n        /* \"#utility.yul\":24340:24460   */\n    tag_747:\n        /* \"#utility.yul\":24499:24500   */\n      0x00\n        /* \"#utility.yul\":24524:24577   */\n      tag_749\n        /* \"#utility.yul\":24569:24576   */\n      dup10\n        /* \"#utility.yul\":24560:24566   */\n      dup3\n        /* \"#utility.yul\":24549:24558   */\n      dup11\n        /* \"#utility.yul\":24545:24567   */\n      add\n        /* \"#utility.yul\":24524:24577   */\n      tag_426\n      jump\t// in\n    tag_749:\n        /* \"#utility.yul\":24514:24577   */\n      swap7\n      pop\n        /* \"#utility.yul\":24470:24587   */\n      pop\n        /* \"#utility.yul\":24654:24656   */\n      0x20\n        /* \"#utility.yul\":24643:24652   */\n      dup8\n        /* \"#utility.yul\":24639:24657   */\n      add\n        /* \"#utility.yul\":24626:24658   */\n      calldataload\n        /* \"#utility.yul\":24685:24703   */\n      0xffffffffffffffff\n        /* \"#utility.yul\":24677:24683   */\n      dup2\n        /* \"#utility.yul\":24674:24704   */\n      gt\n        /* \"#utility.yul\":24671:24788   */\n      iszero\n      tag_750\n      jumpi\n        /* \"#utility.yul\":24707:24786   */\n      tag_751\n      tag_423\n      jump\t// in\n    tag_751:\n        /* \"#utility.yul\":24671:24788   */\n    tag_750:\n        /* \"#utility.yul\":24812:24875   */\n      tag_752\n        /* \"#utility.yul\":24867:24874   */\n      dup10\n        /* \"#utility.yul\":24858:24864   */\n      dup3\n        /* \"#utility.yul\":24847:24856   */\n      dup11\n        /* \"#utility.yul\":24843:24865   */\n      add\n        /* \"#utility.yul\":24812:24875   */\n      tag_461\n      jump\t// in\n    tag_752:\n        /* \"#utility.yul\":24802:24875   */\n      swap6\n      pop\n        /* \"#utility.yul\":24597:24885   */\n      pop\n        /* \"#utility.yul\":24952:24954   */\n      0x40\n        /* \"#utility.yul\":24941:24950   */\n      dup8\n        /* \"#utility.yul\":24937:24955   */\n      add\n        /* \"#utility.yul\":24924:24956   */\n      calldataload\n        /* \"#utility.yul\":24983:25001   */\n      0xffffffffffffffff\n        /* \"#utility.yul\":24975:24981   */\n      dup2\n        /* \"#utility.yul\":24972:25002   */\n      gt\n        /* \"#utility.yul\":24969:25086   */\n      iszero\n      tag_753\n      jumpi\n        /* \"#utility.yul\":25005:25084   */\n      tag_754\n      tag_423\n      jump\t// in\n    tag_754:\n        /* \"#utility.yul\":24969:25086   */\n    tag_753:\n        /* \"#utility.yul\":25110:25173   */\n      tag_755\n        /* \"#utility.yul\":25165:25172   */\n      dup10\n        /* \"#utility.yul\":25156:25162   */\n      dup3\n        /* \"#utility.yul\":25145:25154   */\n      dup11\n        /* \"#utility.yul\":25141:25163   */\n      add\n        /* \"#utility.yul\":25110:25173   */\n      tag_461\n      jump\t// in\n    tag_755:\n        /* \"#utility.yul\":25100:25173   */\n      swap5\n      pop\n        /* \"#utility.yul\":24895:25183   */\n      pop\n        /* \"#utility.yul\":25222:25224   */\n      0x60\n        /* \"#utility.yul\":25248:25301   */\n      tag_756\n        /* \"#utility.yul\":25293:25300   */\n      dup10\n        /* \"#utility.yul\":25284:25290   */\n      dup3\n        /* \"#utility.yul\":25273:25282   */\n      dup11\n        /* \"#utility.yul\":25269:25291   */\n      add\n        /* \"#utility.yul\":25248:25301   */\n      tag_426\n      jump\t// in\n    tag_756:\n        /* \"#utility.yul\":25238:25301   */\n      swap4\n      pop\n        /* \"#utility.yul\":25193:25311   */\n      pop\n        /* \"#utility.yul\":25378:25381   */\n      0x80\n        /* \"#utility.yul\":25367:25376   */\n      dup8\n        /* \"#utility.yul\":25363:25382   */\n      add\n        /* \"#utility.yul\":25350:25383   */\n      calldataload\n        /* \"#utility.yul\":25410:25428   */\n      0xffffffffffffffff\n        /* \"#utility.yul\":25402:25408   */\n      dup2\n        /* \"#utility.yul\":25399:25429   */\n      gt\n        /* \"#utility.yul\":25396:25513   */\n      iszero\n      tag_757\n      jumpi\n        /* \"#utility.yul\":25432:25511   */\n      tag_758\n      tag_423\n      jump\t// in\n    tag_758:\n        /* \"#utility.yul\":25396:25513   */\n    tag_757:\n        /* \"#utility.yul\":25537:25625   */\n      tag_759\n        /* \"#utility.yul\":25617:25624   */\n      dup10\n        /* \"#utility.yul\":25608:25614   */\n      dup3\n        /* \"#utility.yul\":25597:25606   */\n      dup11\n        /* \"#utility.yul\":25593:25615   */\n      add\n        /* \"#utility.yul\":25537:25625   */\n      tag_467\n      jump\t// in\n    tag_759:\n        /* \"#utility.yul\":25527:25625   */\n      swap3\n      pop\n        /* \"#utility.yul\":25321:25635   */\n      pop\n        /* \"#utility.yul\":25702:25705   */\n      0xa0\n        /* \"#utility.yul\":25691:25700   */\n      dup8\n        /* \"#utility.yul\":25687:25706   */\n      add\n        /* \"#utility.yul\":25674:25707   */\n      calldataload\n        /* \"#utility.yul\":25734:25752   */\n      0xffffffffffffffff\n        /* \"#utility.yul\":25726:25732   */\n      dup2\n        /* \"#utility.yul\":25723:25753   */\n      gt\n        /* \"#utility.yul\":25720:25837   */\n      iszero\n      tag_760\n      jumpi\n        /* \"#utility.yul\":25756:25835   */\n      tag_761\n      tag_423\n      jump\t// in\n    tag_761:\n        /* \"#utility.yul\":25720:25837   */\n    tag_760:\n        /* \"#utility.yul\":25861:25973   */\n      tag_762\n        /* \"#utility.yul\":25965:25972   */\n      dup10\n        /* \"#utility.yul\":25956:25962   */\n      dup3\n        /* \"#utility.yul\":25945:25954   */\n      dup11\n        /* \"#utility.yul\":25941:25963   */\n      add\n        /* \"#utility.yul\":25861:25973   */\n      tag_464\n      jump\t// in\n    tag_762:\n        /* \"#utility.yul\":25851:25973   */\n      swap2\n      pop\n        /* \"#utility.yul\":25645:25983   */\n      pop\n        /* \"#utility.yul\":24065:25990   */\n      swap3\n      swap6\n      pop\n      swap3\n      swap6\n      pop\n      swap3\n      swap6\n      jump\t// out\n        /* \"#utility.yul\":25996:26143   */\n    tag_476:\n        /* \"#utility.yul\":26096:26102   */\n      0x00\n        /* \"#utility.yul\":26130:26135   */\n      dup2\n        /* \"#utility.yul\":26124:26136   */\n      mload\n        /* \"#utility.yul\":26114:26136   */\n      swap1\n      pop\n        /* \"#utility.yul\":25996:26143   */\n      swap2\n      swap1\n      pop\n      jump\t// out\n        /* \"#utility.yul\":26149:26366   */\n    tag_477:\n        /* \"#utility.yul\":26281:26292   */\n      0x00\n        /* \"#utility.yul\":26315:26321   */\n      dup3\n        /* \"#utility.yul\":26310:26313   */\n      dup3\n        /* \"#utility.yul\":26303:26322   */\n      mstore\n        /* \"#utility.yul\":26355:26359   */\n      0x20\n        /* \"#utility.yul\":26350:26353   */\n      dup3\n        /* \"#utility.yul\":26346:26360   */\n      add\n        /* \"#utility.yul\":26331:26360   */\n      swap1\n      pop\n        /* \"#utility.yul\":26149:26366   */\n      swap3\n      swap2\n      pop\n      pop\n      jump\t// out\n        /* \"#utility.yul\":26372:26537   */\n    tag_478:\n        /* \"#utility.yul\":26472:26476   */\n      0x00\n        /* \"#utility.yul\":26495:26498   */\n      dup2\n        /* \"#utility.yul\":26487:26498   */\n      swap1\n      pop\n        /* \"#utility.yul\":26525:26529   */\n      0x20\n        /* \"#utility.yul\":26520:26523   */\n      dup3\n        /* \"#utility.yul\":26516:26530   */\n      add\n        /* \"#utility.yul\":26508:26530   */\n      swap1\n      pop\n        /* \"#utility.yul\":26372:26537   */\n      swap2\n      swap1\n      pop\n      jump\t// out\n        /* \"#utility.yul\":26577:28444   */\n    tag_479:\n        /* \"#utility.yul\":26680:26683   */\n      0x00\n        /* \"#utility.yul\":26716:26722   */\n      0x0100\n        /* \"#utility.yul\":26711:26714   */\n      dup4\n        /* \"#utility.yul\":26707:26723   */\n      add\n        /* \"#utility.yul\":26807:26811   */\n      0x00\n        /* \"#utility.yul\":26800:26805   */\n      dup4\n        /* \"#utility.yul\":26796:26812   */\n      add\n        /* \"#utility.yul\":26790:26813   */\n      mload\n        /* \"#utility.yul\":26826:26889   */\n      tag_767\n        /* \"#utility.yul\":26883:26887   */\n      0x00\n        /* \"#utility.yul\":26878:26881   */\n      dup7\n        /* \"#utility.yul\":26874:26888   */\n      add\n        /* \"#utility.yul\":26860:26872   */\n      dup3\n        /* \"#utility.yul\":26826:26889   */\n      tag_432\n      jump\t// in\n    tag_767:\n        /* \"#utility.yul\":26733:26899   */\n      pop\n        /* \"#utility.yul\":26981:26985   */\n      0x20\n        /* \"#utility.yul\":26974:26979   */\n      dup4\n        /* \"#utility.yul\":26970:26986   */\n      add\n        /* \"#utility.yul\":26964:26987   */\n      mload\n        /* \"#utility.yul\":27034:27037   */\n      dup5\n        /* \"#utility.yul\":27028:27032   */\n      dup3\n        /* \"#utility.yul\":27024:27038   */\n      sub\n        /* \"#utility.yul\":27017:27021   */\n      0x20\n        /* \"#utility.yul\":27012:27015   */\n      dup7\n        /* \"#utility.yul\":27008:27022   */\n      add\n        /* \"#utility.yul\":27001:27039   */\n      mstore\n        /* \"#utility.yul\":27060:27133   */\n      tag_768\n        /* \"#utility.yul\":27128:27132   */\n      dup3\n        /* \"#utility.yul\":27114:27126   */\n      dup3\n        /* \"#utility.yul\":27060:27133   */\n      tag_437\n      jump\t// in\n    tag_768:\n        /* \"#utility.yul\":27052:27133   */\n      swap2\n      pop\n        /* \"#utility.yul\":26909:27144   */\n      pop\n        /* \"#utility.yul\":27233:27237   */\n      0x40\n        /* \"#utility.yul\":27226:27231   */\n      dup4\n        /* \"#utility.yul\":27222:27238   */\n      add\n        /* \"#utility.yul\":27216:27239   */\n      mload\n        /* \"#utility.yul\":27286:27289   */\n      dup5\n        /* \"#utility.yul\":27280:27284   */\n      dup3\n        /* \"#utility.yul\":27276:27290   */\n      sub\n        /* \"#utility.yul\":27269:27273   */\n      0x40\n        /* \"#utility.yul\":27264:27267   */\n      dup7\n        /* \"#utility.yul\":27260:27274   */\n      add\n        /* \"#utility.yul\":27253:27291   */\n      mstore\n        /* \"#utility.yul\":27312:27385   */\n      tag_769\n        /* \"#utility.yul\":27380:27384   */\n      dup3\n        /* \"#utility.yul\":27366:27378   */\n      dup3\n        /* \"#utility.yul\":27312:27385   */\n      tag_437\n      jump\t// in\n    tag_769:\n        /* \"#utility.yul\":27304:27385   */\n      swap2\n      pop\n        /* \"#utility.yul\":27154:27396   */\n      pop\n        /* \"#utility.yul\":27484:27488   */\n      0x60\n        /* \"#utility.yul\":27477:27482   */\n      dup4\n        /* \"#utility.yul\":27473:27489   */\n      add\n        /* \"#utility.yul\":27467:27490   */\n      mload\n        /* \"#utility.yul\":27503:27566   */\n      tag_770\n        /* \"#utility.yul\":27560:27564   */\n      0x60\n        /* \"#utility.yul\":27555:27558   */\n      dup7\n        /* \"#utility.yul\":27551:27565   */\n      add\n        /* \"#utility.yul\":27537:27549   */\n      dup3\n        /* \"#utility.yul\":27503:27566   */\n      tag_432\n      jump\t// in\n    tag_770:\n        /* \"#utility.yul\":27406:27576   */\n      pop\n        /* \"#utility.yul\":27662:27666   */\n      0x80\n        /* \"#utility.yul\":27655:27660   */\n      dup4\n        /* \"#utility.yul\":27651:27667   */\n      add\n        /* \"#utility.yul\":27645:27668   */\n      mload\n        /* \"#utility.yul\":27715:27718   */\n      dup5\n        /* \"#utility.yul\":27709:27713   */\n      dup3\n        /* \"#utility.yul\":27705:27719   */\n      sub\n        /* \"#utility.yul\":27698:27702   */\n      0x80\n        /* \"#utility.yul\":27693:27696   */\n      dup7\n        /* \"#utility.yul\":27689:27703   */\n      add\n        /* \"#utility.yul\":27682:27720   */\n      mstore\n        /* \"#utility.yul\":27741:27864   */\n      tag_771\n        /* \"#utility.yul\":27859:27863   */\n      dup3\n        /* \"#utility.yul\":27845:27857   */\n      dup3\n        /* \"#utility.yul\":27741:27864   */\n      tag_443\n      jump\t// in\n    tag_771:\n        /* \"#utility.yul\":27733:27864   */\n      swap2\n      pop\n        /* \"#utility.yul\":27586:27875   */\n      pop\n        /* \"#utility.yul\":27965:27969   */\n      0xa0\n        /* \"#utility.yul\":27958:27963   */\n      dup4\n        /* \"#utility.yul\":27954:27970   */\n      add\n        /* \"#utility.yul\":27948:27971   */\n      mload\n        /* \"#utility.yul\":27984:28047   */\n      tag_772\n        /* \"#utility.yul\":28041:28045   */\n      0xa0\n        /* \"#utility.yul\":28036:28039   */\n      dup7\n        /* \"#utility.yul\":28032:28046   */\n      add\n        /* \"#utility.yul\":28018:28030   */\n      dup3\n        /* \"#utility.yul\":27984:28047   */\n      tag_432\n      jump\t// in\n    tag_772:\n        /* \"#utility.yul\":27885:28057   */\n      pop\n        /* \"#utility.yul\":28144:28148   */\n      0xc0\n        /* \"#utility.yul\":28137:28142   */\n      dup4\n        /* \"#utility.yul\":28133:28149   */\n      add\n        /* \"#utility.yul\":28127:28150   */\n      mload\n        /* \"#utility.yul\":28163:28226   */\n      tag_773\n        /* \"#utility.yul\":28220:28224   */\n      0xc0\n        /* \"#utility.yul\":28215:28218   */\n      dup7\n        /* \"#utility.yul\":28211:28225   */\n      add\n        /* \"#utility.yul\":28197:28209   */\n      dup3\n        /* \"#utility.yul\":28163:28226   */\n      tag_432\n      jump\t// in\n    tag_773:\n        /* \"#utility.yul\":28067:28236   */\n      pop\n        /* \"#utility.yul\":28325:28329   */\n      0xe0\n        /* \"#utility.yul\":28318:28323   */\n      dup4\n        /* \"#utility.yul\":28314:28330   */\n      add\n        /* \"#utility.yul\":28308:28331   */\n      mload\n        /* \"#utility.yul\":28344:28407   */\n      tag_774\n        /* \"#utility.yul\":28401:28405   */\n      0xe0\n        /* \"#utility.yul\":28396:28399   */\n      dup7\n        /* \"#utility.yul\":28392:28406   */\n      add\n        /* \"#utility.yul\":28378:28390   */\n      dup3\n        /* \"#utility.yul\":28344:28407   */\n      tag_432\n      jump\t// in\n    tag_774:\n        /* \"#utility.yul\":28246:28417   */\n      pop\n        /* \"#utility.yul\":28434:28438   */\n      dup1\n        /* \"#utility.yul\":28427:28438   */\n      swap2\n      pop\n        /* \"#utility.yul\":26685:28444   */\n      pop\n        /* \"#utility.yul\":26577:28444   */\n      swap3\n      swap2\n      pop\n      pop\n      jump\t// out\n        /* \"#utility.yul\":28450:28652   */\n    tag_480:\n        /* \"#utility.yul\":28567:28578   */\n      0x00\n        /* \"#utility.yul\":28601:28607   */\n      dup3\n        /* \"#utility.yul\":28596:28599   */\n      dup3\n        /* \"#utility.yul\":28589:28608   */\n      mstore\n        /* \"#utility.yul\":28641:28645   */\n      0x20\n        /* \"#utility.yul\":28636:28639   */\n      dup3\n        /* \"#utility.yul\":28632:28646   */\n      add\n        /* \"#utility.yul\":28617:28646   */\n      swap1\n      pop\n        /* \"#utility.yul\":28450:28652   */\n      swap3\n      swap2\n      pop\n      pop\n      jump\t// out\n        /* \"#utility.yul\":28708:29823   */\n    tag_481:\n        /* \"#utility.yul\":28873:28876   */\n      0x00\n        /* \"#utility.yul\":28902:28984   */\n      tag_777\n        /* \"#utility.yul\":28978:28983   */\n      dup3\n        /* \"#utility.yul\":28902:28984   */\n      tag_469\n      jump\t// in\n    tag_777:\n        /* \"#utility.yul\":29000:29104   */\n      tag_778\n        /* \"#utility.yul\":29097:29103   */\n      dup2\n        /* \"#utility.yul\":29092:29095   */\n      dup6\n        /* \"#utility.yul\":29000:29104   */\n      tag_480\n      jump\t// in\n    tag_778:\n        /* \"#utility.yul\":28993:29104   */\n      swap4\n      pop\n        /* \"#utility.yul\":29130:29133   */\n      dup4\n        /* \"#utility.yul\":29175:29179   */\n      0x20\n        /* \"#utility.yul\":29167:29173   */\n      dup3\n        /* \"#utility.yul\":29163:29180   */\n      mul\n        /* \"#utility.yul\":29158:29161   */\n      dup6\n        /* \"#utility.yul\":29154:29181   */\n      add\n        /* \"#utility.yul\":29205:29289   */\n      tag_779\n        /* \"#utility.yul\":29283:29288   */\n      dup6\n        /* \"#utility.yul\":29205:29289   */\n      tag_471\n      jump\t// in\n    tag_779:\n        /* \"#utility.yul\":29312:29319   */\n      dup1\n        /* \"#utility.yul\":29343:29344   */\n      0x00\n        /* \"#utility.yul\":29328:29778   */\n    tag_780:\n        /* \"#utility.yul\":29353:29359   */\n      dup6\n        /* \"#utility.yul\":29350:29351   */\n      dup2\n        /* \"#utility.yul\":29347:29360   */\n      lt\n        /* \"#utility.yul\":29328:29778   */\n      iszero\n      tag_782\n      jumpi\n        /* \"#utility.yul\":29424:29433   */\n      dup5\n        /* \"#utility.yul\":29418:29422   */\n      dup5\n        /* \"#utility.yul\":29414:29434   */\n      sub\n        /* \"#utility.yul\":29409:29412   */\n      dup10\n        /* \"#utility.yul\":29402:29435   */\n      mstore\n        /* \"#utility.yul\":29475:29481   */\n      dup2\n        /* \"#utility.yul\":29469:29482   */\n      mload\n        /* \"#utility.yul\":29503:29623   */\n      tag_783\n        /* \"#utility.yul\":29618:29622   */\n      dup6\n        /* \"#utility.yul\":29603:29616   */\n      dup3\n        /* \"#utility.yul\":29503:29623   */\n      tag_473\n      jump\t// in\n    tag_783:\n        /* \"#utility.yul\":29495:29623   */\n      swap5\n      pop\n        /* \"#utility.yul\":29646:29734   */\n      tag_784\n        /* \"#utility.yul\":29727:29733   */\n      dup4\n        /* \"#utility.yul\":29646:29734   */\n      tag_474\n      jump\t// in\n    tag_784:\n        /* \"#utility.yul\":29636:29734   */\n      swap3\n      pop\n        /* \"#utility.yul\":29763:29767   */\n      0x20\n        /* \"#utility.yul\":29758:29761   */\n      dup11\n        /* \"#utility.yul\":29754:29768   */\n      add\n        /* \"#utility.yul\":29747:29768   */\n      swap10\n      pop\n        /* \"#utility.yul\":29388:29778   */\n      pop\n        /* \"#utility.yul\":29375:29376   */\n      0x01\n        /* \"#utility.yul\":29372:29373   */\n      dup2\n        /* \"#utility.yul\":29368:29377   */\n      add\n        /* \"#utility.yul\":29363:29377   */\n      swap1\n      pop\n        /* \"#utility.yul\":29328:29778   */\n      jump(tag_780)\n    tag_782:\n        /* \"#utility.yul\":29332:29346   */\n      pop\n        /* \"#utility.yul\":29794:29798   */\n      dup3\n        /* \"#utility.yul\":29787:29798   */\n      swap8\n      pop\n        /* \"#utility.yul\":29814:29817   */\n      dup8\n        /* \"#utility.yul\":29807:29817   */\n      swap6\n      pop\n        /* \"#utility.yul\":28878:29823   */\n      pop\n      pop\n      pop\n      pop\n      pop\n        /* \"#utility.yul\":28708:29823   */\n      swap3\n      swap2\n      pop\n      pop\n      jump\t// out\n        /* \"#utility.yul\":29885:30685   */\n    tag_482:\n        /* \"#utility.yul\":30010:30013   */\n      0x00\n        /* \"#utility.yul\":30046:30050   */\n      0x40\n        /* \"#utility.yul\":30041:30044   */\n      dup4\n        /* \"#utility.yul\":30037:30051   */\n      add\n        /* \"#utility.yul\":30133:30137   */\n      0x00\n        /* \"#utility.yul\":30126:30131   */\n      dup4\n        /* \"#utility.yul\":30122:30138   */\n      add\n        /* \"#utility.yul\":30116:30139   */\n      mload\n        /* \"#utility.yul\":30186:30189   */\n      dup5\n        /* \"#utility.yul\":30180:30184   */\n      dup3\n        /* \"#utility.yul\":30176:30190   */\n      sub\n        /* \"#utility.yul\":30169:30173   */\n      0x00\n        /* \"#utility.yul\":30164:30167   */\n      dup7\n        /* \"#utility.yul\":30160:30174   */\n      add\n        /* \"#utility.yul\":30153:30191   */\n      mstore\n        /* \"#utility.yul\":30212:30309   */\n      tag_786\n        /* \"#utility.yul\":30304:30308   */\n      dup3\n        /* \"#utility.yul\":30290:30302   */\n      dup3\n        /* \"#utility.yul\":30212:30309   */\n      tag_479\n      jump\t// in\n    tag_786:\n        /* \"#utility.yul\":30204:30309   */\n      swap2\n      pop\n        /* \"#utility.yul\":30061:30320   */\n      pop\n        /* \"#utility.yul\":30409:30413   */\n      0x20\n        /* \"#utility.yul\":30402:30407   */\n      dup4\n        /* \"#utility.yul\":30398:30414   */\n      add\n        /* \"#utility.yul\":30392:30415   */\n      mload\n        /* \"#utility.yul\":30462:30465   */\n      dup5\n        /* \"#utility.yul\":30456:30460   */\n      dup3\n        /* \"#utility.yul\":30452:30466   */\n      sub\n        /* \"#utility.yul\":30445:30449   */\n      0x20\n        /* \"#utility.yul\":30440:30443   */\n      dup7\n        /* \"#utility.yul\":30436:30450   */\n      add\n        /* \"#utility.yul\":30429:30467   */\n      mstore\n        /* \"#utility.yul\":30488:30647   */\n      tag_787\n        /* \"#utility.yul\":30642:30646   */\n      dup3\n        /* \"#utility.yul\":30628:30640   */\n      dup3\n        /* \"#utility.yul\":30488:30647   */\n      tag_481\n      jump\t// in\n    tag_787:\n        /* \"#utility.yul\":30480:30647   */\n      swap2\n      pop\n        /* \"#utility.yul\":30330:30658   */\n      pop\n        /* \"#utility.yul\":30675:30679   */\n      dup1\n        /* \"#utility.yul\":30668:30679   */\n      swap2\n      pop\n        /* \"#utility.yul\":30015:30685   */\n      pop\n        /* \"#utility.yul\":29885:30685   */\n      swap3\n      swap2\n      pop\n      pop\n      jump\t// out\n        /* \"#utility.yul\":30691:30979   */\n    tag_483:\n        /* \"#utility.yul\":30826:30836   */\n      0x00\n        /* \"#utility.yul\":30861:30973   */\n      tag_789\n        /* \"#utility.yul\":30969:30972   */\n      dup4\n        /* \"#utility.yul\":30961:30967   */\n      dup4\n        /* \"#utility.yul\":30861:30973   */\n      tag_482\n      jump\t// in\n    tag_789:\n        /* \"#utility.yul\":30847:30973   */\n      swap1\n      pop\n        /* \"#utility.yul\":30691:30979   */\n      swap3\n      swap2\n      pop\n      pop\n      jump\t// out\n        /* \"#utility.yul\":30985:31131   */\n    tag_484:\n        /* \"#utility.yul\":31088:31092   */\n      0x00\n        /* \"#utility.yul\":31120:31124   */\n      0x20\n        /* \"#utility.yul\":31115:31118   */\n      dup3\n        /* \"#utility.yul\":31111:31125   */\n      add\n        /* \"#utility.yul\":31103:31125   */\n      swap1\n      pop\n        /* \"#utility.yul\":30985:31131   */\n      swap2\n      swap1\n      pop\n      jump\t// out\n        /* \"#utility.yul\":31197:32372   */\n    tag_485:\n        /* \"#utility.yul\":31382:31385   */\n      0x00\n        /* \"#utility.yul\":31411:31498   */\n      tag_792\n        /* \"#utility.yul\":31492:31497   */\n      dup3\n        /* \"#utility.yul\":31411:31498   */\n      tag_476\n      jump\t// in\n    tag_792:\n        /* \"#utility.yul\":31514:31633   */\n      tag_793\n        /* \"#utility.yul\":31626:31632   */\n      dup2\n        /* \"#utility.yul\":31621:31624   */\n      dup6\n        /* \"#utility.yul\":31514:31633   */\n      tag_477\n      jump\t// in\n    tag_793:\n        /* \"#utility.yul\":31507:31633   */\n      swap4\n      pop\n        /* \"#utility.yul\":31659:31662   */\n      dup4\n        /* \"#utility.yul\":31704:31708   */\n      0x20\n        /* \"#utility.yul\":31696:31702   */\n      dup3\n        /* \"#utility.yul\":31692:31709   */\n      mul\n        /* \"#utility.yul\":31687:31690   */\n      dup6\n        /* \"#utility.yul\":31683:31710   */\n      add\n        /* \"#utility.yul\":31734:31823   */\n      tag_794\n        /* \"#utility.yul\":31817:31822   */\n      dup6\n        /* \"#utility.yul\":31734:31823   */\n      tag_478\n      jump\t// in\n    tag_794:\n        /* \"#utility.yul\":31846:31853   */\n      dup1\n        /* \"#utility.yul\":31877:31878   */\n      0x00\n        /* \"#utility.yul\":31862:32327   */\n    tag_795:\n        /* \"#utility.yul\":31887:31893   */\n      dup6\n        /* \"#utility.yul\":31884:31885   */\n      dup2\n        /* \"#utility.yul\":31881:31894   */\n      lt\n        /* \"#utility.yul\":31862:32327   */\n      iszero\n      tag_797\n      jumpi\n        /* \"#utility.yul\":31958:31967   */\n      dup5\n        /* \"#utility.yul\":31952:31956   */\n      dup5\n        /* \"#utility.yul\":31948:31968   */\n      sub\n        /* \"#utility.yul\":31943:31946   */\n      dup10\n        /* \"#utility.yul\":31936:31969   */\n      mstore\n        /* \"#utility.yul\":32009:32015   */\n      dup2\n        /* \"#utility.yul\":32003:32016   */\n      mload\n        /* \"#utility.yul\":32037:32167   */\n      tag_798\n        /* \"#utility.yul\":32162:32166   */\n      dup6\n        /* \"#utility.yul\":32147:32160   */\n      dup3\n        /* \"#utility.yul\":32037:32167   */\n      tag_483\n      jump\t// in\n    tag_798:\n        /* \"#utility.yul\":32029:32167   */\n      swap5\n      pop\n        /* \"#utility.yul\":32190:32283   */\n      tag_799\n        /* \"#utility.yul\":32276:32282   */\n      dup4\n        /* \"#utility.yul\":32190:32283   */\n      tag_484\n      jump\t// in\n    tag_799:\n        /* \"#utility.yul\":32180:32283   */\n      swap3\n      pop\n        /* \"#utility.yul\":32312:32316   */\n      0x20\n        /* \"#utility.yul\":32307:32310   */\n      dup11\n        /* \"#utility.yul\":32303:32317   */\n      add\n        /* \"#utility.yul\":32296:32317   */\n      swap10\n      pop\n        /* \"#utility.yul\":31922:32327   */\n      pop\n        /* \"#utility.yul\":31909:31910   */\n      0x01\n        /* \"#utility.yul\":31906:31907   */\n      dup2\n        /* \"#utility.yul\":31902:31911   */\n      add\n        /* \"#utility.yul\":31897:31911   */\n      swap1\n      pop\n        /* \"#utility.yul\":31862:32327   */\n      jump(tag_795)\n    tag_797:\n        /* \"#utility.yul\":31866:31880   */\n      pop\n        /* \"#utility.yul\":32343:32347   */\n      dup3\n        /* \"#utility.yul\":32336:32347   */\n      swap8\n      pop\n        /* \"#utility.yul\":32363:32366   */\n      dup8\n        /* \"#utility.yul\":32356:32366   */\n      swap6\n      pop\n        /* \"#utility.yul\":31387:32372   */\n      pop\n      pop\n      pop\n      pop\n      pop\n        /* \"#utility.yul\":31197:32372   */\n      swap3\n      swap2\n      pop\n      pop\n      jump\t// out\n        /* \"#utility.yul\":32378:32883   */\n    tag_90:\n        /* \"#utility.yul\":32587:32591   */\n      0x00\n        /* \"#utility.yul\":32625:32627   */\n      0x20\n        /* \"#utility.yul\":32614:32623   */\n      dup3\n        /* \"#utility.yul\":32610:32628   */\n      add\n        /* \"#utility.yul\":32602:32628   */\n      swap1\n      pop\n        /* \"#utility.yul\":32674:32683   */\n      dup2\n        /* \"#utility.yul\":32668:32672   */\n      dup2\n        /* \"#utility.yul\":32664:32684   */\n      sub\n        /* \"#utility.yul\":32660:32661   */\n      0x00\n        /* \"#utility.yul\":32649:32658   */\n      dup4\n        /* \"#utility.yul\":32645:32662   */\n      add\n        /* \"#utility.yul\":32638:32685   */\n      mstore\n        /* \"#utility.yul\":32702:32876   */\n      tag_801\n        /* \"#utility.yul\":32871:32875   */\n      dup2\n        /* \"#utility.yul\":32862:32868   */\n      dup5\n        /* \"#utility.yul\":32702:32876   */\n      tag_485\n      jump\t// in\n    tag_801:\n        /* \"#utility.yul\":32694:32876   */\n      swap1\n      pop\n        /* \"#utility.yul\":32378:32883   */\n      swap3\n      swap2\n      pop\n      pop\n      jump\t// out\n        /* \"#utility.yul\":32889:33736   */\n    tag_93:\n        /* \"#utility.yul\":33000:33006   */\n      0x00\n        /* \"#utility.yul\":33008:33014   */\n      0x00\n        /* \"#utility.yul\":33016:33022   */\n      0x00\n        /* \"#utility.yul\":33065:33067   */\n      0x60\n        /* \"#utility.yul\":33053:33062   */\n      dup5\n        /* \"#utility.yul\":33044:33051   */\n      dup7\n        /* \"#utility.yul\":33040:33063   */\n      sub\n        /* \"#utility.yul\":33036:33068   */\n      slt\n        /* \"#utility.yul\":33033:33152   */\n      iszero\n      tag_803\n      jumpi\n        /* \"#utility.yul\":33071:33150   */\n      tag_804\n      tag_422\n      jump\t// in\n    tag_804:\n        /* \"#utility.yul\":33033:33152   */\n    tag_803:\n        /* \"#utility.yul\":33191:33192   */\n      0x00\n        /* \"#utility.yul\":33216:33269   */\n      tag_805\n        /* \"#utility.yul\":33261:33268   */\n      dup7\n        /* \"#utility.yul\":33252:33258   */\n      dup3\n        /* \"#utility.yul\":33241:33250   */\n      dup8\n        /* \"#utility.yul\":33237:33259   */\n      add\n        /* \"#utility.yul\":33216:33269   */\n      tag_426\n      jump\t// in\n    tag_805:\n        /* \"#utility.yul\":33206:33269   */\n      swap4\n      pop\n        /* \"#utility.yul\":33162:33279   */\n      pop\n        /* \"#utility.yul\":33318:33320   */\n      0x20\n        /* \"#utility.yul\":33344:33397   */\n      tag_806\n        /* \"#utility.yul\":33389:33396   */\n      dup7\n        /* \"#utility.yul\":33380:33386   */\n      dup3\n        /* \"#utility.yul\":33369:33378   */\n      dup8\n        /* \"#utility.yul\":33365:33387   */\n      add\n        /* \"#utility.yul\":33344:33397   */\n      tag_426\n      jump\t// in\n    tag_806:\n        /* \"#utility.yul\":33334:33397   */\n      swap3\n      pop\n        /* \"#utility.yul\":33289:33407   */\n      pop\n        /* \"#utility.yul\":33474:33476   */\n      0x40\n        /* \"#utility.yul\":33463:33472   */\n      dup5\n        /* \"#utility.yul\":33459:33477   */\n      add\n        /* \"#utility.yul\":33446:33478   */\n      calldataload\n        /* \"#utility.yul\":33505:33523   */\n      0xffffffffffffffff\n        /* \"#utility.yul\":33497:33503   */\n      dup2\n        /* \"#utility.yul\":33494:33524   */\n      gt\n        /* \"#utility.yul\":33491:33608   */\n      iszero\n      tag_807\n      jumpi\n        /* \"#utility.yul\":33527:33606   */\n      tag_808\n      tag_423\n      jump\t// in\n    tag_808:\n        /* \"#utility.yul\":33491:33608   */\n    tag_807:\n        /* \"#utility.yul\":33632:33719   */\n      tag_809\n        /* \"#utility.yul\":33711:33718   */\n      dup7\n        /* \"#utility.yul\":33702:33708   */\n      dup3\n        /* \"#utility.yul\":33691:33700   */\n      dup8\n        /* \"#utility.yul\":33687:33709   */\n      add\n        /* \"#utility.yul\":33632:33719   */\n      tag_462\n      jump\t// in\n    tag_809:\n        /* \"#utility.yul\":33622:33719   */\n      swap2\n      pop\n        /* \"#utility.yul\":33417:33729   */\n      pop\n        /* \"#utility.yul\":32889:33736   */\n      swap3\n      pop\n      swap3\n      pop\n      swap3\n      jump\t// out\n        /* \"#utility.yul\":33742:33802   */\n    tag_486:\n        /* \"#utility.yul\":33770:33773   */\n      0x00\n        /* \"#utility.yul\":33791:33796   */\n      dup2\n        /* \"#utility.yul\":33784:33796   */\n      swap1\n      pop\n        /* \"#utility.yul\":33742:33802   */\n      swap2\n      swap1\n      pop\n      jump\t// out\n        /* \"#utility.yul\":33808:33950   */\n    tag_487:\n        /* \"#utility.yul\":33858:33867   */\n      0x00\n        /* \"#utility.yul\":33891:33944   */\n      tag_812\n        /* \"#utility.yul\":33909:33943   */\n      tag_813\n        /* \"#utility.yul\":33918:33942   */\n      tag_814\n        /* \"#utility.yul\":33936:33941   */\n      dup5\n        /* \"#utility.yul\":33918:33942   */\n      tag_427\n      jump\t// in\n    tag_814:\n        /* \"#utility.yul\":33909:33943   */\n      tag_486\n      jump\t// in\n    tag_813:\n        /* \"#utility.yul\":33891:33944   */\n      tag_427\n      jump\t// in\n    tag_812:\n        /* \"#utility.yul\":33878:33944   */\n      swap1\n      pop\n        /* \"#utility.yul\":33808:33950   */\n      swap2\n      swap1\n      pop\n      jump\t// out\n        /* \"#utility.yul\":33956:34082   */\n    tag_488:\n        /* \"#utility.yul\":34006:34015   */\n      0x00\n        /* \"#utility.yul\":34039:34076   */\n      tag_816\n        /* \"#utility.yul\":34070:34075   */\n      dup3\n        /* \"#utility.yul\":34039:34076   */\n      tag_487\n      jump\t// in\n    tag_816:\n        /* \"#utility.yul\":34026:34076   */\n      swap1\n      pop\n        /* \"#utility.yul\":33956:34082   */\n      swap2\n      swap1\n      pop\n      jump\t// out\n        /* \"#utility.yul\":34088:34238   */\n    tag_489:\n        /* \"#utility.yul\":34162:34171   */\n      0x00\n        /* \"#utility.yul\":34195:34232   */\n      tag_818\n        /* \"#utility.yul\":34226:34231   */\n      dup3\n        /* \"#utility.yul\":34195:34232   */\n      tag_488\n      jump\t// in\n    tag_818:\n        /* \"#utility.yul\":34182:34232   */\n      swap1\n      pop\n        /* \"#utility.yul\":34088:34238   */\n      swap2\n      swap1\n      pop\n      jump\t// out\n        /* \"#utility.yul\":34244:34423   */\n    tag_490:\n        /* \"#utility.yul\":34355:34416   */\n      tag_820\n        /* \"#utility.yul\":34410:34415   */\n      dup2\n        /* \"#utility.yul\":34355:34416   */\n      tag_489\n      jump\t// in\n    tag_820:\n        /* \"#utility.yul\":34350:34353   */\n      dup3\n        /* \"#utility.yul\":34343:34417   */\n      mstore\n        /* \"#utility.yul\":34244:34423   */\n      pop\n      pop\n      jump\t// out\n        /* \"#utility.yul\":34429:34699   */\n    tag_101:\n        /* \"#utility.yul\":34546:34550   */\n      0x00\n        /* \"#utility.yul\":34584:34586   */\n      0x20\n        /* \"#utility.yul\":34573:34582   */\n      dup3\n        /* \"#utility.yul\":34569:34587   */\n      add\n        /* \"#utility.yul\":34561:34587   */\n      swap1\n      pop\n        /* \"#utility.yul\":34597:34692   */\n      tag_822\n        /* \"#utility.yul\":34689:34690   */\n      0x00\n        /* \"#utility.yul\":34678:34687   */\n      dup4\n        /* \"#utility.yul\":34674:34691   */\n      add\n        /* \"#utility.yul\":34665:34671   */\n      dup5\n        /* \"#utility.yul\":34597:34692   */\n      tag_490\n      jump\t// in\n    tag_822:\n        /* \"#utility.yul\":34429:34699   */\n      swap3\n      swap2\n      pop\n      pop\n      jump\t// out\n        /* \"#utility.yul\":34705:34885   */\n    tag_108:\n        /* \"#utility.yul\":34753:34830   */\n      0x4e487b7100000000000000000000000000000000000000000000000000000000\n        /* \"#utility.yul\":34750:34751   */\n      0x00\n        /* \"#utility.yul\":34743:34831   */\n      mstore\n        /* \"#utility.yul\":34850:34854   */\n      0x32\n        /* \"#utility.yul\":34847:34848   */\n      0x04\n        /* \"#utility.yul\":34840:34855   */\n      mstore\n        /* \"#utility.yul\":34874:34878   */\n      0x24\n        /* \"#utility.yul\":34871:34872   */\n      0x00\n        /* \"#utility.yul\":34864:34879   */\n      revert\n        /* \"#utility.yul\":34891:35071   */\n    tag_491:\n        /* \"#utility.yul\":34939:35016   */\n      0x4e487b7100000000000000000000000000000000000000000000000000000000\n        /* \"#utility.yul\":34936:34937   */\n      0x00\n        /* \"#utility.yul\":34929:35017   */\n      mstore\n        /* \"#utility.yul\":35036:35040   */\n      0x11\n        /* \"#utility.yul\":35033:35034   */\n      0x04\n        /* \"#utility.yul\":35026:35041   */\n      mstore\n        /* \"#utility.yul\":35060:35064   */\n      0x24\n        /* \"#utility.yul\":35057:35058   */\n      0x00\n        /* \"#utility.yul\":35050:35065   */\n      revert\n        /* \"#utility.yul\":35077:35268   */\n    tag_115:\n        /* \"#utility.yul\":35117:35120   */\n      0x00\n        /* \"#utility.yul\":35136:35156   */\n      tag_826\n        /* \"#utility.yul\":35154:35155   */\n      dup3\n        /* \"#utility.yul\":35136:35156   */\n      tag_424\n      jump\t// in\n    tag_826:\n        /* \"#utility.yul\":35131:35156   */\n      swap2\n      pop\n        /* \"#utility.yul\":35170:35190   */\n      tag_827\n        /* \"#utility.yul\":35188:35189   */\n      dup4\n        /* \"#utility.yul\":35170:35190   */\n      tag_424\n      jump\t// in\n    tag_827:\n        /* \"#utility.yul\":35165:35190   */\n      swap3\n      pop\n        /* \"#utility.yul\":35213:35214   */\n      dup3\n        /* \"#utility.yul\":35210:35211   */\n      dup3\n        /* \"#utility.yul\":35206:35215   */\n      add\n        /* \"#utility.yul\":35199:35215   */\n      swap1\n      pop\n        /* \"#utility.yul\":35234:35237   */\n      dup1\n        /* \"#utility.yul\":35231:35232   */\n      dup3\n        /* \"#utility.yul\":35228:35238   */\n      gt\n        /* \"#utility.yul\":35225:35261   */\n      iszero\n      tag_828\n      jumpi\n        /* \"#utility.yul\":35241:35259   */\n      tag_829\n      tag_491\n      jump\t// in\n    tag_829:\n        /* \"#utility.yul\":35225:35261   */\n    tag_828:\n        /* \"#utility.yul\":35077:35268   */\n      swap3\n      swap2\n      pop\n      pop\n      jump\t// out\n        /* \"#utility.yul\":35274:35443   */\n    tag_492:\n        /* \"#utility.yul\":35358:35369   */\n      0x00\n        /* \"#utility.yul\":35392:35398   */\n      dup3\n        /* \"#utility.yul\":35387:35390   */\n      dup3\n        /* \"#utility.yul\":35380:35399   */\n      mstore\n        /* \"#utility.yul\":35432:35436   */\n      0x20\n        /* \"#utility.yul\":35427:35430   */\n      dup3\n        /* \"#utility.yul\":35423:35437   */\n      add\n        /* \"#utility.yul\":35408:35437   */\n      swap1\n      pop\n        /* \"#utility.yul\":35274:35443   */\n      swap3\n      swap2\n      pop\n      pop\n      jump\t// out\n        /* \"#utility.yul\":35449:35618   */\n    tag_493:\n        /* \"#utility.yul\":35589:35610   */\n      0x466f6f6420646f6573206e6f7420657869737400000000000000000000000000\n        /* \"#utility.yul\":35585:35586   */\n      0x00\n        /* \"#utility.yul\":35577:35583   */\n      dup3\n        /* \"#utility.yul\":35573:35587   */\n      add\n        /* \"#utility.yul\":35566:35611   */\n      mstore\n        /* \"#utility.yul\":35449:35618   */\n      pop\n      jump\t// out\n        /* \"#utility.yul\":35624:35990   */\n    tag_494:\n        /* \"#utility.yul\":35766:35769   */\n      0x00\n        /* \"#utility.yul\":35787:35854   */\n      tag_833\n        /* \"#utility.yul\":35851:35853   */\n      0x13\n        /* \"#utility.yul\":35846:35849   */\n      dup4\n        /* \"#utility.yul\":35787:35854   */\n      tag_492\n      jump\t// in\n    tag_833:\n        /* \"#utility.yul\":35780:35854   */\n      swap2\n      pop\n        /* \"#utility.yul\":35863:35956   */\n      tag_834\n        /* \"#utility.yul\":35952:35955   */\n      dup3\n        /* \"#utility.yul\":35863:35956   */\n      tag_493\n      jump\t// in\n    tag_834:\n        /* \"#utility.yul\":35981:35983   */\n      0x20\n        /* \"#utility.yul\":35976:35979   */\n      dup3\n        /* \"#utility.yul\":35972:35984   */\n      add\n        /* \"#utility.yul\":35965:35984   */\n      swap1\n      pop\n        /* \"#utility.yul\":35624:35990   */\n      swap2\n      swap1\n      pop\n      jump\t// out\n        /* \"#utility.yul\":35996:36415   */\n    tag_125:\n        /* \"#utility.yul\":36162:36166   */\n      0x00\n        /* \"#utility.yul\":36200:36202   */\n      0x20\n        /* \"#utility.yul\":36189:36198   */\n      dup3\n        /* \"#utility.yul\":36185:36203   */\n      add\n        /* \"#utility.yul\":36177:36203   */\n      swap1\n      pop\n        /* \"#utility.yul\":36249:36258   */\n      dup2\n        /* \"#utility.yul\":36243:36247   */\n      dup2\n        /* \"#utility.yul\":36239:36259   */\n      sub\n        /* \"#utility.yul\":36235:36236   */\n      0x00\n        /* \"#utility.yul\":36224:36233   */\n      dup4\n        /* \"#utility.yul\":36220:36237   */\n      add\n        /* \"#utility.yul\":36213:36260   */\n      mstore\n        /* \"#utility.yul\":36277:36408   */\n      tag_836\n        /* \"#utility.yul\":36403:36407   */\n      dup2\n        /* \"#utility.yul\":36277:36408   */\n      tag_494\n      jump\t// in\n    tag_836:\n        /* \"#utility.yul\":36269:36408   */\n      swap1\n      pop\n        /* \"#utility.yul\":35996:36415   */\n      swap2\n      swap1\n      pop\n      jump\t// out\n        /* \"#utility.yul\":36421:36601   */\n    tag_495:\n        /* \"#utility.yul\":36469:36546   */\n      0x4e487b7100000000000000000000000000000000000000000000000000000000\n        /* \"#utility.yul\":36466:36467   */\n      0x00\n        /* \"#utility.yul\":36459:36547   */\n      mstore\n        /* \"#utility.yul\":36566:36570   */\n      0x22\n        /* \"#utility.yul\":36563:36564   */\n      0x04\n        /* \"#utility.yul\":36556:36571   */\n      mstore\n        /* \"#utility.yul\":36590:36594   */\n      0x24\n        /* \"#utility.yul\":36587:36588   */\n      0x00\n        /* \"#utility.yul\":36580:36595   */\n      revert\n        /* \"#utility.yul\":36607:36927   */\n    tag_127:\n        /* \"#utility.yul\":36651:36657   */\n      0x00\n        /* \"#utility.yul\":36688:36689   */\n      0x02\n        /* \"#utility.yul\":36682:36686   */\n      dup3\n        /* \"#utility.yul\":36678:36690   */\n      div\n        /* \"#utility.yul\":36668:36690   */\n      swap1\n      pop\n        /* \"#utility.yul\":36735:36736   */\n      0x01\n        /* \"#utility.yul\":36729:36733   */\n      dup3\n        /* \"#utility.yul\":36725:36737   */\n      and\n        /* \"#utility.yul\":36756:36774   */\n      dup1\n        /* \"#utility.yul\":36746:36827   */\n      tag_839\n      jumpi\n        /* \"#utility.yul\":36812:36816   */\n      0x7f\n        /* \"#utility.yul\":36804:36810   */\n      dup3\n        /* \"#utility.yul\":36800:36817   */\n      and\n        /* \"#utility.yul\":36790:36817   */\n      swap2\n      pop\n        /* \"#utility.yul\":36746:36827   */\n    tag_839:\n        /* \"#utility.yul\":36874:36876   */\n      0x20\n        /* \"#utility.yul\":36866:36872   */\n      dup3\n        /* \"#utility.yul\":36863:36877   */\n      lt\n        /* \"#utility.yul\":36843:36861   */\n      dup2\n        /* \"#utility.yul\":36840:36878   */\n      sub\n        /* \"#utility.yul\":36837:36921   */\n      tag_840\n      jumpi\n        /* \"#utility.yul\":36893:36911   */\n      tag_841\n      tag_495\n      jump\t// in\n    tag_841:\n        /* \"#utility.yul\":36837:36921   */\n    tag_840:\n        /* \"#utility.yul\":36658:36927   */\n      pop\n        /* \"#utility.yul\":36607:36927   */\n      swap2\n      swap1\n      pop\n      jump\t// out\n        /* \"#utility.yul\":36933:37097   */\n    tag_496:\n        /* \"#utility.yul\":37073:37089   */\n      0x496e76616c696420666f6f644964000000000000000000000000000000000000\n        /* \"#utility.yul\":37069:37070   */\n      0x00\n        /* \"#utility.yul\":37061:37067   */\n      dup3\n        /* \"#utility.yul\":37057:37071   */\n      add\n        /* \"#utility.yul\":37050:37090   */\n      mstore\n        /* \"#utility.yul\":36933:37097   */\n      pop\n      jump\t// out\n        /* \"#utility.yul\":37103:37469   */\n    tag_497:\n        /* \"#utility.yul\":37245:37248   */\n      0x00\n        /* \"#utility.yul\":37266:37333   */\n      tag_844\n        /* \"#utility.yul\":37330:37332   */\n      0x0e\n        /* \"#utility.yul\":37325:37328   */\n      dup4\n        /* \"#utility.yul\":37266:37333   */\n      tag_492\n      jump\t// in\n    tag_844:\n        /* \"#utility.yul\":37259:37333   */\n      swap2\n      pop\n        /* \"#utility.yul\":37342:37435   */\n      tag_845\n        /* \"#utility.yul\":37431:37434   */\n      dup3\n        /* \"#utility.yul\":37342:37435   */\n      tag_496\n      jump\t// in\n    tag_845:\n        /* \"#utility.yul\":37460:37462   */\n      0x20\n        /* \"#utility.yul\":37455:37458   */\n      dup3\n        /* \"#utility.yul\":37451:37463   */\n      add\n        /* \"#utility.yul\":37444:37463   */\n      swap1\n      pop\n        /* \"#utility.yul\":37103:37469   */\n      swap2\n      swap1\n      pop\n      jump\t// out\n        /* \"#utility.yul\":37475:37894   */\n    tag_150:\n        /* \"#utility.yul\":37641:37645   */\n      0x00\n        /* \"#utility.yul\":37679:37681   */\n      0x20\n        /* \"#utility.yul\":37668:37677   */\n      dup3\n        /* \"#utility.yul\":37664:37682   */\n      add\n        /* \"#utility.yul\":37656:37682   */\n      swap1\n      pop\n        /* \"#utility.yul\":37728:37737   */\n      dup2\n        /* \"#utility.yul\":37722:37726   */\n      dup2\n        /* \"#utility.yul\":37718:37738   */\n      sub\n        /* \"#utility.yul\":37714:37715   */\n      0x00\n        /* \"#utility.yul\":37703:37712   */\n      dup4\n        /* \"#utility.yul\":37699:37716   */\n      add\n        /* \"#utility.yul\":37692:37739   */\n      mstore\n        /* \"#utility.yul\":37756:37887   */\n      tag_847\n        /* \"#utility.yul\":37882:37886   */\n      dup2\n        /* \"#utility.yul\":37756:37887   */\n      tag_497\n      jump\t// in\n    tag_847:\n        /* \"#utility.yul\":37748:37887   */\n      swap1\n      pop\n        /* \"#utility.yul\":37475:37894   */\n      swap2\n      swap1\n      pop\n      jump\t// out\n        /* \"#utility.yul\":37900:38075   */\n    tag_498:\n        /* \"#utility.yul\":38040:38067   */\n      0x466f6f6444657461696c206e6f7420666f756e64205f5f5f2e00000000000000\n        /* \"#utility.yul\":38036:38037   */\n      0x00\n        /* \"#utility.yul\":38028:38034   */\n      dup3\n        /* \"#utility.yul\":38024:38038   */\n      add\n        /* \"#utility.yul\":38017:38068   */\n      mstore\n        /* \"#utility.yul\":37900:38075   */\n      pop\n      jump\t// out\n        /* \"#utility.yul\":38081:38447   */\n    tag_499:\n        /* \"#utility.yul\":38223:38226   */\n      0x00\n        /* \"#utility.yul\":38244:38311   */\n      tag_850\n        /* \"#utility.yul\":38308:38310   */\n      0x19\n        /* \"#utility.yul\":38303:38306   */\n      dup4\n        /* \"#utility.yul\":38244:38311   */\n      tag_492\n      jump\t// in\n    tag_850:\n        /* \"#utility.yul\":38237:38311   */\n      swap2\n      pop\n        /* \"#utility.yul\":38320:38413   */\n      tag_851\n        /* \"#utility.yul\":38409:38412   */\n      dup3\n        /* \"#utility.yul\":38320:38413   */\n      tag_498\n      jump\t// in\n    tag_851:\n        /* \"#utility.yul\":38438:38440   */\n      0x20\n        /* \"#utility.yul\":38433:38436   */\n      dup3\n        /* \"#utility.yul\":38429:38441   */\n      add\n        /* \"#utility.yul\":38422:38441   */\n      swap1\n      pop\n        /* \"#utility.yul\":38081:38447   */\n      swap2\n      swap1\n      pop\n      jump\t// out\n        /* \"#utility.yul\":38453:38872   */\n    tag_167:\n        /* \"#utility.yul\":38619:38623   */\n      0x00\n        /* \"#utility.yul\":38657:38659   */\n      0x20\n        /* \"#utility.yul\":38646:38655   */\n      dup3\n        /* \"#utility.yul\":38642:38660   */\n      add\n        /* \"#utility.yul\":38634:38660   */\n      swap1\n      pop\n        /* \"#utility.yul\":38706:38715   */\n      dup2\n        /* \"#utility.yul\":38700:38704   */\n      dup2\n        /* \"#utility.yul\":38696:38716   */\n      sub\n        /* \"#utility.yul\":38692:38693   */\n      0x00\n        /* \"#utility.yul\":38681:38690   */\n      dup4\n        /* \"#utility.yul\":38677:38694   */\n      add\n        /* \"#utility.yul\":38670:38717   */\n      mstore\n        /* \"#utility.yul\":38734:38865   */\n      tag_853\n        /* \"#utility.yul\":38860:38864   */\n      dup2\n        /* \"#utility.yul\":38734:38865   */\n      tag_499\n      jump\t// in\n    tag_853:\n        /* \"#utility.yul\":38726:38865   */\n      swap1\n      pop\n        /* \"#utility.yul\":38453:38872   */\n      swap2\n      swap1\n      pop\n      jump\t// out\n        /* \"#utility.yul\":38878:39072   */\n    tag_181:\n        /* \"#utility.yul\":38918:38922   */\n      0x00\n        /* \"#utility.yul\":38938:38958   */\n      tag_855\n        /* \"#utility.yul\":38956:38957   */\n      dup3\n        /* \"#utility.yul\":38938:38958   */\n      tag_424\n      jump\t// in\n    tag_855:\n        /* \"#utility.yul\":38933:38958   */\n      swap2\n      pop\n        /* \"#utility.yul\":38972:38992   */\n      tag_856\n        /* \"#utility.yul\":38990:38991   */\n      dup4\n        /* \"#utility.yul\":38972:38992   */\n      tag_424\n      jump\t// in\n    tag_856:\n        /* \"#utility.yul\":38967:38992   */\n      swap3\n      pop\n        /* \"#utility.yul\":39016:39017   */\n      dup3\n        /* \"#utility.yul\":39013:39014   */\n      dup3\n        /* \"#utility.yul\":39009:39018   */\n      sub\n        /* \"#utility.yul\":39001:39018   */\n      swap1\n      pop\n        /* \"#utility.yul\":39040:39041   */\n      dup2\n        /* \"#utility.yul\":39034:39038   */\n      dup2\n        /* \"#utility.yul\":39031:39042   */\n      gt\n        /* \"#utility.yul\":39028:39065   */\n      iszero\n      tag_857\n      jumpi\n        /* \"#utility.yul\":39045:39063   */\n      tag_858\n      tag_491\n      jump\t// in\n    tag_858:\n        /* \"#utility.yul\":39028:39065   */\n    tag_857:\n        /* \"#utility.yul\":38878:39072   */\n      swap3\n      swap2\n      pop\n      pop\n      jump\t// out\n        /* \"#utility.yul\":39078:39219   */\n    tag_500:\n        /* \"#utility.yul\":39127:39131   */\n      0x00\n        /* \"#utility.yul\":39150:39153   */\n      dup2\n        /* \"#utility.yul\":39142:39153   */\n      swap1\n      pop\n        /* \"#utility.yul\":39173:39176   */\n      dup2\n        /* \"#utility.yul\":39170:39171   */\n      0x00\n        /* \"#utility.yul\":39163:39177   */\n      mstore\n        /* \"#utility.yul\":39207:39211   */\n      0x20\n        /* \"#utility.yul\":39204:39205   */\n      0x00\n        /* \"#utility.yul\":39194:39212   */\n      keccak256\n        /* \"#utility.yul\":39186:39212   */\n      swap1\n      pop\n        /* \"#utility.yul\":39078:39219   */\n      swap2\n      swap1\n      pop\n      jump\t// out\n        /* \"#utility.yul\":39225:39318   */\n    tag_501:\n        /* \"#utility.yul\":39262:39268   */\n      0x00\n        /* \"#utility.yul\":39309:39311   */\n      0x20\n        /* \"#utility.yul\":39304:39306   */\n      0x1f\n        /* \"#utility.yul\":39297:39302   */\n      dup4\n        /* \"#utility.yul\":39293:39307   */\n      add\n        /* \"#utility.yul\":39289:39312   */\n      div\n        /* \"#utility.yul\":39279:39312   */\n      swap1\n      pop\n        /* \"#utility.yul\":39225:39318   */\n      swap2\n      swap1\n      pop\n      jump\t// out\n        /* \"#utility.yul\":39324:39431   */\n    tag_502:\n        /* \"#utility.yul\":39368:39376   */\n      0x00\n        /* \"#utility.yul\":39418:39423   */\n      dup3\n        /* \"#utility.yul\":39412:39416   */\n      dup3\n        /* \"#utility.yul\":39408:39424   */\n      shl\n        /* \"#utility.yul\":39387:39424   */\n      swap1\n      pop\n        /* \"#utility.yul\":39324:39431   */\n      swap3\n      swap2\n      pop\n      pop\n      jump\t// out\n        /* \"#utility.yul\":39437:39830   */\n    tag_503:\n        /* \"#utility.yul\":39506:39512   */\n      0x00\n        /* \"#utility.yul\":39556:39557   */\n      0x08\n        /* \"#utility.yul\":39544:39554   */\n      dup4\n        /* \"#utility.yul\":39540:39558   */\n      mul\n        /* \"#utility.yul\":39579:39676   */\n      tag_863\n        /* \"#utility.yul\":39609:39675   */\n      0xffffffffffffffffffffffffffffffffffffffffffffffffffffffffffffffff\n        /* \"#utility.yul\":39598:39607   */\n      dup3\n        /* \"#utility.yul\":39579:39676   */\n      tag_502\n      jump\t// in\n    tag_863:\n        /* \"#utility.yul\":39697:39736   */\n      tag_864\n        /* \"#utility.yul\":39727:39735   */\n      dup7\n        /* \"#utility.yul\":39716:39725   */\n      dup4\n        /* \"#utility.yul\":39697:39736   */\n      tag_502\n      jump\t// in\n    tag_864:\n        /* \"#utility.yul\":39685:39736   */\n      swap6\n      pop\n        /* \"#utility.yul\":39769:39773   */\n      dup1\n        /* \"#utility.yul\":39765:39774   */\n      not\n        /* \"#utility.yul\":39758:39763   */\n      dup5\n        /* \"#utility.yul\":39754:39775   */\n      and\n        /* \"#utility.yul\":39745:39775   */\n      swap4\n      pop\n        /* \"#utility.yul\":39818:39822   */\n      dup1\n        /* \"#utility.yul\":39808:39816   */\n      dup7\n        /* \"#utility.yul\":39804:39823   */\n      and\n        /* \"#utility.yul\":39797:39802   */\n      dup5\n        /* \"#utility.yul\":39794:39824   */\n      or\n        /* \"#utility.yul\":39784:39824   */\n      swap3\n      pop\n        /* \"#utility.yul\":39513:39830   */\n      pop\n      pop\n        /* \"#utility.yul\":39437:39830   */\n      swap4\n      swap3\n      pop\n      pop\n      pop\n      jump\t// out\n        /* \"#utility.yul\":39836:39978   */\n    tag_504:\n        /* \"#utility.yul\":39886:39895   */\n      0x00\n        /* \"#utility.yul\":39919:39972   */\n      tag_866\n        /* \"#utility.yul\":39937:39971   */\n      tag_867\n        /* \"#utility.yul\":39946:39970   */\n      tag_868\n        /* \"#utility.yul\":39964:39969   */\n      dup5\n        /* \"#utility.yul\":39946:39970   */\n      tag_424\n      jump\t// in\n    tag_868:\n        /* \"#utility.yul\":39937:39971   */\n      tag_486\n      jump\t// in\n    tag_867:\n        /* \"#utility.yul\":39919:39972   */\n      tag_424\n      jump\t// in\n    tag_866:\n        /* \"#utility.yul\":39906:39972   */\n      swap1\n      pop\n        /* \"#utility.yul\":39836:39978   */\n      swap2\n      swap1\n      pop\n      jump\t// out\n        /* \"#utility.yul\":39984:40059   */\n    tag_505:\n        /* \"#utility.yul\":40027:40030   */\n      0x00\n        /* \"#utility.yul\":40048:40053   */\n      dup2\n        /* \"#utility.yul\":40041:40053   */\n      swap1\n      pop\n        /* \"#utility.yul\":39984:40059   */\n      swap2\n      swap1\n      pop\n      jump\t// out\n        /* \"#utility.yul\":40065:40334   */\n    tag_506:\n        /* \"#utility.yul\":40175:40214   */\n      tag_871\n        /* \"#utility.yul\":40206:40213   */\n      dup4\n        /* \"#utility.yul\":40175:40214   */\n      tag_504\n      jump\t// in\n    tag_871:\n        /* \"#utility.yul\":40236:40327   */\n      tag_872\n        /* \"#utility.yul\":40285:40326   */\n      tag_873\n        /* \"#utility.yul\":40309:40325   */\n      dup3\n        /* \"#utility.yul\":40285:40326   */\n      tag_505\n      jump\t// in\n    tag_873:\n        /* \"#utility.yul\":40277:40283   */\n      dup5\n        /* \"#utility.yul\":40270:40274   */\n      dup5\n        /* \"#utility.yul\":40264:40275   */\n      sload\n        /* \"#utility.yul\":40236:40327   */\n      tag_503\n      jump\t// in\n    tag_872:\n        /* \"#utility.yul\":40230:40234   */\n      dup3\n        /* \"#utility.yul\":40223:40328   */\n      sstore\n        /* \"#utility.yul\":40141:40334   */\n      pop\n        /* \"#utility.yul\":40065:40334   */\n      pop\n      pop\n      pop\n      jump\t// out\n        /* \"#utility.yul\":40340:40413   */\n    tag_507:\n        /* \"#utility.yul\":40385:40388   */\n      0x00\n        /* \"#utility.yul\":40406:40407   */\n      0x00\n        /* \"#utility.yul\":40399:40407   */\n      swap1\n      pop\n        /* \"#utility.yul\":40340:40413   */\n      swap1\n      jump\t// out\n        /* \"#utility.yul\":40419:40608   */\n    tag_508:\n        /* \"#utility.yul\":40496:40528   */\n      tag_876\n      tag_507\n      jump\t// in\n    tag_876:\n        /* \"#utility.yul\":40537:40602   */\n      tag_877\n        /* \"#utility.yul\":40595:40601   */\n      dup2\n        /* \"#utility.yul\":40587:40593   */\n      dup5\n        /* \"#utility.yul\":40581:40585   */\n      dup5\n        /* \"#utility.yul\":40537:40602   */\n      tag_506\n      jump\t// in\n    tag_877:\n        /* \"#utility.yul\":40472:40608   */\n      pop\n        /* \"#utility.yul\":40419:40608   */\n      pop\n      pop\n      jump\t// out\n        /* \"#utility.yul\":40614:40800   */\n    tag_509:\n        /* \"#utility.yul\":40674:40794   */\n    tag_879:\n        /* \"#utility.yul\":40691:40694   */\n      dup2\n        /* \"#utility.yul\":40684:40689   */\n      dup2\n        /* \"#utility.yul\":40681:40695   */\n      lt\n        /* \"#utility.yul\":40674:40794   */\n      iszero\n      tag_881\n      jumpi\n        /* \"#utility.yul\":40745:40784   */\n      tag_882\n        /* \"#utility.yul\":40782:40783   */\n      0x00\n        /* \"#utility.yul\":40775:40780   */\n      dup3\n        /* \"#utility.yul\":40745:40784   */\n      tag_508\n      jump\t// in\n    tag_882:\n        /* \"#utility.yul\":40718:40719   */\n      0x01\n        /* \"#utility.yul\":40711:40716   */\n      dup2\n        /* \"#utility.yul\":40707:40720   */\n      add\n        /* \"#utility.yul\":40698:40720   */\n      swap1\n      pop\n        /* \"#utility.yul\":40674:40794   */\n      jump(tag_879)\n    tag_881:\n        /* \"#utility.yul\":40614:40800   */\n      pop\n      pop\n      jump\t// out\n        /* \"#utility.yul\":40806:41349   */\n    tag_510:\n        /* \"#utility.yul\":40907:40909   */\n      0x1f\n        /* \"#utility.yul\":40902:40905   */\n      dup3\n        /* \"#utility.yul\":40899:40910   */\n      gt\n        /* \"#utility.yul\":40896:41342   */\n      iszero\n      tag_884\n      jumpi\n        /* \"#utility.yul\":40941:40979   */\n      tag_885\n        /* \"#utility.yul\":40973:40978   */\n      dup2\n        /* \"#utility.yul\":40941:40979   */\n      tag_500\n      jump\t// in\n    tag_885:\n        /* \"#utility.yul\":41025:41054   */\n      tag_886\n        /* \"#utility.yul\":41043:41053   */\n      dup5\n        /* \"#utility.yul\":41025:41054   */\n      tag_501\n      jump\t// in\n    tag_886:\n        /* \"#utility.yul\":41015:41023   */\n      dup2\n        /* \"#utility.yul\":41011:41055   */\n      add\n        /* \"#utility.yul\":41208:41210   */\n      0x20\n        /* \"#utility.yul\":41196:41206   */\n      dup6\n        /* \"#utility.yul\":41193:41211   */\n      lt\n        /* \"#utility.yul\":41190:41239   */\n      iszero\n      tag_887\n      jumpi\n        /* \"#utility.yul\":41229:41237   */\n      dup2\n        /* \"#utility.yul\":41214:41237   */\n      swap1\n      pop\n        /* \"#utility.yul\":41190:41239   */\n    tag_887:\n        /* \"#utility.yul\":41252:41332   */\n      tag_888\n        /* \"#utility.yul\":41308:41330   */\n      tag_889\n        /* \"#utility.yul\":41326:41329   */\n      dup6\n        /* \"#utility.yul\":41308:41330   */\n      tag_501\n      jump\t// in\n    tag_889:\n        /* \"#utility.yul\":41298:41306   */\n      dup4\n        /* \"#utility.yul\":41294:41331   */\n      add\n        /* \"#utility.yul\":41281:41292   */\n      dup3\n        /* \"#utility.yul\":41252:41332   */\n      tag_509\n      jump\t// in\n    tag_888:\n        /* \"#utility.yul\":40911:41342   */\n      pop\n      pop\n        /* \"#utility.yul\":40896:41342   */\n    tag_884:\n        /* \"#utility.yul\":40806:41349   */\n      pop\n      pop\n      pop\n      jump\t// out\n        /* \"#utility.yul\":41355:41472   */\n    tag_511:\n        /* \"#utility.yul\":41409:41417   */\n      0x00\n        /* \"#utility.yul\":41459:41464   */\n      dup3\n        /* \"#utility.yul\":41453:41457   */\n      dup3\n        /* \"#utility.yul\":41449:41465   */\n      shr\n        /* \"#utility.yul\":41428:41465   */\n      swap1\n      pop\n        /* \"#utility.yul\":41355:41472   */\n      swap3\n      swap2\n      pop\n      pop\n      jump\t// out\n        /* \"#utility.yul\":41478:41647   */\n    tag_512:\n        /* \"#utility.yul\":41522:41528   */\n      0x00\n        /* \"#utility.yul\":41555:41606   */\n      tag_892\n        /* \"#utility.yul\":41603:41604   */\n      0x00\n        /* \"#utility.yul\":41599:41605   */\n      not\n        /* \"#utility.yul\":41591:41596   */\n      dup5\n        /* \"#utility.yul\":41588:41589   */\n      0x08\n        /* \"#utility.yul\":41584:41597   */\n      mul\n        /* \"#utility.yul\":41555:41606   */\n      tag_511\n      jump\t// in\n    tag_892:\n        /* \"#utility.yul\":41551:41607   */\n      not\n        /* \"#utility.yul\":41636:41640   */\n      dup1\n        /* \"#utility.yul\":41630:41634   */\n      dup4\n        /* \"#utility.yul\":41626:41641   */\n      and\n        /* \"#utility.yul\":41616:41641   */\n      swap2\n      pop\n        /* \"#utility.yul\":41529:41647   */\n      pop\n        /* \"#utility.yul\":41478:41647   */\n      swap3\n      swap2\n      pop\n      pop\n      jump\t// out\n        /* \"#utility.yul\":41652:41947   */\n    tag_513:\n        /* \"#utility.yul\":41728:41732   */\n      0x00\n        /* \"#utility.yul\":41874:41903   */\n      tag_894\n        /* \"#utility.yul\":41899:41902   */\n      dup4\n        /* \"#utility.yul\":41893:41897   */\n      dup4\n        /* \"#utility.yul\":41874:41903   */\n      tag_512\n      jump\t// in\n    tag_894:\n        /* \"#utility.yul\":41866:41903   */\n      swap2\n      pop\n        /* \"#utility.yul\":41936:41939   */\n      dup3\n        /* \"#utility.yul\":41933:41934   */\n      0x02\n        /* \"#utility.yul\":41929:41940   */\n      mul\n        /* \"#utility.yul\":41923:41927   */\n      dup3\n        /* \"#utility.yul\":41920:41941   */\n      or\n        /* \"#utility.yul\":41912:41941   */\n      swap1\n      pop\n        /* \"#utility.yul\":41652:41947   */\n      swap3\n      swap2\n      pop\n      pop\n      jump\t// out\n        /* \"#utility.yul\":41952:43347   */\n    tag_194:\n        /* \"#utility.yul\":42069:42106   */\n      tag_896\n        /* \"#utility.yul\":42102:42105   */\n      dup3\n        /* \"#utility.yul\":42069:42106   */\n      tag_433\n      jump\t// in\n    tag_896:\n        /* \"#utility.yul\":42171:42189   */\n      0xffffffffffffffff\n        /* \"#utility.yul\":42163:42169   */\n      dup2\n        /* \"#utility.yul\":42160:42190   */\n      gt\n        /* \"#utility.yul\":42157:42213   */\n      iszero\n      tag_897\n      jumpi\n        /* \"#utility.yul\":42193:42211   */\n      tag_898\n      tag_307\n      jump\t// in\n    tag_898:\n        /* \"#utility.yul\":42157:42213   */\n    tag_897:\n        /* \"#utility.yul\":42237:42275   */\n      tag_899\n        /* \"#utility.yul\":42269:42273   */\n      dup3\n        /* \"#utility.yul\":42263:42274   */\n      sload\n        /* \"#utility.yul\":42237:42275   */\n      tag_127\n      jump\t// in\n    tag_899:\n        /* \"#utility.yul\":42322:42389   */\n      tag_900\n        /* \"#utility.yul\":42382:42388   */\n      dup3\n        /* \"#utility.yul\":42374:42380   */\n      dup3\n        /* \"#utility.yul\":42368:42372   */\n      dup6\n        /* \"#utility.yul\":42322:42389   */\n      tag_510\n      jump\t// in\n    tag_900:\n        /* \"#utility.yul\":42416:42417   */\n      0x00\n        /* \"#utility.yul\":42440:42444   */\n      0x20\n        /* \"#utility.yul\":42427:42444   */\n      swap1\n      pop\n        /* \"#utility.yul\":42472:42474   */\n      0x1f\n        /* \"#utility.yul\":42464:42470   */\n      dup4\n        /* \"#utility.yul\":42461:42475   */\n      gt\n        /* \"#utility.yul\":42489:42490   */\n      0x01\n        /* \"#utility.yul\":42484:43102   */\n      dup2\n      eq\n      tag_902\n      jumpi\n        /* \"#utility.yul\":43146:43147   */\n      0x00\n        /* \"#utility.yul\":43163:43169   */\n      dup5\n        /* \"#utility.yul\":43160:43237   */\n      iszero\n      tag_903\n      jumpi\n        /* \"#utility.yul\":43212:43221   */\n      dup3\n        /* \"#utility.yul\":43207:43210   */\n      dup8\n        /* \"#utility.yul\":43203:43222   */\n      add\n        /* \"#utility.yul\":43197:43223   */\n      mload\n        /* \"#utility.yul\":43188:43223   */\n      swap1\n      pop\n        /* \"#utility.yul\":43160:43237   */\n    tag_903:\n        /* \"#utility.yul\":43263:43330   */\n      tag_904\n        /* \"#utility.yul\":43323:43329   */\n      dup6\n        /* \"#utility.yul\":43316:43321   */\n      dup3\n        /* \"#utility.yul\":43263:43330   */\n      tag_513\n      jump\t// in\n    tag_904:\n        /* \"#utility.yul\":43257:43261   */\n      dup7\n        /* \"#utility.yul\":43250:43331   */\n      sstore\n        /* \"#utility.yul\":43119:43341   */\n      pop\n        /* \"#utility.yul\":42454:43341   */\n      jump(tag_901)\n        /* \"#utility.yul\":42484:43102   */\n    tag_902:\n        /* \"#utility.yul\":42536:42540   */\n      0x1f\n        /* \"#utility.yul\":42532:42541   */\n      not\n        /* \"#utility.yul\":42524:42530   */\n      dup5\n        /* \"#utility.yul\":42520:42542   */\n      and\n        /* \"#utility.yul\":42570:42607   */\n      tag_905\n        /* \"#utility.yul\":42602:42606   */\n      dup7\n        /* \"#utility.yul\":42570:42607   */\n      tag_500\n      jump\t// in\n    tag_905:\n        /* \"#utility.yul\":42629:42630   */\n      0x00\n        /* \"#utility.yul\":42643:42851   */\n    tag_906:\n        /* \"#utility.yul\":42657:42664   */\n      dup3\n        /* \"#utility.yul\":42654:42655   */\n      dup2\n        /* \"#utility.yul\":42651:42665   */\n      lt\n        /* \"#utility.yul\":42643:42851   */\n      iszero\n      tag_908\n      jumpi\n        /* \"#utility.yul\":42736:42745   */\n      dup5\n        /* \"#utility.yul\":42731:42734   */\n      dup10\n        /* \"#utility.yul\":42727:42746   */\n      add\n        /* \"#utility.yul\":42721:42747   */\n      mload\n        /* \"#utility.yul\":42713:42719   */\n      dup3\n        /* \"#utility.yul\":42706:42748   */\n      sstore\n        /* \"#utility.yul\":42787:42788   */\n      0x01\n        /* \"#utility.yul\":42779:42785   */\n      dup3\n        /* \"#utility.yul\":42775:42789   */\n      add\n        /* \"#utility.yul\":42765:42789   */\n      swap2\n      pop\n        /* \"#utility.yul\":42834:42836   */\n      0x20\n        /* \"#utility.yul\":42823:42832   */\n      dup6\n        /* \"#utility.yul\":42819:42837   */\n      add\n        /* \"#utility.yul\":42806:42837   */\n      swap5\n      pop\n        /* \"#utility.yul\":42680:42684   */\n      0x20\n        /* \"#utility.yul\":42677:42678   */\n      dup2\n        /* \"#utility.yul\":42673:42685   */\n      add\n        /* \"#utility.yul\":42668:42685   */\n      swap1\n      pop\n        /* \"#utility.yul\":42643:42851   */\n      jump(tag_906)\n    tag_908:\n        /* \"#utility.yul\":42879:42885   */\n      dup7\n        /* \"#utility.yul\":42870:42877   */\n      dup4\n        /* \"#utility.yul\":42867:42886   */\n      lt\n        /* \"#utility.yul\":42864:43043   */\n      iszero\n      tag_909\n      jumpi\n        /* \"#utility.yul\":42937:42946   */\n      dup5\n        /* \"#utility.yul\":42932:42935   */\n      dup10\n        /* \"#utility.yul\":42928:42947   */\n      add\n        /* \"#utility.yul\":42922:42948   */\n      mload\n        /* \"#utility.yul\":42980:43028   */\n      tag_910\n        /* \"#utility.yul\":43022:43026   */\n      0x1f\n        /* \"#utility.yul\":43014:43020   */\n      dup10\n        /* \"#utility.yul\":43010:43027   */\n      and\n        /* \"#utility.yul\":42999:43008   */\n      dup3\n        /* \"#utility.yul\":42980:43028   */\n      tag_512\n      jump\t// in\n    tag_910:\n        /* \"#utility.yul\":42972:42978   */\n      dup4\n        /* \"#utility.yul\":42965:43029   */\n      sstore\n        /* \"#utility.yul\":42887:43043   */\n      pop\n        /* \"#utility.yul\":42864:43043   */\n    tag_909:\n        /* \"#utility.yul\":43089:43090   */\n      0x01\n        /* \"#utility.yul\":43085:43086   */\n      0x02\n        /* \"#utility.yul\":43077:43083   */\n      dup9\n        /* \"#utility.yul\":43073:43087   */\n      mul\n        /* \"#utility.yul\":43069:43091   */\n      add\n        /* \"#utility.yul\":43063:43067   */\n      dup9\n        /* \"#utility.yul\":43056:43092   */\n      sstore\n        /* \"#utility.yul\":42491:43102   */\n      pop\n      pop\n      pop\n        /* \"#utility.yul\":42454:43341   */\n    tag_901:\n      pop\n        /* \"#utility.yul\":42044:43347   */\n      pop\n      pop\n      pop\n        /* \"#utility.yul\":41952:43347   */\n      pop\n      pop\n      jump\t// out\n        /* \"#utility.yul\":43353:43533   */\n    tag_197:\n        /* \"#utility.yul\":43401:43478   */\n      0x4e487b7100000000000000000000000000000000000000000000000000000000\n        /* \"#utility.yul\":43398:43399   */\n      0x00\n        /* \"#utility.yul\":43391:43479   */\n      mstore\n        /* \"#utility.yul\":43498:43502   */\n      0x31\n        /* \"#utility.yul\":43495:43496   */\n      0x04\n        /* \"#utility.yul\":43488:43503   */\n      mstore\n        /* \"#utility.yul\":43522:43526   */\n      0x24\n        /* \"#utility.yul\":43519:43520   */\n      0x00\n        /* \"#utility.yul\":43512:43527   */\n      revert\n        /* \"#utility.yul\":43539:43871   */\n    tag_202:\n        /* \"#utility.yul\":43660:43664   */\n      0x00\n        /* \"#utility.yul\":43698:43700   */\n      0x40\n        /* \"#utility.yul\":43687:43696   */\n      dup3\n        /* \"#utility.yul\":43683:43701   */\n      add\n        /* \"#utility.yul\":43675:43701   */\n      swap1\n      pop\n        /* \"#utility.yul\":43711:43782   */\n      tag_913\n        /* \"#utility.yul\":43779:43780   */\n      0x00\n        /* \"#utility.yul\":43768:43777   */\n      dup4\n        /* \"#utility.yul\":43764:43781   */\n      add\n        /* \"#utility.yul\":43755:43761   */\n      dup6\n        /* \"#utility.yul\":43711:43782   */\n      tag_431\n      jump\t// in\n    tag_913:\n        /* \"#utility.yul\":43792:43864   */\n      tag_914\n        /* \"#utility.yul\":43860:43862   */\n      0x20\n        /* \"#utility.yul\":43849:43858   */\n      dup4\n        /* \"#utility.yul\":43845:43863   */\n      add\n        /* \"#utility.yul\":43836:43842   */\n      dup5\n        /* \"#utility.yul\":43792:43864   */\n      tag_431\n      jump\t// in\n    tag_914:\n        /* \"#utility.yul\":43539:43871   */\n      swap4\n      swap3\n      pop\n      pop\n      pop\n      jump\t// out\n        /* \"#utility.yul\":43877:44052   */\n    tag_514:\n        /* \"#utility.yul\":44017:44044   */\n      0x466f6f6444657461696c20646f6573206e6f7420657869737400000000000000\n        /* \"#utility.yul\":44013:44014   */\n      0x00\n        /* \"#utility.yul\":44005:44011   */\n      dup3\n        /* \"#utility.yul\":44001:44015   */\n      add\n        /* \"#utility.yul\":43994:44045   */\n      mstore\n        /* \"#utility.yul\":43877:44052   */\n      pop\n      jump\t// out\n        /* \"#utility.yul\":44058:44424   */\n    tag_515:\n        /* \"#utility.yul\":44200:44203   */\n      0x00\n        /* \"#utility.yul\":44221:44288   */\n      tag_917\n        /* \"#utility.yul\":44285:44287   */\n      0x19\n        /* \"#utility.yul\":44280:44283   */\n      dup4\n        /* \"#utility.yul\":44221:44288   */\n      tag_492\n      jump\t// in\n    tag_917:\n        /* \"#utility.yul\":44214:44288   */\n      swap2\n      pop\n        /* \"#utility.yul\":44297:44390   */\n      tag_918\n        /* \"#utility.yul\":44386:44389   */\n      dup3\n        /* \"#utility.yul\":44297:44390   */\n      tag_514\n      jump\t// in\n    tag_918:\n        /* \"#utility.yul\":44415:44417   */\n      0x20\n        /* \"#utility.yul\":44410:44413   */\n      dup3\n        /* \"#utility.yul\":44406:44418   */\n      add\n        /* \"#utility.yul\":44399:44418   */\n      swap1\n      pop\n        /* \"#utility.yul\":44058:44424   */\n      swap2\n      swap1\n      pop\n      jump\t// out\n        /* \"#utility.yul\":44430:44849   */\n    tag_205:\n        /* \"#utility.yul\":44596:44600   */\n      0x00\n        /* \"#utility.yul\":44634:44636   */\n      0x20\n        /* \"#utility.yul\":44623:44632   */\n      dup3\n        /* \"#utility.yul\":44619:44637   */\n      add\n        /* \"#utility.yul\":44611:44637   */\n      swap1\n      pop\n        /* \"#utility.yul\":44683:44692   */\n      dup2\n        /* \"#utility.yul\":44677:44681   */\n      dup2\n        /* \"#utility.yul\":44673:44693   */\n      sub\n        /* \"#utility.yul\":44669:44670   */\n      0x00\n        /* \"#utility.yul\":44658:44667   */\n      dup4\n        /* \"#utility.yul\":44654:44671   */\n      add\n        /* \"#utility.yul\":44647:44694   */\n      mstore\n        /* \"#utility.yul\":44711:44842   */\n      tag_920\n        /* \"#utility.yul\":44837:44841   */\n      dup2\n        /* \"#utility.yul\":44711:44842   */\n      tag_515\n      jump\t// in\n    tag_920:\n        /* \"#utility.yul\":44703:44842   */\n      swap1\n      pop\n        /* \"#utility.yul\":44430:44849   */\n      swap2\n      swap1\n      pop\n      jump\t// out\n        /* \"#utility.yul\":44855:45088   */\n    tag_213:\n        /* \"#utility.yul\":44894:44897   */\n      0x00\n        /* \"#utility.yul\":44917:44941   */\n      tag_922\n        /* \"#utility.yul\":44935:44940   */\n      dup3\n        /* \"#utility.yul\":44917:44941   */\n      tag_424\n      jump\t// in\n    tag_922:\n        /* \"#utility.yul\":44908:44941   */\n      swap2\n      pop\n        /* \"#utility.yul\":44963:45029   */\n      0xffffffffffffffffffffffffffffffffffffffffffffffffffffffffffffffff\n        /* \"#utility.yul\":44956:44961   */\n      dup3\n        /* \"#utility.yul\":44953:45030   */\n      sub\n        /* \"#utility.yul\":44950:45053   */\n      tag_923\n      jumpi\n        /* \"#utility.yul\":45033:45051   */\n      tag_924\n      tag_491\n      jump\t// in\n    tag_924:\n        /* \"#utility.yul\":44950:45053   */\n    tag_923:\n        /* \"#utility.yul\":45080:45081   */\n      0x01\n        /* \"#utility.yul\":45073:45078   */\n      dup3\n        /* \"#utility.yul\":45069:45082   */\n      add\n        /* \"#utility.yul\":45062:45082   */\n      swap1\n      pop\n        /* \"#utility.yul\":44855:45088   */\n      swap2\n      swap1\n      pop\n      jump\t// out\n        /* \"#utility.yul\":45094:45237   */\n    tag_516:\n        /* \"#utility.yul\":45151:45156   */\n      0x00\n        /* \"#utility.yul\":45182:45188   */\n      dup2\n        /* \"#utility.yul\":45176:45189   */\n      mload\n        /* \"#utility.yul\":45167:45189   */\n      swap1\n      pop\n        /* \"#utility.yul\":45198:45231   */\n      tag_926\n        /* \"#utility.yul\":45225:45230   */\n      dup2\n        /* \"#utility.yul\":45198:45231   */\n      tag_425\n      jump\t// in\n    tag_926:\n        /* \"#utility.yul\":45094:45237   */\n      swap3\n      swap2\n      pop\n      pop\n      jump\t// out\n        /* \"#utility.yul\":45243:45677   */\n    tag_517:\n        /* \"#utility.yul\":45332:45337   */\n      0x00\n        /* \"#utility.yul\":45357:45423   */\n      tag_928\n        /* \"#utility.yul\":45373:45422   */\n      tag_929\n        /* \"#utility.yul\":45415:45421   */\n      dup5\n        /* \"#utility.yul\":45373:45422   */\n      tag_458\n      jump\t// in\n    tag_929:\n        /* \"#utility.yul\":45357:45423   */\n      tag_452\n      jump\t// in\n    tag_928:\n        /* \"#utility.yul\":45348:45423   */\n      swap1\n      pop\n        /* \"#utility.yul\":45446:45452   */\n      dup3\n        /* \"#utility.yul\":45439:45444   */\n      dup2\n        /* \"#utility.yul\":45432:45453   */\n      mstore\n        /* \"#utility.yul\":45484:45488   */\n      0x20\n        /* \"#utility.yul\":45477:45482   */\n      dup2\n        /* \"#utility.yul\":45473:45489   */\n      add\n        /* \"#utility.yul\":45522:45525   */\n      dup5\n        /* \"#utility.yul\":45513:45519   */\n      dup5\n        /* \"#utility.yul\":45508:45511   */\n      dup5\n        /* \"#utility.yul\":45504:45520   */\n      add\n        /* \"#utility.yul\":45501:45526   */\n      gt\n        /* \"#utility.yul\":45498:45610   */\n      iszero\n      tag_930\n      jumpi\n        /* \"#utility.yul\":45529:45608   */\n      tag_931\n      tag_457\n      jump\t// in\n    tag_931:\n        /* \"#utility.yul\":45498:45610   */\n    tag_930:\n        /* \"#utility.yul\":45619:45671   */\n      tag_932\n        /* \"#utility.yul\":45664:45670   */\n      dup5\n        /* \"#utility.yul\":45659:45662   */\n      dup3\n        /* \"#utility.yul\":45654:45657   */\n      dup6\n        /* \"#utility.yul\":45619:45671   */\n      tag_435\n      jump\t// in\n    tag_932:\n        /* \"#utility.yul\":45338:45677   */\n      pop\n        /* \"#utility.yul\":45243:45677   */\n      swap4\n      swap3\n      pop\n      pop\n      pop\n      jump\t// out\n        /* \"#utility.yul\":45697:46052   */\n    tag_518:\n        /* \"#utility.yul\":45764:45769   */\n      0x00\n        /* \"#utility.yul\":45813:45816   */\n      dup3\n        /* \"#utility.yul\":45806:45810   */\n      0x1f\n        /* \"#utility.yul\":45798:45804   */\n      dup4\n        /* \"#utility.yul\":45794:45811   */\n      add\n        /* \"#utility.yul\":45790:45817   */\n      slt\n        /* \"#utility.yul\":45780:45902   */\n      tag_934\n      jumpi\n        /* \"#utility.yul\":45821:45900   */\n      tag_935\n      tag_450\n      jump\t// in\n    tag_935:\n        /* \"#utility.yul\":45780:45902   */\n    tag_934:\n        /* \"#utility.yul\":45931:45937   */\n      dup2\n        /* \"#utility.yul\":45925:45938   */\n      mload\n        /* \"#utility.yul\":45956:46046   */\n      tag_936\n        /* \"#utility.yul\":46042:46045   */\n      dup5\n        /* \"#utility.yul\":46034:46040   */\n      dup3\n        /* \"#utility.yul\":46027:46031   */\n      0x20\n        /* \"#utility.yul\":46019:46025   */\n      dup7\n        /* \"#utility.yul\":46015:46032   */\n      add\n        /* \"#utility.yul\":45956:46046   */\n      tag_517\n      jump\t// in\n    tag_936:\n        /* \"#utility.yul\":45947:46046   */\n      swap2\n      pop\n        /* \"#utility.yul\":45770:46052   */\n      pop\n        /* \"#utility.yul\":45697:46052   */\n      swap3\n      swap2\n      pop\n      pop\n      jump\t// out\n        /* \"#utility.yul\":46081:46858   */\n    tag_519:\n        /* \"#utility.yul\":46167:46172   */\n      0x00\n        /* \"#utility.yul\":46211:46215   */\n      0x40\n        /* \"#utility.yul\":46199:46208   */\n      dup3\n        /* \"#utility.yul\":46194:46197   */\n      dup5\n        /* \"#utility.yul\":46190:46209   */\n      sub\n        /* \"#utility.yul\":46186:46216   */\n      slt\n        /* \"#utility.yul\":46183:46300   */\n      iszero\n      tag_938\n      jumpi\n        /* \"#utility.yul\":46219:46298   */\n      tag_939\n      tag_455\n      jump\t// in\n    tag_939:\n        /* \"#utility.yul\":46183:46300   */\n    tag_938:\n        /* \"#utility.yul\":46318:46339   */\n      tag_940\n        /* \"#utility.yul\":46334:46338   */\n      0x40\n        /* \"#utility.yul\":46318:46339   */\n      tag_452\n      jump\t// in\n    tag_940:\n        /* \"#utility.yul\":46309:46339   */\n      swap1\n      pop\n        /* \"#utility.yul\":46404:46405   */\n      0x00\n        /* \"#utility.yul\":46444:46504   */\n      tag_941\n        /* \"#utility.yul\":46500:46503   */\n      dup5\n        /* \"#utility.yul\":46491:46497   */\n      dup3\n        /* \"#utility.yul\":46480:46489   */\n      dup6\n        /* \"#utility.yul\":46476:46498   */\n      add\n        /* \"#utility.yul\":46444:46504   */\n      tag_516\n      jump\t// in\n    tag_941:\n        /* \"#utility.yul\":46437:46441   */\n      0x00\n        /* \"#utility.yul\":46430:46435   */\n      dup4\n        /* \"#utility.yul\":46426:46442   */\n      add\n        /* \"#utility.yul\":46419:46505   */\n      mstore\n        /* \"#utility.yul\":46349:46516   */\n      pop\n        /* \"#utility.yul\":46596:46598   */\n      0x20\n        /* \"#utility.yul\":46585:46594   */\n      dup3\n        /* \"#utility.yul\":46581:46599   */\n      add\n        /* \"#utility.yul\":46575:46600   */\n      mload\n        /* \"#utility.yul\":46627:46645   */\n      0xffffffffffffffff\n        /* \"#utility.yul\":46619:46625   */\n      dup2\n        /* \"#utility.yul\":46616:46646   */\n      gt\n        /* \"#utility.yul\":46613:46730   */\n      iszero\n      tag_942\n      jumpi\n        /* \"#utility.yul\":46649:46728   */\n      tag_943\n      tag_456\n      jump\t// in\n    tag_943:\n        /* \"#utility.yul\":46613:46730   */\n    tag_942:\n        /* \"#utility.yul\":46769:46839   */\n      tag_944\n        /* \"#utility.yul\":46835:46838   */\n      dup5\n        /* \"#utility.yul\":46826:46832   */\n      dup3\n        /* \"#utility.yul\":46815:46824   */\n      dup6\n        /* \"#utility.yul\":46811:46833   */\n      add\n        /* \"#utility.yul\":46769:46839   */\n      tag_518\n      jump\t// in\n    tag_944:\n        /* \"#utility.yul\":46762:46766   */\n      0x20\n        /* \"#utility.yul\":46755:46760   */\n      dup4\n        /* \"#utility.yul\":46751:46767   */\n      add\n        /* \"#utility.yul\":46744:46840   */\n      mstore\n        /* \"#utility.yul\":46526:46851   */\n      pop\n        /* \"#utility.yul\":46081:46858   */\n      swap3\n      swap2\n      pop\n      pop\n      jump\t// out\n        /* \"#utility.yul\":46864:47420   */\n    tag_230:\n        /* \"#utility.yul\":46960:46966   */\n      0x00\n        /* \"#utility.yul\":47009:47011   */\n      0x20\n        /* \"#utility.yul\":46997:47006   */\n      dup3\n        /* \"#utility.yul\":46988:46995   */\n      dup5\n        /* \"#utility.yul\":46984:47007   */\n      sub\n        /* \"#utility.yul\":46980:47012   */\n      slt\n        /* \"#utility.yul\":46977:47096   */\n      iszero\n      tag_946\n      jumpi\n        /* \"#utility.yul\":47015:47094   */\n      tag_947\n      tag_422\n      jump\t// in\n    tag_947:\n        /* \"#utility.yul\":46977:47096   */\n    tag_946:\n        /* \"#utility.yul\":47156:47157   */\n      0x00\n        /* \"#utility.yul\":47145:47154   */\n      dup3\n        /* \"#utility.yul\":47141:47158   */\n      add\n        /* \"#utility.yul\":47135:47159   */\n      mload\n        /* \"#utility.yul\":47186:47204   */\n      0xffffffffffffffff\n        /* \"#utility.yul\":47178:47184   */\n      dup2\n        /* \"#utility.yul\":47175:47205   */\n      gt\n        /* \"#utility.yul\":47172:47289   */\n      iszero\n      tag_948\n      jumpi\n        /* \"#utility.yul\":47208:47287   */\n      tag_949\n      tag_423\n      jump\t// in\n    tag_949:\n        /* \"#utility.yul\":47172:47289   */\n    tag_948:\n        /* \"#utility.yul\":47313:47403   */\n      tag_950\n        /* \"#utility.yul\":47395:47402   */\n      dup5\n        /* \"#utility.yul\":47386:47392   */\n      dup3\n        /* \"#utility.yul\":47375:47384   */\n      dup6\n        /* \"#utility.yul\":47371:47393   */\n      add\n        /* \"#utility.yul\":47313:47403   */\n      tag_519\n      jump\t// in\n    tag_950:\n        /* \"#utility.yul\":47303:47403   */\n      swap2\n      pop\n        /* \"#utility.yul\":47106:47413   */\n      pop\n        /* \"#utility.yul\":46864:47420   */\n      swap3\n      swap2\n      pop\n      pop\n      jump\t// out\n        /* \"#utility.yul\":47426:47599   */\n    tag_520:\n        /* \"#utility.yul\":47566:47591   */\n      0x43617465676f727920646f6573206e6f74206578697374000000000000000000\n        /* \"#utility.yul\":47562:47563   */\n      0x00\n        /* \"#utility.yul\":47554:47560   */\n      dup3\n        /* \"#utility.yul\":47550:47564   */\n      add\n        /* \"#utility.yul\":47543:47592   */\n      mstore\n        /* \"#utility.yul\":47426:47599   */\n      pop\n      jump\t// out\n        /* \"#utility.yul\":47605:47971   */\n    tag_521:\n        /* \"#utility.yul\":47747:47750   */\n      0x00\n        /* \"#utility.yul\":47768:47835   */\n      tag_953\n        /* \"#utility.yul\":47832:47834   */\n      0x17\n        /* \"#utility.yul\":47827:47830   */\n      dup4\n        /* \"#utility.yul\":47768:47835   */\n      tag_492\n      jump\t// in\n    tag_953:\n        /* \"#utility.yul\":47761:47835   */\n      swap2\n      pop\n        /* \"#utility.yul\":47844:47937   */\n      tag_954\n        /* \"#utility.yul\":47933:47936   */\n      dup3\n        /* \"#utility.yul\":47844:47937   */\n      tag_520\n      jump\t// in\n    tag_954:\n        /* \"#utility.yul\":47962:47964   */\n      0x20\n        /* \"#utility.yul\":47957:47960   */\n      dup3\n        /* \"#utility.yul\":47953:47965   */\n      add\n        /* \"#utility.yul\":47946:47965   */\n      swap1\n      pop\n        /* \"#utility.yul\":47605:47971   */\n      swap2\n      swap1\n      pop\n      jump\t// out\n        /* \"#utility.yul\":47977:48396   */\n    tag_233:\n        /* \"#utility.yul\":48143:48147   */\n      0x00\n        /* \"#utility.yul\":48181:48183   */\n      0x20\n        /* \"#utility.yul\":48170:48179   */\n      dup3\n        /* \"#utility.yul\":48166:48184   */\n      add\n        /* \"#utility.yul\":48158:48184   */\n      swap1\n      pop\n        /* \"#utility.yul\":48230:48239   */\n      dup2\n        /* \"#utility.yul\":48224:48228   */\n      dup2\n        /* \"#utility.yul\":48220:48240   */\n      sub\n        /* \"#utility.yul\":48216:48217   */\n      0x00\n        /* \"#utility.yul\":48205:48214   */\n      dup4\n        /* \"#utility.yul\":48201:48218   */\n      add\n        /* \"#utility.yul\":48194:48241   */\n      mstore\n        /* \"#utility.yul\":48258:48389   */\n      tag_956\n        /* \"#utility.yul\":48384:48388   */\n      dup2\n        /* \"#utility.yul\":48258:48389   */\n      tag_521\n      jump\t// in\n    tag_956:\n        /* \"#utility.yul\":48250:48389   */\n      swap1\n      pop\n        /* \"#utility.yul\":47977:48396   */\n      swap2\n      swap1\n      pop\n      jump\t// out\n        /* \"#utility.yul\":48402:48779   */\n    tag_522:\n        /* \"#utility.yul\":48490:48493   */\n      0x00\n        /* \"#utility.yul\":48518:48557   */\n      tag_958\n        /* \"#utility.yul\":48551:48556   */\n      dup3\n        /* \"#utility.yul\":48518:48557   */\n      tag_433\n      jump\t// in\n    tag_958:\n        /* \"#utility.yul\":48573:48644   */\n      tag_959\n        /* \"#utility.yul\":48637:48643   */\n      dup2\n        /* \"#utility.yul\":48632:48635   */\n      dup6\n        /* \"#utility.yul\":48573:48644   */\n      tag_492\n      jump\t// in\n    tag_959:\n        /* \"#utility.yul\":48566:48644   */\n      swap4\n      pop\n        /* \"#utility.yul\":48653:48718   */\n      tag_960\n        /* \"#utility.yul\":48711:48717   */\n      dup2\n        /* \"#utility.yul\":48706:48709   */\n      dup6\n        /* \"#utility.yul\":48699:48703   */\n      0x20\n        /* \"#utility.yul\":48692:48697   */\n      dup7\n        /* \"#utility.yul\":48688:48704   */\n      add\n        /* \"#utility.yul\":48653:48718   */\n      tag_435\n      jump\t// in\n    tag_960:\n        /* \"#utility.yul\":48743:48772   */\n      tag_961\n        /* \"#utility.yul\":48765:48771   */\n      dup2\n        /* \"#utility.yul\":48743:48772   */\n      tag_436\n      jump\t// in\n    tag_961:\n        /* \"#utility.yul\":48738:48741   */\n      dup5\n        /* \"#utility.yul\":48734:48773   */\n      add\n        /* \"#utility.yul\":48727:48773   */\n      swap2\n      pop\n        /* \"#utility.yul\":48494:48779   */\n      pop\n        /* \"#utility.yul\":48402:48779   */\n      swap3\n      swap2\n      pop\n      pop\n      jump\t// out\n        /* \"#utility.yul\":48785:48979   */\n    tag_523:\n        /* \"#utility.yul\":48894:48905   */\n      0x00\n        /* \"#utility.yul\":48928:48934   */\n      dup3\n        /* \"#utility.yul\":48923:48926   */\n      dup3\n        /* \"#utility.yul\":48916:48935   */\n      mstore\n        /* \"#utility.yul\":48968:48972   */\n      0x20\n        /* \"#utility.yul\":48963:48966   */\n      dup3\n        /* \"#utility.yul\":48959:48973   */\n      add\n        /* \"#utility.yul\":48944:48973   */\n      swap1\n      pop\n        /* \"#utility.yul\":48785:48979   */\n      swap3\n      swap2\n      pop\n      pop\n      jump\t// out\n        /* \"#utility.yul\":49013:50004   */\n    tag_524:\n        /* \"#utility.yul\":49152:49155   */\n      0x00\n        /* \"#utility.yul\":49181:49245   */\n      tag_964\n        /* \"#utility.yul\":49239:49244   */\n      dup3\n        /* \"#utility.yul\":49181:49245   */\n      tag_438\n      jump\t// in\n    tag_964:\n        /* \"#utility.yul\":49261:49357   */\n      tag_965\n        /* \"#utility.yul\":49350:49356   */\n      dup2\n        /* \"#utility.yul\":49345:49348   */\n      dup6\n        /* \"#utility.yul\":49261:49357   */\n      tag_523\n      jump\t// in\n    tag_965:\n        /* \"#utility.yul\":49254:49357   */\n      swap4\n      pop\n        /* \"#utility.yul\":49383:49386   */\n      dup4\n        /* \"#utility.yul\":49428:49432   */\n      0x20\n        /* \"#utility.yul\":49420:49426   */\n      dup3\n        /* \"#utility.yul\":49416:49433   */\n      mul\n        /* \"#utility.yul\":49411:49414   */\n      dup6\n        /* \"#utility.yul\":49407:49434   */\n      add\n        /* \"#utility.yul\":49458:49524   */\n      tag_966\n        /* \"#utility.yul\":49518:49523   */\n      dup6\n        /* \"#utility.yul\":49458:49524   */\n      tag_440\n      jump\t// in\n    tag_966:\n        /* \"#utility.yul\":49547:49554   */\n      dup1\n        /* \"#utility.yul\":49578:49579   */\n      0x00\n        /* \"#utility.yul\":49563:49959   */\n    tag_967:\n        /* \"#utility.yul\":49588:49594   */\n      dup6\n        /* \"#utility.yul\":49585:49586   */\n      dup2\n        /* \"#utility.yul\":49582:49595   */\n      lt\n        /* \"#utility.yul\":49563:49959   */\n      iszero\n      tag_969\n      jumpi\n        /* \"#utility.yul\":49659:49668   */\n      dup5\n        /* \"#utility.yul\":49653:49657   */\n      dup5\n        /* \"#utility.yul\":49649:49669   */\n      sub\n        /* \"#utility.yul\":49644:49647   */\n      dup10\n        /* \"#utility.yul\":49637:49670   */\n      mstore\n        /* \"#utility.yul\":49710:49716   */\n      dup2\n        /* \"#utility.yul\":49704:49717   */\n      mload\n        /* \"#utility.yul\":49738:49822   */\n      tag_970\n        /* \"#utility.yul\":49817:49821   */\n      dup6\n        /* \"#utility.yul\":49802:49815   */\n      dup3\n        /* \"#utility.yul\":49738:49822   */\n      tag_441\n      jump\t// in\n    tag_970:\n        /* \"#utility.yul\":49730:49822   */\n      swap5\n      pop\n        /* \"#utility.yul\":49845:49915   */\n      tag_971\n        /* \"#utility.yul\":49908:49914   */\n      dup4\n        /* \"#utility.yul\":49845:49915   */\n      tag_442\n      jump\t// in\n    tag_971:\n        /* \"#utility.yul\":49835:49915   */\n      swap3\n      pop\n        /* \"#utility.yul\":49944:49948   */\n      0x20\n        /* \"#utility.yul\":49939:49942   */\n      dup11\n        /* \"#utility.yul\":49935:49949   */\n      add\n        /* \"#utility.yul\":49928:49949   */\n      swap10\n      pop\n        /* \"#utility.yul\":49623:49959   */\n      pop\n        /* \"#utility.yul\":49610:49611   */\n      0x01\n        /* \"#utility.yul\":49607:49608   */\n      dup2\n        /* \"#utility.yul\":49603:49612   */\n      add\n        /* \"#utility.yul\":49598:49612   */\n      swap1\n      pop\n        /* \"#utility.yul\":49563:49959   */\n      jump(tag_967)\n    tag_969:\n        /* \"#utility.yul\":49567:49581   */\n      pop\n        /* \"#utility.yul\":49975:49979   */\n      dup3\n        /* \"#utility.yul\":49968:49979   */\n      swap8\n      pop\n        /* \"#utility.yul\":49995:49998   */\n      dup8\n        /* \"#utility.yul\":49988:49998   */\n      swap6\n      pop\n        /* \"#utility.yul\":49157:50004   */\n      pop\n      pop\n      pop\n      pop\n      pop\n        /* \"#utility.yul\":49013:50004   */\n      swap3\n      swap2\n      pop\n      pop\n      jump\t// out\n        /* \"#utility.yul\":50010:51047   */\n    tag_239:\n        /* \"#utility.yul\":50325:50329   */\n      0x00\n        /* \"#utility.yul\":50363:50366   */\n      0xa0\n        /* \"#utility.yul\":50352:50361   */\n      dup3\n        /* \"#utility.yul\":50348:50367   */\n      add\n        /* \"#utility.yul\":50340:50367   */\n      swap1\n      pop\n        /* \"#utility.yul\":50377:50448   */\n      tag_973\n        /* \"#utility.yul\":50445:50446   */\n      0x00\n        /* \"#utility.yul\":50434:50443   */\n      dup4\n        /* \"#utility.yul\":50430:50447   */\n      add\n        /* \"#utility.yul\":50421:50427   */\n      dup9\n        /* \"#utility.yul\":50377:50448   */\n      tag_431\n      jump\t// in\n    tag_973:\n        /* \"#utility.yul\":50495:50504   */\n      dup2\n        /* \"#utility.yul\":50489:50493   */\n      dup2\n        /* \"#utility.yul\":50485:50505   */\n      sub\n        /* \"#utility.yul\":50480:50482   */\n      0x20\n        /* \"#utility.yul\":50469:50478   */\n      dup4\n        /* \"#utility.yul\":50465:50483   */\n      add\n        /* \"#utility.yul\":50458:50506   */\n      mstore\n        /* \"#utility.yul\":50523:50601   */\n      tag_974\n        /* \"#utility.yul\":50596:50600   */\n      dup2\n        /* \"#utility.yul\":50587:50593   */\n      dup8\n        /* \"#utility.yul\":50523:50601   */\n      tag_522\n      jump\t// in\n    tag_974:\n        /* \"#utility.yul\":50515:50601   */\n      swap1\n      pop\n        /* \"#utility.yul\":50648:50657   */\n      dup2\n        /* \"#utility.yul\":50642:50646   */\n      dup2\n        /* \"#utility.yul\":50638:50658   */\n      sub\n        /* \"#utility.yul\":50633:50635   */\n      0x40\n        /* \"#utility.yul\":50622:50631   */\n      dup4\n        /* \"#utility.yul\":50618:50636   */\n      add\n        /* \"#utility.yul\":50611:50659   */\n      mstore\n        /* \"#utility.yul\":50676:50754   */\n      tag_975\n        /* \"#utility.yul\":50749:50753   */\n      dup2\n        /* \"#utility.yul\":50740:50746   */\n      dup7\n        /* \"#utility.yul\":50676:50754   */\n      tag_522\n      jump\t// in\n    tag_975:\n        /* \"#utility.yul\":50668:50754   */\n      swap1\n      pop\n        /* \"#utility.yul\":50764:50836   */\n      tag_976\n        /* \"#utility.yul\":50832:50834   */\n      0x60\n        /* \"#utility.yul\":50821:50830   */\n      dup4\n        /* \"#utility.yul\":50817:50835   */\n      add\n        /* \"#utility.yul\":50808:50814   */\n      dup6\n        /* \"#utility.yul\":50764:50836   */\n      tag_431\n      jump\t// in\n    tag_976:\n        /* \"#utility.yul\":50884:50893   */\n      dup2\n        /* \"#utility.yul\":50878:50882   */\n      dup2\n        /* \"#utility.yul\":50874:50894   */\n      sub\n        /* \"#utility.yul\":50868:50871   */\n      0x80\n        /* \"#utility.yul\":50857:50866   */\n      dup4\n        /* \"#utility.yul\":50853:50872   */\n      add\n        /* \"#utility.yul\":50846:50895   */\n      mstore\n        /* \"#utility.yul\":50912:51040   */\n      tag_977\n        /* \"#utility.yul\":51035:51039   */\n      dup2\n        /* \"#utility.yul\":51026:51032   */\n      dup5\n        /* \"#utility.yul\":50912:51040   */\n      tag_524\n      jump\t// in\n    tag_977:\n        /* \"#utility.yul\":50904:51040   */\n      swap1\n      pop\n        /* \"#utility.yul\":50010:51047   */\n      swap7\n      swap6\n      pop\n      pop\n      pop\n      pop\n      pop\n      pop\n      jump\t// out\n        /* \"#utility.yul\":51053:51280   */\n    tag_525:\n        /* \"#utility.yul\":51193:51227   */\n      0x5175616e74697479277320666f6f642063616e6e6f7420626520736d616c6c65\n        /* \"#utility.yul\":51189:51190   */\n      0x00\n        /* \"#utility.yul\":51181:51187   */\n      dup3\n        /* \"#utility.yul\":51177:51191   */\n      add\n        /* \"#utility.yul\":51170:51228   */\n      mstore\n        /* \"#utility.yul\":51262:51272   */\n      0x72207468616e2030000000000000000000000000000000000000000000000000\n        /* \"#utility.yul\":51257:51259   */\n      0x20\n        /* \"#utility.yul\":51249:51255   */\n      dup3\n        /* \"#utility.yul\":51245:51260   */\n      add\n        /* \"#utility.yul\":51238:51273   */\n      mstore\n        /* \"#utility.yul\":51053:51280   */\n      pop\n      jump\t// out\n        /* \"#utility.yul\":51286:51652   */\n    tag_526:\n        /* \"#utility.yul\":51428:51431   */\n      0x00\n        /* \"#utility.yul\":51449:51516   */\n      tag_980\n        /* \"#utility.yul\":51513:51515   */\n      0x28\n        /* \"#utility.yul\":51508:51511   */\n      dup4\n        /* \"#utility.yul\":51449:51516   */\n      tag_492\n      jump\t// in\n    tag_980:\n        /* \"#utility.yul\":51442:51516   */\n      swap2\n      pop\n        /* \"#utility.yul\":51525:51618   */\n      tag_981\n        /* \"#utility.yul\":51614:51617   */\n      dup3\n        /* \"#utility.yul\":51525:51618   */\n      tag_525\n      jump\t// in\n    tag_981:\n        /* \"#utility.yul\":51643:51645   */\n      0x40\n        /* \"#utility.yul\":51638:51641   */\n      dup3\n        /* \"#utility.yul\":51634:51646   */\n      add\n        /* \"#utility.yul\":51627:51646   */\n      swap1\n      pop\n        /* \"#utility.yul\":51286:51652   */\n      swap2\n      swap1\n      pop\n      jump\t// out\n        /* \"#utility.yul\":51658:52077   */\n    tag_257:\n        /* \"#utility.yul\":51824:51828   */\n      0x00\n        /* \"#utility.yul\":51862:51864   */\n      0x20\n        /* \"#utility.yul\":51851:51860   */\n      dup3\n        /* \"#utility.yul\":51847:51865   */\n      add\n        /* \"#utility.yul\":51839:51865   */\n      swap1\n      pop\n        /* \"#utility.yul\":51911:51920   */\n      dup2\n        /* \"#utility.yul\":51905:51909   */\n      dup2\n        /* \"#utility.yul\":51901:51921   */\n      sub\n        /* \"#utility.yul\":51897:51898   */\n      0x00\n        /* \"#utility.yul\":51886:51895   */\n      dup4\n        /* \"#utility.yul\":51882:51899   */\n      add\n        /* \"#utility.yul\":51875:51922   */\n      mstore\n        /* \"#utility.yul\":51939:52070   */\n      tag_983\n        /* \"#utility.yul\":52065:52069   */\n      dup2\n        /* \"#utility.yul\":51939:52070   */\n      tag_526\n      jump\t// in\n    tag_983:\n        /* \"#utility.yul\":51931:52070   */\n      swap1\n      pop\n        /* \"#utility.yul\":51658:52077   */\n      swap2\n      swap1\n      pop\n      jump\t// out\n        /* \"#utility.yul\":52083:52265   */\n    tag_527:\n        /* \"#utility.yul\":52223:52257   */\n      0x466f6f642077697468207468697320494420616c726561647920657869737473\n        /* \"#utility.yul\":52219:52220   */\n      0x00\n        /* \"#utility.yul\":52211:52217   */\n      dup3\n        /* \"#utility.yul\":52207:52221   */\n      add\n        /* \"#utility.yul\":52200:52258   */\n      mstore\n        /* \"#utility.yul\":52083:52265   */\n      pop\n      jump\t// out\n        /* \"#utility.yul\":52271:52637   */\n    tag_528:\n        /* \"#utility.yul\":52413:52416   */\n      0x00\n        /* \"#utility.yul\":52434:52501   */\n      tag_986\n        /* \"#utility.yul\":52498:52500   */\n      0x20\n        /* \"#utility.yul\":52493:52496   */\n      dup4\n        /* \"#utility.yul\":52434:52501   */\n      tag_492\n      jump\t// in\n    tag_986:\n        /* \"#utility.yul\":52427:52501   */\n      swap2\n      pop\n        /* \"#utility.yul\":52510:52603   */\n      tag_987\n        /* \"#utility.yul\":52599:52602   */\n      dup3\n        /* \"#utility.yul\":52510:52603   */\n      tag_527\n      jump\t// in\n    tag_987:\n        /* \"#utility.yul\":52628:52630   */\n      0x20\n        /* \"#utility.yul\":52623:52626   */\n      dup3\n        /* \"#utility.yul\":52619:52631   */\n      add\n        /* \"#utility.yul\":52612:52631   */\n      swap1\n      pop\n        /* \"#utility.yul\":52271:52637   */\n      swap2\n      swap1\n      pop\n      jump\t// out\n        /* \"#utility.yul\":52643:53062   */\n    tag_276:\n        /* \"#utility.yul\":52809:52813   */\n      0x00\n        /* \"#utility.yul\":52847:52849   */\n      0x20\n        /* \"#utility.yul\":52836:52845   */\n      dup3\n        /* \"#utility.yul\":52832:52850   */\n      add\n        /* \"#utility.yul\":52824:52850   */\n      swap1\n      pop\n        /* \"#utility.yul\":52896:52905   */\n      dup2\n        /* \"#utility.yul\":52890:52894   */\n      dup2\n        /* \"#utility.yul\":52886:52906   */\n      sub\n        /* \"#utility.yul\":52882:52883   */\n      0x00\n        /* \"#utility.yul\":52871:52880   */\n      dup4\n        /* \"#utility.yul\":52867:52884   */\n      add\n        /* \"#utility.yul\":52860:52907   */\n      mstore\n        /* \"#utility.yul\":52924:53055   */\n      tag_989\n        /* \"#utility.yul\":53050:53054   */\n      dup2\n        /* \"#utility.yul\":52924:53055   */\n      tag_528\n      jump\t// in\n    tag_989:\n        /* \"#utility.yul\":52916:53055   */\n      swap1\n      pop\n        /* \"#utility.yul\":52643:53062   */\n      swap2\n      swap1\n      pop\n      jump\t// out\n\n    auxdata: 0xa26469706673582212208b22fb9a3e6d54eb5a43706c446db70dcac1c6aacdb88c74b8457088d1f37f8964736f6c634300081e0033\n}\n",
				"bytecode": {
					"linkReferences": {},
					"object": "608060405260016003556001600455348015610019575f5ffd5b50604051613b14380380613b14833981810160405281019061003b919061011e565b335f5f6101000a81548173ffffffffffffffffffffffffffffffffffffffff021916908373ffffffffffffffffffffffffffffffffffffffff1602179055508060025f6101000a81548173ffffffffffffffffffffffffffffffffffffffff021916908373ffffffffffffffffffffffffffffffffffffffff16021790555050610149565b5f5ffd5b5f73ffffffffffffffffffffffffffffffffffffffff82169050919050565b5f6100ed826100c4565b9050919050565b6100fd816100e3565b8114610107575f5ffd5b50565b5f81519050610118816100f4565b92915050565b5f60208284031215610133576101326100c0565b5b5f6101408482850161010a565b91505092915050565b6139be806101565f395ff3fe608060405234801561000f575f5ffd5b506004361061011f575f3560e01c80636dd2dd88116100ab578063b447aaae1161006f578063b447aaae14610301578063b9b5aae61461031d578063baf853061461033b578063d198b65014610357578063d86ec238146103735761011f565b80636dd2dd881461025f578063704802751461027b578063893d20e8146102975780639a69bfa6146102b5578063af5607f9146102d15761011f565b80631e4de872116100f25780631e4de8721461019757806324d7806c146101c757806335085515146101f75780634d30a39b1461022757806364f77471146102435761011f565b8063094b9a53146101235780631785f53c1461013f5780631945ef581461015b5780631b0d77cc14610179575b5f5ffd5b61013d60048036038101906101389190612156565b610391565b005b61015960048036038101906101549190612200565b61044a565b005b6101636104b1565b604051610170919061223a565b60405180910390f35b6101816104b7565b60405161018e919061223a565b60405180910390f35b6101b160048036038101906101ac9190612253565b6104bd565b6040516101be9190612473565b60405180910390f35b6101e160048036038101906101dc9190612200565b610763565b6040516101ee9190612506565b60405180910390f35b610211600480360381019061020c919061251f565b610780565b60405161021e91906125bd565b60405180910390f35b610241600480360381019061023c919061251f565b610975565b005b61025d60048036038101906102589190612870565b610c78565b005b610279600480360381019061027491906129a8565b610e27565b005b61029560048036038101906102909190612200565b611028565b005b61029f61108f565b6040516102ac9190612a82565b60405180910390f35b6102cf60048036038101906102ca9190612156565b6110b6565b005b6102eb60048036038101906102e69190612253565b6111e3565b6040516102f89190612bb6565b60405180910390f35b61031b60048036038101906103169190612bd6565b611352565b005b610325611764565b6040516103329190612f09565b60405180910390f35b61035560048036038101906103509190612f29565b611b8e565b005b610371600480360381019061036c9190612253565b611d54565b005b61037b611f1d565b6040516103889190612ff0565b60405180910390f35b5f5f90505b60065f8581526020019081526020015f2080549050811015610444578260065f8681526020019081526020015f2082815481106103d6576103d5613009565b5b905f5260205f2090600402015f015403610437578160065f8681526020019081526020015f20828154811061040e5761040d613009565b5b905f5260205f2090600402016002015f82825461042b9190613063565b92505081905550610444565b8080600101915050610396565b50505050565b5f60015f8373ffffffffffffffffffffffffffffffffffffffff1673ffffffffffffffffffffffffffffffffffffffff1681526020019081526020015f205f6101000a81548160ff021916908360028111156104a9576104a8612493565b5b021790555050565b60035481565b60045481565b6104c5611f42565b5f60055f8481526020019081526020015f205f01540361051a576040517f08c379a0000000000000000000000000000000000000000000000000000000008152600401610511906130f0565b60405180910390fd5b60055f8381526020019081526020015f20604051806101000160405290815f82015481526020016001820180546105509061313b565b80601f016020809104026020016040519081016040528092919081815260200182805461057c9061313b565b80156105c75780601f1061059e576101008083540402835291602001916105c7565b820191905f5260205f20905b8154815290600101906020018083116105aa57829003601f168201915b505050505081526020016002820180546105e09061313b565b80601f016020809104026020016040519081016040528092919081815260200182805461060c9061313b565b80156106575780601f1061062e57610100808354040283529160200191610657565b820191905f5260205f20905b81548152906001019060200180831161063a57829003601f168201915b505050505081526020016003820154815260200160048201805480602002602001604051908101604052809291908181526020015f905b82821015610736578382905f5260205f200180546106ab9061313b565b80601f01602080910402602001604051908101604052809291908181526020018280546106d79061313b565b80156107225780601f106106f957610100808354040283529160200191610722565b820191905f5260205f20905b81548152906001019060200180831161070557829003601f168201915b50505050508152602001906001019061068e565b50505050815260200160058201548152602001600682015481526020016007820154815250509050919050565b6001602052805f5260405f205f915054906101000a900460ff1681565b610788611f82565b5f60065f8581526020019081526020015f2080549050116107de576040517f08c379a00000000000000000000000000000000000000000000000000000000081526004016107d5906131b5565b60405180910390fd5b5f5f90505b60065f8581526020019081526020015f2080549050811015610933578260065f8681526020019081526020015f20828154811061082357610822613009565b5b905f5260205f2090600402015f0154036109265760065f8581526020019081526020015f20818154811061085a57610859613009565b5b905f5260205f2090600402016040518060800160405290815f820154815260200160018201805461088a9061313b565b80601f01602080910402602001604051908101604052809291908181526020018280546108b69061313b565b80156109015780601f106108d857610100808354040283529160200191610901565b820191905f5260205f20905b8154815290600101906020018083116108e457829003601f168201915b505050505081526020016002820154815260200160038201548152505091505061096f565b80806001019150506107e3565b506040517f08c379a00000000000000000000000000000000000000000000000000000000081526004016109669061321d565b60405180910390fd5b92915050565b5f60055f8481526020019081526020015f205f0154036109ca576040517f08c379a00000000000000000000000000000000000000000000000000000000081526004016109c1906130f0565b60405180910390fd5b5f60065f8481526020019081526020015f2090505f5f90505f5f90505b8280549050811015610c315783838281548110610a0757610a06613009565b5b905f5260205f2090600402015f015403610c24576001838054905011610a5b5760405180608001604052805f815260200160405180602001604052805f81525081526020015f81526020015f815250610b43565b8260018480549050610a6d919061323b565b81548110610a7e57610a7d613009565b5b905f5260205f2090600402016040518060800160405290815f8201548152602001600182018054610aae9061313b565b80601f0160208091040260200160405190810160405280929190818152602001828054610ada9061313b565b8015610b255780601f10610afc57610100808354040283529160200191610b25565b820191905f5260205f20905b815481529060010190602001808311610b0857829003601f168201915b50505050508152602001600282015481526020016003820154815250505b838281548110610b5657610b55613009565b5b905f5260205f2090600402015f820151815f01556020820151816001019081610b7f9190613405565b50604082015181600201556060820151816003015590505082805480610ba857610ba76134d4565b5b600190038181905f5260205f2090600402015f5f82015f9055600182015f610bd09190611fa7565b600282015f9055600382015f905550509055600191507f55caa6a55acb7e3464dc13c54d94739e0f01b9141276caebb64f3ef500cd89008585604051610c17929190613501565b60405180910390a1610c31565b80806001019150506109e7565b5080610c72576040517f08c379a0000000000000000000000000000000000000000000000000000000008152600401610c6990613572565b60405180910390fd5b50505050565b5f60055f8481526020019081526020015f205f015403610ccd576040517f08c379a0000000000000000000000000000000000000000000000000000000008152600401610cc4906130f0565b60405180910390fd5b5f5f90505b8151811015610deb5760045f815480929190610ced90613590565b91905055505f60405180608001604052806004548152602001848481518110610d1957610d18613009565b5b60200260200101515f01518152602001848481518110610d3c57610d3b613009565b5b6020026020010151602001518152602001848481518110610d6057610d5f613009565b5b602002602001015160400151815250905060065f8581526020019081526020015f2081908060018154018082558091505060019003905f5260205f2090600402015f909190919091505f820151815f01556020820151816001019081610dc69190613405565b5060408201518160020155606082015181600301555050508080600101915050610cd2565b507f19a8e56286393226625dcdbc7cbb5a7611c71773d54c7e0680658cb9ceef6c2282604051610e1b919061223a565b60405180910390a15050565b5f60055f8781526020019081526020015f205f015403610e7c576040517f08c379a0000000000000000000000000000000000000000000000000000000008152600401610e73906130f0565b60405180910390fd5b5f60025f9054906101000a900473ffffffffffffffffffffffffffffffffffffffff1673ffffffffffffffffffffffffffffffffffffffff1663f3052d26846040518263ffffffff1660e01b8152600401610ed7919061223a565b5f60405180830381865afa158015610ef1573d5f5f3e3d5ffd5b505050506040513d5f823e3d601f19601f82011682018060405250810190610f1991906136c2565b5f015103610f5c576040517f08c379a0000000000000000000000000000000000000000000000000000000008152600401610f5390613753565b60405180910390fd5b8360055f8781526020019081526020015f206001019081610f7d9190613405565b508260055f8781526020019081526020015f206002019081610f9f9190613405565b508160055f8781526020019081526020015f20600301819055508060055f8781526020019081526020015f206004019080519060200190610fe1929190611fe4565b507f4f49710e0e59ea2e7096d7bad0267390d8bb5c007687f72b0de2db3afdadd5e5858585858560405161101995949392919061382c565b60405180910390a15050505050565b6001805f8373ffffffffffffffffffffffffffffffffffffffff1673ffffffffffffffffffffffffffffffffffffffff1681526020019081526020015f205f6101000a81548160ff0219169083600281111561108757611086612493565b5b021790555050565b5f5f5f9054906101000a900473ffffffffffffffffffffffffffffffffffffffff16905090565b5f5f90505b60065f8581526020019081526020015f20805490508110156111dd578260065f8681526020019081526020015f2082815481106110fb576110fa613009565b5b905f5260205f2090600402015f0154036111d05760065f8581526020019081526020015f20818154811061113257611131613009565b5b905f5260205f209060040201600201548210611183576040517f08c379a000000000000000000000000000000000000000000000000000000000815260040161117a90613902565b60405180910390fd5b8160065f8681526020019081526020015f2082815481106111a7576111a6613009565b5b905f5260205f2090600402016002015f8282546111c4919061323b565b925050819055506111dd565b80806001019150506110bb565b50505050565b60605f60055f8481526020019081526020015f205f01540361123a576040517f08c379a0000000000000000000000000000000000000000000000000000000008152600401611231906130f0565b60405180910390fd5b60065f8381526020019081526020015f20805480602002602001604051908101604052809291908181526020015f905b82821015611347578382905f5260205f2090600402016040518060800160405290815f82015481526020016001820180546112a49061313b565b80601f01602080910402602001604051908101604052809291908181526020018280546112d09061313b565b801561131b5780601f106112f25761010080835404028352916020019161131b565b820191905f5260205f20905b8154815290600101906020018083116112fe57829003601f168201915b50505050508152602001600282015481526020016003820154815250508152602001906001019061126a565b505050509050919050565b5f60055f8881526020019081526020015f205f0154146113a7576040517f08c379a000000000000000000000000000000000000000000000000000000000815260040161139e9061396a565b60405180910390fd5b5f60025f9054906101000a900473ffffffffffffffffffffffffffffffffffffffff1673ffffffffffffffffffffffffffffffffffffffff1663f3052d26856040518263ffffffff1660e01b8152600401611402919061223a565b5f60405180830381865afa15801561141c573d5f5f3e3d5ffd5b505050506040513d5f823e3d601f19601f8201168201806040525081019061144491906136c2565b5f015103611487576040517f08c379a000000000000000000000000000000000000000000000000000000000815260040161147e90613753565b60405180910390fd5b5f6040518061010001604052808881526020018781526020018681526020018581526020018481526020015f81526020015f81526020015f81525090508060055f8981526020019081526020015f205f820151815f015560208201518160010190816114f39190613405565b5060408201518160020190816115099190613405565b50606082015181600301556080820151816004019080519060200190611530929190611fe4565b5060a0820151816005015560c0820151816006015560e08201518160070155905050600787908060018154018082558091505060019003905f5260205f20015f909190919091505560025f9054906101000a900473ffffffffffffffffffffffffffffffffffffffff1673ffffffffffffffffffffffffffffffffffffffff16635f8069cc85896040518363ffffffff1660e01b81526004016115d4929190613501565b5f604051808303815f87803b1580156115eb575f5ffd5b505af11580156115fd573d5f5f3e3d5ffd5b505050505f5f90505b825181101561171b575f604051806080016040528060045f81548092919061162d90613590565b91905055815260200185848151811061164957611648613009565b5b60200260200101515f0151815260200185848151811061166c5761166b613009565b5b60200260200101516020015181526020018584815181106116905761168f613009565b5b602002602001015160400151815250905060065f8a81526020019081526020015f2081908060018154018082558091505060019003905f5260205f2090600402015f909190919091505f820151815f015560208201518160010190816116f69190613405565b5060408201518160020155606082015181600301555050508080600101915050611606565b507fbdf2814016d06bf27f22aa349fade26a888a8f7eac3e0963916b1c64cc37a5ce878787878760405161175395949392919061382c565b60405180910390a150505050505050565b60605f60078054905067ffffffffffffffff811115611786576117856125e1565b5b6040519080825280602002602001820160405280156117bf57816020015b6117ac61203b565b8152602001906001900390816117a45790505b5090505f5f90505b600780549050811015611b86575f600782815481106117e9576117e8613009565b5b905f5260205f2001549050604051806040016040528060055f8481526020019081526020015f20604051806101000160405290815f82015481526020016001820180546118359061313b565b80601f01602080910402602001604051908101604052809291908181526020018280546118619061313b565b80156118ac5780601f10611883576101008083540402835291602001916118ac565b820191905f5260205f20905b81548152906001019060200180831161188f57829003601f168201915b505050505081526020016002820180546118c59061313b565b80601f01602080910402602001604051908101604052809291908181526020018280546118f19061313b565b801561193c5780601f106119135761010080835404028352916020019161193c565b820191905f5260205f20905b81548152906001019060200180831161191f57829003601f168201915b505050505081526020016003820154815260200160048201805480602002602001604051908101604052809291908181526020015f905b82821015611a1b578382905f5260205f200180546119909061313b565b80601f01602080910402602001604051908101604052809291908181526020018280546119bc9061313b565b8015611a075780601f106119de57610100808354040283529160200191611a07565b820191905f5260205f20905b8154815290600101906020018083116119ea57829003601f168201915b505050505081526020019060010190611973565b5050505081526020016005820154815260200160068201548152602001600782015481525050815260200160065f8481526020019081526020015f20805480602002602001604051908101604052809291908181526020015f905b82821015611b53578382905f5260205f2090600402016040518060800160405290815f8201548152602001600182018054611ab09061313b565b80601f0160208091040260200160405190810160405280929190818152602001828054611adc9061313b565b8015611b275780601f10611afe57610100808354040283529160200191611b27565b820191905f5260205f20905b815481529060010190602001808311611b0a57829003601f168201915b505050505081526020016002820154815260200160038201548152505081526020019060010190611a76565b50505050815250838381518110611b6d57611b6c613009565b5b60200260200101819052505080806001019150506117c7565b508091505090565b5f60055f8581526020019081526020015f205f015403611be3576040517f08c379a0000000000000000000000000000000000000000000000000000000008152600401611bda906130f0565b60405180910390fd5b5f60065f8581526020019081526020015f2090505f5f90505f5f90505b8280549050811015611d0c5784838281548110611c2057611c1f613009565b5b905f5260205f2090600402015f015403611cff57835f0151838281548110611c4b57611c4a613009565b5b905f5260205f2090600402016001019081611c669190613405565b508360200151838281548110611c7f57611c7e613009565b5b905f5260205f209060040201600201819055508360400151838281548110611caa57611ca9613009565b5b905f5260205f20906004020160030181905550600191507fe29e1e70959f0c301943d01c4bd294592a2105bc81e9b2523c4b1d7f7d1f393f8686604051611cf2929190613501565b60405180910390a1611d0c565b8080600101915050611c00565b5080611d4d576040517f08c379a0000000000000000000000000000000000000000000000000000000008152600401611d4490613572565b60405180910390fd5b5050505050565b5f60055f8381526020019081526020015f205f015403611da9576040517f08c379a0000000000000000000000000000000000000000000000000000000008152600401611da0906130f0565b60405180910390fd5b60055f8281526020019081526020015f205f5f82015f9055600182015f611dd09190611fa7565b600282015f611ddf9190611fa7565b600382015f9055600482015f611df5919061205b565b600582015f9055600682015f9055600782015f9055505060065f8281526020019081526020015f205f611e289190612079565b5f5f90505b600780549050811015611ee2578160078281548110611e4f57611e4e613009565b5b905f5260205f20015403611ed55760076001600780549050611e71919061323b565b81548110611e8257611e81613009565b5b905f5260205f20015460078281548110611e9f57611e9e613009565b5b905f5260205f2001819055506007805480611ebd57611ebc6134d4565b5b600190038181905f5260205f20015f90559055611ee2565b8080600101915050611e2d565b507f4d4e7c43d5805933523b1317fdd5acb7517962d3e9f52834633b9f014947729581604051611f12919061223a565b60405180910390a150565b60025f9054906101000a900473ffffffffffffffffffffffffffffffffffffffff1681565b6040518061010001604052805f815260200160608152602001606081526020015f8152602001606081526020015f81526020015f81526020015f81525090565b60405180608001604052805f8152602001606081526020015f81526020015f81525090565b508054611fb39061313b565b5f825580601f10611fc45750611fe1565b601f0160209004905f5260205f2090810190611fe0919061209a565b5b50565b828054828255905f5260205f2090810192821561202a579160200282015b828111156120295782518290816120199190613405565b5091602001919060010190612002565b5b50905061203791906120b5565b5090565b604051806040016040528061204e611f42565b8152602001606081525090565b5080545f8255905f5260205f209081019061207691906120b5565b50565b5080545f8255600402905f5260205f209081019061209791906120d8565b50565b5b808211156120b1575f815f90555060010161209b565b5090565b5b808211156120d4575f81816120cb9190611fa7565b506001016120b6565b5090565b5b8082111561210e575f5f82015f9055600182015f6120f79190611fa7565b600282015f9055600382015f9055506004016120d9565b5090565b5f604051905090565b5f5ffd5b5f5ffd5b5f819050919050565b61213581612123565b811461213f575f5ffd5b50565b5f813590506121508161212c565b92915050565b5f5f5f6060848603121561216d5761216c61211b565b5b5f61217a86828701612142565b935050602061218b86828701612142565b925050604061219c86828701612142565b9150509250925092565b5f73ffffffffffffffffffffffffffffffffffffffff82169050919050565b5f6121cf826121a6565b9050919050565b6121df816121c5565b81146121e9575f5ffd5b50565b5f813590506121fa816121d6565b92915050565b5f602082840312156122155761221461211b565b5b5f612222848285016121ec565b91505092915050565b61223481612123565b82525050565b5f60208201905061224d5f83018461222b565b92915050565b5f602082840312156122685761226761211b565b5b5f61227584828501612142565b91505092915050565b61228781612123565b82525050565b5f81519050919050565b5f82825260208201905092915050565b8281835e5f83830152505050565b5f601f19601f8301169050919050565b5f6122cf8261228d565b6122d98185612297565b93506122e98185602086016122a7565b6122f2816122b5565b840191505092915050565b5f81519050919050565b5f82825260208201905092915050565b5f819050602082019050919050565b5f61233183836122c5565b905092915050565b5f602082019050919050565b5f61234f826122fd565b6123598185612307565b93508360208202850161236b85612317565b805f5b858110156123a657848403895281516123878582612326565b945061239283612339565b925060208a0199505060018101905061236e565b50829750879550505050505092915050565b5f61010083015f8301516123ce5f86018261227e565b50602083015184820360208601526123e682826122c5565b9150506040830151848203604086015261240082826122c5565b9150506060830151612415606086018261227e565b506080830151848203608086015261242d8282612345565b91505060a083015161244260a086018261227e565b5060c083015161245560c086018261227e565b5060e083015161246860e086018261227e565b508091505092915050565b5f6020820190508181035f83015261248b81846123b8565b905092915050565b7f4e487b71000000000000000000000000000000000000000000000000000000005f52602160045260245ffd5b600381106124d1576124d0612493565b5b50565b5f8190506124e1826124c0565b919050565b5f6124f0826124d4565b9050919050565b612500816124e6565b82525050565b5f6020820190506125195f8301846124f7565b92915050565b5f5f604083850312156125355761253461211b565b5b5f61254285828601612142565b925050602061255385828601612142565b9150509250929050565b5f608083015f8301516125725f86018261227e565b506020830151848203602086015261258a82826122c5565b915050604083015161259f604086018261227e565b5060608301516125b2606086018261227e565b508091505092915050565b5f6020820190508181035f8301526125d5818461255d565b905092915050565b5f5ffd5b7f4e487b71000000000000000000000000000000000000000000000000000000005f52604160045260245ffd5b612617826122b5565b810181811067ffffffffffffffff82111715612636576126356125e1565b5b80604052505050565b5f612648612112565b9050612654828261260e565b919050565b5f67ffffffffffffffff821115612673576126726125e1565b5b602082029050602081019050919050565b5f5ffd5b5f5ffd5b5f5ffd5b5f5ffd5b5f67ffffffffffffffff8211156126ae576126ad6125e1565b5b6126b7826122b5565b9050602081019050919050565b828183375f83830152505050565b5f6126e46126df84612694565b61263f565b905082815260208101848484011115612700576126ff612690565b5b61270b8482856126c4565b509392505050565b5f82601f830112612727576127266125dd565b5b81356127378482602086016126d2565b91505092915050565b5f6060828403121561275557612754612688565b5b61275f606061263f565b90505f82013567ffffffffffffffff81111561277e5761277d61268c565b5b61278a84828501612713565b5f83015250602061279d84828501612142565b60208301525060406127b184828501612142565b60408301525092915050565b5f6127cf6127ca84612659565b61263f565b905080838252602082019050602084028301858111156127f2576127f1612684565b5b835b8181101561283957803567ffffffffffffffff811115612817576128166125dd565b5b8086016128248982612740565b855260208501945050506020810190506127f4565b5050509392505050565b5f82601f830112612857576128566125dd565b5b81356128678482602086016127bd565b91505092915050565b5f5f604083850312156128865761288561211b565b5b5f61289385828601612142565b925050602083013567ffffffffffffffff8111156128b4576128b361211f565b5b6128c085828601612843565b9150509250929050565b5f67ffffffffffffffff8211156128e4576128e36125e1565b5b602082029050602081019050919050565b5f612907612902846128ca565b61263f565b9050808382526020820190506020840283018581111561292a57612929612684565b5b835b8181101561297157803567ffffffffffffffff81111561294f5761294e6125dd565b5b80860161295c8982612713565b8552602085019450505060208101905061292c565b5050509392505050565b5f82601f83011261298f5761298e6125dd565b5b813561299f8482602086016128f5565b91505092915050565b5f5f5f5f5f60a086880312156129c1576129c061211b565b5b5f6129ce88828901612142565b955050602086013567ffffffffffffffff8111156129ef576129ee61211f565b5b6129fb88828901612713565b945050604086013567ffffffffffffffff811115612a1c57612a1b61211f565b5b612a2888828901612713565b9350506060612a3988828901612142565b925050608086013567ffffffffffffffff811115612a5a57612a5961211f565b5b612a668882890161297b565b9150509295509295909350565b612a7c816121c5565b82525050565b5f602082019050612a955f830184612a73565b92915050565b5f81519050919050565b5f82825260208201905092915050565b5f819050602082019050919050565b5f608083015f830151612ad95f86018261227e565b5060208301518482036020860152612af182826122c5565b9150506040830151612b06604086018261227e565b506060830151612b19606086018261227e565b508091505092915050565b5f612b2f8383612ac4565b905092915050565b5f602082019050919050565b5f612b4d82612a9b565b612b578185612aa5565b935083602082028501612b6985612ab5565b805f5b85811015612ba45784840389528151612b858582612b24565b9450612b9083612b37565b925060208a01995050600181019050612b6c565b50829750879550505050505092915050565b5f6020820190508181035f830152612bce8184612b43565b905092915050565b5f5f5f5f5f5f60c08789031215612bf057612bef61211b565b5b5f612bfd89828a01612142565b965050602087013567ffffffffffffffff811115612c1e57612c1d61211f565b5b612c2a89828a01612713565b955050604087013567ffffffffffffffff811115612c4b57612c4a61211f565b5b612c5789828a01612713565b9450506060612c6889828a01612142565b935050608087013567ffffffffffffffff811115612c8957612c8861211f565b5b612c9589828a0161297b565b92505060a087013567ffffffffffffffff811115612cb657612cb561211f565b5b612cc289828a01612843565b9150509295509295509295565b5f81519050919050565b5f82825260208201905092915050565b5f819050602082019050919050565b5f61010083015f830151612d0e5f86018261227e565b5060208301518482036020860152612d2682826122c5565b91505060408301518482036040860152612d4082826122c5565b9150506060830151612d55606086018261227e565b5060808301518482036080860152612d6d8282612345565b91505060a0830151612d8260a086018261227e565b5060c0830151612d9560c086018261227e565b5060e0830151612da860e086018261227e565b508091505092915050565b5f82825260208201905092915050565b5f612dcd82612a9b565b612dd78185612db3565b935083602082028501612de985612ab5565b805f5b85811015612e245784840389528151612e058582612b24565b9450612e1083612b37565b925060208a01995050600181019050612dec565b50829750879550505050505092915050565b5f604083015f8301518482035f860152612e508282612cf8565b91505060208301518482036020860152612e6a8282612dc3565b9150508091505092915050565b5f612e828383612e36565b905092915050565b5f602082019050919050565b5f612ea082612ccf565b612eaa8185612cd9565b935083602082028501612ebc85612ce9565b805f5b85811015612ef75784840389528151612ed88582612e77565b9450612ee383612e8a565b925060208a01995050600181019050612ebf565b50829750879550505050505092915050565b5f6020820190508181035f830152612f218184612e96565b905092915050565b5f5f5f60608486031215612f4057612f3f61211b565b5b5f612f4d86828701612142565b9350506020612f5e86828701612142565b925050604084013567ffffffffffffffff811115612f7f57612f7e61211f565b5b612f8b86828701612740565b9150509250925092565b5f819050919050565b5f612fb8612fb3612fae846121a6565b612f95565b6121a6565b9050919050565b5f612fc982612f9e565b9050919050565b5f612fda82612fbf565b9050919050565b612fea81612fd0565b82525050565b5f6020820190506130035f830184612fe1565b92915050565b7f4e487b71000000000000000000000000000000000000000000000000000000005f52603260045260245ffd5b7f4e487b71000000000000000000000000000000000000000000000000000000005f52601160045260245ffd5b5f61306d82612123565b915061307883612123565b92508282019050808211156130905761308f613036565b5b92915050565b5f82825260208201905092915050565b7f466f6f6420646f6573206e6f74206578697374000000000000000000000000005f82015250565b5f6130da601383613096565b91506130e5826130a6565b602082019050919050565b5f6020820190508181035f830152613107816130ce565b9050919050565b7f4e487b71000000000000000000000000000000000000000000000000000000005f52602260045260245ffd5b5f600282049050600182168061315257607f821691505b6020821081036131655761316461310e565b5b50919050565b7f496e76616c696420666f6f6449640000000000000000000000000000000000005f82015250565b5f61319f600e83613096565b91506131aa8261316b565b602082019050919050565b5f6020820190508181035f8301526131cc81613193565b9050919050565b7f466f6f6444657461696c206e6f7420666f756e64205f5f5f2e000000000000005f82015250565b5f613207601983613096565b9150613212826131d3565b602082019050919050565b5f6020820190508181035f830152613234816131fb565b9050919050565b5f61324582612123565b915061325083612123565b925082820390508181111561326857613267613036565b5b92915050565b5f819050815f5260205f209050919050565b5f6020601f8301049050919050565b5f82821b905092915050565b5f600883026132ca7fffffffffffffffffffffffffffffffffffffffffffffffffffffffffffffffff8261328f565b6132d4868361328f565b95508019841693508086168417925050509392505050565b5f6133066133016132fc84612123565b612f95565b612123565b9050919050565b5f819050919050565b61331f836132ec565b61333361332b8261330d565b84845461329b565b825550505050565b5f5f905090565b61334a61333b565b613355818484613316565b505050565b5b818110156133785761336d5f82613342565b60018101905061335b565b5050565b601f8211156133bd5761338e8161326e565b61339784613280565b810160208510156133a6578190505b6133ba6133b285613280565b83018261335a565b50505b505050565b5f82821c905092915050565b5f6133dd5f19846008026133c2565b1980831691505092915050565b5f6133f583836133ce565b9150826002028217905092915050565b61340e8261228d565b67ffffffffffffffff811115613427576134266125e1565b5b613431825461313b565b61343c82828561337c565b5f60209050601f83116001811461346d575f841561345b578287015190505b61346585826133ea565b8655506134cc565b601f19841661347b8661326e565b5f5b828110156134a25784890151825560018201915060208501945060208101905061347d565b868310156134bf57848901516134bb601f8916826133ce565b8355505b6001600288020188555050505b505050505050565b7f4e487b71000000000000000000000000000000000000000000000000000000005f52603160045260245ffd5b5f6040820190506135145f83018561222b565b613521602083018461222b565b9392505050565b7f466f6f6444657461696c20646f6573206e6f74206578697374000000000000005f82015250565b5f61355c601983613096565b915061356782613528565b602082019050919050565b5f6020820190508181035f83015261358981613550565b9050919050565b5f61359a82612123565b91507fffffffffffffffffffffffffffffffffffffffffffffffffffffffffffffffff82036135cc576135cb613036565b5b600182019050919050565b5f815190506135e58161212c565b92915050565b5f6135fd6135f884612694565b61263f565b90508281526020810184848401111561361957613618612690565b5b6136248482856122a7565b509392505050565b5f82601f8301126136405761363f6125dd565b5b81516136508482602086016135eb565b91505092915050565b5f6040828403121561366e5761366d612688565b5b613678604061263f565b90505f613687848285016135d7565b5f83015250602082015167ffffffffffffffff8111156136aa576136a961268c565b5b6136b68482850161362c565b60208301525092915050565b5f602082840312156136d7576136d661211b565b5b5f82015167ffffffffffffffff8111156136f4576136f361211f565b5b61370084828501613659565b91505092915050565b7f43617465676f727920646f6573206e6f742065786973740000000000000000005f82015250565b5f61373d601783613096565b915061374882613709565b602082019050919050565b5f6020820190508181035f83015261376a81613731565b9050919050565b5f61377b8261228d565b6137858185613096565b93506137958185602086016122a7565b61379e816122b5565b840191505092915050565b5f82825260208201905092915050565b5f6137c3826122fd565b6137cd81856137a9565b9350836020820285016137df85612317565b805f5b8581101561381a57848403895281516137fb8582612326565b945061380683612339565b925060208a019950506001810190506137e2565b50829750879550505050505092915050565b5f60a08201905061383f5f83018861222b565b81810360208301526138518187613771565b905081810360408301526138658186613771565b9050613874606083018561222b565b818103608083015261388681846137b9565b90509695505050505050565b7f5175616e74697479277320666f6f642063616e6e6f7420626520736d616c6c655f8201527f72207468616e2030000000000000000000000000000000000000000000000000602082015250565b5f6138ec602883613096565b91506138f782613892565b604082019050919050565b5f6020820190508181035f830152613919816138e0565b9050919050565b7f466f6f642077697468207468697320494420616c7265616479206578697374735f82015250565b5f613954602083613096565b915061395f82613920565b602082019050919050565b5f6020820190508181035f83015261398181613948565b905091905056fea26469706673582212208b22fb9a3e6d54eb5a43706c446db70dcac1c6aacdb88c74b8457088d1f37f8964736f6c634300081e0033",
					"opcodes": "PUSH1 0x80 PUSH1 0x40 MSTORE PUSH1 0x1 PUSH1 0x3 SSTORE PUSH1 0x1 PUSH1 0x4 SSTORE CALLVALUE DUP1 ISZERO PUSH2 0x19 JUMPI PUSH0 PUSH0 REVERT JUMPDEST POP PUSH1 0x40 MLOAD PUSH2 0x3B14 CODESIZE SUB DUP1 PUSH2 0x3B14 DUP4 CODECOPY DUP2 DUP2 ADD PUSH1 0x40 MSTORE DUP2 ADD SWAP1 PUSH2 0x3B SWAP2 SWAP1 PUSH2 0x11E JUMP JUMPDEST CALLER PUSH0 PUSH0 PUSH2 0x100 EXP DUP2 SLOAD DUP2 PUSH20 0xFFFFFFFFFFFFFFFFFFFFFFFFFFFFFFFFFFFFFFFF MUL NOT AND SWAP1 DUP4 PUSH20 0xFFFFFFFFFFFFFFFFFFFFFFFFFFFFFFFFFFFFFFFF AND MUL OR SWAP1 SSTORE POP DUP1 PUSH1 0x2 PUSH0 PUSH2 0x100 EXP DUP2 SLOAD DUP2 PUSH20 0xFFFFFFFFFFFFFFFFFFFFFFFFFFFFFFFFFFFFFFFF MUL NOT AND SWAP1 DUP4 PUSH20 0xFFFFFFFFFFFFFFFFFFFFFFFFFFFFFFFFFFFFFFFF AND MUL OR SWAP1 SSTORE POP POP PUSH2 0x149 JUMP JUMPDEST PUSH0 PUSH0 REVERT JUMPDEST PUSH0 PUSH20 0xFFFFFFFFFFFFFFFFFFFFFFFFFFFFFFFFFFFFFFFF DUP3 AND SWAP1 POP SWAP2 SWAP1 POP JUMP JUMPDEST PUSH0 PUSH2 0xED DUP3 PUSH2 0xC4 JUMP JUMPDEST SWAP1 POP SWAP2 SWAP1 POP JUMP JUMPDEST PUSH2 0xFD DUP2 PUSH2 0xE3 JUMP JUMPDEST DUP2 EQ PUSH2 0x107 JUMPI PUSH0 PUSH0 REVERT JUMPDEST POP JUMP JUMPDEST PUSH0 DUP2 MLOAD SWAP1 POP PUSH2 0x118 DUP2 PUSH2 0xF4 JUMP JUMPDEST SWAP3 SWAP2 POP POP JUMP JUMPDEST PUSH0 PUSH1 0x20 DUP3 DUP5 SUB SLT ISZERO PUSH2 0x133 JUMPI PUSH2 0x132 PUSH2 0xC0 JUMP JUMPDEST JUMPDEST PUSH0 PUSH2 0x140 DUP5 DUP3 DUP6 ADD PUSH2 0x10A JUMP JUMPDEST SWAP2 POP POP SWAP3 SWAP2 POP POP JUMP JUMPDEST PUSH2 0x39BE DUP1 PUSH2 0x156 PUSH0 CODECOPY PUSH0 RETURN INVALID PUSH1 0x80 PUSH1 0x40 MSTORE CALLVALUE DUP1 ISZERO PUSH2 0xF JUMPI PUSH0 PUSH0 REVERT JUMPDEST POP PUSH1 0x4 CALLDATASIZE LT PUSH2 0x11F JUMPI PUSH0 CALLDATALOAD PUSH1 0xE0 SHR DUP1 PUSH4 0x6DD2DD88 GT PUSH2 0xAB JUMPI DUP1 PUSH4 0xB447AAAE GT PUSH2 0x6F JUMPI DUP1 PUSH4 0xB447AAAE EQ PUSH2 0x301 JUMPI DUP1 PUSH4 0xB9B5AAE6 EQ PUSH2 0x31D JUMPI DUP1 PUSH4 0xBAF85306 EQ PUSH2 0x33B JUMPI DUP1 PUSH4 0xD198B650 EQ PUSH2 0x357 JUMPI DUP1 PUSH4 0xD86EC238 EQ PUSH2 0x373 JUMPI PUSH2 0x11F JUMP JUMPDEST DUP1 PUSH4 0x6DD2DD88 EQ PUSH2 0x25F JUMPI DUP1 PUSH4 0x70480275 EQ PUSH2 0x27B JUMPI DUP1 PUSH4 0x893D20E8 EQ PUSH2 0x297 JUMPI DUP1 PUSH4 0x9A69BFA6 EQ PUSH2 0x2B5 JUMPI DUP1 PUSH4 0xAF5607F9 EQ PUSH2 0x2D1 JUMPI PUSH2 0x11F JUMP JUMPDEST DUP1 PUSH4 0x1E4DE872 GT PUSH2 0xF2 JUMPI DUP1 PUSH4 0x1E4DE872 EQ PUSH2 0x197 JUMPI DUP1 PUSH4 0x24D7806C EQ PUSH2 0x1C7 JUMPI DUP1 PUSH4 0x35085515 EQ PUSH2 0x1F7 JUMPI DUP1 PUSH4 0x4D30A39B EQ PUSH2 0x227 JUMPI DUP1 PUSH4 0x64F77471 EQ PUSH2 0x243 JUMPI PUSH2 0x11F JUMP JUMPDEST DUP1 PUSH4 0x94B9A53 EQ PUSH2 0x123 JUMPI DUP1 PUSH4 0x1785F53C EQ PUSH2 0x13F JUMPI DUP1 PUSH4 0x1945EF58 EQ PUSH2 0x15B JUMPI DUP1 PUSH4 0x1B0D77CC EQ PUSH2 0x179 JUMPI JUMPDEST PUSH0 PUSH0 REVERT JUMPDEST PUSH2 0x13D PUSH1 0x4 DUP1 CALLDATASIZE SUB DUP2 ADD SWAP1 PUSH2 0x138 SWAP2 SWAP1 PUSH2 0x2156 JUMP JUMPDEST PUSH2 0x391 JUMP JUMPDEST STOP JUMPDEST PUSH2 0x159 PUSH1 0x4 DUP1 CALLDATASIZE SUB DUP2 ADD SWAP1 PUSH2 0x154 SWAP2 SWAP1 PUSH2 0x2200 JUMP JUMPDEST PUSH2 0x44A JUMP JUMPDEST STOP JUMPDEST PUSH2 0x163 PUSH2 0x4B1 JUMP JUMPDEST PUSH1 0x40 MLOAD PUSH2 0x170 SWAP2 SWAP1 PUSH2 0x223A JUMP JUMPDEST PUSH1 0x40 MLOAD DUP1 SWAP2 SUB SWAP1 RETURN JUMPDEST PUSH2 0x181 PUSH2 0x4B7 JUMP JUMPDEST PUSH1 0x40 MLOAD PUSH2 0x18E SWAP2 SWAP1 PUSH2 0x223A JUMP JUMPDEST PUSH1 0x40 MLOAD DUP1 SWAP2 SUB SWAP1 RETURN JUMPDEST PUSH2 0x1B1 PUSH1 0x4 DUP1 CALLDATASIZE SUB DUP2 ADD SWAP1 PUSH2 0x1AC SWAP2 SWAP1 PUSH2 0x2253 JUMP JUMPDEST PUSH2 0x4BD JUMP JUMPDEST PUSH1 0x40 MLOAD PUSH2 0x1BE SWAP2 SWAP1 PUSH2 0x2473 JUMP JUMPDEST PUSH1 0x40 MLOAD DUP1 SWAP2 SUB SWAP1 RETURN JUMPDEST PUSH2 0x1E1 PUSH1 0x4 DUP1 CALLDATASIZE SUB DUP2 ADD SWAP1 PUSH2 0x1DC SWAP2 SWAP1 PUSH2 0x2200 JUMP JUMPDEST PUSH2 0x763 JUMP JUMPDEST PUSH1 0x40 MLOAD PUSH2 0x1EE SWAP2 SWAP1 PUSH2 0x2506 JUMP JUMPDEST PUSH1 0x40 MLOAD DUP1 SWAP2 SUB SWAP1 RETURN JUMPDEST PUSH2 0x211 PUSH1 0x4 DUP1 CALLDATASIZE SUB DUP2 ADD SWAP1 PUSH2 0x20C SWAP2 SWAP1 PUSH2 0x251F JUMP JUMPDEST PUSH2 0x780 JUMP JUMPDEST PUSH1 0x40 MLOAD PUSH2 0x21E SWAP2 SWAP1 PUSH2 0x25BD JUMP JUMPDEST PUSH1 0x40 MLOAD DUP1 SWAP2 SUB SWAP1 RETURN JUMPDEST PUSH2 0x241 PUSH1 0x4 DUP1 CALLDATASIZE SUB DUP2 ADD SWAP1 PUSH2 0x23C SWAP2 SWAP1 PUSH2 0x251F JUMP JUMPDEST PUSH2 0x975 JUMP JUMPDEST STOP JUMPDEST PUSH2 0x25D PUSH1 0x4 DUP1 CALLDATASIZE SUB DUP2 ADD SWAP1 PUSH2 0x258 SWAP2 SWAP1 PUSH2 0x2870 JUMP JUMPDEST PUSH2 0xC78 JUMP JUMPDEST STOP JUMPDEST PUSH2 0x279 PUSH1 0x4 DUP1 CALLDATASIZE SUB DUP2 ADD SWAP1 PUSH2 0x274 SWAP2 SWAP1 PUSH2 0x29A8 JUMP JUMPDEST PUSH2 0xE27 JUMP JUMPDEST STOP JUMPDEST PUSH2 0x295 PUSH1 0x4 DUP1 CALLDATASIZE SUB DUP2 ADD SWAP1 PUSH2 0x290 SWAP2 SWAP1 PUSH2 0x2200 JUMP JUMPDEST PUSH2 0x1028 JUMP JUMPDEST STOP JUMPDEST PUSH2 0x29F PUSH2 0x108F JUMP JUMPDEST PUSH1 0x40 MLOAD PUSH2 0x2AC SWAP2 SWAP1 PUSH2 0x2A82 JUMP JUMPDEST PUSH1 0x40 MLOAD DUP1 SWAP2 SUB SWAP1 RETURN JUMPDEST PUSH2 0x2CF PUSH1 0x4 DUP1 CALLDATASIZE SUB DUP2 ADD SWAP1 PUSH2 0x2CA SWAP2 SWAP1 PUSH2 0x2156 JUMP JUMPDEST PUSH2 0x10B6 JUMP JUMPDEST STOP JUMPDEST PUSH2 0x2EB PUSH1 0x4 DUP1 CALLDATASIZE SUB DUP2 ADD SWAP1 PUSH2 0x2E6 SWAP2 SWAP1 PUSH2 0x2253 JUMP JUMPDEST PUSH2 0x11E3 JUMP JUMPDEST PUSH1 0x40 MLOAD PUSH2 0x2F8 SWAP2 SWAP1 PUSH2 0x2BB6 JUMP JUMPDEST PUSH1 0x40 MLOAD DUP1 SWAP2 SUB SWAP1 RETURN JUMPDEST PUSH2 0x31B PUSH1 0x4 DUP1 CALLDATASIZE SUB DUP2 ADD SWAP1 PUSH2 0x316 SWAP2 SWAP1 PUSH2 0x2BD6 JUMP JUMPDEST PUSH2 0x1352 JUMP JUMPDEST STOP JUMPDEST PUSH2 0x325 PUSH2 0x1764 JUMP JUMPDEST PUSH1 0x40 MLOAD PUSH2 0x332 SWAP2 SWAP1 PUSH2 0x2F09 JUMP JUMPDEST PUSH1 0x40 MLOAD DUP1 SWAP2 SUB SWAP1 RETURN JUMPDEST PUSH2 0x355 PUSH1 0x4 DUP1 CALLDATASIZE SUB DUP2 ADD SWAP1 PUSH2 0x350 SWAP2 SWAP1 PUSH2 0x2F29 JUMP JUMPDEST PUSH2 0x1B8E JUMP JUMPDEST STOP JUMPDEST PUSH2 0x371 PUSH1 0x4 DUP1 CALLDATASIZE SUB DUP2 ADD SWAP1 PUSH2 0x36C SWAP2 SWAP1 PUSH2 0x2253 JUMP JUMPDEST PUSH2 0x1D54 JUMP JUMPDEST STOP JUMPDEST PUSH2 0x37B PUSH2 0x1F1D JUMP JUMPDEST PUSH1 0x40 MLOAD PUSH2 0x388 SWAP2 SWAP1 PUSH2 0x2FF0 JUMP JUMPDEST PUSH1 0x40 MLOAD DUP1 SWAP2 SUB SWAP1 RETURN JUMPDEST PUSH0 PUSH0 SWAP1 POP JUMPDEST PUSH1 0x6 PUSH0 DUP6 DUP2 MSTORE PUSH1 0x20 ADD SWAP1 DUP2 MSTORE PUSH1 0x20 ADD PUSH0 KECCAK256 DUP1 SLOAD SWAP1 POP DUP2 LT ISZERO PUSH2 0x444 JUMPI DUP3 PUSH1 0x6 PUSH0 DUP7 DUP2 MSTORE PUSH1 0x20 ADD SWAP1 DUP2 MSTORE PUSH1 0x20 ADD PUSH0 KECCAK256 DUP3 DUP2 SLOAD DUP2 LT PUSH2 0x3D6 JUMPI PUSH2 0x3D5 PUSH2 0x3009 JUMP JUMPDEST JUMPDEST SWAP1 PUSH0 MSTORE PUSH1 0x20 PUSH0 KECCAK256 SWAP1 PUSH1 0x4 MUL ADD PUSH0 ADD SLOAD SUB PUSH2 0x437 JUMPI DUP2 PUSH1 0x6 PUSH0 DUP7 DUP2 MSTORE PUSH1 0x20 ADD SWAP1 DUP2 MSTORE PUSH1 0x20 ADD PUSH0 KECCAK256 DUP3 DUP2 SLOAD DUP2 LT PUSH2 0x40E JUMPI PUSH2 0x40D PUSH2 0x3009 JUMP JUMPDEST JUMPDEST SWAP1 PUSH0 MSTORE PUSH1 0x20 PUSH0 KECCAK256 SWAP1 PUSH1 0x4 MUL ADD PUSH1 0x2 ADD PUSH0 DUP3 DUP3 SLOAD PUSH2 0x42B SWAP2 SWAP1 PUSH2 0x3063 JUMP JUMPDEST SWAP3 POP POP DUP2 SWAP1 SSTORE POP PUSH2 0x444 JUMP JUMPDEST DUP1 DUP1 PUSH1 0x1 ADD SWAP2 POP POP PUSH2 0x396 JUMP JUMPDEST POP POP POP POP JUMP JUMPDEST PUSH0 PUSH1 0x1 PUSH0 DUP4 PUSH20 0xFFFFFFFFFFFFFFFFFFFFFFFFFFFFFFFFFFFFFFFF AND PUSH20 0xFFFFFFFFFFFFFFFFFFFFFFFFFFFFFFFFFFFFFFFF AND DUP2 MSTORE PUSH1 0x20 ADD SWAP1 DUP2 MSTORE PUSH1 0x20 ADD PUSH0 KECCAK256 PUSH0 PUSH2 0x100 EXP DUP2 SLOAD DUP2 PUSH1 0xFF MUL NOT AND SWAP1 DUP4 PUSH1 0x2 DUP2 GT ISZERO PUSH2 0x4A9 JUMPI PUSH2 0x4A8 PUSH2 0x2493 JUMP JUMPDEST JUMPDEST MUL OR SWAP1 SSTORE POP POP JUMP JUMPDEST PUSH1 0x3 SLOAD DUP2 JUMP JUMPDEST PUSH1 0x4 SLOAD DUP2 JUMP JUMPDEST PUSH2 0x4C5 PUSH2 0x1F42 JUMP JUMPDEST PUSH0 PUSH1 0x5 PUSH0 DUP5 DUP2 MSTORE PUSH1 0x20 ADD SWAP1 DUP2 MSTORE PUSH1 0x20 ADD PUSH0 KECCAK256 PUSH0 ADD SLOAD SUB PUSH2 0x51A JUMPI PUSH1 0x40 MLOAD PUSH32 0x8C379A000000000000000000000000000000000000000000000000000000000 DUP2 MSTORE PUSH1 0x4 ADD PUSH2 0x511 SWAP1 PUSH2 0x30F0 JUMP JUMPDEST PUSH1 0x40 MLOAD DUP1 SWAP2 SUB SWAP1 REVERT JUMPDEST PUSH1 0x5 PUSH0 DUP4 DUP2 MSTORE PUSH1 0x20 ADD SWAP1 DUP2 MSTORE PUSH1 0x20 ADD PUSH0 KECCAK256 PUSH1 0x40 MLOAD DUP1 PUSH2 0x100 ADD PUSH1 0x40 MSTORE SWAP1 DUP2 PUSH0 DUP3 ADD SLOAD DUP2 MSTORE PUSH1 0x20 ADD PUSH1 0x1 DUP3 ADD DUP1 SLOAD PUSH2 0x550 SWAP1 PUSH2 0x313B JUMP JUMPDEST DUP1 PUSH1 0x1F ADD PUSH1 0x20 DUP1 SWAP2 DIV MUL PUSH1 0x20 ADD PUSH1 0x40 MLOAD SWAP1 DUP2 ADD PUSH1 0x40 MSTORE DUP1 SWAP3 SWAP2 SWAP1 DUP2 DUP2 MSTORE PUSH1 0x20 ADD DUP3 DUP1 SLOAD PUSH2 0x57C SWAP1 PUSH2 0x313B JUMP JUMPDEST DUP1 ISZERO PUSH2 0x5C7 JUMPI DUP1 PUSH1 0x1F LT PUSH2 0x59E JUMPI PUSH2 0x100 DUP1 DUP4 SLOAD DIV MUL DUP4 MSTORE SWAP2 PUSH1 0x20 ADD SWAP2 PUSH2 0x5C7 JUMP JUMPDEST DUP3 ADD SWAP2 SWAP1 PUSH0 MSTORE PUSH1 0x20 PUSH0 KECCAK256 SWAP1 JUMPDEST DUP2 SLOAD DUP2 MSTORE SWAP1 PUSH1 0x1 ADD SWAP1 PUSH1 0x20 ADD DUP1 DUP4 GT PUSH2 0x5AA JUMPI DUP3 SWAP1 SUB PUSH1 0x1F AND DUP3 ADD SWAP2 JUMPDEST POP POP POP POP POP DUP2 MSTORE PUSH1 0x20 ADD PUSH1 0x2 DUP3 ADD DUP1 SLOAD PUSH2 0x5E0 SWAP1 PUSH2 0x313B JUMP JUMPDEST DUP1 PUSH1 0x1F ADD PUSH1 0x20 DUP1 SWAP2 DIV MUL PUSH1 0x20 ADD PUSH1 0x40 MLOAD SWAP1 DUP2 ADD PUSH1 0x40 MSTORE DUP1 SWAP3 SWAP2 SWAP1 DUP2 DUP2 MSTORE PUSH1 0x20 ADD DUP3 DUP1 SLOAD PUSH2 0x60C SWAP1 PUSH2 0x313B JUMP JUMPDEST DUP1 ISZERO PUSH2 0x657 JUMPI DUP1 PUSH1 0x1F LT PUSH2 0x62E JUMPI PUSH2 0x100 DUP1 DUP4 SLOAD DIV MUL DUP4 MSTORE SWAP2 PUSH1 0x20 ADD SWAP2 PUSH2 0x657 JUMP JUMPDEST DUP3 ADD SWAP2 SWAP1 PUSH0 MSTORE PUSH1 0x20 PUSH0 KECCAK256 SWAP1 JUMPDEST DUP2 SLOAD DUP2 MSTORE SWAP1 PUSH1 0x1 ADD SWAP1 PUSH1 0x20 ADD DUP1 DUP4 GT PUSH2 0x63A JUMPI DUP3 SWAP1 SUB PUSH1 0x1F AND DUP3 ADD SWAP2 JUMPDEST POP POP POP POP POP DUP2 MSTORE PUSH1 0x20 ADD PUSH1 0x3 DUP3 ADD SLOAD DUP2 MSTORE PUSH1 0x20 ADD PUSH1 0x4 DUP3 ADD DUP1 SLOAD DUP1 PUSH1 0x20 MUL PUSH1 0x20 ADD PUSH1 0x40 MLOAD SWAP1 DUP2 ADD PUSH1 0x40 MSTORE DUP1 SWAP3 SWAP2 SWAP1 DUP2 DUP2 MSTORE PUSH1 0x20 ADD PUSH0 SWAP1 JUMPDEST DUP3 DUP3 LT ISZERO PUSH2 0x736 JUMPI DUP4 DUP3 SWAP1 PUSH0 MSTORE PUSH1 0x20 PUSH0 KECCAK256 ADD DUP1 SLOAD PUSH2 0x6AB SWAP1 PUSH2 0x313B JUMP JUMPDEST DUP1 PUSH1 0x1F ADD PUSH1 0x20 DUP1 SWAP2 DIV MUL PUSH1 0x20 ADD PUSH1 0x40 MLOAD SWAP1 DUP2 ADD PUSH1 0x40 MSTORE DUP1 SWAP3 SWAP2 SWAP1 DUP2 DUP2 MSTORE PUSH1 0x20 ADD DUP3 DUP1 SLOAD PUSH2 0x6D7 SWAP1 PUSH2 0x313B JUMP JUMPDEST DUP1 ISZERO PUSH2 0x722 JUMPI DUP1 PUSH1 0x1F LT PUSH2 0x6F9 JUMPI PUSH2 0x100 DUP1 DUP4 SLOAD DIV MUL DUP4 MSTORE SWAP2 PUSH1 0x20 ADD SWAP2 PUSH2 0x722 JUMP JUMPDEST DUP3 ADD SWAP2 SWAP1 PUSH0 MSTORE PUSH1 0x20 PUSH0 KECCAK256 SWAP1 JUMPDEST DUP2 SLOAD DUP2 MSTORE SWAP1 PUSH1 0x1 ADD SWAP1 PUSH1 0x20 ADD DUP1 DUP4 GT PUSH2 0x705 JUMPI DUP3 SWAP1 SUB PUSH1 0x1F AND DUP3 ADD SWAP2 JUMPDEST POP POP POP POP POP DUP2 MSTORE PUSH1 0x20 ADD SWAP1 PUSH1 0x1 ADD SWAP1 PUSH2 0x68E JUMP JUMPDEST POP POP POP POP DUP2 MSTORE PUSH1 0x20 ADD PUSH1 0x5 DUP3 ADD SLOAD DUP2 MSTORE PUSH1 0x20 ADD PUSH1 0x6 DUP3 ADD SLOAD DUP2 MSTORE PUSH1 0x20 ADD PUSH1 0x7 DUP3 ADD SLOAD DUP2 MSTORE POP POP SWAP1 POP SWAP2 SWAP1 POP JUMP JUMPDEST PUSH1 0x1 PUSH1 0x20 MSTORE DUP1 PUSH0 MSTORE PUSH1 0x40 PUSH0 KECCAK256 PUSH0 SWAP2 POP SLOAD SWAP1 PUSH2 0x100 EXP SWAP1 DIV PUSH1 0xFF AND DUP2 JUMP JUMPDEST PUSH2 0x788 PUSH2 0x1F82 JUMP JUMPDEST PUSH0 PUSH1 0x6 PUSH0 DUP6 DUP2 MSTORE PUSH1 0x20 ADD SWAP1 DUP2 MSTORE PUSH1 0x20 ADD PUSH0 KECCAK256 DUP1 SLOAD SWAP1 POP GT PUSH2 0x7DE JUMPI PUSH1 0x40 MLOAD PUSH32 0x8C379A000000000000000000000000000000000000000000000000000000000 DUP2 MSTORE PUSH1 0x4 ADD PUSH2 0x7D5 SWAP1 PUSH2 0x31B5 JUMP JUMPDEST PUSH1 0x40 MLOAD DUP1 SWAP2 SUB SWAP1 REVERT JUMPDEST PUSH0 PUSH0 SWAP1 POP JUMPDEST PUSH1 0x6 PUSH0 DUP6 DUP2 MSTORE PUSH1 0x20 ADD SWAP1 DUP2 MSTORE PUSH1 0x20 ADD PUSH0 KECCAK256 DUP1 SLOAD SWAP1 POP DUP2 LT ISZERO PUSH2 0x933 JUMPI DUP3 PUSH1 0x6 PUSH0 DUP7 DUP2 MSTORE PUSH1 0x20 ADD SWAP1 DUP2 MSTORE PUSH1 0x20 ADD PUSH0 KECCAK256 DUP3 DUP2 SLOAD DUP2 LT PUSH2 0x823 JUMPI PUSH2 0x822 PUSH2 0x3009 JUMP JUMPDEST JUMPDEST SWAP1 PUSH0 MSTORE PUSH1 0x20 PUSH0 KECCAK256 SWAP1 PUSH1 0x4 MUL ADD PUSH0 ADD SLOAD SUB PUSH2 0x926 JUMPI PUSH1 0x6 PUSH0 DUP6 DUP2 MSTORE PUSH1 0x20 ADD SWAP1 DUP2 MSTORE PUSH1 0x20 ADD PUSH0 KECCAK256 DUP2 DUP2 SLOAD DUP2 LT PUSH2 0x85A JUMPI PUSH2 0x859 PUSH2 0x3009 JUMP JUMPDEST JUMPDEST SWAP1 PUSH0 MSTORE PUSH1 0x20 PUSH0 KECCAK256 SWAP1 PUSH1 0x4 MUL ADD PUSH1 0x40 MLOAD DUP1 PUSH1 0x80 ADD PUSH1 0x40 MSTORE SWAP1 DUP2 PUSH0 DUP3 ADD SLOAD DUP2 MSTORE PUSH1 0x20 ADD PUSH1 0x1 DUP3 ADD DUP1 SLOAD PUSH2 0x88A SWAP1 PUSH2 0x313B JUMP JUMPDEST DUP1 PUSH1 0x1F ADD PUSH1 0x20 DUP1 SWAP2 DIV MUL PUSH1 0x20 ADD PUSH1 0x40 MLOAD SWAP1 DUP2 ADD PUSH1 0x40 MSTORE DUP1 SWAP3 SWAP2 SWAP1 DUP2 DUP2 MSTORE PUSH1 0x20 ADD DUP3 DUP1 SLOAD PUSH2 0x8B6 SWAP1 PUSH2 0x313B JUMP JUMPDEST DUP1 ISZERO PUSH2 0x901 JUMPI DUP1 PUSH1 0x1F LT PUSH2 0x8D8 JUMPI PUSH2 0x100 DUP1 DUP4 SLOAD DIV MUL DUP4 MSTORE SWAP2 PUSH1 0x20 ADD SWAP2 PUSH2 0x901 JUMP JUMPDEST DUP3 ADD SWAP2 SWAP1 PUSH0 MSTORE PUSH1 0x20 PUSH0 KECCAK256 SWAP1 JUMPDEST DUP2 SLOAD DUP2 MSTORE SWAP1 PUSH1 0x1 ADD SWAP1 PUSH1 0x20 ADD DUP1 DUP4 GT PUSH2 0x8E4 JUMPI DUP3 SWAP1 SUB PUSH1 0x1F AND DUP3 ADD SWAP2 JUMPDEST POP POP POP POP POP DUP2 MSTORE PUSH1 0x20 ADD PUSH1 0x2 DUP3 ADD SLOAD DUP2 MSTORE PUSH1 0x20 ADD PUSH1 0x3 DUP3 ADD SLOAD DUP2 MSTORE POP POP SWAP2 POP POP PUSH2 0x96F JUMP JUMPDEST DUP1 DUP1 PUSH1 0x1 ADD SWAP2 POP POP PUSH2 0x7E3 JUMP JUMPDEST POP PUSH1 0x40 MLOAD PUSH32 0x8C379A000000000000000000000000000000000000000000000000000000000 DUP2 MSTORE PUSH1 0x4 ADD PUSH2 0x966 SWAP1 PUSH2 0x321D JUMP JUMPDEST PUSH1 0x40 MLOAD DUP1 SWAP2 SUB SWAP1 REVERT JUMPDEST SWAP3 SWAP2 POP POP JUMP JUMPDEST PUSH0 PUSH1 0x5 PUSH0 DUP5 DUP2 MSTORE PUSH1 0x20 ADD SWAP1 DUP2 MSTORE PUSH1 0x20 ADD PUSH0 KECCAK256 PUSH0 ADD SLOAD SUB PUSH2 0x9CA JUMPI PUSH1 0x40 MLOAD PUSH32 0x8C379A000000000000000000000000000000000000000000000000000000000 DUP2 MSTORE PUSH1 0x4 ADD PUSH2 0x9C1 SWAP1 PUSH2 0x30F0 JUMP JUMPDEST PUSH1 0x40 MLOAD DUP1 SWAP2 SUB SWAP1 REVERT JUMPDEST PUSH0 PUSH1 0x6 PUSH0 DUP5 DUP2 MSTORE PUSH1 0x20 ADD SWAP1 DUP2 MSTORE PUSH1 0x20 ADD PUSH0 KECCAK256 SWAP1 POP PUSH0 PUSH0 SWAP1 POP PUSH0 PUSH0 SWAP1 POP JUMPDEST DUP3 DUP1 SLOAD SWAP1 POP DUP2 LT ISZERO PUSH2 0xC31 JUMPI DUP4 DUP4 DUP3 DUP2 SLOAD DUP2 LT PUSH2 0xA07 JUMPI PUSH2 0xA06 PUSH2 0x3009 JUMP JUMPDEST JUMPDEST SWAP1 PUSH0 MSTORE PUSH1 0x20 PUSH0 KECCAK256 SWAP1 PUSH1 0x4 MUL ADD PUSH0 ADD SLOAD SUB PUSH2 0xC24 JUMPI PUSH1 0x1 DUP4 DUP1 SLOAD SWAP1 POP GT PUSH2 0xA5B JUMPI PUSH1 0x40 MLOAD DUP1 PUSH1 0x80 ADD PUSH1 0x40 MSTORE DUP1 PUSH0 DUP2 MSTORE PUSH1 0x20 ADD PUSH1 0x40 MLOAD DUP1 PUSH1 0x20 ADD PUSH1 0x40 MSTORE DUP1 PUSH0 DUP2 MSTORE POP DUP2 MSTORE PUSH1 0x20 ADD PUSH0 DUP2 MSTORE PUSH1 0x20 ADD PUSH0 DUP2 MSTORE POP PUSH2 0xB43 JUMP JUMPDEST DUP3 PUSH1 0x1 DUP5 DUP1 SLOAD SWAP1 POP PUSH2 0xA6D SWAP2 SWAP1 PUSH2 0x323B JUMP JUMPDEST DUP2 SLOAD DUP2 LT PUSH2 0xA7E JUMPI PUSH2 0xA7D PUSH2 0x3009 JUMP JUMPDEST JUMPDEST SWAP1 PUSH0 MSTORE PUSH1 0x20 PUSH0 KECCAK256 SWAP1 PUSH1 0x4 MUL ADD PUSH1 0x40 MLOAD DUP1 PUSH1 0x80 ADD PUSH1 0x40 MSTORE SWAP1 DUP2 PUSH0 DUP3 ADD SLOAD DUP2 MSTORE PUSH1 0x20 ADD PUSH1 0x1 DUP3 ADD DUP1 SLOAD PUSH2 0xAAE SWAP1 PUSH2 0x313B JUMP JUMPDEST DUP1 PUSH1 0x1F ADD PUSH1 0x20 DUP1 SWAP2 DIV MUL PUSH1 0x20 ADD PUSH1 0x40 MLOAD SWAP1 DUP2 ADD PUSH1 0x40 MSTORE DUP1 SWAP3 SWAP2 SWAP1 DUP2 DUP2 MSTORE PUSH1 0x20 ADD DUP3 DUP1 SLOAD PUSH2 0xADA SWAP1 PUSH2 0x313B JUMP JUMPDEST DUP1 ISZERO PUSH2 0xB25 JUMPI DUP1 PUSH1 0x1F LT PUSH2 0xAFC JUMPI PUSH2 0x100 DUP1 DUP4 SLOAD DIV MUL DUP4 MSTORE SWAP2 PUSH1 0x20 ADD SWAP2 PUSH2 0xB25 JUMP JUMPDEST DUP3 ADD SWAP2 SWAP1 PUSH0 MSTORE PUSH1 0x20 PUSH0 KECCAK256 SWAP1 JUMPDEST DUP2 SLOAD DUP2 MSTORE SWAP1 PUSH1 0x1 ADD SWAP1 PUSH1 0x20 ADD DUP1 DUP4 GT PUSH2 0xB08 JUMPI DUP3 SWAP1 SUB PUSH1 0x1F AND DUP3 ADD SWAP2 JUMPDEST POP POP POP POP POP DUP2 MSTORE PUSH1 0x20 ADD PUSH1 0x2 DUP3 ADD SLOAD DUP2 MSTORE PUSH1 0x20 ADD PUSH1 0x3 DUP3 ADD SLOAD DUP2 MSTORE POP POP JUMPDEST DUP4 DUP3 DUP2 SLOAD DUP2 LT PUSH2 0xB56 JUMPI PUSH2 0xB55 PUSH2 0x3009 JUMP JUMPDEST JUMPDEST SWAP1 PUSH0 MSTORE PUSH1 0x20 PUSH0 KECCAK256 SWAP1 PUSH1 0x4 MUL ADD PUSH0 DUP3 ADD MLOAD DUP2 PUSH0 ADD SSTORE PUSH1 0x20 DUP3 ADD MLOAD DUP2 PUSH1 0x1 ADD SWAP1 DUP2 PUSH2 0xB7F SWAP2 SWAP1 PUSH2 0x3405 JUMP JUMPDEST POP PUSH1 0x40 DUP3 ADD MLOAD DUP2 PUSH1 0x2 ADD SSTORE PUSH1 0x60 DUP3 ADD MLOAD DUP2 PUSH1 0x3 ADD SSTORE SWAP1 POP POP DUP3 DUP1 SLOAD DUP1 PUSH2 0xBA8 JUMPI PUSH2 0xBA7 PUSH2 0x34D4 JUMP JUMPDEST JUMPDEST PUSH1 0x1 SWAP1 SUB DUP2 DUP2 SWAP1 PUSH0 MSTORE PUSH1 0x20 PUSH0 KECCAK256 SWAP1 PUSH1 0x4 MUL ADD PUSH0 PUSH0 DUP3 ADD PUSH0 SWAP1 SSTORE PUSH1 0x1 DUP3 ADD PUSH0 PUSH2 0xBD0 SWAP2 SWAP1 PUSH2 0x1FA7 JUMP JUMPDEST PUSH1 0x2 DUP3 ADD PUSH0 SWAP1 SSTORE PUSH1 0x3 DUP3 ADD PUSH0 SWAP1 SSTORE POP POP SWAP1 SSTORE PUSH1 0x1 SWAP2 POP PUSH32 0x55CAA6A55ACB7E3464DC13C54D94739E0F01B9141276CAEBB64F3EF500CD8900 DUP6 DUP6 PUSH1 0x40 MLOAD PUSH2 0xC17 SWAP3 SWAP2 SWAP1 PUSH2 0x3501 JUMP JUMPDEST PUSH1 0x40 MLOAD DUP1 SWAP2 SUB SWAP1 LOG1 PUSH2 0xC31 JUMP JUMPDEST DUP1 DUP1 PUSH1 0x1 ADD SWAP2 POP POP PUSH2 0x9E7 JUMP JUMPDEST POP DUP1 PUSH2 0xC72 JUMPI PUSH1 0x40 MLOAD PUSH32 0x8C379A000000000000000000000000000000000000000000000000000000000 DUP2 MSTORE PUSH1 0x4 ADD PUSH2 0xC69 SWAP1 PUSH2 0x3572 JUMP JUMPDEST PUSH1 0x40 MLOAD DUP1 SWAP2 SUB SWAP1 REVERT JUMPDEST POP POP POP POP JUMP JUMPDEST PUSH0 PUSH1 0x5 PUSH0 DUP5 DUP2 MSTORE PUSH1 0x20 ADD SWAP1 DUP2 MSTORE PUSH1 0x20 ADD PUSH0 KECCAK256 PUSH0 ADD SLOAD SUB PUSH2 0xCCD JUMPI PUSH1 0x40 MLOAD PUSH32 0x8C379A000000000000000000000000000000000000000000000000000000000 DUP2 MSTORE PUSH1 0x4 ADD PUSH2 0xCC4 SWAP1 PUSH2 0x30F0 JUMP JUMPDEST PUSH1 0x40 MLOAD DUP1 SWAP2 SUB SWAP1 REVERT JUMPDEST PUSH0 PUSH0 SWAP1 POP JUMPDEST DUP2 MLOAD DUP2 LT ISZERO PUSH2 0xDEB JUMPI PUSH1 0x4 PUSH0 DUP2 SLOAD DUP1 SWAP3 SWAP2 SWAP1 PUSH2 0xCED SWAP1 PUSH2 0x3590 JUMP JUMPDEST SWAP2 SWAP1 POP SSTORE POP PUSH0 PUSH1 0x40 MLOAD DUP1 PUSH1 0x80 ADD PUSH1 0x40 MSTORE DUP1 PUSH1 0x4 SLOAD DUP2 MSTORE PUSH1 0x20 ADD DUP5 DUP5 DUP2 MLOAD DUP2 LT PUSH2 0xD19 JUMPI PUSH2 0xD18 PUSH2 0x3009 JUMP JUMPDEST JUMPDEST PUSH1 0x20 MUL PUSH1 0x20 ADD ADD MLOAD PUSH0 ADD MLOAD DUP2 MSTORE PUSH1 0x20 ADD DUP5 DUP5 DUP2 MLOAD DUP2 LT PUSH2 0xD3C JUMPI PUSH2 0xD3B PUSH2 0x3009 JUMP JUMPDEST JUMPDEST PUSH1 0x20 MUL PUSH1 0x20 ADD ADD MLOAD PUSH1 0x20 ADD MLOAD DUP2 MSTORE PUSH1 0x20 ADD DUP5 DUP5 DUP2 MLOAD DUP2 LT PUSH2 0xD60 JUMPI PUSH2 0xD5F PUSH2 0x3009 JUMP JUMPDEST JUMPDEST PUSH1 0x20 MUL PUSH1 0x20 ADD ADD MLOAD PUSH1 0x40 ADD MLOAD DUP2 MSTORE POP SWAP1 POP PUSH1 0x6 PUSH0 DUP6 DUP2 MSTORE PUSH1 0x20 ADD SWAP1 DUP2 MSTORE PUSH1 0x20 ADD PUSH0 KECCAK256 DUP2 SWAP1 DUP1 PUSH1 0x1 DUP2 SLOAD ADD DUP1 DUP3 SSTORE DUP1 SWAP2 POP POP PUSH1 0x1 SWAP1 SUB SWAP1 PUSH0 MSTORE PUSH1 0x20 PUSH0 KECCAK256 SWAP1 PUSH1 0x4 MUL ADD PUSH0 SWAP1 SWAP2 SWAP1 SWAP2 SWAP1 SWAP2 POP PUSH0 DUP3 ADD MLOAD DUP2 PUSH0 ADD SSTORE PUSH1 0x20 DUP3 ADD MLOAD DUP2 PUSH1 0x1 ADD SWAP1 DUP2 PUSH2 0xDC6 SWAP2 SWAP1 PUSH2 0x3405 JUMP JUMPDEST POP PUSH1 0x40 DUP3 ADD MLOAD DUP2 PUSH1 0x2 ADD SSTORE PUSH1 0x60 DUP3 ADD MLOAD DUP2 PUSH1 0x3 ADD SSTORE POP POP POP DUP1 DUP1 PUSH1 0x1 ADD SWAP2 POP POP PUSH2 0xCD2 JUMP JUMPDEST POP PUSH32 0x19A8E56286393226625DCDBC7CBB5A7611C71773D54C7E0680658CB9CEEF6C22 DUP3 PUSH1 0x40 MLOAD PUSH2 0xE1B SWAP2 SWAP1 PUSH2 0x223A JUMP JUMPDEST PUSH1 0x40 MLOAD DUP1 SWAP2 SUB SWAP1 LOG1 POP POP JUMP JUMPDEST PUSH0 PUSH1 0x5 PUSH0 DUP8 DUP2 MSTORE PUSH1 0x20 ADD SWAP1 DUP2 MSTORE PUSH1 0x20 ADD PUSH0 KECCAK256 PUSH0 ADD SLOAD SUB PUSH2 0xE7C JUMPI PUSH1 0x40 MLOAD PUSH32 0x8C379A000000000000000000000000000000000000000000000000000000000 DUP2 MSTORE PUSH1 0x4 ADD PUSH2 0xE73 SWAP1 PUSH2 0x30F0 JUMP JUMPDEST PUSH1 0x40 MLOAD DUP1 SWAP2 SUB SWAP1 REVERT JUMPDEST PUSH0 PUSH1 0x2 PUSH0 SWAP1 SLOAD SWAP1 PUSH2 0x100 EXP SWAP1 DIV PUSH20 0xFFFFFFFFFFFFFFFFFFFFFFFFFFFFFFFFFFFFFFFF AND PUSH20 0xFFFFFFFFFFFFFFFFFFFFFFFFFFFFFFFFFFFFFFFF AND PUSH4 0xF3052D26 DUP5 PUSH1 0x40 MLOAD DUP3 PUSH4 0xFFFFFFFF AND PUSH1 0xE0 SHL DUP2 MSTORE PUSH1 0x4 ADD PUSH2 0xED7 SWAP2 SWAP1 PUSH2 0x223A JUMP JUMPDEST PUSH0 PUSH1 0x40 MLOAD DUP1 DUP4 SUB DUP2 DUP7 GAS STATICCALL ISZERO DUP1 ISZERO PUSH2 0xEF1 JUMPI RETURNDATASIZE PUSH0 PUSH0 RETURNDATACOPY RETURNDATASIZE PUSH0 REVERT JUMPDEST POP POP POP POP PUSH1 0x40 MLOAD RETURNDATASIZE PUSH0 DUP3 RETURNDATACOPY RETURNDATASIZE PUSH1 0x1F NOT PUSH1 0x1F DUP3 ADD AND DUP3 ADD DUP1 PUSH1 0x40 MSTORE POP DUP2 ADD SWAP1 PUSH2 0xF19 SWAP2 SWAP1 PUSH2 0x36C2 JUMP JUMPDEST PUSH0 ADD MLOAD SUB PUSH2 0xF5C JUMPI PUSH1 0x40 MLOAD PUSH32 0x8C379A000000000000000000000000000000000000000000000000000000000 DUP2 MSTORE PUSH1 0x4 ADD PUSH2 0xF53 SWAP1 PUSH2 0x3753 JUMP JUMPDEST PUSH1 0x40 MLOAD DUP1 SWAP2 SUB SWAP1 REVERT JUMPDEST DUP4 PUSH1 0x5 PUSH0 DUP8 DUP2 MSTORE PUSH1 0x20 ADD SWAP1 DUP2 MSTORE PUSH1 0x20 ADD PUSH0 KECCAK256 PUSH1 0x1 ADD SWAP1 DUP2 PUSH2 0xF7D SWAP2 SWAP1 PUSH2 0x3405 JUMP JUMPDEST POP DUP3 PUSH1 0x5 PUSH0 DUP8 DUP2 MSTORE PUSH1 0x20 ADD SWAP1 DUP2 MSTORE PUSH1 0x20 ADD PUSH0 KECCAK256 PUSH1 0x2 ADD SWAP1 DUP2 PUSH2 0xF9F SWAP2 SWAP1 PUSH2 0x3405 JUMP JUMPDEST POP DUP2 PUSH1 0x5 PUSH0 DUP8 DUP2 MSTORE PUSH1 0x20 ADD SWAP1 DUP2 MSTORE PUSH1 0x20 ADD PUSH0 KECCAK256 PUSH1 0x3 ADD DUP2 SWAP1 SSTORE POP DUP1 PUSH1 0x5 PUSH0 DUP8 DUP2 MSTORE PUSH1 0x20 ADD SWAP1 DUP2 MSTORE PUSH1 0x20 ADD PUSH0 KECCAK256 PUSH1 0x4 ADD SWAP1 DUP1 MLOAD SWAP1 PUSH1 0x20 ADD SWAP1 PUSH2 0xFE1 SWAP3 SWAP2 SWAP1 PUSH2 0x1FE4 JUMP JUMPDEST POP PUSH32 0x4F49710E0E59EA2E7096D7BAD0267390D8BB5C007687F72B0DE2DB3AFDADD5E5 DUP6 DUP6 DUP6 DUP6 DUP6 PUSH1 0x40 MLOAD PUSH2 0x1019 SWAP6 SWAP5 SWAP4 SWAP3 SWAP2 SWAP1 PUSH2 0x382C JUMP JUMPDEST PUSH1 0x40 MLOAD DUP1 SWAP2 SUB SWAP1 LOG1 POP POP POP POP POP JUMP JUMPDEST PUSH1 0x1 DUP1 PUSH0 DUP4 PUSH20 0xFFFFFFFFFFFFFFFFFFFFFFFFFFFFFFFFFFFFFFFF AND PUSH20 0xFFFFFFFFFFFFFFFFFFFFFFFFFFFFFFFFFFFFFFFF AND DUP2 MSTORE PUSH1 0x20 ADD SWAP1 DUP2 MSTORE PUSH1 0x20 ADD PUSH0 KECCAK256 PUSH0 PUSH2 0x100 EXP DUP2 SLOAD DUP2 PUSH1 0xFF MUL NOT AND SWAP1 DUP4 PUSH1 0x2 DUP2 GT ISZERO PUSH2 0x1087 JUMPI PUSH2 0x1086 PUSH2 0x2493 JUMP JUMPDEST JUMPDEST MUL OR SWAP1 SSTORE POP POP JUMP JUMPDEST PUSH0 PUSH0 PUSH0 SWAP1 SLOAD SWAP1 PUSH2 0x100 EXP SWAP1 DIV PUSH20 0xFFFFFFFFFFFFFFFFFFFFFFFFFFFFFFFFFFFFFFFF AND SWAP1 POP SWAP1 JUMP JUMPDEST PUSH0 PUSH0 SWAP1 POP JUMPDEST PUSH1 0x6 PUSH0 DUP6 DUP2 MSTORE PUSH1 0x20 ADD SWAP1 DUP2 MSTORE PUSH1 0x20 ADD PUSH0 KECCAK256 DUP1 SLOAD SWAP1 POP DUP2 LT ISZERO PUSH2 0x11DD JUMPI DUP3 PUSH1 0x6 PUSH0 DUP7 DUP2 MSTORE PUSH1 0x20 ADD SWAP1 DUP2 MSTORE PUSH1 0x20 ADD PUSH0 KECCAK256 DUP3 DUP2 SLOAD DUP2 LT PUSH2 0x10FB JUMPI PUSH2 0x10FA PUSH2 0x3009 JUMP JUMPDEST JUMPDEST SWAP1 PUSH0 MSTORE PUSH1 0x20 PUSH0 KECCAK256 SWAP1 PUSH1 0x4 MUL ADD PUSH0 ADD SLOAD SUB PUSH2 0x11D0 JUMPI PUSH1 0x6 PUSH0 DUP6 DUP2 MSTORE PUSH1 0x20 ADD SWAP1 DUP2 MSTORE PUSH1 0x20 ADD PUSH0 KECCAK256 DUP2 DUP2 SLOAD DUP2 LT PUSH2 0x1132 JUMPI PUSH2 0x1131 PUSH2 0x3009 JUMP JUMPDEST JUMPDEST SWAP1 PUSH0 MSTORE PUSH1 0x20 PUSH0 KECCAK256 SWAP1 PUSH1 0x4 MUL ADD PUSH1 0x2 ADD SLOAD DUP3 LT PUSH2 0x1183 JUMPI PUSH1 0x40 MLOAD PUSH32 0x8C379A000000000000000000000000000000000000000000000000000000000 DUP2 MSTORE PUSH1 0x4 ADD PUSH2 0x117A SWAP1 PUSH2 0x3902 JUMP JUMPDEST PUSH1 0x40 MLOAD DUP1 SWAP2 SUB SWAP1 REVERT JUMPDEST DUP2 PUSH1 0x6 PUSH0 DUP7 DUP2 MSTORE PUSH1 0x20 ADD SWAP1 DUP2 MSTORE PUSH1 0x20 ADD PUSH0 KECCAK256 DUP3 DUP2 SLOAD DUP2 LT PUSH2 0x11A7 JUMPI PUSH2 0x11A6 PUSH2 0x3009 JUMP JUMPDEST JUMPDEST SWAP1 PUSH0 MSTORE PUSH1 0x20 PUSH0 KECCAK256 SWAP1 PUSH1 0x4 MUL ADD PUSH1 0x2 ADD PUSH0 DUP3 DUP3 SLOAD PUSH2 0x11C4 SWAP2 SWAP1 PUSH2 0x323B JUMP JUMPDEST SWAP3 POP POP DUP2 SWAP1 SSTORE POP PUSH2 0x11DD JUMP JUMPDEST DUP1 DUP1 PUSH1 0x1 ADD SWAP2 POP POP PUSH2 0x10BB JUMP JUMPDEST POP POP POP POP JUMP JUMPDEST PUSH1 0x60 PUSH0 PUSH1 0x5 PUSH0 DUP5 DUP2 MSTORE PUSH1 0x20 ADD SWAP1 DUP2 MSTORE PUSH1 0x20 ADD PUSH0 KECCAK256 PUSH0 ADD SLOAD SUB PUSH2 0x123A JUMPI PUSH1 0x40 MLOAD PUSH32 0x8C379A000000000000000000000000000000000000000000000000000000000 DUP2 MSTORE PUSH1 0x4 ADD PUSH2 0x1231 SWAP1 PUSH2 0x30F0 JUMP JUMPDEST PUSH1 0x40 MLOAD DUP1 SWAP2 SUB SWAP1 REVERT JUMPDEST PUSH1 0x6 PUSH0 DUP4 DUP2 MSTORE PUSH1 0x20 ADD SWAP1 DUP2 MSTORE PUSH1 0x20 ADD PUSH0 KECCAK256 DUP1 SLOAD DUP1 PUSH1 0x20 MUL PUSH1 0x20 ADD PUSH1 0x40 MLOAD SWAP1 DUP2 ADD PUSH1 0x40 MSTORE DUP1 SWAP3 SWAP2 SWAP1 DUP2 DUP2 MSTORE PUSH1 0x20 ADD PUSH0 SWAP1 JUMPDEST DUP3 DUP3 LT ISZERO PUSH2 0x1347 JUMPI DUP4 DUP3 SWAP1 PUSH0 MSTORE PUSH1 0x20 PUSH0 KECCAK256 SWAP1 PUSH1 0x4 MUL ADD PUSH1 0x40 MLOAD DUP1 PUSH1 0x80 ADD PUSH1 0x40 MSTORE SWAP1 DUP2 PUSH0 DUP3 ADD SLOAD DUP2 MSTORE PUSH1 0x20 ADD PUSH1 0x1 DUP3 ADD DUP1 SLOAD PUSH2 0x12A4 SWAP1 PUSH2 0x313B JUMP JUMPDEST DUP1 PUSH1 0x1F ADD PUSH1 0x20 DUP1 SWAP2 DIV MUL PUSH1 0x20 ADD PUSH1 0x40 MLOAD SWAP1 DUP2 ADD PUSH1 0x40 MSTORE DUP1 SWAP3 SWAP2 SWAP1 DUP2 DUP2 MSTORE PUSH1 0x20 ADD DUP3 DUP1 SLOAD PUSH2 0x12D0 SWAP1 PUSH2 0x313B JUMP JUMPDEST DUP1 ISZERO PUSH2 0x131B JUMPI DUP1 PUSH1 0x1F LT PUSH2 0x12F2 JUMPI PUSH2 0x100 DUP1 DUP4 SLOAD DIV MUL DUP4 MSTORE SWAP2 PUSH1 0x20 ADD SWAP2 PUSH2 0x131B JUMP JUMPDEST DUP3 ADD SWAP2 SWAP1 PUSH0 MSTORE PUSH1 0x20 PUSH0 KECCAK256 SWAP1 JUMPDEST DUP2 SLOAD DUP2 MSTORE SWAP1 PUSH1 0x1 ADD SWAP1 PUSH1 0x20 ADD DUP1 DUP4 GT PUSH2 0x12FE JUMPI DUP3 SWAP1 SUB PUSH1 0x1F AND DUP3 ADD SWAP2 JUMPDEST POP POP POP POP POP DUP2 MSTORE PUSH1 0x20 ADD PUSH1 0x2 DUP3 ADD SLOAD DUP2 MSTORE PUSH1 0x20 ADD PUSH1 0x3 DUP3 ADD SLOAD DUP2 MSTORE POP POP DUP2 MSTORE PUSH1 0x20 ADD SWAP1 PUSH1 0x1 ADD SWAP1 PUSH2 0x126A JUMP JUMPDEST POP POP POP POP SWAP1 POP SWAP2 SWAP1 POP JUMP JUMPDEST PUSH0 PUSH1 0x5 PUSH0 DUP9 DUP2 MSTORE PUSH1 0x20 ADD SWAP1 DUP2 MSTORE PUSH1 0x20 ADD PUSH0 KECCAK256 PUSH0 ADD SLOAD EQ PUSH2 0x13A7 JUMPI PUSH1 0x40 MLOAD PUSH32 0x8C379A000000000000000000000000000000000000000000000000000000000 DUP2 MSTORE PUSH1 0x4 ADD PUSH2 0x139E SWAP1 PUSH2 0x396A JUMP JUMPDEST PUSH1 0x40 MLOAD DUP1 SWAP2 SUB SWAP1 REVERT JUMPDEST PUSH0 PUSH1 0x2 PUSH0 SWAP1 SLOAD SWAP1 PUSH2 0x100 EXP SWAP1 DIV PUSH20 0xFFFFFFFFFFFFFFFFFFFFFFFFFFFFFFFFFFFFFFFF AND PUSH20 0xFFFFFFFFFFFFFFFFFFFFFFFFFFFFFFFFFFFFFFFF AND PUSH4 0xF3052D26 DUP6 PUSH1 0x40 MLOAD DUP3 PUSH4 0xFFFFFFFF AND PUSH1 0xE0 SHL DUP2 MSTORE PUSH1 0x4 ADD PUSH2 0x1402 SWAP2 SWAP1 PUSH2 0x223A JUMP JUMPDEST PUSH0 PUSH1 0x40 MLOAD DUP1 DUP4 SUB DUP2 DUP7 GAS STATICCALL ISZERO DUP1 ISZERO PUSH2 0x141C JUMPI RETURNDATASIZE PUSH0 PUSH0 RETURNDATACOPY RETURNDATASIZE PUSH0 REVERT JUMPDEST POP POP POP POP PUSH1 0x40 MLOAD RETURNDATASIZE PUSH0 DUP3 RETURNDATACOPY RETURNDATASIZE PUSH1 0x1F NOT PUSH1 0x1F DUP3 ADD AND DUP3 ADD DUP1 PUSH1 0x40 MSTORE POP DUP2 ADD SWAP1 PUSH2 0x1444 SWAP2 SWAP1 PUSH2 0x36C2 JUMP JUMPDEST PUSH0 ADD MLOAD SUB PUSH2 0x1487 JUMPI PUSH1 0x40 MLOAD PUSH32 0x8C379A000000000000000000000000000000000000000000000000000000000 DUP2 MSTORE PUSH1 0x4 ADD PUSH2 0x147E SWAP1 PUSH2 0x3753 JUMP JUMPDEST PUSH1 0x40 MLOAD DUP1 SWAP2 SUB SWAP1 REVERT JUMPDEST PUSH0 PUSH1 0x40 MLOAD DUP1 PUSH2 0x100 ADD PUSH1 0x40 MSTORE DUP1 DUP9 DUP2 MSTORE PUSH1 0x20 ADD DUP8 DUP2 MSTORE PUSH1 0x20 ADD DUP7 DUP2 MSTORE PUSH1 0x20 ADD DUP6 DUP2 MSTORE PUSH1 0x20 ADD DUP5 DUP2 MSTORE PUSH1 0x20 ADD PUSH0 DUP2 MSTORE PUSH1 0x20 ADD PUSH0 DUP2 MSTORE PUSH1 0x20 ADD PUSH0 DUP2 MSTORE POP SWAP1 POP DUP1 PUSH1 0x5 PUSH0 DUP10 DUP2 MSTORE PUSH1 0x20 ADD SWAP1 DUP2 MSTORE PUSH1 0x20 ADD PUSH0 KECCAK256 PUSH0 DUP3 ADD MLOAD DUP2 PUSH0 ADD SSTORE PUSH1 0x20 DUP3 ADD MLOAD DUP2 PUSH1 0x1 ADD SWAP1 DUP2 PUSH2 0x14F3 SWAP2 SWAP1 PUSH2 0x3405 JUMP JUMPDEST POP PUSH1 0x40 DUP3 ADD MLOAD DUP2 PUSH1 0x2 ADD SWAP1 DUP2 PUSH2 0x1509 SWAP2 SWAP1 PUSH2 0x3405 JUMP JUMPDEST POP PUSH1 0x60 DUP3 ADD MLOAD DUP2 PUSH1 0x3 ADD SSTORE PUSH1 0x80 DUP3 ADD MLOAD DUP2 PUSH1 0x4 ADD SWAP1 DUP1 MLOAD SWAP1 PUSH1 0x20 ADD SWAP1 PUSH2 0x1530 SWAP3 SWAP2 SWAP1 PUSH2 0x1FE4 JUMP JUMPDEST POP PUSH1 0xA0 DUP3 ADD MLOAD DUP2 PUSH1 0x5 ADD SSTORE PUSH1 0xC0 DUP3 ADD MLOAD DUP2 PUSH1 0x6 ADD SSTORE PUSH1 0xE0 DUP3 ADD MLOAD DUP2 PUSH1 0x7 ADD SSTORE SWAP1 POP POP PUSH1 0x7 DUP8 SWAP1 DUP1 PUSH1 0x1 DUP2 SLOAD ADD DUP1 DUP3 SSTORE DUP1 SWAP2 POP POP PUSH1 0x1 SWAP1 SUB SWAP1 PUSH0 MSTORE PUSH1 0x20 PUSH0 KECCAK256 ADD PUSH0 SWAP1 SWAP2 SWAP1 SWAP2 SWAP1 SWAP2 POP SSTORE PUSH1 0x2 PUSH0 SWAP1 SLOAD SWAP1 PUSH2 0x100 EXP SWAP1 DIV PUSH20 0xFFFFFFFFFFFFFFFFFFFFFFFFFFFFFFFFFFFFFFFF AND PUSH20 0xFFFFFFFFFFFFFFFFFFFFFFFFFFFFFFFFFFFFFFFF AND PUSH4 0x5F8069CC DUP6 DUP10 PUSH1 0x40 MLOAD DUP4 PUSH4 0xFFFFFFFF AND PUSH1 0xE0 SHL DUP2 MSTORE PUSH1 0x4 ADD PUSH2 0x15D4 SWAP3 SWAP2 SWAP1 PUSH2 0x3501 JUMP JUMPDEST PUSH0 PUSH1 0x40 MLOAD DUP1 DUP4 SUB DUP2 PUSH0 DUP8 DUP1 EXTCODESIZE ISZERO DUP1 ISZERO PUSH2 0x15EB JUMPI PUSH0 PUSH0 REVERT JUMPDEST POP GAS CALL ISZERO DUP1 ISZERO PUSH2 0x15FD JUMPI RETURNDATASIZE PUSH0 PUSH0 RETURNDATACOPY RETURNDATASIZE PUSH0 REVERT JUMPDEST POP POP POP POP PUSH0 PUSH0 SWAP1 POP JUMPDEST DUP3 MLOAD DUP2 LT ISZERO PUSH2 0x171B JUMPI PUSH0 PUSH1 0x40 MLOAD DUP1 PUSH1 0x80 ADD PUSH1 0x40 MSTORE DUP1 PUSH1 0x4 PUSH0 DUP2 SLOAD DUP1 SWAP3 SWAP2 SWAP1 PUSH2 0x162D SWAP1 PUSH2 0x3590 JUMP JUMPDEST SWAP2 SWAP1 POP SSTORE DUP2 MSTORE PUSH1 0x20 ADD DUP6 DUP5 DUP2 MLOAD DUP2 LT PUSH2 0x1649 JUMPI PUSH2 0x1648 PUSH2 0x3009 JUMP JUMPDEST JUMPDEST PUSH1 0x20 MUL PUSH1 0x20 ADD ADD MLOAD PUSH0 ADD MLOAD DUP2 MSTORE PUSH1 0x20 ADD DUP6 DUP5 DUP2 MLOAD DUP2 LT PUSH2 0x166C JUMPI PUSH2 0x166B PUSH2 0x3009 JUMP JUMPDEST JUMPDEST PUSH1 0x20 MUL PUSH1 0x20 ADD ADD MLOAD PUSH1 0x20 ADD MLOAD DUP2 MSTORE PUSH1 0x20 ADD DUP6 DUP5 DUP2 MLOAD DUP2 LT PUSH2 0x1690 JUMPI PUSH2 0x168F PUSH2 0x3009 JUMP JUMPDEST JUMPDEST PUSH1 0x20 MUL PUSH1 0x20 ADD ADD MLOAD PUSH1 0x40 ADD MLOAD DUP2 MSTORE POP SWAP1 POP PUSH1 0x6 PUSH0 DUP11 DUP2 MSTORE PUSH1 0x20 ADD SWAP1 DUP2 MSTORE PUSH1 0x20 ADD PUSH0 KECCAK256 DUP2 SWAP1 DUP1 PUSH1 0x1 DUP2 SLOAD ADD DUP1 DUP3 SSTORE DUP1 SWAP2 POP POP PUSH1 0x1 SWAP1 SUB SWAP1 PUSH0 MSTORE PUSH1 0x20 PUSH0 KECCAK256 SWAP1 PUSH1 0x4 MUL ADD PUSH0 SWAP1 SWAP2 SWAP1 SWAP2 SWAP1 SWAP2 POP PUSH0 DUP3 ADD MLOAD DUP2 PUSH0 ADD SSTORE PUSH1 0x20 DUP3 ADD MLOAD DUP2 PUSH1 0x1 ADD SWAP1 DUP2 PUSH2 0x16F6 SWAP2 SWAP1 PUSH2 0x3405 JUMP JUMPDEST POP PUSH1 0x40 DUP3 ADD MLOAD DUP2 PUSH1 0x2 ADD SSTORE PUSH1 0x60 DUP3 ADD MLOAD DUP2 PUSH1 0x3 ADD SSTORE POP POP POP DUP1 DUP1 PUSH1 0x1 ADD SWAP2 POP POP PUSH2 0x1606 JUMP JUMPDEST POP PUSH32 0xBDF2814016D06BF27F22AA349FADE26A888A8F7EAC3E0963916B1C64CC37A5CE DUP8 DUP8 DUP8 DUP8 DUP8 PUSH1 0x40 MLOAD PUSH2 0x1753 SWAP6 SWAP5 SWAP4 SWAP3 SWAP2 SWAP1 PUSH2 0x382C JUMP JUMPDEST PUSH1 0x40 MLOAD DUP1 SWAP2 SUB SWAP1 LOG1 POP POP POP POP POP POP POP JUMP JUMPDEST PUSH1 0x60 PUSH0 PUSH1 0x7 DUP1 SLOAD SWAP1 POP PUSH8 0xFFFFFFFFFFFFFFFF DUP2 GT ISZERO PUSH2 0x1786 JUMPI PUSH2 0x1785 PUSH2 0x25E1 JUMP JUMPDEST JUMPDEST PUSH1 0x40 MLOAD SWAP1 DUP1 DUP3 MSTORE DUP1 PUSH1 0x20 MUL PUSH1 0x20 ADD DUP3 ADD PUSH1 0x40 MSTORE DUP1 ISZERO PUSH2 0x17BF JUMPI DUP2 PUSH1 0x20 ADD JUMPDEST PUSH2 0x17AC PUSH2 0x203B JUMP JUMPDEST DUP2 MSTORE PUSH1 0x20 ADD SWAP1 PUSH1 0x1 SWAP1 SUB SWAP1 DUP2 PUSH2 0x17A4 JUMPI SWAP1 POP JUMPDEST POP SWAP1 POP PUSH0 PUSH0 SWAP1 POP JUMPDEST PUSH1 0x7 DUP1 SLOAD SWAP1 POP DUP2 LT ISZERO PUSH2 0x1B86 JUMPI PUSH0 PUSH1 0x7 DUP3 DUP2 SLOAD DUP2 LT PUSH2 0x17E9 JUMPI PUSH2 0x17E8 PUSH2 0x3009 JUMP JUMPDEST JUMPDEST SWAP1 PUSH0 MSTORE PUSH1 0x20 PUSH0 KECCAK256 ADD SLOAD SWAP1 POP PUSH1 0x40 MLOAD DUP1 PUSH1 0x40 ADD PUSH1 0x40 MSTORE DUP1 PUSH1 0x5 PUSH0 DUP5 DUP2 MSTORE PUSH1 0x20 ADD SWAP1 DUP2 MSTORE PUSH1 0x20 ADD PUSH0 KECCAK256 PUSH1 0x40 MLOAD DUP1 PUSH2 0x100 ADD PUSH1 0x40 MSTORE SWAP1 DUP2 PUSH0 DUP3 ADD SLOAD DUP2 MSTORE PUSH1 0x20 ADD PUSH1 0x1 DUP3 ADD DUP1 SLOAD PUSH2 0x1835 SWAP1 PUSH2 0x313B JUMP JUMPDEST DUP1 PUSH1 0x1F ADD PUSH1 0x20 DUP1 SWAP2 DIV MUL PUSH1 0x20 ADD PUSH1 0x40 MLOAD SWAP1 DUP2 ADD PUSH1 0x40 MSTORE DUP1 SWAP3 SWAP2 SWAP1 DUP2 DUP2 MSTORE PUSH1 0x20 ADD DUP3 DUP1 SLOAD PUSH2 0x1861 SWAP1 PUSH2 0x313B JUMP JUMPDEST DUP1 ISZERO PUSH2 0x18AC JUMPI DUP1 PUSH1 0x1F LT PUSH2 0x1883 JUMPI PUSH2 0x100 DUP1 DUP4 SLOAD DIV MUL DUP4 MSTORE SWAP2 PUSH1 0x20 ADD SWAP2 PUSH2 0x18AC JUMP JUMPDEST DUP3 ADD SWAP2 SWAP1 PUSH0 MSTORE PUSH1 0x20 PUSH0 KECCAK256 SWAP1 JUMPDEST DUP2 SLOAD DUP2 MSTORE SWAP1 PUSH1 0x1 ADD SWAP1 PUSH1 0x20 ADD DUP1 DUP4 GT PUSH2 0x188F JUMPI DUP3 SWAP1 SUB PUSH1 0x1F AND DUP3 ADD SWAP2 JUMPDEST POP POP POP POP POP DUP2 MSTORE PUSH1 0x20 ADD PUSH1 0x2 DUP3 ADD DUP1 SLOAD PUSH2 0x18C5 SWAP1 PUSH2 0x313B JUMP JUMPDEST DUP1 PUSH1 0x1F ADD PUSH1 0x20 DUP1 SWAP2 DIV MUL PUSH1 0x20 ADD PUSH1 0x40 MLOAD SWAP1 DUP2 ADD PUSH1 0x40 MSTORE DUP1 SWAP3 SWAP2 SWAP1 DUP2 DUP2 MSTORE PUSH1 0x20 ADD DUP3 DUP1 SLOAD PUSH2 0x18F1 SWAP1 PUSH2 0x313B JUMP JUMPDEST DUP1 ISZERO PUSH2 0x193C JUMPI DUP1 PUSH1 0x1F LT PUSH2 0x1913 JUMPI PUSH2 0x100 DUP1 DUP4 SLOAD DIV MUL DUP4 MSTORE SWAP2 PUSH1 0x20 ADD SWAP2 PUSH2 0x193C JUMP JUMPDEST DUP3 ADD SWAP2 SWAP1 PUSH0 MSTORE PUSH1 0x20 PUSH0 KECCAK256 SWAP1 JUMPDEST DUP2 SLOAD DUP2 MSTORE SWAP1 PUSH1 0x1 ADD SWAP1 PUSH1 0x20 ADD DUP1 DUP4 GT PUSH2 0x191F JUMPI DUP3 SWAP1 SUB PUSH1 0x1F AND DUP3 ADD SWAP2 JUMPDEST POP POP POP POP POP DUP2 MSTORE PUSH1 0x20 ADD PUSH1 0x3 DUP3 ADD SLOAD DUP2 MSTORE PUSH1 0x20 ADD PUSH1 0x4 DUP3 ADD DUP1 SLOAD DUP1 PUSH1 0x20 MUL PUSH1 0x20 ADD PUSH1 0x40 MLOAD SWAP1 DUP2 ADD PUSH1 0x40 MSTORE DUP1 SWAP3 SWAP2 SWAP1 DUP2 DUP2 MSTORE PUSH1 0x20 ADD PUSH0 SWAP1 JUMPDEST DUP3 DUP3 LT ISZERO PUSH2 0x1A1B JUMPI DUP4 DUP3 SWAP1 PUSH0 MSTORE PUSH1 0x20 PUSH0 KECCAK256 ADD DUP1 SLOAD PUSH2 0x1990 SWAP1 PUSH2 0x313B JUMP JUMPDEST DUP1 PUSH1 0x1F ADD PUSH1 0x20 DUP1 SWAP2 DIV MUL PUSH1 0x20 ADD PUSH1 0x40 MLOAD SWAP1 DUP2 ADD PUSH1 0x40 MSTORE DUP1 SWAP3 SWAP2 SWAP1 DUP2 DUP2 MSTORE PUSH1 0x20 ADD DUP3 DUP1 SLOAD PUSH2 0x19BC SWAP1 PUSH2 0x313B JUMP JUMPDEST DUP1 ISZERO PUSH2 0x1A07 JUMPI DUP1 PUSH1 0x1F LT PUSH2 0x19DE JUMPI PUSH2 0x100 DUP1 DUP4 SLOAD DIV MUL DUP4 MSTORE SWAP2 PUSH1 0x20 ADD SWAP2 PUSH2 0x1A07 JUMP JUMPDEST DUP3 ADD SWAP2 SWAP1 PUSH0 MSTORE PUSH1 0x20 PUSH0 KECCAK256 SWAP1 JUMPDEST DUP2 SLOAD DUP2 MSTORE SWAP1 PUSH1 0x1 ADD SWAP1 PUSH1 0x20 ADD DUP1 DUP4 GT PUSH2 0x19EA JUMPI DUP3 SWAP1 SUB PUSH1 0x1F AND DUP3 ADD SWAP2 JUMPDEST POP POP POP POP POP DUP2 MSTORE PUSH1 0x20 ADD SWAP1 PUSH1 0x1 ADD SWAP1 PUSH2 0x1973 JUMP JUMPDEST POP POP POP POP DUP2 MSTORE PUSH1 0x20 ADD PUSH1 0x5 DUP3 ADD SLOAD DUP2 MSTORE PUSH1 0x20 ADD PUSH1 0x6 DUP3 ADD SLOAD DUP2 MSTORE PUSH1 0x20 ADD PUSH1 0x7 DUP3 ADD SLOAD DUP2 MSTORE POP POP DUP2 MSTORE PUSH1 0x20 ADD PUSH1 0x6 PUSH0 DUP5 DUP2 MSTORE PUSH1 0x20 ADD SWAP1 DUP2 MSTORE PUSH1 0x20 ADD PUSH0 KECCAK256 DUP1 SLOAD DUP1 PUSH1 0x20 MUL PUSH1 0x20 ADD PUSH1 0x40 MLOAD SWAP1 DUP2 ADD PUSH1 0x40 MSTORE DUP1 SWAP3 SWAP2 SWAP1 DUP2 DUP2 MSTORE PUSH1 0x20 ADD PUSH0 SWAP1 JUMPDEST DUP3 DUP3 LT ISZERO PUSH2 0x1B53 JUMPI DUP4 DUP3 SWAP1 PUSH0 MSTORE PUSH1 0x20 PUSH0 KECCAK256 SWAP1 PUSH1 0x4 MUL ADD PUSH1 0x40 MLOAD DUP1 PUSH1 0x80 ADD PUSH1 0x40 MSTORE SWAP1 DUP2 PUSH0 DUP3 ADD SLOAD DUP2 MSTORE PUSH1 0x20 ADD PUSH1 0x1 DUP3 ADD DUP1 SLOAD PUSH2 0x1AB0 SWAP1 PUSH2 0x313B JUMP JUMPDEST DUP1 PUSH1 0x1F ADD PUSH1 0x20 DUP1 SWAP2 DIV MUL PUSH1 0x20 ADD PUSH1 0x40 MLOAD SWAP1 DUP2 ADD PUSH1 0x40 MSTORE DUP1 SWAP3 SWAP2 SWAP1 DUP2 DUP2 MSTORE PUSH1 0x20 ADD DUP3 DUP1 SLOAD PUSH2 0x1ADC SWAP1 PUSH2 0x313B JUMP JUMPDEST DUP1 ISZERO PUSH2 0x1B27 JUMPI DUP1 PUSH1 0x1F LT PUSH2 0x1AFE JUMPI PUSH2 0x100 DUP1 DUP4 SLOAD DIV MUL DUP4 MSTORE SWAP2 PUSH1 0x20 ADD SWAP2 PUSH2 0x1B27 JUMP JUMPDEST DUP3 ADD SWAP2 SWAP1 PUSH0 MSTORE PUSH1 0x20 PUSH0 KECCAK256 SWAP1 JUMPDEST DUP2 SLOAD DUP2 MSTORE SWAP1 PUSH1 0x1 ADD SWAP1 PUSH1 0x20 ADD DUP1 DUP4 GT PUSH2 0x1B0A JUMPI DUP3 SWAP1 SUB PUSH1 0x1F AND DUP3 ADD SWAP2 JUMPDEST POP POP POP POP POP DUP2 MSTORE PUSH1 0x20 ADD PUSH1 0x2 DUP3 ADD SLOAD DUP2 MSTORE PUSH1 0x20 ADD PUSH1 0x3 DUP3 ADD SLOAD DUP2 MSTORE POP POP DUP2 MSTORE PUSH1 0x20 ADD SWAP1 PUSH1 0x1 ADD SWAP1 PUSH2 0x1A76 JUMP JUMPDEST POP POP POP POP DUP2 MSTORE POP DUP4 DUP4 DUP2 MLOAD DUP2 LT PUSH2 0x1B6D JUMPI PUSH2 0x1B6C PUSH2 0x3009 JUMP JUMPDEST JUMPDEST PUSH1 0x20 MUL PUSH1 0x20 ADD ADD DUP2 SWAP1 MSTORE POP POP DUP1 DUP1 PUSH1 0x1 ADD SWAP2 POP POP PUSH2 0x17C7 JUMP JUMPDEST POP DUP1 SWAP2 POP POP SWAP1 JUMP JUMPDEST PUSH0 PUSH1 0x5 PUSH0 DUP6 DUP2 MSTORE PUSH1 0x20 ADD SWAP1 DUP2 MSTORE PUSH1 0x20 ADD PUSH0 KECCAK256 PUSH0 ADD SLOAD SUB PUSH2 0x1BE3 JUMPI PUSH1 0x40 MLOAD PUSH32 0x8C379A000000000000000000000000000000000000000000000000000000000 DUP2 MSTORE PUSH1 0x4 ADD PUSH2 0x1BDA SWAP1 PUSH2 0x30F0 JUMP JUMPDEST PUSH1 0x40 MLOAD DUP1 SWAP2 SUB SWAP1 REVERT JUMPDEST PUSH0 PUSH1 0x6 PUSH0 DUP6 DUP2 MSTORE PUSH1 0x20 ADD SWAP1 DUP2 MSTORE PUSH1 0x20 ADD PUSH0 KECCAK256 SWAP1 POP PUSH0 PUSH0 SWAP1 POP PUSH0 PUSH0 SWAP1 POP JUMPDEST DUP3 DUP1 SLOAD SWAP1 POP DUP2 LT ISZERO PUSH2 0x1D0C JUMPI DUP5 DUP4 DUP3 DUP2 SLOAD DUP2 LT PUSH2 0x1C20 JUMPI PUSH2 0x1C1F PUSH2 0x3009 JUMP JUMPDEST JUMPDEST SWAP1 PUSH0 MSTORE PUSH1 0x20 PUSH0 KECCAK256 SWAP1 PUSH1 0x4 MUL ADD PUSH0 ADD SLOAD SUB PUSH2 0x1CFF JUMPI DUP4 PUSH0 ADD MLOAD DUP4 DUP3 DUP2 SLOAD DUP2 LT PUSH2 0x1C4B JUMPI PUSH2 0x1C4A PUSH2 0x3009 JUMP JUMPDEST JUMPDEST SWAP1 PUSH0 MSTORE PUSH1 0x20 PUSH0 KECCAK256 SWAP1 PUSH1 0x4 MUL ADD PUSH1 0x1 ADD SWAP1 DUP2 PUSH2 0x1C66 SWAP2 SWAP1 PUSH2 0x3405 JUMP JUMPDEST POP DUP4 PUSH1 0x20 ADD MLOAD DUP4 DUP3 DUP2 SLOAD DUP2 LT PUSH2 0x1C7F JUMPI PUSH2 0x1C7E PUSH2 0x3009 JUMP JUMPDEST JUMPDEST SWAP1 PUSH0 MSTORE PUSH1 0x20 PUSH0 KECCAK256 SWAP1 PUSH1 0x4 MUL ADD PUSH1 0x2 ADD DUP2 SWAP1 SSTORE POP DUP4 PUSH1 0x40 ADD MLOAD DUP4 DUP3 DUP2 SLOAD DUP2 LT PUSH2 0x1CAA JUMPI PUSH2 0x1CA9 PUSH2 0x3009 JUMP JUMPDEST JUMPDEST SWAP1 PUSH0 MSTORE PUSH1 0x20 PUSH0 KECCAK256 SWAP1 PUSH1 0x4 MUL ADD PUSH1 0x3 ADD DUP2 SWAP1 SSTORE POP PUSH1 0x1 SWAP2 POP PUSH32 0xE29E1E70959F0C301943D01C4BD294592A2105BC81E9B2523C4B1D7F7D1F393F DUP7 DUP7 PUSH1 0x40 MLOAD PUSH2 0x1CF2 SWAP3 SWAP2 SWAP1 PUSH2 0x3501 JUMP JUMPDEST PUSH1 0x40 MLOAD DUP1 SWAP2 SUB SWAP1 LOG1 PUSH2 0x1D0C JUMP JUMPDEST DUP1 DUP1 PUSH1 0x1 ADD SWAP2 POP POP PUSH2 0x1C00 JUMP JUMPDEST POP DUP1 PUSH2 0x1D4D JUMPI PUSH1 0x40 MLOAD PUSH32 0x8C379A000000000000000000000000000000000000000000000000000000000 DUP2 MSTORE PUSH1 0x4 ADD PUSH2 0x1D44 SWAP1 PUSH2 0x3572 JUMP JUMPDEST PUSH1 0x40 MLOAD DUP1 SWAP2 SUB SWAP1 REVERT JUMPDEST POP POP POP POP POP JUMP JUMPDEST PUSH0 PUSH1 0x5 PUSH0 DUP4 DUP2 MSTORE PUSH1 0x20 ADD SWAP1 DUP2 MSTORE PUSH1 0x20 ADD PUSH0 KECCAK256 PUSH0 ADD SLOAD SUB PUSH2 0x1DA9 JUMPI PUSH1 0x40 MLOAD PUSH32 0x8C379A000000000000000000000000000000000000000000000000000000000 DUP2 MSTORE PUSH1 0x4 ADD PUSH2 0x1DA0 SWAP1 PUSH2 0x30F0 JUMP JUMPDEST PUSH1 0x40 MLOAD DUP1 SWAP2 SUB SWAP1 REVERT JUMPDEST PUSH1 0x5 PUSH0 DUP3 DUP2 MSTORE PUSH1 0x20 ADD SWAP1 DUP2 MSTORE PUSH1 0x20 ADD PUSH0 KECCAK256 PUSH0 PUSH0 DUP3 ADD PUSH0 SWAP1 SSTORE PUSH1 0x1 DUP3 ADD PUSH0 PUSH2 0x1DD0 SWAP2 SWAP1 PUSH2 0x1FA7 JUMP JUMPDEST PUSH1 0x2 DUP3 ADD PUSH0 PUSH2 0x1DDF SWAP2 SWAP1 PUSH2 0x1FA7 JUMP JUMPDEST PUSH1 0x3 DUP3 ADD PUSH0 SWAP1 SSTORE PUSH1 0x4 DUP3 ADD PUSH0 PUSH2 0x1DF5 SWAP2 SWAP1 PUSH2 0x205B JUMP JUMPDEST PUSH1 0x5 DUP3 ADD PUSH0 SWAP1 SSTORE PUSH1 0x6 DUP3 ADD PUSH0 SWAP1 SSTORE PUSH1 0x7 DUP3 ADD PUSH0 SWAP1 SSTORE POP POP PUSH1 0x6 PUSH0 DUP3 DUP2 MSTORE PUSH1 0x20 ADD SWAP1 DUP2 MSTORE PUSH1 0x20 ADD PUSH0 KECCAK256 PUSH0 PUSH2 0x1E28 SWAP2 SWAP1 PUSH2 0x2079 JUMP JUMPDEST PUSH0 PUSH0 SWAP1 POP JUMPDEST PUSH1 0x7 DUP1 SLOAD SWAP1 POP DUP2 LT ISZERO PUSH2 0x1EE2 JUMPI DUP2 PUSH1 0x7 DUP3 DUP2 SLOAD DUP2 LT PUSH2 0x1E4F JUMPI PUSH2 0x1E4E PUSH2 0x3009 JUMP JUMPDEST JUMPDEST SWAP1 PUSH0 MSTORE PUSH1 0x20 PUSH0 KECCAK256 ADD SLOAD SUB PUSH2 0x1ED5 JUMPI PUSH1 0x7 PUSH1 0x1 PUSH1 0x7 DUP1 SLOAD SWAP1 POP PUSH2 0x1E71 SWAP2 SWAP1 PUSH2 0x323B JUMP JUMPDEST DUP2 SLOAD DUP2 LT PUSH2 0x1E82 JUMPI PUSH2 0x1E81 PUSH2 0x3009 JUMP JUMPDEST JUMPDEST SWAP1 PUSH0 MSTORE PUSH1 0x20 PUSH0 KECCAK256 ADD SLOAD PUSH1 0x7 DUP3 DUP2 SLOAD DUP2 LT PUSH2 0x1E9F JUMPI PUSH2 0x1E9E PUSH2 0x3009 JUMP JUMPDEST JUMPDEST SWAP1 PUSH0 MSTORE PUSH1 0x20 PUSH0 KECCAK256 ADD DUP2 SWAP1 SSTORE POP PUSH1 0x7 DUP1 SLOAD DUP1 PUSH2 0x1EBD JUMPI PUSH2 0x1EBC PUSH2 0x34D4 JUMP JUMPDEST JUMPDEST PUSH1 0x1 SWAP1 SUB DUP2 DUP2 SWAP1 PUSH0 MSTORE PUSH1 0x20 PUSH0 KECCAK256 ADD PUSH0 SWAP1 SSTORE SWAP1 SSTORE PUSH2 0x1EE2 JUMP JUMPDEST DUP1 DUP1 PUSH1 0x1 ADD SWAP2 POP POP PUSH2 0x1E2D JUMP JUMPDEST POP PUSH32 0x4D4E7C43D5805933523B1317FDD5ACB7517962D3E9F52834633B9F0149477295 DUP2 PUSH1 0x40 MLOAD PUSH2 0x1F12 SWAP2 SWAP1 PUSH2 0x223A JUMP JUMPDEST PUSH1 0x40 MLOAD DUP1 SWAP2 SUB SWAP1 LOG1 POP JUMP JUMPDEST PUSH1 0x2 PUSH0 SWAP1 SLOAD SWAP1 PUSH2 0x100 EXP SWAP1 DIV PUSH20 0xFFFFFFFFFFFFFFFFFFFFFFFFFFFFFFFFFFFFFFFF AND DUP2 JUMP JUMPDEST PUSH1 0x40 MLOAD DUP1 PUSH2 0x100 ADD PUSH1 0x40 MSTORE DUP1 PUSH0 DUP2 MSTORE PUSH1 0x20 ADD PUSH1 0x60 DUP2 MSTORE PUSH1 0x20 ADD PUSH1 0x60 DUP2 MSTORE PUSH1 0x20 ADD PUSH0 DUP2 MSTORE PUSH1 0x20 ADD PUSH1 0x60 DUP2 MSTORE PUSH1 0x20 ADD PUSH0 DUP2 MSTORE PUSH1 0x20 ADD PUSH0 DUP2 MSTORE PUSH1 0x20 ADD PUSH0 DUP2 MSTORE POP SWAP1 JUMP JUMPDEST PUSH1 0x40 MLOAD DUP1 PUSH1 0x80 ADD PUSH1 0x40 MSTORE DUP1 PUSH0 DUP2 MSTORE PUSH1 0x20 ADD PUSH1 0x60 DUP2 MSTORE PUSH1 0x20 ADD PUSH0 DUP2 MSTORE PUSH1 0x20 ADD PUSH0 DUP2 MSTORE POP SWAP1 JUMP JUMPDEST POP DUP1 SLOAD PUSH2 0x1FB3 SWAP1 PUSH2 0x313B JUMP JUMPDEST PUSH0 DUP3 SSTORE DUP1 PUSH1 0x1F LT PUSH2 0x1FC4 JUMPI POP PUSH2 0x1FE1 JUMP JUMPDEST PUSH1 0x1F ADD PUSH1 0x20 SWAP1 DIV SWAP1 PUSH0 MSTORE PUSH1 0x20 PUSH0 KECCAK256 SWAP1 DUP2 ADD SWAP1 PUSH2 0x1FE0 SWAP2 SWAP1 PUSH2 0x209A JUMP JUMPDEST JUMPDEST POP JUMP JUMPDEST DUP3 DUP1 SLOAD DUP3 DUP3 SSTORE SWAP1 PUSH0 MSTORE PUSH1 0x20 PUSH0 KECCAK256 SWAP1 DUP2 ADD SWAP3 DUP3 ISZERO PUSH2 0x202A JUMPI SWAP2 PUSH1 0x20 MUL DUP3 ADD JUMPDEST DUP3 DUP2 GT ISZERO PUSH2 0x2029 JUMPI DUP3 MLOAD DUP3 SWAP1 DUP2 PUSH2 0x2019 SWAP2 SWAP1 PUSH2 0x3405 JUMP JUMPDEST POP SWAP2 PUSH1 0x20 ADD SWAP2 SWAP1 PUSH1 0x1 ADD SWAP1 PUSH2 0x2002 JUMP JUMPDEST JUMPDEST POP SWAP1 POP PUSH2 0x2037 SWAP2 SWAP1 PUSH2 0x20B5 JUMP JUMPDEST POP SWAP1 JUMP JUMPDEST PUSH1 0x40 MLOAD DUP1 PUSH1 0x40 ADD PUSH1 0x40 MSTORE DUP1 PUSH2 0x204E PUSH2 0x1F42 JUMP JUMPDEST DUP2 MSTORE PUSH1 0x20 ADD PUSH1 0x60 DUP2 MSTORE POP SWAP1 JUMP JUMPDEST POP DUP1 SLOAD PUSH0 DUP3 SSTORE SWAP1 PUSH0 MSTORE PUSH1 0x20 PUSH0 KECCAK256 SWAP1 DUP2 ADD SWAP1 PUSH2 0x2076 SWAP2 SWAP1 PUSH2 0x20B5 JUMP JUMPDEST POP JUMP JUMPDEST POP DUP1 SLOAD PUSH0 DUP3 SSTORE PUSH1 0x4 MUL SWAP1 PUSH0 MSTORE PUSH1 0x20 PUSH0 KECCAK256 SWAP1 DUP2 ADD SWAP1 PUSH2 0x2097 SWAP2 SWAP1 PUSH2 0x20D8 JUMP JUMPDEST POP JUMP JUMPDEST JUMPDEST DUP1 DUP3 GT ISZERO PUSH2 0x20B1 JUMPI PUSH0 DUP2 PUSH0 SWAP1 SSTORE POP PUSH1 0x1 ADD PUSH2 0x209B JUMP JUMPDEST POP SWAP1 JUMP JUMPDEST JUMPDEST DUP1 DUP3 GT ISZERO PUSH2 0x20D4 JUMPI PUSH0 DUP2 DUP2 PUSH2 0x20CB SWAP2 SWAP1 PUSH2 0x1FA7 JUMP JUMPDEST POP PUSH1 0x1 ADD PUSH2 0x20B6 JUMP JUMPDEST POP SWAP1 JUMP JUMPDEST JUMPDEST DUP1 DUP3 GT ISZERO PUSH2 0x210E JUMPI PUSH0 PUSH0 DUP3 ADD PUSH0 SWAP1 SSTORE PUSH1 0x1 DUP3 ADD PUSH0 PUSH2 0x20F7 SWAP2 SWAP1 PUSH2 0x1FA7 JUMP JUMPDEST PUSH1 0x2 DUP3 ADD PUSH0 SWAP1 SSTORE PUSH1 0x3 DUP3 ADD PUSH0 SWAP1 SSTORE POP PUSH1 0x4 ADD PUSH2 0x20D9 JUMP JUMPDEST POP SWAP1 JUMP JUMPDEST PUSH0 PUSH1 0x40 MLOAD SWAP1 POP SWAP1 JUMP JUMPDEST PUSH0 PUSH0 REVERT JUMPDEST PUSH0 PUSH0 REVERT JUMPDEST PUSH0 DUP2 SWAP1 POP SWAP2 SWAP1 POP JUMP JUMPDEST PUSH2 0x2135 DUP2 PUSH2 0x2123 JUMP JUMPDEST DUP2 EQ PUSH2 0x213F JUMPI PUSH0 PUSH0 REVERT JUMPDEST POP JUMP JUMPDEST PUSH0 DUP2 CALLDATALOAD SWAP1 POP PUSH2 0x2150 DUP2 PUSH2 0x212C JUMP JUMPDEST SWAP3 SWAP2 POP POP JUMP JUMPDEST PUSH0 PUSH0 PUSH0 PUSH1 0x60 DUP5 DUP7 SUB SLT ISZERO PUSH2 0x216D JUMPI PUSH2 0x216C PUSH2 0x211B JUMP JUMPDEST JUMPDEST PUSH0 PUSH2 0x217A DUP7 DUP3 DUP8 ADD PUSH2 0x2142 JUMP JUMPDEST SWAP4 POP POP PUSH1 0x20 PUSH2 0x218B DUP7 DUP3 DUP8 ADD PUSH2 0x2142 JUMP JUMPDEST SWAP3 POP POP PUSH1 0x40 PUSH2 0x219C DUP7 DUP3 DUP8 ADD PUSH2 0x2142 JUMP JUMPDEST SWAP2 POP POP SWAP3 POP SWAP3 POP SWAP3 JUMP JUMPDEST PUSH0 PUSH20 0xFFFFFFFFFFFFFFFFFFFFFFFFFFFFFFFFFFFFFFFF DUP3 AND SWAP1 POP SWAP2 SWAP1 POP JUMP JUMPDEST PUSH0 PUSH2 0x21CF DUP3 PUSH2 0x21A6 JUMP JUMPDEST SWAP1 POP SWAP2 SWAP1 POP JUMP JUMPDEST PUSH2 0x21DF DUP2 PUSH2 0x21C5 JUMP JUMPDEST DUP2 EQ PUSH2 0x21E9 JUMPI PUSH0 PUSH0 REVERT JUMPDEST POP JUMP JUMPDEST PUSH0 DUP2 CALLDATALOAD SWAP1 POP PUSH2 0x21FA DUP2 PUSH2 0x21D6 JUMP JUMPDEST SWAP3 SWAP2 POP POP JUMP JUMPDEST PUSH0 PUSH1 0x20 DUP3 DUP5 SUB SLT ISZERO PUSH2 0x2215 JUMPI PUSH2 0x2214 PUSH2 0x211B JUMP JUMPDEST JUMPDEST PUSH0 PUSH2 0x2222 DUP5 DUP3 DUP6 ADD PUSH2 0x21EC JUMP JUMPDEST SWAP2 POP POP SWAP3 SWAP2 POP POP JUMP JUMPDEST PUSH2 0x2234 DUP2 PUSH2 0x2123 JUMP JUMPDEST DUP3 MSTORE POP POP JUMP JUMPDEST PUSH0 PUSH1 0x20 DUP3 ADD SWAP1 POP PUSH2 0x224D PUSH0 DUP4 ADD DUP5 PUSH2 0x222B JUMP JUMPDEST SWAP3 SWAP2 POP POP JUMP JUMPDEST PUSH0 PUSH1 0x20 DUP3 DUP5 SUB SLT ISZERO PUSH2 0x2268 JUMPI PUSH2 0x2267 PUSH2 0x211B JUMP JUMPDEST JUMPDEST PUSH0 PUSH2 0x2275 DUP5 DUP3 DUP6 ADD PUSH2 0x2142 JUMP JUMPDEST SWAP2 POP POP SWAP3 SWAP2 POP POP JUMP JUMPDEST PUSH2 0x2287 DUP2 PUSH2 0x2123 JUMP JUMPDEST DUP3 MSTORE POP POP JUMP JUMPDEST PUSH0 DUP2 MLOAD SWAP1 POP SWAP2 SWAP1 POP JUMP JUMPDEST PUSH0 DUP3 DUP3 MSTORE PUSH1 0x20 DUP3 ADD SWAP1 POP SWAP3 SWAP2 POP POP JUMP JUMPDEST DUP3 DUP2 DUP4 MCOPY PUSH0 DUP4 DUP4 ADD MSTORE POP POP POP JUMP JUMPDEST PUSH0 PUSH1 0x1F NOT PUSH1 0x1F DUP4 ADD AND SWAP1 POP SWAP2 SWAP1 POP JUMP JUMPDEST PUSH0 PUSH2 0x22CF DUP3 PUSH2 0x228D JUMP JUMPDEST PUSH2 0x22D9 DUP2 DUP6 PUSH2 0x2297 JUMP JUMPDEST SWAP4 POP PUSH2 0x22E9 DUP2 DUP6 PUSH1 0x20 DUP7 ADD PUSH2 0x22A7 JUMP JUMPDEST PUSH2 0x22F2 DUP2 PUSH2 0x22B5 JUMP JUMPDEST DUP5 ADD SWAP2 POP POP SWAP3 SWAP2 POP POP JUMP JUMPDEST PUSH0 DUP2 MLOAD SWAP1 POP SWAP2 SWAP1 POP JUMP JUMPDEST PUSH0 DUP3 DUP3 MSTORE PUSH1 0x20 DUP3 ADD SWAP1 POP SWAP3 SWAP2 POP POP JUMP JUMPDEST PUSH0 DUP2 SWAP1 POP PUSH1 0x20 DUP3 ADD SWAP1 POP SWAP2 SWAP1 POP JUMP JUMPDEST PUSH0 PUSH2 0x2331 DUP4 DUP4 PUSH2 0x22C5 JUMP JUMPDEST SWAP1 POP SWAP3 SWAP2 POP POP JUMP JUMPDEST PUSH0 PUSH1 0x20 DUP3 ADD SWAP1 POP SWAP2 SWAP1 POP JUMP JUMPDEST PUSH0 PUSH2 0x234F DUP3 PUSH2 0x22FD JUMP JUMPDEST PUSH2 0x2359 DUP2 DUP6 PUSH2 0x2307 JUMP JUMPDEST SWAP4 POP DUP4 PUSH1 0x20 DUP3 MUL DUP6 ADD PUSH2 0x236B DUP6 PUSH2 0x2317 JUMP JUMPDEST DUP1 PUSH0 JUMPDEST DUP6 DUP2 LT ISZERO PUSH2 0x23A6 JUMPI DUP5 DUP5 SUB DUP10 MSTORE DUP2 MLOAD PUSH2 0x2387 DUP6 DUP3 PUSH2 0x2326 JUMP JUMPDEST SWAP5 POP PUSH2 0x2392 DUP4 PUSH2 0x2339 JUMP JUMPDEST SWAP3 POP PUSH1 0x20 DUP11 ADD SWAP10 POP POP PUSH1 0x1 DUP2 ADD SWAP1 POP PUSH2 0x236E JUMP JUMPDEST POP DUP3 SWAP8 POP DUP8 SWAP6 POP POP POP POP POP POP SWAP3 SWAP2 POP POP JUMP JUMPDEST PUSH0 PUSH2 0x100 DUP4 ADD PUSH0 DUP4 ADD MLOAD PUSH2 0x23CE PUSH0 DUP7 ADD DUP3 PUSH2 0x227E JUMP JUMPDEST POP PUSH1 0x20 DUP4 ADD MLOAD DUP5 DUP3 SUB PUSH1 0x20 DUP7 ADD MSTORE PUSH2 0x23E6 DUP3 DUP3 PUSH2 0x22C5 JUMP JUMPDEST SWAP2 POP POP PUSH1 0x40 DUP4 ADD MLOAD DUP5 DUP3 SUB PUSH1 0x40 DUP7 ADD MSTORE PUSH2 0x2400 DUP3 DUP3 PUSH2 0x22C5 JUMP JUMPDEST SWAP2 POP POP PUSH1 0x60 DUP4 ADD MLOAD PUSH2 0x2415 PUSH1 0x60 DUP7 ADD DUP3 PUSH2 0x227E JUMP JUMPDEST POP PUSH1 0x80 DUP4 ADD MLOAD DUP5 DUP3 SUB PUSH1 0x80 DUP7 ADD MSTORE PUSH2 0x242D DUP3 DUP3 PUSH2 0x2345 JUMP JUMPDEST SWAP2 POP POP PUSH1 0xA0 DUP4 ADD MLOAD PUSH2 0x2442 PUSH1 0xA0 DUP7 ADD DUP3 PUSH2 0x227E JUMP JUMPDEST POP PUSH1 0xC0 DUP4 ADD MLOAD PUSH2 0x2455 PUSH1 0xC0 DUP7 ADD DUP3 PUSH2 0x227E JUMP JUMPDEST POP PUSH1 0xE0 DUP4 ADD MLOAD PUSH2 0x2468 PUSH1 0xE0 DUP7 ADD DUP3 PUSH2 0x227E JUMP JUMPDEST POP DUP1 SWAP2 POP POP SWAP3 SWAP2 POP POP JUMP JUMPDEST PUSH0 PUSH1 0x20 DUP3 ADD SWAP1 POP DUP2 DUP2 SUB PUSH0 DUP4 ADD MSTORE PUSH2 0x248B DUP2 DUP5 PUSH2 0x23B8 JUMP JUMPDEST SWAP1 POP SWAP3 SWAP2 POP POP JUMP JUMPDEST PUSH32 0x4E487B7100000000000000000000000000000000000000000000000000000000 PUSH0 MSTORE PUSH1 0x21 PUSH1 0x4 MSTORE PUSH1 0x24 PUSH0 REVERT JUMPDEST PUSH1 0x3 DUP2 LT PUSH2 0x24D1 JUMPI PUSH2 0x24D0 PUSH2 0x2493 JUMP JUMPDEST JUMPDEST POP JUMP JUMPDEST PUSH0 DUP2 SWAP1 POP PUSH2 0x24E1 DUP3 PUSH2 0x24C0 JUMP JUMPDEST SWAP2 SWAP1 POP JUMP JUMPDEST PUSH0 PUSH2 0x24F0 DUP3 PUSH2 0x24D4 JUMP JUMPDEST SWAP1 POP SWAP2 SWAP1 POP JUMP JUMPDEST PUSH2 0x2500 DUP2 PUSH2 0x24E6 JUMP JUMPDEST DUP3 MSTORE POP POP JUMP JUMPDEST PUSH0 PUSH1 0x20 DUP3 ADD SWAP1 POP PUSH2 0x2519 PUSH0 DUP4 ADD DUP5 PUSH2 0x24F7 JUMP JUMPDEST SWAP3 SWAP2 POP POP JUMP JUMPDEST PUSH0 PUSH0 PUSH1 0x40 DUP4 DUP6 SUB SLT ISZERO PUSH2 0x2535 JUMPI PUSH2 0x2534 PUSH2 0x211B JUMP JUMPDEST JUMPDEST PUSH0 PUSH2 0x2542 DUP6 DUP3 DUP7 ADD PUSH2 0x2142 JUMP JUMPDEST SWAP3 POP POP PUSH1 0x20 PUSH2 0x2553 DUP6 DUP3 DUP7 ADD PUSH2 0x2142 JUMP JUMPDEST SWAP2 POP POP SWAP3 POP SWAP3 SWAP1 POP JUMP JUMPDEST PUSH0 PUSH1 0x80 DUP4 ADD PUSH0 DUP4 ADD MLOAD PUSH2 0x2572 PUSH0 DUP7 ADD DUP3 PUSH2 0x227E JUMP JUMPDEST POP PUSH1 0x20 DUP4 ADD MLOAD DUP5 DUP3 SUB PUSH1 0x20 DUP7 ADD MSTORE PUSH2 0x258A DUP3 DUP3 PUSH2 0x22C5 JUMP JUMPDEST SWAP2 POP POP PUSH1 0x40 DUP4 ADD MLOAD PUSH2 0x259F PUSH1 0x40 DUP7 ADD DUP3 PUSH2 0x227E JUMP JUMPDEST POP PUSH1 0x60 DUP4 ADD MLOAD PUSH2 0x25B2 PUSH1 0x60 DUP7 ADD DUP3 PUSH2 0x227E JUMP JUMPDEST POP DUP1 SWAP2 POP POP SWAP3 SWAP2 POP POP JUMP JUMPDEST PUSH0 PUSH1 0x20 DUP3 ADD SWAP1 POP DUP2 DUP2 SUB PUSH0 DUP4 ADD MSTORE PUSH2 0x25D5 DUP2 DUP5 PUSH2 0x255D JUMP JUMPDEST SWAP1 POP SWAP3 SWAP2 POP POP JUMP JUMPDEST PUSH0 PUSH0 REVERT JUMPDEST PUSH32 0x4E487B7100000000000000000000000000000000000000000000000000000000 PUSH0 MSTORE PUSH1 0x41 PUSH1 0x4 MSTORE PUSH1 0x24 PUSH0 REVERT JUMPDEST PUSH2 0x2617 DUP3 PUSH2 0x22B5 JUMP JUMPDEST DUP2 ADD DUP2 DUP2 LT PUSH8 0xFFFFFFFFFFFFFFFF DUP3 GT OR ISZERO PUSH2 0x2636 JUMPI PUSH2 0x2635 PUSH2 0x25E1 JUMP JUMPDEST JUMPDEST DUP1 PUSH1 0x40 MSTORE POP POP POP JUMP JUMPDEST PUSH0 PUSH2 0x2648 PUSH2 0x2112 JUMP JUMPDEST SWAP1 POP PUSH2 0x2654 DUP3 DUP3 PUSH2 0x260E JUMP JUMPDEST SWAP2 SWAP1 POP JUMP JUMPDEST PUSH0 PUSH8 0xFFFFFFFFFFFFFFFF DUP3 GT ISZERO PUSH2 0x2673 JUMPI PUSH2 0x2672 PUSH2 0x25E1 JUMP JUMPDEST JUMPDEST PUSH1 0x20 DUP3 MUL SWAP1 POP PUSH1 0x20 DUP2 ADD SWAP1 POP SWAP2 SWAP1 POP JUMP JUMPDEST PUSH0 PUSH0 REVERT JUMPDEST PUSH0 PUSH0 REVERT JUMPDEST PUSH0 PUSH0 REVERT JUMPDEST PUSH0 PUSH0 REVERT JUMPDEST PUSH0 PUSH8 0xFFFFFFFFFFFFFFFF DUP3 GT ISZERO PUSH2 0x26AE JUMPI PUSH2 0x26AD PUSH2 0x25E1 JUMP JUMPDEST JUMPDEST PUSH2 0x26B7 DUP3 PUSH2 0x22B5 JUMP JUMPDEST SWAP1 POP PUSH1 0x20 DUP2 ADD SWAP1 POP SWAP2 SWAP1 POP JUMP JUMPDEST DUP3 DUP2 DUP4 CALLDATACOPY PUSH0 DUP4 DUP4 ADD MSTORE POP POP POP JUMP JUMPDEST PUSH0 PUSH2 0x26E4 PUSH2 0x26DF DUP5 PUSH2 0x2694 JUMP JUMPDEST PUSH2 0x263F JUMP JUMPDEST SWAP1 POP DUP3 DUP2 MSTORE PUSH1 0x20 DUP2 ADD DUP5 DUP5 DUP5 ADD GT ISZERO PUSH2 0x2700 JUMPI PUSH2 0x26FF PUSH2 0x2690 JUMP JUMPDEST JUMPDEST PUSH2 0x270B DUP5 DUP3 DUP6 PUSH2 0x26C4 JUMP JUMPDEST POP SWAP4 SWAP3 POP POP POP JUMP JUMPDEST PUSH0 DUP3 PUSH1 0x1F DUP4 ADD SLT PUSH2 0x2727 JUMPI PUSH2 0x2726 PUSH2 0x25DD JUMP JUMPDEST JUMPDEST DUP2 CALLDATALOAD PUSH2 0x2737 DUP5 DUP3 PUSH1 0x20 DUP7 ADD PUSH2 0x26D2 JUMP JUMPDEST SWAP2 POP POP SWAP3 SWAP2 POP POP JUMP JUMPDEST PUSH0 PUSH1 0x60 DUP3 DUP5 SUB SLT ISZERO PUSH2 0x2755 JUMPI PUSH2 0x2754 PUSH2 0x2688 JUMP JUMPDEST JUMPDEST PUSH2 0x275F PUSH1 0x60 PUSH2 0x263F JUMP JUMPDEST SWAP1 POP PUSH0 DUP3 ADD CALLDATALOAD PUSH8 0xFFFFFFFFFFFFFFFF DUP2 GT ISZERO PUSH2 0x277E JUMPI PUSH2 0x277D PUSH2 0x268C JUMP JUMPDEST JUMPDEST PUSH2 0x278A DUP5 DUP3 DUP6 ADD PUSH2 0x2713 JUMP JUMPDEST PUSH0 DUP4 ADD MSTORE POP PUSH1 0x20 PUSH2 0x279D DUP5 DUP3 DUP6 ADD PUSH2 0x2142 JUMP JUMPDEST PUSH1 0x20 DUP4 ADD MSTORE POP PUSH1 0x40 PUSH2 0x27B1 DUP5 DUP3 DUP6 ADD PUSH2 0x2142 JUMP JUMPDEST PUSH1 0x40 DUP4 ADD MSTORE POP SWAP3 SWAP2 POP POP JUMP JUMPDEST PUSH0 PUSH2 0x27CF PUSH2 0x27CA DUP5 PUSH2 0x2659 JUMP JUMPDEST PUSH2 0x263F JUMP JUMPDEST SWAP1 POP DUP1 DUP4 DUP3 MSTORE PUSH1 0x20 DUP3 ADD SWAP1 POP PUSH1 0x20 DUP5 MUL DUP4 ADD DUP6 DUP2 GT ISZERO PUSH2 0x27F2 JUMPI PUSH2 0x27F1 PUSH2 0x2684 JUMP JUMPDEST JUMPDEST DUP4 JUMPDEST DUP2 DUP2 LT ISZERO PUSH2 0x2839 JUMPI DUP1 CALLDATALOAD PUSH8 0xFFFFFFFFFFFFFFFF DUP2 GT ISZERO PUSH2 0x2817 JUMPI PUSH2 0x2816 PUSH2 0x25DD JUMP JUMPDEST JUMPDEST DUP1 DUP7 ADD PUSH2 0x2824 DUP10 DUP3 PUSH2 0x2740 JUMP JUMPDEST DUP6 MSTORE PUSH1 0x20 DUP6 ADD SWAP5 POP POP POP PUSH1 0x20 DUP2 ADD SWAP1 POP PUSH2 0x27F4 JUMP JUMPDEST POP POP POP SWAP4 SWAP3 POP POP POP JUMP JUMPDEST PUSH0 DUP3 PUSH1 0x1F DUP4 ADD SLT PUSH2 0x2857 JUMPI PUSH2 0x2856 PUSH2 0x25DD JUMP JUMPDEST JUMPDEST DUP2 CALLDATALOAD PUSH2 0x2867 DUP5 DUP3 PUSH1 0x20 DUP7 ADD PUSH2 0x27BD JUMP JUMPDEST SWAP2 POP POP SWAP3 SWAP2 POP POP JUMP JUMPDEST PUSH0 PUSH0 PUSH1 0x40 DUP4 DUP6 SUB SLT ISZERO PUSH2 0x2886 JUMPI PUSH2 0x2885 PUSH2 0x211B JUMP JUMPDEST JUMPDEST PUSH0 PUSH2 0x2893 DUP6 DUP3 DUP7 ADD PUSH2 0x2142 JUMP JUMPDEST SWAP3 POP POP PUSH1 0x20 DUP4 ADD CALLDATALOAD PUSH8 0xFFFFFFFFFFFFFFFF DUP2 GT ISZERO PUSH2 0x28B4 JUMPI PUSH2 0x28B3 PUSH2 0x211F JUMP JUMPDEST JUMPDEST PUSH2 0x28C0 DUP6 DUP3 DUP7 ADD PUSH2 0x2843 JUMP JUMPDEST SWAP2 POP POP SWAP3 POP SWAP3 SWAP1 POP JUMP JUMPDEST PUSH0 PUSH8 0xFFFFFFFFFFFFFFFF DUP3 GT ISZERO PUSH2 0x28E4 JUMPI PUSH2 0x28E3 PUSH2 0x25E1 JUMP JUMPDEST JUMPDEST PUSH1 0x20 DUP3 MUL SWAP1 POP PUSH1 0x20 DUP2 ADD SWAP1 POP SWAP2 SWAP1 POP JUMP JUMPDEST PUSH0 PUSH2 0x2907 PUSH2 0x2902 DUP5 PUSH2 0x28CA JUMP JUMPDEST PUSH2 0x263F JUMP JUMPDEST SWAP1 POP DUP1 DUP4 DUP3 MSTORE PUSH1 0x20 DUP3 ADD SWAP1 POP PUSH1 0x20 DUP5 MUL DUP4 ADD DUP6 DUP2 GT ISZERO PUSH2 0x292A JUMPI PUSH2 0x2929 PUSH2 0x2684 JUMP JUMPDEST JUMPDEST DUP4 JUMPDEST DUP2 DUP2 LT ISZERO PUSH2 0x2971 JUMPI DUP1 CALLDATALOAD PUSH8 0xFFFFFFFFFFFFFFFF DUP2 GT ISZERO PUSH2 0x294F JUMPI PUSH2 0x294E PUSH2 0x25DD JUMP JUMPDEST JUMPDEST DUP1 DUP7 ADD PUSH2 0x295C DUP10 DUP3 PUSH2 0x2713 JUMP JUMPDEST DUP6 MSTORE PUSH1 0x20 DUP6 ADD SWAP5 POP POP POP PUSH1 0x20 DUP2 ADD SWAP1 POP PUSH2 0x292C JUMP JUMPDEST POP POP POP SWAP4 SWAP3 POP POP POP JUMP JUMPDEST PUSH0 DUP3 PUSH1 0x1F DUP4 ADD SLT PUSH2 0x298F JUMPI PUSH2 0x298E PUSH2 0x25DD JUMP JUMPDEST JUMPDEST DUP2 CALLDATALOAD PUSH2 0x299F DUP5 DUP3 PUSH1 0x20 DUP7 ADD PUSH2 0x28F5 JUMP JUMPDEST SWAP2 POP POP SWAP3 SWAP2 POP POP JUMP JUMPDEST PUSH0 PUSH0 PUSH0 PUSH0 PUSH0 PUSH1 0xA0 DUP7 DUP9 SUB SLT ISZERO PUSH2 0x29C1 JUMPI PUSH2 0x29C0 PUSH2 0x211B JUMP JUMPDEST JUMPDEST PUSH0 PUSH2 0x29CE DUP9 DUP3 DUP10 ADD PUSH2 0x2142 JUMP JUMPDEST SWAP6 POP POP PUSH1 0x20 DUP7 ADD CALLDATALOAD PUSH8 0xFFFFFFFFFFFFFFFF DUP2 GT ISZERO PUSH2 0x29EF JUMPI PUSH2 0x29EE PUSH2 0x211F JUMP JUMPDEST JUMPDEST PUSH2 0x29FB DUP9 DUP3 DUP10 ADD PUSH2 0x2713 JUMP JUMPDEST SWAP5 POP POP PUSH1 0x40 DUP7 ADD CALLDATALOAD PUSH8 0xFFFFFFFFFFFFFFFF DUP2 GT ISZERO PUSH2 0x2A1C JUMPI PUSH2 0x2A1B PUSH2 0x211F JUMP JUMPDEST JUMPDEST PUSH2 0x2A28 DUP9 DUP3 DUP10 ADD PUSH2 0x2713 JUMP JUMPDEST SWAP4 POP POP PUSH1 0x60 PUSH2 0x2A39 DUP9 DUP3 DUP10 ADD PUSH2 0x2142 JUMP JUMPDEST SWAP3 POP POP PUSH1 0x80 DUP7 ADD CALLDATALOAD PUSH8 0xFFFFFFFFFFFFFFFF DUP2 GT ISZERO PUSH2 0x2A5A JUMPI PUSH2 0x2A59 PUSH2 0x211F JUMP JUMPDEST JUMPDEST PUSH2 0x2A66 DUP9 DUP3 DUP10 ADD PUSH2 0x297B JUMP JUMPDEST SWAP2 POP POP SWAP3 SWAP6 POP SWAP3 SWAP6 SWAP1 SWAP4 POP JUMP JUMPDEST PUSH2 0x2A7C DUP2 PUSH2 0x21C5 JUMP JUMPDEST DUP3 MSTORE POP POP JUMP JUMPDEST PUSH0 PUSH1 0x20 DUP3 ADD SWAP1 POP PUSH2 0x2A95 PUSH0 DUP4 ADD DUP5 PUSH2 0x2A73 JUMP JUMPDEST SWAP3 SWAP2 POP POP JUMP JUMPDEST PUSH0 DUP2 MLOAD SWAP1 POP SWAP2 SWAP1 POP JUMP JUMPDEST PUSH0 DUP3 DUP3 MSTORE PUSH1 0x20 DUP3 ADD SWAP1 POP SWAP3 SWAP2 POP POP JUMP JUMPDEST PUSH0 DUP2 SWAP1 POP PUSH1 0x20 DUP3 ADD SWAP1 POP SWAP2 SWAP1 POP JUMP JUMPDEST PUSH0 PUSH1 0x80 DUP4 ADD PUSH0 DUP4 ADD MLOAD PUSH2 0x2AD9 PUSH0 DUP7 ADD DUP3 PUSH2 0x227E JUMP JUMPDEST POP PUSH1 0x20 DUP4 ADD MLOAD DUP5 DUP3 SUB PUSH1 0x20 DUP7 ADD MSTORE PUSH2 0x2AF1 DUP3 DUP3 PUSH2 0x22C5 JUMP JUMPDEST SWAP2 POP POP PUSH1 0x40 DUP4 ADD MLOAD PUSH2 0x2B06 PUSH1 0x40 DUP7 ADD DUP3 PUSH2 0x227E JUMP JUMPDEST POP PUSH1 0x60 DUP4 ADD MLOAD PUSH2 0x2B19 PUSH1 0x60 DUP7 ADD DUP3 PUSH2 0x227E JUMP JUMPDEST POP DUP1 SWAP2 POP POP SWAP3 SWAP2 POP POP JUMP JUMPDEST PUSH0 PUSH2 0x2B2F DUP4 DUP4 PUSH2 0x2AC4 JUMP JUMPDEST SWAP1 POP SWAP3 SWAP2 POP POP JUMP JUMPDEST PUSH0 PUSH1 0x20 DUP3 ADD SWAP1 POP SWAP2 SWAP1 POP JUMP JUMPDEST PUSH0 PUSH2 0x2B4D DUP3 PUSH2 0x2A9B JUMP JUMPDEST PUSH2 0x2B57 DUP2 DUP6 PUSH2 0x2AA5 JUMP JUMPDEST SWAP4 POP DUP4 PUSH1 0x20 DUP3 MUL DUP6 ADD PUSH2 0x2B69 DUP6 PUSH2 0x2AB5 JUMP JUMPDEST DUP1 PUSH0 JUMPDEST DUP6 DUP2 LT ISZERO PUSH2 0x2BA4 JUMPI DUP5 DUP5 SUB DUP10 MSTORE DUP2 MLOAD PUSH2 0x2B85 DUP6 DUP3 PUSH2 0x2B24 JUMP JUMPDEST SWAP5 POP PUSH2 0x2B90 DUP4 PUSH2 0x2B37 JUMP JUMPDEST SWAP3 POP PUSH1 0x20 DUP11 ADD SWAP10 POP POP PUSH1 0x1 DUP2 ADD SWAP1 POP PUSH2 0x2B6C JUMP JUMPDEST POP DUP3 SWAP8 POP DUP8 SWAP6 POP POP POP POP POP POP SWAP3 SWAP2 POP POP JUMP JUMPDEST PUSH0 PUSH1 0x20 DUP3 ADD SWAP1 POP DUP2 DUP2 SUB PUSH0 DUP4 ADD MSTORE PUSH2 0x2BCE DUP2 DUP5 PUSH2 0x2B43 JUMP JUMPDEST SWAP1 POP SWAP3 SWAP2 POP POP JUMP JUMPDEST PUSH0 PUSH0 PUSH0 PUSH0 PUSH0 PUSH0 PUSH1 0xC0 DUP8 DUP10 SUB SLT ISZERO PUSH2 0x2BF0 JUMPI PUSH2 0x2BEF PUSH2 0x211B JUMP JUMPDEST JUMPDEST PUSH0 PUSH2 0x2BFD DUP10 DUP3 DUP11 ADD PUSH2 0x2142 JUMP JUMPDEST SWAP7 POP POP PUSH1 0x20 DUP8 ADD CALLDATALOAD PUSH8 0xFFFFFFFFFFFFFFFF DUP2 GT ISZERO PUSH2 0x2C1E JUMPI PUSH2 0x2C1D PUSH2 0x211F JUMP JUMPDEST JUMPDEST PUSH2 0x2C2A DUP10 DUP3 DUP11 ADD PUSH2 0x2713 JUMP JUMPDEST SWAP6 POP POP PUSH1 0x40 DUP8 ADD CALLDATALOAD PUSH8 0xFFFFFFFFFFFFFFFF DUP2 GT ISZERO PUSH2 0x2C4B JUMPI PUSH2 0x2C4A PUSH2 0x211F JUMP JUMPDEST JUMPDEST PUSH2 0x2C57 DUP10 DUP3 DUP11 ADD PUSH2 0x2713 JUMP JUMPDEST SWAP5 POP POP PUSH1 0x60 PUSH2 0x2C68 DUP10 DUP3 DUP11 ADD PUSH2 0x2142 JUMP JUMPDEST SWAP4 POP POP PUSH1 0x80 DUP8 ADD CALLDATALOAD PUSH8 0xFFFFFFFFFFFFFFFF DUP2 GT ISZERO PUSH2 0x2C89 JUMPI PUSH2 0x2C88 PUSH2 0x211F JUMP JUMPDEST JUMPDEST PUSH2 0x2C95 DUP10 DUP3 DUP11 ADD PUSH2 0x297B JUMP JUMPDEST SWAP3 POP POP PUSH1 0xA0 DUP8 ADD CALLDATALOAD PUSH8 0xFFFFFFFFFFFFFFFF DUP2 GT ISZERO PUSH2 0x2CB6 JUMPI PUSH2 0x2CB5 PUSH2 0x211F JUMP JUMPDEST JUMPDEST PUSH2 0x2CC2 DUP10 DUP3 DUP11 ADD PUSH2 0x2843 JUMP JUMPDEST SWAP2 POP POP SWAP3 SWAP6 POP SWAP3 SWAP6 POP SWAP3 SWAP6 JUMP JUMPDEST PUSH0 DUP2 MLOAD SWAP1 POP SWAP2 SWAP1 POP JUMP JUMPDEST PUSH0 DUP3 DUP3 MSTORE PUSH1 0x20 DUP3 ADD SWAP1 POP SWAP3 SWAP2 POP POP JUMP JUMPDEST PUSH0 DUP2 SWAP1 POP PUSH1 0x20 DUP3 ADD SWAP1 POP SWAP2 SWAP1 POP JUMP JUMPDEST PUSH0 PUSH2 0x100 DUP4 ADD PUSH0 DUP4 ADD MLOAD PUSH2 0x2D0E PUSH0 DUP7 ADD DUP3 PUSH2 0x227E JUMP JUMPDEST POP PUSH1 0x20 DUP4 ADD MLOAD DUP5 DUP3 SUB PUSH1 0x20 DUP7 ADD MSTORE PUSH2 0x2D26 DUP3 DUP3 PUSH2 0x22C5 JUMP JUMPDEST SWAP2 POP POP PUSH1 0x40 DUP4 ADD MLOAD DUP5 DUP3 SUB PUSH1 0x40 DUP7 ADD MSTORE PUSH2 0x2D40 DUP3 DUP3 PUSH2 0x22C5 JUMP JUMPDEST SWAP2 POP POP PUSH1 0x60 DUP4 ADD MLOAD PUSH2 0x2D55 PUSH1 0x60 DUP7 ADD DUP3 PUSH2 0x227E JUMP JUMPDEST POP PUSH1 0x80 DUP4 ADD MLOAD DUP5 DUP3 SUB PUSH1 0x80 DUP7 ADD MSTORE PUSH2 0x2D6D DUP3 DUP3 PUSH2 0x2345 JUMP JUMPDEST SWAP2 POP POP PUSH1 0xA0 DUP4 ADD MLOAD PUSH2 0x2D82 PUSH1 0xA0 DUP7 ADD DUP3 PUSH2 0x227E JUMP JUMPDEST POP PUSH1 0xC0 DUP4 ADD MLOAD PUSH2 0x2D95 PUSH1 0xC0 DUP7 ADD DUP3 PUSH2 0x227E JUMP JUMPDEST POP PUSH1 0xE0 DUP4 ADD MLOAD PUSH2 0x2DA8 PUSH1 0xE0 DUP7 ADD DUP3 PUSH2 0x227E JUMP JUMPDEST POP DUP1 SWAP2 POP POP SWAP3 SWAP2 POP POP JUMP JUMPDEST PUSH0 DUP3 DUP3 MSTORE PUSH1 0x20 DUP3 ADD SWAP1 POP SWAP3 SWAP2 POP POP JUMP JUMPDEST PUSH0 PUSH2 0x2DCD DUP3 PUSH2 0x2A9B JUMP JUMPDEST PUSH2 0x2DD7 DUP2 DUP6 PUSH2 0x2DB3 JUMP JUMPDEST SWAP4 POP DUP4 PUSH1 0x20 DUP3 MUL DUP6 ADD PUSH2 0x2DE9 DUP6 PUSH2 0x2AB5 JUMP JUMPDEST DUP1 PUSH0 JUMPDEST DUP6 DUP2 LT ISZERO PUSH2 0x2E24 JUMPI DUP5 DUP5 SUB DUP10 MSTORE DUP2 MLOAD PUSH2 0x2E05 DUP6 DUP3 PUSH2 0x2B24 JUMP JUMPDEST SWAP5 POP PUSH2 0x2E10 DUP4 PUSH2 0x2B37 JUMP JUMPDEST SWAP3 POP PUSH1 0x20 DUP11 ADD SWAP10 POP POP PUSH1 0x1 DUP2 ADD SWAP1 POP PUSH2 0x2DEC JUMP JUMPDEST POP DUP3 SWAP8 POP DUP8 SWAP6 POP POP POP POP POP POP SWAP3 SWAP2 POP POP JUMP JUMPDEST PUSH0 PUSH1 0x40 DUP4 ADD PUSH0 DUP4 ADD MLOAD DUP5 DUP3 SUB PUSH0 DUP7 ADD MSTORE PUSH2 0x2E50 DUP3 DUP3 PUSH2 0x2CF8 JUMP JUMPDEST SWAP2 POP POP PUSH1 0x20 DUP4 ADD MLOAD DUP5 DUP3 SUB PUSH1 0x20 DUP7 ADD MSTORE PUSH2 0x2E6A DUP3 DUP3 PUSH2 0x2DC3 JUMP JUMPDEST SWAP2 POP POP DUP1 SWAP2 POP POP SWAP3 SWAP2 POP POP JUMP JUMPDEST PUSH0 PUSH2 0x2E82 DUP4 DUP4 PUSH2 0x2E36 JUMP JUMPDEST SWAP1 POP SWAP3 SWAP2 POP POP JUMP JUMPDEST PUSH0 PUSH1 0x20 DUP3 ADD SWAP1 POP SWAP2 SWAP1 POP JUMP JUMPDEST PUSH0 PUSH2 0x2EA0 DUP3 PUSH2 0x2CCF JUMP JUMPDEST PUSH2 0x2EAA DUP2 DUP6 PUSH2 0x2CD9 JUMP JUMPDEST SWAP4 POP DUP4 PUSH1 0x20 DUP3 MUL DUP6 ADD PUSH2 0x2EBC DUP6 PUSH2 0x2CE9 JUMP JUMPDEST DUP1 PUSH0 JUMPDEST DUP6 DUP2 LT ISZERO PUSH2 0x2EF7 JUMPI DUP5 DUP5 SUB DUP10 MSTORE DUP2 MLOAD PUSH2 0x2ED8 DUP6 DUP3 PUSH2 0x2E77 JUMP JUMPDEST SWAP5 POP PUSH2 0x2EE3 DUP4 PUSH2 0x2E8A JUMP JUMPDEST SWAP3 POP PUSH1 0x20 DUP11 ADD SWAP10 POP POP PUSH1 0x1 DUP2 ADD SWAP1 POP PUSH2 0x2EBF JUMP JUMPDEST POP DUP3 SWAP8 POP DUP8 SWAP6 POP POP POP POP POP POP SWAP3 SWAP2 POP POP JUMP JUMPDEST PUSH0 PUSH1 0x20 DUP3 ADD SWAP1 POP DUP2 DUP2 SUB PUSH0 DUP4 ADD MSTORE PUSH2 0x2F21 DUP2 DUP5 PUSH2 0x2E96 JUMP JUMPDEST SWAP1 POP SWAP3 SWAP2 POP POP JUMP JUMPDEST PUSH0 PUSH0 PUSH0 PUSH1 0x60 DUP5 DUP7 SUB SLT ISZERO PUSH2 0x2F40 JUMPI PUSH2 0x2F3F PUSH2 0x211B JUMP JUMPDEST JUMPDEST PUSH0 PUSH2 0x2F4D DUP7 DUP3 DUP8 ADD PUSH2 0x2142 JUMP JUMPDEST SWAP4 POP POP PUSH1 0x20 PUSH2 0x2F5E DUP7 DUP3 DUP8 ADD PUSH2 0x2142 JUMP JUMPDEST SWAP3 POP POP PUSH1 0x40 DUP5 ADD CALLDATALOAD PUSH8 0xFFFFFFFFFFFFFFFF DUP2 GT ISZERO PUSH2 0x2F7F JUMPI PUSH2 0x2F7E PUSH2 0x211F JUMP JUMPDEST JUMPDEST PUSH2 0x2F8B DUP7 DUP3 DUP8 ADD PUSH2 0x2740 JUMP JUMPDEST SWAP2 POP POP SWAP3 POP SWAP3 POP SWAP3 JUMP JUMPDEST PUSH0 DUP2 SWAP1 POP SWAP2 SWAP1 POP JUMP JUMPDEST PUSH0 PUSH2 0x2FB8 PUSH2 0x2FB3 PUSH2 0x2FAE DUP5 PUSH2 0x21A6 JUMP JUMPDEST PUSH2 0x2F95 JUMP JUMPDEST PUSH2 0x21A6 JUMP JUMPDEST SWAP1 POP SWAP2 SWAP1 POP JUMP JUMPDEST PUSH0 PUSH2 0x2FC9 DUP3 PUSH2 0x2F9E JUMP JUMPDEST SWAP1 POP SWAP2 SWAP1 POP JUMP JUMPDEST PUSH0 PUSH2 0x2FDA DUP3 PUSH2 0x2FBF JUMP JUMPDEST SWAP1 POP SWAP2 SWAP1 POP JUMP JUMPDEST PUSH2 0x2FEA DUP2 PUSH2 0x2FD0 JUMP JUMPDEST DUP3 MSTORE POP POP JUMP JUMPDEST PUSH0 PUSH1 0x20 DUP3 ADD SWAP1 POP PUSH2 0x3003 PUSH0 DUP4 ADD DUP5 PUSH2 0x2FE1 JUMP JUMPDEST SWAP3 SWAP2 POP POP JUMP JUMPDEST PUSH32 0x4E487B7100000000000000000000000000000000000000000000000000000000 PUSH0 MSTORE PUSH1 0x32 PUSH1 0x4 MSTORE PUSH1 0x24 PUSH0 REVERT JUMPDEST PUSH32 0x4E487B7100000000000000000000000000000000000000000000000000000000 PUSH0 MSTORE PUSH1 0x11 PUSH1 0x4 MSTORE PUSH1 0x24 PUSH0 REVERT JUMPDEST PUSH0 PUSH2 0x306D DUP3 PUSH2 0x2123 JUMP JUMPDEST SWAP2 POP PUSH2 0x3078 DUP4 PUSH2 0x2123 JUMP JUMPDEST SWAP3 POP DUP3 DUP3 ADD SWAP1 POP DUP1 DUP3 GT ISZERO PUSH2 0x3090 JUMPI PUSH2 0x308F PUSH2 0x3036 JUMP JUMPDEST JUMPDEST SWAP3 SWAP2 POP POP JUMP JUMPDEST PUSH0 DUP3 DUP3 MSTORE PUSH1 0x20 DUP3 ADD SWAP1 POP SWAP3 SWAP2 POP POP JUMP JUMPDEST PUSH32 0x466F6F6420646F6573206E6F7420657869737400000000000000000000000000 PUSH0 DUP3 ADD MSTORE POP JUMP JUMPDEST PUSH0 PUSH2 0x30DA PUSH1 0x13 DUP4 PUSH2 0x3096 JUMP JUMPDEST SWAP2 POP PUSH2 0x30E5 DUP3 PUSH2 0x30A6 JUMP JUMPDEST PUSH1 0x20 DUP3 ADD SWAP1 POP SWAP2 SWAP1 POP JUMP JUMPDEST PUSH0 PUSH1 0x20 DUP3 ADD SWAP1 POP DUP2 DUP2 SUB PUSH0 DUP4 ADD MSTORE PUSH2 0x3107 DUP2 PUSH2 0x30CE JUMP JUMPDEST SWAP1 POP SWAP2 SWAP1 POP JUMP JUMPDEST PUSH32 0x4E487B7100000000000000000000000000000000000000000000000000000000 PUSH0 MSTORE PUSH1 0x22 PUSH1 0x4 MSTORE PUSH1 0x24 PUSH0 REVERT JUMPDEST PUSH0 PUSH1 0x2 DUP3 DIV SWAP1 POP PUSH1 0x1 DUP3 AND DUP1 PUSH2 0x3152 JUMPI PUSH1 0x7F DUP3 AND SWAP2 POP JUMPDEST PUSH1 0x20 DUP3 LT DUP2 SUB PUSH2 0x3165 JUMPI PUSH2 0x3164 PUSH2 0x310E JUMP JUMPDEST JUMPDEST POP SWAP2 SWAP1 POP JUMP JUMPDEST PUSH32 0x496E76616C696420666F6F644964000000000000000000000000000000000000 PUSH0 DUP3 ADD MSTORE POP JUMP JUMPDEST PUSH0 PUSH2 0x319F PUSH1 0xE DUP4 PUSH2 0x3096 JUMP JUMPDEST SWAP2 POP PUSH2 0x31AA DUP3 PUSH2 0x316B JUMP JUMPDEST PUSH1 0x20 DUP3 ADD SWAP1 POP SWAP2 SWAP1 POP JUMP JUMPDEST PUSH0 PUSH1 0x20 DUP3 ADD SWAP1 POP DUP2 DUP2 SUB PUSH0 DUP4 ADD MSTORE PUSH2 0x31CC DUP2 PUSH2 0x3193 JUMP JUMPDEST SWAP1 POP SWAP2 SWAP1 POP JUMP JUMPDEST PUSH32 0x466F6F6444657461696C206E6F7420666F756E64205F5F5F2E00000000000000 PUSH0 DUP3 ADD MSTORE POP JUMP JUMPDEST PUSH0 PUSH2 0x3207 PUSH1 0x19 DUP4 PUSH2 0x3096 JUMP JUMPDEST SWAP2 POP PUSH2 0x3212 DUP3 PUSH2 0x31D3 JUMP JUMPDEST PUSH1 0x20 DUP3 ADD SWAP1 POP SWAP2 SWAP1 POP JUMP JUMPDEST PUSH0 PUSH1 0x20 DUP3 ADD SWAP1 POP DUP2 DUP2 SUB PUSH0 DUP4 ADD MSTORE PUSH2 0x3234 DUP2 PUSH2 0x31FB JUMP JUMPDEST SWAP1 POP SWAP2 SWAP1 POP JUMP JUMPDEST PUSH0 PUSH2 0x3245 DUP3 PUSH2 0x2123 JUMP JUMPDEST SWAP2 POP PUSH2 0x3250 DUP4 PUSH2 0x2123 JUMP JUMPDEST SWAP3 POP DUP3 DUP3 SUB SWAP1 POP DUP2 DUP2 GT ISZERO PUSH2 0x3268 JUMPI PUSH2 0x3267 PUSH2 0x3036 JUMP JUMPDEST JUMPDEST SWAP3 SWAP2 POP POP JUMP JUMPDEST PUSH0 DUP2 SWAP1 POP DUP2 PUSH0 MSTORE PUSH1 0x20 PUSH0 KECCAK256 SWAP1 POP SWAP2 SWAP1 POP JUMP JUMPDEST PUSH0 PUSH1 0x20 PUSH1 0x1F DUP4 ADD DIV SWAP1 POP SWAP2 SWAP1 POP JUMP JUMPDEST PUSH0 DUP3 DUP3 SHL SWAP1 POP SWAP3 SWAP2 POP POP JUMP JUMPDEST PUSH0 PUSH1 0x8 DUP4 MUL PUSH2 0x32CA PUSH32 0xFFFFFFFFFFFFFFFFFFFFFFFFFFFFFFFFFFFFFFFFFFFFFFFFFFFFFFFFFFFFFFFF DUP3 PUSH2 0x328F JUMP JUMPDEST PUSH2 0x32D4 DUP7 DUP4 PUSH2 0x328F JUMP JUMPDEST SWAP6 POP DUP1 NOT DUP5 AND SWAP4 POP DUP1 DUP7 AND DUP5 OR SWAP3 POP POP POP SWAP4 SWAP3 POP POP POP JUMP JUMPDEST PUSH0 PUSH2 0x3306 PUSH2 0x3301 PUSH2 0x32FC DUP5 PUSH2 0x2123 JUMP JUMPDEST PUSH2 0x2F95 JUMP JUMPDEST PUSH2 0x2123 JUMP JUMPDEST SWAP1 POP SWAP2 SWAP1 POP JUMP JUMPDEST PUSH0 DUP2 SWAP1 POP SWAP2 SWAP1 POP JUMP JUMPDEST PUSH2 0x331F DUP4 PUSH2 0x32EC JUMP JUMPDEST PUSH2 0x3333 PUSH2 0x332B DUP3 PUSH2 0x330D JUMP JUMPDEST DUP5 DUP5 SLOAD PUSH2 0x329B JUMP JUMPDEST DUP3 SSTORE POP POP POP POP JUMP JUMPDEST PUSH0 PUSH0 SWAP1 POP SWAP1 JUMP JUMPDEST PUSH2 0x334A PUSH2 0x333B JUMP JUMPDEST PUSH2 0x3355 DUP2 DUP5 DUP5 PUSH2 0x3316 JUMP JUMPDEST POP POP POP JUMP JUMPDEST JUMPDEST DUP2 DUP2 LT ISZERO PUSH2 0x3378 JUMPI PUSH2 0x336D PUSH0 DUP3 PUSH2 0x3342 JUMP JUMPDEST PUSH1 0x1 DUP2 ADD SWAP1 POP PUSH2 0x335B JUMP JUMPDEST POP POP JUMP JUMPDEST PUSH1 0x1F DUP3 GT ISZERO PUSH2 0x33BD JUMPI PUSH2 0x338E DUP2 PUSH2 0x326E JUMP JUMPDEST PUSH2 0x3397 DUP5 PUSH2 0x3280 JUMP JUMPDEST DUP2 ADD PUSH1 0x20 DUP6 LT ISZERO PUSH2 0x33A6 JUMPI DUP2 SWAP1 POP JUMPDEST PUSH2 0x33BA PUSH2 0x33B2 DUP6 PUSH2 0x3280 JUMP JUMPDEST DUP4 ADD DUP3 PUSH2 0x335A JUMP JUMPDEST POP POP JUMPDEST POP POP POP JUMP JUMPDEST PUSH0 DUP3 DUP3 SHR SWAP1 POP SWAP3 SWAP2 POP POP JUMP JUMPDEST PUSH0 PUSH2 0x33DD PUSH0 NOT DUP5 PUSH1 0x8 MUL PUSH2 0x33C2 JUMP JUMPDEST NOT DUP1 DUP4 AND SWAP2 POP POP SWAP3 SWAP2 POP POP JUMP JUMPDEST PUSH0 PUSH2 0x33F5 DUP4 DUP4 PUSH2 0x33CE JUMP JUMPDEST SWAP2 POP DUP3 PUSH1 0x2 MUL DUP3 OR SWAP1 POP SWAP3 SWAP2 POP POP JUMP JUMPDEST PUSH2 0x340E DUP3 PUSH2 0x228D JUMP JUMPDEST PUSH8 0xFFFFFFFFFFFFFFFF DUP2 GT ISZERO PUSH2 0x3427 JUMPI PUSH2 0x3426 PUSH2 0x25E1 JUMP JUMPDEST JUMPDEST PUSH2 0x3431 DUP3 SLOAD PUSH2 0x313B JUMP JUMPDEST PUSH2 0x343C DUP3 DUP3 DUP6 PUSH2 0x337C JUMP JUMPDEST PUSH0 PUSH1 0x20 SWAP1 POP PUSH1 0x1F DUP4 GT PUSH1 0x1 DUP2 EQ PUSH2 0x346D JUMPI PUSH0 DUP5 ISZERO PUSH2 0x345B JUMPI DUP3 DUP8 ADD MLOAD SWAP1 POP JUMPDEST PUSH2 0x3465 DUP6 DUP3 PUSH2 0x33EA JUMP JUMPDEST DUP7 SSTORE POP PUSH2 0x34CC JUMP JUMPDEST PUSH1 0x1F NOT DUP5 AND PUSH2 0x347B DUP7 PUSH2 0x326E JUMP JUMPDEST PUSH0 JUMPDEST DUP3 DUP2 LT ISZERO PUSH2 0x34A2 JUMPI DUP5 DUP10 ADD MLOAD DUP3 SSTORE PUSH1 0x1 DUP3 ADD SWAP2 POP PUSH1 0x20 DUP6 ADD SWAP5 POP PUSH1 0x20 DUP2 ADD SWAP1 POP PUSH2 0x347D JUMP JUMPDEST DUP7 DUP4 LT ISZERO PUSH2 0x34BF JUMPI DUP5 DUP10 ADD MLOAD PUSH2 0x34BB PUSH1 0x1F DUP10 AND DUP3 PUSH2 0x33CE JUMP JUMPDEST DUP4 SSTORE POP JUMPDEST PUSH1 0x1 PUSH1 0x2 DUP9 MUL ADD DUP9 SSTORE POP POP POP JUMPDEST POP POP POP POP POP POP JUMP JUMPDEST PUSH32 0x4E487B7100000000000000000000000000000000000000000000000000000000 PUSH0 MSTORE PUSH1 0x31 PUSH1 0x4 MSTORE PUSH1 0x24 PUSH0 REVERT JUMPDEST PUSH0 PUSH1 0x40 DUP3 ADD SWAP1 POP PUSH2 0x3514 PUSH0 DUP4 ADD DUP6 PUSH2 0x222B JUMP JUMPDEST PUSH2 0x3521 PUSH1 0x20 DUP4 ADD DUP5 PUSH2 0x222B JUMP JUMPDEST SWAP4 SWAP3 POP POP POP JUMP JUMPDEST PUSH32 0x466F6F6444657461696C20646F6573206E6F7420657869737400000000000000 PUSH0 DUP3 ADD MSTORE POP JUMP JUMPDEST PUSH0 PUSH2 0x355C PUSH1 0x19 DUP4 PUSH2 0x3096 JUMP JUMPDEST SWAP2 POP PUSH2 0x3567 DUP3 PUSH2 0x3528 JUMP JUMPDEST PUSH1 0x20 DUP3 ADD SWAP1 POP SWAP2 SWAP1 POP JUMP JUMPDEST PUSH0 PUSH1 0x20 DUP3 ADD SWAP1 POP DUP2 DUP2 SUB PUSH0 DUP4 ADD MSTORE PUSH2 0x3589 DUP2 PUSH2 0x3550 JUMP JUMPDEST SWAP1 POP SWAP2 SWAP1 POP JUMP JUMPDEST PUSH0 PUSH2 0x359A DUP3 PUSH2 0x2123 JUMP JUMPDEST SWAP2 POP PUSH32 0xFFFFFFFFFFFFFFFFFFFFFFFFFFFFFFFFFFFFFFFFFFFFFFFFFFFFFFFFFFFFFFFF DUP3 SUB PUSH2 0x35CC JUMPI PUSH2 0x35CB PUSH2 0x3036 JUMP JUMPDEST JUMPDEST PUSH1 0x1 DUP3 ADD SWAP1 POP SWAP2 SWAP1 POP JUMP JUMPDEST PUSH0 DUP2 MLOAD SWAP1 POP PUSH2 0x35E5 DUP2 PUSH2 0x212C JUMP JUMPDEST SWAP3 SWAP2 POP POP JUMP JUMPDEST PUSH0 PUSH2 0x35FD PUSH2 0x35F8 DUP5 PUSH2 0x2694 JUMP JUMPDEST PUSH2 0x263F JUMP JUMPDEST SWAP1 POP DUP3 DUP2 MSTORE PUSH1 0x20 DUP2 ADD DUP5 DUP5 DUP5 ADD GT ISZERO PUSH2 0x3619 JUMPI PUSH2 0x3618 PUSH2 0x2690 JUMP JUMPDEST JUMPDEST PUSH2 0x3624 DUP5 DUP3 DUP6 PUSH2 0x22A7 JUMP JUMPDEST POP SWAP4 SWAP3 POP POP POP JUMP JUMPDEST PUSH0 DUP3 PUSH1 0x1F DUP4 ADD SLT PUSH2 0x3640 JUMPI PUSH2 0x363F PUSH2 0x25DD JUMP JUMPDEST JUMPDEST DUP2 MLOAD PUSH2 0x3650 DUP5 DUP3 PUSH1 0x20 DUP7 ADD PUSH2 0x35EB JUMP JUMPDEST SWAP2 POP POP SWAP3 SWAP2 POP POP JUMP JUMPDEST PUSH0 PUSH1 0x40 DUP3 DUP5 SUB SLT ISZERO PUSH2 0x366E JUMPI PUSH2 0x366D PUSH2 0x2688 JUMP JUMPDEST JUMPDEST PUSH2 0x3678 PUSH1 0x40 PUSH2 0x263F JUMP JUMPDEST SWAP1 POP PUSH0 PUSH2 0x3687 DUP5 DUP3 DUP6 ADD PUSH2 0x35D7 JUMP JUMPDEST PUSH0 DUP4 ADD MSTORE POP PUSH1 0x20 DUP3 ADD MLOAD PUSH8 0xFFFFFFFFFFFFFFFF DUP2 GT ISZERO PUSH2 0x36AA JUMPI PUSH2 0x36A9 PUSH2 0x268C JUMP JUMPDEST JUMPDEST PUSH2 0x36B6 DUP5 DUP3 DUP6 ADD PUSH2 0x362C JUMP JUMPDEST PUSH1 0x20 DUP4 ADD MSTORE POP SWAP3 SWAP2 POP POP JUMP JUMPDEST PUSH0 PUSH1 0x20 DUP3 DUP5 SUB SLT ISZERO PUSH2 0x36D7 JUMPI PUSH2 0x36D6 PUSH2 0x211B JUMP JUMPDEST JUMPDEST PUSH0 DUP3 ADD MLOAD PUSH8 0xFFFFFFFFFFFFFFFF DUP2 GT ISZERO PUSH2 0x36F4 JUMPI PUSH2 0x36F3 PUSH2 0x211F JUMP JUMPDEST JUMPDEST PUSH2 0x3700 DUP5 DUP3 DUP6 ADD PUSH2 0x3659 JUMP JUMPDEST SWAP2 POP POP SWAP3 SWAP2 POP POP JUMP JUMPDEST PUSH32 0x43617465676F727920646F6573206E6F74206578697374000000000000000000 PUSH0 DUP3 ADD MSTORE POP JUMP JUMPDEST PUSH0 PUSH2 0x373D PUSH1 0x17 DUP4 PUSH2 0x3096 JUMP JUMPDEST SWAP2 POP PUSH2 0x3748 DUP3 PUSH2 0x3709 JUMP JUMPDEST PUSH1 0x20 DUP3 ADD SWAP1 POP SWAP2 SWAP1 POP JUMP JUMPDEST PUSH0 PUSH1 0x20 DUP3 ADD SWAP1 POP DUP2 DUP2 SUB PUSH0 DUP4 ADD MSTORE PUSH2 0x376A DUP2 PUSH2 0x3731 JUMP JUMPDEST SWAP1 POP SWAP2 SWAP1 POP JUMP JUMPDEST PUSH0 PUSH2 0x377B DUP3 PUSH2 0x228D JUMP JUMPDEST PUSH2 0x3785 DUP2 DUP6 PUSH2 0x3096 JUMP JUMPDEST SWAP4 POP PUSH2 0x3795 DUP2 DUP6 PUSH1 0x20 DUP7 ADD PUSH2 0x22A7 JUMP JUMPDEST PUSH2 0x379E DUP2 PUSH2 0x22B5 JUMP JUMPDEST DUP5 ADD SWAP2 POP POP SWAP3 SWAP2 POP POP JUMP JUMPDEST PUSH0 DUP3 DUP3 MSTORE PUSH1 0x20 DUP3 ADD SWAP1 POP SWAP3 SWAP2 POP POP JUMP JUMPDEST PUSH0 PUSH2 0x37C3 DUP3 PUSH2 0x22FD JUMP JUMPDEST PUSH2 0x37CD DUP2 DUP6 PUSH2 0x37A9 JUMP JUMPDEST SWAP4 POP DUP4 PUSH1 0x20 DUP3 MUL DUP6 ADD PUSH2 0x37DF DUP6 PUSH2 0x2317 JUMP JUMPDEST DUP1 PUSH0 JUMPDEST DUP6 DUP2 LT ISZERO PUSH2 0x381A JUMPI DUP5 DUP5 SUB DUP10 MSTORE DUP2 MLOAD PUSH2 0x37FB DUP6 DUP3 PUSH2 0x2326 JUMP JUMPDEST SWAP5 POP PUSH2 0x3806 DUP4 PUSH2 0x2339 JUMP JUMPDEST SWAP3 POP PUSH1 0x20 DUP11 ADD SWAP10 POP POP PUSH1 0x1 DUP2 ADD SWAP1 POP PUSH2 0x37E2 JUMP JUMPDEST POP DUP3 SWAP8 POP DUP8 SWAP6 POP POP POP POP POP POP SWAP3 SWAP2 POP POP JUMP JUMPDEST PUSH0 PUSH1 0xA0 DUP3 ADD SWAP1 POP PUSH2 0x383F PUSH0 DUP4 ADD DUP9 PUSH2 0x222B JUMP JUMPDEST DUP2 DUP2 SUB PUSH1 0x20 DUP4 ADD MSTORE PUSH2 0x3851 DUP2 DUP8 PUSH2 0x3771 JUMP JUMPDEST SWAP1 POP DUP2 DUP2 SUB PUSH1 0x40 DUP4 ADD MSTORE PUSH2 0x3865 DUP2 DUP7 PUSH2 0x3771 JUMP JUMPDEST SWAP1 POP PUSH2 0x3874 PUSH1 0x60 DUP4 ADD DUP6 PUSH2 0x222B JUMP JUMPDEST DUP2 DUP2 SUB PUSH1 0x80 DUP4 ADD MSTORE PUSH2 0x3886 DUP2 DUP5 PUSH2 0x37B9 JUMP JUMPDEST SWAP1 POP SWAP7 SWAP6 POP POP POP POP POP POP JUMP JUMPDEST PUSH32 0x5175616E74697479277320666F6F642063616E6E6F7420626520736D616C6C65 PUSH0 DUP3 ADD MSTORE PUSH32 0x72207468616E2030000000000000000000000000000000000000000000000000 PUSH1 0x20 DUP3 ADD MSTORE POP JUMP JUMPDEST PUSH0 PUSH2 0x38EC PUSH1 0x28 DUP4 PUSH2 0x3096 JUMP JUMPDEST SWAP2 POP PUSH2 0x38F7 DUP3 PUSH2 0x3892 JUMP JUMPDEST PUSH1 0x40 DUP3 ADD SWAP1 POP SWAP2 SWAP1 POP JUMP JUMPDEST PUSH0 PUSH1 0x20 DUP3 ADD SWAP1 POP DUP2 DUP2 SUB PUSH0 DUP4 ADD MSTORE PUSH2 0x3919 DUP2 PUSH2 0x38E0 JUMP JUMPDEST SWAP1 POP SWAP2 SWAP1 POP JUMP JUMPDEST PUSH32 0x466F6F642077697468207468697320494420616C726561647920657869737473 PUSH0 DUP3 ADD MSTORE POP JUMP JUMPDEST PUSH0 PUSH2 0x3954 PUSH1 0x20 DUP4 PUSH2 0x3096 JUMP JUMPDEST SWAP2 POP PUSH2 0x395F DUP3 PUSH2 0x3920 JUMP JUMPDEST PUSH1 0x20 DUP3 ADD SWAP1 POP SWAP2 SWAP1 POP JUMP JUMPDEST PUSH0 PUSH1 0x20 DUP3 ADD SWAP1 POP DUP2 DUP2 SUB PUSH0 DUP4 ADD MSTORE PUSH2 0x3981 DUP2 PUSH2 0x3948 JUMP JUMPDEST SWAP1 POP SWAP2 SWAP1 POP JUMP INVALID LOG2 PUSH5 0x6970667358 0x22 SLT KECCAK256 DUP12 0x22 EXTSTATICCALL SWAP11 RETURNDATACOPY PUSH14 0x54EB5A43706C446DB70DCAC1C6AA 0xCD 0xB8 DUP13 PUSH21 0xB8457088D1F37F8964736F6C634300081E00330000 "
				},
				"gasEstimates": {
					"creation": {
						"codeDepositCost": "2956400",
						"executionCost": "infinite",
						"totalCost": "infinite"
					},
					"external": {
						"addAdmin(address)": "24868",
						"addFoodDetails(uint256,(string,uint256,uint256)[])": "infinite",
						"categoryManager()": "infinite",
						"createFood(uint256,string,string,uint256,string[],(string,uint256,uint256)[])": "infinite",
						"deleteFood(uint256)": "infinite",
						"deleteFoodDetail(uint256,uint256)": "infinite",
						"getAllFoods()": "infinite",
						"getFood(uint256)": "infinite",
						"getFoodDetailByFoodId_FoodDetailId(uint256,uint256)": "infinite",
						"getFoodDetails(uint256)": "infinite",
						"getOwner()": "2581",
						"increaseQuantiy(uint256,uint256,uint256)": "infinite",
						"isAdmin(address)": "2966",
						"nextFoodDetailId()": "2515",
						"nextFoodId()": "2493",
						"reduceQuantiy(uint256,uint256,uint256)": "infinite",
						"removeAdmin(address)": "24868",
						"updateFood(uint256,string,string,uint256,string[])": "infinite",
						"updateFoodDetail(uint256,uint256,(string,uint256,uint256))": "infinite"
					}
				},
				"methodIdentifiers": {
					"addAdmin(address)": "70480275",
					"addFoodDetails(uint256,(string,uint256,uint256)[])": "64f77471",
					"categoryManager()": "d86ec238",
					"createFood(uint256,string,string,uint256,string[],(string,uint256,uint256)[])": "b447aaae",
					"deleteFood(uint256)": "d198b650",
					"deleteFoodDetail(uint256,uint256)": "4d30a39b",
					"getAllFoods()": "b9b5aae6",
					"getFood(uint256)": "1e4de872",
					"getFoodDetailByFoodId_FoodDetailId(uint256,uint256)": "35085515",
					"getFoodDetails(uint256)": "af5607f9",
					"getOwner()": "893d20e8",
					"increaseQuantiy(uint256,uint256,uint256)": "094b9a53",
					"isAdmin(address)": "24d7806c",
					"nextFoodDetailId()": "1b0d77cc",
					"nextFoodId()": "1945ef58",
					"reduceQuantiy(uint256,uint256,uint256)": "9a69bfa6",
					"removeAdmin(address)": "1785f53c",
					"updateFood(uint256,string,string,uint256,string[])": "6dd2dd88",
					"updateFoodDetail(uint256,uint256,(string,uint256,uint256))": "baf85306"
				}
			},
			"storageLayout": {
				"storage": [
					{
						"astId": 3,
						"contract": "contracts/manager/FoodManager.sol:FoodManager",
						"label": "owner",
						"offset": 0,
						"slot": "0",
						"type": "t_address"
					},
					{
						"astId": 12,
						"contract": "contracts/manager/FoodManager.sol:FoodManager",
						"label": "isAdmin",
						"offset": 0,
						"slot": "1",
						"type": "t_mapping(t_address,t_enum(Role)7)"
					},
					{
						"astId": 322,
						"contract": "contracts/manager/FoodManager.sol:FoodManager",
						"label": "categoryManager",
						"offset": 0,
						"slot": "2",
						"type": "t_contract(ICategoryManager)144"
					},
					{
						"astId": 325,
						"contract": "contracts/manager/FoodManager.sol:FoodManager",
						"label": "nextFoodId",
						"offset": 0,
						"slot": "3",
						"type": "t_uint256"
					},
					{
						"astId": 328,
						"contract": "contracts/manager/FoodManager.sol:FoodManager",
						"label": "nextFoodDetailId",
						"offset": 0,
						"slot": "4",
						"type": "t_uint256"
					},
					{
						"astId": 333,
						"contract": "contracts/manager/FoodManager.sol:FoodManager",
						"label": "foods",
						"offset": 0,
						"slot": "5",
						"type": "t_mapping(t_uint256,t_struct(Food)1168_storage)"
					},
					{
						"astId": 339,
						"contract": "contracts/manager/FoodManager.sol:FoodManager",
						"label": "foodDetails",
						"offset": 0,
						"slot": "6",
						"type": "t_mapping(t_uint256,t_array(t_struct(FoodDetail)1177_storage)dyn_storage)"
					},
					{
						"astId": 342,
						"contract": "contracts/manager/FoodManager.sol:FoodManager",
						"label": "foodIds",
						"offset": 0,
						"slot": "7",
						"type": "t_array(t_uint256)dyn_storage"
					}
				],
				"types": {
					"t_address": {
						"encoding": "inplace",
						"label": "address",
						"numberOfBytes": "20"
					},
					"t_array(t_string_storage)dyn_storage": {
						"base": "t_string_storage",
						"encoding": "dynamic_array",
						"label": "string[]",
						"numberOfBytes": "32"
					},
					"t_array(t_struct(FoodDetail)1177_storage)dyn_storage": {
						"base": "t_struct(FoodDetail)1177_storage",
						"encoding": "dynamic_array",
						"label": "struct FoodDetail[]",
						"numberOfBytes": "32"
					},
					"t_array(t_uint256)dyn_storage": {
						"base": "t_uint256",
						"encoding": "dynamic_array",
						"label": "uint256[]",
						"numberOfBytes": "32"
					},
					"t_contract(ICategoryManager)144": {
						"encoding": "inplace",
						"label": "contract ICategoryManager",
						"numberOfBytes": "20"
					},
					"t_enum(Role)7": {
						"encoding": "inplace",
						"label": "enum RoleAccess.Role",
						"numberOfBytes": "1"
					},
					"t_mapping(t_address,t_enum(Role)7)": {
						"encoding": "mapping",
						"key": "t_address",
						"label": "mapping(address => enum RoleAccess.Role)",
						"numberOfBytes": "32",
						"value": "t_enum(Role)7"
					},
					"t_mapping(t_uint256,t_array(t_struct(FoodDetail)1177_storage)dyn_storage)": {
						"encoding": "mapping",
						"key": "t_uint256",
						"label": "mapping(uint256 => struct FoodDetail[])",
						"numberOfBytes": "32",
						"value": "t_array(t_struct(FoodDetail)1177_storage)dyn_storage"
					},
					"t_mapping(t_uint256,t_struct(Food)1168_storage)": {
						"encoding": "mapping",
						"key": "t_uint256",
						"label": "mapping(uint256 => struct Food)",
						"numberOfBytes": "32",
						"value": "t_struct(Food)1168_storage"
					},
					"t_string_storage": {
						"encoding": "bytes",
						"label": "string",
						"numberOfBytes": "32"
					},
					"t_struct(Food)1168_storage": {
						"encoding": "inplace",
						"label": "struct Food",
						"members": [
							{
								"astId": 1152,
								"contract": "contracts/manager/FoodManager.sol:FoodManager",
								"label": "foodId",
								"offset": 0,
								"slot": "0",
								"type": "t_uint256"
							},
							{
								"astId": 1154,
								"contract": "contracts/manager/FoodManager.sol:FoodManager",
								"label": "name",
								"offset": 0,
								"slot": "1",
								"type": "t_string_storage"
							},
							{
								"astId": 1156,
								"contract": "contracts/manager/FoodManager.sol:FoodManager",
								"label": "description",
								"offset": 0,
								"slot": "2",
								"type": "t_string_storage"
							},
							{
								"astId": 1158,
								"contract": "contracts/manager/FoodManager.sol:FoodManager",
								"label": "categoryId",
								"offset": 0,
								"slot": "3",
								"type": "t_uint256"
							},
							{
								"astId": 1161,
								"contract": "contracts/manager/FoodManager.sol:FoodManager",
								"label": "imageUrl",
								"offset": 0,
								"slot": "4",
								"type": "t_array(t_string_storage)dyn_storage"
							},
							{
								"astId": 1163,
								"contract": "contracts/manager/FoodManager.sol:FoodManager",
								"label": "soldQuantity",
								"offset": 0,
								"slot": "5",
								"type": "t_uint256"
							},
							{
								"astId": 1165,
								"contract": "contracts/manager/FoodManager.sol:FoodManager",
								"label": "sumRating",
								"offset": 0,
								"slot": "6",
								"type": "t_uint256"
							},
							{
								"astId": 1167,
								"contract": "contracts/manager/FoodManager.sol:FoodManager",
								"label": "countRating",
								"offset": 0,
								"slot": "7",
								"type": "t_uint256"
							}
						],
						"numberOfBytes": "256"
					},
					"t_struct(FoodDetail)1177_storage": {
						"encoding": "inplace",
						"label": "struct FoodDetail",
						"members": [
							{
								"astId": 1170,
								"contract": "contracts/manager/FoodManager.sol:FoodManager",
								"label": "foodDetailId",
								"offset": 0,
								"slot": "0",
								"type": "t_uint256"
							},
							{
								"astId": 1172,
								"contract": "contracts/manager/FoodManager.sol:FoodManager",
								"label": "size",
								"offset": 0,
								"slot": "1",
								"type": "t_string_storage"
							},
							{
								"astId": 1174,
								"contract": "contracts/manager/FoodManager.sol:FoodManager",
								"label": "quantity",
								"offset": 0,
								"slot": "2",
								"type": "t_uint256"
							},
							{
								"astId": 1176,
								"contract": "contracts/manager/FoodManager.sol:FoodManager",
								"label": "price",
								"offset": 0,
								"slot": "3",
								"type": "t_uint256"
							}
						],
						"numberOfBytes": "128"
					},
					"t_uint256": {
						"encoding": "inplace",
						"label": "uint256",
						"numberOfBytes": "32"
					}
				}
			},
			"userdoc": {
				"kind": "user",
				"methods": {},
				"version": 1
			}
		}
	}
}