{
	"contracts/access/RoleAccess.sol": {
		"RoleAccess": {
			"abi": [
				{
					"inputs": [],
					"stateMutability": "nonpayable",
					"type": "constructor"
				},
				{
					"anonymous": false,
					"inputs": [
						{
							"indexed": true,
							"internalType": "address",
							"name": "account",
							"type": "address"
						},
						{
							"indexed": false,
							"internalType": "string",
							"name": "roleName",
							"type": "string"
						},
						{
							"indexed": false,
							"internalType": "enum RoleType",
							"name": "roleType",
							"type": "uint8"
						}
					],
					"name": "RoleAssigned",
					"type": "event"
				},
				{
					"anonymous": false,
					"inputs": [
						{
							"indexed": true,
							"internalType": "address",
							"name": "account",
							"type": "address"
						}
					],
					"name": "RoleRevoked",
					"type": "event"
				},
				{
					"anonymous": false,
					"inputs": [
						{
							"indexed": true,
							"internalType": "address",
							"name": "account",
							"type": "address"
						},
						{
							"indexed": false,
							"internalType": "string",
							"name": "roleName",
							"type": "string"
						},
						{
							"indexed": false,
							"internalType": "enum RoleType",
							"name": "roleType",
							"type": "uint8"
						}
					],
					"name": "RoleUpdated",
					"type": "event"
				},
				{
					"inputs": [
						{
							"internalType": "address",
							"name": "account",
							"type": "address"
						},
						{
							"internalType": "uint256",
							"name": "roleId",
							"type": "uint256"
						}
					],
					"name": "assignRole",
					"outputs": [],
					"stateMutability": "nonpayable",
					"type": "function"
				},
				{
					"inputs": [],
					"name": "getAllRoles",
					"outputs": [
						{
							"components": [
								{
									"internalType": "uint256",
									"name": "roleId",
									"type": "uint256"
								},
								{
									"internalType": "enum RoleType",
									"name": "role",
									"type": "uint8"
								},
								{
									"internalType": "string",
									"name": "name",
									"type": "string"
								}
							],
							"internalType": "struct Role[]",
							"name": "",
							"type": "tuple[]"
						}
					],
					"stateMutability": "view",
					"type": "function"
				},
				{
					"inputs": [],
					"name": "getOwner",
					"outputs": [
						{
							"internalType": "address",
							"name": "",
							"type": "address"
						}
					],
					"stateMutability": "view",
					"type": "function"
				},
				{
					"inputs": [
						{
							"internalType": "address",
							"name": "account",
							"type": "address"
						}
					],
					"name": "getUserRole",
					"outputs": [
						{
							"components": [
								{
									"internalType": "uint256",
									"name": "roleId",
									"type": "uint256"
								},
								{
									"internalType": "enum RoleType",
									"name": "role",
									"type": "uint8"
								},
								{
									"internalType": "string",
									"name": "name",
									"type": "string"
								}
							],
							"internalType": "struct Role",
							"name": "",
							"type": "tuple"
						}
					],
					"stateMutability": "view",
					"type": "function"
				},
				{
					"inputs": [
						{
							"internalType": "address",
							"name": "account",
							"type": "address"
						},
						{
							"internalType": "enum RoleType",
							"name": "roleType",
							"type": "uint8"
						}
					],
					"name": "hasRole",
					"outputs": [
						{
							"internalType": "bool",
							"name": "",
							"type": "bool"
						}
					],
					"stateMutability": "view",
					"type": "function"
				},
				{
					"inputs": [],
					"name": "owner",
					"outputs": [
						{
							"internalType": "address",
							"name": "",
							"type": "address"
						}
					],
					"stateMutability": "view",
					"type": "function"
				},
				{
					"inputs": [
						{
							"internalType": "address",
							"name": "account",
							"type": "address"
						}
					],
					"name": "revokeRole",
					"outputs": [],
					"stateMutability": "nonpayable",
					"type": "function"
				}
			],
			"devdoc": {
				"kind": "dev",
				"methods": {},
				"version": 1
			},
			"evm": {
				"assembly": "    /* \"contracts/access/RoleAccess.sol\":94:2734  contract RoleAccess {... */\n  mstore(0x40, 0x80)\n    /* \"contracts/access/RoleAccess.sol\":637:884  constructor() {... */\n  callvalue\n  dup1\n  iszero\n  tag_1\n  jumpi\n  revert(0x00, 0x00)\ntag_1:\n  pop\n    /* \"contracts/access/RoleAccess.sol\":669:679  msg.sender */\n  caller\n    /* \"contracts/access/RoleAccess.sol\":661:666  owner */\n  0x00\n  0x00\n    /* \"contracts/access/RoleAccess.sol\":661:679  owner = msg.sender */\n  0x0100\n  exp\n  dup2\n  sload\n  dup2\n  0xffffffffffffffffffffffffffffffffffffffff\n  mul\n  not\n  and\n  swap1\n  dup4\n  0xffffffffffffffffffffffffffffffffffffffff\n  and\n  mul\n  or\n  swap1\n  sstore\n  pop\n    /* \"contracts/access/RoleAccess.sol\":732:772  Role(1, RoleType.ADMIN, \"Administrator\") */\n  mload(0x40)\n  dup1\n  0x60\n  add\n  0x40\n  mstore\n  dup1\n    /* \"contracts/access/RoleAccess.sol\":737:738  1 */\n  0x01\n    /* \"contracts/access/RoleAccess.sol\":732:772  Role(1, RoleType.ADMIN, \"Administrator\") */\n  dup2\n  mstore\n  0x20\n  add\n    /* \"contracts/access/RoleAccess.sol\":740:754  RoleType.ADMIN */\n  0x00\n    /* \"contracts/access/RoleAccess.sol\":732:772  Role(1, RoleType.ADMIN, \"Administrator\") */\n  0x01\n  dup2\n  gt\n  iszero\n  tag_4\n  jumpi\n  tag_5\n  tag_6\n  jump\t// in\ntag_5:\ntag_4:\n  dup2\n  mstore\n  0x20\n  add\n  mload(0x40)\n  dup1\n  0x40\n  add\n  0x40\n  mstore\n  dup1\n  0x0d\n  dup2\n  mstore\n  0x20\n  add\n  0x41646d696e6973747261746f7200000000000000000000000000000000000000\n  dup2\n  mstore\n  pop\n  dup2\n  mstore\n  pop\n    /* \"contracts/access/RoleAccess.sol\":721:726  roles */\n  0x02\n    /* \"contracts/access/RoleAccess.sol\":721:729  roles[1] */\n  0x00\n    /* \"contracts/access/RoleAccess.sol\":727:728  1 */\n  0x01\n    /* \"contracts/access/RoleAccess.sol\":721:729  roles[1] */\n  dup2\n  mstore\n  0x20\n  add\n  swap1\n  dup2\n  mstore\n  0x20\n  add\n  0x00\n  keccak256\n    /* \"contracts/access/RoleAccess.sol\":721:772  roles[1] = Role(1, RoleType.ADMIN, \"Administrator\") */\n  0x00\n  dup3\n  add\n  mload\n  dup2\n  0x00\n  add\n  sstore\n  0x20\n  dup3\n  add\n  mload\n  dup2\n  0x01\n  add\n  exp(0x0100, 0x00)\n  dup2\n  sload\n  dup2\n  0xff\n  mul\n  not\n  and\n  swap1\n  dup4\n  0x01\n  dup2\n  gt\n  iszero\n  tag_7\n  jumpi\n  tag_8\n  tag_6\n  jump\t// in\ntag_8:\ntag_7:\n  mul\n  or\n  swap1\n  sstore\n  pop\n  0x40\n  dup3\n  add\n  mload\n  dup2\n  0x02\n  add\n  swap1\n  dup2\n  tag_9\n  swap2\n  swap1\n  tag_10\n  jump\t// in\ntag_9:\n  pop\n  swap1\n  pop\n  pop\n    /* \"contracts/access/RoleAccess.sol\":782:790  arrRoles */\n  0x03\n    /* \"contracts/access/RoleAccess.sol\":796:797  1 */\n  0x01\n    /* \"contracts/access/RoleAccess.sol\":782:798  arrRoles.push(1) */\n  swap1\n  dup1\n  0x01\n  dup2\n  sload\n  add\n  dup1\n  dup3\n  sstore\n  dup1\n  swap2\n  pop\n  pop\n  0x01\n  swap1\n  sub\n  swap1\n  0x00\n  mstore\n  keccak256(0x00, 0x20)\n  add\n  0x00\n  swap1\n  swap2\n  swap1\n  swap2\n  swap1\n  swap2\n  pop\n  sstore\n    /* \"contracts/access/RoleAccess.sol\":819:851  Role(2, RoleType.STAFF, \"Staff\") */\n  mload(0x40)\n  dup1\n  0x60\n  add\n  0x40\n  mstore\n  dup1\n    /* \"contracts/access/RoleAccess.sol\":824:825  2 */\n  0x02\n    /* \"contracts/access/RoleAccess.sol\":819:851  Role(2, RoleType.STAFF, \"Staff\") */\n  dup2\n  mstore\n  0x20\n  add\n    /* \"contracts/access/RoleAccess.sol\":827:841  RoleType.STAFF */\n  0x01\n    /* \"contracts/access/RoleAccess.sol\":819:851  Role(2, RoleType.STAFF, \"Staff\") */\n  dup1\n  dup2\n  gt\n  iszero\n  tag_12\n  jumpi\n  tag_13\n  tag_6\n  jump\t// in\ntag_13:\ntag_12:\n  dup2\n  mstore\n  0x20\n  add\n  mload(0x40)\n  dup1\n  0x40\n  add\n  0x40\n  mstore\n  dup1\n  0x05\n  dup2\n  mstore\n  0x20\n  add\n  0x5374616666000000000000000000000000000000000000000000000000000000\n  dup2\n  mstore\n  pop\n  dup2\n  mstore\n  pop\n    /* \"contracts/access/RoleAccess.sol\":808:813  roles */\n  0x02\n    /* \"contracts/access/RoleAccess.sol\":808:816  roles[2] */\n  0x00\n    /* \"contracts/access/RoleAccess.sol\":814:815  2 */\n  0x02\n    /* \"contracts/access/RoleAccess.sol\":808:816  roles[2] */\n  dup2\n  mstore\n  0x20\n  add\n  swap1\n  dup2\n  mstore\n  0x20\n  add\n  0x00\n  keccak256\n    /* \"contracts/access/RoleAccess.sol\":808:851  roles[2] = Role(2, RoleType.STAFF, \"Staff\") */\n  0x00\n  dup3\n  add\n  mload\n  dup2\n  0x00\n  add\n  sstore\n  0x20\n  dup3\n  add\n  mload\n  dup2\n  0x01\n  add\n  exp(0x0100, 0x00)\n  dup2\n  sload\n  dup2\n  0xff\n  mul\n  not\n  and\n  swap1\n  dup4\n  0x01\n  dup2\n  gt\n  iszero\n  tag_14\n  jumpi\n  tag_15\n  tag_6\n  jump\t// in\ntag_15:\ntag_14:\n  mul\n  or\n  swap1\n  sstore\n  pop\n  0x40\n  dup3\n  add\n  mload\n  dup2\n  0x02\n  add\n  swap1\n  dup2\n  tag_16\n  swap2\n  swap1\n  tag_10\n  jump\t// in\ntag_16:\n  pop\n  swap1\n  pop\n  pop\n    /* \"contracts/access/RoleAccess.sol\":861:869  arrRoles */\n  0x03\n    /* \"contracts/access/RoleAccess.sol\":875:876  2 */\n  0x02\n    /* \"contracts/access/RoleAccess.sol\":861:877  arrRoles.push(2) */\n  swap1\n  dup1\n  0x01\n  dup2\n  sload\n  add\n  dup1\n  dup3\n  sstore\n  dup1\n  swap2\n  pop\n  pop\n  0x01\n  swap1\n  sub\n  swap1\n  0x00\n  mstore\n  keccak256(0x00, 0x20)\n  add\n  0x00\n  swap1\n  swap2\n  swap1\n  swap2\n  swap1\n  swap2\n  pop\n  sstore\n    /* \"contracts/access/RoleAccess.sol\":94:2734  contract RoleAccess {... */\n  jump(tag_18)\n    /* \"#utility.yul\":7:187   */\ntag_6:\n    /* \"#utility.yul\":55:132   */\n  0x4e487b7100000000000000000000000000000000000000000000000000000000\n    /* \"#utility.yul\":52:53   */\n  0x00\n    /* \"#utility.yul\":45:133   */\n  mstore\n    /* \"#utility.yul\":152:156   */\n  0x21\n    /* \"#utility.yul\":149:150   */\n  0x04\n    /* \"#utility.yul\":142:157   */\n  mstore\n    /* \"#utility.yul\":176:180   */\n  0x24\n    /* \"#utility.yul\":173:174   */\n  0x00\n    /* \"#utility.yul\":166:181   */\n  revert\n    /* \"#utility.yul\":193:292   */\ntag_19:\n    /* \"#utility.yul\":245:251   */\n  0x00\n    /* \"#utility.yul\":279:284   */\n  dup2\n    /* \"#utility.yul\":273:285   */\n  mload\n    /* \"#utility.yul\":263:285   */\n  swap1\n  pop\n    /* \"#utility.yul\":193:292   */\n  swap2\n  swap1\n  pop\n  jump\t// out\n    /* \"#utility.yul\":298:478   */\ntag_20:\n    /* \"#utility.yul\":346:423   */\n  0x4e487b7100000000000000000000000000000000000000000000000000000000\n    /* \"#utility.yul\":343:344   */\n  0x00\n    /* \"#utility.yul\":336:424   */\n  mstore\n    /* \"#utility.yul\":443:447   */\n  0x41\n    /* \"#utility.yul\":440:441   */\n  0x04\n    /* \"#utility.yul\":433:448   */\n  mstore\n    /* \"#utility.yul\":467:471   */\n  0x24\n    /* \"#utility.yul\":464:465   */\n  0x00\n    /* \"#utility.yul\":457:472   */\n  revert\n    /* \"#utility.yul\":484:664   */\ntag_21:\n    /* \"#utility.yul\":532:609   */\n  0x4e487b7100000000000000000000000000000000000000000000000000000000\n    /* \"#utility.yul\":529:530   */\n  0x00\n    /* \"#utility.yul\":522:610   */\n  mstore\n    /* \"#utility.yul\":629:633   */\n  0x22\n    /* \"#utility.yul\":626:627   */\n  0x04\n    /* \"#utility.yul\":619:634   */\n  mstore\n    /* \"#utility.yul\":653:657   */\n  0x24\n    /* \"#utility.yul\":650:651   */\n  0x00\n    /* \"#utility.yul\":643:658   */\n  revert\n    /* \"#utility.yul\":670:990   */\ntag_22:\n    /* \"#utility.yul\":714:720   */\n  0x00\n    /* \"#utility.yul\":751:752   */\n  0x02\n    /* \"#utility.yul\":745:749   */\n  dup3\n    /* \"#utility.yul\":741:753   */\n  div\n    /* \"#utility.yul\":731:753   */\n  swap1\n  pop\n    /* \"#utility.yul\":798:799   */\n  0x01\n    /* \"#utility.yul\":792:796   */\n  dup3\n    /* \"#utility.yul\":788:800   */\n  and\n    /* \"#utility.yul\":819:837   */\n  dup1\n    /* \"#utility.yul\":809:890   */\n  tag_45\n  jumpi\n    /* \"#utility.yul\":875:879   */\n  0x7f\n    /* \"#utility.yul\":867:873   */\n  dup3\n    /* \"#utility.yul\":863:880   */\n  and\n    /* \"#utility.yul\":853:880   */\n  swap2\n  pop\n    /* \"#utility.yul\":809:890   */\ntag_45:\n    /* \"#utility.yul\":937:939   */\n  0x20\n    /* \"#utility.yul\":929:935   */\n  dup3\n    /* \"#utility.yul\":926:940   */\n  lt\n    /* \"#utility.yul\":906:924   */\n  dup2\n    /* \"#utility.yul\":903:941   */\n  sub\n    /* \"#utility.yul\":900:984   */\n  tag_46\n  jumpi\n    /* \"#utility.yul\":956:974   */\n  tag_47\n  tag_21\n  jump\t// in\ntag_47:\n    /* \"#utility.yul\":900:984   */\ntag_46:\n    /* \"#utility.yul\":721:990   */\n  pop\n    /* \"#utility.yul\":670:990   */\n  swap2\n  swap1\n  pop\n  jump\t// out\n    /* \"#utility.yul\":996:1137   */\ntag_23:\n    /* \"#utility.yul\":1045:1049   */\n  0x00\n    /* \"#utility.yul\":1068:1071   */\n  dup2\n    /* \"#utility.yul\":1060:1071   */\n  swap1\n  pop\n    /* \"#utility.yul\":1091:1094   */\n  dup2\n    /* \"#utility.yul\":1088:1089   */\n  0x00\n    /* \"#utility.yul\":1081:1095   */\n  mstore\n    /* \"#utility.yul\":1125:1129   */\n  0x20\n    /* \"#utility.yul\":1122:1123   */\n  0x00\n    /* \"#utility.yul\":1112:1130   */\n  keccak256\n    /* \"#utility.yul\":1104:1130   */\n  swap1\n  pop\n    /* \"#utility.yul\":996:1137   */\n  swap2\n  swap1\n  pop\n  jump\t// out\n    /* \"#utility.yul\":1143:1236   */\ntag_24:\n    /* \"#utility.yul\":1180:1186   */\n  0x00\n    /* \"#utility.yul\":1227:1229   */\n  0x20\n    /* \"#utility.yul\":1222:1224   */\n  0x1f\n    /* \"#utility.yul\":1215:1220   */\n  dup4\n    /* \"#utility.yul\":1211:1225   */\n  add\n    /* \"#utility.yul\":1207:1230   */\n  div\n    /* \"#utility.yul\":1197:1230   */\n  swap1\n  pop\n    /* \"#utility.yul\":1143:1236   */\n  swap2\n  swap1\n  pop\n  jump\t// out\n    /* \"#utility.yul\":1242:1349   */\ntag_25:\n    /* \"#utility.yul\":1286:1294   */\n  0x00\n    /* \"#utility.yul\":1336:1341   */\n  dup3\n    /* \"#utility.yul\":1330:1334   */\n  dup3\n    /* \"#utility.yul\":1326:1342   */\n  shl\n    /* \"#utility.yul\":1305:1342   */\n  swap1\n  pop\n    /* \"#utility.yul\":1242:1349   */\n  swap3\n  swap2\n  pop\n  pop\n  jump\t// out\n    /* \"#utility.yul\":1355:1748   */\ntag_26:\n    /* \"#utility.yul\":1424:1430   */\n  0x00\n    /* \"#utility.yul\":1474:1475   */\n  0x08\n    /* \"#utility.yul\":1462:1472   */\n  dup4\n    /* \"#utility.yul\":1458:1476   */\n  mul\n    /* \"#utility.yul\":1497:1594   */\n  tag_52\n    /* \"#utility.yul\":1527:1593   */\n  0xffffffffffffffffffffffffffffffffffffffffffffffffffffffffffffffff\n    /* \"#utility.yul\":1516:1525   */\n  dup3\n    /* \"#utility.yul\":1497:1594   */\n  tag_25\n  jump\t// in\ntag_52:\n    /* \"#utility.yul\":1615:1654   */\n  tag_53\n    /* \"#utility.yul\":1645:1653   */\n  dup7\n    /* \"#utility.yul\":1634:1643   */\n  dup4\n    /* \"#utility.yul\":1615:1654   */\n  tag_25\n  jump\t// in\ntag_53:\n    /* \"#utility.yul\":1603:1654   */\n  swap6\n  pop\n    /* \"#utility.yul\":1687:1691   */\n  dup1\n    /* \"#utility.yul\":1683:1692   */\n  not\n    /* \"#utility.yul\":1676:1681   */\n  dup5\n    /* \"#utility.yul\":1672:1693   */\n  and\n    /* \"#utility.yul\":1663:1693   */\n  swap4\n  pop\n    /* \"#utility.yul\":1736:1740   */\n  dup1\n    /* \"#utility.yul\":1726:1734   */\n  dup7\n    /* \"#utility.yul\":1722:1741   */\n  and\n    /* \"#utility.yul\":1715:1720   */\n  dup5\n    /* \"#utility.yul\":1712:1742   */\n  or\n    /* \"#utility.yul\":1702:1742   */\n  swap3\n  pop\n    /* \"#utility.yul\":1431:1748   */\n  pop\n  pop\n    /* \"#utility.yul\":1355:1748   */\n  swap4\n  swap3\n  pop\n  pop\n  pop\n  jump\t// out\n    /* \"#utility.yul\":1754:1831   */\ntag_27:\n    /* \"#utility.yul\":1791:1798   */\n  0x00\n    /* \"#utility.yul\":1820:1825   */\n  dup2\n    /* \"#utility.yul\":1809:1825   */\n  swap1\n  pop\n    /* \"#utility.yul\":1754:1831   */\n  swap2\n  swap1\n  pop\n  jump\t// out\n    /* \"#utility.yul\":1837:1897   */\ntag_28:\n    /* \"#utility.yul\":1865:1868   */\n  0x00\n    /* \"#utility.yul\":1886:1891   */\n  dup2\n    /* \"#utility.yul\":1879:1891   */\n  swap1\n  pop\n    /* \"#utility.yul\":1837:1897   */\n  swap2\n  swap1\n  pop\n  jump\t// out\n    /* \"#utility.yul\":1903:2045   */\ntag_29:\n    /* \"#utility.yul\":1953:1962   */\n  0x00\n    /* \"#utility.yul\":1986:2039   */\n  tag_57\n    /* \"#utility.yul\":2004:2038   */\n  tag_58\n    /* \"#utility.yul\":2013:2037   */\n  tag_59\n    /* \"#utility.yul\":2031:2036   */\n  dup5\n    /* \"#utility.yul\":2013:2037   */\n  tag_27\n  jump\t// in\ntag_59:\n    /* \"#utility.yul\":2004:2038   */\n  tag_28\n  jump\t// in\ntag_58:\n    /* \"#utility.yul\":1986:2039   */\n  tag_27\n  jump\t// in\ntag_57:\n    /* \"#utility.yul\":1973:2039   */\n  swap1\n  pop\n    /* \"#utility.yul\":1903:2045   */\n  swap2\n  swap1\n  pop\n  jump\t// out\n    /* \"#utility.yul\":2051:2126   */\ntag_30:\n    /* \"#utility.yul\":2094:2097   */\n  0x00\n    /* \"#utility.yul\":2115:2120   */\n  dup2\n    /* \"#utility.yul\":2108:2120   */\n  swap1\n  pop\n    /* \"#utility.yul\":2051:2126   */\n  swap2\n  swap1\n  pop\n  jump\t// out\n    /* \"#utility.yul\":2132:2401   */\ntag_31:\n    /* \"#utility.yul\":2242:2281   */\n  tag_62\n    /* \"#utility.yul\":2273:2280   */\n  dup4\n    /* \"#utility.yul\":2242:2281   */\n  tag_29\n  jump\t// in\ntag_62:\n    /* \"#utility.yul\":2303:2394   */\n  tag_63\n    /* \"#utility.yul\":2352:2393   */\n  tag_64\n    /* \"#utility.yul\":2376:2392   */\n  dup3\n    /* \"#utility.yul\":2352:2393   */\n  tag_30\n  jump\t// in\ntag_64:\n    /* \"#utility.yul\":2344:2350   */\n  dup5\n    /* \"#utility.yul\":2337:2341   */\n  dup5\n    /* \"#utility.yul\":2331:2342   */\n  sload\n    /* \"#utility.yul\":2303:2394   */\n  tag_26\n  jump\t// in\ntag_63:\n    /* \"#utility.yul\":2297:2301   */\n  dup3\n    /* \"#utility.yul\":2290:2395   */\n  sstore\n    /* \"#utility.yul\":2208:2401   */\n  pop\n    /* \"#utility.yul\":2132:2401   */\n  pop\n  pop\n  pop\n  jump\t// out\n    /* \"#utility.yul\":2407:2480   */\ntag_32:\n    /* \"#utility.yul\":2452:2455   */\n  0x00\n    /* \"#utility.yul\":2473:2474   */\n  0x00\n    /* \"#utility.yul\":2466:2474   */\n  swap1\n  pop\n    /* \"#utility.yul\":2407:2480   */\n  swap1\n  jump\t// out\n    /* \"#utility.yul\":2486:2675   */\ntag_33:\n    /* \"#utility.yul\":2563:2595   */\n  tag_67\n  tag_32\n  jump\t// in\ntag_67:\n    /* \"#utility.yul\":2604:2669   */\n  tag_68\n    /* \"#utility.yul\":2662:2668   */\n  dup2\n    /* \"#utility.yul\":2654:2660   */\n  dup5\n    /* \"#utility.yul\":2648:2652   */\n  dup5\n    /* \"#utility.yul\":2604:2669   */\n  tag_31\n  jump\t// in\ntag_68:\n    /* \"#utility.yul\":2539:2675   */\n  pop\n    /* \"#utility.yul\":2486:2675   */\n  pop\n  pop\n  jump\t// out\n    /* \"#utility.yul\":2681:2867   */\ntag_34:\n    /* \"#utility.yul\":2741:2861   */\ntag_70:\n    /* \"#utility.yul\":2758:2761   */\n  dup2\n    /* \"#utility.yul\":2751:2756   */\n  dup2\n    /* \"#utility.yul\":2748:2762   */\n  lt\n    /* \"#utility.yul\":2741:2861   */\n  iszero\n  tag_72\n  jumpi\n    /* \"#utility.yul\":2812:2851   */\n  tag_73\n    /* \"#utility.yul\":2849:2850   */\n  0x00\n    /* \"#utility.yul\":2842:2847   */\n  dup3\n    /* \"#utility.yul\":2812:2851   */\n  tag_33\n  jump\t// in\ntag_73:\n    /* \"#utility.yul\":2785:2786   */\n  0x01\n    /* \"#utility.yul\":2778:2783   */\n  dup2\n    /* \"#utility.yul\":2774:2787   */\n  add\n    /* \"#utility.yul\":2765:2787   */\n  swap1\n  pop\n    /* \"#utility.yul\":2741:2861   */\n  jump(tag_70)\ntag_72:\n    /* \"#utility.yul\":2681:2867   */\n  pop\n  pop\n  jump\t// out\n    /* \"#utility.yul\":2873:3416   */\ntag_35:\n    /* \"#utility.yul\":2974:2976   */\n  0x1f\n    /* \"#utility.yul\":2969:2972   */\n  dup3\n    /* \"#utility.yul\":2966:2977   */\n  gt\n    /* \"#utility.yul\":2963:3409   */\n  iszero\n  tag_75\n  jumpi\n    /* \"#utility.yul\":3008:3046   */\n  tag_76\n    /* \"#utility.yul\":3040:3045   */\n  dup2\n    /* \"#utility.yul\":3008:3046   */\n  tag_23\n  jump\t// in\ntag_76:\n    /* \"#utility.yul\":3092:3121   */\n  tag_77\n    /* \"#utility.yul\":3110:3120   */\n  dup5\n    /* \"#utility.yul\":3092:3121   */\n  tag_24\n  jump\t// in\ntag_77:\n    /* \"#utility.yul\":3082:3090   */\n  dup2\n    /* \"#utility.yul\":3078:3122   */\n  add\n    /* \"#utility.yul\":3275:3277   */\n  0x20\n    /* \"#utility.yul\":3263:3273   */\n  dup6\n    /* \"#utility.yul\":3260:3278   */\n  lt\n    /* \"#utility.yul\":3257:3306   */\n  iszero\n  tag_78\n  jumpi\n    /* \"#utility.yul\":3296:3304   */\n  dup2\n    /* \"#utility.yul\":3281:3304   */\n  swap1\n  pop\n    /* \"#utility.yul\":3257:3306   */\ntag_78:\n    /* \"#utility.yul\":3319:3399   */\n  tag_79\n    /* \"#utility.yul\":3375:3397   */\n  tag_80\n    /* \"#utility.yul\":3393:3396   */\n  dup6\n    /* \"#utility.yul\":3375:3397   */\n  tag_24\n  jump\t// in\ntag_80:\n    /* \"#utility.yul\":3365:3373   */\n  dup4\n    /* \"#utility.yul\":3361:3398   */\n  add\n    /* \"#utility.yul\":3348:3359   */\n  dup3\n    /* \"#utility.yul\":3319:3399   */\n  tag_34\n  jump\t// in\ntag_79:\n    /* \"#utility.yul\":2978:3409   */\n  pop\n  pop\n    /* \"#utility.yul\":2963:3409   */\ntag_75:\n    /* \"#utility.yul\":2873:3416   */\n  pop\n  pop\n  pop\n  jump\t// out\n    /* \"#utility.yul\":3422:3539   */\ntag_36:\n    /* \"#utility.yul\":3476:3484   */\n  0x00\n    /* \"#utility.yul\":3526:3531   */\n  dup3\n    /* \"#utility.yul\":3520:3524   */\n  dup3\n    /* \"#utility.yul\":3516:3532   */\n  shr\n    /* \"#utility.yul\":3495:3532   */\n  swap1\n  pop\n    /* \"#utility.yul\":3422:3539   */\n  swap3\n  swap2\n  pop\n  pop\n  jump\t// out\n    /* \"#utility.yul\":3545:3714   */\ntag_37:\n    /* \"#utility.yul\":3589:3595   */\n  0x00\n    /* \"#utility.yul\":3622:3673   */\n  tag_83\n    /* \"#utility.yul\":3670:3671   */\n  0x00\n    /* \"#utility.yul\":3666:3672   */\n  not\n    /* \"#utility.yul\":3658:3663   */\n  dup5\n    /* \"#utility.yul\":3655:3656   */\n  0x08\n    /* \"#utility.yul\":3651:3664   */\n  mul\n    /* \"#utility.yul\":3622:3673   */\n  tag_36\n  jump\t// in\ntag_83:\n    /* \"#utility.yul\":3618:3674   */\n  not\n    /* \"#utility.yul\":3703:3707   */\n  dup1\n    /* \"#utility.yul\":3697:3701   */\n  dup4\n    /* \"#utility.yul\":3693:3708   */\n  and\n    /* \"#utility.yul\":3683:3708   */\n  swap2\n  pop\n    /* \"#utility.yul\":3596:3714   */\n  pop\n    /* \"#utility.yul\":3545:3714   */\n  swap3\n  swap2\n  pop\n  pop\n  jump\t// out\n    /* \"#utility.yul\":3719:4014   */\ntag_38:\n    /* \"#utility.yul\":3795:3799   */\n  0x00\n    /* \"#utility.yul\":3941:3970   */\n  tag_85\n    /* \"#utility.yul\":3966:3969   */\n  dup4\n    /* \"#utility.yul\":3960:3964   */\n  dup4\n    /* \"#utility.yul\":3941:3970   */\n  tag_37\n  jump\t// in\ntag_85:\n    /* \"#utility.yul\":3933:3970   */\n  swap2\n  pop\n    /* \"#utility.yul\":4003:4006   */\n  dup3\n    /* \"#utility.yul\":4000:4001   */\n  0x02\n    /* \"#utility.yul\":3996:4007   */\n  mul\n    /* \"#utility.yul\":3990:3994   */\n  dup3\n    /* \"#utility.yul\":3987:4008   */\n  or\n    /* \"#utility.yul\":3979:4008   */\n  swap1\n  pop\n    /* \"#utility.yul\":3719:4014   */\n  swap3\n  swap2\n  pop\n  pop\n  jump\t// out\n    /* \"#utility.yul\":4019:5414   */\ntag_10:\n    /* \"#utility.yul\":4136:4173   */\n  tag_87\n    /* \"#utility.yul\":4169:4172   */\n  dup3\n    /* \"#utility.yul\":4136:4173   */\n  tag_19\n  jump\t// in\ntag_87:\n    /* \"#utility.yul\":4238:4256   */\n  0xffffffffffffffff\n    /* \"#utility.yul\":4230:4236   */\n  dup2\n    /* \"#utility.yul\":4227:4257   */\n  gt\n    /* \"#utility.yul\":4224:4280   */\n  iszero\n  tag_88\n  jumpi\n    /* \"#utility.yul\":4260:4278   */\n  tag_89\n  tag_20\n  jump\t// in\ntag_89:\n    /* \"#utility.yul\":4224:4280   */\ntag_88:\n    /* \"#utility.yul\":4304:4342   */\n  tag_90\n    /* \"#utility.yul\":4336:4340   */\n  dup3\n    /* \"#utility.yul\":4330:4341   */\n  sload\n    /* \"#utility.yul\":4304:4342   */\n  tag_22\n  jump\t// in\ntag_90:\n    /* \"#utility.yul\":4389:4456   */\n  tag_91\n    /* \"#utility.yul\":4449:4455   */\n  dup3\n    /* \"#utility.yul\":4441:4447   */\n  dup3\n    /* \"#utility.yul\":4435:4439   */\n  dup6\n    /* \"#utility.yul\":4389:4456   */\n  tag_35\n  jump\t// in\ntag_91:\n    /* \"#utility.yul\":4483:4484   */\n  0x00\n    /* \"#utility.yul\":4507:4511   */\n  0x20\n    /* \"#utility.yul\":4494:4511   */\n  swap1\n  pop\n    /* \"#utility.yul\":4539:4541   */\n  0x1f\n    /* \"#utility.yul\":4531:4537   */\n  dup4\n    /* \"#utility.yul\":4528:4542   */\n  gt\n    /* \"#utility.yul\":4556:4557   */\n  0x01\n    /* \"#utility.yul\":4551:5169   */\n  dup2\n  eq\n  tag_93\n  jumpi\n    /* \"#utility.yul\":5213:5214   */\n  0x00\n    /* \"#utility.yul\":5230:5236   */\n  dup5\n    /* \"#utility.yul\":5227:5304   */\n  iszero\n  tag_94\n  jumpi\n    /* \"#utility.yul\":5279:5288   */\n  dup3\n    /* \"#utility.yul\":5274:5277   */\n  dup8\n    /* \"#utility.yul\":5270:5289   */\n  add\n    /* \"#utility.yul\":5264:5290   */\n  mload\n    /* \"#utility.yul\":5255:5290   */\n  swap1\n  pop\n    /* \"#utility.yul\":5227:5304   */\ntag_94:\n    /* \"#utility.yul\":5330:5397   */\n  tag_95\n    /* \"#utility.yul\":5390:5396   */\n  dup6\n    /* \"#utility.yul\":5383:5388   */\n  dup3\n    /* \"#utility.yul\":5330:5397   */\n  tag_38\n  jump\t// in\ntag_95:\n    /* \"#utility.yul\":5324:5328   */\n  dup7\n    /* \"#utility.yul\":5317:5398   */\n  sstore\n    /* \"#utility.yul\":5186:5408   */\n  pop\n    /* \"#utility.yul\":4521:5408   */\n  jump(tag_92)\n    /* \"#utility.yul\":4551:5169   */\ntag_93:\n    /* \"#utility.yul\":4603:4607   */\n  0x1f\n    /* \"#utility.yul\":4599:4608   */\n  not\n    /* \"#utility.yul\":4591:4597   */\n  dup5\n    /* \"#utility.yul\":4587:4609   */\n  and\n    /* \"#utility.yul\":4637:4674   */\n  tag_96\n    /* \"#utility.yul\":4669:4673   */\n  dup7\n    /* \"#utility.yul\":4637:4674   */\n  tag_23\n  jump\t// in\ntag_96:\n    /* \"#utility.yul\":4696:4697   */\n  0x00\n    /* \"#utility.yul\":4710:4918   */\ntag_97:\n    /* \"#utility.yul\":4724:4731   */\n  dup3\n    /* \"#utility.yul\":4721:4722   */\n  dup2\n    /* \"#utility.yul\":4718:4732   */\n  lt\n    /* \"#utility.yul\":4710:4918   */\n  iszero\n  tag_99\n  jumpi\n    /* \"#utility.yul\":4803:4812   */\n  dup5\n    /* \"#utility.yul\":4798:4801   */\n  dup10\n    /* \"#utility.yul\":4794:4813   */\n  add\n    /* \"#utility.yul\":4788:4814   */\n  mload\n    /* \"#utility.yul\":4780:4786   */\n  dup3\n    /* \"#utility.yul\":4773:4815   */\n  sstore\n    /* \"#utility.yul\":4854:4855   */\n  0x01\n    /* \"#utility.yul\":4846:4852   */\n  dup3\n    /* \"#utility.yul\":4842:4856   */\n  add\n    /* \"#utility.yul\":4832:4856   */\n  swap2\n  pop\n    /* \"#utility.yul\":4901:4903   */\n  0x20\n    /* \"#utility.yul\":4890:4899   */\n  dup6\n    /* \"#utility.yul\":4886:4904   */\n  add\n    /* \"#utility.yul\":4873:4904   */\n  swap5\n  pop\n    /* \"#utility.yul\":4747:4751   */\n  0x20\n    /* \"#utility.yul\":4744:4745   */\n  dup2\n    /* \"#utility.yul\":4740:4752   */\n  add\n    /* \"#utility.yul\":4735:4752   */\n  swap1\n  pop\n    /* \"#utility.yul\":4710:4918   */\n  jump(tag_97)\ntag_99:\n    /* \"#utility.yul\":4946:4952   */\n  dup7\n    /* \"#utility.yul\":4937:4944   */\n  dup4\n    /* \"#utility.yul\":4934:4953   */\n  lt\n    /* \"#utility.yul\":4931:5110   */\n  iszero\n  tag_100\n  jumpi\n    /* \"#utility.yul\":5004:5013   */\n  dup5\n    /* \"#utility.yul\":4999:5002   */\n  dup10\n    /* \"#utility.yul\":4995:5014   */\n  add\n    /* \"#utility.yul\":4989:5015   */\n  mload\n    /* \"#utility.yul\":5047:5095   */\n  tag_101\n    /* \"#utility.yul\":5089:5093   */\n  0x1f\n    /* \"#utility.yul\":5081:5087   */\n  dup10\n    /* \"#utility.yul\":5077:5094   */\n  and\n    /* \"#utility.yul\":5066:5075   */\n  dup3\n    /* \"#utility.yul\":5047:5095   */\n  tag_37\n  jump\t// in\ntag_101:\n    /* \"#utility.yul\":5039:5045   */\n  dup4\n    /* \"#utility.yul\":5032:5096   */\n  sstore\n    /* \"#utility.yul\":4954:5110   */\n  pop\n    /* \"#utility.yul\":4931:5110   */\ntag_100:\n    /* \"#utility.yul\":5156:5157   */\n  0x01\n    /* \"#utility.yul\":5152:5153   */\n  0x02\n    /* \"#utility.yul\":5144:5150   */\n  dup9\n    /* \"#utility.yul\":5140:5154   */\n  mul\n    /* \"#utility.yul\":5136:5158   */\n  add\n    /* \"#utility.yul\":5130:5134   */\n  dup9\n    /* \"#utility.yul\":5123:5159   */\n  sstore\n    /* \"#utility.yul\":4558:5169   */\n  pop\n  pop\n  pop\n    /* \"#utility.yul\":4521:5408   */\ntag_92:\n  pop\n    /* \"#utility.yul\":4111:5414   */\n  pop\n  pop\n  pop\n    /* \"#utility.yul\":4019:5414   */\n  pop\n  pop\n  jump\t// out\n    /* \"contracts/access/RoleAccess.sol\":94:2734  contract RoleAccess {... */\ntag_18:\n  dataSize(sub_0)\n  dup1\n  dataOffset(sub_0)\n  0x00\n  codecopy\n  0x00\n  return\nstop\n\nsub_0: assembly {\n        /* \"contracts/access/RoleAccess.sol\":94:2734  contract RoleAccess {... */\n      mstore(0x40, 0x80)\n      callvalue\n      dup1\n      iszero\n      tag_1\n      jumpi\n      revert(0x00, 0x00)\n    tag_1:\n      pop\n      jumpi(tag_2, lt(calldatasize, 0x04))\n      shr(0xe0, calldataload(0x00))\n      dup1\n      0x893d20e8\n      gt\n      tag_10\n      jumpi\n      dup1\n      0x893d20e8\n      eq\n      tag_6\n      jumpi\n      dup1\n      0x8da5cb5b\n      eq\n      tag_7\n      jumpi\n      dup1\n      0x95a8c58d\n      eq\n      tag_8\n      jumpi\n      dup1\n      0xf2bcac3d\n      eq\n      tag_9\n      jumpi\n      jump(tag_2)\n    tag_10:\n      dup1\n      0x27820851\n      eq\n      tag_3\n      jumpi\n      dup1\n      0x2e3036c7\n      eq\n      tag_4\n      jumpi\n      dup1\n      0x80e52e3f\n      eq\n      tag_5\n      jumpi\n    tag_2:\n      revert(0x00, 0x00)\n        /* \"contracts/access/RoleAccess.sol\":1872:2064  function getUserRole(address account) external view returns (Role memory) {... */\n    tag_3:\n      tag_11\n      0x04\n      dup1\n      calldatasize\n      sub\n      dup2\n      add\n      swap1\n      tag_12\n      swap2\n      swap1\n      tag_13\n      jump\t// in\n    tag_12:\n      tag_14\n      jump\t// in\n    tag_11:\n      mload(0x40)\n      tag_15\n      swap2\n      swap1\n      tag_16\n      jump\t// in\n    tag_15:\n      mload(0x40)\n      dup1\n      swap2\n      sub\n      swap1\n      return\n        /* \"contracts/access/RoleAccess.sol\":919:1170  function assignRole(address account, uint256 roleId) external {... */\n    tag_4:\n      tag_17\n      0x04\n      dup1\n      calldatasize\n      sub\n      dup2\n      add\n      swap1\n      tag_18\n      swap2\n      swap1\n      tag_19\n      jump\t// in\n    tag_18:\n      tag_20\n      jump\t// in\n    tag_17:\n      stop\n        /* \"contracts/access/RoleAccess.sol\":1634:1834  function revokeRole(address account) external  {... */\n    tag_5:\n      tag_21\n      0x04\n      dup1\n      calldatasize\n      sub\n      dup2\n      add\n      swap1\n      tag_22\n      swap2\n      swap1\n      tag_13\n      jump\t// in\n    tag_22:\n      tag_23\n      jump\t// in\n    tag_21:\n      stop\n        /* \"contracts/access/RoleAccess.sol\":2651:2732  function getOwner() external view returns (address) {... */\n    tag_6:\n      tag_24\n      tag_25\n      jump\t// in\n    tag_24:\n      mload(0x40)\n      tag_26\n      swap2\n      swap1\n      tag_27\n      jump\t// in\n    tag_26:\n      mload(0x40)\n      dup1\n      swap2\n      sub\n      swap1\n      return\n        /* \"contracts/access/RoleAccess.sol\":120:140  address public owner */\n    tag_7:\n      tag_28\n      tag_29\n      jump\t// in\n    tag_28:\n      mload(0x40)\n      tag_30\n      swap2\n      swap1\n      tag_27\n      jump\t// in\n    tag_30:\n      mload(0x40)\n      dup1\n      swap2\n      sub\n      swap1\n      return\n        /* \"contracts/access/RoleAccess.sol\":2425:2645  function hasRole(address account, RoleType roleType) external view returns (bool) {... */\n    tag_8:\n      tag_31\n      0x04\n      dup1\n      calldatasize\n      sub\n      dup2\n      add\n      swap1\n      tag_32\n      swap2\n      swap1\n      tag_33\n      jump\t// in\n    tag_32:\n      tag_34\n      jump\t// in\n    tag_31:\n      mload(0x40)\n      tag_35\n      swap2\n      swap1\n      tag_36\n      jump\t// in\n    tag_35:\n      mload(0x40)\n      dup1\n      swap2\n      sub\n      swap1\n      return\n        /* \"contracts/access/RoleAccess.sol\":2102:2366  function getAllRoles() external view returns (Role[] memory) {... */\n    tag_9:\n      tag_37\n      tag_38\n      jump\t// in\n    tag_37:\n      mload(0x40)\n      tag_39\n      swap2\n      swap1\n      tag_40\n      jump\t// in\n    tag_39:\n      mload(0x40)\n      dup1\n      swap2\n      sub\n      swap1\n      return\n        /* \"contracts/access/RoleAccess.sol\":1872:2064  function getUserRole(address account) external view returns (Role memory) {... */\n    tag_14:\n        /* \"contracts/access/RoleAccess.sol\":1933:1944  Role memory */\n      tag_41\n      tag_42\n      jump\t// in\n    tag_41:\n        /* \"contracts/access/RoleAccess.sol\":1992:1993  0 */\n      0x00\n        /* \"contracts/access/RoleAccess.sol\":1964:1972  userRole */\n      0x01\n        /* \"contracts/access/RoleAccess.sol\":1964:1981  userRole[account] */\n      0x00\n        /* \"contracts/access/RoleAccess.sol\":1973:1980  account */\n      dup5\n        /* \"contracts/access/RoleAccess.sol\":1964:1981  userRole[account] */\n      0xffffffffffffffffffffffffffffffffffffffff\n      and\n      0xffffffffffffffffffffffffffffffffffffffff\n      and\n      dup2\n      mstore\n      0x20\n      add\n      swap1\n      dup2\n      mstore\n      0x20\n      add\n      0x00\n      keccak256\n        /* \"contracts/access/RoleAccess.sol\":1964:1988  userRole[account].roleId */\n      0x00\n      add\n      sload\n        /* \"contracts/access/RoleAccess.sol\":1964:1993  userRole[account].roleId != 0 */\n      sub\n        /* \"contracts/access/RoleAccess.sol\":1956:2023  require(userRole[account].roleId != 0, \"User has no role assigned\") */\n      tag_44\n      jumpi\n      mload(0x40)\n      0x08c379a000000000000000000000000000000000000000000000000000000000\n      dup2\n      mstore\n      0x04\n      add\n      tag_45\n      swap1\n      tag_46\n      jump\t// in\n    tag_45:\n      mload(0x40)\n      dup1\n      swap2\n      sub\n      swap1\n      revert\n    tag_44:\n        /* \"contracts/access/RoleAccess.sol\":2040:2048  userRole */\n      0x01\n        /* \"contracts/access/RoleAccess.sol\":2040:2057  userRole[account] */\n      0x00\n        /* \"contracts/access/RoleAccess.sol\":2049:2056  account */\n      dup4\n        /* \"contracts/access/RoleAccess.sol\":2040:2057  userRole[account] */\n      0xffffffffffffffffffffffffffffffffffffffff\n      and\n      0xffffffffffffffffffffffffffffffffffffffff\n      and\n      dup2\n      mstore\n      0x20\n      add\n      swap1\n      dup2\n      mstore\n      0x20\n      add\n      0x00\n      keccak256\n        /* \"contracts/access/RoleAccess.sol\":2033:2057  return userRole[account] */\n      mload(0x40)\n      dup1\n      0x60\n      add\n      0x40\n      mstore\n      swap1\n      dup2\n      0x00\n      dup3\n      add\n      sload\n      dup2\n      mstore\n      0x20\n      add\n      0x01\n      dup3\n      add\n      0x00\n      swap1\n      sload\n      swap1\n      0x0100\n      exp\n      swap1\n      div\n      0xff\n      and\n      0x01\n      dup2\n      gt\n      iszero\n      tag_47\n      jumpi\n      tag_48\n      tag_49\n      jump\t// in\n    tag_48:\n    tag_47:\n      0x01\n      dup2\n      gt\n      iszero\n      tag_50\n      jumpi\n      tag_51\n      tag_49\n      jump\t// in\n    tag_51:\n    tag_50:\n      dup2\n      mstore\n      0x20\n      add\n      0x02\n      dup3\n      add\n      dup1\n      sload\n      tag_52\n      swap1\n      tag_53\n      jump\t// in\n    tag_52:\n      dup1\n      0x1f\n      add\n      0x20\n      dup1\n      swap2\n      div\n      mul\n      0x20\n      add\n      mload(0x40)\n      swap1\n      dup2\n      add\n      0x40\n      mstore\n      dup1\n      swap3\n      swap2\n      swap1\n      dup2\n      dup2\n      mstore\n      0x20\n      add\n      dup3\n      dup1\n      sload\n      tag_54\n      swap1\n      tag_53\n      jump\t// in\n    tag_54:\n      dup1\n      iszero\n      tag_55\n      jumpi\n      dup1\n      0x1f\n      lt\n      tag_56\n      jumpi\n      0x0100\n      dup1\n      dup4\n      sload\n      div\n      mul\n      dup4\n      mstore\n      swap2\n      0x20\n      add\n      swap2\n      jump(tag_55)\n    tag_56:\n      dup3\n      add\n      swap2\n      swap1\n      0x00\n      mstore\n      keccak256(0x00, 0x20)\n      swap1\n    tag_57:\n      dup2\n      sload\n      dup2\n      mstore\n      swap1\n      0x01\n      add\n      swap1\n      0x20\n      add\n      dup1\n      dup4\n      gt\n      tag_57\n      jumpi\n      dup3\n      swap1\n      sub\n      0x1f\n      and\n      dup3\n      add\n      swap2\n    tag_55:\n      pop\n      pop\n      pop\n      pop\n      pop\n      dup2\n      mstore\n      pop\n      pop\n      swap1\n      pop\n        /* \"contracts/access/RoleAccess.sol\":1872:2064  function getUserRole(address account) external view returns (Role memory) {... */\n      swap2\n      swap1\n      pop\n      jump\t// out\n        /* \"contracts/access/RoleAccess.sol\":919:1170  function assignRole(address account, uint256 roleId) external {... */\n    tag_20:\n        /* \"contracts/access/RoleAccess.sol\":1023:1024  0 */\n      0x00\n        /* \"contracts/access/RoleAccess.sol\":999:1004  roles */\n      0x02\n        /* \"contracts/access/RoleAccess.sol\":999:1012  roles[roleId] */\n      0x00\n        /* \"contracts/access/RoleAccess.sol\":1005:1011  roleId */\n      dup4\n        /* \"contracts/access/RoleAccess.sol\":999:1012  roles[roleId] */\n      dup2\n      mstore\n      0x20\n      add\n      swap1\n      dup2\n      mstore\n      0x20\n      add\n      0x00\n      keccak256\n        /* \"contracts/access/RoleAccess.sol\":999:1019  roles[roleId].roleId */\n      0x00\n      add\n      sload\n        /* \"contracts/access/RoleAccess.sol\":999:1024  roles[roleId].roleId != 0 */\n      sub\n        /* \"contracts/access/RoleAccess.sol\":991:1044  require(roles[roleId].roleId != 0, \"Invalid role ID\") */\n      tag_59\n      jumpi\n      mload(0x40)\n      0x08c379a000000000000000000000000000000000000000000000000000000000\n      dup2\n      mstore\n      0x04\n      add\n      tag_60\n      swap1\n      tag_61\n      jump\t// in\n    tag_60:\n      mload(0x40)\n      dup1\n      swap2\n      sub\n      swap1\n      revert\n    tag_59:\n        /* \"contracts/access/RoleAccess.sol\":1074:1079  roles */\n      0x02\n        /* \"contracts/access/RoleAccess.sol\":1074:1087  roles[roleId] */\n      0x00\n        /* \"contracts/access/RoleAccess.sol\":1080:1086  roleId */\n      dup3\n        /* \"contracts/access/RoleAccess.sol\":1074:1087  roles[roleId] */\n      dup2\n      mstore\n      0x20\n      add\n      swap1\n      dup2\n      mstore\n      0x20\n      add\n      0x00\n      keccak256\n        /* \"contracts/access/RoleAccess.sol\":1054:1062  userRole */\n      0x01\n        /* \"contracts/access/RoleAccess.sol\":1054:1071  userRole[account] */\n      0x00\n        /* \"contracts/access/RoleAccess.sol\":1063:1070  account */\n      dup5\n        /* \"contracts/access/RoleAccess.sol\":1054:1071  userRole[account] */\n      0xffffffffffffffffffffffffffffffffffffffff\n      and\n      0xffffffffffffffffffffffffffffffffffffffff\n      and\n      dup2\n      mstore\n      0x20\n      add\n      swap1\n      dup2\n      mstore\n      0x20\n      add\n      0x00\n      keccak256\n        /* \"contracts/access/RoleAccess.sol\":1054:1087  userRole[account] = roles[roleId] */\n      0x00\n      dup3\n      add\n      sload\n      dup2\n      0x00\n      add\n      sstore\n      0x01\n      dup3\n      add\n      0x00\n      swap1\n      sload\n      swap1\n      0x0100\n      exp\n      swap1\n      div\n      0xff\n      and\n      dup2\n      0x01\n      add\n      exp(0x0100, 0x00)\n      dup2\n      sload\n      dup2\n      0xff\n      mul\n      not\n      and\n      swap1\n      dup4\n      0x01\n      dup2\n      gt\n      iszero\n      tag_62\n      jumpi\n      tag_63\n      tag_49\n      jump\t// in\n    tag_63:\n    tag_62:\n      mul\n      or\n      swap1\n      sstore\n      pop\n      0x02\n      dup3\n      add\n      dup2\n      0x02\n      add\n      swap1\n      dup2\n      tag_64\n      swap2\n      swap1\n      tag_65\n      jump\t// in\n    tag_64:\n      pop\n      swap1\n      pop\n      pop\n        /* \"contracts/access/RoleAccess.sol\":1115:1122  account */\n      dup2\n        /* \"contracts/access/RoleAccess.sol\":1102:1163  RoleAssigned(account, roles[roleId].name, roles[roleId].role) */\n      0xffffffffffffffffffffffffffffffffffffffff\n      and\n      0x1b8f42edc9b7affbd109fc6a03d57fbec6495325facd626fac3dd8917a73e375\n        /* \"contracts/access/RoleAccess.sol\":1124:1129  roles */\n      0x02\n        /* \"contracts/access/RoleAccess.sol\":1124:1137  roles[roleId] */\n      0x00\n        /* \"contracts/access/RoleAccess.sol\":1130:1136  roleId */\n      dup5\n        /* \"contracts/access/RoleAccess.sol\":1124:1137  roles[roleId] */\n      dup2\n      mstore\n      0x20\n      add\n      swap1\n      dup2\n      mstore\n      0x20\n      add\n      0x00\n      keccak256\n        /* \"contracts/access/RoleAccess.sol\":1124:1142  roles[roleId].name */\n      0x02\n      add\n        /* \"contracts/access/RoleAccess.sol\":1144:1149  roles */\n      0x02\n        /* \"contracts/access/RoleAccess.sol\":1144:1157  roles[roleId] */\n      0x00\n        /* \"contracts/access/RoleAccess.sol\":1150:1156  roleId */\n      dup6\n        /* \"contracts/access/RoleAccess.sol\":1144:1157  roles[roleId] */\n      dup2\n      mstore\n      0x20\n      add\n      swap1\n      dup2\n      mstore\n      0x20\n      add\n      0x00\n      keccak256\n        /* \"contracts/access/RoleAccess.sol\":1144:1162  roles[roleId].role */\n      0x01\n      add\n      0x00\n      swap1\n      sload\n      swap1\n      0x0100\n      exp\n      swap1\n      div\n      0xff\n      and\n        /* \"contracts/access/RoleAccess.sol\":1102:1163  RoleAssigned(account, roles[roleId].name, roles[roleId].role) */\n      mload(0x40)\n      tag_66\n      swap3\n      swap2\n      swap1\n      tag_67\n      jump\t// in\n    tag_66:\n      mload(0x40)\n      dup1\n      swap2\n      sub\n      swap1\n      log2\n        /* \"contracts/access/RoleAccess.sol\":919:1170  function assignRole(address account, uint256 roleId) external {... */\n      pop\n      pop\n      jump\t// out\n        /* \"contracts/access/RoleAccess.sol\":1634:1834  function revokeRole(address account) external  {... */\n    tag_23:\n        /* \"contracts/access/RoleAccess.sol\":1727:1728  0 */\n      0x00\n        /* \"contracts/access/RoleAccess.sol\":1699:1707  userRole */\n      0x01\n        /* \"contracts/access/RoleAccess.sol\":1699:1716  userRole[account] */\n      0x00\n        /* \"contracts/access/RoleAccess.sol\":1708:1715  account */\n      dup4\n        /* \"contracts/access/RoleAccess.sol\":1699:1716  userRole[account] */\n      0xffffffffffffffffffffffffffffffffffffffff\n      and\n      0xffffffffffffffffffffffffffffffffffffffff\n      and\n      dup2\n      mstore\n      0x20\n      add\n      swap1\n      dup2\n      mstore\n      0x20\n      add\n      0x00\n      keccak256\n        /* \"contracts/access/RoleAccess.sol\":1699:1723  userRole[account].roleId */\n      0x00\n      add\n      sload\n        /* \"contracts/access/RoleAccess.sol\":1699:1728  userRole[account].roleId != 0 */\n      sub\n        /* \"contracts/access/RoleAccess.sol\":1691:1758  require(userRole[account].roleId != 0, \"User has no role assigned\") */\n      tag_69\n      jumpi\n      mload(0x40)\n      0x08c379a000000000000000000000000000000000000000000000000000000000\n      dup2\n      mstore\n      0x04\n      add\n      tag_70\n      swap1\n      tag_46\n      jump\t// in\n    tag_70:\n      mload(0x40)\n      dup1\n      swap2\n      sub\n      swap1\n      revert\n    tag_69:\n        /* \"contracts/access/RoleAccess.sol\":1775:1783  userRole */\n      0x01\n        /* \"contracts/access/RoleAccess.sol\":1775:1792  userRole[account] */\n      0x00\n        /* \"contracts/access/RoleAccess.sol\":1784:1791  account */\n      dup3\n        /* \"contracts/access/RoleAccess.sol\":1775:1792  userRole[account] */\n      0xffffffffffffffffffffffffffffffffffffffff\n      and\n      0xffffffffffffffffffffffffffffffffffffffff\n      and\n      dup2\n      mstore\n      0x20\n      add\n      swap1\n      dup2\n      mstore\n      0x20\n      add\n      0x00\n      keccak256\n      0x00\n        /* \"contracts/access/RoleAccess.sol\":1768:1792  delete userRole[account] */\n      0x00\n      dup3\n      add\n      0x00\n      swap1\n      sstore\n      0x01\n      dup3\n      add\n      exp(0x0100, 0x00)\n      dup2\n      sload\n      swap1\n      0xff\n      mul\n      not\n      and\n      swap1\n      sstore\n      0x02\n      dup3\n      add\n      0x00\n      tag_71\n      swap2\n      swap1\n      tag_72\n      jump\t// in\n    tag_71:\n      pop\n      pop\n        /* \"contracts/access/RoleAccess.sol\":1819:1826  account */\n      dup1\n        /* \"contracts/access/RoleAccess.sol\":1807:1827  RoleRevoked(account) */\n      0xffffffffffffffffffffffffffffffffffffffff\n      and\n      0x6107a4a5447a4208ba14e3ec240bccf0a93828124ccf501af04601031070b183\n      mload(0x40)\n      mload(0x40)\n      dup1\n      swap2\n      sub\n      swap1\n      log2\n        /* \"contracts/access/RoleAccess.sol\":1634:1834  function revokeRole(address account) external  {... */\n      pop\n      jump\t// out\n        /* \"contracts/access/RoleAccess.sol\":2651:2732  function getOwner() external view returns (address) {... */\n    tag_25:\n        /* \"contracts/access/RoleAccess.sol\":2694:2701  address */\n      0x00\n        /* \"contracts/access/RoleAccess.sol\":2720:2725  owner */\n      0x00\n      0x00\n      swap1\n      sload\n      swap1\n      0x0100\n      exp\n      swap1\n      div\n      0xffffffffffffffffffffffffffffffffffffffff\n      and\n        /* \"contracts/access/RoleAccess.sol\":2713:2725  return owner */\n      swap1\n      pop\n        /* \"contracts/access/RoleAccess.sol\":2651:2732  function getOwner() external view returns (address) {... */\n      swap1\n      jump\t// out\n        /* \"contracts/access/RoleAccess.sol\":120:140  address public owner */\n    tag_29:\n      0x00\n      0x00\n      swap1\n      sload\n      swap1\n      0x0100\n      exp\n      swap1\n      div\n      0xffffffffffffffffffffffffffffffffffffffff\n      and\n      dup2\n      jump\t// out\n        /* \"contracts/access/RoleAccess.sol\":2425:2645  function hasRole(address account, RoleType roleType) external view returns (bool) {... */\n    tag_34:\n        /* \"contracts/access/RoleAccess.sol\":2501:2505  bool */\n      0x00\n        /* \"contracts/access/RoleAccess.sol\":2548:2549  0 */\n      0x00\n        /* \"contracts/access/RoleAccess.sol\":2520:2528  userRole */\n      0x01\n        /* \"contracts/access/RoleAccess.sol\":2520:2537  userRole[account] */\n      0x00\n        /* \"contracts/access/RoleAccess.sol\":2529:2536  account */\n      dup6\n        /* \"contracts/access/RoleAccess.sol\":2520:2537  userRole[account] */\n      0xffffffffffffffffffffffffffffffffffffffff\n      and\n      0xffffffffffffffffffffffffffffffffffffffff\n      and\n      dup2\n      mstore\n      0x20\n      add\n      swap1\n      dup2\n      mstore\n      0x20\n      add\n      0x00\n      keccak256\n        /* \"contracts/access/RoleAccess.sol\":2520:2544  userRole[account].roleId */\n      0x00\n      add\n      sload\n        /* \"contracts/access/RoleAccess.sol\":2520:2549  userRole[account].roleId == 0 */\n      sub\n        /* \"contracts/access/RoleAccess.sol\":2517:2587  if(userRole[account].roleId == 0){... */\n      tag_75\n      jumpi\n        /* \"contracts/access/RoleAccess.sol\":2571:2576  false */\n      0x00\n        /* \"contracts/access/RoleAccess.sol\":2564:2576  return false */\n      swap1\n      pop\n      jump(tag_74)\n        /* \"contracts/access/RoleAccess.sol\":2517:2587  if(userRole[account].roleId == 0){... */\n    tag_75:\n        /* \"contracts/access/RoleAccess.sol\":2630:2638  roleType */\n      dup2\n        /* \"contracts/access/RoleAccess.sol\":2604:2638  userRole[account].role == roleType */\n      0x01\n      dup2\n      gt\n      iszero\n      tag_76\n      jumpi\n      tag_77\n      tag_49\n      jump\t// in\n    tag_77:\n    tag_76:\n        /* \"contracts/access/RoleAccess.sol\":2604:2612  userRole */\n      0x01\n        /* \"contracts/access/RoleAccess.sol\":2604:2621  userRole[account] */\n      0x00\n        /* \"contracts/access/RoleAccess.sol\":2613:2620  account */\n      dup6\n        /* \"contracts/access/RoleAccess.sol\":2604:2621  userRole[account] */\n      0xffffffffffffffffffffffffffffffffffffffff\n      and\n      0xffffffffffffffffffffffffffffffffffffffff\n      and\n      dup2\n      mstore\n      0x20\n      add\n      swap1\n      dup2\n      mstore\n      0x20\n      add\n      0x00\n      keccak256\n        /* \"contracts/access/RoleAccess.sol\":2604:2626  userRole[account].role */\n      0x01\n      add\n      0x00\n      swap1\n      sload\n      swap1\n      0x0100\n      exp\n      swap1\n      div\n      0xff\n      and\n        /* \"contracts/access/RoleAccess.sol\":2604:2638  userRole[account].role == roleType */\n      0x01\n      dup2\n      gt\n      iszero\n      tag_78\n      jumpi\n      tag_79\n      tag_49\n      jump\t// in\n    tag_79:\n    tag_78:\n      eq\n        /* \"contracts/access/RoleAccess.sol\":2597:2638  return userRole[account].role == roleType */\n      swap1\n      pop\n        /* \"contracts/access/RoleAccess.sol\":2425:2645  function hasRole(address account, RoleType roleType) external view returns (bool) {... */\n    tag_74:\n      swap3\n      swap2\n      pop\n      pop\n      jump\t// out\n        /* \"contracts/access/RoleAccess.sol\":2102:2366  function getAllRoles() external view returns (Role[] memory) {... */\n    tag_38:\n        /* \"contracts/access/RoleAccess.sol\":2148:2161  Role[] memory */\n      0x60\n        /* \"contracts/access/RoleAccess.sol\":2173:2195  Role[] memory allRoles */\n      0x00\n        /* \"contracts/access/RoleAccess.sol\":2209:2217  arrRoles */\n      0x03\n        /* \"contracts/access/RoleAccess.sol\":2209:2224  arrRoles.length */\n      dup1\n      sload\n      swap1\n      pop\n        /* \"contracts/access/RoleAccess.sol\":2198:2225  new Role[](arrRoles.length) */\n      0xffffffffffffffff\n      dup2\n      gt\n      iszero\n      tag_81\n      jumpi\n      tag_82\n      tag_83\n      jump\t// in\n    tag_82:\n    tag_81:\n      mload(0x40)\n      swap1\n      dup1\n      dup3\n      mstore\n      dup1\n      0x20\n      mul\n      0x20\n      add\n      dup3\n      add\n      0x40\n      mstore\n      dup1\n      iszero\n      tag_84\n      jumpi\n      dup2\n      0x20\n      add\n    tag_85:\n      tag_86\n      tag_42\n      jump\t// in\n    tag_86:\n      dup2\n      mstore\n      0x20\n      add\n      swap1\n      0x01\n      swap1\n      sub\n      swap1\n      dup2\n      tag_85\n      jumpi\n      swap1\n      pop\n    tag_84:\n      pop\n        /* \"contracts/access/RoleAccess.sol\":2173:2225  Role[] memory allRoles = new Role[](arrRoles.length) */\n      swap1\n      pop\n        /* \"contracts/access/RoleAccess.sol\":2240:2246  uint i */\n      0x00\n        /* \"contracts/access/RoleAccess.sol\":2249:2250  0 */\n      0x00\n        /* \"contracts/access/RoleAccess.sol\":2240:2250  uint i = 0 */\n      swap1\n      pop\n        /* \"contracts/access/RoleAccess.sol\":2235:2335  for (uint i = 0; i < arrRoles.length; i++) {... */\n    tag_87:\n        /* \"contracts/access/RoleAccess.sol\":2256:2264  arrRoles */\n      0x03\n        /* \"contracts/access/RoleAccess.sol\":2256:2271  arrRoles.length */\n      dup1\n      sload\n      swap1\n      pop\n        /* \"contracts/access/RoleAccess.sol\":2252:2253  i */\n      dup2\n        /* \"contracts/access/RoleAccess.sol\":2252:2271  i < arrRoles.length */\n      lt\n        /* \"contracts/access/RoleAccess.sol\":2235:2335  for (uint i = 0; i < arrRoles.length; i++) {... */\n      iszero\n      tag_88\n      jumpi\n        /* \"contracts/access/RoleAccess.sol\":2306:2311  roles */\n      0x02\n        /* \"contracts/access/RoleAccess.sol\":2306:2324  roles[arrRoles[i]] */\n      0x00\n        /* \"contracts/access/RoleAccess.sol\":2312:2320  arrRoles */\n      0x03\n        /* \"contracts/access/RoleAccess.sol\":2321:2322  i */\n      dup4\n        /* \"contracts/access/RoleAccess.sol\":2312:2323  arrRoles[i] */\n      dup2\n      sload\n      dup2\n      lt\n      tag_90\n      jumpi\n      tag_91\n      tag_92\n      jump\t// in\n    tag_91:\n    tag_90:\n      swap1\n      0x00\n      mstore\n      keccak256(0x00, 0x20)\n      add\n      sload\n        /* \"contracts/access/RoleAccess.sol\":2306:2324  roles[arrRoles[i]] */\n      dup2\n      mstore\n      0x20\n      add\n      swap1\n      dup2\n      mstore\n      0x20\n      add\n      0x00\n      keccak256\n        /* \"contracts/access/RoleAccess.sol\":2292:2324  allRoles[i] = roles[arrRoles[i]] */\n      mload(0x40)\n      dup1\n      0x60\n      add\n      0x40\n      mstore\n      swap1\n      dup2\n      0x00\n      dup3\n      add\n      sload\n      dup2\n      mstore\n      0x20\n      add\n      0x01\n      dup3\n      add\n      0x00\n      swap1\n      sload\n      swap1\n      0x0100\n      exp\n      swap1\n      div\n      0xff\n      and\n      0x01\n      dup2\n      gt\n      iszero\n      tag_94\n      jumpi\n      tag_95\n      tag_49\n      jump\t// in\n    tag_95:\n    tag_94:\n      0x01\n      dup2\n      gt\n      iszero\n      tag_96\n      jumpi\n      tag_97\n      tag_49\n      jump\t// in\n    tag_97:\n    tag_96:\n      dup2\n      mstore\n      0x20\n      add\n      0x02\n      dup3\n      add\n      dup1\n      sload\n      tag_98\n      swap1\n      tag_53\n      jump\t// in\n    tag_98:\n      dup1\n      0x1f\n      add\n      0x20\n      dup1\n      swap2\n      div\n      mul\n      0x20\n      add\n      mload(0x40)\n      swap1\n      dup2\n      add\n      0x40\n      mstore\n      dup1\n      swap3\n      swap2\n      swap1\n      dup2\n      dup2\n      mstore\n      0x20\n      add\n      dup3\n      dup1\n      sload\n      tag_99\n      swap1\n      tag_53\n      jump\t// in\n    tag_99:\n      dup1\n      iszero\n      tag_100\n      jumpi\n      dup1\n      0x1f\n      lt\n      tag_101\n      jumpi\n      0x0100\n      dup1\n      dup4\n      sload\n      div\n      mul\n      dup4\n      mstore\n      swap2\n      0x20\n      add\n      swap2\n      jump(tag_100)\n    tag_101:\n      dup3\n      add\n      swap2\n      swap1\n      0x00\n      mstore\n      keccak256(0x00, 0x20)\n      swap1\n    tag_102:\n      dup2\n      sload\n      dup2\n      mstore\n      swap1\n      0x01\n      add\n      swap1\n      0x20\n      add\n      dup1\n      dup4\n      gt\n      tag_102\n      jumpi\n      dup3\n      swap1\n      sub\n      0x1f\n      and\n      dup3\n      add\n      swap2\n    tag_100:\n      pop\n      pop\n      pop\n      pop\n      pop\n      dup2\n      mstore\n      pop\n      pop\n        /* \"contracts/access/RoleAccess.sol\":2292:2300  allRoles */\n      dup3\n        /* \"contracts/access/RoleAccess.sol\":2301:2302  i */\n      dup3\n        /* \"contracts/access/RoleAccess.sol\":2292:2303  allRoles[i] */\n      dup2\n      mload\n      dup2\n      lt\n      tag_103\n      jumpi\n      tag_104\n      tag_92\n      jump\t// in\n    tag_104:\n    tag_103:\n      0x20\n      mul\n      0x20\n      add\n      add\n        /* \"contracts/access/RoleAccess.sol\":2292:2324  allRoles[i] = roles[arrRoles[i]] */\n      dup2\n      swap1\n      mstore\n      pop\n        /* \"contracts/access/RoleAccess.sol\":2273:2276  i++ */\n      dup1\n      dup1\n      0x01\n      add\n      swap2\n      pop\n      pop\n        /* \"contracts/access/RoleAccess.sol\":2235:2335  for (uint i = 0; i < arrRoles.length; i++) {... */\n      jump(tag_87)\n    tag_88:\n      pop\n        /* \"contracts/access/RoleAccess.sol\":2351:2359  allRoles */\n      dup1\n        /* \"contracts/access/RoleAccess.sol\":2344:2359  return allRoles */\n      swap2\n      pop\n      pop\n        /* \"contracts/access/RoleAccess.sol\":2102:2366  function getAllRoles() external view returns (Role[] memory) {... */\n      swap1\n      jump\t// out\n    tag_42:\n      mload(0x40)\n      dup1\n      0x60\n      add\n      0x40\n      mstore\n      dup1\n      0x00\n      dup2\n      mstore\n      0x20\n      add\n      0x00\n      0x01\n      dup2\n      gt\n      iszero\n      tag_105\n      jumpi\n      tag_106\n      tag_49\n      jump\t// in\n    tag_106:\n    tag_105:\n      dup2\n      mstore\n      0x20\n      add\n      0x60\n      dup2\n      mstore\n      pop\n      swap1\n      jump\t// out\n    tag_72:\n      pop\n      dup1\n      sload\n      tag_107\n      swap1\n      tag_53\n      jump\t// in\n    tag_107:\n      0x00\n      dup3\n      sstore\n      dup1\n      0x1f\n      lt\n      tag_109\n      jumpi\n      pop\n      jump(tag_108)\n    tag_109:\n      0x1f\n      add\n      0x20\n      swap1\n      div\n      swap1\n      0x00\n      mstore\n      keccak256(0x00, 0x20)\n      swap1\n      dup2\n      add\n      swap1\n      tag_110\n      swap2\n      swap1\n      tag_111\n      jump\t// in\n    tag_110:\n    tag_108:\n      pop\n      jump\t// out\n    tag_111:\n    tag_112:\n      dup1\n      dup3\n      gt\n      iszero\n      tag_113\n      jumpi\n      0x00\n      dup2\n      0x00\n      swap1\n      sstore\n      pop\n      0x01\n      add\n      jump(tag_112)\n    tag_113:\n      pop\n      swap1\n      jump\t// out\n        /* \"#utility.yul\":88:205   */\n    tag_115:\n        /* \"#utility.yul\":197:198   */\n      0x00\n        /* \"#utility.yul\":194:195   */\n      0x00\n        /* \"#utility.yul\":187:199   */\n      revert\n        /* \"#utility.yul\":334:460   */\n    tag_117:\n        /* \"#utility.yul\":371:378   */\n      0x00\n        /* \"#utility.yul\":411:453   */\n      0xffffffffffffffffffffffffffffffffffffffff\n        /* \"#utility.yul\":404:409   */\n      dup3\n        /* \"#utility.yul\":400:454   */\n      and\n        /* \"#utility.yul\":389:454   */\n      swap1\n      pop\n        /* \"#utility.yul\":334:460   */\n      swap2\n      swap1\n      pop\n      jump\t// out\n        /* \"#utility.yul\":466:562   */\n    tag_118:\n        /* \"#utility.yul\":503:510   */\n      0x00\n        /* \"#utility.yul\":532:556   */\n      tag_177\n        /* \"#utility.yul\":550:555   */\n      dup3\n        /* \"#utility.yul\":532:556   */\n      tag_117\n      jump\t// in\n    tag_177:\n        /* \"#utility.yul\":521:556   */\n      swap1\n      pop\n        /* \"#utility.yul\":466:562   */\n      swap2\n      swap1\n      pop\n      jump\t// out\n        /* \"#utility.yul\":568:690   */\n    tag_119:\n        /* \"#utility.yul\":641:665   */\n      tag_179\n        /* \"#utility.yul\":659:664   */\n      dup2\n        /* \"#utility.yul\":641:665   */\n      tag_118\n      jump\t// in\n    tag_179:\n        /* \"#utility.yul\":634:639   */\n      dup2\n        /* \"#utility.yul\":631:666   */\n      eq\n        /* \"#utility.yul\":621:684   */\n      tag_180\n      jumpi\n        /* \"#utility.yul\":680:681   */\n      0x00\n        /* \"#utility.yul\":677:678   */\n      0x00\n        /* \"#utility.yul\":670:682   */\n      revert\n        /* \"#utility.yul\":621:684   */\n    tag_180:\n        /* \"#utility.yul\":568:690   */\n      pop\n      jump\t// out\n        /* \"#utility.yul\":696:835   */\n    tag_120:\n        /* \"#utility.yul\":742:747   */\n      0x00\n        /* \"#utility.yul\":780:786   */\n      dup2\n        /* \"#utility.yul\":767:787   */\n      calldataload\n        /* \"#utility.yul\":758:787   */\n      swap1\n      pop\n        /* \"#utility.yul\":796:829   */\n      tag_182\n        /* \"#utility.yul\":823:828   */\n      dup2\n        /* \"#utility.yul\":796:829   */\n      tag_119\n      jump\t// in\n    tag_182:\n        /* \"#utility.yul\":696:835   */\n      swap3\n      swap2\n      pop\n      pop\n      jump\t// out\n        /* \"#utility.yul\":841:1170   */\n    tag_13:\n        /* \"#utility.yul\":900:906   */\n      0x00\n        /* \"#utility.yul\":949:951   */\n      0x20\n        /* \"#utility.yul\":937:946   */\n      dup3\n        /* \"#utility.yul\":928:935   */\n      dup5\n        /* \"#utility.yul\":924:947   */\n      sub\n        /* \"#utility.yul\":920:952   */\n      slt\n        /* \"#utility.yul\":917:1036   */\n      iszero\n      tag_184\n      jumpi\n        /* \"#utility.yul\":955:1034   */\n      tag_185\n      tag_115\n      jump\t// in\n    tag_185:\n        /* \"#utility.yul\":917:1036   */\n    tag_184:\n        /* \"#utility.yul\":1075:1076   */\n      0x00\n        /* \"#utility.yul\":1100:1153   */\n      tag_186\n        /* \"#utility.yul\":1145:1152   */\n      dup5\n        /* \"#utility.yul\":1136:1142   */\n      dup3\n        /* \"#utility.yul\":1125:1134   */\n      dup6\n        /* \"#utility.yul\":1121:1143   */\n      add\n        /* \"#utility.yul\":1100:1153   */\n      tag_120\n      jump\t// in\n    tag_186:\n        /* \"#utility.yul\":1090:1153   */\n      swap2\n      pop\n        /* \"#utility.yul\":1046:1163   */\n      pop\n        /* \"#utility.yul\":841:1170   */\n      swap3\n      swap2\n      pop\n      pop\n      jump\t// out\n        /* \"#utility.yul\":1176:1253   */\n    tag_121:\n        /* \"#utility.yul\":1213:1220   */\n      0x00\n        /* \"#utility.yul\":1242:1247   */\n      dup2\n        /* \"#utility.yul\":1231:1247   */\n      swap1\n      pop\n        /* \"#utility.yul\":1176:1253   */\n      swap2\n      swap1\n      pop\n      jump\t// out\n        /* \"#utility.yul\":1259:1367   */\n    tag_122:\n        /* \"#utility.yul\":1336:1360   */\n      tag_189\n        /* \"#utility.yul\":1354:1359   */\n      dup2\n        /* \"#utility.yul\":1336:1360   */\n      tag_121\n      jump\t// in\n    tag_189:\n        /* \"#utility.yul\":1331:1334   */\n      dup3\n        /* \"#utility.yul\":1324:1361   */\n      mstore\n        /* \"#utility.yul\":1259:1367   */\n      pop\n      pop\n      jump\t// out\n        /* \"#utility.yul\":1373:1553   */\n    tag_49:\n        /* \"#utility.yul\":1421:1498   */\n      0x4e487b7100000000000000000000000000000000000000000000000000000000\n        /* \"#utility.yul\":1418:1419   */\n      0x00\n        /* \"#utility.yul\":1411:1499   */\n      mstore\n        /* \"#utility.yul\":1518:1522   */\n      0x21\n        /* \"#utility.yul\":1515:1516   */\n      0x04\n        /* \"#utility.yul\":1508:1523   */\n      mstore\n        /* \"#utility.yul\":1542:1546   */\n      0x24\n        /* \"#utility.yul\":1539:1540   */\n      0x00\n        /* \"#utility.yul\":1532:1547   */\n      revert\n        /* \"#utility.yul\":1559:1676   */\n    tag_123:\n        /* \"#utility.yul\":1644:1645   */\n      0x02\n        /* \"#utility.yul\":1637:1642   */\n      dup2\n        /* \"#utility.yul\":1634:1646   */\n      lt\n        /* \"#utility.yul\":1624:1670   */\n      tag_192\n      jumpi\n        /* \"#utility.yul\":1650:1668   */\n      tag_193\n      tag_49\n      jump\t// in\n    tag_193:\n        /* \"#utility.yul\":1624:1670   */\n    tag_192:\n        /* \"#utility.yul\":1559:1676   */\n      pop\n      jump\t// out\n        /* \"#utility.yul\":1682:1817   */\n    tag_124:\n        /* \"#utility.yul\":1731:1738   */\n      0x00\n        /* \"#utility.yul\":1760:1765   */\n      dup2\n        /* \"#utility.yul\":1749:1765   */\n      swap1\n      pop\n        /* \"#utility.yul\":1766:1811   */\n      tag_195\n        /* \"#utility.yul\":1805:1810   */\n      dup3\n        /* \"#utility.yul\":1766:1811   */\n      tag_123\n      jump\t// in\n    tag_195:\n        /* \"#utility.yul\":1682:1817   */\n      swap2\n      swap1\n      pop\n      jump\t// out\n        /* \"#utility.yul\":1823:1958   */\n    tag_125:\n        /* \"#utility.yul\":1883:1892   */\n      0x00\n        /* \"#utility.yul\":1916:1952   */\n      tag_197\n        /* \"#utility.yul\":1946:1951   */\n      dup3\n        /* \"#utility.yul\":1916:1952   */\n      tag_124\n      jump\t// in\n    tag_197:\n        /* \"#utility.yul\":1903:1952   */\n      swap1\n      pop\n        /* \"#utility.yul\":1823:1958   */\n      swap2\n      swap1\n      pop\n      jump\t// out\n        /* \"#utility.yul\":1964:2105   */\n    tag_126:\n        /* \"#utility.yul\":2051:2098   */\n      tag_199\n        /* \"#utility.yul\":2092:2097   */\n      dup2\n        /* \"#utility.yul\":2051:2098   */\n      tag_125\n      jump\t// in\n    tag_199:\n        /* \"#utility.yul\":2046:2049   */\n      dup3\n        /* \"#utility.yul\":2039:2099   */\n      mstore\n        /* \"#utility.yul\":1964:2105   */\n      pop\n      pop\n      jump\t// out\n        /* \"#utility.yul\":2111:2210   */\n    tag_127:\n        /* \"#utility.yul\":2163:2169   */\n      0x00\n        /* \"#utility.yul\":2197:2202   */\n      dup2\n        /* \"#utility.yul\":2191:2203   */\n      mload\n        /* \"#utility.yul\":2181:2203   */\n      swap1\n      pop\n        /* \"#utility.yul\":2111:2210   */\n      swap2\n      swap1\n      pop\n      jump\t// out\n        /* \"#utility.yul\":2216:2375   */\n    tag_128:\n        /* \"#utility.yul\":2290:2301   */\n      0x00\n        /* \"#utility.yul\":2324:2330   */\n      dup3\n        /* \"#utility.yul\":2319:2322   */\n      dup3\n        /* \"#utility.yul\":2312:2331   */\n      mstore\n        /* \"#utility.yul\":2364:2368   */\n      0x20\n        /* \"#utility.yul\":2359:2362   */\n      dup3\n        /* \"#utility.yul\":2355:2369   */\n      add\n        /* \"#utility.yul\":2340:2369   */\n      swap1\n      pop\n        /* \"#utility.yul\":2216:2375   */\n      swap3\n      swap2\n      pop\n      pop\n      jump\t// out\n        /* \"#utility.yul\":2381:2520   */\n    tag_129:\n        /* \"#utility.yul\":2470:2476   */\n      dup3\n        /* \"#utility.yul\":2465:2468   */\n      dup2\n        /* \"#utility.yul\":2460:2463   */\n      dup4\n        /* \"#utility.yul\":2454:2477   */\n      mcopy\n        /* \"#utility.yul\":2511:2512   */\n      0x00\n        /* \"#utility.yul\":2502:2508   */\n      dup4\n        /* \"#utility.yul\":2497:2500   */\n      dup4\n        /* \"#utility.yul\":2493:2509   */\n      add\n        /* \"#utility.yul\":2486:2513   */\n      mstore\n        /* \"#utility.yul\":2381:2520   */\n      pop\n      pop\n      pop\n      jump\t// out\n        /* \"#utility.yul\":2526:2628   */\n    tag_130:\n        /* \"#utility.yul\":2567:2573   */\n      0x00\n        /* \"#utility.yul\":2618:2620   */\n      0x1f\n        /* \"#utility.yul\":2614:2621   */\n      not\n        /* \"#utility.yul\":2609:2611   */\n      0x1f\n        /* \"#utility.yul\":2602:2607   */\n      dup4\n        /* \"#utility.yul\":2598:2612   */\n      add\n        /* \"#utility.yul\":2594:2622   */\n      and\n        /* \"#utility.yul\":2584:2622   */\n      swap1\n      pop\n        /* \"#utility.yul\":2526:2628   */\n      swap2\n      swap1\n      pop\n      jump\t// out\n        /* \"#utility.yul\":2634:2991   */\n    tag_131:\n        /* \"#utility.yul\":2712:2715   */\n      0x00\n        /* \"#utility.yul\":2740:2779   */\n      tag_205\n        /* \"#utility.yul\":2773:2778   */\n      dup3\n        /* \"#utility.yul\":2740:2779   */\n      tag_127\n      jump\t// in\n    tag_205:\n        /* \"#utility.yul\":2795:2856   */\n      tag_206\n        /* \"#utility.yul\":2849:2855   */\n      dup2\n        /* \"#utility.yul\":2844:2847   */\n      dup6\n        /* \"#utility.yul\":2795:2856   */\n      tag_128\n      jump\t// in\n    tag_206:\n        /* \"#utility.yul\":2788:2856   */\n      swap4\n      pop\n        /* \"#utility.yul\":2865:2930   */\n      tag_207\n        /* \"#utility.yul\":2923:2929   */\n      dup2\n        /* \"#utility.yul\":2918:2921   */\n      dup6\n        /* \"#utility.yul\":2911:2915   */\n      0x20\n        /* \"#utility.yul\":2904:2909   */\n      dup7\n        /* \"#utility.yul\":2900:2916   */\n      add\n        /* \"#utility.yul\":2865:2930   */\n      tag_129\n      jump\t// in\n    tag_207:\n        /* \"#utility.yul\":2955:2984   */\n      tag_208\n        /* \"#utility.yul\":2977:2983   */\n      dup2\n        /* \"#utility.yul\":2955:2984   */\n      tag_130\n      jump\t// in\n    tag_208:\n        /* \"#utility.yul\":2950:2953   */\n      dup5\n        /* \"#utility.yul\":2946:2985   */\n      add\n        /* \"#utility.yul\":2939:2985   */\n      swap2\n      pop\n        /* \"#utility.yul\":2716:2991   */\n      pop\n        /* \"#utility.yul\":2634:2991   */\n      swap3\n      swap2\n      pop\n      pop\n      jump\t// out\n        /* \"#utility.yul\":3031:3815   */\n    tag_132:\n        /* \"#utility.yul\":3142:3145   */\n      0x00\n        /* \"#utility.yul\":3178:3182   */\n      0x60\n        /* \"#utility.yul\":3173:3176   */\n      dup4\n        /* \"#utility.yul\":3169:3183   */\n      add\n        /* \"#utility.yul\":3267:3271   */\n      0x00\n        /* \"#utility.yul\":3260:3265   */\n      dup4\n        /* \"#utility.yul\":3256:3272   */\n      add\n        /* \"#utility.yul\":3250:3273   */\n      mload\n        /* \"#utility.yul\":3286:3349   */\n      tag_210\n        /* \"#utility.yul\":3343:3347   */\n      0x00\n        /* \"#utility.yul\":3338:3341   */\n      dup7\n        /* \"#utility.yul\":3334:3348   */\n      add\n        /* \"#utility.yul\":3320:3332   */\n      dup3\n        /* \"#utility.yul\":3286:3349   */\n      tag_122\n      jump\t// in\n    tag_210:\n        /* \"#utility.yul\":3193:3359   */\n      pop\n        /* \"#utility.yul\":3441:3445   */\n      0x20\n        /* \"#utility.yul\":3434:3439   */\n      dup4\n        /* \"#utility.yul\":3430:3446   */\n      add\n        /* \"#utility.yul\":3424:3447   */\n      mload\n        /* \"#utility.yul\":3460:3533   */\n      tag_211\n        /* \"#utility.yul\":3527:3531   */\n      0x20\n        /* \"#utility.yul\":3522:3525   */\n      dup7\n        /* \"#utility.yul\":3518:3532   */\n      add\n        /* \"#utility.yul\":3504:3516   */\n      dup3\n        /* \"#utility.yul\":3460:3533   */\n      tag_126\n      jump\t// in\n    tag_211:\n        /* \"#utility.yul\":3369:3543   */\n      pop\n        /* \"#utility.yul\":3625:3629   */\n      0x40\n        /* \"#utility.yul\":3618:3623   */\n      dup4\n        /* \"#utility.yul\":3614:3630   */\n      add\n        /* \"#utility.yul\":3608:3631   */\n      mload\n        /* \"#utility.yul\":3678:3681   */\n      dup5\n        /* \"#utility.yul\":3672:3676   */\n      dup3\n        /* \"#utility.yul\":3668:3682   */\n      sub\n        /* \"#utility.yul\":3661:3665   */\n      0x40\n        /* \"#utility.yul\":3656:3659   */\n      dup7\n        /* \"#utility.yul\":3652:3666   */\n      add\n        /* \"#utility.yul\":3645:3683   */\n      mstore\n        /* \"#utility.yul\":3704:3777   */\n      tag_212\n        /* \"#utility.yul\":3772:3776   */\n      dup3\n        /* \"#utility.yul\":3758:3770   */\n      dup3\n        /* \"#utility.yul\":3704:3777   */\n      tag_131\n      jump\t// in\n    tag_212:\n        /* \"#utility.yul\":3696:3777   */\n      swap2\n      pop\n        /* \"#utility.yul\":3553:3788   */\n      pop\n        /* \"#utility.yul\":3805:3809   */\n      dup1\n        /* \"#utility.yul\":3798:3809   */\n      swap2\n      pop\n        /* \"#utility.yul\":3147:3815   */\n      pop\n        /* \"#utility.yul\":3031:3815   */\n      swap3\n      swap2\n      pop\n      pop\n      jump\t// out\n        /* \"#utility.yul\":3821:4178   */\n    tag_16:\n        /* \"#utility.yul\":3956:3960   */\n      0x00\n        /* \"#utility.yul\":3994:3996   */\n      0x20\n        /* \"#utility.yul\":3983:3992   */\n      dup3\n        /* \"#utility.yul\":3979:3997   */\n      add\n        /* \"#utility.yul\":3971:3997   */\n      swap1\n      pop\n        /* \"#utility.yul\":4043:4052   */\n      dup2\n        /* \"#utility.yul\":4037:4041   */\n      dup2\n        /* \"#utility.yul\":4033:4053   */\n      sub\n        /* \"#utility.yul\":4029:4030   */\n      0x00\n        /* \"#utility.yul\":4018:4027   */\n      dup4\n        /* \"#utility.yul\":4014:4031   */\n      add\n        /* \"#utility.yul\":4007:4054   */\n      mstore\n        /* \"#utility.yul\":4071:4171   */\n      tag_214\n        /* \"#utility.yul\":4166:4170   */\n      dup2\n        /* \"#utility.yul\":4157:4163   */\n      dup5\n        /* \"#utility.yul\":4071:4171   */\n      tag_132\n      jump\t// in\n    tag_214:\n        /* \"#utility.yul\":4063:4171   */\n      swap1\n      pop\n        /* \"#utility.yul\":3821:4178   */\n      swap3\n      swap2\n      pop\n      pop\n      jump\t// out\n        /* \"#utility.yul\":4184:4306   */\n    tag_133:\n        /* \"#utility.yul\":4257:4281   */\n      tag_216\n        /* \"#utility.yul\":4275:4280   */\n      dup2\n        /* \"#utility.yul\":4257:4281   */\n      tag_121\n      jump\t// in\n    tag_216:\n        /* \"#utility.yul\":4250:4255   */\n      dup2\n        /* \"#utility.yul\":4247:4282   */\n      eq\n        /* \"#utility.yul\":4237:4300   */\n      tag_217\n      jumpi\n        /* \"#utility.yul\":4296:4297   */\n      0x00\n        /* \"#utility.yul\":4293:4294   */\n      0x00\n        /* \"#utility.yul\":4286:4298   */\n      revert\n        /* \"#utility.yul\":4237:4300   */\n    tag_217:\n        /* \"#utility.yul\":4184:4306   */\n      pop\n      jump\t// out\n        /* \"#utility.yul\":4312:4451   */\n    tag_134:\n        /* \"#utility.yul\":4358:4363   */\n      0x00\n        /* \"#utility.yul\":4396:4402   */\n      dup2\n        /* \"#utility.yul\":4383:4403   */\n      calldataload\n        /* \"#utility.yul\":4374:4403   */\n      swap1\n      pop\n        /* \"#utility.yul\":4412:4445   */\n      tag_219\n        /* \"#utility.yul\":4439:4444   */\n      dup2\n        /* \"#utility.yul\":4412:4445   */\n      tag_133\n      jump\t// in\n    tag_219:\n        /* \"#utility.yul\":4312:4451   */\n      swap3\n      swap2\n      pop\n      pop\n      jump\t// out\n        /* \"#utility.yul\":4457:4931   */\n    tag_19:\n        /* \"#utility.yul\":4525:4531   */\n      0x00\n        /* \"#utility.yul\":4533:4539   */\n      0x00\n        /* \"#utility.yul\":4582:4584   */\n      0x40\n        /* \"#utility.yul\":4570:4579   */\n      dup4\n        /* \"#utility.yul\":4561:4568   */\n      dup6\n        /* \"#utility.yul\":4557:4580   */\n      sub\n        /* \"#utility.yul\":4553:4585   */\n      slt\n        /* \"#utility.yul\":4550:4669   */\n      iszero\n      tag_221\n      jumpi\n        /* \"#utility.yul\":4588:4667   */\n      tag_222\n      tag_115\n      jump\t// in\n    tag_222:\n        /* \"#utility.yul\":4550:4669   */\n    tag_221:\n        /* \"#utility.yul\":4708:4709   */\n      0x00\n        /* \"#utility.yul\":4733:4786   */\n      tag_223\n        /* \"#utility.yul\":4778:4785   */\n      dup6\n        /* \"#utility.yul\":4769:4775   */\n      dup3\n        /* \"#utility.yul\":4758:4767   */\n      dup7\n        /* \"#utility.yul\":4754:4776   */\n      add\n        /* \"#utility.yul\":4733:4786   */\n      tag_120\n      jump\t// in\n    tag_223:\n        /* \"#utility.yul\":4723:4786   */\n      swap3\n      pop\n        /* \"#utility.yul\":4679:4796   */\n      pop\n        /* \"#utility.yul\":4835:4837   */\n      0x20\n        /* \"#utility.yul\":4861:4914   */\n      tag_224\n        /* \"#utility.yul\":4906:4913   */\n      dup6\n        /* \"#utility.yul\":4897:4903   */\n      dup3\n        /* \"#utility.yul\":4886:4895   */\n      dup7\n        /* \"#utility.yul\":4882:4904   */\n      add\n        /* \"#utility.yul\":4861:4914   */\n      tag_134\n      jump\t// in\n    tag_224:\n        /* \"#utility.yul\":4851:4914   */\n      swap2\n      pop\n        /* \"#utility.yul\":4806:4924   */\n      pop\n        /* \"#utility.yul\":4457:4931   */\n      swap3\n      pop\n      swap3\n      swap1\n      pop\n      jump\t// out\n        /* \"#utility.yul\":4937:5055   */\n    tag_135:\n        /* \"#utility.yul\":5024:5048   */\n      tag_226\n        /* \"#utility.yul\":5042:5047   */\n      dup2\n        /* \"#utility.yul\":5024:5048   */\n      tag_118\n      jump\t// in\n    tag_226:\n        /* \"#utility.yul\":5019:5022   */\n      dup3\n        /* \"#utility.yul\":5012:5049   */\n      mstore\n        /* \"#utility.yul\":4937:5055   */\n      pop\n      pop\n      jump\t// out\n        /* \"#utility.yul\":5061:5283   */\n    tag_27:\n        /* \"#utility.yul\":5154:5158   */\n      0x00\n        /* \"#utility.yul\":5192:5194   */\n      0x20\n        /* \"#utility.yul\":5181:5190   */\n      dup3\n        /* \"#utility.yul\":5177:5195   */\n      add\n        /* \"#utility.yul\":5169:5195   */\n      swap1\n      pop\n        /* \"#utility.yul\":5205:5276   */\n      tag_228\n        /* \"#utility.yul\":5273:5274   */\n      0x00\n        /* \"#utility.yul\":5262:5271   */\n      dup4\n        /* \"#utility.yul\":5258:5275   */\n      add\n        /* \"#utility.yul\":5249:5255   */\n      dup5\n        /* \"#utility.yul\":5205:5276   */\n      tag_135\n      jump\t// in\n    tag_228:\n        /* \"#utility.yul\":5061:5283   */\n      swap3\n      swap2\n      pop\n      pop\n      jump\t// out\n        /* \"#utility.yul\":5289:5400   */\n    tag_136:\n        /* \"#utility.yul\":5374:5375   */\n      0x02\n        /* \"#utility.yul\":5367:5372   */\n      dup2\n        /* \"#utility.yul\":5364:5376   */\n      lt\n        /* \"#utility.yul\":5354:5394   */\n      tag_230\n      jumpi\n        /* \"#utility.yul\":5390:5391   */\n      0x00\n        /* \"#utility.yul\":5387:5388   */\n      0x00\n        /* \"#utility.yul\":5380:5392   */\n      revert\n        /* \"#utility.yul\":5354:5394   */\n    tag_230:\n        /* \"#utility.yul\":5289:5400   */\n      pop\n      jump\t// out\n        /* \"#utility.yul\":5406:5569   */\n    tag_137:\n        /* \"#utility.yul\":5464:5469   */\n      0x00\n        /* \"#utility.yul\":5502:5508   */\n      dup2\n        /* \"#utility.yul\":5489:5509   */\n      calldataload\n        /* \"#utility.yul\":5480:5509   */\n      swap1\n      pop\n        /* \"#utility.yul\":5518:5563   */\n      tag_232\n        /* \"#utility.yul\":5557:5562   */\n      dup2\n        /* \"#utility.yul\":5518:5563   */\n      tag_136\n      jump\t// in\n    tag_232:\n        /* \"#utility.yul\":5406:5569   */\n      swap3\n      swap2\n      pop\n      pop\n      jump\t// out\n        /* \"#utility.yul\":5575:6073   */\n    tag_33:\n        /* \"#utility.yul\":5655:5661   */\n      0x00\n        /* \"#utility.yul\":5663:5669   */\n      0x00\n        /* \"#utility.yul\":5712:5714   */\n      0x40\n        /* \"#utility.yul\":5700:5709   */\n      dup4\n        /* \"#utility.yul\":5691:5698   */\n      dup6\n        /* \"#utility.yul\":5687:5710   */\n      sub\n        /* \"#utility.yul\":5683:5715   */\n      slt\n        /* \"#utility.yul\":5680:5799   */\n      iszero\n      tag_234\n      jumpi\n        /* \"#utility.yul\":5718:5797   */\n      tag_235\n      tag_115\n      jump\t// in\n    tag_235:\n        /* \"#utility.yul\":5680:5799   */\n    tag_234:\n        /* \"#utility.yul\":5838:5839   */\n      0x00\n        /* \"#utility.yul\":5863:5916   */\n      tag_236\n        /* \"#utility.yul\":5908:5915   */\n      dup6\n        /* \"#utility.yul\":5899:5905   */\n      dup3\n        /* \"#utility.yul\":5888:5897   */\n      dup7\n        /* \"#utility.yul\":5884:5906   */\n      add\n        /* \"#utility.yul\":5863:5916   */\n      tag_120\n      jump\t// in\n    tag_236:\n        /* \"#utility.yul\":5853:5916   */\n      swap3\n      pop\n        /* \"#utility.yul\":5809:5926   */\n      pop\n        /* \"#utility.yul\":5965:5967   */\n      0x20\n        /* \"#utility.yul\":5991:6056   */\n      tag_237\n        /* \"#utility.yul\":6048:6055   */\n      dup6\n        /* \"#utility.yul\":6039:6045   */\n      dup3\n        /* \"#utility.yul\":6028:6037   */\n      dup7\n        /* \"#utility.yul\":6024:6046   */\n      add\n        /* \"#utility.yul\":5991:6056   */\n      tag_137\n      jump\t// in\n    tag_237:\n        /* \"#utility.yul\":5981:6056   */\n      swap2\n      pop\n        /* \"#utility.yul\":5936:6066   */\n      pop\n        /* \"#utility.yul\":5575:6073   */\n      swap3\n      pop\n      swap3\n      swap1\n      pop\n      jump\t// out\n        /* \"#utility.yul\":6079:6169   */\n    tag_138:\n        /* \"#utility.yul\":6113:6120   */\n      0x00\n        /* \"#utility.yul\":6156:6161   */\n      dup2\n        /* \"#utility.yul\":6149:6162   */\n      iszero\n        /* \"#utility.yul\":6142:6163   */\n      iszero\n        /* \"#utility.yul\":6131:6163   */\n      swap1\n      pop\n        /* \"#utility.yul\":6079:6169   */\n      swap2\n      swap1\n      pop\n      jump\t// out\n        /* \"#utility.yul\":6175:6284   */\n    tag_139:\n        /* \"#utility.yul\":6256:6277   */\n      tag_240\n        /* \"#utility.yul\":6271:6276   */\n      dup2\n        /* \"#utility.yul\":6256:6277   */\n      tag_138\n      jump\t// in\n    tag_240:\n        /* \"#utility.yul\":6251:6254   */\n      dup3\n        /* \"#utility.yul\":6244:6278   */\n      mstore\n        /* \"#utility.yul\":6175:6284   */\n      pop\n      pop\n      jump\t// out\n        /* \"#utility.yul\":6290:6500   */\n    tag_36:\n        /* \"#utility.yul\":6377:6381   */\n      0x00\n        /* \"#utility.yul\":6415:6417   */\n      0x20\n        /* \"#utility.yul\":6404:6413   */\n      dup3\n        /* \"#utility.yul\":6400:6418   */\n      add\n        /* \"#utility.yul\":6392:6418   */\n      swap1\n      pop\n        /* \"#utility.yul\":6428:6493   */\n      tag_242\n        /* \"#utility.yul\":6490:6491   */\n      0x00\n        /* \"#utility.yul\":6479:6488   */\n      dup4\n        /* \"#utility.yul\":6475:6492   */\n      add\n        /* \"#utility.yul\":6466:6472   */\n      dup5\n        /* \"#utility.yul\":6428:6493   */\n      tag_139\n      jump\t// in\n    tag_242:\n        /* \"#utility.yul\":6290:6500   */\n      swap3\n      swap2\n      pop\n      pop\n      jump\t// out\n        /* \"#utility.yul\":6506:6641   */\n    tag_140:\n        /* \"#utility.yul\":6594:6600   */\n      0x00\n        /* \"#utility.yul\":6628:6633   */\n      dup2\n        /* \"#utility.yul\":6622:6634   */\n      mload\n        /* \"#utility.yul\":6612:6634   */\n      swap1\n      pop\n        /* \"#utility.yul\":6506:6641   */\n      swap2\n      swap1\n      pop\n      jump\t// out\n        /* \"#utility.yul\":6647:6852   */\n    tag_141:\n        /* \"#utility.yul\":6767:6778   */\n      0x00\n        /* \"#utility.yul\":6801:6807   */\n      dup3\n        /* \"#utility.yul\":6796:6799   */\n      dup3\n        /* \"#utility.yul\":6789:6808   */\n      mstore\n        /* \"#utility.yul\":6841:6845   */\n      0x20\n        /* \"#utility.yul\":6836:6839   */\n      dup3\n        /* \"#utility.yul\":6832:6846   */\n      add\n        /* \"#utility.yul\":6817:6846   */\n      swap1\n      pop\n        /* \"#utility.yul\":6647:6852   */\n      swap3\n      swap2\n      pop\n      pop\n      jump\t// out\n        /* \"#utility.yul\":6858:7011   */\n    tag_142:\n        /* \"#utility.yul\":6946:6950   */\n      0x00\n        /* \"#utility.yul\":6969:6972   */\n      dup2\n        /* \"#utility.yul\":6961:6972   */\n      swap1\n      pop\n        /* \"#utility.yul\":6999:7003   */\n      0x20\n        /* \"#utility.yul\":6994:6997   */\n      dup3\n        /* \"#utility.yul\":6990:7004   */\n      add\n        /* \"#utility.yul\":6982:7004   */\n      swap1\n      pop\n        /* \"#utility.yul\":6858:7011   */\n      swap2\n      swap1\n      pop\n      jump\t// out\n        /* \"#utility.yul\":7051:7825   */\n    tag_143:\n        /* \"#utility.yul\":7152:7155   */\n      0x00\n        /* \"#utility.yul\":7188:7192   */\n      0x60\n        /* \"#utility.yul\":7183:7186   */\n      dup4\n        /* \"#utility.yul\":7179:7193   */\n      add\n        /* \"#utility.yul\":7277:7281   */\n      0x00\n        /* \"#utility.yul\":7270:7275   */\n      dup4\n        /* \"#utility.yul\":7266:7282   */\n      add\n        /* \"#utility.yul\":7260:7283   */\n      mload\n        /* \"#utility.yul\":7296:7359   */\n      tag_247\n        /* \"#utility.yul\":7353:7357   */\n      0x00\n        /* \"#utility.yul\":7348:7351   */\n      dup7\n        /* \"#utility.yul\":7344:7358   */\n      add\n        /* \"#utility.yul\":7330:7342   */\n      dup3\n        /* \"#utility.yul\":7296:7359   */\n      tag_122\n      jump\t// in\n    tag_247:\n        /* \"#utility.yul\":7203:7369   */\n      pop\n        /* \"#utility.yul\":7451:7455   */\n      0x20\n        /* \"#utility.yul\":7444:7449   */\n      dup4\n        /* \"#utility.yul\":7440:7456   */\n      add\n        /* \"#utility.yul\":7434:7457   */\n      mload\n        /* \"#utility.yul\":7470:7543   */\n      tag_248\n        /* \"#utility.yul\":7537:7541   */\n      0x20\n        /* \"#utility.yul\":7532:7535   */\n      dup7\n        /* \"#utility.yul\":7528:7542   */\n      add\n        /* \"#utility.yul\":7514:7526   */\n      dup3\n        /* \"#utility.yul\":7470:7543   */\n      tag_126\n      jump\t// in\n    tag_248:\n        /* \"#utility.yul\":7379:7553   */\n      pop\n        /* \"#utility.yul\":7635:7639   */\n      0x40\n        /* \"#utility.yul\":7628:7633   */\n      dup4\n        /* \"#utility.yul\":7624:7640   */\n      add\n        /* \"#utility.yul\":7618:7641   */\n      mload\n        /* \"#utility.yul\":7688:7691   */\n      dup5\n        /* \"#utility.yul\":7682:7686   */\n      dup3\n        /* \"#utility.yul\":7678:7692   */\n      sub\n        /* \"#utility.yul\":7671:7675   */\n      0x40\n        /* \"#utility.yul\":7666:7669   */\n      dup7\n        /* \"#utility.yul\":7662:7676   */\n      add\n        /* \"#utility.yul\":7655:7693   */\n      mstore\n        /* \"#utility.yul\":7714:7787   */\n      tag_249\n        /* \"#utility.yul\":7782:7786   */\n      dup3\n        /* \"#utility.yul\":7768:7780   */\n      dup3\n        /* \"#utility.yul\":7714:7787   */\n      tag_131\n      jump\t// in\n    tag_249:\n        /* \"#utility.yul\":7706:7787   */\n      swap2\n      pop\n        /* \"#utility.yul\":7563:7798   */\n      pop\n        /* \"#utility.yul\":7815:7819   */\n      dup1\n        /* \"#utility.yul\":7808:7819   */\n      swap2\n      pop\n        /* \"#utility.yul\":7157:7825   */\n      pop\n        /* \"#utility.yul\":7051:7825   */\n      swap3\n      swap2\n      pop\n      pop\n      jump\t// out\n        /* \"#utility.yul\":7831:8071   */\n    tag_144:\n        /* \"#utility.yul\":7942:7952   */\n      0x00\n        /* \"#utility.yul\":7977:8065   */\n      tag_251\n        /* \"#utility.yul\":8061:8064   */\n      dup4\n        /* \"#utility.yul\":8053:8059   */\n      dup4\n        /* \"#utility.yul\":7977:8065   */\n      tag_143\n      jump\t// in\n    tag_251:\n        /* \"#utility.yul\":7963:8065   */\n      swap1\n      pop\n        /* \"#utility.yul\":7831:8071   */\n      swap3\n      swap2\n      pop\n      pop\n      jump\t// out\n        /* \"#utility.yul\":8077:8211   */\n    tag_145:\n        /* \"#utility.yul\":8168:8172   */\n      0x00\n        /* \"#utility.yul\":8200:8204   */\n      0x20\n        /* \"#utility.yul\":8195:8198   */\n      dup3\n        /* \"#utility.yul\":8191:8205   */\n      add\n        /* \"#utility.yul\":8183:8205   */\n      swap1\n      pop\n        /* \"#utility.yul\":8077:8211   */\n      swap2\n      swap1\n      pop\n      jump\t// out\n        /* \"#utility.yul\":8255:9334   */\n    tag_146:\n        /* \"#utility.yul\":8416:8419   */\n      0x00\n        /* \"#utility.yul\":8445:8520   */\n      tag_254\n        /* \"#utility.yul\":8514:8519   */\n      dup3\n        /* \"#utility.yul\":8445:8520   */\n      tag_140\n      jump\t// in\n    tag_254:\n        /* \"#utility.yul\":8536:8643   */\n      tag_255\n        /* \"#utility.yul\":8636:8642   */\n      dup2\n        /* \"#utility.yul\":8631:8634   */\n      dup6\n        /* \"#utility.yul\":8536:8643   */\n      tag_141\n      jump\t// in\n    tag_255:\n        /* \"#utility.yul\":8529:8643   */\n      swap4\n      pop\n        /* \"#utility.yul\":8669:8672   */\n      dup4\n        /* \"#utility.yul\":8714:8718   */\n      0x20\n        /* \"#utility.yul\":8706:8712   */\n      dup3\n        /* \"#utility.yul\":8702:8719   */\n      mul\n        /* \"#utility.yul\":8697:8700   */\n      dup6\n        /* \"#utility.yul\":8693:8720   */\n      add\n        /* \"#utility.yul\":8744:8821   */\n      tag_256\n        /* \"#utility.yul\":8815:8820   */\n      dup6\n        /* \"#utility.yul\":8744:8821   */\n      tag_142\n      jump\t// in\n    tag_256:\n        /* \"#utility.yul\":8844:8851   */\n      dup1\n        /* \"#utility.yul\":8875:8876   */\n      0x00\n        /* \"#utility.yul\":8860:9289   */\n    tag_257:\n        /* \"#utility.yul\":8885:8891   */\n      dup6\n        /* \"#utility.yul\":8882:8883   */\n      dup2\n        /* \"#utility.yul\":8879:8892   */\n      lt\n        /* \"#utility.yul\":8860:9289   */\n      iszero\n      tag_259\n      jumpi\n        /* \"#utility.yul\":8956:8965   */\n      dup5\n        /* \"#utility.yul\":8950:8954   */\n      dup5\n        /* \"#utility.yul\":8946:8966   */\n      sub\n        /* \"#utility.yul\":8941:8944   */\n      dup10\n        /* \"#utility.yul\":8934:8967   */\n      mstore\n        /* \"#utility.yul\":9007:9013   */\n      dup2\n        /* \"#utility.yul\":9001:9014   */\n      mload\n        /* \"#utility.yul\":9035:9141   */\n      tag_260\n        /* \"#utility.yul\":9136:9140   */\n      dup6\n        /* \"#utility.yul\":9121:9134   */\n      dup3\n        /* \"#utility.yul\":9035:9141   */\n      tag_144\n      jump\t// in\n    tag_260:\n        /* \"#utility.yul\":9027:9141   */\n      swap5\n      pop\n        /* \"#utility.yul\":9164:9245   */\n      tag_261\n        /* \"#utility.yul\":9238:9244   */\n      dup4\n        /* \"#utility.yul\":9164:9245   */\n      tag_145\n      jump\t// in\n    tag_261:\n        /* \"#utility.yul\":9154:9245   */\n      swap3\n      pop\n        /* \"#utility.yul\":9274:9278   */\n      0x20\n        /* \"#utility.yul\":9269:9272   */\n      dup11\n        /* \"#utility.yul\":9265:9279   */\n      add\n        /* \"#utility.yul\":9258:9279   */\n      swap10\n      pop\n        /* \"#utility.yul\":8920:9289   */\n      pop\n        /* \"#utility.yul\":8907:8908   */\n      0x01\n        /* \"#utility.yul\":8904:8905   */\n      dup2\n        /* \"#utility.yul\":8900:8909   */\n      add\n        /* \"#utility.yul\":8895:8909   */\n      swap1\n      pop\n        /* \"#utility.yul\":8860:9289   */\n      jump(tag_257)\n    tag_259:\n        /* \"#utility.yul\":8864:8878   */\n      pop\n        /* \"#utility.yul\":9305:9309   */\n      dup3\n        /* \"#utility.yul\":9298:9309   */\n      swap8\n      pop\n        /* \"#utility.yul\":9325:9328   */\n      dup8\n        /* \"#utility.yul\":9318:9328   */\n      swap6\n      pop\n        /* \"#utility.yul\":8421:9334   */\n      pop\n      pop\n      pop\n      pop\n      pop\n        /* \"#utility.yul\":8255:9334   */\n      swap3\n      swap2\n      pop\n      pop\n      jump\t// out\n        /* \"#utility.yul\":9340:9797   */\n    tag_40:\n        /* \"#utility.yul\":9525:9529   */\n      0x00\n        /* \"#utility.yul\":9563:9565   */\n      0x20\n        /* \"#utility.yul\":9552:9561   */\n      dup3\n        /* \"#utility.yul\":9548:9566   */\n      add\n        /* \"#utility.yul\":9540:9566   */\n      swap1\n      pop\n        /* \"#utility.yul\":9612:9621   */\n      dup2\n        /* \"#utility.yul\":9606:9610   */\n      dup2\n        /* \"#utility.yul\":9602:9622   */\n      sub\n        /* \"#utility.yul\":9598:9599   */\n      0x00\n        /* \"#utility.yul\":9587:9596   */\n      dup4\n        /* \"#utility.yul\":9583:9600   */\n      add\n        /* \"#utility.yul\":9576:9623   */\n      mstore\n        /* \"#utility.yul\":9640:9790   */\n      tag_263\n        /* \"#utility.yul\":9785:9789   */\n      dup2\n        /* \"#utility.yul\":9776:9782   */\n      dup5\n        /* \"#utility.yul\":9640:9790   */\n      tag_146\n      jump\t// in\n    tag_263:\n        /* \"#utility.yul\":9632:9790   */\n      swap1\n      pop\n        /* \"#utility.yul\":9340:9797   */\n      swap3\n      swap2\n      pop\n      pop\n      jump\t// out\n        /* \"#utility.yul\":9803:9972   */\n    tag_147:\n        /* \"#utility.yul\":9887:9898   */\n      0x00\n        /* \"#utility.yul\":9921:9927   */\n      dup3\n        /* \"#utility.yul\":9916:9919   */\n      dup3\n        /* \"#utility.yul\":9909:9928   */\n      mstore\n        /* \"#utility.yul\":9961:9965   */\n      0x20\n        /* \"#utility.yul\":9956:9959   */\n      dup3\n        /* \"#utility.yul\":9952:9966   */\n      add\n        /* \"#utility.yul\":9937:9966   */\n      swap1\n      pop\n        /* \"#utility.yul\":9803:9972   */\n      swap3\n      swap2\n      pop\n      pop\n      jump\t// out\n        /* \"#utility.yul\":9978:10153   */\n    tag_148:\n        /* \"#utility.yul\":10118:10145   */\n      0x5573657220686173206e6f20726f6c652061737369676e656400000000000000\n        /* \"#utility.yul\":10114:10115   */\n      0x00\n        /* \"#utility.yul\":10106:10112   */\n      dup3\n        /* \"#utility.yul\":10102:10116   */\n      add\n        /* \"#utility.yul\":10095:10146   */\n      mstore\n        /* \"#utility.yul\":9978:10153   */\n      pop\n      jump\t// out\n        /* \"#utility.yul\":10159:10525   */\n    tag_149:\n        /* \"#utility.yul\":10301:10304   */\n      0x00\n        /* \"#utility.yul\":10322:10389   */\n      tag_267\n        /* \"#utility.yul\":10386:10388   */\n      0x19\n        /* \"#utility.yul\":10381:10384   */\n      dup4\n        /* \"#utility.yul\":10322:10389   */\n      tag_147\n      jump\t// in\n    tag_267:\n        /* \"#utility.yul\":10315:10389   */\n      swap2\n      pop\n        /* \"#utility.yul\":10398:10491   */\n      tag_268\n        /* \"#utility.yul\":10487:10490   */\n      dup3\n        /* \"#utility.yul\":10398:10491   */\n      tag_148\n      jump\t// in\n    tag_268:\n        /* \"#utility.yul\":10516:10518   */\n      0x20\n        /* \"#utility.yul\":10511:10514   */\n      dup3\n        /* \"#utility.yul\":10507:10519   */\n      add\n        /* \"#utility.yul\":10500:10519   */\n      swap1\n      pop\n        /* \"#utility.yul\":10159:10525   */\n      swap2\n      swap1\n      pop\n      jump\t// out\n        /* \"#utility.yul\":10531:10950   */\n    tag_46:\n        /* \"#utility.yul\":10697:10701   */\n      0x00\n        /* \"#utility.yul\":10735:10737   */\n      0x20\n        /* \"#utility.yul\":10724:10733   */\n      dup3\n        /* \"#utility.yul\":10720:10738   */\n      add\n        /* \"#utility.yul\":10712:10738   */\n      swap1\n      pop\n        /* \"#utility.yul\":10784:10793   */\n      dup2\n        /* \"#utility.yul\":10778:10782   */\n      dup2\n        /* \"#utility.yul\":10774:10794   */\n      sub\n        /* \"#utility.yul\":10770:10771   */\n      0x00\n        /* \"#utility.yul\":10759:10768   */\n      dup4\n        /* \"#utility.yul\":10755:10772   */\n      add\n        /* \"#utility.yul\":10748:10795   */\n      mstore\n        /* \"#utility.yul\":10812:10943   */\n      tag_270\n        /* \"#utility.yul\":10938:10942   */\n      dup2\n        /* \"#utility.yul\":10812:10943   */\n      tag_149\n      jump\t// in\n    tag_270:\n        /* \"#utility.yul\":10804:10943   */\n      swap1\n      pop\n        /* \"#utility.yul\":10531:10950   */\n      swap2\n      swap1\n      pop\n      jump\t// out\n        /* \"#utility.yul\":10956:11136   */\n    tag_150:\n        /* \"#utility.yul\":11004:11081   */\n      0x4e487b7100000000000000000000000000000000000000000000000000000000\n        /* \"#utility.yul\":11001:11002   */\n      0x00\n        /* \"#utility.yul\":10994:11082   */\n      mstore\n        /* \"#utility.yul\":11101:11105   */\n      0x22\n        /* \"#utility.yul\":11098:11099   */\n      0x04\n        /* \"#utility.yul\":11091:11106   */\n      mstore\n        /* \"#utility.yul\":11125:11129   */\n      0x24\n        /* \"#utility.yul\":11122:11123   */\n      0x00\n        /* \"#utility.yul\":11115:11130   */\n      revert\n        /* \"#utility.yul\":11142:11462   */\n    tag_53:\n        /* \"#utility.yul\":11186:11192   */\n      0x00\n        /* \"#utility.yul\":11223:11224   */\n      0x02\n        /* \"#utility.yul\":11217:11221   */\n      dup3\n        /* \"#utility.yul\":11213:11225   */\n      div\n        /* \"#utility.yul\":11203:11225   */\n      swap1\n      pop\n        /* \"#utility.yul\":11270:11271   */\n      0x01\n        /* \"#utility.yul\":11264:11268   */\n      dup3\n        /* \"#utility.yul\":11260:11272   */\n      and\n        /* \"#utility.yul\":11291:11309   */\n      dup1\n        /* \"#utility.yul\":11281:11362   */\n      tag_273\n      jumpi\n        /* \"#utility.yul\":11347:11351   */\n      0x7f\n        /* \"#utility.yul\":11339:11345   */\n      dup3\n        /* \"#utility.yul\":11335:11352   */\n      and\n        /* \"#utility.yul\":11325:11352   */\n      swap2\n      pop\n        /* \"#utility.yul\":11281:11362   */\n    tag_273:\n        /* \"#utility.yul\":11409:11411   */\n      0x20\n        /* \"#utility.yul\":11401:11407   */\n      dup3\n        /* \"#utility.yul\":11398:11412   */\n      lt\n        /* \"#utility.yul\":11378:11396   */\n      dup2\n        /* \"#utility.yul\":11375:11413   */\n      sub\n        /* \"#utility.yul\":11372:11456   */\n      tag_274\n      jumpi\n        /* \"#utility.yul\":11428:11446   */\n      tag_275\n      tag_150\n      jump\t// in\n    tag_275:\n        /* \"#utility.yul\":11372:11456   */\n    tag_274:\n        /* \"#utility.yul\":11193:11462   */\n      pop\n        /* \"#utility.yul\":11142:11462   */\n      swap2\n      swap1\n      pop\n      jump\t// out\n        /* \"#utility.yul\":11468:11633   */\n    tag_151:\n        /* \"#utility.yul\":11608:11625   */\n      0x496e76616c696420726f6c652049440000000000000000000000000000000000\n        /* \"#utility.yul\":11604:11605   */\n      0x00\n        /* \"#utility.yul\":11596:11602   */\n      dup3\n        /* \"#utility.yul\":11592:11606   */\n      add\n        /* \"#utility.yul\":11585:11626   */\n      mstore\n        /* \"#utility.yul\":11468:11633   */\n      pop\n      jump\t// out\n        /* \"#utility.yul\":11639:12005   */\n    tag_152:\n        /* \"#utility.yul\":11781:11784   */\n      0x00\n        /* \"#utility.yul\":11802:11869   */\n      tag_278\n        /* \"#utility.yul\":11866:11868   */\n      0x0f\n        /* \"#utility.yul\":11861:11864   */\n      dup4\n        /* \"#utility.yul\":11802:11869   */\n      tag_147\n      jump\t// in\n    tag_278:\n        /* \"#utility.yul\":11795:11869   */\n      swap2\n      pop\n        /* \"#utility.yul\":11878:11971   */\n      tag_279\n        /* \"#utility.yul\":11967:11970   */\n      dup3\n        /* \"#utility.yul\":11878:11971   */\n      tag_151\n      jump\t// in\n    tag_279:\n        /* \"#utility.yul\":11996:11998   */\n      0x20\n        /* \"#utility.yul\":11991:11994   */\n      dup3\n        /* \"#utility.yul\":11987:11999   */\n      add\n        /* \"#utility.yul\":11980:11999   */\n      swap1\n      pop\n        /* \"#utility.yul\":11639:12005   */\n      swap2\n      swap1\n      pop\n      jump\t// out\n        /* \"#utility.yul\":12011:12430   */\n    tag_61:\n        /* \"#utility.yul\":12177:12181   */\n      0x00\n        /* \"#utility.yul\":12215:12217   */\n      0x20\n        /* \"#utility.yul\":12204:12213   */\n      dup3\n        /* \"#utility.yul\":12200:12218   */\n      add\n        /* \"#utility.yul\":12192:12218   */\n      swap1\n      pop\n        /* \"#utility.yul\":12264:12273   */\n      dup2\n        /* \"#utility.yul\":12258:12262   */\n      dup2\n        /* \"#utility.yul\":12254:12274   */\n      sub\n        /* \"#utility.yul\":12250:12251   */\n      0x00\n        /* \"#utility.yul\":12239:12248   */\n      dup4\n        /* \"#utility.yul\":12235:12252   */\n      add\n        /* \"#utility.yul\":12228:12275   */\n      mstore\n        /* \"#utility.yul\":12292:12423   */\n      tag_281\n        /* \"#utility.yul\":12418:12422   */\n      dup2\n        /* \"#utility.yul\":12292:12423   */\n      tag_152\n      jump\t// in\n    tag_281:\n        /* \"#utility.yul\":12284:12423   */\n      swap1\n      pop\n        /* \"#utility.yul\":12011:12430   */\n      swap2\n      swap1\n      pop\n      jump\t// out\n        /* \"#utility.yul\":12436:12585   */\n    tag_153:\n        /* \"#utility.yul\":12485:12491   */\n      0x00\n        /* \"#utility.yul\":12519:12524   */\n      dup2\n        /* \"#utility.yul\":12513:12525   */\n      sload\n        /* \"#utility.yul\":12503:12525   */\n      swap1\n      pop\n        /* \"#utility.yul\":12545:12578   */\n      tag_283\n        /* \"#utility.yul\":12571:12577   */\n      dup2\n        /* \"#utility.yul\":12545:12578   */\n      tag_53\n      jump\t// in\n    tag_283:\n        /* \"#utility.yul\":12535:12578   */\n      swap1\n      pop\n        /* \"#utility.yul\":12436:12585   */\n      swap2\n      swap1\n      pop\n      jump\t// out\n        /* \"#utility.yul\":12591:12771   */\n    tag_83:\n        /* \"#utility.yul\":12639:12716   */\n      0x4e487b7100000000000000000000000000000000000000000000000000000000\n        /* \"#utility.yul\":12636:12637   */\n      0x00\n        /* \"#utility.yul\":12629:12717   */\n      mstore\n        /* \"#utility.yul\":12736:12740   */\n      0x41\n        /* \"#utility.yul\":12733:12734   */\n      0x04\n        /* \"#utility.yul\":12726:12741   */\n      mstore\n        /* \"#utility.yul\":12760:12764   */\n      0x24\n        /* \"#utility.yul\":12757:12758   */\n      0x00\n        /* \"#utility.yul\":12750:12765   */\n      revert\n        /* \"#utility.yul\":12777:12918   */\n    tag_154:\n        /* \"#utility.yul\":12826:12830   */\n      0x00\n        /* \"#utility.yul\":12849:12852   */\n      dup2\n        /* \"#utility.yul\":12841:12852   */\n      swap1\n      pop\n        /* \"#utility.yul\":12872:12875   */\n      dup2\n        /* \"#utility.yul\":12869:12870   */\n      0x00\n        /* \"#utility.yul\":12862:12876   */\n      mstore\n        /* \"#utility.yul\":12906:12910   */\n      0x20\n        /* \"#utility.yul\":12903:12904   */\n      0x00\n        /* \"#utility.yul\":12893:12911   */\n      keccak256\n        /* \"#utility.yul\":12885:12911   */\n      swap1\n      pop\n        /* \"#utility.yul\":12777:12918   */\n      swap2\n      swap1\n      pop\n      jump\t// out\n        /* \"#utility.yul\":12924:13017   */\n    tag_155:\n        /* \"#utility.yul\":12961:12967   */\n      0x00\n        /* \"#utility.yul\":13008:13010   */\n      0x20\n        /* \"#utility.yul\":13003:13005   */\n      0x1f\n        /* \"#utility.yul\":12996:13001   */\n      dup4\n        /* \"#utility.yul\":12992:13006   */\n      add\n        /* \"#utility.yul\":12988:13011   */\n      div\n        /* \"#utility.yul\":12978:13011   */\n      swap1\n      pop\n        /* \"#utility.yul\":12924:13017   */\n      swap2\n      swap1\n      pop\n      jump\t// out\n        /* \"#utility.yul\":13023:13130   */\n    tag_156:\n        /* \"#utility.yul\":13067:13075   */\n      0x00\n        /* \"#utility.yul\":13117:13122   */\n      dup3\n        /* \"#utility.yul\":13111:13115   */\n      dup3\n        /* \"#utility.yul\":13107:13123   */\n      shl\n        /* \"#utility.yul\":13086:13123   */\n      swap1\n      pop\n        /* \"#utility.yul\":13023:13130   */\n      swap3\n      swap2\n      pop\n      pop\n      jump\t// out\n        /* \"#utility.yul\":13136:13529   */\n    tag_157:\n        /* \"#utility.yul\":13205:13211   */\n      0x00\n        /* \"#utility.yul\":13255:13256   */\n      0x08\n        /* \"#utility.yul\":13243:13253   */\n      dup4\n        /* \"#utility.yul\":13239:13257   */\n      mul\n        /* \"#utility.yul\":13278:13375   */\n      tag_289\n        /* \"#utility.yul\":13308:13374   */\n      0xffffffffffffffffffffffffffffffffffffffffffffffffffffffffffffffff\n        /* \"#utility.yul\":13297:13306   */\n      dup3\n        /* \"#utility.yul\":13278:13375   */\n      tag_156\n      jump\t// in\n    tag_289:\n        /* \"#utility.yul\":13396:13435   */\n      tag_290\n        /* \"#utility.yul\":13426:13434   */\n      dup7\n        /* \"#utility.yul\":13415:13424   */\n      dup4\n        /* \"#utility.yul\":13396:13435   */\n      tag_156\n      jump\t// in\n    tag_290:\n        /* \"#utility.yul\":13384:13435   */\n      swap6\n      pop\n        /* \"#utility.yul\":13468:13472   */\n      dup1\n        /* \"#utility.yul\":13464:13473   */\n      not\n        /* \"#utility.yul\":13457:13462   */\n      dup5\n        /* \"#utility.yul\":13453:13474   */\n      and\n        /* \"#utility.yul\":13444:13474   */\n      swap4\n      pop\n        /* \"#utility.yul\":13517:13521   */\n      dup1\n        /* \"#utility.yul\":13507:13515   */\n      dup7\n        /* \"#utility.yul\":13503:13522   */\n      and\n        /* \"#utility.yul\":13496:13501   */\n      dup5\n        /* \"#utility.yul\":13493:13523   */\n      or\n        /* \"#utility.yul\":13483:13523   */\n      swap3\n      pop\n        /* \"#utility.yul\":13212:13529   */\n      pop\n      pop\n        /* \"#utility.yul\":13136:13529   */\n      swap4\n      swap3\n      pop\n      pop\n      pop\n      jump\t// out\n        /* \"#utility.yul\":13535:13595   */\n    tag_158:\n        /* \"#utility.yul\":13563:13566   */\n      0x00\n        /* \"#utility.yul\":13584:13589   */\n      dup2\n        /* \"#utility.yul\":13577:13589   */\n      swap1\n      pop\n        /* \"#utility.yul\":13535:13595   */\n      swap2\n      swap1\n      pop\n      jump\t// out\n        /* \"#utility.yul\":13601:13743   */\n    tag_159:\n        /* \"#utility.yul\":13651:13660   */\n      0x00\n        /* \"#utility.yul\":13684:13737   */\n      tag_293\n        /* \"#utility.yul\":13702:13736   */\n      tag_294\n        /* \"#utility.yul\":13711:13735   */\n      tag_295\n        /* \"#utility.yul\":13729:13734   */\n      dup5\n        /* \"#utility.yul\":13711:13735   */\n      tag_121\n      jump\t// in\n    tag_295:\n        /* \"#utility.yul\":13702:13736   */\n      tag_158\n      jump\t// in\n    tag_294:\n        /* \"#utility.yul\":13684:13737   */\n      tag_121\n      jump\t// in\n    tag_293:\n        /* \"#utility.yul\":13671:13737   */\n      swap1\n      pop\n        /* \"#utility.yul\":13601:13743   */\n      swap2\n      swap1\n      pop\n      jump\t// out\n        /* \"#utility.yul\":13749:13824   */\n    tag_160:\n        /* \"#utility.yul\":13792:13795   */\n      0x00\n        /* \"#utility.yul\":13813:13818   */\n      dup2\n        /* \"#utility.yul\":13806:13818   */\n      swap1\n      pop\n        /* \"#utility.yul\":13749:13824   */\n      swap2\n      swap1\n      pop\n      jump\t// out\n        /* \"#utility.yul\":13830:14099   */\n    tag_161:\n        /* \"#utility.yul\":13940:13979   */\n      tag_298\n        /* \"#utility.yul\":13971:13978   */\n      dup4\n        /* \"#utility.yul\":13940:13979   */\n      tag_159\n      jump\t// in\n    tag_298:\n        /* \"#utility.yul\":14001:14092   */\n      tag_299\n        /* \"#utility.yul\":14050:14091   */\n      tag_300\n        /* \"#utility.yul\":14074:14090   */\n      dup3\n        /* \"#utility.yul\":14050:14091   */\n      tag_160\n      jump\t// in\n    tag_300:\n        /* \"#utility.yul\":14042:14048   */\n      dup5\n        /* \"#utility.yul\":14035:14039   */\n      dup5\n        /* \"#utility.yul\":14029:14040   */\n      sload\n        /* \"#utility.yul\":14001:14092   */\n      tag_157\n      jump\t// in\n    tag_299:\n        /* \"#utility.yul\":13995:13999   */\n      dup3\n        /* \"#utility.yul\":13988:14093   */\n      sstore\n        /* \"#utility.yul\":13906:14099   */\n      pop\n        /* \"#utility.yul\":13830:14099   */\n      pop\n      pop\n      pop\n      jump\t// out\n        /* \"#utility.yul\":14105:14178   */\n    tag_162:\n        /* \"#utility.yul\":14150:14153   */\n      0x00\n        /* \"#utility.yul\":14171:14172   */\n      0x00\n        /* \"#utility.yul\":14164:14172   */\n      swap1\n      pop\n        /* \"#utility.yul\":14105:14178   */\n      swap1\n      jump\t// out\n        /* \"#utility.yul\":14184:14373   */\n    tag_163:\n        /* \"#utility.yul\":14261:14293   */\n      tag_303\n      tag_162\n      jump\t// in\n    tag_303:\n        /* \"#utility.yul\":14302:14367   */\n      tag_304\n        /* \"#utility.yul\":14360:14366   */\n      dup2\n        /* \"#utility.yul\":14352:14358   */\n      dup5\n        /* \"#utility.yul\":14346:14350   */\n      dup5\n        /* \"#utility.yul\":14302:14367   */\n      tag_161\n      jump\t// in\n    tag_304:\n        /* \"#utility.yul\":14237:14373   */\n      pop\n        /* \"#utility.yul\":14184:14373   */\n      pop\n      pop\n      jump\t// out\n        /* \"#utility.yul\":14379:14565   */\n    tag_164:\n        /* \"#utility.yul\":14439:14559   */\n    tag_306:\n        /* \"#utility.yul\":14456:14459   */\n      dup2\n        /* \"#utility.yul\":14449:14454   */\n      dup2\n        /* \"#utility.yul\":14446:14460   */\n      lt\n        /* \"#utility.yul\":14439:14559   */\n      iszero\n      tag_308\n      jumpi\n        /* \"#utility.yul\":14510:14549   */\n      tag_309\n        /* \"#utility.yul\":14547:14548   */\n      0x00\n        /* \"#utility.yul\":14540:14545   */\n      dup3\n        /* \"#utility.yul\":14510:14549   */\n      tag_163\n      jump\t// in\n    tag_309:\n        /* \"#utility.yul\":14483:14484   */\n      0x01\n        /* \"#utility.yul\":14476:14481   */\n      dup2\n        /* \"#utility.yul\":14472:14485   */\n      add\n        /* \"#utility.yul\":14463:14485   */\n      swap1\n      pop\n        /* \"#utility.yul\":14439:14559   */\n      jump(tag_306)\n    tag_308:\n        /* \"#utility.yul\":14379:14565   */\n      pop\n      pop\n      jump\t// out\n        /* \"#utility.yul\":14571:15114   */\n    tag_165:\n        /* \"#utility.yul\":14672:14674   */\n      0x1f\n        /* \"#utility.yul\":14667:14670   */\n      dup3\n        /* \"#utility.yul\":14664:14675   */\n      gt\n        /* \"#utility.yul\":14661:15107   */\n      iszero\n      tag_311\n      jumpi\n        /* \"#utility.yul\":14706:14744   */\n      tag_312\n        /* \"#utility.yul\":14738:14743   */\n      dup2\n        /* \"#utility.yul\":14706:14744   */\n      tag_154\n      jump\t// in\n    tag_312:\n        /* \"#utility.yul\":14790:14819   */\n      tag_313\n        /* \"#utility.yul\":14808:14818   */\n      dup5\n        /* \"#utility.yul\":14790:14819   */\n      tag_155\n      jump\t// in\n    tag_313:\n        /* \"#utility.yul\":14780:14788   */\n      dup2\n        /* \"#utility.yul\":14776:14820   */\n      add\n        /* \"#utility.yul\":14973:14975   */\n      0x20\n        /* \"#utility.yul\":14961:14971   */\n      dup6\n        /* \"#utility.yul\":14958:14976   */\n      lt\n        /* \"#utility.yul\":14955:15004   */\n      iszero\n      tag_314\n      jumpi\n        /* \"#utility.yul\":14994:15002   */\n      dup2\n        /* \"#utility.yul\":14979:15002   */\n      swap1\n      pop\n        /* \"#utility.yul\":14955:15004   */\n    tag_314:\n        /* \"#utility.yul\":15017:15097   */\n      tag_315\n        /* \"#utility.yul\":15073:15095   */\n      tag_316\n        /* \"#utility.yul\":15091:15094   */\n      dup6\n        /* \"#utility.yul\":15073:15095   */\n      tag_155\n      jump\t// in\n    tag_316:\n        /* \"#utility.yul\":15063:15071   */\n      dup4\n        /* \"#utility.yul\":15059:15096   */\n      add\n        /* \"#utility.yul\":15046:15057   */\n      dup3\n        /* \"#utility.yul\":15017:15097   */\n      tag_164\n      jump\t// in\n    tag_315:\n        /* \"#utility.yul\":14676:15107   */\n      pop\n      pop\n        /* \"#utility.yul\":14661:15107   */\n    tag_311:\n        /* \"#utility.yul\":14571:15114   */\n      pop\n      pop\n      pop\n      jump\t// out\n        /* \"#utility.yul\":15120:15237   */\n    tag_166:\n        /* \"#utility.yul\":15174:15182   */\n      0x00\n        /* \"#utility.yul\":15224:15229   */\n      dup3\n        /* \"#utility.yul\":15218:15222   */\n      dup3\n        /* \"#utility.yul\":15214:15230   */\n      shr\n        /* \"#utility.yul\":15193:15230   */\n      swap1\n      pop\n        /* \"#utility.yul\":15120:15237   */\n      swap3\n      swap2\n      pop\n      pop\n      jump\t// out\n        /* \"#utility.yul\":15243:15412   */\n    tag_167:\n        /* \"#utility.yul\":15287:15293   */\n      0x00\n        /* \"#utility.yul\":15320:15371   */\n      tag_319\n        /* \"#utility.yul\":15368:15369   */\n      0x00\n        /* \"#utility.yul\":15364:15370   */\n      not\n        /* \"#utility.yul\":15356:15361   */\n      dup5\n        /* \"#utility.yul\":15353:15354   */\n      0x08\n        /* \"#utility.yul\":15349:15362   */\n      mul\n        /* \"#utility.yul\":15320:15371   */\n      tag_166\n      jump\t// in\n    tag_319:\n        /* \"#utility.yul\":15316:15372   */\n      not\n        /* \"#utility.yul\":15401:15405   */\n      dup1\n        /* \"#utility.yul\":15395:15399   */\n      dup4\n        /* \"#utility.yul\":15391:15406   */\n      and\n        /* \"#utility.yul\":15381:15406   */\n      swap2\n      pop\n        /* \"#utility.yul\":15294:15412   */\n      pop\n        /* \"#utility.yul\":15243:15412   */\n      swap3\n      swap2\n      pop\n      pop\n      jump\t// out\n        /* \"#utility.yul\":15417:15712   */\n    tag_168:\n        /* \"#utility.yul\":15493:15497   */\n      0x00\n        /* \"#utility.yul\":15639:15668   */\n      tag_321\n        /* \"#utility.yul\":15664:15667   */\n      dup4\n        /* \"#utility.yul\":15658:15662   */\n      dup4\n        /* \"#utility.yul\":15639:15668   */\n      tag_167\n      jump\t// in\n    tag_321:\n        /* \"#utility.yul\":15631:15668   */\n      swap2\n      pop\n        /* \"#utility.yul\":15701:15704   */\n      dup3\n        /* \"#utility.yul\":15698:15699   */\n      0x02\n        /* \"#utility.yul\":15694:15705   */\n      mul\n        /* \"#utility.yul\":15688:15692   */\n      dup3\n        /* \"#utility.yul\":15685:15706   */\n      or\n        /* \"#utility.yul\":15677:15706   */\n      swap1\n      pop\n        /* \"#utility.yul\":15417:15712   */\n      swap3\n      swap2\n      pop\n      pop\n      jump\t// out\n        /* \"#utility.yul\":15717:17168   */\n    tag_65:\n        /* \"#utility.yul\":15828:15831   */\n      dup2\n        /* \"#utility.yul\":15822:15826   */\n      dup2\n        /* \"#utility.yul\":15819:15832   */\n      sub\n        /* \"#utility.yul\":15816:15842   */\n      tag_323\n      jumpi\n        /* \"#utility.yul\":15835:15840   */\n      pop\n      pop\n      jump(tag_322)\n        /* \"#utility.yul\":15816:15842   */\n    tag_323:\n        /* \"#utility.yul\":15866:15900   */\n      tag_324\n        /* \"#utility.yul\":15896:15899   */\n      dup3\n        /* \"#utility.yul\":15866:15900   */\n      tag_153\n      jump\t// in\n    tag_324:\n        /* \"#utility.yul\":15965:15983   */\n      0xffffffffffffffff\n        /* \"#utility.yul\":15957:15963   */\n      dup2\n        /* \"#utility.yul\":15954:15984   */\n      gt\n        /* \"#utility.yul\":15951:16007   */\n      iszero\n      tag_325\n      jumpi\n        /* \"#utility.yul\":15987:16005   */\n      tag_326\n      tag_83\n      jump\t// in\n    tag_326:\n        /* \"#utility.yul\":15951:16007   */\n    tag_325:\n        /* \"#utility.yul\":16031:16069   */\n      tag_327\n        /* \"#utility.yul\":16063:16067   */\n      dup3\n        /* \"#utility.yul\":16057:16068   */\n      sload\n        /* \"#utility.yul\":16031:16069   */\n      tag_53\n      jump\t// in\n    tag_327:\n        /* \"#utility.yul\":16116:16183   */\n      tag_328\n        /* \"#utility.yul\":16176:16182   */\n      dup3\n        /* \"#utility.yul\":16168:16174   */\n      dup3\n        /* \"#utility.yul\":16162:16166   */\n      dup6\n        /* \"#utility.yul\":16116:16183   */\n      tag_165\n      jump\t// in\n    tag_328:\n        /* \"#utility.yul\":16210:16211   */\n      0x00\n        /* \"#utility.yul\":16239:16241   */\n      0x1f\n        /* \"#utility.yul\":16231:16237   */\n      dup4\n        /* \"#utility.yul\":16228:16242   */\n      gt\n        /* \"#utility.yul\":16256:16257   */\n      0x01\n        /* \"#utility.yul\":16251:16923   */\n      dup2\n      eq\n      tag_330\n      jumpi\n        /* \"#utility.yul\":16967:16968   */\n      0x00\n        /* \"#utility.yul\":16984:16990   */\n      dup5\n        /* \"#utility.yul\":16981:17058   */\n      iszero\n      tag_331\n      jumpi\n        /* \"#utility.yul\":17033:17042   */\n      dup3\n        /* \"#utility.yul\":17028:17031   */\n      dup8\n        /* \"#utility.yul\":17024:17043   */\n      add\n        /* \"#utility.yul\":17018:17044   */\n      sload\n        /* \"#utility.yul\":17009:17044   */\n      swap1\n      pop\n        /* \"#utility.yul\":16981:17058   */\n    tag_331:\n        /* \"#utility.yul\":17084:17151   */\n      tag_332\n        /* \"#utility.yul\":17144:17150   */\n      dup6\n        /* \"#utility.yul\":17137:17142   */\n      dup3\n        /* \"#utility.yul\":17084:17151   */\n      tag_168\n      jump\t// in\n    tag_332:\n        /* \"#utility.yul\":17078:17082   */\n      dup7\n        /* \"#utility.yul\":17071:17152   */\n      sstore\n        /* \"#utility.yul\":16940:17162   */\n      pop\n        /* \"#utility.yul\":16221:17162   */\n      jump(tag_329)\n        /* \"#utility.yul\":16251:16923   */\n    tag_330:\n        /* \"#utility.yul\":16303:16307   */\n      0x1f\n        /* \"#utility.yul\":16299:16308   */\n      not\n        /* \"#utility.yul\":16291:16297   */\n      dup5\n        /* \"#utility.yul\":16287:16309   */\n      and\n        /* \"#utility.yul\":16329:16365   */\n      tag_333\n        /* \"#utility.yul\":16361:16364   */\n      dup8\n        /* \"#utility.yul\":16329:16365   */\n      tag_154\n      jump\t// in\n    tag_333:\n        /* \"#utility.yul\":16322:16365   */\n      swap7\n      pop\n        /* \"#utility.yul\":16392:16429   */\n      tag_334\n        /* \"#utility.yul\":16424:16428   */\n      dup7\n        /* \"#utility.yul\":16392:16429   */\n      tag_154\n      jump\t// in\n    tag_334:\n        /* \"#utility.yul\":16451:16452   */\n      0x00\n        /* \"#utility.yul\":16465:16672   */\n    tag_335:\n        /* \"#utility.yul\":16479:16486   */\n      dup3\n        /* \"#utility.yul\":16476:16477   */\n      dup2\n        /* \"#utility.yul\":16473:16487   */\n      lt\n        /* \"#utility.yul\":16465:16672   */\n      iszero\n      tag_337\n      jumpi\n        /* \"#utility.yul\":16558:16567   */\n      dup5\n        /* \"#utility.yul\":16553:16556   */\n      dup10\n        /* \"#utility.yul\":16549:16568   */\n      add\n        /* \"#utility.yul\":16543:16569   */\n      sload\n        /* \"#utility.yul\":16535:16541   */\n      dup3\n        /* \"#utility.yul\":16528:16570   */\n      sstore\n        /* \"#utility.yul\":16609:16610   */\n      0x01\n        /* \"#utility.yul\":16601:16607   */\n      dup3\n        /* \"#utility.yul\":16597:16611   */\n      add\n        /* \"#utility.yul\":16587:16611   */\n      swap2\n      pop\n        /* \"#utility.yul\":16656:16657   */\n      0x01\n        /* \"#utility.yul\":16645:16654   */\n      dup6\n        /* \"#utility.yul\":16641:16658   */\n      add\n        /* \"#utility.yul\":16628:16658   */\n      swap5\n      pop\n        /* \"#utility.yul\":16502:16506   */\n      0x20\n        /* \"#utility.yul\":16499:16500   */\n      dup2\n        /* \"#utility.yul\":16495:16507   */\n      add\n        /* \"#utility.yul\":16490:16507   */\n      swap1\n      pop\n        /* \"#utility.yul\":16465:16672   */\n      jump(tag_335)\n    tag_337:\n        /* \"#utility.yul\":16700:16706   */\n      dup7\n        /* \"#utility.yul\":16691:16698   */\n      dup4\n        /* \"#utility.yul\":16688:16707   */\n      lt\n        /* \"#utility.yul\":16685:16864   */\n      iszero\n      tag_338\n      jumpi\n        /* \"#utility.yul\":16758:16767   */\n      dup5\n        /* \"#utility.yul\":16753:16756   */\n      dup10\n        /* \"#utility.yul\":16749:16768   */\n      add\n        /* \"#utility.yul\":16743:16769   */\n      sload\n        /* \"#utility.yul\":16801:16849   */\n      tag_339\n        /* \"#utility.yul\":16843:16847   */\n      0x1f\n        /* \"#utility.yul\":16835:16841   */\n      dup10\n        /* \"#utility.yul\":16831:16848   */\n      and\n        /* \"#utility.yul\":16820:16829   */\n      dup3\n        /* \"#utility.yul\":16801:16849   */\n      tag_167\n      jump\t// in\n    tag_339:\n        /* \"#utility.yul\":16793:16799   */\n      dup4\n        /* \"#utility.yul\":16786:16850   */\n      sstore\n        /* \"#utility.yul\":16708:16864   */\n      pop\n        /* \"#utility.yul\":16685:16864   */\n    tag_338:\n        /* \"#utility.yul\":16910:16911   */\n      0x01\n        /* \"#utility.yul\":16906:16907   */\n      0x02\n        /* \"#utility.yul\":16898:16904   */\n      dup9\n        /* \"#utility.yul\":16894:16908   */\n      mul\n        /* \"#utility.yul\":16890:16912   */\n      add\n        /* \"#utility.yul\":16884:16888   */\n      dup9\n        /* \"#utility.yul\":16877:16913   */\n      sstore\n        /* \"#utility.yul\":16258:16923   */\n      pop\n      pop\n      pop\n        /* \"#utility.yul\":16221:17162   */\n    tag_329:\n      pop\n        /* \"#utility.yul\":15806:17168   */\n      pop\n      pop\n      pop\n        /* \"#utility.yul\":15717:17168   */\n      pop\n      pop\n    tag_322:\n      jump\t// out\n        /* \"#utility.yul\":17198:18029   */\n    tag_169:\n        /* \"#utility.yul\":17283:17286   */\n      0x00\n        /* \"#utility.yul\":17320:17325   */\n      dup2\n        /* \"#utility.yul\":17314:17326   */\n      sload\n        /* \"#utility.yul\":17349:17385   */\n      tag_341\n        /* \"#utility.yul\":17375:17384   */\n      dup2\n        /* \"#utility.yul\":17349:17385   */\n      tag_53\n      jump\t// in\n    tag_341:\n        /* \"#utility.yul\":17401:17472   */\n      tag_342\n        /* \"#utility.yul\":17465:17471   */\n      dup2\n        /* \"#utility.yul\":17460:17463   */\n      dup7\n        /* \"#utility.yul\":17401:17472   */\n      tag_147\n      jump\t// in\n    tag_342:\n        /* \"#utility.yul\":17394:17472   */\n      swap5\n      pop\n        /* \"#utility.yul\":17503:17504   */\n      0x01\n        /* \"#utility.yul\":17492:17501   */\n      dup3\n        /* \"#utility.yul\":17488:17505   */\n      and\n        /* \"#utility.yul\":17519:17520   */\n      0x00\n        /* \"#utility.yul\":17514:17678   */\n      dup2\n      eq\n      tag_344\n      jumpi\n        /* \"#utility.yul\":17692:17693   */\n      0x01\n        /* \"#utility.yul\":17687:18023   */\n      dup2\n      eq\n      tag_345\n      jumpi\n        /* \"#utility.yul\":17481:18023   */\n      jump(tag_343)\n        /* \"#utility.yul\":17514:17678   */\n    tag_344:\n        /* \"#utility.yul\":17598:17602   */\n      0xff\n        /* \"#utility.yul\":17594:17603   */\n      not\n        /* \"#utility.yul\":17583:17592   */\n      dup4\n        /* \"#utility.yul\":17579:17604   */\n      and\n        /* \"#utility.yul\":17574:17577   */\n      dup7\n        /* \"#utility.yul\":17567:17605   */\n      mstore\n        /* \"#utility.yul\":17658:17664   */\n      dup2\n        /* \"#utility.yul\":17651:17665   */\n      iszero\n        /* \"#utility.yul\":17644:17666   */\n      iszero\n        /* \"#utility.yul\":17638:17642   */\n      0x20\n        /* \"#utility.yul\":17634:17667   */\n      mul\n        /* \"#utility.yul\":17629:17632   */\n      dup7\n        /* \"#utility.yul\":17625:17668   */\n      add\n        /* \"#utility.yul\":17618:17668   */\n      swap4\n      pop\n        /* \"#utility.yul\":17514:17678   */\n      jump(tag_343)\n        /* \"#utility.yul\":17687:18023   */\n    tag_345:\n        /* \"#utility.yul\":17754:17792   */\n      tag_346\n        /* \"#utility.yul\":17786:17791   */\n      dup6\n        /* \"#utility.yul\":17754:17792   */\n      tag_154\n      jump\t// in\n    tag_346:\n        /* \"#utility.yul\":17814:17815   */\n      0x00\n        /* \"#utility.yul\":17828:17982   */\n    tag_347:\n        /* \"#utility.yul\":17842:17848   */\n      dup4\n        /* \"#utility.yul\":17839:17840   */\n      dup2\n        /* \"#utility.yul\":17836:17849   */\n      lt\n        /* \"#utility.yul\":17828:17982   */\n      iszero\n      tag_349\n      jumpi\n        /* \"#utility.yul\":17916:17923   */\n      dup2\n        /* \"#utility.yul\":17910:17924   */\n      sload\n        /* \"#utility.yul\":17906:17907   */\n      dup2\n        /* \"#utility.yul\":17901:17904   */\n      dup10\n        /* \"#utility.yul\":17897:17908   */\n      add\n        /* \"#utility.yul\":17890:17925   */\n      mstore\n        /* \"#utility.yul\":17966:17967   */\n      0x01\n        /* \"#utility.yul\":17957:17964   */\n      dup3\n        /* \"#utility.yul\":17953:17968   */\n      add\n        /* \"#utility.yul\":17942:17968   */\n      swap2\n      pop\n        /* \"#utility.yul\":17864:17868   */\n      0x20\n        /* \"#utility.yul\":17861:17862   */\n      dup2\n        /* \"#utility.yul\":17857:17869   */\n      add\n        /* \"#utility.yul\":17852:17869   */\n      swap1\n      pop\n        /* \"#utility.yul\":17828:17982   */\n      jump(tag_347)\n    tag_349:\n        /* \"#utility.yul\":18011:18012   */\n      dup1\n        /* \"#utility.yul\":18006:18009   */\n      dup9\n        /* \"#utility.yul\":18002:18013   */\n      add\n        /* \"#utility.yul\":17995:18013   */\n      swap6\n      pop\n        /* \"#utility.yul\":17694:18023   */\n      pop\n      pop\n        /* \"#utility.yul\":17481:18023   */\n    tag_343:\n      pop\n        /* \"#utility.yul\":17287:18029   */\n      pop\n      pop\n        /* \"#utility.yul\":17198:18029   */\n      swap3\n      swap2\n      pop\n      pop\n      jump\t// out\n        /* \"#utility.yul\":18035:18186   */\n    tag_170:\n        /* \"#utility.yul\":18132:18179   */\n      tag_351\n        /* \"#utility.yul\":18173:18178   */\n      dup2\n        /* \"#utility.yul\":18132:18179   */\n      tag_125\n      jump\t// in\n    tag_351:\n        /* \"#utility.yul\":18127:18130   */\n      dup3\n        /* \"#utility.yul\":18120:18180   */\n      mstore\n        /* \"#utility.yul\":18035:18186   */\n      pop\n      pop\n      jump\t// out\n        /* \"#utility.yul\":18192:18629   */\n    tag_67:\n        /* \"#utility.yul\":18340:18344   */\n      0x00\n        /* \"#utility.yul\":18378:18380   */\n      0x40\n        /* \"#utility.yul\":18367:18376   */\n      dup3\n        /* \"#utility.yul\":18363:18381   */\n      add\n        /* \"#utility.yul\":18355:18381   */\n      swap1\n      pop\n        /* \"#utility.yul\":18427:18436   */\n      dup2\n        /* \"#utility.yul\":18421:18425   */\n      dup2\n        /* \"#utility.yul\":18417:18437   */\n      sub\n        /* \"#utility.yul\":18413:18414   */\n      0x00\n        /* \"#utility.yul\":18402:18411   */\n      dup4\n        /* \"#utility.yul\":18398:18415   */\n      add\n        /* \"#utility.yul\":18391:18438   */\n      mstore\n        /* \"#utility.yul\":18455:18530   */\n      tag_353\n        /* \"#utility.yul\":18525:18529   */\n      dup2\n        /* \"#utility.yul\":18516:18522   */\n      dup6\n        /* \"#utility.yul\":18455:18530   */\n      tag_169\n      jump\t// in\n    tag_353:\n        /* \"#utility.yul\":18447:18530   */\n      swap1\n      pop\n        /* \"#utility.yul\":18540:18622   */\n      tag_354\n        /* \"#utility.yul\":18618:18620   */\n      0x20\n        /* \"#utility.yul\":18607:18616   */\n      dup4\n        /* \"#utility.yul\":18603:18621   */\n      add\n        /* \"#utility.yul\":18594:18600   */\n      dup5\n        /* \"#utility.yul\":18540:18622   */\n      tag_170\n      jump\t// in\n    tag_354:\n        /* \"#utility.yul\":18192:18629   */\n      swap4\n      swap3\n      pop\n      pop\n      pop\n      jump\t// out\n        /* \"#utility.yul\":18635:18815   */\n    tag_92:\n        /* \"#utility.yul\":18683:18760   */\n      0x4e487b7100000000000000000000000000000000000000000000000000000000\n        /* \"#utility.yul\":18680:18681   */\n      0x00\n        /* \"#utility.yul\":18673:18761   */\n      mstore\n        /* \"#utility.yul\":18780:18784   */\n      0x32\n        /* \"#utility.yul\":18777:18778   */\n      0x04\n        /* \"#utility.yul\":18770:18785   */\n      mstore\n        /* \"#utility.yul\":18804:18808   */\n      0x24\n        /* \"#utility.yul\":18801:18802   */\n      0x00\n        /* \"#utility.yul\":18794:18809   */\n      revert\n\n    auxdata: 0xa26469706673582212202eaa6d973f6ce0021546ab46e65fb233c0a29cc74e8392b946c0edd137eaab1a64736f6c634300081e0033\n}\n",
				"bytecode": {
					"linkReferences": {},
					"object": "608060405234801561000f575f5ffd5b50335f5f6101000a81548173ffffffffffffffffffffffffffffffffffffffff021916908373ffffffffffffffffffffffffffffffffffffffff1602179055506040518060600160405280600181526020015f60018111156100745761007361022c565b5b81526020016040518060400160405280600d81526020017f41646d696e6973747261746f720000000000000000000000000000000000000081525081525060025f600181526020019081526020015f205f820151815f01556020820151816001015f6101000a81548160ff021916908360018111156100f6576100f561022c565b5b021790555060408201518160020190816101109190610496565b5090505060036001908060018154018082558091505060019003905f5260205f20015f90919091909150556040518060600160405280600281526020016001808111156101605761015f61022c565b5b81526020016040518060400160405280600581526020017f537461666600000000000000000000000000000000000000000000000000000081525081525060025f600281526020019081526020015f205f820151815f01556020820151816001015f6101000a81548160ff021916908360018111156101e2576101e161022c565b5b021790555060408201518160020190816101fc9190610496565b5090505060036002908060018154018082558091505060019003905f5260205f20015f9091909190915055610565565b7f4e487b71000000000000000000000000000000000000000000000000000000005f52602160045260245ffd5b5f81519050919050565b7f4e487b71000000000000000000000000000000000000000000000000000000005f52604160045260245ffd5b7f4e487b71000000000000000000000000000000000000000000000000000000005f52602260045260245ffd5b5f60028204905060018216806102d457607f821691505b6020821081036102e7576102e6610290565b5b50919050565b5f819050815f5260205f209050919050565b5f6020601f8301049050919050565b5f82821b905092915050565b5f600883026103497fffffffffffffffffffffffffffffffffffffffffffffffffffffffffffffffff8261030e565b610353868361030e565b95508019841693508086168417925050509392505050565b5f819050919050565b5f819050919050565b5f61039761039261038d8461036b565b610374565b61036b565b9050919050565b5f819050919050565b6103b08361037d565b6103c46103bc8261039e565b84845461031a565b825550505050565b5f5f905090565b6103db6103cc565b6103e68184846103a7565b505050565b5b81811015610409576103fe5f826103d3565b6001810190506103ec565b5050565b601f82111561044e5761041f816102ed565b610428846102ff565b81016020851015610437578190505b61044b610443856102ff565b8301826103eb565b50505b505050565b5f82821c905092915050565b5f61046e5f1984600802610453565b1980831691505092915050565b5f610486838361045f565b9150826002028217905092915050565b61049f82610259565b67ffffffffffffffff8111156104b8576104b7610263565b5b6104c282546102bd565b6104cd82828561040d565b5f60209050601f8311600181146104fe575f84156104ec578287015190505b6104f6858261047b565b86555061055d565b601f19841661050c866102ed565b5f5b828110156105335784890151825560018201915060208501945060208101905061050e565b86831015610550578489015161054c601f89168261045f565b8355505b6001600288020188555050505b505050505050565b61127f806105725f395ff3fe608060405234801561000f575f5ffd5b506004361061007b575f3560e01c8063893d20e811610059578063893d20e8146100e75780638da5cb5b1461010557806395a8c58d14610123578063f2bcac3d146101535761007b565b8063278208511461007f5780632e3036c7146100af57806380e52e3f146100cb575b5f5ffd5b6100996004803603810190610094919061097b565b610171565b6040516100a69190610aee565b60405180910390f35b6100c960048036038101906100c49190610b38565b61031c565b005b6100e560048036038101906100e0919061097b565b6104a1565b005b6100ef6105d0565b6040516100fc9190610b85565b60405180910390f35b61010d6105f7565b60405161011a9190610b85565b60405180910390f35b61013d60048036038101906101389190610bc1565b61061b565b60405161014a9190610c19565b60405180910390f35b61015b6106e6565b6040516101689190610d3a565b60405180910390f35b610179610894565b5f60015f8473ffffffffffffffffffffffffffffffffffffffff1673ffffffffffffffffffffffffffffffffffffffff1681526020019081526020015f205f0154036101fa576040517f08c379a00000000000000000000000000000000000000000000000000000000081526004016101f190610db4565b60405180910390fd5b60015f8373ffffffffffffffffffffffffffffffffffffffff1673ffffffffffffffffffffffffffffffffffffffff1681526020019081526020015f206040518060600160405290815f8201548152602001600182015f9054906101000a900460ff16600181111561026f5761026e6109be565b5b6001811115610281576102806109be565b5b815260200160028201805461029590610dff565b80601f01602080910402602001604051908101604052809291908181526020018280546102c190610dff565b801561030c5780601f106102e35761010080835404028352916020019161030c565b820191905f5260205f20905b8154815290600101906020018083116102ef57829003601f168201915b5050505050815250509050919050565b5f60025f8381526020019081526020015f205f015403610371576040517f08c379a000000000000000000000000000000000000000000000000000000000815260040161036890610e79565b60405180910390fd5b60025f8281526020019081526020015f2060015f8473ffffffffffffffffffffffffffffffffffffffff1673ffffffffffffffffffffffffffffffffffffffff1681526020019081526020015f205f820154815f0155600182015f9054906101000a900460ff16816001015f6101000a81548160ff021916908360018111156103fd576103fc6109be565b5b0217905550600282018160020190816104169190611079565b509050508173ffffffffffffffffffffffffffffffffffffffff167f1b8f42edc9b7affbd109fc6a03d57fbec6495325facd626fac3dd8917a73e37560025f8481526020019081526020015f2060020160025f8581526020019081526020015f206001015f9054906101000a900460ff166040516104959291906111ee565b60405180910390a25050565b5f60015f8373ffffffffffffffffffffffffffffffffffffffff1673ffffffffffffffffffffffffffffffffffffffff1681526020019081526020015f205f015403610522576040517f08c379a000000000000000000000000000000000000000000000000000000000815260040161051990610db4565b60405180910390fd5b60015f8273ffffffffffffffffffffffffffffffffffffffff1673ffffffffffffffffffffffffffffffffffffffff1681526020019081526020015f205f5f82015f9055600182015f6101000a81549060ff0219169055600282015f61058891906108c5565b50508073ffffffffffffffffffffffffffffffffffffffff167f6107a4a5447a4208ba14e3ec240bccf0a93828124ccf501af04601031070b18360405160405180910390a250565b5f5f5f9054906101000a900473ffffffffffffffffffffffffffffffffffffffff16905090565b5f5f9054906101000a900473ffffffffffffffffffffffffffffffffffffffff1681565b5f5f60015f8573ffffffffffffffffffffffffffffffffffffffff1673ffffffffffffffffffffffffffffffffffffffff1681526020019081526020015f205f01540361066a575f90506106e0565b81600181111561067d5761067c6109be565b5b60015f8573ffffffffffffffffffffffffffffffffffffffff1673ffffffffffffffffffffffffffffffffffffffff1681526020019081526020015f206001015f9054906101000a900460ff1660018111156106dc576106db6109be565b5b1490505b92915050565b60605f60038054905067ffffffffffffffff81111561070857610707610eac565b5b60405190808252806020026020018201604052801561074157816020015b61072e610894565b8152602001906001900390816107265790505b5090505f5f90505b60038054905081101561088c5760025f6003838154811061076d5761076c61121c565b5b905f5260205f20015481526020019081526020015f206040518060600160405290815f8201548152602001600182015f9054906101000a900460ff1660018111156107bb576107ba6109be565b5b60018111156107cd576107cc6109be565b5b81526020016002820180546107e190610dff565b80601f016020809104026020016040519081016040528092919081815260200182805461080d90610dff565b80156108585780601f1061082f57610100808354040283529160200191610858565b820191905f5260205f20905b81548152906001019060200180831161083b57829003601f168201915b5050505050815250508282815181106108745761087361121c565b5b60200260200101819052508080600101915050610749565b508091505090565b60405180606001604052805f81526020015f60018111156108b8576108b76109be565b5b8152602001606081525090565b5080546108d190610dff565b5f825580601f106108e257506108ff565b601f0160209004905f5260205f20908101906108fe9190610902565b5b50565b5b80821115610919575f815f905550600101610903565b5090565b5f5ffd5b5f73ffffffffffffffffffffffffffffffffffffffff82169050919050565b5f61094a82610921565b9050919050565b61095a81610940565b8114610964575f5ffd5b50565b5f8135905061097581610951565b92915050565b5f602082840312156109905761098f61091d565b5b5f61099d84828501610967565b91505092915050565b5f819050919050565b6109b8816109a6565b82525050565b7f4e487b71000000000000000000000000000000000000000000000000000000005f52602160045260245ffd5b600281106109fc576109fb6109be565b5b50565b5f819050610a0c826109eb565b919050565b5f610a1b826109ff565b9050919050565b610a2b81610a11565b82525050565b5f81519050919050565b5f82825260208201905092915050565b8281835e5f83830152505050565b5f601f19601f8301169050919050565b5f610a7382610a31565b610a7d8185610a3b565b9350610a8d818560208601610a4b565b610a9681610a59565b840191505092915050565b5f606083015f830151610ab65f8601826109af565b506020830151610ac96020860182610a22565b5060408301518482036040860152610ae18282610a69565b9150508091505092915050565b5f6020820190508181035f830152610b068184610aa1565b905092915050565b610b17816109a6565b8114610b21575f5ffd5b50565b5f81359050610b3281610b0e565b92915050565b5f5f60408385031215610b4e57610b4d61091d565b5b5f610b5b85828601610967565b9250506020610b6c85828601610b24565b9150509250929050565b610b7f81610940565b82525050565b5f602082019050610b985f830184610b76565b92915050565b60028110610baa575f5ffd5b50565b5f81359050610bbb81610b9e565b92915050565b5f5f60408385031215610bd757610bd661091d565b5b5f610be485828601610967565b9250506020610bf585828601610bad565b9150509250929050565b5f8115159050919050565b610c1381610bff565b82525050565b5f602082019050610c2c5f830184610c0a565b92915050565b5f81519050919050565b5f82825260208201905092915050565b5f819050602082019050919050565b5f606083015f830151610c705f8601826109af565b506020830151610c836020860182610a22565b5060408301518482036040860152610c9b8282610a69565b9150508091505092915050565b5f610cb38383610c5b565b905092915050565b5f602082019050919050565b5f610cd182610c32565b610cdb8185610c3c565b935083602082028501610ced85610c4c565b805f5b85811015610d285784840389528151610d098582610ca8565b9450610d1483610cbb565b925060208a01995050600181019050610cf0565b50829750879550505050505092915050565b5f6020820190508181035f830152610d528184610cc7565b905092915050565b5f82825260208201905092915050565b7f5573657220686173206e6f20726f6c652061737369676e6564000000000000005f82015250565b5f610d9e601983610d5a565b9150610da982610d6a565b602082019050919050565b5f6020820190508181035f830152610dcb81610d92565b9050919050565b7f4e487b71000000000000000000000000000000000000000000000000000000005f52602260045260245ffd5b5f6002820490506001821680610e1657607f821691505b602082108103610e2957610e28610dd2565b5b50919050565b7f496e76616c696420726f6c6520494400000000000000000000000000000000005f82015250565b5f610e63600f83610d5a565b9150610e6e82610e2f565b602082019050919050565b5f6020820190508181035f830152610e9081610e57565b9050919050565b5f81549050610ea581610dff565b9050919050565b7f4e487b71000000000000000000000000000000000000000000000000000000005f52604160045260245ffd5b5f819050815f5260205f209050919050565b5f6020601f8301049050919050565b5f82821b905092915050565b5f60088302610f357fffffffffffffffffffffffffffffffffffffffffffffffffffffffffffffffff82610efa565b610f3f8683610efa565b95508019841693508086168417925050509392505050565b5f819050919050565b5f610f7a610f75610f70846109a6565b610f57565b6109a6565b9050919050565b5f819050919050565b610f9383610f60565b610fa7610f9f82610f81565b848454610f06565b825550505050565b5f5f905090565b610fbe610faf565b610fc9818484610f8a565b505050565b5b81811015610fec57610fe15f82610fb6565b600181019050610fcf565b5050565b601f8211156110315761100281610ed9565b61100b84610eeb565b8101602085101561101a578190505b61102e61102685610eeb565b830182610fce565b50505b505050565b5f82821c905092915050565b5f6110515f1984600802611036565b1980831691505092915050565b5f6110698383611042565b9150826002028217905092915050565b81810361108757505061115c565b61109082610e97565b67ffffffffffffffff8111156110a9576110a8610eac565b5b6110b38254610dff565b6110be828285610ff0565b5f601f8311600181146110eb575f84156110d9578287015490505b6110e3858261105e565b865550611155565b601f1984166110f987610ed9565b965061110486610ed9565b5f5b8281101561112b57848901548255600182019150600185019450602081019050611106565b868310156111485784890154611144601f891682611042565b8355505b6001600288020188555050505b5050505050505b565b5f815461116a81610dff565b6111748186610d5a565b9450600182165f811461118e57600181146111a4576111d6565b60ff1983168652811515602002860193506111d6565b6111ad85610ed9565b5f5b838110156111ce578154818901526001820191506020810190506111af565b808801955050505b50505092915050565b6111e881610a11565b82525050565b5f6040820190508181035f830152611206818561115e565b905061121560208301846111df565b9392505050565b7f4e487b71000000000000000000000000000000000000000000000000000000005f52603260045260245ffdfea26469706673582212202eaa6d973f6ce0021546ab46e65fb233c0a29cc74e8392b946c0edd137eaab1a64736f6c634300081e0033",
					"opcodes": "PUSH1 0x80 PUSH1 0x40 MSTORE CALLVALUE DUP1 ISZERO PUSH2 0xF JUMPI PUSH0 PUSH0 REVERT JUMPDEST POP CALLER PUSH0 PUSH0 PUSH2 0x100 EXP DUP2 SLOAD DUP2 PUSH20 0xFFFFFFFFFFFFFFFFFFFFFFFFFFFFFFFFFFFFFFFF MUL NOT AND SWAP1 DUP4 PUSH20 0xFFFFFFFFFFFFFFFFFFFFFFFFFFFFFFFFFFFFFFFF AND MUL OR SWAP1 SSTORE POP PUSH1 0x40 MLOAD DUP1 PUSH1 0x60 ADD PUSH1 0x40 MSTORE DUP1 PUSH1 0x1 DUP2 MSTORE PUSH1 0x20 ADD PUSH0 PUSH1 0x1 DUP2 GT ISZERO PUSH2 0x74 JUMPI PUSH2 0x73 PUSH2 0x22C JUMP JUMPDEST JUMPDEST DUP2 MSTORE PUSH1 0x20 ADD PUSH1 0x40 MLOAD DUP1 PUSH1 0x40 ADD PUSH1 0x40 MSTORE DUP1 PUSH1 0xD DUP2 MSTORE PUSH1 0x20 ADD PUSH32 0x41646D696E6973747261746F7200000000000000000000000000000000000000 DUP2 MSTORE POP DUP2 MSTORE POP PUSH1 0x2 PUSH0 PUSH1 0x1 DUP2 MSTORE PUSH1 0x20 ADD SWAP1 DUP2 MSTORE PUSH1 0x20 ADD PUSH0 KECCAK256 PUSH0 DUP3 ADD MLOAD DUP2 PUSH0 ADD SSTORE PUSH1 0x20 DUP3 ADD MLOAD DUP2 PUSH1 0x1 ADD PUSH0 PUSH2 0x100 EXP DUP2 SLOAD DUP2 PUSH1 0xFF MUL NOT AND SWAP1 DUP4 PUSH1 0x1 DUP2 GT ISZERO PUSH2 0xF6 JUMPI PUSH2 0xF5 PUSH2 0x22C JUMP JUMPDEST JUMPDEST MUL OR SWAP1 SSTORE POP PUSH1 0x40 DUP3 ADD MLOAD DUP2 PUSH1 0x2 ADD SWAP1 DUP2 PUSH2 0x110 SWAP2 SWAP1 PUSH2 0x496 JUMP JUMPDEST POP SWAP1 POP POP PUSH1 0x3 PUSH1 0x1 SWAP1 DUP1 PUSH1 0x1 DUP2 SLOAD ADD DUP1 DUP3 SSTORE DUP1 SWAP2 POP POP PUSH1 0x1 SWAP1 SUB SWAP1 PUSH0 MSTORE PUSH1 0x20 PUSH0 KECCAK256 ADD PUSH0 SWAP1 SWAP2 SWAP1 SWAP2 SWAP1 SWAP2 POP SSTORE PUSH1 0x40 MLOAD DUP1 PUSH1 0x60 ADD PUSH1 0x40 MSTORE DUP1 PUSH1 0x2 DUP2 MSTORE PUSH1 0x20 ADD PUSH1 0x1 DUP1 DUP2 GT ISZERO PUSH2 0x160 JUMPI PUSH2 0x15F PUSH2 0x22C JUMP JUMPDEST JUMPDEST DUP2 MSTORE PUSH1 0x20 ADD PUSH1 0x40 MLOAD DUP1 PUSH1 0x40 ADD PUSH1 0x40 MSTORE DUP1 PUSH1 0x5 DUP2 MSTORE PUSH1 0x20 ADD PUSH32 0x5374616666000000000000000000000000000000000000000000000000000000 DUP2 MSTORE POP DUP2 MSTORE POP PUSH1 0x2 PUSH0 PUSH1 0x2 DUP2 MSTORE PUSH1 0x20 ADD SWAP1 DUP2 MSTORE PUSH1 0x20 ADD PUSH0 KECCAK256 PUSH0 DUP3 ADD MLOAD DUP2 PUSH0 ADD SSTORE PUSH1 0x20 DUP3 ADD MLOAD DUP2 PUSH1 0x1 ADD PUSH0 PUSH2 0x100 EXP DUP2 SLOAD DUP2 PUSH1 0xFF MUL NOT AND SWAP1 DUP4 PUSH1 0x1 DUP2 GT ISZERO PUSH2 0x1E2 JUMPI PUSH2 0x1E1 PUSH2 0x22C JUMP JUMPDEST JUMPDEST MUL OR SWAP1 SSTORE POP PUSH1 0x40 DUP3 ADD MLOAD DUP2 PUSH1 0x2 ADD SWAP1 DUP2 PUSH2 0x1FC SWAP2 SWAP1 PUSH2 0x496 JUMP JUMPDEST POP SWAP1 POP POP PUSH1 0x3 PUSH1 0x2 SWAP1 DUP1 PUSH1 0x1 DUP2 SLOAD ADD DUP1 DUP3 SSTORE DUP1 SWAP2 POP POP PUSH1 0x1 SWAP1 SUB SWAP1 PUSH0 MSTORE PUSH1 0x20 PUSH0 KECCAK256 ADD PUSH0 SWAP1 SWAP2 SWAP1 SWAP2 SWAP1 SWAP2 POP SSTORE PUSH2 0x565 JUMP JUMPDEST PUSH32 0x4E487B7100000000000000000000000000000000000000000000000000000000 PUSH0 MSTORE PUSH1 0x21 PUSH1 0x4 MSTORE PUSH1 0x24 PUSH0 REVERT JUMPDEST PUSH0 DUP2 MLOAD SWAP1 POP SWAP2 SWAP1 POP JUMP JUMPDEST PUSH32 0x4E487B7100000000000000000000000000000000000000000000000000000000 PUSH0 MSTORE PUSH1 0x41 PUSH1 0x4 MSTORE PUSH1 0x24 PUSH0 REVERT JUMPDEST PUSH32 0x4E487B7100000000000000000000000000000000000000000000000000000000 PUSH0 MSTORE PUSH1 0x22 PUSH1 0x4 MSTORE PUSH1 0x24 PUSH0 REVERT JUMPDEST PUSH0 PUSH1 0x2 DUP3 DIV SWAP1 POP PUSH1 0x1 DUP3 AND DUP1 PUSH2 0x2D4 JUMPI PUSH1 0x7F DUP3 AND SWAP2 POP JUMPDEST PUSH1 0x20 DUP3 LT DUP2 SUB PUSH2 0x2E7 JUMPI PUSH2 0x2E6 PUSH2 0x290 JUMP JUMPDEST JUMPDEST POP SWAP2 SWAP1 POP JUMP JUMPDEST PUSH0 DUP2 SWAP1 POP DUP2 PUSH0 MSTORE PUSH1 0x20 PUSH0 KECCAK256 SWAP1 POP SWAP2 SWAP1 POP JUMP JUMPDEST PUSH0 PUSH1 0x20 PUSH1 0x1F DUP4 ADD DIV SWAP1 POP SWAP2 SWAP1 POP JUMP JUMPDEST PUSH0 DUP3 DUP3 SHL SWAP1 POP SWAP3 SWAP2 POP POP JUMP JUMPDEST PUSH0 PUSH1 0x8 DUP4 MUL PUSH2 0x349 PUSH32 0xFFFFFFFFFFFFFFFFFFFFFFFFFFFFFFFFFFFFFFFFFFFFFFFFFFFFFFFFFFFFFFFF DUP3 PUSH2 0x30E JUMP JUMPDEST PUSH2 0x353 DUP7 DUP4 PUSH2 0x30E JUMP JUMPDEST SWAP6 POP DUP1 NOT DUP5 AND SWAP4 POP DUP1 DUP7 AND DUP5 OR SWAP3 POP POP POP SWAP4 SWAP3 POP POP POP JUMP JUMPDEST PUSH0 DUP2 SWAP1 POP SWAP2 SWAP1 POP JUMP JUMPDEST PUSH0 DUP2 SWAP1 POP SWAP2 SWAP1 POP JUMP JUMPDEST PUSH0 PUSH2 0x397 PUSH2 0x392 PUSH2 0x38D DUP5 PUSH2 0x36B JUMP JUMPDEST PUSH2 0x374 JUMP JUMPDEST PUSH2 0x36B JUMP JUMPDEST SWAP1 POP SWAP2 SWAP1 POP JUMP JUMPDEST PUSH0 DUP2 SWAP1 POP SWAP2 SWAP1 POP JUMP JUMPDEST PUSH2 0x3B0 DUP4 PUSH2 0x37D JUMP JUMPDEST PUSH2 0x3C4 PUSH2 0x3BC DUP3 PUSH2 0x39E JUMP JUMPDEST DUP5 DUP5 SLOAD PUSH2 0x31A JUMP JUMPDEST DUP3 SSTORE POP POP POP POP JUMP JUMPDEST PUSH0 PUSH0 SWAP1 POP SWAP1 JUMP JUMPDEST PUSH2 0x3DB PUSH2 0x3CC JUMP JUMPDEST PUSH2 0x3E6 DUP2 DUP5 DUP5 PUSH2 0x3A7 JUMP JUMPDEST POP POP POP JUMP JUMPDEST JUMPDEST DUP2 DUP2 LT ISZERO PUSH2 0x409 JUMPI PUSH2 0x3FE PUSH0 DUP3 PUSH2 0x3D3 JUMP JUMPDEST PUSH1 0x1 DUP2 ADD SWAP1 POP PUSH2 0x3EC JUMP JUMPDEST POP POP JUMP JUMPDEST PUSH1 0x1F DUP3 GT ISZERO PUSH2 0x44E JUMPI PUSH2 0x41F DUP2 PUSH2 0x2ED JUMP JUMPDEST PUSH2 0x428 DUP5 PUSH2 0x2FF JUMP JUMPDEST DUP2 ADD PUSH1 0x20 DUP6 LT ISZERO PUSH2 0x437 JUMPI DUP2 SWAP1 POP JUMPDEST PUSH2 0x44B PUSH2 0x443 DUP6 PUSH2 0x2FF JUMP JUMPDEST DUP4 ADD DUP3 PUSH2 0x3EB JUMP JUMPDEST POP POP JUMPDEST POP POP POP JUMP JUMPDEST PUSH0 DUP3 DUP3 SHR SWAP1 POP SWAP3 SWAP2 POP POP JUMP JUMPDEST PUSH0 PUSH2 0x46E PUSH0 NOT DUP5 PUSH1 0x8 MUL PUSH2 0x453 JUMP JUMPDEST NOT DUP1 DUP4 AND SWAP2 POP POP SWAP3 SWAP2 POP POP JUMP JUMPDEST PUSH0 PUSH2 0x486 DUP4 DUP4 PUSH2 0x45F JUMP JUMPDEST SWAP2 POP DUP3 PUSH1 0x2 MUL DUP3 OR SWAP1 POP SWAP3 SWAP2 POP POP JUMP JUMPDEST PUSH2 0x49F DUP3 PUSH2 0x259 JUMP JUMPDEST PUSH8 0xFFFFFFFFFFFFFFFF DUP2 GT ISZERO PUSH2 0x4B8 JUMPI PUSH2 0x4B7 PUSH2 0x263 JUMP JUMPDEST JUMPDEST PUSH2 0x4C2 DUP3 SLOAD PUSH2 0x2BD JUMP JUMPDEST PUSH2 0x4CD DUP3 DUP3 DUP6 PUSH2 0x40D JUMP JUMPDEST PUSH0 PUSH1 0x20 SWAP1 POP PUSH1 0x1F DUP4 GT PUSH1 0x1 DUP2 EQ PUSH2 0x4FE JUMPI PUSH0 DUP5 ISZERO PUSH2 0x4EC JUMPI DUP3 DUP8 ADD MLOAD SWAP1 POP JUMPDEST PUSH2 0x4F6 DUP6 DUP3 PUSH2 0x47B JUMP JUMPDEST DUP7 SSTORE POP PUSH2 0x55D JUMP JUMPDEST PUSH1 0x1F NOT DUP5 AND PUSH2 0x50C DUP7 PUSH2 0x2ED JUMP JUMPDEST PUSH0 JUMPDEST DUP3 DUP2 LT ISZERO PUSH2 0x533 JUMPI DUP5 DUP10 ADD MLOAD DUP3 SSTORE PUSH1 0x1 DUP3 ADD SWAP2 POP PUSH1 0x20 DUP6 ADD SWAP5 POP PUSH1 0x20 DUP2 ADD SWAP1 POP PUSH2 0x50E JUMP JUMPDEST DUP7 DUP4 LT ISZERO PUSH2 0x550 JUMPI DUP5 DUP10 ADD MLOAD PUSH2 0x54C PUSH1 0x1F DUP10 AND DUP3 PUSH2 0x45F JUMP JUMPDEST DUP4 SSTORE POP JUMPDEST PUSH1 0x1 PUSH1 0x2 DUP9 MUL ADD DUP9 SSTORE POP POP POP JUMPDEST POP POP POP POP POP POP JUMP JUMPDEST PUSH2 0x127F DUP1 PUSH2 0x572 PUSH0 CODECOPY PUSH0 RETURN INVALID PUSH1 0x80 PUSH1 0x40 MSTORE CALLVALUE DUP1 ISZERO PUSH2 0xF JUMPI PUSH0 PUSH0 REVERT JUMPDEST POP PUSH1 0x4 CALLDATASIZE LT PUSH2 0x7B JUMPI PUSH0 CALLDATALOAD PUSH1 0xE0 SHR DUP1 PUSH4 0x893D20E8 GT PUSH2 0x59 JUMPI DUP1 PUSH4 0x893D20E8 EQ PUSH2 0xE7 JUMPI DUP1 PUSH4 0x8DA5CB5B EQ PUSH2 0x105 JUMPI DUP1 PUSH4 0x95A8C58D EQ PUSH2 0x123 JUMPI DUP1 PUSH4 0xF2BCAC3D EQ PUSH2 0x153 JUMPI PUSH2 0x7B JUMP JUMPDEST DUP1 PUSH4 0x27820851 EQ PUSH2 0x7F JUMPI DUP1 PUSH4 0x2E3036C7 EQ PUSH2 0xAF JUMPI DUP1 PUSH4 0x80E52E3F EQ PUSH2 0xCB JUMPI JUMPDEST PUSH0 PUSH0 REVERT JUMPDEST PUSH2 0x99 PUSH1 0x4 DUP1 CALLDATASIZE SUB DUP2 ADD SWAP1 PUSH2 0x94 SWAP2 SWAP1 PUSH2 0x97B JUMP JUMPDEST PUSH2 0x171 JUMP JUMPDEST PUSH1 0x40 MLOAD PUSH2 0xA6 SWAP2 SWAP1 PUSH2 0xAEE JUMP JUMPDEST PUSH1 0x40 MLOAD DUP1 SWAP2 SUB SWAP1 RETURN JUMPDEST PUSH2 0xC9 PUSH1 0x4 DUP1 CALLDATASIZE SUB DUP2 ADD SWAP1 PUSH2 0xC4 SWAP2 SWAP1 PUSH2 0xB38 JUMP JUMPDEST PUSH2 0x31C JUMP JUMPDEST STOP JUMPDEST PUSH2 0xE5 PUSH1 0x4 DUP1 CALLDATASIZE SUB DUP2 ADD SWAP1 PUSH2 0xE0 SWAP2 SWAP1 PUSH2 0x97B JUMP JUMPDEST PUSH2 0x4A1 JUMP JUMPDEST STOP JUMPDEST PUSH2 0xEF PUSH2 0x5D0 JUMP JUMPDEST PUSH1 0x40 MLOAD PUSH2 0xFC SWAP2 SWAP1 PUSH2 0xB85 JUMP JUMPDEST PUSH1 0x40 MLOAD DUP1 SWAP2 SUB SWAP1 RETURN JUMPDEST PUSH2 0x10D PUSH2 0x5F7 JUMP JUMPDEST PUSH1 0x40 MLOAD PUSH2 0x11A SWAP2 SWAP1 PUSH2 0xB85 JUMP JUMPDEST PUSH1 0x40 MLOAD DUP1 SWAP2 SUB SWAP1 RETURN JUMPDEST PUSH2 0x13D PUSH1 0x4 DUP1 CALLDATASIZE SUB DUP2 ADD SWAP1 PUSH2 0x138 SWAP2 SWAP1 PUSH2 0xBC1 JUMP JUMPDEST PUSH2 0x61B JUMP JUMPDEST PUSH1 0x40 MLOAD PUSH2 0x14A SWAP2 SWAP1 PUSH2 0xC19 JUMP JUMPDEST PUSH1 0x40 MLOAD DUP1 SWAP2 SUB SWAP1 RETURN JUMPDEST PUSH2 0x15B PUSH2 0x6E6 JUMP JUMPDEST PUSH1 0x40 MLOAD PUSH2 0x168 SWAP2 SWAP1 PUSH2 0xD3A JUMP JUMPDEST PUSH1 0x40 MLOAD DUP1 SWAP2 SUB SWAP1 RETURN JUMPDEST PUSH2 0x179 PUSH2 0x894 JUMP JUMPDEST PUSH0 PUSH1 0x1 PUSH0 DUP5 PUSH20 0xFFFFFFFFFFFFFFFFFFFFFFFFFFFFFFFFFFFFFFFF AND PUSH20 0xFFFFFFFFFFFFFFFFFFFFFFFFFFFFFFFFFFFFFFFF AND DUP2 MSTORE PUSH1 0x20 ADD SWAP1 DUP2 MSTORE PUSH1 0x20 ADD PUSH0 KECCAK256 PUSH0 ADD SLOAD SUB PUSH2 0x1FA JUMPI PUSH1 0x40 MLOAD PUSH32 0x8C379A000000000000000000000000000000000000000000000000000000000 DUP2 MSTORE PUSH1 0x4 ADD PUSH2 0x1F1 SWAP1 PUSH2 0xDB4 JUMP JUMPDEST PUSH1 0x40 MLOAD DUP1 SWAP2 SUB SWAP1 REVERT JUMPDEST PUSH1 0x1 PUSH0 DUP4 PUSH20 0xFFFFFFFFFFFFFFFFFFFFFFFFFFFFFFFFFFFFFFFF AND PUSH20 0xFFFFFFFFFFFFFFFFFFFFFFFFFFFFFFFFFFFFFFFF AND DUP2 MSTORE PUSH1 0x20 ADD SWAP1 DUP2 MSTORE PUSH1 0x20 ADD PUSH0 KECCAK256 PUSH1 0x40 MLOAD DUP1 PUSH1 0x60 ADD PUSH1 0x40 MSTORE SWAP1 DUP2 PUSH0 DUP3 ADD SLOAD DUP2 MSTORE PUSH1 0x20 ADD PUSH1 0x1 DUP3 ADD PUSH0 SWAP1 SLOAD SWAP1 PUSH2 0x100 EXP SWAP1 DIV PUSH1 0xFF AND PUSH1 0x1 DUP2 GT ISZERO PUSH2 0x26F JUMPI PUSH2 0x26E PUSH2 0x9BE JUMP JUMPDEST JUMPDEST PUSH1 0x1 DUP2 GT ISZERO PUSH2 0x281 JUMPI PUSH2 0x280 PUSH2 0x9BE JUMP JUMPDEST JUMPDEST DUP2 MSTORE PUSH1 0x20 ADD PUSH1 0x2 DUP3 ADD DUP1 SLOAD PUSH2 0x295 SWAP1 PUSH2 0xDFF JUMP JUMPDEST DUP1 PUSH1 0x1F ADD PUSH1 0x20 DUP1 SWAP2 DIV MUL PUSH1 0x20 ADD PUSH1 0x40 MLOAD SWAP1 DUP2 ADD PUSH1 0x40 MSTORE DUP1 SWAP3 SWAP2 SWAP1 DUP2 DUP2 MSTORE PUSH1 0x20 ADD DUP3 DUP1 SLOAD PUSH2 0x2C1 SWAP1 PUSH2 0xDFF JUMP JUMPDEST DUP1 ISZERO PUSH2 0x30C JUMPI DUP1 PUSH1 0x1F LT PUSH2 0x2E3 JUMPI PUSH2 0x100 DUP1 DUP4 SLOAD DIV MUL DUP4 MSTORE SWAP2 PUSH1 0x20 ADD SWAP2 PUSH2 0x30C JUMP JUMPDEST DUP3 ADD SWAP2 SWAP1 PUSH0 MSTORE PUSH1 0x20 PUSH0 KECCAK256 SWAP1 JUMPDEST DUP2 SLOAD DUP2 MSTORE SWAP1 PUSH1 0x1 ADD SWAP1 PUSH1 0x20 ADD DUP1 DUP4 GT PUSH2 0x2EF JUMPI DUP3 SWAP1 SUB PUSH1 0x1F AND DUP3 ADD SWAP2 JUMPDEST POP POP POP POP POP DUP2 MSTORE POP POP SWAP1 POP SWAP2 SWAP1 POP JUMP JUMPDEST PUSH0 PUSH1 0x2 PUSH0 DUP4 DUP2 MSTORE PUSH1 0x20 ADD SWAP1 DUP2 MSTORE PUSH1 0x20 ADD PUSH0 KECCAK256 PUSH0 ADD SLOAD SUB PUSH2 0x371 JUMPI PUSH1 0x40 MLOAD PUSH32 0x8C379A000000000000000000000000000000000000000000000000000000000 DUP2 MSTORE PUSH1 0x4 ADD PUSH2 0x368 SWAP1 PUSH2 0xE79 JUMP JUMPDEST PUSH1 0x40 MLOAD DUP1 SWAP2 SUB SWAP1 REVERT JUMPDEST PUSH1 0x2 PUSH0 DUP3 DUP2 MSTORE PUSH1 0x20 ADD SWAP1 DUP2 MSTORE PUSH1 0x20 ADD PUSH0 KECCAK256 PUSH1 0x1 PUSH0 DUP5 PUSH20 0xFFFFFFFFFFFFFFFFFFFFFFFFFFFFFFFFFFFFFFFF AND PUSH20 0xFFFFFFFFFFFFFFFFFFFFFFFFFFFFFFFFFFFFFFFF AND DUP2 MSTORE PUSH1 0x20 ADD SWAP1 DUP2 MSTORE PUSH1 0x20 ADD PUSH0 KECCAK256 PUSH0 DUP3 ADD SLOAD DUP2 PUSH0 ADD SSTORE PUSH1 0x1 DUP3 ADD PUSH0 SWAP1 SLOAD SWAP1 PUSH2 0x100 EXP SWAP1 DIV PUSH1 0xFF AND DUP2 PUSH1 0x1 ADD PUSH0 PUSH2 0x100 EXP DUP2 SLOAD DUP2 PUSH1 0xFF MUL NOT AND SWAP1 DUP4 PUSH1 0x1 DUP2 GT ISZERO PUSH2 0x3FD JUMPI PUSH2 0x3FC PUSH2 0x9BE JUMP JUMPDEST JUMPDEST MUL OR SWAP1 SSTORE POP PUSH1 0x2 DUP3 ADD DUP2 PUSH1 0x2 ADD SWAP1 DUP2 PUSH2 0x416 SWAP2 SWAP1 PUSH2 0x1079 JUMP JUMPDEST POP SWAP1 POP POP DUP2 PUSH20 0xFFFFFFFFFFFFFFFFFFFFFFFFFFFFFFFFFFFFFFFF AND PUSH32 0x1B8F42EDC9B7AFFBD109FC6A03D57FBEC6495325FACD626FAC3DD8917A73E375 PUSH1 0x2 PUSH0 DUP5 DUP2 MSTORE PUSH1 0x20 ADD SWAP1 DUP2 MSTORE PUSH1 0x20 ADD PUSH0 KECCAK256 PUSH1 0x2 ADD PUSH1 0x2 PUSH0 DUP6 DUP2 MSTORE PUSH1 0x20 ADD SWAP1 DUP2 MSTORE PUSH1 0x20 ADD PUSH0 KECCAK256 PUSH1 0x1 ADD PUSH0 SWAP1 SLOAD SWAP1 PUSH2 0x100 EXP SWAP1 DIV PUSH1 0xFF AND PUSH1 0x40 MLOAD PUSH2 0x495 SWAP3 SWAP2 SWAP1 PUSH2 0x11EE JUMP JUMPDEST PUSH1 0x40 MLOAD DUP1 SWAP2 SUB SWAP1 LOG2 POP POP JUMP JUMPDEST PUSH0 PUSH1 0x1 PUSH0 DUP4 PUSH20 0xFFFFFFFFFFFFFFFFFFFFFFFFFFFFFFFFFFFFFFFF AND PUSH20 0xFFFFFFFFFFFFFFFFFFFFFFFFFFFFFFFFFFFFFFFF AND DUP2 MSTORE PUSH1 0x20 ADD SWAP1 DUP2 MSTORE PUSH1 0x20 ADD PUSH0 KECCAK256 PUSH0 ADD SLOAD SUB PUSH2 0x522 JUMPI PUSH1 0x40 MLOAD PUSH32 0x8C379A000000000000000000000000000000000000000000000000000000000 DUP2 MSTORE PUSH1 0x4 ADD PUSH2 0x519 SWAP1 PUSH2 0xDB4 JUMP JUMPDEST PUSH1 0x40 MLOAD DUP1 SWAP2 SUB SWAP1 REVERT JUMPDEST PUSH1 0x1 PUSH0 DUP3 PUSH20 0xFFFFFFFFFFFFFFFFFFFFFFFFFFFFFFFFFFFFFFFF AND PUSH20 0xFFFFFFFFFFFFFFFFFFFFFFFFFFFFFFFFFFFFFFFF AND DUP2 MSTORE PUSH1 0x20 ADD SWAP1 DUP2 MSTORE PUSH1 0x20 ADD PUSH0 KECCAK256 PUSH0 PUSH0 DUP3 ADD PUSH0 SWAP1 SSTORE PUSH1 0x1 DUP3 ADD PUSH0 PUSH2 0x100 EXP DUP2 SLOAD SWAP1 PUSH1 0xFF MUL NOT AND SWAP1 SSTORE PUSH1 0x2 DUP3 ADD PUSH0 PUSH2 0x588 SWAP2 SWAP1 PUSH2 0x8C5 JUMP JUMPDEST POP POP DUP1 PUSH20 0xFFFFFFFFFFFFFFFFFFFFFFFFFFFFFFFFFFFFFFFF AND PUSH32 0x6107A4A5447A4208BA14E3EC240BCCF0A93828124CCF501AF04601031070B183 PUSH1 0x40 MLOAD PUSH1 0x40 MLOAD DUP1 SWAP2 SUB SWAP1 LOG2 POP JUMP JUMPDEST PUSH0 PUSH0 PUSH0 SWAP1 SLOAD SWAP1 PUSH2 0x100 EXP SWAP1 DIV PUSH20 0xFFFFFFFFFFFFFFFFFFFFFFFFFFFFFFFFFFFFFFFF AND SWAP1 POP SWAP1 JUMP JUMPDEST PUSH0 PUSH0 SWAP1 SLOAD SWAP1 PUSH2 0x100 EXP SWAP1 DIV PUSH20 0xFFFFFFFFFFFFFFFFFFFFFFFFFFFFFFFFFFFFFFFF AND DUP2 JUMP JUMPDEST PUSH0 PUSH0 PUSH1 0x1 PUSH0 DUP6 PUSH20 0xFFFFFFFFFFFFFFFFFFFFFFFFFFFFFFFFFFFFFFFF AND PUSH20 0xFFFFFFFFFFFFFFFFFFFFFFFFFFFFFFFFFFFFFFFF AND DUP2 MSTORE PUSH1 0x20 ADD SWAP1 DUP2 MSTORE PUSH1 0x20 ADD PUSH0 KECCAK256 PUSH0 ADD SLOAD SUB PUSH2 0x66A JUMPI PUSH0 SWAP1 POP PUSH2 0x6E0 JUMP JUMPDEST DUP2 PUSH1 0x1 DUP2 GT ISZERO PUSH2 0x67D JUMPI PUSH2 0x67C PUSH2 0x9BE JUMP JUMPDEST JUMPDEST PUSH1 0x1 PUSH0 DUP6 PUSH20 0xFFFFFFFFFFFFFFFFFFFFFFFFFFFFFFFFFFFFFFFF AND PUSH20 0xFFFFFFFFFFFFFFFFFFFFFFFFFFFFFFFFFFFFFFFF AND DUP2 MSTORE PUSH1 0x20 ADD SWAP1 DUP2 MSTORE PUSH1 0x20 ADD PUSH0 KECCAK256 PUSH1 0x1 ADD PUSH0 SWAP1 SLOAD SWAP1 PUSH2 0x100 EXP SWAP1 DIV PUSH1 0xFF AND PUSH1 0x1 DUP2 GT ISZERO PUSH2 0x6DC JUMPI PUSH2 0x6DB PUSH2 0x9BE JUMP JUMPDEST JUMPDEST EQ SWAP1 POP JUMPDEST SWAP3 SWAP2 POP POP JUMP JUMPDEST PUSH1 0x60 PUSH0 PUSH1 0x3 DUP1 SLOAD SWAP1 POP PUSH8 0xFFFFFFFFFFFFFFFF DUP2 GT ISZERO PUSH2 0x708 JUMPI PUSH2 0x707 PUSH2 0xEAC JUMP JUMPDEST JUMPDEST PUSH1 0x40 MLOAD SWAP1 DUP1 DUP3 MSTORE DUP1 PUSH1 0x20 MUL PUSH1 0x20 ADD DUP3 ADD PUSH1 0x40 MSTORE DUP1 ISZERO PUSH2 0x741 JUMPI DUP2 PUSH1 0x20 ADD JUMPDEST PUSH2 0x72E PUSH2 0x894 JUMP JUMPDEST DUP2 MSTORE PUSH1 0x20 ADD SWAP1 PUSH1 0x1 SWAP1 SUB SWAP1 DUP2 PUSH2 0x726 JUMPI SWAP1 POP JUMPDEST POP SWAP1 POP PUSH0 PUSH0 SWAP1 POP JUMPDEST PUSH1 0x3 DUP1 SLOAD SWAP1 POP DUP2 LT ISZERO PUSH2 0x88C JUMPI PUSH1 0x2 PUSH0 PUSH1 0x3 DUP4 DUP2 SLOAD DUP2 LT PUSH2 0x76D JUMPI PUSH2 0x76C PUSH2 0x121C JUMP JUMPDEST JUMPDEST SWAP1 PUSH0 MSTORE PUSH1 0x20 PUSH0 KECCAK256 ADD SLOAD DUP2 MSTORE PUSH1 0x20 ADD SWAP1 DUP2 MSTORE PUSH1 0x20 ADD PUSH0 KECCAK256 PUSH1 0x40 MLOAD DUP1 PUSH1 0x60 ADD PUSH1 0x40 MSTORE SWAP1 DUP2 PUSH0 DUP3 ADD SLOAD DUP2 MSTORE PUSH1 0x20 ADD PUSH1 0x1 DUP3 ADD PUSH0 SWAP1 SLOAD SWAP1 PUSH2 0x100 EXP SWAP1 DIV PUSH1 0xFF AND PUSH1 0x1 DUP2 GT ISZERO PUSH2 0x7BB JUMPI PUSH2 0x7BA PUSH2 0x9BE JUMP JUMPDEST JUMPDEST PUSH1 0x1 DUP2 GT ISZERO PUSH2 0x7CD JUMPI PUSH2 0x7CC PUSH2 0x9BE JUMP JUMPDEST JUMPDEST DUP2 MSTORE PUSH1 0x20 ADD PUSH1 0x2 DUP3 ADD DUP1 SLOAD PUSH2 0x7E1 SWAP1 PUSH2 0xDFF JUMP JUMPDEST DUP1 PUSH1 0x1F ADD PUSH1 0x20 DUP1 SWAP2 DIV MUL PUSH1 0x20 ADD PUSH1 0x40 MLOAD SWAP1 DUP2 ADD PUSH1 0x40 MSTORE DUP1 SWAP3 SWAP2 SWAP1 DUP2 DUP2 MSTORE PUSH1 0x20 ADD DUP3 DUP1 SLOAD PUSH2 0x80D SWAP1 PUSH2 0xDFF JUMP JUMPDEST DUP1 ISZERO PUSH2 0x858 JUMPI DUP1 PUSH1 0x1F LT PUSH2 0x82F JUMPI PUSH2 0x100 DUP1 DUP4 SLOAD DIV MUL DUP4 MSTORE SWAP2 PUSH1 0x20 ADD SWAP2 PUSH2 0x858 JUMP JUMPDEST DUP3 ADD SWAP2 SWAP1 PUSH0 MSTORE PUSH1 0x20 PUSH0 KECCAK256 SWAP1 JUMPDEST DUP2 SLOAD DUP2 MSTORE SWAP1 PUSH1 0x1 ADD SWAP1 PUSH1 0x20 ADD DUP1 DUP4 GT PUSH2 0x83B JUMPI DUP3 SWAP1 SUB PUSH1 0x1F AND DUP3 ADD SWAP2 JUMPDEST POP POP POP POP POP DUP2 MSTORE POP POP DUP3 DUP3 DUP2 MLOAD DUP2 LT PUSH2 0x874 JUMPI PUSH2 0x873 PUSH2 0x121C JUMP JUMPDEST JUMPDEST PUSH1 0x20 MUL PUSH1 0x20 ADD ADD DUP2 SWAP1 MSTORE POP DUP1 DUP1 PUSH1 0x1 ADD SWAP2 POP POP PUSH2 0x749 JUMP JUMPDEST POP DUP1 SWAP2 POP POP SWAP1 JUMP JUMPDEST PUSH1 0x40 MLOAD DUP1 PUSH1 0x60 ADD PUSH1 0x40 MSTORE DUP1 PUSH0 DUP2 MSTORE PUSH1 0x20 ADD PUSH0 PUSH1 0x1 DUP2 GT ISZERO PUSH2 0x8B8 JUMPI PUSH2 0x8B7 PUSH2 0x9BE JUMP JUMPDEST JUMPDEST DUP2 MSTORE PUSH1 0x20 ADD PUSH1 0x60 DUP2 MSTORE POP SWAP1 JUMP JUMPDEST POP DUP1 SLOAD PUSH2 0x8D1 SWAP1 PUSH2 0xDFF JUMP JUMPDEST PUSH0 DUP3 SSTORE DUP1 PUSH1 0x1F LT PUSH2 0x8E2 JUMPI POP PUSH2 0x8FF JUMP JUMPDEST PUSH1 0x1F ADD PUSH1 0x20 SWAP1 DIV SWAP1 PUSH0 MSTORE PUSH1 0x20 PUSH0 KECCAK256 SWAP1 DUP2 ADD SWAP1 PUSH2 0x8FE SWAP2 SWAP1 PUSH2 0x902 JUMP JUMPDEST JUMPDEST POP JUMP JUMPDEST JUMPDEST DUP1 DUP3 GT ISZERO PUSH2 0x919 JUMPI PUSH0 DUP2 PUSH0 SWAP1 SSTORE POP PUSH1 0x1 ADD PUSH2 0x903 JUMP JUMPDEST POP SWAP1 JUMP JUMPDEST PUSH0 PUSH0 REVERT JUMPDEST PUSH0 PUSH20 0xFFFFFFFFFFFFFFFFFFFFFFFFFFFFFFFFFFFFFFFF DUP3 AND SWAP1 POP SWAP2 SWAP1 POP JUMP JUMPDEST PUSH0 PUSH2 0x94A DUP3 PUSH2 0x921 JUMP JUMPDEST SWAP1 POP SWAP2 SWAP1 POP JUMP JUMPDEST PUSH2 0x95A DUP2 PUSH2 0x940 JUMP JUMPDEST DUP2 EQ PUSH2 0x964 JUMPI PUSH0 PUSH0 REVERT JUMPDEST POP JUMP JUMPDEST PUSH0 DUP2 CALLDATALOAD SWAP1 POP PUSH2 0x975 DUP2 PUSH2 0x951 JUMP JUMPDEST SWAP3 SWAP2 POP POP JUMP JUMPDEST PUSH0 PUSH1 0x20 DUP3 DUP5 SUB SLT ISZERO PUSH2 0x990 JUMPI PUSH2 0x98F PUSH2 0x91D JUMP JUMPDEST JUMPDEST PUSH0 PUSH2 0x99D DUP5 DUP3 DUP6 ADD PUSH2 0x967 JUMP JUMPDEST SWAP2 POP POP SWAP3 SWAP2 POP POP JUMP JUMPDEST PUSH0 DUP2 SWAP1 POP SWAP2 SWAP1 POP JUMP JUMPDEST PUSH2 0x9B8 DUP2 PUSH2 0x9A6 JUMP JUMPDEST DUP3 MSTORE POP POP JUMP JUMPDEST PUSH32 0x4E487B7100000000000000000000000000000000000000000000000000000000 PUSH0 MSTORE PUSH1 0x21 PUSH1 0x4 MSTORE PUSH1 0x24 PUSH0 REVERT JUMPDEST PUSH1 0x2 DUP2 LT PUSH2 0x9FC JUMPI PUSH2 0x9FB PUSH2 0x9BE JUMP JUMPDEST JUMPDEST POP JUMP JUMPDEST PUSH0 DUP2 SWAP1 POP PUSH2 0xA0C DUP3 PUSH2 0x9EB JUMP JUMPDEST SWAP2 SWAP1 POP JUMP JUMPDEST PUSH0 PUSH2 0xA1B DUP3 PUSH2 0x9FF JUMP JUMPDEST SWAP1 POP SWAP2 SWAP1 POP JUMP JUMPDEST PUSH2 0xA2B DUP2 PUSH2 0xA11 JUMP JUMPDEST DUP3 MSTORE POP POP JUMP JUMPDEST PUSH0 DUP2 MLOAD SWAP1 POP SWAP2 SWAP1 POP JUMP JUMPDEST PUSH0 DUP3 DUP3 MSTORE PUSH1 0x20 DUP3 ADD SWAP1 POP SWAP3 SWAP2 POP POP JUMP JUMPDEST DUP3 DUP2 DUP4 MCOPY PUSH0 DUP4 DUP4 ADD MSTORE POP POP POP JUMP JUMPDEST PUSH0 PUSH1 0x1F NOT PUSH1 0x1F DUP4 ADD AND SWAP1 POP SWAP2 SWAP1 POP JUMP JUMPDEST PUSH0 PUSH2 0xA73 DUP3 PUSH2 0xA31 JUMP JUMPDEST PUSH2 0xA7D DUP2 DUP6 PUSH2 0xA3B JUMP JUMPDEST SWAP4 POP PUSH2 0xA8D DUP2 DUP6 PUSH1 0x20 DUP7 ADD PUSH2 0xA4B JUMP JUMPDEST PUSH2 0xA96 DUP2 PUSH2 0xA59 JUMP JUMPDEST DUP5 ADD SWAP2 POP POP SWAP3 SWAP2 POP POP JUMP JUMPDEST PUSH0 PUSH1 0x60 DUP4 ADD PUSH0 DUP4 ADD MLOAD PUSH2 0xAB6 PUSH0 DUP7 ADD DUP3 PUSH2 0x9AF JUMP JUMPDEST POP PUSH1 0x20 DUP4 ADD MLOAD PUSH2 0xAC9 PUSH1 0x20 DUP7 ADD DUP3 PUSH2 0xA22 JUMP JUMPDEST POP PUSH1 0x40 DUP4 ADD MLOAD DUP5 DUP3 SUB PUSH1 0x40 DUP7 ADD MSTORE PUSH2 0xAE1 DUP3 DUP3 PUSH2 0xA69 JUMP JUMPDEST SWAP2 POP POP DUP1 SWAP2 POP POP SWAP3 SWAP2 POP POP JUMP JUMPDEST PUSH0 PUSH1 0x20 DUP3 ADD SWAP1 POP DUP2 DUP2 SUB PUSH0 DUP4 ADD MSTORE PUSH2 0xB06 DUP2 DUP5 PUSH2 0xAA1 JUMP JUMPDEST SWAP1 POP SWAP3 SWAP2 POP POP JUMP JUMPDEST PUSH2 0xB17 DUP2 PUSH2 0x9A6 JUMP JUMPDEST DUP2 EQ PUSH2 0xB21 JUMPI PUSH0 PUSH0 REVERT JUMPDEST POP JUMP JUMPDEST PUSH0 DUP2 CALLDATALOAD SWAP1 POP PUSH2 0xB32 DUP2 PUSH2 0xB0E JUMP JUMPDEST SWAP3 SWAP2 POP POP JUMP JUMPDEST PUSH0 PUSH0 PUSH1 0x40 DUP4 DUP6 SUB SLT ISZERO PUSH2 0xB4E JUMPI PUSH2 0xB4D PUSH2 0x91D JUMP JUMPDEST JUMPDEST PUSH0 PUSH2 0xB5B DUP6 DUP3 DUP7 ADD PUSH2 0x967 JUMP JUMPDEST SWAP3 POP POP PUSH1 0x20 PUSH2 0xB6C DUP6 DUP3 DUP7 ADD PUSH2 0xB24 JUMP JUMPDEST SWAP2 POP POP SWAP3 POP SWAP3 SWAP1 POP JUMP JUMPDEST PUSH2 0xB7F DUP2 PUSH2 0x940 JUMP JUMPDEST DUP3 MSTORE POP POP JUMP JUMPDEST PUSH0 PUSH1 0x20 DUP3 ADD SWAP1 POP PUSH2 0xB98 PUSH0 DUP4 ADD DUP5 PUSH2 0xB76 JUMP JUMPDEST SWAP3 SWAP2 POP POP JUMP JUMPDEST PUSH1 0x2 DUP2 LT PUSH2 0xBAA JUMPI PUSH0 PUSH0 REVERT JUMPDEST POP JUMP JUMPDEST PUSH0 DUP2 CALLDATALOAD SWAP1 POP PUSH2 0xBBB DUP2 PUSH2 0xB9E JUMP JUMPDEST SWAP3 SWAP2 POP POP JUMP JUMPDEST PUSH0 PUSH0 PUSH1 0x40 DUP4 DUP6 SUB SLT ISZERO PUSH2 0xBD7 JUMPI PUSH2 0xBD6 PUSH2 0x91D JUMP JUMPDEST JUMPDEST PUSH0 PUSH2 0xBE4 DUP6 DUP3 DUP7 ADD PUSH2 0x967 JUMP JUMPDEST SWAP3 POP POP PUSH1 0x20 PUSH2 0xBF5 DUP6 DUP3 DUP7 ADD PUSH2 0xBAD JUMP JUMPDEST SWAP2 POP POP SWAP3 POP SWAP3 SWAP1 POP JUMP JUMPDEST PUSH0 DUP2 ISZERO ISZERO SWAP1 POP SWAP2 SWAP1 POP JUMP JUMPDEST PUSH2 0xC13 DUP2 PUSH2 0xBFF JUMP JUMPDEST DUP3 MSTORE POP POP JUMP JUMPDEST PUSH0 PUSH1 0x20 DUP3 ADD SWAP1 POP PUSH2 0xC2C PUSH0 DUP4 ADD DUP5 PUSH2 0xC0A JUMP JUMPDEST SWAP3 SWAP2 POP POP JUMP JUMPDEST PUSH0 DUP2 MLOAD SWAP1 POP SWAP2 SWAP1 POP JUMP JUMPDEST PUSH0 DUP3 DUP3 MSTORE PUSH1 0x20 DUP3 ADD SWAP1 POP SWAP3 SWAP2 POP POP JUMP JUMPDEST PUSH0 DUP2 SWAP1 POP PUSH1 0x20 DUP3 ADD SWAP1 POP SWAP2 SWAP1 POP JUMP JUMPDEST PUSH0 PUSH1 0x60 DUP4 ADD PUSH0 DUP4 ADD MLOAD PUSH2 0xC70 PUSH0 DUP7 ADD DUP3 PUSH2 0x9AF JUMP JUMPDEST POP PUSH1 0x20 DUP4 ADD MLOAD PUSH2 0xC83 PUSH1 0x20 DUP7 ADD DUP3 PUSH2 0xA22 JUMP JUMPDEST POP PUSH1 0x40 DUP4 ADD MLOAD DUP5 DUP3 SUB PUSH1 0x40 DUP7 ADD MSTORE PUSH2 0xC9B DUP3 DUP3 PUSH2 0xA69 JUMP JUMPDEST SWAP2 POP POP DUP1 SWAP2 POP POP SWAP3 SWAP2 POP POP JUMP JUMPDEST PUSH0 PUSH2 0xCB3 DUP4 DUP4 PUSH2 0xC5B JUMP JUMPDEST SWAP1 POP SWAP3 SWAP2 POP POP JUMP JUMPDEST PUSH0 PUSH1 0x20 DUP3 ADD SWAP1 POP SWAP2 SWAP1 POP JUMP JUMPDEST PUSH0 PUSH2 0xCD1 DUP3 PUSH2 0xC32 JUMP JUMPDEST PUSH2 0xCDB DUP2 DUP6 PUSH2 0xC3C JUMP JUMPDEST SWAP4 POP DUP4 PUSH1 0x20 DUP3 MUL DUP6 ADD PUSH2 0xCED DUP6 PUSH2 0xC4C JUMP JUMPDEST DUP1 PUSH0 JUMPDEST DUP6 DUP2 LT ISZERO PUSH2 0xD28 JUMPI DUP5 DUP5 SUB DUP10 MSTORE DUP2 MLOAD PUSH2 0xD09 DUP6 DUP3 PUSH2 0xCA8 JUMP JUMPDEST SWAP5 POP PUSH2 0xD14 DUP4 PUSH2 0xCBB JUMP JUMPDEST SWAP3 POP PUSH1 0x20 DUP11 ADD SWAP10 POP POP PUSH1 0x1 DUP2 ADD SWAP1 POP PUSH2 0xCF0 JUMP JUMPDEST POP DUP3 SWAP8 POP DUP8 SWAP6 POP POP POP POP POP POP SWAP3 SWAP2 POP POP JUMP JUMPDEST PUSH0 PUSH1 0x20 DUP3 ADD SWAP1 POP DUP2 DUP2 SUB PUSH0 DUP4 ADD MSTORE PUSH2 0xD52 DUP2 DUP5 PUSH2 0xCC7 JUMP JUMPDEST SWAP1 POP SWAP3 SWAP2 POP POP JUMP JUMPDEST PUSH0 DUP3 DUP3 MSTORE PUSH1 0x20 DUP3 ADD SWAP1 POP SWAP3 SWAP2 POP POP JUMP JUMPDEST PUSH32 0x5573657220686173206E6F20726F6C652061737369676E656400000000000000 PUSH0 DUP3 ADD MSTORE POP JUMP JUMPDEST PUSH0 PUSH2 0xD9E PUSH1 0x19 DUP4 PUSH2 0xD5A JUMP JUMPDEST SWAP2 POP PUSH2 0xDA9 DUP3 PUSH2 0xD6A JUMP JUMPDEST PUSH1 0x20 DUP3 ADD SWAP1 POP SWAP2 SWAP1 POP JUMP JUMPDEST PUSH0 PUSH1 0x20 DUP3 ADD SWAP1 POP DUP2 DUP2 SUB PUSH0 DUP4 ADD MSTORE PUSH2 0xDCB DUP2 PUSH2 0xD92 JUMP JUMPDEST SWAP1 POP SWAP2 SWAP1 POP JUMP JUMPDEST PUSH32 0x4E487B7100000000000000000000000000000000000000000000000000000000 PUSH0 MSTORE PUSH1 0x22 PUSH1 0x4 MSTORE PUSH1 0x24 PUSH0 REVERT JUMPDEST PUSH0 PUSH1 0x2 DUP3 DIV SWAP1 POP PUSH1 0x1 DUP3 AND DUP1 PUSH2 0xE16 JUMPI PUSH1 0x7F DUP3 AND SWAP2 POP JUMPDEST PUSH1 0x20 DUP3 LT DUP2 SUB PUSH2 0xE29 JUMPI PUSH2 0xE28 PUSH2 0xDD2 JUMP JUMPDEST JUMPDEST POP SWAP2 SWAP1 POP JUMP JUMPDEST PUSH32 0x496E76616C696420726F6C652049440000000000000000000000000000000000 PUSH0 DUP3 ADD MSTORE POP JUMP JUMPDEST PUSH0 PUSH2 0xE63 PUSH1 0xF DUP4 PUSH2 0xD5A JUMP JUMPDEST SWAP2 POP PUSH2 0xE6E DUP3 PUSH2 0xE2F JUMP JUMPDEST PUSH1 0x20 DUP3 ADD SWAP1 POP SWAP2 SWAP1 POP JUMP JUMPDEST PUSH0 PUSH1 0x20 DUP3 ADD SWAP1 POP DUP2 DUP2 SUB PUSH0 DUP4 ADD MSTORE PUSH2 0xE90 DUP2 PUSH2 0xE57 JUMP JUMPDEST SWAP1 POP SWAP2 SWAP1 POP JUMP JUMPDEST PUSH0 DUP2 SLOAD SWAP1 POP PUSH2 0xEA5 DUP2 PUSH2 0xDFF JUMP JUMPDEST SWAP1 POP SWAP2 SWAP1 POP JUMP JUMPDEST PUSH32 0x4E487B7100000000000000000000000000000000000000000000000000000000 PUSH0 MSTORE PUSH1 0x41 PUSH1 0x4 MSTORE PUSH1 0x24 PUSH0 REVERT JUMPDEST PUSH0 DUP2 SWAP1 POP DUP2 PUSH0 MSTORE PUSH1 0x20 PUSH0 KECCAK256 SWAP1 POP SWAP2 SWAP1 POP JUMP JUMPDEST PUSH0 PUSH1 0x20 PUSH1 0x1F DUP4 ADD DIV SWAP1 POP SWAP2 SWAP1 POP JUMP JUMPDEST PUSH0 DUP3 DUP3 SHL SWAP1 POP SWAP3 SWAP2 POP POP JUMP JUMPDEST PUSH0 PUSH1 0x8 DUP4 MUL PUSH2 0xF35 PUSH32 0xFFFFFFFFFFFFFFFFFFFFFFFFFFFFFFFFFFFFFFFFFFFFFFFFFFFFFFFFFFFFFFFF DUP3 PUSH2 0xEFA JUMP JUMPDEST PUSH2 0xF3F DUP7 DUP4 PUSH2 0xEFA JUMP JUMPDEST SWAP6 POP DUP1 NOT DUP5 AND SWAP4 POP DUP1 DUP7 AND DUP5 OR SWAP3 POP POP POP SWAP4 SWAP3 POP POP POP JUMP JUMPDEST PUSH0 DUP2 SWAP1 POP SWAP2 SWAP1 POP JUMP JUMPDEST PUSH0 PUSH2 0xF7A PUSH2 0xF75 PUSH2 0xF70 DUP5 PUSH2 0x9A6 JUMP JUMPDEST PUSH2 0xF57 JUMP JUMPDEST PUSH2 0x9A6 JUMP JUMPDEST SWAP1 POP SWAP2 SWAP1 POP JUMP JUMPDEST PUSH0 DUP2 SWAP1 POP SWAP2 SWAP1 POP JUMP JUMPDEST PUSH2 0xF93 DUP4 PUSH2 0xF60 JUMP JUMPDEST PUSH2 0xFA7 PUSH2 0xF9F DUP3 PUSH2 0xF81 JUMP JUMPDEST DUP5 DUP5 SLOAD PUSH2 0xF06 JUMP JUMPDEST DUP3 SSTORE POP POP POP POP JUMP JUMPDEST PUSH0 PUSH0 SWAP1 POP SWAP1 JUMP JUMPDEST PUSH2 0xFBE PUSH2 0xFAF JUMP JUMPDEST PUSH2 0xFC9 DUP2 DUP5 DUP5 PUSH2 0xF8A JUMP JUMPDEST POP POP POP JUMP JUMPDEST JUMPDEST DUP2 DUP2 LT ISZERO PUSH2 0xFEC JUMPI PUSH2 0xFE1 PUSH0 DUP3 PUSH2 0xFB6 JUMP JUMPDEST PUSH1 0x1 DUP2 ADD SWAP1 POP PUSH2 0xFCF JUMP JUMPDEST POP POP JUMP JUMPDEST PUSH1 0x1F DUP3 GT ISZERO PUSH2 0x1031 JUMPI PUSH2 0x1002 DUP2 PUSH2 0xED9 JUMP JUMPDEST PUSH2 0x100B DUP5 PUSH2 0xEEB JUMP JUMPDEST DUP2 ADD PUSH1 0x20 DUP6 LT ISZERO PUSH2 0x101A JUMPI DUP2 SWAP1 POP JUMPDEST PUSH2 0x102E PUSH2 0x1026 DUP6 PUSH2 0xEEB JUMP JUMPDEST DUP4 ADD DUP3 PUSH2 0xFCE JUMP JUMPDEST POP POP JUMPDEST POP POP POP JUMP JUMPDEST PUSH0 DUP3 DUP3 SHR SWAP1 POP SWAP3 SWAP2 POP POP JUMP JUMPDEST PUSH0 PUSH2 0x1051 PUSH0 NOT DUP5 PUSH1 0x8 MUL PUSH2 0x1036 JUMP JUMPDEST NOT DUP1 DUP4 AND SWAP2 POP POP SWAP3 SWAP2 POP POP JUMP JUMPDEST PUSH0 PUSH2 0x1069 DUP4 DUP4 PUSH2 0x1042 JUMP JUMPDEST SWAP2 POP DUP3 PUSH1 0x2 MUL DUP3 OR SWAP1 POP SWAP3 SWAP2 POP POP JUMP JUMPDEST DUP2 DUP2 SUB PUSH2 0x1087 JUMPI POP POP PUSH2 0x115C JUMP JUMPDEST PUSH2 0x1090 DUP3 PUSH2 0xE97 JUMP JUMPDEST PUSH8 0xFFFFFFFFFFFFFFFF DUP2 GT ISZERO PUSH2 0x10A9 JUMPI PUSH2 0x10A8 PUSH2 0xEAC JUMP JUMPDEST JUMPDEST PUSH2 0x10B3 DUP3 SLOAD PUSH2 0xDFF JUMP JUMPDEST PUSH2 0x10BE DUP3 DUP3 DUP6 PUSH2 0xFF0 JUMP JUMPDEST PUSH0 PUSH1 0x1F DUP4 GT PUSH1 0x1 DUP2 EQ PUSH2 0x10EB JUMPI PUSH0 DUP5 ISZERO PUSH2 0x10D9 JUMPI DUP3 DUP8 ADD SLOAD SWAP1 POP JUMPDEST PUSH2 0x10E3 DUP6 DUP3 PUSH2 0x105E JUMP JUMPDEST DUP7 SSTORE POP PUSH2 0x1155 JUMP JUMPDEST PUSH1 0x1F NOT DUP5 AND PUSH2 0x10F9 DUP8 PUSH2 0xED9 JUMP JUMPDEST SWAP7 POP PUSH2 0x1104 DUP7 PUSH2 0xED9 JUMP JUMPDEST PUSH0 JUMPDEST DUP3 DUP2 LT ISZERO PUSH2 0x112B JUMPI DUP5 DUP10 ADD SLOAD DUP3 SSTORE PUSH1 0x1 DUP3 ADD SWAP2 POP PUSH1 0x1 DUP6 ADD SWAP5 POP PUSH1 0x20 DUP2 ADD SWAP1 POP PUSH2 0x1106 JUMP JUMPDEST DUP7 DUP4 LT ISZERO PUSH2 0x1148 JUMPI DUP5 DUP10 ADD SLOAD PUSH2 0x1144 PUSH1 0x1F DUP10 AND DUP3 PUSH2 0x1042 JUMP JUMPDEST DUP4 SSTORE POP JUMPDEST PUSH1 0x1 PUSH1 0x2 DUP9 MUL ADD DUP9 SSTORE POP POP POP JUMPDEST POP POP POP POP POP POP JUMPDEST JUMP JUMPDEST PUSH0 DUP2 SLOAD PUSH2 0x116A DUP2 PUSH2 0xDFF JUMP JUMPDEST PUSH2 0x1174 DUP2 DUP7 PUSH2 0xD5A JUMP JUMPDEST SWAP5 POP PUSH1 0x1 DUP3 AND PUSH0 DUP2 EQ PUSH2 0x118E JUMPI PUSH1 0x1 DUP2 EQ PUSH2 0x11A4 JUMPI PUSH2 0x11D6 JUMP JUMPDEST PUSH1 0xFF NOT DUP4 AND DUP7 MSTORE DUP2 ISZERO ISZERO PUSH1 0x20 MUL DUP7 ADD SWAP4 POP PUSH2 0x11D6 JUMP JUMPDEST PUSH2 0x11AD DUP6 PUSH2 0xED9 JUMP JUMPDEST PUSH0 JUMPDEST DUP4 DUP2 LT ISZERO PUSH2 0x11CE JUMPI DUP2 SLOAD DUP2 DUP10 ADD MSTORE PUSH1 0x1 DUP3 ADD SWAP2 POP PUSH1 0x20 DUP2 ADD SWAP1 POP PUSH2 0x11AF JUMP JUMPDEST DUP1 DUP9 ADD SWAP6 POP POP POP JUMPDEST POP POP POP SWAP3 SWAP2 POP POP JUMP JUMPDEST PUSH2 0x11E8 DUP2 PUSH2 0xA11 JUMP JUMPDEST DUP3 MSTORE POP POP JUMP JUMPDEST PUSH0 PUSH1 0x40 DUP3 ADD SWAP1 POP DUP2 DUP2 SUB PUSH0 DUP4 ADD MSTORE PUSH2 0x1206 DUP2 DUP6 PUSH2 0x115E JUMP JUMPDEST SWAP1 POP PUSH2 0x1215 PUSH1 0x20 DUP4 ADD DUP5 PUSH2 0x11DF JUMP JUMPDEST SWAP4 SWAP3 POP POP POP JUMP JUMPDEST PUSH32 0x4E487B7100000000000000000000000000000000000000000000000000000000 PUSH0 MSTORE PUSH1 0x32 PUSH1 0x4 MSTORE PUSH1 0x24 PUSH0 REVERT INVALID LOG2 PUSH5 0x6970667358 0x22 SLT KECCAK256 0x2E 0xAA PUSH14 0x973F6CE0021546AB46E65FB233C0 LOG2 SWAP13 0xC7 0x4E DUP4 SWAP3 0xB9 CHAINID 0xC0 0xED DATALOADN 0x37EA 0xAB BYTE PUSH5 0x736F6C6343 STOP ADDMOD 0x1E STOP CALLER "
				},
				"gasEstimates": {
					"creation": {
						"codeDepositCost": "947000",
						"executionCost": "infinite",
						"totalCost": "infinite"
					},
					"external": {
						"assignRole(address,uint256)": "infinite",
						"getAllRoles()": "infinite",
						"getOwner()": "2514",
						"getUserRole(address)": "infinite",
						"hasRole(address,uint8)": "5322",
						"owner()": "2529",
						"revokeRole(address)": "infinite"
					}
				},
				"methodIdentifiers": {
					"assignRole(address,uint256)": "2e3036c7",
					"getAllRoles()": "f2bcac3d",
					"getOwner()": "893d20e8",
					"getUserRole(address)": "27820851",
					"hasRole(address,uint8)": "95a8c58d",
					"owner()": "8da5cb5b",
					"revokeRole(address)": "80e52e3f"
				}
			},
			"storageLayout": {
				"storage": [
					{
						"astId": 4,
						"contract": "contracts/access/RoleAccess.sol:RoleAccess",
						"label": "owner",
						"offset": 0,
						"slot": "0",
						"type": "t_address"
					},
					{
						"astId": 9,
						"contract": "contracts/access/RoleAccess.sol:RoleAccess",
						"label": "userRole",
						"offset": 0,
						"slot": "1",
						"type": "t_mapping(t_address,t_struct(Role)941_storage)"
					},
					{
						"astId": 14,
						"contract": "contracts/access/RoleAccess.sol:RoleAccess",
						"label": "roles",
						"offset": 0,
						"slot": "2",
						"type": "t_mapping(t_uint256,t_struct(Role)941_storage)"
					},
					{
						"astId": 17,
						"contract": "contracts/access/RoleAccess.sol:RoleAccess",
						"label": "arrRoles",
						"offset": 0,
						"slot": "3",
						"type": "t_array(t_uint256)dyn_storage"
					}
				],
				"types": {
					"t_address": {
						"encoding": "inplace",
						"label": "address",
						"numberOfBytes": "20"
					},
					"t_array(t_uint256)dyn_storage": {
						"base": "t_uint256",
						"encoding": "dynamic_array",
						"label": "uint256[]",
						"numberOfBytes": "32"
					},
					"t_enum(RoleType)933": {
						"encoding": "inplace",
						"label": "enum RoleType",
						"numberOfBytes": "1"
					},
					"t_mapping(t_address,t_struct(Role)941_storage)": {
						"encoding": "mapping",
						"key": "t_address",
						"label": "mapping(address => struct Role)",
						"numberOfBytes": "32",
						"value": "t_struct(Role)941_storage"
					},
					"t_mapping(t_uint256,t_struct(Role)941_storage)": {
						"encoding": "mapping",
						"key": "t_uint256",
						"label": "mapping(uint256 => struct Role)",
						"numberOfBytes": "32",
						"value": "t_struct(Role)941_storage"
					},
					"t_string_storage": {
						"encoding": "bytes",
						"label": "string",
						"numberOfBytes": "32"
					},
					"t_struct(Role)941_storage": {
						"encoding": "inplace",
						"label": "struct Role",
						"members": [
							{
								"astId": 935,
								"contract": "contracts/access/RoleAccess.sol:RoleAccess",
								"label": "roleId",
								"offset": 0,
								"slot": "0",
								"type": "t_uint256"
							},
							{
								"astId": 938,
								"contract": "contracts/access/RoleAccess.sol:RoleAccess",
								"label": "role",
								"offset": 0,
								"slot": "1",
								"type": "t_enum(RoleType)933"
							},
							{
								"astId": 940,
								"contract": "contracts/access/RoleAccess.sol:RoleAccess",
								"label": "name",
								"offset": 0,
								"slot": "2",
								"type": "t_string_storage"
							}
						],
						"numberOfBytes": "96"
					},
					"t_uint256": {
						"encoding": "inplace",
						"label": "uint256",
						"numberOfBytes": "32"
					}
				}
			},
			"userdoc": {
				"kind": "user",
				"methods": {},
				"version": 1
			}
		}
	}
}