{
	"contracts/manager/CategoryManager.sol": {
		"CategoryManager": {
			"abi": [
				{
					"inputs": [
						{
							"internalType": "address",
							"name": "_roleAcces",
							"type": "address"
						}
					],
					"stateMutability": "nonpayable",
					"type": "constructor"
				},
				{
					"anonymous": false,
					"inputs": [
						{
							"indexed": false,
							"internalType": "uint256",
							"name": "categoryId",
							"type": "uint256"
						},
						{
							"indexed": false,
							"internalType": "string",
							"name": "name",
							"type": "string"
						}
					],
					"name": "CategoryCreated",
					"type": "event"
				},
				{
					"anonymous": false,
					"inputs": [
						{
							"indexed": false,
							"internalType": "uint256",
							"name": "categoryId",
							"type": "uint256"
						}
					],
					"name": "CategoryDeleted",
					"type": "event"
				},
				{
					"anonymous": false,
					"inputs": [
						{
							"indexed": false,
							"internalType": "uint256",
							"name": "categoryId",
							"type": "uint256"
						},
						{
							"indexed": false,
							"internalType": "string",
							"name": "newName",
							"type": "string"
						}
					],
					"name": "CategoryUpdated",
					"type": "event"
				},
				{
					"inputs": [
						{
							"internalType": "uint256",
							"name": "categoryId",
							"type": "uint256"
						},
						{
							"internalType": "uint256",
							"name": "foodId",
							"type": "uint256"
						}
					],
					"name": "addFoodIdToCategory",
					"outputs": [],
					"stateMutability": "nonpayable",
					"type": "function"
				},
				{
					"inputs": [
						{
							"internalType": "uint256",
							"name": "",
							"type": "uint256"
						}
					],
					"name": "categories",
					"outputs": [
						{
							"internalType": "uint256",
							"name": "categoryId",
							"type": "uint256"
						},
						{
							"internalType": "string",
							"name": "name",
							"type": "string"
						}
					],
					"stateMutability": "view",
					"type": "function"
				},
				{
					"inputs": [
						{
							"internalType": "uint256",
							"name": "",
							"type": "uint256"
						},
						{
							"internalType": "uint256",
							"name": "",
							"type": "uint256"
						}
					],
					"name": "categoryToFoodId",
					"outputs": [
						{
							"internalType": "uint256",
							"name": "",
							"type": "uint256"
						}
					],
					"stateMutability": "view",
					"type": "function"
				},
				{
					"inputs": [
						{
							"internalType": "uint256",
							"name": "categoryId",
							"type": "uint256"
						},
						{
							"internalType": "string",
							"name": "name",
							"type": "string"
						}
					],
					"name": "createCategory",
					"outputs": [],
					"stateMutability": "nonpayable",
					"type": "function"
				},
				{
					"inputs": [
						{
							"internalType": "uint256",
							"name": "categoryId",
							"type": "uint256"
						}
					],
					"name": "deleteCategory",
					"outputs": [],
					"stateMutability": "nonpayable",
					"type": "function"
				},
				{
					"inputs": [],
					"name": "getAllCategories",
					"outputs": [
						{
							"components": [
								{
									"internalType": "uint256",
									"name": "categoryId",
									"type": "uint256"
								},
								{
									"internalType": "string",
									"name": "name",
									"type": "string"
								}
							],
							"internalType": "struct Category[]",
							"name": "",
							"type": "tuple[]"
						}
					],
					"stateMutability": "view",
					"type": "function"
				},
				{
					"inputs": [
						{
							"internalType": "uint256",
							"name": "categoryId",
							"type": "uint256"
						}
					],
					"name": "getCategory",
					"outputs": [
						{
							"components": [
								{
									"internalType": "uint256",
									"name": "categoryId",
									"type": "uint256"
								},
								{
									"internalType": "string",
									"name": "name",
									"type": "string"
								}
							],
							"internalType": "struct Category",
							"name": "",
							"type": "tuple"
						}
					],
					"stateMutability": "view",
					"type": "function"
				},
				{
					"inputs": [],
					"name": "roleAccess",
					"outputs": [
						{
							"internalType": "contract RoleAccess",
							"name": "",
							"type": "address"
						}
					],
					"stateMutability": "view",
					"type": "function"
				},
				{
					"inputs": [
						{
							"internalType": "uint256",
							"name": "categoryId",
							"type": "uint256"
						},
						{
							"internalType": "string",
							"name": "newName",
							"type": "string"
						}
					],
					"name": "updateCategory",
					"outputs": [],
					"stateMutability": "nonpayable",
					"type": "function"
				}
			],
			"devdoc": {
				"kind": "dev",
				"methods": {},
				"version": 1
			},
			"evm": {
				"assembly": "    /* \"contracts/manager/CategoryManager.sol\":208:2869  contract CategoryManager is ICategoryManager {... */\n  mstore(0x40, 0x80)\n    /* \"contracts/manager/CategoryManager.sol\":440:527  constructor( address _roleAcces) {... */\n  callvalue\n  dup1\n  iszero\n  tag_1\n  jumpi\n  revert(0x00, 0x00)\ntag_1:\n  pop\n  mload(0x40)\n  sub(codesize, bytecodeSize)\n  dup1\n  bytecodeSize\n  dup4\n  codecopy\n  dup2\n  dup2\n  add\n  0x40\n  mstore\n  dup2\n  add\n  swap1\n  tag_2\n  swap2\n  swap1\n  tag_3\n  jump\t// in\ntag_2:\n    /* \"contracts/manager/CategoryManager.sol\":508:518  _roleAcces */\n  dup1\n    /* \"contracts/manager/CategoryManager.sol\":484:494  roleAccess */\n  0x00\n  0x00\n    /* \"contracts/manager/CategoryManager.sol\":484:519  roleAccess = RoleAccess(_roleAcces) */\n  0x0100\n  exp\n  dup2\n  sload\n  dup2\n  0xffffffffffffffffffffffffffffffffffffffff\n  mul\n  not\n  and\n  swap1\n  dup4\n  0xffffffffffffffffffffffffffffffffffffffff\n  and\n  mul\n  or\n  swap1\n  sstore\n  pop\n    /* \"contracts/manager/CategoryManager.sol\":440:527  constructor( address _roleAcces) {... */\n  pop\n    /* \"contracts/manager/CategoryManager.sol\":208:2869  contract CategoryManager is ICategoryManager {... */\n  jump(tag_6)\n    /* \"#utility.yul\":88:205   */\ntag_8:\n    /* \"#utility.yul\":197:198   */\n  0x00\n    /* \"#utility.yul\":194:195   */\n  0x00\n    /* \"#utility.yul\":187:199   */\n  revert\n    /* \"#utility.yul\":334:460   */\ntag_10:\n    /* \"#utility.yul\":371:378   */\n  0x00\n    /* \"#utility.yul\":411:453   */\n  0xffffffffffffffffffffffffffffffffffffffff\n    /* \"#utility.yul\":404:409   */\n  dup3\n    /* \"#utility.yul\":400:454   */\n  and\n    /* \"#utility.yul\":389:454   */\n  swap1\n  pop\n    /* \"#utility.yul\":334:460   */\n  swap2\n  swap1\n  pop\n  jump\t// out\n    /* \"#utility.yul\":466:562   */\ntag_11:\n    /* \"#utility.yul\":503:510   */\n  0x00\n    /* \"#utility.yul\":532:556   */\n  tag_20\n    /* \"#utility.yul\":550:555   */\n  dup3\n    /* \"#utility.yul\":532:556   */\n  tag_10\n  jump\t// in\ntag_20:\n    /* \"#utility.yul\":521:556   */\n  swap1\n  pop\n    /* \"#utility.yul\":466:562   */\n  swap2\n  swap1\n  pop\n  jump\t// out\n    /* \"#utility.yul\":568:690   */\ntag_12:\n    /* \"#utility.yul\":641:665   */\n  tag_22\n    /* \"#utility.yul\":659:664   */\n  dup2\n    /* \"#utility.yul\":641:665   */\n  tag_11\n  jump\t// in\ntag_22:\n    /* \"#utility.yul\":634:639   */\n  dup2\n    /* \"#utility.yul\":631:666   */\n  eq\n    /* \"#utility.yul\":621:684   */\n  tag_23\n  jumpi\n    /* \"#utility.yul\":680:681   */\n  0x00\n    /* \"#utility.yul\":677:678   */\n  0x00\n    /* \"#utility.yul\":670:682   */\n  revert\n    /* \"#utility.yul\":621:684   */\ntag_23:\n    /* \"#utility.yul\":568:690   */\n  pop\n  jump\t// out\n    /* \"#utility.yul\":696:839   */\ntag_13:\n    /* \"#utility.yul\":753:758   */\n  0x00\n    /* \"#utility.yul\":784:790   */\n  dup2\n    /* \"#utility.yul\":778:791   */\n  mload\n    /* \"#utility.yul\":769:791   */\n  swap1\n  pop\n    /* \"#utility.yul\":800:833   */\n  tag_25\n    /* \"#utility.yul\":827:832   */\n  dup2\n    /* \"#utility.yul\":800:833   */\n  tag_12\n  jump\t// in\ntag_25:\n    /* \"#utility.yul\":696:839   */\n  swap3\n  swap2\n  pop\n  pop\n  jump\t// out\n    /* \"#utility.yul\":845:1196   */\ntag_3:\n    /* \"#utility.yul\":915:921   */\n  0x00\n    /* \"#utility.yul\":964:966   */\n  0x20\n    /* \"#utility.yul\":952:961   */\n  dup3\n    /* \"#utility.yul\":943:950   */\n  dup5\n    /* \"#utility.yul\":939:962   */\n  sub\n    /* \"#utility.yul\":935:967   */\n  slt\n    /* \"#utility.yul\":932:1051   */\n  iszero\n  tag_27\n  jumpi\n    /* \"#utility.yul\":970:1049   */\n  tag_28\n  tag_8\n  jump\t// in\ntag_28:\n    /* \"#utility.yul\":932:1051   */\ntag_27:\n    /* \"#utility.yul\":1090:1091   */\n  0x00\n    /* \"#utility.yul\":1115:1179   */\n  tag_29\n    /* \"#utility.yul\":1171:1178   */\n  dup5\n    /* \"#utility.yul\":1162:1168   */\n  dup3\n    /* \"#utility.yul\":1151:1160   */\n  dup6\n    /* \"#utility.yul\":1147:1169   */\n  add\n    /* \"#utility.yul\":1115:1179   */\n  tag_13\n  jump\t// in\ntag_29:\n    /* \"#utility.yul\":1105:1179   */\n  swap2\n  pop\n    /* \"#utility.yul\":1061:1189   */\n  pop\n    /* \"#utility.yul\":845:1196   */\n  swap3\n  swap2\n  pop\n  pop\n  jump\t// out\n    /* \"contracts/manager/CategoryManager.sol\":208:2869  contract CategoryManager is ICategoryManager {... */\ntag_6:\n  dataSize(sub_0)\n  dup1\n  dataOffset(sub_0)\n  0x00\n  codecopy\n  0x00\n  return\nstop\n\nsub_0: assembly {\n        /* \"contracts/manager/CategoryManager.sol\":208:2869  contract CategoryManager is ICategoryManager {... */\n      mstore(0x40, 0x80)\n      callvalue\n      dup1\n      iszero\n      tag_1\n      jumpi\n      revert(0x00, 0x00)\n    tag_1:\n      pop\n      jumpi(tag_2, lt(calldatasize, 0x04))\n      shr(0xe0, calldataload(0x00))\n      dup1\n      0xceca737f\n      gt\n      tag_12\n      jumpi\n      dup1\n      0xceca737f\n      eq\n      tag_7\n      jumpi\n      dup1\n      0xdadd0a57\n      eq\n      tag_8\n      jumpi\n      dup1\n      0xf1044f0d\n      eq\n      tag_9\n      jumpi\n      dup1\n      0xf3052d26\n      eq\n      tag_10\n      jumpi\n      dup1\n      0xf7868a52\n      eq\n      tag_11\n      jumpi\n      jump(tag_2)\n    tag_12:\n      dup1\n      0x42f54b89\n      eq\n      tag_3\n      jumpi\n      dup1\n      0x5f8069cc\n      eq\n      tag_4\n      jumpi\n      dup1\n      0x78697e5b\n      eq\n      tag_5\n      jumpi\n      dup1\n      0xc6cdbe5e\n      eq\n      tag_6\n      jumpi\n    tag_2:\n      revert(0x00, 0x00)\n        /* \"contracts/manager/CategoryManager.sol\":260:288  RoleAccess public roleAccess */\n    tag_3:\n      tag_13\n      tag_14\n      jump\t// in\n    tag_13:\n      mload(0x40)\n      tag_15\n      swap2\n      swap1\n      tag_16\n      jump\t// in\n    tag_15:\n      mload(0x40)\n      dup1\n      swap2\n      sub\n      swap1\n      return\n        /* \"contracts/manager/CategoryManager.sol\":1162:1300  function addFoodIdToCategory (uint categoryId,uint foodId)  external override {... */\n    tag_4:\n      tag_17\n      0x04\n      dup1\n      calldatasize\n      sub\n      dup2\n      add\n      swap1\n      tag_18\n      swap2\n      swap1\n      tag_19\n      jump\t// in\n    tag_18:\n      tag_20\n      jump\t// in\n    tag_17:\n      stop\n        /* \"contracts/manager/CategoryManager.sol\":1536:1889  function updateCategory(uint categoryId, string memory newName) external override {... */\n    tag_5:\n      tag_21\n      0x04\n      dup1\n      calldatasize\n      sub\n      dup2\n      add\n      swap1\n      tag_22\n      swap2\n      swap1\n      tag_23\n      jump\t// in\n    tag_22:\n      tag_24\n      jump\t// in\n    tag_21:\n      stop\n        /* \"contracts/manager/CategoryManager.sol\":297:340  mapping(uint => Category) public categories */\n    tag_6:\n      tag_25\n      0x04\n      dup1\n      calldatasize\n      sub\n      dup2\n      add\n      swap1\n      tag_26\n      swap2\n      swap1\n      tag_27\n      jump\t// in\n    tag_26:\n      tag_28\n      jump\t// in\n    tag_25:\n      mload(0x40)\n      tag_29\n      swap3\n      swap2\n      swap1\n      tag_30\n      jump\t// in\n    tag_29:\n      mload(0x40)\n      dup1\n      swap2\n      sub\n      swap1\n      return\n        /* \"contracts/manager/CategoryManager.sol\":1897:2533  function deleteCategory(uint categoryId) external override {... */\n    tag_7:\n      tag_31\n      0x04\n      dup1\n      calldatasize\n      sub\n      dup2\n      add\n      swap1\n      tag_32\n      swap2\n      swap1\n      tag_27\n      jump\t// in\n    tag_32:\n      tag_33\n      jump\t// in\n    tag_31:\n      stop\n        /* \"contracts/manager/CategoryManager.sol\":2541:2866  function getAllCategories() external view override returns (Category[] memory) {... */\n    tag_8:\n      tag_34\n      tag_35\n      jump\t// in\n    tag_34:\n      mload(0x40)\n      tag_36\n      swap2\n      swap1\n      tag_37\n      jump\t// in\n    tag_36:\n      mload(0x40)\n      dup1\n      swap2\n      sub\n      swap1\n      return\n        /* \"contracts/manager/CategoryManager.sol\":380:427  mapping(uint => uint[]) public categoryToFoodId */\n    tag_9:\n      tag_38\n      0x04\n      dup1\n      calldatasize\n      sub\n      dup2\n      add\n      swap1\n      tag_39\n      swap2\n      swap1\n      tag_19\n      jump\t// in\n    tag_39:\n      tag_40\n      jump\t// in\n    tag_38:\n      mload(0x40)\n      tag_41\n      swap2\n      swap1\n      tag_42\n      jump\t// in\n    tag_41:\n      mload(0x40)\n      dup1\n      swap2\n      sub\n      swap1\n      return\n        /* \"contracts/manager/CategoryManager.sol\":1308:1528  function getCategory(uint categoryId) external view override returns (Category memory) {... */\n    tag_10:\n      tag_43\n      0x04\n      dup1\n      calldatasize\n      sub\n      dup2\n      add\n      swap1\n      tag_44\n      swap2\n      swap1\n      tag_27\n      jump\t// in\n    tag_44:\n      tag_45\n      jump\t// in\n    tag_43:\n      mload(0x40)\n      tag_46\n      swap2\n      swap1\n      tag_47\n      jump\t// in\n    tag_46:\n      mload(0x40)\n      dup1\n      swap2\n      sub\n      swap1\n      return\n        /* \"contracts/manager/CategoryManager.sol\":655:1156  function createCategory(uint categoryId, string memory name) external override onlyAdmin{... */\n    tag_11:\n      tag_48\n      0x04\n      dup1\n      calldatasize\n      sub\n      dup2\n      add\n      swap1\n      tag_49\n      swap2\n      swap1\n      tag_23\n      jump\t// in\n    tag_49:\n      tag_50\n      jump\t// in\n    tag_48:\n      stop\n        /* \"contracts/manager/CategoryManager.sol\":260:288  RoleAccess public roleAccess */\n    tag_14:\n      0x00\n      0x00\n      swap1\n      sload\n      swap1\n      0x0100\n      exp\n      swap1\n      div\n      0xffffffffffffffffffffffffffffffffffffffff\n      and\n      dup2\n      jump\t// out\n        /* \"contracts/manager/CategoryManager.sol\":1162:1300  function addFoodIdToCategory (uint categoryId,uint foodId)  external override {... */\n    tag_20:\n        /* \"contracts/manager/CategoryManager.sol\":1251:1267  categoryToFoodId */\n      0x03\n        /* \"contracts/manager/CategoryManager.sol\":1251:1279  categoryToFoodId[categoryId] */\n      0x00\n        /* \"contracts/manager/CategoryManager.sol\":1268:1278  categoryId */\n      dup4\n        /* \"contracts/manager/CategoryManager.sol\":1251:1279  categoryToFoodId[categoryId] */\n      dup2\n      mstore\n      0x20\n      add\n      swap1\n      dup2\n      mstore\n      0x20\n      add\n      0x00\n      keccak256\n        /* \"contracts/manager/CategoryManager.sol\":1285:1291  foodId */\n      dup2\n        /* \"contracts/manager/CategoryManager.sol\":1251:1292  categoryToFoodId[categoryId].push(foodId) */\n      swap1\n      dup1\n      0x01\n      dup2\n      sload\n      add\n      dup1\n      dup3\n      sstore\n      dup1\n      swap2\n      pop\n      pop\n      0x01\n      swap1\n      sub\n      swap1\n      0x00\n      mstore\n      keccak256(0x00, 0x20)\n      add\n      0x00\n      swap1\n      swap2\n      swap1\n      swap2\n      swap1\n      swap2\n      pop\n      sstore\n        /* \"contracts/manager/CategoryManager.sol\":1162:1300  function addFoodIdToCategory (uint categoryId,uint foodId)  external override {... */\n      pop\n      pop\n      jump\t// out\n        /* \"contracts/manager/CategoryManager.sol\":1536:1889  function updateCategory(uint categoryId, string memory newName) external override {... */\n    tag_24:\n        /* \"contracts/manager/CategoryManager.sol\":1661:1662  0 */\n      0x00\n        /* \"contracts/manager/CategoryManager.sol\":1643:1650  newName */\n      dup2\n        /* \"contracts/manager/CategoryManager.sol\":1637:1658  bytes(newName).length */\n      mload\n        /* \"contracts/manager/CategoryManager.sol\":1637:1662  bytes(newName).length > 0 */\n      gt\n        /* \"contracts/manager/CategoryManager.sol\":1629:1696  require(bytes(newName).length > 0, \"Category name cannot be empty\") */\n      tag_54\n      jumpi\n      mload(0x40)\n      0x08c379a000000000000000000000000000000000000000000000000000000000\n      dup2\n      mstore\n      0x04\n      add\n      tag_55\n      swap1\n      tag_56\n      jump\t// in\n    tag_55:\n      mload(0x40)\n      dup1\n      swap2\n      sub\n      swap1\n      revert\n    tag_54:\n        /* \"contracts/manager/CategoryManager.sol\":1752:1753  0 */\n      0x00\n        /* \"contracts/manager/CategoryManager.sol\":1715:1725  categories */\n      0x01\n        /* \"contracts/manager/CategoryManager.sol\":1715:1737  categories[categoryId] */\n      0x00\n        /* \"contracts/manager/CategoryManager.sol\":1726:1736  categoryId */\n      dup5\n        /* \"contracts/manager/CategoryManager.sol\":1715:1737  categories[categoryId] */\n      dup2\n      mstore\n      0x20\n      add\n      swap1\n      dup2\n      mstore\n      0x20\n      add\n      0x00\n      keccak256\n        /* \"contracts/manager/CategoryManager.sol\":1715:1748  categories[categoryId].categoryId */\n      0x00\n      add\n      sload\n        /* \"contracts/manager/CategoryManager.sol\":1715:1753  categories[categoryId].categoryId != 0 */\n      sub\n        /* \"contracts/manager/CategoryManager.sol\":1707:1781  require(categories[categoryId].categoryId != 0, \"Category does not exist\") */\n      tag_57\n      jumpi\n      mload(0x40)\n      0x08c379a000000000000000000000000000000000000000000000000000000000\n      dup2\n      mstore\n      0x04\n      add\n      tag_58\n      swap1\n      tag_59\n      jump\t// in\n    tag_58:\n      mload(0x40)\n      dup1\n      swap2\n      sub\n      swap1\n      revert\n    tag_57:\n        /* \"contracts/manager/CategoryManager.sol\":1822:1829  newName */\n      dup1\n        /* \"contracts/manager/CategoryManager.sol\":1792:1802  categories */\n      0x01\n        /* \"contracts/manager/CategoryManager.sol\":1792:1814  categories[categoryId] */\n      0x00\n        /* \"contracts/manager/CategoryManager.sol\":1803:1813  categoryId */\n      dup5\n        /* \"contracts/manager/CategoryManager.sol\":1792:1814  categories[categoryId] */\n      dup2\n      mstore\n      0x20\n      add\n      swap1\n      dup2\n      mstore\n      0x20\n      add\n      0x00\n      keccak256\n        /* \"contracts/manager/CategoryManager.sol\":1792:1819  categories[categoryId].name */\n      0x01\n      add\n        /* \"contracts/manager/CategoryManager.sol\":1792:1829  categories[categoryId].name = newName */\n      swap1\n      dup2\n      tag_60\n      swap2\n      swap1\n      tag_61\n      jump\t// in\n    tag_60:\n      pop\n        /* \"contracts/manager/CategoryManager.sol\":1845:1881  CategoryUpdated(categoryId, newName) */\n      0x5bdd46fc25129a7ae160f84298da28664e8970f8874a02f19537b0313d8f8dc7\n        /* \"contracts/manager/CategoryManager.sol\":1861:1871  categoryId */\n      dup3\n        /* \"contracts/manager/CategoryManager.sol\":1873:1880  newName */\n      dup3\n        /* \"contracts/manager/CategoryManager.sol\":1845:1881  CategoryUpdated(categoryId, newName) */\n      mload(0x40)\n      tag_62\n      swap3\n      swap2\n      swap1\n      tag_30\n      jump\t// in\n    tag_62:\n      mload(0x40)\n      dup1\n      swap2\n      sub\n      swap1\n      log1\n        /* \"contracts/manager/CategoryManager.sol\":1536:1889  function updateCategory(uint categoryId, string memory newName) external override {... */\n      pop\n      pop\n      jump\t// out\n        /* \"contracts/manager/CategoryManager.sol\":297:340  mapping(uint => Category) public categories */\n    tag_28:\n      mstore(0x20, 0x01)\n      dup1\n      0x00\n      mstore\n      keccak256(0x00, 0x40)\n      0x00\n      swap2\n      pop\n      swap1\n      pop\n      dup1\n      0x00\n      add\n      sload\n      swap1\n      dup1\n      0x01\n      add\n      dup1\n      sload\n      tag_63\n      swap1\n      tag_64\n      jump\t// in\n    tag_63:\n      dup1\n      0x1f\n      add\n      0x20\n      dup1\n      swap2\n      div\n      mul\n      0x20\n      add\n      mload(0x40)\n      swap1\n      dup2\n      add\n      0x40\n      mstore\n      dup1\n      swap3\n      swap2\n      swap1\n      dup2\n      dup2\n      mstore\n      0x20\n      add\n      dup3\n      dup1\n      sload\n      tag_65\n      swap1\n      tag_64\n      jump\t// in\n    tag_65:\n      dup1\n      iszero\n      tag_66\n      jumpi\n      dup1\n      0x1f\n      lt\n      tag_67\n      jumpi\n      0x0100\n      dup1\n      dup4\n      sload\n      div\n      mul\n      dup4\n      mstore\n      swap2\n      0x20\n      add\n      swap2\n      jump(tag_66)\n    tag_67:\n      dup3\n      add\n      swap2\n      swap1\n      0x00\n      mstore\n      keccak256(0x00, 0x20)\n      swap1\n    tag_68:\n      dup2\n      sload\n      dup2\n      mstore\n      swap1\n      0x01\n      add\n      swap1\n      0x20\n      add\n      dup1\n      dup4\n      gt\n      tag_68\n      jumpi\n      dup3\n      swap1\n      sub\n      0x1f\n      and\n      dup3\n      add\n      swap2\n    tag_66:\n      pop\n      pop\n      pop\n      pop\n      pop\n      swap1\n      pop\n      dup3\n      jump\t// out\n        /* \"contracts/manager/CategoryManager.sol\":1897:2533  function deleteCategory(uint categoryId) external override {... */\n    tag_33:\n        /* \"contracts/manager/CategoryManager.sol\":2012:2013  0 */\n      0x00\n        /* \"contracts/manager/CategoryManager.sol\":1975:1985  categories */\n      0x01\n        /* \"contracts/manager/CategoryManager.sol\":1975:1997  categories[categoryId] */\n      0x00\n        /* \"contracts/manager/CategoryManager.sol\":1986:1996  categoryId */\n      dup4\n        /* \"contracts/manager/CategoryManager.sol\":1975:1997  categories[categoryId] */\n      dup2\n      mstore\n      0x20\n      add\n      swap1\n      dup2\n      mstore\n      0x20\n      add\n      0x00\n      keccak256\n        /* \"contracts/manager/CategoryManager.sol\":1975:2008  categories[categoryId].categoryId */\n      0x00\n      add\n      sload\n        /* \"contracts/manager/CategoryManager.sol\":1975:2013  categories[categoryId].categoryId != 0 */\n      sub\n        /* \"contracts/manager/CategoryManager.sol\":1967:2041  require(categories[categoryId].categoryId != 0, \"Category does not exist\") */\n      tag_70\n      jumpi\n      mload(0x40)\n      0x08c379a000000000000000000000000000000000000000000000000000000000\n      dup2\n      mstore\n      0x04\n      add\n      tag_71\n      swap1\n      tag_59\n      jump\t// in\n    tag_71:\n      mload(0x40)\n      dup1\n      swap2\n      sub\n      swap1\n      revert\n    tag_70:\n        /* \"contracts/manager/CategoryManager.sol\":2099:2100  0 */\n      0x00\n        /* \"contracts/manager/CategoryManager.sol\":2060:2076  categoryToFoodId */\n      0x03\n        /* \"contracts/manager/CategoryManager.sol\":2060:2088  categoryToFoodId[categoryId] */\n      0x00\n        /* \"contracts/manager/CategoryManager.sol\":2077:2087  categoryId */\n      dup4\n        /* \"contracts/manager/CategoryManager.sol\":2060:2088  categoryToFoodId[categoryId] */\n      dup2\n      mstore\n      0x20\n      add\n      swap1\n      dup2\n      mstore\n      0x20\n      add\n      0x00\n      keccak256\n        /* \"contracts/manager/CategoryManager.sol\":2060:2095  categoryToFoodId[categoryId].length */\n      dup1\n      sload\n      swap1\n      pop\n        /* \"contracts/manager/CategoryManager.sol\":2060:2100  categoryToFoodId[categoryId].length != 0 */\n      sub\n        /* \"contracts/manager/CategoryManager.sol\":2052:2133  require(categoryToFoodId[categoryId].length != 0, \"Category contains food items\") */\n      tag_72\n      jumpi\n      mload(0x40)\n      0x08c379a000000000000000000000000000000000000000000000000000000000\n      dup2\n      mstore\n      0x04\n      add\n      tag_73\n      swap1\n      tag_74\n      jump\t// in\n    tag_73:\n      mload(0x40)\n      dup1\n      swap2\n      sub\n      swap1\n      revert\n    tag_72:\n        /* \"contracts/manager/CategoryManager.sol\":2151:2161  categories */\n      0x01\n        /* \"contracts/manager/CategoryManager.sol\":2151:2173  categories[categoryId] */\n      0x00\n        /* \"contracts/manager/CategoryManager.sol\":2162:2172  categoryId */\n      dup3\n        /* \"contracts/manager/CategoryManager.sol\":2151:2173  categories[categoryId] */\n      dup2\n      mstore\n      0x20\n      add\n      swap1\n      dup2\n      mstore\n      0x20\n      add\n      0x00\n      keccak256\n      0x00\n        /* \"contracts/manager/CategoryManager.sol\":2144:2173  delete categories[categoryId] */\n      0x00\n      dup3\n      add\n      0x00\n      swap1\n      sstore\n      0x01\n      dup3\n      add\n      0x00\n      tag_75\n      swap2\n      swap1\n      tag_76\n      jump\t// in\n    tag_75:\n      pop\n      pop\n        /* \"contracts/manager/CategoryManager.sol\":2233:2239  uint i */\n      0x00\n        /* \"contracts/manager/CategoryManager.sol\":2242:2243  0 */\n      0x00\n        /* \"contracts/manager/CategoryManager.sol\":2233:2243  uint i = 0 */\n      swap1\n      pop\n        /* \"contracts/manager/CategoryManager.sol\":2228:2481  for (uint i = 0; i < categoryIds.length; i++) {... */\n    tag_77:\n        /* \"contracts/manager/CategoryManager.sol\":2249:2260  categoryIds */\n      0x02\n        /* \"contracts/manager/CategoryManager.sol\":2249:2267  categoryIds.length */\n      dup1\n      sload\n      swap1\n      pop\n        /* \"contracts/manager/CategoryManager.sol\":2245:2246  i */\n      dup2\n        /* \"contracts/manager/CategoryManager.sol\":2245:2267  i < categoryIds.length */\n      lt\n        /* \"contracts/manager/CategoryManager.sol\":2228:2481  for (uint i = 0; i < categoryIds.length; i++) {... */\n      iszero\n      tag_78\n      jumpi\n        /* \"contracts/manager/CategoryManager.sol\":2311:2321  categoryId */\n      dup2\n        /* \"contracts/manager/CategoryManager.sol\":2293:2304  categoryIds */\n      0x02\n        /* \"contracts/manager/CategoryManager.sol\":2305:2306  i */\n      dup3\n        /* \"contracts/manager/CategoryManager.sol\":2293:2307  categoryIds[i] */\n      dup2\n      sload\n      dup2\n      lt\n      tag_80\n      jumpi\n      tag_81\n      tag_82\n      jump\t// in\n    tag_81:\n    tag_80:\n      swap1\n      0x00\n      mstore\n      keccak256(0x00, 0x20)\n      add\n      sload\n        /* \"contracts/manager/CategoryManager.sol\":2293:2321  categoryIds[i] == categoryId */\n      sub\n        /* \"contracts/manager/CategoryManager.sol\":2289:2470  if (categoryIds[i] == categoryId) {... */\n      tag_84\n      jumpi\n        /* \"contracts/manager/CategoryManager.sol\":2359:2370  categoryIds */\n      0x02\n        /* \"contracts/manager/CategoryManager.sol\":2392:2393  1 */\n      0x01\n        /* \"contracts/manager/CategoryManager.sol\":2371:2382  categoryIds */\n      0x02\n        /* \"contracts/manager/CategoryManager.sol\":2371:2389  categoryIds.length */\n      dup1\n      sload\n      swap1\n      pop\n        /* \"contracts/manager/CategoryManager.sol\":2371:2393  categoryIds.length - 1 */\n      tag_85\n      swap2\n      swap1\n      tag_86\n      jump\t// in\n    tag_85:\n        /* \"contracts/manager/CategoryManager.sol\":2359:2394  categoryIds[categoryIds.length - 1] */\n      dup2\n      sload\n      dup2\n      lt\n      tag_87\n      jumpi\n      tag_88\n      tag_82\n      jump\t// in\n    tag_88:\n    tag_87:\n      swap1\n      0x00\n      mstore\n      keccak256(0x00, 0x20)\n      add\n      sload\n        /* \"contracts/manager/CategoryManager.sol\":2342:2353  categoryIds */\n      0x02\n        /* \"contracts/manager/CategoryManager.sol\":2354:2355  i */\n      dup3\n        /* \"contracts/manager/CategoryManager.sol\":2342:2356  categoryIds[i] */\n      dup2\n      sload\n      dup2\n      lt\n      tag_90\n      jumpi\n      tag_91\n      tag_82\n      jump\t// in\n    tag_91:\n    tag_90:\n      swap1\n      0x00\n      mstore\n      keccak256(0x00, 0x20)\n      add\n        /* \"contracts/manager/CategoryManager.sol\":2342:2394  categoryIds[i] = categoryIds[categoryIds.length - 1] */\n      dup2\n      swap1\n      sstore\n      pop\n        /* \"contracts/manager/CategoryManager.sol\":2413:2424  categoryIds */\n      0x02\n        /* \"contracts/manager/CategoryManager.sol\":2413:2430  categoryIds.pop() */\n      dup1\n      sload\n      dup1\n      tag_93\n      jumpi\n      tag_94\n      tag_95\n      jump\t// in\n    tag_94:\n    tag_93:\n      0x01\n      swap1\n      sub\n      dup2\n      dup2\n      swap1\n      0x00\n      mstore\n      keccak256(0x00, 0x20)\n      add\n      0x00\n      swap1\n      sstore\n      swap1\n      sstore\n        /* \"contracts/manager/CategoryManager.sol\":2449:2454  break */\n      jump(tag_78)\n        /* \"contracts/manager/CategoryManager.sol\":2289:2470  if (categoryIds[i] == categoryId) {... */\n    tag_84:\n        /* \"contracts/manager/CategoryManager.sol\":2269:2272  i++ */\n      dup1\n      dup1\n      0x01\n      add\n      swap2\n      pop\n      pop\n        /* \"contracts/manager/CategoryManager.sol\":2228:2481  for (uint i = 0; i < categoryIds.length; i++) {... */\n      jump(tag_77)\n    tag_78:\n      pop\n        /* \"contracts/manager/CategoryManager.sol\":2498:2525  CategoryDeleted(categoryId) */\n      0x510c8243d59e6c99aa1a4cf786d70d3e2e425109eb3870cc957ccb326a11ea97\n        /* \"contracts/manager/CategoryManager.sol\":2514:2524  categoryId */\n      dup2\n        /* \"contracts/manager/CategoryManager.sol\":2498:2525  CategoryDeleted(categoryId) */\n      mload(0x40)\n      tag_97\n      swap2\n      swap1\n      tag_42\n      jump\t// in\n    tag_97:\n      mload(0x40)\n      dup1\n      swap2\n      sub\n      swap1\n      log1\n        /* \"contracts/manager/CategoryManager.sol\":1897:2533  function deleteCategory(uint categoryId) external override {... */\n      pop\n      jump\t// out\n        /* \"contracts/manager/CategoryManager.sol\":2541:2866  function getAllCategories() external view override returns (Category[] memory) {... */\n    tag_35:\n        /* \"contracts/manager/CategoryManager.sol\":2601:2618  Category[] memory */\n      0x60\n        /* \"contracts/manager/CategoryManager.sol\":2631:2662  Category[] memory allCategories */\n      0x00\n        /* \"contracts/manager/CategoryManager.sol\":2680:2691  categoryIds */\n      0x02\n        /* \"contracts/manager/CategoryManager.sol\":2680:2698  categoryIds.length */\n      dup1\n      sload\n      swap1\n      pop\n        /* \"contracts/manager/CategoryManager.sol\":2665:2699  new Category[](categoryIds.length) */\n      0xffffffffffffffff\n      dup2\n      gt\n      iszero\n      tag_99\n      jumpi\n      tag_100\n      tag_101\n      jump\t// in\n    tag_100:\n    tag_99:\n      mload(0x40)\n      swap1\n      dup1\n      dup3\n      mstore\n      dup1\n      0x20\n      mul\n      0x20\n      add\n      dup3\n      add\n      0x40\n      mstore\n      dup1\n      iszero\n      tag_102\n      jumpi\n      dup2\n      0x20\n      add\n    tag_103:\n      tag_104\n      tag_105\n      jump\t// in\n    tag_104:\n      dup2\n      mstore\n      0x20\n      add\n      swap1\n      0x01\n      swap1\n      sub\n      swap1\n      dup2\n      tag_103\n      jumpi\n      swap1\n      pop\n    tag_102:\n      pop\n        /* \"contracts/manager/CategoryManager.sol\":2631:2699  Category[] memory allCategories = new Category[](categoryIds.length) */\n      swap1\n      pop\n        /* \"contracts/manager/CategoryManager.sol\":2715:2721  uint i */\n      0x00\n        /* \"contracts/manager/CategoryManager.sol\":2724:2725  0 */\n      0x00\n        /* \"contracts/manager/CategoryManager.sol\":2715:2725  uint i = 0 */\n      swap1\n      pop\n        /* \"contracts/manager/CategoryManager.sol\":2710:2828  for (uint i = 0; i < categoryIds.length; i++) {... */\n    tag_106:\n        /* \"contracts/manager/CategoryManager.sol\":2731:2742  categoryIds */\n      0x02\n        /* \"contracts/manager/CategoryManager.sol\":2731:2749  categoryIds.length */\n      dup1\n      sload\n      swap1\n      pop\n        /* \"contracts/manager/CategoryManager.sol\":2727:2728  i */\n      dup2\n        /* \"contracts/manager/CategoryManager.sol\":2727:2749  i < categoryIds.length */\n      lt\n        /* \"contracts/manager/CategoryManager.sol\":2710:2828  for (uint i = 0; i < categoryIds.length; i++) {... */\n      iszero\n      tag_107\n      jumpi\n        /* \"contracts/manager/CategoryManager.sol\":2790:2800  categories */\n      0x01\n        /* \"contracts/manager/CategoryManager.sol\":2790:2816  categories[categoryIds[i]] */\n      0x00\n        /* \"contracts/manager/CategoryManager.sol\":2801:2812  categoryIds */\n      0x02\n        /* \"contracts/manager/CategoryManager.sol\":2813:2814  i */\n      dup4\n        /* \"contracts/manager/CategoryManager.sol\":2801:2815  categoryIds[i] */\n      dup2\n      sload\n      dup2\n      lt\n      tag_109\n      jumpi\n      tag_110\n      tag_82\n      jump\t// in\n    tag_110:\n    tag_109:\n      swap1\n      0x00\n      mstore\n      keccak256(0x00, 0x20)\n      add\n      sload\n        /* \"contracts/manager/CategoryManager.sol\":2790:2816  categories[categoryIds[i]] */\n      dup2\n      mstore\n      0x20\n      add\n      swap1\n      dup2\n      mstore\n      0x20\n      add\n      0x00\n      keccak256\n        /* \"contracts/manager/CategoryManager.sol\":2771:2816  allCategories[i] = categories[categoryIds[i]] */\n      mload(0x40)\n      dup1\n      0x40\n      add\n      0x40\n      mstore\n      swap1\n      dup2\n      0x00\n      dup3\n      add\n      sload\n      dup2\n      mstore\n      0x20\n      add\n      0x01\n      dup3\n      add\n      dup1\n      sload\n      tag_112\n      swap1\n      tag_64\n      jump\t// in\n    tag_112:\n      dup1\n      0x1f\n      add\n      0x20\n      dup1\n      swap2\n      div\n      mul\n      0x20\n      add\n      mload(0x40)\n      swap1\n      dup2\n      add\n      0x40\n      mstore\n      dup1\n      swap3\n      swap2\n      swap1\n      dup2\n      dup2\n      mstore\n      0x20\n      add\n      dup3\n      dup1\n      sload\n      tag_113\n      swap1\n      tag_64\n      jump\t// in\n    tag_113:\n      dup1\n      iszero\n      tag_114\n      jumpi\n      dup1\n      0x1f\n      lt\n      tag_115\n      jumpi\n      0x0100\n      dup1\n      dup4\n      sload\n      div\n      mul\n      dup4\n      mstore\n      swap2\n      0x20\n      add\n      swap2\n      jump(tag_114)\n    tag_115:\n      dup3\n      add\n      swap2\n      swap1\n      0x00\n      mstore\n      keccak256(0x00, 0x20)\n      swap1\n    tag_116:\n      dup2\n      sload\n      dup2\n      mstore\n      swap1\n      0x01\n      add\n      swap1\n      0x20\n      add\n      dup1\n      dup4\n      gt\n      tag_116\n      jumpi\n      dup3\n      swap1\n      sub\n      0x1f\n      and\n      dup3\n      add\n      swap2\n    tag_114:\n      pop\n      pop\n      pop\n      pop\n      pop\n      dup2\n      mstore\n      pop\n      pop\n        /* \"contracts/manager/CategoryManager.sol\":2771:2784  allCategories */\n      dup3\n        /* \"contracts/manager/CategoryManager.sol\":2785:2786  i */\n      dup3\n        /* \"contracts/manager/CategoryManager.sol\":2771:2787  allCategories[i] */\n      dup2\n      mload\n      dup2\n      lt\n      tag_117\n      jumpi\n      tag_118\n      tag_82\n      jump\t// in\n    tag_118:\n    tag_117:\n      0x20\n      mul\n      0x20\n      add\n      add\n        /* \"contracts/manager/CategoryManager.sol\":2771:2816  allCategories[i] = categories[categoryIds[i]] */\n      dup2\n      swap1\n      mstore\n      pop\n        /* \"contracts/manager/CategoryManager.sol\":2751:2754  i++ */\n      dup1\n      dup1\n      0x01\n      add\n      swap2\n      pop\n      pop\n        /* \"contracts/manager/CategoryManager.sol\":2710:2828  for (uint i = 0; i < categoryIds.length; i++) {... */\n      jump(tag_106)\n    tag_107:\n      pop\n        /* \"contracts/manager/CategoryManager.sol\":2845:2858  allCategories */\n      dup1\n        /* \"contracts/manager/CategoryManager.sol\":2838:2858  return allCategories */\n      swap2\n      pop\n      pop\n        /* \"contracts/manager/CategoryManager.sol\":2541:2866  function getAllCategories() external view override returns (Category[] memory) {... */\n      swap1\n      jump\t// out\n        /* \"contracts/manager/CategoryManager.sol\":380:427  mapping(uint => uint[]) public categoryToFoodId */\n    tag_40:\n      mstore(0x20, 0x03)\n      dup2\n      0x00\n      mstore\n      keccak256(0x00, 0x40)\n      dup2\n      dup2\n      sload\n      dup2\n      lt\n      tag_119\n      jumpi\n      0x00\n      dup1\n      revert\n    tag_119:\n      swap1\n      0x00\n      mstore\n      keccak256(0x00, 0x20)\n      add\n      0x00\n      swap2\n      pop\n      swap2\n      pop\n      pop\n      sload\n      dup2\n      jump\t// out\n        /* \"contracts/manager/CategoryManager.sol\":1308:1528  function getCategory(uint categoryId) external view override returns (Category memory) {... */\n    tag_45:\n        /* \"contracts/manager/CategoryManager.sol\":1378:1393  Category memory */\n      tag_121\n      tag_105\n      jump\t// in\n    tag_121:\n        /* \"contracts/manager/CategoryManager.sol\":1451:1452  0 */\n      0x00\n        /* \"contracts/manager/CategoryManager.sol\":1414:1424  categories */\n      0x01\n        /* \"contracts/manager/CategoryManager.sol\":1414:1436  categories[categoryId] */\n      0x00\n        /* \"contracts/manager/CategoryManager.sol\":1425:1435  categoryId */\n      dup5\n        /* \"contracts/manager/CategoryManager.sol\":1414:1436  categories[categoryId] */\n      dup2\n      mstore\n      0x20\n      add\n      swap1\n      dup2\n      mstore\n      0x20\n      add\n      0x00\n      keccak256\n        /* \"contracts/manager/CategoryManager.sol\":1414:1447  categories[categoryId].categoryId */\n      0x00\n      add\n      sload\n        /* \"contracts/manager/CategoryManager.sol\":1414:1452  categories[categoryId].categoryId != 0 */\n      sub\n        /* \"contracts/manager/CategoryManager.sol\":1406:1480  require(categories[categoryId].categoryId != 0, \"Category does not exist\") */\n      tag_123\n      jumpi\n      mload(0x40)\n      0x08c379a000000000000000000000000000000000000000000000000000000000\n      dup2\n      mstore\n      0x04\n      add\n      tag_124\n      swap1\n      tag_59\n      jump\t// in\n    tag_124:\n      mload(0x40)\n      dup1\n      swap2\n      sub\n      swap1\n      revert\n    tag_123:\n        /* \"contracts/manager/CategoryManager.sol\":1498:1508  categories */\n      0x01\n        /* \"contracts/manager/CategoryManager.sol\":1498:1520  categories[categoryId] */\n      0x00\n        /* \"contracts/manager/CategoryManager.sol\":1509:1519  categoryId */\n      dup4\n        /* \"contracts/manager/CategoryManager.sol\":1498:1520  categories[categoryId] */\n      dup2\n      mstore\n      0x20\n      add\n      swap1\n      dup2\n      mstore\n      0x20\n      add\n      0x00\n      keccak256\n        /* \"contracts/manager/CategoryManager.sol\":1491:1520  return categories[categoryId] */\n      mload(0x40)\n      dup1\n      0x40\n      add\n      0x40\n      mstore\n      swap1\n      dup2\n      0x00\n      dup3\n      add\n      sload\n      dup2\n      mstore\n      0x20\n      add\n      0x01\n      dup3\n      add\n      dup1\n      sload\n      tag_125\n      swap1\n      tag_64\n      jump\t// in\n    tag_125:\n      dup1\n      0x1f\n      add\n      0x20\n      dup1\n      swap2\n      div\n      mul\n      0x20\n      add\n      mload(0x40)\n      swap1\n      dup2\n      add\n      0x40\n      mstore\n      dup1\n      swap3\n      swap2\n      swap1\n      dup2\n      dup2\n      mstore\n      0x20\n      add\n      dup3\n      dup1\n      sload\n      tag_126\n      swap1\n      tag_64\n      jump\t// in\n    tag_126:\n      dup1\n      iszero\n      tag_127\n      jumpi\n      dup1\n      0x1f\n      lt\n      tag_128\n      jumpi\n      0x0100\n      dup1\n      dup4\n      sload\n      div\n      mul\n      dup4\n      mstore\n      swap2\n      0x20\n      add\n      swap2\n      jump(tag_127)\n    tag_128:\n      dup3\n      add\n      swap2\n      swap1\n      0x00\n      mstore\n      keccak256(0x00, 0x20)\n      swap1\n    tag_129:\n      dup2\n      sload\n      dup2\n      mstore\n      swap1\n      0x01\n      add\n      swap1\n      0x20\n      add\n      dup1\n      dup4\n      gt\n      tag_129\n      jumpi\n      dup3\n      swap1\n      sub\n      0x1f\n      and\n      dup3\n      add\n      swap2\n    tag_127:\n      pop\n      pop\n      pop\n      pop\n      pop\n      dup2\n      mstore\n      pop\n      pop\n      swap1\n      pop\n        /* \"contracts/manager/CategoryManager.sol\":1308:1528  function getCategory(uint categoryId) external view override returns (Category memory) {... */\n      swap2\n      swap1\n      pop\n      jump\t// out\n        /* \"contracts/manager/CategoryManager.sol\":655:1156  function createCategory(uint categoryId, string memory name) external override onlyAdmin{... */\n    tag_50:\n        /* \"contracts/manager/CategoryManager.sol\":575:585  roleAccess */\n      0x00\n      0x00\n      swap1\n      sload\n      swap1\n      0x0100\n      exp\n      swap1\n      div\n      0xffffffffffffffffffffffffffffffffffffffff\n      and\n        /* \"contracts/manager/CategoryManager.sol\":575:593  roleAccess.isAdmin */\n      0xffffffffffffffffffffffffffffffffffffffff\n      and\n      0x24d7806c\n        /* \"contracts/manager/CategoryManager.sol\":594:604  msg.sender */\n      caller\n        /* \"contracts/manager/CategoryManager.sol\":575:605  roleAccess.isAdmin(msg.sender) */\n      mload(0x40)\n      dup3\n      0xffffffff\n      and\n      0xe0\n      shl\n      dup2\n      mstore\n      0x04\n      add\n      tag_131\n      swap2\n      swap1\n      tag_132\n      jump\t// in\n    tag_131:\n      0x20\n      mload(0x40)\n      dup1\n      dup4\n      sub\n      dup2\n      dup7\n      gas\n      staticcall\n      iszero\n      dup1\n      iszero\n      tag_134\n      jumpi\n      returndatacopy(0x00, 0x00, returndatasize)\n      revert(0x00, returndatasize)\n    tag_134:\n      pop\n      pop\n      pop\n      pop\n      mload(0x40)\n      returndatasize\n      not(0x1f)\n      0x1f\n      dup3\n      add\n      and\n      dup3\n      add\n      dup1\n      0x40\n      mstore\n      pop\n      dup2\n      add\n      swap1\n      tag_135\n      swap2\n      swap1\n      tag_136\n      jump\t// in\n    tag_135:\n        /* \"contracts/manager/CategoryManager.sol\":567:627  require(roleAccess.isAdmin(msg.sender), \"You are not admin\") */\n      tag_137\n      jumpi\n      mload(0x40)\n      0x08c379a000000000000000000000000000000000000000000000000000000000\n      dup2\n      mstore\n      0x04\n      add\n      tag_138\n      swap1\n      tag_139\n      jump\t// in\n    tag_138:\n      mload(0x40)\n      dup1\n      swap2\n      sub\n      swap1\n      revert\n    tag_137:\n        /* \"contracts/manager/CategoryManager.sol\":783:784  0 */\n      0x00\n        /* \"contracts/manager/CategoryManager.sol\":768:772  name */\n      dup2\n        /* \"contracts/manager/CategoryManager.sol\":762:780  bytes(name).length */\n      mload\n        /* \"contracts/manager/CategoryManager.sol\":762:784  bytes(name).length > 0 */\n      gt\n        /* \"contracts/manager/CategoryManager.sol\":754:818  require(bytes(name).length > 0, \"Category name cannot be empty\") */\n      tag_141\n      jumpi\n      mload(0x40)\n      0x08c379a000000000000000000000000000000000000000000000000000000000\n      dup2\n      mstore\n      0x04\n      add\n      tag_142\n      swap1\n      tag_56\n      jump\t// in\n    tag_142:\n      mload(0x40)\n      dup1\n      swap2\n      sub\n      swap1\n      revert\n    tag_141:\n        /* \"contracts/manager/CategoryManager.sol\":874:875  0 */\n      0x00\n        /* \"contracts/manager/CategoryManager.sol\":837:847  categories */\n      0x01\n        /* \"contracts/manager/CategoryManager.sol\":837:859  categories[categoryId] */\n      0x00\n        /* \"contracts/manager/CategoryManager.sol\":848:858  categoryId */\n      dup5\n        /* \"contracts/manager/CategoryManager.sol\":837:859  categories[categoryId] */\n      dup2\n      mstore\n      0x20\n      add\n      swap1\n      dup2\n      mstore\n      0x20\n      add\n      0x00\n      keccak256\n        /* \"contracts/manager/CategoryManager.sol\":837:870  categories[categoryId].categoryId */\n      0x00\n      add\n      sload\n        /* \"contracts/manager/CategoryManager.sol\":837:875  categories[categoryId].categoryId == 0 */\n      eq\n        /* \"contracts/manager/CategoryManager.sol\":829:906  require(categories[categoryId].categoryId == 0, \"Category ID already exists\") */\n      tag_143\n      jumpi\n      mload(0x40)\n      0x08c379a000000000000000000000000000000000000000000000000000000000\n      dup2\n      mstore\n      0x04\n      add\n      tag_144\n      swap1\n      tag_145\n      jump\t// in\n    tag_144:\n      mload(0x40)\n      dup1\n      swap2\n      sub\n      swap1\n      revert\n    tag_143:\n        /* \"contracts/manager/CategoryManager.sol\":937:964  Category memory newCategory */\n      0x00\n        /* \"contracts/manager/CategoryManager.sol\":967:1013  Category({categoryId: categoryId, name: name}) */\n      mload(0x40)\n      dup1\n      0x40\n      add\n      0x40\n      mstore\n      dup1\n        /* \"contracts/manager/CategoryManager.sol\":989:999  categoryId */\n      dup5\n        /* \"contracts/manager/CategoryManager.sol\":967:1013  Category({categoryId: categoryId, name: name}) */\n      dup2\n      mstore\n      0x20\n      add\n        /* \"contracts/manager/CategoryManager.sol\":1007:1011  name */\n      dup4\n        /* \"contracts/manager/CategoryManager.sol\":967:1013  Category({categoryId: categoryId, name: name}) */\n      dup2\n      mstore\n      pop\n        /* \"contracts/manager/CategoryManager.sol\":937:1013  Category memory newCategory = Category({categoryId: categoryId, name: name}) */\n      swap1\n      pop\n        /* \"contracts/manager/CategoryManager.sol\":1049:1060  newCategory */\n      dup1\n        /* \"contracts/manager/CategoryManager.sol\":1024:1034  categories */\n      0x01\n        /* \"contracts/manager/CategoryManager.sol\":1024:1046  categories[categoryId] */\n      0x00\n        /* \"contracts/manager/CategoryManager.sol\":1035:1045  categoryId */\n      dup6\n        /* \"contracts/manager/CategoryManager.sol\":1024:1046  categories[categoryId] */\n      dup2\n      mstore\n      0x20\n      add\n      swap1\n      dup2\n      mstore\n      0x20\n      add\n      0x00\n      keccak256\n        /* \"contracts/manager/CategoryManager.sol\":1024:1060  categories[categoryId] = newCategory */\n      0x00\n      dup3\n      add\n      mload\n      dup2\n      0x00\n      add\n      sstore\n      0x20\n      dup3\n      add\n      mload\n      dup2\n      0x01\n      add\n      swap1\n      dup2\n      tag_146\n      swap2\n      swap1\n      tag_61\n      jump\t// in\n    tag_146:\n      pop\n      swap1\n      pop\n      pop\n        /* \"contracts/manager/CategoryManager.sol\":1071:1082  categoryIds */\n      0x02\n        /* \"contracts/manager/CategoryManager.sol\":1088:1098  categoryId */\n      dup4\n        /* \"contracts/manager/CategoryManager.sol\":1071:1099  categoryIds.push(categoryId) */\n      swap1\n      dup1\n      0x01\n      dup2\n      sload\n      add\n      dup1\n      dup3\n      sstore\n      dup1\n      swap2\n      pop\n      pop\n      0x01\n      swap1\n      sub\n      swap1\n      0x00\n      mstore\n      keccak256(0x00, 0x20)\n      add\n      0x00\n      swap1\n      swap2\n      swap1\n      swap2\n      swap1\n      swap2\n      pop\n      sstore\n        /* \"contracts/manager/CategoryManager.sol\":1115:1148  CategoryCreated(categoryId, name) */\n      0x11c167cc9b439f0ad8bec5588159f1b06b813bc38d50c867a41b23b077be2c1a\n        /* \"contracts/manager/CategoryManager.sol\":1131:1141  categoryId */\n      dup4\n        /* \"contracts/manager/CategoryManager.sol\":1143:1147  name */\n      dup4\n        /* \"contracts/manager/CategoryManager.sol\":1115:1148  CategoryCreated(categoryId, name) */\n      mload(0x40)\n      tag_148\n      swap3\n      swap2\n      swap1\n      tag_30\n      jump\t// in\n    tag_148:\n      mload(0x40)\n      dup1\n      swap2\n      sub\n      swap1\n      log1\n        /* \"contracts/manager/CategoryManager.sol\":743:1156  {... */\n      pop\n        /* \"contracts/manager/CategoryManager.sol\":655:1156  function createCategory(uint categoryId, string memory name) external override onlyAdmin{... */\n      pop\n      pop\n      jump\t// out\n    tag_76:\n      pop\n      dup1\n      sload\n      tag_149\n      swap1\n      tag_64\n      jump\t// in\n    tag_149:\n      0x00\n      dup3\n      sstore\n      dup1\n      0x1f\n      lt\n      tag_151\n      jumpi\n      pop\n      jump(tag_150)\n    tag_151:\n      0x1f\n      add\n      0x20\n      swap1\n      div\n      swap1\n      0x00\n      mstore\n      keccak256(0x00, 0x20)\n      swap1\n      dup2\n      add\n      swap1\n      tag_152\n      swap2\n      swap1\n      tag_153\n      jump\t// in\n    tag_152:\n    tag_150:\n      pop\n      jump\t// out\n    tag_105:\n      mload(0x40)\n      dup1\n      0x40\n      add\n      0x40\n      mstore\n      dup1\n      0x00\n      dup2\n      mstore\n      0x20\n      add\n      0x60\n      dup2\n      mstore\n      pop\n      swap1\n      jump\t// out\n    tag_153:\n    tag_154:\n      dup1\n      dup3\n      gt\n      iszero\n      tag_155\n      jumpi\n      0x00\n      dup2\n      0x00\n      swap1\n      sstore\n      pop\n      0x01\n      add\n      jump(tag_154)\n    tag_155:\n      pop\n      swap1\n      jump\t// out\n        /* \"#utility.yul\":7:133   */\n    tag_156:\n        /* \"#utility.yul\":44:51   */\n      0x00\n        /* \"#utility.yul\":84:126   */\n      0xffffffffffffffffffffffffffffffffffffffff\n        /* \"#utility.yul\":77:82   */\n      dup3\n        /* \"#utility.yul\":73:127   */\n      and\n        /* \"#utility.yul\":62:127   */\n      swap1\n      pop\n        /* \"#utility.yul\":7:133   */\n      swap2\n      swap1\n      pop\n      jump\t// out\n        /* \"#utility.yul\":139:199   */\n    tag_157:\n        /* \"#utility.yul\":167:170   */\n      0x00\n        /* \"#utility.yul\":188:193   */\n      dup2\n        /* \"#utility.yul\":181:193   */\n      swap1\n      pop\n        /* \"#utility.yul\":139:199   */\n      swap2\n      swap1\n      pop\n      jump\t// out\n        /* \"#utility.yul\":205:347   */\n    tag_158:\n        /* \"#utility.yul\":255:264   */\n      0x00\n        /* \"#utility.yul\":288:341   */\n      tag_228\n        /* \"#utility.yul\":306:340   */\n      tag_229\n        /* \"#utility.yul\":315:339   */\n      tag_230\n        /* \"#utility.yul\":333:338   */\n      dup5\n        /* \"#utility.yul\":315:339   */\n      tag_156\n      jump\t// in\n    tag_230:\n        /* \"#utility.yul\":306:340   */\n      tag_157\n      jump\t// in\n    tag_229:\n        /* \"#utility.yul\":288:341   */\n      tag_156\n      jump\t// in\n    tag_228:\n        /* \"#utility.yul\":275:341   */\n      swap1\n      pop\n        /* \"#utility.yul\":205:347   */\n      swap2\n      swap1\n      pop\n      jump\t// out\n        /* \"#utility.yul\":353:479   */\n    tag_159:\n        /* \"#utility.yul\":403:412   */\n      0x00\n        /* \"#utility.yul\":436:473   */\n      tag_232\n        /* \"#utility.yul\":467:472   */\n      dup3\n        /* \"#utility.yul\":436:473   */\n      tag_158\n      jump\t// in\n    tag_232:\n        /* \"#utility.yul\":423:473   */\n      swap1\n      pop\n        /* \"#utility.yul\":353:479   */\n      swap2\n      swap1\n      pop\n      jump\t// out\n        /* \"#utility.yul\":485:628   */\n    tag_160:\n        /* \"#utility.yul\":552:561   */\n      0x00\n        /* \"#utility.yul\":585:622   */\n      tag_234\n        /* \"#utility.yul\":616:621   */\n      dup3\n        /* \"#utility.yul\":585:622   */\n      tag_159\n      jump\t// in\n    tag_234:\n        /* \"#utility.yul\":572:622   */\n      swap1\n      pop\n        /* \"#utility.yul\":485:628   */\n      swap2\n      swap1\n      pop\n      jump\t// out\n        /* \"#utility.yul\":634:799   */\n    tag_161:\n        /* \"#utility.yul\":738:792   */\n      tag_236\n        /* \"#utility.yul\":786:791   */\n      dup2\n        /* \"#utility.yul\":738:792   */\n      tag_160\n      jump\t// in\n    tag_236:\n        /* \"#utility.yul\":733:736   */\n      dup3\n        /* \"#utility.yul\":726:793   */\n      mstore\n        /* \"#utility.yul\":634:799   */\n      pop\n      pop\n      jump\t// out\n        /* \"#utility.yul\":805:1061   */\n    tag_16:\n        /* \"#utility.yul\":915:919   */\n      0x00\n        /* \"#utility.yul\":953:955   */\n      0x20\n        /* \"#utility.yul\":942:951   */\n      dup3\n        /* \"#utility.yul\":938:956   */\n      add\n        /* \"#utility.yul\":930:956   */\n      swap1\n      pop\n        /* \"#utility.yul\":966:1054   */\n      tag_238\n        /* \"#utility.yul\":1051:1052   */\n      0x00\n        /* \"#utility.yul\":1040:1049   */\n      dup4\n        /* \"#utility.yul\":1036:1053   */\n      add\n        /* \"#utility.yul\":1027:1033   */\n      dup5\n        /* \"#utility.yul\":966:1054   */\n      tag_161\n      jump\t// in\n    tag_238:\n        /* \"#utility.yul\":805:1061   */\n      swap3\n      swap2\n      pop\n      pop\n      jump\t// out\n        /* \"#utility.yul\":1067:1142   */\n    tag_162:\n        /* \"#utility.yul\":1100:1106   */\n      0x00\n        /* \"#utility.yul\":1133:1135   */\n      0x40\n        /* \"#utility.yul\":1127:1136   */\n      mload\n        /* \"#utility.yul\":1117:1136   */\n      swap1\n      pop\n        /* \"#utility.yul\":1067:1142   */\n      swap1\n      jump\t// out\n        /* \"#utility.yul\":1148:1265   */\n    tag_163:\n        /* \"#utility.yul\":1257:1258   */\n      0x00\n        /* \"#utility.yul\":1254:1255   */\n      0x00\n        /* \"#utility.yul\":1247:1259   */\n      revert\n        /* \"#utility.yul\":1271:1388   */\n    tag_164:\n        /* \"#utility.yul\":1380:1381   */\n      0x00\n        /* \"#utility.yul\":1377:1378   */\n      0x00\n        /* \"#utility.yul\":1370:1382   */\n      revert\n        /* \"#utility.yul\":1394:1471   */\n    tag_165:\n        /* \"#utility.yul\":1431:1438   */\n      0x00\n        /* \"#utility.yul\":1460:1465   */\n      dup2\n        /* \"#utility.yul\":1449:1465   */\n      swap1\n      pop\n        /* \"#utility.yul\":1394:1471   */\n      swap2\n      swap1\n      pop\n      jump\t// out\n        /* \"#utility.yul\":1477:1599   */\n    tag_166:\n        /* \"#utility.yul\":1550:1574   */\n      tag_244\n        /* \"#utility.yul\":1568:1573   */\n      dup2\n        /* \"#utility.yul\":1550:1574   */\n      tag_165\n      jump\t// in\n    tag_244:\n        /* \"#utility.yul\":1543:1548   */\n      dup2\n        /* \"#utility.yul\":1540:1575   */\n      eq\n        /* \"#utility.yul\":1530:1593   */\n      tag_245\n      jumpi\n        /* \"#utility.yul\":1589:1590   */\n      0x00\n        /* \"#utility.yul\":1586:1587   */\n      0x00\n        /* \"#utility.yul\":1579:1591   */\n      revert\n        /* \"#utility.yul\":1530:1593   */\n    tag_245:\n        /* \"#utility.yul\":1477:1599   */\n      pop\n      jump\t// out\n        /* \"#utility.yul\":1605:1744   */\n    tag_167:\n        /* \"#utility.yul\":1651:1656   */\n      0x00\n        /* \"#utility.yul\":1689:1695   */\n      dup2\n        /* \"#utility.yul\":1676:1696   */\n      calldataload\n        /* \"#utility.yul\":1667:1696   */\n      swap1\n      pop\n        /* \"#utility.yul\":1705:1738   */\n      tag_247\n        /* \"#utility.yul\":1732:1737   */\n      dup2\n        /* \"#utility.yul\":1705:1738   */\n      tag_166\n      jump\t// in\n    tag_247:\n        /* \"#utility.yul\":1605:1744   */\n      swap3\n      swap2\n      pop\n      pop\n      jump\t// out\n        /* \"#utility.yul\":1750:2224   */\n    tag_19:\n        /* \"#utility.yul\":1818:1824   */\n      0x00\n        /* \"#utility.yul\":1826:1832   */\n      0x00\n        /* \"#utility.yul\":1875:1877   */\n      0x40\n        /* \"#utility.yul\":1863:1872   */\n      dup4\n        /* \"#utility.yul\":1854:1861   */\n      dup6\n        /* \"#utility.yul\":1850:1873   */\n      sub\n        /* \"#utility.yul\":1846:1878   */\n      slt\n        /* \"#utility.yul\":1843:1962   */\n      iszero\n      tag_249\n      jumpi\n        /* \"#utility.yul\":1881:1960   */\n      tag_250\n      tag_163\n      jump\t// in\n    tag_250:\n        /* \"#utility.yul\":1843:1962   */\n    tag_249:\n        /* \"#utility.yul\":2001:2002   */\n      0x00\n        /* \"#utility.yul\":2026:2079   */\n      tag_251\n        /* \"#utility.yul\":2071:2078   */\n      dup6\n        /* \"#utility.yul\":2062:2068   */\n      dup3\n        /* \"#utility.yul\":2051:2060   */\n      dup7\n        /* \"#utility.yul\":2047:2069   */\n      add\n        /* \"#utility.yul\":2026:2079   */\n      tag_167\n      jump\t// in\n    tag_251:\n        /* \"#utility.yul\":2016:2079   */\n      swap3\n      pop\n        /* \"#utility.yul\":1972:2089   */\n      pop\n        /* \"#utility.yul\":2128:2130   */\n      0x20\n        /* \"#utility.yul\":2154:2207   */\n      tag_252\n        /* \"#utility.yul\":2199:2206   */\n      dup6\n        /* \"#utility.yul\":2190:2196   */\n      dup3\n        /* \"#utility.yul\":2179:2188   */\n      dup7\n        /* \"#utility.yul\":2175:2197   */\n      add\n        /* \"#utility.yul\":2154:2207   */\n      tag_167\n      jump\t// in\n    tag_252:\n        /* \"#utility.yul\":2144:2207   */\n      swap2\n      pop\n        /* \"#utility.yul\":2099:2217   */\n      pop\n        /* \"#utility.yul\":1750:2224   */\n      swap3\n      pop\n      swap3\n      swap1\n      pop\n      jump\t// out\n        /* \"#utility.yul\":2230:2347   */\n    tag_168:\n        /* \"#utility.yul\":2339:2340   */\n      0x00\n        /* \"#utility.yul\":2336:2337   */\n      0x00\n        /* \"#utility.yul\":2329:2341   */\n      revert\n        /* \"#utility.yul\":2353:2470   */\n    tag_169:\n        /* \"#utility.yul\":2462:2463   */\n      0x00\n        /* \"#utility.yul\":2459:2460   */\n      0x00\n        /* \"#utility.yul\":2452:2464   */\n      revert\n        /* \"#utility.yul\":2476:2578   */\n    tag_170:\n        /* \"#utility.yul\":2517:2523   */\n      0x00\n        /* \"#utility.yul\":2568:2570   */\n      0x1f\n        /* \"#utility.yul\":2564:2571   */\n      not\n        /* \"#utility.yul\":2559:2561   */\n      0x1f\n        /* \"#utility.yul\":2552:2557   */\n      dup4\n        /* \"#utility.yul\":2548:2562   */\n      add\n        /* \"#utility.yul\":2544:2572   */\n      and\n        /* \"#utility.yul\":2534:2572   */\n      swap1\n      pop\n        /* \"#utility.yul\":2476:2578   */\n      swap2\n      swap1\n      pop\n      jump\t// out\n        /* \"#utility.yul\":2584:2764   */\n    tag_101:\n        /* \"#utility.yul\":2632:2709   */\n      0x4e487b7100000000000000000000000000000000000000000000000000000000\n        /* \"#utility.yul\":2629:2630   */\n      0x00\n        /* \"#utility.yul\":2622:2710   */\n      mstore\n        /* \"#utility.yul\":2729:2733   */\n      0x41\n        /* \"#utility.yul\":2726:2727   */\n      0x04\n        /* \"#utility.yul\":2719:2734   */\n      mstore\n        /* \"#utility.yul\":2753:2757   */\n      0x24\n        /* \"#utility.yul\":2750:2751   */\n      0x00\n        /* \"#utility.yul\":2743:2758   */\n      revert\n        /* \"#utility.yul\":2770:3051   */\n    tag_171:\n        /* \"#utility.yul\":2853:2880   */\n      tag_258\n        /* \"#utility.yul\":2875:2879   */\n      dup3\n        /* \"#utility.yul\":2853:2880   */\n      tag_170\n      jump\t// in\n    tag_258:\n        /* \"#utility.yul\":2845:2851   */\n      dup2\n        /* \"#utility.yul\":2841:2881   */\n      add\n        /* \"#utility.yul\":2983:2989   */\n      dup2\n        /* \"#utility.yul\":2971:2981   */\n      dup2\n        /* \"#utility.yul\":2968:2990   */\n      lt\n        /* \"#utility.yul\":2947:2965   */\n      0xffffffffffffffff\n        /* \"#utility.yul\":2935:2945   */\n      dup3\n        /* \"#utility.yul\":2932:2966   */\n      gt\n        /* \"#utility.yul\":2929:2991   */\n      or\n        /* \"#utility.yul\":2926:3014   */\n      iszero\n      tag_259\n      jumpi\n        /* \"#utility.yul\":2994:3012   */\n      tag_260\n      tag_101\n      jump\t// in\n    tag_260:\n        /* \"#utility.yul\":2926:3014   */\n    tag_259:\n        /* \"#utility.yul\":3034:3044   */\n      dup1\n        /* \"#utility.yul\":3030:3032   */\n      0x40\n        /* \"#utility.yul\":3023:3045   */\n      mstore\n        /* \"#utility.yul\":2813:3051   */\n      pop\n        /* \"#utility.yul\":2770:3051   */\n      pop\n      pop\n      jump\t// out\n        /* \"#utility.yul\":3057:3186   */\n    tag_172:\n        /* \"#utility.yul\":3091:3097   */\n      0x00\n        /* \"#utility.yul\":3118:3138   */\n      tag_262\n      tag_162\n      jump\t// in\n    tag_262:\n        /* \"#utility.yul\":3108:3138   */\n      swap1\n      pop\n        /* \"#utility.yul\":3147:3180   */\n      tag_263\n        /* \"#utility.yul\":3175:3179   */\n      dup3\n        /* \"#utility.yul\":3167:3173   */\n      dup3\n        /* \"#utility.yul\":3147:3180   */\n      tag_171\n      jump\t// in\n    tag_263:\n        /* \"#utility.yul\":3057:3186   */\n      swap2\n      swap1\n      pop\n      jump\t// out\n        /* \"#utility.yul\":3192:3500   */\n    tag_173:\n        /* \"#utility.yul\":3254:3258   */\n      0x00\n        /* \"#utility.yul\":3344:3362   */\n      0xffffffffffffffff\n        /* \"#utility.yul\":3336:3342   */\n      dup3\n        /* \"#utility.yul\":3333:3363   */\n      gt\n        /* \"#utility.yul\":3330:3386   */\n      iszero\n      tag_265\n      jumpi\n        /* \"#utility.yul\":3366:3384   */\n      tag_266\n      tag_101\n      jump\t// in\n    tag_266:\n        /* \"#utility.yul\":3330:3386   */\n    tag_265:\n        /* \"#utility.yul\":3404:3433   */\n      tag_267\n        /* \"#utility.yul\":3426:3432   */\n      dup3\n        /* \"#utility.yul\":3404:3433   */\n      tag_170\n      jump\t// in\n    tag_267:\n        /* \"#utility.yul\":3396:3433   */\n      swap1\n      pop\n        /* \"#utility.yul\":3488:3492   */\n      0x20\n        /* \"#utility.yul\":3482:3486   */\n      dup2\n        /* \"#utility.yul\":3478:3493   */\n      add\n        /* \"#utility.yul\":3470:3493   */\n      swap1\n      pop\n        /* \"#utility.yul\":3192:3500   */\n      swap2\n      swap1\n      pop\n      jump\t// out\n        /* \"#utility.yul\":3506:3654   */\n    tag_174:\n        /* \"#utility.yul\":3604:3610   */\n      dup3\n        /* \"#utility.yul\":3599:3602   */\n      dup2\n        /* \"#utility.yul\":3594:3597   */\n      dup4\n        /* \"#utility.yul\":3581:3611   */\n      calldatacopy\n        /* \"#utility.yul\":3645:3646   */\n      0x00\n        /* \"#utility.yul\":3636:3642   */\n      dup4\n        /* \"#utility.yul\":3631:3634   */\n      dup4\n        /* \"#utility.yul\":3627:3643   */\n      add\n        /* \"#utility.yul\":3620:3647   */\n      mstore\n        /* \"#utility.yul\":3506:3654   */\n      pop\n      pop\n      pop\n      jump\t// out\n        /* \"#utility.yul\":3660:4085   */\n    tag_175:\n        /* \"#utility.yul\":3738:3743   */\n      0x00\n        /* \"#utility.yul\":3763:3829   */\n      tag_270\n        /* \"#utility.yul\":3779:3828   */\n      tag_271\n        /* \"#utility.yul\":3821:3827   */\n      dup5\n        /* \"#utility.yul\":3779:3828   */\n      tag_173\n      jump\t// in\n    tag_271:\n        /* \"#utility.yul\":3763:3829   */\n      tag_172\n      jump\t// in\n    tag_270:\n        /* \"#utility.yul\":3754:3829   */\n      swap1\n      pop\n        /* \"#utility.yul\":3852:3858   */\n      dup3\n        /* \"#utility.yul\":3845:3850   */\n      dup2\n        /* \"#utility.yul\":3838:3859   */\n      mstore\n        /* \"#utility.yul\":3890:3894   */\n      0x20\n        /* \"#utility.yul\":3883:3888   */\n      dup2\n        /* \"#utility.yul\":3879:3895   */\n      add\n        /* \"#utility.yul\":3928:3931   */\n      dup5\n        /* \"#utility.yul\":3919:3925   */\n      dup5\n        /* \"#utility.yul\":3914:3917   */\n      dup5\n        /* \"#utility.yul\":3910:3926   */\n      add\n        /* \"#utility.yul\":3907:3932   */\n      gt\n        /* \"#utility.yul\":3904:4016   */\n      iszero\n      tag_272\n      jumpi\n        /* \"#utility.yul\":3935:4014   */\n      tag_273\n      tag_169\n      jump\t// in\n    tag_273:\n        /* \"#utility.yul\":3904:4016   */\n    tag_272:\n        /* \"#utility.yul\":4025:4079   */\n      tag_274\n        /* \"#utility.yul\":4072:4078   */\n      dup5\n        /* \"#utility.yul\":4067:4070   */\n      dup3\n        /* \"#utility.yul\":4062:4065   */\n      dup6\n        /* \"#utility.yul\":4025:4079   */\n      tag_174\n      jump\t// in\n    tag_274:\n        /* \"#utility.yul\":3744:4085   */\n      pop\n        /* \"#utility.yul\":3660:4085   */\n      swap4\n      swap3\n      pop\n      pop\n      pop\n      jump\t// out\n        /* \"#utility.yul\":4105:4445   */\n    tag_176:\n        /* \"#utility.yul\":4161:4166   */\n      0x00\n        /* \"#utility.yul\":4210:4213   */\n      dup3\n        /* \"#utility.yul\":4203:4207   */\n      0x1f\n        /* \"#utility.yul\":4195:4201   */\n      dup4\n        /* \"#utility.yul\":4191:4208   */\n      add\n        /* \"#utility.yul\":4187:4214   */\n      slt\n        /* \"#utility.yul\":4177:4299   */\n      tag_276\n      jumpi\n        /* \"#utility.yul\":4218:4297   */\n      tag_277\n      tag_168\n      jump\t// in\n    tag_277:\n        /* \"#utility.yul\":4177:4299   */\n    tag_276:\n        /* \"#utility.yul\":4335:4341   */\n      dup2\n        /* \"#utility.yul\":4322:4342   */\n      calldataload\n        /* \"#utility.yul\":4360:4439   */\n      tag_278\n        /* \"#utility.yul\":4435:4438   */\n      dup5\n        /* \"#utility.yul\":4427:4433   */\n      dup3\n        /* \"#utility.yul\":4420:4424   */\n      0x20\n        /* \"#utility.yul\":4412:4418   */\n      dup7\n        /* \"#utility.yul\":4408:4425   */\n      add\n        /* \"#utility.yul\":4360:4439   */\n      tag_175\n      jump\t// in\n    tag_278:\n        /* \"#utility.yul\":4351:4439   */\n      swap2\n      pop\n        /* \"#utility.yul\":4167:4445   */\n      pop\n        /* \"#utility.yul\":4105:4445   */\n      swap3\n      swap2\n      pop\n      pop\n      jump\t// out\n        /* \"#utility.yul\":4451:5105   */\n    tag_23:\n        /* \"#utility.yul\":4529:4535   */\n      0x00\n        /* \"#utility.yul\":4537:4543   */\n      0x00\n        /* \"#utility.yul\":4586:4588   */\n      0x40\n        /* \"#utility.yul\":4574:4583   */\n      dup4\n        /* \"#utility.yul\":4565:4572   */\n      dup6\n        /* \"#utility.yul\":4561:4584   */\n      sub\n        /* \"#utility.yul\":4557:4589   */\n      slt\n        /* \"#utility.yul\":4554:4673   */\n      iszero\n      tag_280\n      jumpi\n        /* \"#utility.yul\":4592:4671   */\n      tag_281\n      tag_163\n      jump\t// in\n    tag_281:\n        /* \"#utility.yul\":4554:4673   */\n    tag_280:\n        /* \"#utility.yul\":4712:4713   */\n      0x00\n        /* \"#utility.yul\":4737:4790   */\n      tag_282\n        /* \"#utility.yul\":4782:4789   */\n      dup6\n        /* \"#utility.yul\":4773:4779   */\n      dup3\n        /* \"#utility.yul\":4762:4771   */\n      dup7\n        /* \"#utility.yul\":4758:4780   */\n      add\n        /* \"#utility.yul\":4737:4790   */\n      tag_167\n      jump\t// in\n    tag_282:\n        /* \"#utility.yul\":4727:4790   */\n      swap3\n      pop\n        /* \"#utility.yul\":4683:4800   */\n      pop\n        /* \"#utility.yul\":4867:4869   */\n      0x20\n        /* \"#utility.yul\":4856:4865   */\n      dup4\n        /* \"#utility.yul\":4852:4870   */\n      add\n        /* \"#utility.yul\":4839:4871   */\n      calldataload\n        /* \"#utility.yul\":4898:4916   */\n      0xffffffffffffffff\n        /* \"#utility.yul\":4890:4896   */\n      dup2\n        /* \"#utility.yul\":4887:4917   */\n      gt\n        /* \"#utility.yul\":4884:5001   */\n      iszero\n      tag_283\n      jumpi\n        /* \"#utility.yul\":4920:4999   */\n      tag_284\n      tag_164\n      jump\t// in\n    tag_284:\n        /* \"#utility.yul\":4884:5001   */\n    tag_283:\n        /* \"#utility.yul\":5025:5088   */\n      tag_285\n        /* \"#utility.yul\":5080:5087   */\n      dup6\n        /* \"#utility.yul\":5071:5077   */\n      dup3\n        /* \"#utility.yul\":5060:5069   */\n      dup7\n        /* \"#utility.yul\":5056:5078   */\n      add\n        /* \"#utility.yul\":5025:5088   */\n      tag_176\n      jump\t// in\n    tag_285:\n        /* \"#utility.yul\":5015:5088   */\n      swap2\n      pop\n        /* \"#utility.yul\":4810:5098   */\n      pop\n        /* \"#utility.yul\":4451:5105   */\n      swap3\n      pop\n      swap3\n      swap1\n      pop\n      jump\t// out\n        /* \"#utility.yul\":5111:5440   */\n    tag_27:\n        /* \"#utility.yul\":5170:5176   */\n      0x00\n        /* \"#utility.yul\":5219:5221   */\n      0x20\n        /* \"#utility.yul\":5207:5216   */\n      dup3\n        /* \"#utility.yul\":5198:5205   */\n      dup5\n        /* \"#utility.yul\":5194:5217   */\n      sub\n        /* \"#utility.yul\":5190:5222   */\n      slt\n        /* \"#utility.yul\":5187:5306   */\n      iszero\n      tag_287\n      jumpi\n        /* \"#utility.yul\":5225:5304   */\n      tag_288\n      tag_163\n      jump\t// in\n    tag_288:\n        /* \"#utility.yul\":5187:5306   */\n    tag_287:\n        /* \"#utility.yul\":5345:5346   */\n      0x00\n        /* \"#utility.yul\":5370:5423   */\n      tag_289\n        /* \"#utility.yul\":5415:5422   */\n      dup5\n        /* \"#utility.yul\":5406:5412   */\n      dup3\n        /* \"#utility.yul\":5395:5404   */\n      dup6\n        /* \"#utility.yul\":5391:5413   */\n      add\n        /* \"#utility.yul\":5370:5423   */\n      tag_167\n      jump\t// in\n    tag_289:\n        /* \"#utility.yul\":5360:5423   */\n      swap2\n      pop\n        /* \"#utility.yul\":5316:5433   */\n      pop\n        /* \"#utility.yul\":5111:5440   */\n      swap3\n      swap2\n      pop\n      pop\n      jump\t// out\n        /* \"#utility.yul\":5446:5564   */\n    tag_177:\n        /* \"#utility.yul\":5533:5557   */\n      tag_291\n        /* \"#utility.yul\":5551:5556   */\n      dup2\n        /* \"#utility.yul\":5533:5557   */\n      tag_165\n      jump\t// in\n    tag_291:\n        /* \"#utility.yul\":5528:5531   */\n      dup3\n        /* \"#utility.yul\":5521:5558   */\n      mstore\n        /* \"#utility.yul\":5446:5564   */\n      pop\n      pop\n      jump\t// out\n        /* \"#utility.yul\":5570:5669   */\n    tag_178:\n        /* \"#utility.yul\":5622:5628   */\n      0x00\n        /* \"#utility.yul\":5656:5661   */\n      dup2\n        /* \"#utility.yul\":5650:5662   */\n      mload\n        /* \"#utility.yul\":5640:5662   */\n      swap1\n      pop\n        /* \"#utility.yul\":5570:5669   */\n      swap2\n      swap1\n      pop\n      jump\t// out\n        /* \"#utility.yul\":5675:5844   */\n    tag_179:\n        /* \"#utility.yul\":5759:5770   */\n      0x00\n        /* \"#utility.yul\":5793:5799   */\n      dup3\n        /* \"#utility.yul\":5788:5791   */\n      dup3\n        /* \"#utility.yul\":5781:5800   */\n      mstore\n        /* \"#utility.yul\":5833:5837   */\n      0x20\n        /* \"#utility.yul\":5828:5831   */\n      dup3\n        /* \"#utility.yul\":5824:5838   */\n      add\n        /* \"#utility.yul\":5809:5838   */\n      swap1\n      pop\n        /* \"#utility.yul\":5675:5844   */\n      swap3\n      swap2\n      pop\n      pop\n      jump\t// out\n        /* \"#utility.yul\":5850:5989   */\n    tag_180:\n        /* \"#utility.yul\":5939:5945   */\n      dup3\n        /* \"#utility.yul\":5934:5937   */\n      dup2\n        /* \"#utility.yul\":5929:5932   */\n      dup4\n        /* \"#utility.yul\":5923:5946   */\n      mcopy\n        /* \"#utility.yul\":5980:5981   */\n      0x00\n        /* \"#utility.yul\":5971:5977   */\n      dup4\n        /* \"#utility.yul\":5966:5969   */\n      dup4\n        /* \"#utility.yul\":5962:5978   */\n      add\n        /* \"#utility.yul\":5955:5982   */\n      mstore\n        /* \"#utility.yul\":5850:5989   */\n      pop\n      pop\n      pop\n      jump\t// out\n        /* \"#utility.yul\":5995:6372   */\n    tag_181:\n        /* \"#utility.yul\":6083:6086   */\n      0x00\n        /* \"#utility.yul\":6111:6150   */\n      tag_296\n        /* \"#utility.yul\":6144:6149   */\n      dup3\n        /* \"#utility.yul\":6111:6150   */\n      tag_178\n      jump\t// in\n    tag_296:\n        /* \"#utility.yul\":6166:6237   */\n      tag_297\n        /* \"#utility.yul\":6230:6236   */\n      dup2\n        /* \"#utility.yul\":6225:6228   */\n      dup6\n        /* \"#utility.yul\":6166:6237   */\n      tag_179\n      jump\t// in\n    tag_297:\n        /* \"#utility.yul\":6159:6237   */\n      swap4\n      pop\n        /* \"#utility.yul\":6246:6311   */\n      tag_298\n        /* \"#utility.yul\":6304:6310   */\n      dup2\n        /* \"#utility.yul\":6299:6302   */\n      dup6\n        /* \"#utility.yul\":6292:6296   */\n      0x20\n        /* \"#utility.yul\":6285:6290   */\n      dup7\n        /* \"#utility.yul\":6281:6297   */\n      add\n        /* \"#utility.yul\":6246:6311   */\n      tag_180\n      jump\t// in\n    tag_298:\n        /* \"#utility.yul\":6336:6365   */\n      tag_299\n        /* \"#utility.yul\":6358:6364   */\n      dup2\n        /* \"#utility.yul\":6336:6365   */\n      tag_170\n      jump\t// in\n    tag_299:\n        /* \"#utility.yul\":6331:6334   */\n      dup5\n        /* \"#utility.yul\":6327:6366   */\n      add\n        /* \"#utility.yul\":6320:6366   */\n      swap2\n      pop\n        /* \"#utility.yul\":6087:6372   */\n      pop\n        /* \"#utility.yul\":5995:6372   */\n      swap3\n      swap2\n      pop\n      pop\n      jump\t// out\n        /* \"#utility.yul\":6378:6801   */\n    tag_30:\n        /* \"#utility.yul\":6519:6523   */\n      0x00\n        /* \"#utility.yul\":6557:6559   */\n      0x40\n        /* \"#utility.yul\":6546:6555   */\n      dup3\n        /* \"#utility.yul\":6542:6560   */\n      add\n        /* \"#utility.yul\":6534:6560   */\n      swap1\n      pop\n        /* \"#utility.yul\":6570:6641   */\n      tag_301\n        /* \"#utility.yul\":6638:6639   */\n      0x00\n        /* \"#utility.yul\":6627:6636   */\n      dup4\n        /* \"#utility.yul\":6623:6640   */\n      add\n        /* \"#utility.yul\":6614:6620   */\n      dup6\n        /* \"#utility.yul\":6570:6641   */\n      tag_177\n      jump\t// in\n    tag_301:\n        /* \"#utility.yul\":6688:6697   */\n      dup2\n        /* \"#utility.yul\":6682:6686   */\n      dup2\n        /* \"#utility.yul\":6678:6698   */\n      sub\n        /* \"#utility.yul\":6673:6675   */\n      0x20\n        /* \"#utility.yul\":6662:6671   */\n      dup4\n        /* \"#utility.yul\":6658:6676   */\n      add\n        /* \"#utility.yul\":6651:6699   */\n      mstore\n        /* \"#utility.yul\":6716:6794   */\n      tag_302\n        /* \"#utility.yul\":6789:6793   */\n      dup2\n        /* \"#utility.yul\":6780:6786   */\n      dup5\n        /* \"#utility.yul\":6716:6794   */\n      tag_181\n      jump\t// in\n    tag_302:\n        /* \"#utility.yul\":6708:6794   */\n      swap1\n      pop\n        /* \"#utility.yul\":6378:6801   */\n      swap4\n      swap3\n      pop\n      pop\n      pop\n      jump\t// out\n        /* \"#utility.yul\":6807:6946   */\n    tag_182:\n        /* \"#utility.yul\":6899:6905   */\n      0x00\n        /* \"#utility.yul\":6933:6938   */\n      dup2\n        /* \"#utility.yul\":6927:6939   */\n      mload\n        /* \"#utility.yul\":6917:6939   */\n      swap1\n      pop\n        /* \"#utility.yul\":6807:6946   */\n      swap2\n      swap1\n      pop\n      jump\t// out\n        /* \"#utility.yul\":6952:7161   */\n    tag_183:\n        /* \"#utility.yul\":7076:7087   */\n      0x00\n        /* \"#utility.yul\":7110:7116   */\n      dup3\n        /* \"#utility.yul\":7105:7108   */\n      dup3\n        /* \"#utility.yul\":7098:7117   */\n      mstore\n        /* \"#utility.yul\":7150:7154   */\n      0x20\n        /* \"#utility.yul\":7145:7148   */\n      dup3\n        /* \"#utility.yul\":7141:7155   */\n      add\n        /* \"#utility.yul\":7126:7155   */\n      swap1\n      pop\n        /* \"#utility.yul\":6952:7161   */\n      swap3\n      swap2\n      pop\n      pop\n      jump\t// out\n        /* \"#utility.yul\":7167:7324   */\n    tag_184:\n        /* \"#utility.yul\":7259:7263   */\n      0x00\n        /* \"#utility.yul\":7282:7285   */\n      dup2\n        /* \"#utility.yul\":7274:7285   */\n      swap1\n      pop\n        /* \"#utility.yul\":7312:7316   */\n      0x20\n        /* \"#utility.yul\":7307:7310   */\n      dup3\n        /* \"#utility.yul\":7303:7317   */\n      add\n        /* \"#utility.yul\":7295:7317   */\n      swap1\n      pop\n        /* \"#utility.yul\":7167:7324   */\n      swap2\n      swap1\n      pop\n      jump\t// out\n        /* \"#utility.yul\":7330:7438   */\n    tag_185:\n        /* \"#utility.yul\":7407:7431   */\n      tag_307\n        /* \"#utility.yul\":7425:7430   */\n      dup2\n        /* \"#utility.yul\":7407:7431   */\n      tag_165\n      jump\t// in\n    tag_307:\n        /* \"#utility.yul\":7402:7405   */\n      dup3\n        /* \"#utility.yul\":7395:7432   */\n      mstore\n        /* \"#utility.yul\":7330:7438   */\n      pop\n      pop\n      jump\t// out\n        /* \"#utility.yul\":7444:7603   */\n    tag_186:\n        /* \"#utility.yul\":7518:7529   */\n      0x00\n        /* \"#utility.yul\":7552:7558   */\n      dup3\n        /* \"#utility.yul\":7547:7550   */\n      dup3\n        /* \"#utility.yul\":7540:7559   */\n      mstore\n        /* \"#utility.yul\":7592:7596   */\n      0x20\n        /* \"#utility.yul\":7587:7590   */\n      dup3\n        /* \"#utility.yul\":7583:7597   */\n      add\n        /* \"#utility.yul\":7568:7597   */\n      swap1\n      pop\n        /* \"#utility.yul\":7444:7603   */\n      swap3\n      swap2\n      pop\n      pop\n      jump\t// out\n        /* \"#utility.yul\":7609:7966   */\n    tag_187:\n        /* \"#utility.yul\":7687:7690   */\n      0x00\n        /* \"#utility.yul\":7715:7754   */\n      tag_310\n        /* \"#utility.yul\":7748:7753   */\n      dup3\n        /* \"#utility.yul\":7715:7754   */\n      tag_178\n      jump\t// in\n    tag_310:\n        /* \"#utility.yul\":7770:7831   */\n      tag_311\n        /* \"#utility.yul\":7824:7830   */\n      dup2\n        /* \"#utility.yul\":7819:7822   */\n      dup6\n        /* \"#utility.yul\":7770:7831   */\n      tag_186\n      jump\t// in\n    tag_311:\n        /* \"#utility.yul\":7763:7831   */\n      swap4\n      pop\n        /* \"#utility.yul\":7840:7905   */\n      tag_312\n        /* \"#utility.yul\":7898:7904   */\n      dup2\n        /* \"#utility.yul\":7893:7896   */\n      dup6\n        /* \"#utility.yul\":7886:7890   */\n      0x20\n        /* \"#utility.yul\":7879:7884   */\n      dup7\n        /* \"#utility.yul\":7875:7891   */\n      add\n        /* \"#utility.yul\":7840:7905   */\n      tag_180\n      jump\t// in\n    tag_312:\n        /* \"#utility.yul\":7930:7959   */\n      tag_313\n        /* \"#utility.yul\":7952:7958   */\n      dup2\n        /* \"#utility.yul\":7930:7959   */\n      tag_170\n      jump\t// in\n    tag_313:\n        /* \"#utility.yul\":7925:7928   */\n      dup5\n        /* \"#utility.yul\":7921:7960   */\n      add\n        /* \"#utility.yul\":7914:7960   */\n      swap2\n      pop\n        /* \"#utility.yul\":7691:7966   */\n      pop\n        /* \"#utility.yul\":7609:7966   */\n      swap3\n      swap2\n      pop\n      pop\n      jump\t// out\n        /* \"#utility.yul\":8014:8616   */\n    tag_188:\n        /* \"#utility.yul\":8123:8126   */\n      0x00\n        /* \"#utility.yul\":8159:8163   */\n      0x40\n        /* \"#utility.yul\":8154:8157   */\n      dup4\n        /* \"#utility.yul\":8150:8164   */\n      add\n        /* \"#utility.yul\":8252:8256   */\n      0x00\n        /* \"#utility.yul\":8245:8250   */\n      dup4\n        /* \"#utility.yul\":8241:8257   */\n      add\n        /* \"#utility.yul\":8235:8258   */\n      mload\n        /* \"#utility.yul\":8271:8334   */\n      tag_315\n        /* \"#utility.yul\":8328:8332   */\n      0x00\n        /* \"#utility.yul\":8323:8326   */\n      dup7\n        /* \"#utility.yul\":8319:8333   */\n      add\n        /* \"#utility.yul\":8305:8317   */\n      dup3\n        /* \"#utility.yul\":8271:8334   */\n      tag_185\n      jump\t// in\n    tag_315:\n        /* \"#utility.yul\":8174:8344   */\n      pop\n        /* \"#utility.yul\":8426:8430   */\n      0x20\n        /* \"#utility.yul\":8419:8424   */\n      dup4\n        /* \"#utility.yul\":8415:8431   */\n      add\n        /* \"#utility.yul\":8409:8432   */\n      mload\n        /* \"#utility.yul\":8479:8482   */\n      dup5\n        /* \"#utility.yul\":8473:8477   */\n      dup3\n        /* \"#utility.yul\":8469:8483   */\n      sub\n        /* \"#utility.yul\":8462:8466   */\n      0x20\n        /* \"#utility.yul\":8457:8460   */\n      dup7\n        /* \"#utility.yul\":8453:8467   */\n      add\n        /* \"#utility.yul\":8446:8484   */\n      mstore\n        /* \"#utility.yul\":8505:8578   */\n      tag_316\n        /* \"#utility.yul\":8573:8577   */\n      dup3\n        /* \"#utility.yul\":8559:8571   */\n      dup3\n        /* \"#utility.yul\":8505:8578   */\n      tag_187\n      jump\t// in\n    tag_316:\n        /* \"#utility.yul\":8497:8578   */\n      swap2\n      pop\n        /* \"#utility.yul\":8354:8589   */\n      pop\n        /* \"#utility.yul\":8606:8610   */\n      dup1\n        /* \"#utility.yul\":8599:8610   */\n      swap2\n      pop\n        /* \"#utility.yul\":8128:8616   */\n      pop\n        /* \"#utility.yul\":8014:8616   */\n      swap3\n      swap2\n      pop\n      pop\n      jump\t// out\n        /* \"#utility.yul\":8622:8878   */\n    tag_189:\n        /* \"#utility.yul\":8741:8751   */\n      0x00\n        /* \"#utility.yul\":8776:8872   */\n      tag_318\n        /* \"#utility.yul\":8868:8871   */\n      dup4\n        /* \"#utility.yul\":8860:8866   */\n      dup4\n        /* \"#utility.yul\":8776:8872   */\n      tag_188\n      jump\t// in\n    tag_318:\n        /* \"#utility.yul\":8762:8872   */\n      swap1\n      pop\n        /* \"#utility.yul\":8622:8878   */\n      swap3\n      swap2\n      pop\n      pop\n      jump\t// out\n        /* \"#utility.yul\":8884:9022   */\n    tag_190:\n        /* \"#utility.yul\":8979:8983   */\n      0x00\n        /* \"#utility.yul\":9011:9015   */\n      0x20\n        /* \"#utility.yul\":9006:9009   */\n      dup3\n        /* \"#utility.yul\":9002:9016   */\n      add\n        /* \"#utility.yul\":8994:9016   */\n      swap1\n      pop\n        /* \"#utility.yul\":8884:9022   */\n      swap2\n      swap1\n      pop\n      jump\t// out\n        /* \"#utility.yul\":9074:10185   */\n    tag_191:\n        /* \"#utility.yul\":9243:9246   */\n      0x00\n        /* \"#utility.yul\":9272:9351   */\n      tag_321\n        /* \"#utility.yul\":9345:9350   */\n      dup3\n        /* \"#utility.yul\":9272:9351   */\n      tag_182\n      jump\t// in\n    tag_321:\n        /* \"#utility.yul\":9367:9478   */\n      tag_322\n        /* \"#utility.yul\":9471:9477   */\n      dup2\n        /* \"#utility.yul\":9466:9469   */\n      dup6\n        /* \"#utility.yul\":9367:9478   */\n      tag_183\n      jump\t// in\n    tag_322:\n        /* \"#utility.yul\":9360:9478   */\n      swap4\n      pop\n        /* \"#utility.yul\":9504:9507   */\n      dup4\n        /* \"#utility.yul\":9549:9553   */\n      0x20\n        /* \"#utility.yul\":9541:9547   */\n      dup3\n        /* \"#utility.yul\":9537:9554   */\n      mul\n        /* \"#utility.yul\":9532:9535   */\n      dup6\n        /* \"#utility.yul\":9528:9555   */\n      add\n        /* \"#utility.yul\":9579:9660   */\n      tag_323\n        /* \"#utility.yul\":9654:9659   */\n      dup6\n        /* \"#utility.yul\":9579:9660   */\n      tag_184\n      jump\t// in\n    tag_323:\n        /* \"#utility.yul\":9683:9690   */\n      dup1\n        /* \"#utility.yul\":9714:9715   */\n      0x00\n        /* \"#utility.yul\":9699:10140   */\n    tag_324:\n        /* \"#utility.yul\":9724:9730   */\n      dup6\n        /* \"#utility.yul\":9721:9722   */\n      dup2\n        /* \"#utility.yul\":9718:9731   */\n      lt\n        /* \"#utility.yul\":9699:10140   */\n      iszero\n      tag_326\n      jumpi\n        /* \"#utility.yul\":9795:9804   */\n      dup5\n        /* \"#utility.yul\":9789:9793   */\n      dup5\n        /* \"#utility.yul\":9785:9805   */\n      sub\n        /* \"#utility.yul\":9780:9783   */\n      dup10\n        /* \"#utility.yul\":9773:9806   */\n      mstore\n        /* \"#utility.yul\":9846:9852   */\n      dup2\n        /* \"#utility.yul\":9840:9853   */\n      mload\n        /* \"#utility.yul\":9874:9988   */\n      tag_327\n        /* \"#utility.yul\":9983:9987   */\n      dup6\n        /* \"#utility.yul\":9968:9981   */\n      dup3\n        /* \"#utility.yul\":9874:9988   */\n      tag_189\n      jump\t// in\n    tag_327:\n        /* \"#utility.yul\":9866:9988   */\n      swap5\n      pop\n        /* \"#utility.yul\":10011:10096   */\n      tag_328\n        /* \"#utility.yul\":10089:10095   */\n      dup4\n        /* \"#utility.yul\":10011:10096   */\n      tag_190\n      jump\t// in\n    tag_328:\n        /* \"#utility.yul\":10001:10096   */\n      swap3\n      pop\n        /* \"#utility.yul\":10125:10129   */\n      0x20\n        /* \"#utility.yul\":10120:10123   */\n      dup11\n        /* \"#utility.yul\":10116:10130   */\n      add\n        /* \"#utility.yul\":10109:10130   */\n      swap10\n      pop\n        /* \"#utility.yul\":9759:10140   */\n      pop\n        /* \"#utility.yul\":9746:9747   */\n      0x01\n        /* \"#utility.yul\":9743:9744   */\n      dup2\n        /* \"#utility.yul\":9739:9748   */\n      add\n        /* \"#utility.yul\":9734:9748   */\n      swap1\n      pop\n        /* \"#utility.yul\":9699:10140   */\n      jump(tag_324)\n    tag_326:\n        /* \"#utility.yul\":9703:9717   */\n      pop\n        /* \"#utility.yul\":10156:10160   */\n      dup3\n        /* \"#utility.yul\":10149:10160   */\n      swap8\n      pop\n        /* \"#utility.yul\":10176:10179   */\n      dup8\n        /* \"#utility.yul\":10169:10179   */\n      swap6\n      pop\n        /* \"#utility.yul\":9248:10185   */\n      pop\n      pop\n      pop\n      pop\n      pop\n        /* \"#utility.yul\":9074:10185   */\n      swap3\n      swap2\n      pop\n      pop\n      jump\t// out\n        /* \"#utility.yul\":10191:10664   */\n    tag_37:\n        /* \"#utility.yul\":10384:10388   */\n      0x00\n        /* \"#utility.yul\":10422:10424   */\n      0x20\n        /* \"#utility.yul\":10411:10420   */\n      dup3\n        /* \"#utility.yul\":10407:10425   */\n      add\n        /* \"#utility.yul\":10399:10425   */\n      swap1\n      pop\n        /* \"#utility.yul\":10471:10480   */\n      dup2\n        /* \"#utility.yul\":10465:10469   */\n      dup2\n        /* \"#utility.yul\":10461:10481   */\n      sub\n        /* \"#utility.yul\":10457:10458   */\n      0x00\n        /* \"#utility.yul\":10446:10455   */\n      dup4\n        /* \"#utility.yul\":10442:10459   */\n      add\n        /* \"#utility.yul\":10435:10482   */\n      mstore\n        /* \"#utility.yul\":10499:10657   */\n      tag_330\n        /* \"#utility.yul\":10652:10656   */\n      dup2\n        /* \"#utility.yul\":10643:10649   */\n      dup5\n        /* \"#utility.yul\":10499:10657   */\n      tag_191\n      jump\t// in\n    tag_330:\n        /* \"#utility.yul\":10491:10657   */\n      swap1\n      pop\n        /* \"#utility.yul\":10191:10664   */\n      swap3\n      swap2\n      pop\n      pop\n      jump\t// out\n        /* \"#utility.yul\":10670:10892   */\n    tag_42:\n        /* \"#utility.yul\":10763:10767   */\n      0x00\n        /* \"#utility.yul\":10801:10803   */\n      0x20\n        /* \"#utility.yul\":10790:10799   */\n      dup3\n        /* \"#utility.yul\":10786:10804   */\n      add\n        /* \"#utility.yul\":10778:10804   */\n      swap1\n      pop\n        /* \"#utility.yul\":10814:10885   */\n      tag_332\n        /* \"#utility.yul\":10882:10883   */\n      0x00\n        /* \"#utility.yul\":10871:10880   */\n      dup4\n        /* \"#utility.yul\":10867:10884   */\n      add\n        /* \"#utility.yul\":10858:10864   */\n      dup5\n        /* \"#utility.yul\":10814:10885   */\n      tag_177\n      jump\t// in\n    tag_332:\n        /* \"#utility.yul\":10670:10892   */\n      swap3\n      swap2\n      pop\n      pop\n      jump\t// out\n        /* \"#utility.yul\":10940:11552   */\n    tag_192:\n        /* \"#utility.yul\":11059:11062   */\n      0x00\n        /* \"#utility.yul\":11095:11099   */\n      0x40\n        /* \"#utility.yul\":11090:11093   */\n      dup4\n        /* \"#utility.yul\":11086:11100   */\n      add\n        /* \"#utility.yul\":11188:11192   */\n      0x00\n        /* \"#utility.yul\":11181:11186   */\n      dup4\n        /* \"#utility.yul\":11177:11193   */\n      add\n        /* \"#utility.yul\":11171:11194   */\n      mload\n        /* \"#utility.yul\":11207:11270   */\n      tag_334\n        /* \"#utility.yul\":11264:11268   */\n      0x00\n        /* \"#utility.yul\":11259:11262   */\n      dup7\n        /* \"#utility.yul\":11255:11269   */\n      add\n        /* \"#utility.yul\":11241:11253   */\n      dup3\n        /* \"#utility.yul\":11207:11270   */\n      tag_185\n      jump\t// in\n    tag_334:\n        /* \"#utility.yul\":11110:11280   */\n      pop\n        /* \"#utility.yul\":11362:11366   */\n      0x20\n        /* \"#utility.yul\":11355:11360   */\n      dup4\n        /* \"#utility.yul\":11351:11367   */\n      add\n        /* \"#utility.yul\":11345:11368   */\n      mload\n        /* \"#utility.yul\":11415:11418   */\n      dup5\n        /* \"#utility.yul\":11409:11413   */\n      dup3\n        /* \"#utility.yul\":11405:11419   */\n      sub\n        /* \"#utility.yul\":11398:11402   */\n      0x20\n        /* \"#utility.yul\":11393:11396   */\n      dup7\n        /* \"#utility.yul\":11389:11403   */\n      add\n        /* \"#utility.yul\":11382:11420   */\n      mstore\n        /* \"#utility.yul\":11441:11514   */\n      tag_335\n        /* \"#utility.yul\":11509:11513   */\n      dup3\n        /* \"#utility.yul\":11495:11507   */\n      dup3\n        /* \"#utility.yul\":11441:11514   */\n      tag_187\n      jump\t// in\n    tag_335:\n        /* \"#utility.yul\":11433:11514   */\n      swap2\n      pop\n        /* \"#utility.yul\":11290:11525   */\n      pop\n        /* \"#utility.yul\":11542:11546   */\n      dup1\n        /* \"#utility.yul\":11535:11546   */\n      swap2\n      pop\n        /* \"#utility.yul\":11064:11552   */\n      pop\n        /* \"#utility.yul\":10940:11552   */\n      swap3\n      swap2\n      pop\n      pop\n      jump\t// out\n        /* \"#utility.yul\":11558:11931   */\n    tag_47:\n        /* \"#utility.yul\":11701:11705   */\n      0x00\n        /* \"#utility.yul\":11739:11741   */\n      0x20\n        /* \"#utility.yul\":11728:11737   */\n      dup3\n        /* \"#utility.yul\":11724:11742   */\n      add\n        /* \"#utility.yul\":11716:11742   */\n      swap1\n      pop\n        /* \"#utility.yul\":11788:11797   */\n      dup2\n        /* \"#utility.yul\":11782:11786   */\n      dup2\n        /* \"#utility.yul\":11778:11798   */\n      sub\n        /* \"#utility.yul\":11774:11775   */\n      0x00\n        /* \"#utility.yul\":11763:11772   */\n      dup4\n        /* \"#utility.yul\":11759:11776   */\n      add\n        /* \"#utility.yul\":11752:11799   */\n      mstore\n        /* \"#utility.yul\":11816:11924   */\n      tag_337\n        /* \"#utility.yul\":11919:11923   */\n      dup2\n        /* \"#utility.yul\":11910:11916   */\n      dup5\n        /* \"#utility.yul\":11816:11924   */\n      tag_192\n      jump\t// in\n    tag_337:\n        /* \"#utility.yul\":11808:11924   */\n      swap1\n      pop\n        /* \"#utility.yul\":11558:11931   */\n      swap3\n      swap2\n      pop\n      pop\n      jump\t// out\n        /* \"#utility.yul\":11937:12116   */\n    tag_193:\n        /* \"#utility.yul\":12077:12108   */\n      0x43617465676f7279206e616d652063616e6e6f7420626520656d707479000000\n        /* \"#utility.yul\":12073:12074   */\n      0x00\n        /* \"#utility.yul\":12065:12071   */\n      dup3\n        /* \"#utility.yul\":12061:12075   */\n      add\n        /* \"#utility.yul\":12054:12109   */\n      mstore\n        /* \"#utility.yul\":11937:12116   */\n      pop\n      jump\t// out\n        /* \"#utility.yul\":12122:12488   */\n    tag_194:\n        /* \"#utility.yul\":12264:12267   */\n      0x00\n        /* \"#utility.yul\":12285:12352   */\n      tag_340\n        /* \"#utility.yul\":12349:12351   */\n      0x1d\n        /* \"#utility.yul\":12344:12347   */\n      dup4\n        /* \"#utility.yul\":12285:12352   */\n      tag_179\n      jump\t// in\n    tag_340:\n        /* \"#utility.yul\":12278:12352   */\n      swap2\n      pop\n        /* \"#utility.yul\":12361:12454   */\n      tag_341\n        /* \"#utility.yul\":12450:12453   */\n      dup3\n        /* \"#utility.yul\":12361:12454   */\n      tag_193\n      jump\t// in\n    tag_341:\n        /* \"#utility.yul\":12479:12481   */\n      0x20\n        /* \"#utility.yul\":12474:12477   */\n      dup3\n        /* \"#utility.yul\":12470:12482   */\n      add\n        /* \"#utility.yul\":12463:12482   */\n      swap1\n      pop\n        /* \"#utility.yul\":12122:12488   */\n      swap2\n      swap1\n      pop\n      jump\t// out\n        /* \"#utility.yul\":12494:12913   */\n    tag_56:\n        /* \"#utility.yul\":12660:12664   */\n      0x00\n        /* \"#utility.yul\":12698:12700   */\n      0x20\n        /* \"#utility.yul\":12687:12696   */\n      dup3\n        /* \"#utility.yul\":12683:12701   */\n      add\n        /* \"#utility.yul\":12675:12701   */\n      swap1\n      pop\n        /* \"#utility.yul\":12747:12756   */\n      dup2\n        /* \"#utility.yul\":12741:12745   */\n      dup2\n        /* \"#utility.yul\":12737:12757   */\n      sub\n        /* \"#utility.yul\":12733:12734   */\n      0x00\n        /* \"#utility.yul\":12722:12731   */\n      dup4\n        /* \"#utility.yul\":12718:12735   */\n      add\n        /* \"#utility.yul\":12711:12758   */\n      mstore\n        /* \"#utility.yul\":12775:12906   */\n      tag_343\n        /* \"#utility.yul\":12901:12905   */\n      dup2\n        /* \"#utility.yul\":12775:12906   */\n      tag_194\n      jump\t// in\n    tag_343:\n        /* \"#utility.yul\":12767:12906   */\n      swap1\n      pop\n        /* \"#utility.yul\":12494:12913   */\n      swap2\n      swap1\n      pop\n      jump\t// out\n        /* \"#utility.yul\":12919:13092   */\n    tag_195:\n        /* \"#utility.yul\":13059:13084   */\n      0x43617465676f727920646f6573206e6f74206578697374000000000000000000\n        /* \"#utility.yul\":13055:13056   */\n      0x00\n        /* \"#utility.yul\":13047:13053   */\n      dup3\n        /* \"#utility.yul\":13043:13057   */\n      add\n        /* \"#utility.yul\":13036:13085   */\n      mstore\n        /* \"#utility.yul\":12919:13092   */\n      pop\n      jump\t// out\n        /* \"#utility.yul\":13098:13464   */\n    tag_196:\n        /* \"#utility.yul\":13240:13243   */\n      0x00\n        /* \"#utility.yul\":13261:13328   */\n      tag_346\n        /* \"#utility.yul\":13325:13327   */\n      0x17\n        /* \"#utility.yul\":13320:13323   */\n      dup4\n        /* \"#utility.yul\":13261:13328   */\n      tag_179\n      jump\t// in\n    tag_346:\n        /* \"#utility.yul\":13254:13328   */\n      swap2\n      pop\n        /* \"#utility.yul\":13337:13430   */\n      tag_347\n        /* \"#utility.yul\":13426:13429   */\n      dup3\n        /* \"#utility.yul\":13337:13430   */\n      tag_195\n      jump\t// in\n    tag_347:\n        /* \"#utility.yul\":13455:13457   */\n      0x20\n        /* \"#utility.yul\":13450:13453   */\n      dup3\n        /* \"#utility.yul\":13446:13458   */\n      add\n        /* \"#utility.yul\":13439:13458   */\n      swap1\n      pop\n        /* \"#utility.yul\":13098:13464   */\n      swap2\n      swap1\n      pop\n      jump\t// out\n        /* \"#utility.yul\":13470:13889   */\n    tag_59:\n        /* \"#utility.yul\":13636:13640   */\n      0x00\n        /* \"#utility.yul\":13674:13676   */\n      0x20\n        /* \"#utility.yul\":13663:13672   */\n      dup3\n        /* \"#utility.yul\":13659:13677   */\n      add\n        /* \"#utility.yul\":13651:13677   */\n      swap1\n      pop\n        /* \"#utility.yul\":13723:13732   */\n      dup2\n        /* \"#utility.yul\":13717:13721   */\n      dup2\n        /* \"#utility.yul\":13713:13733   */\n      sub\n        /* \"#utility.yul\":13709:13710   */\n      0x00\n        /* \"#utility.yul\":13698:13707   */\n      dup4\n        /* \"#utility.yul\":13694:13711   */\n      add\n        /* \"#utility.yul\":13687:13734   */\n      mstore\n        /* \"#utility.yul\":13751:13882   */\n      tag_349\n        /* \"#utility.yul\":13877:13881   */\n      dup2\n        /* \"#utility.yul\":13751:13882   */\n      tag_196\n      jump\t// in\n    tag_349:\n        /* \"#utility.yul\":13743:13882   */\n      swap1\n      pop\n        /* \"#utility.yul\":13470:13889   */\n      swap2\n      swap1\n      pop\n      jump\t// out\n        /* \"#utility.yul\":13895:14075   */\n    tag_197:\n        /* \"#utility.yul\":13943:14020   */\n      0x4e487b7100000000000000000000000000000000000000000000000000000000\n        /* \"#utility.yul\":13940:13941   */\n      0x00\n        /* \"#utility.yul\":13933:14021   */\n      mstore\n        /* \"#utility.yul\":14040:14044   */\n      0x22\n        /* \"#utility.yul\":14037:14038   */\n      0x04\n        /* \"#utility.yul\":14030:14045   */\n      mstore\n        /* \"#utility.yul\":14064:14068   */\n      0x24\n        /* \"#utility.yul\":14061:14062   */\n      0x00\n        /* \"#utility.yul\":14054:14069   */\n      revert\n        /* \"#utility.yul\":14081:14401   */\n    tag_64:\n        /* \"#utility.yul\":14125:14131   */\n      0x00\n        /* \"#utility.yul\":14162:14163   */\n      0x02\n        /* \"#utility.yul\":14156:14160   */\n      dup3\n        /* \"#utility.yul\":14152:14164   */\n      div\n        /* \"#utility.yul\":14142:14164   */\n      swap1\n      pop\n        /* \"#utility.yul\":14209:14210   */\n      0x01\n        /* \"#utility.yul\":14203:14207   */\n      dup3\n        /* \"#utility.yul\":14199:14211   */\n      and\n        /* \"#utility.yul\":14230:14248   */\n      dup1\n        /* \"#utility.yul\":14220:14301   */\n      tag_352\n      jumpi\n        /* \"#utility.yul\":14286:14290   */\n      0x7f\n        /* \"#utility.yul\":14278:14284   */\n      dup3\n        /* \"#utility.yul\":14274:14291   */\n      and\n        /* \"#utility.yul\":14264:14291   */\n      swap2\n      pop\n        /* \"#utility.yul\":14220:14301   */\n    tag_352:\n        /* \"#utility.yul\":14348:14350   */\n      0x20\n        /* \"#utility.yul\":14340:14346   */\n      dup3\n        /* \"#utility.yul\":14337:14351   */\n      lt\n        /* \"#utility.yul\":14317:14335   */\n      dup2\n        /* \"#utility.yul\":14314:14352   */\n      sub\n        /* \"#utility.yul\":14311:14395   */\n      tag_353\n      jumpi\n        /* \"#utility.yul\":14367:14385   */\n      tag_354\n      tag_197\n      jump\t// in\n    tag_354:\n        /* \"#utility.yul\":14311:14395   */\n    tag_353:\n        /* \"#utility.yul\":14132:14401   */\n      pop\n        /* \"#utility.yul\":14081:14401   */\n      swap2\n      swap1\n      pop\n      jump\t// out\n        /* \"#utility.yul\":14407:14548   */\n    tag_198:\n        /* \"#utility.yul\":14456:14460   */\n      0x00\n        /* \"#utility.yul\":14479:14482   */\n      dup2\n        /* \"#utility.yul\":14471:14482   */\n      swap1\n      pop\n        /* \"#utility.yul\":14502:14505   */\n      dup2\n        /* \"#utility.yul\":14499:14500   */\n      0x00\n        /* \"#utility.yul\":14492:14506   */\n      mstore\n        /* \"#utility.yul\":14536:14540   */\n      0x20\n        /* \"#utility.yul\":14533:14534   */\n      0x00\n        /* \"#utility.yul\":14523:14541   */\n      keccak256\n        /* \"#utility.yul\":14515:14541   */\n      swap1\n      pop\n        /* \"#utility.yul\":14407:14548   */\n      swap2\n      swap1\n      pop\n      jump\t// out\n        /* \"#utility.yul\":14554:14647   */\n    tag_199:\n        /* \"#utility.yul\":14591:14597   */\n      0x00\n        /* \"#utility.yul\":14638:14640   */\n      0x20\n        /* \"#utility.yul\":14633:14635   */\n      0x1f\n        /* \"#utility.yul\":14626:14631   */\n      dup4\n        /* \"#utility.yul\":14622:14636   */\n      add\n        /* \"#utility.yul\":14618:14641   */\n      div\n        /* \"#utility.yul\":14608:14641   */\n      swap1\n      pop\n        /* \"#utility.yul\":14554:14647   */\n      swap2\n      swap1\n      pop\n      jump\t// out\n        /* \"#utility.yul\":14653:14760   */\n    tag_200:\n        /* \"#utility.yul\":14697:14705   */\n      0x00\n        /* \"#utility.yul\":14747:14752   */\n      dup3\n        /* \"#utility.yul\":14741:14745   */\n      dup3\n        /* \"#utility.yul\":14737:14753   */\n      shl\n        /* \"#utility.yul\":14716:14753   */\n      swap1\n      pop\n        /* \"#utility.yul\":14653:14760   */\n      swap3\n      swap2\n      pop\n      pop\n      jump\t// out\n        /* \"#utility.yul\":14766:15159   */\n    tag_201:\n        /* \"#utility.yul\":14835:14841   */\n      0x00\n        /* \"#utility.yul\":14885:14886   */\n      0x08\n        /* \"#utility.yul\":14873:14883   */\n      dup4\n        /* \"#utility.yul\":14869:14887   */\n      mul\n        /* \"#utility.yul\":14908:15005   */\n      tag_359\n        /* \"#utility.yul\":14938:15004   */\n      0xffffffffffffffffffffffffffffffffffffffffffffffffffffffffffffffff\n        /* \"#utility.yul\":14927:14936   */\n      dup3\n        /* \"#utility.yul\":14908:15005   */\n      tag_200\n      jump\t// in\n    tag_359:\n        /* \"#utility.yul\":15026:15065   */\n      tag_360\n        /* \"#utility.yul\":15056:15064   */\n      dup7\n        /* \"#utility.yul\":15045:15054   */\n      dup4\n        /* \"#utility.yul\":15026:15065   */\n      tag_200\n      jump\t// in\n    tag_360:\n        /* \"#utility.yul\":15014:15065   */\n      swap6\n      pop\n        /* \"#utility.yul\":15098:15102   */\n      dup1\n        /* \"#utility.yul\":15094:15103   */\n      not\n        /* \"#utility.yul\":15087:15092   */\n      dup5\n        /* \"#utility.yul\":15083:15104   */\n      and\n        /* \"#utility.yul\":15074:15104   */\n      swap4\n      pop\n        /* \"#utility.yul\":15147:15151   */\n      dup1\n        /* \"#utility.yul\":15137:15145   */\n      dup7\n        /* \"#utility.yul\":15133:15152   */\n      and\n        /* \"#utility.yul\":15126:15131   */\n      dup5\n        /* \"#utility.yul\":15123:15153   */\n      or\n        /* \"#utility.yul\":15113:15153   */\n      swap3\n      pop\n        /* \"#utility.yul\":14842:15159   */\n      pop\n      pop\n        /* \"#utility.yul\":14766:15159   */\n      swap4\n      swap3\n      pop\n      pop\n      pop\n      jump\t// out\n        /* \"#utility.yul\":15165:15307   */\n    tag_202:\n        /* \"#utility.yul\":15215:15224   */\n      0x00\n        /* \"#utility.yul\":15248:15301   */\n      tag_362\n        /* \"#utility.yul\":15266:15300   */\n      tag_363\n        /* \"#utility.yul\":15275:15299   */\n      tag_364\n        /* \"#utility.yul\":15293:15298   */\n      dup5\n        /* \"#utility.yul\":15275:15299   */\n      tag_165\n      jump\t// in\n    tag_364:\n        /* \"#utility.yul\":15266:15300   */\n      tag_157\n      jump\t// in\n    tag_363:\n        /* \"#utility.yul\":15248:15301   */\n      tag_165\n      jump\t// in\n    tag_362:\n        /* \"#utility.yul\":15235:15301   */\n      swap1\n      pop\n        /* \"#utility.yul\":15165:15307   */\n      swap2\n      swap1\n      pop\n      jump\t// out\n        /* \"#utility.yul\":15313:15388   */\n    tag_203:\n        /* \"#utility.yul\":15356:15359   */\n      0x00\n        /* \"#utility.yul\":15377:15382   */\n      dup2\n        /* \"#utility.yul\":15370:15382   */\n      swap1\n      pop\n        /* \"#utility.yul\":15313:15388   */\n      swap2\n      swap1\n      pop\n      jump\t// out\n        /* \"#utility.yul\":15394:15663   */\n    tag_204:\n        /* \"#utility.yul\":15504:15543   */\n      tag_367\n        /* \"#utility.yul\":15535:15542   */\n      dup4\n        /* \"#utility.yul\":15504:15543   */\n      tag_202\n      jump\t// in\n    tag_367:\n        /* \"#utility.yul\":15565:15656   */\n      tag_368\n        /* \"#utility.yul\":15614:15655   */\n      tag_369\n        /* \"#utility.yul\":15638:15654   */\n      dup3\n        /* \"#utility.yul\":15614:15655   */\n      tag_203\n      jump\t// in\n    tag_369:\n        /* \"#utility.yul\":15606:15612   */\n      dup5\n        /* \"#utility.yul\":15599:15603   */\n      dup5\n        /* \"#utility.yul\":15593:15604   */\n      sload\n        /* \"#utility.yul\":15565:15656   */\n      tag_201\n      jump\t// in\n    tag_368:\n        /* \"#utility.yul\":15559:15563   */\n      dup3\n        /* \"#utility.yul\":15552:15657   */\n      sstore\n        /* \"#utility.yul\":15470:15663   */\n      pop\n        /* \"#utility.yul\":15394:15663   */\n      pop\n      pop\n      pop\n      jump\t// out\n        /* \"#utility.yul\":15669:15742   */\n    tag_205:\n        /* \"#utility.yul\":15714:15717   */\n      0x00\n        /* \"#utility.yul\":15735:15736   */\n      0x00\n        /* \"#utility.yul\":15728:15736   */\n      swap1\n      pop\n        /* \"#utility.yul\":15669:15742   */\n      swap1\n      jump\t// out\n        /* \"#utility.yul\":15748:15937   */\n    tag_206:\n        /* \"#utility.yul\":15825:15857   */\n      tag_372\n      tag_205\n      jump\t// in\n    tag_372:\n        /* \"#utility.yul\":15866:15931   */\n      tag_373\n        /* \"#utility.yul\":15924:15930   */\n      dup2\n        /* \"#utility.yul\":15916:15922   */\n      dup5\n        /* \"#utility.yul\":15910:15914   */\n      dup5\n        /* \"#utility.yul\":15866:15931   */\n      tag_204\n      jump\t// in\n    tag_373:\n        /* \"#utility.yul\":15801:15937   */\n      pop\n        /* \"#utility.yul\":15748:15937   */\n      pop\n      pop\n      jump\t// out\n        /* \"#utility.yul\":15943:16129   */\n    tag_207:\n        /* \"#utility.yul\":16003:16123   */\n    tag_375:\n        /* \"#utility.yul\":16020:16023   */\n      dup2\n        /* \"#utility.yul\":16013:16018   */\n      dup2\n        /* \"#utility.yul\":16010:16024   */\n      lt\n        /* \"#utility.yul\":16003:16123   */\n      iszero\n      tag_377\n      jumpi\n        /* \"#utility.yul\":16074:16113   */\n      tag_378\n        /* \"#utility.yul\":16111:16112   */\n      0x00\n        /* \"#utility.yul\":16104:16109   */\n      dup3\n        /* \"#utility.yul\":16074:16113   */\n      tag_206\n      jump\t// in\n    tag_378:\n        /* \"#utility.yul\":16047:16048   */\n      0x01\n        /* \"#utility.yul\":16040:16045   */\n      dup2\n        /* \"#utility.yul\":16036:16049   */\n      add\n        /* \"#utility.yul\":16027:16049   */\n      swap1\n      pop\n        /* \"#utility.yul\":16003:16123   */\n      jump(tag_375)\n    tag_377:\n        /* \"#utility.yul\":15943:16129   */\n      pop\n      pop\n      jump\t// out\n        /* \"#utility.yul\":16135:16678   */\n    tag_208:\n        /* \"#utility.yul\":16236:16238   */\n      0x1f\n        /* \"#utility.yul\":16231:16234   */\n      dup3\n        /* \"#utility.yul\":16228:16239   */\n      gt\n        /* \"#utility.yul\":16225:16671   */\n      iszero\n      tag_380\n      jumpi\n        /* \"#utility.yul\":16270:16308   */\n      tag_381\n        /* \"#utility.yul\":16302:16307   */\n      dup2\n        /* \"#utility.yul\":16270:16308   */\n      tag_198\n      jump\t// in\n    tag_381:\n        /* \"#utility.yul\":16354:16383   */\n      tag_382\n        /* \"#utility.yul\":16372:16382   */\n      dup5\n        /* \"#utility.yul\":16354:16383   */\n      tag_199\n      jump\t// in\n    tag_382:\n        /* \"#utility.yul\":16344:16352   */\n      dup2\n        /* \"#utility.yul\":16340:16384   */\n      add\n        /* \"#utility.yul\":16537:16539   */\n      0x20\n        /* \"#utility.yul\":16525:16535   */\n      dup6\n        /* \"#utility.yul\":16522:16540   */\n      lt\n        /* \"#utility.yul\":16519:16568   */\n      iszero\n      tag_383\n      jumpi\n        /* \"#utility.yul\":16558:16566   */\n      dup2\n        /* \"#utility.yul\":16543:16566   */\n      swap1\n      pop\n        /* \"#utility.yul\":16519:16568   */\n    tag_383:\n        /* \"#utility.yul\":16581:16661   */\n      tag_384\n        /* \"#utility.yul\":16637:16659   */\n      tag_385\n        /* \"#utility.yul\":16655:16658   */\n      dup6\n        /* \"#utility.yul\":16637:16659   */\n      tag_199\n      jump\t// in\n    tag_385:\n        /* \"#utility.yul\":16627:16635   */\n      dup4\n        /* \"#utility.yul\":16623:16660   */\n      add\n        /* \"#utility.yul\":16610:16621   */\n      dup3\n        /* \"#utility.yul\":16581:16661   */\n      tag_207\n      jump\t// in\n    tag_384:\n        /* \"#utility.yul\":16240:16671   */\n      pop\n      pop\n        /* \"#utility.yul\":16225:16671   */\n    tag_380:\n        /* \"#utility.yul\":16135:16678   */\n      pop\n      pop\n      pop\n      jump\t// out\n        /* \"#utility.yul\":16684:16801   */\n    tag_209:\n        /* \"#utility.yul\":16738:16746   */\n      0x00\n        /* \"#utility.yul\":16788:16793   */\n      dup3\n        /* \"#utility.yul\":16782:16786   */\n      dup3\n        /* \"#utility.yul\":16778:16794   */\n      shr\n        /* \"#utility.yul\":16757:16794   */\n      swap1\n      pop\n        /* \"#utility.yul\":16684:16801   */\n      swap3\n      swap2\n      pop\n      pop\n      jump\t// out\n        /* \"#utility.yul\":16807:16976   */\n    tag_210:\n        /* \"#utility.yul\":16851:16857   */\n      0x00\n        /* \"#utility.yul\":16884:16935   */\n      tag_388\n        /* \"#utility.yul\":16932:16933   */\n      0x00\n        /* \"#utility.yul\":16928:16934   */\n      not\n        /* \"#utility.yul\":16920:16925   */\n      dup5\n        /* \"#utility.yul\":16917:16918   */\n      0x08\n        /* \"#utility.yul\":16913:16926   */\n      mul\n        /* \"#utility.yul\":16884:16935   */\n      tag_209\n      jump\t// in\n    tag_388:\n        /* \"#utility.yul\":16880:16936   */\n      not\n        /* \"#utility.yul\":16965:16969   */\n      dup1\n        /* \"#utility.yul\":16959:16963   */\n      dup4\n        /* \"#utility.yul\":16955:16970   */\n      and\n        /* \"#utility.yul\":16945:16970   */\n      swap2\n      pop\n        /* \"#utility.yul\":16858:16976   */\n      pop\n        /* \"#utility.yul\":16807:16976   */\n      swap3\n      swap2\n      pop\n      pop\n      jump\t// out\n        /* \"#utility.yul\":16981:17276   */\n    tag_211:\n        /* \"#utility.yul\":17057:17061   */\n      0x00\n        /* \"#utility.yul\":17203:17232   */\n      tag_390\n        /* \"#utility.yul\":17228:17231   */\n      dup4\n        /* \"#utility.yul\":17222:17226   */\n      dup4\n        /* \"#utility.yul\":17203:17232   */\n      tag_210\n      jump\t// in\n    tag_390:\n        /* \"#utility.yul\":17195:17232   */\n      swap2\n      pop\n        /* \"#utility.yul\":17265:17268   */\n      dup3\n        /* \"#utility.yul\":17262:17263   */\n      0x02\n        /* \"#utility.yul\":17258:17269   */\n      mul\n        /* \"#utility.yul\":17252:17256   */\n      dup3\n        /* \"#utility.yul\":17249:17270   */\n      or\n        /* \"#utility.yul\":17241:17270   */\n      swap1\n      pop\n        /* \"#utility.yul\":16981:17276   */\n      swap3\n      swap2\n      pop\n      pop\n      jump\t// out\n        /* \"#utility.yul\":17281:18676   */\n    tag_61:\n        /* \"#utility.yul\":17398:17435   */\n      tag_392\n        /* \"#utility.yul\":17431:17434   */\n      dup3\n        /* \"#utility.yul\":17398:17435   */\n      tag_178\n      jump\t// in\n    tag_392:\n        /* \"#utility.yul\":17500:17518   */\n      0xffffffffffffffff\n        /* \"#utility.yul\":17492:17498   */\n      dup2\n        /* \"#utility.yul\":17489:17519   */\n      gt\n        /* \"#utility.yul\":17486:17542   */\n      iszero\n      tag_393\n      jumpi\n        /* \"#utility.yul\":17522:17540   */\n      tag_394\n      tag_101\n      jump\t// in\n    tag_394:\n        /* \"#utility.yul\":17486:17542   */\n    tag_393:\n        /* \"#utility.yul\":17566:17604   */\n      tag_395\n        /* \"#utility.yul\":17598:17602   */\n      dup3\n        /* \"#utility.yul\":17592:17603   */\n      sload\n        /* \"#utility.yul\":17566:17604   */\n      tag_64\n      jump\t// in\n    tag_395:\n        /* \"#utility.yul\":17651:17718   */\n      tag_396\n        /* \"#utility.yul\":17711:17717   */\n      dup3\n        /* \"#utility.yul\":17703:17709   */\n      dup3\n        /* \"#utility.yul\":17697:17701   */\n      dup6\n        /* \"#utility.yul\":17651:17718   */\n      tag_208\n      jump\t// in\n    tag_396:\n        /* \"#utility.yul\":17745:17746   */\n      0x00\n        /* \"#utility.yul\":17769:17773   */\n      0x20\n        /* \"#utility.yul\":17756:17773   */\n      swap1\n      pop\n        /* \"#utility.yul\":17801:17803   */\n      0x1f\n        /* \"#utility.yul\":17793:17799   */\n      dup4\n        /* \"#utility.yul\":17790:17804   */\n      gt\n        /* \"#utility.yul\":17818:17819   */\n      0x01\n        /* \"#utility.yul\":17813:18431   */\n      dup2\n      eq\n      tag_398\n      jumpi\n        /* \"#utility.yul\":18475:18476   */\n      0x00\n        /* \"#utility.yul\":18492:18498   */\n      dup5\n        /* \"#utility.yul\":18489:18566   */\n      iszero\n      tag_399\n      jumpi\n        /* \"#utility.yul\":18541:18550   */\n      dup3\n        /* \"#utility.yul\":18536:18539   */\n      dup8\n        /* \"#utility.yul\":18532:18551   */\n      add\n        /* \"#utility.yul\":18526:18552   */\n      mload\n        /* \"#utility.yul\":18517:18552   */\n      swap1\n      pop\n        /* \"#utility.yul\":18489:18566   */\n    tag_399:\n        /* \"#utility.yul\":18592:18659   */\n      tag_400\n        /* \"#utility.yul\":18652:18658   */\n      dup6\n        /* \"#utility.yul\":18645:18650   */\n      dup3\n        /* \"#utility.yul\":18592:18659   */\n      tag_211\n      jump\t// in\n    tag_400:\n        /* \"#utility.yul\":18586:18590   */\n      dup7\n        /* \"#utility.yul\":18579:18660   */\n      sstore\n        /* \"#utility.yul\":18448:18670   */\n      pop\n        /* \"#utility.yul\":17783:18670   */\n      jump(tag_397)\n        /* \"#utility.yul\":17813:18431   */\n    tag_398:\n        /* \"#utility.yul\":17865:17869   */\n      0x1f\n        /* \"#utility.yul\":17861:17870   */\n      not\n        /* \"#utility.yul\":17853:17859   */\n      dup5\n        /* \"#utility.yul\":17849:17871   */\n      and\n        /* \"#utility.yul\":17899:17936   */\n      tag_401\n        /* \"#utility.yul\":17931:17935   */\n      dup7\n        /* \"#utility.yul\":17899:17936   */\n      tag_198\n      jump\t// in\n    tag_401:\n        /* \"#utility.yul\":17958:17959   */\n      0x00\n        /* \"#utility.yul\":17972:18180   */\n    tag_402:\n        /* \"#utility.yul\":17986:17993   */\n      dup3\n        /* \"#utility.yul\":17983:17984   */\n      dup2\n        /* \"#utility.yul\":17980:17994   */\n      lt\n        /* \"#utility.yul\":17972:18180   */\n      iszero\n      tag_404\n      jumpi\n        /* \"#utility.yul\":18065:18074   */\n      dup5\n        /* \"#utility.yul\":18060:18063   */\n      dup10\n        /* \"#utility.yul\":18056:18075   */\n      add\n        /* \"#utility.yul\":18050:18076   */\n      mload\n        /* \"#utility.yul\":18042:18048   */\n      dup3\n        /* \"#utility.yul\":18035:18077   */\n      sstore\n        /* \"#utility.yul\":18116:18117   */\n      0x01\n        /* \"#utility.yul\":18108:18114   */\n      dup3\n        /* \"#utility.yul\":18104:18118   */\n      add\n        /* \"#utility.yul\":18094:18118   */\n      swap2\n      pop\n        /* \"#utility.yul\":18163:18165   */\n      0x20\n        /* \"#utility.yul\":18152:18161   */\n      dup6\n        /* \"#utility.yul\":18148:18166   */\n      add\n        /* \"#utility.yul\":18135:18166   */\n      swap5\n      pop\n        /* \"#utility.yul\":18009:18013   */\n      0x20\n        /* \"#utility.yul\":18006:18007   */\n      dup2\n        /* \"#utility.yul\":18002:18014   */\n      add\n        /* \"#utility.yul\":17997:18014   */\n      swap1\n      pop\n        /* \"#utility.yul\":17972:18180   */\n      jump(tag_402)\n    tag_404:\n        /* \"#utility.yul\":18208:18214   */\n      dup7\n        /* \"#utility.yul\":18199:18206   */\n      dup4\n        /* \"#utility.yul\":18196:18215   */\n      lt\n        /* \"#utility.yul\":18193:18372   */\n      iszero\n      tag_405\n      jumpi\n        /* \"#utility.yul\":18266:18275   */\n      dup5\n        /* \"#utility.yul\":18261:18264   */\n      dup10\n        /* \"#utility.yul\":18257:18276   */\n      add\n        /* \"#utility.yul\":18251:18277   */\n      mload\n        /* \"#utility.yul\":18309:18357   */\n      tag_406\n        /* \"#utility.yul\":18351:18355   */\n      0x1f\n        /* \"#utility.yul\":18343:18349   */\n      dup10\n        /* \"#utility.yul\":18339:18356   */\n      and\n        /* \"#utility.yul\":18328:18337   */\n      dup3\n        /* \"#utility.yul\":18309:18357   */\n      tag_210\n      jump\t// in\n    tag_406:\n        /* \"#utility.yul\":18301:18307   */\n      dup4\n        /* \"#utility.yul\":18294:18358   */\n      sstore\n        /* \"#utility.yul\":18216:18372   */\n      pop\n        /* \"#utility.yul\":18193:18372   */\n    tag_405:\n        /* \"#utility.yul\":18418:18419   */\n      0x01\n        /* \"#utility.yul\":18414:18415   */\n      0x02\n        /* \"#utility.yul\":18406:18412   */\n      dup9\n        /* \"#utility.yul\":18402:18416   */\n      mul\n        /* \"#utility.yul\":18398:18420   */\n      add\n        /* \"#utility.yul\":18392:18396   */\n      dup9\n        /* \"#utility.yul\":18385:18421   */\n      sstore\n        /* \"#utility.yul\":17820:18431   */\n      pop\n      pop\n      pop\n        /* \"#utility.yul\":17783:18670   */\n    tag_397:\n      pop\n        /* \"#utility.yul\":17373:18676   */\n      pop\n      pop\n      pop\n        /* \"#utility.yul\":17281:18676   */\n      pop\n      pop\n      jump\t// out\n        /* \"#utility.yul\":18682:18860   */\n    tag_212:\n        /* \"#utility.yul\":18822:18852   */\n      0x43617465676f727920636f6e7461696e7320666f6f64206974656d7300000000\n        /* \"#utility.yul\":18818:18819   */\n      0x00\n        /* \"#utility.yul\":18810:18816   */\n      dup3\n        /* \"#utility.yul\":18806:18820   */\n      add\n        /* \"#utility.yul\":18799:18853   */\n      mstore\n        /* \"#utility.yul\":18682:18860   */\n      pop\n      jump\t// out\n        /* \"#utility.yul\":18866:19232   */\n    tag_213:\n        /* \"#utility.yul\":19008:19011   */\n      0x00\n        /* \"#utility.yul\":19029:19096   */\n      tag_409\n        /* \"#utility.yul\":19093:19095   */\n      0x1c\n        /* \"#utility.yul\":19088:19091   */\n      dup4\n        /* \"#utility.yul\":19029:19096   */\n      tag_179\n      jump\t// in\n    tag_409:\n        /* \"#utility.yul\":19022:19096   */\n      swap2\n      pop\n        /* \"#utility.yul\":19105:19198   */\n      tag_410\n        /* \"#utility.yul\":19194:19197   */\n      dup3\n        /* \"#utility.yul\":19105:19198   */\n      tag_212\n      jump\t// in\n    tag_410:\n        /* \"#utility.yul\":19223:19225   */\n      0x20\n        /* \"#utility.yul\":19218:19221   */\n      dup3\n        /* \"#utility.yul\":19214:19226   */\n      add\n        /* \"#utility.yul\":19207:19226   */\n      swap1\n      pop\n        /* \"#utility.yul\":18866:19232   */\n      swap2\n      swap1\n      pop\n      jump\t// out\n        /* \"#utility.yul\":19238:19657   */\n    tag_74:\n        /* \"#utility.yul\":19404:19408   */\n      0x00\n        /* \"#utility.yul\":19442:19444   */\n      0x20\n        /* \"#utility.yul\":19431:19440   */\n      dup3\n        /* \"#utility.yul\":19427:19445   */\n      add\n        /* \"#utility.yul\":19419:19445   */\n      swap1\n      pop\n        /* \"#utility.yul\":19491:19500   */\n      dup2\n        /* \"#utility.yul\":19485:19489   */\n      dup2\n        /* \"#utility.yul\":19481:19501   */\n      sub\n        /* \"#utility.yul\":19477:19478   */\n      0x00\n        /* \"#utility.yul\":19466:19475   */\n      dup4\n        /* \"#utility.yul\":19462:19479   */\n      add\n        /* \"#utility.yul\":19455:19502   */\n      mstore\n        /* \"#utility.yul\":19519:19650   */\n      tag_412\n        /* \"#utility.yul\":19645:19649   */\n      dup2\n        /* \"#utility.yul\":19519:19650   */\n      tag_213\n      jump\t// in\n    tag_412:\n        /* \"#utility.yul\":19511:19650   */\n      swap1\n      pop\n        /* \"#utility.yul\":19238:19657   */\n      swap2\n      swap1\n      pop\n      jump\t// out\n        /* \"#utility.yul\":19663:19843   */\n    tag_82:\n        /* \"#utility.yul\":19711:19788   */\n      0x4e487b7100000000000000000000000000000000000000000000000000000000\n        /* \"#utility.yul\":19708:19709   */\n      0x00\n        /* \"#utility.yul\":19701:19789   */\n      mstore\n        /* \"#utility.yul\":19808:19812   */\n      0x32\n        /* \"#utility.yul\":19805:19806   */\n      0x04\n        /* \"#utility.yul\":19798:19813   */\n      mstore\n        /* \"#utility.yul\":19832:19836   */\n      0x24\n        /* \"#utility.yul\":19829:19830   */\n      0x00\n        /* \"#utility.yul\":19822:19837   */\n      revert\n        /* \"#utility.yul\":19849:20029   */\n    tag_214:\n        /* \"#utility.yul\":19897:19974   */\n      0x4e487b7100000000000000000000000000000000000000000000000000000000\n        /* \"#utility.yul\":19894:19895   */\n      0x00\n        /* \"#utility.yul\":19887:19975   */\n      mstore\n        /* \"#utility.yul\":19994:19998   */\n      0x11\n        /* \"#utility.yul\":19991:19992   */\n      0x04\n        /* \"#utility.yul\":19984:19999   */\n      mstore\n        /* \"#utility.yul\":20018:20022   */\n      0x24\n        /* \"#utility.yul\":20015:20016   */\n      0x00\n        /* \"#utility.yul\":20008:20023   */\n      revert\n        /* \"#utility.yul\":20035:20229   */\n    tag_86:\n        /* \"#utility.yul\":20075:20079   */\n      0x00\n        /* \"#utility.yul\":20095:20115   */\n      tag_416\n        /* \"#utility.yul\":20113:20114   */\n      dup3\n        /* \"#utility.yul\":20095:20115   */\n      tag_165\n      jump\t// in\n    tag_416:\n        /* \"#utility.yul\":20090:20115   */\n      swap2\n      pop\n        /* \"#utility.yul\":20129:20149   */\n      tag_417\n        /* \"#utility.yul\":20147:20148   */\n      dup4\n        /* \"#utility.yul\":20129:20149   */\n      tag_165\n      jump\t// in\n    tag_417:\n        /* \"#utility.yul\":20124:20149   */\n      swap3\n      pop\n        /* \"#utility.yul\":20173:20174   */\n      dup3\n        /* \"#utility.yul\":20170:20171   */\n      dup3\n        /* \"#utility.yul\":20166:20175   */\n      sub\n        /* \"#utility.yul\":20158:20175   */\n      swap1\n      pop\n        /* \"#utility.yul\":20197:20198   */\n      dup2\n        /* \"#utility.yul\":20191:20195   */\n      dup2\n        /* \"#utility.yul\":20188:20199   */\n      gt\n        /* \"#utility.yul\":20185:20222   */\n      iszero\n      tag_418\n      jumpi\n        /* \"#utility.yul\":20202:20220   */\n      tag_419\n      tag_214\n      jump\t// in\n    tag_419:\n        /* \"#utility.yul\":20185:20222   */\n    tag_418:\n        /* \"#utility.yul\":20035:20229   */\n      swap3\n      swap2\n      pop\n      pop\n      jump\t// out\n        /* \"#utility.yul\":20235:20415   */\n    tag_95:\n        /* \"#utility.yul\":20283:20360   */\n      0x4e487b7100000000000000000000000000000000000000000000000000000000\n        /* \"#utility.yul\":20280:20281   */\n      0x00\n        /* \"#utility.yul\":20273:20361   */\n      mstore\n        /* \"#utility.yul\":20380:20384   */\n      0x31\n        /* \"#utility.yul\":20377:20378   */\n      0x04\n        /* \"#utility.yul\":20370:20385   */\n      mstore\n        /* \"#utility.yul\":20404:20408   */\n      0x24\n        /* \"#utility.yul\":20401:20402   */\n      0x00\n        /* \"#utility.yul\":20394:20409   */\n      revert\n        /* \"#utility.yul\":20421:20517   */\n    tag_215:\n        /* \"#utility.yul\":20458:20465   */\n      0x00\n        /* \"#utility.yul\":20487:20511   */\n      tag_422\n        /* \"#utility.yul\":20505:20510   */\n      dup3\n        /* \"#utility.yul\":20487:20511   */\n      tag_156\n      jump\t// in\n    tag_422:\n        /* \"#utility.yul\":20476:20511   */\n      swap1\n      pop\n        /* \"#utility.yul\":20421:20517   */\n      swap2\n      swap1\n      pop\n      jump\t// out\n        /* \"#utility.yul\":20523:20641   */\n    tag_216:\n        /* \"#utility.yul\":20610:20634   */\n      tag_424\n        /* \"#utility.yul\":20628:20633   */\n      dup2\n        /* \"#utility.yul\":20610:20634   */\n      tag_215\n      jump\t// in\n    tag_424:\n        /* \"#utility.yul\":20605:20608   */\n      dup3\n        /* \"#utility.yul\":20598:20635   */\n      mstore\n        /* \"#utility.yul\":20523:20641   */\n      pop\n      pop\n      jump\t// out\n        /* \"#utility.yul\":20647:20869   */\n    tag_132:\n        /* \"#utility.yul\":20740:20744   */\n      0x00\n        /* \"#utility.yul\":20778:20780   */\n      0x20\n        /* \"#utility.yul\":20767:20776   */\n      dup3\n        /* \"#utility.yul\":20763:20781   */\n      add\n        /* \"#utility.yul\":20755:20781   */\n      swap1\n      pop\n        /* \"#utility.yul\":20791:20862   */\n      tag_426\n        /* \"#utility.yul\":20859:20860   */\n      0x00\n        /* \"#utility.yul\":20848:20857   */\n      dup4\n        /* \"#utility.yul\":20844:20861   */\n      add\n        /* \"#utility.yul\":20835:20841   */\n      dup5\n        /* \"#utility.yul\":20791:20862   */\n      tag_216\n      jump\t// in\n    tag_426:\n        /* \"#utility.yul\":20647:20869   */\n      swap3\n      swap2\n      pop\n      pop\n      jump\t// out\n        /* \"#utility.yul\":20875:20965   */\n    tag_217:\n        /* \"#utility.yul\":20909:20916   */\n      0x00\n        /* \"#utility.yul\":20952:20957   */\n      dup2\n        /* \"#utility.yul\":20945:20958   */\n      iszero\n        /* \"#utility.yul\":20938:20959   */\n      iszero\n        /* \"#utility.yul\":20927:20959   */\n      swap1\n      pop\n        /* \"#utility.yul\":20875:20965   */\n      swap2\n      swap1\n      pop\n      jump\t// out\n        /* \"#utility.yul\":20971:21087   */\n    tag_218:\n        /* \"#utility.yul\":21041:21062   */\n      tag_429\n        /* \"#utility.yul\":21056:21061   */\n      dup2\n        /* \"#utility.yul\":21041:21062   */\n      tag_217\n      jump\t// in\n    tag_429:\n        /* \"#utility.yul\":21034:21039   */\n      dup2\n        /* \"#utility.yul\":21031:21063   */\n      eq\n        /* \"#utility.yul\":21021:21081   */\n      tag_430\n      jumpi\n        /* \"#utility.yul\":21077:21078   */\n      0x00\n        /* \"#utility.yul\":21074:21075   */\n      0x00\n        /* \"#utility.yul\":21067:21079   */\n      revert\n        /* \"#utility.yul\":21021:21081   */\n    tag_430:\n        /* \"#utility.yul\":20971:21087   */\n      pop\n      jump\t// out\n        /* \"#utility.yul\":21093:21230   */\n    tag_219:\n        /* \"#utility.yul\":21147:21152   */\n      0x00\n        /* \"#utility.yul\":21178:21184   */\n      dup2\n        /* \"#utility.yul\":21172:21185   */\n      mload\n        /* \"#utility.yul\":21163:21185   */\n      swap1\n      pop\n        /* \"#utility.yul\":21194:21224   */\n      tag_432\n        /* \"#utility.yul\":21218:21223   */\n      dup2\n        /* \"#utility.yul\":21194:21224   */\n      tag_218\n      jump\t// in\n    tag_432:\n        /* \"#utility.yul\":21093:21230   */\n      swap3\n      swap2\n      pop\n      pop\n      jump\t// out\n        /* \"#utility.yul\":21236:21581   */\n    tag_136:\n        /* \"#utility.yul\":21303:21309   */\n      0x00\n        /* \"#utility.yul\":21352:21354   */\n      0x20\n        /* \"#utility.yul\":21340:21349   */\n      dup3\n        /* \"#utility.yul\":21331:21338   */\n      dup5\n        /* \"#utility.yul\":21327:21350   */\n      sub\n        /* \"#utility.yul\":21323:21355   */\n      slt\n        /* \"#utility.yul\":21320:21439   */\n      iszero\n      tag_434\n      jumpi\n        /* \"#utility.yul\":21358:21437   */\n      tag_435\n      tag_163\n      jump\t// in\n    tag_435:\n        /* \"#utility.yul\":21320:21439   */\n    tag_434:\n        /* \"#utility.yul\":21478:21479   */\n      0x00\n        /* \"#utility.yul\":21503:21564   */\n      tag_436\n        /* \"#utility.yul\":21556:21563   */\n      dup5\n        /* \"#utility.yul\":21547:21553   */\n      dup3\n        /* \"#utility.yul\":21536:21545   */\n      dup6\n        /* \"#utility.yul\":21532:21554   */\n      add\n        /* \"#utility.yul\":21503:21564   */\n      tag_219\n      jump\t// in\n    tag_436:\n        /* \"#utility.yul\":21493:21564   */\n      swap2\n      pop\n        /* \"#utility.yul\":21449:21574   */\n      pop\n        /* \"#utility.yul\":21236:21581   */\n      swap3\n      swap2\n      pop\n      pop\n      jump\t// out\n        /* \"#utility.yul\":21587:21754   */\n    tag_220:\n        /* \"#utility.yul\":21727:21746   */\n      0x596f7520617265206e6f742061646d696e000000000000000000000000000000\n        /* \"#utility.yul\":21723:21724   */\n      0x00\n        /* \"#utility.yul\":21715:21721   */\n      dup3\n        /* \"#utility.yul\":21711:21725   */\n      add\n        /* \"#utility.yul\":21704:21747   */\n      mstore\n        /* \"#utility.yul\":21587:21754   */\n      pop\n      jump\t// out\n        /* \"#utility.yul\":21760:22126   */\n    tag_221:\n        /* \"#utility.yul\":21902:21905   */\n      0x00\n        /* \"#utility.yul\":21923:21990   */\n      tag_439\n        /* \"#utility.yul\":21987:21989   */\n      0x11\n        /* \"#utility.yul\":21982:21985   */\n      dup4\n        /* \"#utility.yul\":21923:21990   */\n      tag_179\n      jump\t// in\n    tag_439:\n        /* \"#utility.yul\":21916:21990   */\n      swap2\n      pop\n        /* \"#utility.yul\":21999:22092   */\n      tag_440\n        /* \"#utility.yul\":22088:22091   */\n      dup3\n        /* \"#utility.yul\":21999:22092   */\n      tag_220\n      jump\t// in\n    tag_440:\n        /* \"#utility.yul\":22117:22119   */\n      0x20\n        /* \"#utility.yul\":22112:22115   */\n      dup3\n        /* \"#utility.yul\":22108:22120   */\n      add\n        /* \"#utility.yul\":22101:22120   */\n      swap1\n      pop\n        /* \"#utility.yul\":21760:22126   */\n      swap2\n      swap1\n      pop\n      jump\t// out\n        /* \"#utility.yul\":22132:22551   */\n    tag_139:\n        /* \"#utility.yul\":22298:22302   */\n      0x00\n        /* \"#utility.yul\":22336:22338   */\n      0x20\n        /* \"#utility.yul\":22325:22334   */\n      dup3\n        /* \"#utility.yul\":22321:22339   */\n      add\n        /* \"#utility.yul\":22313:22339   */\n      swap1\n      pop\n        /* \"#utility.yul\":22385:22394   */\n      dup2\n        /* \"#utility.yul\":22379:22383   */\n      dup2\n        /* \"#utility.yul\":22375:22395   */\n      sub\n        /* \"#utility.yul\":22371:22372   */\n      0x00\n        /* \"#utility.yul\":22360:22369   */\n      dup4\n        /* \"#utility.yul\":22356:22373   */\n      add\n        /* \"#utility.yul\":22349:22396   */\n      mstore\n        /* \"#utility.yul\":22413:22544   */\n      tag_442\n        /* \"#utility.yul\":22539:22543   */\n      dup2\n        /* \"#utility.yul\":22413:22544   */\n      tag_221\n      jump\t// in\n    tag_442:\n        /* \"#utility.yul\":22405:22544   */\n      swap1\n      pop\n        /* \"#utility.yul\":22132:22551   */\n      swap2\n      swap1\n      pop\n      jump\t// out\n        /* \"#utility.yul\":22557:22733   */\n    tag_222:\n        /* \"#utility.yul\":22697:22725   */\n      0x43617465676f727920494420616c726561647920657869737473000000000000\n        /* \"#utility.yul\":22693:22694   */\n      0x00\n        /* \"#utility.yul\":22685:22691   */\n      dup3\n        /* \"#utility.yul\":22681:22695   */\n      add\n        /* \"#utility.yul\":22674:22726   */\n      mstore\n        /* \"#utility.yul\":22557:22733   */\n      pop\n      jump\t// out\n        /* \"#utility.yul\":22739:23105   */\n    tag_223:\n        /* \"#utility.yul\":22881:22884   */\n      0x00\n        /* \"#utility.yul\":22902:22969   */\n      tag_445\n        /* \"#utility.yul\":22966:22968   */\n      0x1a\n        /* \"#utility.yul\":22961:22964   */\n      dup4\n        /* \"#utility.yul\":22902:22969   */\n      tag_179\n      jump\t// in\n    tag_445:\n        /* \"#utility.yul\":22895:22969   */\n      swap2\n      pop\n        /* \"#utility.yul\":22978:23071   */\n      tag_446\n        /* \"#utility.yul\":23067:23070   */\n      dup3\n        /* \"#utility.yul\":22978:23071   */\n      tag_222\n      jump\t// in\n    tag_446:\n        /* \"#utility.yul\":23096:23098   */\n      0x20\n        /* \"#utility.yul\":23091:23094   */\n      dup3\n        /* \"#utility.yul\":23087:23099   */\n      add\n        /* \"#utility.yul\":23080:23099   */\n      swap1\n      pop\n        /* \"#utility.yul\":22739:23105   */\n      swap2\n      swap1\n      pop\n      jump\t// out\n        /* \"#utility.yul\":23111:23530   */\n    tag_145:\n        /* \"#utility.yul\":23277:23281   */\n      0x00\n        /* \"#utility.yul\":23315:23317   */\n      0x20\n        /* \"#utility.yul\":23304:23313   */\n      dup3\n        /* \"#utility.yul\":23300:23318   */\n      add\n        /* \"#utility.yul\":23292:23318   */\n      swap1\n      pop\n        /* \"#utility.yul\":23364:23373   */\n      dup2\n        /* \"#utility.yul\":23358:23362   */\n      dup2\n        /* \"#utility.yul\":23354:23374   */\n      sub\n        /* \"#utility.yul\":23350:23351   */\n      0x00\n        /* \"#utility.yul\":23339:23348   */\n      dup4\n        /* \"#utility.yul\":23335:23352   */\n      add\n        /* \"#utility.yul\":23328:23375   */\n      mstore\n        /* \"#utility.yul\":23392:23523   */\n      tag_448\n        /* \"#utility.yul\":23518:23522   */\n      dup2\n        /* \"#utility.yul\":23392:23523   */\n      tag_223\n      jump\t// in\n    tag_448:\n        /* \"#utility.yul\":23384:23523   */\n      swap1\n      pop\n        /* \"#utility.yul\":23111:23530   */\n      swap2\n      swap1\n      pop\n      jump\t// out\n\n    auxdata: 0xa2646970667358221220148b5c71322632f0ba737490f5a9ecb2e72af07f24e0d6b04dd4dce6df7294c164736f6c634300081e0033\n}\n",
				"bytecode": {
					"linkReferences": {},
					"object": "608060405234801561000f575f5ffd5b5060405161178e38038061178e833981810160405281019061003191906100d4565b805f5f6101000a81548173ffffffffffffffffffffffffffffffffffffffff021916908373ffffffffffffffffffffffffffffffffffffffff160217905550506100ff565b5f5ffd5b5f73ffffffffffffffffffffffffffffffffffffffff82169050919050565b5f6100a38261007a565b9050919050565b6100b381610099565b81146100bd575f5ffd5b50565b5f815190506100ce816100aa565b92915050565b5f602082840312156100e9576100e8610076565b5b5f6100f6848285016100c0565b91505092915050565b6116828061010c5f395ff3fe608060405234801561000f575f5ffd5b5060043610610091575f3560e01c8063ceca737f11610064578063ceca737f1461011c578063dadd0a5714610138578063f1044f0d14610156578063f3052d2614610186578063f7868a52146101b657610091565b806342f54b89146100955780635f8069cc146100b357806378697e5b146100cf578063c6cdbe5e146100eb575b5f5ffd5b61009d6101d2565b6040516100aa9190610b56565b60405180910390f35b6100cd60048036038101906100c89190610bb3565b6101f6565b005b6100e960048036038101906100e49190610d2d565b61022f565b005b61010560048036038101906101009190610d87565b610326565b604051610113929190610e21565b60405180910390f35b61013660048036038101906101319190610d87565b6103cc565b005b610140610595565b60405161014d9190610f9b565b60405180910390f35b610170600480360381019061016b9190610bb3565b610709565b60405161017d9190610fbb565b60405180910390f35b6101a0600480360381019061019b9190610d87565b610734565b6040516101ad919061100e565b60405180910390f35b6101d060048036038101906101cb9190610d2d565b61084d565b005b5f5f9054906101000a900473ffffffffffffffffffffffffffffffffffffffff1681565b60035f8381526020019081526020015f2081908060018154018082558091505060019003905f5260205f20015f90919091909150555050565b5f815111610272576040517f08c379a000000000000000000000000000000000000000000000000000000000815260040161026990611078565b60405180910390fd5b5f60015f8481526020019081526020015f205f0154036102c7576040517f08c379a00000000000000000000000000000000000000000000000000000000081526004016102be906110e0565b60405180910390fd5b8060015f8481526020019081526020015f2060010190816102e891906112f2565b507f5bdd46fc25129a7ae160f84298da28664e8970f8874a02f19537b0313d8f8dc7828260405161031a929190610e21565b60405180910390a15050565b6001602052805f5260405f205f91509050805f01549080600101805461034b9061112b565b80601f01602080910402602001604051908101604052809291908181526020018280546103779061112b565b80156103c25780601f10610399576101008083540402835291602001916103c2565b820191905f5260205f20905b8154815290600101906020018083116103a557829003601f168201915b5050505050905082565b5f60015f8381526020019081526020015f205f015403610421576040517f08c379a0000000000000000000000000000000000000000000000000000000008152600401610418906110e0565b60405180910390fd5b5f60035f8381526020019081526020015f208054905003610477576040517f08c379a000000000000000000000000000000000000000000000000000000000815260040161046e9061140b565b60405180910390fd5b60015f8281526020019081526020015f205f5f82015f9055600182015f61049e9190610a6b565b50505f5f90505b60028054905081101561055a5781600282815481106104c7576104c6611429565b5b905f5260205f2001540361054d57600260016002805490506104e99190611483565b815481106104fa576104f9611429565b5b905f5260205f2001546002828154811061051757610516611429565b5b905f5260205f2001819055506002805480610535576105346114b6565b5b600190038181905f5260205f20015f9055905561055a565b80806001019150506104a5565b507f510c8243d59e6c99aa1a4cf786d70d3e2e425109eb3870cc957ccb326a11ea978160405161058a9190610fbb565b60405180910390a150565b60605f60028054905067ffffffffffffffff8111156105b7576105b6610c09565b5b6040519080825280602002602001820160405280156105f057816020015b6105dd610aa8565b8152602001906001900390816105d55790505b5090505f5f90505b6002805490508110156107015760015f6002838154811061061c5761061b611429565b5b905f5260205f20015481526020019081526020015f206040518060400160405290815f82015481526020016001820180546106569061112b565b80601f01602080910402602001604051908101604052809291908181526020018280546106829061112b565b80156106cd5780601f106106a4576101008083540402835291602001916106cd565b820191905f5260205f20905b8154815290600101906020018083116106b057829003601f168201915b5050505050815250508282815181106106e9576106e8611429565b5b602002602001018190525080806001019150506105f8565b508091505090565b6003602052815f5260405f208181548110610722575f80fd5b905f5260205f20015f91509150505481565b61073c610aa8565b5f60015f8481526020019081526020015f205f015403610791576040517f08c379a0000000000000000000000000000000000000000000000000000000008152600401610788906110e0565b60405180910390fd5b60015f8381526020019081526020015f206040518060400160405290815f82015481526020016001820180546107c69061112b565b80601f01602080910402602001604051908101604052809291908181526020018280546107f29061112b565b801561083d5780601f106108145761010080835404028352916020019161083d565b820191905f5260205f20905b81548152906001019060200180831161082057829003601f168201915b5050505050815250509050919050565b5f5f9054906101000a900473ffffffffffffffffffffffffffffffffffffffff1673ffffffffffffffffffffffffffffffffffffffff166324d7806c336040518263ffffffff1660e01b81526004016108a69190611503565b602060405180830381865afa1580156108c1573d5f5f3e3d5ffd5b505050506040513d601f19601f820116820180604052508101906108e59190611551565b610924576040517f08c379a000000000000000000000000000000000000000000000000000000000815260040161091b906115c6565b60405180910390fd5b5f815111610967576040517f08c379a000000000000000000000000000000000000000000000000000000000815260040161095e90611078565b60405180910390fd5b5f60015f8481526020019081526020015f205f0154146109bc576040517f08c379a00000000000000000000000000000000000000000000000000000000081526004016109b39061162e565b60405180910390fd5b5f60405180604001604052808481526020018381525090508060015f8581526020019081526020015f205f820151815f01556020820151816001019081610a0391906112f2565b50905050600283908060018154018082558091505060019003905f5260205f20015f90919091909150557f11c167cc9b439f0ad8bec5588159f1b06b813bc38d50c867a41b23b077be2c1a8383604051610a5e929190610e21565b60405180910390a1505050565b508054610a779061112b565b5f825580601f10610a885750610aa5565b601f0160209004905f5260205f2090810190610aa49190610ac1565b5b50565b60405180604001604052805f8152602001606081525090565b5b80821115610ad8575f815f905550600101610ac2565b5090565b5f73ffffffffffffffffffffffffffffffffffffffff82169050919050565b5f819050919050565b5f610b1e610b19610b1484610adc565b610afb565b610adc565b9050919050565b5f610b2f82610b04565b9050919050565b5f610b4082610b25565b9050919050565b610b5081610b36565b82525050565b5f602082019050610b695f830184610b47565b92915050565b5f604051905090565b5f5ffd5b5f5ffd5b5f819050919050565b610b9281610b80565b8114610b9c575f5ffd5b50565b5f81359050610bad81610b89565b92915050565b5f5f60408385031215610bc957610bc8610b78565b5b5f610bd685828601610b9f565b9250506020610be785828601610b9f565b9150509250929050565b5f5ffd5b5f5ffd5b5f601f19601f8301169050919050565b7f4e487b71000000000000000000000000000000000000000000000000000000005f52604160045260245ffd5b610c3f82610bf9565b810181811067ffffffffffffffff82111715610c5e57610c5d610c09565b5b80604052505050565b5f610c70610b6f565b9050610c7c8282610c36565b919050565b5f67ffffffffffffffff821115610c9b57610c9a610c09565b5b610ca482610bf9565b9050602081019050919050565b828183375f83830152505050565b5f610cd1610ccc84610c81565b610c67565b905082815260208101848484011115610ced57610cec610bf5565b5b610cf8848285610cb1565b509392505050565b5f82601f830112610d1457610d13610bf1565b5b8135610d24848260208601610cbf565b91505092915050565b5f5f60408385031215610d4357610d42610b78565b5b5f610d5085828601610b9f565b925050602083013567ffffffffffffffff811115610d7157610d70610b7c565b5b610d7d85828601610d00565b9150509250929050565b5f60208284031215610d9c57610d9b610b78565b5b5f610da984828501610b9f565b91505092915050565b610dbb81610b80565b82525050565b5f81519050919050565b5f82825260208201905092915050565b8281835e5f83830152505050565b5f610df382610dc1565b610dfd8185610dcb565b9350610e0d818560208601610ddb565b610e1681610bf9565b840191505092915050565b5f604082019050610e345f830185610db2565b8181036020830152610e468184610de9565b90509392505050565b5f81519050919050565b5f82825260208201905092915050565b5f819050602082019050919050565b610e8181610b80565b82525050565b5f82825260208201905092915050565b5f610ea182610dc1565b610eab8185610e87565b9350610ebb818560208601610ddb565b610ec481610bf9565b840191505092915050565b5f604083015f830151610ee45f860182610e78565b5060208301518482036020860152610efc8282610e97565b9150508091505092915050565b5f610f148383610ecf565b905092915050565b5f602082019050919050565b5f610f3282610e4f565b610f3c8185610e59565b935083602082028501610f4e85610e69565b805f5b85811015610f895784840389528151610f6a8582610f09565b9450610f7583610f1c565b925060208a01995050600181019050610f51565b50829750879550505050505092915050565b5f6020820190508181035f830152610fb38184610f28565b905092915050565b5f602082019050610fce5f830184610db2565b92915050565b5f604083015f830151610fe95f860182610e78565b50602083015184820360208601526110018282610e97565b9150508091505092915050565b5f6020820190508181035f8301526110268184610fd4565b905092915050565b7f43617465676f7279206e616d652063616e6e6f7420626520656d7074790000005f82015250565b5f611062601d83610dcb565b915061106d8261102e565b602082019050919050565b5f6020820190508181035f83015261108f81611056565b9050919050565b7f43617465676f727920646f6573206e6f742065786973740000000000000000005f82015250565b5f6110ca601783610dcb565b91506110d582611096565b602082019050919050565b5f6020820190508181035f8301526110f7816110be565b9050919050565b7f4e487b71000000000000000000000000000000000000000000000000000000005f52602260045260245ffd5b5f600282049050600182168061114257607f821691505b602082108103611155576111546110fe565b5b50919050565b5f819050815f5260205f209050919050565b5f6020601f8301049050919050565b5f82821b905092915050565b5f600883026111b77fffffffffffffffffffffffffffffffffffffffffffffffffffffffffffffffff8261117c565b6111c1868361117c565b95508019841693508086168417925050509392505050565b5f6111f36111ee6111e984610b80565b610afb565b610b80565b9050919050565b5f819050919050565b61120c836111d9565b611220611218826111fa565b848454611188565b825550505050565b5f5f905090565b611237611228565b611242818484611203565b505050565b5b818110156112655761125a5f8261122f565b600181019050611248565b5050565b601f8211156112aa5761127b8161115b565b6112848461116d565b81016020851015611293578190505b6112a761129f8561116d565b830182611247565b50505b505050565b5f82821c905092915050565b5f6112ca5f19846008026112af565b1980831691505092915050565b5f6112e283836112bb565b9150826002028217905092915050565b6112fb82610dc1565b67ffffffffffffffff81111561131457611313610c09565b5b61131e825461112b565b611329828285611269565b5f60209050601f83116001811461135a575f8415611348578287015190505b61135285826112d7565b8655506113b9565b601f1984166113688661115b565b5f5b8281101561138f5784890151825560018201915060208501945060208101905061136a565b868310156113ac57848901516113a8601f8916826112bb565b8355505b6001600288020188555050505b505050505050565b7f43617465676f727920636f6e7461696e7320666f6f64206974656d73000000005f82015250565b5f6113f5601c83610dcb565b9150611400826113c1565b602082019050919050565b5f6020820190508181035f830152611422816113e9565b9050919050565b7f4e487b71000000000000000000000000000000000000000000000000000000005f52603260045260245ffd5b7f4e487b71000000000000000000000000000000000000000000000000000000005f52601160045260245ffd5b5f61148d82610b80565b915061149883610b80565b92508282039050818111156114b0576114af611456565b5b92915050565b7f4e487b71000000000000000000000000000000000000000000000000000000005f52603160045260245ffd5b5f6114ed82610adc565b9050919050565b6114fd816114e3565b82525050565b5f6020820190506115165f8301846114f4565b92915050565b5f8115159050919050565b6115308161151c565b811461153a575f5ffd5b50565b5f8151905061154b81611527565b92915050565b5f6020828403121561156657611565610b78565b5b5f6115738482850161153d565b91505092915050565b7f596f7520617265206e6f742061646d696e0000000000000000000000000000005f82015250565b5f6115b0601183610dcb565b91506115bb8261157c565b602082019050919050565b5f6020820190508181035f8301526115dd816115a4565b9050919050565b7f43617465676f727920494420616c7265616479206578697374730000000000005f82015250565b5f611618601a83610dcb565b9150611623826115e4565b602082019050919050565b5f6020820190508181035f8301526116458161160c565b905091905056fea2646970667358221220148b5c71322632f0ba737490f5a9ecb2e72af07f24e0d6b04dd4dce6df7294c164736f6c634300081e0033",
					"opcodes": "PUSH1 0x80 PUSH1 0x40 MSTORE CALLVALUE DUP1 ISZERO PUSH2 0xF JUMPI PUSH0 PUSH0 REVERT JUMPDEST POP PUSH1 0x40 MLOAD PUSH2 0x178E CODESIZE SUB DUP1 PUSH2 0x178E DUP4 CODECOPY DUP2 DUP2 ADD PUSH1 0x40 MSTORE DUP2 ADD SWAP1 PUSH2 0x31 SWAP2 SWAP1 PUSH2 0xD4 JUMP JUMPDEST DUP1 PUSH0 PUSH0 PUSH2 0x100 EXP DUP2 SLOAD DUP2 PUSH20 0xFFFFFFFFFFFFFFFFFFFFFFFFFFFFFFFFFFFFFFFF MUL NOT AND SWAP1 DUP4 PUSH20 0xFFFFFFFFFFFFFFFFFFFFFFFFFFFFFFFFFFFFFFFF AND MUL OR SWAP1 SSTORE POP POP PUSH2 0xFF JUMP JUMPDEST PUSH0 PUSH0 REVERT JUMPDEST PUSH0 PUSH20 0xFFFFFFFFFFFFFFFFFFFFFFFFFFFFFFFFFFFFFFFF DUP3 AND SWAP1 POP SWAP2 SWAP1 POP JUMP JUMPDEST PUSH0 PUSH2 0xA3 DUP3 PUSH2 0x7A JUMP JUMPDEST SWAP1 POP SWAP2 SWAP1 POP JUMP JUMPDEST PUSH2 0xB3 DUP2 PUSH2 0x99 JUMP JUMPDEST DUP2 EQ PUSH2 0xBD JUMPI PUSH0 PUSH0 REVERT JUMPDEST POP JUMP JUMPDEST PUSH0 DUP2 MLOAD SWAP1 POP PUSH2 0xCE DUP2 PUSH2 0xAA JUMP JUMPDEST SWAP3 SWAP2 POP POP JUMP JUMPDEST PUSH0 PUSH1 0x20 DUP3 DUP5 SUB SLT ISZERO PUSH2 0xE9 JUMPI PUSH2 0xE8 PUSH2 0x76 JUMP JUMPDEST JUMPDEST PUSH0 PUSH2 0xF6 DUP5 DUP3 DUP6 ADD PUSH2 0xC0 JUMP JUMPDEST SWAP2 POP POP SWAP3 SWAP2 POP POP JUMP JUMPDEST PUSH2 0x1682 DUP1 PUSH2 0x10C PUSH0 CODECOPY PUSH0 RETURN INVALID PUSH1 0x80 PUSH1 0x40 MSTORE CALLVALUE DUP1 ISZERO PUSH2 0xF JUMPI PUSH0 PUSH0 REVERT JUMPDEST POP PUSH1 0x4 CALLDATASIZE LT PUSH2 0x91 JUMPI PUSH0 CALLDATALOAD PUSH1 0xE0 SHR DUP1 PUSH4 0xCECA737F GT PUSH2 0x64 JUMPI DUP1 PUSH4 0xCECA737F EQ PUSH2 0x11C JUMPI DUP1 PUSH4 0xDADD0A57 EQ PUSH2 0x138 JUMPI DUP1 PUSH4 0xF1044F0D EQ PUSH2 0x156 JUMPI DUP1 PUSH4 0xF3052D26 EQ PUSH2 0x186 JUMPI DUP1 PUSH4 0xF7868A52 EQ PUSH2 0x1B6 JUMPI PUSH2 0x91 JUMP JUMPDEST DUP1 PUSH4 0x42F54B89 EQ PUSH2 0x95 JUMPI DUP1 PUSH4 0x5F8069CC EQ PUSH2 0xB3 JUMPI DUP1 PUSH4 0x78697E5B EQ PUSH2 0xCF JUMPI DUP1 PUSH4 0xC6CDBE5E EQ PUSH2 0xEB JUMPI JUMPDEST PUSH0 PUSH0 REVERT JUMPDEST PUSH2 0x9D PUSH2 0x1D2 JUMP JUMPDEST PUSH1 0x40 MLOAD PUSH2 0xAA SWAP2 SWAP1 PUSH2 0xB56 JUMP JUMPDEST PUSH1 0x40 MLOAD DUP1 SWAP2 SUB SWAP1 RETURN JUMPDEST PUSH2 0xCD PUSH1 0x4 DUP1 CALLDATASIZE SUB DUP2 ADD SWAP1 PUSH2 0xC8 SWAP2 SWAP1 PUSH2 0xBB3 JUMP JUMPDEST PUSH2 0x1F6 JUMP JUMPDEST STOP JUMPDEST PUSH2 0xE9 PUSH1 0x4 DUP1 CALLDATASIZE SUB DUP2 ADD SWAP1 PUSH2 0xE4 SWAP2 SWAP1 PUSH2 0xD2D JUMP JUMPDEST PUSH2 0x22F JUMP JUMPDEST STOP JUMPDEST PUSH2 0x105 PUSH1 0x4 DUP1 CALLDATASIZE SUB DUP2 ADD SWAP1 PUSH2 0x100 SWAP2 SWAP1 PUSH2 0xD87 JUMP JUMPDEST PUSH2 0x326 JUMP JUMPDEST PUSH1 0x40 MLOAD PUSH2 0x113 SWAP3 SWAP2 SWAP1 PUSH2 0xE21 JUMP JUMPDEST PUSH1 0x40 MLOAD DUP1 SWAP2 SUB SWAP1 RETURN JUMPDEST PUSH2 0x136 PUSH1 0x4 DUP1 CALLDATASIZE SUB DUP2 ADD SWAP1 PUSH2 0x131 SWAP2 SWAP1 PUSH2 0xD87 JUMP JUMPDEST PUSH2 0x3CC JUMP JUMPDEST STOP JUMPDEST PUSH2 0x140 PUSH2 0x595 JUMP JUMPDEST PUSH1 0x40 MLOAD PUSH2 0x14D SWAP2 SWAP1 PUSH2 0xF9B JUMP JUMPDEST PUSH1 0x40 MLOAD DUP1 SWAP2 SUB SWAP1 RETURN JUMPDEST PUSH2 0x170 PUSH1 0x4 DUP1 CALLDATASIZE SUB DUP2 ADD SWAP1 PUSH2 0x16B SWAP2 SWAP1 PUSH2 0xBB3 JUMP JUMPDEST PUSH2 0x709 JUMP JUMPDEST PUSH1 0x40 MLOAD PUSH2 0x17D SWAP2 SWAP1 PUSH2 0xFBB JUMP JUMPDEST PUSH1 0x40 MLOAD DUP1 SWAP2 SUB SWAP1 RETURN JUMPDEST PUSH2 0x1A0 PUSH1 0x4 DUP1 CALLDATASIZE SUB DUP2 ADD SWAP1 PUSH2 0x19B SWAP2 SWAP1 PUSH2 0xD87 JUMP JUMPDEST PUSH2 0x734 JUMP JUMPDEST PUSH1 0x40 MLOAD PUSH2 0x1AD SWAP2 SWAP1 PUSH2 0x100E JUMP JUMPDEST PUSH1 0x40 MLOAD DUP1 SWAP2 SUB SWAP1 RETURN JUMPDEST PUSH2 0x1D0 PUSH1 0x4 DUP1 CALLDATASIZE SUB DUP2 ADD SWAP1 PUSH2 0x1CB SWAP2 SWAP1 PUSH2 0xD2D JUMP JUMPDEST PUSH2 0x84D JUMP JUMPDEST STOP JUMPDEST PUSH0 PUSH0 SWAP1 SLOAD SWAP1 PUSH2 0x100 EXP SWAP1 DIV PUSH20 0xFFFFFFFFFFFFFFFFFFFFFFFFFFFFFFFFFFFFFFFF AND DUP2 JUMP JUMPDEST PUSH1 0x3 PUSH0 DUP4 DUP2 MSTORE PUSH1 0x20 ADD SWAP1 DUP2 MSTORE PUSH1 0x20 ADD PUSH0 KECCAK256 DUP2 SWAP1 DUP1 PUSH1 0x1 DUP2 SLOAD ADD DUP1 DUP3 SSTORE DUP1 SWAP2 POP POP PUSH1 0x1 SWAP1 SUB SWAP1 PUSH0 MSTORE PUSH1 0x20 PUSH0 KECCAK256 ADD PUSH0 SWAP1 SWAP2 SWAP1 SWAP2 SWAP1 SWAP2 POP SSTORE POP POP JUMP JUMPDEST PUSH0 DUP2 MLOAD GT PUSH2 0x272 JUMPI PUSH1 0x40 MLOAD PUSH32 0x8C379A000000000000000000000000000000000000000000000000000000000 DUP2 MSTORE PUSH1 0x4 ADD PUSH2 0x269 SWAP1 PUSH2 0x1078 JUMP JUMPDEST PUSH1 0x40 MLOAD DUP1 SWAP2 SUB SWAP1 REVERT JUMPDEST PUSH0 PUSH1 0x1 PUSH0 DUP5 DUP2 MSTORE PUSH1 0x20 ADD SWAP1 DUP2 MSTORE PUSH1 0x20 ADD PUSH0 KECCAK256 PUSH0 ADD SLOAD SUB PUSH2 0x2C7 JUMPI PUSH1 0x40 MLOAD PUSH32 0x8C379A000000000000000000000000000000000000000000000000000000000 DUP2 MSTORE PUSH1 0x4 ADD PUSH2 0x2BE SWAP1 PUSH2 0x10E0 JUMP JUMPDEST PUSH1 0x40 MLOAD DUP1 SWAP2 SUB SWAP1 REVERT JUMPDEST DUP1 PUSH1 0x1 PUSH0 DUP5 DUP2 MSTORE PUSH1 0x20 ADD SWAP1 DUP2 MSTORE PUSH1 0x20 ADD PUSH0 KECCAK256 PUSH1 0x1 ADD SWAP1 DUP2 PUSH2 0x2E8 SWAP2 SWAP1 PUSH2 0x12F2 JUMP JUMPDEST POP PUSH32 0x5BDD46FC25129A7AE160F84298DA28664E8970F8874A02F19537B0313D8F8DC7 DUP3 DUP3 PUSH1 0x40 MLOAD PUSH2 0x31A SWAP3 SWAP2 SWAP1 PUSH2 0xE21 JUMP JUMPDEST PUSH1 0x40 MLOAD DUP1 SWAP2 SUB SWAP1 LOG1 POP POP JUMP JUMPDEST PUSH1 0x1 PUSH1 0x20 MSTORE DUP1 PUSH0 MSTORE PUSH1 0x40 PUSH0 KECCAK256 PUSH0 SWAP2 POP SWAP1 POP DUP1 PUSH0 ADD SLOAD SWAP1 DUP1 PUSH1 0x1 ADD DUP1 SLOAD PUSH2 0x34B SWAP1 PUSH2 0x112B JUMP JUMPDEST DUP1 PUSH1 0x1F ADD PUSH1 0x20 DUP1 SWAP2 DIV MUL PUSH1 0x20 ADD PUSH1 0x40 MLOAD SWAP1 DUP2 ADD PUSH1 0x40 MSTORE DUP1 SWAP3 SWAP2 SWAP1 DUP2 DUP2 MSTORE PUSH1 0x20 ADD DUP3 DUP1 SLOAD PUSH2 0x377 SWAP1 PUSH2 0x112B JUMP JUMPDEST DUP1 ISZERO PUSH2 0x3C2 JUMPI DUP1 PUSH1 0x1F LT PUSH2 0x399 JUMPI PUSH2 0x100 DUP1 DUP4 SLOAD DIV MUL DUP4 MSTORE SWAP2 PUSH1 0x20 ADD SWAP2 PUSH2 0x3C2 JUMP JUMPDEST DUP3 ADD SWAP2 SWAP1 PUSH0 MSTORE PUSH1 0x20 PUSH0 KECCAK256 SWAP1 JUMPDEST DUP2 SLOAD DUP2 MSTORE SWAP1 PUSH1 0x1 ADD SWAP1 PUSH1 0x20 ADD DUP1 DUP4 GT PUSH2 0x3A5 JUMPI DUP3 SWAP1 SUB PUSH1 0x1F AND DUP3 ADD SWAP2 JUMPDEST POP POP POP POP POP SWAP1 POP DUP3 JUMP JUMPDEST PUSH0 PUSH1 0x1 PUSH0 DUP4 DUP2 MSTORE PUSH1 0x20 ADD SWAP1 DUP2 MSTORE PUSH1 0x20 ADD PUSH0 KECCAK256 PUSH0 ADD SLOAD SUB PUSH2 0x421 JUMPI PUSH1 0x40 MLOAD PUSH32 0x8C379A000000000000000000000000000000000000000000000000000000000 DUP2 MSTORE PUSH1 0x4 ADD PUSH2 0x418 SWAP1 PUSH2 0x10E0 JUMP JUMPDEST PUSH1 0x40 MLOAD DUP1 SWAP2 SUB SWAP1 REVERT JUMPDEST PUSH0 PUSH1 0x3 PUSH0 DUP4 DUP2 MSTORE PUSH1 0x20 ADD SWAP1 DUP2 MSTORE PUSH1 0x20 ADD PUSH0 KECCAK256 DUP1 SLOAD SWAP1 POP SUB PUSH2 0x477 JUMPI PUSH1 0x40 MLOAD PUSH32 0x8C379A000000000000000000000000000000000000000000000000000000000 DUP2 MSTORE PUSH1 0x4 ADD PUSH2 0x46E SWAP1 PUSH2 0x140B JUMP JUMPDEST PUSH1 0x40 MLOAD DUP1 SWAP2 SUB SWAP1 REVERT JUMPDEST PUSH1 0x1 PUSH0 DUP3 DUP2 MSTORE PUSH1 0x20 ADD SWAP1 DUP2 MSTORE PUSH1 0x20 ADD PUSH0 KECCAK256 PUSH0 PUSH0 DUP3 ADD PUSH0 SWAP1 SSTORE PUSH1 0x1 DUP3 ADD PUSH0 PUSH2 0x49E SWAP2 SWAP1 PUSH2 0xA6B JUMP JUMPDEST POP POP PUSH0 PUSH0 SWAP1 POP JUMPDEST PUSH1 0x2 DUP1 SLOAD SWAP1 POP DUP2 LT ISZERO PUSH2 0x55A JUMPI DUP2 PUSH1 0x2 DUP3 DUP2 SLOAD DUP2 LT PUSH2 0x4C7 JUMPI PUSH2 0x4C6 PUSH2 0x1429 JUMP JUMPDEST JUMPDEST SWAP1 PUSH0 MSTORE PUSH1 0x20 PUSH0 KECCAK256 ADD SLOAD SUB PUSH2 0x54D JUMPI PUSH1 0x2 PUSH1 0x1 PUSH1 0x2 DUP1 SLOAD SWAP1 POP PUSH2 0x4E9 SWAP2 SWAP1 PUSH2 0x1483 JUMP JUMPDEST DUP2 SLOAD DUP2 LT PUSH2 0x4FA JUMPI PUSH2 0x4F9 PUSH2 0x1429 JUMP JUMPDEST JUMPDEST SWAP1 PUSH0 MSTORE PUSH1 0x20 PUSH0 KECCAK256 ADD SLOAD PUSH1 0x2 DUP3 DUP2 SLOAD DUP2 LT PUSH2 0x517 JUMPI PUSH2 0x516 PUSH2 0x1429 JUMP JUMPDEST JUMPDEST SWAP1 PUSH0 MSTORE PUSH1 0x20 PUSH0 KECCAK256 ADD DUP2 SWAP1 SSTORE POP PUSH1 0x2 DUP1 SLOAD DUP1 PUSH2 0x535 JUMPI PUSH2 0x534 PUSH2 0x14B6 JUMP JUMPDEST JUMPDEST PUSH1 0x1 SWAP1 SUB DUP2 DUP2 SWAP1 PUSH0 MSTORE PUSH1 0x20 PUSH0 KECCAK256 ADD PUSH0 SWAP1 SSTORE SWAP1 SSTORE PUSH2 0x55A JUMP JUMPDEST DUP1 DUP1 PUSH1 0x1 ADD SWAP2 POP POP PUSH2 0x4A5 JUMP JUMPDEST POP PUSH32 0x510C8243D59E6C99AA1A4CF786D70D3E2E425109EB3870CC957CCB326A11EA97 DUP2 PUSH1 0x40 MLOAD PUSH2 0x58A SWAP2 SWAP1 PUSH2 0xFBB JUMP JUMPDEST PUSH1 0x40 MLOAD DUP1 SWAP2 SUB SWAP1 LOG1 POP JUMP JUMPDEST PUSH1 0x60 PUSH0 PUSH1 0x2 DUP1 SLOAD SWAP1 POP PUSH8 0xFFFFFFFFFFFFFFFF DUP2 GT ISZERO PUSH2 0x5B7 JUMPI PUSH2 0x5B6 PUSH2 0xC09 JUMP JUMPDEST JUMPDEST PUSH1 0x40 MLOAD SWAP1 DUP1 DUP3 MSTORE DUP1 PUSH1 0x20 MUL PUSH1 0x20 ADD DUP3 ADD PUSH1 0x40 MSTORE DUP1 ISZERO PUSH2 0x5F0 JUMPI DUP2 PUSH1 0x20 ADD JUMPDEST PUSH2 0x5DD PUSH2 0xAA8 JUMP JUMPDEST DUP2 MSTORE PUSH1 0x20 ADD SWAP1 PUSH1 0x1 SWAP1 SUB SWAP1 DUP2 PUSH2 0x5D5 JUMPI SWAP1 POP JUMPDEST POP SWAP1 POP PUSH0 PUSH0 SWAP1 POP JUMPDEST PUSH1 0x2 DUP1 SLOAD SWAP1 POP DUP2 LT ISZERO PUSH2 0x701 JUMPI PUSH1 0x1 PUSH0 PUSH1 0x2 DUP4 DUP2 SLOAD DUP2 LT PUSH2 0x61C JUMPI PUSH2 0x61B PUSH2 0x1429 JUMP JUMPDEST JUMPDEST SWAP1 PUSH0 MSTORE PUSH1 0x20 PUSH0 KECCAK256 ADD SLOAD DUP2 MSTORE PUSH1 0x20 ADD SWAP1 DUP2 MSTORE PUSH1 0x20 ADD PUSH0 KECCAK256 PUSH1 0x40 MLOAD DUP1 PUSH1 0x40 ADD PUSH1 0x40 MSTORE SWAP1 DUP2 PUSH0 DUP3 ADD SLOAD DUP2 MSTORE PUSH1 0x20 ADD PUSH1 0x1 DUP3 ADD DUP1 SLOAD PUSH2 0x656 SWAP1 PUSH2 0x112B JUMP JUMPDEST DUP1 PUSH1 0x1F ADD PUSH1 0x20 DUP1 SWAP2 DIV MUL PUSH1 0x20 ADD PUSH1 0x40 MLOAD SWAP1 DUP2 ADD PUSH1 0x40 MSTORE DUP1 SWAP3 SWAP2 SWAP1 DUP2 DUP2 MSTORE PUSH1 0x20 ADD DUP3 DUP1 SLOAD PUSH2 0x682 SWAP1 PUSH2 0x112B JUMP JUMPDEST DUP1 ISZERO PUSH2 0x6CD JUMPI DUP1 PUSH1 0x1F LT PUSH2 0x6A4 JUMPI PUSH2 0x100 DUP1 DUP4 SLOAD DIV MUL DUP4 MSTORE SWAP2 PUSH1 0x20 ADD SWAP2 PUSH2 0x6CD JUMP JUMPDEST DUP3 ADD SWAP2 SWAP1 PUSH0 MSTORE PUSH1 0x20 PUSH0 KECCAK256 SWAP1 JUMPDEST DUP2 SLOAD DUP2 MSTORE SWAP1 PUSH1 0x1 ADD SWAP1 PUSH1 0x20 ADD DUP1 DUP4 GT PUSH2 0x6B0 JUMPI DUP3 SWAP1 SUB PUSH1 0x1F AND DUP3 ADD SWAP2 JUMPDEST POP POP POP POP POP DUP2 MSTORE POP POP DUP3 DUP3 DUP2 MLOAD DUP2 LT PUSH2 0x6E9 JUMPI PUSH2 0x6E8 PUSH2 0x1429 JUMP JUMPDEST JUMPDEST PUSH1 0x20 MUL PUSH1 0x20 ADD ADD DUP2 SWAP1 MSTORE POP DUP1 DUP1 PUSH1 0x1 ADD SWAP2 POP POP PUSH2 0x5F8 JUMP JUMPDEST POP DUP1 SWAP2 POP POP SWAP1 JUMP JUMPDEST PUSH1 0x3 PUSH1 0x20 MSTORE DUP2 PUSH0 MSTORE PUSH1 0x40 PUSH0 KECCAK256 DUP2 DUP2 SLOAD DUP2 LT PUSH2 0x722 JUMPI PUSH0 DUP1 REVERT JUMPDEST SWAP1 PUSH0 MSTORE PUSH1 0x20 PUSH0 KECCAK256 ADD PUSH0 SWAP2 POP SWAP2 POP POP SLOAD DUP2 JUMP JUMPDEST PUSH2 0x73C PUSH2 0xAA8 JUMP JUMPDEST PUSH0 PUSH1 0x1 PUSH0 DUP5 DUP2 MSTORE PUSH1 0x20 ADD SWAP1 DUP2 MSTORE PUSH1 0x20 ADD PUSH0 KECCAK256 PUSH0 ADD SLOAD SUB PUSH2 0x791 JUMPI PUSH1 0x40 MLOAD PUSH32 0x8C379A000000000000000000000000000000000000000000000000000000000 DUP2 MSTORE PUSH1 0x4 ADD PUSH2 0x788 SWAP1 PUSH2 0x10E0 JUMP JUMPDEST PUSH1 0x40 MLOAD DUP1 SWAP2 SUB SWAP1 REVERT JUMPDEST PUSH1 0x1 PUSH0 DUP4 DUP2 MSTORE PUSH1 0x20 ADD SWAP1 DUP2 MSTORE PUSH1 0x20 ADD PUSH0 KECCAK256 PUSH1 0x40 MLOAD DUP1 PUSH1 0x40 ADD PUSH1 0x40 MSTORE SWAP1 DUP2 PUSH0 DUP3 ADD SLOAD DUP2 MSTORE PUSH1 0x20 ADD PUSH1 0x1 DUP3 ADD DUP1 SLOAD PUSH2 0x7C6 SWAP1 PUSH2 0x112B JUMP JUMPDEST DUP1 PUSH1 0x1F ADD PUSH1 0x20 DUP1 SWAP2 DIV MUL PUSH1 0x20 ADD PUSH1 0x40 MLOAD SWAP1 DUP2 ADD PUSH1 0x40 MSTORE DUP1 SWAP3 SWAP2 SWAP1 DUP2 DUP2 MSTORE PUSH1 0x20 ADD DUP3 DUP1 SLOAD PUSH2 0x7F2 SWAP1 PUSH2 0x112B JUMP JUMPDEST DUP1 ISZERO PUSH2 0x83D JUMPI DUP1 PUSH1 0x1F LT PUSH2 0x814 JUMPI PUSH2 0x100 DUP1 DUP4 SLOAD DIV MUL DUP4 MSTORE SWAP2 PUSH1 0x20 ADD SWAP2 PUSH2 0x83D JUMP JUMPDEST DUP3 ADD SWAP2 SWAP1 PUSH0 MSTORE PUSH1 0x20 PUSH0 KECCAK256 SWAP1 JUMPDEST DUP2 SLOAD DUP2 MSTORE SWAP1 PUSH1 0x1 ADD SWAP1 PUSH1 0x20 ADD DUP1 DUP4 GT PUSH2 0x820 JUMPI DUP3 SWAP1 SUB PUSH1 0x1F AND DUP3 ADD SWAP2 JUMPDEST POP POP POP POP POP DUP2 MSTORE POP POP SWAP1 POP SWAP2 SWAP1 POP JUMP JUMPDEST PUSH0 PUSH0 SWAP1 SLOAD SWAP1 PUSH2 0x100 EXP SWAP1 DIV PUSH20 0xFFFFFFFFFFFFFFFFFFFFFFFFFFFFFFFFFFFFFFFF AND PUSH20 0xFFFFFFFFFFFFFFFFFFFFFFFFFFFFFFFFFFFFFFFF AND PUSH4 0x24D7806C CALLER PUSH1 0x40 MLOAD DUP3 PUSH4 0xFFFFFFFF AND PUSH1 0xE0 SHL DUP2 MSTORE PUSH1 0x4 ADD PUSH2 0x8A6 SWAP2 SWAP1 PUSH2 0x1503 JUMP JUMPDEST PUSH1 0x20 PUSH1 0x40 MLOAD DUP1 DUP4 SUB DUP2 DUP7 GAS STATICCALL ISZERO DUP1 ISZERO PUSH2 0x8C1 JUMPI RETURNDATASIZE PUSH0 PUSH0 RETURNDATACOPY RETURNDATASIZE PUSH0 REVERT JUMPDEST POP POP POP POP PUSH1 0x40 MLOAD RETURNDATASIZE PUSH1 0x1F NOT PUSH1 0x1F DUP3 ADD AND DUP3 ADD DUP1 PUSH1 0x40 MSTORE POP DUP2 ADD SWAP1 PUSH2 0x8E5 SWAP2 SWAP1 PUSH2 0x1551 JUMP JUMPDEST PUSH2 0x924 JUMPI PUSH1 0x40 MLOAD PUSH32 0x8C379A000000000000000000000000000000000000000000000000000000000 DUP2 MSTORE PUSH1 0x4 ADD PUSH2 0x91B SWAP1 PUSH2 0x15C6 JUMP JUMPDEST PUSH1 0x40 MLOAD DUP1 SWAP2 SUB SWAP1 REVERT JUMPDEST PUSH0 DUP2 MLOAD GT PUSH2 0x967 JUMPI PUSH1 0x40 MLOAD PUSH32 0x8C379A000000000000000000000000000000000000000000000000000000000 DUP2 MSTORE PUSH1 0x4 ADD PUSH2 0x95E SWAP1 PUSH2 0x1078 JUMP JUMPDEST PUSH1 0x40 MLOAD DUP1 SWAP2 SUB SWAP1 REVERT JUMPDEST PUSH0 PUSH1 0x1 PUSH0 DUP5 DUP2 MSTORE PUSH1 0x20 ADD SWAP1 DUP2 MSTORE PUSH1 0x20 ADD PUSH0 KECCAK256 PUSH0 ADD SLOAD EQ PUSH2 0x9BC JUMPI PUSH1 0x40 MLOAD PUSH32 0x8C379A000000000000000000000000000000000000000000000000000000000 DUP2 MSTORE PUSH1 0x4 ADD PUSH2 0x9B3 SWAP1 PUSH2 0x162E JUMP JUMPDEST PUSH1 0x40 MLOAD DUP1 SWAP2 SUB SWAP1 REVERT JUMPDEST PUSH0 PUSH1 0x40 MLOAD DUP1 PUSH1 0x40 ADD PUSH1 0x40 MSTORE DUP1 DUP5 DUP2 MSTORE PUSH1 0x20 ADD DUP4 DUP2 MSTORE POP SWAP1 POP DUP1 PUSH1 0x1 PUSH0 DUP6 DUP2 MSTORE PUSH1 0x20 ADD SWAP1 DUP2 MSTORE PUSH1 0x20 ADD PUSH0 KECCAK256 PUSH0 DUP3 ADD MLOAD DUP2 PUSH0 ADD SSTORE PUSH1 0x20 DUP3 ADD MLOAD DUP2 PUSH1 0x1 ADD SWAP1 DUP2 PUSH2 0xA03 SWAP2 SWAP1 PUSH2 0x12F2 JUMP JUMPDEST POP SWAP1 POP POP PUSH1 0x2 DUP4 SWAP1 DUP1 PUSH1 0x1 DUP2 SLOAD ADD DUP1 DUP3 SSTORE DUP1 SWAP2 POP POP PUSH1 0x1 SWAP1 SUB SWAP1 PUSH0 MSTORE PUSH1 0x20 PUSH0 KECCAK256 ADD PUSH0 SWAP1 SWAP2 SWAP1 SWAP2 SWAP1 SWAP2 POP SSTORE PUSH32 0x11C167CC9B439F0AD8BEC5588159F1B06B813BC38D50C867A41B23B077BE2C1A DUP4 DUP4 PUSH1 0x40 MLOAD PUSH2 0xA5E SWAP3 SWAP2 SWAP1 PUSH2 0xE21 JUMP JUMPDEST PUSH1 0x40 MLOAD DUP1 SWAP2 SUB SWAP1 LOG1 POP POP POP JUMP JUMPDEST POP DUP1 SLOAD PUSH2 0xA77 SWAP1 PUSH2 0x112B JUMP JUMPDEST PUSH0 DUP3 SSTORE DUP1 PUSH1 0x1F LT PUSH2 0xA88 JUMPI POP PUSH2 0xAA5 JUMP JUMPDEST PUSH1 0x1F ADD PUSH1 0x20 SWAP1 DIV SWAP1 PUSH0 MSTORE PUSH1 0x20 PUSH0 KECCAK256 SWAP1 DUP2 ADD SWAP1 PUSH2 0xAA4 SWAP2 SWAP1 PUSH2 0xAC1 JUMP JUMPDEST JUMPDEST POP JUMP JUMPDEST PUSH1 0x40 MLOAD DUP1 PUSH1 0x40 ADD PUSH1 0x40 MSTORE DUP1 PUSH0 DUP2 MSTORE PUSH1 0x20 ADD PUSH1 0x60 DUP2 MSTORE POP SWAP1 JUMP JUMPDEST JUMPDEST DUP1 DUP3 GT ISZERO PUSH2 0xAD8 JUMPI PUSH0 DUP2 PUSH0 SWAP1 SSTORE POP PUSH1 0x1 ADD PUSH2 0xAC2 JUMP JUMPDEST POP SWAP1 JUMP JUMPDEST PUSH0 PUSH20 0xFFFFFFFFFFFFFFFFFFFFFFFFFFFFFFFFFFFFFFFF DUP3 AND SWAP1 POP SWAP2 SWAP1 POP JUMP JUMPDEST PUSH0 DUP2 SWAP1 POP SWAP2 SWAP1 POP JUMP JUMPDEST PUSH0 PUSH2 0xB1E PUSH2 0xB19 PUSH2 0xB14 DUP5 PUSH2 0xADC JUMP JUMPDEST PUSH2 0xAFB JUMP JUMPDEST PUSH2 0xADC JUMP JUMPDEST SWAP1 POP SWAP2 SWAP1 POP JUMP JUMPDEST PUSH0 PUSH2 0xB2F DUP3 PUSH2 0xB04 JUMP JUMPDEST SWAP1 POP SWAP2 SWAP1 POP JUMP JUMPDEST PUSH0 PUSH2 0xB40 DUP3 PUSH2 0xB25 JUMP JUMPDEST SWAP1 POP SWAP2 SWAP1 POP JUMP JUMPDEST PUSH2 0xB50 DUP2 PUSH2 0xB36 JUMP JUMPDEST DUP3 MSTORE POP POP JUMP JUMPDEST PUSH0 PUSH1 0x20 DUP3 ADD SWAP1 POP PUSH2 0xB69 PUSH0 DUP4 ADD DUP5 PUSH2 0xB47 JUMP JUMPDEST SWAP3 SWAP2 POP POP JUMP JUMPDEST PUSH0 PUSH1 0x40 MLOAD SWAP1 POP SWAP1 JUMP JUMPDEST PUSH0 PUSH0 REVERT JUMPDEST PUSH0 PUSH0 REVERT JUMPDEST PUSH0 DUP2 SWAP1 POP SWAP2 SWAP1 POP JUMP JUMPDEST PUSH2 0xB92 DUP2 PUSH2 0xB80 JUMP JUMPDEST DUP2 EQ PUSH2 0xB9C JUMPI PUSH0 PUSH0 REVERT JUMPDEST POP JUMP JUMPDEST PUSH0 DUP2 CALLDATALOAD SWAP1 POP PUSH2 0xBAD DUP2 PUSH2 0xB89 JUMP JUMPDEST SWAP3 SWAP2 POP POP JUMP JUMPDEST PUSH0 PUSH0 PUSH1 0x40 DUP4 DUP6 SUB SLT ISZERO PUSH2 0xBC9 JUMPI PUSH2 0xBC8 PUSH2 0xB78 JUMP JUMPDEST JUMPDEST PUSH0 PUSH2 0xBD6 DUP6 DUP3 DUP7 ADD PUSH2 0xB9F JUMP JUMPDEST SWAP3 POP POP PUSH1 0x20 PUSH2 0xBE7 DUP6 DUP3 DUP7 ADD PUSH2 0xB9F JUMP JUMPDEST SWAP2 POP POP SWAP3 POP SWAP3 SWAP1 POP JUMP JUMPDEST PUSH0 PUSH0 REVERT JUMPDEST PUSH0 PUSH0 REVERT JUMPDEST PUSH0 PUSH1 0x1F NOT PUSH1 0x1F DUP4 ADD AND SWAP1 POP SWAP2 SWAP1 POP JUMP JUMPDEST PUSH32 0x4E487B7100000000000000000000000000000000000000000000000000000000 PUSH0 MSTORE PUSH1 0x41 PUSH1 0x4 MSTORE PUSH1 0x24 PUSH0 REVERT JUMPDEST PUSH2 0xC3F DUP3 PUSH2 0xBF9 JUMP JUMPDEST DUP2 ADD DUP2 DUP2 LT PUSH8 0xFFFFFFFFFFFFFFFF DUP3 GT OR ISZERO PUSH2 0xC5E JUMPI PUSH2 0xC5D PUSH2 0xC09 JUMP JUMPDEST JUMPDEST DUP1 PUSH1 0x40 MSTORE POP POP POP JUMP JUMPDEST PUSH0 PUSH2 0xC70 PUSH2 0xB6F JUMP JUMPDEST SWAP1 POP PUSH2 0xC7C DUP3 DUP3 PUSH2 0xC36 JUMP JUMPDEST SWAP2 SWAP1 POP JUMP JUMPDEST PUSH0 PUSH8 0xFFFFFFFFFFFFFFFF DUP3 GT ISZERO PUSH2 0xC9B JUMPI PUSH2 0xC9A PUSH2 0xC09 JUMP JUMPDEST JUMPDEST PUSH2 0xCA4 DUP3 PUSH2 0xBF9 JUMP JUMPDEST SWAP1 POP PUSH1 0x20 DUP2 ADD SWAP1 POP SWAP2 SWAP1 POP JUMP JUMPDEST DUP3 DUP2 DUP4 CALLDATACOPY PUSH0 DUP4 DUP4 ADD MSTORE POP POP POP JUMP JUMPDEST PUSH0 PUSH2 0xCD1 PUSH2 0xCCC DUP5 PUSH2 0xC81 JUMP JUMPDEST PUSH2 0xC67 JUMP JUMPDEST SWAP1 POP DUP3 DUP2 MSTORE PUSH1 0x20 DUP2 ADD DUP5 DUP5 DUP5 ADD GT ISZERO PUSH2 0xCED JUMPI PUSH2 0xCEC PUSH2 0xBF5 JUMP JUMPDEST JUMPDEST PUSH2 0xCF8 DUP5 DUP3 DUP6 PUSH2 0xCB1 JUMP JUMPDEST POP SWAP4 SWAP3 POP POP POP JUMP JUMPDEST PUSH0 DUP3 PUSH1 0x1F DUP4 ADD SLT PUSH2 0xD14 JUMPI PUSH2 0xD13 PUSH2 0xBF1 JUMP JUMPDEST JUMPDEST DUP2 CALLDATALOAD PUSH2 0xD24 DUP5 DUP3 PUSH1 0x20 DUP7 ADD PUSH2 0xCBF JUMP JUMPDEST SWAP2 POP POP SWAP3 SWAP2 POP POP JUMP JUMPDEST PUSH0 PUSH0 PUSH1 0x40 DUP4 DUP6 SUB SLT ISZERO PUSH2 0xD43 JUMPI PUSH2 0xD42 PUSH2 0xB78 JUMP JUMPDEST JUMPDEST PUSH0 PUSH2 0xD50 DUP6 DUP3 DUP7 ADD PUSH2 0xB9F JUMP JUMPDEST SWAP3 POP POP PUSH1 0x20 DUP4 ADD CALLDATALOAD PUSH8 0xFFFFFFFFFFFFFFFF DUP2 GT ISZERO PUSH2 0xD71 JUMPI PUSH2 0xD70 PUSH2 0xB7C JUMP JUMPDEST JUMPDEST PUSH2 0xD7D DUP6 DUP3 DUP7 ADD PUSH2 0xD00 JUMP JUMPDEST SWAP2 POP POP SWAP3 POP SWAP3 SWAP1 POP JUMP JUMPDEST PUSH0 PUSH1 0x20 DUP3 DUP5 SUB SLT ISZERO PUSH2 0xD9C JUMPI PUSH2 0xD9B PUSH2 0xB78 JUMP JUMPDEST JUMPDEST PUSH0 PUSH2 0xDA9 DUP5 DUP3 DUP6 ADD PUSH2 0xB9F JUMP JUMPDEST SWAP2 POP POP SWAP3 SWAP2 POP POP JUMP JUMPDEST PUSH2 0xDBB DUP2 PUSH2 0xB80 JUMP JUMPDEST DUP3 MSTORE POP POP JUMP JUMPDEST PUSH0 DUP2 MLOAD SWAP1 POP SWAP2 SWAP1 POP JUMP JUMPDEST PUSH0 DUP3 DUP3 MSTORE PUSH1 0x20 DUP3 ADD SWAP1 POP SWAP3 SWAP2 POP POP JUMP JUMPDEST DUP3 DUP2 DUP4 MCOPY PUSH0 DUP4 DUP4 ADD MSTORE POP POP POP JUMP JUMPDEST PUSH0 PUSH2 0xDF3 DUP3 PUSH2 0xDC1 JUMP JUMPDEST PUSH2 0xDFD DUP2 DUP6 PUSH2 0xDCB JUMP JUMPDEST SWAP4 POP PUSH2 0xE0D DUP2 DUP6 PUSH1 0x20 DUP7 ADD PUSH2 0xDDB JUMP JUMPDEST PUSH2 0xE16 DUP2 PUSH2 0xBF9 JUMP JUMPDEST DUP5 ADD SWAP2 POP POP SWAP3 SWAP2 POP POP JUMP JUMPDEST PUSH0 PUSH1 0x40 DUP3 ADD SWAP1 POP PUSH2 0xE34 PUSH0 DUP4 ADD DUP6 PUSH2 0xDB2 JUMP JUMPDEST DUP2 DUP2 SUB PUSH1 0x20 DUP4 ADD MSTORE PUSH2 0xE46 DUP2 DUP5 PUSH2 0xDE9 JUMP JUMPDEST SWAP1 POP SWAP4 SWAP3 POP POP POP JUMP JUMPDEST PUSH0 DUP2 MLOAD SWAP1 POP SWAP2 SWAP1 POP JUMP JUMPDEST PUSH0 DUP3 DUP3 MSTORE PUSH1 0x20 DUP3 ADD SWAP1 POP SWAP3 SWAP2 POP POP JUMP JUMPDEST PUSH0 DUP2 SWAP1 POP PUSH1 0x20 DUP3 ADD SWAP1 POP SWAP2 SWAP1 POP JUMP JUMPDEST PUSH2 0xE81 DUP2 PUSH2 0xB80 JUMP JUMPDEST DUP3 MSTORE POP POP JUMP JUMPDEST PUSH0 DUP3 DUP3 MSTORE PUSH1 0x20 DUP3 ADD SWAP1 POP SWAP3 SWAP2 POP POP JUMP JUMPDEST PUSH0 PUSH2 0xEA1 DUP3 PUSH2 0xDC1 JUMP JUMPDEST PUSH2 0xEAB DUP2 DUP6 PUSH2 0xE87 JUMP JUMPDEST SWAP4 POP PUSH2 0xEBB DUP2 DUP6 PUSH1 0x20 DUP7 ADD PUSH2 0xDDB JUMP JUMPDEST PUSH2 0xEC4 DUP2 PUSH2 0xBF9 JUMP JUMPDEST DUP5 ADD SWAP2 POP POP SWAP3 SWAP2 POP POP JUMP JUMPDEST PUSH0 PUSH1 0x40 DUP4 ADD PUSH0 DUP4 ADD MLOAD PUSH2 0xEE4 PUSH0 DUP7 ADD DUP3 PUSH2 0xE78 JUMP JUMPDEST POP PUSH1 0x20 DUP4 ADD MLOAD DUP5 DUP3 SUB PUSH1 0x20 DUP7 ADD MSTORE PUSH2 0xEFC DUP3 DUP3 PUSH2 0xE97 JUMP JUMPDEST SWAP2 POP POP DUP1 SWAP2 POP POP SWAP3 SWAP2 POP POP JUMP JUMPDEST PUSH0 PUSH2 0xF14 DUP4 DUP4 PUSH2 0xECF JUMP JUMPDEST SWAP1 POP SWAP3 SWAP2 POP POP JUMP JUMPDEST PUSH0 PUSH1 0x20 DUP3 ADD SWAP1 POP SWAP2 SWAP1 POP JUMP JUMPDEST PUSH0 PUSH2 0xF32 DUP3 PUSH2 0xE4F JUMP JUMPDEST PUSH2 0xF3C DUP2 DUP6 PUSH2 0xE59 JUMP JUMPDEST SWAP4 POP DUP4 PUSH1 0x20 DUP3 MUL DUP6 ADD PUSH2 0xF4E DUP6 PUSH2 0xE69 JUMP JUMPDEST DUP1 PUSH0 JUMPDEST DUP6 DUP2 LT ISZERO PUSH2 0xF89 JUMPI DUP5 DUP5 SUB DUP10 MSTORE DUP2 MLOAD PUSH2 0xF6A DUP6 DUP3 PUSH2 0xF09 JUMP JUMPDEST SWAP5 POP PUSH2 0xF75 DUP4 PUSH2 0xF1C JUMP JUMPDEST SWAP3 POP PUSH1 0x20 DUP11 ADD SWAP10 POP POP PUSH1 0x1 DUP2 ADD SWAP1 POP PUSH2 0xF51 JUMP JUMPDEST POP DUP3 SWAP8 POP DUP8 SWAP6 POP POP POP POP POP POP SWAP3 SWAP2 POP POP JUMP JUMPDEST PUSH0 PUSH1 0x20 DUP3 ADD SWAP1 POP DUP2 DUP2 SUB PUSH0 DUP4 ADD MSTORE PUSH2 0xFB3 DUP2 DUP5 PUSH2 0xF28 JUMP JUMPDEST SWAP1 POP SWAP3 SWAP2 POP POP JUMP JUMPDEST PUSH0 PUSH1 0x20 DUP3 ADD SWAP1 POP PUSH2 0xFCE PUSH0 DUP4 ADD DUP5 PUSH2 0xDB2 JUMP JUMPDEST SWAP3 SWAP2 POP POP JUMP JUMPDEST PUSH0 PUSH1 0x40 DUP4 ADD PUSH0 DUP4 ADD MLOAD PUSH2 0xFE9 PUSH0 DUP7 ADD DUP3 PUSH2 0xE78 JUMP JUMPDEST POP PUSH1 0x20 DUP4 ADD MLOAD DUP5 DUP3 SUB PUSH1 0x20 DUP7 ADD MSTORE PUSH2 0x1001 DUP3 DUP3 PUSH2 0xE97 JUMP JUMPDEST SWAP2 POP POP DUP1 SWAP2 POP POP SWAP3 SWAP2 POP POP JUMP JUMPDEST PUSH0 PUSH1 0x20 DUP3 ADD SWAP1 POP DUP2 DUP2 SUB PUSH0 DUP4 ADD MSTORE PUSH2 0x1026 DUP2 DUP5 PUSH2 0xFD4 JUMP JUMPDEST SWAP1 POP SWAP3 SWAP2 POP POP JUMP JUMPDEST PUSH32 0x43617465676F7279206E616D652063616E6E6F7420626520656D707479000000 PUSH0 DUP3 ADD MSTORE POP JUMP JUMPDEST PUSH0 PUSH2 0x1062 PUSH1 0x1D DUP4 PUSH2 0xDCB JUMP JUMPDEST SWAP2 POP PUSH2 0x106D DUP3 PUSH2 0x102E JUMP JUMPDEST PUSH1 0x20 DUP3 ADD SWAP1 POP SWAP2 SWAP1 POP JUMP JUMPDEST PUSH0 PUSH1 0x20 DUP3 ADD SWAP1 POP DUP2 DUP2 SUB PUSH0 DUP4 ADD MSTORE PUSH2 0x108F DUP2 PUSH2 0x1056 JUMP JUMPDEST SWAP1 POP SWAP2 SWAP1 POP JUMP JUMPDEST PUSH32 0x43617465676F727920646F6573206E6F74206578697374000000000000000000 PUSH0 DUP3 ADD MSTORE POP JUMP JUMPDEST PUSH0 PUSH2 0x10CA PUSH1 0x17 DUP4 PUSH2 0xDCB JUMP JUMPDEST SWAP2 POP PUSH2 0x10D5 DUP3 PUSH2 0x1096 JUMP JUMPDEST PUSH1 0x20 DUP3 ADD SWAP1 POP SWAP2 SWAP1 POP JUMP JUMPDEST PUSH0 PUSH1 0x20 DUP3 ADD SWAP1 POP DUP2 DUP2 SUB PUSH0 DUP4 ADD MSTORE PUSH2 0x10F7 DUP2 PUSH2 0x10BE JUMP JUMPDEST SWAP1 POP SWAP2 SWAP1 POP JUMP JUMPDEST PUSH32 0x4E487B7100000000000000000000000000000000000000000000000000000000 PUSH0 MSTORE PUSH1 0x22 PUSH1 0x4 MSTORE PUSH1 0x24 PUSH0 REVERT JUMPDEST PUSH0 PUSH1 0x2 DUP3 DIV SWAP1 POP PUSH1 0x1 DUP3 AND DUP1 PUSH2 0x1142 JUMPI PUSH1 0x7F DUP3 AND SWAP2 POP JUMPDEST PUSH1 0x20 DUP3 LT DUP2 SUB PUSH2 0x1155 JUMPI PUSH2 0x1154 PUSH2 0x10FE JUMP JUMPDEST JUMPDEST POP SWAP2 SWAP1 POP JUMP JUMPDEST PUSH0 DUP2 SWAP1 POP DUP2 PUSH0 MSTORE PUSH1 0x20 PUSH0 KECCAK256 SWAP1 POP SWAP2 SWAP1 POP JUMP JUMPDEST PUSH0 PUSH1 0x20 PUSH1 0x1F DUP4 ADD DIV SWAP1 POP SWAP2 SWAP1 POP JUMP JUMPDEST PUSH0 DUP3 DUP3 SHL SWAP1 POP SWAP3 SWAP2 POP POP JUMP JUMPDEST PUSH0 PUSH1 0x8 DUP4 MUL PUSH2 0x11B7 PUSH32 0xFFFFFFFFFFFFFFFFFFFFFFFFFFFFFFFFFFFFFFFFFFFFFFFFFFFFFFFFFFFFFFFF DUP3 PUSH2 0x117C JUMP JUMPDEST PUSH2 0x11C1 DUP7 DUP4 PUSH2 0x117C JUMP JUMPDEST SWAP6 POP DUP1 NOT DUP5 AND SWAP4 POP DUP1 DUP7 AND DUP5 OR SWAP3 POP POP POP SWAP4 SWAP3 POP POP POP JUMP JUMPDEST PUSH0 PUSH2 0x11F3 PUSH2 0x11EE PUSH2 0x11E9 DUP5 PUSH2 0xB80 JUMP JUMPDEST PUSH2 0xAFB JUMP JUMPDEST PUSH2 0xB80 JUMP JUMPDEST SWAP1 POP SWAP2 SWAP1 POP JUMP JUMPDEST PUSH0 DUP2 SWAP1 POP SWAP2 SWAP1 POP JUMP JUMPDEST PUSH2 0x120C DUP4 PUSH2 0x11D9 JUMP JUMPDEST PUSH2 0x1220 PUSH2 0x1218 DUP3 PUSH2 0x11FA JUMP JUMPDEST DUP5 DUP5 SLOAD PUSH2 0x1188 JUMP JUMPDEST DUP3 SSTORE POP POP POP POP JUMP JUMPDEST PUSH0 PUSH0 SWAP1 POP SWAP1 JUMP JUMPDEST PUSH2 0x1237 PUSH2 0x1228 JUMP JUMPDEST PUSH2 0x1242 DUP2 DUP5 DUP5 PUSH2 0x1203 JUMP JUMPDEST POP POP POP JUMP JUMPDEST JUMPDEST DUP2 DUP2 LT ISZERO PUSH2 0x1265 JUMPI PUSH2 0x125A PUSH0 DUP3 PUSH2 0x122F JUMP JUMPDEST PUSH1 0x1 DUP2 ADD SWAP1 POP PUSH2 0x1248 JUMP JUMPDEST POP POP JUMP JUMPDEST PUSH1 0x1F DUP3 GT ISZERO PUSH2 0x12AA JUMPI PUSH2 0x127B DUP2 PUSH2 0x115B JUMP JUMPDEST PUSH2 0x1284 DUP5 PUSH2 0x116D JUMP JUMPDEST DUP2 ADD PUSH1 0x20 DUP6 LT ISZERO PUSH2 0x1293 JUMPI DUP2 SWAP1 POP JUMPDEST PUSH2 0x12A7 PUSH2 0x129F DUP6 PUSH2 0x116D JUMP JUMPDEST DUP4 ADD DUP3 PUSH2 0x1247 JUMP JUMPDEST POP POP JUMPDEST POP POP POP JUMP JUMPDEST PUSH0 DUP3 DUP3 SHR SWAP1 POP SWAP3 SWAP2 POP POP JUMP JUMPDEST PUSH0 PUSH2 0x12CA PUSH0 NOT DUP5 PUSH1 0x8 MUL PUSH2 0x12AF JUMP JUMPDEST NOT DUP1 DUP4 AND SWAP2 POP POP SWAP3 SWAP2 POP POP JUMP JUMPDEST PUSH0 PUSH2 0x12E2 DUP4 DUP4 PUSH2 0x12BB JUMP JUMPDEST SWAP2 POP DUP3 PUSH1 0x2 MUL DUP3 OR SWAP1 POP SWAP3 SWAP2 POP POP JUMP JUMPDEST PUSH2 0x12FB DUP3 PUSH2 0xDC1 JUMP JUMPDEST PUSH8 0xFFFFFFFFFFFFFFFF DUP2 GT ISZERO PUSH2 0x1314 JUMPI PUSH2 0x1313 PUSH2 0xC09 JUMP JUMPDEST JUMPDEST PUSH2 0x131E DUP3 SLOAD PUSH2 0x112B JUMP JUMPDEST PUSH2 0x1329 DUP3 DUP3 DUP6 PUSH2 0x1269 JUMP JUMPDEST PUSH0 PUSH1 0x20 SWAP1 POP PUSH1 0x1F DUP4 GT PUSH1 0x1 DUP2 EQ PUSH2 0x135A JUMPI PUSH0 DUP5 ISZERO PUSH2 0x1348 JUMPI DUP3 DUP8 ADD MLOAD SWAP1 POP JUMPDEST PUSH2 0x1352 DUP6 DUP3 PUSH2 0x12D7 JUMP JUMPDEST DUP7 SSTORE POP PUSH2 0x13B9 JUMP JUMPDEST PUSH1 0x1F NOT DUP5 AND PUSH2 0x1368 DUP7 PUSH2 0x115B JUMP JUMPDEST PUSH0 JUMPDEST DUP3 DUP2 LT ISZERO PUSH2 0x138F JUMPI DUP5 DUP10 ADD MLOAD DUP3 SSTORE PUSH1 0x1 DUP3 ADD SWAP2 POP PUSH1 0x20 DUP6 ADD SWAP5 POP PUSH1 0x20 DUP2 ADD SWAP1 POP PUSH2 0x136A JUMP JUMPDEST DUP7 DUP4 LT ISZERO PUSH2 0x13AC JUMPI DUP5 DUP10 ADD MLOAD PUSH2 0x13A8 PUSH1 0x1F DUP10 AND DUP3 PUSH2 0x12BB JUMP JUMPDEST DUP4 SSTORE POP JUMPDEST PUSH1 0x1 PUSH1 0x2 DUP9 MUL ADD DUP9 SSTORE POP POP POP JUMPDEST POP POP POP POP POP POP JUMP JUMPDEST PUSH32 0x43617465676F727920636F6E7461696E7320666F6F64206974656D7300000000 PUSH0 DUP3 ADD MSTORE POP JUMP JUMPDEST PUSH0 PUSH2 0x13F5 PUSH1 0x1C DUP4 PUSH2 0xDCB JUMP JUMPDEST SWAP2 POP PUSH2 0x1400 DUP3 PUSH2 0x13C1 JUMP JUMPDEST PUSH1 0x20 DUP3 ADD SWAP1 POP SWAP2 SWAP1 POP JUMP JUMPDEST PUSH0 PUSH1 0x20 DUP3 ADD SWAP1 POP DUP2 DUP2 SUB PUSH0 DUP4 ADD MSTORE PUSH2 0x1422 DUP2 PUSH2 0x13E9 JUMP JUMPDEST SWAP1 POP SWAP2 SWAP1 POP JUMP JUMPDEST PUSH32 0x4E487B7100000000000000000000000000000000000000000000000000000000 PUSH0 MSTORE PUSH1 0x32 PUSH1 0x4 MSTORE PUSH1 0x24 PUSH0 REVERT JUMPDEST PUSH32 0x4E487B7100000000000000000000000000000000000000000000000000000000 PUSH0 MSTORE PUSH1 0x11 PUSH1 0x4 MSTORE PUSH1 0x24 PUSH0 REVERT JUMPDEST PUSH0 PUSH2 0x148D DUP3 PUSH2 0xB80 JUMP JUMPDEST SWAP2 POP PUSH2 0x1498 DUP4 PUSH2 0xB80 JUMP JUMPDEST SWAP3 POP DUP3 DUP3 SUB SWAP1 POP DUP2 DUP2 GT ISZERO PUSH2 0x14B0 JUMPI PUSH2 0x14AF PUSH2 0x1456 JUMP JUMPDEST JUMPDEST SWAP3 SWAP2 POP POP JUMP JUMPDEST PUSH32 0x4E487B7100000000000000000000000000000000000000000000000000000000 PUSH0 MSTORE PUSH1 0x31 PUSH1 0x4 MSTORE PUSH1 0x24 PUSH0 REVERT JUMPDEST PUSH0 PUSH2 0x14ED DUP3 PUSH2 0xADC JUMP JUMPDEST SWAP1 POP SWAP2 SWAP1 POP JUMP JUMPDEST PUSH2 0x14FD DUP2 PUSH2 0x14E3 JUMP JUMPDEST DUP3 MSTORE POP POP JUMP JUMPDEST PUSH0 PUSH1 0x20 DUP3 ADD SWAP1 POP PUSH2 0x1516 PUSH0 DUP4 ADD DUP5 PUSH2 0x14F4 JUMP JUMPDEST SWAP3 SWAP2 POP POP JUMP JUMPDEST PUSH0 DUP2 ISZERO ISZERO SWAP1 POP SWAP2 SWAP1 POP JUMP JUMPDEST PUSH2 0x1530 DUP2 PUSH2 0x151C JUMP JUMPDEST DUP2 EQ PUSH2 0x153A JUMPI PUSH0 PUSH0 REVERT JUMPDEST POP JUMP JUMPDEST PUSH0 DUP2 MLOAD SWAP1 POP PUSH2 0x154B DUP2 PUSH2 0x1527 JUMP JUMPDEST SWAP3 SWAP2 POP POP JUMP JUMPDEST PUSH0 PUSH1 0x20 DUP3 DUP5 SUB SLT ISZERO PUSH2 0x1566 JUMPI PUSH2 0x1565 PUSH2 0xB78 JUMP JUMPDEST JUMPDEST PUSH0 PUSH2 0x1573 DUP5 DUP3 DUP6 ADD PUSH2 0x153D JUMP JUMPDEST SWAP2 POP POP SWAP3 SWAP2 POP POP JUMP JUMPDEST PUSH32 0x596F7520617265206E6F742061646D696E000000000000000000000000000000 PUSH0 DUP3 ADD MSTORE POP JUMP JUMPDEST PUSH0 PUSH2 0x15B0 PUSH1 0x11 DUP4 PUSH2 0xDCB JUMP JUMPDEST SWAP2 POP PUSH2 0x15BB DUP3 PUSH2 0x157C JUMP JUMPDEST PUSH1 0x20 DUP3 ADD SWAP1 POP SWAP2 SWAP1 POP JUMP JUMPDEST PUSH0 PUSH1 0x20 DUP3 ADD SWAP1 POP DUP2 DUP2 SUB PUSH0 DUP4 ADD MSTORE PUSH2 0x15DD DUP2 PUSH2 0x15A4 JUMP JUMPDEST SWAP1 POP SWAP2 SWAP1 POP JUMP JUMPDEST PUSH32 0x43617465676F727920494420616C726561647920657869737473000000000000 PUSH0 DUP3 ADD MSTORE POP JUMP JUMPDEST PUSH0 PUSH2 0x1618 PUSH1 0x1A DUP4 PUSH2 0xDCB JUMP JUMPDEST SWAP2 POP PUSH2 0x1623 DUP3 PUSH2 0x15E4 JUMP JUMPDEST PUSH1 0x20 DUP3 ADD SWAP1 POP SWAP2 SWAP1 POP JUMP JUMPDEST PUSH0 PUSH1 0x20 DUP3 ADD SWAP1 POP DUP2 DUP2 SUB PUSH0 DUP4 ADD MSTORE PUSH2 0x1645 DUP2 PUSH2 0x160C JUMP JUMPDEST SWAP1 POP SWAP2 SWAP1 POP JUMP INVALID LOG2 PUSH5 0x6970667358 0x22 SLT KECCAK256 EQ DUP12 TLOAD PUSH18 0x322632F0BA737490F5A9ECB2E72AF07F24E0 0xD6 0xB0 0x4D 0xD4 0xDC DUPN 0xDF PUSH19 0x94C164736F6C634300081E0033000000000000 "
				},
				"gasEstimates": {
					"creation": {
						"codeDepositCost": "1152400",
						"executionCost": "infinite",
						"totalCost": "infinite"
					},
					"external": {
						"addFoodIdToCategory(uint256,uint256)": "infinite",
						"categories(uint256)": "infinite",
						"categoryToFoodId(uint256,uint256)": "infinite",
						"createCategory(uint256,string)": "infinite",
						"deleteCategory(uint256)": "infinite",
						"getAllCategories()": "infinite",
						"getCategory(uint256)": "infinite",
						"roleAccess()": "infinite",
						"updateCategory(uint256,string)": "infinite"
					}
				},
				"methodIdentifiers": {
					"addFoodIdToCategory(uint256,uint256)": "5f8069cc",
					"categories(uint256)": "c6cdbe5e",
					"categoryToFoodId(uint256,uint256)": "f1044f0d",
					"createCategory(uint256,string)": "f7868a52",
					"deleteCategory(uint256)": "ceca737f",
					"getAllCategories()": "dadd0a57",
					"getCategory(uint256)": "f3052d26",
					"roleAccess()": "42f54b89",
					"updateCategory(uint256,string)": "78697e5b"
				}
			},
			"storageLayout": {
				"storage": [
					{
						"astId": 169,
						"contract": "contracts/manager/CategoryManager.sol:CategoryManager",
						"label": "roleAccess",
						"offset": 0,
						"slot": "0",
						"type": "t_contract(RoleAccess)98"
					},
					{
						"astId": 174,
						"contract": "contracts/manager/CategoryManager.sol:CategoryManager",
						"label": "categories",
						"offset": 0,
						"slot": "1",
						"type": "t_mapping(t_uint256,t_struct(Category)474_storage)"
					},
					{
						"astId": 177,
						"contract": "contracts/manager/CategoryManager.sol:CategoryManager",
						"label": "categoryIds",
						"offset": 0,
						"slot": "2",
						"type": "t_array(t_uint256)dyn_storage"
					},
					{
						"astId": 182,
						"contract": "contracts/manager/CategoryManager.sol:CategoryManager",
						"label": "categoryToFoodId",
						"offset": 0,
						"slot": "3",
						"type": "t_mapping(t_uint256,t_array(t_uint256)dyn_storage)"
					}
				],
				"types": {
					"t_array(t_uint256)dyn_storage": {
						"base": "t_uint256",
						"encoding": "dynamic_array",
						"label": "uint256[]",
						"numberOfBytes": "32"
					},
					"t_contract(RoleAccess)98": {
						"encoding": "inplace",
						"label": "contract RoleAccess",
						"numberOfBytes": "20"
					},
					"t_mapping(t_uint256,t_array(t_uint256)dyn_storage)": {
						"encoding": "mapping",
						"key": "t_uint256",
						"label": "mapping(uint256 => uint256[])",
						"numberOfBytes": "32",
						"value": "t_array(t_uint256)dyn_storage"
					},
					"t_mapping(t_uint256,t_struct(Category)474_storage)": {
						"encoding": "mapping",
						"key": "t_uint256",
						"label": "mapping(uint256 => struct Category)",
						"numberOfBytes": "32",
						"value": "t_struct(Category)474_storage"
					},
					"t_string_storage": {
						"encoding": "bytes",
						"label": "string",
						"numberOfBytes": "32"
					},
					"t_struct(Category)474_storage": {
						"encoding": "inplace",
						"label": "struct Category",
						"members": [
							{
								"astId": 471,
								"contract": "contracts/manager/CategoryManager.sol:CategoryManager",
								"label": "categoryId",
								"offset": 0,
								"slot": "0",
								"type": "t_uint256"
							},
							{
								"astId": 473,
								"contract": "contracts/manager/CategoryManager.sol:CategoryManager",
								"label": "name",
								"offset": 0,
								"slot": "1",
								"type": "t_string_storage"
							}
						],
						"numberOfBytes": "64"
					},
					"t_uint256": {
						"encoding": "inplace",
						"label": "uint256",
						"numberOfBytes": "32"
					}
				}
			},
			"userdoc": {
				"kind": "user",
				"methods": {},
				"version": 1
			}
		}
	}
}