{
	"contracts/manager/StaffManager.sol": {
		"StaffManagement": {
			"abi": [
				{
					"inputs": [
						{
							"internalType": "address",
							"name": "_orderManagerAddress",
							"type": "address"
						},
						{
							"internalType": "address",
							"name": "_roleAccess",
							"type": "address"
						}
					],
					"stateMutability": "nonpayable",
					"type": "constructor"
				},
				{
					"anonymous": false,
					"inputs": [
						{
							"indexed": true,
							"internalType": "address",
							"name": "staffAddress",
							"type": "address"
						},
						{
							"indexed": false,
							"internalType": "string",
							"name": "name",
							"type": "string"
						}
					],
					"name": "StaffAdded",
					"type": "event"
				},
				{
					"anonymous": false,
					"inputs": [
						{
							"indexed": true,
							"internalType": "address",
							"name": "staffAddress",
							"type": "address"
						},
						{
							"indexed": false,
							"internalType": "uint256",
							"name": "_orderId",
							"type": "uint256"
						}
					],
					"name": "StaffAddedToOrder",
					"type": "event"
				},
				{
					"anonymous": false,
					"inputs": [
						{
							"indexed": false,
							"internalType": "address",
							"name": "staffAddress",
							"type": "address"
						},
						{
							"indexed": false,
							"internalType": "uint256",
							"name": "sumRating",
							"type": "uint256"
						},
						{
							"indexed": false,
							"internalType": "uint256",
							"name": "countRating",
							"type": "uint256"
						}
					],
					"name": "StaffRatingUpdated",
					"type": "event"
				},
				{
					"anonymous": false,
					"inputs": [
						{
							"indexed": true,
							"internalType": "address",
							"name": "staffAddress",
							"type": "address"
						},
						{
							"indexed": false,
							"internalType": "string",
							"name": "name",
							"type": "string"
						}
					],
					"name": "StaffUpdated",
					"type": "event"
				},
				{
					"inputs": [
						{
							"internalType": "address",
							"name": "_staffAddress",
							"type": "address"
						},
						{
							"internalType": "uint256",
							"name": "_orderId",
							"type": "uint256"
						}
					],
					"name": "addRaingWhenOrderSuccess",
					"outputs": [],
					"stateMutability": "nonpayable",
					"type": "function"
				},
				{
					"inputs": [
						{
							"internalType": "address",
							"name": "addressStaff",
							"type": "address"
						},
						{
							"internalType": "string",
							"name": "_name",
							"type": "string"
						},
						{
							"internalType": "string",
							"name": "_dob",
							"type": "string"
						},
						{
							"internalType": "string",
							"name": "_phone",
							"type": "string"
						}
					],
					"name": "addStaff",
					"outputs": [],
					"stateMutability": "nonpayable",
					"type": "function"
				},
				{
					"inputs": [
						{
							"internalType": "uint256",
							"name": "_orderId",
							"type": "uint256"
						},
						{
							"internalType": "address",
							"name": "addressStaff",
							"type": "address"
						}
					],
					"name": "addStaffToOrder",
					"outputs": [],
					"stateMutability": "nonpayable",
					"type": "function"
				},
				{
					"inputs": [],
					"name": "getAllStaffs",
					"outputs": [
						{
							"components": [
								{
									"internalType": "address",
									"name": "staffAddress",
									"type": "address"
								},
								{
									"internalType": "string",
									"name": "name",
									"type": "string"
								},
								{
									"internalType": "string",
									"name": "dob",
									"type": "string"
								},
								{
									"internalType": "string",
									"name": "phone",
									"type": "string"
								},
								{
									"internalType": "uint256",
									"name": "sumRating",
									"type": "uint256"
								},
								{
									"internalType": "uint256",
									"name": "countRating",
									"type": "uint256"
								},
								{
									"internalType": "enum StaffStatus",
									"name": "status",
									"type": "uint8"
								}
							],
							"internalType": "struct Staff[]",
							"name": "",
							"type": "tuple[]"
						}
					],
					"stateMutability": "view",
					"type": "function"
				},
				{
					"inputs": [
						{
							"internalType": "address",
							"name": "addressStaff",
							"type": "address"
						}
					],
					"name": "getStaff",
					"outputs": [
						{
							"components": [
								{
									"internalType": "address",
									"name": "staffAddress",
									"type": "address"
								},
								{
									"internalType": "string",
									"name": "name",
									"type": "string"
								},
								{
									"internalType": "string",
									"name": "dob",
									"type": "string"
								},
								{
									"internalType": "string",
									"name": "phone",
									"type": "string"
								},
								{
									"internalType": "uint256",
									"name": "sumRating",
									"type": "uint256"
								},
								{
									"internalType": "uint256",
									"name": "countRating",
									"type": "uint256"
								},
								{
									"internalType": "enum StaffStatus",
									"name": "status",
									"type": "uint8"
								}
							],
							"internalType": "struct Staff",
							"name": "",
							"type": "tuple"
						}
					],
					"stateMutability": "view",
					"type": "function"
				},
				{
					"inputs": [
						{
							"internalType": "address",
							"name": "_staffAddress",
							"type": "address"
						},
						{
							"internalType": "uint256",
							"name": "_orderId",
							"type": "uint256"
						}
					],
					"name": "getStaffInOrder",
					"outputs": [
						{
							"internalType": "bool",
							"name": "",
							"type": "bool"
						}
					],
					"stateMutability": "view",
					"type": "function"
				},
				{
					"inputs": [],
					"name": "orderManager",
					"outputs": [
						{
							"internalType": "contract IOrderManager",
							"name": "",
							"type": "address"
						}
					],
					"stateMutability": "view",
					"type": "function"
				},
				{
					"inputs": [
						{
							"internalType": "address",
							"name": "_staffAddress",
							"type": "address"
						},
						{
							"internalType": "uint256",
							"name": "_orderId",
							"type": "uint256"
						}
					],
					"name": "removeOrderInStaffInOrder",
					"outputs": [],
					"stateMutability": "nonpayable",
					"type": "function"
				},
				{
					"inputs": [],
					"name": "roleAccess",
					"outputs": [
						{
							"internalType": "contract RoleAccess",
							"name": "",
							"type": "address"
						}
					],
					"stateMutability": "view",
					"type": "function"
				},
				{
					"inputs": [
						{
							"internalType": "address",
							"name": "",
							"type": "address"
						},
						{
							"internalType": "uint256",
							"name": "",
							"type": "uint256"
						}
					],
					"name": "staffInOrder",
					"outputs": [
						{
							"internalType": "uint256",
							"name": "",
							"type": "uint256"
						}
					],
					"stateMutability": "view",
					"type": "function"
				},
				{
					"inputs": [
						{
							"internalType": "address",
							"name": "",
							"type": "address"
						}
					],
					"name": "staffs",
					"outputs": [
						{
							"internalType": "address",
							"name": "staffAddress",
							"type": "address"
						},
						{
							"internalType": "string",
							"name": "name",
							"type": "string"
						},
						{
							"internalType": "string",
							"name": "dob",
							"type": "string"
						},
						{
							"internalType": "string",
							"name": "phone",
							"type": "string"
						},
						{
							"internalType": "uint256",
							"name": "sumRating",
							"type": "uint256"
						},
						{
							"internalType": "uint256",
							"name": "countRating",
							"type": "uint256"
						},
						{
							"internalType": "enum StaffStatus",
							"name": "status",
							"type": "uint8"
						}
					],
					"stateMutability": "view",
					"type": "function"
				},
				{
					"inputs": [
						{
							"internalType": "address",
							"name": "addressStaff",
							"type": "address"
						},
						{
							"internalType": "uint256",
							"name": "_sumRating",
							"type": "uint256"
						},
						{
							"internalType": "uint256",
							"name": "_countRating",
							"type": "uint256"
						}
					],
					"name": "updateRatingStaff",
					"outputs": [],
					"stateMutability": "nonpayable",
					"type": "function"
				},
				{
					"inputs": [
						{
							"internalType": "address",
							"name": "addressStaff",
							"type": "address"
						},
						{
							"internalType": "string",
							"name": "_name",
							"type": "string"
						},
						{
							"internalType": "string",
							"name": "_dob",
							"type": "string"
						},
						{
							"internalType": "string",
							"name": "_phone",
							"type": "string"
						}
					],
					"name": "updateStaffInfo",
					"outputs": [],
					"stateMutability": "nonpayable",
					"type": "function"
				}
			],
			"devdoc": {
				"kind": "dev",
				"methods": {},
				"version": 1
			},
			"evm": {
				"assembly": "    /* \"contracts/manager/StaffManager.sol\":177:4171  contract StaffManagement is IStaffManager {... */\n  mstore(0x40, 0x80)\n    /* \"contracts/manager/StaffManager.sol\":553:729  constructor(address _orderManagerAddress, address _roleAccess) {... */\n  callvalue\n  dup1\n  iszero\n  tag_1\n  jumpi\n  revert(0x00, 0x00)\ntag_1:\n  pop\n  mload(0x40)\n  sub(codesize, bytecodeSize)\n  dup1\n  bytecodeSize\n  dup4\n  codecopy\n  dup2\n  add\n  0x40\n  dup2\n  swap1\n  mstore\n  tag_2\n  swap2\n  tag_3\n  jump\t// in\ntag_2:\n    /* \"contracts/manager/StaffManager.sol\":626:638  orderManager */\n  0x00\n    /* \"contracts/manager/StaffManager.sol\":626:676  orderManager = IOrderManager(_orderManagerAddress) */\n  dup1\n  sload\n  sub(shl(0xa0, 0x01), 0x01)\n  swap4\n  dup5\n  and\n  not(sub(shl(0xa0, 0x01), 0x01))\n  swap2\n  dup3\n  and\n  or\n  swap1\n  swap2\n  sstore\n  0x01\n    /* \"contracts/manager/StaffManager.sol\":686:722  roleAccess = RoleAccess(_roleAccess) */\n  dup1\n  sload\n  swap3\n  swap1\n  swap4\n  and\n  swap2\n  and\n  or\n  swap1\n  sstore\n    /* \"contracts/manager/StaffManager.sol\":177:4171  contract StaffManagement is IStaffManager {... */\n  jump(tag_8)\n    /* \"#utility.yul\":14:191   */\ntag_7:\n    /* \"#utility.yul\":93:106   */\n  dup1\n  mload\n  sub(shl(0xa0, 0x01), 0x01)\n    /* \"#utility.yul\":135:166   */\n  dup2\n  and\n    /* \"#utility.yul\":125:167   */\n  dup2\n  eq\n    /* \"#utility.yul\":115:185   */\n  tag_10\n  jumpi\n    /* \"#utility.yul\":181:182   */\n  0x00\n    /* \"#utility.yul\":178:179   */\n  0x00\n    /* \"#utility.yul\":171:183   */\n  revert\n    /* \"#utility.yul\":115:185   */\ntag_10:\n    /* \"#utility.yul\":14:191   */\n  swap2\n  swap1\n  pop\n  jump\t// out\n    /* \"#utility.yul\":196:489   */\ntag_3:\n    /* \"#utility.yul\":275:281   */\n  0x00\n    /* \"#utility.yul\":283:289   */\n  0x00\n    /* \"#utility.yul\":336:338   */\n  0x40\n    /* \"#utility.yul\":324:333   */\n  dup4\n    /* \"#utility.yul\":315:322   */\n  dup6\n    /* \"#utility.yul\":311:334   */\n  sub\n    /* \"#utility.yul\":307:339   */\n  slt\n    /* \"#utility.yul\":304:356   */\n  iszero\n  tag_12\n  jumpi\n    /* \"#utility.yul\":352:353   */\n  0x00\n    /* \"#utility.yul\":349:350   */\n  0x00\n    /* \"#utility.yul\":342:354   */\n  revert\n    /* \"#utility.yul\":304:356   */\ntag_12:\n    /* \"#utility.yul\":375:415   */\n  tag_13\n    /* \"#utility.yul\":405:414   */\n  dup4\n    /* \"#utility.yul\":375:415   */\n  tag_7\n  jump\t// in\ntag_13:\n    /* \"#utility.yul\":365:415   */\n  swap2\n  pop\n    /* \"#utility.yul\":434:483   */\n  tag_14\n    /* \"#utility.yul\":479:481   */\n  0x20\n    /* \"#utility.yul\":468:477   */\n  dup5\n    /* \"#utility.yul\":464:482   */\n  add\n    /* \"#utility.yul\":434:483   */\n  tag_7\n  jump\t// in\ntag_14:\n    /* \"#utility.yul\":424:483   */\n  swap1\n  pop\n    /* \"#utility.yul\":196:489   */\n  swap3\n  pop\n  swap3\n  swap1\n  pop\n  jump\t// out\ntag_8:\n    /* \"contracts/manager/StaffManager.sol\":177:4171  contract StaffManagement is IStaffManager {... */\n  dataSize(sub_0)\n  dup1\n  dataOffset(sub_0)\n  0x00\n  codecopy\n  0x00\n  return\nstop\n\nsub_0: assembly {\n        /* \"contracts/manager/StaffManager.sol\":177:4171  contract StaffManagement is IStaffManager {... */\n      mstore(0x40, 0x80)\n      callvalue\n      dup1\n      iszero\n      tag_1\n      jumpi\n      revert(0x00, 0x00)\n    tag_1:\n      pop\n      jumpi(tag_2, lt(calldatasize, 0x04))\n      shr(0xe0, calldataload(0x00))\n      dup1\n      0xab1ca44c\n      gt\n      tag_16\n      jumpi\n      dup1\n      0xdcad55c0\n      gt\n      tag_17\n      jumpi\n      dup1\n      0xdcad55c0\n      eq\n      tag_12\n      jumpi\n      dup1\n      0xddd79504\n      eq\n      tag_13\n      jumpi\n      dup1\n      0xe0e8086b\n      eq\n      tag_14\n      jumpi\n      dup1\n      0xf9b6117f\n      eq\n      tag_15\n      jumpi\n      revert(0x00, 0x00)\n    tag_17:\n      dup1\n      0xab1ca44c\n      eq\n      tag_9\n      jumpi\n      dup1\n      0xabf5e836\n      eq\n      tag_10\n      jumpi\n      dup1\n      0xb7ee0adc\n      eq\n      tag_11\n      jumpi\n      revert(0x00, 0x00)\n    tag_16:\n      dup1\n      0x037c73c2\n      eq\n      tag_3\n      jumpi\n      dup1\n      0x17c76c74\n      eq\n      tag_4\n      jumpi\n      dup1\n      0x3e5bde70\n      eq\n      tag_5\n      jumpi\n      dup1\n      0x42f54b89\n      eq\n      tag_6\n      jumpi\n      dup1\n      0x5be5fd39\n      eq\n      tag_7\n      jumpi\n      dup1\n      0xa8bfa255\n      eq\n      tag_8\n      jumpi\n    tag_2:\n      revert(0x00, 0x00)\n        /* \"contracts/manager/StaffManager.sol\":1525:1818  function getAllStaffs() external view returns (Staff[] memory) {... */\n    tag_3:\n      tag_18\n      tag_19\n      jump\t// in\n    tag_18:\n      mload(0x40)\n      tag_20\n      swap2\n      swap1\n      tag_21\n      jump\t// in\n    tag_20:\n      mload(0x40)\n      dup1\n      swap2\n      sub\n      swap1\n      return\n        /* \"contracts/manager/StaffManager.sol\":3741:4169  function removeOrderInStaffInOrder (address _staffAddress, uint _orderId) external override {... */\n    tag_4:\n      tag_22\n      tag_23\n      calldatasize\n      0x04\n      tag_24\n      jump\t// in\n    tag_23:\n      tag_25\n      jump\t// in\n    tag_22:\n      stop\n        /* \"contracts/manager/StaffManager.sol\":499:546  mapping (address => uint[]) public staffInOrder */\n    tag_5:\n      tag_26\n      tag_27\n      calldatasize\n      0x04\n      tag_24\n      jump\t// in\n    tag_27:\n      tag_28\n      jump\t// in\n    tag_26:\n      mload(0x40)\n        /* \"#utility.yul\":3012:3037   */\n      swap1\n      dup2\n      mstore\n        /* \"#utility.yul\":3000:3002   */\n      0x20\n        /* \"#utility.yul\":2985:3003   */\n      add\n        /* \"contracts/manager/StaffManager.sol\":499:546  mapping (address => uint[]) public staffInOrder */\n      tag_20\n        /* \"#utility.yul\":2866:3043   */\n      jump\n        /* \"contracts/manager/StaffManager.sol\":264:292  RoleAccess public roleAccess */\n    tag_6:\n      sload(0x01)\n      tag_31\n      swap1\n      sub(shl(0xa0, 0x01), 0x01)\n      and\n      dup2\n      jump\n    tag_31:\n      mload(0x40)\n      sub(shl(0xa0, 0x01), 0x01)\n        /* \"#utility.yul\":3230:3262   */\n      swap1\n      swap2\n      and\n        /* \"#utility.yul\":3212:3263   */\n      dup2\n      mstore\n        /* \"#utility.yul\":3200:3202   */\n      0x20\n        /* \"#utility.yul\":3185:3203   */\n      add\n        /* \"contracts/manager/StaffManager.sol\":264:292  RoleAccess public roleAccess */\n      tag_20\n        /* \"#utility.yul\":3048:3269   */\n      jump\n        /* \"contracts/manager/StaffManager.sol\":1823:2277  function updateStaffInfo(... */\n    tag_7:\n      tag_22\n      tag_36\n      calldatasize\n      0x04\n      tag_37\n      jump\t// in\n    tag_36:\n      tag_38\n      jump\t// in\n        /* \"contracts/manager/StaffManager.sol\":3361:3676  function getStaffInOrder(address _staffAddress, uint _orderId) external view override returns (bool){... */\n    tag_8:\n      tag_39\n      tag_40\n      calldatasize\n      0x04\n      tag_24\n      jump\t// in\n    tag_40:\n      tag_41\n      jump\t// in\n    tag_39:\n      mload(0x40)\n        /* \"#utility.yul\":4893:4907   */\n      swap1\n      iszero\n        /* \"#utility.yul\":4886:4908   */\n      iszero\n        /* \"#utility.yul\":4868:4909   */\n      dup2\n      mstore\n        /* \"#utility.yul\":4856:4858   */\n      0x20\n        /* \"#utility.yul\":4841:4859   */\n      add\n        /* \"contracts/manager/StaffManager.sol\":3361:3676  function getStaffInOrder(address _staffAddress, uint _orderId) external view override returns (bool){... */\n      tag_20\n        /* \"#utility.yul\":4728:4915   */\n      jump\n        /* \"contracts/manager/StaffManager.sol\":3115:3356  function addRaingWhenOrderSuccess (address _staffAddress, uint _orderId) external override  {... */\n    tag_9:\n      tag_22\n      tag_45\n      calldatasize\n      0x04\n      tag_24\n      jump\t// in\n    tag_45:\n      tag_46\n      jump\t// in\n        /* \"contracts/manager/StaffManager.sol\":2283:2684  function addStaffToOrder(uint256 _orderId, address addressStaff)... */\n    tag_10:\n      tag_22\n      tag_48\n      calldatasize\n      0x04\n      tag_49\n      jump\t// in\n    tag_48:\n      tag_50\n      jump\t// in\n        /* \"contracts/manager/StaffManager.sol\":298:337  mapping(address => Staff) public staffs */\n    tag_11:\n      tag_51\n      tag_52\n      calldatasize\n      0x04\n      tag_53\n      jump\t// in\n    tag_52:\n      tag_54\n      jump\t// in\n    tag_51:\n      mload(0x40)\n      tag_20\n      swap8\n      swap7\n      swap6\n      swap5\n      swap4\n      swap3\n      swap2\n      swap1\n      tag_56\n      jump\t// in\n        /* \"contracts/manager/StaffManager.sol\":856:1348  function addStaff(... */\n    tag_12:\n      tag_22\n      tag_58\n      calldatasize\n      0x04\n      tag_37\n      jump\t// in\n    tag_58:\n      tag_59\n      jump\t// in\n        /* \"contracts/manager/StaffManager.sol\":1354:1520  function getStaff(address addressStaff)... */\n    tag_13:\n      tag_60\n      tag_61\n      calldatasize\n      0x04\n      tag_53\n      jump\t// in\n    tag_61:\n      tag_62\n      jump\t// in\n    tag_60:\n      mload(0x40)\n      tag_20\n      swap2\n      swap1\n      tag_64\n      jump\t// in\n        /* \"contracts/manager/StaffManager.sol\":2690:3110  function updateRatingStaff(... */\n    tag_14:\n      tag_22\n      tag_66\n      calldatasize\n      0x04\n      tag_67\n      jump\t// in\n    tag_66:\n      tag_68\n      jump\t// in\n        /* \"contracts/manager/StaffManager.sol\":225:258  IOrderManager public orderManager */\n    tag_15:\n      sload(0x00)\n      tag_31\n      swap1\n      sub(shl(0xa0, 0x01), 0x01)\n      and\n      dup2\n      jump\n        /* \"contracts/manager/StaffManager.sol\":1525:1818  function getAllStaffs() external view returns (Staff[] memory) {... */\n    tag_19:\n        /* \"contracts/manager/StaffManager.sol\":1637:1651  staffAddresses */\n      0x03\n        /* \"contracts/manager/StaffManager.sol\":1637:1658  staffAddresses.length */\n      sload\n        /* \"contracts/manager/StaffManager.sol\":1572:1586  Staff[] memory */\n      0x60\n      swap1\n        /* \"contracts/manager/StaffManager.sol\":1598:1622  Staff[] memory allStaffs */\n      0x00\n      swap1\n        /* \"contracts/manager/StaffManager.sol\":1625:1659  new Staff[](staffAddresses.length) */\n      0xffffffffffffffff\n      dup2\n      gt\n      iszero\n      tag_75\n      jumpi\n      tag_75\n      tag_76\n      jump\t// in\n    tag_75:\n      mload(0x40)\n      swap1\n      dup1\n      dup3\n      mstore\n      dup1\n      0x20\n      mul\n      0x20\n      add\n      dup3\n      add\n      0x40\n      mstore\n      dup1\n      iszero\n      tag_77\n      jumpi\n      dup2\n      0x20\n      add\n    tag_78:\n      tag_79\n      tag_80\n      jump\t// in\n    tag_79:\n      dup2\n      mstore\n      0x20\n      add\n      swap1\n      0x01\n      swap1\n      sub\n      swap1\n      dup2\n      tag_78\n      jumpi\n      swap1\n      pop\n    tag_77:\n      pop\n        /* \"contracts/manager/StaffManager.sol\":1598:1659  Staff[] memory allStaffs = new Staff[](staffAddresses.length) */\n      swap1\n      pop\n        /* \"contracts/manager/StaffManager.sol\":1674:1683  uint256 i */\n      0x00\n        /* \"contracts/manager/StaffManager.sol\":1669:1786  for (uint256 i = 0; i < staffAddresses.length; i++) {... */\n    tag_81:\n        /* \"contracts/manager/StaffManager.sol\":1693:1707  staffAddresses */\n      0x03\n        /* \"contracts/manager/StaffManager.sol\":1693:1714  staffAddresses.length */\n      sload\n        /* \"contracts/manager/StaffManager.sol\":1689:1714  i < staffAddresses.length */\n      dup2\n      lt\n        /* \"contracts/manager/StaffManager.sol\":1669:1786  for (uint256 i = 0; i < staffAddresses.length; i++) {... */\n      iszero\n      tag_82\n      jumpi\n        /* \"contracts/manager/StaffManager.sol\":1750:1756  staffs */\n      0x02\n        /* \"contracts/manager/StaffManager.sol\":1750:1775  staffs[staffAddresses[i]] */\n      0x00\n        /* \"contracts/manager/StaffManager.sol\":1757:1771  staffAddresses */\n      0x03\n        /* \"contracts/manager/StaffManager.sol\":1772:1773  i */\n      dup4\n        /* \"contracts/manager/StaffManager.sol\":1757:1774  staffAddresses[i] */\n      dup2\n      sload\n      dup2\n      lt\n      tag_85\n      jumpi\n      tag_85\n      tag_86\n      jump\t// in\n    tag_85:\n      0x00\n      swap2\n      dup3\n      mstore\n      0x20\n      dup1\n      dup4\n      keccak256\n      swap1\n      swap2\n      add\n      sload\n      sub(shl(0xa0, 0x01), 0x01)\n      swap1\n      dup2\n      and\n        /* \"contracts/manager/StaffManager.sol\":1750:1775  staffs[staffAddresses[i]] */\n      dup5\n      mstore\n      dup4\n      dup3\n      add\n      swap5\n      swap1\n      swap5\n      mstore\n      0x40\n      swap3\n      dup4\n      add\n      swap1\n      swap2\n      keccak256\n        /* \"contracts/manager/StaffManager.sol\":1735:1775  allStaffs[i] = staffs[staffAddresses[i]] */\n      dup3\n      mload\n      0xe0\n      dup2\n      add\n      swap1\n      swap4\n      mstore\n      dup1\n      sload\n      swap1\n      swap4\n      and\n      dup3\n      mstore\n        /* \"contracts/manager/StaffManager.sol\":1757:1774  staffAddresses[i] */\n      0x01\n        /* \"contracts/manager/StaffManager.sol\":1735:1775  allStaffs[i] = staffs[staffAddresses[i]] */\n      dup4\n      add\n      dup1\n      sload\n      swap3\n      swap4\n        /* \"contracts/manager/StaffManager.sol\":1750:1775  staffs[staffAddresses[i]] */\n      swap3\n        /* \"contracts/manager/StaffManager.sol\":1735:1775  allStaffs[i] = staffs[staffAddresses[i]] */\n      swap2\n      dup5\n      add\n      swap2\n      tag_88\n      swap1\n      tag_89\n      jump\t// in\n    tag_88:\n      dup1\n      0x1f\n      add\n      0x20\n      dup1\n      swap2\n      div\n      mul\n      0x20\n      add\n      mload(0x40)\n      swap1\n      dup2\n      add\n      0x40\n      mstore\n      dup1\n      swap3\n      swap2\n      swap1\n      dup2\n      dup2\n      mstore\n      0x20\n      add\n      dup3\n      dup1\n      sload\n      tag_90\n      swap1\n      tag_89\n      jump\t// in\n    tag_90:\n      dup1\n      iszero\n      tag_91\n      jumpi\n      dup1\n      0x1f\n      lt\n      tag_92\n      jumpi\n      0x0100\n      dup1\n      dup4\n      sload\n      div\n      mul\n      dup4\n      mstore\n      swap2\n      0x20\n      add\n      swap2\n      jump(tag_91)\n    tag_92:\n      dup3\n      add\n      swap2\n      swap1\n      0x00\n      mstore\n      keccak256(0x00, 0x20)\n      swap1\n    tag_93:\n      dup2\n      sload\n      dup2\n      mstore\n      swap1\n      0x01\n      add\n      swap1\n      0x20\n      add\n      dup1\n      dup4\n      gt\n      tag_93\n      jumpi\n      dup3\n      swap1\n      sub\n      0x1f\n      and\n      dup3\n      add\n      swap2\n    tag_91:\n      pop\n      pop\n      pop\n      pop\n      pop\n      dup2\n      mstore\n      0x20\n      add\n      0x02\n      dup3\n      add\n      dup1\n      sload\n      tag_94\n      swap1\n      tag_89\n      jump\t// in\n    tag_94:\n      dup1\n      0x1f\n      add\n      0x20\n      dup1\n      swap2\n      div\n      mul\n      0x20\n      add\n      mload(0x40)\n      swap1\n      dup2\n      add\n      0x40\n      mstore\n      dup1\n      swap3\n      swap2\n      swap1\n      dup2\n      dup2\n      mstore\n      0x20\n      add\n      dup3\n      dup1\n      sload\n      tag_95\n      swap1\n      tag_89\n      jump\t// in\n    tag_95:\n      dup1\n      iszero\n      tag_96\n      jumpi\n      dup1\n      0x1f\n      lt\n      tag_97\n      jumpi\n      0x0100\n      dup1\n      dup4\n      sload\n      div\n      mul\n      dup4\n      mstore\n      swap2\n      0x20\n      add\n      swap2\n      jump(tag_96)\n    tag_97:\n      dup3\n      add\n      swap2\n      swap1\n      0x00\n      mstore\n      keccak256(0x00, 0x20)\n      swap1\n    tag_98:\n      dup2\n      sload\n      dup2\n      mstore\n      swap1\n      0x01\n      add\n      swap1\n      0x20\n      add\n      dup1\n      dup4\n      gt\n      tag_98\n      jumpi\n      dup3\n      swap1\n      sub\n      0x1f\n      and\n      dup3\n      add\n      swap2\n    tag_96:\n      pop\n      pop\n      pop\n      pop\n      pop\n      dup2\n      mstore\n      0x20\n      add\n      0x03\n      dup3\n      add\n      dup1\n      sload\n      tag_99\n      swap1\n      tag_89\n      jump\t// in\n    tag_99:\n      dup1\n      0x1f\n      add\n      0x20\n      dup1\n      swap2\n      div\n      mul\n      0x20\n      add\n      mload(0x40)\n      swap1\n      dup2\n      add\n      0x40\n      mstore\n      dup1\n      swap3\n      swap2\n      swap1\n      dup2\n      dup2\n      mstore\n      0x20\n      add\n      dup3\n      dup1\n      sload\n      tag_100\n      swap1\n      tag_89\n      jump\t// in\n    tag_100:\n      dup1\n      iszero\n      tag_101\n      jumpi\n      dup1\n      0x1f\n      lt\n      tag_102\n      jumpi\n      0x0100\n      dup1\n      dup4\n      sload\n      div\n      mul\n      dup4\n      mstore\n      swap2\n      0x20\n      add\n      swap2\n      jump(tag_101)\n    tag_102:\n      dup3\n      add\n      swap2\n      swap1\n      0x00\n      mstore\n      keccak256(0x00, 0x20)\n      swap1\n    tag_103:\n      dup2\n      sload\n      dup2\n      mstore\n      swap1\n      0x01\n      add\n      swap1\n      0x20\n      add\n      dup1\n      dup4\n      gt\n      tag_103\n      jumpi\n      dup3\n      swap1\n      sub\n      0x1f\n      and\n      dup3\n      add\n      swap2\n    tag_101:\n      pop\n      pop\n      pop\n      swap2\n      dup4\n      mstore\n      pop\n      pop\n      0x04\n      dup3\n      add\n      sload\n      0x20\n      dup3\n      add\n      mstore\n      0x05\n      dup3\n      add\n      sload\n      0x40\n      dup3\n      add\n      mstore\n      0x06\n      dup3\n      add\n      sload\n      0x60\n      swap1\n      swap2\n      add\n      swap1\n      0xff\n      and\n      0x01\n      dup2\n      gt\n      iszero\n      tag_105\n      jumpi\n      tag_105\n      tag_106\n      jump\t// in\n    tag_105:\n      0x01\n      dup2\n      gt\n      iszero\n      tag_108\n      jumpi\n      tag_108\n      tag_106\n      jump\t// in\n    tag_108:\n      dup2\n      mstore\n      pop\n      pop\n        /* \"contracts/manager/StaffManager.sol\":1735:1744  allStaffs */\n      dup3\n        /* \"contracts/manager/StaffManager.sol\":1745:1746  i */\n      dup3\n        /* \"contracts/manager/StaffManager.sol\":1735:1747  allStaffs[i] */\n      dup2\n      mload\n      dup2\n      lt\n      tag_110\n      jumpi\n      tag_110\n      tag_86\n      jump\t// in\n    tag_110:\n      0x20\n      swap1\n      dup2\n      mul\n      swap2\n      swap1\n      swap2\n      add\n      add\n        /* \"contracts/manager/StaffManager.sol\":1735:1775  allStaffs[i] = staffs[staffAddresses[i]] */\n      mstore\n        /* \"contracts/manager/StaffManager.sol\":1716:1719  i++ */\n      0x01\n      add\n        /* \"contracts/manager/StaffManager.sol\":1669:1786  for (uint256 i = 0; i < staffAddresses.length; i++) {... */\n      jump(tag_81)\n    tag_82:\n      pop\n        /* \"contracts/manager/StaffManager.sol\":1802:1811  allStaffs */\n      swap2\n        /* \"contracts/manager/StaffManager.sol\":1525:1818  function getAllStaffs() external view returns (Staff[] memory) {... */\n      swap1\n      pop\n      jump\t// out\n        /* \"contracts/manager/StaffManager.sol\":3741:4169  function removeOrderInStaffInOrder (address _staffAddress, uint _orderId) external override {... */\n    tag_25:\n        /* \"contracts/manager/StaffManager.sol\":3847:3853  uint i */\n      0x00\n        /* \"contracts/manager/StaffManager.sol\":3843:4163  for(uint i = 0 ;i < staffInOrder[_staffAddress].length;  i++){... */\n    tag_112:\n      sub(shl(0xa0, 0x01), 0x01)\n        /* \"contracts/manager/StaffManager.sol\":3863:3890  staffInOrder[_staffAddress] */\n      dup4\n      and\n      0x00\n      swap1\n      dup2\n      mstore\n        /* \"contracts/manager/StaffManager.sol\":3863:3875  staffInOrder */\n      0x04\n        /* \"contracts/manager/StaffManager.sol\":3863:3890  staffInOrder[_staffAddress] */\n      0x20\n      mstore\n      0x40\n      swap1\n      keccak256\n        /* \"contracts/manager/StaffManager.sol\":3863:3897  staffInOrder[_staffAddress].length */\n      sload\n        /* \"contracts/manager/StaffManager.sol\":3859:3897  i < staffInOrder[_staffAddress].length */\n      dup2\n      lt\n        /* \"contracts/manager/StaffManager.sol\":3843:4163  for(uint i = 0 ;i < staffInOrder[_staffAddress].length;  i++){... */\n      iszero\n      tag_113\n      jumpi\n      sub(shl(0xa0, 0x01), 0x01)\n        /* \"contracts/manager/StaffManager.sol\":3922:3949  staffInOrder[_staffAddress] */\n      dup4\n      and\n      0x00\n      swap1\n      dup2\n      mstore\n        /* \"contracts/manager/StaffManager.sol\":3922:3934  staffInOrder */\n      0x04\n        /* \"contracts/manager/StaffManager.sol\":3922:3949  staffInOrder[_staffAddress] */\n      0x20\n      mstore\n      0x40\n      swap1\n      keccak256\n        /* \"contracts/manager/StaffManager.sol\":3922:3952  staffInOrder[_staffAddress][i] */\n      dup1\n      sload\n        /* \"contracts/manager/StaffManager.sol\":3956:3964  _orderId */\n      dup4\n      swap2\n        /* \"contracts/manager/StaffManager.sol\":3922:3949  staffInOrder[_staffAddress] */\n      swap1\n        /* \"contracts/manager/StaffManager.sol\":3950:3951  i */\n      dup4\n      swap1\n        /* \"contracts/manager/StaffManager.sol\":3922:3952  staffInOrder[_staffAddress][i] */\n      dup2\n      lt\n      tag_116\n      jumpi\n      tag_116\n      tag_86\n      jump\t// in\n    tag_116:\n      swap1\n      0x00\n      mstore\n      keccak256(0x00, 0x20)\n      add\n      sload\n        /* \"contracts/manager/StaffManager.sol\":3922:3964  staffInOrder[_staffAddress][i] == _orderId */\n      sub\n        /* \"contracts/manager/StaffManager.sol\":3918:4153  if (staffInOrder[_staffAddress][i] == _orderId) { // xóa order đồng thời các rating có bắt buộc là vì sao mà không sử dụng for... */\n      tag_118\n      jumpi\n      sub(shl(0xa0, 0x01), 0x01)\n        /* \"contracts/manager/StaffManager.sol\":4081:4108  staffInOrder[_staffAddress] */\n      dup4\n      and\n      0x00\n      swap1\n      dup2\n      mstore\n        /* \"contracts/manager/StaffManager.sol\":4081:4093  staffInOrder */\n      0x04\n        /* \"contracts/manager/StaffManager.sol\":4081:4108  staffInOrder[_staffAddress] */\n      0x20\n      mstore\n      0x40\n      swap1\n      keccak256\n        /* \"contracts/manager/StaffManager.sol\":4081:4114  staffInOrder[_staffAddress].pop() */\n      dup1\n      sload\n      dup1\n      tag_120\n      jumpi\n      tag_120\n      tag_121\n      jump\t// in\n    tag_120:\n      0x01\n      swap1\n      sub\n      dup2\n      dup2\n      swap1\n      0x00\n      mstore\n      keccak256(0x00, 0x20)\n      add\n      0x00\n      swap1\n      sstore\n      swap1\n      sstore\n        /* \"contracts/manager/StaffManager.sol\":3918:4153  if (staffInOrder[_staffAddress][i] == _orderId) { // xóa order đồng thời các rating có bắt buộc là vì sao mà không sử dụng for... */\n    tag_118:\n        /* \"contracts/manager/StaffManager.sol\":3900:3903  i++ */\n      0x01\n      add\n        /* \"contracts/manager/StaffManager.sol\":3843:4163  for(uint i = 0 ;i < staffInOrder[_staffAddress].length;  i++){... */\n      jump(tag_112)\n    tag_113:\n      pop\n        /* \"contracts/manager/StaffManager.sol\":3741:4169  function removeOrderInStaffInOrder (address _staffAddress, uint _orderId) external override {... */\n      pop\n      pop\n      jump\t// out\n        /* \"contracts/manager/StaffManager.sol\":499:546  mapping (address => uint[]) public staffInOrder */\n    tag_28:\n      mstore(0x20, 0x04)\n      dup2\n      0x00\n      mstore\n      keccak256(0x00, 0x40)\n      dup2\n      dup2\n      sload\n      dup2\n      lt\n      tag_123\n      jumpi\n      0x00\n      dup1\n      revert\n    tag_123:\n      swap1\n      0x00\n      mstore\n      keccak256(0x00, 0x20)\n      add\n      0x00\n      swap2\n      pop\n      swap2\n      pop\n      pop\n      sload\n      dup2\n      jump\t// out\n        /* \"contracts/manager/StaffManager.sol\":1823:2277  function updateStaffInfo(... */\n    tag_38:\n      sub(shl(0xa0, 0x01), 0x01)\n        /* \"contracts/manager/StaffManager.sol\":2013:2033  staffs[addressStaff] */\n      dup8\n      dup2\n      and\n        /* \"contracts/manager/StaffManager.sol\":2058:2059  0 */\n      0x00\n        /* \"contracts/manager/StaffManager.sol\":2013:2033  staffs[addressStaff] */\n      swap1\n      dup2\n      mstore\n        /* \"contracts/manager/StaffManager.sol\":2013:2019  staffs */\n      0x02\n        /* \"contracts/manager/StaffManager.sol\":2013:2033  staffs[addressStaff] */\n      0x20\n      mstore\n      0x40\n      swap1\n      keccak256\n        /* \"contracts/manager/StaffManager.sol\":2013:2046  staffs[addressStaff].staffAddress */\n      sload\n      and\n        /* \"contracts/manager/StaffManager.sol\":2005:2093  require(staffs[addressStaff].staffAddress != address(0), \"Staff address does not exist\") */\n      tag_126\n      jumpi\n      mload(0x40)\n      shl(0xe5, 0x461bcd)\n      dup2\n      mstore\n        /* \"#utility.yul\":8237:8239   */\n      0x20\n        /* \"contracts/manager/StaffManager.sol\":2005:2093  require(staffs[addressStaff].staffAddress != address(0), \"Staff address does not exist\") */\n      0x04\n      dup3\n      add\n        /* \"#utility.yul\":8219:8240   */\n      mstore\n        /* \"#utility.yul\":8276:8278   */\n      0x1c\n        /* \"#utility.yul\":8256:8274   */\n      0x24\n      dup3\n      add\n        /* \"#utility.yul\":8249:8279   */\n      mstore\n        /* \"#utility.yul\":8315:8345   */\n      0x5374616666206164647265737320646f6573206e6f7420657869737400000000\n        /* \"#utility.yul\":8295:8313   */\n      0x44\n      dup3\n      add\n        /* \"#utility.yul\":8288:8346   */\n      mstore\n        /* \"#utility.yul\":8363:8381   */\n      0x64\n      add\n        /* \"contracts/manager/StaffManager.sol\":2005:2093  require(staffs[addressStaff].staffAddress != address(0), \"Staff address does not exist\") */\n    tag_127:\n      mload(0x40)\n      dup1\n      swap2\n      sub\n      swap1\n      revert\n    tag_126:\n      sub(shl(0xa0, 0x01), 0x01)\n        /* \"contracts/manager/StaffManager.sol\":2103:2123  staffs[addressStaff] */\n      dup8\n      and\n      0x00\n      swap1\n      dup2\n      mstore\n        /* \"contracts/manager/StaffManager.sol\":2103:2109  staffs */\n      0x02\n        /* \"contracts/manager/StaffManager.sol\":2103:2123  staffs[addressStaff] */\n      0x20\n      mstore\n      0x40\n      swap1\n      keccak256\n        /* \"contracts/manager/StaffManager.sol\":2103:2128  staffs[addressStaff].name */\n      0x01\n      add\n        /* \"contracts/manager/StaffManager.sol\":2103:2136  staffs[addressStaff].name = _name */\n      tag_129\n        /* \"contracts/manager/StaffManager.sol\":2131:2136  _name */\n      dup7\n      dup9\n        /* \"contracts/manager/StaffManager.sol\":2103:2128  staffs[addressStaff].name */\n      dup4\n        /* \"contracts/manager/StaffManager.sol\":2103:2136  staffs[addressStaff].name = _name */\n      tag_130\n      jump\t// in\n    tag_129:\n      pop\n      sub(shl(0xa0, 0x01), 0x01)\n        /* \"contracts/manager/StaffManager.sol\":2146:2166  staffs[addressStaff] */\n      dup8\n      and\n      0x00\n      swap1\n      dup2\n      mstore\n        /* \"contracts/manager/StaffManager.sol\":2146:2152  staffs */\n      0x02\n        /* \"contracts/manager/StaffManager.sol\":2146:2166  staffs[addressStaff] */\n      0x20\n      dup2\n      swap1\n      mstore\n      0x40\n      swap1\n      swap2\n      keccak256\n        /* \"contracts/manager/StaffManager.sol\":2146:2170  staffs[addressStaff].dob */\n      add\n        /* \"contracts/manager/StaffManager.sol\":2146:2177  staffs[addressStaff].dob = _dob */\n      tag_131\n        /* \"contracts/manager/StaffManager.sol\":2173:2177  _dob */\n      dup5\n      dup7\n        /* \"contracts/manager/StaffManager.sol\":2146:2170  staffs[addressStaff].dob */\n      dup4\n        /* \"contracts/manager/StaffManager.sol\":2146:2177  staffs[addressStaff].dob = _dob */\n      tag_130\n      jump\t// in\n    tag_131:\n      pop\n      sub(shl(0xa0, 0x01), 0x01)\n        /* \"contracts/manager/StaffManager.sol\":2187:2207  staffs[addressStaff] */\n      dup8\n      and\n      0x00\n      swap1\n      dup2\n      mstore\n        /* \"contracts/manager/StaffManager.sol\":2187:2193  staffs */\n      0x02\n        /* \"contracts/manager/StaffManager.sol\":2187:2207  staffs[addressStaff] */\n      0x20\n      mstore\n      0x40\n      swap1\n      keccak256\n        /* \"contracts/manager/StaffManager.sol\":2187:2213  staffs[addressStaff].phone */\n      0x03\n      add\n        /* \"contracts/manager/StaffManager.sol\":2187:2222  staffs[addressStaff].phone = _phone */\n      tag_132\n        /* \"contracts/manager/StaffManager.sol\":2216:2222  _phone */\n      dup3\n      dup5\n        /* \"contracts/manager/StaffManager.sol\":2187:2213  staffs[addressStaff].phone */\n      dup4\n        /* \"contracts/manager/StaffManager.sol\":2187:2222  staffs[addressStaff].phone = _phone */\n      tag_130\n      jump\t// in\n    tag_132:\n      pop\n        /* \"contracts/manager/StaffManager.sol\":2250:2262  addressStaff */\n      dup7\n      sub(shl(0xa0, 0x01), 0x01)\n        /* \"contracts/manager/StaffManager.sol\":2237:2270  StaffUpdated(addressStaff, _name) */\n      and\n      0x3dcb5fe974f30b3e06b920890e4bdb2242f9f641c1d184169397248527bd9e4b\n        /* \"contracts/manager/StaffManager.sol\":2264:2269  _name */\n      dup8\n      dup8\n        /* \"contracts/manager/StaffManager.sol\":2237:2270  StaffUpdated(addressStaff, _name) */\n      mload(0x40)\n      tag_133\n      swap3\n      swap2\n      swap1\n      tag_134\n      jump\t// in\n    tag_133:\n      mload(0x40)\n      dup1\n      swap2\n      sub\n      swap1\n      log2\n        /* \"contracts/manager/StaffManager.sol\":1823:2277  function updateStaffInfo(... */\n      pop\n      pop\n      pop\n      pop\n      pop\n      pop\n      pop\n      jump\t// out\n        /* \"contracts/manager/StaffManager.sol\":3361:3676  function getStaffInOrder(address _staffAddress, uint _orderId) external view override returns (bool){... */\n    tag_41:\n        /* \"contracts/manager/StaffManager.sol\":3456:3460  bool */\n      0x00\n      dup1\n        /* \"contracts/manager/StaffManager.sol\":3471:3648  for(uint i = 0 ; i < staffInOrder[_staffAddress].length ;  i++){... */\n    tag_136:\n      sub(shl(0xa0, 0x01), 0x01)\n        /* \"contracts/manager/StaffManager.sol\":3492:3519  staffInOrder[_staffAddress] */\n      dup5\n      and\n      0x00\n      swap1\n      dup2\n      mstore\n        /* \"contracts/manager/StaffManager.sol\":3492:3504  staffInOrder */\n      0x04\n        /* \"contracts/manager/StaffManager.sol\":3492:3519  staffInOrder[_staffAddress] */\n      0x20\n      mstore\n      0x40\n      swap1\n      keccak256\n        /* \"contracts/manager/StaffManager.sol\":3492:3526  staffInOrder[_staffAddress].length */\n      sload\n        /* \"contracts/manager/StaffManager.sol\":3488:3526  i < staffInOrder[_staffAddress].length */\n      dup2\n      lt\n        /* \"contracts/manager/StaffManager.sol\":3471:3648  for(uint i = 0 ; i < staffInOrder[_staffAddress].length ;  i++){... */\n      iszero\n      tag_137\n      jumpi\n      sub(shl(0xa0, 0x01), 0x01)\n        /* \"contracts/manager/StaffManager.sol\":3551:3578  staffInOrder[_staffAddress] */\n      dup5\n      and\n      0x00\n      swap1\n      dup2\n      mstore\n        /* \"contracts/manager/StaffManager.sol\":3551:3563  staffInOrder */\n      0x04\n        /* \"contracts/manager/StaffManager.sol\":3551:3578  staffInOrder[_staffAddress] */\n      0x20\n      mstore\n      0x40\n      swap1\n      keccak256\n        /* \"contracts/manager/StaffManager.sol\":3551:3581  staffInOrder[_staffAddress][i] */\n      dup1\n      sload\n        /* \"contracts/manager/StaffManager.sol\":3584:3592  _orderId */\n      dup5\n      swap2\n        /* \"contracts/manager/StaffManager.sol\":3551:3578  staffInOrder[_staffAddress] */\n      swap1\n        /* \"contracts/manager/StaffManager.sol\":3579:3580  i */\n      dup4\n      swap1\n        /* \"contracts/manager/StaffManager.sol\":3551:3581  staffInOrder[_staffAddress][i] */\n      dup2\n      lt\n      tag_140\n      jumpi\n      tag_140\n      tag_86\n      jump\t// in\n    tag_140:\n      swap1\n      0x00\n      mstore\n      keccak256(0x00, 0x20)\n      add\n      sload\n        /* \"contracts/manager/StaffManager.sol\":3551:3592  staffInOrder[_staffAddress][i]== _orderId */\n      sub\n        /* \"contracts/manager/StaffManager.sol\":3548:3638  if(staffInOrder[_staffAddress][i]== _orderId ){... */\n      tag_142\n      jumpi\n        /* \"contracts/manager/StaffManager.sol\":3619:3623  true */\n      0x01\n        /* \"contracts/manager/StaffManager.sol\":3612:3623  return true */\n      swap2\n      pop\n      pop\n      jump(tag_135)\n        /* \"contracts/manager/StaffManager.sol\":3548:3638  if(staffInOrder[_staffAddress][i]== _orderId ){... */\n    tag_142:\n        /* \"contracts/manager/StaffManager.sol\":3530:3533  i++ */\n      0x01\n      add\n        /* \"contracts/manager/StaffManager.sol\":3471:3648  for(uint i = 0 ; i < staffInOrder[_staffAddress].length ;  i++){... */\n      jump(tag_136)\n    tag_137:\n      pop\n        /* \"contracts/manager/StaffManager.sol\":3664:3669  false */\n      0x00\n        /* \"contracts/manager/StaffManager.sol\":3657:3669  return false */\n      swap1\n      pop\n        /* \"contracts/manager/StaffManager.sol\":3361:3676  function getStaffInOrder(address _staffAddress, uint _orderId) external view override returns (bool){... */\n    tag_135:\n      swap3\n      swap2\n      pop\n      pop\n      jump\t// out\n        /* \"contracts/manager/StaffManager.sol\":3115:3356  function addRaingWhenOrderSuccess (address _staffAddress, uint _orderId) external override  {... */\n    tag_46:\n      sub(shl(0xa0, 0x01), 0x01)\n        /* \"contracts/manager/StaffManager.sol\":3225:3246  staffs[_staffAddress] */\n      dup3\n      dup2\n      and\n        /* \"contracts/manager/StaffManager.sol\":3271:3272  0 */\n      0x00\n        /* \"contracts/manager/StaffManager.sol\":3225:3246  staffs[_staffAddress] */\n      swap1\n      dup2\n      mstore\n        /* \"contracts/manager/StaffManager.sol\":3225:3231  staffs */\n      0x02\n        /* \"contracts/manager/StaffManager.sol\":3225:3246  staffs[_staffAddress] */\n      0x20\n      mstore\n      0x40\n      swap1\n      keccak256\n        /* \"contracts/manager/StaffManager.sol\":3225:3259  staffs[_staffAddress].staffAddress */\n      sload\n      and\n        /* \"contracts/manager/StaffManager.sol\":3225:3273  staffs[_staffAddress].staffAddress == address(0) */\n      iszero\n        /* \"contracts/manager/StaffManager.sol\":3217:3297  require(staffs[_staffAddress].staffAddress == address(0),\"Staff does not exist\") */\n      tag_144\n      jumpi\n      mload(0x40)\n      shl(0xe5, 0x461bcd)\n      dup2\n      mstore\n        /* \"#utility.yul\":11012:11014   */\n      0x20\n        /* \"contracts/manager/StaffManager.sol\":3217:3297  require(staffs[_staffAddress].staffAddress == address(0),\"Staff does not exist\") */\n      0x04\n      dup3\n      add\n        /* \"#utility.yul\":10994:11015   */\n      mstore\n        /* \"#utility.yul\":11051:11053   */\n      0x14\n        /* \"#utility.yul\":11031:11049   */\n      0x24\n      dup3\n      add\n        /* \"#utility.yul\":11024:11054   */\n      mstore\n      shl(0x62, 0x14dd18599988191bd95cc81b9bdd08195e1a5cdd)\n        /* \"#utility.yul\":11070:11088   */\n      0x44\n      dup3\n      add\n        /* \"#utility.yul\":11063:11113   */\n      mstore\n        /* \"#utility.yul\":11130:11148   */\n      0x64\n      add\n        /* \"contracts/manager/StaffManager.sol\":3217:3297  require(staffs[_staffAddress].staffAddress == address(0),\"Staff does not exist\") */\n      tag_127\n        /* \"#utility.yul\":10810:11154   */\n      jump\n        /* \"contracts/manager/StaffManager.sol\":3217:3297  require(staffs[_staffAddress].staffAddress == address(0),\"Staff does not exist\") */\n    tag_144:\n      sub(shl(0xa0, 0x01), 0x01)\n        /* \"contracts/manager/StaffManager.sol\":3307:3334  staffInOrder[_staffAddress] */\n      swap1\n      swap2\n      and\n      0x00\n      swap1\n      dup2\n      mstore\n        /* \"contracts/manager/StaffManager.sol\":3307:3319  staffInOrder */\n      0x04\n        /* \"contracts/manager/StaffManager.sol\":3307:3334  staffInOrder[_staffAddress] */\n      0x20\n      swap1\n      dup2\n      mstore\n      0x40\n      dup3\n      keccak256\n        /* \"contracts/manager/StaffManager.sol\":3307:3349  staffInOrder[_staffAddress].push(_orderId) */\n      dup1\n      sload\n      0x01\n      dup2\n      add\n      dup3\n      sstore\n      swap1\n      dup4\n      mstore\n      swap2\n      keccak256\n      add\n      sstore\n        /* \"contracts/manager/StaffManager.sol\":3115:3356  function addRaingWhenOrderSuccess (address _staffAddress, uint _orderId) external override  {... */\n      jump\t// out\n        /* \"contracts/manager/StaffManager.sol\":2283:2684  function addStaffToOrder(uint256 _orderId, address addressStaff)... */\n    tag_50:\n        /* \"contracts/manager/StaffManager.sol\":775:785  roleAccess */\n      sload(0x01)\n        /* \"contracts/manager/StaffManager.sol\":775:819  roleAccess.hasRole(tx.origin,RoleType.ADMIN) */\n      mload(0x40)\n      shl(0xe0, 0x95a8c58d)\n      dup2\n      mstore\n      sub(shl(0xa0, 0x01), 0x01)\n        /* \"contracts/manager/StaffManager.sol\":775:785  roleAccess */\n      swap1\n      swap2\n      and\n      swap1\n        /* \"contracts/manager/StaffManager.sol\":775:793  roleAccess.hasRole */\n      0x95a8c58d\n      swap1\n        /* \"contracts/manager/StaffManager.sol\":775:819  roleAccess.hasRole(tx.origin,RoleType.ADMIN) */\n      tag_149\n      swap1\n        /* \"contracts/manager/StaffManager.sol\":794:803  tx.origin */\n      origin\n      swap1\n        /* \"contracts/manager/StaffManager.sol\":775:785  roleAccess */\n      0x00\n      swap1\n        /* \"contracts/manager/StaffManager.sol\":775:819  roleAccess.hasRole(tx.origin,RoleType.ADMIN) */\n      0x04\n      add\n      tag_150\n      jump\t// in\n    tag_149:\n      0x20\n      mload(0x40)\n      dup1\n      dup4\n      sub\n      dup2\n      dup7\n      gas\n      staticcall\n      iszero\n      dup1\n      iszero\n      tag_152\n      jumpi\n      returndatacopy(0x00, 0x00, returndatasize)\n      revert(0x00, returndatasize)\n    tag_152:\n      pop\n      pop\n      pop\n      pop\n      mload(0x40)\n      returndatasize\n      not(0x1f)\n      0x1f\n      dup3\n      add\n      and\n      dup3\n      add\n      dup1\n      0x40\n      mstore\n      pop\n      dup2\n      add\n      swap1\n      tag_153\n      swap2\n      swap1\n      tag_154\n      jump\t// in\n    tag_153:\n        /* \"contracts/manager/StaffManager.sol\":767:833  require(roleAccess.hasRole(tx.origin,RoleType.ADMIN), \"Not admin\") */\n      tag_155\n      jumpi\n      mload(0x40)\n      shl(0xe5, 0x461bcd)\n      dup2\n      mstore\n      0x04\n      add\n      tag_127\n      swap1\n      tag_157\n      jump\t// in\n    tag_155:\n      sub(shl(0xa0, 0x01), 0x01)\n        /* \"contracts/manager/StaffManager.sol\":2422:2442  staffs[addressStaff] */\n      dup2\n      dup2\n      and\n        /* \"contracts/manager/StaffManager.sol\":2467:2468  0 */\n      0x00\n        /* \"contracts/manager/StaffManager.sol\":2422:2442  staffs[addressStaff] */\n      swap1\n      dup2\n      mstore\n        /* \"contracts/manager/StaffManager.sol\":2422:2428  staffs */\n      0x02\n        /* \"contracts/manager/StaffManager.sol\":2422:2442  staffs[addressStaff] */\n      0x20\n      mstore\n      0x40\n      swap1\n      keccak256\n        /* \"contracts/manager/StaffManager.sol\":2422:2455  staffs[addressStaff].staffAddress */\n      sload\n      and\n        /* \"contracts/manager/StaffManager.sol\":2414:2502  require(staffs[addressStaff].staffAddress != address(0), \"Staff address does not exist\") */\n      tag_159\n      jumpi\n      mload(0x40)\n      shl(0xe5, 0x461bcd)\n      dup2\n      mstore\n        /* \"#utility.yul\":8237:8239   */\n      0x20\n        /* \"contracts/manager/StaffManager.sol\":2414:2502  require(staffs[addressStaff].staffAddress != address(0), \"Staff address does not exist\") */\n      0x04\n      dup3\n      add\n        /* \"#utility.yul\":8219:8240   */\n      mstore\n        /* \"#utility.yul\":8276:8278   */\n      0x1c\n        /* \"#utility.yul\":8256:8274   */\n      0x24\n      dup3\n      add\n        /* \"#utility.yul\":8249:8279   */\n      mstore\n        /* \"#utility.yul\":8315:8345   */\n      0x5374616666206164647265737320646f6573206e6f7420657869737400000000\n        /* \"#utility.yul\":8295:8313   */\n      0x44\n      dup3\n      add\n        /* \"#utility.yul\":8288:8346   */\n      mstore\n        /* \"#utility.yul\":8363:8381   */\n      0x64\n      add\n        /* \"contracts/manager/StaffManager.sol\":2414:2502  require(staffs[addressStaff].staffAddress != address(0), \"Staff address does not exist\") */\n      tag_127\n        /* \"#utility.yul\":8035:8387   */\n      jump\n        /* \"contracts/manager/StaffManager.sol\":2414:2502  require(staffs[addressStaff].staffAddress != address(0), \"Staff address does not exist\") */\n    tag_159:\n      sub(shl(0xa0, 0x01), 0x01)\n        /* \"contracts/manager/StaffManager.sol\":2512:2532  staffs[addressStaff] */\n      dup2\n      dup2\n      and\n      0x00\n      dup2\n      dup2\n      mstore\n        /* \"contracts/manager/StaffManager.sol\":2512:2518  staffs */\n      0x02\n        /* \"contracts/manager/StaffManager.sol\":2512:2532  staffs[addressStaff] */\n      0x20\n      mstore\n      0x40\n      dup1\n      dup3\n      keccak256\n        /* \"contracts/manager/StaffManager.sol\":2512:2539  staffs[addressStaff].status */\n      0x06\n      add\n        /* \"contracts/manager/StaffManager.sol\":2512:2558  staffs[addressStaff].status = StaffStatus.Busy */\n      dup1\n      sload\n      not(0xff)\n      and\n        /* \"contracts/manager/StaffManager.sol\":2542:2558  StaffStatus.Busy */\n      0x01\n        /* \"contracts/manager/StaffManager.sol\":2512:2558  staffs[addressStaff].status = StaffStatus.Busy */\n      or\n      swap1\n      sstore\n        /* \"contracts/manager/StaffManager.sol\":2568:2580  orderManager */\n      swap1\n      sload\n        /* \"contracts/manager/StaffManager.sol\":2568:2621  orderManager.addStaffForOrder(_orderId, addressStaff) */\n      swap1\n      mload\n      shl(0xe0, 0x7ea076a3)\n      dup2\n      mstore\n      0x04\n      dup2\n      add\n        /* \"#utility.yul\":12291:12316   */\n      dup7\n      swap1\n      mstore\n        /* \"#utility.yul\":12332:12350   */\n      0x24\n      dup2\n      add\n        /* \"#utility.yul\":12325:12385   */\n      swap3\n      swap1\n      swap3\n      mstore\n        /* \"contracts/manager/StaffManager.sol\":2568:2580  orderManager */\n      swap1\n      swap2\n      and\n      swap1\n        /* \"contracts/manager/StaffManager.sol\":2568:2597  orderManager.addStaffForOrder */\n      0x7ea076a3\n      swap1\n        /* \"#utility.yul\":12264:12282   */\n      0x44\n      add\n        /* \"contracts/manager/StaffManager.sol\":2568:2621  orderManager.addStaffForOrder(_orderId, addressStaff) */\n      0x00\n      mload(0x40)\n      dup1\n      dup4\n      sub\n      dup2\n      0x00\n      dup8\n      dup1\n      extcodesize\n      iszero\n      dup1\n      iszero\n      tag_165\n      jumpi\n      revert(0x00, 0x00)\n    tag_165:\n      pop\n      gas\n      call\n      iszero\n      dup1\n      iszero\n      tag_167\n      jumpi\n      returndatacopy(0x00, 0x00, returndatasize)\n      revert(0x00, returndatasize)\n    tag_167:\n      pop\n      pop\n      pop\n      pop\n        /* \"contracts/manager/StaffManager.sol\":2654:2666  addressStaff */\n      dup1\n      sub(shl(0xa0, 0x01), 0x01)\n        /* \"contracts/manager/StaffManager.sol\":2636:2677  StaffAddedToOrder(addressStaff, _orderId) */\n      and\n      0x9db6c9b6c2a287d549df6b984d957053e5f3782439393782b3b61f71715cbe93\n        /* \"contracts/manager/StaffManager.sol\":2668:2676  _orderId */\n      dup4\n        /* \"contracts/manager/StaffManager.sol\":2636:2677  StaffAddedToOrder(addressStaff, _orderId) */\n      mload(0x40)\n      tag_168\n      swap2\n        /* \"#utility.yul\":3012:3037   */\n      dup2\n      mstore\n        /* \"#utility.yul\":3000:3002   */\n      0x20\n        /* \"#utility.yul\":2985:3003   */\n      add\n      swap1\n        /* \"#utility.yul\":2866:3043   */\n      jump\n        /* \"contracts/manager/StaffManager.sol\":2636:2677  StaffAddedToOrder(addressStaff, _orderId) */\n    tag_168:\n      mload(0x40)\n      dup1\n      swap2\n      sub\n      swap1\n      log2\n        /* \"contracts/manager/StaffManager.sol\":2283:2684  function addStaffToOrder(uint256 _orderId, address addressStaff)... */\n      pop\n      pop\n      jump\t// out\n        /* \"contracts/manager/StaffManager.sol\":298:337  mapping(address => Staff) public staffs */\n    tag_54:\n      mstore(0x20, 0x02)\n      0x00\n      swap1\n      dup2\n      mstore\n      0x40\n      swap1\n      keccak256\n      dup1\n      sload\n      0x01\n      dup3\n      add\n      dup1\n      sload\n      sub(shl(0xa0, 0x01), 0x01)\n      swap1\n      swap3\n      and\n      swap3\n      swap2\n      tag_169\n      swap1\n      tag_89\n      jump\t// in\n    tag_169:\n      dup1\n      0x1f\n      add\n      0x20\n      dup1\n      swap2\n      div\n      mul\n      0x20\n      add\n      mload(0x40)\n      swap1\n      dup2\n      add\n      0x40\n      mstore\n      dup1\n      swap3\n      swap2\n      swap1\n      dup2\n      dup2\n      mstore\n      0x20\n      add\n      dup3\n      dup1\n      sload\n      tag_170\n      swap1\n      tag_89\n      jump\t// in\n    tag_170:\n      dup1\n      iszero\n      tag_171\n      jumpi\n      dup1\n      0x1f\n      lt\n      tag_172\n      jumpi\n      0x0100\n      dup1\n      dup4\n      sload\n      div\n      mul\n      dup4\n      mstore\n      swap2\n      0x20\n      add\n      swap2\n      jump(tag_171)\n    tag_172:\n      dup3\n      add\n      swap2\n      swap1\n      0x00\n      mstore\n      keccak256(0x00, 0x20)\n      swap1\n    tag_173:\n      dup2\n      sload\n      dup2\n      mstore\n      swap1\n      0x01\n      add\n      swap1\n      0x20\n      add\n      dup1\n      dup4\n      gt\n      tag_173\n      jumpi\n      dup3\n      swap1\n      sub\n      0x1f\n      and\n      dup3\n      add\n      swap2\n    tag_171:\n      pop\n      pop\n      pop\n      pop\n      pop\n      swap1\n      dup1\n      0x02\n      add\n      dup1\n      sload\n      tag_174\n      swap1\n      tag_89\n      jump\t// in\n    tag_174:\n      dup1\n      0x1f\n      add\n      0x20\n      dup1\n      swap2\n      div\n      mul\n      0x20\n      add\n      mload(0x40)\n      swap1\n      dup2\n      add\n      0x40\n      mstore\n      dup1\n      swap3\n      swap2\n      swap1\n      dup2\n      dup2\n      mstore\n      0x20\n      add\n      dup3\n      dup1\n      sload\n      tag_175\n      swap1\n      tag_89\n      jump\t// in\n    tag_175:\n      dup1\n      iszero\n      tag_176\n      jumpi\n      dup1\n      0x1f\n      lt\n      tag_177\n      jumpi\n      0x0100\n      dup1\n      dup4\n      sload\n      div\n      mul\n      dup4\n      mstore\n      swap2\n      0x20\n      add\n      swap2\n      jump(tag_176)\n    tag_177:\n      dup3\n      add\n      swap2\n      swap1\n      0x00\n      mstore\n      keccak256(0x00, 0x20)\n      swap1\n    tag_178:\n      dup2\n      sload\n      dup2\n      mstore\n      swap1\n      0x01\n      add\n      swap1\n      0x20\n      add\n      dup1\n      dup4\n      gt\n      tag_178\n      jumpi\n      dup3\n      swap1\n      sub\n      0x1f\n      and\n      dup3\n      add\n      swap2\n    tag_176:\n      pop\n      pop\n      pop\n      pop\n      pop\n      swap1\n      dup1\n      0x03\n      add\n      dup1\n      sload\n      tag_179\n      swap1\n      tag_89\n      jump\t// in\n    tag_179:\n      dup1\n      0x1f\n      add\n      0x20\n      dup1\n      swap2\n      div\n      mul\n      0x20\n      add\n      mload(0x40)\n      swap1\n      dup2\n      add\n      0x40\n      mstore\n      dup1\n      swap3\n      swap2\n      swap1\n      dup2\n      dup2\n      mstore\n      0x20\n      add\n      dup3\n      dup1\n      sload\n      tag_180\n      swap1\n      tag_89\n      jump\t// in\n    tag_180:\n      dup1\n      iszero\n      tag_181\n      jumpi\n      dup1\n      0x1f\n      lt\n      tag_182\n      jumpi\n      0x0100\n      dup1\n      dup4\n      sload\n      div\n      mul\n      dup4\n      mstore\n      swap2\n      0x20\n      add\n      swap2\n      jump(tag_181)\n    tag_182:\n      dup3\n      add\n      swap2\n      swap1\n      0x00\n      mstore\n      keccak256(0x00, 0x20)\n      swap1\n    tag_183:\n      dup2\n      sload\n      dup2\n      mstore\n      swap1\n      0x01\n      add\n      swap1\n      0x20\n      add\n      dup1\n      dup4\n      gt\n      tag_183\n      jumpi\n      dup3\n      swap1\n      sub\n      0x1f\n      and\n      dup3\n      add\n      swap2\n    tag_181:\n      pop\n      pop\n      pop\n      pop\n      0x04\n      dup4\n      add\n      sload\n      0x05\n      dup5\n      add\n      sload\n      0x06\n      swap1\n      swap5\n      add\n      sload\n      swap3\n      swap4\n      swap1\n      swap3\n      swap1\n      swap2\n      pop\n      0xff\n      and\n      dup8\n      jump\t// out\n        /* \"contracts/manager/StaffManager.sol\":856:1348  function addStaff(... */\n    tag_59:\n        /* \"contracts/manager/StaffManager.sol\":775:785  roleAccess */\n      sload(0x01)\n        /* \"contracts/manager/StaffManager.sol\":775:819  roleAccess.hasRole(tx.origin,RoleType.ADMIN) */\n      mload(0x40)\n      shl(0xe0, 0x95a8c58d)\n      dup2\n      mstore\n      sub(shl(0xa0, 0x01), 0x01)\n        /* \"contracts/manager/StaffManager.sol\":775:785  roleAccess */\n      swap1\n      swap2\n      and\n      swap1\n        /* \"contracts/manager/StaffManager.sol\":775:793  roleAccess.hasRole */\n      0x95a8c58d\n      swap1\n        /* \"contracts/manager/StaffManager.sol\":775:819  roleAccess.hasRole(tx.origin,RoleType.ADMIN) */\n      tag_185\n      swap1\n        /* \"contracts/manager/StaffManager.sol\":794:803  tx.origin */\n      origin\n      swap1\n        /* \"contracts/manager/StaffManager.sol\":775:785  roleAccess */\n      0x00\n      swap1\n        /* \"contracts/manager/StaffManager.sol\":775:819  roleAccess.hasRole(tx.origin,RoleType.ADMIN) */\n      0x04\n      add\n      tag_150\n      jump\t// in\n    tag_185:\n      0x20\n      mload(0x40)\n      dup1\n      dup4\n      sub\n      dup2\n      dup7\n      gas\n      staticcall\n      iszero\n      dup1\n      iszero\n      tag_187\n      jumpi\n      returndatacopy(0x00, 0x00, returndatasize)\n      revert(0x00, returndatasize)\n    tag_187:\n      pop\n      pop\n      pop\n      pop\n      mload(0x40)\n      returndatasize\n      not(0x1f)\n      0x1f\n      dup3\n      add\n      and\n      dup3\n      add\n      dup1\n      0x40\n      mstore\n      pop\n      dup2\n      add\n      swap1\n      tag_188\n      swap2\n      swap1\n      tag_154\n      jump\t// in\n    tag_188:\n        /* \"contracts/manager/StaffManager.sol\":767:833  require(roleAccess.hasRole(tx.origin,RoleType.ADMIN), \"Not admin\") */\n      tag_189\n      jumpi\n      mload(0x40)\n      shl(0xe5, 0x461bcd)\n      dup2\n      mstore\n      0x04\n      add\n      tag_127\n      swap1\n      tag_157\n      jump\t// in\n    tag_189:\n      sub(shl(0xa0, 0x01), 0x01)\n        /* \"contracts/manager/StaffManager.sol\":1049:1075  addressStaff != address(0) */\n      dup8\n      and\n        /* \"contracts/manager/StaffManager.sol\":1041:1101  require(addressStaff != address(0), \"Invalid staff address\") */\n      tag_192\n      jumpi\n      mload(0x40)\n      shl(0xe5, 0x461bcd)\n      dup2\n      mstore\n        /* \"#utility.yul\":12598:12600   */\n      0x20\n        /* \"contracts/manager/StaffManager.sol\":1041:1101  require(addressStaff != address(0), \"Invalid staff address\") */\n      0x04\n      dup3\n      add\n        /* \"#utility.yul\":12580:12601   */\n      mstore\n        /* \"#utility.yul\":12637:12639   */\n      0x15\n        /* \"#utility.yul\":12617:12635   */\n      0x24\n      dup3\n      add\n        /* \"#utility.yul\":12610:12640   */\n      mstore\n      shl(0x58, 0x496e76616c69642073746166662061646472657373)\n        /* \"#utility.yul\":12656:12674   */\n      0x44\n      dup3\n      add\n        /* \"#utility.yul\":12649:12700   */\n      mstore\n        /* \"#utility.yul\":12717:12735   */\n      0x64\n      add\n        /* \"contracts/manager/StaffManager.sol\":1041:1101  require(addressStaff != address(0), \"Invalid staff address\") */\n      tag_127\n        /* \"#utility.yul\":12396:12741   */\n      jump\n        /* \"contracts/manager/StaffManager.sol\":1041:1101  require(addressStaff != address(0), \"Invalid staff address\") */\n    tag_192:\n      sub(shl(0xa0, 0x01), 0x01)\n        /* \"contracts/manager/StaffManager.sol\":1119:1139  staffs[addressStaff] */\n      dup8\n      dup2\n      and\n        /* \"contracts/manager/StaffManager.sol\":1164:1165  0 */\n      0x00\n        /* \"contracts/manager/StaffManager.sol\":1119:1139  staffs[addressStaff] */\n      swap1\n      dup2\n      mstore\n        /* \"contracts/manager/StaffManager.sol\":1119:1125  staffs */\n      0x02\n        /* \"contracts/manager/StaffManager.sol\":1119:1139  staffs[addressStaff] */\n      0x20\n      mstore\n      0x40\n      swap1\n      keccak256\n        /* \"contracts/manager/StaffManager.sol\":1119:1152  staffs[addressStaff].staffAddress */\n      sload\n      and\n        /* \"contracts/manager/StaffManager.sol\":1119:1166  staffs[addressStaff].staffAddress == address(0) */\n      iszero\n        /* \"contracts/manager/StaffManager.sol\":1111:1199  require(staffs[addressStaff].staffAddress == address(0), \"Staff address already exists\") */\n      tag_195\n      jumpi\n      mload(0x40)\n      shl(0xe5, 0x461bcd)\n      dup2\n      mstore\n        /* \"#utility.yul\":12948:12950   */\n      0x20\n        /* \"contracts/manager/StaffManager.sol\":1111:1199  require(staffs[addressStaff].staffAddress == address(0), \"Staff address already exists\") */\n      0x04\n      dup3\n      add\n        /* \"#utility.yul\":12930:12951   */\n      mstore\n        /* \"#utility.yul\":12987:12989   */\n      0x1c\n        /* \"#utility.yul\":12967:12985   */\n      0x24\n      dup3\n      add\n        /* \"#utility.yul\":12960:12990   */\n      mstore\n        /* \"#utility.yul\":13026:13056   */\n      0x5374616666206164647265737320616c72656164792065786973747300000000\n        /* \"#utility.yul\":13006:13024   */\n      0x44\n      dup3\n      add\n        /* \"#utility.yul\":12999:13057   */\n      mstore\n        /* \"#utility.yul\":13074:13092   */\n      0x64\n      add\n        /* \"contracts/manager/StaffManager.sol\":1111:1199  require(staffs[addressStaff].staffAddress == address(0), \"Staff address already exists\") */\n      tag_127\n        /* \"#utility.yul\":12746:13098   */\n      jump\n        /* \"contracts/manager/StaffManager.sol\":1111:1199  require(staffs[addressStaff].staffAddress == address(0), \"Staff address already exists\") */\n    tag_195:\n        /* \"contracts/manager/StaffManager.sol\":1232:1295  Staff(addressStaff, _name, _dob, _phone, 0, 0,StaffStatus.Free) */\n      mload(0x40)\n      dup1\n      0xe0\n      add\n      0x40\n      mstore\n      dup1\n        /* \"contracts/manager/StaffManager.sol\":1238:1250  addressStaff */\n      dup9\n      sub(shl(0xa0, 0x01), 0x01)\n        /* \"contracts/manager/StaffManager.sol\":1232:1295  Staff(addressStaff, _name, _dob, _phone, 0, 0,StaffStatus.Free) */\n      and\n      dup2\n      mstore\n      0x20\n      add\n        /* \"contracts/manager/StaffManager.sol\":1252:1257  _name */\n      dup8\n      dup8\n        /* \"contracts/manager/StaffManager.sol\":1232:1295  Staff(addressStaff, _name, _dob, _phone, 0, 0,StaffStatus.Free) */\n      dup1\n      dup1\n      0x1f\n      add\n      0x20\n      dup1\n      swap2\n      div\n      mul\n      0x20\n      add\n      mload(0x40)\n      swap1\n      dup2\n      add\n      0x40\n      mstore\n      dup1\n      swap4\n      swap3\n      swap2\n      swap1\n      dup2\n      dup2\n      mstore\n      0x20\n      add\n      dup4\n      dup4\n      dup1\n      dup3\n      dup5\n      calldatacopy\n      0x00\n      swap3\n      add\n      swap2\n      swap1\n      swap2\n      mstore\n      pop\n      pop\n      pop\n      swap1\n      dup3\n      mstore\n      pop\n      0x40\n      dup1\n      mload\n      0x20\n      0x1f\n      dup9\n      add\n      dup2\n      swap1\n      div\n      dup2\n      mul\n      dup3\n      add\n      dup2\n      add\n      swap1\n      swap3\n      mstore\n      dup7\n      dup2\n      mstore\n      swap2\n      dup2\n      add\n      swap2\n      swap1\n        /* \"contracts/manager/StaffManager.sol\":1259:1263  _dob */\n      dup8\n      swap1\n      dup8\n      swap1\n      dup2\n      swap1\n        /* \"contracts/manager/StaffManager.sol\":1232:1295  Staff(addressStaff, _name, _dob, _phone, 0, 0,StaffStatus.Free) */\n      dup5\n      add\n        /* \"contracts/manager/StaffManager.sol\":1259:1263  _dob */\n      dup4\n      dup3\n      dup1\n      dup3\n        /* \"contracts/manager/StaffManager.sol\":1232:1295  Staff(addressStaff, _name, _dob, _phone, 0, 0,StaffStatus.Free) */\n      dup5\n      calldatacopy\n      0x00\n      swap3\n      add\n      swap2\n      swap1\n      swap2\n      mstore\n      pop\n      pop\n      pop\n      swap1\n      dup3\n      mstore\n      pop\n      0x40\n      dup1\n      mload\n      0x20\n      0x1f\n      dup7\n      add\n      dup2\n      swap1\n      div\n      dup2\n      mul\n      dup3\n      add\n      dup2\n      add\n      swap1\n      swap3\n      mstore\n      dup5\n      dup2\n      mstore\n      swap2\n      dup2\n      add\n      swap2\n      swap1\n        /* \"contracts/manager/StaffManager.sol\":1265:1271  _phone */\n      dup6\n      swap1\n      dup6\n      swap1\n      dup2\n      swap1\n        /* \"contracts/manager/StaffManager.sol\":1232:1295  Staff(addressStaff, _name, _dob, _phone, 0, 0,StaffStatus.Free) */\n      dup5\n      add\n        /* \"contracts/manager/StaffManager.sol\":1265:1271  _phone */\n      dup4\n      dup3\n      dup1\n      dup3\n        /* \"contracts/manager/StaffManager.sol\":1232:1295  Staff(addressStaff, _name, _dob, _phone, 0, 0,StaffStatus.Free) */\n      dup5\n      calldatacopy\n      0x00\n      swap3\n      add\n      dup3\n      swap1\n      mstore\n      pop\n      swap4\n      dup6\n      mstore\n      pop\n      pop\n      pop\n      0x20\n      dup3\n      add\n      dup2\n      swap1\n      mstore\n      0x40\n      dup3\n      add\n      dup2\n      swap1\n      mstore\n      0x60\n      swap1\n      swap2\n      add\n      mstore\n      sub(shl(0xa0, 0x01), 0x01)\n        /* \"contracts/manager/StaffManager.sol\":1209:1229  staffs[addressStaff] */\n      dup9\n      dup2\n      and\n      0x00\n      swap1\n      dup2\n      mstore\n        /* \"contracts/manager/StaffManager.sol\":1209:1215  staffs */\n      0x02\n        /* \"contracts/manager/StaffManager.sol\":1209:1229  staffs[addressStaff] */\n      0x20\n      swap1\n      dup2\n      mstore\n      0x40\n      swap1\n      swap2\n      keccak256\n        /* \"contracts/manager/StaffManager.sol\":1209:1295  staffs[addressStaff] = Staff(addressStaff, _name, _dob, _phone, 0, 0,StaffStatus.Free) */\n      dup4\n      mload\n      dup2\n      sload\n      not(sub(shl(0xa0, 0x01), 0x01))\n      and\n      swap4\n      and\n      swap3\n      swap1\n      swap3\n      or\n      dup3\n      sstore\n      dup3\n      add\n      mload\n      0x01\n      dup3\n      add\n      swap1\n      tag_200\n      swap1\n      dup3\n      tag_201\n      jump\t// in\n    tag_200:\n      pop\n      0x40\n      dup3\n      add\n      mload\n      0x02\n      dup3\n      add\n      swap1\n      tag_202\n      swap1\n      dup3\n      tag_201\n      jump\t// in\n    tag_202:\n      pop\n      0x60\n      dup3\n      add\n      mload\n      0x03\n      dup3\n      add\n      swap1\n      tag_203\n      swap1\n      dup3\n      tag_201\n      jump\t// in\n    tag_203:\n      pop\n      0x80\n      dup3\n      add\n      mload\n      0x04\n      dup3\n      add\n      sstore\n      0xa0\n      dup3\n      add\n      mload\n      0x05\n      dup3\n      add\n      sstore\n      0xc0\n      dup3\n      add\n      mload\n      0x06\n      dup3\n      add\n      dup1\n      sload\n      not(0xff)\n      and\n      0x01\n      dup4\n      dup2\n      dup2\n      gt\n      iszero\n      tag_205\n      jumpi\n      tag_205\n      tag_106\n      jump\t// in\n    tag_205:\n      mul\n      or\n      swap1\n      sstore\n      pop\n      swap1\n      pop\n      pop\n        /* \"contracts/manager/StaffManager.sol\":1321:1333  addressStaff */\n      dup7\n      sub(shl(0xa0, 0x01), 0x01)\n        /* \"contracts/manager/StaffManager.sol\":1310:1341  StaffAdded(addressStaff, _name) */\n      and\n      0x3985ff4d998287fd60ca803c8ceccc30f94edcc70957500af9fcfd47f2f544c7\n        /* \"contracts/manager/StaffManager.sol\":1335:1340  _name */\n      dup8\n      dup8\n        /* \"contracts/manager/StaffManager.sol\":1310:1341  StaffAdded(addressStaff, _name) */\n      mload(0x40)\n      tag_133\n      swap3\n      swap2\n      swap1\n      tag_134\n      jump\t// in\n        /* \"contracts/manager/StaffManager.sol\":1354:1520  function getStaff(address addressStaff)... */\n    tag_62:\n        /* \"contracts/manager/StaffManager.sol\":1458:1470  Staff memory */\n      tag_207\n      tag_80\n      jump\t// in\n    tag_207:\n      sub(shl(0xa0, 0x01), 0x01)\n        /* \"contracts/manager/StaffManager.sol\":1493:1513  staffs[addressStaff] */\n      dup1\n      dup4\n      and\n      0x00\n      swap1\n      dup2\n      mstore\n        /* \"contracts/manager/StaffManager.sol\":1493:1499  staffs */\n      0x02\n        /* \"contracts/manager/StaffManager.sol\":1493:1513  staffs[addressStaff] */\n      0x20\n      swap1\n      dup2\n      mstore\n      0x40\n      swap2\n      dup3\n      swap1\n      keccak256\n        /* \"contracts/manager/StaffManager.sol\":1486:1513  return staffs[addressStaff] */\n      dup3\n      mload\n      0xe0\n      dup2\n      add\n      swap1\n      swap4\n      mstore\n      dup1\n      sload\n      swap1\n      swap4\n      and\n      dup3\n      mstore\n      0x01\n      dup4\n      add\n      dup1\n      sload\n      swap3\n      swap4\n        /* \"contracts/manager/StaffManager.sol\":1493:1513  staffs[addressStaff] */\n      swap3\n        /* \"contracts/manager/StaffManager.sol\":1486:1513  return staffs[addressStaff] */\n      swap2\n      dup5\n      add\n      swap2\n      tag_209\n      swap1\n      tag_89\n      jump\t// in\n    tag_209:\n      dup1\n      0x1f\n      add\n      0x20\n      dup1\n      swap2\n      div\n      mul\n      0x20\n      add\n      mload(0x40)\n      swap1\n      dup2\n      add\n      0x40\n      mstore\n      dup1\n      swap3\n      swap2\n      swap1\n      dup2\n      dup2\n      mstore\n      0x20\n      add\n      dup3\n      dup1\n      sload\n      tag_210\n      swap1\n      tag_89\n      jump\t// in\n    tag_210:\n      dup1\n      iszero\n      tag_211\n      jumpi\n      dup1\n      0x1f\n      lt\n      tag_212\n      jumpi\n      0x0100\n      dup1\n      dup4\n      sload\n      div\n      mul\n      dup4\n      mstore\n      swap2\n      0x20\n      add\n      swap2\n      jump(tag_211)\n    tag_212:\n      dup3\n      add\n      swap2\n      swap1\n      0x00\n      mstore\n      keccak256(0x00, 0x20)\n      swap1\n    tag_213:\n      dup2\n      sload\n      dup2\n      mstore\n      swap1\n      0x01\n      add\n      swap1\n      0x20\n      add\n      dup1\n      dup4\n      gt\n      tag_213\n      jumpi\n      dup3\n      swap1\n      sub\n      0x1f\n      and\n      dup3\n      add\n      swap2\n    tag_211:\n      pop\n      pop\n      pop\n      pop\n      pop\n      dup2\n      mstore\n      0x20\n      add\n      0x02\n      dup3\n      add\n      dup1\n      sload\n      tag_214\n      swap1\n      tag_89\n      jump\t// in\n    tag_214:\n      dup1\n      0x1f\n      add\n      0x20\n      dup1\n      swap2\n      div\n      mul\n      0x20\n      add\n      mload(0x40)\n      swap1\n      dup2\n      add\n      0x40\n      mstore\n      dup1\n      swap3\n      swap2\n      swap1\n      dup2\n      dup2\n      mstore\n      0x20\n      add\n      dup3\n      dup1\n      sload\n      tag_215\n      swap1\n      tag_89\n      jump\t// in\n    tag_215:\n      dup1\n      iszero\n      tag_216\n      jumpi\n      dup1\n      0x1f\n      lt\n      tag_217\n      jumpi\n      0x0100\n      dup1\n      dup4\n      sload\n      div\n      mul\n      dup4\n      mstore\n      swap2\n      0x20\n      add\n      swap2\n      jump(tag_216)\n    tag_217:\n      dup3\n      add\n      swap2\n      swap1\n      0x00\n      mstore\n      keccak256(0x00, 0x20)\n      swap1\n    tag_218:\n      dup2\n      sload\n      dup2\n      mstore\n      swap1\n      0x01\n      add\n      swap1\n      0x20\n      add\n      dup1\n      dup4\n      gt\n      tag_218\n      jumpi\n      dup3\n      swap1\n      sub\n      0x1f\n      and\n      dup3\n      add\n      swap2\n    tag_216:\n      pop\n      pop\n      pop\n      pop\n      pop\n      dup2\n      mstore\n      0x20\n      add\n      0x03\n      dup3\n      add\n      dup1\n      sload\n      tag_219\n      swap1\n      tag_89\n      jump\t// in\n    tag_219:\n      dup1\n      0x1f\n      add\n      0x20\n      dup1\n      swap2\n      div\n      mul\n      0x20\n      add\n      mload(0x40)\n      swap1\n      dup2\n      add\n      0x40\n      mstore\n      dup1\n      swap3\n      swap2\n      swap1\n      dup2\n      dup2\n      mstore\n      0x20\n      add\n      dup3\n      dup1\n      sload\n      tag_220\n      swap1\n      tag_89\n      jump\t// in\n    tag_220:\n      dup1\n      iszero\n      tag_221\n      jumpi\n      dup1\n      0x1f\n      lt\n      tag_222\n      jumpi\n      0x0100\n      dup1\n      dup4\n      sload\n      div\n      mul\n      dup4\n      mstore\n      swap2\n      0x20\n      add\n      swap2\n      jump(tag_221)\n    tag_222:\n      dup3\n      add\n      swap2\n      swap1\n      0x00\n      mstore\n      keccak256(0x00, 0x20)\n      swap1\n    tag_223:\n      dup2\n      sload\n      dup2\n      mstore\n      swap1\n      0x01\n      add\n      swap1\n      0x20\n      add\n      dup1\n      dup4\n      gt\n      tag_223\n      jumpi\n      dup3\n      swap1\n      sub\n      0x1f\n      and\n      dup3\n      add\n      swap2\n    tag_221:\n      pop\n      pop\n      pop\n      swap2\n      dup4\n      mstore\n      pop\n      pop\n      0x04\n      dup3\n      add\n      sload\n      0x20\n      dup3\n      add\n      mstore\n      0x05\n      dup3\n      add\n      sload\n      0x40\n      dup3\n      add\n      mstore\n      0x06\n      dup3\n      add\n      sload\n      0x60\n      swap1\n      swap2\n      add\n      swap1\n      0xff\n      and\n      0x01\n      dup2\n      gt\n      iszero\n      tag_225\n      jumpi\n      tag_225\n      tag_106\n      jump\t// in\n    tag_225:\n      0x01\n      dup2\n      gt\n      iszero\n      tag_227\n      jumpi\n      tag_227\n      tag_106\n      jump\t// in\n    tag_227:\n      swap1\n      mstore\n      pop\n      swap3\n        /* \"contracts/manager/StaffManager.sol\":1354:1520  function getStaff(address addressStaff)... */\n      swap2\n      pop\n      pop\n      jump\t// out\n        /* \"contracts/manager/StaffManager.sol\":2690:3110  function updateRatingStaff(... */\n    tag_68:\n        /* \"contracts/manager/StaffManager.sol\":775:785  roleAccess */\n      sload(0x01)\n        /* \"contracts/manager/StaffManager.sol\":775:819  roleAccess.hasRole(tx.origin,RoleType.ADMIN) */\n      mload(0x40)\n      shl(0xe0, 0x95a8c58d)\n      dup2\n      mstore\n      sub(shl(0xa0, 0x01), 0x01)\n        /* \"contracts/manager/StaffManager.sol\":775:785  roleAccess */\n      swap1\n      swap2\n      and\n      swap1\n        /* \"contracts/manager/StaffManager.sol\":775:793  roleAccess.hasRole */\n      0x95a8c58d\n      swap1\n        /* \"contracts/manager/StaffManager.sol\":775:819  roleAccess.hasRole(tx.origin,RoleType.ADMIN) */\n      tag_229\n      swap1\n        /* \"contracts/manager/StaffManager.sol\":794:803  tx.origin */\n      origin\n      swap1\n        /* \"contracts/manager/StaffManager.sol\":775:785  roleAccess */\n      0x00\n      swap1\n        /* \"contracts/manager/StaffManager.sol\":775:819  roleAccess.hasRole(tx.origin,RoleType.ADMIN) */\n      0x04\n      add\n      tag_150\n      jump\t// in\n    tag_229:\n      0x20\n      mload(0x40)\n      dup1\n      dup4\n      sub\n      dup2\n      dup7\n      gas\n      staticcall\n      iszero\n      dup1\n      iszero\n      tag_231\n      jumpi\n      returndatacopy(0x00, 0x00, returndatasize)\n      revert(0x00, returndatasize)\n    tag_231:\n      pop\n      pop\n      pop\n      pop\n      mload(0x40)\n      returndatasize\n      not(0x1f)\n      0x1f\n      dup3\n      add\n      and\n      dup3\n      add\n      dup1\n      0x40\n      mstore\n      pop\n      dup2\n      add\n      swap1\n      tag_232\n      swap2\n      swap1\n      tag_154\n      jump\t// in\n    tag_232:\n        /* \"contracts/manager/StaffManager.sol\":767:833  require(roleAccess.hasRole(tx.origin,RoleType.ADMIN), \"Not admin\") */\n      tag_233\n      jumpi\n      mload(0x40)\n      shl(0xe5, 0x461bcd)\n      dup2\n      mstore\n      0x04\n      add\n      tag_127\n      swap1\n      tag_157\n      jump\t// in\n    tag_233:\n      sub(shl(0xa0, 0x01), 0x01)\n        /* \"contracts/manager/StaffManager.sol\":2848:2868  staffs[addressStaff] */\n      dup4\n      dup2\n      and\n        /* \"contracts/manager/StaffManager.sol\":2893:2894  0 */\n      0x00\n        /* \"contracts/manager/StaffManager.sol\":2848:2868  staffs[addressStaff] */\n      swap1\n      dup2\n      mstore\n        /* \"contracts/manager/StaffManager.sol\":2848:2854  staffs */\n      0x02\n        /* \"contracts/manager/StaffManager.sol\":2848:2868  staffs[addressStaff] */\n      0x20\n      mstore\n      0x40\n      swap1\n      keccak256\n        /* \"contracts/manager/StaffManager.sol\":2848:2881  staffs[addressStaff].staffAddress */\n      sload\n      and\n        /* \"contracts/manager/StaffManager.sol\":2840:2920  require(staffs[addressStaff].staffAddress != address(0), \"Staff does not exist\") */\n      tag_236\n      jumpi\n      mload(0x40)\n      shl(0xe5, 0x461bcd)\n      dup2\n      mstore\n        /* \"#utility.yul\":11012:11014   */\n      0x20\n        /* \"contracts/manager/StaffManager.sol\":2840:2920  require(staffs[addressStaff].staffAddress != address(0), \"Staff does not exist\") */\n      0x04\n      dup3\n      add\n        /* \"#utility.yul\":10994:11015   */\n      mstore\n        /* \"#utility.yul\":11051:11053   */\n      0x14\n        /* \"#utility.yul\":11031:11049   */\n      0x24\n      dup3\n      add\n        /* \"#utility.yul\":11024:11054   */\n      mstore\n      shl(0x62, 0x14dd18599988191bd95cc81b9bdd08195e1a5cdd)\n        /* \"#utility.yul\":11070:11088   */\n      0x44\n      dup3\n      add\n        /* \"#utility.yul\":11063:11113   */\n      mstore\n        /* \"#utility.yul\":11130:11148   */\n      0x64\n      add\n        /* \"contracts/manager/StaffManager.sol\":2840:2920  require(staffs[addressStaff].staffAddress != address(0), \"Staff does not exist\") */\n      tag_127\n        /* \"#utility.yul\":10810:11154   */\n      jump\n        /* \"contracts/manager/StaffManager.sol\":2840:2920  require(staffs[addressStaff].staffAddress != address(0), \"Staff does not exist\") */\n    tag_236:\n      sub(shl(0xa0, 0x01), 0x01)\n        /* \"contracts/manager/StaffManager.sol\":2930:2950  staffs[addressStaff] */\n      dup4\n      and\n      0x00\n      dup2\n      dup2\n      mstore\n        /* \"contracts/manager/StaffManager.sol\":2930:2936  staffs */\n      0x02\n        /* \"contracts/manager/StaffManager.sol\":2930:2950  staffs[addressStaff] */\n      0x20\n      swap1\n      dup2\n      mstore\n      0x40\n      swap2\n      dup3\n      swap1\n      keccak256\n        /* \"contracts/manager/StaffManager.sol\":2930:2960  staffs[addressStaff].sumRating */\n      0x04\n      dup2\n      add\n        /* \"contracts/manager/StaffManager.sol\":2930:2973  staffs[addressStaff].sumRating = _sumRating */\n      dup7\n      swap1\n      sstore\n        /* \"contracts/manager/StaffManager.sol\":2983:3015  staffs[addressStaff].countRating */\n      0x05\n      add\n        /* \"contracts/manager/StaffManager.sol\":2983:3030  staffs[addressStaff].countRating = _countRating */\n      dup5\n      swap1\n      sstore\n        /* \"contracts/manager/StaffManager.sol\":3045:3103  StaffRatingUpdated(addressStaff, _sumRating, _countRating) */\n      dup2\n      mload\n        /* \"#utility.yul\":14609:14660   */\n      swap3\n      dup4\n      mstore\n        /* \"#utility.yul\":14676:14694   */\n      dup3\n      add\n        /* \"#utility.yul\":14669:14703   */\n      dup5\n      swap1\n      mstore\n        /* \"#utility.yul\":14719:14737   */\n      dup2\n      add\n        /* \"#utility.yul\":14712:14746   */\n      dup3\n      swap1\n      mstore\n        /* \"contracts/manager/StaffManager.sol\":3045:3103  StaffRatingUpdated(addressStaff, _sumRating, _countRating) */\n      0x4287fc91e372e2c0c4fd45aca88c869f59dad9163b11b71dc130bfc4cd4e8506\n      swap1\n        /* \"#utility.yul\":14597:14599   */\n      0x60\n        /* \"#utility.yul\":14582:14600   */\n      add\n        /* \"contracts/manager/StaffManager.sol\":3045:3103  StaffRatingUpdated(addressStaff, _sumRating, _countRating) */\n      mload(0x40)\n      dup1\n      swap2\n      sub\n      swap1\n      log1\n        /* \"contracts/manager/StaffManager.sol\":2690:3110  function updateRatingStaff(... */\n      pop\n      pop\n      pop\n      jump\t// out\n    tag_80:\n      mload(0x40)\n      dup1\n      0xe0\n      add\n      0x40\n      mstore\n      dup1\n      and(sub(shl(0xa0, 0x01), 0x01), 0x00)\n      dup2\n      mstore\n      0x20\n      add\n      0x60\n      dup2\n      mstore\n      0x20\n      add\n      0x60\n      dup2\n      mstore\n      0x20\n      add\n      0x60\n      dup2\n      mstore\n      0x20\n      add\n      0x00\n      dup2\n      mstore\n      0x20\n      add\n      0x00\n      dup2\n      mstore\n      0x20\n      add\n      0x00\n      0x01\n      dup2\n      gt\n      iszero\n      tag_241\n      jumpi\n      tag_241\n      tag_106\n      jump\t// in\n    tag_241:\n      swap1\n      mstore\n      swap1\n      jump\t// out\n        /* \"#utility.yul\":14:303   */\n    tag_242:\n        /* \"#utility.yul\":56:59   */\n      0x00\n        /* \"#utility.yul\":94:99   */\n      dup2\n        /* \"#utility.yul\":88:100   */\n      mload\n        /* \"#utility.yul\":121:127   */\n      dup1\n        /* \"#utility.yul\":116:119   */\n      dup5\n        /* \"#utility.yul\":109:128   */\n      mstore\n        /* \"#utility.yul\":177:183   */\n      dup1\n        /* \"#utility.yul\":170:174   */\n      0x20\n        /* \"#utility.yul\":163:168   */\n      dup5\n        /* \"#utility.yul\":159:175   */\n      add\n        /* \"#utility.yul\":152:156   */\n      0x20\n        /* \"#utility.yul\":147:150   */\n      dup7\n        /* \"#utility.yul\":143:157   */\n      add\n        /* \"#utility.yul\":137:184   */\n      mcopy\n        /* \"#utility.yul\":229:230   */\n      0x00\n        /* \"#utility.yul\":222:226   */\n      0x20\n        /* \"#utility.yul\":213:219   */\n      dup3\n        /* \"#utility.yul\":208:211   */\n      dup7\n        /* \"#utility.yul\":204:220   */\n      add\n        /* \"#utility.yul\":200:227   */\n      add\n        /* \"#utility.yul\":193:231   */\n      mstore\n        /* \"#utility.yul\":292:296   */\n      0x20\n        /* \"#utility.yul\":285:287   */\n      0x1f\n        /* \"#utility.yul\":281:288   */\n      not\n        /* \"#utility.yul\":276:278   */\n      0x1f\n        /* \"#utility.yul\":268:274   */\n      dup4\n        /* \"#utility.yul\":264:279   */\n      add\n        /* \"#utility.yul\":260:289   */\n      and\n        /* \"#utility.yul\":255:258   */\n      dup6\n        /* \"#utility.yul\":251:290   */\n      add\n        /* \"#utility.yul\":247:297   */\n      add\n        /* \"#utility.yul\":240:297   */\n      swap2\n      pop\n      pop\n        /* \"#utility.yul\":14:303   */\n      swap3\n      swap2\n      pop\n      pop\n      jump\t// out\n        /* \"#utility.yul\":308:435   */\n    tag_106:\n        /* \"#utility.yul\":369:379   */\n      0x4e487b71\n        /* \"#utility.yul\":364:367   */\n      0xe0\n        /* \"#utility.yul\":360:380   */\n      shl\n        /* \"#utility.yul\":357:358   */\n      0x00\n        /* \"#utility.yul\":350:381   */\n      mstore\n        /* \"#utility.yul\":400:404   */\n      0x21\n        /* \"#utility.yul\":397:398   */\n      0x04\n        /* \"#utility.yul\":390:405   */\n      mstore\n        /* \"#utility.yul\":424:428   */\n      0x24\n        /* \"#utility.yul\":421:422   */\n      0x00\n        /* \"#utility.yul\":414:429   */\n      revert\n        /* \"#utility.yul\":440:653   */\n    tag_243:\n        /* \"#utility.yul\":524:525   */\n      0x02\n        /* \"#utility.yul\":517:522   */\n      dup2\n        /* \"#utility.yul\":514:526   */\n      lt\n        /* \"#utility.yul\":504:647   */\n      tag_254\n      jumpi\n        /* \"#utility.yul\":569:579   */\n      0x4e487b71\n        /* \"#utility.yul\":564:567   */\n      0xe0\n        /* \"#utility.yul\":560:580   */\n      shl\n        /* \"#utility.yul\":557:558   */\n      0x00\n        /* \"#utility.yul\":550:581   */\n      mstore\n        /* \"#utility.yul\":604:608   */\n      0x21\n        /* \"#utility.yul\":601:602   */\n      0x04\n        /* \"#utility.yul\":594:609   */\n      mstore\n        /* \"#utility.yul\":632:636   */\n      0x24\n        /* \"#utility.yul\":629:630   */\n      0x00\n        /* \"#utility.yul\":622:637   */\n      revert\n        /* \"#utility.yul\":504:647   */\n    tag_254:\n        /* \"#utility.yul\":440:653   */\n      pop\n      jump\t// out\n        /* \"#utility.yul\":658:1561   */\n    tag_244:\n        /* \"#utility.yul\":771:772   */\n      0x01\n        /* \"#utility.yul\":767:768   */\n      dup1\n        /* \"#utility.yul\":762:765   */\n      0xa0\n        /* \"#utility.yul\":758:769   */\n      shl\n        /* \"#utility.yul\":754:773   */\n      sub\n        /* \"#utility.yul\":746:751   */\n      dup2\n        /* \"#utility.yul\":740:752   */\n      mload\n        /* \"#utility.yul\":736:774   */\n      and\n        /* \"#utility.yul\":731:734   */\n      dup3\n        /* \"#utility.yul\":724:775   */\n      mstore\n        /* \"#utility.yul\":706:709   */\n      0x00\n        /* \"#utility.yul\":821:825   */\n      0x20\n        /* \"#utility.yul\":814:819   */\n      dup3\n        /* \"#utility.yul\":810:826   */\n      add\n        /* \"#utility.yul\":804:827   */\n      mload\n        /* \"#utility.yul\":859:863   */\n      0xe0\n        /* \"#utility.yul\":852:856   */\n      0x20\n        /* \"#utility.yul\":847:850   */\n      dup6\n        /* \"#utility.yul\":843:857   */\n      add\n        /* \"#utility.yul\":836:864   */\n      mstore\n        /* \"#utility.yul\":885:932   */\n      tag_256\n        /* \"#utility.yul\":926:930   */\n      0xe0\n        /* \"#utility.yul\":921:924   */\n      dup6\n        /* \"#utility.yul\":917:931   */\n      add\n        /* \"#utility.yul\":903:915   */\n      dup3\n        /* \"#utility.yul\":885:932   */\n      tag_242\n      jump\t// in\n    tag_256:\n        /* \"#utility.yul\":873:932   */\n      swap1\n      pop\n        /* \"#utility.yul\":980:984   */\n      0x40\n        /* \"#utility.yul\":973:978   */\n      dup4\n        /* \"#utility.yul\":969:985   */\n      add\n        /* \"#utility.yul\":963:986   */\n      mload\n        /* \"#utility.yul\":1028:1031   */\n      dup5\n        /* \"#utility.yul\":1022:1026   */\n      dup3\n        /* \"#utility.yul\":1018:1032   */\n      sub\n        /* \"#utility.yul\":1011:1015   */\n      0x40\n        /* \"#utility.yul\":1006:1009   */\n      dup7\n        /* \"#utility.yul\":1002:1016   */\n      add\n        /* \"#utility.yul\":995:1033   */\n      mstore\n        /* \"#utility.yul\":1056:1095   */\n      tag_257\n        /* \"#utility.yul\":1090:1094   */\n      dup3\n        /* \"#utility.yul\":1074:1088   */\n      dup3\n        /* \"#utility.yul\":1056:1095   */\n      tag_242\n      jump\t// in\n    tag_257:\n        /* \"#utility.yul\":1042:1095   */\n      swap2\n      pop\n      pop\n        /* \"#utility.yul\":1143:1147   */\n      0x60\n        /* \"#utility.yul\":1136:1141   */\n      dup4\n        /* \"#utility.yul\":1132:1148   */\n      add\n        /* \"#utility.yul\":1126:1149   */\n      mload\n        /* \"#utility.yul\":1193:1196   */\n      dup5\n        /* \"#utility.yul\":1185:1191   */\n      dup3\n        /* \"#utility.yul\":1181:1197   */\n      sub\n        /* \"#utility.yul\":1174:1178   */\n      0x60\n        /* \"#utility.yul\":1169:1172   */\n      dup7\n        /* \"#utility.yul\":1165:1179   */\n      add\n        /* \"#utility.yul\":1158:1198   */\n      mstore\n        /* \"#utility.yul\":1221:1262   */\n      tag_258\n        /* \"#utility.yul\":1255:1261   */\n      dup3\n        /* \"#utility.yul\":1239:1253   */\n      dup3\n        /* \"#utility.yul\":1221:1262   */\n      tag_242\n      jump\t// in\n    tag_258:\n        /* \"#utility.yul\":1207:1262   */\n      swap2\n      pop\n      pop\n        /* \"#utility.yul\":1311:1315   */\n      0x80\n        /* \"#utility.yul\":1304:1309   */\n      dup4\n        /* \"#utility.yul\":1300:1316   */\n      add\n        /* \"#utility.yul\":1294:1317   */\n      mload\n        /* \"#utility.yul\":1287:1291   */\n      0x80\n        /* \"#utility.yul\":1282:1285   */\n      dup6\n        /* \"#utility.yul\":1278:1292   */\n      add\n        /* \"#utility.yul\":1271:1318   */\n      mstore\n        /* \"#utility.yul\":1367:1371   */\n      0xa0\n        /* \"#utility.yul\":1360:1365   */\n      dup4\n        /* \"#utility.yul\":1356:1372   */\n      add\n        /* \"#utility.yul\":1350:1373   */\n      mload\n        /* \"#utility.yul\":1343:1347   */\n      0xa0\n        /* \"#utility.yul\":1338:1341   */\n      dup6\n        /* \"#utility.yul\":1334:1348   */\n      add\n        /* \"#utility.yul\":1327:1374   */\n      mstore\n        /* \"#utility.yul\":1422:1426   */\n      0xc0\n        /* \"#utility.yul\":1415:1420   */\n      dup4\n        /* \"#utility.yul\":1411:1427   */\n      add\n        /* \"#utility.yul\":1405:1428   */\n      mload\n        /* \"#utility.yul\":1437:1486   */\n      tag_259\n        /* \"#utility.yul\":1471:1485   */\n      dup2\n        /* \"#utility.yul\":1437:1486   */\n      tag_243\n      jump\t// in\n    tag_259:\n        /* \"#utility.yul\":1518:1532   */\n      dup1\n        /* \"#utility.yul\":1511:1515   */\n      0xc0\n        /* \"#utility.yul\":1506:1509   */\n      dup7\n        /* \"#utility.yul\":1502:1516   */\n      add\n        /* \"#utility.yul\":1495:1533   */\n      mstore\n      pop\n        /* \"#utility.yul\":1549:1555   */\n      dup1\n        /* \"#utility.yul\":1542:1555   */\n      swap2\n      pop\n      pop\n        /* \"#utility.yul\":658:1561   */\n      swap3\n      swap2\n      pop\n      pop\n      jump\t// out\n        /* \"#utility.yul\":1566:2378   */\n    tag_21:\n        /* \"#utility.yul\":1752:1756   */\n      0x00\n        /* \"#utility.yul\":1800:1802   */\n      0x20\n        /* \"#utility.yul\":1789:1798   */\n      dup3\n        /* \"#utility.yul\":1785:1803   */\n      add\n        /* \"#utility.yul\":1830:1832   */\n      0x20\n        /* \"#utility.yul\":1819:1828   */\n      dup4\n        /* \"#utility.yul\":1812:1833   */\n      mstore\n        /* \"#utility.yul\":1853:1859   */\n      dup1\n        /* \"#utility.yul\":1888:1894   */\n      dup5\n        /* \"#utility.yul\":1882:1895   */\n      mload\n        /* \"#utility.yul\":1919:1925   */\n      dup1\n        /* \"#utility.yul\":1911:1917   */\n      dup4\n        /* \"#utility.yul\":1904:1926   */\n      mstore\n        /* \"#utility.yul\":1957:1959   */\n      0x40\n        /* \"#utility.yul\":1946:1955   */\n      dup6\n        /* \"#utility.yul\":1942:1960   */\n      add\n        /* \"#utility.yul\":1935:1960   */\n      swap2\n      pop\n        /* \"#utility.yul\":2019:2021   */\n      0x40\n        /* \"#utility.yul\":2009:2015   */\n      dup2\n        /* \"#utility.yul\":2006:2007   */\n      0x05\n        /* \"#utility.yul\":2002:2016   */\n      shl\n        /* \"#utility.yul\":1991:2000   */\n      dup7\n        /* \"#utility.yul\":1987:2017   */\n      add\n        /* \"#utility.yul\":1983:2022   */\n      add\n        /* \"#utility.yul\":1969:2022   */\n      swap3\n      pop\n        /* \"#utility.yul\":2057:2059   */\n      0x20\n        /* \"#utility.yul\":2049:2055   */\n      dup7\n        /* \"#utility.yul\":2045:2060   */\n      add\n        /* \"#utility.yul\":2078:2079   */\n      0x00\n        /* \"#utility.yul\":2088:2349   */\n    tag_261:\n        /* \"#utility.yul\":2102:2108   */\n      dup3\n        /* \"#utility.yul\":2099:2100   */\n      dup2\n        /* \"#utility.yul\":2096:2109   */\n      lt\n        /* \"#utility.yul\":2088:2349   */\n      iszero\n      tag_263\n      jumpi\n        /* \"#utility.yul\":2195:2197   */\n      0x3f\n        /* \"#utility.yul\":2191:2198   */\n      not\n        /* \"#utility.yul\":2179:2188   */\n      dup8\n        /* \"#utility.yul\":2171:2177   */\n      dup7\n        /* \"#utility.yul\":2167:2189   */\n      sub\n        /* \"#utility.yul\":2163:2199   */\n      add\n        /* \"#utility.yul\":2158:2161   */\n      dup5\n        /* \"#utility.yul\":2151:2200   */\n      mstore\n        /* \"#utility.yul\":2223:2269   */\n      tag_264\n        /* \"#utility.yul\":2262:2268   */\n      dup6\n        /* \"#utility.yul\":2253:2259   */\n      dup4\n        /* \"#utility.yul\":2247:2260   */\n      mload\n        /* \"#utility.yul\":2223:2269   */\n      tag_244\n      jump\t// in\n    tag_264:\n        /* \"#utility.yul\":2213:2269   */\n      swap5\n      pop\n        /* \"#utility.yul\":2304:2306   */\n      0x20\n        /* \"#utility.yul\":2327:2339   */\n      swap4\n      dup5\n      add\n      swap4\n        /* \"#utility.yul\":2292:2307   */\n      swap2\n      swap1\n      swap2\n      add\n      swap1\n        /* \"#utility.yul\":2124:2125   */\n      0x01\n        /* \"#utility.yul\":2117:2126   */\n      add\n        /* \"#utility.yul\":2088:2349   */\n      jump(tag_261)\n    tag_263:\n      pop\n        /* \"#utility.yul\":2366:2372   */\n      swap3\n      swap7\n        /* \"#utility.yul\":1566:2378   */\n      swap6\n      pop\n      pop\n      pop\n      pop\n      pop\n      pop\n      jump\t// out\n        /* \"#utility.yul\":2383:2556   */\n    tag_245:\n        /* \"#utility.yul\":2451:2471   */\n      dup1\n      calldataload\n      sub(shl(0xa0, 0x01), 0x01)\n        /* \"#utility.yul\":2500:2531   */\n      dup2\n      and\n        /* \"#utility.yul\":2490:2532   */\n      dup2\n      eq\n        /* \"#utility.yul\":2480:2550   */\n      tag_266\n      jumpi\n        /* \"#utility.yul\":2546:2547   */\n      0x00\n        /* \"#utility.yul\":2543:2544   */\n      0x00\n        /* \"#utility.yul\":2536:2548   */\n      revert\n        /* \"#utility.yul\":2480:2550   */\n    tag_266:\n        /* \"#utility.yul\":2383:2556   */\n      swap2\n      swap1\n      pop\n      jump\t// out\n        /* \"#utility.yul\":2561:2861   */\n    tag_24:\n        /* \"#utility.yul\":2629:2635   */\n      0x00\n        /* \"#utility.yul\":2637:2643   */\n      0x00\n        /* \"#utility.yul\":2690:2692   */\n      0x40\n        /* \"#utility.yul\":2678:2687   */\n      dup4\n        /* \"#utility.yul\":2669:2676   */\n      dup6\n        /* \"#utility.yul\":2665:2688   */\n      sub\n        /* \"#utility.yul\":2661:2693   */\n      slt\n        /* \"#utility.yul\":2658:2710   */\n      iszero\n      tag_268\n      jumpi\n        /* \"#utility.yul\":2706:2707   */\n      0x00\n        /* \"#utility.yul\":2703:2704   */\n      0x00\n        /* \"#utility.yul\":2696:2708   */\n      revert\n        /* \"#utility.yul\":2658:2710   */\n    tag_268:\n        /* \"#utility.yul\":2729:2758   */\n      tag_269\n        /* \"#utility.yul\":2748:2757   */\n      dup4\n        /* \"#utility.yul\":2729:2758   */\n      tag_245\n      jump\t// in\n    tag_269:\n        /* \"#utility.yul\":2719:2758   */\n      swap5\n        /* \"#utility.yul\":2827:2829   */\n      0x20\n        /* \"#utility.yul\":2812:2830   */\n      swap4\n      swap1\n      swap4\n      add\n        /* \"#utility.yul\":2799:2831   */\n      calldataload\n      swap4\n      pop\n      pop\n      pop\n        /* \"#utility.yul\":2561:2861   */\n      jump\t// out\n        /* \"#utility.yul\":3274:3622   */\n    tag_246:\n        /* \"#utility.yul\":3326:3334   */\n      0x00\n        /* \"#utility.yul\":3336:3342   */\n      0x00\n        /* \"#utility.yul\":3390:3393   */\n      dup4\n        /* \"#utility.yul\":3383:3387   */\n      0x1f\n        /* \"#utility.yul\":3375:3381   */\n      dup5\n        /* \"#utility.yul\":3371:3388   */\n      add\n        /* \"#utility.yul\":3367:3394   */\n      slt\n        /* \"#utility.yul\":3357:3412   */\n      tag_273\n      jumpi\n        /* \"#utility.yul\":3408:3409   */\n      0x00\n        /* \"#utility.yul\":3405:3406   */\n      0x00\n        /* \"#utility.yul\":3398:3410   */\n      revert\n        /* \"#utility.yul\":3357:3412   */\n    tag_273:\n      pop\n        /* \"#utility.yul\":3431:3451   */\n      dup2\n      calldataload\n        /* \"#utility.yul\":3474:3492   */\n      0xffffffffffffffff\n        /* \"#utility.yul\":3463:3493   */\n      dup2\n      gt\n        /* \"#utility.yul\":3460:3510   */\n      iszero\n      tag_274\n      jumpi\n        /* \"#utility.yul\":3506:3507   */\n      0x00\n        /* \"#utility.yul\":3503:3504   */\n      0x00\n        /* \"#utility.yul\":3496:3508   */\n      revert\n        /* \"#utility.yul\":3460:3510   */\n    tag_274:\n        /* \"#utility.yul\":3543:3547   */\n      0x20\n        /* \"#utility.yul\":3535:3541   */\n      dup4\n        /* \"#utility.yul\":3531:3548   */\n      add\n        /* \"#utility.yul\":3519:3548   */\n      swap2\n      pop\n        /* \"#utility.yul\":3595:3598   */\n      dup4\n        /* \"#utility.yul\":3588:3592   */\n      0x20\n        /* \"#utility.yul\":3579:3585   */\n      dup3\n        /* \"#utility.yul\":3571:3577   */\n      dup6\n        /* \"#utility.yul\":3567:3586   */\n      add\n        /* \"#utility.yul\":3563:3593   */\n      add\n        /* \"#utility.yul\":3560:3599   */\n      gt\n        /* \"#utility.yul\":3557:3616   */\n      iszero\n      tag_275\n      jumpi\n        /* \"#utility.yul\":3612:3613   */\n      0x00\n        /* \"#utility.yul\":3609:3610   */\n      0x00\n        /* \"#utility.yul\":3602:3614   */\n      revert\n        /* \"#utility.yul\":3557:3616   */\n    tag_275:\n        /* \"#utility.yul\":3274:3622   */\n      swap3\n      pop\n      swap3\n      swap1\n      pop\n      jump\t// out\n        /* \"#utility.yul\":3627:4723   */\n    tag_37:\n        /* \"#utility.yul\":3749:3755   */\n      0x00\n        /* \"#utility.yul\":3757:3763   */\n      0x00\n        /* \"#utility.yul\":3765:3771   */\n      0x00\n        /* \"#utility.yul\":3773:3779   */\n      0x00\n        /* \"#utility.yul\":3781:3787   */\n      0x00\n        /* \"#utility.yul\":3789:3795   */\n      0x00\n        /* \"#utility.yul\":3797:3803   */\n      0x00\n        /* \"#utility.yul\":3850:3853   */\n      0x80\n        /* \"#utility.yul\":3838:3847   */\n      dup9\n        /* \"#utility.yul\":3829:3836   */\n      dup11\n        /* \"#utility.yul\":3825:3848   */\n      sub\n        /* \"#utility.yul\":3821:3854   */\n      slt\n        /* \"#utility.yul\":3818:3871   */\n      iszero\n      tag_277\n      jumpi\n        /* \"#utility.yul\":3867:3868   */\n      0x00\n        /* \"#utility.yul\":3864:3865   */\n      0x00\n        /* \"#utility.yul\":3857:3869   */\n      revert\n        /* \"#utility.yul\":3818:3871   */\n    tag_277:\n        /* \"#utility.yul\":3890:3919   */\n      tag_278\n        /* \"#utility.yul\":3909:3918   */\n      dup9\n        /* \"#utility.yul\":3890:3919   */\n      tag_245\n      jump\t// in\n    tag_278:\n        /* \"#utility.yul\":3880:3919   */\n      swap7\n      pop\n        /* \"#utility.yul\":3970:3972   */\n      0x20\n        /* \"#utility.yul\":3959:3968   */\n      dup9\n        /* \"#utility.yul\":3955:3973   */\n      add\n        /* \"#utility.yul\":3942:3974   */\n      calldataload\n        /* \"#utility.yul\":3997:4015   */\n      0xffffffffffffffff\n        /* \"#utility.yul\":3989:3995   */\n      dup2\n        /* \"#utility.yul\":3986:4016   */\n      gt\n        /* \"#utility.yul\":3983:4033   */\n      iszero\n      tag_279\n      jumpi\n        /* \"#utility.yul\":4029:4030   */\n      0x00\n        /* \"#utility.yul\":4026:4027   */\n      0x00\n        /* \"#utility.yul\":4019:4031   */\n      revert\n        /* \"#utility.yul\":3983:4033   */\n    tag_279:\n        /* \"#utility.yul\":4068:4127   */\n      tag_280\n        /* \"#utility.yul\":4119:4126   */\n      dup11\n        /* \"#utility.yul\":4110:4116   */\n      dup3\n        /* \"#utility.yul\":4099:4108   */\n      dup12\n        /* \"#utility.yul\":4095:4117   */\n      add\n        /* \"#utility.yul\":4068:4127   */\n      tag_246\n      jump\t// in\n    tag_280:\n        /* \"#utility.yul\":4146:4154   */\n      swap1\n      swap8\n      pop\n        /* \"#utility.yul\":4042:4127   */\n      swap6\n      pop\n      pop\n        /* \"#utility.yul\":4234:4236   */\n      0x40\n        /* \"#utility.yul\":4219:4237   */\n      dup9\n      add\n        /* \"#utility.yul\":4206:4238   */\n      calldataload\n        /* \"#utility.yul\":4263:4281   */\n      0xffffffffffffffff\n        /* \"#utility.yul\":4250:4282   */\n      dup2\n      gt\n        /* \"#utility.yul\":4247:4299   */\n      iszero\n      tag_281\n      jumpi\n        /* \"#utility.yul\":4295:4296   */\n      0x00\n        /* \"#utility.yul\":4292:4293   */\n      0x00\n        /* \"#utility.yul\":4285:4297   */\n      revert\n        /* \"#utility.yul\":4247:4299   */\n    tag_281:\n        /* \"#utility.yul\":4334:4395   */\n      tag_282\n        /* \"#utility.yul\":4387:4394   */\n      dup11\n        /* \"#utility.yul\":4376:4384   */\n      dup3\n        /* \"#utility.yul\":4365:4374   */\n      dup12\n        /* \"#utility.yul\":4361:4385   */\n      add\n        /* \"#utility.yul\":4334:4395   */\n      tag_246\n      jump\t// in\n    tag_282:\n        /* \"#utility.yul\":4414:4422   */\n      swap1\n      swap6\n      pop\n        /* \"#utility.yul\":4308:4395   */\n      swap4\n      pop\n      pop\n        /* \"#utility.yul\":4502:4504   */\n      0x60\n        /* \"#utility.yul\":4487:4505   */\n      dup9\n      add\n        /* \"#utility.yul\":4474:4506   */\n      calldataload\n        /* \"#utility.yul\":4531:4549   */\n      0xffffffffffffffff\n        /* \"#utility.yul\":4518:4550   */\n      dup2\n      gt\n        /* \"#utility.yul\":4515:4567   */\n      iszero\n      tag_283\n      jumpi\n        /* \"#utility.yul\":4563:4564   */\n      0x00\n        /* \"#utility.yul\":4560:4561   */\n      0x00\n        /* \"#utility.yul\":4553:4565   */\n      revert\n        /* \"#utility.yul\":4515:4567   */\n    tag_283:\n        /* \"#utility.yul\":4602:4663   */\n      tag_284\n        /* \"#utility.yul\":4655:4662   */\n      dup11\n        /* \"#utility.yul\":4644:4652   */\n      dup3\n        /* \"#utility.yul\":4633:4642   */\n      dup12\n        /* \"#utility.yul\":4629:4653   */\n      add\n        /* \"#utility.yul\":4602:4663   */\n      tag_246\n      jump\t// in\n    tag_284:\n        /* \"#utility.yul\":3627:4723   */\n      swap9\n      swap12\n      swap8\n      swap11\n      pop\n      swap6\n      swap9\n      pop\n      swap4\n      swap7\n      swap3\n      swap6\n        /* \"#utility.yul\":4576:4663   */\n      swap3\n      swap4\n      pop\n      pop\n      pop\n        /* \"#utility.yul\":3627:4723   */\n      jump\t// out\n        /* \"#utility.yul\":4920:5220   */\n    tag_49:\n        /* \"#utility.yul\":4988:4994   */\n      0x00\n        /* \"#utility.yul\":4996:5002   */\n      0x00\n        /* \"#utility.yul\":5049:5051   */\n      0x40\n        /* \"#utility.yul\":5037:5046   */\n      dup4\n        /* \"#utility.yul\":5028:5035   */\n      dup6\n        /* \"#utility.yul\":5024:5047   */\n      sub\n        /* \"#utility.yul\":5020:5052   */\n      slt\n        /* \"#utility.yul\":5017:5069   */\n      iszero\n      tag_287\n      jumpi\n        /* \"#utility.yul\":5065:5066   */\n      0x00\n        /* \"#utility.yul\":5062:5063   */\n      0x00\n        /* \"#utility.yul\":5055:5067   */\n      revert\n        /* \"#utility.yul\":5017:5069   */\n    tag_287:\n        /* \"#utility.yul\":5110:5133   */\n      dup3\n      calldataload\n      swap2\n      pop\n        /* \"#utility.yul\":5176:5214   */\n      tag_288\n        /* \"#utility.yul\":5210:5212   */\n      0x20\n        /* \"#utility.yul\":5195:5213   */\n      dup5\n      add\n        /* \"#utility.yul\":5176:5214   */\n      tag_245\n      jump\t// in\n    tag_288:\n        /* \"#utility.yul\":5166:5214   */\n      swap1\n      pop\n        /* \"#utility.yul\":4920:5220   */\n      swap3\n      pop\n      swap3\n      swap1\n      pop\n      jump\t// out\n        /* \"#utility.yul\":5225:5411   */\n    tag_53:\n        /* \"#utility.yul\":5284:5290   */\n      0x00\n        /* \"#utility.yul\":5337:5339   */\n      0x20\n        /* \"#utility.yul\":5325:5334   */\n      dup3\n        /* \"#utility.yul\":5316:5323   */\n      dup5\n        /* \"#utility.yul\":5312:5335   */\n      sub\n        /* \"#utility.yul\":5308:5340   */\n      slt\n        /* \"#utility.yul\":5305:5357   */\n      iszero\n      tag_290\n      jumpi\n        /* \"#utility.yul\":5353:5354   */\n      0x00\n        /* \"#utility.yul\":5350:5351   */\n      0x00\n        /* \"#utility.yul\":5343:5355   */\n      revert\n        /* \"#utility.yul\":5305:5357   */\n    tag_290:\n        /* \"#utility.yul\":5376:5405   */\n      tag_291\n        /* \"#utility.yul\":5395:5404   */\n      dup3\n        /* \"#utility.yul\":5376:5405   */\n      tag_245\n      jump\t// in\n    tag_291:\n        /* \"#utility.yul\":5366:5405   */\n      swap4\n        /* \"#utility.yul\":5225:5411   */\n      swap3\n      pop\n      pop\n      pop\n      jump\t// out\n        /* \"#utility.yul\":5416:6340   */\n    tag_56:\n      sub(shl(0xa0, 0x01), 0x01)\n        /* \"#utility.yul\":5786:5818   */\n      dup9\n      and\n        /* \"#utility.yul\":5768:5819   */\n      dup2\n      mstore\n        /* \"#utility.yul\":5855:5858   */\n      0xe0\n        /* \"#utility.yul\":5850:5852   */\n      0x20\n        /* \"#utility.yul\":5835:5853   */\n      dup3\n      add\n        /* \"#utility.yul\":5828:5859   */\n      dup2\n      swap1\n      mstore\n      0x00\n      swap1\n        /* \"#utility.yul\":5882:5928   */\n      tag_293\n      swap1\n        /* \"#utility.yul\":5908:5927   */\n      dup4\n      add\n        /* \"#utility.yul\":5900:5906   */\n      dup10\n        /* \"#utility.yul\":5882:5928   */\n      tag_242\n      jump\t// in\n    tag_293:\n        /* \"#utility.yul\":5976:5985   */\n      dup3\n        /* \"#utility.yul\":5968:5974   */\n      dup2\n        /* \"#utility.yul\":5964:5986   */\n      sub\n        /* \"#utility.yul\":5959:5961   */\n      0x40\n        /* \"#utility.yul\":5948:5957   */\n      dup5\n        /* \"#utility.yul\":5944:5962   */\n      add\n        /* \"#utility.yul\":5937:5987   */\n      mstore\n        /* \"#utility.yul\":6010:6043   */\n      tag_294\n        /* \"#utility.yul\":6036:6042   */\n      dup2\n        /* \"#utility.yul\":6028:6034   */\n      dup10\n        /* \"#utility.yul\":6010:6043   */\n      tag_242\n      jump\t// in\n    tag_294:\n        /* \"#utility.yul\":5996:6043   */\n      swap1\n      pop\n        /* \"#utility.yul\":6091:6100   */\n      dup3\n        /* \"#utility.yul\":6083:6089   */\n      dup2\n        /* \"#utility.yul\":6079:6101   */\n      sub\n        /* \"#utility.yul\":6074:6076   */\n      0x60\n        /* \"#utility.yul\":6063:6072   */\n      dup5\n        /* \"#utility.yul\":6059:6077   */\n      add\n        /* \"#utility.yul\":6052:6102   */\n      mstore\n        /* \"#utility.yul\":6119:6152   */\n      tag_295\n        /* \"#utility.yul\":6145:6151   */\n      dup2\n        /* \"#utility.yul\":6137:6143   */\n      dup9\n        /* \"#utility.yul\":6119:6152   */\n      tag_242\n      jump\t// in\n    tag_295:\n        /* \"#utility.yul\":6111:6152   */\n      swap2\n      pop\n      pop\n        /* \"#utility.yul\":6189:6195   */\n      dup5\n        /* \"#utility.yul\":6183:6186   */\n      0x80\n        /* \"#utility.yul\":6172:6181   */\n      dup4\n        /* \"#utility.yul\":6168:6187   */\n      add\n        /* \"#utility.yul\":6161:6196   */\n      mstore\n        /* \"#utility.yul\":6233:6239   */\n      dup4\n        /* \"#utility.yul\":6227:6230   */\n      0xa0\n        /* \"#utility.yul\":6216:6225   */\n      dup4\n        /* \"#utility.yul\":6212:6231   */\n      add\n        /* \"#utility.yul\":6205:6240   */\n      mstore\n        /* \"#utility.yul\":6249:6290   */\n      tag_296\n        /* \"#utility.yul\":6283:6289   */\n      dup4\n        /* \"#utility.yul\":6249:6290   */\n      tag_243\n      jump\t// in\n    tag_296:\n        /* \"#utility.yul\":6327:6333   */\n      dup3\n        /* \"#utility.yul\":6321:6324   */\n      0xc0\n        /* \"#utility.yul\":6310:6319   */\n      dup4\n        /* \"#utility.yul\":6306:6325   */\n      add\n        /* \"#utility.yul\":6299:6334   */\n      mstore\n        /* \"#utility.yul\":5416:6340   */\n      swap9\n      swap8\n      pop\n      pop\n      pop\n      pop\n      pop\n      pop\n      pop\n      pop\n      jump\t// out\n        /* \"#utility.yul\":6345:6595   */\n    tag_64:\n        /* \"#utility.yul\":6518:6520   */\n      0x20\n        /* \"#utility.yul\":6507:6516   */\n      dup2\n        /* \"#utility.yul\":6500:6521   */\n      mstore\n        /* \"#utility.yul\":6481:6485   */\n      0x00\n        /* \"#utility.yul\":6538:6589   */\n      tag_291\n        /* \"#utility.yul\":6585:6587   */\n      0x20\n        /* \"#utility.yul\":6574:6583   */\n      dup4\n        /* \"#utility.yul\":6570:6588   */\n      add\n        /* \"#utility.yul\":6562:6568   */\n      dup5\n        /* \"#utility.yul\":6538:6589   */\n      tag_244\n      jump\t// in\n        /* \"#utility.yul\":6600:7020   */\n    tag_67:\n        /* \"#utility.yul\":6677:6683   */\n      0x00\n        /* \"#utility.yul\":6685:6691   */\n      0x00\n        /* \"#utility.yul\":6693:6699   */\n      0x00\n        /* \"#utility.yul\":6746:6748   */\n      0x60\n        /* \"#utility.yul\":6734:6743   */\n      dup5\n        /* \"#utility.yul\":6725:6732   */\n      dup7\n        /* \"#utility.yul\":6721:6744   */\n      sub\n        /* \"#utility.yul\":6717:6749   */\n      slt\n        /* \"#utility.yul\":6714:6766   */\n      iszero\n      tag_300\n      jumpi\n        /* \"#utility.yul\":6762:6763   */\n      0x00\n        /* \"#utility.yul\":6759:6760   */\n      0x00\n        /* \"#utility.yul\":6752:6764   */\n      revert\n        /* \"#utility.yul\":6714:6766   */\n    tag_300:\n        /* \"#utility.yul\":6785:6814   */\n      tag_301\n        /* \"#utility.yul\":6804:6813   */\n      dup5\n        /* \"#utility.yul\":6785:6814   */\n      tag_245\n      jump\t// in\n    tag_301:\n        /* \"#utility.yul\":6775:6814   */\n      swap6\n        /* \"#utility.yul\":6883:6885   */\n      0x20\n        /* \"#utility.yul\":6868:6886   */\n      dup6\n      add\n        /* \"#utility.yul\":6855:6887   */\n      calldataload\n      swap6\n      pop\n        /* \"#utility.yul\":6984:6986   */\n      0x40\n        /* \"#utility.yul\":6969:6987   */\n      swap1\n      swap5\n      add\n        /* \"#utility.yul\":6956:6988   */\n      calldataload\n      swap4\n        /* \"#utility.yul\":6600:7020   */\n      swap3\n      pop\n      pop\n      pop\n      jump\t// out\n        /* \"#utility.yul\":7254:7381   */\n    tag_76:\n        /* \"#utility.yul\":7315:7325   */\n      0x4e487b71\n        /* \"#utility.yul\":7310:7313   */\n      0xe0\n        /* \"#utility.yul\":7306:7326   */\n      shl\n        /* \"#utility.yul\":7303:7304   */\n      0x00\n        /* \"#utility.yul\":7296:7327   */\n      mstore\n        /* \"#utility.yul\":7346:7350   */\n      0x41\n        /* \"#utility.yul\":7343:7344   */\n      0x04\n        /* \"#utility.yul\":7336:7351   */\n      mstore\n        /* \"#utility.yul\":7370:7374   */\n      0x24\n        /* \"#utility.yul\":7367:7368   */\n      0x00\n        /* \"#utility.yul\":7360:7375   */\n      revert\n        /* \"#utility.yul\":7386:7513   */\n    tag_86:\n        /* \"#utility.yul\":7447:7457   */\n      0x4e487b71\n        /* \"#utility.yul\":7442:7445   */\n      0xe0\n        /* \"#utility.yul\":7438:7458   */\n      shl\n        /* \"#utility.yul\":7435:7436   */\n      0x00\n        /* \"#utility.yul\":7428:7459   */\n      mstore\n        /* \"#utility.yul\":7478:7482   */\n      0x32\n        /* \"#utility.yul\":7475:7476   */\n      0x04\n        /* \"#utility.yul\":7468:7483   */\n      mstore\n        /* \"#utility.yul\":7502:7506   */\n      0x24\n        /* \"#utility.yul\":7499:7500   */\n      0x00\n        /* \"#utility.yul\":7492:7507   */\n      revert\n        /* \"#utility.yul\":7518:7898   */\n    tag_89:\n        /* \"#utility.yul\":7597:7598   */\n      0x01\n        /* \"#utility.yul\":7593:7605   */\n      dup2\n      dup2\n      shr\n      swap1\n        /* \"#utility.yul\":7640:7652   */\n      dup3\n      and\n      dup1\n        /* \"#utility.yul\":7661:7722   */\n      tag_306\n      jumpi\n        /* \"#utility.yul\":7715:7719   */\n      0x7f\n        /* \"#utility.yul\":7707:7713   */\n      dup3\n        /* \"#utility.yul\":7703:7720   */\n      and\n        /* \"#utility.yul\":7693:7720   */\n      swap2\n      pop\n        /* \"#utility.yul\":7661:7722   */\n    tag_306:\n        /* \"#utility.yul\":7768:7770   */\n      0x20\n        /* \"#utility.yul\":7760:7766   */\n      dup3\n        /* \"#utility.yul\":7757:7771   */\n      lt\n        /* \"#utility.yul\":7737:7755   */\n      dup2\n        /* \"#utility.yul\":7734:7772   */\n      sub\n        /* \"#utility.yul\":7731:7892   */\n      tag_82\n      jumpi\n        /* \"#utility.yul\":7814:7824   */\n      0x4e487b71\n        /* \"#utility.yul\":7809:7812   */\n      0xe0\n        /* \"#utility.yul\":7805:7825   */\n      shl\n        /* \"#utility.yul\":7802:7803   */\n      0x00\n        /* \"#utility.yul\":7795:7826   */\n      mstore\n        /* \"#utility.yul\":7849:7853   */\n      0x22\n        /* \"#utility.yul\":7846:7847   */\n      0x04\n        /* \"#utility.yul\":7839:7854   */\n      mstore\n        /* \"#utility.yul\":7877:7881   */\n      0x24\n        /* \"#utility.yul\":7874:7875   */\n      0x00\n        /* \"#utility.yul\":7867:7882   */\n      revert\n        /* \"#utility.yul\":7903:8030   */\n    tag_121:\n        /* \"#utility.yul\":7964:7974   */\n      0x4e487b71\n        /* \"#utility.yul\":7959:7962   */\n      0xe0\n        /* \"#utility.yul\":7955:7975   */\n      shl\n        /* \"#utility.yul\":7952:7953   */\n      0x00\n        /* \"#utility.yul\":7945:7976   */\n      mstore\n        /* \"#utility.yul\":7995:7999   */\n      0x31\n        /* \"#utility.yul\":7992:7993   */\n      0x04\n        /* \"#utility.yul\":7985:8000   */\n      mstore\n        /* \"#utility.yul\":8019:8023   */\n      0x24\n        /* \"#utility.yul\":8016:8017   */\n      0x00\n        /* \"#utility.yul\":8009:8024   */\n      revert\n        /* \"#utility.yul\":8518:9036   */\n    tag_248:\n        /* \"#utility.yul\":8620:8622   */\n      0x1f\n        /* \"#utility.yul\":8615:8618   */\n      dup3\n        /* \"#utility.yul\":8612:8623   */\n      gt\n        /* \"#utility.yul\":8609:9030   */\n      iszero\n      tag_113\n      jumpi\n        /* \"#utility.yul\":8656:8661   */\n      dup1\n        /* \"#utility.yul\":8653:8654   */\n      0x00\n        /* \"#utility.yul\":8646:8662   */\n      mstore\n        /* \"#utility.yul\":8700:8704   */\n      0x20\n        /* \"#utility.yul\":8697:8698   */\n      0x00\n        /* \"#utility.yul\":8687:8705   */\n      keccak256\n        /* \"#utility.yul\":8770:8772   */\n      0x1f\n        /* \"#utility.yul\":8758:8768   */\n      dup5\n        /* \"#utility.yul\":8754:8773   */\n      add\n        /* \"#utility.yul\":8751:8752   */\n      0x05\n        /* \"#utility.yul\":8747:8774   */\n      shr\n        /* \"#utility.yul\":8741:8745   */\n      dup2\n        /* \"#utility.yul\":8737:8775   */\n      add\n        /* \"#utility.yul\":8806:8810   */\n      0x20\n        /* \"#utility.yul\":8794:8804   */\n      dup6\n        /* \"#utility.yul\":8791:8811   */\n      lt\n        /* \"#utility.yul\":8788:8835   */\n      iszero\n      tag_313\n      jumpi\n      pop\n        /* \"#utility.yul\":8829:8833   */\n      dup1\n        /* \"#utility.yul\":8788:8835   */\n    tag_313:\n        /* \"#utility.yul\":8884:8886   */\n      0x1f\n        /* \"#utility.yul\":8879:8882   */\n      dup5\n        /* \"#utility.yul\":8875:8887   */\n      add\n        /* \"#utility.yul\":8872:8873   */\n      0x05\n        /* \"#utility.yul\":8868:8888   */\n      shr\n        /* \"#utility.yul\":8862:8866   */\n      dup3\n        /* \"#utility.yul\":8858:8889   */\n      add\n        /* \"#utility.yul\":8848:8889   */\n      swap2\n      pop\n        /* \"#utility.yul\":8939:9020   */\n    tag_314:\n        /* \"#utility.yul\":8957:8959   */\n      dup2\n        /* \"#utility.yul\":8950:8955   */\n      dup2\n        /* \"#utility.yul\":8947:8960   */\n      lt\n        /* \"#utility.yul\":8939:9020   */\n      iszero\n      tag_316\n      jumpi\n        /* \"#utility.yul\":9016:9017   */\n      0x00\n        /* \"#utility.yul\":9002:9018   */\n      dup2\n      sstore\n        /* \"#utility.yul\":8983:8984   */\n      0x01\n        /* \"#utility.yul\":8972:8985   */\n      add\n        /* \"#utility.yul\":8939:9020   */\n      jump(tag_314)\n    tag_316:\n        /* \"#utility.yul\":8943:8946   */\n      pop\n      pop\n        /* \"#utility.yul\":8518:9036   */\n      pop\n      pop\n      pop\n      jump\t// out\n        /* \"#utility.yul\":9212:10410   */\n    tag_130:\n        /* \"#utility.yul\":9336:9354   */\n      0xffffffffffffffff\n        /* \"#utility.yul\":9331:9334   */\n      dup4\n        /* \"#utility.yul\":9328:9355   */\n      gt\n        /* \"#utility.yul\":9325:9378   */\n      iszero\n      tag_320\n      jumpi\n        /* \"#utility.yul\":9358:9376   */\n      tag_320\n      tag_76\n      jump\t// in\n    tag_320:\n        /* \"#utility.yul\":9387:9481   */\n      tag_321\n        /* \"#utility.yul\":9477:9480   */\n      dup4\n        /* \"#utility.yul\":9437:9475   */\n      tag_322\n        /* \"#utility.yul\":9469:9473   */\n      dup4\n        /* \"#utility.yul\":9463:9474   */\n      sload\n        /* \"#utility.yul\":9437:9475   */\n      tag_89\n      jump\t// in\n    tag_322:\n        /* \"#utility.yul\":9431:9435   */\n      dup4\n        /* \"#utility.yul\":9387:9481   */\n      tag_248\n      jump\t// in\n    tag_321:\n        /* \"#utility.yul\":9507:9508   */\n      0x00\n        /* \"#utility.yul\":9532:9534   */\n      0x1f\n        /* \"#utility.yul\":9527:9530   */\n      dup5\n        /* \"#utility.yul\":9524:9535   */\n      gt\n        /* \"#utility.yul\":9549:9550   */\n      0x01\n        /* \"#utility.yul\":9544:10152   */\n      dup2\n      eq\n      tag_324\n      jumpi\n        /* \"#utility.yul\":10196:10197   */\n      0x00\n        /* \"#utility.yul\":10213:10216   */\n      dup6\n        /* \"#utility.yul\":10210:10303   */\n      iszero\n      tag_325\n      jumpi\n      pop\n        /* \"#utility.yul\":10269:10288   */\n      dup4\n      dup3\n      add\n        /* \"#utility.yul\":10256:10289   */\n      calldataload\n        /* \"#utility.yul\":10210:10303   */\n    tag_325:\n      not(0x00)\n        /* \"#utility.yul\":9169:9170   */\n      0x03\n        /* \"#utility.yul\":9165:9176   */\n      dup8\n      swap1\n      shl\n        /* \"#utility.yul\":9161:9185   */\n      shr\n        /* \"#utility.yul\":9157:9186   */\n      not\n        /* \"#utility.yul\":9147:9187   */\n      and\n        /* \"#utility.yul\":9193:9194   */\n      0x01\n        /* \"#utility.yul\":9189:9200   */\n      dup7\n      swap1\n      shl\n        /* \"#utility.yul\":9144:9201   */\n      or\n        /* \"#utility.yul\":10316:10394   */\n      dup4\n      sstore\n        /* \"#utility.yul\":9517:10404   */\n      jump(tag_316)\n        /* \"#utility.yul\":9544:10152   */\n    tag_324:\n        /* \"#utility.yul\":8465:8466   */\n      0x00\n        /* \"#utility.yul\":8458:8472   */\n      dup4\n      dup2\n      mstore\n        /* \"#utility.yul\":8502:8506   */\n      0x20\n        /* \"#utility.yul\":8489:8507   */\n      dup2\n      keccak256\n      not(0x1f)\n        /* \"#utility.yul\":9580:9597   */\n      dup8\n      and\n      swap2\n        /* \"#utility.yul\":9695:9924   */\n    tag_328:\n        /* \"#utility.yul\":9709:9716   */\n      dup3\n        /* \"#utility.yul\":9706:9707   */\n      dup2\n        /* \"#utility.yul\":9703:9717   */\n      lt\n        /* \"#utility.yul\":9695:9924   */\n      iszero\n      tag_330\n      jumpi\n        /* \"#utility.yul\":9798:9817   */\n      dup7\n      dup6\n      add\n        /* \"#utility.yul\":9785:9818   */\n      calldataload\n        /* \"#utility.yul\":9770:9819   */\n      dup3\n      sstore\n        /* \"#utility.yul\":9905:9909   */\n      0x20\n        /* \"#utility.yul\":9890:9910   */\n      swap5\n      dup6\n      add\n      swap5\n        /* \"#utility.yul\":9858:9859   */\n      0x01\n        /* \"#utility.yul\":9846:9860   */\n      swap1\n      swap3\n      add\n      swap2\n        /* \"#utility.yul\":9725:9737   */\n      add\n        /* \"#utility.yul\":9695:9924   */\n      jump(tag_328)\n    tag_330:\n        /* \"#utility.yul\":9699:9702   */\n      pop\n        /* \"#utility.yul\":9952:9955   */\n      dup7\n        /* \"#utility.yul\":9943:9950   */\n      dup3\n        /* \"#utility.yul\":9940:9956   */\n      lt\n        /* \"#utility.yul\":9937:10096   */\n      iszero\n      tag_331\n      jumpi\n        /* \"#utility.yul\":10076:10077   */\n      0x00\n        /* \"#utility.yul\":10072:10078   */\n      not\n        /* \"#utility.yul\":10066:10069   */\n      0xf8\n        /* \"#utility.yul\":10060:10063   */\n      dup9\n        /* \"#utility.yul\":10057:10058   */\n      0x03\n        /* \"#utility.yul\":10053:10064   */\n      shl\n        /* \"#utility.yul\":10049:10070   */\n      and\n        /* \"#utility.yul\":10045:10079   */\n      shr\n        /* \"#utility.yul\":10041:10080   */\n      not\n        /* \"#utility.yul\":10028:10037   */\n      dup5\n        /* \"#utility.yul\":10023:10026   */\n      dup8\n        /* \"#utility.yul\":10019:10038   */\n      add\n        /* \"#utility.yul\":10006:10039   */\n      calldataload\n        /* \"#utility.yul\":10002:10081   */\n      and\n        /* \"#utility.yul\":9994:10000   */\n      dup2\n        /* \"#utility.yul\":9987:10082   */\n      sstore\n        /* \"#utility.yul\":9937:10096   */\n    tag_331:\n      pop\n      pop\n        /* \"#utility.yul\":10139:10140   */\n      0x01\n        /* \"#utility.yul\":10133:10136   */\n      dup6\n        /* \"#utility.yul\":10130:10131   */\n      0x01\n        /* \"#utility.yul\":10126:10137   */\n      shl\n        /* \"#utility.yul\":10122:10141   */\n      add\n        /* \"#utility.yul\":10116:10120   */\n      dup4\n        /* \"#utility.yul\":10109:10142   */\n      sstore\n        /* \"#utility.yul\":9517:10404   */\n      pop\n      pop\n        /* \"#utility.yul\":9212:10410   */\n      pop\n      pop\n      pop\n      jump\t// out\n        /* \"#utility.yul\":10415:10805   */\n    tag_134:\n        /* \"#utility.yul\":10574:10576   */\n      0x20\n        /* \"#utility.yul\":10563:10572   */\n      dup2\n        /* \"#utility.yul\":10556:10577   */\n      mstore\n        /* \"#utility.yul\":10613:10619   */\n      dup2\n        /* \"#utility.yul\":10608:10610   */\n      0x20\n        /* \"#utility.yul\":10597:10606   */\n      dup3\n        /* \"#utility.yul\":10593:10611   */\n      add\n        /* \"#utility.yul\":10586:10620   */\n      mstore\n        /* \"#utility.yul\":10670:10676   */\n      dup2\n        /* \"#utility.yul\":10662:10668   */\n      dup4\n        /* \"#utility.yul\":10657:10659   */\n      0x40\n        /* \"#utility.yul\":10646:10655   */\n      dup4\n        /* \"#utility.yul\":10642:10660   */\n      add\n        /* \"#utility.yul\":10629:10677   */\n      calldatacopy\n        /* \"#utility.yul\":10726:10727   */\n      0x00\n        /* \"#utility.yul\":10697:10719   */\n      dup2\n      dup4\n      add\n        /* \"#utility.yul\":10721:10723   */\n      0x40\n        /* \"#utility.yul\":10693:10724   */\n      swap1\n      dup2\n      add\n        /* \"#utility.yul\":10686:10728   */\n      swap2\n      swap1\n      swap2\n      mstore\n        /* \"#utility.yul\":10789:10791   */\n      0x1f\n        /* \"#utility.yul\":10768:10783   */\n      swap1\n      swap3\n      add\n      not(0x1f)\n        /* \"#utility.yul\":10764:10793   */\n      and\n        /* \"#utility.yul\":10749:10794   */\n      add\n        /* \"#utility.yul\":10745:10799   */\n      add\n      swap2\n        /* \"#utility.yul\":10415:10805   */\n      swap1\n      pop\n      jump\t// out\n        /* \"#utility.yul\":11159:11493   */\n    tag_150:\n      sub(shl(0xa0, 0x01), 0x01)\n        /* \"#utility.yul\":11361:11393   */\n      dup4\n      and\n        /* \"#utility.yul\":11343:11394   */\n      dup2\n      mstore\n        /* \"#utility.yul\":11331:11333   */\n      0x40\n        /* \"#utility.yul\":11316:11334   */\n      dup2\n      add\n        /* \"#utility.yul\":11403:11444   */\n      tag_335\n        /* \"#utility.yul\":11437:11443   */\n      dup4\n        /* \"#utility.yul\":11403:11444   */\n      tag_243\n      jump\t// in\n    tag_335:\n        /* \"#utility.yul\":11480:11486   */\n      dup3\n        /* \"#utility.yul\":11475:11477   */\n      0x20\n        /* \"#utility.yul\":11464:11473   */\n      dup4\n        /* \"#utility.yul\":11460:11478   */\n      add\n        /* \"#utility.yul\":11453:11487   */\n      mstore\n        /* \"#utility.yul\":11159:11493   */\n      swap4\n      swap3\n      pop\n      pop\n      pop\n      jump\t// out\n        /* \"#utility.yul\":11498:11775   */\n    tag_154:\n        /* \"#utility.yul\":11565:11571   */\n      0x00\n        /* \"#utility.yul\":11618:11620   */\n      0x20\n        /* \"#utility.yul\":11606:11615   */\n      dup3\n        /* \"#utility.yul\":11597:11604   */\n      dup5\n        /* \"#utility.yul\":11593:11616   */\n      sub\n        /* \"#utility.yul\":11589:11621   */\n      slt\n        /* \"#utility.yul\":11586:11638   */\n      iszero\n      tag_337\n      jumpi\n        /* \"#utility.yul\":11634:11635   */\n      0x00\n        /* \"#utility.yul\":11631:11632   */\n      0x00\n        /* \"#utility.yul\":11624:11636   */\n      revert\n        /* \"#utility.yul\":11586:11638   */\n    tag_337:\n        /* \"#utility.yul\":11666:11675   */\n      dup2\n        /* \"#utility.yul\":11660:11676   */\n      mload\n        /* \"#utility.yul\":11719:11724   */\n      dup1\n        /* \"#utility.yul\":11712:11725   */\n      iszero\n        /* \"#utility.yul\":11705:11726   */\n      iszero\n        /* \"#utility.yul\":11698:11703   */\n      dup2\n        /* \"#utility.yul\":11695:11727   */\n      eq\n        /* \"#utility.yul\":11685:11745   */\n      tag_291\n      jumpi\n        /* \"#utility.yul\":11741:11742   */\n      0x00\n        /* \"#utility.yul\":11738:11739   */\n      0x00\n        /* \"#utility.yul\":11731:11743   */\n      revert\n        /* \"#utility.yul\":11780:12112   */\n    tag_157:\n        /* \"#utility.yul\":11982:11984   */\n      0x20\n        /* \"#utility.yul\":11964:11985   */\n      dup1\n      dup3\n      mstore\n        /* \"#utility.yul\":12021:12022   */\n      0x09\n        /* \"#utility.yul\":12001:12019   */\n      swap1\n      dup3\n      add\n        /* \"#utility.yul\":11994:12023   */\n      mstore\n      shl(0xb9, 0x2737ba1030b236b4b7)\n        /* \"#utility.yul\":12054:12056   */\n      0x40\n        /* \"#utility.yul\":12039:12057   */\n      dup3\n      add\n        /* \"#utility.yul\":12032:12071   */\n      mstore\n        /* \"#utility.yul\":12103:12105   */\n      0x60\n        /* \"#utility.yul\":12088:12106   */\n      add\n      swap1\n        /* \"#utility.yul\":11780:12112   */\n      jump\t// out\n        /* \"#utility.yul\":13103:14402   */\n    tag_201:\n        /* \"#utility.yul\":13229:13232   */\n      dup2\n        /* \"#utility.yul\":13223:13233   */\n      mload\n        /* \"#utility.yul\":13256:13274   */\n      0xffffffffffffffff\n        /* \"#utility.yul\":13248:13254   */\n      dup2\n        /* \"#utility.yul\":13245:13275   */\n      gt\n        /* \"#utility.yul\":13242:13298   */\n      iszero\n      tag_345\n      jumpi\n        /* \"#utility.yul\":13278:13296   */\n      tag_345\n      tag_76\n      jump\t// in\n    tag_345:\n        /* \"#utility.yul\":13307:13404   */\n      tag_346\n        /* \"#utility.yul\":13397:13403   */\n      dup2\n        /* \"#utility.yul\":13357:13395   */\n      tag_347\n        /* \"#utility.yul\":13389:13393   */\n      dup5\n        /* \"#utility.yul\":13383:13394   */\n      sload\n        /* \"#utility.yul\":13357:13395   */\n      tag_89\n      jump\t// in\n    tag_347:\n        /* \"#utility.yul\":13351:13355   */\n      dup5\n        /* \"#utility.yul\":13307:13404   */\n      tag_248\n      jump\t// in\n    tag_346:\n        /* \"#utility.yul\":13453:13457   */\n      0x20\n        /* \"#utility.yul\":13484:13486   */\n      0x1f\n        /* \"#utility.yul\":13473:13487   */\n      dup3\n      gt\n        /* \"#utility.yul\":13501:13502   */\n      0x01\n        /* \"#utility.yul\":13496:14145   */\n      dup2\n      eq\n      tag_349\n      jumpi\n        /* \"#utility.yul\":14189:14190   */\n      0x00\n        /* \"#utility.yul\":14206:14212   */\n      dup4\n        /* \"#utility.yul\":14203:14292   */\n      iszero\n      tag_350\n      jumpi\n      pop\n        /* \"#utility.yul\":14258:14277   */\n      dup5\n      dup3\n      add\n        /* \"#utility.yul\":14252:14278   */\n      mload\n        /* \"#utility.yul\":14203:14292   */\n    tag_350:\n      not(0x00)\n        /* \"#utility.yul\":9169:9170   */\n      0x03\n        /* \"#utility.yul\":9165:9176   */\n      dup6\n      swap1\n      shl\n        /* \"#utility.yul\":9161:9185   */\n      shr\n        /* \"#utility.yul\":9157:9186   */\n      not\n        /* \"#utility.yul\":9147:9187   */\n      and\n        /* \"#utility.yul\":9193:9194   */\n      0x01\n        /* \"#utility.yul\":9189:9200   */\n      dup5\n      swap1\n      shl\n        /* \"#utility.yul\":9144:9201   */\n      or\n        /* \"#utility.yul\":14305:14386   */\n      dup5\n      sstore\n        /* \"#utility.yul\":13466:14396   */\n      jump(tag_316)\n        /* \"#utility.yul\":13496:14145   */\n    tag_349:\n        /* \"#utility.yul\":8465:8466   */\n      0x00\n        /* \"#utility.yul\":8458:8472   */\n      dup5\n      dup2\n      mstore\n        /* \"#utility.yul\":8502:8506   */\n      0x20\n        /* \"#utility.yul\":8489:8507   */\n      dup2\n      keccak256\n      not(0x1f)\n        /* \"#utility.yul\":13532:13552   */\n      dup6\n      and\n      swap2\n        /* \"#utility.yul\":13650:13872   */\n    tag_353:\n        /* \"#utility.yul\":13664:13671   */\n      dup3\n        /* \"#utility.yul\":13661:13662   */\n      dup2\n        /* \"#utility.yul\":13658:13672   */\n      lt\n        /* \"#utility.yul\":13650:13872   */\n      iszero\n      tag_355\n      jumpi\n        /* \"#utility.yul\":13746:13765   */\n      dup8\n      dup6\n      add\n        /* \"#utility.yul\":13740:13766   */\n      mload\n        /* \"#utility.yul\":13725:13767   */\n      dup3\n      sstore\n        /* \"#utility.yul\":13853:13857   */\n      0x20\n        /* \"#utility.yul\":13838:13858   */\n      swap5\n      dup6\n      add\n      swap5\n        /* \"#utility.yul\":13806:13807   */\n      0x01\n        /* \"#utility.yul\":13794:13808   */\n      swap1\n      swap3\n      add\n      swap2\n        /* \"#utility.yul\":13680:13692   */\n      add\n        /* \"#utility.yul\":13650:13872   */\n      jump(tag_353)\n    tag_355:\n        /* \"#utility.yul\":13654:13657   */\n      pop\n        /* \"#utility.yul\":13900:13906   */\n      dup5\n        /* \"#utility.yul\":13891:13898   */\n      dup3\n        /* \"#utility.yul\":13888:13907   */\n      lt\n        /* \"#utility.yul\":13885:14086   */\n      iszero\n      tag_356\n      jumpi\n        /* \"#utility.yul\":13961:13980   */\n      dup7\n      dup5\n      add\n        /* \"#utility.yul\":13955:13981   */\n      mload\n      not(0x00)\n        /* \"#utility.yul\":14044:14045   */\n      0x03\n        /* \"#utility.yul\":14040:14054   */\n      dup8\n      swap1\n      shl\n        /* \"#utility.yul\":14056:14059   */\n      0xf8\n        /* \"#utility.yul\":14036:14060   */\n      and\n        /* \"#utility.yul\":14032:14069   */\n      shr\n        /* \"#utility.yul\":14028:14070   */\n      not\n        /* \"#utility.yul\":14013:14071   */\n      and\n        /* \"#utility.yul\":13998:14072   */\n      dup2\n      sstore\n        /* \"#utility.yul\":13885:14086   */\n    tag_356:\n      pop\n      pop\n      pop\n      pop\n        /* \"#utility.yul\":14132:14133   */\n      0x01\n        /* \"#utility.yul\":14116:14130   */\n      swap1\n      dup2\n      shl\n        /* \"#utility.yul\":14112:14134   */\n      add\n        /* \"#utility.yul\":14099:14135   */\n      swap1\n      sstore\n      pop\n        /* \"#utility.yul\":13103:14402   */\n      jump\t// out\n\n    auxdata: 0xa264697066735822122004627ec75b4a06f71c64c24898ab038afb99fb4968699b0331eb17a63408497c64736f6c634300081e0033\n}\n",
				"bytecode": {
					"linkReferences": {},
					"object": "6080604052348015600e575f5ffd5b506040516119a03803806119a0833981016040819052602b916074565b5f80546001600160a01b039384166001600160a01b0319918216179091556001805492909316911617905560a0565b80516001600160a01b0381168114606f575f5ffd5b919050565b5f5f604083850312156084575f5ffd5b608b83605a565b9150609760208401605a565b90509250929050565b6118f3806100ad5f395ff3fe608060405234801561000f575f5ffd5b50600436106100cb575f3560e01c8063ab1ca44c11610088578063dcad55c011610063578063dcad55c0146101d0578063ddd79504146101e3578063e0e8086b14610203578063f9b6117f14610216575f5ffd5b8063ab1ca44c14610184578063abf5e83614610197578063b7ee0adc146101aa575f5ffd5b8063037c73c2146100cf57806317c76c74146100ed5780633e5bde701461010257806342f54b89146101235780635be5fd391461014e578063a8bfa25514610161575b5f5ffd5b6100d7610228565b6040516100e49190611360565b60405180910390f35b6101006100fb3660046113de565b610507565b005b6101156101103660046113de565b6105a9565b6040519081526020016100e4565b600154610136906001600160a01b031681565b6040516001600160a01b0390911681526020016100e4565b61010061015c36600461144b565b6105d4565b61017461016f3660046113de565b6106fe565b60405190151581526020016100e4565b6101006101923660046113de565b610777565b6101006101a53660046114fa565b610800565b6101bd6101b8366004611524565b6109b8565b6040516100e49796959493929190611544565b6101006101de36600461144b565b610b93565b6101f66101f1366004611524565b610e95565b6040516100e491906115b7565b6101006102113660046115c9565b6110cb565b5f54610136906001600160a01b031681565b6003546060905f9067ffffffffffffffff811115610248576102486115f9565b60405190808252806020026020018201604052801561028157816020015b61026e61121e565b8152602001906001900390816102665790505b5090505f5b6003548110156105015760025f600383815481106102a6576102a661160d565b5f9182526020808320909101546001600160a01b039081168452838201949094526040928301909120825160e0810190935280549093168252600183018054929392918401916102f590611621565b80601f016020809104026020016040519081016040528092919081815260200182805461032190611621565b801561036c5780601f106103435761010080835404028352916020019161036c565b820191905f5260205f20905b81548152906001019060200180831161034f57829003601f168201915b5050505050815260200160028201805461038590611621565b80601f01602080910402602001604051908101604052809291908181526020018280546103b190611621565b80156103fc5780601f106103d3576101008083540402835291602001916103fc565b820191905f5260205f20905b8154815290600101906020018083116103df57829003601f168201915b5050505050815260200160038201805461041590611621565b80601f016020809104026020016040519081016040528092919081815260200182805461044190611621565b801561048c5780601f106104635761010080835404028352916020019161048c565b820191905f5260205f20905b81548152906001019060200180831161046f57829003601f168201915b50505091835250506004820154602082015260058201546040820152600682015460609091019060ff1660018111156104c7576104c761129e565b60018111156104d8576104d861129e565b815250508282815181106104ee576104ee61160d565b6020908102919091010152600101610286565b50919050565b5f5b6001600160a01b0383165f908152600460205260409020548110156105a4576001600160a01b0383165f9081526004602052604090208054839190839081106105545761055461160d565b905f5260205f2001540361059c576001600160a01b0383165f90815260046020526040902080548061058857610588611653565b600190038181905f5260205f20015f905590555b600101610509565b505050565b6004602052815f5260405f2081815481106105c2575f80fd5b905f5260205f20015f91509150505481565b6001600160a01b038781165f908152600260205260409020541661063f5760405162461bcd60e51b815260206004820152601c60248201527f5374616666206164647265737320646f6573206e6f742065786973740000000060448201526064015b60405180910390fd5b6001600160a01b0387165f9081526002602052604090206001016106648688836116b2565b506001600160a01b0387165f9081526002602081905260409091200161068b8486836116b2565b506001600160a01b0387165f9081526002602052604090206003016106b18284836116b2565b50866001600160a01b03167f3dcb5fe974f30b3e06b920890e4bdb2242f9f641c1d184169397248527bd9e4b87876040516106ed92919061176c565b60405180910390a250505050505050565b5f805b6001600160a01b0384165f9081526004602052604090205481101561076c576001600160a01b0384165f90815260046020526040902080548491908390811061074c5761074c61160d565b905f5260205f20015403610764576001915050610771565b600101610701565b505f90505b92915050565b6001600160a01b038281165f9081526002602052604090205416156107d55760405162461bcd60e51b815260206004820152601460248201527314dd18599988191bd95cc81b9bdd08195e1a5cdd60621b6044820152606401610636565b6001600160a01b039091165f9081526004602090815260408220805460018101825590835291200155565b6001546040516395a8c58d60e01b81526001600160a01b03909116906395a8c58d906108329032905f9060040161179a565b602060405180830381865afa15801561084d573d5f5f3e3d5ffd5b505050506040513d601f19601f8201168201806040525081019061087191906117c0565b61088d5760405162461bcd60e51b8152600401610636906117df565b6001600160a01b038181165f90815260026020526040902054166108f35760405162461bcd60e51b815260206004820152601c60248201527f5374616666206164647265737320646f6573206e6f74206578697374000000006044820152606401610636565b6001600160a01b038181165f81815260026020526040808220600601805460ff1916600117905590549051637ea076a360e01b815260048101869052602481019290925290911690637ea076a3906044015f604051808303815f87803b15801561095b575f5ffd5b505af115801561096d573d5f5f3e3d5ffd5b50505050806001600160a01b03167f9db6c9b6c2a287d549df6b984d957053e5f3782439393782b3b61f71715cbe93836040516109ac91815260200190565b60405180910390a25050565b60026020525f9081526040902080546001820180546001600160a01b0390921692916109e390611621565b80601f0160208091040260200160405190810160405280929190818152602001828054610a0f90611621565b8015610a5a5780601f10610a3157610100808354040283529160200191610a5a565b820191905f5260205f20905b815481529060010190602001808311610a3d57829003601f168201915b505050505090806002018054610a6f90611621565b80601f0160208091040260200160405190810160405280929190818152602001828054610a9b90611621565b8015610ae65780601f10610abd57610100808354040283529160200191610ae6565b820191905f5260205f20905b815481529060010190602001808311610ac957829003601f168201915b505050505090806003018054610afb90611621565b80601f0160208091040260200160405190810160405280929190818152602001828054610b2790611621565b8015610b725780601f10610b4957610100808354040283529160200191610b72565b820191905f5260205f20905b815481529060010190602001808311610b5557829003601f168201915b50505050600483015460058401546006909401549293909290915060ff1687565b6001546040516395a8c58d60e01b81526001600160a01b03909116906395a8c58d90610bc59032905f9060040161179a565b602060405180830381865afa158015610be0573d5f5f3e3d5ffd5b505050506040513d601f19601f82011682018060405250810190610c0491906117c0565b610c205760405162461bcd60e51b8152600401610636906117df565b6001600160a01b038716610c6e5760405162461bcd60e51b8152602060048201526015602482015274496e76616c6964207374616666206164647265737360581b6044820152606401610636565b6001600160a01b038781165f908152600260205260409020541615610cd55760405162461bcd60e51b815260206004820152601c60248201527f5374616666206164647265737320616c726561647920657869737473000000006044820152606401610636565b6040518060e00160405280886001600160a01b0316815260200187878080601f0160208091040260200160405190810160405280939291908181526020018383808284375f92019190915250505090825250604080516020601f8801819004810282018101909252868152918101919087908790819084018382808284375f92019190915250505090825250604080516020601f8601819004810282018101909252848152918101919085908590819084018382808284375f92018290525093855250505060208201819052604082018190526060909101526001600160a01b038881165f908152600260209081526040909120835181546001600160a01b03191693169290921782558201516001820190610df19082611802565b5060408201516002820190610e069082611802565b5060608201516003820190610e1b9082611802565b506080820151600482015560a0820151600582015560c082015160068201805460ff191660018381811115610e5257610e5261129e565b0217905550905050866001600160a01b03167f3985ff4d998287fd60ca803c8ceccc30f94edcc70957500af9fcfd47f2f544c787876040516106ed92919061176c565b610e9d61121e565b6001600160a01b038083165f90815260026020908152604091829020825160e081019093528054909316825260018301805492939291840191610edf90611621565b80601f0160208091040260200160405190810160405280929190818152602001828054610f0b90611621565b8015610f565780601f10610f2d57610100808354040283529160200191610f56565b820191905f5260205f20905b815481529060010190602001808311610f3957829003601f168201915b50505050508152602001600282018054610f6f90611621565b80601f0160208091040260200160405190810160405280929190818152602001828054610f9b90611621565b8015610fe65780601f10610fbd57610100808354040283529160200191610fe6565b820191905f5260205f20905b815481529060010190602001808311610fc957829003601f168201915b50505050508152602001600382018054610fff90611621565b80601f016020809104026020016040519081016040528092919081815260200182805461102b90611621565b80156110765780601f1061104d57610100808354040283529160200191611076565b820191905f5260205f20905b81548152906001019060200180831161105957829003601f168201915b50505091835250506004820154602082015260058201546040820152600682015460609091019060ff1660018111156110b1576110b161129e565b60018111156110c2576110c261129e565b90525092915050565b6001546040516395a8c58d60e01b81526001600160a01b03909116906395a8c58d906110fd9032905f9060040161179a565b602060405180830381865afa158015611118573d5f5f3e3d5ffd5b505050506040513d601f19601f8201168201806040525081019061113c91906117c0565b6111585760405162461bcd60e51b8152600401610636906117df565b6001600160a01b038381165f90815260026020526040902054166111b55760405162461bcd60e51b815260206004820152601460248201527314dd18599988191bd95cc81b9bdd08195e1a5cdd60621b6044820152606401610636565b6001600160a01b0383165f81815260026020908152604091829020600481018690556005018490558151928352820184905281018290527f4287fc91e372e2c0c4fd45aca88c869f59dad9163b11b71dc130bfc4cd4e85069060600160405180910390a1505050565b6040518060e001604052805f6001600160a01b031681526020016060815260200160608152602001606081526020015f81526020015f81526020015f600181111561126b5761126b61129e565b905290565b5f81518084528060208401602086015e5f602082860101526020601f19601f83011685010191505092915050565b634e487b7160e01b5f52602160045260245ffd5b600281106112ce57634e487b7160e01b5f52602160045260245ffd5b50565b60018060a01b0381511682525f602082015160e060208501526112f760e0850182611270565b9050604083015184820360408601526113108282611270565b9150506060830151848203606086015261132a8282611270565b9150506080830151608085015260a083015160a085015260c083015161134f816112b2565b8060c0860152508091505092915050565b5f602082016020835280845180835260408501915060408160051b8601019250602086015f5b828110156113b757603f198786030184526113a28583516112d1565b94506020938401939190910190600101611386565b50929695505050505050565b80356001600160a01b03811681146113d9575f5ffd5b919050565b5f5f604083850312156113ef575f5ffd5b6113f8836113c3565b946020939093013593505050565b5f5f83601f840112611416575f5ffd5b50813567ffffffffffffffff81111561142d575f5ffd5b602083019150836020828501011115611444575f5ffd5b9250929050565b5f5f5f5f5f5f5f6080888a031215611461575f5ffd5b61146a886113c3565b9650602088013567ffffffffffffffff811115611485575f5ffd5b6114918a828b01611406565b909750955050604088013567ffffffffffffffff8111156114b0575f5ffd5b6114bc8a828b01611406565b909550935050606088013567ffffffffffffffff8111156114db575f5ffd5b6114e78a828b01611406565b989b979a50959850939692959293505050565b5f5f6040838503121561150b575f5ffd5b8235915061151b602084016113c3565b90509250929050565b5f60208284031215611534575f5ffd5b61153d826113c3565b9392505050565b6001600160a01b038816815260e0602082018190525f9061156790830189611270565b82810360408401526115798189611270565b9050828103606084015261158d8188611270565b9150508460808301528360a08301526115a5836112b2565b8260c083015298975050505050505050565b602081525f61153d60208301846112d1565b5f5f5f606084860312156115db575f5ffd5b6115e4846113c3565b95602085013595506040909401359392505050565b634e487b7160e01b5f52604160045260245ffd5b634e487b7160e01b5f52603260045260245ffd5b600181811c9082168061163557607f821691505b60208210810361050157634e487b7160e01b5f52602260045260245ffd5b634e487b7160e01b5f52603160045260245ffd5b601f8211156105a457805f5260205f20601f840160051c8101602085101561168c5750805b601f840160051c820191505b818110156116ab575f8155600101611698565b5050505050565b67ffffffffffffffff8311156116ca576116ca6115f9565b6116de836116d88354611621565b83611667565b5f601f84116001811461170f575f85156116f85750838201355b5f19600387901b1c1916600186901b1783556116ab565b5f83815260208120601f198716915b8281101561173e578685013582556020948501946001909201910161171e565b508682101561175a575f1960f88860031b161c19848701351681555b505060018560011b0183555050505050565b60208152816020820152818360408301375f818301604090810191909152601f909201601f19160101919050565b6001600160a01b0383168152604081016117b3836112b2565b8260208301529392505050565b5f602082840312156117d0575f5ffd5b8151801515811461153d575f5ffd5b6020808252600990820152682737ba1030b236b4b760b91b604082015260600190565b815167ffffffffffffffff81111561181c5761181c6115f9565b6118308161182a8454611621565b84611667565b6020601f821160018114611862575f831561184b5750848201515b5f19600385901b1c1916600184901b1784556116ab565b5f84815260208120601f198516915b828110156118915787850151825560209485019460019092019101611871565b50848210156118ae57868401515f19600387901b60f8161c191681555b50505050600190811b0190555056fea264697066735822122004627ec75b4a06f71c64c24898ab038afb99fb4968699b0331eb17a63408497c64736f6c634300081e0033",
					"opcodes": "PUSH1 0x80 PUSH1 0x40 MSTORE CALLVALUE DUP1 ISZERO PUSH1 0xE JUMPI PUSH0 PUSH0 REVERT JUMPDEST POP PUSH1 0x40 MLOAD PUSH2 0x19A0 CODESIZE SUB DUP1 PUSH2 0x19A0 DUP4 CODECOPY DUP2 ADD PUSH1 0x40 DUP2 SWAP1 MSTORE PUSH1 0x2B SWAP2 PUSH1 0x74 JUMP JUMPDEST PUSH0 DUP1 SLOAD PUSH1 0x1 PUSH1 0x1 PUSH1 0xA0 SHL SUB SWAP4 DUP5 AND PUSH1 0x1 PUSH1 0x1 PUSH1 0xA0 SHL SUB NOT SWAP2 DUP3 AND OR SWAP1 SWAP2 SSTORE PUSH1 0x1 DUP1 SLOAD SWAP3 SWAP1 SWAP4 AND SWAP2 AND OR SWAP1 SSTORE PUSH1 0xA0 JUMP JUMPDEST DUP1 MLOAD PUSH1 0x1 PUSH1 0x1 PUSH1 0xA0 SHL SUB DUP2 AND DUP2 EQ PUSH1 0x6F JUMPI PUSH0 PUSH0 REVERT JUMPDEST SWAP2 SWAP1 POP JUMP JUMPDEST PUSH0 PUSH0 PUSH1 0x40 DUP4 DUP6 SUB SLT ISZERO PUSH1 0x84 JUMPI PUSH0 PUSH0 REVERT JUMPDEST PUSH1 0x8B DUP4 PUSH1 0x5A JUMP JUMPDEST SWAP2 POP PUSH1 0x97 PUSH1 0x20 DUP5 ADD PUSH1 0x5A JUMP JUMPDEST SWAP1 POP SWAP3 POP SWAP3 SWAP1 POP JUMP JUMPDEST PUSH2 0x18F3 DUP1 PUSH2 0xAD PUSH0 CODECOPY PUSH0 RETURN INVALID PUSH1 0x80 PUSH1 0x40 MSTORE CALLVALUE DUP1 ISZERO PUSH2 0xF JUMPI PUSH0 PUSH0 REVERT JUMPDEST POP PUSH1 0x4 CALLDATASIZE LT PUSH2 0xCB JUMPI PUSH0 CALLDATALOAD PUSH1 0xE0 SHR DUP1 PUSH4 0xAB1CA44C GT PUSH2 0x88 JUMPI DUP1 PUSH4 0xDCAD55C0 GT PUSH2 0x63 JUMPI DUP1 PUSH4 0xDCAD55C0 EQ PUSH2 0x1D0 JUMPI DUP1 PUSH4 0xDDD79504 EQ PUSH2 0x1E3 JUMPI DUP1 PUSH4 0xE0E8086B EQ PUSH2 0x203 JUMPI DUP1 PUSH4 0xF9B6117F EQ PUSH2 0x216 JUMPI PUSH0 PUSH0 REVERT JUMPDEST DUP1 PUSH4 0xAB1CA44C EQ PUSH2 0x184 JUMPI DUP1 PUSH4 0xABF5E836 EQ PUSH2 0x197 JUMPI DUP1 PUSH4 0xB7EE0ADC EQ PUSH2 0x1AA JUMPI PUSH0 PUSH0 REVERT JUMPDEST DUP1 PUSH4 0x37C73C2 EQ PUSH2 0xCF JUMPI DUP1 PUSH4 0x17C76C74 EQ PUSH2 0xED JUMPI DUP1 PUSH4 0x3E5BDE70 EQ PUSH2 0x102 JUMPI DUP1 PUSH4 0x42F54B89 EQ PUSH2 0x123 JUMPI DUP1 PUSH4 0x5BE5FD39 EQ PUSH2 0x14E JUMPI DUP1 PUSH4 0xA8BFA255 EQ PUSH2 0x161 JUMPI JUMPDEST PUSH0 PUSH0 REVERT JUMPDEST PUSH2 0xD7 PUSH2 0x228 JUMP JUMPDEST PUSH1 0x40 MLOAD PUSH2 0xE4 SWAP2 SWAP1 PUSH2 0x1360 JUMP JUMPDEST PUSH1 0x40 MLOAD DUP1 SWAP2 SUB SWAP1 RETURN JUMPDEST PUSH2 0x100 PUSH2 0xFB CALLDATASIZE PUSH1 0x4 PUSH2 0x13DE JUMP JUMPDEST PUSH2 0x507 JUMP JUMPDEST STOP JUMPDEST PUSH2 0x115 PUSH2 0x110 CALLDATASIZE PUSH1 0x4 PUSH2 0x13DE JUMP JUMPDEST PUSH2 0x5A9 JUMP JUMPDEST PUSH1 0x40 MLOAD SWAP1 DUP2 MSTORE PUSH1 0x20 ADD PUSH2 0xE4 JUMP JUMPDEST PUSH1 0x1 SLOAD PUSH2 0x136 SWAP1 PUSH1 0x1 PUSH1 0x1 PUSH1 0xA0 SHL SUB AND DUP2 JUMP JUMPDEST PUSH1 0x40 MLOAD PUSH1 0x1 PUSH1 0x1 PUSH1 0xA0 SHL SUB SWAP1 SWAP2 AND DUP2 MSTORE PUSH1 0x20 ADD PUSH2 0xE4 JUMP JUMPDEST PUSH2 0x100 PUSH2 0x15C CALLDATASIZE PUSH1 0x4 PUSH2 0x144B JUMP JUMPDEST PUSH2 0x5D4 JUMP JUMPDEST PUSH2 0x174 PUSH2 0x16F CALLDATASIZE PUSH1 0x4 PUSH2 0x13DE JUMP JUMPDEST PUSH2 0x6FE JUMP JUMPDEST PUSH1 0x40 MLOAD SWAP1 ISZERO ISZERO DUP2 MSTORE PUSH1 0x20 ADD PUSH2 0xE4 JUMP JUMPDEST PUSH2 0x100 PUSH2 0x192 CALLDATASIZE PUSH1 0x4 PUSH2 0x13DE JUMP JUMPDEST PUSH2 0x777 JUMP JUMPDEST PUSH2 0x100 PUSH2 0x1A5 CALLDATASIZE PUSH1 0x4 PUSH2 0x14FA JUMP JUMPDEST PUSH2 0x800 JUMP JUMPDEST PUSH2 0x1BD PUSH2 0x1B8 CALLDATASIZE PUSH1 0x4 PUSH2 0x1524 JUMP JUMPDEST PUSH2 0x9B8 JUMP JUMPDEST PUSH1 0x40 MLOAD PUSH2 0xE4 SWAP8 SWAP7 SWAP6 SWAP5 SWAP4 SWAP3 SWAP2 SWAP1 PUSH2 0x1544 JUMP JUMPDEST PUSH2 0x100 PUSH2 0x1DE CALLDATASIZE PUSH1 0x4 PUSH2 0x144B JUMP JUMPDEST PUSH2 0xB93 JUMP JUMPDEST PUSH2 0x1F6 PUSH2 0x1F1 CALLDATASIZE PUSH1 0x4 PUSH2 0x1524 JUMP JUMPDEST PUSH2 0xE95 JUMP JUMPDEST PUSH1 0x40 MLOAD PUSH2 0xE4 SWAP2 SWAP1 PUSH2 0x15B7 JUMP JUMPDEST PUSH2 0x100 PUSH2 0x211 CALLDATASIZE PUSH1 0x4 PUSH2 0x15C9 JUMP JUMPDEST PUSH2 0x10CB JUMP JUMPDEST PUSH0 SLOAD PUSH2 0x136 SWAP1 PUSH1 0x1 PUSH1 0x1 PUSH1 0xA0 SHL SUB AND DUP2 JUMP JUMPDEST PUSH1 0x3 SLOAD PUSH1 0x60 SWAP1 PUSH0 SWAP1 PUSH8 0xFFFFFFFFFFFFFFFF DUP2 GT ISZERO PUSH2 0x248 JUMPI PUSH2 0x248 PUSH2 0x15F9 JUMP JUMPDEST PUSH1 0x40 MLOAD SWAP1 DUP1 DUP3 MSTORE DUP1 PUSH1 0x20 MUL PUSH1 0x20 ADD DUP3 ADD PUSH1 0x40 MSTORE DUP1 ISZERO PUSH2 0x281 JUMPI DUP2 PUSH1 0x20 ADD JUMPDEST PUSH2 0x26E PUSH2 0x121E JUMP JUMPDEST DUP2 MSTORE PUSH1 0x20 ADD SWAP1 PUSH1 0x1 SWAP1 SUB SWAP1 DUP2 PUSH2 0x266 JUMPI SWAP1 POP JUMPDEST POP SWAP1 POP PUSH0 JUMPDEST PUSH1 0x3 SLOAD DUP2 LT ISZERO PUSH2 0x501 JUMPI PUSH1 0x2 PUSH0 PUSH1 0x3 DUP4 DUP2 SLOAD DUP2 LT PUSH2 0x2A6 JUMPI PUSH2 0x2A6 PUSH2 0x160D JUMP JUMPDEST PUSH0 SWAP2 DUP3 MSTORE PUSH1 0x20 DUP1 DUP4 KECCAK256 SWAP1 SWAP2 ADD SLOAD PUSH1 0x1 PUSH1 0x1 PUSH1 0xA0 SHL SUB SWAP1 DUP2 AND DUP5 MSTORE DUP4 DUP3 ADD SWAP5 SWAP1 SWAP5 MSTORE PUSH1 0x40 SWAP3 DUP4 ADD SWAP1 SWAP2 KECCAK256 DUP3 MLOAD PUSH1 0xE0 DUP2 ADD SWAP1 SWAP4 MSTORE DUP1 SLOAD SWAP1 SWAP4 AND DUP3 MSTORE PUSH1 0x1 DUP4 ADD DUP1 SLOAD SWAP3 SWAP4 SWAP3 SWAP2 DUP5 ADD SWAP2 PUSH2 0x2F5 SWAP1 PUSH2 0x1621 JUMP JUMPDEST DUP1 PUSH1 0x1F ADD PUSH1 0x20 DUP1 SWAP2 DIV MUL PUSH1 0x20 ADD PUSH1 0x40 MLOAD SWAP1 DUP2 ADD PUSH1 0x40 MSTORE DUP1 SWAP3 SWAP2 SWAP1 DUP2 DUP2 MSTORE PUSH1 0x20 ADD DUP3 DUP1 SLOAD PUSH2 0x321 SWAP1 PUSH2 0x1621 JUMP JUMPDEST DUP1 ISZERO PUSH2 0x36C JUMPI DUP1 PUSH1 0x1F LT PUSH2 0x343 JUMPI PUSH2 0x100 DUP1 DUP4 SLOAD DIV MUL DUP4 MSTORE SWAP2 PUSH1 0x20 ADD SWAP2 PUSH2 0x36C JUMP JUMPDEST DUP3 ADD SWAP2 SWAP1 PUSH0 MSTORE PUSH1 0x20 PUSH0 KECCAK256 SWAP1 JUMPDEST DUP2 SLOAD DUP2 MSTORE SWAP1 PUSH1 0x1 ADD SWAP1 PUSH1 0x20 ADD DUP1 DUP4 GT PUSH2 0x34F JUMPI DUP3 SWAP1 SUB PUSH1 0x1F AND DUP3 ADD SWAP2 JUMPDEST POP POP POP POP POP DUP2 MSTORE PUSH1 0x20 ADD PUSH1 0x2 DUP3 ADD DUP1 SLOAD PUSH2 0x385 SWAP1 PUSH2 0x1621 JUMP JUMPDEST DUP1 PUSH1 0x1F ADD PUSH1 0x20 DUP1 SWAP2 DIV MUL PUSH1 0x20 ADD PUSH1 0x40 MLOAD SWAP1 DUP2 ADD PUSH1 0x40 MSTORE DUP1 SWAP3 SWAP2 SWAP1 DUP2 DUP2 MSTORE PUSH1 0x20 ADD DUP3 DUP1 SLOAD PUSH2 0x3B1 SWAP1 PUSH2 0x1621 JUMP JUMPDEST DUP1 ISZERO PUSH2 0x3FC JUMPI DUP1 PUSH1 0x1F LT PUSH2 0x3D3 JUMPI PUSH2 0x100 DUP1 DUP4 SLOAD DIV MUL DUP4 MSTORE SWAP2 PUSH1 0x20 ADD SWAP2 PUSH2 0x3FC JUMP JUMPDEST DUP3 ADD SWAP2 SWAP1 PUSH0 MSTORE PUSH1 0x20 PUSH0 KECCAK256 SWAP1 JUMPDEST DUP2 SLOAD DUP2 MSTORE SWAP1 PUSH1 0x1 ADD SWAP1 PUSH1 0x20 ADD DUP1 DUP4 GT PUSH2 0x3DF JUMPI DUP3 SWAP1 SUB PUSH1 0x1F AND DUP3 ADD SWAP2 JUMPDEST POP POP POP POP POP DUP2 MSTORE PUSH1 0x20 ADD PUSH1 0x3 DUP3 ADD DUP1 SLOAD PUSH2 0x415 SWAP1 PUSH2 0x1621 JUMP JUMPDEST DUP1 PUSH1 0x1F ADD PUSH1 0x20 DUP1 SWAP2 DIV MUL PUSH1 0x20 ADD PUSH1 0x40 MLOAD SWAP1 DUP2 ADD PUSH1 0x40 MSTORE DUP1 SWAP3 SWAP2 SWAP1 DUP2 DUP2 MSTORE PUSH1 0x20 ADD DUP3 DUP1 SLOAD PUSH2 0x441 SWAP1 PUSH2 0x1621 JUMP JUMPDEST DUP1 ISZERO PUSH2 0x48C JUMPI DUP1 PUSH1 0x1F LT PUSH2 0x463 JUMPI PUSH2 0x100 DUP1 DUP4 SLOAD DIV MUL DUP4 MSTORE SWAP2 PUSH1 0x20 ADD SWAP2 PUSH2 0x48C JUMP JUMPDEST DUP3 ADD SWAP2 SWAP1 PUSH0 MSTORE PUSH1 0x20 PUSH0 KECCAK256 SWAP1 JUMPDEST DUP2 SLOAD DUP2 MSTORE SWAP1 PUSH1 0x1 ADD SWAP1 PUSH1 0x20 ADD DUP1 DUP4 GT PUSH2 0x46F JUMPI DUP3 SWAP1 SUB PUSH1 0x1F AND DUP3 ADD SWAP2 JUMPDEST POP POP POP SWAP2 DUP4 MSTORE POP POP PUSH1 0x4 DUP3 ADD SLOAD PUSH1 0x20 DUP3 ADD MSTORE PUSH1 0x5 DUP3 ADD SLOAD PUSH1 0x40 DUP3 ADD MSTORE PUSH1 0x6 DUP3 ADD SLOAD PUSH1 0x60 SWAP1 SWAP2 ADD SWAP1 PUSH1 0xFF AND PUSH1 0x1 DUP2 GT ISZERO PUSH2 0x4C7 JUMPI PUSH2 0x4C7 PUSH2 0x129E JUMP JUMPDEST PUSH1 0x1 DUP2 GT ISZERO PUSH2 0x4D8 JUMPI PUSH2 0x4D8 PUSH2 0x129E JUMP JUMPDEST DUP2 MSTORE POP POP DUP3 DUP3 DUP2 MLOAD DUP2 LT PUSH2 0x4EE JUMPI PUSH2 0x4EE PUSH2 0x160D JUMP JUMPDEST PUSH1 0x20 SWAP1 DUP2 MUL SWAP2 SWAP1 SWAP2 ADD ADD MSTORE PUSH1 0x1 ADD PUSH2 0x286 JUMP JUMPDEST POP SWAP2 SWAP1 POP JUMP JUMPDEST PUSH0 JUMPDEST PUSH1 0x1 PUSH1 0x1 PUSH1 0xA0 SHL SUB DUP4 AND PUSH0 SWAP1 DUP2 MSTORE PUSH1 0x4 PUSH1 0x20 MSTORE PUSH1 0x40 SWAP1 KECCAK256 SLOAD DUP2 LT ISZERO PUSH2 0x5A4 JUMPI PUSH1 0x1 PUSH1 0x1 PUSH1 0xA0 SHL SUB DUP4 AND PUSH0 SWAP1 DUP2 MSTORE PUSH1 0x4 PUSH1 0x20 MSTORE PUSH1 0x40 SWAP1 KECCAK256 DUP1 SLOAD DUP4 SWAP2 SWAP1 DUP4 SWAP1 DUP2 LT PUSH2 0x554 JUMPI PUSH2 0x554 PUSH2 0x160D JUMP JUMPDEST SWAP1 PUSH0 MSTORE PUSH1 0x20 PUSH0 KECCAK256 ADD SLOAD SUB PUSH2 0x59C JUMPI PUSH1 0x1 PUSH1 0x1 PUSH1 0xA0 SHL SUB DUP4 AND PUSH0 SWAP1 DUP2 MSTORE PUSH1 0x4 PUSH1 0x20 MSTORE PUSH1 0x40 SWAP1 KECCAK256 DUP1 SLOAD DUP1 PUSH2 0x588 JUMPI PUSH2 0x588 PUSH2 0x1653 JUMP JUMPDEST PUSH1 0x1 SWAP1 SUB DUP2 DUP2 SWAP1 PUSH0 MSTORE PUSH1 0x20 PUSH0 KECCAK256 ADD PUSH0 SWAP1 SSTORE SWAP1 SSTORE JUMPDEST PUSH1 0x1 ADD PUSH2 0x509 JUMP JUMPDEST POP POP POP JUMP JUMPDEST PUSH1 0x4 PUSH1 0x20 MSTORE DUP2 PUSH0 MSTORE PUSH1 0x40 PUSH0 KECCAK256 DUP2 DUP2 SLOAD DUP2 LT PUSH2 0x5C2 JUMPI PUSH0 DUP1 REVERT JUMPDEST SWAP1 PUSH0 MSTORE PUSH1 0x20 PUSH0 KECCAK256 ADD PUSH0 SWAP2 POP SWAP2 POP POP SLOAD DUP2 JUMP JUMPDEST PUSH1 0x1 PUSH1 0x1 PUSH1 0xA0 SHL SUB DUP8 DUP2 AND PUSH0 SWAP1 DUP2 MSTORE PUSH1 0x2 PUSH1 0x20 MSTORE PUSH1 0x40 SWAP1 KECCAK256 SLOAD AND PUSH2 0x63F JUMPI PUSH1 0x40 MLOAD PUSH3 0x461BCD PUSH1 0xE5 SHL DUP2 MSTORE PUSH1 0x20 PUSH1 0x4 DUP3 ADD MSTORE PUSH1 0x1C PUSH1 0x24 DUP3 ADD MSTORE PUSH32 0x5374616666206164647265737320646F6573206E6F7420657869737400000000 PUSH1 0x44 DUP3 ADD MSTORE PUSH1 0x64 ADD JUMPDEST PUSH1 0x40 MLOAD DUP1 SWAP2 SUB SWAP1 REVERT JUMPDEST PUSH1 0x1 PUSH1 0x1 PUSH1 0xA0 SHL SUB DUP8 AND PUSH0 SWAP1 DUP2 MSTORE PUSH1 0x2 PUSH1 0x20 MSTORE PUSH1 0x40 SWAP1 KECCAK256 PUSH1 0x1 ADD PUSH2 0x664 DUP7 DUP9 DUP4 PUSH2 0x16B2 JUMP JUMPDEST POP PUSH1 0x1 PUSH1 0x1 PUSH1 0xA0 SHL SUB DUP8 AND PUSH0 SWAP1 DUP2 MSTORE PUSH1 0x2 PUSH1 0x20 DUP2 SWAP1 MSTORE PUSH1 0x40 SWAP1 SWAP2 KECCAK256 ADD PUSH2 0x68B DUP5 DUP7 DUP4 PUSH2 0x16B2 JUMP JUMPDEST POP PUSH1 0x1 PUSH1 0x1 PUSH1 0xA0 SHL SUB DUP8 AND PUSH0 SWAP1 DUP2 MSTORE PUSH1 0x2 PUSH1 0x20 MSTORE PUSH1 0x40 SWAP1 KECCAK256 PUSH1 0x3 ADD PUSH2 0x6B1 DUP3 DUP5 DUP4 PUSH2 0x16B2 JUMP JUMPDEST POP DUP7 PUSH1 0x1 PUSH1 0x1 PUSH1 0xA0 SHL SUB AND PUSH32 0x3DCB5FE974F30B3E06B920890E4BDB2242F9F641C1D184169397248527BD9E4B DUP8 DUP8 PUSH1 0x40 MLOAD PUSH2 0x6ED SWAP3 SWAP2 SWAP1 PUSH2 0x176C JUMP JUMPDEST PUSH1 0x40 MLOAD DUP1 SWAP2 SUB SWAP1 LOG2 POP POP POP POP POP POP POP JUMP JUMPDEST PUSH0 DUP1 JUMPDEST PUSH1 0x1 PUSH1 0x1 PUSH1 0xA0 SHL SUB DUP5 AND PUSH0 SWAP1 DUP2 MSTORE PUSH1 0x4 PUSH1 0x20 MSTORE PUSH1 0x40 SWAP1 KECCAK256 SLOAD DUP2 LT ISZERO PUSH2 0x76C JUMPI PUSH1 0x1 PUSH1 0x1 PUSH1 0xA0 SHL SUB DUP5 AND PUSH0 SWAP1 DUP2 MSTORE PUSH1 0x4 PUSH1 0x20 MSTORE PUSH1 0x40 SWAP1 KECCAK256 DUP1 SLOAD DUP5 SWAP2 SWAP1 DUP4 SWAP1 DUP2 LT PUSH2 0x74C JUMPI PUSH2 0x74C PUSH2 0x160D JUMP JUMPDEST SWAP1 PUSH0 MSTORE PUSH1 0x20 PUSH0 KECCAK256 ADD SLOAD SUB PUSH2 0x764 JUMPI PUSH1 0x1 SWAP2 POP POP PUSH2 0x771 JUMP JUMPDEST PUSH1 0x1 ADD PUSH2 0x701 JUMP JUMPDEST POP PUSH0 SWAP1 POP JUMPDEST SWAP3 SWAP2 POP POP JUMP JUMPDEST PUSH1 0x1 PUSH1 0x1 PUSH1 0xA0 SHL SUB DUP3 DUP2 AND PUSH0 SWAP1 DUP2 MSTORE PUSH1 0x2 PUSH1 0x20 MSTORE PUSH1 0x40 SWAP1 KECCAK256 SLOAD AND ISZERO PUSH2 0x7D5 JUMPI PUSH1 0x40 MLOAD PUSH3 0x461BCD PUSH1 0xE5 SHL DUP2 MSTORE PUSH1 0x20 PUSH1 0x4 DUP3 ADD MSTORE PUSH1 0x14 PUSH1 0x24 DUP3 ADD MSTORE PUSH20 0x14DD18599988191BD95CC81B9BDD08195E1A5CDD PUSH1 0x62 SHL PUSH1 0x44 DUP3 ADD MSTORE PUSH1 0x64 ADD PUSH2 0x636 JUMP JUMPDEST PUSH1 0x1 PUSH1 0x1 PUSH1 0xA0 SHL SUB SWAP1 SWAP2 AND PUSH0 SWAP1 DUP2 MSTORE PUSH1 0x4 PUSH1 0x20 SWAP1 DUP2 MSTORE PUSH1 0x40 DUP3 KECCAK256 DUP1 SLOAD PUSH1 0x1 DUP2 ADD DUP3 SSTORE SWAP1 DUP4 MSTORE SWAP2 KECCAK256 ADD SSTORE JUMP JUMPDEST PUSH1 0x1 SLOAD PUSH1 0x40 MLOAD PUSH4 0x95A8C58D PUSH1 0xE0 SHL DUP2 MSTORE PUSH1 0x1 PUSH1 0x1 PUSH1 0xA0 SHL SUB SWAP1 SWAP2 AND SWAP1 PUSH4 0x95A8C58D SWAP1 PUSH2 0x832 SWAP1 ORIGIN SWAP1 PUSH0 SWAP1 PUSH1 0x4 ADD PUSH2 0x179A JUMP JUMPDEST PUSH1 0x20 PUSH1 0x40 MLOAD DUP1 DUP4 SUB DUP2 DUP7 GAS STATICCALL ISZERO DUP1 ISZERO PUSH2 0x84D JUMPI RETURNDATASIZE PUSH0 PUSH0 RETURNDATACOPY RETURNDATASIZE PUSH0 REVERT JUMPDEST POP POP POP POP PUSH1 0x40 MLOAD RETURNDATASIZE PUSH1 0x1F NOT PUSH1 0x1F DUP3 ADD AND DUP3 ADD DUP1 PUSH1 0x40 MSTORE POP DUP2 ADD SWAP1 PUSH2 0x871 SWAP2 SWAP1 PUSH2 0x17C0 JUMP JUMPDEST PUSH2 0x88D JUMPI PUSH1 0x40 MLOAD PUSH3 0x461BCD PUSH1 0xE5 SHL DUP2 MSTORE PUSH1 0x4 ADD PUSH2 0x636 SWAP1 PUSH2 0x17DF JUMP JUMPDEST PUSH1 0x1 PUSH1 0x1 PUSH1 0xA0 SHL SUB DUP2 DUP2 AND PUSH0 SWAP1 DUP2 MSTORE PUSH1 0x2 PUSH1 0x20 MSTORE PUSH1 0x40 SWAP1 KECCAK256 SLOAD AND PUSH2 0x8F3 JUMPI PUSH1 0x40 MLOAD PUSH3 0x461BCD PUSH1 0xE5 SHL DUP2 MSTORE PUSH1 0x20 PUSH1 0x4 DUP3 ADD MSTORE PUSH1 0x1C PUSH1 0x24 DUP3 ADD MSTORE PUSH32 0x5374616666206164647265737320646F6573206E6F7420657869737400000000 PUSH1 0x44 DUP3 ADD MSTORE PUSH1 0x64 ADD PUSH2 0x636 JUMP JUMPDEST PUSH1 0x1 PUSH1 0x1 PUSH1 0xA0 SHL SUB DUP2 DUP2 AND PUSH0 DUP2 DUP2 MSTORE PUSH1 0x2 PUSH1 0x20 MSTORE PUSH1 0x40 DUP1 DUP3 KECCAK256 PUSH1 0x6 ADD DUP1 SLOAD PUSH1 0xFF NOT AND PUSH1 0x1 OR SWAP1 SSTORE SWAP1 SLOAD SWAP1 MLOAD PUSH4 0x7EA076A3 PUSH1 0xE0 SHL DUP2 MSTORE PUSH1 0x4 DUP2 ADD DUP7 SWAP1 MSTORE PUSH1 0x24 DUP2 ADD SWAP3 SWAP1 SWAP3 MSTORE SWAP1 SWAP2 AND SWAP1 PUSH4 0x7EA076A3 SWAP1 PUSH1 0x44 ADD PUSH0 PUSH1 0x40 MLOAD DUP1 DUP4 SUB DUP2 PUSH0 DUP8 DUP1 EXTCODESIZE ISZERO DUP1 ISZERO PUSH2 0x95B JUMPI PUSH0 PUSH0 REVERT JUMPDEST POP GAS CALL ISZERO DUP1 ISZERO PUSH2 0x96D JUMPI RETURNDATASIZE PUSH0 PUSH0 RETURNDATACOPY RETURNDATASIZE PUSH0 REVERT JUMPDEST POP POP POP POP DUP1 PUSH1 0x1 PUSH1 0x1 PUSH1 0xA0 SHL SUB AND PUSH32 0x9DB6C9B6C2A287D549DF6B984D957053E5F3782439393782B3B61F71715CBE93 DUP4 PUSH1 0x40 MLOAD PUSH2 0x9AC SWAP2 DUP2 MSTORE PUSH1 0x20 ADD SWAP1 JUMP JUMPDEST PUSH1 0x40 MLOAD DUP1 SWAP2 SUB SWAP1 LOG2 POP POP JUMP JUMPDEST PUSH1 0x2 PUSH1 0x20 MSTORE PUSH0 SWAP1 DUP2 MSTORE PUSH1 0x40 SWAP1 KECCAK256 DUP1 SLOAD PUSH1 0x1 DUP3 ADD DUP1 SLOAD PUSH1 0x1 PUSH1 0x1 PUSH1 0xA0 SHL SUB SWAP1 SWAP3 AND SWAP3 SWAP2 PUSH2 0x9E3 SWAP1 PUSH2 0x1621 JUMP JUMPDEST DUP1 PUSH1 0x1F ADD PUSH1 0x20 DUP1 SWAP2 DIV MUL PUSH1 0x20 ADD PUSH1 0x40 MLOAD SWAP1 DUP2 ADD PUSH1 0x40 MSTORE DUP1 SWAP3 SWAP2 SWAP1 DUP2 DUP2 MSTORE PUSH1 0x20 ADD DUP3 DUP1 SLOAD PUSH2 0xA0F SWAP1 PUSH2 0x1621 JUMP JUMPDEST DUP1 ISZERO PUSH2 0xA5A JUMPI DUP1 PUSH1 0x1F LT PUSH2 0xA31 JUMPI PUSH2 0x100 DUP1 DUP4 SLOAD DIV MUL DUP4 MSTORE SWAP2 PUSH1 0x20 ADD SWAP2 PUSH2 0xA5A JUMP JUMPDEST DUP3 ADD SWAP2 SWAP1 PUSH0 MSTORE PUSH1 0x20 PUSH0 KECCAK256 SWAP1 JUMPDEST DUP2 SLOAD DUP2 MSTORE SWAP1 PUSH1 0x1 ADD SWAP1 PUSH1 0x20 ADD DUP1 DUP4 GT PUSH2 0xA3D JUMPI DUP3 SWAP1 SUB PUSH1 0x1F AND DUP3 ADD SWAP2 JUMPDEST POP POP POP POP POP SWAP1 DUP1 PUSH1 0x2 ADD DUP1 SLOAD PUSH2 0xA6F SWAP1 PUSH2 0x1621 JUMP JUMPDEST DUP1 PUSH1 0x1F ADD PUSH1 0x20 DUP1 SWAP2 DIV MUL PUSH1 0x20 ADD PUSH1 0x40 MLOAD SWAP1 DUP2 ADD PUSH1 0x40 MSTORE DUP1 SWAP3 SWAP2 SWAP1 DUP2 DUP2 MSTORE PUSH1 0x20 ADD DUP3 DUP1 SLOAD PUSH2 0xA9B SWAP1 PUSH2 0x1621 JUMP JUMPDEST DUP1 ISZERO PUSH2 0xAE6 JUMPI DUP1 PUSH1 0x1F LT PUSH2 0xABD JUMPI PUSH2 0x100 DUP1 DUP4 SLOAD DIV MUL DUP4 MSTORE SWAP2 PUSH1 0x20 ADD SWAP2 PUSH2 0xAE6 JUMP JUMPDEST DUP3 ADD SWAP2 SWAP1 PUSH0 MSTORE PUSH1 0x20 PUSH0 KECCAK256 SWAP1 JUMPDEST DUP2 SLOAD DUP2 MSTORE SWAP1 PUSH1 0x1 ADD SWAP1 PUSH1 0x20 ADD DUP1 DUP4 GT PUSH2 0xAC9 JUMPI DUP3 SWAP1 SUB PUSH1 0x1F AND DUP3 ADD SWAP2 JUMPDEST POP POP POP POP POP SWAP1 DUP1 PUSH1 0x3 ADD DUP1 SLOAD PUSH2 0xAFB SWAP1 PUSH2 0x1621 JUMP JUMPDEST DUP1 PUSH1 0x1F ADD PUSH1 0x20 DUP1 SWAP2 DIV MUL PUSH1 0x20 ADD PUSH1 0x40 MLOAD SWAP1 DUP2 ADD PUSH1 0x40 MSTORE DUP1 SWAP3 SWAP2 SWAP1 DUP2 DUP2 MSTORE PUSH1 0x20 ADD DUP3 DUP1 SLOAD PUSH2 0xB27 SWAP1 PUSH2 0x1621 JUMP JUMPDEST DUP1 ISZERO PUSH2 0xB72 JUMPI DUP1 PUSH1 0x1F LT PUSH2 0xB49 JUMPI PUSH2 0x100 DUP1 DUP4 SLOAD DIV MUL DUP4 MSTORE SWAP2 PUSH1 0x20 ADD SWAP2 PUSH2 0xB72 JUMP JUMPDEST DUP3 ADD SWAP2 SWAP1 PUSH0 MSTORE PUSH1 0x20 PUSH0 KECCAK256 SWAP1 JUMPDEST DUP2 SLOAD DUP2 MSTORE SWAP1 PUSH1 0x1 ADD SWAP1 PUSH1 0x20 ADD DUP1 DUP4 GT PUSH2 0xB55 JUMPI DUP3 SWAP1 SUB PUSH1 0x1F AND DUP3 ADD SWAP2 JUMPDEST POP POP POP POP PUSH1 0x4 DUP4 ADD SLOAD PUSH1 0x5 DUP5 ADD SLOAD PUSH1 0x6 SWAP1 SWAP5 ADD SLOAD SWAP3 SWAP4 SWAP1 SWAP3 SWAP1 SWAP2 POP PUSH1 0xFF AND DUP8 JUMP JUMPDEST PUSH1 0x1 SLOAD PUSH1 0x40 MLOAD PUSH4 0x95A8C58D PUSH1 0xE0 SHL DUP2 MSTORE PUSH1 0x1 PUSH1 0x1 PUSH1 0xA0 SHL SUB SWAP1 SWAP2 AND SWAP1 PUSH4 0x95A8C58D SWAP1 PUSH2 0xBC5 SWAP1 ORIGIN SWAP1 PUSH0 SWAP1 PUSH1 0x4 ADD PUSH2 0x179A JUMP JUMPDEST PUSH1 0x20 PUSH1 0x40 MLOAD DUP1 DUP4 SUB DUP2 DUP7 GAS STATICCALL ISZERO DUP1 ISZERO PUSH2 0xBE0 JUMPI RETURNDATASIZE PUSH0 PUSH0 RETURNDATACOPY RETURNDATASIZE PUSH0 REVERT JUMPDEST POP POP POP POP PUSH1 0x40 MLOAD RETURNDATASIZE PUSH1 0x1F NOT PUSH1 0x1F DUP3 ADD AND DUP3 ADD DUP1 PUSH1 0x40 MSTORE POP DUP2 ADD SWAP1 PUSH2 0xC04 SWAP2 SWAP1 PUSH2 0x17C0 JUMP JUMPDEST PUSH2 0xC20 JUMPI PUSH1 0x40 MLOAD PUSH3 0x461BCD PUSH1 0xE5 SHL DUP2 MSTORE PUSH1 0x4 ADD PUSH2 0x636 SWAP1 PUSH2 0x17DF JUMP JUMPDEST PUSH1 0x1 PUSH1 0x1 PUSH1 0xA0 SHL SUB DUP8 AND PUSH2 0xC6E JUMPI PUSH1 0x40 MLOAD PUSH3 0x461BCD PUSH1 0xE5 SHL DUP2 MSTORE PUSH1 0x20 PUSH1 0x4 DUP3 ADD MSTORE PUSH1 0x15 PUSH1 0x24 DUP3 ADD MSTORE PUSH21 0x496E76616C69642073746166662061646472657373 PUSH1 0x58 SHL PUSH1 0x44 DUP3 ADD MSTORE PUSH1 0x64 ADD PUSH2 0x636 JUMP JUMPDEST PUSH1 0x1 PUSH1 0x1 PUSH1 0xA0 SHL SUB DUP8 DUP2 AND PUSH0 SWAP1 DUP2 MSTORE PUSH1 0x2 PUSH1 0x20 MSTORE PUSH1 0x40 SWAP1 KECCAK256 SLOAD AND ISZERO PUSH2 0xCD5 JUMPI PUSH1 0x40 MLOAD PUSH3 0x461BCD PUSH1 0xE5 SHL DUP2 MSTORE PUSH1 0x20 PUSH1 0x4 DUP3 ADD MSTORE PUSH1 0x1C PUSH1 0x24 DUP3 ADD MSTORE PUSH32 0x5374616666206164647265737320616C72656164792065786973747300000000 PUSH1 0x44 DUP3 ADD MSTORE PUSH1 0x64 ADD PUSH2 0x636 JUMP JUMPDEST PUSH1 0x40 MLOAD DUP1 PUSH1 0xE0 ADD PUSH1 0x40 MSTORE DUP1 DUP9 PUSH1 0x1 PUSH1 0x1 PUSH1 0xA0 SHL SUB AND DUP2 MSTORE PUSH1 0x20 ADD DUP8 DUP8 DUP1 DUP1 PUSH1 0x1F ADD PUSH1 0x20 DUP1 SWAP2 DIV MUL PUSH1 0x20 ADD PUSH1 0x40 MLOAD SWAP1 DUP2 ADD PUSH1 0x40 MSTORE DUP1 SWAP4 SWAP3 SWAP2 SWAP1 DUP2 DUP2 MSTORE PUSH1 0x20 ADD DUP4 DUP4 DUP1 DUP3 DUP5 CALLDATACOPY PUSH0 SWAP3 ADD SWAP2 SWAP1 SWAP2 MSTORE POP POP POP SWAP1 DUP3 MSTORE POP PUSH1 0x40 DUP1 MLOAD PUSH1 0x20 PUSH1 0x1F DUP9 ADD DUP2 SWAP1 DIV DUP2 MUL DUP3 ADD DUP2 ADD SWAP1 SWAP3 MSTORE DUP7 DUP2 MSTORE SWAP2 DUP2 ADD SWAP2 SWAP1 DUP8 SWAP1 DUP8 SWAP1 DUP2 SWAP1 DUP5 ADD DUP4 DUP3 DUP1 DUP3 DUP5 CALLDATACOPY PUSH0 SWAP3 ADD SWAP2 SWAP1 SWAP2 MSTORE POP POP POP SWAP1 DUP3 MSTORE POP PUSH1 0x40 DUP1 MLOAD PUSH1 0x20 PUSH1 0x1F DUP7 ADD DUP2 SWAP1 DIV DUP2 MUL DUP3 ADD DUP2 ADD SWAP1 SWAP3 MSTORE DUP5 DUP2 MSTORE SWAP2 DUP2 ADD SWAP2 SWAP1 DUP6 SWAP1 DUP6 SWAP1 DUP2 SWAP1 DUP5 ADD DUP4 DUP3 DUP1 DUP3 DUP5 CALLDATACOPY PUSH0 SWAP3 ADD DUP3 SWAP1 MSTORE POP SWAP4 DUP6 MSTORE POP POP POP PUSH1 0x20 DUP3 ADD DUP2 SWAP1 MSTORE PUSH1 0x40 DUP3 ADD DUP2 SWAP1 MSTORE PUSH1 0x60 SWAP1 SWAP2 ADD MSTORE PUSH1 0x1 PUSH1 0x1 PUSH1 0xA0 SHL SUB DUP9 DUP2 AND PUSH0 SWAP1 DUP2 MSTORE PUSH1 0x2 PUSH1 0x20 SWAP1 DUP2 MSTORE PUSH1 0x40 SWAP1 SWAP2 KECCAK256 DUP4 MLOAD DUP2 SLOAD PUSH1 0x1 PUSH1 0x1 PUSH1 0xA0 SHL SUB NOT AND SWAP4 AND SWAP3 SWAP1 SWAP3 OR DUP3 SSTORE DUP3 ADD MLOAD PUSH1 0x1 DUP3 ADD SWAP1 PUSH2 0xDF1 SWAP1 DUP3 PUSH2 0x1802 JUMP JUMPDEST POP PUSH1 0x40 DUP3 ADD MLOAD PUSH1 0x2 DUP3 ADD SWAP1 PUSH2 0xE06 SWAP1 DUP3 PUSH2 0x1802 JUMP JUMPDEST POP PUSH1 0x60 DUP3 ADD MLOAD PUSH1 0x3 DUP3 ADD SWAP1 PUSH2 0xE1B SWAP1 DUP3 PUSH2 0x1802 JUMP JUMPDEST POP PUSH1 0x80 DUP3 ADD MLOAD PUSH1 0x4 DUP3 ADD SSTORE PUSH1 0xA0 DUP3 ADD MLOAD PUSH1 0x5 DUP3 ADD SSTORE PUSH1 0xC0 DUP3 ADD MLOAD PUSH1 0x6 DUP3 ADD DUP1 SLOAD PUSH1 0xFF NOT AND PUSH1 0x1 DUP4 DUP2 DUP2 GT ISZERO PUSH2 0xE52 JUMPI PUSH2 0xE52 PUSH2 0x129E JUMP JUMPDEST MUL OR SWAP1 SSTORE POP SWAP1 POP POP DUP7 PUSH1 0x1 PUSH1 0x1 PUSH1 0xA0 SHL SUB AND PUSH32 0x3985FF4D998287FD60CA803C8CECCC30F94EDCC70957500AF9FCFD47F2F544C7 DUP8 DUP8 PUSH1 0x40 MLOAD PUSH2 0x6ED SWAP3 SWAP2 SWAP1 PUSH2 0x176C JUMP JUMPDEST PUSH2 0xE9D PUSH2 0x121E JUMP JUMPDEST PUSH1 0x1 PUSH1 0x1 PUSH1 0xA0 SHL SUB DUP1 DUP4 AND PUSH0 SWAP1 DUP2 MSTORE PUSH1 0x2 PUSH1 0x20 SWAP1 DUP2 MSTORE PUSH1 0x40 SWAP2 DUP3 SWAP1 KECCAK256 DUP3 MLOAD PUSH1 0xE0 DUP2 ADD SWAP1 SWAP4 MSTORE DUP1 SLOAD SWAP1 SWAP4 AND DUP3 MSTORE PUSH1 0x1 DUP4 ADD DUP1 SLOAD SWAP3 SWAP4 SWAP3 SWAP2 DUP5 ADD SWAP2 PUSH2 0xEDF SWAP1 PUSH2 0x1621 JUMP JUMPDEST DUP1 PUSH1 0x1F ADD PUSH1 0x20 DUP1 SWAP2 DIV MUL PUSH1 0x20 ADD PUSH1 0x40 MLOAD SWAP1 DUP2 ADD PUSH1 0x40 MSTORE DUP1 SWAP3 SWAP2 SWAP1 DUP2 DUP2 MSTORE PUSH1 0x20 ADD DUP3 DUP1 SLOAD PUSH2 0xF0B SWAP1 PUSH2 0x1621 JUMP JUMPDEST DUP1 ISZERO PUSH2 0xF56 JUMPI DUP1 PUSH1 0x1F LT PUSH2 0xF2D JUMPI PUSH2 0x100 DUP1 DUP4 SLOAD DIV MUL DUP4 MSTORE SWAP2 PUSH1 0x20 ADD SWAP2 PUSH2 0xF56 JUMP JUMPDEST DUP3 ADD SWAP2 SWAP1 PUSH0 MSTORE PUSH1 0x20 PUSH0 KECCAK256 SWAP1 JUMPDEST DUP2 SLOAD DUP2 MSTORE SWAP1 PUSH1 0x1 ADD SWAP1 PUSH1 0x20 ADD DUP1 DUP4 GT PUSH2 0xF39 JUMPI DUP3 SWAP1 SUB PUSH1 0x1F AND DUP3 ADD SWAP2 JUMPDEST POP POP POP POP POP DUP2 MSTORE PUSH1 0x20 ADD PUSH1 0x2 DUP3 ADD DUP1 SLOAD PUSH2 0xF6F SWAP1 PUSH2 0x1621 JUMP JUMPDEST DUP1 PUSH1 0x1F ADD PUSH1 0x20 DUP1 SWAP2 DIV MUL PUSH1 0x20 ADD PUSH1 0x40 MLOAD SWAP1 DUP2 ADD PUSH1 0x40 MSTORE DUP1 SWAP3 SWAP2 SWAP1 DUP2 DUP2 MSTORE PUSH1 0x20 ADD DUP3 DUP1 SLOAD PUSH2 0xF9B SWAP1 PUSH2 0x1621 JUMP JUMPDEST DUP1 ISZERO PUSH2 0xFE6 JUMPI DUP1 PUSH1 0x1F LT PUSH2 0xFBD JUMPI PUSH2 0x100 DUP1 DUP4 SLOAD DIV MUL DUP4 MSTORE SWAP2 PUSH1 0x20 ADD SWAP2 PUSH2 0xFE6 JUMP JUMPDEST DUP3 ADD SWAP2 SWAP1 PUSH0 MSTORE PUSH1 0x20 PUSH0 KECCAK256 SWAP1 JUMPDEST DUP2 SLOAD DUP2 MSTORE SWAP1 PUSH1 0x1 ADD SWAP1 PUSH1 0x20 ADD DUP1 DUP4 GT PUSH2 0xFC9 JUMPI DUP3 SWAP1 SUB PUSH1 0x1F AND DUP3 ADD SWAP2 JUMPDEST POP POP POP POP POP DUP2 MSTORE PUSH1 0x20 ADD PUSH1 0x3 DUP3 ADD DUP1 SLOAD PUSH2 0xFFF SWAP1 PUSH2 0x1621 JUMP JUMPDEST DUP1 PUSH1 0x1F ADD PUSH1 0x20 DUP1 SWAP2 DIV MUL PUSH1 0x20 ADD PUSH1 0x40 MLOAD SWAP1 DUP2 ADD PUSH1 0x40 MSTORE DUP1 SWAP3 SWAP2 SWAP1 DUP2 DUP2 MSTORE PUSH1 0x20 ADD DUP3 DUP1 SLOAD PUSH2 0x102B SWAP1 PUSH2 0x1621 JUMP JUMPDEST DUP1 ISZERO PUSH2 0x1076 JUMPI DUP1 PUSH1 0x1F LT PUSH2 0x104D JUMPI PUSH2 0x100 DUP1 DUP4 SLOAD DIV MUL DUP4 MSTORE SWAP2 PUSH1 0x20 ADD SWAP2 PUSH2 0x1076 JUMP JUMPDEST DUP3 ADD SWAP2 SWAP1 PUSH0 MSTORE PUSH1 0x20 PUSH0 KECCAK256 SWAP1 JUMPDEST DUP2 SLOAD DUP2 MSTORE SWAP1 PUSH1 0x1 ADD SWAP1 PUSH1 0x20 ADD DUP1 DUP4 GT PUSH2 0x1059 JUMPI DUP3 SWAP1 SUB PUSH1 0x1F AND DUP3 ADD SWAP2 JUMPDEST POP POP POP SWAP2 DUP4 MSTORE POP POP PUSH1 0x4 DUP3 ADD SLOAD PUSH1 0x20 DUP3 ADD MSTORE PUSH1 0x5 DUP3 ADD SLOAD PUSH1 0x40 DUP3 ADD MSTORE PUSH1 0x6 DUP3 ADD SLOAD PUSH1 0x60 SWAP1 SWAP2 ADD SWAP1 PUSH1 0xFF AND PUSH1 0x1 DUP2 GT ISZERO PUSH2 0x10B1 JUMPI PUSH2 0x10B1 PUSH2 0x129E JUMP JUMPDEST PUSH1 0x1 DUP2 GT ISZERO PUSH2 0x10C2 JUMPI PUSH2 0x10C2 PUSH2 0x129E JUMP JUMPDEST SWAP1 MSTORE POP SWAP3 SWAP2 POP POP JUMP JUMPDEST PUSH1 0x1 SLOAD PUSH1 0x40 MLOAD PUSH4 0x95A8C58D PUSH1 0xE0 SHL DUP2 MSTORE PUSH1 0x1 PUSH1 0x1 PUSH1 0xA0 SHL SUB SWAP1 SWAP2 AND SWAP1 PUSH4 0x95A8C58D SWAP1 PUSH2 0x10FD SWAP1 ORIGIN SWAP1 PUSH0 SWAP1 PUSH1 0x4 ADD PUSH2 0x179A JUMP JUMPDEST PUSH1 0x20 PUSH1 0x40 MLOAD DUP1 DUP4 SUB DUP2 DUP7 GAS STATICCALL ISZERO DUP1 ISZERO PUSH2 0x1118 JUMPI RETURNDATASIZE PUSH0 PUSH0 RETURNDATACOPY RETURNDATASIZE PUSH0 REVERT JUMPDEST POP POP POP POP PUSH1 0x40 MLOAD RETURNDATASIZE PUSH1 0x1F NOT PUSH1 0x1F DUP3 ADD AND DUP3 ADD DUP1 PUSH1 0x40 MSTORE POP DUP2 ADD SWAP1 PUSH2 0x113C SWAP2 SWAP1 PUSH2 0x17C0 JUMP JUMPDEST PUSH2 0x1158 JUMPI PUSH1 0x40 MLOAD PUSH3 0x461BCD PUSH1 0xE5 SHL DUP2 MSTORE PUSH1 0x4 ADD PUSH2 0x636 SWAP1 PUSH2 0x17DF JUMP JUMPDEST PUSH1 0x1 PUSH1 0x1 PUSH1 0xA0 SHL SUB DUP4 DUP2 AND PUSH0 SWAP1 DUP2 MSTORE PUSH1 0x2 PUSH1 0x20 MSTORE PUSH1 0x40 SWAP1 KECCAK256 SLOAD AND PUSH2 0x11B5 JUMPI PUSH1 0x40 MLOAD PUSH3 0x461BCD PUSH1 0xE5 SHL DUP2 MSTORE PUSH1 0x20 PUSH1 0x4 DUP3 ADD MSTORE PUSH1 0x14 PUSH1 0x24 DUP3 ADD MSTORE PUSH20 0x14DD18599988191BD95CC81B9BDD08195E1A5CDD PUSH1 0x62 SHL PUSH1 0x44 DUP3 ADD MSTORE PUSH1 0x64 ADD PUSH2 0x636 JUMP JUMPDEST PUSH1 0x1 PUSH1 0x1 PUSH1 0xA0 SHL SUB DUP4 AND PUSH0 DUP2 DUP2 MSTORE PUSH1 0x2 PUSH1 0x20 SWAP1 DUP2 MSTORE PUSH1 0x40 SWAP2 DUP3 SWAP1 KECCAK256 PUSH1 0x4 DUP2 ADD DUP7 SWAP1 SSTORE PUSH1 0x5 ADD DUP5 SWAP1 SSTORE DUP2 MLOAD SWAP3 DUP4 MSTORE DUP3 ADD DUP5 SWAP1 MSTORE DUP2 ADD DUP3 SWAP1 MSTORE PUSH32 0x4287FC91E372E2C0C4FD45ACA88C869F59DAD9163B11B71DC130BFC4CD4E8506 SWAP1 PUSH1 0x60 ADD PUSH1 0x40 MLOAD DUP1 SWAP2 SUB SWAP1 LOG1 POP POP POP JUMP JUMPDEST PUSH1 0x40 MLOAD DUP1 PUSH1 0xE0 ADD PUSH1 0x40 MSTORE DUP1 PUSH0 PUSH1 0x1 PUSH1 0x1 PUSH1 0xA0 SHL SUB AND DUP2 MSTORE PUSH1 0x20 ADD PUSH1 0x60 DUP2 MSTORE PUSH1 0x20 ADD PUSH1 0x60 DUP2 MSTORE PUSH1 0x20 ADD PUSH1 0x60 DUP2 MSTORE PUSH1 0x20 ADD PUSH0 DUP2 MSTORE PUSH1 0x20 ADD PUSH0 DUP2 MSTORE PUSH1 0x20 ADD PUSH0 PUSH1 0x1 DUP2 GT ISZERO PUSH2 0x126B JUMPI PUSH2 0x126B PUSH2 0x129E JUMP JUMPDEST SWAP1 MSTORE SWAP1 JUMP JUMPDEST PUSH0 DUP2 MLOAD DUP1 DUP5 MSTORE DUP1 PUSH1 0x20 DUP5 ADD PUSH1 0x20 DUP7 ADD MCOPY PUSH0 PUSH1 0x20 DUP3 DUP7 ADD ADD MSTORE PUSH1 0x20 PUSH1 0x1F NOT PUSH1 0x1F DUP4 ADD AND DUP6 ADD ADD SWAP2 POP POP SWAP3 SWAP2 POP POP JUMP JUMPDEST PUSH4 0x4E487B71 PUSH1 0xE0 SHL PUSH0 MSTORE PUSH1 0x21 PUSH1 0x4 MSTORE PUSH1 0x24 PUSH0 REVERT JUMPDEST PUSH1 0x2 DUP2 LT PUSH2 0x12CE JUMPI PUSH4 0x4E487B71 PUSH1 0xE0 SHL PUSH0 MSTORE PUSH1 0x21 PUSH1 0x4 MSTORE PUSH1 0x24 PUSH0 REVERT JUMPDEST POP JUMP JUMPDEST PUSH1 0x1 DUP1 PUSH1 0xA0 SHL SUB DUP2 MLOAD AND DUP3 MSTORE PUSH0 PUSH1 0x20 DUP3 ADD MLOAD PUSH1 0xE0 PUSH1 0x20 DUP6 ADD MSTORE PUSH2 0x12F7 PUSH1 0xE0 DUP6 ADD DUP3 PUSH2 0x1270 JUMP JUMPDEST SWAP1 POP PUSH1 0x40 DUP4 ADD MLOAD DUP5 DUP3 SUB PUSH1 0x40 DUP7 ADD MSTORE PUSH2 0x1310 DUP3 DUP3 PUSH2 0x1270 JUMP JUMPDEST SWAP2 POP POP PUSH1 0x60 DUP4 ADD MLOAD DUP5 DUP3 SUB PUSH1 0x60 DUP7 ADD MSTORE PUSH2 0x132A DUP3 DUP3 PUSH2 0x1270 JUMP JUMPDEST SWAP2 POP POP PUSH1 0x80 DUP4 ADD MLOAD PUSH1 0x80 DUP6 ADD MSTORE PUSH1 0xA0 DUP4 ADD MLOAD PUSH1 0xA0 DUP6 ADD MSTORE PUSH1 0xC0 DUP4 ADD MLOAD PUSH2 0x134F DUP2 PUSH2 0x12B2 JUMP JUMPDEST DUP1 PUSH1 0xC0 DUP7 ADD MSTORE POP DUP1 SWAP2 POP POP SWAP3 SWAP2 POP POP JUMP JUMPDEST PUSH0 PUSH1 0x20 DUP3 ADD PUSH1 0x20 DUP4 MSTORE DUP1 DUP5 MLOAD DUP1 DUP4 MSTORE PUSH1 0x40 DUP6 ADD SWAP2 POP PUSH1 0x40 DUP2 PUSH1 0x5 SHL DUP7 ADD ADD SWAP3 POP PUSH1 0x20 DUP7 ADD PUSH0 JUMPDEST DUP3 DUP2 LT ISZERO PUSH2 0x13B7 JUMPI PUSH1 0x3F NOT DUP8 DUP7 SUB ADD DUP5 MSTORE PUSH2 0x13A2 DUP6 DUP4 MLOAD PUSH2 0x12D1 JUMP JUMPDEST SWAP5 POP PUSH1 0x20 SWAP4 DUP5 ADD SWAP4 SWAP2 SWAP1 SWAP2 ADD SWAP1 PUSH1 0x1 ADD PUSH2 0x1386 JUMP JUMPDEST POP SWAP3 SWAP7 SWAP6 POP POP POP POP POP POP JUMP JUMPDEST DUP1 CALLDATALOAD PUSH1 0x1 PUSH1 0x1 PUSH1 0xA0 SHL SUB DUP2 AND DUP2 EQ PUSH2 0x13D9 JUMPI PUSH0 PUSH0 REVERT JUMPDEST SWAP2 SWAP1 POP JUMP JUMPDEST PUSH0 PUSH0 PUSH1 0x40 DUP4 DUP6 SUB SLT ISZERO PUSH2 0x13EF JUMPI PUSH0 PUSH0 REVERT JUMPDEST PUSH2 0x13F8 DUP4 PUSH2 0x13C3 JUMP JUMPDEST SWAP5 PUSH1 0x20 SWAP4 SWAP1 SWAP4 ADD CALLDATALOAD SWAP4 POP POP POP JUMP JUMPDEST PUSH0 PUSH0 DUP4 PUSH1 0x1F DUP5 ADD SLT PUSH2 0x1416 JUMPI PUSH0 PUSH0 REVERT JUMPDEST POP DUP2 CALLDATALOAD PUSH8 0xFFFFFFFFFFFFFFFF DUP2 GT ISZERO PUSH2 0x142D JUMPI PUSH0 PUSH0 REVERT JUMPDEST PUSH1 0x20 DUP4 ADD SWAP2 POP DUP4 PUSH1 0x20 DUP3 DUP6 ADD ADD GT ISZERO PUSH2 0x1444 JUMPI PUSH0 PUSH0 REVERT JUMPDEST SWAP3 POP SWAP3 SWAP1 POP JUMP JUMPDEST PUSH0 PUSH0 PUSH0 PUSH0 PUSH0 PUSH0 PUSH0 PUSH1 0x80 DUP9 DUP11 SUB SLT ISZERO PUSH2 0x1461 JUMPI PUSH0 PUSH0 REVERT JUMPDEST PUSH2 0x146A DUP9 PUSH2 0x13C3 JUMP JUMPDEST SWAP7 POP PUSH1 0x20 DUP9 ADD CALLDATALOAD PUSH8 0xFFFFFFFFFFFFFFFF DUP2 GT ISZERO PUSH2 0x1485 JUMPI PUSH0 PUSH0 REVERT JUMPDEST PUSH2 0x1491 DUP11 DUP3 DUP12 ADD PUSH2 0x1406 JUMP JUMPDEST SWAP1 SWAP8 POP SWAP6 POP POP PUSH1 0x40 DUP9 ADD CALLDATALOAD PUSH8 0xFFFFFFFFFFFFFFFF DUP2 GT ISZERO PUSH2 0x14B0 JUMPI PUSH0 PUSH0 REVERT JUMPDEST PUSH2 0x14BC DUP11 DUP3 DUP12 ADD PUSH2 0x1406 JUMP JUMPDEST SWAP1 SWAP6 POP SWAP4 POP POP PUSH1 0x60 DUP9 ADD CALLDATALOAD PUSH8 0xFFFFFFFFFFFFFFFF DUP2 GT ISZERO PUSH2 0x14DB JUMPI PUSH0 PUSH0 REVERT JUMPDEST PUSH2 0x14E7 DUP11 DUP3 DUP12 ADD PUSH2 0x1406 JUMP JUMPDEST SWAP9 SWAP12 SWAP8 SWAP11 POP SWAP6 SWAP9 POP SWAP4 SWAP7 SWAP3 SWAP6 SWAP3 SWAP4 POP POP POP JUMP JUMPDEST PUSH0 PUSH0 PUSH1 0x40 DUP4 DUP6 SUB SLT ISZERO PUSH2 0x150B JUMPI PUSH0 PUSH0 REVERT JUMPDEST DUP3 CALLDATALOAD SWAP2 POP PUSH2 0x151B PUSH1 0x20 DUP5 ADD PUSH2 0x13C3 JUMP JUMPDEST SWAP1 POP SWAP3 POP SWAP3 SWAP1 POP JUMP JUMPDEST PUSH0 PUSH1 0x20 DUP3 DUP5 SUB SLT ISZERO PUSH2 0x1534 JUMPI PUSH0 PUSH0 REVERT JUMPDEST PUSH2 0x153D DUP3 PUSH2 0x13C3 JUMP JUMPDEST SWAP4 SWAP3 POP POP POP JUMP JUMPDEST PUSH1 0x1 PUSH1 0x1 PUSH1 0xA0 SHL SUB DUP9 AND DUP2 MSTORE PUSH1 0xE0 PUSH1 0x20 DUP3 ADD DUP2 SWAP1 MSTORE PUSH0 SWAP1 PUSH2 0x1567 SWAP1 DUP4 ADD DUP10 PUSH2 0x1270 JUMP JUMPDEST DUP3 DUP2 SUB PUSH1 0x40 DUP5 ADD MSTORE PUSH2 0x1579 DUP2 DUP10 PUSH2 0x1270 JUMP JUMPDEST SWAP1 POP DUP3 DUP2 SUB PUSH1 0x60 DUP5 ADD MSTORE PUSH2 0x158D DUP2 DUP9 PUSH2 0x1270 JUMP JUMPDEST SWAP2 POP POP DUP5 PUSH1 0x80 DUP4 ADD MSTORE DUP4 PUSH1 0xA0 DUP4 ADD MSTORE PUSH2 0x15A5 DUP4 PUSH2 0x12B2 JUMP JUMPDEST DUP3 PUSH1 0xC0 DUP4 ADD MSTORE SWAP9 SWAP8 POP POP POP POP POP POP POP POP JUMP JUMPDEST PUSH1 0x20 DUP2 MSTORE PUSH0 PUSH2 0x153D PUSH1 0x20 DUP4 ADD DUP5 PUSH2 0x12D1 JUMP JUMPDEST PUSH0 PUSH0 PUSH0 PUSH1 0x60 DUP5 DUP7 SUB SLT ISZERO PUSH2 0x15DB JUMPI PUSH0 PUSH0 REVERT JUMPDEST PUSH2 0x15E4 DUP5 PUSH2 0x13C3 JUMP JUMPDEST SWAP6 PUSH1 0x20 DUP6 ADD CALLDATALOAD SWAP6 POP PUSH1 0x40 SWAP1 SWAP5 ADD CALLDATALOAD SWAP4 SWAP3 POP POP POP JUMP JUMPDEST PUSH4 0x4E487B71 PUSH1 0xE0 SHL PUSH0 MSTORE PUSH1 0x41 PUSH1 0x4 MSTORE PUSH1 0x24 PUSH0 REVERT JUMPDEST PUSH4 0x4E487B71 PUSH1 0xE0 SHL PUSH0 MSTORE PUSH1 0x32 PUSH1 0x4 MSTORE PUSH1 0x24 PUSH0 REVERT JUMPDEST PUSH1 0x1 DUP2 DUP2 SHR SWAP1 DUP3 AND DUP1 PUSH2 0x1635 JUMPI PUSH1 0x7F DUP3 AND SWAP2 POP JUMPDEST PUSH1 0x20 DUP3 LT DUP2 SUB PUSH2 0x501 JUMPI PUSH4 0x4E487B71 PUSH1 0xE0 SHL PUSH0 MSTORE PUSH1 0x22 PUSH1 0x4 MSTORE PUSH1 0x24 PUSH0 REVERT JUMPDEST PUSH4 0x4E487B71 PUSH1 0xE0 SHL PUSH0 MSTORE PUSH1 0x31 PUSH1 0x4 MSTORE PUSH1 0x24 PUSH0 REVERT JUMPDEST PUSH1 0x1F DUP3 GT ISZERO PUSH2 0x5A4 JUMPI DUP1 PUSH0 MSTORE PUSH1 0x20 PUSH0 KECCAK256 PUSH1 0x1F DUP5 ADD PUSH1 0x5 SHR DUP2 ADD PUSH1 0x20 DUP6 LT ISZERO PUSH2 0x168C JUMPI POP DUP1 JUMPDEST PUSH1 0x1F DUP5 ADD PUSH1 0x5 SHR DUP3 ADD SWAP2 POP JUMPDEST DUP2 DUP2 LT ISZERO PUSH2 0x16AB JUMPI PUSH0 DUP2 SSTORE PUSH1 0x1 ADD PUSH2 0x1698 JUMP JUMPDEST POP POP POP POP POP JUMP JUMPDEST PUSH8 0xFFFFFFFFFFFFFFFF DUP4 GT ISZERO PUSH2 0x16CA JUMPI PUSH2 0x16CA PUSH2 0x15F9 JUMP JUMPDEST PUSH2 0x16DE DUP4 PUSH2 0x16D8 DUP4 SLOAD PUSH2 0x1621 JUMP JUMPDEST DUP4 PUSH2 0x1667 JUMP JUMPDEST PUSH0 PUSH1 0x1F DUP5 GT PUSH1 0x1 DUP2 EQ PUSH2 0x170F JUMPI PUSH0 DUP6 ISZERO PUSH2 0x16F8 JUMPI POP DUP4 DUP3 ADD CALLDATALOAD JUMPDEST PUSH0 NOT PUSH1 0x3 DUP8 SWAP1 SHL SHR NOT AND PUSH1 0x1 DUP7 SWAP1 SHL OR DUP4 SSTORE PUSH2 0x16AB JUMP JUMPDEST PUSH0 DUP4 DUP2 MSTORE PUSH1 0x20 DUP2 KECCAK256 PUSH1 0x1F NOT DUP8 AND SWAP2 JUMPDEST DUP3 DUP2 LT ISZERO PUSH2 0x173E JUMPI DUP7 DUP6 ADD CALLDATALOAD DUP3 SSTORE PUSH1 0x20 SWAP5 DUP6 ADD SWAP5 PUSH1 0x1 SWAP1 SWAP3 ADD SWAP2 ADD PUSH2 0x171E JUMP JUMPDEST POP DUP7 DUP3 LT ISZERO PUSH2 0x175A JUMPI PUSH0 NOT PUSH1 0xF8 DUP9 PUSH1 0x3 SHL AND SHR NOT DUP5 DUP8 ADD CALLDATALOAD AND DUP2 SSTORE JUMPDEST POP POP PUSH1 0x1 DUP6 PUSH1 0x1 SHL ADD DUP4 SSTORE POP POP POP POP POP JUMP JUMPDEST PUSH1 0x20 DUP2 MSTORE DUP2 PUSH1 0x20 DUP3 ADD MSTORE DUP2 DUP4 PUSH1 0x40 DUP4 ADD CALLDATACOPY PUSH0 DUP2 DUP4 ADD PUSH1 0x40 SWAP1 DUP2 ADD SWAP2 SWAP1 SWAP2 MSTORE PUSH1 0x1F SWAP1 SWAP3 ADD PUSH1 0x1F NOT AND ADD ADD SWAP2 SWAP1 POP JUMP JUMPDEST PUSH1 0x1 PUSH1 0x1 PUSH1 0xA0 SHL SUB DUP4 AND DUP2 MSTORE PUSH1 0x40 DUP2 ADD PUSH2 0x17B3 DUP4 PUSH2 0x12B2 JUMP JUMPDEST DUP3 PUSH1 0x20 DUP4 ADD MSTORE SWAP4 SWAP3 POP POP POP JUMP JUMPDEST PUSH0 PUSH1 0x20 DUP3 DUP5 SUB SLT ISZERO PUSH2 0x17D0 JUMPI PUSH0 PUSH0 REVERT JUMPDEST DUP2 MLOAD DUP1 ISZERO ISZERO DUP2 EQ PUSH2 0x153D JUMPI PUSH0 PUSH0 REVERT JUMPDEST PUSH1 0x20 DUP1 DUP3 MSTORE PUSH1 0x9 SWAP1 DUP3 ADD MSTORE PUSH9 0x2737BA1030B236B4B7 PUSH1 0xB9 SHL PUSH1 0x40 DUP3 ADD MSTORE PUSH1 0x60 ADD SWAP1 JUMP JUMPDEST DUP2 MLOAD PUSH8 0xFFFFFFFFFFFFFFFF DUP2 GT ISZERO PUSH2 0x181C JUMPI PUSH2 0x181C PUSH2 0x15F9 JUMP JUMPDEST PUSH2 0x1830 DUP2 PUSH2 0x182A DUP5 SLOAD PUSH2 0x1621 JUMP JUMPDEST DUP5 PUSH2 0x1667 JUMP JUMPDEST PUSH1 0x20 PUSH1 0x1F DUP3 GT PUSH1 0x1 DUP2 EQ PUSH2 0x1862 JUMPI PUSH0 DUP4 ISZERO PUSH2 0x184B JUMPI POP DUP5 DUP3 ADD MLOAD JUMPDEST PUSH0 NOT PUSH1 0x3 DUP6 SWAP1 SHL SHR NOT AND PUSH1 0x1 DUP5 SWAP1 SHL OR DUP5 SSTORE PUSH2 0x16AB JUMP JUMPDEST PUSH0 DUP5 DUP2 MSTORE PUSH1 0x20 DUP2 KECCAK256 PUSH1 0x1F NOT DUP6 AND SWAP2 JUMPDEST DUP3 DUP2 LT ISZERO PUSH2 0x1891 JUMPI DUP8 DUP6 ADD MLOAD DUP3 SSTORE PUSH1 0x20 SWAP5 DUP6 ADD SWAP5 PUSH1 0x1 SWAP1 SWAP3 ADD SWAP2 ADD PUSH2 0x1871 JUMP JUMPDEST POP DUP5 DUP3 LT ISZERO PUSH2 0x18AE JUMPI DUP7 DUP5 ADD MLOAD PUSH0 NOT PUSH1 0x3 DUP8 SWAP1 SHL PUSH1 0xF8 AND SHR NOT AND DUP2 SSTORE JUMPDEST POP POP POP POP PUSH1 0x1 SWAP1 DUP2 SHL ADD SWAP1 SSTORE POP JUMP INVALID LOG2 PUSH5 0x6970667358 0x22 SLT KECCAK256 DIV PUSH3 0x7EC75B BLOBBASEFEE MOD 0xF7 SHR PUSH5 0xC24898AB03 DUP11 EXTSTATICCALL SWAP10 EXTSTATICCALL BLOBHASH PUSH9 0x699B0331EB17A63408 BLOBHASH PUSH29 0x64736F6C634300081E0033000000000000000000000000000000000000 "
				},
				"gasEstimates": {
					"creation": {
						"codeDepositCost": "1277400",
						"executionCost": "infinite",
						"totalCost": "infinite"
					},
					"external": {
						"addRaingWhenOrderSuccess(address,uint256)": "49019",
						"addStaff(address,string,string,string)": "infinite",
						"addStaffToOrder(uint256,address)": "infinite",
						"getAllStaffs()": "infinite",
						"getStaff(address)": "infinite",
						"getStaffInOrder(address,uint256)": "infinite",
						"orderManager()": "2423",
						"removeOrderInStaffInOrder(address,uint256)": "infinite",
						"roleAccess()": "2403",
						"staffInOrder(address,uint256)": "4781",
						"staffs(address)": "infinite",
						"updateRatingStaff(address,uint256,uint256)": "infinite",
						"updateStaffInfo(address,string,string,string)": "infinite"
					}
				},
				"methodIdentifiers": {
					"addRaingWhenOrderSuccess(address,uint256)": "ab1ca44c",
					"addStaff(address,string,string,string)": "dcad55c0",
					"addStaffToOrder(uint256,address)": "abf5e836",
					"getAllStaffs()": "037c73c2",
					"getStaff(address)": "ddd79504",
					"getStaffInOrder(address,uint256)": "a8bfa255",
					"orderManager()": "f9b6117f",
					"removeOrderInStaffInOrder(address,uint256)": "17c76c74",
					"roleAccess()": "42f54b89",
					"staffInOrder(address,uint256)": "3e5bde70",
					"staffs(address)": "b7ee0adc",
					"updateRatingStaff(address,uint256,uint256)": "e0e8086b",
					"updateStaffInfo(address,string,string,string)": "5be5fd39"
				}
			},
			"storageLayout": {
				"storage": [
					{
						"astId": 477,
						"contract": "contracts/manager/StaffManager.sol:StaffManagement",
						"label": "orderManager",
						"offset": 0,
						"slot": "0",
						"type": "t_contract(IOrderManager)361"
					},
					{
						"astId": 480,
						"contract": "contracts/manager/StaffManager.sol:StaffManagement",
						"label": "roleAccess",
						"offset": 0,
						"slot": "1",
						"type": "t_contract(RoleAccess)251"
					},
					{
						"astId": 485,
						"contract": "contracts/manager/StaffManager.sol:StaffManagement",
						"label": "staffs",
						"offset": 0,
						"slot": "2",
						"type": "t_mapping(t_address,t_struct(Staff)991_storage)"
					},
					{
						"astId": 488,
						"contract": "contracts/manager/StaffManager.sol:StaffManagement",
						"label": "staffAddresses",
						"offset": 0,
						"slot": "3",
						"type": "t_array(t_address)dyn_storage"
					},
					{
						"astId": 493,
						"contract": "contracts/manager/StaffManager.sol:StaffManagement",
						"label": "staffInOrder",
						"offset": 0,
						"slot": "4",
						"type": "t_mapping(t_address,t_array(t_uint256)dyn_storage)"
					}
				],
				"types": {
					"t_address": {
						"encoding": "inplace",
						"label": "address",
						"numberOfBytes": "20"
					},
					"t_array(t_address)dyn_storage": {
						"base": "t_address",
						"encoding": "dynamic_array",
						"label": "address[]",
						"numberOfBytes": "32"
					},
					"t_array(t_uint256)dyn_storage": {
						"base": "t_uint256",
						"encoding": "dynamic_array",
						"label": "uint256[]",
						"numberOfBytes": "32"
					},
					"t_contract(IOrderManager)361": {
						"encoding": "inplace",
						"label": "contract IOrderManager",
						"numberOfBytes": "20"
					},
					"t_contract(RoleAccess)251": {
						"encoding": "inplace",
						"label": "contract RoleAccess",
						"numberOfBytes": "20"
					},
					"t_enum(StaffStatus)975": {
						"encoding": "inplace",
						"label": "enum StaffStatus",
						"numberOfBytes": "1"
					},
					"t_mapping(t_address,t_array(t_uint256)dyn_storage)": {
						"encoding": "mapping",
						"key": "t_address",
						"label": "mapping(address => uint256[])",
						"numberOfBytes": "32",
						"value": "t_array(t_uint256)dyn_storage"
					},
					"t_mapping(t_address,t_struct(Staff)991_storage)": {
						"encoding": "mapping",
						"key": "t_address",
						"label": "mapping(address => struct Staff)",
						"numberOfBytes": "32",
						"value": "t_struct(Staff)991_storage"
					},
					"t_string_storage": {
						"encoding": "bytes",
						"label": "string",
						"numberOfBytes": "32"
					},
					"t_struct(Staff)991_storage": {
						"encoding": "inplace",
						"label": "struct Staff",
						"members": [
							{
								"astId": 977,
								"contract": "contracts/manager/StaffManager.sol:StaffManagement",
								"label": "staffAddress",
								"offset": 0,
								"slot": "0",
								"type": "t_address"
							},
							{
								"astId": 979,
								"contract": "contracts/manager/StaffManager.sol:StaffManagement",
								"label": "name",
								"offset": 0,
								"slot": "1",
								"type": "t_string_storage"
							},
							{
								"astId": 981,
								"contract": "contracts/manager/StaffManager.sol:StaffManagement",
								"label": "dob",
								"offset": 0,
								"slot": "2",
								"type": "t_string_storage"
							},
							{
								"astId": 983,
								"contract": "contracts/manager/StaffManager.sol:StaffManagement",
								"label": "phone",
								"offset": 0,
								"slot": "3",
								"type": "t_string_storage"
							},
							{
								"astId": 985,
								"contract": "contracts/manager/StaffManager.sol:StaffManagement",
								"label": "sumRating",
								"offset": 0,
								"slot": "4",
								"type": "t_uint256"
							},
							{
								"astId": 987,
								"contract": "contracts/manager/StaffManager.sol:StaffManagement",
								"label": "countRating",
								"offset": 0,
								"slot": "5",
								"type": "t_uint256"
							},
							{
								"astId": 990,
								"contract": "contracts/manager/StaffManager.sol:StaffManagement",
								"label": "status",
								"offset": 0,
								"slot": "6",
								"type": "t_enum(StaffStatus)975"
							}
						],
						"numberOfBytes": "224"
					},
					"t_uint256": {
						"encoding": "inplace",
						"label": "uint256",
						"numberOfBytes": "32"
					}
				}
			},
			"userdoc": {
				"kind": "user",
				"methods": {},
				"version": 1
			}
		}
	}
}