{
	"contracts/access/RoleAccess.sol": {
		"RoleAccess": {
			"abi": [
				{
					"inputs": [],
					"stateMutability": "nonpayable",
					"type": "constructor"
				},
				{
					"anonymous": false,
					"inputs": [
						{
							"indexed": true,
							"internalType": "address",
							"name": "account",
							"type": "address"
						},
						{
							"indexed": false,
							"internalType": "string",
							"name": "roleName",
							"type": "string"
						},
						{
							"indexed": false,
							"internalType": "enum RoleType",
							"name": "roleType",
							"type": "uint8"
						}
					],
					"name": "RoleAssigned",
					"type": "event"
				},
				{
					"anonymous": false,
					"inputs": [
						{
							"indexed": true,
							"internalType": "address",
							"name": "account",
							"type": "address"
						}
					],
					"name": "RoleRevoked",
					"type": "event"
				},
				{
					"anonymous": false,
					"inputs": [
						{
							"indexed": true,
							"internalType": "address",
							"name": "account",
							"type": "address"
						},
						{
							"indexed": false,
							"internalType": "string",
							"name": "roleName",
							"type": "string"
						},
						{
							"indexed": false,
							"internalType": "enum RoleType",
							"name": "roleType",
							"type": "uint8"
						}
					],
					"name": "RoleUpdated",
					"type": "event"
				},
				{
					"inputs": [
						{
							"internalType": "address",
							"name": "account",
							"type": "address"
						},
						{
							"internalType": "uint256",
							"name": "roleId",
							"type": "uint256"
						}
					],
					"name": "assignRole",
					"outputs": [],
					"stateMutability": "nonpayable",
					"type": "function"
				},
				{
					"inputs": [],
					"name": "getAllRoles",
					"outputs": [
						{
							"components": [
								{
									"internalType": "uint256",
									"name": "roleId",
									"type": "uint256"
								},
								{
									"internalType": "enum RoleType",
									"name": "role",
									"type": "uint8"
								},
								{
									"internalType": "string",
									"name": "name",
									"type": "string"
								}
							],
							"internalType": "struct Role[]",
							"name": "",
							"type": "tuple[]"
						}
					],
					"stateMutability": "view",
					"type": "function"
				},
				{
					"inputs": [],
					"name": "getOwner",
					"outputs": [
						{
							"internalType": "address",
							"name": "",
							"type": "address"
						}
					],
					"stateMutability": "view",
					"type": "function"
				},
				{
					"inputs": [
						{
							"internalType": "address",
							"name": "account",
							"type": "address"
						}
					],
					"name": "getUserRole",
					"outputs": [
						{
							"components": [
								{
									"internalType": "uint256",
									"name": "roleId",
									"type": "uint256"
								},
								{
									"internalType": "enum RoleType",
									"name": "role",
									"type": "uint8"
								},
								{
									"internalType": "string",
									"name": "name",
									"type": "string"
								}
							],
							"internalType": "struct Role",
							"name": "",
							"type": "tuple"
						}
					],
					"stateMutability": "view",
					"type": "function"
				},
				{
					"inputs": [
						{
							"internalType": "address",
							"name": "account",
							"type": "address"
						},
						{
							"internalType": "enum RoleType",
							"name": "roleType",
							"type": "uint8"
						}
					],
					"name": "hasRole",
					"outputs": [
						{
							"internalType": "bool",
							"name": "",
							"type": "bool"
						}
					],
					"stateMutability": "view",
					"type": "function"
				},
				{
					"inputs": [],
					"name": "owner",
					"outputs": [
						{
							"internalType": "address",
							"name": "",
							"type": "address"
						}
					],
					"stateMutability": "view",
					"type": "function"
				},
				{
					"inputs": [
						{
							"internalType": "address",
							"name": "account",
							"type": "address"
						}
					],
					"name": "revokeRole",
					"outputs": [],
					"stateMutability": "nonpayable",
					"type": "function"
				}
			],
			"devdoc": {
				"kind": "dev",
				"methods": {},
				"version": 1
			},
			"evm": {
				"assembly": "    /* \"contracts/access/RoleAccess.sol\":94:2734  contract RoleAccess {... */\n  mstore(0x40, 0x80)\n    /* \"contracts/access/RoleAccess.sol\":637:884  constructor() {... */\n  callvalue\n  dup1\n  iszero\n  tag_1\n  jumpi\n  revert(0x00, 0x00)\ntag_1:\n  pop\n    /* \"contracts/access/RoleAccess.sol\":661:666  owner */\n  0x00\n    /* \"contracts/access/RoleAccess.sol\":661:679  owner = msg.sender */\n  dup1\n  sload\n  not(sub(shl(0xa0, 0x01), 0x01))\n  and\n    /* \"contracts/access/RoleAccess.sol\":669:679  msg.sender */\n  caller\n    /* \"contracts/access/RoleAccess.sol\":661:679  owner = msg.sender */\n  or\n  dup2\n  sstore\n    /* \"contracts/access/RoleAccess.sol\":732:772  Role(1, RoleType.ADMIN, \"Administrator\") */\n  0x40\n  dup1\n  mload\n  0x60\n  dup2\n  add\n  swap1\n  swap2\n  mstore\n    /* \"contracts/access/RoleAccess.sol\":661:679  owner = msg.sender */\n  0x01\n    /* \"contracts/access/RoleAccess.sol\":732:772  Role(1, RoleType.ADMIN, \"Administrator\") */\n  dup2\n  mstore\n  swap1\n  0x20\n  dup3\n  add\n  swap1\n  dup2\n  mstore\n  0x40\n  dup1\n  mload\n  dup1\n  dup3\n  add\n  swap1\n  swap2\n  mstore\n  0x0d\n  dup2\n  mstore\n  shl(0x99, 0x20b236b4b734b9ba3930ba37b9)\n  0x20\n  dup3\n  dup2\n  add\n  swap2\n  swap1\n  swap2\n  mstore\n  swap2\n  dup3\n  add\n  mstore\n    /* \"contracts/access/RoleAccess.sol\":727:728  1 */\n  0x01\n  0x00\n    /* \"contracts/access/RoleAccess.sol\":721:729  roles[1] */\n  dup2\n  swap1\n  mstore\n    /* \"contracts/access/RoleAccess.sol\":721:726  roles */\n  0x02\n    /* \"contracts/access/RoleAccess.sol\":721:729  roles[1] */\n  dup3\n  mstore\n    /* \"contracts/access/RoleAccess.sol\":721:772  roles[1] = Role(1, RoleType.ADMIN, \"Administrator\") */\n  dup3\n  mload\n    /* \"contracts/access/RoleAccess.sol\":721:729  roles[1] */\n  0xe90b7bceb6e7df5418fb78d8ee546e97c83a08bbccc01a0644d599ccd2a7c2e0\n    /* \"contracts/access/RoleAccess.sol\":721:772  roles[1] = Role(1, RoleType.ADMIN, \"Administrator\") */\n  swap1\n  dup2\n  sstore\n  swap2\n  dup4\n  add\n  mload\n  0xe90b7bceb6e7df5418fb78d8ee546e97c83a08bbccc01a0644d599ccd2a7c2e1\n  dup1\n  sload\n  swap2\n  swap3\n  swap1\n  swap2\n  not(0xff)\n  and\n  swap1\n  dup4\n  dup2\n  dup2\n  gt\n  iszero\n  tag_8\n  jumpi\n  tag_8\n  tag_6\n  jump\t// in\ntag_8:\n  mul\n  or\n  swap1\n  sstore\n  pop\n  0x40\n  dup3\n  add\n  mload\n  0x02\n  dup3\n  add\n  swap1\n  tag_9\n  swap1\n  dup3\n  tag_10\n  jump\t// in\ntag_9:\n  pop\n  pop\n    /* \"contracts/access/RoleAccess.sol\":782:790  arrRoles */\n  0x03\n    /* \"contracts/access/RoleAccess.sol\":782:798  arrRoles.push(1) */\n  dup1\n  sload\n    /* \"contracts/access/RoleAccess.sol\":796:797  1 */\n  0x01\n    /* \"contracts/access/RoleAccess.sol\":782:798  arrRoles.push(1) */\n  dup1\n  dup3\n  add\n  swap1\n  swap3\n  sstore\n  mload(0x00)\n  codecopy(0x00, data_2584db4a68aa8b172f70bc04e2e74541617c003374de6eb4b295e823e5beab01, 0x20)\n  mload(0x00)\n  swap1\n  0x00\n  mstore\n  add\n  dup2\n  swap1\n  sstore\n    /* \"contracts/access/RoleAccess.sol\":819:851  Role(2, RoleType.STAFF, \"Staff\") */\n  0x40\n  dup1\n  mload\n  0x60\n  dup2\n  add\n  dup3\n  mstore\n    /* \"contracts/access/RoleAccess.sol\":824:825  2 */\n  0x02\n    /* \"contracts/access/RoleAccess.sol\":819:851  Role(2, RoleType.STAFF, \"Staff\") */\n  dup1\n  dup3\n  mstore\n    /* \"contracts/access/RoleAccess.sol\":782:798  arrRoles.push(1) */\n  0x20\n    /* \"contracts/access/RoleAccess.sol\":819:851  Role(2, RoleType.STAFF, \"Staff\") */\n  dup1\n  dup4\n  add\n  dup6\n  dup2\n  mstore\n  dup5\n  mload\n  dup1\n  dup7\n  add\n  dup7\n  mstore\n  0x05\n  dup2\n  mstore\n  shl(0xd9, 0x29ba30b333)\n  dup2\n  dup5\n  add\n  mstore\n  swap5\n  dup5\n  add\n  swap5\n  swap1\n  swap5\n  mstore\n  0x00\n    /* \"contracts/access/RoleAccess.sol\":808:816  roles[2] */\n  dup3\n  swap1\n  mstore\n  mstore\n    /* \"contracts/access/RoleAccess.sol\":808:851  roles[2] = Role(2, RoleType.STAFF, \"Staff\") */\n  dup1\n  mload\n    /* \"contracts/access/RoleAccess.sol\":808:816  roles[2] */\n  0x679795a0195a1b76cdebb7c51d74e058aee92919b8c3389af86ef24535e8a28c\n    /* \"contracts/access/RoleAccess.sol\":808:851  roles[2] = Role(2, RoleType.STAFF, \"Staff\") */\n  swap1\n  dup2\n  sstore\n  swap2\n  mload\n  0x679795a0195a1b76cdebb7c51d74e058aee92919b8c3389af86ef24535e8a28d\n  dup1\n  sload\n    /* \"contracts/access/RoleAccess.sol\":819:851  Role(2, RoleType.STAFF, \"Staff\") */\n  swap3\n  swap6\n  pop\n    /* \"contracts/access/RoleAccess.sol\":808:816  roles[2] */\n  swap3\n  swap4\n    /* \"contracts/access/RoleAccess.sol\":808:851  roles[2] = Role(2, RoleType.STAFF, \"Staff\") */\n  swap1\n  swap3\n  swap2\n  not(0xff)\n  and\n  swap1\n  dup4\n  dup2\n  dup2\n  gt\n  iszero\n  tag_15\n  jumpi\n  tag_15\n  tag_6\n  jump\t// in\ntag_15:\n  mul\n  or\n  swap1\n  sstore\n  pop\n  0x40\n  dup3\n  add\n  mload\n  0x02\n  dup3\n  add\n  swap1\n  tag_16\n  swap1\n  dup3\n  tag_10\n  jump\t// in\ntag_16:\n  pop\n  pop\n    /* \"contracts/access/RoleAccess.sol\":861:869  arrRoles */\n  0x03\n    /* \"contracts/access/RoleAccess.sol\":861:877  arrRoles.push(2) */\n  dup1\n  sload\n  0x01\n  dup2\n  add\n  dup3\n  sstore\n  0x00\n  swap2\n  swap1\n  swap2\n  mstore\n    /* \"contracts/access/RoleAccess.sol\":875:876  2 */\n  0x02\n  mload(0x00)\n  codecopy(0x00, data_2584db4a68aa8b172f70bc04e2e74541617c003374de6eb4b295e823e5beab01, 0x20)\n  mload(0x00)\n  swap1\n  0x00\n  mstore\n    /* \"contracts/access/RoleAccess.sol\":861:877  arrRoles.push(2) */\n  swap1\n  swap2\n  add\n  sstore\n  pop\n    /* \"contracts/access/RoleAccess.sol\":94:2734  contract RoleAccess {... */\n  jump(tag_24)\n    /* \"#utility.yul\":14:141   */\ntag_6:\n    /* \"#utility.yul\":75:85   */\n  0x4e487b71\n    /* \"#utility.yul\":70:73   */\n  0xe0\n    /* \"#utility.yul\":66:86   */\n  shl\n    /* \"#utility.yul\":63:64   */\n  0x00\n    /* \"#utility.yul\":56:87   */\n  mstore\n    /* \"#utility.yul\":106:110   */\n  0x21\n    /* \"#utility.yul\":103:104   */\n  0x04\n    /* \"#utility.yul\":96:111   */\n  mstore\n    /* \"#utility.yul\":130:134   */\n  0x24\n    /* \"#utility.yul\":127:128   */\n  0x00\n    /* \"#utility.yul\":120:135   */\n  revert\n    /* \"#utility.yul\":146:273   */\ntag_19:\n    /* \"#utility.yul\":207:217   */\n  0x4e487b71\n    /* \"#utility.yul\":202:205   */\n  0xe0\n    /* \"#utility.yul\":198:218   */\n  shl\n    /* \"#utility.yul\":195:196   */\n  0x00\n    /* \"#utility.yul\":188:219   */\n  mstore\n    /* \"#utility.yul\":238:242   */\n  0x41\n    /* \"#utility.yul\":235:236   */\n  0x04\n    /* \"#utility.yul\":228:243   */\n  mstore\n    /* \"#utility.yul\":262:266   */\n  0x24\n    /* \"#utility.yul\":259:260   */\n  0x00\n    /* \"#utility.yul\":252:267   */\n  revert\n    /* \"#utility.yul\":278:658   */\ntag_20:\n    /* \"#utility.yul\":357:358   */\n  0x01\n    /* \"#utility.yul\":353:365   */\n  dup2\n  dup2\n  shr\n  swap1\n    /* \"#utility.yul\":400:412   */\n  dup3\n  and\n  dup1\n    /* \"#utility.yul\":421:482   */\n  tag_28\n  jumpi\n    /* \"#utility.yul\":475:479   */\n  0x7f\n    /* \"#utility.yul\":467:473   */\n  dup3\n    /* \"#utility.yul\":463:480   */\n  and\n    /* \"#utility.yul\":453:480   */\n  swap2\n  pop\n    /* \"#utility.yul\":421:482   */\ntag_28:\n    /* \"#utility.yul\":528:530   */\n  0x20\n    /* \"#utility.yul\":520:526   */\n  dup3\n    /* \"#utility.yul\":517:531   */\n  lt\n    /* \"#utility.yul\":497:515   */\n  dup2\n    /* \"#utility.yul\":494:532   */\n  sub\n    /* \"#utility.yul\":491:652   */\n  tag_29\n  jumpi\n    /* \"#utility.yul\":574:584   */\n  0x4e487b71\n    /* \"#utility.yul\":569:572   */\n  0xe0\n    /* \"#utility.yul\":565:585   */\n  shl\n    /* \"#utility.yul\":562:563   */\n  0x00\n    /* \"#utility.yul\":555:586   */\n  mstore\n    /* \"#utility.yul\":609:613   */\n  0x22\n    /* \"#utility.yul\":606:607   */\n  0x04\n    /* \"#utility.yul\":599:614   */\n  mstore\n    /* \"#utility.yul\":637:641   */\n  0x24\n    /* \"#utility.yul\":634:635   */\n  0x00\n    /* \"#utility.yul\":627:642   */\n  revert\n    /* \"#utility.yul\":491:652   */\ntag_29:\n  pop\n    /* \"#utility.yul\":278:658   */\n  swap2\n  swap1\n  pop\n  jump\t// out\n    /* \"#utility.yul\":789:1307   */\ntag_22:\n    /* \"#utility.yul\":891:893   */\n  0x1f\n    /* \"#utility.yul\":886:889   */\n  dup3\n    /* \"#utility.yul\":883:894   */\n  gt\n    /* \"#utility.yul\":880:1301   */\n  iszero\n  tag_32\n  jumpi\n    /* \"#utility.yul\":927:932   */\n  dup1\n    /* \"#utility.yul\":924:925   */\n  0x00\n    /* \"#utility.yul\":917:933   */\n  mstore\n    /* \"#utility.yul\":971:975   */\n  0x20\n    /* \"#utility.yul\":968:969   */\n  0x00\n    /* \"#utility.yul\":958:976   */\n  keccak256\n    /* \"#utility.yul\":1041:1043   */\n  0x1f\n    /* \"#utility.yul\":1029:1039   */\n  dup5\n    /* \"#utility.yul\":1025:1044   */\n  add\n    /* \"#utility.yul\":1022:1023   */\n  0x05\n    /* \"#utility.yul\":1018:1045   */\n  shr\n    /* \"#utility.yul\":1012:1016   */\n  dup2\n    /* \"#utility.yul\":1008:1046   */\n  add\n    /* \"#utility.yul\":1077:1081   */\n  0x20\n    /* \"#utility.yul\":1065:1075   */\n  dup6\n    /* \"#utility.yul\":1062:1082   */\n  lt\n    /* \"#utility.yul\":1059:1106   */\n  iszero\n  tag_33\n  jumpi\n  pop\n    /* \"#utility.yul\":1100:1104   */\n  dup1\n    /* \"#utility.yul\":1059:1106   */\ntag_33:\n    /* \"#utility.yul\":1155:1157   */\n  0x1f\n    /* \"#utility.yul\":1150:1153   */\n  dup5\n    /* \"#utility.yul\":1146:1158   */\n  add\n    /* \"#utility.yul\":1143:1144   */\n  0x05\n    /* \"#utility.yul\":1139:1159   */\n  shr\n    /* \"#utility.yul\":1133:1137   */\n  dup3\n    /* \"#utility.yul\":1129:1160   */\n  add\n    /* \"#utility.yul\":1119:1160   */\n  swap2\n  pop\n    /* \"#utility.yul\":1210:1291   */\ntag_34:\n    /* \"#utility.yul\":1228:1230   */\n  dup2\n    /* \"#utility.yul\":1221:1226   */\n  dup2\n    /* \"#utility.yul\":1218:1231   */\n  lt\n    /* \"#utility.yul\":1210:1291   */\n  iszero\n  tag_36\n  jumpi\n    /* \"#utility.yul\":1287:1288   */\n  0x00\n    /* \"#utility.yul\":1273:1289   */\n  dup2\n  sstore\n    /* \"#utility.yul\":1254:1255   */\n  0x01\n    /* \"#utility.yul\":1243:1256   */\n  add\n    /* \"#utility.yul\":1210:1291   */\n  jump(tag_34)\ntag_36:\n    /* \"#utility.yul\":1214:1217   */\n  pop\n  pop\n    /* \"#utility.yul\":880:1301   */\ntag_32:\n    /* \"#utility.yul\":789:1307   */\n  pop\n  pop\n  pop\n  jump\t// out\n    /* \"#utility.yul\":1483:2782   */\ntag_10:\n    /* \"#utility.yul\":1603:1613   */\n  dup2\n  mload\n  sub(shl(0x40, 0x01), 0x01)\n    /* \"#utility.yul\":1625:1655   */\n  dup2\n  gt\n    /* \"#utility.yul\":1622:1678   */\n  iszero\n  tag_40\n  jumpi\n    /* \"#utility.yul\":1658:1676   */\n  tag_40\n  tag_19\n  jump\t// in\ntag_40:\n    /* \"#utility.yul\":1687:1784   */\n  tag_41\n    /* \"#utility.yul\":1777:1783   */\n  dup2\n    /* \"#utility.yul\":1737:1775   */\n  tag_42\n    /* \"#utility.yul\":1769:1773   */\n  dup5\n    /* \"#utility.yul\":1763:1774   */\n  sload\n    /* \"#utility.yul\":1737:1775   */\n  tag_20\n  jump\t// in\ntag_42:\n    /* \"#utility.yul\":1731:1735   */\n  dup5\n    /* \"#utility.yul\":1687:1784   */\n  tag_22\n  jump\t// in\ntag_41:\n    /* \"#utility.yul\":1833:1837   */\n  0x20\n    /* \"#utility.yul\":1864:1866   */\n  0x1f\n    /* \"#utility.yul\":1853:1867   */\n  dup3\n  gt\n    /* \"#utility.yul\":1881:1882   */\n  0x01\n    /* \"#utility.yul\":1876:2525   */\n  dup2\n  eq\n  tag_44\n  jumpi\n    /* \"#utility.yul\":2569:2570   */\n  0x00\n    /* \"#utility.yul\":2586:2592   */\n  dup4\n    /* \"#utility.yul\":2583:2672   */\n  iszero\n  tag_45\n  jumpi\n  pop\n    /* \"#utility.yul\":2638:2657   */\n  dup5\n  dup3\n  add\n    /* \"#utility.yul\":2632:2658   */\n  mload\n    /* \"#utility.yul\":2583:2672   */\ntag_45:\n  not(0x00)\n    /* \"#utility.yul\":1440:1441   */\n  0x03\n    /* \"#utility.yul\":1436:1447   */\n  dup6\n  swap1\n  shl\n    /* \"#utility.yul\":1432:1456   */\n  shr\n    /* \"#utility.yul\":1428:1457   */\n  not\n    /* \"#utility.yul\":1418:1458   */\n  and\n    /* \"#utility.yul\":1464:1465   */\n  0x01\n    /* \"#utility.yul\":1460:1471   */\n  dup5\n  swap1\n  shl\n    /* \"#utility.yul\":1415:1472   */\n  or\n    /* \"#utility.yul\":2685:2766   */\n  dup5\n  sstore\n    /* \"#utility.yul\":1846:2776   */\n  jump(tag_36)\n    /* \"#utility.yul\":1876:2525   */\ntag_44:\n    /* \"#utility.yul\":736:737   */\n  0x00\n    /* \"#utility.yul\":729:743   */\n  dup5\n  dup2\n  mstore\n    /* \"#utility.yul\":773:777   */\n  0x20\n    /* \"#utility.yul\":760:778   */\n  dup2\n  keccak256\n  not(0x1f)\n    /* \"#utility.yul\":1912:1932   */\n  dup6\n  and\n  swap2\n    /* \"#utility.yul\":2030:2252   */\ntag_48:\n    /* \"#utility.yul\":2044:2051   */\n  dup3\n    /* \"#utility.yul\":2041:2042   */\n  dup2\n    /* \"#utility.yul\":2038:2052   */\n  lt\n    /* \"#utility.yul\":2030:2252   */\n  iszero\n  tag_50\n  jumpi\n    /* \"#utility.yul\":2126:2145   */\n  dup8\n  dup6\n  add\n    /* \"#utility.yul\":2120:2146   */\n  mload\n    /* \"#utility.yul\":2105:2147   */\n  dup3\n  sstore\n    /* \"#utility.yul\":2233:2237   */\n  0x20\n    /* \"#utility.yul\":2218:2238   */\n  swap5\n  dup6\n  add\n  swap5\n    /* \"#utility.yul\":2186:2187   */\n  0x01\n    /* \"#utility.yul\":2174:2188   */\n  swap1\n  swap3\n  add\n  swap2\n    /* \"#utility.yul\":2060:2072   */\n  add\n    /* \"#utility.yul\":2030:2252   */\n  jump(tag_48)\ntag_50:\n    /* \"#utility.yul\":2034:2037   */\n  pop\n    /* \"#utility.yul\":2280:2286   */\n  dup5\n    /* \"#utility.yul\":2271:2278   */\n  dup3\n    /* \"#utility.yul\":2268:2287   */\n  lt\n    /* \"#utility.yul\":2265:2466   */\n  iszero\n  tag_51\n  jumpi\n    /* \"#utility.yul\":2341:2360   */\n  dup7\n  dup5\n  add\n    /* \"#utility.yul\":2335:2361   */\n  mload\n  not(0x00)\n    /* \"#utility.yul\":2424:2425   */\n  0x03\n    /* \"#utility.yul\":2420:2434   */\n  dup8\n  swap1\n  shl\n    /* \"#utility.yul\":2436:2439   */\n  0xf8\n    /* \"#utility.yul\":2416:2440   */\n  and\n    /* \"#utility.yul\":2412:2449   */\n  shr\n    /* \"#utility.yul\":2408:2450   */\n  not\n    /* \"#utility.yul\":2393:2451   */\n  and\n    /* \"#utility.yul\":2378:2452   */\n  dup2\n  sstore\n    /* \"#utility.yul\":2265:2466   */\ntag_51:\n  pop\n  pop\n  pop\n  pop\n    /* \"#utility.yul\":2512:2513   */\n  0x01\n    /* \"#utility.yul\":2496:2510   */\n  swap1\n  dup2\n  shl\n    /* \"#utility.yul\":2492:2514   */\n  add\n    /* \"#utility.yul\":2479:2515   */\n  swap1\n  sstore\n  pop\n    /* \"#utility.yul\":1483:2782   */\n  jump\t// out\ntag_24:\n    /* \"contracts/access/RoleAccess.sol\":94:2734  contract RoleAccess {... */\n  dataSize(sub_0)\n  dup1\n  dataOffset(sub_0)\n  0x00\n  codecopy\n  0x00\n  return\nstop\ndata_2584db4a68aa8b172f70bc04e2e74541617c003374de6eb4b295e823e5beab01 c2575a0e9e593c00f959f8c92f12db2869c3395a3b0502d05e2516446f71f85b\n\nsub_0: assembly {\n        /* \"contracts/access/RoleAccess.sol\":94:2734  contract RoleAccess {... */\n      mstore(0x40, 0x80)\n      callvalue\n      dup1\n      iszero\n      tag_1\n      jumpi\n      revert(0x00, 0x00)\n    tag_1:\n      pop\n      jumpi(tag_2, lt(calldatasize, 0x04))\n      shr(0xe0, calldataload(0x00))\n      dup1\n      0x893d20e8\n      gt\n      tag_10\n      jumpi\n      dup1\n      0x893d20e8\n      eq\n      tag_6\n      jumpi\n      dup1\n      0x8da5cb5b\n      eq\n      tag_7\n      jumpi\n      dup1\n      0x95a8c58d\n      eq\n      tag_8\n      jumpi\n      dup1\n      0xf2bcac3d\n      eq\n      tag_9\n      jumpi\n      revert(0x00, 0x00)\n    tag_10:\n      dup1\n      0x27820851\n      eq\n      tag_3\n      jumpi\n      dup1\n      0x2e3036c7\n      eq\n      tag_4\n      jumpi\n      dup1\n      0x80e52e3f\n      eq\n      tag_5\n      jumpi\n    tag_2:\n      revert(0x00, 0x00)\n        /* \"contracts/access/RoleAccess.sol\":1872:2064  function getUserRole(address account) external view returns (Role memory) {... */\n    tag_3:\n      tag_11\n      tag_12\n      calldatasize\n      0x04\n      tag_13\n      jump\t// in\n    tag_12:\n      tag_14\n      jump\t// in\n    tag_11:\n      mload(0x40)\n      tag_15\n      swap2\n      swap1\n      tag_16\n      jump\t// in\n    tag_15:\n      mload(0x40)\n      dup1\n      swap2\n      sub\n      swap1\n      return\n        /* \"contracts/access/RoleAccess.sol\":919:1170  function assignRole(address account, uint256 roleId) external {... */\n    tag_4:\n      tag_17\n      tag_18\n      calldatasize\n      0x04\n      tag_19\n      jump\t// in\n    tag_18:\n      tag_20\n      jump\t// in\n    tag_17:\n      stop\n        /* \"contracts/access/RoleAccess.sol\":1634:1834  function revokeRole(address account) external  {... */\n    tag_5:\n      tag_17\n      tag_22\n      calldatasize\n      0x04\n      tag_13\n      jump\t// in\n    tag_22:\n      tag_23\n      jump\t// in\n        /* \"contracts/access/RoleAccess.sol\":2651:2732  function getOwner() external view returns (address) {... */\n    tag_6:\n        /* \"contracts/access/RoleAccess.sol\":2694:2701  address */\n      0x00\n        /* \"contracts/access/RoleAccess.sol\":2720:2725  owner */\n      sload\n      sub(shl(0xa0, 0x01), 0x01)\n      and\n        /* \"contracts/access/RoleAccess.sol\":2651:2732  function getOwner() external view returns (address) {... */\n    tag_24:\n      mload(0x40)\n      sub(shl(0xa0, 0x01), 0x01)\n        /* \"#utility.yul\":1996:2028   */\n      swap1\n      swap2\n      and\n        /* \"#utility.yul\":1978:2029   */\n      dup2\n      mstore\n        /* \"#utility.yul\":1966:1968   */\n      0x20\n        /* \"#utility.yul\":1951:1969   */\n      add\n        /* \"contracts/access/RoleAccess.sol\":2651:2732  function getOwner() external view returns (address) {... */\n      tag_15\n        /* \"#utility.yul\":1832:2035   */\n      jump\n        /* \"contracts/access/RoleAccess.sol\":120:140  address public owner */\n    tag_7:\n      sload(0x00)\n      tag_24\n      swap1\n      sub(shl(0xa0, 0x01), 0x01)\n      and\n      dup2\n      jump\n        /* \"contracts/access/RoleAccess.sol\":2425:2645  function hasRole(address account, RoleType roleType) external view returns (bool) {... */\n    tag_8:\n      tag_31\n      tag_32\n      calldatasize\n      0x04\n      tag_33\n      jump\t// in\n    tag_32:\n      tag_34\n      jump\t// in\n    tag_31:\n      mload(0x40)\n        /* \"#utility.yul\":2552:2566   */\n      swap1\n      iszero\n        /* \"#utility.yul\":2545:2567   */\n      iszero\n        /* \"#utility.yul\":2527:2568   */\n      dup2\n      mstore\n        /* \"#utility.yul\":2515:2517   */\n      0x20\n        /* \"#utility.yul\":2500:2518   */\n      add\n        /* \"contracts/access/RoleAccess.sol\":2425:2645  function hasRole(address account, RoleType roleType) external view returns (bool) {... */\n      tag_15\n        /* \"#utility.yul\":2387:2574   */\n      jump\n        /* \"contracts/access/RoleAccess.sol\":2102:2366  function getAllRoles() external view returns (Role[] memory) {... */\n    tag_9:\n      tag_37\n      tag_38\n      jump\t// in\n    tag_37:\n      mload(0x40)\n      tag_15\n      swap2\n      swap1\n      tag_40\n      jump\t// in\n        /* \"contracts/access/RoleAccess.sol\":1872:2064  function getUserRole(address account) external view returns (Role memory) {... */\n    tag_14:\n      0x40\n      dup1\n      mload\n      0x60\n      dup1\n      dup3\n      add\n      dup4\n      mstore\n      0x00\n      dup1\n      dup4\n      mstore\n      0x20\n      dup4\n      add\n      mstore\n      swap2\n      dup2\n      add\n      swap2\n      swap1\n      swap2\n      mstore\n      sub(shl(0xa0, 0x01), 0x01)\n        /* \"contracts/access/RoleAccess.sol\":1964:1981  userRole[account] */\n      dup3\n      and\n      0x00\n      swap1\n      dup2\n      mstore\n        /* \"contracts/access/RoleAccess.sol\":1964:1972  userRole */\n      0x01\n        /* \"contracts/access/RoleAccess.sol\":1964:1981  userRole[account] */\n      0x20\n      mstore\n      0x40\n      dup2\n      keccak256\n        /* \"contracts/access/RoleAccess.sol\":1964:1988  userRole[account].roleId */\n      sload\n        /* \"contracts/access/RoleAccess.sol\":1964:1993  userRole[account].roleId != 0 */\n      swap1\n      sub\n        /* \"contracts/access/RoleAccess.sol\":1956:2023  require(userRole[account].roleId != 0, \"User has no role assigned\") */\n      tag_44\n      jumpi\n      mload(0x40)\n      shl(0xe5, 0x461bcd)\n      dup2\n      mstore\n        /* \"#utility.yul\":3595:3597   */\n      0x20\n        /* \"contracts/access/RoleAccess.sol\":1956:2023  require(userRole[account].roleId != 0, \"User has no role assigned\") */\n      0x04\n      dup3\n      add\n        /* \"#utility.yul\":3577:3598   */\n      mstore\n        /* \"#utility.yul\":3634:3636   */\n      0x19\n        /* \"#utility.yul\":3614:3632   */\n      0x24\n      dup3\n      add\n        /* \"#utility.yul\":3607:3637   */\n      mstore\n      shl(0x3a, 0x155cd95c881a185cc81b9bc81c9bdb1948185cdcda59db9959)\n        /* \"#utility.yul\":3653:3671   */\n      0x44\n      dup3\n      add\n        /* \"#utility.yul\":3646:3701   */\n      mstore\n        /* \"#utility.yul\":3718:3736   */\n      0x64\n      add\n        /* \"contracts/access/RoleAccess.sol\":1956:2023  require(userRole[account].roleId != 0, \"User has no role assigned\") */\n    tag_45:\n      mload(0x40)\n      dup1\n      swap2\n      sub\n      swap1\n      revert\n    tag_44:\n      sub(shl(0xa0, 0x01), 0x01)\n        /* \"contracts/access/RoleAccess.sol\":2040:2057  userRole[account] */\n      dup3\n      and\n      0x00\n      swap1\n      dup2\n      mstore\n        /* \"contracts/access/RoleAccess.sol\":2040:2048  userRole */\n      0x01\n        /* \"contracts/access/RoleAccess.sol\":2040:2057  userRole[account] */\n      0x20\n      dup2\n      dup2\n      mstore\n      0x40\n      swap3\n      dup4\n      swap1\n      keccak256\n        /* \"contracts/access/RoleAccess.sol\":2033:2057  return userRole[account] */\n      dup4\n      mload\n      0x60\n      dup2\n      add\n      swap1\n      swap5\n      mstore\n      dup1\n      sload\n      dup5\n      mstore\n      dup1\n      dup4\n      add\n      sload\n        /* \"contracts/access/RoleAccess.sol\":2040:2057  userRole[account] */\n      swap1\n      swap3\n        /* \"contracts/access/RoleAccess.sol\":2033:2057  return userRole[account] */\n      swap2\n      dup5\n      add\n      swap2\n      0xff\n      swap1\n      swap2\n      and\n      swap1\n      dup2\n      gt\n      iszero\n      tag_48\n      jumpi\n      tag_48\n      tag_49\n      jump\t// in\n    tag_48:\n      0x01\n      dup2\n      gt\n      iszero\n      tag_51\n      jumpi\n      tag_51\n      tag_49\n      jump\t// in\n    tag_51:\n      dup2\n      mstore\n      0x20\n      add\n      0x02\n      dup3\n      add\n      dup1\n      sload\n      tag_52\n      swap1\n      tag_53\n      jump\t// in\n    tag_52:\n      dup1\n      0x1f\n      add\n      0x20\n      dup1\n      swap2\n      div\n      mul\n      0x20\n      add\n      mload(0x40)\n      swap1\n      dup2\n      add\n      0x40\n      mstore\n      dup1\n      swap3\n      swap2\n      swap1\n      dup2\n      dup2\n      mstore\n      0x20\n      add\n      dup3\n      dup1\n      sload\n      tag_54\n      swap1\n      tag_53\n      jump\t// in\n    tag_54:\n      dup1\n      iszero\n      tag_55\n      jumpi\n      dup1\n      0x1f\n      lt\n      tag_56\n      jumpi\n      0x0100\n      dup1\n      dup4\n      sload\n      div\n      mul\n      dup4\n      mstore\n      swap2\n      0x20\n      add\n      swap2\n      jump(tag_55)\n    tag_56:\n      dup3\n      add\n      swap2\n      swap1\n      0x00\n      mstore\n      keccak256(0x00, 0x20)\n      swap1\n    tag_57:\n      dup2\n      sload\n      dup2\n      mstore\n      swap1\n      0x01\n      add\n      swap1\n      0x20\n      add\n      dup1\n      dup4\n      gt\n      tag_57\n      jumpi\n      dup3\n      swap1\n      sub\n      0x1f\n      and\n      dup3\n      add\n      swap2\n    tag_55:\n      pop\n      pop\n      pop\n      pop\n      pop\n      dup2\n      mstore\n      pop\n      pop\n      swap1\n      pop\n        /* \"contracts/access/RoleAccess.sol\":1872:2064  function getUserRole(address account) external view returns (Role memory) {... */\n      swap2\n      swap1\n      pop\n      jump\t// out\n        /* \"contracts/access/RoleAccess.sol\":919:1170  function assignRole(address account, uint256 roleId) external {... */\n    tag_20:\n        /* \"contracts/access/RoleAccess.sol\":999:1012  roles[roleId] */\n      0x00\n      dup2\n      dup2\n      mstore\n        /* \"contracts/access/RoleAccess.sol\":999:1004  roles */\n      0x02\n        /* \"contracts/access/RoleAccess.sol\":999:1012  roles[roleId] */\n      0x20\n      mstore\n      0x40\n      dup2\n      keccak256\n        /* \"contracts/access/RoleAccess.sol\":999:1019  roles[roleId].roleId */\n      sload\n        /* \"contracts/access/RoleAccess.sol\":999:1024  roles[roleId].roleId != 0 */\n      swap1\n      sub\n        /* \"contracts/access/RoleAccess.sol\":991:1044  require(roles[roleId].roleId != 0, \"Invalid role ID\") */\n      tag_59\n      jumpi\n      mload(0x40)\n      shl(0xe5, 0x461bcd)\n      dup2\n      mstore\n        /* \"#utility.yul\":4334:4336   */\n      0x20\n        /* \"contracts/access/RoleAccess.sol\":991:1044  require(roles[roleId].roleId != 0, \"Invalid role ID\") */\n      0x04\n      dup3\n      add\n        /* \"#utility.yul\":4316:4337   */\n      mstore\n        /* \"#utility.yul\":4373:4375   */\n      0x0f\n        /* \"#utility.yul\":4353:4371   */\n      0x24\n      dup3\n      add\n        /* \"#utility.yul\":4346:4376   */\n      mstore\n      shl(0x8a, 0x125b9d985b1a59081c9bdb19481251)\n        /* \"#utility.yul\":4392:4410   */\n      0x44\n      dup3\n      add\n        /* \"#utility.yul\":4385:4430   */\n      mstore\n        /* \"#utility.yul\":4447:4465   */\n      0x64\n      add\n        /* \"contracts/access/RoleAccess.sol\":991:1044  require(roles[roleId].roleId != 0, \"Invalid role ID\") */\n      tag_45\n        /* \"#utility.yul\":4132:4471   */\n      jump\n        /* \"contracts/access/RoleAccess.sol\":991:1044  require(roles[roleId].roleId != 0, \"Invalid role ID\") */\n    tag_59:\n        /* \"contracts/access/RoleAccess.sol\":1074:1087  roles[roleId] */\n      0x00\n      dup2\n      dup2\n      mstore\n        /* \"contracts/access/RoleAccess.sol\":1074:1079  roles */\n      0x02\n        /* \"contracts/access/RoleAccess.sol\":1074:1087  roles[roleId] */\n      0x20\n      swap1\n      dup2\n      mstore\n      0x40\n      dup1\n      dup4\n      keccak256\n      sub(shl(0xa0, 0x01), 0x01)\n        /* \"contracts/access/RoleAccess.sol\":1054:1071  userRole[account] */\n      dup7\n      and\n      dup5\n      mstore\n        /* \"contracts/access/RoleAccess.sol\":1054:1062  userRole */\n      0x01\n        /* \"contracts/access/RoleAccess.sol\":1054:1071  userRole[account] */\n      swap3\n      dup4\n      swap1\n      mstore\n      swap3\n      keccak256\n        /* \"contracts/access/RoleAccess.sol\":1054:1087  userRole[account] = roles[roleId] */\n      dup3\n      sload\n      dup2\n      sstore\n      dup2\n      dup4\n      add\n      sload\n      dup2\n      dup4\n      add\n      dup1\n      sload\n        /* \"contracts/access/RoleAccess.sol\":1054:1071  userRole[account] */\n      swap3\n      swap4\n        /* \"contracts/access/RoleAccess.sol\":1054:1087  userRole[account] = roles[roleId] */\n      0xff\n      swap1\n      swap3\n      and\n      swap3\n      swap1\n      swap2\n      not(0xff)\n      swap1\n      swap2\n      and\n      swap1\n      dup4\n      dup2\n      dup2\n      gt\n      iszero\n      tag_63\n      jumpi\n      tag_63\n      tag_49\n      jump\t// in\n    tag_63:\n      mul\n      or\n      swap1\n      sstore\n      pop\n      0x02\n      dup2\n      dup2\n      add\n      swap1\n      tag_64\n      swap1\n      dup5\n      add\n      dup3\n      tag_65\n      jump\t// in\n    tag_64:\n      pop\n      pop\n      pop\n        /* \"contracts/access/RoleAccess.sol\":1124:1137  roles[roleId] */\n      0x00\n      dup2\n      dup2\n      mstore\n        /* \"contracts/access/RoleAccess.sol\":1124:1129  roles */\n      0x02\n        /* \"contracts/access/RoleAccess.sol\":1124:1137  roles[roleId] */\n      0x20\n      dup2\n      swap1\n      mstore\n      0x40\n      swap2\n      dup3\n      swap1\n      keccak256\n        /* \"contracts/access/RoleAccess.sol\":1144:1162  roles[roleId].role */\n      0x01\n      dup2\n      add\n      sload\n        /* \"contracts/access/RoleAccess.sol\":1102:1163  RoleAssigned(account, roles[roleId].name, roles[roleId].role) */\n      swap3\n      mload\n      sub(shl(0xa0, 0x01), 0x01)\n      dup7\n      and\n      swap4\n      0x1b8f42edc9b7affbd109fc6a03d57fbec6495325facd626fac3dd8917a73e375\n      swap4\n      tag_66\n      swap4\n        /* \"contracts/access/RoleAccess.sol\":1124:1142  roles[roleId].name */\n      add\n      swap2\n        /* \"contracts/access/RoleAccess.sol\":1144:1162  roles[roleId].role */\n      0xff\n      swap1\n      swap2\n      and\n      swap1\n        /* \"contracts/access/RoleAccess.sol\":1102:1163  RoleAssigned(account, roles[roleId].name, roles[roleId].role) */\n      tag_67\n      jump\t// in\n    tag_66:\n      mload(0x40)\n      dup1\n      swap2\n      sub\n      swap1\n      log2\n        /* \"contracts/access/RoleAccess.sol\":919:1170  function assignRole(address account, uint256 roleId) external {... */\n      pop\n      pop\n      jump\t// out\n        /* \"contracts/access/RoleAccess.sol\":1634:1834  function revokeRole(address account) external  {... */\n    tag_23:\n      sub(shl(0xa0, 0x01), 0x01)\n        /* \"contracts/access/RoleAccess.sol\":1699:1716  userRole[account] */\n      dup2\n      and\n      0x00\n      swap1\n      dup2\n      mstore\n        /* \"contracts/access/RoleAccess.sol\":1699:1707  userRole */\n      0x01\n        /* \"contracts/access/RoleAccess.sol\":1699:1716  userRole[account] */\n      0x20\n      mstore\n      0x40\n      dup2\n      keccak256\n        /* \"contracts/access/RoleAccess.sol\":1699:1723  userRole[account].roleId */\n      sload\n        /* \"contracts/access/RoleAccess.sol\":1699:1728  userRole[account].roleId != 0 */\n      swap1\n      sub\n        /* \"contracts/access/RoleAccess.sol\":1691:1758  require(userRole[account].roleId != 0, \"User has no role assigned\") */\n      tag_69\n      jumpi\n      mload(0x40)\n      shl(0xe5, 0x461bcd)\n      dup2\n      mstore\n        /* \"#utility.yul\":3595:3597   */\n      0x20\n        /* \"contracts/access/RoleAccess.sol\":1691:1758  require(userRole[account].roleId != 0, \"User has no role assigned\") */\n      0x04\n      dup3\n      add\n        /* \"#utility.yul\":3577:3598   */\n      mstore\n        /* \"#utility.yul\":3634:3636   */\n      0x19\n        /* \"#utility.yul\":3614:3632   */\n      0x24\n      dup3\n      add\n        /* \"#utility.yul\":3607:3637   */\n      mstore\n      shl(0x3a, 0x155cd95c881a185cc81b9bc81c9bdb1948185cdcda59db9959)\n        /* \"#utility.yul\":3653:3671   */\n      0x44\n      dup3\n      add\n        /* \"#utility.yul\":3646:3701   */\n      mstore\n        /* \"#utility.yul\":3718:3736   */\n      0x64\n      add\n        /* \"contracts/access/RoleAccess.sol\":1691:1758  require(userRole[account].roleId != 0, \"User has no role assigned\") */\n      tag_45\n        /* \"#utility.yul\":3393:3742   */\n      jump\n        /* \"contracts/access/RoleAccess.sol\":1691:1758  require(userRole[account].roleId != 0, \"User has no role assigned\") */\n    tag_69:\n      sub(shl(0xa0, 0x01), 0x01)\n        /* \"contracts/access/RoleAccess.sol\":1775:1792  userRole[account] */\n      dup2\n      and\n      0x00\n      swap1\n      dup2\n      mstore\n        /* \"contracts/access/RoleAccess.sol\":1775:1783  userRole */\n      0x01\n        /* \"contracts/access/RoleAccess.sol\":1775:1792  userRole[account] */\n      0x20\n      dup2\n      swap1\n      mstore\n      0x40\n      dup3\n      keccak256\n        /* \"contracts/access/RoleAccess.sol\":1768:1792  delete userRole[account] */\n      dup3\n      dup2\n      sstore\n      swap1\n      dup2\n      add\n      dup1\n      sload\n      not(0xff)\n      and\n      swap1\n      sstore\n        /* \"contracts/access/RoleAccess.sol\":1775:1792  userRole[account] */\n      swap1\n        /* \"contracts/access/RoleAccess.sol\":1768:1792  delete userRole[account] */\n      tag_71\n      0x02\n      dup4\n      add\n        /* \"contracts/access/RoleAccess.sol\":1775:1792  userRole[account] */\n      dup3\n        /* \"contracts/access/RoleAccess.sol\":1768:1792  delete userRole[account] */\n      tag_72\n      jump\t// in\n    tag_71:\n      pop\n      pop\n        /* \"contracts/access/RoleAccess.sol\":1807:1827  RoleRevoked(account) */\n      mload(0x40)\n      sub(shl(0xa0, 0x01), 0x01)\n      dup3\n      and\n      swap1\n      0x6107a4a5447a4208ba14e3ec240bccf0a93828124ccf501af04601031070b183\n      swap1\n      0x00\n      swap1\n      log2\n        /* \"contracts/access/RoleAccess.sol\":1634:1834  function revokeRole(address account) external  {... */\n      pop\n      jump\t// out\n        /* \"contracts/access/RoleAccess.sol\":2425:2645  function hasRole(address account, RoleType roleType) external view returns (bool) {... */\n    tag_34:\n      sub(shl(0xa0, 0x01), 0x01)\n        /* \"contracts/access/RoleAccess.sol\":2520:2537  userRole[account] */\n      dup3\n      and\n        /* \"contracts/access/RoleAccess.sol\":2501:2505  bool */\n      0x00\n        /* \"contracts/access/RoleAccess.sol\":2520:2537  userRole[account] */\n      swap1\n      dup2\n      mstore\n        /* \"contracts/access/RoleAccess.sol\":2520:2528  userRole */\n      0x01\n        /* \"contracts/access/RoleAccess.sol\":2520:2537  userRole[account] */\n      0x20\n      mstore\n      0x40\n      dup2\n      keccak256\n        /* \"contracts/access/RoleAccess.sol\":2520:2544  userRole[account].roleId */\n      sload\n        /* \"contracts/access/RoleAccess.sol\":2520:2549  userRole[account].roleId == 0 */\n      dup2\n      sub\n        /* \"contracts/access/RoleAccess.sol\":2517:2587  if(userRole[account].roleId == 0){... */\n      tag_75\n      jumpi\n      pop\n        /* \"contracts/access/RoleAccess.sol\":2571:2576  false */\n      0x00\n        /* \"contracts/access/RoleAccess.sol\":2564:2576  return false */\n      jump(tag_74)\n        /* \"contracts/access/RoleAccess.sol\":2517:2587  if(userRole[account].roleId == 0){... */\n    tag_75:\n        /* \"contracts/access/RoleAccess.sol\":2630:2638  roleType */\n      dup2\n        /* \"contracts/access/RoleAccess.sol\":2604:2638  userRole[account].role == roleType */\n      0x01\n      dup2\n      gt\n      iszero\n      tag_77\n      jumpi\n      tag_77\n      tag_49\n      jump\t// in\n    tag_77:\n      sub(shl(0xa0, 0x01), 0x01)\n        /* \"contracts/access/RoleAccess.sol\":2604:2621  userRole[account] */\n      dup5\n      and\n      0x00\n      swap1\n      dup2\n      mstore\n        /* \"contracts/access/RoleAccess.sol\":2604:2612  userRole */\n      0x01\n        /* \"contracts/access/RoleAccess.sol\":2604:2621  userRole[account] */\n      0x20\n      dup2\n      swap1\n      mstore\n      0x40\n      swap1\n      swap2\n      keccak256\n        /* \"contracts/access/RoleAccess.sol\":2604:2626  userRole[account].role */\n      dup2\n      add\n      sload\n      0xff\n      and\n      swap1\n        /* \"contracts/access/RoleAccess.sol\":2604:2638  userRole[account].role == roleType */\n      dup2\n      gt\n      iszero\n      tag_79\n      jumpi\n      tag_79\n      tag_49\n      jump\t// in\n    tag_79:\n      eq\n        /* \"contracts/access/RoleAccess.sol\":2597:2638  return userRole[account].role == roleType */\n      swap1\n      pop\n        /* \"contracts/access/RoleAccess.sol\":2425:2645  function hasRole(address account, RoleType roleType) external view returns (bool) {... */\n    tag_74:\n      swap3\n      swap2\n      pop\n      pop\n      jump\t// out\n        /* \"contracts/access/RoleAccess.sol\":2102:2366  function getAllRoles() external view returns (Role[] memory) {... */\n    tag_38:\n        /* \"contracts/access/RoleAccess.sol\":2209:2217  arrRoles */\n      0x03\n        /* \"contracts/access/RoleAccess.sol\":2209:2224  arrRoles.length */\n      sload\n        /* \"contracts/access/RoleAccess.sol\":2148:2161  Role[] memory */\n      0x60\n      swap1\n        /* \"contracts/access/RoleAccess.sol\":2173:2195  Role[] memory allRoles */\n      0x00\n      swap1\n        /* \"contracts/access/RoleAccess.sol\":2198:2225  new Role[](arrRoles.length) */\n      0xffffffffffffffff\n      dup2\n      gt\n      iszero\n      tag_82\n      jumpi\n      tag_82\n      tag_83\n      jump\t// in\n    tag_82:\n      mload(0x40)\n      swap1\n      dup1\n      dup3\n      mstore\n      dup1\n      0x20\n      mul\n      0x20\n      add\n      dup3\n      add\n      0x40\n      mstore\n      dup1\n      iszero\n      tag_84\n      jumpi\n      dup2\n      0x20\n      add\n    tag_85:\n      0x40\n      dup1\n      mload\n      0x60\n      dup1\n      dup3\n      add\n      dup4\n      mstore\n      0x00\n      dup1\n      dup4\n      mstore\n      0x20\n      dup4\n      add\n      mstore\n      swap2\n      dup2\n      add\n      swap2\n      swap1\n      swap2\n      mstore\n      dup2\n      mstore\n      0x20\n      add\n      swap1\n      0x01\n      swap1\n      sub\n      swap1\n      dup2\n      tag_85\n      jumpi\n      swap1\n      pop\n    tag_84:\n      pop\n        /* \"contracts/access/RoleAccess.sol\":2173:2225  Role[] memory allRoles = new Role[](arrRoles.length) */\n      swap1\n      pop\n        /* \"contracts/access/RoleAccess.sol\":2240:2246  uint i */\n      0x00\n        /* \"contracts/access/RoleAccess.sol\":2235:2335  for (uint i = 0; i < arrRoles.length; i++) {... */\n    tag_87:\n        /* \"contracts/access/RoleAccess.sol\":2256:2264  arrRoles */\n      0x03\n        /* \"contracts/access/RoleAccess.sol\":2256:2271  arrRoles.length */\n      sload\n        /* \"contracts/access/RoleAccess.sol\":2252:2271  i < arrRoles.length */\n      dup2\n      lt\n        /* \"contracts/access/RoleAccess.sol\":2235:2335  for (uint i = 0; i < arrRoles.length; i++) {... */\n      iszero\n      tag_88\n      jumpi\n        /* \"contracts/access/RoleAccess.sol\":2306:2311  roles */\n      0x02\n        /* \"contracts/access/RoleAccess.sol\":2306:2324  roles[arrRoles[i]] */\n      0x00\n        /* \"contracts/access/RoleAccess.sol\":2312:2320  arrRoles */\n      0x03\n        /* \"contracts/access/RoleAccess.sol\":2321:2322  i */\n      dup4\n        /* \"contracts/access/RoleAccess.sol\":2312:2323  arrRoles[i] */\n      dup2\n      sload\n      dup2\n      lt\n      tag_91\n      jumpi\n      tag_91\n      tag_92\n      jump\t// in\n    tag_91:\n      swap1\n      0x00\n      mstore\n      keccak256(0x00, 0x20)\n      add\n      sload\n        /* \"contracts/access/RoleAccess.sol\":2306:2324  roles[arrRoles[i]] */\n      dup2\n      mstore\n      0x20\n      add\n      swap1\n      dup2\n      mstore\n      0x20\n      add\n      0x00\n      keccak256\n        /* \"contracts/access/RoleAccess.sol\":2292:2324  allRoles[i] = roles[arrRoles[i]] */\n      mload(0x40)\n      dup1\n      0x60\n      add\n      0x40\n      mstore\n      swap1\n      dup2\n      0x00\n      dup3\n      add\n      sload\n      dup2\n      mstore\n      0x20\n      add\n      0x01\n      dup3\n      add\n      0x00\n      swap1\n      sload\n      swap1\n      0x0100\n      exp\n      swap1\n      div\n      0xff\n      and\n      0x01\n      dup2\n      gt\n      iszero\n      tag_95\n      jumpi\n      tag_95\n      tag_49\n      jump\t// in\n    tag_95:\n      0x01\n      dup2\n      gt\n      iszero\n      tag_97\n      jumpi\n      tag_97\n      tag_49\n      jump\t// in\n    tag_97:\n      dup2\n      mstore\n      0x20\n      add\n      0x02\n      dup3\n      add\n      dup1\n      sload\n      tag_98\n      swap1\n      tag_53\n      jump\t// in\n    tag_98:\n      dup1\n      0x1f\n      add\n      0x20\n      dup1\n      swap2\n      div\n      mul\n      0x20\n      add\n      mload(0x40)\n      swap1\n      dup2\n      add\n      0x40\n      mstore\n      dup1\n      swap3\n      swap2\n      swap1\n      dup2\n      dup2\n      mstore\n      0x20\n      add\n      dup3\n      dup1\n      sload\n      tag_99\n      swap1\n      tag_53\n      jump\t// in\n    tag_99:\n      dup1\n      iszero\n      tag_100\n      jumpi\n      dup1\n      0x1f\n      lt\n      tag_101\n      jumpi\n      0x0100\n      dup1\n      dup4\n      sload\n      div\n      mul\n      dup4\n      mstore\n      swap2\n      0x20\n      add\n      swap2\n      jump(tag_100)\n    tag_101:\n      dup3\n      add\n      swap2\n      swap1\n      0x00\n      mstore\n      keccak256(0x00, 0x20)\n      swap1\n    tag_102:\n      dup2\n      sload\n      dup2\n      mstore\n      swap1\n      0x01\n      add\n      swap1\n      0x20\n      add\n      dup1\n      dup4\n      gt\n      tag_102\n      jumpi\n      dup3\n      swap1\n      sub\n      0x1f\n      and\n      dup3\n      add\n      swap2\n    tag_100:\n      pop\n      pop\n      pop\n      pop\n      pop\n      dup2\n      mstore\n      pop\n      pop\n        /* \"contracts/access/RoleAccess.sol\":2292:2300  allRoles */\n      dup3\n        /* \"contracts/access/RoleAccess.sol\":2301:2302  i */\n      dup3\n        /* \"contracts/access/RoleAccess.sol\":2292:2303  allRoles[i] */\n      dup2\n      mload\n      dup2\n      lt\n      tag_104\n      jumpi\n      tag_104\n      tag_92\n      jump\t// in\n    tag_104:\n      0x20\n      swap1\n      dup2\n      mul\n      swap2\n      swap1\n      swap2\n      add\n      add\n        /* \"contracts/access/RoleAccess.sol\":2292:2324  allRoles[i] = roles[arrRoles[i]] */\n      mstore\n        /* \"contracts/access/RoleAccess.sol\":2273:2276  i++ */\n      0x01\n      add\n        /* \"contracts/access/RoleAccess.sol\":2235:2335  for (uint i = 0; i < arrRoles.length; i++) {... */\n      jump(tag_87)\n    tag_88:\n      pop\n        /* \"contracts/access/RoleAccess.sol\":2351:2359  allRoles */\n      swap2\n        /* \"contracts/access/RoleAccess.sol\":2102:2366  function getAllRoles() external view returns (Role[] memory) {... */\n      swap1\n      pop\n      jump\t// out\n    tag_72:\n      pop\n      dup1\n      sload\n      tag_107\n      swap1\n      tag_53\n      jump\t// in\n    tag_107:\n      0x00\n      dup3\n      sstore\n      dup1\n      0x1f\n      lt\n      tag_109\n      jumpi\n      pop\n      pop\n      jump\t// out\n    tag_109:\n      0x1f\n      add\n      0x20\n      swap1\n      div\n      swap1\n      0x00\n      mstore\n      keccak256(0x00, 0x20)\n      swap1\n      dup2\n      add\n      swap1\n      tag_110\n      swap2\n      swap1\n      tag_111\n      jump\t// in\n    tag_110:\n      pop\n      jump\t// out\n    tag_111:\n    tag_112:\n      dup1\n      dup3\n      gt\n      iszero\n      tag_113\n      jumpi\n      0x00\n      dup2\n      sstore\n      0x01\n      add\n      jump(tag_112)\n    tag_113:\n      pop\n      swap1\n      jump\t// out\n        /* \"#utility.yul\":14:187   */\n    tag_114:\n        /* \"#utility.yul\":82:102   */\n      dup1\n      calldataload\n      sub(shl(0xa0, 0x01), 0x01)\n        /* \"#utility.yul\":131:162   */\n      dup2\n      and\n        /* \"#utility.yul\":121:163   */\n      dup2\n      eq\n        /* \"#utility.yul\":111:181   */\n      tag_122\n      jumpi\n        /* \"#utility.yul\":177:178   */\n      0x00\n        /* \"#utility.yul\":174:175   */\n      0x00\n        /* \"#utility.yul\":167:179   */\n      revert\n        /* \"#utility.yul\":111:181   */\n    tag_122:\n        /* \"#utility.yul\":14:187   */\n      swap2\n      swap1\n      pop\n      jump\t// out\n        /* \"#utility.yul\":192:378   */\n    tag_13:\n        /* \"#utility.yul\":251:257   */\n      0x00\n        /* \"#utility.yul\":304:306   */\n      0x20\n        /* \"#utility.yul\":292:301   */\n      dup3\n        /* \"#utility.yul\":283:290   */\n      dup5\n        /* \"#utility.yul\":279:302   */\n      sub\n        /* \"#utility.yul\":275:307   */\n      slt\n        /* \"#utility.yul\":272:324   */\n      iszero\n      tag_124\n      jumpi\n        /* \"#utility.yul\":320:321   */\n      0x00\n        /* \"#utility.yul\":317:318   */\n      0x00\n        /* \"#utility.yul\":310:322   */\n      revert\n        /* \"#utility.yul\":272:324   */\n    tag_124:\n        /* \"#utility.yul\":343:372   */\n      tag_125\n        /* \"#utility.yul\":362:371   */\n      dup3\n        /* \"#utility.yul\":343:372   */\n      tag_114\n      jump\t// in\n    tag_125:\n        /* \"#utility.yul\":333:372   */\n      swap4\n        /* \"#utility.yul\":192:378   */\n      swap3\n      pop\n      pop\n      pop\n      jump\t// out\n        /* \"#utility.yul\":383:510   */\n    tag_49:\n        /* \"#utility.yul\":444:454   */\n      0x4e487b71\n        /* \"#utility.yul\":439:442   */\n      0xe0\n        /* \"#utility.yul\":435:455   */\n      shl\n        /* \"#utility.yul\":432:433   */\n      0x00\n        /* \"#utility.yul\":425:456   */\n      mstore\n        /* \"#utility.yul\":475:479   */\n      0x21\n        /* \"#utility.yul\":472:473   */\n      0x04\n        /* \"#utility.yul\":465:480   */\n      mstore\n        /* \"#utility.yul\":499:503   */\n      0x24\n        /* \"#utility.yul\":496:497   */\n      0x00\n        /* \"#utility.yul\":489:504   */\n      revert\n        /* \"#utility.yul\":515:751   */\n    tag_115:\n        /* \"#utility.yul\":595:596   */\n      0x02\n        /* \"#utility.yul\":588:593   */\n      dup2\n        /* \"#utility.yul\":585:597   */\n      lt\n        /* \"#utility.yul\":575:718   */\n      tag_128\n      jumpi\n        /* \"#utility.yul\":640:650   */\n      0x4e487b71\n        /* \"#utility.yul\":635:638   */\n      0xe0\n        /* \"#utility.yul\":631:651   */\n      shl\n        /* \"#utility.yul\":628:629   */\n      0x00\n        /* \"#utility.yul\":621:652   */\n      mstore\n        /* \"#utility.yul\":675:679   */\n      0x21\n        /* \"#utility.yul\":672:673   */\n      0x04\n        /* \"#utility.yul\":665:680   */\n      mstore\n        /* \"#utility.yul\":703:707   */\n      0x24\n        /* \"#utility.yul\":700:701   */\n      0x00\n        /* \"#utility.yul\":693:708   */\n      revert\n        /* \"#utility.yul\":575:718   */\n    tag_128:\n        /* \"#utility.yul\":727:745   */\n      swap1\n      mstore\n        /* \"#utility.yul\":515:751   */\n      jump\t// out\n        /* \"#utility.yul\":756:1316   */\n    tag_116:\n        /* \"#utility.yul\":839:844   */\n      dup1\n        /* \"#utility.yul\":833:845   */\n      mload\n        /* \"#utility.yul\":828:831   */\n      dup3\n        /* \"#utility.yul\":821:846   */\n      mstore\n        /* \"#utility.yul\":803:806   */\n      0x00\n        /* \"#utility.yul\":892:896   */\n      0x20\n        /* \"#utility.yul\":885:890   */\n      dup3\n        /* \"#utility.yul\":881:897   */\n      add\n        /* \"#utility.yul\":875:898   */\n      mload\n        /* \"#utility.yul\":907:961   */\n      tag_130\n        /* \"#utility.yul\":955:959   */\n      0x20\n        /* \"#utility.yul\":950:953   */\n      dup6\n        /* \"#utility.yul\":946:960   */\n      add\n        /* \"#utility.yul\":932:944   */\n      dup3\n        /* \"#utility.yul\":907:961   */\n      tag_115\n      jump\t// in\n    tag_130:\n      pop\n        /* \"#utility.yul\":1009:1013   */\n      0x40\n        /* \"#utility.yul\":1002:1007   */\n      dup3\n        /* \"#utility.yul\":998:1014   */\n      add\n        /* \"#utility.yul\":992:1015   */\n      mload\n        /* \"#utility.yul\":1047:1051   */\n      0x60\n        /* \"#utility.yul\":1040:1044   */\n      0x40\n        /* \"#utility.yul\":1035:1038   */\n      dup6\n        /* \"#utility.yul\":1031:1045   */\n      add\n        /* \"#utility.yul\":1024:1052   */\n      mstore\n        /* \"#utility.yul\":1081:1095   */\n      dup1\n        /* \"#utility.yul\":1075:1096   */\n      mload\n        /* \"#utility.yul\":1128:1134   */\n      dup1\n        /* \"#utility.yul\":1121:1125   */\n      0x60\n        /* \"#utility.yul\":1116:1119   */\n      dup7\n        /* \"#utility.yul\":1112:1126   */\n      add\n        /* \"#utility.yul\":1105:1135   */\n      mstore\n        /* \"#utility.yul\":1192:1198   */\n      dup1\n        /* \"#utility.yul\":1185:1189   */\n      0x20\n        /* \"#utility.yul\":1169:1183   */\n      dup4\n        /* \"#utility.yul\":1165:1190   */\n      add\n        /* \"#utility.yul\":1159:1162   */\n      0x80\n        /* \"#utility.yul\":1154:1157   */\n      dup8\n        /* \"#utility.yul\":1150:1163   */\n      add\n        /* \"#utility.yul\":1144:1199   */\n      mcopy\n        /* \"#utility.yul\":1243:1244   */\n      0x00\n        /* \"#utility.yul\":1237:1240   */\n      0x80\n        /* \"#utility.yul\":1228:1234   */\n      dup3\n        /* \"#utility.yul\":1223:1226   */\n      dup8\n        /* \"#utility.yul\":1219:1235   */\n      add\n        /* \"#utility.yul\":1215:1241   */\n      add\n        /* \"#utility.yul\":1208:1245   */\n      mstore\n        /* \"#utility.yul\":1306:1309   */\n      0x80\n        /* \"#utility.yul\":1299:1301   */\n      0x1f\n        /* \"#utility.yul\":1295:1302   */\n      not\n        /* \"#utility.yul\":1290:1292   */\n      0x1f\n        /* \"#utility.yul\":1282:1288   */\n      dup4\n        /* \"#utility.yul\":1278:1293   */\n      add\n        /* \"#utility.yul\":1274:1303   */\n      and\n        /* \"#utility.yul\":1269:1272   */\n      dup7\n        /* \"#utility.yul\":1265:1304   */\n      add\n        /* \"#utility.yul\":1261:1310   */\n      add\n        /* \"#utility.yul\":1254:1310   */\n      swap3\n      pop\n      pop\n      pop\n        /* \"#utility.yul\":756:1316   */\n      swap3\n      swap2\n      pop\n      pop\n      jump\t// out\n        /* \"#utility.yul\":1321:1568   */\n    tag_16:\n        /* \"#utility.yul\":1492:1494   */\n      0x20\n        /* \"#utility.yul\":1481:1490   */\n      dup2\n        /* \"#utility.yul\":1474:1495   */\n      mstore\n        /* \"#utility.yul\":1455:1459   */\n      0x00\n        /* \"#utility.yul\":1512:1562   */\n      tag_125\n        /* \"#utility.yul\":1558:1560   */\n      0x20\n        /* \"#utility.yul\":1547:1556   */\n      dup4\n        /* \"#utility.yul\":1543:1561   */\n      add\n        /* \"#utility.yul\":1535:1541   */\n      dup5\n        /* \"#utility.yul\":1512:1562   */\n      tag_116\n      jump\t// in\n        /* \"#utility.yul\":1573:1827   */\n    tag_19:\n        /* \"#utility.yul\":1641:1647   */\n      0x00\n        /* \"#utility.yul\":1649:1655   */\n      0x00\n        /* \"#utility.yul\":1702:1704   */\n      0x40\n        /* \"#utility.yul\":1690:1699   */\n      dup4\n        /* \"#utility.yul\":1681:1688   */\n      dup6\n        /* \"#utility.yul\":1677:1700   */\n      sub\n        /* \"#utility.yul\":1673:1705   */\n      slt\n        /* \"#utility.yul\":1670:1722   */\n      iszero\n      tag_134\n      jumpi\n        /* \"#utility.yul\":1718:1719   */\n      0x00\n        /* \"#utility.yul\":1715:1716   */\n      0x00\n        /* \"#utility.yul\":1708:1720   */\n      revert\n        /* \"#utility.yul\":1670:1722   */\n    tag_134:\n        /* \"#utility.yul\":1741:1770   */\n      tag_135\n        /* \"#utility.yul\":1760:1769   */\n      dup4\n        /* \"#utility.yul\":1741:1770   */\n      tag_114\n      jump\t// in\n    tag_135:\n        /* \"#utility.yul\":1731:1770   */\n      swap5\n        /* \"#utility.yul\":1817:1819   */\n      0x20\n        /* \"#utility.yul\":1802:1820   */\n      swap4\n      swap1\n      swap4\n      add\n        /* \"#utility.yul\":1789:1821   */\n      calldataload\n      swap4\n      pop\n      pop\n      pop\n        /* \"#utility.yul\":1573:1827   */\n      jump\t// out\n        /* \"#utility.yul\":2040:2382   */\n    tag_33:\n        /* \"#utility.yul\":2120:2126   */\n      0x00\n        /* \"#utility.yul\":2128:2134   */\n      0x00\n        /* \"#utility.yul\":2181:2183   */\n      0x40\n        /* \"#utility.yul\":2169:2178   */\n      dup4\n        /* \"#utility.yul\":2160:2167   */\n      dup6\n        /* \"#utility.yul\":2156:2179   */\n      sub\n        /* \"#utility.yul\":2152:2184   */\n      slt\n        /* \"#utility.yul\":2149:2201   */\n      iszero\n      tag_138\n      jumpi\n        /* \"#utility.yul\":2197:2198   */\n      0x00\n        /* \"#utility.yul\":2194:2195   */\n      0x00\n        /* \"#utility.yul\":2187:2199   */\n      revert\n        /* \"#utility.yul\":2149:2201   */\n    tag_138:\n        /* \"#utility.yul\":2220:2249   */\n      tag_139\n        /* \"#utility.yul\":2239:2248   */\n      dup4\n        /* \"#utility.yul\":2220:2249   */\n      tag_114\n      jump\t// in\n    tag_139:\n        /* \"#utility.yul\":2210:2249   */\n      swap2\n      pop\n        /* \"#utility.yul\":2299:2301   */\n      0x20\n        /* \"#utility.yul\":2288:2297   */\n      dup4\n        /* \"#utility.yul\":2284:2302   */\n      add\n        /* \"#utility.yul\":2271:2303   */\n      calldataload\n        /* \"#utility.yul\":2332:2333   */\n      0x02\n        /* \"#utility.yul\":2325:2330   */\n      dup2\n        /* \"#utility.yul\":2322:2334   */\n      lt\n        /* \"#utility.yul\":2312:2352   */\n      tag_140\n      jumpi\n        /* \"#utility.yul\":2348:2349   */\n      0x00\n        /* \"#utility.yul\":2345:2346   */\n      0x00\n        /* \"#utility.yul\":2338:2350   */\n      revert\n        /* \"#utility.yul\":2312:2352   */\n    tag_140:\n        /* \"#utility.yul\":2371:2376   */\n      dup1\n        /* \"#utility.yul\":2361:2376   */\n      swap2\n      pop\n      pop\n        /* \"#utility.yul\":2040:2382   */\n      swap3\n      pop\n      swap3\n      swap1\n      pop\n      jump\t// out\n        /* \"#utility.yul\":2579:3388   */\n    tag_40:\n        /* \"#utility.yul\":2763:2767   */\n      0x00\n        /* \"#utility.yul\":2811:2813   */\n      0x20\n        /* \"#utility.yul\":2800:2809   */\n      dup3\n        /* \"#utility.yul\":2796:2814   */\n      add\n        /* \"#utility.yul\":2841:2843   */\n      0x20\n        /* \"#utility.yul\":2830:2839   */\n      dup4\n        /* \"#utility.yul\":2823:2844   */\n      mstore\n        /* \"#utility.yul\":2864:2870   */\n      dup1\n        /* \"#utility.yul\":2899:2905   */\n      dup5\n        /* \"#utility.yul\":2893:2906   */\n      mload\n        /* \"#utility.yul\":2930:2936   */\n      dup1\n        /* \"#utility.yul\":2922:2928   */\n      dup4\n        /* \"#utility.yul\":2915:2937   */\n      mstore\n        /* \"#utility.yul\":2968:2970   */\n      0x40\n        /* \"#utility.yul\":2957:2966   */\n      dup6\n        /* \"#utility.yul\":2953:2971   */\n      add\n        /* \"#utility.yul\":2946:2971   */\n      swap2\n      pop\n        /* \"#utility.yul\":3030:3032   */\n      0x40\n        /* \"#utility.yul\":3020:3026   */\n      dup2\n        /* \"#utility.yul\":3017:3018   */\n      0x05\n        /* \"#utility.yul\":3013:3027   */\n      shl\n        /* \"#utility.yul\":3002:3011   */\n      dup7\n        /* \"#utility.yul\":2998:3028   */\n      add\n        /* \"#utility.yul\":2994:3033   */\n      add\n        /* \"#utility.yul\":2980:3033   */\n      swap3\n      pop\n        /* \"#utility.yul\":3068:3070   */\n      0x20\n        /* \"#utility.yul\":3060:3066   */\n      dup7\n        /* \"#utility.yul\":3056:3071   */\n      add\n        /* \"#utility.yul\":3089:3090   */\n      0x00\n        /* \"#utility.yul\":3099:3359   */\n    tag_143:\n        /* \"#utility.yul\":3113:3119   */\n      dup3\n        /* \"#utility.yul\":3110:3111   */\n      dup2\n        /* \"#utility.yul\":3107:3120   */\n      lt\n        /* \"#utility.yul\":3099:3359   */\n      iszero\n      tag_145\n      jumpi\n        /* \"#utility.yul\":3206:3208   */\n      0x3f\n        /* \"#utility.yul\":3202:3209   */\n      not\n        /* \"#utility.yul\":3190:3199   */\n      dup8\n        /* \"#utility.yul\":3182:3188   */\n      dup7\n        /* \"#utility.yul\":3178:3200   */\n      sub\n        /* \"#utility.yul\":3174:3210   */\n      add\n        /* \"#utility.yul\":3169:3172   */\n      dup5\n        /* \"#utility.yul\":3162:3211   */\n      mstore\n        /* \"#utility.yul\":3234:3279   */\n      tag_146\n        /* \"#utility.yul\":3272:3278   */\n      dup6\n        /* \"#utility.yul\":3263:3269   */\n      dup4\n        /* \"#utility.yul\":3257:3270   */\n      mload\n        /* \"#utility.yul\":3234:3279   */\n      tag_116\n      jump\t// in\n    tag_146:\n        /* \"#utility.yul\":3224:3279   */\n      swap5\n      pop\n        /* \"#utility.yul\":3314:3316   */\n      0x20\n        /* \"#utility.yul\":3337:3349   */\n      swap4\n      dup5\n      add\n      swap4\n        /* \"#utility.yul\":3302:3317   */\n      swap2\n      swap1\n      swap2\n      add\n      swap1\n        /* \"#utility.yul\":3135:3136   */\n      0x01\n        /* \"#utility.yul\":3128:3137   */\n      add\n        /* \"#utility.yul\":3099:3359   */\n      jump(tag_143)\n    tag_145:\n      pop\n        /* \"#utility.yul\":3376:3382   */\n      swap3\n      swap7\n        /* \"#utility.yul\":2579:3388   */\n      swap6\n      pop\n      pop\n      pop\n      pop\n      pop\n      pop\n      jump\t// out\n        /* \"#utility.yul\":3747:4127   */\n    tag_53:\n        /* \"#utility.yul\":3826:3827   */\n      0x01\n        /* \"#utility.yul\":3822:3834   */\n      dup2\n      dup2\n      shr\n      swap1\n        /* \"#utility.yul\":3869:3881   */\n      dup3\n      and\n      dup1\n        /* \"#utility.yul\":3890:3951   */\n      tag_149\n      jumpi\n        /* \"#utility.yul\":3944:3948   */\n      0x7f\n        /* \"#utility.yul\":3936:3942   */\n      dup3\n        /* \"#utility.yul\":3932:3949   */\n      and\n        /* \"#utility.yul\":3922:3949   */\n      swap2\n      pop\n        /* \"#utility.yul\":3890:3951   */\n    tag_149:\n        /* \"#utility.yul\":3997:3999   */\n      0x20\n        /* \"#utility.yul\":3989:3995   */\n      dup3\n        /* \"#utility.yul\":3986:4000   */\n      lt\n        /* \"#utility.yul\":3966:3984   */\n      dup2\n        /* \"#utility.yul\":3963:4001   */\n      sub\n        /* \"#utility.yul\":3960:4121   */\n      tag_88\n      jumpi\n        /* \"#utility.yul\":4043:4053   */\n      0x4e487b71\n        /* \"#utility.yul\":4038:4041   */\n      0xe0\n        /* \"#utility.yul\":4034:4054   */\n      shl\n        /* \"#utility.yul\":4031:4032   */\n      0x00\n        /* \"#utility.yul\":4024:4055   */\n      mstore\n        /* \"#utility.yul\":4078:4082   */\n      0x22\n        /* \"#utility.yul\":4075:4076   */\n      0x04\n        /* \"#utility.yul\":4068:4083   */\n      mstore\n        /* \"#utility.yul\":4106:4110   */\n      0x24\n        /* \"#utility.yul\":4103:4104   */\n      0x00\n        /* \"#utility.yul\":4096:4111   */\n      revert\n        /* \"#utility.yul\":4476:4603   */\n    tag_83:\n        /* \"#utility.yul\":4537:4547   */\n      0x4e487b71\n        /* \"#utility.yul\":4532:4535   */\n      0xe0\n        /* \"#utility.yul\":4528:4548   */\n      shl\n        /* \"#utility.yul\":4525:4526   */\n      0x00\n        /* \"#utility.yul\":4518:4549   */\n      mstore\n        /* \"#utility.yul\":4568:4572   */\n      0x41\n        /* \"#utility.yul\":4565:4566   */\n      0x04\n        /* \"#utility.yul\":4558:4573   */\n      mstore\n        /* \"#utility.yul\":4592:4596   */\n      0x24\n        /* \"#utility.yul\":4589:4590   */\n      0x00\n        /* \"#utility.yul\":4582:4597   */\n      revert\n        /* \"#utility.yul\":4734:5252   */\n    tag_118:\n        /* \"#utility.yul\":4836:4838   */\n      0x1f\n        /* \"#utility.yul\":4831:4834   */\n      dup3\n        /* \"#utility.yul\":4828:4839   */\n      gt\n        /* \"#utility.yul\":4825:5246   */\n      iszero\n      tag_155\n      jumpi\n        /* \"#utility.yul\":4872:4877   */\n      dup1\n        /* \"#utility.yul\":4869:4870   */\n      0x00\n        /* \"#utility.yul\":4862:4878   */\n      mstore\n        /* \"#utility.yul\":4916:4920   */\n      0x20\n        /* \"#utility.yul\":4913:4914   */\n      0x00\n        /* \"#utility.yul\":4903:4921   */\n      keccak256\n        /* \"#utility.yul\":4986:4988   */\n      0x1f\n        /* \"#utility.yul\":4974:4984   */\n      dup5\n        /* \"#utility.yul\":4970:4989   */\n      add\n        /* \"#utility.yul\":4967:4968   */\n      0x05\n        /* \"#utility.yul\":4963:4990   */\n      shr\n        /* \"#utility.yul\":4957:4961   */\n      dup2\n        /* \"#utility.yul\":4953:4991   */\n      add\n        /* \"#utility.yul\":5022:5026   */\n      0x20\n        /* \"#utility.yul\":5010:5020   */\n      dup6\n        /* \"#utility.yul\":5007:5027   */\n      lt\n        /* \"#utility.yul\":5004:5051   */\n      iszero\n      tag_156\n      jumpi\n      pop\n        /* \"#utility.yul\":5045:5049   */\n      dup1\n        /* \"#utility.yul\":5004:5051   */\n    tag_156:\n        /* \"#utility.yul\":5100:5102   */\n      0x1f\n        /* \"#utility.yul\":5095:5098   */\n      dup5\n        /* \"#utility.yul\":5091:5103   */\n      add\n        /* \"#utility.yul\":5088:5089   */\n      0x05\n        /* \"#utility.yul\":5084:5104   */\n      shr\n        /* \"#utility.yul\":5078:5082   */\n      dup3\n        /* \"#utility.yul\":5074:5105   */\n      add\n        /* \"#utility.yul\":5064:5105   */\n      swap2\n      pop\n        /* \"#utility.yul\":5155:5236   */\n    tag_157:\n        /* \"#utility.yul\":5173:5175   */\n      dup2\n        /* \"#utility.yul\":5166:5171   */\n      dup2\n        /* \"#utility.yul\":5163:5176   */\n      lt\n        /* \"#utility.yul\":5155:5236   */\n      iszero\n      tag_159\n      jumpi\n        /* \"#utility.yul\":5232:5233   */\n      0x00\n        /* \"#utility.yul\":5218:5234   */\n      dup2\n      sstore\n        /* \"#utility.yul\":5199:5200   */\n      0x01\n        /* \"#utility.yul\":5188:5201   */\n      add\n        /* \"#utility.yul\":5155:5236   */\n      jump(tag_157)\n    tag_159:\n        /* \"#utility.yul\":5159:5162   */\n      pop\n      pop\n        /* \"#utility.yul\":4825:5246   */\n    tag_155:\n        /* \"#utility.yul\":4734:5252   */\n      pop\n      pop\n      pop\n      jump\t// out\n        /* \"#utility.yul\":5428:6821   */\n    tag_65:\n        /* \"#utility.yul\":5543:5546   */\n      dup2\n        /* \"#utility.yul\":5537:5541   */\n      dup2\n        /* \"#utility.yul\":5534:5547   */\n      sub\n        /* \"#utility.yul\":5531:5557   */\n      tag_162\n      jumpi\n        /* \"#utility.yul\":5550:5555   */\n      pop\n      pop\n        /* \"#utility.yul\":5428:6821   */\n      jump\t// out\n        /* \"#utility.yul\":5531:5557   */\n    tag_162:\n        /* \"#utility.yul\":5580:5617   */\n      tag_163\n        /* \"#utility.yul\":5612:5615   */\n      dup3\n        /* \"#utility.yul\":5606:5616   */\n      sload\n        /* \"#utility.yul\":5580:5617   */\n      tag_53\n      jump\t// in\n    tag_163:\n        /* \"#utility.yul\":5640:5658   */\n      0xffffffffffffffff\n        /* \"#utility.yul\":5632:5638   */\n      dup2\n        /* \"#utility.yul\":5629:5659   */\n      gt\n        /* \"#utility.yul\":5626:5682   */\n      iszero\n      tag_165\n      jumpi\n        /* \"#utility.yul\":5662:5680   */\n      tag_165\n      tag_83\n      jump\t// in\n    tag_165:\n        /* \"#utility.yul\":5691:5788   */\n      tag_166\n        /* \"#utility.yul\":5781:5787   */\n      dup2\n        /* \"#utility.yul\":5741:5779   */\n      tag_167\n        /* \"#utility.yul\":5773:5777   */\n      dup5\n        /* \"#utility.yul\":5767:5778   */\n      sload\n        /* \"#utility.yul\":5741:5779   */\n      tag_53\n      jump\t// in\n    tag_167:\n        /* \"#utility.yul\":5735:5739   */\n      dup5\n        /* \"#utility.yul\":5691:5788   */\n      tag_118\n      jump\t// in\n    tag_166:\n        /* \"#utility.yul\":5814:5815   */\n      0x00\n        /* \"#utility.yul\":5842:5844   */\n      0x1f\n        /* \"#utility.yul\":5834:5840   */\n      dup3\n        /* \"#utility.yul\":5831:5845   */\n      gt\n        /* \"#utility.yul\":5859:5860   */\n      0x01\n        /* \"#utility.yul\":5854:6564   */\n      dup2\n      eq\n      tag_169\n      jumpi\n        /* \"#utility.yul\":6608:6609   */\n      0x00\n        /* \"#utility.yul\":6625:6631   */\n      dup4\n        /* \"#utility.yul\":6622:6711   */\n      iszero\n      tag_170\n      jumpi\n      pop\n        /* \"#utility.yul\":6677:6696   */\n      dup5\n      dup3\n      add\n        /* \"#utility.yul\":6671:6697   */\n      sload\n        /* \"#utility.yul\":6622:6711   */\n    tag_170:\n      not(0x00)\n        /* \"#utility.yul\":5385:5386   */\n      0x03\n        /* \"#utility.yul\":5381:5392   */\n      dup6\n      swap1\n      shl\n        /* \"#utility.yul\":5377:5401   */\n      shr\n        /* \"#utility.yul\":5373:5402   */\n      not\n        /* \"#utility.yul\":5363:5403   */\n      and\n        /* \"#utility.yul\":5409:5410   */\n      0x01\n        /* \"#utility.yul\":5405:5416   */\n      dup5\n      swap1\n      shl\n        /* \"#utility.yul\":5360:5417   */\n      or\n        /* \"#utility.yul\":6724:6805   */\n      dup5\n      sstore\n        /* \"#utility.yul\":5824:6815   */\n      jump(tag_159)\n        /* \"#utility.yul\":5854:6564   */\n    tag_169:\n        /* \"#utility.yul\":4681:4682   */\n      0x00\n        /* \"#utility.yul\":4674:4688   */\n      dup6\n      dup2\n      mstore\n        /* \"#utility.yul\":4718:4722   */\n      0x20\n        /* \"#utility.yul\":4705:4723   */\n      dup1\n      dup3\n      keccak256\n        /* \"#utility.yul\":4674:4688   */\n      dup7\n      dup4\n      mstore\n        /* \"#utility.yul\":4705:4723   */\n      swap1\n      dup3\n      keccak256\n      not(0x1f)\n        /* \"#utility.yul\":5890:5910   */\n      dup7\n      and\n      swap3\n        /* \"#utility.yul\":6068:6289   */\n    tag_174:\n        /* \"#utility.yul\":6082:6089   */\n      dup4\n        /* \"#utility.yul\":6079:6080   */\n      dup2\n        /* \"#utility.yul\":6076:6090   */\n      lt\n        /* \"#utility.yul\":6068:6289   */\n      iszero\n      tag_176\n      jumpi\n        /* \"#utility.yul\":6164:6185   */\n      dup3\n      dup7\n      add\n        /* \"#utility.yul\":6158:6186   */\n      sload\n        /* \"#utility.yul\":6143:6187   */\n      dup3\n      sstore\n        /* \"#utility.yul\":6226:6227   */\n      0x01\n        /* \"#utility.yul\":6258:6275   */\n      swap6\n      dup7\n      add\n      swap6\n        /* \"#utility.yul\":6214:6228   */\n      swap1\n      swap2\n      add\n      swap1\n        /* \"#utility.yul\":6105:6109   */\n      0x20\n        /* \"#utility.yul\":6098:6110   */\n      add\n        /* \"#utility.yul\":6068:6289   */\n      jump(tag_174)\n    tag_176:\n        /* \"#utility.yul\":6072:6075   */\n      pop\n        /* \"#utility.yul\":6317:6323   */\n      dup6\n        /* \"#utility.yul\":6308:6315   */\n      dup4\n        /* \"#utility.yul\":6305:6324   */\n      lt\n        /* \"#utility.yul\":6302:6505   */\n      iszero\n      tag_177\n      jumpi\n        /* \"#utility.yul\":6378:6399   */\n      dup2\n      dup6\n      add\n        /* \"#utility.yul\":6372:6400   */\n      sload\n      not(0x00)\n        /* \"#utility.yul\":6463:6464   */\n      0x03\n        /* \"#utility.yul\":6459:6473   */\n      dup9\n      swap1\n      shl\n        /* \"#utility.yul\":6475:6478   */\n      0xf8\n        /* \"#utility.yul\":6455:6479   */\n      and\n        /* \"#utility.yul\":6451:6488   */\n      shr\n        /* \"#utility.yul\":6447:6489   */\n      not\n        /* \"#utility.yul\":6432:6490   */\n      and\n        /* \"#utility.yul\":6417:6491   */\n      dup2\n      sstore\n        /* \"#utility.yul\":6302:6505   */\n    tag_177:\n      pop\n      pop\n      pop\n      pop\n      pop\n        /* \"#utility.yul\":6551:6552   */\n      0x01\n        /* \"#utility.yul\":6535:6549   */\n      swap1\n      dup2\n      shl\n        /* \"#utility.yul\":6531:6553   */\n      add\n        /* \"#utility.yul\":6518:6554   */\n      swap1\n      sstore\n      pop\n        /* \"#utility.yul\":5428:6821   */\n      jump\t// out\n        /* \"#utility.yul\":6826:7830   */\n    tag_67:\n        /* \"#utility.yul\":7010:7012   */\n      0x40\n        /* \"#utility.yul\":6999:7008   */\n      dup2\n        /* \"#utility.yul\":6992:7013   */\n      mstore\n        /* \"#utility.yul\":6973:6977   */\n      0x00\n        /* \"#utility.yul\":7033:7034   */\n      0x00\n        /* \"#utility.yul\":7066:7072   */\n      dup5\n        /* \"#utility.yul\":7060:7073   */\n      sload\n        /* \"#utility.yul\":7096:7132   */\n      tag_179\n        /* \"#utility.yul\":7122:7131   */\n      dup2\n        /* \"#utility.yul\":7096:7132   */\n      tag_53\n      jump\t// in\n    tag_179:\n        /* \"#utility.yul\":7168:7174   */\n      dup1\n        /* \"#utility.yul\":7163:7165   */\n      0x40\n        /* \"#utility.yul\":7152:7161   */\n      dup7\n        /* \"#utility.yul\":7148:7166   */\n      add\n        /* \"#utility.yul\":7141:7175   */\n      mstore\n        /* \"#utility.yul\":7206:7207   */\n      0x01\n        /* \"#utility.yul\":7195:7204   */\n      dup3\n        /* \"#utility.yul\":7191:7208   */\n      and\n        /* \"#utility.yul\":7222:7223   */\n      0x00\n        /* \"#utility.yul\":7217:7375   */\n      dup2\n      eq\n      tag_181\n      jumpi\n        /* \"#utility.yul\":7389:7390   */\n      0x01\n        /* \"#utility.yul\":7384:7741   */\n      dup2\n      eq\n      tag_182\n      jumpi\n        /* \"#utility.yul\":7184:7741   */\n      jump(tag_180)\n        /* \"#utility.yul\":7217:7375   */\n    tag_181:\n        /* \"#utility.yul\":7284:7287   */\n      0xff\n        /* \"#utility.yul\":7280:7288   */\n      not\n        /* \"#utility.yul\":7269:7278   */\n      dup4\n        /* \"#utility.yul\":7265:7289   */\n      and\n        /* \"#utility.yul\":7260:7262   */\n      0x60\n        /* \"#utility.yul\":7249:7258   */\n      dup8\n        /* \"#utility.yul\":7245:7263   */\n      add\n        /* \"#utility.yul\":7238:7290   */\n      mstore\n        /* \"#utility.yul\":7362:7364   */\n      0x60\n        /* \"#utility.yul\":7350:7356   */\n      dup3\n        /* \"#utility.yul\":7343:7357   */\n      iszero\n        /* \"#utility.yul\":7336:7358   */\n      iszero\n        /* \"#utility.yul\":7333:7334   */\n      0x05\n        /* \"#utility.yul\":7329:7359   */\n      shl\n        /* \"#utility.yul\":7318:7327   */\n      dup8\n        /* \"#utility.yul\":7314:7360   */\n      add\n        /* \"#utility.yul\":7310:7365   */\n      add\n        /* \"#utility.yul\":7303:7365   */\n      swap4\n      pop\n        /* \"#utility.yul\":7217:7375   */\n      jump(tag_180)\n        /* \"#utility.yul\":7384:7741   */\n    tag_182:\n        /* \"#utility.yul\":7415:7421   */\n      dup8\n        /* \"#utility.yul\":7412:7413   */\n      0x00\n        /* \"#utility.yul\":7405:7422   */\n      mstore\n        /* \"#utility.yul\":7463:7467   */\n      0x20\n        /* \"#utility.yul\":7460:7461   */\n      0x00\n        /* \"#utility.yul\":7450:7468   */\n      keccak256\n        /* \"#utility.yul\":7490:7491   */\n      0x00\n        /* \"#utility.yul\":7504:7685   */\n    tag_183:\n        /* \"#utility.yul\":7518:7524   */\n      dup4\n        /* \"#utility.yul\":7515:7516   */\n      dup2\n        /* \"#utility.yul\":7512:7525   */\n      lt\n        /* \"#utility.yul\":7504:7685   */\n      iszero\n      tag_185\n      jumpi\n        /* \"#utility.yul\":7613:7627   */\n      dup2\n      sload\n        /* \"#utility.yul\":7589:7606   */\n      dup9\n      dup3\n      add\n        /* \"#utility.yul\":7608:7610   */\n      0x60\n        /* \"#utility.yul\":7585:7611   */\n      add\n        /* \"#utility.yul\":7578:7628   */\n      mstore\n        /* \"#utility.yul\":7669:7670   */\n      0x01\n        /* \"#utility.yul\":7656:7671   */\n      swap1\n      swap2\n      add\n      swap1\n        /* \"#utility.yul\":7540:7544   */\n      0x20\n        /* \"#utility.yul\":7533:7545   */\n      add\n        /* \"#utility.yul\":7504:7685   */\n      jump(tag_183)\n    tag_185:\n        /* \"#utility.yul\":7709:7726   */\n      dup8\n      add\n        /* \"#utility.yul\":7728:7730   */\n      0x60\n        /* \"#utility.yul\":7705:7731   */\n      add\n      swap5\n      pop\n      pop\n        /* \"#utility.yul\":7184:7741   */\n    tag_180:\n      pop\n      pop\n      pop\n        /* \"#utility.yul\":7758:7761   */\n      dup1\n        /* \"#utility.yul\":7750:7761   */\n      swap2\n      pop\n      pop\n        /* \"#utility.yul\":7770:7824   */\n      tag_125\n        /* \"#utility.yul\":7818:7822   */\n      0x20\n        /* \"#utility.yul\":7807:7816   */\n      dup4\n        /* \"#utility.yul\":7803:7823   */\n      add\n        /* \"#utility.yul\":7795:7801   */\n      dup5\n        /* \"#utility.yul\":7770:7824   */\n      tag_115\n      jump\t// in\n        /* \"#utility.yul\":7835:7962   */\n    tag_92:\n        /* \"#utility.yul\":7896:7906   */\n      0x4e487b71\n        /* \"#utility.yul\":7891:7894   */\n      0xe0\n        /* \"#utility.yul\":7887:7907   */\n      shl\n        /* \"#utility.yul\":7884:7885   */\n      0x00\n        /* \"#utility.yul\":7877:7908   */\n      mstore\n        /* \"#utility.yul\":7927:7931   */\n      0x32\n        /* \"#utility.yul\":7924:7925   */\n      0x04\n        /* \"#utility.yul\":7917:7932   */\n      mstore\n        /* \"#utility.yul\":7951:7955   */\n      0x24\n        /* \"#utility.yul\":7948:7949   */\n      0x00\n        /* \"#utility.yul\":7941:7956   */\n      revert\n\n    auxdata: 0xa2646970667358221220fddb92835d130fe445af15bd110e53e7d96ec2bac088127f5b867a493a03001264736f6c634300081e0033\n}\n",
				"bytecode": {
					"linkReferences": {},
					"object": "608060405234801561000f575f5ffd5b505f80546001600160a01b03191633178155604080516060810190915260018152906020820190815260408051808201909152600d81526c20b236b4b734b9ba3930ba37b960991b6020828101919091529182015260015f8190526002825282517fe90b7bceb6e7df5418fb78d8ee546e97c83a08bbccc01a0644d599ccd2a7c2e0908155918301517fe90b7bceb6e7df5418fb78d8ee546e97c83a08bbccc01a0644d599ccd2a7c2e180549192909160ff19169083818111156100d5576100d56101f6565b0217905550604082015160028201906100ee90826102a2565b50506003805460018082019092555f516020610e525f395f51905f5201819055604080516060810182526002808252602080830185815284518086018652600581526429ba30b33360d91b81840152948401949094525f8290525280517f679795a0195a1b76cdebb7c51d74e058aee92919b8c3389af86ef24535e8a28c90815591517f679795a0195a1b76cdebb7c51d74e058aee92919b8c3389af86ef24535e8a28d8054929550929390929160ff19169083818111156101b2576101b26101f6565b0217905550604082015160028201906101cb90826102a2565b5050600380546001810182555f9190915260025f516020610e525f395f51905f52909101555061035c565b634e487b7160e01b5f52602160045260245ffd5b634e487b7160e01b5f52604160045260245ffd5b600181811c9082168061023257607f821691505b60208210810361025057634e487b7160e01b5f52602260045260245ffd5b50919050565b601f82111561029d57805f5260205f20601f840160051c8101602085101561027b5750805b601f840160051c820191505b8181101561029a575f8155600101610287565b50505b505050565b81516001600160401b038111156102bb576102bb61020a565b6102cf816102c9845461021e565b84610256565b6020601f821160018114610301575f83156102ea5750848201515b5f19600385901b1c1916600184901b17845561029a565b5f84815260208120601f198516915b828110156103305787850151825560209485019460019092019101610310565b508482101561034d57868401515f19600387901b60f8161c191681555b50505050600190811b01905550565b610ae9806103695f395ff3fe608060405234801561000f575f5ffd5b506004361061007a575f3560e01c8063893d20e811610058578063893d20e8146100cf5780638da5cb5b146100f357806395a8c58d14610105578063f2bcac3d14610128575f5ffd5b8063278208511461007e5780632e3036c7146100a757806380e52e3f146100bc575b5f5ffd5b61009161008c36600461072a565b61013d565b60405161009e91906107d3565b60405180910390f35b6100ba6100b53660046107e5565b6102b2565b005b6100ba6100ca36600461072a565b6103cf565b5f546001600160a01b03165b6040516001600160a01b03909116815260200161009e565b5f546100db906001600160a01b031681565b61011861011336600461080d565b61049e565b604051901515815260200161009e565b61013061050f565b60405161009e9190610845565b60408051606080820183525f8083526020830152918101919091526001600160a01b0382165f9081526001602052604081205490036101bf5760405162461bcd60e51b8152602060048201526019602482015278155cd95c881a185cc81b9bc81c9bdb1948185cdcda59db9959603a1b60448201526064015b60405180910390fd5b6001600160a01b0382165f90815260016020818152604092839020835160608101909452805484528083015490929184019160ff909116908111156102065761020661074a565b60018111156102175761021761074a565b815260200160028201805461022b906108a8565b80601f0160208091040260200160405190810160405280929190818152602001828054610257906108a8565b80156102a25780601f10610279576101008083540402835291602001916102a2565b820191905f5260205f20905b81548152906001019060200180831161028557829003601f168201915b5050505050815250509050919050565b5f8181526002602052604081205490036103005760405162461bcd60e51b815260206004820152600f60248201526e125b9d985b1a59081c9bdb19481251608a1b60448201526064016101b6565b5f8181526002602090815260408083206001600160a01b0386168452600192839052922082548155818301548183018054929360ff90921692909160ff199091169083818111156103535761035361074a565b021790555060028181019061036a9084018261093a565b5050505f81815260026020819052604091829020600181015492516001600160a01b038616937f1b8f42edc9b7affbd109fc6a03d57fbec6495325facd626fac3dd8917a73e375936103c393019160ff90911690610a0f565b60405180910390a25050565b6001600160a01b0381165f9081526001602052604081205490036104315760405162461bcd60e51b8152602060048201526019602482015278155cd95c881a185cc81b9bc81c9bdb1948185cdcda59db9959603a1b60448201526064016101b6565b6001600160a01b0381165f9081526001602081905260408220828155908101805460ff191690559061046660028301826106bd565b50506040516001600160a01b038216907f6107a4a5447a4208ba14e3ec240bccf0a93828124ccf501af04601031070b183905f90a250565b6001600160a01b0382165f9081526001602052604081205481036104c357505f610509565b8160018111156104d5576104d561074a565b6001600160a01b0384165f90815260016020819052604090912081015460ff16908111156105055761050561074a565b1490505b92915050565b6003546060905f9067ffffffffffffffff81111561052f5761052f6108da565b60405190808252806020026020018201604052801561057b57816020015b60408051606080820183525f80835260208301529181019190915281526020019060019003908161054d5790505b5090505f5b6003548110156106b75760025f600383815481106105a0576105a0610a9f565b905f5260205f20015481526020019081526020015f206040518060600160405290815f8201548152602001600182015f9054906101000a900460ff1660018111156105ed576105ed61074a565b60018111156105fe576105fe61074a565b8152602001600282018054610612906108a8565b80601f016020809104026020016040519081016040528092919081815260200182805461063e906108a8565b80156106895780601f1061066057610100808354040283529160200191610689565b820191905f5260205f20905b81548152906001019060200180831161066c57829003601f168201915b5050505050815250508282815181106106a4576106a4610a9f565b6020908102919091010152600101610580565b50919050565b5080546106c9906108a8565b5f825580601f106106d8575050565b601f0160209004905f5260205f20908101906106f491906106f7565b50565b5b8082111561070b575f81556001016106f8565b5090565b80356001600160a01b0381168114610725575f5ffd5b919050565b5f6020828403121561073a575f5ffd5b6107438261070f565b9392505050565b634e487b7160e01b5f52602160045260245ffd5b6002811061077a57634e487b7160e01b5f52602160045260245ffd5b9052565b805182525f6020820151610795602085018261075e565b5060408201516060604085015280518060608601528060208301608087015e5f608082870101526080601f19601f8301168601019250505092915050565b602081525f610743602083018461077e565b5f5f604083850312156107f6575f5ffd5b6107ff8361070f565b946020939093013593505050565b5f5f6040838503121561081e575f5ffd5b6108278361070f565b915060208301356002811061083a575f5ffd5b809150509250929050565b5f602082016020835280845180835260408501915060408160051b8601019250602086015f5b8281101561089c57603f1987860301845261088785835161077e565b9450602093840193919091019060010161086b565b50929695505050505050565b600181811c908216806108bc57607f821691505b6020821081036106b757634e487b7160e01b5f52602260045260245ffd5b634e487b7160e01b5f52604160045260245ffd5b601f82111561093557805f5260205f20601f840160051c810160208510156109135750805b601f840160051c820191505b81811015610932575f815560010161091f565b50505b505050565b818103610945575050565b61094f82546108a8565b67ffffffffffffffff811115610967576109676108da565b61097b8161097584546108a8565b846108ee565b5f601f8211600181146109ac575f83156109955750848201545b5f19600385901b1c1916600184901b178455610932565b5f8581526020808220868352908220601f198616925b838110156109e257828601548255600195860195909101906020016109c2565b50858310156109ff57818501545f19600388901b60f8161c191681555b5050505050600190811b01905550565b604081525f5f8454610a20816108a8565b806040860152600182165f8114610a3e5760018114610a5a57610a8b565b60ff1983166060870152606082151560051b8701019350610a8b565b875f5260205f205f5b83811015610a8257815488820160600152600190910190602001610a63565b87016060019450505b50505080915050610743602083018461075e565b634e487b7160e01b5f52603260045260245ffdfea2646970667358221220fddb92835d130fe445af15bd110e53e7d96ec2bac088127f5b867a493a03001264736f6c634300081e0033c2575a0e9e593c00f959f8c92f12db2869c3395a3b0502d05e2516446f71f85b",
					"opcodes": "PUSH1 0x80 PUSH1 0x40 MSTORE CALLVALUE DUP1 ISZERO PUSH2 0xF JUMPI PUSH0 PUSH0 REVERT JUMPDEST POP PUSH0 DUP1 SLOAD PUSH1 0x1 PUSH1 0x1 PUSH1 0xA0 SHL SUB NOT AND CALLER OR DUP2 SSTORE PUSH1 0x40 DUP1 MLOAD PUSH1 0x60 DUP2 ADD SWAP1 SWAP2 MSTORE PUSH1 0x1 DUP2 MSTORE SWAP1 PUSH1 0x20 DUP3 ADD SWAP1 DUP2 MSTORE PUSH1 0x40 DUP1 MLOAD DUP1 DUP3 ADD SWAP1 SWAP2 MSTORE PUSH1 0xD DUP2 MSTORE PUSH13 0x20B236B4B734B9BA3930BA37B9 PUSH1 0x99 SHL PUSH1 0x20 DUP3 DUP2 ADD SWAP2 SWAP1 SWAP2 MSTORE SWAP2 DUP3 ADD MSTORE PUSH1 0x1 PUSH0 DUP2 SWAP1 MSTORE PUSH1 0x2 DUP3 MSTORE DUP3 MLOAD PUSH32 0xE90B7BCEB6E7DF5418FB78D8EE546E97C83A08BBCCC01A0644D599CCD2A7C2E0 SWAP1 DUP2 SSTORE SWAP2 DUP4 ADD MLOAD PUSH32 0xE90B7BCEB6E7DF5418FB78D8EE546E97C83A08BBCCC01A0644D599CCD2A7C2E1 DUP1 SLOAD SWAP2 SWAP3 SWAP1 SWAP2 PUSH1 0xFF NOT AND SWAP1 DUP4 DUP2 DUP2 GT ISZERO PUSH2 0xD5 JUMPI PUSH2 0xD5 PUSH2 0x1F6 JUMP JUMPDEST MUL OR SWAP1 SSTORE POP PUSH1 0x40 DUP3 ADD MLOAD PUSH1 0x2 DUP3 ADD SWAP1 PUSH2 0xEE SWAP1 DUP3 PUSH2 0x2A2 JUMP JUMPDEST POP POP PUSH1 0x3 DUP1 SLOAD PUSH1 0x1 DUP1 DUP3 ADD SWAP1 SWAP3 SSTORE PUSH0 MLOAD PUSH1 0x20 PUSH2 0xE52 PUSH0 CODECOPY PUSH0 MLOAD SWAP1 PUSH0 MSTORE ADD DUP2 SWAP1 SSTORE PUSH1 0x40 DUP1 MLOAD PUSH1 0x60 DUP2 ADD DUP3 MSTORE PUSH1 0x2 DUP1 DUP3 MSTORE PUSH1 0x20 DUP1 DUP4 ADD DUP6 DUP2 MSTORE DUP5 MLOAD DUP1 DUP7 ADD DUP7 MSTORE PUSH1 0x5 DUP2 MSTORE PUSH5 0x29BA30B333 PUSH1 0xD9 SHL DUP2 DUP5 ADD MSTORE SWAP5 DUP5 ADD SWAP5 SWAP1 SWAP5 MSTORE PUSH0 DUP3 SWAP1 MSTORE MSTORE DUP1 MLOAD PUSH32 0x679795A0195A1B76CDEBB7C51D74E058AEE92919B8C3389AF86EF24535E8A28C SWAP1 DUP2 SSTORE SWAP2 MLOAD PUSH32 0x679795A0195A1B76CDEBB7C51D74E058AEE92919B8C3389AF86EF24535E8A28D DUP1 SLOAD SWAP3 SWAP6 POP SWAP3 SWAP4 SWAP1 SWAP3 SWAP2 PUSH1 0xFF NOT AND SWAP1 DUP4 DUP2 DUP2 GT ISZERO PUSH2 0x1B2 JUMPI PUSH2 0x1B2 PUSH2 0x1F6 JUMP JUMPDEST MUL OR SWAP1 SSTORE POP PUSH1 0x40 DUP3 ADD MLOAD PUSH1 0x2 DUP3 ADD SWAP1 PUSH2 0x1CB SWAP1 DUP3 PUSH2 0x2A2 JUMP JUMPDEST POP POP PUSH1 0x3 DUP1 SLOAD PUSH1 0x1 DUP2 ADD DUP3 SSTORE PUSH0 SWAP2 SWAP1 SWAP2 MSTORE PUSH1 0x2 PUSH0 MLOAD PUSH1 0x20 PUSH2 0xE52 PUSH0 CODECOPY PUSH0 MLOAD SWAP1 PUSH0 MSTORE SWAP1 SWAP2 ADD SSTORE POP PUSH2 0x35C JUMP JUMPDEST PUSH4 0x4E487B71 PUSH1 0xE0 SHL PUSH0 MSTORE PUSH1 0x21 PUSH1 0x4 MSTORE PUSH1 0x24 PUSH0 REVERT JUMPDEST PUSH4 0x4E487B71 PUSH1 0xE0 SHL PUSH0 MSTORE PUSH1 0x41 PUSH1 0x4 MSTORE PUSH1 0x24 PUSH0 REVERT JUMPDEST PUSH1 0x1 DUP2 DUP2 SHR SWAP1 DUP3 AND DUP1 PUSH2 0x232 JUMPI PUSH1 0x7F DUP3 AND SWAP2 POP JUMPDEST PUSH1 0x20 DUP3 LT DUP2 SUB PUSH2 0x250 JUMPI PUSH4 0x4E487B71 PUSH1 0xE0 SHL PUSH0 MSTORE PUSH1 0x22 PUSH1 0x4 MSTORE PUSH1 0x24 PUSH0 REVERT JUMPDEST POP SWAP2 SWAP1 POP JUMP JUMPDEST PUSH1 0x1F DUP3 GT ISZERO PUSH2 0x29D JUMPI DUP1 PUSH0 MSTORE PUSH1 0x20 PUSH0 KECCAK256 PUSH1 0x1F DUP5 ADD PUSH1 0x5 SHR DUP2 ADD PUSH1 0x20 DUP6 LT ISZERO PUSH2 0x27B JUMPI POP DUP1 JUMPDEST PUSH1 0x1F DUP5 ADD PUSH1 0x5 SHR DUP3 ADD SWAP2 POP JUMPDEST DUP2 DUP2 LT ISZERO PUSH2 0x29A JUMPI PUSH0 DUP2 SSTORE PUSH1 0x1 ADD PUSH2 0x287 JUMP JUMPDEST POP POP JUMPDEST POP POP POP JUMP JUMPDEST DUP2 MLOAD PUSH1 0x1 PUSH1 0x1 PUSH1 0x40 SHL SUB DUP2 GT ISZERO PUSH2 0x2BB JUMPI PUSH2 0x2BB PUSH2 0x20A JUMP JUMPDEST PUSH2 0x2CF DUP2 PUSH2 0x2C9 DUP5 SLOAD PUSH2 0x21E JUMP JUMPDEST DUP5 PUSH2 0x256 JUMP JUMPDEST PUSH1 0x20 PUSH1 0x1F DUP3 GT PUSH1 0x1 DUP2 EQ PUSH2 0x301 JUMPI PUSH0 DUP4 ISZERO PUSH2 0x2EA JUMPI POP DUP5 DUP3 ADD MLOAD JUMPDEST PUSH0 NOT PUSH1 0x3 DUP6 SWAP1 SHL SHR NOT AND PUSH1 0x1 DUP5 SWAP1 SHL OR DUP5 SSTORE PUSH2 0x29A JUMP JUMPDEST PUSH0 DUP5 DUP2 MSTORE PUSH1 0x20 DUP2 KECCAK256 PUSH1 0x1F NOT DUP6 AND SWAP2 JUMPDEST DUP3 DUP2 LT ISZERO PUSH2 0x330 JUMPI DUP8 DUP6 ADD MLOAD DUP3 SSTORE PUSH1 0x20 SWAP5 DUP6 ADD SWAP5 PUSH1 0x1 SWAP1 SWAP3 ADD SWAP2 ADD PUSH2 0x310 JUMP JUMPDEST POP DUP5 DUP3 LT ISZERO PUSH2 0x34D JUMPI DUP7 DUP5 ADD MLOAD PUSH0 NOT PUSH1 0x3 DUP8 SWAP1 SHL PUSH1 0xF8 AND SHR NOT AND DUP2 SSTORE JUMPDEST POP POP POP POP PUSH1 0x1 SWAP1 DUP2 SHL ADD SWAP1 SSTORE POP JUMP JUMPDEST PUSH2 0xAE9 DUP1 PUSH2 0x369 PUSH0 CODECOPY PUSH0 RETURN INVALID PUSH1 0x80 PUSH1 0x40 MSTORE CALLVALUE DUP1 ISZERO PUSH2 0xF JUMPI PUSH0 PUSH0 REVERT JUMPDEST POP PUSH1 0x4 CALLDATASIZE LT PUSH2 0x7A JUMPI PUSH0 CALLDATALOAD PUSH1 0xE0 SHR DUP1 PUSH4 0x893D20E8 GT PUSH2 0x58 JUMPI DUP1 PUSH4 0x893D20E8 EQ PUSH2 0xCF JUMPI DUP1 PUSH4 0x8DA5CB5B EQ PUSH2 0xF3 JUMPI DUP1 PUSH4 0x95A8C58D EQ PUSH2 0x105 JUMPI DUP1 PUSH4 0xF2BCAC3D EQ PUSH2 0x128 JUMPI PUSH0 PUSH0 REVERT JUMPDEST DUP1 PUSH4 0x27820851 EQ PUSH2 0x7E JUMPI DUP1 PUSH4 0x2E3036C7 EQ PUSH2 0xA7 JUMPI DUP1 PUSH4 0x80E52E3F EQ PUSH2 0xBC JUMPI JUMPDEST PUSH0 PUSH0 REVERT JUMPDEST PUSH2 0x91 PUSH2 0x8C CALLDATASIZE PUSH1 0x4 PUSH2 0x72A JUMP JUMPDEST PUSH2 0x13D JUMP JUMPDEST PUSH1 0x40 MLOAD PUSH2 0x9E SWAP2 SWAP1 PUSH2 0x7D3 JUMP JUMPDEST PUSH1 0x40 MLOAD DUP1 SWAP2 SUB SWAP1 RETURN JUMPDEST PUSH2 0xBA PUSH2 0xB5 CALLDATASIZE PUSH1 0x4 PUSH2 0x7E5 JUMP JUMPDEST PUSH2 0x2B2 JUMP JUMPDEST STOP JUMPDEST PUSH2 0xBA PUSH2 0xCA CALLDATASIZE PUSH1 0x4 PUSH2 0x72A JUMP JUMPDEST PUSH2 0x3CF JUMP JUMPDEST PUSH0 SLOAD PUSH1 0x1 PUSH1 0x1 PUSH1 0xA0 SHL SUB AND JUMPDEST PUSH1 0x40 MLOAD PUSH1 0x1 PUSH1 0x1 PUSH1 0xA0 SHL SUB SWAP1 SWAP2 AND DUP2 MSTORE PUSH1 0x20 ADD PUSH2 0x9E JUMP JUMPDEST PUSH0 SLOAD PUSH2 0xDB SWAP1 PUSH1 0x1 PUSH1 0x1 PUSH1 0xA0 SHL SUB AND DUP2 JUMP JUMPDEST PUSH2 0x118 PUSH2 0x113 CALLDATASIZE PUSH1 0x4 PUSH2 0x80D JUMP JUMPDEST PUSH2 0x49E JUMP JUMPDEST PUSH1 0x40 MLOAD SWAP1 ISZERO ISZERO DUP2 MSTORE PUSH1 0x20 ADD PUSH2 0x9E JUMP JUMPDEST PUSH2 0x130 PUSH2 0x50F JUMP JUMPDEST PUSH1 0x40 MLOAD PUSH2 0x9E SWAP2 SWAP1 PUSH2 0x845 JUMP JUMPDEST PUSH1 0x40 DUP1 MLOAD PUSH1 0x60 DUP1 DUP3 ADD DUP4 MSTORE PUSH0 DUP1 DUP4 MSTORE PUSH1 0x20 DUP4 ADD MSTORE SWAP2 DUP2 ADD SWAP2 SWAP1 SWAP2 MSTORE PUSH1 0x1 PUSH1 0x1 PUSH1 0xA0 SHL SUB DUP3 AND PUSH0 SWAP1 DUP2 MSTORE PUSH1 0x1 PUSH1 0x20 MSTORE PUSH1 0x40 DUP2 KECCAK256 SLOAD SWAP1 SUB PUSH2 0x1BF JUMPI PUSH1 0x40 MLOAD PUSH3 0x461BCD PUSH1 0xE5 SHL DUP2 MSTORE PUSH1 0x20 PUSH1 0x4 DUP3 ADD MSTORE PUSH1 0x19 PUSH1 0x24 DUP3 ADD MSTORE PUSH25 0x155CD95C881A185CC81B9BC81C9BDB1948185CDCDA59DB9959 PUSH1 0x3A SHL PUSH1 0x44 DUP3 ADD MSTORE PUSH1 0x64 ADD JUMPDEST PUSH1 0x40 MLOAD DUP1 SWAP2 SUB SWAP1 REVERT JUMPDEST PUSH1 0x1 PUSH1 0x1 PUSH1 0xA0 SHL SUB DUP3 AND PUSH0 SWAP1 DUP2 MSTORE PUSH1 0x1 PUSH1 0x20 DUP2 DUP2 MSTORE PUSH1 0x40 SWAP3 DUP4 SWAP1 KECCAK256 DUP4 MLOAD PUSH1 0x60 DUP2 ADD SWAP1 SWAP5 MSTORE DUP1 SLOAD DUP5 MSTORE DUP1 DUP4 ADD SLOAD SWAP1 SWAP3 SWAP2 DUP5 ADD SWAP2 PUSH1 0xFF SWAP1 SWAP2 AND SWAP1 DUP2 GT ISZERO PUSH2 0x206 JUMPI PUSH2 0x206 PUSH2 0x74A JUMP JUMPDEST PUSH1 0x1 DUP2 GT ISZERO PUSH2 0x217 JUMPI PUSH2 0x217 PUSH2 0x74A JUMP JUMPDEST DUP2 MSTORE PUSH1 0x20 ADD PUSH1 0x2 DUP3 ADD DUP1 SLOAD PUSH2 0x22B SWAP1 PUSH2 0x8A8 JUMP JUMPDEST DUP1 PUSH1 0x1F ADD PUSH1 0x20 DUP1 SWAP2 DIV MUL PUSH1 0x20 ADD PUSH1 0x40 MLOAD SWAP1 DUP2 ADD PUSH1 0x40 MSTORE DUP1 SWAP3 SWAP2 SWAP1 DUP2 DUP2 MSTORE PUSH1 0x20 ADD DUP3 DUP1 SLOAD PUSH2 0x257 SWAP1 PUSH2 0x8A8 JUMP JUMPDEST DUP1 ISZERO PUSH2 0x2A2 JUMPI DUP1 PUSH1 0x1F LT PUSH2 0x279 JUMPI PUSH2 0x100 DUP1 DUP4 SLOAD DIV MUL DUP4 MSTORE SWAP2 PUSH1 0x20 ADD SWAP2 PUSH2 0x2A2 JUMP JUMPDEST DUP3 ADD SWAP2 SWAP1 PUSH0 MSTORE PUSH1 0x20 PUSH0 KECCAK256 SWAP1 JUMPDEST DUP2 SLOAD DUP2 MSTORE SWAP1 PUSH1 0x1 ADD SWAP1 PUSH1 0x20 ADD DUP1 DUP4 GT PUSH2 0x285 JUMPI DUP3 SWAP1 SUB PUSH1 0x1F AND DUP3 ADD SWAP2 JUMPDEST POP POP POP POP POP DUP2 MSTORE POP POP SWAP1 POP SWAP2 SWAP1 POP JUMP JUMPDEST PUSH0 DUP2 DUP2 MSTORE PUSH1 0x2 PUSH1 0x20 MSTORE PUSH1 0x40 DUP2 KECCAK256 SLOAD SWAP1 SUB PUSH2 0x300 JUMPI PUSH1 0x40 MLOAD PUSH3 0x461BCD PUSH1 0xE5 SHL DUP2 MSTORE PUSH1 0x20 PUSH1 0x4 DUP3 ADD MSTORE PUSH1 0xF PUSH1 0x24 DUP3 ADD MSTORE PUSH15 0x125B9D985B1A59081C9BDB19481251 PUSH1 0x8A SHL PUSH1 0x44 DUP3 ADD MSTORE PUSH1 0x64 ADD PUSH2 0x1B6 JUMP JUMPDEST PUSH0 DUP2 DUP2 MSTORE PUSH1 0x2 PUSH1 0x20 SWAP1 DUP2 MSTORE PUSH1 0x40 DUP1 DUP4 KECCAK256 PUSH1 0x1 PUSH1 0x1 PUSH1 0xA0 SHL SUB DUP7 AND DUP5 MSTORE PUSH1 0x1 SWAP3 DUP4 SWAP1 MSTORE SWAP3 KECCAK256 DUP3 SLOAD DUP2 SSTORE DUP2 DUP4 ADD SLOAD DUP2 DUP4 ADD DUP1 SLOAD SWAP3 SWAP4 PUSH1 0xFF SWAP1 SWAP3 AND SWAP3 SWAP1 SWAP2 PUSH1 0xFF NOT SWAP1 SWAP2 AND SWAP1 DUP4 DUP2 DUP2 GT ISZERO PUSH2 0x353 JUMPI PUSH2 0x353 PUSH2 0x74A JUMP JUMPDEST MUL OR SWAP1 SSTORE POP PUSH1 0x2 DUP2 DUP2 ADD SWAP1 PUSH2 0x36A SWAP1 DUP5 ADD DUP3 PUSH2 0x93A JUMP JUMPDEST POP POP POP PUSH0 DUP2 DUP2 MSTORE PUSH1 0x2 PUSH1 0x20 DUP2 SWAP1 MSTORE PUSH1 0x40 SWAP2 DUP3 SWAP1 KECCAK256 PUSH1 0x1 DUP2 ADD SLOAD SWAP3 MLOAD PUSH1 0x1 PUSH1 0x1 PUSH1 0xA0 SHL SUB DUP7 AND SWAP4 PUSH32 0x1B8F42EDC9B7AFFBD109FC6A03D57FBEC6495325FACD626FAC3DD8917A73E375 SWAP4 PUSH2 0x3C3 SWAP4 ADD SWAP2 PUSH1 0xFF SWAP1 SWAP2 AND SWAP1 PUSH2 0xA0F JUMP JUMPDEST PUSH1 0x40 MLOAD DUP1 SWAP2 SUB SWAP1 LOG2 POP POP JUMP JUMPDEST PUSH1 0x1 PUSH1 0x1 PUSH1 0xA0 SHL SUB DUP2 AND PUSH0 SWAP1 DUP2 MSTORE PUSH1 0x1 PUSH1 0x20 MSTORE PUSH1 0x40 DUP2 KECCAK256 SLOAD SWAP1 SUB PUSH2 0x431 JUMPI PUSH1 0x40 MLOAD PUSH3 0x461BCD PUSH1 0xE5 SHL DUP2 MSTORE PUSH1 0x20 PUSH1 0x4 DUP3 ADD MSTORE PUSH1 0x19 PUSH1 0x24 DUP3 ADD MSTORE PUSH25 0x155CD95C881A185CC81B9BC81C9BDB1948185CDCDA59DB9959 PUSH1 0x3A SHL PUSH1 0x44 DUP3 ADD MSTORE PUSH1 0x64 ADD PUSH2 0x1B6 JUMP JUMPDEST PUSH1 0x1 PUSH1 0x1 PUSH1 0xA0 SHL SUB DUP2 AND PUSH0 SWAP1 DUP2 MSTORE PUSH1 0x1 PUSH1 0x20 DUP2 SWAP1 MSTORE PUSH1 0x40 DUP3 KECCAK256 DUP3 DUP2 SSTORE SWAP1 DUP2 ADD DUP1 SLOAD PUSH1 0xFF NOT AND SWAP1 SSTORE SWAP1 PUSH2 0x466 PUSH1 0x2 DUP4 ADD DUP3 PUSH2 0x6BD JUMP JUMPDEST POP POP PUSH1 0x40 MLOAD PUSH1 0x1 PUSH1 0x1 PUSH1 0xA0 SHL SUB DUP3 AND SWAP1 PUSH32 0x6107A4A5447A4208BA14E3EC240BCCF0A93828124CCF501AF04601031070B183 SWAP1 PUSH0 SWAP1 LOG2 POP JUMP JUMPDEST PUSH1 0x1 PUSH1 0x1 PUSH1 0xA0 SHL SUB DUP3 AND PUSH0 SWAP1 DUP2 MSTORE PUSH1 0x1 PUSH1 0x20 MSTORE PUSH1 0x40 DUP2 KECCAK256 SLOAD DUP2 SUB PUSH2 0x4C3 JUMPI POP PUSH0 PUSH2 0x509 JUMP JUMPDEST DUP2 PUSH1 0x1 DUP2 GT ISZERO PUSH2 0x4D5 JUMPI PUSH2 0x4D5 PUSH2 0x74A JUMP JUMPDEST PUSH1 0x1 PUSH1 0x1 PUSH1 0xA0 SHL SUB DUP5 AND PUSH0 SWAP1 DUP2 MSTORE PUSH1 0x1 PUSH1 0x20 DUP2 SWAP1 MSTORE PUSH1 0x40 SWAP1 SWAP2 KECCAK256 DUP2 ADD SLOAD PUSH1 0xFF AND SWAP1 DUP2 GT ISZERO PUSH2 0x505 JUMPI PUSH2 0x505 PUSH2 0x74A JUMP JUMPDEST EQ SWAP1 POP JUMPDEST SWAP3 SWAP2 POP POP JUMP JUMPDEST PUSH1 0x3 SLOAD PUSH1 0x60 SWAP1 PUSH0 SWAP1 PUSH8 0xFFFFFFFFFFFFFFFF DUP2 GT ISZERO PUSH2 0x52F JUMPI PUSH2 0x52F PUSH2 0x8DA JUMP JUMPDEST PUSH1 0x40 MLOAD SWAP1 DUP1 DUP3 MSTORE DUP1 PUSH1 0x20 MUL PUSH1 0x20 ADD DUP3 ADD PUSH1 0x40 MSTORE DUP1 ISZERO PUSH2 0x57B JUMPI DUP2 PUSH1 0x20 ADD JUMPDEST PUSH1 0x40 DUP1 MLOAD PUSH1 0x60 DUP1 DUP3 ADD DUP4 MSTORE PUSH0 DUP1 DUP4 MSTORE PUSH1 0x20 DUP4 ADD MSTORE SWAP2 DUP2 ADD SWAP2 SWAP1 SWAP2 MSTORE DUP2 MSTORE PUSH1 0x20 ADD SWAP1 PUSH1 0x1 SWAP1 SUB SWAP1 DUP2 PUSH2 0x54D JUMPI SWAP1 POP JUMPDEST POP SWAP1 POP PUSH0 JUMPDEST PUSH1 0x3 SLOAD DUP2 LT ISZERO PUSH2 0x6B7 JUMPI PUSH1 0x2 PUSH0 PUSH1 0x3 DUP4 DUP2 SLOAD DUP2 LT PUSH2 0x5A0 JUMPI PUSH2 0x5A0 PUSH2 0xA9F JUMP JUMPDEST SWAP1 PUSH0 MSTORE PUSH1 0x20 PUSH0 KECCAK256 ADD SLOAD DUP2 MSTORE PUSH1 0x20 ADD SWAP1 DUP2 MSTORE PUSH1 0x20 ADD PUSH0 KECCAK256 PUSH1 0x40 MLOAD DUP1 PUSH1 0x60 ADD PUSH1 0x40 MSTORE SWAP1 DUP2 PUSH0 DUP3 ADD SLOAD DUP2 MSTORE PUSH1 0x20 ADD PUSH1 0x1 DUP3 ADD PUSH0 SWAP1 SLOAD SWAP1 PUSH2 0x100 EXP SWAP1 DIV PUSH1 0xFF AND PUSH1 0x1 DUP2 GT ISZERO PUSH2 0x5ED JUMPI PUSH2 0x5ED PUSH2 0x74A JUMP JUMPDEST PUSH1 0x1 DUP2 GT ISZERO PUSH2 0x5FE JUMPI PUSH2 0x5FE PUSH2 0x74A JUMP JUMPDEST DUP2 MSTORE PUSH1 0x20 ADD PUSH1 0x2 DUP3 ADD DUP1 SLOAD PUSH2 0x612 SWAP1 PUSH2 0x8A8 JUMP JUMPDEST DUP1 PUSH1 0x1F ADD PUSH1 0x20 DUP1 SWAP2 DIV MUL PUSH1 0x20 ADD PUSH1 0x40 MLOAD SWAP1 DUP2 ADD PUSH1 0x40 MSTORE DUP1 SWAP3 SWAP2 SWAP1 DUP2 DUP2 MSTORE PUSH1 0x20 ADD DUP3 DUP1 SLOAD PUSH2 0x63E SWAP1 PUSH2 0x8A8 JUMP JUMPDEST DUP1 ISZERO PUSH2 0x689 JUMPI DUP1 PUSH1 0x1F LT PUSH2 0x660 JUMPI PUSH2 0x100 DUP1 DUP4 SLOAD DIV MUL DUP4 MSTORE SWAP2 PUSH1 0x20 ADD SWAP2 PUSH2 0x689 JUMP JUMPDEST DUP3 ADD SWAP2 SWAP1 PUSH0 MSTORE PUSH1 0x20 PUSH0 KECCAK256 SWAP1 JUMPDEST DUP2 SLOAD DUP2 MSTORE SWAP1 PUSH1 0x1 ADD SWAP1 PUSH1 0x20 ADD DUP1 DUP4 GT PUSH2 0x66C JUMPI DUP3 SWAP1 SUB PUSH1 0x1F AND DUP3 ADD SWAP2 JUMPDEST POP POP POP POP POP DUP2 MSTORE POP POP DUP3 DUP3 DUP2 MLOAD DUP2 LT PUSH2 0x6A4 JUMPI PUSH2 0x6A4 PUSH2 0xA9F JUMP JUMPDEST PUSH1 0x20 SWAP1 DUP2 MUL SWAP2 SWAP1 SWAP2 ADD ADD MSTORE PUSH1 0x1 ADD PUSH2 0x580 JUMP JUMPDEST POP SWAP2 SWAP1 POP JUMP JUMPDEST POP DUP1 SLOAD PUSH2 0x6C9 SWAP1 PUSH2 0x8A8 JUMP JUMPDEST PUSH0 DUP3 SSTORE DUP1 PUSH1 0x1F LT PUSH2 0x6D8 JUMPI POP POP JUMP JUMPDEST PUSH1 0x1F ADD PUSH1 0x20 SWAP1 DIV SWAP1 PUSH0 MSTORE PUSH1 0x20 PUSH0 KECCAK256 SWAP1 DUP2 ADD SWAP1 PUSH2 0x6F4 SWAP2 SWAP1 PUSH2 0x6F7 JUMP JUMPDEST POP JUMP JUMPDEST JUMPDEST DUP1 DUP3 GT ISZERO PUSH2 0x70B JUMPI PUSH0 DUP2 SSTORE PUSH1 0x1 ADD PUSH2 0x6F8 JUMP JUMPDEST POP SWAP1 JUMP JUMPDEST DUP1 CALLDATALOAD PUSH1 0x1 PUSH1 0x1 PUSH1 0xA0 SHL SUB DUP2 AND DUP2 EQ PUSH2 0x725 JUMPI PUSH0 PUSH0 REVERT JUMPDEST SWAP2 SWAP1 POP JUMP JUMPDEST PUSH0 PUSH1 0x20 DUP3 DUP5 SUB SLT ISZERO PUSH2 0x73A JUMPI PUSH0 PUSH0 REVERT JUMPDEST PUSH2 0x743 DUP3 PUSH2 0x70F JUMP JUMPDEST SWAP4 SWAP3 POP POP POP JUMP JUMPDEST PUSH4 0x4E487B71 PUSH1 0xE0 SHL PUSH0 MSTORE PUSH1 0x21 PUSH1 0x4 MSTORE PUSH1 0x24 PUSH0 REVERT JUMPDEST PUSH1 0x2 DUP2 LT PUSH2 0x77A JUMPI PUSH4 0x4E487B71 PUSH1 0xE0 SHL PUSH0 MSTORE PUSH1 0x21 PUSH1 0x4 MSTORE PUSH1 0x24 PUSH0 REVERT JUMPDEST SWAP1 MSTORE JUMP JUMPDEST DUP1 MLOAD DUP3 MSTORE PUSH0 PUSH1 0x20 DUP3 ADD MLOAD PUSH2 0x795 PUSH1 0x20 DUP6 ADD DUP3 PUSH2 0x75E JUMP JUMPDEST POP PUSH1 0x40 DUP3 ADD MLOAD PUSH1 0x60 PUSH1 0x40 DUP6 ADD MSTORE DUP1 MLOAD DUP1 PUSH1 0x60 DUP7 ADD MSTORE DUP1 PUSH1 0x20 DUP4 ADD PUSH1 0x80 DUP8 ADD MCOPY PUSH0 PUSH1 0x80 DUP3 DUP8 ADD ADD MSTORE PUSH1 0x80 PUSH1 0x1F NOT PUSH1 0x1F DUP4 ADD AND DUP7 ADD ADD SWAP3 POP POP POP SWAP3 SWAP2 POP POP JUMP JUMPDEST PUSH1 0x20 DUP2 MSTORE PUSH0 PUSH2 0x743 PUSH1 0x20 DUP4 ADD DUP5 PUSH2 0x77E JUMP JUMPDEST PUSH0 PUSH0 PUSH1 0x40 DUP4 DUP6 SUB SLT ISZERO PUSH2 0x7F6 JUMPI PUSH0 PUSH0 REVERT JUMPDEST PUSH2 0x7FF DUP4 PUSH2 0x70F JUMP JUMPDEST SWAP5 PUSH1 0x20 SWAP4 SWAP1 SWAP4 ADD CALLDATALOAD SWAP4 POP POP POP JUMP JUMPDEST PUSH0 PUSH0 PUSH1 0x40 DUP4 DUP6 SUB SLT ISZERO PUSH2 0x81E JUMPI PUSH0 PUSH0 REVERT JUMPDEST PUSH2 0x827 DUP4 PUSH2 0x70F JUMP JUMPDEST SWAP2 POP PUSH1 0x20 DUP4 ADD CALLDATALOAD PUSH1 0x2 DUP2 LT PUSH2 0x83A JUMPI PUSH0 PUSH0 REVERT JUMPDEST DUP1 SWAP2 POP POP SWAP3 POP SWAP3 SWAP1 POP JUMP JUMPDEST PUSH0 PUSH1 0x20 DUP3 ADD PUSH1 0x20 DUP4 MSTORE DUP1 DUP5 MLOAD DUP1 DUP4 MSTORE PUSH1 0x40 DUP6 ADD SWAP2 POP PUSH1 0x40 DUP2 PUSH1 0x5 SHL DUP7 ADD ADD SWAP3 POP PUSH1 0x20 DUP7 ADD PUSH0 JUMPDEST DUP3 DUP2 LT ISZERO PUSH2 0x89C JUMPI PUSH1 0x3F NOT DUP8 DUP7 SUB ADD DUP5 MSTORE PUSH2 0x887 DUP6 DUP4 MLOAD PUSH2 0x77E JUMP JUMPDEST SWAP5 POP PUSH1 0x20 SWAP4 DUP5 ADD SWAP4 SWAP2 SWAP1 SWAP2 ADD SWAP1 PUSH1 0x1 ADD PUSH2 0x86B JUMP JUMPDEST POP SWAP3 SWAP7 SWAP6 POP POP POP POP POP POP JUMP JUMPDEST PUSH1 0x1 DUP2 DUP2 SHR SWAP1 DUP3 AND DUP1 PUSH2 0x8BC JUMPI PUSH1 0x7F DUP3 AND SWAP2 POP JUMPDEST PUSH1 0x20 DUP3 LT DUP2 SUB PUSH2 0x6B7 JUMPI PUSH4 0x4E487B71 PUSH1 0xE0 SHL PUSH0 MSTORE PUSH1 0x22 PUSH1 0x4 MSTORE PUSH1 0x24 PUSH0 REVERT JUMPDEST PUSH4 0x4E487B71 PUSH1 0xE0 SHL PUSH0 MSTORE PUSH1 0x41 PUSH1 0x4 MSTORE PUSH1 0x24 PUSH0 REVERT JUMPDEST PUSH1 0x1F DUP3 GT ISZERO PUSH2 0x935 JUMPI DUP1 PUSH0 MSTORE PUSH1 0x20 PUSH0 KECCAK256 PUSH1 0x1F DUP5 ADD PUSH1 0x5 SHR DUP2 ADD PUSH1 0x20 DUP6 LT ISZERO PUSH2 0x913 JUMPI POP DUP1 JUMPDEST PUSH1 0x1F DUP5 ADD PUSH1 0x5 SHR DUP3 ADD SWAP2 POP JUMPDEST DUP2 DUP2 LT ISZERO PUSH2 0x932 JUMPI PUSH0 DUP2 SSTORE PUSH1 0x1 ADD PUSH2 0x91F JUMP JUMPDEST POP POP JUMPDEST POP POP POP JUMP JUMPDEST DUP2 DUP2 SUB PUSH2 0x945 JUMPI POP POP JUMP JUMPDEST PUSH2 0x94F DUP3 SLOAD PUSH2 0x8A8 JUMP JUMPDEST PUSH8 0xFFFFFFFFFFFFFFFF DUP2 GT ISZERO PUSH2 0x967 JUMPI PUSH2 0x967 PUSH2 0x8DA JUMP JUMPDEST PUSH2 0x97B DUP2 PUSH2 0x975 DUP5 SLOAD PUSH2 0x8A8 JUMP JUMPDEST DUP5 PUSH2 0x8EE JUMP JUMPDEST PUSH0 PUSH1 0x1F DUP3 GT PUSH1 0x1 DUP2 EQ PUSH2 0x9AC JUMPI PUSH0 DUP4 ISZERO PUSH2 0x995 JUMPI POP DUP5 DUP3 ADD SLOAD JUMPDEST PUSH0 NOT PUSH1 0x3 DUP6 SWAP1 SHL SHR NOT AND PUSH1 0x1 DUP5 SWAP1 SHL OR DUP5 SSTORE PUSH2 0x932 JUMP JUMPDEST PUSH0 DUP6 DUP2 MSTORE PUSH1 0x20 DUP1 DUP3 KECCAK256 DUP7 DUP4 MSTORE SWAP1 DUP3 KECCAK256 PUSH1 0x1F NOT DUP7 AND SWAP3 JUMPDEST DUP4 DUP2 LT ISZERO PUSH2 0x9E2 JUMPI DUP3 DUP7 ADD SLOAD DUP3 SSTORE PUSH1 0x1 SWAP6 DUP7 ADD SWAP6 SWAP1 SWAP2 ADD SWAP1 PUSH1 0x20 ADD PUSH2 0x9C2 JUMP JUMPDEST POP DUP6 DUP4 LT ISZERO PUSH2 0x9FF JUMPI DUP2 DUP6 ADD SLOAD PUSH0 NOT PUSH1 0x3 DUP9 SWAP1 SHL PUSH1 0xF8 AND SHR NOT AND DUP2 SSTORE JUMPDEST POP POP POP POP POP PUSH1 0x1 SWAP1 DUP2 SHL ADD SWAP1 SSTORE POP JUMP JUMPDEST PUSH1 0x40 DUP2 MSTORE PUSH0 PUSH0 DUP5 SLOAD PUSH2 0xA20 DUP2 PUSH2 0x8A8 JUMP JUMPDEST DUP1 PUSH1 0x40 DUP7 ADD MSTORE PUSH1 0x1 DUP3 AND PUSH0 DUP2 EQ PUSH2 0xA3E JUMPI PUSH1 0x1 DUP2 EQ PUSH2 0xA5A JUMPI PUSH2 0xA8B JUMP JUMPDEST PUSH1 0xFF NOT DUP4 AND PUSH1 0x60 DUP8 ADD MSTORE PUSH1 0x60 DUP3 ISZERO ISZERO PUSH1 0x5 SHL DUP8 ADD ADD SWAP4 POP PUSH2 0xA8B JUMP JUMPDEST DUP8 PUSH0 MSTORE PUSH1 0x20 PUSH0 KECCAK256 PUSH0 JUMPDEST DUP4 DUP2 LT ISZERO PUSH2 0xA82 JUMPI DUP2 SLOAD DUP9 DUP3 ADD PUSH1 0x60 ADD MSTORE PUSH1 0x1 SWAP1 SWAP2 ADD SWAP1 PUSH1 0x20 ADD PUSH2 0xA63 JUMP JUMPDEST DUP8 ADD PUSH1 0x60 ADD SWAP5 POP POP JUMPDEST POP POP POP DUP1 SWAP2 POP POP PUSH2 0x743 PUSH1 0x20 DUP4 ADD DUP5 PUSH2 0x75E JUMP JUMPDEST PUSH4 0x4E487B71 PUSH1 0xE0 SHL PUSH0 MSTORE PUSH1 0x32 PUSH1 0x4 MSTORE PUSH1 0x24 PUSH0 REVERT INVALID LOG2 PUSH5 0x6970667358 0x22 SLT KECCAK256 REVERT 0xDB SWAP3 DUP4 TSTORE SGT 0xF RETF GASLIMIT 0xAF ISZERO 0xBD GT 0xE MSTORE8 SWAPN 0xD9 PUSH15 0xC2BAC088127F5B867A493A03001264 PUSH20 0x6F6C634300081E0033C2575A0E9E593C00F959F8 0xC9 0x2F SLT 0xDB 0x28 PUSH10 0xC3395A3B0502D05E2516 PREVRANDAO PUSH16 0x71F85B00000000000000000000000000 "
				},
				"gasEstimates": {
					"creation": {
						"codeDepositCost": "558600",
						"executionCost": "infinite",
						"totalCost": "infinite"
					},
					"external": {
						"assignRole(address,uint256)": "infinite",
						"getAllRoles()": "infinite",
						"getOwner()": "2318",
						"getUserRole(address)": "infinite",
						"hasRole(address,uint8)": "4953",
						"owner()": "2357",
						"revokeRole(address)": "infinite"
					}
				},
				"methodIdentifiers": {
					"assignRole(address,uint256)": "2e3036c7",
					"getAllRoles()": "f2bcac3d",
					"getOwner()": "893d20e8",
					"getUserRole(address)": "27820851",
					"hasRole(address,uint8)": "95a8c58d",
					"owner()": "8da5cb5b",
					"revokeRole(address)": "80e52e3f"
				}
			},
			"storageLayout": {
				"storage": [
					{
						"astId": 4,
						"contract": "contracts/access/RoleAccess.sol:RoleAccess",
						"label": "owner",
						"offset": 0,
						"slot": "0",
						"type": "t_address"
					},
					{
						"astId": 9,
						"contract": "contracts/access/RoleAccess.sol:RoleAccess",
						"label": "userRole",
						"offset": 0,
						"slot": "1",
						"type": "t_mapping(t_address,t_struct(Role)970_storage)"
					},
					{
						"astId": 14,
						"contract": "contracts/access/RoleAccess.sol:RoleAccess",
						"label": "roles",
						"offset": 0,
						"slot": "2",
						"type": "t_mapping(t_uint256,t_struct(Role)970_storage)"
					},
					{
						"astId": 17,
						"contract": "contracts/access/RoleAccess.sol:RoleAccess",
						"label": "arrRoles",
						"offset": 0,
						"slot": "3",
						"type": "t_array(t_uint256)dyn_storage"
					}
				],
				"types": {
					"t_address": {
						"encoding": "inplace",
						"label": "address",
						"numberOfBytes": "20"
					},
					"t_array(t_uint256)dyn_storage": {
						"base": "t_uint256",
						"encoding": "dynamic_array",
						"label": "uint256[]",
						"numberOfBytes": "32"
					},
					"t_enum(RoleType)962": {
						"encoding": "inplace",
						"label": "enum RoleType",
						"numberOfBytes": "1"
					},
					"t_mapping(t_address,t_struct(Role)970_storage)": {
						"encoding": "mapping",
						"key": "t_address",
						"label": "mapping(address => struct Role)",
						"numberOfBytes": "32",
						"value": "t_struct(Role)970_storage"
					},
					"t_mapping(t_uint256,t_struct(Role)970_storage)": {
						"encoding": "mapping",
						"key": "t_uint256",
						"label": "mapping(uint256 => struct Role)",
						"numberOfBytes": "32",
						"value": "t_struct(Role)970_storage"
					},
					"t_string_storage": {
						"encoding": "bytes",
						"label": "string",
						"numberOfBytes": "32"
					},
					"t_struct(Role)970_storage": {
						"encoding": "inplace",
						"label": "struct Role",
						"members": [
							{
								"astId": 964,
								"contract": "contracts/access/RoleAccess.sol:RoleAccess",
								"label": "roleId",
								"offset": 0,
								"slot": "0",
								"type": "t_uint256"
							},
							{
								"astId": 967,
								"contract": "contracts/access/RoleAccess.sol:RoleAccess",
								"label": "role",
								"offset": 0,
								"slot": "1",
								"type": "t_enum(RoleType)962"
							},
							{
								"astId": 969,
								"contract": "contracts/access/RoleAccess.sol:RoleAccess",
								"label": "name",
								"offset": 0,
								"slot": "2",
								"type": "t_string_storage"
							}
						],
						"numberOfBytes": "96"
					},
					"t_uint256": {
						"encoding": "inplace",
						"label": "uint256",
						"numberOfBytes": "32"
					}
				}
			},
			"userdoc": {
				"kind": "user",
				"methods": {},
				"version": 1
			}
		}
	}
}