{
	"contracts/manager/TableManager.sol": {
		"TableManager": {
			"abi": [
				{
					"inputs": [],
					"stateMutability": "nonpayable",
					"type": "constructor"
				},
				{
					"inputs": [
						{
							"internalType": "uint256",
							"name": "_row",
							"type": "uint256"
						},
						{
							"internalType": "uint256",
							"name": "_col",
							"type": "uint256"
						}
					],
					"name": "addTable",
					"outputs": [
						{
							"internalType": "uint256",
							"name": "",
							"type": "uint256"
						}
					],
					"stateMutability": "nonpayable",
					"type": "function"
				},
				{
					"inputs": [
						{
							"internalType": "uint256",
							"name": "_tableId",
							"type": "uint256"
						}
					],
					"name": "deleteTable",
					"outputs": [],
					"stateMutability": "nonpayable",
					"type": "function"
				},
				{
					"inputs": [
						{
							"internalType": "uint256",
							"name": "_tableId",
							"type": "uint256"
						},
						{
							"internalType": "uint256",
							"name": "_row",
							"type": "uint256"
						},
						{
							"internalType": "uint256",
							"name": "_col",
							"type": "uint256"
						}
					],
					"name": "editTable",
					"outputs": [],
					"stateMutability": "nonpayable",
					"type": "function"
				},
				{
					"inputs": [
						{
							"internalType": "uint256",
							"name": "_tableId",
							"type": "uint256"
						}
					],
					"name": "getTableById",
					"outputs": [
						{
							"components": [
								{
									"internalType": "uint256",
									"name": "tableId",
									"type": "uint256"
								},
								{
									"internalType": "uint256",
									"name": "row",
									"type": "uint256"
								},
								{
									"internalType": "uint256",
									"name": "col",
									"type": "uint256"
								},
								{
									"internalType": "uint256",
									"name": "staffId",
									"type": "uint256"
								},
								{
									"internalType": "bool",
									"name": "isReserved",
									"type": "bool"
								}
							],
							"internalType": "struct ITableManager.Table",
							"name": "",
							"type": "tuple"
						}
					],
					"stateMutability": "view",
					"type": "function"
				},
				{
					"inputs": [],
					"name": "nextTableId",
					"outputs": [
						{
							"internalType": "uint256",
							"name": "",
							"type": "uint256"
						}
					],
					"stateMutability": "view",
					"type": "function"
				},
				{
					"inputs": [],
					"name": "owner",
					"outputs": [
						{
							"internalType": "address",
							"name": "",
							"type": "address"
						}
					],
					"stateMutability": "view",
					"type": "function"
				},
				{
					"inputs": [
						{
							"internalType": "uint256",
							"name": "",
							"type": "uint256"
						}
					],
					"name": "tables",
					"outputs": [
						{
							"internalType": "uint256",
							"name": "tableId",
							"type": "uint256"
						},
						{
							"internalType": "uint256",
							"name": "row",
							"type": "uint256"
						},
						{
							"internalType": "uint256",
							"name": "col",
							"type": "uint256"
						},
						{
							"internalType": "uint256",
							"name": "staffId",
							"type": "uint256"
						},
						{
							"internalType": "bool",
							"name": "isReserved",
							"type": "bool"
						}
					],
					"stateMutability": "view",
					"type": "function"
				},
				{
					"inputs": [
						{
							"internalType": "uint256",
							"name": "_tableId",
							"type": "uint256"
						},
						{
							"internalType": "uint256",
							"name": "_staffId",
							"type": "uint256"
						}
					],
					"name": "updateStaffTable",
					"outputs": [],
					"stateMutability": "nonpayable",
					"type": "function"
				}
			],
			"devdoc": {
				"kind": "dev",
				"methods": {},
				"version": 1
			},
			"evm": {
				"assembly": "    /* \"contracts/manager/TableManager.sol\":102:1707  contract TableManager is ITableManager {... */\n  mstore(0x40, 0x80)\n    /* \"contracts/manager/TableManager.sol\":217:218  1 */\n  0x01\n    /* \"contracts/manager/TableManager.sol\":191:218  uint public nextTableId = 1 */\n  dup1\n  sstore\n    /* \"contracts/manager/TableManager.sol\":256:307  constructor() {... */\n  callvalue\n  dup1\n  iszero\n  tag_1\n  jumpi\n  revert(0x00, 0x00)\ntag_1:\n  pop\n    /* \"contracts/manager/TableManager.sol\":289:299  msg.sender */\n  caller\n    /* \"contracts/manager/TableManager.sol\":281:286  owner */\n  0x02\n  0x00\n    /* \"contracts/manager/TableManager.sol\":281:299  owner = msg.sender */\n  0x0100\n  exp\n  dup2\n  sload\n  dup2\n  0xffffffffffffffffffffffffffffffffffffffff\n  mul\n  not\n  and\n  swap1\n  dup4\n  0xffffffffffffffffffffffffffffffffffffffff\n  and\n  mul\n  or\n  swap1\n  sstore\n  pop\n    /* \"contracts/manager/TableManager.sol\":102:1707  contract TableManager is ITableManager {... */\n  dataSize(sub_0)\n  dup1\n  dataOffset(sub_0)\n  0x00\n  codecopy\n  0x00\n  return\nstop\n\nsub_0: assembly {\n        /* \"contracts/manager/TableManager.sol\":102:1707  contract TableManager is ITableManager {... */\n      mstore(0x40, 0x80)\n      callvalue\n      dup1\n      iszero\n      tag_1\n      jumpi\n      revert(0x00, 0x00)\n    tag_1:\n      pop\n      jumpi(tag_2, lt(calldatasize, 0x04))\n      shr(0xe0, calldataload(0x00))\n      dup1\n      0x8da5cb5b\n      gt\n      tag_11\n      jumpi\n      dup1\n      0x8da5cb5b\n      eq\n      tag_7\n      jumpi\n      dup1\n      0xbea02f62\n      eq\n      tag_8\n      jumpi\n      dup1\n      0xe1f1c48d\n      eq\n      tag_9\n      jumpi\n      dup1\n      0xe6f318c6\n      eq\n      tag_10\n      jumpi\n      jump(tag_2)\n    tag_11:\n      dup1\n      0x3844ac5b\n      eq\n      tag_3\n      jumpi\n      dup1\n      0x5cfd6607\n      eq\n      tag_4\n      jumpi\n      dup1\n      0x71671bf2\n      eq\n      tag_5\n      jumpi\n      dup1\n      0x88a01cd7\n      eq\n      tag_6\n      jumpi\n    tag_2:\n      revert(0x00, 0x00)\n        /* \"contracts/manager/TableManager.sol\":1506:1704  function getTableById(uint _tableId) external override view returns (Table memory) {... */\n    tag_3:\n      tag_12\n      0x04\n      dup1\n      calldatasize\n      sub\n      dup2\n      add\n      swap1\n      tag_13\n      swap2\n      swap1\n      tag_14\n      jump\t// in\n    tag_13:\n      tag_15\n      jump\t// in\n    tag_12:\n      mload(0x40)\n      tag_16\n      swap2\n      swap1\n      tag_17\n      jump\t// in\n    tag_16:\n      mload(0x40)\n      dup1\n      swap2\n      sub\n      swap1\n      return\n        /* \"contracts/manager/TableManager.sol\":798:1111  function editTable(uint _tableId, uint _row, uint _col) external override  {... */\n    tag_4:\n      tag_18\n      0x04\n      dup1\n      calldatasize\n      sub\n      dup2\n      add\n      swap1\n      tag_19\n      swap2\n      swap1\n      tag_20\n      jump\t// in\n    tag_19:\n      tag_21\n      jump\t// in\n    tag_18:\n      stop\n        /* \"contracts/manager/TableManager.sol\":148:184  mapping(uint => Table) public tables */\n    tag_5:\n      tag_22\n      0x04\n      dup1\n      calldatasize\n      sub\n      dup2\n      add\n      swap1\n      tag_23\n      swap2\n      swap1\n      tag_14\n      jump\t// in\n    tag_23:\n      tag_24\n      jump\t// in\n    tag_22:\n      mload(0x40)\n      tag_25\n      swap6\n      swap5\n      swap4\n      swap3\n      swap2\n      swap1\n      tag_26\n      jump\t// in\n    tag_25:\n      mload(0x40)\n      dup1\n      swap2\n      sub\n      swap1\n      return\n        /* \"contracts/manager/TableManager.sol\":191:218  uint public nextTableId = 1 */\n    tag_6:\n      tag_27\n      tag_28\n      jump\t// in\n    tag_27:\n      mload(0x40)\n      tag_29\n      swap2\n      swap1\n      tag_30\n      jump\t// in\n    tag_29:\n      mload(0x40)\n      dup1\n      swap2\n      sub\n      swap1\n      return\n        /* \"contracts/manager/TableManager.sol\":227:247  address public owner */\n    tag_7:\n      tag_31\n      tag_32\n      jump\t// in\n    tag_31:\n      mload(0x40)\n      tag_33\n      swap2\n      swap1\n      tag_34\n      jump\t// in\n    tag_33:\n      mload(0x40)\n      dup1\n      swap2\n      sub\n      swap1\n      return\n        /* \"contracts/manager/TableManager.sol\":1297:1498  function updateStaffTable(uint _tableId, uint _staffId) external override {... */\n    tag_8:\n      tag_35\n      0x04\n      dup1\n      calldatasize\n      sub\n      dup2\n      add\n      swap1\n      tag_36\n      swap2\n      swap1\n      tag_37\n      jump\t// in\n    tag_36:\n      tag_38\n      jump\t// in\n    tag_35:\n      stop\n        /* \"contracts/manager/TableManager.sol\":315:790  function addTable(uint _row, uint _col) external override returns (uint) {... */\n    tag_9:\n      tag_39\n      0x04\n      dup1\n      calldatasize\n      sub\n      dup2\n      add\n      swap1\n      tag_40\n      swap2\n      swap1\n      tag_37\n      jump\t// in\n    tag_40:\n      tag_41\n      jump\t// in\n    tag_39:\n      mload(0x40)\n      tag_42\n      swap2\n      swap1\n      tag_30\n      jump\t// in\n    tag_42:\n      mload(0x40)\n      dup1\n      swap2\n      sub\n      swap1\n      return\n        /* \"contracts/manager/TableManager.sol\":1119:1289  function deleteTable(uint _tableId) external override  {... */\n    tag_10:\n      tag_43\n      0x04\n      dup1\n      calldatasize\n      sub\n      dup2\n      add\n      swap1\n      tag_44\n      swap2\n      swap1\n      tag_14\n      jump\t// in\n    tag_44:\n      tag_45\n      jump\t// in\n    tag_43:\n      stop\n        /* \"contracts/manager/TableManager.sol\":1506:1704  function getTableById(uint _tableId) external override view returns (Table memory) {... */\n    tag_15:\n        /* \"contracts/manager/TableManager.sol\":1575:1587  Table memory */\n      tag_46\n      tag_47\n      jump\t// in\n    tag_46:\n        /* \"contracts/manager/TableManager.sol\":1636:1637  0 */\n      0x00\n        /* \"contracts/manager/TableManager.sol\":1608:1614  tables */\n      0x00\n        /* \"contracts/manager/TableManager.sol\":1608:1624  tables[_tableId] */\n      0x00\n        /* \"contracts/manager/TableManager.sol\":1615:1623  _tableId */\n      dup5\n        /* \"contracts/manager/TableManager.sol\":1608:1624  tables[_tableId] */\n      dup2\n      mstore\n      0x20\n      add\n      swap1\n      dup2\n      mstore\n      0x20\n      add\n      0x00\n      keccak256\n        /* \"contracts/manager/TableManager.sol\":1608:1632  tables[_tableId].tableId */\n      0x00\n      add\n      sload\n        /* \"contracts/manager/TableManager.sol\":1608:1637  tables[_tableId].tableId != 0 */\n      sub\n        /* \"contracts/manager/TableManager.sol\":1600:1662  require(tables[_tableId].tableId != 0, \"Table does not exist\") */\n      tag_49\n      jumpi\n      mload(0x40)\n      0x08c379a000000000000000000000000000000000000000000000000000000000\n      dup2\n      mstore\n      0x04\n      add\n      tag_50\n      swap1\n      tag_51\n      jump\t// in\n    tag_50:\n      mload(0x40)\n      dup1\n      swap2\n      sub\n      swap1\n      revert\n    tag_49:\n        /* \"contracts/manager/TableManager.sol\":1680:1686  tables */\n      0x00\n        /* \"contracts/manager/TableManager.sol\":1680:1696  tables[_tableId] */\n      0x00\n        /* \"contracts/manager/TableManager.sol\":1687:1695  _tableId */\n      dup4\n        /* \"contracts/manager/TableManager.sol\":1680:1696  tables[_tableId] */\n      dup2\n      mstore\n      0x20\n      add\n      swap1\n      dup2\n      mstore\n      0x20\n      add\n      0x00\n      keccak256\n        /* \"contracts/manager/TableManager.sol\":1673:1696  return tables[_tableId] */\n      mload(0x40)\n      dup1\n      0xa0\n      add\n      0x40\n      mstore\n      swap1\n      dup2\n      0x00\n      dup3\n      add\n      sload\n      dup2\n      mstore\n      0x20\n      add\n      0x01\n      dup3\n      add\n      sload\n      dup2\n      mstore\n      0x20\n      add\n      0x02\n      dup3\n      add\n      sload\n      dup2\n      mstore\n      0x20\n      add\n      0x03\n      dup3\n      add\n      sload\n      dup2\n      mstore\n      0x20\n      add\n      0x04\n      dup3\n      add\n      0x00\n      swap1\n      sload\n      swap1\n      0x0100\n      exp\n      swap1\n      div\n      0xff\n      and\n      iszero\n      iszero\n      iszero\n      iszero\n      dup2\n      mstore\n      pop\n      pop\n      swap1\n      pop\n        /* \"contracts/manager/TableManager.sol\":1506:1704  function getTableById(uint _tableId) external override view returns (Table memory) {... */\n      swap2\n      swap1\n      pop\n      jump\t// out\n        /* \"contracts/manager/TableManager.sol\":798:1111  function editTable(uint _tableId, uint _row, uint _col) external override  {... */\n    tag_21:\n        /* \"contracts/manager/TableManager.sol\":920:921  0 */\n      0x00\n        /* \"contracts/manager/TableManager.sol\":892:898  tables */\n      0x00\n        /* \"contracts/manager/TableManager.sol\":892:908  tables[_tableId] */\n      0x00\n        /* \"contracts/manager/TableManager.sol\":899:907  _tableId */\n      dup6\n        /* \"contracts/manager/TableManager.sol\":892:908  tables[_tableId] */\n      dup2\n      mstore\n      0x20\n      add\n      swap1\n      dup2\n      mstore\n      0x20\n      add\n      0x00\n      keccak256\n        /* \"contracts/manager/TableManager.sol\":892:916  tables[_tableId].tableId */\n      0x00\n      add\n      sload\n        /* \"contracts/manager/TableManager.sol\":892:921  tables[_tableId].tableId != 0 */\n      sub\n        /* \"contracts/manager/TableManager.sol\":884:946  require(tables[_tableId].tableId != 0, \"Table does not exist\") */\n      tag_53\n      jumpi\n      mload(0x40)\n      0x08c379a000000000000000000000000000000000000000000000000000000000\n      dup2\n      mstore\n      0x04\n      add\n      tag_54\n      swap1\n      tag_51\n      jump\t// in\n    tag_54:\n      mload(0x40)\n      dup1\n      swap2\n      sub\n      swap1\n      revert\n    tag_53:\n        /* \"contracts/manager/TableManager.sol\":972:973  0 */\n      0x00\n        /* \"contracts/manager/TableManager.sol\":965:969  _row */\n      dup3\n        /* \"contracts/manager/TableManager.sol\":965:973  _row > 0 */\n      gt\n        /* \"contracts/manager/TableManager.sol\":965:985  _row > 0 && _col > 0 */\n      dup1\n      iszero\n      tag_55\n      jumpi\n      pop\n        /* \"contracts/manager/TableManager.sol\":984:985  0 */\n      0x00\n        /* \"contracts/manager/TableManager.sol\":977:981  _col */\n      dup2\n        /* \"contracts/manager/TableManager.sol\":977:985  _col > 0 */\n      gt\n        /* \"contracts/manager/TableManager.sol\":965:985  _row > 0 && _col > 0 */\n    tag_55:\n        /* \"contracts/manager/TableManager.sol\":957:1027  require(_row > 0 && _col > 0, \"Row and column must be greater than 0\") */\n      tag_56\n      jumpi\n      mload(0x40)\n      0x08c379a000000000000000000000000000000000000000000000000000000000\n      dup2\n      mstore\n      0x04\n      add\n      tag_57\n      swap1\n      tag_58\n      jump\t// in\n    tag_57:\n      mload(0x40)\n      dup1\n      swap2\n      sub\n      swap1\n      revert\n    tag_56:\n        /* \"contracts/manager/TableManager.sol\":1061:1065  _row */\n      dup2\n        /* \"contracts/manager/TableManager.sol\":1038:1044  tables */\n      0x00\n        /* \"contracts/manager/TableManager.sol\":1038:1054  tables[_tableId] */\n      0x00\n        /* \"contracts/manager/TableManager.sol\":1045:1053  _tableId */\n      dup6\n        /* \"contracts/manager/TableManager.sol\":1038:1054  tables[_tableId] */\n      dup2\n      mstore\n      0x20\n      add\n      swap1\n      dup2\n      mstore\n      0x20\n      add\n      0x00\n      keccak256\n        /* \"contracts/manager/TableManager.sol\":1038:1058  tables[_tableId].row */\n      0x01\n      add\n        /* \"contracts/manager/TableManager.sol\":1038:1065  tables[_tableId].row = _row */\n      dup2\n      swap1\n      sstore\n      pop\n        /* \"contracts/manager/TableManager.sol\":1099:1103  _col */\n      dup1\n        /* \"contracts/manager/TableManager.sol\":1076:1082  tables */\n      0x00\n        /* \"contracts/manager/TableManager.sol\":1076:1092  tables[_tableId] */\n      0x00\n        /* \"contracts/manager/TableManager.sol\":1083:1091  _tableId */\n      dup6\n        /* \"contracts/manager/TableManager.sol\":1076:1092  tables[_tableId] */\n      dup2\n      mstore\n      0x20\n      add\n      swap1\n      dup2\n      mstore\n      0x20\n      add\n      0x00\n      keccak256\n        /* \"contracts/manager/TableManager.sol\":1076:1096  tables[_tableId].col */\n      0x02\n      add\n        /* \"contracts/manager/TableManager.sol\":1076:1103  tables[_tableId].col = _col */\n      dup2\n      swap1\n      sstore\n      pop\n        /* \"contracts/manager/TableManager.sol\":798:1111  function editTable(uint _tableId, uint _row, uint _col) external override  {... */\n      pop\n      pop\n      pop\n      jump\t// out\n        /* \"contracts/manager/TableManager.sol\":148:184  mapping(uint => Table) public tables */\n    tag_24:\n      mstore(0x20, 0x00)\n      dup1\n      0x00\n      mstore\n      keccak256(0x00, 0x40)\n      0x00\n      swap2\n      pop\n      swap1\n      pop\n      dup1\n      0x00\n      add\n      sload\n      swap1\n      dup1\n      0x01\n      add\n      sload\n      swap1\n      dup1\n      0x02\n      add\n      sload\n      swap1\n      dup1\n      0x03\n      add\n      sload\n      swap1\n      dup1\n      0x04\n      add\n      0x00\n      swap1\n      sload\n      swap1\n      0x0100\n      exp\n      swap1\n      div\n      0xff\n      and\n      swap1\n      pop\n      dup6\n      jump\t// out\n        /* \"contracts/manager/TableManager.sol\":191:218  uint public nextTableId = 1 */\n    tag_28:\n      sload(0x01)\n      dup2\n      jump\t// out\n        /* \"contracts/manager/TableManager.sol\":227:247  address public owner */\n    tag_32:\n      0x02\n      0x00\n      swap1\n      sload\n      swap1\n      0x0100\n      exp\n      swap1\n      div\n      0xffffffffffffffffffffffffffffffffffffffff\n      and\n      dup2\n      jump\t// out\n        /* \"contracts/manager/TableManager.sol\":1297:1498  function updateStaffTable(uint _tableId, uint _staffId) external override {... */\n    tag_38:\n        /* \"contracts/manager/TableManager.sol\":1418:1419  0 */\n      0x00\n        /* \"contracts/manager/TableManager.sol\":1390:1396  tables */\n      0x00\n        /* \"contracts/manager/TableManager.sol\":1390:1406  tables[_tableId] */\n      0x00\n        /* \"contracts/manager/TableManager.sol\":1397:1405  _tableId */\n      dup5\n        /* \"contracts/manager/TableManager.sol\":1390:1406  tables[_tableId] */\n      dup2\n      mstore\n      0x20\n      add\n      swap1\n      dup2\n      mstore\n      0x20\n      add\n      0x00\n      keccak256\n        /* \"contracts/manager/TableManager.sol\":1390:1414  tables[_tableId].tableId */\n      0x00\n      add\n      sload\n        /* \"contracts/manager/TableManager.sol\":1390:1419  tables[_tableId].tableId != 0 */\n      sub\n        /* \"contracts/manager/TableManager.sol\":1382:1444  require(tables[_tableId].tableId != 0, \"Table does not exist\") */\n      tag_60\n      jumpi\n      mload(0x40)\n      0x08c379a000000000000000000000000000000000000000000000000000000000\n      dup2\n      mstore\n      0x04\n      add\n      tag_61\n      swap1\n      tag_51\n      jump\t// in\n    tag_61:\n      mload(0x40)\n      dup1\n      swap2\n      sub\n      swap1\n      revert\n    tag_60:\n        /* \"contracts/manager/TableManager.sol\":1482:1490  _staffId */\n      dup1\n        /* \"contracts/manager/TableManager.sol\":1455:1461  tables */\n      0x00\n        /* \"contracts/manager/TableManager.sol\":1455:1471  tables[_tableId] */\n      0x00\n        /* \"contracts/manager/TableManager.sol\":1462:1470  _tableId */\n      dup5\n        /* \"contracts/manager/TableManager.sol\":1455:1471  tables[_tableId] */\n      dup2\n      mstore\n      0x20\n      add\n      swap1\n      dup2\n      mstore\n      0x20\n      add\n      0x00\n      keccak256\n        /* \"contracts/manager/TableManager.sol\":1455:1479  tables[_tableId].staffId */\n      0x03\n      add\n        /* \"contracts/manager/TableManager.sol\":1455:1490  tables[_tableId].staffId = _staffId */\n      dup2\n      swap1\n      sstore\n      pop\n        /* \"contracts/manager/TableManager.sol\":1297:1498  function updateStaffTable(uint _tableId, uint _staffId) external override {... */\n      pop\n      pop\n      jump\t// out\n        /* \"contracts/manager/TableManager.sol\":315:790  function addTable(uint _row, uint _col) external override returns (uint) {... */\n    tag_41:\n        /* \"contracts/manager/TableManager.sol\":382:386  uint */\n      0x00\n        /* \"contracts/manager/TableManager.sol\":414:415  0 */\n      0x00\n        /* \"contracts/manager/TableManager.sol\":407:411  _row */\n      dup4\n        /* \"contracts/manager/TableManager.sol\":407:415  _row > 0 */\n      gt\n        /* \"contracts/manager/TableManager.sol\":407:427  _row > 0 && _col > 0 */\n      dup1\n      iszero\n      tag_63\n      jumpi\n      pop\n        /* \"contracts/manager/TableManager.sol\":426:427  0 */\n      0x00\n        /* \"contracts/manager/TableManager.sol\":419:423  _col */\n      dup3\n        /* \"contracts/manager/TableManager.sol\":419:427  _col > 0 */\n      gt\n        /* \"contracts/manager/TableManager.sol\":407:427  _row > 0 && _col > 0 */\n    tag_63:\n        /* \"contracts/manager/TableManager.sol\":399:469  require(_row > 0 && _col > 0, \"Row and column must be greater than 0\") */\n      tag_64\n      jumpi\n      mload(0x40)\n      0x08c379a000000000000000000000000000000000000000000000000000000000\n      dup2\n      mstore\n      0x04\n      add\n      tag_65\n      swap1\n      tag_58\n      jump\t// in\n    tag_65:\n      mload(0x40)\n      dup1\n      swap2\n      sub\n      swap1\n      revert\n    tag_64:\n        /* \"contracts/manager/TableManager.sol\":480:495  uint newTableId */\n      0x00\n        /* \"contracts/manager/TableManager.sol\":498:509  nextTableId */\n      0x01\n      0x00\n        /* \"contracts/manager/TableManager.sol\":498:511  nextTableId++ */\n      dup2\n      sload\n      dup1\n      swap3\n      swap2\n      swap1\n      tag_66\n      swap1\n      tag_67\n      jump\t// in\n    tag_66:\n      swap2\n      swap1\n      pop\n      sstore\n        /* \"contracts/manager/TableManager.sol\":480:511  uint newTableId = nextTableId++ */\n      swap1\n      pop\n        /* \"contracts/manager/TableManager.sol\":543:754  Table({... */\n      mload(0x40)\n      dup1\n      0xa0\n      add\n      0x40\n      mstore\n      dup1\n        /* \"contracts/manager/TableManager.sol\":573:583  newTableId */\n      dup3\n        /* \"contracts/manager/TableManager.sol\":543:754  Table({... */\n      dup2\n      mstore\n      0x20\n      add\n        /* \"contracts/manager/TableManager.sol\":603:607  _row */\n      dup6\n        /* \"contracts/manager/TableManager.sol\":543:754  Table({... */\n      dup2\n      mstore\n      0x20\n      add\n        /* \"contracts/manager/TableManager.sol\":627:631  _col */\n      dup5\n        /* \"contracts/manager/TableManager.sol\":543:754  Table({... */\n      dup2\n      mstore\n      0x20\n      add\n        /* \"contracts/manager/TableManager.sol\":655:656  0 */\n      0x00\n        /* \"contracts/manager/TableManager.sol\":543:754  Table({... */\n      dup2\n      mstore\n      0x20\n      add\n        /* \"contracts/manager/TableManager.sol\":737:742  false */\n      0x00\n        /* \"contracts/manager/TableManager.sol\":543:754  Table({... */\n      iszero\n      iszero\n      dup2\n      mstore\n      pop\n        /* \"contracts/manager/TableManager.sol\":522:528  tables */\n      0x00\n        /* \"contracts/manager/TableManager.sol\":522:540  tables[newTableId] */\n      0x00\n        /* \"contracts/manager/TableManager.sol\":529:539  newTableId */\n      dup4\n        /* \"contracts/manager/TableManager.sol\":522:540  tables[newTableId] */\n      dup2\n      mstore\n      0x20\n      add\n      swap1\n      dup2\n      mstore\n      0x20\n      add\n      0x00\n      keccak256\n        /* \"contracts/manager/TableManager.sol\":522:754  tables[newTableId] = Table({... */\n      0x00\n      dup3\n      add\n      mload\n      dup2\n      0x00\n      add\n      sstore\n      0x20\n      dup3\n      add\n      mload\n      dup2\n      0x01\n      add\n      sstore\n      0x40\n      dup3\n      add\n      mload\n      dup2\n      0x02\n      add\n      sstore\n      0x60\n      dup3\n      add\n      mload\n      dup2\n      0x03\n      add\n      sstore\n      0x80\n      dup3\n      add\n      mload\n      dup2\n      0x04\n      add\n      exp(0x0100, 0x00)\n      dup2\n      sload\n      dup2\n      0xff\n      mul\n      not\n      and\n      swap1\n      dup4\n      iszero\n      iszero\n      mul\n      or\n      swap1\n      sstore\n      pop\n      swap1\n      pop\n      pop\n        /* \"contracts/manager/TableManager.sol\":772:782  newTableId */\n      dup1\n        /* \"contracts/manager/TableManager.sol\":765:782  return newTableId */\n      swap2\n      pop\n      pop\n        /* \"contracts/manager/TableManager.sol\":315:790  function addTable(uint _row, uint _col) external override returns (uint) {... */\n      swap3\n      swap2\n      pop\n      pop\n      jump\t// out\n        /* \"contracts/manager/TableManager.sol\":1119:1289  function deleteTable(uint _tableId) external override  {... */\n    tag_45:\n        /* \"contracts/manager/TableManager.sol\":1221:1222  0 */\n      0x00\n        /* \"contracts/manager/TableManager.sol\":1193:1199  tables */\n      0x00\n        /* \"contracts/manager/TableManager.sol\":1193:1209  tables[_tableId] */\n      0x00\n        /* \"contracts/manager/TableManager.sol\":1200:1208  _tableId */\n      dup4\n        /* \"contracts/manager/TableManager.sol\":1193:1209  tables[_tableId] */\n      dup2\n      mstore\n      0x20\n      add\n      swap1\n      dup2\n      mstore\n      0x20\n      add\n      0x00\n      keccak256\n        /* \"contracts/manager/TableManager.sol\":1193:1217  tables[_tableId].tableId */\n      0x00\n      add\n      sload\n        /* \"contracts/manager/TableManager.sol\":1193:1222  tables[_tableId].tableId != 0 */\n      sub\n        /* \"contracts/manager/TableManager.sol\":1185:1247  require(tables[_tableId].tableId != 0, \"Table does not exist\") */\n      tag_69\n      jumpi\n      mload(0x40)\n      0x08c379a000000000000000000000000000000000000000000000000000000000\n      dup2\n      mstore\n      0x04\n      add\n      tag_70\n      swap1\n      tag_51\n      jump\t// in\n    tag_70:\n      mload(0x40)\n      dup1\n      swap2\n      sub\n      swap1\n      revert\n    tag_69:\n        /* \"contracts/manager/TableManager.sol\":1265:1271  tables */\n      0x00\n        /* \"contracts/manager/TableManager.sol\":1265:1281  tables[_tableId] */\n      0x00\n        /* \"contracts/manager/TableManager.sol\":1272:1280  _tableId */\n      dup3\n        /* \"contracts/manager/TableManager.sol\":1265:1281  tables[_tableId] */\n      dup2\n      mstore\n      0x20\n      add\n      swap1\n      dup2\n      mstore\n      0x20\n      add\n      0x00\n      keccak256\n      0x00\n        /* \"contracts/manager/TableManager.sol\":1258:1281  delete tables[_tableId] */\n      0x00\n      dup3\n      add\n      0x00\n      swap1\n      sstore\n      0x01\n      dup3\n      add\n      0x00\n      swap1\n      sstore\n      0x02\n      dup3\n      add\n      0x00\n      swap1\n      sstore\n      0x03\n      dup3\n      add\n      0x00\n      swap1\n      sstore\n      0x04\n      dup3\n      add\n      exp(0x0100, 0x00)\n      dup2\n      sload\n      swap1\n      0xff\n      mul\n      not\n      and\n      swap1\n      sstore\n      pop\n      pop\n        /* \"contracts/manager/TableManager.sol\":1119:1289  function deleteTable(uint _tableId) external override  {... */\n      pop\n      jump\t// out\n    tag_47:\n      mload(0x40)\n      dup1\n      0xa0\n      add\n      0x40\n      mstore\n      dup1\n      0x00\n      dup2\n      mstore\n      0x20\n      add\n      0x00\n      dup2\n      mstore\n      0x20\n      add\n      0x00\n      dup2\n      mstore\n      0x20\n      add\n      0x00\n      dup2\n      mstore\n      0x20\n      add\n      iszero(iszero(0x00))\n      dup2\n      mstore\n      pop\n      swap1\n      jump\t// out\n        /* \"#utility.yul\":88:205   */\n    tag_72:\n        /* \"#utility.yul\":197:198   */\n      0x00\n        /* \"#utility.yul\":194:195   */\n      0x00\n        /* \"#utility.yul\":187:199   */\n      revert\n        /* \"#utility.yul\":334:411   */\n    tag_74:\n        /* \"#utility.yul\":371:378   */\n      0x00\n        /* \"#utility.yul\":400:405   */\n      dup2\n        /* \"#utility.yul\":389:405   */\n      swap1\n      pop\n        /* \"#utility.yul\":334:411   */\n      swap2\n      swap1\n      pop\n      jump\t// out\n        /* \"#utility.yul\":417:539   */\n    tag_75:\n        /* \"#utility.yul\":490:514   */\n      tag_98\n        /* \"#utility.yul\":508:513   */\n      dup2\n        /* \"#utility.yul\":490:514   */\n      tag_74\n      jump\t// in\n    tag_98:\n        /* \"#utility.yul\":483:488   */\n      dup2\n        /* \"#utility.yul\":480:515   */\n      eq\n        /* \"#utility.yul\":470:533   */\n      tag_99\n      jumpi\n        /* \"#utility.yul\":529:530   */\n      0x00\n        /* \"#utility.yul\":526:527   */\n      0x00\n        /* \"#utility.yul\":519:531   */\n      revert\n        /* \"#utility.yul\":470:533   */\n    tag_99:\n        /* \"#utility.yul\":417:539   */\n      pop\n      jump\t// out\n        /* \"#utility.yul\":545:684   */\n    tag_76:\n        /* \"#utility.yul\":591:596   */\n      0x00\n        /* \"#utility.yul\":629:635   */\n      dup2\n        /* \"#utility.yul\":616:636   */\n      calldataload\n        /* \"#utility.yul\":607:636   */\n      swap1\n      pop\n        /* \"#utility.yul\":645:678   */\n      tag_101\n        /* \"#utility.yul\":672:677   */\n      dup2\n        /* \"#utility.yul\":645:678   */\n      tag_75\n      jump\t// in\n    tag_101:\n        /* \"#utility.yul\":545:684   */\n      swap3\n      swap2\n      pop\n      pop\n      jump\t// out\n        /* \"#utility.yul\":690:1019   */\n    tag_14:\n        /* \"#utility.yul\":749:755   */\n      0x00\n        /* \"#utility.yul\":798:800   */\n      0x20\n        /* \"#utility.yul\":786:795   */\n      dup3\n        /* \"#utility.yul\":777:784   */\n      dup5\n        /* \"#utility.yul\":773:796   */\n      sub\n        /* \"#utility.yul\":769:801   */\n      slt\n        /* \"#utility.yul\":766:885   */\n      iszero\n      tag_103\n      jumpi\n        /* \"#utility.yul\":804:883   */\n      tag_104\n      tag_72\n      jump\t// in\n    tag_104:\n        /* \"#utility.yul\":766:885   */\n    tag_103:\n        /* \"#utility.yul\":924:925   */\n      0x00\n        /* \"#utility.yul\":949:1002   */\n      tag_105\n        /* \"#utility.yul\":994:1001   */\n      dup5\n        /* \"#utility.yul\":985:991   */\n      dup3\n        /* \"#utility.yul\":974:983   */\n      dup6\n        /* \"#utility.yul\":970:992   */\n      add\n        /* \"#utility.yul\":949:1002   */\n      tag_76\n      jump\t// in\n    tag_105:\n        /* \"#utility.yul\":939:1002   */\n      swap2\n      pop\n        /* \"#utility.yul\":895:1012   */\n      pop\n        /* \"#utility.yul\":690:1019   */\n      swap3\n      swap2\n      pop\n      pop\n      jump\t// out\n        /* \"#utility.yul\":1025:1133   */\n    tag_77:\n        /* \"#utility.yul\":1102:1126   */\n      tag_107\n        /* \"#utility.yul\":1120:1125   */\n      dup2\n        /* \"#utility.yul\":1102:1126   */\n      tag_74\n      jump\t// in\n    tag_107:\n        /* \"#utility.yul\":1097:1100   */\n      dup3\n        /* \"#utility.yul\":1090:1127   */\n      mstore\n        /* \"#utility.yul\":1025:1133   */\n      pop\n      pop\n      jump\t// out\n        /* \"#utility.yul\":1139:1229   */\n    tag_78:\n        /* \"#utility.yul\":1173:1180   */\n      0x00\n        /* \"#utility.yul\":1216:1221   */\n      dup2\n        /* \"#utility.yul\":1209:1222   */\n      iszero\n        /* \"#utility.yul\":1202:1223   */\n      iszero\n        /* \"#utility.yul\":1191:1223   */\n      swap1\n      pop\n        /* \"#utility.yul\":1139:1229   */\n      swap2\n      swap1\n      pop\n      jump\t// out\n        /* \"#utility.yul\":1235:1334   */\n    tag_79:\n        /* \"#utility.yul\":1306:1327   */\n      tag_110\n        /* \"#utility.yul\":1321:1326   */\n      dup2\n        /* \"#utility.yul\":1306:1327   */\n      tag_78\n      jump\t// in\n    tag_110:\n        /* \"#utility.yul\":1301:1304   */\n      dup3\n        /* \"#utility.yul\":1294:1328   */\n      mstore\n        /* \"#utility.yul\":1235:1334   */\n      pop\n      pop\n      jump\t// out\n        /* \"#utility.yul\":1404:2429   */\n    tag_80:\n        /* \"#utility.yul\":1543:1547   */\n      0xa0\n        /* \"#utility.yul\":1538:1541   */\n      dup3\n        /* \"#utility.yul\":1534:1548   */\n      add\n        /* \"#utility.yul\":1633:1637   */\n      0x00\n        /* \"#utility.yul\":1626:1631   */\n      dup3\n        /* \"#utility.yul\":1622:1638   */\n      add\n        /* \"#utility.yul\":1616:1639   */\n      mload\n        /* \"#utility.yul\":1652:1715   */\n      tag_112\n        /* \"#utility.yul\":1709:1713   */\n      0x00\n        /* \"#utility.yul\":1704:1707   */\n      dup6\n        /* \"#utility.yul\":1700:1714   */\n      add\n        /* \"#utility.yul\":1686:1698   */\n      dup3\n        /* \"#utility.yul\":1652:1715   */\n      tag_77\n      jump\t// in\n    tag_112:\n        /* \"#utility.yul\":1558:1725   */\n      pop\n        /* \"#utility.yul\":1806:1810   */\n      0x20\n        /* \"#utility.yul\":1799:1804   */\n      dup3\n        /* \"#utility.yul\":1795:1811   */\n      add\n        /* \"#utility.yul\":1789:1812   */\n      mload\n        /* \"#utility.yul\":1825:1888   */\n      tag_113\n        /* \"#utility.yul\":1882:1886   */\n      0x20\n        /* \"#utility.yul\":1877:1880   */\n      dup6\n        /* \"#utility.yul\":1873:1887   */\n      add\n        /* \"#utility.yul\":1859:1871   */\n      dup3\n        /* \"#utility.yul\":1825:1888   */\n      tag_77\n      jump\t// in\n    tag_113:\n        /* \"#utility.yul\":1735:1898   */\n      pop\n        /* \"#utility.yul\":1979:1983   */\n      0x40\n        /* \"#utility.yul\":1972:1977   */\n      dup3\n        /* \"#utility.yul\":1968:1984   */\n      add\n        /* \"#utility.yul\":1962:1985   */\n      mload\n        /* \"#utility.yul\":1998:2061   */\n      tag_114\n        /* \"#utility.yul\":2055:2059   */\n      0x40\n        /* \"#utility.yul\":2050:2053   */\n      dup6\n        /* \"#utility.yul\":2046:2060   */\n      add\n        /* \"#utility.yul\":2032:2044   */\n      dup3\n        /* \"#utility.yul\":1998:2061   */\n      tag_77\n      jump\t// in\n    tag_114:\n        /* \"#utility.yul\":1908:2071   */\n      pop\n        /* \"#utility.yul\":2156:2160   */\n      0x60\n        /* \"#utility.yul\":2149:2154   */\n      dup3\n        /* \"#utility.yul\":2145:2161   */\n      add\n        /* \"#utility.yul\":2139:2162   */\n      mload\n        /* \"#utility.yul\":2175:2238   */\n      tag_115\n        /* \"#utility.yul\":2232:2236   */\n      0x60\n        /* \"#utility.yul\":2227:2230   */\n      dup6\n        /* \"#utility.yul\":2223:2237   */\n      add\n        /* \"#utility.yul\":2209:2221   */\n      dup3\n        /* \"#utility.yul\":2175:2238   */\n      tag_77\n      jump\t// in\n    tag_115:\n        /* \"#utility.yul\":2081:2248   */\n      pop\n        /* \"#utility.yul\":2336:2340   */\n      0x80\n        /* \"#utility.yul\":2329:2334   */\n      dup3\n        /* \"#utility.yul\":2325:2341   */\n      add\n        /* \"#utility.yul\":2319:2342   */\n      mload\n        /* \"#utility.yul\":2355:2412   */\n      tag_116\n        /* \"#utility.yul\":2406:2410   */\n      0x80\n        /* \"#utility.yul\":2401:2404   */\n      dup6\n        /* \"#utility.yul\":2397:2411   */\n      add\n        /* \"#utility.yul\":2383:2395   */\n      dup3\n        /* \"#utility.yul\":2355:2412   */\n      tag_79\n      jump\t// in\n    tag_116:\n        /* \"#utility.yul\":2258:2422   */\n      pop\n        /* \"#utility.yul\":1512:2429   */\n      pop\n        /* \"#utility.yul\":1404:2429   */\n      pop\n      pop\n      jump\t// out\n        /* \"#utility.yul\":2435:2742   */\n    tag_17:\n        /* \"#utility.yul\":2570:2574   */\n      0x00\n        /* \"#utility.yul\":2608:2611   */\n      0xa0\n        /* \"#utility.yul\":2597:2606   */\n      dup3\n        /* \"#utility.yul\":2593:2612   */\n      add\n        /* \"#utility.yul\":2585:2612   */\n      swap1\n      pop\n        /* \"#utility.yul\":2622:2735   */\n      tag_118\n        /* \"#utility.yul\":2732:2733   */\n      0x00\n        /* \"#utility.yul\":2721:2730   */\n      dup4\n        /* \"#utility.yul\":2717:2734   */\n      add\n        /* \"#utility.yul\":2708:2714   */\n      dup5\n        /* \"#utility.yul\":2622:2735   */\n      tag_80\n      jump\t// in\n    tag_118:\n        /* \"#utility.yul\":2435:2742   */\n      swap3\n      swap2\n      pop\n      pop\n      jump\t// out\n        /* \"#utility.yul\":2748:3367   */\n    tag_20:\n        /* \"#utility.yul\":2825:2831   */\n      0x00\n        /* \"#utility.yul\":2833:2839   */\n      0x00\n        /* \"#utility.yul\":2841:2847   */\n      0x00\n        /* \"#utility.yul\":2890:2892   */\n      0x60\n        /* \"#utility.yul\":2878:2887   */\n      dup5\n        /* \"#utility.yul\":2869:2876   */\n      dup7\n        /* \"#utility.yul\":2865:2888   */\n      sub\n        /* \"#utility.yul\":2861:2893   */\n      slt\n        /* \"#utility.yul\":2858:2977   */\n      iszero\n      tag_120\n      jumpi\n        /* \"#utility.yul\":2896:2975   */\n      tag_121\n      tag_72\n      jump\t// in\n    tag_121:\n        /* \"#utility.yul\":2858:2977   */\n    tag_120:\n        /* \"#utility.yul\":3016:3017   */\n      0x00\n        /* \"#utility.yul\":3041:3094   */\n      tag_122\n        /* \"#utility.yul\":3086:3093   */\n      dup7\n        /* \"#utility.yul\":3077:3083   */\n      dup3\n        /* \"#utility.yul\":3066:3075   */\n      dup8\n        /* \"#utility.yul\":3062:3084   */\n      add\n        /* \"#utility.yul\":3041:3094   */\n      tag_76\n      jump\t// in\n    tag_122:\n        /* \"#utility.yul\":3031:3094   */\n      swap4\n      pop\n        /* \"#utility.yul\":2987:3104   */\n      pop\n        /* \"#utility.yul\":3143:3145   */\n      0x20\n        /* \"#utility.yul\":3169:3222   */\n      tag_123\n        /* \"#utility.yul\":3214:3221   */\n      dup7\n        /* \"#utility.yul\":3205:3211   */\n      dup3\n        /* \"#utility.yul\":3194:3203   */\n      dup8\n        /* \"#utility.yul\":3190:3212   */\n      add\n        /* \"#utility.yul\":3169:3222   */\n      tag_76\n      jump\t// in\n    tag_123:\n        /* \"#utility.yul\":3159:3222   */\n      swap3\n      pop\n        /* \"#utility.yul\":3114:3232   */\n      pop\n        /* \"#utility.yul\":3271:3273   */\n      0x40\n        /* \"#utility.yul\":3297:3350   */\n      tag_124\n        /* \"#utility.yul\":3342:3349   */\n      dup7\n        /* \"#utility.yul\":3333:3339   */\n      dup3\n        /* \"#utility.yul\":3322:3331   */\n      dup8\n        /* \"#utility.yul\":3318:3340   */\n      add\n        /* \"#utility.yul\":3297:3350   */\n      tag_76\n      jump\t// in\n    tag_124:\n        /* \"#utility.yul\":3287:3350   */\n      swap2\n      pop\n        /* \"#utility.yul\":3242:3360   */\n      pop\n        /* \"#utility.yul\":2748:3367   */\n      swap3\n      pop\n      swap3\n      pop\n      swap3\n      jump\t// out\n        /* \"#utility.yul\":3373:3491   */\n    tag_81:\n        /* \"#utility.yul\":3460:3484   */\n      tag_126\n        /* \"#utility.yul\":3478:3483   */\n      dup2\n        /* \"#utility.yul\":3460:3484   */\n      tag_74\n      jump\t// in\n    tag_126:\n        /* \"#utility.yul\":3455:3458   */\n      dup3\n        /* \"#utility.yul\":3448:3485   */\n      mstore\n        /* \"#utility.yul\":3373:3491   */\n      pop\n      pop\n      jump\t// out\n        /* \"#utility.yul\":3497:3606   */\n    tag_82:\n        /* \"#utility.yul\":3578:3599   */\n      tag_128\n        /* \"#utility.yul\":3593:3598   */\n      dup2\n        /* \"#utility.yul\":3578:3599   */\n      tag_78\n      jump\t// in\n    tag_128:\n        /* \"#utility.yul\":3573:3576   */\n      dup3\n        /* \"#utility.yul\":3566:3600   */\n      mstore\n        /* \"#utility.yul\":3497:3606   */\n      pop\n      pop\n      jump\t// out\n        /* \"#utility.yul\":3612:4264   */\n    tag_26:\n        /* \"#utility.yul\":3811:3815   */\n      0x00\n        /* \"#utility.yul\":3849:3852   */\n      0xa0\n        /* \"#utility.yul\":3838:3847   */\n      dup3\n        /* \"#utility.yul\":3834:3853   */\n      add\n        /* \"#utility.yul\":3826:3853   */\n      swap1\n      pop\n        /* \"#utility.yul\":3863:3934   */\n      tag_130\n        /* \"#utility.yul\":3931:3932   */\n      0x00\n        /* \"#utility.yul\":3920:3929   */\n      dup4\n        /* \"#utility.yul\":3916:3933   */\n      add\n        /* \"#utility.yul\":3907:3913   */\n      dup9\n        /* \"#utility.yul\":3863:3934   */\n      tag_81\n      jump\t// in\n    tag_130:\n        /* \"#utility.yul\":3944:4016   */\n      tag_131\n        /* \"#utility.yul\":4012:4014   */\n      0x20\n        /* \"#utility.yul\":4001:4010   */\n      dup4\n        /* \"#utility.yul\":3997:4015   */\n      add\n        /* \"#utility.yul\":3988:3994   */\n      dup8\n        /* \"#utility.yul\":3944:4016   */\n      tag_81\n      jump\t// in\n    tag_131:\n        /* \"#utility.yul\":4026:4098   */\n      tag_132\n        /* \"#utility.yul\":4094:4096   */\n      0x40\n        /* \"#utility.yul\":4083:4092   */\n      dup4\n        /* \"#utility.yul\":4079:4097   */\n      add\n        /* \"#utility.yul\":4070:4076   */\n      dup7\n        /* \"#utility.yul\":4026:4098   */\n      tag_81\n      jump\t// in\n    tag_132:\n        /* \"#utility.yul\":4108:4180   */\n      tag_133\n        /* \"#utility.yul\":4176:4178   */\n      0x60\n        /* \"#utility.yul\":4165:4174   */\n      dup4\n        /* \"#utility.yul\":4161:4179   */\n      add\n        /* \"#utility.yul\":4152:4158   */\n      dup6\n        /* \"#utility.yul\":4108:4180   */\n      tag_81\n      jump\t// in\n    tag_133:\n        /* \"#utility.yul\":4190:4257   */\n      tag_134\n        /* \"#utility.yul\":4252:4255   */\n      0x80\n        /* \"#utility.yul\":4241:4250   */\n      dup4\n        /* \"#utility.yul\":4237:4256   */\n      add\n        /* \"#utility.yul\":4228:4234   */\n      dup5\n        /* \"#utility.yul\":4190:4257   */\n      tag_82\n      jump\t// in\n    tag_134:\n        /* \"#utility.yul\":3612:4264   */\n      swap7\n      swap6\n      pop\n      pop\n      pop\n      pop\n      pop\n      pop\n      jump\t// out\n        /* \"#utility.yul\":4270:4492   */\n    tag_30:\n        /* \"#utility.yul\":4363:4367   */\n      0x00\n        /* \"#utility.yul\":4401:4403   */\n      0x20\n        /* \"#utility.yul\":4390:4399   */\n      dup3\n        /* \"#utility.yul\":4386:4404   */\n      add\n        /* \"#utility.yul\":4378:4404   */\n      swap1\n      pop\n        /* \"#utility.yul\":4414:4485   */\n      tag_136\n        /* \"#utility.yul\":4482:4483   */\n      0x00\n        /* \"#utility.yul\":4471:4480   */\n      dup4\n        /* \"#utility.yul\":4467:4484   */\n      add\n        /* \"#utility.yul\":4458:4464   */\n      dup5\n        /* \"#utility.yul\":4414:4485   */\n      tag_81\n      jump\t// in\n    tag_136:\n        /* \"#utility.yul\":4270:4492   */\n      swap3\n      swap2\n      pop\n      pop\n      jump\t// out\n        /* \"#utility.yul\":4498:4624   */\n    tag_83:\n        /* \"#utility.yul\":4535:4542   */\n      0x00\n        /* \"#utility.yul\":4575:4617   */\n      0xffffffffffffffffffffffffffffffffffffffff\n        /* \"#utility.yul\":4568:4573   */\n      dup3\n        /* \"#utility.yul\":4564:4618   */\n      and\n        /* \"#utility.yul\":4553:4618   */\n      swap1\n      pop\n        /* \"#utility.yul\":4498:4624   */\n      swap2\n      swap1\n      pop\n      jump\t// out\n        /* \"#utility.yul\":4630:4726   */\n    tag_84:\n        /* \"#utility.yul\":4667:4674   */\n      0x00\n        /* \"#utility.yul\":4696:4720   */\n      tag_139\n        /* \"#utility.yul\":4714:4719   */\n      dup3\n        /* \"#utility.yul\":4696:4720   */\n      tag_83\n      jump\t// in\n    tag_139:\n        /* \"#utility.yul\":4685:4720   */\n      swap1\n      pop\n        /* \"#utility.yul\":4630:4726   */\n      swap2\n      swap1\n      pop\n      jump\t// out\n        /* \"#utility.yul\":4732:4850   */\n    tag_85:\n        /* \"#utility.yul\":4819:4843   */\n      tag_141\n        /* \"#utility.yul\":4837:4842   */\n      dup2\n        /* \"#utility.yul\":4819:4843   */\n      tag_84\n      jump\t// in\n    tag_141:\n        /* \"#utility.yul\":4814:4817   */\n      dup3\n        /* \"#utility.yul\":4807:4844   */\n      mstore\n        /* \"#utility.yul\":4732:4850   */\n      pop\n      pop\n      jump\t// out\n        /* \"#utility.yul\":4856:5078   */\n    tag_34:\n        /* \"#utility.yul\":4949:4953   */\n      0x00\n        /* \"#utility.yul\":4987:4989   */\n      0x20\n        /* \"#utility.yul\":4976:4985   */\n      dup3\n        /* \"#utility.yul\":4972:4990   */\n      add\n        /* \"#utility.yul\":4964:4990   */\n      swap1\n      pop\n        /* \"#utility.yul\":5000:5071   */\n      tag_143\n        /* \"#utility.yul\":5068:5069   */\n      0x00\n        /* \"#utility.yul\":5057:5066   */\n      dup4\n        /* \"#utility.yul\":5053:5070   */\n      add\n        /* \"#utility.yul\":5044:5050   */\n      dup5\n        /* \"#utility.yul\":5000:5071   */\n      tag_85\n      jump\t// in\n    tag_143:\n        /* \"#utility.yul\":4856:5078   */\n      swap3\n      swap2\n      pop\n      pop\n      jump\t// out\n        /* \"#utility.yul\":5084:5558   */\n    tag_37:\n        /* \"#utility.yul\":5152:5158   */\n      0x00\n        /* \"#utility.yul\":5160:5166   */\n      0x00\n        /* \"#utility.yul\":5209:5211   */\n      0x40\n        /* \"#utility.yul\":5197:5206   */\n      dup4\n        /* \"#utility.yul\":5188:5195   */\n      dup6\n        /* \"#utility.yul\":5184:5207   */\n      sub\n        /* \"#utility.yul\":5180:5212   */\n      slt\n        /* \"#utility.yul\":5177:5296   */\n      iszero\n      tag_145\n      jumpi\n        /* \"#utility.yul\":5215:5294   */\n      tag_146\n      tag_72\n      jump\t// in\n    tag_146:\n        /* \"#utility.yul\":5177:5296   */\n    tag_145:\n        /* \"#utility.yul\":5335:5336   */\n      0x00\n        /* \"#utility.yul\":5360:5413   */\n      tag_147\n        /* \"#utility.yul\":5405:5412   */\n      dup6\n        /* \"#utility.yul\":5396:5402   */\n      dup3\n        /* \"#utility.yul\":5385:5394   */\n      dup7\n        /* \"#utility.yul\":5381:5403   */\n      add\n        /* \"#utility.yul\":5360:5413   */\n      tag_76\n      jump\t// in\n    tag_147:\n        /* \"#utility.yul\":5350:5413   */\n      swap3\n      pop\n        /* \"#utility.yul\":5306:5423   */\n      pop\n        /* \"#utility.yul\":5462:5464   */\n      0x20\n        /* \"#utility.yul\":5488:5541   */\n      tag_148\n        /* \"#utility.yul\":5533:5540   */\n      dup6\n        /* \"#utility.yul\":5524:5530   */\n      dup3\n        /* \"#utility.yul\":5513:5522   */\n      dup7\n        /* \"#utility.yul\":5509:5531   */\n      add\n        /* \"#utility.yul\":5488:5541   */\n      tag_76\n      jump\t// in\n    tag_148:\n        /* \"#utility.yul\":5478:5541   */\n      swap2\n      pop\n        /* \"#utility.yul\":5433:5551   */\n      pop\n        /* \"#utility.yul\":5084:5558   */\n      swap3\n      pop\n      swap3\n      swap1\n      pop\n      jump\t// out\n        /* \"#utility.yul\":5564:5733   */\n    tag_86:\n        /* \"#utility.yul\":5648:5659   */\n      0x00\n        /* \"#utility.yul\":5682:5688   */\n      dup3\n        /* \"#utility.yul\":5677:5680   */\n      dup3\n        /* \"#utility.yul\":5670:5689   */\n      mstore\n        /* \"#utility.yul\":5722:5726   */\n      0x20\n        /* \"#utility.yul\":5717:5720   */\n      dup3\n        /* \"#utility.yul\":5713:5727   */\n      add\n        /* \"#utility.yul\":5698:5727   */\n      swap1\n      pop\n        /* \"#utility.yul\":5564:5733   */\n      swap3\n      swap2\n      pop\n      pop\n      jump\t// out\n        /* \"#utility.yul\":5739:5909   */\n    tag_87:\n        /* \"#utility.yul\":5879:5901   */\n      0x5461626c6520646f6573206e6f74206578697374000000000000000000000000\n        /* \"#utility.yul\":5875:5876   */\n      0x00\n        /* \"#utility.yul\":5867:5873   */\n      dup3\n        /* \"#utility.yul\":5863:5877   */\n      add\n        /* \"#utility.yul\":5856:5902   */\n      mstore\n        /* \"#utility.yul\":5739:5909   */\n      pop\n      jump\t// out\n        /* \"#utility.yul\":5915:6281   */\n    tag_88:\n        /* \"#utility.yul\":6057:6060   */\n      0x00\n        /* \"#utility.yul\":6078:6145   */\n      tag_152\n        /* \"#utility.yul\":6142:6144   */\n      0x14\n        /* \"#utility.yul\":6137:6140   */\n      dup4\n        /* \"#utility.yul\":6078:6145   */\n      tag_86\n      jump\t// in\n    tag_152:\n        /* \"#utility.yul\":6071:6145   */\n      swap2\n      pop\n        /* \"#utility.yul\":6154:6247   */\n      tag_153\n        /* \"#utility.yul\":6243:6246   */\n      dup3\n        /* \"#utility.yul\":6154:6247   */\n      tag_87\n      jump\t// in\n    tag_153:\n        /* \"#utility.yul\":6272:6274   */\n      0x20\n        /* \"#utility.yul\":6267:6270   */\n      dup3\n        /* \"#utility.yul\":6263:6275   */\n      add\n        /* \"#utility.yul\":6256:6275   */\n      swap1\n      pop\n        /* \"#utility.yul\":5915:6281   */\n      swap2\n      swap1\n      pop\n      jump\t// out\n        /* \"#utility.yul\":6287:6706   */\n    tag_51:\n        /* \"#utility.yul\":6453:6457   */\n      0x00\n        /* \"#utility.yul\":6491:6493   */\n      0x20\n        /* \"#utility.yul\":6480:6489   */\n      dup3\n        /* \"#utility.yul\":6476:6494   */\n      add\n        /* \"#utility.yul\":6468:6494   */\n      swap1\n      pop\n        /* \"#utility.yul\":6540:6549   */\n      dup2\n        /* \"#utility.yul\":6534:6538   */\n      dup2\n        /* \"#utility.yul\":6530:6550   */\n      sub\n        /* \"#utility.yul\":6526:6527   */\n      0x00\n        /* \"#utility.yul\":6515:6524   */\n      dup4\n        /* \"#utility.yul\":6511:6528   */\n      add\n        /* \"#utility.yul\":6504:6551   */\n      mstore\n        /* \"#utility.yul\":6568:6699   */\n      tag_155\n        /* \"#utility.yul\":6694:6698   */\n      dup2\n        /* \"#utility.yul\":6568:6699   */\n      tag_88\n      jump\t// in\n    tag_155:\n        /* \"#utility.yul\":6560:6699   */\n      swap1\n      pop\n        /* \"#utility.yul\":6287:6706   */\n      swap2\n      swap1\n      pop\n      jump\t// out\n        /* \"#utility.yul\":6712:6936   */\n    tag_89:\n        /* \"#utility.yul\":6852:6886   */\n      0x526f7720616e6420636f6c756d6e206d75737420626520677265617465722074\n        /* \"#utility.yul\":6848:6849   */\n      0x00\n        /* \"#utility.yul\":6840:6846   */\n      dup3\n        /* \"#utility.yul\":6836:6850   */\n      add\n        /* \"#utility.yul\":6829:6887   */\n      mstore\n        /* \"#utility.yul\":6921:6928   */\n      0x68616e2030000000000000000000000000000000000000000000000000000000\n        /* \"#utility.yul\":6916:6918   */\n      0x20\n        /* \"#utility.yul\":6908:6914   */\n      dup3\n        /* \"#utility.yul\":6904:6919   */\n      add\n        /* \"#utility.yul\":6897:6929   */\n      mstore\n        /* \"#utility.yul\":6712:6936   */\n      pop\n      jump\t// out\n        /* \"#utility.yul\":6942:7308   */\n    tag_90:\n        /* \"#utility.yul\":7084:7087   */\n      0x00\n        /* \"#utility.yul\":7105:7172   */\n      tag_158\n        /* \"#utility.yul\":7169:7171   */\n      0x25\n        /* \"#utility.yul\":7164:7167   */\n      dup4\n        /* \"#utility.yul\":7105:7172   */\n      tag_86\n      jump\t// in\n    tag_158:\n        /* \"#utility.yul\":7098:7172   */\n      swap2\n      pop\n        /* \"#utility.yul\":7181:7274   */\n      tag_159\n        /* \"#utility.yul\":7270:7273   */\n      dup3\n        /* \"#utility.yul\":7181:7274   */\n      tag_89\n      jump\t// in\n    tag_159:\n        /* \"#utility.yul\":7299:7301   */\n      0x40\n        /* \"#utility.yul\":7294:7297   */\n      dup3\n        /* \"#utility.yul\":7290:7302   */\n      add\n        /* \"#utility.yul\":7283:7302   */\n      swap1\n      pop\n        /* \"#utility.yul\":6942:7308   */\n      swap2\n      swap1\n      pop\n      jump\t// out\n        /* \"#utility.yul\":7314:7733   */\n    tag_58:\n        /* \"#utility.yul\":7480:7484   */\n      0x00\n        /* \"#utility.yul\":7518:7520   */\n      0x20\n        /* \"#utility.yul\":7507:7516   */\n      dup3\n        /* \"#utility.yul\":7503:7521   */\n      add\n        /* \"#utility.yul\":7495:7521   */\n      swap1\n      pop\n        /* \"#utility.yul\":7567:7576   */\n      dup2\n        /* \"#utility.yul\":7561:7565   */\n      dup2\n        /* \"#utility.yul\":7557:7577   */\n      sub\n        /* \"#utility.yul\":7553:7554   */\n      0x00\n        /* \"#utility.yul\":7542:7551   */\n      dup4\n        /* \"#utility.yul\":7538:7555   */\n      add\n        /* \"#utility.yul\":7531:7578   */\n      mstore\n        /* \"#utility.yul\":7595:7726   */\n      tag_161\n        /* \"#utility.yul\":7721:7725   */\n      dup2\n        /* \"#utility.yul\":7595:7726   */\n      tag_90\n      jump\t// in\n    tag_161:\n        /* \"#utility.yul\":7587:7726   */\n      swap1\n      pop\n        /* \"#utility.yul\":7314:7733   */\n      swap2\n      swap1\n      pop\n      jump\t// out\n        /* \"#utility.yul\":7739:7919   */\n    tag_91:\n        /* \"#utility.yul\":7787:7864   */\n      0x4e487b7100000000000000000000000000000000000000000000000000000000\n        /* \"#utility.yul\":7784:7785   */\n      0x00\n        /* \"#utility.yul\":7777:7865   */\n      mstore\n        /* \"#utility.yul\":7884:7888   */\n      0x11\n        /* \"#utility.yul\":7881:7882   */\n      0x04\n        /* \"#utility.yul\":7874:7889   */\n      mstore\n        /* \"#utility.yul\":7908:7912   */\n      0x24\n        /* \"#utility.yul\":7905:7906   */\n      0x00\n        /* \"#utility.yul\":7898:7913   */\n      revert\n        /* \"#utility.yul\":7925:8158   */\n    tag_67:\n        /* \"#utility.yul\":7964:7967   */\n      0x00\n        /* \"#utility.yul\":7987:8011   */\n      tag_164\n        /* \"#utility.yul\":8005:8010   */\n      dup3\n        /* \"#utility.yul\":7987:8011   */\n      tag_74\n      jump\t// in\n    tag_164:\n        /* \"#utility.yul\":7978:8011   */\n      swap2\n      pop\n        /* \"#utility.yul\":8033:8099   */\n      0xffffffffffffffffffffffffffffffffffffffffffffffffffffffffffffffff\n        /* \"#utility.yul\":8026:8031   */\n      dup3\n        /* \"#utility.yul\":8023:8100   */\n      sub\n        /* \"#utility.yul\":8020:8123   */\n      tag_165\n      jumpi\n        /* \"#utility.yul\":8103:8121   */\n      tag_166\n      tag_91\n      jump\t// in\n    tag_166:\n        /* \"#utility.yul\":8020:8123   */\n    tag_165:\n        /* \"#utility.yul\":8150:8151   */\n      0x01\n        /* \"#utility.yul\":8143:8148   */\n      dup3\n        /* \"#utility.yul\":8139:8152   */\n      add\n        /* \"#utility.yul\":8132:8152   */\n      swap1\n      pop\n        /* \"#utility.yul\":7925:8158   */\n      swap2\n      swap1\n      pop\n      jump\t// out\n\n    auxdata: 0xa2646970667358221220a9f23f7521d4bcb0a4d70053f0c325ae3820a75991bf51d6bef4a60bf2fe306564736f6c634300081e0033\n}\n",
				"bytecode": {
					"linkReferences": {},
					"object": "6080604052600180553480156012575f5ffd5b503360025f6101000a81548173ffffffffffffffffffffffffffffffffffffffff021916908373ffffffffffffffffffffffffffffffffffffffff1602179055506109f9806100605f395ff3fe608060405234801561000f575f5ffd5b5060043610610086575f3560e01c80638da5cb5b116100595780638da5cb5b14610128578063bea02f6214610146578063e1f1c48d14610162578063e6f318c61461019257610086565b80633844ac5b1461008a5780635cfd6607146100ba57806371671bf2146100d657806388a01cd71461010a575b5f5ffd5b6100a4600480360381019061009f9190610608565b6101ae565b6040516100b191906106c2565b60405180910390f35b6100d460048036038101906100cf91906106db565b61026d565b005b6100f060048036038101906100eb9190610608565b610343565b604051610101959493929190610749565b60405180910390f35b610112610380565b60405161011f919061079a565b60405180910390f35b610130610386565b60405161013d91906107f2565b60405180910390f35b610160600480360381019061015b919061080b565b6103ab565b005b61017c6004803603810190610177919061080b565b61041b565b604051610189919061079a565b60405180910390f35b6101ac60048036038101906101a79190610608565b61050d565b005b6101b66105a5565b5f5f5f8481526020019081526020015f205f01540361020a576040517f08c379a0000000000000000000000000000000000000000000000000000000008152600401610201906108a3565b60405180910390fd5b5f5f8381526020019081526020015f206040518060a00160405290815f8201548152602001600182015481526020016002820154815260200160038201548152602001600482015f9054906101000a900460ff1615151515815250509050919050565b5f5f5f8581526020019081526020015f205f0154036102c1576040517f08c379a00000000000000000000000000000000000000000000000000000000081526004016102b8906108a3565b60405180910390fd5b5f821180156102cf57505f81115b61030e576040517f08c379a000000000000000000000000000000000000000000000000000000000815260040161030590610931565b60405180910390fd5b815f5f8581526020019081526020015f2060010181905550805f5f8581526020019081526020015f2060020181905550505050565b5f602052805f5260405f205f91509050805f015490806001015490806002015490806003015490806004015f9054906101000a900460ff16905085565b60015481565b60025f9054906101000a900473ffffffffffffffffffffffffffffffffffffffff1681565b5f5f5f8481526020019081526020015f205f0154036103ff576040517f08c379a00000000000000000000000000000000000000000000000000000000081526004016103f6906108a3565b60405180910390fd5b805f5f8481526020019081526020015f20600301819055505050565b5f5f8311801561042a57505f82115b610469576040517f08c379a000000000000000000000000000000000000000000000000000000000815260040161046090610931565b60405180910390fd5b5f60015f81548092919061047c9061097c565b9190505590506040518060a001604052808281526020018581526020018481526020015f81526020015f15158152505f5f8381526020019081526020015f205f820151815f01556020820151816001015560408201518160020155606082015181600301556080820151816004015f6101000a81548160ff0219169083151502179055509050508091505092915050565b5f5f5f8381526020019081526020015f205f015403610561576040517f08c379a0000000000000000000000000000000000000000000000000000000008152600401610558906108a3565b60405180910390fd5b5f5f8281526020019081526020015f205f5f82015f9055600182015f9055600282015f9055600382015f9055600482015f6101000a81549060ff0219169055505050565b6040518060a001604052805f81526020015f81526020015f81526020015f81526020015f151581525090565b5f5ffd5b5f819050919050565b6105e7816105d5565b81146105f1575f5ffd5b50565b5f81359050610602816105de565b92915050565b5f6020828403121561061d5761061c6105d1565b5b5f61062a848285016105f4565b91505092915050565b61063c816105d5565b82525050565b5f8115159050919050565b61065681610642565b82525050565b60a082015f8201516106705f850182610633565b5060208201516106836020850182610633565b5060408201516106966040850182610633565b5060608201516106a96060850182610633565b5060808201516106bc608085018261064d565b50505050565b5f60a0820190506106d55f83018461065c565b92915050565b5f5f5f606084860312156106f2576106f16105d1565b5b5f6106ff868287016105f4565b9350506020610710868287016105f4565b9250506040610721868287016105f4565b9150509250925092565b610734816105d5565b82525050565b61074381610642565b82525050565b5f60a08201905061075c5f83018861072b565b610769602083018761072b565b610776604083018661072b565b610783606083018561072b565b610790608083018461073a565b9695505050505050565b5f6020820190506107ad5f83018461072b565b92915050565b5f73ffffffffffffffffffffffffffffffffffffffff82169050919050565b5f6107dc826107b3565b9050919050565b6107ec816107d2565b82525050565b5f6020820190506108055f8301846107e3565b92915050565b5f5f60408385031215610821576108206105d1565b5b5f61082e858286016105f4565b925050602061083f858286016105f4565b9150509250929050565b5f82825260208201905092915050565b7f5461626c6520646f6573206e6f742065786973740000000000000000000000005f82015250565b5f61088d601483610849565b915061089882610859565b602082019050919050565b5f6020820190508181035f8301526108ba81610881565b9050919050565b7f526f7720616e6420636f6c756d6e206d757374206265206772656174657220745f8201527f68616e2030000000000000000000000000000000000000000000000000000000602082015250565b5f61091b602583610849565b9150610926826108c1565b604082019050919050565b5f6020820190508181035f8301526109488161090f565b9050919050565b7f4e487b71000000000000000000000000000000000000000000000000000000005f52601160045260245ffd5b5f610986826105d5565b91507fffffffffffffffffffffffffffffffffffffffffffffffffffffffffffffffff82036109b8576109b761094f565b5b60018201905091905056fea2646970667358221220a9f23f7521d4bcb0a4d70053f0c325ae3820a75991bf51d6bef4a60bf2fe306564736f6c634300081e0033",
					"opcodes": "PUSH1 0x80 PUSH1 0x40 MSTORE PUSH1 0x1 DUP1 SSTORE CALLVALUE DUP1 ISZERO PUSH1 0x12 JUMPI PUSH0 PUSH0 REVERT JUMPDEST POP CALLER PUSH1 0x2 PUSH0 PUSH2 0x100 EXP DUP2 SLOAD DUP2 PUSH20 0xFFFFFFFFFFFFFFFFFFFFFFFFFFFFFFFFFFFFFFFF MUL NOT AND SWAP1 DUP4 PUSH20 0xFFFFFFFFFFFFFFFFFFFFFFFFFFFFFFFFFFFFFFFF AND MUL OR SWAP1 SSTORE POP PUSH2 0x9F9 DUP1 PUSH2 0x60 PUSH0 CODECOPY PUSH0 RETURN INVALID PUSH1 0x80 PUSH1 0x40 MSTORE CALLVALUE DUP1 ISZERO PUSH2 0xF JUMPI PUSH0 PUSH0 REVERT JUMPDEST POP PUSH1 0x4 CALLDATASIZE LT PUSH2 0x86 JUMPI PUSH0 CALLDATALOAD PUSH1 0xE0 SHR DUP1 PUSH4 0x8DA5CB5B GT PUSH2 0x59 JUMPI DUP1 PUSH4 0x8DA5CB5B EQ PUSH2 0x128 JUMPI DUP1 PUSH4 0xBEA02F62 EQ PUSH2 0x146 JUMPI DUP1 PUSH4 0xE1F1C48D EQ PUSH2 0x162 JUMPI DUP1 PUSH4 0xE6F318C6 EQ PUSH2 0x192 JUMPI PUSH2 0x86 JUMP JUMPDEST DUP1 PUSH4 0x3844AC5B EQ PUSH2 0x8A JUMPI DUP1 PUSH4 0x5CFD6607 EQ PUSH2 0xBA JUMPI DUP1 PUSH4 0x71671BF2 EQ PUSH2 0xD6 JUMPI DUP1 PUSH4 0x88A01CD7 EQ PUSH2 0x10A JUMPI JUMPDEST PUSH0 PUSH0 REVERT JUMPDEST PUSH2 0xA4 PUSH1 0x4 DUP1 CALLDATASIZE SUB DUP2 ADD SWAP1 PUSH2 0x9F SWAP2 SWAP1 PUSH2 0x608 JUMP JUMPDEST PUSH2 0x1AE JUMP JUMPDEST PUSH1 0x40 MLOAD PUSH2 0xB1 SWAP2 SWAP1 PUSH2 0x6C2 JUMP JUMPDEST PUSH1 0x40 MLOAD DUP1 SWAP2 SUB SWAP1 RETURN JUMPDEST PUSH2 0xD4 PUSH1 0x4 DUP1 CALLDATASIZE SUB DUP2 ADD SWAP1 PUSH2 0xCF SWAP2 SWAP1 PUSH2 0x6DB JUMP JUMPDEST PUSH2 0x26D JUMP JUMPDEST STOP JUMPDEST PUSH2 0xF0 PUSH1 0x4 DUP1 CALLDATASIZE SUB DUP2 ADD SWAP1 PUSH2 0xEB SWAP2 SWAP1 PUSH2 0x608 JUMP JUMPDEST PUSH2 0x343 JUMP JUMPDEST PUSH1 0x40 MLOAD PUSH2 0x101 SWAP6 SWAP5 SWAP4 SWAP3 SWAP2 SWAP1 PUSH2 0x749 JUMP JUMPDEST PUSH1 0x40 MLOAD DUP1 SWAP2 SUB SWAP1 RETURN JUMPDEST PUSH2 0x112 PUSH2 0x380 JUMP JUMPDEST PUSH1 0x40 MLOAD PUSH2 0x11F SWAP2 SWAP1 PUSH2 0x79A JUMP JUMPDEST PUSH1 0x40 MLOAD DUP1 SWAP2 SUB SWAP1 RETURN JUMPDEST PUSH2 0x130 PUSH2 0x386 JUMP JUMPDEST PUSH1 0x40 MLOAD PUSH2 0x13D SWAP2 SWAP1 PUSH2 0x7F2 JUMP JUMPDEST PUSH1 0x40 MLOAD DUP1 SWAP2 SUB SWAP1 RETURN JUMPDEST PUSH2 0x160 PUSH1 0x4 DUP1 CALLDATASIZE SUB DUP2 ADD SWAP1 PUSH2 0x15B SWAP2 SWAP1 PUSH2 0x80B JUMP JUMPDEST PUSH2 0x3AB JUMP JUMPDEST STOP JUMPDEST PUSH2 0x17C PUSH1 0x4 DUP1 CALLDATASIZE SUB DUP2 ADD SWAP1 PUSH2 0x177 SWAP2 SWAP1 PUSH2 0x80B JUMP JUMPDEST PUSH2 0x41B JUMP JUMPDEST PUSH1 0x40 MLOAD PUSH2 0x189 SWAP2 SWAP1 PUSH2 0x79A JUMP JUMPDEST PUSH1 0x40 MLOAD DUP1 SWAP2 SUB SWAP1 RETURN JUMPDEST PUSH2 0x1AC PUSH1 0x4 DUP1 CALLDATASIZE SUB DUP2 ADD SWAP1 PUSH2 0x1A7 SWAP2 SWAP1 PUSH2 0x608 JUMP JUMPDEST PUSH2 0x50D JUMP JUMPDEST STOP JUMPDEST PUSH2 0x1B6 PUSH2 0x5A5 JUMP JUMPDEST PUSH0 PUSH0 PUSH0 DUP5 DUP2 MSTORE PUSH1 0x20 ADD SWAP1 DUP2 MSTORE PUSH1 0x20 ADD PUSH0 KECCAK256 PUSH0 ADD SLOAD SUB PUSH2 0x20A JUMPI PUSH1 0x40 MLOAD PUSH32 0x8C379A000000000000000000000000000000000000000000000000000000000 DUP2 MSTORE PUSH1 0x4 ADD PUSH2 0x201 SWAP1 PUSH2 0x8A3 JUMP JUMPDEST PUSH1 0x40 MLOAD DUP1 SWAP2 SUB SWAP1 REVERT JUMPDEST PUSH0 PUSH0 DUP4 DUP2 MSTORE PUSH1 0x20 ADD SWAP1 DUP2 MSTORE PUSH1 0x20 ADD PUSH0 KECCAK256 PUSH1 0x40 MLOAD DUP1 PUSH1 0xA0 ADD PUSH1 0x40 MSTORE SWAP1 DUP2 PUSH0 DUP3 ADD SLOAD DUP2 MSTORE PUSH1 0x20 ADD PUSH1 0x1 DUP3 ADD SLOAD DUP2 MSTORE PUSH1 0x20 ADD PUSH1 0x2 DUP3 ADD SLOAD DUP2 MSTORE PUSH1 0x20 ADD PUSH1 0x3 DUP3 ADD SLOAD DUP2 MSTORE PUSH1 0x20 ADD PUSH1 0x4 DUP3 ADD PUSH0 SWAP1 SLOAD SWAP1 PUSH2 0x100 EXP SWAP1 DIV PUSH1 0xFF AND ISZERO ISZERO ISZERO ISZERO DUP2 MSTORE POP POP SWAP1 POP SWAP2 SWAP1 POP JUMP JUMPDEST PUSH0 PUSH0 PUSH0 DUP6 DUP2 MSTORE PUSH1 0x20 ADD SWAP1 DUP2 MSTORE PUSH1 0x20 ADD PUSH0 KECCAK256 PUSH0 ADD SLOAD SUB PUSH2 0x2C1 JUMPI PUSH1 0x40 MLOAD PUSH32 0x8C379A000000000000000000000000000000000000000000000000000000000 DUP2 MSTORE PUSH1 0x4 ADD PUSH2 0x2B8 SWAP1 PUSH2 0x8A3 JUMP JUMPDEST PUSH1 0x40 MLOAD DUP1 SWAP2 SUB SWAP1 REVERT JUMPDEST PUSH0 DUP3 GT DUP1 ISZERO PUSH2 0x2CF JUMPI POP PUSH0 DUP2 GT JUMPDEST PUSH2 0x30E JUMPI PUSH1 0x40 MLOAD PUSH32 0x8C379A000000000000000000000000000000000000000000000000000000000 DUP2 MSTORE PUSH1 0x4 ADD PUSH2 0x305 SWAP1 PUSH2 0x931 JUMP JUMPDEST PUSH1 0x40 MLOAD DUP1 SWAP2 SUB SWAP1 REVERT JUMPDEST DUP2 PUSH0 PUSH0 DUP6 DUP2 MSTORE PUSH1 0x20 ADD SWAP1 DUP2 MSTORE PUSH1 0x20 ADD PUSH0 KECCAK256 PUSH1 0x1 ADD DUP2 SWAP1 SSTORE POP DUP1 PUSH0 PUSH0 DUP6 DUP2 MSTORE PUSH1 0x20 ADD SWAP1 DUP2 MSTORE PUSH1 0x20 ADD PUSH0 KECCAK256 PUSH1 0x2 ADD DUP2 SWAP1 SSTORE POP POP POP POP JUMP JUMPDEST PUSH0 PUSH1 0x20 MSTORE DUP1 PUSH0 MSTORE PUSH1 0x40 PUSH0 KECCAK256 PUSH0 SWAP2 POP SWAP1 POP DUP1 PUSH0 ADD SLOAD SWAP1 DUP1 PUSH1 0x1 ADD SLOAD SWAP1 DUP1 PUSH1 0x2 ADD SLOAD SWAP1 DUP1 PUSH1 0x3 ADD SLOAD SWAP1 DUP1 PUSH1 0x4 ADD PUSH0 SWAP1 SLOAD SWAP1 PUSH2 0x100 EXP SWAP1 DIV PUSH1 0xFF AND SWAP1 POP DUP6 JUMP JUMPDEST PUSH1 0x1 SLOAD DUP2 JUMP JUMPDEST PUSH1 0x2 PUSH0 SWAP1 SLOAD SWAP1 PUSH2 0x100 EXP SWAP1 DIV PUSH20 0xFFFFFFFFFFFFFFFFFFFFFFFFFFFFFFFFFFFFFFFF AND DUP2 JUMP JUMPDEST PUSH0 PUSH0 PUSH0 DUP5 DUP2 MSTORE PUSH1 0x20 ADD SWAP1 DUP2 MSTORE PUSH1 0x20 ADD PUSH0 KECCAK256 PUSH0 ADD SLOAD SUB PUSH2 0x3FF JUMPI PUSH1 0x40 MLOAD PUSH32 0x8C379A000000000000000000000000000000000000000000000000000000000 DUP2 MSTORE PUSH1 0x4 ADD PUSH2 0x3F6 SWAP1 PUSH2 0x8A3 JUMP JUMPDEST PUSH1 0x40 MLOAD DUP1 SWAP2 SUB SWAP1 REVERT JUMPDEST DUP1 PUSH0 PUSH0 DUP5 DUP2 MSTORE PUSH1 0x20 ADD SWAP1 DUP2 MSTORE PUSH1 0x20 ADD PUSH0 KECCAK256 PUSH1 0x3 ADD DUP2 SWAP1 SSTORE POP POP POP JUMP JUMPDEST PUSH0 PUSH0 DUP4 GT DUP1 ISZERO PUSH2 0x42A JUMPI POP PUSH0 DUP3 GT JUMPDEST PUSH2 0x469 JUMPI PUSH1 0x40 MLOAD PUSH32 0x8C379A000000000000000000000000000000000000000000000000000000000 DUP2 MSTORE PUSH1 0x4 ADD PUSH2 0x460 SWAP1 PUSH2 0x931 JUMP JUMPDEST PUSH1 0x40 MLOAD DUP1 SWAP2 SUB SWAP1 REVERT JUMPDEST PUSH0 PUSH1 0x1 PUSH0 DUP2 SLOAD DUP1 SWAP3 SWAP2 SWAP1 PUSH2 0x47C SWAP1 PUSH2 0x97C JUMP JUMPDEST SWAP2 SWAP1 POP SSTORE SWAP1 POP PUSH1 0x40 MLOAD DUP1 PUSH1 0xA0 ADD PUSH1 0x40 MSTORE DUP1 DUP3 DUP2 MSTORE PUSH1 0x20 ADD DUP6 DUP2 MSTORE PUSH1 0x20 ADD DUP5 DUP2 MSTORE PUSH1 0x20 ADD PUSH0 DUP2 MSTORE PUSH1 0x20 ADD PUSH0 ISZERO ISZERO DUP2 MSTORE POP PUSH0 PUSH0 DUP4 DUP2 MSTORE PUSH1 0x20 ADD SWAP1 DUP2 MSTORE PUSH1 0x20 ADD PUSH0 KECCAK256 PUSH0 DUP3 ADD MLOAD DUP2 PUSH0 ADD SSTORE PUSH1 0x20 DUP3 ADD MLOAD DUP2 PUSH1 0x1 ADD SSTORE PUSH1 0x40 DUP3 ADD MLOAD DUP2 PUSH1 0x2 ADD SSTORE PUSH1 0x60 DUP3 ADD MLOAD DUP2 PUSH1 0x3 ADD SSTORE PUSH1 0x80 DUP3 ADD MLOAD DUP2 PUSH1 0x4 ADD PUSH0 PUSH2 0x100 EXP DUP2 SLOAD DUP2 PUSH1 0xFF MUL NOT AND SWAP1 DUP4 ISZERO ISZERO MUL OR SWAP1 SSTORE POP SWAP1 POP POP DUP1 SWAP2 POP POP SWAP3 SWAP2 POP POP JUMP JUMPDEST PUSH0 PUSH0 PUSH0 DUP4 DUP2 MSTORE PUSH1 0x20 ADD SWAP1 DUP2 MSTORE PUSH1 0x20 ADD PUSH0 KECCAK256 PUSH0 ADD SLOAD SUB PUSH2 0x561 JUMPI PUSH1 0x40 MLOAD PUSH32 0x8C379A000000000000000000000000000000000000000000000000000000000 DUP2 MSTORE PUSH1 0x4 ADD PUSH2 0x558 SWAP1 PUSH2 0x8A3 JUMP JUMPDEST PUSH1 0x40 MLOAD DUP1 SWAP2 SUB SWAP1 REVERT JUMPDEST PUSH0 PUSH0 DUP3 DUP2 MSTORE PUSH1 0x20 ADD SWAP1 DUP2 MSTORE PUSH1 0x20 ADD PUSH0 KECCAK256 PUSH0 PUSH0 DUP3 ADD PUSH0 SWAP1 SSTORE PUSH1 0x1 DUP3 ADD PUSH0 SWAP1 SSTORE PUSH1 0x2 DUP3 ADD PUSH0 SWAP1 SSTORE PUSH1 0x3 DUP3 ADD PUSH0 SWAP1 SSTORE PUSH1 0x4 DUP3 ADD PUSH0 PUSH2 0x100 EXP DUP2 SLOAD SWAP1 PUSH1 0xFF MUL NOT AND SWAP1 SSTORE POP POP POP JUMP JUMPDEST PUSH1 0x40 MLOAD DUP1 PUSH1 0xA0 ADD PUSH1 0x40 MSTORE DUP1 PUSH0 DUP2 MSTORE PUSH1 0x20 ADD PUSH0 DUP2 MSTORE PUSH1 0x20 ADD PUSH0 DUP2 MSTORE PUSH1 0x20 ADD PUSH0 DUP2 MSTORE PUSH1 0x20 ADD PUSH0 ISZERO ISZERO DUP2 MSTORE POP SWAP1 JUMP JUMPDEST PUSH0 PUSH0 REVERT JUMPDEST PUSH0 DUP2 SWAP1 POP SWAP2 SWAP1 POP JUMP JUMPDEST PUSH2 0x5E7 DUP2 PUSH2 0x5D5 JUMP JUMPDEST DUP2 EQ PUSH2 0x5F1 JUMPI PUSH0 PUSH0 REVERT JUMPDEST POP JUMP JUMPDEST PUSH0 DUP2 CALLDATALOAD SWAP1 POP PUSH2 0x602 DUP2 PUSH2 0x5DE JUMP JUMPDEST SWAP3 SWAP2 POP POP JUMP JUMPDEST PUSH0 PUSH1 0x20 DUP3 DUP5 SUB SLT ISZERO PUSH2 0x61D JUMPI PUSH2 0x61C PUSH2 0x5D1 JUMP JUMPDEST JUMPDEST PUSH0 PUSH2 0x62A DUP5 DUP3 DUP6 ADD PUSH2 0x5F4 JUMP JUMPDEST SWAP2 POP POP SWAP3 SWAP2 POP POP JUMP JUMPDEST PUSH2 0x63C DUP2 PUSH2 0x5D5 JUMP JUMPDEST DUP3 MSTORE POP POP JUMP JUMPDEST PUSH0 DUP2 ISZERO ISZERO SWAP1 POP SWAP2 SWAP1 POP JUMP JUMPDEST PUSH2 0x656 DUP2 PUSH2 0x642 JUMP JUMPDEST DUP3 MSTORE POP POP JUMP JUMPDEST PUSH1 0xA0 DUP3 ADD PUSH0 DUP3 ADD MLOAD PUSH2 0x670 PUSH0 DUP6 ADD DUP3 PUSH2 0x633 JUMP JUMPDEST POP PUSH1 0x20 DUP3 ADD MLOAD PUSH2 0x683 PUSH1 0x20 DUP6 ADD DUP3 PUSH2 0x633 JUMP JUMPDEST POP PUSH1 0x40 DUP3 ADD MLOAD PUSH2 0x696 PUSH1 0x40 DUP6 ADD DUP3 PUSH2 0x633 JUMP JUMPDEST POP PUSH1 0x60 DUP3 ADD MLOAD PUSH2 0x6A9 PUSH1 0x60 DUP6 ADD DUP3 PUSH2 0x633 JUMP JUMPDEST POP PUSH1 0x80 DUP3 ADD MLOAD PUSH2 0x6BC PUSH1 0x80 DUP6 ADD DUP3 PUSH2 0x64D JUMP JUMPDEST POP POP POP POP JUMP JUMPDEST PUSH0 PUSH1 0xA0 DUP3 ADD SWAP1 POP PUSH2 0x6D5 PUSH0 DUP4 ADD DUP5 PUSH2 0x65C JUMP JUMPDEST SWAP3 SWAP2 POP POP JUMP JUMPDEST PUSH0 PUSH0 PUSH0 PUSH1 0x60 DUP5 DUP7 SUB SLT ISZERO PUSH2 0x6F2 JUMPI PUSH2 0x6F1 PUSH2 0x5D1 JUMP JUMPDEST JUMPDEST PUSH0 PUSH2 0x6FF DUP7 DUP3 DUP8 ADD PUSH2 0x5F4 JUMP JUMPDEST SWAP4 POP POP PUSH1 0x20 PUSH2 0x710 DUP7 DUP3 DUP8 ADD PUSH2 0x5F4 JUMP JUMPDEST SWAP3 POP POP PUSH1 0x40 PUSH2 0x721 DUP7 DUP3 DUP8 ADD PUSH2 0x5F4 JUMP JUMPDEST SWAP2 POP POP SWAP3 POP SWAP3 POP SWAP3 JUMP JUMPDEST PUSH2 0x734 DUP2 PUSH2 0x5D5 JUMP JUMPDEST DUP3 MSTORE POP POP JUMP JUMPDEST PUSH2 0x743 DUP2 PUSH2 0x642 JUMP JUMPDEST DUP3 MSTORE POP POP JUMP JUMPDEST PUSH0 PUSH1 0xA0 DUP3 ADD SWAP1 POP PUSH2 0x75C PUSH0 DUP4 ADD DUP9 PUSH2 0x72B JUMP JUMPDEST PUSH2 0x769 PUSH1 0x20 DUP4 ADD DUP8 PUSH2 0x72B JUMP JUMPDEST PUSH2 0x776 PUSH1 0x40 DUP4 ADD DUP7 PUSH2 0x72B JUMP JUMPDEST PUSH2 0x783 PUSH1 0x60 DUP4 ADD DUP6 PUSH2 0x72B JUMP JUMPDEST PUSH2 0x790 PUSH1 0x80 DUP4 ADD DUP5 PUSH2 0x73A JUMP JUMPDEST SWAP7 SWAP6 POP POP POP POP POP POP JUMP JUMPDEST PUSH0 PUSH1 0x20 DUP3 ADD SWAP1 POP PUSH2 0x7AD PUSH0 DUP4 ADD DUP5 PUSH2 0x72B JUMP JUMPDEST SWAP3 SWAP2 POP POP JUMP JUMPDEST PUSH0 PUSH20 0xFFFFFFFFFFFFFFFFFFFFFFFFFFFFFFFFFFFFFFFF DUP3 AND SWAP1 POP SWAP2 SWAP1 POP JUMP JUMPDEST PUSH0 PUSH2 0x7DC DUP3 PUSH2 0x7B3 JUMP JUMPDEST SWAP1 POP SWAP2 SWAP1 POP JUMP JUMPDEST PUSH2 0x7EC DUP2 PUSH2 0x7D2 JUMP JUMPDEST DUP3 MSTORE POP POP JUMP JUMPDEST PUSH0 PUSH1 0x20 DUP3 ADD SWAP1 POP PUSH2 0x805 PUSH0 DUP4 ADD DUP5 PUSH2 0x7E3 JUMP JUMPDEST SWAP3 SWAP2 POP POP JUMP JUMPDEST PUSH0 PUSH0 PUSH1 0x40 DUP4 DUP6 SUB SLT ISZERO PUSH2 0x821 JUMPI PUSH2 0x820 PUSH2 0x5D1 JUMP JUMPDEST JUMPDEST PUSH0 PUSH2 0x82E DUP6 DUP3 DUP7 ADD PUSH2 0x5F4 JUMP JUMPDEST SWAP3 POP POP PUSH1 0x20 PUSH2 0x83F DUP6 DUP3 DUP7 ADD PUSH2 0x5F4 JUMP JUMPDEST SWAP2 POP POP SWAP3 POP SWAP3 SWAP1 POP JUMP JUMPDEST PUSH0 DUP3 DUP3 MSTORE PUSH1 0x20 DUP3 ADD SWAP1 POP SWAP3 SWAP2 POP POP JUMP JUMPDEST PUSH32 0x5461626C6520646F6573206E6F74206578697374000000000000000000000000 PUSH0 DUP3 ADD MSTORE POP JUMP JUMPDEST PUSH0 PUSH2 0x88D PUSH1 0x14 DUP4 PUSH2 0x849 JUMP JUMPDEST SWAP2 POP PUSH2 0x898 DUP3 PUSH2 0x859 JUMP JUMPDEST PUSH1 0x20 DUP3 ADD SWAP1 POP SWAP2 SWAP1 POP JUMP JUMPDEST PUSH0 PUSH1 0x20 DUP3 ADD SWAP1 POP DUP2 DUP2 SUB PUSH0 DUP4 ADD MSTORE PUSH2 0x8BA DUP2 PUSH2 0x881 JUMP JUMPDEST SWAP1 POP SWAP2 SWAP1 POP JUMP JUMPDEST PUSH32 0x526F7720616E6420636F6C756D6E206D75737420626520677265617465722074 PUSH0 DUP3 ADD MSTORE PUSH32 0x68616E2030000000000000000000000000000000000000000000000000000000 PUSH1 0x20 DUP3 ADD MSTORE POP JUMP JUMPDEST PUSH0 PUSH2 0x91B PUSH1 0x25 DUP4 PUSH2 0x849 JUMP JUMPDEST SWAP2 POP PUSH2 0x926 DUP3 PUSH2 0x8C1 JUMP JUMPDEST PUSH1 0x40 DUP3 ADD SWAP1 POP SWAP2 SWAP1 POP JUMP JUMPDEST PUSH0 PUSH1 0x20 DUP3 ADD SWAP1 POP DUP2 DUP2 SUB PUSH0 DUP4 ADD MSTORE PUSH2 0x948 DUP2 PUSH2 0x90F JUMP JUMPDEST SWAP1 POP SWAP2 SWAP1 POP JUMP JUMPDEST PUSH32 0x4E487B7100000000000000000000000000000000000000000000000000000000 PUSH0 MSTORE PUSH1 0x11 PUSH1 0x4 MSTORE PUSH1 0x24 PUSH0 REVERT JUMPDEST PUSH0 PUSH2 0x986 DUP3 PUSH2 0x5D5 JUMP JUMPDEST SWAP2 POP PUSH32 0xFFFFFFFFFFFFFFFFFFFFFFFFFFFFFFFFFFFFFFFFFFFFFFFFFFFFFFFFFFFFFFFF DUP3 SUB PUSH2 0x9B8 JUMPI PUSH2 0x9B7 PUSH2 0x94F JUMP JUMPDEST JUMPDEST PUSH1 0x1 DUP3 ADD SWAP1 POP SWAP2 SWAP1 POP JUMP INVALID LOG2 PUSH5 0x6970667358 0x22 SLT KECCAK256 0xA9 CALLCODE EXTCODEHASH PUSH22 0x21D4BCB0A4D70053F0C325AE3820A75991BF51D6BEF4 0xA6 SIGNEXTEND CALLCODE INVALID ADDRESS PUSH6 0x64736F6C6343 STOP ADDMOD 0x1E STOP CALLER "
				},
				"gasEstimates": {
					"creation": {
						"codeDepositCost": "510600",
						"executionCost": "46912",
						"totalCost": "557512"
					},
					"external": {
						"addTable(uint256,uint256)": "infinite",
						"deleteTable(uint256)": "47055",
						"editTable(uint256,uint256,uint256)": "infinite",
						"getTableById(uint256)": "infinite",
						"nextTableId()": "2492",
						"owner()": "2508",
						"tables(uint256)": "infinite",
						"updateStaffTable(uint256,uint256)": "infinite"
					}
				},
				"methodIdentifiers": {
					"addTable(uint256,uint256)": "e1f1c48d",
					"deleteTable(uint256)": "e6f318c6",
					"editTable(uint256,uint256,uint256)": "5cfd6607",
					"getTableById(uint256)": "3844ac5b",
					"nextTableId()": "88a01cd7",
					"owner()": "8da5cb5b",
					"tables(uint256)": "71671bf2",
					"updateStaffTable(uint256,uint256)": "bea02f62"
				}
			},
			"storageLayout": {
				"storage": [
					{
						"astId": 61,
						"contract": "contracts/manager/TableManager.sol:TableManager",
						"label": "tables",
						"offset": 0,
						"slot": "0",
						"type": "t_mapping(t_uint256,t_struct(Table)12_storage)"
					},
					{
						"astId": 64,
						"contract": "contracts/manager/TableManager.sol:TableManager",
						"label": "nextTableId",
						"offset": 0,
						"slot": "1",
						"type": "t_uint256"
					},
					{
						"astId": 66,
						"contract": "contracts/manager/TableManager.sol:TableManager",
						"label": "owner",
						"offset": 0,
						"slot": "2",
						"type": "t_address"
					}
				],
				"types": {
					"t_address": {
						"encoding": "inplace",
						"label": "address",
						"numberOfBytes": "20"
					},
					"t_bool": {
						"encoding": "inplace",
						"label": "bool",
						"numberOfBytes": "1"
					},
					"t_mapping(t_uint256,t_struct(Table)12_storage)": {
						"encoding": "mapping",
						"key": "t_uint256",
						"label": "mapping(uint256 => struct ITableManager.Table)",
						"numberOfBytes": "32",
						"value": "t_struct(Table)12_storage"
					},
					"t_struct(Table)12_storage": {
						"encoding": "inplace",
						"label": "struct ITableManager.Table",
						"members": [
							{
								"astId": 3,
								"contract": "contracts/manager/TableManager.sol:TableManager",
								"label": "tableId",
								"offset": 0,
								"slot": "0",
								"type": "t_uint256"
							},
							{
								"astId": 5,
								"contract": "contracts/manager/TableManager.sol:TableManager",
								"label": "row",
								"offset": 0,
								"slot": "1",
								"type": "t_uint256"
							},
							{
								"astId": 7,
								"contract": "contracts/manager/TableManager.sol:TableManager",
								"label": "col",
								"offset": 0,
								"slot": "2",
								"type": "t_uint256"
							},
							{
								"astId": 9,
								"contract": "contracts/manager/TableManager.sol:TableManager",
								"label": "staffId",
								"offset": 0,
								"slot": "3",
								"type": "t_uint256"
							},
							{
								"astId": 11,
								"contract": "contracts/manager/TableManager.sol:TableManager",
								"label": "isReserved",
								"offset": 0,
								"slot": "4",
								"type": "t_bool"
							}
						],
						"numberOfBytes": "160"
					},
					"t_uint256": {
						"encoding": "inplace",
						"label": "uint256",
						"numberOfBytes": "32"
					}
				}
			},
			"userdoc": {
				"kind": "user",
				"methods": {},
				"version": 1
			}
		}
	}
}