{
	"contracts/manager/StaffManager.sol": {
		"StaffManagement": {
			"abi": [
				{
					"inputs": [
						{
							"internalType": "address",
							"name": "_orderManagerAddress",
							"type": "address"
						},
						{
							"internalType": "address",
							"name": "_roleAccess",
							"type": "address"
						}
					],
					"stateMutability": "nonpayable",
					"type": "constructor"
				},
				{
					"anonymous": false,
					"inputs": [
						{
							"indexed": true,
							"internalType": "address",
							"name": "staffAddress",
							"type": "address"
						},
						{
							"indexed": false,
							"internalType": "string",
							"name": "name",
							"type": "string"
						}
					],
					"name": "StaffAdded",
					"type": "event"
				},
				{
					"anonymous": false,
					"inputs": [
						{
							"indexed": true,
							"internalType": "address",
							"name": "staffAddress",
							"type": "address"
						},
						{
							"indexed": false,
							"internalType": "uint256",
							"name": "_orderId",
							"type": "uint256"
						}
					],
					"name": "StaffAddedToOrder",
					"type": "event"
				},
				{
					"anonymous": false,
					"inputs": [
						{
							"indexed": false,
							"internalType": "address",
							"name": "staffAddress",
							"type": "address"
						},
						{
							"indexed": false,
							"internalType": "uint256",
							"name": "sumRating",
							"type": "uint256"
						},
						{
							"indexed": false,
							"internalType": "uint256",
							"name": "countRating",
							"type": "uint256"
						}
					],
					"name": "StaffRatingUpdated",
					"type": "event"
				},
				{
					"anonymous": false,
					"inputs": [
						{
							"indexed": true,
							"internalType": "address",
							"name": "staffAddress",
							"type": "address"
						},
						{
							"indexed": false,
							"internalType": "string",
							"name": "name",
							"type": "string"
						}
					],
					"name": "StaffUpdated",
					"type": "event"
				},
				{
					"inputs": [
						{
							"internalType": "address",
							"name": "_staffAddress",
							"type": "address"
						},
						{
							"internalType": "uint256",
							"name": "_orderId",
							"type": "uint256"
						}
					],
					"name": "addRaingWhenOrderSuccess",
					"outputs": [],
					"stateMutability": "nonpayable",
					"type": "function"
				},
				{
					"inputs": [
						{
							"internalType": "address",
							"name": "addressStaff",
							"type": "address"
						},
						{
							"internalType": "string",
							"name": "_name",
							"type": "string"
						},
						{
							"internalType": "string",
							"name": "_dob",
							"type": "string"
						},
						{
							"internalType": "string",
							"name": "_phone",
							"type": "string"
						}
					],
					"name": "addStaff",
					"outputs": [],
					"stateMutability": "nonpayable",
					"type": "function"
				},
				{
					"inputs": [
						{
							"internalType": "uint256",
							"name": "_orderId",
							"type": "uint256"
						},
						{
							"internalType": "address",
							"name": "addressStaff",
							"type": "address"
						}
					],
					"name": "addStaffToOrder",
					"outputs": [],
					"stateMutability": "nonpayable",
					"type": "function"
				},
				{
					"inputs": [],
					"name": "getAllStaffs",
					"outputs": [
						{
							"components": [
								{
									"internalType": "address",
									"name": "staffAddress",
									"type": "address"
								},
								{
									"internalType": "string",
									"name": "name",
									"type": "string"
								},
								{
									"internalType": "string",
									"name": "dob",
									"type": "string"
								},
								{
									"internalType": "string",
									"name": "phone",
									"type": "string"
								},
								{
									"internalType": "uint256",
									"name": "sumRating",
									"type": "uint256"
								},
								{
									"internalType": "uint256",
									"name": "countRating",
									"type": "uint256"
								},
								{
									"internalType": "enum StaffStatus",
									"name": "status",
									"type": "uint8"
								}
							],
							"internalType": "struct Staff[]",
							"name": "",
							"type": "tuple[]"
						}
					],
					"stateMutability": "view",
					"type": "function"
				},
				{
					"inputs": [
						{
							"internalType": "address",
							"name": "addressStaff",
							"type": "address"
						}
					],
					"name": "getStaff",
					"outputs": [
						{
							"components": [
								{
									"internalType": "address",
									"name": "staffAddress",
									"type": "address"
								},
								{
									"internalType": "string",
									"name": "name",
									"type": "string"
								},
								{
									"internalType": "string",
									"name": "dob",
									"type": "string"
								},
								{
									"internalType": "string",
									"name": "phone",
									"type": "string"
								},
								{
									"internalType": "uint256",
									"name": "sumRating",
									"type": "uint256"
								},
								{
									"internalType": "uint256",
									"name": "countRating",
									"type": "uint256"
								},
								{
									"internalType": "enum StaffStatus",
									"name": "status",
									"type": "uint8"
								}
							],
							"internalType": "struct Staff",
							"name": "",
							"type": "tuple"
						}
					],
					"stateMutability": "view",
					"type": "function"
				},
				{
					"inputs": [],
					"name": "orderManager",
					"outputs": [
						{
							"internalType": "contract IOrderManager",
							"name": "",
							"type": "address"
						}
					],
					"stateMutability": "view",
					"type": "function"
				},
				{
					"inputs": [],
					"name": "roleAccess",
					"outputs": [
						{
							"internalType": "contract RoleAccess",
							"name": "",
							"type": "address"
						}
					],
					"stateMutability": "view",
					"type": "function"
				},
				{
					"inputs": [
						{
							"internalType": "address",
							"name": "",
							"type": "address"
						},
						{
							"internalType": "uint256",
							"name": "",
							"type": "uint256"
						}
					],
					"name": "staffInOrder",
					"outputs": [
						{
							"internalType": "uint256",
							"name": "",
							"type": "uint256"
						}
					],
					"stateMutability": "view",
					"type": "function"
				},
				{
					"inputs": [
						{
							"internalType": "address",
							"name": "",
							"type": "address"
						}
					],
					"name": "staffs",
					"outputs": [
						{
							"internalType": "address",
							"name": "staffAddress",
							"type": "address"
						},
						{
							"internalType": "string",
							"name": "name",
							"type": "string"
						},
						{
							"internalType": "string",
							"name": "dob",
							"type": "string"
						},
						{
							"internalType": "string",
							"name": "phone",
							"type": "string"
						},
						{
							"internalType": "uint256",
							"name": "sumRating",
							"type": "uint256"
						},
						{
							"internalType": "uint256",
							"name": "countRating",
							"type": "uint256"
						},
						{
							"internalType": "enum StaffStatus",
							"name": "status",
							"type": "uint8"
						}
					],
					"stateMutability": "view",
					"type": "function"
				},
				{
					"inputs": [
						{
							"internalType": "address",
							"name": "addressStaff",
							"type": "address"
						},
						{
							"internalType": "uint256",
							"name": "_sumRating",
							"type": "uint256"
						},
						{
							"internalType": "uint256",
							"name": "_countRating",
							"type": "uint256"
						}
					],
					"name": "updateRatingStaff",
					"outputs": [],
					"stateMutability": "nonpayable",
					"type": "function"
				},
				{
					"inputs": [
						{
							"internalType": "address",
							"name": "addressStaff",
							"type": "address"
						},
						{
							"internalType": "string",
							"name": "_name",
							"type": "string"
						},
						{
							"internalType": "string",
							"name": "_dob",
							"type": "string"
						},
						{
							"internalType": "string",
							"name": "_phone",
							"type": "string"
						}
					],
					"name": "updateStaffInfo",
					"outputs": [],
					"stateMutability": "nonpayable",
					"type": "function"
				}
			],
			"devdoc": {
				"kind": "dev",
				"methods": {},
				"version": 1
			},
			"evm": {
				"assembly": "    /* \"contracts/manager/StaffManager.sol\":177:3319  contract StaffManagement is IStaffManager {... */\n  mstore(0x40, 0x80)\n    /* \"contracts/manager/StaffManager.sol\":522:698  constructor(address _orderManagerAddress, address _roleAccess) {... */\n  callvalue\n  dup1\n  iszero\n  tag_1\n  jumpi\n  revert(0x00, 0x00)\ntag_1:\n  pop\n  mload(0x40)\n  sub(codesize, bytecodeSize)\n  dup1\n  bytecodeSize\n  dup4\n  codecopy\n  dup2\n  add\n  0x40\n  dup2\n  swap1\n  mstore\n  tag_2\n  swap2\n  tag_3\n  jump\t// in\ntag_2:\n    /* \"contracts/manager/StaffManager.sol\":595:607  orderManager */\n  0x00\n    /* \"contracts/manager/StaffManager.sol\":595:645  orderManager = IOrderManager(_orderManagerAddress) */\n  dup1\n  sload\n  sub(shl(0xa0, 0x01), 0x01)\n  swap4\n  dup5\n  and\n  not(sub(shl(0xa0, 0x01), 0x01))\n  swap2\n  dup3\n  and\n  or\n  swap1\n  swap2\n  sstore\n  0x01\n    /* \"contracts/manager/StaffManager.sol\":655:691  roleAccess = RoleAccess(_roleAccess) */\n  dup1\n  sload\n  swap3\n  swap1\n  swap4\n  and\n  swap2\n  and\n  or\n  swap1\n  sstore\n    /* \"contracts/manager/StaffManager.sol\":177:3319  contract StaffManagement is IStaffManager {... */\n  jump(tag_8)\n    /* \"#utility.yul\":14:191   */\ntag_7:\n    /* \"#utility.yul\":93:106   */\n  dup1\n  mload\n  sub(shl(0xa0, 0x01), 0x01)\n    /* \"#utility.yul\":135:166   */\n  dup2\n  and\n    /* \"#utility.yul\":125:167   */\n  dup2\n  eq\n    /* \"#utility.yul\":115:185   */\n  tag_10\n  jumpi\n    /* \"#utility.yul\":181:182   */\n  0x00\n    /* \"#utility.yul\":178:179   */\n  0x00\n    /* \"#utility.yul\":171:183   */\n  revert\n    /* \"#utility.yul\":115:185   */\ntag_10:\n    /* \"#utility.yul\":14:191   */\n  swap2\n  swap1\n  pop\n  jump\t// out\n    /* \"#utility.yul\":196:489   */\ntag_3:\n    /* \"#utility.yul\":275:281   */\n  0x00\n    /* \"#utility.yul\":283:289   */\n  0x00\n    /* \"#utility.yul\":336:338   */\n  0x40\n    /* \"#utility.yul\":324:333   */\n  dup4\n    /* \"#utility.yul\":315:322   */\n  dup6\n    /* \"#utility.yul\":311:334   */\n  sub\n    /* \"#utility.yul\":307:339   */\n  slt\n    /* \"#utility.yul\":304:356   */\n  iszero\n  tag_12\n  jumpi\n    /* \"#utility.yul\":352:353   */\n  0x00\n    /* \"#utility.yul\":349:350   */\n  0x00\n    /* \"#utility.yul\":342:354   */\n  revert\n    /* \"#utility.yul\":304:356   */\ntag_12:\n    /* \"#utility.yul\":375:415   */\n  tag_13\n    /* \"#utility.yul\":405:414   */\n  dup4\n    /* \"#utility.yul\":375:415   */\n  tag_7\n  jump\t// in\ntag_13:\n    /* \"#utility.yul\":365:415   */\n  swap2\n  pop\n    /* \"#utility.yul\":434:483   */\n  tag_14\n    /* \"#utility.yul\":479:481   */\n  0x20\n    /* \"#utility.yul\":468:477   */\n  dup5\n    /* \"#utility.yul\":464:482   */\n  add\n    /* \"#utility.yul\":434:483   */\n  tag_7\n  jump\t// in\ntag_14:\n    /* \"#utility.yul\":424:483   */\n  swap1\n  pop\n    /* \"#utility.yul\":196:489   */\n  swap3\n  pop\n  swap3\n  swap1\n  pop\n  jump\t// out\ntag_8:\n    /* \"contracts/manager/StaffManager.sol\":177:3319  contract StaffManagement is IStaffManager {... */\n  dataSize(sub_0)\n  dup1\n  dataOffset(sub_0)\n  0x00\n  codecopy\n  0x00\n  return\nstop\n\nsub_0: assembly {\n        /* \"contracts/manager/StaffManager.sol\":177:3319  contract StaffManagement is IStaffManager {... */\n      mstore(0x40, 0x80)\n      callvalue\n      dup1\n      iszero\n      tag_1\n      jumpi\n      revert(0x00, 0x00)\n    tag_1:\n      pop\n      jumpi(tag_2, lt(calldatasize, 0x04))\n      shr(0xe0, calldataload(0x00))\n      dup1\n      0xabf5e836\n      gt\n      tag_14\n      jumpi\n      dup1\n      0xabf5e836\n      eq\n      tag_8\n      jumpi\n      dup1\n      0xb7ee0adc\n      eq\n      tag_9\n      jumpi\n      dup1\n      0xdcad55c0\n      eq\n      tag_10\n      jumpi\n      dup1\n      0xddd79504\n      eq\n      tag_11\n      jumpi\n      dup1\n      0xe0e8086b\n      eq\n      tag_12\n      jumpi\n      dup1\n      0xf9b6117f\n      eq\n      tag_13\n      jumpi\n      revert(0x00, 0x00)\n    tag_14:\n      dup1\n      0x037c73c2\n      eq\n      tag_3\n      jumpi\n      dup1\n      0x3e5bde70\n      eq\n      tag_4\n      jumpi\n      dup1\n      0x42f54b89\n      eq\n      tag_5\n      jumpi\n      dup1\n      0x5be5fd39\n      eq\n      tag_6\n      jumpi\n      dup1\n      0xab1ca44c\n      eq\n      tag_7\n      jumpi\n    tag_2:\n      revert(0x00, 0x00)\n        /* \"contracts/manager/StaffManager.sol\":1486:1779  function getAllStaffs() external view returns (Staff[] memory) {... */\n    tag_3:\n      tag_15\n      tag_16\n      jump\t// in\n    tag_15:\n      mload(0x40)\n      tag_17\n      swap2\n      swap1\n      tag_18\n      jump\t// in\n    tag_17:\n      mload(0x40)\n      dup1\n      swap2\n      sub\n      swap1\n      return\n        /* \"contracts/manager/StaffManager.sol\":468:515  mapping (address => uint[]) public staffInOrder */\n    tag_4:\n      tag_19\n      tag_20\n      calldatasize\n      0x04\n      tag_21\n      jump\t// in\n    tag_20:\n      tag_22\n      jump\t// in\n    tag_19:\n      mload(0x40)\n        /* \"#utility.yul\":3001:3026   */\n      swap1\n      dup2\n      mstore\n        /* \"#utility.yul\":2989:2991   */\n      0x20\n        /* \"#utility.yul\":2974:2992   */\n      add\n        /* \"contracts/manager/StaffManager.sol\":468:515  mapping (address => uint[]) public staffInOrder */\n      tag_17\n        /* \"#utility.yul\":2855:3032   */\n      jump\n        /* \"contracts/manager/StaffManager.sol\":264:292  RoleAccess public roleAccess */\n    tag_5:\n      sload(0x01)\n      tag_25\n      swap1\n      sub(shl(0xa0, 0x01), 0x01)\n      and\n      dup2\n      jump\n    tag_25:\n      mload(0x40)\n      sub(shl(0xa0, 0x01), 0x01)\n        /* \"#utility.yul\":3218:3250   */\n      swap1\n      swap2\n      and\n        /* \"#utility.yul\":3200:3251   */\n      dup2\n      mstore\n        /* \"#utility.yul\":3188:3190   */\n      0x20\n        /* \"#utility.yul\":3173:3191   */\n      add\n        /* \"contracts/manager/StaffManager.sol\":264:292  RoleAccess public roleAccess */\n      tag_17\n        /* \"#utility.yul\":3037:3257   */\n      jump\n        /* \"contracts/manager/StaffManager.sol\":1784:2238  function updateStaffInfo(... */\n    tag_6:\n      tag_29\n      tag_30\n      calldatasize\n      0x04\n      tag_31\n      jump\t// in\n    tag_30:\n      tag_32\n      jump\t// in\n    tag_29:\n      stop\n        /* \"contracts/manager/StaffManager.sol\":3076:3317  function addRaingWhenOrderSuccess (address _staffAddress, uint _orderId) external override  {... */\n    tag_7:\n      tag_29\n      tag_34\n      calldatasize\n      0x04\n      tag_21\n      jump\t// in\n    tag_34:\n      tag_35\n      jump\t// in\n        /* \"contracts/manager/StaffManager.sol\":2244:2645  function addStaffToOrder(uint256 _orderId, address addressStaff)... */\n    tag_8:\n      tag_29\n      tag_37\n      calldatasize\n      0x04\n      tag_38\n      jump\t// in\n    tag_37:\n      tag_39\n      jump\t// in\n        /* \"contracts/manager/StaffManager.sol\":298:337  mapping(address => Staff) public staffs */\n    tag_9:\n      tag_40\n      tag_41\n      calldatasize\n      0x04\n      tag_42\n      jump\t// in\n    tag_41:\n      tag_43\n      jump\t// in\n    tag_40:\n      mload(0x40)\n      tag_17\n      swap8\n      swap7\n      swap6\n      swap5\n      swap4\n      swap3\n      swap2\n      swap1\n      tag_45\n      jump\t// in\n        /* \"contracts/manager/StaffManager.sol\":817:1309  function addStaff(... */\n    tag_10:\n      tag_29\n      tag_47\n      calldatasize\n      0x04\n      tag_31\n      jump\t// in\n    tag_47:\n      tag_48\n      jump\t// in\n        /* \"contracts/manager/StaffManager.sol\":1315:1481  function getStaff(address addressStaff)... */\n    tag_11:\n      tag_49\n      tag_50\n      calldatasize\n      0x04\n      tag_42\n      jump\t// in\n    tag_50:\n      tag_51\n      jump\t// in\n    tag_49:\n      mload(0x40)\n      tag_17\n      swap2\n      swap1\n      tag_53\n      jump\t// in\n        /* \"contracts/manager/StaffManager.sol\":2651:3071  function updateRatingStaff(... */\n    tag_12:\n      tag_29\n      tag_55\n      calldatasize\n      0x04\n      tag_56\n      jump\t// in\n    tag_55:\n      tag_57\n      jump\t// in\n        /* \"contracts/manager/StaffManager.sol\":225:258  IOrderManager public orderManager */\n    tag_13:\n      sload(0x00)\n      tag_25\n      swap1\n      sub(shl(0xa0, 0x01), 0x01)\n      and\n      dup2\n      jump\n        /* \"contracts/manager/StaffManager.sol\":1486:1779  function getAllStaffs() external view returns (Staff[] memory) {... */\n    tag_16:\n        /* \"contracts/manager/StaffManager.sol\":1598:1612  staffAddresses */\n      0x03\n        /* \"contracts/manager/StaffManager.sol\":1598:1619  staffAddresses.length */\n      sload\n        /* \"contracts/manager/StaffManager.sol\":1533:1547  Staff[] memory */\n      0x60\n      swap1\n        /* \"contracts/manager/StaffManager.sol\":1559:1583  Staff[] memory allStaffs */\n      0x00\n      swap1\n        /* \"contracts/manager/StaffManager.sol\":1586:1620  new Staff[](staffAddresses.length) */\n      0xffffffffffffffff\n      dup2\n      gt\n      iszero\n      tag_64\n      jumpi\n      tag_64\n      tag_65\n      jump\t// in\n    tag_64:\n      mload(0x40)\n      swap1\n      dup1\n      dup3\n      mstore\n      dup1\n      0x20\n      mul\n      0x20\n      add\n      dup3\n      add\n      0x40\n      mstore\n      dup1\n      iszero\n      tag_66\n      jumpi\n      dup2\n      0x20\n      add\n    tag_67:\n      tag_68\n      tag_69\n      jump\t// in\n    tag_68:\n      dup2\n      mstore\n      0x20\n      add\n      swap1\n      0x01\n      swap1\n      sub\n      swap1\n      dup2\n      tag_67\n      jumpi\n      swap1\n      pop\n    tag_66:\n      pop\n        /* \"contracts/manager/StaffManager.sol\":1559:1620  Staff[] memory allStaffs = new Staff[](staffAddresses.length) */\n      swap1\n      pop\n        /* \"contracts/manager/StaffManager.sol\":1635:1644  uint256 i */\n      0x00\n        /* \"contracts/manager/StaffManager.sol\":1630:1747  for (uint256 i = 0; i < staffAddresses.length; i++) {... */\n    tag_70:\n        /* \"contracts/manager/StaffManager.sol\":1654:1668  staffAddresses */\n      0x03\n        /* \"contracts/manager/StaffManager.sol\":1654:1675  staffAddresses.length */\n      sload\n        /* \"contracts/manager/StaffManager.sol\":1650:1675  i < staffAddresses.length */\n      dup2\n      lt\n        /* \"contracts/manager/StaffManager.sol\":1630:1747  for (uint256 i = 0; i < staffAddresses.length; i++) {... */\n      iszero\n      tag_71\n      jumpi\n        /* \"contracts/manager/StaffManager.sol\":1711:1717  staffs */\n      0x02\n        /* \"contracts/manager/StaffManager.sol\":1711:1736  staffs[staffAddresses[i]] */\n      0x00\n        /* \"contracts/manager/StaffManager.sol\":1718:1732  staffAddresses */\n      0x03\n        /* \"contracts/manager/StaffManager.sol\":1733:1734  i */\n      dup4\n        /* \"contracts/manager/StaffManager.sol\":1718:1735  staffAddresses[i] */\n      dup2\n      sload\n      dup2\n      lt\n      tag_74\n      jumpi\n      tag_74\n      tag_75\n      jump\t// in\n    tag_74:\n      0x00\n      swap2\n      dup3\n      mstore\n      0x20\n      dup1\n      dup4\n      keccak256\n      swap1\n      swap2\n      add\n      sload\n      sub(shl(0xa0, 0x01), 0x01)\n      swap1\n      dup2\n      and\n        /* \"contracts/manager/StaffManager.sol\":1711:1736  staffs[staffAddresses[i]] */\n      dup5\n      mstore\n      dup4\n      dup3\n      add\n      swap5\n      swap1\n      swap5\n      mstore\n      0x40\n      swap3\n      dup4\n      add\n      swap1\n      swap2\n      keccak256\n        /* \"contracts/manager/StaffManager.sol\":1696:1736  allStaffs[i] = staffs[staffAddresses[i]] */\n      dup3\n      mload\n      0xe0\n      dup2\n      add\n      swap1\n      swap4\n      mstore\n      dup1\n      sload\n      swap1\n      swap4\n      and\n      dup3\n      mstore\n        /* \"contracts/manager/StaffManager.sol\":1718:1735  staffAddresses[i] */\n      0x01\n        /* \"contracts/manager/StaffManager.sol\":1696:1736  allStaffs[i] = staffs[staffAddresses[i]] */\n      dup4\n      add\n      dup1\n      sload\n      swap3\n      swap4\n        /* \"contracts/manager/StaffManager.sol\":1711:1736  staffs[staffAddresses[i]] */\n      swap3\n        /* \"contracts/manager/StaffManager.sol\":1696:1736  allStaffs[i] = staffs[staffAddresses[i]] */\n      swap2\n      dup5\n      add\n      swap2\n      tag_77\n      swap1\n      tag_78\n      jump\t// in\n    tag_77:\n      dup1\n      0x1f\n      add\n      0x20\n      dup1\n      swap2\n      div\n      mul\n      0x20\n      add\n      mload(0x40)\n      swap1\n      dup2\n      add\n      0x40\n      mstore\n      dup1\n      swap3\n      swap2\n      swap1\n      dup2\n      dup2\n      mstore\n      0x20\n      add\n      dup3\n      dup1\n      sload\n      tag_79\n      swap1\n      tag_78\n      jump\t// in\n    tag_79:\n      dup1\n      iszero\n      tag_80\n      jumpi\n      dup1\n      0x1f\n      lt\n      tag_81\n      jumpi\n      0x0100\n      dup1\n      dup4\n      sload\n      div\n      mul\n      dup4\n      mstore\n      swap2\n      0x20\n      add\n      swap2\n      jump(tag_80)\n    tag_81:\n      dup3\n      add\n      swap2\n      swap1\n      0x00\n      mstore\n      keccak256(0x00, 0x20)\n      swap1\n    tag_82:\n      dup2\n      sload\n      dup2\n      mstore\n      swap1\n      0x01\n      add\n      swap1\n      0x20\n      add\n      dup1\n      dup4\n      gt\n      tag_82\n      jumpi\n      dup3\n      swap1\n      sub\n      0x1f\n      and\n      dup3\n      add\n      swap2\n    tag_80:\n      pop\n      pop\n      pop\n      pop\n      pop\n      dup2\n      mstore\n      0x20\n      add\n      0x02\n      dup3\n      add\n      dup1\n      sload\n      tag_83\n      swap1\n      tag_78\n      jump\t// in\n    tag_83:\n      dup1\n      0x1f\n      add\n      0x20\n      dup1\n      swap2\n      div\n      mul\n      0x20\n      add\n      mload(0x40)\n      swap1\n      dup2\n      add\n      0x40\n      mstore\n      dup1\n      swap3\n      swap2\n      swap1\n      dup2\n      dup2\n      mstore\n      0x20\n      add\n      dup3\n      dup1\n      sload\n      tag_84\n      swap1\n      tag_78\n      jump\t// in\n    tag_84:\n      dup1\n      iszero\n      tag_85\n      jumpi\n      dup1\n      0x1f\n      lt\n      tag_86\n      jumpi\n      0x0100\n      dup1\n      dup4\n      sload\n      div\n      mul\n      dup4\n      mstore\n      swap2\n      0x20\n      add\n      swap2\n      jump(tag_85)\n    tag_86:\n      dup3\n      add\n      swap2\n      swap1\n      0x00\n      mstore\n      keccak256(0x00, 0x20)\n      swap1\n    tag_87:\n      dup2\n      sload\n      dup2\n      mstore\n      swap1\n      0x01\n      add\n      swap1\n      0x20\n      add\n      dup1\n      dup4\n      gt\n      tag_87\n      jumpi\n      dup3\n      swap1\n      sub\n      0x1f\n      and\n      dup3\n      add\n      swap2\n    tag_85:\n      pop\n      pop\n      pop\n      pop\n      pop\n      dup2\n      mstore\n      0x20\n      add\n      0x03\n      dup3\n      add\n      dup1\n      sload\n      tag_88\n      swap1\n      tag_78\n      jump\t// in\n    tag_88:\n      dup1\n      0x1f\n      add\n      0x20\n      dup1\n      swap2\n      div\n      mul\n      0x20\n      add\n      mload(0x40)\n      swap1\n      dup2\n      add\n      0x40\n      mstore\n      dup1\n      swap3\n      swap2\n      swap1\n      dup2\n      dup2\n      mstore\n      0x20\n      add\n      dup3\n      dup1\n      sload\n      tag_89\n      swap1\n      tag_78\n      jump\t// in\n    tag_89:\n      dup1\n      iszero\n      tag_90\n      jumpi\n      dup1\n      0x1f\n      lt\n      tag_91\n      jumpi\n      0x0100\n      dup1\n      dup4\n      sload\n      div\n      mul\n      dup4\n      mstore\n      swap2\n      0x20\n      add\n      swap2\n      jump(tag_90)\n    tag_91:\n      dup3\n      add\n      swap2\n      swap1\n      0x00\n      mstore\n      keccak256(0x00, 0x20)\n      swap1\n    tag_92:\n      dup2\n      sload\n      dup2\n      mstore\n      swap1\n      0x01\n      add\n      swap1\n      0x20\n      add\n      dup1\n      dup4\n      gt\n      tag_92\n      jumpi\n      dup3\n      swap1\n      sub\n      0x1f\n      and\n      dup3\n      add\n      swap2\n    tag_90:\n      pop\n      pop\n      pop\n      swap2\n      dup4\n      mstore\n      pop\n      pop\n      0x04\n      dup3\n      add\n      sload\n      0x20\n      dup3\n      add\n      mstore\n      0x05\n      dup3\n      add\n      sload\n      0x40\n      dup3\n      add\n      mstore\n      0x06\n      dup3\n      add\n      sload\n      0x60\n      swap1\n      swap2\n      add\n      swap1\n      0xff\n      and\n      0x01\n      dup2\n      gt\n      iszero\n      tag_94\n      jumpi\n      tag_94\n      tag_95\n      jump\t// in\n    tag_94:\n      0x01\n      dup2\n      gt\n      iszero\n      tag_97\n      jumpi\n      tag_97\n      tag_95\n      jump\t// in\n    tag_97:\n      dup2\n      mstore\n      pop\n      pop\n        /* \"contracts/manager/StaffManager.sol\":1696:1705  allStaffs */\n      dup3\n        /* \"contracts/manager/StaffManager.sol\":1706:1707  i */\n      dup3\n        /* \"contracts/manager/StaffManager.sol\":1696:1708  allStaffs[i] */\n      dup2\n      mload\n      dup2\n      lt\n      tag_99\n      jumpi\n      tag_99\n      tag_75\n      jump\t// in\n    tag_99:\n      0x20\n      swap1\n      dup2\n      mul\n      swap2\n      swap1\n      swap2\n      add\n      add\n        /* \"contracts/manager/StaffManager.sol\":1696:1736  allStaffs[i] = staffs[staffAddresses[i]] */\n      mstore\n        /* \"contracts/manager/StaffManager.sol\":1677:1680  i++ */\n      0x01\n      add\n        /* \"contracts/manager/StaffManager.sol\":1630:1747  for (uint256 i = 0; i < staffAddresses.length; i++) {... */\n      jump(tag_70)\n    tag_71:\n      pop\n        /* \"contracts/manager/StaffManager.sol\":1763:1772  allStaffs */\n      swap2\n        /* \"contracts/manager/StaffManager.sol\":1486:1779  function getAllStaffs() external view returns (Staff[] memory) {... */\n      swap1\n      pop\n      jump\t// out\n        /* \"contracts/manager/StaffManager.sol\":468:515  mapping (address => uint[]) public staffInOrder */\n    tag_22:\n      mstore(0x20, 0x04)\n      dup2\n      0x00\n      mstore\n      keccak256(0x00, 0x40)\n      dup2\n      dup2\n      sload\n      dup2\n      lt\n      tag_100\n      jumpi\n      0x00\n      dup1\n      revert\n    tag_100:\n      swap1\n      0x00\n      mstore\n      keccak256(0x00, 0x20)\n      add\n      0x00\n      swap2\n      pop\n      swap2\n      pop\n      pop\n      sload\n      dup2\n      jump\t// out\n        /* \"contracts/manager/StaffManager.sol\":1784:2238  function updateStaffInfo(... */\n    tag_32:\n      sub(shl(0xa0, 0x01), 0x01)\n        /* \"contracts/manager/StaffManager.sol\":1974:1994  staffs[addressStaff] */\n      dup8\n      dup2\n      and\n        /* \"contracts/manager/StaffManager.sol\":2019:2020  0 */\n      0x00\n        /* \"contracts/manager/StaffManager.sol\":1974:1994  staffs[addressStaff] */\n      swap1\n      dup2\n      mstore\n        /* \"contracts/manager/StaffManager.sol\":1974:1980  staffs */\n      0x02\n        /* \"contracts/manager/StaffManager.sol\":1974:1994  staffs[addressStaff] */\n      0x20\n      mstore\n      0x40\n      swap1\n      keccak256\n        /* \"contracts/manager/StaffManager.sol\":1974:2007  staffs[addressStaff].staffAddress */\n      sload\n      and\n        /* \"contracts/manager/StaffManager.sol\":1966:2054  require(staffs[addressStaff].staffAddress != address(0), \"Staff address does not exist\") */\n      tag_103\n      jumpi\n      mload(0x40)\n      shl(0xe5, 0x461bcd)\n      dup2\n      mstore\n        /* \"#utility.yul\":7872:7874   */\n      0x20\n        /* \"contracts/manager/StaffManager.sol\":1966:2054  require(staffs[addressStaff].staffAddress != address(0), \"Staff address does not exist\") */\n      0x04\n      dup3\n      add\n        /* \"#utility.yul\":7854:7875   */\n      mstore\n        /* \"#utility.yul\":7911:7913   */\n      0x1c\n        /* \"#utility.yul\":7891:7909   */\n      0x24\n      dup3\n      add\n        /* \"#utility.yul\":7884:7914   */\n      mstore\n        /* \"#utility.yul\":7950:7980   */\n      0x5374616666206164647265737320646f6573206e6f7420657869737400000000\n        /* \"#utility.yul\":7930:7948   */\n      0x44\n      dup3\n      add\n        /* \"#utility.yul\":7923:7981   */\n      mstore\n        /* \"#utility.yul\":7998:8016   */\n      0x64\n      add\n        /* \"contracts/manager/StaffManager.sol\":1966:2054  require(staffs[addressStaff].staffAddress != address(0), \"Staff address does not exist\") */\n    tag_104:\n      mload(0x40)\n      dup1\n      swap2\n      sub\n      swap1\n      revert\n    tag_103:\n      sub(shl(0xa0, 0x01), 0x01)\n        /* \"contracts/manager/StaffManager.sol\":2064:2084  staffs[addressStaff] */\n      dup8\n      and\n      0x00\n      swap1\n      dup2\n      mstore\n        /* \"contracts/manager/StaffManager.sol\":2064:2070  staffs */\n      0x02\n        /* \"contracts/manager/StaffManager.sol\":2064:2084  staffs[addressStaff] */\n      0x20\n      mstore\n      0x40\n      swap1\n      keccak256\n        /* \"contracts/manager/StaffManager.sol\":2064:2089  staffs[addressStaff].name */\n      0x01\n      add\n        /* \"contracts/manager/StaffManager.sol\":2064:2097  staffs[addressStaff].name = _name */\n      tag_106\n        /* \"contracts/manager/StaffManager.sol\":2092:2097  _name */\n      dup7\n      dup9\n        /* \"contracts/manager/StaffManager.sol\":2064:2089  staffs[addressStaff].name */\n      dup4\n        /* \"contracts/manager/StaffManager.sol\":2064:2097  staffs[addressStaff].name = _name */\n      tag_107\n      jump\t// in\n    tag_106:\n      pop\n      sub(shl(0xa0, 0x01), 0x01)\n        /* \"contracts/manager/StaffManager.sol\":2107:2127  staffs[addressStaff] */\n      dup8\n      and\n      0x00\n      swap1\n      dup2\n      mstore\n        /* \"contracts/manager/StaffManager.sol\":2107:2113  staffs */\n      0x02\n        /* \"contracts/manager/StaffManager.sol\":2107:2127  staffs[addressStaff] */\n      0x20\n      dup2\n      swap1\n      mstore\n      0x40\n      swap1\n      swap2\n      keccak256\n        /* \"contracts/manager/StaffManager.sol\":2107:2131  staffs[addressStaff].dob */\n      add\n        /* \"contracts/manager/StaffManager.sol\":2107:2138  staffs[addressStaff].dob = _dob */\n      tag_108\n        /* \"contracts/manager/StaffManager.sol\":2134:2138  _dob */\n      dup5\n      dup7\n        /* \"contracts/manager/StaffManager.sol\":2107:2131  staffs[addressStaff].dob */\n      dup4\n        /* \"contracts/manager/StaffManager.sol\":2107:2138  staffs[addressStaff].dob = _dob */\n      tag_107\n      jump\t// in\n    tag_108:\n      pop\n      sub(shl(0xa0, 0x01), 0x01)\n        /* \"contracts/manager/StaffManager.sol\":2148:2168  staffs[addressStaff] */\n      dup8\n      and\n      0x00\n      swap1\n      dup2\n      mstore\n        /* \"contracts/manager/StaffManager.sol\":2148:2154  staffs */\n      0x02\n        /* \"contracts/manager/StaffManager.sol\":2148:2168  staffs[addressStaff] */\n      0x20\n      mstore\n      0x40\n      swap1\n      keccak256\n        /* \"contracts/manager/StaffManager.sol\":2148:2174  staffs[addressStaff].phone */\n      0x03\n      add\n        /* \"contracts/manager/StaffManager.sol\":2148:2183  staffs[addressStaff].phone = _phone */\n      tag_109\n        /* \"contracts/manager/StaffManager.sol\":2177:2183  _phone */\n      dup3\n      dup5\n        /* \"contracts/manager/StaffManager.sol\":2148:2174  staffs[addressStaff].phone */\n      dup4\n        /* \"contracts/manager/StaffManager.sol\":2148:2183  staffs[addressStaff].phone = _phone */\n      tag_107\n      jump\t// in\n    tag_109:\n      pop\n        /* \"contracts/manager/StaffManager.sol\":2211:2223  addressStaff */\n      dup7\n      sub(shl(0xa0, 0x01), 0x01)\n        /* \"contracts/manager/StaffManager.sol\":2198:2231  StaffUpdated(addressStaff, _name) */\n      and\n      0x3dcb5fe974f30b3e06b920890e4bdb2242f9f641c1d184169397248527bd9e4b\n        /* \"contracts/manager/StaffManager.sol\":2225:2230  _name */\n      dup8\n      dup8\n        /* \"contracts/manager/StaffManager.sol\":2198:2231  StaffUpdated(addressStaff, _name) */\n      mload(0x40)\n      tag_110\n      swap3\n      swap2\n      swap1\n      tag_111\n      jump\t// in\n    tag_110:\n      mload(0x40)\n      dup1\n      swap2\n      sub\n      swap1\n      log2\n        /* \"contracts/manager/StaffManager.sol\":1784:2238  function updateStaffInfo(... */\n      pop\n      pop\n      pop\n      pop\n      pop\n      pop\n      pop\n      jump\t// out\n        /* \"contracts/manager/StaffManager.sol\":3076:3317  function addRaingWhenOrderSuccess (address _staffAddress, uint _orderId) external override  {... */\n    tag_35:\n      sub(shl(0xa0, 0x01), 0x01)\n        /* \"contracts/manager/StaffManager.sol\":3186:3207  staffs[_staffAddress] */\n      dup3\n      dup2\n      and\n        /* \"contracts/manager/StaffManager.sol\":3232:3233  0 */\n      0x00\n        /* \"contracts/manager/StaffManager.sol\":3186:3207  staffs[_staffAddress] */\n      swap1\n      dup2\n      mstore\n        /* \"contracts/manager/StaffManager.sol\":3186:3192  staffs */\n      0x02\n        /* \"contracts/manager/StaffManager.sol\":3186:3207  staffs[_staffAddress] */\n      0x20\n      mstore\n      0x40\n      swap1\n      keccak256\n        /* \"contracts/manager/StaffManager.sol\":3186:3220  staffs[_staffAddress].staffAddress */\n      sload\n      and\n        /* \"contracts/manager/StaffManager.sol\":3186:3234  staffs[_staffAddress].staffAddress == address(0) */\n      iszero\n        /* \"contracts/manager/StaffManager.sol\":3178:3258  require(staffs[_staffAddress].staffAddress == address(0),\"Staff does not exist\") */\n      tag_113\n      jumpi\n      mload(0x40)\n      shl(0xe5, 0x461bcd)\n      dup2\n      mstore\n        /* \"#utility.yul\":10647:10649   */\n      0x20\n        /* \"contracts/manager/StaffManager.sol\":3178:3258  require(staffs[_staffAddress].staffAddress == address(0),\"Staff does not exist\") */\n      0x04\n      dup3\n      add\n        /* \"#utility.yul\":10629:10650   */\n      mstore\n        /* \"#utility.yul\":10686:10688   */\n      0x14\n        /* \"#utility.yul\":10666:10684   */\n      0x24\n      dup3\n      add\n        /* \"#utility.yul\":10659:10689   */\n      mstore\n      shl(0x62, 0x14dd18599988191bd95cc81b9bdd08195e1a5cdd)\n        /* \"#utility.yul\":10705:10723   */\n      0x44\n      dup3\n      add\n        /* \"#utility.yul\":10698:10748   */\n      mstore\n        /* \"#utility.yul\":10765:10783   */\n      0x64\n      add\n        /* \"contracts/manager/StaffManager.sol\":3178:3258  require(staffs[_staffAddress].staffAddress == address(0),\"Staff does not exist\") */\n      tag_104\n        /* \"#utility.yul\":10445:10789   */\n      jump\n        /* \"contracts/manager/StaffManager.sol\":3178:3258  require(staffs[_staffAddress].staffAddress == address(0),\"Staff does not exist\") */\n    tag_113:\n      sub(shl(0xa0, 0x01), 0x01)\n        /* \"contracts/manager/StaffManager.sol\":3268:3295  staffInOrder[_staffAddress] */\n      swap1\n      swap2\n      and\n      0x00\n      swap1\n      dup2\n      mstore\n        /* \"contracts/manager/StaffManager.sol\":3268:3280  staffInOrder */\n      0x04\n        /* \"contracts/manager/StaffManager.sol\":3268:3295  staffInOrder[_staffAddress] */\n      0x20\n      swap1\n      dup2\n      mstore\n      0x40\n      dup3\n      keccak256\n        /* \"contracts/manager/StaffManager.sol\":3268:3310  staffInOrder[_staffAddress].push(_orderId) */\n      dup1\n      sload\n      0x01\n      dup2\n      add\n      dup3\n      sstore\n      swap1\n      dup4\n      mstore\n      swap2\n      keccak256\n      add\n      sstore\n        /* \"contracts/manager/StaffManager.sol\":3076:3317  function addRaingWhenOrderSuccess (address _staffAddress, uint _orderId) external override  {... */\n      jump\t// out\n        /* \"contracts/manager/StaffManager.sol\":2244:2645  function addStaffToOrder(uint256 _orderId, address addressStaff)... */\n    tag_39:\n        /* \"contracts/manager/StaffManager.sol\":743:753  roleAccess */\n      sload(0x01)\n        /* \"contracts/manager/StaffManager.sol\":743:772  roleAccess.isAdmin(tx.origin) */\n      mload(0x40)\n      shl(0xe2, 0x0935e01b)\n      dup2\n      mstore\n        /* \"contracts/manager/StaffManager.sol\":762:771  tx.origin */\n      origin\n        /* \"contracts/manager/StaffManager.sol\":743:772  roleAccess.isAdmin(tx.origin) */\n      0x04\n      dup3\n      add\n        /* \"#utility.yul\":3200:3251   */\n      mstore\n      sub(shl(0xa0, 0x01), 0x01)\n        /* \"contracts/manager/StaffManager.sol\":743:753  roleAccess */\n      swap1\n      swap2\n      and\n      swap1\n        /* \"contracts/manager/StaffManager.sol\":743:761  roleAccess.isAdmin */\n      0x24d7806c\n      swap1\n        /* \"#utility.yul\":3173:3191   */\n      0x24\n      add\n        /* \"contracts/manager/StaffManager.sol\":743:772  roleAccess.isAdmin(tx.origin) */\n      0x20\n      mload(0x40)\n      dup1\n      dup4\n      sub\n      dup2\n      dup7\n      gas\n      staticcall\n      iszero\n      dup1\n      iszero\n      tag_121\n      jumpi\n      returndatacopy(0x00, 0x00, returndatasize)\n      revert(0x00, returndatasize)\n    tag_121:\n      pop\n      pop\n      pop\n      pop\n      mload(0x40)\n      returndatasize\n      not(0x1f)\n      0x1f\n      dup3\n      add\n      and\n      dup3\n      add\n      dup1\n      0x40\n      mstore\n      pop\n      dup2\n      add\n      swap1\n      tag_122\n      swap2\n      swap1\n      tag_123\n      jump\t// in\n    tag_122:\n        /* \"contracts/manager/StaffManager.sol\":735:794  require(roleAccess.isAdmin(tx.origin), \"You are not admin\") */\n      tag_124\n      jumpi\n      mload(0x40)\n      shl(0xe5, 0x461bcd)\n      dup2\n      mstore\n      0x04\n      add\n      tag_104\n      swap1\n      tag_126\n      jump\t// in\n    tag_124:\n      sub(shl(0xa0, 0x01), 0x01)\n        /* \"contracts/manager/StaffManager.sol\":2383:2403  staffs[addressStaff] */\n      dup2\n      dup2\n      and\n        /* \"contracts/manager/StaffManager.sol\":2428:2429  0 */\n      0x00\n        /* \"contracts/manager/StaffManager.sol\":2383:2403  staffs[addressStaff] */\n      swap1\n      dup2\n      mstore\n        /* \"contracts/manager/StaffManager.sol\":2383:2389  staffs */\n      0x02\n        /* \"contracts/manager/StaffManager.sol\":2383:2403  staffs[addressStaff] */\n      0x20\n      mstore\n      0x40\n      swap1\n      keccak256\n        /* \"contracts/manager/StaffManager.sol\":2383:2416  staffs[addressStaff].staffAddress */\n      sload\n      and\n        /* \"contracts/manager/StaffManager.sol\":2375:2463  require(staffs[addressStaff].staffAddress != address(0), \"Staff address does not exist\") */\n      tag_128\n      jumpi\n      mload(0x40)\n      shl(0xe5, 0x461bcd)\n      dup2\n      mstore\n        /* \"#utility.yul\":7872:7874   */\n      0x20\n        /* \"contracts/manager/StaffManager.sol\":2375:2463  require(staffs[addressStaff].staffAddress != address(0), \"Staff address does not exist\") */\n      0x04\n      dup3\n      add\n        /* \"#utility.yul\":7854:7875   */\n      mstore\n        /* \"#utility.yul\":7911:7913   */\n      0x1c\n        /* \"#utility.yul\":7891:7909   */\n      0x24\n      dup3\n      add\n        /* \"#utility.yul\":7884:7914   */\n      mstore\n        /* \"#utility.yul\":7950:7980   */\n      0x5374616666206164647265737320646f6573206e6f7420657869737400000000\n        /* \"#utility.yul\":7930:7948   */\n      0x44\n      dup3\n      add\n        /* \"#utility.yul\":7923:7981   */\n      mstore\n        /* \"#utility.yul\":7998:8016   */\n      0x64\n      add\n        /* \"contracts/manager/StaffManager.sol\":2375:2463  require(staffs[addressStaff].staffAddress != address(0), \"Staff address does not exist\") */\n      tag_104\n        /* \"#utility.yul\":7670:8022   */\n      jump\n        /* \"contracts/manager/StaffManager.sol\":2375:2463  require(staffs[addressStaff].staffAddress != address(0), \"Staff address does not exist\") */\n    tag_128:\n      sub(shl(0xa0, 0x01), 0x01)\n        /* \"contracts/manager/StaffManager.sol\":2473:2493  staffs[addressStaff] */\n      dup2\n      dup2\n      and\n      0x00\n      dup2\n      dup2\n      mstore\n        /* \"contracts/manager/StaffManager.sol\":2473:2479  staffs */\n      0x02\n        /* \"contracts/manager/StaffManager.sol\":2473:2493  staffs[addressStaff] */\n      0x20\n      mstore\n      0x40\n      dup1\n      dup3\n      keccak256\n        /* \"contracts/manager/StaffManager.sol\":2473:2500  staffs[addressStaff].status */\n      0x06\n      add\n        /* \"contracts/manager/StaffManager.sol\":2473:2519  staffs[addressStaff].status = StaffStatus.Busy */\n      dup1\n      sload\n      not(0xff)\n      and\n        /* \"contracts/manager/StaffManager.sol\":2503:2519  StaffStatus.Busy */\n      0x01\n        /* \"contracts/manager/StaffManager.sol\":2473:2519  staffs[addressStaff].status = StaffStatus.Busy */\n      or\n      swap1\n      sstore\n        /* \"contracts/manager/StaffManager.sol\":2529:2541  orderManager */\n      swap1\n      sload\n        /* \"contracts/manager/StaffManager.sol\":2529:2582  orderManager.addStaffForOrder(_orderId, addressStaff) */\n      swap1\n      mload\n      shl(0xe0, 0x7ea076a3)\n      dup2\n      mstore\n      0x04\n      dup2\n      add\n        /* \"#utility.yul\":11804:11829   */\n      dup7\n      swap1\n      mstore\n        /* \"#utility.yul\":11845:11863   */\n      0x24\n      dup2\n      add\n        /* \"#utility.yul\":11838:11898   */\n      swap3\n      swap1\n      swap3\n      mstore\n        /* \"contracts/manager/StaffManager.sol\":2529:2541  orderManager */\n      swap1\n      swap2\n      and\n      swap1\n        /* \"contracts/manager/StaffManager.sol\":2529:2558  orderManager.addStaffForOrder */\n      0x7ea076a3\n      swap1\n        /* \"#utility.yul\":11777:11795   */\n      0x44\n      add\n        /* \"contracts/manager/StaffManager.sol\":2529:2582  orderManager.addStaffForOrder(_orderId, addressStaff) */\n      0x00\n      mload(0x40)\n      dup1\n      dup4\n      sub\n      dup2\n      0x00\n      dup8\n      dup1\n      extcodesize\n      iszero\n      dup1\n      iszero\n      tag_134\n      jumpi\n      revert(0x00, 0x00)\n    tag_134:\n      pop\n      gas\n      call\n      iszero\n      dup1\n      iszero\n      tag_136\n      jumpi\n      returndatacopy(0x00, 0x00, returndatasize)\n      revert(0x00, returndatasize)\n    tag_136:\n      pop\n      pop\n      pop\n      pop\n        /* \"contracts/manager/StaffManager.sol\":2615:2627  addressStaff */\n      dup1\n      sub(shl(0xa0, 0x01), 0x01)\n        /* \"contracts/manager/StaffManager.sol\":2597:2638  StaffAddedToOrder(addressStaff, _orderId) */\n      and\n      0x9db6c9b6c2a287d549df6b984d957053e5f3782439393782b3b61f71715cbe93\n        /* \"contracts/manager/StaffManager.sol\":2629:2637  _orderId */\n      dup4\n        /* \"contracts/manager/StaffManager.sol\":2597:2638  StaffAddedToOrder(addressStaff, _orderId) */\n      mload(0x40)\n      tag_137\n      swap2\n        /* \"#utility.yul\":3001:3026   */\n      dup2\n      mstore\n        /* \"#utility.yul\":2989:2991   */\n      0x20\n        /* \"#utility.yul\":2974:2992   */\n      add\n      swap1\n        /* \"#utility.yul\":2855:3032   */\n      jump\n        /* \"contracts/manager/StaffManager.sol\":2597:2638  StaffAddedToOrder(addressStaff, _orderId) */\n    tag_137:\n      mload(0x40)\n      dup1\n      swap2\n      sub\n      swap1\n      log2\n        /* \"contracts/manager/StaffManager.sol\":2244:2645  function addStaffToOrder(uint256 _orderId, address addressStaff)... */\n      pop\n      pop\n      jump\t// out\n        /* \"contracts/manager/StaffManager.sol\":298:337  mapping(address => Staff) public staffs */\n    tag_43:\n      mstore(0x20, 0x02)\n      0x00\n      swap1\n      dup2\n      mstore\n      0x40\n      swap1\n      keccak256\n      dup1\n      sload\n      0x01\n      dup3\n      add\n      dup1\n      sload\n      sub(shl(0xa0, 0x01), 0x01)\n      swap1\n      swap3\n      and\n      swap3\n      swap2\n      tag_138\n      swap1\n      tag_78\n      jump\t// in\n    tag_138:\n      dup1\n      0x1f\n      add\n      0x20\n      dup1\n      swap2\n      div\n      mul\n      0x20\n      add\n      mload(0x40)\n      swap1\n      dup2\n      add\n      0x40\n      mstore\n      dup1\n      swap3\n      swap2\n      swap1\n      dup2\n      dup2\n      mstore\n      0x20\n      add\n      dup3\n      dup1\n      sload\n      tag_139\n      swap1\n      tag_78\n      jump\t// in\n    tag_139:\n      dup1\n      iszero\n      tag_140\n      jumpi\n      dup1\n      0x1f\n      lt\n      tag_141\n      jumpi\n      0x0100\n      dup1\n      dup4\n      sload\n      div\n      mul\n      dup4\n      mstore\n      swap2\n      0x20\n      add\n      swap2\n      jump(tag_140)\n    tag_141:\n      dup3\n      add\n      swap2\n      swap1\n      0x00\n      mstore\n      keccak256(0x00, 0x20)\n      swap1\n    tag_142:\n      dup2\n      sload\n      dup2\n      mstore\n      swap1\n      0x01\n      add\n      swap1\n      0x20\n      add\n      dup1\n      dup4\n      gt\n      tag_142\n      jumpi\n      dup3\n      swap1\n      sub\n      0x1f\n      and\n      dup3\n      add\n      swap2\n    tag_140:\n      pop\n      pop\n      pop\n      pop\n      pop\n      swap1\n      dup1\n      0x02\n      add\n      dup1\n      sload\n      tag_143\n      swap1\n      tag_78\n      jump\t// in\n    tag_143:\n      dup1\n      0x1f\n      add\n      0x20\n      dup1\n      swap2\n      div\n      mul\n      0x20\n      add\n      mload(0x40)\n      swap1\n      dup2\n      add\n      0x40\n      mstore\n      dup1\n      swap3\n      swap2\n      swap1\n      dup2\n      dup2\n      mstore\n      0x20\n      add\n      dup3\n      dup1\n      sload\n      tag_144\n      swap1\n      tag_78\n      jump\t// in\n    tag_144:\n      dup1\n      iszero\n      tag_145\n      jumpi\n      dup1\n      0x1f\n      lt\n      tag_146\n      jumpi\n      0x0100\n      dup1\n      dup4\n      sload\n      div\n      mul\n      dup4\n      mstore\n      swap2\n      0x20\n      add\n      swap2\n      jump(tag_145)\n    tag_146:\n      dup3\n      add\n      swap2\n      swap1\n      0x00\n      mstore\n      keccak256(0x00, 0x20)\n      swap1\n    tag_147:\n      dup2\n      sload\n      dup2\n      mstore\n      swap1\n      0x01\n      add\n      swap1\n      0x20\n      add\n      dup1\n      dup4\n      gt\n      tag_147\n      jumpi\n      dup3\n      swap1\n      sub\n      0x1f\n      and\n      dup3\n      add\n      swap2\n    tag_145:\n      pop\n      pop\n      pop\n      pop\n      pop\n      swap1\n      dup1\n      0x03\n      add\n      dup1\n      sload\n      tag_148\n      swap1\n      tag_78\n      jump\t// in\n    tag_148:\n      dup1\n      0x1f\n      add\n      0x20\n      dup1\n      swap2\n      div\n      mul\n      0x20\n      add\n      mload(0x40)\n      swap1\n      dup2\n      add\n      0x40\n      mstore\n      dup1\n      swap3\n      swap2\n      swap1\n      dup2\n      dup2\n      mstore\n      0x20\n      add\n      dup3\n      dup1\n      sload\n      tag_149\n      swap1\n      tag_78\n      jump\t// in\n    tag_149:\n      dup1\n      iszero\n      tag_150\n      jumpi\n      dup1\n      0x1f\n      lt\n      tag_151\n      jumpi\n      0x0100\n      dup1\n      dup4\n      sload\n      div\n      mul\n      dup4\n      mstore\n      swap2\n      0x20\n      add\n      swap2\n      jump(tag_150)\n    tag_151:\n      dup3\n      add\n      swap2\n      swap1\n      0x00\n      mstore\n      keccak256(0x00, 0x20)\n      swap1\n    tag_152:\n      dup2\n      sload\n      dup2\n      mstore\n      swap1\n      0x01\n      add\n      swap1\n      0x20\n      add\n      dup1\n      dup4\n      gt\n      tag_152\n      jumpi\n      dup3\n      swap1\n      sub\n      0x1f\n      and\n      dup3\n      add\n      swap2\n    tag_150:\n      pop\n      pop\n      pop\n      pop\n      0x04\n      dup4\n      add\n      sload\n      0x05\n      dup5\n      add\n      sload\n      0x06\n      swap1\n      swap5\n      add\n      sload\n      swap3\n      swap4\n      swap1\n      swap3\n      swap1\n      swap2\n      pop\n      0xff\n      and\n      dup8\n      jump\t// out\n        /* \"contracts/manager/StaffManager.sol\":817:1309  function addStaff(... */\n    tag_48:\n        /* \"contracts/manager/StaffManager.sol\":743:753  roleAccess */\n      sload(0x01)\n        /* \"contracts/manager/StaffManager.sol\":743:772  roleAccess.isAdmin(tx.origin) */\n      mload(0x40)\n      shl(0xe2, 0x0935e01b)\n      dup2\n      mstore\n        /* \"contracts/manager/StaffManager.sol\":762:771  tx.origin */\n      origin\n        /* \"contracts/manager/StaffManager.sol\":743:772  roleAccess.isAdmin(tx.origin) */\n      0x04\n      dup3\n      add\n        /* \"#utility.yul\":3200:3251   */\n      mstore\n      sub(shl(0xa0, 0x01), 0x01)\n        /* \"contracts/manager/StaffManager.sol\":743:753  roleAccess */\n      swap1\n      swap2\n      and\n      swap1\n        /* \"contracts/manager/StaffManager.sol\":743:761  roleAccess.isAdmin */\n      0x24d7806c\n      swap1\n        /* \"#utility.yul\":3173:3191   */\n      0x24\n      add\n        /* \"contracts/manager/StaffManager.sol\":743:772  roleAccess.isAdmin(tx.origin) */\n      0x20\n      mload(0x40)\n      dup1\n      dup4\n      sub\n      dup2\n      dup7\n      gas\n      staticcall\n      iszero\n      dup1\n      iszero\n      tag_156\n      jumpi\n      returndatacopy(0x00, 0x00, returndatasize)\n      revert(0x00, returndatasize)\n    tag_156:\n      pop\n      pop\n      pop\n      pop\n      mload(0x40)\n      returndatasize\n      not(0x1f)\n      0x1f\n      dup3\n      add\n      and\n      dup3\n      add\n      dup1\n      0x40\n      mstore\n      pop\n      dup2\n      add\n      swap1\n      tag_157\n      swap2\n      swap1\n      tag_123\n      jump\t// in\n    tag_157:\n        /* \"contracts/manager/StaffManager.sol\":735:794  require(roleAccess.isAdmin(tx.origin), \"You are not admin\") */\n      tag_158\n      jumpi\n      mload(0x40)\n      shl(0xe5, 0x461bcd)\n      dup2\n      mstore\n      0x04\n      add\n      tag_104\n      swap1\n      tag_126\n      jump\t// in\n    tag_158:\n      sub(shl(0xa0, 0x01), 0x01)\n        /* \"contracts/manager/StaffManager.sol\":1010:1036  addressStaff != address(0) */\n      dup8\n      and\n        /* \"contracts/manager/StaffManager.sol\":1002:1062  require(addressStaff != address(0), \"Invalid staff address\") */\n      tag_161\n      jumpi\n      mload(0x40)\n      shl(0xe5, 0x461bcd)\n      dup2\n      mstore\n        /* \"#utility.yul\":12111:12113   */\n      0x20\n        /* \"contracts/manager/StaffManager.sol\":1002:1062  require(addressStaff != address(0), \"Invalid staff address\") */\n      0x04\n      dup3\n      add\n        /* \"#utility.yul\":12093:12114   */\n      mstore\n        /* \"#utility.yul\":12150:12152   */\n      0x15\n        /* \"#utility.yul\":12130:12148   */\n      0x24\n      dup3\n      add\n        /* \"#utility.yul\":12123:12153   */\n      mstore\n      shl(0x58, 0x496e76616c69642073746166662061646472657373)\n        /* \"#utility.yul\":12169:12187   */\n      0x44\n      dup3\n      add\n        /* \"#utility.yul\":12162:12213   */\n      mstore\n        /* \"#utility.yul\":12230:12248   */\n      0x64\n      add\n        /* \"contracts/manager/StaffManager.sol\":1002:1062  require(addressStaff != address(0), \"Invalid staff address\") */\n      tag_104\n        /* \"#utility.yul\":11909:12254   */\n      jump\n        /* \"contracts/manager/StaffManager.sol\":1002:1062  require(addressStaff != address(0), \"Invalid staff address\") */\n    tag_161:\n      sub(shl(0xa0, 0x01), 0x01)\n        /* \"contracts/manager/StaffManager.sol\":1080:1100  staffs[addressStaff] */\n      dup8\n      dup2\n      and\n        /* \"contracts/manager/StaffManager.sol\":1125:1126  0 */\n      0x00\n        /* \"contracts/manager/StaffManager.sol\":1080:1100  staffs[addressStaff] */\n      swap1\n      dup2\n      mstore\n        /* \"contracts/manager/StaffManager.sol\":1080:1086  staffs */\n      0x02\n        /* \"contracts/manager/StaffManager.sol\":1080:1100  staffs[addressStaff] */\n      0x20\n      mstore\n      0x40\n      swap1\n      keccak256\n        /* \"contracts/manager/StaffManager.sol\":1080:1113  staffs[addressStaff].staffAddress */\n      sload\n      and\n        /* \"contracts/manager/StaffManager.sol\":1080:1127  staffs[addressStaff].staffAddress == address(0) */\n      iszero\n        /* \"contracts/manager/StaffManager.sol\":1072:1160  require(staffs[addressStaff].staffAddress == address(0), \"Staff address already exists\") */\n      tag_164\n      jumpi\n      mload(0x40)\n      shl(0xe5, 0x461bcd)\n      dup2\n      mstore\n        /* \"#utility.yul\":12461:12463   */\n      0x20\n        /* \"contracts/manager/StaffManager.sol\":1072:1160  require(staffs[addressStaff].staffAddress == address(0), \"Staff address already exists\") */\n      0x04\n      dup3\n      add\n        /* \"#utility.yul\":12443:12464   */\n      mstore\n        /* \"#utility.yul\":12500:12502   */\n      0x1c\n        /* \"#utility.yul\":12480:12498   */\n      0x24\n      dup3\n      add\n        /* \"#utility.yul\":12473:12503   */\n      mstore\n        /* \"#utility.yul\":12539:12569   */\n      0x5374616666206164647265737320616c72656164792065786973747300000000\n        /* \"#utility.yul\":12519:12537   */\n      0x44\n      dup3\n      add\n        /* \"#utility.yul\":12512:12570   */\n      mstore\n        /* \"#utility.yul\":12587:12605   */\n      0x64\n      add\n        /* \"contracts/manager/StaffManager.sol\":1072:1160  require(staffs[addressStaff].staffAddress == address(0), \"Staff address already exists\") */\n      tag_104\n        /* \"#utility.yul\":12259:12611   */\n      jump\n        /* \"contracts/manager/StaffManager.sol\":1072:1160  require(staffs[addressStaff].staffAddress == address(0), \"Staff address already exists\") */\n    tag_164:\n        /* \"contracts/manager/StaffManager.sol\":1193:1256  Staff(addressStaff, _name, _dob, _phone, 0, 0,StaffStatus.Free) */\n      mload(0x40)\n      dup1\n      0xe0\n      add\n      0x40\n      mstore\n      dup1\n        /* \"contracts/manager/StaffManager.sol\":1199:1211  addressStaff */\n      dup9\n      sub(shl(0xa0, 0x01), 0x01)\n        /* \"contracts/manager/StaffManager.sol\":1193:1256  Staff(addressStaff, _name, _dob, _phone, 0, 0,StaffStatus.Free) */\n      and\n      dup2\n      mstore\n      0x20\n      add\n        /* \"contracts/manager/StaffManager.sol\":1213:1218  _name */\n      dup8\n      dup8\n        /* \"contracts/manager/StaffManager.sol\":1193:1256  Staff(addressStaff, _name, _dob, _phone, 0, 0,StaffStatus.Free) */\n      dup1\n      dup1\n      0x1f\n      add\n      0x20\n      dup1\n      swap2\n      div\n      mul\n      0x20\n      add\n      mload(0x40)\n      swap1\n      dup2\n      add\n      0x40\n      mstore\n      dup1\n      swap4\n      swap3\n      swap2\n      swap1\n      dup2\n      dup2\n      mstore\n      0x20\n      add\n      dup4\n      dup4\n      dup1\n      dup3\n      dup5\n      calldatacopy\n      0x00\n      swap3\n      add\n      swap2\n      swap1\n      swap2\n      mstore\n      pop\n      pop\n      pop\n      swap1\n      dup3\n      mstore\n      pop\n      0x40\n      dup1\n      mload\n      0x20\n      0x1f\n      dup9\n      add\n      dup2\n      swap1\n      div\n      dup2\n      mul\n      dup3\n      add\n      dup2\n      add\n      swap1\n      swap3\n      mstore\n      dup7\n      dup2\n      mstore\n      swap2\n      dup2\n      add\n      swap2\n      swap1\n        /* \"contracts/manager/StaffManager.sol\":1220:1224  _dob */\n      dup8\n      swap1\n      dup8\n      swap1\n      dup2\n      swap1\n        /* \"contracts/manager/StaffManager.sol\":1193:1256  Staff(addressStaff, _name, _dob, _phone, 0, 0,StaffStatus.Free) */\n      dup5\n      add\n        /* \"contracts/manager/StaffManager.sol\":1220:1224  _dob */\n      dup4\n      dup3\n      dup1\n      dup3\n        /* \"contracts/manager/StaffManager.sol\":1193:1256  Staff(addressStaff, _name, _dob, _phone, 0, 0,StaffStatus.Free) */\n      dup5\n      calldatacopy\n      0x00\n      swap3\n      add\n      swap2\n      swap1\n      swap2\n      mstore\n      pop\n      pop\n      pop\n      swap1\n      dup3\n      mstore\n      pop\n      0x40\n      dup1\n      mload\n      0x20\n      0x1f\n      dup7\n      add\n      dup2\n      swap1\n      div\n      dup2\n      mul\n      dup3\n      add\n      dup2\n      add\n      swap1\n      swap3\n      mstore\n      dup5\n      dup2\n      mstore\n      swap2\n      dup2\n      add\n      swap2\n      swap1\n        /* \"contracts/manager/StaffManager.sol\":1226:1232  _phone */\n      dup6\n      swap1\n      dup6\n      swap1\n      dup2\n      swap1\n        /* \"contracts/manager/StaffManager.sol\":1193:1256  Staff(addressStaff, _name, _dob, _phone, 0, 0,StaffStatus.Free) */\n      dup5\n      add\n        /* \"contracts/manager/StaffManager.sol\":1226:1232  _phone */\n      dup4\n      dup3\n      dup1\n      dup3\n        /* \"contracts/manager/StaffManager.sol\":1193:1256  Staff(addressStaff, _name, _dob, _phone, 0, 0,StaffStatus.Free) */\n      dup5\n      calldatacopy\n      0x00\n      swap3\n      add\n      dup3\n      swap1\n      mstore\n      pop\n      swap4\n      dup6\n      mstore\n      pop\n      pop\n      pop\n      0x20\n      dup3\n      add\n      dup2\n      swap1\n      mstore\n      0x40\n      dup3\n      add\n      dup2\n      swap1\n      mstore\n      0x60\n      swap1\n      swap2\n      add\n      mstore\n      sub(shl(0xa0, 0x01), 0x01)\n        /* \"contracts/manager/StaffManager.sol\":1170:1190  staffs[addressStaff] */\n      dup9\n      dup2\n      and\n      0x00\n      swap1\n      dup2\n      mstore\n        /* \"contracts/manager/StaffManager.sol\":1170:1176  staffs */\n      0x02\n        /* \"contracts/manager/StaffManager.sol\":1170:1190  staffs[addressStaff] */\n      0x20\n      swap1\n      dup2\n      mstore\n      0x40\n      swap1\n      swap2\n      keccak256\n        /* \"contracts/manager/StaffManager.sol\":1170:1256  staffs[addressStaff] = Staff(addressStaff, _name, _dob, _phone, 0, 0,StaffStatus.Free) */\n      dup4\n      mload\n      dup2\n      sload\n      not(sub(shl(0xa0, 0x01), 0x01))\n      and\n      swap4\n      and\n      swap3\n      swap1\n      swap3\n      or\n      dup3\n      sstore\n      dup3\n      add\n      mload\n      0x01\n      dup3\n      add\n      swap1\n      tag_169\n      swap1\n      dup3\n      tag_170\n      jump\t// in\n    tag_169:\n      pop\n      0x40\n      dup3\n      add\n      mload\n      0x02\n      dup3\n      add\n      swap1\n      tag_171\n      swap1\n      dup3\n      tag_170\n      jump\t// in\n    tag_171:\n      pop\n      0x60\n      dup3\n      add\n      mload\n      0x03\n      dup3\n      add\n      swap1\n      tag_172\n      swap1\n      dup3\n      tag_170\n      jump\t// in\n    tag_172:\n      pop\n      0x80\n      dup3\n      add\n      mload\n      0x04\n      dup3\n      add\n      sstore\n      0xa0\n      dup3\n      add\n      mload\n      0x05\n      dup3\n      add\n      sstore\n      0xc0\n      dup3\n      add\n      mload\n      0x06\n      dup3\n      add\n      dup1\n      sload\n      not(0xff)\n      and\n      0x01\n      dup4\n      dup2\n      dup2\n      gt\n      iszero\n      tag_174\n      jumpi\n      tag_174\n      tag_95\n      jump\t// in\n    tag_174:\n      mul\n      or\n      swap1\n      sstore\n      pop\n      swap1\n      pop\n      pop\n        /* \"contracts/manager/StaffManager.sol\":1282:1294  addressStaff */\n      dup7\n      sub(shl(0xa0, 0x01), 0x01)\n        /* \"contracts/manager/StaffManager.sol\":1271:1302  StaffAdded(addressStaff, _name) */\n      and\n      0x3985ff4d998287fd60ca803c8ceccc30f94edcc70957500af9fcfd47f2f544c7\n        /* \"contracts/manager/StaffManager.sol\":1296:1301  _name */\n      dup8\n      dup8\n        /* \"contracts/manager/StaffManager.sol\":1271:1302  StaffAdded(addressStaff, _name) */\n      mload(0x40)\n      tag_110\n      swap3\n      swap2\n      swap1\n      tag_111\n      jump\t// in\n        /* \"contracts/manager/StaffManager.sol\":1315:1481  function getStaff(address addressStaff)... */\n    tag_51:\n        /* \"contracts/manager/StaffManager.sol\":1419:1431  Staff memory */\n      tag_176\n      tag_69\n      jump\t// in\n    tag_176:\n      sub(shl(0xa0, 0x01), 0x01)\n        /* \"contracts/manager/StaffManager.sol\":1454:1474  staffs[addressStaff] */\n      dup1\n      dup4\n      and\n      0x00\n      swap1\n      dup2\n      mstore\n        /* \"contracts/manager/StaffManager.sol\":1454:1460  staffs */\n      0x02\n        /* \"contracts/manager/StaffManager.sol\":1454:1474  staffs[addressStaff] */\n      0x20\n      swap1\n      dup2\n      mstore\n      0x40\n      swap2\n      dup3\n      swap1\n      keccak256\n        /* \"contracts/manager/StaffManager.sol\":1447:1474  return staffs[addressStaff] */\n      dup3\n      mload\n      0xe0\n      dup2\n      add\n      swap1\n      swap4\n      mstore\n      dup1\n      sload\n      swap1\n      swap4\n      and\n      dup3\n      mstore\n      0x01\n      dup4\n      add\n      dup1\n      sload\n      swap3\n      swap4\n        /* \"contracts/manager/StaffManager.sol\":1454:1474  staffs[addressStaff] */\n      swap3\n        /* \"contracts/manager/StaffManager.sol\":1447:1474  return staffs[addressStaff] */\n      swap2\n      dup5\n      add\n      swap2\n      tag_178\n      swap1\n      tag_78\n      jump\t// in\n    tag_178:\n      dup1\n      0x1f\n      add\n      0x20\n      dup1\n      swap2\n      div\n      mul\n      0x20\n      add\n      mload(0x40)\n      swap1\n      dup2\n      add\n      0x40\n      mstore\n      dup1\n      swap3\n      swap2\n      swap1\n      dup2\n      dup2\n      mstore\n      0x20\n      add\n      dup3\n      dup1\n      sload\n      tag_179\n      swap1\n      tag_78\n      jump\t// in\n    tag_179:\n      dup1\n      iszero\n      tag_180\n      jumpi\n      dup1\n      0x1f\n      lt\n      tag_181\n      jumpi\n      0x0100\n      dup1\n      dup4\n      sload\n      div\n      mul\n      dup4\n      mstore\n      swap2\n      0x20\n      add\n      swap2\n      jump(tag_180)\n    tag_181:\n      dup3\n      add\n      swap2\n      swap1\n      0x00\n      mstore\n      keccak256(0x00, 0x20)\n      swap1\n    tag_182:\n      dup2\n      sload\n      dup2\n      mstore\n      swap1\n      0x01\n      add\n      swap1\n      0x20\n      add\n      dup1\n      dup4\n      gt\n      tag_182\n      jumpi\n      dup3\n      swap1\n      sub\n      0x1f\n      and\n      dup3\n      add\n      swap2\n    tag_180:\n      pop\n      pop\n      pop\n      pop\n      pop\n      dup2\n      mstore\n      0x20\n      add\n      0x02\n      dup3\n      add\n      dup1\n      sload\n      tag_183\n      swap1\n      tag_78\n      jump\t// in\n    tag_183:\n      dup1\n      0x1f\n      add\n      0x20\n      dup1\n      swap2\n      div\n      mul\n      0x20\n      add\n      mload(0x40)\n      swap1\n      dup2\n      add\n      0x40\n      mstore\n      dup1\n      swap3\n      swap2\n      swap1\n      dup2\n      dup2\n      mstore\n      0x20\n      add\n      dup3\n      dup1\n      sload\n      tag_184\n      swap1\n      tag_78\n      jump\t// in\n    tag_184:\n      dup1\n      iszero\n      tag_185\n      jumpi\n      dup1\n      0x1f\n      lt\n      tag_186\n      jumpi\n      0x0100\n      dup1\n      dup4\n      sload\n      div\n      mul\n      dup4\n      mstore\n      swap2\n      0x20\n      add\n      swap2\n      jump(tag_185)\n    tag_186:\n      dup3\n      add\n      swap2\n      swap1\n      0x00\n      mstore\n      keccak256(0x00, 0x20)\n      swap1\n    tag_187:\n      dup2\n      sload\n      dup2\n      mstore\n      swap1\n      0x01\n      add\n      swap1\n      0x20\n      add\n      dup1\n      dup4\n      gt\n      tag_187\n      jumpi\n      dup3\n      swap1\n      sub\n      0x1f\n      and\n      dup3\n      add\n      swap2\n    tag_185:\n      pop\n      pop\n      pop\n      pop\n      pop\n      dup2\n      mstore\n      0x20\n      add\n      0x03\n      dup3\n      add\n      dup1\n      sload\n      tag_188\n      swap1\n      tag_78\n      jump\t// in\n    tag_188:\n      dup1\n      0x1f\n      add\n      0x20\n      dup1\n      swap2\n      div\n      mul\n      0x20\n      add\n      mload(0x40)\n      swap1\n      dup2\n      add\n      0x40\n      mstore\n      dup1\n      swap3\n      swap2\n      swap1\n      dup2\n      dup2\n      mstore\n      0x20\n      add\n      dup3\n      dup1\n      sload\n      tag_189\n      swap1\n      tag_78\n      jump\t// in\n    tag_189:\n      dup1\n      iszero\n      tag_190\n      jumpi\n      dup1\n      0x1f\n      lt\n      tag_191\n      jumpi\n      0x0100\n      dup1\n      dup4\n      sload\n      div\n      mul\n      dup4\n      mstore\n      swap2\n      0x20\n      add\n      swap2\n      jump(tag_190)\n    tag_191:\n      dup3\n      add\n      swap2\n      swap1\n      0x00\n      mstore\n      keccak256(0x00, 0x20)\n      swap1\n    tag_192:\n      dup2\n      sload\n      dup2\n      mstore\n      swap1\n      0x01\n      add\n      swap1\n      0x20\n      add\n      dup1\n      dup4\n      gt\n      tag_192\n      jumpi\n      dup3\n      swap1\n      sub\n      0x1f\n      and\n      dup3\n      add\n      swap2\n    tag_190:\n      pop\n      pop\n      pop\n      swap2\n      dup4\n      mstore\n      pop\n      pop\n      0x04\n      dup3\n      add\n      sload\n      0x20\n      dup3\n      add\n      mstore\n      0x05\n      dup3\n      add\n      sload\n      0x40\n      dup3\n      add\n      mstore\n      0x06\n      dup3\n      add\n      sload\n      0x60\n      swap1\n      swap2\n      add\n      swap1\n      0xff\n      and\n      0x01\n      dup2\n      gt\n      iszero\n      tag_194\n      jumpi\n      tag_194\n      tag_95\n      jump\t// in\n    tag_194:\n      0x01\n      dup2\n      gt\n      iszero\n      tag_196\n      jumpi\n      tag_196\n      tag_95\n      jump\t// in\n    tag_196:\n      swap1\n      mstore\n      pop\n      swap3\n        /* \"contracts/manager/StaffManager.sol\":1315:1481  function getStaff(address addressStaff)... */\n      swap2\n      pop\n      pop\n      jump\t// out\n        /* \"contracts/manager/StaffManager.sol\":2651:3071  function updateRatingStaff(... */\n    tag_57:\n        /* \"contracts/manager/StaffManager.sol\":743:753  roleAccess */\n      sload(0x01)\n        /* \"contracts/manager/StaffManager.sol\":743:772  roleAccess.isAdmin(tx.origin) */\n      mload(0x40)\n      shl(0xe2, 0x0935e01b)\n      dup2\n      mstore\n        /* \"contracts/manager/StaffManager.sol\":762:771  tx.origin */\n      origin\n        /* \"contracts/manager/StaffManager.sol\":743:772  roleAccess.isAdmin(tx.origin) */\n      0x04\n      dup3\n      add\n        /* \"#utility.yul\":3200:3251   */\n      mstore\n      sub(shl(0xa0, 0x01), 0x01)\n        /* \"contracts/manager/StaffManager.sol\":743:753  roleAccess */\n      swap1\n      swap2\n      and\n      swap1\n        /* \"contracts/manager/StaffManager.sol\":743:761  roleAccess.isAdmin */\n      0x24d7806c\n      swap1\n        /* \"#utility.yul\":3173:3191   */\n      0x24\n      add\n        /* \"contracts/manager/StaffManager.sol\":743:772  roleAccess.isAdmin(tx.origin) */\n      0x20\n      mload(0x40)\n      dup1\n      dup4\n      sub\n      dup2\n      dup7\n      gas\n      staticcall\n      iszero\n      dup1\n      iszero\n      tag_200\n      jumpi\n      returndatacopy(0x00, 0x00, returndatasize)\n      revert(0x00, returndatasize)\n    tag_200:\n      pop\n      pop\n      pop\n      pop\n      mload(0x40)\n      returndatasize\n      not(0x1f)\n      0x1f\n      dup3\n      add\n      and\n      dup3\n      add\n      dup1\n      0x40\n      mstore\n      pop\n      dup2\n      add\n      swap1\n      tag_201\n      swap2\n      swap1\n      tag_123\n      jump\t// in\n    tag_201:\n        /* \"contracts/manager/StaffManager.sol\":735:794  require(roleAccess.isAdmin(tx.origin), \"You are not admin\") */\n      tag_202\n      jumpi\n      mload(0x40)\n      shl(0xe5, 0x461bcd)\n      dup2\n      mstore\n      0x04\n      add\n      tag_104\n      swap1\n      tag_126\n      jump\t// in\n    tag_202:\n      sub(shl(0xa0, 0x01), 0x01)\n        /* \"contracts/manager/StaffManager.sol\":2809:2829  staffs[addressStaff] */\n      dup4\n      dup2\n      and\n        /* \"contracts/manager/StaffManager.sol\":2854:2855  0 */\n      0x00\n        /* \"contracts/manager/StaffManager.sol\":2809:2829  staffs[addressStaff] */\n      swap1\n      dup2\n      mstore\n        /* \"contracts/manager/StaffManager.sol\":2809:2815  staffs */\n      0x02\n        /* \"contracts/manager/StaffManager.sol\":2809:2829  staffs[addressStaff] */\n      0x20\n      mstore\n      0x40\n      swap1\n      keccak256\n        /* \"contracts/manager/StaffManager.sol\":2809:2842  staffs[addressStaff].staffAddress */\n      sload\n      and\n        /* \"contracts/manager/StaffManager.sol\":2801:2881  require(staffs[addressStaff].staffAddress != address(0), \"Staff does not exist\") */\n      tag_205\n      jumpi\n      mload(0x40)\n      shl(0xe5, 0x461bcd)\n      dup2\n      mstore\n        /* \"#utility.yul\":10647:10649   */\n      0x20\n        /* \"contracts/manager/StaffManager.sol\":2801:2881  require(staffs[addressStaff].staffAddress != address(0), \"Staff does not exist\") */\n      0x04\n      dup3\n      add\n        /* \"#utility.yul\":10629:10650   */\n      mstore\n        /* \"#utility.yul\":10686:10688   */\n      0x14\n        /* \"#utility.yul\":10666:10684   */\n      0x24\n      dup3\n      add\n        /* \"#utility.yul\":10659:10689   */\n      mstore\n      shl(0x62, 0x14dd18599988191bd95cc81b9bdd08195e1a5cdd)\n        /* \"#utility.yul\":10705:10723   */\n      0x44\n      dup3\n      add\n        /* \"#utility.yul\":10698:10748   */\n      mstore\n        /* \"#utility.yul\":10765:10783   */\n      0x64\n      add\n        /* \"contracts/manager/StaffManager.sol\":2801:2881  require(staffs[addressStaff].staffAddress != address(0), \"Staff does not exist\") */\n      tag_104\n        /* \"#utility.yul\":10445:10789   */\n      jump\n        /* \"contracts/manager/StaffManager.sol\":2801:2881  require(staffs[addressStaff].staffAddress != address(0), \"Staff does not exist\") */\n    tag_205:\n      sub(shl(0xa0, 0x01), 0x01)\n        /* \"contracts/manager/StaffManager.sol\":2891:2911  staffs[addressStaff] */\n      dup4\n      and\n      0x00\n      dup2\n      dup2\n      mstore\n        /* \"contracts/manager/StaffManager.sol\":2891:2897  staffs */\n      0x02\n        /* \"contracts/manager/StaffManager.sol\":2891:2911  staffs[addressStaff] */\n      0x20\n      swap1\n      dup2\n      mstore\n      0x40\n      swap2\n      dup3\n      swap1\n      keccak256\n        /* \"contracts/manager/StaffManager.sol\":2891:2921  staffs[addressStaff].sumRating */\n      0x04\n      dup2\n      add\n        /* \"contracts/manager/StaffManager.sol\":2891:2934  staffs[addressStaff].sumRating = _sumRating */\n      dup7\n      swap1\n      sstore\n        /* \"contracts/manager/StaffManager.sol\":2944:2976  staffs[addressStaff].countRating */\n      0x05\n      add\n        /* \"contracts/manager/StaffManager.sol\":2944:2991  staffs[addressStaff].countRating = _countRating */\n      dup5\n      swap1\n      sstore\n        /* \"contracts/manager/StaffManager.sol\":3006:3064  StaffRatingUpdated(addressStaff, _sumRating, _countRating) */\n      dup2\n      mload\n        /* \"#utility.yul\":14122:14173   */\n      swap3\n      dup4\n      mstore\n        /* \"#utility.yul\":14189:14207   */\n      dup3\n      add\n        /* \"#utility.yul\":14182:14216   */\n      dup5\n      swap1\n      mstore\n        /* \"#utility.yul\":14232:14250   */\n      dup2\n      add\n        /* \"#utility.yul\":14225:14259   */\n      dup3\n      swap1\n      mstore\n        /* \"contracts/manager/StaffManager.sol\":3006:3064  StaffRatingUpdated(addressStaff, _sumRating, _countRating) */\n      0x4287fc91e372e2c0c4fd45aca88c869f59dad9163b11b71dc130bfc4cd4e8506\n      swap1\n        /* \"#utility.yul\":14110:14112   */\n      0x60\n        /* \"#utility.yul\":14095:14113   */\n      add\n        /* \"contracts/manager/StaffManager.sol\":3006:3064  StaffRatingUpdated(addressStaff, _sumRating, _countRating) */\n      mload(0x40)\n      dup1\n      swap2\n      sub\n      swap1\n      log1\n        /* \"contracts/manager/StaffManager.sol\":2651:3071  function updateRatingStaff(... */\n      pop\n      pop\n      pop\n      jump\t// out\n    tag_69:\n      mload(0x40)\n      dup1\n      0xe0\n      add\n      0x40\n      mstore\n      dup1\n      and(sub(shl(0xa0, 0x01), 0x01), 0x00)\n      dup2\n      mstore\n      0x20\n      add\n      0x60\n      dup2\n      mstore\n      0x20\n      add\n      0x60\n      dup2\n      mstore\n      0x20\n      add\n      0x60\n      dup2\n      mstore\n      0x20\n      add\n      0x00\n      dup2\n      mstore\n      0x20\n      add\n      0x00\n      dup2\n      mstore\n      0x20\n      add\n      0x00\n      0x01\n      dup2\n      gt\n      iszero\n      tag_210\n      jumpi\n      tag_210\n      tag_95\n      jump\t// in\n    tag_210:\n      swap1\n      mstore\n      swap1\n      jump\t// out\n        /* \"#utility.yul\":14:303   */\n    tag_211:\n        /* \"#utility.yul\":56:59   */\n      0x00\n        /* \"#utility.yul\":94:99   */\n      dup2\n        /* \"#utility.yul\":88:100   */\n      mload\n        /* \"#utility.yul\":121:127   */\n      dup1\n        /* \"#utility.yul\":116:119   */\n      dup5\n        /* \"#utility.yul\":109:128   */\n      mstore\n        /* \"#utility.yul\":177:183   */\n      dup1\n        /* \"#utility.yul\":170:174   */\n      0x20\n        /* \"#utility.yul\":163:168   */\n      dup5\n        /* \"#utility.yul\":159:175   */\n      add\n        /* \"#utility.yul\":152:156   */\n      0x20\n        /* \"#utility.yul\":147:150   */\n      dup7\n        /* \"#utility.yul\":143:157   */\n      add\n        /* \"#utility.yul\":137:184   */\n      mcopy\n        /* \"#utility.yul\":229:230   */\n      0x00\n        /* \"#utility.yul\":222:226   */\n      0x20\n        /* \"#utility.yul\":213:219   */\n      dup3\n        /* \"#utility.yul\":208:211   */\n      dup7\n        /* \"#utility.yul\":204:220   */\n      add\n        /* \"#utility.yul\":200:227   */\n      add\n        /* \"#utility.yul\":193:231   */\n      mstore\n        /* \"#utility.yul\":292:296   */\n      0x20\n        /* \"#utility.yul\":285:287   */\n      0x1f\n        /* \"#utility.yul\":281:288   */\n      not\n        /* \"#utility.yul\":276:278   */\n      0x1f\n        /* \"#utility.yul\":268:274   */\n      dup4\n        /* \"#utility.yul\":264:279   */\n      add\n        /* \"#utility.yul\":260:289   */\n      and\n        /* \"#utility.yul\":255:258   */\n      dup6\n        /* \"#utility.yul\":251:290   */\n      add\n        /* \"#utility.yul\":247:297   */\n      add\n        /* \"#utility.yul\":240:297   */\n      swap2\n      pop\n      pop\n        /* \"#utility.yul\":14:303   */\n      swap3\n      swap2\n      pop\n      pop\n      jump\t// out\n        /* \"#utility.yul\":308:435   */\n    tag_95:\n        /* \"#utility.yul\":369:379   */\n      0x4e487b71\n        /* \"#utility.yul\":364:367   */\n      0xe0\n        /* \"#utility.yul\":360:380   */\n      shl\n        /* \"#utility.yul\":357:358   */\n      0x00\n        /* \"#utility.yul\":350:381   */\n      mstore\n        /* \"#utility.yul\":400:404   */\n      0x21\n        /* \"#utility.yul\":397:398   */\n      0x04\n        /* \"#utility.yul\":390:405   */\n      mstore\n        /* \"#utility.yul\":424:428   */\n      0x24\n        /* \"#utility.yul\":421:422   */\n      0x00\n        /* \"#utility.yul\":414:429   */\n      revert\n        /* \"#utility.yul\":440:679   */\n    tag_212:\n        /* \"#utility.yul\":523:524   */\n      0x02\n        /* \"#utility.yul\":516:521   */\n      dup2\n        /* \"#utility.yul\":513:525   */\n      lt\n        /* \"#utility.yul\":503:646   */\n      tag_223\n      jumpi\n        /* \"#utility.yul\":568:578   */\n      0x4e487b71\n        /* \"#utility.yul\":563:566   */\n      0xe0\n        /* \"#utility.yul\":559:579   */\n      shl\n        /* \"#utility.yul\":556:557   */\n      0x00\n        /* \"#utility.yul\":549:580   */\n      mstore\n        /* \"#utility.yul\":603:607   */\n      0x21\n        /* \"#utility.yul\":600:601   */\n      0x04\n        /* \"#utility.yul\":593:608   */\n      mstore\n        /* \"#utility.yul\":631:635   */\n      0x24\n        /* \"#utility.yul\":628:629   */\n      0x00\n        /* \"#utility.yul\":621:636   */\n      revert\n        /* \"#utility.yul\":503:646   */\n    tag_223:\n        /* \"#utility.yul\":655:673   */\n      swap1\n      mstore\n        /* \"#utility.yul\":440:679   */\n      jump\t// out\n        /* \"#utility.yul\":684:1550   */\n    tag_213:\n        /* \"#utility.yul\":797:798   */\n      0x01\n        /* \"#utility.yul\":793:794   */\n      dup1\n        /* \"#utility.yul\":788:791   */\n      0xa0\n        /* \"#utility.yul\":784:795   */\n      shl\n        /* \"#utility.yul\":780:799   */\n      sub\n        /* \"#utility.yul\":772:777   */\n      dup2\n        /* \"#utility.yul\":766:778   */\n      mload\n        /* \"#utility.yul\":762:800   */\n      and\n        /* \"#utility.yul\":757:760   */\n      dup3\n        /* \"#utility.yul\":750:801   */\n      mstore\n        /* \"#utility.yul\":732:735   */\n      0x00\n        /* \"#utility.yul\":847:851   */\n      0x20\n        /* \"#utility.yul\":840:845   */\n      dup3\n        /* \"#utility.yul\":836:852   */\n      add\n        /* \"#utility.yul\":830:853   */\n      mload\n        /* \"#utility.yul\":885:889   */\n      0xe0\n        /* \"#utility.yul\":878:882   */\n      0x20\n        /* \"#utility.yul\":873:876   */\n      dup6\n        /* \"#utility.yul\":869:883   */\n      add\n        /* \"#utility.yul\":862:890   */\n      mstore\n        /* \"#utility.yul\":911:958   */\n      tag_225\n        /* \"#utility.yul\":952:956   */\n      0xe0\n        /* \"#utility.yul\":947:950   */\n      dup6\n        /* \"#utility.yul\":943:957   */\n      add\n        /* \"#utility.yul\":929:941   */\n      dup3\n        /* \"#utility.yul\":911:958   */\n      tag_211\n      jump\t// in\n    tag_225:\n        /* \"#utility.yul\":899:958   */\n      swap1\n      pop\n        /* \"#utility.yul\":1006:1010   */\n      0x40\n        /* \"#utility.yul\":999:1004   */\n      dup4\n        /* \"#utility.yul\":995:1011   */\n      add\n        /* \"#utility.yul\":989:1012   */\n      mload\n        /* \"#utility.yul\":1054:1057   */\n      dup5\n        /* \"#utility.yul\":1048:1052   */\n      dup3\n        /* \"#utility.yul\":1044:1058   */\n      sub\n        /* \"#utility.yul\":1037:1041   */\n      0x40\n        /* \"#utility.yul\":1032:1035   */\n      dup7\n        /* \"#utility.yul\":1028:1042   */\n      add\n        /* \"#utility.yul\":1021:1059   */\n      mstore\n        /* \"#utility.yul\":1082:1121   */\n      tag_226\n        /* \"#utility.yul\":1116:1120   */\n      dup3\n        /* \"#utility.yul\":1100:1114   */\n      dup3\n        /* \"#utility.yul\":1082:1121   */\n      tag_211\n      jump\t// in\n    tag_226:\n        /* \"#utility.yul\":1068:1121   */\n      swap2\n      pop\n      pop\n        /* \"#utility.yul\":1169:1173   */\n      0x60\n        /* \"#utility.yul\":1162:1167   */\n      dup4\n        /* \"#utility.yul\":1158:1174   */\n      add\n        /* \"#utility.yul\":1152:1175   */\n      mload\n        /* \"#utility.yul\":1219:1222   */\n      dup5\n        /* \"#utility.yul\":1211:1217   */\n      dup3\n        /* \"#utility.yul\":1207:1223   */\n      sub\n        /* \"#utility.yul\":1200:1204   */\n      0x60\n        /* \"#utility.yul\":1195:1198   */\n      dup7\n        /* \"#utility.yul\":1191:1205   */\n      add\n        /* \"#utility.yul\":1184:1224   */\n      mstore\n        /* \"#utility.yul\":1247:1288   */\n      tag_227\n        /* \"#utility.yul\":1281:1287   */\n      dup3\n        /* \"#utility.yul\":1265:1279   */\n      dup3\n        /* \"#utility.yul\":1247:1288   */\n      tag_211\n      jump\t// in\n    tag_227:\n        /* \"#utility.yul\":1233:1288   */\n      swap2\n      pop\n      pop\n        /* \"#utility.yul\":1337:1341   */\n      0x80\n        /* \"#utility.yul\":1330:1335   */\n      dup4\n        /* \"#utility.yul\":1326:1342   */\n      add\n        /* \"#utility.yul\":1320:1343   */\n      mload\n        /* \"#utility.yul\":1313:1317   */\n      0x80\n        /* \"#utility.yul\":1308:1311   */\n      dup6\n        /* \"#utility.yul\":1304:1318   */\n      add\n        /* \"#utility.yul\":1297:1344   */\n      mstore\n        /* \"#utility.yul\":1393:1397   */\n      0xa0\n        /* \"#utility.yul\":1386:1391   */\n      dup4\n        /* \"#utility.yul\":1382:1398   */\n      add\n        /* \"#utility.yul\":1376:1399   */\n      mload\n        /* \"#utility.yul\":1369:1373   */\n      0xa0\n        /* \"#utility.yul\":1364:1367   */\n      dup6\n        /* \"#utility.yul\":1360:1374   */\n      add\n        /* \"#utility.yul\":1353:1400   */\n      mstore\n        /* \"#utility.yul\":1448:1452   */\n      0xc0\n        /* \"#utility.yul\":1441:1446   */\n      dup4\n        /* \"#utility.yul\":1437:1453   */\n      add\n        /* \"#utility.yul\":1431:1454   */\n      mload\n        /* \"#utility.yul\":1463:1522   */\n      tag_228\n        /* \"#utility.yul\":1516:1520   */\n      0xc0\n        /* \"#utility.yul\":1511:1514   */\n      dup7\n        /* \"#utility.yul\":1507:1521   */\n      add\n        /* \"#utility.yul\":1491:1505   */\n      dup3\n        /* \"#utility.yul\":1463:1522   */\n      tag_212\n      jump\t// in\n    tag_228:\n      pop\n        /* \"#utility.yul\":1538:1544   */\n      swap4\n        /* \"#utility.yul\":684:1550   */\n      swap3\n      pop\n      pop\n      pop\n      jump\t// out\n        /* \"#utility.yul\":1555:2367   */\n    tag_18:\n        /* \"#utility.yul\":1741:1745   */\n      0x00\n        /* \"#utility.yul\":1789:1791   */\n      0x20\n        /* \"#utility.yul\":1778:1787   */\n      dup3\n        /* \"#utility.yul\":1774:1792   */\n      add\n        /* \"#utility.yul\":1819:1821   */\n      0x20\n        /* \"#utility.yul\":1808:1817   */\n      dup4\n        /* \"#utility.yul\":1801:1822   */\n      mstore\n        /* \"#utility.yul\":1842:1848   */\n      dup1\n        /* \"#utility.yul\":1877:1883   */\n      dup5\n        /* \"#utility.yul\":1871:1884   */\n      mload\n        /* \"#utility.yul\":1908:1914   */\n      dup1\n        /* \"#utility.yul\":1900:1906   */\n      dup4\n        /* \"#utility.yul\":1893:1915   */\n      mstore\n        /* \"#utility.yul\":1946:1948   */\n      0x40\n        /* \"#utility.yul\":1935:1944   */\n      dup6\n        /* \"#utility.yul\":1931:1949   */\n      add\n        /* \"#utility.yul\":1924:1949   */\n      swap2\n      pop\n        /* \"#utility.yul\":2008:2010   */\n      0x40\n        /* \"#utility.yul\":1998:2004   */\n      dup2\n        /* \"#utility.yul\":1995:1996   */\n      0x05\n        /* \"#utility.yul\":1991:2005   */\n      shl\n        /* \"#utility.yul\":1980:1989   */\n      dup7\n        /* \"#utility.yul\":1976:2006   */\n      add\n        /* \"#utility.yul\":1972:2011   */\n      add\n        /* \"#utility.yul\":1958:2011   */\n      swap3\n      pop\n        /* \"#utility.yul\":2046:2048   */\n      0x20\n        /* \"#utility.yul\":2038:2044   */\n      dup7\n        /* \"#utility.yul\":2034:2049   */\n      add\n        /* \"#utility.yul\":2067:2068   */\n      0x00\n        /* \"#utility.yul\":2077:2338   */\n    tag_230:\n        /* \"#utility.yul\":2091:2097   */\n      dup3\n        /* \"#utility.yul\":2088:2089   */\n      dup2\n        /* \"#utility.yul\":2085:2098   */\n      lt\n        /* \"#utility.yul\":2077:2338   */\n      iszero\n      tag_232\n      jumpi\n        /* \"#utility.yul\":2184:2186   */\n      0x3f\n        /* \"#utility.yul\":2180:2187   */\n      not\n        /* \"#utility.yul\":2168:2177   */\n      dup8\n        /* \"#utility.yul\":2160:2166   */\n      dup7\n        /* \"#utility.yul\":2156:2178   */\n      sub\n        /* \"#utility.yul\":2152:2188   */\n      add\n        /* \"#utility.yul\":2147:2150   */\n      dup5\n        /* \"#utility.yul\":2140:2189   */\n      mstore\n        /* \"#utility.yul\":2212:2258   */\n      tag_233\n        /* \"#utility.yul\":2251:2257   */\n      dup6\n        /* \"#utility.yul\":2242:2248   */\n      dup4\n        /* \"#utility.yul\":2236:2249   */\n      mload\n        /* \"#utility.yul\":2212:2258   */\n      tag_213\n      jump\t// in\n    tag_233:\n        /* \"#utility.yul\":2202:2258   */\n      swap5\n      pop\n        /* \"#utility.yul\":2293:2295   */\n      0x20\n        /* \"#utility.yul\":2316:2328   */\n      swap4\n      dup5\n      add\n      swap4\n        /* \"#utility.yul\":2281:2296   */\n      swap2\n      swap1\n      swap2\n      add\n      swap1\n        /* \"#utility.yul\":2113:2114   */\n      0x01\n        /* \"#utility.yul\":2106:2115   */\n      add\n        /* \"#utility.yul\":2077:2338   */\n      jump(tag_230)\n    tag_232:\n      pop\n        /* \"#utility.yul\":2355:2361   */\n      swap3\n      swap7\n        /* \"#utility.yul\":1555:2367   */\n      swap6\n      pop\n      pop\n      pop\n      pop\n      pop\n      pop\n      jump\t// out\n        /* \"#utility.yul\":2372:2545   */\n    tag_214:\n        /* \"#utility.yul\":2440:2460   */\n      dup1\n      calldataload\n      sub(shl(0xa0, 0x01), 0x01)\n        /* \"#utility.yul\":2489:2520   */\n      dup2\n      and\n        /* \"#utility.yul\":2479:2521   */\n      dup2\n      eq\n        /* \"#utility.yul\":2469:2539   */\n      tag_235\n      jumpi\n        /* \"#utility.yul\":2535:2536   */\n      0x00\n        /* \"#utility.yul\":2532:2533   */\n      0x00\n        /* \"#utility.yul\":2525:2537   */\n      revert\n        /* \"#utility.yul\":2469:2539   */\n    tag_235:\n        /* \"#utility.yul\":2372:2545   */\n      swap2\n      swap1\n      pop\n      jump\t// out\n        /* \"#utility.yul\":2550:2850   */\n    tag_21:\n        /* \"#utility.yul\":2618:2624   */\n      0x00\n        /* \"#utility.yul\":2626:2632   */\n      0x00\n        /* \"#utility.yul\":2679:2681   */\n      0x40\n        /* \"#utility.yul\":2667:2676   */\n      dup4\n        /* \"#utility.yul\":2658:2665   */\n      dup6\n        /* \"#utility.yul\":2654:2677   */\n      sub\n        /* \"#utility.yul\":2650:2682   */\n      slt\n        /* \"#utility.yul\":2647:2699   */\n      iszero\n      tag_237\n      jumpi\n        /* \"#utility.yul\":2695:2696   */\n      0x00\n        /* \"#utility.yul\":2692:2693   */\n      0x00\n        /* \"#utility.yul\":2685:2697   */\n      revert\n        /* \"#utility.yul\":2647:2699   */\n    tag_237:\n        /* \"#utility.yul\":2718:2747   */\n      tag_238\n        /* \"#utility.yul\":2737:2746   */\n      dup4\n        /* \"#utility.yul\":2718:2747   */\n      tag_214\n      jump\t// in\n    tag_238:\n        /* \"#utility.yul\":2708:2747   */\n      swap5\n        /* \"#utility.yul\":2816:2818   */\n      0x20\n        /* \"#utility.yul\":2801:2819   */\n      swap4\n      swap1\n      swap4\n      add\n        /* \"#utility.yul\":2788:2820   */\n      calldataload\n      swap4\n      pop\n      pop\n      pop\n        /* \"#utility.yul\":2550:2850   */\n      jump\t// out\n        /* \"#utility.yul\":3262:3610   */\n    tag_215:\n        /* \"#utility.yul\":3314:3322   */\n      0x00\n        /* \"#utility.yul\":3324:3330   */\n      0x00\n        /* \"#utility.yul\":3378:3381   */\n      dup4\n        /* \"#utility.yul\":3371:3375   */\n      0x1f\n        /* \"#utility.yul\":3363:3369   */\n      dup5\n        /* \"#utility.yul\":3359:3376   */\n      add\n        /* \"#utility.yul\":3355:3382   */\n      slt\n        /* \"#utility.yul\":3345:3400   */\n      tag_242\n      jumpi\n        /* \"#utility.yul\":3396:3397   */\n      0x00\n        /* \"#utility.yul\":3393:3394   */\n      0x00\n        /* \"#utility.yul\":3386:3398   */\n      revert\n        /* \"#utility.yul\":3345:3400   */\n    tag_242:\n      pop\n        /* \"#utility.yul\":3419:3439   */\n      dup2\n      calldataload\n        /* \"#utility.yul\":3462:3480   */\n      0xffffffffffffffff\n        /* \"#utility.yul\":3451:3481   */\n      dup2\n      gt\n        /* \"#utility.yul\":3448:3498   */\n      iszero\n      tag_243\n      jumpi\n        /* \"#utility.yul\":3494:3495   */\n      0x00\n        /* \"#utility.yul\":3491:3492   */\n      0x00\n        /* \"#utility.yul\":3484:3496   */\n      revert\n        /* \"#utility.yul\":3448:3498   */\n    tag_243:\n        /* \"#utility.yul\":3531:3535   */\n      0x20\n        /* \"#utility.yul\":3523:3529   */\n      dup4\n        /* \"#utility.yul\":3519:3536   */\n      add\n        /* \"#utility.yul\":3507:3536   */\n      swap2\n      pop\n        /* \"#utility.yul\":3583:3586   */\n      dup4\n        /* \"#utility.yul\":3576:3580   */\n      0x20\n        /* \"#utility.yul\":3567:3573   */\n      dup3\n        /* \"#utility.yul\":3559:3565   */\n      dup6\n        /* \"#utility.yul\":3555:3574   */\n      add\n        /* \"#utility.yul\":3551:3581   */\n      add\n        /* \"#utility.yul\":3548:3587   */\n      gt\n        /* \"#utility.yul\":3545:3604   */\n      iszero\n      tag_244\n      jumpi\n        /* \"#utility.yul\":3600:3601   */\n      0x00\n        /* \"#utility.yul\":3597:3598   */\n      0x00\n        /* \"#utility.yul\":3590:3602   */\n      revert\n        /* \"#utility.yul\":3545:3604   */\n    tag_244:\n        /* \"#utility.yul\":3262:3610   */\n      swap3\n      pop\n      swap3\n      swap1\n      pop\n      jump\t// out\n        /* \"#utility.yul\":3615:4711   */\n    tag_31:\n        /* \"#utility.yul\":3737:3743   */\n      0x00\n        /* \"#utility.yul\":3745:3751   */\n      0x00\n        /* \"#utility.yul\":3753:3759   */\n      0x00\n        /* \"#utility.yul\":3761:3767   */\n      0x00\n        /* \"#utility.yul\":3769:3775   */\n      0x00\n        /* \"#utility.yul\":3777:3783   */\n      0x00\n        /* \"#utility.yul\":3785:3791   */\n      0x00\n        /* \"#utility.yul\":3838:3841   */\n      0x80\n        /* \"#utility.yul\":3826:3835   */\n      dup9\n        /* \"#utility.yul\":3817:3824   */\n      dup11\n        /* \"#utility.yul\":3813:3836   */\n      sub\n        /* \"#utility.yul\":3809:3842   */\n      slt\n        /* \"#utility.yul\":3806:3859   */\n      iszero\n      tag_246\n      jumpi\n        /* \"#utility.yul\":3855:3856   */\n      0x00\n        /* \"#utility.yul\":3852:3853   */\n      0x00\n        /* \"#utility.yul\":3845:3857   */\n      revert\n        /* \"#utility.yul\":3806:3859   */\n    tag_246:\n        /* \"#utility.yul\":3878:3907   */\n      tag_247\n        /* \"#utility.yul\":3897:3906   */\n      dup9\n        /* \"#utility.yul\":3878:3907   */\n      tag_214\n      jump\t// in\n    tag_247:\n        /* \"#utility.yul\":3868:3907   */\n      swap7\n      pop\n        /* \"#utility.yul\":3958:3960   */\n      0x20\n        /* \"#utility.yul\":3947:3956   */\n      dup9\n        /* \"#utility.yul\":3943:3961   */\n      add\n        /* \"#utility.yul\":3930:3962   */\n      calldataload\n        /* \"#utility.yul\":3985:4003   */\n      0xffffffffffffffff\n        /* \"#utility.yul\":3977:3983   */\n      dup2\n        /* \"#utility.yul\":3974:4004   */\n      gt\n        /* \"#utility.yul\":3971:4021   */\n      iszero\n      tag_248\n      jumpi\n        /* \"#utility.yul\":4017:4018   */\n      0x00\n        /* \"#utility.yul\":4014:4015   */\n      0x00\n        /* \"#utility.yul\":4007:4019   */\n      revert\n        /* \"#utility.yul\":3971:4021   */\n    tag_248:\n        /* \"#utility.yul\":4056:4115   */\n      tag_249\n        /* \"#utility.yul\":4107:4114   */\n      dup11\n        /* \"#utility.yul\":4098:4104   */\n      dup3\n        /* \"#utility.yul\":4087:4096   */\n      dup12\n        /* \"#utility.yul\":4083:4105   */\n      add\n        /* \"#utility.yul\":4056:4115   */\n      tag_215\n      jump\t// in\n    tag_249:\n        /* \"#utility.yul\":4134:4142   */\n      swap1\n      swap8\n      pop\n        /* \"#utility.yul\":4030:4115   */\n      swap6\n      pop\n      pop\n        /* \"#utility.yul\":4222:4224   */\n      0x40\n        /* \"#utility.yul\":4207:4225   */\n      dup9\n      add\n        /* \"#utility.yul\":4194:4226   */\n      calldataload\n        /* \"#utility.yul\":4251:4269   */\n      0xffffffffffffffff\n        /* \"#utility.yul\":4238:4270   */\n      dup2\n      gt\n        /* \"#utility.yul\":4235:4287   */\n      iszero\n      tag_250\n      jumpi\n        /* \"#utility.yul\":4283:4284   */\n      0x00\n        /* \"#utility.yul\":4280:4281   */\n      0x00\n        /* \"#utility.yul\":4273:4285   */\n      revert\n        /* \"#utility.yul\":4235:4287   */\n    tag_250:\n        /* \"#utility.yul\":4322:4383   */\n      tag_251\n        /* \"#utility.yul\":4375:4382   */\n      dup11\n        /* \"#utility.yul\":4364:4372   */\n      dup3\n        /* \"#utility.yul\":4353:4362   */\n      dup12\n        /* \"#utility.yul\":4349:4373   */\n      add\n        /* \"#utility.yul\":4322:4383   */\n      tag_215\n      jump\t// in\n    tag_251:\n        /* \"#utility.yul\":4402:4410   */\n      swap1\n      swap6\n      pop\n        /* \"#utility.yul\":4296:4383   */\n      swap4\n      pop\n      pop\n        /* \"#utility.yul\":4490:4492   */\n      0x60\n        /* \"#utility.yul\":4475:4493   */\n      dup9\n      add\n        /* \"#utility.yul\":4462:4494   */\n      calldataload\n        /* \"#utility.yul\":4519:4537   */\n      0xffffffffffffffff\n        /* \"#utility.yul\":4506:4538   */\n      dup2\n      gt\n        /* \"#utility.yul\":4503:4555   */\n      iszero\n      tag_252\n      jumpi\n        /* \"#utility.yul\":4551:4552   */\n      0x00\n        /* \"#utility.yul\":4548:4549   */\n      0x00\n        /* \"#utility.yul\":4541:4553   */\n      revert\n        /* \"#utility.yul\":4503:4555   */\n    tag_252:\n        /* \"#utility.yul\":4590:4651   */\n      tag_253\n        /* \"#utility.yul\":4643:4650   */\n      dup11\n        /* \"#utility.yul\":4632:4640   */\n      dup3\n        /* \"#utility.yul\":4621:4630   */\n      dup12\n        /* \"#utility.yul\":4617:4641   */\n      add\n        /* \"#utility.yul\":4590:4651   */\n      tag_215\n      jump\t// in\n    tag_253:\n        /* \"#utility.yul\":3615:4711   */\n      swap9\n      swap12\n      swap8\n      swap11\n      pop\n      swap6\n      swap9\n      pop\n      swap4\n      swap7\n      swap3\n      swap6\n        /* \"#utility.yul\":4564:4651   */\n      swap3\n      swap4\n      pop\n      pop\n      pop\n        /* \"#utility.yul\":3615:4711   */\n      jump\t// out\n        /* \"#utility.yul\":4716:5016   */\n    tag_38:\n        /* \"#utility.yul\":4784:4790   */\n      0x00\n        /* \"#utility.yul\":4792:4798   */\n      0x00\n        /* \"#utility.yul\":4845:4847   */\n      0x40\n        /* \"#utility.yul\":4833:4842   */\n      dup4\n        /* \"#utility.yul\":4824:4831   */\n      dup6\n        /* \"#utility.yul\":4820:4843   */\n      sub\n        /* \"#utility.yul\":4816:4848   */\n      slt\n        /* \"#utility.yul\":4813:4865   */\n      iszero\n      tag_255\n      jumpi\n        /* \"#utility.yul\":4861:4862   */\n      0x00\n        /* \"#utility.yul\":4858:4859   */\n      0x00\n        /* \"#utility.yul\":4851:4863   */\n      revert\n        /* \"#utility.yul\":4813:4865   */\n    tag_255:\n        /* \"#utility.yul\":4906:4929   */\n      dup3\n      calldataload\n      swap2\n      pop\n        /* \"#utility.yul\":4972:5010   */\n      tag_256\n        /* \"#utility.yul\":5006:5008   */\n      0x20\n        /* \"#utility.yul\":4991:5009   */\n      dup5\n      add\n        /* \"#utility.yul\":4972:5010   */\n      tag_214\n      jump\t// in\n    tag_256:\n        /* \"#utility.yul\":4962:5010   */\n      swap1\n      pop\n        /* \"#utility.yul\":4716:5016   */\n      swap3\n      pop\n      swap3\n      swap1\n      pop\n      jump\t// out\n        /* \"#utility.yul\":5021:5207   */\n    tag_42:\n        /* \"#utility.yul\":5080:5086   */\n      0x00\n        /* \"#utility.yul\":5133:5135   */\n      0x20\n        /* \"#utility.yul\":5121:5130   */\n      dup3\n        /* \"#utility.yul\":5112:5119   */\n      dup5\n        /* \"#utility.yul\":5108:5131   */\n      sub\n        /* \"#utility.yul\":5104:5136   */\n      slt\n        /* \"#utility.yul\":5101:5153   */\n      iszero\n      tag_258\n      jumpi\n        /* \"#utility.yul\":5149:5150   */\n      0x00\n        /* \"#utility.yul\":5146:5147   */\n      0x00\n        /* \"#utility.yul\":5139:5151   */\n      revert\n        /* \"#utility.yul\":5101:5153   */\n    tag_258:\n        /* \"#utility.yul\":5172:5201   */\n      tag_259\n        /* \"#utility.yul\":5191:5200   */\n      dup3\n        /* \"#utility.yul\":5172:5201   */\n      tag_214\n      jump\t// in\n    tag_259:\n        /* \"#utility.yul\":5162:5201   */\n      swap4\n        /* \"#utility.yul\":5021:5207   */\n      swap3\n      pop\n      pop\n      pop\n      jump\t// out\n        /* \"#utility.yul\":5212:6107   */\n    tag_45:\n      sub(shl(0xa0, 0x01), 0x01)\n        /* \"#utility.yul\":5582:5614   */\n      dup9\n      and\n        /* \"#utility.yul\":5564:5615   */\n      dup2\n      mstore\n        /* \"#utility.yul\":5651:5654   */\n      0xe0\n        /* \"#utility.yul\":5646:5648   */\n      0x20\n        /* \"#utility.yul\":5631:5649   */\n      dup3\n      add\n        /* \"#utility.yul\":5624:5655   */\n      dup2\n      swap1\n      mstore\n      0x00\n      swap1\n        /* \"#utility.yul\":5678:5724   */\n      tag_261\n      swap1\n        /* \"#utility.yul\":5704:5723   */\n      dup4\n      add\n        /* \"#utility.yul\":5696:5702   */\n      dup10\n        /* \"#utility.yul\":5678:5724   */\n      tag_211\n      jump\t// in\n    tag_261:\n        /* \"#utility.yul\":5772:5781   */\n      dup3\n        /* \"#utility.yul\":5764:5770   */\n      dup2\n        /* \"#utility.yul\":5760:5782   */\n      sub\n        /* \"#utility.yul\":5755:5757   */\n      0x40\n        /* \"#utility.yul\":5744:5753   */\n      dup5\n        /* \"#utility.yul\":5740:5758   */\n      add\n        /* \"#utility.yul\":5733:5783   */\n      mstore\n        /* \"#utility.yul\":5806:5839   */\n      tag_262\n        /* \"#utility.yul\":5832:5838   */\n      dup2\n        /* \"#utility.yul\":5824:5830   */\n      dup10\n        /* \"#utility.yul\":5806:5839   */\n      tag_211\n      jump\t// in\n    tag_262:\n        /* \"#utility.yul\":5792:5839   */\n      swap1\n      pop\n        /* \"#utility.yul\":5887:5896   */\n      dup3\n        /* \"#utility.yul\":5879:5885   */\n      dup2\n        /* \"#utility.yul\":5875:5897   */\n      sub\n        /* \"#utility.yul\":5870:5872   */\n      0x60\n        /* \"#utility.yul\":5859:5868   */\n      dup5\n        /* \"#utility.yul\":5855:5873   */\n      add\n        /* \"#utility.yul\":5848:5898   */\n      mstore\n        /* \"#utility.yul\":5915:5948   */\n      tag_263\n        /* \"#utility.yul\":5941:5947   */\n      dup2\n        /* \"#utility.yul\":5933:5939   */\n      dup9\n        /* \"#utility.yul\":5915:5948   */\n      tag_211\n      jump\t// in\n    tag_263:\n        /* \"#utility.yul\":5907:5948   */\n      swap2\n      pop\n      pop\n        /* \"#utility.yul\":5985:5991   */\n      dup5\n        /* \"#utility.yul\":5979:5982   */\n      0x80\n        /* \"#utility.yul\":5968:5977   */\n      dup4\n        /* \"#utility.yul\":5964:5983   */\n      add\n        /* \"#utility.yul\":5957:5992   */\n      mstore\n        /* \"#utility.yul\":6029:6035   */\n      dup4\n        /* \"#utility.yul\":6023:6026   */\n      0xa0\n        /* \"#utility.yul\":6012:6021   */\n      dup4\n        /* \"#utility.yul\":6008:6027   */\n      add\n        /* \"#utility.yul\":6001:6036   */\n      mstore\n        /* \"#utility.yul\":6045:6101   */\n      tag_264\n        /* \"#utility.yul\":6096:6099   */\n      0xc0\n        /* \"#utility.yul\":6085:6094   */\n      dup4\n        /* \"#utility.yul\":6081:6100   */\n      add\n        /* \"#utility.yul\":6073:6079   */\n      dup5\n        /* \"#utility.yul\":6045:6101   */\n      tag_212\n      jump\t// in\n    tag_264:\n        /* \"#utility.yul\":5212:6107   */\n      swap9\n      swap8\n      pop\n      pop\n      pop\n      pop\n      pop\n      pop\n      pop\n      pop\n      jump\t// out\n        /* \"#utility.yul\":6112:6362   */\n    tag_53:\n        /* \"#utility.yul\":6285:6287   */\n      0x20\n        /* \"#utility.yul\":6274:6283   */\n      dup2\n        /* \"#utility.yul\":6267:6288   */\n      mstore\n        /* \"#utility.yul\":6248:6252   */\n      0x00\n        /* \"#utility.yul\":6305:6356   */\n      tag_259\n        /* \"#utility.yul\":6352:6354   */\n      0x20\n        /* \"#utility.yul\":6341:6350   */\n      dup4\n        /* \"#utility.yul\":6337:6355   */\n      add\n        /* \"#utility.yul\":6329:6335   */\n      dup5\n        /* \"#utility.yul\":6305:6356   */\n      tag_213\n      jump\t// in\n        /* \"#utility.yul\":6367:6787   */\n    tag_56:\n        /* \"#utility.yul\":6444:6450   */\n      0x00\n        /* \"#utility.yul\":6452:6458   */\n      0x00\n        /* \"#utility.yul\":6460:6466   */\n      0x00\n        /* \"#utility.yul\":6513:6515   */\n      0x60\n        /* \"#utility.yul\":6501:6510   */\n      dup5\n        /* \"#utility.yul\":6492:6499   */\n      dup7\n        /* \"#utility.yul\":6488:6511   */\n      sub\n        /* \"#utility.yul\":6484:6516   */\n      slt\n        /* \"#utility.yul\":6481:6533   */\n      iszero\n      tag_268\n      jumpi\n        /* \"#utility.yul\":6529:6530   */\n      0x00\n        /* \"#utility.yul\":6526:6527   */\n      0x00\n        /* \"#utility.yul\":6519:6531   */\n      revert\n        /* \"#utility.yul\":6481:6533   */\n    tag_268:\n        /* \"#utility.yul\":6552:6581   */\n      tag_269\n        /* \"#utility.yul\":6571:6580   */\n      dup5\n        /* \"#utility.yul\":6552:6581   */\n      tag_214\n      jump\t// in\n    tag_269:\n        /* \"#utility.yul\":6542:6581   */\n      swap6\n        /* \"#utility.yul\":6650:6652   */\n      0x20\n        /* \"#utility.yul\":6635:6653   */\n      dup6\n      add\n        /* \"#utility.yul\":6622:6654   */\n      calldataload\n      swap6\n      pop\n        /* \"#utility.yul\":6751:6753   */\n      0x40\n        /* \"#utility.yul\":6736:6754   */\n      swap1\n      swap5\n      add\n        /* \"#utility.yul\":6723:6755   */\n      calldataload\n      swap4\n        /* \"#utility.yul\":6367:6787   */\n      swap3\n      pop\n      pop\n      pop\n      jump\t// out\n        /* \"#utility.yul\":7021:7148   */\n    tag_65:\n        /* \"#utility.yul\":7082:7092   */\n      0x4e487b71\n        /* \"#utility.yul\":7077:7080   */\n      0xe0\n        /* \"#utility.yul\":7073:7093   */\n      shl\n        /* \"#utility.yul\":7070:7071   */\n      0x00\n        /* \"#utility.yul\":7063:7094   */\n      mstore\n        /* \"#utility.yul\":7113:7117   */\n      0x41\n        /* \"#utility.yul\":7110:7111   */\n      0x04\n        /* \"#utility.yul\":7103:7118   */\n      mstore\n        /* \"#utility.yul\":7137:7141   */\n      0x24\n        /* \"#utility.yul\":7134:7135   */\n      0x00\n        /* \"#utility.yul\":7127:7142   */\n      revert\n        /* \"#utility.yul\":7153:7280   */\n    tag_75:\n        /* \"#utility.yul\":7214:7224   */\n      0x4e487b71\n        /* \"#utility.yul\":7209:7212   */\n      0xe0\n        /* \"#utility.yul\":7205:7225   */\n      shl\n        /* \"#utility.yul\":7202:7203   */\n      0x00\n        /* \"#utility.yul\":7195:7226   */\n      mstore\n        /* \"#utility.yul\":7245:7249   */\n      0x32\n        /* \"#utility.yul\":7242:7243   */\n      0x04\n        /* \"#utility.yul\":7235:7250   */\n      mstore\n        /* \"#utility.yul\":7269:7273   */\n      0x24\n        /* \"#utility.yul\":7266:7267   */\n      0x00\n        /* \"#utility.yul\":7259:7274   */\n      revert\n        /* \"#utility.yul\":7285:7665   */\n    tag_78:\n        /* \"#utility.yul\":7364:7365   */\n      0x01\n        /* \"#utility.yul\":7360:7372   */\n      dup2\n      dup2\n      shr\n      swap1\n        /* \"#utility.yul\":7407:7419   */\n      dup3\n      and\n      dup1\n        /* \"#utility.yul\":7428:7489   */\n      tag_274\n      jumpi\n        /* \"#utility.yul\":7482:7486   */\n      0x7f\n        /* \"#utility.yul\":7474:7480   */\n      dup3\n        /* \"#utility.yul\":7470:7487   */\n      and\n        /* \"#utility.yul\":7460:7487   */\n      swap2\n      pop\n        /* \"#utility.yul\":7428:7489   */\n    tag_274:\n        /* \"#utility.yul\":7535:7537   */\n      0x20\n        /* \"#utility.yul\":7527:7533   */\n      dup3\n        /* \"#utility.yul\":7524:7538   */\n      lt\n        /* \"#utility.yul\":7504:7522   */\n      dup2\n        /* \"#utility.yul\":7501:7539   */\n      sub\n        /* \"#utility.yul\":7498:7659   */\n      tag_71\n      jumpi\n        /* \"#utility.yul\":7581:7591   */\n      0x4e487b71\n        /* \"#utility.yul\":7576:7579   */\n      0xe0\n        /* \"#utility.yul\":7572:7592   */\n      shl\n        /* \"#utility.yul\":7569:7570   */\n      0x00\n        /* \"#utility.yul\":7562:7593   */\n      mstore\n        /* \"#utility.yul\":7616:7620   */\n      0x22\n        /* \"#utility.yul\":7613:7614   */\n      0x04\n        /* \"#utility.yul\":7606:7621   */\n      mstore\n        /* \"#utility.yul\":7644:7648   */\n      0x24\n        /* \"#utility.yul\":7641:7642   */\n      0x00\n        /* \"#utility.yul\":7634:7649   */\n      revert\n        /* \"#utility.yul\":8153:8671   */\n    tag_217:\n        /* \"#utility.yul\":8255:8257   */\n      0x1f\n        /* \"#utility.yul\":8250:8253   */\n      dup3\n        /* \"#utility.yul\":8247:8258   */\n      gt\n        /* \"#utility.yul\":8244:8665   */\n      iszero\n      tag_279\n      jumpi\n        /* \"#utility.yul\":8291:8296   */\n      dup1\n        /* \"#utility.yul\":8288:8289   */\n      0x00\n        /* \"#utility.yul\":8281:8297   */\n      mstore\n        /* \"#utility.yul\":8335:8339   */\n      0x20\n        /* \"#utility.yul\":8332:8333   */\n      0x00\n        /* \"#utility.yul\":8322:8340   */\n      keccak256\n        /* \"#utility.yul\":8405:8407   */\n      0x1f\n        /* \"#utility.yul\":8393:8403   */\n      dup5\n        /* \"#utility.yul\":8389:8408   */\n      add\n        /* \"#utility.yul\":8386:8387   */\n      0x05\n        /* \"#utility.yul\":8382:8409   */\n      shr\n        /* \"#utility.yul\":8376:8380   */\n      dup2\n        /* \"#utility.yul\":8372:8410   */\n      add\n        /* \"#utility.yul\":8441:8445   */\n      0x20\n        /* \"#utility.yul\":8429:8439   */\n      dup6\n        /* \"#utility.yul\":8426:8446   */\n      lt\n        /* \"#utility.yul\":8423:8470   */\n      iszero\n      tag_280\n      jumpi\n      pop\n        /* \"#utility.yul\":8464:8468   */\n      dup1\n        /* \"#utility.yul\":8423:8470   */\n    tag_280:\n        /* \"#utility.yul\":8519:8521   */\n      0x1f\n        /* \"#utility.yul\":8514:8517   */\n      dup5\n        /* \"#utility.yul\":8510:8522   */\n      add\n        /* \"#utility.yul\":8507:8508   */\n      0x05\n        /* \"#utility.yul\":8503:8523   */\n      shr\n        /* \"#utility.yul\":8497:8501   */\n      dup3\n        /* \"#utility.yul\":8493:8524   */\n      add\n        /* \"#utility.yul\":8483:8524   */\n      swap2\n      pop\n        /* \"#utility.yul\":8574:8655   */\n    tag_281:\n        /* \"#utility.yul\":8592:8594   */\n      dup2\n        /* \"#utility.yul\":8585:8590   */\n      dup2\n        /* \"#utility.yul\":8582:8595   */\n      lt\n        /* \"#utility.yul\":8574:8655   */\n      iszero\n      tag_283\n      jumpi\n        /* \"#utility.yul\":8651:8652   */\n      0x00\n        /* \"#utility.yul\":8637:8653   */\n      dup2\n      sstore\n        /* \"#utility.yul\":8618:8619   */\n      0x01\n        /* \"#utility.yul\":8607:8620   */\n      add\n        /* \"#utility.yul\":8574:8655   */\n      jump(tag_281)\n    tag_283:\n        /* \"#utility.yul\":8578:8581   */\n      pop\n      pop\n        /* \"#utility.yul\":8244:8665   */\n    tag_279:\n        /* \"#utility.yul\":8153:8671   */\n      pop\n      pop\n      pop\n      jump\t// out\n        /* \"#utility.yul\":8847:10045   */\n    tag_107:\n        /* \"#utility.yul\":8971:8989   */\n      0xffffffffffffffff\n        /* \"#utility.yul\":8966:8969   */\n      dup4\n        /* \"#utility.yul\":8963:8990   */\n      gt\n        /* \"#utility.yul\":8960:9013   */\n      iszero\n      tag_287\n      jumpi\n        /* \"#utility.yul\":8993:9011   */\n      tag_287\n      tag_65\n      jump\t// in\n    tag_287:\n        /* \"#utility.yul\":9022:9116   */\n      tag_288\n        /* \"#utility.yul\":9112:9115   */\n      dup4\n        /* \"#utility.yul\":9072:9110   */\n      tag_289\n        /* \"#utility.yul\":9104:9108   */\n      dup4\n        /* \"#utility.yul\":9098:9109   */\n      sload\n        /* \"#utility.yul\":9072:9110   */\n      tag_78\n      jump\t// in\n    tag_289:\n        /* \"#utility.yul\":9066:9070   */\n      dup4\n        /* \"#utility.yul\":9022:9116   */\n      tag_217\n      jump\t// in\n    tag_288:\n        /* \"#utility.yul\":9142:9143   */\n      0x00\n        /* \"#utility.yul\":9167:9169   */\n      0x1f\n        /* \"#utility.yul\":9162:9165   */\n      dup5\n        /* \"#utility.yul\":9159:9170   */\n      gt\n        /* \"#utility.yul\":9184:9185   */\n      0x01\n        /* \"#utility.yul\":9179:9787   */\n      dup2\n      eq\n      tag_291\n      jumpi\n        /* \"#utility.yul\":9831:9832   */\n      0x00\n        /* \"#utility.yul\":9848:9851   */\n      dup6\n        /* \"#utility.yul\":9845:9938   */\n      iszero\n      tag_292\n      jumpi\n      pop\n        /* \"#utility.yul\":9904:9923   */\n      dup4\n      dup3\n      add\n        /* \"#utility.yul\":9891:9924   */\n      calldataload\n        /* \"#utility.yul\":9845:9938   */\n    tag_292:\n      not(0x00)\n        /* \"#utility.yul\":8804:8805   */\n      0x03\n        /* \"#utility.yul\":8800:8811   */\n      dup8\n      swap1\n      shl\n        /* \"#utility.yul\":8796:8820   */\n      shr\n        /* \"#utility.yul\":8792:8821   */\n      not\n        /* \"#utility.yul\":8782:8822   */\n      and\n        /* \"#utility.yul\":8828:8829   */\n      0x01\n        /* \"#utility.yul\":8824:8835   */\n      dup7\n      swap1\n      shl\n        /* \"#utility.yul\":8779:8836   */\n      or\n        /* \"#utility.yul\":9951:10029   */\n      dup4\n      sstore\n        /* \"#utility.yul\":9152:10039   */\n      jump(tag_283)\n        /* \"#utility.yul\":9179:9787   */\n    tag_291:\n        /* \"#utility.yul\":8100:8101   */\n      0x00\n        /* \"#utility.yul\":8093:8107   */\n      dup4\n      dup2\n      mstore\n        /* \"#utility.yul\":8137:8141   */\n      0x20\n        /* \"#utility.yul\":8124:8142   */\n      dup2\n      keccak256\n      not(0x1f)\n        /* \"#utility.yul\":9215:9232   */\n      dup8\n      and\n      swap2\n        /* \"#utility.yul\":9330:9559   */\n    tag_295:\n        /* \"#utility.yul\":9344:9351   */\n      dup3\n        /* \"#utility.yul\":9341:9342   */\n      dup2\n        /* \"#utility.yul\":9338:9352   */\n      lt\n        /* \"#utility.yul\":9330:9559   */\n      iszero\n      tag_297\n      jumpi\n        /* \"#utility.yul\":9433:9452   */\n      dup7\n      dup6\n      add\n        /* \"#utility.yul\":9420:9453   */\n      calldataload\n        /* \"#utility.yul\":9405:9454   */\n      dup3\n      sstore\n        /* \"#utility.yul\":9540:9544   */\n      0x20\n        /* \"#utility.yul\":9525:9545   */\n      swap5\n      dup6\n      add\n      swap5\n        /* \"#utility.yul\":9493:9494   */\n      0x01\n        /* \"#utility.yul\":9481:9495   */\n      swap1\n      swap3\n      add\n      swap2\n        /* \"#utility.yul\":9360:9372   */\n      add\n        /* \"#utility.yul\":9330:9559   */\n      jump(tag_295)\n    tag_297:\n        /* \"#utility.yul\":9334:9337   */\n      pop\n        /* \"#utility.yul\":9587:9590   */\n      dup7\n        /* \"#utility.yul\":9578:9585   */\n      dup3\n        /* \"#utility.yul\":9575:9591   */\n      lt\n        /* \"#utility.yul\":9572:9731   */\n      iszero\n      tag_298\n      jumpi\n        /* \"#utility.yul\":9711:9712   */\n      0x00\n        /* \"#utility.yul\":9707:9713   */\n      not\n        /* \"#utility.yul\":9701:9704   */\n      0xf8\n        /* \"#utility.yul\":9695:9698   */\n      dup9\n        /* \"#utility.yul\":9692:9693   */\n      0x03\n        /* \"#utility.yul\":9688:9699   */\n      shl\n        /* \"#utility.yul\":9684:9705   */\n      and\n        /* \"#utility.yul\":9680:9714   */\n      shr\n        /* \"#utility.yul\":9676:9715   */\n      not\n        /* \"#utility.yul\":9663:9672   */\n      dup5\n        /* \"#utility.yul\":9658:9661   */\n      dup8\n        /* \"#utility.yul\":9654:9673   */\n      add\n        /* \"#utility.yul\":9641:9674   */\n      calldataload\n        /* \"#utility.yul\":9637:9716   */\n      and\n        /* \"#utility.yul\":9629:9635   */\n      dup2\n        /* \"#utility.yul\":9622:9717   */\n      sstore\n        /* \"#utility.yul\":9572:9731   */\n    tag_298:\n      pop\n      pop\n        /* \"#utility.yul\":9774:9775   */\n      0x01\n        /* \"#utility.yul\":9768:9771   */\n      dup6\n        /* \"#utility.yul\":9765:9766   */\n      0x01\n        /* \"#utility.yul\":9761:9772   */\n      shl\n        /* \"#utility.yul\":9757:9776   */\n      add\n        /* \"#utility.yul\":9751:9755   */\n      dup4\n        /* \"#utility.yul\":9744:9777   */\n      sstore\n        /* \"#utility.yul\":9152:10039   */\n      pop\n      pop\n        /* \"#utility.yul\":8847:10045   */\n      pop\n      pop\n      pop\n      jump\t// out\n        /* \"#utility.yul\":10050:10440   */\n    tag_111:\n        /* \"#utility.yul\":10209:10211   */\n      0x20\n        /* \"#utility.yul\":10198:10207   */\n      dup2\n        /* \"#utility.yul\":10191:10212   */\n      mstore\n        /* \"#utility.yul\":10248:10254   */\n      dup2\n        /* \"#utility.yul\":10243:10245   */\n      0x20\n        /* \"#utility.yul\":10232:10241   */\n      dup3\n        /* \"#utility.yul\":10228:10246   */\n      add\n        /* \"#utility.yul\":10221:10255   */\n      mstore\n        /* \"#utility.yul\":10305:10311   */\n      dup2\n        /* \"#utility.yul\":10297:10303   */\n      dup4\n        /* \"#utility.yul\":10292:10294   */\n      0x40\n        /* \"#utility.yul\":10281:10290   */\n      dup4\n        /* \"#utility.yul\":10277:10295   */\n      add\n        /* \"#utility.yul\":10264:10312   */\n      calldatacopy\n        /* \"#utility.yul\":10361:10362   */\n      0x00\n        /* \"#utility.yul\":10332:10354   */\n      dup2\n      dup4\n      add\n        /* \"#utility.yul\":10356:10358   */\n      0x40\n        /* \"#utility.yul\":10328:10359   */\n      swap1\n      dup2\n      add\n        /* \"#utility.yul\":10321:10363   */\n      swap2\n      swap1\n      swap2\n      mstore\n        /* \"#utility.yul\":10424:10426   */\n      0x1f\n        /* \"#utility.yul\":10403:10418   */\n      swap1\n      swap3\n      add\n      not(0x1f)\n        /* \"#utility.yul\":10399:10428   */\n      and\n        /* \"#utility.yul\":10384:10429   */\n      add\n        /* \"#utility.yul\":10380:10434   */\n      add\n      swap2\n        /* \"#utility.yul\":10050:10440   */\n      swap1\n      pop\n      jump\t// out\n        /* \"#utility.yul\":11002:11279   */\n    tag_123:\n        /* \"#utility.yul\":11069:11075   */\n      0x00\n        /* \"#utility.yul\":11122:11124   */\n      0x20\n        /* \"#utility.yul\":11110:11119   */\n      dup3\n        /* \"#utility.yul\":11101:11108   */\n      dup5\n        /* \"#utility.yul\":11097:11120   */\n      sub\n        /* \"#utility.yul\":11093:11125   */\n      slt\n        /* \"#utility.yul\":11090:11142   */\n      iszero\n      tag_303\n      jumpi\n        /* \"#utility.yul\":11138:11139   */\n      0x00\n        /* \"#utility.yul\":11135:11136   */\n      0x00\n        /* \"#utility.yul\":11128:11140   */\n      revert\n        /* \"#utility.yul\":11090:11142   */\n    tag_303:\n        /* \"#utility.yul\":11170:11179   */\n      dup2\n        /* \"#utility.yul\":11164:11180   */\n      mload\n        /* \"#utility.yul\":11223:11228   */\n      dup1\n        /* \"#utility.yul\":11216:11229   */\n      iszero\n        /* \"#utility.yul\":11209:11230   */\n      iszero\n        /* \"#utility.yul\":11202:11207   */\n      dup2\n        /* \"#utility.yul\":11199:11231   */\n      eq\n        /* \"#utility.yul\":11189:11249   */\n      tag_259\n      jumpi\n        /* \"#utility.yul\":11245:11246   */\n      0x00\n        /* \"#utility.yul\":11242:11243   */\n      0x00\n        /* \"#utility.yul\":11235:11247   */\n      revert\n        /* \"#utility.yul\":11284:11625   */\n    tag_126:\n        /* \"#utility.yul\":11486:11488   */\n      0x20\n        /* \"#utility.yul\":11468:11489   */\n      dup1\n      dup3\n      mstore\n        /* \"#utility.yul\":11525:11527   */\n      0x11\n        /* \"#utility.yul\":11505:11523   */\n      swap1\n      dup3\n      add\n        /* \"#utility.yul\":11498:11528   */\n      mstore\n      shl(0x79, 0x2cb7ba9030b932903737ba1030b236b4b7)\n        /* \"#utility.yul\":11559:11561   */\n      0x40\n        /* \"#utility.yul\":11544:11562   */\n      dup3\n      add\n        /* \"#utility.yul\":11537:11584   */\n      mstore\n        /* \"#utility.yul\":11616:11618   */\n      0x60\n        /* \"#utility.yul\":11601:11619   */\n      add\n      swap1\n        /* \"#utility.yul\":11284:11625   */\n      jump\t// out\n        /* \"#utility.yul\":12616:13915   */\n    tag_170:\n        /* \"#utility.yul\":12742:12745   */\n      dup2\n        /* \"#utility.yul\":12736:12746   */\n      mload\n        /* \"#utility.yul\":12769:12787   */\n      0xffffffffffffffff\n        /* \"#utility.yul\":12761:12767   */\n      dup2\n        /* \"#utility.yul\":12758:12788   */\n      gt\n        /* \"#utility.yul\":12755:12811   */\n      iszero\n      tag_311\n      jumpi\n        /* \"#utility.yul\":12791:12809   */\n      tag_311\n      tag_65\n      jump\t// in\n    tag_311:\n        /* \"#utility.yul\":12820:12917   */\n      tag_312\n        /* \"#utility.yul\":12910:12916   */\n      dup2\n        /* \"#utility.yul\":12870:12908   */\n      tag_313\n        /* \"#utility.yul\":12902:12906   */\n      dup5\n        /* \"#utility.yul\":12896:12907   */\n      sload\n        /* \"#utility.yul\":12870:12908   */\n      tag_78\n      jump\t// in\n    tag_313:\n        /* \"#utility.yul\":12864:12868   */\n      dup5\n        /* \"#utility.yul\":12820:12917   */\n      tag_217\n      jump\t// in\n    tag_312:\n        /* \"#utility.yul\":12966:12970   */\n      0x20\n        /* \"#utility.yul\":12997:12999   */\n      0x1f\n        /* \"#utility.yul\":12986:13000   */\n      dup3\n      gt\n        /* \"#utility.yul\":13014:13015   */\n      0x01\n        /* \"#utility.yul\":13009:13658   */\n      dup2\n      eq\n      tag_315\n      jumpi\n        /* \"#utility.yul\":13702:13703   */\n      0x00\n        /* \"#utility.yul\":13719:13725   */\n      dup4\n        /* \"#utility.yul\":13716:13805   */\n      iszero\n      tag_316\n      jumpi\n      pop\n        /* \"#utility.yul\":13771:13790   */\n      dup5\n      dup3\n      add\n        /* \"#utility.yul\":13765:13791   */\n      mload\n        /* \"#utility.yul\":13716:13805   */\n    tag_316:\n      not(0x00)\n        /* \"#utility.yul\":8804:8805   */\n      0x03\n        /* \"#utility.yul\":8800:8811   */\n      dup6\n      swap1\n      shl\n        /* \"#utility.yul\":8796:8820   */\n      shr\n        /* \"#utility.yul\":8792:8821   */\n      not\n        /* \"#utility.yul\":8782:8822   */\n      and\n        /* \"#utility.yul\":8828:8829   */\n      0x01\n        /* \"#utility.yul\":8824:8835   */\n      dup5\n      swap1\n      shl\n        /* \"#utility.yul\":8779:8836   */\n      or\n        /* \"#utility.yul\":13818:13899   */\n      dup5\n      sstore\n        /* \"#utility.yul\":12979:13909   */\n      jump(tag_283)\n        /* \"#utility.yul\":13009:13658   */\n    tag_315:\n        /* \"#utility.yul\":8100:8101   */\n      0x00\n        /* \"#utility.yul\":8093:8107   */\n      dup5\n      dup2\n      mstore\n        /* \"#utility.yul\":8137:8141   */\n      0x20\n        /* \"#utility.yul\":8124:8142   */\n      dup2\n      keccak256\n      not(0x1f)\n        /* \"#utility.yul\":13045:13065   */\n      dup6\n      and\n      swap2\n        /* \"#utility.yul\":13163:13385   */\n    tag_319:\n        /* \"#utility.yul\":13177:13184   */\n      dup3\n        /* \"#utility.yul\":13174:13175   */\n      dup2\n        /* \"#utility.yul\":13171:13185   */\n      lt\n        /* \"#utility.yul\":13163:13385   */\n      iszero\n      tag_321\n      jumpi\n        /* \"#utility.yul\":13259:13278   */\n      dup8\n      dup6\n      add\n        /* \"#utility.yul\":13253:13279   */\n      mload\n        /* \"#utility.yul\":13238:13280   */\n      dup3\n      sstore\n        /* \"#utility.yul\":13366:13370   */\n      0x20\n        /* \"#utility.yul\":13351:13371   */\n      swap5\n      dup6\n      add\n      swap5\n        /* \"#utility.yul\":13319:13320   */\n      0x01\n        /* \"#utility.yul\":13307:13321   */\n      swap1\n      swap3\n      add\n      swap2\n        /* \"#utility.yul\":13193:13205   */\n      add\n        /* \"#utility.yul\":13163:13385   */\n      jump(tag_319)\n    tag_321:\n        /* \"#utility.yul\":13167:13170   */\n      pop\n        /* \"#utility.yul\":13413:13419   */\n      dup5\n        /* \"#utility.yul\":13404:13411   */\n      dup3\n        /* \"#utility.yul\":13401:13420   */\n      lt\n        /* \"#utility.yul\":13398:13599   */\n      iszero\n      tag_322\n      jumpi\n        /* \"#utility.yul\":13474:13493   */\n      dup7\n      dup5\n      add\n        /* \"#utility.yul\":13468:13494   */\n      mload\n      not(0x00)\n        /* \"#utility.yul\":13557:13558   */\n      0x03\n        /* \"#utility.yul\":13553:13567   */\n      dup8\n      swap1\n      shl\n        /* \"#utility.yul\":13569:13572   */\n      0xf8\n        /* \"#utility.yul\":13549:13573   */\n      and\n        /* \"#utility.yul\":13545:13582   */\n      shr\n        /* \"#utility.yul\":13541:13583   */\n      not\n        /* \"#utility.yul\":13526:13584   */\n      and\n        /* \"#utility.yul\":13511:13585   */\n      dup2\n      sstore\n        /* \"#utility.yul\":13398:13599   */\n    tag_322:\n      pop\n      pop\n      pop\n      pop\n        /* \"#utility.yul\":13645:13646   */\n      0x01\n        /* \"#utility.yul\":13629:13643   */\n      swap1\n      dup2\n      shl\n        /* \"#utility.yul\":13625:13647   */\n      add\n        /* \"#utility.yul\":13612:13648   */\n      swap1\n      sstore\n      pop\n        /* \"#utility.yul\":12616:13915   */\n      jump\t// out\n\n    auxdata: 0xa2646970667358221220d4d0938513c405f2c43758b76b02596801321584d4cc331180d6fa228c59dbba64736f6c634300081e0033\n}\n",
				"bytecode": {
					"linkReferences": {},
					"object": "6080604052348015600e575f5ffd5b506040516117de3803806117de833981016040819052602b916074565b5f80546001600160a01b039384166001600160a01b0319918216179091556001805492909316911617905560a0565b80516001600160a01b0381168114606f575f5ffd5b919050565b5f5f604083850312156084575f5ffd5b608b83605a565b9150609760208401605a565b90509250929050565b611731806100ad5f395ff3fe608060405234801561000f575f5ffd5b50600436106100a6575f3560e01c8063abf5e8361161006e578063abf5e8361461013c578063b7ee0adc1461014f578063dcad55c014610175578063ddd7950414610188578063e0e8086b146101a8578063f9b6117f146101bb575f5ffd5b8063037c73c2146100aa5780633e5bde70146100c857806342f54b89146100e95780635be5fd3914610114578063ab1ca44c14610129575b5f5ffd5b6100b26101cd565b6040516100bf91906111d1565b60405180910390f35b6100db6100d636600461124f565b6104ac565b6040519081526020016100bf565b6001546100fc906001600160a01b031681565b6040516001600160a01b0390911681526020016100bf565b6101276101223660046112bc565b6104d7565b005b61012761013736600461124f565b610601565b61012761014a36600461136b565b61068a565b61016261015d366004611395565b61083b565b6040516100bf97969594939291906113b5565b6101276101833660046112bc565b610a16565b61019b610196366004611395565b610d11565b6040516100bf9190611426565b6101276101b6366004611438565b610f47565b5f546100fc906001600160a01b031681565b6003546060905f9067ffffffffffffffff8111156101ed576101ed611468565b60405190808252806020026020018201604052801561022657816020015b610213611093565b81526020019060019003908161020b5790505b5090505f5b6003548110156104a65760025f6003838154811061024b5761024b61147c565b5f9182526020808320909101546001600160a01b039081168452838201949094526040928301909120825160e08101909352805490931682526001830180549293929184019161029a90611490565b80601f01602080910402602001604051908101604052809291908181526020018280546102c690611490565b80156103115780601f106102e857610100808354040283529160200191610311565b820191905f5260205f20905b8154815290600101906020018083116102f457829003601f168201915b5050505050815260200160028201805461032a90611490565b80601f016020809104026020016040519081016040528092919081815260200182805461035690611490565b80156103a15780601f10610378576101008083540402835291602001916103a1565b820191905f5260205f20905b81548152906001019060200180831161038457829003601f168201915b505050505081526020016003820180546103ba90611490565b80601f01602080910402602001604051908101604052809291908181526020018280546103e690611490565b80156104315780601f1061040857610100808354040283529160200191610431565b820191905f5260205f20905b81548152906001019060200180831161041457829003601f168201915b50505091835250506004820154602082015260058201546040820152600682015460609091019060ff16600181111561046c5761046c611113565b600181111561047d5761047d611113565b815250508282815181106104935761049361147c565b602090810291909101015260010161022b565b50919050565b6004602052815f5260405f2081815481106104c5575f80fd5b905f5260205f20015f91509150505481565b6001600160a01b038781165f90815260026020526040902054166105425760405162461bcd60e51b815260206004820152601c60248201527f5374616666206164647265737320646f6573206e6f742065786973740000000060448201526064015b60405180910390fd5b6001600160a01b0387165f90815260026020526040902060010161056786888361150e565b506001600160a01b0387165f9081526002602081905260409091200161058e84868361150e565b506001600160a01b0387165f9081526002602052604090206003016105b482848361150e565b50866001600160a01b03167f3dcb5fe974f30b3e06b920890e4bdb2242f9f641c1d184169397248527bd9e4b87876040516105f09291906115c8565b60405180910390a250505050505050565b6001600160a01b038281165f90815260026020526040902054161561065f5760405162461bcd60e51b815260206004820152601460248201527314dd18599988191bd95cc81b9bdd08195e1a5cdd60621b6044820152606401610539565b6001600160a01b039091165f9081526004602090815260408220805460018101825590835291200155565b600154604051630935e01b60e21b81523260048201526001600160a01b03909116906324d7806c90602401602060405180830381865afa1580156106d0573d5f5f3e3d5ffd5b505050506040513d601f19601f820116820180604052508101906106f491906115f6565b6107105760405162461bcd60e51b815260040161053990611615565b6001600160a01b038181165f90815260026020526040902054166107765760405162461bcd60e51b815260206004820152601c60248201527f5374616666206164647265737320646f6573206e6f74206578697374000000006044820152606401610539565b6001600160a01b038181165f81815260026020526040808220600601805460ff1916600117905590549051637ea076a360e01b815260048101869052602481019290925290911690637ea076a3906044015f604051808303815f87803b1580156107de575f5ffd5b505af11580156107f0573d5f5f3e3d5ffd5b50505050806001600160a01b03167f9db6c9b6c2a287d549df6b984d957053e5f3782439393782b3b61f71715cbe938360405161082f91815260200190565b60405180910390a25050565b60026020525f9081526040902080546001820180546001600160a01b03909216929161086690611490565b80601f016020809104026020016040519081016040528092919081815260200182805461089290611490565b80156108dd5780601f106108b4576101008083540402835291602001916108dd565b820191905f5260205f20905b8154815290600101906020018083116108c057829003601f168201915b5050505050908060020180546108f290611490565b80601f016020809104026020016040519081016040528092919081815260200182805461091e90611490565b80156109695780601f1061094057610100808354040283529160200191610969565b820191905f5260205f20905b81548152906001019060200180831161094c57829003601f168201915b50505050509080600301805461097e90611490565b80601f01602080910402602001604051908101604052809291908181526020018280546109aa90611490565b80156109f55780601f106109cc576101008083540402835291602001916109f5565b820191905f5260205f20905b8154815290600101906020018083116109d857829003601f168201915b50505050600483015460058401546006909401549293909290915060ff1687565b600154604051630935e01b60e21b81523260048201526001600160a01b03909116906324d7806c90602401602060405180830381865afa158015610a5c573d5f5f3e3d5ffd5b505050506040513d601f19601f82011682018060405250810190610a8091906115f6565b610a9c5760405162461bcd60e51b815260040161053990611615565b6001600160a01b038716610aea5760405162461bcd60e51b8152602060048201526015602482015274496e76616c6964207374616666206164647265737360581b6044820152606401610539565b6001600160a01b038781165f908152600260205260409020541615610b515760405162461bcd60e51b815260206004820152601c60248201527f5374616666206164647265737320616c726561647920657869737473000000006044820152606401610539565b6040518060e00160405280886001600160a01b0316815260200187878080601f0160208091040260200160405190810160405280939291908181526020018383808284375f92019190915250505090825250604080516020601f8801819004810282018101909252868152918101919087908790819084018382808284375f92019190915250505090825250604080516020601f8601819004810282018101909252848152918101919085908590819084018382808284375f92018290525093855250505060208201819052604082018190526060909101526001600160a01b038881165f908152600260209081526040909120835181546001600160a01b03191693169290921782558201516001820190610c6d9082611640565b5060408201516002820190610c829082611640565b5060608201516003820190610c979082611640565b506080820151600482015560a0820151600582015560c082015160068201805460ff191660018381811115610cce57610cce611113565b0217905550905050866001600160a01b03167f3985ff4d998287fd60ca803c8ceccc30f94edcc70957500af9fcfd47f2f544c787876040516105f09291906115c8565b610d19611093565b6001600160a01b038083165f90815260026020908152604091829020825160e081019093528054909316825260018301805492939291840191610d5b90611490565b80601f0160208091040260200160405190810160405280929190818152602001828054610d8790611490565b8015610dd25780601f10610da957610100808354040283529160200191610dd2565b820191905f5260205f20905b815481529060010190602001808311610db557829003601f168201915b50505050508152602001600282018054610deb90611490565b80601f0160208091040260200160405190810160405280929190818152602001828054610e1790611490565b8015610e625780601f10610e3957610100808354040283529160200191610e62565b820191905f5260205f20905b815481529060010190602001808311610e4557829003601f168201915b50505050508152602001600382018054610e7b90611490565b80601f0160208091040260200160405190810160405280929190818152602001828054610ea790611490565b8015610ef25780601f10610ec957610100808354040283529160200191610ef2565b820191905f5260205f20905b815481529060010190602001808311610ed557829003601f168201915b50505091835250506004820154602082015260058201546040820152600682015460609091019060ff166001811115610f2d57610f2d611113565b6001811115610f3e57610f3e611113565b90525092915050565b600154604051630935e01b60e21b81523260048201526001600160a01b03909116906324d7806c90602401602060405180830381865afa158015610f8d573d5f5f3e3d5ffd5b505050506040513d601f19601f82011682018060405250810190610fb191906115f6565b610fcd5760405162461bcd60e51b815260040161053990611615565b6001600160a01b038381165f908152600260205260409020541661102a5760405162461bcd60e51b815260206004820152601460248201527314dd18599988191bd95cc81b9bdd08195e1a5cdd60621b6044820152606401610539565b6001600160a01b0383165f81815260026020908152604091829020600481018690556005018490558151928352820184905281018290527f4287fc91e372e2c0c4fd45aca88c869f59dad9163b11b71dc130bfc4cd4e85069060600160405180910390a1505050565b6040518060e001604052805f6001600160a01b031681526020016060815260200160608152602001606081526020015f81526020015f81526020015f60018111156110e0576110e0611113565b905290565b5f81518084528060208401602086015e5f602082860101526020601f19601f83011685010191505092915050565b634e487b7160e01b5f52602160045260245ffd5b6002811061114357634e487b7160e01b5f52602160045260245ffd5b9052565b60018060a01b0381511682525f602082015160e0602085015261116d60e08501826110e5565b90506040830151848203604086015261118682826110e5565b915050606083015184820360608601526111a082826110e5565b9150506080830151608085015260a083015160a085015260c08301516111c960c0860182611127565b509392505050565b5f602082016020835280845180835260408501915060408160051b8601019250602086015f5b8281101561122857603f19878603018452611213858351611147565b945060209384019391909101906001016111f7565b50929695505050505050565b80356001600160a01b038116811461124a575f5ffd5b919050565b5f5f60408385031215611260575f5ffd5b61126983611234565b946020939093013593505050565b5f5f83601f840112611287575f5ffd5b50813567ffffffffffffffff81111561129e575f5ffd5b6020830191508360208285010111156112b5575f5ffd5b9250929050565b5f5f5f5f5f5f5f6080888a0312156112d2575f5ffd5b6112db88611234565b9650602088013567ffffffffffffffff8111156112f6575f5ffd5b6113028a828b01611277565b909750955050604088013567ffffffffffffffff811115611321575f5ffd5b61132d8a828b01611277565b909550935050606088013567ffffffffffffffff81111561134c575f5ffd5b6113588a828b01611277565b989b979a50959850939692959293505050565b5f5f6040838503121561137c575f5ffd5b8235915061138c60208401611234565b90509250929050565b5f602082840312156113a5575f5ffd5b6113ae82611234565b9392505050565b6001600160a01b038816815260e0602082018190525f906113d8908301896110e5565b82810360408401526113ea81896110e5565b905082810360608401526113fe81886110e5565b9150508460808301528360a083015261141a60c0830184611127565b98975050505050505050565b602081525f6113ae6020830184611147565b5f5f5f6060848603121561144a575f5ffd5b61145384611234565b95602085013595506040909401359392505050565b634e487b7160e01b5f52604160045260245ffd5b634e487b7160e01b5f52603260045260245ffd5b600181811c908216806114a457607f821691505b6020821081036104a657634e487b7160e01b5f52602260045260245ffd5b601f82111561150957805f5260205f20601f840160051c810160208510156114e75750805b601f840160051c820191505b81811015611506575f81556001016114f3565b50505b505050565b67ffffffffffffffff83111561152657611526611468565b61153a836115348354611490565b836114c2565b5f601f84116001811461156b575f85156115545750838201355b5f19600387901b1c1916600186901b178355611506565b5f83815260208120601f198716915b8281101561159a578685013582556020948501946001909201910161157a565b50868210156115b6575f1960f88860031b161c19848701351681555b505060018560011b0183555050505050565b60208152816020820152818360408301375f818301604090810191909152601f909201601f19160101919050565b5f60208284031215611606575f5ffd5b815180151581146113ae575f5ffd5b6020808252601190820152702cb7ba9030b932903737ba1030b236b4b760791b604082015260600190565b815167ffffffffffffffff81111561165a5761165a611468565b61166e816116688454611490565b846114c2565b6020601f8211600181146116a0575f83156116895750848201515b5f19600385901b1c1916600184901b178455611506565b5f84815260208120601f198516915b828110156116cf57878501518255602094850194600190920191016116af565b50848210156116ec57868401515f19600387901b60f8161c191681555b50505050600190811b0190555056fea2646970667358221220d4d0938513c405f2c43758b76b02596801321584d4cc331180d6fa228c59dbba64736f6c634300081e0033",
					"opcodes": "PUSH1 0x80 PUSH1 0x40 MSTORE CALLVALUE DUP1 ISZERO PUSH1 0xE JUMPI PUSH0 PUSH0 REVERT JUMPDEST POP PUSH1 0x40 MLOAD PUSH2 0x17DE CODESIZE SUB DUP1 PUSH2 0x17DE DUP4 CODECOPY DUP2 ADD PUSH1 0x40 DUP2 SWAP1 MSTORE PUSH1 0x2B SWAP2 PUSH1 0x74 JUMP JUMPDEST PUSH0 DUP1 SLOAD PUSH1 0x1 PUSH1 0x1 PUSH1 0xA0 SHL SUB SWAP4 DUP5 AND PUSH1 0x1 PUSH1 0x1 PUSH1 0xA0 SHL SUB NOT SWAP2 DUP3 AND OR SWAP1 SWAP2 SSTORE PUSH1 0x1 DUP1 SLOAD SWAP3 SWAP1 SWAP4 AND SWAP2 AND OR SWAP1 SSTORE PUSH1 0xA0 JUMP JUMPDEST DUP1 MLOAD PUSH1 0x1 PUSH1 0x1 PUSH1 0xA0 SHL SUB DUP2 AND DUP2 EQ PUSH1 0x6F JUMPI PUSH0 PUSH0 REVERT JUMPDEST SWAP2 SWAP1 POP JUMP JUMPDEST PUSH0 PUSH0 PUSH1 0x40 DUP4 DUP6 SUB SLT ISZERO PUSH1 0x84 JUMPI PUSH0 PUSH0 REVERT JUMPDEST PUSH1 0x8B DUP4 PUSH1 0x5A JUMP JUMPDEST SWAP2 POP PUSH1 0x97 PUSH1 0x20 DUP5 ADD PUSH1 0x5A JUMP JUMPDEST SWAP1 POP SWAP3 POP SWAP3 SWAP1 POP JUMP JUMPDEST PUSH2 0x1731 DUP1 PUSH2 0xAD PUSH0 CODECOPY PUSH0 RETURN INVALID PUSH1 0x80 PUSH1 0x40 MSTORE CALLVALUE DUP1 ISZERO PUSH2 0xF JUMPI PUSH0 PUSH0 REVERT JUMPDEST POP PUSH1 0x4 CALLDATASIZE LT PUSH2 0xA6 JUMPI PUSH0 CALLDATALOAD PUSH1 0xE0 SHR DUP1 PUSH4 0xABF5E836 GT PUSH2 0x6E JUMPI DUP1 PUSH4 0xABF5E836 EQ PUSH2 0x13C JUMPI DUP1 PUSH4 0xB7EE0ADC EQ PUSH2 0x14F JUMPI DUP1 PUSH4 0xDCAD55C0 EQ PUSH2 0x175 JUMPI DUP1 PUSH4 0xDDD79504 EQ PUSH2 0x188 JUMPI DUP1 PUSH4 0xE0E8086B EQ PUSH2 0x1A8 JUMPI DUP1 PUSH4 0xF9B6117F EQ PUSH2 0x1BB JUMPI PUSH0 PUSH0 REVERT JUMPDEST DUP1 PUSH4 0x37C73C2 EQ PUSH2 0xAA JUMPI DUP1 PUSH4 0x3E5BDE70 EQ PUSH2 0xC8 JUMPI DUP1 PUSH4 0x42F54B89 EQ PUSH2 0xE9 JUMPI DUP1 PUSH4 0x5BE5FD39 EQ PUSH2 0x114 JUMPI DUP1 PUSH4 0xAB1CA44C EQ PUSH2 0x129 JUMPI JUMPDEST PUSH0 PUSH0 REVERT JUMPDEST PUSH2 0xB2 PUSH2 0x1CD JUMP JUMPDEST PUSH1 0x40 MLOAD PUSH2 0xBF SWAP2 SWAP1 PUSH2 0x11D1 JUMP JUMPDEST PUSH1 0x40 MLOAD DUP1 SWAP2 SUB SWAP1 RETURN JUMPDEST PUSH2 0xDB PUSH2 0xD6 CALLDATASIZE PUSH1 0x4 PUSH2 0x124F JUMP JUMPDEST PUSH2 0x4AC JUMP JUMPDEST PUSH1 0x40 MLOAD SWAP1 DUP2 MSTORE PUSH1 0x20 ADD PUSH2 0xBF JUMP JUMPDEST PUSH1 0x1 SLOAD PUSH2 0xFC SWAP1 PUSH1 0x1 PUSH1 0x1 PUSH1 0xA0 SHL SUB AND DUP2 JUMP JUMPDEST PUSH1 0x40 MLOAD PUSH1 0x1 PUSH1 0x1 PUSH1 0xA0 SHL SUB SWAP1 SWAP2 AND DUP2 MSTORE PUSH1 0x20 ADD PUSH2 0xBF JUMP JUMPDEST PUSH2 0x127 PUSH2 0x122 CALLDATASIZE PUSH1 0x4 PUSH2 0x12BC JUMP JUMPDEST PUSH2 0x4D7 JUMP JUMPDEST STOP JUMPDEST PUSH2 0x127 PUSH2 0x137 CALLDATASIZE PUSH1 0x4 PUSH2 0x124F JUMP JUMPDEST PUSH2 0x601 JUMP JUMPDEST PUSH2 0x127 PUSH2 0x14A CALLDATASIZE PUSH1 0x4 PUSH2 0x136B JUMP JUMPDEST PUSH2 0x68A JUMP JUMPDEST PUSH2 0x162 PUSH2 0x15D CALLDATASIZE PUSH1 0x4 PUSH2 0x1395 JUMP JUMPDEST PUSH2 0x83B JUMP JUMPDEST PUSH1 0x40 MLOAD PUSH2 0xBF SWAP8 SWAP7 SWAP6 SWAP5 SWAP4 SWAP3 SWAP2 SWAP1 PUSH2 0x13B5 JUMP JUMPDEST PUSH2 0x127 PUSH2 0x183 CALLDATASIZE PUSH1 0x4 PUSH2 0x12BC JUMP JUMPDEST PUSH2 0xA16 JUMP JUMPDEST PUSH2 0x19B PUSH2 0x196 CALLDATASIZE PUSH1 0x4 PUSH2 0x1395 JUMP JUMPDEST PUSH2 0xD11 JUMP JUMPDEST PUSH1 0x40 MLOAD PUSH2 0xBF SWAP2 SWAP1 PUSH2 0x1426 JUMP JUMPDEST PUSH2 0x127 PUSH2 0x1B6 CALLDATASIZE PUSH1 0x4 PUSH2 0x1438 JUMP JUMPDEST PUSH2 0xF47 JUMP JUMPDEST PUSH0 SLOAD PUSH2 0xFC SWAP1 PUSH1 0x1 PUSH1 0x1 PUSH1 0xA0 SHL SUB AND DUP2 JUMP JUMPDEST PUSH1 0x3 SLOAD PUSH1 0x60 SWAP1 PUSH0 SWAP1 PUSH8 0xFFFFFFFFFFFFFFFF DUP2 GT ISZERO PUSH2 0x1ED JUMPI PUSH2 0x1ED PUSH2 0x1468 JUMP JUMPDEST PUSH1 0x40 MLOAD SWAP1 DUP1 DUP3 MSTORE DUP1 PUSH1 0x20 MUL PUSH1 0x20 ADD DUP3 ADD PUSH1 0x40 MSTORE DUP1 ISZERO PUSH2 0x226 JUMPI DUP2 PUSH1 0x20 ADD JUMPDEST PUSH2 0x213 PUSH2 0x1093 JUMP JUMPDEST DUP2 MSTORE PUSH1 0x20 ADD SWAP1 PUSH1 0x1 SWAP1 SUB SWAP1 DUP2 PUSH2 0x20B JUMPI SWAP1 POP JUMPDEST POP SWAP1 POP PUSH0 JUMPDEST PUSH1 0x3 SLOAD DUP2 LT ISZERO PUSH2 0x4A6 JUMPI PUSH1 0x2 PUSH0 PUSH1 0x3 DUP4 DUP2 SLOAD DUP2 LT PUSH2 0x24B JUMPI PUSH2 0x24B PUSH2 0x147C JUMP JUMPDEST PUSH0 SWAP2 DUP3 MSTORE PUSH1 0x20 DUP1 DUP4 KECCAK256 SWAP1 SWAP2 ADD SLOAD PUSH1 0x1 PUSH1 0x1 PUSH1 0xA0 SHL SUB SWAP1 DUP2 AND DUP5 MSTORE DUP4 DUP3 ADD SWAP5 SWAP1 SWAP5 MSTORE PUSH1 0x40 SWAP3 DUP4 ADD SWAP1 SWAP2 KECCAK256 DUP3 MLOAD PUSH1 0xE0 DUP2 ADD SWAP1 SWAP4 MSTORE DUP1 SLOAD SWAP1 SWAP4 AND DUP3 MSTORE PUSH1 0x1 DUP4 ADD DUP1 SLOAD SWAP3 SWAP4 SWAP3 SWAP2 DUP5 ADD SWAP2 PUSH2 0x29A SWAP1 PUSH2 0x1490 JUMP JUMPDEST DUP1 PUSH1 0x1F ADD PUSH1 0x20 DUP1 SWAP2 DIV MUL PUSH1 0x20 ADD PUSH1 0x40 MLOAD SWAP1 DUP2 ADD PUSH1 0x40 MSTORE DUP1 SWAP3 SWAP2 SWAP1 DUP2 DUP2 MSTORE PUSH1 0x20 ADD DUP3 DUP1 SLOAD PUSH2 0x2C6 SWAP1 PUSH2 0x1490 JUMP JUMPDEST DUP1 ISZERO PUSH2 0x311 JUMPI DUP1 PUSH1 0x1F LT PUSH2 0x2E8 JUMPI PUSH2 0x100 DUP1 DUP4 SLOAD DIV MUL DUP4 MSTORE SWAP2 PUSH1 0x20 ADD SWAP2 PUSH2 0x311 JUMP JUMPDEST DUP3 ADD SWAP2 SWAP1 PUSH0 MSTORE PUSH1 0x20 PUSH0 KECCAK256 SWAP1 JUMPDEST DUP2 SLOAD DUP2 MSTORE SWAP1 PUSH1 0x1 ADD SWAP1 PUSH1 0x20 ADD DUP1 DUP4 GT PUSH2 0x2F4 JUMPI DUP3 SWAP1 SUB PUSH1 0x1F AND DUP3 ADD SWAP2 JUMPDEST POP POP POP POP POP DUP2 MSTORE PUSH1 0x20 ADD PUSH1 0x2 DUP3 ADD DUP1 SLOAD PUSH2 0x32A SWAP1 PUSH2 0x1490 JUMP JUMPDEST DUP1 PUSH1 0x1F ADD PUSH1 0x20 DUP1 SWAP2 DIV MUL PUSH1 0x20 ADD PUSH1 0x40 MLOAD SWAP1 DUP2 ADD PUSH1 0x40 MSTORE DUP1 SWAP3 SWAP2 SWAP1 DUP2 DUP2 MSTORE PUSH1 0x20 ADD DUP3 DUP1 SLOAD PUSH2 0x356 SWAP1 PUSH2 0x1490 JUMP JUMPDEST DUP1 ISZERO PUSH2 0x3A1 JUMPI DUP1 PUSH1 0x1F LT PUSH2 0x378 JUMPI PUSH2 0x100 DUP1 DUP4 SLOAD DIV MUL DUP4 MSTORE SWAP2 PUSH1 0x20 ADD SWAP2 PUSH2 0x3A1 JUMP JUMPDEST DUP3 ADD SWAP2 SWAP1 PUSH0 MSTORE PUSH1 0x20 PUSH0 KECCAK256 SWAP1 JUMPDEST DUP2 SLOAD DUP2 MSTORE SWAP1 PUSH1 0x1 ADD SWAP1 PUSH1 0x20 ADD DUP1 DUP4 GT PUSH2 0x384 JUMPI DUP3 SWAP1 SUB PUSH1 0x1F AND DUP3 ADD SWAP2 JUMPDEST POP POP POP POP POP DUP2 MSTORE PUSH1 0x20 ADD PUSH1 0x3 DUP3 ADD DUP1 SLOAD PUSH2 0x3BA SWAP1 PUSH2 0x1490 JUMP JUMPDEST DUP1 PUSH1 0x1F ADD PUSH1 0x20 DUP1 SWAP2 DIV MUL PUSH1 0x20 ADD PUSH1 0x40 MLOAD SWAP1 DUP2 ADD PUSH1 0x40 MSTORE DUP1 SWAP3 SWAP2 SWAP1 DUP2 DUP2 MSTORE PUSH1 0x20 ADD DUP3 DUP1 SLOAD PUSH2 0x3E6 SWAP1 PUSH2 0x1490 JUMP JUMPDEST DUP1 ISZERO PUSH2 0x431 JUMPI DUP1 PUSH1 0x1F LT PUSH2 0x408 JUMPI PUSH2 0x100 DUP1 DUP4 SLOAD DIV MUL DUP4 MSTORE SWAP2 PUSH1 0x20 ADD SWAP2 PUSH2 0x431 JUMP JUMPDEST DUP3 ADD SWAP2 SWAP1 PUSH0 MSTORE PUSH1 0x20 PUSH0 KECCAK256 SWAP1 JUMPDEST DUP2 SLOAD DUP2 MSTORE SWAP1 PUSH1 0x1 ADD SWAP1 PUSH1 0x20 ADD DUP1 DUP4 GT PUSH2 0x414 JUMPI DUP3 SWAP1 SUB PUSH1 0x1F AND DUP3 ADD SWAP2 JUMPDEST POP POP POP SWAP2 DUP4 MSTORE POP POP PUSH1 0x4 DUP3 ADD SLOAD PUSH1 0x20 DUP3 ADD MSTORE PUSH1 0x5 DUP3 ADD SLOAD PUSH1 0x40 DUP3 ADD MSTORE PUSH1 0x6 DUP3 ADD SLOAD PUSH1 0x60 SWAP1 SWAP2 ADD SWAP1 PUSH1 0xFF AND PUSH1 0x1 DUP2 GT ISZERO PUSH2 0x46C JUMPI PUSH2 0x46C PUSH2 0x1113 JUMP JUMPDEST PUSH1 0x1 DUP2 GT ISZERO PUSH2 0x47D JUMPI PUSH2 0x47D PUSH2 0x1113 JUMP JUMPDEST DUP2 MSTORE POP POP DUP3 DUP3 DUP2 MLOAD DUP2 LT PUSH2 0x493 JUMPI PUSH2 0x493 PUSH2 0x147C JUMP JUMPDEST PUSH1 0x20 SWAP1 DUP2 MUL SWAP2 SWAP1 SWAP2 ADD ADD MSTORE PUSH1 0x1 ADD PUSH2 0x22B JUMP JUMPDEST POP SWAP2 SWAP1 POP JUMP JUMPDEST PUSH1 0x4 PUSH1 0x20 MSTORE DUP2 PUSH0 MSTORE PUSH1 0x40 PUSH0 KECCAK256 DUP2 DUP2 SLOAD DUP2 LT PUSH2 0x4C5 JUMPI PUSH0 DUP1 REVERT JUMPDEST SWAP1 PUSH0 MSTORE PUSH1 0x20 PUSH0 KECCAK256 ADD PUSH0 SWAP2 POP SWAP2 POP POP SLOAD DUP2 JUMP JUMPDEST PUSH1 0x1 PUSH1 0x1 PUSH1 0xA0 SHL SUB DUP8 DUP2 AND PUSH0 SWAP1 DUP2 MSTORE PUSH1 0x2 PUSH1 0x20 MSTORE PUSH1 0x40 SWAP1 KECCAK256 SLOAD AND PUSH2 0x542 JUMPI PUSH1 0x40 MLOAD PUSH3 0x461BCD PUSH1 0xE5 SHL DUP2 MSTORE PUSH1 0x20 PUSH1 0x4 DUP3 ADD MSTORE PUSH1 0x1C PUSH1 0x24 DUP3 ADD MSTORE PUSH32 0x5374616666206164647265737320646F6573206E6F7420657869737400000000 PUSH1 0x44 DUP3 ADD MSTORE PUSH1 0x64 ADD JUMPDEST PUSH1 0x40 MLOAD DUP1 SWAP2 SUB SWAP1 REVERT JUMPDEST PUSH1 0x1 PUSH1 0x1 PUSH1 0xA0 SHL SUB DUP8 AND PUSH0 SWAP1 DUP2 MSTORE PUSH1 0x2 PUSH1 0x20 MSTORE PUSH1 0x40 SWAP1 KECCAK256 PUSH1 0x1 ADD PUSH2 0x567 DUP7 DUP9 DUP4 PUSH2 0x150E JUMP JUMPDEST POP PUSH1 0x1 PUSH1 0x1 PUSH1 0xA0 SHL SUB DUP8 AND PUSH0 SWAP1 DUP2 MSTORE PUSH1 0x2 PUSH1 0x20 DUP2 SWAP1 MSTORE PUSH1 0x40 SWAP1 SWAP2 KECCAK256 ADD PUSH2 0x58E DUP5 DUP7 DUP4 PUSH2 0x150E JUMP JUMPDEST POP PUSH1 0x1 PUSH1 0x1 PUSH1 0xA0 SHL SUB DUP8 AND PUSH0 SWAP1 DUP2 MSTORE PUSH1 0x2 PUSH1 0x20 MSTORE PUSH1 0x40 SWAP1 KECCAK256 PUSH1 0x3 ADD PUSH2 0x5B4 DUP3 DUP5 DUP4 PUSH2 0x150E JUMP JUMPDEST POP DUP7 PUSH1 0x1 PUSH1 0x1 PUSH1 0xA0 SHL SUB AND PUSH32 0x3DCB5FE974F30B3E06B920890E4BDB2242F9F641C1D184169397248527BD9E4B DUP8 DUP8 PUSH1 0x40 MLOAD PUSH2 0x5F0 SWAP3 SWAP2 SWAP1 PUSH2 0x15C8 JUMP JUMPDEST PUSH1 0x40 MLOAD DUP1 SWAP2 SUB SWAP1 LOG2 POP POP POP POP POP POP POP JUMP JUMPDEST PUSH1 0x1 PUSH1 0x1 PUSH1 0xA0 SHL SUB DUP3 DUP2 AND PUSH0 SWAP1 DUP2 MSTORE PUSH1 0x2 PUSH1 0x20 MSTORE PUSH1 0x40 SWAP1 KECCAK256 SLOAD AND ISZERO PUSH2 0x65F JUMPI PUSH1 0x40 MLOAD PUSH3 0x461BCD PUSH1 0xE5 SHL DUP2 MSTORE PUSH1 0x20 PUSH1 0x4 DUP3 ADD MSTORE PUSH1 0x14 PUSH1 0x24 DUP3 ADD MSTORE PUSH20 0x14DD18599988191BD95CC81B9BDD08195E1A5CDD PUSH1 0x62 SHL PUSH1 0x44 DUP3 ADD MSTORE PUSH1 0x64 ADD PUSH2 0x539 JUMP JUMPDEST PUSH1 0x1 PUSH1 0x1 PUSH1 0xA0 SHL SUB SWAP1 SWAP2 AND PUSH0 SWAP1 DUP2 MSTORE PUSH1 0x4 PUSH1 0x20 SWAP1 DUP2 MSTORE PUSH1 0x40 DUP3 KECCAK256 DUP1 SLOAD PUSH1 0x1 DUP2 ADD DUP3 SSTORE SWAP1 DUP4 MSTORE SWAP2 KECCAK256 ADD SSTORE JUMP JUMPDEST PUSH1 0x1 SLOAD PUSH1 0x40 MLOAD PUSH4 0x935E01B PUSH1 0xE2 SHL DUP2 MSTORE ORIGIN PUSH1 0x4 DUP3 ADD MSTORE PUSH1 0x1 PUSH1 0x1 PUSH1 0xA0 SHL SUB SWAP1 SWAP2 AND SWAP1 PUSH4 0x24D7806C SWAP1 PUSH1 0x24 ADD PUSH1 0x20 PUSH1 0x40 MLOAD DUP1 DUP4 SUB DUP2 DUP7 GAS STATICCALL ISZERO DUP1 ISZERO PUSH2 0x6D0 JUMPI RETURNDATASIZE PUSH0 PUSH0 RETURNDATACOPY RETURNDATASIZE PUSH0 REVERT JUMPDEST POP POP POP POP PUSH1 0x40 MLOAD RETURNDATASIZE PUSH1 0x1F NOT PUSH1 0x1F DUP3 ADD AND DUP3 ADD DUP1 PUSH1 0x40 MSTORE POP DUP2 ADD SWAP1 PUSH2 0x6F4 SWAP2 SWAP1 PUSH2 0x15F6 JUMP JUMPDEST PUSH2 0x710 JUMPI PUSH1 0x40 MLOAD PUSH3 0x461BCD PUSH1 0xE5 SHL DUP2 MSTORE PUSH1 0x4 ADD PUSH2 0x539 SWAP1 PUSH2 0x1615 JUMP JUMPDEST PUSH1 0x1 PUSH1 0x1 PUSH1 0xA0 SHL SUB DUP2 DUP2 AND PUSH0 SWAP1 DUP2 MSTORE PUSH1 0x2 PUSH1 0x20 MSTORE PUSH1 0x40 SWAP1 KECCAK256 SLOAD AND PUSH2 0x776 JUMPI PUSH1 0x40 MLOAD PUSH3 0x461BCD PUSH1 0xE5 SHL DUP2 MSTORE PUSH1 0x20 PUSH1 0x4 DUP3 ADD MSTORE PUSH1 0x1C PUSH1 0x24 DUP3 ADD MSTORE PUSH32 0x5374616666206164647265737320646F6573206E6F7420657869737400000000 PUSH1 0x44 DUP3 ADD MSTORE PUSH1 0x64 ADD PUSH2 0x539 JUMP JUMPDEST PUSH1 0x1 PUSH1 0x1 PUSH1 0xA0 SHL SUB DUP2 DUP2 AND PUSH0 DUP2 DUP2 MSTORE PUSH1 0x2 PUSH1 0x20 MSTORE PUSH1 0x40 DUP1 DUP3 KECCAK256 PUSH1 0x6 ADD DUP1 SLOAD PUSH1 0xFF NOT AND PUSH1 0x1 OR SWAP1 SSTORE SWAP1 SLOAD SWAP1 MLOAD PUSH4 0x7EA076A3 PUSH1 0xE0 SHL DUP2 MSTORE PUSH1 0x4 DUP2 ADD DUP7 SWAP1 MSTORE PUSH1 0x24 DUP2 ADD SWAP3 SWAP1 SWAP3 MSTORE SWAP1 SWAP2 AND SWAP1 PUSH4 0x7EA076A3 SWAP1 PUSH1 0x44 ADD PUSH0 PUSH1 0x40 MLOAD DUP1 DUP4 SUB DUP2 PUSH0 DUP8 DUP1 EXTCODESIZE ISZERO DUP1 ISZERO PUSH2 0x7DE JUMPI PUSH0 PUSH0 REVERT JUMPDEST POP GAS CALL ISZERO DUP1 ISZERO PUSH2 0x7F0 JUMPI RETURNDATASIZE PUSH0 PUSH0 RETURNDATACOPY RETURNDATASIZE PUSH0 REVERT JUMPDEST POP POP POP POP DUP1 PUSH1 0x1 PUSH1 0x1 PUSH1 0xA0 SHL SUB AND PUSH32 0x9DB6C9B6C2A287D549DF6B984D957053E5F3782439393782B3B61F71715CBE93 DUP4 PUSH1 0x40 MLOAD PUSH2 0x82F SWAP2 DUP2 MSTORE PUSH1 0x20 ADD SWAP1 JUMP JUMPDEST PUSH1 0x40 MLOAD DUP1 SWAP2 SUB SWAP1 LOG2 POP POP JUMP JUMPDEST PUSH1 0x2 PUSH1 0x20 MSTORE PUSH0 SWAP1 DUP2 MSTORE PUSH1 0x40 SWAP1 KECCAK256 DUP1 SLOAD PUSH1 0x1 DUP3 ADD DUP1 SLOAD PUSH1 0x1 PUSH1 0x1 PUSH1 0xA0 SHL SUB SWAP1 SWAP3 AND SWAP3 SWAP2 PUSH2 0x866 SWAP1 PUSH2 0x1490 JUMP JUMPDEST DUP1 PUSH1 0x1F ADD PUSH1 0x20 DUP1 SWAP2 DIV MUL PUSH1 0x20 ADD PUSH1 0x40 MLOAD SWAP1 DUP2 ADD PUSH1 0x40 MSTORE DUP1 SWAP3 SWAP2 SWAP1 DUP2 DUP2 MSTORE PUSH1 0x20 ADD DUP3 DUP1 SLOAD PUSH2 0x892 SWAP1 PUSH2 0x1490 JUMP JUMPDEST DUP1 ISZERO PUSH2 0x8DD JUMPI DUP1 PUSH1 0x1F LT PUSH2 0x8B4 JUMPI PUSH2 0x100 DUP1 DUP4 SLOAD DIV MUL DUP4 MSTORE SWAP2 PUSH1 0x20 ADD SWAP2 PUSH2 0x8DD JUMP JUMPDEST DUP3 ADD SWAP2 SWAP1 PUSH0 MSTORE PUSH1 0x20 PUSH0 KECCAK256 SWAP1 JUMPDEST DUP2 SLOAD DUP2 MSTORE SWAP1 PUSH1 0x1 ADD SWAP1 PUSH1 0x20 ADD DUP1 DUP4 GT PUSH2 0x8C0 JUMPI DUP3 SWAP1 SUB PUSH1 0x1F AND DUP3 ADD SWAP2 JUMPDEST POP POP POP POP POP SWAP1 DUP1 PUSH1 0x2 ADD DUP1 SLOAD PUSH2 0x8F2 SWAP1 PUSH2 0x1490 JUMP JUMPDEST DUP1 PUSH1 0x1F ADD PUSH1 0x20 DUP1 SWAP2 DIV MUL PUSH1 0x20 ADD PUSH1 0x40 MLOAD SWAP1 DUP2 ADD PUSH1 0x40 MSTORE DUP1 SWAP3 SWAP2 SWAP1 DUP2 DUP2 MSTORE PUSH1 0x20 ADD DUP3 DUP1 SLOAD PUSH2 0x91E SWAP1 PUSH2 0x1490 JUMP JUMPDEST DUP1 ISZERO PUSH2 0x969 JUMPI DUP1 PUSH1 0x1F LT PUSH2 0x940 JUMPI PUSH2 0x100 DUP1 DUP4 SLOAD DIV MUL DUP4 MSTORE SWAP2 PUSH1 0x20 ADD SWAP2 PUSH2 0x969 JUMP JUMPDEST DUP3 ADD SWAP2 SWAP1 PUSH0 MSTORE PUSH1 0x20 PUSH0 KECCAK256 SWAP1 JUMPDEST DUP2 SLOAD DUP2 MSTORE SWAP1 PUSH1 0x1 ADD SWAP1 PUSH1 0x20 ADD DUP1 DUP4 GT PUSH2 0x94C JUMPI DUP3 SWAP1 SUB PUSH1 0x1F AND DUP3 ADD SWAP2 JUMPDEST POP POP POP POP POP SWAP1 DUP1 PUSH1 0x3 ADD DUP1 SLOAD PUSH2 0x97E SWAP1 PUSH2 0x1490 JUMP JUMPDEST DUP1 PUSH1 0x1F ADD PUSH1 0x20 DUP1 SWAP2 DIV MUL PUSH1 0x20 ADD PUSH1 0x40 MLOAD SWAP1 DUP2 ADD PUSH1 0x40 MSTORE DUP1 SWAP3 SWAP2 SWAP1 DUP2 DUP2 MSTORE PUSH1 0x20 ADD DUP3 DUP1 SLOAD PUSH2 0x9AA SWAP1 PUSH2 0x1490 JUMP JUMPDEST DUP1 ISZERO PUSH2 0x9F5 JUMPI DUP1 PUSH1 0x1F LT PUSH2 0x9CC JUMPI PUSH2 0x100 DUP1 DUP4 SLOAD DIV MUL DUP4 MSTORE SWAP2 PUSH1 0x20 ADD SWAP2 PUSH2 0x9F5 JUMP JUMPDEST DUP3 ADD SWAP2 SWAP1 PUSH0 MSTORE PUSH1 0x20 PUSH0 KECCAK256 SWAP1 JUMPDEST DUP2 SLOAD DUP2 MSTORE SWAP1 PUSH1 0x1 ADD SWAP1 PUSH1 0x20 ADD DUP1 DUP4 GT PUSH2 0x9D8 JUMPI DUP3 SWAP1 SUB PUSH1 0x1F AND DUP3 ADD SWAP2 JUMPDEST POP POP POP POP PUSH1 0x4 DUP4 ADD SLOAD PUSH1 0x5 DUP5 ADD SLOAD PUSH1 0x6 SWAP1 SWAP5 ADD SLOAD SWAP3 SWAP4 SWAP1 SWAP3 SWAP1 SWAP2 POP PUSH1 0xFF AND DUP8 JUMP JUMPDEST PUSH1 0x1 SLOAD PUSH1 0x40 MLOAD PUSH4 0x935E01B PUSH1 0xE2 SHL DUP2 MSTORE ORIGIN PUSH1 0x4 DUP3 ADD MSTORE PUSH1 0x1 PUSH1 0x1 PUSH1 0xA0 SHL SUB SWAP1 SWAP2 AND SWAP1 PUSH4 0x24D7806C SWAP1 PUSH1 0x24 ADD PUSH1 0x20 PUSH1 0x40 MLOAD DUP1 DUP4 SUB DUP2 DUP7 GAS STATICCALL ISZERO DUP1 ISZERO PUSH2 0xA5C JUMPI RETURNDATASIZE PUSH0 PUSH0 RETURNDATACOPY RETURNDATASIZE PUSH0 REVERT JUMPDEST POP POP POP POP PUSH1 0x40 MLOAD RETURNDATASIZE PUSH1 0x1F NOT PUSH1 0x1F DUP3 ADD AND DUP3 ADD DUP1 PUSH1 0x40 MSTORE POP DUP2 ADD SWAP1 PUSH2 0xA80 SWAP2 SWAP1 PUSH2 0x15F6 JUMP JUMPDEST PUSH2 0xA9C JUMPI PUSH1 0x40 MLOAD PUSH3 0x461BCD PUSH1 0xE5 SHL DUP2 MSTORE PUSH1 0x4 ADD PUSH2 0x539 SWAP1 PUSH2 0x1615 JUMP JUMPDEST PUSH1 0x1 PUSH1 0x1 PUSH1 0xA0 SHL SUB DUP8 AND PUSH2 0xAEA JUMPI PUSH1 0x40 MLOAD PUSH3 0x461BCD PUSH1 0xE5 SHL DUP2 MSTORE PUSH1 0x20 PUSH1 0x4 DUP3 ADD MSTORE PUSH1 0x15 PUSH1 0x24 DUP3 ADD MSTORE PUSH21 0x496E76616C69642073746166662061646472657373 PUSH1 0x58 SHL PUSH1 0x44 DUP3 ADD MSTORE PUSH1 0x64 ADD PUSH2 0x539 JUMP JUMPDEST PUSH1 0x1 PUSH1 0x1 PUSH1 0xA0 SHL SUB DUP8 DUP2 AND PUSH0 SWAP1 DUP2 MSTORE PUSH1 0x2 PUSH1 0x20 MSTORE PUSH1 0x40 SWAP1 KECCAK256 SLOAD AND ISZERO PUSH2 0xB51 JUMPI PUSH1 0x40 MLOAD PUSH3 0x461BCD PUSH1 0xE5 SHL DUP2 MSTORE PUSH1 0x20 PUSH1 0x4 DUP3 ADD MSTORE PUSH1 0x1C PUSH1 0x24 DUP3 ADD MSTORE PUSH32 0x5374616666206164647265737320616C72656164792065786973747300000000 PUSH1 0x44 DUP3 ADD MSTORE PUSH1 0x64 ADD PUSH2 0x539 JUMP JUMPDEST PUSH1 0x40 MLOAD DUP1 PUSH1 0xE0 ADD PUSH1 0x40 MSTORE DUP1 DUP9 PUSH1 0x1 PUSH1 0x1 PUSH1 0xA0 SHL SUB AND DUP2 MSTORE PUSH1 0x20 ADD DUP8 DUP8 DUP1 DUP1 PUSH1 0x1F ADD PUSH1 0x20 DUP1 SWAP2 DIV MUL PUSH1 0x20 ADD PUSH1 0x40 MLOAD SWAP1 DUP2 ADD PUSH1 0x40 MSTORE DUP1 SWAP4 SWAP3 SWAP2 SWAP1 DUP2 DUP2 MSTORE PUSH1 0x20 ADD DUP4 DUP4 DUP1 DUP3 DUP5 CALLDATACOPY PUSH0 SWAP3 ADD SWAP2 SWAP1 SWAP2 MSTORE POP POP POP SWAP1 DUP3 MSTORE POP PUSH1 0x40 DUP1 MLOAD PUSH1 0x20 PUSH1 0x1F DUP9 ADD DUP2 SWAP1 DIV DUP2 MUL DUP3 ADD DUP2 ADD SWAP1 SWAP3 MSTORE DUP7 DUP2 MSTORE SWAP2 DUP2 ADD SWAP2 SWAP1 DUP8 SWAP1 DUP8 SWAP1 DUP2 SWAP1 DUP5 ADD DUP4 DUP3 DUP1 DUP3 DUP5 CALLDATACOPY PUSH0 SWAP3 ADD SWAP2 SWAP1 SWAP2 MSTORE POP POP POP SWAP1 DUP3 MSTORE POP PUSH1 0x40 DUP1 MLOAD PUSH1 0x20 PUSH1 0x1F DUP7 ADD DUP2 SWAP1 DIV DUP2 MUL DUP3 ADD DUP2 ADD SWAP1 SWAP3 MSTORE DUP5 DUP2 MSTORE SWAP2 DUP2 ADD SWAP2 SWAP1 DUP6 SWAP1 DUP6 SWAP1 DUP2 SWAP1 DUP5 ADD DUP4 DUP3 DUP1 DUP3 DUP5 CALLDATACOPY PUSH0 SWAP3 ADD DUP3 SWAP1 MSTORE POP SWAP4 DUP6 MSTORE POP POP POP PUSH1 0x20 DUP3 ADD DUP2 SWAP1 MSTORE PUSH1 0x40 DUP3 ADD DUP2 SWAP1 MSTORE PUSH1 0x60 SWAP1 SWAP2 ADD MSTORE PUSH1 0x1 PUSH1 0x1 PUSH1 0xA0 SHL SUB DUP9 DUP2 AND PUSH0 SWAP1 DUP2 MSTORE PUSH1 0x2 PUSH1 0x20 SWAP1 DUP2 MSTORE PUSH1 0x40 SWAP1 SWAP2 KECCAK256 DUP4 MLOAD DUP2 SLOAD PUSH1 0x1 PUSH1 0x1 PUSH1 0xA0 SHL SUB NOT AND SWAP4 AND SWAP3 SWAP1 SWAP3 OR DUP3 SSTORE DUP3 ADD MLOAD PUSH1 0x1 DUP3 ADD SWAP1 PUSH2 0xC6D SWAP1 DUP3 PUSH2 0x1640 JUMP JUMPDEST POP PUSH1 0x40 DUP3 ADD MLOAD PUSH1 0x2 DUP3 ADD SWAP1 PUSH2 0xC82 SWAP1 DUP3 PUSH2 0x1640 JUMP JUMPDEST POP PUSH1 0x60 DUP3 ADD MLOAD PUSH1 0x3 DUP3 ADD SWAP1 PUSH2 0xC97 SWAP1 DUP3 PUSH2 0x1640 JUMP JUMPDEST POP PUSH1 0x80 DUP3 ADD MLOAD PUSH1 0x4 DUP3 ADD SSTORE PUSH1 0xA0 DUP3 ADD MLOAD PUSH1 0x5 DUP3 ADD SSTORE PUSH1 0xC0 DUP3 ADD MLOAD PUSH1 0x6 DUP3 ADD DUP1 SLOAD PUSH1 0xFF NOT AND PUSH1 0x1 DUP4 DUP2 DUP2 GT ISZERO PUSH2 0xCCE JUMPI PUSH2 0xCCE PUSH2 0x1113 JUMP JUMPDEST MUL OR SWAP1 SSTORE POP SWAP1 POP POP DUP7 PUSH1 0x1 PUSH1 0x1 PUSH1 0xA0 SHL SUB AND PUSH32 0x3985FF4D998287FD60CA803C8CECCC30F94EDCC70957500AF9FCFD47F2F544C7 DUP8 DUP8 PUSH1 0x40 MLOAD PUSH2 0x5F0 SWAP3 SWAP2 SWAP1 PUSH2 0x15C8 JUMP JUMPDEST PUSH2 0xD19 PUSH2 0x1093 JUMP JUMPDEST PUSH1 0x1 PUSH1 0x1 PUSH1 0xA0 SHL SUB DUP1 DUP4 AND PUSH0 SWAP1 DUP2 MSTORE PUSH1 0x2 PUSH1 0x20 SWAP1 DUP2 MSTORE PUSH1 0x40 SWAP2 DUP3 SWAP1 KECCAK256 DUP3 MLOAD PUSH1 0xE0 DUP2 ADD SWAP1 SWAP4 MSTORE DUP1 SLOAD SWAP1 SWAP4 AND DUP3 MSTORE PUSH1 0x1 DUP4 ADD DUP1 SLOAD SWAP3 SWAP4 SWAP3 SWAP2 DUP5 ADD SWAP2 PUSH2 0xD5B SWAP1 PUSH2 0x1490 JUMP JUMPDEST DUP1 PUSH1 0x1F ADD PUSH1 0x20 DUP1 SWAP2 DIV MUL PUSH1 0x20 ADD PUSH1 0x40 MLOAD SWAP1 DUP2 ADD PUSH1 0x40 MSTORE DUP1 SWAP3 SWAP2 SWAP1 DUP2 DUP2 MSTORE PUSH1 0x20 ADD DUP3 DUP1 SLOAD PUSH2 0xD87 SWAP1 PUSH2 0x1490 JUMP JUMPDEST DUP1 ISZERO PUSH2 0xDD2 JUMPI DUP1 PUSH1 0x1F LT PUSH2 0xDA9 JUMPI PUSH2 0x100 DUP1 DUP4 SLOAD DIV MUL DUP4 MSTORE SWAP2 PUSH1 0x20 ADD SWAP2 PUSH2 0xDD2 JUMP JUMPDEST DUP3 ADD SWAP2 SWAP1 PUSH0 MSTORE PUSH1 0x20 PUSH0 KECCAK256 SWAP1 JUMPDEST DUP2 SLOAD DUP2 MSTORE SWAP1 PUSH1 0x1 ADD SWAP1 PUSH1 0x20 ADD DUP1 DUP4 GT PUSH2 0xDB5 JUMPI DUP3 SWAP1 SUB PUSH1 0x1F AND DUP3 ADD SWAP2 JUMPDEST POP POP POP POP POP DUP2 MSTORE PUSH1 0x20 ADD PUSH1 0x2 DUP3 ADD DUP1 SLOAD PUSH2 0xDEB SWAP1 PUSH2 0x1490 JUMP JUMPDEST DUP1 PUSH1 0x1F ADD PUSH1 0x20 DUP1 SWAP2 DIV MUL PUSH1 0x20 ADD PUSH1 0x40 MLOAD SWAP1 DUP2 ADD PUSH1 0x40 MSTORE DUP1 SWAP3 SWAP2 SWAP1 DUP2 DUP2 MSTORE PUSH1 0x20 ADD DUP3 DUP1 SLOAD PUSH2 0xE17 SWAP1 PUSH2 0x1490 JUMP JUMPDEST DUP1 ISZERO PUSH2 0xE62 JUMPI DUP1 PUSH1 0x1F LT PUSH2 0xE39 JUMPI PUSH2 0x100 DUP1 DUP4 SLOAD DIV MUL DUP4 MSTORE SWAP2 PUSH1 0x20 ADD SWAP2 PUSH2 0xE62 JUMP JUMPDEST DUP3 ADD SWAP2 SWAP1 PUSH0 MSTORE PUSH1 0x20 PUSH0 KECCAK256 SWAP1 JUMPDEST DUP2 SLOAD DUP2 MSTORE SWAP1 PUSH1 0x1 ADD SWAP1 PUSH1 0x20 ADD DUP1 DUP4 GT PUSH2 0xE45 JUMPI DUP3 SWAP1 SUB PUSH1 0x1F AND DUP3 ADD SWAP2 JUMPDEST POP POP POP POP POP DUP2 MSTORE PUSH1 0x20 ADD PUSH1 0x3 DUP3 ADD DUP1 SLOAD PUSH2 0xE7B SWAP1 PUSH2 0x1490 JUMP JUMPDEST DUP1 PUSH1 0x1F ADD PUSH1 0x20 DUP1 SWAP2 DIV MUL PUSH1 0x20 ADD PUSH1 0x40 MLOAD SWAP1 DUP2 ADD PUSH1 0x40 MSTORE DUP1 SWAP3 SWAP2 SWAP1 DUP2 DUP2 MSTORE PUSH1 0x20 ADD DUP3 DUP1 SLOAD PUSH2 0xEA7 SWAP1 PUSH2 0x1490 JUMP JUMPDEST DUP1 ISZERO PUSH2 0xEF2 JUMPI DUP1 PUSH1 0x1F LT PUSH2 0xEC9 JUMPI PUSH2 0x100 DUP1 DUP4 SLOAD DIV MUL DUP4 MSTORE SWAP2 PUSH1 0x20 ADD SWAP2 PUSH2 0xEF2 JUMP JUMPDEST DUP3 ADD SWAP2 SWAP1 PUSH0 MSTORE PUSH1 0x20 PUSH0 KECCAK256 SWAP1 JUMPDEST DUP2 SLOAD DUP2 MSTORE SWAP1 PUSH1 0x1 ADD SWAP1 PUSH1 0x20 ADD DUP1 DUP4 GT PUSH2 0xED5 JUMPI DUP3 SWAP1 SUB PUSH1 0x1F AND DUP3 ADD SWAP2 JUMPDEST POP POP POP SWAP2 DUP4 MSTORE POP POP PUSH1 0x4 DUP3 ADD SLOAD PUSH1 0x20 DUP3 ADD MSTORE PUSH1 0x5 DUP3 ADD SLOAD PUSH1 0x40 DUP3 ADD MSTORE PUSH1 0x6 DUP3 ADD SLOAD PUSH1 0x60 SWAP1 SWAP2 ADD SWAP1 PUSH1 0xFF AND PUSH1 0x1 DUP2 GT ISZERO PUSH2 0xF2D JUMPI PUSH2 0xF2D PUSH2 0x1113 JUMP JUMPDEST PUSH1 0x1 DUP2 GT ISZERO PUSH2 0xF3E JUMPI PUSH2 0xF3E PUSH2 0x1113 JUMP JUMPDEST SWAP1 MSTORE POP SWAP3 SWAP2 POP POP JUMP JUMPDEST PUSH1 0x1 SLOAD PUSH1 0x40 MLOAD PUSH4 0x935E01B PUSH1 0xE2 SHL DUP2 MSTORE ORIGIN PUSH1 0x4 DUP3 ADD MSTORE PUSH1 0x1 PUSH1 0x1 PUSH1 0xA0 SHL SUB SWAP1 SWAP2 AND SWAP1 PUSH4 0x24D7806C SWAP1 PUSH1 0x24 ADD PUSH1 0x20 PUSH1 0x40 MLOAD DUP1 DUP4 SUB DUP2 DUP7 GAS STATICCALL ISZERO DUP1 ISZERO PUSH2 0xF8D JUMPI RETURNDATASIZE PUSH0 PUSH0 RETURNDATACOPY RETURNDATASIZE PUSH0 REVERT JUMPDEST POP POP POP POP PUSH1 0x40 MLOAD RETURNDATASIZE PUSH1 0x1F NOT PUSH1 0x1F DUP3 ADD AND DUP3 ADD DUP1 PUSH1 0x40 MSTORE POP DUP2 ADD SWAP1 PUSH2 0xFB1 SWAP2 SWAP1 PUSH2 0x15F6 JUMP JUMPDEST PUSH2 0xFCD JUMPI PUSH1 0x40 MLOAD PUSH3 0x461BCD PUSH1 0xE5 SHL DUP2 MSTORE PUSH1 0x4 ADD PUSH2 0x539 SWAP1 PUSH2 0x1615 JUMP JUMPDEST PUSH1 0x1 PUSH1 0x1 PUSH1 0xA0 SHL SUB DUP4 DUP2 AND PUSH0 SWAP1 DUP2 MSTORE PUSH1 0x2 PUSH1 0x20 MSTORE PUSH1 0x40 SWAP1 KECCAK256 SLOAD AND PUSH2 0x102A JUMPI PUSH1 0x40 MLOAD PUSH3 0x461BCD PUSH1 0xE5 SHL DUP2 MSTORE PUSH1 0x20 PUSH1 0x4 DUP3 ADD MSTORE PUSH1 0x14 PUSH1 0x24 DUP3 ADD MSTORE PUSH20 0x14DD18599988191BD95CC81B9BDD08195E1A5CDD PUSH1 0x62 SHL PUSH1 0x44 DUP3 ADD MSTORE PUSH1 0x64 ADD PUSH2 0x539 JUMP JUMPDEST PUSH1 0x1 PUSH1 0x1 PUSH1 0xA0 SHL SUB DUP4 AND PUSH0 DUP2 DUP2 MSTORE PUSH1 0x2 PUSH1 0x20 SWAP1 DUP2 MSTORE PUSH1 0x40 SWAP2 DUP3 SWAP1 KECCAK256 PUSH1 0x4 DUP2 ADD DUP7 SWAP1 SSTORE PUSH1 0x5 ADD DUP5 SWAP1 SSTORE DUP2 MLOAD SWAP3 DUP4 MSTORE DUP3 ADD DUP5 SWAP1 MSTORE DUP2 ADD DUP3 SWAP1 MSTORE PUSH32 0x4287FC91E372E2C0C4FD45ACA88C869F59DAD9163B11B71DC130BFC4CD4E8506 SWAP1 PUSH1 0x60 ADD PUSH1 0x40 MLOAD DUP1 SWAP2 SUB SWAP1 LOG1 POP POP POP JUMP JUMPDEST PUSH1 0x40 MLOAD DUP1 PUSH1 0xE0 ADD PUSH1 0x40 MSTORE DUP1 PUSH0 PUSH1 0x1 PUSH1 0x1 PUSH1 0xA0 SHL SUB AND DUP2 MSTORE PUSH1 0x20 ADD PUSH1 0x60 DUP2 MSTORE PUSH1 0x20 ADD PUSH1 0x60 DUP2 MSTORE PUSH1 0x20 ADD PUSH1 0x60 DUP2 MSTORE PUSH1 0x20 ADD PUSH0 DUP2 MSTORE PUSH1 0x20 ADD PUSH0 DUP2 MSTORE PUSH1 0x20 ADD PUSH0 PUSH1 0x1 DUP2 GT ISZERO PUSH2 0x10E0 JUMPI PUSH2 0x10E0 PUSH2 0x1113 JUMP JUMPDEST SWAP1 MSTORE SWAP1 JUMP JUMPDEST PUSH0 DUP2 MLOAD DUP1 DUP5 MSTORE DUP1 PUSH1 0x20 DUP5 ADD PUSH1 0x20 DUP7 ADD MCOPY PUSH0 PUSH1 0x20 DUP3 DUP7 ADD ADD MSTORE PUSH1 0x20 PUSH1 0x1F NOT PUSH1 0x1F DUP4 ADD AND DUP6 ADD ADD SWAP2 POP POP SWAP3 SWAP2 POP POP JUMP JUMPDEST PUSH4 0x4E487B71 PUSH1 0xE0 SHL PUSH0 MSTORE PUSH1 0x21 PUSH1 0x4 MSTORE PUSH1 0x24 PUSH0 REVERT JUMPDEST PUSH1 0x2 DUP2 LT PUSH2 0x1143 JUMPI PUSH4 0x4E487B71 PUSH1 0xE0 SHL PUSH0 MSTORE PUSH1 0x21 PUSH1 0x4 MSTORE PUSH1 0x24 PUSH0 REVERT JUMPDEST SWAP1 MSTORE JUMP JUMPDEST PUSH1 0x1 DUP1 PUSH1 0xA0 SHL SUB DUP2 MLOAD AND DUP3 MSTORE PUSH0 PUSH1 0x20 DUP3 ADD MLOAD PUSH1 0xE0 PUSH1 0x20 DUP6 ADD MSTORE PUSH2 0x116D PUSH1 0xE0 DUP6 ADD DUP3 PUSH2 0x10E5 JUMP JUMPDEST SWAP1 POP PUSH1 0x40 DUP4 ADD MLOAD DUP5 DUP3 SUB PUSH1 0x40 DUP7 ADD MSTORE PUSH2 0x1186 DUP3 DUP3 PUSH2 0x10E5 JUMP JUMPDEST SWAP2 POP POP PUSH1 0x60 DUP4 ADD MLOAD DUP5 DUP3 SUB PUSH1 0x60 DUP7 ADD MSTORE PUSH2 0x11A0 DUP3 DUP3 PUSH2 0x10E5 JUMP JUMPDEST SWAP2 POP POP PUSH1 0x80 DUP4 ADD MLOAD PUSH1 0x80 DUP6 ADD MSTORE PUSH1 0xA0 DUP4 ADD MLOAD PUSH1 0xA0 DUP6 ADD MSTORE PUSH1 0xC0 DUP4 ADD MLOAD PUSH2 0x11C9 PUSH1 0xC0 DUP7 ADD DUP3 PUSH2 0x1127 JUMP JUMPDEST POP SWAP4 SWAP3 POP POP POP JUMP JUMPDEST PUSH0 PUSH1 0x20 DUP3 ADD PUSH1 0x20 DUP4 MSTORE DUP1 DUP5 MLOAD DUP1 DUP4 MSTORE PUSH1 0x40 DUP6 ADD SWAP2 POP PUSH1 0x40 DUP2 PUSH1 0x5 SHL DUP7 ADD ADD SWAP3 POP PUSH1 0x20 DUP7 ADD PUSH0 JUMPDEST DUP3 DUP2 LT ISZERO PUSH2 0x1228 JUMPI PUSH1 0x3F NOT DUP8 DUP7 SUB ADD DUP5 MSTORE PUSH2 0x1213 DUP6 DUP4 MLOAD PUSH2 0x1147 JUMP JUMPDEST SWAP5 POP PUSH1 0x20 SWAP4 DUP5 ADD SWAP4 SWAP2 SWAP1 SWAP2 ADD SWAP1 PUSH1 0x1 ADD PUSH2 0x11F7 JUMP JUMPDEST POP SWAP3 SWAP7 SWAP6 POP POP POP POP POP POP JUMP JUMPDEST DUP1 CALLDATALOAD PUSH1 0x1 PUSH1 0x1 PUSH1 0xA0 SHL SUB DUP2 AND DUP2 EQ PUSH2 0x124A JUMPI PUSH0 PUSH0 REVERT JUMPDEST SWAP2 SWAP1 POP JUMP JUMPDEST PUSH0 PUSH0 PUSH1 0x40 DUP4 DUP6 SUB SLT ISZERO PUSH2 0x1260 JUMPI PUSH0 PUSH0 REVERT JUMPDEST PUSH2 0x1269 DUP4 PUSH2 0x1234 JUMP JUMPDEST SWAP5 PUSH1 0x20 SWAP4 SWAP1 SWAP4 ADD CALLDATALOAD SWAP4 POP POP POP JUMP JUMPDEST PUSH0 PUSH0 DUP4 PUSH1 0x1F DUP5 ADD SLT PUSH2 0x1287 JUMPI PUSH0 PUSH0 REVERT JUMPDEST POP DUP2 CALLDATALOAD PUSH8 0xFFFFFFFFFFFFFFFF DUP2 GT ISZERO PUSH2 0x129E JUMPI PUSH0 PUSH0 REVERT JUMPDEST PUSH1 0x20 DUP4 ADD SWAP2 POP DUP4 PUSH1 0x20 DUP3 DUP6 ADD ADD GT ISZERO PUSH2 0x12B5 JUMPI PUSH0 PUSH0 REVERT JUMPDEST SWAP3 POP SWAP3 SWAP1 POP JUMP JUMPDEST PUSH0 PUSH0 PUSH0 PUSH0 PUSH0 PUSH0 PUSH0 PUSH1 0x80 DUP9 DUP11 SUB SLT ISZERO PUSH2 0x12D2 JUMPI PUSH0 PUSH0 REVERT JUMPDEST PUSH2 0x12DB DUP9 PUSH2 0x1234 JUMP JUMPDEST SWAP7 POP PUSH1 0x20 DUP9 ADD CALLDATALOAD PUSH8 0xFFFFFFFFFFFFFFFF DUP2 GT ISZERO PUSH2 0x12F6 JUMPI PUSH0 PUSH0 REVERT JUMPDEST PUSH2 0x1302 DUP11 DUP3 DUP12 ADD PUSH2 0x1277 JUMP JUMPDEST SWAP1 SWAP8 POP SWAP6 POP POP PUSH1 0x40 DUP9 ADD CALLDATALOAD PUSH8 0xFFFFFFFFFFFFFFFF DUP2 GT ISZERO PUSH2 0x1321 JUMPI PUSH0 PUSH0 REVERT JUMPDEST PUSH2 0x132D DUP11 DUP3 DUP12 ADD PUSH2 0x1277 JUMP JUMPDEST SWAP1 SWAP6 POP SWAP4 POP POP PUSH1 0x60 DUP9 ADD CALLDATALOAD PUSH8 0xFFFFFFFFFFFFFFFF DUP2 GT ISZERO PUSH2 0x134C JUMPI PUSH0 PUSH0 REVERT JUMPDEST PUSH2 0x1358 DUP11 DUP3 DUP12 ADD PUSH2 0x1277 JUMP JUMPDEST SWAP9 SWAP12 SWAP8 SWAP11 POP SWAP6 SWAP9 POP SWAP4 SWAP7 SWAP3 SWAP6 SWAP3 SWAP4 POP POP POP JUMP JUMPDEST PUSH0 PUSH0 PUSH1 0x40 DUP4 DUP6 SUB SLT ISZERO PUSH2 0x137C JUMPI PUSH0 PUSH0 REVERT JUMPDEST DUP3 CALLDATALOAD SWAP2 POP PUSH2 0x138C PUSH1 0x20 DUP5 ADD PUSH2 0x1234 JUMP JUMPDEST SWAP1 POP SWAP3 POP SWAP3 SWAP1 POP JUMP JUMPDEST PUSH0 PUSH1 0x20 DUP3 DUP5 SUB SLT ISZERO PUSH2 0x13A5 JUMPI PUSH0 PUSH0 REVERT JUMPDEST PUSH2 0x13AE DUP3 PUSH2 0x1234 JUMP JUMPDEST SWAP4 SWAP3 POP POP POP JUMP JUMPDEST PUSH1 0x1 PUSH1 0x1 PUSH1 0xA0 SHL SUB DUP9 AND DUP2 MSTORE PUSH1 0xE0 PUSH1 0x20 DUP3 ADD DUP2 SWAP1 MSTORE PUSH0 SWAP1 PUSH2 0x13D8 SWAP1 DUP4 ADD DUP10 PUSH2 0x10E5 JUMP JUMPDEST DUP3 DUP2 SUB PUSH1 0x40 DUP5 ADD MSTORE PUSH2 0x13EA DUP2 DUP10 PUSH2 0x10E5 JUMP JUMPDEST SWAP1 POP DUP3 DUP2 SUB PUSH1 0x60 DUP5 ADD MSTORE PUSH2 0x13FE DUP2 DUP9 PUSH2 0x10E5 JUMP JUMPDEST SWAP2 POP POP DUP5 PUSH1 0x80 DUP4 ADD MSTORE DUP4 PUSH1 0xA0 DUP4 ADD MSTORE PUSH2 0x141A PUSH1 0xC0 DUP4 ADD DUP5 PUSH2 0x1127 JUMP JUMPDEST SWAP9 SWAP8 POP POP POP POP POP POP POP POP JUMP JUMPDEST PUSH1 0x20 DUP2 MSTORE PUSH0 PUSH2 0x13AE PUSH1 0x20 DUP4 ADD DUP5 PUSH2 0x1147 JUMP JUMPDEST PUSH0 PUSH0 PUSH0 PUSH1 0x60 DUP5 DUP7 SUB SLT ISZERO PUSH2 0x144A JUMPI PUSH0 PUSH0 REVERT JUMPDEST PUSH2 0x1453 DUP5 PUSH2 0x1234 JUMP JUMPDEST SWAP6 PUSH1 0x20 DUP6 ADD CALLDATALOAD SWAP6 POP PUSH1 0x40 SWAP1 SWAP5 ADD CALLDATALOAD SWAP4 SWAP3 POP POP POP JUMP JUMPDEST PUSH4 0x4E487B71 PUSH1 0xE0 SHL PUSH0 MSTORE PUSH1 0x41 PUSH1 0x4 MSTORE PUSH1 0x24 PUSH0 REVERT JUMPDEST PUSH4 0x4E487B71 PUSH1 0xE0 SHL PUSH0 MSTORE PUSH1 0x32 PUSH1 0x4 MSTORE PUSH1 0x24 PUSH0 REVERT JUMPDEST PUSH1 0x1 DUP2 DUP2 SHR SWAP1 DUP3 AND DUP1 PUSH2 0x14A4 JUMPI PUSH1 0x7F DUP3 AND SWAP2 POP JUMPDEST PUSH1 0x20 DUP3 LT DUP2 SUB PUSH2 0x4A6 JUMPI PUSH4 0x4E487B71 PUSH1 0xE0 SHL PUSH0 MSTORE PUSH1 0x22 PUSH1 0x4 MSTORE PUSH1 0x24 PUSH0 REVERT JUMPDEST PUSH1 0x1F DUP3 GT ISZERO PUSH2 0x1509 JUMPI DUP1 PUSH0 MSTORE PUSH1 0x20 PUSH0 KECCAK256 PUSH1 0x1F DUP5 ADD PUSH1 0x5 SHR DUP2 ADD PUSH1 0x20 DUP6 LT ISZERO PUSH2 0x14E7 JUMPI POP DUP1 JUMPDEST PUSH1 0x1F DUP5 ADD PUSH1 0x5 SHR DUP3 ADD SWAP2 POP JUMPDEST DUP2 DUP2 LT ISZERO PUSH2 0x1506 JUMPI PUSH0 DUP2 SSTORE PUSH1 0x1 ADD PUSH2 0x14F3 JUMP JUMPDEST POP POP JUMPDEST POP POP POP JUMP JUMPDEST PUSH8 0xFFFFFFFFFFFFFFFF DUP4 GT ISZERO PUSH2 0x1526 JUMPI PUSH2 0x1526 PUSH2 0x1468 JUMP JUMPDEST PUSH2 0x153A DUP4 PUSH2 0x1534 DUP4 SLOAD PUSH2 0x1490 JUMP JUMPDEST DUP4 PUSH2 0x14C2 JUMP JUMPDEST PUSH0 PUSH1 0x1F DUP5 GT PUSH1 0x1 DUP2 EQ PUSH2 0x156B JUMPI PUSH0 DUP6 ISZERO PUSH2 0x1554 JUMPI POP DUP4 DUP3 ADD CALLDATALOAD JUMPDEST PUSH0 NOT PUSH1 0x3 DUP8 SWAP1 SHL SHR NOT AND PUSH1 0x1 DUP7 SWAP1 SHL OR DUP4 SSTORE PUSH2 0x1506 JUMP JUMPDEST PUSH0 DUP4 DUP2 MSTORE PUSH1 0x20 DUP2 KECCAK256 PUSH1 0x1F NOT DUP8 AND SWAP2 JUMPDEST DUP3 DUP2 LT ISZERO PUSH2 0x159A JUMPI DUP7 DUP6 ADD CALLDATALOAD DUP3 SSTORE PUSH1 0x20 SWAP5 DUP6 ADD SWAP5 PUSH1 0x1 SWAP1 SWAP3 ADD SWAP2 ADD PUSH2 0x157A JUMP JUMPDEST POP DUP7 DUP3 LT ISZERO PUSH2 0x15B6 JUMPI PUSH0 NOT PUSH1 0xF8 DUP9 PUSH1 0x3 SHL AND SHR NOT DUP5 DUP8 ADD CALLDATALOAD AND DUP2 SSTORE JUMPDEST POP POP PUSH1 0x1 DUP6 PUSH1 0x1 SHL ADD DUP4 SSTORE POP POP POP POP POP JUMP JUMPDEST PUSH1 0x20 DUP2 MSTORE DUP2 PUSH1 0x20 DUP3 ADD MSTORE DUP2 DUP4 PUSH1 0x40 DUP4 ADD CALLDATACOPY PUSH0 DUP2 DUP4 ADD PUSH1 0x40 SWAP1 DUP2 ADD SWAP2 SWAP1 SWAP2 MSTORE PUSH1 0x1F SWAP1 SWAP3 ADD PUSH1 0x1F NOT AND ADD ADD SWAP2 SWAP1 POP JUMP JUMPDEST PUSH0 PUSH1 0x20 DUP3 DUP5 SUB SLT ISZERO PUSH2 0x1606 JUMPI PUSH0 PUSH0 REVERT JUMPDEST DUP2 MLOAD DUP1 ISZERO ISZERO DUP2 EQ PUSH2 0x13AE JUMPI PUSH0 PUSH0 REVERT JUMPDEST PUSH1 0x20 DUP1 DUP3 MSTORE PUSH1 0x11 SWAP1 DUP3 ADD MSTORE PUSH17 0x2CB7BA9030B932903737BA1030B236B4B7 PUSH1 0x79 SHL PUSH1 0x40 DUP3 ADD MSTORE PUSH1 0x60 ADD SWAP1 JUMP JUMPDEST DUP2 MLOAD PUSH8 0xFFFFFFFFFFFFFFFF DUP2 GT ISZERO PUSH2 0x165A JUMPI PUSH2 0x165A PUSH2 0x1468 JUMP JUMPDEST PUSH2 0x166E DUP2 PUSH2 0x1668 DUP5 SLOAD PUSH2 0x1490 JUMP JUMPDEST DUP5 PUSH2 0x14C2 JUMP JUMPDEST PUSH1 0x20 PUSH1 0x1F DUP3 GT PUSH1 0x1 DUP2 EQ PUSH2 0x16A0 JUMPI PUSH0 DUP4 ISZERO PUSH2 0x1689 JUMPI POP DUP5 DUP3 ADD MLOAD JUMPDEST PUSH0 NOT PUSH1 0x3 DUP6 SWAP1 SHL SHR NOT AND PUSH1 0x1 DUP5 SWAP1 SHL OR DUP5 SSTORE PUSH2 0x1506 JUMP JUMPDEST PUSH0 DUP5 DUP2 MSTORE PUSH1 0x20 DUP2 KECCAK256 PUSH1 0x1F NOT DUP6 AND SWAP2 JUMPDEST DUP3 DUP2 LT ISZERO PUSH2 0x16CF JUMPI DUP8 DUP6 ADD MLOAD DUP3 SSTORE PUSH1 0x20 SWAP5 DUP6 ADD SWAP5 PUSH1 0x1 SWAP1 SWAP3 ADD SWAP2 ADD PUSH2 0x16AF JUMP JUMPDEST POP DUP5 DUP3 LT ISZERO PUSH2 0x16EC JUMPI DUP7 DUP5 ADD MLOAD PUSH0 NOT PUSH1 0x3 DUP8 SWAP1 SHL PUSH1 0xF8 AND SHR NOT AND DUP2 SSTORE JUMPDEST POP POP POP POP PUSH1 0x1 SWAP1 DUP2 SHL ADD SWAP1 SSTORE POP JUMP INVALID LOG2 PUSH5 0x6970667358 0x22 SLT KECCAK256 0xD4 0xD0 SWAP4 DUP6 SGT 0xC4 SDIV CALLCODE 0xC4 CALLDATACOPY PC 0xB7 PUSH12 0x2596801321584D4CC331180 0xD6 STATICCALL 0x22 DUP13 MSIZE 0xDB 0xBA PUSH5 0x736F6C6343 STOP ADDMOD 0x1E STOP CALLER "
				},
				"gasEstimates": {
					"creation": {
						"codeDepositCost": "1187400",
						"executionCost": "infinite",
						"totalCost": "infinite"
					},
					"external": {
						"addRaingWhenOrderSuccess(address,uint256)": "49085",
						"addStaff(address,string,string,string)": "infinite",
						"addStaffToOrder(uint256,address)": "infinite",
						"getAllStaffs()": "infinite",
						"getStaff(address)": "infinite",
						"orderManager()": "2445",
						"roleAccess()": "2381",
						"staffInOrder(address,uint256)": "4759",
						"staffs(address)": "infinite",
						"updateRatingStaff(address,uint256,uint256)": "infinite",
						"updateStaffInfo(address,string,string,string)": "infinite"
					}
				},
				"methodIdentifiers": {
					"addRaingWhenOrderSuccess(address,uint256)": "ab1ca44c",
					"addStaff(address,string,string,string)": "dcad55c0",
					"addStaffToOrder(uint256,address)": "abf5e836",
					"getAllStaffs()": "037c73c2",
					"getStaff(address)": "ddd79504",
					"orderManager()": "f9b6117f",
					"roleAccess()": "42f54b89",
					"staffInOrder(address,uint256)": "3e5bde70",
					"staffs(address)": "b7ee0adc",
					"updateRatingStaff(address,uint256,uint256)": "e0e8086b",
					"updateStaffInfo(address,string,string,string)": "5be5fd39"
				}
			},
			"storageLayout": {
				"storage": [
					{
						"astId": 308,
						"contract": "contracts/manager/StaffManager.sol:StaffManagement",
						"label": "orderManager",
						"offset": 0,
						"slot": "0",
						"type": "t_contract(IOrderManager)208"
					},
					{
						"astId": 311,
						"contract": "contracts/manager/StaffManager.sol:StaffManagement",
						"label": "roleAccess",
						"offset": 0,
						"slot": "1",
						"type": "t_contract(RoleAccess)98"
					},
					{
						"astId": 316,
						"contract": "contracts/manager/StaffManager.sol:StaffManagement",
						"label": "staffs",
						"offset": 0,
						"slot": "2",
						"type": "t_mapping(t_address,t_struct(Staff)726_storage)"
					},
					{
						"astId": 319,
						"contract": "contracts/manager/StaffManager.sol:StaffManagement",
						"label": "staffAddresses",
						"offset": 0,
						"slot": "3",
						"type": "t_array(t_address)dyn_storage"
					},
					{
						"astId": 324,
						"contract": "contracts/manager/StaffManager.sol:StaffManagement",
						"label": "staffInOrder",
						"offset": 0,
						"slot": "4",
						"type": "t_mapping(t_address,t_array(t_uint256)dyn_storage)"
					}
				],
				"types": {
					"t_address": {
						"encoding": "inplace",
						"label": "address",
						"numberOfBytes": "20"
					},
					"t_array(t_address)dyn_storage": {
						"base": "t_address",
						"encoding": "dynamic_array",
						"label": "address[]",
						"numberOfBytes": "32"
					},
					"t_array(t_uint256)dyn_storage": {
						"base": "t_uint256",
						"encoding": "dynamic_array",
						"label": "uint256[]",
						"numberOfBytes": "32"
					},
					"t_contract(IOrderManager)208": {
						"encoding": "inplace",
						"label": "contract IOrderManager",
						"numberOfBytes": "20"
					},
					"t_contract(RoleAccess)98": {
						"encoding": "inplace",
						"label": "contract RoleAccess",
						"numberOfBytes": "20"
					},
					"t_enum(StaffStatus)710": {
						"encoding": "inplace",
						"label": "enum StaffStatus",
						"numberOfBytes": "1"
					},
					"t_mapping(t_address,t_array(t_uint256)dyn_storage)": {
						"encoding": "mapping",
						"key": "t_address",
						"label": "mapping(address => uint256[])",
						"numberOfBytes": "32",
						"value": "t_array(t_uint256)dyn_storage"
					},
					"t_mapping(t_address,t_struct(Staff)726_storage)": {
						"encoding": "mapping",
						"key": "t_address",
						"label": "mapping(address => struct Staff)",
						"numberOfBytes": "32",
						"value": "t_struct(Staff)726_storage"
					},
					"t_string_storage": {
						"encoding": "bytes",
						"label": "string",
						"numberOfBytes": "32"
					},
					"t_struct(Staff)726_storage": {
						"encoding": "inplace",
						"label": "struct Staff",
						"members": [
							{
								"astId": 712,
								"contract": "contracts/manager/StaffManager.sol:StaffManagement",
								"label": "staffAddress",
								"offset": 0,
								"slot": "0",
								"type": "t_address"
							},
							{
								"astId": 714,
								"contract": "contracts/manager/StaffManager.sol:StaffManagement",
								"label": "name",
								"offset": 0,
								"slot": "1",
								"type": "t_string_storage"
							},
							{
								"astId": 716,
								"contract": "contracts/manager/StaffManager.sol:StaffManagement",
								"label": "dob",
								"offset": 0,
								"slot": "2",
								"type": "t_string_storage"
							},
							{
								"astId": 718,
								"contract": "contracts/manager/StaffManager.sol:StaffManagement",
								"label": "phone",
								"offset": 0,
								"slot": "3",
								"type": "t_string_storage"
							},
							{
								"astId": 720,
								"contract": "contracts/manager/StaffManager.sol:StaffManagement",
								"label": "sumRating",
								"offset": 0,
								"slot": "4",
								"type": "t_uint256"
							},
							{
								"astId": 722,
								"contract": "contracts/manager/StaffManager.sol:StaffManagement",
								"label": "countRating",
								"offset": 0,
								"slot": "5",
								"type": "t_uint256"
							},
							{
								"astId": 725,
								"contract": "contracts/manager/StaffManager.sol:StaffManagement",
								"label": "status",
								"offset": 0,
								"slot": "6",
								"type": "t_enum(StaffStatus)710"
							}
						],
						"numberOfBytes": "224"
					},
					"t_uint256": {
						"encoding": "inplace",
						"label": "uint256",
						"numberOfBytes": "32"
					}
				}
			},
			"userdoc": {
				"kind": "user",
				"methods": {},
				"version": 1
			}
		}
	}
}