{
	"contracts/manager/FoodManager.sol": {
		"FoodManager": {
			"abi": [
				{
					"anonymous": false,
					"inputs": [
						{
							"indexed": false,
							"internalType": "uint256",
							"name": "foodId",
							"type": "uint256"
						},
						{
							"indexed": false,
							"internalType": "string",
							"name": "name",
							"type": "string"
						},
						{
							"indexed": false,
							"internalType": "string",
							"name": "description",
							"type": "string"
						},
						{
							"indexed": false,
							"internalType": "uint256",
							"name": "categoryId",
							"type": "uint256"
						},
						{
							"indexed": false,
							"internalType": "string",
							"name": "imageUrl",
							"type": "string"
						}
					],
					"name": "FoodCreated",
					"type": "event"
				},
				{
					"inputs": [
						{
							"internalType": "address",
							"name": "_admin",
							"type": "address"
						}
					],
					"name": "addAdmin",
					"outputs": [],
					"stateMutability": "nonpayable",
					"type": "function"
				},
				{
					"inputs": [
						{
							"internalType": "uint256",
							"name": "foodId",
							"type": "uint256"
						},
						{
							"components": [
								{
									"internalType": "uint256",
									"name": "foodDetailId",
									"type": "uint256"
								},
								{
									"internalType": "string",
									"name": "size",
									"type": "string"
								},
								{
									"internalType": "uint256",
									"name": "quantity",
									"type": "uint256"
								},
								{
									"internalType": "uint256",
									"name": "price",
									"type": "uint256"
								}
							],
							"internalType": "struct FoodDetail[]",
							"name": "details",
							"type": "tuple[]"
						}
					],
					"name": "addFoodDetails",
					"outputs": [],
					"stateMutability": "nonpayable",
					"type": "function"
				},
				{
					"inputs": [
						{
							"internalType": "uint256",
							"name": "_foodId",
							"type": "uint256"
						},
						{
							"internalType": "string",
							"name": "_name",
							"type": "string"
						},
						{
							"internalType": "string",
							"name": "_description",
							"type": "string"
						},
						{
							"internalType": "uint256",
							"name": "_categoryId",
							"type": "uint256"
						},
						{
							"internalType": "string",
							"name": "_imageUrl",
							"type": "string"
						},
						{
							"components": [
								{
									"internalType": "uint256",
									"name": "foodDetailId",
									"type": "uint256"
								},
								{
									"internalType": "string",
									"name": "size",
									"type": "string"
								},
								{
									"internalType": "uint256",
									"name": "quantity",
									"type": "uint256"
								},
								{
									"internalType": "uint256",
									"name": "price",
									"type": "uint256"
								}
							],
							"internalType": "struct FoodDetail[]",
							"name": "_foodDetail",
							"type": "tuple[]"
						}
					],
					"name": "createFood",
					"outputs": [],
					"stateMutability": "nonpayable",
					"type": "function"
				},
				{
					"inputs": [],
					"name": "getAllFoods",
					"outputs": [
						{
							"components": [
								{
									"components": [
										{
											"internalType": "uint256",
											"name": "foodId",
											"type": "uint256"
										},
										{
											"internalType": "string",
											"name": "name",
											"type": "string"
										},
										{
											"internalType": "string",
											"name": "description",
											"type": "string"
										},
										{
											"internalType": "uint256",
											"name": "categoryId",
											"type": "uint256"
										},
										{
											"internalType": "string",
											"name": "imageUrl",
											"type": "string"
										}
									],
									"internalType": "struct Food",
									"name": "food",
									"type": "tuple"
								},
								{
									"components": [
										{
											"internalType": "uint256",
											"name": "foodDetailId",
											"type": "uint256"
										},
										{
											"internalType": "string",
											"name": "size",
											"type": "string"
										},
										{
											"internalType": "uint256",
											"name": "quantity",
											"type": "uint256"
										},
										{
											"internalType": "uint256",
											"name": "price",
											"type": "uint256"
										}
									],
									"internalType": "struct FoodDetail[]",
									"name": "foodDetails",
									"type": "tuple[]"
								}
							],
							"internalType": "struct FoodWithDetails[]",
							"name": "",
							"type": "tuple[]"
						}
					],
					"stateMutability": "view",
					"type": "function"
				},
				{
					"inputs": [
						{
							"internalType": "uint256",
							"name": "foodId",
							"type": "uint256"
						}
					],
					"name": "getFood",
					"outputs": [
						{
							"components": [
								{
									"internalType": "uint256",
									"name": "foodId",
									"type": "uint256"
								},
								{
									"internalType": "string",
									"name": "name",
									"type": "string"
								},
								{
									"internalType": "string",
									"name": "description",
									"type": "string"
								},
								{
									"internalType": "uint256",
									"name": "categoryId",
									"type": "uint256"
								},
								{
									"internalType": "string",
									"name": "imageUrl",
									"type": "string"
								}
							],
							"internalType": "struct Food",
							"name": "",
							"type": "tuple"
						}
					],
					"stateMutability": "view",
					"type": "function"
				},
				{
					"inputs": [
						{
							"internalType": "uint256",
							"name": "foodId",
							"type": "uint256"
						}
					],
					"name": "getFoodDetails",
					"outputs": [
						{
							"components": [
								{
									"internalType": "uint256",
									"name": "foodDetailId",
									"type": "uint256"
								},
								{
									"internalType": "string",
									"name": "size",
									"type": "string"
								},
								{
									"internalType": "uint256",
									"name": "quantity",
									"type": "uint256"
								},
								{
									"internalType": "uint256",
									"name": "price",
									"type": "uint256"
								}
							],
							"internalType": "struct FoodDetail[]",
							"name": "",
							"type": "tuple[]"
						}
					],
					"stateMutability": "view",
					"type": "function"
				},
				{
					"inputs": [
						{
							"internalType": "address",
							"name": "",
							"type": "address"
						}
					],
					"name": "isAdmin",
					"outputs": [
						{
							"internalType": "bool",
							"name": "",
							"type": "bool"
						}
					],
					"stateMutability": "view",
					"type": "function"
				},
				{
					"inputs": [],
					"name": "nextFoodId",
					"outputs": [
						{
							"internalType": "uint256",
							"name": "",
							"type": "uint256"
						}
					],
					"stateMutability": "view",
					"type": "function"
				},
				{
					"inputs": [
						{
							"internalType": "address",
							"name": "_admin",
							"type": "address"
						}
					],
					"name": "removeAdmin",
					"outputs": [],
					"stateMutability": "nonpayable",
					"type": "function"
				}
			],
			"devdoc": {
				"kind": "dev",
				"methods": {},
				"version": 1
			},
			"evm": {
				"assembly": "    /* \"contracts/manager/FoodManager.sol\":177:2701  contract FoodManager is IFoodManager, RoleManager {... */\n  mstore(0x40, 0x80)\n    /* \"contracts/manager/FoodManager.sol\":259:260  1 */\n  0x01\n    /* \"contracts/manager/FoodManager.sol\":234:260  uint public nextFoodId = 1 */\n  dup1\n  sstore\n    /* \"contracts/manager/FoodManager.sol\":177:2701  contract FoodManager is IFoodManager, RoleManager {... */\n  callvalue\n  dup1\n  iszero\n  tag_1\n  jumpi\n  revert(0x00, 0x00)\ntag_1:\n  pop\n  dataSize(sub_0)\n  dup1\n  dataOffset(sub_0)\n  0x00\n  codecopy\n  0x00\n  return\nstop\n\nsub_0: assembly {\n        /* \"contracts/manager/FoodManager.sol\":177:2701  contract FoodManager is IFoodManager, RoleManager {... */\n      mstore(0x40, 0x80)\n      callvalue\n      dup1\n      iszero\n      tag_1\n      jumpi\n      revert(0x00, 0x00)\n    tag_1:\n      pop\n      jumpi(tag_2, lt(calldatasize, 0x04))\n      shr(0xe0, calldataload(0x00))\n      dup1\n      0x70480275\n      gt\n      tag_12\n      jumpi\n      dup1\n      0x70480275\n      eq\n      tag_7\n      jumpi\n      dup1\n      0x86e7f104\n      eq\n      tag_8\n      jumpi\n      dup1\n      0xaf5607f9\n      eq\n      tag_9\n      jumpi\n      dup1\n      0xb9b5aae6\n      eq\n      tag_10\n      jumpi\n      dup1\n      0xe4fe9ce2\n      eq\n      tag_11\n      jumpi\n      jump(tag_2)\n    tag_12:\n      dup1\n      0x1785f53c\n      eq\n      tag_3\n      jumpi\n      dup1\n      0x1945ef58\n      eq\n      tag_4\n      jumpi\n      dup1\n      0x1e4de872\n      eq\n      tag_5\n      jumpi\n      dup1\n      0x24d7806c\n      eq\n      tag_6\n      jumpi\n    tag_2:\n      revert(0x00, 0x00)\n        /* \"contracts/utils/RoleManager.sol\":392:480  function removeAdmin(address _admin) external {... */\n    tag_3:\n      tag_13\n      0x04\n      dup1\n      calldatasize\n      sub\n      dup2\n      add\n      swap1\n      tag_14\n      swap2\n      swap1\n      tag_15\n      jump\t// in\n    tag_14:\n      tag_16\n      jump\t// in\n    tag_13:\n      stop\n        /* \"contracts/manager/FoodManager.sol\":234:260  uint public nextFoodId = 1 */\n    tag_4:\n      tag_17\n      tag_18\n      jump\t// in\n    tag_17:\n      mload(0x40)\n      tag_19\n      swap2\n      swap1\n      tag_20\n      jump\t// in\n    tag_19:\n      mload(0x40)\n      dup1\n      swap2\n      sub\n      swap1\n      return\n        /* \"contracts/manager/FoodManager.sol\":2124:2238  function getFood(uint foodId) external view override returns (Food memory) {... */\n    tag_5:\n      tag_21\n      0x04\n      dup1\n      calldatasize\n      sub\n      dup2\n      add\n      swap1\n      tag_22\n      swap2\n      swap1\n      tag_23\n      jump\t// in\n    tag_22:\n      tag_24\n      jump\t// in\n    tag_21:\n      mload(0x40)\n      tag_25\n      swap2\n      swap1\n      tag_26\n      jump\t// in\n    tag_25:\n      mload(0x40)\n      dup1\n      swap2\n      sub\n      swap1\n      return\n        /* \"contracts/utils/RoleManager.sol\":88:127  mapping(address => bool) public isAdmin */\n    tag_6:\n      tag_27\n      0x04\n      dup1\n      calldatasize\n      sub\n      dup2\n      add\n      swap1\n      tag_28\n      swap2\n      swap1\n      tag_15\n      jump\t// in\n    tag_28:\n      tag_29\n      jump\t// in\n    tag_27:\n      mload(0x40)\n      tag_30\n      swap2\n      swap1\n      tag_31\n      jump\t// in\n    tag_30:\n      mload(0x40)\n      dup1\n      swap2\n      sub\n      swap1\n      return\n        /* \"contracts/utils/RoleManager.sol\":243:384  function addAdmin(address _admin) external {... */\n    tag_7:\n      tag_32\n      0x04\n      dup1\n      calldatasize\n      sub\n      dup2\n      add\n      swap1\n      tag_33\n      swap2\n      swap1\n      tag_15\n      jump\t// in\n    tag_33:\n      tag_34\n      jump\t// in\n    tag_32:\n      stop\n        /* \"contracts/manager/FoodManager.sol\":398:1531  function createFood(... */\n    tag_8:\n      tag_35\n      0x04\n      dup1\n      calldatasize\n      sub\n      dup2\n      add\n      swap1\n      tag_36\n      swap2\n      swap1\n      tag_37\n      jump\t// in\n    tag_36:\n      tag_38\n      jump\t// in\n    tag_35:\n      stop\n        /* \"contracts/manager/FoodManager.sol\":1912:2116  function getFoodDetails(uint foodId) external view override returns (FoodDetail[] memory) {... */\n    tag_9:\n      tag_39\n      0x04\n      dup1\n      calldatasize\n      sub\n      dup2\n      add\n      swap1\n      tag_40\n      swap2\n      swap1\n      tag_23\n      jump\t// in\n    tag_40:\n      tag_41\n      jump\t// in\n    tag_39:\n      mload(0x40)\n      tag_42\n      swap2\n      swap1\n      tag_43\n      jump\t// in\n    tag_42:\n      mload(0x40)\n      dup1\n      swap2\n      sub\n      swap1\n      return\n        /* \"contracts/manager/FoodManager.sol\":2246:2698  function getAllFoods() external view override returns (FoodWithDetails[] memory) {... */\n    tag_10:\n      tag_44\n      tag_45\n      jump\t// in\n    tag_44:\n      mload(0x40)\n      tag_46\n      swap2\n      swap1\n      tag_47\n      jump\t// in\n    tag_46:\n      mload(0x40)\n      dup1\n      swap2\n      sub\n      swap1\n      return\n        /* \"contracts/manager/FoodManager.sol\":1576:1904  function addFoodDetails(uint foodId, FoodDetail[] memory details) external override onlyAdmin {... */\n    tag_11:\n      tag_48\n      0x04\n      dup1\n      calldatasize\n      sub\n      dup2\n      add\n      swap1\n      tag_49\n      swap2\n      swap1\n      tag_50\n      jump\t// in\n    tag_49:\n      tag_51\n      jump\t// in\n    tag_48:\n      stop\n        /* \"contracts/utils/RoleManager.sol\":392:480  function removeAdmin(address _admin) external {... */\n    tag_16:\n        /* \"contracts/utils/RoleManager.sol\":467:472  false */\n      0x00\n        /* \"contracts/utils/RoleManager.sol\":449:456  isAdmin */\n      0x00\n        /* \"contracts/utils/RoleManager.sol\":449:464  isAdmin[_admin] */\n      0x00\n        /* \"contracts/utils/RoleManager.sol\":457:463  _admin */\n      dup4\n        /* \"contracts/utils/RoleManager.sol\":449:464  isAdmin[_admin] */\n      0xffffffffffffffffffffffffffffffffffffffff\n      and\n      0xffffffffffffffffffffffffffffffffffffffff\n      and\n      dup2\n      mstore\n      0x20\n      add\n      swap1\n      dup2\n      mstore\n      0x20\n      add\n      0x00\n      keccak256\n      0x00\n        /* \"contracts/utils/RoleManager.sol\":449:472  isAdmin[_admin] = false */\n      0x0100\n      exp\n      dup2\n      sload\n      dup2\n      0xff\n      mul\n      not\n      and\n      swap1\n      dup4\n      iszero\n      iszero\n      mul\n      or\n      swap1\n      sstore\n      pop\n        /* \"contracts/utils/RoleManager.sol\":392:480  function removeAdmin(address _admin) external {... */\n      pop\n      jump\t// out\n        /* \"contracts/manager/FoodManager.sol\":234:260  uint public nextFoodId = 1 */\n    tag_18:\n      sload(0x01)\n      dup2\n      jump\t// out\n        /* \"contracts/manager/FoodManager.sol\":2124:2238  function getFood(uint foodId) external view override returns (Food memory) {... */\n    tag_24:\n        /* \"contracts/manager/FoodManager.sol\":2186:2197  Food memory */\n      tag_53\n      tag_54\n      jump\t// in\n    tag_53:\n        /* \"contracts/manager/FoodManager.sol\":2217:2222  foods */\n      0x02\n        /* \"contracts/manager/FoodManager.sol\":2217:2230  foods[foodId] */\n      0x00\n        /* \"contracts/manager/FoodManager.sol\":2223:2229  foodId */\n      dup4\n        /* \"contracts/manager/FoodManager.sol\":2217:2230  foods[foodId] */\n      dup2\n      mstore\n      0x20\n      add\n      swap1\n      dup2\n      mstore\n      0x20\n      add\n      0x00\n      keccak256\n        /* \"contracts/manager/FoodManager.sol\":2210:2230  return foods[foodId] */\n      mload(0x40)\n      dup1\n      0xa0\n      add\n      0x40\n      mstore\n      swap1\n      dup2\n      0x00\n      dup3\n      add\n      sload\n      dup2\n      mstore\n      0x20\n      add\n      0x01\n      dup3\n      add\n      dup1\n      sload\n      tag_56\n      swap1\n      tag_57\n      jump\t// in\n    tag_56:\n      dup1\n      0x1f\n      add\n      0x20\n      dup1\n      swap2\n      div\n      mul\n      0x20\n      add\n      mload(0x40)\n      swap1\n      dup2\n      add\n      0x40\n      mstore\n      dup1\n      swap3\n      swap2\n      swap1\n      dup2\n      dup2\n      mstore\n      0x20\n      add\n      dup3\n      dup1\n      sload\n      tag_58\n      swap1\n      tag_57\n      jump\t// in\n    tag_58:\n      dup1\n      iszero\n      tag_59\n      jumpi\n      dup1\n      0x1f\n      lt\n      tag_60\n      jumpi\n      0x0100\n      dup1\n      dup4\n      sload\n      div\n      mul\n      dup4\n      mstore\n      swap2\n      0x20\n      add\n      swap2\n      jump(tag_59)\n    tag_60:\n      dup3\n      add\n      swap2\n      swap1\n      0x00\n      mstore\n      keccak256(0x00, 0x20)\n      swap1\n    tag_61:\n      dup2\n      sload\n      dup2\n      mstore\n      swap1\n      0x01\n      add\n      swap1\n      0x20\n      add\n      dup1\n      dup4\n      gt\n      tag_61\n      jumpi\n      dup3\n      swap1\n      sub\n      0x1f\n      and\n      dup3\n      add\n      swap2\n    tag_59:\n      pop\n      pop\n      pop\n      pop\n      pop\n      dup2\n      mstore\n      0x20\n      add\n      0x02\n      dup3\n      add\n      dup1\n      sload\n      tag_62\n      swap1\n      tag_57\n      jump\t// in\n    tag_62:\n      dup1\n      0x1f\n      add\n      0x20\n      dup1\n      swap2\n      div\n      mul\n      0x20\n      add\n      mload(0x40)\n      swap1\n      dup2\n      add\n      0x40\n      mstore\n      dup1\n      swap3\n      swap2\n      swap1\n      dup2\n      dup2\n      mstore\n      0x20\n      add\n      dup3\n      dup1\n      sload\n      tag_63\n      swap1\n      tag_57\n      jump\t// in\n    tag_63:\n      dup1\n      iszero\n      tag_64\n      jumpi\n      dup1\n      0x1f\n      lt\n      tag_65\n      jumpi\n      0x0100\n      dup1\n      dup4\n      sload\n      div\n      mul\n      dup4\n      mstore\n      swap2\n      0x20\n      add\n      swap2\n      jump(tag_64)\n    tag_65:\n      dup3\n      add\n      swap2\n      swap1\n      0x00\n      mstore\n      keccak256(0x00, 0x20)\n      swap1\n    tag_66:\n      dup2\n      sload\n      dup2\n      mstore\n      swap1\n      0x01\n      add\n      swap1\n      0x20\n      add\n      dup1\n      dup4\n      gt\n      tag_66\n      jumpi\n      dup3\n      swap1\n      sub\n      0x1f\n      and\n      dup3\n      add\n      swap2\n    tag_64:\n      pop\n      pop\n      pop\n      pop\n      pop\n      dup2\n      mstore\n      0x20\n      add\n      0x03\n      dup3\n      add\n      sload\n      dup2\n      mstore\n      0x20\n      add\n      0x04\n      dup3\n      add\n      dup1\n      sload\n      tag_67\n      swap1\n      tag_57\n      jump\t// in\n    tag_67:\n      dup1\n      0x1f\n      add\n      0x20\n      dup1\n      swap2\n      div\n      mul\n      0x20\n      add\n      mload(0x40)\n      swap1\n      dup2\n      add\n      0x40\n      mstore\n      dup1\n      swap3\n      swap2\n      swap1\n      dup2\n      dup2\n      mstore\n      0x20\n      add\n      dup3\n      dup1\n      sload\n      tag_68\n      swap1\n      tag_57\n      jump\t// in\n    tag_68:\n      dup1\n      iszero\n      tag_69\n      jumpi\n      dup1\n      0x1f\n      lt\n      tag_70\n      jumpi\n      0x0100\n      dup1\n      dup4\n      sload\n      div\n      mul\n      dup4\n      mstore\n      swap2\n      0x20\n      add\n      swap2\n      jump(tag_69)\n    tag_70:\n      dup3\n      add\n      swap2\n      swap1\n      0x00\n      mstore\n      keccak256(0x00, 0x20)\n      swap1\n    tag_71:\n      dup2\n      sload\n      dup2\n      mstore\n      swap1\n      0x01\n      add\n      swap1\n      0x20\n      add\n      dup1\n      dup4\n      gt\n      tag_71\n      jumpi\n      dup3\n      swap1\n      sub\n      0x1f\n      and\n      dup3\n      add\n      swap2\n    tag_69:\n      pop\n      pop\n      pop\n      pop\n      pop\n      dup2\n      mstore\n      pop\n      pop\n      swap1\n      pop\n        /* \"contracts/manager/FoodManager.sol\":2124:2238  function getFood(uint foodId) external view override returns (Food memory) {... */\n      swap2\n      swap1\n      pop\n      jump\t// out\n        /* \"contracts/utils/RoleManager.sol\":88:127  mapping(address => bool) public isAdmin */\n    tag_29:\n      mstore(0x20, 0x00)\n      dup1\n      0x00\n      mstore\n      keccak256(0x00, 0x40)\n      0x00\n      swap2\n      pop\n      sload\n      swap1\n      0x0100\n      exp\n      swap1\n      div\n      0xff\n      and\n      dup2\n      jump\t// out\n        /* \"contracts/utils/RoleManager.sol\":243:384  function addAdmin(address _admin) external {... */\n    tag_34:\n        /* \"contracts/utils/RoleManager.sol\":372:376  true */\n      0x01\n        /* \"contracts/utils/RoleManager.sol\":354:361  isAdmin */\n      0x00\n        /* \"contracts/utils/RoleManager.sol\":354:369  isAdmin[_admin] */\n      0x00\n        /* \"contracts/utils/RoleManager.sol\":362:368  _admin */\n      dup4\n        /* \"contracts/utils/RoleManager.sol\":354:369  isAdmin[_admin] */\n      0xffffffffffffffffffffffffffffffffffffffff\n      and\n      0xffffffffffffffffffffffffffffffffffffffff\n      and\n      dup2\n      mstore\n      0x20\n      add\n      swap1\n      dup2\n      mstore\n      0x20\n      add\n      0x00\n      keccak256\n      0x00\n        /* \"contracts/utils/RoleManager.sol\":354:376  isAdmin[_admin] = true */\n      0x0100\n      exp\n      dup2\n      sload\n      dup2\n      0xff\n      mul\n      not\n      and\n      swap1\n      dup4\n      iszero\n      iszero\n      mul\n      or\n      swap1\n      sstore\n      pop\n        /* \"contracts/utils/RoleManager.sol\":243:384  function addAdmin(address _admin) external {... */\n      pop\n      jump\t// out\n        /* \"contracts/manager/FoodManager.sol\":398:1531  function createFood(... */\n    tag_38:\n        /* \"contracts/utils/RoleManager.sol\":176:183  isAdmin */\n      0x00\n        /* \"contracts/utils/RoleManager.sol\":176:195  isAdmin[msg.sender] */\n      0x00\n        /* \"contracts/utils/RoleManager.sol\":184:194  msg.sender */\n      caller\n        /* \"contracts/utils/RoleManager.sol\":176:195  isAdmin[msg.sender] */\n      0xffffffffffffffffffffffffffffffffffffffff\n      and\n      0xffffffffffffffffffffffffffffffffffffffff\n      and\n      dup2\n      mstore\n      0x20\n      add\n      swap1\n      dup2\n      mstore\n      0x20\n      add\n      0x00\n      keccak256\n      0x00\n      swap1\n      sload\n      swap1\n      0x0100\n      exp\n      swap1\n      div\n      0xff\n      and\n        /* \"contracts/utils/RoleManager.sol\":168:217  require(isAdmin[msg.sender], \"You are not admin\") */\n      tag_74\n      jumpi\n      mload(0x40)\n      0x08c379a000000000000000000000000000000000000000000000000000000000\n      dup2\n      mstore\n      0x04\n      add\n      tag_75\n      swap1\n      tag_76\n      jump\t// in\n    tag_75:\n      mload(0x40)\n      dup1\n      swap2\n      sub\n      swap1\n      revert\n    tag_74:\n        /* \"contracts/manager/FoodManager.sol\":763:764  0 */\n      0x00\n        /* \"contracts/manager/FoodManager.sol\":738:743  foods */\n      0x02\n        /* \"contracts/manager/FoodManager.sol\":738:752  foods[_foodId] */\n      0x00\n        /* \"contracts/manager/FoodManager.sol\":744:751  _foodId */\n      dup9\n        /* \"contracts/manager/FoodManager.sol\":738:752  foods[_foodId] */\n      dup2\n      mstore\n      0x20\n      add\n      swap1\n      dup2\n      mstore\n      0x20\n      add\n      0x00\n      keccak256\n        /* \"contracts/manager/FoodManager.sol\":738:759  foods[_foodId].foodId */\n      0x00\n      add\n      sload\n        /* \"contracts/manager/FoodManager.sol\":738:764  foods[_foodId].foodId == 0 */\n      eq\n        /* \"contracts/manager/FoodManager.sol\":730:801  require(foods[_foodId].foodId == 0, \"Food with this ID already exists\") */\n      tag_78\n      jumpi\n      mload(0x40)\n      0x08c379a000000000000000000000000000000000000000000000000000000000\n      dup2\n      mstore\n      0x04\n      add\n      tag_79\n      swap1\n      tag_80\n      jump\t// in\n    tag_79:\n      mload(0x40)\n      dup1\n      swap2\n      sub\n      swap1\n      revert\n    tag_78:\n        /* \"contracts/manager/FoodManager.sol\":874:893  Food memory newFood */\n      0x00\n        /* \"contracts/manager/FoodManager.sol\":896:1081  Food({... */\n      mload(0x40)\n      dup1\n      0xa0\n      add\n      0x40\n      mstore\n      dup1\n        /* \"contracts/manager/FoodManager.sol\":924:931  _foodId */\n      dup9\n        /* \"contracts/manager/FoodManager.sol\":896:1081  Food({... */\n      dup2\n      mstore\n      0x20\n      add\n        /* \"contracts/manager/FoodManager.sol\":952:957  _name */\n      dup8\n        /* \"contracts/manager/FoodManager.sol\":896:1081  Food({... */\n      dup2\n      mstore\n      0x20\n      add\n        /* \"contracts/manager/FoodManager.sol\":985:997  _description */\n      dup7\n        /* \"contracts/manager/FoodManager.sol\":896:1081  Food({... */\n      dup2\n      mstore\n      0x20\n      add\n        /* \"contracts/manager/FoodManager.sol\":1024:1035  _categoryId */\n      dup6\n        /* \"contracts/manager/FoodManager.sol\":896:1081  Food({... */\n      dup2\n      mstore\n      0x20\n      add\n        /* \"contracts/manager/FoodManager.sol\":1060:1069  _imageUrl */\n      dup5\n        /* \"contracts/manager/FoodManager.sol\":896:1081  Food({... */\n      dup2\n      mstore\n      pop\n        /* \"contracts/manager/FoodManager.sol\":874:1081  Food memory newFood = Food({... */\n      swap1\n      pop\n        /* \"contracts/manager/FoodManager.sol\":1109:1116  newFood */\n      dup1\n        /* \"contracts/manager/FoodManager.sol\":1092:1097  foods */\n      0x02\n        /* \"contracts/manager/FoodManager.sol\":1092:1106  foods[_foodId] */\n      0x00\n        /* \"contracts/manager/FoodManager.sol\":1098:1105  _foodId */\n      dup10\n        /* \"contracts/manager/FoodManager.sol\":1092:1106  foods[_foodId] */\n      dup2\n      mstore\n      0x20\n      add\n      swap1\n      dup2\n      mstore\n      0x20\n      add\n      0x00\n      keccak256\n        /* \"contracts/manager/FoodManager.sol\":1092:1116  foods[_foodId] = newFood */\n      0x00\n      dup3\n      add\n      mload\n      dup2\n      0x00\n      add\n      sstore\n      0x20\n      dup3\n      add\n      mload\n      dup2\n      0x01\n      add\n      swap1\n      dup2\n      tag_81\n      swap2\n      swap1\n      tag_82\n      jump\t// in\n    tag_81:\n      pop\n      0x40\n      dup3\n      add\n      mload\n      dup2\n      0x02\n      add\n      swap1\n      dup2\n      tag_83\n      swap2\n      swap1\n      tag_82\n      jump\t// in\n    tag_83:\n      pop\n      0x60\n      dup3\n      add\n      mload\n      dup2\n      0x03\n      add\n      sstore\n      0x80\n      dup3\n      add\n      mload\n      dup2\n      0x04\n      add\n      swap1\n      dup2\n      tag_84\n      swap2\n      swap1\n      tag_82\n      jump\t// in\n    tag_84:\n      pop\n      swap1\n      pop\n      pop\n        /* \"contracts/manager/FoodManager.sol\":1127:1134  foodIds */\n      0x04\n        /* \"contracts/manager/FoodManager.sol\":1140:1147  _foodId */\n      dup8\n        /* \"contracts/manager/FoodManager.sol\":1127:1148  foodIds.push(_foodId) */\n      swap1\n      dup1\n      0x01\n      dup2\n      sload\n      add\n      dup1\n      dup3\n      sstore\n      dup1\n      swap2\n      pop\n      pop\n      0x01\n      swap1\n      sub\n      swap1\n      0x00\n      mstore\n      keccak256(0x00, 0x20)\n      add\n      0x00\n      swap1\n      swap2\n      swap1\n      swap2\n      swap1\n      swap2\n      pop\n      sstore\n        /* \"contracts/manager/FoodManager.sol\":1209:1215  uint i */\n      0x00\n        /* \"contracts/manager/FoodManager.sol\":1218:1219  0 */\n      0x00\n        /* \"contracts/manager/FoodManager.sol\":1209:1219  uint i = 0 */\n      swap1\n      pop\n        /* \"contracts/manager/FoodManager.sol\":1204:1318  for (uint i = 0; i < _foodDetail.length; i++) {... */\n    tag_86:\n        /* \"contracts/manager/FoodManager.sol\":1225:1236  _foodDetail */\n      dup3\n        /* \"contracts/manager/FoodManager.sol\":1225:1243  _foodDetail.length */\n      mload\n        /* \"contracts/manager/FoodManager.sol\":1221:1222  i */\n      dup2\n        /* \"contracts/manager/FoodManager.sol\":1221:1243  i < _foodDetail.length */\n      lt\n        /* \"contracts/manager/FoodManager.sol\":1204:1318  for (uint i = 0; i < _foodDetail.length; i++) {... */\n      iszero\n      tag_87\n      jumpi\n        /* \"contracts/manager/FoodManager.sol\":1265:1276  foodDetails */\n      0x03\n        /* \"contracts/manager/FoodManager.sol\":1265:1285  foodDetails[_foodId] */\n      0x00\n        /* \"contracts/manager/FoodManager.sol\":1277:1284  _foodId */\n      dup10\n        /* \"contracts/manager/FoodManager.sol\":1265:1285  foodDetails[_foodId] */\n      dup2\n      mstore\n      0x20\n      add\n      swap1\n      dup2\n      mstore\n      0x20\n      add\n      0x00\n      keccak256\n        /* \"contracts/manager/FoodManager.sol\":1291:1302  _foodDetail */\n      dup4\n        /* \"contracts/manager/FoodManager.sol\":1303:1304  i */\n      dup3\n        /* \"contracts/manager/FoodManager.sol\":1291:1305  _foodDetail[i] */\n      dup2\n      mload\n      dup2\n      lt\n      tag_89\n      jumpi\n      tag_90\n      tag_91\n      jump\t// in\n    tag_90:\n    tag_89:\n      0x20\n      mul\n      0x20\n      add\n      add\n      mload\n        /* \"contracts/manager/FoodManager.sol\":1265:1306  foodDetails[_foodId].push(_foodDetail[i]) */\n      swap1\n      dup1\n      0x01\n      dup2\n      sload\n      add\n      dup1\n      dup3\n      sstore\n      dup1\n      swap2\n      pop\n      pop\n      0x01\n      swap1\n      sub\n      swap1\n      0x00\n      mstore\n      keccak256(0x00, 0x20)\n      swap1\n      0x04\n      mul\n      add\n      0x00\n      swap1\n      swap2\n      swap1\n      swap2\n      swap1\n      swap2\n      pop\n      0x00\n      dup3\n      add\n      mload\n      dup2\n      0x00\n      add\n      sstore\n      0x20\n      dup3\n      add\n      mload\n      dup2\n      0x01\n      add\n      swap1\n      dup2\n      tag_93\n      swap2\n      swap1\n      tag_82\n      jump\t// in\n    tag_93:\n      pop\n      0x40\n      dup3\n      add\n      mload\n      dup2\n      0x02\n      add\n      sstore\n      0x60\n      dup3\n      add\n      mload\n      dup2\n      0x03\n      add\n      sstore\n      pop\n      pop\n        /* \"contracts/manager/FoodManager.sol\":1245:1248  i++ */\n      dup1\n      dup1\n      0x01\n      add\n      swap2\n      pop\n      pop\n        /* \"contracts/manager/FoodManager.sol\":1204:1318  for (uint i = 0; i < _foodDetail.length; i++) {... */\n      jump(tag_86)\n    tag_87:\n      pop\n        /* \"contracts/manager/FoodManager.sol\":1382:1523  FoodCreated(... */\n      0xff0264342374cbd904a8a3c1290ea62d3ccb1b82de453a8b03a5ed17456ea277\n        /* \"contracts/manager/FoodManager.sol\":1408:1415  _foodId */\n      dup8\n        /* \"contracts/manager/FoodManager.sol\":1430:1435  _name */\n      dup8\n        /* \"contracts/manager/FoodManager.sol\":1450:1462  _description */\n      dup8\n        /* \"contracts/manager/FoodManager.sol\":1477:1488  _categoryId */\n      dup8\n        /* \"contracts/manager/FoodManager.sol\":1503:1512  _imageUrl */\n      dup8\n        /* \"contracts/manager/FoodManager.sol\":1382:1523  FoodCreated(... */\n      mload(0x40)\n      tag_94\n      swap6\n      swap5\n      swap4\n      swap3\n      swap2\n      swap1\n      tag_95\n      jump\t// in\n    tag_94:\n      mload(0x40)\n      dup1\n      swap2\n      sub\n      swap1\n      log1\n        /* \"contracts/manager/FoodManager.sol\":652:1531  {... */\n      pop\n        /* \"contracts/manager/FoodManager.sol\":398:1531  function createFood(... */\n      pop\n      pop\n      pop\n      pop\n      pop\n      pop\n      jump\t// out\n        /* \"contracts/manager/FoodManager.sol\":1912:2116  function getFoodDetails(uint foodId) external view override returns (FoodDetail[] memory) {... */\n    tag_41:\n        /* \"contracts/manager/FoodManager.sol\":1981:2000  FoodDetail[] memory */\n      0x60\n        /* \"contracts/manager/FoodManager.sol\":2046:2047  0 */\n      0x00\n        /* \"contracts/manager/FoodManager.sol\":2022:2027  foods */\n      0x02\n        /* \"contracts/manager/FoodManager.sol\":2022:2035  foods[foodId] */\n      0x00\n        /* \"contracts/manager/FoodManager.sol\":2028:2034  foodId */\n      dup5\n        /* \"contracts/manager/FoodManager.sol\":2022:2035  foods[foodId] */\n      dup2\n      mstore\n      0x20\n      add\n      swap1\n      dup2\n      mstore\n      0x20\n      add\n      0x00\n      keccak256\n        /* \"contracts/manager/FoodManager.sol\":2022:2042  foods[foodId].foodId */\n      0x00\n      add\n      sload\n        /* \"contracts/manager/FoodManager.sol\":2022:2047  foods[foodId].foodId != 0 */\n      sub\n        /* \"contracts/manager/FoodManager.sol\":2014:2071  require(foods[foodId].foodId != 0, \"Food does not exist\") */\n      tag_97\n      jumpi\n      mload(0x40)\n      0x08c379a000000000000000000000000000000000000000000000000000000000\n      dup2\n      mstore\n      0x04\n      add\n      tag_98\n      swap1\n      tag_99\n      jump\t// in\n    tag_98:\n      mload(0x40)\n      dup1\n      swap2\n      sub\n      swap1\n      revert\n    tag_97:\n        /* \"contracts/manager/FoodManager.sol\":2089:2100  foodDetails */\n      0x03\n        /* \"contracts/manager/FoodManager.sol\":2089:2108  foodDetails[foodId] */\n      0x00\n        /* \"contracts/manager/FoodManager.sol\":2101:2107  foodId */\n      dup4\n        /* \"contracts/manager/FoodManager.sol\":2089:2108  foodDetails[foodId] */\n      dup2\n      mstore\n      0x20\n      add\n      swap1\n      dup2\n      mstore\n      0x20\n      add\n      0x00\n      keccak256\n        /* \"contracts/manager/FoodManager.sol\":2082:2108  return foodDetails[foodId] */\n      dup1\n      sload\n      dup1\n      0x20\n      mul\n      0x20\n      add\n      mload(0x40)\n      swap1\n      dup2\n      add\n      0x40\n      mstore\n      dup1\n      swap3\n      swap2\n      swap1\n      dup2\n      dup2\n      mstore\n      0x20\n      add\n      0x00\n      swap1\n    tag_100:\n      dup3\n      dup3\n      lt\n      iszero\n      tag_101\n      jumpi\n      dup4\n      dup3\n      swap1\n      0x00\n      mstore\n      keccak256(0x00, 0x20)\n      swap1\n      0x04\n      mul\n      add\n      mload(0x40)\n      dup1\n      0x80\n      add\n      0x40\n      mstore\n      swap1\n      dup2\n      0x00\n      dup3\n      add\n      sload\n      dup2\n      mstore\n      0x20\n      add\n      0x01\n      dup3\n      add\n      dup1\n      sload\n      tag_103\n      swap1\n      tag_57\n      jump\t// in\n    tag_103:\n      dup1\n      0x1f\n      add\n      0x20\n      dup1\n      swap2\n      div\n      mul\n      0x20\n      add\n      mload(0x40)\n      swap1\n      dup2\n      add\n      0x40\n      mstore\n      dup1\n      swap3\n      swap2\n      swap1\n      dup2\n      dup2\n      mstore\n      0x20\n      add\n      dup3\n      dup1\n      sload\n      tag_104\n      swap1\n      tag_57\n      jump\t// in\n    tag_104:\n      dup1\n      iszero\n      tag_105\n      jumpi\n      dup1\n      0x1f\n      lt\n      tag_106\n      jumpi\n      0x0100\n      dup1\n      dup4\n      sload\n      div\n      mul\n      dup4\n      mstore\n      swap2\n      0x20\n      add\n      swap2\n      jump(tag_105)\n    tag_106:\n      dup3\n      add\n      swap2\n      swap1\n      0x00\n      mstore\n      keccak256(0x00, 0x20)\n      swap1\n    tag_107:\n      dup2\n      sload\n      dup2\n      mstore\n      swap1\n      0x01\n      add\n      swap1\n      0x20\n      add\n      dup1\n      dup4\n      gt\n      tag_107\n      jumpi\n      dup3\n      swap1\n      sub\n      0x1f\n      and\n      dup3\n      add\n      swap2\n    tag_105:\n      pop\n      pop\n      pop\n      pop\n      pop\n      dup2\n      mstore\n      0x20\n      add\n      0x02\n      dup3\n      add\n      sload\n      dup2\n      mstore\n      0x20\n      add\n      0x03\n      dup3\n      add\n      sload\n      dup2\n      mstore\n      pop\n      pop\n      dup2\n      mstore\n      0x20\n      add\n      swap1\n      0x01\n      add\n      swap1\n      jump(tag_100)\n    tag_101:\n      pop\n      pop\n      pop\n      pop\n      swap1\n      pop\n        /* \"contracts/manager/FoodManager.sol\":1912:2116  function getFoodDetails(uint foodId) external view override returns (FoodDetail[] memory) {... */\n      swap2\n      swap1\n      pop\n      jump\t// out\n        /* \"contracts/manager/FoodManager.sol\":2246:2698  function getAllFoods() external view override returns (FoodWithDetails[] memory) {... */\n    tag_45:\n        /* \"contracts/manager/FoodManager.sol\":2301:2325  FoodWithDetails[] memory */\n      0x60\n        /* \"contracts/manager/FoodManager.sol\":2338:2371  FoodWithDetails[] memory allFoods */\n      0x00\n        /* \"contracts/manager/FoodManager.sol\":2396:2403  foodIds */\n      0x04\n        /* \"contracts/manager/FoodManager.sol\":2396:2410  foodIds.length */\n      dup1\n      sload\n      swap1\n      pop\n        /* \"contracts/manager/FoodManager.sol\":2374:2411  new FoodWithDetails[](foodIds.length) */\n      0xffffffffffffffff\n      dup2\n      gt\n      iszero\n      tag_109\n      jumpi\n      tag_110\n      tag_111\n      jump\t// in\n    tag_110:\n    tag_109:\n      mload(0x40)\n      swap1\n      dup1\n      dup3\n      mstore\n      dup1\n      0x20\n      mul\n      0x20\n      add\n      dup3\n      add\n      0x40\n      mstore\n      dup1\n      iszero\n      tag_112\n      jumpi\n      dup2\n      0x20\n      add\n    tag_113:\n      tag_114\n      tag_115\n      jump\t// in\n    tag_114:\n      dup2\n      mstore\n      0x20\n      add\n      swap1\n      0x01\n      swap1\n      sub\n      swap1\n      dup2\n      tag_113\n      jumpi\n      swap1\n      pop\n    tag_112:\n      pop\n        /* \"contracts/manager/FoodManager.sol\":2338:2411  FoodWithDetails[] memory allFoods = new FoodWithDetails[](foodIds.length) */\n      swap1\n      pop\n        /* \"contracts/manager/FoodManager.sol\":2427:2433  uint i */\n      0x00\n        /* \"contracts/manager/FoodManager.sol\":2436:2437  0 */\n      0x00\n        /* \"contracts/manager/FoodManager.sol\":2427:2437  uint i = 0 */\n      swap1\n      pop\n        /* \"contracts/manager/FoodManager.sol\":2422:2665  for (uint i = 0; i < foodIds.length; i++) {... */\n    tag_116:\n        /* \"contracts/manager/FoodManager.sol\":2443:2450  foodIds */\n      0x04\n        /* \"contracts/manager/FoodManager.sol\":2443:2457  foodIds.length */\n      dup1\n      sload\n      swap1\n      pop\n        /* \"contracts/manager/FoodManager.sol\":2439:2440  i */\n      dup2\n        /* \"contracts/manager/FoodManager.sol\":2439:2457  i < foodIds.length */\n      lt\n        /* \"contracts/manager/FoodManager.sol\":2422:2665  for (uint i = 0; i < foodIds.length; i++) {... */\n      iszero\n      tag_117\n      jumpi\n        /* \"contracts/manager/FoodManager.sol\":2479:2490  uint foodId */\n      0x00\n        /* \"contracts/manager/FoodManager.sol\":2493:2500  foodIds */\n      0x04\n        /* \"contracts/manager/FoodManager.sol\":2501:2502  i */\n      dup3\n        /* \"contracts/manager/FoodManager.sol\":2493:2503  foodIds[i] */\n      dup2\n      sload\n      dup2\n      lt\n      tag_119\n      jumpi\n      tag_120\n      tag_91\n      jump\t// in\n    tag_120:\n    tag_119:\n      swap1\n      0x00\n      mstore\n      keccak256(0x00, 0x20)\n      add\n      sload\n        /* \"contracts/manager/FoodManager.sol\":2479:2503  uint foodId = foodIds[i] */\n      swap1\n      pop\n        /* \"contracts/manager/FoodManager.sol\":2532:2653  FoodWithDetails({... */\n      mload(0x40)\n      dup1\n      0x40\n      add\n      0x40\n      mstore\n      dup1\n        /* \"contracts/manager/FoodManager.sol\":2573:2578  foods */\n      0x02\n        /* \"contracts/manager/FoodManager.sol\":2573:2586  foods[foodId] */\n      0x00\n        /* \"contracts/manager/FoodManager.sol\":2579:2585  foodId */\n      dup5\n        /* \"contracts/manager/FoodManager.sol\":2573:2586  foods[foodId] */\n      dup2\n      mstore\n      0x20\n      add\n      swap1\n      dup2\n      mstore\n      0x20\n      add\n      0x00\n      keccak256\n        /* \"contracts/manager/FoodManager.sol\":2532:2653  FoodWithDetails({... */\n      mload(0x40)\n      dup1\n      0xa0\n      add\n      0x40\n      mstore\n      swap1\n      dup2\n      0x00\n      dup3\n      add\n      sload\n      dup2\n      mstore\n      0x20\n      add\n      0x01\n      dup3\n      add\n      dup1\n      sload\n      tag_122\n      swap1\n      tag_57\n      jump\t// in\n    tag_122:\n      dup1\n      0x1f\n      add\n      0x20\n      dup1\n      swap2\n      div\n      mul\n      0x20\n      add\n      mload(0x40)\n      swap1\n      dup2\n      add\n      0x40\n      mstore\n      dup1\n      swap3\n      swap2\n      swap1\n      dup2\n      dup2\n      mstore\n      0x20\n      add\n      dup3\n      dup1\n      sload\n      tag_123\n      swap1\n      tag_57\n      jump\t// in\n    tag_123:\n      dup1\n      iszero\n      tag_124\n      jumpi\n      dup1\n      0x1f\n      lt\n      tag_125\n      jumpi\n      0x0100\n      dup1\n      dup4\n      sload\n      div\n      mul\n      dup4\n      mstore\n      swap2\n      0x20\n      add\n      swap2\n      jump(tag_124)\n    tag_125:\n      dup3\n      add\n      swap2\n      swap1\n      0x00\n      mstore\n      keccak256(0x00, 0x20)\n      swap1\n    tag_126:\n      dup2\n      sload\n      dup2\n      mstore\n      swap1\n      0x01\n      add\n      swap1\n      0x20\n      add\n      dup1\n      dup4\n      gt\n      tag_126\n      jumpi\n      dup3\n      swap1\n      sub\n      0x1f\n      and\n      dup3\n      add\n      swap2\n    tag_124:\n      pop\n      pop\n      pop\n      pop\n      pop\n      dup2\n      mstore\n      0x20\n      add\n      0x02\n      dup3\n      add\n      dup1\n      sload\n      tag_127\n      swap1\n      tag_57\n      jump\t// in\n    tag_127:\n      dup1\n      0x1f\n      add\n      0x20\n      dup1\n      swap2\n      div\n      mul\n      0x20\n      add\n      mload(0x40)\n      swap1\n      dup2\n      add\n      0x40\n      mstore\n      dup1\n      swap3\n      swap2\n      swap1\n      dup2\n      dup2\n      mstore\n      0x20\n      add\n      dup3\n      dup1\n      sload\n      tag_128\n      swap1\n      tag_57\n      jump\t// in\n    tag_128:\n      dup1\n      iszero\n      tag_129\n      jumpi\n      dup1\n      0x1f\n      lt\n      tag_130\n      jumpi\n      0x0100\n      dup1\n      dup4\n      sload\n      div\n      mul\n      dup4\n      mstore\n      swap2\n      0x20\n      add\n      swap2\n      jump(tag_129)\n    tag_130:\n      dup3\n      add\n      swap2\n      swap1\n      0x00\n      mstore\n      keccak256(0x00, 0x20)\n      swap1\n    tag_131:\n      dup2\n      sload\n      dup2\n      mstore\n      swap1\n      0x01\n      add\n      swap1\n      0x20\n      add\n      dup1\n      dup4\n      gt\n      tag_131\n      jumpi\n      dup3\n      swap1\n      sub\n      0x1f\n      and\n      dup3\n      add\n      swap2\n    tag_129:\n      pop\n      pop\n      pop\n      pop\n      pop\n      dup2\n      mstore\n      0x20\n      add\n      0x03\n      dup3\n      add\n      sload\n      dup2\n      mstore\n      0x20\n      add\n      0x04\n      dup3\n      add\n      dup1\n      sload\n      tag_132\n      swap1\n      tag_57\n      jump\t// in\n    tag_132:\n      dup1\n      0x1f\n      add\n      0x20\n      dup1\n      swap2\n      div\n      mul\n      0x20\n      add\n      mload(0x40)\n      swap1\n      dup2\n      add\n      0x40\n      mstore\n      dup1\n      swap3\n      swap2\n      swap1\n      dup2\n      dup2\n      mstore\n      0x20\n      add\n      dup3\n      dup1\n      sload\n      tag_133\n      swap1\n      tag_57\n      jump\t// in\n    tag_133:\n      dup1\n      iszero\n      tag_134\n      jumpi\n      dup1\n      0x1f\n      lt\n      tag_135\n      jumpi\n      0x0100\n      dup1\n      dup4\n      sload\n      div\n      mul\n      dup4\n      mstore\n      swap2\n      0x20\n      add\n      swap2\n      jump(tag_134)\n    tag_135:\n      dup3\n      add\n      swap2\n      swap1\n      0x00\n      mstore\n      keccak256(0x00, 0x20)\n      swap1\n    tag_136:\n      dup2\n      sload\n      dup2\n      mstore\n      swap1\n      0x01\n      add\n      swap1\n      0x20\n      add\n      dup1\n      dup4\n      gt\n      tag_136\n      jumpi\n      dup3\n      swap1\n      sub\n      0x1f\n      and\n      dup3\n      add\n      swap2\n    tag_134:\n      pop\n      pop\n      pop\n      pop\n      pop\n      dup2\n      mstore\n      pop\n      pop\n      dup2\n      mstore\n      0x20\n      add\n        /* \"contracts/manager/FoodManager.sol\":2618:2629  foodDetails */\n      0x03\n        /* \"contracts/manager/FoodManager.sol\":2618:2637  foodDetails[foodId] */\n      0x00\n        /* \"contracts/manager/FoodManager.sol\":2630:2636  foodId */\n      dup5\n        /* \"contracts/manager/FoodManager.sol\":2618:2637  foodDetails[foodId] */\n      dup2\n      mstore\n      0x20\n      add\n      swap1\n      dup2\n      mstore\n      0x20\n      add\n      0x00\n      keccak256\n        /* \"contracts/manager/FoodManager.sol\":2532:2653  FoodWithDetails({... */\n      dup1\n      sload\n      dup1\n      0x20\n      mul\n      0x20\n      add\n      mload(0x40)\n      swap1\n      dup2\n      add\n      0x40\n      mstore\n      dup1\n      swap3\n      swap2\n      swap1\n      dup2\n      dup2\n      mstore\n      0x20\n      add\n      0x00\n      swap1\n    tag_137:\n      dup3\n      dup3\n      lt\n      iszero\n      tag_138\n      jumpi\n      dup4\n      dup3\n      swap1\n      0x00\n      mstore\n      keccak256(0x00, 0x20)\n      swap1\n      0x04\n      mul\n      add\n      mload(0x40)\n      dup1\n      0x80\n      add\n      0x40\n      mstore\n      swap1\n      dup2\n      0x00\n      dup3\n      add\n      sload\n      dup2\n      mstore\n      0x20\n      add\n      0x01\n      dup3\n      add\n      dup1\n      sload\n      tag_140\n      swap1\n      tag_57\n      jump\t// in\n    tag_140:\n      dup1\n      0x1f\n      add\n      0x20\n      dup1\n      swap2\n      div\n      mul\n      0x20\n      add\n      mload(0x40)\n      swap1\n      dup2\n      add\n      0x40\n      mstore\n      dup1\n      swap3\n      swap2\n      swap1\n      dup2\n      dup2\n      mstore\n      0x20\n      add\n      dup3\n      dup1\n      sload\n      tag_141\n      swap1\n      tag_57\n      jump\t// in\n    tag_141:\n      dup1\n      iszero\n      tag_142\n      jumpi\n      dup1\n      0x1f\n      lt\n      tag_143\n      jumpi\n      0x0100\n      dup1\n      dup4\n      sload\n      div\n      mul\n      dup4\n      mstore\n      swap2\n      0x20\n      add\n      swap2\n      jump(tag_142)\n    tag_143:\n      dup3\n      add\n      swap2\n      swap1\n      0x00\n      mstore\n      keccak256(0x00, 0x20)\n      swap1\n    tag_144:\n      dup2\n      sload\n      dup2\n      mstore\n      swap1\n      0x01\n      add\n      swap1\n      0x20\n      add\n      dup1\n      dup4\n      gt\n      tag_144\n      jumpi\n      dup3\n      swap1\n      sub\n      0x1f\n      and\n      dup3\n      add\n      swap2\n    tag_142:\n      pop\n      pop\n      pop\n      pop\n      pop\n      dup2\n      mstore\n      0x20\n      add\n      0x02\n      dup3\n      add\n      sload\n      dup2\n      mstore\n      0x20\n      add\n      0x03\n      dup3\n      add\n      sload\n      dup2\n      mstore\n      pop\n      pop\n      dup2\n      mstore\n      0x20\n      add\n      swap1\n      0x01\n      add\n      swap1\n      jump(tag_137)\n    tag_138:\n      pop\n      pop\n      pop\n      pop\n      dup2\n      mstore\n      pop\n        /* \"contracts/manager/FoodManager.sol\":2518:2526  allFoods */\n      dup4\n        /* \"contracts/manager/FoodManager.sol\":2527:2528  i */\n      dup4\n        /* \"contracts/manager/FoodManager.sol\":2518:2529  allFoods[i] */\n      dup2\n      mload\n      dup2\n      lt\n      tag_145\n      jumpi\n      tag_146\n      tag_91\n      jump\t// in\n    tag_146:\n    tag_145:\n      0x20\n      mul\n      0x20\n      add\n      add\n        /* \"contracts/manager/FoodManager.sol\":2518:2653  allFoods[i] = FoodWithDetails({... */\n      dup2\n      swap1\n      mstore\n      pop\n        /* \"contracts/manager/FoodManager.sol\":2464:2665  {... */\n      pop\n        /* \"contracts/manager/FoodManager.sol\":2459:2462  i++ */\n      dup1\n      dup1\n      0x01\n      add\n      swap2\n      pop\n      pop\n        /* \"contracts/manager/FoodManager.sol\":2422:2665  for (uint i = 0; i < foodIds.length; i++) {... */\n      jump(tag_116)\n    tag_117:\n      pop\n        /* \"contracts/manager/FoodManager.sol\":2682:2690  allFoods */\n      dup1\n        /* \"contracts/manager/FoodManager.sol\":2675:2690  return allFoods */\n      swap2\n      pop\n      pop\n        /* \"contracts/manager/FoodManager.sol\":2246:2698  function getAllFoods() external view override returns (FoodWithDetails[] memory) {... */\n      swap1\n      jump\t// out\n        /* \"contracts/manager/FoodManager.sol\":1576:1904  function addFoodDetails(uint foodId, FoodDetail[] memory details) external override onlyAdmin {... */\n    tag_51:\n        /* \"contracts/utils/RoleManager.sol\":176:183  isAdmin */\n      0x00\n        /* \"contracts/utils/RoleManager.sol\":176:195  isAdmin[msg.sender] */\n      0x00\n        /* \"contracts/utils/RoleManager.sol\":184:194  msg.sender */\n      caller\n        /* \"contracts/utils/RoleManager.sol\":176:195  isAdmin[msg.sender] */\n      0xffffffffffffffffffffffffffffffffffffffff\n      and\n      0xffffffffffffffffffffffffffffffffffffffff\n      and\n      dup2\n      mstore\n      0x20\n      add\n      swap1\n      dup2\n      mstore\n      0x20\n      add\n      0x00\n      keccak256\n      0x00\n      swap1\n      sload\n      swap1\n      0x0100\n      exp\n      swap1\n      div\n      0xff\n      and\n        /* \"contracts/utils/RoleManager.sol\":168:217  require(isAdmin[msg.sender], \"You are not admin\") */\n      tag_148\n      jumpi\n      mload(0x40)\n      0x08c379a000000000000000000000000000000000000000000000000000000000\n      dup2\n      mstore\n      0x04\n      add\n      tag_149\n      swap1\n      tag_76\n      jump\t// in\n    tag_149:\n      mload(0x40)\n      dup1\n      swap2\n      sub\n      swap1\n      revert\n    tag_148:\n        /* \"contracts/manager/FoodManager.sol\":1756:1757  0 */\n      0x00\n        /* \"contracts/manager/FoodManager.sol\":1732:1737  foods */\n      0x02\n        /* \"contracts/manager/FoodManager.sol\":1732:1745  foods[foodId] */\n      0x00\n        /* \"contracts/manager/FoodManager.sol\":1738:1744  foodId */\n      dup5\n        /* \"contracts/manager/FoodManager.sol\":1732:1745  foods[foodId] */\n      dup2\n      mstore\n      0x20\n      add\n      swap1\n      dup2\n      mstore\n      0x20\n      add\n      0x00\n      keccak256\n        /* \"contracts/manager/FoodManager.sol\":1732:1752  foods[foodId].foodId */\n      0x00\n      add\n      sload\n        /* \"contracts/manager/FoodManager.sol\":1732:1757  foods[foodId].foodId != 0 */\n      sub\n        /* \"contracts/manager/FoodManager.sol\":1724:1781  require(foods[foodId].foodId != 0, \"Food does not exist\") */\n      tag_151\n      jumpi\n      mload(0x40)\n      0x08c379a000000000000000000000000000000000000000000000000000000000\n      dup2\n      mstore\n      0x04\n      add\n      tag_152\n      swap1\n      tag_99\n      jump\t// in\n    tag_152:\n      mload(0x40)\n      dup1\n      swap2\n      sub\n      swap1\n      revert\n    tag_151:\n        /* \"contracts/manager/FoodManager.sol\":1797:1803  uint i */\n      0x00\n        /* \"contracts/manager/FoodManager.sol\":1806:1807  0 */\n      0x00\n        /* \"contracts/manager/FoodManager.sol\":1797:1807  uint i = 0 */\n      swap1\n      pop\n        /* \"contracts/manager/FoodManager.sol\":1792:1897  for (uint i = 0; i < details.length; i++) {... */\n    tag_153:\n        /* \"contracts/manager/FoodManager.sol\":1813:1820  details */\n      dup2\n        /* \"contracts/manager/FoodManager.sol\":1813:1827  details.length */\n      mload\n        /* \"contracts/manager/FoodManager.sol\":1809:1810  i */\n      dup2\n        /* \"contracts/manager/FoodManager.sol\":1809:1827  i < details.length */\n      lt\n        /* \"contracts/manager/FoodManager.sol\":1792:1897  for (uint i = 0; i < details.length; i++) {... */\n      iszero\n      tag_154\n      jumpi\n        /* \"contracts/manager/FoodManager.sol\":1849:1860  foodDetails */\n      0x03\n        /* \"contracts/manager/FoodManager.sol\":1849:1868  foodDetails[foodId] */\n      0x00\n        /* \"contracts/manager/FoodManager.sol\":1861:1867  foodId */\n      dup5\n        /* \"contracts/manager/FoodManager.sol\":1849:1868  foodDetails[foodId] */\n      dup2\n      mstore\n      0x20\n      add\n      swap1\n      dup2\n      mstore\n      0x20\n      add\n      0x00\n      keccak256\n        /* \"contracts/manager/FoodManager.sol\":1874:1881  details */\n      dup3\n        /* \"contracts/manager/FoodManager.sol\":1882:1883  i */\n      dup3\n        /* \"contracts/manager/FoodManager.sol\":1874:1884  details[i] */\n      dup2\n      mload\n      dup2\n      lt\n      tag_156\n      jumpi\n      tag_157\n      tag_91\n      jump\t// in\n    tag_157:\n    tag_156:\n      0x20\n      mul\n      0x20\n      add\n      add\n      mload\n        /* \"contracts/manager/FoodManager.sol\":1849:1885  foodDetails[foodId].push(details[i]) */\n      swap1\n      dup1\n      0x01\n      dup2\n      sload\n      add\n      dup1\n      dup3\n      sstore\n      dup1\n      swap2\n      pop\n      pop\n      0x01\n      swap1\n      sub\n      swap1\n      0x00\n      mstore\n      keccak256(0x00, 0x20)\n      swap1\n      0x04\n      mul\n      add\n      0x00\n      swap1\n      swap2\n      swap1\n      swap2\n      swap1\n      swap2\n      pop\n      0x00\n      dup3\n      add\n      mload\n      dup2\n      0x00\n      add\n      sstore\n      0x20\n      dup3\n      add\n      mload\n      dup2\n      0x01\n      add\n      swap1\n      dup2\n      tag_159\n      swap2\n      swap1\n      tag_82\n      jump\t// in\n    tag_159:\n      pop\n      0x40\n      dup3\n      add\n      mload\n      dup2\n      0x02\n      add\n      sstore\n      0x60\n      dup3\n      add\n      mload\n      dup2\n      0x03\n      add\n      sstore\n      pop\n      pop\n        /* \"contracts/manager/FoodManager.sol\":1829:1832  i++ */\n      dup1\n      dup1\n      0x01\n      add\n      swap2\n      pop\n      pop\n        /* \"contracts/manager/FoodManager.sol\":1792:1897  for (uint i = 0; i < details.length; i++) {... */\n      jump(tag_153)\n    tag_154:\n      pop\n        /* \"contracts/manager/FoodManager.sol\":1576:1904  function addFoodDetails(uint foodId, FoodDetail[] memory details) external override onlyAdmin {... */\n      pop\n      pop\n      jump\t// out\n    tag_54:\n      mload(0x40)\n      dup1\n      0xa0\n      add\n      0x40\n      mstore\n      dup1\n      0x00\n      dup2\n      mstore\n      0x20\n      add\n      0x60\n      dup2\n      mstore\n      0x20\n      add\n      0x60\n      dup2\n      mstore\n      0x20\n      add\n      0x00\n      dup2\n      mstore\n      0x20\n      add\n      0x60\n      dup2\n      mstore\n      pop\n      swap1\n      jump\t// out\n    tag_115:\n      mload(0x40)\n      dup1\n      0x40\n      add\n      0x40\n      mstore\n      dup1\n      tag_160\n      tag_54\n      jump\t// in\n    tag_160:\n      dup2\n      mstore\n      0x20\n      add\n      0x60\n      dup2\n      mstore\n      pop\n      swap1\n      jump\t// out\n        /* \"#utility.yul\":7:82   */\n    tag_161:\n        /* \"#utility.yul\":40:46   */\n      0x00\n        /* \"#utility.yul\":73:75   */\n      0x40\n        /* \"#utility.yul\":67:76   */\n      mload\n        /* \"#utility.yul\":57:76   */\n      swap1\n      pop\n        /* \"#utility.yul\":7:82   */\n      swap1\n      jump\t// out\n        /* \"#utility.yul\":88:205   */\n    tag_162:\n        /* \"#utility.yul\":197:198   */\n      0x00\n        /* \"#utility.yul\":194:195   */\n      0x00\n        /* \"#utility.yul\":187:199   */\n      revert\n        /* \"#utility.yul\":211:328   */\n    tag_163:\n        /* \"#utility.yul\":320:321   */\n      0x00\n        /* \"#utility.yul\":317:318   */\n      0x00\n        /* \"#utility.yul\":310:322   */\n      revert\n        /* \"#utility.yul\":334:460   */\n    tag_164:\n        /* \"#utility.yul\":371:378   */\n      0x00\n        /* \"#utility.yul\":411:453   */\n      0xffffffffffffffffffffffffffffffffffffffff\n        /* \"#utility.yul\":404:409   */\n      dup3\n        /* \"#utility.yul\":400:454   */\n      and\n        /* \"#utility.yul\":389:454   */\n      swap1\n      pop\n        /* \"#utility.yul\":334:460   */\n      swap2\n      swap1\n      pop\n      jump\t// out\n        /* \"#utility.yul\":466:562   */\n    tag_165:\n        /* \"#utility.yul\":503:510   */\n      0x00\n        /* \"#utility.yul\":532:556   */\n      tag_243\n        /* \"#utility.yul\":550:555   */\n      dup3\n        /* \"#utility.yul\":532:556   */\n      tag_164\n      jump\t// in\n    tag_243:\n        /* \"#utility.yul\":521:556   */\n      swap1\n      pop\n        /* \"#utility.yul\":466:562   */\n      swap2\n      swap1\n      pop\n      jump\t// out\n        /* \"#utility.yul\":568:690   */\n    tag_166:\n        /* \"#utility.yul\":641:665   */\n      tag_245\n        /* \"#utility.yul\":659:664   */\n      dup2\n        /* \"#utility.yul\":641:665   */\n      tag_165\n      jump\t// in\n    tag_245:\n        /* \"#utility.yul\":634:639   */\n      dup2\n        /* \"#utility.yul\":631:666   */\n      eq\n        /* \"#utility.yul\":621:684   */\n      tag_246\n      jumpi\n        /* \"#utility.yul\":680:681   */\n      0x00\n        /* \"#utility.yul\":677:678   */\n      0x00\n        /* \"#utility.yul\":670:682   */\n      revert\n        /* \"#utility.yul\":621:684   */\n    tag_246:\n        /* \"#utility.yul\":568:690   */\n      pop\n      jump\t// out\n        /* \"#utility.yul\":696:835   */\n    tag_167:\n        /* \"#utility.yul\":742:747   */\n      0x00\n        /* \"#utility.yul\":780:786   */\n      dup2\n        /* \"#utility.yul\":767:787   */\n      calldataload\n        /* \"#utility.yul\":758:787   */\n      swap1\n      pop\n        /* \"#utility.yul\":796:829   */\n      tag_248\n        /* \"#utility.yul\":823:828   */\n      dup2\n        /* \"#utility.yul\":796:829   */\n      tag_166\n      jump\t// in\n    tag_248:\n        /* \"#utility.yul\":696:835   */\n      swap3\n      swap2\n      pop\n      pop\n      jump\t// out\n        /* \"#utility.yul\":841:1170   */\n    tag_15:\n        /* \"#utility.yul\":900:906   */\n      0x00\n        /* \"#utility.yul\":949:951   */\n      0x20\n        /* \"#utility.yul\":937:946   */\n      dup3\n        /* \"#utility.yul\":928:935   */\n      dup5\n        /* \"#utility.yul\":924:947   */\n      sub\n        /* \"#utility.yul\":920:952   */\n      slt\n        /* \"#utility.yul\":917:1036   */\n      iszero\n      tag_250\n      jumpi\n        /* \"#utility.yul\":955:1034   */\n      tag_251\n      tag_162\n      jump\t// in\n    tag_251:\n        /* \"#utility.yul\":917:1036   */\n    tag_250:\n        /* \"#utility.yul\":1075:1076   */\n      0x00\n        /* \"#utility.yul\":1100:1153   */\n      tag_252\n        /* \"#utility.yul\":1145:1152   */\n      dup5\n        /* \"#utility.yul\":1136:1142   */\n      dup3\n        /* \"#utility.yul\":1125:1134   */\n      dup6\n        /* \"#utility.yul\":1121:1143   */\n      add\n        /* \"#utility.yul\":1100:1153   */\n      tag_167\n      jump\t// in\n    tag_252:\n        /* \"#utility.yul\":1090:1153   */\n      swap2\n      pop\n        /* \"#utility.yul\":1046:1163   */\n      pop\n        /* \"#utility.yul\":841:1170   */\n      swap3\n      swap2\n      pop\n      pop\n      jump\t// out\n        /* \"#utility.yul\":1176:1253   */\n    tag_168:\n        /* \"#utility.yul\":1213:1220   */\n      0x00\n        /* \"#utility.yul\":1242:1247   */\n      dup2\n        /* \"#utility.yul\":1231:1247   */\n      swap1\n      pop\n        /* \"#utility.yul\":1176:1253   */\n      swap2\n      swap1\n      pop\n      jump\t// out\n        /* \"#utility.yul\":1259:1377   */\n    tag_169:\n        /* \"#utility.yul\":1346:1370   */\n      tag_255\n        /* \"#utility.yul\":1364:1369   */\n      dup2\n        /* \"#utility.yul\":1346:1370   */\n      tag_168\n      jump\t// in\n    tag_255:\n        /* \"#utility.yul\":1341:1344   */\n      dup3\n        /* \"#utility.yul\":1334:1371   */\n      mstore\n        /* \"#utility.yul\":1259:1377   */\n      pop\n      pop\n      jump\t// out\n        /* \"#utility.yul\":1383:1605   */\n    tag_20:\n        /* \"#utility.yul\":1476:1480   */\n      0x00\n        /* \"#utility.yul\":1514:1516   */\n      0x20\n        /* \"#utility.yul\":1503:1512   */\n      dup3\n        /* \"#utility.yul\":1499:1517   */\n      add\n        /* \"#utility.yul\":1491:1517   */\n      swap1\n      pop\n        /* \"#utility.yul\":1527:1598   */\n      tag_257\n        /* \"#utility.yul\":1595:1596   */\n      0x00\n        /* \"#utility.yul\":1584:1593   */\n      dup4\n        /* \"#utility.yul\":1580:1597   */\n      add\n        /* \"#utility.yul\":1571:1577   */\n      dup5\n        /* \"#utility.yul\":1527:1598   */\n      tag_169\n      jump\t// in\n    tag_257:\n        /* \"#utility.yul\":1383:1605   */\n      swap3\n      swap2\n      pop\n      pop\n      jump\t// out\n        /* \"#utility.yul\":1611:1733   */\n    tag_170:\n        /* \"#utility.yul\":1684:1708   */\n      tag_259\n        /* \"#utility.yul\":1702:1707   */\n      dup2\n        /* \"#utility.yul\":1684:1708   */\n      tag_168\n      jump\t// in\n    tag_259:\n        /* \"#utility.yul\":1677:1682   */\n      dup2\n        /* \"#utility.yul\":1674:1709   */\n      eq\n        /* \"#utility.yul\":1664:1727   */\n      tag_260\n      jumpi\n        /* \"#utility.yul\":1723:1724   */\n      0x00\n        /* \"#utility.yul\":1720:1721   */\n      0x00\n        /* \"#utility.yul\":1713:1725   */\n      revert\n        /* \"#utility.yul\":1664:1727   */\n    tag_260:\n        /* \"#utility.yul\":1611:1733   */\n      pop\n      jump\t// out\n        /* \"#utility.yul\":1739:1878   */\n    tag_171:\n        /* \"#utility.yul\":1785:1790   */\n      0x00\n        /* \"#utility.yul\":1823:1829   */\n      dup2\n        /* \"#utility.yul\":1810:1830   */\n      calldataload\n        /* \"#utility.yul\":1801:1830   */\n      swap1\n      pop\n        /* \"#utility.yul\":1839:1872   */\n      tag_262\n        /* \"#utility.yul\":1866:1871   */\n      dup2\n        /* \"#utility.yul\":1839:1872   */\n      tag_170\n      jump\t// in\n    tag_262:\n        /* \"#utility.yul\":1739:1878   */\n      swap3\n      swap2\n      pop\n      pop\n      jump\t// out\n        /* \"#utility.yul\":1884:2213   */\n    tag_23:\n        /* \"#utility.yul\":1943:1949   */\n      0x00\n        /* \"#utility.yul\":1992:1994   */\n      0x20\n        /* \"#utility.yul\":1980:1989   */\n      dup3\n        /* \"#utility.yul\":1971:1978   */\n      dup5\n        /* \"#utility.yul\":1967:1990   */\n      sub\n        /* \"#utility.yul\":1963:1995   */\n      slt\n        /* \"#utility.yul\":1960:2079   */\n      iszero\n      tag_264\n      jumpi\n        /* \"#utility.yul\":1998:2077   */\n      tag_265\n      tag_162\n      jump\t// in\n    tag_265:\n        /* \"#utility.yul\":1960:2079   */\n    tag_264:\n        /* \"#utility.yul\":2118:2119   */\n      0x00\n        /* \"#utility.yul\":2143:2196   */\n      tag_266\n        /* \"#utility.yul\":2188:2195   */\n      dup5\n        /* \"#utility.yul\":2179:2185   */\n      dup3\n        /* \"#utility.yul\":2168:2177   */\n      dup6\n        /* \"#utility.yul\":2164:2186   */\n      add\n        /* \"#utility.yul\":2143:2196   */\n      tag_171\n      jump\t// in\n    tag_266:\n        /* \"#utility.yul\":2133:2196   */\n      swap2\n      pop\n        /* \"#utility.yul\":2089:2206   */\n      pop\n        /* \"#utility.yul\":1884:2213   */\n      swap3\n      swap2\n      pop\n      pop\n      jump\t// out\n        /* \"#utility.yul\":2219:2327   */\n    tag_172:\n        /* \"#utility.yul\":2296:2320   */\n      tag_268\n        /* \"#utility.yul\":2314:2319   */\n      dup2\n        /* \"#utility.yul\":2296:2320   */\n      tag_168\n      jump\t// in\n    tag_268:\n        /* \"#utility.yul\":2291:2294   */\n      dup3\n        /* \"#utility.yul\":2284:2321   */\n      mstore\n        /* \"#utility.yul\":2219:2327   */\n      pop\n      pop\n      jump\t// out\n        /* \"#utility.yul\":2333:2432   */\n    tag_173:\n        /* \"#utility.yul\":2385:2391   */\n      0x00\n        /* \"#utility.yul\":2419:2424   */\n      dup2\n        /* \"#utility.yul\":2413:2425   */\n      mload\n        /* \"#utility.yul\":2403:2425   */\n      swap1\n      pop\n        /* \"#utility.yul\":2333:2432   */\n      swap2\n      swap1\n      pop\n      jump\t// out\n        /* \"#utility.yul\":2438:2597   */\n    tag_174:\n        /* \"#utility.yul\":2512:2523   */\n      0x00\n        /* \"#utility.yul\":2546:2552   */\n      dup3\n        /* \"#utility.yul\":2541:2544   */\n      dup3\n        /* \"#utility.yul\":2534:2553   */\n      mstore\n        /* \"#utility.yul\":2586:2590   */\n      0x20\n        /* \"#utility.yul\":2581:2584   */\n      dup3\n        /* \"#utility.yul\":2577:2591   */\n      add\n        /* \"#utility.yul\":2562:2591   */\n      swap1\n      pop\n        /* \"#utility.yul\":2438:2597   */\n      swap3\n      swap2\n      pop\n      pop\n      jump\t// out\n        /* \"#utility.yul\":2603:2742   */\n    tag_175:\n        /* \"#utility.yul\":2692:2698   */\n      dup3\n        /* \"#utility.yul\":2687:2690   */\n      dup2\n        /* \"#utility.yul\":2682:2685   */\n      dup4\n        /* \"#utility.yul\":2676:2699   */\n      mcopy\n        /* \"#utility.yul\":2733:2734   */\n      0x00\n        /* \"#utility.yul\":2724:2730   */\n      dup4\n        /* \"#utility.yul\":2719:2722   */\n      dup4\n        /* \"#utility.yul\":2715:2731   */\n      add\n        /* \"#utility.yul\":2708:2735   */\n      mstore\n        /* \"#utility.yul\":2603:2742   */\n      pop\n      pop\n      pop\n      jump\t// out\n        /* \"#utility.yul\":2748:2850   */\n    tag_176:\n        /* \"#utility.yul\":2789:2795   */\n      0x00\n        /* \"#utility.yul\":2840:2842   */\n      0x1f\n        /* \"#utility.yul\":2836:2843   */\n      not\n        /* \"#utility.yul\":2831:2833   */\n      0x1f\n        /* \"#utility.yul\":2824:2829   */\n      dup4\n        /* \"#utility.yul\":2820:2834   */\n      add\n        /* \"#utility.yul\":2816:2844   */\n      and\n        /* \"#utility.yul\":2806:2844   */\n      swap1\n      pop\n        /* \"#utility.yul\":2748:2850   */\n      swap2\n      swap1\n      pop\n      jump\t// out\n        /* \"#utility.yul\":2856:3213   */\n    tag_177:\n        /* \"#utility.yul\":2934:2937   */\n      0x00\n        /* \"#utility.yul\":2962:3001   */\n      tag_274\n        /* \"#utility.yul\":2995:3000   */\n      dup3\n        /* \"#utility.yul\":2962:3001   */\n      tag_173\n      jump\t// in\n    tag_274:\n        /* \"#utility.yul\":3017:3078   */\n      tag_275\n        /* \"#utility.yul\":3071:3077   */\n      dup2\n        /* \"#utility.yul\":3066:3069   */\n      dup6\n        /* \"#utility.yul\":3017:3078   */\n      tag_174\n      jump\t// in\n    tag_275:\n        /* \"#utility.yul\":3010:3078   */\n      swap4\n      pop\n        /* \"#utility.yul\":3087:3152   */\n      tag_276\n        /* \"#utility.yul\":3145:3151   */\n      dup2\n        /* \"#utility.yul\":3140:3143   */\n      dup6\n        /* \"#utility.yul\":3133:3137   */\n      0x20\n        /* \"#utility.yul\":3126:3131   */\n      dup7\n        /* \"#utility.yul\":3122:3138   */\n      add\n        /* \"#utility.yul\":3087:3152   */\n      tag_175\n      jump\t// in\n    tag_276:\n        /* \"#utility.yul\":3177:3206   */\n      tag_277\n        /* \"#utility.yul\":3199:3205   */\n      dup2\n        /* \"#utility.yul\":3177:3206   */\n      tag_176\n      jump\t// in\n    tag_277:\n        /* \"#utility.yul\":3172:3175   */\n      dup5\n        /* \"#utility.yul\":3168:3207   */\n      add\n        /* \"#utility.yul\":3161:3207   */\n      swap2\n      pop\n        /* \"#utility.yul\":2938:3213   */\n      pop\n        /* \"#utility.yul\":2856:3213   */\n      swap3\n      swap2\n      pop\n      pop\n      jump\t// out\n        /* \"#utility.yul\":3253:4534   */\n    tag_178:\n        /* \"#utility.yul\":3364:3367   */\n      0x00\n        /* \"#utility.yul\":3400:3404   */\n      0xa0\n        /* \"#utility.yul\":3395:3398   */\n      dup4\n        /* \"#utility.yul\":3391:3405   */\n      add\n        /* \"#utility.yul\":3489:3493   */\n      0x00\n        /* \"#utility.yul\":3482:3487   */\n      dup4\n        /* \"#utility.yul\":3478:3494   */\n      add\n        /* \"#utility.yul\":3472:3495   */\n      mload\n        /* \"#utility.yul\":3508:3571   */\n      tag_279\n        /* \"#utility.yul\":3565:3569   */\n      0x00\n        /* \"#utility.yul\":3560:3563   */\n      dup7\n        /* \"#utility.yul\":3556:3570   */\n      add\n        /* \"#utility.yul\":3542:3554   */\n      dup3\n        /* \"#utility.yul\":3508:3571   */\n      tag_172\n      jump\t// in\n    tag_279:\n        /* \"#utility.yul\":3415:3581   */\n      pop\n        /* \"#utility.yul\":3663:3667   */\n      0x20\n        /* \"#utility.yul\":3656:3661   */\n      dup4\n        /* \"#utility.yul\":3652:3668   */\n      add\n        /* \"#utility.yul\":3646:3669   */\n      mload\n        /* \"#utility.yul\":3716:3719   */\n      dup5\n        /* \"#utility.yul\":3710:3714   */\n      dup3\n        /* \"#utility.yul\":3706:3720   */\n      sub\n        /* \"#utility.yul\":3699:3703   */\n      0x20\n        /* \"#utility.yul\":3694:3697   */\n      dup7\n        /* \"#utility.yul\":3690:3704   */\n      add\n        /* \"#utility.yul\":3683:3721   */\n      mstore\n        /* \"#utility.yul\":3742:3815   */\n      tag_280\n        /* \"#utility.yul\":3810:3814   */\n      dup3\n        /* \"#utility.yul\":3796:3808   */\n      dup3\n        /* \"#utility.yul\":3742:3815   */\n      tag_177\n      jump\t// in\n    tag_280:\n        /* \"#utility.yul\":3734:3815   */\n      swap2\n      pop\n        /* \"#utility.yul\":3591:3826   */\n      pop\n        /* \"#utility.yul\":3915:3919   */\n      0x40\n        /* \"#utility.yul\":3908:3913   */\n      dup4\n        /* \"#utility.yul\":3904:3920   */\n      add\n        /* \"#utility.yul\":3898:3921   */\n      mload\n        /* \"#utility.yul\":3968:3971   */\n      dup5\n        /* \"#utility.yul\":3962:3966   */\n      dup3\n        /* \"#utility.yul\":3958:3972   */\n      sub\n        /* \"#utility.yul\":3951:3955   */\n      0x40\n        /* \"#utility.yul\":3946:3949   */\n      dup7\n        /* \"#utility.yul\":3942:3956   */\n      add\n        /* \"#utility.yul\":3935:3973   */\n      mstore\n        /* \"#utility.yul\":3994:4067   */\n      tag_281\n        /* \"#utility.yul\":4062:4066   */\n      dup3\n        /* \"#utility.yul\":4048:4060   */\n      dup3\n        /* \"#utility.yul\":3994:4067   */\n      tag_177\n      jump\t// in\n    tag_281:\n        /* \"#utility.yul\":3986:4067   */\n      swap2\n      pop\n        /* \"#utility.yul\":3836:4078   */\n      pop\n        /* \"#utility.yul\":4166:4170   */\n      0x60\n        /* \"#utility.yul\":4159:4164   */\n      dup4\n        /* \"#utility.yul\":4155:4171   */\n      add\n        /* \"#utility.yul\":4149:4172   */\n      mload\n        /* \"#utility.yul\":4185:4248   */\n      tag_282\n        /* \"#utility.yul\":4242:4246   */\n      0x60\n        /* \"#utility.yul\":4237:4240   */\n      dup7\n        /* \"#utility.yul\":4233:4247   */\n      add\n        /* \"#utility.yul\":4219:4231   */\n      dup3\n        /* \"#utility.yul\":4185:4248   */\n      tag_172\n      jump\t// in\n    tag_282:\n        /* \"#utility.yul\":4088:4258   */\n      pop\n        /* \"#utility.yul\":4344:4348   */\n      0x80\n        /* \"#utility.yul\":4337:4342   */\n      dup4\n        /* \"#utility.yul\":4333:4349   */\n      add\n        /* \"#utility.yul\":4327:4350   */\n      mload\n        /* \"#utility.yul\":4397:4400   */\n      dup5\n        /* \"#utility.yul\":4391:4395   */\n      dup3\n        /* \"#utility.yul\":4387:4401   */\n      sub\n        /* \"#utility.yul\":4380:4384   */\n      0x80\n        /* \"#utility.yul\":4375:4378   */\n      dup7\n        /* \"#utility.yul\":4371:4385   */\n      add\n        /* \"#utility.yul\":4364:4402   */\n      mstore\n        /* \"#utility.yul\":4423:4496   */\n      tag_283\n        /* \"#utility.yul\":4491:4495   */\n      dup3\n        /* \"#utility.yul\":4477:4489   */\n      dup3\n        /* \"#utility.yul\":4423:4496   */\n      tag_177\n      jump\t// in\n    tag_283:\n        /* \"#utility.yul\":4415:4496   */\n      swap2\n      pop\n        /* \"#utility.yul\":4268:4507   */\n      pop\n        /* \"#utility.yul\":4524:4528   */\n      dup1\n        /* \"#utility.yul\":4517:4528   */\n      swap2\n      pop\n        /* \"#utility.yul\":3369:4534   */\n      pop\n        /* \"#utility.yul\":3253:4534   */\n      swap3\n      swap2\n      pop\n      pop\n      jump\t// out\n        /* \"#utility.yul\":4540:4897   */\n    tag_26:\n        /* \"#utility.yul\":4675:4679   */\n      0x00\n        /* \"#utility.yul\":4713:4715   */\n      0x20\n        /* \"#utility.yul\":4702:4711   */\n      dup3\n        /* \"#utility.yul\":4698:4716   */\n      add\n        /* \"#utility.yul\":4690:4716   */\n      swap1\n      pop\n        /* \"#utility.yul\":4762:4771   */\n      dup2\n        /* \"#utility.yul\":4756:4760   */\n      dup2\n        /* \"#utility.yul\":4752:4772   */\n      sub\n        /* \"#utility.yul\":4748:4749   */\n      0x00\n        /* \"#utility.yul\":4737:4746   */\n      dup4\n        /* \"#utility.yul\":4733:4750   */\n      add\n        /* \"#utility.yul\":4726:4773   */\n      mstore\n        /* \"#utility.yul\":4790:4890   */\n      tag_285\n        /* \"#utility.yul\":4885:4889   */\n      dup2\n        /* \"#utility.yul\":4876:4882   */\n      dup5\n        /* \"#utility.yul\":4790:4890   */\n      tag_178\n      jump\t// in\n    tag_285:\n        /* \"#utility.yul\":4782:4890   */\n      swap1\n      pop\n        /* \"#utility.yul\":4540:4897   */\n      swap3\n      swap2\n      pop\n      pop\n      jump\t// out\n        /* \"#utility.yul\":4903:4993   */\n    tag_179:\n        /* \"#utility.yul\":4937:4944   */\n      0x00\n        /* \"#utility.yul\":4980:4985   */\n      dup2\n        /* \"#utility.yul\":4973:4986   */\n      iszero\n        /* \"#utility.yul\":4966:4987   */\n      iszero\n        /* \"#utility.yul\":4955:4987   */\n      swap1\n      pop\n        /* \"#utility.yul\":4903:4993   */\n      swap2\n      swap1\n      pop\n      jump\t// out\n        /* \"#utility.yul\":4999:5108   */\n    tag_180:\n        /* \"#utility.yul\":5080:5101   */\n      tag_288\n        /* \"#utility.yul\":5095:5100   */\n      dup2\n        /* \"#utility.yul\":5080:5101   */\n      tag_179\n      jump\t// in\n    tag_288:\n        /* \"#utility.yul\":5075:5078   */\n      dup3\n        /* \"#utility.yul\":5068:5102   */\n      mstore\n        /* \"#utility.yul\":4999:5108   */\n      pop\n      pop\n      jump\t// out\n        /* \"#utility.yul\":5114:5324   */\n    tag_31:\n        /* \"#utility.yul\":5201:5205   */\n      0x00\n        /* \"#utility.yul\":5239:5241   */\n      0x20\n        /* \"#utility.yul\":5228:5237   */\n      dup3\n        /* \"#utility.yul\":5224:5242   */\n      add\n        /* \"#utility.yul\":5216:5242   */\n      swap1\n      pop\n        /* \"#utility.yul\":5252:5317   */\n      tag_290\n        /* \"#utility.yul\":5314:5315   */\n      0x00\n        /* \"#utility.yul\":5303:5312   */\n      dup4\n        /* \"#utility.yul\":5299:5316   */\n      add\n        /* \"#utility.yul\":5290:5296   */\n      dup5\n        /* \"#utility.yul\":5252:5317   */\n      tag_180\n      jump\t// in\n    tag_290:\n        /* \"#utility.yul\":5114:5324   */\n      swap3\n      swap2\n      pop\n      pop\n      jump\t// out\n        /* \"#utility.yul\":5330:5447   */\n    tag_181:\n        /* \"#utility.yul\":5439:5440   */\n      0x00\n        /* \"#utility.yul\":5436:5437   */\n      0x00\n        /* \"#utility.yul\":5429:5441   */\n      revert\n        /* \"#utility.yul\":5453:5570   */\n    tag_182:\n        /* \"#utility.yul\":5562:5563   */\n      0x00\n        /* \"#utility.yul\":5559:5560   */\n      0x00\n        /* \"#utility.yul\":5552:5564   */\n      revert\n        /* \"#utility.yul\":5576:5756   */\n    tag_111:\n        /* \"#utility.yul\":5624:5701   */\n      0x4e487b7100000000000000000000000000000000000000000000000000000000\n        /* \"#utility.yul\":5621:5622   */\n      0x00\n        /* \"#utility.yul\":5614:5702   */\n      mstore\n        /* \"#utility.yul\":5721:5725   */\n      0x41\n        /* \"#utility.yul\":5718:5719   */\n      0x04\n        /* \"#utility.yul\":5711:5726   */\n      mstore\n        /* \"#utility.yul\":5745:5749   */\n      0x24\n        /* \"#utility.yul\":5742:5743   */\n      0x00\n        /* \"#utility.yul\":5735:5750   */\n      revert\n        /* \"#utility.yul\":5762:6043   */\n    tag_183:\n        /* \"#utility.yul\":5845:5872   */\n      tag_295\n        /* \"#utility.yul\":5867:5871   */\n      dup3\n        /* \"#utility.yul\":5845:5872   */\n      tag_176\n      jump\t// in\n    tag_295:\n        /* \"#utility.yul\":5837:5843   */\n      dup2\n        /* \"#utility.yul\":5833:5873   */\n      add\n        /* \"#utility.yul\":5975:5981   */\n      dup2\n        /* \"#utility.yul\":5963:5973   */\n      dup2\n        /* \"#utility.yul\":5960:5982   */\n      lt\n        /* \"#utility.yul\":5939:5957   */\n      0xffffffffffffffff\n        /* \"#utility.yul\":5927:5937   */\n      dup3\n        /* \"#utility.yul\":5924:5958   */\n      gt\n        /* \"#utility.yul\":5921:5983   */\n      or\n        /* \"#utility.yul\":5918:6006   */\n      iszero\n      tag_296\n      jumpi\n        /* \"#utility.yul\":5986:6004   */\n      tag_297\n      tag_111\n      jump\t// in\n    tag_297:\n        /* \"#utility.yul\":5918:6006   */\n    tag_296:\n        /* \"#utility.yul\":6026:6036   */\n      dup1\n        /* \"#utility.yul\":6022:6024   */\n      0x40\n        /* \"#utility.yul\":6015:6037   */\n      mstore\n        /* \"#utility.yul\":5805:6043   */\n      pop\n        /* \"#utility.yul\":5762:6043   */\n      pop\n      pop\n      jump\t// out\n        /* \"#utility.yul\":6049:6178   */\n    tag_184:\n        /* \"#utility.yul\":6083:6089   */\n      0x00\n        /* \"#utility.yul\":6110:6130   */\n      tag_299\n      tag_161\n      jump\t// in\n    tag_299:\n        /* \"#utility.yul\":6100:6130   */\n      swap1\n      pop\n        /* \"#utility.yul\":6139:6172   */\n      tag_300\n        /* \"#utility.yul\":6167:6171   */\n      dup3\n        /* \"#utility.yul\":6159:6165   */\n      dup3\n        /* \"#utility.yul\":6139:6172   */\n      tag_183\n      jump\t// in\n    tag_300:\n        /* \"#utility.yul\":6049:6178   */\n      swap2\n      swap1\n      pop\n      jump\t// out\n        /* \"#utility.yul\":6184:6492   */\n    tag_185:\n        /* \"#utility.yul\":6246:6250   */\n      0x00\n        /* \"#utility.yul\":6336:6354   */\n      0xffffffffffffffff\n        /* \"#utility.yul\":6328:6334   */\n      dup3\n        /* \"#utility.yul\":6325:6355   */\n      gt\n        /* \"#utility.yul\":6322:6378   */\n      iszero\n      tag_302\n      jumpi\n        /* \"#utility.yul\":6358:6376   */\n      tag_303\n      tag_111\n      jump\t// in\n    tag_303:\n        /* \"#utility.yul\":6322:6378   */\n    tag_302:\n        /* \"#utility.yul\":6396:6425   */\n      tag_304\n        /* \"#utility.yul\":6418:6424   */\n      dup3\n        /* \"#utility.yul\":6396:6425   */\n      tag_176\n      jump\t// in\n    tag_304:\n        /* \"#utility.yul\":6388:6425   */\n      swap1\n      pop\n        /* \"#utility.yul\":6480:6484   */\n      0x20\n        /* \"#utility.yul\":6474:6478   */\n      dup2\n        /* \"#utility.yul\":6470:6485   */\n      add\n        /* \"#utility.yul\":6462:6485   */\n      swap1\n      pop\n        /* \"#utility.yul\":6184:6492   */\n      swap2\n      swap1\n      pop\n      jump\t// out\n        /* \"#utility.yul\":6498:6646   */\n    tag_186:\n        /* \"#utility.yul\":6596:6602   */\n      dup3\n        /* \"#utility.yul\":6591:6594   */\n      dup2\n        /* \"#utility.yul\":6586:6589   */\n      dup4\n        /* \"#utility.yul\":6573:6603   */\n      calldatacopy\n        /* \"#utility.yul\":6637:6638   */\n      0x00\n        /* \"#utility.yul\":6628:6634   */\n      dup4\n        /* \"#utility.yul\":6623:6626   */\n      dup4\n        /* \"#utility.yul\":6619:6635   */\n      add\n        /* \"#utility.yul\":6612:6639   */\n      mstore\n        /* \"#utility.yul\":6498:6646   */\n      pop\n      pop\n      pop\n      jump\t// out\n        /* \"#utility.yul\":6652:7077   */\n    tag_187:\n        /* \"#utility.yul\":6730:6735   */\n      0x00\n        /* \"#utility.yul\":6755:6821   */\n      tag_307\n        /* \"#utility.yul\":6771:6820   */\n      tag_308\n        /* \"#utility.yul\":6813:6819   */\n      dup5\n        /* \"#utility.yul\":6771:6820   */\n      tag_185\n      jump\t// in\n    tag_308:\n        /* \"#utility.yul\":6755:6821   */\n      tag_184\n      jump\t// in\n    tag_307:\n        /* \"#utility.yul\":6746:6821   */\n      swap1\n      pop\n        /* \"#utility.yul\":6844:6850   */\n      dup3\n        /* \"#utility.yul\":6837:6842   */\n      dup2\n        /* \"#utility.yul\":6830:6851   */\n      mstore\n        /* \"#utility.yul\":6882:6886   */\n      0x20\n        /* \"#utility.yul\":6875:6880   */\n      dup2\n        /* \"#utility.yul\":6871:6887   */\n      add\n        /* \"#utility.yul\":6920:6923   */\n      dup5\n        /* \"#utility.yul\":6911:6917   */\n      dup5\n        /* \"#utility.yul\":6906:6909   */\n      dup5\n        /* \"#utility.yul\":6902:6918   */\n      add\n        /* \"#utility.yul\":6899:6924   */\n      gt\n        /* \"#utility.yul\":6896:7008   */\n      iszero\n      tag_309\n      jumpi\n        /* \"#utility.yul\":6927:7006   */\n      tag_310\n      tag_182\n      jump\t// in\n    tag_310:\n        /* \"#utility.yul\":6896:7008   */\n    tag_309:\n        /* \"#utility.yul\":7017:7071   */\n      tag_311\n        /* \"#utility.yul\":7064:7070   */\n      dup5\n        /* \"#utility.yul\":7059:7062   */\n      dup3\n        /* \"#utility.yul\":7054:7057   */\n      dup6\n        /* \"#utility.yul\":7017:7071   */\n      tag_186\n      jump\t// in\n    tag_311:\n        /* \"#utility.yul\":6736:7077   */\n      pop\n        /* \"#utility.yul\":6652:7077   */\n      swap4\n      swap3\n      pop\n      pop\n      pop\n      jump\t// out\n        /* \"#utility.yul\":7097:7437   */\n    tag_188:\n        /* \"#utility.yul\":7153:7158   */\n      0x00\n        /* \"#utility.yul\":7202:7205   */\n      dup3\n        /* \"#utility.yul\":7195:7199   */\n      0x1f\n        /* \"#utility.yul\":7187:7193   */\n      dup4\n        /* \"#utility.yul\":7183:7200   */\n      add\n        /* \"#utility.yul\":7179:7206   */\n      slt\n        /* \"#utility.yul\":7169:7291   */\n      tag_313\n      jumpi\n        /* \"#utility.yul\":7210:7289   */\n      tag_314\n      tag_181\n      jump\t// in\n    tag_314:\n        /* \"#utility.yul\":7169:7291   */\n    tag_313:\n        /* \"#utility.yul\":7327:7333   */\n      dup2\n        /* \"#utility.yul\":7314:7334   */\n      calldataload\n        /* \"#utility.yul\":7352:7431   */\n      tag_315\n        /* \"#utility.yul\":7427:7430   */\n      dup5\n        /* \"#utility.yul\":7419:7425   */\n      dup3\n        /* \"#utility.yul\":7412:7416   */\n      0x20\n        /* \"#utility.yul\":7404:7410   */\n      dup7\n        /* \"#utility.yul\":7400:7417   */\n      add\n        /* \"#utility.yul\":7352:7431   */\n      tag_187\n      jump\t// in\n    tag_315:\n        /* \"#utility.yul\":7343:7431   */\n      swap2\n      pop\n        /* \"#utility.yul\":7159:7437   */\n      pop\n        /* \"#utility.yul\":7097:7437   */\n      swap3\n      swap2\n      pop\n      pop\n      jump\t// out\n        /* \"#utility.yul\":7443:7781   */\n    tag_189:\n        /* \"#utility.yul\":7547:7551   */\n      0x00\n        /* \"#utility.yul\":7637:7655   */\n      0xffffffffffffffff\n        /* \"#utility.yul\":7629:7635   */\n      dup3\n        /* \"#utility.yul\":7626:7656   */\n      gt\n        /* \"#utility.yul\":7623:7679   */\n      iszero\n      tag_317\n      jumpi\n        /* \"#utility.yul\":7659:7677   */\n      tag_318\n      tag_111\n      jump\t// in\n    tag_318:\n        /* \"#utility.yul\":7623:7679   */\n    tag_317:\n        /* \"#utility.yul\":7709:7713   */\n      0x20\n        /* \"#utility.yul\":7701:7707   */\n      dup3\n        /* \"#utility.yul\":7697:7714   */\n      mul\n        /* \"#utility.yul\":7689:7714   */\n      swap1\n      pop\n        /* \"#utility.yul\":7769:7773   */\n      0x20\n        /* \"#utility.yul\":7763:7767   */\n      dup2\n        /* \"#utility.yul\":7759:7774   */\n      add\n        /* \"#utility.yul\":7751:7774   */\n      swap1\n      pop\n        /* \"#utility.yul\":7443:7781   */\n      swap2\n      swap1\n      pop\n      jump\t// out\n        /* \"#utility.yul\":7787:7904   */\n    tag_190:\n        /* \"#utility.yul\":7896:7897   */\n      0x00\n        /* \"#utility.yul\":7893:7894   */\n      0x00\n        /* \"#utility.yul\":7886:7898   */\n      revert\n        /* \"#utility.yul\":7910:8027   */\n    tag_191:\n        /* \"#utility.yul\":8019:8020   */\n      0x00\n        /* \"#utility.yul\":8016:8017   */\n      0x00\n        /* \"#utility.yul\":8009:8021   */\n      revert\n        /* \"#utility.yul\":8033:8150   */\n    tag_192:\n        /* \"#utility.yul\":8142:8143   */\n      0x00\n        /* \"#utility.yul\":8139:8140   */\n      0x00\n        /* \"#utility.yul\":8132:8144   */\n      revert\n        /* \"#utility.yul\":8181:9262   */\n    tag_193:\n        /* \"#utility.yul\":8257:8262   */\n      0x00\n        /* \"#utility.yul\":8301:8305   */\n      0x80\n        /* \"#utility.yul\":8289:8298   */\n      dup3\n        /* \"#utility.yul\":8284:8287   */\n      dup5\n        /* \"#utility.yul\":8280:8299   */\n      sub\n        /* \"#utility.yul\":8276:8306   */\n      slt\n        /* \"#utility.yul\":8273:8390   */\n      iszero\n      tag_323\n      jumpi\n        /* \"#utility.yul\":8309:8388   */\n      tag_324\n      tag_191\n      jump\t// in\n    tag_324:\n        /* \"#utility.yul\":8273:8390   */\n    tag_323:\n        /* \"#utility.yul\":8408:8429   */\n      tag_325\n        /* \"#utility.yul\":8424:8428   */\n      0x80\n        /* \"#utility.yul\":8408:8429   */\n      tag_184\n      jump\t// in\n    tag_325:\n        /* \"#utility.yul\":8399:8429   */\n      swap1\n      pop\n        /* \"#utility.yul\":8496:8497   */\n      0x00\n        /* \"#utility.yul\":8536:8585   */\n      tag_326\n        /* \"#utility.yul\":8581:8584   */\n      dup5\n        /* \"#utility.yul\":8572:8578   */\n      dup3\n        /* \"#utility.yul\":8561:8570   */\n      dup6\n        /* \"#utility.yul\":8557:8579   */\n      add\n        /* \"#utility.yul\":8536:8585   */\n      tag_171\n      jump\t// in\n    tag_326:\n        /* \"#utility.yul\":8529:8533   */\n      0x00\n        /* \"#utility.yul\":8522:8527   */\n      dup4\n        /* \"#utility.yul\":8518:8534   */\n      add\n        /* \"#utility.yul\":8511:8586   */\n      mstore\n        /* \"#utility.yul\":8439:8597   */\n      pop\n        /* \"#utility.yul\":8684:8686   */\n      0x20\n        /* \"#utility.yul\":8673:8682   */\n      dup3\n        /* \"#utility.yul\":8669:8687   */\n      add\n        /* \"#utility.yul\":8656:8688   */\n      calldataload\n        /* \"#utility.yul\":8715:8733   */\n      0xffffffffffffffff\n        /* \"#utility.yul\":8707:8713   */\n      dup2\n        /* \"#utility.yul\":8704:8734   */\n      gt\n        /* \"#utility.yul\":8701:8818   */\n      iszero\n      tag_327\n      jumpi\n        /* \"#utility.yul\":8737:8816   */\n      tag_328\n      tag_192\n      jump\t// in\n    tag_328:\n        /* \"#utility.yul\":8701:8818   */\n    tag_327:\n        /* \"#utility.yul\":8857:8916   */\n      tag_329\n        /* \"#utility.yul\":8912:8915   */\n      dup5\n        /* \"#utility.yul\":8903:8909   */\n      dup3\n        /* \"#utility.yul\":8892:8901   */\n      dup6\n        /* \"#utility.yul\":8888:8910   */\n      add\n        /* \"#utility.yul\":8857:8916   */\n      tag_188\n      jump\t// in\n    tag_329:\n        /* \"#utility.yul\":8850:8854   */\n      0x20\n        /* \"#utility.yul\":8843:8848   */\n      dup4\n        /* \"#utility.yul\":8839:8855   */\n      add\n        /* \"#utility.yul\":8832:8917   */\n      mstore\n        /* \"#utility.yul\":8607:8928   */\n      pop\n        /* \"#utility.yul\":8991:8993   */\n      0x40\n        /* \"#utility.yul\":9032:9081   */\n      tag_330\n        /* \"#utility.yul\":9077:9080   */\n      dup5\n        /* \"#utility.yul\":9068:9074   */\n      dup3\n        /* \"#utility.yul\":9057:9066   */\n      dup6\n        /* \"#utility.yul\":9053:9075   */\n      add\n        /* \"#utility.yul\":9032:9081   */\n      tag_171\n      jump\t// in\n    tag_330:\n        /* \"#utility.yul\":9025:9029   */\n      0x40\n        /* \"#utility.yul\":9018:9023   */\n      dup4\n        /* \"#utility.yul\":9014:9030   */\n      add\n        /* \"#utility.yul\":9007:9082   */\n      mstore\n        /* \"#utility.yul\":8938:9093   */\n      pop\n        /* \"#utility.yul\":9153:9155   */\n      0x60\n        /* \"#utility.yul\":9194:9243   */\n      tag_331\n        /* \"#utility.yul\":9239:9242   */\n      dup5\n        /* \"#utility.yul\":9230:9236   */\n      dup3\n        /* \"#utility.yul\":9219:9228   */\n      dup6\n        /* \"#utility.yul\":9215:9237   */\n      add\n        /* \"#utility.yul\":9194:9243   */\n      tag_171\n      jump\t// in\n    tag_331:\n        /* \"#utility.yul\":9187:9191   */\n      0x60\n        /* \"#utility.yul\":9180:9185   */\n      dup4\n        /* \"#utility.yul\":9176:9192   */\n      add\n        /* \"#utility.yul\":9169:9244   */\n      mstore\n        /* \"#utility.yul\":9103:9255   */\n      pop\n        /* \"#utility.yul\":8181:9262   */\n      swap3\n      swap2\n      pop\n      pop\n      jump\t// out\n        /* \"#utility.yul\":9295:10291   */\n    tag_194:\n        /* \"#utility.yul\":9418:9423   */\n      0x00\n        /* \"#utility.yul\":9443:9551   */\n      tag_333\n        /* \"#utility.yul\":9459:9550   */\n      tag_334\n        /* \"#utility.yul\":9543:9549   */\n      dup5\n        /* \"#utility.yul\":9459:9550   */\n      tag_189\n      jump\t// in\n    tag_334:\n        /* \"#utility.yul\":9443:9551   */\n      tag_184\n      jump\t// in\n    tag_333:\n        /* \"#utility.yul\":9434:9551   */\n      swap1\n      pop\n        /* \"#utility.yul\":9571:9576   */\n      dup1\n        /* \"#utility.yul\":9600:9606   */\n      dup4\n        /* \"#utility.yul\":9593:9598   */\n      dup3\n        /* \"#utility.yul\":9586:9607   */\n      mstore\n        /* \"#utility.yul\":9634:9638   */\n      0x20\n        /* \"#utility.yul\":9627:9632   */\n      dup3\n        /* \"#utility.yul\":9623:9639   */\n      add\n        /* \"#utility.yul\":9616:9639   */\n      swap1\n      pop\n        /* \"#utility.yul\":9687:9691   */\n      0x20\n        /* \"#utility.yul\":9679:9685   */\n      dup5\n        /* \"#utility.yul\":9675:9692   */\n      mul\n        /* \"#utility.yul\":9667:9673   */\n      dup4\n        /* \"#utility.yul\":9663:9693   */\n      add\n        /* \"#utility.yul\":9716:9719   */\n      dup6\n        /* \"#utility.yul\":9708:9714   */\n      dup2\n        /* \"#utility.yul\":9705:9720   */\n      gt\n        /* \"#utility.yul\":9702:9824   */\n      iszero\n      tag_335\n      jumpi\n        /* \"#utility.yul\":9735:9814   */\n      tag_336\n      tag_190\n      jump\t// in\n    tag_336:\n        /* \"#utility.yul\":9702:9824   */\n    tag_335:\n        /* \"#utility.yul\":9850:9856   */\n      dup4\n        /* \"#utility.yul\":9833:10285   */\n    tag_337:\n        /* \"#utility.yul\":9867:9873   */\n      dup2\n        /* \"#utility.yul\":9862:9865   */\n      dup2\n        /* \"#utility.yul\":9859:9874   */\n      lt\n        /* \"#utility.yul\":9833:10285   */\n      iszero\n      tag_339\n      jumpi\n        /* \"#utility.yul\":9956:9959   */\n      dup1\n        /* \"#utility.yul\":9943:9960   */\n      calldataload\n        /* \"#utility.yul\":9992:10010   */\n      0xffffffffffffffff\n        /* \"#utility.yul\":9979:9990   */\n      dup2\n        /* \"#utility.yul\":9976:10011   */\n      gt\n        /* \"#utility.yul\":9973:10095   */\n      iszero\n      tag_340\n      jumpi\n        /* \"#utility.yul\":10014:10093   */\n      tag_341\n      tag_181\n      jump\t// in\n    tag_341:\n        /* \"#utility.yul\":9973:10095   */\n    tag_340:\n        /* \"#utility.yul\":10138:10149   */\n      dup1\n        /* \"#utility.yul\":10130:10136   */\n      dup7\n        /* \"#utility.yul\":10126:10150   */\n      add\n        /* \"#utility.yul\":10176:10240   */\n      tag_342\n        /* \"#utility.yul\":10236:10239   */\n      dup10\n        /* \"#utility.yul\":10224:10234   */\n      dup3\n        /* \"#utility.yul\":10176:10240   */\n      tag_193\n      jump\t// in\n    tag_342:\n        /* \"#utility.yul\":10171:10174   */\n      dup6\n        /* \"#utility.yul\":10164:10241   */\n      mstore\n        /* \"#utility.yul\":10270:10274   */\n      0x20\n        /* \"#utility.yul\":10265:10268   */\n      dup6\n        /* \"#utility.yul\":10261:10275   */\n      add\n        /* \"#utility.yul\":10254:10275   */\n      swap5\n      pop\n        /* \"#utility.yul\":9909:10285   */\n      pop\n      pop\n        /* \"#utility.yul\":9893:9897   */\n      0x20\n        /* \"#utility.yul\":9888:9891   */\n      dup2\n        /* \"#utility.yul\":9884:9898   */\n      add\n        /* \"#utility.yul\":9877:9898   */\n      swap1\n      pop\n        /* \"#utility.yul\":9833:10285   */\n      jump(tag_337)\n    tag_339:\n        /* \"#utility.yul\":9837:9858   */\n      pop\n        /* \"#utility.yul\":9424:10291   */\n      pop\n      pop\n        /* \"#utility.yul\":9295:10291   */\n      swap4\n      swap3\n      pop\n      pop\n      pop\n      jump\t// out\n        /* \"#utility.yul\":10324:10748   */\n    tag_195:\n        /* \"#utility.yul\":10422:10427   */\n      0x00\n        /* \"#utility.yul\":10471:10474   */\n      dup3\n        /* \"#utility.yul\":10464:10468   */\n      0x1f\n        /* \"#utility.yul\":10456:10462   */\n      dup4\n        /* \"#utility.yul\":10452:10469   */\n      add\n        /* \"#utility.yul\":10448:10475   */\n      slt\n        /* \"#utility.yul\":10438:10560   */\n      tag_344\n      jumpi\n        /* \"#utility.yul\":10479:10558   */\n      tag_345\n      tag_181\n      jump\t// in\n    tag_345:\n        /* \"#utility.yul\":10438:10560   */\n    tag_344:\n        /* \"#utility.yul\":10596:10602   */\n      dup2\n        /* \"#utility.yul\":10583:10603   */\n      calldataload\n        /* \"#utility.yul\":10621:10742   */\n      tag_346\n        /* \"#utility.yul\":10738:10741   */\n      dup5\n        /* \"#utility.yul\":10730:10736   */\n      dup3\n        /* \"#utility.yul\":10723:10727   */\n      0x20\n        /* \"#utility.yul\":10715:10721   */\n      dup7\n        /* \"#utility.yul\":10711:10728   */\n      add\n        /* \"#utility.yul\":10621:10742   */\n      tag_194\n      jump\t// in\n    tag_346:\n        /* \"#utility.yul\":10612:10742   */\n      swap2\n      pop\n        /* \"#utility.yul\":10428:10748   */\n      pop\n        /* \"#utility.yul\":10324:10748   */\n      swap3\n      swap2\n      pop\n      pop\n      jump\t// out\n        /* \"#utility.yul\":10754:12615   */\n    tag_37:\n        /* \"#utility.yul\":10940:10946   */\n      0x00\n        /* \"#utility.yul\":10948:10954   */\n      0x00\n        /* \"#utility.yul\":10956:10962   */\n      0x00\n        /* \"#utility.yul\":10964:10970   */\n      0x00\n        /* \"#utility.yul\":10972:10978   */\n      0x00\n        /* \"#utility.yul\":10980:10986   */\n      0x00\n        /* \"#utility.yul\":11029:11032   */\n      0xc0\n        /* \"#utility.yul\":11017:11026   */\n      dup8\n        /* \"#utility.yul\":11008:11015   */\n      dup10\n        /* \"#utility.yul\":11004:11027   */\n      sub\n        /* \"#utility.yul\":11000:11033   */\n      slt\n        /* \"#utility.yul\":10997:11117   */\n      iszero\n      tag_348\n      jumpi\n        /* \"#utility.yul\":11036:11115   */\n      tag_349\n      tag_162\n      jump\t// in\n    tag_349:\n        /* \"#utility.yul\":10997:11117   */\n    tag_348:\n        /* \"#utility.yul\":11156:11157   */\n      0x00\n        /* \"#utility.yul\":11181:11234   */\n      tag_350\n        /* \"#utility.yul\":11226:11233   */\n      dup10\n        /* \"#utility.yul\":11217:11223   */\n      dup3\n        /* \"#utility.yul\":11206:11215   */\n      dup11\n        /* \"#utility.yul\":11202:11224   */\n      add\n        /* \"#utility.yul\":11181:11234   */\n      tag_171\n      jump\t// in\n    tag_350:\n        /* \"#utility.yul\":11171:11234   */\n      swap7\n      pop\n        /* \"#utility.yul\":11127:11244   */\n      pop\n        /* \"#utility.yul\":11311:11313   */\n      0x20\n        /* \"#utility.yul\":11300:11309   */\n      dup8\n        /* \"#utility.yul\":11296:11314   */\n      add\n        /* \"#utility.yul\":11283:11315   */\n      calldataload\n        /* \"#utility.yul\":11342:11360   */\n      0xffffffffffffffff\n        /* \"#utility.yul\":11334:11340   */\n      dup2\n        /* \"#utility.yul\":11331:11361   */\n      gt\n        /* \"#utility.yul\":11328:11445   */\n      iszero\n      tag_351\n      jumpi\n        /* \"#utility.yul\":11364:11443   */\n      tag_352\n      tag_163\n      jump\t// in\n    tag_352:\n        /* \"#utility.yul\":11328:11445   */\n    tag_351:\n        /* \"#utility.yul\":11469:11532   */\n      tag_353\n        /* \"#utility.yul\":11524:11531   */\n      dup10\n        /* \"#utility.yul\":11515:11521   */\n      dup3\n        /* \"#utility.yul\":11504:11513   */\n      dup11\n        /* \"#utility.yul\":11500:11522   */\n      add\n        /* \"#utility.yul\":11469:11532   */\n      tag_188\n      jump\t// in\n    tag_353:\n        /* \"#utility.yul\":11459:11532   */\n      swap6\n      pop\n        /* \"#utility.yul\":11254:11542   */\n      pop\n        /* \"#utility.yul\":11609:11611   */\n      0x40\n        /* \"#utility.yul\":11598:11607   */\n      dup8\n        /* \"#utility.yul\":11594:11612   */\n      add\n        /* \"#utility.yul\":11581:11613   */\n      calldataload\n        /* \"#utility.yul\":11640:11658   */\n      0xffffffffffffffff\n        /* \"#utility.yul\":11632:11638   */\n      dup2\n        /* \"#utility.yul\":11629:11659   */\n      gt\n        /* \"#utility.yul\":11626:11743   */\n      iszero\n      tag_354\n      jumpi\n        /* \"#utility.yul\":11662:11741   */\n      tag_355\n      tag_163\n      jump\t// in\n    tag_355:\n        /* \"#utility.yul\":11626:11743   */\n    tag_354:\n        /* \"#utility.yul\":11767:11830   */\n      tag_356\n        /* \"#utility.yul\":11822:11829   */\n      dup10\n        /* \"#utility.yul\":11813:11819   */\n      dup3\n        /* \"#utility.yul\":11802:11811   */\n      dup11\n        /* \"#utility.yul\":11798:11820   */\n      add\n        /* \"#utility.yul\":11767:11830   */\n      tag_188\n      jump\t// in\n    tag_356:\n        /* \"#utility.yul\":11757:11830   */\n      swap5\n      pop\n        /* \"#utility.yul\":11552:11840   */\n      pop\n        /* \"#utility.yul\":11879:11881   */\n      0x60\n        /* \"#utility.yul\":11905:11958   */\n      tag_357\n        /* \"#utility.yul\":11950:11957   */\n      dup10\n        /* \"#utility.yul\":11941:11947   */\n      dup3\n        /* \"#utility.yul\":11930:11939   */\n      dup11\n        /* \"#utility.yul\":11926:11948   */\n      add\n        /* \"#utility.yul\":11905:11958   */\n      tag_171\n      jump\t// in\n    tag_357:\n        /* \"#utility.yul\":11895:11958   */\n      swap4\n      pop\n        /* \"#utility.yul\":11850:11968   */\n      pop\n        /* \"#utility.yul\":12035:12038   */\n      0x80\n        /* \"#utility.yul\":12024:12033   */\n      dup8\n        /* \"#utility.yul\":12020:12039   */\n      add\n        /* \"#utility.yul\":12007:12040   */\n      calldataload\n        /* \"#utility.yul\":12067:12085   */\n      0xffffffffffffffff\n        /* \"#utility.yul\":12059:12065   */\n      dup2\n        /* \"#utility.yul\":12056:12086   */\n      gt\n        /* \"#utility.yul\":12053:12170   */\n      iszero\n      tag_358\n      jumpi\n        /* \"#utility.yul\":12089:12168   */\n      tag_359\n      tag_163\n      jump\t// in\n    tag_359:\n        /* \"#utility.yul\":12053:12170   */\n    tag_358:\n        /* \"#utility.yul\":12194:12257   */\n      tag_360\n        /* \"#utility.yul\":12249:12256   */\n      dup10\n        /* \"#utility.yul\":12240:12246   */\n      dup3\n        /* \"#utility.yul\":12229:12238   */\n      dup11\n        /* \"#utility.yul\":12225:12247   */\n      add\n        /* \"#utility.yul\":12194:12257   */\n      tag_188\n      jump\t// in\n    tag_360:\n        /* \"#utility.yul\":12184:12257   */\n      swap3\n      pop\n        /* \"#utility.yul\":11978:12267   */\n      pop\n        /* \"#utility.yul\":12334:12337   */\n      0xa0\n        /* \"#utility.yul\":12323:12332   */\n      dup8\n        /* \"#utility.yul\":12319:12338   */\n      add\n        /* \"#utility.yul\":12306:12339   */\n      calldataload\n        /* \"#utility.yul\":12366:12384   */\n      0xffffffffffffffff\n        /* \"#utility.yul\":12358:12364   */\n      dup2\n        /* \"#utility.yul\":12355:12385   */\n      gt\n        /* \"#utility.yul\":12352:12469   */\n      iszero\n      tag_361\n      jumpi\n        /* \"#utility.yul\":12388:12467   */\n      tag_362\n      tag_163\n      jump\t// in\n    tag_362:\n        /* \"#utility.yul\":12352:12469   */\n    tag_361:\n        /* \"#utility.yul\":12493:12598   */\n      tag_363\n        /* \"#utility.yul\":12590:12597   */\n      dup10\n        /* \"#utility.yul\":12581:12587   */\n      dup3\n        /* \"#utility.yul\":12570:12579   */\n      dup11\n        /* \"#utility.yul\":12566:12588   */\n      add\n        /* \"#utility.yul\":12493:12598   */\n      tag_195\n      jump\t// in\n    tag_363:\n        /* \"#utility.yul\":12483:12598   */\n      swap2\n      pop\n        /* \"#utility.yul\":12277:12608   */\n      pop\n        /* \"#utility.yul\":10754:12615   */\n      swap3\n      swap6\n      pop\n      swap3\n      swap6\n      pop\n      swap3\n      swap6\n      jump\t// out\n        /* \"#utility.yul\":12621:12762   */\n    tag_196:\n        /* \"#utility.yul\":12715:12721   */\n      0x00\n        /* \"#utility.yul\":12749:12754   */\n      dup2\n        /* \"#utility.yul\":12743:12755   */\n      mload\n        /* \"#utility.yul\":12733:12755   */\n      swap1\n      pop\n        /* \"#utility.yul\":12621:12762   */\n      swap2\n      swap1\n      pop\n      jump\t// out\n        /* \"#utility.yul\":12768:12979   */\n    tag_197:\n        /* \"#utility.yul\":12894:12905   */\n      0x00\n        /* \"#utility.yul\":12928:12934   */\n      dup3\n        /* \"#utility.yul\":12923:12926   */\n      dup3\n        /* \"#utility.yul\":12916:12935   */\n      mstore\n        /* \"#utility.yul\":12968:12972   */\n      0x20\n        /* \"#utility.yul\":12963:12966   */\n      dup3\n        /* \"#utility.yul\":12959:12973   */\n      add\n        /* \"#utility.yul\":12944:12973   */\n      swap1\n      pop\n        /* \"#utility.yul\":12768:12979   */\n      swap3\n      swap2\n      pop\n      pop\n      jump\t// out\n        /* \"#utility.yul\":12985:13144   */\n    tag_198:\n        /* \"#utility.yul\":13079:13083   */\n      0x00\n        /* \"#utility.yul\":13102:13105   */\n      dup2\n        /* \"#utility.yul\":13094:13105   */\n      swap1\n      pop\n        /* \"#utility.yul\":13132:13136   */\n      0x20\n        /* \"#utility.yul\":13127:13130   */\n      dup3\n        /* \"#utility.yul\":13123:13137   */\n      add\n        /* \"#utility.yul\":13115:13137   */\n      swap1\n      pop\n        /* \"#utility.yul\":12985:13144   */\n      swap2\n      swap1\n      pop\n      jump\t// out\n        /* \"#utility.yul\":13196:14157   */\n    tag_199:\n        /* \"#utility.yul\":13309:13312   */\n      0x00\n        /* \"#utility.yul\":13345:13349   */\n      0x80\n        /* \"#utility.yul\":13340:13343   */\n      dup4\n        /* \"#utility.yul\":13336:13350   */\n      add\n        /* \"#utility.yul\":13440:13444   */\n      0x00\n        /* \"#utility.yul\":13433:13438   */\n      dup4\n        /* \"#utility.yul\":13429:13445   */\n      add\n        /* \"#utility.yul\":13423:13446   */\n      mload\n        /* \"#utility.yul\":13459:13522   */\n      tag_368\n        /* \"#utility.yul\":13516:13520   */\n      0x00\n        /* \"#utility.yul\":13511:13514   */\n      dup7\n        /* \"#utility.yul\":13507:13521   */\n      add\n        /* \"#utility.yul\":13493:13505   */\n      dup3\n        /* \"#utility.yul\":13459:13522   */\n      tag_172\n      jump\t// in\n    tag_368:\n        /* \"#utility.yul\":13360:13532   */\n      pop\n        /* \"#utility.yul\":13614:13618   */\n      0x20\n        /* \"#utility.yul\":13607:13612   */\n      dup4\n        /* \"#utility.yul\":13603:13619   */\n      add\n        /* \"#utility.yul\":13597:13620   */\n      mload\n        /* \"#utility.yul\":13667:13670   */\n      dup5\n        /* \"#utility.yul\":13661:13665   */\n      dup3\n        /* \"#utility.yul\":13657:13671   */\n      sub\n        /* \"#utility.yul\":13650:13654   */\n      0x20\n        /* \"#utility.yul\":13645:13648   */\n      dup7\n        /* \"#utility.yul\":13641:13655   */\n      add\n        /* \"#utility.yul\":13634:13672   */\n      mstore\n        /* \"#utility.yul\":13693:13766   */\n      tag_369\n        /* \"#utility.yul\":13761:13765   */\n      dup3\n        /* \"#utility.yul\":13747:13759   */\n      dup3\n        /* \"#utility.yul\":13693:13766   */\n      tag_177\n      jump\t// in\n    tag_369:\n        /* \"#utility.yul\":13685:13766   */\n      swap2\n      pop\n        /* \"#utility.yul\":13542:13777   */\n      pop\n        /* \"#utility.yul\":13863:13867   */\n      0x40\n        /* \"#utility.yul\":13856:13861   */\n      dup4\n        /* \"#utility.yul\":13852:13868   */\n      add\n        /* \"#utility.yul\":13846:13869   */\n      mload\n        /* \"#utility.yul\":13882:13945   */\n      tag_370\n        /* \"#utility.yul\":13939:13943   */\n      0x40\n        /* \"#utility.yul\":13934:13937   */\n      dup7\n        /* \"#utility.yul\":13930:13944   */\n      add\n        /* \"#utility.yul\":13916:13928   */\n      dup3\n        /* \"#utility.yul\":13882:13945   */\n      tag_172\n      jump\t// in\n    tag_370:\n        /* \"#utility.yul\":13787:13955   */\n      pop\n        /* \"#utility.yul\":14038:14042   */\n      0x60\n        /* \"#utility.yul\":14031:14036   */\n      dup4\n        /* \"#utility.yul\":14027:14043   */\n      add\n        /* \"#utility.yul\":14021:14044   */\n      mload\n        /* \"#utility.yul\":14057:14120   */\n      tag_371\n        /* \"#utility.yul\":14114:14118   */\n      0x60\n        /* \"#utility.yul\":14109:14112   */\n      dup7\n        /* \"#utility.yul\":14105:14119   */\n      add\n        /* \"#utility.yul\":14091:14103   */\n      dup3\n        /* \"#utility.yul\":14057:14120   */\n      tag_172\n      jump\t// in\n    tag_371:\n        /* \"#utility.yul\":13965:14130   */\n      pop\n        /* \"#utility.yul\":14147:14151   */\n      dup1\n        /* \"#utility.yul\":14140:14151   */\n      swap2\n      pop\n        /* \"#utility.yul\":13314:14157   */\n      pop\n        /* \"#utility.yul\":13196:14157   */\n      swap3\n      swap2\n      pop\n      pop\n      jump\t// out\n        /* \"#utility.yul\":14163:14427   */\n    tag_200:\n        /* \"#utility.yul\":14286:14296   */\n      0x00\n        /* \"#utility.yul\":14321:14421   */\n      tag_373\n        /* \"#utility.yul\":14417:14420   */\n      dup4\n        /* \"#utility.yul\":14409:14415   */\n      dup4\n        /* \"#utility.yul\":14321:14421   */\n      tag_199\n      jump\t// in\n    tag_373:\n        /* \"#utility.yul\":14307:14421   */\n      swap1\n      pop\n        /* \"#utility.yul\":14163:14427   */\n      swap3\n      swap2\n      pop\n      pop\n      jump\t// out\n        /* \"#utility.yul\":14433:14573   */\n    tag_201:\n        /* \"#utility.yul\":14530:14534   */\n      0x00\n        /* \"#utility.yul\":14562:14566   */\n      0x20\n        /* \"#utility.yul\":14557:14560   */\n      dup3\n        /* \"#utility.yul\":14553:14567   */\n      add\n        /* \"#utility.yul\":14545:14567   */\n      swap1\n      pop\n        /* \"#utility.yul\":14433:14573   */\n      swap2\n      swap1\n      pop\n      jump\t// out\n        /* \"#utility.yul\":14629:15756   */\n    tag_202:\n        /* \"#utility.yul\":14802:14805   */\n      0x00\n        /* \"#utility.yul\":14831:14912   */\n      tag_376\n        /* \"#utility.yul\":14906:14911   */\n      dup3\n        /* \"#utility.yul\":14831:14912   */\n      tag_196\n      jump\t// in\n    tag_376:\n        /* \"#utility.yul\":14928:15041   */\n      tag_377\n        /* \"#utility.yul\":15034:15040   */\n      dup2\n        /* \"#utility.yul\":15029:15032   */\n      dup6\n        /* \"#utility.yul\":14928:15041   */\n      tag_197\n      jump\t// in\n    tag_377:\n        /* \"#utility.yul\":14921:15041   */\n      swap4\n      pop\n        /* \"#utility.yul\":15067:15070   */\n      dup4\n        /* \"#utility.yul\":15112:15116   */\n      0x20\n        /* \"#utility.yul\":15104:15110   */\n      dup3\n        /* \"#utility.yul\":15100:15117   */\n      mul\n        /* \"#utility.yul\":15095:15098   */\n      dup6\n        /* \"#utility.yul\":15091:15118   */\n      add\n        /* \"#utility.yul\":15142:15225   */\n      tag_378\n        /* \"#utility.yul\":15219:15224   */\n      dup6\n        /* \"#utility.yul\":15142:15225   */\n      tag_198\n      jump\t// in\n    tag_378:\n        /* \"#utility.yul\":15248:15255   */\n      dup1\n        /* \"#utility.yul\":15279:15280   */\n      0x00\n        /* \"#utility.yul\":15264:15711   */\n    tag_379:\n        /* \"#utility.yul\":15289:15295   */\n      dup6\n        /* \"#utility.yul\":15286:15287   */\n      dup2\n        /* \"#utility.yul\":15283:15296   */\n      lt\n        /* \"#utility.yul\":15264:15711   */\n      iszero\n      tag_381\n      jumpi\n        /* \"#utility.yul\":15360:15369   */\n      dup5\n        /* \"#utility.yul\":15354:15358   */\n      dup5\n        /* \"#utility.yul\":15350:15370   */\n      sub\n        /* \"#utility.yul\":15345:15348   */\n      dup10\n        /* \"#utility.yul\":15338:15371   */\n      mstore\n        /* \"#utility.yul\":15411:15417   */\n      dup2\n        /* \"#utility.yul\":15405:15418   */\n      mload\n        /* \"#utility.yul\":15439:15557   */\n      tag_382\n        /* \"#utility.yul\":15552:15556   */\n      dup6\n        /* \"#utility.yul\":15537:15550   */\n      dup3\n        /* \"#utility.yul\":15439:15557   */\n      tag_200\n      jump\t// in\n    tag_382:\n        /* \"#utility.yul\":15431:15557   */\n      swap5\n      pop\n        /* \"#utility.yul\":15580:15667   */\n      tag_383\n        /* \"#utility.yul\":15660:15666   */\n      dup4\n        /* \"#utility.yul\":15580:15667   */\n      tag_201\n      jump\t// in\n    tag_383:\n        /* \"#utility.yul\":15570:15667   */\n      swap3\n      pop\n        /* \"#utility.yul\":15696:15700   */\n      0x20\n        /* \"#utility.yul\":15691:15694   */\n      dup11\n        /* \"#utility.yul\":15687:15701   */\n      add\n        /* \"#utility.yul\":15680:15701   */\n      swap10\n      pop\n        /* \"#utility.yul\":15324:15711   */\n      pop\n        /* \"#utility.yul\":15311:15312   */\n      0x01\n        /* \"#utility.yul\":15308:15309   */\n      dup2\n        /* \"#utility.yul\":15304:15313   */\n      add\n        /* \"#utility.yul\":15299:15313   */\n      swap1\n      pop\n        /* \"#utility.yul\":15264:15711   */\n      jump(tag_379)\n    tag_381:\n        /* \"#utility.yul\":15268:15282   */\n      pop\n        /* \"#utility.yul\":15727:15731   */\n      dup3\n        /* \"#utility.yul\":15720:15731   */\n      swap8\n      pop\n        /* \"#utility.yul\":15747:15750   */\n      dup8\n        /* \"#utility.yul\":15740:15750   */\n      swap6\n      pop\n        /* \"#utility.yul\":14807:15756   */\n      pop\n      pop\n      pop\n      pop\n      pop\n        /* \"#utility.yul\":14629:15756   */\n      swap3\n      swap2\n      pop\n      pop\n      jump\t// out\n        /* \"#utility.yul\":15762:16243   */\n    tag_43:\n        /* \"#utility.yul\":15959:15963   */\n      0x00\n        /* \"#utility.yul\":15997:15999   */\n      0x20\n        /* \"#utility.yul\":15986:15995   */\n      dup3\n        /* \"#utility.yul\":15982:16000   */\n      add\n        /* \"#utility.yul\":15974:16000   */\n      swap1\n      pop\n        /* \"#utility.yul\":16046:16055   */\n      dup2\n        /* \"#utility.yul\":16040:16044   */\n      dup2\n        /* \"#utility.yul\":16036:16056   */\n      sub\n        /* \"#utility.yul\":16032:16033   */\n      0x00\n        /* \"#utility.yul\":16021:16030   */\n      dup4\n        /* \"#utility.yul\":16017:16034   */\n      add\n        /* \"#utility.yul\":16010:16057   */\n      mstore\n        /* \"#utility.yul\":16074:16236   */\n      tag_385\n        /* \"#utility.yul\":16231:16235   */\n      dup2\n        /* \"#utility.yul\":16222:16228   */\n      dup5\n        /* \"#utility.yul\":16074:16236   */\n      tag_202\n      jump\t// in\n    tag_385:\n        /* \"#utility.yul\":16066:16236   */\n      swap1\n      pop\n        /* \"#utility.yul\":15762:16243   */\n      swap3\n      swap2\n      pop\n      pop\n      jump\t// out\n        /* \"#utility.yul\":16249:16395   */\n    tag_203:\n        /* \"#utility.yul\":16348:16354   */\n      0x00\n        /* \"#utility.yul\":16382:16387   */\n      dup2\n        /* \"#utility.yul\":16376:16388   */\n      mload\n        /* \"#utility.yul\":16366:16388   */\n      swap1\n      pop\n        /* \"#utility.yul\":16249:16395   */\n      swap2\n      swap1\n      pop\n      jump\t// out\n        /* \"#utility.yul\":16401:16617   */\n    tag_204:\n        /* \"#utility.yul\":16532:16543   */\n      0x00\n        /* \"#utility.yul\":16566:16572   */\n      dup3\n        /* \"#utility.yul\":16561:16564   */\n      dup3\n        /* \"#utility.yul\":16554:16573   */\n      mstore\n        /* \"#utility.yul\":16606:16610   */\n      0x20\n        /* \"#utility.yul\":16601:16604   */\n      dup3\n        /* \"#utility.yul\":16597:16611   */\n      add\n        /* \"#utility.yul\":16582:16611   */\n      swap1\n      pop\n        /* \"#utility.yul\":16401:16617   */\n      swap3\n      swap2\n      pop\n      pop\n      jump\t// out\n        /* \"#utility.yul\":16623:16787   */\n    tag_205:\n        /* \"#utility.yul\":16722:16726   */\n      0x00\n        /* \"#utility.yul\":16745:16748   */\n      dup2\n        /* \"#utility.yul\":16737:16748   */\n      swap1\n      pop\n        /* \"#utility.yul\":16775:16779   */\n      0x20\n        /* \"#utility.yul\":16770:16773   */\n      dup3\n        /* \"#utility.yul\":16766:16780   */\n      add\n        /* \"#utility.yul\":16758:16780   */\n      swap1\n      pop\n        /* \"#utility.yul\":16623:16787   */\n      swap2\n      swap1\n      pop\n      jump\t// out\n        /* \"#utility.yul\":16827:18098   */\n    tag_206:\n        /* \"#utility.yul\":16928:16931   */\n      0x00\n        /* \"#utility.yul\":16964:16968   */\n      0xa0\n        /* \"#utility.yul\":16959:16962   */\n      dup4\n        /* \"#utility.yul\":16955:16969   */\n      add\n        /* \"#utility.yul\":17053:17057   */\n      0x00\n        /* \"#utility.yul\":17046:17051   */\n      dup4\n        /* \"#utility.yul\":17042:17058   */\n      add\n        /* \"#utility.yul\":17036:17059   */\n      mload\n        /* \"#utility.yul\":17072:17135   */\n      tag_390\n        /* \"#utility.yul\":17129:17133   */\n      0x00\n        /* \"#utility.yul\":17124:17127   */\n      dup7\n        /* \"#utility.yul\":17120:17134   */\n      add\n        /* \"#utility.yul\":17106:17118   */\n      dup3\n        /* \"#utility.yul\":17072:17135   */\n      tag_172\n      jump\t// in\n    tag_390:\n        /* \"#utility.yul\":16979:17145   */\n      pop\n        /* \"#utility.yul\":17227:17231   */\n      0x20\n        /* \"#utility.yul\":17220:17225   */\n      dup4\n        /* \"#utility.yul\":17216:17232   */\n      add\n        /* \"#utility.yul\":17210:17233   */\n      mload\n        /* \"#utility.yul\":17280:17283   */\n      dup5\n        /* \"#utility.yul\":17274:17278   */\n      dup3\n        /* \"#utility.yul\":17270:17284   */\n      sub\n        /* \"#utility.yul\":17263:17267   */\n      0x20\n        /* \"#utility.yul\":17258:17261   */\n      dup7\n        /* \"#utility.yul\":17254:17268   */\n      add\n        /* \"#utility.yul\":17247:17285   */\n      mstore\n        /* \"#utility.yul\":17306:17379   */\n      tag_391\n        /* \"#utility.yul\":17374:17378   */\n      dup3\n        /* \"#utility.yul\":17360:17372   */\n      dup3\n        /* \"#utility.yul\":17306:17379   */\n      tag_177\n      jump\t// in\n    tag_391:\n        /* \"#utility.yul\":17298:17379   */\n      swap2\n      pop\n        /* \"#utility.yul\":17155:17390   */\n      pop\n        /* \"#utility.yul\":17479:17483   */\n      0x40\n        /* \"#utility.yul\":17472:17477   */\n      dup4\n        /* \"#utility.yul\":17468:17484   */\n      add\n        /* \"#utility.yul\":17462:17485   */\n      mload\n        /* \"#utility.yul\":17532:17535   */\n      dup5\n        /* \"#utility.yul\":17526:17530   */\n      dup3\n        /* \"#utility.yul\":17522:17536   */\n      sub\n        /* \"#utility.yul\":17515:17519   */\n      0x40\n        /* \"#utility.yul\":17510:17513   */\n      dup7\n        /* \"#utility.yul\":17506:17520   */\n      add\n        /* \"#utility.yul\":17499:17537   */\n      mstore\n        /* \"#utility.yul\":17558:17631   */\n      tag_392\n        /* \"#utility.yul\":17626:17630   */\n      dup3\n        /* \"#utility.yul\":17612:17624   */\n      dup3\n        /* \"#utility.yul\":17558:17631   */\n      tag_177\n      jump\t// in\n    tag_392:\n        /* \"#utility.yul\":17550:17631   */\n      swap2\n      pop\n        /* \"#utility.yul\":17400:17642   */\n      pop\n        /* \"#utility.yul\":17730:17734   */\n      0x60\n        /* \"#utility.yul\":17723:17728   */\n      dup4\n        /* \"#utility.yul\":17719:17735   */\n      add\n        /* \"#utility.yul\":17713:17736   */\n      mload\n        /* \"#utility.yul\":17749:17812   */\n      tag_393\n        /* \"#utility.yul\":17806:17810   */\n      0x60\n        /* \"#utility.yul\":17801:17804   */\n      dup7\n        /* \"#utility.yul\":17797:17811   */\n      add\n        /* \"#utility.yul\":17783:17795   */\n      dup3\n        /* \"#utility.yul\":17749:17812   */\n      tag_172\n      jump\t// in\n    tag_393:\n        /* \"#utility.yul\":17652:17822   */\n      pop\n        /* \"#utility.yul\":17908:17912   */\n      0x80\n        /* \"#utility.yul\":17901:17906   */\n      dup4\n        /* \"#utility.yul\":17897:17913   */\n      add\n        /* \"#utility.yul\":17891:17914   */\n      mload\n        /* \"#utility.yul\":17961:17964   */\n      dup5\n        /* \"#utility.yul\":17955:17959   */\n      dup3\n        /* \"#utility.yul\":17951:17965   */\n      sub\n        /* \"#utility.yul\":17944:17948   */\n      0x80\n        /* \"#utility.yul\":17939:17942   */\n      dup7\n        /* \"#utility.yul\":17935:17949   */\n      add\n        /* \"#utility.yul\":17928:17966   */\n      mstore\n        /* \"#utility.yul\":17987:18060   */\n      tag_394\n        /* \"#utility.yul\":18055:18059   */\n      dup3\n        /* \"#utility.yul\":18041:18053   */\n      dup3\n        /* \"#utility.yul\":17987:18060   */\n      tag_177\n      jump\t// in\n    tag_394:\n        /* \"#utility.yul\":17979:18060   */\n      swap2\n      pop\n        /* \"#utility.yul\":17832:18071   */\n      pop\n        /* \"#utility.yul\":18088:18092   */\n      dup1\n        /* \"#utility.yul\":18081:18092   */\n      swap2\n      pop\n        /* \"#utility.yul\":16933:18098   */\n      pop\n        /* \"#utility.yul\":16827:18098   */\n      swap3\n      swap2\n      pop\n      pop\n      jump\t// out\n        /* \"#utility.yul\":18104:18305   */\n    tag_207:\n        /* \"#utility.yul\":18220:18231   */\n      0x00\n        /* \"#utility.yul\":18254:18260   */\n      dup3\n        /* \"#utility.yul\":18249:18252   */\n      dup3\n        /* \"#utility.yul\":18242:18261   */\n      mstore\n        /* \"#utility.yul\":18294:18298   */\n      0x20\n        /* \"#utility.yul\":18289:18292   */\n      dup3\n        /* \"#utility.yul\":18285:18299   */\n      add\n        /* \"#utility.yul\":18270:18299   */\n      swap1\n      pop\n        /* \"#utility.yul\":18104:18305   */\n      swap3\n      swap2\n      pop\n      pop\n      jump\t// out\n        /* \"#utility.yul\":18361:19468   */\n    tag_208:\n        /* \"#utility.yul\":18524:18527   */\n      0x00\n        /* \"#utility.yul\":18553:18634   */\n      tag_397\n        /* \"#utility.yul\":18628:18633   */\n      dup3\n        /* \"#utility.yul\":18553:18634   */\n      tag_196\n      jump\t// in\n    tag_397:\n        /* \"#utility.yul\":18650:18753   */\n      tag_398\n        /* \"#utility.yul\":18746:18752   */\n      dup2\n        /* \"#utility.yul\":18741:18744   */\n      dup6\n        /* \"#utility.yul\":18650:18753   */\n      tag_207\n      jump\t// in\n    tag_398:\n        /* \"#utility.yul\":18643:18753   */\n      swap4\n      pop\n        /* \"#utility.yul\":18779:18782   */\n      dup4\n        /* \"#utility.yul\":18824:18828   */\n      0x20\n        /* \"#utility.yul\":18816:18822   */\n      dup3\n        /* \"#utility.yul\":18812:18829   */\n      mul\n        /* \"#utility.yul\":18807:18810   */\n      dup6\n        /* \"#utility.yul\":18803:18830   */\n      add\n        /* \"#utility.yul\":18854:18937   */\n      tag_399\n        /* \"#utility.yul\":18931:18936   */\n      dup6\n        /* \"#utility.yul\":18854:18937   */\n      tag_198\n      jump\t// in\n    tag_399:\n        /* \"#utility.yul\":18960:18967   */\n      dup1\n        /* \"#utility.yul\":18991:18992   */\n      0x00\n        /* \"#utility.yul\":18976:19423   */\n    tag_400:\n        /* \"#utility.yul\":19001:19007   */\n      dup6\n        /* \"#utility.yul\":18998:18999   */\n      dup2\n        /* \"#utility.yul\":18995:19008   */\n      lt\n        /* \"#utility.yul\":18976:19423   */\n      iszero\n      tag_402\n      jumpi\n        /* \"#utility.yul\":19072:19081   */\n      dup5\n        /* \"#utility.yul\":19066:19070   */\n      dup5\n        /* \"#utility.yul\":19062:19082   */\n      sub\n        /* \"#utility.yul\":19057:19060   */\n      dup10\n        /* \"#utility.yul\":19050:19083   */\n      mstore\n        /* \"#utility.yul\":19123:19129   */\n      dup2\n        /* \"#utility.yul\":19117:19130   */\n      mload\n        /* \"#utility.yul\":19151:19269   */\n      tag_403\n        /* \"#utility.yul\":19264:19268   */\n      dup6\n        /* \"#utility.yul\":19249:19262   */\n      dup3\n        /* \"#utility.yul\":19151:19269   */\n      tag_200\n      jump\t// in\n    tag_403:\n        /* \"#utility.yul\":19143:19269   */\n      swap5\n      pop\n        /* \"#utility.yul\":19292:19379   */\n      tag_404\n        /* \"#utility.yul\":19372:19378   */\n      dup4\n        /* \"#utility.yul\":19292:19379   */\n      tag_201\n      jump\t// in\n    tag_404:\n        /* \"#utility.yul\":19282:19379   */\n      swap3\n      pop\n        /* \"#utility.yul\":19408:19412   */\n      0x20\n        /* \"#utility.yul\":19403:19406   */\n      dup11\n        /* \"#utility.yul\":19399:19413   */\n      add\n        /* \"#utility.yul\":19392:19413   */\n      swap10\n      pop\n        /* \"#utility.yul\":19036:19423   */\n      pop\n        /* \"#utility.yul\":19023:19024   */\n      0x01\n        /* \"#utility.yul\":19020:19021   */\n      dup2\n        /* \"#utility.yul\":19016:19025   */\n      add\n        /* \"#utility.yul\":19011:19025   */\n      swap1\n      pop\n        /* \"#utility.yul\":18976:19423   */\n      jump(tag_400)\n    tag_402:\n        /* \"#utility.yul\":18980:18994   */\n      pop\n        /* \"#utility.yul\":19439:19443   */\n      dup3\n        /* \"#utility.yul\":19432:19443   */\n      swap8\n      pop\n        /* \"#utility.yul\":19459:19462   */\n      dup8\n        /* \"#utility.yul\":19452:19462   */\n      swap6\n      pop\n        /* \"#utility.yul\":18529:19468   */\n      pop\n      pop\n      pop\n      pop\n      pop\n        /* \"#utility.yul\":18361:19468   */\n      swap3\n      swap2\n      pop\n      pop\n      jump\t// out\n        /* \"#utility.yul\":19530:20324   */\n    tag_209:\n        /* \"#utility.yul\":19653:19656   */\n      0x00\n        /* \"#utility.yul\":19689:19693   */\n      0x40\n        /* \"#utility.yul\":19684:19687   */\n      dup4\n        /* \"#utility.yul\":19680:19694   */\n      add\n        /* \"#utility.yul\":19776:19780   */\n      0x00\n        /* \"#utility.yul\":19769:19774   */\n      dup4\n        /* \"#utility.yul\":19765:19781   */\n      add\n        /* \"#utility.yul\":19759:19782   */\n      mload\n        /* \"#utility.yul\":19829:19832   */\n      dup5\n        /* \"#utility.yul\":19823:19827   */\n      dup3\n        /* \"#utility.yul\":19819:19833   */\n      sub\n        /* \"#utility.yul\":19812:19816   */\n      0x00\n        /* \"#utility.yul\":19807:19810   */\n      dup7\n        /* \"#utility.yul\":19803:19817   */\n      add\n        /* \"#utility.yul\":19796:19834   */\n      mstore\n        /* \"#utility.yul\":19855:19950   */\n      tag_406\n        /* \"#utility.yul\":19945:19949   */\n      dup3\n        /* \"#utility.yul\":19931:19943   */\n      dup3\n        /* \"#utility.yul\":19855:19950   */\n      tag_206\n      jump\t// in\n    tag_406:\n        /* \"#utility.yul\":19847:19950   */\n      swap2\n      pop\n        /* \"#utility.yul\":19704:19961   */\n      pop\n        /* \"#utility.yul\":20050:20054   */\n      0x20\n        /* \"#utility.yul\":20043:20048   */\n      dup4\n        /* \"#utility.yul\":20039:20055   */\n      add\n        /* \"#utility.yul\":20033:20056   */\n      mload\n        /* \"#utility.yul\":20103:20106   */\n      dup5\n        /* \"#utility.yul\":20097:20101   */\n      dup3\n        /* \"#utility.yul\":20093:20107   */\n      sub\n        /* \"#utility.yul\":20086:20090   */\n      0x20\n        /* \"#utility.yul\":20081:20084   */\n      dup7\n        /* \"#utility.yul\":20077:20091   */\n      add\n        /* \"#utility.yul\":20070:20108   */\n      mstore\n        /* \"#utility.yul\":20129:20286   */\n      tag_407\n        /* \"#utility.yul\":20281:20285   */\n      dup3\n        /* \"#utility.yul\":20267:20279   */\n      dup3\n        /* \"#utility.yul\":20129:20286   */\n      tag_208\n      jump\t// in\n    tag_407:\n        /* \"#utility.yul\":20121:20286   */\n      swap2\n      pop\n        /* \"#utility.yul\":19971:20297   */\n      pop\n        /* \"#utility.yul\":20314:20318   */\n      dup1\n        /* \"#utility.yul\":20307:20318   */\n      swap2\n      pop\n        /* \"#utility.yul\":19658:20324   */\n      pop\n        /* \"#utility.yul\":19530:20324   */\n      swap3\n      swap2\n      pop\n      pop\n      jump\t// out\n        /* \"#utility.yul\":20330:20614   */\n    tag_210:\n        /* \"#utility.yul\":20463:20473   */\n      0x00\n        /* \"#utility.yul\":20498:20608   */\n      tag_409\n        /* \"#utility.yul\":20604:20607   */\n      dup4\n        /* \"#utility.yul\":20596:20602   */\n      dup4\n        /* \"#utility.yul\":20498:20608   */\n      tag_209\n      jump\t// in\n    tag_409:\n        /* \"#utility.yul\":20484:20608   */\n      swap1\n      pop\n        /* \"#utility.yul\":20330:20614   */\n      swap3\n      swap2\n      pop\n      pop\n      jump\t// out\n        /* \"#utility.yul\":20620:20765   */\n    tag_211:\n        /* \"#utility.yul\":20722:20726   */\n      0x00\n        /* \"#utility.yul\":20754:20758   */\n      0x20\n        /* \"#utility.yul\":20749:20752   */\n      dup3\n        /* \"#utility.yul\":20745:20759   */\n      add\n        /* \"#utility.yul\":20737:20759   */\n      swap1\n      pop\n        /* \"#utility.yul\":20620:20765   */\n      swap2\n      swap1\n      pop\n      jump\t// out\n        /* \"#utility.yul\":20831:21998   */\n    tag_212:\n        /* \"#utility.yul\":21014:21017   */\n      0x00\n        /* \"#utility.yul\":21043:21129   */\n      tag_412\n        /* \"#utility.yul\":21123:21128   */\n      dup3\n        /* \"#utility.yul\":21043:21129   */\n      tag_203\n      jump\t// in\n    tag_412:\n        /* \"#utility.yul\":21145:21263   */\n      tag_413\n        /* \"#utility.yul\":21256:21262   */\n      dup2\n        /* \"#utility.yul\":21251:21254   */\n      dup6\n        /* \"#utility.yul\":21145:21263   */\n      tag_204\n      jump\t// in\n    tag_413:\n        /* \"#utility.yul\":21138:21263   */\n      swap4\n      pop\n        /* \"#utility.yul\":21289:21292   */\n      dup4\n        /* \"#utility.yul\":21334:21338   */\n      0x20\n        /* \"#utility.yul\":21326:21332   */\n      dup3\n        /* \"#utility.yul\":21322:21339   */\n      mul\n        /* \"#utility.yul\":21317:21320   */\n      dup6\n        /* \"#utility.yul\":21313:21340   */\n      add\n        /* \"#utility.yul\":21364:21452   */\n      tag_414\n        /* \"#utility.yul\":21446:21451   */\n      dup6\n        /* \"#utility.yul\":21364:21452   */\n      tag_205\n      jump\t// in\n    tag_414:\n        /* \"#utility.yul\":21475:21482   */\n      dup1\n        /* \"#utility.yul\":21506:21507   */\n      0x00\n        /* \"#utility.yul\":21491:21953   */\n    tag_415:\n        /* \"#utility.yul\":21516:21522   */\n      dup6\n        /* \"#utility.yul\":21513:21514   */\n      dup2\n        /* \"#utility.yul\":21510:21523   */\n      lt\n        /* \"#utility.yul\":21491:21953   */\n      iszero\n      tag_417\n      jumpi\n        /* \"#utility.yul\":21587:21596   */\n      dup5\n        /* \"#utility.yul\":21581:21585   */\n      dup5\n        /* \"#utility.yul\":21577:21597   */\n      sub\n        /* \"#utility.yul\":21572:21575   */\n      dup10\n        /* \"#utility.yul\":21565:21598   */\n      mstore\n        /* \"#utility.yul\":21638:21644   */\n      dup2\n        /* \"#utility.yul\":21632:21645   */\n      mload\n        /* \"#utility.yul\":21666:21794   */\n      tag_418\n        /* \"#utility.yul\":21789:21793   */\n      dup6\n        /* \"#utility.yul\":21774:21787   */\n      dup3\n        /* \"#utility.yul\":21666:21794   */\n      tag_210\n      jump\t// in\n    tag_418:\n        /* \"#utility.yul\":21658:21794   */\n      swap5\n      pop\n        /* \"#utility.yul\":21817:21909   */\n      tag_419\n        /* \"#utility.yul\":21902:21908   */\n      dup4\n        /* \"#utility.yul\":21817:21909   */\n      tag_211\n      jump\t// in\n    tag_419:\n        /* \"#utility.yul\":21807:21909   */\n      swap3\n      pop\n        /* \"#utility.yul\":21938:21942   */\n      0x20\n        /* \"#utility.yul\":21933:21936   */\n      dup11\n        /* \"#utility.yul\":21929:21943   */\n      add\n        /* \"#utility.yul\":21922:21943   */\n      swap10\n      pop\n        /* \"#utility.yul\":21551:21953   */\n      pop\n        /* \"#utility.yul\":21538:21539   */\n      0x01\n        /* \"#utility.yul\":21535:21536   */\n      dup2\n        /* \"#utility.yul\":21531:21540   */\n      add\n        /* \"#utility.yul\":21526:21540   */\n      swap1\n      pop\n        /* \"#utility.yul\":21491:21953   */\n      jump(tag_415)\n    tag_417:\n        /* \"#utility.yul\":21495:21509   */\n      pop\n        /* \"#utility.yul\":21969:21973   */\n      dup3\n        /* \"#utility.yul\":21962:21973   */\n      swap8\n      pop\n        /* \"#utility.yul\":21989:21992   */\n      dup8\n        /* \"#utility.yul\":21982:21992   */\n      swap6\n      pop\n        /* \"#utility.yul\":21019:21998   */\n      pop\n      pop\n      pop\n      pop\n      pop\n        /* \"#utility.yul\":20831:21998   */\n      swap3\n      swap2\n      pop\n      pop\n      jump\t// out\n        /* \"#utility.yul\":22004:22505   */\n    tag_47:\n        /* \"#utility.yul\":22211:22215   */\n      0x00\n        /* \"#utility.yul\":22249:22251   */\n      0x20\n        /* \"#utility.yul\":22238:22247   */\n      dup3\n        /* \"#utility.yul\":22234:22252   */\n      add\n        /* \"#utility.yul\":22226:22252   */\n      swap1\n      pop\n        /* \"#utility.yul\":22298:22307   */\n      dup2\n        /* \"#utility.yul\":22292:22296   */\n      dup2\n        /* \"#utility.yul\":22288:22308   */\n      sub\n        /* \"#utility.yul\":22284:22285   */\n      0x00\n        /* \"#utility.yul\":22273:22282   */\n      dup4\n        /* \"#utility.yul\":22269:22286   */\n      add\n        /* \"#utility.yul\":22262:22309   */\n      mstore\n        /* \"#utility.yul\":22326:22498   */\n      tag_421\n        /* \"#utility.yul\":22493:22497   */\n      dup2\n        /* \"#utility.yul\":22484:22490   */\n      dup5\n        /* \"#utility.yul\":22326:22498   */\n      tag_212\n      jump\t// in\n    tag_421:\n        /* \"#utility.yul\":22318:22498   */\n      swap1\n      pop\n        /* \"#utility.yul\":22004:22505   */\n      swap3\n      swap2\n      pop\n      pop\n      jump\t// out\n        /* \"#utility.yul\":22511:23249   */\n    tag_50:\n        /* \"#utility.yul\":22631:22637   */\n      0x00\n        /* \"#utility.yul\":22639:22645   */\n      0x00\n        /* \"#utility.yul\":22688:22690   */\n      0x40\n        /* \"#utility.yul\":22676:22685   */\n      dup4\n        /* \"#utility.yul\":22667:22674   */\n      dup6\n        /* \"#utility.yul\":22663:22686   */\n      sub\n        /* \"#utility.yul\":22659:22691   */\n      slt\n        /* \"#utility.yul\":22656:22775   */\n      iszero\n      tag_423\n      jumpi\n        /* \"#utility.yul\":22694:22773   */\n      tag_424\n      tag_162\n      jump\t// in\n    tag_424:\n        /* \"#utility.yul\":22656:22775   */\n    tag_423:\n        /* \"#utility.yul\":22814:22815   */\n      0x00\n        /* \"#utility.yul\":22839:22892   */\n      tag_425\n        /* \"#utility.yul\":22884:22891   */\n      dup6\n        /* \"#utility.yul\":22875:22881   */\n      dup3\n        /* \"#utility.yul\":22864:22873   */\n      dup7\n        /* \"#utility.yul\":22860:22882   */\n      add\n        /* \"#utility.yul\":22839:22892   */\n      tag_171\n      jump\t// in\n    tag_425:\n        /* \"#utility.yul\":22829:22892   */\n      swap3\n      pop\n        /* \"#utility.yul\":22785:22902   */\n      pop\n        /* \"#utility.yul\":22969:22971   */\n      0x20\n        /* \"#utility.yul\":22958:22967   */\n      dup4\n        /* \"#utility.yul\":22954:22972   */\n      add\n        /* \"#utility.yul\":22941:22973   */\n      calldataload\n        /* \"#utility.yul\":23000:23018   */\n      0xffffffffffffffff\n        /* \"#utility.yul\":22992:22998   */\n      dup2\n        /* \"#utility.yul\":22989:23019   */\n      gt\n        /* \"#utility.yul\":22986:23103   */\n      iszero\n      tag_426\n      jumpi\n        /* \"#utility.yul\":23022:23101   */\n      tag_427\n      tag_163\n      jump\t// in\n    tag_427:\n        /* \"#utility.yul\":22986:23103   */\n    tag_426:\n        /* \"#utility.yul\":23127:23232   */\n      tag_428\n        /* \"#utility.yul\":23224:23231   */\n      dup6\n        /* \"#utility.yul\":23215:23221   */\n      dup3\n        /* \"#utility.yul\":23204:23213   */\n      dup7\n        /* \"#utility.yul\":23200:23222   */\n      add\n        /* \"#utility.yul\":23127:23232   */\n      tag_195\n      jump\t// in\n    tag_428:\n        /* \"#utility.yul\":23117:23232   */\n      swap2\n      pop\n        /* \"#utility.yul\":22912:23242   */\n      pop\n        /* \"#utility.yul\":22511:23249   */\n      swap3\n      pop\n      swap3\n      swap1\n      pop\n      jump\t// out\n        /* \"#utility.yul\":23255:23435   */\n    tag_213:\n        /* \"#utility.yul\":23303:23380   */\n      0x4e487b7100000000000000000000000000000000000000000000000000000000\n        /* \"#utility.yul\":23300:23301   */\n      0x00\n        /* \"#utility.yul\":23293:23381   */\n      mstore\n        /* \"#utility.yul\":23400:23404   */\n      0x22\n        /* \"#utility.yul\":23397:23398   */\n      0x04\n        /* \"#utility.yul\":23390:23405   */\n      mstore\n        /* \"#utility.yul\":23424:23428   */\n      0x24\n        /* \"#utility.yul\":23421:23422   */\n      0x00\n        /* \"#utility.yul\":23414:23429   */\n      revert\n        /* \"#utility.yul\":23441:23761   */\n    tag_57:\n        /* \"#utility.yul\":23485:23491   */\n      0x00\n        /* \"#utility.yul\":23522:23523   */\n      0x02\n        /* \"#utility.yul\":23516:23520   */\n      dup3\n        /* \"#utility.yul\":23512:23524   */\n      div\n        /* \"#utility.yul\":23502:23524   */\n      swap1\n      pop\n        /* \"#utility.yul\":23569:23570   */\n      0x01\n        /* \"#utility.yul\":23563:23567   */\n      dup3\n        /* \"#utility.yul\":23559:23571   */\n      and\n        /* \"#utility.yul\":23590:23608   */\n      dup1\n        /* \"#utility.yul\":23580:23661   */\n      tag_431\n      jumpi\n        /* \"#utility.yul\":23646:23650   */\n      0x7f\n        /* \"#utility.yul\":23638:23644   */\n      dup3\n        /* \"#utility.yul\":23634:23651   */\n      and\n        /* \"#utility.yul\":23624:23651   */\n      swap2\n      pop\n        /* \"#utility.yul\":23580:23661   */\n    tag_431:\n        /* \"#utility.yul\":23708:23710   */\n      0x20\n        /* \"#utility.yul\":23700:23706   */\n      dup3\n        /* \"#utility.yul\":23697:23711   */\n      lt\n        /* \"#utility.yul\":23677:23695   */\n      dup2\n        /* \"#utility.yul\":23674:23712   */\n      sub\n        /* \"#utility.yul\":23671:23755   */\n      tag_432\n      jumpi\n        /* \"#utility.yul\":23727:23745   */\n      tag_433\n      tag_213\n      jump\t// in\n    tag_433:\n        /* \"#utility.yul\":23671:23755   */\n    tag_432:\n        /* \"#utility.yul\":23492:23761   */\n      pop\n        /* \"#utility.yul\":23441:23761   */\n      swap2\n      swap1\n      pop\n      jump\t// out\n        /* \"#utility.yul\":23767:23936   */\n    tag_214:\n        /* \"#utility.yul\":23851:23862   */\n      0x00\n        /* \"#utility.yul\":23885:23891   */\n      dup3\n        /* \"#utility.yul\":23880:23883   */\n      dup3\n        /* \"#utility.yul\":23873:23892   */\n      mstore\n        /* \"#utility.yul\":23925:23929   */\n      0x20\n        /* \"#utility.yul\":23920:23923   */\n      dup3\n        /* \"#utility.yul\":23916:23930   */\n      add\n        /* \"#utility.yul\":23901:23930   */\n      swap1\n      pop\n        /* \"#utility.yul\":23767:23936   */\n      swap3\n      swap2\n      pop\n      pop\n      jump\t// out\n        /* \"#utility.yul\":23942:24109   */\n    tag_215:\n        /* \"#utility.yul\":24082:24101   */\n      0x596f7520617265206e6f742061646d696e000000000000000000000000000000\n        /* \"#utility.yul\":24078:24079   */\n      0x00\n        /* \"#utility.yul\":24070:24076   */\n      dup3\n        /* \"#utility.yul\":24066:24080   */\n      add\n        /* \"#utility.yul\":24059:24102   */\n      mstore\n        /* \"#utility.yul\":23942:24109   */\n      pop\n      jump\t// out\n        /* \"#utility.yul\":24115:24481   */\n    tag_216:\n        /* \"#utility.yul\":24257:24260   */\n      0x00\n        /* \"#utility.yul\":24278:24345   */\n      tag_437\n        /* \"#utility.yul\":24342:24344   */\n      0x11\n        /* \"#utility.yul\":24337:24340   */\n      dup4\n        /* \"#utility.yul\":24278:24345   */\n      tag_214\n      jump\t// in\n    tag_437:\n        /* \"#utility.yul\":24271:24345   */\n      swap2\n      pop\n        /* \"#utility.yul\":24354:24447   */\n      tag_438\n        /* \"#utility.yul\":24443:24446   */\n      dup3\n        /* \"#utility.yul\":24354:24447   */\n      tag_215\n      jump\t// in\n    tag_438:\n        /* \"#utility.yul\":24472:24474   */\n      0x20\n        /* \"#utility.yul\":24467:24470   */\n      dup3\n        /* \"#utility.yul\":24463:24475   */\n      add\n        /* \"#utility.yul\":24456:24475   */\n      swap1\n      pop\n        /* \"#utility.yul\":24115:24481   */\n      swap2\n      swap1\n      pop\n      jump\t// out\n        /* \"#utility.yul\":24487:24906   */\n    tag_76:\n        /* \"#utility.yul\":24653:24657   */\n      0x00\n        /* \"#utility.yul\":24691:24693   */\n      0x20\n        /* \"#utility.yul\":24680:24689   */\n      dup3\n        /* \"#utility.yul\":24676:24694   */\n      add\n        /* \"#utility.yul\":24668:24694   */\n      swap1\n      pop\n        /* \"#utility.yul\":24740:24749   */\n      dup2\n        /* \"#utility.yul\":24734:24738   */\n      dup2\n        /* \"#utility.yul\":24730:24750   */\n      sub\n        /* \"#utility.yul\":24726:24727   */\n      0x00\n        /* \"#utility.yul\":24715:24724   */\n      dup4\n        /* \"#utility.yul\":24711:24728   */\n      add\n        /* \"#utility.yul\":24704:24751   */\n      mstore\n        /* \"#utility.yul\":24768:24899   */\n      tag_440\n        /* \"#utility.yul\":24894:24898   */\n      dup2\n        /* \"#utility.yul\":24768:24899   */\n      tag_216\n      jump\t// in\n    tag_440:\n        /* \"#utility.yul\":24760:24899   */\n      swap1\n      pop\n        /* \"#utility.yul\":24487:24906   */\n      swap2\n      swap1\n      pop\n      jump\t// out\n        /* \"#utility.yul\":24912:25094   */\n    tag_217:\n        /* \"#utility.yul\":25052:25086   */\n      0x466f6f642077697468207468697320494420616c726561647920657869737473\n        /* \"#utility.yul\":25048:25049   */\n      0x00\n        /* \"#utility.yul\":25040:25046   */\n      dup3\n        /* \"#utility.yul\":25036:25050   */\n      add\n        /* \"#utility.yul\":25029:25087   */\n      mstore\n        /* \"#utility.yul\":24912:25094   */\n      pop\n      jump\t// out\n        /* \"#utility.yul\":25100:25466   */\n    tag_218:\n        /* \"#utility.yul\":25242:25245   */\n      0x00\n        /* \"#utility.yul\":25263:25330   */\n      tag_443\n        /* \"#utility.yul\":25327:25329   */\n      0x20\n        /* \"#utility.yul\":25322:25325   */\n      dup4\n        /* \"#utility.yul\":25263:25330   */\n      tag_214\n      jump\t// in\n    tag_443:\n        /* \"#utility.yul\":25256:25330   */\n      swap2\n      pop\n        /* \"#utility.yul\":25339:25432   */\n      tag_444\n        /* \"#utility.yul\":25428:25431   */\n      dup3\n        /* \"#utility.yul\":25339:25432   */\n      tag_217\n      jump\t// in\n    tag_444:\n        /* \"#utility.yul\":25457:25459   */\n      0x20\n        /* \"#utility.yul\":25452:25455   */\n      dup3\n        /* \"#utility.yul\":25448:25460   */\n      add\n        /* \"#utility.yul\":25441:25460   */\n      swap1\n      pop\n        /* \"#utility.yul\":25100:25466   */\n      swap2\n      swap1\n      pop\n      jump\t// out\n        /* \"#utility.yul\":25472:25891   */\n    tag_80:\n        /* \"#utility.yul\":25638:25642   */\n      0x00\n        /* \"#utility.yul\":25676:25678   */\n      0x20\n        /* \"#utility.yul\":25665:25674   */\n      dup3\n        /* \"#utility.yul\":25661:25679   */\n      add\n        /* \"#utility.yul\":25653:25679   */\n      swap1\n      pop\n        /* \"#utility.yul\":25725:25734   */\n      dup2\n        /* \"#utility.yul\":25719:25723   */\n      dup2\n        /* \"#utility.yul\":25715:25735   */\n      sub\n        /* \"#utility.yul\":25711:25712   */\n      0x00\n        /* \"#utility.yul\":25700:25709   */\n      dup4\n        /* \"#utility.yul\":25696:25713   */\n      add\n        /* \"#utility.yul\":25689:25736   */\n      mstore\n        /* \"#utility.yul\":25753:25884   */\n      tag_446\n        /* \"#utility.yul\":25879:25883   */\n      dup2\n        /* \"#utility.yul\":25753:25884   */\n      tag_218\n      jump\t// in\n    tag_446:\n        /* \"#utility.yul\":25745:25884   */\n      swap1\n      pop\n        /* \"#utility.yul\":25472:25891   */\n      swap2\n      swap1\n      pop\n      jump\t// out\n        /* \"#utility.yul\":25897:26038   */\n    tag_219:\n        /* \"#utility.yul\":25946:25950   */\n      0x00\n        /* \"#utility.yul\":25969:25972   */\n      dup2\n        /* \"#utility.yul\":25961:25972   */\n      swap1\n      pop\n        /* \"#utility.yul\":25992:25995   */\n      dup2\n        /* \"#utility.yul\":25989:25990   */\n      0x00\n        /* \"#utility.yul\":25982:25996   */\n      mstore\n        /* \"#utility.yul\":26026:26030   */\n      0x20\n        /* \"#utility.yul\":26023:26024   */\n      0x00\n        /* \"#utility.yul\":26013:26031   */\n      keccak256\n        /* \"#utility.yul\":26005:26031   */\n      swap1\n      pop\n        /* \"#utility.yul\":25897:26038   */\n      swap2\n      swap1\n      pop\n      jump\t// out\n        /* \"#utility.yul\":26044:26137   */\n    tag_220:\n        /* \"#utility.yul\":26081:26087   */\n      0x00\n        /* \"#utility.yul\":26128:26130   */\n      0x20\n        /* \"#utility.yul\":26123:26125   */\n      0x1f\n        /* \"#utility.yul\":26116:26121   */\n      dup4\n        /* \"#utility.yul\":26112:26126   */\n      add\n        /* \"#utility.yul\":26108:26131   */\n      div\n        /* \"#utility.yul\":26098:26131   */\n      swap1\n      pop\n        /* \"#utility.yul\":26044:26137   */\n      swap2\n      swap1\n      pop\n      jump\t// out\n        /* \"#utility.yul\":26143:26250   */\n    tag_221:\n        /* \"#utility.yul\":26187:26195   */\n      0x00\n        /* \"#utility.yul\":26237:26242   */\n      dup3\n        /* \"#utility.yul\":26231:26235   */\n      dup3\n        /* \"#utility.yul\":26227:26243   */\n      shl\n        /* \"#utility.yul\":26206:26243   */\n      swap1\n      pop\n        /* \"#utility.yul\":26143:26250   */\n      swap3\n      swap2\n      pop\n      pop\n      jump\t// out\n        /* \"#utility.yul\":26256:26649   */\n    tag_222:\n        /* \"#utility.yul\":26325:26331   */\n      0x00\n        /* \"#utility.yul\":26375:26376   */\n      0x08\n        /* \"#utility.yul\":26363:26373   */\n      dup4\n        /* \"#utility.yul\":26359:26377   */\n      mul\n        /* \"#utility.yul\":26398:26495   */\n      tag_451\n        /* \"#utility.yul\":26428:26494   */\n      0xffffffffffffffffffffffffffffffffffffffffffffffffffffffffffffffff\n        /* \"#utility.yul\":26417:26426   */\n      dup3\n        /* \"#utility.yul\":26398:26495   */\n      tag_221\n      jump\t// in\n    tag_451:\n        /* \"#utility.yul\":26516:26555   */\n      tag_452\n        /* \"#utility.yul\":26546:26554   */\n      dup7\n        /* \"#utility.yul\":26535:26544   */\n      dup4\n        /* \"#utility.yul\":26516:26555   */\n      tag_221\n      jump\t// in\n    tag_452:\n        /* \"#utility.yul\":26504:26555   */\n      swap6\n      pop\n        /* \"#utility.yul\":26588:26592   */\n      dup1\n        /* \"#utility.yul\":26584:26593   */\n      not\n        /* \"#utility.yul\":26577:26582   */\n      dup5\n        /* \"#utility.yul\":26573:26594   */\n      and\n        /* \"#utility.yul\":26564:26594   */\n      swap4\n      pop\n        /* \"#utility.yul\":26637:26641   */\n      dup1\n        /* \"#utility.yul\":26627:26635   */\n      dup7\n        /* \"#utility.yul\":26623:26642   */\n      and\n        /* \"#utility.yul\":26616:26621   */\n      dup5\n        /* \"#utility.yul\":26613:26643   */\n      or\n        /* \"#utility.yul\":26603:26643   */\n      swap3\n      pop\n        /* \"#utility.yul\":26332:26649   */\n      pop\n      pop\n        /* \"#utility.yul\":26256:26649   */\n      swap4\n      swap3\n      pop\n      pop\n      pop\n      jump\t// out\n        /* \"#utility.yul\":26655:26715   */\n    tag_223:\n        /* \"#utility.yul\":26683:26686   */\n      0x00\n        /* \"#utility.yul\":26704:26709   */\n      dup2\n        /* \"#utility.yul\":26697:26709   */\n      swap1\n      pop\n        /* \"#utility.yul\":26655:26715   */\n      swap2\n      swap1\n      pop\n      jump\t// out\n        /* \"#utility.yul\":26721:26863   */\n    tag_224:\n        /* \"#utility.yul\":26771:26780   */\n      0x00\n        /* \"#utility.yul\":26804:26857   */\n      tag_455\n        /* \"#utility.yul\":26822:26856   */\n      tag_456\n        /* \"#utility.yul\":26831:26855   */\n      tag_457\n        /* \"#utility.yul\":26849:26854   */\n      dup5\n        /* \"#utility.yul\":26831:26855   */\n      tag_168\n      jump\t// in\n    tag_457:\n        /* \"#utility.yul\":26822:26856   */\n      tag_223\n      jump\t// in\n    tag_456:\n        /* \"#utility.yul\":26804:26857   */\n      tag_168\n      jump\t// in\n    tag_455:\n        /* \"#utility.yul\":26791:26857   */\n      swap1\n      pop\n        /* \"#utility.yul\":26721:26863   */\n      swap2\n      swap1\n      pop\n      jump\t// out\n        /* \"#utility.yul\":26869:26944   */\n    tag_225:\n        /* \"#utility.yul\":26912:26915   */\n      0x00\n        /* \"#utility.yul\":26933:26938   */\n      dup2\n        /* \"#utility.yul\":26926:26938   */\n      swap1\n      pop\n        /* \"#utility.yul\":26869:26944   */\n      swap2\n      swap1\n      pop\n      jump\t// out\n        /* \"#utility.yul\":26950:27219   */\n    tag_226:\n        /* \"#utility.yul\":27060:27099   */\n      tag_460\n        /* \"#utility.yul\":27091:27098   */\n      dup4\n        /* \"#utility.yul\":27060:27099   */\n      tag_224\n      jump\t// in\n    tag_460:\n        /* \"#utility.yul\":27121:27212   */\n      tag_461\n        /* \"#utility.yul\":27170:27211   */\n      tag_462\n        /* \"#utility.yul\":27194:27210   */\n      dup3\n        /* \"#utility.yul\":27170:27211   */\n      tag_225\n      jump\t// in\n    tag_462:\n        /* \"#utility.yul\":27162:27168   */\n      dup5\n        /* \"#utility.yul\":27155:27159   */\n      dup5\n        /* \"#utility.yul\":27149:27160   */\n      sload\n        /* \"#utility.yul\":27121:27212   */\n      tag_222\n      jump\t// in\n    tag_461:\n        /* \"#utility.yul\":27115:27119   */\n      dup3\n        /* \"#utility.yul\":27108:27213   */\n      sstore\n        /* \"#utility.yul\":27026:27219   */\n      pop\n        /* \"#utility.yul\":26950:27219   */\n      pop\n      pop\n      pop\n      jump\t// out\n        /* \"#utility.yul\":27225:27298   */\n    tag_227:\n        /* \"#utility.yul\":27270:27273   */\n      0x00\n        /* \"#utility.yul\":27291:27292   */\n      0x00\n        /* \"#utility.yul\":27284:27292   */\n      swap1\n      pop\n        /* \"#utility.yul\":27225:27298   */\n      swap1\n      jump\t// out\n        /* \"#utility.yul\":27304:27493   */\n    tag_228:\n        /* \"#utility.yul\":27381:27413   */\n      tag_465\n      tag_227\n      jump\t// in\n    tag_465:\n        /* \"#utility.yul\":27422:27487   */\n      tag_466\n        /* \"#utility.yul\":27480:27486   */\n      dup2\n        /* \"#utility.yul\":27472:27478   */\n      dup5\n        /* \"#utility.yul\":27466:27470   */\n      dup5\n        /* \"#utility.yul\":27422:27487   */\n      tag_226\n      jump\t// in\n    tag_466:\n        /* \"#utility.yul\":27357:27493   */\n      pop\n        /* \"#utility.yul\":27304:27493   */\n      pop\n      pop\n      jump\t// out\n        /* \"#utility.yul\":27499:27685   */\n    tag_229:\n        /* \"#utility.yul\":27559:27679   */\n    tag_468:\n        /* \"#utility.yul\":27576:27579   */\n      dup2\n        /* \"#utility.yul\":27569:27574   */\n      dup2\n        /* \"#utility.yul\":27566:27580   */\n      lt\n        /* \"#utility.yul\":27559:27679   */\n      iszero\n      tag_470\n      jumpi\n        /* \"#utility.yul\":27630:27669   */\n      tag_471\n        /* \"#utility.yul\":27667:27668   */\n      0x00\n        /* \"#utility.yul\":27660:27665   */\n      dup3\n        /* \"#utility.yul\":27630:27669   */\n      tag_228\n      jump\t// in\n    tag_471:\n        /* \"#utility.yul\":27603:27604   */\n      0x01\n        /* \"#utility.yul\":27596:27601   */\n      dup2\n        /* \"#utility.yul\":27592:27605   */\n      add\n        /* \"#utility.yul\":27583:27605   */\n      swap1\n      pop\n        /* \"#utility.yul\":27559:27679   */\n      jump(tag_468)\n    tag_470:\n        /* \"#utility.yul\":27499:27685   */\n      pop\n      pop\n      jump\t// out\n        /* \"#utility.yul\":27691:28234   */\n    tag_230:\n        /* \"#utility.yul\":27792:27794   */\n      0x1f\n        /* \"#utility.yul\":27787:27790   */\n      dup3\n        /* \"#utility.yul\":27784:27795   */\n      gt\n        /* \"#utility.yul\":27781:28227   */\n      iszero\n      tag_473\n      jumpi\n        /* \"#utility.yul\":27826:27864   */\n      tag_474\n        /* \"#utility.yul\":27858:27863   */\n      dup2\n        /* \"#utility.yul\":27826:27864   */\n      tag_219\n      jump\t// in\n    tag_474:\n        /* \"#utility.yul\":27910:27939   */\n      tag_475\n        /* \"#utility.yul\":27928:27938   */\n      dup5\n        /* \"#utility.yul\":27910:27939   */\n      tag_220\n      jump\t// in\n    tag_475:\n        /* \"#utility.yul\":27900:27908   */\n      dup2\n        /* \"#utility.yul\":27896:27940   */\n      add\n        /* \"#utility.yul\":28093:28095   */\n      0x20\n        /* \"#utility.yul\":28081:28091   */\n      dup6\n        /* \"#utility.yul\":28078:28096   */\n      lt\n        /* \"#utility.yul\":28075:28124   */\n      iszero\n      tag_476\n      jumpi\n        /* \"#utility.yul\":28114:28122   */\n      dup2\n        /* \"#utility.yul\":28099:28122   */\n      swap1\n      pop\n        /* \"#utility.yul\":28075:28124   */\n    tag_476:\n        /* \"#utility.yul\":28137:28217   */\n      tag_477\n        /* \"#utility.yul\":28193:28215   */\n      tag_478\n        /* \"#utility.yul\":28211:28214   */\n      dup6\n        /* \"#utility.yul\":28193:28215   */\n      tag_220\n      jump\t// in\n    tag_478:\n        /* \"#utility.yul\":28183:28191   */\n      dup4\n        /* \"#utility.yul\":28179:28216   */\n      add\n        /* \"#utility.yul\":28166:28177   */\n      dup3\n        /* \"#utility.yul\":28137:28217   */\n      tag_229\n      jump\t// in\n    tag_477:\n        /* \"#utility.yul\":27796:28227   */\n      pop\n      pop\n        /* \"#utility.yul\":27781:28227   */\n    tag_473:\n        /* \"#utility.yul\":27691:28234   */\n      pop\n      pop\n      pop\n      jump\t// out\n        /* \"#utility.yul\":28240:28357   */\n    tag_231:\n        /* \"#utility.yul\":28294:28302   */\n      0x00\n        /* \"#utility.yul\":28344:28349   */\n      dup3\n        /* \"#utility.yul\":28338:28342   */\n      dup3\n        /* \"#utility.yul\":28334:28350   */\n      shr\n        /* \"#utility.yul\":28313:28350   */\n      swap1\n      pop\n        /* \"#utility.yul\":28240:28357   */\n      swap3\n      swap2\n      pop\n      pop\n      jump\t// out\n        /* \"#utility.yul\":28363:28532   */\n    tag_232:\n        /* \"#utility.yul\":28407:28413   */\n      0x00\n        /* \"#utility.yul\":28440:28491   */\n      tag_481\n        /* \"#utility.yul\":28488:28489   */\n      0x00\n        /* \"#utility.yul\":28484:28490   */\n      not\n        /* \"#utility.yul\":28476:28481   */\n      dup5\n        /* \"#utility.yul\":28473:28474   */\n      0x08\n        /* \"#utility.yul\":28469:28482   */\n      mul\n        /* \"#utility.yul\":28440:28491   */\n      tag_231\n      jump\t// in\n    tag_481:\n        /* \"#utility.yul\":28436:28492   */\n      not\n        /* \"#utility.yul\":28521:28525   */\n      dup1\n        /* \"#utility.yul\":28515:28519   */\n      dup4\n        /* \"#utility.yul\":28511:28526   */\n      and\n        /* \"#utility.yul\":28501:28526   */\n      swap2\n      pop\n        /* \"#utility.yul\":28414:28532   */\n      pop\n        /* \"#utility.yul\":28363:28532   */\n      swap3\n      swap2\n      pop\n      pop\n      jump\t// out\n        /* \"#utility.yul\":28537:28832   */\n    tag_233:\n        /* \"#utility.yul\":28613:28617   */\n      0x00\n        /* \"#utility.yul\":28759:28788   */\n      tag_483\n        /* \"#utility.yul\":28784:28787   */\n      dup4\n        /* \"#utility.yul\":28778:28782   */\n      dup4\n        /* \"#utility.yul\":28759:28788   */\n      tag_232\n      jump\t// in\n    tag_483:\n        /* \"#utility.yul\":28751:28788   */\n      swap2\n      pop\n        /* \"#utility.yul\":28821:28824   */\n      dup3\n        /* \"#utility.yul\":28818:28819   */\n      0x02\n        /* \"#utility.yul\":28814:28825   */\n      mul\n        /* \"#utility.yul\":28808:28812   */\n      dup3\n        /* \"#utility.yul\":28805:28826   */\n      or\n        /* \"#utility.yul\":28797:28826   */\n      swap1\n      pop\n        /* \"#utility.yul\":28537:28832   */\n      swap3\n      swap2\n      pop\n      pop\n      jump\t// out\n        /* \"#utility.yul\":28837:30232   */\n    tag_82:\n        /* \"#utility.yul\":28954:28991   */\n      tag_485\n        /* \"#utility.yul\":28987:28990   */\n      dup3\n        /* \"#utility.yul\":28954:28991   */\n      tag_173\n      jump\t// in\n    tag_485:\n        /* \"#utility.yul\":29056:29074   */\n      0xffffffffffffffff\n        /* \"#utility.yul\":29048:29054   */\n      dup2\n        /* \"#utility.yul\":29045:29075   */\n      gt\n        /* \"#utility.yul\":29042:29098   */\n      iszero\n      tag_486\n      jumpi\n        /* \"#utility.yul\":29078:29096   */\n      tag_487\n      tag_111\n      jump\t// in\n    tag_487:\n        /* \"#utility.yul\":29042:29098   */\n    tag_486:\n        /* \"#utility.yul\":29122:29160   */\n      tag_488\n        /* \"#utility.yul\":29154:29158   */\n      dup3\n        /* \"#utility.yul\":29148:29159   */\n      sload\n        /* \"#utility.yul\":29122:29160   */\n      tag_57\n      jump\t// in\n    tag_488:\n        /* \"#utility.yul\":29207:29274   */\n      tag_489\n        /* \"#utility.yul\":29267:29273   */\n      dup3\n        /* \"#utility.yul\":29259:29265   */\n      dup3\n        /* \"#utility.yul\":29253:29257   */\n      dup6\n        /* \"#utility.yul\":29207:29274   */\n      tag_230\n      jump\t// in\n    tag_489:\n        /* \"#utility.yul\":29301:29302   */\n      0x00\n        /* \"#utility.yul\":29325:29329   */\n      0x20\n        /* \"#utility.yul\":29312:29329   */\n      swap1\n      pop\n        /* \"#utility.yul\":29357:29359   */\n      0x1f\n        /* \"#utility.yul\":29349:29355   */\n      dup4\n        /* \"#utility.yul\":29346:29360   */\n      gt\n        /* \"#utility.yul\":29374:29375   */\n      0x01\n        /* \"#utility.yul\":29369:29987   */\n      dup2\n      eq\n      tag_491\n      jumpi\n        /* \"#utility.yul\":30031:30032   */\n      0x00\n        /* \"#utility.yul\":30048:30054   */\n      dup5\n        /* \"#utility.yul\":30045:30122   */\n      iszero\n      tag_492\n      jumpi\n        /* \"#utility.yul\":30097:30106   */\n      dup3\n        /* \"#utility.yul\":30092:30095   */\n      dup8\n        /* \"#utility.yul\":30088:30107   */\n      add\n        /* \"#utility.yul\":30082:30108   */\n      mload\n        /* \"#utility.yul\":30073:30108   */\n      swap1\n      pop\n        /* \"#utility.yul\":30045:30122   */\n    tag_492:\n        /* \"#utility.yul\":30148:30215   */\n      tag_493\n        /* \"#utility.yul\":30208:30214   */\n      dup6\n        /* \"#utility.yul\":30201:30206   */\n      dup3\n        /* \"#utility.yul\":30148:30215   */\n      tag_233\n      jump\t// in\n    tag_493:\n        /* \"#utility.yul\":30142:30146   */\n      dup7\n        /* \"#utility.yul\":30135:30216   */\n      sstore\n        /* \"#utility.yul\":30004:30226   */\n      pop\n        /* \"#utility.yul\":29339:30226   */\n      jump(tag_490)\n        /* \"#utility.yul\":29369:29987   */\n    tag_491:\n        /* \"#utility.yul\":29421:29425   */\n      0x1f\n        /* \"#utility.yul\":29417:29426   */\n      not\n        /* \"#utility.yul\":29409:29415   */\n      dup5\n        /* \"#utility.yul\":29405:29427   */\n      and\n        /* \"#utility.yul\":29455:29492   */\n      tag_494\n        /* \"#utility.yul\":29487:29491   */\n      dup7\n        /* \"#utility.yul\":29455:29492   */\n      tag_219\n      jump\t// in\n    tag_494:\n        /* \"#utility.yul\":29514:29515   */\n      0x00\n        /* \"#utility.yul\":29528:29736   */\n    tag_495:\n        /* \"#utility.yul\":29542:29549   */\n      dup3\n        /* \"#utility.yul\":29539:29540   */\n      dup2\n        /* \"#utility.yul\":29536:29550   */\n      lt\n        /* \"#utility.yul\":29528:29736   */\n      iszero\n      tag_497\n      jumpi\n        /* \"#utility.yul\":29621:29630   */\n      dup5\n        /* \"#utility.yul\":29616:29619   */\n      dup10\n        /* \"#utility.yul\":29612:29631   */\n      add\n        /* \"#utility.yul\":29606:29632   */\n      mload\n        /* \"#utility.yul\":29598:29604   */\n      dup3\n        /* \"#utility.yul\":29591:29633   */\n      sstore\n        /* \"#utility.yul\":29672:29673   */\n      0x01\n        /* \"#utility.yul\":29664:29670   */\n      dup3\n        /* \"#utility.yul\":29660:29674   */\n      add\n        /* \"#utility.yul\":29650:29674   */\n      swap2\n      pop\n        /* \"#utility.yul\":29719:29721   */\n      0x20\n        /* \"#utility.yul\":29708:29717   */\n      dup6\n        /* \"#utility.yul\":29704:29722   */\n      add\n        /* \"#utility.yul\":29691:29722   */\n      swap5\n      pop\n        /* \"#utility.yul\":29565:29569   */\n      0x20\n        /* \"#utility.yul\":29562:29563   */\n      dup2\n        /* \"#utility.yul\":29558:29570   */\n      add\n        /* \"#utility.yul\":29553:29570   */\n      swap1\n      pop\n        /* \"#utility.yul\":29528:29736   */\n      jump(tag_495)\n    tag_497:\n        /* \"#utility.yul\":29764:29770   */\n      dup7\n        /* \"#utility.yul\":29755:29762   */\n      dup4\n        /* \"#utility.yul\":29752:29771   */\n      lt\n        /* \"#utility.yul\":29749:29928   */\n      iszero\n      tag_498\n      jumpi\n        /* \"#utility.yul\":29822:29831   */\n      dup5\n        /* \"#utility.yul\":29817:29820   */\n      dup10\n        /* \"#utility.yul\":29813:29832   */\n      add\n        /* \"#utility.yul\":29807:29833   */\n      mload\n        /* \"#utility.yul\":29865:29913   */\n      tag_499\n        /* \"#utility.yul\":29907:29911   */\n      0x1f\n        /* \"#utility.yul\":29899:29905   */\n      dup10\n        /* \"#utility.yul\":29895:29912   */\n      and\n        /* \"#utility.yul\":29884:29893   */\n      dup3\n        /* \"#utility.yul\":29865:29913   */\n      tag_232\n      jump\t// in\n    tag_499:\n        /* \"#utility.yul\":29857:29863   */\n      dup4\n        /* \"#utility.yul\":29850:29914   */\n      sstore\n        /* \"#utility.yul\":29772:29928   */\n      pop\n        /* \"#utility.yul\":29749:29928   */\n    tag_498:\n        /* \"#utility.yul\":29974:29975   */\n      0x01\n        /* \"#utility.yul\":29970:29971   */\n      0x02\n        /* \"#utility.yul\":29962:29968   */\n      dup9\n        /* \"#utility.yul\":29958:29972   */\n      mul\n        /* \"#utility.yul\":29954:29976   */\n      add\n        /* \"#utility.yul\":29948:29952   */\n      dup9\n        /* \"#utility.yul\":29941:29977   */\n      sstore\n        /* \"#utility.yul\":29376:29987   */\n      pop\n      pop\n      pop\n        /* \"#utility.yul\":29339:30226   */\n    tag_490:\n      pop\n        /* \"#utility.yul\":28929:30232   */\n      pop\n      pop\n      pop\n        /* \"#utility.yul\":28837:30232   */\n      pop\n      pop\n      jump\t// out\n        /* \"#utility.yul\":30238:30418   */\n    tag_91:\n        /* \"#utility.yul\":30286:30363   */\n      0x4e487b7100000000000000000000000000000000000000000000000000000000\n        /* \"#utility.yul\":30283:30284   */\n      0x00\n        /* \"#utility.yul\":30276:30364   */\n      mstore\n        /* \"#utility.yul\":30383:30387   */\n      0x32\n        /* \"#utility.yul\":30380:30381   */\n      0x04\n        /* \"#utility.yul\":30373:30388   */\n      mstore\n        /* \"#utility.yul\":30407:30411   */\n      0x24\n        /* \"#utility.yul\":30404:30405   */\n      0x00\n        /* \"#utility.yul\":30397:30412   */\n      revert\n        /* \"#utility.yul\":30424:30801   */\n    tag_234:\n        /* \"#utility.yul\":30512:30515   */\n      0x00\n        /* \"#utility.yul\":30540:30579   */\n      tag_502\n        /* \"#utility.yul\":30573:30578   */\n      dup3\n        /* \"#utility.yul\":30540:30579   */\n      tag_173\n      jump\t// in\n    tag_502:\n        /* \"#utility.yul\":30595:30666   */\n      tag_503\n        /* \"#utility.yul\":30659:30665   */\n      dup2\n        /* \"#utility.yul\":30654:30657   */\n      dup6\n        /* \"#utility.yul\":30595:30666   */\n      tag_214\n      jump\t// in\n    tag_503:\n        /* \"#utility.yul\":30588:30666   */\n      swap4\n      pop\n        /* \"#utility.yul\":30675:30740   */\n      tag_504\n        /* \"#utility.yul\":30733:30739   */\n      dup2\n        /* \"#utility.yul\":30728:30731   */\n      dup6\n        /* \"#utility.yul\":30721:30725   */\n      0x20\n        /* \"#utility.yul\":30714:30719   */\n      dup7\n        /* \"#utility.yul\":30710:30726   */\n      add\n        /* \"#utility.yul\":30675:30740   */\n      tag_175\n      jump\t// in\n    tag_504:\n        /* \"#utility.yul\":30765:30794   */\n      tag_505\n        /* \"#utility.yul\":30787:30793   */\n      dup2\n        /* \"#utility.yul\":30765:30794   */\n      tag_176\n      jump\t// in\n    tag_505:\n        /* \"#utility.yul\":30760:30763   */\n      dup5\n        /* \"#utility.yul\":30756:30795   */\n      add\n        /* \"#utility.yul\":30749:30795   */\n      swap2\n      pop\n        /* \"#utility.yul\":30516:30801   */\n      pop\n        /* \"#utility.yul\":30424:30801   */\n      swap3\n      swap2\n      pop\n      pop\n      jump\t// out\n        /* \"#utility.yul\":30807:31744   */\n    tag_95:\n        /* \"#utility.yul\":31072:31076   */\n      0x00\n        /* \"#utility.yul\":31110:31113   */\n      0xa0\n        /* \"#utility.yul\":31099:31108   */\n      dup3\n        /* \"#utility.yul\":31095:31114   */\n      add\n        /* \"#utility.yul\":31087:31114   */\n      swap1\n      pop\n        /* \"#utility.yul\":31124:31195   */\n      tag_507\n        /* \"#utility.yul\":31192:31193   */\n      0x00\n        /* \"#utility.yul\":31181:31190   */\n      dup4\n        /* \"#utility.yul\":31177:31194   */\n      add\n        /* \"#utility.yul\":31168:31174   */\n      dup9\n        /* \"#utility.yul\":31124:31195   */\n      tag_169\n      jump\t// in\n    tag_507:\n        /* \"#utility.yul\":31242:31251   */\n      dup2\n        /* \"#utility.yul\":31236:31240   */\n      dup2\n        /* \"#utility.yul\":31232:31252   */\n      sub\n        /* \"#utility.yul\":31227:31229   */\n      0x20\n        /* \"#utility.yul\":31216:31225   */\n      dup4\n        /* \"#utility.yul\":31212:31230   */\n      add\n        /* \"#utility.yul\":31205:31253   */\n      mstore\n        /* \"#utility.yul\":31270:31348   */\n      tag_508\n        /* \"#utility.yul\":31343:31347   */\n      dup2\n        /* \"#utility.yul\":31334:31340   */\n      dup8\n        /* \"#utility.yul\":31270:31348   */\n      tag_234\n      jump\t// in\n    tag_508:\n        /* \"#utility.yul\":31262:31348   */\n      swap1\n      pop\n        /* \"#utility.yul\":31395:31404   */\n      dup2\n        /* \"#utility.yul\":31389:31393   */\n      dup2\n        /* \"#utility.yul\":31385:31405   */\n      sub\n        /* \"#utility.yul\":31380:31382   */\n      0x40\n        /* \"#utility.yul\":31369:31378   */\n      dup4\n        /* \"#utility.yul\":31365:31383   */\n      add\n        /* \"#utility.yul\":31358:31406   */\n      mstore\n        /* \"#utility.yul\":31423:31501   */\n      tag_509\n        /* \"#utility.yul\":31496:31500   */\n      dup2\n        /* \"#utility.yul\":31487:31493   */\n      dup7\n        /* \"#utility.yul\":31423:31501   */\n      tag_234\n      jump\t// in\n    tag_509:\n        /* \"#utility.yul\":31415:31501   */\n      swap1\n      pop\n        /* \"#utility.yul\":31511:31583   */\n      tag_510\n        /* \"#utility.yul\":31579:31581   */\n      0x60\n        /* \"#utility.yul\":31568:31577   */\n      dup4\n        /* \"#utility.yul\":31564:31582   */\n      add\n        /* \"#utility.yul\":31555:31561   */\n      dup6\n        /* \"#utility.yul\":31511:31583   */\n      tag_169\n      jump\t// in\n    tag_510:\n        /* \"#utility.yul\":31631:31640   */\n      dup2\n        /* \"#utility.yul\":31625:31629   */\n      dup2\n        /* \"#utility.yul\":31621:31641   */\n      sub\n        /* \"#utility.yul\":31615:31618   */\n      0x80\n        /* \"#utility.yul\":31604:31613   */\n      dup4\n        /* \"#utility.yul\":31600:31619   */\n      add\n        /* \"#utility.yul\":31593:31642   */\n      mstore\n        /* \"#utility.yul\":31659:31737   */\n      tag_511\n        /* \"#utility.yul\":31732:31736   */\n      dup2\n        /* \"#utility.yul\":31723:31729   */\n      dup5\n        /* \"#utility.yul\":31659:31737   */\n      tag_234\n      jump\t// in\n    tag_511:\n        /* \"#utility.yul\":31651:31737   */\n      swap1\n      pop\n        /* \"#utility.yul\":30807:31744   */\n      swap7\n      swap6\n      pop\n      pop\n      pop\n      pop\n      pop\n      pop\n      jump\t// out\n        /* \"#utility.yul\":31750:31919   */\n    tag_235:\n        /* \"#utility.yul\":31890:31911   */\n      0x466f6f6420646f6573206e6f7420657869737400000000000000000000000000\n        /* \"#utility.yul\":31886:31887   */\n      0x00\n        /* \"#utility.yul\":31878:31884   */\n      dup3\n        /* \"#utility.yul\":31874:31888   */\n      add\n        /* \"#utility.yul\":31867:31912   */\n      mstore\n        /* \"#utility.yul\":31750:31919   */\n      pop\n      jump\t// out\n        /* \"#utility.yul\":31925:32291   */\n    tag_236:\n        /* \"#utility.yul\":32067:32070   */\n      0x00\n        /* \"#utility.yul\":32088:32155   */\n      tag_514\n        /* \"#utility.yul\":32152:32154   */\n      0x13\n        /* \"#utility.yul\":32147:32150   */\n      dup4\n        /* \"#utility.yul\":32088:32155   */\n      tag_214\n      jump\t// in\n    tag_514:\n        /* \"#utility.yul\":32081:32155   */\n      swap2\n      pop\n        /* \"#utility.yul\":32164:32257   */\n      tag_515\n        /* \"#utility.yul\":32253:32256   */\n      dup3\n        /* \"#utility.yul\":32164:32257   */\n      tag_235\n      jump\t// in\n    tag_515:\n        /* \"#utility.yul\":32282:32284   */\n      0x20\n        /* \"#utility.yul\":32277:32280   */\n      dup3\n        /* \"#utility.yul\":32273:32285   */\n      add\n        /* \"#utility.yul\":32266:32285   */\n      swap1\n      pop\n        /* \"#utility.yul\":31925:32291   */\n      swap2\n      swap1\n      pop\n      jump\t// out\n        /* \"#utility.yul\":32297:32716   */\n    tag_99:\n        /* \"#utility.yul\":32463:32467   */\n      0x00\n        /* \"#utility.yul\":32501:32503   */\n      0x20\n        /* \"#utility.yul\":32490:32499   */\n      dup3\n        /* \"#utility.yul\":32486:32504   */\n      add\n        /* \"#utility.yul\":32478:32504   */\n      swap1\n      pop\n        /* \"#utility.yul\":32550:32559   */\n      dup2\n        /* \"#utility.yul\":32544:32548   */\n      dup2\n        /* \"#utility.yul\":32540:32560   */\n      sub\n        /* \"#utility.yul\":32536:32537   */\n      0x00\n        /* \"#utility.yul\":32525:32534   */\n      dup4\n        /* \"#utility.yul\":32521:32538   */\n      add\n        /* \"#utility.yul\":32514:32561   */\n      mstore\n        /* \"#utility.yul\":32578:32709   */\n      tag_517\n        /* \"#utility.yul\":32704:32708   */\n      dup2\n        /* \"#utility.yul\":32578:32709   */\n      tag_236\n      jump\t// in\n    tag_517:\n        /* \"#utility.yul\":32570:32709   */\n      swap1\n      pop\n        /* \"#utility.yul\":32297:32716   */\n      swap2\n      swap1\n      pop\n      jump\t// out\n\n    auxdata: 0xa2646970667358221220854a42251dbd0a6d2ffa1143c95ffce0e86e3173a2399d2e3e7ca8f6e7fea92864736f6c634300081e0033\n}\n",
				"bytecode": {
					"linkReferences": {},
					"object": "6080604052600180553480156012575f5ffd5b50611ced806100205f395ff3fe608060405234801561000f575f5ffd5b5060043610610091575f3560e01c80637048027511610064578063704802751461012f57806386e7f1041461014b578063af5607f914610167578063b9b5aae614610197578063e4fe9ce2146101b557610091565b80631785f53c146100955780631945ef58146100b15780631e4de872146100cf57806324d7806c146100ff575b5f5ffd5b6100af60048036038101906100aa9190610e7f565b6101d1565b005b6100b9610227565b6040516100c69190610ec2565b60405180910390f35b6100e960048036038101906100e49190610f05565b61022d565b6040516100f69190611030565b60405180910390f35b61011960048036038101906101149190610e7f565b61041b565b604051610126919061106a565b60405180910390f35b61014960048036038101906101449190610e7f565b610437565b005b6101656004803603810190610160919061132a565b61048e565b005b610181600480360381019061017c9190610f05565b61070e565b60405161018e919061153e565b60405180910390f35b61019f61087d565b6040516101ac919061175e565b60405180910390f35b6101cf60048036038101906101ca919061177e565b610c44565b005b5f5f5f8373ffffffffffffffffffffffffffffffffffffffff1673ffffffffffffffffffffffffffffffffffffffff1681526020019081526020015f205f6101000a81548160ff02191690831515021790555050565b60015481565b610235610dc7565b60025f8381526020019081526020015f206040518060a00160405290815f820154815260200160018201805461026a90611805565b80601f016020809104026020016040519081016040528092919081815260200182805461029690611805565b80156102e15780601f106102b8576101008083540402835291602001916102e1565b820191905f5260205f20905b8154815290600101906020018083116102c457829003601f168201915b505050505081526020016002820180546102fa90611805565b80601f016020809104026020016040519081016040528092919081815260200182805461032690611805565b80156103715780601f1061034857610100808354040283529160200191610371565b820191905f5260205f20905b81548152906001019060200180831161035457829003601f168201915b505050505081526020016003820154815260200160048201805461039490611805565b80601f01602080910402602001604051908101604052809291908181526020018280546103c090611805565b801561040b5780601f106103e25761010080835404028352916020019161040b565b820191905f5260205f20905b8154815290600101906020018083116103ee57829003601f168201915b5050505050815250509050919050565b5f602052805f5260405f205f915054906101000a900460ff1681565b60015f5f8373ffffffffffffffffffffffffffffffffffffffff1673ffffffffffffffffffffffffffffffffffffffff1681526020019081526020015f205f6101000a81548160ff02191690831515021790555050565b5f5f3373ffffffffffffffffffffffffffffffffffffffff1673ffffffffffffffffffffffffffffffffffffffff1681526020019081526020015f205f9054906101000a900460ff16610516576040517f08c379a000000000000000000000000000000000000000000000000000000000815260040161050d9061188f565b60405180910390fd5b5f60025f8881526020019081526020015f205f01541461056b576040517f08c379a0000000000000000000000000000000000000000000000000000000008152600401610562906118f7565b60405180910390fd5b5f6040518060a001604052808881526020018781526020018681526020018581526020018481525090508060025f8981526020019081526020015f205f820151815f015560208201518160010190816105c49190611ab5565b5060408201518160020190816105da9190611ab5565b506060820151816003015560808201518160040190816105fa9190611ab5565b50905050600487908060018154018082558091505060019003905f5260205f20015f90919091909150555f5f90505b82518110156106c55760035f8981526020019081526020015f2083828151811061065657610655611b84565b5b6020026020010151908060018154018082558091505060019003905f5260205f2090600402015f909190919091505f820151815f015560208201518160010190816106a19190611ab5565b50604082015181600201556060820151816003015550508080600101915050610629565b507fff0264342374cbd904a8a3c1290ea62d3ccb1b82de453a8b03a5ed17456ea27787878787876040516106fd959493929190611be9565b60405180910390a150505050505050565b60605f60025f8481526020019081526020015f205f015403610765576040517f08c379a000000000000000000000000000000000000000000000000000000000815260040161075c90611c99565b60405180910390fd5b60035f8381526020019081526020015f20805480602002602001604051908101604052809291908181526020015f905b82821015610872578382905f5260205f2090600402016040518060800160405290815f82015481526020016001820180546107cf90611805565b80601f01602080910402602001604051908101604052809291908181526020018280546107fb90611805565b80156108465780601f1061081d57610100808354040283529160200191610846565b820191905f5260205f20905b81548152906001019060200180831161082957829003601f168201915b505050505081526020016002820154815260200160038201548152505081526020019060010190610795565b505050509050919050565b60605f60048054905067ffffffffffffffff81111561089f5761089e61108b565b5b6040519080825280602002602001820160405280156108d857816020015b6108c5610df4565b8152602001906001900390816108bd5790505b5090505f5f90505b600480549050811015610c3c575f6004828154811061090257610901611b84565b5b905f5260205f2001549050604051806040016040528060025f8481526020019081526020015f206040518060a00160405290815f820154815260200160018201805461094d90611805565b80601f016020809104026020016040519081016040528092919081815260200182805461097990611805565b80156109c45780601f1061099b576101008083540402835291602001916109c4565b820191905f5260205f20905b8154815290600101906020018083116109a757829003601f168201915b505050505081526020016002820180546109dd90611805565b80601f0160208091040260200160405190810160405280929190818152602001828054610a0990611805565b8015610a545780601f10610a2b57610100808354040283529160200191610a54565b820191905f5260205f20905b815481529060010190602001808311610a3757829003601f168201915b5050505050815260200160038201548152602001600482018054610a7790611805565b80601f0160208091040260200160405190810160405280929190818152602001828054610aa390611805565b8015610aee5780601f10610ac557610100808354040283529160200191610aee565b820191905f5260205f20905b815481529060010190602001808311610ad157829003601f168201915b505050505081525050815260200160035f8481526020019081526020015f20805480602002602001604051908101604052809291908181526020015f905b82821015610c09578382905f5260205f2090600402016040518060800160405290815f8201548152602001600182018054610b6690611805565b80601f0160208091040260200160405190810160405280929190818152602001828054610b9290611805565b8015610bdd5780601f10610bb457610100808354040283529160200191610bdd565b820191905f5260205f20905b815481529060010190602001808311610bc057829003601f168201915b505050505081526020016002820154815260200160038201548152505081526020019060010190610b2c565b50505050815250838381518110610c2357610c22611b84565b5b60200260200101819052505080806001019150506108e0565b508091505090565b5f5f3373ffffffffffffffffffffffffffffffffffffffff1673ffffffffffffffffffffffffffffffffffffffff1681526020019081526020015f205f9054906101000a900460ff16610ccc576040517f08c379a0000000000000000000000000000000000000000000000000000000008152600401610cc39061188f565b60405180910390fd5b5f60025f8481526020019081526020015f205f015403610d21576040517f08c379a0000000000000000000000000000000000000000000000000000000008152600401610d1890611c99565b60405180910390fd5b5f5f90505b8151811015610dc25760035f8481526020019081526020015f20828281518110610d5357610d52611b84565b5b6020026020010151908060018154018082558091505060019003905f5260205f2090600402015f909190919091505f820151815f01556020820151816001019081610d9e9190611ab5565b50604082015181600201556060820151816003015550508080600101915050610d26565b505050565b6040518060a001604052805f815260200160608152602001606081526020015f8152602001606081525090565b6040518060400160405280610e07610dc7565b8152602001606081525090565b5f604051905090565b5f5ffd5b5f5ffd5b5f73ffffffffffffffffffffffffffffffffffffffff82169050919050565b5f610e4e82610e25565b9050919050565b610e5e81610e44565b8114610e68575f5ffd5b50565b5f81359050610e7981610e55565b92915050565b5f60208284031215610e9457610e93610e1d565b5b5f610ea184828501610e6b565b91505092915050565b5f819050919050565b610ebc81610eaa565b82525050565b5f602082019050610ed55f830184610eb3565b92915050565b610ee481610eaa565b8114610eee575f5ffd5b50565b5f81359050610eff81610edb565b92915050565b5f60208284031215610f1a57610f19610e1d565b5b5f610f2784828501610ef1565b91505092915050565b610f3981610eaa565b82525050565b5f81519050919050565b5f82825260208201905092915050565b8281835e5f83830152505050565b5f601f19601f8301169050919050565b5f610f8182610f3f565b610f8b8185610f49565b9350610f9b818560208601610f59565b610fa481610f67565b840191505092915050565b5f60a083015f830151610fc45f860182610f30565b5060208301518482036020860152610fdc8282610f77565b91505060408301518482036040860152610ff68282610f77565b915050606083015161100b6060860182610f30565b50608083015184820360808601526110238282610f77565b9150508091505092915050565b5f6020820190508181035f8301526110488184610faf565b905092915050565b5f8115159050919050565b61106481611050565b82525050565b5f60208201905061107d5f83018461105b565b92915050565b5f5ffd5b5f5ffd5b7f4e487b71000000000000000000000000000000000000000000000000000000005f52604160045260245ffd5b6110c182610f67565b810181811067ffffffffffffffff821117156110e0576110df61108b565b5b80604052505050565b5f6110f2610e14565b90506110fe82826110b8565b919050565b5f67ffffffffffffffff82111561111d5761111c61108b565b5b61112682610f67565b9050602081019050919050565b828183375f83830152505050565b5f61115361114e84611103565b6110e9565b90508281526020810184848401111561116f5761116e611087565b5b61117a848285611133565b509392505050565b5f82601f83011261119657611195611083565b5b81356111a6848260208601611141565b91505092915050565b5f67ffffffffffffffff8211156111c9576111c861108b565b5b602082029050602081019050919050565b5f5ffd5b5f5ffd5b5f5ffd5b5f608082840312156111fb576111fa6111de565b5b61120560806110e9565b90505f61121484828501610ef1565b5f83015250602082013567ffffffffffffffff811115611237576112366111e2565b5b61124384828501611182565b602083015250604061125784828501610ef1565b604083015250606061126b84828501610ef1565b60608301525092915050565b5f611289611284846111af565b6110e9565b905080838252602082019050602084028301858111156112ac576112ab6111da565b5b835b818110156112f357803567ffffffffffffffff8111156112d1576112d0611083565b5b8086016112de89826111e6565b855260208501945050506020810190506112ae565b5050509392505050565b5f82601f83011261131157611310611083565b5b8135611321848260208601611277565b91505092915050565b5f5f5f5f5f5f60c0878903121561134457611343610e1d565b5b5f61135189828a01610ef1565b965050602087013567ffffffffffffffff81111561137257611371610e21565b5b61137e89828a01611182565b955050604087013567ffffffffffffffff81111561139f5761139e610e21565b5b6113ab89828a01611182565b94505060606113bc89828a01610ef1565b935050608087013567ffffffffffffffff8111156113dd576113dc610e21565b5b6113e989828a01611182565b92505060a087013567ffffffffffffffff81111561140a57611409610e21565b5b61141689828a016112fd565b9150509295509295509295565b5f81519050919050565b5f82825260208201905092915050565b5f819050602082019050919050565b5f608083015f8301516114615f860182610f30565b50602083015184820360208601526114798282610f77565b915050604083015161148e6040860182610f30565b5060608301516114a16060860182610f30565b508091505092915050565b5f6114b7838361144c565b905092915050565b5f602082019050919050565b5f6114d582611423565b6114df818561142d565b9350836020820285016114f18561143d565b805f5b8581101561152c578484038952815161150d85826114ac565b9450611518836114bf565b925060208a019950506001810190506114f4565b50829750879550505050505092915050565b5f6020820190508181035f83015261155681846114cb565b905092915050565b5f81519050919050565b5f82825260208201905092915050565b5f819050602082019050919050565b5f60a083015f83015161159c5f860182610f30565b50602083015184820360208601526115b48282610f77565b915050604083015184820360408601526115ce8282610f77565b91505060608301516115e36060860182610f30565b50608083015184820360808601526115fb8282610f77565b9150508091505092915050565b5f82825260208201905092915050565b5f61162282611423565b61162c8185611608565b93508360208202850161163e8561143d565b805f5b85811015611679578484038952815161165a85826114ac565b9450611665836114bf565b925060208a01995050600181019050611641565b50829750879550505050505092915050565b5f604083015f8301518482035f8601526116a58282611587565b915050602083015184820360208601526116bf8282611618565b9150508091505092915050565b5f6116d7838361168b565b905092915050565b5f602082019050919050565b5f6116f58261155e565b6116ff8185611568565b93508360208202850161171185611578565b805f5b8581101561174c578484038952815161172d85826116cc565b9450611738836116df565b925060208a01995050600181019050611714565b50829750879550505050505092915050565b5f6020820190508181035f83015261177681846116eb565b905092915050565b5f5f6040838503121561179457611793610e1d565b5b5f6117a185828601610ef1565b925050602083013567ffffffffffffffff8111156117c2576117c1610e21565b5b6117ce858286016112fd565b9150509250929050565b7f4e487b71000000000000000000000000000000000000000000000000000000005f52602260045260245ffd5b5f600282049050600182168061181c57607f821691505b60208210810361182f5761182e6117d8565b5b50919050565b5f82825260208201905092915050565b7f596f7520617265206e6f742061646d696e0000000000000000000000000000005f82015250565b5f611879601183611835565b915061188482611845565b602082019050919050565b5f6020820190508181035f8301526118a68161186d565b9050919050565b7f466f6f642077697468207468697320494420616c7265616479206578697374735f82015250565b5f6118e1602083611835565b91506118ec826118ad565b602082019050919050565b5f6020820190508181035f83015261190e816118d5565b9050919050565b5f819050815f5260205f209050919050565b5f6020601f8301049050919050565b5f82821b905092915050565b5f600883026119717fffffffffffffffffffffffffffffffffffffffffffffffffffffffffffffffff82611936565b61197b8683611936565b95508019841693508086168417925050509392505050565b5f819050919050565b5f6119b66119b16119ac84610eaa565b611993565b610eaa565b9050919050565b5f819050919050565b6119cf8361199c565b6119e36119db826119bd565b848454611942565b825550505050565b5f5f905090565b6119fa6119eb565b611a058184846119c6565b505050565b5b81811015611a2857611a1d5f826119f2565b600181019050611a0b565b5050565b601f821115611a6d57611a3e81611915565b611a4784611927565b81016020851015611a56578190505b611a6a611a6285611927565b830182611a0a565b50505b505050565b5f82821c905092915050565b5f611a8d5f1984600802611a72565b1980831691505092915050565b5f611aa58383611a7e565b9150826002028217905092915050565b611abe82610f3f565b67ffffffffffffffff811115611ad757611ad661108b565b5b611ae18254611805565b611aec828285611a2c565b5f60209050601f831160018114611b1d575f8415611b0b578287015190505b611b158582611a9a565b865550611b7c565b601f198416611b2b86611915565b5f5b82811015611b5257848901518255600182019150602085019450602081019050611b2d565b86831015611b6f5784890151611b6b601f891682611a7e565b8355505b6001600288020188555050505b505050505050565b7f4e487b71000000000000000000000000000000000000000000000000000000005f52603260045260245ffd5b5f611bbb82610f3f565b611bc58185611835565b9350611bd5818560208601610f59565b611bde81610f67565b840191505092915050565b5f60a082019050611bfc5f830188610eb3565b8181036020830152611c0e8187611bb1565b90508181036040830152611c228186611bb1565b9050611c316060830185610eb3565b8181036080830152611c438184611bb1565b90509695505050505050565b7f466f6f6420646f6573206e6f74206578697374000000000000000000000000005f82015250565b5f611c83601383611835565b9150611c8e82611c4f565b602082019050919050565b5f6020820190508181035f830152611cb081611c77565b905091905056fea2646970667358221220854a42251dbd0a6d2ffa1143c95ffce0e86e3173a2399d2e3e7ca8f6e7fea92864736f6c634300081e0033",
					"opcodes": "PUSH1 0x80 PUSH1 0x40 MSTORE PUSH1 0x1 DUP1 SSTORE CALLVALUE DUP1 ISZERO PUSH1 0x12 JUMPI PUSH0 PUSH0 REVERT JUMPDEST POP PUSH2 0x1CED DUP1 PUSH2 0x20 PUSH0 CODECOPY PUSH0 RETURN INVALID PUSH1 0x80 PUSH1 0x40 MSTORE CALLVALUE DUP1 ISZERO PUSH2 0xF JUMPI PUSH0 PUSH0 REVERT JUMPDEST POP PUSH1 0x4 CALLDATASIZE LT PUSH2 0x91 JUMPI PUSH0 CALLDATALOAD PUSH1 0xE0 SHR DUP1 PUSH4 0x70480275 GT PUSH2 0x64 JUMPI DUP1 PUSH4 0x70480275 EQ PUSH2 0x12F JUMPI DUP1 PUSH4 0x86E7F104 EQ PUSH2 0x14B JUMPI DUP1 PUSH4 0xAF5607F9 EQ PUSH2 0x167 JUMPI DUP1 PUSH4 0xB9B5AAE6 EQ PUSH2 0x197 JUMPI DUP1 PUSH4 0xE4FE9CE2 EQ PUSH2 0x1B5 JUMPI PUSH2 0x91 JUMP JUMPDEST DUP1 PUSH4 0x1785F53C EQ PUSH2 0x95 JUMPI DUP1 PUSH4 0x1945EF58 EQ PUSH2 0xB1 JUMPI DUP1 PUSH4 0x1E4DE872 EQ PUSH2 0xCF JUMPI DUP1 PUSH4 0x24D7806C EQ PUSH2 0xFF JUMPI JUMPDEST PUSH0 PUSH0 REVERT JUMPDEST PUSH2 0xAF PUSH1 0x4 DUP1 CALLDATASIZE SUB DUP2 ADD SWAP1 PUSH2 0xAA SWAP2 SWAP1 PUSH2 0xE7F JUMP JUMPDEST PUSH2 0x1D1 JUMP JUMPDEST STOP JUMPDEST PUSH2 0xB9 PUSH2 0x227 JUMP JUMPDEST PUSH1 0x40 MLOAD PUSH2 0xC6 SWAP2 SWAP1 PUSH2 0xEC2 JUMP JUMPDEST PUSH1 0x40 MLOAD DUP1 SWAP2 SUB SWAP1 RETURN JUMPDEST PUSH2 0xE9 PUSH1 0x4 DUP1 CALLDATASIZE SUB DUP2 ADD SWAP1 PUSH2 0xE4 SWAP2 SWAP1 PUSH2 0xF05 JUMP JUMPDEST PUSH2 0x22D JUMP JUMPDEST PUSH1 0x40 MLOAD PUSH2 0xF6 SWAP2 SWAP1 PUSH2 0x1030 JUMP JUMPDEST PUSH1 0x40 MLOAD DUP1 SWAP2 SUB SWAP1 RETURN JUMPDEST PUSH2 0x119 PUSH1 0x4 DUP1 CALLDATASIZE SUB DUP2 ADD SWAP1 PUSH2 0x114 SWAP2 SWAP1 PUSH2 0xE7F JUMP JUMPDEST PUSH2 0x41B JUMP JUMPDEST PUSH1 0x40 MLOAD PUSH2 0x126 SWAP2 SWAP1 PUSH2 0x106A JUMP JUMPDEST PUSH1 0x40 MLOAD DUP1 SWAP2 SUB SWAP1 RETURN JUMPDEST PUSH2 0x149 PUSH1 0x4 DUP1 CALLDATASIZE SUB DUP2 ADD SWAP1 PUSH2 0x144 SWAP2 SWAP1 PUSH2 0xE7F JUMP JUMPDEST PUSH2 0x437 JUMP JUMPDEST STOP JUMPDEST PUSH2 0x165 PUSH1 0x4 DUP1 CALLDATASIZE SUB DUP2 ADD SWAP1 PUSH2 0x160 SWAP2 SWAP1 PUSH2 0x132A JUMP JUMPDEST PUSH2 0x48E JUMP JUMPDEST STOP JUMPDEST PUSH2 0x181 PUSH1 0x4 DUP1 CALLDATASIZE SUB DUP2 ADD SWAP1 PUSH2 0x17C SWAP2 SWAP1 PUSH2 0xF05 JUMP JUMPDEST PUSH2 0x70E JUMP JUMPDEST PUSH1 0x40 MLOAD PUSH2 0x18E SWAP2 SWAP1 PUSH2 0x153E JUMP JUMPDEST PUSH1 0x40 MLOAD DUP1 SWAP2 SUB SWAP1 RETURN JUMPDEST PUSH2 0x19F PUSH2 0x87D JUMP JUMPDEST PUSH1 0x40 MLOAD PUSH2 0x1AC SWAP2 SWAP1 PUSH2 0x175E JUMP JUMPDEST PUSH1 0x40 MLOAD DUP1 SWAP2 SUB SWAP1 RETURN JUMPDEST PUSH2 0x1CF PUSH1 0x4 DUP1 CALLDATASIZE SUB DUP2 ADD SWAP1 PUSH2 0x1CA SWAP2 SWAP1 PUSH2 0x177E JUMP JUMPDEST PUSH2 0xC44 JUMP JUMPDEST STOP JUMPDEST PUSH0 PUSH0 PUSH0 DUP4 PUSH20 0xFFFFFFFFFFFFFFFFFFFFFFFFFFFFFFFFFFFFFFFF AND PUSH20 0xFFFFFFFFFFFFFFFFFFFFFFFFFFFFFFFFFFFFFFFF AND DUP2 MSTORE PUSH1 0x20 ADD SWAP1 DUP2 MSTORE PUSH1 0x20 ADD PUSH0 KECCAK256 PUSH0 PUSH2 0x100 EXP DUP2 SLOAD DUP2 PUSH1 0xFF MUL NOT AND SWAP1 DUP4 ISZERO ISZERO MUL OR SWAP1 SSTORE POP POP JUMP JUMPDEST PUSH1 0x1 SLOAD DUP2 JUMP JUMPDEST PUSH2 0x235 PUSH2 0xDC7 JUMP JUMPDEST PUSH1 0x2 PUSH0 DUP4 DUP2 MSTORE PUSH1 0x20 ADD SWAP1 DUP2 MSTORE PUSH1 0x20 ADD PUSH0 KECCAK256 PUSH1 0x40 MLOAD DUP1 PUSH1 0xA0 ADD PUSH1 0x40 MSTORE SWAP1 DUP2 PUSH0 DUP3 ADD SLOAD DUP2 MSTORE PUSH1 0x20 ADD PUSH1 0x1 DUP3 ADD DUP1 SLOAD PUSH2 0x26A SWAP1 PUSH2 0x1805 JUMP JUMPDEST DUP1 PUSH1 0x1F ADD PUSH1 0x20 DUP1 SWAP2 DIV MUL PUSH1 0x20 ADD PUSH1 0x40 MLOAD SWAP1 DUP2 ADD PUSH1 0x40 MSTORE DUP1 SWAP3 SWAP2 SWAP1 DUP2 DUP2 MSTORE PUSH1 0x20 ADD DUP3 DUP1 SLOAD PUSH2 0x296 SWAP1 PUSH2 0x1805 JUMP JUMPDEST DUP1 ISZERO PUSH2 0x2E1 JUMPI DUP1 PUSH1 0x1F LT PUSH2 0x2B8 JUMPI PUSH2 0x100 DUP1 DUP4 SLOAD DIV MUL DUP4 MSTORE SWAP2 PUSH1 0x20 ADD SWAP2 PUSH2 0x2E1 JUMP JUMPDEST DUP3 ADD SWAP2 SWAP1 PUSH0 MSTORE PUSH1 0x20 PUSH0 KECCAK256 SWAP1 JUMPDEST DUP2 SLOAD DUP2 MSTORE SWAP1 PUSH1 0x1 ADD SWAP1 PUSH1 0x20 ADD DUP1 DUP4 GT PUSH2 0x2C4 JUMPI DUP3 SWAP1 SUB PUSH1 0x1F AND DUP3 ADD SWAP2 JUMPDEST POP POP POP POP POP DUP2 MSTORE PUSH1 0x20 ADD PUSH1 0x2 DUP3 ADD DUP1 SLOAD PUSH2 0x2FA SWAP1 PUSH2 0x1805 JUMP JUMPDEST DUP1 PUSH1 0x1F ADD PUSH1 0x20 DUP1 SWAP2 DIV MUL PUSH1 0x20 ADD PUSH1 0x40 MLOAD SWAP1 DUP2 ADD PUSH1 0x40 MSTORE DUP1 SWAP3 SWAP2 SWAP1 DUP2 DUP2 MSTORE PUSH1 0x20 ADD DUP3 DUP1 SLOAD PUSH2 0x326 SWAP1 PUSH2 0x1805 JUMP JUMPDEST DUP1 ISZERO PUSH2 0x371 JUMPI DUP1 PUSH1 0x1F LT PUSH2 0x348 JUMPI PUSH2 0x100 DUP1 DUP4 SLOAD DIV MUL DUP4 MSTORE SWAP2 PUSH1 0x20 ADD SWAP2 PUSH2 0x371 JUMP JUMPDEST DUP3 ADD SWAP2 SWAP1 PUSH0 MSTORE PUSH1 0x20 PUSH0 KECCAK256 SWAP1 JUMPDEST DUP2 SLOAD DUP2 MSTORE SWAP1 PUSH1 0x1 ADD SWAP1 PUSH1 0x20 ADD DUP1 DUP4 GT PUSH2 0x354 JUMPI DUP3 SWAP1 SUB PUSH1 0x1F AND DUP3 ADD SWAP2 JUMPDEST POP POP POP POP POP DUP2 MSTORE PUSH1 0x20 ADD PUSH1 0x3 DUP3 ADD SLOAD DUP2 MSTORE PUSH1 0x20 ADD PUSH1 0x4 DUP3 ADD DUP1 SLOAD PUSH2 0x394 SWAP1 PUSH2 0x1805 JUMP JUMPDEST DUP1 PUSH1 0x1F ADD PUSH1 0x20 DUP1 SWAP2 DIV MUL PUSH1 0x20 ADD PUSH1 0x40 MLOAD SWAP1 DUP2 ADD PUSH1 0x40 MSTORE DUP1 SWAP3 SWAP2 SWAP1 DUP2 DUP2 MSTORE PUSH1 0x20 ADD DUP3 DUP1 SLOAD PUSH2 0x3C0 SWAP1 PUSH2 0x1805 JUMP JUMPDEST DUP1 ISZERO PUSH2 0x40B JUMPI DUP1 PUSH1 0x1F LT PUSH2 0x3E2 JUMPI PUSH2 0x100 DUP1 DUP4 SLOAD DIV MUL DUP4 MSTORE SWAP2 PUSH1 0x20 ADD SWAP2 PUSH2 0x40B JUMP JUMPDEST DUP3 ADD SWAP2 SWAP1 PUSH0 MSTORE PUSH1 0x20 PUSH0 KECCAK256 SWAP1 JUMPDEST DUP2 SLOAD DUP2 MSTORE SWAP1 PUSH1 0x1 ADD SWAP1 PUSH1 0x20 ADD DUP1 DUP4 GT PUSH2 0x3EE JUMPI DUP3 SWAP1 SUB PUSH1 0x1F AND DUP3 ADD SWAP2 JUMPDEST POP POP POP POP POP DUP2 MSTORE POP POP SWAP1 POP SWAP2 SWAP1 POP JUMP JUMPDEST PUSH0 PUSH1 0x20 MSTORE DUP1 PUSH0 MSTORE PUSH1 0x40 PUSH0 KECCAK256 PUSH0 SWAP2 POP SLOAD SWAP1 PUSH2 0x100 EXP SWAP1 DIV PUSH1 0xFF AND DUP2 JUMP JUMPDEST PUSH1 0x1 PUSH0 PUSH0 DUP4 PUSH20 0xFFFFFFFFFFFFFFFFFFFFFFFFFFFFFFFFFFFFFFFF AND PUSH20 0xFFFFFFFFFFFFFFFFFFFFFFFFFFFFFFFFFFFFFFFF AND DUP2 MSTORE PUSH1 0x20 ADD SWAP1 DUP2 MSTORE PUSH1 0x20 ADD PUSH0 KECCAK256 PUSH0 PUSH2 0x100 EXP DUP2 SLOAD DUP2 PUSH1 0xFF MUL NOT AND SWAP1 DUP4 ISZERO ISZERO MUL OR SWAP1 SSTORE POP POP JUMP JUMPDEST PUSH0 PUSH0 CALLER PUSH20 0xFFFFFFFFFFFFFFFFFFFFFFFFFFFFFFFFFFFFFFFF AND PUSH20 0xFFFFFFFFFFFFFFFFFFFFFFFFFFFFFFFFFFFFFFFF AND DUP2 MSTORE PUSH1 0x20 ADD SWAP1 DUP2 MSTORE PUSH1 0x20 ADD PUSH0 KECCAK256 PUSH0 SWAP1 SLOAD SWAP1 PUSH2 0x100 EXP SWAP1 DIV PUSH1 0xFF AND PUSH2 0x516 JUMPI PUSH1 0x40 MLOAD PUSH32 0x8C379A000000000000000000000000000000000000000000000000000000000 DUP2 MSTORE PUSH1 0x4 ADD PUSH2 0x50D SWAP1 PUSH2 0x188F JUMP JUMPDEST PUSH1 0x40 MLOAD DUP1 SWAP2 SUB SWAP1 REVERT JUMPDEST PUSH0 PUSH1 0x2 PUSH0 DUP9 DUP2 MSTORE PUSH1 0x20 ADD SWAP1 DUP2 MSTORE PUSH1 0x20 ADD PUSH0 KECCAK256 PUSH0 ADD SLOAD EQ PUSH2 0x56B JUMPI PUSH1 0x40 MLOAD PUSH32 0x8C379A000000000000000000000000000000000000000000000000000000000 DUP2 MSTORE PUSH1 0x4 ADD PUSH2 0x562 SWAP1 PUSH2 0x18F7 JUMP JUMPDEST PUSH1 0x40 MLOAD DUP1 SWAP2 SUB SWAP1 REVERT JUMPDEST PUSH0 PUSH1 0x40 MLOAD DUP1 PUSH1 0xA0 ADD PUSH1 0x40 MSTORE DUP1 DUP9 DUP2 MSTORE PUSH1 0x20 ADD DUP8 DUP2 MSTORE PUSH1 0x20 ADD DUP7 DUP2 MSTORE PUSH1 0x20 ADD DUP6 DUP2 MSTORE PUSH1 0x20 ADD DUP5 DUP2 MSTORE POP SWAP1 POP DUP1 PUSH1 0x2 PUSH0 DUP10 DUP2 MSTORE PUSH1 0x20 ADD SWAP1 DUP2 MSTORE PUSH1 0x20 ADD PUSH0 KECCAK256 PUSH0 DUP3 ADD MLOAD DUP2 PUSH0 ADD SSTORE PUSH1 0x20 DUP3 ADD MLOAD DUP2 PUSH1 0x1 ADD SWAP1 DUP2 PUSH2 0x5C4 SWAP2 SWAP1 PUSH2 0x1AB5 JUMP JUMPDEST POP PUSH1 0x40 DUP3 ADD MLOAD DUP2 PUSH1 0x2 ADD SWAP1 DUP2 PUSH2 0x5DA SWAP2 SWAP1 PUSH2 0x1AB5 JUMP JUMPDEST POP PUSH1 0x60 DUP3 ADD MLOAD DUP2 PUSH1 0x3 ADD SSTORE PUSH1 0x80 DUP3 ADD MLOAD DUP2 PUSH1 0x4 ADD SWAP1 DUP2 PUSH2 0x5FA SWAP2 SWAP1 PUSH2 0x1AB5 JUMP JUMPDEST POP SWAP1 POP POP PUSH1 0x4 DUP8 SWAP1 DUP1 PUSH1 0x1 DUP2 SLOAD ADD DUP1 DUP3 SSTORE DUP1 SWAP2 POP POP PUSH1 0x1 SWAP1 SUB SWAP1 PUSH0 MSTORE PUSH1 0x20 PUSH0 KECCAK256 ADD PUSH0 SWAP1 SWAP2 SWAP1 SWAP2 SWAP1 SWAP2 POP SSTORE PUSH0 PUSH0 SWAP1 POP JUMPDEST DUP3 MLOAD DUP2 LT ISZERO PUSH2 0x6C5 JUMPI PUSH1 0x3 PUSH0 DUP10 DUP2 MSTORE PUSH1 0x20 ADD SWAP1 DUP2 MSTORE PUSH1 0x20 ADD PUSH0 KECCAK256 DUP4 DUP3 DUP2 MLOAD DUP2 LT PUSH2 0x656 JUMPI PUSH2 0x655 PUSH2 0x1B84 JUMP JUMPDEST JUMPDEST PUSH1 0x20 MUL PUSH1 0x20 ADD ADD MLOAD SWAP1 DUP1 PUSH1 0x1 DUP2 SLOAD ADD DUP1 DUP3 SSTORE DUP1 SWAP2 POP POP PUSH1 0x1 SWAP1 SUB SWAP1 PUSH0 MSTORE PUSH1 0x20 PUSH0 KECCAK256 SWAP1 PUSH1 0x4 MUL ADD PUSH0 SWAP1 SWAP2 SWAP1 SWAP2 SWAP1 SWAP2 POP PUSH0 DUP3 ADD MLOAD DUP2 PUSH0 ADD SSTORE PUSH1 0x20 DUP3 ADD MLOAD DUP2 PUSH1 0x1 ADD SWAP1 DUP2 PUSH2 0x6A1 SWAP2 SWAP1 PUSH2 0x1AB5 JUMP JUMPDEST POP PUSH1 0x40 DUP3 ADD MLOAD DUP2 PUSH1 0x2 ADD SSTORE PUSH1 0x60 DUP3 ADD MLOAD DUP2 PUSH1 0x3 ADD SSTORE POP POP DUP1 DUP1 PUSH1 0x1 ADD SWAP2 POP POP PUSH2 0x629 JUMP JUMPDEST POP PUSH32 0xFF0264342374CBD904A8A3C1290EA62D3CCB1B82DE453A8B03A5ED17456EA277 DUP8 DUP8 DUP8 DUP8 DUP8 PUSH1 0x40 MLOAD PUSH2 0x6FD SWAP6 SWAP5 SWAP4 SWAP3 SWAP2 SWAP1 PUSH2 0x1BE9 JUMP JUMPDEST PUSH1 0x40 MLOAD DUP1 SWAP2 SUB SWAP1 LOG1 POP POP POP POP POP POP POP JUMP JUMPDEST PUSH1 0x60 PUSH0 PUSH1 0x2 PUSH0 DUP5 DUP2 MSTORE PUSH1 0x20 ADD SWAP1 DUP2 MSTORE PUSH1 0x20 ADD PUSH0 KECCAK256 PUSH0 ADD SLOAD SUB PUSH2 0x765 JUMPI PUSH1 0x40 MLOAD PUSH32 0x8C379A000000000000000000000000000000000000000000000000000000000 DUP2 MSTORE PUSH1 0x4 ADD PUSH2 0x75C SWAP1 PUSH2 0x1C99 JUMP JUMPDEST PUSH1 0x40 MLOAD DUP1 SWAP2 SUB SWAP1 REVERT JUMPDEST PUSH1 0x3 PUSH0 DUP4 DUP2 MSTORE PUSH1 0x20 ADD SWAP1 DUP2 MSTORE PUSH1 0x20 ADD PUSH0 KECCAK256 DUP1 SLOAD DUP1 PUSH1 0x20 MUL PUSH1 0x20 ADD PUSH1 0x40 MLOAD SWAP1 DUP2 ADD PUSH1 0x40 MSTORE DUP1 SWAP3 SWAP2 SWAP1 DUP2 DUP2 MSTORE PUSH1 0x20 ADD PUSH0 SWAP1 JUMPDEST DUP3 DUP3 LT ISZERO PUSH2 0x872 JUMPI DUP4 DUP3 SWAP1 PUSH0 MSTORE PUSH1 0x20 PUSH0 KECCAK256 SWAP1 PUSH1 0x4 MUL ADD PUSH1 0x40 MLOAD DUP1 PUSH1 0x80 ADD PUSH1 0x40 MSTORE SWAP1 DUP2 PUSH0 DUP3 ADD SLOAD DUP2 MSTORE PUSH1 0x20 ADD PUSH1 0x1 DUP3 ADD DUP1 SLOAD PUSH2 0x7CF SWAP1 PUSH2 0x1805 JUMP JUMPDEST DUP1 PUSH1 0x1F ADD PUSH1 0x20 DUP1 SWAP2 DIV MUL PUSH1 0x20 ADD PUSH1 0x40 MLOAD SWAP1 DUP2 ADD PUSH1 0x40 MSTORE DUP1 SWAP3 SWAP2 SWAP1 DUP2 DUP2 MSTORE PUSH1 0x20 ADD DUP3 DUP1 SLOAD PUSH2 0x7FB SWAP1 PUSH2 0x1805 JUMP JUMPDEST DUP1 ISZERO PUSH2 0x846 JUMPI DUP1 PUSH1 0x1F LT PUSH2 0x81D JUMPI PUSH2 0x100 DUP1 DUP4 SLOAD DIV MUL DUP4 MSTORE SWAP2 PUSH1 0x20 ADD SWAP2 PUSH2 0x846 JUMP JUMPDEST DUP3 ADD SWAP2 SWAP1 PUSH0 MSTORE PUSH1 0x20 PUSH0 KECCAK256 SWAP1 JUMPDEST DUP2 SLOAD DUP2 MSTORE SWAP1 PUSH1 0x1 ADD SWAP1 PUSH1 0x20 ADD DUP1 DUP4 GT PUSH2 0x829 JUMPI DUP3 SWAP1 SUB PUSH1 0x1F AND DUP3 ADD SWAP2 JUMPDEST POP POP POP POP POP DUP2 MSTORE PUSH1 0x20 ADD PUSH1 0x2 DUP3 ADD SLOAD DUP2 MSTORE PUSH1 0x20 ADD PUSH1 0x3 DUP3 ADD SLOAD DUP2 MSTORE POP POP DUP2 MSTORE PUSH1 0x20 ADD SWAP1 PUSH1 0x1 ADD SWAP1 PUSH2 0x795 JUMP JUMPDEST POP POP POP POP SWAP1 POP SWAP2 SWAP1 POP JUMP JUMPDEST PUSH1 0x60 PUSH0 PUSH1 0x4 DUP1 SLOAD SWAP1 POP PUSH8 0xFFFFFFFFFFFFFFFF DUP2 GT ISZERO PUSH2 0x89F JUMPI PUSH2 0x89E PUSH2 0x108B JUMP JUMPDEST JUMPDEST PUSH1 0x40 MLOAD SWAP1 DUP1 DUP3 MSTORE DUP1 PUSH1 0x20 MUL PUSH1 0x20 ADD DUP3 ADD PUSH1 0x40 MSTORE DUP1 ISZERO PUSH2 0x8D8 JUMPI DUP2 PUSH1 0x20 ADD JUMPDEST PUSH2 0x8C5 PUSH2 0xDF4 JUMP JUMPDEST DUP2 MSTORE PUSH1 0x20 ADD SWAP1 PUSH1 0x1 SWAP1 SUB SWAP1 DUP2 PUSH2 0x8BD JUMPI SWAP1 POP JUMPDEST POP SWAP1 POP PUSH0 PUSH0 SWAP1 POP JUMPDEST PUSH1 0x4 DUP1 SLOAD SWAP1 POP DUP2 LT ISZERO PUSH2 0xC3C JUMPI PUSH0 PUSH1 0x4 DUP3 DUP2 SLOAD DUP2 LT PUSH2 0x902 JUMPI PUSH2 0x901 PUSH2 0x1B84 JUMP JUMPDEST JUMPDEST SWAP1 PUSH0 MSTORE PUSH1 0x20 PUSH0 KECCAK256 ADD SLOAD SWAP1 POP PUSH1 0x40 MLOAD DUP1 PUSH1 0x40 ADD PUSH1 0x40 MSTORE DUP1 PUSH1 0x2 PUSH0 DUP5 DUP2 MSTORE PUSH1 0x20 ADD SWAP1 DUP2 MSTORE PUSH1 0x20 ADD PUSH0 KECCAK256 PUSH1 0x40 MLOAD DUP1 PUSH1 0xA0 ADD PUSH1 0x40 MSTORE SWAP1 DUP2 PUSH0 DUP3 ADD SLOAD DUP2 MSTORE PUSH1 0x20 ADD PUSH1 0x1 DUP3 ADD DUP1 SLOAD PUSH2 0x94D SWAP1 PUSH2 0x1805 JUMP JUMPDEST DUP1 PUSH1 0x1F ADD PUSH1 0x20 DUP1 SWAP2 DIV MUL PUSH1 0x20 ADD PUSH1 0x40 MLOAD SWAP1 DUP2 ADD PUSH1 0x40 MSTORE DUP1 SWAP3 SWAP2 SWAP1 DUP2 DUP2 MSTORE PUSH1 0x20 ADD DUP3 DUP1 SLOAD PUSH2 0x979 SWAP1 PUSH2 0x1805 JUMP JUMPDEST DUP1 ISZERO PUSH2 0x9C4 JUMPI DUP1 PUSH1 0x1F LT PUSH2 0x99B JUMPI PUSH2 0x100 DUP1 DUP4 SLOAD DIV MUL DUP4 MSTORE SWAP2 PUSH1 0x20 ADD SWAP2 PUSH2 0x9C4 JUMP JUMPDEST DUP3 ADD SWAP2 SWAP1 PUSH0 MSTORE PUSH1 0x20 PUSH0 KECCAK256 SWAP1 JUMPDEST DUP2 SLOAD DUP2 MSTORE SWAP1 PUSH1 0x1 ADD SWAP1 PUSH1 0x20 ADD DUP1 DUP4 GT PUSH2 0x9A7 JUMPI DUP3 SWAP1 SUB PUSH1 0x1F AND DUP3 ADD SWAP2 JUMPDEST POP POP POP POP POP DUP2 MSTORE PUSH1 0x20 ADD PUSH1 0x2 DUP3 ADD DUP1 SLOAD PUSH2 0x9DD SWAP1 PUSH2 0x1805 JUMP JUMPDEST DUP1 PUSH1 0x1F ADD PUSH1 0x20 DUP1 SWAP2 DIV MUL PUSH1 0x20 ADD PUSH1 0x40 MLOAD SWAP1 DUP2 ADD PUSH1 0x40 MSTORE DUP1 SWAP3 SWAP2 SWAP1 DUP2 DUP2 MSTORE PUSH1 0x20 ADD DUP3 DUP1 SLOAD PUSH2 0xA09 SWAP1 PUSH2 0x1805 JUMP JUMPDEST DUP1 ISZERO PUSH2 0xA54 JUMPI DUP1 PUSH1 0x1F LT PUSH2 0xA2B JUMPI PUSH2 0x100 DUP1 DUP4 SLOAD DIV MUL DUP4 MSTORE SWAP2 PUSH1 0x20 ADD SWAP2 PUSH2 0xA54 JUMP JUMPDEST DUP3 ADD SWAP2 SWAP1 PUSH0 MSTORE PUSH1 0x20 PUSH0 KECCAK256 SWAP1 JUMPDEST DUP2 SLOAD DUP2 MSTORE SWAP1 PUSH1 0x1 ADD SWAP1 PUSH1 0x20 ADD DUP1 DUP4 GT PUSH2 0xA37 JUMPI DUP3 SWAP1 SUB PUSH1 0x1F AND DUP3 ADD SWAP2 JUMPDEST POP POP POP POP POP DUP2 MSTORE PUSH1 0x20 ADD PUSH1 0x3 DUP3 ADD SLOAD DUP2 MSTORE PUSH1 0x20 ADD PUSH1 0x4 DUP3 ADD DUP1 SLOAD PUSH2 0xA77 SWAP1 PUSH2 0x1805 JUMP JUMPDEST DUP1 PUSH1 0x1F ADD PUSH1 0x20 DUP1 SWAP2 DIV MUL PUSH1 0x20 ADD PUSH1 0x40 MLOAD SWAP1 DUP2 ADD PUSH1 0x40 MSTORE DUP1 SWAP3 SWAP2 SWAP1 DUP2 DUP2 MSTORE PUSH1 0x20 ADD DUP3 DUP1 SLOAD PUSH2 0xAA3 SWAP1 PUSH2 0x1805 JUMP JUMPDEST DUP1 ISZERO PUSH2 0xAEE JUMPI DUP1 PUSH1 0x1F LT PUSH2 0xAC5 JUMPI PUSH2 0x100 DUP1 DUP4 SLOAD DIV MUL DUP4 MSTORE SWAP2 PUSH1 0x20 ADD SWAP2 PUSH2 0xAEE JUMP JUMPDEST DUP3 ADD SWAP2 SWAP1 PUSH0 MSTORE PUSH1 0x20 PUSH0 KECCAK256 SWAP1 JUMPDEST DUP2 SLOAD DUP2 MSTORE SWAP1 PUSH1 0x1 ADD SWAP1 PUSH1 0x20 ADD DUP1 DUP4 GT PUSH2 0xAD1 JUMPI DUP3 SWAP1 SUB PUSH1 0x1F AND DUP3 ADD SWAP2 JUMPDEST POP POP POP POP POP DUP2 MSTORE POP POP DUP2 MSTORE PUSH1 0x20 ADD PUSH1 0x3 PUSH0 DUP5 DUP2 MSTORE PUSH1 0x20 ADD SWAP1 DUP2 MSTORE PUSH1 0x20 ADD PUSH0 KECCAK256 DUP1 SLOAD DUP1 PUSH1 0x20 MUL PUSH1 0x20 ADD PUSH1 0x40 MLOAD SWAP1 DUP2 ADD PUSH1 0x40 MSTORE DUP1 SWAP3 SWAP2 SWAP1 DUP2 DUP2 MSTORE PUSH1 0x20 ADD PUSH0 SWAP1 JUMPDEST DUP3 DUP3 LT ISZERO PUSH2 0xC09 JUMPI DUP4 DUP3 SWAP1 PUSH0 MSTORE PUSH1 0x20 PUSH0 KECCAK256 SWAP1 PUSH1 0x4 MUL ADD PUSH1 0x40 MLOAD DUP1 PUSH1 0x80 ADD PUSH1 0x40 MSTORE SWAP1 DUP2 PUSH0 DUP3 ADD SLOAD DUP2 MSTORE PUSH1 0x20 ADD PUSH1 0x1 DUP3 ADD DUP1 SLOAD PUSH2 0xB66 SWAP1 PUSH2 0x1805 JUMP JUMPDEST DUP1 PUSH1 0x1F ADD PUSH1 0x20 DUP1 SWAP2 DIV MUL PUSH1 0x20 ADD PUSH1 0x40 MLOAD SWAP1 DUP2 ADD PUSH1 0x40 MSTORE DUP1 SWAP3 SWAP2 SWAP1 DUP2 DUP2 MSTORE PUSH1 0x20 ADD DUP3 DUP1 SLOAD PUSH2 0xB92 SWAP1 PUSH2 0x1805 JUMP JUMPDEST DUP1 ISZERO PUSH2 0xBDD JUMPI DUP1 PUSH1 0x1F LT PUSH2 0xBB4 JUMPI PUSH2 0x100 DUP1 DUP4 SLOAD DIV MUL DUP4 MSTORE SWAP2 PUSH1 0x20 ADD SWAP2 PUSH2 0xBDD JUMP JUMPDEST DUP3 ADD SWAP2 SWAP1 PUSH0 MSTORE PUSH1 0x20 PUSH0 KECCAK256 SWAP1 JUMPDEST DUP2 SLOAD DUP2 MSTORE SWAP1 PUSH1 0x1 ADD SWAP1 PUSH1 0x20 ADD DUP1 DUP4 GT PUSH2 0xBC0 JUMPI DUP3 SWAP1 SUB PUSH1 0x1F AND DUP3 ADD SWAP2 JUMPDEST POP POP POP POP POP DUP2 MSTORE PUSH1 0x20 ADD PUSH1 0x2 DUP3 ADD SLOAD DUP2 MSTORE PUSH1 0x20 ADD PUSH1 0x3 DUP3 ADD SLOAD DUP2 MSTORE POP POP DUP2 MSTORE PUSH1 0x20 ADD SWAP1 PUSH1 0x1 ADD SWAP1 PUSH2 0xB2C JUMP JUMPDEST POP POP POP POP DUP2 MSTORE POP DUP4 DUP4 DUP2 MLOAD DUP2 LT PUSH2 0xC23 JUMPI PUSH2 0xC22 PUSH2 0x1B84 JUMP JUMPDEST JUMPDEST PUSH1 0x20 MUL PUSH1 0x20 ADD ADD DUP2 SWAP1 MSTORE POP POP DUP1 DUP1 PUSH1 0x1 ADD SWAP2 POP POP PUSH2 0x8E0 JUMP JUMPDEST POP DUP1 SWAP2 POP POP SWAP1 JUMP JUMPDEST PUSH0 PUSH0 CALLER PUSH20 0xFFFFFFFFFFFFFFFFFFFFFFFFFFFFFFFFFFFFFFFF AND PUSH20 0xFFFFFFFFFFFFFFFFFFFFFFFFFFFFFFFFFFFFFFFF AND DUP2 MSTORE PUSH1 0x20 ADD SWAP1 DUP2 MSTORE PUSH1 0x20 ADD PUSH0 KECCAK256 PUSH0 SWAP1 SLOAD SWAP1 PUSH2 0x100 EXP SWAP1 DIV PUSH1 0xFF AND PUSH2 0xCCC JUMPI PUSH1 0x40 MLOAD PUSH32 0x8C379A000000000000000000000000000000000000000000000000000000000 DUP2 MSTORE PUSH1 0x4 ADD PUSH2 0xCC3 SWAP1 PUSH2 0x188F JUMP JUMPDEST PUSH1 0x40 MLOAD DUP1 SWAP2 SUB SWAP1 REVERT JUMPDEST PUSH0 PUSH1 0x2 PUSH0 DUP5 DUP2 MSTORE PUSH1 0x20 ADD SWAP1 DUP2 MSTORE PUSH1 0x20 ADD PUSH0 KECCAK256 PUSH0 ADD SLOAD SUB PUSH2 0xD21 JUMPI PUSH1 0x40 MLOAD PUSH32 0x8C379A000000000000000000000000000000000000000000000000000000000 DUP2 MSTORE PUSH1 0x4 ADD PUSH2 0xD18 SWAP1 PUSH2 0x1C99 JUMP JUMPDEST PUSH1 0x40 MLOAD DUP1 SWAP2 SUB SWAP1 REVERT JUMPDEST PUSH0 PUSH0 SWAP1 POP JUMPDEST DUP2 MLOAD DUP2 LT ISZERO PUSH2 0xDC2 JUMPI PUSH1 0x3 PUSH0 DUP5 DUP2 MSTORE PUSH1 0x20 ADD SWAP1 DUP2 MSTORE PUSH1 0x20 ADD PUSH0 KECCAK256 DUP3 DUP3 DUP2 MLOAD DUP2 LT PUSH2 0xD53 JUMPI PUSH2 0xD52 PUSH2 0x1B84 JUMP JUMPDEST JUMPDEST PUSH1 0x20 MUL PUSH1 0x20 ADD ADD MLOAD SWAP1 DUP1 PUSH1 0x1 DUP2 SLOAD ADD DUP1 DUP3 SSTORE DUP1 SWAP2 POP POP PUSH1 0x1 SWAP1 SUB SWAP1 PUSH0 MSTORE PUSH1 0x20 PUSH0 KECCAK256 SWAP1 PUSH1 0x4 MUL ADD PUSH0 SWAP1 SWAP2 SWAP1 SWAP2 SWAP1 SWAP2 POP PUSH0 DUP3 ADD MLOAD DUP2 PUSH0 ADD SSTORE PUSH1 0x20 DUP3 ADD MLOAD DUP2 PUSH1 0x1 ADD SWAP1 DUP2 PUSH2 0xD9E SWAP2 SWAP1 PUSH2 0x1AB5 JUMP JUMPDEST POP PUSH1 0x40 DUP3 ADD MLOAD DUP2 PUSH1 0x2 ADD SSTORE PUSH1 0x60 DUP3 ADD MLOAD DUP2 PUSH1 0x3 ADD SSTORE POP POP DUP1 DUP1 PUSH1 0x1 ADD SWAP2 POP POP PUSH2 0xD26 JUMP JUMPDEST POP POP POP JUMP JUMPDEST PUSH1 0x40 MLOAD DUP1 PUSH1 0xA0 ADD PUSH1 0x40 MSTORE DUP1 PUSH0 DUP2 MSTORE PUSH1 0x20 ADD PUSH1 0x60 DUP2 MSTORE PUSH1 0x20 ADD PUSH1 0x60 DUP2 MSTORE PUSH1 0x20 ADD PUSH0 DUP2 MSTORE PUSH1 0x20 ADD PUSH1 0x60 DUP2 MSTORE POP SWAP1 JUMP JUMPDEST PUSH1 0x40 MLOAD DUP1 PUSH1 0x40 ADD PUSH1 0x40 MSTORE DUP1 PUSH2 0xE07 PUSH2 0xDC7 JUMP JUMPDEST DUP2 MSTORE PUSH1 0x20 ADD PUSH1 0x60 DUP2 MSTORE POP SWAP1 JUMP JUMPDEST PUSH0 PUSH1 0x40 MLOAD SWAP1 POP SWAP1 JUMP JUMPDEST PUSH0 PUSH0 REVERT JUMPDEST PUSH0 PUSH0 REVERT JUMPDEST PUSH0 PUSH20 0xFFFFFFFFFFFFFFFFFFFFFFFFFFFFFFFFFFFFFFFF DUP3 AND SWAP1 POP SWAP2 SWAP1 POP JUMP JUMPDEST PUSH0 PUSH2 0xE4E DUP3 PUSH2 0xE25 JUMP JUMPDEST SWAP1 POP SWAP2 SWAP1 POP JUMP JUMPDEST PUSH2 0xE5E DUP2 PUSH2 0xE44 JUMP JUMPDEST DUP2 EQ PUSH2 0xE68 JUMPI PUSH0 PUSH0 REVERT JUMPDEST POP JUMP JUMPDEST PUSH0 DUP2 CALLDATALOAD SWAP1 POP PUSH2 0xE79 DUP2 PUSH2 0xE55 JUMP JUMPDEST SWAP3 SWAP2 POP POP JUMP JUMPDEST PUSH0 PUSH1 0x20 DUP3 DUP5 SUB SLT ISZERO PUSH2 0xE94 JUMPI PUSH2 0xE93 PUSH2 0xE1D JUMP JUMPDEST JUMPDEST PUSH0 PUSH2 0xEA1 DUP5 DUP3 DUP6 ADD PUSH2 0xE6B JUMP JUMPDEST SWAP2 POP POP SWAP3 SWAP2 POP POP JUMP JUMPDEST PUSH0 DUP2 SWAP1 POP SWAP2 SWAP1 POP JUMP JUMPDEST PUSH2 0xEBC DUP2 PUSH2 0xEAA JUMP JUMPDEST DUP3 MSTORE POP POP JUMP JUMPDEST PUSH0 PUSH1 0x20 DUP3 ADD SWAP1 POP PUSH2 0xED5 PUSH0 DUP4 ADD DUP5 PUSH2 0xEB3 JUMP JUMPDEST SWAP3 SWAP2 POP POP JUMP JUMPDEST PUSH2 0xEE4 DUP2 PUSH2 0xEAA JUMP JUMPDEST DUP2 EQ PUSH2 0xEEE JUMPI PUSH0 PUSH0 REVERT JUMPDEST POP JUMP JUMPDEST PUSH0 DUP2 CALLDATALOAD SWAP1 POP PUSH2 0xEFF DUP2 PUSH2 0xEDB JUMP JUMPDEST SWAP3 SWAP2 POP POP JUMP JUMPDEST PUSH0 PUSH1 0x20 DUP3 DUP5 SUB SLT ISZERO PUSH2 0xF1A JUMPI PUSH2 0xF19 PUSH2 0xE1D JUMP JUMPDEST JUMPDEST PUSH0 PUSH2 0xF27 DUP5 DUP3 DUP6 ADD PUSH2 0xEF1 JUMP JUMPDEST SWAP2 POP POP SWAP3 SWAP2 POP POP JUMP JUMPDEST PUSH2 0xF39 DUP2 PUSH2 0xEAA JUMP JUMPDEST DUP3 MSTORE POP POP JUMP JUMPDEST PUSH0 DUP2 MLOAD SWAP1 POP SWAP2 SWAP1 POP JUMP JUMPDEST PUSH0 DUP3 DUP3 MSTORE PUSH1 0x20 DUP3 ADD SWAP1 POP SWAP3 SWAP2 POP POP JUMP JUMPDEST DUP3 DUP2 DUP4 MCOPY PUSH0 DUP4 DUP4 ADD MSTORE POP POP POP JUMP JUMPDEST PUSH0 PUSH1 0x1F NOT PUSH1 0x1F DUP4 ADD AND SWAP1 POP SWAP2 SWAP1 POP JUMP JUMPDEST PUSH0 PUSH2 0xF81 DUP3 PUSH2 0xF3F JUMP JUMPDEST PUSH2 0xF8B DUP2 DUP6 PUSH2 0xF49 JUMP JUMPDEST SWAP4 POP PUSH2 0xF9B DUP2 DUP6 PUSH1 0x20 DUP7 ADD PUSH2 0xF59 JUMP JUMPDEST PUSH2 0xFA4 DUP2 PUSH2 0xF67 JUMP JUMPDEST DUP5 ADD SWAP2 POP POP SWAP3 SWAP2 POP POP JUMP JUMPDEST PUSH0 PUSH1 0xA0 DUP4 ADD PUSH0 DUP4 ADD MLOAD PUSH2 0xFC4 PUSH0 DUP7 ADD DUP3 PUSH2 0xF30 JUMP JUMPDEST POP PUSH1 0x20 DUP4 ADD MLOAD DUP5 DUP3 SUB PUSH1 0x20 DUP7 ADD MSTORE PUSH2 0xFDC DUP3 DUP3 PUSH2 0xF77 JUMP JUMPDEST SWAP2 POP POP PUSH1 0x40 DUP4 ADD MLOAD DUP5 DUP3 SUB PUSH1 0x40 DUP7 ADD MSTORE PUSH2 0xFF6 DUP3 DUP3 PUSH2 0xF77 JUMP JUMPDEST SWAP2 POP POP PUSH1 0x60 DUP4 ADD MLOAD PUSH2 0x100B PUSH1 0x60 DUP7 ADD DUP3 PUSH2 0xF30 JUMP JUMPDEST POP PUSH1 0x80 DUP4 ADD MLOAD DUP5 DUP3 SUB PUSH1 0x80 DUP7 ADD MSTORE PUSH2 0x1023 DUP3 DUP3 PUSH2 0xF77 JUMP JUMPDEST SWAP2 POP POP DUP1 SWAP2 POP POP SWAP3 SWAP2 POP POP JUMP JUMPDEST PUSH0 PUSH1 0x20 DUP3 ADD SWAP1 POP DUP2 DUP2 SUB PUSH0 DUP4 ADD MSTORE PUSH2 0x1048 DUP2 DUP5 PUSH2 0xFAF JUMP JUMPDEST SWAP1 POP SWAP3 SWAP2 POP POP JUMP JUMPDEST PUSH0 DUP2 ISZERO ISZERO SWAP1 POP SWAP2 SWAP1 POP JUMP JUMPDEST PUSH2 0x1064 DUP2 PUSH2 0x1050 JUMP JUMPDEST DUP3 MSTORE POP POP JUMP JUMPDEST PUSH0 PUSH1 0x20 DUP3 ADD SWAP1 POP PUSH2 0x107D PUSH0 DUP4 ADD DUP5 PUSH2 0x105B JUMP JUMPDEST SWAP3 SWAP2 POP POP JUMP JUMPDEST PUSH0 PUSH0 REVERT JUMPDEST PUSH0 PUSH0 REVERT JUMPDEST PUSH32 0x4E487B7100000000000000000000000000000000000000000000000000000000 PUSH0 MSTORE PUSH1 0x41 PUSH1 0x4 MSTORE PUSH1 0x24 PUSH0 REVERT JUMPDEST PUSH2 0x10C1 DUP3 PUSH2 0xF67 JUMP JUMPDEST DUP2 ADD DUP2 DUP2 LT PUSH8 0xFFFFFFFFFFFFFFFF DUP3 GT OR ISZERO PUSH2 0x10E0 JUMPI PUSH2 0x10DF PUSH2 0x108B JUMP JUMPDEST JUMPDEST DUP1 PUSH1 0x40 MSTORE POP POP POP JUMP JUMPDEST PUSH0 PUSH2 0x10F2 PUSH2 0xE14 JUMP JUMPDEST SWAP1 POP PUSH2 0x10FE DUP3 DUP3 PUSH2 0x10B8 JUMP JUMPDEST SWAP2 SWAP1 POP JUMP JUMPDEST PUSH0 PUSH8 0xFFFFFFFFFFFFFFFF DUP3 GT ISZERO PUSH2 0x111D JUMPI PUSH2 0x111C PUSH2 0x108B JUMP JUMPDEST JUMPDEST PUSH2 0x1126 DUP3 PUSH2 0xF67 JUMP JUMPDEST SWAP1 POP PUSH1 0x20 DUP2 ADD SWAP1 POP SWAP2 SWAP1 POP JUMP JUMPDEST DUP3 DUP2 DUP4 CALLDATACOPY PUSH0 DUP4 DUP4 ADD MSTORE POP POP POP JUMP JUMPDEST PUSH0 PUSH2 0x1153 PUSH2 0x114E DUP5 PUSH2 0x1103 JUMP JUMPDEST PUSH2 0x10E9 JUMP JUMPDEST SWAP1 POP DUP3 DUP2 MSTORE PUSH1 0x20 DUP2 ADD DUP5 DUP5 DUP5 ADD GT ISZERO PUSH2 0x116F JUMPI PUSH2 0x116E PUSH2 0x1087 JUMP JUMPDEST JUMPDEST PUSH2 0x117A DUP5 DUP3 DUP6 PUSH2 0x1133 JUMP JUMPDEST POP SWAP4 SWAP3 POP POP POP JUMP JUMPDEST PUSH0 DUP3 PUSH1 0x1F DUP4 ADD SLT PUSH2 0x1196 JUMPI PUSH2 0x1195 PUSH2 0x1083 JUMP JUMPDEST JUMPDEST DUP2 CALLDATALOAD PUSH2 0x11A6 DUP5 DUP3 PUSH1 0x20 DUP7 ADD PUSH2 0x1141 JUMP JUMPDEST SWAP2 POP POP SWAP3 SWAP2 POP POP JUMP JUMPDEST PUSH0 PUSH8 0xFFFFFFFFFFFFFFFF DUP3 GT ISZERO PUSH2 0x11C9 JUMPI PUSH2 0x11C8 PUSH2 0x108B JUMP JUMPDEST JUMPDEST PUSH1 0x20 DUP3 MUL SWAP1 POP PUSH1 0x20 DUP2 ADD SWAP1 POP SWAP2 SWAP1 POP JUMP JUMPDEST PUSH0 PUSH0 REVERT JUMPDEST PUSH0 PUSH0 REVERT JUMPDEST PUSH0 PUSH0 REVERT JUMPDEST PUSH0 PUSH1 0x80 DUP3 DUP5 SUB SLT ISZERO PUSH2 0x11FB JUMPI PUSH2 0x11FA PUSH2 0x11DE JUMP JUMPDEST JUMPDEST PUSH2 0x1205 PUSH1 0x80 PUSH2 0x10E9 JUMP JUMPDEST SWAP1 POP PUSH0 PUSH2 0x1214 DUP5 DUP3 DUP6 ADD PUSH2 0xEF1 JUMP JUMPDEST PUSH0 DUP4 ADD MSTORE POP PUSH1 0x20 DUP3 ADD CALLDATALOAD PUSH8 0xFFFFFFFFFFFFFFFF DUP2 GT ISZERO PUSH2 0x1237 JUMPI PUSH2 0x1236 PUSH2 0x11E2 JUMP JUMPDEST JUMPDEST PUSH2 0x1243 DUP5 DUP3 DUP6 ADD PUSH2 0x1182 JUMP JUMPDEST PUSH1 0x20 DUP4 ADD MSTORE POP PUSH1 0x40 PUSH2 0x1257 DUP5 DUP3 DUP6 ADD PUSH2 0xEF1 JUMP JUMPDEST PUSH1 0x40 DUP4 ADD MSTORE POP PUSH1 0x60 PUSH2 0x126B DUP5 DUP3 DUP6 ADD PUSH2 0xEF1 JUMP JUMPDEST PUSH1 0x60 DUP4 ADD MSTORE POP SWAP3 SWAP2 POP POP JUMP JUMPDEST PUSH0 PUSH2 0x1289 PUSH2 0x1284 DUP5 PUSH2 0x11AF JUMP JUMPDEST PUSH2 0x10E9 JUMP JUMPDEST SWAP1 POP DUP1 DUP4 DUP3 MSTORE PUSH1 0x20 DUP3 ADD SWAP1 POP PUSH1 0x20 DUP5 MUL DUP4 ADD DUP6 DUP2 GT ISZERO PUSH2 0x12AC JUMPI PUSH2 0x12AB PUSH2 0x11DA JUMP JUMPDEST JUMPDEST DUP4 JUMPDEST DUP2 DUP2 LT ISZERO PUSH2 0x12F3 JUMPI DUP1 CALLDATALOAD PUSH8 0xFFFFFFFFFFFFFFFF DUP2 GT ISZERO PUSH2 0x12D1 JUMPI PUSH2 0x12D0 PUSH2 0x1083 JUMP JUMPDEST JUMPDEST DUP1 DUP7 ADD PUSH2 0x12DE DUP10 DUP3 PUSH2 0x11E6 JUMP JUMPDEST DUP6 MSTORE PUSH1 0x20 DUP6 ADD SWAP5 POP POP POP PUSH1 0x20 DUP2 ADD SWAP1 POP PUSH2 0x12AE JUMP JUMPDEST POP POP POP SWAP4 SWAP3 POP POP POP JUMP JUMPDEST PUSH0 DUP3 PUSH1 0x1F DUP4 ADD SLT PUSH2 0x1311 JUMPI PUSH2 0x1310 PUSH2 0x1083 JUMP JUMPDEST JUMPDEST DUP2 CALLDATALOAD PUSH2 0x1321 DUP5 DUP3 PUSH1 0x20 DUP7 ADD PUSH2 0x1277 JUMP JUMPDEST SWAP2 POP POP SWAP3 SWAP2 POP POP JUMP JUMPDEST PUSH0 PUSH0 PUSH0 PUSH0 PUSH0 PUSH0 PUSH1 0xC0 DUP8 DUP10 SUB SLT ISZERO PUSH2 0x1344 JUMPI PUSH2 0x1343 PUSH2 0xE1D JUMP JUMPDEST JUMPDEST PUSH0 PUSH2 0x1351 DUP10 DUP3 DUP11 ADD PUSH2 0xEF1 JUMP JUMPDEST SWAP7 POP POP PUSH1 0x20 DUP8 ADD CALLDATALOAD PUSH8 0xFFFFFFFFFFFFFFFF DUP2 GT ISZERO PUSH2 0x1372 JUMPI PUSH2 0x1371 PUSH2 0xE21 JUMP JUMPDEST JUMPDEST PUSH2 0x137E DUP10 DUP3 DUP11 ADD PUSH2 0x1182 JUMP JUMPDEST SWAP6 POP POP PUSH1 0x40 DUP8 ADD CALLDATALOAD PUSH8 0xFFFFFFFFFFFFFFFF DUP2 GT ISZERO PUSH2 0x139F JUMPI PUSH2 0x139E PUSH2 0xE21 JUMP JUMPDEST JUMPDEST PUSH2 0x13AB DUP10 DUP3 DUP11 ADD PUSH2 0x1182 JUMP JUMPDEST SWAP5 POP POP PUSH1 0x60 PUSH2 0x13BC DUP10 DUP3 DUP11 ADD PUSH2 0xEF1 JUMP JUMPDEST SWAP4 POP POP PUSH1 0x80 DUP8 ADD CALLDATALOAD PUSH8 0xFFFFFFFFFFFFFFFF DUP2 GT ISZERO PUSH2 0x13DD JUMPI PUSH2 0x13DC PUSH2 0xE21 JUMP JUMPDEST JUMPDEST PUSH2 0x13E9 DUP10 DUP3 DUP11 ADD PUSH2 0x1182 JUMP JUMPDEST SWAP3 POP POP PUSH1 0xA0 DUP8 ADD CALLDATALOAD PUSH8 0xFFFFFFFFFFFFFFFF DUP2 GT ISZERO PUSH2 0x140A JUMPI PUSH2 0x1409 PUSH2 0xE21 JUMP JUMPDEST JUMPDEST PUSH2 0x1416 DUP10 DUP3 DUP11 ADD PUSH2 0x12FD JUMP JUMPDEST SWAP2 POP POP SWAP3 SWAP6 POP SWAP3 SWAP6 POP SWAP3 SWAP6 JUMP JUMPDEST PUSH0 DUP2 MLOAD SWAP1 POP SWAP2 SWAP1 POP JUMP JUMPDEST PUSH0 DUP3 DUP3 MSTORE PUSH1 0x20 DUP3 ADD SWAP1 POP SWAP3 SWAP2 POP POP JUMP JUMPDEST PUSH0 DUP2 SWAP1 POP PUSH1 0x20 DUP3 ADD SWAP1 POP SWAP2 SWAP1 POP JUMP JUMPDEST PUSH0 PUSH1 0x80 DUP4 ADD PUSH0 DUP4 ADD MLOAD PUSH2 0x1461 PUSH0 DUP7 ADD DUP3 PUSH2 0xF30 JUMP JUMPDEST POP PUSH1 0x20 DUP4 ADD MLOAD DUP5 DUP3 SUB PUSH1 0x20 DUP7 ADD MSTORE PUSH2 0x1479 DUP3 DUP3 PUSH2 0xF77 JUMP JUMPDEST SWAP2 POP POP PUSH1 0x40 DUP4 ADD MLOAD PUSH2 0x148E PUSH1 0x40 DUP7 ADD DUP3 PUSH2 0xF30 JUMP JUMPDEST POP PUSH1 0x60 DUP4 ADD MLOAD PUSH2 0x14A1 PUSH1 0x60 DUP7 ADD DUP3 PUSH2 0xF30 JUMP JUMPDEST POP DUP1 SWAP2 POP POP SWAP3 SWAP2 POP POP JUMP JUMPDEST PUSH0 PUSH2 0x14B7 DUP4 DUP4 PUSH2 0x144C JUMP JUMPDEST SWAP1 POP SWAP3 SWAP2 POP POP JUMP JUMPDEST PUSH0 PUSH1 0x20 DUP3 ADD SWAP1 POP SWAP2 SWAP1 POP JUMP JUMPDEST PUSH0 PUSH2 0x14D5 DUP3 PUSH2 0x1423 JUMP JUMPDEST PUSH2 0x14DF DUP2 DUP6 PUSH2 0x142D JUMP JUMPDEST SWAP4 POP DUP4 PUSH1 0x20 DUP3 MUL DUP6 ADD PUSH2 0x14F1 DUP6 PUSH2 0x143D JUMP JUMPDEST DUP1 PUSH0 JUMPDEST DUP6 DUP2 LT ISZERO PUSH2 0x152C JUMPI DUP5 DUP5 SUB DUP10 MSTORE DUP2 MLOAD PUSH2 0x150D DUP6 DUP3 PUSH2 0x14AC JUMP JUMPDEST SWAP5 POP PUSH2 0x1518 DUP4 PUSH2 0x14BF JUMP JUMPDEST SWAP3 POP PUSH1 0x20 DUP11 ADD SWAP10 POP POP PUSH1 0x1 DUP2 ADD SWAP1 POP PUSH2 0x14F4 JUMP JUMPDEST POP DUP3 SWAP8 POP DUP8 SWAP6 POP POP POP POP POP POP SWAP3 SWAP2 POP POP JUMP JUMPDEST PUSH0 PUSH1 0x20 DUP3 ADD SWAP1 POP DUP2 DUP2 SUB PUSH0 DUP4 ADD MSTORE PUSH2 0x1556 DUP2 DUP5 PUSH2 0x14CB JUMP JUMPDEST SWAP1 POP SWAP3 SWAP2 POP POP JUMP JUMPDEST PUSH0 DUP2 MLOAD SWAP1 POP SWAP2 SWAP1 POP JUMP JUMPDEST PUSH0 DUP3 DUP3 MSTORE PUSH1 0x20 DUP3 ADD SWAP1 POP SWAP3 SWAP2 POP POP JUMP JUMPDEST PUSH0 DUP2 SWAP1 POP PUSH1 0x20 DUP3 ADD SWAP1 POP SWAP2 SWAP1 POP JUMP JUMPDEST PUSH0 PUSH1 0xA0 DUP4 ADD PUSH0 DUP4 ADD MLOAD PUSH2 0x159C PUSH0 DUP7 ADD DUP3 PUSH2 0xF30 JUMP JUMPDEST POP PUSH1 0x20 DUP4 ADD MLOAD DUP5 DUP3 SUB PUSH1 0x20 DUP7 ADD MSTORE PUSH2 0x15B4 DUP3 DUP3 PUSH2 0xF77 JUMP JUMPDEST SWAP2 POP POP PUSH1 0x40 DUP4 ADD MLOAD DUP5 DUP3 SUB PUSH1 0x40 DUP7 ADD MSTORE PUSH2 0x15CE DUP3 DUP3 PUSH2 0xF77 JUMP JUMPDEST SWAP2 POP POP PUSH1 0x60 DUP4 ADD MLOAD PUSH2 0x15E3 PUSH1 0x60 DUP7 ADD DUP3 PUSH2 0xF30 JUMP JUMPDEST POP PUSH1 0x80 DUP4 ADD MLOAD DUP5 DUP3 SUB PUSH1 0x80 DUP7 ADD MSTORE PUSH2 0x15FB DUP3 DUP3 PUSH2 0xF77 JUMP JUMPDEST SWAP2 POP POP DUP1 SWAP2 POP POP SWAP3 SWAP2 POP POP JUMP JUMPDEST PUSH0 DUP3 DUP3 MSTORE PUSH1 0x20 DUP3 ADD SWAP1 POP SWAP3 SWAP2 POP POP JUMP JUMPDEST PUSH0 PUSH2 0x1622 DUP3 PUSH2 0x1423 JUMP JUMPDEST PUSH2 0x162C DUP2 DUP6 PUSH2 0x1608 JUMP JUMPDEST SWAP4 POP DUP4 PUSH1 0x20 DUP3 MUL DUP6 ADD PUSH2 0x163E DUP6 PUSH2 0x143D JUMP JUMPDEST DUP1 PUSH0 JUMPDEST DUP6 DUP2 LT ISZERO PUSH2 0x1679 JUMPI DUP5 DUP5 SUB DUP10 MSTORE DUP2 MLOAD PUSH2 0x165A DUP6 DUP3 PUSH2 0x14AC JUMP JUMPDEST SWAP5 POP PUSH2 0x1665 DUP4 PUSH2 0x14BF JUMP JUMPDEST SWAP3 POP PUSH1 0x20 DUP11 ADD SWAP10 POP POP PUSH1 0x1 DUP2 ADD SWAP1 POP PUSH2 0x1641 JUMP JUMPDEST POP DUP3 SWAP8 POP DUP8 SWAP6 POP POP POP POP POP POP SWAP3 SWAP2 POP POP JUMP JUMPDEST PUSH0 PUSH1 0x40 DUP4 ADD PUSH0 DUP4 ADD MLOAD DUP5 DUP3 SUB PUSH0 DUP7 ADD MSTORE PUSH2 0x16A5 DUP3 DUP3 PUSH2 0x1587 JUMP JUMPDEST SWAP2 POP POP PUSH1 0x20 DUP4 ADD MLOAD DUP5 DUP3 SUB PUSH1 0x20 DUP7 ADD MSTORE PUSH2 0x16BF DUP3 DUP3 PUSH2 0x1618 JUMP JUMPDEST SWAP2 POP POP DUP1 SWAP2 POP POP SWAP3 SWAP2 POP POP JUMP JUMPDEST PUSH0 PUSH2 0x16D7 DUP4 DUP4 PUSH2 0x168B JUMP JUMPDEST SWAP1 POP SWAP3 SWAP2 POP POP JUMP JUMPDEST PUSH0 PUSH1 0x20 DUP3 ADD SWAP1 POP SWAP2 SWAP1 POP JUMP JUMPDEST PUSH0 PUSH2 0x16F5 DUP3 PUSH2 0x155E JUMP JUMPDEST PUSH2 0x16FF DUP2 DUP6 PUSH2 0x1568 JUMP JUMPDEST SWAP4 POP DUP4 PUSH1 0x20 DUP3 MUL DUP6 ADD PUSH2 0x1711 DUP6 PUSH2 0x1578 JUMP JUMPDEST DUP1 PUSH0 JUMPDEST DUP6 DUP2 LT ISZERO PUSH2 0x174C JUMPI DUP5 DUP5 SUB DUP10 MSTORE DUP2 MLOAD PUSH2 0x172D DUP6 DUP3 PUSH2 0x16CC JUMP JUMPDEST SWAP5 POP PUSH2 0x1738 DUP4 PUSH2 0x16DF JUMP JUMPDEST SWAP3 POP PUSH1 0x20 DUP11 ADD SWAP10 POP POP PUSH1 0x1 DUP2 ADD SWAP1 POP PUSH2 0x1714 JUMP JUMPDEST POP DUP3 SWAP8 POP DUP8 SWAP6 POP POP POP POP POP POP SWAP3 SWAP2 POP POP JUMP JUMPDEST PUSH0 PUSH1 0x20 DUP3 ADD SWAP1 POP DUP2 DUP2 SUB PUSH0 DUP4 ADD MSTORE PUSH2 0x1776 DUP2 DUP5 PUSH2 0x16EB JUMP JUMPDEST SWAP1 POP SWAP3 SWAP2 POP POP JUMP JUMPDEST PUSH0 PUSH0 PUSH1 0x40 DUP4 DUP6 SUB SLT ISZERO PUSH2 0x1794 JUMPI PUSH2 0x1793 PUSH2 0xE1D JUMP JUMPDEST JUMPDEST PUSH0 PUSH2 0x17A1 DUP6 DUP3 DUP7 ADD PUSH2 0xEF1 JUMP JUMPDEST SWAP3 POP POP PUSH1 0x20 DUP4 ADD CALLDATALOAD PUSH8 0xFFFFFFFFFFFFFFFF DUP2 GT ISZERO PUSH2 0x17C2 JUMPI PUSH2 0x17C1 PUSH2 0xE21 JUMP JUMPDEST JUMPDEST PUSH2 0x17CE DUP6 DUP3 DUP7 ADD PUSH2 0x12FD JUMP JUMPDEST SWAP2 POP POP SWAP3 POP SWAP3 SWAP1 POP JUMP JUMPDEST PUSH32 0x4E487B7100000000000000000000000000000000000000000000000000000000 PUSH0 MSTORE PUSH1 0x22 PUSH1 0x4 MSTORE PUSH1 0x24 PUSH0 REVERT JUMPDEST PUSH0 PUSH1 0x2 DUP3 DIV SWAP1 POP PUSH1 0x1 DUP3 AND DUP1 PUSH2 0x181C JUMPI PUSH1 0x7F DUP3 AND SWAP2 POP JUMPDEST PUSH1 0x20 DUP3 LT DUP2 SUB PUSH2 0x182F JUMPI PUSH2 0x182E PUSH2 0x17D8 JUMP JUMPDEST JUMPDEST POP SWAP2 SWAP1 POP JUMP JUMPDEST PUSH0 DUP3 DUP3 MSTORE PUSH1 0x20 DUP3 ADD SWAP1 POP SWAP3 SWAP2 POP POP JUMP JUMPDEST PUSH32 0x596F7520617265206E6F742061646D696E000000000000000000000000000000 PUSH0 DUP3 ADD MSTORE POP JUMP JUMPDEST PUSH0 PUSH2 0x1879 PUSH1 0x11 DUP4 PUSH2 0x1835 JUMP JUMPDEST SWAP2 POP PUSH2 0x1884 DUP3 PUSH2 0x1845 JUMP JUMPDEST PUSH1 0x20 DUP3 ADD SWAP1 POP SWAP2 SWAP1 POP JUMP JUMPDEST PUSH0 PUSH1 0x20 DUP3 ADD SWAP1 POP DUP2 DUP2 SUB PUSH0 DUP4 ADD MSTORE PUSH2 0x18A6 DUP2 PUSH2 0x186D JUMP JUMPDEST SWAP1 POP SWAP2 SWAP1 POP JUMP JUMPDEST PUSH32 0x466F6F642077697468207468697320494420616C726561647920657869737473 PUSH0 DUP3 ADD MSTORE POP JUMP JUMPDEST PUSH0 PUSH2 0x18E1 PUSH1 0x20 DUP4 PUSH2 0x1835 JUMP JUMPDEST SWAP2 POP PUSH2 0x18EC DUP3 PUSH2 0x18AD JUMP JUMPDEST PUSH1 0x20 DUP3 ADD SWAP1 POP SWAP2 SWAP1 POP JUMP JUMPDEST PUSH0 PUSH1 0x20 DUP3 ADD SWAP1 POP DUP2 DUP2 SUB PUSH0 DUP4 ADD MSTORE PUSH2 0x190E DUP2 PUSH2 0x18D5 JUMP JUMPDEST SWAP1 POP SWAP2 SWAP1 POP JUMP JUMPDEST PUSH0 DUP2 SWAP1 POP DUP2 PUSH0 MSTORE PUSH1 0x20 PUSH0 KECCAK256 SWAP1 POP SWAP2 SWAP1 POP JUMP JUMPDEST PUSH0 PUSH1 0x20 PUSH1 0x1F DUP4 ADD DIV SWAP1 POP SWAP2 SWAP1 POP JUMP JUMPDEST PUSH0 DUP3 DUP3 SHL SWAP1 POP SWAP3 SWAP2 POP POP JUMP JUMPDEST PUSH0 PUSH1 0x8 DUP4 MUL PUSH2 0x1971 PUSH32 0xFFFFFFFFFFFFFFFFFFFFFFFFFFFFFFFFFFFFFFFFFFFFFFFFFFFFFFFFFFFFFFFF DUP3 PUSH2 0x1936 JUMP JUMPDEST PUSH2 0x197B DUP7 DUP4 PUSH2 0x1936 JUMP JUMPDEST SWAP6 POP DUP1 NOT DUP5 AND SWAP4 POP DUP1 DUP7 AND DUP5 OR SWAP3 POP POP POP SWAP4 SWAP3 POP POP POP JUMP JUMPDEST PUSH0 DUP2 SWAP1 POP SWAP2 SWAP1 POP JUMP JUMPDEST PUSH0 PUSH2 0x19B6 PUSH2 0x19B1 PUSH2 0x19AC DUP5 PUSH2 0xEAA JUMP JUMPDEST PUSH2 0x1993 JUMP JUMPDEST PUSH2 0xEAA JUMP JUMPDEST SWAP1 POP SWAP2 SWAP1 POP JUMP JUMPDEST PUSH0 DUP2 SWAP1 POP SWAP2 SWAP1 POP JUMP JUMPDEST PUSH2 0x19CF DUP4 PUSH2 0x199C JUMP JUMPDEST PUSH2 0x19E3 PUSH2 0x19DB DUP3 PUSH2 0x19BD JUMP JUMPDEST DUP5 DUP5 SLOAD PUSH2 0x1942 JUMP JUMPDEST DUP3 SSTORE POP POP POP POP JUMP JUMPDEST PUSH0 PUSH0 SWAP1 POP SWAP1 JUMP JUMPDEST PUSH2 0x19FA PUSH2 0x19EB JUMP JUMPDEST PUSH2 0x1A05 DUP2 DUP5 DUP5 PUSH2 0x19C6 JUMP JUMPDEST POP POP POP JUMP JUMPDEST JUMPDEST DUP2 DUP2 LT ISZERO PUSH2 0x1A28 JUMPI PUSH2 0x1A1D PUSH0 DUP3 PUSH2 0x19F2 JUMP JUMPDEST PUSH1 0x1 DUP2 ADD SWAP1 POP PUSH2 0x1A0B JUMP JUMPDEST POP POP JUMP JUMPDEST PUSH1 0x1F DUP3 GT ISZERO PUSH2 0x1A6D JUMPI PUSH2 0x1A3E DUP2 PUSH2 0x1915 JUMP JUMPDEST PUSH2 0x1A47 DUP5 PUSH2 0x1927 JUMP JUMPDEST DUP2 ADD PUSH1 0x20 DUP6 LT ISZERO PUSH2 0x1A56 JUMPI DUP2 SWAP1 POP JUMPDEST PUSH2 0x1A6A PUSH2 0x1A62 DUP6 PUSH2 0x1927 JUMP JUMPDEST DUP4 ADD DUP3 PUSH2 0x1A0A JUMP JUMPDEST POP POP JUMPDEST POP POP POP JUMP JUMPDEST PUSH0 DUP3 DUP3 SHR SWAP1 POP SWAP3 SWAP2 POP POP JUMP JUMPDEST PUSH0 PUSH2 0x1A8D PUSH0 NOT DUP5 PUSH1 0x8 MUL PUSH2 0x1A72 JUMP JUMPDEST NOT DUP1 DUP4 AND SWAP2 POP POP SWAP3 SWAP2 POP POP JUMP JUMPDEST PUSH0 PUSH2 0x1AA5 DUP4 DUP4 PUSH2 0x1A7E JUMP JUMPDEST SWAP2 POP DUP3 PUSH1 0x2 MUL DUP3 OR SWAP1 POP SWAP3 SWAP2 POP POP JUMP JUMPDEST PUSH2 0x1ABE DUP3 PUSH2 0xF3F JUMP JUMPDEST PUSH8 0xFFFFFFFFFFFFFFFF DUP2 GT ISZERO PUSH2 0x1AD7 JUMPI PUSH2 0x1AD6 PUSH2 0x108B JUMP JUMPDEST JUMPDEST PUSH2 0x1AE1 DUP3 SLOAD PUSH2 0x1805 JUMP JUMPDEST PUSH2 0x1AEC DUP3 DUP3 DUP6 PUSH2 0x1A2C JUMP JUMPDEST PUSH0 PUSH1 0x20 SWAP1 POP PUSH1 0x1F DUP4 GT PUSH1 0x1 DUP2 EQ PUSH2 0x1B1D JUMPI PUSH0 DUP5 ISZERO PUSH2 0x1B0B JUMPI DUP3 DUP8 ADD MLOAD SWAP1 POP JUMPDEST PUSH2 0x1B15 DUP6 DUP3 PUSH2 0x1A9A JUMP JUMPDEST DUP7 SSTORE POP PUSH2 0x1B7C JUMP JUMPDEST PUSH1 0x1F NOT DUP5 AND PUSH2 0x1B2B DUP7 PUSH2 0x1915 JUMP JUMPDEST PUSH0 JUMPDEST DUP3 DUP2 LT ISZERO PUSH2 0x1B52 JUMPI DUP5 DUP10 ADD MLOAD DUP3 SSTORE PUSH1 0x1 DUP3 ADD SWAP2 POP PUSH1 0x20 DUP6 ADD SWAP5 POP PUSH1 0x20 DUP2 ADD SWAP1 POP PUSH2 0x1B2D JUMP JUMPDEST DUP7 DUP4 LT ISZERO PUSH2 0x1B6F JUMPI DUP5 DUP10 ADD MLOAD PUSH2 0x1B6B PUSH1 0x1F DUP10 AND DUP3 PUSH2 0x1A7E JUMP JUMPDEST DUP4 SSTORE POP JUMPDEST PUSH1 0x1 PUSH1 0x2 DUP9 MUL ADD DUP9 SSTORE POP POP POP JUMPDEST POP POP POP POP POP POP JUMP JUMPDEST PUSH32 0x4E487B7100000000000000000000000000000000000000000000000000000000 PUSH0 MSTORE PUSH1 0x32 PUSH1 0x4 MSTORE PUSH1 0x24 PUSH0 REVERT JUMPDEST PUSH0 PUSH2 0x1BBB DUP3 PUSH2 0xF3F JUMP JUMPDEST PUSH2 0x1BC5 DUP2 DUP6 PUSH2 0x1835 JUMP JUMPDEST SWAP4 POP PUSH2 0x1BD5 DUP2 DUP6 PUSH1 0x20 DUP7 ADD PUSH2 0xF59 JUMP JUMPDEST PUSH2 0x1BDE DUP2 PUSH2 0xF67 JUMP JUMPDEST DUP5 ADD SWAP2 POP POP SWAP3 SWAP2 POP POP JUMP JUMPDEST PUSH0 PUSH1 0xA0 DUP3 ADD SWAP1 POP PUSH2 0x1BFC PUSH0 DUP4 ADD DUP9 PUSH2 0xEB3 JUMP JUMPDEST DUP2 DUP2 SUB PUSH1 0x20 DUP4 ADD MSTORE PUSH2 0x1C0E DUP2 DUP8 PUSH2 0x1BB1 JUMP JUMPDEST SWAP1 POP DUP2 DUP2 SUB PUSH1 0x40 DUP4 ADD MSTORE PUSH2 0x1C22 DUP2 DUP7 PUSH2 0x1BB1 JUMP JUMPDEST SWAP1 POP PUSH2 0x1C31 PUSH1 0x60 DUP4 ADD DUP6 PUSH2 0xEB3 JUMP JUMPDEST DUP2 DUP2 SUB PUSH1 0x80 DUP4 ADD MSTORE PUSH2 0x1C43 DUP2 DUP5 PUSH2 0x1BB1 JUMP JUMPDEST SWAP1 POP SWAP7 SWAP6 POP POP POP POP POP POP JUMP JUMPDEST PUSH32 0x466F6F6420646F6573206E6F7420657869737400000000000000000000000000 PUSH0 DUP3 ADD MSTORE POP JUMP JUMPDEST PUSH0 PUSH2 0x1C83 PUSH1 0x13 DUP4 PUSH2 0x1835 JUMP JUMPDEST SWAP2 POP PUSH2 0x1C8E DUP3 PUSH2 0x1C4F JUMP JUMPDEST PUSH1 0x20 DUP3 ADD SWAP1 POP SWAP2 SWAP1 POP JUMP JUMPDEST PUSH0 PUSH1 0x20 DUP3 ADD SWAP1 POP DUP2 DUP2 SUB PUSH0 DUP4 ADD MSTORE PUSH2 0x1CB0 DUP2 PUSH2 0x1C77 JUMP JUMPDEST SWAP1 POP SWAP2 SWAP1 POP JUMP INVALID LOG2 PUSH5 0x6970667358 0x22 SLT KECCAK256 DUP6 BLOBBASEFEE TIMESTAMP 0x25 SAR 0xBD EXP PUSH14 0x2FFA1143C95FFCE0E86E3173A239 SWAP14 0x2E RETURNDATACOPY PUSH29 0xA8F6E7FEA92864736F6C634300081E0033000000000000000000000000 "
				},
				"gasEstimates": {
					"creation": {
						"codeDepositCost": "1481000",
						"executionCost": "23652",
						"totalCost": "1504652"
					},
					"external": {
						"addAdmin(address)": "24802",
						"addFoodDetails(uint256,(uint256,string,uint256,uint256)[])": "infinite",
						"createFood(uint256,string,string,uint256,string,(uint256,string,uint256,uint256)[])": "infinite",
						"getAllFoods()": "infinite",
						"getFood(uint256)": "infinite",
						"getFoodDetails(uint256)": "infinite",
						"isAdmin(address)": "2899",
						"nextFoodId()": "2448",
						"removeAdmin(address)": "24802"
					}
				},
				"methodIdentifiers": {
					"addAdmin(address)": "70480275",
					"addFoodDetails(uint256,(uint256,string,uint256,uint256)[])": "e4fe9ce2",
					"createFood(uint256,string,string,uint256,string,(uint256,string,uint256,uint256)[])": "86e7f104",
					"getAllFoods()": "b9b5aae6",
					"getFood(uint256)": "1e4de872",
					"getFoodDetails(uint256)": "af5607f9",
					"isAdmin(address)": "24d7806c",
					"nextFoodId()": "1945ef58",
					"removeAdmin(address)": "1785f53c"
				}
			},
			"storageLayout": {
				"storage": [
					{
						"astId": 402,
						"contract": "contracts/manager/FoodManager.sol:FoodManager",
						"label": "isAdmin",
						"offset": 0,
						"slot": "0",
						"type": "t_mapping(t_address,t_bool)"
					},
					{
						"astId": 127,
						"contract": "contracts/manager/FoodManager.sol:FoodManager",
						"label": "nextFoodId",
						"offset": 0,
						"slot": "1",
						"type": "t_uint256"
					},
					{
						"astId": 132,
						"contract": "contracts/manager/FoodManager.sol:FoodManager",
						"label": "foods",
						"offset": 0,
						"slot": "2",
						"type": "t_mapping(t_uint256,t_struct(Food)379_storage)"
					},
					{
						"astId": 138,
						"contract": "contracts/manager/FoodManager.sol:FoodManager",
						"label": "foodDetails",
						"offset": 0,
						"slot": "3",
						"type": "t_mapping(t_uint256,t_array(t_struct(FoodDetail)388_storage)dyn_storage)"
					},
					{
						"astId": 141,
						"contract": "contracts/manager/FoodManager.sol:FoodManager",
						"label": "foodIds",
						"offset": 0,
						"slot": "4",
						"type": "t_array(t_uint256)dyn_storage"
					}
				],
				"types": {
					"t_address": {
						"encoding": "inplace",
						"label": "address",
						"numberOfBytes": "20"
					},
					"t_array(t_struct(FoodDetail)388_storage)dyn_storage": {
						"base": "t_struct(FoodDetail)388_storage",
						"encoding": "dynamic_array",
						"label": "struct FoodDetail[]",
						"numberOfBytes": "32"
					},
					"t_array(t_uint256)dyn_storage": {
						"base": "t_uint256",
						"encoding": "dynamic_array",
						"label": "uint256[]",
						"numberOfBytes": "32"
					},
					"t_bool": {
						"encoding": "inplace",
						"label": "bool",
						"numberOfBytes": "1"
					},
					"t_mapping(t_address,t_bool)": {
						"encoding": "mapping",
						"key": "t_address",
						"label": "mapping(address => bool)",
						"numberOfBytes": "32",
						"value": "t_bool"
					},
					"t_mapping(t_uint256,t_array(t_struct(FoodDetail)388_storage)dyn_storage)": {
						"encoding": "mapping",
						"key": "t_uint256",
						"label": "mapping(uint256 => struct FoodDetail[])",
						"numberOfBytes": "32",
						"value": "t_array(t_struct(FoodDetail)388_storage)dyn_storage"
					},
					"t_mapping(t_uint256,t_struct(Food)379_storage)": {
						"encoding": "mapping",
						"key": "t_uint256",
						"label": "mapping(uint256 => struct Food)",
						"numberOfBytes": "32",
						"value": "t_struct(Food)379_storage"
					},
					"t_string_storage": {
						"encoding": "bytes",
						"label": "string",
						"numberOfBytes": "32"
					},
					"t_struct(Food)379_storage": {
						"encoding": "inplace",
						"label": "struct Food",
						"members": [
							{
								"astId": 370,
								"contract": "contracts/manager/FoodManager.sol:FoodManager",
								"label": "foodId",
								"offset": 0,
								"slot": "0",
								"type": "t_uint256"
							},
							{
								"astId": 372,
								"contract": "contracts/manager/FoodManager.sol:FoodManager",
								"label": "name",
								"offset": 0,
								"slot": "1",
								"type": "t_string_storage"
							},
							{
								"astId": 374,
								"contract": "contracts/manager/FoodManager.sol:FoodManager",
								"label": "description",
								"offset": 0,
								"slot": "2",
								"type": "t_string_storage"
							},
							{
								"astId": 376,
								"contract": "contracts/manager/FoodManager.sol:FoodManager",
								"label": "categoryId",
								"offset": 0,
								"slot": "3",
								"type": "t_uint256"
							},
							{
								"astId": 378,
								"contract": "contracts/manager/FoodManager.sol:FoodManager",
								"label": "imageUrl",
								"offset": 0,
								"slot": "4",
								"type": "t_string_storage"
							}
						],
						"numberOfBytes": "160"
					},
					"t_struct(FoodDetail)388_storage": {
						"encoding": "inplace",
						"label": "struct FoodDetail",
						"members": [
							{
								"astId": 381,
								"contract": "contracts/manager/FoodManager.sol:FoodManager",
								"label": "foodDetailId",
								"offset": 0,
								"slot": "0",
								"type": "t_uint256"
							},
							{
								"astId": 383,
								"contract": "contracts/manager/FoodManager.sol:FoodManager",
								"label": "size",
								"offset": 0,
								"slot": "1",
								"type": "t_string_storage"
							},
							{
								"astId": 385,
								"contract": "contracts/manager/FoodManager.sol:FoodManager",
								"label": "quantity",
								"offset": 0,
								"slot": "2",
								"type": "t_uint256"
							},
							{
								"astId": 387,
								"contract": "contracts/manager/FoodManager.sol:FoodManager",
								"label": "price",
								"offset": 0,
								"slot": "3",
								"type": "t_uint256"
							}
						],
						"numberOfBytes": "128"
					},
					"t_uint256": {
						"encoding": "inplace",
						"label": "uint256",
						"numberOfBytes": "32"
					}
				}
			},
			"userdoc": {
				"kind": "user",
				"methods": {},
				"version": 1
			}
		}
	}
}