{
	"data": {
		"bytecode": {
			"linkReferences": {},
			"object": "6080604052348015600e575f5ffd5b50604051615533380380615533833981016040819052602b91604e565b5f80546001600160a01b0319166001600160a01b03929092169190911790556079565b5f60208284031215605d575f5ffd5b81516001600160a01b03811681146072575f5ffd5b9392505050565b6154ad806100865f395ff3fe608060405234801561000f575f5ffd5b50600436106103a9575f3560e01c806397d2b92a116101ea578063d198b65011610114578063ea0f24e9116100a9578063f7868a5211610079578063f7868a5214610877578063f9b6117f1461088a578063fb25d32f1461089d578063fcd3223c146108be575f5ffd5b8063ea0f24e914610811578063f3052d2614610824578063f44a858314610844578063f6b829a014610864575f5ffd5b8063dcad55c0116100e4578063dcad55c0146107c3578063ddd79504146107d6578063e21ba8c6146107f6578063e6f318c6146107fe575f5ffd5b8063d198b65014610775578063d50a9e4614610788578063d86ec2381461079b578063dadd0a57146107ae575f5ffd5b8063b2fdfe051161018a578063bad1365e1161015a578063bad1365e14610734578063baf8530614610747578063cb0769b01461075a578063ceca737f14610762575f5ffd5b8063b2fdfe05146106d9578063b447aaae146106f9578063b4afd52c1461070c578063b9b5aae61461071f575f5ffd5b8063aab3196d116101c5578063aab3196d14610680578063abf5e83614610693578063af5607f9146106a6578063b1587606146106c6575f5ffd5b806397d2b92a14610647578063997ed85c1461065a578063a7866ea61461066d575f5ffd5b80635be5fd39116102d65780637668206d1161026b5780638a46e8eb1161023b5780638a46e8eb146105e15780638c9da843146105f45780638ce2ec791461061457806395ebcb2414610634575f5ffd5b80637668206d146105a057806378697e5b146105b3578063892bb335146105c6578063893d20e8146105d9575f5ffd5b806364f77471116102a657806364f77471146105545780636595171c146105675780636dd2dd881461057a57806375bd56011461058d575f5ffd5b80635be5fd39146104fb5780635cfd66071461050e57806361ce7f781461052157806363c69f0814610534575f5ffd5b8063360d5b9e1161034c57806343ae37c31161031c57806343ae37c3146104bc5780634cdebc39146104c25780634d30a39b146104d55780635775cda4146104e8575f5ffd5b8063360d5b9e146104645780633844ac5b1461047757806342f54b8914610497578063439e61fa146104a9575f5ffd5b80631821150311610387578063182115031461040b5780631e4de8721461041e5780632cf4a54d1461043e578063330933cf14610451575f5ffd5b8063037c73c2146103ad57806305207db2146103cb57806309ca221f146103e0575b5f5ffd5b6103b56108d1565b6040516103c29190612e97565b60405180910390f35b6103de6103d9366004612f07565b610945565b005b6006546103f3906001600160a01b031681565b6040516001600160a01b0390911681526020016103c2565b6103de610419366004612f87565b610a3f565b61043161042c366004612fe1565b610aa8565b6040516103c291906130f9565b6007546103f3906001600160a01b031681565b6103de61045f36600461311f565b610b6c565b6005546103f3906001600160a01b031681565b61048a610485366004612fe1565b610c3f565b6040516103c2919061313a565b5f546103f3906001600160a01b031681565b6001546103f3906001600160a01b031681565b336103f3565b6103de6104d0366004613193565b610cb4565b6103de6104e33660046131bf565b610dcf565b6103de6104f6366004613193565b610e92565b6103de6105093660046131df565b610fdc565b6103de61051c36600461328d565b6110d9565b6103de61052f3660046132b6565b6111d1565b61054761054236600461311f565b611211565b6040516103c291906132ec565b6103de6105623660046135e4565b611285565b6103de61057536600461311f565b611342565b6103de6105883660046136a5565b6113a6565b6103de61059b366004613743565b61149d565b6103de6105ae36600461311f565b611517565b6103de6105c13660046137d0565b61154f565b6003546103f3906001600160a01b031681565b6103f3611634565b6103de6105ef366004613815565b6116a8565b610607610602366004613840565b6117dd565b6040516103c29190613b22565b610627610622366004613b40565b61186b565b6040516103c29190613b5b565b6103de6106423660046131bf565b6119e5565b6103de610655366004612fe1565b611aa8565b6103de610668366004613193565b611ad9565b6103de61067b366004613bb2565b611bf3565b6103de61068e366004613c3a565b611c62565b6103de6106a1366004613c5d565b611c93565b6106b96106b4366004612fe1565b611d57565b6040516103c29190613d0e565b6103de6106d4366004613193565b611dc5565b6106ec6106e736600461311f565b611edf565b6040516103c29190613d20565b6103de610707366004613de3565b611f4e565b6103de61071a366004613eb5565b612013565b610727612147565b6040516103c29190613ed8565b6103de61074236600461311f565b6121b5565b6103de610755366004613f56565b612288565b610727612347565b6103de610770366004612fe1565b61238e565b6103de610783366004612fe1565b612472565b6103de610796366004613fa1565b61252e565b6002546103f3906001600160a01b031681565b6107b6612564565b6040516103c2919061401c565b6103de6107d13660046131df565b612605565b6107e96107e436600461311f565b6126cc565b6040516103c29190614073565b6106b9612742565b6103de61080c366004612fe1565b6127b1565b6103de61081f36600461311f565b61286d565b610837610832366004612fe1565b612940565b6040516103c29190614085565b610857610852366004612fe1565b6129e9565b6040516103c29190614097565b6103de610872366004612f87565b612a57565b6103de6108853660046137d0565b612a8d565b6004546103f3906001600160a01b031681565b6108b06108ab366004614152565b612b72565b6040519081526020016103c2565b6103de6108cc366004612fe1565b612c7d565b600554604080516301be39e160e11b815290516060926001600160a01b03169163037c73c2916004808301925f929190829003018183875af1158015610919573d5f5f3e3d5ffd5b505050506040513d5f823e601f3d908101601f1916820160405261094091908101906142c4565b905090565b5f80546040516395a8c58d60e01b81526001600160a01b03909116916395a8c58d91610975913391600401614373565b602060405180830381865afa158015610990573d5f5f3e3d5ffd5b505050506040513d601f19601f820116820180604052508101906109b491906143a4565b6109d95760405162461bcd60e51b81526004016109d0906143bf565b60405180910390fd5b6001546040516302903ed960e11b81526004810184905282151560248201526001600160a01b03909116906305207db2906044015b5f604051808303815f87803b158015610a25575f5ffd5b505af1158015610a37573d5f5f3e3d5ffd5b505050505050565b600654604051631821150360e01b81526001600160a01b0390911690631821150390610a7590879087908790879060040161440a565b5f604051808303815f87803b158015610a8c575f5ffd5b505af1158015610a9e573d5f5f3e3d5ffd5b5050505050505050565b610af96040518061014001604052805f815260200160608152602001606081526020015f8152602001606081526020015f81526020015f81526020015f81526020015f81526020015f151581525090565b600154604051630f26f43960e11b8152600481018490526001600160a01b0390911690631e4de872906024015f60405180830381865afa158015610b3f573d5f5f3e3d5ffd5b505050506040513d5f823e601f3d908101601f19168201604052610b66919081019061459f565b92915050565b5f80546040516395a8c58d60e01b81526001600160a01b03909116916395a8c58d91610b9c913391600401614373565b602060405180830381865afa158015610bb7573d5f5f3e3d5ffd5b505050506040513d601f19601f82011682018060405250810190610bdb91906143a4565b610bf75760405162461bcd60e51b81526004016109d0906143bf565b6001600160a01b038116610c1d5760405162461bcd60e51b81526004016109d0906145d0565b600280546001600160a01b0319166001600160a01b0392909216919091179055565b610c47612cae565b600354604051633844ac5b60e01b8152600481018490526001600160a01b0390911690633844ac5b906024015f60405180830381865afa158015610c8d573d5f5f3e3d5ffd5b505050506040513d5f823e601f3d908101601f19168201604052610b6691908101906145f9565b5f80546040516395a8c58d60e01b81526001600160a01b03909116916395a8c58d91610ce4913391600401614373565b602060405180830381865afa158015610cff573d5f5f3e3d5ffd5b505050506040513d601f19601f82011682018060405250810190610d2391906143a4565b610d3f5760405162461bcd60e51b81526004016109d0906143bf565b6001600160a01b038216610d655760405162461bcd60e51b81526004016109d0906145d0565b6001600160a01b038116610d8b5760405162461bcd60e51b81526004016109d0906145d0565b600480546001600160a01b0319166001600160a01b03848116918217835560405163ea0f24e960e01b8152908416928101929092529063ea0f24e990602401610a0e565b5f80546040516395a8c58d60e01b81526001600160a01b03909116916395a8c58d91610dff913391600401614373565b602060405180830381865afa158015610e1a573d5f5f3e3d5ffd5b505050506040513d601f19601f82011682018060405250810190610e3e91906143a4565b610e5a5760405162461bcd60e51b81526004016109d0906143bf565b600154604051634d30a39b60e01b815260048101849052602481018390526001600160a01b0390911690634d30a39b90604401610a0e565b5f80546040516395a8c58d60e01b81526001600160a01b03909116916395a8c58d91610ec2913391600401614373565b602060405180830381865afa158015610edd573d5f5f3e3d5ffd5b505050506040513d601f19601f82011682018060405250810190610f0191906143a4565b610f1d5760405162461bcd60e51b81526004016109d0906143bf565b6001600160a01b038216610f735760405162461bcd60e51b815260206004820152601960248201527f466f6f64526174696e674d616e61676572206e6f74207365740000000000000060448201526064016109d0565b6001600160a01b038216610f995760405162461bcd60e51b81526004016109d0906145d0565b600780546001600160a01b0319166001600160a01b03848116918217909255604051635d689b2f60e11b815291831660048301529063bad1365e90602401610a0e565b5f80546040516395a8c58d60e01b81526001600160a01b03909116916395a8c58d9161100c913391600401614373565b602060405180830381865afa158015611027573d5f5f3e3d5ffd5b505050506040513d601f19601f8201168201806040525081019061104b91906143a4565b6110675760405162461bcd60e51b81526004016109d0906143bf565b600554604051635be5fd3960e01b81526001600160a01b0390911690635be5fd39906110a3908a908a908a908a908a908a908a90600401614698565b5f604051808303815f87803b1580156110ba575f5ffd5b505af11580156110cc573d5f5f3e3d5ffd5b5050505050505050505050565b5f80546040516395a8c58d60e01b81526001600160a01b03909116916395a8c58d91611109913391600401614373565b602060405180830381865afa158015611124573d5f5f3e3d5ffd5b505050506040513d601f19601f8201168201806040525081019061114891906143a4565b6111645760405162461bcd60e51b81526004016109d0906143bf565b600354604051635cfd660760e01b81526004810185905260248101849052604481018390526001600160a01b0390911690635cfd6607906064015b5f604051808303815f87803b1580156111b6575f5ffd5b505af11580156111c8573d5f5f3e3d5ffd5b50505050505050565b600154604051630c39cfef60e31b8152600481018590526024810184905282151560448201526001600160a01b03909116906361ce7f789060640161119f565b60048054604051630c78d3e160e31b81526001600160a01b0384811693820193909352606092909116906363c69f08906024015f60405180830381865afa15801561125e573d5f5f3e3d5ffd5b505050506040513d5f823e601f3d908101601f19168201604052610b6691908101906146f2565b5f80546040516395a8c58d60e01b81526001600160a01b03909116916395a8c58d916112b5913391600401614373565b602060405180830381865afa1580156112d0573d5f5f3e3d5ffd5b505050506040513d601f19601f820116820180604052508101906112f491906143a4565b6113105760405162461bcd60e51b81526004016109d0906143bf565b6001546040516364f7747160e01b81526001600160a01b03909116906364f7747190610a0e9085908590600401614804565b5f54604051632e3036c760e01b81526001600160a01b0383811660048301526001602483015290911690632e3036c7906044015b5f604051808303815f87803b15801561138d575f5ffd5b505af115801561139f573d5f5f3e3d5ffd5b5050505050565b5f80546040516395a8c58d60e01b81526001600160a01b03909116916395a8c58d916113d6913391600401614373565b602060405180830381865afa1580156113f1573d5f5f3e3d5ffd5b505050506040513d601f19601f8201168201806040525081019061141591906143a4565b6114315760405162461bcd60e51b81526004016109d0906143bf565b600154604051630dba5bb160e31b81526001600160a01b0390911690636dd2dd8890611469908890889088908890889060040161481c565b5f604051808303815f87803b158015611480575f5ffd5b505af1158015611492573d5f5f3e3d5ffd5b505050505050505050565b6007546040516375bd560160e01b81526001600160a01b03909116906375bd5601906114d79089908990899089908990899060040161486c565b6020604051808303815f875af11580156114f3573d5f5f3e3d5ffd5b505050506040513d601f19601f820116820180604052508101906111c891906148b4565b5f54604051632e3036c760e01b81526001600160a01b0383811660048301526002602483015290911690632e3036c790604401611376565b5f80546040516395a8c58d60e01b81526001600160a01b03909116916395a8c58d9161157f913391600401614373565b602060405180830381865afa15801561159a573d5f5f3e3d5ffd5b505050506040513d601f19601f820116820180604052508101906115be91906143a4565b6115da5760405162461bcd60e51b81526004016109d0906143bf565b6002546001600160a01b03166116025760405162461bcd60e51b81526004016109d0906148cb565b6002546040516378697e5b60e01b81526001600160a01b03909116906378697e5b90610a0e9085908590600401614902565b5f5f5f9054906101000a90046001600160a01b03166001600160a01b031663893d20e86040518163ffffffff1660e01b8152600401602060405180830381865afa158015611684573d5f5f3e3d5ffd5b505050506040513d601f19601f82011682018060405250810190610940919061491a565b5f80546040516395a8c58d60e01b81526001600160a01b03909116916395a8c58d916116d8913391600401614373565b602060405180830381865afa1580156116f3573d5f5f3e3d5ffd5b505050506040513d601f19601f8201168201806040525081019061171791906143a4565b8061178e57505f546040516395a8c58d60e01b81526001600160a01b03909116906395a8c58d9061174f903390600190600401614373565b602060405180830381865afa15801561176a573d5f5f3e3d5ffd5b505050506040513d601f19601f8201168201806040525081019061178e91906143a4565b6117aa5760405162461bcd60e51b81526004016109d090614935565b60048054604051638a46e8eb60e01b81526001600160a01b0390911691638a46e8eb9161119f9187918791879101614961565b6117e5612ce9565b60048054604051638c9da84360e01b81526001600160a01b0390911691638c9da8439161181e918b918b918b918b918b918b910161497c565b5f604051808303815f875af1158015611839573d5f5f3e3d5ffd5b505050506040513d5f823e601f3d908101601f191682016040526118609190810190614c35565b979650505050505050565b5f80546040516395a8c58d60e01b81526060926001600160a01b03909216916395a8c58d9161189e913391600401614373565b602060405180830381865afa1580156118b9573d5f5f3e3d5ffd5b505050506040513d601f19601f820116820180604052508101906118dd91906143a4565b8061195457505f546040516395a8c58d60e01b81526001600160a01b03909116906395a8c58d90611915903390600190600401614373565b602060405180830381865afa158015611930573d5f5f3e3d5ffd5b505050506040513d601f19601f8201168201806040525081019061195491906143a4565b6119705760405162461bcd60e51b81526004016109d090614935565b60048054604051638ce2ec7960e01b81526001600160a01b0390911691638ce2ec799161199f91869101614c66565b5f60405180830381865afa1580156119b9573d5f5f3e3d5ffd5b505050506040513d5f823e601f3d908101601f19168201604052610b669190810190614c74565b919050565b5f80546040516395a8c58d60e01b81526001600160a01b03909116916395a8c58d91611a15913391600401614373565b602060405180830381865afa158015611a30573d5f5f3e3d5ffd5b505050506040513d601f19601f82011682018060405250810190611a5491906143a4565b611a705760405162461bcd60e51b81526004016109d0906143bf565b60035460405163257af2c960e21b815260048101849052602481018390526001600160a01b03909116906395ebcb2490604401610a0e565b600754604051634be95c9560e11b8152600481018390526001600160a01b03909116906397d2b92a90602401611376565b5f80546040516395a8c58d60e01b81526001600160a01b03909116916395a8c58d91611b09913391600401614373565b602060405180830381865afa158015611b24573d5f5f3e3d5ffd5b505050506040513d601f19601f82011682018060405250810190611b4891906143a4565b611b645760405162461bcd60e51b81526004016109d0906143bf565b6001600160a01b038216611b8a5760405162461bcd60e51b81526004016109d0906145d0565b6001600160a01b038116611bb05760405162461bcd60e51b81526004016109d0906145d0565b600380546001600160a01b0319166001600160a01b0384811691821790925560405163c0da840d60e01b815291831660048301529063c0da840d90602401610a0e565b6006546040516353c3375360e11b81526001600160a01b039091169063a7866ea690611c2d90899089908990899089908990600401614d18565b5f604051808303815f87803b158015611c44575f5ffd5b505af1158015611c56573d5f5f3e3d5ffd5b50505050505050505050565b6004805460405163aab3196d60e01b81526001600160a01b039091169163aab3196d91610a0e918691869101614d51565b5f80546040516395a8c58d60e01b81526001600160a01b03909116916395a8c58d91611cc3913391600401614373565b602060405180830381865afa158015611cde573d5f5f3e3d5ffd5b505050506040513d601f19601f82011682018060405250810190611d0291906143a4565b611d1e5760405162461bcd60e51b81526004016109d0906143bf565b6005546040516355faf41b60e11b8152600481018490526001600160a01b0383811660248301529091169063abf5e83690604401610a0e565b60015460405163af5607f960e01b8152600481018390526060916001600160a01b03169063af5607f9906024015f60405180830381865afa158015611d9e573d5f5f3e3d5ffd5b505050506040513d5f823e601f3d908101601f19168201604052610b669190810190614e5d565b5f80546040516395a8c58d60e01b81526001600160a01b03909116916395a8c58d91611df5913391600401614373565b602060405180830381865afa158015611e10573d5f5f3e3d5ffd5b505050506040513d601f19601f82011682018060405250810190611e3491906143a4565b611e505760405162461bcd60e51b81526004016109d0906143bf565b6001600160a01b038116611e765760405162461bcd60e51b81526004016109d0906145d0565b6001600160a01b038216611e9c5760405162461bcd60e51b81526004016109d0906145d0565b600680546001600160a01b0319166001600160a01b0384811691821790925560405163ea0f24e960e01b815291831660048301529063ea0f24e990602401610a0e565b60065460405163b2fdfe0560e01b81526001600160a01b038381166004830152606092169063b2fdfe05906024015f60405180830381865afa158015611f27573d5f5f3e3d5ffd5b505050506040513d5f823e601f3d908101601f19168201604052610b669190810190614e99565b5f80546040516395a8c58d60e01b81526001600160a01b03909116916395a8c58d91611f7e913391600401614373565b602060405180830381865afa158015611f99573d5f5f3e3d5ffd5b505050506040513d601f19601f82011682018060405250810190611fbd91906143a4565b611fd95760405162461bcd60e51b81526004016109d0906143bf565b600154604051635a23d55760e11b81526001600160a01b039091169063b447aaae90611c2d90899089908990899089908990600401614fea565b5f80546040516395a8c58d60e01b81526001600160a01b03909116916395a8c58d91612043913391600401614373565b602060405180830381865afa15801561205e573d5f5f3e3d5ffd5b505050506040513d601f19601f8201168201806040525081019061208291906143a4565b806120f957505f546040516395a8c58d60e01b81526001600160a01b03909116906395a8c58d906120ba903390600190600401614373565b602060405180830381865afa1580156120d5573d5f5f3e3d5ffd5b505050506040513d601f19601f820116820180604052508101906120f991906143a4565b6121155760405162461bcd60e51b81526004016109d090614935565b600354604051632d2bf54b60e21b81526001600160a01b039091169063b4afd52c90610a0e908590859060040161504f565b60015460408051635cdad57360e11b815290516060926001600160a01b03169163b9b5aae6916004808301925f9291908290030181865afa15801561218e573d5f5f3e3d5ffd5b505050506040513d5f823e601f3d908101601f19168201604052610940919081019061505f565b5f80546040516395a8c58d60e01b81526001600160a01b03909116916395a8c58d916121e5913391600401614373565b602060405180830381865afa158015612200573d5f5f3e3d5ffd5b505050506040513d601f19601f8201168201806040525081019061222491906143a4565b6122405760405162461bcd60e51b81526004016109d0906143bf565b6001600160a01b0381166122665760405162461bcd60e51b81526004016109d0906145d0565b600180546001600160a01b0319166001600160a01b0392909216919091179055565b5f80546040516395a8c58d60e01b81526001600160a01b03909116916395a8c58d916122b8913391600401614373565b602060405180830381865afa1580156122d3573d5f5f3e3d5ffd5b505050506040513d601f19601f820116820180604052508101906122f791906143a4565b6123135760405162461bcd60e51b81526004016109d0906143bf565b600154604051635d7c298360e11b81526001600160a01b039091169063baf853069061119f9086908690869060040161516f565b60015460408051630cb0769b60e41b815290516060926001600160a01b03169163cb0769b0916004808301925f9291908290030181865afa15801561218e573d5f5f3e3d5ffd5b5f80546040516395a8c58d60e01b81526001600160a01b03909116916395a8c58d916123be913391600401614373565b602060405180830381865afa1580156123d9573d5f5f3e3d5ffd5b505050506040513d601f19601f820116820180604052508101906123fd91906143a4565b6124195760405162461bcd60e51b81526004016109d0906143bf565b6002546001600160a01b03166124415760405162461bcd60e51b81526004016109d0906148cb565b60025460405163ceca737f60e01b8152600481018390526001600160a01b039091169063ceca737f90602401611376565b5f80546040516395a8c58d60e01b81526001600160a01b03909116916395a8c58d916124a2913391600401614373565b602060405180830381865afa1580156124bd573d5f5f3e3d5ffd5b505050506040513d601f19601f820116820180604052508101906124e191906143a4565b6124fd5760405162461bcd60e51b81526004016109d0906143bf565b600154604051630d198b6560e41b8152600481018390526001600160a01b039091169063d198b65090602401611376565b600354604051636a854f2360e11b81526001600160a01b039091169063d50a9e4690610a75908790879087908790600401615196565b6002546060906001600160a01b031661258f5760405162461bcd60e51b81526004016109d0906148cb565b60025f9054906101000a90046001600160a01b03166001600160a01b031663dadd0a576040518163ffffffff1660e01b81526004015f60405180830381865afa1580156125de573d5f5f3e3d5ffd5b505050506040513d5f823e601f3d908101601f191682016040526109409190810190615209565b5f80546040516395a8c58d60e01b81526001600160a01b03909116916395a8c58d91612635913391600401614373565b602060405180830381865afa158015612650573d5f5f3e3d5ffd5b505050506040513d601f19601f8201168201806040525081019061267491906143a4565b6126905760405162461bcd60e51b81526004016109d0906143bf565b600554604051630372b55760e61b81526001600160a01b039091169063dcad55c0906110a3908a908a908a908a908a908a908a90600401614698565b6126d4612d66565b600554604051633775e54160e21b81526001600160a01b0384811660048301529091169063ddd79504906024015f60405180830381865afa15801561271b573d5f5f3e3d5ffd5b505050506040513d5f823e601f3d908101601f19168201604052610b6691908101906152ad565b6001546040805163710dd46360e11b815290516060926001600160a01b03169163e21ba8c6916004808301925f929190829003018183875af115801561278a573d5f5f3e3d5ffd5b505050506040513d5f823e601f3d908101601f191682016040526109409190810190614e5d565b5f80546040516395a8c58d60e01b81526001600160a01b03909116916395a8c58d916127e1913391600401614373565b602060405180830381865afa1580156127fc573d5f5f3e3d5ffd5b505050506040513d601f19601f8201168201806040525081019061282091906143a4565b61283c5760405162461bcd60e51b81526004016109d0906143bf565b6003546040516373798c6360e11b8152600481018390526001600160a01b039091169063e6f318c690602401611376565b5f80546040516395a8c58d60e01b81526001600160a01b03909116916395a8c58d9161289d913391600401614373565b602060405180830381865afa1580156128b8573d5f5f3e3d5ffd5b505050506040513d601f19601f820116820180604052508101906128dc91906143a4565b6128f85760405162461bcd60e51b81526004016109d0906143bf565b6001600160a01b03811661291e5760405162461bcd60e51b81526004016109d0906145d0565b600580546001600160a01b0319166001600160a01b0392909216919091179055565b604080518082019091525f8152606060208201526002546001600160a01b031661297c5760405162461bcd60e51b81526004016109d0906148cb565b600254604051637982969360e11b8152600481018490526001600160a01b039091169063f3052d26906024015f60405180830381865afa1580156129c2573d5f5f3e3d5ffd5b505050506040513d5f823e601f3d908101601f19168201604052610b6691908101906152de565b60075460405163f44a858360e01b8152600481018390526060916001600160a01b03169063f44a8583906024015f60405180830381865afa158015612a30573d5f5f3e3d5ffd5b505050506040513d5f823e601f3d908101601f19168201604052610b66919081019061530f565b6007546040516307b5c14d60e51b81526001600160a01b039091169063f6b829a090610a7590879087908790879060040161440a565b5f80546040516395a8c58d60e01b81526001600160a01b03909116916395a8c58d91612abd913391600401614373565b602060405180830381865afa158015612ad8573d5f5f3e3d5ffd5b505050506040513d601f19601f82011682018060405250810190612afc91906143a4565b612b185760405162461bcd60e51b81526004016109d0906143bf565b6002546001600160a01b0316612b405760405162461bcd60e51b81526004016109d0906148cb565b600254604051637bc3452960e11b81526001600160a01b039091169063f7868a5290610a0e9085908590600401614902565b5f80546040516395a8c58d60e01b81526001600160a01b03909116906395a8c58d90612ba49033908590600401614373565b602060405180830381865afa158015612bbf573d5f5f3e3d5ffd5b505050506040513d601f19601f82011682018060405250810190612be391906143a4565b612bff5760405162461bcd60e51b81526004016109d0906143bf565b60035460405163fb25d32f60e01b81526001600160a01b039091169063fb25d32f90612c3390879087908790600401615459565b6020604051808303815f875af1158015612c4f573d5f5f3e3d5ffd5b505050506040513d601f19601f82011682018060405250810190612c7391906148b4565b90505b9392505050565b600654604051633f34c88f60e21b8152600481018390526001600160a01b039091169063fcd3223c90602401611376565b6040518060a001604052805f81526020015f81526020015f8152602001606081526020015f6001811115612ce457612ce4612de1565b905290565b6040518061018001604052805f81526020015f6001600160a01b03168152602001606081526020016060815260200160608152602001606081526020015f6001600160a01b031681526020015f8152602001606081526020015f81526020015f6003811115612d5a57612d5a612de1565b81526020015f81525090565b6040518060e001604052805f6001600160a01b031681526020016060815260200160608152602001606081526020015f81526020015f81526020015f6001811115612ce457612ce4612de1565b5f81518084528060208401602086015e5f602082860101526020601f19601f83011685010191505092915050565b634e487b7160e01b5f52602160045260245ffd5b60028110612e0557612e05612de1565b50565b60018060a01b0381511682525f602082015160e06020850152612e2e60e0850182612db3565b905060408301518482036040860152612e478282612db3565b91505060608301518482036060860152612e618282612db3565b9150506080830151608085015260a083015160a085015260c0830151612e8681612df5565b8060c0860152508091505092915050565b5f602082016020835280845180835260408501915060408160051b8601019250602086015f5b82811015612eee57603f19878603018452612ed9858351612e08565b94506020938401939190910190600101612ebd565b50929695505050505050565b8015158114612e05575f5ffd5b5f5f60408385031215612f18575f5ffd5b823591506020830135612f2a81612efa565b809150509250929050565b5f5f83601f840112612f45575f5ffd5b5081356001600160401b03811115612f5b575f5ffd5b602083019150836020828501011115612f72575f5ffd5b9250929050565b60ff81168114612e05575f5ffd5b5f5f5f5f60608587031215612f9a575f5ffd5b8435935060208501356001600160401b03811115612fb6575f5ffd5b612fc287828801612f35565b9094509250506040850135612fd681612f79565b939692955090935050565b5f60208284031215612ff1575f5ffd5b5035919050565b5f82825180855260208501945060208160051b830101602085015f5b8381101561304657601f19858403018852613030838351612db3565b6020988901989093509190910190600101613014565b50909695505050505050565b805182525f60208201516101406020850152613072610140850182612db3565b90506040830151848203604086015261308b8282612db3565b91505060608301516060850152608083015184820360808601526130af8282612ff8565b91505060a083015160a085015260c083015160c085015260e083015160e08501526101008301516101008501526101208301516130f161012086018215159052565b509392505050565b602081525f612c766020830184613052565b6001600160a01b0381168114612e05575f5ffd5b5f6020828403121561312f575f5ffd5b8135612c768161310b565b602081528151602082015260208201516040820152604082015160608201525f606083015160a0608084015261317360c0840182612db3565b9050608084015161318381612df5565b60a0939093019290925250919050565b5f5f604083850312156131a4575f5ffd5b82356131af8161310b565b91506020830135612f2a8161310b565b5f5f604083850312156131d0575f5ffd5b50508035926020909101359150565b5f5f5f5f5f5f5f6080888a0312156131f5575f5ffd5b87356132008161310b565b965060208801356001600160401b0381111561321a575f5ffd5b6132268a828b01612f35565b90975095505060408801356001600160401b03811115613244575f5ffd5b6132508a828b01612f35565b90955093505060608801356001600160401b0381111561326e575f5ffd5b61327a8a828b01612f35565b989b979a50959850939692959293505050565b5f5f5f6060848603121561329f575f5ffd5b505081359360208301359350604090920135919050565b5f5f5f606084860312156132c8575f5ffd5b833592506020840135915060408401356132e181612efa565b809150509250925092565b602080825282518282018190525f918401906040840190835b81811015613323578351835260209384019390920191600101613305565b509095945050505050565b634e487b7160e01b5f52604160045260245ffd5b604051606081016001600160401b03811182821017156133645761336461332e565b60405290565b60405160e081016001600160401b03811182821017156133645761336461332e565b60405161014081016001600160401b03811182821017156133645761336461332e565b60405160a081016001600160401b03811182821017156133645761336461332e565b60405161018081016001600160401b03811182821017156133645761336461332e565b60405160c081016001600160401b03811182821017156133645761336461332e565b604080519081016001600160401b03811182821017156133645761336461332e565b604051601f8201601f191681016001600160401b03811182821017156134605761346061332e565b604052919050565b5f6001600160401b038211156134805761348061332e565b5060051b60200190565b5f6001600160401b038211156134a2576134a261332e565b50601f01601f191660200190565b5f82601f8301126134bf575f5ffd5b81356134d26134cd8261348a565b613438565b8181528460208386010111156134e6575f5ffd5b816020850160208301375f918101602001919091529392505050565b5f60608284031215613512575f5ffd5b61351a613342565b905081356001600160401b03811115613531575f5ffd5b61353d848285016134b0565b8252506020828101359082015260409182013591810191909152919050565b5f82601f83011261356b575f5ffd5b81356135796134cd82613468565b8082825260208201915060208360051b86010192508583111561359a575f5ffd5b602085015b838110156135da5780356001600160401b038111156135bc575f5ffd5b6135cb886020838a0101613502565b8452506020928301920161359f565b5095945050505050565b5f5f604083850312156135f5575f5ffd5b8235915060208301356001600160401b03811115613611575f5ffd5b61361d8582860161355c565b9150509250929050565b5f82601f830112613636575f5ffd5b81356136446134cd82613468565b8082825260208201915060208360051b860101925085831115613665575f5ffd5b602085015b838110156135da5780356001600160401b03811115613687575f5ffd5b613696886020838a01016134b0565b8452506020928301920161366a565b5f5f5f5f5f60a086880312156136b9575f5ffd5b8535945060208601356001600160401b038111156136d5575f5ffd5b6136e1888289016134b0565b94505060408601356001600160401b038111156136fc575f5ffd5b613708888289016134b0565b9350506060860135915060808601356001600160401b0381111561372a575f5ffd5b61373688828901613627565b9150509295509295909350565b5f5f5f5f5f5f60a08789031215613758575f5ffd5b863595506020870135945060408701356001600160401b0381111561377b575f5ffd5b61378789828a01613627565b94505060608701356001600160401b038111156137a2575f5ffd5b6137ae89828a01612f35565b90945092505060808701356137c281612f79565b809150509295509295509295565b5f5f604083850312156137e1575f5ffd5b8235915060208301356001600160401b038111156137fd575f5ffd5b61361d858286016134b0565b60038110612e05575f5ffd5b5f5f5f60608486031215613827575f5ffd5b833592506020840135915060408401356132e181613809565b5f5f5f5f5f5f60c08789031215613855575f5ffd5b86356138608161310b565b95506020870135945060408701356001600160401b03811115613881575f5ffd5b61388d89828a016134b0565b94505060608701356001600160401b038111156138a8575f5ffd5b6138b489828a016134b0565b9350506080870135915060a08701356001600160401b038111156138d6575f5ffd5b8701601f810189136138e6575f5ffd5b80356138f46134cd82613468565b8082825260208201915060206060840285010192508b831115613915575f5ffd5b6020840193505b82841015613966576060848d031215613933575f5ffd5b61393b613342565b843581526020808601358183015260408087013590830152908352606090940193919091019061391c565b809450505050509295509295509295565b6003811061398757613987612de1565b9052565b5f8151808452602084019350602083015f5b82811015613a05578151805187526020810151602088015260408101516040880152606081015160608801526080810151608088015260a08101516139e560a0890182613977565b5060c0908101519087015260e0909501946020919091019060010161399d565b5093949350505050565b6004811061398757613987612de1565b805182525f6020820151613a3e60208501826001600160a01b03169052565b5060408201516101806040850152613a5a610180850182612db3565b905060608301518482036060860152613a738282612db3565b91505060808301518482036080860152613a8d8282612db3565b91505060a083015184820360a0860152613aa78282612db3565b91505060c0830151613ac460c08601826001600160a01b03169052565b5060e083015160e0850152610100830151848203610100860152613ae8828261398b565b915050610120830151610120850152610140830151613b0b610140860182613a0f565b506101608301516101608501528091505092915050565b602081525f612c766020830184613a1f565b60048110612e05575f5ffd5b5f60208284031215613b50575f5ffd5b8135612c7681613b34565b5f602082016020835280845180835260408501915060408160051b8601019250602086015f5b82811015612eee57603f19878603018452613b9d858351613a1f565b94506020938401939190910190600101613b81565b5f5f5f5f5f5f60a08789031215613bc7575f5ffd5b8635613bd28161310b565b95506020870135945060408701356001600160401b03811115613bf3575f5ffd5b613bff89828a01612f35565b90955093505060608701356001600160401b03811115613c1d575f5ffd5b613c2989828a01613627565b92505060808701356137c281612f79565b5f5f60408385031215613c4b575f5ffd5b823591506020830135612f2a81613b34565b5f5f60408385031215613c6e575f5ffd5b823591506020830135612f2a8161310b565b5f82825180855260208501945060208160051b830101602085015f5b8381101561304657601f19858403018852815180518452602081015160c06020860152613ccc60c0860182612db3565b60408381015190870152606080840151908701526080808401519087015260a09283015115159290950191909152506020978801979190910190600101613c9c565b602081525f612c766020830184613c80565b5f602082016020835280845180835260408501915060408160051b8601019250602086015f5b82811015612eee57603f1987860301845281518051865260018060a01b03602082015116602087015260018060a01b036040820151166040870152606081015160e06060880152613d9a60e0880182612db3565b905060808201518782036080890152613db38282612ff8565b60a08481015160ff16908a015260c093840151939098019290925250506020938401939190910190600101613d46565b5f5f5f5f5f5f60c08789031215613df8575f5ffd5b8635955060208701356001600160401b03811115613e14575f5ffd5b613e2089828a016134b0565b95505060408701356001600160401b03811115613e3b575f5ffd5b613e4789828a016134b0565b9450506060870135925060808701356001600160401b03811115613e69575f5ffd5b613e7589828a01613627565b92505060a08701356001600160401b03811115613e90575f5ffd5b613e9c89828a0161355c565b9150509295509295509295565b60028110612e05575f5ffd5b5f5f60408385031215613ec6575f5ffd5b823591506020830135612f2a81613ea9565b5f602082016020835280845180835260408501915060408160051b8601019250602086015f5b82811015612eee57603f198786030184528151805160408752613f246040880182613052565b9050602082015191508681036020880152613f3f8183613c80565b965050506020938401939190910190600101613efe565b5f5f5f60608486031215613f68575f5ffd5b833592506020840135915060408401356001600160401b03811115613f8b575f5ffd5b613f9786828701613502565b9150509250925092565b5f5f5f5f60808587031215613fb4575f5ffd5b84359350602085013592506040850135915060608501356001600160401b03811115613fde575f5ffd5b613fea878288016134b0565b91505092959194509250565b805182525f6020820151604060208501526140146040850182612db3565b949350505050565b5f602082016020835280845180835260408501915060408160051b8601019250602086015f5b82811015612eee57603f1987860301845261405e858351613ff6565b94506020938401939190910190600101614042565b602081525f612c766020830184612e08565b602081525f612c766020830184613ff6565b5f602082016020835280845180835260408501915060408160051b8601019250602086015f5b82811015612eee57603f1987860301845281518051865260018060a01b036020820151166020870152604081015160e060408801526140ff60e0880182612ff8565b905060608201516060880152608082015187820360808901526141228282612db3565b60a08481015160ff16908a015260c0938401519390980192909252505060209384019391909101906001016140bd565b5f5f5f60608486031215614164575f5ffd5b833592506020840135915060408401356001600160401b03811115614187575f5ffd5b613f97868287016134b0565b80516119e08161310b565b5f82601f8301126141ad575f5ffd5b81516141bb6134cd8261348a565b8181528460208386010111156141cf575f5ffd5b8160208501602083015e5f918101602001919091529392505050565b80516119e081613ea9565b5f60e08284031215614206575f5ffd5b61420e61336a565b905061421982614193565b815260208201516001600160401b03811115614233575f5ffd5b61423f8482850161419e565b60208301525060408201516001600160401b0381111561425d575f5ffd5b6142698482850161419e565b60408301525060608201516001600160401b03811115614287575f5ffd5b6142938482850161419e565b6060830152506080828101519082015260a080830151908201526142b960c083016141eb565b60c082015292915050565b5f602082840312156142d4575f5ffd5b81516001600160401b038111156142e9575f5ffd5b8201601f810184136142f9575f5ffd5b80516143076134cd82613468565b8082825260208201915060208360051b850101925086831115614328575f5ffd5b602084015b838110156143685780516001600160401b0381111561434a575f5ffd5b614359896020838901016141f6565b8452506020928301920161432d565b509695505050505050565b6001600160a01b03831681526040810161438c83612df5565b8260208301529392505050565b80516119e081612efa565b5f602082840312156143b4575f5ffd5b8151612c7681612efa565b6020808252600990820152682737ba1030b236b4b760b91b604082015260600190565b81835281816020850137505f828201602090810191909152601f909101601f19169091010190565b848152606060208201525f6144236060830185876143e2565b905060ff8316604083015295945050505050565b5f82601f830112614446575f5ffd5b81516144546134cd82613468565b8082825260208201915060208360051b860101925085831115614475575f5ffd5b602085015b838110156135da5780516001600160401b03811115614497575f5ffd5b6144a6886020838a010161419e565b8452506020928301920161447a565b5f61014082840312156144c6575f5ffd5b6144ce61338c565b8251815260208301519091506001600160401b038111156144ed575f5ffd5b6144f98482850161419e565b60208301525060408201516001600160401b03811115614517575f5ffd5b6145238482850161419e565b6040830152506060828101519082015260808201516001600160401b0381111561454b575f5ffd5b61455784828501614437565b60808301525060a0828101519082015260c0808301519082015260e0808301519082015261010080830151908201526145936101208301614399565b61012082015292915050565b5f602082840312156145af575f5ffd5b81516001600160401b038111156145c4575f5ffd5b614014848285016144b5565b6020808252600f908201526e496e76616c6964206164647265737360881b604082015260600190565b5f60208284031215614609575f5ffd5b81516001600160401b0381111561461e575f5ffd5b820160a0818503121561462f575f5ffd5b6146376133af565b81518152602080830151908201526040808301519082015260608201516001600160401b03811115614667575f5ffd5b6146738682850161419e565b6060830152506080820151915061468982613ea9565b60808101919091529392505050565b6001600160a01b03881681526080602082018190525f906146bc908301888a6143e2565b82810360408401526146cf8187896143e2565b905082810360608401526146e48185876143e2565b9a9950505050505050505050565b5f60208284031215614702575f5ffd5b81516001600160401b03811115614717575f5ffd5b8201601f81018413614727575f5ffd5b80516147356134cd82613468565b8082825260208201915060208360051b850101925086831115614756575f5ffd5b6020840193505b8284101561477857835182526020938401939091019061475d565b9695505050505050565b5f8151606084526147966060850182612db3565b905060208301516020850152604083015160408501528091505092915050565b5f82825180855260208501945060208160051b830101602085015f5b8381101561304657601f198584030188526147ee838351614782565b60209889019890935091909101906001016147d2565b828152604060208201525f612c7360408301846147b6565b85815260a060208201525f61483460a0830187612db3565b82810360408401526148468187612db3565b905084606084015282810360808401526148608185612ff8565b98975050505050505050565b86815285602082015260a060408201525f61488a60a0830187612ff8565b828103606084015261489d8186886143e2565b91505060ff83166080830152979650505050505050565b5f602082840312156148c4575f5ffd5b5051919050565b6020808252601c908201527f43617465676f72794d616e61676572206e6f74206465706c6f79656400000000604082015260600190565b828152604060208201525f612c736040830184612db3565b5f6020828403121561492a575f5ffd5b8151612c768161310b565b6020808252601290820152712737ba1030b236b4b71037b91039ba30b33360711b604082015260600190565b83815260208101839052606081016140146040830184613977565b60018060a01b038716815285602082015260c060408201525f6149a260c0830187612db3565b82810360608401526149b48187612db3565b6080840186905283810360a0850152845180825260208087019350909101905f5b81811015614a0f578351805184526020810151602085015260408101516040850152506060830192506020840193506001810190506149d5565b50909a9950505050505050505050565b5f82601f830112614a2e575f5ffd5b8151614a3c6134cd82613468565b80828252602082019150602060e08402860101925085831115614a5d575f5ffd5b602085015b838110156135da5760e08188031215614a79575f5ffd5b614a8161336a565b815181526020808301519082015260408083015190820152606080830151908201526080808301519082015260a0820151614abb81613809565b60a082015260c08281015190820152835260209092019160e001614a62565b80516119e081613b34565b5f6101808284031215614af6575f5ffd5b614afe6133d1565b825181529050614b1060208301614193565b602082015260408201516001600160401b03811115614b2d575f5ffd5b614b398482850161419e565b60408301525060608201516001600160401b03811115614b57575f5ffd5b614b638482850161419e565b60608301525060808201516001600160401b03811115614b81575f5ffd5b614b8d8482850161419e565b60808301525060a08201516001600160401b03811115614bab575f5ffd5b614bb78482850161419e565b60a083015250614bc960c08301614193565b60c082015260e082810151908201526101008201516001600160401b03811115614bf1575f5ffd5b614bfd84828501614a1f565b610100830152506101208281015190820152614c1c6101408301614ada565b6101408201526101609182015191810191909152919050565b5f60208284031215614c45575f5ffd5b81516001600160401b03811115614c5a575f5ffd5b61401484828501614ae5565b60208101610b668284613a0f565b5f60208284031215614c84575f5ffd5b81516001600160401b03811115614c99575f5ffd5b8201601f81018413614ca9575f5ffd5b8051614cb76134cd82613468565b8082825260208201915060208360051b850101925086831115614cd8575f5ffd5b602084015b838110156143685780516001600160401b03811115614cfa575f5ffd5b614d0989602083890101614ae5565b84525060209283019201614cdd565b60018060a01b038716815285602082015260a060408201525f614d3f60a0830186886143e2565b828103606084015261489d8186612ff8565b82815260408101612c766020830184613a0f565b5f82601f830112614d74575f5ffd5b8151614d826134cd82613468565b8082825260208201915060208360051b860101925085831115614da3575f5ffd5b602085015b838110156135da5780516001600160401b03811115614dc5575f5ffd5b860160c0818903601f19011215614dda575f5ffd5b614de26133f4565b6020820151815260408201516001600160401b03811115614e01575f5ffd5b614e108a60208386010161419e565b60208301525060608281015160408301526080808401519183019190915260a08301519082015260c09091015190614e4782612efa565b60a0810191909152835260209283019201614da8565b5f60208284031215614e6d575f5ffd5b81516001600160401b03811115614e82575f5ffd5b61401484828501614d65565b80516119e081612f79565b5f60208284031215614ea9575f5ffd5b81516001600160401b03811115614ebe575f5ffd5b8201601f81018413614ece575f5ffd5b8051614edc6134cd82613468565b8082825260208201915060208360051b850101925086831115614efd575f5ffd5b602084015b838110156143685780516001600160401b03811115614f1f575f5ffd5b850160e0818a03601f19011215614f34575f5ffd5b614f3c61336a565b60208201518152614f4f60408301614193565b6020820152614f6060608301614193565b604082015260808201516001600160401b03811115614f7d575f5ffd5b614f8c8b60208386010161419e565b60608301525060a08201516001600160401b03811115614faa575f5ffd5b614fb98b602083860101614437565b608083015250614fcb60c08301614e8e565b60a082015260e0919091015160c0820152835260209283019201614f02565b86815260c060208201525f61500260c0830188612db3565b82810360408401526150148188612db3565b9050856060840152828103608084015261502e8186612ff8565b905082810360a084015261504281856147b6565b9998505050505050505050565b8281526040810161438c83612df5565b5f6020828403121561506f575f5ffd5b81516001600160401b03811115615084575f5ffd5b8201601f81018413615094575f5ffd5b80516150a26134cd82613468565b8082825260208201915060208360051b8501019250868311156150c3575f5ffd5b602084015b838110156143685780516001600160401b038111156150e5575f5ffd5b85016040818a03601f190112156150fa575f5ffd5b615102613416565b60208201516001600160401b0381111561511a575f5ffd5b6151298b6020838601016144b5565b82525060408201516001600160401b03811115615144575f5ffd5b6151538b602083860101614d65565b60208301525080855250506020830192506020810190506150c8565b838152826020820152606060408201525f61518d6060830184614782565b95945050505050565b848152836020820152826040820152608060608201525f6147786080830184612db3565b5f604082840312156151ca575f5ffd5b6151d2613416565b8251815260208301519091506001600160401b038111156151f1575f5ffd5b6151fd8482850161419e565b60208301525092915050565b5f60208284031215615219575f5ffd5b81516001600160401b0381111561522e575f5ffd5b8201601f8101841361523e575f5ffd5b805161524c6134cd82613468565b8082825260208201915060208360051b85010192508683111561526d575f5ffd5b602084015b838110156143685780516001600160401b0381111561528f575f5ffd5b61529e896020838901016151ba565b84525060209283019201615272565b5f602082840312156152bd575f5ffd5b81516001600160401b038111156152d2575f5ffd5b614014848285016141f6565b5f602082840312156152ee575f5ffd5b81516001600160401b03811115615303575f5ffd5b614014848285016151ba565b5f6020828403121561531f575f5ffd5b81516001600160401b03811115615334575f5ffd5b8201601f81018413615344575f5ffd5b80516153526134cd82613468565b8082825260208201915060208360051b850101925086831115615373575f5ffd5b602084015b838110156143685780516001600160401b03811115615395575f5ffd5b850160e0818a03601f190112156153aa575f5ffd5b6153b261336a565b602082015181526153c560408301614193565b602082015260608201516001600160401b038111156153e2575f5ffd5b6153f18b602083860101614437565b6040830152506080820151606082015260a08201516001600160401b03811115615419575f5ffd5b6154288b60208386010161419e565b60808301525061543a60c08301614e8e565b60a082015260e0919091015160c0820152835260209283019201615378565b838152826020820152606060408201525f61518d6060830184612db356fea2646970667358221220408f190a0e674f60e2f69523cf89d99e73353d137452752d88ff70f2d572d50864736f6c634300081e0033",
			"opcodes": "PUSH1 0x80 PUSH1 0x40 MSTORE CALLVALUE DUP1 ISZERO PUSH1 0xE JUMPI PUSH0 PUSH0 REVERT JUMPDEST POP PUSH1 0x40 MLOAD PUSH2 0x5533 CODESIZE SUB DUP1 PUSH2 0x5533 DUP4 CODECOPY DUP2 ADD PUSH1 0x40 DUP2 SWAP1 MSTORE PUSH1 0x2B SWAP2 PUSH1 0x4E JUMP JUMPDEST PUSH0 DUP1 SLOAD PUSH1 0x1 PUSH1 0x1 PUSH1 0xA0 SHL SUB NOT AND PUSH1 0x1 PUSH1 0x1 PUSH1 0xA0 SHL SUB SWAP3 SWAP1 SWAP3 AND SWAP2 SWAP1 SWAP2 OR SWAP1 SSTORE PUSH1 0x79 JUMP JUMPDEST PUSH0 PUSH1 0x20 DUP3 DUP5 SUB SLT ISZERO PUSH1 0x5D JUMPI PUSH0 PUSH0 REVERT JUMPDEST DUP2 MLOAD PUSH1 0x1 PUSH1 0x1 PUSH1 0xA0 SHL SUB DUP2 AND DUP2 EQ PUSH1 0x72 JUMPI PUSH0 PUSH0 REVERT JUMPDEST SWAP4 SWAP3 POP POP POP JUMP JUMPDEST PUSH2 0x54AD DUP1 PUSH2 0x86 PUSH0 CODECOPY PUSH0 RETURN INVALID PUSH1 0x80 PUSH1 0x40 MSTORE CALLVALUE DUP1 ISZERO PUSH2 0xF JUMPI PUSH0 PUSH0 REVERT JUMPDEST POP PUSH1 0x4 CALLDATASIZE LT PUSH2 0x3A9 JUMPI PUSH0 CALLDATALOAD PUSH1 0xE0 SHR DUP1 PUSH4 0x97D2B92A GT PUSH2 0x1EA JUMPI DUP1 PUSH4 0xD198B650 GT PUSH2 0x114 JUMPI DUP1 PUSH4 0xEA0F24E9 GT PUSH2 0xA9 JUMPI DUP1 PUSH4 0xF7868A52 GT PUSH2 0x79 JUMPI DUP1 PUSH4 0xF7868A52 EQ PUSH2 0x877 JUMPI DUP1 PUSH4 0xF9B6117F EQ PUSH2 0x88A JUMPI DUP1 PUSH4 0xFB25D32F EQ PUSH2 0x89D JUMPI DUP1 PUSH4 0xFCD3223C EQ PUSH2 0x8BE JUMPI PUSH0 PUSH0 REVERT JUMPDEST DUP1 PUSH4 0xEA0F24E9 EQ PUSH2 0x811 JUMPI DUP1 PUSH4 0xF3052D26 EQ PUSH2 0x824 JUMPI DUP1 PUSH4 0xF44A8583 EQ PUSH2 0x844 JUMPI DUP1 PUSH4 0xF6B829A0 EQ PUSH2 0x864 JUMPI PUSH0 PUSH0 REVERT JUMPDEST DUP1 PUSH4 0xDCAD55C0 GT PUSH2 0xE4 JUMPI DUP1 PUSH4 0xDCAD55C0 EQ PUSH2 0x7C3 JUMPI DUP1 PUSH4 0xDDD79504 EQ PUSH2 0x7D6 JUMPI DUP1 PUSH4 0xE21BA8C6 EQ PUSH2 0x7F6 JUMPI DUP1 PUSH4 0xE6F318C6 EQ PUSH2 0x7FE JUMPI PUSH0 PUSH0 REVERT JUMPDEST DUP1 PUSH4 0xD198B650 EQ PUSH2 0x775 JUMPI DUP1 PUSH4 0xD50A9E46 EQ PUSH2 0x788 JUMPI DUP1 PUSH4 0xD86EC238 EQ PUSH2 0x79B JUMPI DUP1 PUSH4 0xDADD0A57 EQ PUSH2 0x7AE JUMPI PUSH0 PUSH0 REVERT JUMPDEST DUP1 PUSH4 0xB2FDFE05 GT PUSH2 0x18A JUMPI DUP1 PUSH4 0xBAD1365E GT PUSH2 0x15A JUMPI DUP1 PUSH4 0xBAD1365E EQ PUSH2 0x734 JUMPI DUP1 PUSH4 0xBAF85306 EQ PUSH2 0x747 JUMPI DUP1 PUSH4 0xCB0769B0 EQ PUSH2 0x75A JUMPI DUP1 PUSH4 0xCECA737F EQ PUSH2 0x762 JUMPI PUSH0 PUSH0 REVERT JUMPDEST DUP1 PUSH4 0xB2FDFE05 EQ PUSH2 0x6D9 JUMPI DUP1 PUSH4 0xB447AAAE EQ PUSH2 0x6F9 JUMPI DUP1 PUSH4 0xB4AFD52C EQ PUSH2 0x70C JUMPI DUP1 PUSH4 0xB9B5AAE6 EQ PUSH2 0x71F JUMPI PUSH0 PUSH0 REVERT JUMPDEST DUP1 PUSH4 0xAAB3196D GT PUSH2 0x1C5 JUMPI DUP1 PUSH4 0xAAB3196D EQ PUSH2 0x680 JUMPI DUP1 PUSH4 0xABF5E836 EQ PUSH2 0x693 JUMPI DUP1 PUSH4 0xAF5607F9 EQ PUSH2 0x6A6 JUMPI DUP1 PUSH4 0xB1587606 EQ PUSH2 0x6C6 JUMPI PUSH0 PUSH0 REVERT JUMPDEST DUP1 PUSH4 0x97D2B92A EQ PUSH2 0x647 JUMPI DUP1 PUSH4 0x997ED85C EQ PUSH2 0x65A JUMPI DUP1 PUSH4 0xA7866EA6 EQ PUSH2 0x66D JUMPI PUSH0 PUSH0 REVERT JUMPDEST DUP1 PUSH4 0x5BE5FD39 GT PUSH2 0x2D6 JUMPI DUP1 PUSH4 0x7668206D GT PUSH2 0x26B JUMPI DUP1 PUSH4 0x8A46E8EB GT PUSH2 0x23B JUMPI DUP1 PUSH4 0x8A46E8EB EQ PUSH2 0x5E1 JUMPI DUP1 PUSH4 0x8C9DA843 EQ PUSH2 0x5F4 JUMPI DUP1 PUSH4 0x8CE2EC79 EQ PUSH2 0x614 JUMPI DUP1 PUSH4 0x95EBCB24 EQ PUSH2 0x634 JUMPI PUSH0 PUSH0 REVERT JUMPDEST DUP1 PUSH4 0x7668206D EQ PUSH2 0x5A0 JUMPI DUP1 PUSH4 0x78697E5B EQ PUSH2 0x5B3 JUMPI DUP1 PUSH4 0x892BB335 EQ PUSH2 0x5C6 JUMPI DUP1 PUSH4 0x893D20E8 EQ PUSH2 0x5D9 JUMPI PUSH0 PUSH0 REVERT JUMPDEST DUP1 PUSH4 0x64F77471 GT PUSH2 0x2A6 JUMPI DUP1 PUSH4 0x64F77471 EQ PUSH2 0x554 JUMPI DUP1 PUSH4 0x6595171C EQ PUSH2 0x567 JUMPI DUP1 PUSH4 0x6DD2DD88 EQ PUSH2 0x57A JUMPI DUP1 PUSH4 0x75BD5601 EQ PUSH2 0x58D JUMPI PUSH0 PUSH0 REVERT JUMPDEST DUP1 PUSH4 0x5BE5FD39 EQ PUSH2 0x4FB JUMPI DUP1 PUSH4 0x5CFD6607 EQ PUSH2 0x50E JUMPI DUP1 PUSH4 0x61CE7F78 EQ PUSH2 0x521 JUMPI DUP1 PUSH4 0x63C69F08 EQ PUSH2 0x534 JUMPI PUSH0 PUSH0 REVERT JUMPDEST DUP1 PUSH4 0x360D5B9E GT PUSH2 0x34C JUMPI DUP1 PUSH4 0x43AE37C3 GT PUSH2 0x31C JUMPI DUP1 PUSH4 0x43AE37C3 EQ PUSH2 0x4BC JUMPI DUP1 PUSH4 0x4CDEBC39 EQ PUSH2 0x4C2 JUMPI DUP1 PUSH4 0x4D30A39B EQ PUSH2 0x4D5 JUMPI DUP1 PUSH4 0x5775CDA4 EQ PUSH2 0x4E8 JUMPI PUSH0 PUSH0 REVERT JUMPDEST DUP1 PUSH4 0x360D5B9E EQ PUSH2 0x464 JUMPI DUP1 PUSH4 0x3844AC5B EQ PUSH2 0x477 JUMPI DUP1 PUSH4 0x42F54B89 EQ PUSH2 0x497 JUMPI DUP1 PUSH4 0x439E61FA EQ PUSH2 0x4A9 JUMPI PUSH0 PUSH0 REVERT JUMPDEST DUP1 PUSH4 0x18211503 GT PUSH2 0x387 JUMPI DUP1 PUSH4 0x18211503 EQ PUSH2 0x40B JUMPI DUP1 PUSH4 0x1E4DE872 EQ PUSH2 0x41E JUMPI DUP1 PUSH4 0x2CF4A54D EQ PUSH2 0x43E JUMPI DUP1 PUSH4 0x330933CF EQ PUSH2 0x451 JUMPI PUSH0 PUSH0 REVERT JUMPDEST DUP1 PUSH4 0x37C73C2 EQ PUSH2 0x3AD JUMPI DUP1 PUSH4 0x5207DB2 EQ PUSH2 0x3CB JUMPI DUP1 PUSH4 0x9CA221F EQ PUSH2 0x3E0 JUMPI JUMPDEST PUSH0 PUSH0 REVERT JUMPDEST PUSH2 0x3B5 PUSH2 0x8D1 JUMP JUMPDEST PUSH1 0x40 MLOAD PUSH2 0x3C2 SWAP2 SWAP1 PUSH2 0x2E97 JUMP JUMPDEST PUSH1 0x40 MLOAD DUP1 SWAP2 SUB SWAP1 RETURN JUMPDEST PUSH2 0x3DE PUSH2 0x3D9 CALLDATASIZE PUSH1 0x4 PUSH2 0x2F07 JUMP JUMPDEST PUSH2 0x945 JUMP JUMPDEST STOP JUMPDEST PUSH1 0x6 SLOAD PUSH2 0x3F3 SWAP1 PUSH1 0x1 PUSH1 0x1 PUSH1 0xA0 SHL SUB AND DUP2 JUMP JUMPDEST PUSH1 0x40 MLOAD PUSH1 0x1 PUSH1 0x1 PUSH1 0xA0 SHL SUB SWAP1 SWAP2 AND DUP2 MSTORE PUSH1 0x20 ADD PUSH2 0x3C2 JUMP JUMPDEST PUSH2 0x3DE PUSH2 0x419 CALLDATASIZE PUSH1 0x4 PUSH2 0x2F87 JUMP JUMPDEST PUSH2 0xA3F JUMP JUMPDEST PUSH2 0x431 PUSH2 0x42C CALLDATASIZE PUSH1 0x4 PUSH2 0x2FE1 JUMP JUMPDEST PUSH2 0xAA8 JUMP JUMPDEST PUSH1 0x40 MLOAD PUSH2 0x3C2 SWAP2 SWAP1 PUSH2 0x30F9 JUMP JUMPDEST PUSH1 0x7 SLOAD PUSH2 0x3F3 SWAP1 PUSH1 0x1 PUSH1 0x1 PUSH1 0xA0 SHL SUB AND DUP2 JUMP JUMPDEST PUSH2 0x3DE PUSH2 0x45F CALLDATASIZE PUSH1 0x4 PUSH2 0x311F JUMP JUMPDEST PUSH2 0xB6C JUMP JUMPDEST PUSH1 0x5 SLOAD PUSH2 0x3F3 SWAP1 PUSH1 0x1 PUSH1 0x1 PUSH1 0xA0 SHL SUB AND DUP2 JUMP JUMPDEST PUSH2 0x48A PUSH2 0x485 CALLDATASIZE PUSH1 0x4 PUSH2 0x2FE1 JUMP JUMPDEST PUSH2 0xC3F JUMP JUMPDEST PUSH1 0x40 MLOAD PUSH2 0x3C2 SWAP2 SWAP1 PUSH2 0x313A JUMP JUMPDEST PUSH0 SLOAD PUSH2 0x3F3 SWAP1 PUSH1 0x1 PUSH1 0x1 PUSH1 0xA0 SHL SUB AND DUP2 JUMP JUMPDEST PUSH1 0x1 SLOAD PUSH2 0x3F3 SWAP1 PUSH1 0x1 PUSH1 0x1 PUSH1 0xA0 SHL SUB AND DUP2 JUMP JUMPDEST CALLER PUSH2 0x3F3 JUMP JUMPDEST PUSH2 0x3DE PUSH2 0x4D0 CALLDATASIZE PUSH1 0x4 PUSH2 0x3193 JUMP JUMPDEST PUSH2 0xCB4 JUMP JUMPDEST PUSH2 0x3DE PUSH2 0x4E3 CALLDATASIZE PUSH1 0x4 PUSH2 0x31BF JUMP JUMPDEST PUSH2 0xDCF JUMP JUMPDEST PUSH2 0x3DE PUSH2 0x4F6 CALLDATASIZE PUSH1 0x4 PUSH2 0x3193 JUMP JUMPDEST PUSH2 0xE92 JUMP JUMPDEST PUSH2 0x3DE PUSH2 0x509 CALLDATASIZE PUSH1 0x4 PUSH2 0x31DF JUMP JUMPDEST PUSH2 0xFDC JUMP JUMPDEST PUSH2 0x3DE PUSH2 0x51C CALLDATASIZE PUSH1 0x4 PUSH2 0x328D JUMP JUMPDEST PUSH2 0x10D9 JUMP JUMPDEST PUSH2 0x3DE PUSH2 0x52F CALLDATASIZE PUSH1 0x4 PUSH2 0x32B6 JUMP JUMPDEST PUSH2 0x11D1 JUMP JUMPDEST PUSH2 0x547 PUSH2 0x542 CALLDATASIZE PUSH1 0x4 PUSH2 0x311F JUMP JUMPDEST PUSH2 0x1211 JUMP JUMPDEST PUSH1 0x40 MLOAD PUSH2 0x3C2 SWAP2 SWAP1 PUSH2 0x32EC JUMP JUMPDEST PUSH2 0x3DE PUSH2 0x562 CALLDATASIZE PUSH1 0x4 PUSH2 0x35E4 JUMP JUMPDEST PUSH2 0x1285 JUMP JUMPDEST PUSH2 0x3DE PUSH2 0x575 CALLDATASIZE PUSH1 0x4 PUSH2 0x311F JUMP JUMPDEST PUSH2 0x1342 JUMP JUMPDEST PUSH2 0x3DE PUSH2 0x588 CALLDATASIZE PUSH1 0x4 PUSH2 0x36A5 JUMP JUMPDEST PUSH2 0x13A6 JUMP JUMPDEST PUSH2 0x3DE PUSH2 0x59B CALLDATASIZE PUSH1 0x4 PUSH2 0x3743 JUMP JUMPDEST PUSH2 0x149D JUMP JUMPDEST PUSH2 0x3DE PUSH2 0x5AE CALLDATASIZE PUSH1 0x4 PUSH2 0x311F JUMP JUMPDEST PUSH2 0x1517 JUMP JUMPDEST PUSH2 0x3DE PUSH2 0x5C1 CALLDATASIZE PUSH1 0x4 PUSH2 0x37D0 JUMP JUMPDEST PUSH2 0x154F JUMP JUMPDEST PUSH1 0x3 SLOAD PUSH2 0x3F3 SWAP1 PUSH1 0x1 PUSH1 0x1 PUSH1 0xA0 SHL SUB AND DUP2 JUMP JUMPDEST PUSH2 0x3F3 PUSH2 0x1634 JUMP JUMPDEST PUSH2 0x3DE PUSH2 0x5EF CALLDATASIZE PUSH1 0x4 PUSH2 0x3815 JUMP JUMPDEST PUSH2 0x16A8 JUMP JUMPDEST PUSH2 0x607 PUSH2 0x602 CALLDATASIZE PUSH1 0x4 PUSH2 0x3840 JUMP JUMPDEST PUSH2 0x17DD JUMP JUMPDEST PUSH1 0x40 MLOAD PUSH2 0x3C2 SWAP2 SWAP1 PUSH2 0x3B22 JUMP JUMPDEST PUSH2 0x627 PUSH2 0x622 CALLDATASIZE PUSH1 0x4 PUSH2 0x3B40 JUMP JUMPDEST PUSH2 0x186B JUMP JUMPDEST PUSH1 0x40 MLOAD PUSH2 0x3C2 SWAP2 SWAP1 PUSH2 0x3B5B JUMP JUMPDEST PUSH2 0x3DE PUSH2 0x642 CALLDATASIZE PUSH1 0x4 PUSH2 0x31BF JUMP JUMPDEST PUSH2 0x19E5 JUMP JUMPDEST PUSH2 0x3DE PUSH2 0x655 CALLDATASIZE PUSH1 0x4 PUSH2 0x2FE1 JUMP JUMPDEST PUSH2 0x1AA8 JUMP JUMPDEST PUSH2 0x3DE PUSH2 0x668 CALLDATASIZE PUSH1 0x4 PUSH2 0x3193 JUMP JUMPDEST PUSH2 0x1AD9 JUMP JUMPDEST PUSH2 0x3DE PUSH2 0x67B CALLDATASIZE PUSH1 0x4 PUSH2 0x3BB2 JUMP JUMPDEST PUSH2 0x1BF3 JUMP JUMPDEST PUSH2 0x3DE PUSH2 0x68E CALLDATASIZE PUSH1 0x4 PUSH2 0x3C3A JUMP JUMPDEST PUSH2 0x1C62 JUMP JUMPDEST PUSH2 0x3DE PUSH2 0x6A1 CALLDATASIZE PUSH1 0x4 PUSH2 0x3C5D JUMP JUMPDEST PUSH2 0x1C93 JUMP JUMPDEST PUSH2 0x6B9 PUSH2 0x6B4 CALLDATASIZE PUSH1 0x4 PUSH2 0x2FE1 JUMP JUMPDEST PUSH2 0x1D57 JUMP JUMPDEST PUSH1 0x40 MLOAD PUSH2 0x3C2 SWAP2 SWAP1 PUSH2 0x3D0E JUMP JUMPDEST PUSH2 0x3DE PUSH2 0x6D4 CALLDATASIZE PUSH1 0x4 PUSH2 0x3193 JUMP JUMPDEST PUSH2 0x1DC5 JUMP JUMPDEST PUSH2 0x6EC PUSH2 0x6E7 CALLDATASIZE PUSH1 0x4 PUSH2 0x311F JUMP JUMPDEST PUSH2 0x1EDF JUMP JUMPDEST PUSH1 0x40 MLOAD PUSH2 0x3C2 SWAP2 SWAP1 PUSH2 0x3D20 JUMP JUMPDEST PUSH2 0x3DE PUSH2 0x707 CALLDATASIZE PUSH1 0x4 PUSH2 0x3DE3 JUMP JUMPDEST PUSH2 0x1F4E JUMP JUMPDEST PUSH2 0x3DE PUSH2 0x71A CALLDATASIZE PUSH1 0x4 PUSH2 0x3EB5 JUMP JUMPDEST PUSH2 0x2013 JUMP JUMPDEST PUSH2 0x727 PUSH2 0x2147 JUMP JUMPDEST PUSH1 0x40 MLOAD PUSH2 0x3C2 SWAP2 SWAP1 PUSH2 0x3ED8 JUMP JUMPDEST PUSH2 0x3DE PUSH2 0x742 CALLDATASIZE PUSH1 0x4 PUSH2 0x311F JUMP JUMPDEST PUSH2 0x21B5 JUMP JUMPDEST PUSH2 0x3DE PUSH2 0x755 CALLDATASIZE PUSH1 0x4 PUSH2 0x3F56 JUMP JUMPDEST PUSH2 0x2288 JUMP JUMPDEST PUSH2 0x727 PUSH2 0x2347 JUMP JUMPDEST PUSH2 0x3DE PUSH2 0x770 CALLDATASIZE PUSH1 0x4 PUSH2 0x2FE1 JUMP JUMPDEST PUSH2 0x238E JUMP JUMPDEST PUSH2 0x3DE PUSH2 0x783 CALLDATASIZE PUSH1 0x4 PUSH2 0x2FE1 JUMP JUMPDEST PUSH2 0x2472 JUMP JUMPDEST PUSH2 0x3DE PUSH2 0x796 CALLDATASIZE PUSH1 0x4 PUSH2 0x3FA1 JUMP JUMPDEST PUSH2 0x252E JUMP JUMPDEST PUSH1 0x2 SLOAD PUSH2 0x3F3 SWAP1 PUSH1 0x1 PUSH1 0x1 PUSH1 0xA0 SHL SUB AND DUP2 JUMP JUMPDEST PUSH2 0x7B6 PUSH2 0x2564 JUMP JUMPDEST PUSH1 0x40 MLOAD PUSH2 0x3C2 SWAP2 SWAP1 PUSH2 0x401C JUMP JUMPDEST PUSH2 0x3DE PUSH2 0x7D1 CALLDATASIZE PUSH1 0x4 PUSH2 0x31DF JUMP JUMPDEST PUSH2 0x2605 JUMP JUMPDEST PUSH2 0x7E9 PUSH2 0x7E4 CALLDATASIZE PUSH1 0x4 PUSH2 0x311F JUMP JUMPDEST PUSH2 0x26CC JUMP JUMPDEST PUSH1 0x40 MLOAD PUSH2 0x3C2 SWAP2 SWAP1 PUSH2 0x4073 JUMP JUMPDEST PUSH2 0x6B9 PUSH2 0x2742 JUMP JUMPDEST PUSH2 0x3DE PUSH2 0x80C CALLDATASIZE PUSH1 0x4 PUSH2 0x2FE1 JUMP JUMPDEST PUSH2 0x27B1 JUMP JUMPDEST PUSH2 0x3DE PUSH2 0x81F CALLDATASIZE PUSH1 0x4 PUSH2 0x311F JUMP JUMPDEST PUSH2 0x286D JUMP JUMPDEST PUSH2 0x837 PUSH2 0x832 CALLDATASIZE PUSH1 0x4 PUSH2 0x2FE1 JUMP JUMPDEST PUSH2 0x2940 JUMP JUMPDEST PUSH1 0x40 MLOAD PUSH2 0x3C2 SWAP2 SWAP1 PUSH2 0x4085 JUMP JUMPDEST PUSH2 0x857 PUSH2 0x852 CALLDATASIZE PUSH1 0x4 PUSH2 0x2FE1 JUMP JUMPDEST PUSH2 0x29E9 JUMP JUMPDEST PUSH1 0x40 MLOAD PUSH2 0x3C2 SWAP2 SWAP1 PUSH2 0x4097 JUMP JUMPDEST PUSH2 0x3DE PUSH2 0x872 CALLDATASIZE PUSH1 0x4 PUSH2 0x2F87 JUMP JUMPDEST PUSH2 0x2A57 JUMP JUMPDEST PUSH2 0x3DE PUSH2 0x885 CALLDATASIZE PUSH1 0x4 PUSH2 0x37D0 JUMP JUMPDEST PUSH2 0x2A8D JUMP JUMPDEST PUSH1 0x4 SLOAD PUSH2 0x3F3 SWAP1 PUSH1 0x1 PUSH1 0x1 PUSH1 0xA0 SHL SUB AND DUP2 JUMP JUMPDEST PUSH2 0x8B0 PUSH2 0x8AB CALLDATASIZE PUSH1 0x4 PUSH2 0x4152 JUMP JUMPDEST PUSH2 0x2B72 JUMP JUMPDEST PUSH1 0x40 MLOAD SWAP1 DUP2 MSTORE PUSH1 0x20 ADD PUSH2 0x3C2 JUMP JUMPDEST PUSH2 0x3DE PUSH2 0x8CC CALLDATASIZE PUSH1 0x4 PUSH2 0x2FE1 JUMP JUMPDEST PUSH2 0x2C7D JUMP JUMPDEST PUSH1 0x5 SLOAD PUSH1 0x40 DUP1 MLOAD PUSH4 0x1BE39E1 PUSH1 0xE1 SHL DUP2 MSTORE SWAP1 MLOAD PUSH1 0x60 SWAP3 PUSH1 0x1 PUSH1 0x1 PUSH1 0xA0 SHL SUB AND SWAP2 PUSH4 0x37C73C2 SWAP2 PUSH1 0x4 DUP1 DUP4 ADD SWAP3 PUSH0 SWAP3 SWAP2 SWAP1 DUP3 SWAP1 SUB ADD DUP2 DUP4 DUP8 GAS CALL ISZERO DUP1 ISZERO PUSH2 0x919 JUMPI RETURNDATASIZE PUSH0 PUSH0 RETURNDATACOPY RETURNDATASIZE PUSH0 REVERT JUMPDEST POP POP POP POP PUSH1 0x40 MLOAD RETURNDATASIZE PUSH0 DUP3 RETURNDATACOPY PUSH1 0x1F RETURNDATASIZE SWAP1 DUP2 ADD PUSH1 0x1F NOT AND DUP3 ADD PUSH1 0x40 MSTORE PUSH2 0x940 SWAP2 SWAP1 DUP2 ADD SWAP1 PUSH2 0x42C4 JUMP JUMPDEST SWAP1 POP SWAP1 JUMP JUMPDEST PUSH0 DUP1 SLOAD PUSH1 0x40 MLOAD PUSH4 0x95A8C58D PUSH1 0xE0 SHL DUP2 MSTORE PUSH1 0x1 PUSH1 0x1 PUSH1 0xA0 SHL SUB SWAP1 SWAP2 AND SWAP2 PUSH4 0x95A8C58D SWAP2 PUSH2 0x975 SWAP2 CALLER SWAP2 PUSH1 0x4 ADD PUSH2 0x4373 JUMP JUMPDEST PUSH1 0x20 PUSH1 0x40 MLOAD DUP1 DUP4 SUB DUP2 DUP7 GAS STATICCALL ISZERO DUP1 ISZERO PUSH2 0x990 JUMPI RETURNDATASIZE PUSH0 PUSH0 RETURNDATACOPY RETURNDATASIZE PUSH0 REVERT JUMPDEST POP POP POP POP PUSH1 0x40 MLOAD RETURNDATASIZE PUSH1 0x1F NOT PUSH1 0x1F DUP3 ADD AND DUP3 ADD DUP1 PUSH1 0x40 MSTORE POP DUP2 ADD SWAP1 PUSH2 0x9B4 SWAP2 SWAP1 PUSH2 0x43A4 JUMP JUMPDEST PUSH2 0x9D9 JUMPI PUSH1 0x40 MLOAD PUSH3 0x461BCD PUSH1 0xE5 SHL DUP2 MSTORE PUSH1 0x4 ADD PUSH2 0x9D0 SWAP1 PUSH2 0x43BF JUMP JUMPDEST PUSH1 0x40 MLOAD DUP1 SWAP2 SUB SWAP1 REVERT JUMPDEST PUSH1 0x1 SLOAD PUSH1 0x40 MLOAD PUSH4 0x2903ED9 PUSH1 0xE1 SHL DUP2 MSTORE PUSH1 0x4 DUP2 ADD DUP5 SWAP1 MSTORE DUP3 ISZERO ISZERO PUSH1 0x24 DUP3 ADD MSTORE PUSH1 0x1 PUSH1 0x1 PUSH1 0xA0 SHL SUB SWAP1 SWAP2 AND SWAP1 PUSH4 0x5207DB2 SWAP1 PUSH1 0x44 ADD JUMPDEST PUSH0 PUSH1 0x40 MLOAD DUP1 DUP4 SUB DUP2 PUSH0 DUP8 DUP1 EXTCODESIZE ISZERO DUP1 ISZERO PUSH2 0xA25 JUMPI PUSH0 PUSH0 REVERT JUMPDEST POP GAS CALL ISZERO DUP1 ISZERO PUSH2 0xA37 JUMPI RETURNDATASIZE PUSH0 PUSH0 RETURNDATACOPY RETURNDATASIZE PUSH0 REVERT JUMPDEST POP POP POP POP POP POP JUMP JUMPDEST PUSH1 0x6 SLOAD PUSH1 0x40 MLOAD PUSH4 0x18211503 PUSH1 0xE0 SHL DUP2 MSTORE PUSH1 0x1 PUSH1 0x1 PUSH1 0xA0 SHL SUB SWAP1 SWAP2 AND SWAP1 PUSH4 0x18211503 SWAP1 PUSH2 0xA75 SWAP1 DUP8 SWAP1 DUP8 SWAP1 DUP8 SWAP1 DUP8 SWAP1 PUSH1 0x4 ADD PUSH2 0x440A JUMP JUMPDEST PUSH0 PUSH1 0x40 MLOAD DUP1 DUP4 SUB DUP2 PUSH0 DUP8 DUP1 EXTCODESIZE ISZERO DUP1 ISZERO PUSH2 0xA8C JUMPI PUSH0 PUSH0 REVERT JUMPDEST POP GAS CALL ISZERO DUP1 ISZERO PUSH2 0xA9E JUMPI RETURNDATASIZE PUSH0 PUSH0 RETURNDATACOPY RETURNDATASIZE PUSH0 REVERT JUMPDEST POP POP POP POP POP POP POP POP JUMP JUMPDEST PUSH2 0xAF9 PUSH1 0x40 MLOAD DUP1 PUSH2 0x140 ADD PUSH1 0x40 MSTORE DUP1 PUSH0 DUP2 MSTORE PUSH1 0x20 ADD PUSH1 0x60 DUP2 MSTORE PUSH1 0x20 ADD PUSH1 0x60 DUP2 MSTORE PUSH1 0x20 ADD PUSH0 DUP2 MSTORE PUSH1 0x20 ADD PUSH1 0x60 DUP2 MSTORE PUSH1 0x20 ADD PUSH0 DUP2 MSTORE PUSH1 0x20 ADD PUSH0 DUP2 MSTORE PUSH1 0x20 ADD PUSH0 DUP2 MSTORE PUSH1 0x20 ADD PUSH0 DUP2 MSTORE PUSH1 0x20 ADD PUSH0 ISZERO ISZERO DUP2 MSTORE POP SWAP1 JUMP JUMPDEST PUSH1 0x1 SLOAD PUSH1 0x40 MLOAD PUSH4 0xF26F439 PUSH1 0xE1 SHL DUP2 MSTORE PUSH1 0x4 DUP2 ADD DUP5 SWAP1 MSTORE PUSH1 0x1 PUSH1 0x1 PUSH1 0xA0 SHL SUB SWAP1 SWAP2 AND SWAP1 PUSH4 0x1E4DE872 SWAP1 PUSH1 0x24 ADD PUSH0 PUSH1 0x40 MLOAD DUP1 DUP4 SUB DUP2 DUP7 GAS STATICCALL ISZERO DUP1 ISZERO PUSH2 0xB3F JUMPI RETURNDATASIZE PUSH0 PUSH0 RETURNDATACOPY RETURNDATASIZE PUSH0 REVERT JUMPDEST POP POP POP POP PUSH1 0x40 MLOAD RETURNDATASIZE PUSH0 DUP3 RETURNDATACOPY PUSH1 0x1F RETURNDATASIZE SWAP1 DUP2 ADD PUSH1 0x1F NOT AND DUP3 ADD PUSH1 0x40 MSTORE PUSH2 0xB66 SWAP2 SWAP1 DUP2 ADD SWAP1 PUSH2 0x459F JUMP JUMPDEST SWAP3 SWAP2 POP POP JUMP JUMPDEST PUSH0 DUP1 SLOAD PUSH1 0x40 MLOAD PUSH4 0x95A8C58D PUSH1 0xE0 SHL DUP2 MSTORE PUSH1 0x1 PUSH1 0x1 PUSH1 0xA0 SHL SUB SWAP1 SWAP2 AND SWAP2 PUSH4 0x95A8C58D SWAP2 PUSH2 0xB9C SWAP2 CALLER SWAP2 PUSH1 0x4 ADD PUSH2 0x4373 JUMP JUMPDEST PUSH1 0x20 PUSH1 0x40 MLOAD DUP1 DUP4 SUB DUP2 DUP7 GAS STATICCALL ISZERO DUP1 ISZERO PUSH2 0xBB7 JUMPI RETURNDATASIZE PUSH0 PUSH0 RETURNDATACOPY RETURNDATASIZE PUSH0 REVERT JUMPDEST POP POP POP POP PUSH1 0x40 MLOAD RETURNDATASIZE PUSH1 0x1F NOT PUSH1 0x1F DUP3 ADD AND DUP3 ADD DUP1 PUSH1 0x40 MSTORE POP DUP2 ADD SWAP1 PUSH2 0xBDB SWAP2 SWAP1 PUSH2 0x43A4 JUMP JUMPDEST PUSH2 0xBF7 JUMPI PUSH1 0x40 MLOAD PUSH3 0x461BCD PUSH1 0xE5 SHL DUP2 MSTORE PUSH1 0x4 ADD PUSH2 0x9D0 SWAP1 PUSH2 0x43BF JUMP JUMPDEST PUSH1 0x1 PUSH1 0x1 PUSH1 0xA0 SHL SUB DUP2 AND PUSH2 0xC1D JUMPI PUSH1 0x40 MLOAD PUSH3 0x461BCD PUSH1 0xE5 SHL DUP2 MSTORE PUSH1 0x4 ADD PUSH2 0x9D0 SWAP1 PUSH2 0x45D0 JUMP JUMPDEST PUSH1 0x2 DUP1 SLOAD PUSH1 0x1 PUSH1 0x1 PUSH1 0xA0 SHL SUB NOT AND PUSH1 0x1 PUSH1 0x1 PUSH1 0xA0 SHL SUB SWAP3 SWAP1 SWAP3 AND SWAP2 SWAP1 SWAP2 OR SWAP1 SSTORE JUMP JUMPDEST PUSH2 0xC47 PUSH2 0x2CAE JUMP JUMPDEST PUSH1 0x3 SLOAD PUSH1 0x40 MLOAD PUSH4 0x3844AC5B PUSH1 0xE0 SHL DUP2 MSTORE PUSH1 0x4 DUP2 ADD DUP5 SWAP1 MSTORE PUSH1 0x1 PUSH1 0x1 PUSH1 0xA0 SHL SUB SWAP1 SWAP2 AND SWAP1 PUSH4 0x3844AC5B SWAP1 PUSH1 0x24 ADD PUSH0 PUSH1 0x40 MLOAD DUP1 DUP4 SUB DUP2 DUP7 GAS STATICCALL ISZERO DUP1 ISZERO PUSH2 0xC8D JUMPI RETURNDATASIZE PUSH0 PUSH0 RETURNDATACOPY RETURNDATASIZE PUSH0 REVERT JUMPDEST POP POP POP POP PUSH1 0x40 MLOAD RETURNDATASIZE PUSH0 DUP3 RETURNDATACOPY PUSH1 0x1F RETURNDATASIZE SWAP1 DUP2 ADD PUSH1 0x1F NOT AND DUP3 ADD PUSH1 0x40 MSTORE PUSH2 0xB66 SWAP2 SWAP1 DUP2 ADD SWAP1 PUSH2 0x45F9 JUMP JUMPDEST PUSH0 DUP1 SLOAD PUSH1 0x40 MLOAD PUSH4 0x95A8C58D PUSH1 0xE0 SHL DUP2 MSTORE PUSH1 0x1 PUSH1 0x1 PUSH1 0xA0 SHL SUB SWAP1 SWAP2 AND SWAP2 PUSH4 0x95A8C58D SWAP2 PUSH2 0xCE4 SWAP2 CALLER SWAP2 PUSH1 0x4 ADD PUSH2 0x4373 JUMP JUMPDEST PUSH1 0x20 PUSH1 0x40 MLOAD DUP1 DUP4 SUB DUP2 DUP7 GAS STATICCALL ISZERO DUP1 ISZERO PUSH2 0xCFF JUMPI RETURNDATASIZE PUSH0 PUSH0 RETURNDATACOPY RETURNDATASIZE PUSH0 REVERT JUMPDEST POP POP POP POP PUSH1 0x40 MLOAD RETURNDATASIZE PUSH1 0x1F NOT PUSH1 0x1F DUP3 ADD AND DUP3 ADD DUP1 PUSH1 0x40 MSTORE POP DUP2 ADD SWAP1 PUSH2 0xD23 SWAP2 SWAP1 PUSH2 0x43A4 JUMP JUMPDEST PUSH2 0xD3F JUMPI PUSH1 0x40 MLOAD PUSH3 0x461BCD PUSH1 0xE5 SHL DUP2 MSTORE PUSH1 0x4 ADD PUSH2 0x9D0 SWAP1 PUSH2 0x43BF JUMP JUMPDEST PUSH1 0x1 PUSH1 0x1 PUSH1 0xA0 SHL SUB DUP3 AND PUSH2 0xD65 JUMPI PUSH1 0x40 MLOAD PUSH3 0x461BCD PUSH1 0xE5 SHL DUP2 MSTORE PUSH1 0x4 ADD PUSH2 0x9D0 SWAP1 PUSH2 0x45D0 JUMP JUMPDEST PUSH1 0x1 PUSH1 0x1 PUSH1 0xA0 SHL SUB DUP2 AND PUSH2 0xD8B JUMPI PUSH1 0x40 MLOAD PUSH3 0x461BCD PUSH1 0xE5 SHL DUP2 MSTORE PUSH1 0x4 ADD PUSH2 0x9D0 SWAP1 PUSH2 0x45D0 JUMP JUMPDEST PUSH1 0x4 DUP1 SLOAD PUSH1 0x1 PUSH1 0x1 PUSH1 0xA0 SHL SUB NOT AND PUSH1 0x1 PUSH1 0x1 PUSH1 0xA0 SHL SUB DUP5 DUP2 AND SWAP2 DUP3 OR DUP4 SSTORE PUSH1 0x40 MLOAD PUSH4 0xEA0F24E9 PUSH1 0xE0 SHL DUP2 MSTORE SWAP1 DUP5 AND SWAP3 DUP2 ADD SWAP3 SWAP1 SWAP3 MSTORE SWAP1 PUSH4 0xEA0F24E9 SWAP1 PUSH1 0x24 ADD PUSH2 0xA0E JUMP JUMPDEST PUSH0 DUP1 SLOAD PUSH1 0x40 MLOAD PUSH4 0x95A8C58D PUSH1 0xE0 SHL DUP2 MSTORE PUSH1 0x1 PUSH1 0x1 PUSH1 0xA0 SHL SUB SWAP1 SWAP2 AND SWAP2 PUSH4 0x95A8C58D SWAP2 PUSH2 0xDFF SWAP2 CALLER SWAP2 PUSH1 0x4 ADD PUSH2 0x4373 JUMP JUMPDEST PUSH1 0x20 PUSH1 0x40 MLOAD DUP1 DUP4 SUB DUP2 DUP7 GAS STATICCALL ISZERO DUP1 ISZERO PUSH2 0xE1A JUMPI RETURNDATASIZE PUSH0 PUSH0 RETURNDATACOPY RETURNDATASIZE PUSH0 REVERT JUMPDEST POP POP POP POP PUSH1 0x40 MLOAD RETURNDATASIZE PUSH1 0x1F NOT PUSH1 0x1F DUP3 ADD AND DUP3 ADD DUP1 PUSH1 0x40 MSTORE POP DUP2 ADD SWAP1 PUSH2 0xE3E SWAP2 SWAP1 PUSH2 0x43A4 JUMP JUMPDEST PUSH2 0xE5A JUMPI PUSH1 0x40 MLOAD PUSH3 0x461BCD PUSH1 0xE5 SHL DUP2 MSTORE PUSH1 0x4 ADD PUSH2 0x9D0 SWAP1 PUSH2 0x43BF JUMP JUMPDEST PUSH1 0x1 SLOAD PUSH1 0x40 MLOAD PUSH4 0x4D30A39B PUSH1 0xE0 SHL DUP2 MSTORE PUSH1 0x4 DUP2 ADD DUP5 SWAP1 MSTORE PUSH1 0x24 DUP2 ADD DUP4 SWAP1 MSTORE PUSH1 0x1 PUSH1 0x1 PUSH1 0xA0 SHL SUB SWAP1 SWAP2 AND SWAP1 PUSH4 0x4D30A39B SWAP1 PUSH1 0x44 ADD PUSH2 0xA0E JUMP JUMPDEST PUSH0 DUP1 SLOAD PUSH1 0x40 MLOAD PUSH4 0x95A8C58D PUSH1 0xE0 SHL DUP2 MSTORE PUSH1 0x1 PUSH1 0x1 PUSH1 0xA0 SHL SUB SWAP1 SWAP2 AND SWAP2 PUSH4 0x95A8C58D SWAP2 PUSH2 0xEC2 SWAP2 CALLER SWAP2 PUSH1 0x4 ADD PUSH2 0x4373 JUMP JUMPDEST PUSH1 0x20 PUSH1 0x40 MLOAD DUP1 DUP4 SUB DUP2 DUP7 GAS STATICCALL ISZERO DUP1 ISZERO PUSH2 0xEDD JUMPI RETURNDATASIZE PUSH0 PUSH0 RETURNDATACOPY RETURNDATASIZE PUSH0 REVERT JUMPDEST POP POP POP POP PUSH1 0x40 MLOAD RETURNDATASIZE PUSH1 0x1F NOT PUSH1 0x1F DUP3 ADD AND DUP3 ADD DUP1 PUSH1 0x40 MSTORE POP DUP2 ADD SWAP1 PUSH2 0xF01 SWAP2 SWAP1 PUSH2 0x43A4 JUMP JUMPDEST PUSH2 0xF1D JUMPI PUSH1 0x40 MLOAD PUSH3 0x461BCD PUSH1 0xE5 SHL DUP2 MSTORE PUSH1 0x4 ADD PUSH2 0x9D0 SWAP1 PUSH2 0x43BF JUMP JUMPDEST PUSH1 0x1 PUSH1 0x1 PUSH1 0xA0 SHL SUB DUP3 AND PUSH2 0xF73 JUMPI PUSH1 0x40 MLOAD PUSH3 0x461BCD PUSH1 0xE5 SHL DUP2 MSTORE PUSH1 0x20 PUSH1 0x4 DUP3 ADD MSTORE PUSH1 0x19 PUSH1 0x24 DUP3 ADD MSTORE PUSH32 0x466F6F64526174696E674D616E61676572206E6F742073657400000000000000 PUSH1 0x44 DUP3 ADD MSTORE PUSH1 0x64 ADD PUSH2 0x9D0 JUMP JUMPDEST PUSH1 0x1 PUSH1 0x1 PUSH1 0xA0 SHL SUB DUP3 AND PUSH2 0xF99 JUMPI PUSH1 0x40 MLOAD PUSH3 0x461BCD PUSH1 0xE5 SHL DUP2 MSTORE PUSH1 0x4 ADD PUSH2 0x9D0 SWAP1 PUSH2 0x45D0 JUMP JUMPDEST PUSH1 0x7 DUP1 SLOAD PUSH1 0x1 PUSH1 0x1 PUSH1 0xA0 SHL SUB NOT AND PUSH1 0x1 PUSH1 0x1 PUSH1 0xA0 SHL SUB DUP5 DUP2 AND SWAP2 DUP3 OR SWAP1 SWAP3 SSTORE PUSH1 0x40 MLOAD PUSH4 0x5D689B2F PUSH1 0xE1 SHL DUP2 MSTORE SWAP2 DUP4 AND PUSH1 0x4 DUP4 ADD MSTORE SWAP1 PUSH4 0xBAD1365E SWAP1 PUSH1 0x24 ADD PUSH2 0xA0E JUMP JUMPDEST PUSH0 DUP1 SLOAD PUSH1 0x40 MLOAD PUSH4 0x95A8C58D PUSH1 0xE0 SHL DUP2 MSTORE PUSH1 0x1 PUSH1 0x1 PUSH1 0xA0 SHL SUB SWAP1 SWAP2 AND SWAP2 PUSH4 0x95A8C58D SWAP2 PUSH2 0x100C SWAP2 CALLER SWAP2 PUSH1 0x4 ADD PUSH2 0x4373 JUMP JUMPDEST PUSH1 0x20 PUSH1 0x40 MLOAD DUP1 DUP4 SUB DUP2 DUP7 GAS STATICCALL ISZERO DUP1 ISZERO PUSH2 0x1027 JUMPI RETURNDATASIZE PUSH0 PUSH0 RETURNDATACOPY RETURNDATASIZE PUSH0 REVERT JUMPDEST POP POP POP POP PUSH1 0x40 MLOAD RETURNDATASIZE PUSH1 0x1F NOT PUSH1 0x1F DUP3 ADD AND DUP3 ADD DUP1 PUSH1 0x40 MSTORE POP DUP2 ADD SWAP1 PUSH2 0x104B SWAP2 SWAP1 PUSH2 0x43A4 JUMP JUMPDEST PUSH2 0x1067 JUMPI PUSH1 0x40 MLOAD PUSH3 0x461BCD PUSH1 0xE5 SHL DUP2 MSTORE PUSH1 0x4 ADD PUSH2 0x9D0 SWAP1 PUSH2 0x43BF JUMP JUMPDEST PUSH1 0x5 SLOAD PUSH1 0x40 MLOAD PUSH4 0x5BE5FD39 PUSH1 0xE0 SHL DUP2 MSTORE PUSH1 0x1 PUSH1 0x1 PUSH1 0xA0 SHL SUB SWAP1 SWAP2 AND SWAP1 PUSH4 0x5BE5FD39 SWAP1 PUSH2 0x10A3 SWAP1 DUP11 SWAP1 DUP11 SWAP1 DUP11 SWAP1 DUP11 SWAP1 DUP11 SWAP1 DUP11 SWAP1 DUP11 SWAP1 PUSH1 0x4 ADD PUSH2 0x4698 JUMP JUMPDEST PUSH0 PUSH1 0x40 MLOAD DUP1 DUP4 SUB DUP2 PUSH0 DUP8 DUP1 EXTCODESIZE ISZERO DUP1 ISZERO PUSH2 0x10BA JUMPI PUSH0 PUSH0 REVERT JUMPDEST POP GAS CALL ISZERO DUP1 ISZERO PUSH2 0x10CC JUMPI RETURNDATASIZE PUSH0 PUSH0 RETURNDATACOPY RETURNDATASIZE PUSH0 REVERT JUMPDEST POP POP POP POP POP POP POP POP POP POP POP JUMP JUMPDEST PUSH0 DUP1 SLOAD PUSH1 0x40 MLOAD PUSH4 0x95A8C58D PUSH1 0xE0 SHL DUP2 MSTORE PUSH1 0x1 PUSH1 0x1 PUSH1 0xA0 SHL SUB SWAP1 SWAP2 AND SWAP2 PUSH4 0x95A8C58D SWAP2 PUSH2 0x1109 SWAP2 CALLER SWAP2 PUSH1 0x4 ADD PUSH2 0x4373 JUMP JUMPDEST PUSH1 0x20 PUSH1 0x40 MLOAD DUP1 DUP4 SUB DUP2 DUP7 GAS STATICCALL ISZERO DUP1 ISZERO PUSH2 0x1124 JUMPI RETURNDATASIZE PUSH0 PUSH0 RETURNDATACOPY RETURNDATASIZE PUSH0 REVERT JUMPDEST POP POP POP POP PUSH1 0x40 MLOAD RETURNDATASIZE PUSH1 0x1F NOT PUSH1 0x1F DUP3 ADD AND DUP3 ADD DUP1 PUSH1 0x40 MSTORE POP DUP2 ADD SWAP1 PUSH2 0x1148 SWAP2 SWAP1 PUSH2 0x43A4 JUMP JUMPDEST PUSH2 0x1164 JUMPI PUSH1 0x40 MLOAD PUSH3 0x461BCD PUSH1 0xE5 SHL DUP2 MSTORE PUSH1 0x4 ADD PUSH2 0x9D0 SWAP1 PUSH2 0x43BF JUMP JUMPDEST PUSH1 0x3 SLOAD PUSH1 0x40 MLOAD PUSH4 0x5CFD6607 PUSH1 0xE0 SHL DUP2 MSTORE PUSH1 0x4 DUP2 ADD DUP6 SWAP1 MSTORE PUSH1 0x24 DUP2 ADD DUP5 SWAP1 MSTORE PUSH1 0x44 DUP2 ADD DUP4 SWAP1 MSTORE PUSH1 0x1 PUSH1 0x1 PUSH1 0xA0 SHL SUB SWAP1 SWAP2 AND SWAP1 PUSH4 0x5CFD6607 SWAP1 PUSH1 0x64 ADD JUMPDEST PUSH0 PUSH1 0x40 MLOAD DUP1 DUP4 SUB DUP2 PUSH0 DUP8 DUP1 EXTCODESIZE ISZERO DUP1 ISZERO PUSH2 0x11B6 JUMPI PUSH0 PUSH0 REVERT JUMPDEST POP GAS CALL ISZERO DUP1 ISZERO PUSH2 0x11C8 JUMPI RETURNDATASIZE PUSH0 PUSH0 RETURNDATACOPY RETURNDATASIZE PUSH0 REVERT JUMPDEST POP POP POP POP POP POP POP JUMP JUMPDEST PUSH1 0x1 SLOAD PUSH1 0x40 MLOAD PUSH4 0xC39CFEF PUSH1 0xE3 SHL DUP2 MSTORE PUSH1 0x4 DUP2 ADD DUP6 SWAP1 MSTORE PUSH1 0x24 DUP2 ADD DUP5 SWAP1 MSTORE DUP3 ISZERO ISZERO PUSH1 0x44 DUP3 ADD MSTORE PUSH1 0x1 PUSH1 0x1 PUSH1 0xA0 SHL SUB SWAP1 SWAP2 AND SWAP1 PUSH4 0x61CE7F78 SWAP1 PUSH1 0x64 ADD PUSH2 0x119F JUMP JUMPDEST PUSH1 0x4 DUP1 SLOAD PUSH1 0x40 MLOAD PUSH4 0xC78D3E1 PUSH1 0xE3 SHL DUP2 MSTORE PUSH1 0x1 PUSH1 0x1 PUSH1 0xA0 SHL SUB DUP5 DUP2 AND SWAP4 DUP3 ADD SWAP4 SWAP1 SWAP4 MSTORE PUSH1 0x60 SWAP3 SWAP1 SWAP2 AND SWAP1 PUSH4 0x63C69F08 SWAP1 PUSH1 0x24 ADD PUSH0 PUSH1 0x40 MLOAD DUP1 DUP4 SUB DUP2 DUP7 GAS STATICCALL ISZERO DUP1 ISZERO PUSH2 0x125E JUMPI RETURNDATASIZE PUSH0 PUSH0 RETURNDATACOPY RETURNDATASIZE PUSH0 REVERT JUMPDEST POP POP POP POP PUSH1 0x40 MLOAD RETURNDATASIZE PUSH0 DUP3 RETURNDATACOPY PUSH1 0x1F RETURNDATASIZE SWAP1 DUP2 ADD PUSH1 0x1F NOT AND DUP3 ADD PUSH1 0x40 MSTORE PUSH2 0xB66 SWAP2 SWAP1 DUP2 ADD SWAP1 PUSH2 0x46F2 JUMP JUMPDEST PUSH0 DUP1 SLOAD PUSH1 0x40 MLOAD PUSH4 0x95A8C58D PUSH1 0xE0 SHL DUP2 MSTORE PUSH1 0x1 PUSH1 0x1 PUSH1 0xA0 SHL SUB SWAP1 SWAP2 AND SWAP2 PUSH4 0x95A8C58D SWAP2 PUSH2 0x12B5 SWAP2 CALLER SWAP2 PUSH1 0x4 ADD PUSH2 0x4373 JUMP JUMPDEST PUSH1 0x20 PUSH1 0x40 MLOAD DUP1 DUP4 SUB DUP2 DUP7 GAS STATICCALL ISZERO DUP1 ISZERO PUSH2 0x12D0 JUMPI RETURNDATASIZE PUSH0 PUSH0 RETURNDATACOPY RETURNDATASIZE PUSH0 REVERT JUMPDEST POP POP POP POP PUSH1 0x40 MLOAD RETURNDATASIZE PUSH1 0x1F NOT PUSH1 0x1F DUP3 ADD AND DUP3 ADD DUP1 PUSH1 0x40 MSTORE POP DUP2 ADD SWAP1 PUSH2 0x12F4 SWAP2 SWAP1 PUSH2 0x43A4 JUMP JUMPDEST PUSH2 0x1310 JUMPI PUSH1 0x40 MLOAD PUSH3 0x461BCD PUSH1 0xE5 SHL DUP2 MSTORE PUSH1 0x4 ADD PUSH2 0x9D0 SWAP1 PUSH2 0x43BF JUMP JUMPDEST PUSH1 0x1 SLOAD PUSH1 0x40 MLOAD PUSH4 0x64F77471 PUSH1 0xE0 SHL DUP2 MSTORE PUSH1 0x1 PUSH1 0x1 PUSH1 0xA0 SHL SUB SWAP1 SWAP2 AND SWAP1 PUSH4 0x64F77471 SWAP1 PUSH2 0xA0E SWAP1 DUP6 SWAP1 DUP6 SWAP1 PUSH1 0x4 ADD PUSH2 0x4804 JUMP JUMPDEST PUSH0 SLOAD PUSH1 0x40 MLOAD PUSH4 0x2E3036C7 PUSH1 0xE0 SHL DUP2 MSTORE PUSH1 0x1 PUSH1 0x1 PUSH1 0xA0 SHL SUB DUP4 DUP2 AND PUSH1 0x4 DUP4 ADD MSTORE PUSH1 0x1 PUSH1 0x24 DUP4 ADD MSTORE SWAP1 SWAP2 AND SWAP1 PUSH4 0x2E3036C7 SWAP1 PUSH1 0x44 ADD JUMPDEST PUSH0 PUSH1 0x40 MLOAD DUP1 DUP4 SUB DUP2 PUSH0 DUP8 DUP1 EXTCODESIZE ISZERO DUP1 ISZERO PUSH2 0x138D JUMPI PUSH0 PUSH0 REVERT JUMPDEST POP GAS CALL ISZERO DUP1 ISZERO PUSH2 0x139F JUMPI RETURNDATASIZE PUSH0 PUSH0 RETURNDATACOPY RETURNDATASIZE PUSH0 REVERT JUMPDEST POP POP POP POP POP JUMP JUMPDEST PUSH0 DUP1 SLOAD PUSH1 0x40 MLOAD PUSH4 0x95A8C58D PUSH1 0xE0 SHL DUP2 MSTORE PUSH1 0x1 PUSH1 0x1 PUSH1 0xA0 SHL SUB SWAP1 SWAP2 AND SWAP2 PUSH4 0x95A8C58D SWAP2 PUSH2 0x13D6 SWAP2 CALLER SWAP2 PUSH1 0x4 ADD PUSH2 0x4373 JUMP JUMPDEST PUSH1 0x20 PUSH1 0x40 MLOAD DUP1 DUP4 SUB DUP2 DUP7 GAS STATICCALL ISZERO DUP1 ISZERO PUSH2 0x13F1 JUMPI RETURNDATASIZE PUSH0 PUSH0 RETURNDATACOPY RETURNDATASIZE PUSH0 REVERT JUMPDEST POP POP POP POP PUSH1 0x40 MLOAD RETURNDATASIZE PUSH1 0x1F NOT PUSH1 0x1F DUP3 ADD AND DUP3 ADD DUP1 PUSH1 0x40 MSTORE POP DUP2 ADD SWAP1 PUSH2 0x1415 SWAP2 SWAP1 PUSH2 0x43A4 JUMP JUMPDEST PUSH2 0x1431 JUMPI PUSH1 0x40 MLOAD PUSH3 0x461BCD PUSH1 0xE5 SHL DUP2 MSTORE PUSH1 0x4 ADD PUSH2 0x9D0 SWAP1 PUSH2 0x43BF JUMP JUMPDEST PUSH1 0x1 SLOAD PUSH1 0x40 MLOAD PUSH4 0xDBA5BB1 PUSH1 0xE3 SHL DUP2 MSTORE PUSH1 0x1 PUSH1 0x1 PUSH1 0xA0 SHL SUB SWAP1 SWAP2 AND SWAP1 PUSH4 0x6DD2DD88 SWAP1 PUSH2 0x1469 SWAP1 DUP9 SWAP1 DUP9 SWAP1 DUP9 SWAP1 DUP9 SWAP1 DUP9 SWAP1 PUSH1 0x4 ADD PUSH2 0x481C JUMP JUMPDEST PUSH0 PUSH1 0x40 MLOAD DUP1 DUP4 SUB DUP2 PUSH0 DUP8 DUP1 EXTCODESIZE ISZERO DUP1 ISZERO PUSH2 0x1480 JUMPI PUSH0 PUSH0 REVERT JUMPDEST POP GAS CALL ISZERO DUP1 ISZERO PUSH2 0x1492 JUMPI RETURNDATASIZE PUSH0 PUSH0 RETURNDATACOPY RETURNDATASIZE PUSH0 REVERT JUMPDEST POP POP POP POP POP POP POP POP POP JUMP JUMPDEST PUSH1 0x7 SLOAD PUSH1 0x40 MLOAD PUSH4 0x75BD5601 PUSH1 0xE0 SHL DUP2 MSTORE PUSH1 0x1 PUSH1 0x1 PUSH1 0xA0 SHL SUB SWAP1 SWAP2 AND SWAP1 PUSH4 0x75BD5601 SWAP1 PUSH2 0x14D7 SWAP1 DUP10 SWAP1 DUP10 SWAP1 DUP10 SWAP1 DUP10 SWAP1 DUP10 SWAP1 DUP10 SWAP1 PUSH1 0x4 ADD PUSH2 0x486C JUMP JUMPDEST PUSH1 0x20 PUSH1 0x40 MLOAD DUP1 DUP4 SUB DUP2 PUSH0 DUP8 GAS CALL ISZERO DUP1 ISZERO PUSH2 0x14F3 JUMPI RETURNDATASIZE PUSH0 PUSH0 RETURNDATACOPY RETURNDATASIZE PUSH0 REVERT JUMPDEST POP POP POP POP PUSH1 0x40 MLOAD RETURNDATASIZE PUSH1 0x1F NOT PUSH1 0x1F DUP3 ADD AND DUP3 ADD DUP1 PUSH1 0x40 MSTORE POP DUP2 ADD SWAP1 PUSH2 0x11C8 SWAP2 SWAP1 PUSH2 0x48B4 JUMP JUMPDEST PUSH0 SLOAD PUSH1 0x40 MLOAD PUSH4 0x2E3036C7 PUSH1 0xE0 SHL DUP2 MSTORE PUSH1 0x1 PUSH1 0x1 PUSH1 0xA0 SHL SUB DUP4 DUP2 AND PUSH1 0x4 DUP4 ADD MSTORE PUSH1 0x2 PUSH1 0x24 DUP4 ADD MSTORE SWAP1 SWAP2 AND SWAP1 PUSH4 0x2E3036C7 SWAP1 PUSH1 0x44 ADD PUSH2 0x1376 JUMP JUMPDEST PUSH0 DUP1 SLOAD PUSH1 0x40 MLOAD PUSH4 0x95A8C58D PUSH1 0xE0 SHL DUP2 MSTORE PUSH1 0x1 PUSH1 0x1 PUSH1 0xA0 SHL SUB SWAP1 SWAP2 AND SWAP2 PUSH4 0x95A8C58D SWAP2 PUSH2 0x157F SWAP2 CALLER SWAP2 PUSH1 0x4 ADD PUSH2 0x4373 JUMP JUMPDEST PUSH1 0x20 PUSH1 0x40 MLOAD DUP1 DUP4 SUB DUP2 DUP7 GAS STATICCALL ISZERO DUP1 ISZERO PUSH2 0x159A JUMPI RETURNDATASIZE PUSH0 PUSH0 RETURNDATACOPY RETURNDATASIZE PUSH0 REVERT JUMPDEST POP POP POP POP PUSH1 0x40 MLOAD RETURNDATASIZE PUSH1 0x1F NOT PUSH1 0x1F DUP3 ADD AND DUP3 ADD DUP1 PUSH1 0x40 MSTORE POP DUP2 ADD SWAP1 PUSH2 0x15BE SWAP2 SWAP1 PUSH2 0x43A4 JUMP JUMPDEST PUSH2 0x15DA JUMPI PUSH1 0x40 MLOAD PUSH3 0x461BCD PUSH1 0xE5 SHL DUP2 MSTORE PUSH1 0x4 ADD PUSH2 0x9D0 SWAP1 PUSH2 0x43BF JUMP JUMPDEST PUSH1 0x2 SLOAD PUSH1 0x1 PUSH1 0x1 PUSH1 0xA0 SHL SUB AND PUSH2 0x1602 JUMPI PUSH1 0x40 MLOAD PUSH3 0x461BCD PUSH1 0xE5 SHL DUP2 MSTORE PUSH1 0x4 ADD PUSH2 0x9D0 SWAP1 PUSH2 0x48CB JUMP JUMPDEST PUSH1 0x2 SLOAD PUSH1 0x40 MLOAD PUSH4 0x78697E5B PUSH1 0xE0 SHL DUP2 MSTORE PUSH1 0x1 PUSH1 0x1 PUSH1 0xA0 SHL SUB SWAP1 SWAP2 AND SWAP1 PUSH4 0x78697E5B SWAP1 PUSH2 0xA0E SWAP1 DUP6 SWAP1 DUP6 SWAP1 PUSH1 0x4 ADD PUSH2 0x4902 JUMP JUMPDEST PUSH0 PUSH0 PUSH0 SWAP1 SLOAD SWAP1 PUSH2 0x100 EXP SWAP1 DIV PUSH1 0x1 PUSH1 0x1 PUSH1 0xA0 SHL SUB AND PUSH1 0x1 PUSH1 0x1 PUSH1 0xA0 SHL SUB AND PUSH4 0x893D20E8 PUSH1 0x40 MLOAD DUP2 PUSH4 0xFFFFFFFF AND PUSH1 0xE0 SHL DUP2 MSTORE PUSH1 0x4 ADD PUSH1 0x20 PUSH1 0x40 MLOAD DUP1 DUP4 SUB DUP2 DUP7 GAS STATICCALL ISZERO DUP1 ISZERO PUSH2 0x1684 JUMPI RETURNDATASIZE PUSH0 PUSH0 RETURNDATACOPY RETURNDATASIZE PUSH0 REVERT JUMPDEST POP POP POP POP PUSH1 0x40 MLOAD RETURNDATASIZE PUSH1 0x1F NOT PUSH1 0x1F DUP3 ADD AND DUP3 ADD DUP1 PUSH1 0x40 MSTORE POP DUP2 ADD SWAP1 PUSH2 0x940 SWAP2 SWAP1 PUSH2 0x491A JUMP JUMPDEST PUSH0 DUP1 SLOAD PUSH1 0x40 MLOAD PUSH4 0x95A8C58D PUSH1 0xE0 SHL DUP2 MSTORE PUSH1 0x1 PUSH1 0x1 PUSH1 0xA0 SHL SUB SWAP1 SWAP2 AND SWAP2 PUSH4 0x95A8C58D SWAP2 PUSH2 0x16D8 SWAP2 CALLER SWAP2 PUSH1 0x4 ADD PUSH2 0x4373 JUMP JUMPDEST PUSH1 0x20 PUSH1 0x40 MLOAD DUP1 DUP4 SUB DUP2 DUP7 GAS STATICCALL ISZERO DUP1 ISZERO PUSH2 0x16F3 JUMPI RETURNDATASIZE PUSH0 PUSH0 RETURNDATACOPY RETURNDATASIZE PUSH0 REVERT JUMPDEST POP POP POP POP PUSH1 0x40 MLOAD RETURNDATASIZE PUSH1 0x1F NOT PUSH1 0x1F DUP3 ADD AND DUP3 ADD DUP1 PUSH1 0x40 MSTORE POP DUP2 ADD SWAP1 PUSH2 0x1717 SWAP2 SWAP1 PUSH2 0x43A4 JUMP JUMPDEST DUP1 PUSH2 0x178E JUMPI POP PUSH0 SLOAD PUSH1 0x40 MLOAD PUSH4 0x95A8C58D PUSH1 0xE0 SHL DUP2 MSTORE PUSH1 0x1 PUSH1 0x1 PUSH1 0xA0 SHL SUB SWAP1 SWAP2 AND SWAP1 PUSH4 0x95A8C58D SWAP1 PUSH2 0x174F SWAP1 CALLER SWAP1 PUSH1 0x1 SWAP1 PUSH1 0x4 ADD PUSH2 0x4373 JUMP JUMPDEST PUSH1 0x20 PUSH1 0x40 MLOAD DUP1 DUP4 SUB DUP2 DUP7 GAS STATICCALL ISZERO DUP1 ISZERO PUSH2 0x176A JUMPI RETURNDATASIZE PUSH0 PUSH0 RETURNDATACOPY RETURNDATASIZE PUSH0 REVERT JUMPDEST POP POP POP POP PUSH1 0x40 MLOAD RETURNDATASIZE PUSH1 0x1F NOT PUSH1 0x1F DUP3 ADD AND DUP3 ADD DUP1 PUSH1 0x40 MSTORE POP DUP2 ADD SWAP1 PUSH2 0x178E SWAP2 SWAP1 PUSH2 0x43A4 JUMP JUMPDEST PUSH2 0x17AA JUMPI PUSH1 0x40 MLOAD PUSH3 0x461BCD PUSH1 0xE5 SHL DUP2 MSTORE PUSH1 0x4 ADD PUSH2 0x9D0 SWAP1 PUSH2 0x4935 JUMP JUMPDEST PUSH1 0x4 DUP1 SLOAD PUSH1 0x40 MLOAD PUSH4 0x8A46E8EB PUSH1 0xE0 SHL DUP2 MSTORE PUSH1 0x1 PUSH1 0x1 PUSH1 0xA0 SHL SUB SWAP1 SWAP2 AND SWAP2 PUSH4 0x8A46E8EB SWAP2 PUSH2 0x119F SWAP2 DUP8 SWAP2 DUP8 SWAP2 DUP8 SWAP2 ADD PUSH2 0x4961 JUMP JUMPDEST PUSH2 0x17E5 PUSH2 0x2CE9 JUMP JUMPDEST PUSH1 0x4 DUP1 SLOAD PUSH1 0x40 MLOAD PUSH4 0x8C9DA843 PUSH1 0xE0 SHL DUP2 MSTORE PUSH1 0x1 PUSH1 0x1 PUSH1 0xA0 SHL SUB SWAP1 SWAP2 AND SWAP2 PUSH4 0x8C9DA843 SWAP2 PUSH2 0x181E SWAP2 DUP12 SWAP2 DUP12 SWAP2 DUP12 SWAP2 DUP12 SWAP2 DUP12 SWAP2 DUP12 SWAP2 ADD PUSH2 0x497C JUMP JUMPDEST PUSH0 PUSH1 0x40 MLOAD DUP1 DUP4 SUB DUP2 PUSH0 DUP8 GAS CALL ISZERO DUP1 ISZERO PUSH2 0x1839 JUMPI RETURNDATASIZE PUSH0 PUSH0 RETURNDATACOPY RETURNDATASIZE PUSH0 REVERT JUMPDEST POP POP POP POP PUSH1 0x40 MLOAD RETURNDATASIZE PUSH0 DUP3 RETURNDATACOPY PUSH1 0x1F RETURNDATASIZE SWAP1 DUP2 ADD PUSH1 0x1F NOT AND DUP3 ADD PUSH1 0x40 MSTORE PUSH2 0x1860 SWAP2 SWAP1 DUP2 ADD SWAP1 PUSH2 0x4C35 JUMP JUMPDEST SWAP8 SWAP7 POP POP POP POP POP POP POP JUMP JUMPDEST PUSH0 DUP1 SLOAD PUSH1 0x40 MLOAD PUSH4 0x95A8C58D PUSH1 0xE0 SHL DUP2 MSTORE PUSH1 0x60 SWAP3 PUSH1 0x1 PUSH1 0x1 PUSH1 0xA0 SHL SUB SWAP1 SWAP3 AND SWAP2 PUSH4 0x95A8C58D SWAP2 PUSH2 0x189E SWAP2 CALLER SWAP2 PUSH1 0x4 ADD PUSH2 0x4373 JUMP JUMPDEST PUSH1 0x20 PUSH1 0x40 MLOAD DUP1 DUP4 SUB DUP2 DUP7 GAS STATICCALL ISZERO DUP1 ISZERO PUSH2 0x18B9 JUMPI RETURNDATASIZE PUSH0 PUSH0 RETURNDATACOPY RETURNDATASIZE PUSH0 REVERT JUMPDEST POP POP POP POP PUSH1 0x40 MLOAD RETURNDATASIZE PUSH1 0x1F NOT PUSH1 0x1F DUP3 ADD AND DUP3 ADD DUP1 PUSH1 0x40 MSTORE POP DUP2 ADD SWAP1 PUSH2 0x18DD SWAP2 SWAP1 PUSH2 0x43A4 JUMP JUMPDEST DUP1 PUSH2 0x1954 JUMPI POP PUSH0 SLOAD PUSH1 0x40 MLOAD PUSH4 0x95A8C58D PUSH1 0xE0 SHL DUP2 MSTORE PUSH1 0x1 PUSH1 0x1 PUSH1 0xA0 SHL SUB SWAP1 SWAP2 AND SWAP1 PUSH4 0x95A8C58D SWAP1 PUSH2 0x1915 SWAP1 CALLER SWAP1 PUSH1 0x1 SWAP1 PUSH1 0x4 ADD PUSH2 0x4373 JUMP JUMPDEST PUSH1 0x20 PUSH1 0x40 MLOAD DUP1 DUP4 SUB DUP2 DUP7 GAS STATICCALL ISZERO DUP1 ISZERO PUSH2 0x1930 JUMPI RETURNDATASIZE PUSH0 PUSH0 RETURNDATACOPY RETURNDATASIZE PUSH0 REVERT JUMPDEST POP POP POP POP PUSH1 0x40 MLOAD RETURNDATASIZE PUSH1 0x1F NOT PUSH1 0x1F DUP3 ADD AND DUP3 ADD DUP1 PUSH1 0x40 MSTORE POP DUP2 ADD SWAP1 PUSH2 0x1954 SWAP2 SWAP1 PUSH2 0x43A4 JUMP JUMPDEST PUSH2 0x1970 JUMPI PUSH1 0x40 MLOAD PUSH3 0x461BCD PUSH1 0xE5 SHL DUP2 MSTORE PUSH1 0x4 ADD PUSH2 0x9D0 SWAP1 PUSH2 0x4935 JUMP JUMPDEST PUSH1 0x4 DUP1 SLOAD PUSH1 0x40 MLOAD PUSH4 0x8CE2EC79 PUSH1 0xE0 SHL DUP2 MSTORE PUSH1 0x1 PUSH1 0x1 PUSH1 0xA0 SHL SUB SWAP1 SWAP2 AND SWAP2 PUSH4 0x8CE2EC79 SWAP2 PUSH2 0x199F SWAP2 DUP7 SWAP2 ADD PUSH2 0x4C66 JUMP JUMPDEST PUSH0 PUSH1 0x40 MLOAD DUP1 DUP4 SUB DUP2 DUP7 GAS STATICCALL ISZERO DUP1 ISZERO PUSH2 0x19B9 JUMPI RETURNDATASIZE PUSH0 PUSH0 RETURNDATACOPY RETURNDATASIZE PUSH0 REVERT JUMPDEST POP POP POP POP PUSH1 0x40 MLOAD RETURNDATASIZE PUSH0 DUP3 RETURNDATACOPY PUSH1 0x1F RETURNDATASIZE SWAP1 DUP2 ADD PUSH1 0x1F NOT AND DUP3 ADD PUSH1 0x40 MSTORE PUSH2 0xB66 SWAP2 SWAP1 DUP2 ADD SWAP1 PUSH2 0x4C74 JUMP JUMPDEST SWAP2 SWAP1 POP JUMP JUMPDEST PUSH0 DUP1 SLOAD PUSH1 0x40 MLOAD PUSH4 0x95A8C58D PUSH1 0xE0 SHL DUP2 MSTORE PUSH1 0x1 PUSH1 0x1 PUSH1 0xA0 SHL SUB SWAP1 SWAP2 AND SWAP2 PUSH4 0x95A8C58D SWAP2 PUSH2 0x1A15 SWAP2 CALLER SWAP2 PUSH1 0x4 ADD PUSH2 0x4373 JUMP JUMPDEST PUSH1 0x20 PUSH1 0x40 MLOAD DUP1 DUP4 SUB DUP2 DUP7 GAS STATICCALL ISZERO DUP1 ISZERO PUSH2 0x1A30 JUMPI RETURNDATASIZE PUSH0 PUSH0 RETURNDATACOPY RETURNDATASIZE PUSH0 REVERT JUMPDEST POP POP POP POP PUSH1 0x40 MLOAD RETURNDATASIZE PUSH1 0x1F NOT PUSH1 0x1F DUP3 ADD AND DUP3 ADD DUP1 PUSH1 0x40 MSTORE POP DUP2 ADD SWAP1 PUSH2 0x1A54 SWAP2 SWAP1 PUSH2 0x43A4 JUMP JUMPDEST PUSH2 0x1A70 JUMPI PUSH1 0x40 MLOAD PUSH3 0x461BCD PUSH1 0xE5 SHL DUP2 MSTORE PUSH1 0x4 ADD PUSH2 0x9D0 SWAP1 PUSH2 0x43BF JUMP JUMPDEST PUSH1 0x3 SLOAD PUSH1 0x40 MLOAD PUSH4 0x257AF2C9 PUSH1 0xE2 SHL DUP2 MSTORE PUSH1 0x4 DUP2 ADD DUP5 SWAP1 MSTORE PUSH1 0x24 DUP2 ADD DUP4 SWAP1 MSTORE PUSH1 0x1 PUSH1 0x1 PUSH1 0xA0 SHL SUB SWAP1 SWAP2 AND SWAP1 PUSH4 0x95EBCB24 SWAP1 PUSH1 0x44 ADD PUSH2 0xA0E JUMP JUMPDEST PUSH1 0x7 SLOAD PUSH1 0x40 MLOAD PUSH4 0x4BE95C95 PUSH1 0xE1 SHL DUP2 MSTORE PUSH1 0x4 DUP2 ADD DUP4 SWAP1 MSTORE PUSH1 0x1 PUSH1 0x1 PUSH1 0xA0 SHL SUB SWAP1 SWAP2 AND SWAP1 PUSH4 0x97D2B92A SWAP1 PUSH1 0x24 ADD PUSH2 0x1376 JUMP JUMPDEST PUSH0 DUP1 SLOAD PUSH1 0x40 MLOAD PUSH4 0x95A8C58D PUSH1 0xE0 SHL DUP2 MSTORE PUSH1 0x1 PUSH1 0x1 PUSH1 0xA0 SHL SUB SWAP1 SWAP2 AND SWAP2 PUSH4 0x95A8C58D SWAP2 PUSH2 0x1B09 SWAP2 CALLER SWAP2 PUSH1 0x4 ADD PUSH2 0x4373 JUMP JUMPDEST PUSH1 0x20 PUSH1 0x40 MLOAD DUP1 DUP4 SUB DUP2 DUP7 GAS STATICCALL ISZERO DUP1 ISZERO PUSH2 0x1B24 JUMPI RETURNDATASIZE PUSH0 PUSH0 RETURNDATACOPY RETURNDATASIZE PUSH0 REVERT JUMPDEST POP POP POP POP PUSH1 0x40 MLOAD RETURNDATASIZE PUSH1 0x1F NOT PUSH1 0x1F DUP3 ADD AND DUP3 ADD DUP1 PUSH1 0x40 MSTORE POP DUP2 ADD SWAP1 PUSH2 0x1B48 SWAP2 SWAP1 PUSH2 0x43A4 JUMP JUMPDEST PUSH2 0x1B64 JUMPI PUSH1 0x40 MLOAD PUSH3 0x461BCD PUSH1 0xE5 SHL DUP2 MSTORE PUSH1 0x4 ADD PUSH2 0x9D0 SWAP1 PUSH2 0x43BF JUMP JUMPDEST PUSH1 0x1 PUSH1 0x1 PUSH1 0xA0 SHL SUB DUP3 AND PUSH2 0x1B8A JUMPI PUSH1 0x40 MLOAD PUSH3 0x461BCD PUSH1 0xE5 SHL DUP2 MSTORE PUSH1 0x4 ADD PUSH2 0x9D0 SWAP1 PUSH2 0x45D0 JUMP JUMPDEST PUSH1 0x1 PUSH1 0x1 PUSH1 0xA0 SHL SUB DUP2 AND PUSH2 0x1BB0 JUMPI PUSH1 0x40 MLOAD PUSH3 0x461BCD PUSH1 0xE5 SHL DUP2 MSTORE PUSH1 0x4 ADD PUSH2 0x9D0 SWAP1 PUSH2 0x45D0 JUMP JUMPDEST PUSH1 0x3 DUP1 SLOAD PUSH1 0x1 PUSH1 0x1 PUSH1 0xA0 SHL SUB NOT AND PUSH1 0x1 PUSH1 0x1 PUSH1 0xA0 SHL SUB DUP5 DUP2 AND SWAP2 DUP3 OR SWAP1 SWAP3 SSTORE PUSH1 0x40 MLOAD PUSH4 0xC0DA840D PUSH1 0xE0 SHL DUP2 MSTORE SWAP2 DUP4 AND PUSH1 0x4 DUP4 ADD MSTORE SWAP1 PUSH4 0xC0DA840D SWAP1 PUSH1 0x24 ADD PUSH2 0xA0E JUMP JUMPDEST PUSH1 0x6 SLOAD PUSH1 0x40 MLOAD PUSH4 0x53C33753 PUSH1 0xE1 SHL DUP2 MSTORE PUSH1 0x1 PUSH1 0x1 PUSH1 0xA0 SHL SUB SWAP1 SWAP2 AND SWAP1 PUSH4 0xA7866EA6 SWAP1 PUSH2 0x1C2D SWAP1 DUP10 SWAP1 DUP10 SWAP1 DUP10 SWAP1 DUP10 SWAP1 DUP10 SWAP1 DUP10 SWAP1 PUSH1 0x4 ADD PUSH2 0x4D18 JUMP JUMPDEST PUSH0 PUSH1 0x40 MLOAD DUP1 DUP4 SUB DUP2 PUSH0 DUP8 DUP1 EXTCODESIZE ISZERO DUP1 ISZERO PUSH2 0x1C44 JUMPI PUSH0 PUSH0 REVERT JUMPDEST POP GAS CALL ISZERO DUP1 ISZERO PUSH2 0x1C56 JUMPI RETURNDATASIZE PUSH0 PUSH0 RETURNDATACOPY RETURNDATASIZE PUSH0 REVERT JUMPDEST POP POP POP POP POP POP POP POP POP POP JUMP JUMPDEST PUSH1 0x4 DUP1 SLOAD PUSH1 0x40 MLOAD PUSH4 0xAAB3196D PUSH1 0xE0 SHL DUP2 MSTORE PUSH1 0x1 PUSH1 0x1 PUSH1 0xA0 SHL SUB SWAP1 SWAP2 AND SWAP2 PUSH4 0xAAB3196D SWAP2 PUSH2 0xA0E SWAP2 DUP7 SWAP2 DUP7 SWAP2 ADD PUSH2 0x4D51 JUMP JUMPDEST PUSH0 DUP1 SLOAD PUSH1 0x40 MLOAD PUSH4 0x95A8C58D PUSH1 0xE0 SHL DUP2 MSTORE PUSH1 0x1 PUSH1 0x1 PUSH1 0xA0 SHL SUB SWAP1 SWAP2 AND SWAP2 PUSH4 0x95A8C58D SWAP2 PUSH2 0x1CC3 SWAP2 CALLER SWAP2 PUSH1 0x4 ADD PUSH2 0x4373 JUMP JUMPDEST PUSH1 0x20 PUSH1 0x40 MLOAD DUP1 DUP4 SUB DUP2 DUP7 GAS STATICCALL ISZERO DUP1 ISZERO PUSH2 0x1CDE JUMPI RETURNDATASIZE PUSH0 PUSH0 RETURNDATACOPY RETURNDATASIZE PUSH0 REVERT JUMPDEST POP POP POP POP PUSH1 0x40 MLOAD RETURNDATASIZE PUSH1 0x1F NOT PUSH1 0x1F DUP3 ADD AND DUP3 ADD DUP1 PUSH1 0x40 MSTORE POP DUP2 ADD SWAP1 PUSH2 0x1D02 SWAP2 SWAP1 PUSH2 0x43A4 JUMP JUMPDEST PUSH2 0x1D1E JUMPI PUSH1 0x40 MLOAD PUSH3 0x461BCD PUSH1 0xE5 SHL DUP2 MSTORE PUSH1 0x4 ADD PUSH2 0x9D0 SWAP1 PUSH2 0x43BF JUMP JUMPDEST PUSH1 0x5 SLOAD PUSH1 0x40 MLOAD PUSH4 0x55FAF41B PUSH1 0xE1 SHL DUP2 MSTORE PUSH1 0x4 DUP2 ADD DUP5 SWAP1 MSTORE PUSH1 0x1 PUSH1 0x1 PUSH1 0xA0 SHL SUB DUP4 DUP2 AND PUSH1 0x24 DUP4 ADD MSTORE SWAP1 SWAP2 AND SWAP1 PUSH4 0xABF5E836 SWAP1 PUSH1 0x44 ADD PUSH2 0xA0E JUMP JUMPDEST PUSH1 0x1 SLOAD PUSH1 0x40 MLOAD PUSH4 0xAF5607F9 PUSH1 0xE0 SHL DUP2 MSTORE PUSH1 0x4 DUP2 ADD DUP4 SWAP1 MSTORE PUSH1 0x60 SWAP2 PUSH1 0x1 PUSH1 0x1 PUSH1 0xA0 SHL SUB AND SWAP1 PUSH4 0xAF5607F9 SWAP1 PUSH1 0x24 ADD PUSH0 PUSH1 0x40 MLOAD DUP1 DUP4 SUB DUP2 DUP7 GAS STATICCALL ISZERO DUP1 ISZERO PUSH2 0x1D9E JUMPI RETURNDATASIZE PUSH0 PUSH0 RETURNDATACOPY RETURNDATASIZE PUSH0 REVERT JUMPDEST POP POP POP POP PUSH1 0x40 MLOAD RETURNDATASIZE PUSH0 DUP3 RETURNDATACOPY PUSH1 0x1F RETURNDATASIZE SWAP1 DUP2 ADD PUSH1 0x1F NOT AND DUP3 ADD PUSH1 0x40 MSTORE PUSH2 0xB66 SWAP2 SWAP1 DUP2 ADD SWAP1 PUSH2 0x4E5D JUMP JUMPDEST PUSH0 DUP1 SLOAD PUSH1 0x40 MLOAD PUSH4 0x95A8C58D PUSH1 0xE0 SHL DUP2 MSTORE PUSH1 0x1 PUSH1 0x1 PUSH1 0xA0 SHL SUB SWAP1 SWAP2 AND SWAP2 PUSH4 0x95A8C58D SWAP2 PUSH2 0x1DF5 SWAP2 CALLER SWAP2 PUSH1 0x4 ADD PUSH2 0x4373 JUMP JUMPDEST PUSH1 0x20 PUSH1 0x40 MLOAD DUP1 DUP4 SUB DUP2 DUP7 GAS STATICCALL ISZERO DUP1 ISZERO PUSH2 0x1E10 JUMPI RETURNDATASIZE PUSH0 PUSH0 RETURNDATACOPY RETURNDATASIZE PUSH0 REVERT JUMPDEST POP POP POP POP PUSH1 0x40 MLOAD RETURNDATASIZE PUSH1 0x1F NOT PUSH1 0x1F DUP3 ADD AND DUP3 ADD DUP1 PUSH1 0x40 MSTORE POP DUP2 ADD SWAP1 PUSH2 0x1E34 SWAP2 SWAP1 PUSH2 0x43A4 JUMP JUMPDEST PUSH2 0x1E50 JUMPI PUSH1 0x40 MLOAD PUSH3 0x461BCD PUSH1 0xE5 SHL DUP2 MSTORE PUSH1 0x4 ADD PUSH2 0x9D0 SWAP1 PUSH2 0x43BF JUMP JUMPDEST PUSH1 0x1 PUSH1 0x1 PUSH1 0xA0 SHL SUB DUP2 AND PUSH2 0x1E76 JUMPI PUSH1 0x40 MLOAD PUSH3 0x461BCD PUSH1 0xE5 SHL DUP2 MSTORE PUSH1 0x4 ADD PUSH2 0x9D0 SWAP1 PUSH2 0x45D0 JUMP JUMPDEST PUSH1 0x1 PUSH1 0x1 PUSH1 0xA0 SHL SUB DUP3 AND PUSH2 0x1E9C JUMPI PUSH1 0x40 MLOAD PUSH3 0x461BCD PUSH1 0xE5 SHL DUP2 MSTORE PUSH1 0x4 ADD PUSH2 0x9D0 SWAP1 PUSH2 0x45D0 JUMP JUMPDEST PUSH1 0x6 DUP1 SLOAD PUSH1 0x1 PUSH1 0x1 PUSH1 0xA0 SHL SUB NOT AND PUSH1 0x1 PUSH1 0x1 PUSH1 0xA0 SHL SUB DUP5 DUP2 AND SWAP2 DUP3 OR SWAP1 SWAP3 SSTORE PUSH1 0x40 MLOAD PUSH4 0xEA0F24E9 PUSH1 0xE0 SHL DUP2 MSTORE SWAP2 DUP4 AND PUSH1 0x4 DUP4 ADD MSTORE SWAP1 PUSH4 0xEA0F24E9 SWAP1 PUSH1 0x24 ADD PUSH2 0xA0E JUMP JUMPDEST PUSH1 0x6 SLOAD PUSH1 0x40 MLOAD PUSH4 0xB2FDFE05 PUSH1 0xE0 SHL DUP2 MSTORE PUSH1 0x1 PUSH1 0x1 PUSH1 0xA0 SHL SUB DUP4 DUP2 AND PUSH1 0x4 DUP4 ADD MSTORE PUSH1 0x60 SWAP3 AND SWAP1 PUSH4 0xB2FDFE05 SWAP1 PUSH1 0x24 ADD PUSH0 PUSH1 0x40 MLOAD DUP1 DUP4 SUB DUP2 DUP7 GAS STATICCALL ISZERO DUP1 ISZERO PUSH2 0x1F27 JUMPI RETURNDATASIZE PUSH0 PUSH0 RETURNDATACOPY RETURNDATASIZE PUSH0 REVERT JUMPDEST POP POP POP POP PUSH1 0x40 MLOAD RETURNDATASIZE PUSH0 DUP3 RETURNDATACOPY PUSH1 0x1F RETURNDATASIZE SWAP1 DUP2 ADD PUSH1 0x1F NOT AND DUP3 ADD PUSH1 0x40 MSTORE PUSH2 0xB66 SWAP2 SWAP1 DUP2 ADD SWAP1 PUSH2 0x4E99 JUMP JUMPDEST PUSH0 DUP1 SLOAD PUSH1 0x40 MLOAD PUSH4 0x95A8C58D PUSH1 0xE0 SHL DUP2 MSTORE PUSH1 0x1 PUSH1 0x1 PUSH1 0xA0 SHL SUB SWAP1 SWAP2 AND SWAP2 PUSH4 0x95A8C58D SWAP2 PUSH2 0x1F7E SWAP2 CALLER SWAP2 PUSH1 0x4 ADD PUSH2 0x4373 JUMP JUMPDEST PUSH1 0x20 PUSH1 0x40 MLOAD DUP1 DUP4 SUB DUP2 DUP7 GAS STATICCALL ISZERO DUP1 ISZERO PUSH2 0x1F99 JUMPI RETURNDATASIZE PUSH0 PUSH0 RETURNDATACOPY RETURNDATASIZE PUSH0 REVERT JUMPDEST POP POP POP POP PUSH1 0x40 MLOAD RETURNDATASIZE PUSH1 0x1F NOT PUSH1 0x1F DUP3 ADD AND DUP3 ADD DUP1 PUSH1 0x40 MSTORE POP DUP2 ADD SWAP1 PUSH2 0x1FBD SWAP2 SWAP1 PUSH2 0x43A4 JUMP JUMPDEST PUSH2 0x1FD9 JUMPI PUSH1 0x40 MLOAD PUSH3 0x461BCD PUSH1 0xE5 SHL DUP2 MSTORE PUSH1 0x4 ADD PUSH2 0x9D0 SWAP1 PUSH2 0x43BF JUMP JUMPDEST PUSH1 0x1 SLOAD PUSH1 0x40 MLOAD PUSH4 0x5A23D557 PUSH1 0xE1 SHL DUP2 MSTORE PUSH1 0x1 PUSH1 0x1 PUSH1 0xA0 SHL SUB SWAP1 SWAP2 AND SWAP1 PUSH4 0xB447AAAE SWAP1 PUSH2 0x1C2D SWAP1 DUP10 SWAP1 DUP10 SWAP1 DUP10 SWAP1 DUP10 SWAP1 DUP10 SWAP1 DUP10 SWAP1 PUSH1 0x4 ADD PUSH2 0x4FEA JUMP JUMPDEST PUSH0 DUP1 SLOAD PUSH1 0x40 MLOAD PUSH4 0x95A8C58D PUSH1 0xE0 SHL DUP2 MSTORE PUSH1 0x1 PUSH1 0x1 PUSH1 0xA0 SHL SUB SWAP1 SWAP2 AND SWAP2 PUSH4 0x95A8C58D SWAP2 PUSH2 0x2043 SWAP2 CALLER SWAP2 PUSH1 0x4 ADD PUSH2 0x4373 JUMP JUMPDEST PUSH1 0x20 PUSH1 0x40 MLOAD DUP1 DUP4 SUB DUP2 DUP7 GAS STATICCALL ISZERO DUP1 ISZERO PUSH2 0x205E JUMPI RETURNDATASIZE PUSH0 PUSH0 RETURNDATACOPY RETURNDATASIZE PUSH0 REVERT JUMPDEST POP POP POP POP PUSH1 0x40 MLOAD RETURNDATASIZE PUSH1 0x1F NOT PUSH1 0x1F DUP3 ADD AND DUP3 ADD DUP1 PUSH1 0x40 MSTORE POP DUP2 ADD SWAP1 PUSH2 0x2082 SWAP2 SWAP1 PUSH2 0x43A4 JUMP JUMPDEST DUP1 PUSH2 0x20F9 JUMPI POP PUSH0 SLOAD PUSH1 0x40 MLOAD PUSH4 0x95A8C58D PUSH1 0xE0 SHL DUP2 MSTORE PUSH1 0x1 PUSH1 0x1 PUSH1 0xA0 SHL SUB SWAP1 SWAP2 AND SWAP1 PUSH4 0x95A8C58D SWAP1 PUSH2 0x20BA SWAP1 CALLER SWAP1 PUSH1 0x1 SWAP1 PUSH1 0x4 ADD PUSH2 0x4373 JUMP JUMPDEST PUSH1 0x20 PUSH1 0x40 MLOAD DUP1 DUP4 SUB DUP2 DUP7 GAS STATICCALL ISZERO DUP1 ISZERO PUSH2 0x20D5 JUMPI RETURNDATASIZE PUSH0 PUSH0 RETURNDATACOPY RETURNDATASIZE PUSH0 REVERT JUMPDEST POP POP POP POP PUSH1 0x40 MLOAD RETURNDATASIZE PUSH1 0x1F NOT PUSH1 0x1F DUP3 ADD AND DUP3 ADD DUP1 PUSH1 0x40 MSTORE POP DUP2 ADD SWAP1 PUSH2 0x20F9 SWAP2 SWAP1 PUSH2 0x43A4 JUMP JUMPDEST PUSH2 0x2115 JUMPI PUSH1 0x40 MLOAD PUSH3 0x461BCD PUSH1 0xE5 SHL DUP2 MSTORE PUSH1 0x4 ADD PUSH2 0x9D0 SWAP1 PUSH2 0x4935 JUMP JUMPDEST PUSH1 0x3 SLOAD PUSH1 0x40 MLOAD PUSH4 0x2D2BF54B PUSH1 0xE2 SHL DUP2 MSTORE PUSH1 0x1 PUSH1 0x1 PUSH1 0xA0 SHL SUB SWAP1 SWAP2 AND SWAP1 PUSH4 0xB4AFD52C SWAP1 PUSH2 0xA0E SWAP1 DUP6 SWAP1 DUP6 SWAP1 PUSH1 0x4 ADD PUSH2 0x504F JUMP JUMPDEST PUSH1 0x1 SLOAD PUSH1 0x40 DUP1 MLOAD PUSH4 0x5CDAD573 PUSH1 0xE1 SHL DUP2 MSTORE SWAP1 MLOAD PUSH1 0x60 SWAP3 PUSH1 0x1 PUSH1 0x1 PUSH1 0xA0 SHL SUB AND SWAP2 PUSH4 0xB9B5AAE6 SWAP2 PUSH1 0x4 DUP1 DUP4 ADD SWAP3 PUSH0 SWAP3 SWAP2 SWAP1 DUP3 SWAP1 SUB ADD DUP2 DUP7 GAS STATICCALL ISZERO DUP1 ISZERO PUSH2 0x218E JUMPI RETURNDATASIZE PUSH0 PUSH0 RETURNDATACOPY RETURNDATASIZE PUSH0 REVERT JUMPDEST POP POP POP POP PUSH1 0x40 MLOAD RETURNDATASIZE PUSH0 DUP3 RETURNDATACOPY PUSH1 0x1F RETURNDATASIZE SWAP1 DUP2 ADD PUSH1 0x1F NOT AND DUP3 ADD PUSH1 0x40 MSTORE PUSH2 0x940 SWAP2 SWAP1 DUP2 ADD SWAP1 PUSH2 0x505F JUMP JUMPDEST PUSH0 DUP1 SLOAD PUSH1 0x40 MLOAD PUSH4 0x95A8C58D PUSH1 0xE0 SHL DUP2 MSTORE PUSH1 0x1 PUSH1 0x1 PUSH1 0xA0 SHL SUB SWAP1 SWAP2 AND SWAP2 PUSH4 0x95A8C58D SWAP2 PUSH2 0x21E5 SWAP2 CALLER SWAP2 PUSH1 0x4 ADD PUSH2 0x4373 JUMP JUMPDEST PUSH1 0x20 PUSH1 0x40 MLOAD DUP1 DUP4 SUB DUP2 DUP7 GAS STATICCALL ISZERO DUP1 ISZERO PUSH2 0x2200 JUMPI RETURNDATASIZE PUSH0 PUSH0 RETURNDATACOPY RETURNDATASIZE PUSH0 REVERT JUMPDEST POP POP POP POP PUSH1 0x40 MLOAD RETURNDATASIZE PUSH1 0x1F NOT PUSH1 0x1F DUP3 ADD AND DUP3 ADD DUP1 PUSH1 0x40 MSTORE POP DUP2 ADD SWAP1 PUSH2 0x2224 SWAP2 SWAP1 PUSH2 0x43A4 JUMP JUMPDEST PUSH2 0x2240 JUMPI PUSH1 0x40 MLOAD PUSH3 0x461BCD PUSH1 0xE5 SHL DUP2 MSTORE PUSH1 0x4 ADD PUSH2 0x9D0 SWAP1 PUSH2 0x43BF JUMP JUMPDEST PUSH1 0x1 PUSH1 0x1 PUSH1 0xA0 SHL SUB DUP2 AND PUSH2 0x2266 JUMPI PUSH1 0x40 MLOAD PUSH3 0x461BCD PUSH1 0xE5 SHL DUP2 MSTORE PUSH1 0x4 ADD PUSH2 0x9D0 SWAP1 PUSH2 0x45D0 JUMP JUMPDEST PUSH1 0x1 DUP1 SLOAD PUSH1 0x1 PUSH1 0x1 PUSH1 0xA0 SHL SUB NOT AND PUSH1 0x1 PUSH1 0x1 PUSH1 0xA0 SHL SUB SWAP3 SWAP1 SWAP3 AND SWAP2 SWAP1 SWAP2 OR SWAP1 SSTORE JUMP JUMPDEST PUSH0 DUP1 SLOAD PUSH1 0x40 MLOAD PUSH4 0x95A8C58D PUSH1 0xE0 SHL DUP2 MSTORE PUSH1 0x1 PUSH1 0x1 PUSH1 0xA0 SHL SUB SWAP1 SWAP2 AND SWAP2 PUSH4 0x95A8C58D SWAP2 PUSH2 0x22B8 SWAP2 CALLER SWAP2 PUSH1 0x4 ADD PUSH2 0x4373 JUMP JUMPDEST PUSH1 0x20 PUSH1 0x40 MLOAD DUP1 DUP4 SUB DUP2 DUP7 GAS STATICCALL ISZERO DUP1 ISZERO PUSH2 0x22D3 JUMPI RETURNDATASIZE PUSH0 PUSH0 RETURNDATACOPY RETURNDATASIZE PUSH0 REVERT JUMPDEST POP POP POP POP PUSH1 0x40 MLOAD RETURNDATASIZE PUSH1 0x1F NOT PUSH1 0x1F DUP3 ADD AND DUP3 ADD DUP1 PUSH1 0x40 MSTORE POP DUP2 ADD SWAP1 PUSH2 0x22F7 SWAP2 SWAP1 PUSH2 0x43A4 JUMP JUMPDEST PUSH2 0x2313 JUMPI PUSH1 0x40 MLOAD PUSH3 0x461BCD PUSH1 0xE5 SHL DUP2 MSTORE PUSH1 0x4 ADD PUSH2 0x9D0 SWAP1 PUSH2 0x43BF JUMP JUMPDEST PUSH1 0x1 SLOAD PUSH1 0x40 MLOAD PUSH4 0x5D7C2983 PUSH1 0xE1 SHL DUP2 MSTORE PUSH1 0x1 PUSH1 0x1 PUSH1 0xA0 SHL SUB SWAP1 SWAP2 AND SWAP1 PUSH4 0xBAF85306 SWAP1 PUSH2 0x119F SWAP1 DUP7 SWAP1 DUP7 SWAP1 DUP7 SWAP1 PUSH1 0x4 ADD PUSH2 0x516F JUMP JUMPDEST PUSH1 0x1 SLOAD PUSH1 0x40 DUP1 MLOAD PUSH4 0xCB0769B PUSH1 0xE4 SHL DUP2 MSTORE SWAP1 MLOAD PUSH1 0x60 SWAP3 PUSH1 0x1 PUSH1 0x1 PUSH1 0xA0 SHL SUB AND SWAP2 PUSH4 0xCB0769B0 SWAP2 PUSH1 0x4 DUP1 DUP4 ADD SWAP3 PUSH0 SWAP3 SWAP2 SWAP1 DUP3 SWAP1 SUB ADD DUP2 DUP7 GAS STATICCALL ISZERO DUP1 ISZERO PUSH2 0x218E JUMPI RETURNDATASIZE PUSH0 PUSH0 RETURNDATACOPY RETURNDATASIZE PUSH0 REVERT JUMPDEST PUSH0 DUP1 SLOAD PUSH1 0x40 MLOAD PUSH4 0x95A8C58D PUSH1 0xE0 SHL DUP2 MSTORE PUSH1 0x1 PUSH1 0x1 PUSH1 0xA0 SHL SUB SWAP1 SWAP2 AND SWAP2 PUSH4 0x95A8C58D SWAP2 PUSH2 0x23BE SWAP2 CALLER SWAP2 PUSH1 0x4 ADD PUSH2 0x4373 JUMP JUMPDEST PUSH1 0x20 PUSH1 0x40 MLOAD DUP1 DUP4 SUB DUP2 DUP7 GAS STATICCALL ISZERO DUP1 ISZERO PUSH2 0x23D9 JUMPI RETURNDATASIZE PUSH0 PUSH0 RETURNDATACOPY RETURNDATASIZE PUSH0 REVERT JUMPDEST POP POP POP POP PUSH1 0x40 MLOAD RETURNDATASIZE PUSH1 0x1F NOT PUSH1 0x1F DUP3 ADD AND DUP3 ADD DUP1 PUSH1 0x40 MSTORE POP DUP2 ADD SWAP1 PUSH2 0x23FD SWAP2 SWAP1 PUSH2 0x43A4 JUMP JUMPDEST PUSH2 0x2419 JUMPI PUSH1 0x40 MLOAD PUSH3 0x461BCD PUSH1 0xE5 SHL DUP2 MSTORE PUSH1 0x4 ADD PUSH2 0x9D0 SWAP1 PUSH2 0x43BF JUMP JUMPDEST PUSH1 0x2 SLOAD PUSH1 0x1 PUSH1 0x1 PUSH1 0xA0 SHL SUB AND PUSH2 0x2441 JUMPI PUSH1 0x40 MLOAD PUSH3 0x461BCD PUSH1 0xE5 SHL DUP2 MSTORE PUSH1 0x4 ADD PUSH2 0x9D0 SWAP1 PUSH2 0x48CB JUMP JUMPDEST PUSH1 0x2 SLOAD PUSH1 0x40 MLOAD PUSH4 0xCECA737F PUSH1 0xE0 SHL DUP2 MSTORE PUSH1 0x4 DUP2 ADD DUP4 SWAP1 MSTORE PUSH1 0x1 PUSH1 0x1 PUSH1 0xA0 SHL SUB SWAP1 SWAP2 AND SWAP1 PUSH4 0xCECA737F SWAP1 PUSH1 0x24 ADD PUSH2 0x1376 JUMP JUMPDEST PUSH0 DUP1 SLOAD PUSH1 0x40 MLOAD PUSH4 0x95A8C58D PUSH1 0xE0 SHL DUP2 MSTORE PUSH1 0x1 PUSH1 0x1 PUSH1 0xA0 SHL SUB SWAP1 SWAP2 AND SWAP2 PUSH4 0x95A8C58D SWAP2 PUSH2 0x24A2 SWAP2 CALLER SWAP2 PUSH1 0x4 ADD PUSH2 0x4373 JUMP JUMPDEST PUSH1 0x20 PUSH1 0x40 MLOAD DUP1 DUP4 SUB DUP2 DUP7 GAS STATICCALL ISZERO DUP1 ISZERO PUSH2 0x24BD JUMPI RETURNDATASIZE PUSH0 PUSH0 RETURNDATACOPY RETURNDATASIZE PUSH0 REVERT JUMPDEST POP POP POP POP PUSH1 0x40 MLOAD RETURNDATASIZE PUSH1 0x1F NOT PUSH1 0x1F DUP3 ADD AND DUP3 ADD DUP1 PUSH1 0x40 MSTORE POP DUP2 ADD SWAP1 PUSH2 0x24E1 SWAP2 SWAP1 PUSH2 0x43A4 JUMP JUMPDEST PUSH2 0x24FD JUMPI PUSH1 0x40 MLOAD PUSH3 0x461BCD PUSH1 0xE5 SHL DUP2 MSTORE PUSH1 0x4 ADD PUSH2 0x9D0 SWAP1 PUSH2 0x43BF JUMP JUMPDEST PUSH1 0x1 SLOAD PUSH1 0x40 MLOAD PUSH4 0xD198B65 PUSH1 0xE4 SHL DUP2 MSTORE PUSH1 0x4 DUP2 ADD DUP4 SWAP1 MSTORE PUSH1 0x1 PUSH1 0x1 PUSH1 0xA0 SHL SUB SWAP1 SWAP2 AND SWAP1 PUSH4 0xD198B650 SWAP1 PUSH1 0x24 ADD PUSH2 0x1376 JUMP JUMPDEST PUSH1 0x3 SLOAD PUSH1 0x40 MLOAD PUSH4 0x6A854F23 PUSH1 0xE1 SHL DUP2 MSTORE PUSH1 0x1 PUSH1 0x1 PUSH1 0xA0 SHL SUB SWAP1 SWAP2 AND SWAP1 PUSH4 0xD50A9E46 SWAP1 PUSH2 0xA75 SWAP1 DUP8 SWAP1 DUP8 SWAP1 DUP8 SWAP1 DUP8 SWAP1 PUSH1 0x4 ADD PUSH2 0x5196 JUMP JUMPDEST PUSH1 0x2 SLOAD PUSH1 0x60 SWAP1 PUSH1 0x1 PUSH1 0x1 PUSH1 0xA0 SHL SUB AND PUSH2 0x258F JUMPI PUSH1 0x40 MLOAD PUSH3 0x461BCD PUSH1 0xE5 SHL DUP2 MSTORE PUSH1 0x4 ADD PUSH2 0x9D0 SWAP1 PUSH2 0x48CB JUMP JUMPDEST PUSH1 0x2 PUSH0 SWAP1 SLOAD SWAP1 PUSH2 0x100 EXP SWAP1 DIV PUSH1 0x1 PUSH1 0x1 PUSH1 0xA0 SHL SUB AND PUSH1 0x1 PUSH1 0x1 PUSH1 0xA0 SHL SUB AND PUSH4 0xDADD0A57 PUSH1 0x40 MLOAD DUP2 PUSH4 0xFFFFFFFF AND PUSH1 0xE0 SHL DUP2 MSTORE PUSH1 0x4 ADD PUSH0 PUSH1 0x40 MLOAD DUP1 DUP4 SUB DUP2 DUP7 GAS STATICCALL ISZERO DUP1 ISZERO PUSH2 0x25DE JUMPI RETURNDATASIZE PUSH0 PUSH0 RETURNDATACOPY RETURNDATASIZE PUSH0 REVERT JUMPDEST POP POP POP POP PUSH1 0x40 MLOAD RETURNDATASIZE PUSH0 DUP3 RETURNDATACOPY PUSH1 0x1F RETURNDATASIZE SWAP1 DUP2 ADD PUSH1 0x1F NOT AND DUP3 ADD PUSH1 0x40 MSTORE PUSH2 0x940 SWAP2 SWAP1 DUP2 ADD SWAP1 PUSH2 0x5209 JUMP JUMPDEST PUSH0 DUP1 SLOAD PUSH1 0x40 MLOAD PUSH4 0x95A8C58D PUSH1 0xE0 SHL DUP2 MSTORE PUSH1 0x1 PUSH1 0x1 PUSH1 0xA0 SHL SUB SWAP1 SWAP2 AND SWAP2 PUSH4 0x95A8C58D SWAP2 PUSH2 0x2635 SWAP2 CALLER SWAP2 PUSH1 0x4 ADD PUSH2 0x4373 JUMP JUMPDEST PUSH1 0x20 PUSH1 0x40 MLOAD DUP1 DUP4 SUB DUP2 DUP7 GAS STATICCALL ISZERO DUP1 ISZERO PUSH2 0x2650 JUMPI RETURNDATASIZE PUSH0 PUSH0 RETURNDATACOPY RETURNDATASIZE PUSH0 REVERT JUMPDEST POP POP POP POP PUSH1 0x40 MLOAD RETURNDATASIZE PUSH1 0x1F NOT PUSH1 0x1F DUP3 ADD AND DUP3 ADD DUP1 PUSH1 0x40 MSTORE POP DUP2 ADD SWAP1 PUSH2 0x2674 SWAP2 SWAP1 PUSH2 0x43A4 JUMP JUMPDEST PUSH2 0x2690 JUMPI PUSH1 0x40 MLOAD PUSH3 0x461BCD PUSH1 0xE5 SHL DUP2 MSTORE PUSH1 0x4 ADD PUSH2 0x9D0 SWAP1 PUSH2 0x43BF JUMP JUMPDEST PUSH1 0x5 SLOAD PUSH1 0x40 MLOAD PUSH4 0x372B557 PUSH1 0xE6 SHL DUP2 MSTORE PUSH1 0x1 PUSH1 0x1 PUSH1 0xA0 SHL SUB SWAP1 SWAP2 AND SWAP1 PUSH4 0xDCAD55C0 SWAP1 PUSH2 0x10A3 SWAP1 DUP11 SWAP1 DUP11 SWAP1 DUP11 SWAP1 DUP11 SWAP1 DUP11 SWAP1 DUP11 SWAP1 DUP11 SWAP1 PUSH1 0x4 ADD PUSH2 0x4698 JUMP JUMPDEST PUSH2 0x26D4 PUSH2 0x2D66 JUMP JUMPDEST PUSH1 0x5 SLOAD PUSH1 0x40 MLOAD PUSH4 0x3775E541 PUSH1 0xE2 SHL DUP2 MSTORE PUSH1 0x1 PUSH1 0x1 PUSH1 0xA0 SHL SUB DUP5 DUP2 AND PUSH1 0x4 DUP4 ADD MSTORE SWAP1 SWAP2 AND SWAP1 PUSH4 0xDDD79504 SWAP1 PUSH1 0x24 ADD PUSH0 PUSH1 0x40 MLOAD DUP1 DUP4 SUB DUP2 DUP7 GAS STATICCALL ISZERO DUP1 ISZERO PUSH2 0x271B JUMPI RETURNDATASIZE PUSH0 PUSH0 RETURNDATACOPY RETURNDATASIZE PUSH0 REVERT JUMPDEST POP POP POP POP PUSH1 0x40 MLOAD RETURNDATASIZE PUSH0 DUP3 RETURNDATACOPY PUSH1 0x1F RETURNDATASIZE SWAP1 DUP2 ADD PUSH1 0x1F NOT AND DUP3 ADD PUSH1 0x40 MSTORE PUSH2 0xB66 SWAP2 SWAP1 DUP2 ADD SWAP1 PUSH2 0x52AD JUMP JUMPDEST PUSH1 0x1 SLOAD PUSH1 0x40 DUP1 MLOAD PUSH4 0x710DD463 PUSH1 0xE1 SHL DUP2 MSTORE SWAP1 MLOAD PUSH1 0x60 SWAP3 PUSH1 0x1 PUSH1 0x1 PUSH1 0xA0 SHL SUB AND SWAP2 PUSH4 0xE21BA8C6 SWAP2 PUSH1 0x4 DUP1 DUP4 ADD SWAP3 PUSH0 SWAP3 SWAP2 SWAP1 DUP3 SWAP1 SUB ADD DUP2 DUP4 DUP8 GAS CALL ISZERO DUP1 ISZERO PUSH2 0x278A JUMPI RETURNDATASIZE PUSH0 PUSH0 RETURNDATACOPY RETURNDATASIZE PUSH0 REVERT JUMPDEST POP POP POP POP PUSH1 0x40 MLOAD RETURNDATASIZE PUSH0 DUP3 RETURNDATACOPY PUSH1 0x1F RETURNDATASIZE SWAP1 DUP2 ADD PUSH1 0x1F NOT AND DUP3 ADD PUSH1 0x40 MSTORE PUSH2 0x940 SWAP2 SWAP1 DUP2 ADD SWAP1 PUSH2 0x4E5D JUMP JUMPDEST PUSH0 DUP1 SLOAD PUSH1 0x40 MLOAD PUSH4 0x95A8C58D PUSH1 0xE0 SHL DUP2 MSTORE PUSH1 0x1 PUSH1 0x1 PUSH1 0xA0 SHL SUB SWAP1 SWAP2 AND SWAP2 PUSH4 0x95A8C58D SWAP2 PUSH2 0x27E1 SWAP2 CALLER SWAP2 PUSH1 0x4 ADD PUSH2 0x4373 JUMP JUMPDEST PUSH1 0x20 PUSH1 0x40 MLOAD DUP1 DUP4 SUB DUP2 DUP7 GAS STATICCALL ISZERO DUP1 ISZERO PUSH2 0x27FC JUMPI RETURNDATASIZE PUSH0 PUSH0 RETURNDATACOPY RETURNDATASIZE PUSH0 REVERT JUMPDEST POP POP POP POP PUSH1 0x40 MLOAD RETURNDATASIZE PUSH1 0x1F NOT PUSH1 0x1F DUP3 ADD AND DUP3 ADD DUP1 PUSH1 0x40 MSTORE POP DUP2 ADD SWAP1 PUSH2 0x2820 SWAP2 SWAP1 PUSH2 0x43A4 JUMP JUMPDEST PUSH2 0x283C JUMPI PUSH1 0x40 MLOAD PUSH3 0x461BCD PUSH1 0xE5 SHL DUP2 MSTORE PUSH1 0x4 ADD PUSH2 0x9D0 SWAP1 PUSH2 0x43BF JUMP JUMPDEST PUSH1 0x3 SLOAD PUSH1 0x40 MLOAD PUSH4 0x73798C63 PUSH1 0xE1 SHL DUP2 MSTORE PUSH1 0x4 DUP2 ADD DUP4 SWAP1 MSTORE PUSH1 0x1 PUSH1 0x1 PUSH1 0xA0 SHL SUB SWAP1 SWAP2 AND SWAP1 PUSH4 0xE6F318C6 SWAP1 PUSH1 0x24 ADD PUSH2 0x1376 JUMP JUMPDEST PUSH0 DUP1 SLOAD PUSH1 0x40 MLOAD PUSH4 0x95A8C58D PUSH1 0xE0 SHL DUP2 MSTORE PUSH1 0x1 PUSH1 0x1 PUSH1 0xA0 SHL SUB SWAP1 SWAP2 AND SWAP2 PUSH4 0x95A8C58D SWAP2 PUSH2 0x289D SWAP2 CALLER SWAP2 PUSH1 0x4 ADD PUSH2 0x4373 JUMP JUMPDEST PUSH1 0x20 PUSH1 0x40 MLOAD DUP1 DUP4 SUB DUP2 DUP7 GAS STATICCALL ISZERO DUP1 ISZERO PUSH2 0x28B8 JUMPI RETURNDATASIZE PUSH0 PUSH0 RETURNDATACOPY RETURNDATASIZE PUSH0 REVERT JUMPDEST POP POP POP POP PUSH1 0x40 MLOAD RETURNDATASIZE PUSH1 0x1F NOT PUSH1 0x1F DUP3 ADD AND DUP3 ADD DUP1 PUSH1 0x40 MSTORE POP DUP2 ADD SWAP1 PUSH2 0x28DC SWAP2 SWAP1 PUSH2 0x43A4 JUMP JUMPDEST PUSH2 0x28F8 JUMPI PUSH1 0x40 MLOAD PUSH3 0x461BCD PUSH1 0xE5 SHL DUP2 MSTORE PUSH1 0x4 ADD PUSH2 0x9D0 SWAP1 PUSH2 0x43BF JUMP JUMPDEST PUSH1 0x1 PUSH1 0x1 PUSH1 0xA0 SHL SUB DUP2 AND PUSH2 0x291E JUMPI PUSH1 0x40 MLOAD PUSH3 0x461BCD PUSH1 0xE5 SHL DUP2 MSTORE PUSH1 0x4 ADD PUSH2 0x9D0 SWAP1 PUSH2 0x45D0 JUMP JUMPDEST PUSH1 0x5 DUP1 SLOAD PUSH1 0x1 PUSH1 0x1 PUSH1 0xA0 SHL SUB NOT AND PUSH1 0x1 PUSH1 0x1 PUSH1 0xA0 SHL SUB SWAP3 SWAP1 SWAP3 AND SWAP2 SWAP1 SWAP2 OR SWAP1 SSTORE JUMP JUMPDEST PUSH1 0x40 DUP1 MLOAD DUP1 DUP3 ADD SWAP1 SWAP2 MSTORE PUSH0 DUP2 MSTORE PUSH1 0x60 PUSH1 0x20 DUP3 ADD MSTORE PUSH1 0x2 SLOAD PUSH1 0x1 PUSH1 0x1 PUSH1 0xA0 SHL SUB AND PUSH2 0x297C JUMPI PUSH1 0x40 MLOAD PUSH3 0x461BCD PUSH1 0xE5 SHL DUP2 MSTORE PUSH1 0x4 ADD PUSH2 0x9D0 SWAP1 PUSH2 0x48CB JUMP JUMPDEST PUSH1 0x2 SLOAD PUSH1 0x40 MLOAD PUSH4 0x79829693 PUSH1 0xE1 SHL DUP2 MSTORE PUSH1 0x4 DUP2 ADD DUP5 SWAP1 MSTORE PUSH1 0x1 PUSH1 0x1 PUSH1 0xA0 SHL SUB SWAP1 SWAP2 AND SWAP1 PUSH4 0xF3052D26 SWAP1 PUSH1 0x24 ADD PUSH0 PUSH1 0x40 MLOAD DUP1 DUP4 SUB DUP2 DUP7 GAS STATICCALL ISZERO DUP1 ISZERO PUSH2 0x29C2 JUMPI RETURNDATASIZE PUSH0 PUSH0 RETURNDATACOPY RETURNDATASIZE PUSH0 REVERT JUMPDEST POP POP POP POP PUSH1 0x40 MLOAD RETURNDATASIZE PUSH0 DUP3 RETURNDATACOPY PUSH1 0x1F RETURNDATASIZE SWAP1 DUP2 ADD PUSH1 0x1F NOT AND DUP3 ADD PUSH1 0x40 MSTORE PUSH2 0xB66 SWAP2 SWAP1 DUP2 ADD SWAP1 PUSH2 0x52DE JUMP JUMPDEST PUSH1 0x7 SLOAD PUSH1 0x40 MLOAD PUSH4 0xF44A8583 PUSH1 0xE0 SHL DUP2 MSTORE PUSH1 0x4 DUP2 ADD DUP4 SWAP1 MSTORE PUSH1 0x60 SWAP2 PUSH1 0x1 PUSH1 0x1 PUSH1 0xA0 SHL SUB AND SWAP1 PUSH4 0xF44A8583 SWAP1 PUSH1 0x24 ADD PUSH0 PUSH1 0x40 MLOAD DUP1 DUP4 SUB DUP2 DUP7 GAS STATICCALL ISZERO DUP1 ISZERO PUSH2 0x2A30 JUMPI RETURNDATASIZE PUSH0 PUSH0 RETURNDATACOPY RETURNDATASIZE PUSH0 REVERT JUMPDEST POP POP POP POP PUSH1 0x40 MLOAD RETURNDATASIZE PUSH0 DUP3 RETURNDATACOPY PUSH1 0x1F RETURNDATASIZE SWAP1 DUP2 ADD PUSH1 0x1F NOT AND DUP3 ADD PUSH1 0x40 MSTORE PUSH2 0xB66 SWAP2 SWAP1 DUP2 ADD SWAP1 PUSH2 0x530F JUMP JUMPDEST PUSH1 0x7 SLOAD PUSH1 0x40 MLOAD PUSH4 0x7B5C14D PUSH1 0xE5 SHL DUP2 MSTORE PUSH1 0x1 PUSH1 0x1 PUSH1 0xA0 SHL SUB SWAP1 SWAP2 AND SWAP1 PUSH4 0xF6B829A0 SWAP1 PUSH2 0xA75 SWAP1 DUP8 SWAP1 DUP8 SWAP1 DUP8 SWAP1 DUP8 SWAP1 PUSH1 0x4 ADD PUSH2 0x440A JUMP JUMPDEST PUSH0 DUP1 SLOAD PUSH1 0x40 MLOAD PUSH4 0x95A8C58D PUSH1 0xE0 SHL DUP2 MSTORE PUSH1 0x1 PUSH1 0x1 PUSH1 0xA0 SHL SUB SWAP1 SWAP2 AND SWAP2 PUSH4 0x95A8C58D SWAP2 PUSH2 0x2ABD SWAP2 CALLER SWAP2 PUSH1 0x4 ADD PUSH2 0x4373 JUMP JUMPDEST PUSH1 0x20 PUSH1 0x40 MLOAD DUP1 DUP4 SUB DUP2 DUP7 GAS STATICCALL ISZERO DUP1 ISZERO PUSH2 0x2AD8 JUMPI RETURNDATASIZE PUSH0 PUSH0 RETURNDATACOPY RETURNDATASIZE PUSH0 REVERT JUMPDEST POP POP POP POP PUSH1 0x40 MLOAD RETURNDATASIZE PUSH1 0x1F NOT PUSH1 0x1F DUP3 ADD AND DUP3 ADD DUP1 PUSH1 0x40 MSTORE POP DUP2 ADD SWAP1 PUSH2 0x2AFC SWAP2 SWAP1 PUSH2 0x43A4 JUMP JUMPDEST PUSH2 0x2B18 JUMPI PUSH1 0x40 MLOAD PUSH3 0x461BCD PUSH1 0xE5 SHL DUP2 MSTORE PUSH1 0x4 ADD PUSH2 0x9D0 SWAP1 PUSH2 0x43BF JUMP JUMPDEST PUSH1 0x2 SLOAD PUSH1 0x1 PUSH1 0x1 PUSH1 0xA0 SHL SUB AND PUSH2 0x2B40 JUMPI PUSH1 0x40 MLOAD PUSH3 0x461BCD PUSH1 0xE5 SHL DUP2 MSTORE PUSH1 0x4 ADD PUSH2 0x9D0 SWAP1 PUSH2 0x48CB JUMP JUMPDEST PUSH1 0x2 SLOAD PUSH1 0x40 MLOAD PUSH4 0x7BC34529 PUSH1 0xE1 SHL DUP2 MSTORE PUSH1 0x1 PUSH1 0x1 PUSH1 0xA0 SHL SUB SWAP1 SWAP2 AND SWAP1 PUSH4 0xF7868A52 SWAP1 PUSH2 0xA0E SWAP1 DUP6 SWAP1 DUP6 SWAP1 PUSH1 0x4 ADD PUSH2 0x4902 JUMP JUMPDEST PUSH0 DUP1 SLOAD PUSH1 0x40 MLOAD PUSH4 0x95A8C58D PUSH1 0xE0 SHL DUP2 MSTORE PUSH1 0x1 PUSH1 0x1 PUSH1 0xA0 SHL SUB SWAP1 SWAP2 AND SWAP1 PUSH4 0x95A8C58D SWAP1 PUSH2 0x2BA4 SWAP1 CALLER SWAP1 DUP6 SWAP1 PUSH1 0x4 ADD PUSH2 0x4373 JUMP JUMPDEST PUSH1 0x20 PUSH1 0x40 MLOAD DUP1 DUP4 SUB DUP2 DUP7 GAS STATICCALL ISZERO DUP1 ISZERO PUSH2 0x2BBF JUMPI RETURNDATASIZE PUSH0 PUSH0 RETURNDATACOPY RETURNDATASIZE PUSH0 REVERT JUMPDEST POP POP POP POP PUSH1 0x40 MLOAD RETURNDATASIZE PUSH1 0x1F NOT PUSH1 0x1F DUP3 ADD AND DUP3 ADD DUP1 PUSH1 0x40 MSTORE POP DUP2 ADD SWAP1 PUSH2 0x2BE3 SWAP2 SWAP1 PUSH2 0x43A4 JUMP JUMPDEST PUSH2 0x2BFF JUMPI PUSH1 0x40 MLOAD PUSH3 0x461BCD PUSH1 0xE5 SHL DUP2 MSTORE PUSH1 0x4 ADD PUSH2 0x9D0 SWAP1 PUSH2 0x43BF JUMP JUMPDEST PUSH1 0x3 SLOAD PUSH1 0x40 MLOAD PUSH4 0xFB25D32F PUSH1 0xE0 SHL DUP2 MSTORE PUSH1 0x1 PUSH1 0x1 PUSH1 0xA0 SHL SUB SWAP1 SWAP2 AND SWAP1 PUSH4 0xFB25D32F SWAP1 PUSH2 0x2C33 SWAP1 DUP8 SWAP1 DUP8 SWAP1 DUP8 SWAP1 PUSH1 0x4 ADD PUSH2 0x5459 JUMP JUMPDEST PUSH1 0x20 PUSH1 0x40 MLOAD DUP1 DUP4 SUB DUP2 PUSH0 DUP8 GAS CALL ISZERO DUP1 ISZERO PUSH2 0x2C4F JUMPI RETURNDATASIZE PUSH0 PUSH0 RETURNDATACOPY RETURNDATASIZE PUSH0 REVERT JUMPDEST POP POP POP POP PUSH1 0x40 MLOAD RETURNDATASIZE PUSH1 0x1F NOT PUSH1 0x1F DUP3 ADD AND DUP3 ADD DUP1 PUSH1 0x40 MSTORE POP DUP2 ADD SWAP1 PUSH2 0x2C73 SWAP2 SWAP1 PUSH2 0x48B4 JUMP JUMPDEST SWAP1 POP JUMPDEST SWAP4 SWAP3 POP POP POP JUMP JUMPDEST PUSH1 0x6 SLOAD PUSH1 0x40 MLOAD PUSH4 0x3F34C88F PUSH1 0xE2 SHL DUP2 MSTORE PUSH1 0x4 DUP2 ADD DUP4 SWAP1 MSTORE PUSH1 0x1 PUSH1 0x1 PUSH1 0xA0 SHL SUB SWAP1 SWAP2 AND SWAP1 PUSH4 0xFCD3223C SWAP1 PUSH1 0x24 ADD PUSH2 0x1376 JUMP JUMPDEST PUSH1 0x40 MLOAD DUP1 PUSH1 0xA0 ADD PUSH1 0x40 MSTORE DUP1 PUSH0 DUP2 MSTORE PUSH1 0x20 ADD PUSH0 DUP2 MSTORE PUSH1 0x20 ADD PUSH0 DUP2 MSTORE PUSH1 0x20 ADD PUSH1 0x60 DUP2 MSTORE PUSH1 0x20 ADD PUSH0 PUSH1 0x1 DUP2 GT ISZERO PUSH2 0x2CE4 JUMPI PUSH2 0x2CE4 PUSH2 0x2DE1 JUMP JUMPDEST SWAP1 MSTORE SWAP1 JUMP JUMPDEST PUSH1 0x40 MLOAD DUP1 PUSH2 0x180 ADD PUSH1 0x40 MSTORE DUP1 PUSH0 DUP2 MSTORE PUSH1 0x20 ADD PUSH0 PUSH1 0x1 PUSH1 0x1 PUSH1 0xA0 SHL SUB AND DUP2 MSTORE PUSH1 0x20 ADD PUSH1 0x60 DUP2 MSTORE PUSH1 0x20 ADD PUSH1 0x60 DUP2 MSTORE PUSH1 0x20 ADD PUSH1 0x60 DUP2 MSTORE PUSH1 0x20 ADD PUSH1 0x60 DUP2 MSTORE PUSH1 0x20 ADD PUSH0 PUSH1 0x1 PUSH1 0x1 PUSH1 0xA0 SHL SUB AND DUP2 MSTORE PUSH1 0x20 ADD PUSH0 DUP2 MSTORE PUSH1 0x20 ADD PUSH1 0x60 DUP2 MSTORE PUSH1 0x20 ADD PUSH0 DUP2 MSTORE PUSH1 0x20 ADD PUSH0 PUSH1 0x3 DUP2 GT ISZERO PUSH2 0x2D5A JUMPI PUSH2 0x2D5A PUSH2 0x2DE1 JUMP JUMPDEST DUP2 MSTORE PUSH1 0x20 ADD PUSH0 DUP2 MSTORE POP SWAP1 JUMP JUMPDEST PUSH1 0x40 MLOAD DUP1 PUSH1 0xE0 ADD PUSH1 0x40 MSTORE DUP1 PUSH0 PUSH1 0x1 PUSH1 0x1 PUSH1 0xA0 SHL SUB AND DUP2 MSTORE PUSH1 0x20 ADD PUSH1 0x60 DUP2 MSTORE PUSH1 0x20 ADD PUSH1 0x60 DUP2 MSTORE PUSH1 0x20 ADD PUSH1 0x60 DUP2 MSTORE PUSH1 0x20 ADD PUSH0 DUP2 MSTORE PUSH1 0x20 ADD PUSH0 DUP2 MSTORE PUSH1 0x20 ADD PUSH0 PUSH1 0x1 DUP2 GT ISZERO PUSH2 0x2CE4 JUMPI PUSH2 0x2CE4 PUSH2 0x2DE1 JUMP JUMPDEST PUSH0 DUP2 MLOAD DUP1 DUP5 MSTORE DUP1 PUSH1 0x20 DUP5 ADD PUSH1 0x20 DUP7 ADD MCOPY PUSH0 PUSH1 0x20 DUP3 DUP7 ADD ADD MSTORE PUSH1 0x20 PUSH1 0x1F NOT PUSH1 0x1F DUP4 ADD AND DUP6 ADD ADD SWAP2 POP POP SWAP3 SWAP2 POP POP JUMP JUMPDEST PUSH4 0x4E487B71 PUSH1 0xE0 SHL PUSH0 MSTORE PUSH1 0x21 PUSH1 0x4 MSTORE PUSH1 0x24 PUSH0 REVERT JUMPDEST PUSH1 0x2 DUP2 LT PUSH2 0x2E05 JUMPI PUSH2 0x2E05 PUSH2 0x2DE1 JUMP JUMPDEST POP JUMP JUMPDEST PUSH1 0x1 DUP1 PUSH1 0xA0 SHL SUB DUP2 MLOAD AND DUP3 MSTORE PUSH0 PUSH1 0x20 DUP3 ADD MLOAD PUSH1 0xE0 PUSH1 0x20 DUP6 ADD MSTORE PUSH2 0x2E2E PUSH1 0xE0 DUP6 ADD DUP3 PUSH2 0x2DB3 JUMP JUMPDEST SWAP1 POP PUSH1 0x40 DUP4 ADD MLOAD DUP5 DUP3 SUB PUSH1 0x40 DUP7 ADD MSTORE PUSH2 0x2E47 DUP3 DUP3 PUSH2 0x2DB3 JUMP JUMPDEST SWAP2 POP POP PUSH1 0x60 DUP4 ADD MLOAD DUP5 DUP3 SUB PUSH1 0x60 DUP7 ADD MSTORE PUSH2 0x2E61 DUP3 DUP3 PUSH2 0x2DB3 JUMP JUMPDEST SWAP2 POP POP PUSH1 0x80 DUP4 ADD MLOAD PUSH1 0x80 DUP6 ADD MSTORE PUSH1 0xA0 DUP4 ADD MLOAD PUSH1 0xA0 DUP6 ADD MSTORE PUSH1 0xC0 DUP4 ADD MLOAD PUSH2 0x2E86 DUP2 PUSH2 0x2DF5 JUMP JUMPDEST DUP1 PUSH1 0xC0 DUP7 ADD MSTORE POP DUP1 SWAP2 POP POP SWAP3 SWAP2 POP POP JUMP JUMPDEST PUSH0 PUSH1 0x20 DUP3 ADD PUSH1 0x20 DUP4 MSTORE DUP1 DUP5 MLOAD DUP1 DUP4 MSTORE PUSH1 0x40 DUP6 ADD SWAP2 POP PUSH1 0x40 DUP2 PUSH1 0x5 SHL DUP7 ADD ADD SWAP3 POP PUSH1 0x20 DUP7 ADD PUSH0 JUMPDEST DUP3 DUP2 LT ISZERO PUSH2 0x2EEE JUMPI PUSH1 0x3F NOT DUP8 DUP7 SUB ADD DUP5 MSTORE PUSH2 0x2ED9 DUP6 DUP4 MLOAD PUSH2 0x2E08 JUMP JUMPDEST SWAP5 POP PUSH1 0x20 SWAP4 DUP5 ADD SWAP4 SWAP2 SWAP1 SWAP2 ADD SWAP1 PUSH1 0x1 ADD PUSH2 0x2EBD JUMP JUMPDEST POP SWAP3 SWAP7 SWAP6 POP POP POP POP POP POP JUMP JUMPDEST DUP1 ISZERO ISZERO DUP2 EQ PUSH2 0x2E05 JUMPI PUSH0 PUSH0 REVERT JUMPDEST PUSH0 PUSH0 PUSH1 0x40 DUP4 DUP6 SUB SLT ISZERO PUSH2 0x2F18 JUMPI PUSH0 PUSH0 REVERT JUMPDEST DUP3 CALLDATALOAD SWAP2 POP PUSH1 0x20 DUP4 ADD CALLDATALOAD PUSH2 0x2F2A DUP2 PUSH2 0x2EFA JUMP JUMPDEST DUP1 SWAP2 POP POP SWAP3 POP SWAP3 SWAP1 POP JUMP JUMPDEST PUSH0 PUSH0 DUP4 PUSH1 0x1F DUP5 ADD SLT PUSH2 0x2F45 JUMPI PUSH0 PUSH0 REVERT JUMPDEST POP DUP2 CALLDATALOAD PUSH1 0x1 PUSH1 0x1 PUSH1 0x40 SHL SUB DUP2 GT ISZERO PUSH2 0x2F5B JUMPI PUSH0 PUSH0 REVERT JUMPDEST PUSH1 0x20 DUP4 ADD SWAP2 POP DUP4 PUSH1 0x20 DUP3 DUP6 ADD ADD GT ISZERO PUSH2 0x2F72 JUMPI PUSH0 PUSH0 REVERT JUMPDEST SWAP3 POP SWAP3 SWAP1 POP JUMP JUMPDEST PUSH1 0xFF DUP2 AND DUP2 EQ PUSH2 0x2E05 JUMPI PUSH0 PUSH0 REVERT JUMPDEST PUSH0 PUSH0 PUSH0 PUSH0 PUSH1 0x60 DUP6 DUP8 SUB SLT ISZERO PUSH2 0x2F9A JUMPI PUSH0 PUSH0 REVERT JUMPDEST DUP5 CALLDATALOAD SWAP4 POP PUSH1 0x20 DUP6 ADD CALLDATALOAD PUSH1 0x1 PUSH1 0x1 PUSH1 0x40 SHL SUB DUP2 GT ISZERO PUSH2 0x2FB6 JUMPI PUSH0 PUSH0 REVERT JUMPDEST PUSH2 0x2FC2 DUP8 DUP3 DUP9 ADD PUSH2 0x2F35 JUMP JUMPDEST SWAP1 SWAP5 POP SWAP3 POP POP PUSH1 0x40 DUP6 ADD CALLDATALOAD PUSH2 0x2FD6 DUP2 PUSH2 0x2F79 JUMP JUMPDEST SWAP4 SWAP7 SWAP3 SWAP6 POP SWAP1 SWAP4 POP POP JUMP JUMPDEST PUSH0 PUSH1 0x20 DUP3 DUP5 SUB SLT ISZERO PUSH2 0x2FF1 JUMPI PUSH0 PUSH0 REVERT JUMPDEST POP CALLDATALOAD SWAP2 SWAP1 POP JUMP JUMPDEST PUSH0 DUP3 DUP3 MLOAD DUP1 DUP6 MSTORE PUSH1 0x20 DUP6 ADD SWAP5 POP PUSH1 0x20 DUP2 PUSH1 0x5 SHL DUP4 ADD ADD PUSH1 0x20 DUP6 ADD PUSH0 JUMPDEST DUP4 DUP2 LT ISZERO PUSH2 0x3046 JUMPI PUSH1 0x1F NOT DUP6 DUP5 SUB ADD DUP9 MSTORE PUSH2 0x3030 DUP4 DUP4 MLOAD PUSH2 0x2DB3 JUMP JUMPDEST PUSH1 0x20 SWAP9 DUP10 ADD SWAP9 SWAP1 SWAP4 POP SWAP2 SWAP1 SWAP2 ADD SWAP1 PUSH1 0x1 ADD PUSH2 0x3014 JUMP JUMPDEST POP SWAP1 SWAP7 SWAP6 POP POP POP POP POP POP JUMP JUMPDEST DUP1 MLOAD DUP3 MSTORE PUSH0 PUSH1 0x20 DUP3 ADD MLOAD PUSH2 0x140 PUSH1 0x20 DUP6 ADD MSTORE PUSH2 0x3072 PUSH2 0x140 DUP6 ADD DUP3 PUSH2 0x2DB3 JUMP JUMPDEST SWAP1 POP PUSH1 0x40 DUP4 ADD MLOAD DUP5 DUP3 SUB PUSH1 0x40 DUP7 ADD MSTORE PUSH2 0x308B DUP3 DUP3 PUSH2 0x2DB3 JUMP JUMPDEST SWAP2 POP POP PUSH1 0x60 DUP4 ADD MLOAD PUSH1 0x60 DUP6 ADD MSTORE PUSH1 0x80 DUP4 ADD MLOAD DUP5 DUP3 SUB PUSH1 0x80 DUP7 ADD MSTORE PUSH2 0x30AF DUP3 DUP3 PUSH2 0x2FF8 JUMP JUMPDEST SWAP2 POP POP PUSH1 0xA0 DUP4 ADD MLOAD PUSH1 0xA0 DUP6 ADD MSTORE PUSH1 0xC0 DUP4 ADD MLOAD PUSH1 0xC0 DUP6 ADD MSTORE PUSH1 0xE0 DUP4 ADD MLOAD PUSH1 0xE0 DUP6 ADD MSTORE PUSH2 0x100 DUP4 ADD MLOAD PUSH2 0x100 DUP6 ADD MSTORE PUSH2 0x120 DUP4 ADD MLOAD PUSH2 0x30F1 PUSH2 0x120 DUP7 ADD DUP3 ISZERO ISZERO SWAP1 MSTORE JUMP JUMPDEST POP SWAP4 SWAP3 POP POP POP JUMP JUMPDEST PUSH1 0x20 DUP2 MSTORE PUSH0 PUSH2 0x2C76 PUSH1 0x20 DUP4 ADD DUP5 PUSH2 0x3052 JUMP JUMPDEST PUSH1 0x1 PUSH1 0x1 PUSH1 0xA0 SHL SUB DUP2 AND DUP2 EQ PUSH2 0x2E05 JUMPI PUSH0 PUSH0 REVERT JUMPDEST PUSH0 PUSH1 0x20 DUP3 DUP5 SUB SLT ISZERO PUSH2 0x312F JUMPI PUSH0 PUSH0 REVERT JUMPDEST DUP2 CALLDATALOAD PUSH2 0x2C76 DUP2 PUSH2 0x310B JUMP JUMPDEST PUSH1 0x20 DUP2 MSTORE DUP2 MLOAD PUSH1 0x20 DUP3 ADD MSTORE PUSH1 0x20 DUP3 ADD MLOAD PUSH1 0x40 DUP3 ADD MSTORE PUSH1 0x40 DUP3 ADD MLOAD PUSH1 0x60 DUP3 ADD MSTORE PUSH0 PUSH1 0x60 DUP4 ADD MLOAD PUSH1 0xA0 PUSH1 0x80 DUP5 ADD MSTORE PUSH2 0x3173 PUSH1 0xC0 DUP5 ADD DUP3 PUSH2 0x2DB3 JUMP JUMPDEST SWAP1 POP PUSH1 0x80 DUP5 ADD MLOAD PUSH2 0x3183 DUP2 PUSH2 0x2DF5 JUMP JUMPDEST PUSH1 0xA0 SWAP4 SWAP1 SWAP4 ADD SWAP3 SWAP1 SWAP3 MSTORE POP SWAP2 SWAP1 POP JUMP JUMPDEST PUSH0 PUSH0 PUSH1 0x40 DUP4 DUP6 SUB SLT ISZERO PUSH2 0x31A4 JUMPI PUSH0 PUSH0 REVERT JUMPDEST DUP3 CALLDATALOAD PUSH2 0x31AF DUP2 PUSH2 0x310B JUMP JUMPDEST SWAP2 POP PUSH1 0x20 DUP4 ADD CALLDATALOAD PUSH2 0x2F2A DUP2 PUSH2 0x310B JUMP JUMPDEST PUSH0 PUSH0 PUSH1 0x40 DUP4 DUP6 SUB SLT ISZERO PUSH2 0x31D0 JUMPI PUSH0 PUSH0 REVERT JUMPDEST POP POP DUP1 CALLDATALOAD SWAP3 PUSH1 0x20 SWAP1 SWAP2 ADD CALLDATALOAD SWAP2 POP JUMP JUMPDEST PUSH0 PUSH0 PUSH0 PUSH0 PUSH0 PUSH0 PUSH0 PUSH1 0x80 DUP9 DUP11 SUB SLT ISZERO PUSH2 0x31F5 JUMPI PUSH0 PUSH0 REVERT JUMPDEST DUP8 CALLDATALOAD PUSH2 0x3200 DUP2 PUSH2 0x310B JUMP JUMPDEST SWAP7 POP PUSH1 0x20 DUP9 ADD CALLDATALOAD PUSH1 0x1 PUSH1 0x1 PUSH1 0x40 SHL SUB DUP2 GT ISZERO PUSH2 0x321A JUMPI PUSH0 PUSH0 REVERT JUMPDEST PUSH2 0x3226 DUP11 DUP3 DUP12 ADD PUSH2 0x2F35 JUMP JUMPDEST SWAP1 SWAP8 POP SWAP6 POP POP PUSH1 0x40 DUP9 ADD CALLDATALOAD PUSH1 0x1 PUSH1 0x1 PUSH1 0x40 SHL SUB DUP2 GT ISZERO PUSH2 0x3244 JUMPI PUSH0 PUSH0 REVERT JUMPDEST PUSH2 0x3250 DUP11 DUP3 DUP12 ADD PUSH2 0x2F35 JUMP JUMPDEST SWAP1 SWAP6 POP SWAP4 POP POP PUSH1 0x60 DUP9 ADD CALLDATALOAD PUSH1 0x1 PUSH1 0x1 PUSH1 0x40 SHL SUB DUP2 GT ISZERO PUSH2 0x326E JUMPI PUSH0 PUSH0 REVERT JUMPDEST PUSH2 0x327A DUP11 DUP3 DUP12 ADD PUSH2 0x2F35 JUMP JUMPDEST SWAP9 SWAP12 SWAP8 SWAP11 POP SWAP6 SWAP9 POP SWAP4 SWAP7 SWAP3 SWAP6 SWAP3 SWAP4 POP POP POP JUMP JUMPDEST PUSH0 PUSH0 PUSH0 PUSH1 0x60 DUP5 DUP7 SUB SLT ISZERO PUSH2 0x329F JUMPI PUSH0 PUSH0 REVERT JUMPDEST POP POP DUP2 CALLDATALOAD SWAP4 PUSH1 0x20 DUP4 ADD CALLDATALOAD SWAP4 POP PUSH1 0x40 SWAP1 SWAP3 ADD CALLDATALOAD SWAP2 SWAP1 POP JUMP JUMPDEST PUSH0 PUSH0 PUSH0 PUSH1 0x60 DUP5 DUP7 SUB SLT ISZERO PUSH2 0x32C8 JUMPI PUSH0 PUSH0 REVERT JUMPDEST DUP4 CALLDATALOAD SWAP3 POP PUSH1 0x20 DUP5 ADD CALLDATALOAD SWAP2 POP PUSH1 0x40 DUP5 ADD CALLDATALOAD PUSH2 0x32E1 DUP2 PUSH2 0x2EFA JUMP JUMPDEST DUP1 SWAP2 POP POP SWAP3 POP SWAP3 POP SWAP3 JUMP JUMPDEST PUSH1 0x20 DUP1 DUP3 MSTORE DUP3 MLOAD DUP3 DUP3 ADD DUP2 SWAP1 MSTORE PUSH0 SWAP2 DUP5 ADD SWAP1 PUSH1 0x40 DUP5 ADD SWAP1 DUP4 JUMPDEST DUP2 DUP2 LT ISZERO PUSH2 0x3323 JUMPI DUP4 MLOAD DUP4 MSTORE PUSH1 0x20 SWAP4 DUP5 ADD SWAP4 SWAP1 SWAP3 ADD SWAP2 PUSH1 0x1 ADD PUSH2 0x3305 JUMP JUMPDEST POP SWAP1 SWAP6 SWAP5 POP POP POP POP POP JUMP JUMPDEST PUSH4 0x4E487B71 PUSH1 0xE0 SHL PUSH0 MSTORE PUSH1 0x41 PUSH1 0x4 MSTORE PUSH1 0x24 PUSH0 REVERT JUMPDEST PUSH1 0x40 MLOAD PUSH1 0x60 DUP2 ADD PUSH1 0x1 PUSH1 0x1 PUSH1 0x40 SHL SUB DUP2 GT DUP3 DUP3 LT OR ISZERO PUSH2 0x3364 JUMPI PUSH2 0x3364 PUSH2 0x332E JUMP JUMPDEST PUSH1 0x40 MSTORE SWAP1 JUMP JUMPDEST PUSH1 0x40 MLOAD PUSH1 0xE0 DUP2 ADD PUSH1 0x1 PUSH1 0x1 PUSH1 0x40 SHL SUB DUP2 GT DUP3 DUP3 LT OR ISZERO PUSH2 0x3364 JUMPI PUSH2 0x3364 PUSH2 0x332E JUMP JUMPDEST PUSH1 0x40 MLOAD PUSH2 0x140 DUP2 ADD PUSH1 0x1 PUSH1 0x1 PUSH1 0x40 SHL SUB DUP2 GT DUP3 DUP3 LT OR ISZERO PUSH2 0x3364 JUMPI PUSH2 0x3364 PUSH2 0x332E JUMP JUMPDEST PUSH1 0x40 MLOAD PUSH1 0xA0 DUP2 ADD PUSH1 0x1 PUSH1 0x1 PUSH1 0x40 SHL SUB DUP2 GT DUP3 DUP3 LT OR ISZERO PUSH2 0x3364 JUMPI PUSH2 0x3364 PUSH2 0x332E JUMP JUMPDEST PUSH1 0x40 MLOAD PUSH2 0x180 DUP2 ADD PUSH1 0x1 PUSH1 0x1 PUSH1 0x40 SHL SUB DUP2 GT DUP3 DUP3 LT OR ISZERO PUSH2 0x3364 JUMPI PUSH2 0x3364 PUSH2 0x332E JUMP JUMPDEST PUSH1 0x40 MLOAD PUSH1 0xC0 DUP2 ADD PUSH1 0x1 PUSH1 0x1 PUSH1 0x40 SHL SUB DUP2 GT DUP3 DUP3 LT OR ISZERO PUSH2 0x3364 JUMPI PUSH2 0x3364 PUSH2 0x332E JUMP JUMPDEST PUSH1 0x40 DUP1 MLOAD SWAP1 DUP2 ADD PUSH1 0x1 PUSH1 0x1 PUSH1 0x40 SHL SUB DUP2 GT DUP3 DUP3 LT OR ISZERO PUSH2 0x3364 JUMPI PUSH2 0x3364 PUSH2 0x332E JUMP JUMPDEST PUSH1 0x40 MLOAD PUSH1 0x1F DUP3 ADD PUSH1 0x1F NOT AND DUP2 ADD PUSH1 0x1 PUSH1 0x1 PUSH1 0x40 SHL SUB DUP2 GT DUP3 DUP3 LT OR ISZERO PUSH2 0x3460 JUMPI PUSH2 0x3460 PUSH2 0x332E JUMP JUMPDEST PUSH1 0x40 MSTORE SWAP2 SWAP1 POP JUMP JUMPDEST PUSH0 PUSH1 0x1 PUSH1 0x1 PUSH1 0x40 SHL SUB DUP3 GT ISZERO PUSH2 0x3480 JUMPI PUSH2 0x3480 PUSH2 0x332E JUMP JUMPDEST POP PUSH1 0x5 SHL PUSH1 0x20 ADD SWAP1 JUMP JUMPDEST PUSH0 PUSH1 0x1 PUSH1 0x1 PUSH1 0x40 SHL SUB DUP3 GT ISZERO PUSH2 0x34A2 JUMPI PUSH2 0x34A2 PUSH2 0x332E JUMP JUMPDEST POP PUSH1 0x1F ADD PUSH1 0x1F NOT AND PUSH1 0x20 ADD SWAP1 JUMP JUMPDEST PUSH0 DUP3 PUSH1 0x1F DUP4 ADD SLT PUSH2 0x34BF JUMPI PUSH0 PUSH0 REVERT JUMPDEST DUP2 CALLDATALOAD PUSH2 0x34D2 PUSH2 0x34CD DUP3 PUSH2 0x348A JUMP JUMPDEST PUSH2 0x3438 JUMP JUMPDEST DUP2 DUP2 MSTORE DUP5 PUSH1 0x20 DUP4 DUP7 ADD ADD GT ISZERO PUSH2 0x34E6 JUMPI PUSH0 PUSH0 REVERT JUMPDEST DUP2 PUSH1 0x20 DUP6 ADD PUSH1 0x20 DUP4 ADD CALLDATACOPY PUSH0 SWAP2 DUP2 ADD PUSH1 0x20 ADD SWAP2 SWAP1 SWAP2 MSTORE SWAP4 SWAP3 POP POP POP JUMP JUMPDEST PUSH0 PUSH1 0x60 DUP3 DUP5 SUB SLT ISZERO PUSH2 0x3512 JUMPI PUSH0 PUSH0 REVERT JUMPDEST PUSH2 0x351A PUSH2 0x3342 JUMP JUMPDEST SWAP1 POP DUP2 CALLDATALOAD PUSH1 0x1 PUSH1 0x1 PUSH1 0x40 SHL SUB DUP2 GT ISZERO PUSH2 0x3531 JUMPI PUSH0 PUSH0 REVERT JUMPDEST PUSH2 0x353D DUP5 DUP3 DUP6 ADD PUSH2 0x34B0 JUMP JUMPDEST DUP3 MSTORE POP PUSH1 0x20 DUP3 DUP2 ADD CALLDATALOAD SWAP1 DUP3 ADD MSTORE PUSH1 0x40 SWAP2 DUP3 ADD CALLDATALOAD SWAP2 DUP2 ADD SWAP2 SWAP1 SWAP2 MSTORE SWAP2 SWAP1 POP JUMP JUMPDEST PUSH0 DUP3 PUSH1 0x1F DUP4 ADD SLT PUSH2 0x356B JUMPI PUSH0 PUSH0 REVERT JUMPDEST DUP2 CALLDATALOAD PUSH2 0x3579 PUSH2 0x34CD DUP3 PUSH2 0x3468 JUMP JUMPDEST DUP1 DUP3 DUP3 MSTORE PUSH1 0x20 DUP3 ADD SWAP2 POP PUSH1 0x20 DUP4 PUSH1 0x5 SHL DUP7 ADD ADD SWAP3 POP DUP6 DUP4 GT ISZERO PUSH2 0x359A JUMPI PUSH0 PUSH0 REVERT JUMPDEST PUSH1 0x20 DUP6 ADD JUMPDEST DUP4 DUP2 LT ISZERO PUSH2 0x35DA JUMPI DUP1 CALLDATALOAD PUSH1 0x1 PUSH1 0x1 PUSH1 0x40 SHL SUB DUP2 GT ISZERO PUSH2 0x35BC JUMPI PUSH0 PUSH0 REVERT JUMPDEST PUSH2 0x35CB DUP9 PUSH1 0x20 DUP4 DUP11 ADD ADD PUSH2 0x3502 JUMP JUMPDEST DUP5 MSTORE POP PUSH1 0x20 SWAP3 DUP4 ADD SWAP3 ADD PUSH2 0x359F JUMP JUMPDEST POP SWAP6 SWAP5 POP POP POP POP POP JUMP JUMPDEST PUSH0 PUSH0 PUSH1 0x40 DUP4 DUP6 SUB SLT ISZERO PUSH2 0x35F5 JUMPI PUSH0 PUSH0 REVERT JUMPDEST DUP3 CALLDATALOAD SWAP2 POP PUSH1 0x20 DUP4 ADD CALLDATALOAD PUSH1 0x1 PUSH1 0x1 PUSH1 0x40 SHL SUB DUP2 GT ISZERO PUSH2 0x3611 JUMPI PUSH0 PUSH0 REVERT JUMPDEST PUSH2 0x361D DUP6 DUP3 DUP7 ADD PUSH2 0x355C JUMP JUMPDEST SWAP2 POP POP SWAP3 POP SWAP3 SWAP1 POP JUMP JUMPDEST PUSH0 DUP3 PUSH1 0x1F DUP4 ADD SLT PUSH2 0x3636 JUMPI PUSH0 PUSH0 REVERT JUMPDEST DUP2 CALLDATALOAD PUSH2 0x3644 PUSH2 0x34CD DUP3 PUSH2 0x3468 JUMP JUMPDEST DUP1 DUP3 DUP3 MSTORE PUSH1 0x20 DUP3 ADD SWAP2 POP PUSH1 0x20 DUP4 PUSH1 0x5 SHL DUP7 ADD ADD SWAP3 POP DUP6 DUP4 GT ISZERO PUSH2 0x3665 JUMPI PUSH0 PUSH0 REVERT JUMPDEST PUSH1 0x20 DUP6 ADD JUMPDEST DUP4 DUP2 LT ISZERO PUSH2 0x35DA JUMPI DUP1 CALLDATALOAD PUSH1 0x1 PUSH1 0x1 PUSH1 0x40 SHL SUB DUP2 GT ISZERO PUSH2 0x3687 JUMPI PUSH0 PUSH0 REVERT JUMPDEST PUSH2 0x3696 DUP9 PUSH1 0x20 DUP4 DUP11 ADD ADD PUSH2 0x34B0 JUMP JUMPDEST DUP5 MSTORE POP PUSH1 0x20 SWAP3 DUP4 ADD SWAP3 ADD PUSH2 0x366A JUMP JUMPDEST PUSH0 PUSH0 PUSH0 PUSH0 PUSH0 PUSH1 0xA0 DUP7 DUP9 SUB SLT ISZERO PUSH2 0x36B9 JUMPI PUSH0 PUSH0 REVERT JUMPDEST DUP6 CALLDATALOAD SWAP5 POP PUSH1 0x20 DUP7 ADD CALLDATALOAD PUSH1 0x1 PUSH1 0x1 PUSH1 0x40 SHL SUB DUP2 GT ISZERO PUSH2 0x36D5 JUMPI PUSH0 PUSH0 REVERT JUMPDEST PUSH2 0x36E1 DUP9 DUP3 DUP10 ADD PUSH2 0x34B0 JUMP JUMPDEST SWAP5 POP POP PUSH1 0x40 DUP7 ADD CALLDATALOAD PUSH1 0x1 PUSH1 0x1 PUSH1 0x40 SHL SUB DUP2 GT ISZERO PUSH2 0x36FC JUMPI PUSH0 PUSH0 REVERT JUMPDEST PUSH2 0x3708 DUP9 DUP3 DUP10 ADD PUSH2 0x34B0 JUMP JUMPDEST SWAP4 POP POP PUSH1 0x60 DUP7 ADD CALLDATALOAD SWAP2 POP PUSH1 0x80 DUP7 ADD CALLDATALOAD PUSH1 0x1 PUSH1 0x1 PUSH1 0x40 SHL SUB DUP2 GT ISZERO PUSH2 0x372A JUMPI PUSH0 PUSH0 REVERT JUMPDEST PUSH2 0x3736 DUP9 DUP3 DUP10 ADD PUSH2 0x3627 JUMP JUMPDEST SWAP2 POP POP SWAP3 SWAP6 POP SWAP3 SWAP6 SWAP1 SWAP4 POP JUMP JUMPDEST PUSH0 PUSH0 PUSH0 PUSH0 PUSH0 PUSH0 PUSH1 0xA0 DUP8 DUP10 SUB SLT ISZERO PUSH2 0x3758 JUMPI PUSH0 PUSH0 REVERT JUMPDEST DUP7 CALLDATALOAD SWAP6 POP PUSH1 0x20 DUP8 ADD CALLDATALOAD SWAP5 POP PUSH1 0x40 DUP8 ADD CALLDATALOAD PUSH1 0x1 PUSH1 0x1 PUSH1 0x40 SHL SUB DUP2 GT ISZERO PUSH2 0x377B JUMPI PUSH0 PUSH0 REVERT JUMPDEST PUSH2 0x3787 DUP10 DUP3 DUP11 ADD PUSH2 0x3627 JUMP JUMPDEST SWAP5 POP POP PUSH1 0x60 DUP8 ADD CALLDATALOAD PUSH1 0x1 PUSH1 0x1 PUSH1 0x40 SHL SUB DUP2 GT ISZERO PUSH2 0x37A2 JUMPI PUSH0 PUSH0 REVERT JUMPDEST PUSH2 0x37AE DUP10 DUP3 DUP11 ADD PUSH2 0x2F35 JUMP JUMPDEST SWAP1 SWAP5 POP SWAP3 POP POP PUSH1 0x80 DUP8 ADD CALLDATALOAD PUSH2 0x37C2 DUP2 PUSH2 0x2F79 JUMP JUMPDEST DUP1 SWAP2 POP POP SWAP3 SWAP6 POP SWAP3 SWAP6 POP SWAP3 SWAP6 JUMP JUMPDEST PUSH0 PUSH0 PUSH1 0x40 DUP4 DUP6 SUB SLT ISZERO PUSH2 0x37E1 JUMPI PUSH0 PUSH0 REVERT JUMPDEST DUP3 CALLDATALOAD SWAP2 POP PUSH1 0x20 DUP4 ADD CALLDATALOAD PUSH1 0x1 PUSH1 0x1 PUSH1 0x40 SHL SUB DUP2 GT ISZERO PUSH2 0x37FD JUMPI PUSH0 PUSH0 REVERT JUMPDEST PUSH2 0x361D DUP6 DUP3 DUP7 ADD PUSH2 0x34B0 JUMP JUMPDEST PUSH1 0x3 DUP2 LT PUSH2 0x2E05 JUMPI PUSH0 PUSH0 REVERT JUMPDEST PUSH0 PUSH0 PUSH0 PUSH1 0x60 DUP5 DUP7 SUB SLT ISZERO PUSH2 0x3827 JUMPI PUSH0 PUSH0 REVERT JUMPDEST DUP4 CALLDATALOAD SWAP3 POP PUSH1 0x20 DUP5 ADD CALLDATALOAD SWAP2 POP PUSH1 0x40 DUP5 ADD CALLDATALOAD PUSH2 0x32E1 DUP2 PUSH2 0x3809 JUMP JUMPDEST PUSH0 PUSH0 PUSH0 PUSH0 PUSH0 PUSH0 PUSH1 0xC0 DUP8 DUP10 SUB SLT ISZERO PUSH2 0x3855 JUMPI PUSH0 PUSH0 REVERT JUMPDEST DUP7 CALLDATALOAD PUSH2 0x3860 DUP2 PUSH2 0x310B JUMP JUMPDEST SWAP6 POP PUSH1 0x20 DUP8 ADD CALLDATALOAD SWAP5 POP PUSH1 0x40 DUP8 ADD CALLDATALOAD PUSH1 0x1 PUSH1 0x1 PUSH1 0x40 SHL SUB DUP2 GT ISZERO PUSH2 0x3881 JUMPI PUSH0 PUSH0 REVERT JUMPDEST PUSH2 0x388D DUP10 DUP3 DUP11 ADD PUSH2 0x34B0 JUMP JUMPDEST SWAP5 POP POP PUSH1 0x60 DUP8 ADD CALLDATALOAD PUSH1 0x1 PUSH1 0x1 PUSH1 0x40 SHL SUB DUP2 GT ISZERO PUSH2 0x38A8 JUMPI PUSH0 PUSH0 REVERT JUMPDEST PUSH2 0x38B4 DUP10 DUP3 DUP11 ADD PUSH2 0x34B0 JUMP JUMPDEST SWAP4 POP POP PUSH1 0x80 DUP8 ADD CALLDATALOAD SWAP2 POP PUSH1 0xA0 DUP8 ADD CALLDATALOAD PUSH1 0x1 PUSH1 0x1 PUSH1 0x40 SHL SUB DUP2 GT ISZERO PUSH2 0x38D6 JUMPI PUSH0 PUSH0 REVERT JUMPDEST DUP8 ADD PUSH1 0x1F DUP2 ADD DUP10 SGT PUSH2 0x38E6 JUMPI PUSH0 PUSH0 REVERT JUMPDEST DUP1 CALLDATALOAD PUSH2 0x38F4 PUSH2 0x34CD DUP3 PUSH2 0x3468 JUMP JUMPDEST DUP1 DUP3 DUP3 MSTORE PUSH1 0x20 DUP3 ADD SWAP2 POP PUSH1 0x20 PUSH1 0x60 DUP5 MUL DUP6 ADD ADD SWAP3 POP DUP12 DUP4 GT ISZERO PUSH2 0x3915 JUMPI PUSH0 PUSH0 REVERT JUMPDEST PUSH1 0x20 DUP5 ADD SWAP4 POP JUMPDEST DUP3 DUP5 LT ISZERO PUSH2 0x3966 JUMPI PUSH1 0x60 DUP5 DUP14 SUB SLT ISZERO PUSH2 0x3933 JUMPI PUSH0 PUSH0 REVERT JUMPDEST PUSH2 0x393B PUSH2 0x3342 JUMP JUMPDEST DUP5 CALLDATALOAD DUP2 MSTORE PUSH1 0x20 DUP1 DUP7 ADD CALLDATALOAD DUP2 DUP4 ADD MSTORE PUSH1 0x40 DUP1 DUP8 ADD CALLDATALOAD SWAP1 DUP4 ADD MSTORE SWAP1 DUP4 MSTORE PUSH1 0x60 SWAP1 SWAP5 ADD SWAP4 SWAP2 SWAP1 SWAP2 ADD SWAP1 PUSH2 0x391C JUMP JUMPDEST DUP1 SWAP5 POP POP POP POP POP SWAP3 SWAP6 POP SWAP3 SWAP6 POP SWAP3 SWAP6 JUMP JUMPDEST PUSH1 0x3 DUP2 LT PUSH2 0x3987 JUMPI PUSH2 0x3987 PUSH2 0x2DE1 JUMP JUMPDEST SWAP1 MSTORE JUMP JUMPDEST PUSH0 DUP2 MLOAD DUP1 DUP5 MSTORE PUSH1 0x20 DUP5 ADD SWAP4 POP PUSH1 0x20 DUP4 ADD PUSH0 JUMPDEST DUP3 DUP2 LT ISZERO PUSH2 0x3A05 JUMPI DUP2 MLOAD DUP1 MLOAD DUP8 MSTORE PUSH1 0x20 DUP2 ADD MLOAD PUSH1 0x20 DUP9 ADD MSTORE PUSH1 0x40 DUP2 ADD MLOAD PUSH1 0x40 DUP9 ADD MSTORE PUSH1 0x60 DUP2 ADD MLOAD PUSH1 0x60 DUP9 ADD MSTORE PUSH1 0x80 DUP2 ADD MLOAD PUSH1 0x80 DUP9 ADD MSTORE PUSH1 0xA0 DUP2 ADD MLOAD PUSH2 0x39E5 PUSH1 0xA0 DUP10 ADD DUP3 PUSH2 0x3977 JUMP JUMPDEST POP PUSH1 0xC0 SWAP1 DUP2 ADD MLOAD SWAP1 DUP8 ADD MSTORE PUSH1 0xE0 SWAP1 SWAP6 ADD SWAP5 PUSH1 0x20 SWAP2 SWAP1 SWAP2 ADD SWAP1 PUSH1 0x1 ADD PUSH2 0x399D JUMP JUMPDEST POP SWAP4 SWAP5 SWAP4 POP POP POP POP JUMP JUMPDEST PUSH1 0x4 DUP2 LT PUSH2 0x3987 JUMPI PUSH2 0x3987 PUSH2 0x2DE1 JUMP JUMPDEST DUP1 MLOAD DUP3 MSTORE PUSH0 PUSH1 0x20 DUP3 ADD MLOAD PUSH2 0x3A3E PUSH1 0x20 DUP6 ADD DUP3 PUSH1 0x1 PUSH1 0x1 PUSH1 0xA0 SHL SUB AND SWAP1 MSTORE JUMP JUMPDEST POP PUSH1 0x40 DUP3 ADD MLOAD PUSH2 0x180 PUSH1 0x40 DUP6 ADD MSTORE PUSH2 0x3A5A PUSH2 0x180 DUP6 ADD DUP3 PUSH2 0x2DB3 JUMP JUMPDEST SWAP1 POP PUSH1 0x60 DUP4 ADD MLOAD DUP5 DUP3 SUB PUSH1 0x60 DUP7 ADD MSTORE PUSH2 0x3A73 DUP3 DUP3 PUSH2 0x2DB3 JUMP JUMPDEST SWAP2 POP POP PUSH1 0x80 DUP4 ADD MLOAD DUP5 DUP3 SUB PUSH1 0x80 DUP7 ADD MSTORE PUSH2 0x3A8D DUP3 DUP3 PUSH2 0x2DB3 JUMP JUMPDEST SWAP2 POP POP PUSH1 0xA0 DUP4 ADD MLOAD DUP5 DUP3 SUB PUSH1 0xA0 DUP7 ADD MSTORE PUSH2 0x3AA7 DUP3 DUP3 PUSH2 0x2DB3 JUMP JUMPDEST SWAP2 POP POP PUSH1 0xC0 DUP4 ADD MLOAD PUSH2 0x3AC4 PUSH1 0xC0 DUP7 ADD DUP3 PUSH1 0x1 PUSH1 0x1 PUSH1 0xA0 SHL SUB AND SWAP1 MSTORE JUMP JUMPDEST POP PUSH1 0xE0 DUP4 ADD MLOAD PUSH1 0xE0 DUP6 ADD MSTORE PUSH2 0x100 DUP4 ADD MLOAD DUP5 DUP3 SUB PUSH2 0x100 DUP7 ADD MSTORE PUSH2 0x3AE8 DUP3 DUP3 PUSH2 0x398B JUMP JUMPDEST SWAP2 POP POP PUSH2 0x120 DUP4 ADD MLOAD PUSH2 0x120 DUP6 ADD MSTORE PUSH2 0x140 DUP4 ADD MLOAD PUSH2 0x3B0B PUSH2 0x140 DUP7 ADD DUP3 PUSH2 0x3A0F JUMP JUMPDEST POP PUSH2 0x160 DUP4 ADD MLOAD PUSH2 0x160 DUP6 ADD MSTORE DUP1 SWAP2 POP POP SWAP3 SWAP2 POP POP JUMP JUMPDEST PUSH1 0x20 DUP2 MSTORE PUSH0 PUSH2 0x2C76 PUSH1 0x20 DUP4 ADD DUP5 PUSH2 0x3A1F JUMP JUMPDEST PUSH1 0x4 DUP2 LT PUSH2 0x2E05 JUMPI PUSH0 PUSH0 REVERT JUMPDEST PUSH0 PUSH1 0x20 DUP3 DUP5 SUB SLT ISZERO PUSH2 0x3B50 JUMPI PUSH0 PUSH0 REVERT JUMPDEST DUP2 CALLDATALOAD PUSH2 0x2C76 DUP2 PUSH2 0x3B34 JUMP JUMPDEST PUSH0 PUSH1 0x20 DUP3 ADD PUSH1 0x20 DUP4 MSTORE DUP1 DUP5 MLOAD DUP1 DUP4 MSTORE PUSH1 0x40 DUP6 ADD SWAP2 POP PUSH1 0x40 DUP2 PUSH1 0x5 SHL DUP7 ADD ADD SWAP3 POP PUSH1 0x20 DUP7 ADD PUSH0 JUMPDEST DUP3 DUP2 LT ISZERO PUSH2 0x2EEE JUMPI PUSH1 0x3F NOT DUP8 DUP7 SUB ADD DUP5 MSTORE PUSH2 0x3B9D DUP6 DUP4 MLOAD PUSH2 0x3A1F JUMP JUMPDEST SWAP5 POP PUSH1 0x20 SWAP4 DUP5 ADD SWAP4 SWAP2 SWAP1 SWAP2 ADD SWAP1 PUSH1 0x1 ADD PUSH2 0x3B81 JUMP JUMPDEST PUSH0 PUSH0 PUSH0 PUSH0 PUSH0 PUSH0 PUSH1 0xA0 DUP8 DUP10 SUB SLT ISZERO PUSH2 0x3BC7 JUMPI PUSH0 PUSH0 REVERT JUMPDEST DUP7 CALLDATALOAD PUSH2 0x3BD2 DUP2 PUSH2 0x310B JUMP JUMPDEST SWAP6 POP PUSH1 0x20 DUP8 ADD CALLDATALOAD SWAP5 POP PUSH1 0x40 DUP8 ADD CALLDATALOAD PUSH1 0x1 PUSH1 0x1 PUSH1 0x40 SHL SUB DUP2 GT ISZERO PUSH2 0x3BF3 JUMPI PUSH0 PUSH0 REVERT JUMPDEST PUSH2 0x3BFF DUP10 DUP3 DUP11 ADD PUSH2 0x2F35 JUMP JUMPDEST SWAP1 SWAP6 POP SWAP4 POP POP PUSH1 0x60 DUP8 ADD CALLDATALOAD PUSH1 0x1 PUSH1 0x1 PUSH1 0x40 SHL SUB DUP2 GT ISZERO PUSH2 0x3C1D JUMPI PUSH0 PUSH0 REVERT JUMPDEST PUSH2 0x3C29 DUP10 DUP3 DUP11 ADD PUSH2 0x3627 JUMP JUMPDEST SWAP3 POP POP PUSH1 0x80 DUP8 ADD CALLDATALOAD PUSH2 0x37C2 DUP2 PUSH2 0x2F79 JUMP JUMPDEST PUSH0 PUSH0 PUSH1 0x40 DUP4 DUP6 SUB SLT ISZERO PUSH2 0x3C4B JUMPI PUSH0 PUSH0 REVERT JUMPDEST DUP3 CALLDATALOAD SWAP2 POP PUSH1 0x20 DUP4 ADD CALLDATALOAD PUSH2 0x2F2A DUP2 PUSH2 0x3B34 JUMP JUMPDEST PUSH0 PUSH0 PUSH1 0x40 DUP4 DUP6 SUB SLT ISZERO PUSH2 0x3C6E JUMPI PUSH0 PUSH0 REVERT JUMPDEST DUP3 CALLDATALOAD SWAP2 POP PUSH1 0x20 DUP4 ADD CALLDATALOAD PUSH2 0x2F2A DUP2 PUSH2 0x310B JUMP JUMPDEST PUSH0 DUP3 DUP3 MLOAD DUP1 DUP6 MSTORE PUSH1 0x20 DUP6 ADD SWAP5 POP PUSH1 0x20 DUP2 PUSH1 0x5 SHL DUP4 ADD ADD PUSH1 0x20 DUP6 ADD PUSH0 JUMPDEST DUP4 DUP2 LT ISZERO PUSH2 0x3046 JUMPI PUSH1 0x1F NOT DUP6 DUP5 SUB ADD DUP9 MSTORE DUP2 MLOAD DUP1 MLOAD DUP5 MSTORE PUSH1 0x20 DUP2 ADD MLOAD PUSH1 0xC0 PUSH1 0x20 DUP7 ADD MSTORE PUSH2 0x3CCC PUSH1 0xC0 DUP7 ADD DUP3 PUSH2 0x2DB3 JUMP JUMPDEST PUSH1 0x40 DUP4 DUP2 ADD MLOAD SWAP1 DUP8 ADD MSTORE PUSH1 0x60 DUP1 DUP5 ADD MLOAD SWAP1 DUP8 ADD MSTORE PUSH1 0x80 DUP1 DUP5 ADD MLOAD SWAP1 DUP8 ADD MSTORE PUSH1 0xA0 SWAP3 DUP4 ADD MLOAD ISZERO ISZERO SWAP3 SWAP1 SWAP6 ADD SWAP2 SWAP1 SWAP2 MSTORE POP PUSH1 0x20 SWAP8 DUP9 ADD SWAP8 SWAP2 SWAP1 SWAP2 ADD SWAP1 PUSH1 0x1 ADD PUSH2 0x3C9C JUMP JUMPDEST PUSH1 0x20 DUP2 MSTORE PUSH0 PUSH2 0x2C76 PUSH1 0x20 DUP4 ADD DUP5 PUSH2 0x3C80 JUMP JUMPDEST PUSH0 PUSH1 0x20 DUP3 ADD PUSH1 0x20 DUP4 MSTORE DUP1 DUP5 MLOAD DUP1 DUP4 MSTORE PUSH1 0x40 DUP6 ADD SWAP2 POP PUSH1 0x40 DUP2 PUSH1 0x5 SHL DUP7 ADD ADD SWAP3 POP PUSH1 0x20 DUP7 ADD PUSH0 JUMPDEST DUP3 DUP2 LT ISZERO PUSH2 0x2EEE JUMPI PUSH1 0x3F NOT DUP8 DUP7 SUB ADD DUP5 MSTORE DUP2 MLOAD DUP1 MLOAD DUP7 MSTORE PUSH1 0x1 DUP1 PUSH1 0xA0 SHL SUB PUSH1 0x20 DUP3 ADD MLOAD AND PUSH1 0x20 DUP8 ADD MSTORE PUSH1 0x1 DUP1 PUSH1 0xA0 SHL SUB PUSH1 0x40 DUP3 ADD MLOAD AND PUSH1 0x40 DUP8 ADD MSTORE PUSH1 0x60 DUP2 ADD MLOAD PUSH1 0xE0 PUSH1 0x60 DUP9 ADD MSTORE PUSH2 0x3D9A PUSH1 0xE0 DUP9 ADD DUP3 PUSH2 0x2DB3 JUMP JUMPDEST SWAP1 POP PUSH1 0x80 DUP3 ADD MLOAD DUP8 DUP3 SUB PUSH1 0x80 DUP10 ADD MSTORE PUSH2 0x3DB3 DUP3 DUP3 PUSH2 0x2FF8 JUMP JUMPDEST PUSH1 0xA0 DUP5 DUP2 ADD MLOAD PUSH1 0xFF AND SWAP1 DUP11 ADD MSTORE PUSH1 0xC0 SWAP4 DUP5 ADD MLOAD SWAP4 SWAP1 SWAP9 ADD SWAP3 SWAP1 SWAP3 MSTORE POP POP PUSH1 0x20 SWAP4 DUP5 ADD SWAP4 SWAP2 SWAP1 SWAP2 ADD SWAP1 PUSH1 0x1 ADD PUSH2 0x3D46 JUMP JUMPDEST PUSH0 PUSH0 PUSH0 PUSH0 PUSH0 PUSH0 PUSH1 0xC0 DUP8 DUP10 SUB SLT ISZERO PUSH2 0x3DF8 JUMPI PUSH0 PUSH0 REVERT JUMPDEST DUP7 CALLDATALOAD SWAP6 POP PUSH1 0x20 DUP8 ADD CALLDATALOAD PUSH1 0x1 PUSH1 0x1 PUSH1 0x40 SHL SUB DUP2 GT ISZERO PUSH2 0x3E14 JUMPI PUSH0 PUSH0 REVERT JUMPDEST PUSH2 0x3E20 DUP10 DUP3 DUP11 ADD PUSH2 0x34B0 JUMP JUMPDEST SWAP6 POP POP PUSH1 0x40 DUP8 ADD CALLDATALOAD PUSH1 0x1 PUSH1 0x1 PUSH1 0x40 SHL SUB DUP2 GT ISZERO PUSH2 0x3E3B JUMPI PUSH0 PUSH0 REVERT JUMPDEST PUSH2 0x3E47 DUP10 DUP3 DUP11 ADD PUSH2 0x34B0 JUMP JUMPDEST SWAP5 POP POP PUSH1 0x60 DUP8 ADD CALLDATALOAD SWAP3 POP PUSH1 0x80 DUP8 ADD CALLDATALOAD PUSH1 0x1 PUSH1 0x1 PUSH1 0x40 SHL SUB DUP2 GT ISZERO PUSH2 0x3E69 JUMPI PUSH0 PUSH0 REVERT JUMPDEST PUSH2 0x3E75 DUP10 DUP3 DUP11 ADD PUSH2 0x3627 JUMP JUMPDEST SWAP3 POP POP PUSH1 0xA0 DUP8 ADD CALLDATALOAD PUSH1 0x1 PUSH1 0x1 PUSH1 0x40 SHL SUB DUP2 GT ISZERO PUSH2 0x3E90 JUMPI PUSH0 PUSH0 REVERT JUMPDEST PUSH2 0x3E9C DUP10 DUP3 DUP11 ADD PUSH2 0x355C JUMP JUMPDEST SWAP2 POP POP SWAP3 SWAP6 POP SWAP3 SWAP6 POP SWAP3 SWAP6 JUMP JUMPDEST PUSH1 0x2 DUP2 LT PUSH2 0x2E05 JUMPI PUSH0 PUSH0 REVERT JUMPDEST PUSH0 PUSH0 PUSH1 0x40 DUP4 DUP6 SUB SLT ISZERO PUSH2 0x3EC6 JUMPI PUSH0 PUSH0 REVERT JUMPDEST DUP3 CALLDATALOAD SWAP2 POP PUSH1 0x20 DUP4 ADD CALLDATALOAD PUSH2 0x2F2A DUP2 PUSH2 0x3EA9 JUMP JUMPDEST PUSH0 PUSH1 0x20 DUP3 ADD PUSH1 0x20 DUP4 MSTORE DUP1 DUP5 MLOAD DUP1 DUP4 MSTORE PUSH1 0x40 DUP6 ADD SWAP2 POP PUSH1 0x40 DUP2 PUSH1 0x5 SHL DUP7 ADD ADD SWAP3 POP PUSH1 0x20 DUP7 ADD PUSH0 JUMPDEST DUP3 DUP2 LT ISZERO PUSH2 0x2EEE JUMPI PUSH1 0x3F NOT DUP8 DUP7 SUB ADD DUP5 MSTORE DUP2 MLOAD DUP1 MLOAD PUSH1 0x40 DUP8 MSTORE PUSH2 0x3F24 PUSH1 0x40 DUP9 ADD DUP3 PUSH2 0x3052 JUMP JUMPDEST SWAP1 POP PUSH1 0x20 DUP3 ADD MLOAD SWAP2 POP DUP7 DUP2 SUB PUSH1 0x20 DUP9 ADD MSTORE PUSH2 0x3F3F DUP2 DUP4 PUSH2 0x3C80 JUMP JUMPDEST SWAP7 POP POP POP PUSH1 0x20 SWAP4 DUP5 ADD SWAP4 SWAP2 SWAP1 SWAP2 ADD SWAP1 PUSH1 0x1 ADD PUSH2 0x3EFE JUMP JUMPDEST PUSH0 PUSH0 PUSH0 PUSH1 0x60 DUP5 DUP7 SUB SLT ISZERO PUSH2 0x3F68 JUMPI PUSH0 PUSH0 REVERT JUMPDEST DUP4 CALLDATALOAD SWAP3 POP PUSH1 0x20 DUP5 ADD CALLDATALOAD SWAP2 POP PUSH1 0x40 DUP5 ADD CALLDATALOAD PUSH1 0x1 PUSH1 0x1 PUSH1 0x40 SHL SUB DUP2 GT ISZERO PUSH2 0x3F8B JUMPI PUSH0 PUSH0 REVERT JUMPDEST PUSH2 0x3F97 DUP7 DUP3 DUP8 ADD PUSH2 0x3502 JUMP JUMPDEST SWAP2 POP POP SWAP3 POP SWAP3 POP SWAP3 JUMP JUMPDEST PUSH0 PUSH0 PUSH0 PUSH0 PUSH1 0x80 DUP6 DUP8 SUB SLT ISZERO PUSH2 0x3FB4 JUMPI PUSH0 PUSH0 REVERT JUMPDEST DUP5 CALLDATALOAD SWAP4 POP PUSH1 0x20 DUP6 ADD CALLDATALOAD SWAP3 POP PUSH1 0x40 DUP6 ADD CALLDATALOAD SWAP2 POP PUSH1 0x60 DUP6 ADD CALLDATALOAD PUSH1 0x1 PUSH1 0x1 PUSH1 0x40 SHL SUB DUP2 GT ISZERO PUSH2 0x3FDE JUMPI PUSH0 PUSH0 REVERT JUMPDEST PUSH2 0x3FEA DUP8 DUP3 DUP9 ADD PUSH2 0x34B0 JUMP JUMPDEST SWAP2 POP POP SWAP3 SWAP6 SWAP2 SWAP5 POP SWAP3 POP JUMP JUMPDEST DUP1 MLOAD DUP3 MSTORE PUSH0 PUSH1 0x20 DUP3 ADD MLOAD PUSH1 0x40 PUSH1 0x20 DUP6 ADD MSTORE PUSH2 0x4014 PUSH1 0x40 DUP6 ADD DUP3 PUSH2 0x2DB3 JUMP JUMPDEST SWAP5 SWAP4 POP POP POP POP JUMP JUMPDEST PUSH0 PUSH1 0x20 DUP3 ADD PUSH1 0x20 DUP4 MSTORE DUP1 DUP5 MLOAD DUP1 DUP4 MSTORE PUSH1 0x40 DUP6 ADD SWAP2 POP PUSH1 0x40 DUP2 PUSH1 0x5 SHL DUP7 ADD ADD SWAP3 POP PUSH1 0x20 DUP7 ADD PUSH0 JUMPDEST DUP3 DUP2 LT ISZERO PUSH2 0x2EEE JUMPI PUSH1 0x3F NOT DUP8 DUP7 SUB ADD DUP5 MSTORE PUSH2 0x405E DUP6 DUP4 MLOAD PUSH2 0x3FF6 JUMP JUMPDEST SWAP5 POP PUSH1 0x20 SWAP4 DUP5 ADD SWAP4 SWAP2 SWAP1 SWAP2 ADD SWAP1 PUSH1 0x1 ADD PUSH2 0x4042 JUMP JUMPDEST PUSH1 0x20 DUP2 MSTORE PUSH0 PUSH2 0x2C76 PUSH1 0x20 DUP4 ADD DUP5 PUSH2 0x2E08 JUMP JUMPDEST PUSH1 0x20 DUP2 MSTORE PUSH0 PUSH2 0x2C76 PUSH1 0x20 DUP4 ADD DUP5 PUSH2 0x3FF6 JUMP JUMPDEST PUSH0 PUSH1 0x20 DUP3 ADD PUSH1 0x20 DUP4 MSTORE DUP1 DUP5 MLOAD DUP1 DUP4 MSTORE PUSH1 0x40 DUP6 ADD SWAP2 POP PUSH1 0x40 DUP2 PUSH1 0x5 SHL DUP7 ADD ADD SWAP3 POP PUSH1 0x20 DUP7 ADD PUSH0 JUMPDEST DUP3 DUP2 LT ISZERO PUSH2 0x2EEE JUMPI PUSH1 0x3F NOT DUP8 DUP7 SUB ADD DUP5 MSTORE DUP2 MLOAD DUP1 MLOAD DUP7 MSTORE PUSH1 0x1 DUP1 PUSH1 0xA0 SHL SUB PUSH1 0x20 DUP3 ADD MLOAD AND PUSH1 0x20 DUP8 ADD MSTORE PUSH1 0x40 DUP2 ADD MLOAD PUSH1 0xE0 PUSH1 0x40 DUP9 ADD MSTORE PUSH2 0x40FF PUSH1 0xE0 DUP9 ADD DUP3 PUSH2 0x2FF8 JUMP JUMPDEST SWAP1 POP PUSH1 0x60 DUP3 ADD MLOAD PUSH1 0x60 DUP9 ADD MSTORE PUSH1 0x80 DUP3 ADD MLOAD DUP8 DUP3 SUB PUSH1 0x80 DUP10 ADD MSTORE PUSH2 0x4122 DUP3 DUP3 PUSH2 0x2DB3 JUMP JUMPDEST PUSH1 0xA0 DUP5 DUP2 ADD MLOAD PUSH1 0xFF AND SWAP1 DUP11 ADD MSTORE PUSH1 0xC0 SWAP4 DUP5 ADD MLOAD SWAP4 SWAP1 SWAP9 ADD SWAP3 SWAP1 SWAP3 MSTORE POP POP PUSH1 0x20 SWAP4 DUP5 ADD SWAP4 SWAP2 SWAP1 SWAP2 ADD SWAP1 PUSH1 0x1 ADD PUSH2 0x40BD JUMP JUMPDEST PUSH0 PUSH0 PUSH0 PUSH1 0x60 DUP5 DUP7 SUB SLT ISZERO PUSH2 0x4164 JUMPI PUSH0 PUSH0 REVERT JUMPDEST DUP4 CALLDATALOAD SWAP3 POP PUSH1 0x20 DUP5 ADD CALLDATALOAD SWAP2 POP PUSH1 0x40 DUP5 ADD CALLDATALOAD PUSH1 0x1 PUSH1 0x1 PUSH1 0x40 SHL SUB DUP2 GT ISZERO PUSH2 0x4187 JUMPI PUSH0 PUSH0 REVERT JUMPDEST PUSH2 0x3F97 DUP7 DUP3 DUP8 ADD PUSH2 0x34B0 JUMP JUMPDEST DUP1 MLOAD PUSH2 0x19E0 DUP2 PUSH2 0x310B JUMP JUMPDEST PUSH0 DUP3 PUSH1 0x1F DUP4 ADD SLT PUSH2 0x41AD JUMPI PUSH0 PUSH0 REVERT JUMPDEST DUP2 MLOAD PUSH2 0x41BB PUSH2 0x34CD DUP3 PUSH2 0x348A JUMP JUMPDEST DUP2 DUP2 MSTORE DUP5 PUSH1 0x20 DUP4 DUP7 ADD ADD GT ISZERO PUSH2 0x41CF JUMPI PUSH0 PUSH0 REVERT JUMPDEST DUP2 PUSH1 0x20 DUP6 ADD PUSH1 0x20 DUP4 ADD MCOPY PUSH0 SWAP2 DUP2 ADD PUSH1 0x20 ADD SWAP2 SWAP1 SWAP2 MSTORE SWAP4 SWAP3 POP POP POP JUMP JUMPDEST DUP1 MLOAD PUSH2 0x19E0 DUP2 PUSH2 0x3EA9 JUMP JUMPDEST PUSH0 PUSH1 0xE0 DUP3 DUP5 SUB SLT ISZERO PUSH2 0x4206 JUMPI PUSH0 PUSH0 REVERT JUMPDEST PUSH2 0x420E PUSH2 0x336A JUMP JUMPDEST SWAP1 POP PUSH2 0x4219 DUP3 PUSH2 0x4193 JUMP JUMPDEST DUP2 MSTORE PUSH1 0x20 DUP3 ADD MLOAD PUSH1 0x1 PUSH1 0x1 PUSH1 0x40 SHL SUB DUP2 GT ISZERO PUSH2 0x4233 JUMPI PUSH0 PUSH0 REVERT JUMPDEST PUSH2 0x423F DUP5 DUP3 DUP6 ADD PUSH2 0x419E JUMP JUMPDEST PUSH1 0x20 DUP4 ADD MSTORE POP PUSH1 0x40 DUP3 ADD MLOAD PUSH1 0x1 PUSH1 0x1 PUSH1 0x40 SHL SUB DUP2 GT ISZERO PUSH2 0x425D JUMPI PUSH0 PUSH0 REVERT JUMPDEST PUSH2 0x4269 DUP5 DUP3 DUP6 ADD PUSH2 0x419E JUMP JUMPDEST PUSH1 0x40 DUP4 ADD MSTORE POP PUSH1 0x60 DUP3 ADD MLOAD PUSH1 0x1 PUSH1 0x1 PUSH1 0x40 SHL SUB DUP2 GT ISZERO PUSH2 0x4287 JUMPI PUSH0 PUSH0 REVERT JUMPDEST PUSH2 0x4293 DUP5 DUP3 DUP6 ADD PUSH2 0x419E JUMP JUMPDEST PUSH1 0x60 DUP4 ADD MSTORE POP PUSH1 0x80 DUP3 DUP2 ADD MLOAD SWAP1 DUP3 ADD MSTORE PUSH1 0xA0 DUP1 DUP4 ADD MLOAD SWAP1 DUP3 ADD MSTORE PUSH2 0x42B9 PUSH1 0xC0 DUP4 ADD PUSH2 0x41EB JUMP JUMPDEST PUSH1 0xC0 DUP3 ADD MSTORE SWAP3 SWAP2 POP POP JUMP JUMPDEST PUSH0 PUSH1 0x20 DUP3 DUP5 SUB SLT ISZERO PUSH2 0x42D4 JUMPI PUSH0 PUSH0 REVERT JUMPDEST DUP2 MLOAD PUSH1 0x1 PUSH1 0x1 PUSH1 0x40 SHL SUB DUP2 GT ISZERO PUSH2 0x42E9 JUMPI PUSH0 PUSH0 REVERT JUMPDEST DUP3 ADD PUSH1 0x1F DUP2 ADD DUP5 SGT PUSH2 0x42F9 JUMPI PUSH0 PUSH0 REVERT JUMPDEST DUP1 MLOAD PUSH2 0x4307 PUSH2 0x34CD DUP3 PUSH2 0x3468 JUMP JUMPDEST DUP1 DUP3 DUP3 MSTORE PUSH1 0x20 DUP3 ADD SWAP2 POP PUSH1 0x20 DUP4 PUSH1 0x5 SHL DUP6 ADD ADD SWAP3 POP DUP7 DUP4 GT ISZERO PUSH2 0x4328 JUMPI PUSH0 PUSH0 REVERT JUMPDEST PUSH1 0x20 DUP5 ADD JUMPDEST DUP4 DUP2 LT ISZERO PUSH2 0x4368 JUMPI DUP1 MLOAD PUSH1 0x1 PUSH1 0x1 PUSH1 0x40 SHL SUB DUP2 GT ISZERO PUSH2 0x434A JUMPI PUSH0 PUSH0 REVERT JUMPDEST PUSH2 0x4359 DUP10 PUSH1 0x20 DUP4 DUP10 ADD ADD PUSH2 0x41F6 JUMP JUMPDEST DUP5 MSTORE POP PUSH1 0x20 SWAP3 DUP4 ADD SWAP3 ADD PUSH2 0x432D JUMP JUMPDEST POP SWAP7 SWAP6 POP POP POP POP POP POP JUMP JUMPDEST PUSH1 0x1 PUSH1 0x1 PUSH1 0xA0 SHL SUB DUP4 AND DUP2 MSTORE PUSH1 0x40 DUP2 ADD PUSH2 0x438C DUP4 PUSH2 0x2DF5 JUMP JUMPDEST DUP3 PUSH1 0x20 DUP4 ADD MSTORE SWAP4 SWAP3 POP POP POP JUMP JUMPDEST DUP1 MLOAD PUSH2 0x19E0 DUP2 PUSH2 0x2EFA JUMP JUMPDEST PUSH0 PUSH1 0x20 DUP3 DUP5 SUB SLT ISZERO PUSH2 0x43B4 JUMPI PUSH0 PUSH0 REVERT JUMPDEST DUP2 MLOAD PUSH2 0x2C76 DUP2 PUSH2 0x2EFA JUMP JUMPDEST PUSH1 0x20 DUP1 DUP3 MSTORE PUSH1 0x9 SWAP1 DUP3 ADD MSTORE PUSH9 0x2737BA1030B236B4B7 PUSH1 0xB9 SHL PUSH1 0x40 DUP3 ADD MSTORE PUSH1 0x60 ADD SWAP1 JUMP JUMPDEST DUP2 DUP4 MSTORE DUP2 DUP2 PUSH1 0x20 DUP6 ADD CALLDATACOPY POP PUSH0 DUP3 DUP3 ADD PUSH1 0x20 SWAP1 DUP2 ADD SWAP2 SWAP1 SWAP2 MSTORE PUSH1 0x1F SWAP1 SWAP2 ADD PUSH1 0x1F NOT AND SWAP1 SWAP2 ADD ADD SWAP1 JUMP JUMPDEST DUP5 DUP2 MSTORE PUSH1 0x60 PUSH1 0x20 DUP3 ADD MSTORE PUSH0 PUSH2 0x4423 PUSH1 0x60 DUP4 ADD DUP6 DUP8 PUSH2 0x43E2 JUMP JUMPDEST SWAP1 POP PUSH1 0xFF DUP4 AND PUSH1 0x40 DUP4 ADD MSTORE SWAP6 SWAP5 POP POP POP POP POP JUMP JUMPDEST PUSH0 DUP3 PUSH1 0x1F DUP4 ADD SLT PUSH2 0x4446 JUMPI PUSH0 PUSH0 REVERT JUMPDEST DUP2 MLOAD PUSH2 0x4454 PUSH2 0x34CD DUP3 PUSH2 0x3468 JUMP JUMPDEST DUP1 DUP3 DUP3 MSTORE PUSH1 0x20 DUP3 ADD SWAP2 POP PUSH1 0x20 DUP4 PUSH1 0x5 SHL DUP7 ADD ADD SWAP3 POP DUP6 DUP4 GT ISZERO PUSH2 0x4475 JUMPI PUSH0 PUSH0 REVERT JUMPDEST PUSH1 0x20 DUP6 ADD JUMPDEST DUP4 DUP2 LT ISZERO PUSH2 0x35DA JUMPI DUP1 MLOAD PUSH1 0x1 PUSH1 0x1 PUSH1 0x40 SHL SUB DUP2 GT ISZERO PUSH2 0x4497 JUMPI PUSH0 PUSH0 REVERT JUMPDEST PUSH2 0x44A6 DUP9 PUSH1 0x20 DUP4 DUP11 ADD ADD PUSH2 0x419E JUMP JUMPDEST DUP5 MSTORE POP PUSH1 0x20 SWAP3 DUP4 ADD SWAP3 ADD PUSH2 0x447A JUMP JUMPDEST PUSH0 PUSH2 0x140 DUP3 DUP5 SUB SLT ISZERO PUSH2 0x44C6 JUMPI PUSH0 PUSH0 REVERT JUMPDEST PUSH2 0x44CE PUSH2 0x338C JUMP JUMPDEST DUP3 MLOAD DUP2 MSTORE PUSH1 0x20 DUP4 ADD MLOAD SWAP1 SWAP2 POP PUSH1 0x1 PUSH1 0x1 PUSH1 0x40 SHL SUB DUP2 GT ISZERO PUSH2 0x44ED JUMPI PUSH0 PUSH0 REVERT JUMPDEST PUSH2 0x44F9 DUP5 DUP3 DUP6 ADD PUSH2 0x419E JUMP JUMPDEST PUSH1 0x20 DUP4 ADD MSTORE POP PUSH1 0x40 DUP3 ADD MLOAD PUSH1 0x1 PUSH1 0x1 PUSH1 0x40 SHL SUB DUP2 GT ISZERO PUSH2 0x4517 JUMPI PUSH0 PUSH0 REVERT JUMPDEST PUSH2 0x4523 DUP5 DUP3 DUP6 ADD PUSH2 0x419E JUMP JUMPDEST PUSH1 0x40 DUP4 ADD MSTORE POP PUSH1 0x60 DUP3 DUP2 ADD MLOAD SWAP1 DUP3 ADD MSTORE PUSH1 0x80 DUP3 ADD MLOAD PUSH1 0x1 PUSH1 0x1 PUSH1 0x40 SHL SUB DUP2 GT ISZERO PUSH2 0x454B JUMPI PUSH0 PUSH0 REVERT JUMPDEST PUSH2 0x4557 DUP5 DUP3 DUP6 ADD PUSH2 0x4437 JUMP JUMPDEST PUSH1 0x80 DUP4 ADD MSTORE POP PUSH1 0xA0 DUP3 DUP2 ADD MLOAD SWAP1 DUP3 ADD MSTORE PUSH1 0xC0 DUP1 DUP4 ADD MLOAD SWAP1 DUP3 ADD MSTORE PUSH1 0xE0 DUP1 DUP4 ADD MLOAD SWAP1 DUP3 ADD MSTORE PUSH2 0x100 DUP1 DUP4 ADD MLOAD SWAP1 DUP3 ADD MSTORE PUSH2 0x4593 PUSH2 0x120 DUP4 ADD PUSH2 0x4399 JUMP JUMPDEST PUSH2 0x120 DUP3 ADD MSTORE SWAP3 SWAP2 POP POP JUMP JUMPDEST PUSH0 PUSH1 0x20 DUP3 DUP5 SUB SLT ISZERO PUSH2 0x45AF JUMPI PUSH0 PUSH0 REVERT JUMPDEST DUP2 MLOAD PUSH1 0x1 PUSH1 0x1 PUSH1 0x40 SHL SUB DUP2 GT ISZERO PUSH2 0x45C4 JUMPI PUSH0 PUSH0 REVERT JUMPDEST PUSH2 0x4014 DUP5 DUP3 DUP6 ADD PUSH2 0x44B5 JUMP JUMPDEST PUSH1 0x20 DUP1 DUP3 MSTORE PUSH1 0xF SWAP1 DUP3 ADD MSTORE PUSH15 0x496E76616C69642061646472657373 PUSH1 0x88 SHL PUSH1 0x40 DUP3 ADD MSTORE PUSH1 0x60 ADD SWAP1 JUMP JUMPDEST PUSH0 PUSH1 0x20 DUP3 DUP5 SUB SLT ISZERO PUSH2 0x4609 JUMPI PUSH0 PUSH0 REVERT JUMPDEST DUP2 MLOAD PUSH1 0x1 PUSH1 0x1 PUSH1 0x40 SHL SUB DUP2 GT ISZERO PUSH2 0x461E JUMPI PUSH0 PUSH0 REVERT JUMPDEST DUP3 ADD PUSH1 0xA0 DUP2 DUP6 SUB SLT ISZERO PUSH2 0x462F JUMPI PUSH0 PUSH0 REVERT JUMPDEST PUSH2 0x4637 PUSH2 0x33AF JUMP JUMPDEST DUP2 MLOAD DUP2 MSTORE PUSH1 0x20 DUP1 DUP4 ADD MLOAD SWAP1 DUP3 ADD MSTORE PUSH1 0x40 DUP1 DUP4 ADD MLOAD SWAP1 DUP3 ADD MSTORE PUSH1 0x60 DUP3 ADD MLOAD PUSH1 0x1 PUSH1 0x1 PUSH1 0x40 SHL SUB DUP2 GT ISZERO PUSH2 0x4667 JUMPI PUSH0 PUSH0 REVERT JUMPDEST PUSH2 0x4673 DUP7 DUP3 DUP6 ADD PUSH2 0x419E JUMP JUMPDEST PUSH1 0x60 DUP4 ADD MSTORE POP PUSH1 0x80 DUP3 ADD MLOAD SWAP2 POP PUSH2 0x4689 DUP3 PUSH2 0x3EA9 JUMP JUMPDEST PUSH1 0x80 DUP2 ADD SWAP2 SWAP1 SWAP2 MSTORE SWAP4 SWAP3 POP POP POP JUMP JUMPDEST PUSH1 0x1 PUSH1 0x1 PUSH1 0xA0 SHL SUB DUP9 AND DUP2 MSTORE PUSH1 0x80 PUSH1 0x20 DUP3 ADD DUP2 SWAP1 MSTORE PUSH0 SWAP1 PUSH2 0x46BC SWAP1 DUP4 ADD DUP9 DUP11 PUSH2 0x43E2 JUMP JUMPDEST DUP3 DUP2 SUB PUSH1 0x40 DUP5 ADD MSTORE PUSH2 0x46CF DUP2 DUP8 DUP10 PUSH2 0x43E2 JUMP JUMPDEST SWAP1 POP DUP3 DUP2 SUB PUSH1 0x60 DUP5 ADD MSTORE PUSH2 0x46E4 DUP2 DUP6 DUP8 PUSH2 0x43E2 JUMP JUMPDEST SWAP11 SWAP10 POP POP POP POP POP POP POP POP POP POP JUMP JUMPDEST PUSH0 PUSH1 0x20 DUP3 DUP5 SUB SLT ISZERO PUSH2 0x4702 JUMPI PUSH0 PUSH0 REVERT JUMPDEST DUP2 MLOAD PUSH1 0x1 PUSH1 0x1 PUSH1 0x40 SHL SUB DUP2 GT ISZERO PUSH2 0x4717 JUMPI PUSH0 PUSH0 REVERT JUMPDEST DUP3 ADD PUSH1 0x1F DUP2 ADD DUP5 SGT PUSH2 0x4727 JUMPI PUSH0 PUSH0 REVERT JUMPDEST DUP1 MLOAD PUSH2 0x4735 PUSH2 0x34CD DUP3 PUSH2 0x3468 JUMP JUMPDEST DUP1 DUP3 DUP3 MSTORE PUSH1 0x20 DUP3 ADD SWAP2 POP PUSH1 0x20 DUP4 PUSH1 0x5 SHL DUP6 ADD ADD SWAP3 POP DUP7 DUP4 GT ISZERO PUSH2 0x4756 JUMPI PUSH0 PUSH0 REVERT JUMPDEST PUSH1 0x20 DUP5 ADD SWAP4 POP JUMPDEST DUP3 DUP5 LT ISZERO PUSH2 0x4778 JUMPI DUP4 MLOAD DUP3 MSTORE PUSH1 0x20 SWAP4 DUP5 ADD SWAP4 SWAP1 SWAP2 ADD SWAP1 PUSH2 0x475D JUMP JUMPDEST SWAP7 SWAP6 POP POP POP POP POP POP JUMP JUMPDEST PUSH0 DUP2 MLOAD PUSH1 0x60 DUP5 MSTORE PUSH2 0x4796 PUSH1 0x60 DUP6 ADD DUP3 PUSH2 0x2DB3 JUMP JUMPDEST SWAP1 POP PUSH1 0x20 DUP4 ADD MLOAD PUSH1 0x20 DUP6 ADD MSTORE PUSH1 0x40 DUP4 ADD MLOAD PUSH1 0x40 DUP6 ADD MSTORE DUP1 SWAP2 POP POP SWAP3 SWAP2 POP POP JUMP JUMPDEST PUSH0 DUP3 DUP3 MLOAD DUP1 DUP6 MSTORE PUSH1 0x20 DUP6 ADD SWAP5 POP PUSH1 0x20 DUP2 PUSH1 0x5 SHL DUP4 ADD ADD PUSH1 0x20 DUP6 ADD PUSH0 JUMPDEST DUP4 DUP2 LT ISZERO PUSH2 0x3046 JUMPI PUSH1 0x1F NOT DUP6 DUP5 SUB ADD DUP9 MSTORE PUSH2 0x47EE DUP4 DUP4 MLOAD PUSH2 0x4782 JUMP JUMPDEST PUSH1 0x20 SWAP9 DUP10 ADD SWAP9 SWAP1 SWAP4 POP SWAP2 SWAP1 SWAP2 ADD SWAP1 PUSH1 0x1 ADD PUSH2 0x47D2 JUMP JUMPDEST DUP3 DUP2 MSTORE PUSH1 0x40 PUSH1 0x20 DUP3 ADD MSTORE PUSH0 PUSH2 0x2C73 PUSH1 0x40 DUP4 ADD DUP5 PUSH2 0x47B6 JUMP JUMPDEST DUP6 DUP2 MSTORE PUSH1 0xA0 PUSH1 0x20 DUP3 ADD MSTORE PUSH0 PUSH2 0x4834 PUSH1 0xA0 DUP4 ADD DUP8 PUSH2 0x2DB3 JUMP JUMPDEST DUP3 DUP2 SUB PUSH1 0x40 DUP5 ADD MSTORE PUSH2 0x4846 DUP2 DUP8 PUSH2 0x2DB3 JUMP JUMPDEST SWAP1 POP DUP5 PUSH1 0x60 DUP5 ADD MSTORE DUP3 DUP2 SUB PUSH1 0x80 DUP5 ADD MSTORE PUSH2 0x4860 DUP2 DUP6 PUSH2 0x2FF8 JUMP JUMPDEST SWAP9 SWAP8 POP POP POP POP POP POP POP POP JUMP JUMPDEST DUP7 DUP2 MSTORE DUP6 PUSH1 0x20 DUP3 ADD MSTORE PUSH1 0xA0 PUSH1 0x40 DUP3 ADD MSTORE PUSH0 PUSH2 0x488A PUSH1 0xA0 DUP4 ADD DUP8 PUSH2 0x2FF8 JUMP JUMPDEST DUP3 DUP2 SUB PUSH1 0x60 DUP5 ADD MSTORE PUSH2 0x489D DUP2 DUP7 DUP9 PUSH2 0x43E2 JUMP JUMPDEST SWAP2 POP POP PUSH1 0xFF DUP4 AND PUSH1 0x80 DUP4 ADD MSTORE SWAP8 SWAP7 POP POP POP POP POP POP POP JUMP JUMPDEST PUSH0 PUSH1 0x20 DUP3 DUP5 SUB SLT ISZERO PUSH2 0x48C4 JUMPI PUSH0 PUSH0 REVERT JUMPDEST POP MLOAD SWAP2 SWAP1 POP JUMP JUMPDEST PUSH1 0x20 DUP1 DUP3 MSTORE PUSH1 0x1C SWAP1 DUP3 ADD MSTORE PUSH32 0x43617465676F72794D616E61676572206E6F74206465706C6F79656400000000 PUSH1 0x40 DUP3 ADD MSTORE PUSH1 0x60 ADD SWAP1 JUMP JUMPDEST DUP3 DUP2 MSTORE PUSH1 0x40 PUSH1 0x20 DUP3 ADD MSTORE PUSH0 PUSH2 0x2C73 PUSH1 0x40 DUP4 ADD DUP5 PUSH2 0x2DB3 JUMP JUMPDEST PUSH0 PUSH1 0x20 DUP3 DUP5 SUB SLT ISZERO PUSH2 0x492A JUMPI PUSH0 PUSH0 REVERT JUMPDEST DUP2 MLOAD PUSH2 0x2C76 DUP2 PUSH2 0x310B JUMP JUMPDEST PUSH1 0x20 DUP1 DUP3 MSTORE PUSH1 0x12 SWAP1 DUP3 ADD MSTORE PUSH18 0x2737BA1030B236B4B71037B91039BA30B333 PUSH1 0x71 SHL PUSH1 0x40 DUP3 ADD MSTORE PUSH1 0x60 ADD SWAP1 JUMP JUMPDEST DUP4 DUP2 MSTORE PUSH1 0x20 DUP2 ADD DUP4 SWAP1 MSTORE PUSH1 0x60 DUP2 ADD PUSH2 0x4014 PUSH1 0x40 DUP4 ADD DUP5 PUSH2 0x3977 JUMP JUMPDEST PUSH1 0x1 DUP1 PUSH1 0xA0 SHL SUB DUP8 AND DUP2 MSTORE DUP6 PUSH1 0x20 DUP3 ADD MSTORE PUSH1 0xC0 PUSH1 0x40 DUP3 ADD MSTORE PUSH0 PUSH2 0x49A2 PUSH1 0xC0 DUP4 ADD DUP8 PUSH2 0x2DB3 JUMP JUMPDEST DUP3 DUP2 SUB PUSH1 0x60 DUP5 ADD MSTORE PUSH2 0x49B4 DUP2 DUP8 PUSH2 0x2DB3 JUMP JUMPDEST PUSH1 0x80 DUP5 ADD DUP7 SWAP1 MSTORE DUP4 DUP2 SUB PUSH1 0xA0 DUP6 ADD MSTORE DUP5 MLOAD DUP1 DUP3 MSTORE PUSH1 0x20 DUP1 DUP8 ADD SWAP4 POP SWAP1 SWAP2 ADD SWAP1 PUSH0 JUMPDEST DUP2 DUP2 LT ISZERO PUSH2 0x4A0F JUMPI DUP4 MLOAD DUP1 MLOAD DUP5 MSTORE PUSH1 0x20 DUP2 ADD MLOAD PUSH1 0x20 DUP6 ADD MSTORE PUSH1 0x40 DUP2 ADD MLOAD PUSH1 0x40 DUP6 ADD MSTORE POP PUSH1 0x60 DUP4 ADD SWAP3 POP PUSH1 0x20 DUP5 ADD SWAP4 POP PUSH1 0x1 DUP2 ADD SWAP1 POP PUSH2 0x49D5 JUMP JUMPDEST POP SWAP1 SWAP11 SWAP10 POP POP POP POP POP POP POP POP POP POP JUMP JUMPDEST PUSH0 DUP3 PUSH1 0x1F DUP4 ADD SLT PUSH2 0x4A2E JUMPI PUSH0 PUSH0 REVERT JUMPDEST DUP2 MLOAD PUSH2 0x4A3C PUSH2 0x34CD DUP3 PUSH2 0x3468 JUMP JUMPDEST DUP1 DUP3 DUP3 MSTORE PUSH1 0x20 DUP3 ADD SWAP2 POP PUSH1 0x20 PUSH1 0xE0 DUP5 MUL DUP7 ADD ADD SWAP3 POP DUP6 DUP4 GT ISZERO PUSH2 0x4A5D JUMPI PUSH0 PUSH0 REVERT JUMPDEST PUSH1 0x20 DUP6 ADD JUMPDEST DUP4 DUP2 LT ISZERO PUSH2 0x35DA JUMPI PUSH1 0xE0 DUP2 DUP9 SUB SLT ISZERO PUSH2 0x4A79 JUMPI PUSH0 PUSH0 REVERT JUMPDEST PUSH2 0x4A81 PUSH2 0x336A JUMP JUMPDEST DUP2 MLOAD DUP2 MSTORE PUSH1 0x20 DUP1 DUP4 ADD MLOAD SWAP1 DUP3 ADD MSTORE PUSH1 0x40 DUP1 DUP4 ADD MLOAD SWAP1 DUP3 ADD MSTORE PUSH1 0x60 DUP1 DUP4 ADD MLOAD SWAP1 DUP3 ADD MSTORE PUSH1 0x80 DUP1 DUP4 ADD MLOAD SWAP1 DUP3 ADD MSTORE PUSH1 0xA0 DUP3 ADD MLOAD PUSH2 0x4ABB DUP2 PUSH2 0x3809 JUMP JUMPDEST PUSH1 0xA0 DUP3 ADD MSTORE PUSH1 0xC0 DUP3 DUP2 ADD MLOAD SWAP1 DUP3 ADD MSTORE DUP4 MSTORE PUSH1 0x20 SWAP1 SWAP3 ADD SWAP2 PUSH1 0xE0 ADD PUSH2 0x4A62 JUMP JUMPDEST DUP1 MLOAD PUSH2 0x19E0 DUP2 PUSH2 0x3B34 JUMP JUMPDEST PUSH0 PUSH2 0x180 DUP3 DUP5 SUB SLT ISZERO PUSH2 0x4AF6 JUMPI PUSH0 PUSH0 REVERT JUMPDEST PUSH2 0x4AFE PUSH2 0x33D1 JUMP JUMPDEST DUP3 MLOAD DUP2 MSTORE SWAP1 POP PUSH2 0x4B10 PUSH1 0x20 DUP4 ADD PUSH2 0x4193 JUMP JUMPDEST PUSH1 0x20 DUP3 ADD MSTORE PUSH1 0x40 DUP3 ADD MLOAD PUSH1 0x1 PUSH1 0x1 PUSH1 0x40 SHL SUB DUP2 GT ISZERO PUSH2 0x4B2D JUMPI PUSH0 PUSH0 REVERT JUMPDEST PUSH2 0x4B39 DUP5 DUP3 DUP6 ADD PUSH2 0x419E JUMP JUMPDEST PUSH1 0x40 DUP4 ADD MSTORE POP PUSH1 0x60 DUP3 ADD MLOAD PUSH1 0x1 PUSH1 0x1 PUSH1 0x40 SHL SUB DUP2 GT ISZERO PUSH2 0x4B57 JUMPI PUSH0 PUSH0 REVERT JUMPDEST PUSH2 0x4B63 DUP5 DUP3 DUP6 ADD PUSH2 0x419E JUMP JUMPDEST PUSH1 0x60 DUP4 ADD MSTORE POP PUSH1 0x80 DUP3 ADD MLOAD PUSH1 0x1 PUSH1 0x1 PUSH1 0x40 SHL SUB DUP2 GT ISZERO PUSH2 0x4B81 JUMPI PUSH0 PUSH0 REVERT JUMPDEST PUSH2 0x4B8D DUP5 DUP3 DUP6 ADD PUSH2 0x419E JUMP JUMPDEST PUSH1 0x80 DUP4 ADD MSTORE POP PUSH1 0xA0 DUP3 ADD MLOAD PUSH1 0x1 PUSH1 0x1 PUSH1 0x40 SHL SUB DUP2 GT ISZERO PUSH2 0x4BAB JUMPI PUSH0 PUSH0 REVERT JUMPDEST PUSH2 0x4BB7 DUP5 DUP3 DUP6 ADD PUSH2 0x419E JUMP JUMPDEST PUSH1 0xA0 DUP4 ADD MSTORE POP PUSH2 0x4BC9 PUSH1 0xC0 DUP4 ADD PUSH2 0x4193 JUMP JUMPDEST PUSH1 0xC0 DUP3 ADD MSTORE PUSH1 0xE0 DUP3 DUP2 ADD MLOAD SWAP1 DUP3 ADD MSTORE PUSH2 0x100 DUP3 ADD MLOAD PUSH1 0x1 PUSH1 0x1 PUSH1 0x40 SHL SUB DUP2 GT ISZERO PUSH2 0x4BF1 JUMPI PUSH0 PUSH0 REVERT JUMPDEST PUSH2 0x4BFD DUP5 DUP3 DUP6 ADD PUSH2 0x4A1F JUMP JUMPDEST PUSH2 0x100 DUP4 ADD MSTORE POP PUSH2 0x120 DUP3 DUP2 ADD MLOAD SWAP1 DUP3 ADD MSTORE PUSH2 0x4C1C PUSH2 0x140 DUP4 ADD PUSH2 0x4ADA JUMP JUMPDEST PUSH2 0x140 DUP3 ADD MSTORE PUSH2 0x160 SWAP2 DUP3 ADD MLOAD SWAP2 DUP2 ADD SWAP2 SWAP1 SWAP2 MSTORE SWAP2 SWAP1 POP JUMP JUMPDEST PUSH0 PUSH1 0x20 DUP3 DUP5 SUB SLT ISZERO PUSH2 0x4C45 JUMPI PUSH0 PUSH0 REVERT JUMPDEST DUP2 MLOAD PUSH1 0x1 PUSH1 0x1 PUSH1 0x40 SHL SUB DUP2 GT ISZERO PUSH2 0x4C5A JUMPI PUSH0 PUSH0 REVERT JUMPDEST PUSH2 0x4014 DUP5 DUP3 DUP6 ADD PUSH2 0x4AE5 JUMP JUMPDEST PUSH1 0x20 DUP2 ADD PUSH2 0xB66 DUP3 DUP5 PUSH2 0x3A0F JUMP JUMPDEST PUSH0 PUSH1 0x20 DUP3 DUP5 SUB SLT ISZERO PUSH2 0x4C84 JUMPI PUSH0 PUSH0 REVERT JUMPDEST DUP2 MLOAD PUSH1 0x1 PUSH1 0x1 PUSH1 0x40 SHL SUB DUP2 GT ISZERO PUSH2 0x4C99 JUMPI PUSH0 PUSH0 REVERT JUMPDEST DUP3 ADD PUSH1 0x1F DUP2 ADD DUP5 SGT PUSH2 0x4CA9 JUMPI PUSH0 PUSH0 REVERT JUMPDEST DUP1 MLOAD PUSH2 0x4CB7 PUSH2 0x34CD DUP3 PUSH2 0x3468 JUMP JUMPDEST DUP1 DUP3 DUP3 MSTORE PUSH1 0x20 DUP3 ADD SWAP2 POP PUSH1 0x20 DUP4 PUSH1 0x5 SHL DUP6 ADD ADD SWAP3 POP DUP7 DUP4 GT ISZERO PUSH2 0x4CD8 JUMPI PUSH0 PUSH0 REVERT JUMPDEST PUSH1 0x20 DUP5 ADD JUMPDEST DUP4 DUP2 LT ISZERO PUSH2 0x4368 JUMPI DUP1 MLOAD PUSH1 0x1 PUSH1 0x1 PUSH1 0x40 SHL SUB DUP2 GT ISZERO PUSH2 0x4CFA JUMPI PUSH0 PUSH0 REVERT JUMPDEST PUSH2 0x4D09 DUP10 PUSH1 0x20 DUP4 DUP10 ADD ADD PUSH2 0x4AE5 JUMP JUMPDEST DUP5 MSTORE POP PUSH1 0x20 SWAP3 DUP4 ADD SWAP3 ADD PUSH2 0x4CDD JUMP JUMPDEST PUSH1 0x1 DUP1 PUSH1 0xA0 SHL SUB DUP8 AND DUP2 MSTORE DUP6 PUSH1 0x20 DUP3 ADD MSTORE PUSH1 0xA0 PUSH1 0x40 DUP3 ADD MSTORE PUSH0 PUSH2 0x4D3F PUSH1 0xA0 DUP4 ADD DUP7 DUP9 PUSH2 0x43E2 JUMP JUMPDEST DUP3 DUP2 SUB PUSH1 0x60 DUP5 ADD MSTORE PUSH2 0x489D DUP2 DUP7 PUSH2 0x2FF8 JUMP JUMPDEST DUP3 DUP2 MSTORE PUSH1 0x40 DUP2 ADD PUSH2 0x2C76 PUSH1 0x20 DUP4 ADD DUP5 PUSH2 0x3A0F JUMP JUMPDEST PUSH0 DUP3 PUSH1 0x1F DUP4 ADD SLT PUSH2 0x4D74 JUMPI PUSH0 PUSH0 REVERT JUMPDEST DUP2 MLOAD PUSH2 0x4D82 PUSH2 0x34CD DUP3 PUSH2 0x3468 JUMP JUMPDEST DUP1 DUP3 DUP3 MSTORE PUSH1 0x20 DUP3 ADD SWAP2 POP PUSH1 0x20 DUP4 PUSH1 0x5 SHL DUP7 ADD ADD SWAP3 POP DUP6 DUP4 GT ISZERO PUSH2 0x4DA3 JUMPI PUSH0 PUSH0 REVERT JUMPDEST PUSH1 0x20 DUP6 ADD JUMPDEST DUP4 DUP2 LT ISZERO PUSH2 0x35DA JUMPI DUP1 MLOAD PUSH1 0x1 PUSH1 0x1 PUSH1 0x40 SHL SUB DUP2 GT ISZERO PUSH2 0x4DC5 JUMPI PUSH0 PUSH0 REVERT JUMPDEST DUP7 ADD PUSH1 0xC0 DUP2 DUP10 SUB PUSH1 0x1F NOT ADD SLT ISZERO PUSH2 0x4DDA JUMPI PUSH0 PUSH0 REVERT JUMPDEST PUSH2 0x4DE2 PUSH2 0x33F4 JUMP JUMPDEST PUSH1 0x20 DUP3 ADD MLOAD DUP2 MSTORE PUSH1 0x40 DUP3 ADD MLOAD PUSH1 0x1 PUSH1 0x1 PUSH1 0x40 SHL SUB DUP2 GT ISZERO PUSH2 0x4E01 JUMPI PUSH0 PUSH0 REVERT JUMPDEST PUSH2 0x4E10 DUP11 PUSH1 0x20 DUP4 DUP7 ADD ADD PUSH2 0x419E JUMP JUMPDEST PUSH1 0x20 DUP4 ADD MSTORE POP PUSH1 0x60 DUP3 DUP2 ADD MLOAD PUSH1 0x40 DUP4 ADD MSTORE PUSH1 0x80 DUP1 DUP5 ADD MLOAD SWAP2 DUP4 ADD SWAP2 SWAP1 SWAP2 MSTORE PUSH1 0xA0 DUP4 ADD MLOAD SWAP1 DUP3 ADD MSTORE PUSH1 0xC0 SWAP1 SWAP2 ADD MLOAD SWAP1 PUSH2 0x4E47 DUP3 PUSH2 0x2EFA JUMP JUMPDEST PUSH1 0xA0 DUP2 ADD SWAP2 SWAP1 SWAP2 MSTORE DUP4 MSTORE PUSH1 0x20 SWAP3 DUP4 ADD SWAP3 ADD PUSH2 0x4DA8 JUMP JUMPDEST PUSH0 PUSH1 0x20 DUP3 DUP5 SUB SLT ISZERO PUSH2 0x4E6D JUMPI PUSH0 PUSH0 REVERT JUMPDEST DUP2 MLOAD PUSH1 0x1 PUSH1 0x1 PUSH1 0x40 SHL SUB DUP2 GT ISZERO PUSH2 0x4E82 JUMPI PUSH0 PUSH0 REVERT JUMPDEST PUSH2 0x4014 DUP5 DUP3 DUP6 ADD PUSH2 0x4D65 JUMP JUMPDEST DUP1 MLOAD PUSH2 0x19E0 DUP2 PUSH2 0x2F79 JUMP JUMPDEST PUSH0 PUSH1 0x20 DUP3 DUP5 SUB SLT ISZERO PUSH2 0x4EA9 JUMPI PUSH0 PUSH0 REVERT JUMPDEST DUP2 MLOAD PUSH1 0x1 PUSH1 0x1 PUSH1 0x40 SHL SUB DUP2 GT ISZERO PUSH2 0x4EBE JUMPI PUSH0 PUSH0 REVERT JUMPDEST DUP3 ADD PUSH1 0x1F DUP2 ADD DUP5 SGT PUSH2 0x4ECE JUMPI PUSH0 PUSH0 REVERT JUMPDEST DUP1 MLOAD PUSH2 0x4EDC PUSH2 0x34CD DUP3 PUSH2 0x3468 JUMP JUMPDEST DUP1 DUP3 DUP3 MSTORE PUSH1 0x20 DUP3 ADD SWAP2 POP PUSH1 0x20 DUP4 PUSH1 0x5 SHL DUP6 ADD ADD SWAP3 POP DUP7 DUP4 GT ISZERO PUSH2 0x4EFD JUMPI PUSH0 PUSH0 REVERT JUMPDEST PUSH1 0x20 DUP5 ADD JUMPDEST DUP4 DUP2 LT ISZERO PUSH2 0x4368 JUMPI DUP1 MLOAD PUSH1 0x1 PUSH1 0x1 PUSH1 0x40 SHL SUB DUP2 GT ISZERO PUSH2 0x4F1F JUMPI PUSH0 PUSH0 REVERT JUMPDEST DUP6 ADD PUSH1 0xE0 DUP2 DUP11 SUB PUSH1 0x1F NOT ADD SLT ISZERO PUSH2 0x4F34 JUMPI PUSH0 PUSH0 REVERT JUMPDEST PUSH2 0x4F3C PUSH2 0x336A JUMP JUMPDEST PUSH1 0x20 DUP3 ADD MLOAD DUP2 MSTORE PUSH2 0x4F4F PUSH1 0x40 DUP4 ADD PUSH2 0x4193 JUMP JUMPDEST PUSH1 0x20 DUP3 ADD MSTORE PUSH2 0x4F60 PUSH1 0x60 DUP4 ADD PUSH2 0x4193 JUMP JUMPDEST PUSH1 0x40 DUP3 ADD MSTORE PUSH1 0x80 DUP3 ADD MLOAD PUSH1 0x1 PUSH1 0x1 PUSH1 0x40 SHL SUB DUP2 GT ISZERO PUSH2 0x4F7D JUMPI PUSH0 PUSH0 REVERT JUMPDEST PUSH2 0x4F8C DUP12 PUSH1 0x20 DUP4 DUP7 ADD ADD PUSH2 0x419E JUMP JUMPDEST PUSH1 0x60 DUP4 ADD MSTORE POP PUSH1 0xA0 DUP3 ADD MLOAD PUSH1 0x1 PUSH1 0x1 PUSH1 0x40 SHL SUB DUP2 GT ISZERO PUSH2 0x4FAA JUMPI PUSH0 PUSH0 REVERT JUMPDEST PUSH2 0x4FB9 DUP12 PUSH1 0x20 DUP4 DUP7 ADD ADD PUSH2 0x4437 JUMP JUMPDEST PUSH1 0x80 DUP4 ADD MSTORE POP PUSH2 0x4FCB PUSH1 0xC0 DUP4 ADD PUSH2 0x4E8E JUMP JUMPDEST PUSH1 0xA0 DUP3 ADD MSTORE PUSH1 0xE0 SWAP2 SWAP1 SWAP2 ADD MLOAD PUSH1 0xC0 DUP3 ADD MSTORE DUP4 MSTORE PUSH1 0x20 SWAP3 DUP4 ADD SWAP3 ADD PUSH2 0x4F02 JUMP JUMPDEST DUP7 DUP2 MSTORE PUSH1 0xC0 PUSH1 0x20 DUP3 ADD MSTORE PUSH0 PUSH2 0x5002 PUSH1 0xC0 DUP4 ADD DUP9 PUSH2 0x2DB3 JUMP JUMPDEST DUP3 DUP2 SUB PUSH1 0x40 DUP5 ADD MSTORE PUSH2 0x5014 DUP2 DUP9 PUSH2 0x2DB3 JUMP JUMPDEST SWAP1 POP DUP6 PUSH1 0x60 DUP5 ADD MSTORE DUP3 DUP2 SUB PUSH1 0x80 DUP5 ADD MSTORE PUSH2 0x502E DUP2 DUP7 PUSH2 0x2FF8 JUMP JUMPDEST SWAP1 POP DUP3 DUP2 SUB PUSH1 0xA0 DUP5 ADD MSTORE PUSH2 0x5042 DUP2 DUP6 PUSH2 0x47B6 JUMP JUMPDEST SWAP10 SWAP9 POP POP POP POP POP POP POP POP POP JUMP JUMPDEST DUP3 DUP2 MSTORE PUSH1 0x40 DUP2 ADD PUSH2 0x438C DUP4 PUSH2 0x2DF5 JUMP JUMPDEST PUSH0 PUSH1 0x20 DUP3 DUP5 SUB SLT ISZERO PUSH2 0x506F JUMPI PUSH0 PUSH0 REVERT JUMPDEST DUP2 MLOAD PUSH1 0x1 PUSH1 0x1 PUSH1 0x40 SHL SUB DUP2 GT ISZERO PUSH2 0x5084 JUMPI PUSH0 PUSH0 REVERT JUMPDEST DUP3 ADD PUSH1 0x1F DUP2 ADD DUP5 SGT PUSH2 0x5094 JUMPI PUSH0 PUSH0 REVERT JUMPDEST DUP1 MLOAD PUSH2 0x50A2 PUSH2 0x34CD DUP3 PUSH2 0x3468 JUMP JUMPDEST DUP1 DUP3 DUP3 MSTORE PUSH1 0x20 DUP3 ADD SWAP2 POP PUSH1 0x20 DUP4 PUSH1 0x5 SHL DUP6 ADD ADD SWAP3 POP DUP7 DUP4 GT ISZERO PUSH2 0x50C3 JUMPI PUSH0 PUSH0 REVERT JUMPDEST PUSH1 0x20 DUP5 ADD JUMPDEST DUP4 DUP2 LT ISZERO PUSH2 0x4368 JUMPI DUP1 MLOAD PUSH1 0x1 PUSH1 0x1 PUSH1 0x40 SHL SUB DUP2 GT ISZERO PUSH2 0x50E5 JUMPI PUSH0 PUSH0 REVERT JUMPDEST DUP6 ADD PUSH1 0x40 DUP2 DUP11 SUB PUSH1 0x1F NOT ADD SLT ISZERO PUSH2 0x50FA JUMPI PUSH0 PUSH0 REVERT JUMPDEST PUSH2 0x5102 PUSH2 0x3416 JUMP JUMPDEST PUSH1 0x20 DUP3 ADD MLOAD PUSH1 0x1 PUSH1 0x1 PUSH1 0x40 SHL SUB DUP2 GT ISZERO PUSH2 0x511A JUMPI PUSH0 PUSH0 REVERT JUMPDEST PUSH2 0x5129 DUP12 PUSH1 0x20 DUP4 DUP7 ADD ADD PUSH2 0x44B5 JUMP JUMPDEST DUP3 MSTORE POP PUSH1 0x40 DUP3 ADD MLOAD PUSH1 0x1 PUSH1 0x1 PUSH1 0x40 SHL SUB DUP2 GT ISZERO PUSH2 0x5144 JUMPI PUSH0 PUSH0 REVERT JUMPDEST PUSH2 0x5153 DUP12 PUSH1 0x20 DUP4 DUP7 ADD ADD PUSH2 0x4D65 JUMP JUMPDEST PUSH1 0x20 DUP4 ADD MSTORE POP DUP1 DUP6 MSTORE POP POP PUSH1 0x20 DUP4 ADD SWAP3 POP PUSH1 0x20 DUP2 ADD SWAP1 POP PUSH2 0x50C8 JUMP JUMPDEST DUP4 DUP2 MSTORE DUP3 PUSH1 0x20 DUP3 ADD MSTORE PUSH1 0x60 PUSH1 0x40 DUP3 ADD MSTORE PUSH0 PUSH2 0x518D PUSH1 0x60 DUP4 ADD DUP5 PUSH2 0x4782 JUMP JUMPDEST SWAP6 SWAP5 POP POP POP POP POP JUMP JUMPDEST DUP5 DUP2 MSTORE DUP4 PUSH1 0x20 DUP3 ADD MSTORE DUP3 PUSH1 0x40 DUP3 ADD MSTORE PUSH1 0x80 PUSH1 0x60 DUP3 ADD MSTORE PUSH0 PUSH2 0x4778 PUSH1 0x80 DUP4 ADD DUP5 PUSH2 0x2DB3 JUMP JUMPDEST PUSH0 PUSH1 0x40 DUP3 DUP5 SUB SLT ISZERO PUSH2 0x51CA JUMPI PUSH0 PUSH0 REVERT JUMPDEST PUSH2 0x51D2 PUSH2 0x3416 JUMP JUMPDEST DUP3 MLOAD DUP2 MSTORE PUSH1 0x20 DUP4 ADD MLOAD SWAP1 SWAP2 POP PUSH1 0x1 PUSH1 0x1 PUSH1 0x40 SHL SUB DUP2 GT ISZERO PUSH2 0x51F1 JUMPI PUSH0 PUSH0 REVERT JUMPDEST PUSH2 0x51FD DUP5 DUP3 DUP6 ADD PUSH2 0x419E JUMP JUMPDEST PUSH1 0x20 DUP4 ADD MSTORE POP SWAP3 SWAP2 POP POP JUMP JUMPDEST PUSH0 PUSH1 0x20 DUP3 DUP5 SUB SLT ISZERO PUSH2 0x5219 JUMPI PUSH0 PUSH0 REVERT JUMPDEST DUP2 MLOAD PUSH1 0x1 PUSH1 0x1 PUSH1 0x40 SHL SUB DUP2 GT ISZERO PUSH2 0x522E JUMPI PUSH0 PUSH0 REVERT JUMPDEST DUP3 ADD PUSH1 0x1F DUP2 ADD DUP5 SGT PUSH2 0x523E JUMPI PUSH0 PUSH0 REVERT JUMPDEST DUP1 MLOAD PUSH2 0x524C PUSH2 0x34CD DUP3 PUSH2 0x3468 JUMP JUMPDEST DUP1 DUP3 DUP3 MSTORE PUSH1 0x20 DUP3 ADD SWAP2 POP PUSH1 0x20 DUP4 PUSH1 0x5 SHL DUP6 ADD ADD SWAP3 POP DUP7 DUP4 GT ISZERO PUSH2 0x526D JUMPI PUSH0 PUSH0 REVERT JUMPDEST PUSH1 0x20 DUP5 ADD JUMPDEST DUP4 DUP2 LT ISZERO PUSH2 0x4368 JUMPI DUP1 MLOAD PUSH1 0x1 PUSH1 0x1 PUSH1 0x40 SHL SUB DUP2 GT ISZERO PUSH2 0x528F JUMPI PUSH0 PUSH0 REVERT JUMPDEST PUSH2 0x529E DUP10 PUSH1 0x20 DUP4 DUP10 ADD ADD PUSH2 0x51BA JUMP JUMPDEST DUP5 MSTORE POP PUSH1 0x20 SWAP3 DUP4 ADD SWAP3 ADD PUSH2 0x5272 JUMP JUMPDEST PUSH0 PUSH1 0x20 DUP3 DUP5 SUB SLT ISZERO PUSH2 0x52BD JUMPI PUSH0 PUSH0 REVERT JUMPDEST DUP2 MLOAD PUSH1 0x1 PUSH1 0x1 PUSH1 0x40 SHL SUB DUP2 GT ISZERO PUSH2 0x52D2 JUMPI PUSH0 PUSH0 REVERT JUMPDEST PUSH2 0x4014 DUP5 DUP3 DUP6 ADD PUSH2 0x41F6 JUMP JUMPDEST PUSH0 PUSH1 0x20 DUP3 DUP5 SUB SLT ISZERO PUSH2 0x52EE JUMPI PUSH0 PUSH0 REVERT JUMPDEST DUP2 MLOAD PUSH1 0x1 PUSH1 0x1 PUSH1 0x40 SHL SUB DUP2 GT ISZERO PUSH2 0x5303 JUMPI PUSH0 PUSH0 REVERT JUMPDEST PUSH2 0x4014 DUP5 DUP3 DUP6 ADD PUSH2 0x51BA JUMP JUMPDEST PUSH0 PUSH1 0x20 DUP3 DUP5 SUB SLT ISZERO PUSH2 0x531F JUMPI PUSH0 PUSH0 REVERT JUMPDEST DUP2 MLOAD PUSH1 0x1 PUSH1 0x1 PUSH1 0x40 SHL SUB DUP2 GT ISZERO PUSH2 0x5334 JUMPI PUSH0 PUSH0 REVERT JUMPDEST DUP3 ADD PUSH1 0x1F DUP2 ADD DUP5 SGT PUSH2 0x5344 JUMPI PUSH0 PUSH0 REVERT JUMPDEST DUP1 MLOAD PUSH2 0x5352 PUSH2 0x34CD DUP3 PUSH2 0x3468 JUMP JUMPDEST DUP1 DUP3 DUP3 MSTORE PUSH1 0x20 DUP3 ADD SWAP2 POP PUSH1 0x20 DUP4 PUSH1 0x5 SHL DUP6 ADD ADD SWAP3 POP DUP7 DUP4 GT ISZERO PUSH2 0x5373 JUMPI PUSH0 PUSH0 REVERT JUMPDEST PUSH1 0x20 DUP5 ADD JUMPDEST DUP4 DUP2 LT ISZERO PUSH2 0x4368 JUMPI DUP1 MLOAD PUSH1 0x1 PUSH1 0x1 PUSH1 0x40 SHL SUB DUP2 GT ISZERO PUSH2 0x5395 JUMPI PUSH0 PUSH0 REVERT JUMPDEST DUP6 ADD PUSH1 0xE0 DUP2 DUP11 SUB PUSH1 0x1F NOT ADD SLT ISZERO PUSH2 0x53AA JUMPI PUSH0 PUSH0 REVERT JUMPDEST PUSH2 0x53B2 PUSH2 0x336A JUMP JUMPDEST PUSH1 0x20 DUP3 ADD MLOAD DUP2 MSTORE PUSH2 0x53C5 PUSH1 0x40 DUP4 ADD PUSH2 0x4193 JUMP JUMPDEST PUSH1 0x20 DUP3 ADD MSTORE PUSH1 0x60 DUP3 ADD MLOAD PUSH1 0x1 PUSH1 0x1 PUSH1 0x40 SHL SUB DUP2 GT ISZERO PUSH2 0x53E2 JUMPI PUSH0 PUSH0 REVERT JUMPDEST PUSH2 0x53F1 DUP12 PUSH1 0x20 DUP4 DUP7 ADD ADD PUSH2 0x4437 JUMP JUMPDEST PUSH1 0x40 DUP4 ADD MSTORE POP PUSH1 0x80 DUP3 ADD MLOAD PUSH1 0x60 DUP3 ADD MSTORE PUSH1 0xA0 DUP3 ADD MLOAD PUSH1 0x1 PUSH1 0x1 PUSH1 0x40 SHL SUB DUP2 GT ISZERO PUSH2 0x5419 JUMPI PUSH0 PUSH0 REVERT JUMPDEST PUSH2 0x5428 DUP12 PUSH1 0x20 DUP4 DUP7 ADD ADD PUSH2 0x419E JUMP JUMPDEST PUSH1 0x80 DUP4 ADD MSTORE POP PUSH2 0x543A PUSH1 0xC0 DUP4 ADD PUSH2 0x4E8E JUMP JUMPDEST PUSH1 0xA0 DUP3 ADD MSTORE PUSH1 0xE0 SWAP2 SWAP1 SWAP2 ADD MLOAD PUSH1 0xC0 DUP3 ADD MSTORE DUP4 MSTORE PUSH1 0x20 SWAP3 DUP4 ADD SWAP3 ADD PUSH2 0x5378 JUMP JUMPDEST DUP4 DUP2 MSTORE DUP3 PUSH1 0x20 DUP3 ADD MSTORE PUSH1 0x60 PUSH1 0x40 DUP3 ADD MSTORE PUSH0 PUSH2 0x518D PUSH1 0x60 DUP4 ADD DUP5 PUSH2 0x2DB3 JUMP INVALID LOG2 PUSH5 0x6970667358 0x22 SLT KECCAK256 BLOCKHASH DUP16 NOT EXP 0xE PUSH8 0x4F60E2F69523CF89 0xD9 SWAP15 PUSH20 0x353D137452752D88FF70F2D572D50864736F6C63 NUMBER STOP ADDMOD 0x1E STOP CALLER "
		},
		"gasEstimates": {
			"creation": {
				"codeDepositCost": "4335400",
				"executionCost": "infinite",
				"totalCost": "infinite"
			},
			"external": {
				"addAdminRole(address)": "infinite",
				"addFoodDetails(uint256,(string,uint256,uint256)[])": "infinite",
				"addFoodRating(uint256,uint256,string[],string,uint8)": "infinite",
				"addStaff(address,string,string,string)": "infinite",
				"addStaffRating(address,uint256,string,string[],uint8)": "infinite",
				"addStaffRole(address)": "infinite",
				"addStaffToOrder(uint256,address)": "infinite",
				"addTable(uint256,uint256,string)": "infinite",
				"addTableToOrder(uint256,uint256)": "infinite",
				"categoryManager()": "2448",
				"createCategory(uint256,string)": "infinite",
				"createFood(uint256,string,string,uint256,string[],(string,uint256,uint256)[])": "infinite",
				"createOrder(address,uint256,string,string,uint256,(uint256,uint256,uint256)[])": "infinite",
				"deleteCategory(uint256)": "infinite",
				"deleteFood(uint256)": "infinite",
				"deleteFoodDetail(uint256,uint256)": "infinite",
				"deleteFoodRating(uint256)": "infinite",
				"deleteStaffRating(uint256)": "infinite",
				"deleteTable(uint256)": "infinite",
				"editTable(uint256,uint256,uint256)": "infinite",
				"foodManager()": "2471",
				"foodRatingManager()": "2449",
				"getAllCategories()": "infinite",
				"getAllFoods()": "infinite",
				"getAllStaffs()": "infinite",
				"getCategory(uint256)": "infinite",
				"getCurrentUser()": "279",
				"getFood(uint256)": "infinite",
				"getFoodDetails(uint256)": "infinite",
				"getFoodRatingsByFoodId(uint256)": "infinite",
				"getHiddenFoodDetails()": "infinite",
				"getHiddenFoods()": "infinite",
				"getOrdersByStatus(uint8)": "infinite",
				"getOwner()": "infinite",
				"getStaff(address)": "infinite",
				"getStaffRatingsByStaffId(address)": "infinite",
				"getTableById(uint256)": "infinite",
				"getUserOrders(address)": "infinite",
				"initFoodRatingManager(address,address)": "infinite",
				"orderManager()": "2424",
				"roleAccess()": "2448",
				"setCategory(address)": "infinite",
				"setFoodDetailHidden(uint256,uint256,bool)": "infinite",
				"setFoodManager(address)": "infinite",
				"setFoodVisibility(uint256,bool)": "infinite",
				"setOrderManager(address,address)": "infinite",
				"setStaffManager(address)": "infinite",
				"setStaffRatingManager(address,address)": "infinite",
				"setTableManager(address,address)": "infinite",
				"staffManager()": "2405",
				"staffRatingManager()": "2450",
				"tableManager()": "2448",
				"updateCategory(uint256,string)": "infinite",
				"updateFood(uint256,string,string,uint256,string[])": "infinite",
				"updateFoodDetail(uint256,uint256,(string,uint256,uint256))": "infinite",
				"updateFoodRating(uint256,string,uint8)": "infinite",
				"updateOrderItemStatus(uint256,uint256,uint8)": "infinite",
				"updateOrderStatus(uint256,uint8)": "infinite",
				"updateStaffInfo(address,string,string,string)": "infinite",
				"updateStaffRating(uint256,string,uint8)": "infinite",
				"updateStatusTable(uint256,uint8)": "infinite",
				"updateTable(uint256,uint256,uint256,string)": "infinite"
			}
		},
		"methodIdentifiers": {
			"addAdminRole(address)": "6595171c",
			"addFoodDetails(uint256,(string,uint256,uint256)[])": "64f77471",
			"addFoodRating(uint256,uint256,string[],string,uint8)": "75bd5601",
			"addStaff(address,string,string,string)": "dcad55c0",
			"addStaffRating(address,uint256,string,string[],uint8)": "a7866ea6",
			"addStaffRole(address)": "7668206d",
			"addStaffToOrder(uint256,address)": "abf5e836",
			"addTable(uint256,uint256,string)": "fb25d32f",
			"addTableToOrder(uint256,uint256)": "95ebcb24",
			"categoryManager()": "d86ec238",
			"createCategory(uint256,string)": "f7868a52",
			"createFood(uint256,string,string,uint256,string[],(string,uint256,uint256)[])": "b447aaae",
			"createOrder(address,uint256,string,string,uint256,(uint256,uint256,uint256)[])": "8c9da843",
			"deleteCategory(uint256)": "ceca737f",
			"deleteFood(uint256)": "d198b650",
			"deleteFoodDetail(uint256,uint256)": "4d30a39b",
			"deleteFoodRating(uint256)": "97d2b92a",
			"deleteStaffRating(uint256)": "fcd3223c",
			"deleteTable(uint256)": "e6f318c6",
			"editTable(uint256,uint256,uint256)": "5cfd6607",
			"foodManager()": "439e61fa",
			"foodRatingManager()": "2cf4a54d",
			"getAllCategories()": "dadd0a57",
			"getAllFoods()": "b9b5aae6",
			"getAllStaffs()": "037c73c2",
			"getCategory(uint256)": "f3052d26",
			"getCurrentUser()": "43ae37c3",
			"getFood(uint256)": "1e4de872",
			"getFoodDetails(uint256)": "af5607f9",
			"getFoodRatingsByFoodId(uint256)": "f44a8583",
			"getHiddenFoodDetails()": "e21ba8c6",
			"getHiddenFoods()": "cb0769b0",
			"getOrdersByStatus(uint8)": "8ce2ec79",
			"getOwner()": "893d20e8",
			"getStaff(address)": "ddd79504",
			"getStaffRatingsByStaffId(address)": "b2fdfe05",
			"getTableById(uint256)": "3844ac5b",
			"getUserOrders(address)": "63c69f08",
			"initFoodRatingManager(address,address)": "5775cda4",
			"orderManager()": "f9b6117f",
			"roleAccess()": "42f54b89",
			"setCategory(address)": "330933cf",
			"setFoodDetailHidden(uint256,uint256,bool)": "61ce7f78",
			"setFoodManager(address)": "bad1365e",
			"setFoodVisibility(uint256,bool)": "05207db2",
			"setOrderManager(address,address)": "4cdebc39",
			"setStaffManager(address)": "ea0f24e9",
			"setStaffRatingManager(address,address)": "b1587606",
			"setTableManager(address,address)": "997ed85c",
			"staffManager()": "360d5b9e",
			"staffRatingManager()": "09ca221f",
			"tableManager()": "892bb335",
			"updateCategory(uint256,string)": "78697e5b",
			"updateFood(uint256,string,string,uint256,string[])": "6dd2dd88",
			"updateFoodDetail(uint256,uint256,(string,uint256,uint256))": "baf85306",
			"updateFoodRating(uint256,string,uint8)": "f6b829a0",
			"updateOrderItemStatus(uint256,uint256,uint8)": "8a46e8eb",
			"updateOrderStatus(uint256,uint8)": "aab3196d",
			"updateStaffInfo(address,string,string,string)": "5be5fd39",
			"updateStaffRating(uint256,string,uint8)": "18211503",
			"updateStatusTable(uint256,uint8)": "b4afd52c",
			"updateTable(uint256,uint256,uint256,string)": "d50a9e46"
		}
	},
	"abi": [
		{
			"inputs": [
				{
					"internalType": "address",
					"name": "_roleAccessAddress",
					"type": "address"
				}
			],
			"stateMutability": "nonpayable",
			"type": "constructor"
		},
		{
			"inputs": [
				{
					"internalType": "address",
					"name": "_address",
					"type": "address"
				}
			],
			"name": "addAdminRole",
			"outputs": [],
			"stateMutability": "nonpayable",
			"type": "function"
		},
		{
			"inputs": [
				{
					"internalType": "uint256",
					"name": "foodId",
					"type": "uint256"
				},
				{
					"components": [
						{
							"internalType": "string",
							"name": "size",
							"type": "string"
						},
						{
							"internalType": "uint256",
							"name": "quantity",
							"type": "uint256"
						},
						{
							"internalType": "uint256",
							"name": "price",
							"type": "uint256"
						}
					],
					"internalType": "struct UpdateFoodDetail[]",
					"name": "details",
					"type": "tuple[]"
				}
			],
			"name": "addFoodDetails",
			"outputs": [],
			"stateMutability": "nonpayable",
			"type": "function"
		},
		{
			"inputs": [
				{
					"internalType": "uint256",
					"name": "foodId",
					"type": "uint256"
				},
				{
					"internalType": "uint256",
					"name": "orderId",
					"type": "uint256"
				},
				{
					"internalType": "string[]",
					"name": "imgs",
					"type": "string[]"
				},
				{
					"internalType": "string",
					"name": "content",
					"type": "string"
				},
				{
					"internalType": "uint8",
					"name": "stars",
					"type": "uint8"
				}
			],
			"name": "addFoodRating",
			"outputs": [],
			"stateMutability": "nonpayable",
			"type": "function"
		},
		{
			"inputs": [
				{
					"internalType": "address",
					"name": "_staffId",
					"type": "address"
				},
				{
					"internalType": "string",
					"name": "_name",
					"type": "string"
				},
				{
					"internalType": "string",
					"name": "_dob",
					"type": "string"
				},
				{
					"internalType": "string",
					"name": "_phone",
					"type": "string"
				}
			],
			"name": "addStaff",
			"outputs": [],
			"stateMutability": "nonpayable",
			"type": "function"
		},
		{
			"inputs": [
				{
					"internalType": "address",
					"name": "staffAddress",
					"type": "address"
				},
				{
					"internalType": "uint256",
					"name": "_orderId",
					"type": "uint256"
				},
				{
					"internalType": "string",
					"name": "content",
					"type": "string"
				},
				{
					"internalType": "string[]",
					"name": "imgs",
					"type": "string[]"
				},
				{
					"internalType": "uint8",
					"name": "stars",
					"type": "uint8"
				}
			],
			"name": "addStaffRating",
			"outputs": [],
			"stateMutability": "nonpayable",
			"type": "function"
		},
		{
			"inputs": [
				{
					"internalType": "address",
					"name": "_address",
					"type": "address"
				}
			],
			"name": "addStaffRole",
			"outputs": [],
			"stateMutability": "nonpayable",
			"type": "function"
		},
		{
			"inputs": [
				{
					"internalType": "uint256",
					"name": "_orderId",
					"type": "uint256"
				},
				{
					"internalType": "address",
					"name": "_staffId",
					"type": "address"
				}
			],
			"name": "addStaffToOrder",
			"outputs": [],
			"stateMutability": "nonpayable",
			"type": "function"
		},
		{
			"inputs": [
				{
					"internalType": "uint256",
					"name": "_row",
					"type": "uint256"
				},
				{
					"internalType": "uint256",
					"name": "_col",
					"type": "uint256"
				},
				{
					"internalType": "string",
					"name": "_qrUrl",
					"type": "string"
				}
			],
			"name": "addTable",
			"outputs": [
				{
					"internalType": "uint256",
					"name": "",
					"type": "uint256"
				}
			],
			"stateMutability": "nonpayable",
			"type": "function"
		},
		{
			"inputs": [
				{
					"internalType": "uint256",
					"name": "_orderId",
					"type": "uint256"
				},
				{
					"internalType": "uint256",
					"name": "_tableId",
					"type": "uint256"
				}
			],
			"name": "addTableToOrder",
			"outputs": [],
			"stateMutability": "nonpayable",
			"type": "function"
		},
		{
			"inputs": [],
			"name": "categoryManager",
			"outputs": [
				{
					"internalType": "address",
					"name": "",
					"type": "address"
				}
			],
			"stateMutability": "view",
			"type": "function"
		},
		{
			"inputs": [
				{
					"internalType": "uint256",
					"name": "categoryId",
					"type": "uint256"
				},
				{
					"internalType": "string",
					"name": "name",
					"type": "string"
				}
			],
			"name": "createCategory",
			"outputs": [],
			"stateMutability": "nonpayable",
			"type": "function"
		},
		{
			"inputs": [
				{
					"internalType": "uint256",
					"name": "foodId",
					"type": "uint256"
				},
				{
					"internalType": "string",
					"name": "name",
					"type": "string"
				},
				{
					"internalType": "string",
					"name": "description",
					"type": "string"
				},
				{
					"internalType": "uint256",
					"name": "categoryId",
					"type": "uint256"
				},
				{
					"internalType": "string[]",
					"name": "imageUrl",
					"type": "string[]"
				},
				{
					"components": [
						{
							"internalType": "string",
							"name": "size",
							"type": "string"
						},
						{
							"internalType": "uint256",
							"name": "quantity",
							"type": "uint256"
						},
						{
							"internalType": "uint256",
							"name": "price",
							"type": "uint256"
						}
					],
					"internalType": "struct UpdateFoodDetail[]",
					"name": "fd",
					"type": "tuple[]"
				}
			],
			"name": "createFood",
			"outputs": [],
			"stateMutability": "nonpayable",
			"type": "function"
		},
		{
			"inputs": [
				{
					"internalType": "address",
					"name": "_user",
					"type": "address"
				},
				{
					"internalType": "uint256",
					"name": "_foodId",
					"type": "uint256"
				},
				{
					"internalType": "string",
					"name": "_userInfo",
					"type": "string"
				},
				{
					"internalType": "string",
					"name": "_note",
					"type": "string"
				},
				{
					"internalType": "uint256",
					"name": "_tableId",
					"type": "uint256"
				},
				{
					"components": [
						{
							"internalType": "uint256",
							"name": "foodId",
							"type": "uint256"
						},
						{
							"internalType": "uint256",
							"name": "foodDetailId",
							"type": "uint256"
						},
						{
							"internalType": "uint256",
							"name": "quantity",
							"type": "uint256"
						}
					],
					"internalType": "struct OrderItemRequest[]",
					"name": "_items",
					"type": "tuple[]"
				}
			],
			"name": "createOrder",
			"outputs": [
				{
					"components": [
						{
							"internalType": "uint256",
							"name": "orderId",
							"type": "uint256"
						},
						{
							"internalType": "address",
							"name": "user",
							"type": "address"
						},
						{
							"internalType": "string",
							"name": "userInfo",
							"type": "string"
						},
						{
							"internalType": "string",
							"name": "note",
							"type": "string"
						},
						{
							"internalType": "string",
							"name": "name",
							"type": "string"
						},
						{
							"internalType": "string",
							"name": "imgage",
							"type": "string"
						},
						{
							"internalType": "address",
							"name": "staffAddress",
							"type": "address"
						},
						{
							"internalType": "uint256",
							"name": "tableId",
							"type": "uint256"
						},
						{
							"components": [
								{
									"internalType": "uint256",
									"name": "orderItemId",
									"type": "uint256"
								},
								{
									"internalType": "uint256",
									"name": "foodDetailId",
									"type": "uint256"
								},
								{
									"internalType": "uint256",
									"name": "foodId",
									"type": "uint256"
								},
								{
									"internalType": "uint256",
									"name": "quantity",
									"type": "uint256"
								},
								{
									"internalType": "uint256",
									"name": "price",
									"type": "uint256"
								},
								{
									"internalType": "enum OrderItemStatus",
									"name": "status",
									"type": "uint8"
								},
								{
									"internalType": "uint256",
									"name": "timestamp",
									"type": "uint256"
								}
							],
							"internalType": "struct OrderItem[]",
							"name": "items",
							"type": "tuple[]"
						},
						{
							"internalType": "uint256",
							"name": "totalAmount",
							"type": "uint256"
						},
						{
							"internalType": "enum OrderStatus",
							"name": "status",
							"type": "uint8"
						},
						{
							"internalType": "uint256",
							"name": "timestamp",
							"type": "uint256"
						}
					],
					"internalType": "struct Order",
					"name": "",
					"type": "tuple"
				}
			],
			"stateMutability": "nonpayable",
			"type": "function"
		},
		{
			"inputs": [
				{
					"internalType": "uint256",
					"name": "categoryId",
					"type": "uint256"
				}
			],
			"name": "deleteCategory",
			"outputs": [],
			"stateMutability": "nonpayable",
			"type": "function"
		},
		{
			"inputs": [
				{
					"internalType": "uint256",
					"name": "foodId",
					"type": "uint256"
				}
			],
			"name": "deleteFood",
			"outputs": [],
			"stateMutability": "nonpayable",
			"type": "function"
		},
		{
			"inputs": [
				{
					"internalType": "uint256",
					"name": "foodId",
					"type": "uint256"
				},
				{
					"internalType": "uint256",
					"name": "foodDetailId",
					"type": "uint256"
				}
			],
			"name": "deleteFoodDetail",
			"outputs": [],
			"stateMutability": "nonpayable",
			"type": "function"
		},
		{
			"inputs": [
				{
					"internalType": "uint256",
					"name": "ratingId",
					"type": "uint256"
				}
			],
			"name": "deleteFoodRating",
			"outputs": [],
			"stateMutability": "nonpayable",
			"type": "function"
		},
		{
			"inputs": [
				{
					"internalType": "uint256",
					"name": "ratingId",
					"type": "uint256"
				}
			],
			"name": "deleteStaffRating",
			"outputs": [],
			"stateMutability": "nonpayable",
			"type": "function"
		},
		{
			"inputs": [
				{
					"internalType": "uint256",
					"name": "_tableId",
					"type": "uint256"
				}
			],
			"name": "deleteTable",
			"outputs": [],
			"stateMutability": "nonpayable",
			"type": "function"
		},
		{
			"inputs": [
				{
					"internalType": "uint256",
					"name": "_tableId",
					"type": "uint256"
				},
				{
					"internalType": "uint256",
					"name": "_row",
					"type": "uint256"
				},
				{
					"internalType": "uint256",
					"name": "_col",
					"type": "uint256"
				}
			],
			"name": "editTable",
			"outputs": [],
			"stateMutability": "nonpayable",
			"type": "function"
		},
		{
			"inputs": [],
			"name": "foodManager",
			"outputs": [
				{
					"internalType": "address",
					"name": "",
					"type": "address"
				}
			],
			"stateMutability": "view",
			"type": "function"
		},
		{
			"inputs": [],
			"name": "foodRatingManager",
			"outputs": [
				{
					"internalType": "address",
					"name": "",
					"type": "address"
				}
			],
			"stateMutability": "view",
			"type": "function"
		},
		{
			"inputs": [],
			"name": "getAllCategories",
			"outputs": [
				{
					"components": [
						{
							"internalType": "uint256",
							"name": "categoryId",
							"type": "uint256"
						},
						{
							"internalType": "string",
							"name": "name",
							"type": "string"
						}
					],
					"internalType": "struct Category[]",
					"name": "",
					"type": "tuple[]"
				}
			],
			"stateMutability": "view",
			"type": "function"
		},
		{
			"inputs": [],
			"name": "getAllFoods",
			"outputs": [
				{
					"components": [
						{
							"components": [
								{
									"internalType": "uint256",
									"name": "foodId",
									"type": "uint256"
								},
								{
									"internalType": "string",
									"name": "name",
									"type": "string"
								},
								{
									"internalType": "string",
									"name": "description",
									"type": "string"
								},
								{
									"internalType": "uint256",
									"name": "categoryId",
									"type": "uint256"
								},
								{
									"internalType": "string[]",
									"name": "imageUrl",
									"type": "string[]"
								},
								{
									"internalType": "uint256",
									"name": "soldQuantity",
									"type": "uint256"
								},
								{
									"internalType": "uint256",
									"name": "quantity",
									"type": "uint256"
								},
								{
									"internalType": "uint256",
									"name": "sumRating",
									"type": "uint256"
								},
								{
									"internalType": "uint256",
									"name": "countRating",
									"type": "uint256"
								},
								{
									"internalType": "bool",
									"name": "isHidden",
									"type": "bool"
								}
							],
							"internalType": "struct Food",
							"name": "food",
							"type": "tuple"
						},
						{
							"components": [
								{
									"internalType": "uint256",
									"name": "foodDetailId",
									"type": "uint256"
								},
								{
									"internalType": "string",
									"name": "size",
									"type": "string"
								},
								{
									"internalType": "uint256",
									"name": "soldQuantity",
									"type": "uint256"
								},
								{
									"internalType": "uint256",
									"name": "quantity",
									"type": "uint256"
								},
								{
									"internalType": "uint256",
									"name": "price",
									"type": "uint256"
								},
								{
									"internalType": "bool",
									"name": "isHidden",
									"type": "bool"
								}
							],
							"internalType": "struct FoodDetail[]",
							"name": "foodDetails",
							"type": "tuple[]"
						}
					],
					"internalType": "struct FoodWithDetails[]",
					"name": "",
					"type": "tuple[]"
				}
			],
			"stateMutability": "view",
			"type": "function"
		},
		{
			"inputs": [],
			"name": "getAllStaffs",
			"outputs": [
				{
					"components": [
						{
							"internalType": "address",
							"name": "staffAddress",
							"type": "address"
						},
						{
							"internalType": "string",
							"name": "name",
							"type": "string"
						},
						{
							"internalType": "string",
							"name": "dob",
							"type": "string"
						},
						{
							"internalType": "string",
							"name": "phone",
							"type": "string"
						},
						{
							"internalType": "uint256",
							"name": "sumRating",
							"type": "uint256"
						},
						{
							"internalType": "uint256",
							"name": "countRating",
							"type": "uint256"
						},
						{
							"internalType": "enum StaffStatus",
							"name": "status",
							"type": "uint8"
						}
					],
					"internalType": "struct Staff[]",
					"name": "",
					"type": "tuple[]"
				}
			],
			"stateMutability": "nonpayable",
			"type": "function"
		},
		{
			"inputs": [
				{
					"internalType": "uint256",
					"name": "categoryId",
					"type": "uint256"
				}
			],
			"name": "getCategory",
			"outputs": [
				{
					"components": [
						{
							"internalType": "uint256",
							"name": "categoryId",
							"type": "uint256"
						},
						{
							"internalType": "string",
							"name": "name",
							"type": "string"
						}
					],
					"internalType": "struct Category",
					"name": "",
					"type": "tuple"
				}
			],
			"stateMutability": "view",
			"type": "function"
		},
		{
			"inputs": [],
			"name": "getCurrentUser",
			"outputs": [
				{
					"internalType": "address",
					"name": "",
					"type": "address"
				}
			],
			"stateMutability": "view",
			"type": "function"
		},
		{
			"inputs": [
				{
					"internalType": "uint256",
					"name": "foodId",
					"type": "uint256"
				}
			],
			"name": "getFood",
			"outputs": [
				{
					"components": [
						{
							"internalType": "uint256",
							"name": "foodId",
							"type": "uint256"
						},
						{
							"internalType": "string",
							"name": "name",
							"type": "string"
						},
						{
							"internalType": "string",
							"name": "description",
							"type": "string"
						},
						{
							"internalType": "uint256",
							"name": "categoryId",
							"type": "uint256"
						},
						{
							"internalType": "string[]",
							"name": "imageUrl",
							"type": "string[]"
						},
						{
							"internalType": "uint256",
							"name": "soldQuantity",
							"type": "uint256"
						},
						{
							"internalType": "uint256",
							"name": "quantity",
							"type": "uint256"
						},
						{
							"internalType": "uint256",
							"name": "sumRating",
							"type": "uint256"
						},
						{
							"internalType": "uint256",
							"name": "countRating",
							"type": "uint256"
						},
						{
							"internalType": "bool",
							"name": "isHidden",
							"type": "bool"
						}
					],
					"internalType": "struct Food",
					"name": "",
					"type": "tuple"
				}
			],
			"stateMutability": "view",
			"type": "function"
		},
		{
			"inputs": [
				{
					"internalType": "uint256",
					"name": "foodId",
					"type": "uint256"
				}
			],
			"name": "getFoodDetails",
			"outputs": [
				{
					"components": [
						{
							"internalType": "uint256",
							"name": "foodDetailId",
							"type": "uint256"
						},
						{
							"internalType": "string",
							"name": "size",
							"type": "string"
						},
						{
							"internalType": "uint256",
							"name": "soldQuantity",
							"type": "uint256"
						},
						{
							"internalType": "uint256",
							"name": "quantity",
							"type": "uint256"
						},
						{
							"internalType": "uint256",
							"name": "price",
							"type": "uint256"
						},
						{
							"internalType": "bool",
							"name": "isHidden",
							"type": "bool"
						}
					],
					"internalType": "struct FoodDetail[]",
					"name": "",
					"type": "tuple[]"
				}
			],
			"stateMutability": "view",
			"type": "function"
		},
		{
			"inputs": [
				{
					"internalType": "uint256",
					"name": "foodId",
					"type": "uint256"
				}
			],
			"name": "getFoodRatingsByFoodId",
			"outputs": [
				{
					"components": [
						{
							"internalType": "uint256",
							"name": "id",
							"type": "uint256"
						},
						{
							"internalType": "address",
							"name": "reviewer",
							"type": "address"
						},
						{
							"internalType": "string[]",
							"name": "image",
							"type": "string[]"
						},
						{
							"internalType": "uint256",
							"name": "foodId",
							"type": "uint256"
						},
						{
							"internalType": "string",
							"name": "content",
							"type": "string"
						},
						{
							"internalType": "uint8",
							"name": "stars",
							"type": "uint8"
						},
						{
							"internalType": "uint256",
							"name": "timestamp",
							"type": "uint256"
						}
					],
					"internalType": "struct FoodRating[]",
					"name": "",
					"type": "tuple[]"
				}
			],
			"stateMutability": "view",
			"type": "function"
		},
		{
			"inputs": [],
			"name": "getHiddenFoodDetails",
			"outputs": [
				{
					"components": [
						{
							"internalType": "uint256",
							"name": "foodDetailId",
							"type": "uint256"
						},
						{
							"internalType": "string",
							"name": "size",
							"type": "string"
						},
						{
							"internalType": "uint256",
							"name": "soldQuantity",
							"type": "uint256"
						},
						{
							"internalType": "uint256",
							"name": "quantity",
							"type": "uint256"
						},
						{
							"internalType": "uint256",
							"name": "price",
							"type": "uint256"
						},
						{
							"internalType": "bool",
							"name": "isHidden",
							"type": "bool"
						}
					],
					"internalType": "struct FoodDetail[]",
					"name": "",
					"type": "tuple[]"
				}
			],
			"stateMutability": "nonpayable",
			"type": "function"
		},
		{
			"inputs": [],
			"name": "getHiddenFoods",
			"outputs": [
				{
					"components": [
						{
							"components": [
								{
									"internalType": "uint256",
									"name": "foodId",
									"type": "uint256"
								},
								{
									"internalType": "string",
									"name": "name",
									"type": "string"
								},
								{
									"internalType": "string",
									"name": "description",
									"type": "string"
								},
								{
									"internalType": "uint256",
									"name": "categoryId",
									"type": "uint256"
								},
								{
									"internalType": "string[]",
									"name": "imageUrl",
									"type": "string[]"
								},
								{
									"internalType": "uint256",
									"name": "soldQuantity",
									"type": "uint256"
								},
								{
									"internalType": "uint256",
									"name": "quantity",
									"type": "uint256"
								},
								{
									"internalType": "uint256",
									"name": "sumRating",
									"type": "uint256"
								},
								{
									"internalType": "uint256",
									"name": "countRating",
									"type": "uint256"
								},
								{
									"internalType": "bool",
									"name": "isHidden",
									"type": "bool"
								}
							],
							"internalType": "struct Food",
							"name": "food",
							"type": "tuple"
						},
						{
							"components": [
								{
									"internalType": "uint256",
									"name": "foodDetailId",
									"type": "uint256"
								},
								{
									"internalType": "string",
									"name": "size",
									"type": "string"
								},
								{
									"internalType": "uint256",
									"name": "soldQuantity",
									"type": "uint256"
								},
								{
									"internalType": "uint256",
									"name": "quantity",
									"type": "uint256"
								},
								{
									"internalType": "uint256",
									"name": "price",
									"type": "uint256"
								},
								{
									"internalType": "bool",
									"name": "isHidden",
									"type": "bool"
								}
							],
							"internalType": "struct FoodDetail[]",
							"name": "foodDetails",
							"type": "tuple[]"
						}
					],
					"internalType": "struct FoodWithDetails[]",
					"name": "",
					"type": "tuple[]"
				}
			],
			"stateMutability": "view",
			"type": "function"
		},
		{
			"inputs": [
				{
					"internalType": "enum OrderStatus",
					"name": "_status",
					"type": "uint8"
				}
			],
			"name": "getOrdersByStatus",
			"outputs": [
				{
					"components": [
						{
							"internalType": "uint256",
							"name": "orderId",
							"type": "uint256"
						},
						{
							"internalType": "address",
							"name": "user",
							"type": "address"
						},
						{
							"internalType": "string",
							"name": "userInfo",
							"type": "string"
						},
						{
							"internalType": "string",
							"name": "note",
							"type": "string"
						},
						{
							"internalType": "string",
							"name": "name",
							"type": "string"
						},
						{
							"internalType": "string",
							"name": "imgage",
							"type": "string"
						},
						{
							"internalType": "address",
							"name": "staffAddress",
							"type": "address"
						},
						{
							"internalType": "uint256",
							"name": "tableId",
							"type": "uint256"
						},
						{
							"components": [
								{
									"internalType": "uint256",
									"name": "orderItemId",
									"type": "uint256"
								},
								{
									"internalType": "uint256",
									"name": "foodDetailId",
									"type": "uint256"
								},
								{
									"internalType": "uint256",
									"name": "foodId",
									"type": "uint256"
								},
								{
									"internalType": "uint256",
									"name": "quantity",
									"type": "uint256"
								},
								{
									"internalType": "uint256",
									"name": "price",
									"type": "uint256"
								},
								{
									"internalType": "enum OrderItemStatus",
									"name": "status",
									"type": "uint8"
								},
								{
									"internalType": "uint256",
									"name": "timestamp",
									"type": "uint256"
								}
							],
							"internalType": "struct OrderItem[]",
							"name": "items",
							"type": "tuple[]"
						},
						{
							"internalType": "uint256",
							"name": "totalAmount",
							"type": "uint256"
						},
						{
							"internalType": "enum OrderStatus",
							"name": "status",
							"type": "uint8"
						},
						{
							"internalType": "uint256",
							"name": "timestamp",
							"type": "uint256"
						}
					],
					"internalType": "struct Order[]",
					"name": "",
					"type": "tuple[]"
				}
			],
			"stateMutability": "view",
			"type": "function"
		},
		{
			"inputs": [],
			"name": "getOwner",
			"outputs": [
				{
					"internalType": "address",
					"name": "",
					"type": "address"
				}
			],
			"stateMutability": "view",
			"type": "function"
		},
		{
			"inputs": [
				{
					"internalType": "address",
					"name": "_staffId",
					"type": "address"
				}
			],
			"name": "getStaff",
			"outputs": [
				{
					"components": [
						{
							"internalType": "address",
							"name": "staffAddress",
							"type": "address"
						},
						{
							"internalType": "string",
							"name": "name",
							"type": "string"
						},
						{
							"internalType": "string",
							"name": "dob",
							"type": "string"
						},
						{
							"internalType": "string",
							"name": "phone",
							"type": "string"
						},
						{
							"internalType": "uint256",
							"name": "sumRating",
							"type": "uint256"
						},
						{
							"internalType": "uint256",
							"name": "countRating",
							"type": "uint256"
						},
						{
							"internalType": "enum StaffStatus",
							"name": "status",
							"type": "uint8"
						}
					],
					"internalType": "struct Staff",
					"name": "",
					"type": "tuple"
				}
			],
			"stateMutability": "view",
			"type": "function"
		},
		{
			"inputs": [
				{
					"internalType": "address",
					"name": "staffId",
					"type": "address"
				}
			],
			"name": "getStaffRatingsByStaffId",
			"outputs": [
				{
					"components": [
						{
							"internalType": "uint256",
							"name": "id",
							"type": "uint256"
						},
						{
							"internalType": "address",
							"name": "reviewer",
							"type": "address"
						},
						{
							"internalType": "address",
							"name": "staffAddress",
							"type": "address"
						},
						{
							"internalType": "string",
							"name": "content",
							"type": "string"
						},
						{
							"internalType": "string[]",
							"name": "image",
							"type": "string[]"
						},
						{
							"internalType": "uint8",
							"name": "stars",
							"type": "uint8"
						},
						{
							"internalType": "uint256",
							"name": "timestamp",
							"type": "uint256"
						}
					],
					"internalType": "struct StaffRating[]",
					"name": "",
					"type": "tuple[]"
				}
			],
			"stateMutability": "view",
			"type": "function"
		},
		{
			"inputs": [
				{
					"internalType": "uint256",
					"name": "_tableId",
					"type": "uint256"
				}
			],
			"name": "getTableById",
			"outputs": [
				{
					"components": [
						{
							"internalType": "uint256",
							"name": "tableId",
							"type": "uint256"
						},
						{
							"internalType": "uint256",
							"name": "row",
							"type": "uint256"
						},
						{
							"internalType": "uint256",
							"name": "col",
							"type": "uint256"
						},
						{
							"internalType": "string",
							"name": "qrUrl",
							"type": "string"
						},
						{
							"internalType": "enum TableStatus",
							"name": "status",
							"type": "uint8"
						}
					],
					"internalType": "struct Table",
					"name": "",
					"type": "tuple"
				}
			],
			"stateMutability": "view",
			"type": "function"
		},
		{
			"inputs": [
				{
					"internalType": "address",
					"name": "_user",
					"type": "address"
				}
			],
			"name": "getUserOrders",
			"outputs": [
				{
					"internalType": "uint256[]",
					"name": "",
					"type": "uint256[]"
				}
			],
			"stateMutability": "view",
			"type": "function"
		},
		{
			"inputs": [
				{
					"internalType": "address",
					"name": "_foodRatingManager",
					"type": "address"
				},
				{
					"internalType": "address",
					"name": "_foodManager",
					"type": "address"
				}
			],
			"name": "initFoodRatingManager",
			"outputs": [],
			"stateMutability": "nonpayable",
			"type": "function"
		},
		{
			"inputs": [],
			"name": "orderManager",
			"outputs": [
				{
					"internalType": "address",
					"name": "",
					"type": "address"
				}
			],
			"stateMutability": "view",
			"type": "function"
		},
		{
			"inputs": [],
			"name": "roleAccess",
			"outputs": [
				{
					"internalType": "contract RoleAccess",
					"name": "",
					"type": "address"
				}
			],
			"stateMutability": "view",
			"type": "function"
		},
		{
			"inputs": [
				{
					"internalType": "address",
					"name": "_categoryManager",
					"type": "address"
				}
			],
			"name": "setCategory",
			"outputs": [],
			"stateMutability": "nonpayable",
			"type": "function"
		},
		{
			"inputs": [
				{
					"internalType": "uint256",
					"name": "_foodId",
					"type": "uint256"
				},
				{
					"internalType": "uint256",
					"name": "_foodDetailId",
					"type": "uint256"
				},
				{
					"internalType": "bool",
					"name": "_hidden",
					"type": "bool"
				}
			],
			"name": "setFoodDetailHidden",
			"outputs": [],
			"stateMutability": "nonpayable",
			"type": "function"
		},
		{
			"inputs": [
				{
					"internalType": "address",
					"name": "_foodManager",
					"type": "address"
				}
			],
			"name": "setFoodManager",
			"outputs": [],
			"stateMutability": "nonpayable",
			"type": "function"
		},
		{
			"inputs": [
				{
					"internalType": "uint256",
					"name": "_foodId",
					"type": "uint256"
				},
				{
					"internalType": "bool",
					"name": "_hidden",
					"type": "bool"
				}
			],
			"name": "setFoodVisibility",
			"outputs": [],
			"stateMutability": "nonpayable",
			"type": "function"
		},
		{
			"inputs": [
				{
					"internalType": "address",
					"name": "_orderManager",
					"type": "address"
				},
				{
					"internalType": "address",
					"name": "_staffManagerAddress",
					"type": "address"
				}
			],
			"name": "setOrderManager",
			"outputs": [],
			"stateMutability": "nonpayable",
			"type": "function"
		},
		{
			"inputs": [
				{
					"internalType": "address",
					"name": "_staffManager",
					"type": "address"
				}
			],
			"name": "setStaffManager",
			"outputs": [],
			"stateMutability": "nonpayable",
			"type": "function"
		},
		{
			"inputs": [
				{
					"internalType": "address",
					"name": "_staffRatingManager",
					"type": "address"
				},
				{
					"internalType": "address",
					"name": "_staffManager",
					"type": "address"
				}
			],
			"name": "setStaffRatingManager",
			"outputs": [],
			"stateMutability": "nonpayable",
			"type": "function"
		},
		{
			"inputs": [
				{
					"internalType": "address",
					"name": "_tableManager",
					"type": "address"
				},
				{
					"internalType": "address",
					"name": "_orderManager",
					"type": "address"
				}
			],
			"name": "setTableManager",
			"outputs": [],
			"stateMutability": "nonpayable",
			"type": "function"
		},
		{
			"inputs": [],
			"name": "staffManager",
			"outputs": [
				{
					"internalType": "address",
					"name": "",
					"type": "address"
				}
			],
			"stateMutability": "view",
			"type": "function"
		},
		{
			"inputs": [],
			"name": "staffRatingManager",
			"outputs": [
				{
					"internalType": "address",
					"name": "",
					"type": "address"
				}
			],
			"stateMutability": "view",
			"type": "function"
		},
		{
			"inputs": [],
			"name": "tableManager",
			"outputs": [
				{
					"internalType": "address",
					"name": "",
					"type": "address"
				}
			],
			"stateMutability": "view",
			"type": "function"
		},
		{
			"inputs": [
				{
					"internalType": "uint256",
					"name": "categoryId",
					"type": "uint256"
				},
				{
					"internalType": "string",
					"name": "newName",
					"type": "string"
				}
			],
			"name": "updateCategory",
			"outputs": [],
			"stateMutability": "nonpayable",
			"type": "function"
		},
		{
			"inputs": [
				{
					"internalType": "uint256",
					"name": "foodId",
					"type": "uint256"
				},
				{
					"internalType": "string",
					"name": "name",
					"type": "string"
				},
				{
					"internalType": "string",
					"name": "description",
					"type": "string"
				},
				{
					"internalType": "uint256",
					"name": "categoryId",
					"type": "uint256"
				},
				{
					"internalType": "string[]",
					"name": "imageUrl",
					"type": "string[]"
				}
			],
			"name": "updateFood",
			"outputs": [],
			"stateMutability": "nonpayable",
			"type": "function"
		},
		{
			"inputs": [
				{
					"internalType": "uint256",
					"name": "foodId",
					"type": "uint256"
				},
				{
					"internalType": "uint256",
					"name": "foodDetailId",
					"type": "uint256"
				},
				{
					"components": [
						{
							"internalType": "string",
							"name": "size",
							"type": "string"
						},
						{
							"internalType": "uint256",
							"name": "quantity",
							"type": "uint256"
						},
						{
							"internalType": "uint256",
							"name": "price",
							"type": "uint256"
						}
					],
					"internalType": "struct UpdateFoodDetail",
					"name": "newDetail",
					"type": "tuple"
				}
			],
			"name": "updateFoodDetail",
			"outputs": [],
			"stateMutability": "nonpayable",
			"type": "function"
		},
		{
			"inputs": [
				{
					"internalType": "uint256",
					"name": "ratingId",
					"type": "uint256"
				},
				{
					"internalType": "string",
					"name": "content",
					"type": "string"
				},
				{
					"internalType": "uint8",
					"name": "stars",
					"type": "uint8"
				}
			],
			"name": "updateFoodRating",
			"outputs": [],
			"stateMutability": "nonpayable",
			"type": "function"
		},
		{
			"inputs": [
				{
					"internalType": "uint256",
					"name": "_orderId",
					"type": "uint256"
				},
				{
					"internalType": "uint256",
					"name": "_orderItemId",
					"type": "uint256"
				},
				{
					"internalType": "enum OrderItemStatus",
					"name": "_newStatus",
					"type": "uint8"
				}
			],
			"name": "updateOrderItemStatus",
			"outputs": [],
			"stateMutability": "nonpayable",
			"type": "function"
		},
		{
			"inputs": [
				{
					"internalType": "uint256",
					"name": "_orderId",
					"type": "uint256"
				},
				{
					"internalType": "enum OrderStatus",
					"name": "_status",
					"type": "uint8"
				}
			],
			"name": "updateOrderStatus",
			"outputs": [],
			"stateMutability": "nonpayable",
			"type": "function"
		},
		{
			"inputs": [
				{
					"internalType": "address",
					"name": "_staffId",
					"type": "address"
				},
				{
					"internalType": "string",
					"name": "_name",
					"type": "string"
				},
				{
					"internalType": "string",
					"name": "_dob",
					"type": "string"
				},
				{
					"internalType": "string",
					"name": "_phone",
					"type": "string"
				}
			],
			"name": "updateStaffInfo",
			"outputs": [],
			"stateMutability": "nonpayable",
			"type": "function"
		},
		{
			"inputs": [
				{
					"internalType": "uint256",
					"name": "ratingId",
					"type": "uint256"
				},
				{
					"internalType": "string",
					"name": "content",
					"type": "string"
				},
				{
					"internalType": "uint8",
					"name": "stars",
					"type": "uint8"
				}
			],
			"name": "updateStaffRating",
			"outputs": [],
			"stateMutability": "nonpayable",
			"type": "function"
		},
		{
			"inputs": [
				{
					"internalType": "uint256",
					"name": "_tableId",
					"type": "uint256"
				},
				{
					"internalType": "enum TableStatus",
					"name": "_status",
					"type": "uint8"
				}
			],
			"name": "updateStatusTable",
			"outputs": [],
			"stateMutability": "nonpayable",
			"type": "function"
		},
		{
			"inputs": [
				{
					"internalType": "uint256",
					"name": "_tableId",
					"type": "uint256"
				},
				{
					"internalType": "uint256",
					"name": "_row",
					"type": "uint256"
				},
				{
					"internalType": "uint256",
					"name": "_col",
					"type": "uint256"
				},
				{
					"internalType": "string",
					"name": "_qrUrl",
					"type": "string"
				}
			],
			"name": "updateTable",
			"outputs": [],
			"stateMutability": "nonpayable",
			"type": "function"
		}
	]
}