{
	"data": {
		"bytecode": {
			"linkReferences": {},
			"object": "6080604052348015600e575f5ffd5b50335f5f6101000a81548173ffffffffffffffffffffffffffffffffffffffff021916908373ffffffffffffffffffffffffffffffffffffffff1602179055506153d68061005b5f395ff3fe608060405234801561000f575f5ffd5b506004361061021a575f3560e01c8063aab3196d11610123578063d198b650116100ab578063e1f1c48d1161007a578063e1f1c48d1461061a578063e6f318c61461064a578063f3052d2614610666578063f7868a5214610696578063f9b6117f146106b25761021a565b8063d198b650146105a6578063d7102441146105c2578063d86ec238146105de578063dadd0a57146105fc5761021a565b8063bad1365e116100f2578063bad1365e1461051a578063baf8530614610536578063bea02f6214610552578063c0da840d1461056e578063ceca737f1461058a5761021a565b8063aab3196d14610494578063af5607f9146104b0578063b447aaae146104e0578063b9b5aae6146104fc5761021a565b806363c69f08116101a657806378697e5b1161017557806378697e5b146103f0578063892bb3351461040c578063893d20e81461042a5780638a46e8eb146104485780638ce2ec79146104645761021a565b806363c69f081461036c57806364f774711461039c5780636dd2dd88146103b857806370480275146103d45761021a565b8063439e61fa116101ed578063439e61fa146102ca5780634d30a39b146102e85780635055aa01146103045780635cdd71df146103345780635cfd6607146103505761021a565b80631785f53c1461021e5780631e4de8721461023a57806324d7806c1461026a5780633844ac5b1461029a575b5f5ffd5b6102386004803603810190610233919061268e565b6106d0565b005b610254600480360381019061024f91906126ec565b610737565b60405161026191906128f8565b60405180910390f35b610284600480360381019061027f919061268e565b6107e2565b604051610291919061298b565b60405180910390f35b6102b460048036038101906102af91906126ec565b6107ff565b6040516102c19190612a24565b60405180910390f35b6102d26108a7565b6040516102df9190612a4c565b60405180910390f35b61030260048036038101906102fd9190612a65565b6108cc565b005b61031e60048036038101906103199190612cfc565b610a09565b60405161032b9190613076565b60405180910390f35b61034e6004803603810190610349919061268e565b610ac1565b005b61036a60048036038101906103659190613096565b610c22565b005b6103866004803603810190610381919061268e565b610d62565b604051610393919061318e565b60405180910390f35b6103b660048036038101906103b19190613309565b610e07565b005b6103d260048036038101906103cd9190613441565b610f44565b005b6103ee60048036038101906103e9919061268e565b61108a565b005b61040a6004803603810190610405919061350c565b6110f1565b005b61041461122e565b6040516104219190612a4c565b60405180910390f35b610432611253565b60405161043f9190612a4c565b60405180910390f35b610462600480360381019061045d9190613589565b61127a565b005b61047e600480360381019061047991906135fc565b61130a565b60405161048b91906137d5565b60405180910390f35b6104ae60048036038101906104a991906137f5565b6113af565b005b6104ca60048036038101906104c591906126ec565b61143c565b6040516104d7919061394e565b60405180910390f35b6104fa60048036038101906104f5919061396e565b6114e1565b005b61050461162a565b6040516105119190613c8d565b60405180910390f35b610534600480360381019061052f919061268e565b6116c2565b005b610550600480360381019061054b9190613cad565b611823565b005b61056c60048036038101906105679190612a65565b611963565b005b6105886004803603810190610583919061268e565b611aa0565b005b6105a4600480360381019061059f91906126ec565b611c01565b005b6105c060048036038101906105bb91906126ec565b611d3b565b005b6105dc60048036038101906105d7919061268e565b611e75565b005b6105e6611fd6565b6040516105f39190612a4c565b60405180910390f35b610604611ffb565b6040516106119190613e0e565b60405180910390f35b610634600480360381019061062f9190612a65565b612093565b6040516106419190613e3d565b60405180910390f35b610664600480360381019061065f91906126ec565b6121e8565b005b610680600480360381019061067b91906126ec565b612322565b60405161068d9190613e90565b60405180910390f35b6106b060048036038101906106ab919061350c565b6123cd565b005b6106ba61250a565b6040516106c79190612a4c565b60405180910390f35b5f60015f8373ffffffffffffffffffffffffffffffffffffffff1673ffffffffffffffffffffffffffffffffffffffff1681526020019081526020015f205f6101000a81548160ff0219169083600281111561072f5761072e612918565b5b021790555050565b61073f61252f565b60025f9054906101000a900473ffffffffffffffffffffffffffffffffffffffff1673ffffffffffffffffffffffffffffffffffffffff16631e4de872836040518263ffffffff1660e01b81526004016107999190613e3d565b5f60405180830381865afa1580156107b3573d5f5f3e3d5ffd5b505050506040513d5f823e3d601f19601f820116820180604052508101906107db91906140ea565b9050919050565b6001602052805f5260405f205f915054906101000a900460ff1681565b610807612568565b60045f9054906101000a900473ffffffffffffffffffffffffffffffffffffffff1673ffffffffffffffffffffffffffffffffffffffff16633844ac5b836040518263ffffffff1660e01b81526004016108619190613e3d565b60a060405180830381865afa15801561087c573d5f5f3e3d5ffd5b505050506040513d601f19601f820116820180604052508101906108a091906141e4565b9050919050565b60025f9054906101000a900473ffffffffffffffffffffffffffffffffffffffff1681565b600160028111156108e0576108df612918565b5b60015f3373ffffffffffffffffffffffffffffffffffffffff1673ffffffffffffffffffffffffffffffffffffffff1681526020019081526020015f205f9054906101000a900460ff16600281111561093c5761093b612918565b5b1461097c576040517f08c379a000000000000000000000000000000000000000000000000000000000815260040161097390614269565b60405180910390fd5b60025f9054906101000a900473ffffffffffffffffffffffffffffffffffffffff1673ffffffffffffffffffffffffffffffffffffffff16634d30a39b83836040518363ffffffff1660e01b81526004016109d8929190614287565b5f604051808303815f87803b1580156109ef575f5ffd5b505af1158015610a01573d5f5f3e3d5ffd5b505050505050565b610a11612594565b60055f9054906101000a900473ffffffffffffffffffffffffffffffffffffffff1673ffffffffffffffffffffffffffffffffffffffff16635055aa0187878787876040518663ffffffff1660e01b8152600401610a739594939291906143ce565b5f604051808303815f875af1158015610a8e573d5f5f3e3d5ffd5b505050506040513d5f823e3d601f19601f82011682018060405250810190610ab6919061474c565b905095945050505050565b60016002811115610ad557610ad4612918565b5b60015f3373ffffffffffffffffffffffffffffffffffffffff1673ffffffffffffffffffffffffffffffffffffffff1681526020019081526020015f205f9054906101000a900460ff166002811115610b3157610b30612918565b5b14610b71576040517f08c379a0000000000000000000000000000000000000000000000000000000008152600401610b6890614269565b60405180910390fd5b5f73ffffffffffffffffffffffffffffffffffffffff168173ffffffffffffffffffffffffffffffffffffffff1603610bdf576040517f08c379a0000000000000000000000000000000000000000000000000000000008152600401610bd6906147dd565b60405180910390fd5b8060035f6101000a81548173ffffffffffffffffffffffffffffffffffffffff021916908373ffffffffffffffffffffffffffffffffffffffff16021790555050565b60016002811115610c3657610c35612918565b5b60015f3373ffffffffffffffffffffffffffffffffffffffff1673ffffffffffffffffffffffffffffffffffffffff1681526020019081526020015f205f9054906101000a900460ff166002811115610c9257610c91612918565b5b14610cd2576040517f08c379a0000000000000000000000000000000000000000000000000000000008152600401610cc990614269565b60405180910390fd5b60045f9054906101000a900473ffffffffffffffffffffffffffffffffffffffff1673ffffffffffffffffffffffffffffffffffffffff16635cfd66078484846040518463ffffffff1660e01b8152600401610d30939291906147fb565b5f604051808303815f87803b158015610d47575f5ffd5b505af1158015610d59573d5f5f3e3d5ffd5b50505050505050565b606060055f9054906101000a900473ffffffffffffffffffffffffffffffffffffffff1673ffffffffffffffffffffffffffffffffffffffff166363c69f08836040518263ffffffff1660e01b8152600401610dbe9190612a4c565b5f60405180830381865afa158015610dd8573d5f5f3e3d5ffd5b505050506040513d5f823e3d601f19601f82011682018060405250810190610e0091906148f0565b9050919050565b60016002811115610e1b57610e1a612918565b5b60015f3373ffffffffffffffffffffffffffffffffffffffff1673ffffffffffffffffffffffffffffffffffffffff1681526020019081526020015f205f9054906101000a900460ff166002811115610e7757610e76612918565b5b14610eb7576040517f08c379a0000000000000000000000000000000000000000000000000000000008152600401610eae90614269565b60405180910390fd5b60025f9054906101000a900473ffffffffffffffffffffffffffffffffffffffff1673ffffffffffffffffffffffffffffffffffffffff166364f7747183836040518363ffffffff1660e01b8152600401610f13929190614a3f565b5f604051808303815f87803b158015610f2a575f5ffd5b505af1158015610f3c573d5f5f3e3d5ffd5b505050505050565b60016002811115610f5857610f57612918565b5b60015f3373ffffffffffffffffffffffffffffffffffffffff1673ffffffffffffffffffffffffffffffffffffffff1681526020019081526020015f205f9054906101000a900460ff166002811115610fb457610fb3612918565b5b14610ff4576040517f08c379a0000000000000000000000000000000000000000000000000000000008152600401610feb90614269565b60405180910390fd5b60025f9054906101000a900473ffffffffffffffffffffffffffffffffffffffff1673ffffffffffffffffffffffffffffffffffffffff16636dd2dd8886868686866040518663ffffffff1660e01b8152600401611056959493929190614af0565b5f604051808303815f87803b15801561106d575f5ffd5b505af115801561107f573d5f5f3e3d5ffd5b505050505050505050565b6001805f8373ffffffffffffffffffffffffffffffffffffffff1673ffffffffffffffffffffffffffffffffffffffff1681526020019081526020015f205f6101000a81548160ff021916908360028111156110e9576110e8612918565b5b021790555050565b6001600281111561110557611104612918565b5b60015f3373ffffffffffffffffffffffffffffffffffffffff1673ffffffffffffffffffffffffffffffffffffffff1681526020019081526020015f205f9054906101000a900460ff16600281111561116157611160612918565b5b146111a1576040517f08c379a000000000000000000000000000000000000000000000000000000000815260040161119890614269565b60405180910390fd5b60035f9054906101000a900473ffffffffffffffffffffffffffffffffffffffff1673ffffffffffffffffffffffffffffffffffffffff166378697e5b83836040518363ffffffff1660e01b81526004016111fd929190614b56565b5f604051808303815f87803b158015611214575f5ffd5b505af1158015611226573d5f5f3e3d5ffd5b505050505050565b60045f9054906101000a900473ffffffffffffffffffffffffffffffffffffffff1681565b5f5f5f9054906101000a900473ffffffffffffffffffffffffffffffffffffffff16905090565b60055f9054906101000a900473ffffffffffffffffffffffffffffffffffffffff1673ffffffffffffffffffffffffffffffffffffffff16638a46e8eb8484846040518463ffffffff1660e01b81526004016112d893929190614b93565b5f604051808303815f87803b1580156112ef575f5ffd5b505af1158015611301573d5f5f3e3d5ffd5b50505050505050565b606060055f9054906101000a900473ffffffffffffffffffffffffffffffffffffffff1673ffffffffffffffffffffffffffffffffffffffff16638ce2ec79836040518263ffffffff1660e01b81526004016113669190614bd7565b5f60405180830381865afa158015611380573d5f5f3e3d5ffd5b505050506040513d5f823e3d601f19601f820116820180604052508101906113a89190614cce565b9050919050565b60055f9054906101000a900473ffffffffffffffffffffffffffffffffffffffff1673ffffffffffffffffffffffffffffffffffffffff1663aab3196d83836040518363ffffffff1660e01b815260040161140b929190614d15565b5f604051808303815f87803b158015611422575f5ffd5b505af1158015611434573d5f5f3e3d5ffd5b505050505050565b606060025f9054906101000a900473ffffffffffffffffffffffffffffffffffffffff1673ffffffffffffffffffffffffffffffffffffffff1663af5607f9836040518263ffffffff1660e01b81526004016114989190613e3d565b5f60405180830381865afa1580156114b2573d5f5f3e3d5ffd5b505050506040513d5f823e3d601f19601f820116820180604052508101906114da9190614eab565b9050919050565b600160028111156114f5576114f4612918565b5b60015f3373ffffffffffffffffffffffffffffffffffffffff1673ffffffffffffffffffffffffffffffffffffffff1681526020019081526020015f205f9054906101000a900460ff16600281111561155157611550612918565b5b14611591576040517f08c379a000000000000000000000000000000000000000000000000000000000815260040161158890614269565b60405180910390fd5b60025f9054906101000a900473ffffffffffffffffffffffffffffffffffffffff1673ffffffffffffffffffffffffffffffffffffffff1663b447aaae8787878787876040518763ffffffff1660e01b81526004016115f596959493929190614ef2565b5f604051808303815f87803b15801561160c575f5ffd5b505af115801561161e573d5f5f3e3d5ffd5b50505050505050505050565b606060025f9054906101000a900473ffffffffffffffffffffffffffffffffffffffff1673ffffffffffffffffffffffffffffffffffffffff1663b9b5aae66040518163ffffffff1660e01b81526004015f60405180830381865afa158015611695573d5f5f3e3d5ffd5b505050506040513d5f823e3d601f19601f820116820180604052508101906116bd91906150d0565b905090565b600160028111156116d6576116d5612918565b5b60015f3373ffffffffffffffffffffffffffffffffffffffff1673ffffffffffffffffffffffffffffffffffffffff1681526020019081526020015f205f9054906101000a900460ff16600281111561173257611731612918565b5b14611772576040517f08c379a000000000000000000000000000000000000000000000000000000000815260040161176990614269565b60405180910390fd5b5f73ffffffffffffffffffffffffffffffffffffffff168173ffffffffffffffffffffffffffffffffffffffff16036117e0576040517f08c379a00000000000000000000000000000000000000000000000000000000081526004016117d7906147dd565b60405180910390fd5b8060025f6101000a81548173ffffffffffffffffffffffffffffffffffffffff021916908373ffffffffffffffffffffffffffffffffffffffff16021790555050565b6001600281111561183757611836612918565b5b60015f3373ffffffffffffffffffffffffffffffffffffffff1673ffffffffffffffffffffffffffffffffffffffff1681526020019081526020015f205f9054906101000a900460ff16600281111561189357611892612918565b5b146118d3576040517f08c379a00000000000000000000000000000000000000000000000000000000081526004016118ca90614269565b60405180910390fd5b60025f9054906101000a900473ffffffffffffffffffffffffffffffffffffffff1673ffffffffffffffffffffffffffffffffffffffff1663baf853068484846040518463ffffffff1660e01b815260040161193193929190615164565b5f604051808303815f87803b158015611948575f5ffd5b505af115801561195a573d5f5f3e3d5ffd5b50505050505050565b6001600281111561197757611976612918565b5b60015f3373ffffffffffffffffffffffffffffffffffffffff1673ffffffffffffffffffffffffffffffffffffffff1681526020019081526020015f205f9054906101000a900460ff1660028111156119d3576119d2612918565b5b14611a13576040517f08c379a0000000000000000000000000000000000000000000000000000000008152600401611a0a90614269565b60405180910390fd5b60045f9054906101000a900473ffffffffffffffffffffffffffffffffffffffff1673ffffffffffffffffffffffffffffffffffffffff1663bea02f6283836040518363ffffffff1660e01b8152600401611a6f929190614287565b5f604051808303815f87803b158015611a86575f5ffd5b505af1158015611a98573d5f5f3e3d5ffd5b505050505050565b60016002811115611ab457611ab3612918565b5b60015f3373ffffffffffffffffffffffffffffffffffffffff1673ffffffffffffffffffffffffffffffffffffffff1681526020019081526020015f205f9054906101000a900460ff166002811115611b1057611b0f612918565b5b14611b50576040517f08c379a0000000000000000000000000000000000000000000000000000000008152600401611b4790614269565b60405180910390fd5b5f73ffffffffffffffffffffffffffffffffffffffff168173ffffffffffffffffffffffffffffffffffffffff1603611bbe576040517f08c379a0000000000000000000000000000000000000000000000000000000008152600401611bb5906147dd565b60405180910390fd5b8060055f6101000a81548173ffffffffffffffffffffffffffffffffffffffff021916908373ffffffffffffffffffffffffffffffffffffffff16021790555050565b60016002811115611c1557611c14612918565b5b60015f3373ffffffffffffffffffffffffffffffffffffffff1673ffffffffffffffffffffffffffffffffffffffff1681526020019081526020015f205f9054906101000a900460ff166002811115611c7157611c70612918565b5b14611cb1576040517f08c379a0000000000000000000000000000000000000000000000000000000008152600401611ca890614269565b60405180910390fd5b60035f9054906101000a900473ffffffffffffffffffffffffffffffffffffffff1673ffffffffffffffffffffffffffffffffffffffff1663ceca737f826040518263ffffffff1660e01b8152600401611d0b9190613e3d565b5f604051808303815f87803b158015611d22575f5ffd5b505af1158015611d34573d5f5f3e3d5ffd5b5050505050565b60016002811115611d4f57611d4e612918565b5b60015f3373ffffffffffffffffffffffffffffffffffffffff1673ffffffffffffffffffffffffffffffffffffffff1681526020019081526020015f205f9054906101000a900460ff166002811115611dab57611daa612918565b5b14611deb576040517f08c379a0000000000000000000000000000000000000000000000000000000008152600401611de290614269565b60405180910390fd5b60025f9054906101000a900473ffffffffffffffffffffffffffffffffffffffff1673ffffffffffffffffffffffffffffffffffffffff1663d198b650826040518263ffffffff1660e01b8152600401611e459190613e3d565b5f604051808303815f87803b158015611e5c575f5ffd5b505af1158015611e6e573d5f5f3e3d5ffd5b5050505050565b60016002811115611e8957611e88612918565b5b60015f3373ffffffffffffffffffffffffffffffffffffffff1673ffffffffffffffffffffffffffffffffffffffff1681526020019081526020015f205f9054906101000a900460ff166002811115611ee557611ee4612918565b5b14611f25576040517f08c379a0000000000000000000000000000000000000000000000000000000008152600401611f1c90614269565b60405180910390fd5b5f73ffffffffffffffffffffffffffffffffffffffff168173ffffffffffffffffffffffffffffffffffffffff1603611f93576040517f08c379a0000000000000000000000000000000000000000000000000000000008152600401611f8a906147dd565b60405180910390fd5b8060045f6101000a81548173ffffffffffffffffffffffffffffffffffffffff021916908373ffffffffffffffffffffffffffffffffffffffff16021790555050565b60035f9054906101000a900473ffffffffffffffffffffffffffffffffffffffff1681565b606060035f9054906101000a900473ffffffffffffffffffffffffffffffffffffffff1673ffffffffffffffffffffffffffffffffffffffff1663dadd0a576040518163ffffffff1660e01b81526004015f60405180830381865afa158015612066573d5f5f3e3d5ffd5b505050506040513d5f823e3d601f19601f8201168201806040525081019061208e91906152e7565b905090565b5f600160028111156120a8576120a7612918565b5b60015f3373ffffffffffffffffffffffffffffffffffffffff1673ffffffffffffffffffffffffffffffffffffffff1681526020019081526020015f205f9054906101000a900460ff16600281111561210457612103612918565b5b14612144576040517f08c379a000000000000000000000000000000000000000000000000000000000815260040161213b90614269565b60405180910390fd5b60045f9054906101000a900473ffffffffffffffffffffffffffffffffffffffff1673ffffffffffffffffffffffffffffffffffffffff1663e1f1c48d84846040518363ffffffff1660e01b81526004016121a0929190614287565b6020604051808303815f875af11580156121bc573d5f5f3e3d5ffd5b505050506040513d601f19601f820116820180604052508101906121e0919061532e565b905092915050565b600160028111156121fc576121fb612918565b5b60015f3373ffffffffffffffffffffffffffffffffffffffff1673ffffffffffffffffffffffffffffffffffffffff1681526020019081526020015f205f9054906101000a900460ff16600281111561225857612257612918565b5b14612298576040517f08c379a000000000000000000000000000000000000000000000000000000000815260040161228f90614269565b60405180910390fd5b60045f9054906101000a900473ffffffffffffffffffffffffffffffffffffffff1673ffffffffffffffffffffffffffffffffffffffff1663e6f318c6826040518263ffffffff1660e01b81526004016122f29190613e3d565b5f604051808303815f87803b158015612309575f5ffd5b505af115801561231b573d5f5f3e3d5ffd5b5050505050565b61232a61260a565b60035f9054906101000a900473ffffffffffffffffffffffffffffffffffffffff1673ffffffffffffffffffffffffffffffffffffffff1663f3052d26836040518263ffffffff1660e01b81526004016123849190613e3d565b5f60405180830381865afa15801561239e573d5f5f3e3d5ffd5b505050506040513d5f823e3d601f19601f820116820180604052508101906123c69190615359565b9050919050565b600160028111156123e1576123e0612918565b5b60015f3373ffffffffffffffffffffffffffffffffffffffff1673ffffffffffffffffffffffffffffffffffffffff1681526020019081526020015f205f9054906101000a900460ff16600281111561243d5761243c612918565b5b1461247d576040517f08c379a000000000000000000000000000000000000000000000000000000000815260040161247490614269565b60405180910390fd5b60035f9054906101000a900473ffffffffffffffffffffffffffffffffffffffff1673ffffffffffffffffffffffffffffffffffffffff1663f7868a5283836040518363ffffffff1660e01b81526004016124d9929190614b56565b5f604051808303815f87803b1580156124f0575f5ffd5b505af1158015612502573d5f5f3e3d5ffd5b505050505050565b60055f9054906101000a900473ffffffffffffffffffffffffffffffffffffffff1681565b6040518060e001604052805f815260200160608152602001606081526020015f8152602001606081526020015f81526020015f81525090565b6040518060a001604052805f81526020015f81526020015f81526020015f81526020015f151581525090565b6040518061014001604052805f81526020015f73ffffffffffffffffffffffffffffffffffffffff16815260200160608152602001606081526020016060815260200160608152602001606081526020015f81526020015f60028111156125fe576125fd612918565b5b81526020015f81525090565b60405180604001604052805f8152602001606081525090565b5f604051905090565b5f5ffd5b5f5ffd5b5f73ffffffffffffffffffffffffffffffffffffffff82169050919050565b5f61265d82612634565b9050919050565b61266d81612653565b8114612677575f5ffd5b50565b5f8135905061268881612664565b92915050565b5f602082840312156126a3576126a261262c565b5b5f6126b08482850161267a565b91505092915050565b5f819050919050565b6126cb816126b9565b81146126d5575f5ffd5b50565b5f813590506126e6816126c2565b92915050565b5f602082840312156127015761270061262c565b5b5f61270e848285016126d8565b91505092915050565b612720816126b9565b82525050565b5f81519050919050565b5f82825260208201905092915050565b8281835e5f83830152505050565b5f601f19601f8301169050919050565b5f61276882612726565b6127728185612730565b9350612782818560208601612740565b61278b8161274e565b840191505092915050565b5f81519050919050565b5f82825260208201905092915050565b5f819050602082019050919050565b5f6127ca838361275e565b905092915050565b5f602082019050919050565b5f6127e882612796565b6127f281856127a0565b935083602082028501612804856127b0565b805f5b8581101561283f578484038952815161282085826127bf565b945061282b836127d2565b925060208a01995050600181019050612807565b50829750879550505050505092915050565b5f60e083015f8301516128665f860182612717565b506020830151848203602086015261287e828261275e565b91505060408301518482036040860152612898828261275e565b91505060608301516128ad6060860182612717565b50608083015184820360808601526128c582826127de565b91505060a08301516128da60a0860182612717565b5060c08301516128ed60c0860182612717565b508091505092915050565b5f6020820190508181035f8301526129108184612851565b905092915050565b7f4e487b71000000000000000000000000000000000000000000000000000000005f52602160045260245ffd5b6003811061295657612955612918565b5b50565b5f81905061296682612945565b919050565b5f61297582612959565b9050919050565b6129858161296b565b82525050565b5f60208201905061299e5f83018461297c565b92915050565b5f8115159050919050565b6129b8816129a4565b82525050565b60a082015f8201516129d25f850182612717565b5060208201516129e56020850182612717565b5060408201516129f86040850182612717565b506060820151612a0b6060850182612717565b506080820151612a1e60808501826129af565b50505050565b5f60a082019050612a375f8301846129be565b92915050565b612a4681612653565b82525050565b5f602082019050612a5f5f830184612a3d565b92915050565b5f5f60408385031215612a7b57612a7a61262c565b5b5f612a88858286016126d8565b9250506020612a99858286016126d8565b9150509250929050565b5f5ffd5b5f5ffd5b7f4e487b71000000000000000000000000000000000000000000000000000000005f52604160045260245ffd5b612ae18261274e565b810181811067ffffffffffffffff82111715612b0057612aff612aab565b5b80604052505050565b5f612b12612623565b9050612b1e8282612ad8565b919050565b5f67ffffffffffffffff821115612b3d57612b3c612aab565b5b612b468261274e565b9050602081019050919050565b828183375f83830152505050565b5f612b73612b6e84612b23565b612b09565b905082815260208101848484011115612b8f57612b8e612aa7565b5b612b9a848285612b53565b509392505050565b5f82601f830112612bb657612bb5612aa3565b5b8135612bc6848260208601612b61565b91505092915050565b5f67ffffffffffffffff821115612be957612be8612aab565b5b602082029050602081019050919050565b5f5ffd5b5f5ffd5b5f5ffd5b5f60608284031215612c1b57612c1a612bfe565b5b612c256060612b09565b90505f612c34848285016126d8565b5f830152506020612c47848285016126d8565b6020830152506040612c5b848285016126d8565b60408301525092915050565b5f612c79612c7484612bcf565b612b09565b90508083825260208201905060608402830185811115612c9c57612c9b612bfa565b5b835b81811015612cc55780612cb18882612c06565b845260208401935050606081019050612c9e565b5050509392505050565b5f82601f830112612ce357612ce2612aa3565b5b8135612cf3848260208601612c67565b91505092915050565b5f5f5f5f5f60a08688031215612d1557612d1461262c565b5b5f612d228882890161267a565b9550506020612d33888289016126d8565b945050604086013567ffffffffffffffff811115612d5457612d53612630565b5b612d6088828901612ba2565b935050606086013567ffffffffffffffff811115612d8157612d80612630565b5b612d8d88828901612ba2565b925050608086013567ffffffffffffffff811115612dae57612dad612630565b5b612dba88828901612ccf565b9150509295509295909350565b612dd081612653565b82525050565b5f81519050919050565b5f82825260208201905092915050565b5f819050602082019050919050565b60038110612e1057612e0f612918565b5b50565b5f819050612e2082612dff565b919050565b5f612e2f82612e13565b9050919050565b612e3f81612e25565b82525050565b60c082015f820151612e595f850182612717565b506020820151612e6c6020850182612717565b506040820151612e7f6040850182612717565b506060820151612e926060850182612717565b506080820151612ea56080850182612717565b5060a0820151612eb860a0850182612e36565b50505050565b5f612ec98383612e45565b60c08301905092915050565b5f602082019050919050565b5f612eeb82612dd6565b612ef58185612de0565b9350612f0083612df0565b805f5b83811015612f30578151612f178882612ebe565b9750612f2283612ed5565b925050600181019050612f03565b5085935050505092915050565b60038110612f4e57612f4d612918565b5b50565b5f819050612f5e82612f3d565b919050565b5f612f6d82612f51565b9050919050565b612f7d81612f63565b82525050565b5f61014083015f830151612f995f860182612717565b506020830151612fac6020860182612dc7565b5060408301518482036040860152612fc4828261275e565b91505060608301518482036060860152612fde828261275e565b91505060808301518482036080860152612ff8828261275e565b91505060a083015184820360a0860152613012828261275e565b91505060c083015184820360c086015261302c8282612ee1565b91505060e083015161304160e0860182612717565b50610100830151613056610100860182612f74565b5061012083015161306b610120860182612717565b508091505092915050565b5f6020820190508181035f83015261308e8184612f83565b905092915050565b5f5f5f606084860312156130ad576130ac61262c565b5b5f6130ba868287016126d8565b93505060206130cb868287016126d8565b92505060406130dc868287016126d8565b9150509250925092565b5f81519050919050565b5f82825260208201905092915050565b5f819050602082019050919050565b5f61311a8383612717565b60208301905092915050565b5f602082019050919050565b5f61313c826130e6565b61314681856130f0565b935061315183613100565b805f5b83811015613181578151613168888261310f565b975061317383613126565b925050600181019050613154565b5085935050505092915050565b5f6020820190508181035f8301526131a68184613132565b905092915050565b5f67ffffffffffffffff8211156131c8576131c7612aab565b5b602082029050602081019050919050565b5f606082840312156131ee576131ed612bfe565b5b6131f86060612b09565b90505f82013567ffffffffffffffff81111561321757613216612c02565b5b61322384828501612ba2565b5f830152506020613236848285016126d8565b602083015250604061324a848285016126d8565b60408301525092915050565b5f613268613263846131ae565b612b09565b9050808382526020820190506020840283018581111561328b5761328a612bfa565b5b835b818110156132d257803567ffffffffffffffff8111156132b0576132af612aa3565b5b8086016132bd89826131d9565b8552602085019450505060208101905061328d565b5050509392505050565b5f82601f8301126132f0576132ef612aa3565b5b8135613300848260208601613256565b91505092915050565b5f5f6040838503121561331f5761331e61262c565b5b5f61332c858286016126d8565b925050602083013567ffffffffffffffff81111561334d5761334c612630565b5b613359858286016132dc565b9150509250929050565b5f67ffffffffffffffff82111561337d5761337c612aab565b5b602082029050602081019050919050565b5f6133a061339b84613363565b612b09565b905080838252602082019050602084028301858111156133c3576133c2612bfa565b5b835b8181101561340a57803567ffffffffffffffff8111156133e8576133e7612aa3565b5b8086016133f58982612ba2565b855260208501945050506020810190506133c5565b5050509392505050565b5f82601f83011261342857613427612aa3565b5b813561343884826020860161338e565b91505092915050565b5f5f5f5f5f60a0868803121561345a5761345961262c565b5b5f613467888289016126d8565b955050602086013567ffffffffffffffff81111561348857613487612630565b5b61349488828901612ba2565b945050604086013567ffffffffffffffff8111156134b5576134b4612630565b5b6134c188828901612ba2565b93505060606134d2888289016126d8565b925050608086013567ffffffffffffffff8111156134f3576134f2612630565b5b6134ff88828901613414565b9150509295509295909350565b5f5f604083850312156135225761352161262c565b5b5f61352f858286016126d8565b925050602083013567ffffffffffffffff8111156135505761354f612630565b5b61355c85828601612ba2565b9150509250929050565b60038110613572575f5ffd5b50565b5f8135905061358381613566565b92915050565b5f5f5f606084860312156135a05761359f61262c565b5b5f6135ad868287016126d8565b93505060206135be868287016126d8565b92505060406135cf86828701613575565b9150509250925092565b600381106135e5575f5ffd5b50565b5f813590506135f6816135d9565b92915050565b5f602082840312156136115761361061262c565b5b5f61361e848285016135e8565b91505092915050565b5f81519050919050565b5f82825260208201905092915050565b5f819050602082019050919050565b5f61014083015f8301516136665f860182612717565b5060208301516136796020860182612dc7565b5060408301518482036040860152613691828261275e565b915050606083015184820360608601526136ab828261275e565b915050608083015184820360808601526136c5828261275e565b91505060a083015184820360a08601526136df828261275e565b91505060c083015184820360c08601526136f98282612ee1565b91505060e083015161370e60e0860182612717565b50610100830151613723610100860182612f74565b50610120830151613738610120860182612717565b508091505092915050565b5f61374e8383613650565b905092915050565b5f602082019050919050565b5f61376c82613627565b6137768185613631565b93508360208202850161378885613641565b805f5b858110156137c357848403895281516137a48582613743565b94506137af83613756565b925060208a0199505060018101905061378b565b50829750879550505050505092915050565b5f6020820190508181035f8301526137ed8184613762565b905092915050565b5f5f6040838503121561380b5761380a61262c565b5b5f613818858286016126d8565b9250506020613829858286016135e8565b9150509250929050565b5f81519050919050565b5f82825260208201905092915050565b5f819050602082019050919050565b5f608083015f8301516138715f860182612717565b5060208301518482036020860152613889828261275e565b915050604083015161389e6040860182612717565b5060608301516138b16060860182612717565b508091505092915050565b5f6138c7838361385c565b905092915050565b5f602082019050919050565b5f6138e582613833565b6138ef818561383d565b9350836020820285016139018561384d565b805f5b8581101561393c578484038952815161391d85826138bc565b9450613928836138cf565b925060208a01995050600181019050613904565b50829750879550505050505092915050565b5f6020820190508181035f83015261396681846138db565b905092915050565b5f5f5f5f5f5f60c087890312156139885761398761262c565b5b5f61399589828a016126d8565b965050602087013567ffffffffffffffff8111156139b6576139b5612630565b5b6139c289828a01612ba2565b955050604087013567ffffffffffffffff8111156139e3576139e2612630565b5b6139ef89828a01612ba2565b9450506060613a0089828a016126d8565b935050608087013567ffffffffffffffff811115613a2157613a20612630565b5b613a2d89828a01613414565b92505060a087013567ffffffffffffffff811115613a4e57613a4d612630565b5b613a5a89828a016132dc565b9150509295509295509295565b5f81519050919050565b5f82825260208201905092915050565b5f819050602082019050919050565b5f60e083015f830151613aa55f860182612717565b5060208301518482036020860152613abd828261275e565b91505060408301518482036040860152613ad7828261275e565b9150506060830151613aec6060860182612717565b5060808301518482036080860152613b0482826127de565b91505060a0830151613b1960a0860182612717565b5060c0830151613b2c60c0860182612717565b508091505092915050565b5f82825260208201905092915050565b5f613b5182613833565b613b5b8185613b37565b935083602082028501613b6d8561384d565b805f5b85811015613ba85784840389528151613b8985826138bc565b9450613b94836138cf565b925060208a01995050600181019050613b70565b50829750879550505050505092915050565b5f604083015f8301518482035f860152613bd48282613a90565b91505060208301518482036020860152613bee8282613b47565b9150508091505092915050565b5f613c068383613bba565b905092915050565b5f602082019050919050565b5f613c2482613a67565b613c2e8185613a71565b935083602082028501613c4085613a81565b805f5b85811015613c7b5784840389528151613c5c8582613bfb565b9450613c6783613c0e565b925060208a01995050600181019050613c43565b50829750879550505050505092915050565b5f6020820190508181035f830152613ca58184613c1a565b905092915050565b5f5f5f60608486031215613cc457613cc361262c565b5b5f613cd1868287016126d8565b9350506020613ce2868287016126d8565b925050604084013567ffffffffffffffff811115613d0357613d02612630565b5b613d0f868287016131d9565b9150509250925092565b5f81519050919050565b5f82825260208201905092915050565b5f819050602082019050919050565b5f604083015f830151613d575f860182612717565b5060208301518482036020860152613d6f828261275e565b9150508091505092915050565b5f613d878383613d42565b905092915050565b5f602082019050919050565b5f613da582613d19565b613daf8185613d23565b935083602082028501613dc185613d33565b805f5b85811015613dfc5784840389528151613ddd8582613d7c565b9450613de883613d8f565b925060208a01995050600181019050613dc4565b50829750879550505050505092915050565b5f6020820190508181035f830152613e268184613d9b565b905092915050565b613e37816126b9565b82525050565b5f602082019050613e505f830184613e2e565b92915050565b5f604083015f830151613e6b5f860182612717565b5060208301518482036020860152613e83828261275e565b9150508091505092915050565b5f6020820190508181035f830152613ea88184613e56565b905092915050565b5f81519050613ebe816126c2565b92915050565b5f613ed6613ed184612b23565b612b09565b905082815260208101848484011115613ef257613ef1612aa7565b5b613efd848285612740565b509392505050565b5f82601f830112613f1957613f18612aa3565b5b8151613f29848260208601613ec4565b91505092915050565b5f613f44613f3f84613363565b612b09565b90508083825260208201905060208402830185811115613f6757613f66612bfa565b5b835b81811015613fae57805167ffffffffffffffff811115613f8c57613f8b612aa3565b5b808601613f998982613f05565b85526020850194505050602081019050613f69565b5050509392505050565b5f82601f830112613fcc57613fcb612aa3565b5b8151613fdc848260208601613f32565b91505092915050565b5f60e08284031215613ffa57613ff9612bfe565b5b61400460e0612b09565b90505f61401384828501613eb0565b5f83015250602082015167ffffffffffffffff81111561403657614035612c02565b5b61404284828501613f05565b602083015250604082015167ffffffffffffffff81111561406657614065612c02565b5b61407284828501613f05565b604083015250606061408684828501613eb0565b606083015250608082015167ffffffffffffffff8111156140aa576140a9612c02565b5b6140b684828501613fb8565b60808301525060a06140ca84828501613eb0565b60a08301525060c06140de84828501613eb0565b60c08301525092915050565b5f602082840312156140ff576140fe61262c565b5b5f82015167ffffffffffffffff81111561411c5761411b612630565b5b61412884828501613fe5565b91505092915050565b61413a816129a4565b8114614144575f5ffd5b50565b5f8151905061415581614131565b92915050565b5f60a082840312156141705761416f612bfe565b5b61417a60a0612b09565b90505f61418984828501613eb0565b5f83015250602061419c84828501613eb0565b60208301525060406141b084828501613eb0565b60408301525060606141c484828501613eb0565b60608301525060806141d884828501614147565b60808301525092915050565b5f60a082840312156141f9576141f861262c565b5b5f6142068482850161415b565b91505092915050565b5f82825260208201905092915050565b7f596f7520617265206e6f742061646d696e0000000000000000000000000000005f82015250565b5f61425360118361420f565b915061425e8261421f565b602082019050919050565b5f6020820190508181035f83015261428081614247565b9050919050565b5f60408201905061429a5f830185613e2e565b6142a76020830184613e2e565b9392505050565b5f6142b882612726565b6142c2818561420f565b93506142d2818560208601612740565b6142db8161274e565b840191505092915050565b5f81519050919050565b5f82825260208201905092915050565b5f819050602082019050919050565b606082015f8201516143235f850182612717565b5060208201516143366020850182612717565b5060408201516143496040850182612717565b50505050565b5f61435a838361430f565b60608301905092915050565b5f602082019050919050565b5f61437c826142e6565b61438681856142f0565b935061439183614300565b805f5b838110156143c15781516143a8888261434f565b97506143b383614366565b925050600181019050614394565b5085935050505092915050565b5f60a0820190506143e15f830188612a3d565b6143ee6020830187613e2e565b818103604083015261440081866142ae565b9050818103606083015261441481856142ae565b905081810360808301526144288184614372565b90509695505050505050565b5f8151905061444281612664565b92915050565b5f67ffffffffffffffff82111561446257614461612aab565b5b602082029050602081019050919050565b5f8151905061448181613566565b92915050565b5f60c0828403121561449c5761449b612bfe565b5b6144a660c0612b09565b90505f6144b584828501613eb0565b5f8301525060206144c884828501613eb0565b60208301525060406144dc84828501613eb0565b60408301525060606144f084828501613eb0565b606083015250608061450484828501613eb0565b60808301525060a061451884828501614473565b60a08301525092915050565b5f61453661453184614448565b612b09565b90508083825260208201905060c0840283018581111561455957614558612bfa565b5b835b81811015614582578061456e8882614487565b84526020840193505060c08101905061455b565b5050509392505050565b5f82601f8301126145a05761459f612aa3565b5b81516145b0848260208601614524565b91505092915050565b5f815190506145c7816135d9565b92915050565b5f61014082840312156145e3576145e2612bfe565b5b6145ee610140612b09565b90505f6145fd84828501613eb0565b5f83015250602061461084828501614434565b602083015250604082015167ffffffffffffffff81111561463457614633612c02565b5b61464084828501613f05565b604083015250606082015167ffffffffffffffff81111561466457614663612c02565b5b61467084828501613f05565b606083015250608082015167ffffffffffffffff81111561469457614693612c02565b5b6146a084828501613f05565b60808301525060a082015167ffffffffffffffff8111156146c4576146c3612c02565b5b6146d084828501613f05565b60a08301525060c082015167ffffffffffffffff8111156146f4576146f3612c02565b5b6147008482850161458c565b60c08301525060e061471484828501613eb0565b60e083015250610100614729848285016145b9565b6101008301525061012061473f84828501613eb0565b6101208301525092915050565b5f602082840312156147615761476061262c565b5b5f82015167ffffffffffffffff81111561477e5761477d612630565b5b61478a848285016145cd565b91505092915050565b7f496e76616c6964206164647265737300000000000000000000000000000000005f82015250565b5f6147c7600f8361420f565b91506147d282614793565b602082019050919050565b5f6020820190508181035f8301526147f4816147bb565b9050919050565b5f60608201905061480e5f830186613e2e565b61481b6020830185613e2e565b6148286040830184613e2e565b949350505050565b5f67ffffffffffffffff82111561484a57614849612aab565b5b602082029050602081019050919050565b5f61486d61486884614830565b612b09565b905080838252602082019050602084028301858111156148905761488f612bfa565b5b835b818110156148b957806148a58882613eb0565b845260208401935050602081019050614892565b5050509392505050565b5f82601f8301126148d7576148d6612aa3565b5b81516148e784826020860161485b565b91505092915050565b5f602082840312156149055761490461262c565b5b5f82015167ffffffffffffffff81111561492257614921612630565b5b61492e848285016148c3565b91505092915050565b5f81519050919050565b5f82825260208201905092915050565b5f819050602082019050919050565b5f606083015f8301518482035f86015261497a828261275e565b915050602083015161498f6020860182612717565b5060408301516149a26040860182612717565b508091505092915050565b5f6149b88383614960565b905092915050565b5f602082019050919050565b5f6149d682614937565b6149e08185614941565b9350836020820285016149f285614951565b805f5b85811015614a2d5784840389528151614a0e85826149ad565b9450614a19836149c0565b925060208a019950506001810190506149f5565b50829750879550505050505092915050565b5f604082019050614a525f830185613e2e565b8181036020830152614a6481846149cc565b90509392505050565b5f82825260208201905092915050565b5f614a8782612796565b614a918185614a6d565b935083602082028501614aa3856127b0565b805f5b85811015614ade5784840389528151614abf85826127bf565b9450614aca836127d2565b925060208a01995050600181019050614aa6565b50829750879550505050505092915050565b5f60a082019050614b035f830188613e2e565b8181036020830152614b1581876142ae565b90508181036040830152614b2981866142ae565b9050614b386060830185613e2e565b8181036080830152614b4a8184614a7d565b90509695505050505050565b5f604082019050614b695f830185613e2e565b8181036020830152614b7b81846142ae565b90509392505050565b614b8d81612e25565b82525050565b5f606082019050614ba65f830186613e2e565b614bb36020830185613e2e565b614bc06040830184614b84565b949350505050565b614bd181612f63565b82525050565b5f602082019050614bea5f830184614bc8565b92915050565b5f67ffffffffffffffff821115614c0a57614c09612aab565b5b602082029050602081019050919050565b5f614c2d614c2884614bf0565b612b09565b90508083825260208201905060208402830185811115614c5057614c4f612bfa565b5b835b81811015614c9757805167ffffffffffffffff811115614c7557614c74612aa3565b5b808601614c8289826145cd565b85526020850194505050602081019050614c52565b5050509392505050565b5f82601f830112614cb557614cb4612aa3565b5b8151614cc5848260208601614c1b565b91505092915050565b5f60208284031215614ce357614ce261262c565b5b5f82015167ffffffffffffffff811115614d0057614cff612630565b5b614d0c84828501614ca1565b91505092915050565b5f604082019050614d285f830185613e2e565b614d356020830184614bc8565b9392505050565b5f67ffffffffffffffff821115614d5657614d55612aab565b5b602082029050602081019050919050565b5f60808284031215614d7c57614d7b612bfe565b5b614d866080612b09565b90505f614d9584828501613eb0565b5f83015250602082015167ffffffffffffffff811115614db857614db7612c02565b5b614dc484828501613f05565b6020830152506040614dd884828501613eb0565b6040830152506060614dec84828501613eb0565b60608301525092915050565b5f614e0a614e0584614d3c565b612b09565b90508083825260208201905060208402830185811115614e2d57614e2c612bfa565b5b835b81811015614e7457805167ffffffffffffffff811115614e5257614e51612aa3565b5b808601614e5f8982614d67565b85526020850194505050602081019050614e2f565b5050509392505050565b5f82601f830112614e9257614e91612aa3565b5b8151614ea2848260208601614df8565b91505092915050565b5f60208284031215614ec057614ebf61262c565b5b5f82015167ffffffffffffffff811115614edd57614edc612630565b5b614ee984828501614e7e565b91505092915050565b5f60c082019050614f055f830189613e2e565b8181036020830152614f1781886142ae565b90508181036040830152614f2b81876142ae565b9050614f3a6060830186613e2e565b8181036080830152614f4c8185614a7d565b905081810360a0830152614f6081846149cc565b9050979650505050505050565b5f67ffffffffffffffff821115614f8757614f86612aab565b5b602082029050602081019050919050565b5f60408284031215614fad57614fac612bfe565b5b614fb76040612b09565b90505f82015167ffffffffffffffff811115614fd657614fd5612c02565b5b614fe284828501613fe5565b5f83015250602082015167ffffffffffffffff81111561500557615004612c02565b5b61501184828501614e7e565b60208301525092915050565b5f61502f61502a84614f6d565b612b09565b9050808382526020820190506020840283018581111561505257615051612bfa565b5b835b8181101561509957805167ffffffffffffffff81111561507757615076612aa3565b5b8086016150848982614f98565b85526020850194505050602081019050615054565b5050509392505050565b5f82601f8301126150b7576150b6612aa3565b5b81516150c784826020860161501d565b91505092915050565b5f602082840312156150e5576150e461262c565b5b5f82015167ffffffffffffffff81111561510257615101612630565b5b61510e848285016150a3565b91505092915050565b5f606083015f8301518482035f860152615131828261275e565b91505060208301516151466020860182612717565b5060408301516151596040860182612717565b508091505092915050565b5f6060820190506151775f830186613e2e565b6151846020830185613e2e565b81810360408301526151968184615117565b9050949350505050565b5f67ffffffffffffffff8211156151ba576151b9612aab565b5b602082029050602081019050919050565b5f604082840312156151e0576151df612bfe565b5b6151ea6040612b09565b90505f6151f984828501613eb0565b5f83015250602082015167ffffffffffffffff81111561521c5761521b612c02565b5b61522884828501613f05565b60208301525092915050565b5f615246615241846151a0565b612b09565b9050808382526020820190506020840283018581111561526957615268612bfa565b5b835b818110156152b057805167ffffffffffffffff81111561528e5761528d612aa3565b5b80860161529b89826151cb565b8552602085019450505060208101905061526b565b5050509392505050565b5f82601f8301126152ce576152cd612aa3565b5b81516152de848260208601615234565b91505092915050565b5f602082840312156152fc576152fb61262c565b5b5f82015167ffffffffffffffff81111561531957615318612630565b5b615325848285016152ba565b91505092915050565b5f602082840312156153435761534261262c565b5b5f61535084828501613eb0565b91505092915050565b5f6020828403121561536e5761536d61262c565b5b5f82015167ffffffffffffffff81111561538b5761538a612630565b5b615397848285016151cb565b9150509291505056fea2646970667358221220c52584b108ec2e7a32345e11f2f6be8c8b651b971fcc874ad97b7c98f4a1579264736f6c634300081e0033",
			"opcodes": "PUSH1 0x80 PUSH1 0x40 MSTORE CALLVALUE DUP1 ISZERO PUSH1 0xE JUMPI PUSH0 PUSH0 REVERT JUMPDEST POP CALLER PUSH0 PUSH0 PUSH2 0x100 EXP DUP2 SLOAD DUP2 PUSH20 0xFFFFFFFFFFFFFFFFFFFFFFFFFFFFFFFFFFFFFFFF MUL NOT AND SWAP1 DUP4 PUSH20 0xFFFFFFFFFFFFFFFFFFFFFFFFFFFFFFFFFFFFFFFF AND MUL OR SWAP1 SSTORE POP PUSH2 0x53D6 DUP1 PUSH2 0x5B PUSH0 CODECOPY PUSH0 RETURN INVALID PUSH1 0x80 PUSH1 0x40 MSTORE CALLVALUE DUP1 ISZERO PUSH2 0xF JUMPI PUSH0 PUSH0 REVERT JUMPDEST POP PUSH1 0x4 CALLDATASIZE LT PUSH2 0x21A JUMPI PUSH0 CALLDATALOAD PUSH1 0xE0 SHR DUP1 PUSH4 0xAAB3196D GT PUSH2 0x123 JUMPI DUP1 PUSH4 0xD198B650 GT PUSH2 0xAB JUMPI DUP1 PUSH4 0xE1F1C48D GT PUSH2 0x7A JUMPI DUP1 PUSH4 0xE1F1C48D EQ PUSH2 0x61A JUMPI DUP1 PUSH4 0xE6F318C6 EQ PUSH2 0x64A JUMPI DUP1 PUSH4 0xF3052D26 EQ PUSH2 0x666 JUMPI DUP1 PUSH4 0xF7868A52 EQ PUSH2 0x696 JUMPI DUP1 PUSH4 0xF9B6117F EQ PUSH2 0x6B2 JUMPI PUSH2 0x21A JUMP JUMPDEST DUP1 PUSH4 0xD198B650 EQ PUSH2 0x5A6 JUMPI DUP1 PUSH4 0xD7102441 EQ PUSH2 0x5C2 JUMPI DUP1 PUSH4 0xD86EC238 EQ PUSH2 0x5DE JUMPI DUP1 PUSH4 0xDADD0A57 EQ PUSH2 0x5FC JUMPI PUSH2 0x21A JUMP JUMPDEST DUP1 PUSH4 0xBAD1365E GT PUSH2 0xF2 JUMPI DUP1 PUSH4 0xBAD1365E EQ PUSH2 0x51A JUMPI DUP1 PUSH4 0xBAF85306 EQ PUSH2 0x536 JUMPI DUP1 PUSH4 0xBEA02F62 EQ PUSH2 0x552 JUMPI DUP1 PUSH4 0xC0DA840D EQ PUSH2 0x56E JUMPI DUP1 PUSH4 0xCECA737F EQ PUSH2 0x58A JUMPI PUSH2 0x21A JUMP JUMPDEST DUP1 PUSH4 0xAAB3196D EQ PUSH2 0x494 JUMPI DUP1 PUSH4 0xAF5607F9 EQ PUSH2 0x4B0 JUMPI DUP1 PUSH4 0xB447AAAE EQ PUSH2 0x4E0 JUMPI DUP1 PUSH4 0xB9B5AAE6 EQ PUSH2 0x4FC JUMPI PUSH2 0x21A JUMP JUMPDEST DUP1 PUSH4 0x63C69F08 GT PUSH2 0x1A6 JUMPI DUP1 PUSH4 0x78697E5B GT PUSH2 0x175 JUMPI DUP1 PUSH4 0x78697E5B EQ PUSH2 0x3F0 JUMPI DUP1 PUSH4 0x892BB335 EQ PUSH2 0x40C JUMPI DUP1 PUSH4 0x893D20E8 EQ PUSH2 0x42A JUMPI DUP1 PUSH4 0x8A46E8EB EQ PUSH2 0x448 JUMPI DUP1 PUSH4 0x8CE2EC79 EQ PUSH2 0x464 JUMPI PUSH2 0x21A JUMP JUMPDEST DUP1 PUSH4 0x63C69F08 EQ PUSH2 0x36C JUMPI DUP1 PUSH4 0x64F77471 EQ PUSH2 0x39C JUMPI DUP1 PUSH4 0x6DD2DD88 EQ PUSH2 0x3B8 JUMPI DUP1 PUSH4 0x70480275 EQ PUSH2 0x3D4 JUMPI PUSH2 0x21A JUMP JUMPDEST DUP1 PUSH4 0x439E61FA GT PUSH2 0x1ED JUMPI DUP1 PUSH4 0x439E61FA EQ PUSH2 0x2CA JUMPI DUP1 PUSH4 0x4D30A39B EQ PUSH2 0x2E8 JUMPI DUP1 PUSH4 0x5055AA01 EQ PUSH2 0x304 JUMPI DUP1 PUSH4 0x5CDD71DF EQ PUSH2 0x334 JUMPI DUP1 PUSH4 0x5CFD6607 EQ PUSH2 0x350 JUMPI PUSH2 0x21A JUMP JUMPDEST DUP1 PUSH4 0x1785F53C EQ PUSH2 0x21E JUMPI DUP1 PUSH4 0x1E4DE872 EQ PUSH2 0x23A JUMPI DUP1 PUSH4 0x24D7806C EQ PUSH2 0x26A JUMPI DUP1 PUSH4 0x3844AC5B EQ PUSH2 0x29A JUMPI JUMPDEST PUSH0 PUSH0 REVERT JUMPDEST PUSH2 0x238 PUSH1 0x4 DUP1 CALLDATASIZE SUB DUP2 ADD SWAP1 PUSH2 0x233 SWAP2 SWAP1 PUSH2 0x268E JUMP JUMPDEST PUSH2 0x6D0 JUMP JUMPDEST STOP JUMPDEST PUSH2 0x254 PUSH1 0x4 DUP1 CALLDATASIZE SUB DUP2 ADD SWAP1 PUSH2 0x24F SWAP2 SWAP1 PUSH2 0x26EC JUMP JUMPDEST PUSH2 0x737 JUMP JUMPDEST PUSH1 0x40 MLOAD PUSH2 0x261 SWAP2 SWAP1 PUSH2 0x28F8 JUMP JUMPDEST PUSH1 0x40 MLOAD DUP1 SWAP2 SUB SWAP1 RETURN JUMPDEST PUSH2 0x284 PUSH1 0x4 DUP1 CALLDATASIZE SUB DUP2 ADD SWAP1 PUSH2 0x27F SWAP2 SWAP1 PUSH2 0x268E JUMP JUMPDEST PUSH2 0x7E2 JUMP JUMPDEST PUSH1 0x40 MLOAD PUSH2 0x291 SWAP2 SWAP1 PUSH2 0x298B JUMP JUMPDEST PUSH1 0x40 MLOAD DUP1 SWAP2 SUB SWAP1 RETURN JUMPDEST PUSH2 0x2B4 PUSH1 0x4 DUP1 CALLDATASIZE SUB DUP2 ADD SWAP1 PUSH2 0x2AF SWAP2 SWAP1 PUSH2 0x26EC JUMP JUMPDEST PUSH2 0x7FF JUMP JUMPDEST PUSH1 0x40 MLOAD PUSH2 0x2C1 SWAP2 SWAP1 PUSH2 0x2A24 JUMP JUMPDEST PUSH1 0x40 MLOAD DUP1 SWAP2 SUB SWAP1 RETURN JUMPDEST PUSH2 0x2D2 PUSH2 0x8A7 JUMP JUMPDEST PUSH1 0x40 MLOAD PUSH2 0x2DF SWAP2 SWAP1 PUSH2 0x2A4C JUMP JUMPDEST PUSH1 0x40 MLOAD DUP1 SWAP2 SUB SWAP1 RETURN JUMPDEST PUSH2 0x302 PUSH1 0x4 DUP1 CALLDATASIZE SUB DUP2 ADD SWAP1 PUSH2 0x2FD SWAP2 SWAP1 PUSH2 0x2A65 JUMP JUMPDEST PUSH2 0x8CC JUMP JUMPDEST STOP JUMPDEST PUSH2 0x31E PUSH1 0x4 DUP1 CALLDATASIZE SUB DUP2 ADD SWAP1 PUSH2 0x319 SWAP2 SWAP1 PUSH2 0x2CFC JUMP JUMPDEST PUSH2 0xA09 JUMP JUMPDEST PUSH1 0x40 MLOAD PUSH2 0x32B SWAP2 SWAP1 PUSH2 0x3076 JUMP JUMPDEST PUSH1 0x40 MLOAD DUP1 SWAP2 SUB SWAP1 RETURN JUMPDEST PUSH2 0x34E PUSH1 0x4 DUP1 CALLDATASIZE SUB DUP2 ADD SWAP1 PUSH2 0x349 SWAP2 SWAP1 PUSH2 0x268E JUMP JUMPDEST PUSH2 0xAC1 JUMP JUMPDEST STOP JUMPDEST PUSH2 0x36A PUSH1 0x4 DUP1 CALLDATASIZE SUB DUP2 ADD SWAP1 PUSH2 0x365 SWAP2 SWAP1 PUSH2 0x3096 JUMP JUMPDEST PUSH2 0xC22 JUMP JUMPDEST STOP JUMPDEST PUSH2 0x386 PUSH1 0x4 DUP1 CALLDATASIZE SUB DUP2 ADD SWAP1 PUSH2 0x381 SWAP2 SWAP1 PUSH2 0x268E JUMP JUMPDEST PUSH2 0xD62 JUMP JUMPDEST PUSH1 0x40 MLOAD PUSH2 0x393 SWAP2 SWAP1 PUSH2 0x318E JUMP JUMPDEST PUSH1 0x40 MLOAD DUP1 SWAP2 SUB SWAP1 RETURN JUMPDEST PUSH2 0x3B6 PUSH1 0x4 DUP1 CALLDATASIZE SUB DUP2 ADD SWAP1 PUSH2 0x3B1 SWAP2 SWAP1 PUSH2 0x3309 JUMP JUMPDEST PUSH2 0xE07 JUMP JUMPDEST STOP JUMPDEST PUSH2 0x3D2 PUSH1 0x4 DUP1 CALLDATASIZE SUB DUP2 ADD SWAP1 PUSH2 0x3CD SWAP2 SWAP1 PUSH2 0x3441 JUMP JUMPDEST PUSH2 0xF44 JUMP JUMPDEST STOP JUMPDEST PUSH2 0x3EE PUSH1 0x4 DUP1 CALLDATASIZE SUB DUP2 ADD SWAP1 PUSH2 0x3E9 SWAP2 SWAP1 PUSH2 0x268E JUMP JUMPDEST PUSH2 0x108A JUMP JUMPDEST STOP JUMPDEST PUSH2 0x40A PUSH1 0x4 DUP1 CALLDATASIZE SUB DUP2 ADD SWAP1 PUSH2 0x405 SWAP2 SWAP1 PUSH2 0x350C JUMP JUMPDEST PUSH2 0x10F1 JUMP JUMPDEST STOP JUMPDEST PUSH2 0x414 PUSH2 0x122E JUMP JUMPDEST PUSH1 0x40 MLOAD PUSH2 0x421 SWAP2 SWAP1 PUSH2 0x2A4C JUMP JUMPDEST PUSH1 0x40 MLOAD DUP1 SWAP2 SUB SWAP1 RETURN JUMPDEST PUSH2 0x432 PUSH2 0x1253 JUMP JUMPDEST PUSH1 0x40 MLOAD PUSH2 0x43F SWAP2 SWAP1 PUSH2 0x2A4C JUMP JUMPDEST PUSH1 0x40 MLOAD DUP1 SWAP2 SUB SWAP1 RETURN JUMPDEST PUSH2 0x462 PUSH1 0x4 DUP1 CALLDATASIZE SUB DUP2 ADD SWAP1 PUSH2 0x45D SWAP2 SWAP1 PUSH2 0x3589 JUMP JUMPDEST PUSH2 0x127A JUMP JUMPDEST STOP JUMPDEST PUSH2 0x47E PUSH1 0x4 DUP1 CALLDATASIZE SUB DUP2 ADD SWAP1 PUSH2 0x479 SWAP2 SWAP1 PUSH2 0x35FC JUMP JUMPDEST PUSH2 0x130A JUMP JUMPDEST PUSH1 0x40 MLOAD PUSH2 0x48B SWAP2 SWAP1 PUSH2 0x37D5 JUMP JUMPDEST PUSH1 0x40 MLOAD DUP1 SWAP2 SUB SWAP1 RETURN JUMPDEST PUSH2 0x4AE PUSH1 0x4 DUP1 CALLDATASIZE SUB DUP2 ADD SWAP1 PUSH2 0x4A9 SWAP2 SWAP1 PUSH2 0x37F5 JUMP JUMPDEST PUSH2 0x13AF JUMP JUMPDEST STOP JUMPDEST PUSH2 0x4CA PUSH1 0x4 DUP1 CALLDATASIZE SUB DUP2 ADD SWAP1 PUSH2 0x4C5 SWAP2 SWAP1 PUSH2 0x26EC JUMP JUMPDEST PUSH2 0x143C JUMP JUMPDEST PUSH1 0x40 MLOAD PUSH2 0x4D7 SWAP2 SWAP1 PUSH2 0x394E JUMP JUMPDEST PUSH1 0x40 MLOAD DUP1 SWAP2 SUB SWAP1 RETURN JUMPDEST PUSH2 0x4FA PUSH1 0x4 DUP1 CALLDATASIZE SUB DUP2 ADD SWAP1 PUSH2 0x4F5 SWAP2 SWAP1 PUSH2 0x396E JUMP JUMPDEST PUSH2 0x14E1 JUMP JUMPDEST STOP JUMPDEST PUSH2 0x504 PUSH2 0x162A JUMP JUMPDEST PUSH1 0x40 MLOAD PUSH2 0x511 SWAP2 SWAP1 PUSH2 0x3C8D JUMP JUMPDEST PUSH1 0x40 MLOAD DUP1 SWAP2 SUB SWAP1 RETURN JUMPDEST PUSH2 0x534 PUSH1 0x4 DUP1 CALLDATASIZE SUB DUP2 ADD SWAP1 PUSH2 0x52F SWAP2 SWAP1 PUSH2 0x268E JUMP JUMPDEST PUSH2 0x16C2 JUMP JUMPDEST STOP JUMPDEST PUSH2 0x550 PUSH1 0x4 DUP1 CALLDATASIZE SUB DUP2 ADD SWAP1 PUSH2 0x54B SWAP2 SWAP1 PUSH2 0x3CAD JUMP JUMPDEST PUSH2 0x1823 JUMP JUMPDEST STOP JUMPDEST PUSH2 0x56C PUSH1 0x4 DUP1 CALLDATASIZE SUB DUP2 ADD SWAP1 PUSH2 0x567 SWAP2 SWAP1 PUSH2 0x2A65 JUMP JUMPDEST PUSH2 0x1963 JUMP JUMPDEST STOP JUMPDEST PUSH2 0x588 PUSH1 0x4 DUP1 CALLDATASIZE SUB DUP2 ADD SWAP1 PUSH2 0x583 SWAP2 SWAP1 PUSH2 0x268E JUMP JUMPDEST PUSH2 0x1AA0 JUMP JUMPDEST STOP JUMPDEST PUSH2 0x5A4 PUSH1 0x4 DUP1 CALLDATASIZE SUB DUP2 ADD SWAP1 PUSH2 0x59F SWAP2 SWAP1 PUSH2 0x26EC JUMP JUMPDEST PUSH2 0x1C01 JUMP JUMPDEST STOP JUMPDEST PUSH2 0x5C0 PUSH1 0x4 DUP1 CALLDATASIZE SUB DUP2 ADD SWAP1 PUSH2 0x5BB SWAP2 SWAP1 PUSH2 0x26EC JUMP JUMPDEST PUSH2 0x1D3B JUMP JUMPDEST STOP JUMPDEST PUSH2 0x5DC PUSH1 0x4 DUP1 CALLDATASIZE SUB DUP2 ADD SWAP1 PUSH2 0x5D7 SWAP2 SWAP1 PUSH2 0x268E JUMP JUMPDEST PUSH2 0x1E75 JUMP JUMPDEST STOP JUMPDEST PUSH2 0x5E6 PUSH2 0x1FD6 JUMP JUMPDEST PUSH1 0x40 MLOAD PUSH2 0x5F3 SWAP2 SWAP1 PUSH2 0x2A4C JUMP JUMPDEST PUSH1 0x40 MLOAD DUP1 SWAP2 SUB SWAP1 RETURN JUMPDEST PUSH2 0x604 PUSH2 0x1FFB JUMP JUMPDEST PUSH1 0x40 MLOAD PUSH2 0x611 SWAP2 SWAP1 PUSH2 0x3E0E JUMP JUMPDEST PUSH1 0x40 MLOAD DUP1 SWAP2 SUB SWAP1 RETURN JUMPDEST PUSH2 0x634 PUSH1 0x4 DUP1 CALLDATASIZE SUB DUP2 ADD SWAP1 PUSH2 0x62F SWAP2 SWAP1 PUSH2 0x2A65 JUMP JUMPDEST PUSH2 0x2093 JUMP JUMPDEST PUSH1 0x40 MLOAD PUSH2 0x641 SWAP2 SWAP1 PUSH2 0x3E3D JUMP JUMPDEST PUSH1 0x40 MLOAD DUP1 SWAP2 SUB SWAP1 RETURN JUMPDEST PUSH2 0x664 PUSH1 0x4 DUP1 CALLDATASIZE SUB DUP2 ADD SWAP1 PUSH2 0x65F SWAP2 SWAP1 PUSH2 0x26EC JUMP JUMPDEST PUSH2 0x21E8 JUMP JUMPDEST STOP JUMPDEST PUSH2 0x680 PUSH1 0x4 DUP1 CALLDATASIZE SUB DUP2 ADD SWAP1 PUSH2 0x67B SWAP2 SWAP1 PUSH2 0x26EC JUMP JUMPDEST PUSH2 0x2322 JUMP JUMPDEST PUSH1 0x40 MLOAD PUSH2 0x68D SWAP2 SWAP1 PUSH2 0x3E90 JUMP JUMPDEST PUSH1 0x40 MLOAD DUP1 SWAP2 SUB SWAP1 RETURN JUMPDEST PUSH2 0x6B0 PUSH1 0x4 DUP1 CALLDATASIZE SUB DUP2 ADD SWAP1 PUSH2 0x6AB SWAP2 SWAP1 PUSH2 0x350C JUMP JUMPDEST PUSH2 0x23CD JUMP JUMPDEST STOP JUMPDEST PUSH2 0x6BA PUSH2 0x250A JUMP JUMPDEST PUSH1 0x40 MLOAD PUSH2 0x6C7 SWAP2 SWAP1 PUSH2 0x2A4C JUMP JUMPDEST PUSH1 0x40 MLOAD DUP1 SWAP2 SUB SWAP1 RETURN JUMPDEST PUSH0 PUSH1 0x1 PUSH0 DUP4 PUSH20 0xFFFFFFFFFFFFFFFFFFFFFFFFFFFFFFFFFFFFFFFF AND PUSH20 0xFFFFFFFFFFFFFFFFFFFFFFFFFFFFFFFFFFFFFFFF AND DUP2 MSTORE PUSH1 0x20 ADD SWAP1 DUP2 MSTORE PUSH1 0x20 ADD PUSH0 KECCAK256 PUSH0 PUSH2 0x100 EXP DUP2 SLOAD DUP2 PUSH1 0xFF MUL NOT AND SWAP1 DUP4 PUSH1 0x2 DUP2 GT ISZERO PUSH2 0x72F JUMPI PUSH2 0x72E PUSH2 0x2918 JUMP JUMPDEST JUMPDEST MUL OR SWAP1 SSTORE POP POP JUMP JUMPDEST PUSH2 0x73F PUSH2 0x252F JUMP JUMPDEST PUSH1 0x2 PUSH0 SWAP1 SLOAD SWAP1 PUSH2 0x100 EXP SWAP1 DIV PUSH20 0xFFFFFFFFFFFFFFFFFFFFFFFFFFFFFFFFFFFFFFFF AND PUSH20 0xFFFFFFFFFFFFFFFFFFFFFFFFFFFFFFFFFFFFFFFF AND PUSH4 0x1E4DE872 DUP4 PUSH1 0x40 MLOAD DUP3 PUSH4 0xFFFFFFFF AND PUSH1 0xE0 SHL DUP2 MSTORE PUSH1 0x4 ADD PUSH2 0x799 SWAP2 SWAP1 PUSH2 0x3E3D JUMP JUMPDEST PUSH0 PUSH1 0x40 MLOAD DUP1 DUP4 SUB DUP2 DUP7 GAS STATICCALL ISZERO DUP1 ISZERO PUSH2 0x7B3 JUMPI RETURNDATASIZE PUSH0 PUSH0 RETURNDATACOPY RETURNDATASIZE PUSH0 REVERT JUMPDEST POP POP POP POP PUSH1 0x40 MLOAD RETURNDATASIZE PUSH0 DUP3 RETURNDATACOPY RETURNDATASIZE PUSH1 0x1F NOT PUSH1 0x1F DUP3 ADD AND DUP3 ADD DUP1 PUSH1 0x40 MSTORE POP DUP2 ADD SWAP1 PUSH2 0x7DB SWAP2 SWAP1 PUSH2 0x40EA JUMP JUMPDEST SWAP1 POP SWAP2 SWAP1 POP JUMP JUMPDEST PUSH1 0x1 PUSH1 0x20 MSTORE DUP1 PUSH0 MSTORE PUSH1 0x40 PUSH0 KECCAK256 PUSH0 SWAP2 POP SLOAD SWAP1 PUSH2 0x100 EXP SWAP1 DIV PUSH1 0xFF AND DUP2 JUMP JUMPDEST PUSH2 0x807 PUSH2 0x2568 JUMP JUMPDEST PUSH1 0x4 PUSH0 SWAP1 SLOAD SWAP1 PUSH2 0x100 EXP SWAP1 DIV PUSH20 0xFFFFFFFFFFFFFFFFFFFFFFFFFFFFFFFFFFFFFFFF AND PUSH20 0xFFFFFFFFFFFFFFFFFFFFFFFFFFFFFFFFFFFFFFFF AND PUSH4 0x3844AC5B DUP4 PUSH1 0x40 MLOAD DUP3 PUSH4 0xFFFFFFFF AND PUSH1 0xE0 SHL DUP2 MSTORE PUSH1 0x4 ADD PUSH2 0x861 SWAP2 SWAP1 PUSH2 0x3E3D JUMP JUMPDEST PUSH1 0xA0 PUSH1 0x40 MLOAD DUP1 DUP4 SUB DUP2 DUP7 GAS STATICCALL ISZERO DUP1 ISZERO PUSH2 0x87C JUMPI RETURNDATASIZE PUSH0 PUSH0 RETURNDATACOPY RETURNDATASIZE PUSH0 REVERT JUMPDEST POP POP POP POP PUSH1 0x40 MLOAD RETURNDATASIZE PUSH1 0x1F NOT PUSH1 0x1F DUP3 ADD AND DUP3 ADD DUP1 PUSH1 0x40 MSTORE POP DUP2 ADD SWAP1 PUSH2 0x8A0 SWAP2 SWAP1 PUSH2 0x41E4 JUMP JUMPDEST SWAP1 POP SWAP2 SWAP1 POP JUMP JUMPDEST PUSH1 0x2 PUSH0 SWAP1 SLOAD SWAP1 PUSH2 0x100 EXP SWAP1 DIV PUSH20 0xFFFFFFFFFFFFFFFFFFFFFFFFFFFFFFFFFFFFFFFF AND DUP2 JUMP JUMPDEST PUSH1 0x1 PUSH1 0x2 DUP2 GT ISZERO PUSH2 0x8E0 JUMPI PUSH2 0x8DF PUSH2 0x2918 JUMP JUMPDEST JUMPDEST PUSH1 0x1 PUSH0 CALLER PUSH20 0xFFFFFFFFFFFFFFFFFFFFFFFFFFFFFFFFFFFFFFFF AND PUSH20 0xFFFFFFFFFFFFFFFFFFFFFFFFFFFFFFFFFFFFFFFF AND DUP2 MSTORE PUSH1 0x20 ADD SWAP1 DUP2 MSTORE PUSH1 0x20 ADD PUSH0 KECCAK256 PUSH0 SWAP1 SLOAD SWAP1 PUSH2 0x100 EXP SWAP1 DIV PUSH1 0xFF AND PUSH1 0x2 DUP2 GT ISZERO PUSH2 0x93C JUMPI PUSH2 0x93B PUSH2 0x2918 JUMP JUMPDEST JUMPDEST EQ PUSH2 0x97C JUMPI PUSH1 0x40 MLOAD PUSH32 0x8C379A000000000000000000000000000000000000000000000000000000000 DUP2 MSTORE PUSH1 0x4 ADD PUSH2 0x973 SWAP1 PUSH2 0x4269 JUMP JUMPDEST PUSH1 0x40 MLOAD DUP1 SWAP2 SUB SWAP1 REVERT JUMPDEST PUSH1 0x2 PUSH0 SWAP1 SLOAD SWAP1 PUSH2 0x100 EXP SWAP1 DIV PUSH20 0xFFFFFFFFFFFFFFFFFFFFFFFFFFFFFFFFFFFFFFFF AND PUSH20 0xFFFFFFFFFFFFFFFFFFFFFFFFFFFFFFFFFFFFFFFF AND PUSH4 0x4D30A39B DUP4 DUP4 PUSH1 0x40 MLOAD DUP4 PUSH4 0xFFFFFFFF AND PUSH1 0xE0 SHL DUP2 MSTORE PUSH1 0x4 ADD PUSH2 0x9D8 SWAP3 SWAP2 SWAP1 PUSH2 0x4287 JUMP JUMPDEST PUSH0 PUSH1 0x40 MLOAD DUP1 DUP4 SUB DUP2 PUSH0 DUP8 DUP1 EXTCODESIZE ISZERO DUP1 ISZERO PUSH2 0x9EF JUMPI PUSH0 PUSH0 REVERT JUMPDEST POP GAS CALL ISZERO DUP1 ISZERO PUSH2 0xA01 JUMPI RETURNDATASIZE PUSH0 PUSH0 RETURNDATACOPY RETURNDATASIZE PUSH0 REVERT JUMPDEST POP POP POP POP POP POP JUMP JUMPDEST PUSH2 0xA11 PUSH2 0x2594 JUMP JUMPDEST PUSH1 0x5 PUSH0 SWAP1 SLOAD SWAP1 PUSH2 0x100 EXP SWAP1 DIV PUSH20 0xFFFFFFFFFFFFFFFFFFFFFFFFFFFFFFFFFFFFFFFF AND PUSH20 0xFFFFFFFFFFFFFFFFFFFFFFFFFFFFFFFFFFFFFFFF AND PUSH4 0x5055AA01 DUP8 DUP8 DUP8 DUP8 DUP8 PUSH1 0x40 MLOAD DUP7 PUSH4 0xFFFFFFFF AND PUSH1 0xE0 SHL DUP2 MSTORE PUSH1 0x4 ADD PUSH2 0xA73 SWAP6 SWAP5 SWAP4 SWAP3 SWAP2 SWAP1 PUSH2 0x43CE JUMP JUMPDEST PUSH0 PUSH1 0x40 MLOAD DUP1 DUP4 SUB DUP2 PUSH0 DUP8 GAS CALL ISZERO DUP1 ISZERO PUSH2 0xA8E JUMPI RETURNDATASIZE PUSH0 PUSH0 RETURNDATACOPY RETURNDATASIZE PUSH0 REVERT JUMPDEST POP POP POP POP PUSH1 0x40 MLOAD RETURNDATASIZE PUSH0 DUP3 RETURNDATACOPY RETURNDATASIZE PUSH1 0x1F NOT PUSH1 0x1F DUP3 ADD AND DUP3 ADD DUP1 PUSH1 0x40 MSTORE POP DUP2 ADD SWAP1 PUSH2 0xAB6 SWAP2 SWAP1 PUSH2 0x474C JUMP JUMPDEST SWAP1 POP SWAP6 SWAP5 POP POP POP POP POP JUMP JUMPDEST PUSH1 0x1 PUSH1 0x2 DUP2 GT ISZERO PUSH2 0xAD5 JUMPI PUSH2 0xAD4 PUSH2 0x2918 JUMP JUMPDEST JUMPDEST PUSH1 0x1 PUSH0 CALLER PUSH20 0xFFFFFFFFFFFFFFFFFFFFFFFFFFFFFFFFFFFFFFFF AND PUSH20 0xFFFFFFFFFFFFFFFFFFFFFFFFFFFFFFFFFFFFFFFF AND DUP2 MSTORE PUSH1 0x20 ADD SWAP1 DUP2 MSTORE PUSH1 0x20 ADD PUSH0 KECCAK256 PUSH0 SWAP1 SLOAD SWAP1 PUSH2 0x100 EXP SWAP1 DIV PUSH1 0xFF AND PUSH1 0x2 DUP2 GT ISZERO PUSH2 0xB31 JUMPI PUSH2 0xB30 PUSH2 0x2918 JUMP JUMPDEST JUMPDEST EQ PUSH2 0xB71 JUMPI PUSH1 0x40 MLOAD PUSH32 0x8C379A000000000000000000000000000000000000000000000000000000000 DUP2 MSTORE PUSH1 0x4 ADD PUSH2 0xB68 SWAP1 PUSH2 0x4269 JUMP JUMPDEST PUSH1 0x40 MLOAD DUP1 SWAP2 SUB SWAP1 REVERT JUMPDEST PUSH0 PUSH20 0xFFFFFFFFFFFFFFFFFFFFFFFFFFFFFFFFFFFFFFFF AND DUP2 PUSH20 0xFFFFFFFFFFFFFFFFFFFFFFFFFFFFFFFFFFFFFFFF AND SUB PUSH2 0xBDF JUMPI PUSH1 0x40 MLOAD PUSH32 0x8C379A000000000000000000000000000000000000000000000000000000000 DUP2 MSTORE PUSH1 0x4 ADD PUSH2 0xBD6 SWAP1 PUSH2 0x47DD JUMP JUMPDEST PUSH1 0x40 MLOAD DUP1 SWAP2 SUB SWAP1 REVERT JUMPDEST DUP1 PUSH1 0x3 PUSH0 PUSH2 0x100 EXP DUP2 SLOAD DUP2 PUSH20 0xFFFFFFFFFFFFFFFFFFFFFFFFFFFFFFFFFFFFFFFF MUL NOT AND SWAP1 DUP4 PUSH20 0xFFFFFFFFFFFFFFFFFFFFFFFFFFFFFFFFFFFFFFFF AND MUL OR SWAP1 SSTORE POP POP JUMP JUMPDEST PUSH1 0x1 PUSH1 0x2 DUP2 GT ISZERO PUSH2 0xC36 JUMPI PUSH2 0xC35 PUSH2 0x2918 JUMP JUMPDEST JUMPDEST PUSH1 0x1 PUSH0 CALLER PUSH20 0xFFFFFFFFFFFFFFFFFFFFFFFFFFFFFFFFFFFFFFFF AND PUSH20 0xFFFFFFFFFFFFFFFFFFFFFFFFFFFFFFFFFFFFFFFF AND DUP2 MSTORE PUSH1 0x20 ADD SWAP1 DUP2 MSTORE PUSH1 0x20 ADD PUSH0 KECCAK256 PUSH0 SWAP1 SLOAD SWAP1 PUSH2 0x100 EXP SWAP1 DIV PUSH1 0xFF AND PUSH1 0x2 DUP2 GT ISZERO PUSH2 0xC92 JUMPI PUSH2 0xC91 PUSH2 0x2918 JUMP JUMPDEST JUMPDEST EQ PUSH2 0xCD2 JUMPI PUSH1 0x40 MLOAD PUSH32 0x8C379A000000000000000000000000000000000000000000000000000000000 DUP2 MSTORE PUSH1 0x4 ADD PUSH2 0xCC9 SWAP1 PUSH2 0x4269 JUMP JUMPDEST PUSH1 0x40 MLOAD DUP1 SWAP2 SUB SWAP1 REVERT JUMPDEST PUSH1 0x4 PUSH0 SWAP1 SLOAD SWAP1 PUSH2 0x100 EXP SWAP1 DIV PUSH20 0xFFFFFFFFFFFFFFFFFFFFFFFFFFFFFFFFFFFFFFFF AND PUSH20 0xFFFFFFFFFFFFFFFFFFFFFFFFFFFFFFFFFFFFFFFF AND PUSH4 0x5CFD6607 DUP5 DUP5 DUP5 PUSH1 0x40 MLOAD DUP5 PUSH4 0xFFFFFFFF AND PUSH1 0xE0 SHL DUP2 MSTORE PUSH1 0x4 ADD PUSH2 0xD30 SWAP4 SWAP3 SWAP2 SWAP1 PUSH2 0x47FB JUMP JUMPDEST PUSH0 PUSH1 0x40 MLOAD DUP1 DUP4 SUB DUP2 PUSH0 DUP8 DUP1 EXTCODESIZE ISZERO DUP1 ISZERO PUSH2 0xD47 JUMPI PUSH0 PUSH0 REVERT JUMPDEST POP GAS CALL ISZERO DUP1 ISZERO PUSH2 0xD59 JUMPI RETURNDATASIZE PUSH0 PUSH0 RETURNDATACOPY RETURNDATASIZE PUSH0 REVERT JUMPDEST POP POP POP POP POP POP POP JUMP JUMPDEST PUSH1 0x60 PUSH1 0x5 PUSH0 SWAP1 SLOAD SWAP1 PUSH2 0x100 EXP SWAP1 DIV PUSH20 0xFFFFFFFFFFFFFFFFFFFFFFFFFFFFFFFFFFFFFFFF AND PUSH20 0xFFFFFFFFFFFFFFFFFFFFFFFFFFFFFFFFFFFFFFFF AND PUSH4 0x63C69F08 DUP4 PUSH1 0x40 MLOAD DUP3 PUSH4 0xFFFFFFFF AND PUSH1 0xE0 SHL DUP2 MSTORE PUSH1 0x4 ADD PUSH2 0xDBE SWAP2 SWAP1 PUSH2 0x2A4C JUMP JUMPDEST PUSH0 PUSH1 0x40 MLOAD DUP1 DUP4 SUB DUP2 DUP7 GAS STATICCALL ISZERO DUP1 ISZERO PUSH2 0xDD8 JUMPI RETURNDATASIZE PUSH0 PUSH0 RETURNDATACOPY RETURNDATASIZE PUSH0 REVERT JUMPDEST POP POP POP POP PUSH1 0x40 MLOAD RETURNDATASIZE PUSH0 DUP3 RETURNDATACOPY RETURNDATASIZE PUSH1 0x1F NOT PUSH1 0x1F DUP3 ADD AND DUP3 ADD DUP1 PUSH1 0x40 MSTORE POP DUP2 ADD SWAP1 PUSH2 0xE00 SWAP2 SWAP1 PUSH2 0x48F0 JUMP JUMPDEST SWAP1 POP SWAP2 SWAP1 POP JUMP JUMPDEST PUSH1 0x1 PUSH1 0x2 DUP2 GT ISZERO PUSH2 0xE1B JUMPI PUSH2 0xE1A PUSH2 0x2918 JUMP JUMPDEST JUMPDEST PUSH1 0x1 PUSH0 CALLER PUSH20 0xFFFFFFFFFFFFFFFFFFFFFFFFFFFFFFFFFFFFFFFF AND PUSH20 0xFFFFFFFFFFFFFFFFFFFFFFFFFFFFFFFFFFFFFFFF AND DUP2 MSTORE PUSH1 0x20 ADD SWAP1 DUP2 MSTORE PUSH1 0x20 ADD PUSH0 KECCAK256 PUSH0 SWAP1 SLOAD SWAP1 PUSH2 0x100 EXP SWAP1 DIV PUSH1 0xFF AND PUSH1 0x2 DUP2 GT ISZERO PUSH2 0xE77 JUMPI PUSH2 0xE76 PUSH2 0x2918 JUMP JUMPDEST JUMPDEST EQ PUSH2 0xEB7 JUMPI PUSH1 0x40 MLOAD PUSH32 0x8C379A000000000000000000000000000000000000000000000000000000000 DUP2 MSTORE PUSH1 0x4 ADD PUSH2 0xEAE SWAP1 PUSH2 0x4269 JUMP JUMPDEST PUSH1 0x40 MLOAD DUP1 SWAP2 SUB SWAP1 REVERT JUMPDEST PUSH1 0x2 PUSH0 SWAP1 SLOAD SWAP1 PUSH2 0x100 EXP SWAP1 DIV PUSH20 0xFFFFFFFFFFFFFFFFFFFFFFFFFFFFFFFFFFFFFFFF AND PUSH20 0xFFFFFFFFFFFFFFFFFFFFFFFFFFFFFFFFFFFFFFFF AND PUSH4 0x64F77471 DUP4 DUP4 PUSH1 0x40 MLOAD DUP4 PUSH4 0xFFFFFFFF AND PUSH1 0xE0 SHL DUP2 MSTORE PUSH1 0x4 ADD PUSH2 0xF13 SWAP3 SWAP2 SWAP1 PUSH2 0x4A3F JUMP JUMPDEST PUSH0 PUSH1 0x40 MLOAD DUP1 DUP4 SUB DUP2 PUSH0 DUP8 DUP1 EXTCODESIZE ISZERO DUP1 ISZERO PUSH2 0xF2A JUMPI PUSH0 PUSH0 REVERT JUMPDEST POP GAS CALL ISZERO DUP1 ISZERO PUSH2 0xF3C JUMPI RETURNDATASIZE PUSH0 PUSH0 RETURNDATACOPY RETURNDATASIZE PUSH0 REVERT JUMPDEST POP POP POP POP POP POP JUMP JUMPDEST PUSH1 0x1 PUSH1 0x2 DUP2 GT ISZERO PUSH2 0xF58 JUMPI PUSH2 0xF57 PUSH2 0x2918 JUMP JUMPDEST JUMPDEST PUSH1 0x1 PUSH0 CALLER PUSH20 0xFFFFFFFFFFFFFFFFFFFFFFFFFFFFFFFFFFFFFFFF AND PUSH20 0xFFFFFFFFFFFFFFFFFFFFFFFFFFFFFFFFFFFFFFFF AND DUP2 MSTORE PUSH1 0x20 ADD SWAP1 DUP2 MSTORE PUSH1 0x20 ADD PUSH0 KECCAK256 PUSH0 SWAP1 SLOAD SWAP1 PUSH2 0x100 EXP SWAP1 DIV PUSH1 0xFF AND PUSH1 0x2 DUP2 GT ISZERO PUSH2 0xFB4 JUMPI PUSH2 0xFB3 PUSH2 0x2918 JUMP JUMPDEST JUMPDEST EQ PUSH2 0xFF4 JUMPI PUSH1 0x40 MLOAD PUSH32 0x8C379A000000000000000000000000000000000000000000000000000000000 DUP2 MSTORE PUSH1 0x4 ADD PUSH2 0xFEB SWAP1 PUSH2 0x4269 JUMP JUMPDEST PUSH1 0x40 MLOAD DUP1 SWAP2 SUB SWAP1 REVERT JUMPDEST PUSH1 0x2 PUSH0 SWAP1 SLOAD SWAP1 PUSH2 0x100 EXP SWAP1 DIV PUSH20 0xFFFFFFFFFFFFFFFFFFFFFFFFFFFFFFFFFFFFFFFF AND PUSH20 0xFFFFFFFFFFFFFFFFFFFFFFFFFFFFFFFFFFFFFFFF AND PUSH4 0x6DD2DD88 DUP7 DUP7 DUP7 DUP7 DUP7 PUSH1 0x40 MLOAD DUP7 PUSH4 0xFFFFFFFF AND PUSH1 0xE0 SHL DUP2 MSTORE PUSH1 0x4 ADD PUSH2 0x1056 SWAP6 SWAP5 SWAP4 SWAP3 SWAP2 SWAP1 PUSH2 0x4AF0 JUMP JUMPDEST PUSH0 PUSH1 0x40 MLOAD DUP1 DUP4 SUB DUP2 PUSH0 DUP8 DUP1 EXTCODESIZE ISZERO DUP1 ISZERO PUSH2 0x106D JUMPI PUSH0 PUSH0 REVERT JUMPDEST POP GAS CALL ISZERO DUP1 ISZERO PUSH2 0x107F JUMPI RETURNDATASIZE PUSH0 PUSH0 RETURNDATACOPY RETURNDATASIZE PUSH0 REVERT JUMPDEST POP POP POP POP POP POP POP POP POP JUMP JUMPDEST PUSH1 0x1 DUP1 PUSH0 DUP4 PUSH20 0xFFFFFFFFFFFFFFFFFFFFFFFFFFFFFFFFFFFFFFFF AND PUSH20 0xFFFFFFFFFFFFFFFFFFFFFFFFFFFFFFFFFFFFFFFF AND DUP2 MSTORE PUSH1 0x20 ADD SWAP1 DUP2 MSTORE PUSH1 0x20 ADD PUSH0 KECCAK256 PUSH0 PUSH2 0x100 EXP DUP2 SLOAD DUP2 PUSH1 0xFF MUL NOT AND SWAP1 DUP4 PUSH1 0x2 DUP2 GT ISZERO PUSH2 0x10E9 JUMPI PUSH2 0x10E8 PUSH2 0x2918 JUMP JUMPDEST JUMPDEST MUL OR SWAP1 SSTORE POP POP JUMP JUMPDEST PUSH1 0x1 PUSH1 0x2 DUP2 GT ISZERO PUSH2 0x1105 JUMPI PUSH2 0x1104 PUSH2 0x2918 JUMP JUMPDEST JUMPDEST PUSH1 0x1 PUSH0 CALLER PUSH20 0xFFFFFFFFFFFFFFFFFFFFFFFFFFFFFFFFFFFFFFFF AND PUSH20 0xFFFFFFFFFFFFFFFFFFFFFFFFFFFFFFFFFFFFFFFF AND DUP2 MSTORE PUSH1 0x20 ADD SWAP1 DUP2 MSTORE PUSH1 0x20 ADD PUSH0 KECCAK256 PUSH0 SWAP1 SLOAD SWAP1 PUSH2 0x100 EXP SWAP1 DIV PUSH1 0xFF AND PUSH1 0x2 DUP2 GT ISZERO PUSH2 0x1161 JUMPI PUSH2 0x1160 PUSH2 0x2918 JUMP JUMPDEST JUMPDEST EQ PUSH2 0x11A1 JUMPI PUSH1 0x40 MLOAD PUSH32 0x8C379A000000000000000000000000000000000000000000000000000000000 DUP2 MSTORE PUSH1 0x4 ADD PUSH2 0x1198 SWAP1 PUSH2 0x4269 JUMP JUMPDEST PUSH1 0x40 MLOAD DUP1 SWAP2 SUB SWAP1 REVERT JUMPDEST PUSH1 0x3 PUSH0 SWAP1 SLOAD SWAP1 PUSH2 0x100 EXP SWAP1 DIV PUSH20 0xFFFFFFFFFFFFFFFFFFFFFFFFFFFFFFFFFFFFFFFF AND PUSH20 0xFFFFFFFFFFFFFFFFFFFFFFFFFFFFFFFFFFFFFFFF AND PUSH4 0x78697E5B DUP4 DUP4 PUSH1 0x40 MLOAD DUP4 PUSH4 0xFFFFFFFF AND PUSH1 0xE0 SHL DUP2 MSTORE PUSH1 0x4 ADD PUSH2 0x11FD SWAP3 SWAP2 SWAP1 PUSH2 0x4B56 JUMP JUMPDEST PUSH0 PUSH1 0x40 MLOAD DUP1 DUP4 SUB DUP2 PUSH0 DUP8 DUP1 EXTCODESIZE ISZERO DUP1 ISZERO PUSH2 0x1214 JUMPI PUSH0 PUSH0 REVERT JUMPDEST POP GAS CALL ISZERO DUP1 ISZERO PUSH2 0x1226 JUMPI RETURNDATASIZE PUSH0 PUSH0 RETURNDATACOPY RETURNDATASIZE PUSH0 REVERT JUMPDEST POP POP POP POP POP POP JUMP JUMPDEST PUSH1 0x4 PUSH0 SWAP1 SLOAD SWAP1 PUSH2 0x100 EXP SWAP1 DIV PUSH20 0xFFFFFFFFFFFFFFFFFFFFFFFFFFFFFFFFFFFFFFFF AND DUP2 JUMP JUMPDEST PUSH0 PUSH0 PUSH0 SWAP1 SLOAD SWAP1 PUSH2 0x100 EXP SWAP1 DIV PUSH20 0xFFFFFFFFFFFFFFFFFFFFFFFFFFFFFFFFFFFFFFFF AND SWAP1 POP SWAP1 JUMP JUMPDEST PUSH1 0x5 PUSH0 SWAP1 SLOAD SWAP1 PUSH2 0x100 EXP SWAP1 DIV PUSH20 0xFFFFFFFFFFFFFFFFFFFFFFFFFFFFFFFFFFFFFFFF AND PUSH20 0xFFFFFFFFFFFFFFFFFFFFFFFFFFFFFFFFFFFFFFFF AND PUSH4 0x8A46E8EB DUP5 DUP5 DUP5 PUSH1 0x40 MLOAD DUP5 PUSH4 0xFFFFFFFF AND PUSH1 0xE0 SHL DUP2 MSTORE PUSH1 0x4 ADD PUSH2 0x12D8 SWAP4 SWAP3 SWAP2 SWAP1 PUSH2 0x4B93 JUMP JUMPDEST PUSH0 PUSH1 0x40 MLOAD DUP1 DUP4 SUB DUP2 PUSH0 DUP8 DUP1 EXTCODESIZE ISZERO DUP1 ISZERO PUSH2 0x12EF JUMPI PUSH0 PUSH0 REVERT JUMPDEST POP GAS CALL ISZERO DUP1 ISZERO PUSH2 0x1301 JUMPI RETURNDATASIZE PUSH0 PUSH0 RETURNDATACOPY RETURNDATASIZE PUSH0 REVERT JUMPDEST POP POP POP POP POP POP POP JUMP JUMPDEST PUSH1 0x60 PUSH1 0x5 PUSH0 SWAP1 SLOAD SWAP1 PUSH2 0x100 EXP SWAP1 DIV PUSH20 0xFFFFFFFFFFFFFFFFFFFFFFFFFFFFFFFFFFFFFFFF AND PUSH20 0xFFFFFFFFFFFFFFFFFFFFFFFFFFFFFFFFFFFFFFFF AND PUSH4 0x8CE2EC79 DUP4 PUSH1 0x40 MLOAD DUP3 PUSH4 0xFFFFFFFF AND PUSH1 0xE0 SHL DUP2 MSTORE PUSH1 0x4 ADD PUSH2 0x1366 SWAP2 SWAP1 PUSH2 0x4BD7 JUMP JUMPDEST PUSH0 PUSH1 0x40 MLOAD DUP1 DUP4 SUB DUP2 DUP7 GAS STATICCALL ISZERO DUP1 ISZERO PUSH2 0x1380 JUMPI RETURNDATASIZE PUSH0 PUSH0 RETURNDATACOPY RETURNDATASIZE PUSH0 REVERT JUMPDEST POP POP POP POP PUSH1 0x40 MLOAD RETURNDATASIZE PUSH0 DUP3 RETURNDATACOPY RETURNDATASIZE PUSH1 0x1F NOT PUSH1 0x1F DUP3 ADD AND DUP3 ADD DUP1 PUSH1 0x40 MSTORE POP DUP2 ADD SWAP1 PUSH2 0x13A8 SWAP2 SWAP1 PUSH2 0x4CCE JUMP JUMPDEST SWAP1 POP SWAP2 SWAP1 POP JUMP JUMPDEST PUSH1 0x5 PUSH0 SWAP1 SLOAD SWAP1 PUSH2 0x100 EXP SWAP1 DIV PUSH20 0xFFFFFFFFFFFFFFFFFFFFFFFFFFFFFFFFFFFFFFFF AND PUSH20 0xFFFFFFFFFFFFFFFFFFFFFFFFFFFFFFFFFFFFFFFF AND PUSH4 0xAAB3196D DUP4 DUP4 PUSH1 0x40 MLOAD DUP4 PUSH4 0xFFFFFFFF AND PUSH1 0xE0 SHL DUP2 MSTORE PUSH1 0x4 ADD PUSH2 0x140B SWAP3 SWAP2 SWAP1 PUSH2 0x4D15 JUMP JUMPDEST PUSH0 PUSH1 0x40 MLOAD DUP1 DUP4 SUB DUP2 PUSH0 DUP8 DUP1 EXTCODESIZE ISZERO DUP1 ISZERO PUSH2 0x1422 JUMPI PUSH0 PUSH0 REVERT JUMPDEST POP GAS CALL ISZERO DUP1 ISZERO PUSH2 0x1434 JUMPI RETURNDATASIZE PUSH0 PUSH0 RETURNDATACOPY RETURNDATASIZE PUSH0 REVERT JUMPDEST POP POP POP POP POP POP JUMP JUMPDEST PUSH1 0x60 PUSH1 0x2 PUSH0 SWAP1 SLOAD SWAP1 PUSH2 0x100 EXP SWAP1 DIV PUSH20 0xFFFFFFFFFFFFFFFFFFFFFFFFFFFFFFFFFFFFFFFF AND PUSH20 0xFFFFFFFFFFFFFFFFFFFFFFFFFFFFFFFFFFFFFFFF AND PUSH4 0xAF5607F9 DUP4 PUSH1 0x40 MLOAD DUP3 PUSH4 0xFFFFFFFF AND PUSH1 0xE0 SHL DUP2 MSTORE PUSH1 0x4 ADD PUSH2 0x1498 SWAP2 SWAP1 PUSH2 0x3E3D JUMP JUMPDEST PUSH0 PUSH1 0x40 MLOAD DUP1 DUP4 SUB DUP2 DUP7 GAS STATICCALL ISZERO DUP1 ISZERO PUSH2 0x14B2 JUMPI RETURNDATASIZE PUSH0 PUSH0 RETURNDATACOPY RETURNDATASIZE PUSH0 REVERT JUMPDEST POP POP POP POP PUSH1 0x40 MLOAD RETURNDATASIZE PUSH0 DUP3 RETURNDATACOPY RETURNDATASIZE PUSH1 0x1F NOT PUSH1 0x1F DUP3 ADD AND DUP3 ADD DUP1 PUSH1 0x40 MSTORE POP DUP2 ADD SWAP1 PUSH2 0x14DA SWAP2 SWAP1 PUSH2 0x4EAB JUMP JUMPDEST SWAP1 POP SWAP2 SWAP1 POP JUMP JUMPDEST PUSH1 0x1 PUSH1 0x2 DUP2 GT ISZERO PUSH2 0x14F5 JUMPI PUSH2 0x14F4 PUSH2 0x2918 JUMP JUMPDEST JUMPDEST PUSH1 0x1 PUSH0 CALLER PUSH20 0xFFFFFFFFFFFFFFFFFFFFFFFFFFFFFFFFFFFFFFFF AND PUSH20 0xFFFFFFFFFFFFFFFFFFFFFFFFFFFFFFFFFFFFFFFF AND DUP2 MSTORE PUSH1 0x20 ADD SWAP1 DUP2 MSTORE PUSH1 0x20 ADD PUSH0 KECCAK256 PUSH0 SWAP1 SLOAD SWAP1 PUSH2 0x100 EXP SWAP1 DIV PUSH1 0xFF AND PUSH1 0x2 DUP2 GT ISZERO PUSH2 0x1551 JUMPI PUSH2 0x1550 PUSH2 0x2918 JUMP JUMPDEST JUMPDEST EQ PUSH2 0x1591 JUMPI PUSH1 0x40 MLOAD PUSH32 0x8C379A000000000000000000000000000000000000000000000000000000000 DUP2 MSTORE PUSH1 0x4 ADD PUSH2 0x1588 SWAP1 PUSH2 0x4269 JUMP JUMPDEST PUSH1 0x40 MLOAD DUP1 SWAP2 SUB SWAP1 REVERT JUMPDEST PUSH1 0x2 PUSH0 SWAP1 SLOAD SWAP1 PUSH2 0x100 EXP SWAP1 DIV PUSH20 0xFFFFFFFFFFFFFFFFFFFFFFFFFFFFFFFFFFFFFFFF AND PUSH20 0xFFFFFFFFFFFFFFFFFFFFFFFFFFFFFFFFFFFFFFFF AND PUSH4 0xB447AAAE DUP8 DUP8 DUP8 DUP8 DUP8 DUP8 PUSH1 0x40 MLOAD DUP8 PUSH4 0xFFFFFFFF AND PUSH1 0xE0 SHL DUP2 MSTORE PUSH1 0x4 ADD PUSH2 0x15F5 SWAP7 SWAP6 SWAP5 SWAP4 SWAP3 SWAP2 SWAP1 PUSH2 0x4EF2 JUMP JUMPDEST PUSH0 PUSH1 0x40 MLOAD DUP1 DUP4 SUB DUP2 PUSH0 DUP8 DUP1 EXTCODESIZE ISZERO DUP1 ISZERO PUSH2 0x160C JUMPI PUSH0 PUSH0 REVERT JUMPDEST POP GAS CALL ISZERO DUP1 ISZERO PUSH2 0x161E JUMPI RETURNDATASIZE PUSH0 PUSH0 RETURNDATACOPY RETURNDATASIZE PUSH0 REVERT JUMPDEST POP POP POP POP POP POP POP POP POP POP JUMP JUMPDEST PUSH1 0x60 PUSH1 0x2 PUSH0 SWAP1 SLOAD SWAP1 PUSH2 0x100 EXP SWAP1 DIV PUSH20 0xFFFFFFFFFFFFFFFFFFFFFFFFFFFFFFFFFFFFFFFF AND PUSH20 0xFFFFFFFFFFFFFFFFFFFFFFFFFFFFFFFFFFFFFFFF AND PUSH4 0xB9B5AAE6 PUSH1 0x40 MLOAD DUP2 PUSH4 0xFFFFFFFF AND PUSH1 0xE0 SHL DUP2 MSTORE PUSH1 0x4 ADD PUSH0 PUSH1 0x40 MLOAD DUP1 DUP4 SUB DUP2 DUP7 GAS STATICCALL ISZERO DUP1 ISZERO PUSH2 0x1695 JUMPI RETURNDATASIZE PUSH0 PUSH0 RETURNDATACOPY RETURNDATASIZE PUSH0 REVERT JUMPDEST POP POP POP POP PUSH1 0x40 MLOAD RETURNDATASIZE PUSH0 DUP3 RETURNDATACOPY RETURNDATASIZE PUSH1 0x1F NOT PUSH1 0x1F DUP3 ADD AND DUP3 ADD DUP1 PUSH1 0x40 MSTORE POP DUP2 ADD SWAP1 PUSH2 0x16BD SWAP2 SWAP1 PUSH2 0x50D0 JUMP JUMPDEST SWAP1 POP SWAP1 JUMP JUMPDEST PUSH1 0x1 PUSH1 0x2 DUP2 GT ISZERO PUSH2 0x16D6 JUMPI PUSH2 0x16D5 PUSH2 0x2918 JUMP JUMPDEST JUMPDEST PUSH1 0x1 PUSH0 CALLER PUSH20 0xFFFFFFFFFFFFFFFFFFFFFFFFFFFFFFFFFFFFFFFF AND PUSH20 0xFFFFFFFFFFFFFFFFFFFFFFFFFFFFFFFFFFFFFFFF AND DUP2 MSTORE PUSH1 0x20 ADD SWAP1 DUP2 MSTORE PUSH1 0x20 ADD PUSH0 KECCAK256 PUSH0 SWAP1 SLOAD SWAP1 PUSH2 0x100 EXP SWAP1 DIV PUSH1 0xFF AND PUSH1 0x2 DUP2 GT ISZERO PUSH2 0x1732 JUMPI PUSH2 0x1731 PUSH2 0x2918 JUMP JUMPDEST JUMPDEST EQ PUSH2 0x1772 JUMPI PUSH1 0x40 MLOAD PUSH32 0x8C379A000000000000000000000000000000000000000000000000000000000 DUP2 MSTORE PUSH1 0x4 ADD PUSH2 0x1769 SWAP1 PUSH2 0x4269 JUMP JUMPDEST PUSH1 0x40 MLOAD DUP1 SWAP2 SUB SWAP1 REVERT JUMPDEST PUSH0 PUSH20 0xFFFFFFFFFFFFFFFFFFFFFFFFFFFFFFFFFFFFFFFF AND DUP2 PUSH20 0xFFFFFFFFFFFFFFFFFFFFFFFFFFFFFFFFFFFFFFFF AND SUB PUSH2 0x17E0 JUMPI PUSH1 0x40 MLOAD PUSH32 0x8C379A000000000000000000000000000000000000000000000000000000000 DUP2 MSTORE PUSH1 0x4 ADD PUSH2 0x17D7 SWAP1 PUSH2 0x47DD JUMP JUMPDEST PUSH1 0x40 MLOAD DUP1 SWAP2 SUB SWAP1 REVERT JUMPDEST DUP1 PUSH1 0x2 PUSH0 PUSH2 0x100 EXP DUP2 SLOAD DUP2 PUSH20 0xFFFFFFFFFFFFFFFFFFFFFFFFFFFFFFFFFFFFFFFF MUL NOT AND SWAP1 DUP4 PUSH20 0xFFFFFFFFFFFFFFFFFFFFFFFFFFFFFFFFFFFFFFFF AND MUL OR SWAP1 SSTORE POP POP JUMP JUMPDEST PUSH1 0x1 PUSH1 0x2 DUP2 GT ISZERO PUSH2 0x1837 JUMPI PUSH2 0x1836 PUSH2 0x2918 JUMP JUMPDEST JUMPDEST PUSH1 0x1 PUSH0 CALLER PUSH20 0xFFFFFFFFFFFFFFFFFFFFFFFFFFFFFFFFFFFFFFFF AND PUSH20 0xFFFFFFFFFFFFFFFFFFFFFFFFFFFFFFFFFFFFFFFF AND DUP2 MSTORE PUSH1 0x20 ADD SWAP1 DUP2 MSTORE PUSH1 0x20 ADD PUSH0 KECCAK256 PUSH0 SWAP1 SLOAD SWAP1 PUSH2 0x100 EXP SWAP1 DIV PUSH1 0xFF AND PUSH1 0x2 DUP2 GT ISZERO PUSH2 0x1893 JUMPI PUSH2 0x1892 PUSH2 0x2918 JUMP JUMPDEST JUMPDEST EQ PUSH2 0x18D3 JUMPI PUSH1 0x40 MLOAD PUSH32 0x8C379A000000000000000000000000000000000000000000000000000000000 DUP2 MSTORE PUSH1 0x4 ADD PUSH2 0x18CA SWAP1 PUSH2 0x4269 JUMP JUMPDEST PUSH1 0x40 MLOAD DUP1 SWAP2 SUB SWAP1 REVERT JUMPDEST PUSH1 0x2 PUSH0 SWAP1 SLOAD SWAP1 PUSH2 0x100 EXP SWAP1 DIV PUSH20 0xFFFFFFFFFFFFFFFFFFFFFFFFFFFFFFFFFFFFFFFF AND PUSH20 0xFFFFFFFFFFFFFFFFFFFFFFFFFFFFFFFFFFFFFFFF AND PUSH4 0xBAF85306 DUP5 DUP5 DUP5 PUSH1 0x40 MLOAD DUP5 PUSH4 0xFFFFFFFF AND PUSH1 0xE0 SHL DUP2 MSTORE PUSH1 0x4 ADD PUSH2 0x1931 SWAP4 SWAP3 SWAP2 SWAP1 PUSH2 0x5164 JUMP JUMPDEST PUSH0 PUSH1 0x40 MLOAD DUP1 DUP4 SUB DUP2 PUSH0 DUP8 DUP1 EXTCODESIZE ISZERO DUP1 ISZERO PUSH2 0x1948 JUMPI PUSH0 PUSH0 REVERT JUMPDEST POP GAS CALL ISZERO DUP1 ISZERO PUSH2 0x195A JUMPI RETURNDATASIZE PUSH0 PUSH0 RETURNDATACOPY RETURNDATASIZE PUSH0 REVERT JUMPDEST POP POP POP POP POP POP POP JUMP JUMPDEST PUSH1 0x1 PUSH1 0x2 DUP2 GT ISZERO PUSH2 0x1977 JUMPI PUSH2 0x1976 PUSH2 0x2918 JUMP JUMPDEST JUMPDEST PUSH1 0x1 PUSH0 CALLER PUSH20 0xFFFFFFFFFFFFFFFFFFFFFFFFFFFFFFFFFFFFFFFF AND PUSH20 0xFFFFFFFFFFFFFFFFFFFFFFFFFFFFFFFFFFFFFFFF AND DUP2 MSTORE PUSH1 0x20 ADD SWAP1 DUP2 MSTORE PUSH1 0x20 ADD PUSH0 KECCAK256 PUSH0 SWAP1 SLOAD SWAP1 PUSH2 0x100 EXP SWAP1 DIV PUSH1 0xFF AND PUSH1 0x2 DUP2 GT ISZERO PUSH2 0x19D3 JUMPI PUSH2 0x19D2 PUSH2 0x2918 JUMP JUMPDEST JUMPDEST EQ PUSH2 0x1A13 JUMPI PUSH1 0x40 MLOAD PUSH32 0x8C379A000000000000000000000000000000000000000000000000000000000 DUP2 MSTORE PUSH1 0x4 ADD PUSH2 0x1A0A SWAP1 PUSH2 0x4269 JUMP JUMPDEST PUSH1 0x40 MLOAD DUP1 SWAP2 SUB SWAP1 REVERT JUMPDEST PUSH1 0x4 PUSH0 SWAP1 SLOAD SWAP1 PUSH2 0x100 EXP SWAP1 DIV PUSH20 0xFFFFFFFFFFFFFFFFFFFFFFFFFFFFFFFFFFFFFFFF AND PUSH20 0xFFFFFFFFFFFFFFFFFFFFFFFFFFFFFFFFFFFFFFFF AND PUSH4 0xBEA02F62 DUP4 DUP4 PUSH1 0x40 MLOAD DUP4 PUSH4 0xFFFFFFFF AND PUSH1 0xE0 SHL DUP2 MSTORE PUSH1 0x4 ADD PUSH2 0x1A6F SWAP3 SWAP2 SWAP1 PUSH2 0x4287 JUMP JUMPDEST PUSH0 PUSH1 0x40 MLOAD DUP1 DUP4 SUB DUP2 PUSH0 DUP8 DUP1 EXTCODESIZE ISZERO DUP1 ISZERO PUSH2 0x1A86 JUMPI PUSH0 PUSH0 REVERT JUMPDEST POP GAS CALL ISZERO DUP1 ISZERO PUSH2 0x1A98 JUMPI RETURNDATASIZE PUSH0 PUSH0 RETURNDATACOPY RETURNDATASIZE PUSH0 REVERT JUMPDEST POP POP POP POP POP POP JUMP JUMPDEST PUSH1 0x1 PUSH1 0x2 DUP2 GT ISZERO PUSH2 0x1AB4 JUMPI PUSH2 0x1AB3 PUSH2 0x2918 JUMP JUMPDEST JUMPDEST PUSH1 0x1 PUSH0 CALLER PUSH20 0xFFFFFFFFFFFFFFFFFFFFFFFFFFFFFFFFFFFFFFFF AND PUSH20 0xFFFFFFFFFFFFFFFFFFFFFFFFFFFFFFFFFFFFFFFF AND DUP2 MSTORE PUSH1 0x20 ADD SWAP1 DUP2 MSTORE PUSH1 0x20 ADD PUSH0 KECCAK256 PUSH0 SWAP1 SLOAD SWAP1 PUSH2 0x100 EXP SWAP1 DIV PUSH1 0xFF AND PUSH1 0x2 DUP2 GT ISZERO PUSH2 0x1B10 JUMPI PUSH2 0x1B0F PUSH2 0x2918 JUMP JUMPDEST JUMPDEST EQ PUSH2 0x1B50 JUMPI PUSH1 0x40 MLOAD PUSH32 0x8C379A000000000000000000000000000000000000000000000000000000000 DUP2 MSTORE PUSH1 0x4 ADD PUSH2 0x1B47 SWAP1 PUSH2 0x4269 JUMP JUMPDEST PUSH1 0x40 MLOAD DUP1 SWAP2 SUB SWAP1 REVERT JUMPDEST PUSH0 PUSH20 0xFFFFFFFFFFFFFFFFFFFFFFFFFFFFFFFFFFFFFFFF AND DUP2 PUSH20 0xFFFFFFFFFFFFFFFFFFFFFFFFFFFFFFFFFFFFFFFF AND SUB PUSH2 0x1BBE JUMPI PUSH1 0x40 MLOAD PUSH32 0x8C379A000000000000000000000000000000000000000000000000000000000 DUP2 MSTORE PUSH1 0x4 ADD PUSH2 0x1BB5 SWAP1 PUSH2 0x47DD JUMP JUMPDEST PUSH1 0x40 MLOAD DUP1 SWAP2 SUB SWAP1 REVERT JUMPDEST DUP1 PUSH1 0x5 PUSH0 PUSH2 0x100 EXP DUP2 SLOAD DUP2 PUSH20 0xFFFFFFFFFFFFFFFFFFFFFFFFFFFFFFFFFFFFFFFF MUL NOT AND SWAP1 DUP4 PUSH20 0xFFFFFFFFFFFFFFFFFFFFFFFFFFFFFFFFFFFFFFFF AND MUL OR SWAP1 SSTORE POP POP JUMP JUMPDEST PUSH1 0x1 PUSH1 0x2 DUP2 GT ISZERO PUSH2 0x1C15 JUMPI PUSH2 0x1C14 PUSH2 0x2918 JUMP JUMPDEST JUMPDEST PUSH1 0x1 PUSH0 CALLER PUSH20 0xFFFFFFFFFFFFFFFFFFFFFFFFFFFFFFFFFFFFFFFF AND PUSH20 0xFFFFFFFFFFFFFFFFFFFFFFFFFFFFFFFFFFFFFFFF AND DUP2 MSTORE PUSH1 0x20 ADD SWAP1 DUP2 MSTORE PUSH1 0x20 ADD PUSH0 KECCAK256 PUSH0 SWAP1 SLOAD SWAP1 PUSH2 0x100 EXP SWAP1 DIV PUSH1 0xFF AND PUSH1 0x2 DUP2 GT ISZERO PUSH2 0x1C71 JUMPI PUSH2 0x1C70 PUSH2 0x2918 JUMP JUMPDEST JUMPDEST EQ PUSH2 0x1CB1 JUMPI PUSH1 0x40 MLOAD PUSH32 0x8C379A000000000000000000000000000000000000000000000000000000000 DUP2 MSTORE PUSH1 0x4 ADD PUSH2 0x1CA8 SWAP1 PUSH2 0x4269 JUMP JUMPDEST PUSH1 0x40 MLOAD DUP1 SWAP2 SUB SWAP1 REVERT JUMPDEST PUSH1 0x3 PUSH0 SWAP1 SLOAD SWAP1 PUSH2 0x100 EXP SWAP1 DIV PUSH20 0xFFFFFFFFFFFFFFFFFFFFFFFFFFFFFFFFFFFFFFFF AND PUSH20 0xFFFFFFFFFFFFFFFFFFFFFFFFFFFFFFFFFFFFFFFF AND PUSH4 0xCECA737F DUP3 PUSH1 0x40 MLOAD DUP3 PUSH4 0xFFFFFFFF AND PUSH1 0xE0 SHL DUP2 MSTORE PUSH1 0x4 ADD PUSH2 0x1D0B SWAP2 SWAP1 PUSH2 0x3E3D JUMP JUMPDEST PUSH0 PUSH1 0x40 MLOAD DUP1 DUP4 SUB DUP2 PUSH0 DUP8 DUP1 EXTCODESIZE ISZERO DUP1 ISZERO PUSH2 0x1D22 JUMPI PUSH0 PUSH0 REVERT JUMPDEST POP GAS CALL ISZERO DUP1 ISZERO PUSH2 0x1D34 JUMPI RETURNDATASIZE PUSH0 PUSH0 RETURNDATACOPY RETURNDATASIZE PUSH0 REVERT JUMPDEST POP POP POP POP POP JUMP JUMPDEST PUSH1 0x1 PUSH1 0x2 DUP2 GT ISZERO PUSH2 0x1D4F JUMPI PUSH2 0x1D4E PUSH2 0x2918 JUMP JUMPDEST JUMPDEST PUSH1 0x1 PUSH0 CALLER PUSH20 0xFFFFFFFFFFFFFFFFFFFFFFFFFFFFFFFFFFFFFFFF AND PUSH20 0xFFFFFFFFFFFFFFFFFFFFFFFFFFFFFFFFFFFFFFFF AND DUP2 MSTORE PUSH1 0x20 ADD SWAP1 DUP2 MSTORE PUSH1 0x20 ADD PUSH0 KECCAK256 PUSH0 SWAP1 SLOAD SWAP1 PUSH2 0x100 EXP SWAP1 DIV PUSH1 0xFF AND PUSH1 0x2 DUP2 GT ISZERO PUSH2 0x1DAB JUMPI PUSH2 0x1DAA PUSH2 0x2918 JUMP JUMPDEST JUMPDEST EQ PUSH2 0x1DEB JUMPI PUSH1 0x40 MLOAD PUSH32 0x8C379A000000000000000000000000000000000000000000000000000000000 DUP2 MSTORE PUSH1 0x4 ADD PUSH2 0x1DE2 SWAP1 PUSH2 0x4269 JUMP JUMPDEST PUSH1 0x40 MLOAD DUP1 SWAP2 SUB SWAP1 REVERT JUMPDEST PUSH1 0x2 PUSH0 SWAP1 SLOAD SWAP1 PUSH2 0x100 EXP SWAP1 DIV PUSH20 0xFFFFFFFFFFFFFFFFFFFFFFFFFFFFFFFFFFFFFFFF AND PUSH20 0xFFFFFFFFFFFFFFFFFFFFFFFFFFFFFFFFFFFFFFFF AND PUSH4 0xD198B650 DUP3 PUSH1 0x40 MLOAD DUP3 PUSH4 0xFFFFFFFF AND PUSH1 0xE0 SHL DUP2 MSTORE PUSH1 0x4 ADD PUSH2 0x1E45 SWAP2 SWAP1 PUSH2 0x3E3D JUMP JUMPDEST PUSH0 PUSH1 0x40 MLOAD DUP1 DUP4 SUB DUP2 PUSH0 DUP8 DUP1 EXTCODESIZE ISZERO DUP1 ISZERO PUSH2 0x1E5C JUMPI PUSH0 PUSH0 REVERT JUMPDEST POP GAS CALL ISZERO DUP1 ISZERO PUSH2 0x1E6E JUMPI RETURNDATASIZE PUSH0 PUSH0 RETURNDATACOPY RETURNDATASIZE PUSH0 REVERT JUMPDEST POP POP POP POP POP JUMP JUMPDEST PUSH1 0x1 PUSH1 0x2 DUP2 GT ISZERO PUSH2 0x1E89 JUMPI PUSH2 0x1E88 PUSH2 0x2918 JUMP JUMPDEST JUMPDEST PUSH1 0x1 PUSH0 CALLER PUSH20 0xFFFFFFFFFFFFFFFFFFFFFFFFFFFFFFFFFFFFFFFF AND PUSH20 0xFFFFFFFFFFFFFFFFFFFFFFFFFFFFFFFFFFFFFFFF AND DUP2 MSTORE PUSH1 0x20 ADD SWAP1 DUP2 MSTORE PUSH1 0x20 ADD PUSH0 KECCAK256 PUSH0 SWAP1 SLOAD SWAP1 PUSH2 0x100 EXP SWAP1 DIV PUSH1 0xFF AND PUSH1 0x2 DUP2 GT ISZERO PUSH2 0x1EE5 JUMPI PUSH2 0x1EE4 PUSH2 0x2918 JUMP JUMPDEST JUMPDEST EQ PUSH2 0x1F25 JUMPI PUSH1 0x40 MLOAD PUSH32 0x8C379A000000000000000000000000000000000000000000000000000000000 DUP2 MSTORE PUSH1 0x4 ADD PUSH2 0x1F1C SWAP1 PUSH2 0x4269 JUMP JUMPDEST PUSH1 0x40 MLOAD DUP1 SWAP2 SUB SWAP1 REVERT JUMPDEST PUSH0 PUSH20 0xFFFFFFFFFFFFFFFFFFFFFFFFFFFFFFFFFFFFFFFF AND DUP2 PUSH20 0xFFFFFFFFFFFFFFFFFFFFFFFFFFFFFFFFFFFFFFFF AND SUB PUSH2 0x1F93 JUMPI PUSH1 0x40 MLOAD PUSH32 0x8C379A000000000000000000000000000000000000000000000000000000000 DUP2 MSTORE PUSH1 0x4 ADD PUSH2 0x1F8A SWAP1 PUSH2 0x47DD JUMP JUMPDEST PUSH1 0x40 MLOAD DUP1 SWAP2 SUB SWAP1 REVERT JUMPDEST DUP1 PUSH1 0x4 PUSH0 PUSH2 0x100 EXP DUP2 SLOAD DUP2 PUSH20 0xFFFFFFFFFFFFFFFFFFFFFFFFFFFFFFFFFFFFFFFF MUL NOT AND SWAP1 DUP4 PUSH20 0xFFFFFFFFFFFFFFFFFFFFFFFFFFFFFFFFFFFFFFFF AND MUL OR SWAP1 SSTORE POP POP JUMP JUMPDEST PUSH1 0x3 PUSH0 SWAP1 SLOAD SWAP1 PUSH2 0x100 EXP SWAP1 DIV PUSH20 0xFFFFFFFFFFFFFFFFFFFFFFFFFFFFFFFFFFFFFFFF AND DUP2 JUMP JUMPDEST PUSH1 0x60 PUSH1 0x3 PUSH0 SWAP1 SLOAD SWAP1 PUSH2 0x100 EXP SWAP1 DIV PUSH20 0xFFFFFFFFFFFFFFFFFFFFFFFFFFFFFFFFFFFFFFFF AND PUSH20 0xFFFFFFFFFFFFFFFFFFFFFFFFFFFFFFFFFFFFFFFF AND PUSH4 0xDADD0A57 PUSH1 0x40 MLOAD DUP2 PUSH4 0xFFFFFFFF AND PUSH1 0xE0 SHL DUP2 MSTORE PUSH1 0x4 ADD PUSH0 PUSH1 0x40 MLOAD DUP1 DUP4 SUB DUP2 DUP7 GAS STATICCALL ISZERO DUP1 ISZERO PUSH2 0x2066 JUMPI RETURNDATASIZE PUSH0 PUSH0 RETURNDATACOPY RETURNDATASIZE PUSH0 REVERT JUMPDEST POP POP POP POP PUSH1 0x40 MLOAD RETURNDATASIZE PUSH0 DUP3 RETURNDATACOPY RETURNDATASIZE PUSH1 0x1F NOT PUSH1 0x1F DUP3 ADD AND DUP3 ADD DUP1 PUSH1 0x40 MSTORE POP DUP2 ADD SWAP1 PUSH2 0x208E SWAP2 SWAP1 PUSH2 0x52E7 JUMP JUMPDEST SWAP1 POP SWAP1 JUMP JUMPDEST PUSH0 PUSH1 0x1 PUSH1 0x2 DUP2 GT ISZERO PUSH2 0x20A8 JUMPI PUSH2 0x20A7 PUSH2 0x2918 JUMP JUMPDEST JUMPDEST PUSH1 0x1 PUSH0 CALLER PUSH20 0xFFFFFFFFFFFFFFFFFFFFFFFFFFFFFFFFFFFFFFFF AND PUSH20 0xFFFFFFFFFFFFFFFFFFFFFFFFFFFFFFFFFFFFFFFF AND DUP2 MSTORE PUSH1 0x20 ADD SWAP1 DUP2 MSTORE PUSH1 0x20 ADD PUSH0 KECCAK256 PUSH0 SWAP1 SLOAD SWAP1 PUSH2 0x100 EXP SWAP1 DIV PUSH1 0xFF AND PUSH1 0x2 DUP2 GT ISZERO PUSH2 0x2104 JUMPI PUSH2 0x2103 PUSH2 0x2918 JUMP JUMPDEST JUMPDEST EQ PUSH2 0x2144 JUMPI PUSH1 0x40 MLOAD PUSH32 0x8C379A000000000000000000000000000000000000000000000000000000000 DUP2 MSTORE PUSH1 0x4 ADD PUSH2 0x213B SWAP1 PUSH2 0x4269 JUMP JUMPDEST PUSH1 0x40 MLOAD DUP1 SWAP2 SUB SWAP1 REVERT JUMPDEST PUSH1 0x4 PUSH0 SWAP1 SLOAD SWAP1 PUSH2 0x100 EXP SWAP1 DIV PUSH20 0xFFFFFFFFFFFFFFFFFFFFFFFFFFFFFFFFFFFFFFFF AND PUSH20 0xFFFFFFFFFFFFFFFFFFFFFFFFFFFFFFFFFFFFFFFF AND PUSH4 0xE1F1C48D DUP5 DUP5 PUSH1 0x40 MLOAD DUP4 PUSH4 0xFFFFFFFF AND PUSH1 0xE0 SHL DUP2 MSTORE PUSH1 0x4 ADD PUSH2 0x21A0 SWAP3 SWAP2 SWAP1 PUSH2 0x4287 JUMP JUMPDEST PUSH1 0x20 PUSH1 0x40 MLOAD DUP1 DUP4 SUB DUP2 PUSH0 DUP8 GAS CALL ISZERO DUP1 ISZERO PUSH2 0x21BC JUMPI RETURNDATASIZE PUSH0 PUSH0 RETURNDATACOPY RETURNDATASIZE PUSH0 REVERT JUMPDEST POP POP POP POP PUSH1 0x40 MLOAD RETURNDATASIZE PUSH1 0x1F NOT PUSH1 0x1F DUP3 ADD AND DUP3 ADD DUP1 PUSH1 0x40 MSTORE POP DUP2 ADD SWAP1 PUSH2 0x21E0 SWAP2 SWAP1 PUSH2 0x532E JUMP JUMPDEST SWAP1 POP SWAP3 SWAP2 POP POP JUMP JUMPDEST PUSH1 0x1 PUSH1 0x2 DUP2 GT ISZERO PUSH2 0x21FC JUMPI PUSH2 0x21FB PUSH2 0x2918 JUMP JUMPDEST JUMPDEST PUSH1 0x1 PUSH0 CALLER PUSH20 0xFFFFFFFFFFFFFFFFFFFFFFFFFFFFFFFFFFFFFFFF AND PUSH20 0xFFFFFFFFFFFFFFFFFFFFFFFFFFFFFFFFFFFFFFFF AND DUP2 MSTORE PUSH1 0x20 ADD SWAP1 DUP2 MSTORE PUSH1 0x20 ADD PUSH0 KECCAK256 PUSH0 SWAP1 SLOAD SWAP1 PUSH2 0x100 EXP SWAP1 DIV PUSH1 0xFF AND PUSH1 0x2 DUP2 GT ISZERO PUSH2 0x2258 JUMPI PUSH2 0x2257 PUSH2 0x2918 JUMP JUMPDEST JUMPDEST EQ PUSH2 0x2298 JUMPI PUSH1 0x40 MLOAD PUSH32 0x8C379A000000000000000000000000000000000000000000000000000000000 DUP2 MSTORE PUSH1 0x4 ADD PUSH2 0x228F SWAP1 PUSH2 0x4269 JUMP JUMPDEST PUSH1 0x40 MLOAD DUP1 SWAP2 SUB SWAP1 REVERT JUMPDEST PUSH1 0x4 PUSH0 SWAP1 SLOAD SWAP1 PUSH2 0x100 EXP SWAP1 DIV PUSH20 0xFFFFFFFFFFFFFFFFFFFFFFFFFFFFFFFFFFFFFFFF AND PUSH20 0xFFFFFFFFFFFFFFFFFFFFFFFFFFFFFFFFFFFFFFFF AND PUSH4 0xE6F318C6 DUP3 PUSH1 0x40 MLOAD DUP3 PUSH4 0xFFFFFFFF AND PUSH1 0xE0 SHL DUP2 MSTORE PUSH1 0x4 ADD PUSH2 0x22F2 SWAP2 SWAP1 PUSH2 0x3E3D JUMP JUMPDEST PUSH0 PUSH1 0x40 MLOAD DUP1 DUP4 SUB DUP2 PUSH0 DUP8 DUP1 EXTCODESIZE ISZERO DUP1 ISZERO PUSH2 0x2309 JUMPI PUSH0 PUSH0 REVERT JUMPDEST POP GAS CALL ISZERO DUP1 ISZERO PUSH2 0x231B JUMPI RETURNDATASIZE PUSH0 PUSH0 RETURNDATACOPY RETURNDATASIZE PUSH0 REVERT JUMPDEST POP POP POP POP POP JUMP JUMPDEST PUSH2 0x232A PUSH2 0x260A JUMP JUMPDEST PUSH1 0x3 PUSH0 SWAP1 SLOAD SWAP1 PUSH2 0x100 EXP SWAP1 DIV PUSH20 0xFFFFFFFFFFFFFFFFFFFFFFFFFFFFFFFFFFFFFFFF AND PUSH20 0xFFFFFFFFFFFFFFFFFFFFFFFFFFFFFFFFFFFFFFFF AND PUSH4 0xF3052D26 DUP4 PUSH1 0x40 MLOAD DUP3 PUSH4 0xFFFFFFFF AND PUSH1 0xE0 SHL DUP2 MSTORE PUSH1 0x4 ADD PUSH2 0x2384 SWAP2 SWAP1 PUSH2 0x3E3D JUMP JUMPDEST PUSH0 PUSH1 0x40 MLOAD DUP1 DUP4 SUB DUP2 DUP7 GAS STATICCALL ISZERO DUP1 ISZERO PUSH2 0x239E JUMPI RETURNDATASIZE PUSH0 PUSH0 RETURNDATACOPY RETURNDATASIZE PUSH0 REVERT JUMPDEST POP POP POP POP PUSH1 0x40 MLOAD RETURNDATASIZE PUSH0 DUP3 RETURNDATACOPY RETURNDATASIZE PUSH1 0x1F NOT PUSH1 0x1F DUP3 ADD AND DUP3 ADD DUP1 PUSH1 0x40 MSTORE POP DUP2 ADD SWAP1 PUSH2 0x23C6 SWAP2 SWAP1 PUSH2 0x5359 JUMP JUMPDEST SWAP1 POP SWAP2 SWAP1 POP JUMP JUMPDEST PUSH1 0x1 PUSH1 0x2 DUP2 GT ISZERO PUSH2 0x23E1 JUMPI PUSH2 0x23E0 PUSH2 0x2918 JUMP JUMPDEST JUMPDEST PUSH1 0x1 PUSH0 CALLER PUSH20 0xFFFFFFFFFFFFFFFFFFFFFFFFFFFFFFFFFFFFFFFF AND PUSH20 0xFFFFFFFFFFFFFFFFFFFFFFFFFFFFFFFFFFFFFFFF AND DUP2 MSTORE PUSH1 0x20 ADD SWAP1 DUP2 MSTORE PUSH1 0x20 ADD PUSH0 KECCAK256 PUSH0 SWAP1 SLOAD SWAP1 PUSH2 0x100 EXP SWAP1 DIV PUSH1 0xFF AND PUSH1 0x2 DUP2 GT ISZERO PUSH2 0x243D JUMPI PUSH2 0x243C PUSH2 0x2918 JUMP JUMPDEST JUMPDEST EQ PUSH2 0x247D JUMPI PUSH1 0x40 MLOAD PUSH32 0x8C379A000000000000000000000000000000000000000000000000000000000 DUP2 MSTORE PUSH1 0x4 ADD PUSH2 0x2474 SWAP1 PUSH2 0x4269 JUMP JUMPDEST PUSH1 0x40 MLOAD DUP1 SWAP2 SUB SWAP1 REVERT JUMPDEST PUSH1 0x3 PUSH0 SWAP1 SLOAD SWAP1 PUSH2 0x100 EXP SWAP1 DIV PUSH20 0xFFFFFFFFFFFFFFFFFFFFFFFFFFFFFFFFFFFFFFFF AND PUSH20 0xFFFFFFFFFFFFFFFFFFFFFFFFFFFFFFFFFFFFFFFF AND PUSH4 0xF7868A52 DUP4 DUP4 PUSH1 0x40 MLOAD DUP4 PUSH4 0xFFFFFFFF AND PUSH1 0xE0 SHL DUP2 MSTORE PUSH1 0x4 ADD PUSH2 0x24D9 SWAP3 SWAP2 SWAP1 PUSH2 0x4B56 JUMP JUMPDEST PUSH0 PUSH1 0x40 MLOAD DUP1 DUP4 SUB DUP2 PUSH0 DUP8 DUP1 EXTCODESIZE ISZERO DUP1 ISZERO PUSH2 0x24F0 JUMPI PUSH0 PUSH0 REVERT JUMPDEST POP GAS CALL ISZERO DUP1 ISZERO PUSH2 0x2502 JUMPI RETURNDATASIZE PUSH0 PUSH0 RETURNDATACOPY RETURNDATASIZE PUSH0 REVERT JUMPDEST POP POP POP POP POP POP JUMP JUMPDEST PUSH1 0x5 PUSH0 SWAP1 SLOAD SWAP1 PUSH2 0x100 EXP SWAP1 DIV PUSH20 0xFFFFFFFFFFFFFFFFFFFFFFFFFFFFFFFFFFFFFFFF AND DUP2 JUMP JUMPDEST PUSH1 0x40 MLOAD DUP1 PUSH1 0xE0 ADD PUSH1 0x40 MSTORE DUP1 PUSH0 DUP2 MSTORE PUSH1 0x20 ADD PUSH1 0x60 DUP2 MSTORE PUSH1 0x20 ADD PUSH1 0x60 DUP2 MSTORE PUSH1 0x20 ADD PUSH0 DUP2 MSTORE PUSH1 0x20 ADD PUSH1 0x60 DUP2 MSTORE PUSH1 0x20 ADD PUSH0 DUP2 MSTORE PUSH1 0x20 ADD PUSH0 DUP2 MSTORE POP SWAP1 JUMP JUMPDEST PUSH1 0x40 MLOAD DUP1 PUSH1 0xA0 ADD PUSH1 0x40 MSTORE DUP1 PUSH0 DUP2 MSTORE PUSH1 0x20 ADD PUSH0 DUP2 MSTORE PUSH1 0x20 ADD PUSH0 DUP2 MSTORE PUSH1 0x20 ADD PUSH0 DUP2 MSTORE PUSH1 0x20 ADD PUSH0 ISZERO ISZERO DUP2 MSTORE POP SWAP1 JUMP JUMPDEST PUSH1 0x40 MLOAD DUP1 PUSH2 0x140 ADD PUSH1 0x40 MSTORE DUP1 PUSH0 DUP2 MSTORE PUSH1 0x20 ADD PUSH0 PUSH20 0xFFFFFFFFFFFFFFFFFFFFFFFFFFFFFFFFFFFFFFFF AND DUP2 MSTORE PUSH1 0x20 ADD PUSH1 0x60 DUP2 MSTORE PUSH1 0x20 ADD PUSH1 0x60 DUP2 MSTORE PUSH1 0x20 ADD PUSH1 0x60 DUP2 MSTORE PUSH1 0x20 ADD PUSH1 0x60 DUP2 MSTORE PUSH1 0x20 ADD PUSH1 0x60 DUP2 MSTORE PUSH1 0x20 ADD PUSH0 DUP2 MSTORE PUSH1 0x20 ADD PUSH0 PUSH1 0x2 DUP2 GT ISZERO PUSH2 0x25FE JUMPI PUSH2 0x25FD PUSH2 0x2918 JUMP JUMPDEST JUMPDEST DUP2 MSTORE PUSH1 0x20 ADD PUSH0 DUP2 MSTORE POP SWAP1 JUMP JUMPDEST PUSH1 0x40 MLOAD DUP1 PUSH1 0x40 ADD PUSH1 0x40 MSTORE DUP1 PUSH0 DUP2 MSTORE PUSH1 0x20 ADD PUSH1 0x60 DUP2 MSTORE POP SWAP1 JUMP JUMPDEST PUSH0 PUSH1 0x40 MLOAD SWAP1 POP SWAP1 JUMP JUMPDEST PUSH0 PUSH0 REVERT JUMPDEST PUSH0 PUSH0 REVERT JUMPDEST PUSH0 PUSH20 0xFFFFFFFFFFFFFFFFFFFFFFFFFFFFFFFFFFFFFFFF DUP3 AND SWAP1 POP SWAP2 SWAP1 POP JUMP JUMPDEST PUSH0 PUSH2 0x265D DUP3 PUSH2 0x2634 JUMP JUMPDEST SWAP1 POP SWAP2 SWAP1 POP JUMP JUMPDEST PUSH2 0x266D DUP2 PUSH2 0x2653 JUMP JUMPDEST DUP2 EQ PUSH2 0x2677 JUMPI PUSH0 PUSH0 REVERT JUMPDEST POP JUMP JUMPDEST PUSH0 DUP2 CALLDATALOAD SWAP1 POP PUSH2 0x2688 DUP2 PUSH2 0x2664 JUMP JUMPDEST SWAP3 SWAP2 POP POP JUMP JUMPDEST PUSH0 PUSH1 0x20 DUP3 DUP5 SUB SLT ISZERO PUSH2 0x26A3 JUMPI PUSH2 0x26A2 PUSH2 0x262C JUMP JUMPDEST JUMPDEST PUSH0 PUSH2 0x26B0 DUP5 DUP3 DUP6 ADD PUSH2 0x267A JUMP JUMPDEST SWAP2 POP POP SWAP3 SWAP2 POP POP JUMP JUMPDEST PUSH0 DUP2 SWAP1 POP SWAP2 SWAP1 POP JUMP JUMPDEST PUSH2 0x26CB DUP2 PUSH2 0x26B9 JUMP JUMPDEST DUP2 EQ PUSH2 0x26D5 JUMPI PUSH0 PUSH0 REVERT JUMPDEST POP JUMP JUMPDEST PUSH0 DUP2 CALLDATALOAD SWAP1 POP PUSH2 0x26E6 DUP2 PUSH2 0x26C2 JUMP JUMPDEST SWAP3 SWAP2 POP POP JUMP JUMPDEST PUSH0 PUSH1 0x20 DUP3 DUP5 SUB SLT ISZERO PUSH2 0x2701 JUMPI PUSH2 0x2700 PUSH2 0x262C JUMP JUMPDEST JUMPDEST PUSH0 PUSH2 0x270E DUP5 DUP3 DUP6 ADD PUSH2 0x26D8 JUMP JUMPDEST SWAP2 POP POP SWAP3 SWAP2 POP POP JUMP JUMPDEST PUSH2 0x2720 DUP2 PUSH2 0x26B9 JUMP JUMPDEST DUP3 MSTORE POP POP JUMP JUMPDEST PUSH0 DUP2 MLOAD SWAP1 POP SWAP2 SWAP1 POP JUMP JUMPDEST PUSH0 DUP3 DUP3 MSTORE PUSH1 0x20 DUP3 ADD SWAP1 POP SWAP3 SWAP2 POP POP JUMP JUMPDEST DUP3 DUP2 DUP4 MCOPY PUSH0 DUP4 DUP4 ADD MSTORE POP POP POP JUMP JUMPDEST PUSH0 PUSH1 0x1F NOT PUSH1 0x1F DUP4 ADD AND SWAP1 POP SWAP2 SWAP1 POP JUMP JUMPDEST PUSH0 PUSH2 0x2768 DUP3 PUSH2 0x2726 JUMP JUMPDEST PUSH2 0x2772 DUP2 DUP6 PUSH2 0x2730 JUMP JUMPDEST SWAP4 POP PUSH2 0x2782 DUP2 DUP6 PUSH1 0x20 DUP7 ADD PUSH2 0x2740 JUMP JUMPDEST PUSH2 0x278B DUP2 PUSH2 0x274E JUMP JUMPDEST DUP5 ADD SWAP2 POP POP SWAP3 SWAP2 POP POP JUMP JUMPDEST PUSH0 DUP2 MLOAD SWAP1 POP SWAP2 SWAP1 POP JUMP JUMPDEST PUSH0 DUP3 DUP3 MSTORE PUSH1 0x20 DUP3 ADD SWAP1 POP SWAP3 SWAP2 POP POP JUMP JUMPDEST PUSH0 DUP2 SWAP1 POP PUSH1 0x20 DUP3 ADD SWAP1 POP SWAP2 SWAP1 POP JUMP JUMPDEST PUSH0 PUSH2 0x27CA DUP4 DUP4 PUSH2 0x275E JUMP JUMPDEST SWAP1 POP SWAP3 SWAP2 POP POP JUMP JUMPDEST PUSH0 PUSH1 0x20 DUP3 ADD SWAP1 POP SWAP2 SWAP1 POP JUMP JUMPDEST PUSH0 PUSH2 0x27E8 DUP3 PUSH2 0x2796 JUMP JUMPDEST PUSH2 0x27F2 DUP2 DUP6 PUSH2 0x27A0 JUMP JUMPDEST SWAP4 POP DUP4 PUSH1 0x20 DUP3 MUL DUP6 ADD PUSH2 0x2804 DUP6 PUSH2 0x27B0 JUMP JUMPDEST DUP1 PUSH0 JUMPDEST DUP6 DUP2 LT ISZERO PUSH2 0x283F JUMPI DUP5 DUP5 SUB DUP10 MSTORE DUP2 MLOAD PUSH2 0x2820 DUP6 DUP3 PUSH2 0x27BF JUMP JUMPDEST SWAP5 POP PUSH2 0x282B DUP4 PUSH2 0x27D2 JUMP JUMPDEST SWAP3 POP PUSH1 0x20 DUP11 ADD SWAP10 POP POP PUSH1 0x1 DUP2 ADD SWAP1 POP PUSH2 0x2807 JUMP JUMPDEST POP DUP3 SWAP8 POP DUP8 SWAP6 POP POP POP POP POP POP SWAP3 SWAP2 POP POP JUMP JUMPDEST PUSH0 PUSH1 0xE0 DUP4 ADD PUSH0 DUP4 ADD MLOAD PUSH2 0x2866 PUSH0 DUP7 ADD DUP3 PUSH2 0x2717 JUMP JUMPDEST POP PUSH1 0x20 DUP4 ADD MLOAD DUP5 DUP3 SUB PUSH1 0x20 DUP7 ADD MSTORE PUSH2 0x287E DUP3 DUP3 PUSH2 0x275E JUMP JUMPDEST SWAP2 POP POP PUSH1 0x40 DUP4 ADD MLOAD DUP5 DUP3 SUB PUSH1 0x40 DUP7 ADD MSTORE PUSH2 0x2898 DUP3 DUP3 PUSH2 0x275E JUMP JUMPDEST SWAP2 POP POP PUSH1 0x60 DUP4 ADD MLOAD PUSH2 0x28AD PUSH1 0x60 DUP7 ADD DUP3 PUSH2 0x2717 JUMP JUMPDEST POP PUSH1 0x80 DUP4 ADD MLOAD DUP5 DUP3 SUB PUSH1 0x80 DUP7 ADD MSTORE PUSH2 0x28C5 DUP3 DUP3 PUSH2 0x27DE JUMP JUMPDEST SWAP2 POP POP PUSH1 0xA0 DUP4 ADD MLOAD PUSH2 0x28DA PUSH1 0xA0 DUP7 ADD DUP3 PUSH2 0x2717 JUMP JUMPDEST POP PUSH1 0xC0 DUP4 ADD MLOAD PUSH2 0x28ED PUSH1 0xC0 DUP7 ADD DUP3 PUSH2 0x2717 JUMP JUMPDEST POP DUP1 SWAP2 POP POP SWAP3 SWAP2 POP POP JUMP JUMPDEST PUSH0 PUSH1 0x20 DUP3 ADD SWAP1 POP DUP2 DUP2 SUB PUSH0 DUP4 ADD MSTORE PUSH2 0x2910 DUP2 DUP5 PUSH2 0x2851 JUMP JUMPDEST SWAP1 POP SWAP3 SWAP2 POP POP JUMP JUMPDEST PUSH32 0x4E487B7100000000000000000000000000000000000000000000000000000000 PUSH0 MSTORE PUSH1 0x21 PUSH1 0x4 MSTORE PUSH1 0x24 PUSH0 REVERT JUMPDEST PUSH1 0x3 DUP2 LT PUSH2 0x2956 JUMPI PUSH2 0x2955 PUSH2 0x2918 JUMP JUMPDEST JUMPDEST POP JUMP JUMPDEST PUSH0 DUP2 SWAP1 POP PUSH2 0x2966 DUP3 PUSH2 0x2945 JUMP JUMPDEST SWAP2 SWAP1 POP JUMP JUMPDEST PUSH0 PUSH2 0x2975 DUP3 PUSH2 0x2959 JUMP JUMPDEST SWAP1 POP SWAP2 SWAP1 POP JUMP JUMPDEST PUSH2 0x2985 DUP2 PUSH2 0x296B JUMP JUMPDEST DUP3 MSTORE POP POP JUMP JUMPDEST PUSH0 PUSH1 0x20 DUP3 ADD SWAP1 POP PUSH2 0x299E PUSH0 DUP4 ADD DUP5 PUSH2 0x297C JUMP JUMPDEST SWAP3 SWAP2 POP POP JUMP JUMPDEST PUSH0 DUP2 ISZERO ISZERO SWAP1 POP SWAP2 SWAP1 POP JUMP JUMPDEST PUSH2 0x29B8 DUP2 PUSH2 0x29A4 JUMP JUMPDEST DUP3 MSTORE POP POP JUMP JUMPDEST PUSH1 0xA0 DUP3 ADD PUSH0 DUP3 ADD MLOAD PUSH2 0x29D2 PUSH0 DUP6 ADD DUP3 PUSH2 0x2717 JUMP JUMPDEST POP PUSH1 0x20 DUP3 ADD MLOAD PUSH2 0x29E5 PUSH1 0x20 DUP6 ADD DUP3 PUSH2 0x2717 JUMP JUMPDEST POP PUSH1 0x40 DUP3 ADD MLOAD PUSH2 0x29F8 PUSH1 0x40 DUP6 ADD DUP3 PUSH2 0x2717 JUMP JUMPDEST POP PUSH1 0x60 DUP3 ADD MLOAD PUSH2 0x2A0B PUSH1 0x60 DUP6 ADD DUP3 PUSH2 0x2717 JUMP JUMPDEST POP PUSH1 0x80 DUP3 ADD MLOAD PUSH2 0x2A1E PUSH1 0x80 DUP6 ADD DUP3 PUSH2 0x29AF JUMP JUMPDEST POP POP POP POP JUMP JUMPDEST PUSH0 PUSH1 0xA0 DUP3 ADD SWAP1 POP PUSH2 0x2A37 PUSH0 DUP4 ADD DUP5 PUSH2 0x29BE JUMP JUMPDEST SWAP3 SWAP2 POP POP JUMP JUMPDEST PUSH2 0x2A46 DUP2 PUSH2 0x2653 JUMP JUMPDEST DUP3 MSTORE POP POP JUMP JUMPDEST PUSH0 PUSH1 0x20 DUP3 ADD SWAP1 POP PUSH2 0x2A5F PUSH0 DUP4 ADD DUP5 PUSH2 0x2A3D JUMP JUMPDEST SWAP3 SWAP2 POP POP JUMP JUMPDEST PUSH0 PUSH0 PUSH1 0x40 DUP4 DUP6 SUB SLT ISZERO PUSH2 0x2A7B JUMPI PUSH2 0x2A7A PUSH2 0x262C JUMP JUMPDEST JUMPDEST PUSH0 PUSH2 0x2A88 DUP6 DUP3 DUP7 ADD PUSH2 0x26D8 JUMP JUMPDEST SWAP3 POP POP PUSH1 0x20 PUSH2 0x2A99 DUP6 DUP3 DUP7 ADD PUSH2 0x26D8 JUMP JUMPDEST SWAP2 POP POP SWAP3 POP SWAP3 SWAP1 POP JUMP JUMPDEST PUSH0 PUSH0 REVERT JUMPDEST PUSH0 PUSH0 REVERT JUMPDEST PUSH32 0x4E487B7100000000000000000000000000000000000000000000000000000000 PUSH0 MSTORE PUSH1 0x41 PUSH1 0x4 MSTORE PUSH1 0x24 PUSH0 REVERT JUMPDEST PUSH2 0x2AE1 DUP3 PUSH2 0x274E JUMP JUMPDEST DUP2 ADD DUP2 DUP2 LT PUSH8 0xFFFFFFFFFFFFFFFF DUP3 GT OR ISZERO PUSH2 0x2B00 JUMPI PUSH2 0x2AFF PUSH2 0x2AAB JUMP JUMPDEST JUMPDEST DUP1 PUSH1 0x40 MSTORE POP POP POP JUMP JUMPDEST PUSH0 PUSH2 0x2B12 PUSH2 0x2623 JUMP JUMPDEST SWAP1 POP PUSH2 0x2B1E DUP3 DUP3 PUSH2 0x2AD8 JUMP JUMPDEST SWAP2 SWAP1 POP JUMP JUMPDEST PUSH0 PUSH8 0xFFFFFFFFFFFFFFFF DUP3 GT ISZERO PUSH2 0x2B3D JUMPI PUSH2 0x2B3C PUSH2 0x2AAB JUMP JUMPDEST JUMPDEST PUSH2 0x2B46 DUP3 PUSH2 0x274E JUMP JUMPDEST SWAP1 POP PUSH1 0x20 DUP2 ADD SWAP1 POP SWAP2 SWAP1 POP JUMP JUMPDEST DUP3 DUP2 DUP4 CALLDATACOPY PUSH0 DUP4 DUP4 ADD MSTORE POP POP POP JUMP JUMPDEST PUSH0 PUSH2 0x2B73 PUSH2 0x2B6E DUP5 PUSH2 0x2B23 JUMP JUMPDEST PUSH2 0x2B09 JUMP JUMPDEST SWAP1 POP DUP3 DUP2 MSTORE PUSH1 0x20 DUP2 ADD DUP5 DUP5 DUP5 ADD GT ISZERO PUSH2 0x2B8F JUMPI PUSH2 0x2B8E PUSH2 0x2AA7 JUMP JUMPDEST JUMPDEST PUSH2 0x2B9A DUP5 DUP3 DUP6 PUSH2 0x2B53 JUMP JUMPDEST POP SWAP4 SWAP3 POP POP POP JUMP JUMPDEST PUSH0 DUP3 PUSH1 0x1F DUP4 ADD SLT PUSH2 0x2BB6 JUMPI PUSH2 0x2BB5 PUSH2 0x2AA3 JUMP JUMPDEST JUMPDEST DUP2 CALLDATALOAD PUSH2 0x2BC6 DUP5 DUP3 PUSH1 0x20 DUP7 ADD PUSH2 0x2B61 JUMP JUMPDEST SWAP2 POP POP SWAP3 SWAP2 POP POP JUMP JUMPDEST PUSH0 PUSH8 0xFFFFFFFFFFFFFFFF DUP3 GT ISZERO PUSH2 0x2BE9 JUMPI PUSH2 0x2BE8 PUSH2 0x2AAB JUMP JUMPDEST JUMPDEST PUSH1 0x20 DUP3 MUL SWAP1 POP PUSH1 0x20 DUP2 ADD SWAP1 POP SWAP2 SWAP1 POP JUMP JUMPDEST PUSH0 PUSH0 REVERT JUMPDEST PUSH0 PUSH0 REVERT JUMPDEST PUSH0 PUSH0 REVERT JUMPDEST PUSH0 PUSH1 0x60 DUP3 DUP5 SUB SLT ISZERO PUSH2 0x2C1B JUMPI PUSH2 0x2C1A PUSH2 0x2BFE JUMP JUMPDEST JUMPDEST PUSH2 0x2C25 PUSH1 0x60 PUSH2 0x2B09 JUMP JUMPDEST SWAP1 POP PUSH0 PUSH2 0x2C34 DUP5 DUP3 DUP6 ADD PUSH2 0x26D8 JUMP JUMPDEST PUSH0 DUP4 ADD MSTORE POP PUSH1 0x20 PUSH2 0x2C47 DUP5 DUP3 DUP6 ADD PUSH2 0x26D8 JUMP JUMPDEST PUSH1 0x20 DUP4 ADD MSTORE POP PUSH1 0x40 PUSH2 0x2C5B DUP5 DUP3 DUP6 ADD PUSH2 0x26D8 JUMP JUMPDEST PUSH1 0x40 DUP4 ADD MSTORE POP SWAP3 SWAP2 POP POP JUMP JUMPDEST PUSH0 PUSH2 0x2C79 PUSH2 0x2C74 DUP5 PUSH2 0x2BCF JUMP JUMPDEST PUSH2 0x2B09 JUMP JUMPDEST SWAP1 POP DUP1 DUP4 DUP3 MSTORE PUSH1 0x20 DUP3 ADD SWAP1 POP PUSH1 0x60 DUP5 MUL DUP4 ADD DUP6 DUP2 GT ISZERO PUSH2 0x2C9C JUMPI PUSH2 0x2C9B PUSH2 0x2BFA JUMP JUMPDEST JUMPDEST DUP4 JUMPDEST DUP2 DUP2 LT ISZERO PUSH2 0x2CC5 JUMPI DUP1 PUSH2 0x2CB1 DUP9 DUP3 PUSH2 0x2C06 JUMP JUMPDEST DUP5 MSTORE PUSH1 0x20 DUP5 ADD SWAP4 POP POP PUSH1 0x60 DUP2 ADD SWAP1 POP PUSH2 0x2C9E JUMP JUMPDEST POP POP POP SWAP4 SWAP3 POP POP POP JUMP JUMPDEST PUSH0 DUP3 PUSH1 0x1F DUP4 ADD SLT PUSH2 0x2CE3 JUMPI PUSH2 0x2CE2 PUSH2 0x2AA3 JUMP JUMPDEST JUMPDEST DUP2 CALLDATALOAD PUSH2 0x2CF3 DUP5 DUP3 PUSH1 0x20 DUP7 ADD PUSH2 0x2C67 JUMP JUMPDEST SWAP2 POP POP SWAP3 SWAP2 POP POP JUMP JUMPDEST PUSH0 PUSH0 PUSH0 PUSH0 PUSH0 PUSH1 0xA0 DUP7 DUP9 SUB SLT ISZERO PUSH2 0x2D15 JUMPI PUSH2 0x2D14 PUSH2 0x262C JUMP JUMPDEST JUMPDEST PUSH0 PUSH2 0x2D22 DUP9 DUP3 DUP10 ADD PUSH2 0x267A JUMP JUMPDEST SWAP6 POP POP PUSH1 0x20 PUSH2 0x2D33 DUP9 DUP3 DUP10 ADD PUSH2 0x26D8 JUMP JUMPDEST SWAP5 POP POP PUSH1 0x40 DUP7 ADD CALLDATALOAD PUSH8 0xFFFFFFFFFFFFFFFF DUP2 GT ISZERO PUSH2 0x2D54 JUMPI PUSH2 0x2D53 PUSH2 0x2630 JUMP JUMPDEST JUMPDEST PUSH2 0x2D60 DUP9 DUP3 DUP10 ADD PUSH2 0x2BA2 JUMP JUMPDEST SWAP4 POP POP PUSH1 0x60 DUP7 ADD CALLDATALOAD PUSH8 0xFFFFFFFFFFFFFFFF DUP2 GT ISZERO PUSH2 0x2D81 JUMPI PUSH2 0x2D80 PUSH2 0x2630 JUMP JUMPDEST JUMPDEST PUSH2 0x2D8D DUP9 DUP3 DUP10 ADD PUSH2 0x2BA2 JUMP JUMPDEST SWAP3 POP POP PUSH1 0x80 DUP7 ADD CALLDATALOAD PUSH8 0xFFFFFFFFFFFFFFFF DUP2 GT ISZERO PUSH2 0x2DAE JUMPI PUSH2 0x2DAD PUSH2 0x2630 JUMP JUMPDEST JUMPDEST PUSH2 0x2DBA DUP9 DUP3 DUP10 ADD PUSH2 0x2CCF JUMP JUMPDEST SWAP2 POP POP SWAP3 SWAP6 POP SWAP3 SWAP6 SWAP1 SWAP4 POP JUMP JUMPDEST PUSH2 0x2DD0 DUP2 PUSH2 0x2653 JUMP JUMPDEST DUP3 MSTORE POP POP JUMP JUMPDEST PUSH0 DUP2 MLOAD SWAP1 POP SWAP2 SWAP1 POP JUMP JUMPDEST PUSH0 DUP3 DUP3 MSTORE PUSH1 0x20 DUP3 ADD SWAP1 POP SWAP3 SWAP2 POP POP JUMP JUMPDEST PUSH0 DUP2 SWAP1 POP PUSH1 0x20 DUP3 ADD SWAP1 POP SWAP2 SWAP1 POP JUMP JUMPDEST PUSH1 0x3 DUP2 LT PUSH2 0x2E10 JUMPI PUSH2 0x2E0F PUSH2 0x2918 JUMP JUMPDEST JUMPDEST POP JUMP JUMPDEST PUSH0 DUP2 SWAP1 POP PUSH2 0x2E20 DUP3 PUSH2 0x2DFF JUMP JUMPDEST SWAP2 SWAP1 POP JUMP JUMPDEST PUSH0 PUSH2 0x2E2F DUP3 PUSH2 0x2E13 JUMP JUMPDEST SWAP1 POP SWAP2 SWAP1 POP JUMP JUMPDEST PUSH2 0x2E3F DUP2 PUSH2 0x2E25 JUMP JUMPDEST DUP3 MSTORE POP POP JUMP JUMPDEST PUSH1 0xC0 DUP3 ADD PUSH0 DUP3 ADD MLOAD PUSH2 0x2E59 PUSH0 DUP6 ADD DUP3 PUSH2 0x2717 JUMP JUMPDEST POP PUSH1 0x20 DUP3 ADD MLOAD PUSH2 0x2E6C PUSH1 0x20 DUP6 ADD DUP3 PUSH2 0x2717 JUMP JUMPDEST POP PUSH1 0x40 DUP3 ADD MLOAD PUSH2 0x2E7F PUSH1 0x40 DUP6 ADD DUP3 PUSH2 0x2717 JUMP JUMPDEST POP PUSH1 0x60 DUP3 ADD MLOAD PUSH2 0x2E92 PUSH1 0x60 DUP6 ADD DUP3 PUSH2 0x2717 JUMP JUMPDEST POP PUSH1 0x80 DUP3 ADD MLOAD PUSH2 0x2EA5 PUSH1 0x80 DUP6 ADD DUP3 PUSH2 0x2717 JUMP JUMPDEST POP PUSH1 0xA0 DUP3 ADD MLOAD PUSH2 0x2EB8 PUSH1 0xA0 DUP6 ADD DUP3 PUSH2 0x2E36 JUMP JUMPDEST POP POP POP POP JUMP JUMPDEST PUSH0 PUSH2 0x2EC9 DUP4 DUP4 PUSH2 0x2E45 JUMP JUMPDEST PUSH1 0xC0 DUP4 ADD SWAP1 POP SWAP3 SWAP2 POP POP JUMP JUMPDEST PUSH0 PUSH1 0x20 DUP3 ADD SWAP1 POP SWAP2 SWAP1 POP JUMP JUMPDEST PUSH0 PUSH2 0x2EEB DUP3 PUSH2 0x2DD6 JUMP JUMPDEST PUSH2 0x2EF5 DUP2 DUP6 PUSH2 0x2DE0 JUMP JUMPDEST SWAP4 POP PUSH2 0x2F00 DUP4 PUSH2 0x2DF0 JUMP JUMPDEST DUP1 PUSH0 JUMPDEST DUP4 DUP2 LT ISZERO PUSH2 0x2F30 JUMPI DUP2 MLOAD PUSH2 0x2F17 DUP9 DUP3 PUSH2 0x2EBE JUMP JUMPDEST SWAP8 POP PUSH2 0x2F22 DUP4 PUSH2 0x2ED5 JUMP JUMPDEST SWAP3 POP POP PUSH1 0x1 DUP2 ADD SWAP1 POP PUSH2 0x2F03 JUMP JUMPDEST POP DUP6 SWAP4 POP POP POP POP SWAP3 SWAP2 POP POP JUMP JUMPDEST PUSH1 0x3 DUP2 LT PUSH2 0x2F4E JUMPI PUSH2 0x2F4D PUSH2 0x2918 JUMP JUMPDEST JUMPDEST POP JUMP JUMPDEST PUSH0 DUP2 SWAP1 POP PUSH2 0x2F5E DUP3 PUSH2 0x2F3D JUMP JUMPDEST SWAP2 SWAP1 POP JUMP JUMPDEST PUSH0 PUSH2 0x2F6D DUP3 PUSH2 0x2F51 JUMP JUMPDEST SWAP1 POP SWAP2 SWAP1 POP JUMP JUMPDEST PUSH2 0x2F7D DUP2 PUSH2 0x2F63 JUMP JUMPDEST DUP3 MSTORE POP POP JUMP JUMPDEST PUSH0 PUSH2 0x140 DUP4 ADD PUSH0 DUP4 ADD MLOAD PUSH2 0x2F99 PUSH0 DUP7 ADD DUP3 PUSH2 0x2717 JUMP JUMPDEST POP PUSH1 0x20 DUP4 ADD MLOAD PUSH2 0x2FAC PUSH1 0x20 DUP7 ADD DUP3 PUSH2 0x2DC7 JUMP JUMPDEST POP PUSH1 0x40 DUP4 ADD MLOAD DUP5 DUP3 SUB PUSH1 0x40 DUP7 ADD MSTORE PUSH2 0x2FC4 DUP3 DUP3 PUSH2 0x275E JUMP JUMPDEST SWAP2 POP POP PUSH1 0x60 DUP4 ADD MLOAD DUP5 DUP3 SUB PUSH1 0x60 DUP7 ADD MSTORE PUSH2 0x2FDE DUP3 DUP3 PUSH2 0x275E JUMP JUMPDEST SWAP2 POP POP PUSH1 0x80 DUP4 ADD MLOAD DUP5 DUP3 SUB PUSH1 0x80 DUP7 ADD MSTORE PUSH2 0x2FF8 DUP3 DUP3 PUSH2 0x275E JUMP JUMPDEST SWAP2 POP POP PUSH1 0xA0 DUP4 ADD MLOAD DUP5 DUP3 SUB PUSH1 0xA0 DUP7 ADD MSTORE PUSH2 0x3012 DUP3 DUP3 PUSH2 0x275E JUMP JUMPDEST SWAP2 POP POP PUSH1 0xC0 DUP4 ADD MLOAD DUP5 DUP3 SUB PUSH1 0xC0 DUP7 ADD MSTORE PUSH2 0x302C DUP3 DUP3 PUSH2 0x2EE1 JUMP JUMPDEST SWAP2 POP POP PUSH1 0xE0 DUP4 ADD MLOAD PUSH2 0x3041 PUSH1 0xE0 DUP7 ADD DUP3 PUSH2 0x2717 JUMP JUMPDEST POP PUSH2 0x100 DUP4 ADD MLOAD PUSH2 0x3056 PUSH2 0x100 DUP7 ADD DUP3 PUSH2 0x2F74 JUMP JUMPDEST POP PUSH2 0x120 DUP4 ADD MLOAD PUSH2 0x306B PUSH2 0x120 DUP7 ADD DUP3 PUSH2 0x2717 JUMP JUMPDEST POP DUP1 SWAP2 POP POP SWAP3 SWAP2 POP POP JUMP JUMPDEST PUSH0 PUSH1 0x20 DUP3 ADD SWAP1 POP DUP2 DUP2 SUB PUSH0 DUP4 ADD MSTORE PUSH2 0x308E DUP2 DUP5 PUSH2 0x2F83 JUMP JUMPDEST SWAP1 POP SWAP3 SWAP2 POP POP JUMP JUMPDEST PUSH0 PUSH0 PUSH0 PUSH1 0x60 DUP5 DUP7 SUB SLT ISZERO PUSH2 0x30AD JUMPI PUSH2 0x30AC PUSH2 0x262C JUMP JUMPDEST JUMPDEST PUSH0 PUSH2 0x30BA DUP7 DUP3 DUP8 ADD PUSH2 0x26D8 JUMP JUMPDEST SWAP4 POP POP PUSH1 0x20 PUSH2 0x30CB DUP7 DUP3 DUP8 ADD PUSH2 0x26D8 JUMP JUMPDEST SWAP3 POP POP PUSH1 0x40 PUSH2 0x30DC DUP7 DUP3 DUP8 ADD PUSH2 0x26D8 JUMP JUMPDEST SWAP2 POP POP SWAP3 POP SWAP3 POP SWAP3 JUMP JUMPDEST PUSH0 DUP2 MLOAD SWAP1 POP SWAP2 SWAP1 POP JUMP JUMPDEST PUSH0 DUP3 DUP3 MSTORE PUSH1 0x20 DUP3 ADD SWAP1 POP SWAP3 SWAP2 POP POP JUMP JUMPDEST PUSH0 DUP2 SWAP1 POP PUSH1 0x20 DUP3 ADD SWAP1 POP SWAP2 SWAP1 POP JUMP JUMPDEST PUSH0 PUSH2 0x311A DUP4 DUP4 PUSH2 0x2717 JUMP JUMPDEST PUSH1 0x20 DUP4 ADD SWAP1 POP SWAP3 SWAP2 POP POP JUMP JUMPDEST PUSH0 PUSH1 0x20 DUP3 ADD SWAP1 POP SWAP2 SWAP1 POP JUMP JUMPDEST PUSH0 PUSH2 0x313C DUP3 PUSH2 0x30E6 JUMP JUMPDEST PUSH2 0x3146 DUP2 DUP6 PUSH2 0x30F0 JUMP JUMPDEST SWAP4 POP PUSH2 0x3151 DUP4 PUSH2 0x3100 JUMP JUMPDEST DUP1 PUSH0 JUMPDEST DUP4 DUP2 LT ISZERO PUSH2 0x3181 JUMPI DUP2 MLOAD PUSH2 0x3168 DUP9 DUP3 PUSH2 0x310F JUMP JUMPDEST SWAP8 POP PUSH2 0x3173 DUP4 PUSH2 0x3126 JUMP JUMPDEST SWAP3 POP POP PUSH1 0x1 DUP2 ADD SWAP1 POP PUSH2 0x3154 JUMP JUMPDEST POP DUP6 SWAP4 POP POP POP POP SWAP3 SWAP2 POP POP JUMP JUMPDEST PUSH0 PUSH1 0x20 DUP3 ADD SWAP1 POP DUP2 DUP2 SUB PUSH0 DUP4 ADD MSTORE PUSH2 0x31A6 DUP2 DUP5 PUSH2 0x3132 JUMP JUMPDEST SWAP1 POP SWAP3 SWAP2 POP POP JUMP JUMPDEST PUSH0 PUSH8 0xFFFFFFFFFFFFFFFF DUP3 GT ISZERO PUSH2 0x31C8 JUMPI PUSH2 0x31C7 PUSH2 0x2AAB JUMP JUMPDEST JUMPDEST PUSH1 0x20 DUP3 MUL SWAP1 POP PUSH1 0x20 DUP2 ADD SWAP1 POP SWAP2 SWAP1 POP JUMP JUMPDEST PUSH0 PUSH1 0x60 DUP3 DUP5 SUB SLT ISZERO PUSH2 0x31EE JUMPI PUSH2 0x31ED PUSH2 0x2BFE JUMP JUMPDEST JUMPDEST PUSH2 0x31F8 PUSH1 0x60 PUSH2 0x2B09 JUMP JUMPDEST SWAP1 POP PUSH0 DUP3 ADD CALLDATALOAD PUSH8 0xFFFFFFFFFFFFFFFF DUP2 GT ISZERO PUSH2 0x3217 JUMPI PUSH2 0x3216 PUSH2 0x2C02 JUMP JUMPDEST JUMPDEST PUSH2 0x3223 DUP5 DUP3 DUP6 ADD PUSH2 0x2BA2 JUMP JUMPDEST PUSH0 DUP4 ADD MSTORE POP PUSH1 0x20 PUSH2 0x3236 DUP5 DUP3 DUP6 ADD PUSH2 0x26D8 JUMP JUMPDEST PUSH1 0x20 DUP4 ADD MSTORE POP PUSH1 0x40 PUSH2 0x324A DUP5 DUP3 DUP6 ADD PUSH2 0x26D8 JUMP JUMPDEST PUSH1 0x40 DUP4 ADD MSTORE POP SWAP3 SWAP2 POP POP JUMP JUMPDEST PUSH0 PUSH2 0x3268 PUSH2 0x3263 DUP5 PUSH2 0x31AE JUMP JUMPDEST PUSH2 0x2B09 JUMP JUMPDEST SWAP1 POP DUP1 DUP4 DUP3 MSTORE PUSH1 0x20 DUP3 ADD SWAP1 POP PUSH1 0x20 DUP5 MUL DUP4 ADD DUP6 DUP2 GT ISZERO PUSH2 0x328B JUMPI PUSH2 0x328A PUSH2 0x2BFA JUMP JUMPDEST JUMPDEST DUP4 JUMPDEST DUP2 DUP2 LT ISZERO PUSH2 0x32D2 JUMPI DUP1 CALLDATALOAD PUSH8 0xFFFFFFFFFFFFFFFF DUP2 GT ISZERO PUSH2 0x32B0 JUMPI PUSH2 0x32AF PUSH2 0x2AA3 JUMP JUMPDEST JUMPDEST DUP1 DUP7 ADD PUSH2 0x32BD DUP10 DUP3 PUSH2 0x31D9 JUMP JUMPDEST DUP6 MSTORE PUSH1 0x20 DUP6 ADD SWAP5 POP POP POP PUSH1 0x20 DUP2 ADD SWAP1 POP PUSH2 0x328D JUMP JUMPDEST POP POP POP SWAP4 SWAP3 POP POP POP JUMP JUMPDEST PUSH0 DUP3 PUSH1 0x1F DUP4 ADD SLT PUSH2 0x32F0 JUMPI PUSH2 0x32EF PUSH2 0x2AA3 JUMP JUMPDEST JUMPDEST DUP2 CALLDATALOAD PUSH2 0x3300 DUP5 DUP3 PUSH1 0x20 DUP7 ADD PUSH2 0x3256 JUMP JUMPDEST SWAP2 POP POP SWAP3 SWAP2 POP POP JUMP JUMPDEST PUSH0 PUSH0 PUSH1 0x40 DUP4 DUP6 SUB SLT ISZERO PUSH2 0x331F JUMPI PUSH2 0x331E PUSH2 0x262C JUMP JUMPDEST JUMPDEST PUSH0 PUSH2 0x332C DUP6 DUP3 DUP7 ADD PUSH2 0x26D8 JUMP JUMPDEST SWAP3 POP POP PUSH1 0x20 DUP4 ADD CALLDATALOAD PUSH8 0xFFFFFFFFFFFFFFFF DUP2 GT ISZERO PUSH2 0x334D JUMPI PUSH2 0x334C PUSH2 0x2630 JUMP JUMPDEST JUMPDEST PUSH2 0x3359 DUP6 DUP3 DUP7 ADD PUSH2 0x32DC JUMP JUMPDEST SWAP2 POP POP SWAP3 POP SWAP3 SWAP1 POP JUMP JUMPDEST PUSH0 PUSH8 0xFFFFFFFFFFFFFFFF DUP3 GT ISZERO PUSH2 0x337D JUMPI PUSH2 0x337C PUSH2 0x2AAB JUMP JUMPDEST JUMPDEST PUSH1 0x20 DUP3 MUL SWAP1 POP PUSH1 0x20 DUP2 ADD SWAP1 POP SWAP2 SWAP1 POP JUMP JUMPDEST PUSH0 PUSH2 0x33A0 PUSH2 0x339B DUP5 PUSH2 0x3363 JUMP JUMPDEST PUSH2 0x2B09 JUMP JUMPDEST SWAP1 POP DUP1 DUP4 DUP3 MSTORE PUSH1 0x20 DUP3 ADD SWAP1 POP PUSH1 0x20 DUP5 MUL DUP4 ADD DUP6 DUP2 GT ISZERO PUSH2 0x33C3 JUMPI PUSH2 0x33C2 PUSH2 0x2BFA JUMP JUMPDEST JUMPDEST DUP4 JUMPDEST DUP2 DUP2 LT ISZERO PUSH2 0x340A JUMPI DUP1 CALLDATALOAD PUSH8 0xFFFFFFFFFFFFFFFF DUP2 GT ISZERO PUSH2 0x33E8 JUMPI PUSH2 0x33E7 PUSH2 0x2AA3 JUMP JUMPDEST JUMPDEST DUP1 DUP7 ADD PUSH2 0x33F5 DUP10 DUP3 PUSH2 0x2BA2 JUMP JUMPDEST DUP6 MSTORE PUSH1 0x20 DUP6 ADD SWAP5 POP POP POP PUSH1 0x20 DUP2 ADD SWAP1 POP PUSH2 0x33C5 JUMP JUMPDEST POP POP POP SWAP4 SWAP3 POP POP POP JUMP JUMPDEST PUSH0 DUP3 PUSH1 0x1F DUP4 ADD SLT PUSH2 0x3428 JUMPI PUSH2 0x3427 PUSH2 0x2AA3 JUMP JUMPDEST JUMPDEST DUP2 CALLDATALOAD PUSH2 0x3438 DUP5 DUP3 PUSH1 0x20 DUP7 ADD PUSH2 0x338E JUMP JUMPDEST SWAP2 POP POP SWAP3 SWAP2 POP POP JUMP JUMPDEST PUSH0 PUSH0 PUSH0 PUSH0 PUSH0 PUSH1 0xA0 DUP7 DUP9 SUB SLT ISZERO PUSH2 0x345A JUMPI PUSH2 0x3459 PUSH2 0x262C JUMP JUMPDEST JUMPDEST PUSH0 PUSH2 0x3467 DUP9 DUP3 DUP10 ADD PUSH2 0x26D8 JUMP JUMPDEST SWAP6 POP POP PUSH1 0x20 DUP7 ADD CALLDATALOAD PUSH8 0xFFFFFFFFFFFFFFFF DUP2 GT ISZERO PUSH2 0x3488 JUMPI PUSH2 0x3487 PUSH2 0x2630 JUMP JUMPDEST JUMPDEST PUSH2 0x3494 DUP9 DUP3 DUP10 ADD PUSH2 0x2BA2 JUMP JUMPDEST SWAP5 POP POP PUSH1 0x40 DUP7 ADD CALLDATALOAD PUSH8 0xFFFFFFFFFFFFFFFF DUP2 GT ISZERO PUSH2 0x34B5 JUMPI PUSH2 0x34B4 PUSH2 0x2630 JUMP JUMPDEST JUMPDEST PUSH2 0x34C1 DUP9 DUP3 DUP10 ADD PUSH2 0x2BA2 JUMP JUMPDEST SWAP4 POP POP PUSH1 0x60 PUSH2 0x34D2 DUP9 DUP3 DUP10 ADD PUSH2 0x26D8 JUMP JUMPDEST SWAP3 POP POP PUSH1 0x80 DUP7 ADD CALLDATALOAD PUSH8 0xFFFFFFFFFFFFFFFF DUP2 GT ISZERO PUSH2 0x34F3 JUMPI PUSH2 0x34F2 PUSH2 0x2630 JUMP JUMPDEST JUMPDEST PUSH2 0x34FF DUP9 DUP3 DUP10 ADD PUSH2 0x3414 JUMP JUMPDEST SWAP2 POP POP SWAP3 SWAP6 POP SWAP3 SWAP6 SWAP1 SWAP4 POP JUMP JUMPDEST PUSH0 PUSH0 PUSH1 0x40 DUP4 DUP6 SUB SLT ISZERO PUSH2 0x3522 JUMPI PUSH2 0x3521 PUSH2 0x262C JUMP JUMPDEST JUMPDEST PUSH0 PUSH2 0x352F DUP6 DUP3 DUP7 ADD PUSH2 0x26D8 JUMP JUMPDEST SWAP3 POP POP PUSH1 0x20 DUP4 ADD CALLDATALOAD PUSH8 0xFFFFFFFFFFFFFFFF DUP2 GT ISZERO PUSH2 0x3550 JUMPI PUSH2 0x354F PUSH2 0x2630 JUMP JUMPDEST JUMPDEST PUSH2 0x355C DUP6 DUP3 DUP7 ADD PUSH2 0x2BA2 JUMP JUMPDEST SWAP2 POP POP SWAP3 POP SWAP3 SWAP1 POP JUMP JUMPDEST PUSH1 0x3 DUP2 LT PUSH2 0x3572 JUMPI PUSH0 PUSH0 REVERT JUMPDEST POP JUMP JUMPDEST PUSH0 DUP2 CALLDATALOAD SWAP1 POP PUSH2 0x3583 DUP2 PUSH2 0x3566 JUMP JUMPDEST SWAP3 SWAP2 POP POP JUMP JUMPDEST PUSH0 PUSH0 PUSH0 PUSH1 0x60 DUP5 DUP7 SUB SLT ISZERO PUSH2 0x35A0 JUMPI PUSH2 0x359F PUSH2 0x262C JUMP JUMPDEST JUMPDEST PUSH0 PUSH2 0x35AD DUP7 DUP3 DUP8 ADD PUSH2 0x26D8 JUMP JUMPDEST SWAP4 POP POP PUSH1 0x20 PUSH2 0x35BE DUP7 DUP3 DUP8 ADD PUSH2 0x26D8 JUMP JUMPDEST SWAP3 POP POP PUSH1 0x40 PUSH2 0x35CF DUP7 DUP3 DUP8 ADD PUSH2 0x3575 JUMP JUMPDEST SWAP2 POP POP SWAP3 POP SWAP3 POP SWAP3 JUMP JUMPDEST PUSH1 0x3 DUP2 LT PUSH2 0x35E5 JUMPI PUSH0 PUSH0 REVERT JUMPDEST POP JUMP JUMPDEST PUSH0 DUP2 CALLDATALOAD SWAP1 POP PUSH2 0x35F6 DUP2 PUSH2 0x35D9 JUMP JUMPDEST SWAP3 SWAP2 POP POP JUMP JUMPDEST PUSH0 PUSH1 0x20 DUP3 DUP5 SUB SLT ISZERO PUSH2 0x3611 JUMPI PUSH2 0x3610 PUSH2 0x262C JUMP JUMPDEST JUMPDEST PUSH0 PUSH2 0x361E DUP5 DUP3 DUP6 ADD PUSH2 0x35E8 JUMP JUMPDEST SWAP2 POP POP SWAP3 SWAP2 POP POP JUMP JUMPDEST PUSH0 DUP2 MLOAD SWAP1 POP SWAP2 SWAP1 POP JUMP JUMPDEST PUSH0 DUP3 DUP3 MSTORE PUSH1 0x20 DUP3 ADD SWAP1 POP SWAP3 SWAP2 POP POP JUMP JUMPDEST PUSH0 DUP2 SWAP1 POP PUSH1 0x20 DUP3 ADD SWAP1 POP SWAP2 SWAP1 POP JUMP JUMPDEST PUSH0 PUSH2 0x140 DUP4 ADD PUSH0 DUP4 ADD MLOAD PUSH2 0x3666 PUSH0 DUP7 ADD DUP3 PUSH2 0x2717 JUMP JUMPDEST POP PUSH1 0x20 DUP4 ADD MLOAD PUSH2 0x3679 PUSH1 0x20 DUP7 ADD DUP3 PUSH2 0x2DC7 JUMP JUMPDEST POP PUSH1 0x40 DUP4 ADD MLOAD DUP5 DUP3 SUB PUSH1 0x40 DUP7 ADD MSTORE PUSH2 0x3691 DUP3 DUP3 PUSH2 0x275E JUMP JUMPDEST SWAP2 POP POP PUSH1 0x60 DUP4 ADD MLOAD DUP5 DUP3 SUB PUSH1 0x60 DUP7 ADD MSTORE PUSH2 0x36AB DUP3 DUP3 PUSH2 0x275E JUMP JUMPDEST SWAP2 POP POP PUSH1 0x80 DUP4 ADD MLOAD DUP5 DUP3 SUB PUSH1 0x80 DUP7 ADD MSTORE PUSH2 0x36C5 DUP3 DUP3 PUSH2 0x275E JUMP JUMPDEST SWAP2 POP POP PUSH1 0xA0 DUP4 ADD MLOAD DUP5 DUP3 SUB PUSH1 0xA0 DUP7 ADD MSTORE PUSH2 0x36DF DUP3 DUP3 PUSH2 0x275E JUMP JUMPDEST SWAP2 POP POP PUSH1 0xC0 DUP4 ADD MLOAD DUP5 DUP3 SUB PUSH1 0xC0 DUP7 ADD MSTORE PUSH2 0x36F9 DUP3 DUP3 PUSH2 0x2EE1 JUMP JUMPDEST SWAP2 POP POP PUSH1 0xE0 DUP4 ADD MLOAD PUSH2 0x370E PUSH1 0xE0 DUP7 ADD DUP3 PUSH2 0x2717 JUMP JUMPDEST POP PUSH2 0x100 DUP4 ADD MLOAD PUSH2 0x3723 PUSH2 0x100 DUP7 ADD DUP3 PUSH2 0x2F74 JUMP JUMPDEST POP PUSH2 0x120 DUP4 ADD MLOAD PUSH2 0x3738 PUSH2 0x120 DUP7 ADD DUP3 PUSH2 0x2717 JUMP JUMPDEST POP DUP1 SWAP2 POP POP SWAP3 SWAP2 POP POP JUMP JUMPDEST PUSH0 PUSH2 0x374E DUP4 DUP4 PUSH2 0x3650 JUMP JUMPDEST SWAP1 POP SWAP3 SWAP2 POP POP JUMP JUMPDEST PUSH0 PUSH1 0x20 DUP3 ADD SWAP1 POP SWAP2 SWAP1 POP JUMP JUMPDEST PUSH0 PUSH2 0x376C DUP3 PUSH2 0x3627 JUMP JUMPDEST PUSH2 0x3776 DUP2 DUP6 PUSH2 0x3631 JUMP JUMPDEST SWAP4 POP DUP4 PUSH1 0x20 DUP3 MUL DUP6 ADD PUSH2 0x3788 DUP6 PUSH2 0x3641 JUMP JUMPDEST DUP1 PUSH0 JUMPDEST DUP6 DUP2 LT ISZERO PUSH2 0x37C3 JUMPI DUP5 DUP5 SUB DUP10 MSTORE DUP2 MLOAD PUSH2 0x37A4 DUP6 DUP3 PUSH2 0x3743 JUMP JUMPDEST SWAP5 POP PUSH2 0x37AF DUP4 PUSH2 0x3756 JUMP JUMPDEST SWAP3 POP PUSH1 0x20 DUP11 ADD SWAP10 POP POP PUSH1 0x1 DUP2 ADD SWAP1 POP PUSH2 0x378B JUMP JUMPDEST POP DUP3 SWAP8 POP DUP8 SWAP6 POP POP POP POP POP POP SWAP3 SWAP2 POP POP JUMP JUMPDEST PUSH0 PUSH1 0x20 DUP3 ADD SWAP1 POP DUP2 DUP2 SUB PUSH0 DUP4 ADD MSTORE PUSH2 0x37ED DUP2 DUP5 PUSH2 0x3762 JUMP JUMPDEST SWAP1 POP SWAP3 SWAP2 POP POP JUMP JUMPDEST PUSH0 PUSH0 PUSH1 0x40 DUP4 DUP6 SUB SLT ISZERO PUSH2 0x380B JUMPI PUSH2 0x380A PUSH2 0x262C JUMP JUMPDEST JUMPDEST PUSH0 PUSH2 0x3818 DUP6 DUP3 DUP7 ADD PUSH2 0x26D8 JUMP JUMPDEST SWAP3 POP POP PUSH1 0x20 PUSH2 0x3829 DUP6 DUP3 DUP7 ADD PUSH2 0x35E8 JUMP JUMPDEST SWAP2 POP POP SWAP3 POP SWAP3 SWAP1 POP JUMP JUMPDEST PUSH0 DUP2 MLOAD SWAP1 POP SWAP2 SWAP1 POP JUMP JUMPDEST PUSH0 DUP3 DUP3 MSTORE PUSH1 0x20 DUP3 ADD SWAP1 POP SWAP3 SWAP2 POP POP JUMP JUMPDEST PUSH0 DUP2 SWAP1 POP PUSH1 0x20 DUP3 ADD SWAP1 POP SWAP2 SWAP1 POP JUMP JUMPDEST PUSH0 PUSH1 0x80 DUP4 ADD PUSH0 DUP4 ADD MLOAD PUSH2 0x3871 PUSH0 DUP7 ADD DUP3 PUSH2 0x2717 JUMP JUMPDEST POP PUSH1 0x20 DUP4 ADD MLOAD DUP5 DUP3 SUB PUSH1 0x20 DUP7 ADD MSTORE PUSH2 0x3889 DUP3 DUP3 PUSH2 0x275E JUMP JUMPDEST SWAP2 POP POP PUSH1 0x40 DUP4 ADD MLOAD PUSH2 0x389E PUSH1 0x40 DUP7 ADD DUP3 PUSH2 0x2717 JUMP JUMPDEST POP PUSH1 0x60 DUP4 ADD MLOAD PUSH2 0x38B1 PUSH1 0x60 DUP7 ADD DUP3 PUSH2 0x2717 JUMP JUMPDEST POP DUP1 SWAP2 POP POP SWAP3 SWAP2 POP POP JUMP JUMPDEST PUSH0 PUSH2 0x38C7 DUP4 DUP4 PUSH2 0x385C JUMP JUMPDEST SWAP1 POP SWAP3 SWAP2 POP POP JUMP JUMPDEST PUSH0 PUSH1 0x20 DUP3 ADD SWAP1 POP SWAP2 SWAP1 POP JUMP JUMPDEST PUSH0 PUSH2 0x38E5 DUP3 PUSH2 0x3833 JUMP JUMPDEST PUSH2 0x38EF DUP2 DUP6 PUSH2 0x383D JUMP JUMPDEST SWAP4 POP DUP4 PUSH1 0x20 DUP3 MUL DUP6 ADD PUSH2 0x3901 DUP6 PUSH2 0x384D JUMP JUMPDEST DUP1 PUSH0 JUMPDEST DUP6 DUP2 LT ISZERO PUSH2 0x393C JUMPI DUP5 DUP5 SUB DUP10 MSTORE DUP2 MLOAD PUSH2 0x391D DUP6 DUP3 PUSH2 0x38BC JUMP JUMPDEST SWAP5 POP PUSH2 0x3928 DUP4 PUSH2 0x38CF JUMP JUMPDEST SWAP3 POP PUSH1 0x20 DUP11 ADD SWAP10 POP POP PUSH1 0x1 DUP2 ADD SWAP1 POP PUSH2 0x3904 JUMP JUMPDEST POP DUP3 SWAP8 POP DUP8 SWAP6 POP POP POP POP POP POP SWAP3 SWAP2 POP POP JUMP JUMPDEST PUSH0 PUSH1 0x20 DUP3 ADD SWAP1 POP DUP2 DUP2 SUB PUSH0 DUP4 ADD MSTORE PUSH2 0x3966 DUP2 DUP5 PUSH2 0x38DB JUMP JUMPDEST SWAP1 POP SWAP3 SWAP2 POP POP JUMP JUMPDEST PUSH0 PUSH0 PUSH0 PUSH0 PUSH0 PUSH0 PUSH1 0xC0 DUP8 DUP10 SUB SLT ISZERO PUSH2 0x3988 JUMPI PUSH2 0x3987 PUSH2 0x262C JUMP JUMPDEST JUMPDEST PUSH0 PUSH2 0x3995 DUP10 DUP3 DUP11 ADD PUSH2 0x26D8 JUMP JUMPDEST SWAP7 POP POP PUSH1 0x20 DUP8 ADD CALLDATALOAD PUSH8 0xFFFFFFFFFFFFFFFF DUP2 GT ISZERO PUSH2 0x39B6 JUMPI PUSH2 0x39B5 PUSH2 0x2630 JUMP JUMPDEST JUMPDEST PUSH2 0x39C2 DUP10 DUP3 DUP11 ADD PUSH2 0x2BA2 JUMP JUMPDEST SWAP6 POP POP PUSH1 0x40 DUP8 ADD CALLDATALOAD PUSH8 0xFFFFFFFFFFFFFFFF DUP2 GT ISZERO PUSH2 0x39E3 JUMPI PUSH2 0x39E2 PUSH2 0x2630 JUMP JUMPDEST JUMPDEST PUSH2 0x39EF DUP10 DUP3 DUP11 ADD PUSH2 0x2BA2 JUMP JUMPDEST SWAP5 POP POP PUSH1 0x60 PUSH2 0x3A00 DUP10 DUP3 DUP11 ADD PUSH2 0x26D8 JUMP JUMPDEST SWAP4 POP POP PUSH1 0x80 DUP8 ADD CALLDATALOAD PUSH8 0xFFFFFFFFFFFFFFFF DUP2 GT ISZERO PUSH2 0x3A21 JUMPI PUSH2 0x3A20 PUSH2 0x2630 JUMP JUMPDEST JUMPDEST PUSH2 0x3A2D DUP10 DUP3 DUP11 ADD PUSH2 0x3414 JUMP JUMPDEST SWAP3 POP POP PUSH1 0xA0 DUP8 ADD CALLDATALOAD PUSH8 0xFFFFFFFFFFFFFFFF DUP2 GT ISZERO PUSH2 0x3A4E JUMPI PUSH2 0x3A4D PUSH2 0x2630 JUMP JUMPDEST JUMPDEST PUSH2 0x3A5A DUP10 DUP3 DUP11 ADD PUSH2 0x32DC JUMP JUMPDEST SWAP2 POP POP SWAP3 SWAP6 POP SWAP3 SWAP6 POP SWAP3 SWAP6 JUMP JUMPDEST PUSH0 DUP2 MLOAD SWAP1 POP SWAP2 SWAP1 POP JUMP JUMPDEST PUSH0 DUP3 DUP3 MSTORE PUSH1 0x20 DUP3 ADD SWAP1 POP SWAP3 SWAP2 POP POP JUMP JUMPDEST PUSH0 DUP2 SWAP1 POP PUSH1 0x20 DUP3 ADD SWAP1 POP SWAP2 SWAP1 POP JUMP JUMPDEST PUSH0 PUSH1 0xE0 DUP4 ADD PUSH0 DUP4 ADD MLOAD PUSH2 0x3AA5 PUSH0 DUP7 ADD DUP3 PUSH2 0x2717 JUMP JUMPDEST POP PUSH1 0x20 DUP4 ADD MLOAD DUP5 DUP3 SUB PUSH1 0x20 DUP7 ADD MSTORE PUSH2 0x3ABD DUP3 DUP3 PUSH2 0x275E JUMP JUMPDEST SWAP2 POP POP PUSH1 0x40 DUP4 ADD MLOAD DUP5 DUP3 SUB PUSH1 0x40 DUP7 ADD MSTORE PUSH2 0x3AD7 DUP3 DUP3 PUSH2 0x275E JUMP JUMPDEST SWAP2 POP POP PUSH1 0x60 DUP4 ADD MLOAD PUSH2 0x3AEC PUSH1 0x60 DUP7 ADD DUP3 PUSH2 0x2717 JUMP JUMPDEST POP PUSH1 0x80 DUP4 ADD MLOAD DUP5 DUP3 SUB PUSH1 0x80 DUP7 ADD MSTORE PUSH2 0x3B04 DUP3 DUP3 PUSH2 0x27DE JUMP JUMPDEST SWAP2 POP POP PUSH1 0xA0 DUP4 ADD MLOAD PUSH2 0x3B19 PUSH1 0xA0 DUP7 ADD DUP3 PUSH2 0x2717 JUMP JUMPDEST POP PUSH1 0xC0 DUP4 ADD MLOAD PUSH2 0x3B2C PUSH1 0xC0 DUP7 ADD DUP3 PUSH2 0x2717 JUMP JUMPDEST POP DUP1 SWAP2 POP POP SWAP3 SWAP2 POP POP JUMP JUMPDEST PUSH0 DUP3 DUP3 MSTORE PUSH1 0x20 DUP3 ADD SWAP1 POP SWAP3 SWAP2 POP POP JUMP JUMPDEST PUSH0 PUSH2 0x3B51 DUP3 PUSH2 0x3833 JUMP JUMPDEST PUSH2 0x3B5B DUP2 DUP6 PUSH2 0x3B37 JUMP JUMPDEST SWAP4 POP DUP4 PUSH1 0x20 DUP3 MUL DUP6 ADD PUSH2 0x3B6D DUP6 PUSH2 0x384D JUMP JUMPDEST DUP1 PUSH0 JUMPDEST DUP6 DUP2 LT ISZERO PUSH2 0x3BA8 JUMPI DUP5 DUP5 SUB DUP10 MSTORE DUP2 MLOAD PUSH2 0x3B89 DUP6 DUP3 PUSH2 0x38BC JUMP JUMPDEST SWAP5 POP PUSH2 0x3B94 DUP4 PUSH2 0x38CF JUMP JUMPDEST SWAP3 POP PUSH1 0x20 DUP11 ADD SWAP10 POP POP PUSH1 0x1 DUP2 ADD SWAP1 POP PUSH2 0x3B70 JUMP JUMPDEST POP DUP3 SWAP8 POP DUP8 SWAP6 POP POP POP POP POP POP SWAP3 SWAP2 POP POP JUMP JUMPDEST PUSH0 PUSH1 0x40 DUP4 ADD PUSH0 DUP4 ADD MLOAD DUP5 DUP3 SUB PUSH0 DUP7 ADD MSTORE PUSH2 0x3BD4 DUP3 DUP3 PUSH2 0x3A90 JUMP JUMPDEST SWAP2 POP POP PUSH1 0x20 DUP4 ADD MLOAD DUP5 DUP3 SUB PUSH1 0x20 DUP7 ADD MSTORE PUSH2 0x3BEE DUP3 DUP3 PUSH2 0x3B47 JUMP JUMPDEST SWAP2 POP POP DUP1 SWAP2 POP POP SWAP3 SWAP2 POP POP JUMP JUMPDEST PUSH0 PUSH2 0x3C06 DUP4 DUP4 PUSH2 0x3BBA JUMP JUMPDEST SWAP1 POP SWAP3 SWAP2 POP POP JUMP JUMPDEST PUSH0 PUSH1 0x20 DUP3 ADD SWAP1 POP SWAP2 SWAP1 POP JUMP JUMPDEST PUSH0 PUSH2 0x3C24 DUP3 PUSH2 0x3A67 JUMP JUMPDEST PUSH2 0x3C2E DUP2 DUP6 PUSH2 0x3A71 JUMP JUMPDEST SWAP4 POP DUP4 PUSH1 0x20 DUP3 MUL DUP6 ADD PUSH2 0x3C40 DUP6 PUSH2 0x3A81 JUMP JUMPDEST DUP1 PUSH0 JUMPDEST DUP6 DUP2 LT ISZERO PUSH2 0x3C7B JUMPI DUP5 DUP5 SUB DUP10 MSTORE DUP2 MLOAD PUSH2 0x3C5C DUP6 DUP3 PUSH2 0x3BFB JUMP JUMPDEST SWAP5 POP PUSH2 0x3C67 DUP4 PUSH2 0x3C0E JUMP JUMPDEST SWAP3 POP PUSH1 0x20 DUP11 ADD SWAP10 POP POP PUSH1 0x1 DUP2 ADD SWAP1 POP PUSH2 0x3C43 JUMP JUMPDEST POP DUP3 SWAP8 POP DUP8 SWAP6 POP POP POP POP POP POP SWAP3 SWAP2 POP POP JUMP JUMPDEST PUSH0 PUSH1 0x20 DUP3 ADD SWAP1 POP DUP2 DUP2 SUB PUSH0 DUP4 ADD MSTORE PUSH2 0x3CA5 DUP2 DUP5 PUSH2 0x3C1A JUMP JUMPDEST SWAP1 POP SWAP3 SWAP2 POP POP JUMP JUMPDEST PUSH0 PUSH0 PUSH0 PUSH1 0x60 DUP5 DUP7 SUB SLT ISZERO PUSH2 0x3CC4 JUMPI PUSH2 0x3CC3 PUSH2 0x262C JUMP JUMPDEST JUMPDEST PUSH0 PUSH2 0x3CD1 DUP7 DUP3 DUP8 ADD PUSH2 0x26D8 JUMP JUMPDEST SWAP4 POP POP PUSH1 0x20 PUSH2 0x3CE2 DUP7 DUP3 DUP8 ADD PUSH2 0x26D8 JUMP JUMPDEST SWAP3 POP POP PUSH1 0x40 DUP5 ADD CALLDATALOAD PUSH8 0xFFFFFFFFFFFFFFFF DUP2 GT ISZERO PUSH2 0x3D03 JUMPI PUSH2 0x3D02 PUSH2 0x2630 JUMP JUMPDEST JUMPDEST PUSH2 0x3D0F DUP7 DUP3 DUP8 ADD PUSH2 0x31D9 JUMP JUMPDEST SWAP2 POP POP SWAP3 POP SWAP3 POP SWAP3 JUMP JUMPDEST PUSH0 DUP2 MLOAD SWAP1 POP SWAP2 SWAP1 POP JUMP JUMPDEST PUSH0 DUP3 DUP3 MSTORE PUSH1 0x20 DUP3 ADD SWAP1 POP SWAP3 SWAP2 POP POP JUMP JUMPDEST PUSH0 DUP2 SWAP1 POP PUSH1 0x20 DUP3 ADD SWAP1 POP SWAP2 SWAP1 POP JUMP JUMPDEST PUSH0 PUSH1 0x40 DUP4 ADD PUSH0 DUP4 ADD MLOAD PUSH2 0x3D57 PUSH0 DUP7 ADD DUP3 PUSH2 0x2717 JUMP JUMPDEST POP PUSH1 0x20 DUP4 ADD MLOAD DUP5 DUP3 SUB PUSH1 0x20 DUP7 ADD MSTORE PUSH2 0x3D6F DUP3 DUP3 PUSH2 0x275E JUMP JUMPDEST SWAP2 POP POP DUP1 SWAP2 POP POP SWAP3 SWAP2 POP POP JUMP JUMPDEST PUSH0 PUSH2 0x3D87 DUP4 DUP4 PUSH2 0x3D42 JUMP JUMPDEST SWAP1 POP SWAP3 SWAP2 POP POP JUMP JUMPDEST PUSH0 PUSH1 0x20 DUP3 ADD SWAP1 POP SWAP2 SWAP1 POP JUMP JUMPDEST PUSH0 PUSH2 0x3DA5 DUP3 PUSH2 0x3D19 JUMP JUMPDEST PUSH2 0x3DAF DUP2 DUP6 PUSH2 0x3D23 JUMP JUMPDEST SWAP4 POP DUP4 PUSH1 0x20 DUP3 MUL DUP6 ADD PUSH2 0x3DC1 DUP6 PUSH2 0x3D33 JUMP JUMPDEST DUP1 PUSH0 JUMPDEST DUP6 DUP2 LT ISZERO PUSH2 0x3DFC JUMPI DUP5 DUP5 SUB DUP10 MSTORE DUP2 MLOAD PUSH2 0x3DDD DUP6 DUP3 PUSH2 0x3D7C JUMP JUMPDEST SWAP5 POP PUSH2 0x3DE8 DUP4 PUSH2 0x3D8F JUMP JUMPDEST SWAP3 POP PUSH1 0x20 DUP11 ADD SWAP10 POP POP PUSH1 0x1 DUP2 ADD SWAP1 POP PUSH2 0x3DC4 JUMP JUMPDEST POP DUP3 SWAP8 POP DUP8 SWAP6 POP POP POP POP POP POP SWAP3 SWAP2 POP POP JUMP JUMPDEST PUSH0 PUSH1 0x20 DUP3 ADD SWAP1 POP DUP2 DUP2 SUB PUSH0 DUP4 ADD MSTORE PUSH2 0x3E26 DUP2 DUP5 PUSH2 0x3D9B JUMP JUMPDEST SWAP1 POP SWAP3 SWAP2 POP POP JUMP JUMPDEST PUSH2 0x3E37 DUP2 PUSH2 0x26B9 JUMP JUMPDEST DUP3 MSTORE POP POP JUMP JUMPDEST PUSH0 PUSH1 0x20 DUP3 ADD SWAP1 POP PUSH2 0x3E50 PUSH0 DUP4 ADD DUP5 PUSH2 0x3E2E JUMP JUMPDEST SWAP3 SWAP2 POP POP JUMP JUMPDEST PUSH0 PUSH1 0x40 DUP4 ADD PUSH0 DUP4 ADD MLOAD PUSH2 0x3E6B PUSH0 DUP7 ADD DUP3 PUSH2 0x2717 JUMP JUMPDEST POP PUSH1 0x20 DUP4 ADD MLOAD DUP5 DUP3 SUB PUSH1 0x20 DUP7 ADD MSTORE PUSH2 0x3E83 DUP3 DUP3 PUSH2 0x275E JUMP JUMPDEST SWAP2 POP POP DUP1 SWAP2 POP POP SWAP3 SWAP2 POP POP JUMP JUMPDEST PUSH0 PUSH1 0x20 DUP3 ADD SWAP1 POP DUP2 DUP2 SUB PUSH0 DUP4 ADD MSTORE PUSH2 0x3EA8 DUP2 DUP5 PUSH2 0x3E56 JUMP JUMPDEST SWAP1 POP SWAP3 SWAP2 POP POP JUMP JUMPDEST PUSH0 DUP2 MLOAD SWAP1 POP PUSH2 0x3EBE DUP2 PUSH2 0x26C2 JUMP JUMPDEST SWAP3 SWAP2 POP POP JUMP JUMPDEST PUSH0 PUSH2 0x3ED6 PUSH2 0x3ED1 DUP5 PUSH2 0x2B23 JUMP JUMPDEST PUSH2 0x2B09 JUMP JUMPDEST SWAP1 POP DUP3 DUP2 MSTORE PUSH1 0x20 DUP2 ADD DUP5 DUP5 DUP5 ADD GT ISZERO PUSH2 0x3EF2 JUMPI PUSH2 0x3EF1 PUSH2 0x2AA7 JUMP JUMPDEST JUMPDEST PUSH2 0x3EFD DUP5 DUP3 DUP6 PUSH2 0x2740 JUMP JUMPDEST POP SWAP4 SWAP3 POP POP POP JUMP JUMPDEST PUSH0 DUP3 PUSH1 0x1F DUP4 ADD SLT PUSH2 0x3F19 JUMPI PUSH2 0x3F18 PUSH2 0x2AA3 JUMP JUMPDEST JUMPDEST DUP2 MLOAD PUSH2 0x3F29 DUP5 DUP3 PUSH1 0x20 DUP7 ADD PUSH2 0x3EC4 JUMP JUMPDEST SWAP2 POP POP SWAP3 SWAP2 POP POP JUMP JUMPDEST PUSH0 PUSH2 0x3F44 PUSH2 0x3F3F DUP5 PUSH2 0x3363 JUMP JUMPDEST PUSH2 0x2B09 JUMP JUMPDEST SWAP1 POP DUP1 DUP4 DUP3 MSTORE PUSH1 0x20 DUP3 ADD SWAP1 POP PUSH1 0x20 DUP5 MUL DUP4 ADD DUP6 DUP2 GT ISZERO PUSH2 0x3F67 JUMPI PUSH2 0x3F66 PUSH2 0x2BFA JUMP JUMPDEST JUMPDEST DUP4 JUMPDEST DUP2 DUP2 LT ISZERO PUSH2 0x3FAE JUMPI DUP1 MLOAD PUSH8 0xFFFFFFFFFFFFFFFF DUP2 GT ISZERO PUSH2 0x3F8C JUMPI PUSH2 0x3F8B PUSH2 0x2AA3 JUMP JUMPDEST JUMPDEST DUP1 DUP7 ADD PUSH2 0x3F99 DUP10 DUP3 PUSH2 0x3F05 JUMP JUMPDEST DUP6 MSTORE PUSH1 0x20 DUP6 ADD SWAP5 POP POP POP PUSH1 0x20 DUP2 ADD SWAP1 POP PUSH2 0x3F69 JUMP JUMPDEST POP POP POP SWAP4 SWAP3 POP POP POP JUMP JUMPDEST PUSH0 DUP3 PUSH1 0x1F DUP4 ADD SLT PUSH2 0x3FCC JUMPI PUSH2 0x3FCB PUSH2 0x2AA3 JUMP JUMPDEST JUMPDEST DUP2 MLOAD PUSH2 0x3FDC DUP5 DUP3 PUSH1 0x20 DUP7 ADD PUSH2 0x3F32 JUMP JUMPDEST SWAP2 POP POP SWAP3 SWAP2 POP POP JUMP JUMPDEST PUSH0 PUSH1 0xE0 DUP3 DUP5 SUB SLT ISZERO PUSH2 0x3FFA JUMPI PUSH2 0x3FF9 PUSH2 0x2BFE JUMP JUMPDEST JUMPDEST PUSH2 0x4004 PUSH1 0xE0 PUSH2 0x2B09 JUMP JUMPDEST SWAP1 POP PUSH0 PUSH2 0x4013 DUP5 DUP3 DUP6 ADD PUSH2 0x3EB0 JUMP JUMPDEST PUSH0 DUP4 ADD MSTORE POP PUSH1 0x20 DUP3 ADD MLOAD PUSH8 0xFFFFFFFFFFFFFFFF DUP2 GT ISZERO PUSH2 0x4036 JUMPI PUSH2 0x4035 PUSH2 0x2C02 JUMP JUMPDEST JUMPDEST PUSH2 0x4042 DUP5 DUP3 DUP6 ADD PUSH2 0x3F05 JUMP JUMPDEST PUSH1 0x20 DUP4 ADD MSTORE POP PUSH1 0x40 DUP3 ADD MLOAD PUSH8 0xFFFFFFFFFFFFFFFF DUP2 GT ISZERO PUSH2 0x4066 JUMPI PUSH2 0x4065 PUSH2 0x2C02 JUMP JUMPDEST JUMPDEST PUSH2 0x4072 DUP5 DUP3 DUP6 ADD PUSH2 0x3F05 JUMP JUMPDEST PUSH1 0x40 DUP4 ADD MSTORE POP PUSH1 0x60 PUSH2 0x4086 DUP5 DUP3 DUP6 ADD PUSH2 0x3EB0 JUMP JUMPDEST PUSH1 0x60 DUP4 ADD MSTORE POP PUSH1 0x80 DUP3 ADD MLOAD PUSH8 0xFFFFFFFFFFFFFFFF DUP2 GT ISZERO PUSH2 0x40AA JUMPI PUSH2 0x40A9 PUSH2 0x2C02 JUMP JUMPDEST JUMPDEST PUSH2 0x40B6 DUP5 DUP3 DUP6 ADD PUSH2 0x3FB8 JUMP JUMPDEST PUSH1 0x80 DUP4 ADD MSTORE POP PUSH1 0xA0 PUSH2 0x40CA DUP5 DUP3 DUP6 ADD PUSH2 0x3EB0 JUMP JUMPDEST PUSH1 0xA0 DUP4 ADD MSTORE POP PUSH1 0xC0 PUSH2 0x40DE DUP5 DUP3 DUP6 ADD PUSH2 0x3EB0 JUMP JUMPDEST PUSH1 0xC0 DUP4 ADD MSTORE POP SWAP3 SWAP2 POP POP JUMP JUMPDEST PUSH0 PUSH1 0x20 DUP3 DUP5 SUB SLT ISZERO PUSH2 0x40FF JUMPI PUSH2 0x40FE PUSH2 0x262C JUMP JUMPDEST JUMPDEST PUSH0 DUP3 ADD MLOAD PUSH8 0xFFFFFFFFFFFFFFFF DUP2 GT ISZERO PUSH2 0x411C JUMPI PUSH2 0x411B PUSH2 0x2630 JUMP JUMPDEST JUMPDEST PUSH2 0x4128 DUP5 DUP3 DUP6 ADD PUSH2 0x3FE5 JUMP JUMPDEST SWAP2 POP POP SWAP3 SWAP2 POP POP JUMP JUMPDEST PUSH2 0x413A DUP2 PUSH2 0x29A4 JUMP JUMPDEST DUP2 EQ PUSH2 0x4144 JUMPI PUSH0 PUSH0 REVERT JUMPDEST POP JUMP JUMPDEST PUSH0 DUP2 MLOAD SWAP1 POP PUSH2 0x4155 DUP2 PUSH2 0x4131 JUMP JUMPDEST SWAP3 SWAP2 POP POP JUMP JUMPDEST PUSH0 PUSH1 0xA0 DUP3 DUP5 SUB SLT ISZERO PUSH2 0x4170 JUMPI PUSH2 0x416F PUSH2 0x2BFE JUMP JUMPDEST JUMPDEST PUSH2 0x417A PUSH1 0xA0 PUSH2 0x2B09 JUMP JUMPDEST SWAP1 POP PUSH0 PUSH2 0x4189 DUP5 DUP3 DUP6 ADD PUSH2 0x3EB0 JUMP JUMPDEST PUSH0 DUP4 ADD MSTORE POP PUSH1 0x20 PUSH2 0x419C DUP5 DUP3 DUP6 ADD PUSH2 0x3EB0 JUMP JUMPDEST PUSH1 0x20 DUP4 ADD MSTORE POP PUSH1 0x40 PUSH2 0x41B0 DUP5 DUP3 DUP6 ADD PUSH2 0x3EB0 JUMP JUMPDEST PUSH1 0x40 DUP4 ADD MSTORE POP PUSH1 0x60 PUSH2 0x41C4 DUP5 DUP3 DUP6 ADD PUSH2 0x3EB0 JUMP JUMPDEST PUSH1 0x60 DUP4 ADD MSTORE POP PUSH1 0x80 PUSH2 0x41D8 DUP5 DUP3 DUP6 ADD PUSH2 0x4147 JUMP JUMPDEST PUSH1 0x80 DUP4 ADD MSTORE POP SWAP3 SWAP2 POP POP JUMP JUMPDEST PUSH0 PUSH1 0xA0 DUP3 DUP5 SUB SLT ISZERO PUSH2 0x41F9 JUMPI PUSH2 0x41F8 PUSH2 0x262C JUMP JUMPDEST JUMPDEST PUSH0 PUSH2 0x4206 DUP5 DUP3 DUP6 ADD PUSH2 0x415B JUMP JUMPDEST SWAP2 POP POP SWAP3 SWAP2 POP POP JUMP JUMPDEST PUSH0 DUP3 DUP3 MSTORE PUSH1 0x20 DUP3 ADD SWAP1 POP SWAP3 SWAP2 POP POP JUMP JUMPDEST PUSH32 0x596F7520617265206E6F742061646D696E000000000000000000000000000000 PUSH0 DUP3 ADD MSTORE POP JUMP JUMPDEST PUSH0 PUSH2 0x4253 PUSH1 0x11 DUP4 PUSH2 0x420F JUMP JUMPDEST SWAP2 POP PUSH2 0x425E DUP3 PUSH2 0x421F JUMP JUMPDEST PUSH1 0x20 DUP3 ADD SWAP1 POP SWAP2 SWAP1 POP JUMP JUMPDEST PUSH0 PUSH1 0x20 DUP3 ADD SWAP1 POP DUP2 DUP2 SUB PUSH0 DUP4 ADD MSTORE PUSH2 0x4280 DUP2 PUSH2 0x4247 JUMP JUMPDEST SWAP1 POP SWAP2 SWAP1 POP JUMP JUMPDEST PUSH0 PUSH1 0x40 DUP3 ADD SWAP1 POP PUSH2 0x429A PUSH0 DUP4 ADD DUP6 PUSH2 0x3E2E JUMP JUMPDEST PUSH2 0x42A7 PUSH1 0x20 DUP4 ADD DUP5 PUSH2 0x3E2E JUMP JUMPDEST SWAP4 SWAP3 POP POP POP JUMP JUMPDEST PUSH0 PUSH2 0x42B8 DUP3 PUSH2 0x2726 JUMP JUMPDEST PUSH2 0x42C2 DUP2 DUP6 PUSH2 0x420F JUMP JUMPDEST SWAP4 POP PUSH2 0x42D2 DUP2 DUP6 PUSH1 0x20 DUP7 ADD PUSH2 0x2740 JUMP JUMPDEST PUSH2 0x42DB DUP2 PUSH2 0x274E JUMP JUMPDEST DUP5 ADD SWAP2 POP POP SWAP3 SWAP2 POP POP JUMP JUMPDEST PUSH0 DUP2 MLOAD SWAP1 POP SWAP2 SWAP1 POP JUMP JUMPDEST PUSH0 DUP3 DUP3 MSTORE PUSH1 0x20 DUP3 ADD SWAP1 POP SWAP3 SWAP2 POP POP JUMP JUMPDEST PUSH0 DUP2 SWAP1 POP PUSH1 0x20 DUP3 ADD SWAP1 POP SWAP2 SWAP1 POP JUMP JUMPDEST PUSH1 0x60 DUP3 ADD PUSH0 DUP3 ADD MLOAD PUSH2 0x4323 PUSH0 DUP6 ADD DUP3 PUSH2 0x2717 JUMP JUMPDEST POP PUSH1 0x20 DUP3 ADD MLOAD PUSH2 0x4336 PUSH1 0x20 DUP6 ADD DUP3 PUSH2 0x2717 JUMP JUMPDEST POP PUSH1 0x40 DUP3 ADD MLOAD PUSH2 0x4349 PUSH1 0x40 DUP6 ADD DUP3 PUSH2 0x2717 JUMP JUMPDEST POP POP POP POP JUMP JUMPDEST PUSH0 PUSH2 0x435A DUP4 DUP4 PUSH2 0x430F JUMP JUMPDEST PUSH1 0x60 DUP4 ADD SWAP1 POP SWAP3 SWAP2 POP POP JUMP JUMPDEST PUSH0 PUSH1 0x20 DUP3 ADD SWAP1 POP SWAP2 SWAP1 POP JUMP JUMPDEST PUSH0 PUSH2 0x437C DUP3 PUSH2 0x42E6 JUMP JUMPDEST PUSH2 0x4386 DUP2 DUP6 PUSH2 0x42F0 JUMP JUMPDEST SWAP4 POP PUSH2 0x4391 DUP4 PUSH2 0x4300 JUMP JUMPDEST DUP1 PUSH0 JUMPDEST DUP4 DUP2 LT ISZERO PUSH2 0x43C1 JUMPI DUP2 MLOAD PUSH2 0x43A8 DUP9 DUP3 PUSH2 0x434F JUMP JUMPDEST SWAP8 POP PUSH2 0x43B3 DUP4 PUSH2 0x4366 JUMP JUMPDEST SWAP3 POP POP PUSH1 0x1 DUP2 ADD SWAP1 POP PUSH2 0x4394 JUMP JUMPDEST POP DUP6 SWAP4 POP POP POP POP SWAP3 SWAP2 POP POP JUMP JUMPDEST PUSH0 PUSH1 0xA0 DUP3 ADD SWAP1 POP PUSH2 0x43E1 PUSH0 DUP4 ADD DUP9 PUSH2 0x2A3D JUMP JUMPDEST PUSH2 0x43EE PUSH1 0x20 DUP4 ADD DUP8 PUSH2 0x3E2E JUMP JUMPDEST DUP2 DUP2 SUB PUSH1 0x40 DUP4 ADD MSTORE PUSH2 0x4400 DUP2 DUP7 PUSH2 0x42AE JUMP JUMPDEST SWAP1 POP DUP2 DUP2 SUB PUSH1 0x60 DUP4 ADD MSTORE PUSH2 0x4414 DUP2 DUP6 PUSH2 0x42AE JUMP JUMPDEST SWAP1 POP DUP2 DUP2 SUB PUSH1 0x80 DUP4 ADD MSTORE PUSH2 0x4428 DUP2 DUP5 PUSH2 0x4372 JUMP JUMPDEST SWAP1 POP SWAP7 SWAP6 POP POP POP POP POP POP JUMP JUMPDEST PUSH0 DUP2 MLOAD SWAP1 POP PUSH2 0x4442 DUP2 PUSH2 0x2664 JUMP JUMPDEST SWAP3 SWAP2 POP POP JUMP JUMPDEST PUSH0 PUSH8 0xFFFFFFFFFFFFFFFF DUP3 GT ISZERO PUSH2 0x4462 JUMPI PUSH2 0x4461 PUSH2 0x2AAB JUMP JUMPDEST JUMPDEST PUSH1 0x20 DUP3 MUL SWAP1 POP PUSH1 0x20 DUP2 ADD SWAP1 POP SWAP2 SWAP1 POP JUMP JUMPDEST PUSH0 DUP2 MLOAD SWAP1 POP PUSH2 0x4481 DUP2 PUSH2 0x3566 JUMP JUMPDEST SWAP3 SWAP2 POP POP JUMP JUMPDEST PUSH0 PUSH1 0xC0 DUP3 DUP5 SUB SLT ISZERO PUSH2 0x449C JUMPI PUSH2 0x449B PUSH2 0x2BFE JUMP JUMPDEST JUMPDEST PUSH2 0x44A6 PUSH1 0xC0 PUSH2 0x2B09 JUMP JUMPDEST SWAP1 POP PUSH0 PUSH2 0x44B5 DUP5 DUP3 DUP6 ADD PUSH2 0x3EB0 JUMP JUMPDEST PUSH0 DUP4 ADD MSTORE POP PUSH1 0x20 PUSH2 0x44C8 DUP5 DUP3 DUP6 ADD PUSH2 0x3EB0 JUMP JUMPDEST PUSH1 0x20 DUP4 ADD MSTORE POP PUSH1 0x40 PUSH2 0x44DC DUP5 DUP3 DUP6 ADD PUSH2 0x3EB0 JUMP JUMPDEST PUSH1 0x40 DUP4 ADD MSTORE POP PUSH1 0x60 PUSH2 0x44F0 DUP5 DUP3 DUP6 ADD PUSH2 0x3EB0 JUMP JUMPDEST PUSH1 0x60 DUP4 ADD MSTORE POP PUSH1 0x80 PUSH2 0x4504 DUP5 DUP3 DUP6 ADD PUSH2 0x3EB0 JUMP JUMPDEST PUSH1 0x80 DUP4 ADD MSTORE POP PUSH1 0xA0 PUSH2 0x4518 DUP5 DUP3 DUP6 ADD PUSH2 0x4473 JUMP JUMPDEST PUSH1 0xA0 DUP4 ADD MSTORE POP SWAP3 SWAP2 POP POP JUMP JUMPDEST PUSH0 PUSH2 0x4536 PUSH2 0x4531 DUP5 PUSH2 0x4448 JUMP JUMPDEST PUSH2 0x2B09 JUMP JUMPDEST SWAP1 POP DUP1 DUP4 DUP3 MSTORE PUSH1 0x20 DUP3 ADD SWAP1 POP PUSH1 0xC0 DUP5 MUL DUP4 ADD DUP6 DUP2 GT ISZERO PUSH2 0x4559 JUMPI PUSH2 0x4558 PUSH2 0x2BFA JUMP JUMPDEST JUMPDEST DUP4 JUMPDEST DUP2 DUP2 LT ISZERO PUSH2 0x4582 JUMPI DUP1 PUSH2 0x456E DUP9 DUP3 PUSH2 0x4487 JUMP JUMPDEST DUP5 MSTORE PUSH1 0x20 DUP5 ADD SWAP4 POP POP PUSH1 0xC0 DUP2 ADD SWAP1 POP PUSH2 0x455B JUMP JUMPDEST POP POP POP SWAP4 SWAP3 POP POP POP JUMP JUMPDEST PUSH0 DUP3 PUSH1 0x1F DUP4 ADD SLT PUSH2 0x45A0 JUMPI PUSH2 0x459F PUSH2 0x2AA3 JUMP JUMPDEST JUMPDEST DUP2 MLOAD PUSH2 0x45B0 DUP5 DUP3 PUSH1 0x20 DUP7 ADD PUSH2 0x4524 JUMP JUMPDEST SWAP2 POP POP SWAP3 SWAP2 POP POP JUMP JUMPDEST PUSH0 DUP2 MLOAD SWAP1 POP PUSH2 0x45C7 DUP2 PUSH2 0x35D9 JUMP JUMPDEST SWAP3 SWAP2 POP POP JUMP JUMPDEST PUSH0 PUSH2 0x140 DUP3 DUP5 SUB SLT ISZERO PUSH2 0x45E3 JUMPI PUSH2 0x45E2 PUSH2 0x2BFE JUMP JUMPDEST JUMPDEST PUSH2 0x45EE PUSH2 0x140 PUSH2 0x2B09 JUMP JUMPDEST SWAP1 POP PUSH0 PUSH2 0x45FD DUP5 DUP3 DUP6 ADD PUSH2 0x3EB0 JUMP JUMPDEST PUSH0 DUP4 ADD MSTORE POP PUSH1 0x20 PUSH2 0x4610 DUP5 DUP3 DUP6 ADD PUSH2 0x4434 JUMP JUMPDEST PUSH1 0x20 DUP4 ADD MSTORE POP PUSH1 0x40 DUP3 ADD MLOAD PUSH8 0xFFFFFFFFFFFFFFFF DUP2 GT ISZERO PUSH2 0x4634 JUMPI PUSH2 0x4633 PUSH2 0x2C02 JUMP JUMPDEST JUMPDEST PUSH2 0x4640 DUP5 DUP3 DUP6 ADD PUSH2 0x3F05 JUMP JUMPDEST PUSH1 0x40 DUP4 ADD MSTORE POP PUSH1 0x60 DUP3 ADD MLOAD PUSH8 0xFFFFFFFFFFFFFFFF DUP2 GT ISZERO PUSH2 0x4664 JUMPI PUSH2 0x4663 PUSH2 0x2C02 JUMP JUMPDEST JUMPDEST PUSH2 0x4670 DUP5 DUP3 DUP6 ADD PUSH2 0x3F05 JUMP JUMPDEST PUSH1 0x60 DUP4 ADD MSTORE POP PUSH1 0x80 DUP3 ADD MLOAD PUSH8 0xFFFFFFFFFFFFFFFF DUP2 GT ISZERO PUSH2 0x4694 JUMPI PUSH2 0x4693 PUSH2 0x2C02 JUMP JUMPDEST JUMPDEST PUSH2 0x46A0 DUP5 DUP3 DUP6 ADD PUSH2 0x3F05 JUMP JUMPDEST PUSH1 0x80 DUP4 ADD MSTORE POP PUSH1 0xA0 DUP3 ADD MLOAD PUSH8 0xFFFFFFFFFFFFFFFF DUP2 GT ISZERO PUSH2 0x46C4 JUMPI PUSH2 0x46C3 PUSH2 0x2C02 JUMP JUMPDEST JUMPDEST PUSH2 0x46D0 DUP5 DUP3 DUP6 ADD PUSH2 0x3F05 JUMP JUMPDEST PUSH1 0xA0 DUP4 ADD MSTORE POP PUSH1 0xC0 DUP3 ADD MLOAD PUSH8 0xFFFFFFFFFFFFFFFF DUP2 GT ISZERO PUSH2 0x46F4 JUMPI PUSH2 0x46F3 PUSH2 0x2C02 JUMP JUMPDEST JUMPDEST PUSH2 0x4700 DUP5 DUP3 DUP6 ADD PUSH2 0x458C JUMP JUMPDEST PUSH1 0xC0 DUP4 ADD MSTORE POP PUSH1 0xE0 PUSH2 0x4714 DUP5 DUP3 DUP6 ADD PUSH2 0x3EB0 JUMP JUMPDEST PUSH1 0xE0 DUP4 ADD MSTORE POP PUSH2 0x100 PUSH2 0x4729 DUP5 DUP3 DUP6 ADD PUSH2 0x45B9 JUMP JUMPDEST PUSH2 0x100 DUP4 ADD MSTORE POP PUSH2 0x120 PUSH2 0x473F DUP5 DUP3 DUP6 ADD PUSH2 0x3EB0 JUMP JUMPDEST PUSH2 0x120 DUP4 ADD MSTORE POP SWAP3 SWAP2 POP POP JUMP JUMPDEST PUSH0 PUSH1 0x20 DUP3 DUP5 SUB SLT ISZERO PUSH2 0x4761 JUMPI PUSH2 0x4760 PUSH2 0x262C JUMP JUMPDEST JUMPDEST PUSH0 DUP3 ADD MLOAD PUSH8 0xFFFFFFFFFFFFFFFF DUP2 GT ISZERO PUSH2 0x477E JUMPI PUSH2 0x477D PUSH2 0x2630 JUMP JUMPDEST JUMPDEST PUSH2 0x478A DUP5 DUP3 DUP6 ADD PUSH2 0x45CD JUMP JUMPDEST SWAP2 POP POP SWAP3 SWAP2 POP POP JUMP JUMPDEST PUSH32 0x496E76616C696420616464726573730000000000000000000000000000000000 PUSH0 DUP3 ADD MSTORE POP JUMP JUMPDEST PUSH0 PUSH2 0x47C7 PUSH1 0xF DUP4 PUSH2 0x420F JUMP JUMPDEST SWAP2 POP PUSH2 0x47D2 DUP3 PUSH2 0x4793 JUMP JUMPDEST PUSH1 0x20 DUP3 ADD SWAP1 POP SWAP2 SWAP1 POP JUMP JUMPDEST PUSH0 PUSH1 0x20 DUP3 ADD SWAP1 POP DUP2 DUP2 SUB PUSH0 DUP4 ADD MSTORE PUSH2 0x47F4 DUP2 PUSH2 0x47BB JUMP JUMPDEST SWAP1 POP SWAP2 SWAP1 POP JUMP JUMPDEST PUSH0 PUSH1 0x60 DUP3 ADD SWAP1 POP PUSH2 0x480E PUSH0 DUP4 ADD DUP7 PUSH2 0x3E2E JUMP JUMPDEST PUSH2 0x481B PUSH1 0x20 DUP4 ADD DUP6 PUSH2 0x3E2E JUMP JUMPDEST PUSH2 0x4828 PUSH1 0x40 DUP4 ADD DUP5 PUSH2 0x3E2E JUMP JUMPDEST SWAP5 SWAP4 POP POP POP POP JUMP JUMPDEST PUSH0 PUSH8 0xFFFFFFFFFFFFFFFF DUP3 GT ISZERO PUSH2 0x484A JUMPI PUSH2 0x4849 PUSH2 0x2AAB JUMP JUMPDEST JUMPDEST PUSH1 0x20 DUP3 MUL SWAP1 POP PUSH1 0x20 DUP2 ADD SWAP1 POP SWAP2 SWAP1 POP JUMP JUMPDEST PUSH0 PUSH2 0x486D PUSH2 0x4868 DUP5 PUSH2 0x4830 JUMP JUMPDEST PUSH2 0x2B09 JUMP JUMPDEST SWAP1 POP DUP1 DUP4 DUP3 MSTORE PUSH1 0x20 DUP3 ADD SWAP1 POP PUSH1 0x20 DUP5 MUL DUP4 ADD DUP6 DUP2 GT ISZERO PUSH2 0x4890 JUMPI PUSH2 0x488F PUSH2 0x2BFA JUMP JUMPDEST JUMPDEST DUP4 JUMPDEST DUP2 DUP2 LT ISZERO PUSH2 0x48B9 JUMPI DUP1 PUSH2 0x48A5 DUP9 DUP3 PUSH2 0x3EB0 JUMP JUMPDEST DUP5 MSTORE PUSH1 0x20 DUP5 ADD SWAP4 POP POP PUSH1 0x20 DUP2 ADD SWAP1 POP PUSH2 0x4892 JUMP JUMPDEST POP POP POP SWAP4 SWAP3 POP POP POP JUMP JUMPDEST PUSH0 DUP3 PUSH1 0x1F DUP4 ADD SLT PUSH2 0x48D7 JUMPI PUSH2 0x48D6 PUSH2 0x2AA3 JUMP JUMPDEST JUMPDEST DUP2 MLOAD PUSH2 0x48E7 DUP5 DUP3 PUSH1 0x20 DUP7 ADD PUSH2 0x485B JUMP JUMPDEST SWAP2 POP POP SWAP3 SWAP2 POP POP JUMP JUMPDEST PUSH0 PUSH1 0x20 DUP3 DUP5 SUB SLT ISZERO PUSH2 0x4905 JUMPI PUSH2 0x4904 PUSH2 0x262C JUMP JUMPDEST JUMPDEST PUSH0 DUP3 ADD MLOAD PUSH8 0xFFFFFFFFFFFFFFFF DUP2 GT ISZERO PUSH2 0x4922 JUMPI PUSH2 0x4921 PUSH2 0x2630 JUMP JUMPDEST JUMPDEST PUSH2 0x492E DUP5 DUP3 DUP6 ADD PUSH2 0x48C3 JUMP JUMPDEST SWAP2 POP POP SWAP3 SWAP2 POP POP JUMP JUMPDEST PUSH0 DUP2 MLOAD SWAP1 POP SWAP2 SWAP1 POP JUMP JUMPDEST PUSH0 DUP3 DUP3 MSTORE PUSH1 0x20 DUP3 ADD SWAP1 POP SWAP3 SWAP2 POP POP JUMP JUMPDEST PUSH0 DUP2 SWAP1 POP PUSH1 0x20 DUP3 ADD SWAP1 POP SWAP2 SWAP1 POP JUMP JUMPDEST PUSH0 PUSH1 0x60 DUP4 ADD PUSH0 DUP4 ADD MLOAD DUP5 DUP3 SUB PUSH0 DUP7 ADD MSTORE PUSH2 0x497A DUP3 DUP3 PUSH2 0x275E JUMP JUMPDEST SWAP2 POP POP PUSH1 0x20 DUP4 ADD MLOAD PUSH2 0x498F PUSH1 0x20 DUP7 ADD DUP3 PUSH2 0x2717 JUMP JUMPDEST POP PUSH1 0x40 DUP4 ADD MLOAD PUSH2 0x49A2 PUSH1 0x40 DUP7 ADD DUP3 PUSH2 0x2717 JUMP JUMPDEST POP DUP1 SWAP2 POP POP SWAP3 SWAP2 POP POP JUMP JUMPDEST PUSH0 PUSH2 0x49B8 DUP4 DUP4 PUSH2 0x4960 JUMP JUMPDEST SWAP1 POP SWAP3 SWAP2 POP POP JUMP JUMPDEST PUSH0 PUSH1 0x20 DUP3 ADD SWAP1 POP SWAP2 SWAP1 POP JUMP JUMPDEST PUSH0 PUSH2 0x49D6 DUP3 PUSH2 0x4937 JUMP JUMPDEST PUSH2 0x49E0 DUP2 DUP6 PUSH2 0x4941 JUMP JUMPDEST SWAP4 POP DUP4 PUSH1 0x20 DUP3 MUL DUP6 ADD PUSH2 0x49F2 DUP6 PUSH2 0x4951 JUMP JUMPDEST DUP1 PUSH0 JUMPDEST DUP6 DUP2 LT ISZERO PUSH2 0x4A2D JUMPI DUP5 DUP5 SUB DUP10 MSTORE DUP2 MLOAD PUSH2 0x4A0E DUP6 DUP3 PUSH2 0x49AD JUMP JUMPDEST SWAP5 POP PUSH2 0x4A19 DUP4 PUSH2 0x49C0 JUMP JUMPDEST SWAP3 POP PUSH1 0x20 DUP11 ADD SWAP10 POP POP PUSH1 0x1 DUP2 ADD SWAP1 POP PUSH2 0x49F5 JUMP JUMPDEST POP DUP3 SWAP8 POP DUP8 SWAP6 POP POP POP POP POP POP SWAP3 SWAP2 POP POP JUMP JUMPDEST PUSH0 PUSH1 0x40 DUP3 ADD SWAP1 POP PUSH2 0x4A52 PUSH0 DUP4 ADD DUP6 PUSH2 0x3E2E JUMP JUMPDEST DUP2 DUP2 SUB PUSH1 0x20 DUP4 ADD MSTORE PUSH2 0x4A64 DUP2 DUP5 PUSH2 0x49CC JUMP JUMPDEST SWAP1 POP SWAP4 SWAP3 POP POP POP JUMP JUMPDEST PUSH0 DUP3 DUP3 MSTORE PUSH1 0x20 DUP3 ADD SWAP1 POP SWAP3 SWAP2 POP POP JUMP JUMPDEST PUSH0 PUSH2 0x4A87 DUP3 PUSH2 0x2796 JUMP JUMPDEST PUSH2 0x4A91 DUP2 DUP6 PUSH2 0x4A6D JUMP JUMPDEST SWAP4 POP DUP4 PUSH1 0x20 DUP3 MUL DUP6 ADD PUSH2 0x4AA3 DUP6 PUSH2 0x27B0 JUMP JUMPDEST DUP1 PUSH0 JUMPDEST DUP6 DUP2 LT ISZERO PUSH2 0x4ADE JUMPI DUP5 DUP5 SUB DUP10 MSTORE DUP2 MLOAD PUSH2 0x4ABF DUP6 DUP3 PUSH2 0x27BF JUMP JUMPDEST SWAP5 POP PUSH2 0x4ACA DUP4 PUSH2 0x27D2 JUMP JUMPDEST SWAP3 POP PUSH1 0x20 DUP11 ADD SWAP10 POP POP PUSH1 0x1 DUP2 ADD SWAP1 POP PUSH2 0x4AA6 JUMP JUMPDEST POP DUP3 SWAP8 POP DUP8 SWAP6 POP POP POP POP POP POP SWAP3 SWAP2 POP POP JUMP JUMPDEST PUSH0 PUSH1 0xA0 DUP3 ADD SWAP1 POP PUSH2 0x4B03 PUSH0 DUP4 ADD DUP9 PUSH2 0x3E2E JUMP JUMPDEST DUP2 DUP2 SUB PUSH1 0x20 DUP4 ADD MSTORE PUSH2 0x4B15 DUP2 DUP8 PUSH2 0x42AE JUMP JUMPDEST SWAP1 POP DUP2 DUP2 SUB PUSH1 0x40 DUP4 ADD MSTORE PUSH2 0x4B29 DUP2 DUP7 PUSH2 0x42AE JUMP JUMPDEST SWAP1 POP PUSH2 0x4B38 PUSH1 0x60 DUP4 ADD DUP6 PUSH2 0x3E2E JUMP JUMPDEST DUP2 DUP2 SUB PUSH1 0x80 DUP4 ADD MSTORE PUSH2 0x4B4A DUP2 DUP5 PUSH2 0x4A7D JUMP JUMPDEST SWAP1 POP SWAP7 SWAP6 POP POP POP POP POP POP JUMP JUMPDEST PUSH0 PUSH1 0x40 DUP3 ADD SWAP1 POP PUSH2 0x4B69 PUSH0 DUP4 ADD DUP6 PUSH2 0x3E2E JUMP JUMPDEST DUP2 DUP2 SUB PUSH1 0x20 DUP4 ADD MSTORE PUSH2 0x4B7B DUP2 DUP5 PUSH2 0x42AE JUMP JUMPDEST SWAP1 POP SWAP4 SWAP3 POP POP POP JUMP JUMPDEST PUSH2 0x4B8D DUP2 PUSH2 0x2E25 JUMP JUMPDEST DUP3 MSTORE POP POP JUMP JUMPDEST PUSH0 PUSH1 0x60 DUP3 ADD SWAP1 POP PUSH2 0x4BA6 PUSH0 DUP4 ADD DUP7 PUSH2 0x3E2E JUMP JUMPDEST PUSH2 0x4BB3 PUSH1 0x20 DUP4 ADD DUP6 PUSH2 0x3E2E JUMP JUMPDEST PUSH2 0x4BC0 PUSH1 0x40 DUP4 ADD DUP5 PUSH2 0x4B84 JUMP JUMPDEST SWAP5 SWAP4 POP POP POP POP JUMP JUMPDEST PUSH2 0x4BD1 DUP2 PUSH2 0x2F63 JUMP JUMPDEST DUP3 MSTORE POP POP JUMP JUMPDEST PUSH0 PUSH1 0x20 DUP3 ADD SWAP1 POP PUSH2 0x4BEA PUSH0 DUP4 ADD DUP5 PUSH2 0x4BC8 JUMP JUMPDEST SWAP3 SWAP2 POP POP JUMP JUMPDEST PUSH0 PUSH8 0xFFFFFFFFFFFFFFFF DUP3 GT ISZERO PUSH2 0x4C0A JUMPI PUSH2 0x4C09 PUSH2 0x2AAB JUMP JUMPDEST JUMPDEST PUSH1 0x20 DUP3 MUL SWAP1 POP PUSH1 0x20 DUP2 ADD SWAP1 POP SWAP2 SWAP1 POP JUMP JUMPDEST PUSH0 PUSH2 0x4C2D PUSH2 0x4C28 DUP5 PUSH2 0x4BF0 JUMP JUMPDEST PUSH2 0x2B09 JUMP JUMPDEST SWAP1 POP DUP1 DUP4 DUP3 MSTORE PUSH1 0x20 DUP3 ADD SWAP1 POP PUSH1 0x20 DUP5 MUL DUP4 ADD DUP6 DUP2 GT ISZERO PUSH2 0x4C50 JUMPI PUSH2 0x4C4F PUSH2 0x2BFA JUMP JUMPDEST JUMPDEST DUP4 JUMPDEST DUP2 DUP2 LT ISZERO PUSH2 0x4C97 JUMPI DUP1 MLOAD PUSH8 0xFFFFFFFFFFFFFFFF DUP2 GT ISZERO PUSH2 0x4C75 JUMPI PUSH2 0x4C74 PUSH2 0x2AA3 JUMP JUMPDEST JUMPDEST DUP1 DUP7 ADD PUSH2 0x4C82 DUP10 DUP3 PUSH2 0x45CD JUMP JUMPDEST DUP6 MSTORE PUSH1 0x20 DUP6 ADD SWAP5 POP POP POP PUSH1 0x20 DUP2 ADD SWAP1 POP PUSH2 0x4C52 JUMP JUMPDEST POP POP POP SWAP4 SWAP3 POP POP POP JUMP JUMPDEST PUSH0 DUP3 PUSH1 0x1F DUP4 ADD SLT PUSH2 0x4CB5 JUMPI PUSH2 0x4CB4 PUSH2 0x2AA3 JUMP JUMPDEST JUMPDEST DUP2 MLOAD PUSH2 0x4CC5 DUP5 DUP3 PUSH1 0x20 DUP7 ADD PUSH2 0x4C1B JUMP JUMPDEST SWAP2 POP POP SWAP3 SWAP2 POP POP JUMP JUMPDEST PUSH0 PUSH1 0x20 DUP3 DUP5 SUB SLT ISZERO PUSH2 0x4CE3 JUMPI PUSH2 0x4CE2 PUSH2 0x262C JUMP JUMPDEST JUMPDEST PUSH0 DUP3 ADD MLOAD PUSH8 0xFFFFFFFFFFFFFFFF DUP2 GT ISZERO PUSH2 0x4D00 JUMPI PUSH2 0x4CFF PUSH2 0x2630 JUMP JUMPDEST JUMPDEST PUSH2 0x4D0C DUP5 DUP3 DUP6 ADD PUSH2 0x4CA1 JUMP JUMPDEST SWAP2 POP POP SWAP3 SWAP2 POP POP JUMP JUMPDEST PUSH0 PUSH1 0x40 DUP3 ADD SWAP1 POP PUSH2 0x4D28 PUSH0 DUP4 ADD DUP6 PUSH2 0x3E2E JUMP JUMPDEST PUSH2 0x4D35 PUSH1 0x20 DUP4 ADD DUP5 PUSH2 0x4BC8 JUMP JUMPDEST SWAP4 SWAP3 POP POP POP JUMP JUMPDEST PUSH0 PUSH8 0xFFFFFFFFFFFFFFFF DUP3 GT ISZERO PUSH2 0x4D56 JUMPI PUSH2 0x4D55 PUSH2 0x2AAB JUMP JUMPDEST JUMPDEST PUSH1 0x20 DUP3 MUL SWAP1 POP PUSH1 0x20 DUP2 ADD SWAP1 POP SWAP2 SWAP1 POP JUMP JUMPDEST PUSH0 PUSH1 0x80 DUP3 DUP5 SUB SLT ISZERO PUSH2 0x4D7C JUMPI PUSH2 0x4D7B PUSH2 0x2BFE JUMP JUMPDEST JUMPDEST PUSH2 0x4D86 PUSH1 0x80 PUSH2 0x2B09 JUMP JUMPDEST SWAP1 POP PUSH0 PUSH2 0x4D95 DUP5 DUP3 DUP6 ADD PUSH2 0x3EB0 JUMP JUMPDEST PUSH0 DUP4 ADD MSTORE POP PUSH1 0x20 DUP3 ADD MLOAD PUSH8 0xFFFFFFFFFFFFFFFF DUP2 GT ISZERO PUSH2 0x4DB8 JUMPI PUSH2 0x4DB7 PUSH2 0x2C02 JUMP JUMPDEST JUMPDEST PUSH2 0x4DC4 DUP5 DUP3 DUP6 ADD PUSH2 0x3F05 JUMP JUMPDEST PUSH1 0x20 DUP4 ADD MSTORE POP PUSH1 0x40 PUSH2 0x4DD8 DUP5 DUP3 DUP6 ADD PUSH2 0x3EB0 JUMP JUMPDEST PUSH1 0x40 DUP4 ADD MSTORE POP PUSH1 0x60 PUSH2 0x4DEC DUP5 DUP3 DUP6 ADD PUSH2 0x3EB0 JUMP JUMPDEST PUSH1 0x60 DUP4 ADD MSTORE POP SWAP3 SWAP2 POP POP JUMP JUMPDEST PUSH0 PUSH2 0x4E0A PUSH2 0x4E05 DUP5 PUSH2 0x4D3C JUMP JUMPDEST PUSH2 0x2B09 JUMP JUMPDEST SWAP1 POP DUP1 DUP4 DUP3 MSTORE PUSH1 0x20 DUP3 ADD SWAP1 POP PUSH1 0x20 DUP5 MUL DUP4 ADD DUP6 DUP2 GT ISZERO PUSH2 0x4E2D JUMPI PUSH2 0x4E2C PUSH2 0x2BFA JUMP JUMPDEST JUMPDEST DUP4 JUMPDEST DUP2 DUP2 LT ISZERO PUSH2 0x4E74 JUMPI DUP1 MLOAD PUSH8 0xFFFFFFFFFFFFFFFF DUP2 GT ISZERO PUSH2 0x4E52 JUMPI PUSH2 0x4E51 PUSH2 0x2AA3 JUMP JUMPDEST JUMPDEST DUP1 DUP7 ADD PUSH2 0x4E5F DUP10 DUP3 PUSH2 0x4D67 JUMP JUMPDEST DUP6 MSTORE PUSH1 0x20 DUP6 ADD SWAP5 POP POP POP PUSH1 0x20 DUP2 ADD SWAP1 POP PUSH2 0x4E2F JUMP JUMPDEST POP POP POP SWAP4 SWAP3 POP POP POP JUMP JUMPDEST PUSH0 DUP3 PUSH1 0x1F DUP4 ADD SLT PUSH2 0x4E92 JUMPI PUSH2 0x4E91 PUSH2 0x2AA3 JUMP JUMPDEST JUMPDEST DUP2 MLOAD PUSH2 0x4EA2 DUP5 DUP3 PUSH1 0x20 DUP7 ADD PUSH2 0x4DF8 JUMP JUMPDEST SWAP2 POP POP SWAP3 SWAP2 POP POP JUMP JUMPDEST PUSH0 PUSH1 0x20 DUP3 DUP5 SUB SLT ISZERO PUSH2 0x4EC0 JUMPI PUSH2 0x4EBF PUSH2 0x262C JUMP JUMPDEST JUMPDEST PUSH0 DUP3 ADD MLOAD PUSH8 0xFFFFFFFFFFFFFFFF DUP2 GT ISZERO PUSH2 0x4EDD JUMPI PUSH2 0x4EDC PUSH2 0x2630 JUMP JUMPDEST JUMPDEST PUSH2 0x4EE9 DUP5 DUP3 DUP6 ADD PUSH2 0x4E7E JUMP JUMPDEST SWAP2 POP POP SWAP3 SWAP2 POP POP JUMP JUMPDEST PUSH0 PUSH1 0xC0 DUP3 ADD SWAP1 POP PUSH2 0x4F05 PUSH0 DUP4 ADD DUP10 PUSH2 0x3E2E JUMP JUMPDEST DUP2 DUP2 SUB PUSH1 0x20 DUP4 ADD MSTORE PUSH2 0x4F17 DUP2 DUP9 PUSH2 0x42AE JUMP JUMPDEST SWAP1 POP DUP2 DUP2 SUB PUSH1 0x40 DUP4 ADD MSTORE PUSH2 0x4F2B DUP2 DUP8 PUSH2 0x42AE JUMP JUMPDEST SWAP1 POP PUSH2 0x4F3A PUSH1 0x60 DUP4 ADD DUP7 PUSH2 0x3E2E JUMP JUMPDEST DUP2 DUP2 SUB PUSH1 0x80 DUP4 ADD MSTORE PUSH2 0x4F4C DUP2 DUP6 PUSH2 0x4A7D JUMP JUMPDEST SWAP1 POP DUP2 DUP2 SUB PUSH1 0xA0 DUP4 ADD MSTORE PUSH2 0x4F60 DUP2 DUP5 PUSH2 0x49CC JUMP JUMPDEST SWAP1 POP SWAP8 SWAP7 POP POP POP POP POP POP POP JUMP JUMPDEST PUSH0 PUSH8 0xFFFFFFFFFFFFFFFF DUP3 GT ISZERO PUSH2 0x4F87 JUMPI PUSH2 0x4F86 PUSH2 0x2AAB JUMP JUMPDEST JUMPDEST PUSH1 0x20 DUP3 MUL SWAP1 POP PUSH1 0x20 DUP2 ADD SWAP1 POP SWAP2 SWAP1 POP JUMP JUMPDEST PUSH0 PUSH1 0x40 DUP3 DUP5 SUB SLT ISZERO PUSH2 0x4FAD JUMPI PUSH2 0x4FAC PUSH2 0x2BFE JUMP JUMPDEST JUMPDEST PUSH2 0x4FB7 PUSH1 0x40 PUSH2 0x2B09 JUMP JUMPDEST SWAP1 POP PUSH0 DUP3 ADD MLOAD PUSH8 0xFFFFFFFFFFFFFFFF DUP2 GT ISZERO PUSH2 0x4FD6 JUMPI PUSH2 0x4FD5 PUSH2 0x2C02 JUMP JUMPDEST JUMPDEST PUSH2 0x4FE2 DUP5 DUP3 DUP6 ADD PUSH2 0x3FE5 JUMP JUMPDEST PUSH0 DUP4 ADD MSTORE POP PUSH1 0x20 DUP3 ADD MLOAD PUSH8 0xFFFFFFFFFFFFFFFF DUP2 GT ISZERO PUSH2 0x5005 JUMPI PUSH2 0x5004 PUSH2 0x2C02 JUMP JUMPDEST JUMPDEST PUSH2 0x5011 DUP5 DUP3 DUP6 ADD PUSH2 0x4E7E JUMP JUMPDEST PUSH1 0x20 DUP4 ADD MSTORE POP SWAP3 SWAP2 POP POP JUMP JUMPDEST PUSH0 PUSH2 0x502F PUSH2 0x502A DUP5 PUSH2 0x4F6D JUMP JUMPDEST PUSH2 0x2B09 JUMP JUMPDEST SWAP1 POP DUP1 DUP4 DUP3 MSTORE PUSH1 0x20 DUP3 ADD SWAP1 POP PUSH1 0x20 DUP5 MUL DUP4 ADD DUP6 DUP2 GT ISZERO PUSH2 0x5052 JUMPI PUSH2 0x5051 PUSH2 0x2BFA JUMP JUMPDEST JUMPDEST DUP4 JUMPDEST DUP2 DUP2 LT ISZERO PUSH2 0x5099 JUMPI DUP1 MLOAD PUSH8 0xFFFFFFFFFFFFFFFF DUP2 GT ISZERO PUSH2 0x5077 JUMPI PUSH2 0x5076 PUSH2 0x2AA3 JUMP JUMPDEST JUMPDEST DUP1 DUP7 ADD PUSH2 0x5084 DUP10 DUP3 PUSH2 0x4F98 JUMP JUMPDEST DUP6 MSTORE PUSH1 0x20 DUP6 ADD SWAP5 POP POP POP PUSH1 0x20 DUP2 ADD SWAP1 POP PUSH2 0x5054 JUMP JUMPDEST POP POP POP SWAP4 SWAP3 POP POP POP JUMP JUMPDEST PUSH0 DUP3 PUSH1 0x1F DUP4 ADD SLT PUSH2 0x50B7 JUMPI PUSH2 0x50B6 PUSH2 0x2AA3 JUMP JUMPDEST JUMPDEST DUP2 MLOAD PUSH2 0x50C7 DUP5 DUP3 PUSH1 0x20 DUP7 ADD PUSH2 0x501D JUMP JUMPDEST SWAP2 POP POP SWAP3 SWAP2 POP POP JUMP JUMPDEST PUSH0 PUSH1 0x20 DUP3 DUP5 SUB SLT ISZERO PUSH2 0x50E5 JUMPI PUSH2 0x50E4 PUSH2 0x262C JUMP JUMPDEST JUMPDEST PUSH0 DUP3 ADD MLOAD PUSH8 0xFFFFFFFFFFFFFFFF DUP2 GT ISZERO PUSH2 0x5102 JUMPI PUSH2 0x5101 PUSH2 0x2630 JUMP JUMPDEST JUMPDEST PUSH2 0x510E DUP5 DUP3 DUP6 ADD PUSH2 0x50A3 JUMP JUMPDEST SWAP2 POP POP SWAP3 SWAP2 POP POP JUMP JUMPDEST PUSH0 PUSH1 0x60 DUP4 ADD PUSH0 DUP4 ADD MLOAD DUP5 DUP3 SUB PUSH0 DUP7 ADD MSTORE PUSH2 0x5131 DUP3 DUP3 PUSH2 0x275E JUMP JUMPDEST SWAP2 POP POP PUSH1 0x20 DUP4 ADD MLOAD PUSH2 0x5146 PUSH1 0x20 DUP7 ADD DUP3 PUSH2 0x2717 JUMP JUMPDEST POP PUSH1 0x40 DUP4 ADD MLOAD PUSH2 0x5159 PUSH1 0x40 DUP7 ADD DUP3 PUSH2 0x2717 JUMP JUMPDEST POP DUP1 SWAP2 POP POP SWAP3 SWAP2 POP POP JUMP JUMPDEST PUSH0 PUSH1 0x60 DUP3 ADD SWAP1 POP PUSH2 0x5177 PUSH0 DUP4 ADD DUP7 PUSH2 0x3E2E JUMP JUMPDEST PUSH2 0x5184 PUSH1 0x20 DUP4 ADD DUP6 PUSH2 0x3E2E JUMP JUMPDEST DUP2 DUP2 SUB PUSH1 0x40 DUP4 ADD MSTORE PUSH2 0x5196 DUP2 DUP5 PUSH2 0x5117 JUMP JUMPDEST SWAP1 POP SWAP5 SWAP4 POP POP POP POP JUMP JUMPDEST PUSH0 PUSH8 0xFFFFFFFFFFFFFFFF DUP3 GT ISZERO PUSH2 0x51BA JUMPI PUSH2 0x51B9 PUSH2 0x2AAB JUMP JUMPDEST JUMPDEST PUSH1 0x20 DUP3 MUL SWAP1 POP PUSH1 0x20 DUP2 ADD SWAP1 POP SWAP2 SWAP1 POP JUMP JUMPDEST PUSH0 PUSH1 0x40 DUP3 DUP5 SUB SLT ISZERO PUSH2 0x51E0 JUMPI PUSH2 0x51DF PUSH2 0x2BFE JUMP JUMPDEST JUMPDEST PUSH2 0x51EA PUSH1 0x40 PUSH2 0x2B09 JUMP JUMPDEST SWAP1 POP PUSH0 PUSH2 0x51F9 DUP5 DUP3 DUP6 ADD PUSH2 0x3EB0 JUMP JUMPDEST PUSH0 DUP4 ADD MSTORE POP PUSH1 0x20 DUP3 ADD MLOAD PUSH8 0xFFFFFFFFFFFFFFFF DUP2 GT ISZERO PUSH2 0x521C JUMPI PUSH2 0x521B PUSH2 0x2C02 JUMP JUMPDEST JUMPDEST PUSH2 0x5228 DUP5 DUP3 DUP6 ADD PUSH2 0x3F05 JUMP JUMPDEST PUSH1 0x20 DUP4 ADD MSTORE POP SWAP3 SWAP2 POP POP JUMP JUMPDEST PUSH0 PUSH2 0x5246 PUSH2 0x5241 DUP5 PUSH2 0x51A0 JUMP JUMPDEST PUSH2 0x2B09 JUMP JUMPDEST SWAP1 POP DUP1 DUP4 DUP3 MSTORE PUSH1 0x20 DUP3 ADD SWAP1 POP PUSH1 0x20 DUP5 MUL DUP4 ADD DUP6 DUP2 GT ISZERO PUSH2 0x5269 JUMPI PUSH2 0x5268 PUSH2 0x2BFA JUMP JUMPDEST JUMPDEST DUP4 JUMPDEST DUP2 DUP2 LT ISZERO PUSH2 0x52B0 JUMPI DUP1 MLOAD PUSH8 0xFFFFFFFFFFFFFFFF DUP2 GT ISZERO PUSH2 0x528E JUMPI PUSH2 0x528D PUSH2 0x2AA3 JUMP JUMPDEST JUMPDEST DUP1 DUP7 ADD PUSH2 0x529B DUP10 DUP3 PUSH2 0x51CB JUMP JUMPDEST DUP6 MSTORE PUSH1 0x20 DUP6 ADD SWAP5 POP POP POP PUSH1 0x20 DUP2 ADD SWAP1 POP PUSH2 0x526B JUMP JUMPDEST POP POP POP SWAP4 SWAP3 POP POP POP JUMP JUMPDEST PUSH0 DUP3 PUSH1 0x1F DUP4 ADD SLT PUSH2 0x52CE JUMPI PUSH2 0x52CD PUSH2 0x2AA3 JUMP JUMPDEST JUMPDEST DUP2 MLOAD PUSH2 0x52DE DUP5 DUP3 PUSH1 0x20 DUP7 ADD PUSH2 0x5234 JUMP JUMPDEST SWAP2 POP POP SWAP3 SWAP2 POP POP JUMP JUMPDEST PUSH0 PUSH1 0x20 DUP3 DUP5 SUB SLT ISZERO PUSH2 0x52FC JUMPI PUSH2 0x52FB PUSH2 0x262C JUMP JUMPDEST JUMPDEST PUSH0 DUP3 ADD MLOAD PUSH8 0xFFFFFFFFFFFFFFFF DUP2 GT ISZERO PUSH2 0x5319 JUMPI PUSH2 0x5318 PUSH2 0x2630 JUMP JUMPDEST JUMPDEST PUSH2 0x5325 DUP5 DUP3 DUP6 ADD PUSH2 0x52BA JUMP JUMPDEST SWAP2 POP POP SWAP3 SWAP2 POP POP JUMP JUMPDEST PUSH0 PUSH1 0x20 DUP3 DUP5 SUB SLT ISZERO PUSH2 0x5343 JUMPI PUSH2 0x5342 PUSH2 0x262C JUMP JUMPDEST JUMPDEST PUSH0 PUSH2 0x5350 DUP5 DUP3 DUP6 ADD PUSH2 0x3EB0 JUMP JUMPDEST SWAP2 POP POP SWAP3 SWAP2 POP POP JUMP JUMPDEST PUSH0 PUSH1 0x20 DUP3 DUP5 SUB SLT ISZERO PUSH2 0x536E JUMPI PUSH2 0x536D PUSH2 0x262C JUMP JUMPDEST JUMPDEST PUSH0 DUP3 ADD MLOAD PUSH8 0xFFFFFFFFFFFFFFFF DUP2 GT ISZERO PUSH2 0x538B JUMPI PUSH2 0x538A PUSH2 0x2630 JUMP JUMPDEST JUMPDEST PUSH2 0x5397 DUP5 DUP3 DUP6 ADD PUSH2 0x51CB JUMP JUMPDEST SWAP2 POP POP SWAP3 SWAP2 POP POP JUMP INVALID LOG2 PUSH5 0x6970667358 0x22 SLT KECCAK256 0xC5 0x25 DUP5 0xB1 ADDMOD EOFCREATE 0x2E PUSH27 0x32345E11F2F6BE8C8B651B971FCC874AD97B7C98F4A1579264736F PUSH13 0x634300081E0033000000000000 "
		},
		"gasEstimates": {
			"creation": {
				"codeDepositCost": "4292400",
				"executionCost": "29218",
				"totalCost": "4321618"
			},
			"external": {
				"addAdmin(address)": "24935",
				"addFoodDetails(uint256,(string,uint256,uint256)[])": "infinite",
				"addTable(uint256,uint256)": "infinite",
				"categoryManager()": "2597",
				"createCategory(uint256,string)": "infinite",
				"createFood(uint256,string,string,uint256,string[],(string,uint256,uint256)[])": "infinite",
				"createOrder(address,uint256,string,string,(uint256,uint256,uint256)[])": "infinite",
				"deleteCategory(uint256)": "infinite",
				"deleteFood(uint256)": "infinite",
				"deleteFoodDetail(uint256,uint256)": "infinite",
				"deleteTable(uint256)": "infinite",
				"editTable(uint256,uint256,uint256)": "infinite",
				"foodManager()": "2554",
				"getAllCategories()": "infinite",
				"getAllFoods()": "infinite",
				"getCategory(uint256)": "infinite",
				"getFood(uint256)": "infinite",
				"getFoodDetails(uint256)": "infinite",
				"getOrdersByStatus(uint8)": "infinite",
				"getOwner()": "2603",
				"getTableById(uint256)": "infinite",
				"getUserOrders(address)": "infinite",
				"isAdmin(address)": "3012",
				"orderManager()": "2640",
				"removeAdmin(address)": "24869",
				"setCategoryManager(address)": "27158",
				"setFoodManager(address)": "27091",
				"setOrderManager(address)": "27157",
				"setTableManager(address)": "27113",
				"tableManager()": "2575",
				"updateCategory(uint256,string)": "infinite",
				"updateFood(uint256,string,string,uint256,string[])": "infinite",
				"updateFoodDetail(uint256,uint256,(string,uint256,uint256))": "infinite",
				"updateOrderItemStatus(uint256,uint256,uint8)": "infinite",
				"updateOrderStatus(uint256,uint8)": "infinite",
				"updateStaffTable(uint256,uint256)": "infinite"
			}
		},
		"methodIdentifiers": {
			"addAdmin(address)": "70480275",
			"addFoodDetails(uint256,(string,uint256,uint256)[])": "64f77471",
			"addTable(uint256,uint256)": "e1f1c48d",
			"categoryManager()": "d86ec238",
			"createCategory(uint256,string)": "f7868a52",
			"createFood(uint256,string,string,uint256,string[],(string,uint256,uint256)[])": "b447aaae",
			"createOrder(address,uint256,string,string,(uint256,uint256,uint256)[])": "5055aa01",
			"deleteCategory(uint256)": "ceca737f",
			"deleteFood(uint256)": "d198b650",
			"deleteFoodDetail(uint256,uint256)": "4d30a39b",
			"deleteTable(uint256)": "e6f318c6",
			"editTable(uint256,uint256,uint256)": "5cfd6607",
			"foodManager()": "439e61fa",
			"getAllCategories()": "dadd0a57",
			"getAllFoods()": "b9b5aae6",
			"getCategory(uint256)": "f3052d26",
			"getFood(uint256)": "1e4de872",
			"getFoodDetails(uint256)": "af5607f9",
			"getOrdersByStatus(uint8)": "8ce2ec79",
			"getOwner()": "893d20e8",
			"getTableById(uint256)": "3844ac5b",
			"getUserOrders(address)": "63c69f08",
			"isAdmin(address)": "24d7806c",
			"orderManager()": "f9b6117f",
			"removeAdmin(address)": "1785f53c",
			"setCategoryManager(address)": "5cdd71df",
			"setFoodManager(address)": "bad1365e",
			"setOrderManager(address)": "c0da840d",
			"setTableManager(address)": "d7102441",
			"tableManager()": "892bb335",
			"updateCategory(uint256,string)": "78697e5b",
			"updateFood(uint256,string,string,uint256,string[])": "6dd2dd88",
			"updateFoodDetail(uint256,uint256,(string,uint256,uint256))": "baf85306",
			"updateOrderItemStatus(uint256,uint256,uint8)": "8a46e8eb",
			"updateOrderStatus(uint256,uint8)": "aab3196d",
			"updateStaffTable(uint256,uint256)": "bea02f62"
		}
	},
	"abi": [
		{
			"inputs": [
				{
					"internalType": "address",
					"name": "_admin",
					"type": "address"
				}
			],
			"name": "addAdmin",
			"outputs": [],
			"stateMutability": "nonpayable",
			"type": "function"
		},
		{
			"inputs": [
				{
					"internalType": "uint256",
					"name": "foodId",
					"type": "uint256"
				},
				{
					"components": [
						{
							"internalType": "string",
							"name": "size",
							"type": "string"
						},
						{
							"internalType": "uint256",
							"name": "quantity",
							"type": "uint256"
						},
						{
							"internalType": "uint256",
							"name": "price",
							"type": "uint256"
						}
					],
					"internalType": "struct UpdateFoodDetail[]",
					"name": "details",
					"type": "tuple[]"
				}
			],
			"name": "addFoodDetails",
			"outputs": [],
			"stateMutability": "nonpayable",
			"type": "function"
		},
		{
			"inputs": [
				{
					"internalType": "uint256",
					"name": "_row",
					"type": "uint256"
				},
				{
					"internalType": "uint256",
					"name": "_col",
					"type": "uint256"
				}
			],
			"name": "addTable",
			"outputs": [
				{
					"internalType": "uint256",
					"name": "",
					"type": "uint256"
				}
			],
			"stateMutability": "nonpayable",
			"type": "function"
		},
		{
			"inputs": [],
			"name": "categoryManager",
			"outputs": [
				{
					"internalType": "address",
					"name": "",
					"type": "address"
				}
			],
			"stateMutability": "view",
			"type": "function"
		},
		{
			"inputs": [
				{
					"internalType": "uint256",
					"name": "categoryId",
					"type": "uint256"
				},
				{
					"internalType": "string",
					"name": "name",
					"type": "string"
				}
			],
			"name": "createCategory",
			"outputs": [],
			"stateMutability": "nonpayable",
			"type": "function"
		},
		{
			"inputs": [
				{
					"internalType": "uint256",
					"name": "foodId",
					"type": "uint256"
				},
				{
					"internalType": "string",
					"name": "name",
					"type": "string"
				},
				{
					"internalType": "string",
					"name": "description",
					"type": "string"
				},
				{
					"internalType": "uint256",
					"name": "categoryId",
					"type": "uint256"
				},
				{
					"internalType": "string[]",
					"name": "imageUrl",
					"type": "string[]"
				},
				{
					"components": [
						{
							"internalType": "string",
							"name": "size",
							"type": "string"
						},
						{
							"internalType": "uint256",
							"name": "quantity",
							"type": "uint256"
						},
						{
							"internalType": "uint256",
							"name": "price",
							"type": "uint256"
						}
					],
					"internalType": "struct UpdateFoodDetail[]",
					"name": "fd",
					"type": "tuple[]"
				}
			],
			"name": "createFood",
			"outputs": [],
			"stateMutability": "nonpayable",
			"type": "function"
		},
		{
			"inputs": [
				{
					"internalType": "address",
					"name": "_user",
					"type": "address"
				},
				{
					"internalType": "uint256",
					"name": "_foodId",
					"type": "uint256"
				},
				{
					"internalType": "string",
					"name": "_userInfo",
					"type": "string"
				},
				{
					"internalType": "string",
					"name": "_note",
					"type": "string"
				},
				{
					"components": [
						{
							"internalType": "uint256",
							"name": "foodId",
							"type": "uint256"
						},
						{
							"internalType": "uint256",
							"name": "foodDetailId",
							"type": "uint256"
						},
						{
							"internalType": "uint256",
							"name": "quantity",
							"type": "uint256"
						}
					],
					"internalType": "struct OrderItemRequest[]",
					"name": "_items",
					"type": "tuple[]"
				}
			],
			"name": "createOrder",
			"outputs": [
				{
					"components": [
						{
							"internalType": "uint256",
							"name": "orderId",
							"type": "uint256"
						},
						{
							"internalType": "address",
							"name": "user",
							"type": "address"
						},
						{
							"internalType": "string",
							"name": "userInfo",
							"type": "string"
						},
						{
							"internalType": "string",
							"name": "note",
							"type": "string"
						},
						{
							"internalType": "string",
							"name": "name",
							"type": "string"
						},
						{
							"internalType": "string",
							"name": "imgage",
							"type": "string"
						},
						{
							"components": [
								{
									"internalType": "uint256",
									"name": "orderItemId",
									"type": "uint256"
								},
								{
									"internalType": "uint256",
									"name": "foodDetailId",
									"type": "uint256"
								},
								{
									"internalType": "uint256",
									"name": "foodId",
									"type": "uint256"
								},
								{
									"internalType": "uint256",
									"name": "quantity",
									"type": "uint256"
								},
								{
									"internalType": "uint256",
									"name": "price",
									"type": "uint256"
								},
								{
									"internalType": "enum OrderItemStatus",
									"name": "status",
									"type": "uint8"
								}
							],
							"internalType": "struct OrderItem[]",
							"name": "items",
							"type": "tuple[]"
						},
						{
							"internalType": "uint256",
							"name": "totalAmount",
							"type": "uint256"
						},
						{
							"internalType": "enum OrderStatus",
							"name": "status",
							"type": "uint8"
						},
						{
							"internalType": "uint256",
							"name": "timestamp",
							"type": "uint256"
						}
					],
					"internalType": "struct Order",
					"name": "",
					"type": "tuple"
				}
			],
			"stateMutability": "nonpayable",
			"type": "function"
		},
		{
			"inputs": [
				{
					"internalType": "uint256",
					"name": "categoryId",
					"type": "uint256"
				}
			],
			"name": "deleteCategory",
			"outputs": [],
			"stateMutability": "nonpayable",
			"type": "function"
		},
		{
			"inputs": [
				{
					"internalType": "uint256",
					"name": "foodId",
					"type": "uint256"
				}
			],
			"name": "deleteFood",
			"outputs": [],
			"stateMutability": "nonpayable",
			"type": "function"
		},
		{
			"inputs": [
				{
					"internalType": "uint256",
					"name": "foodId",
					"type": "uint256"
				},
				{
					"internalType": "uint256",
					"name": "foodDetailId",
					"type": "uint256"
				}
			],
			"name": "deleteFoodDetail",
			"outputs": [],
			"stateMutability": "nonpayable",
			"type": "function"
		},
		{
			"inputs": [
				{
					"internalType": "uint256",
					"name": "_tableId",
					"type": "uint256"
				}
			],
			"name": "deleteTable",
			"outputs": [],
			"stateMutability": "nonpayable",
			"type": "function"
		},
		{
			"inputs": [
				{
					"internalType": "uint256",
					"name": "_tableId",
					"type": "uint256"
				},
				{
					"internalType": "uint256",
					"name": "_row",
					"type": "uint256"
				},
				{
					"internalType": "uint256",
					"name": "_col",
					"type": "uint256"
				}
			],
			"name": "editTable",
			"outputs": [],
			"stateMutability": "nonpayable",
			"type": "function"
		},
		{
			"inputs": [],
			"name": "foodManager",
			"outputs": [
				{
					"internalType": "address",
					"name": "",
					"type": "address"
				}
			],
			"stateMutability": "view",
			"type": "function"
		},
		{
			"inputs": [],
			"name": "getAllCategories",
			"outputs": [
				{
					"components": [
						{
							"internalType": "uint256",
							"name": "categoryId",
							"type": "uint256"
						},
						{
							"internalType": "string",
							"name": "name",
							"type": "string"
						}
					],
					"internalType": "struct Category[]",
					"name": "",
					"type": "tuple[]"
				}
			],
			"stateMutability": "view",
			"type": "function"
		},
		{
			"inputs": [],
			"name": "getAllFoods",
			"outputs": [
				{
					"components": [
						{
							"components": [
								{
									"internalType": "uint256",
									"name": "foodId",
									"type": "uint256"
								},
								{
									"internalType": "string",
									"name": "name",
									"type": "string"
								},
								{
									"internalType": "string",
									"name": "description",
									"type": "string"
								},
								{
									"internalType": "uint256",
									"name": "categoryId",
									"type": "uint256"
								},
								{
									"internalType": "string[]",
									"name": "imageUrl",
									"type": "string[]"
								},
								{
									"internalType": "uint256",
									"name": "sumRating",
									"type": "uint256"
								},
								{
									"internalType": "uint256",
									"name": "countRating",
									"type": "uint256"
								}
							],
							"internalType": "struct Food",
							"name": "food",
							"type": "tuple"
						},
						{
							"components": [
								{
									"internalType": "uint256",
									"name": "foodDetailId",
									"type": "uint256"
								},
								{
									"internalType": "string",
									"name": "size",
									"type": "string"
								},
								{
									"internalType": "uint256",
									"name": "quantity",
									"type": "uint256"
								},
								{
									"internalType": "uint256",
									"name": "price",
									"type": "uint256"
								}
							],
							"internalType": "struct FoodDetail[]",
							"name": "foodDetails",
							"type": "tuple[]"
						}
					],
					"internalType": "struct FoodWithDetails[]",
					"name": "",
					"type": "tuple[]"
				}
			],
			"stateMutability": "view",
			"type": "function"
		},
		{
			"inputs": [
				{
					"internalType": "uint256",
					"name": "categoryId",
					"type": "uint256"
				}
			],
			"name": "getCategory",
			"outputs": [
				{
					"components": [
						{
							"internalType": "uint256",
							"name": "categoryId",
							"type": "uint256"
						},
						{
							"internalType": "string",
							"name": "name",
							"type": "string"
						}
					],
					"internalType": "struct Category",
					"name": "",
					"type": "tuple"
				}
			],
			"stateMutability": "view",
			"type": "function"
		},
		{
			"inputs": [
				{
					"internalType": "uint256",
					"name": "foodId",
					"type": "uint256"
				}
			],
			"name": "getFood",
			"outputs": [
				{
					"components": [
						{
							"internalType": "uint256",
							"name": "foodId",
							"type": "uint256"
						},
						{
							"internalType": "string",
							"name": "name",
							"type": "string"
						},
						{
							"internalType": "string",
							"name": "description",
							"type": "string"
						},
						{
							"internalType": "uint256",
							"name": "categoryId",
							"type": "uint256"
						},
						{
							"internalType": "string[]",
							"name": "imageUrl",
							"type": "string[]"
						},
						{
							"internalType": "uint256",
							"name": "sumRating",
							"type": "uint256"
						},
						{
							"internalType": "uint256",
							"name": "countRating",
							"type": "uint256"
						}
					],
					"internalType": "struct Food",
					"name": "",
					"type": "tuple"
				}
			],
			"stateMutability": "view",
			"type": "function"
		},
		{
			"inputs": [
				{
					"internalType": "uint256",
					"name": "foodId",
					"type": "uint256"
				}
			],
			"name": "getFoodDetails",
			"outputs": [
				{
					"components": [
						{
							"internalType": "uint256",
							"name": "foodDetailId",
							"type": "uint256"
						},
						{
							"internalType": "string",
							"name": "size",
							"type": "string"
						},
						{
							"internalType": "uint256",
							"name": "quantity",
							"type": "uint256"
						},
						{
							"internalType": "uint256",
							"name": "price",
							"type": "uint256"
						}
					],
					"internalType": "struct FoodDetail[]",
					"name": "",
					"type": "tuple[]"
				}
			],
			"stateMutability": "view",
			"type": "function"
		},
		{
			"inputs": [
				{
					"internalType": "enum OrderStatus",
					"name": "_status",
					"type": "uint8"
				}
			],
			"name": "getOrdersByStatus",
			"outputs": [
				{
					"components": [
						{
							"internalType": "uint256",
							"name": "orderId",
							"type": "uint256"
						},
						{
							"internalType": "address",
							"name": "user",
							"type": "address"
						},
						{
							"internalType": "string",
							"name": "userInfo",
							"type": "string"
						},
						{
							"internalType": "string",
							"name": "note",
							"type": "string"
						},
						{
							"internalType": "string",
							"name": "name",
							"type": "string"
						},
						{
							"internalType": "string",
							"name": "imgage",
							"type": "string"
						},
						{
							"components": [
								{
									"internalType": "uint256",
									"name": "orderItemId",
									"type": "uint256"
								},
								{
									"internalType": "uint256",
									"name": "foodDetailId",
									"type": "uint256"
								},
								{
									"internalType": "uint256",
									"name": "foodId",
									"type": "uint256"
								},
								{
									"internalType": "uint256",
									"name": "quantity",
									"type": "uint256"
								},
								{
									"internalType": "uint256",
									"name": "price",
									"type": "uint256"
								},
								{
									"internalType": "enum OrderItemStatus",
									"name": "status",
									"type": "uint8"
								}
							],
							"internalType": "struct OrderItem[]",
							"name": "items",
							"type": "tuple[]"
						},
						{
							"internalType": "uint256",
							"name": "totalAmount",
							"type": "uint256"
						},
						{
							"internalType": "enum OrderStatus",
							"name": "status",
							"type": "uint8"
						},
						{
							"internalType": "uint256",
							"name": "timestamp",
							"type": "uint256"
						}
					],
					"internalType": "struct Order[]",
					"name": "",
					"type": "tuple[]"
				}
			],
			"stateMutability": "view",
			"type": "function"
		},
		{
			"inputs": [],
			"name": "getOwner",
			"outputs": [
				{
					"internalType": "address",
					"name": "",
					"type": "address"
				}
			],
			"stateMutability": "view",
			"type": "function"
		},
		{
			"inputs": [
				{
					"internalType": "uint256",
					"name": "_tableId",
					"type": "uint256"
				}
			],
			"name": "getTableById",
			"outputs": [
				{
					"components": [
						{
							"internalType": "uint256",
							"name": "tableId",
							"type": "uint256"
						},
						{
							"internalType": "uint256",
							"name": "row",
							"type": "uint256"
						},
						{
							"internalType": "uint256",
							"name": "col",
							"type": "uint256"
						},
						{
							"internalType": "uint256",
							"name": "staffId",
							"type": "uint256"
						},
						{
							"internalType": "bool",
							"name": "isReserved",
							"type": "bool"
						}
					],
					"internalType": "struct ITableManager.Table",
					"name": "",
					"type": "tuple"
				}
			],
			"stateMutability": "view",
			"type": "function"
		},
		{
			"inputs": [
				{
					"internalType": "address",
					"name": "_user",
					"type": "address"
				}
			],
			"name": "getUserOrders",
			"outputs": [
				{
					"internalType": "uint256[]",
					"name": "",
					"type": "uint256[]"
				}
			],
			"stateMutability": "view",
			"type": "function"
		},
		{
			"inputs": [
				{
					"internalType": "address",
					"name": "",
					"type": "address"
				}
			],
			"name": "isAdmin",
			"outputs": [
				{
					"internalType": "enum RoleAccess.Role",
					"name": "",
					"type": "uint8"
				}
			],
			"stateMutability": "view",
			"type": "function"
		},
		{
			"inputs": [],
			"name": "orderManager",
			"outputs": [
				{
					"internalType": "address",
					"name": "",
					"type": "address"
				}
			],
			"stateMutability": "view",
			"type": "function"
		},
		{
			"inputs": [
				{
					"internalType": "address",
					"name": "_admin",
					"type": "address"
				}
			],
			"name": "removeAdmin",
			"outputs": [],
			"stateMutability": "nonpayable",
			"type": "function"
		},
		{
			"inputs": [
				{
					"internalType": "address",
					"name": "_categoryManager",
					"type": "address"
				}
			],
			"name": "setCategoryManager",
			"outputs": [],
			"stateMutability": "nonpayable",
			"type": "function"
		},
		{
			"inputs": [
				{
					"internalType": "address",
					"name": "_foodManager",
					"type": "address"
				}
			],
			"name": "setFoodManager",
			"outputs": [],
			"stateMutability": "nonpayable",
			"type": "function"
		},
		{
			"inputs": [
				{
					"internalType": "address",
					"name": "_orderManager",
					"type": "address"
				}
			],
			"name": "setOrderManager",
			"outputs": [],
			"stateMutability": "nonpayable",
			"type": "function"
		},
		{
			"inputs": [
				{
					"internalType": "address",
					"name": "_tableManager",
					"type": "address"
				}
			],
			"name": "setTableManager",
			"outputs": [],
			"stateMutability": "nonpayable",
			"type": "function"
		},
		{
			"inputs": [],
			"name": "tableManager",
			"outputs": [
				{
					"internalType": "address",
					"name": "",
					"type": "address"
				}
			],
			"stateMutability": "view",
			"type": "function"
		},
		{
			"inputs": [
				{
					"internalType": "uint256",
					"name": "categoryId",
					"type": "uint256"
				},
				{
					"internalType": "string",
					"name": "newName",
					"type": "string"
				}
			],
			"name": "updateCategory",
			"outputs": [],
			"stateMutability": "nonpayable",
			"type": "function"
		},
		{
			"inputs": [
				{
					"internalType": "uint256",
					"name": "foodId",
					"type": "uint256"
				},
				{
					"internalType": "string",
					"name": "name",
					"type": "string"
				},
				{
					"internalType": "string",
					"name": "description",
					"type": "string"
				},
				{
					"internalType": "uint256",
					"name": "categoryId",
					"type": "uint256"
				},
				{
					"internalType": "string[]",
					"name": "imageUrl",
					"type": "string[]"
				}
			],
			"name": "updateFood",
			"outputs": [],
			"stateMutability": "nonpayable",
			"type": "function"
		},
		{
			"inputs": [
				{
					"internalType": "uint256",
					"name": "foodId",
					"type": "uint256"
				},
				{
					"internalType": "uint256",
					"name": "foodDetailId",
					"type": "uint256"
				},
				{
					"components": [
						{
							"internalType": "string",
							"name": "size",
							"type": "string"
						},
						{
							"internalType": "uint256",
							"name": "quantity",
							"type": "uint256"
						},
						{
							"internalType": "uint256",
							"name": "price",
							"type": "uint256"
						}
					],
					"internalType": "struct UpdateFoodDetail",
					"name": "newDetail",
					"type": "tuple"
				}
			],
			"name": "updateFoodDetail",
			"outputs": [],
			"stateMutability": "nonpayable",
			"type": "function"
		},
		{
			"inputs": [
				{
					"internalType": "uint256",
					"name": "_orderId",
					"type": "uint256"
				},
				{
					"internalType": "uint256",
					"name": "_orderItemId",
					"type": "uint256"
				},
				{
					"internalType": "enum OrderItemStatus",
					"name": "_newStatus",
					"type": "uint8"
				}
			],
			"name": "updateOrderItemStatus",
			"outputs": [],
			"stateMutability": "nonpayable",
			"type": "function"
		},
		{
			"inputs": [
				{
					"internalType": "uint256",
					"name": "_orderId",
					"type": "uint256"
				},
				{
					"internalType": "enum OrderStatus",
					"name": "_status",
					"type": "uint8"
				}
			],
			"name": "updateOrderStatus",
			"outputs": [],
			"stateMutability": "nonpayable",
			"type": "function"
		},
		{
			"inputs": [
				{
					"internalType": "uint256",
					"name": "_tableId",
					"type": "uint256"
				},
				{
					"internalType": "uint256",
					"name": "_staffId",
					"type": "uint256"
				}
			],
			"name": "updateStaffTable",
			"outputs": [],
			"stateMutability": "nonpayable",
			"type": "function"
		}
	]
}