{
	"data": {
		"bytecode": {
			"linkReferences": {},
			"object": "6080604052348015600e575f5ffd5b506040516156cf3803806156cf833981016040819052602b91604e565b5f80546001600160a01b0319166001600160a01b03929092169190911790556079565b5f60208284031215605d575f5ffd5b81516001600160a01b03811681146072575f5ffd5b9392505050565b615649806100865f395ff3fe608060405234801561000f575f5ffd5b50600436106103b4575f3560e01c806395ebcb24116101f5578063d198b65011610114578063ea0f24e9116100a9578063f7868a5211610079578063f7868a5214610897578063f9b6117f146108aa578063fb25d32f146108bd578063fcd3223c146108de575f5ffd5b8063ea0f24e914610831578063f3052d2614610844578063f44a858314610864578063f6b829a014610884575f5ffd5b8063dcad55c0116100e4578063dcad55c0146107e3578063ddd79504146107f6578063e21ba8c614610816578063e6f318c61461081e575f5ffd5b8063d198b65014610795578063d50a9e46146107a8578063d86ec238146107bb578063dadd0a57146107ce575f5ffd5b8063b2fdfe051161018a578063bad1365e1161015a578063bad1365e14610754578063baf8530614610767578063cb0769b01461077a578063ceca737f14610782575f5ffd5b8063b2fdfe05146106f9578063b447aaae14610719578063b4afd52c1461072c578063b9b5aae61461073f575f5ffd5b8063aab3196d116101c5578063aab3196d146106a0578063abf5e836146106b3578063af5607f9146106c6578063b1587606146106e6575f5ffd5b806395ebcb241461065457806397d2b92a14610667578063997ed85c1461067a578063a7866ea61461068d575f5ffd5b80635775cda4116102e157806375bd560111610276578063893d20e811610246578063893d20e8146105f95780638a46e8eb146106015780638c9da843146106145780638ce2ec7914610634575f5ffd5b806375bd5601146105ad5780637668206d146105c057806378697e5b146105d3578063892bb335146105e6575f5ffd5b806363c69f08116102b157806363c69f081461055457806364f77471146105745780636595171c146105875780636dd2dd881461059a575f5ffd5b80635775cda4146105085780635be5fd391461051b5780635cfd66071461052e57806361ce7f7814610541575f5ffd5b8063330933cf11610357578063439e61fa11610327578063439e61fa146104c957806343ae37c3146104dc5780634cdebc39146104e25780634d30a39b146104f5575f5ffd5b8063330933cf14610471578063360d5b9e146104845780633844ac5b1461049757806342f54b89146104b7575f5ffd5b80630e622b91116103925780630e622b9114610416578063182115031461042b5780631e4de8721461043e5780632cf4a54d1461045e575f5ffd5b8063037c73c2146103b857806305207db2146103d657806309ca221f146103eb575b5f5ffd5b6103c06108f1565b6040516103cd9190612f25565b60405180910390f35b6103e96103e4366004612f95565b610965565b005b6006546103fe906001600160a01b031681565b6040516001600160a01b0390911681526020016103cd565b61041e610a5f565b6040516103cd9190613016565b6103e96104393660046130bf565b610acd565b61045161044c366004613119565b610b36565b6040516103cd9190613231565b6007546103fe906001600160a01b031681565b6103e961047f366004613257565b610bfa565b6005546103fe906001600160a01b031681565b6104aa6104a5366004613119565b610ccd565b6040516103cd9190613272565b5f546103fe906001600160a01b031681565b6001546103fe906001600160a01b031681565b336103fe565b6103e96104f0366004613284565b610d42565b6103e96105033660046132b0565b610e5d565b6103e9610516366004613284565b610f20565b6103e96105293660046132d0565b61106a565b6103e961053c36600461337e565b611167565b6103e961054f3660046133a7565b61125f565b610567610562366004613257565b61129f565b6040516103cd91906133dd565b6103e96105823660046136b3565b611313565b6103e9610595366004613257565b6113d0565b6103e96105a8366004613774565b611434565b6103e96105bb366004613812565b61152b565b6103e96105ce366004613257565b6115a5565b6103e96105e136600461389f565b6115dd565b6003546103fe906001600160a01b031681565b6103fe6116c2565b6103e961060f3660046138e4565b611736565b61062761062236600461390f565b61186b565b6040516103cd9190613bf1565b610647610642366004613c0f565b6118f9565b6040516103cd9190613c2a565b6103e96106623660046132b0565b611a73565b6103e9610675366004613119565b611b36565b6103e9610688366004613284565b611b67565b6103e961069b366004613c81565b611c81565b6103e96106ae366004613d09565b611cf0565b6103e96106c1366004613d2c565b611d21565b6106d96106d4366004613119565b611de5565b6040516103cd9190613ddd565b6103e96106f4366004613284565b611e53565b61070c610707366004613257565b611f6d565b6040516103cd9190613def565b6103e9610727366004613eb2565b611fdc565b6103e961073a366004613f84565b6120a1565b6107476121d5565b6040516103cd9190613fa7565b6103e9610762366004613257565b612243565b6103e9610775366004614025565b612316565b6107476123d5565b6103e9610790366004613119565b61241c565b6103e96107a3366004613119565b612500565b6103e96107b6366004614070565b6125bc565b6002546103fe906001600160a01b031681565b6107d66125f2565b6040516103cd91906140eb565b6103e96107f13660046132d0565b612693565b610809610804366004613257565b61275a565b6040516103cd9190614142565b6106d96127d0565b6103e961082c366004613119565b61283f565b6103e961083f366004613257565b6128fb565b610857610852366004613119565b6129ce565b6040516103cd9190614154565b610877610872366004613119565b612a77565b6040516103cd9190614166565b6103e96108923660046130bf565b612ae5565b6103e96108a536600461389f565b612b1b565b6004546103fe906001600160a01b031681565b6108d06108cb366004614221565b612c00565b6040519081526020016103cd565b6103e96108ec366004613119565b612d0b565b600554604080516301be39e160e11b815290516060926001600160a01b03169163037c73c2916004808301925f929190829003018183875af1158015610939573d5f5f3e3d5ffd5b505050506040513d5f823e601f3d908101601f191682016040526109609190810190614393565b905090565b5f80546040516395a8c58d60e01b81526001600160a01b03909116916395a8c58d91610995913391600401614442565b602060405180830381865afa1580156109b0573d5f5f3e3d5ffd5b505050506040513d601f19601f820116820180604052508101906109d49190614473565b6109f95760405162461bcd60e51b81526004016109f09061448e565b60405180910390fd5b6001546040516302903ed960e11b81526004810184905282151560248201526001600160a01b03909116906305207db2906044015b5f604051808303815f87803b158015610a45575f5ffd5b505af1158015610a57573d5f5f3e3d5ffd5b505050505050565b60035460408051630e622b9160e01b815290516060926001600160a01b031691630e622b91916004808301925f9291908290030181865afa158015610aa6573d5f5f3e3d5ffd5b505050506040513d5f823e601f3d908101601f191682016040526109609190810190614548565b600654604051631821150360e01b81526001600160a01b0390911690631821150390610b03908790879087908790600401614614565b5f604051808303815f87803b158015610b1a575f5ffd5b505af1158015610b2c573d5f5f3e3d5ffd5b5050505050505050565b610b876040518061014001604052805f815260200160608152602001606081526020015f8152602001606081526020015f81526020015f81526020015f81526020015f81526020015f151581525090565b600154604051630f26f43960e11b8152600481018490526001600160a01b0390911690631e4de872906024015f60405180830381865afa158015610bcd573d5f5f3e3d5ffd5b505050506040513d5f823e601f3d908101601f19168201604052610bf491908101906147a9565b92915050565b5f80546040516395a8c58d60e01b81526001600160a01b03909116916395a8c58d91610c2a913391600401614442565b602060405180830381865afa158015610c45573d5f5f3e3d5ffd5b505050506040513d601f19601f82011682018060405250810190610c699190614473565b610c855760405162461bcd60e51b81526004016109f09061448e565b6001600160a01b038116610cab5760405162461bcd60e51b81526004016109f0906147da565b600280546001600160a01b0319166001600160a01b0392909216919091179055565b610cd5612d3c565b600354604051633844ac5b60e01b8152600481018490526001600160a01b0390911690633844ac5b906024015f60405180830381865afa158015610d1b573d5f5f3e3d5ffd5b505050506040513d5f823e601f3d908101601f19168201604052610bf49190810190614803565b5f80546040516395a8c58d60e01b81526001600160a01b03909116916395a8c58d91610d72913391600401614442565b602060405180830381865afa158015610d8d573d5f5f3e3d5ffd5b505050506040513d601f19601f82011682018060405250810190610db19190614473565b610dcd5760405162461bcd60e51b81526004016109f09061448e565b6001600160a01b038216610df35760405162461bcd60e51b81526004016109f0906147da565b6001600160a01b038116610e195760405162461bcd60e51b81526004016109f0906147da565b600480546001600160a01b0319166001600160a01b03848116918217835560405163ea0f24e960e01b8152908416928101929092529063ea0f24e990602401610a2e565b5f80546040516395a8c58d60e01b81526001600160a01b03909116916395a8c58d91610e8d913391600401614442565b602060405180830381865afa158015610ea8573d5f5f3e3d5ffd5b505050506040513d601f19601f82011682018060405250810190610ecc9190614473565b610ee85760405162461bcd60e51b81526004016109f09061448e565b600154604051634d30a39b60e01b815260048101849052602481018390526001600160a01b0390911690634d30a39b90604401610a2e565b5f80546040516395a8c58d60e01b81526001600160a01b03909116916395a8c58d91610f50913391600401614442565b602060405180830381865afa158015610f6b573d5f5f3e3d5ffd5b505050506040513d601f19601f82011682018060405250810190610f8f9190614473565b610fab5760405162461bcd60e51b81526004016109f09061448e565b6001600160a01b0382166110015760405162461bcd60e51b815260206004820152601960248201527f466f6f64526174696e674d616e61676572206e6f74207365740000000000000060448201526064016109f0565b6001600160a01b0382166110275760405162461bcd60e51b81526004016109f0906147da565b600780546001600160a01b0319166001600160a01b03848116918217909255604051635d689b2f60e11b815291831660048301529063bad1365e90602401610a2e565b5f80546040516395a8c58d60e01b81526001600160a01b03909116916395a8c58d9161109a913391600401614442565b602060405180830381865afa1580156110b5573d5f5f3e3d5ffd5b505050506040513d601f19601f820116820180604052508101906110d99190614473565b6110f55760405162461bcd60e51b81526004016109f09061448e565b600554604051635be5fd3960e01b81526001600160a01b0390911690635be5fd3990611131908a908a908a908a908a908a908a90600401614834565b5f604051808303815f87803b158015611148575f5ffd5b505af115801561115a573d5f5f3e3d5ffd5b5050505050505050505050565b5f80546040516395a8c58d60e01b81526001600160a01b03909116916395a8c58d91611197913391600401614442565b602060405180830381865afa1580156111b2573d5f5f3e3d5ffd5b505050506040513d601f19601f820116820180604052508101906111d69190614473565b6111f25760405162461bcd60e51b81526004016109f09061448e565b600354604051635cfd660760e01b81526004810185905260248101849052604481018390526001600160a01b0390911690635cfd6607906064015b5f604051808303815f87803b158015611244575f5ffd5b505af1158015611256573d5f5f3e3d5ffd5b50505050505050565b600154604051630c39cfef60e31b8152600481018590526024810184905282151560448201526001600160a01b03909116906361ce7f789060640161122d565b60048054604051630c78d3e160e31b81526001600160a01b0384811693820193909352606092909116906363c69f08906024015f60405180830381865afa1580156112ec573d5f5f3e3d5ffd5b505050506040513d5f823e601f3d908101601f19168201604052610bf4919081019061488e565b5f80546040516395a8c58d60e01b81526001600160a01b03909116916395a8c58d91611343913391600401614442565b602060405180830381865afa15801561135e573d5f5f3e3d5ffd5b505050506040513d601f19601f820116820180604052508101906113829190614473565b61139e5760405162461bcd60e51b81526004016109f09061448e565b6001546040516364f7747160e01b81526001600160a01b03909116906364f7747190610a2e90859085906004016149a0565b5f54604051632e3036c760e01b81526001600160a01b0383811660048301526001602483015290911690632e3036c7906044015b5f604051808303815f87803b15801561141b575f5ffd5b505af115801561142d573d5f5f3e3d5ffd5b5050505050565b5f80546040516395a8c58d60e01b81526001600160a01b03909116916395a8c58d91611464913391600401614442565b602060405180830381865afa15801561147f573d5f5f3e3d5ffd5b505050506040513d601f19601f820116820180604052508101906114a39190614473565b6114bf5760405162461bcd60e51b81526004016109f09061448e565b600154604051630dba5bb160e31b81526001600160a01b0390911690636dd2dd88906114f790889088908890889088906004016149b8565b5f604051808303815f87803b15801561150e575f5ffd5b505af1158015611520573d5f5f3e3d5ffd5b505050505050505050565b6007546040516375bd560160e01b81526001600160a01b03909116906375bd56019061156590899089908990899089908990600401614a08565b6020604051808303815f875af1158015611581573d5f5f3e3d5ffd5b505050506040513d601f19601f820116820180604052508101906112569190614a50565b5f54604051632e3036c760e01b81526001600160a01b0383811660048301526002602483015290911690632e3036c790604401611404565b5f80546040516395a8c58d60e01b81526001600160a01b03909116916395a8c58d9161160d913391600401614442565b602060405180830381865afa158015611628573d5f5f3e3d5ffd5b505050506040513d601f19601f8201168201806040525081019061164c9190614473565b6116685760405162461bcd60e51b81526004016109f09061448e565b6002546001600160a01b03166116905760405162461bcd60e51b81526004016109f090614a67565b6002546040516378697e5b60e01b81526001600160a01b03909116906378697e5b90610a2e9085908590600401614a9e565b5f5f5f9054906101000a90046001600160a01b03166001600160a01b031663893d20e86040518163ffffffff1660e01b8152600401602060405180830381865afa158015611712573d5f5f3e3d5ffd5b505050506040513d601f19601f820116820180604052508101906109609190614ab6565b5f80546040516395a8c58d60e01b81526001600160a01b03909116916395a8c58d91611766913391600401614442565b602060405180830381865afa158015611781573d5f5f3e3d5ffd5b505050506040513d601f19601f820116820180604052508101906117a59190614473565b8061181c57505f546040516395a8c58d60e01b81526001600160a01b03909116906395a8c58d906117dd903390600190600401614442565b602060405180830381865afa1580156117f8573d5f5f3e3d5ffd5b505050506040513d601f19601f8201168201806040525081019061181c9190614473565b6118385760405162461bcd60e51b81526004016109f090614ad1565b60048054604051638a46e8eb60e01b81526001600160a01b0390911691638a46e8eb9161122d9187918791879101614afd565b611873612d77565b60048054604051638c9da84360e01b81526001600160a01b0390911691638c9da843916118ac918b918b918b918b918b918b9101614b18565b5f604051808303815f875af11580156118c7573d5f5f3e3d5ffd5b505050506040513d5f823e601f3d908101601f191682016040526118ee9190810190614dd1565b979650505050505050565b5f80546040516395a8c58d60e01b81526060926001600160a01b03909216916395a8c58d9161192c913391600401614442565b602060405180830381865afa158015611947573d5f5f3e3d5ffd5b505050506040513d601f19601f8201168201806040525081019061196b9190614473565b806119e257505f546040516395a8c58d60e01b81526001600160a01b03909116906395a8c58d906119a3903390600190600401614442565b602060405180830381865afa1580156119be573d5f5f3e3d5ffd5b505050506040513d601f19601f820116820180604052508101906119e29190614473565b6119fe5760405162461bcd60e51b81526004016109f090614ad1565b60048054604051638ce2ec7960e01b81526001600160a01b0390911691638ce2ec7991611a2d91869101614e02565b5f60405180830381865afa158015611a47573d5f5f3e3d5ffd5b505050506040513d5f823e601f3d908101601f19168201604052610bf49190810190614e10565b919050565b5f80546040516395a8c58d60e01b81526001600160a01b03909116916395a8c58d91611aa3913391600401614442565b602060405180830381865afa158015611abe573d5f5f3e3d5ffd5b505050506040513d601f19601f82011682018060405250810190611ae29190614473565b611afe5760405162461bcd60e51b81526004016109f09061448e565b60035460405163257af2c960e21b815260048101849052602481018390526001600160a01b03909116906395ebcb2490604401610a2e565b600754604051634be95c9560e11b8152600481018390526001600160a01b03909116906397d2b92a90602401611404565b5f80546040516395a8c58d60e01b81526001600160a01b03909116916395a8c58d91611b97913391600401614442565b602060405180830381865afa158015611bb2573d5f5f3e3d5ffd5b505050506040513d601f19601f82011682018060405250810190611bd69190614473565b611bf25760405162461bcd60e51b81526004016109f09061448e565b6001600160a01b038216611c185760405162461bcd60e51b81526004016109f0906147da565b6001600160a01b038116611c3e5760405162461bcd60e51b81526004016109f0906147da565b600380546001600160a01b0319166001600160a01b0384811691821790925560405163c0da840d60e01b815291831660048301529063c0da840d90602401610a2e565b6006546040516353c3375360e11b81526001600160a01b039091169063a7866ea690611cbb90899089908990899089908990600401614eb4565b5f604051808303815f87803b158015611cd2575f5ffd5b505af1158015611ce4573d5f5f3e3d5ffd5b50505050505050505050565b6004805460405163aab3196d60e01b81526001600160a01b039091169163aab3196d91610a2e918691869101614eed565b5f80546040516395a8c58d60e01b81526001600160a01b03909116916395a8c58d91611d51913391600401614442565b602060405180830381865afa158015611d6c573d5f5f3e3d5ffd5b505050506040513d601f19601f82011682018060405250810190611d909190614473565b611dac5760405162461bcd60e51b81526004016109f09061448e565b6005546040516355faf41b60e11b8152600481018490526001600160a01b0383811660248301529091169063abf5e83690604401610a2e565b60015460405163af5607f960e01b8152600481018390526060916001600160a01b03169063af5607f9906024015f60405180830381865afa158015611e2c573d5f5f3e3d5ffd5b505050506040513d5f823e601f3d908101601f19168201604052610bf49190810190614ff9565b5f80546040516395a8c58d60e01b81526001600160a01b03909116916395a8c58d91611e83913391600401614442565b602060405180830381865afa158015611e9e573d5f5f3e3d5ffd5b505050506040513d601f19601f82011682018060405250810190611ec29190614473565b611ede5760405162461bcd60e51b81526004016109f09061448e565b6001600160a01b038116611f045760405162461bcd60e51b81526004016109f0906147da565b6001600160a01b038216611f2a5760405162461bcd60e51b81526004016109f0906147da565b600680546001600160a01b0319166001600160a01b0384811691821790925560405163ea0f24e960e01b815291831660048301529063ea0f24e990602401610a2e565b60065460405163b2fdfe0560e01b81526001600160a01b038381166004830152606092169063b2fdfe05906024015f60405180830381865afa158015611fb5573d5f5f3e3d5ffd5b505050506040513d5f823e601f3d908101601f19168201604052610bf49190810190615035565b5f80546040516395a8c58d60e01b81526001600160a01b03909116916395a8c58d9161200c913391600401614442565b602060405180830381865afa158015612027573d5f5f3e3d5ffd5b505050506040513d601f19601f8201168201806040525081019061204b9190614473565b6120675760405162461bcd60e51b81526004016109f09061448e565b600154604051635a23d55760e11b81526001600160a01b039091169063b447aaae90611cbb90899089908990899089908990600401615186565b5f80546040516395a8c58d60e01b81526001600160a01b03909116916395a8c58d916120d1913391600401614442565b602060405180830381865afa1580156120ec573d5f5f3e3d5ffd5b505050506040513d601f19601f820116820180604052508101906121109190614473565b8061218757505f546040516395a8c58d60e01b81526001600160a01b03909116906395a8c58d90612148903390600190600401614442565b602060405180830381865afa158015612163573d5f5f3e3d5ffd5b505050506040513d601f19601f820116820180604052508101906121879190614473565b6121a35760405162461bcd60e51b81526004016109f090614ad1565b600354604051632d2bf54b60e21b81526001600160a01b039091169063b4afd52c90610a2e90859085906004016151eb565b60015460408051635cdad57360e11b815290516060926001600160a01b03169163b9b5aae6916004808301925f9291908290030181865afa15801561221c573d5f5f3e3d5ffd5b505050506040513d5f823e601f3d908101601f1916820160405261096091908101906151fb565b5f80546040516395a8c58d60e01b81526001600160a01b03909116916395a8c58d91612273913391600401614442565b602060405180830381865afa15801561228e573d5f5f3e3d5ffd5b505050506040513d601f19601f820116820180604052508101906122b29190614473565b6122ce5760405162461bcd60e51b81526004016109f09061448e565b6001600160a01b0381166122f45760405162461bcd60e51b81526004016109f0906147da565b600180546001600160a01b0319166001600160a01b0392909216919091179055565b5f80546040516395a8c58d60e01b81526001600160a01b03909116916395a8c58d91612346913391600401614442565b602060405180830381865afa158015612361573d5f5f3e3d5ffd5b505050506040513d601f19601f820116820180604052508101906123859190614473565b6123a15760405162461bcd60e51b81526004016109f09061448e565b600154604051635d7c298360e11b81526001600160a01b039091169063baf853069061122d9086908690869060040161530b565b60015460408051630cb0769b60e41b815290516060926001600160a01b03169163cb0769b0916004808301925f9291908290030181865afa15801561221c573d5f5f3e3d5ffd5b5f80546040516395a8c58d60e01b81526001600160a01b03909116916395a8c58d9161244c913391600401614442565b602060405180830381865afa158015612467573d5f5f3e3d5ffd5b505050506040513d601f19601f8201168201806040525081019061248b9190614473565b6124a75760405162461bcd60e51b81526004016109f09061448e565b6002546001600160a01b03166124cf5760405162461bcd60e51b81526004016109f090614a67565b60025460405163ceca737f60e01b8152600481018390526001600160a01b039091169063ceca737f90602401611404565b5f80546040516395a8c58d60e01b81526001600160a01b03909116916395a8c58d91612530913391600401614442565b602060405180830381865afa15801561254b573d5f5f3e3d5ffd5b505050506040513d601f19601f8201168201806040525081019061256f9190614473565b61258b5760405162461bcd60e51b81526004016109f09061448e565b600154604051630d198b6560e41b8152600481018390526001600160a01b039091169063d198b65090602401611404565b600354604051636a854f2360e11b81526001600160a01b039091169063d50a9e4690610b03908790879087908790600401615332565b6002546060906001600160a01b031661261d5760405162461bcd60e51b81526004016109f090614a67565b60025f9054906101000a90046001600160a01b03166001600160a01b031663dadd0a576040518163ffffffff1660e01b81526004015f60405180830381865afa15801561266c573d5f5f3e3d5ffd5b505050506040513d5f823e601f3d908101601f1916820160405261096091908101906153a5565b5f80546040516395a8c58d60e01b81526001600160a01b03909116916395a8c58d916126c3913391600401614442565b602060405180830381865afa1580156126de573d5f5f3e3d5ffd5b505050506040513d601f19601f820116820180604052508101906127029190614473565b61271e5760405162461bcd60e51b81526004016109f09061448e565b600554604051630372b55760e61b81526001600160a01b039091169063dcad55c090611131908a908a908a908a908a908a908a90600401614834565b612762612df4565b600554604051633775e54160e21b81526001600160a01b0384811660048301529091169063ddd79504906024015f60405180830381865afa1580156127a9573d5f5f3e3d5ffd5b505050506040513d5f823e601f3d908101601f19168201604052610bf49190810190615449565b6001546040805163710dd46360e11b815290516060926001600160a01b03169163e21ba8c6916004808301925f929190829003018183875af1158015612818573d5f5f3e3d5ffd5b505050506040513d5f823e601f3d908101601f191682016040526109609190810190614ff9565b5f80546040516395a8c58d60e01b81526001600160a01b03909116916395a8c58d9161286f913391600401614442565b602060405180830381865afa15801561288a573d5f5f3e3d5ffd5b505050506040513d601f19601f820116820180604052508101906128ae9190614473565b6128ca5760405162461bcd60e51b81526004016109f09061448e565b6003546040516373798c6360e11b8152600481018390526001600160a01b039091169063e6f318c690602401611404565b5f80546040516395a8c58d60e01b81526001600160a01b03909116916395a8c58d9161292b913391600401614442565b602060405180830381865afa158015612946573d5f5f3e3d5ffd5b505050506040513d601f19601f8201168201806040525081019061296a9190614473565b6129865760405162461bcd60e51b81526004016109f09061448e565b6001600160a01b0381166129ac5760405162461bcd60e51b81526004016109f0906147da565b600580546001600160a01b0319166001600160a01b0392909216919091179055565b604080518082019091525f8152606060208201526002546001600160a01b0316612a0a5760405162461bcd60e51b81526004016109f090614a67565b600254604051637982969360e11b8152600481018490526001600160a01b039091169063f3052d26906024015f60405180830381865afa158015612a50573d5f5f3e3d5ffd5b505050506040513d5f823e601f3d908101601f19168201604052610bf4919081019061547a565b60075460405163f44a858360e01b8152600481018390526060916001600160a01b03169063f44a8583906024015f60405180830381865afa158015612abe573d5f5f3e3d5ffd5b505050506040513d5f823e601f3d908101601f19168201604052610bf491908101906154ab565b6007546040516307b5c14d60e51b81526001600160a01b039091169063f6b829a090610b03908790879087908790600401614614565b5f80546040516395a8c58d60e01b81526001600160a01b03909116916395a8c58d91612b4b913391600401614442565b602060405180830381865afa158015612b66573d5f5f3e3d5ffd5b505050506040513d601f19601f82011682018060405250810190612b8a9190614473565b612ba65760405162461bcd60e51b81526004016109f09061448e565b6002546001600160a01b0316612bce5760405162461bcd60e51b81526004016109f090614a67565b600254604051637bc3452960e11b81526001600160a01b039091169063f7868a5290610a2e9085908590600401614a9e565b5f80546040516395a8c58d60e01b81526001600160a01b03909116906395a8c58d90612c329033908590600401614442565b602060405180830381865afa158015612c4d573d5f5f3e3d5ffd5b505050506040513d601f19601f82011682018060405250810190612c719190614473565b612c8d5760405162461bcd60e51b81526004016109f09061448e565b60035460405163fb25d32f60e01b81526001600160a01b039091169063fb25d32f90612cc1908790879087906004016155f5565b6020604051808303815f875af1158015612cdd573d5f5f3e3d5ffd5b505050506040513d601f19601f82011682018060405250810190612d019190614a50565b90505b9392505050565b600654604051633f34c88f60e21b8152600481018390526001600160a01b039091169063fcd3223c90602401611404565b6040518060a001604052805f81526020015f81526020015f8152602001606081526020015f6001811115612d7257612d72612e6f565b905290565b6040518061018001604052805f81526020015f6001600160a01b03168152602001606081526020016060815260200160608152602001606081526020015f6001600160a01b031681526020015f8152602001606081526020015f81526020015f6003811115612de857612de8612e6f565b81526020015f81525090565b6040518060e001604052805f6001600160a01b031681526020016060815260200160608152602001606081526020015f81526020015f81526020015f6001811115612d7257612d72612e6f565b5f81518084528060208401602086015e5f602082860101526020601f19601f83011685010191505092915050565b634e487b7160e01b5f52602160045260245ffd5b60028110612e9357612e93612e6f565b50565b60018060a01b0381511682525f602082015160e06020850152612ebc60e0850182612e41565b905060408301518482036040860152612ed58282612e41565b91505060608301518482036060860152612eef8282612e41565b9150506080830151608085015260a083015160a085015260c0830151612f1481612e83565b8060c0860152508091505092915050565b5f602082016020835280845180835260408501915060408160051b8601019250602086015f5b82811015612f7c57603f19878603018452612f67858351612e96565b94506020938401939190910190600101612f4b565b50929695505050505050565b8015158114612e93575f5ffd5b5f5f60408385031215612fa6575f5ffd5b823591506020830135612fb881612f88565b809150509250929050565b8051825260208101516020830152604081015160408301525f606082015160a06060850152612ff560a0850182612e41565b9050608083015161300581612e83565b806080860152508091505092915050565b5f602082016020835280845180835260408501915060408160051b8601019250602086015f5b82811015612f7c57603f19878603018452613058858351612fc3565b9450602093840193919091019060010161303c565b5f5f83601f84011261307d575f5ffd5b5081356001600160401b03811115613093575f5ffd5b6020830191508360208285010111156130aa575f5ffd5b9250929050565b60ff81168114612e93575f5ffd5b5f5f5f5f606085870312156130d2575f5ffd5b8435935060208501356001600160401b038111156130ee575f5ffd5b6130fa8782880161306d565b909450925050604085013561310e816130b1565b939692955090935050565b5f60208284031215613129575f5ffd5b5035919050565b5f82825180855260208501945060208160051b830101602085015f5b8381101561317e57601f19858403018852613168838351612e41565b602098890198909350919091019060010161314c565b50909695505050505050565b805182525f602082015161014060208501526131aa610140850182612e41565b9050604083015184820360408601526131c38282612e41565b91505060608301516060850152608083015184820360808601526131e78282613130565b91505060a083015160a085015260c083015160c085015260e083015160e085015261010083015161010085015261012083015161322961012086018215159052565b509392505050565b602081525f612d04602083018461318a565b6001600160a01b0381168114612e93575f5ffd5b5f60208284031215613267575f5ffd5b8135612d0481613243565b602081525f612d046020830184612fc3565b5f5f60408385031215613295575f5ffd5b82356132a081613243565b91506020830135612fb881613243565b5f5f604083850312156132c1575f5ffd5b50508035926020909101359150565b5f5f5f5f5f5f5f6080888a0312156132e6575f5ffd5b87356132f181613243565b965060208801356001600160401b0381111561330b575f5ffd5b6133178a828b0161306d565b90975095505060408801356001600160401b03811115613335575f5ffd5b6133418a828b0161306d565b90955093505060608801356001600160401b0381111561335f575f5ffd5b61336b8a828b0161306d565b989b979a50959850939692959293505050565b5f5f5f60608486031215613390575f5ffd5b505081359360208301359350604090920135919050565b5f5f5f606084860312156133b9575f5ffd5b833592506020840135915060408401356133d281612f88565b809150509250925092565b602080825282518282018190525f918401906040840190835b818110156134145783518352602093840193909201916001016133f6565b509095945050505050565b634e487b7160e01b5f52604160045260245ffd5b604051606081016001600160401b03811182821017156134555761345561341f565b60405290565b60405160e081016001600160401b03811182821017156134555761345561341f565b60405161014081016001600160401b03811182821017156134555761345561341f565b60405161018081016001600160401b03811182821017156134555761345561341f565b60405160c081016001600160401b03811182821017156134555761345561341f565b604080519081016001600160401b03811182821017156134555761345561341f565b604051601f8201601f191681016001600160401b038111828210171561352f5761352f61341f565b604052919050565b5f6001600160401b0382111561354f5761354f61341f565b5060051b60200190565b5f6001600160401b038211156135715761357161341f565b50601f01601f191660200190565b5f82601f83011261358e575f5ffd5b81356135a161359c82613559565b613507565b8181528460208386010111156135b5575f5ffd5b816020850160208301375f918101602001919091529392505050565b5f606082840312156135e1575f5ffd5b6135e9613433565b905081356001600160401b03811115613600575f5ffd5b61360c8482850161357f565b8252506020828101359082015260409182013591810191909152919050565b5f82601f83011261363a575f5ffd5b813561364861359c82613537565b8082825260208201915060208360051b860101925085831115613669575f5ffd5b602085015b838110156136a95780356001600160401b0381111561368b575f5ffd5b61369a886020838a01016135d1565b8452506020928301920161366e565b5095945050505050565b5f5f604083850312156136c4575f5ffd5b8235915060208301356001600160401b038111156136e0575f5ffd5b6136ec8582860161362b565b9150509250929050565b5f82601f830112613705575f5ffd5b813561371361359c82613537565b8082825260208201915060208360051b860101925085831115613734575f5ffd5b602085015b838110156136a95780356001600160401b03811115613756575f5ffd5b613765886020838a010161357f565b84525060209283019201613739565b5f5f5f5f5f60a08688031215613788575f5ffd5b8535945060208601356001600160401b038111156137a4575f5ffd5b6137b08882890161357f565b94505060408601356001600160401b038111156137cb575f5ffd5b6137d78882890161357f565b9350506060860135915060808601356001600160401b038111156137f9575f5ffd5b613805888289016136f6565b9150509295509295909350565b5f5f5f5f5f5f60a08789031215613827575f5ffd5b863595506020870135945060408701356001600160401b0381111561384a575f5ffd5b61385689828a016136f6565b94505060608701356001600160401b03811115613871575f5ffd5b61387d89828a0161306d565b9094509250506080870135613891816130b1565b809150509295509295509295565b5f5f604083850312156138b0575f5ffd5b8235915060208301356001600160401b038111156138cc575f5ffd5b6136ec8582860161357f565b60038110612e93575f5ffd5b5f5f5f606084860312156138f6575f5ffd5b833592506020840135915060408401356133d2816138d8565b5f5f5f5f5f5f60c08789031215613924575f5ffd5b863561392f81613243565b95506020870135945060408701356001600160401b03811115613950575f5ffd5b61395c89828a0161357f565b94505060608701356001600160401b03811115613977575f5ffd5b61398389828a0161357f565b9350506080870135915060a08701356001600160401b038111156139a5575f5ffd5b8701601f810189136139b5575f5ffd5b80356139c361359c82613537565b8082825260208201915060206060840285010192508b8311156139e4575f5ffd5b6020840193505b82841015613a35576060848d031215613a02575f5ffd5b613a0a613433565b84358152602080860135818301526040808701359083015290835260609094019391909101906139eb565b809450505050509295509295509295565b60038110613a5657613a56612e6f565b9052565b5f8151808452602084019350602083015f5b82811015613ad4578151805187526020810151602088015260408101516040880152606081015160608801526080810151608088015260a0810151613ab460a0890182613a46565b5060c0908101519087015260e09095019460209190910190600101613a6c565b5093949350505050565b60048110613a5657613a56612e6f565b805182525f6020820151613b0d60208501826001600160a01b03169052565b5060408201516101806040850152613b29610180850182612e41565b905060608301518482036060860152613b428282612e41565b91505060808301518482036080860152613b5c8282612e41565b91505060a083015184820360a0860152613b768282612e41565b91505060c0830151613b9360c08601826001600160a01b03169052565b5060e083015160e0850152610100830151848203610100860152613bb78282613a5a565b915050610120830151610120850152610140830151613bda610140860182613ade565b506101608301516101608501528091505092915050565b602081525f612d046020830184613aee565b60048110612e93575f5ffd5b5f60208284031215613c1f575f5ffd5b8135612d0481613c03565b5f602082016020835280845180835260408501915060408160051b8601019250602086015f5b82811015612f7c57603f19878603018452613c6c858351613aee565b94506020938401939190910190600101613c50565b5f5f5f5f5f5f60a08789031215613c96575f5ffd5b8635613ca181613243565b95506020870135945060408701356001600160401b03811115613cc2575f5ffd5b613cce89828a0161306d565b90955093505060608701356001600160401b03811115613cec575f5ffd5b613cf889828a016136f6565b9250506080870135613891816130b1565b5f5f60408385031215613d1a575f5ffd5b823591506020830135612fb881613c03565b5f5f60408385031215613d3d575f5ffd5b823591506020830135612fb881613243565b5f82825180855260208501945060208160051b830101602085015f5b8381101561317e57601f19858403018852815180518452602081015160c06020860152613d9b60c0860182612e41565b60408381015190870152606080840151908701526080808401519087015260a09283015115159290950191909152506020978801979190910190600101613d6b565b602081525f612d046020830184613d4f565b5f602082016020835280845180835260408501915060408160051b8601019250602086015f5b82811015612f7c57603f1987860301845281518051865260018060a01b03602082015116602087015260018060a01b036040820151166040870152606081015160e06060880152613e6960e0880182612e41565b905060808201518782036080890152613e828282613130565b60a08481015160ff16908a015260c093840151939098019290925250506020938401939190910190600101613e15565b5f5f5f5f5f5f60c08789031215613ec7575f5ffd5b8635955060208701356001600160401b03811115613ee3575f5ffd5b613eef89828a0161357f565b95505060408701356001600160401b03811115613f0a575f5ffd5b613f1689828a0161357f565b9450506060870135925060808701356001600160401b03811115613f38575f5ffd5b613f4489828a016136f6565b92505060a08701356001600160401b03811115613f5f575f5ffd5b613f6b89828a0161362b565b9150509295509295509295565b60028110612e93575f5ffd5b5f5f60408385031215613f95575f5ffd5b823591506020830135612fb881613f78565b5f602082016020835280845180835260408501915060408160051b8601019250602086015f5b82811015612f7c57603f198786030184528151805160408752613ff3604088018261318a565b905060208201519150868103602088015261400e8183613d4f565b965050506020938401939190910190600101613fcd565b5f5f5f60608486031215614037575f5ffd5b833592506020840135915060408401356001600160401b0381111561405a575f5ffd5b614066868287016135d1565b9150509250925092565b5f5f5f5f60808587031215614083575f5ffd5b84359350602085013592506040850135915060608501356001600160401b038111156140ad575f5ffd5b6140b98782880161357f565b91505092959194509250565b805182525f6020820151604060208501526140e36040850182612e41565b949350505050565b5f602082016020835280845180835260408501915060408160051b8601019250602086015f5b82811015612f7c57603f1987860301845261412d8583516140c5565b94506020938401939190910190600101614111565b602081525f612d046020830184612e96565b602081525f612d0460208301846140c5565b5f602082016020835280845180835260408501915060408160051b8601019250602086015f5b82811015612f7c57603f1987860301845281518051865260018060a01b036020820151166020870152604081015160e060408801526141ce60e0880182613130565b905060608201516060880152608082015187820360808901526141f18282612e41565b60a08481015160ff16908a015260c09384015193909801929092525050602093840193919091019060010161418c565b5f5f5f60608486031215614233575f5ffd5b833592506020840135915060408401356001600160401b03811115614256575f5ffd5b6140668682870161357f565b8051611a6e81613243565b5f82601f83011261427c575f5ffd5b815161428a61359c82613559565b81815284602083860101111561429e575f5ffd5b8160208501602083015e5f918101602001919091529392505050565b8051611a6e81613f78565b5f60e082840312156142d5575f5ffd5b6142dd61345b565b90506142e882614262565b815260208201516001600160401b03811115614302575f5ffd5b61430e8482850161426d565b60208301525060408201516001600160401b0381111561432c575f5ffd5b6143388482850161426d565b60408301525060608201516001600160401b03811115614356575f5ffd5b6143628482850161426d565b6060830152506080828101519082015260a0808301519082015261438860c083016142ba565b60c082015292915050565b5f602082840312156143a3575f5ffd5b81516001600160401b038111156143b8575f5ffd5b8201601f810184136143c8575f5ffd5b80516143d661359c82613537565b8082825260208201915060208360051b8501019250868311156143f7575f5ffd5b602084015b838110156144375780516001600160401b03811115614419575f5ffd5b614428896020838901016142c5565b845250602092830192016143fc565b509695505050505050565b6001600160a01b03831681526040810161445b83612e83565b8260208301529392505050565b8051611a6e81612f88565b5f60208284031215614483575f5ffd5b8151612d0481612f88565b6020808252600990820152682737ba1030b236b4b760b91b604082015260600190565b5f60a082840312156144c1575f5ffd5b60405160a081016001600160401b03811182821017156144e3576144e361341f565b604090815283518252602080850151908301528381015190820152606083015190915081906001600160401b0381111561451b575f5ffd5b6145278582860161426d565b606083015250608083015161453b81613f78565b6080919091015292915050565b5f60208284031215614558575f5ffd5b81516001600160401b0381111561456d575f5ffd5b8201601f8101841361457d575f5ffd5b805161458b61359c82613537565b8082825260208201915060208360051b8501019250868311156145ac575f5ffd5b602084015b838110156144375780516001600160401b038111156145ce575f5ffd5b6145dd896020838901016144b1565b845250602092830192016145b1565b81835281816020850137505f828201602090810191909152601f909101601f19169091010190565b848152606060208201525f61462d6060830185876145ec565b905060ff8316604083015295945050505050565b5f82601f830112614650575f5ffd5b815161465e61359c82613537565b8082825260208201915060208360051b86010192508583111561467f575f5ffd5b602085015b838110156136a95780516001600160401b038111156146a1575f5ffd5b6146b0886020838a010161426d565b84525060209283019201614684565b5f61014082840312156146d0575f5ffd5b6146d861347d565b8251815260208301519091506001600160401b038111156146f7575f5ffd5b6147038482850161426d565b60208301525060408201516001600160401b03811115614721575f5ffd5b61472d8482850161426d565b6040830152506060828101519082015260808201516001600160401b03811115614755575f5ffd5b61476184828501614641565b60808301525060a0828101519082015260c0808301519082015260e08083015190820152610100808301519082015261479d6101208301614468565b61012082015292915050565b5f602082840312156147b9575f5ffd5b81516001600160401b038111156147ce575f5ffd5b6140e3848285016146bf565b6020808252600f908201526e496e76616c6964206164647265737360881b604082015260600190565b5f60208284031215614813575f5ffd5b81516001600160401b03811115614828575f5ffd5b6140e3848285016144b1565b6001600160a01b03881681526080602082018190525f90614858908301888a6145ec565b828103604084015261486b8187896145ec565b905082810360608401526148808185876145ec565b9a9950505050505050505050565b5f6020828403121561489e575f5ffd5b81516001600160401b038111156148b3575f5ffd5b8201601f810184136148c3575f5ffd5b80516148d161359c82613537565b8082825260208201915060208360051b8501019250868311156148f2575f5ffd5b6020840193505b828410156149145783518252602093840193909101906148f9565b9695505050505050565b5f8151606084526149326060850182612e41565b905060208301516020850152604083015160408501528091505092915050565b5f82825180855260208501945060208160051b830101602085015f5b8381101561317e57601f1985840301885261498a83835161491e565b602098890198909350919091019060010161496e565b828152604060208201525f612d016040830184614952565b85815260a060208201525f6149d060a0830187612e41565b82810360408401526149e28187612e41565b905084606084015282810360808401526149fc8185613130565b98975050505050505050565b86815285602082015260a060408201525f614a2660a0830187613130565b8281036060840152614a398186886145ec565b91505060ff83166080830152979650505050505050565b5f60208284031215614a60575f5ffd5b5051919050565b6020808252601c908201527f43617465676f72794d616e61676572206e6f74206465706c6f79656400000000604082015260600190565b828152604060208201525f612d016040830184612e41565b5f60208284031215614ac6575f5ffd5b8151612d0481613243565b6020808252601290820152712737ba1030b236b4b71037b91039ba30b33360711b604082015260600190565b83815260208101839052606081016140e36040830184613a46565b60018060a01b038716815285602082015260c060408201525f614b3e60c0830187612e41565b8281036060840152614b508187612e41565b6080840186905283810360a0850152845180825260208087019350909101905f5b81811015614bab57835180518452602081015160208501526040810151604085015250606083019250602084019350600181019050614b71565b50909a9950505050505050505050565b5f82601f830112614bca575f5ffd5b8151614bd861359c82613537565b80828252602082019150602060e08402860101925085831115614bf9575f5ffd5b602085015b838110156136a95760e08188031215614c15575f5ffd5b614c1d61345b565b815181526020808301519082015260408083015190820152606080830151908201526080808301519082015260a0820151614c57816138d8565b60a082015260c08281015190820152835260209092019160e001614bfe565b8051611a6e81613c03565b5f6101808284031215614c92575f5ffd5b614c9a6134a0565b825181529050614cac60208301614262565b602082015260408201516001600160401b03811115614cc9575f5ffd5b614cd58482850161426d565b60408301525060608201516001600160401b03811115614cf3575f5ffd5b614cff8482850161426d565b60608301525060808201516001600160401b03811115614d1d575f5ffd5b614d298482850161426d565b60808301525060a08201516001600160401b03811115614d47575f5ffd5b614d538482850161426d565b60a083015250614d6560c08301614262565b60c082015260e082810151908201526101008201516001600160401b03811115614d8d575f5ffd5b614d9984828501614bbb565b610100830152506101208281015190820152614db86101408301614c76565b6101408201526101609182015191810191909152919050565b5f60208284031215614de1575f5ffd5b81516001600160401b03811115614df6575f5ffd5b6140e384828501614c81565b60208101610bf48284613ade565b5f60208284031215614e20575f5ffd5b81516001600160401b03811115614e35575f5ffd5b8201601f81018413614e45575f5ffd5b8051614e5361359c82613537565b8082825260208201915060208360051b850101925086831115614e74575f5ffd5b602084015b838110156144375780516001600160401b03811115614e96575f5ffd5b614ea589602083890101614c81565b84525060209283019201614e79565b60018060a01b038716815285602082015260a060408201525f614edb60a0830186886145ec565b8281036060840152614a398186613130565b82815260408101612d046020830184613ade565b5f82601f830112614f10575f5ffd5b8151614f1e61359c82613537565b8082825260208201915060208360051b860101925085831115614f3f575f5ffd5b602085015b838110156136a95780516001600160401b03811115614f61575f5ffd5b860160c0818903601f19011215614f76575f5ffd5b614f7e6134c3565b6020820151815260408201516001600160401b03811115614f9d575f5ffd5b614fac8a60208386010161426d565b60208301525060608281015160408301526080808401519183019190915260a08301519082015260c09091015190614fe382612f88565b60a0810191909152835260209283019201614f44565b5f60208284031215615009575f5ffd5b81516001600160401b0381111561501e575f5ffd5b6140e384828501614f01565b8051611a6e816130b1565b5f60208284031215615045575f5ffd5b81516001600160401b0381111561505a575f5ffd5b8201601f8101841361506a575f5ffd5b805161507861359c82613537565b8082825260208201915060208360051b850101925086831115615099575f5ffd5b602084015b838110156144375780516001600160401b038111156150bb575f5ffd5b850160e0818a03601f190112156150d0575f5ffd5b6150d861345b565b602082015181526150eb60408301614262565b60208201526150fc60608301614262565b604082015260808201516001600160401b03811115615119575f5ffd5b6151288b60208386010161426d565b60608301525060a08201516001600160401b03811115615146575f5ffd5b6151558b602083860101614641565b60808301525061516760c0830161502a565b60a082015260e0919091015160c082015283526020928301920161509e565b86815260c060208201525f61519e60c0830188612e41565b82810360408401526151b08188612e41565b905085606084015282810360808401526151ca8186613130565b905082810360a08401526151de8185614952565b9998505050505050505050565b8281526040810161445b83612e83565b5f6020828403121561520b575f5ffd5b81516001600160401b03811115615220575f5ffd5b8201601f81018413615230575f5ffd5b805161523e61359c82613537565b8082825260208201915060208360051b85010192508683111561525f575f5ffd5b602084015b838110156144375780516001600160401b03811115615281575f5ffd5b85016040818a03601f19011215615296575f5ffd5b61529e6134e5565b60208201516001600160401b038111156152b6575f5ffd5b6152c58b6020838601016146bf565b82525060408201516001600160401b038111156152e0575f5ffd5b6152ef8b602083860101614f01565b6020830152508085525050602083019250602081019050615264565b838152826020820152606060408201525f615329606083018461491e565b95945050505050565b848152836020820152826040820152608060608201525f6149146080830184612e41565b5f60408284031215615366575f5ffd5b61536e6134e5565b8251815260208301519091506001600160401b0381111561538d575f5ffd5b6153998482850161426d565b60208301525092915050565b5f602082840312156153b5575f5ffd5b81516001600160401b038111156153ca575f5ffd5b8201601f810184136153da575f5ffd5b80516153e861359c82613537565b8082825260208201915060208360051b850101925086831115615409575f5ffd5b602084015b838110156144375780516001600160401b0381111561542b575f5ffd5b61543a89602083890101615356565b8452506020928301920161540e565b5f60208284031215615459575f5ffd5b81516001600160401b0381111561546e575f5ffd5b6140e3848285016142c5565b5f6020828403121561548a575f5ffd5b81516001600160401b0381111561549f575f5ffd5b6140e384828501615356565b5f602082840312156154bb575f5ffd5b81516001600160401b038111156154d0575f5ffd5b8201601f810184136154e0575f5ffd5b80516154ee61359c82613537565b8082825260208201915060208360051b85010192508683111561550f575f5ffd5b602084015b838110156144375780516001600160401b03811115615531575f5ffd5b850160e0818a03601f19011215615546575f5ffd5b61554e61345b565b6020820151815261556160408301614262565b602082015260608201516001600160401b0381111561557e575f5ffd5b61558d8b602083860101614641565b6040830152506080820151606082015260a08201516001600160401b038111156155b5575f5ffd5b6155c48b60208386010161426d565b6080830152506155d660c0830161502a565b60a082015260e0919091015160c0820152835260209283019201615514565b838152826020820152606060408201525f6153296060830184612e4156fea264697066735822122016b2c27557387939a455808f4e103a65eb95bfe9be92542aa14ce31ccfe02b6264736f6c634300081e0033",
			"opcodes": "PUSH1 0x80 PUSH1 0x40 MSTORE CALLVALUE DUP1 ISZERO PUSH1 0xE JUMPI PUSH0 PUSH0 REVERT JUMPDEST POP PUSH1 0x40 MLOAD PUSH2 0x56CF CODESIZE SUB DUP1 PUSH2 0x56CF DUP4 CODECOPY DUP2 ADD PUSH1 0x40 DUP2 SWAP1 MSTORE PUSH1 0x2B SWAP2 PUSH1 0x4E JUMP JUMPDEST PUSH0 DUP1 SLOAD PUSH1 0x1 PUSH1 0x1 PUSH1 0xA0 SHL SUB NOT AND PUSH1 0x1 PUSH1 0x1 PUSH1 0xA0 SHL SUB SWAP3 SWAP1 SWAP3 AND SWAP2 SWAP1 SWAP2 OR SWAP1 SSTORE PUSH1 0x79 JUMP JUMPDEST PUSH0 PUSH1 0x20 DUP3 DUP5 SUB SLT ISZERO PUSH1 0x5D JUMPI PUSH0 PUSH0 REVERT JUMPDEST DUP2 MLOAD PUSH1 0x1 PUSH1 0x1 PUSH1 0xA0 SHL SUB DUP2 AND DUP2 EQ PUSH1 0x72 JUMPI PUSH0 PUSH0 REVERT JUMPDEST SWAP4 SWAP3 POP POP POP JUMP JUMPDEST PUSH2 0x5649 DUP1 PUSH2 0x86 PUSH0 CODECOPY PUSH0 RETURN INVALID PUSH1 0x80 PUSH1 0x40 MSTORE CALLVALUE DUP1 ISZERO PUSH2 0xF JUMPI PUSH0 PUSH0 REVERT JUMPDEST POP PUSH1 0x4 CALLDATASIZE LT PUSH2 0x3B4 JUMPI PUSH0 CALLDATALOAD PUSH1 0xE0 SHR DUP1 PUSH4 0x95EBCB24 GT PUSH2 0x1F5 JUMPI DUP1 PUSH4 0xD198B650 GT PUSH2 0x114 JUMPI DUP1 PUSH4 0xEA0F24E9 GT PUSH2 0xA9 JUMPI DUP1 PUSH4 0xF7868A52 GT PUSH2 0x79 JUMPI DUP1 PUSH4 0xF7868A52 EQ PUSH2 0x897 JUMPI DUP1 PUSH4 0xF9B6117F EQ PUSH2 0x8AA JUMPI DUP1 PUSH4 0xFB25D32F EQ PUSH2 0x8BD JUMPI DUP1 PUSH4 0xFCD3223C EQ PUSH2 0x8DE JUMPI PUSH0 PUSH0 REVERT JUMPDEST DUP1 PUSH4 0xEA0F24E9 EQ PUSH2 0x831 JUMPI DUP1 PUSH4 0xF3052D26 EQ PUSH2 0x844 JUMPI DUP1 PUSH4 0xF44A8583 EQ PUSH2 0x864 JUMPI DUP1 PUSH4 0xF6B829A0 EQ PUSH2 0x884 JUMPI PUSH0 PUSH0 REVERT JUMPDEST DUP1 PUSH4 0xDCAD55C0 GT PUSH2 0xE4 JUMPI DUP1 PUSH4 0xDCAD55C0 EQ PUSH2 0x7E3 JUMPI DUP1 PUSH4 0xDDD79504 EQ PUSH2 0x7F6 JUMPI DUP1 PUSH4 0xE21BA8C6 EQ PUSH2 0x816 JUMPI DUP1 PUSH4 0xE6F318C6 EQ PUSH2 0x81E JUMPI PUSH0 PUSH0 REVERT JUMPDEST DUP1 PUSH4 0xD198B650 EQ PUSH2 0x795 JUMPI DUP1 PUSH4 0xD50A9E46 EQ PUSH2 0x7A8 JUMPI DUP1 PUSH4 0xD86EC238 EQ PUSH2 0x7BB JUMPI DUP1 PUSH4 0xDADD0A57 EQ PUSH2 0x7CE JUMPI PUSH0 PUSH0 REVERT JUMPDEST DUP1 PUSH4 0xB2FDFE05 GT PUSH2 0x18A JUMPI DUP1 PUSH4 0xBAD1365E GT PUSH2 0x15A JUMPI DUP1 PUSH4 0xBAD1365E EQ PUSH2 0x754 JUMPI DUP1 PUSH4 0xBAF85306 EQ PUSH2 0x767 JUMPI DUP1 PUSH4 0xCB0769B0 EQ PUSH2 0x77A JUMPI DUP1 PUSH4 0xCECA737F EQ PUSH2 0x782 JUMPI PUSH0 PUSH0 REVERT JUMPDEST DUP1 PUSH4 0xB2FDFE05 EQ PUSH2 0x6F9 JUMPI DUP1 PUSH4 0xB447AAAE EQ PUSH2 0x719 JUMPI DUP1 PUSH4 0xB4AFD52C EQ PUSH2 0x72C JUMPI DUP1 PUSH4 0xB9B5AAE6 EQ PUSH2 0x73F JUMPI PUSH0 PUSH0 REVERT JUMPDEST DUP1 PUSH4 0xAAB3196D GT PUSH2 0x1C5 JUMPI DUP1 PUSH4 0xAAB3196D EQ PUSH2 0x6A0 JUMPI DUP1 PUSH4 0xABF5E836 EQ PUSH2 0x6B3 JUMPI DUP1 PUSH4 0xAF5607F9 EQ PUSH2 0x6C6 JUMPI DUP1 PUSH4 0xB1587606 EQ PUSH2 0x6E6 JUMPI PUSH0 PUSH0 REVERT JUMPDEST DUP1 PUSH4 0x95EBCB24 EQ PUSH2 0x654 JUMPI DUP1 PUSH4 0x97D2B92A EQ PUSH2 0x667 JUMPI DUP1 PUSH4 0x997ED85C EQ PUSH2 0x67A JUMPI DUP1 PUSH4 0xA7866EA6 EQ PUSH2 0x68D JUMPI PUSH0 PUSH0 REVERT JUMPDEST DUP1 PUSH4 0x5775CDA4 GT PUSH2 0x2E1 JUMPI DUP1 PUSH4 0x75BD5601 GT PUSH2 0x276 JUMPI DUP1 PUSH4 0x893D20E8 GT PUSH2 0x246 JUMPI DUP1 PUSH4 0x893D20E8 EQ PUSH2 0x5F9 JUMPI DUP1 PUSH4 0x8A46E8EB EQ PUSH2 0x601 JUMPI DUP1 PUSH4 0x8C9DA843 EQ PUSH2 0x614 JUMPI DUP1 PUSH4 0x8CE2EC79 EQ PUSH2 0x634 JUMPI PUSH0 PUSH0 REVERT JUMPDEST DUP1 PUSH4 0x75BD5601 EQ PUSH2 0x5AD JUMPI DUP1 PUSH4 0x7668206D EQ PUSH2 0x5C0 JUMPI DUP1 PUSH4 0x78697E5B EQ PUSH2 0x5D3 JUMPI DUP1 PUSH4 0x892BB335 EQ PUSH2 0x5E6 JUMPI PUSH0 PUSH0 REVERT JUMPDEST DUP1 PUSH4 0x63C69F08 GT PUSH2 0x2B1 JUMPI DUP1 PUSH4 0x63C69F08 EQ PUSH2 0x554 JUMPI DUP1 PUSH4 0x64F77471 EQ PUSH2 0x574 JUMPI DUP1 PUSH4 0x6595171C EQ PUSH2 0x587 JUMPI DUP1 PUSH4 0x6DD2DD88 EQ PUSH2 0x59A JUMPI PUSH0 PUSH0 REVERT JUMPDEST DUP1 PUSH4 0x5775CDA4 EQ PUSH2 0x508 JUMPI DUP1 PUSH4 0x5BE5FD39 EQ PUSH2 0x51B JUMPI DUP1 PUSH4 0x5CFD6607 EQ PUSH2 0x52E JUMPI DUP1 PUSH4 0x61CE7F78 EQ PUSH2 0x541 JUMPI PUSH0 PUSH0 REVERT JUMPDEST DUP1 PUSH4 0x330933CF GT PUSH2 0x357 JUMPI DUP1 PUSH4 0x439E61FA GT PUSH2 0x327 JUMPI DUP1 PUSH4 0x439E61FA EQ PUSH2 0x4C9 JUMPI DUP1 PUSH4 0x43AE37C3 EQ PUSH2 0x4DC JUMPI DUP1 PUSH4 0x4CDEBC39 EQ PUSH2 0x4E2 JUMPI DUP1 PUSH4 0x4D30A39B EQ PUSH2 0x4F5 JUMPI PUSH0 PUSH0 REVERT JUMPDEST DUP1 PUSH4 0x330933CF EQ PUSH2 0x471 JUMPI DUP1 PUSH4 0x360D5B9E EQ PUSH2 0x484 JUMPI DUP1 PUSH4 0x3844AC5B EQ PUSH2 0x497 JUMPI DUP1 PUSH4 0x42F54B89 EQ PUSH2 0x4B7 JUMPI PUSH0 PUSH0 REVERT JUMPDEST DUP1 PUSH4 0xE622B91 GT PUSH2 0x392 JUMPI DUP1 PUSH4 0xE622B91 EQ PUSH2 0x416 JUMPI DUP1 PUSH4 0x18211503 EQ PUSH2 0x42B JUMPI DUP1 PUSH4 0x1E4DE872 EQ PUSH2 0x43E JUMPI DUP1 PUSH4 0x2CF4A54D EQ PUSH2 0x45E JUMPI PUSH0 PUSH0 REVERT JUMPDEST DUP1 PUSH4 0x37C73C2 EQ PUSH2 0x3B8 JUMPI DUP1 PUSH4 0x5207DB2 EQ PUSH2 0x3D6 JUMPI DUP1 PUSH4 0x9CA221F EQ PUSH2 0x3EB JUMPI JUMPDEST PUSH0 PUSH0 REVERT JUMPDEST PUSH2 0x3C0 PUSH2 0x8F1 JUMP JUMPDEST PUSH1 0x40 MLOAD PUSH2 0x3CD SWAP2 SWAP1 PUSH2 0x2F25 JUMP JUMPDEST PUSH1 0x40 MLOAD DUP1 SWAP2 SUB SWAP1 RETURN JUMPDEST PUSH2 0x3E9 PUSH2 0x3E4 CALLDATASIZE PUSH1 0x4 PUSH2 0x2F95 JUMP JUMPDEST PUSH2 0x965 JUMP JUMPDEST STOP JUMPDEST PUSH1 0x6 SLOAD PUSH2 0x3FE SWAP1 PUSH1 0x1 PUSH1 0x1 PUSH1 0xA0 SHL SUB AND DUP2 JUMP JUMPDEST PUSH1 0x40 MLOAD PUSH1 0x1 PUSH1 0x1 PUSH1 0xA0 SHL SUB SWAP1 SWAP2 AND DUP2 MSTORE PUSH1 0x20 ADD PUSH2 0x3CD JUMP JUMPDEST PUSH2 0x41E PUSH2 0xA5F JUMP JUMPDEST PUSH1 0x40 MLOAD PUSH2 0x3CD SWAP2 SWAP1 PUSH2 0x3016 JUMP JUMPDEST PUSH2 0x3E9 PUSH2 0x439 CALLDATASIZE PUSH1 0x4 PUSH2 0x30BF JUMP JUMPDEST PUSH2 0xACD JUMP JUMPDEST PUSH2 0x451 PUSH2 0x44C CALLDATASIZE PUSH1 0x4 PUSH2 0x3119 JUMP JUMPDEST PUSH2 0xB36 JUMP JUMPDEST PUSH1 0x40 MLOAD PUSH2 0x3CD SWAP2 SWAP1 PUSH2 0x3231 JUMP JUMPDEST PUSH1 0x7 SLOAD PUSH2 0x3FE SWAP1 PUSH1 0x1 PUSH1 0x1 PUSH1 0xA0 SHL SUB AND DUP2 JUMP JUMPDEST PUSH2 0x3E9 PUSH2 0x47F CALLDATASIZE PUSH1 0x4 PUSH2 0x3257 JUMP JUMPDEST PUSH2 0xBFA JUMP JUMPDEST PUSH1 0x5 SLOAD PUSH2 0x3FE SWAP1 PUSH1 0x1 PUSH1 0x1 PUSH1 0xA0 SHL SUB AND DUP2 JUMP JUMPDEST PUSH2 0x4AA PUSH2 0x4A5 CALLDATASIZE PUSH1 0x4 PUSH2 0x3119 JUMP JUMPDEST PUSH2 0xCCD JUMP JUMPDEST PUSH1 0x40 MLOAD PUSH2 0x3CD SWAP2 SWAP1 PUSH2 0x3272 JUMP JUMPDEST PUSH0 SLOAD PUSH2 0x3FE SWAP1 PUSH1 0x1 PUSH1 0x1 PUSH1 0xA0 SHL SUB AND DUP2 JUMP JUMPDEST PUSH1 0x1 SLOAD PUSH2 0x3FE SWAP1 PUSH1 0x1 PUSH1 0x1 PUSH1 0xA0 SHL SUB AND DUP2 JUMP JUMPDEST CALLER PUSH2 0x3FE JUMP JUMPDEST PUSH2 0x3E9 PUSH2 0x4F0 CALLDATASIZE PUSH1 0x4 PUSH2 0x3284 JUMP JUMPDEST PUSH2 0xD42 JUMP JUMPDEST PUSH2 0x3E9 PUSH2 0x503 CALLDATASIZE PUSH1 0x4 PUSH2 0x32B0 JUMP JUMPDEST PUSH2 0xE5D JUMP JUMPDEST PUSH2 0x3E9 PUSH2 0x516 CALLDATASIZE PUSH1 0x4 PUSH2 0x3284 JUMP JUMPDEST PUSH2 0xF20 JUMP JUMPDEST PUSH2 0x3E9 PUSH2 0x529 CALLDATASIZE PUSH1 0x4 PUSH2 0x32D0 JUMP JUMPDEST PUSH2 0x106A JUMP JUMPDEST PUSH2 0x3E9 PUSH2 0x53C CALLDATASIZE PUSH1 0x4 PUSH2 0x337E JUMP JUMPDEST PUSH2 0x1167 JUMP JUMPDEST PUSH2 0x3E9 PUSH2 0x54F CALLDATASIZE PUSH1 0x4 PUSH2 0x33A7 JUMP JUMPDEST PUSH2 0x125F JUMP JUMPDEST PUSH2 0x567 PUSH2 0x562 CALLDATASIZE PUSH1 0x4 PUSH2 0x3257 JUMP JUMPDEST PUSH2 0x129F JUMP JUMPDEST PUSH1 0x40 MLOAD PUSH2 0x3CD SWAP2 SWAP1 PUSH2 0x33DD JUMP JUMPDEST PUSH2 0x3E9 PUSH2 0x582 CALLDATASIZE PUSH1 0x4 PUSH2 0x36B3 JUMP JUMPDEST PUSH2 0x1313 JUMP JUMPDEST PUSH2 0x3E9 PUSH2 0x595 CALLDATASIZE PUSH1 0x4 PUSH2 0x3257 JUMP JUMPDEST PUSH2 0x13D0 JUMP JUMPDEST PUSH2 0x3E9 PUSH2 0x5A8 CALLDATASIZE PUSH1 0x4 PUSH2 0x3774 JUMP JUMPDEST PUSH2 0x1434 JUMP JUMPDEST PUSH2 0x3E9 PUSH2 0x5BB CALLDATASIZE PUSH1 0x4 PUSH2 0x3812 JUMP JUMPDEST PUSH2 0x152B JUMP JUMPDEST PUSH2 0x3E9 PUSH2 0x5CE CALLDATASIZE PUSH1 0x4 PUSH2 0x3257 JUMP JUMPDEST PUSH2 0x15A5 JUMP JUMPDEST PUSH2 0x3E9 PUSH2 0x5E1 CALLDATASIZE PUSH1 0x4 PUSH2 0x389F JUMP JUMPDEST PUSH2 0x15DD JUMP JUMPDEST PUSH1 0x3 SLOAD PUSH2 0x3FE SWAP1 PUSH1 0x1 PUSH1 0x1 PUSH1 0xA0 SHL SUB AND DUP2 JUMP JUMPDEST PUSH2 0x3FE PUSH2 0x16C2 JUMP JUMPDEST PUSH2 0x3E9 PUSH2 0x60F CALLDATASIZE PUSH1 0x4 PUSH2 0x38E4 JUMP JUMPDEST PUSH2 0x1736 JUMP JUMPDEST PUSH2 0x627 PUSH2 0x622 CALLDATASIZE PUSH1 0x4 PUSH2 0x390F JUMP JUMPDEST PUSH2 0x186B JUMP JUMPDEST PUSH1 0x40 MLOAD PUSH2 0x3CD SWAP2 SWAP1 PUSH2 0x3BF1 JUMP JUMPDEST PUSH2 0x647 PUSH2 0x642 CALLDATASIZE PUSH1 0x4 PUSH2 0x3C0F JUMP JUMPDEST PUSH2 0x18F9 JUMP JUMPDEST PUSH1 0x40 MLOAD PUSH2 0x3CD SWAP2 SWAP1 PUSH2 0x3C2A JUMP JUMPDEST PUSH2 0x3E9 PUSH2 0x662 CALLDATASIZE PUSH1 0x4 PUSH2 0x32B0 JUMP JUMPDEST PUSH2 0x1A73 JUMP JUMPDEST PUSH2 0x3E9 PUSH2 0x675 CALLDATASIZE PUSH1 0x4 PUSH2 0x3119 JUMP JUMPDEST PUSH2 0x1B36 JUMP JUMPDEST PUSH2 0x3E9 PUSH2 0x688 CALLDATASIZE PUSH1 0x4 PUSH2 0x3284 JUMP JUMPDEST PUSH2 0x1B67 JUMP JUMPDEST PUSH2 0x3E9 PUSH2 0x69B CALLDATASIZE PUSH1 0x4 PUSH2 0x3C81 JUMP JUMPDEST PUSH2 0x1C81 JUMP JUMPDEST PUSH2 0x3E9 PUSH2 0x6AE CALLDATASIZE PUSH1 0x4 PUSH2 0x3D09 JUMP JUMPDEST PUSH2 0x1CF0 JUMP JUMPDEST PUSH2 0x3E9 PUSH2 0x6C1 CALLDATASIZE PUSH1 0x4 PUSH2 0x3D2C JUMP JUMPDEST PUSH2 0x1D21 JUMP JUMPDEST PUSH2 0x6D9 PUSH2 0x6D4 CALLDATASIZE PUSH1 0x4 PUSH2 0x3119 JUMP JUMPDEST PUSH2 0x1DE5 JUMP JUMPDEST PUSH1 0x40 MLOAD PUSH2 0x3CD SWAP2 SWAP1 PUSH2 0x3DDD JUMP JUMPDEST PUSH2 0x3E9 PUSH2 0x6F4 CALLDATASIZE PUSH1 0x4 PUSH2 0x3284 JUMP JUMPDEST PUSH2 0x1E53 JUMP JUMPDEST PUSH2 0x70C PUSH2 0x707 CALLDATASIZE PUSH1 0x4 PUSH2 0x3257 JUMP JUMPDEST PUSH2 0x1F6D JUMP JUMPDEST PUSH1 0x40 MLOAD PUSH2 0x3CD SWAP2 SWAP1 PUSH2 0x3DEF JUMP JUMPDEST PUSH2 0x3E9 PUSH2 0x727 CALLDATASIZE PUSH1 0x4 PUSH2 0x3EB2 JUMP JUMPDEST PUSH2 0x1FDC JUMP JUMPDEST PUSH2 0x3E9 PUSH2 0x73A CALLDATASIZE PUSH1 0x4 PUSH2 0x3F84 JUMP JUMPDEST PUSH2 0x20A1 JUMP JUMPDEST PUSH2 0x747 PUSH2 0x21D5 JUMP JUMPDEST PUSH1 0x40 MLOAD PUSH2 0x3CD SWAP2 SWAP1 PUSH2 0x3FA7 JUMP JUMPDEST PUSH2 0x3E9 PUSH2 0x762 CALLDATASIZE PUSH1 0x4 PUSH2 0x3257 JUMP JUMPDEST PUSH2 0x2243 JUMP JUMPDEST PUSH2 0x3E9 PUSH2 0x775 CALLDATASIZE PUSH1 0x4 PUSH2 0x4025 JUMP JUMPDEST PUSH2 0x2316 JUMP JUMPDEST PUSH2 0x747 PUSH2 0x23D5 JUMP JUMPDEST PUSH2 0x3E9 PUSH2 0x790 CALLDATASIZE PUSH1 0x4 PUSH2 0x3119 JUMP JUMPDEST PUSH2 0x241C JUMP JUMPDEST PUSH2 0x3E9 PUSH2 0x7A3 CALLDATASIZE PUSH1 0x4 PUSH2 0x3119 JUMP JUMPDEST PUSH2 0x2500 JUMP JUMPDEST PUSH2 0x3E9 PUSH2 0x7B6 CALLDATASIZE PUSH1 0x4 PUSH2 0x4070 JUMP JUMPDEST PUSH2 0x25BC JUMP JUMPDEST PUSH1 0x2 SLOAD PUSH2 0x3FE SWAP1 PUSH1 0x1 PUSH1 0x1 PUSH1 0xA0 SHL SUB AND DUP2 JUMP JUMPDEST PUSH2 0x7D6 PUSH2 0x25F2 JUMP JUMPDEST PUSH1 0x40 MLOAD PUSH2 0x3CD SWAP2 SWAP1 PUSH2 0x40EB JUMP JUMPDEST PUSH2 0x3E9 PUSH2 0x7F1 CALLDATASIZE PUSH1 0x4 PUSH2 0x32D0 JUMP JUMPDEST PUSH2 0x2693 JUMP JUMPDEST PUSH2 0x809 PUSH2 0x804 CALLDATASIZE PUSH1 0x4 PUSH2 0x3257 JUMP JUMPDEST PUSH2 0x275A JUMP JUMPDEST PUSH1 0x40 MLOAD PUSH2 0x3CD SWAP2 SWAP1 PUSH2 0x4142 JUMP JUMPDEST PUSH2 0x6D9 PUSH2 0x27D0 JUMP JUMPDEST PUSH2 0x3E9 PUSH2 0x82C CALLDATASIZE PUSH1 0x4 PUSH2 0x3119 JUMP JUMPDEST PUSH2 0x283F JUMP JUMPDEST PUSH2 0x3E9 PUSH2 0x83F CALLDATASIZE PUSH1 0x4 PUSH2 0x3257 JUMP JUMPDEST PUSH2 0x28FB JUMP JUMPDEST PUSH2 0x857 PUSH2 0x852 CALLDATASIZE PUSH1 0x4 PUSH2 0x3119 JUMP JUMPDEST PUSH2 0x29CE JUMP JUMPDEST PUSH1 0x40 MLOAD PUSH2 0x3CD SWAP2 SWAP1 PUSH2 0x4154 JUMP JUMPDEST PUSH2 0x877 PUSH2 0x872 CALLDATASIZE PUSH1 0x4 PUSH2 0x3119 JUMP JUMPDEST PUSH2 0x2A77 JUMP JUMPDEST PUSH1 0x40 MLOAD PUSH2 0x3CD SWAP2 SWAP1 PUSH2 0x4166 JUMP JUMPDEST PUSH2 0x3E9 PUSH2 0x892 CALLDATASIZE PUSH1 0x4 PUSH2 0x30BF JUMP JUMPDEST PUSH2 0x2AE5 JUMP JUMPDEST PUSH2 0x3E9 PUSH2 0x8A5 CALLDATASIZE PUSH1 0x4 PUSH2 0x389F JUMP JUMPDEST PUSH2 0x2B1B JUMP JUMPDEST PUSH1 0x4 SLOAD PUSH2 0x3FE SWAP1 PUSH1 0x1 PUSH1 0x1 PUSH1 0xA0 SHL SUB AND DUP2 JUMP JUMPDEST PUSH2 0x8D0 PUSH2 0x8CB CALLDATASIZE PUSH1 0x4 PUSH2 0x4221 JUMP JUMPDEST PUSH2 0x2C00 JUMP JUMPDEST PUSH1 0x40 MLOAD SWAP1 DUP2 MSTORE PUSH1 0x20 ADD PUSH2 0x3CD JUMP JUMPDEST PUSH2 0x3E9 PUSH2 0x8EC CALLDATASIZE PUSH1 0x4 PUSH2 0x3119 JUMP JUMPDEST PUSH2 0x2D0B JUMP JUMPDEST PUSH1 0x5 SLOAD PUSH1 0x40 DUP1 MLOAD PUSH4 0x1BE39E1 PUSH1 0xE1 SHL DUP2 MSTORE SWAP1 MLOAD PUSH1 0x60 SWAP3 PUSH1 0x1 PUSH1 0x1 PUSH1 0xA0 SHL SUB AND SWAP2 PUSH4 0x37C73C2 SWAP2 PUSH1 0x4 DUP1 DUP4 ADD SWAP3 PUSH0 SWAP3 SWAP2 SWAP1 DUP3 SWAP1 SUB ADD DUP2 DUP4 DUP8 GAS CALL ISZERO DUP1 ISZERO PUSH2 0x939 JUMPI RETURNDATASIZE PUSH0 PUSH0 RETURNDATACOPY RETURNDATASIZE PUSH0 REVERT JUMPDEST POP POP POP POP PUSH1 0x40 MLOAD RETURNDATASIZE PUSH0 DUP3 RETURNDATACOPY PUSH1 0x1F RETURNDATASIZE SWAP1 DUP2 ADD PUSH1 0x1F NOT AND DUP3 ADD PUSH1 0x40 MSTORE PUSH2 0x960 SWAP2 SWAP1 DUP2 ADD SWAP1 PUSH2 0x4393 JUMP JUMPDEST SWAP1 POP SWAP1 JUMP JUMPDEST PUSH0 DUP1 SLOAD PUSH1 0x40 MLOAD PUSH4 0x95A8C58D PUSH1 0xE0 SHL DUP2 MSTORE PUSH1 0x1 PUSH1 0x1 PUSH1 0xA0 SHL SUB SWAP1 SWAP2 AND SWAP2 PUSH4 0x95A8C58D SWAP2 PUSH2 0x995 SWAP2 CALLER SWAP2 PUSH1 0x4 ADD PUSH2 0x4442 JUMP JUMPDEST PUSH1 0x20 PUSH1 0x40 MLOAD DUP1 DUP4 SUB DUP2 DUP7 GAS STATICCALL ISZERO DUP1 ISZERO PUSH2 0x9B0 JUMPI RETURNDATASIZE PUSH0 PUSH0 RETURNDATACOPY RETURNDATASIZE PUSH0 REVERT JUMPDEST POP POP POP POP PUSH1 0x40 MLOAD RETURNDATASIZE PUSH1 0x1F NOT PUSH1 0x1F DUP3 ADD AND DUP3 ADD DUP1 PUSH1 0x40 MSTORE POP DUP2 ADD SWAP1 PUSH2 0x9D4 SWAP2 SWAP1 PUSH2 0x4473 JUMP JUMPDEST PUSH2 0x9F9 JUMPI PUSH1 0x40 MLOAD PUSH3 0x461BCD PUSH1 0xE5 SHL DUP2 MSTORE PUSH1 0x4 ADD PUSH2 0x9F0 SWAP1 PUSH2 0x448E JUMP JUMPDEST PUSH1 0x40 MLOAD DUP1 SWAP2 SUB SWAP1 REVERT JUMPDEST PUSH1 0x1 SLOAD PUSH1 0x40 MLOAD PUSH4 0x2903ED9 PUSH1 0xE1 SHL DUP2 MSTORE PUSH1 0x4 DUP2 ADD DUP5 SWAP1 MSTORE DUP3 ISZERO ISZERO PUSH1 0x24 DUP3 ADD MSTORE PUSH1 0x1 PUSH1 0x1 PUSH1 0xA0 SHL SUB SWAP1 SWAP2 AND SWAP1 PUSH4 0x5207DB2 SWAP1 PUSH1 0x44 ADD JUMPDEST PUSH0 PUSH1 0x40 MLOAD DUP1 DUP4 SUB DUP2 PUSH0 DUP8 DUP1 EXTCODESIZE ISZERO DUP1 ISZERO PUSH2 0xA45 JUMPI PUSH0 PUSH0 REVERT JUMPDEST POP GAS CALL ISZERO DUP1 ISZERO PUSH2 0xA57 JUMPI RETURNDATASIZE PUSH0 PUSH0 RETURNDATACOPY RETURNDATASIZE PUSH0 REVERT JUMPDEST POP POP POP POP POP POP JUMP JUMPDEST PUSH1 0x3 SLOAD PUSH1 0x40 DUP1 MLOAD PUSH4 0xE622B91 PUSH1 0xE0 SHL DUP2 MSTORE SWAP1 MLOAD PUSH1 0x60 SWAP3 PUSH1 0x1 PUSH1 0x1 PUSH1 0xA0 SHL SUB AND SWAP2 PUSH4 0xE622B91 SWAP2 PUSH1 0x4 DUP1 DUP4 ADD SWAP3 PUSH0 SWAP3 SWAP2 SWAP1 DUP3 SWAP1 SUB ADD DUP2 DUP7 GAS STATICCALL ISZERO DUP1 ISZERO PUSH2 0xAA6 JUMPI RETURNDATASIZE PUSH0 PUSH0 RETURNDATACOPY RETURNDATASIZE PUSH0 REVERT JUMPDEST POP POP POP POP PUSH1 0x40 MLOAD RETURNDATASIZE PUSH0 DUP3 RETURNDATACOPY PUSH1 0x1F RETURNDATASIZE SWAP1 DUP2 ADD PUSH1 0x1F NOT AND DUP3 ADD PUSH1 0x40 MSTORE PUSH2 0x960 SWAP2 SWAP1 DUP2 ADD SWAP1 PUSH2 0x4548 JUMP JUMPDEST PUSH1 0x6 SLOAD PUSH1 0x40 MLOAD PUSH4 0x18211503 PUSH1 0xE0 SHL DUP2 MSTORE PUSH1 0x1 PUSH1 0x1 PUSH1 0xA0 SHL SUB SWAP1 SWAP2 AND SWAP1 PUSH4 0x18211503 SWAP1 PUSH2 0xB03 SWAP1 DUP8 SWAP1 DUP8 SWAP1 DUP8 SWAP1 DUP8 SWAP1 PUSH1 0x4 ADD PUSH2 0x4614 JUMP JUMPDEST PUSH0 PUSH1 0x40 MLOAD DUP1 DUP4 SUB DUP2 PUSH0 DUP8 DUP1 EXTCODESIZE ISZERO DUP1 ISZERO PUSH2 0xB1A JUMPI PUSH0 PUSH0 REVERT JUMPDEST POP GAS CALL ISZERO DUP1 ISZERO PUSH2 0xB2C JUMPI RETURNDATASIZE PUSH0 PUSH0 RETURNDATACOPY RETURNDATASIZE PUSH0 REVERT JUMPDEST POP POP POP POP POP POP POP POP JUMP JUMPDEST PUSH2 0xB87 PUSH1 0x40 MLOAD DUP1 PUSH2 0x140 ADD PUSH1 0x40 MSTORE DUP1 PUSH0 DUP2 MSTORE PUSH1 0x20 ADD PUSH1 0x60 DUP2 MSTORE PUSH1 0x20 ADD PUSH1 0x60 DUP2 MSTORE PUSH1 0x20 ADD PUSH0 DUP2 MSTORE PUSH1 0x20 ADD PUSH1 0x60 DUP2 MSTORE PUSH1 0x20 ADD PUSH0 DUP2 MSTORE PUSH1 0x20 ADD PUSH0 DUP2 MSTORE PUSH1 0x20 ADD PUSH0 DUP2 MSTORE PUSH1 0x20 ADD PUSH0 DUP2 MSTORE PUSH1 0x20 ADD PUSH0 ISZERO ISZERO DUP2 MSTORE POP SWAP1 JUMP JUMPDEST PUSH1 0x1 SLOAD PUSH1 0x40 MLOAD PUSH4 0xF26F439 PUSH1 0xE1 SHL DUP2 MSTORE PUSH1 0x4 DUP2 ADD DUP5 SWAP1 MSTORE PUSH1 0x1 PUSH1 0x1 PUSH1 0xA0 SHL SUB SWAP1 SWAP2 AND SWAP1 PUSH4 0x1E4DE872 SWAP1 PUSH1 0x24 ADD PUSH0 PUSH1 0x40 MLOAD DUP1 DUP4 SUB DUP2 DUP7 GAS STATICCALL ISZERO DUP1 ISZERO PUSH2 0xBCD JUMPI RETURNDATASIZE PUSH0 PUSH0 RETURNDATACOPY RETURNDATASIZE PUSH0 REVERT JUMPDEST POP POP POP POP PUSH1 0x40 MLOAD RETURNDATASIZE PUSH0 DUP3 RETURNDATACOPY PUSH1 0x1F RETURNDATASIZE SWAP1 DUP2 ADD PUSH1 0x1F NOT AND DUP3 ADD PUSH1 0x40 MSTORE PUSH2 0xBF4 SWAP2 SWAP1 DUP2 ADD SWAP1 PUSH2 0x47A9 JUMP JUMPDEST SWAP3 SWAP2 POP POP JUMP JUMPDEST PUSH0 DUP1 SLOAD PUSH1 0x40 MLOAD PUSH4 0x95A8C58D PUSH1 0xE0 SHL DUP2 MSTORE PUSH1 0x1 PUSH1 0x1 PUSH1 0xA0 SHL SUB SWAP1 SWAP2 AND SWAP2 PUSH4 0x95A8C58D SWAP2 PUSH2 0xC2A SWAP2 CALLER SWAP2 PUSH1 0x4 ADD PUSH2 0x4442 JUMP JUMPDEST PUSH1 0x20 PUSH1 0x40 MLOAD DUP1 DUP4 SUB DUP2 DUP7 GAS STATICCALL ISZERO DUP1 ISZERO PUSH2 0xC45 JUMPI RETURNDATASIZE PUSH0 PUSH0 RETURNDATACOPY RETURNDATASIZE PUSH0 REVERT JUMPDEST POP POP POP POP PUSH1 0x40 MLOAD RETURNDATASIZE PUSH1 0x1F NOT PUSH1 0x1F DUP3 ADD AND DUP3 ADD DUP1 PUSH1 0x40 MSTORE POP DUP2 ADD SWAP1 PUSH2 0xC69 SWAP2 SWAP1 PUSH2 0x4473 JUMP JUMPDEST PUSH2 0xC85 JUMPI PUSH1 0x40 MLOAD PUSH3 0x461BCD PUSH1 0xE5 SHL DUP2 MSTORE PUSH1 0x4 ADD PUSH2 0x9F0 SWAP1 PUSH2 0x448E JUMP JUMPDEST PUSH1 0x1 PUSH1 0x1 PUSH1 0xA0 SHL SUB DUP2 AND PUSH2 0xCAB JUMPI PUSH1 0x40 MLOAD PUSH3 0x461BCD PUSH1 0xE5 SHL DUP2 MSTORE PUSH1 0x4 ADD PUSH2 0x9F0 SWAP1 PUSH2 0x47DA JUMP JUMPDEST PUSH1 0x2 DUP1 SLOAD PUSH1 0x1 PUSH1 0x1 PUSH1 0xA0 SHL SUB NOT AND PUSH1 0x1 PUSH1 0x1 PUSH1 0xA0 SHL SUB SWAP3 SWAP1 SWAP3 AND SWAP2 SWAP1 SWAP2 OR SWAP1 SSTORE JUMP JUMPDEST PUSH2 0xCD5 PUSH2 0x2D3C JUMP JUMPDEST PUSH1 0x3 SLOAD PUSH1 0x40 MLOAD PUSH4 0x3844AC5B PUSH1 0xE0 SHL DUP2 MSTORE PUSH1 0x4 DUP2 ADD DUP5 SWAP1 MSTORE PUSH1 0x1 PUSH1 0x1 PUSH1 0xA0 SHL SUB SWAP1 SWAP2 AND SWAP1 PUSH4 0x3844AC5B SWAP1 PUSH1 0x24 ADD PUSH0 PUSH1 0x40 MLOAD DUP1 DUP4 SUB DUP2 DUP7 GAS STATICCALL ISZERO DUP1 ISZERO PUSH2 0xD1B JUMPI RETURNDATASIZE PUSH0 PUSH0 RETURNDATACOPY RETURNDATASIZE PUSH0 REVERT JUMPDEST POP POP POP POP PUSH1 0x40 MLOAD RETURNDATASIZE PUSH0 DUP3 RETURNDATACOPY PUSH1 0x1F RETURNDATASIZE SWAP1 DUP2 ADD PUSH1 0x1F NOT AND DUP3 ADD PUSH1 0x40 MSTORE PUSH2 0xBF4 SWAP2 SWAP1 DUP2 ADD SWAP1 PUSH2 0x4803 JUMP JUMPDEST PUSH0 DUP1 SLOAD PUSH1 0x40 MLOAD PUSH4 0x95A8C58D PUSH1 0xE0 SHL DUP2 MSTORE PUSH1 0x1 PUSH1 0x1 PUSH1 0xA0 SHL SUB SWAP1 SWAP2 AND SWAP2 PUSH4 0x95A8C58D SWAP2 PUSH2 0xD72 SWAP2 CALLER SWAP2 PUSH1 0x4 ADD PUSH2 0x4442 JUMP JUMPDEST PUSH1 0x20 PUSH1 0x40 MLOAD DUP1 DUP4 SUB DUP2 DUP7 GAS STATICCALL ISZERO DUP1 ISZERO PUSH2 0xD8D JUMPI RETURNDATASIZE PUSH0 PUSH0 RETURNDATACOPY RETURNDATASIZE PUSH0 REVERT JUMPDEST POP POP POP POP PUSH1 0x40 MLOAD RETURNDATASIZE PUSH1 0x1F NOT PUSH1 0x1F DUP3 ADD AND DUP3 ADD DUP1 PUSH1 0x40 MSTORE POP DUP2 ADD SWAP1 PUSH2 0xDB1 SWAP2 SWAP1 PUSH2 0x4473 JUMP JUMPDEST PUSH2 0xDCD JUMPI PUSH1 0x40 MLOAD PUSH3 0x461BCD PUSH1 0xE5 SHL DUP2 MSTORE PUSH1 0x4 ADD PUSH2 0x9F0 SWAP1 PUSH2 0x448E JUMP JUMPDEST PUSH1 0x1 PUSH1 0x1 PUSH1 0xA0 SHL SUB DUP3 AND PUSH2 0xDF3 JUMPI PUSH1 0x40 MLOAD PUSH3 0x461BCD PUSH1 0xE5 SHL DUP2 MSTORE PUSH1 0x4 ADD PUSH2 0x9F0 SWAP1 PUSH2 0x47DA JUMP JUMPDEST PUSH1 0x1 PUSH1 0x1 PUSH1 0xA0 SHL SUB DUP2 AND PUSH2 0xE19 JUMPI PUSH1 0x40 MLOAD PUSH3 0x461BCD PUSH1 0xE5 SHL DUP2 MSTORE PUSH1 0x4 ADD PUSH2 0x9F0 SWAP1 PUSH2 0x47DA JUMP JUMPDEST PUSH1 0x4 DUP1 SLOAD PUSH1 0x1 PUSH1 0x1 PUSH1 0xA0 SHL SUB NOT AND PUSH1 0x1 PUSH1 0x1 PUSH1 0xA0 SHL SUB DUP5 DUP2 AND SWAP2 DUP3 OR DUP4 SSTORE PUSH1 0x40 MLOAD PUSH4 0xEA0F24E9 PUSH1 0xE0 SHL DUP2 MSTORE SWAP1 DUP5 AND SWAP3 DUP2 ADD SWAP3 SWAP1 SWAP3 MSTORE SWAP1 PUSH4 0xEA0F24E9 SWAP1 PUSH1 0x24 ADD PUSH2 0xA2E JUMP JUMPDEST PUSH0 DUP1 SLOAD PUSH1 0x40 MLOAD PUSH4 0x95A8C58D PUSH1 0xE0 SHL DUP2 MSTORE PUSH1 0x1 PUSH1 0x1 PUSH1 0xA0 SHL SUB SWAP1 SWAP2 AND SWAP2 PUSH4 0x95A8C58D SWAP2 PUSH2 0xE8D SWAP2 CALLER SWAP2 PUSH1 0x4 ADD PUSH2 0x4442 JUMP JUMPDEST PUSH1 0x20 PUSH1 0x40 MLOAD DUP1 DUP4 SUB DUP2 DUP7 GAS STATICCALL ISZERO DUP1 ISZERO PUSH2 0xEA8 JUMPI RETURNDATASIZE PUSH0 PUSH0 RETURNDATACOPY RETURNDATASIZE PUSH0 REVERT JUMPDEST POP POP POP POP PUSH1 0x40 MLOAD RETURNDATASIZE PUSH1 0x1F NOT PUSH1 0x1F DUP3 ADD AND DUP3 ADD DUP1 PUSH1 0x40 MSTORE POP DUP2 ADD SWAP1 PUSH2 0xECC SWAP2 SWAP1 PUSH2 0x4473 JUMP JUMPDEST PUSH2 0xEE8 JUMPI PUSH1 0x40 MLOAD PUSH3 0x461BCD PUSH1 0xE5 SHL DUP2 MSTORE PUSH1 0x4 ADD PUSH2 0x9F0 SWAP1 PUSH2 0x448E JUMP JUMPDEST PUSH1 0x1 SLOAD PUSH1 0x40 MLOAD PUSH4 0x4D30A39B PUSH1 0xE0 SHL DUP2 MSTORE PUSH1 0x4 DUP2 ADD DUP5 SWAP1 MSTORE PUSH1 0x24 DUP2 ADD DUP4 SWAP1 MSTORE PUSH1 0x1 PUSH1 0x1 PUSH1 0xA0 SHL SUB SWAP1 SWAP2 AND SWAP1 PUSH4 0x4D30A39B SWAP1 PUSH1 0x44 ADD PUSH2 0xA2E JUMP JUMPDEST PUSH0 DUP1 SLOAD PUSH1 0x40 MLOAD PUSH4 0x95A8C58D PUSH1 0xE0 SHL DUP2 MSTORE PUSH1 0x1 PUSH1 0x1 PUSH1 0xA0 SHL SUB SWAP1 SWAP2 AND SWAP2 PUSH4 0x95A8C58D SWAP2 PUSH2 0xF50 SWAP2 CALLER SWAP2 PUSH1 0x4 ADD PUSH2 0x4442 JUMP JUMPDEST PUSH1 0x20 PUSH1 0x40 MLOAD DUP1 DUP4 SUB DUP2 DUP7 GAS STATICCALL ISZERO DUP1 ISZERO PUSH2 0xF6B JUMPI RETURNDATASIZE PUSH0 PUSH0 RETURNDATACOPY RETURNDATASIZE PUSH0 REVERT JUMPDEST POP POP POP POP PUSH1 0x40 MLOAD RETURNDATASIZE PUSH1 0x1F NOT PUSH1 0x1F DUP3 ADD AND DUP3 ADD DUP1 PUSH1 0x40 MSTORE POP DUP2 ADD SWAP1 PUSH2 0xF8F SWAP2 SWAP1 PUSH2 0x4473 JUMP JUMPDEST PUSH2 0xFAB JUMPI PUSH1 0x40 MLOAD PUSH3 0x461BCD PUSH1 0xE5 SHL DUP2 MSTORE PUSH1 0x4 ADD PUSH2 0x9F0 SWAP1 PUSH2 0x448E JUMP JUMPDEST PUSH1 0x1 PUSH1 0x1 PUSH1 0xA0 SHL SUB DUP3 AND PUSH2 0x1001 JUMPI PUSH1 0x40 MLOAD PUSH3 0x461BCD PUSH1 0xE5 SHL DUP2 MSTORE PUSH1 0x20 PUSH1 0x4 DUP3 ADD MSTORE PUSH1 0x19 PUSH1 0x24 DUP3 ADD MSTORE PUSH32 0x466F6F64526174696E674D616E61676572206E6F742073657400000000000000 PUSH1 0x44 DUP3 ADD MSTORE PUSH1 0x64 ADD PUSH2 0x9F0 JUMP JUMPDEST PUSH1 0x1 PUSH1 0x1 PUSH1 0xA0 SHL SUB DUP3 AND PUSH2 0x1027 JUMPI PUSH1 0x40 MLOAD PUSH3 0x461BCD PUSH1 0xE5 SHL DUP2 MSTORE PUSH1 0x4 ADD PUSH2 0x9F0 SWAP1 PUSH2 0x47DA JUMP JUMPDEST PUSH1 0x7 DUP1 SLOAD PUSH1 0x1 PUSH1 0x1 PUSH1 0xA0 SHL SUB NOT AND PUSH1 0x1 PUSH1 0x1 PUSH1 0xA0 SHL SUB DUP5 DUP2 AND SWAP2 DUP3 OR SWAP1 SWAP3 SSTORE PUSH1 0x40 MLOAD PUSH4 0x5D689B2F PUSH1 0xE1 SHL DUP2 MSTORE SWAP2 DUP4 AND PUSH1 0x4 DUP4 ADD MSTORE SWAP1 PUSH4 0xBAD1365E SWAP1 PUSH1 0x24 ADD PUSH2 0xA2E JUMP JUMPDEST PUSH0 DUP1 SLOAD PUSH1 0x40 MLOAD PUSH4 0x95A8C58D PUSH1 0xE0 SHL DUP2 MSTORE PUSH1 0x1 PUSH1 0x1 PUSH1 0xA0 SHL SUB SWAP1 SWAP2 AND SWAP2 PUSH4 0x95A8C58D SWAP2 PUSH2 0x109A SWAP2 CALLER SWAP2 PUSH1 0x4 ADD PUSH2 0x4442 JUMP JUMPDEST PUSH1 0x20 PUSH1 0x40 MLOAD DUP1 DUP4 SUB DUP2 DUP7 GAS STATICCALL ISZERO DUP1 ISZERO PUSH2 0x10B5 JUMPI RETURNDATASIZE PUSH0 PUSH0 RETURNDATACOPY RETURNDATASIZE PUSH0 REVERT JUMPDEST POP POP POP POP PUSH1 0x40 MLOAD RETURNDATASIZE PUSH1 0x1F NOT PUSH1 0x1F DUP3 ADD AND DUP3 ADD DUP1 PUSH1 0x40 MSTORE POP DUP2 ADD SWAP1 PUSH2 0x10D9 SWAP2 SWAP1 PUSH2 0x4473 JUMP JUMPDEST PUSH2 0x10F5 JUMPI PUSH1 0x40 MLOAD PUSH3 0x461BCD PUSH1 0xE5 SHL DUP2 MSTORE PUSH1 0x4 ADD PUSH2 0x9F0 SWAP1 PUSH2 0x448E JUMP JUMPDEST PUSH1 0x5 SLOAD PUSH1 0x40 MLOAD PUSH4 0x5BE5FD39 PUSH1 0xE0 SHL DUP2 MSTORE PUSH1 0x1 PUSH1 0x1 PUSH1 0xA0 SHL SUB SWAP1 SWAP2 AND SWAP1 PUSH4 0x5BE5FD39 SWAP1 PUSH2 0x1131 SWAP1 DUP11 SWAP1 DUP11 SWAP1 DUP11 SWAP1 DUP11 SWAP1 DUP11 SWAP1 DUP11 SWAP1 DUP11 SWAP1 PUSH1 0x4 ADD PUSH2 0x4834 JUMP JUMPDEST PUSH0 PUSH1 0x40 MLOAD DUP1 DUP4 SUB DUP2 PUSH0 DUP8 DUP1 EXTCODESIZE ISZERO DUP1 ISZERO PUSH2 0x1148 JUMPI PUSH0 PUSH0 REVERT JUMPDEST POP GAS CALL ISZERO DUP1 ISZERO PUSH2 0x115A JUMPI RETURNDATASIZE PUSH0 PUSH0 RETURNDATACOPY RETURNDATASIZE PUSH0 REVERT JUMPDEST POP POP POP POP POP POP POP POP POP POP POP JUMP JUMPDEST PUSH0 DUP1 SLOAD PUSH1 0x40 MLOAD PUSH4 0x95A8C58D PUSH1 0xE0 SHL DUP2 MSTORE PUSH1 0x1 PUSH1 0x1 PUSH1 0xA0 SHL SUB SWAP1 SWAP2 AND SWAP2 PUSH4 0x95A8C58D SWAP2 PUSH2 0x1197 SWAP2 CALLER SWAP2 PUSH1 0x4 ADD PUSH2 0x4442 JUMP JUMPDEST PUSH1 0x20 PUSH1 0x40 MLOAD DUP1 DUP4 SUB DUP2 DUP7 GAS STATICCALL ISZERO DUP1 ISZERO PUSH2 0x11B2 JUMPI RETURNDATASIZE PUSH0 PUSH0 RETURNDATACOPY RETURNDATASIZE PUSH0 REVERT JUMPDEST POP POP POP POP PUSH1 0x40 MLOAD RETURNDATASIZE PUSH1 0x1F NOT PUSH1 0x1F DUP3 ADD AND DUP3 ADD DUP1 PUSH1 0x40 MSTORE POP DUP2 ADD SWAP1 PUSH2 0x11D6 SWAP2 SWAP1 PUSH2 0x4473 JUMP JUMPDEST PUSH2 0x11F2 JUMPI PUSH1 0x40 MLOAD PUSH3 0x461BCD PUSH1 0xE5 SHL DUP2 MSTORE PUSH1 0x4 ADD PUSH2 0x9F0 SWAP1 PUSH2 0x448E JUMP JUMPDEST PUSH1 0x3 SLOAD PUSH1 0x40 MLOAD PUSH4 0x5CFD6607 PUSH1 0xE0 SHL DUP2 MSTORE PUSH1 0x4 DUP2 ADD DUP6 SWAP1 MSTORE PUSH1 0x24 DUP2 ADD DUP5 SWAP1 MSTORE PUSH1 0x44 DUP2 ADD DUP4 SWAP1 MSTORE PUSH1 0x1 PUSH1 0x1 PUSH1 0xA0 SHL SUB SWAP1 SWAP2 AND SWAP1 PUSH4 0x5CFD6607 SWAP1 PUSH1 0x64 ADD JUMPDEST PUSH0 PUSH1 0x40 MLOAD DUP1 DUP4 SUB DUP2 PUSH0 DUP8 DUP1 EXTCODESIZE ISZERO DUP1 ISZERO PUSH2 0x1244 JUMPI PUSH0 PUSH0 REVERT JUMPDEST POP GAS CALL ISZERO DUP1 ISZERO PUSH2 0x1256 JUMPI RETURNDATASIZE PUSH0 PUSH0 RETURNDATACOPY RETURNDATASIZE PUSH0 REVERT JUMPDEST POP POP POP POP POP POP POP JUMP JUMPDEST PUSH1 0x1 SLOAD PUSH1 0x40 MLOAD PUSH4 0xC39CFEF PUSH1 0xE3 SHL DUP2 MSTORE PUSH1 0x4 DUP2 ADD DUP6 SWAP1 MSTORE PUSH1 0x24 DUP2 ADD DUP5 SWAP1 MSTORE DUP3 ISZERO ISZERO PUSH1 0x44 DUP3 ADD MSTORE PUSH1 0x1 PUSH1 0x1 PUSH1 0xA0 SHL SUB SWAP1 SWAP2 AND SWAP1 PUSH4 0x61CE7F78 SWAP1 PUSH1 0x64 ADD PUSH2 0x122D JUMP JUMPDEST PUSH1 0x4 DUP1 SLOAD PUSH1 0x40 MLOAD PUSH4 0xC78D3E1 PUSH1 0xE3 SHL DUP2 MSTORE PUSH1 0x1 PUSH1 0x1 PUSH1 0xA0 SHL SUB DUP5 DUP2 AND SWAP4 DUP3 ADD SWAP4 SWAP1 SWAP4 MSTORE PUSH1 0x60 SWAP3 SWAP1 SWAP2 AND SWAP1 PUSH4 0x63C69F08 SWAP1 PUSH1 0x24 ADD PUSH0 PUSH1 0x40 MLOAD DUP1 DUP4 SUB DUP2 DUP7 GAS STATICCALL ISZERO DUP1 ISZERO PUSH2 0x12EC JUMPI RETURNDATASIZE PUSH0 PUSH0 RETURNDATACOPY RETURNDATASIZE PUSH0 REVERT JUMPDEST POP POP POP POP PUSH1 0x40 MLOAD RETURNDATASIZE PUSH0 DUP3 RETURNDATACOPY PUSH1 0x1F RETURNDATASIZE SWAP1 DUP2 ADD PUSH1 0x1F NOT AND DUP3 ADD PUSH1 0x40 MSTORE PUSH2 0xBF4 SWAP2 SWAP1 DUP2 ADD SWAP1 PUSH2 0x488E JUMP JUMPDEST PUSH0 DUP1 SLOAD PUSH1 0x40 MLOAD PUSH4 0x95A8C58D PUSH1 0xE0 SHL DUP2 MSTORE PUSH1 0x1 PUSH1 0x1 PUSH1 0xA0 SHL SUB SWAP1 SWAP2 AND SWAP2 PUSH4 0x95A8C58D SWAP2 PUSH2 0x1343 SWAP2 CALLER SWAP2 PUSH1 0x4 ADD PUSH2 0x4442 JUMP JUMPDEST PUSH1 0x20 PUSH1 0x40 MLOAD DUP1 DUP4 SUB DUP2 DUP7 GAS STATICCALL ISZERO DUP1 ISZERO PUSH2 0x135E JUMPI RETURNDATASIZE PUSH0 PUSH0 RETURNDATACOPY RETURNDATASIZE PUSH0 REVERT JUMPDEST POP POP POP POP PUSH1 0x40 MLOAD RETURNDATASIZE PUSH1 0x1F NOT PUSH1 0x1F DUP3 ADD AND DUP3 ADD DUP1 PUSH1 0x40 MSTORE POP DUP2 ADD SWAP1 PUSH2 0x1382 SWAP2 SWAP1 PUSH2 0x4473 JUMP JUMPDEST PUSH2 0x139E JUMPI PUSH1 0x40 MLOAD PUSH3 0x461BCD PUSH1 0xE5 SHL DUP2 MSTORE PUSH1 0x4 ADD PUSH2 0x9F0 SWAP1 PUSH2 0x448E JUMP JUMPDEST PUSH1 0x1 SLOAD PUSH1 0x40 MLOAD PUSH4 0x64F77471 PUSH1 0xE0 SHL DUP2 MSTORE PUSH1 0x1 PUSH1 0x1 PUSH1 0xA0 SHL SUB SWAP1 SWAP2 AND SWAP1 PUSH4 0x64F77471 SWAP1 PUSH2 0xA2E SWAP1 DUP6 SWAP1 DUP6 SWAP1 PUSH1 0x4 ADD PUSH2 0x49A0 JUMP JUMPDEST PUSH0 SLOAD PUSH1 0x40 MLOAD PUSH4 0x2E3036C7 PUSH1 0xE0 SHL DUP2 MSTORE PUSH1 0x1 PUSH1 0x1 PUSH1 0xA0 SHL SUB DUP4 DUP2 AND PUSH1 0x4 DUP4 ADD MSTORE PUSH1 0x1 PUSH1 0x24 DUP4 ADD MSTORE SWAP1 SWAP2 AND SWAP1 PUSH4 0x2E3036C7 SWAP1 PUSH1 0x44 ADD JUMPDEST PUSH0 PUSH1 0x40 MLOAD DUP1 DUP4 SUB DUP2 PUSH0 DUP8 DUP1 EXTCODESIZE ISZERO DUP1 ISZERO PUSH2 0x141B JUMPI PUSH0 PUSH0 REVERT JUMPDEST POP GAS CALL ISZERO DUP1 ISZERO PUSH2 0x142D JUMPI RETURNDATASIZE PUSH0 PUSH0 RETURNDATACOPY RETURNDATASIZE PUSH0 REVERT JUMPDEST POP POP POP POP POP JUMP JUMPDEST PUSH0 DUP1 SLOAD PUSH1 0x40 MLOAD PUSH4 0x95A8C58D PUSH1 0xE0 SHL DUP2 MSTORE PUSH1 0x1 PUSH1 0x1 PUSH1 0xA0 SHL SUB SWAP1 SWAP2 AND SWAP2 PUSH4 0x95A8C58D SWAP2 PUSH2 0x1464 SWAP2 CALLER SWAP2 PUSH1 0x4 ADD PUSH2 0x4442 JUMP JUMPDEST PUSH1 0x20 PUSH1 0x40 MLOAD DUP1 DUP4 SUB DUP2 DUP7 GAS STATICCALL ISZERO DUP1 ISZERO PUSH2 0x147F JUMPI RETURNDATASIZE PUSH0 PUSH0 RETURNDATACOPY RETURNDATASIZE PUSH0 REVERT JUMPDEST POP POP POP POP PUSH1 0x40 MLOAD RETURNDATASIZE PUSH1 0x1F NOT PUSH1 0x1F DUP3 ADD AND DUP3 ADD DUP1 PUSH1 0x40 MSTORE POP DUP2 ADD SWAP1 PUSH2 0x14A3 SWAP2 SWAP1 PUSH2 0x4473 JUMP JUMPDEST PUSH2 0x14BF JUMPI PUSH1 0x40 MLOAD PUSH3 0x461BCD PUSH1 0xE5 SHL DUP2 MSTORE PUSH1 0x4 ADD PUSH2 0x9F0 SWAP1 PUSH2 0x448E JUMP JUMPDEST PUSH1 0x1 SLOAD PUSH1 0x40 MLOAD PUSH4 0xDBA5BB1 PUSH1 0xE3 SHL DUP2 MSTORE PUSH1 0x1 PUSH1 0x1 PUSH1 0xA0 SHL SUB SWAP1 SWAP2 AND SWAP1 PUSH4 0x6DD2DD88 SWAP1 PUSH2 0x14F7 SWAP1 DUP9 SWAP1 DUP9 SWAP1 DUP9 SWAP1 DUP9 SWAP1 DUP9 SWAP1 PUSH1 0x4 ADD PUSH2 0x49B8 JUMP JUMPDEST PUSH0 PUSH1 0x40 MLOAD DUP1 DUP4 SUB DUP2 PUSH0 DUP8 DUP1 EXTCODESIZE ISZERO DUP1 ISZERO PUSH2 0x150E JUMPI PUSH0 PUSH0 REVERT JUMPDEST POP GAS CALL ISZERO DUP1 ISZERO PUSH2 0x1520 JUMPI RETURNDATASIZE PUSH0 PUSH0 RETURNDATACOPY RETURNDATASIZE PUSH0 REVERT JUMPDEST POP POP POP POP POP POP POP POP POP JUMP JUMPDEST PUSH1 0x7 SLOAD PUSH1 0x40 MLOAD PUSH4 0x75BD5601 PUSH1 0xE0 SHL DUP2 MSTORE PUSH1 0x1 PUSH1 0x1 PUSH1 0xA0 SHL SUB SWAP1 SWAP2 AND SWAP1 PUSH4 0x75BD5601 SWAP1 PUSH2 0x1565 SWAP1 DUP10 SWAP1 DUP10 SWAP1 DUP10 SWAP1 DUP10 SWAP1 DUP10 SWAP1 DUP10 SWAP1 PUSH1 0x4 ADD PUSH2 0x4A08 JUMP JUMPDEST PUSH1 0x20 PUSH1 0x40 MLOAD DUP1 DUP4 SUB DUP2 PUSH0 DUP8 GAS CALL ISZERO DUP1 ISZERO PUSH2 0x1581 JUMPI RETURNDATASIZE PUSH0 PUSH0 RETURNDATACOPY RETURNDATASIZE PUSH0 REVERT JUMPDEST POP POP POP POP PUSH1 0x40 MLOAD RETURNDATASIZE PUSH1 0x1F NOT PUSH1 0x1F DUP3 ADD AND DUP3 ADD DUP1 PUSH1 0x40 MSTORE POP DUP2 ADD SWAP1 PUSH2 0x1256 SWAP2 SWAP1 PUSH2 0x4A50 JUMP JUMPDEST PUSH0 SLOAD PUSH1 0x40 MLOAD PUSH4 0x2E3036C7 PUSH1 0xE0 SHL DUP2 MSTORE PUSH1 0x1 PUSH1 0x1 PUSH1 0xA0 SHL SUB DUP4 DUP2 AND PUSH1 0x4 DUP4 ADD MSTORE PUSH1 0x2 PUSH1 0x24 DUP4 ADD MSTORE SWAP1 SWAP2 AND SWAP1 PUSH4 0x2E3036C7 SWAP1 PUSH1 0x44 ADD PUSH2 0x1404 JUMP JUMPDEST PUSH0 DUP1 SLOAD PUSH1 0x40 MLOAD PUSH4 0x95A8C58D PUSH1 0xE0 SHL DUP2 MSTORE PUSH1 0x1 PUSH1 0x1 PUSH1 0xA0 SHL SUB SWAP1 SWAP2 AND SWAP2 PUSH4 0x95A8C58D SWAP2 PUSH2 0x160D SWAP2 CALLER SWAP2 PUSH1 0x4 ADD PUSH2 0x4442 JUMP JUMPDEST PUSH1 0x20 PUSH1 0x40 MLOAD DUP1 DUP4 SUB DUP2 DUP7 GAS STATICCALL ISZERO DUP1 ISZERO PUSH2 0x1628 JUMPI RETURNDATASIZE PUSH0 PUSH0 RETURNDATACOPY RETURNDATASIZE PUSH0 REVERT JUMPDEST POP POP POP POP PUSH1 0x40 MLOAD RETURNDATASIZE PUSH1 0x1F NOT PUSH1 0x1F DUP3 ADD AND DUP3 ADD DUP1 PUSH1 0x40 MSTORE POP DUP2 ADD SWAP1 PUSH2 0x164C SWAP2 SWAP1 PUSH2 0x4473 JUMP JUMPDEST PUSH2 0x1668 JUMPI PUSH1 0x40 MLOAD PUSH3 0x461BCD PUSH1 0xE5 SHL DUP2 MSTORE PUSH1 0x4 ADD PUSH2 0x9F0 SWAP1 PUSH2 0x448E JUMP JUMPDEST PUSH1 0x2 SLOAD PUSH1 0x1 PUSH1 0x1 PUSH1 0xA0 SHL SUB AND PUSH2 0x1690 JUMPI PUSH1 0x40 MLOAD PUSH3 0x461BCD PUSH1 0xE5 SHL DUP2 MSTORE PUSH1 0x4 ADD PUSH2 0x9F0 SWAP1 PUSH2 0x4A67 JUMP JUMPDEST PUSH1 0x2 SLOAD PUSH1 0x40 MLOAD PUSH4 0x78697E5B PUSH1 0xE0 SHL DUP2 MSTORE PUSH1 0x1 PUSH1 0x1 PUSH1 0xA0 SHL SUB SWAP1 SWAP2 AND SWAP1 PUSH4 0x78697E5B SWAP1 PUSH2 0xA2E SWAP1 DUP6 SWAP1 DUP6 SWAP1 PUSH1 0x4 ADD PUSH2 0x4A9E JUMP JUMPDEST PUSH0 PUSH0 PUSH0 SWAP1 SLOAD SWAP1 PUSH2 0x100 EXP SWAP1 DIV PUSH1 0x1 PUSH1 0x1 PUSH1 0xA0 SHL SUB AND PUSH1 0x1 PUSH1 0x1 PUSH1 0xA0 SHL SUB AND PUSH4 0x893D20E8 PUSH1 0x40 MLOAD DUP2 PUSH4 0xFFFFFFFF AND PUSH1 0xE0 SHL DUP2 MSTORE PUSH1 0x4 ADD PUSH1 0x20 PUSH1 0x40 MLOAD DUP1 DUP4 SUB DUP2 DUP7 GAS STATICCALL ISZERO DUP1 ISZERO PUSH2 0x1712 JUMPI RETURNDATASIZE PUSH0 PUSH0 RETURNDATACOPY RETURNDATASIZE PUSH0 REVERT JUMPDEST POP POP POP POP PUSH1 0x40 MLOAD RETURNDATASIZE PUSH1 0x1F NOT PUSH1 0x1F DUP3 ADD AND DUP3 ADD DUP1 PUSH1 0x40 MSTORE POP DUP2 ADD SWAP1 PUSH2 0x960 SWAP2 SWAP1 PUSH2 0x4AB6 JUMP JUMPDEST PUSH0 DUP1 SLOAD PUSH1 0x40 MLOAD PUSH4 0x95A8C58D PUSH1 0xE0 SHL DUP2 MSTORE PUSH1 0x1 PUSH1 0x1 PUSH1 0xA0 SHL SUB SWAP1 SWAP2 AND SWAP2 PUSH4 0x95A8C58D SWAP2 PUSH2 0x1766 SWAP2 CALLER SWAP2 PUSH1 0x4 ADD PUSH2 0x4442 JUMP JUMPDEST PUSH1 0x20 PUSH1 0x40 MLOAD DUP1 DUP4 SUB DUP2 DUP7 GAS STATICCALL ISZERO DUP1 ISZERO PUSH2 0x1781 JUMPI RETURNDATASIZE PUSH0 PUSH0 RETURNDATACOPY RETURNDATASIZE PUSH0 REVERT JUMPDEST POP POP POP POP PUSH1 0x40 MLOAD RETURNDATASIZE PUSH1 0x1F NOT PUSH1 0x1F DUP3 ADD AND DUP3 ADD DUP1 PUSH1 0x40 MSTORE POP DUP2 ADD SWAP1 PUSH2 0x17A5 SWAP2 SWAP1 PUSH2 0x4473 JUMP JUMPDEST DUP1 PUSH2 0x181C JUMPI POP PUSH0 SLOAD PUSH1 0x40 MLOAD PUSH4 0x95A8C58D PUSH1 0xE0 SHL DUP2 MSTORE PUSH1 0x1 PUSH1 0x1 PUSH1 0xA0 SHL SUB SWAP1 SWAP2 AND SWAP1 PUSH4 0x95A8C58D SWAP1 PUSH2 0x17DD SWAP1 CALLER SWAP1 PUSH1 0x1 SWAP1 PUSH1 0x4 ADD PUSH2 0x4442 JUMP JUMPDEST PUSH1 0x20 PUSH1 0x40 MLOAD DUP1 DUP4 SUB DUP2 DUP7 GAS STATICCALL ISZERO DUP1 ISZERO PUSH2 0x17F8 JUMPI RETURNDATASIZE PUSH0 PUSH0 RETURNDATACOPY RETURNDATASIZE PUSH0 REVERT JUMPDEST POP POP POP POP PUSH1 0x40 MLOAD RETURNDATASIZE PUSH1 0x1F NOT PUSH1 0x1F DUP3 ADD AND DUP3 ADD DUP1 PUSH1 0x40 MSTORE POP DUP2 ADD SWAP1 PUSH2 0x181C SWAP2 SWAP1 PUSH2 0x4473 JUMP JUMPDEST PUSH2 0x1838 JUMPI PUSH1 0x40 MLOAD PUSH3 0x461BCD PUSH1 0xE5 SHL DUP2 MSTORE PUSH1 0x4 ADD PUSH2 0x9F0 SWAP1 PUSH2 0x4AD1 JUMP JUMPDEST PUSH1 0x4 DUP1 SLOAD PUSH1 0x40 MLOAD PUSH4 0x8A46E8EB PUSH1 0xE0 SHL DUP2 MSTORE PUSH1 0x1 PUSH1 0x1 PUSH1 0xA0 SHL SUB SWAP1 SWAP2 AND SWAP2 PUSH4 0x8A46E8EB SWAP2 PUSH2 0x122D SWAP2 DUP8 SWAP2 DUP8 SWAP2 DUP8 SWAP2 ADD PUSH2 0x4AFD JUMP JUMPDEST PUSH2 0x1873 PUSH2 0x2D77 JUMP JUMPDEST PUSH1 0x4 DUP1 SLOAD PUSH1 0x40 MLOAD PUSH4 0x8C9DA843 PUSH1 0xE0 SHL DUP2 MSTORE PUSH1 0x1 PUSH1 0x1 PUSH1 0xA0 SHL SUB SWAP1 SWAP2 AND SWAP2 PUSH4 0x8C9DA843 SWAP2 PUSH2 0x18AC SWAP2 DUP12 SWAP2 DUP12 SWAP2 DUP12 SWAP2 DUP12 SWAP2 DUP12 SWAP2 DUP12 SWAP2 ADD PUSH2 0x4B18 JUMP JUMPDEST PUSH0 PUSH1 0x40 MLOAD DUP1 DUP4 SUB DUP2 PUSH0 DUP8 GAS CALL ISZERO DUP1 ISZERO PUSH2 0x18C7 JUMPI RETURNDATASIZE PUSH0 PUSH0 RETURNDATACOPY RETURNDATASIZE PUSH0 REVERT JUMPDEST POP POP POP POP PUSH1 0x40 MLOAD RETURNDATASIZE PUSH0 DUP3 RETURNDATACOPY PUSH1 0x1F RETURNDATASIZE SWAP1 DUP2 ADD PUSH1 0x1F NOT AND DUP3 ADD PUSH1 0x40 MSTORE PUSH2 0x18EE SWAP2 SWAP1 DUP2 ADD SWAP1 PUSH2 0x4DD1 JUMP JUMPDEST SWAP8 SWAP7 POP POP POP POP POP POP POP JUMP JUMPDEST PUSH0 DUP1 SLOAD PUSH1 0x40 MLOAD PUSH4 0x95A8C58D PUSH1 0xE0 SHL DUP2 MSTORE PUSH1 0x60 SWAP3 PUSH1 0x1 PUSH1 0x1 PUSH1 0xA0 SHL SUB SWAP1 SWAP3 AND SWAP2 PUSH4 0x95A8C58D SWAP2 PUSH2 0x192C SWAP2 CALLER SWAP2 PUSH1 0x4 ADD PUSH2 0x4442 JUMP JUMPDEST PUSH1 0x20 PUSH1 0x40 MLOAD DUP1 DUP4 SUB DUP2 DUP7 GAS STATICCALL ISZERO DUP1 ISZERO PUSH2 0x1947 JUMPI RETURNDATASIZE PUSH0 PUSH0 RETURNDATACOPY RETURNDATASIZE PUSH0 REVERT JUMPDEST POP POP POP POP PUSH1 0x40 MLOAD RETURNDATASIZE PUSH1 0x1F NOT PUSH1 0x1F DUP3 ADD AND DUP3 ADD DUP1 PUSH1 0x40 MSTORE POP DUP2 ADD SWAP1 PUSH2 0x196B SWAP2 SWAP1 PUSH2 0x4473 JUMP JUMPDEST DUP1 PUSH2 0x19E2 JUMPI POP PUSH0 SLOAD PUSH1 0x40 MLOAD PUSH4 0x95A8C58D PUSH1 0xE0 SHL DUP2 MSTORE PUSH1 0x1 PUSH1 0x1 PUSH1 0xA0 SHL SUB SWAP1 SWAP2 AND SWAP1 PUSH4 0x95A8C58D SWAP1 PUSH2 0x19A3 SWAP1 CALLER SWAP1 PUSH1 0x1 SWAP1 PUSH1 0x4 ADD PUSH2 0x4442 JUMP JUMPDEST PUSH1 0x20 PUSH1 0x40 MLOAD DUP1 DUP4 SUB DUP2 DUP7 GAS STATICCALL ISZERO DUP1 ISZERO PUSH2 0x19BE JUMPI RETURNDATASIZE PUSH0 PUSH0 RETURNDATACOPY RETURNDATASIZE PUSH0 REVERT JUMPDEST POP POP POP POP PUSH1 0x40 MLOAD RETURNDATASIZE PUSH1 0x1F NOT PUSH1 0x1F DUP3 ADD AND DUP3 ADD DUP1 PUSH1 0x40 MSTORE POP DUP2 ADD SWAP1 PUSH2 0x19E2 SWAP2 SWAP1 PUSH2 0x4473 JUMP JUMPDEST PUSH2 0x19FE JUMPI PUSH1 0x40 MLOAD PUSH3 0x461BCD PUSH1 0xE5 SHL DUP2 MSTORE PUSH1 0x4 ADD PUSH2 0x9F0 SWAP1 PUSH2 0x4AD1 JUMP JUMPDEST PUSH1 0x4 DUP1 SLOAD PUSH1 0x40 MLOAD PUSH4 0x8CE2EC79 PUSH1 0xE0 SHL DUP2 MSTORE PUSH1 0x1 PUSH1 0x1 PUSH1 0xA0 SHL SUB SWAP1 SWAP2 AND SWAP2 PUSH4 0x8CE2EC79 SWAP2 PUSH2 0x1A2D SWAP2 DUP7 SWAP2 ADD PUSH2 0x4E02 JUMP JUMPDEST PUSH0 PUSH1 0x40 MLOAD DUP1 DUP4 SUB DUP2 DUP7 GAS STATICCALL ISZERO DUP1 ISZERO PUSH2 0x1A47 JUMPI RETURNDATASIZE PUSH0 PUSH0 RETURNDATACOPY RETURNDATASIZE PUSH0 REVERT JUMPDEST POP POP POP POP PUSH1 0x40 MLOAD RETURNDATASIZE PUSH0 DUP3 RETURNDATACOPY PUSH1 0x1F RETURNDATASIZE SWAP1 DUP2 ADD PUSH1 0x1F NOT AND DUP3 ADD PUSH1 0x40 MSTORE PUSH2 0xBF4 SWAP2 SWAP1 DUP2 ADD SWAP1 PUSH2 0x4E10 JUMP JUMPDEST SWAP2 SWAP1 POP JUMP JUMPDEST PUSH0 DUP1 SLOAD PUSH1 0x40 MLOAD PUSH4 0x95A8C58D PUSH1 0xE0 SHL DUP2 MSTORE PUSH1 0x1 PUSH1 0x1 PUSH1 0xA0 SHL SUB SWAP1 SWAP2 AND SWAP2 PUSH4 0x95A8C58D SWAP2 PUSH2 0x1AA3 SWAP2 CALLER SWAP2 PUSH1 0x4 ADD PUSH2 0x4442 JUMP JUMPDEST PUSH1 0x20 PUSH1 0x40 MLOAD DUP1 DUP4 SUB DUP2 DUP7 GAS STATICCALL ISZERO DUP1 ISZERO PUSH2 0x1ABE JUMPI RETURNDATASIZE PUSH0 PUSH0 RETURNDATACOPY RETURNDATASIZE PUSH0 REVERT JUMPDEST POP POP POP POP PUSH1 0x40 MLOAD RETURNDATASIZE PUSH1 0x1F NOT PUSH1 0x1F DUP3 ADD AND DUP3 ADD DUP1 PUSH1 0x40 MSTORE POP DUP2 ADD SWAP1 PUSH2 0x1AE2 SWAP2 SWAP1 PUSH2 0x4473 JUMP JUMPDEST PUSH2 0x1AFE JUMPI PUSH1 0x40 MLOAD PUSH3 0x461BCD PUSH1 0xE5 SHL DUP2 MSTORE PUSH1 0x4 ADD PUSH2 0x9F0 SWAP1 PUSH2 0x448E JUMP JUMPDEST PUSH1 0x3 SLOAD PUSH1 0x40 MLOAD PUSH4 0x257AF2C9 PUSH1 0xE2 SHL DUP2 MSTORE PUSH1 0x4 DUP2 ADD DUP5 SWAP1 MSTORE PUSH1 0x24 DUP2 ADD DUP4 SWAP1 MSTORE PUSH1 0x1 PUSH1 0x1 PUSH1 0xA0 SHL SUB SWAP1 SWAP2 AND SWAP1 PUSH4 0x95EBCB24 SWAP1 PUSH1 0x44 ADD PUSH2 0xA2E JUMP JUMPDEST PUSH1 0x7 SLOAD PUSH1 0x40 MLOAD PUSH4 0x4BE95C95 PUSH1 0xE1 SHL DUP2 MSTORE PUSH1 0x4 DUP2 ADD DUP4 SWAP1 MSTORE PUSH1 0x1 PUSH1 0x1 PUSH1 0xA0 SHL SUB SWAP1 SWAP2 AND SWAP1 PUSH4 0x97D2B92A SWAP1 PUSH1 0x24 ADD PUSH2 0x1404 JUMP JUMPDEST PUSH0 DUP1 SLOAD PUSH1 0x40 MLOAD PUSH4 0x95A8C58D PUSH1 0xE0 SHL DUP2 MSTORE PUSH1 0x1 PUSH1 0x1 PUSH1 0xA0 SHL SUB SWAP1 SWAP2 AND SWAP2 PUSH4 0x95A8C58D SWAP2 PUSH2 0x1B97 SWAP2 CALLER SWAP2 PUSH1 0x4 ADD PUSH2 0x4442 JUMP JUMPDEST PUSH1 0x20 PUSH1 0x40 MLOAD DUP1 DUP4 SUB DUP2 DUP7 GAS STATICCALL ISZERO DUP1 ISZERO PUSH2 0x1BB2 JUMPI RETURNDATASIZE PUSH0 PUSH0 RETURNDATACOPY RETURNDATASIZE PUSH0 REVERT JUMPDEST POP POP POP POP PUSH1 0x40 MLOAD RETURNDATASIZE PUSH1 0x1F NOT PUSH1 0x1F DUP3 ADD AND DUP3 ADD DUP1 PUSH1 0x40 MSTORE POP DUP2 ADD SWAP1 PUSH2 0x1BD6 SWAP2 SWAP1 PUSH2 0x4473 JUMP JUMPDEST PUSH2 0x1BF2 JUMPI PUSH1 0x40 MLOAD PUSH3 0x461BCD PUSH1 0xE5 SHL DUP2 MSTORE PUSH1 0x4 ADD PUSH2 0x9F0 SWAP1 PUSH2 0x448E JUMP JUMPDEST PUSH1 0x1 PUSH1 0x1 PUSH1 0xA0 SHL SUB DUP3 AND PUSH2 0x1C18 JUMPI PUSH1 0x40 MLOAD PUSH3 0x461BCD PUSH1 0xE5 SHL DUP2 MSTORE PUSH1 0x4 ADD PUSH2 0x9F0 SWAP1 PUSH2 0x47DA JUMP JUMPDEST PUSH1 0x1 PUSH1 0x1 PUSH1 0xA0 SHL SUB DUP2 AND PUSH2 0x1C3E JUMPI PUSH1 0x40 MLOAD PUSH3 0x461BCD PUSH1 0xE5 SHL DUP2 MSTORE PUSH1 0x4 ADD PUSH2 0x9F0 SWAP1 PUSH2 0x47DA JUMP JUMPDEST PUSH1 0x3 DUP1 SLOAD PUSH1 0x1 PUSH1 0x1 PUSH1 0xA0 SHL SUB NOT AND PUSH1 0x1 PUSH1 0x1 PUSH1 0xA0 SHL SUB DUP5 DUP2 AND SWAP2 DUP3 OR SWAP1 SWAP3 SSTORE PUSH1 0x40 MLOAD PUSH4 0xC0DA840D PUSH1 0xE0 SHL DUP2 MSTORE SWAP2 DUP4 AND PUSH1 0x4 DUP4 ADD MSTORE SWAP1 PUSH4 0xC0DA840D SWAP1 PUSH1 0x24 ADD PUSH2 0xA2E JUMP JUMPDEST PUSH1 0x6 SLOAD PUSH1 0x40 MLOAD PUSH4 0x53C33753 PUSH1 0xE1 SHL DUP2 MSTORE PUSH1 0x1 PUSH1 0x1 PUSH1 0xA0 SHL SUB SWAP1 SWAP2 AND SWAP1 PUSH4 0xA7866EA6 SWAP1 PUSH2 0x1CBB SWAP1 DUP10 SWAP1 DUP10 SWAP1 DUP10 SWAP1 DUP10 SWAP1 DUP10 SWAP1 DUP10 SWAP1 PUSH1 0x4 ADD PUSH2 0x4EB4 JUMP JUMPDEST PUSH0 PUSH1 0x40 MLOAD DUP1 DUP4 SUB DUP2 PUSH0 DUP8 DUP1 EXTCODESIZE ISZERO DUP1 ISZERO PUSH2 0x1CD2 JUMPI PUSH0 PUSH0 REVERT JUMPDEST POP GAS CALL ISZERO DUP1 ISZERO PUSH2 0x1CE4 JUMPI RETURNDATASIZE PUSH0 PUSH0 RETURNDATACOPY RETURNDATASIZE PUSH0 REVERT JUMPDEST POP POP POP POP POP POP POP POP POP POP JUMP JUMPDEST PUSH1 0x4 DUP1 SLOAD PUSH1 0x40 MLOAD PUSH4 0xAAB3196D PUSH1 0xE0 SHL DUP2 MSTORE PUSH1 0x1 PUSH1 0x1 PUSH1 0xA0 SHL SUB SWAP1 SWAP2 AND SWAP2 PUSH4 0xAAB3196D SWAP2 PUSH2 0xA2E SWAP2 DUP7 SWAP2 DUP7 SWAP2 ADD PUSH2 0x4EED JUMP JUMPDEST PUSH0 DUP1 SLOAD PUSH1 0x40 MLOAD PUSH4 0x95A8C58D PUSH1 0xE0 SHL DUP2 MSTORE PUSH1 0x1 PUSH1 0x1 PUSH1 0xA0 SHL SUB SWAP1 SWAP2 AND SWAP2 PUSH4 0x95A8C58D SWAP2 PUSH2 0x1D51 SWAP2 CALLER SWAP2 PUSH1 0x4 ADD PUSH2 0x4442 JUMP JUMPDEST PUSH1 0x20 PUSH1 0x40 MLOAD DUP1 DUP4 SUB DUP2 DUP7 GAS STATICCALL ISZERO DUP1 ISZERO PUSH2 0x1D6C JUMPI RETURNDATASIZE PUSH0 PUSH0 RETURNDATACOPY RETURNDATASIZE PUSH0 REVERT JUMPDEST POP POP POP POP PUSH1 0x40 MLOAD RETURNDATASIZE PUSH1 0x1F NOT PUSH1 0x1F DUP3 ADD AND DUP3 ADD DUP1 PUSH1 0x40 MSTORE POP DUP2 ADD SWAP1 PUSH2 0x1D90 SWAP2 SWAP1 PUSH2 0x4473 JUMP JUMPDEST PUSH2 0x1DAC JUMPI PUSH1 0x40 MLOAD PUSH3 0x461BCD PUSH1 0xE5 SHL DUP2 MSTORE PUSH1 0x4 ADD PUSH2 0x9F0 SWAP1 PUSH2 0x448E JUMP JUMPDEST PUSH1 0x5 SLOAD PUSH1 0x40 MLOAD PUSH4 0x55FAF41B PUSH1 0xE1 SHL DUP2 MSTORE PUSH1 0x4 DUP2 ADD DUP5 SWAP1 MSTORE PUSH1 0x1 PUSH1 0x1 PUSH1 0xA0 SHL SUB DUP4 DUP2 AND PUSH1 0x24 DUP4 ADD MSTORE SWAP1 SWAP2 AND SWAP1 PUSH4 0xABF5E836 SWAP1 PUSH1 0x44 ADD PUSH2 0xA2E JUMP JUMPDEST PUSH1 0x1 SLOAD PUSH1 0x40 MLOAD PUSH4 0xAF5607F9 PUSH1 0xE0 SHL DUP2 MSTORE PUSH1 0x4 DUP2 ADD DUP4 SWAP1 MSTORE PUSH1 0x60 SWAP2 PUSH1 0x1 PUSH1 0x1 PUSH1 0xA0 SHL SUB AND SWAP1 PUSH4 0xAF5607F9 SWAP1 PUSH1 0x24 ADD PUSH0 PUSH1 0x40 MLOAD DUP1 DUP4 SUB DUP2 DUP7 GAS STATICCALL ISZERO DUP1 ISZERO PUSH2 0x1E2C JUMPI RETURNDATASIZE PUSH0 PUSH0 RETURNDATACOPY RETURNDATASIZE PUSH0 REVERT JUMPDEST POP POP POP POP PUSH1 0x40 MLOAD RETURNDATASIZE PUSH0 DUP3 RETURNDATACOPY PUSH1 0x1F RETURNDATASIZE SWAP1 DUP2 ADD PUSH1 0x1F NOT AND DUP3 ADD PUSH1 0x40 MSTORE PUSH2 0xBF4 SWAP2 SWAP1 DUP2 ADD SWAP1 PUSH2 0x4FF9 JUMP JUMPDEST PUSH0 DUP1 SLOAD PUSH1 0x40 MLOAD PUSH4 0x95A8C58D PUSH1 0xE0 SHL DUP2 MSTORE PUSH1 0x1 PUSH1 0x1 PUSH1 0xA0 SHL SUB SWAP1 SWAP2 AND SWAP2 PUSH4 0x95A8C58D SWAP2 PUSH2 0x1E83 SWAP2 CALLER SWAP2 PUSH1 0x4 ADD PUSH2 0x4442 JUMP JUMPDEST PUSH1 0x20 PUSH1 0x40 MLOAD DUP1 DUP4 SUB DUP2 DUP7 GAS STATICCALL ISZERO DUP1 ISZERO PUSH2 0x1E9E JUMPI RETURNDATASIZE PUSH0 PUSH0 RETURNDATACOPY RETURNDATASIZE PUSH0 REVERT JUMPDEST POP POP POP POP PUSH1 0x40 MLOAD RETURNDATASIZE PUSH1 0x1F NOT PUSH1 0x1F DUP3 ADD AND DUP3 ADD DUP1 PUSH1 0x40 MSTORE POP DUP2 ADD SWAP1 PUSH2 0x1EC2 SWAP2 SWAP1 PUSH2 0x4473 JUMP JUMPDEST PUSH2 0x1EDE JUMPI PUSH1 0x40 MLOAD PUSH3 0x461BCD PUSH1 0xE5 SHL DUP2 MSTORE PUSH1 0x4 ADD PUSH2 0x9F0 SWAP1 PUSH2 0x448E JUMP JUMPDEST PUSH1 0x1 PUSH1 0x1 PUSH1 0xA0 SHL SUB DUP2 AND PUSH2 0x1F04 JUMPI PUSH1 0x40 MLOAD PUSH3 0x461BCD PUSH1 0xE5 SHL DUP2 MSTORE PUSH1 0x4 ADD PUSH2 0x9F0 SWAP1 PUSH2 0x47DA JUMP JUMPDEST PUSH1 0x1 PUSH1 0x1 PUSH1 0xA0 SHL SUB DUP3 AND PUSH2 0x1F2A JUMPI PUSH1 0x40 MLOAD PUSH3 0x461BCD PUSH1 0xE5 SHL DUP2 MSTORE PUSH1 0x4 ADD PUSH2 0x9F0 SWAP1 PUSH2 0x47DA JUMP JUMPDEST PUSH1 0x6 DUP1 SLOAD PUSH1 0x1 PUSH1 0x1 PUSH1 0xA0 SHL SUB NOT AND PUSH1 0x1 PUSH1 0x1 PUSH1 0xA0 SHL SUB DUP5 DUP2 AND SWAP2 DUP3 OR SWAP1 SWAP3 SSTORE PUSH1 0x40 MLOAD PUSH4 0xEA0F24E9 PUSH1 0xE0 SHL DUP2 MSTORE SWAP2 DUP4 AND PUSH1 0x4 DUP4 ADD MSTORE SWAP1 PUSH4 0xEA0F24E9 SWAP1 PUSH1 0x24 ADD PUSH2 0xA2E JUMP JUMPDEST PUSH1 0x6 SLOAD PUSH1 0x40 MLOAD PUSH4 0xB2FDFE05 PUSH1 0xE0 SHL DUP2 MSTORE PUSH1 0x1 PUSH1 0x1 PUSH1 0xA0 SHL SUB DUP4 DUP2 AND PUSH1 0x4 DUP4 ADD MSTORE PUSH1 0x60 SWAP3 AND SWAP1 PUSH4 0xB2FDFE05 SWAP1 PUSH1 0x24 ADD PUSH0 PUSH1 0x40 MLOAD DUP1 DUP4 SUB DUP2 DUP7 GAS STATICCALL ISZERO DUP1 ISZERO PUSH2 0x1FB5 JUMPI RETURNDATASIZE PUSH0 PUSH0 RETURNDATACOPY RETURNDATASIZE PUSH0 REVERT JUMPDEST POP POP POP POP PUSH1 0x40 MLOAD RETURNDATASIZE PUSH0 DUP3 RETURNDATACOPY PUSH1 0x1F RETURNDATASIZE SWAP1 DUP2 ADD PUSH1 0x1F NOT AND DUP3 ADD PUSH1 0x40 MSTORE PUSH2 0xBF4 SWAP2 SWAP1 DUP2 ADD SWAP1 PUSH2 0x5035 JUMP JUMPDEST PUSH0 DUP1 SLOAD PUSH1 0x40 MLOAD PUSH4 0x95A8C58D PUSH1 0xE0 SHL DUP2 MSTORE PUSH1 0x1 PUSH1 0x1 PUSH1 0xA0 SHL SUB SWAP1 SWAP2 AND SWAP2 PUSH4 0x95A8C58D SWAP2 PUSH2 0x200C SWAP2 CALLER SWAP2 PUSH1 0x4 ADD PUSH2 0x4442 JUMP JUMPDEST PUSH1 0x20 PUSH1 0x40 MLOAD DUP1 DUP4 SUB DUP2 DUP7 GAS STATICCALL ISZERO DUP1 ISZERO PUSH2 0x2027 JUMPI RETURNDATASIZE PUSH0 PUSH0 RETURNDATACOPY RETURNDATASIZE PUSH0 REVERT JUMPDEST POP POP POP POP PUSH1 0x40 MLOAD RETURNDATASIZE PUSH1 0x1F NOT PUSH1 0x1F DUP3 ADD AND DUP3 ADD DUP1 PUSH1 0x40 MSTORE POP DUP2 ADD SWAP1 PUSH2 0x204B SWAP2 SWAP1 PUSH2 0x4473 JUMP JUMPDEST PUSH2 0x2067 JUMPI PUSH1 0x40 MLOAD PUSH3 0x461BCD PUSH1 0xE5 SHL DUP2 MSTORE PUSH1 0x4 ADD PUSH2 0x9F0 SWAP1 PUSH2 0x448E JUMP JUMPDEST PUSH1 0x1 SLOAD PUSH1 0x40 MLOAD PUSH4 0x5A23D557 PUSH1 0xE1 SHL DUP2 MSTORE PUSH1 0x1 PUSH1 0x1 PUSH1 0xA0 SHL SUB SWAP1 SWAP2 AND SWAP1 PUSH4 0xB447AAAE SWAP1 PUSH2 0x1CBB SWAP1 DUP10 SWAP1 DUP10 SWAP1 DUP10 SWAP1 DUP10 SWAP1 DUP10 SWAP1 DUP10 SWAP1 PUSH1 0x4 ADD PUSH2 0x5186 JUMP JUMPDEST PUSH0 DUP1 SLOAD PUSH1 0x40 MLOAD PUSH4 0x95A8C58D PUSH1 0xE0 SHL DUP2 MSTORE PUSH1 0x1 PUSH1 0x1 PUSH1 0xA0 SHL SUB SWAP1 SWAP2 AND SWAP2 PUSH4 0x95A8C58D SWAP2 PUSH2 0x20D1 SWAP2 CALLER SWAP2 PUSH1 0x4 ADD PUSH2 0x4442 JUMP JUMPDEST PUSH1 0x20 PUSH1 0x40 MLOAD DUP1 DUP4 SUB DUP2 DUP7 GAS STATICCALL ISZERO DUP1 ISZERO PUSH2 0x20EC JUMPI RETURNDATASIZE PUSH0 PUSH0 RETURNDATACOPY RETURNDATASIZE PUSH0 REVERT JUMPDEST POP POP POP POP PUSH1 0x40 MLOAD RETURNDATASIZE PUSH1 0x1F NOT PUSH1 0x1F DUP3 ADD AND DUP3 ADD DUP1 PUSH1 0x40 MSTORE POP DUP2 ADD SWAP1 PUSH2 0x2110 SWAP2 SWAP1 PUSH2 0x4473 JUMP JUMPDEST DUP1 PUSH2 0x2187 JUMPI POP PUSH0 SLOAD PUSH1 0x40 MLOAD PUSH4 0x95A8C58D PUSH1 0xE0 SHL DUP2 MSTORE PUSH1 0x1 PUSH1 0x1 PUSH1 0xA0 SHL SUB SWAP1 SWAP2 AND SWAP1 PUSH4 0x95A8C58D SWAP1 PUSH2 0x2148 SWAP1 CALLER SWAP1 PUSH1 0x1 SWAP1 PUSH1 0x4 ADD PUSH2 0x4442 JUMP JUMPDEST PUSH1 0x20 PUSH1 0x40 MLOAD DUP1 DUP4 SUB DUP2 DUP7 GAS STATICCALL ISZERO DUP1 ISZERO PUSH2 0x2163 JUMPI RETURNDATASIZE PUSH0 PUSH0 RETURNDATACOPY RETURNDATASIZE PUSH0 REVERT JUMPDEST POP POP POP POP PUSH1 0x40 MLOAD RETURNDATASIZE PUSH1 0x1F NOT PUSH1 0x1F DUP3 ADD AND DUP3 ADD DUP1 PUSH1 0x40 MSTORE POP DUP2 ADD SWAP1 PUSH2 0x2187 SWAP2 SWAP1 PUSH2 0x4473 JUMP JUMPDEST PUSH2 0x21A3 JUMPI PUSH1 0x40 MLOAD PUSH3 0x461BCD PUSH1 0xE5 SHL DUP2 MSTORE PUSH1 0x4 ADD PUSH2 0x9F0 SWAP1 PUSH2 0x4AD1 JUMP JUMPDEST PUSH1 0x3 SLOAD PUSH1 0x40 MLOAD PUSH4 0x2D2BF54B PUSH1 0xE2 SHL DUP2 MSTORE PUSH1 0x1 PUSH1 0x1 PUSH1 0xA0 SHL SUB SWAP1 SWAP2 AND SWAP1 PUSH4 0xB4AFD52C SWAP1 PUSH2 0xA2E SWAP1 DUP6 SWAP1 DUP6 SWAP1 PUSH1 0x4 ADD PUSH2 0x51EB JUMP JUMPDEST PUSH1 0x1 SLOAD PUSH1 0x40 DUP1 MLOAD PUSH4 0x5CDAD573 PUSH1 0xE1 SHL DUP2 MSTORE SWAP1 MLOAD PUSH1 0x60 SWAP3 PUSH1 0x1 PUSH1 0x1 PUSH1 0xA0 SHL SUB AND SWAP2 PUSH4 0xB9B5AAE6 SWAP2 PUSH1 0x4 DUP1 DUP4 ADD SWAP3 PUSH0 SWAP3 SWAP2 SWAP1 DUP3 SWAP1 SUB ADD DUP2 DUP7 GAS STATICCALL ISZERO DUP1 ISZERO PUSH2 0x221C JUMPI RETURNDATASIZE PUSH0 PUSH0 RETURNDATACOPY RETURNDATASIZE PUSH0 REVERT JUMPDEST POP POP POP POP PUSH1 0x40 MLOAD RETURNDATASIZE PUSH0 DUP3 RETURNDATACOPY PUSH1 0x1F RETURNDATASIZE SWAP1 DUP2 ADD PUSH1 0x1F NOT AND DUP3 ADD PUSH1 0x40 MSTORE PUSH2 0x960 SWAP2 SWAP1 DUP2 ADD SWAP1 PUSH2 0x51FB JUMP JUMPDEST PUSH0 DUP1 SLOAD PUSH1 0x40 MLOAD PUSH4 0x95A8C58D PUSH1 0xE0 SHL DUP2 MSTORE PUSH1 0x1 PUSH1 0x1 PUSH1 0xA0 SHL SUB SWAP1 SWAP2 AND SWAP2 PUSH4 0x95A8C58D SWAP2 PUSH2 0x2273 SWAP2 CALLER SWAP2 PUSH1 0x4 ADD PUSH2 0x4442 JUMP JUMPDEST PUSH1 0x20 PUSH1 0x40 MLOAD DUP1 DUP4 SUB DUP2 DUP7 GAS STATICCALL ISZERO DUP1 ISZERO PUSH2 0x228E JUMPI RETURNDATASIZE PUSH0 PUSH0 RETURNDATACOPY RETURNDATASIZE PUSH0 REVERT JUMPDEST POP POP POP POP PUSH1 0x40 MLOAD RETURNDATASIZE PUSH1 0x1F NOT PUSH1 0x1F DUP3 ADD AND DUP3 ADD DUP1 PUSH1 0x40 MSTORE POP DUP2 ADD SWAP1 PUSH2 0x22B2 SWAP2 SWAP1 PUSH2 0x4473 JUMP JUMPDEST PUSH2 0x22CE JUMPI PUSH1 0x40 MLOAD PUSH3 0x461BCD PUSH1 0xE5 SHL DUP2 MSTORE PUSH1 0x4 ADD PUSH2 0x9F0 SWAP1 PUSH2 0x448E JUMP JUMPDEST PUSH1 0x1 PUSH1 0x1 PUSH1 0xA0 SHL SUB DUP2 AND PUSH2 0x22F4 JUMPI PUSH1 0x40 MLOAD PUSH3 0x461BCD PUSH1 0xE5 SHL DUP2 MSTORE PUSH1 0x4 ADD PUSH2 0x9F0 SWAP1 PUSH2 0x47DA JUMP JUMPDEST PUSH1 0x1 DUP1 SLOAD PUSH1 0x1 PUSH1 0x1 PUSH1 0xA0 SHL SUB NOT AND PUSH1 0x1 PUSH1 0x1 PUSH1 0xA0 SHL SUB SWAP3 SWAP1 SWAP3 AND SWAP2 SWAP1 SWAP2 OR SWAP1 SSTORE JUMP JUMPDEST PUSH0 DUP1 SLOAD PUSH1 0x40 MLOAD PUSH4 0x95A8C58D PUSH1 0xE0 SHL DUP2 MSTORE PUSH1 0x1 PUSH1 0x1 PUSH1 0xA0 SHL SUB SWAP1 SWAP2 AND SWAP2 PUSH4 0x95A8C58D SWAP2 PUSH2 0x2346 SWAP2 CALLER SWAP2 PUSH1 0x4 ADD PUSH2 0x4442 JUMP JUMPDEST PUSH1 0x20 PUSH1 0x40 MLOAD DUP1 DUP4 SUB DUP2 DUP7 GAS STATICCALL ISZERO DUP1 ISZERO PUSH2 0x2361 JUMPI RETURNDATASIZE PUSH0 PUSH0 RETURNDATACOPY RETURNDATASIZE PUSH0 REVERT JUMPDEST POP POP POP POP PUSH1 0x40 MLOAD RETURNDATASIZE PUSH1 0x1F NOT PUSH1 0x1F DUP3 ADD AND DUP3 ADD DUP1 PUSH1 0x40 MSTORE POP DUP2 ADD SWAP1 PUSH2 0x2385 SWAP2 SWAP1 PUSH2 0x4473 JUMP JUMPDEST PUSH2 0x23A1 JUMPI PUSH1 0x40 MLOAD PUSH3 0x461BCD PUSH1 0xE5 SHL DUP2 MSTORE PUSH1 0x4 ADD PUSH2 0x9F0 SWAP1 PUSH2 0x448E JUMP JUMPDEST PUSH1 0x1 SLOAD PUSH1 0x40 MLOAD PUSH4 0x5D7C2983 PUSH1 0xE1 SHL DUP2 MSTORE PUSH1 0x1 PUSH1 0x1 PUSH1 0xA0 SHL SUB SWAP1 SWAP2 AND SWAP1 PUSH4 0xBAF85306 SWAP1 PUSH2 0x122D SWAP1 DUP7 SWAP1 DUP7 SWAP1 DUP7 SWAP1 PUSH1 0x4 ADD PUSH2 0x530B JUMP JUMPDEST PUSH1 0x1 SLOAD PUSH1 0x40 DUP1 MLOAD PUSH4 0xCB0769B PUSH1 0xE4 SHL DUP2 MSTORE SWAP1 MLOAD PUSH1 0x60 SWAP3 PUSH1 0x1 PUSH1 0x1 PUSH1 0xA0 SHL SUB AND SWAP2 PUSH4 0xCB0769B0 SWAP2 PUSH1 0x4 DUP1 DUP4 ADD SWAP3 PUSH0 SWAP3 SWAP2 SWAP1 DUP3 SWAP1 SUB ADD DUP2 DUP7 GAS STATICCALL ISZERO DUP1 ISZERO PUSH2 0x221C JUMPI RETURNDATASIZE PUSH0 PUSH0 RETURNDATACOPY RETURNDATASIZE PUSH0 REVERT JUMPDEST PUSH0 DUP1 SLOAD PUSH1 0x40 MLOAD PUSH4 0x95A8C58D PUSH1 0xE0 SHL DUP2 MSTORE PUSH1 0x1 PUSH1 0x1 PUSH1 0xA0 SHL SUB SWAP1 SWAP2 AND SWAP2 PUSH4 0x95A8C58D SWAP2 PUSH2 0x244C SWAP2 CALLER SWAP2 PUSH1 0x4 ADD PUSH2 0x4442 JUMP JUMPDEST PUSH1 0x20 PUSH1 0x40 MLOAD DUP1 DUP4 SUB DUP2 DUP7 GAS STATICCALL ISZERO DUP1 ISZERO PUSH2 0x2467 JUMPI RETURNDATASIZE PUSH0 PUSH0 RETURNDATACOPY RETURNDATASIZE PUSH0 REVERT JUMPDEST POP POP POP POP PUSH1 0x40 MLOAD RETURNDATASIZE PUSH1 0x1F NOT PUSH1 0x1F DUP3 ADD AND DUP3 ADD DUP1 PUSH1 0x40 MSTORE POP DUP2 ADD SWAP1 PUSH2 0x248B SWAP2 SWAP1 PUSH2 0x4473 JUMP JUMPDEST PUSH2 0x24A7 JUMPI PUSH1 0x40 MLOAD PUSH3 0x461BCD PUSH1 0xE5 SHL DUP2 MSTORE PUSH1 0x4 ADD PUSH2 0x9F0 SWAP1 PUSH2 0x448E JUMP JUMPDEST PUSH1 0x2 SLOAD PUSH1 0x1 PUSH1 0x1 PUSH1 0xA0 SHL SUB AND PUSH2 0x24CF JUMPI PUSH1 0x40 MLOAD PUSH3 0x461BCD PUSH1 0xE5 SHL DUP2 MSTORE PUSH1 0x4 ADD PUSH2 0x9F0 SWAP1 PUSH2 0x4A67 JUMP JUMPDEST PUSH1 0x2 SLOAD PUSH1 0x40 MLOAD PUSH4 0xCECA737F PUSH1 0xE0 SHL DUP2 MSTORE PUSH1 0x4 DUP2 ADD DUP4 SWAP1 MSTORE PUSH1 0x1 PUSH1 0x1 PUSH1 0xA0 SHL SUB SWAP1 SWAP2 AND SWAP1 PUSH4 0xCECA737F SWAP1 PUSH1 0x24 ADD PUSH2 0x1404 JUMP JUMPDEST PUSH0 DUP1 SLOAD PUSH1 0x40 MLOAD PUSH4 0x95A8C58D PUSH1 0xE0 SHL DUP2 MSTORE PUSH1 0x1 PUSH1 0x1 PUSH1 0xA0 SHL SUB SWAP1 SWAP2 AND SWAP2 PUSH4 0x95A8C58D SWAP2 PUSH2 0x2530 SWAP2 CALLER SWAP2 PUSH1 0x4 ADD PUSH2 0x4442 JUMP JUMPDEST PUSH1 0x20 PUSH1 0x40 MLOAD DUP1 DUP4 SUB DUP2 DUP7 GAS STATICCALL ISZERO DUP1 ISZERO PUSH2 0x254B JUMPI RETURNDATASIZE PUSH0 PUSH0 RETURNDATACOPY RETURNDATASIZE PUSH0 REVERT JUMPDEST POP POP POP POP PUSH1 0x40 MLOAD RETURNDATASIZE PUSH1 0x1F NOT PUSH1 0x1F DUP3 ADD AND DUP3 ADD DUP1 PUSH1 0x40 MSTORE POP DUP2 ADD SWAP1 PUSH2 0x256F SWAP2 SWAP1 PUSH2 0x4473 JUMP JUMPDEST PUSH2 0x258B JUMPI PUSH1 0x40 MLOAD PUSH3 0x461BCD PUSH1 0xE5 SHL DUP2 MSTORE PUSH1 0x4 ADD PUSH2 0x9F0 SWAP1 PUSH2 0x448E JUMP JUMPDEST PUSH1 0x1 SLOAD PUSH1 0x40 MLOAD PUSH4 0xD198B65 PUSH1 0xE4 SHL DUP2 MSTORE PUSH1 0x4 DUP2 ADD DUP4 SWAP1 MSTORE PUSH1 0x1 PUSH1 0x1 PUSH1 0xA0 SHL SUB SWAP1 SWAP2 AND SWAP1 PUSH4 0xD198B650 SWAP1 PUSH1 0x24 ADD PUSH2 0x1404 JUMP JUMPDEST PUSH1 0x3 SLOAD PUSH1 0x40 MLOAD PUSH4 0x6A854F23 PUSH1 0xE1 SHL DUP2 MSTORE PUSH1 0x1 PUSH1 0x1 PUSH1 0xA0 SHL SUB SWAP1 SWAP2 AND SWAP1 PUSH4 0xD50A9E46 SWAP1 PUSH2 0xB03 SWAP1 DUP8 SWAP1 DUP8 SWAP1 DUP8 SWAP1 DUP8 SWAP1 PUSH1 0x4 ADD PUSH2 0x5332 JUMP JUMPDEST PUSH1 0x2 SLOAD PUSH1 0x60 SWAP1 PUSH1 0x1 PUSH1 0x1 PUSH1 0xA0 SHL SUB AND PUSH2 0x261D JUMPI PUSH1 0x40 MLOAD PUSH3 0x461BCD PUSH1 0xE5 SHL DUP2 MSTORE PUSH1 0x4 ADD PUSH2 0x9F0 SWAP1 PUSH2 0x4A67 JUMP JUMPDEST PUSH1 0x2 PUSH0 SWAP1 SLOAD SWAP1 PUSH2 0x100 EXP SWAP1 DIV PUSH1 0x1 PUSH1 0x1 PUSH1 0xA0 SHL SUB AND PUSH1 0x1 PUSH1 0x1 PUSH1 0xA0 SHL SUB AND PUSH4 0xDADD0A57 PUSH1 0x40 MLOAD DUP2 PUSH4 0xFFFFFFFF AND PUSH1 0xE0 SHL DUP2 MSTORE PUSH1 0x4 ADD PUSH0 PUSH1 0x40 MLOAD DUP1 DUP4 SUB DUP2 DUP7 GAS STATICCALL ISZERO DUP1 ISZERO PUSH2 0x266C JUMPI RETURNDATASIZE PUSH0 PUSH0 RETURNDATACOPY RETURNDATASIZE PUSH0 REVERT JUMPDEST POP POP POP POP PUSH1 0x40 MLOAD RETURNDATASIZE PUSH0 DUP3 RETURNDATACOPY PUSH1 0x1F RETURNDATASIZE SWAP1 DUP2 ADD PUSH1 0x1F NOT AND DUP3 ADD PUSH1 0x40 MSTORE PUSH2 0x960 SWAP2 SWAP1 DUP2 ADD SWAP1 PUSH2 0x53A5 JUMP JUMPDEST PUSH0 DUP1 SLOAD PUSH1 0x40 MLOAD PUSH4 0x95A8C58D PUSH1 0xE0 SHL DUP2 MSTORE PUSH1 0x1 PUSH1 0x1 PUSH1 0xA0 SHL SUB SWAP1 SWAP2 AND SWAP2 PUSH4 0x95A8C58D SWAP2 PUSH2 0x26C3 SWAP2 CALLER SWAP2 PUSH1 0x4 ADD PUSH2 0x4442 JUMP JUMPDEST PUSH1 0x20 PUSH1 0x40 MLOAD DUP1 DUP4 SUB DUP2 DUP7 GAS STATICCALL ISZERO DUP1 ISZERO PUSH2 0x26DE JUMPI RETURNDATASIZE PUSH0 PUSH0 RETURNDATACOPY RETURNDATASIZE PUSH0 REVERT JUMPDEST POP POP POP POP PUSH1 0x40 MLOAD RETURNDATASIZE PUSH1 0x1F NOT PUSH1 0x1F DUP3 ADD AND DUP3 ADD DUP1 PUSH1 0x40 MSTORE POP DUP2 ADD SWAP1 PUSH2 0x2702 SWAP2 SWAP1 PUSH2 0x4473 JUMP JUMPDEST PUSH2 0x271E JUMPI PUSH1 0x40 MLOAD PUSH3 0x461BCD PUSH1 0xE5 SHL DUP2 MSTORE PUSH1 0x4 ADD PUSH2 0x9F0 SWAP1 PUSH2 0x448E JUMP JUMPDEST PUSH1 0x5 SLOAD PUSH1 0x40 MLOAD PUSH4 0x372B557 PUSH1 0xE6 SHL DUP2 MSTORE PUSH1 0x1 PUSH1 0x1 PUSH1 0xA0 SHL SUB SWAP1 SWAP2 AND SWAP1 PUSH4 0xDCAD55C0 SWAP1 PUSH2 0x1131 SWAP1 DUP11 SWAP1 DUP11 SWAP1 DUP11 SWAP1 DUP11 SWAP1 DUP11 SWAP1 DUP11 SWAP1 DUP11 SWAP1 PUSH1 0x4 ADD PUSH2 0x4834 JUMP JUMPDEST PUSH2 0x2762 PUSH2 0x2DF4 JUMP JUMPDEST PUSH1 0x5 SLOAD PUSH1 0x40 MLOAD PUSH4 0x3775E541 PUSH1 0xE2 SHL DUP2 MSTORE PUSH1 0x1 PUSH1 0x1 PUSH1 0xA0 SHL SUB DUP5 DUP2 AND PUSH1 0x4 DUP4 ADD MSTORE SWAP1 SWAP2 AND SWAP1 PUSH4 0xDDD79504 SWAP1 PUSH1 0x24 ADD PUSH0 PUSH1 0x40 MLOAD DUP1 DUP4 SUB DUP2 DUP7 GAS STATICCALL ISZERO DUP1 ISZERO PUSH2 0x27A9 JUMPI RETURNDATASIZE PUSH0 PUSH0 RETURNDATACOPY RETURNDATASIZE PUSH0 REVERT JUMPDEST POP POP POP POP PUSH1 0x40 MLOAD RETURNDATASIZE PUSH0 DUP3 RETURNDATACOPY PUSH1 0x1F RETURNDATASIZE SWAP1 DUP2 ADD PUSH1 0x1F NOT AND DUP3 ADD PUSH1 0x40 MSTORE PUSH2 0xBF4 SWAP2 SWAP1 DUP2 ADD SWAP1 PUSH2 0x5449 JUMP JUMPDEST PUSH1 0x1 SLOAD PUSH1 0x40 DUP1 MLOAD PUSH4 0x710DD463 PUSH1 0xE1 SHL DUP2 MSTORE SWAP1 MLOAD PUSH1 0x60 SWAP3 PUSH1 0x1 PUSH1 0x1 PUSH1 0xA0 SHL SUB AND SWAP2 PUSH4 0xE21BA8C6 SWAP2 PUSH1 0x4 DUP1 DUP4 ADD SWAP3 PUSH0 SWAP3 SWAP2 SWAP1 DUP3 SWAP1 SUB ADD DUP2 DUP4 DUP8 GAS CALL ISZERO DUP1 ISZERO PUSH2 0x2818 JUMPI RETURNDATASIZE PUSH0 PUSH0 RETURNDATACOPY RETURNDATASIZE PUSH0 REVERT JUMPDEST POP POP POP POP PUSH1 0x40 MLOAD RETURNDATASIZE PUSH0 DUP3 RETURNDATACOPY PUSH1 0x1F RETURNDATASIZE SWAP1 DUP2 ADD PUSH1 0x1F NOT AND DUP3 ADD PUSH1 0x40 MSTORE PUSH2 0x960 SWAP2 SWAP1 DUP2 ADD SWAP1 PUSH2 0x4FF9 JUMP JUMPDEST PUSH0 DUP1 SLOAD PUSH1 0x40 MLOAD PUSH4 0x95A8C58D PUSH1 0xE0 SHL DUP2 MSTORE PUSH1 0x1 PUSH1 0x1 PUSH1 0xA0 SHL SUB SWAP1 SWAP2 AND SWAP2 PUSH4 0x95A8C58D SWAP2 PUSH2 0x286F SWAP2 CALLER SWAP2 PUSH1 0x4 ADD PUSH2 0x4442 JUMP JUMPDEST PUSH1 0x20 PUSH1 0x40 MLOAD DUP1 DUP4 SUB DUP2 DUP7 GAS STATICCALL ISZERO DUP1 ISZERO PUSH2 0x288A JUMPI RETURNDATASIZE PUSH0 PUSH0 RETURNDATACOPY RETURNDATASIZE PUSH0 REVERT JUMPDEST POP POP POP POP PUSH1 0x40 MLOAD RETURNDATASIZE PUSH1 0x1F NOT PUSH1 0x1F DUP3 ADD AND DUP3 ADD DUP1 PUSH1 0x40 MSTORE POP DUP2 ADD SWAP1 PUSH2 0x28AE SWAP2 SWAP1 PUSH2 0x4473 JUMP JUMPDEST PUSH2 0x28CA JUMPI PUSH1 0x40 MLOAD PUSH3 0x461BCD PUSH1 0xE5 SHL DUP2 MSTORE PUSH1 0x4 ADD PUSH2 0x9F0 SWAP1 PUSH2 0x448E JUMP JUMPDEST PUSH1 0x3 SLOAD PUSH1 0x40 MLOAD PUSH4 0x73798C63 PUSH1 0xE1 SHL DUP2 MSTORE PUSH1 0x4 DUP2 ADD DUP4 SWAP1 MSTORE PUSH1 0x1 PUSH1 0x1 PUSH1 0xA0 SHL SUB SWAP1 SWAP2 AND SWAP1 PUSH4 0xE6F318C6 SWAP1 PUSH1 0x24 ADD PUSH2 0x1404 JUMP JUMPDEST PUSH0 DUP1 SLOAD PUSH1 0x40 MLOAD PUSH4 0x95A8C58D PUSH1 0xE0 SHL DUP2 MSTORE PUSH1 0x1 PUSH1 0x1 PUSH1 0xA0 SHL SUB SWAP1 SWAP2 AND SWAP2 PUSH4 0x95A8C58D SWAP2 PUSH2 0x292B SWAP2 CALLER SWAP2 PUSH1 0x4 ADD PUSH2 0x4442 JUMP JUMPDEST PUSH1 0x20 PUSH1 0x40 MLOAD DUP1 DUP4 SUB DUP2 DUP7 GAS STATICCALL ISZERO DUP1 ISZERO PUSH2 0x2946 JUMPI RETURNDATASIZE PUSH0 PUSH0 RETURNDATACOPY RETURNDATASIZE PUSH0 REVERT JUMPDEST POP POP POP POP PUSH1 0x40 MLOAD RETURNDATASIZE PUSH1 0x1F NOT PUSH1 0x1F DUP3 ADD AND DUP3 ADD DUP1 PUSH1 0x40 MSTORE POP DUP2 ADD SWAP1 PUSH2 0x296A SWAP2 SWAP1 PUSH2 0x4473 JUMP JUMPDEST PUSH2 0x2986 JUMPI PUSH1 0x40 MLOAD PUSH3 0x461BCD PUSH1 0xE5 SHL DUP2 MSTORE PUSH1 0x4 ADD PUSH2 0x9F0 SWAP1 PUSH2 0x448E JUMP JUMPDEST PUSH1 0x1 PUSH1 0x1 PUSH1 0xA0 SHL SUB DUP2 AND PUSH2 0x29AC JUMPI PUSH1 0x40 MLOAD PUSH3 0x461BCD PUSH1 0xE5 SHL DUP2 MSTORE PUSH1 0x4 ADD PUSH2 0x9F0 SWAP1 PUSH2 0x47DA JUMP JUMPDEST PUSH1 0x5 DUP1 SLOAD PUSH1 0x1 PUSH1 0x1 PUSH1 0xA0 SHL SUB NOT AND PUSH1 0x1 PUSH1 0x1 PUSH1 0xA0 SHL SUB SWAP3 SWAP1 SWAP3 AND SWAP2 SWAP1 SWAP2 OR SWAP1 SSTORE JUMP JUMPDEST PUSH1 0x40 DUP1 MLOAD DUP1 DUP3 ADD SWAP1 SWAP2 MSTORE PUSH0 DUP2 MSTORE PUSH1 0x60 PUSH1 0x20 DUP3 ADD MSTORE PUSH1 0x2 SLOAD PUSH1 0x1 PUSH1 0x1 PUSH1 0xA0 SHL SUB AND PUSH2 0x2A0A JUMPI PUSH1 0x40 MLOAD PUSH3 0x461BCD PUSH1 0xE5 SHL DUP2 MSTORE PUSH1 0x4 ADD PUSH2 0x9F0 SWAP1 PUSH2 0x4A67 JUMP JUMPDEST PUSH1 0x2 SLOAD PUSH1 0x40 MLOAD PUSH4 0x79829693 PUSH1 0xE1 SHL DUP2 MSTORE PUSH1 0x4 DUP2 ADD DUP5 SWAP1 MSTORE PUSH1 0x1 PUSH1 0x1 PUSH1 0xA0 SHL SUB SWAP1 SWAP2 AND SWAP1 PUSH4 0xF3052D26 SWAP1 PUSH1 0x24 ADD PUSH0 PUSH1 0x40 MLOAD DUP1 DUP4 SUB DUP2 DUP7 GAS STATICCALL ISZERO DUP1 ISZERO PUSH2 0x2A50 JUMPI RETURNDATASIZE PUSH0 PUSH0 RETURNDATACOPY RETURNDATASIZE PUSH0 REVERT JUMPDEST POP POP POP POP PUSH1 0x40 MLOAD RETURNDATASIZE PUSH0 DUP3 RETURNDATACOPY PUSH1 0x1F RETURNDATASIZE SWAP1 DUP2 ADD PUSH1 0x1F NOT AND DUP3 ADD PUSH1 0x40 MSTORE PUSH2 0xBF4 SWAP2 SWAP1 DUP2 ADD SWAP1 PUSH2 0x547A JUMP JUMPDEST PUSH1 0x7 SLOAD PUSH1 0x40 MLOAD PUSH4 0xF44A8583 PUSH1 0xE0 SHL DUP2 MSTORE PUSH1 0x4 DUP2 ADD DUP4 SWAP1 MSTORE PUSH1 0x60 SWAP2 PUSH1 0x1 PUSH1 0x1 PUSH1 0xA0 SHL SUB AND SWAP1 PUSH4 0xF44A8583 SWAP1 PUSH1 0x24 ADD PUSH0 PUSH1 0x40 MLOAD DUP1 DUP4 SUB DUP2 DUP7 GAS STATICCALL ISZERO DUP1 ISZERO PUSH2 0x2ABE JUMPI RETURNDATASIZE PUSH0 PUSH0 RETURNDATACOPY RETURNDATASIZE PUSH0 REVERT JUMPDEST POP POP POP POP PUSH1 0x40 MLOAD RETURNDATASIZE PUSH0 DUP3 RETURNDATACOPY PUSH1 0x1F RETURNDATASIZE SWAP1 DUP2 ADD PUSH1 0x1F NOT AND DUP3 ADD PUSH1 0x40 MSTORE PUSH2 0xBF4 SWAP2 SWAP1 DUP2 ADD SWAP1 PUSH2 0x54AB JUMP JUMPDEST PUSH1 0x7 SLOAD PUSH1 0x40 MLOAD PUSH4 0x7B5C14D PUSH1 0xE5 SHL DUP2 MSTORE PUSH1 0x1 PUSH1 0x1 PUSH1 0xA0 SHL SUB SWAP1 SWAP2 AND SWAP1 PUSH4 0xF6B829A0 SWAP1 PUSH2 0xB03 SWAP1 DUP8 SWAP1 DUP8 SWAP1 DUP8 SWAP1 DUP8 SWAP1 PUSH1 0x4 ADD PUSH2 0x4614 JUMP JUMPDEST PUSH0 DUP1 SLOAD PUSH1 0x40 MLOAD PUSH4 0x95A8C58D PUSH1 0xE0 SHL DUP2 MSTORE PUSH1 0x1 PUSH1 0x1 PUSH1 0xA0 SHL SUB SWAP1 SWAP2 AND SWAP2 PUSH4 0x95A8C58D SWAP2 PUSH2 0x2B4B SWAP2 CALLER SWAP2 PUSH1 0x4 ADD PUSH2 0x4442 JUMP JUMPDEST PUSH1 0x20 PUSH1 0x40 MLOAD DUP1 DUP4 SUB DUP2 DUP7 GAS STATICCALL ISZERO DUP1 ISZERO PUSH2 0x2B66 JUMPI RETURNDATASIZE PUSH0 PUSH0 RETURNDATACOPY RETURNDATASIZE PUSH0 REVERT JUMPDEST POP POP POP POP PUSH1 0x40 MLOAD RETURNDATASIZE PUSH1 0x1F NOT PUSH1 0x1F DUP3 ADD AND DUP3 ADD DUP1 PUSH1 0x40 MSTORE POP DUP2 ADD SWAP1 PUSH2 0x2B8A SWAP2 SWAP1 PUSH2 0x4473 JUMP JUMPDEST PUSH2 0x2BA6 JUMPI PUSH1 0x40 MLOAD PUSH3 0x461BCD PUSH1 0xE5 SHL DUP2 MSTORE PUSH1 0x4 ADD PUSH2 0x9F0 SWAP1 PUSH2 0x448E JUMP JUMPDEST PUSH1 0x2 SLOAD PUSH1 0x1 PUSH1 0x1 PUSH1 0xA0 SHL SUB AND PUSH2 0x2BCE JUMPI PUSH1 0x40 MLOAD PUSH3 0x461BCD PUSH1 0xE5 SHL DUP2 MSTORE PUSH1 0x4 ADD PUSH2 0x9F0 SWAP1 PUSH2 0x4A67 JUMP JUMPDEST PUSH1 0x2 SLOAD PUSH1 0x40 MLOAD PUSH4 0x7BC34529 PUSH1 0xE1 SHL DUP2 MSTORE PUSH1 0x1 PUSH1 0x1 PUSH1 0xA0 SHL SUB SWAP1 SWAP2 AND SWAP1 PUSH4 0xF7868A52 SWAP1 PUSH2 0xA2E SWAP1 DUP6 SWAP1 DUP6 SWAP1 PUSH1 0x4 ADD PUSH2 0x4A9E JUMP JUMPDEST PUSH0 DUP1 SLOAD PUSH1 0x40 MLOAD PUSH4 0x95A8C58D PUSH1 0xE0 SHL DUP2 MSTORE PUSH1 0x1 PUSH1 0x1 PUSH1 0xA0 SHL SUB SWAP1 SWAP2 AND SWAP1 PUSH4 0x95A8C58D SWAP1 PUSH2 0x2C32 SWAP1 CALLER SWAP1 DUP6 SWAP1 PUSH1 0x4 ADD PUSH2 0x4442 JUMP JUMPDEST PUSH1 0x20 PUSH1 0x40 MLOAD DUP1 DUP4 SUB DUP2 DUP7 GAS STATICCALL ISZERO DUP1 ISZERO PUSH2 0x2C4D JUMPI RETURNDATASIZE PUSH0 PUSH0 RETURNDATACOPY RETURNDATASIZE PUSH0 REVERT JUMPDEST POP POP POP POP PUSH1 0x40 MLOAD RETURNDATASIZE PUSH1 0x1F NOT PUSH1 0x1F DUP3 ADD AND DUP3 ADD DUP1 PUSH1 0x40 MSTORE POP DUP2 ADD SWAP1 PUSH2 0x2C71 SWAP2 SWAP1 PUSH2 0x4473 JUMP JUMPDEST PUSH2 0x2C8D JUMPI PUSH1 0x40 MLOAD PUSH3 0x461BCD PUSH1 0xE5 SHL DUP2 MSTORE PUSH1 0x4 ADD PUSH2 0x9F0 SWAP1 PUSH2 0x448E JUMP JUMPDEST PUSH1 0x3 SLOAD PUSH1 0x40 MLOAD PUSH4 0xFB25D32F PUSH1 0xE0 SHL DUP2 MSTORE PUSH1 0x1 PUSH1 0x1 PUSH1 0xA0 SHL SUB SWAP1 SWAP2 AND SWAP1 PUSH4 0xFB25D32F SWAP1 PUSH2 0x2CC1 SWAP1 DUP8 SWAP1 DUP8 SWAP1 DUP8 SWAP1 PUSH1 0x4 ADD PUSH2 0x55F5 JUMP JUMPDEST PUSH1 0x20 PUSH1 0x40 MLOAD DUP1 DUP4 SUB DUP2 PUSH0 DUP8 GAS CALL ISZERO DUP1 ISZERO PUSH2 0x2CDD JUMPI RETURNDATASIZE PUSH0 PUSH0 RETURNDATACOPY RETURNDATASIZE PUSH0 REVERT JUMPDEST POP POP POP POP PUSH1 0x40 MLOAD RETURNDATASIZE PUSH1 0x1F NOT PUSH1 0x1F DUP3 ADD AND DUP3 ADD DUP1 PUSH1 0x40 MSTORE POP DUP2 ADD SWAP1 PUSH2 0x2D01 SWAP2 SWAP1 PUSH2 0x4A50 JUMP JUMPDEST SWAP1 POP JUMPDEST SWAP4 SWAP3 POP POP POP JUMP JUMPDEST PUSH1 0x6 SLOAD PUSH1 0x40 MLOAD PUSH4 0x3F34C88F PUSH1 0xE2 SHL DUP2 MSTORE PUSH1 0x4 DUP2 ADD DUP4 SWAP1 MSTORE PUSH1 0x1 PUSH1 0x1 PUSH1 0xA0 SHL SUB SWAP1 SWAP2 AND SWAP1 PUSH4 0xFCD3223C SWAP1 PUSH1 0x24 ADD PUSH2 0x1404 JUMP JUMPDEST PUSH1 0x40 MLOAD DUP1 PUSH1 0xA0 ADD PUSH1 0x40 MSTORE DUP1 PUSH0 DUP2 MSTORE PUSH1 0x20 ADD PUSH0 DUP2 MSTORE PUSH1 0x20 ADD PUSH0 DUP2 MSTORE PUSH1 0x20 ADD PUSH1 0x60 DUP2 MSTORE PUSH1 0x20 ADD PUSH0 PUSH1 0x1 DUP2 GT ISZERO PUSH2 0x2D72 JUMPI PUSH2 0x2D72 PUSH2 0x2E6F JUMP JUMPDEST SWAP1 MSTORE SWAP1 JUMP JUMPDEST PUSH1 0x40 MLOAD DUP1 PUSH2 0x180 ADD PUSH1 0x40 MSTORE DUP1 PUSH0 DUP2 MSTORE PUSH1 0x20 ADD PUSH0 PUSH1 0x1 PUSH1 0x1 PUSH1 0xA0 SHL SUB AND DUP2 MSTORE PUSH1 0x20 ADD PUSH1 0x60 DUP2 MSTORE PUSH1 0x20 ADD PUSH1 0x60 DUP2 MSTORE PUSH1 0x20 ADD PUSH1 0x60 DUP2 MSTORE PUSH1 0x20 ADD PUSH1 0x60 DUP2 MSTORE PUSH1 0x20 ADD PUSH0 PUSH1 0x1 PUSH1 0x1 PUSH1 0xA0 SHL SUB AND DUP2 MSTORE PUSH1 0x20 ADD PUSH0 DUP2 MSTORE PUSH1 0x20 ADD PUSH1 0x60 DUP2 MSTORE PUSH1 0x20 ADD PUSH0 DUP2 MSTORE PUSH1 0x20 ADD PUSH0 PUSH1 0x3 DUP2 GT ISZERO PUSH2 0x2DE8 JUMPI PUSH2 0x2DE8 PUSH2 0x2E6F JUMP JUMPDEST DUP2 MSTORE PUSH1 0x20 ADD PUSH0 DUP2 MSTORE POP SWAP1 JUMP JUMPDEST PUSH1 0x40 MLOAD DUP1 PUSH1 0xE0 ADD PUSH1 0x40 MSTORE DUP1 PUSH0 PUSH1 0x1 PUSH1 0x1 PUSH1 0xA0 SHL SUB AND DUP2 MSTORE PUSH1 0x20 ADD PUSH1 0x60 DUP2 MSTORE PUSH1 0x20 ADD PUSH1 0x60 DUP2 MSTORE PUSH1 0x20 ADD PUSH1 0x60 DUP2 MSTORE PUSH1 0x20 ADD PUSH0 DUP2 MSTORE PUSH1 0x20 ADD PUSH0 DUP2 MSTORE PUSH1 0x20 ADD PUSH0 PUSH1 0x1 DUP2 GT ISZERO PUSH2 0x2D72 JUMPI PUSH2 0x2D72 PUSH2 0x2E6F JUMP JUMPDEST PUSH0 DUP2 MLOAD DUP1 DUP5 MSTORE DUP1 PUSH1 0x20 DUP5 ADD PUSH1 0x20 DUP7 ADD MCOPY PUSH0 PUSH1 0x20 DUP3 DUP7 ADD ADD MSTORE PUSH1 0x20 PUSH1 0x1F NOT PUSH1 0x1F DUP4 ADD AND DUP6 ADD ADD SWAP2 POP POP SWAP3 SWAP2 POP POP JUMP JUMPDEST PUSH4 0x4E487B71 PUSH1 0xE0 SHL PUSH0 MSTORE PUSH1 0x21 PUSH1 0x4 MSTORE PUSH1 0x24 PUSH0 REVERT JUMPDEST PUSH1 0x2 DUP2 LT PUSH2 0x2E93 JUMPI PUSH2 0x2E93 PUSH2 0x2E6F JUMP JUMPDEST POP JUMP JUMPDEST PUSH1 0x1 DUP1 PUSH1 0xA0 SHL SUB DUP2 MLOAD AND DUP3 MSTORE PUSH0 PUSH1 0x20 DUP3 ADD MLOAD PUSH1 0xE0 PUSH1 0x20 DUP6 ADD MSTORE PUSH2 0x2EBC PUSH1 0xE0 DUP6 ADD DUP3 PUSH2 0x2E41 JUMP JUMPDEST SWAP1 POP PUSH1 0x40 DUP4 ADD MLOAD DUP5 DUP3 SUB PUSH1 0x40 DUP7 ADD MSTORE PUSH2 0x2ED5 DUP3 DUP3 PUSH2 0x2E41 JUMP JUMPDEST SWAP2 POP POP PUSH1 0x60 DUP4 ADD MLOAD DUP5 DUP3 SUB PUSH1 0x60 DUP7 ADD MSTORE PUSH2 0x2EEF DUP3 DUP3 PUSH2 0x2E41 JUMP JUMPDEST SWAP2 POP POP PUSH1 0x80 DUP4 ADD MLOAD PUSH1 0x80 DUP6 ADD MSTORE PUSH1 0xA0 DUP4 ADD MLOAD PUSH1 0xA0 DUP6 ADD MSTORE PUSH1 0xC0 DUP4 ADD MLOAD PUSH2 0x2F14 DUP2 PUSH2 0x2E83 JUMP JUMPDEST DUP1 PUSH1 0xC0 DUP7 ADD MSTORE POP DUP1 SWAP2 POP POP SWAP3 SWAP2 POP POP JUMP JUMPDEST PUSH0 PUSH1 0x20 DUP3 ADD PUSH1 0x20 DUP4 MSTORE DUP1 DUP5 MLOAD DUP1 DUP4 MSTORE PUSH1 0x40 DUP6 ADD SWAP2 POP PUSH1 0x40 DUP2 PUSH1 0x5 SHL DUP7 ADD ADD SWAP3 POP PUSH1 0x20 DUP7 ADD PUSH0 JUMPDEST DUP3 DUP2 LT ISZERO PUSH2 0x2F7C JUMPI PUSH1 0x3F NOT DUP8 DUP7 SUB ADD DUP5 MSTORE PUSH2 0x2F67 DUP6 DUP4 MLOAD PUSH2 0x2E96 JUMP JUMPDEST SWAP5 POP PUSH1 0x20 SWAP4 DUP5 ADD SWAP4 SWAP2 SWAP1 SWAP2 ADD SWAP1 PUSH1 0x1 ADD PUSH2 0x2F4B JUMP JUMPDEST POP SWAP3 SWAP7 SWAP6 POP POP POP POP POP POP JUMP JUMPDEST DUP1 ISZERO ISZERO DUP2 EQ PUSH2 0x2E93 JUMPI PUSH0 PUSH0 REVERT JUMPDEST PUSH0 PUSH0 PUSH1 0x40 DUP4 DUP6 SUB SLT ISZERO PUSH2 0x2FA6 JUMPI PUSH0 PUSH0 REVERT JUMPDEST DUP3 CALLDATALOAD SWAP2 POP PUSH1 0x20 DUP4 ADD CALLDATALOAD PUSH2 0x2FB8 DUP2 PUSH2 0x2F88 JUMP JUMPDEST DUP1 SWAP2 POP POP SWAP3 POP SWAP3 SWAP1 POP JUMP JUMPDEST DUP1 MLOAD DUP3 MSTORE PUSH1 0x20 DUP2 ADD MLOAD PUSH1 0x20 DUP4 ADD MSTORE PUSH1 0x40 DUP2 ADD MLOAD PUSH1 0x40 DUP4 ADD MSTORE PUSH0 PUSH1 0x60 DUP3 ADD MLOAD PUSH1 0xA0 PUSH1 0x60 DUP6 ADD MSTORE PUSH2 0x2FF5 PUSH1 0xA0 DUP6 ADD DUP3 PUSH2 0x2E41 JUMP JUMPDEST SWAP1 POP PUSH1 0x80 DUP4 ADD MLOAD PUSH2 0x3005 DUP2 PUSH2 0x2E83 JUMP JUMPDEST DUP1 PUSH1 0x80 DUP7 ADD MSTORE POP DUP1 SWAP2 POP POP SWAP3 SWAP2 POP POP JUMP JUMPDEST PUSH0 PUSH1 0x20 DUP3 ADD PUSH1 0x20 DUP4 MSTORE DUP1 DUP5 MLOAD DUP1 DUP4 MSTORE PUSH1 0x40 DUP6 ADD SWAP2 POP PUSH1 0x40 DUP2 PUSH1 0x5 SHL DUP7 ADD ADD SWAP3 POP PUSH1 0x20 DUP7 ADD PUSH0 JUMPDEST DUP3 DUP2 LT ISZERO PUSH2 0x2F7C JUMPI PUSH1 0x3F NOT DUP8 DUP7 SUB ADD DUP5 MSTORE PUSH2 0x3058 DUP6 DUP4 MLOAD PUSH2 0x2FC3 JUMP JUMPDEST SWAP5 POP PUSH1 0x20 SWAP4 DUP5 ADD SWAP4 SWAP2 SWAP1 SWAP2 ADD SWAP1 PUSH1 0x1 ADD PUSH2 0x303C JUMP JUMPDEST PUSH0 PUSH0 DUP4 PUSH1 0x1F DUP5 ADD SLT PUSH2 0x307D JUMPI PUSH0 PUSH0 REVERT JUMPDEST POP DUP2 CALLDATALOAD PUSH1 0x1 PUSH1 0x1 PUSH1 0x40 SHL SUB DUP2 GT ISZERO PUSH2 0x3093 JUMPI PUSH0 PUSH0 REVERT JUMPDEST PUSH1 0x20 DUP4 ADD SWAP2 POP DUP4 PUSH1 0x20 DUP3 DUP6 ADD ADD GT ISZERO PUSH2 0x30AA JUMPI PUSH0 PUSH0 REVERT JUMPDEST SWAP3 POP SWAP3 SWAP1 POP JUMP JUMPDEST PUSH1 0xFF DUP2 AND DUP2 EQ PUSH2 0x2E93 JUMPI PUSH0 PUSH0 REVERT JUMPDEST PUSH0 PUSH0 PUSH0 PUSH0 PUSH1 0x60 DUP6 DUP8 SUB SLT ISZERO PUSH2 0x30D2 JUMPI PUSH0 PUSH0 REVERT JUMPDEST DUP5 CALLDATALOAD SWAP4 POP PUSH1 0x20 DUP6 ADD CALLDATALOAD PUSH1 0x1 PUSH1 0x1 PUSH1 0x40 SHL SUB DUP2 GT ISZERO PUSH2 0x30EE JUMPI PUSH0 PUSH0 REVERT JUMPDEST PUSH2 0x30FA DUP8 DUP3 DUP9 ADD PUSH2 0x306D JUMP JUMPDEST SWAP1 SWAP5 POP SWAP3 POP POP PUSH1 0x40 DUP6 ADD CALLDATALOAD PUSH2 0x310E DUP2 PUSH2 0x30B1 JUMP JUMPDEST SWAP4 SWAP7 SWAP3 SWAP6 POP SWAP1 SWAP4 POP POP JUMP JUMPDEST PUSH0 PUSH1 0x20 DUP3 DUP5 SUB SLT ISZERO PUSH2 0x3129 JUMPI PUSH0 PUSH0 REVERT JUMPDEST POP CALLDATALOAD SWAP2 SWAP1 POP JUMP JUMPDEST PUSH0 DUP3 DUP3 MLOAD DUP1 DUP6 MSTORE PUSH1 0x20 DUP6 ADD SWAP5 POP PUSH1 0x20 DUP2 PUSH1 0x5 SHL DUP4 ADD ADD PUSH1 0x20 DUP6 ADD PUSH0 JUMPDEST DUP4 DUP2 LT ISZERO PUSH2 0x317E JUMPI PUSH1 0x1F NOT DUP6 DUP5 SUB ADD DUP9 MSTORE PUSH2 0x3168 DUP4 DUP4 MLOAD PUSH2 0x2E41 JUMP JUMPDEST PUSH1 0x20 SWAP9 DUP10 ADD SWAP9 SWAP1 SWAP4 POP SWAP2 SWAP1 SWAP2 ADD SWAP1 PUSH1 0x1 ADD PUSH2 0x314C JUMP JUMPDEST POP SWAP1 SWAP7 SWAP6 POP POP POP POP POP POP JUMP JUMPDEST DUP1 MLOAD DUP3 MSTORE PUSH0 PUSH1 0x20 DUP3 ADD MLOAD PUSH2 0x140 PUSH1 0x20 DUP6 ADD MSTORE PUSH2 0x31AA PUSH2 0x140 DUP6 ADD DUP3 PUSH2 0x2E41 JUMP JUMPDEST SWAP1 POP PUSH1 0x40 DUP4 ADD MLOAD DUP5 DUP3 SUB PUSH1 0x40 DUP7 ADD MSTORE PUSH2 0x31C3 DUP3 DUP3 PUSH2 0x2E41 JUMP JUMPDEST SWAP2 POP POP PUSH1 0x60 DUP4 ADD MLOAD PUSH1 0x60 DUP6 ADD MSTORE PUSH1 0x80 DUP4 ADD MLOAD DUP5 DUP3 SUB PUSH1 0x80 DUP7 ADD MSTORE PUSH2 0x31E7 DUP3 DUP3 PUSH2 0x3130 JUMP JUMPDEST SWAP2 POP POP PUSH1 0xA0 DUP4 ADD MLOAD PUSH1 0xA0 DUP6 ADD MSTORE PUSH1 0xC0 DUP4 ADD MLOAD PUSH1 0xC0 DUP6 ADD MSTORE PUSH1 0xE0 DUP4 ADD MLOAD PUSH1 0xE0 DUP6 ADD MSTORE PUSH2 0x100 DUP4 ADD MLOAD PUSH2 0x100 DUP6 ADD MSTORE PUSH2 0x120 DUP4 ADD MLOAD PUSH2 0x3229 PUSH2 0x120 DUP7 ADD DUP3 ISZERO ISZERO SWAP1 MSTORE JUMP JUMPDEST POP SWAP4 SWAP3 POP POP POP JUMP JUMPDEST PUSH1 0x20 DUP2 MSTORE PUSH0 PUSH2 0x2D04 PUSH1 0x20 DUP4 ADD DUP5 PUSH2 0x318A JUMP JUMPDEST PUSH1 0x1 PUSH1 0x1 PUSH1 0xA0 SHL SUB DUP2 AND DUP2 EQ PUSH2 0x2E93 JUMPI PUSH0 PUSH0 REVERT JUMPDEST PUSH0 PUSH1 0x20 DUP3 DUP5 SUB SLT ISZERO PUSH2 0x3267 JUMPI PUSH0 PUSH0 REVERT JUMPDEST DUP2 CALLDATALOAD PUSH2 0x2D04 DUP2 PUSH2 0x3243 JUMP JUMPDEST PUSH1 0x20 DUP2 MSTORE PUSH0 PUSH2 0x2D04 PUSH1 0x20 DUP4 ADD DUP5 PUSH2 0x2FC3 JUMP JUMPDEST PUSH0 PUSH0 PUSH1 0x40 DUP4 DUP6 SUB SLT ISZERO PUSH2 0x3295 JUMPI PUSH0 PUSH0 REVERT JUMPDEST DUP3 CALLDATALOAD PUSH2 0x32A0 DUP2 PUSH2 0x3243 JUMP JUMPDEST SWAP2 POP PUSH1 0x20 DUP4 ADD CALLDATALOAD PUSH2 0x2FB8 DUP2 PUSH2 0x3243 JUMP JUMPDEST PUSH0 PUSH0 PUSH1 0x40 DUP4 DUP6 SUB SLT ISZERO PUSH2 0x32C1 JUMPI PUSH0 PUSH0 REVERT JUMPDEST POP POP DUP1 CALLDATALOAD SWAP3 PUSH1 0x20 SWAP1 SWAP2 ADD CALLDATALOAD SWAP2 POP JUMP JUMPDEST PUSH0 PUSH0 PUSH0 PUSH0 PUSH0 PUSH0 PUSH0 PUSH1 0x80 DUP9 DUP11 SUB SLT ISZERO PUSH2 0x32E6 JUMPI PUSH0 PUSH0 REVERT JUMPDEST DUP8 CALLDATALOAD PUSH2 0x32F1 DUP2 PUSH2 0x3243 JUMP JUMPDEST SWAP7 POP PUSH1 0x20 DUP9 ADD CALLDATALOAD PUSH1 0x1 PUSH1 0x1 PUSH1 0x40 SHL SUB DUP2 GT ISZERO PUSH2 0x330B JUMPI PUSH0 PUSH0 REVERT JUMPDEST PUSH2 0x3317 DUP11 DUP3 DUP12 ADD PUSH2 0x306D JUMP JUMPDEST SWAP1 SWAP8 POP SWAP6 POP POP PUSH1 0x40 DUP9 ADD CALLDATALOAD PUSH1 0x1 PUSH1 0x1 PUSH1 0x40 SHL SUB DUP2 GT ISZERO PUSH2 0x3335 JUMPI PUSH0 PUSH0 REVERT JUMPDEST PUSH2 0x3341 DUP11 DUP3 DUP12 ADD PUSH2 0x306D JUMP JUMPDEST SWAP1 SWAP6 POP SWAP4 POP POP PUSH1 0x60 DUP9 ADD CALLDATALOAD PUSH1 0x1 PUSH1 0x1 PUSH1 0x40 SHL SUB DUP2 GT ISZERO PUSH2 0x335F JUMPI PUSH0 PUSH0 REVERT JUMPDEST PUSH2 0x336B DUP11 DUP3 DUP12 ADD PUSH2 0x306D JUMP JUMPDEST SWAP9 SWAP12 SWAP8 SWAP11 POP SWAP6 SWAP9 POP SWAP4 SWAP7 SWAP3 SWAP6 SWAP3 SWAP4 POP POP POP JUMP JUMPDEST PUSH0 PUSH0 PUSH0 PUSH1 0x60 DUP5 DUP7 SUB SLT ISZERO PUSH2 0x3390 JUMPI PUSH0 PUSH0 REVERT JUMPDEST POP POP DUP2 CALLDATALOAD SWAP4 PUSH1 0x20 DUP4 ADD CALLDATALOAD SWAP4 POP PUSH1 0x40 SWAP1 SWAP3 ADD CALLDATALOAD SWAP2 SWAP1 POP JUMP JUMPDEST PUSH0 PUSH0 PUSH0 PUSH1 0x60 DUP5 DUP7 SUB SLT ISZERO PUSH2 0x33B9 JUMPI PUSH0 PUSH0 REVERT JUMPDEST DUP4 CALLDATALOAD SWAP3 POP PUSH1 0x20 DUP5 ADD CALLDATALOAD SWAP2 POP PUSH1 0x40 DUP5 ADD CALLDATALOAD PUSH2 0x33D2 DUP2 PUSH2 0x2F88 JUMP JUMPDEST DUP1 SWAP2 POP POP SWAP3 POP SWAP3 POP SWAP3 JUMP JUMPDEST PUSH1 0x20 DUP1 DUP3 MSTORE DUP3 MLOAD DUP3 DUP3 ADD DUP2 SWAP1 MSTORE PUSH0 SWAP2 DUP5 ADD SWAP1 PUSH1 0x40 DUP5 ADD SWAP1 DUP4 JUMPDEST DUP2 DUP2 LT ISZERO PUSH2 0x3414 JUMPI DUP4 MLOAD DUP4 MSTORE PUSH1 0x20 SWAP4 DUP5 ADD SWAP4 SWAP1 SWAP3 ADD SWAP2 PUSH1 0x1 ADD PUSH2 0x33F6 JUMP JUMPDEST POP SWAP1 SWAP6 SWAP5 POP POP POP POP POP JUMP JUMPDEST PUSH4 0x4E487B71 PUSH1 0xE0 SHL PUSH0 MSTORE PUSH1 0x41 PUSH1 0x4 MSTORE PUSH1 0x24 PUSH0 REVERT JUMPDEST PUSH1 0x40 MLOAD PUSH1 0x60 DUP2 ADD PUSH1 0x1 PUSH1 0x1 PUSH1 0x40 SHL SUB DUP2 GT DUP3 DUP3 LT OR ISZERO PUSH2 0x3455 JUMPI PUSH2 0x3455 PUSH2 0x341F JUMP JUMPDEST PUSH1 0x40 MSTORE SWAP1 JUMP JUMPDEST PUSH1 0x40 MLOAD PUSH1 0xE0 DUP2 ADD PUSH1 0x1 PUSH1 0x1 PUSH1 0x40 SHL SUB DUP2 GT DUP3 DUP3 LT OR ISZERO PUSH2 0x3455 JUMPI PUSH2 0x3455 PUSH2 0x341F JUMP JUMPDEST PUSH1 0x40 MLOAD PUSH2 0x140 DUP2 ADD PUSH1 0x1 PUSH1 0x1 PUSH1 0x40 SHL SUB DUP2 GT DUP3 DUP3 LT OR ISZERO PUSH2 0x3455 JUMPI PUSH2 0x3455 PUSH2 0x341F JUMP JUMPDEST PUSH1 0x40 MLOAD PUSH2 0x180 DUP2 ADD PUSH1 0x1 PUSH1 0x1 PUSH1 0x40 SHL SUB DUP2 GT DUP3 DUP3 LT OR ISZERO PUSH2 0x3455 JUMPI PUSH2 0x3455 PUSH2 0x341F JUMP JUMPDEST PUSH1 0x40 MLOAD PUSH1 0xC0 DUP2 ADD PUSH1 0x1 PUSH1 0x1 PUSH1 0x40 SHL SUB DUP2 GT DUP3 DUP3 LT OR ISZERO PUSH2 0x3455 JUMPI PUSH2 0x3455 PUSH2 0x341F JUMP JUMPDEST PUSH1 0x40 DUP1 MLOAD SWAP1 DUP2 ADD PUSH1 0x1 PUSH1 0x1 PUSH1 0x40 SHL SUB DUP2 GT DUP3 DUP3 LT OR ISZERO PUSH2 0x3455 JUMPI PUSH2 0x3455 PUSH2 0x341F JUMP JUMPDEST PUSH1 0x40 MLOAD PUSH1 0x1F DUP3 ADD PUSH1 0x1F NOT AND DUP2 ADD PUSH1 0x1 PUSH1 0x1 PUSH1 0x40 SHL SUB DUP2 GT DUP3 DUP3 LT OR ISZERO PUSH2 0x352F JUMPI PUSH2 0x352F PUSH2 0x341F JUMP JUMPDEST PUSH1 0x40 MSTORE SWAP2 SWAP1 POP JUMP JUMPDEST PUSH0 PUSH1 0x1 PUSH1 0x1 PUSH1 0x40 SHL SUB DUP3 GT ISZERO PUSH2 0x354F JUMPI PUSH2 0x354F PUSH2 0x341F JUMP JUMPDEST POP PUSH1 0x5 SHL PUSH1 0x20 ADD SWAP1 JUMP JUMPDEST PUSH0 PUSH1 0x1 PUSH1 0x1 PUSH1 0x40 SHL SUB DUP3 GT ISZERO PUSH2 0x3571 JUMPI PUSH2 0x3571 PUSH2 0x341F JUMP JUMPDEST POP PUSH1 0x1F ADD PUSH1 0x1F NOT AND PUSH1 0x20 ADD SWAP1 JUMP JUMPDEST PUSH0 DUP3 PUSH1 0x1F DUP4 ADD SLT PUSH2 0x358E JUMPI PUSH0 PUSH0 REVERT JUMPDEST DUP2 CALLDATALOAD PUSH2 0x35A1 PUSH2 0x359C DUP3 PUSH2 0x3559 JUMP JUMPDEST PUSH2 0x3507 JUMP JUMPDEST DUP2 DUP2 MSTORE DUP5 PUSH1 0x20 DUP4 DUP7 ADD ADD GT ISZERO PUSH2 0x35B5 JUMPI PUSH0 PUSH0 REVERT JUMPDEST DUP2 PUSH1 0x20 DUP6 ADD PUSH1 0x20 DUP4 ADD CALLDATACOPY PUSH0 SWAP2 DUP2 ADD PUSH1 0x20 ADD SWAP2 SWAP1 SWAP2 MSTORE SWAP4 SWAP3 POP POP POP JUMP JUMPDEST PUSH0 PUSH1 0x60 DUP3 DUP5 SUB SLT ISZERO PUSH2 0x35E1 JUMPI PUSH0 PUSH0 REVERT JUMPDEST PUSH2 0x35E9 PUSH2 0x3433 JUMP JUMPDEST SWAP1 POP DUP2 CALLDATALOAD PUSH1 0x1 PUSH1 0x1 PUSH1 0x40 SHL SUB DUP2 GT ISZERO PUSH2 0x3600 JUMPI PUSH0 PUSH0 REVERT JUMPDEST PUSH2 0x360C DUP5 DUP3 DUP6 ADD PUSH2 0x357F JUMP JUMPDEST DUP3 MSTORE POP PUSH1 0x20 DUP3 DUP2 ADD CALLDATALOAD SWAP1 DUP3 ADD MSTORE PUSH1 0x40 SWAP2 DUP3 ADD CALLDATALOAD SWAP2 DUP2 ADD SWAP2 SWAP1 SWAP2 MSTORE SWAP2 SWAP1 POP JUMP JUMPDEST PUSH0 DUP3 PUSH1 0x1F DUP4 ADD SLT PUSH2 0x363A JUMPI PUSH0 PUSH0 REVERT JUMPDEST DUP2 CALLDATALOAD PUSH2 0x3648 PUSH2 0x359C DUP3 PUSH2 0x3537 JUMP JUMPDEST DUP1 DUP3 DUP3 MSTORE PUSH1 0x20 DUP3 ADD SWAP2 POP PUSH1 0x20 DUP4 PUSH1 0x5 SHL DUP7 ADD ADD SWAP3 POP DUP6 DUP4 GT ISZERO PUSH2 0x3669 JUMPI PUSH0 PUSH0 REVERT JUMPDEST PUSH1 0x20 DUP6 ADD JUMPDEST DUP4 DUP2 LT ISZERO PUSH2 0x36A9 JUMPI DUP1 CALLDATALOAD PUSH1 0x1 PUSH1 0x1 PUSH1 0x40 SHL SUB DUP2 GT ISZERO PUSH2 0x368B JUMPI PUSH0 PUSH0 REVERT JUMPDEST PUSH2 0x369A DUP9 PUSH1 0x20 DUP4 DUP11 ADD ADD PUSH2 0x35D1 JUMP JUMPDEST DUP5 MSTORE POP PUSH1 0x20 SWAP3 DUP4 ADD SWAP3 ADD PUSH2 0x366E JUMP JUMPDEST POP SWAP6 SWAP5 POP POP POP POP POP JUMP JUMPDEST PUSH0 PUSH0 PUSH1 0x40 DUP4 DUP6 SUB SLT ISZERO PUSH2 0x36C4 JUMPI PUSH0 PUSH0 REVERT JUMPDEST DUP3 CALLDATALOAD SWAP2 POP PUSH1 0x20 DUP4 ADD CALLDATALOAD PUSH1 0x1 PUSH1 0x1 PUSH1 0x40 SHL SUB DUP2 GT ISZERO PUSH2 0x36E0 JUMPI PUSH0 PUSH0 REVERT JUMPDEST PUSH2 0x36EC DUP6 DUP3 DUP7 ADD PUSH2 0x362B JUMP JUMPDEST SWAP2 POP POP SWAP3 POP SWAP3 SWAP1 POP JUMP JUMPDEST PUSH0 DUP3 PUSH1 0x1F DUP4 ADD SLT PUSH2 0x3705 JUMPI PUSH0 PUSH0 REVERT JUMPDEST DUP2 CALLDATALOAD PUSH2 0x3713 PUSH2 0x359C DUP3 PUSH2 0x3537 JUMP JUMPDEST DUP1 DUP3 DUP3 MSTORE PUSH1 0x20 DUP3 ADD SWAP2 POP PUSH1 0x20 DUP4 PUSH1 0x5 SHL DUP7 ADD ADD SWAP3 POP DUP6 DUP4 GT ISZERO PUSH2 0x3734 JUMPI PUSH0 PUSH0 REVERT JUMPDEST PUSH1 0x20 DUP6 ADD JUMPDEST DUP4 DUP2 LT ISZERO PUSH2 0x36A9 JUMPI DUP1 CALLDATALOAD PUSH1 0x1 PUSH1 0x1 PUSH1 0x40 SHL SUB DUP2 GT ISZERO PUSH2 0x3756 JUMPI PUSH0 PUSH0 REVERT JUMPDEST PUSH2 0x3765 DUP9 PUSH1 0x20 DUP4 DUP11 ADD ADD PUSH2 0x357F JUMP JUMPDEST DUP5 MSTORE POP PUSH1 0x20 SWAP3 DUP4 ADD SWAP3 ADD PUSH2 0x3739 JUMP JUMPDEST PUSH0 PUSH0 PUSH0 PUSH0 PUSH0 PUSH1 0xA0 DUP7 DUP9 SUB SLT ISZERO PUSH2 0x3788 JUMPI PUSH0 PUSH0 REVERT JUMPDEST DUP6 CALLDATALOAD SWAP5 POP PUSH1 0x20 DUP7 ADD CALLDATALOAD PUSH1 0x1 PUSH1 0x1 PUSH1 0x40 SHL SUB DUP2 GT ISZERO PUSH2 0x37A4 JUMPI PUSH0 PUSH0 REVERT JUMPDEST PUSH2 0x37B0 DUP9 DUP3 DUP10 ADD PUSH2 0x357F JUMP JUMPDEST SWAP5 POP POP PUSH1 0x40 DUP7 ADD CALLDATALOAD PUSH1 0x1 PUSH1 0x1 PUSH1 0x40 SHL SUB DUP2 GT ISZERO PUSH2 0x37CB JUMPI PUSH0 PUSH0 REVERT JUMPDEST PUSH2 0x37D7 DUP9 DUP3 DUP10 ADD PUSH2 0x357F JUMP JUMPDEST SWAP4 POP POP PUSH1 0x60 DUP7 ADD CALLDATALOAD SWAP2 POP PUSH1 0x80 DUP7 ADD CALLDATALOAD PUSH1 0x1 PUSH1 0x1 PUSH1 0x40 SHL SUB DUP2 GT ISZERO PUSH2 0x37F9 JUMPI PUSH0 PUSH0 REVERT JUMPDEST PUSH2 0x3805 DUP9 DUP3 DUP10 ADD PUSH2 0x36F6 JUMP JUMPDEST SWAP2 POP POP SWAP3 SWAP6 POP SWAP3 SWAP6 SWAP1 SWAP4 POP JUMP JUMPDEST PUSH0 PUSH0 PUSH0 PUSH0 PUSH0 PUSH0 PUSH1 0xA0 DUP8 DUP10 SUB SLT ISZERO PUSH2 0x3827 JUMPI PUSH0 PUSH0 REVERT JUMPDEST DUP7 CALLDATALOAD SWAP6 POP PUSH1 0x20 DUP8 ADD CALLDATALOAD SWAP5 POP PUSH1 0x40 DUP8 ADD CALLDATALOAD PUSH1 0x1 PUSH1 0x1 PUSH1 0x40 SHL SUB DUP2 GT ISZERO PUSH2 0x384A JUMPI PUSH0 PUSH0 REVERT JUMPDEST PUSH2 0x3856 DUP10 DUP3 DUP11 ADD PUSH2 0x36F6 JUMP JUMPDEST SWAP5 POP POP PUSH1 0x60 DUP8 ADD CALLDATALOAD PUSH1 0x1 PUSH1 0x1 PUSH1 0x40 SHL SUB DUP2 GT ISZERO PUSH2 0x3871 JUMPI PUSH0 PUSH0 REVERT JUMPDEST PUSH2 0x387D DUP10 DUP3 DUP11 ADD PUSH2 0x306D JUMP JUMPDEST SWAP1 SWAP5 POP SWAP3 POP POP PUSH1 0x80 DUP8 ADD CALLDATALOAD PUSH2 0x3891 DUP2 PUSH2 0x30B1 JUMP JUMPDEST DUP1 SWAP2 POP POP SWAP3 SWAP6 POP SWAP3 SWAP6 POP SWAP3 SWAP6 JUMP JUMPDEST PUSH0 PUSH0 PUSH1 0x40 DUP4 DUP6 SUB SLT ISZERO PUSH2 0x38B0 JUMPI PUSH0 PUSH0 REVERT JUMPDEST DUP3 CALLDATALOAD SWAP2 POP PUSH1 0x20 DUP4 ADD CALLDATALOAD PUSH1 0x1 PUSH1 0x1 PUSH1 0x40 SHL SUB DUP2 GT ISZERO PUSH2 0x38CC JUMPI PUSH0 PUSH0 REVERT JUMPDEST PUSH2 0x36EC DUP6 DUP3 DUP7 ADD PUSH2 0x357F JUMP JUMPDEST PUSH1 0x3 DUP2 LT PUSH2 0x2E93 JUMPI PUSH0 PUSH0 REVERT JUMPDEST PUSH0 PUSH0 PUSH0 PUSH1 0x60 DUP5 DUP7 SUB SLT ISZERO PUSH2 0x38F6 JUMPI PUSH0 PUSH0 REVERT JUMPDEST DUP4 CALLDATALOAD SWAP3 POP PUSH1 0x20 DUP5 ADD CALLDATALOAD SWAP2 POP PUSH1 0x40 DUP5 ADD CALLDATALOAD PUSH2 0x33D2 DUP2 PUSH2 0x38D8 JUMP JUMPDEST PUSH0 PUSH0 PUSH0 PUSH0 PUSH0 PUSH0 PUSH1 0xC0 DUP8 DUP10 SUB SLT ISZERO PUSH2 0x3924 JUMPI PUSH0 PUSH0 REVERT JUMPDEST DUP7 CALLDATALOAD PUSH2 0x392F DUP2 PUSH2 0x3243 JUMP JUMPDEST SWAP6 POP PUSH1 0x20 DUP8 ADD CALLDATALOAD SWAP5 POP PUSH1 0x40 DUP8 ADD CALLDATALOAD PUSH1 0x1 PUSH1 0x1 PUSH1 0x40 SHL SUB DUP2 GT ISZERO PUSH2 0x3950 JUMPI PUSH0 PUSH0 REVERT JUMPDEST PUSH2 0x395C DUP10 DUP3 DUP11 ADD PUSH2 0x357F JUMP JUMPDEST SWAP5 POP POP PUSH1 0x60 DUP8 ADD CALLDATALOAD PUSH1 0x1 PUSH1 0x1 PUSH1 0x40 SHL SUB DUP2 GT ISZERO PUSH2 0x3977 JUMPI PUSH0 PUSH0 REVERT JUMPDEST PUSH2 0x3983 DUP10 DUP3 DUP11 ADD PUSH2 0x357F JUMP JUMPDEST SWAP4 POP POP PUSH1 0x80 DUP8 ADD CALLDATALOAD SWAP2 POP PUSH1 0xA0 DUP8 ADD CALLDATALOAD PUSH1 0x1 PUSH1 0x1 PUSH1 0x40 SHL SUB DUP2 GT ISZERO PUSH2 0x39A5 JUMPI PUSH0 PUSH0 REVERT JUMPDEST DUP8 ADD PUSH1 0x1F DUP2 ADD DUP10 SGT PUSH2 0x39B5 JUMPI PUSH0 PUSH0 REVERT JUMPDEST DUP1 CALLDATALOAD PUSH2 0x39C3 PUSH2 0x359C DUP3 PUSH2 0x3537 JUMP JUMPDEST DUP1 DUP3 DUP3 MSTORE PUSH1 0x20 DUP3 ADD SWAP2 POP PUSH1 0x20 PUSH1 0x60 DUP5 MUL DUP6 ADD ADD SWAP3 POP DUP12 DUP4 GT ISZERO PUSH2 0x39E4 JUMPI PUSH0 PUSH0 REVERT JUMPDEST PUSH1 0x20 DUP5 ADD SWAP4 POP JUMPDEST DUP3 DUP5 LT ISZERO PUSH2 0x3A35 JUMPI PUSH1 0x60 DUP5 DUP14 SUB SLT ISZERO PUSH2 0x3A02 JUMPI PUSH0 PUSH0 REVERT JUMPDEST PUSH2 0x3A0A PUSH2 0x3433 JUMP JUMPDEST DUP5 CALLDATALOAD DUP2 MSTORE PUSH1 0x20 DUP1 DUP7 ADD CALLDATALOAD DUP2 DUP4 ADD MSTORE PUSH1 0x40 DUP1 DUP8 ADD CALLDATALOAD SWAP1 DUP4 ADD MSTORE SWAP1 DUP4 MSTORE PUSH1 0x60 SWAP1 SWAP5 ADD SWAP4 SWAP2 SWAP1 SWAP2 ADD SWAP1 PUSH2 0x39EB JUMP JUMPDEST DUP1 SWAP5 POP POP POP POP POP SWAP3 SWAP6 POP SWAP3 SWAP6 POP SWAP3 SWAP6 JUMP JUMPDEST PUSH1 0x3 DUP2 LT PUSH2 0x3A56 JUMPI PUSH2 0x3A56 PUSH2 0x2E6F JUMP JUMPDEST SWAP1 MSTORE JUMP JUMPDEST PUSH0 DUP2 MLOAD DUP1 DUP5 MSTORE PUSH1 0x20 DUP5 ADD SWAP4 POP PUSH1 0x20 DUP4 ADD PUSH0 JUMPDEST DUP3 DUP2 LT ISZERO PUSH2 0x3AD4 JUMPI DUP2 MLOAD DUP1 MLOAD DUP8 MSTORE PUSH1 0x20 DUP2 ADD MLOAD PUSH1 0x20 DUP9 ADD MSTORE PUSH1 0x40 DUP2 ADD MLOAD PUSH1 0x40 DUP9 ADD MSTORE PUSH1 0x60 DUP2 ADD MLOAD PUSH1 0x60 DUP9 ADD MSTORE PUSH1 0x80 DUP2 ADD MLOAD PUSH1 0x80 DUP9 ADD MSTORE PUSH1 0xA0 DUP2 ADD MLOAD PUSH2 0x3AB4 PUSH1 0xA0 DUP10 ADD DUP3 PUSH2 0x3A46 JUMP JUMPDEST POP PUSH1 0xC0 SWAP1 DUP2 ADD MLOAD SWAP1 DUP8 ADD MSTORE PUSH1 0xE0 SWAP1 SWAP6 ADD SWAP5 PUSH1 0x20 SWAP2 SWAP1 SWAP2 ADD SWAP1 PUSH1 0x1 ADD PUSH2 0x3A6C JUMP JUMPDEST POP SWAP4 SWAP5 SWAP4 POP POP POP POP JUMP JUMPDEST PUSH1 0x4 DUP2 LT PUSH2 0x3A56 JUMPI PUSH2 0x3A56 PUSH2 0x2E6F JUMP JUMPDEST DUP1 MLOAD DUP3 MSTORE PUSH0 PUSH1 0x20 DUP3 ADD MLOAD PUSH2 0x3B0D PUSH1 0x20 DUP6 ADD DUP3 PUSH1 0x1 PUSH1 0x1 PUSH1 0xA0 SHL SUB AND SWAP1 MSTORE JUMP JUMPDEST POP PUSH1 0x40 DUP3 ADD MLOAD PUSH2 0x180 PUSH1 0x40 DUP6 ADD MSTORE PUSH2 0x3B29 PUSH2 0x180 DUP6 ADD DUP3 PUSH2 0x2E41 JUMP JUMPDEST SWAP1 POP PUSH1 0x60 DUP4 ADD MLOAD DUP5 DUP3 SUB PUSH1 0x60 DUP7 ADD MSTORE PUSH2 0x3B42 DUP3 DUP3 PUSH2 0x2E41 JUMP JUMPDEST SWAP2 POP POP PUSH1 0x80 DUP4 ADD MLOAD DUP5 DUP3 SUB PUSH1 0x80 DUP7 ADD MSTORE PUSH2 0x3B5C DUP3 DUP3 PUSH2 0x2E41 JUMP JUMPDEST SWAP2 POP POP PUSH1 0xA0 DUP4 ADD MLOAD DUP5 DUP3 SUB PUSH1 0xA0 DUP7 ADD MSTORE PUSH2 0x3B76 DUP3 DUP3 PUSH2 0x2E41 JUMP JUMPDEST SWAP2 POP POP PUSH1 0xC0 DUP4 ADD MLOAD PUSH2 0x3B93 PUSH1 0xC0 DUP7 ADD DUP3 PUSH1 0x1 PUSH1 0x1 PUSH1 0xA0 SHL SUB AND SWAP1 MSTORE JUMP JUMPDEST POP PUSH1 0xE0 DUP4 ADD MLOAD PUSH1 0xE0 DUP6 ADD MSTORE PUSH2 0x100 DUP4 ADD MLOAD DUP5 DUP3 SUB PUSH2 0x100 DUP7 ADD MSTORE PUSH2 0x3BB7 DUP3 DUP3 PUSH2 0x3A5A JUMP JUMPDEST SWAP2 POP POP PUSH2 0x120 DUP4 ADD MLOAD PUSH2 0x120 DUP6 ADD MSTORE PUSH2 0x140 DUP4 ADD MLOAD PUSH2 0x3BDA PUSH2 0x140 DUP7 ADD DUP3 PUSH2 0x3ADE JUMP JUMPDEST POP PUSH2 0x160 DUP4 ADD MLOAD PUSH2 0x160 DUP6 ADD MSTORE DUP1 SWAP2 POP POP SWAP3 SWAP2 POP POP JUMP JUMPDEST PUSH1 0x20 DUP2 MSTORE PUSH0 PUSH2 0x2D04 PUSH1 0x20 DUP4 ADD DUP5 PUSH2 0x3AEE JUMP JUMPDEST PUSH1 0x4 DUP2 LT PUSH2 0x2E93 JUMPI PUSH0 PUSH0 REVERT JUMPDEST PUSH0 PUSH1 0x20 DUP3 DUP5 SUB SLT ISZERO PUSH2 0x3C1F JUMPI PUSH0 PUSH0 REVERT JUMPDEST DUP2 CALLDATALOAD PUSH2 0x2D04 DUP2 PUSH2 0x3C03 JUMP JUMPDEST PUSH0 PUSH1 0x20 DUP3 ADD PUSH1 0x20 DUP4 MSTORE DUP1 DUP5 MLOAD DUP1 DUP4 MSTORE PUSH1 0x40 DUP6 ADD SWAP2 POP PUSH1 0x40 DUP2 PUSH1 0x5 SHL DUP7 ADD ADD SWAP3 POP PUSH1 0x20 DUP7 ADD PUSH0 JUMPDEST DUP3 DUP2 LT ISZERO PUSH2 0x2F7C JUMPI PUSH1 0x3F NOT DUP8 DUP7 SUB ADD DUP5 MSTORE PUSH2 0x3C6C DUP6 DUP4 MLOAD PUSH2 0x3AEE JUMP JUMPDEST SWAP5 POP PUSH1 0x20 SWAP4 DUP5 ADD SWAP4 SWAP2 SWAP1 SWAP2 ADD SWAP1 PUSH1 0x1 ADD PUSH2 0x3C50 JUMP JUMPDEST PUSH0 PUSH0 PUSH0 PUSH0 PUSH0 PUSH0 PUSH1 0xA0 DUP8 DUP10 SUB SLT ISZERO PUSH2 0x3C96 JUMPI PUSH0 PUSH0 REVERT JUMPDEST DUP7 CALLDATALOAD PUSH2 0x3CA1 DUP2 PUSH2 0x3243 JUMP JUMPDEST SWAP6 POP PUSH1 0x20 DUP8 ADD CALLDATALOAD SWAP5 POP PUSH1 0x40 DUP8 ADD CALLDATALOAD PUSH1 0x1 PUSH1 0x1 PUSH1 0x40 SHL SUB DUP2 GT ISZERO PUSH2 0x3CC2 JUMPI PUSH0 PUSH0 REVERT JUMPDEST PUSH2 0x3CCE DUP10 DUP3 DUP11 ADD PUSH2 0x306D JUMP JUMPDEST SWAP1 SWAP6 POP SWAP4 POP POP PUSH1 0x60 DUP8 ADD CALLDATALOAD PUSH1 0x1 PUSH1 0x1 PUSH1 0x40 SHL SUB DUP2 GT ISZERO PUSH2 0x3CEC JUMPI PUSH0 PUSH0 REVERT JUMPDEST PUSH2 0x3CF8 DUP10 DUP3 DUP11 ADD PUSH2 0x36F6 JUMP JUMPDEST SWAP3 POP POP PUSH1 0x80 DUP8 ADD CALLDATALOAD PUSH2 0x3891 DUP2 PUSH2 0x30B1 JUMP JUMPDEST PUSH0 PUSH0 PUSH1 0x40 DUP4 DUP6 SUB SLT ISZERO PUSH2 0x3D1A JUMPI PUSH0 PUSH0 REVERT JUMPDEST DUP3 CALLDATALOAD SWAP2 POP PUSH1 0x20 DUP4 ADD CALLDATALOAD PUSH2 0x2FB8 DUP2 PUSH2 0x3C03 JUMP JUMPDEST PUSH0 PUSH0 PUSH1 0x40 DUP4 DUP6 SUB SLT ISZERO PUSH2 0x3D3D JUMPI PUSH0 PUSH0 REVERT JUMPDEST DUP3 CALLDATALOAD SWAP2 POP PUSH1 0x20 DUP4 ADD CALLDATALOAD PUSH2 0x2FB8 DUP2 PUSH2 0x3243 JUMP JUMPDEST PUSH0 DUP3 DUP3 MLOAD DUP1 DUP6 MSTORE PUSH1 0x20 DUP6 ADD SWAP5 POP PUSH1 0x20 DUP2 PUSH1 0x5 SHL DUP4 ADD ADD PUSH1 0x20 DUP6 ADD PUSH0 JUMPDEST DUP4 DUP2 LT ISZERO PUSH2 0x317E JUMPI PUSH1 0x1F NOT DUP6 DUP5 SUB ADD DUP9 MSTORE DUP2 MLOAD DUP1 MLOAD DUP5 MSTORE PUSH1 0x20 DUP2 ADD MLOAD PUSH1 0xC0 PUSH1 0x20 DUP7 ADD MSTORE PUSH2 0x3D9B PUSH1 0xC0 DUP7 ADD DUP3 PUSH2 0x2E41 JUMP JUMPDEST PUSH1 0x40 DUP4 DUP2 ADD MLOAD SWAP1 DUP8 ADD MSTORE PUSH1 0x60 DUP1 DUP5 ADD MLOAD SWAP1 DUP8 ADD MSTORE PUSH1 0x80 DUP1 DUP5 ADD MLOAD SWAP1 DUP8 ADD MSTORE PUSH1 0xA0 SWAP3 DUP4 ADD MLOAD ISZERO ISZERO SWAP3 SWAP1 SWAP6 ADD SWAP2 SWAP1 SWAP2 MSTORE POP PUSH1 0x20 SWAP8 DUP9 ADD SWAP8 SWAP2 SWAP1 SWAP2 ADD SWAP1 PUSH1 0x1 ADD PUSH2 0x3D6B JUMP JUMPDEST PUSH1 0x20 DUP2 MSTORE PUSH0 PUSH2 0x2D04 PUSH1 0x20 DUP4 ADD DUP5 PUSH2 0x3D4F JUMP JUMPDEST PUSH0 PUSH1 0x20 DUP3 ADD PUSH1 0x20 DUP4 MSTORE DUP1 DUP5 MLOAD DUP1 DUP4 MSTORE PUSH1 0x40 DUP6 ADD SWAP2 POP PUSH1 0x40 DUP2 PUSH1 0x5 SHL DUP7 ADD ADD SWAP3 POP PUSH1 0x20 DUP7 ADD PUSH0 JUMPDEST DUP3 DUP2 LT ISZERO PUSH2 0x2F7C JUMPI PUSH1 0x3F NOT DUP8 DUP7 SUB ADD DUP5 MSTORE DUP2 MLOAD DUP1 MLOAD DUP7 MSTORE PUSH1 0x1 DUP1 PUSH1 0xA0 SHL SUB PUSH1 0x20 DUP3 ADD MLOAD AND PUSH1 0x20 DUP8 ADD MSTORE PUSH1 0x1 DUP1 PUSH1 0xA0 SHL SUB PUSH1 0x40 DUP3 ADD MLOAD AND PUSH1 0x40 DUP8 ADD MSTORE PUSH1 0x60 DUP2 ADD MLOAD PUSH1 0xE0 PUSH1 0x60 DUP9 ADD MSTORE PUSH2 0x3E69 PUSH1 0xE0 DUP9 ADD DUP3 PUSH2 0x2E41 JUMP JUMPDEST SWAP1 POP PUSH1 0x80 DUP3 ADD MLOAD DUP8 DUP3 SUB PUSH1 0x80 DUP10 ADD MSTORE PUSH2 0x3E82 DUP3 DUP3 PUSH2 0x3130 JUMP JUMPDEST PUSH1 0xA0 DUP5 DUP2 ADD MLOAD PUSH1 0xFF AND SWAP1 DUP11 ADD MSTORE PUSH1 0xC0 SWAP4 DUP5 ADD MLOAD SWAP4 SWAP1 SWAP9 ADD SWAP3 SWAP1 SWAP3 MSTORE POP POP PUSH1 0x20 SWAP4 DUP5 ADD SWAP4 SWAP2 SWAP1 SWAP2 ADD SWAP1 PUSH1 0x1 ADD PUSH2 0x3E15 JUMP JUMPDEST PUSH0 PUSH0 PUSH0 PUSH0 PUSH0 PUSH0 PUSH1 0xC0 DUP8 DUP10 SUB SLT ISZERO PUSH2 0x3EC7 JUMPI PUSH0 PUSH0 REVERT JUMPDEST DUP7 CALLDATALOAD SWAP6 POP PUSH1 0x20 DUP8 ADD CALLDATALOAD PUSH1 0x1 PUSH1 0x1 PUSH1 0x40 SHL SUB DUP2 GT ISZERO PUSH2 0x3EE3 JUMPI PUSH0 PUSH0 REVERT JUMPDEST PUSH2 0x3EEF DUP10 DUP3 DUP11 ADD PUSH2 0x357F JUMP JUMPDEST SWAP6 POP POP PUSH1 0x40 DUP8 ADD CALLDATALOAD PUSH1 0x1 PUSH1 0x1 PUSH1 0x40 SHL SUB DUP2 GT ISZERO PUSH2 0x3F0A JUMPI PUSH0 PUSH0 REVERT JUMPDEST PUSH2 0x3F16 DUP10 DUP3 DUP11 ADD PUSH2 0x357F JUMP JUMPDEST SWAP5 POP POP PUSH1 0x60 DUP8 ADD CALLDATALOAD SWAP3 POP PUSH1 0x80 DUP8 ADD CALLDATALOAD PUSH1 0x1 PUSH1 0x1 PUSH1 0x40 SHL SUB DUP2 GT ISZERO PUSH2 0x3F38 JUMPI PUSH0 PUSH0 REVERT JUMPDEST PUSH2 0x3F44 DUP10 DUP3 DUP11 ADD PUSH2 0x36F6 JUMP JUMPDEST SWAP3 POP POP PUSH1 0xA0 DUP8 ADD CALLDATALOAD PUSH1 0x1 PUSH1 0x1 PUSH1 0x40 SHL SUB DUP2 GT ISZERO PUSH2 0x3F5F JUMPI PUSH0 PUSH0 REVERT JUMPDEST PUSH2 0x3F6B DUP10 DUP3 DUP11 ADD PUSH2 0x362B JUMP JUMPDEST SWAP2 POP POP SWAP3 SWAP6 POP SWAP3 SWAP6 POP SWAP3 SWAP6 JUMP JUMPDEST PUSH1 0x2 DUP2 LT PUSH2 0x2E93 JUMPI PUSH0 PUSH0 REVERT JUMPDEST PUSH0 PUSH0 PUSH1 0x40 DUP4 DUP6 SUB SLT ISZERO PUSH2 0x3F95 JUMPI PUSH0 PUSH0 REVERT JUMPDEST DUP3 CALLDATALOAD SWAP2 POP PUSH1 0x20 DUP4 ADD CALLDATALOAD PUSH2 0x2FB8 DUP2 PUSH2 0x3F78 JUMP JUMPDEST PUSH0 PUSH1 0x20 DUP3 ADD PUSH1 0x20 DUP4 MSTORE DUP1 DUP5 MLOAD DUP1 DUP4 MSTORE PUSH1 0x40 DUP6 ADD SWAP2 POP PUSH1 0x40 DUP2 PUSH1 0x5 SHL DUP7 ADD ADD SWAP3 POP PUSH1 0x20 DUP7 ADD PUSH0 JUMPDEST DUP3 DUP2 LT ISZERO PUSH2 0x2F7C JUMPI PUSH1 0x3F NOT DUP8 DUP7 SUB ADD DUP5 MSTORE DUP2 MLOAD DUP1 MLOAD PUSH1 0x40 DUP8 MSTORE PUSH2 0x3FF3 PUSH1 0x40 DUP9 ADD DUP3 PUSH2 0x318A JUMP JUMPDEST SWAP1 POP PUSH1 0x20 DUP3 ADD MLOAD SWAP2 POP DUP7 DUP2 SUB PUSH1 0x20 DUP9 ADD MSTORE PUSH2 0x400E DUP2 DUP4 PUSH2 0x3D4F JUMP JUMPDEST SWAP7 POP POP POP PUSH1 0x20 SWAP4 DUP5 ADD SWAP4 SWAP2 SWAP1 SWAP2 ADD SWAP1 PUSH1 0x1 ADD PUSH2 0x3FCD JUMP JUMPDEST PUSH0 PUSH0 PUSH0 PUSH1 0x60 DUP5 DUP7 SUB SLT ISZERO PUSH2 0x4037 JUMPI PUSH0 PUSH0 REVERT JUMPDEST DUP4 CALLDATALOAD SWAP3 POP PUSH1 0x20 DUP5 ADD CALLDATALOAD SWAP2 POP PUSH1 0x40 DUP5 ADD CALLDATALOAD PUSH1 0x1 PUSH1 0x1 PUSH1 0x40 SHL SUB DUP2 GT ISZERO PUSH2 0x405A JUMPI PUSH0 PUSH0 REVERT JUMPDEST PUSH2 0x4066 DUP7 DUP3 DUP8 ADD PUSH2 0x35D1 JUMP JUMPDEST SWAP2 POP POP SWAP3 POP SWAP3 POP SWAP3 JUMP JUMPDEST PUSH0 PUSH0 PUSH0 PUSH0 PUSH1 0x80 DUP6 DUP8 SUB SLT ISZERO PUSH2 0x4083 JUMPI PUSH0 PUSH0 REVERT JUMPDEST DUP5 CALLDATALOAD SWAP4 POP PUSH1 0x20 DUP6 ADD CALLDATALOAD SWAP3 POP PUSH1 0x40 DUP6 ADD CALLDATALOAD SWAP2 POP PUSH1 0x60 DUP6 ADD CALLDATALOAD PUSH1 0x1 PUSH1 0x1 PUSH1 0x40 SHL SUB DUP2 GT ISZERO PUSH2 0x40AD JUMPI PUSH0 PUSH0 REVERT JUMPDEST PUSH2 0x40B9 DUP8 DUP3 DUP9 ADD PUSH2 0x357F JUMP JUMPDEST SWAP2 POP POP SWAP3 SWAP6 SWAP2 SWAP5 POP SWAP3 POP JUMP JUMPDEST DUP1 MLOAD DUP3 MSTORE PUSH0 PUSH1 0x20 DUP3 ADD MLOAD PUSH1 0x40 PUSH1 0x20 DUP6 ADD MSTORE PUSH2 0x40E3 PUSH1 0x40 DUP6 ADD DUP3 PUSH2 0x2E41 JUMP JUMPDEST SWAP5 SWAP4 POP POP POP POP JUMP JUMPDEST PUSH0 PUSH1 0x20 DUP3 ADD PUSH1 0x20 DUP4 MSTORE DUP1 DUP5 MLOAD DUP1 DUP4 MSTORE PUSH1 0x40 DUP6 ADD SWAP2 POP PUSH1 0x40 DUP2 PUSH1 0x5 SHL DUP7 ADD ADD SWAP3 POP PUSH1 0x20 DUP7 ADD PUSH0 JUMPDEST DUP3 DUP2 LT ISZERO PUSH2 0x2F7C JUMPI PUSH1 0x3F NOT DUP8 DUP7 SUB ADD DUP5 MSTORE PUSH2 0x412D DUP6 DUP4 MLOAD PUSH2 0x40C5 JUMP JUMPDEST SWAP5 POP PUSH1 0x20 SWAP4 DUP5 ADD SWAP4 SWAP2 SWAP1 SWAP2 ADD SWAP1 PUSH1 0x1 ADD PUSH2 0x4111 JUMP JUMPDEST PUSH1 0x20 DUP2 MSTORE PUSH0 PUSH2 0x2D04 PUSH1 0x20 DUP4 ADD DUP5 PUSH2 0x2E96 JUMP JUMPDEST PUSH1 0x20 DUP2 MSTORE PUSH0 PUSH2 0x2D04 PUSH1 0x20 DUP4 ADD DUP5 PUSH2 0x40C5 JUMP JUMPDEST PUSH0 PUSH1 0x20 DUP3 ADD PUSH1 0x20 DUP4 MSTORE DUP1 DUP5 MLOAD DUP1 DUP4 MSTORE PUSH1 0x40 DUP6 ADD SWAP2 POP PUSH1 0x40 DUP2 PUSH1 0x5 SHL DUP7 ADD ADD SWAP3 POP PUSH1 0x20 DUP7 ADD PUSH0 JUMPDEST DUP3 DUP2 LT ISZERO PUSH2 0x2F7C JUMPI PUSH1 0x3F NOT DUP8 DUP7 SUB ADD DUP5 MSTORE DUP2 MLOAD DUP1 MLOAD DUP7 MSTORE PUSH1 0x1 DUP1 PUSH1 0xA0 SHL SUB PUSH1 0x20 DUP3 ADD MLOAD AND PUSH1 0x20 DUP8 ADD MSTORE PUSH1 0x40 DUP2 ADD MLOAD PUSH1 0xE0 PUSH1 0x40 DUP9 ADD MSTORE PUSH2 0x41CE PUSH1 0xE0 DUP9 ADD DUP3 PUSH2 0x3130 JUMP JUMPDEST SWAP1 POP PUSH1 0x60 DUP3 ADD MLOAD PUSH1 0x60 DUP9 ADD MSTORE PUSH1 0x80 DUP3 ADD MLOAD DUP8 DUP3 SUB PUSH1 0x80 DUP10 ADD MSTORE PUSH2 0x41F1 DUP3 DUP3 PUSH2 0x2E41 JUMP JUMPDEST PUSH1 0xA0 DUP5 DUP2 ADD MLOAD PUSH1 0xFF AND SWAP1 DUP11 ADD MSTORE PUSH1 0xC0 SWAP4 DUP5 ADD MLOAD SWAP4 SWAP1 SWAP9 ADD SWAP3 SWAP1 SWAP3 MSTORE POP POP PUSH1 0x20 SWAP4 DUP5 ADD SWAP4 SWAP2 SWAP1 SWAP2 ADD SWAP1 PUSH1 0x1 ADD PUSH2 0x418C JUMP JUMPDEST PUSH0 PUSH0 PUSH0 PUSH1 0x60 DUP5 DUP7 SUB SLT ISZERO PUSH2 0x4233 JUMPI PUSH0 PUSH0 REVERT JUMPDEST DUP4 CALLDATALOAD SWAP3 POP PUSH1 0x20 DUP5 ADD CALLDATALOAD SWAP2 POP PUSH1 0x40 DUP5 ADD CALLDATALOAD PUSH1 0x1 PUSH1 0x1 PUSH1 0x40 SHL SUB DUP2 GT ISZERO PUSH2 0x4256 JUMPI PUSH0 PUSH0 REVERT JUMPDEST PUSH2 0x4066 DUP7 DUP3 DUP8 ADD PUSH2 0x357F JUMP JUMPDEST DUP1 MLOAD PUSH2 0x1A6E DUP2 PUSH2 0x3243 JUMP JUMPDEST PUSH0 DUP3 PUSH1 0x1F DUP4 ADD SLT PUSH2 0x427C JUMPI PUSH0 PUSH0 REVERT JUMPDEST DUP2 MLOAD PUSH2 0x428A PUSH2 0x359C DUP3 PUSH2 0x3559 JUMP JUMPDEST DUP2 DUP2 MSTORE DUP5 PUSH1 0x20 DUP4 DUP7 ADD ADD GT ISZERO PUSH2 0x429E JUMPI PUSH0 PUSH0 REVERT JUMPDEST DUP2 PUSH1 0x20 DUP6 ADD PUSH1 0x20 DUP4 ADD MCOPY PUSH0 SWAP2 DUP2 ADD PUSH1 0x20 ADD SWAP2 SWAP1 SWAP2 MSTORE SWAP4 SWAP3 POP POP POP JUMP JUMPDEST DUP1 MLOAD PUSH2 0x1A6E DUP2 PUSH2 0x3F78 JUMP JUMPDEST PUSH0 PUSH1 0xE0 DUP3 DUP5 SUB SLT ISZERO PUSH2 0x42D5 JUMPI PUSH0 PUSH0 REVERT JUMPDEST PUSH2 0x42DD PUSH2 0x345B JUMP JUMPDEST SWAP1 POP PUSH2 0x42E8 DUP3 PUSH2 0x4262 JUMP JUMPDEST DUP2 MSTORE PUSH1 0x20 DUP3 ADD MLOAD PUSH1 0x1 PUSH1 0x1 PUSH1 0x40 SHL SUB DUP2 GT ISZERO PUSH2 0x4302 JUMPI PUSH0 PUSH0 REVERT JUMPDEST PUSH2 0x430E DUP5 DUP3 DUP6 ADD PUSH2 0x426D JUMP JUMPDEST PUSH1 0x20 DUP4 ADD MSTORE POP PUSH1 0x40 DUP3 ADD MLOAD PUSH1 0x1 PUSH1 0x1 PUSH1 0x40 SHL SUB DUP2 GT ISZERO PUSH2 0x432C JUMPI PUSH0 PUSH0 REVERT JUMPDEST PUSH2 0x4338 DUP5 DUP3 DUP6 ADD PUSH2 0x426D JUMP JUMPDEST PUSH1 0x40 DUP4 ADD MSTORE POP PUSH1 0x60 DUP3 ADD MLOAD PUSH1 0x1 PUSH1 0x1 PUSH1 0x40 SHL SUB DUP2 GT ISZERO PUSH2 0x4356 JUMPI PUSH0 PUSH0 REVERT JUMPDEST PUSH2 0x4362 DUP5 DUP3 DUP6 ADD PUSH2 0x426D JUMP JUMPDEST PUSH1 0x60 DUP4 ADD MSTORE POP PUSH1 0x80 DUP3 DUP2 ADD MLOAD SWAP1 DUP3 ADD MSTORE PUSH1 0xA0 DUP1 DUP4 ADD MLOAD SWAP1 DUP3 ADD MSTORE PUSH2 0x4388 PUSH1 0xC0 DUP4 ADD PUSH2 0x42BA JUMP JUMPDEST PUSH1 0xC0 DUP3 ADD MSTORE SWAP3 SWAP2 POP POP JUMP JUMPDEST PUSH0 PUSH1 0x20 DUP3 DUP5 SUB SLT ISZERO PUSH2 0x43A3 JUMPI PUSH0 PUSH0 REVERT JUMPDEST DUP2 MLOAD PUSH1 0x1 PUSH1 0x1 PUSH1 0x40 SHL SUB DUP2 GT ISZERO PUSH2 0x43B8 JUMPI PUSH0 PUSH0 REVERT JUMPDEST DUP3 ADD PUSH1 0x1F DUP2 ADD DUP5 SGT PUSH2 0x43C8 JUMPI PUSH0 PUSH0 REVERT JUMPDEST DUP1 MLOAD PUSH2 0x43D6 PUSH2 0x359C DUP3 PUSH2 0x3537 JUMP JUMPDEST DUP1 DUP3 DUP3 MSTORE PUSH1 0x20 DUP3 ADD SWAP2 POP PUSH1 0x20 DUP4 PUSH1 0x5 SHL DUP6 ADD ADD SWAP3 POP DUP7 DUP4 GT ISZERO PUSH2 0x43F7 JUMPI PUSH0 PUSH0 REVERT JUMPDEST PUSH1 0x20 DUP5 ADD JUMPDEST DUP4 DUP2 LT ISZERO PUSH2 0x4437 JUMPI DUP1 MLOAD PUSH1 0x1 PUSH1 0x1 PUSH1 0x40 SHL SUB DUP2 GT ISZERO PUSH2 0x4419 JUMPI PUSH0 PUSH0 REVERT JUMPDEST PUSH2 0x4428 DUP10 PUSH1 0x20 DUP4 DUP10 ADD ADD PUSH2 0x42C5 JUMP JUMPDEST DUP5 MSTORE POP PUSH1 0x20 SWAP3 DUP4 ADD SWAP3 ADD PUSH2 0x43FC JUMP JUMPDEST POP SWAP7 SWAP6 POP POP POP POP POP POP JUMP JUMPDEST PUSH1 0x1 PUSH1 0x1 PUSH1 0xA0 SHL SUB DUP4 AND DUP2 MSTORE PUSH1 0x40 DUP2 ADD PUSH2 0x445B DUP4 PUSH2 0x2E83 JUMP JUMPDEST DUP3 PUSH1 0x20 DUP4 ADD MSTORE SWAP4 SWAP3 POP POP POP JUMP JUMPDEST DUP1 MLOAD PUSH2 0x1A6E DUP2 PUSH2 0x2F88 JUMP JUMPDEST PUSH0 PUSH1 0x20 DUP3 DUP5 SUB SLT ISZERO PUSH2 0x4483 JUMPI PUSH0 PUSH0 REVERT JUMPDEST DUP2 MLOAD PUSH2 0x2D04 DUP2 PUSH2 0x2F88 JUMP JUMPDEST PUSH1 0x20 DUP1 DUP3 MSTORE PUSH1 0x9 SWAP1 DUP3 ADD MSTORE PUSH9 0x2737BA1030B236B4B7 PUSH1 0xB9 SHL PUSH1 0x40 DUP3 ADD MSTORE PUSH1 0x60 ADD SWAP1 JUMP JUMPDEST PUSH0 PUSH1 0xA0 DUP3 DUP5 SUB SLT ISZERO PUSH2 0x44C1 JUMPI PUSH0 PUSH0 REVERT JUMPDEST PUSH1 0x40 MLOAD PUSH1 0xA0 DUP2 ADD PUSH1 0x1 PUSH1 0x1 PUSH1 0x40 SHL SUB DUP2 GT DUP3 DUP3 LT OR ISZERO PUSH2 0x44E3 JUMPI PUSH2 0x44E3 PUSH2 0x341F JUMP JUMPDEST PUSH1 0x40 SWAP1 DUP2 MSTORE DUP4 MLOAD DUP3 MSTORE PUSH1 0x20 DUP1 DUP6 ADD MLOAD SWAP1 DUP4 ADD MSTORE DUP4 DUP2 ADD MLOAD SWAP1 DUP3 ADD MSTORE PUSH1 0x60 DUP4 ADD MLOAD SWAP1 SWAP2 POP DUP2 SWAP1 PUSH1 0x1 PUSH1 0x1 PUSH1 0x40 SHL SUB DUP2 GT ISZERO PUSH2 0x451B JUMPI PUSH0 PUSH0 REVERT JUMPDEST PUSH2 0x4527 DUP6 DUP3 DUP7 ADD PUSH2 0x426D JUMP JUMPDEST PUSH1 0x60 DUP4 ADD MSTORE POP PUSH1 0x80 DUP4 ADD MLOAD PUSH2 0x453B DUP2 PUSH2 0x3F78 JUMP JUMPDEST PUSH1 0x80 SWAP2 SWAP1 SWAP2 ADD MSTORE SWAP3 SWAP2 POP POP JUMP JUMPDEST PUSH0 PUSH1 0x20 DUP3 DUP5 SUB SLT ISZERO PUSH2 0x4558 JUMPI PUSH0 PUSH0 REVERT JUMPDEST DUP2 MLOAD PUSH1 0x1 PUSH1 0x1 PUSH1 0x40 SHL SUB DUP2 GT ISZERO PUSH2 0x456D JUMPI PUSH0 PUSH0 REVERT JUMPDEST DUP3 ADD PUSH1 0x1F DUP2 ADD DUP5 SGT PUSH2 0x457D JUMPI PUSH0 PUSH0 REVERT JUMPDEST DUP1 MLOAD PUSH2 0x458B PUSH2 0x359C DUP3 PUSH2 0x3537 JUMP JUMPDEST DUP1 DUP3 DUP3 MSTORE PUSH1 0x20 DUP3 ADD SWAP2 POP PUSH1 0x20 DUP4 PUSH1 0x5 SHL DUP6 ADD ADD SWAP3 POP DUP7 DUP4 GT ISZERO PUSH2 0x45AC JUMPI PUSH0 PUSH0 REVERT JUMPDEST PUSH1 0x20 DUP5 ADD JUMPDEST DUP4 DUP2 LT ISZERO PUSH2 0x4437 JUMPI DUP1 MLOAD PUSH1 0x1 PUSH1 0x1 PUSH1 0x40 SHL SUB DUP2 GT ISZERO PUSH2 0x45CE JUMPI PUSH0 PUSH0 REVERT JUMPDEST PUSH2 0x45DD DUP10 PUSH1 0x20 DUP4 DUP10 ADD ADD PUSH2 0x44B1 JUMP JUMPDEST DUP5 MSTORE POP PUSH1 0x20 SWAP3 DUP4 ADD SWAP3 ADD PUSH2 0x45B1 JUMP JUMPDEST DUP2 DUP4 MSTORE DUP2 DUP2 PUSH1 0x20 DUP6 ADD CALLDATACOPY POP PUSH0 DUP3 DUP3 ADD PUSH1 0x20 SWAP1 DUP2 ADD SWAP2 SWAP1 SWAP2 MSTORE PUSH1 0x1F SWAP1 SWAP2 ADD PUSH1 0x1F NOT AND SWAP1 SWAP2 ADD ADD SWAP1 JUMP JUMPDEST DUP5 DUP2 MSTORE PUSH1 0x60 PUSH1 0x20 DUP3 ADD MSTORE PUSH0 PUSH2 0x462D PUSH1 0x60 DUP4 ADD DUP6 DUP8 PUSH2 0x45EC JUMP JUMPDEST SWAP1 POP PUSH1 0xFF DUP4 AND PUSH1 0x40 DUP4 ADD MSTORE SWAP6 SWAP5 POP POP POP POP POP JUMP JUMPDEST PUSH0 DUP3 PUSH1 0x1F DUP4 ADD SLT PUSH2 0x4650 JUMPI PUSH0 PUSH0 REVERT JUMPDEST DUP2 MLOAD PUSH2 0x465E PUSH2 0x359C DUP3 PUSH2 0x3537 JUMP JUMPDEST DUP1 DUP3 DUP3 MSTORE PUSH1 0x20 DUP3 ADD SWAP2 POP PUSH1 0x20 DUP4 PUSH1 0x5 SHL DUP7 ADD ADD SWAP3 POP DUP6 DUP4 GT ISZERO PUSH2 0x467F JUMPI PUSH0 PUSH0 REVERT JUMPDEST PUSH1 0x20 DUP6 ADD JUMPDEST DUP4 DUP2 LT ISZERO PUSH2 0x36A9 JUMPI DUP1 MLOAD PUSH1 0x1 PUSH1 0x1 PUSH1 0x40 SHL SUB DUP2 GT ISZERO PUSH2 0x46A1 JUMPI PUSH0 PUSH0 REVERT JUMPDEST PUSH2 0x46B0 DUP9 PUSH1 0x20 DUP4 DUP11 ADD ADD PUSH2 0x426D JUMP JUMPDEST DUP5 MSTORE POP PUSH1 0x20 SWAP3 DUP4 ADD SWAP3 ADD PUSH2 0x4684 JUMP JUMPDEST PUSH0 PUSH2 0x140 DUP3 DUP5 SUB SLT ISZERO PUSH2 0x46D0 JUMPI PUSH0 PUSH0 REVERT JUMPDEST PUSH2 0x46D8 PUSH2 0x347D JUMP JUMPDEST DUP3 MLOAD DUP2 MSTORE PUSH1 0x20 DUP4 ADD MLOAD SWAP1 SWAP2 POP PUSH1 0x1 PUSH1 0x1 PUSH1 0x40 SHL SUB DUP2 GT ISZERO PUSH2 0x46F7 JUMPI PUSH0 PUSH0 REVERT JUMPDEST PUSH2 0x4703 DUP5 DUP3 DUP6 ADD PUSH2 0x426D JUMP JUMPDEST PUSH1 0x20 DUP4 ADD MSTORE POP PUSH1 0x40 DUP3 ADD MLOAD PUSH1 0x1 PUSH1 0x1 PUSH1 0x40 SHL SUB DUP2 GT ISZERO PUSH2 0x4721 JUMPI PUSH0 PUSH0 REVERT JUMPDEST PUSH2 0x472D DUP5 DUP3 DUP6 ADD PUSH2 0x426D JUMP JUMPDEST PUSH1 0x40 DUP4 ADD MSTORE POP PUSH1 0x60 DUP3 DUP2 ADD MLOAD SWAP1 DUP3 ADD MSTORE PUSH1 0x80 DUP3 ADD MLOAD PUSH1 0x1 PUSH1 0x1 PUSH1 0x40 SHL SUB DUP2 GT ISZERO PUSH2 0x4755 JUMPI PUSH0 PUSH0 REVERT JUMPDEST PUSH2 0x4761 DUP5 DUP3 DUP6 ADD PUSH2 0x4641 JUMP JUMPDEST PUSH1 0x80 DUP4 ADD MSTORE POP PUSH1 0xA0 DUP3 DUP2 ADD MLOAD SWAP1 DUP3 ADD MSTORE PUSH1 0xC0 DUP1 DUP4 ADD MLOAD SWAP1 DUP3 ADD MSTORE PUSH1 0xE0 DUP1 DUP4 ADD MLOAD SWAP1 DUP3 ADD MSTORE PUSH2 0x100 DUP1 DUP4 ADD MLOAD SWAP1 DUP3 ADD MSTORE PUSH2 0x479D PUSH2 0x120 DUP4 ADD PUSH2 0x4468 JUMP JUMPDEST PUSH2 0x120 DUP3 ADD MSTORE SWAP3 SWAP2 POP POP JUMP JUMPDEST PUSH0 PUSH1 0x20 DUP3 DUP5 SUB SLT ISZERO PUSH2 0x47B9 JUMPI PUSH0 PUSH0 REVERT JUMPDEST DUP2 MLOAD PUSH1 0x1 PUSH1 0x1 PUSH1 0x40 SHL SUB DUP2 GT ISZERO PUSH2 0x47CE JUMPI PUSH0 PUSH0 REVERT JUMPDEST PUSH2 0x40E3 DUP5 DUP3 DUP6 ADD PUSH2 0x46BF JUMP JUMPDEST PUSH1 0x20 DUP1 DUP3 MSTORE PUSH1 0xF SWAP1 DUP3 ADD MSTORE PUSH15 0x496E76616C69642061646472657373 PUSH1 0x88 SHL PUSH1 0x40 DUP3 ADD MSTORE PUSH1 0x60 ADD SWAP1 JUMP JUMPDEST PUSH0 PUSH1 0x20 DUP3 DUP5 SUB SLT ISZERO PUSH2 0x4813 JUMPI PUSH0 PUSH0 REVERT JUMPDEST DUP2 MLOAD PUSH1 0x1 PUSH1 0x1 PUSH1 0x40 SHL SUB DUP2 GT ISZERO PUSH2 0x4828 JUMPI PUSH0 PUSH0 REVERT JUMPDEST PUSH2 0x40E3 DUP5 DUP3 DUP6 ADD PUSH2 0x44B1 JUMP JUMPDEST PUSH1 0x1 PUSH1 0x1 PUSH1 0xA0 SHL SUB DUP9 AND DUP2 MSTORE PUSH1 0x80 PUSH1 0x20 DUP3 ADD DUP2 SWAP1 MSTORE PUSH0 SWAP1 PUSH2 0x4858 SWAP1 DUP4 ADD DUP9 DUP11 PUSH2 0x45EC JUMP JUMPDEST DUP3 DUP2 SUB PUSH1 0x40 DUP5 ADD MSTORE PUSH2 0x486B DUP2 DUP8 DUP10 PUSH2 0x45EC JUMP JUMPDEST SWAP1 POP DUP3 DUP2 SUB PUSH1 0x60 DUP5 ADD MSTORE PUSH2 0x4880 DUP2 DUP6 DUP8 PUSH2 0x45EC JUMP JUMPDEST SWAP11 SWAP10 POP POP POP POP POP POP POP POP POP POP JUMP JUMPDEST PUSH0 PUSH1 0x20 DUP3 DUP5 SUB SLT ISZERO PUSH2 0x489E JUMPI PUSH0 PUSH0 REVERT JUMPDEST DUP2 MLOAD PUSH1 0x1 PUSH1 0x1 PUSH1 0x40 SHL SUB DUP2 GT ISZERO PUSH2 0x48B3 JUMPI PUSH0 PUSH0 REVERT JUMPDEST DUP3 ADD PUSH1 0x1F DUP2 ADD DUP5 SGT PUSH2 0x48C3 JUMPI PUSH0 PUSH0 REVERT JUMPDEST DUP1 MLOAD PUSH2 0x48D1 PUSH2 0x359C DUP3 PUSH2 0x3537 JUMP JUMPDEST DUP1 DUP3 DUP3 MSTORE PUSH1 0x20 DUP3 ADD SWAP2 POP PUSH1 0x20 DUP4 PUSH1 0x5 SHL DUP6 ADD ADD SWAP3 POP DUP7 DUP4 GT ISZERO PUSH2 0x48F2 JUMPI PUSH0 PUSH0 REVERT JUMPDEST PUSH1 0x20 DUP5 ADD SWAP4 POP JUMPDEST DUP3 DUP5 LT ISZERO PUSH2 0x4914 JUMPI DUP4 MLOAD DUP3 MSTORE PUSH1 0x20 SWAP4 DUP5 ADD SWAP4 SWAP1 SWAP2 ADD SWAP1 PUSH2 0x48F9 JUMP JUMPDEST SWAP7 SWAP6 POP POP POP POP POP POP JUMP JUMPDEST PUSH0 DUP2 MLOAD PUSH1 0x60 DUP5 MSTORE PUSH2 0x4932 PUSH1 0x60 DUP6 ADD DUP3 PUSH2 0x2E41 JUMP JUMPDEST SWAP1 POP PUSH1 0x20 DUP4 ADD MLOAD PUSH1 0x20 DUP6 ADD MSTORE PUSH1 0x40 DUP4 ADD MLOAD PUSH1 0x40 DUP6 ADD MSTORE DUP1 SWAP2 POP POP SWAP3 SWAP2 POP POP JUMP JUMPDEST PUSH0 DUP3 DUP3 MLOAD DUP1 DUP6 MSTORE PUSH1 0x20 DUP6 ADD SWAP5 POP PUSH1 0x20 DUP2 PUSH1 0x5 SHL DUP4 ADD ADD PUSH1 0x20 DUP6 ADD PUSH0 JUMPDEST DUP4 DUP2 LT ISZERO PUSH2 0x317E JUMPI PUSH1 0x1F NOT DUP6 DUP5 SUB ADD DUP9 MSTORE PUSH2 0x498A DUP4 DUP4 MLOAD PUSH2 0x491E JUMP JUMPDEST PUSH1 0x20 SWAP9 DUP10 ADD SWAP9 SWAP1 SWAP4 POP SWAP2 SWAP1 SWAP2 ADD SWAP1 PUSH1 0x1 ADD PUSH2 0x496E JUMP JUMPDEST DUP3 DUP2 MSTORE PUSH1 0x40 PUSH1 0x20 DUP3 ADD MSTORE PUSH0 PUSH2 0x2D01 PUSH1 0x40 DUP4 ADD DUP5 PUSH2 0x4952 JUMP JUMPDEST DUP6 DUP2 MSTORE PUSH1 0xA0 PUSH1 0x20 DUP3 ADD MSTORE PUSH0 PUSH2 0x49D0 PUSH1 0xA0 DUP4 ADD DUP8 PUSH2 0x2E41 JUMP JUMPDEST DUP3 DUP2 SUB PUSH1 0x40 DUP5 ADD MSTORE PUSH2 0x49E2 DUP2 DUP8 PUSH2 0x2E41 JUMP JUMPDEST SWAP1 POP DUP5 PUSH1 0x60 DUP5 ADD MSTORE DUP3 DUP2 SUB PUSH1 0x80 DUP5 ADD MSTORE PUSH2 0x49FC DUP2 DUP6 PUSH2 0x3130 JUMP JUMPDEST SWAP9 SWAP8 POP POP POP POP POP POP POP POP JUMP JUMPDEST DUP7 DUP2 MSTORE DUP6 PUSH1 0x20 DUP3 ADD MSTORE PUSH1 0xA0 PUSH1 0x40 DUP3 ADD MSTORE PUSH0 PUSH2 0x4A26 PUSH1 0xA0 DUP4 ADD DUP8 PUSH2 0x3130 JUMP JUMPDEST DUP3 DUP2 SUB PUSH1 0x60 DUP5 ADD MSTORE PUSH2 0x4A39 DUP2 DUP7 DUP9 PUSH2 0x45EC JUMP JUMPDEST SWAP2 POP POP PUSH1 0xFF DUP4 AND PUSH1 0x80 DUP4 ADD MSTORE SWAP8 SWAP7 POP POP POP POP POP POP POP JUMP JUMPDEST PUSH0 PUSH1 0x20 DUP3 DUP5 SUB SLT ISZERO PUSH2 0x4A60 JUMPI PUSH0 PUSH0 REVERT JUMPDEST POP MLOAD SWAP2 SWAP1 POP JUMP JUMPDEST PUSH1 0x20 DUP1 DUP3 MSTORE PUSH1 0x1C SWAP1 DUP3 ADD MSTORE PUSH32 0x43617465676F72794D616E61676572206E6F74206465706C6F79656400000000 PUSH1 0x40 DUP3 ADD MSTORE PUSH1 0x60 ADD SWAP1 JUMP JUMPDEST DUP3 DUP2 MSTORE PUSH1 0x40 PUSH1 0x20 DUP3 ADD MSTORE PUSH0 PUSH2 0x2D01 PUSH1 0x40 DUP4 ADD DUP5 PUSH2 0x2E41 JUMP JUMPDEST PUSH0 PUSH1 0x20 DUP3 DUP5 SUB SLT ISZERO PUSH2 0x4AC6 JUMPI PUSH0 PUSH0 REVERT JUMPDEST DUP2 MLOAD PUSH2 0x2D04 DUP2 PUSH2 0x3243 JUMP JUMPDEST PUSH1 0x20 DUP1 DUP3 MSTORE PUSH1 0x12 SWAP1 DUP3 ADD MSTORE PUSH18 0x2737BA1030B236B4B71037B91039BA30B333 PUSH1 0x71 SHL PUSH1 0x40 DUP3 ADD MSTORE PUSH1 0x60 ADD SWAP1 JUMP JUMPDEST DUP4 DUP2 MSTORE PUSH1 0x20 DUP2 ADD DUP4 SWAP1 MSTORE PUSH1 0x60 DUP2 ADD PUSH2 0x40E3 PUSH1 0x40 DUP4 ADD DUP5 PUSH2 0x3A46 JUMP JUMPDEST PUSH1 0x1 DUP1 PUSH1 0xA0 SHL SUB DUP8 AND DUP2 MSTORE DUP6 PUSH1 0x20 DUP3 ADD MSTORE PUSH1 0xC0 PUSH1 0x40 DUP3 ADD MSTORE PUSH0 PUSH2 0x4B3E PUSH1 0xC0 DUP4 ADD DUP8 PUSH2 0x2E41 JUMP JUMPDEST DUP3 DUP2 SUB PUSH1 0x60 DUP5 ADD MSTORE PUSH2 0x4B50 DUP2 DUP8 PUSH2 0x2E41 JUMP JUMPDEST PUSH1 0x80 DUP5 ADD DUP7 SWAP1 MSTORE DUP4 DUP2 SUB PUSH1 0xA0 DUP6 ADD MSTORE DUP5 MLOAD DUP1 DUP3 MSTORE PUSH1 0x20 DUP1 DUP8 ADD SWAP4 POP SWAP1 SWAP2 ADD SWAP1 PUSH0 JUMPDEST DUP2 DUP2 LT ISZERO PUSH2 0x4BAB JUMPI DUP4 MLOAD DUP1 MLOAD DUP5 MSTORE PUSH1 0x20 DUP2 ADD MLOAD PUSH1 0x20 DUP6 ADD MSTORE PUSH1 0x40 DUP2 ADD MLOAD PUSH1 0x40 DUP6 ADD MSTORE POP PUSH1 0x60 DUP4 ADD SWAP3 POP PUSH1 0x20 DUP5 ADD SWAP4 POP PUSH1 0x1 DUP2 ADD SWAP1 POP PUSH2 0x4B71 JUMP JUMPDEST POP SWAP1 SWAP11 SWAP10 POP POP POP POP POP POP POP POP POP POP JUMP JUMPDEST PUSH0 DUP3 PUSH1 0x1F DUP4 ADD SLT PUSH2 0x4BCA JUMPI PUSH0 PUSH0 REVERT JUMPDEST DUP2 MLOAD PUSH2 0x4BD8 PUSH2 0x359C DUP3 PUSH2 0x3537 JUMP JUMPDEST DUP1 DUP3 DUP3 MSTORE PUSH1 0x20 DUP3 ADD SWAP2 POP PUSH1 0x20 PUSH1 0xE0 DUP5 MUL DUP7 ADD ADD SWAP3 POP DUP6 DUP4 GT ISZERO PUSH2 0x4BF9 JUMPI PUSH0 PUSH0 REVERT JUMPDEST PUSH1 0x20 DUP6 ADD JUMPDEST DUP4 DUP2 LT ISZERO PUSH2 0x36A9 JUMPI PUSH1 0xE0 DUP2 DUP9 SUB SLT ISZERO PUSH2 0x4C15 JUMPI PUSH0 PUSH0 REVERT JUMPDEST PUSH2 0x4C1D PUSH2 0x345B JUMP JUMPDEST DUP2 MLOAD DUP2 MSTORE PUSH1 0x20 DUP1 DUP4 ADD MLOAD SWAP1 DUP3 ADD MSTORE PUSH1 0x40 DUP1 DUP4 ADD MLOAD SWAP1 DUP3 ADD MSTORE PUSH1 0x60 DUP1 DUP4 ADD MLOAD SWAP1 DUP3 ADD MSTORE PUSH1 0x80 DUP1 DUP4 ADD MLOAD SWAP1 DUP3 ADD MSTORE PUSH1 0xA0 DUP3 ADD MLOAD PUSH2 0x4C57 DUP2 PUSH2 0x38D8 JUMP JUMPDEST PUSH1 0xA0 DUP3 ADD MSTORE PUSH1 0xC0 DUP3 DUP2 ADD MLOAD SWAP1 DUP3 ADD MSTORE DUP4 MSTORE PUSH1 0x20 SWAP1 SWAP3 ADD SWAP2 PUSH1 0xE0 ADD PUSH2 0x4BFE JUMP JUMPDEST DUP1 MLOAD PUSH2 0x1A6E DUP2 PUSH2 0x3C03 JUMP JUMPDEST PUSH0 PUSH2 0x180 DUP3 DUP5 SUB SLT ISZERO PUSH2 0x4C92 JUMPI PUSH0 PUSH0 REVERT JUMPDEST PUSH2 0x4C9A PUSH2 0x34A0 JUMP JUMPDEST DUP3 MLOAD DUP2 MSTORE SWAP1 POP PUSH2 0x4CAC PUSH1 0x20 DUP4 ADD PUSH2 0x4262 JUMP JUMPDEST PUSH1 0x20 DUP3 ADD MSTORE PUSH1 0x40 DUP3 ADD MLOAD PUSH1 0x1 PUSH1 0x1 PUSH1 0x40 SHL SUB DUP2 GT ISZERO PUSH2 0x4CC9 JUMPI PUSH0 PUSH0 REVERT JUMPDEST PUSH2 0x4CD5 DUP5 DUP3 DUP6 ADD PUSH2 0x426D JUMP JUMPDEST PUSH1 0x40 DUP4 ADD MSTORE POP PUSH1 0x60 DUP3 ADD MLOAD PUSH1 0x1 PUSH1 0x1 PUSH1 0x40 SHL SUB DUP2 GT ISZERO PUSH2 0x4CF3 JUMPI PUSH0 PUSH0 REVERT JUMPDEST PUSH2 0x4CFF DUP5 DUP3 DUP6 ADD PUSH2 0x426D JUMP JUMPDEST PUSH1 0x60 DUP4 ADD MSTORE POP PUSH1 0x80 DUP3 ADD MLOAD PUSH1 0x1 PUSH1 0x1 PUSH1 0x40 SHL SUB DUP2 GT ISZERO PUSH2 0x4D1D JUMPI PUSH0 PUSH0 REVERT JUMPDEST PUSH2 0x4D29 DUP5 DUP3 DUP6 ADD PUSH2 0x426D JUMP JUMPDEST PUSH1 0x80 DUP4 ADD MSTORE POP PUSH1 0xA0 DUP3 ADD MLOAD PUSH1 0x1 PUSH1 0x1 PUSH1 0x40 SHL SUB DUP2 GT ISZERO PUSH2 0x4D47 JUMPI PUSH0 PUSH0 REVERT JUMPDEST PUSH2 0x4D53 DUP5 DUP3 DUP6 ADD PUSH2 0x426D JUMP JUMPDEST PUSH1 0xA0 DUP4 ADD MSTORE POP PUSH2 0x4D65 PUSH1 0xC0 DUP4 ADD PUSH2 0x4262 JUMP JUMPDEST PUSH1 0xC0 DUP3 ADD MSTORE PUSH1 0xE0 DUP3 DUP2 ADD MLOAD SWAP1 DUP3 ADD MSTORE PUSH2 0x100 DUP3 ADD MLOAD PUSH1 0x1 PUSH1 0x1 PUSH1 0x40 SHL SUB DUP2 GT ISZERO PUSH2 0x4D8D JUMPI PUSH0 PUSH0 REVERT JUMPDEST PUSH2 0x4D99 DUP5 DUP3 DUP6 ADD PUSH2 0x4BBB JUMP JUMPDEST PUSH2 0x100 DUP4 ADD MSTORE POP PUSH2 0x120 DUP3 DUP2 ADD MLOAD SWAP1 DUP3 ADD MSTORE PUSH2 0x4DB8 PUSH2 0x140 DUP4 ADD PUSH2 0x4C76 JUMP JUMPDEST PUSH2 0x140 DUP3 ADD MSTORE PUSH2 0x160 SWAP2 DUP3 ADD MLOAD SWAP2 DUP2 ADD SWAP2 SWAP1 SWAP2 MSTORE SWAP2 SWAP1 POP JUMP JUMPDEST PUSH0 PUSH1 0x20 DUP3 DUP5 SUB SLT ISZERO PUSH2 0x4DE1 JUMPI PUSH0 PUSH0 REVERT JUMPDEST DUP2 MLOAD PUSH1 0x1 PUSH1 0x1 PUSH1 0x40 SHL SUB DUP2 GT ISZERO PUSH2 0x4DF6 JUMPI PUSH0 PUSH0 REVERT JUMPDEST PUSH2 0x40E3 DUP5 DUP3 DUP6 ADD PUSH2 0x4C81 JUMP JUMPDEST PUSH1 0x20 DUP2 ADD PUSH2 0xBF4 DUP3 DUP5 PUSH2 0x3ADE JUMP JUMPDEST PUSH0 PUSH1 0x20 DUP3 DUP5 SUB SLT ISZERO PUSH2 0x4E20 JUMPI PUSH0 PUSH0 REVERT JUMPDEST DUP2 MLOAD PUSH1 0x1 PUSH1 0x1 PUSH1 0x40 SHL SUB DUP2 GT ISZERO PUSH2 0x4E35 JUMPI PUSH0 PUSH0 REVERT JUMPDEST DUP3 ADD PUSH1 0x1F DUP2 ADD DUP5 SGT PUSH2 0x4E45 JUMPI PUSH0 PUSH0 REVERT JUMPDEST DUP1 MLOAD PUSH2 0x4E53 PUSH2 0x359C DUP3 PUSH2 0x3537 JUMP JUMPDEST DUP1 DUP3 DUP3 MSTORE PUSH1 0x20 DUP3 ADD SWAP2 POP PUSH1 0x20 DUP4 PUSH1 0x5 SHL DUP6 ADD ADD SWAP3 POP DUP7 DUP4 GT ISZERO PUSH2 0x4E74 JUMPI PUSH0 PUSH0 REVERT JUMPDEST PUSH1 0x20 DUP5 ADD JUMPDEST DUP4 DUP2 LT ISZERO PUSH2 0x4437 JUMPI DUP1 MLOAD PUSH1 0x1 PUSH1 0x1 PUSH1 0x40 SHL SUB DUP2 GT ISZERO PUSH2 0x4E96 JUMPI PUSH0 PUSH0 REVERT JUMPDEST PUSH2 0x4EA5 DUP10 PUSH1 0x20 DUP4 DUP10 ADD ADD PUSH2 0x4C81 JUMP JUMPDEST DUP5 MSTORE POP PUSH1 0x20 SWAP3 DUP4 ADD SWAP3 ADD PUSH2 0x4E79 JUMP JUMPDEST PUSH1 0x1 DUP1 PUSH1 0xA0 SHL SUB DUP8 AND DUP2 MSTORE DUP6 PUSH1 0x20 DUP3 ADD MSTORE PUSH1 0xA0 PUSH1 0x40 DUP3 ADD MSTORE PUSH0 PUSH2 0x4EDB PUSH1 0xA0 DUP4 ADD DUP7 DUP9 PUSH2 0x45EC JUMP JUMPDEST DUP3 DUP2 SUB PUSH1 0x60 DUP5 ADD MSTORE PUSH2 0x4A39 DUP2 DUP7 PUSH2 0x3130 JUMP JUMPDEST DUP3 DUP2 MSTORE PUSH1 0x40 DUP2 ADD PUSH2 0x2D04 PUSH1 0x20 DUP4 ADD DUP5 PUSH2 0x3ADE JUMP JUMPDEST PUSH0 DUP3 PUSH1 0x1F DUP4 ADD SLT PUSH2 0x4F10 JUMPI PUSH0 PUSH0 REVERT JUMPDEST DUP2 MLOAD PUSH2 0x4F1E PUSH2 0x359C DUP3 PUSH2 0x3537 JUMP JUMPDEST DUP1 DUP3 DUP3 MSTORE PUSH1 0x20 DUP3 ADD SWAP2 POP PUSH1 0x20 DUP4 PUSH1 0x5 SHL DUP7 ADD ADD SWAP3 POP DUP6 DUP4 GT ISZERO PUSH2 0x4F3F JUMPI PUSH0 PUSH0 REVERT JUMPDEST PUSH1 0x20 DUP6 ADD JUMPDEST DUP4 DUP2 LT ISZERO PUSH2 0x36A9 JUMPI DUP1 MLOAD PUSH1 0x1 PUSH1 0x1 PUSH1 0x40 SHL SUB DUP2 GT ISZERO PUSH2 0x4F61 JUMPI PUSH0 PUSH0 REVERT JUMPDEST DUP7 ADD PUSH1 0xC0 DUP2 DUP10 SUB PUSH1 0x1F NOT ADD SLT ISZERO PUSH2 0x4F76 JUMPI PUSH0 PUSH0 REVERT JUMPDEST PUSH2 0x4F7E PUSH2 0x34C3 JUMP JUMPDEST PUSH1 0x20 DUP3 ADD MLOAD DUP2 MSTORE PUSH1 0x40 DUP3 ADD MLOAD PUSH1 0x1 PUSH1 0x1 PUSH1 0x40 SHL SUB DUP2 GT ISZERO PUSH2 0x4F9D JUMPI PUSH0 PUSH0 REVERT JUMPDEST PUSH2 0x4FAC DUP11 PUSH1 0x20 DUP4 DUP7 ADD ADD PUSH2 0x426D JUMP JUMPDEST PUSH1 0x20 DUP4 ADD MSTORE POP PUSH1 0x60 DUP3 DUP2 ADD MLOAD PUSH1 0x40 DUP4 ADD MSTORE PUSH1 0x80 DUP1 DUP5 ADD MLOAD SWAP2 DUP4 ADD SWAP2 SWAP1 SWAP2 MSTORE PUSH1 0xA0 DUP4 ADD MLOAD SWAP1 DUP3 ADD MSTORE PUSH1 0xC0 SWAP1 SWAP2 ADD MLOAD SWAP1 PUSH2 0x4FE3 DUP3 PUSH2 0x2F88 JUMP JUMPDEST PUSH1 0xA0 DUP2 ADD SWAP2 SWAP1 SWAP2 MSTORE DUP4 MSTORE PUSH1 0x20 SWAP3 DUP4 ADD SWAP3 ADD PUSH2 0x4F44 JUMP JUMPDEST PUSH0 PUSH1 0x20 DUP3 DUP5 SUB SLT ISZERO PUSH2 0x5009 JUMPI PUSH0 PUSH0 REVERT JUMPDEST DUP2 MLOAD PUSH1 0x1 PUSH1 0x1 PUSH1 0x40 SHL SUB DUP2 GT ISZERO PUSH2 0x501E JUMPI PUSH0 PUSH0 REVERT JUMPDEST PUSH2 0x40E3 DUP5 DUP3 DUP6 ADD PUSH2 0x4F01 JUMP JUMPDEST DUP1 MLOAD PUSH2 0x1A6E DUP2 PUSH2 0x30B1 JUMP JUMPDEST PUSH0 PUSH1 0x20 DUP3 DUP5 SUB SLT ISZERO PUSH2 0x5045 JUMPI PUSH0 PUSH0 REVERT JUMPDEST DUP2 MLOAD PUSH1 0x1 PUSH1 0x1 PUSH1 0x40 SHL SUB DUP2 GT ISZERO PUSH2 0x505A JUMPI PUSH0 PUSH0 REVERT JUMPDEST DUP3 ADD PUSH1 0x1F DUP2 ADD DUP5 SGT PUSH2 0x506A JUMPI PUSH0 PUSH0 REVERT JUMPDEST DUP1 MLOAD PUSH2 0x5078 PUSH2 0x359C DUP3 PUSH2 0x3537 JUMP JUMPDEST DUP1 DUP3 DUP3 MSTORE PUSH1 0x20 DUP3 ADD SWAP2 POP PUSH1 0x20 DUP4 PUSH1 0x5 SHL DUP6 ADD ADD SWAP3 POP DUP7 DUP4 GT ISZERO PUSH2 0x5099 JUMPI PUSH0 PUSH0 REVERT JUMPDEST PUSH1 0x20 DUP5 ADD JUMPDEST DUP4 DUP2 LT ISZERO PUSH2 0x4437 JUMPI DUP1 MLOAD PUSH1 0x1 PUSH1 0x1 PUSH1 0x40 SHL SUB DUP2 GT ISZERO PUSH2 0x50BB JUMPI PUSH0 PUSH0 REVERT JUMPDEST DUP6 ADD PUSH1 0xE0 DUP2 DUP11 SUB PUSH1 0x1F NOT ADD SLT ISZERO PUSH2 0x50D0 JUMPI PUSH0 PUSH0 REVERT JUMPDEST PUSH2 0x50D8 PUSH2 0x345B JUMP JUMPDEST PUSH1 0x20 DUP3 ADD MLOAD DUP2 MSTORE PUSH2 0x50EB PUSH1 0x40 DUP4 ADD PUSH2 0x4262 JUMP JUMPDEST PUSH1 0x20 DUP3 ADD MSTORE PUSH2 0x50FC PUSH1 0x60 DUP4 ADD PUSH2 0x4262 JUMP JUMPDEST PUSH1 0x40 DUP3 ADD MSTORE PUSH1 0x80 DUP3 ADD MLOAD PUSH1 0x1 PUSH1 0x1 PUSH1 0x40 SHL SUB DUP2 GT ISZERO PUSH2 0x5119 JUMPI PUSH0 PUSH0 REVERT JUMPDEST PUSH2 0x5128 DUP12 PUSH1 0x20 DUP4 DUP7 ADD ADD PUSH2 0x426D JUMP JUMPDEST PUSH1 0x60 DUP4 ADD MSTORE POP PUSH1 0xA0 DUP3 ADD MLOAD PUSH1 0x1 PUSH1 0x1 PUSH1 0x40 SHL SUB DUP2 GT ISZERO PUSH2 0x5146 JUMPI PUSH0 PUSH0 REVERT JUMPDEST PUSH2 0x5155 DUP12 PUSH1 0x20 DUP4 DUP7 ADD ADD PUSH2 0x4641 JUMP JUMPDEST PUSH1 0x80 DUP4 ADD MSTORE POP PUSH2 0x5167 PUSH1 0xC0 DUP4 ADD PUSH2 0x502A JUMP JUMPDEST PUSH1 0xA0 DUP3 ADD MSTORE PUSH1 0xE0 SWAP2 SWAP1 SWAP2 ADD MLOAD PUSH1 0xC0 DUP3 ADD MSTORE DUP4 MSTORE PUSH1 0x20 SWAP3 DUP4 ADD SWAP3 ADD PUSH2 0x509E JUMP JUMPDEST DUP7 DUP2 MSTORE PUSH1 0xC0 PUSH1 0x20 DUP3 ADD MSTORE PUSH0 PUSH2 0x519E PUSH1 0xC0 DUP4 ADD DUP9 PUSH2 0x2E41 JUMP JUMPDEST DUP3 DUP2 SUB PUSH1 0x40 DUP5 ADD MSTORE PUSH2 0x51B0 DUP2 DUP9 PUSH2 0x2E41 JUMP JUMPDEST SWAP1 POP DUP6 PUSH1 0x60 DUP5 ADD MSTORE DUP3 DUP2 SUB PUSH1 0x80 DUP5 ADD MSTORE PUSH2 0x51CA DUP2 DUP7 PUSH2 0x3130 JUMP JUMPDEST SWAP1 POP DUP3 DUP2 SUB PUSH1 0xA0 DUP5 ADD MSTORE PUSH2 0x51DE DUP2 DUP6 PUSH2 0x4952 JUMP JUMPDEST SWAP10 SWAP9 POP POP POP POP POP POP POP POP POP JUMP JUMPDEST DUP3 DUP2 MSTORE PUSH1 0x40 DUP2 ADD PUSH2 0x445B DUP4 PUSH2 0x2E83 JUMP JUMPDEST PUSH0 PUSH1 0x20 DUP3 DUP5 SUB SLT ISZERO PUSH2 0x520B JUMPI PUSH0 PUSH0 REVERT JUMPDEST DUP2 MLOAD PUSH1 0x1 PUSH1 0x1 PUSH1 0x40 SHL SUB DUP2 GT ISZERO PUSH2 0x5220 JUMPI PUSH0 PUSH0 REVERT JUMPDEST DUP3 ADD PUSH1 0x1F DUP2 ADD DUP5 SGT PUSH2 0x5230 JUMPI PUSH0 PUSH0 REVERT JUMPDEST DUP1 MLOAD PUSH2 0x523E PUSH2 0x359C DUP3 PUSH2 0x3537 JUMP JUMPDEST DUP1 DUP3 DUP3 MSTORE PUSH1 0x20 DUP3 ADD SWAP2 POP PUSH1 0x20 DUP4 PUSH1 0x5 SHL DUP6 ADD ADD SWAP3 POP DUP7 DUP4 GT ISZERO PUSH2 0x525F JUMPI PUSH0 PUSH0 REVERT JUMPDEST PUSH1 0x20 DUP5 ADD JUMPDEST DUP4 DUP2 LT ISZERO PUSH2 0x4437 JUMPI DUP1 MLOAD PUSH1 0x1 PUSH1 0x1 PUSH1 0x40 SHL SUB DUP2 GT ISZERO PUSH2 0x5281 JUMPI PUSH0 PUSH0 REVERT JUMPDEST DUP6 ADD PUSH1 0x40 DUP2 DUP11 SUB PUSH1 0x1F NOT ADD SLT ISZERO PUSH2 0x5296 JUMPI PUSH0 PUSH0 REVERT JUMPDEST PUSH2 0x529E PUSH2 0x34E5 JUMP JUMPDEST PUSH1 0x20 DUP3 ADD MLOAD PUSH1 0x1 PUSH1 0x1 PUSH1 0x40 SHL SUB DUP2 GT ISZERO PUSH2 0x52B6 JUMPI PUSH0 PUSH0 REVERT JUMPDEST PUSH2 0x52C5 DUP12 PUSH1 0x20 DUP4 DUP7 ADD ADD PUSH2 0x46BF JUMP JUMPDEST DUP3 MSTORE POP PUSH1 0x40 DUP3 ADD MLOAD PUSH1 0x1 PUSH1 0x1 PUSH1 0x40 SHL SUB DUP2 GT ISZERO PUSH2 0x52E0 JUMPI PUSH0 PUSH0 REVERT JUMPDEST PUSH2 0x52EF DUP12 PUSH1 0x20 DUP4 DUP7 ADD ADD PUSH2 0x4F01 JUMP JUMPDEST PUSH1 0x20 DUP4 ADD MSTORE POP DUP1 DUP6 MSTORE POP POP PUSH1 0x20 DUP4 ADD SWAP3 POP PUSH1 0x20 DUP2 ADD SWAP1 POP PUSH2 0x5264 JUMP JUMPDEST DUP4 DUP2 MSTORE DUP3 PUSH1 0x20 DUP3 ADD MSTORE PUSH1 0x60 PUSH1 0x40 DUP3 ADD MSTORE PUSH0 PUSH2 0x5329 PUSH1 0x60 DUP4 ADD DUP5 PUSH2 0x491E JUMP JUMPDEST SWAP6 SWAP5 POP POP POP POP POP JUMP JUMPDEST DUP5 DUP2 MSTORE DUP4 PUSH1 0x20 DUP3 ADD MSTORE DUP3 PUSH1 0x40 DUP3 ADD MSTORE PUSH1 0x80 PUSH1 0x60 DUP3 ADD MSTORE PUSH0 PUSH2 0x4914 PUSH1 0x80 DUP4 ADD DUP5 PUSH2 0x2E41 JUMP JUMPDEST PUSH0 PUSH1 0x40 DUP3 DUP5 SUB SLT ISZERO PUSH2 0x5366 JUMPI PUSH0 PUSH0 REVERT JUMPDEST PUSH2 0x536E PUSH2 0x34E5 JUMP JUMPDEST DUP3 MLOAD DUP2 MSTORE PUSH1 0x20 DUP4 ADD MLOAD SWAP1 SWAP2 POP PUSH1 0x1 PUSH1 0x1 PUSH1 0x40 SHL SUB DUP2 GT ISZERO PUSH2 0x538D JUMPI PUSH0 PUSH0 REVERT JUMPDEST PUSH2 0x5399 DUP5 DUP3 DUP6 ADD PUSH2 0x426D JUMP JUMPDEST PUSH1 0x20 DUP4 ADD MSTORE POP SWAP3 SWAP2 POP POP JUMP JUMPDEST PUSH0 PUSH1 0x20 DUP3 DUP5 SUB SLT ISZERO PUSH2 0x53B5 JUMPI PUSH0 PUSH0 REVERT JUMPDEST DUP2 MLOAD PUSH1 0x1 PUSH1 0x1 PUSH1 0x40 SHL SUB DUP2 GT ISZERO PUSH2 0x53CA JUMPI PUSH0 PUSH0 REVERT JUMPDEST DUP3 ADD PUSH1 0x1F DUP2 ADD DUP5 SGT PUSH2 0x53DA JUMPI PUSH0 PUSH0 REVERT JUMPDEST DUP1 MLOAD PUSH2 0x53E8 PUSH2 0x359C DUP3 PUSH2 0x3537 JUMP JUMPDEST DUP1 DUP3 DUP3 MSTORE PUSH1 0x20 DUP3 ADD SWAP2 POP PUSH1 0x20 DUP4 PUSH1 0x5 SHL DUP6 ADD ADD SWAP3 POP DUP7 DUP4 GT ISZERO PUSH2 0x5409 JUMPI PUSH0 PUSH0 REVERT JUMPDEST PUSH1 0x20 DUP5 ADD JUMPDEST DUP4 DUP2 LT ISZERO PUSH2 0x4437 JUMPI DUP1 MLOAD PUSH1 0x1 PUSH1 0x1 PUSH1 0x40 SHL SUB DUP2 GT ISZERO PUSH2 0x542B JUMPI PUSH0 PUSH0 REVERT JUMPDEST PUSH2 0x543A DUP10 PUSH1 0x20 DUP4 DUP10 ADD ADD PUSH2 0x5356 JUMP JUMPDEST DUP5 MSTORE POP PUSH1 0x20 SWAP3 DUP4 ADD SWAP3 ADD PUSH2 0x540E JUMP JUMPDEST PUSH0 PUSH1 0x20 DUP3 DUP5 SUB SLT ISZERO PUSH2 0x5459 JUMPI PUSH0 PUSH0 REVERT JUMPDEST DUP2 MLOAD PUSH1 0x1 PUSH1 0x1 PUSH1 0x40 SHL SUB DUP2 GT ISZERO PUSH2 0x546E JUMPI PUSH0 PUSH0 REVERT JUMPDEST PUSH2 0x40E3 DUP5 DUP3 DUP6 ADD PUSH2 0x42C5 JUMP JUMPDEST PUSH0 PUSH1 0x20 DUP3 DUP5 SUB SLT ISZERO PUSH2 0x548A JUMPI PUSH0 PUSH0 REVERT JUMPDEST DUP2 MLOAD PUSH1 0x1 PUSH1 0x1 PUSH1 0x40 SHL SUB DUP2 GT ISZERO PUSH2 0x549F JUMPI PUSH0 PUSH0 REVERT JUMPDEST PUSH2 0x40E3 DUP5 DUP3 DUP6 ADD PUSH2 0x5356 JUMP JUMPDEST PUSH0 PUSH1 0x20 DUP3 DUP5 SUB SLT ISZERO PUSH2 0x54BB JUMPI PUSH0 PUSH0 REVERT JUMPDEST DUP2 MLOAD PUSH1 0x1 PUSH1 0x1 PUSH1 0x40 SHL SUB DUP2 GT ISZERO PUSH2 0x54D0 JUMPI PUSH0 PUSH0 REVERT JUMPDEST DUP3 ADD PUSH1 0x1F DUP2 ADD DUP5 SGT PUSH2 0x54E0 JUMPI PUSH0 PUSH0 REVERT JUMPDEST DUP1 MLOAD PUSH2 0x54EE PUSH2 0x359C DUP3 PUSH2 0x3537 JUMP JUMPDEST DUP1 DUP3 DUP3 MSTORE PUSH1 0x20 DUP3 ADD SWAP2 POP PUSH1 0x20 DUP4 PUSH1 0x5 SHL DUP6 ADD ADD SWAP3 POP DUP7 DUP4 GT ISZERO PUSH2 0x550F JUMPI PUSH0 PUSH0 REVERT JUMPDEST PUSH1 0x20 DUP5 ADD JUMPDEST DUP4 DUP2 LT ISZERO PUSH2 0x4437 JUMPI DUP1 MLOAD PUSH1 0x1 PUSH1 0x1 PUSH1 0x40 SHL SUB DUP2 GT ISZERO PUSH2 0x5531 JUMPI PUSH0 PUSH0 REVERT JUMPDEST DUP6 ADD PUSH1 0xE0 DUP2 DUP11 SUB PUSH1 0x1F NOT ADD SLT ISZERO PUSH2 0x5546 JUMPI PUSH0 PUSH0 REVERT JUMPDEST PUSH2 0x554E PUSH2 0x345B JUMP JUMPDEST PUSH1 0x20 DUP3 ADD MLOAD DUP2 MSTORE PUSH2 0x5561 PUSH1 0x40 DUP4 ADD PUSH2 0x4262 JUMP JUMPDEST PUSH1 0x20 DUP3 ADD MSTORE PUSH1 0x60 DUP3 ADD MLOAD PUSH1 0x1 PUSH1 0x1 PUSH1 0x40 SHL SUB DUP2 GT ISZERO PUSH2 0x557E JUMPI PUSH0 PUSH0 REVERT JUMPDEST PUSH2 0x558D DUP12 PUSH1 0x20 DUP4 DUP7 ADD ADD PUSH2 0x4641 JUMP JUMPDEST PUSH1 0x40 DUP4 ADD MSTORE POP PUSH1 0x80 DUP3 ADD MLOAD PUSH1 0x60 DUP3 ADD MSTORE PUSH1 0xA0 DUP3 ADD MLOAD PUSH1 0x1 PUSH1 0x1 PUSH1 0x40 SHL SUB DUP2 GT ISZERO PUSH2 0x55B5 JUMPI PUSH0 PUSH0 REVERT JUMPDEST PUSH2 0x55C4 DUP12 PUSH1 0x20 DUP4 DUP7 ADD ADD PUSH2 0x426D JUMP JUMPDEST PUSH1 0x80 DUP4 ADD MSTORE POP PUSH2 0x55D6 PUSH1 0xC0 DUP4 ADD PUSH2 0x502A JUMP JUMPDEST PUSH1 0xA0 DUP3 ADD MSTORE PUSH1 0xE0 SWAP2 SWAP1 SWAP2 ADD MLOAD PUSH1 0xC0 DUP3 ADD MSTORE DUP4 MSTORE PUSH1 0x20 SWAP3 DUP4 ADD SWAP3 ADD PUSH2 0x5514 JUMP JUMPDEST DUP4 DUP2 MSTORE DUP3 PUSH1 0x20 DUP3 ADD MSTORE PUSH1 0x60 PUSH1 0x40 DUP3 ADD MSTORE PUSH0 PUSH2 0x5329 PUSH1 0x60 DUP4 ADD DUP5 PUSH2 0x2E41 JUMP INVALID LOG2 PUSH5 0x6970667358 0x22 SLT KECCAK256 AND 0xB2 0xC2 PUSH22 0x57387939A455808F4E103A65EB95BFE9BE92542AA14C CALLF 0x1CCF RJUMP 0x2B62 PUSH5 0x736F6C6343 STOP ADDMOD 0x1E STOP CALLER "
		},
		"gasEstimates": {
			"creation": {
				"codeDepositCost": "4417800",
				"executionCost": "infinite",
				"totalCost": "infinite"
			},
			"external": {
				"addAdminRole(address)": "infinite",
				"addFoodDetails(uint256,(string,uint256,uint256)[])": "infinite",
				"addFoodRating(uint256,uint256,string[],string,uint8)": "infinite",
				"addStaff(address,string,string,string)": "infinite",
				"addStaffRating(address,uint256,string,string[],uint8)": "infinite",
				"addStaffRole(address)": "infinite",
				"addStaffToOrder(uint256,address)": "infinite",
				"addTable(uint256,uint256,string)": "infinite",
				"addTableToOrder(uint256,uint256)": "infinite",
				"categoryManager()": "2448",
				"createCategory(uint256,string)": "infinite",
				"createFood(uint256,string,string,uint256,string[],(string,uint256,uint256)[])": "infinite",
				"createOrder(address,uint256,string,string,uint256,(uint256,uint256,uint256)[])": "infinite",
				"deleteCategory(uint256)": "infinite",
				"deleteFood(uint256)": "infinite",
				"deleteFoodDetail(uint256,uint256)": "infinite",
				"deleteFoodRating(uint256)": "infinite",
				"deleteStaffRating(uint256)": "infinite",
				"deleteTable(uint256)": "infinite",
				"editTable(uint256,uint256,uint256)": "infinite",
				"foodManager()": "2404",
				"foodRatingManager()": "2471",
				"getAllCategories()": "infinite",
				"getAllFoods()": "infinite",
				"getAllStaffs()": "infinite",
				"getAllTables()": "infinite",
				"getCategory(uint256)": "infinite",
				"getCurrentUser()": "301",
				"getFood(uint256)": "infinite",
				"getFoodDetails(uint256)": "infinite",
				"getFoodRatingsByFoodId(uint256)": "infinite",
				"getHiddenFoodDetails()": "infinite",
				"getHiddenFoods()": "infinite",
				"getOrdersByStatus(uint8)": "infinite",
				"getOwner()": "infinite",
				"getStaff(address)": "infinite",
				"getStaffRatingsByStaffId(address)": "infinite",
				"getTableById(uint256)": "infinite",
				"getUserOrders(address)": "infinite",
				"initFoodRatingManager(address,address)": "infinite",
				"orderManager()": "2424",
				"roleAccess()": "2470",
				"setCategory(address)": "infinite",
				"setFoodDetailHidden(uint256,uint256,bool)": "infinite",
				"setFoodManager(address)": "infinite",
				"setFoodVisibility(uint256,bool)": "infinite",
				"setOrderManager(address,address)": "infinite",
				"setStaffManager(address)": "infinite",
				"setStaffRatingManager(address,address)": "infinite",
				"setTableManager(address,address)": "infinite",
				"staffManager()": "2427",
				"staffRatingManager()": "2450",
				"tableManager()": "2470",
				"updateCategory(uint256,string)": "infinite",
				"updateFood(uint256,string,string,uint256,string[])": "infinite",
				"updateFoodDetail(uint256,uint256,(string,uint256,uint256))": "infinite",
				"updateFoodRating(uint256,string,uint8)": "infinite",
				"updateOrderItemStatus(uint256,uint256,uint8)": "infinite",
				"updateOrderStatus(uint256,uint8)": "infinite",
				"updateStaffInfo(address,string,string,string)": "infinite",
				"updateStaffRating(uint256,string,uint8)": "infinite",
				"updateStatusTable(uint256,uint8)": "infinite",
				"updateTable(uint256,uint256,uint256,string)": "infinite"
			}
		},
		"methodIdentifiers": {
			"addAdminRole(address)": "6595171c",
			"addFoodDetails(uint256,(string,uint256,uint256)[])": "64f77471",
			"addFoodRating(uint256,uint256,string[],string,uint8)": "75bd5601",
			"addStaff(address,string,string,string)": "dcad55c0",
			"addStaffRating(address,uint256,string,string[],uint8)": "a7866ea6",
			"addStaffRole(address)": "7668206d",
			"addStaffToOrder(uint256,address)": "abf5e836",
			"addTable(uint256,uint256,string)": "fb25d32f",
			"addTableToOrder(uint256,uint256)": "95ebcb24",
			"categoryManager()": "d86ec238",
			"createCategory(uint256,string)": "f7868a52",
			"createFood(uint256,string,string,uint256,string[],(string,uint256,uint256)[])": "b447aaae",
			"createOrder(address,uint256,string,string,uint256,(uint256,uint256,uint256)[])": "8c9da843",
			"deleteCategory(uint256)": "ceca737f",
			"deleteFood(uint256)": "d198b650",
			"deleteFoodDetail(uint256,uint256)": "4d30a39b",
			"deleteFoodRating(uint256)": "97d2b92a",
			"deleteStaffRating(uint256)": "fcd3223c",
			"deleteTable(uint256)": "e6f318c6",
			"editTable(uint256,uint256,uint256)": "5cfd6607",
			"foodManager()": "439e61fa",
			"foodRatingManager()": "2cf4a54d",
			"getAllCategories()": "dadd0a57",
			"getAllFoods()": "b9b5aae6",
			"getAllStaffs()": "037c73c2",
			"getAllTables()": "0e622b91",
			"getCategory(uint256)": "f3052d26",
			"getCurrentUser()": "43ae37c3",
			"getFood(uint256)": "1e4de872",
			"getFoodDetails(uint256)": "af5607f9",
			"getFoodRatingsByFoodId(uint256)": "f44a8583",
			"getHiddenFoodDetails()": "e21ba8c6",
			"getHiddenFoods()": "cb0769b0",
			"getOrdersByStatus(uint8)": "8ce2ec79",
			"getOwner()": "893d20e8",
			"getStaff(address)": "ddd79504",
			"getStaffRatingsByStaffId(address)": "b2fdfe05",
			"getTableById(uint256)": "3844ac5b",
			"getUserOrders(address)": "63c69f08",
			"initFoodRatingManager(address,address)": "5775cda4",
			"orderManager()": "f9b6117f",
			"roleAccess()": "42f54b89",
			"setCategory(address)": "330933cf",
			"setFoodDetailHidden(uint256,uint256,bool)": "61ce7f78",
			"setFoodManager(address)": "bad1365e",
			"setFoodVisibility(uint256,bool)": "05207db2",
			"setOrderManager(address,address)": "4cdebc39",
			"setStaffManager(address)": "ea0f24e9",
			"setStaffRatingManager(address,address)": "b1587606",
			"setTableManager(address,address)": "997ed85c",
			"staffManager()": "360d5b9e",
			"staffRatingManager()": "09ca221f",
			"tableManager()": "892bb335",
			"updateCategory(uint256,string)": "78697e5b",
			"updateFood(uint256,string,string,uint256,string[])": "6dd2dd88",
			"updateFoodDetail(uint256,uint256,(string,uint256,uint256))": "baf85306",
			"updateFoodRating(uint256,string,uint8)": "f6b829a0",
			"updateOrderItemStatus(uint256,uint256,uint8)": "8a46e8eb",
			"updateOrderStatus(uint256,uint8)": "aab3196d",
			"updateStaffInfo(address,string,string,string)": "5be5fd39",
			"updateStaffRating(uint256,string,uint8)": "18211503",
			"updateStatusTable(uint256,uint8)": "b4afd52c",
			"updateTable(uint256,uint256,uint256,string)": "d50a9e46"
		}
	},
	"abi": [
		{
			"inputs": [
				{
					"internalType": "address",
					"name": "_roleAccessAddress",
					"type": "address"
				}
			],
			"stateMutability": "nonpayable",
			"type": "constructor"
		},
		{
			"inputs": [
				{
					"internalType": "address",
					"name": "_address",
					"type": "address"
				}
			],
			"name": "addAdminRole",
			"outputs": [],
			"stateMutability": "nonpayable",
			"type": "function"
		},
		{
			"inputs": [
				{
					"internalType": "uint256",
					"name": "foodId",
					"type": "uint256"
				},
				{
					"components": [
						{
							"internalType": "string",
							"name": "size",
							"type": "string"
						},
						{
							"internalType": "uint256",
							"name": "quantity",
							"type": "uint256"
						},
						{
							"internalType": "uint256",
							"name": "price",
							"type": "uint256"
						}
					],
					"internalType": "struct UpdateFoodDetail[]",
					"name": "details",
					"type": "tuple[]"
				}
			],
			"name": "addFoodDetails",
			"outputs": [],
			"stateMutability": "nonpayable",
			"type": "function"
		},
		{
			"inputs": [
				{
					"internalType": "uint256",
					"name": "foodId",
					"type": "uint256"
				},
				{
					"internalType": "uint256",
					"name": "orderId",
					"type": "uint256"
				},
				{
					"internalType": "string[]",
					"name": "imgs",
					"type": "string[]"
				},
				{
					"internalType": "string",
					"name": "content",
					"type": "string"
				},
				{
					"internalType": "uint8",
					"name": "stars",
					"type": "uint8"
				}
			],
			"name": "addFoodRating",
			"outputs": [],
			"stateMutability": "nonpayable",
			"type": "function"
		},
		{
			"inputs": [
				{
					"internalType": "address",
					"name": "_staffId",
					"type": "address"
				},
				{
					"internalType": "string",
					"name": "_name",
					"type": "string"
				},
				{
					"internalType": "string",
					"name": "_dob",
					"type": "string"
				},
				{
					"internalType": "string",
					"name": "_phone",
					"type": "string"
				}
			],
			"name": "addStaff",
			"outputs": [],
			"stateMutability": "nonpayable",
			"type": "function"
		},
		{
			"inputs": [
				{
					"internalType": "address",
					"name": "staffAddress",
					"type": "address"
				},
				{
					"internalType": "uint256",
					"name": "_orderId",
					"type": "uint256"
				},
				{
					"internalType": "string",
					"name": "content",
					"type": "string"
				},
				{
					"internalType": "string[]",
					"name": "imgs",
					"type": "string[]"
				},
				{
					"internalType": "uint8",
					"name": "stars",
					"type": "uint8"
				}
			],
			"name": "addStaffRating",
			"outputs": [],
			"stateMutability": "nonpayable",
			"type": "function"
		},
		{
			"inputs": [
				{
					"internalType": "address",
					"name": "_address",
					"type": "address"
				}
			],
			"name": "addStaffRole",
			"outputs": [],
			"stateMutability": "nonpayable",
			"type": "function"
		},
		{
			"inputs": [
				{
					"internalType": "uint256",
					"name": "_orderId",
					"type": "uint256"
				},
				{
					"internalType": "address",
					"name": "_staffId",
					"type": "address"
				}
			],
			"name": "addStaffToOrder",
			"outputs": [],
			"stateMutability": "nonpayable",
			"type": "function"
		},
		{
			"inputs": [
				{
					"internalType": "uint256",
					"name": "_row",
					"type": "uint256"
				},
				{
					"internalType": "uint256",
					"name": "_col",
					"type": "uint256"
				},
				{
					"internalType": "string",
					"name": "_qrUrl",
					"type": "string"
				}
			],
			"name": "addTable",
			"outputs": [
				{
					"internalType": "uint256",
					"name": "",
					"type": "uint256"
				}
			],
			"stateMutability": "nonpayable",
			"type": "function"
		},
		{
			"inputs": [
				{
					"internalType": "uint256",
					"name": "_orderId",
					"type": "uint256"
				},
				{
					"internalType": "uint256",
					"name": "_tableId",
					"type": "uint256"
				}
			],
			"name": "addTableToOrder",
			"outputs": [],
			"stateMutability": "nonpayable",
			"type": "function"
		},
		{
			"inputs": [],
			"name": "categoryManager",
			"outputs": [
				{
					"internalType": "address",
					"name": "",
					"type": "address"
				}
			],
			"stateMutability": "view",
			"type": "function"
		},
		{
			"inputs": [
				{
					"internalType": "uint256",
					"name": "categoryId",
					"type": "uint256"
				},
				{
					"internalType": "string",
					"name": "name",
					"type": "string"
				}
			],
			"name": "createCategory",
			"outputs": [],
			"stateMutability": "nonpayable",
			"type": "function"
		},
		{
			"inputs": [
				{
					"internalType": "uint256",
					"name": "foodId",
					"type": "uint256"
				},
				{
					"internalType": "string",
					"name": "name",
					"type": "string"
				},
				{
					"internalType": "string",
					"name": "description",
					"type": "string"
				},
				{
					"internalType": "uint256",
					"name": "categoryId",
					"type": "uint256"
				},
				{
					"internalType": "string[]",
					"name": "imageUrl",
					"type": "string[]"
				},
				{
					"components": [
						{
							"internalType": "string",
							"name": "size",
							"type": "string"
						},
						{
							"internalType": "uint256",
							"name": "quantity",
							"type": "uint256"
						},
						{
							"internalType": "uint256",
							"name": "price",
							"type": "uint256"
						}
					],
					"internalType": "struct UpdateFoodDetail[]",
					"name": "fd",
					"type": "tuple[]"
				}
			],
			"name": "createFood",
			"outputs": [],
			"stateMutability": "nonpayable",
			"type": "function"
		},
		{
			"inputs": [
				{
					"internalType": "address",
					"name": "_user",
					"type": "address"
				},
				{
					"internalType": "uint256",
					"name": "_foodId",
					"type": "uint256"
				},
				{
					"internalType": "string",
					"name": "_userInfo",
					"type": "string"
				},
				{
					"internalType": "string",
					"name": "_note",
					"type": "string"
				},
				{
					"internalType": "uint256",
					"name": "_tableId",
					"type": "uint256"
				},
				{
					"components": [
						{
							"internalType": "uint256",
							"name": "foodId",
							"type": "uint256"
						},
						{
							"internalType": "uint256",
							"name": "foodDetailId",
							"type": "uint256"
						},
						{
							"internalType": "uint256",
							"name": "quantity",
							"type": "uint256"
						}
					],
					"internalType": "struct OrderItemRequest[]",
					"name": "_items",
					"type": "tuple[]"
				}
			],
			"name": "createOrder",
			"outputs": [
				{
					"components": [
						{
							"internalType": "uint256",
							"name": "orderId",
							"type": "uint256"
						},
						{
							"internalType": "address",
							"name": "user",
							"type": "address"
						},
						{
							"internalType": "string",
							"name": "userInfo",
							"type": "string"
						},
						{
							"internalType": "string",
							"name": "note",
							"type": "string"
						},
						{
							"internalType": "string",
							"name": "name",
							"type": "string"
						},
						{
							"internalType": "string",
							"name": "imgage",
							"type": "string"
						},
						{
							"internalType": "address",
							"name": "staffAddress",
							"type": "address"
						},
						{
							"internalType": "uint256",
							"name": "tableId",
							"type": "uint256"
						},
						{
							"components": [
								{
									"internalType": "uint256",
									"name": "orderItemId",
									"type": "uint256"
								},
								{
									"internalType": "uint256",
									"name": "foodDetailId",
									"type": "uint256"
								},
								{
									"internalType": "uint256",
									"name": "foodId",
									"type": "uint256"
								},
								{
									"internalType": "uint256",
									"name": "quantity",
									"type": "uint256"
								},
								{
									"internalType": "uint256",
									"name": "price",
									"type": "uint256"
								},
								{
									"internalType": "enum OrderItemStatus",
									"name": "status",
									"type": "uint8"
								},
								{
									"internalType": "uint256",
									"name": "timestamp",
									"type": "uint256"
								}
							],
							"internalType": "struct OrderItem[]",
							"name": "items",
							"type": "tuple[]"
						},
						{
							"internalType": "uint256",
							"name": "totalAmount",
							"type": "uint256"
						},
						{
							"internalType": "enum OrderStatus",
							"name": "status",
							"type": "uint8"
						},
						{
							"internalType": "uint256",
							"name": "timestamp",
							"type": "uint256"
						}
					],
					"internalType": "struct Order",
					"name": "",
					"type": "tuple"
				}
			],
			"stateMutability": "nonpayable",
			"type": "function"
		},
		{
			"inputs": [
				{
					"internalType": "uint256",
					"name": "categoryId",
					"type": "uint256"
				}
			],
			"name": "deleteCategory",
			"outputs": [],
			"stateMutability": "nonpayable",
			"type": "function"
		},
		{
			"inputs": [
				{
					"internalType": "uint256",
					"name": "foodId",
					"type": "uint256"
				}
			],
			"name": "deleteFood",
			"outputs": [],
			"stateMutability": "nonpayable",
			"type": "function"
		},
		{
			"inputs": [
				{
					"internalType": "uint256",
					"name": "foodId",
					"type": "uint256"
				},
				{
					"internalType": "uint256",
					"name": "foodDetailId",
					"type": "uint256"
				}
			],
			"name": "deleteFoodDetail",
			"outputs": [],
			"stateMutability": "nonpayable",
			"type": "function"
		},
		{
			"inputs": [
				{
					"internalType": "uint256",
					"name": "ratingId",
					"type": "uint256"
				}
			],
			"name": "deleteFoodRating",
			"outputs": [],
			"stateMutability": "nonpayable",
			"type": "function"
		},
		{
			"inputs": [
				{
					"internalType": "uint256",
					"name": "ratingId",
					"type": "uint256"
				}
			],
			"name": "deleteStaffRating",
			"outputs": [],
			"stateMutability": "nonpayable",
			"type": "function"
		},
		{
			"inputs": [
				{
					"internalType": "uint256",
					"name": "_tableId",
					"type": "uint256"
				}
			],
			"name": "deleteTable",
			"outputs": [],
			"stateMutability": "nonpayable",
			"type": "function"
		},
		{
			"inputs": [
				{
					"internalType": "uint256",
					"name": "_tableId",
					"type": "uint256"
				},
				{
					"internalType": "uint256",
					"name": "_row",
					"type": "uint256"
				},
				{
					"internalType": "uint256",
					"name": "_col",
					"type": "uint256"
				}
			],
			"name": "editTable",
			"outputs": [],
			"stateMutability": "nonpayable",
			"type": "function"
		},
		{
			"inputs": [],
			"name": "foodManager",
			"outputs": [
				{
					"internalType": "address",
					"name": "",
					"type": "address"
				}
			],
			"stateMutability": "view",
			"type": "function"
		},
		{
			"inputs": [],
			"name": "foodRatingManager",
			"outputs": [
				{
					"internalType": "address",
					"name": "",
					"type": "address"
				}
			],
			"stateMutability": "view",
			"type": "function"
		},
		{
			"inputs": [],
			"name": "getAllCategories",
			"outputs": [
				{
					"components": [
						{
							"internalType": "uint256",
							"name": "categoryId",
							"type": "uint256"
						},
						{
							"internalType": "string",
							"name": "name",
							"type": "string"
						}
					],
					"internalType": "struct Category[]",
					"name": "",
					"type": "tuple[]"
				}
			],
			"stateMutability": "view",
			"type": "function"
		},
		{
			"inputs": [],
			"name": "getAllFoods",
			"outputs": [
				{
					"components": [
						{
							"components": [
								{
									"internalType": "uint256",
									"name": "foodId",
									"type": "uint256"
								},
								{
									"internalType": "string",
									"name": "name",
									"type": "string"
								},
								{
									"internalType": "string",
									"name": "description",
									"type": "string"
								},
								{
									"internalType": "uint256",
									"name": "categoryId",
									"type": "uint256"
								},
								{
									"internalType": "string[]",
									"name": "imageUrl",
									"type": "string[]"
								},
								{
									"internalType": "uint256",
									"name": "soldQuantity",
									"type": "uint256"
								},
								{
									"internalType": "uint256",
									"name": "quantity",
									"type": "uint256"
								},
								{
									"internalType": "uint256",
									"name": "sumRating",
									"type": "uint256"
								},
								{
									"internalType": "uint256",
									"name": "countRating",
									"type": "uint256"
								},
								{
									"internalType": "bool",
									"name": "isHidden",
									"type": "bool"
								}
							],
							"internalType": "struct Food",
							"name": "food",
							"type": "tuple"
						},
						{
							"components": [
								{
									"internalType": "uint256",
									"name": "foodDetailId",
									"type": "uint256"
								},
								{
									"internalType": "string",
									"name": "size",
									"type": "string"
								},
								{
									"internalType": "uint256",
									"name": "soldQuantity",
									"type": "uint256"
								},
								{
									"internalType": "uint256",
									"name": "quantity",
									"type": "uint256"
								},
								{
									"internalType": "uint256",
									"name": "price",
									"type": "uint256"
								},
								{
									"internalType": "bool",
									"name": "isHidden",
									"type": "bool"
								}
							],
							"internalType": "struct FoodDetail[]",
							"name": "foodDetails",
							"type": "tuple[]"
						}
					],
					"internalType": "struct FoodWithDetails[]",
					"name": "",
					"type": "tuple[]"
				}
			],
			"stateMutability": "view",
			"type": "function"
		},
		{
			"inputs": [],
			"name": "getAllStaffs",
			"outputs": [
				{
					"components": [
						{
							"internalType": "address",
							"name": "staffAddress",
							"type": "address"
						},
						{
							"internalType": "string",
							"name": "name",
							"type": "string"
						},
						{
							"internalType": "string",
							"name": "dob",
							"type": "string"
						},
						{
							"internalType": "string",
							"name": "phone",
							"type": "string"
						},
						{
							"internalType": "uint256",
							"name": "sumRating",
							"type": "uint256"
						},
						{
							"internalType": "uint256",
							"name": "countRating",
							"type": "uint256"
						},
						{
							"internalType": "enum StaffStatus",
							"name": "status",
							"type": "uint8"
						}
					],
					"internalType": "struct Staff[]",
					"name": "",
					"type": "tuple[]"
				}
			],
			"stateMutability": "nonpayable",
			"type": "function"
		},
		{
			"inputs": [],
			"name": "getAllTables",
			"outputs": [
				{
					"components": [
						{
							"internalType": "uint256",
							"name": "tableId",
							"type": "uint256"
						},
						{
							"internalType": "uint256",
							"name": "row",
							"type": "uint256"
						},
						{
							"internalType": "uint256",
							"name": "col",
							"type": "uint256"
						},
						{
							"internalType": "string",
							"name": "qrUrl",
							"type": "string"
						},
						{
							"internalType": "enum TableStatus",
							"name": "status",
							"type": "uint8"
						}
					],
					"internalType": "struct Table[]",
					"name": "",
					"type": "tuple[]"
				}
			],
			"stateMutability": "view",
			"type": "function"
		},
		{
			"inputs": [
				{
					"internalType": "uint256",
					"name": "categoryId",
					"type": "uint256"
				}
			],
			"name": "getCategory",
			"outputs": [
				{
					"components": [
						{
							"internalType": "uint256",
							"name": "categoryId",
							"type": "uint256"
						},
						{
							"internalType": "string",
							"name": "name",
							"type": "string"
						}
					],
					"internalType": "struct Category",
					"name": "",
					"type": "tuple"
				}
			],
			"stateMutability": "view",
			"type": "function"
		},
		{
			"inputs": [],
			"name": "getCurrentUser",
			"outputs": [
				{
					"internalType": "address",
					"name": "",
					"type": "address"
				}
			],
			"stateMutability": "view",
			"type": "function"
		},
		{
			"inputs": [
				{
					"internalType": "uint256",
					"name": "foodId",
					"type": "uint256"
				}
			],
			"name": "getFood",
			"outputs": [
				{
					"components": [
						{
							"internalType": "uint256",
							"name": "foodId",
							"type": "uint256"
						},
						{
							"internalType": "string",
							"name": "name",
							"type": "string"
						},
						{
							"internalType": "string",
							"name": "description",
							"type": "string"
						},
						{
							"internalType": "uint256",
							"name": "categoryId",
							"type": "uint256"
						},
						{
							"internalType": "string[]",
							"name": "imageUrl",
							"type": "string[]"
						},
						{
							"internalType": "uint256",
							"name": "soldQuantity",
							"type": "uint256"
						},
						{
							"internalType": "uint256",
							"name": "quantity",
							"type": "uint256"
						},
						{
							"internalType": "uint256",
							"name": "sumRating",
							"type": "uint256"
						},
						{
							"internalType": "uint256",
							"name": "countRating",
							"type": "uint256"
						},
						{
							"internalType": "bool",
							"name": "isHidden",
							"type": "bool"
						}
					],
					"internalType": "struct Food",
					"name": "",
					"type": "tuple"
				}
			],
			"stateMutability": "view",
			"type": "function"
		},
		{
			"inputs": [
				{
					"internalType": "uint256",
					"name": "foodId",
					"type": "uint256"
				}
			],
			"name": "getFoodDetails",
			"outputs": [
				{
					"components": [
						{
							"internalType": "uint256",
							"name": "foodDetailId",
							"type": "uint256"
						},
						{
							"internalType": "string",
							"name": "size",
							"type": "string"
						},
						{
							"internalType": "uint256",
							"name": "soldQuantity",
							"type": "uint256"
						},
						{
							"internalType": "uint256",
							"name": "quantity",
							"type": "uint256"
						},
						{
							"internalType": "uint256",
							"name": "price",
							"type": "uint256"
						},
						{
							"internalType": "bool",
							"name": "isHidden",
							"type": "bool"
						}
					],
					"internalType": "struct FoodDetail[]",
					"name": "",
					"type": "tuple[]"
				}
			],
			"stateMutability": "view",
			"type": "function"
		},
		{
			"inputs": [
				{
					"internalType": "uint256",
					"name": "foodId",
					"type": "uint256"
				}
			],
			"name": "getFoodRatingsByFoodId",
			"outputs": [
				{
					"components": [
						{
							"internalType": "uint256",
							"name": "id",
							"type": "uint256"
						},
						{
							"internalType": "address",
							"name": "reviewer",
							"type": "address"
						},
						{
							"internalType": "string[]",
							"name": "image",
							"type": "string[]"
						},
						{
							"internalType": "uint256",
							"name": "foodId",
							"type": "uint256"
						},
						{
							"internalType": "string",
							"name": "content",
							"type": "string"
						},
						{
							"internalType": "uint8",
							"name": "stars",
							"type": "uint8"
						},
						{
							"internalType": "uint256",
							"name": "timestamp",
							"type": "uint256"
						}
					],
					"internalType": "struct FoodRating[]",
					"name": "",
					"type": "tuple[]"
				}
			],
			"stateMutability": "view",
			"type": "function"
		},
		{
			"inputs": [],
			"name": "getHiddenFoodDetails",
			"outputs": [
				{
					"components": [
						{
							"internalType": "uint256",
							"name": "foodDetailId",
							"type": "uint256"
						},
						{
							"internalType": "string",
							"name": "size",
							"type": "string"
						},
						{
							"internalType": "uint256",
							"name": "soldQuantity",
							"type": "uint256"
						},
						{
							"internalType": "uint256",
							"name": "quantity",
							"type": "uint256"
						},
						{
							"internalType": "uint256",
							"name": "price",
							"type": "uint256"
						},
						{
							"internalType": "bool",
							"name": "isHidden",
							"type": "bool"
						}
					],
					"internalType": "struct FoodDetail[]",
					"name": "",
					"type": "tuple[]"
				}
			],
			"stateMutability": "nonpayable",
			"type": "function"
		},
		{
			"inputs": [],
			"name": "getHiddenFoods",
			"outputs": [
				{
					"components": [
						{
							"components": [
								{
									"internalType": "uint256",
									"name": "foodId",
									"type": "uint256"
								},
								{
									"internalType": "string",
									"name": "name",
									"type": "string"
								},
								{
									"internalType": "string",
									"name": "description",
									"type": "string"
								},
								{
									"internalType": "uint256",
									"name": "categoryId",
									"type": "uint256"
								},
								{
									"internalType": "string[]",
									"name": "imageUrl",
									"type": "string[]"
								},
								{
									"internalType": "uint256",
									"name": "soldQuantity",
									"type": "uint256"
								},
								{
									"internalType": "uint256",
									"name": "quantity",
									"type": "uint256"
								},
								{
									"internalType": "uint256",
									"name": "sumRating",
									"type": "uint256"
								},
								{
									"internalType": "uint256",
									"name": "countRating",
									"type": "uint256"
								},
								{
									"internalType": "bool",
									"name": "isHidden",
									"type": "bool"
								}
							],
							"internalType": "struct Food",
							"name": "food",
							"type": "tuple"
						},
						{
							"components": [
								{
									"internalType": "uint256",
									"name": "foodDetailId",
									"type": "uint256"
								},
								{
									"internalType": "string",
									"name": "size",
									"type": "string"
								},
								{
									"internalType": "uint256",
									"name": "soldQuantity",
									"type": "uint256"
								},
								{
									"internalType": "uint256",
									"name": "quantity",
									"type": "uint256"
								},
								{
									"internalType": "uint256",
									"name": "price",
									"type": "uint256"
								},
								{
									"internalType": "bool",
									"name": "isHidden",
									"type": "bool"
								}
							],
							"internalType": "struct FoodDetail[]",
							"name": "foodDetails",
							"type": "tuple[]"
						}
					],
					"internalType": "struct FoodWithDetails[]",
					"name": "",
					"type": "tuple[]"
				}
			],
			"stateMutability": "view",
			"type": "function"
		},
		{
			"inputs": [
				{
					"internalType": "enum OrderStatus",
					"name": "_status",
					"type": "uint8"
				}
			],
			"name": "getOrdersByStatus",
			"outputs": [
				{
					"components": [
						{
							"internalType": "uint256",
							"name": "orderId",
							"type": "uint256"
						},
						{
							"internalType": "address",
							"name": "user",
							"type": "address"
						},
						{
							"internalType": "string",
							"name": "userInfo",
							"type": "string"
						},
						{
							"internalType": "string",
							"name": "note",
							"type": "string"
						},
						{
							"internalType": "string",
							"name": "name",
							"type": "string"
						},
						{
							"internalType": "string",
							"name": "imgage",
							"type": "string"
						},
						{
							"internalType": "address",
							"name": "staffAddress",
							"type": "address"
						},
						{
							"internalType": "uint256",
							"name": "tableId",
							"type": "uint256"
						},
						{
							"components": [
								{
									"internalType": "uint256",
									"name": "orderItemId",
									"type": "uint256"
								},
								{
									"internalType": "uint256",
									"name": "foodDetailId",
									"type": "uint256"
								},
								{
									"internalType": "uint256",
									"name": "foodId",
									"type": "uint256"
								},
								{
									"internalType": "uint256",
									"name": "quantity",
									"type": "uint256"
								},
								{
									"internalType": "uint256",
									"name": "price",
									"type": "uint256"
								},
								{
									"internalType": "enum OrderItemStatus",
									"name": "status",
									"type": "uint8"
								},
								{
									"internalType": "uint256",
									"name": "timestamp",
									"type": "uint256"
								}
							],
							"internalType": "struct OrderItem[]",
							"name": "items",
							"type": "tuple[]"
						},
						{
							"internalType": "uint256",
							"name": "totalAmount",
							"type": "uint256"
						},
						{
							"internalType": "enum OrderStatus",
							"name": "status",
							"type": "uint8"
						},
						{
							"internalType": "uint256",
							"name": "timestamp",
							"type": "uint256"
						}
					],
					"internalType": "struct Order[]",
					"name": "",
					"type": "tuple[]"
				}
			],
			"stateMutability": "view",
			"type": "function"
		},
		{
			"inputs": [],
			"name": "getOwner",
			"outputs": [
				{
					"internalType": "address",
					"name": "",
					"type": "address"
				}
			],
			"stateMutability": "view",
			"type": "function"
		},
		{
			"inputs": [
				{
					"internalType": "address",
					"name": "_staffId",
					"type": "address"
				}
			],
			"name": "getStaff",
			"outputs": [
				{
					"components": [
						{
							"internalType": "address",
							"name": "staffAddress",
							"type": "address"
						},
						{
							"internalType": "string",
							"name": "name",
							"type": "string"
						},
						{
							"internalType": "string",
							"name": "dob",
							"type": "string"
						},
						{
							"internalType": "string",
							"name": "phone",
							"type": "string"
						},
						{
							"internalType": "uint256",
							"name": "sumRating",
							"type": "uint256"
						},
						{
							"internalType": "uint256",
							"name": "countRating",
							"type": "uint256"
						},
						{
							"internalType": "enum StaffStatus",
							"name": "status",
							"type": "uint8"
						}
					],
					"internalType": "struct Staff",
					"name": "",
					"type": "tuple"
				}
			],
			"stateMutability": "view",
			"type": "function"
		},
		{
			"inputs": [
				{
					"internalType": "address",
					"name": "staffId",
					"type": "address"
				}
			],
			"name": "getStaffRatingsByStaffId",
			"outputs": [
				{
					"components": [
						{
							"internalType": "uint256",
							"name": "id",
							"type": "uint256"
						},
						{
							"internalType": "address",
							"name": "reviewer",
							"type": "address"
						},
						{
							"internalType": "address",
							"name": "staffAddress",
							"type": "address"
						},
						{
							"internalType": "string",
							"name": "content",
							"type": "string"
						},
						{
							"internalType": "string[]",
							"name": "image",
							"type": "string[]"
						},
						{
							"internalType": "uint8",
							"name": "stars",
							"type": "uint8"
						},
						{
							"internalType": "uint256",
							"name": "timestamp",
							"type": "uint256"
						}
					],
					"internalType": "struct StaffRating[]",
					"name": "",
					"type": "tuple[]"
				}
			],
			"stateMutability": "view",
			"type": "function"
		},
		{
			"inputs": [
				{
					"internalType": "uint256",
					"name": "_tableId",
					"type": "uint256"
				}
			],
			"name": "getTableById",
			"outputs": [
				{
					"components": [
						{
							"internalType": "uint256",
							"name": "tableId",
							"type": "uint256"
						},
						{
							"internalType": "uint256",
							"name": "row",
							"type": "uint256"
						},
						{
							"internalType": "uint256",
							"name": "col",
							"type": "uint256"
						},
						{
							"internalType": "string",
							"name": "qrUrl",
							"type": "string"
						},
						{
							"internalType": "enum TableStatus",
							"name": "status",
							"type": "uint8"
						}
					],
					"internalType": "struct Table",
					"name": "",
					"type": "tuple"
				}
			],
			"stateMutability": "view",
			"type": "function"
		},
		{
			"inputs": [
				{
					"internalType": "address",
					"name": "_user",
					"type": "address"
				}
			],
			"name": "getUserOrders",
			"outputs": [
				{
					"internalType": "uint256[]",
					"name": "",
					"type": "uint256[]"
				}
			],
			"stateMutability": "view",
			"type": "function"
		},
		{
			"inputs": [
				{
					"internalType": "address",
					"name": "_foodRatingManager",
					"type": "address"
				},
				{
					"internalType": "address",
					"name": "_foodManager",
					"type": "address"
				}
			],
			"name": "initFoodRatingManager",
			"outputs": [],
			"stateMutability": "nonpayable",
			"type": "function"
		},
		{
			"inputs": [],
			"name": "orderManager",
			"outputs": [
				{
					"internalType": "address",
					"name": "",
					"type": "address"
				}
			],
			"stateMutability": "view",
			"type": "function"
		},
		{
			"inputs": [],
			"name": "roleAccess",
			"outputs": [
				{
					"internalType": "contract RoleAccess",
					"name": "",
					"type": "address"
				}
			],
			"stateMutability": "view",
			"type": "function"
		},
		{
			"inputs": [
				{
					"internalType": "address",
					"name": "_categoryManager",
					"type": "address"
				}
			],
			"name": "setCategory",
			"outputs": [],
			"stateMutability": "nonpayable",
			"type": "function"
		},
		{
			"inputs": [
				{
					"internalType": "uint256",
					"name": "_foodId",
					"type": "uint256"
				},
				{
					"internalType": "uint256",
					"name": "_foodDetailId",
					"type": "uint256"
				},
				{
					"internalType": "bool",
					"name": "_hidden",
					"type": "bool"
				}
			],
			"name": "setFoodDetailHidden",
			"outputs": [],
			"stateMutability": "nonpayable",
			"type": "function"
		},
		{
			"inputs": [
				{
					"internalType": "address",
					"name": "_foodManager",
					"type": "address"
				}
			],
			"name": "setFoodManager",
			"outputs": [],
			"stateMutability": "nonpayable",
			"type": "function"
		},
		{
			"inputs": [
				{
					"internalType": "uint256",
					"name": "_foodId",
					"type": "uint256"
				},
				{
					"internalType": "bool",
					"name": "_hidden",
					"type": "bool"
				}
			],
			"name": "setFoodVisibility",
			"outputs": [],
			"stateMutability": "nonpayable",
			"type": "function"
		},
		{
			"inputs": [
				{
					"internalType": "address",
					"name": "_orderManager",
					"type": "address"
				},
				{
					"internalType": "address",
					"name": "_staffManagerAddress",
					"type": "address"
				}
			],
			"name": "setOrderManager",
			"outputs": [],
			"stateMutability": "nonpayable",
			"type": "function"
		},
		{
			"inputs": [
				{
					"internalType": "address",
					"name": "_staffManager",
					"type": "address"
				}
			],
			"name": "setStaffManager",
			"outputs": [],
			"stateMutability": "nonpayable",
			"type": "function"
		},
		{
			"inputs": [
				{
					"internalType": "address",
					"name": "_staffRatingManager",
					"type": "address"
				},
				{
					"internalType": "address",
					"name": "_staffManager",
					"type": "address"
				}
			],
			"name": "setStaffRatingManager",
			"outputs": [],
			"stateMutability": "nonpayable",
			"type": "function"
		},
		{
			"inputs": [
				{
					"internalType": "address",
					"name": "_tableManager",
					"type": "address"
				},
				{
					"internalType": "address",
					"name": "_orderManager",
					"type": "address"
				}
			],
			"name": "setTableManager",
			"outputs": [],
			"stateMutability": "nonpayable",
			"type": "function"
		},
		{
			"inputs": [],
			"name": "staffManager",
			"outputs": [
				{
					"internalType": "address",
					"name": "",
					"type": "address"
				}
			],
			"stateMutability": "view",
			"type": "function"
		},
		{
			"inputs": [],
			"name": "staffRatingManager",
			"outputs": [
				{
					"internalType": "address",
					"name": "",
					"type": "address"
				}
			],
			"stateMutability": "view",
			"type": "function"
		},
		{
			"inputs": [],
			"name": "tableManager",
			"outputs": [
				{
					"internalType": "address",
					"name": "",
					"type": "address"
				}
			],
			"stateMutability": "view",
			"type": "function"
		},
		{
			"inputs": [
				{
					"internalType": "uint256",
					"name": "categoryId",
					"type": "uint256"
				},
				{
					"internalType": "string",
					"name": "newName",
					"type": "string"
				}
			],
			"name": "updateCategory",
			"outputs": [],
			"stateMutability": "nonpayable",
			"type": "function"
		},
		{
			"inputs": [
				{
					"internalType": "uint256",
					"name": "foodId",
					"type": "uint256"
				},
				{
					"internalType": "string",
					"name": "name",
					"type": "string"
				},
				{
					"internalType": "string",
					"name": "description",
					"type": "string"
				},
				{
					"internalType": "uint256",
					"name": "categoryId",
					"type": "uint256"
				},
				{
					"internalType": "string[]",
					"name": "imageUrl",
					"type": "string[]"
				}
			],
			"name": "updateFood",
			"outputs": [],
			"stateMutability": "nonpayable",
			"type": "function"
		},
		{
			"inputs": [
				{
					"internalType": "uint256",
					"name": "foodId",
					"type": "uint256"
				},
				{
					"internalType": "uint256",
					"name": "foodDetailId",
					"type": "uint256"
				},
				{
					"components": [
						{
							"internalType": "string",
							"name": "size",
							"type": "string"
						},
						{
							"internalType": "uint256",
							"name": "quantity",
							"type": "uint256"
						},
						{
							"internalType": "uint256",
							"name": "price",
							"type": "uint256"
						}
					],
					"internalType": "struct UpdateFoodDetail",
					"name": "newDetail",
					"type": "tuple"
				}
			],
			"name": "updateFoodDetail",
			"outputs": [],
			"stateMutability": "nonpayable",
			"type": "function"
		},
		{
			"inputs": [
				{
					"internalType": "uint256",
					"name": "ratingId",
					"type": "uint256"
				},
				{
					"internalType": "string",
					"name": "content",
					"type": "string"
				},
				{
					"internalType": "uint8",
					"name": "stars",
					"type": "uint8"
				}
			],
			"name": "updateFoodRating",
			"outputs": [],
			"stateMutability": "nonpayable",
			"type": "function"
		},
		{
			"inputs": [
				{
					"internalType": "uint256",
					"name": "_orderId",
					"type": "uint256"
				},
				{
					"internalType": "uint256",
					"name": "_orderItemId",
					"type": "uint256"
				},
				{
					"internalType": "enum OrderItemStatus",
					"name": "_newStatus",
					"type": "uint8"
				}
			],
			"name": "updateOrderItemStatus",
			"outputs": [],
			"stateMutability": "nonpayable",
			"type": "function"
		},
		{
			"inputs": [
				{
					"internalType": "uint256",
					"name": "_orderId",
					"type": "uint256"
				},
				{
					"internalType": "enum OrderStatus",
					"name": "_status",
					"type": "uint8"
				}
			],
			"name": "updateOrderStatus",
			"outputs": [],
			"stateMutability": "nonpayable",
			"type": "function"
		},
		{
			"inputs": [
				{
					"internalType": "address",
					"name": "_staffId",
					"type": "address"
				},
				{
					"internalType": "string",
					"name": "_name",
					"type": "string"
				},
				{
					"internalType": "string",
					"name": "_dob",
					"type": "string"
				},
				{
					"internalType": "string",
					"name": "_phone",
					"type": "string"
				}
			],
			"name": "updateStaffInfo",
			"outputs": [],
			"stateMutability": "nonpayable",
			"type": "function"
		},
		{
			"inputs": [
				{
					"internalType": "uint256",
					"name": "ratingId",
					"type": "uint256"
				},
				{
					"internalType": "string",
					"name": "content",
					"type": "string"
				},
				{
					"internalType": "uint8",
					"name": "stars",
					"type": "uint8"
				}
			],
			"name": "updateStaffRating",
			"outputs": [],
			"stateMutability": "nonpayable",
			"type": "function"
		},
		{
			"inputs": [
				{
					"internalType": "uint256",
					"name": "_tableId",
					"type": "uint256"
				},
				{
					"internalType": "enum TableStatus",
					"name": "_status",
					"type": "uint8"
				}
			],
			"name": "updateStatusTable",
			"outputs": [],
			"stateMutability": "nonpayable",
			"type": "function"
		},
		{
			"inputs": [
				{
					"internalType": "uint256",
					"name": "_tableId",
					"type": "uint256"
				},
				{
					"internalType": "uint256",
					"name": "_row",
					"type": "uint256"
				},
				{
					"internalType": "uint256",
					"name": "_col",
					"type": "uint256"
				},
				{
					"internalType": "string",
					"name": "_qrUrl",
					"type": "string"
				}
			],
			"name": "updateTable",
			"outputs": [],
			"stateMutability": "nonpayable",
			"type": "function"
		}
	]
}