{
	"data": {
		"bytecode": {
			"linkReferences": {},
			"object": "6080604052600160025560016003553480156018575f5ffd5b506040516136a83803806136a8833981016040819052603591607e565b5f80546001600160a01b039384166001600160a01b0319918216179091556001805492909316911617905560aa565b80516001600160a01b03811681146079575f5ffd5b919050565b5f5f60408385031215608e575f5ffd5b6095836064565b915060a1602084016064565b90509250929050565b6135f1806100b75f395ff3fe608060405234801561000f575f5ffd5b5060043610610126575f3560e01c80636c6b5baf116100a9578063b447aaae1161006e578063b447aaae14610289578063b9b5aae61461029c578063baf85306146102b1578063d198b650146102c4578063d86ec238146102d7575f5ffd5b80636c6b5baf1461021b5780636dd2dd881461022e5780639a69bfa614610241578063a6bc8c6a14610254578063af5607f914610269575f5ffd5b80631e4de872116100ef5780631e4de8721461018a57806335085515146101aa57806342f54b89146101ca5780634d30a39b146101f557806364f7747114610208575f5ffd5b8062e081dd1461012a57806305207db21461013f578063094b9a53146101525780631945ef58146101655780631b0d77cc14610181575b5f5ffd5b61013d6101383660046129ee565b6102e9565b005b61013d61014d366004612a24565b6103b3565b61013d6101603660046129ee565b6104f5565b61016e60025481565b6040519081526020015b60405180910390f35b61016e60035481565b61019d610198366004612a52565b6105b5565b6040516101789190612b98565b6101bd6101b8366004612bb1565b61084b565b6040516101789190612c19565b6001546101dd906001600160a01b031681565b6040516001600160a01b039091168152602001610178565b61013d610203366004612bb1565b610a5d565b61013d610216366004612e30565b610def565b61013d6102293660046129ee565b61100c565b61013d61023c366004612ef1565b611194565b61013d61024f3660046129ee565b6113ce565b61025c61150b565b6040516101789190612f8f565b61027c610277366004612a52565b611930565b6040516101789190613040565b61013d610297366004613052565b611a78565b6102a4611f18565b6040516101789190613118565b61013d6102bf366004613196565b61235e565b61013d6102d2366004612a52565b6125a5565b5f546101dd906001600160a01b031681565b5f5b5f84815260056020526040902054811015610388575f848152600560205260409020805484919083908110610322576103226131e1565b905f5260205f2090600502015f015403610380575f848152600560205260409020805483919083908110610358576103586131e1565b905f5260205f2090600502016002015f8282546103759190613209565b909155506103889050565b6001016102eb565b505f83815260046020526040812060050180548392906103a9908490613209565b9091555050505050565b6103de604051806040016040528060098152602001683a3c1737b934b3b4b760b91b815250326127e2565b600154604051630935e01b60e21b81523260048201526001600160a01b03909116906324d7806c90602401602060405180830381865afa158015610424573d5f5f3e3d5ffd5b505050506040513d601f19601f82011682018060405250810190610448919061321c565b61046d5760405162461bcd60e51b815260040161046490613237565b60405180910390fd5b5f8281526004602052604081205490036104995760405162461bcd60e51b815260040161046490613262565b5f82815260046020908152604091829020600901805460ff19168415159081179091558251858152918201527f8a071af4af756e1456f442c6adfa4a285d076afc427d8e2d440d78cf31bcef8791015b60405180910390a15050565b5f5b5f84815260056020526040902054811015610594575f84815260056020526040902080548491908390811061052e5761052e6131e1565b905f5260205f2090600502015f01540361058c575f848152600560205260409020805483919083908110610564576105646131e1565b905f5260205f2090600502016003015f8282546105819190613209565b909155506105949050565b6001016104f7565b505f83815260046020526040812060060180548392906103a9908490613209565b6105bd612856565b5f8281526004602052604081205490036105e95760405162461bcd60e51b815260040161046490613262565b60045f8381526020019081526020015f20604051806101400160405290815f820154815260200160018201805461061f9061328f565b80601f016020809104026020016040519081016040528092919081815260200182805461064b9061328f565b80156106965780601f1061066d57610100808354040283529160200191610696565b820191905f5260205f20905b81548152906001019060200180831161067957829003601f168201915b505050505081526020016002820180546106af9061328f565b80601f01602080910402602001604051908101604052809291908181526020018280546106db9061328f565b80156107265780601f106106fd57610100808354040283529160200191610726565b820191905f5260205f20905b81548152906001019060200180831161070957829003601f168201915b505050505081526020016003820154815260200160048201805480602002602001604051908101604052809291908181526020015f905b82821015610805578382905f5260205f2001805461077a9061328f565b80601f01602080910402602001604051908101604052809291908181526020018280546107a69061328f565b80156107f15780601f106107c8576101008083540402835291602001916107f1565b820191905f5260205f20905b8154815290600101906020018083116107d457829003601f168201915b50505050508152602001906001019061075d565b505050908252506005820154602082015260068201546040820152600782015460608201526008820154608082015260099091015460ff16151560a09091015292915050565b6108796040518060a001604052805f8152602001606081526020015f81526020015f81526020015f81525090565b5f838152600560205260409020546108c45760405162461bcd60e51b815260206004820152600e60248201526d125b9d985b1a5908199bdbd9125960921b6044820152606401610464565b5f5b5f84815260056020526040902054811015610a0e575f8481526005602052604090208054849190839081106108fd576108fd6131e1565b905f5260205f2090600502015f015403610a06575f848152600560205260409020805482908110610930576109306131e1565b905f5260205f2090600502016040518060a00160405290815f82015481526020016001820180546109609061328f565b80601f016020809104026020016040519081016040528092919081815260200182805461098c9061328f565b80156109d75780601f106109ae576101008083540402835291602001916109d7565b820191905f5260205f20905b8154815290600101906020018083116109ba57829003601f168201915b505050505081526020016002820154815260200160038201548152602001600482015481525050915050610a57565b6001016108c6565b5060405162461bcd60e51b815260206004820152601960248201527f466f6f6444657461696c206e6f7420666f756e64205f5f5f2e000000000000006044820152606401610464565b92915050565b610a88604051806040016040528060098152602001683a3c1737b934b3b4b760b91b815250326127e2565b600154604051630935e01b60e21b81523260048201526001600160a01b03909116906324d7806c90602401602060405180830381865afa158015610ace573d5f5f3e3d5ffd5b505050506040513d601f19601f82011682018060405250810190610af2919061321c565b610b0e5760405162461bcd60e51b815260040161046490613237565b5f828152600460205260408120549003610b3a5760405162461bcd60e51b815260040161046490613262565b5f82815260056020526040812090805b8254811015610d9f5783838281548110610b6657610b666131e1565b905f5260205f2090600502015f015403610d97578254600110610bbd576040518060a001604052805f815260200160405180602001604052805f81525081526020015f81526020015f81526020015f815250610cac565b82548390610bcd906001906132c1565b81548110610bdd57610bdd6131e1565b905f5260205f2090600502016040518060a00160405290815f8201548152602001600182018054610c0d9061328f565b80601f0160208091040260200160405190810160405280929190818152602001828054610c399061328f565b8015610c845780601f10610c5b57610100808354040283529160200191610c84565b820191905f5260205f20905b815481529060010190602001808311610c6757829003601f168201915b5050505050815260200160028201548152602001600382015481526020016004820154815250505b838281548110610cbe57610cbe6131e1565b905f5260205f2090600502015f820151815f01556020820151816001019081610ce7919061331d565b5060408201518160020155606082015181600301556080820151816004015590505082805480610d1957610d196133d7565b5f8281526020812060055f199093019283020181815590610d3d60018301826128a4565b505f600282018190556003820181905560049091015590556040805186815260208101869052600193507f55caa6a55acb7e3464dc13c54d94739e0f01b9141276caebb64f3ef500cd8900910160405180910390a1610d9f565b600101610b4a565b5080610de95760405162461bcd60e51b8152602060048201526019602482015278119bdbd911195d185a5b08191bd95cc81b9bdd08195e1a5cdd603a1b6044820152606401610464565b50505050565b610e1a604051806040016040528060098152602001683a3c1737b934b3b4b760b91b815250326127e2565b600154604051630935e01b60e21b81523260048201526001600160a01b03909116906324d7806c90602401602060405180830381865afa158015610e60573d5f5f3e3d5ffd5b505050506040513d601f19601f82011682018060405250810190610e84919061321c565b610ea05760405162461bcd60e51b815260040161046490613237565b5f828152600460205260408120549003610ecc5760405162461bcd60e51b815260040161046490613262565b5f5b8151811015610fdb5760038054905f610ee6836133eb565b91905055505f6040518060a001604052806003548152602001848481518110610f1157610f116131e1565b60200260200101515f015181526020015f8152602001848481518110610f3957610f396131e1565b6020026020010151602001518152602001848481518110610f5c57610f5c6131e1565b6020908102919091018101516040908101519092525f8781526005808352928120805460018181018355918352918390208551929094029093019081559083015192935083929091820190610fb1908261331d565b50604082015160028201556060820151600382015560809091015160049091015550600101610ece565b506040518281527f19a8e56286393226625dcdbc7cbb5a7611c71773d54c7e0680658cb9ceef6c22906020016104e9565b5f5b5f84815260056020526040902054811015611143575f848152600560205260409020805484919083908110611045576110456131e1565b905f5260205f2090600502015f01540361113b575f84815260056020526040902080548391908390811061107b5761107b6131e1565b905f5260205f2090600502016002015410156110f15760405162461bcd60e51b815260206004820152602f60248201527f5175616e74697479277320666f6f642064657461696c2063616e6e6f7420626560448201526e020736d616c6c6572207468616e203608c1b6064820152608401610464565b5f848152600560205260409020805483919083908110611113576111136131e1565b905f5260205f2090600502016002015f82825461113091906132c1565b909155506111439050565b60010161100e565b505f838152600460205260409020600501548111156111745760405162461bcd60e51b815260040161046490613403565b5f83815260046020526040812060050180548392906103a99084906132c1565b6111bf604051806040016040528060098152602001683a3c1737b934b3b4b760b91b815250326127e2565b600154604051630935e01b60e21b81523260048201526001600160a01b03909116906324d7806c90602401602060405180830381865afa158015611205573d5f5f3e3d5ffd5b505050506040513d601f19601f82011682018060405250810190611229919061321c565b6112455760405162461bcd60e51b815260040161046490613237565b5f8581526004602052604081205490036112715760405162461bcd60e51b815260040161046490613262565b5f54604051637982969360e11b8152600481018490526001600160a01b039091169063f3052d26906024015f60405180830381865afa1580156112b6573d5f5f3e3d5ffd5b505050506040513d5f823e601f3d908101601f191682016040526112dd919081019061344b565b515f036113265760405162461bcd60e51b815260206004820152601760248201527610d85d1959dbdc9e48191bd95cc81b9bdd08195e1a5cdd604a1b6044820152606401610464565b5f858152600460205260409020600101611340858261331d565b505f85815260046020526040902060020161135b848261331d565b505f858152600460208181526040909220600381018590558351611387939190920191908401906128db565b507f4f49710e0e59ea2e7096d7bad0267390d8bb5c007687f72b0de2db3afdadd5e585858585856040516113bf9594939291906134fa565b60405180910390a15050505050565b5f5b5f848152600560205260409020548110156114ba575f848152600560205260409020805484919083908110611407576114076131e1565b905f5260205f2090600502015f0154036114b2575f84815260056020526040902080548290811061143a5761143a6131e1565b905f5260205f2090600502016003015482106114685760405162461bcd60e51b815260040161046490613403565b5f84815260056020526040902080548391908390811061148a5761148a6131e1565b905f5260205f2090600502016003015f8282546114a791906132c1565b909155506114ba9050565b6001016113d0565b505f838152600460205260409020600601548111156114eb5760405162461bcd60e51b815260040161046490613403565b5f83815260046020526040812060060180548392906103a99084906132c1565b6006546060905f816001600160401b0381111561152a5761152a612c2b565b60405190808252806020026020018201604052801561156357816020015b611550612856565b8152602001906001900390816115485790505b5090505f5b8281101561180e5760045f60068381548110611586576115866131e1565b905f5260205f20015481526020019081526020015f20604051806101400160405290815f82015481526020016001820180546115c19061328f565b80601f01602080910402602001604051908101604052809291908181526020018280546115ed9061328f565b80156116385780601f1061160f57610100808354040283529160200191611638565b820191905f5260205f20905b81548152906001019060200180831161161b57829003601f168201915b505050505081526020016002820180546116519061328f565b80601f016020809104026020016040519081016040528092919081815260200182805461167d9061328f565b80156116c85780601f1061169f576101008083540402835291602001916116c8565b820191905f5260205f20905b8154815290600101906020018083116116ab57829003601f168201915b505050505081526020016003820154815260200160048201805480602002602001604051908101604052809291908181526020015f905b828210156117a7578382905f5260205f2001805461171c9061328f565b80601f01602080910402602001604051908101604052809291908181526020018280546117489061328f565b80156117935780601f1061176a57610100808354040283529160200191611793565b820191905f5260205f20905b81548152906001019060200180831161177657829003601f168201915b5050505050815260200190600101906116ff565b505050908252506005820154602082015260068201546040820152600782015460608201526008820154608082015260099091015460ff16151560a09091015282518390839081106117fb576117fb6131e1565b6020908102919091010152600101611568565b505f5b61181c6001846132c1565b811015611929575f5b600161183183866132c1565b61183b91906132c1565b811015611920578261184e826001613209565b8151811061185e5761185e6131e1565b602002602001015160a0015183828151811061187c5761187c6131e1565b602002602001015160a001511015611918575f8382815181106118a1576118a16131e1565b60200260200101519050838260016118b99190613209565b815181106118c9576118c96131e1565b60200260200101518483815181106118e3576118e36131e1565b602090810291909101015280846118fb846001613209565b8151811061190b5761190b6131e1565b6020026020010181905250505b600101611825565b50600101611811565b5092915050565b5f818152600460205260408120546060910361195e5760405162461bcd60e51b815260040161046490613262565b5f82815260056020908152604080832080548251818502810185019093528083529193909284015b82821015611a6d578382905f5260205f2090600502016040518060a00160405290815f82015481526020016001820180546119c09061328f565b80601f01602080910402602001604051908101604052809291908181526020018280546119ec9061328f565b8015611a375780601f10611a0e57610100808354040283529160200191611a37565b820191905f5260205f20905b815481529060010190602001808311611a1a57829003601f168201915b50505050508152602001600282015481526020016003820154815260200160048201548152505081526020019060010190611986565b505050509050919050565b611aa3604051806040016040528060098152602001683a3c1737b934b3b4b760b91b815250326127e2565b600154604051630935e01b60e21b81523260048201526001600160a01b03909116906324d7806c90602401602060405180830381865afa158015611ae9573d5f5f3e3d5ffd5b505050506040513d601f19601f82011682018060405250810190611b0d919061321c565b611b295760405162461bcd60e51b815260040161046490613237565b5f8681526004602052604090205415611b845760405162461bcd60e51b815260206004820181905260248201527f466f6f642077697468207468697320494420616c7265616479206578697374736044820152606401610464565b5f54604051637982969360e11b8152600481018590526001600160a01b039091169063f3052d26906024015f60405180830381865afa158015611bc9573d5f5f3e3d5ffd5b505050506040513d5f823e601f3d908101601f19168201604052611bf0919081019061344b565b515f03611c395760405162461bcd60e51b815260206004820152601760248201527610d85d1959dbdc9e48191bd95cc81b9bdd08195e1a5cdd604a1b6044820152606401610464565b6040805161014081018252878152602080820188815282840188905260608301879052608083018690525f60a0840181905260c0840181905260e08401819052610100840181905261012084018190528a81526004909252929020815181559151909182916001820190611cad908261331d565b5060408201516002820190611cc2908261331d565b506060820151600382015560808201518051611ce89160048401916020909101906128db565b5060a0820151600582015560c082015160068083019190915560e083015160078301556101008301516008830155610120909201516009909101805460ff191691151591909117905580546001810182555f9182527ff652222313e28459528d920b65115c16c04f3efc82aaedc97be59f3f377c0d3f01889055546040516317e01a7360e21b815260048101869052602481018990526001600160a01b0390911690635f8069cc906044015f604051808303815f87803b158015611daa575f5ffd5b505af1158015611dbc573d5f5f3e3d5ffd5b505f925050505b8251811015611ecf575f6040518060a0016040528060035f815480929190611dea906133eb565b919050558152602001858481518110611e0557611e056131e1565b60200260200101515f015181526020015f8152602001858481518110611e2d57611e2d6131e1565b6020026020010151602001518152602001858481518110611e5057611e506131e1565b6020908102919091018101516040908101519092525f8c81526005808352928120805460018181018355918352918390208551929094029093019081559083015192935083929091820190611ea5908261331d565b50604082015160028201556060820151600382015560809091015160049091015550600101611dc3565b507fbdf2814016d06bf27f22aa349fade26a888a8f7eac3e0963916b1c64cc37a5ce8787878787604051611f079594939291906134fa565b60405180910390a150505050505050565b6006546060905f906001600160401b03811115611f3757611f37612c2b565b604051908082528060200260200182016040528015611f7057816020015b611f5d61292f565b815260200190600190039081611f555790505b5090505f5b600654811015612358575f60068281548110611f9357611f936131e1565b905f5260205f2001549050604051806040016040528060045f8481526020019081526020015f20604051806101400160405290815f8201548152602001600182018054611fdf9061328f565b80601f016020809104026020016040519081016040528092919081815260200182805461200b9061328f565b80156120565780601f1061202d57610100808354040283529160200191612056565b820191905f5260205f20905b81548152906001019060200180831161203957829003601f168201915b5050505050815260200160028201805461206f9061328f565b80601f016020809104026020016040519081016040528092919081815260200182805461209b9061328f565b80156120e65780601f106120bd576101008083540402835291602001916120e6565b820191905f5260205f20905b8154815290600101906020018083116120c957829003601f168201915b505050505081526020016003820154815260200160048201805480602002602001604051908101604052809291908181526020015f905b828210156121c5578382905f5260205f2001805461213a9061328f565b80601f01602080910402602001604051908101604052809291908181526020018280546121669061328f565b80156121b15780601f10612188576101008083540402835291602001916121b1565b820191905f5260205f20905b81548152906001019060200180831161219457829003601f168201915b50505050508152602001906001019061211d565b50505050815260200160058201548152602001600682015481526020016007820154815260200160088201548152602001600982015f9054906101000a900460ff161515151581525050815260200160055f8481526020019081526020015f20805480602002602001604051908101604052809291908181526020015f905b8282101561232b578382905f5260205f2090600502016040518060a00160405290815f820154815260200160018201805461227e9061328f565b80601f01602080910402602001604051908101604052809291908181526020018280546122aa9061328f565b80156122f55780601f106122cc576101008083540402835291602001916122f5565b820191905f5260205f20905b8154815290600101906020018083116122d857829003601f168201915b50505050508152602001600282015481526020016003820154815260200160048201548152505081526020019060010190612244565b50505050815250838381518110612344576123446131e1565b602090810291909101015250600101611f75565b50919050565b612389604051806040016040528060098152602001683a3c1737b934b3b4b760b91b815250326127e2565b600154604051630935e01b60e21b81523260048201526001600160a01b03909116906324d7806c90602401602060405180830381865afa1580156123cf573d5f5f3e3d5ffd5b505050506040513d601f19601f820116820180604052508101906123f3919061321c565b61240f5760405162461bcd60e51b815260040161046490613237565b5f83815260046020526040812054900361243b5760405162461bcd60e51b815260040161046490613262565b5f83815260056020526040812090805b82548110156125545784838281548110612467576124676131e1565b905f5260205f2090600502015f01540361254c57835f0151838281548110612491576124916131e1565b905f5260205f20906005020160010190816124ac919061331d565b5083602001518382815481106124c4576124c46131e1565b905f5260205f2090600502016003018190555083604001518382815481106124ee576124ee6131e1565b905f5260205f20906005020160040181905550600191507fe29e1e70959f0c301943d01c4bd294592a2105bc81e9b2523c4b1d7f7d1f393f868660405161253f929190918252602082015260400190565b60405180910390a1612554565b60010161244b565b508061259e5760405162461bcd60e51b8152602060048201526019602482015278119bdbd911195d185a5b08191bd95cc81b9bdd08195e1a5cdd603a1b6044820152606401610464565b5050505050565b6125d0604051806040016040528060098152602001683a3c1737b934b3b4b760b91b815250326127e2565b600154604051630935e01b60e21b81523260048201526001600160a01b03909116906324d7806c90602401602060405180830381865afa158015612616573d5f5f3e3d5ffd5b505050506040513d601f19601f8201168201806040525081019061263a919061321c565b6126565760405162461bcd60e51b815260040161046490613237565b5f8181526004602052604081205490036126825760405162461bcd60e51b815260040161046490613262565b5f818152600460205260408120818155906126a060018301826128a4565b6126ad600283015f6128a4565b600382015f9055600482015f6126c3919061294f565b505f60058281018290556006830182905560078301829055600883018290556009909201805460ff19169055828152602091909152604081206127059161296a565b5f5b6006548110156127ab578160068281548110612725576127256131e1565b905f5260205f200154036127a35760068054612743906001906132c1565b81548110612753576127536131e1565b905f5260205f2001546006828154811061276f5761276f6131e1565b5f91825260209091200155600680548061278b5761278b6133d7565b600190038181905f5260205f20015f905590556127ab565b600101612707565b506040518181527f4d4e7c43d5805933523b1317fdd5acb7517962d3e9f52834633b9f01494772959060200160405180910390a150565b61282782826040516024016127f8929190613592565b60408051601f198184030181529190526020810180516001600160e01b031663319af33360e01b17905261282b565b5050565b61283481612837565b50565b5f6a636f6e736f6c652e6c6f6790505f5f835160208501845afa505050565b6040518061014001604052805f815260200160608152602001606081526020015f8152602001606081526020015f81526020015f81526020015f81526020015f81526020015f151581525090565b5080546128b09061328f565b5f825580601f106128bf575050565b601f0160209004905f5260205f20908101906128349190612988565b828054828255905f5260205f2090810192821561291f579160200282015b8281111561291f578251829061290f908261331d565b50916020019190600101906128f9565b5061292b92915061299c565b5090565b6040518060400160405280612942612856565b8152602001606081525090565b5080545f8255905f5260205f2090810190612834919061299c565b5080545f8255600502905f5260205f209081019061283491906129b8565b5b8082111561292b575f8155600101612989565b8082111561292b575f6129af82826128a4565b5060010161299c565b8082111561292b575f8082556129d160018301826128a4565b505f600282018190556003820181905560048201556005016129b8565b5f5f5f60608486031215612a00575f5ffd5b505081359360208301359350604090920135919050565b8015158114612834575f5ffd5b5f5f60408385031215612a35575f5ffd5b823591506020830135612a4781612a17565b809150509250929050565b5f60208284031215612a62575f5ffd5b5035919050565b5f81518084528060208401602086015e5f602082860101526020601f19601f83011685010191505092915050565b5f82825180855260208501945060208160051b830101602085015f5b83811015612ae557601f19858403018852612acf838351612a69565b6020988901989093509190910190600101612ab3565b50909695505050505050565b805182525f60208201516101406020850152612b11610140850182612a69565b905060408301518482036040860152612b2a8282612a69565b9150506060830151606085015260808301518482036080860152612b4e8282612a97565b91505060a083015160a085015260c083015160c085015260e083015160e0850152610100830151610100850152610120830151612b9061012086018215159052565b509392505050565b602081525f612baa6020830184612af1565b9392505050565b5f5f60408385031215612bc2575f5ffd5b50508035926020909101359150565b805182525f602082015160a06020850152612bef60a0850182612a69565b90506040830151604085015260608301516060850152608083015160808501528091505092915050565b602081525f612baa6020830184612bd1565b634e487b7160e01b5f52604160045260245ffd5b604080519081016001600160401b0381118282101715612c6157612c61612c2b565b60405290565b604051601f8201601f191681016001600160401b0381118282101715612c8f57612c8f612c2b565b604052919050565b5f6001600160401b03821115612caf57612caf612c2b565b5060051b60200190565b5f6001600160401b03821115612cd157612cd1612c2b565b50601f01601f191660200190565b5f82601f830112612cee575f5ffd5b8135612d01612cfc82612cb9565b612c67565b818152846020838601011115612d15575f5ffd5b816020850160208301375f918101602001919091529392505050565b5f60608284031215612d41575f5ffd5b604051606081016001600160401b0381118282101715612d6357612d63612c2b565b60405290508082356001600160401b03811115612d7e575f5ffd5b612d8a85828601612cdf565b82525060208381013590820152604092830135920191909152919050565b5f82601f830112612db7575f5ffd5b8135612dc5612cfc82612c97565b8082825260208201915060208360051b860101925085831115612de6575f5ffd5b602085015b83811015612e265780356001600160401b03811115612e08575f5ffd5b612e17886020838a0101612d31565b84525060209283019201612deb565b5095945050505050565b5f5f60408385031215612e41575f5ffd5b8235915060208301356001600160401b03811115612e5d575f5ffd5b612e6985828601612da8565b9150509250929050565b5f82601f830112612e82575f5ffd5b8135612e90612cfc82612c97565b8082825260208201915060208360051b860101925085831115612eb1575f5ffd5b602085015b83811015612e265780356001600160401b03811115612ed3575f5ffd5b612ee2886020838a0101612cdf565b84525060209283019201612eb6565b5f5f5f5f5f60a08688031215612f05575f5ffd5b8535945060208601356001600160401b03811115612f21575f5ffd5b612f2d88828901612cdf565b94505060408601356001600160401b03811115612f48575f5ffd5b612f5488828901612cdf565b9350506060860135915060808601356001600160401b03811115612f76575f5ffd5b612f8288828901612e73565b9150509295509295909350565b5f602082016020835280845180835260408501915060408160051b8601019250602086015f5b82811015612fe657603f19878603018452612fd1858351612af1565b94506020938401939190910190600101612fb5565b50929695505050505050565b5f82825180855260208501945060208160051b830101602085015f5b83811015612ae557601f1985840301885261302a838351612bd1565b602098890198909350919091019060010161300e565b602081525f612baa6020830184612ff2565b5f5f5f5f5f5f60c08789031215613067575f5ffd5b8635955060208701356001600160401b03811115613083575f5ffd5b61308f89828a01612cdf565b95505060408701356001600160401b038111156130aa575f5ffd5b6130b689828a01612cdf565b9450506060870135925060808701356001600160401b038111156130d8575f5ffd5b6130e489828a01612e73565b92505060a08701356001600160401b038111156130ff575f5ffd5b61310b89828a01612da8565b9150509295509295509295565b5f602082016020835280845180835260408501915060408160051b8601019250602086015f5b82811015612fe657603f1987860301845281518051604087526131646040880182612af1565b905060208201519150868103602088015261317f8183612ff2565b96505050602093840193919091019060010161313e565b5f5f5f606084860312156131a8575f5ffd5b833592506020840135915060408401356001600160401b038111156131cb575f5ffd5b6131d786828701612d31565b9150509250925092565b634e487b7160e01b5f52603260045260245ffd5b634e487b7160e01b5f52601160045260245ffd5b80820180821115610a5757610a576131f5565b5f6020828403121561322c575f5ffd5b8151612baa81612a17565b6020808252601190820152702cb7ba9030b932903737ba1030b236b4b760791b604082015260600190565b602080825260139082015272119bdbd908191bd95cc81b9bdd08195e1a5cdd606a1b604082015260600190565b600181811c908216806132a357607f821691505b60208210810361235857634e487b7160e01b5f52602260045260245ffd5b81810381811115610a5757610a576131f5565b601f82111561331857805f5260205f20601f840160051c810160208510156132f95750805b601f840160051c820191505b8181101561259e575f8155600101613305565b505050565b81516001600160401b0381111561333657613336612c2b565b61334a81613344845461328f565b846132d4565b6020601f82116001811461337c575f83156133655750848201515b5f19600385901b1c1916600184901b17845561259e565b5f84815260208120601f198516915b828110156133ab578785015182556020948501946001909201910161338b565b50848210156133c857868401515f19600387901b60f8161c191681555b50505050600190811b01905550565b634e487b7160e01b5f52603160045260245ffd5b5f600182016133fc576133fc6131f5565b5060010190565b60208082526028908201527f5175616e74697479277320666f6f642063616e6e6f7420626520736d616c6c65604082015267072207468616e20360c41b606082015260800190565b5f6020828403121561345b575f5ffd5b81516001600160401b03811115613470575f5ffd5b820160408185031215613481575f5ffd5b613489612c3f565b8151815260208201516001600160401b038111156134a5575f5ffd5b80830192505084601f8301126134b9575f5ffd5b81516134c7612cfc82612cb9565b8181528660208386010111156134db575f5ffd5b8160208501602083015e5f602092820183015290820152949350505050565b85815260a060208201525f61351260a0830187612a69565b82810360408401526135248187612a69565b9050846060840152828103608084015280845180835260208301915060208160051b840101602087015f5b8381101561358157601f1986840301855261356b838351612a69565b602095860195909350919091019060010161354f565b50909b9a5050505050505050505050565b604081525f6135a46040830185612a69565b905060018060a01b0383166020830152939250505056fea264697066735822122085d825d83828ae2b387123707790656781a12981e424828394ebaa924a9d379364736f6c634300081e0033",
			"opcodes": "PUSH1 0x80 PUSH1 0x40 MSTORE PUSH1 0x1 PUSH1 0x2 SSTORE PUSH1 0x1 PUSH1 0x3 SSTORE CALLVALUE DUP1 ISZERO PUSH1 0x18 JUMPI PUSH0 PUSH0 REVERT JUMPDEST POP PUSH1 0x40 MLOAD PUSH2 0x36A8 CODESIZE SUB DUP1 PUSH2 0x36A8 DUP4 CODECOPY DUP2 ADD PUSH1 0x40 DUP2 SWAP1 MSTORE PUSH1 0x35 SWAP2 PUSH1 0x7E JUMP JUMPDEST PUSH0 DUP1 SLOAD PUSH1 0x1 PUSH1 0x1 PUSH1 0xA0 SHL SUB SWAP4 DUP5 AND PUSH1 0x1 PUSH1 0x1 PUSH1 0xA0 SHL SUB NOT SWAP2 DUP3 AND OR SWAP1 SWAP2 SSTORE PUSH1 0x1 DUP1 SLOAD SWAP3 SWAP1 SWAP4 AND SWAP2 AND OR SWAP1 SSTORE PUSH1 0xAA JUMP JUMPDEST DUP1 MLOAD PUSH1 0x1 PUSH1 0x1 PUSH1 0xA0 SHL SUB DUP2 AND DUP2 EQ PUSH1 0x79 JUMPI PUSH0 PUSH0 REVERT JUMPDEST SWAP2 SWAP1 POP JUMP JUMPDEST PUSH0 PUSH0 PUSH1 0x40 DUP4 DUP6 SUB SLT ISZERO PUSH1 0x8E JUMPI PUSH0 PUSH0 REVERT JUMPDEST PUSH1 0x95 DUP4 PUSH1 0x64 JUMP JUMPDEST SWAP2 POP PUSH1 0xA1 PUSH1 0x20 DUP5 ADD PUSH1 0x64 JUMP JUMPDEST SWAP1 POP SWAP3 POP SWAP3 SWAP1 POP JUMP JUMPDEST PUSH2 0x35F1 DUP1 PUSH2 0xB7 PUSH0 CODECOPY PUSH0 RETURN INVALID PUSH1 0x80 PUSH1 0x40 MSTORE CALLVALUE DUP1 ISZERO PUSH2 0xF JUMPI PUSH0 PUSH0 REVERT JUMPDEST POP PUSH1 0x4 CALLDATASIZE LT PUSH2 0x126 JUMPI PUSH0 CALLDATALOAD PUSH1 0xE0 SHR DUP1 PUSH4 0x6C6B5BAF GT PUSH2 0xA9 JUMPI DUP1 PUSH4 0xB447AAAE GT PUSH2 0x6E JUMPI DUP1 PUSH4 0xB447AAAE EQ PUSH2 0x289 JUMPI DUP1 PUSH4 0xB9B5AAE6 EQ PUSH2 0x29C JUMPI DUP1 PUSH4 0xBAF85306 EQ PUSH2 0x2B1 JUMPI DUP1 PUSH4 0xD198B650 EQ PUSH2 0x2C4 JUMPI DUP1 PUSH4 0xD86EC238 EQ PUSH2 0x2D7 JUMPI PUSH0 PUSH0 REVERT JUMPDEST DUP1 PUSH4 0x6C6B5BAF EQ PUSH2 0x21B JUMPI DUP1 PUSH4 0x6DD2DD88 EQ PUSH2 0x22E JUMPI DUP1 PUSH4 0x9A69BFA6 EQ PUSH2 0x241 JUMPI DUP1 PUSH4 0xA6BC8C6A EQ PUSH2 0x254 JUMPI DUP1 PUSH4 0xAF5607F9 EQ PUSH2 0x269 JUMPI PUSH0 PUSH0 REVERT JUMPDEST DUP1 PUSH4 0x1E4DE872 GT PUSH2 0xEF JUMPI DUP1 PUSH4 0x1E4DE872 EQ PUSH2 0x18A JUMPI DUP1 PUSH4 0x35085515 EQ PUSH2 0x1AA JUMPI DUP1 PUSH4 0x42F54B89 EQ PUSH2 0x1CA JUMPI DUP1 PUSH4 0x4D30A39B EQ PUSH2 0x1F5 JUMPI DUP1 PUSH4 0x64F77471 EQ PUSH2 0x208 JUMPI PUSH0 PUSH0 REVERT JUMPDEST DUP1 PUSH3 0xE081DD EQ PUSH2 0x12A JUMPI DUP1 PUSH4 0x5207DB2 EQ PUSH2 0x13F JUMPI DUP1 PUSH4 0x94B9A53 EQ PUSH2 0x152 JUMPI DUP1 PUSH4 0x1945EF58 EQ PUSH2 0x165 JUMPI DUP1 PUSH4 0x1B0D77CC EQ PUSH2 0x181 JUMPI JUMPDEST PUSH0 PUSH0 REVERT JUMPDEST PUSH2 0x13D PUSH2 0x138 CALLDATASIZE PUSH1 0x4 PUSH2 0x29EE JUMP JUMPDEST PUSH2 0x2E9 JUMP JUMPDEST STOP JUMPDEST PUSH2 0x13D PUSH2 0x14D CALLDATASIZE PUSH1 0x4 PUSH2 0x2A24 JUMP JUMPDEST PUSH2 0x3B3 JUMP JUMPDEST PUSH2 0x13D PUSH2 0x160 CALLDATASIZE PUSH1 0x4 PUSH2 0x29EE JUMP JUMPDEST PUSH2 0x4F5 JUMP JUMPDEST PUSH2 0x16E PUSH1 0x2 SLOAD DUP2 JUMP JUMPDEST PUSH1 0x40 MLOAD SWAP1 DUP2 MSTORE PUSH1 0x20 ADD JUMPDEST PUSH1 0x40 MLOAD DUP1 SWAP2 SUB SWAP1 RETURN JUMPDEST PUSH2 0x16E PUSH1 0x3 SLOAD DUP2 JUMP JUMPDEST PUSH2 0x19D PUSH2 0x198 CALLDATASIZE PUSH1 0x4 PUSH2 0x2A52 JUMP JUMPDEST PUSH2 0x5B5 JUMP JUMPDEST PUSH1 0x40 MLOAD PUSH2 0x178 SWAP2 SWAP1 PUSH2 0x2B98 JUMP JUMPDEST PUSH2 0x1BD PUSH2 0x1B8 CALLDATASIZE PUSH1 0x4 PUSH2 0x2BB1 JUMP JUMPDEST PUSH2 0x84B JUMP JUMPDEST PUSH1 0x40 MLOAD PUSH2 0x178 SWAP2 SWAP1 PUSH2 0x2C19 JUMP JUMPDEST PUSH1 0x1 SLOAD PUSH2 0x1DD SWAP1 PUSH1 0x1 PUSH1 0x1 PUSH1 0xA0 SHL SUB AND DUP2 JUMP JUMPDEST PUSH1 0x40 MLOAD PUSH1 0x1 PUSH1 0x1 PUSH1 0xA0 SHL SUB SWAP1 SWAP2 AND DUP2 MSTORE PUSH1 0x20 ADD PUSH2 0x178 JUMP JUMPDEST PUSH2 0x13D PUSH2 0x203 CALLDATASIZE PUSH1 0x4 PUSH2 0x2BB1 JUMP JUMPDEST PUSH2 0xA5D JUMP JUMPDEST PUSH2 0x13D PUSH2 0x216 CALLDATASIZE PUSH1 0x4 PUSH2 0x2E30 JUMP JUMPDEST PUSH2 0xDEF JUMP JUMPDEST PUSH2 0x13D PUSH2 0x229 CALLDATASIZE PUSH1 0x4 PUSH2 0x29EE JUMP JUMPDEST PUSH2 0x100C JUMP JUMPDEST PUSH2 0x13D PUSH2 0x23C CALLDATASIZE PUSH1 0x4 PUSH2 0x2EF1 JUMP JUMPDEST PUSH2 0x1194 JUMP JUMPDEST PUSH2 0x13D PUSH2 0x24F CALLDATASIZE PUSH1 0x4 PUSH2 0x29EE JUMP JUMPDEST PUSH2 0x13CE JUMP JUMPDEST PUSH2 0x25C PUSH2 0x150B JUMP JUMPDEST PUSH1 0x40 MLOAD PUSH2 0x178 SWAP2 SWAP1 PUSH2 0x2F8F JUMP JUMPDEST PUSH2 0x27C PUSH2 0x277 CALLDATASIZE PUSH1 0x4 PUSH2 0x2A52 JUMP JUMPDEST PUSH2 0x1930 JUMP JUMPDEST PUSH1 0x40 MLOAD PUSH2 0x178 SWAP2 SWAP1 PUSH2 0x3040 JUMP JUMPDEST PUSH2 0x13D PUSH2 0x297 CALLDATASIZE PUSH1 0x4 PUSH2 0x3052 JUMP JUMPDEST PUSH2 0x1A78 JUMP JUMPDEST PUSH2 0x2A4 PUSH2 0x1F18 JUMP JUMPDEST PUSH1 0x40 MLOAD PUSH2 0x178 SWAP2 SWAP1 PUSH2 0x3118 JUMP JUMPDEST PUSH2 0x13D PUSH2 0x2BF CALLDATASIZE PUSH1 0x4 PUSH2 0x3196 JUMP JUMPDEST PUSH2 0x235E JUMP JUMPDEST PUSH2 0x13D PUSH2 0x2D2 CALLDATASIZE PUSH1 0x4 PUSH2 0x2A52 JUMP JUMPDEST PUSH2 0x25A5 JUMP JUMPDEST PUSH0 SLOAD PUSH2 0x1DD SWAP1 PUSH1 0x1 PUSH1 0x1 PUSH1 0xA0 SHL SUB AND DUP2 JUMP JUMPDEST PUSH0 JUMPDEST PUSH0 DUP5 DUP2 MSTORE PUSH1 0x5 PUSH1 0x20 MSTORE PUSH1 0x40 SWAP1 KECCAK256 SLOAD DUP2 LT ISZERO PUSH2 0x388 JUMPI PUSH0 DUP5 DUP2 MSTORE PUSH1 0x5 PUSH1 0x20 MSTORE PUSH1 0x40 SWAP1 KECCAK256 DUP1 SLOAD DUP5 SWAP2 SWAP1 DUP4 SWAP1 DUP2 LT PUSH2 0x322 JUMPI PUSH2 0x322 PUSH2 0x31E1 JUMP JUMPDEST SWAP1 PUSH0 MSTORE PUSH1 0x20 PUSH0 KECCAK256 SWAP1 PUSH1 0x5 MUL ADD PUSH0 ADD SLOAD SUB PUSH2 0x380 JUMPI PUSH0 DUP5 DUP2 MSTORE PUSH1 0x5 PUSH1 0x20 MSTORE PUSH1 0x40 SWAP1 KECCAK256 DUP1 SLOAD DUP4 SWAP2 SWAP1 DUP4 SWAP1 DUP2 LT PUSH2 0x358 JUMPI PUSH2 0x358 PUSH2 0x31E1 JUMP JUMPDEST SWAP1 PUSH0 MSTORE PUSH1 0x20 PUSH0 KECCAK256 SWAP1 PUSH1 0x5 MUL ADD PUSH1 0x2 ADD PUSH0 DUP3 DUP3 SLOAD PUSH2 0x375 SWAP2 SWAP1 PUSH2 0x3209 JUMP JUMPDEST SWAP1 SWAP2 SSTORE POP PUSH2 0x388 SWAP1 POP JUMP JUMPDEST PUSH1 0x1 ADD PUSH2 0x2EB JUMP JUMPDEST POP PUSH0 DUP4 DUP2 MSTORE PUSH1 0x4 PUSH1 0x20 MSTORE PUSH1 0x40 DUP2 KECCAK256 PUSH1 0x5 ADD DUP1 SLOAD DUP4 SWAP3 SWAP1 PUSH2 0x3A9 SWAP1 DUP5 SWAP1 PUSH2 0x3209 JUMP JUMPDEST SWAP1 SWAP2 SSTORE POP POP POP POP POP JUMP JUMPDEST PUSH2 0x3DE PUSH1 0x40 MLOAD DUP1 PUSH1 0x40 ADD PUSH1 0x40 MSTORE DUP1 PUSH1 0x9 DUP2 MSTORE PUSH1 0x20 ADD PUSH9 0x3A3C1737B934B3B4B7 PUSH1 0xB9 SHL DUP2 MSTORE POP ORIGIN PUSH2 0x27E2 JUMP JUMPDEST PUSH1 0x1 SLOAD PUSH1 0x40 MLOAD PUSH4 0x935E01B PUSH1 0xE2 SHL DUP2 MSTORE ORIGIN PUSH1 0x4 DUP3 ADD MSTORE PUSH1 0x1 PUSH1 0x1 PUSH1 0xA0 SHL SUB SWAP1 SWAP2 AND SWAP1 PUSH4 0x24D7806C SWAP1 PUSH1 0x24 ADD PUSH1 0x20 PUSH1 0x40 MLOAD DUP1 DUP4 SUB DUP2 DUP7 GAS STATICCALL ISZERO DUP1 ISZERO PUSH2 0x424 JUMPI RETURNDATASIZE PUSH0 PUSH0 RETURNDATACOPY RETURNDATASIZE PUSH0 REVERT JUMPDEST POP POP POP POP PUSH1 0x40 MLOAD RETURNDATASIZE PUSH1 0x1F NOT PUSH1 0x1F DUP3 ADD AND DUP3 ADD DUP1 PUSH1 0x40 MSTORE POP DUP2 ADD SWAP1 PUSH2 0x448 SWAP2 SWAP1 PUSH2 0x321C JUMP JUMPDEST PUSH2 0x46D JUMPI PUSH1 0x40 MLOAD PUSH3 0x461BCD PUSH1 0xE5 SHL DUP2 MSTORE PUSH1 0x4 ADD PUSH2 0x464 SWAP1 PUSH2 0x3237 JUMP JUMPDEST PUSH1 0x40 MLOAD DUP1 SWAP2 SUB SWAP1 REVERT JUMPDEST PUSH0 DUP3 DUP2 MSTORE PUSH1 0x4 PUSH1 0x20 MSTORE PUSH1 0x40 DUP2 KECCAK256 SLOAD SWAP1 SUB PUSH2 0x499 JUMPI PUSH1 0x40 MLOAD PUSH3 0x461BCD PUSH1 0xE5 SHL DUP2 MSTORE PUSH1 0x4 ADD PUSH2 0x464 SWAP1 PUSH2 0x3262 JUMP JUMPDEST PUSH0 DUP3 DUP2 MSTORE PUSH1 0x4 PUSH1 0x20 SWAP1 DUP2 MSTORE PUSH1 0x40 SWAP2 DUP3 SWAP1 KECCAK256 PUSH1 0x9 ADD DUP1 SLOAD PUSH1 0xFF NOT AND DUP5 ISZERO ISZERO SWAP1 DUP2 OR SWAP1 SWAP2 SSTORE DUP3 MLOAD DUP6 DUP2 MSTORE SWAP2 DUP3 ADD MSTORE PUSH32 0x8A071AF4AF756E1456F442C6ADFA4A285D076AFC427D8E2D440D78CF31BCEF87 SWAP2 ADD JUMPDEST PUSH1 0x40 MLOAD DUP1 SWAP2 SUB SWAP1 LOG1 POP POP JUMP JUMPDEST PUSH0 JUMPDEST PUSH0 DUP5 DUP2 MSTORE PUSH1 0x5 PUSH1 0x20 MSTORE PUSH1 0x40 SWAP1 KECCAK256 SLOAD DUP2 LT ISZERO PUSH2 0x594 JUMPI PUSH0 DUP5 DUP2 MSTORE PUSH1 0x5 PUSH1 0x20 MSTORE PUSH1 0x40 SWAP1 KECCAK256 DUP1 SLOAD DUP5 SWAP2 SWAP1 DUP4 SWAP1 DUP2 LT PUSH2 0x52E JUMPI PUSH2 0x52E PUSH2 0x31E1 JUMP JUMPDEST SWAP1 PUSH0 MSTORE PUSH1 0x20 PUSH0 KECCAK256 SWAP1 PUSH1 0x5 MUL ADD PUSH0 ADD SLOAD SUB PUSH2 0x58C JUMPI PUSH0 DUP5 DUP2 MSTORE PUSH1 0x5 PUSH1 0x20 MSTORE PUSH1 0x40 SWAP1 KECCAK256 DUP1 SLOAD DUP4 SWAP2 SWAP1 DUP4 SWAP1 DUP2 LT PUSH2 0x564 JUMPI PUSH2 0x564 PUSH2 0x31E1 JUMP JUMPDEST SWAP1 PUSH0 MSTORE PUSH1 0x20 PUSH0 KECCAK256 SWAP1 PUSH1 0x5 MUL ADD PUSH1 0x3 ADD PUSH0 DUP3 DUP3 SLOAD PUSH2 0x581 SWAP2 SWAP1 PUSH2 0x3209 JUMP JUMPDEST SWAP1 SWAP2 SSTORE POP PUSH2 0x594 SWAP1 POP JUMP JUMPDEST PUSH1 0x1 ADD PUSH2 0x4F7 JUMP JUMPDEST POP PUSH0 DUP4 DUP2 MSTORE PUSH1 0x4 PUSH1 0x20 MSTORE PUSH1 0x40 DUP2 KECCAK256 PUSH1 0x6 ADD DUP1 SLOAD DUP4 SWAP3 SWAP1 PUSH2 0x3A9 SWAP1 DUP5 SWAP1 PUSH2 0x3209 JUMP JUMPDEST PUSH2 0x5BD PUSH2 0x2856 JUMP JUMPDEST PUSH0 DUP3 DUP2 MSTORE PUSH1 0x4 PUSH1 0x20 MSTORE PUSH1 0x40 DUP2 KECCAK256 SLOAD SWAP1 SUB PUSH2 0x5E9 JUMPI PUSH1 0x40 MLOAD PUSH3 0x461BCD PUSH1 0xE5 SHL DUP2 MSTORE PUSH1 0x4 ADD PUSH2 0x464 SWAP1 PUSH2 0x3262 JUMP JUMPDEST PUSH1 0x4 PUSH0 DUP4 DUP2 MSTORE PUSH1 0x20 ADD SWAP1 DUP2 MSTORE PUSH1 0x20 ADD PUSH0 KECCAK256 PUSH1 0x40 MLOAD DUP1 PUSH2 0x140 ADD PUSH1 0x40 MSTORE SWAP1 DUP2 PUSH0 DUP3 ADD SLOAD DUP2 MSTORE PUSH1 0x20 ADD PUSH1 0x1 DUP3 ADD DUP1 SLOAD PUSH2 0x61F SWAP1 PUSH2 0x328F JUMP JUMPDEST DUP1 PUSH1 0x1F ADD PUSH1 0x20 DUP1 SWAP2 DIV MUL PUSH1 0x20 ADD PUSH1 0x40 MLOAD SWAP1 DUP2 ADD PUSH1 0x40 MSTORE DUP1 SWAP3 SWAP2 SWAP1 DUP2 DUP2 MSTORE PUSH1 0x20 ADD DUP3 DUP1 SLOAD PUSH2 0x64B SWAP1 PUSH2 0x328F JUMP JUMPDEST DUP1 ISZERO PUSH2 0x696 JUMPI DUP1 PUSH1 0x1F LT PUSH2 0x66D JUMPI PUSH2 0x100 DUP1 DUP4 SLOAD DIV MUL DUP4 MSTORE SWAP2 PUSH1 0x20 ADD SWAP2 PUSH2 0x696 JUMP JUMPDEST DUP3 ADD SWAP2 SWAP1 PUSH0 MSTORE PUSH1 0x20 PUSH0 KECCAK256 SWAP1 JUMPDEST DUP2 SLOAD DUP2 MSTORE SWAP1 PUSH1 0x1 ADD SWAP1 PUSH1 0x20 ADD DUP1 DUP4 GT PUSH2 0x679 JUMPI DUP3 SWAP1 SUB PUSH1 0x1F AND DUP3 ADD SWAP2 JUMPDEST POP POP POP POP POP DUP2 MSTORE PUSH1 0x20 ADD PUSH1 0x2 DUP3 ADD DUP1 SLOAD PUSH2 0x6AF SWAP1 PUSH2 0x328F JUMP JUMPDEST DUP1 PUSH1 0x1F ADD PUSH1 0x20 DUP1 SWAP2 DIV MUL PUSH1 0x20 ADD PUSH1 0x40 MLOAD SWAP1 DUP2 ADD PUSH1 0x40 MSTORE DUP1 SWAP3 SWAP2 SWAP1 DUP2 DUP2 MSTORE PUSH1 0x20 ADD DUP3 DUP1 SLOAD PUSH2 0x6DB SWAP1 PUSH2 0x328F JUMP JUMPDEST DUP1 ISZERO PUSH2 0x726 JUMPI DUP1 PUSH1 0x1F LT PUSH2 0x6FD JUMPI PUSH2 0x100 DUP1 DUP4 SLOAD DIV MUL DUP4 MSTORE SWAP2 PUSH1 0x20 ADD SWAP2 PUSH2 0x726 JUMP JUMPDEST DUP3 ADD SWAP2 SWAP1 PUSH0 MSTORE PUSH1 0x20 PUSH0 KECCAK256 SWAP1 JUMPDEST DUP2 SLOAD DUP2 MSTORE SWAP1 PUSH1 0x1 ADD SWAP1 PUSH1 0x20 ADD DUP1 DUP4 GT PUSH2 0x709 JUMPI DUP3 SWAP1 SUB PUSH1 0x1F AND DUP3 ADD SWAP2 JUMPDEST POP POP POP POP POP DUP2 MSTORE PUSH1 0x20 ADD PUSH1 0x3 DUP3 ADD SLOAD DUP2 MSTORE PUSH1 0x20 ADD PUSH1 0x4 DUP3 ADD DUP1 SLOAD DUP1 PUSH1 0x20 MUL PUSH1 0x20 ADD PUSH1 0x40 MLOAD SWAP1 DUP2 ADD PUSH1 0x40 MSTORE DUP1 SWAP3 SWAP2 SWAP1 DUP2 DUP2 MSTORE PUSH1 0x20 ADD PUSH0 SWAP1 JUMPDEST DUP3 DUP3 LT ISZERO PUSH2 0x805 JUMPI DUP4 DUP3 SWAP1 PUSH0 MSTORE PUSH1 0x20 PUSH0 KECCAK256 ADD DUP1 SLOAD PUSH2 0x77A SWAP1 PUSH2 0x328F JUMP JUMPDEST DUP1 PUSH1 0x1F ADD PUSH1 0x20 DUP1 SWAP2 DIV MUL PUSH1 0x20 ADD PUSH1 0x40 MLOAD SWAP1 DUP2 ADD PUSH1 0x40 MSTORE DUP1 SWAP3 SWAP2 SWAP1 DUP2 DUP2 MSTORE PUSH1 0x20 ADD DUP3 DUP1 SLOAD PUSH2 0x7A6 SWAP1 PUSH2 0x328F JUMP JUMPDEST DUP1 ISZERO PUSH2 0x7F1 JUMPI DUP1 PUSH1 0x1F LT PUSH2 0x7C8 JUMPI PUSH2 0x100 DUP1 DUP4 SLOAD DIV MUL DUP4 MSTORE SWAP2 PUSH1 0x20 ADD SWAP2 PUSH2 0x7F1 JUMP JUMPDEST DUP3 ADD SWAP2 SWAP1 PUSH0 MSTORE PUSH1 0x20 PUSH0 KECCAK256 SWAP1 JUMPDEST DUP2 SLOAD DUP2 MSTORE SWAP1 PUSH1 0x1 ADD SWAP1 PUSH1 0x20 ADD DUP1 DUP4 GT PUSH2 0x7D4 JUMPI DUP3 SWAP1 SUB PUSH1 0x1F AND DUP3 ADD SWAP2 JUMPDEST POP POP POP POP POP DUP2 MSTORE PUSH1 0x20 ADD SWAP1 PUSH1 0x1 ADD SWAP1 PUSH2 0x75D JUMP JUMPDEST POP POP POP SWAP1 DUP3 MSTORE POP PUSH1 0x5 DUP3 ADD SLOAD PUSH1 0x20 DUP3 ADD MSTORE PUSH1 0x6 DUP3 ADD SLOAD PUSH1 0x40 DUP3 ADD MSTORE PUSH1 0x7 DUP3 ADD SLOAD PUSH1 0x60 DUP3 ADD MSTORE PUSH1 0x8 DUP3 ADD SLOAD PUSH1 0x80 DUP3 ADD MSTORE PUSH1 0x9 SWAP1 SWAP2 ADD SLOAD PUSH1 0xFF AND ISZERO ISZERO PUSH1 0xA0 SWAP1 SWAP2 ADD MSTORE SWAP3 SWAP2 POP POP JUMP JUMPDEST PUSH2 0x879 PUSH1 0x40 MLOAD DUP1 PUSH1 0xA0 ADD PUSH1 0x40 MSTORE DUP1 PUSH0 DUP2 MSTORE PUSH1 0x20 ADD PUSH1 0x60 DUP2 MSTORE PUSH1 0x20 ADD PUSH0 DUP2 MSTORE PUSH1 0x20 ADD PUSH0 DUP2 MSTORE PUSH1 0x20 ADD PUSH0 DUP2 MSTORE POP SWAP1 JUMP JUMPDEST PUSH0 DUP4 DUP2 MSTORE PUSH1 0x5 PUSH1 0x20 MSTORE PUSH1 0x40 SWAP1 KECCAK256 SLOAD PUSH2 0x8C4 JUMPI PUSH1 0x40 MLOAD PUSH3 0x461BCD PUSH1 0xE5 SHL DUP2 MSTORE PUSH1 0x20 PUSH1 0x4 DUP3 ADD MSTORE PUSH1 0xE PUSH1 0x24 DUP3 ADD MSTORE PUSH14 0x125B9D985B1A5908199BDBD91259 PUSH1 0x92 SHL PUSH1 0x44 DUP3 ADD MSTORE PUSH1 0x64 ADD PUSH2 0x464 JUMP JUMPDEST PUSH0 JUMPDEST PUSH0 DUP5 DUP2 MSTORE PUSH1 0x5 PUSH1 0x20 MSTORE PUSH1 0x40 SWAP1 KECCAK256 SLOAD DUP2 LT ISZERO PUSH2 0xA0E JUMPI PUSH0 DUP5 DUP2 MSTORE PUSH1 0x5 PUSH1 0x20 MSTORE PUSH1 0x40 SWAP1 KECCAK256 DUP1 SLOAD DUP5 SWAP2 SWAP1 DUP4 SWAP1 DUP2 LT PUSH2 0x8FD JUMPI PUSH2 0x8FD PUSH2 0x31E1 JUMP JUMPDEST SWAP1 PUSH0 MSTORE PUSH1 0x20 PUSH0 KECCAK256 SWAP1 PUSH1 0x5 MUL ADD PUSH0 ADD SLOAD SUB PUSH2 0xA06 JUMPI PUSH0 DUP5 DUP2 MSTORE PUSH1 0x5 PUSH1 0x20 MSTORE PUSH1 0x40 SWAP1 KECCAK256 DUP1 SLOAD DUP3 SWAP1 DUP2 LT PUSH2 0x930 JUMPI PUSH2 0x930 PUSH2 0x31E1 JUMP JUMPDEST SWAP1 PUSH0 MSTORE PUSH1 0x20 PUSH0 KECCAK256 SWAP1 PUSH1 0x5 MUL ADD PUSH1 0x40 MLOAD DUP1 PUSH1 0xA0 ADD PUSH1 0x40 MSTORE SWAP1 DUP2 PUSH0 DUP3 ADD SLOAD DUP2 MSTORE PUSH1 0x20 ADD PUSH1 0x1 DUP3 ADD DUP1 SLOAD PUSH2 0x960 SWAP1 PUSH2 0x328F JUMP JUMPDEST DUP1 PUSH1 0x1F ADD PUSH1 0x20 DUP1 SWAP2 DIV MUL PUSH1 0x20 ADD PUSH1 0x40 MLOAD SWAP1 DUP2 ADD PUSH1 0x40 MSTORE DUP1 SWAP3 SWAP2 SWAP1 DUP2 DUP2 MSTORE PUSH1 0x20 ADD DUP3 DUP1 SLOAD PUSH2 0x98C SWAP1 PUSH2 0x328F JUMP JUMPDEST DUP1 ISZERO PUSH2 0x9D7 JUMPI DUP1 PUSH1 0x1F LT PUSH2 0x9AE JUMPI PUSH2 0x100 DUP1 DUP4 SLOAD DIV MUL DUP4 MSTORE SWAP2 PUSH1 0x20 ADD SWAP2 PUSH2 0x9D7 JUMP JUMPDEST DUP3 ADD SWAP2 SWAP1 PUSH0 MSTORE PUSH1 0x20 PUSH0 KECCAK256 SWAP1 JUMPDEST DUP2 SLOAD DUP2 MSTORE SWAP1 PUSH1 0x1 ADD SWAP1 PUSH1 0x20 ADD DUP1 DUP4 GT PUSH2 0x9BA JUMPI DUP3 SWAP1 SUB PUSH1 0x1F AND DUP3 ADD SWAP2 JUMPDEST POP POP POP POP POP DUP2 MSTORE PUSH1 0x20 ADD PUSH1 0x2 DUP3 ADD SLOAD DUP2 MSTORE PUSH1 0x20 ADD PUSH1 0x3 DUP3 ADD SLOAD DUP2 MSTORE PUSH1 0x20 ADD PUSH1 0x4 DUP3 ADD SLOAD DUP2 MSTORE POP POP SWAP2 POP POP PUSH2 0xA57 JUMP JUMPDEST PUSH1 0x1 ADD PUSH2 0x8C6 JUMP JUMPDEST POP PUSH1 0x40 MLOAD PUSH3 0x461BCD PUSH1 0xE5 SHL DUP2 MSTORE PUSH1 0x20 PUSH1 0x4 DUP3 ADD MSTORE PUSH1 0x19 PUSH1 0x24 DUP3 ADD MSTORE PUSH32 0x466F6F6444657461696C206E6F7420666F756E64205F5F5F2E00000000000000 PUSH1 0x44 DUP3 ADD MSTORE PUSH1 0x64 ADD PUSH2 0x464 JUMP JUMPDEST SWAP3 SWAP2 POP POP JUMP JUMPDEST PUSH2 0xA88 PUSH1 0x40 MLOAD DUP1 PUSH1 0x40 ADD PUSH1 0x40 MSTORE DUP1 PUSH1 0x9 DUP2 MSTORE PUSH1 0x20 ADD PUSH9 0x3A3C1737B934B3B4B7 PUSH1 0xB9 SHL DUP2 MSTORE POP ORIGIN PUSH2 0x27E2 JUMP JUMPDEST PUSH1 0x1 SLOAD PUSH1 0x40 MLOAD PUSH4 0x935E01B PUSH1 0xE2 SHL DUP2 MSTORE ORIGIN PUSH1 0x4 DUP3 ADD MSTORE PUSH1 0x1 PUSH1 0x1 PUSH1 0xA0 SHL SUB SWAP1 SWAP2 AND SWAP1 PUSH4 0x24D7806C SWAP1 PUSH1 0x24 ADD PUSH1 0x20 PUSH1 0x40 MLOAD DUP1 DUP4 SUB DUP2 DUP7 GAS STATICCALL ISZERO DUP1 ISZERO PUSH2 0xACE JUMPI RETURNDATASIZE PUSH0 PUSH0 RETURNDATACOPY RETURNDATASIZE PUSH0 REVERT JUMPDEST POP POP POP POP PUSH1 0x40 MLOAD RETURNDATASIZE PUSH1 0x1F NOT PUSH1 0x1F DUP3 ADD AND DUP3 ADD DUP1 PUSH1 0x40 MSTORE POP DUP2 ADD SWAP1 PUSH2 0xAF2 SWAP2 SWAP1 PUSH2 0x321C JUMP JUMPDEST PUSH2 0xB0E JUMPI PUSH1 0x40 MLOAD PUSH3 0x461BCD PUSH1 0xE5 SHL DUP2 MSTORE PUSH1 0x4 ADD PUSH2 0x464 SWAP1 PUSH2 0x3237 JUMP JUMPDEST PUSH0 DUP3 DUP2 MSTORE PUSH1 0x4 PUSH1 0x20 MSTORE PUSH1 0x40 DUP2 KECCAK256 SLOAD SWAP1 SUB PUSH2 0xB3A JUMPI PUSH1 0x40 MLOAD PUSH3 0x461BCD PUSH1 0xE5 SHL DUP2 MSTORE PUSH1 0x4 ADD PUSH2 0x464 SWAP1 PUSH2 0x3262 JUMP JUMPDEST PUSH0 DUP3 DUP2 MSTORE PUSH1 0x5 PUSH1 0x20 MSTORE PUSH1 0x40 DUP2 KECCAK256 SWAP1 DUP1 JUMPDEST DUP3 SLOAD DUP2 LT ISZERO PUSH2 0xD9F JUMPI DUP4 DUP4 DUP3 DUP2 SLOAD DUP2 LT PUSH2 0xB66 JUMPI PUSH2 0xB66 PUSH2 0x31E1 JUMP JUMPDEST SWAP1 PUSH0 MSTORE PUSH1 0x20 PUSH0 KECCAK256 SWAP1 PUSH1 0x5 MUL ADD PUSH0 ADD SLOAD SUB PUSH2 0xD97 JUMPI DUP3 SLOAD PUSH1 0x1 LT PUSH2 0xBBD JUMPI PUSH1 0x40 MLOAD DUP1 PUSH1 0xA0 ADD PUSH1 0x40 MSTORE DUP1 PUSH0 DUP2 MSTORE PUSH1 0x20 ADD PUSH1 0x40 MLOAD DUP1 PUSH1 0x20 ADD PUSH1 0x40 MSTORE DUP1 PUSH0 DUP2 MSTORE POP DUP2 MSTORE PUSH1 0x20 ADD PUSH0 DUP2 MSTORE PUSH1 0x20 ADD PUSH0 DUP2 MSTORE PUSH1 0x20 ADD PUSH0 DUP2 MSTORE POP PUSH2 0xCAC JUMP JUMPDEST DUP3 SLOAD DUP4 SWAP1 PUSH2 0xBCD SWAP1 PUSH1 0x1 SWAP1 PUSH2 0x32C1 JUMP JUMPDEST DUP2 SLOAD DUP2 LT PUSH2 0xBDD JUMPI PUSH2 0xBDD PUSH2 0x31E1 JUMP JUMPDEST SWAP1 PUSH0 MSTORE PUSH1 0x20 PUSH0 KECCAK256 SWAP1 PUSH1 0x5 MUL ADD PUSH1 0x40 MLOAD DUP1 PUSH1 0xA0 ADD PUSH1 0x40 MSTORE SWAP1 DUP2 PUSH0 DUP3 ADD SLOAD DUP2 MSTORE PUSH1 0x20 ADD PUSH1 0x1 DUP3 ADD DUP1 SLOAD PUSH2 0xC0D SWAP1 PUSH2 0x328F JUMP JUMPDEST DUP1 PUSH1 0x1F ADD PUSH1 0x20 DUP1 SWAP2 DIV MUL PUSH1 0x20 ADD PUSH1 0x40 MLOAD SWAP1 DUP2 ADD PUSH1 0x40 MSTORE DUP1 SWAP3 SWAP2 SWAP1 DUP2 DUP2 MSTORE PUSH1 0x20 ADD DUP3 DUP1 SLOAD PUSH2 0xC39 SWAP1 PUSH2 0x328F JUMP JUMPDEST DUP1 ISZERO PUSH2 0xC84 JUMPI DUP1 PUSH1 0x1F LT PUSH2 0xC5B JUMPI PUSH2 0x100 DUP1 DUP4 SLOAD DIV MUL DUP4 MSTORE SWAP2 PUSH1 0x20 ADD SWAP2 PUSH2 0xC84 JUMP JUMPDEST DUP3 ADD SWAP2 SWAP1 PUSH0 MSTORE PUSH1 0x20 PUSH0 KECCAK256 SWAP1 JUMPDEST DUP2 SLOAD DUP2 MSTORE SWAP1 PUSH1 0x1 ADD SWAP1 PUSH1 0x20 ADD DUP1 DUP4 GT PUSH2 0xC67 JUMPI DUP3 SWAP1 SUB PUSH1 0x1F AND DUP3 ADD SWAP2 JUMPDEST POP POP POP POP POP DUP2 MSTORE PUSH1 0x20 ADD PUSH1 0x2 DUP3 ADD SLOAD DUP2 MSTORE PUSH1 0x20 ADD PUSH1 0x3 DUP3 ADD SLOAD DUP2 MSTORE PUSH1 0x20 ADD PUSH1 0x4 DUP3 ADD SLOAD DUP2 MSTORE POP POP JUMPDEST DUP4 DUP3 DUP2 SLOAD DUP2 LT PUSH2 0xCBE JUMPI PUSH2 0xCBE PUSH2 0x31E1 JUMP JUMPDEST SWAP1 PUSH0 MSTORE PUSH1 0x20 PUSH0 KECCAK256 SWAP1 PUSH1 0x5 MUL ADD PUSH0 DUP3 ADD MLOAD DUP2 PUSH0 ADD SSTORE PUSH1 0x20 DUP3 ADD MLOAD DUP2 PUSH1 0x1 ADD SWAP1 DUP2 PUSH2 0xCE7 SWAP2 SWAP1 PUSH2 0x331D JUMP JUMPDEST POP PUSH1 0x40 DUP3 ADD MLOAD DUP2 PUSH1 0x2 ADD SSTORE PUSH1 0x60 DUP3 ADD MLOAD DUP2 PUSH1 0x3 ADD SSTORE PUSH1 0x80 DUP3 ADD MLOAD DUP2 PUSH1 0x4 ADD SSTORE SWAP1 POP POP DUP3 DUP1 SLOAD DUP1 PUSH2 0xD19 JUMPI PUSH2 0xD19 PUSH2 0x33D7 JUMP JUMPDEST PUSH0 DUP3 DUP2 MSTORE PUSH1 0x20 DUP2 KECCAK256 PUSH1 0x5 PUSH0 NOT SWAP1 SWAP4 ADD SWAP3 DUP4 MUL ADD DUP2 DUP2 SSTORE SWAP1 PUSH2 0xD3D PUSH1 0x1 DUP4 ADD DUP3 PUSH2 0x28A4 JUMP JUMPDEST POP PUSH0 PUSH1 0x2 DUP3 ADD DUP2 SWAP1 SSTORE PUSH1 0x3 DUP3 ADD DUP2 SWAP1 SSTORE PUSH1 0x4 SWAP1 SWAP2 ADD SSTORE SWAP1 SSTORE PUSH1 0x40 DUP1 MLOAD DUP7 DUP2 MSTORE PUSH1 0x20 DUP2 ADD DUP7 SWAP1 MSTORE PUSH1 0x1 SWAP4 POP PUSH32 0x55CAA6A55ACB7E3464DC13C54D94739E0F01B9141276CAEBB64F3EF500CD8900 SWAP2 ADD PUSH1 0x40 MLOAD DUP1 SWAP2 SUB SWAP1 LOG1 PUSH2 0xD9F JUMP JUMPDEST PUSH1 0x1 ADD PUSH2 0xB4A JUMP JUMPDEST POP DUP1 PUSH2 0xDE9 JUMPI PUSH1 0x40 MLOAD PUSH3 0x461BCD PUSH1 0xE5 SHL DUP2 MSTORE PUSH1 0x20 PUSH1 0x4 DUP3 ADD MSTORE PUSH1 0x19 PUSH1 0x24 DUP3 ADD MSTORE PUSH25 0x119BDBD911195D185A5B08191BD95CC81B9BDD08195E1A5CDD PUSH1 0x3A SHL PUSH1 0x44 DUP3 ADD MSTORE PUSH1 0x64 ADD PUSH2 0x464 JUMP JUMPDEST POP POP POP POP JUMP JUMPDEST PUSH2 0xE1A PUSH1 0x40 MLOAD DUP1 PUSH1 0x40 ADD PUSH1 0x40 MSTORE DUP1 PUSH1 0x9 DUP2 MSTORE PUSH1 0x20 ADD PUSH9 0x3A3C1737B934B3B4B7 PUSH1 0xB9 SHL DUP2 MSTORE POP ORIGIN PUSH2 0x27E2 JUMP JUMPDEST PUSH1 0x1 SLOAD PUSH1 0x40 MLOAD PUSH4 0x935E01B PUSH1 0xE2 SHL DUP2 MSTORE ORIGIN PUSH1 0x4 DUP3 ADD MSTORE PUSH1 0x1 PUSH1 0x1 PUSH1 0xA0 SHL SUB SWAP1 SWAP2 AND SWAP1 PUSH4 0x24D7806C SWAP1 PUSH1 0x24 ADD PUSH1 0x20 PUSH1 0x40 MLOAD DUP1 DUP4 SUB DUP2 DUP7 GAS STATICCALL ISZERO DUP1 ISZERO PUSH2 0xE60 JUMPI RETURNDATASIZE PUSH0 PUSH0 RETURNDATACOPY RETURNDATASIZE PUSH0 REVERT JUMPDEST POP POP POP POP PUSH1 0x40 MLOAD RETURNDATASIZE PUSH1 0x1F NOT PUSH1 0x1F DUP3 ADD AND DUP3 ADD DUP1 PUSH1 0x40 MSTORE POP DUP2 ADD SWAP1 PUSH2 0xE84 SWAP2 SWAP1 PUSH2 0x321C JUMP JUMPDEST PUSH2 0xEA0 JUMPI PUSH1 0x40 MLOAD PUSH3 0x461BCD PUSH1 0xE5 SHL DUP2 MSTORE PUSH1 0x4 ADD PUSH2 0x464 SWAP1 PUSH2 0x3237 JUMP JUMPDEST PUSH0 DUP3 DUP2 MSTORE PUSH1 0x4 PUSH1 0x20 MSTORE PUSH1 0x40 DUP2 KECCAK256 SLOAD SWAP1 SUB PUSH2 0xECC JUMPI PUSH1 0x40 MLOAD PUSH3 0x461BCD PUSH1 0xE5 SHL DUP2 MSTORE PUSH1 0x4 ADD PUSH2 0x464 SWAP1 PUSH2 0x3262 JUMP JUMPDEST PUSH0 JUMPDEST DUP2 MLOAD DUP2 LT ISZERO PUSH2 0xFDB JUMPI PUSH1 0x3 DUP1 SLOAD SWAP1 PUSH0 PUSH2 0xEE6 DUP4 PUSH2 0x33EB JUMP JUMPDEST SWAP2 SWAP1 POP SSTORE POP PUSH0 PUSH1 0x40 MLOAD DUP1 PUSH1 0xA0 ADD PUSH1 0x40 MSTORE DUP1 PUSH1 0x3 SLOAD DUP2 MSTORE PUSH1 0x20 ADD DUP5 DUP5 DUP2 MLOAD DUP2 LT PUSH2 0xF11 JUMPI PUSH2 0xF11 PUSH2 0x31E1 JUMP JUMPDEST PUSH1 0x20 MUL PUSH1 0x20 ADD ADD MLOAD PUSH0 ADD MLOAD DUP2 MSTORE PUSH1 0x20 ADD PUSH0 DUP2 MSTORE PUSH1 0x20 ADD DUP5 DUP5 DUP2 MLOAD DUP2 LT PUSH2 0xF39 JUMPI PUSH2 0xF39 PUSH2 0x31E1 JUMP JUMPDEST PUSH1 0x20 MUL PUSH1 0x20 ADD ADD MLOAD PUSH1 0x20 ADD MLOAD DUP2 MSTORE PUSH1 0x20 ADD DUP5 DUP5 DUP2 MLOAD DUP2 LT PUSH2 0xF5C JUMPI PUSH2 0xF5C PUSH2 0x31E1 JUMP JUMPDEST PUSH1 0x20 SWAP1 DUP2 MUL SWAP2 SWAP1 SWAP2 ADD DUP2 ADD MLOAD PUSH1 0x40 SWAP1 DUP2 ADD MLOAD SWAP1 SWAP3 MSTORE PUSH0 DUP8 DUP2 MSTORE PUSH1 0x5 DUP1 DUP4 MSTORE SWAP3 DUP2 KECCAK256 DUP1 SLOAD PUSH1 0x1 DUP2 DUP2 ADD DUP4 SSTORE SWAP2 DUP4 MSTORE SWAP2 DUP4 SWAP1 KECCAK256 DUP6 MLOAD SWAP3 SWAP1 SWAP5 MUL SWAP1 SWAP4 ADD SWAP1 DUP2 SSTORE SWAP1 DUP4 ADD MLOAD SWAP3 SWAP4 POP DUP4 SWAP3 SWAP1 SWAP2 DUP3 ADD SWAP1 PUSH2 0xFB1 SWAP1 DUP3 PUSH2 0x331D JUMP JUMPDEST POP PUSH1 0x40 DUP3 ADD MLOAD PUSH1 0x2 DUP3 ADD SSTORE PUSH1 0x60 DUP3 ADD MLOAD PUSH1 0x3 DUP3 ADD SSTORE PUSH1 0x80 SWAP1 SWAP2 ADD MLOAD PUSH1 0x4 SWAP1 SWAP2 ADD SSTORE POP PUSH1 0x1 ADD PUSH2 0xECE JUMP JUMPDEST POP PUSH1 0x40 MLOAD DUP3 DUP2 MSTORE PUSH32 0x19A8E56286393226625DCDBC7CBB5A7611C71773D54C7E0680658CB9CEEF6C22 SWAP1 PUSH1 0x20 ADD PUSH2 0x4E9 JUMP JUMPDEST PUSH0 JUMPDEST PUSH0 DUP5 DUP2 MSTORE PUSH1 0x5 PUSH1 0x20 MSTORE PUSH1 0x40 SWAP1 KECCAK256 SLOAD DUP2 LT ISZERO PUSH2 0x1143 JUMPI PUSH0 DUP5 DUP2 MSTORE PUSH1 0x5 PUSH1 0x20 MSTORE PUSH1 0x40 SWAP1 KECCAK256 DUP1 SLOAD DUP5 SWAP2 SWAP1 DUP4 SWAP1 DUP2 LT PUSH2 0x1045 JUMPI PUSH2 0x1045 PUSH2 0x31E1 JUMP JUMPDEST SWAP1 PUSH0 MSTORE PUSH1 0x20 PUSH0 KECCAK256 SWAP1 PUSH1 0x5 MUL ADD PUSH0 ADD SLOAD SUB PUSH2 0x113B JUMPI PUSH0 DUP5 DUP2 MSTORE PUSH1 0x5 PUSH1 0x20 MSTORE PUSH1 0x40 SWAP1 KECCAK256 DUP1 SLOAD DUP4 SWAP2 SWAP1 DUP4 SWAP1 DUP2 LT PUSH2 0x107B JUMPI PUSH2 0x107B PUSH2 0x31E1 JUMP JUMPDEST SWAP1 PUSH0 MSTORE PUSH1 0x20 PUSH0 KECCAK256 SWAP1 PUSH1 0x5 MUL ADD PUSH1 0x2 ADD SLOAD LT ISZERO PUSH2 0x10F1 JUMPI PUSH1 0x40 MLOAD PUSH3 0x461BCD PUSH1 0xE5 SHL DUP2 MSTORE PUSH1 0x20 PUSH1 0x4 DUP3 ADD MSTORE PUSH1 0x2F PUSH1 0x24 DUP3 ADD MSTORE PUSH32 0x5175616E74697479277320666F6F642064657461696C2063616E6E6F74206265 PUSH1 0x44 DUP3 ADD MSTORE PUSH15 0x20736D616C6C6572207468616E203 PUSH1 0x8C SHL PUSH1 0x64 DUP3 ADD MSTORE PUSH1 0x84 ADD PUSH2 0x464 JUMP JUMPDEST PUSH0 DUP5 DUP2 MSTORE PUSH1 0x5 PUSH1 0x20 MSTORE PUSH1 0x40 SWAP1 KECCAK256 DUP1 SLOAD DUP4 SWAP2 SWAP1 DUP4 SWAP1 DUP2 LT PUSH2 0x1113 JUMPI PUSH2 0x1113 PUSH2 0x31E1 JUMP JUMPDEST SWAP1 PUSH0 MSTORE PUSH1 0x20 PUSH0 KECCAK256 SWAP1 PUSH1 0x5 MUL ADD PUSH1 0x2 ADD PUSH0 DUP3 DUP3 SLOAD PUSH2 0x1130 SWAP2 SWAP1 PUSH2 0x32C1 JUMP JUMPDEST SWAP1 SWAP2 SSTORE POP PUSH2 0x1143 SWAP1 POP JUMP JUMPDEST PUSH1 0x1 ADD PUSH2 0x100E JUMP JUMPDEST POP PUSH0 DUP4 DUP2 MSTORE PUSH1 0x4 PUSH1 0x20 MSTORE PUSH1 0x40 SWAP1 KECCAK256 PUSH1 0x5 ADD SLOAD DUP2 GT ISZERO PUSH2 0x1174 JUMPI PUSH1 0x40 MLOAD PUSH3 0x461BCD PUSH1 0xE5 SHL DUP2 MSTORE PUSH1 0x4 ADD PUSH2 0x464 SWAP1 PUSH2 0x3403 JUMP JUMPDEST PUSH0 DUP4 DUP2 MSTORE PUSH1 0x4 PUSH1 0x20 MSTORE PUSH1 0x40 DUP2 KECCAK256 PUSH1 0x5 ADD DUP1 SLOAD DUP4 SWAP3 SWAP1 PUSH2 0x3A9 SWAP1 DUP5 SWAP1 PUSH2 0x32C1 JUMP JUMPDEST PUSH2 0x11BF PUSH1 0x40 MLOAD DUP1 PUSH1 0x40 ADD PUSH1 0x40 MSTORE DUP1 PUSH1 0x9 DUP2 MSTORE PUSH1 0x20 ADD PUSH9 0x3A3C1737B934B3B4B7 PUSH1 0xB9 SHL DUP2 MSTORE POP ORIGIN PUSH2 0x27E2 JUMP JUMPDEST PUSH1 0x1 SLOAD PUSH1 0x40 MLOAD PUSH4 0x935E01B PUSH1 0xE2 SHL DUP2 MSTORE ORIGIN PUSH1 0x4 DUP3 ADD MSTORE PUSH1 0x1 PUSH1 0x1 PUSH1 0xA0 SHL SUB SWAP1 SWAP2 AND SWAP1 PUSH4 0x24D7806C SWAP1 PUSH1 0x24 ADD PUSH1 0x20 PUSH1 0x40 MLOAD DUP1 DUP4 SUB DUP2 DUP7 GAS STATICCALL ISZERO DUP1 ISZERO PUSH2 0x1205 JUMPI RETURNDATASIZE PUSH0 PUSH0 RETURNDATACOPY RETURNDATASIZE PUSH0 REVERT JUMPDEST POP POP POP POP PUSH1 0x40 MLOAD RETURNDATASIZE PUSH1 0x1F NOT PUSH1 0x1F DUP3 ADD AND DUP3 ADD DUP1 PUSH1 0x40 MSTORE POP DUP2 ADD SWAP1 PUSH2 0x1229 SWAP2 SWAP1 PUSH2 0x321C JUMP JUMPDEST PUSH2 0x1245 JUMPI PUSH1 0x40 MLOAD PUSH3 0x461BCD PUSH1 0xE5 SHL DUP2 MSTORE PUSH1 0x4 ADD PUSH2 0x464 SWAP1 PUSH2 0x3237 JUMP JUMPDEST PUSH0 DUP6 DUP2 MSTORE PUSH1 0x4 PUSH1 0x20 MSTORE PUSH1 0x40 DUP2 KECCAK256 SLOAD SWAP1 SUB PUSH2 0x1271 JUMPI PUSH1 0x40 MLOAD PUSH3 0x461BCD PUSH1 0xE5 SHL DUP2 MSTORE PUSH1 0x4 ADD PUSH2 0x464 SWAP1 PUSH2 0x3262 JUMP JUMPDEST PUSH0 SLOAD PUSH1 0x40 MLOAD PUSH4 0x79829693 PUSH1 0xE1 SHL DUP2 MSTORE PUSH1 0x4 DUP2 ADD DUP5 SWAP1 MSTORE PUSH1 0x1 PUSH1 0x1 PUSH1 0xA0 SHL SUB SWAP1 SWAP2 AND SWAP1 PUSH4 0xF3052D26 SWAP1 PUSH1 0x24 ADD PUSH0 PUSH1 0x40 MLOAD DUP1 DUP4 SUB DUP2 DUP7 GAS STATICCALL ISZERO DUP1 ISZERO PUSH2 0x12B6 JUMPI RETURNDATASIZE PUSH0 PUSH0 RETURNDATACOPY RETURNDATASIZE PUSH0 REVERT JUMPDEST POP POP POP POP PUSH1 0x40 MLOAD RETURNDATASIZE PUSH0 DUP3 RETURNDATACOPY PUSH1 0x1F RETURNDATASIZE SWAP1 DUP2 ADD PUSH1 0x1F NOT AND DUP3 ADD PUSH1 0x40 MSTORE PUSH2 0x12DD SWAP2 SWAP1 DUP2 ADD SWAP1 PUSH2 0x344B JUMP JUMPDEST MLOAD PUSH0 SUB PUSH2 0x1326 JUMPI PUSH1 0x40 MLOAD PUSH3 0x461BCD PUSH1 0xE5 SHL DUP2 MSTORE PUSH1 0x20 PUSH1 0x4 DUP3 ADD MSTORE PUSH1 0x17 PUSH1 0x24 DUP3 ADD MSTORE PUSH23 0x10D85D1959DBDC9E48191BD95CC81B9BDD08195E1A5CDD PUSH1 0x4A SHL PUSH1 0x44 DUP3 ADD MSTORE PUSH1 0x64 ADD PUSH2 0x464 JUMP JUMPDEST PUSH0 DUP6 DUP2 MSTORE PUSH1 0x4 PUSH1 0x20 MSTORE PUSH1 0x40 SWAP1 KECCAK256 PUSH1 0x1 ADD PUSH2 0x1340 DUP6 DUP3 PUSH2 0x331D JUMP JUMPDEST POP PUSH0 DUP6 DUP2 MSTORE PUSH1 0x4 PUSH1 0x20 MSTORE PUSH1 0x40 SWAP1 KECCAK256 PUSH1 0x2 ADD PUSH2 0x135B DUP5 DUP3 PUSH2 0x331D JUMP JUMPDEST POP PUSH0 DUP6 DUP2 MSTORE PUSH1 0x4 PUSH1 0x20 DUP2 DUP2 MSTORE PUSH1 0x40 SWAP1 SWAP3 KECCAK256 PUSH1 0x3 DUP2 ADD DUP6 SWAP1 SSTORE DUP4 MLOAD PUSH2 0x1387 SWAP4 SWAP2 SWAP1 SWAP3 ADD SWAP2 SWAP1 DUP5 ADD SWAP1 PUSH2 0x28DB JUMP JUMPDEST POP PUSH32 0x4F49710E0E59EA2E7096D7BAD0267390D8BB5C007687F72B0DE2DB3AFDADD5E5 DUP6 DUP6 DUP6 DUP6 DUP6 PUSH1 0x40 MLOAD PUSH2 0x13BF SWAP6 SWAP5 SWAP4 SWAP3 SWAP2 SWAP1 PUSH2 0x34FA JUMP JUMPDEST PUSH1 0x40 MLOAD DUP1 SWAP2 SUB SWAP1 LOG1 POP POP POP POP POP JUMP JUMPDEST PUSH0 JUMPDEST PUSH0 DUP5 DUP2 MSTORE PUSH1 0x5 PUSH1 0x20 MSTORE PUSH1 0x40 SWAP1 KECCAK256 SLOAD DUP2 LT ISZERO PUSH2 0x14BA JUMPI PUSH0 DUP5 DUP2 MSTORE PUSH1 0x5 PUSH1 0x20 MSTORE PUSH1 0x40 SWAP1 KECCAK256 DUP1 SLOAD DUP5 SWAP2 SWAP1 DUP4 SWAP1 DUP2 LT PUSH2 0x1407 JUMPI PUSH2 0x1407 PUSH2 0x31E1 JUMP JUMPDEST SWAP1 PUSH0 MSTORE PUSH1 0x20 PUSH0 KECCAK256 SWAP1 PUSH1 0x5 MUL ADD PUSH0 ADD SLOAD SUB PUSH2 0x14B2 JUMPI PUSH0 DUP5 DUP2 MSTORE PUSH1 0x5 PUSH1 0x20 MSTORE PUSH1 0x40 SWAP1 KECCAK256 DUP1 SLOAD DUP3 SWAP1 DUP2 LT PUSH2 0x143A JUMPI PUSH2 0x143A PUSH2 0x31E1 JUMP JUMPDEST SWAP1 PUSH0 MSTORE PUSH1 0x20 PUSH0 KECCAK256 SWAP1 PUSH1 0x5 MUL ADD PUSH1 0x3 ADD SLOAD DUP3 LT PUSH2 0x1468 JUMPI PUSH1 0x40 MLOAD PUSH3 0x461BCD PUSH1 0xE5 SHL DUP2 MSTORE PUSH1 0x4 ADD PUSH2 0x464 SWAP1 PUSH2 0x3403 JUMP JUMPDEST PUSH0 DUP5 DUP2 MSTORE PUSH1 0x5 PUSH1 0x20 MSTORE PUSH1 0x40 SWAP1 KECCAK256 DUP1 SLOAD DUP4 SWAP2 SWAP1 DUP4 SWAP1 DUP2 LT PUSH2 0x148A JUMPI PUSH2 0x148A PUSH2 0x31E1 JUMP JUMPDEST SWAP1 PUSH0 MSTORE PUSH1 0x20 PUSH0 KECCAK256 SWAP1 PUSH1 0x5 MUL ADD PUSH1 0x3 ADD PUSH0 DUP3 DUP3 SLOAD PUSH2 0x14A7 SWAP2 SWAP1 PUSH2 0x32C1 JUMP JUMPDEST SWAP1 SWAP2 SSTORE POP PUSH2 0x14BA SWAP1 POP JUMP JUMPDEST PUSH1 0x1 ADD PUSH2 0x13D0 JUMP JUMPDEST POP PUSH0 DUP4 DUP2 MSTORE PUSH1 0x4 PUSH1 0x20 MSTORE PUSH1 0x40 SWAP1 KECCAK256 PUSH1 0x6 ADD SLOAD DUP2 GT ISZERO PUSH2 0x14EB JUMPI PUSH1 0x40 MLOAD PUSH3 0x461BCD PUSH1 0xE5 SHL DUP2 MSTORE PUSH1 0x4 ADD PUSH2 0x464 SWAP1 PUSH2 0x3403 JUMP JUMPDEST PUSH0 DUP4 DUP2 MSTORE PUSH1 0x4 PUSH1 0x20 MSTORE PUSH1 0x40 DUP2 KECCAK256 PUSH1 0x6 ADD DUP1 SLOAD DUP4 SWAP3 SWAP1 PUSH2 0x3A9 SWAP1 DUP5 SWAP1 PUSH2 0x32C1 JUMP JUMPDEST PUSH1 0x6 SLOAD PUSH1 0x60 SWAP1 PUSH0 DUP2 PUSH1 0x1 PUSH1 0x1 PUSH1 0x40 SHL SUB DUP2 GT ISZERO PUSH2 0x152A JUMPI PUSH2 0x152A PUSH2 0x2C2B JUMP JUMPDEST PUSH1 0x40 MLOAD SWAP1 DUP1 DUP3 MSTORE DUP1 PUSH1 0x20 MUL PUSH1 0x20 ADD DUP3 ADD PUSH1 0x40 MSTORE DUP1 ISZERO PUSH2 0x1563 JUMPI DUP2 PUSH1 0x20 ADD JUMPDEST PUSH2 0x1550 PUSH2 0x2856 JUMP JUMPDEST DUP2 MSTORE PUSH1 0x20 ADD SWAP1 PUSH1 0x1 SWAP1 SUB SWAP1 DUP2 PUSH2 0x1548 JUMPI SWAP1 POP JUMPDEST POP SWAP1 POP PUSH0 JUMPDEST DUP3 DUP2 LT ISZERO PUSH2 0x180E JUMPI PUSH1 0x4 PUSH0 PUSH1 0x6 DUP4 DUP2 SLOAD DUP2 LT PUSH2 0x1586 JUMPI PUSH2 0x1586 PUSH2 0x31E1 JUMP JUMPDEST SWAP1 PUSH0 MSTORE PUSH1 0x20 PUSH0 KECCAK256 ADD SLOAD DUP2 MSTORE PUSH1 0x20 ADD SWAP1 DUP2 MSTORE PUSH1 0x20 ADD PUSH0 KECCAK256 PUSH1 0x40 MLOAD DUP1 PUSH2 0x140 ADD PUSH1 0x40 MSTORE SWAP1 DUP2 PUSH0 DUP3 ADD SLOAD DUP2 MSTORE PUSH1 0x20 ADD PUSH1 0x1 DUP3 ADD DUP1 SLOAD PUSH2 0x15C1 SWAP1 PUSH2 0x328F JUMP JUMPDEST DUP1 PUSH1 0x1F ADD PUSH1 0x20 DUP1 SWAP2 DIV MUL PUSH1 0x20 ADD PUSH1 0x40 MLOAD SWAP1 DUP2 ADD PUSH1 0x40 MSTORE DUP1 SWAP3 SWAP2 SWAP1 DUP2 DUP2 MSTORE PUSH1 0x20 ADD DUP3 DUP1 SLOAD PUSH2 0x15ED SWAP1 PUSH2 0x328F JUMP JUMPDEST DUP1 ISZERO PUSH2 0x1638 JUMPI DUP1 PUSH1 0x1F LT PUSH2 0x160F JUMPI PUSH2 0x100 DUP1 DUP4 SLOAD DIV MUL DUP4 MSTORE SWAP2 PUSH1 0x20 ADD SWAP2 PUSH2 0x1638 JUMP JUMPDEST DUP3 ADD SWAP2 SWAP1 PUSH0 MSTORE PUSH1 0x20 PUSH0 KECCAK256 SWAP1 JUMPDEST DUP2 SLOAD DUP2 MSTORE SWAP1 PUSH1 0x1 ADD SWAP1 PUSH1 0x20 ADD DUP1 DUP4 GT PUSH2 0x161B JUMPI DUP3 SWAP1 SUB PUSH1 0x1F AND DUP3 ADD SWAP2 JUMPDEST POP POP POP POP POP DUP2 MSTORE PUSH1 0x20 ADD PUSH1 0x2 DUP3 ADD DUP1 SLOAD PUSH2 0x1651 SWAP1 PUSH2 0x328F JUMP JUMPDEST DUP1 PUSH1 0x1F ADD PUSH1 0x20 DUP1 SWAP2 DIV MUL PUSH1 0x20 ADD PUSH1 0x40 MLOAD SWAP1 DUP2 ADD PUSH1 0x40 MSTORE DUP1 SWAP3 SWAP2 SWAP1 DUP2 DUP2 MSTORE PUSH1 0x20 ADD DUP3 DUP1 SLOAD PUSH2 0x167D SWAP1 PUSH2 0x328F JUMP JUMPDEST DUP1 ISZERO PUSH2 0x16C8 JUMPI DUP1 PUSH1 0x1F LT PUSH2 0x169F JUMPI PUSH2 0x100 DUP1 DUP4 SLOAD DIV MUL DUP4 MSTORE SWAP2 PUSH1 0x20 ADD SWAP2 PUSH2 0x16C8 JUMP JUMPDEST DUP3 ADD SWAP2 SWAP1 PUSH0 MSTORE PUSH1 0x20 PUSH0 KECCAK256 SWAP1 JUMPDEST DUP2 SLOAD DUP2 MSTORE SWAP1 PUSH1 0x1 ADD SWAP1 PUSH1 0x20 ADD DUP1 DUP4 GT PUSH2 0x16AB JUMPI DUP3 SWAP1 SUB PUSH1 0x1F AND DUP3 ADD SWAP2 JUMPDEST POP POP POP POP POP DUP2 MSTORE PUSH1 0x20 ADD PUSH1 0x3 DUP3 ADD SLOAD DUP2 MSTORE PUSH1 0x20 ADD PUSH1 0x4 DUP3 ADD DUP1 SLOAD DUP1 PUSH1 0x20 MUL PUSH1 0x20 ADD PUSH1 0x40 MLOAD SWAP1 DUP2 ADD PUSH1 0x40 MSTORE DUP1 SWAP3 SWAP2 SWAP1 DUP2 DUP2 MSTORE PUSH1 0x20 ADD PUSH0 SWAP1 JUMPDEST DUP3 DUP3 LT ISZERO PUSH2 0x17A7 JUMPI DUP4 DUP3 SWAP1 PUSH0 MSTORE PUSH1 0x20 PUSH0 KECCAK256 ADD DUP1 SLOAD PUSH2 0x171C SWAP1 PUSH2 0x328F JUMP JUMPDEST DUP1 PUSH1 0x1F ADD PUSH1 0x20 DUP1 SWAP2 DIV MUL PUSH1 0x20 ADD PUSH1 0x40 MLOAD SWAP1 DUP2 ADD PUSH1 0x40 MSTORE DUP1 SWAP3 SWAP2 SWAP1 DUP2 DUP2 MSTORE PUSH1 0x20 ADD DUP3 DUP1 SLOAD PUSH2 0x1748 SWAP1 PUSH2 0x328F JUMP JUMPDEST DUP1 ISZERO PUSH2 0x1793 JUMPI DUP1 PUSH1 0x1F LT PUSH2 0x176A JUMPI PUSH2 0x100 DUP1 DUP4 SLOAD DIV MUL DUP4 MSTORE SWAP2 PUSH1 0x20 ADD SWAP2 PUSH2 0x1793 JUMP JUMPDEST DUP3 ADD SWAP2 SWAP1 PUSH0 MSTORE PUSH1 0x20 PUSH0 KECCAK256 SWAP1 JUMPDEST DUP2 SLOAD DUP2 MSTORE SWAP1 PUSH1 0x1 ADD SWAP1 PUSH1 0x20 ADD DUP1 DUP4 GT PUSH2 0x1776 JUMPI DUP3 SWAP1 SUB PUSH1 0x1F AND DUP3 ADD SWAP2 JUMPDEST POP POP POP POP POP DUP2 MSTORE PUSH1 0x20 ADD SWAP1 PUSH1 0x1 ADD SWAP1 PUSH2 0x16FF JUMP JUMPDEST POP POP POP SWAP1 DUP3 MSTORE POP PUSH1 0x5 DUP3 ADD SLOAD PUSH1 0x20 DUP3 ADD MSTORE PUSH1 0x6 DUP3 ADD SLOAD PUSH1 0x40 DUP3 ADD MSTORE PUSH1 0x7 DUP3 ADD SLOAD PUSH1 0x60 DUP3 ADD MSTORE PUSH1 0x8 DUP3 ADD SLOAD PUSH1 0x80 DUP3 ADD MSTORE PUSH1 0x9 SWAP1 SWAP2 ADD SLOAD PUSH1 0xFF AND ISZERO ISZERO PUSH1 0xA0 SWAP1 SWAP2 ADD MSTORE DUP3 MLOAD DUP4 SWAP1 DUP4 SWAP1 DUP2 LT PUSH2 0x17FB JUMPI PUSH2 0x17FB PUSH2 0x31E1 JUMP JUMPDEST PUSH1 0x20 SWAP1 DUP2 MUL SWAP2 SWAP1 SWAP2 ADD ADD MSTORE PUSH1 0x1 ADD PUSH2 0x1568 JUMP JUMPDEST POP PUSH0 JUMPDEST PUSH2 0x181C PUSH1 0x1 DUP5 PUSH2 0x32C1 JUMP JUMPDEST DUP2 LT ISZERO PUSH2 0x1929 JUMPI PUSH0 JUMPDEST PUSH1 0x1 PUSH2 0x1831 DUP4 DUP7 PUSH2 0x32C1 JUMP JUMPDEST PUSH2 0x183B SWAP2 SWAP1 PUSH2 0x32C1 JUMP JUMPDEST DUP2 LT ISZERO PUSH2 0x1920 JUMPI DUP3 PUSH2 0x184E DUP3 PUSH1 0x1 PUSH2 0x3209 JUMP JUMPDEST DUP2 MLOAD DUP2 LT PUSH2 0x185E JUMPI PUSH2 0x185E PUSH2 0x31E1 JUMP JUMPDEST PUSH1 0x20 MUL PUSH1 0x20 ADD ADD MLOAD PUSH1 0xA0 ADD MLOAD DUP4 DUP3 DUP2 MLOAD DUP2 LT PUSH2 0x187C JUMPI PUSH2 0x187C PUSH2 0x31E1 JUMP JUMPDEST PUSH1 0x20 MUL PUSH1 0x20 ADD ADD MLOAD PUSH1 0xA0 ADD MLOAD LT ISZERO PUSH2 0x1918 JUMPI PUSH0 DUP4 DUP3 DUP2 MLOAD DUP2 LT PUSH2 0x18A1 JUMPI PUSH2 0x18A1 PUSH2 0x31E1 JUMP JUMPDEST PUSH1 0x20 MUL PUSH1 0x20 ADD ADD MLOAD SWAP1 POP DUP4 DUP3 PUSH1 0x1 PUSH2 0x18B9 SWAP2 SWAP1 PUSH2 0x3209 JUMP JUMPDEST DUP2 MLOAD DUP2 LT PUSH2 0x18C9 JUMPI PUSH2 0x18C9 PUSH2 0x31E1 JUMP JUMPDEST PUSH1 0x20 MUL PUSH1 0x20 ADD ADD MLOAD DUP5 DUP4 DUP2 MLOAD DUP2 LT PUSH2 0x18E3 JUMPI PUSH2 0x18E3 PUSH2 0x31E1 JUMP JUMPDEST PUSH1 0x20 SWAP1 DUP2 MUL SWAP2 SWAP1 SWAP2 ADD ADD MSTORE DUP1 DUP5 PUSH2 0x18FB DUP5 PUSH1 0x1 PUSH2 0x3209 JUMP JUMPDEST DUP2 MLOAD DUP2 LT PUSH2 0x190B JUMPI PUSH2 0x190B PUSH2 0x31E1 JUMP JUMPDEST PUSH1 0x20 MUL PUSH1 0x20 ADD ADD DUP2 SWAP1 MSTORE POP POP JUMPDEST PUSH1 0x1 ADD PUSH2 0x1825 JUMP JUMPDEST POP PUSH1 0x1 ADD PUSH2 0x1811 JUMP JUMPDEST POP SWAP3 SWAP2 POP POP JUMP JUMPDEST PUSH0 DUP2 DUP2 MSTORE PUSH1 0x4 PUSH1 0x20 MSTORE PUSH1 0x40 DUP2 KECCAK256 SLOAD PUSH1 0x60 SWAP2 SUB PUSH2 0x195E JUMPI PUSH1 0x40 MLOAD PUSH3 0x461BCD PUSH1 0xE5 SHL DUP2 MSTORE PUSH1 0x4 ADD PUSH2 0x464 SWAP1 PUSH2 0x3262 JUMP JUMPDEST PUSH0 DUP3 DUP2 MSTORE PUSH1 0x5 PUSH1 0x20 SWAP1 DUP2 MSTORE PUSH1 0x40 DUP1 DUP4 KECCAK256 DUP1 SLOAD DUP3 MLOAD DUP2 DUP6 MUL DUP2 ADD DUP6 ADD SWAP1 SWAP4 MSTORE DUP1 DUP4 MSTORE SWAP2 SWAP4 SWAP1 SWAP3 DUP5 ADD JUMPDEST DUP3 DUP3 LT ISZERO PUSH2 0x1A6D JUMPI DUP4 DUP3 SWAP1 PUSH0 MSTORE PUSH1 0x20 PUSH0 KECCAK256 SWAP1 PUSH1 0x5 MUL ADD PUSH1 0x40 MLOAD DUP1 PUSH1 0xA0 ADD PUSH1 0x40 MSTORE SWAP1 DUP2 PUSH0 DUP3 ADD SLOAD DUP2 MSTORE PUSH1 0x20 ADD PUSH1 0x1 DUP3 ADD DUP1 SLOAD PUSH2 0x19C0 SWAP1 PUSH2 0x328F JUMP JUMPDEST DUP1 PUSH1 0x1F ADD PUSH1 0x20 DUP1 SWAP2 DIV MUL PUSH1 0x20 ADD PUSH1 0x40 MLOAD SWAP1 DUP2 ADD PUSH1 0x40 MSTORE DUP1 SWAP3 SWAP2 SWAP1 DUP2 DUP2 MSTORE PUSH1 0x20 ADD DUP3 DUP1 SLOAD PUSH2 0x19EC SWAP1 PUSH2 0x328F JUMP JUMPDEST DUP1 ISZERO PUSH2 0x1A37 JUMPI DUP1 PUSH1 0x1F LT PUSH2 0x1A0E JUMPI PUSH2 0x100 DUP1 DUP4 SLOAD DIV MUL DUP4 MSTORE SWAP2 PUSH1 0x20 ADD SWAP2 PUSH2 0x1A37 JUMP JUMPDEST DUP3 ADD SWAP2 SWAP1 PUSH0 MSTORE PUSH1 0x20 PUSH0 KECCAK256 SWAP1 JUMPDEST DUP2 SLOAD DUP2 MSTORE SWAP1 PUSH1 0x1 ADD SWAP1 PUSH1 0x20 ADD DUP1 DUP4 GT PUSH2 0x1A1A JUMPI DUP3 SWAP1 SUB PUSH1 0x1F AND DUP3 ADD SWAP2 JUMPDEST POP POP POP POP POP DUP2 MSTORE PUSH1 0x20 ADD PUSH1 0x2 DUP3 ADD SLOAD DUP2 MSTORE PUSH1 0x20 ADD PUSH1 0x3 DUP3 ADD SLOAD DUP2 MSTORE PUSH1 0x20 ADD PUSH1 0x4 DUP3 ADD SLOAD DUP2 MSTORE POP POP DUP2 MSTORE PUSH1 0x20 ADD SWAP1 PUSH1 0x1 ADD SWAP1 PUSH2 0x1986 JUMP JUMPDEST POP POP POP POP SWAP1 POP SWAP2 SWAP1 POP JUMP JUMPDEST PUSH2 0x1AA3 PUSH1 0x40 MLOAD DUP1 PUSH1 0x40 ADD PUSH1 0x40 MSTORE DUP1 PUSH1 0x9 DUP2 MSTORE PUSH1 0x20 ADD PUSH9 0x3A3C1737B934B3B4B7 PUSH1 0xB9 SHL DUP2 MSTORE POP ORIGIN PUSH2 0x27E2 JUMP JUMPDEST PUSH1 0x1 SLOAD PUSH1 0x40 MLOAD PUSH4 0x935E01B PUSH1 0xE2 SHL DUP2 MSTORE ORIGIN PUSH1 0x4 DUP3 ADD MSTORE PUSH1 0x1 PUSH1 0x1 PUSH1 0xA0 SHL SUB SWAP1 SWAP2 AND SWAP1 PUSH4 0x24D7806C SWAP1 PUSH1 0x24 ADD PUSH1 0x20 PUSH1 0x40 MLOAD DUP1 DUP4 SUB DUP2 DUP7 GAS STATICCALL ISZERO DUP1 ISZERO PUSH2 0x1AE9 JUMPI RETURNDATASIZE PUSH0 PUSH0 RETURNDATACOPY RETURNDATASIZE PUSH0 REVERT JUMPDEST POP POP POP POP PUSH1 0x40 MLOAD RETURNDATASIZE PUSH1 0x1F NOT PUSH1 0x1F DUP3 ADD AND DUP3 ADD DUP1 PUSH1 0x40 MSTORE POP DUP2 ADD SWAP1 PUSH2 0x1B0D SWAP2 SWAP1 PUSH2 0x321C JUMP JUMPDEST PUSH2 0x1B29 JUMPI PUSH1 0x40 MLOAD PUSH3 0x461BCD PUSH1 0xE5 SHL DUP2 MSTORE PUSH1 0x4 ADD PUSH2 0x464 SWAP1 PUSH2 0x3237 JUMP JUMPDEST PUSH0 DUP7 DUP2 MSTORE PUSH1 0x4 PUSH1 0x20 MSTORE PUSH1 0x40 SWAP1 KECCAK256 SLOAD ISZERO PUSH2 0x1B84 JUMPI PUSH1 0x40 MLOAD PUSH3 0x461BCD PUSH1 0xE5 SHL DUP2 MSTORE PUSH1 0x20 PUSH1 0x4 DUP3 ADD DUP2 SWAP1 MSTORE PUSH1 0x24 DUP3 ADD MSTORE PUSH32 0x466F6F642077697468207468697320494420616C726561647920657869737473 PUSH1 0x44 DUP3 ADD MSTORE PUSH1 0x64 ADD PUSH2 0x464 JUMP JUMPDEST PUSH0 SLOAD PUSH1 0x40 MLOAD PUSH4 0x79829693 PUSH1 0xE1 SHL DUP2 MSTORE PUSH1 0x4 DUP2 ADD DUP6 SWAP1 MSTORE PUSH1 0x1 PUSH1 0x1 PUSH1 0xA0 SHL SUB SWAP1 SWAP2 AND SWAP1 PUSH4 0xF3052D26 SWAP1 PUSH1 0x24 ADD PUSH0 PUSH1 0x40 MLOAD DUP1 DUP4 SUB DUP2 DUP7 GAS STATICCALL ISZERO DUP1 ISZERO PUSH2 0x1BC9 JUMPI RETURNDATASIZE PUSH0 PUSH0 RETURNDATACOPY RETURNDATASIZE PUSH0 REVERT JUMPDEST POP POP POP POP PUSH1 0x40 MLOAD RETURNDATASIZE PUSH0 DUP3 RETURNDATACOPY PUSH1 0x1F RETURNDATASIZE SWAP1 DUP2 ADD PUSH1 0x1F NOT AND DUP3 ADD PUSH1 0x40 MSTORE PUSH2 0x1BF0 SWAP2 SWAP1 DUP2 ADD SWAP1 PUSH2 0x344B JUMP JUMPDEST MLOAD PUSH0 SUB PUSH2 0x1C39 JUMPI PUSH1 0x40 MLOAD PUSH3 0x461BCD PUSH1 0xE5 SHL DUP2 MSTORE PUSH1 0x20 PUSH1 0x4 DUP3 ADD MSTORE PUSH1 0x17 PUSH1 0x24 DUP3 ADD MSTORE PUSH23 0x10D85D1959DBDC9E48191BD95CC81B9BDD08195E1A5CDD PUSH1 0x4A SHL PUSH1 0x44 DUP3 ADD MSTORE PUSH1 0x64 ADD PUSH2 0x464 JUMP JUMPDEST PUSH1 0x40 DUP1 MLOAD PUSH2 0x140 DUP2 ADD DUP3 MSTORE DUP8 DUP2 MSTORE PUSH1 0x20 DUP1 DUP3 ADD DUP9 DUP2 MSTORE DUP3 DUP5 ADD DUP9 SWAP1 MSTORE PUSH1 0x60 DUP4 ADD DUP8 SWAP1 MSTORE PUSH1 0x80 DUP4 ADD DUP7 SWAP1 MSTORE PUSH0 PUSH1 0xA0 DUP5 ADD DUP2 SWAP1 MSTORE PUSH1 0xC0 DUP5 ADD DUP2 SWAP1 MSTORE PUSH1 0xE0 DUP5 ADD DUP2 SWAP1 MSTORE PUSH2 0x100 DUP5 ADD DUP2 SWAP1 MSTORE PUSH2 0x120 DUP5 ADD DUP2 SWAP1 MSTORE DUP11 DUP2 MSTORE PUSH1 0x4 SWAP1 SWAP3 MSTORE SWAP3 SWAP1 KECCAK256 DUP2 MLOAD DUP2 SSTORE SWAP2 MLOAD SWAP1 SWAP2 DUP3 SWAP2 PUSH1 0x1 DUP3 ADD SWAP1 PUSH2 0x1CAD SWAP1 DUP3 PUSH2 0x331D JUMP JUMPDEST POP PUSH1 0x40 DUP3 ADD MLOAD PUSH1 0x2 DUP3 ADD SWAP1 PUSH2 0x1CC2 SWAP1 DUP3 PUSH2 0x331D JUMP JUMPDEST POP PUSH1 0x60 DUP3 ADD MLOAD PUSH1 0x3 DUP3 ADD SSTORE PUSH1 0x80 DUP3 ADD MLOAD DUP1 MLOAD PUSH2 0x1CE8 SWAP2 PUSH1 0x4 DUP5 ADD SWAP2 PUSH1 0x20 SWAP1 SWAP2 ADD SWAP1 PUSH2 0x28DB JUMP JUMPDEST POP PUSH1 0xA0 DUP3 ADD MLOAD PUSH1 0x5 DUP3 ADD SSTORE PUSH1 0xC0 DUP3 ADD MLOAD PUSH1 0x6 DUP1 DUP4 ADD SWAP2 SWAP1 SWAP2 SSTORE PUSH1 0xE0 DUP4 ADD MLOAD PUSH1 0x7 DUP4 ADD SSTORE PUSH2 0x100 DUP4 ADD MLOAD PUSH1 0x8 DUP4 ADD SSTORE PUSH2 0x120 SWAP1 SWAP3 ADD MLOAD PUSH1 0x9 SWAP1 SWAP2 ADD DUP1 SLOAD PUSH1 0xFF NOT AND SWAP2 ISZERO ISZERO SWAP2 SWAP1 SWAP2 OR SWAP1 SSTORE DUP1 SLOAD PUSH1 0x1 DUP2 ADD DUP3 SSTORE PUSH0 SWAP2 DUP3 MSTORE PUSH32 0xF652222313E28459528D920B65115C16C04F3EFC82AAEDC97BE59F3F377C0D3F ADD DUP9 SWAP1 SSTORE SLOAD PUSH1 0x40 MLOAD PUSH4 0x17E01A73 PUSH1 0xE2 SHL DUP2 MSTORE PUSH1 0x4 DUP2 ADD DUP7 SWAP1 MSTORE PUSH1 0x24 DUP2 ADD DUP10 SWAP1 MSTORE PUSH1 0x1 PUSH1 0x1 PUSH1 0xA0 SHL SUB SWAP1 SWAP2 AND SWAP1 PUSH4 0x5F8069CC SWAP1 PUSH1 0x44 ADD PUSH0 PUSH1 0x40 MLOAD DUP1 DUP4 SUB DUP2 PUSH0 DUP8 DUP1 EXTCODESIZE ISZERO DUP1 ISZERO PUSH2 0x1DAA JUMPI PUSH0 PUSH0 REVERT JUMPDEST POP GAS CALL ISZERO DUP1 ISZERO PUSH2 0x1DBC JUMPI RETURNDATASIZE PUSH0 PUSH0 RETURNDATACOPY RETURNDATASIZE PUSH0 REVERT JUMPDEST POP PUSH0 SWAP3 POP POP POP JUMPDEST DUP3 MLOAD DUP2 LT ISZERO PUSH2 0x1ECF JUMPI PUSH0 PUSH1 0x40 MLOAD DUP1 PUSH1 0xA0 ADD PUSH1 0x40 MSTORE DUP1 PUSH1 0x3 PUSH0 DUP2 SLOAD DUP1 SWAP3 SWAP2 SWAP1 PUSH2 0x1DEA SWAP1 PUSH2 0x33EB JUMP JUMPDEST SWAP2 SWAP1 POP SSTORE DUP2 MSTORE PUSH1 0x20 ADD DUP6 DUP5 DUP2 MLOAD DUP2 LT PUSH2 0x1E05 JUMPI PUSH2 0x1E05 PUSH2 0x31E1 JUMP JUMPDEST PUSH1 0x20 MUL PUSH1 0x20 ADD ADD MLOAD PUSH0 ADD MLOAD DUP2 MSTORE PUSH1 0x20 ADD PUSH0 DUP2 MSTORE PUSH1 0x20 ADD DUP6 DUP5 DUP2 MLOAD DUP2 LT PUSH2 0x1E2D JUMPI PUSH2 0x1E2D PUSH2 0x31E1 JUMP JUMPDEST PUSH1 0x20 MUL PUSH1 0x20 ADD ADD MLOAD PUSH1 0x20 ADD MLOAD DUP2 MSTORE PUSH1 0x20 ADD DUP6 DUP5 DUP2 MLOAD DUP2 LT PUSH2 0x1E50 JUMPI PUSH2 0x1E50 PUSH2 0x31E1 JUMP JUMPDEST PUSH1 0x20 SWAP1 DUP2 MUL SWAP2 SWAP1 SWAP2 ADD DUP2 ADD MLOAD PUSH1 0x40 SWAP1 DUP2 ADD MLOAD SWAP1 SWAP3 MSTORE PUSH0 DUP13 DUP2 MSTORE PUSH1 0x5 DUP1 DUP4 MSTORE SWAP3 DUP2 KECCAK256 DUP1 SLOAD PUSH1 0x1 DUP2 DUP2 ADD DUP4 SSTORE SWAP2 DUP4 MSTORE SWAP2 DUP4 SWAP1 KECCAK256 DUP6 MLOAD SWAP3 SWAP1 SWAP5 MUL SWAP1 SWAP4 ADD SWAP1 DUP2 SSTORE SWAP1 DUP4 ADD MLOAD SWAP3 SWAP4 POP DUP4 SWAP3 SWAP1 SWAP2 DUP3 ADD SWAP1 PUSH2 0x1EA5 SWAP1 DUP3 PUSH2 0x331D JUMP JUMPDEST POP PUSH1 0x40 DUP3 ADD MLOAD PUSH1 0x2 DUP3 ADD SSTORE PUSH1 0x60 DUP3 ADD MLOAD PUSH1 0x3 DUP3 ADD SSTORE PUSH1 0x80 SWAP1 SWAP2 ADD MLOAD PUSH1 0x4 SWAP1 SWAP2 ADD SSTORE POP PUSH1 0x1 ADD PUSH2 0x1DC3 JUMP JUMPDEST POP PUSH32 0xBDF2814016D06BF27F22AA349FADE26A888A8F7EAC3E0963916B1C64CC37A5CE DUP8 DUP8 DUP8 DUP8 DUP8 PUSH1 0x40 MLOAD PUSH2 0x1F07 SWAP6 SWAP5 SWAP4 SWAP3 SWAP2 SWAP1 PUSH2 0x34FA JUMP JUMPDEST PUSH1 0x40 MLOAD DUP1 SWAP2 SUB SWAP1 LOG1 POP POP POP POP POP POP POP JUMP JUMPDEST PUSH1 0x6 SLOAD PUSH1 0x60 SWAP1 PUSH0 SWAP1 PUSH1 0x1 PUSH1 0x1 PUSH1 0x40 SHL SUB DUP2 GT ISZERO PUSH2 0x1F37 JUMPI PUSH2 0x1F37 PUSH2 0x2C2B JUMP JUMPDEST PUSH1 0x40 MLOAD SWAP1 DUP1 DUP3 MSTORE DUP1 PUSH1 0x20 MUL PUSH1 0x20 ADD DUP3 ADD PUSH1 0x40 MSTORE DUP1 ISZERO PUSH2 0x1F70 JUMPI DUP2 PUSH1 0x20 ADD JUMPDEST PUSH2 0x1F5D PUSH2 0x292F JUMP JUMPDEST DUP2 MSTORE PUSH1 0x20 ADD SWAP1 PUSH1 0x1 SWAP1 SUB SWAP1 DUP2 PUSH2 0x1F55 JUMPI SWAP1 POP JUMPDEST POP SWAP1 POP PUSH0 JUMPDEST PUSH1 0x6 SLOAD DUP2 LT ISZERO PUSH2 0x2358 JUMPI PUSH0 PUSH1 0x6 DUP3 DUP2 SLOAD DUP2 LT PUSH2 0x1F93 JUMPI PUSH2 0x1F93 PUSH2 0x31E1 JUMP JUMPDEST SWAP1 PUSH0 MSTORE PUSH1 0x20 PUSH0 KECCAK256 ADD SLOAD SWAP1 POP PUSH1 0x40 MLOAD DUP1 PUSH1 0x40 ADD PUSH1 0x40 MSTORE DUP1 PUSH1 0x4 PUSH0 DUP5 DUP2 MSTORE PUSH1 0x20 ADD SWAP1 DUP2 MSTORE PUSH1 0x20 ADD PUSH0 KECCAK256 PUSH1 0x40 MLOAD DUP1 PUSH2 0x140 ADD PUSH1 0x40 MSTORE SWAP1 DUP2 PUSH0 DUP3 ADD SLOAD DUP2 MSTORE PUSH1 0x20 ADD PUSH1 0x1 DUP3 ADD DUP1 SLOAD PUSH2 0x1FDF SWAP1 PUSH2 0x328F JUMP JUMPDEST DUP1 PUSH1 0x1F ADD PUSH1 0x20 DUP1 SWAP2 DIV MUL PUSH1 0x20 ADD PUSH1 0x40 MLOAD SWAP1 DUP2 ADD PUSH1 0x40 MSTORE DUP1 SWAP3 SWAP2 SWAP1 DUP2 DUP2 MSTORE PUSH1 0x20 ADD DUP3 DUP1 SLOAD PUSH2 0x200B SWAP1 PUSH2 0x328F JUMP JUMPDEST DUP1 ISZERO PUSH2 0x2056 JUMPI DUP1 PUSH1 0x1F LT PUSH2 0x202D JUMPI PUSH2 0x100 DUP1 DUP4 SLOAD DIV MUL DUP4 MSTORE SWAP2 PUSH1 0x20 ADD SWAP2 PUSH2 0x2056 JUMP JUMPDEST DUP3 ADD SWAP2 SWAP1 PUSH0 MSTORE PUSH1 0x20 PUSH0 KECCAK256 SWAP1 JUMPDEST DUP2 SLOAD DUP2 MSTORE SWAP1 PUSH1 0x1 ADD SWAP1 PUSH1 0x20 ADD DUP1 DUP4 GT PUSH2 0x2039 JUMPI DUP3 SWAP1 SUB PUSH1 0x1F AND DUP3 ADD SWAP2 JUMPDEST POP POP POP POP POP DUP2 MSTORE PUSH1 0x20 ADD PUSH1 0x2 DUP3 ADD DUP1 SLOAD PUSH2 0x206F SWAP1 PUSH2 0x328F JUMP JUMPDEST DUP1 PUSH1 0x1F ADD PUSH1 0x20 DUP1 SWAP2 DIV MUL PUSH1 0x20 ADD PUSH1 0x40 MLOAD SWAP1 DUP2 ADD PUSH1 0x40 MSTORE DUP1 SWAP3 SWAP2 SWAP1 DUP2 DUP2 MSTORE PUSH1 0x20 ADD DUP3 DUP1 SLOAD PUSH2 0x209B SWAP1 PUSH2 0x328F JUMP JUMPDEST DUP1 ISZERO PUSH2 0x20E6 JUMPI DUP1 PUSH1 0x1F LT PUSH2 0x20BD JUMPI PUSH2 0x100 DUP1 DUP4 SLOAD DIV MUL DUP4 MSTORE SWAP2 PUSH1 0x20 ADD SWAP2 PUSH2 0x20E6 JUMP JUMPDEST DUP3 ADD SWAP2 SWAP1 PUSH0 MSTORE PUSH1 0x20 PUSH0 KECCAK256 SWAP1 JUMPDEST DUP2 SLOAD DUP2 MSTORE SWAP1 PUSH1 0x1 ADD SWAP1 PUSH1 0x20 ADD DUP1 DUP4 GT PUSH2 0x20C9 JUMPI DUP3 SWAP1 SUB PUSH1 0x1F AND DUP3 ADD SWAP2 JUMPDEST POP POP POP POP POP DUP2 MSTORE PUSH1 0x20 ADD PUSH1 0x3 DUP3 ADD SLOAD DUP2 MSTORE PUSH1 0x20 ADD PUSH1 0x4 DUP3 ADD DUP1 SLOAD DUP1 PUSH1 0x20 MUL PUSH1 0x20 ADD PUSH1 0x40 MLOAD SWAP1 DUP2 ADD PUSH1 0x40 MSTORE DUP1 SWAP3 SWAP2 SWAP1 DUP2 DUP2 MSTORE PUSH1 0x20 ADD PUSH0 SWAP1 JUMPDEST DUP3 DUP3 LT ISZERO PUSH2 0x21C5 JUMPI DUP4 DUP3 SWAP1 PUSH0 MSTORE PUSH1 0x20 PUSH0 KECCAK256 ADD DUP1 SLOAD PUSH2 0x213A SWAP1 PUSH2 0x328F JUMP JUMPDEST DUP1 PUSH1 0x1F ADD PUSH1 0x20 DUP1 SWAP2 DIV MUL PUSH1 0x20 ADD PUSH1 0x40 MLOAD SWAP1 DUP2 ADD PUSH1 0x40 MSTORE DUP1 SWAP3 SWAP2 SWAP1 DUP2 DUP2 MSTORE PUSH1 0x20 ADD DUP3 DUP1 SLOAD PUSH2 0x2166 SWAP1 PUSH2 0x328F JUMP JUMPDEST DUP1 ISZERO PUSH2 0x21B1 JUMPI DUP1 PUSH1 0x1F LT PUSH2 0x2188 JUMPI PUSH2 0x100 DUP1 DUP4 SLOAD DIV MUL DUP4 MSTORE SWAP2 PUSH1 0x20 ADD SWAP2 PUSH2 0x21B1 JUMP JUMPDEST DUP3 ADD SWAP2 SWAP1 PUSH0 MSTORE PUSH1 0x20 PUSH0 KECCAK256 SWAP1 JUMPDEST DUP2 SLOAD DUP2 MSTORE SWAP1 PUSH1 0x1 ADD SWAP1 PUSH1 0x20 ADD DUP1 DUP4 GT PUSH2 0x2194 JUMPI DUP3 SWAP1 SUB PUSH1 0x1F AND DUP3 ADD SWAP2 JUMPDEST POP POP POP POP POP DUP2 MSTORE PUSH1 0x20 ADD SWAP1 PUSH1 0x1 ADD SWAP1 PUSH2 0x211D JUMP JUMPDEST POP POP POP POP DUP2 MSTORE PUSH1 0x20 ADD PUSH1 0x5 DUP3 ADD SLOAD DUP2 MSTORE PUSH1 0x20 ADD PUSH1 0x6 DUP3 ADD SLOAD DUP2 MSTORE PUSH1 0x20 ADD PUSH1 0x7 DUP3 ADD SLOAD DUP2 MSTORE PUSH1 0x20 ADD PUSH1 0x8 DUP3 ADD SLOAD DUP2 MSTORE PUSH1 0x20 ADD PUSH1 0x9 DUP3 ADD PUSH0 SWAP1 SLOAD SWAP1 PUSH2 0x100 EXP SWAP1 DIV PUSH1 0xFF AND ISZERO ISZERO ISZERO ISZERO DUP2 MSTORE POP POP DUP2 MSTORE PUSH1 0x20 ADD PUSH1 0x5 PUSH0 DUP5 DUP2 MSTORE PUSH1 0x20 ADD SWAP1 DUP2 MSTORE PUSH1 0x20 ADD PUSH0 KECCAK256 DUP1 SLOAD DUP1 PUSH1 0x20 MUL PUSH1 0x20 ADD PUSH1 0x40 MLOAD SWAP1 DUP2 ADD PUSH1 0x40 MSTORE DUP1 SWAP3 SWAP2 SWAP1 DUP2 DUP2 MSTORE PUSH1 0x20 ADD PUSH0 SWAP1 JUMPDEST DUP3 DUP3 LT ISZERO PUSH2 0x232B JUMPI DUP4 DUP3 SWAP1 PUSH0 MSTORE PUSH1 0x20 PUSH0 KECCAK256 SWAP1 PUSH1 0x5 MUL ADD PUSH1 0x40 MLOAD DUP1 PUSH1 0xA0 ADD PUSH1 0x40 MSTORE SWAP1 DUP2 PUSH0 DUP3 ADD SLOAD DUP2 MSTORE PUSH1 0x20 ADD PUSH1 0x1 DUP3 ADD DUP1 SLOAD PUSH2 0x227E SWAP1 PUSH2 0x328F JUMP JUMPDEST DUP1 PUSH1 0x1F ADD PUSH1 0x20 DUP1 SWAP2 DIV MUL PUSH1 0x20 ADD PUSH1 0x40 MLOAD SWAP1 DUP2 ADD PUSH1 0x40 MSTORE DUP1 SWAP3 SWAP2 SWAP1 DUP2 DUP2 MSTORE PUSH1 0x20 ADD DUP3 DUP1 SLOAD PUSH2 0x22AA SWAP1 PUSH2 0x328F JUMP JUMPDEST DUP1 ISZERO PUSH2 0x22F5 JUMPI DUP1 PUSH1 0x1F LT PUSH2 0x22CC JUMPI PUSH2 0x100 DUP1 DUP4 SLOAD DIV MUL DUP4 MSTORE SWAP2 PUSH1 0x20 ADD SWAP2 PUSH2 0x22F5 JUMP JUMPDEST DUP3 ADD SWAP2 SWAP1 PUSH0 MSTORE PUSH1 0x20 PUSH0 KECCAK256 SWAP1 JUMPDEST DUP2 SLOAD DUP2 MSTORE SWAP1 PUSH1 0x1 ADD SWAP1 PUSH1 0x20 ADD DUP1 DUP4 GT PUSH2 0x22D8 JUMPI DUP3 SWAP1 SUB PUSH1 0x1F AND DUP3 ADD SWAP2 JUMPDEST POP POP POP POP POP DUP2 MSTORE PUSH1 0x20 ADD PUSH1 0x2 DUP3 ADD SLOAD DUP2 MSTORE PUSH1 0x20 ADD PUSH1 0x3 DUP3 ADD SLOAD DUP2 MSTORE PUSH1 0x20 ADD PUSH1 0x4 DUP3 ADD SLOAD DUP2 MSTORE POP POP DUP2 MSTORE PUSH1 0x20 ADD SWAP1 PUSH1 0x1 ADD SWAP1 PUSH2 0x2244 JUMP JUMPDEST POP POP POP POP DUP2 MSTORE POP DUP4 DUP4 DUP2 MLOAD DUP2 LT PUSH2 0x2344 JUMPI PUSH2 0x2344 PUSH2 0x31E1 JUMP JUMPDEST PUSH1 0x20 SWAP1 DUP2 MUL SWAP2 SWAP1 SWAP2 ADD ADD MSTORE POP PUSH1 0x1 ADD PUSH2 0x1F75 JUMP JUMPDEST POP SWAP2 SWAP1 POP JUMP JUMPDEST PUSH2 0x2389 PUSH1 0x40 MLOAD DUP1 PUSH1 0x40 ADD PUSH1 0x40 MSTORE DUP1 PUSH1 0x9 DUP2 MSTORE PUSH1 0x20 ADD PUSH9 0x3A3C1737B934B3B4B7 PUSH1 0xB9 SHL DUP2 MSTORE POP ORIGIN PUSH2 0x27E2 JUMP JUMPDEST PUSH1 0x1 SLOAD PUSH1 0x40 MLOAD PUSH4 0x935E01B PUSH1 0xE2 SHL DUP2 MSTORE ORIGIN PUSH1 0x4 DUP3 ADD MSTORE PUSH1 0x1 PUSH1 0x1 PUSH1 0xA0 SHL SUB SWAP1 SWAP2 AND SWAP1 PUSH4 0x24D7806C SWAP1 PUSH1 0x24 ADD PUSH1 0x20 PUSH1 0x40 MLOAD DUP1 DUP4 SUB DUP2 DUP7 GAS STATICCALL ISZERO DUP1 ISZERO PUSH2 0x23CF JUMPI RETURNDATASIZE PUSH0 PUSH0 RETURNDATACOPY RETURNDATASIZE PUSH0 REVERT JUMPDEST POP POP POP POP PUSH1 0x40 MLOAD RETURNDATASIZE PUSH1 0x1F NOT PUSH1 0x1F DUP3 ADD AND DUP3 ADD DUP1 PUSH1 0x40 MSTORE POP DUP2 ADD SWAP1 PUSH2 0x23F3 SWAP2 SWAP1 PUSH2 0x321C JUMP JUMPDEST PUSH2 0x240F JUMPI PUSH1 0x40 MLOAD PUSH3 0x461BCD PUSH1 0xE5 SHL DUP2 MSTORE PUSH1 0x4 ADD PUSH2 0x464 SWAP1 PUSH2 0x3237 JUMP JUMPDEST PUSH0 DUP4 DUP2 MSTORE PUSH1 0x4 PUSH1 0x20 MSTORE PUSH1 0x40 DUP2 KECCAK256 SLOAD SWAP1 SUB PUSH2 0x243B JUMPI PUSH1 0x40 MLOAD PUSH3 0x461BCD PUSH1 0xE5 SHL DUP2 MSTORE PUSH1 0x4 ADD PUSH2 0x464 SWAP1 PUSH2 0x3262 JUMP JUMPDEST PUSH0 DUP4 DUP2 MSTORE PUSH1 0x5 PUSH1 0x20 MSTORE PUSH1 0x40 DUP2 KECCAK256 SWAP1 DUP1 JUMPDEST DUP3 SLOAD DUP2 LT ISZERO PUSH2 0x2554 JUMPI DUP5 DUP4 DUP3 DUP2 SLOAD DUP2 LT PUSH2 0x2467 JUMPI PUSH2 0x2467 PUSH2 0x31E1 JUMP JUMPDEST SWAP1 PUSH0 MSTORE PUSH1 0x20 PUSH0 KECCAK256 SWAP1 PUSH1 0x5 MUL ADD PUSH0 ADD SLOAD SUB PUSH2 0x254C JUMPI DUP4 PUSH0 ADD MLOAD DUP4 DUP3 DUP2 SLOAD DUP2 LT PUSH2 0x2491 JUMPI PUSH2 0x2491 PUSH2 0x31E1 JUMP JUMPDEST SWAP1 PUSH0 MSTORE PUSH1 0x20 PUSH0 KECCAK256 SWAP1 PUSH1 0x5 MUL ADD PUSH1 0x1 ADD SWAP1 DUP2 PUSH2 0x24AC SWAP2 SWAP1 PUSH2 0x331D JUMP JUMPDEST POP DUP4 PUSH1 0x20 ADD MLOAD DUP4 DUP3 DUP2 SLOAD DUP2 LT PUSH2 0x24C4 JUMPI PUSH2 0x24C4 PUSH2 0x31E1 JUMP JUMPDEST SWAP1 PUSH0 MSTORE PUSH1 0x20 PUSH0 KECCAK256 SWAP1 PUSH1 0x5 MUL ADD PUSH1 0x3 ADD DUP2 SWAP1 SSTORE POP DUP4 PUSH1 0x40 ADD MLOAD DUP4 DUP3 DUP2 SLOAD DUP2 LT PUSH2 0x24EE JUMPI PUSH2 0x24EE PUSH2 0x31E1 JUMP JUMPDEST SWAP1 PUSH0 MSTORE PUSH1 0x20 PUSH0 KECCAK256 SWAP1 PUSH1 0x5 MUL ADD PUSH1 0x4 ADD DUP2 SWAP1 SSTORE POP PUSH1 0x1 SWAP2 POP PUSH32 0xE29E1E70959F0C301943D01C4BD294592A2105BC81E9B2523C4B1D7F7D1F393F DUP7 DUP7 PUSH1 0x40 MLOAD PUSH2 0x253F SWAP3 SWAP2 SWAP1 SWAP2 DUP3 MSTORE PUSH1 0x20 DUP3 ADD MSTORE PUSH1 0x40 ADD SWAP1 JUMP JUMPDEST PUSH1 0x40 MLOAD DUP1 SWAP2 SUB SWAP1 LOG1 PUSH2 0x2554 JUMP JUMPDEST PUSH1 0x1 ADD PUSH2 0x244B JUMP JUMPDEST POP DUP1 PUSH2 0x259E JUMPI PUSH1 0x40 MLOAD PUSH3 0x461BCD PUSH1 0xE5 SHL DUP2 MSTORE PUSH1 0x20 PUSH1 0x4 DUP3 ADD MSTORE PUSH1 0x19 PUSH1 0x24 DUP3 ADD MSTORE PUSH25 0x119BDBD911195D185A5B08191BD95CC81B9BDD08195E1A5CDD PUSH1 0x3A SHL PUSH1 0x44 DUP3 ADD MSTORE PUSH1 0x64 ADD PUSH2 0x464 JUMP JUMPDEST POP POP POP POP POP JUMP JUMPDEST PUSH2 0x25D0 PUSH1 0x40 MLOAD DUP1 PUSH1 0x40 ADD PUSH1 0x40 MSTORE DUP1 PUSH1 0x9 DUP2 MSTORE PUSH1 0x20 ADD PUSH9 0x3A3C1737B934B3B4B7 PUSH1 0xB9 SHL DUP2 MSTORE POP ORIGIN PUSH2 0x27E2 JUMP JUMPDEST PUSH1 0x1 SLOAD PUSH1 0x40 MLOAD PUSH4 0x935E01B PUSH1 0xE2 SHL DUP2 MSTORE ORIGIN PUSH1 0x4 DUP3 ADD MSTORE PUSH1 0x1 PUSH1 0x1 PUSH1 0xA0 SHL SUB SWAP1 SWAP2 AND SWAP1 PUSH4 0x24D7806C SWAP1 PUSH1 0x24 ADD PUSH1 0x20 PUSH1 0x40 MLOAD DUP1 DUP4 SUB DUP2 DUP7 GAS STATICCALL ISZERO DUP1 ISZERO PUSH2 0x2616 JUMPI RETURNDATASIZE PUSH0 PUSH0 RETURNDATACOPY RETURNDATASIZE PUSH0 REVERT JUMPDEST POP POP POP POP PUSH1 0x40 MLOAD RETURNDATASIZE PUSH1 0x1F NOT PUSH1 0x1F DUP3 ADD AND DUP3 ADD DUP1 PUSH1 0x40 MSTORE POP DUP2 ADD SWAP1 PUSH2 0x263A SWAP2 SWAP1 PUSH2 0x321C JUMP JUMPDEST PUSH2 0x2656 JUMPI PUSH1 0x40 MLOAD PUSH3 0x461BCD PUSH1 0xE5 SHL DUP2 MSTORE PUSH1 0x4 ADD PUSH2 0x464 SWAP1 PUSH2 0x3237 JUMP JUMPDEST PUSH0 DUP2 DUP2 MSTORE PUSH1 0x4 PUSH1 0x20 MSTORE PUSH1 0x40 DUP2 KECCAK256 SLOAD SWAP1 SUB PUSH2 0x2682 JUMPI PUSH1 0x40 MLOAD PUSH3 0x461BCD PUSH1 0xE5 SHL DUP2 MSTORE PUSH1 0x4 ADD PUSH2 0x464 SWAP1 PUSH2 0x3262 JUMP JUMPDEST PUSH0 DUP2 DUP2 MSTORE PUSH1 0x4 PUSH1 0x20 MSTORE PUSH1 0x40 DUP2 KECCAK256 DUP2 DUP2 SSTORE SWAP1 PUSH2 0x26A0 PUSH1 0x1 DUP4 ADD DUP3 PUSH2 0x28A4 JUMP JUMPDEST PUSH2 0x26AD PUSH1 0x2 DUP4 ADD PUSH0 PUSH2 0x28A4 JUMP JUMPDEST PUSH1 0x3 DUP3 ADD PUSH0 SWAP1 SSTORE PUSH1 0x4 DUP3 ADD PUSH0 PUSH2 0x26C3 SWAP2 SWAP1 PUSH2 0x294F JUMP JUMPDEST POP PUSH0 PUSH1 0x5 DUP3 DUP2 ADD DUP3 SWAP1 SSTORE PUSH1 0x6 DUP4 ADD DUP3 SWAP1 SSTORE PUSH1 0x7 DUP4 ADD DUP3 SWAP1 SSTORE PUSH1 0x8 DUP4 ADD DUP3 SWAP1 SSTORE PUSH1 0x9 SWAP1 SWAP3 ADD DUP1 SLOAD PUSH1 0xFF NOT AND SWAP1 SSTORE DUP3 DUP2 MSTORE PUSH1 0x20 SWAP2 SWAP1 SWAP2 MSTORE PUSH1 0x40 DUP2 KECCAK256 PUSH2 0x2705 SWAP2 PUSH2 0x296A JUMP JUMPDEST PUSH0 JUMPDEST PUSH1 0x6 SLOAD DUP2 LT ISZERO PUSH2 0x27AB JUMPI DUP2 PUSH1 0x6 DUP3 DUP2 SLOAD DUP2 LT PUSH2 0x2725 JUMPI PUSH2 0x2725 PUSH2 0x31E1 JUMP JUMPDEST SWAP1 PUSH0 MSTORE PUSH1 0x20 PUSH0 KECCAK256 ADD SLOAD SUB PUSH2 0x27A3 JUMPI PUSH1 0x6 DUP1 SLOAD PUSH2 0x2743 SWAP1 PUSH1 0x1 SWAP1 PUSH2 0x32C1 JUMP JUMPDEST DUP2 SLOAD DUP2 LT PUSH2 0x2753 JUMPI PUSH2 0x2753 PUSH2 0x31E1 JUMP JUMPDEST SWAP1 PUSH0 MSTORE PUSH1 0x20 PUSH0 KECCAK256 ADD SLOAD PUSH1 0x6 DUP3 DUP2 SLOAD DUP2 LT PUSH2 0x276F JUMPI PUSH2 0x276F PUSH2 0x31E1 JUMP JUMPDEST PUSH0 SWAP2 DUP3 MSTORE PUSH1 0x20 SWAP1 SWAP2 KECCAK256 ADD SSTORE PUSH1 0x6 DUP1 SLOAD DUP1 PUSH2 0x278B JUMPI PUSH2 0x278B PUSH2 0x33D7 JUMP JUMPDEST PUSH1 0x1 SWAP1 SUB DUP2 DUP2 SWAP1 PUSH0 MSTORE PUSH1 0x20 PUSH0 KECCAK256 ADD PUSH0 SWAP1 SSTORE SWAP1 SSTORE PUSH2 0x27AB JUMP JUMPDEST PUSH1 0x1 ADD PUSH2 0x2707 JUMP JUMPDEST POP PUSH1 0x40 MLOAD DUP2 DUP2 MSTORE PUSH32 0x4D4E7C43D5805933523B1317FDD5ACB7517962D3E9F52834633B9F0149477295 SWAP1 PUSH1 0x20 ADD PUSH1 0x40 MLOAD DUP1 SWAP2 SUB SWAP1 LOG1 POP JUMP JUMPDEST PUSH2 0x2827 DUP3 DUP3 PUSH1 0x40 MLOAD PUSH1 0x24 ADD PUSH2 0x27F8 SWAP3 SWAP2 SWAP1 PUSH2 0x3592 JUMP JUMPDEST PUSH1 0x40 DUP1 MLOAD PUSH1 0x1F NOT DUP2 DUP5 SUB ADD DUP2 MSTORE SWAP2 SWAP1 MSTORE PUSH1 0x20 DUP2 ADD DUP1 MLOAD PUSH1 0x1 PUSH1 0x1 PUSH1 0xE0 SHL SUB AND PUSH4 0x319AF333 PUSH1 0xE0 SHL OR SWAP1 MSTORE PUSH2 0x282B JUMP JUMPDEST POP POP JUMP JUMPDEST PUSH2 0x2834 DUP2 PUSH2 0x2837 JUMP JUMPDEST POP JUMP JUMPDEST PUSH0 PUSH11 0x636F6E736F6C652E6C6F67 SWAP1 POP PUSH0 PUSH0 DUP4 MLOAD PUSH1 0x20 DUP6 ADD DUP5 GAS STATICCALL POP POP POP JUMP JUMPDEST PUSH1 0x40 MLOAD DUP1 PUSH2 0x140 ADD PUSH1 0x40 MSTORE DUP1 PUSH0 DUP2 MSTORE PUSH1 0x20 ADD PUSH1 0x60 DUP2 MSTORE PUSH1 0x20 ADD PUSH1 0x60 DUP2 MSTORE PUSH1 0x20 ADD PUSH0 DUP2 MSTORE PUSH1 0x20 ADD PUSH1 0x60 DUP2 MSTORE PUSH1 0x20 ADD PUSH0 DUP2 MSTORE PUSH1 0x20 ADD PUSH0 DUP2 MSTORE PUSH1 0x20 ADD PUSH0 DUP2 MSTORE PUSH1 0x20 ADD PUSH0 DUP2 MSTORE PUSH1 0x20 ADD PUSH0 ISZERO ISZERO DUP2 MSTORE POP SWAP1 JUMP JUMPDEST POP DUP1 SLOAD PUSH2 0x28B0 SWAP1 PUSH2 0x328F JUMP JUMPDEST PUSH0 DUP3 SSTORE DUP1 PUSH1 0x1F LT PUSH2 0x28BF JUMPI POP POP JUMP JUMPDEST PUSH1 0x1F ADD PUSH1 0x20 SWAP1 DIV SWAP1 PUSH0 MSTORE PUSH1 0x20 PUSH0 KECCAK256 SWAP1 DUP2 ADD SWAP1 PUSH2 0x2834 SWAP2 SWAP1 PUSH2 0x2988 JUMP JUMPDEST DUP3 DUP1 SLOAD DUP3 DUP3 SSTORE SWAP1 PUSH0 MSTORE PUSH1 0x20 PUSH0 KECCAK256 SWAP1 DUP2 ADD SWAP3 DUP3 ISZERO PUSH2 0x291F JUMPI SWAP2 PUSH1 0x20 MUL DUP3 ADD JUMPDEST DUP3 DUP2 GT ISZERO PUSH2 0x291F JUMPI DUP3 MLOAD DUP3 SWAP1 PUSH2 0x290F SWAP1 DUP3 PUSH2 0x331D JUMP JUMPDEST POP SWAP2 PUSH1 0x20 ADD SWAP2 SWAP1 PUSH1 0x1 ADD SWAP1 PUSH2 0x28F9 JUMP JUMPDEST POP PUSH2 0x292B SWAP3 SWAP2 POP PUSH2 0x299C JUMP JUMPDEST POP SWAP1 JUMP JUMPDEST PUSH1 0x40 MLOAD DUP1 PUSH1 0x40 ADD PUSH1 0x40 MSTORE DUP1 PUSH2 0x2942 PUSH2 0x2856 JUMP JUMPDEST DUP2 MSTORE PUSH1 0x20 ADD PUSH1 0x60 DUP2 MSTORE POP SWAP1 JUMP JUMPDEST POP DUP1 SLOAD PUSH0 DUP3 SSTORE SWAP1 PUSH0 MSTORE PUSH1 0x20 PUSH0 KECCAK256 SWAP1 DUP2 ADD SWAP1 PUSH2 0x2834 SWAP2 SWAP1 PUSH2 0x299C JUMP JUMPDEST POP DUP1 SLOAD PUSH0 DUP3 SSTORE PUSH1 0x5 MUL SWAP1 PUSH0 MSTORE PUSH1 0x20 PUSH0 KECCAK256 SWAP1 DUP2 ADD SWAP1 PUSH2 0x2834 SWAP2 SWAP1 PUSH2 0x29B8 JUMP JUMPDEST JUMPDEST DUP1 DUP3 GT ISZERO PUSH2 0x292B JUMPI PUSH0 DUP2 SSTORE PUSH1 0x1 ADD PUSH2 0x2989 JUMP JUMPDEST DUP1 DUP3 GT ISZERO PUSH2 0x292B JUMPI PUSH0 PUSH2 0x29AF DUP3 DUP3 PUSH2 0x28A4 JUMP JUMPDEST POP PUSH1 0x1 ADD PUSH2 0x299C JUMP JUMPDEST DUP1 DUP3 GT ISZERO PUSH2 0x292B JUMPI PUSH0 DUP1 DUP3 SSTORE PUSH2 0x29D1 PUSH1 0x1 DUP4 ADD DUP3 PUSH2 0x28A4 JUMP JUMPDEST POP PUSH0 PUSH1 0x2 DUP3 ADD DUP2 SWAP1 SSTORE PUSH1 0x3 DUP3 ADD DUP2 SWAP1 SSTORE PUSH1 0x4 DUP3 ADD SSTORE PUSH1 0x5 ADD PUSH2 0x29B8 JUMP JUMPDEST PUSH0 PUSH0 PUSH0 PUSH1 0x60 DUP5 DUP7 SUB SLT ISZERO PUSH2 0x2A00 JUMPI PUSH0 PUSH0 REVERT JUMPDEST POP POP DUP2 CALLDATALOAD SWAP4 PUSH1 0x20 DUP4 ADD CALLDATALOAD SWAP4 POP PUSH1 0x40 SWAP1 SWAP3 ADD CALLDATALOAD SWAP2 SWAP1 POP JUMP JUMPDEST DUP1 ISZERO ISZERO DUP2 EQ PUSH2 0x2834 JUMPI PUSH0 PUSH0 REVERT JUMPDEST PUSH0 PUSH0 PUSH1 0x40 DUP4 DUP6 SUB SLT ISZERO PUSH2 0x2A35 JUMPI PUSH0 PUSH0 REVERT JUMPDEST DUP3 CALLDATALOAD SWAP2 POP PUSH1 0x20 DUP4 ADD CALLDATALOAD PUSH2 0x2A47 DUP2 PUSH2 0x2A17 JUMP JUMPDEST DUP1 SWAP2 POP POP SWAP3 POP SWAP3 SWAP1 POP JUMP JUMPDEST PUSH0 PUSH1 0x20 DUP3 DUP5 SUB SLT ISZERO PUSH2 0x2A62 JUMPI PUSH0 PUSH0 REVERT JUMPDEST POP CALLDATALOAD SWAP2 SWAP1 POP JUMP JUMPDEST PUSH0 DUP2 MLOAD DUP1 DUP5 MSTORE DUP1 PUSH1 0x20 DUP5 ADD PUSH1 0x20 DUP7 ADD MCOPY PUSH0 PUSH1 0x20 DUP3 DUP7 ADD ADD MSTORE PUSH1 0x20 PUSH1 0x1F NOT PUSH1 0x1F DUP4 ADD AND DUP6 ADD ADD SWAP2 POP POP SWAP3 SWAP2 POP POP JUMP JUMPDEST PUSH0 DUP3 DUP3 MLOAD DUP1 DUP6 MSTORE PUSH1 0x20 DUP6 ADD SWAP5 POP PUSH1 0x20 DUP2 PUSH1 0x5 SHL DUP4 ADD ADD PUSH1 0x20 DUP6 ADD PUSH0 JUMPDEST DUP4 DUP2 LT ISZERO PUSH2 0x2AE5 JUMPI PUSH1 0x1F NOT DUP6 DUP5 SUB ADD DUP9 MSTORE PUSH2 0x2ACF DUP4 DUP4 MLOAD PUSH2 0x2A69 JUMP JUMPDEST PUSH1 0x20 SWAP9 DUP10 ADD SWAP9 SWAP1 SWAP4 POP SWAP2 SWAP1 SWAP2 ADD SWAP1 PUSH1 0x1 ADD PUSH2 0x2AB3 JUMP JUMPDEST POP SWAP1 SWAP7 SWAP6 POP POP POP POP POP POP JUMP JUMPDEST DUP1 MLOAD DUP3 MSTORE PUSH0 PUSH1 0x20 DUP3 ADD MLOAD PUSH2 0x140 PUSH1 0x20 DUP6 ADD MSTORE PUSH2 0x2B11 PUSH2 0x140 DUP6 ADD DUP3 PUSH2 0x2A69 JUMP JUMPDEST SWAP1 POP PUSH1 0x40 DUP4 ADD MLOAD DUP5 DUP3 SUB PUSH1 0x40 DUP7 ADD MSTORE PUSH2 0x2B2A DUP3 DUP3 PUSH2 0x2A69 JUMP JUMPDEST SWAP2 POP POP PUSH1 0x60 DUP4 ADD MLOAD PUSH1 0x60 DUP6 ADD MSTORE PUSH1 0x80 DUP4 ADD MLOAD DUP5 DUP3 SUB PUSH1 0x80 DUP7 ADD MSTORE PUSH2 0x2B4E DUP3 DUP3 PUSH2 0x2A97 JUMP JUMPDEST SWAP2 POP POP PUSH1 0xA0 DUP4 ADD MLOAD PUSH1 0xA0 DUP6 ADD MSTORE PUSH1 0xC0 DUP4 ADD MLOAD PUSH1 0xC0 DUP6 ADD MSTORE PUSH1 0xE0 DUP4 ADD MLOAD PUSH1 0xE0 DUP6 ADD MSTORE PUSH2 0x100 DUP4 ADD MLOAD PUSH2 0x100 DUP6 ADD MSTORE PUSH2 0x120 DUP4 ADD MLOAD PUSH2 0x2B90 PUSH2 0x120 DUP7 ADD DUP3 ISZERO ISZERO SWAP1 MSTORE JUMP JUMPDEST POP SWAP4 SWAP3 POP POP POP JUMP JUMPDEST PUSH1 0x20 DUP2 MSTORE PUSH0 PUSH2 0x2BAA PUSH1 0x20 DUP4 ADD DUP5 PUSH2 0x2AF1 JUMP JUMPDEST SWAP4 SWAP3 POP POP POP JUMP JUMPDEST PUSH0 PUSH0 PUSH1 0x40 DUP4 DUP6 SUB SLT ISZERO PUSH2 0x2BC2 JUMPI PUSH0 PUSH0 REVERT JUMPDEST POP POP DUP1 CALLDATALOAD SWAP3 PUSH1 0x20 SWAP1 SWAP2 ADD CALLDATALOAD SWAP2 POP JUMP JUMPDEST DUP1 MLOAD DUP3 MSTORE PUSH0 PUSH1 0x20 DUP3 ADD MLOAD PUSH1 0xA0 PUSH1 0x20 DUP6 ADD MSTORE PUSH2 0x2BEF PUSH1 0xA0 DUP6 ADD DUP3 PUSH2 0x2A69 JUMP JUMPDEST SWAP1 POP PUSH1 0x40 DUP4 ADD MLOAD PUSH1 0x40 DUP6 ADD MSTORE PUSH1 0x60 DUP4 ADD MLOAD PUSH1 0x60 DUP6 ADD MSTORE PUSH1 0x80 DUP4 ADD MLOAD PUSH1 0x80 DUP6 ADD MSTORE DUP1 SWAP2 POP POP SWAP3 SWAP2 POP POP JUMP JUMPDEST PUSH1 0x20 DUP2 MSTORE PUSH0 PUSH2 0x2BAA PUSH1 0x20 DUP4 ADD DUP5 PUSH2 0x2BD1 JUMP JUMPDEST PUSH4 0x4E487B71 PUSH1 0xE0 SHL PUSH0 MSTORE PUSH1 0x41 PUSH1 0x4 MSTORE PUSH1 0x24 PUSH0 REVERT JUMPDEST PUSH1 0x40 DUP1 MLOAD SWAP1 DUP2 ADD PUSH1 0x1 PUSH1 0x1 PUSH1 0x40 SHL SUB DUP2 GT DUP3 DUP3 LT OR ISZERO PUSH2 0x2C61 JUMPI PUSH2 0x2C61 PUSH2 0x2C2B JUMP JUMPDEST PUSH1 0x40 MSTORE SWAP1 JUMP JUMPDEST PUSH1 0x40 MLOAD PUSH1 0x1F DUP3 ADD PUSH1 0x1F NOT AND DUP2 ADD PUSH1 0x1 PUSH1 0x1 PUSH1 0x40 SHL SUB DUP2 GT DUP3 DUP3 LT OR ISZERO PUSH2 0x2C8F JUMPI PUSH2 0x2C8F PUSH2 0x2C2B JUMP JUMPDEST PUSH1 0x40 MSTORE SWAP2 SWAP1 POP JUMP JUMPDEST PUSH0 PUSH1 0x1 PUSH1 0x1 PUSH1 0x40 SHL SUB DUP3 GT ISZERO PUSH2 0x2CAF JUMPI PUSH2 0x2CAF PUSH2 0x2C2B JUMP JUMPDEST POP PUSH1 0x5 SHL PUSH1 0x20 ADD SWAP1 JUMP JUMPDEST PUSH0 PUSH1 0x1 PUSH1 0x1 PUSH1 0x40 SHL SUB DUP3 GT ISZERO PUSH2 0x2CD1 JUMPI PUSH2 0x2CD1 PUSH2 0x2C2B JUMP JUMPDEST POP PUSH1 0x1F ADD PUSH1 0x1F NOT AND PUSH1 0x20 ADD SWAP1 JUMP JUMPDEST PUSH0 DUP3 PUSH1 0x1F DUP4 ADD SLT PUSH2 0x2CEE JUMPI PUSH0 PUSH0 REVERT JUMPDEST DUP2 CALLDATALOAD PUSH2 0x2D01 PUSH2 0x2CFC DUP3 PUSH2 0x2CB9 JUMP JUMPDEST PUSH2 0x2C67 JUMP JUMPDEST DUP2 DUP2 MSTORE DUP5 PUSH1 0x20 DUP4 DUP7 ADD ADD GT ISZERO PUSH2 0x2D15 JUMPI PUSH0 PUSH0 REVERT JUMPDEST DUP2 PUSH1 0x20 DUP6 ADD PUSH1 0x20 DUP4 ADD CALLDATACOPY PUSH0 SWAP2 DUP2 ADD PUSH1 0x20 ADD SWAP2 SWAP1 SWAP2 MSTORE SWAP4 SWAP3 POP POP POP JUMP JUMPDEST PUSH0 PUSH1 0x60 DUP3 DUP5 SUB SLT ISZERO PUSH2 0x2D41 JUMPI PUSH0 PUSH0 REVERT JUMPDEST PUSH1 0x40 MLOAD PUSH1 0x60 DUP2 ADD PUSH1 0x1 PUSH1 0x1 PUSH1 0x40 SHL SUB DUP2 GT DUP3 DUP3 LT OR ISZERO PUSH2 0x2D63 JUMPI PUSH2 0x2D63 PUSH2 0x2C2B JUMP JUMPDEST PUSH1 0x40 MSTORE SWAP1 POP DUP1 DUP3 CALLDATALOAD PUSH1 0x1 PUSH1 0x1 PUSH1 0x40 SHL SUB DUP2 GT ISZERO PUSH2 0x2D7E JUMPI PUSH0 PUSH0 REVERT JUMPDEST PUSH2 0x2D8A DUP6 DUP3 DUP7 ADD PUSH2 0x2CDF JUMP JUMPDEST DUP3 MSTORE POP PUSH1 0x20 DUP4 DUP2 ADD CALLDATALOAD SWAP1 DUP3 ADD MSTORE PUSH1 0x40 SWAP3 DUP4 ADD CALLDATALOAD SWAP3 ADD SWAP2 SWAP1 SWAP2 MSTORE SWAP2 SWAP1 POP JUMP JUMPDEST PUSH0 DUP3 PUSH1 0x1F DUP4 ADD SLT PUSH2 0x2DB7 JUMPI PUSH0 PUSH0 REVERT JUMPDEST DUP2 CALLDATALOAD PUSH2 0x2DC5 PUSH2 0x2CFC DUP3 PUSH2 0x2C97 JUMP JUMPDEST DUP1 DUP3 DUP3 MSTORE PUSH1 0x20 DUP3 ADD SWAP2 POP PUSH1 0x20 DUP4 PUSH1 0x5 SHL DUP7 ADD ADD SWAP3 POP DUP6 DUP4 GT ISZERO PUSH2 0x2DE6 JUMPI PUSH0 PUSH0 REVERT JUMPDEST PUSH1 0x20 DUP6 ADD JUMPDEST DUP4 DUP2 LT ISZERO PUSH2 0x2E26 JUMPI DUP1 CALLDATALOAD PUSH1 0x1 PUSH1 0x1 PUSH1 0x40 SHL SUB DUP2 GT ISZERO PUSH2 0x2E08 JUMPI PUSH0 PUSH0 REVERT JUMPDEST PUSH2 0x2E17 DUP9 PUSH1 0x20 DUP4 DUP11 ADD ADD PUSH2 0x2D31 JUMP JUMPDEST DUP5 MSTORE POP PUSH1 0x20 SWAP3 DUP4 ADD SWAP3 ADD PUSH2 0x2DEB JUMP JUMPDEST POP SWAP6 SWAP5 POP POP POP POP POP JUMP JUMPDEST PUSH0 PUSH0 PUSH1 0x40 DUP4 DUP6 SUB SLT ISZERO PUSH2 0x2E41 JUMPI PUSH0 PUSH0 REVERT JUMPDEST DUP3 CALLDATALOAD SWAP2 POP PUSH1 0x20 DUP4 ADD CALLDATALOAD PUSH1 0x1 PUSH1 0x1 PUSH1 0x40 SHL SUB DUP2 GT ISZERO PUSH2 0x2E5D JUMPI PUSH0 PUSH0 REVERT JUMPDEST PUSH2 0x2E69 DUP6 DUP3 DUP7 ADD PUSH2 0x2DA8 JUMP JUMPDEST SWAP2 POP POP SWAP3 POP SWAP3 SWAP1 POP JUMP JUMPDEST PUSH0 DUP3 PUSH1 0x1F DUP4 ADD SLT PUSH2 0x2E82 JUMPI PUSH0 PUSH0 REVERT JUMPDEST DUP2 CALLDATALOAD PUSH2 0x2E90 PUSH2 0x2CFC DUP3 PUSH2 0x2C97 JUMP JUMPDEST DUP1 DUP3 DUP3 MSTORE PUSH1 0x20 DUP3 ADD SWAP2 POP PUSH1 0x20 DUP4 PUSH1 0x5 SHL DUP7 ADD ADD SWAP3 POP DUP6 DUP4 GT ISZERO PUSH2 0x2EB1 JUMPI PUSH0 PUSH0 REVERT JUMPDEST PUSH1 0x20 DUP6 ADD JUMPDEST DUP4 DUP2 LT ISZERO PUSH2 0x2E26 JUMPI DUP1 CALLDATALOAD PUSH1 0x1 PUSH1 0x1 PUSH1 0x40 SHL SUB DUP2 GT ISZERO PUSH2 0x2ED3 JUMPI PUSH0 PUSH0 REVERT JUMPDEST PUSH2 0x2EE2 DUP9 PUSH1 0x20 DUP4 DUP11 ADD ADD PUSH2 0x2CDF JUMP JUMPDEST DUP5 MSTORE POP PUSH1 0x20 SWAP3 DUP4 ADD SWAP3 ADD PUSH2 0x2EB6 JUMP JUMPDEST PUSH0 PUSH0 PUSH0 PUSH0 PUSH0 PUSH1 0xA0 DUP7 DUP9 SUB SLT ISZERO PUSH2 0x2F05 JUMPI PUSH0 PUSH0 REVERT JUMPDEST DUP6 CALLDATALOAD SWAP5 POP PUSH1 0x20 DUP7 ADD CALLDATALOAD PUSH1 0x1 PUSH1 0x1 PUSH1 0x40 SHL SUB DUP2 GT ISZERO PUSH2 0x2F21 JUMPI PUSH0 PUSH0 REVERT JUMPDEST PUSH2 0x2F2D DUP9 DUP3 DUP10 ADD PUSH2 0x2CDF JUMP JUMPDEST SWAP5 POP POP PUSH1 0x40 DUP7 ADD CALLDATALOAD PUSH1 0x1 PUSH1 0x1 PUSH1 0x40 SHL SUB DUP2 GT ISZERO PUSH2 0x2F48 JUMPI PUSH0 PUSH0 REVERT JUMPDEST PUSH2 0x2F54 DUP9 DUP3 DUP10 ADD PUSH2 0x2CDF JUMP JUMPDEST SWAP4 POP POP PUSH1 0x60 DUP7 ADD CALLDATALOAD SWAP2 POP PUSH1 0x80 DUP7 ADD CALLDATALOAD PUSH1 0x1 PUSH1 0x1 PUSH1 0x40 SHL SUB DUP2 GT ISZERO PUSH2 0x2F76 JUMPI PUSH0 PUSH0 REVERT JUMPDEST PUSH2 0x2F82 DUP9 DUP3 DUP10 ADD PUSH2 0x2E73 JUMP JUMPDEST SWAP2 POP POP SWAP3 SWAP6 POP SWAP3 SWAP6 SWAP1 SWAP4 POP JUMP JUMPDEST PUSH0 PUSH1 0x20 DUP3 ADD PUSH1 0x20 DUP4 MSTORE DUP1 DUP5 MLOAD DUP1 DUP4 MSTORE PUSH1 0x40 DUP6 ADD SWAP2 POP PUSH1 0x40 DUP2 PUSH1 0x5 SHL DUP7 ADD ADD SWAP3 POP PUSH1 0x20 DUP7 ADD PUSH0 JUMPDEST DUP3 DUP2 LT ISZERO PUSH2 0x2FE6 JUMPI PUSH1 0x3F NOT DUP8 DUP7 SUB ADD DUP5 MSTORE PUSH2 0x2FD1 DUP6 DUP4 MLOAD PUSH2 0x2AF1 JUMP JUMPDEST SWAP5 POP PUSH1 0x20 SWAP4 DUP5 ADD SWAP4 SWAP2 SWAP1 SWAP2 ADD SWAP1 PUSH1 0x1 ADD PUSH2 0x2FB5 JUMP JUMPDEST POP SWAP3 SWAP7 SWAP6 POP POP POP POP POP POP JUMP JUMPDEST PUSH0 DUP3 DUP3 MLOAD DUP1 DUP6 MSTORE PUSH1 0x20 DUP6 ADD SWAP5 POP PUSH1 0x20 DUP2 PUSH1 0x5 SHL DUP4 ADD ADD PUSH1 0x20 DUP6 ADD PUSH0 JUMPDEST DUP4 DUP2 LT ISZERO PUSH2 0x2AE5 JUMPI PUSH1 0x1F NOT DUP6 DUP5 SUB ADD DUP9 MSTORE PUSH2 0x302A DUP4 DUP4 MLOAD PUSH2 0x2BD1 JUMP JUMPDEST PUSH1 0x20 SWAP9 DUP10 ADD SWAP9 SWAP1 SWAP4 POP SWAP2 SWAP1 SWAP2 ADD SWAP1 PUSH1 0x1 ADD PUSH2 0x300E JUMP JUMPDEST PUSH1 0x20 DUP2 MSTORE PUSH0 PUSH2 0x2BAA PUSH1 0x20 DUP4 ADD DUP5 PUSH2 0x2FF2 JUMP JUMPDEST PUSH0 PUSH0 PUSH0 PUSH0 PUSH0 PUSH0 PUSH1 0xC0 DUP8 DUP10 SUB SLT ISZERO PUSH2 0x3067 JUMPI PUSH0 PUSH0 REVERT JUMPDEST DUP7 CALLDATALOAD SWAP6 POP PUSH1 0x20 DUP8 ADD CALLDATALOAD PUSH1 0x1 PUSH1 0x1 PUSH1 0x40 SHL SUB DUP2 GT ISZERO PUSH2 0x3083 JUMPI PUSH0 PUSH0 REVERT JUMPDEST PUSH2 0x308F DUP10 DUP3 DUP11 ADD PUSH2 0x2CDF JUMP JUMPDEST SWAP6 POP POP PUSH1 0x40 DUP8 ADD CALLDATALOAD PUSH1 0x1 PUSH1 0x1 PUSH1 0x40 SHL SUB DUP2 GT ISZERO PUSH2 0x30AA JUMPI PUSH0 PUSH0 REVERT JUMPDEST PUSH2 0x30B6 DUP10 DUP3 DUP11 ADD PUSH2 0x2CDF JUMP JUMPDEST SWAP5 POP POP PUSH1 0x60 DUP8 ADD CALLDATALOAD SWAP3 POP PUSH1 0x80 DUP8 ADD CALLDATALOAD PUSH1 0x1 PUSH1 0x1 PUSH1 0x40 SHL SUB DUP2 GT ISZERO PUSH2 0x30D8 JUMPI PUSH0 PUSH0 REVERT JUMPDEST PUSH2 0x30E4 DUP10 DUP3 DUP11 ADD PUSH2 0x2E73 JUMP JUMPDEST SWAP3 POP POP PUSH1 0xA0 DUP8 ADD CALLDATALOAD PUSH1 0x1 PUSH1 0x1 PUSH1 0x40 SHL SUB DUP2 GT ISZERO PUSH2 0x30FF JUMPI PUSH0 PUSH0 REVERT JUMPDEST PUSH2 0x310B DUP10 DUP3 DUP11 ADD PUSH2 0x2DA8 JUMP JUMPDEST SWAP2 POP POP SWAP3 SWAP6 POP SWAP3 SWAP6 POP SWAP3 SWAP6 JUMP JUMPDEST PUSH0 PUSH1 0x20 DUP3 ADD PUSH1 0x20 DUP4 MSTORE DUP1 DUP5 MLOAD DUP1 DUP4 MSTORE PUSH1 0x40 DUP6 ADD SWAP2 POP PUSH1 0x40 DUP2 PUSH1 0x5 SHL DUP7 ADD ADD SWAP3 POP PUSH1 0x20 DUP7 ADD PUSH0 JUMPDEST DUP3 DUP2 LT ISZERO PUSH2 0x2FE6 JUMPI PUSH1 0x3F NOT DUP8 DUP7 SUB ADD DUP5 MSTORE DUP2 MLOAD DUP1 MLOAD PUSH1 0x40 DUP8 MSTORE PUSH2 0x3164 PUSH1 0x40 DUP9 ADD DUP3 PUSH2 0x2AF1 JUMP JUMPDEST SWAP1 POP PUSH1 0x20 DUP3 ADD MLOAD SWAP2 POP DUP7 DUP2 SUB PUSH1 0x20 DUP9 ADD MSTORE PUSH2 0x317F DUP2 DUP4 PUSH2 0x2FF2 JUMP JUMPDEST SWAP7 POP POP POP PUSH1 0x20 SWAP4 DUP5 ADD SWAP4 SWAP2 SWAP1 SWAP2 ADD SWAP1 PUSH1 0x1 ADD PUSH2 0x313E JUMP JUMPDEST PUSH0 PUSH0 PUSH0 PUSH1 0x60 DUP5 DUP7 SUB SLT ISZERO PUSH2 0x31A8 JUMPI PUSH0 PUSH0 REVERT JUMPDEST DUP4 CALLDATALOAD SWAP3 POP PUSH1 0x20 DUP5 ADD CALLDATALOAD SWAP2 POP PUSH1 0x40 DUP5 ADD CALLDATALOAD PUSH1 0x1 PUSH1 0x1 PUSH1 0x40 SHL SUB DUP2 GT ISZERO PUSH2 0x31CB JUMPI PUSH0 PUSH0 REVERT JUMPDEST PUSH2 0x31D7 DUP7 DUP3 DUP8 ADD PUSH2 0x2D31 JUMP JUMPDEST SWAP2 POP POP SWAP3 POP SWAP3 POP SWAP3 JUMP JUMPDEST PUSH4 0x4E487B71 PUSH1 0xE0 SHL PUSH0 MSTORE PUSH1 0x32 PUSH1 0x4 MSTORE PUSH1 0x24 PUSH0 REVERT JUMPDEST PUSH4 0x4E487B71 PUSH1 0xE0 SHL PUSH0 MSTORE PUSH1 0x11 PUSH1 0x4 MSTORE PUSH1 0x24 PUSH0 REVERT JUMPDEST DUP1 DUP3 ADD DUP1 DUP3 GT ISZERO PUSH2 0xA57 JUMPI PUSH2 0xA57 PUSH2 0x31F5 JUMP JUMPDEST PUSH0 PUSH1 0x20 DUP3 DUP5 SUB SLT ISZERO PUSH2 0x322C JUMPI PUSH0 PUSH0 REVERT JUMPDEST DUP2 MLOAD PUSH2 0x2BAA DUP2 PUSH2 0x2A17 JUMP JUMPDEST PUSH1 0x20 DUP1 DUP3 MSTORE PUSH1 0x11 SWAP1 DUP3 ADD MSTORE PUSH17 0x2CB7BA9030B932903737BA1030B236B4B7 PUSH1 0x79 SHL PUSH1 0x40 DUP3 ADD MSTORE PUSH1 0x60 ADD SWAP1 JUMP JUMPDEST PUSH1 0x20 DUP1 DUP3 MSTORE PUSH1 0x13 SWAP1 DUP3 ADD MSTORE PUSH19 0x119BDBD908191BD95CC81B9BDD08195E1A5CDD PUSH1 0x6A SHL PUSH1 0x40 DUP3 ADD MSTORE PUSH1 0x60 ADD SWAP1 JUMP JUMPDEST PUSH1 0x1 DUP2 DUP2 SHR SWAP1 DUP3 AND DUP1 PUSH2 0x32A3 JUMPI PUSH1 0x7F DUP3 AND SWAP2 POP JUMPDEST PUSH1 0x20 DUP3 LT DUP2 SUB PUSH2 0x2358 JUMPI PUSH4 0x4E487B71 PUSH1 0xE0 SHL PUSH0 MSTORE PUSH1 0x22 PUSH1 0x4 MSTORE PUSH1 0x24 PUSH0 REVERT JUMPDEST DUP2 DUP2 SUB DUP2 DUP2 GT ISZERO PUSH2 0xA57 JUMPI PUSH2 0xA57 PUSH2 0x31F5 JUMP JUMPDEST PUSH1 0x1F DUP3 GT ISZERO PUSH2 0x3318 JUMPI DUP1 PUSH0 MSTORE PUSH1 0x20 PUSH0 KECCAK256 PUSH1 0x1F DUP5 ADD PUSH1 0x5 SHR DUP2 ADD PUSH1 0x20 DUP6 LT ISZERO PUSH2 0x32F9 JUMPI POP DUP1 JUMPDEST PUSH1 0x1F DUP5 ADD PUSH1 0x5 SHR DUP3 ADD SWAP2 POP JUMPDEST DUP2 DUP2 LT ISZERO PUSH2 0x259E JUMPI PUSH0 DUP2 SSTORE PUSH1 0x1 ADD PUSH2 0x3305 JUMP JUMPDEST POP POP POP JUMP JUMPDEST DUP2 MLOAD PUSH1 0x1 PUSH1 0x1 PUSH1 0x40 SHL SUB DUP2 GT ISZERO PUSH2 0x3336 JUMPI PUSH2 0x3336 PUSH2 0x2C2B JUMP JUMPDEST PUSH2 0x334A DUP2 PUSH2 0x3344 DUP5 SLOAD PUSH2 0x328F JUMP JUMPDEST DUP5 PUSH2 0x32D4 JUMP JUMPDEST PUSH1 0x20 PUSH1 0x1F DUP3 GT PUSH1 0x1 DUP2 EQ PUSH2 0x337C JUMPI PUSH0 DUP4 ISZERO PUSH2 0x3365 JUMPI POP DUP5 DUP3 ADD MLOAD JUMPDEST PUSH0 NOT PUSH1 0x3 DUP6 SWAP1 SHL SHR NOT AND PUSH1 0x1 DUP5 SWAP1 SHL OR DUP5 SSTORE PUSH2 0x259E JUMP JUMPDEST PUSH0 DUP5 DUP2 MSTORE PUSH1 0x20 DUP2 KECCAK256 PUSH1 0x1F NOT DUP6 AND SWAP2 JUMPDEST DUP3 DUP2 LT ISZERO PUSH2 0x33AB JUMPI DUP8 DUP6 ADD MLOAD DUP3 SSTORE PUSH1 0x20 SWAP5 DUP6 ADD SWAP5 PUSH1 0x1 SWAP1 SWAP3 ADD SWAP2 ADD PUSH2 0x338B JUMP JUMPDEST POP DUP5 DUP3 LT ISZERO PUSH2 0x33C8 JUMPI DUP7 DUP5 ADD MLOAD PUSH0 NOT PUSH1 0x3 DUP8 SWAP1 SHL PUSH1 0xF8 AND SHR NOT AND DUP2 SSTORE JUMPDEST POP POP POP POP PUSH1 0x1 SWAP1 DUP2 SHL ADD SWAP1 SSTORE POP JUMP JUMPDEST PUSH4 0x4E487B71 PUSH1 0xE0 SHL PUSH0 MSTORE PUSH1 0x31 PUSH1 0x4 MSTORE PUSH1 0x24 PUSH0 REVERT JUMPDEST PUSH0 PUSH1 0x1 DUP3 ADD PUSH2 0x33FC JUMPI PUSH2 0x33FC PUSH2 0x31F5 JUMP JUMPDEST POP PUSH1 0x1 ADD SWAP1 JUMP JUMPDEST PUSH1 0x20 DUP1 DUP3 MSTORE PUSH1 0x28 SWAP1 DUP3 ADD MSTORE PUSH32 0x5175616E74697479277320666F6F642063616E6E6F7420626520736D616C6C65 PUSH1 0x40 DUP3 ADD MSTORE PUSH8 0x72207468616E203 PUSH1 0xC4 SHL PUSH1 0x60 DUP3 ADD MSTORE PUSH1 0x80 ADD SWAP1 JUMP JUMPDEST PUSH0 PUSH1 0x20 DUP3 DUP5 SUB SLT ISZERO PUSH2 0x345B JUMPI PUSH0 PUSH0 REVERT JUMPDEST DUP2 MLOAD PUSH1 0x1 PUSH1 0x1 PUSH1 0x40 SHL SUB DUP2 GT ISZERO PUSH2 0x3470 JUMPI PUSH0 PUSH0 REVERT JUMPDEST DUP3 ADD PUSH1 0x40 DUP2 DUP6 SUB SLT ISZERO PUSH2 0x3481 JUMPI PUSH0 PUSH0 REVERT JUMPDEST PUSH2 0x3489 PUSH2 0x2C3F JUMP JUMPDEST DUP2 MLOAD DUP2 MSTORE PUSH1 0x20 DUP3 ADD MLOAD PUSH1 0x1 PUSH1 0x1 PUSH1 0x40 SHL SUB DUP2 GT ISZERO PUSH2 0x34A5 JUMPI PUSH0 PUSH0 REVERT JUMPDEST DUP1 DUP4 ADD SWAP3 POP POP DUP5 PUSH1 0x1F DUP4 ADD SLT PUSH2 0x34B9 JUMPI PUSH0 PUSH0 REVERT JUMPDEST DUP2 MLOAD PUSH2 0x34C7 PUSH2 0x2CFC DUP3 PUSH2 0x2CB9 JUMP JUMPDEST DUP2 DUP2 MSTORE DUP7 PUSH1 0x20 DUP4 DUP7 ADD ADD GT ISZERO PUSH2 0x34DB JUMPI PUSH0 PUSH0 REVERT JUMPDEST DUP2 PUSH1 0x20 DUP6 ADD PUSH1 0x20 DUP4 ADD MCOPY PUSH0 PUSH1 0x20 SWAP3 DUP3 ADD DUP4 ADD MSTORE SWAP1 DUP3 ADD MSTORE SWAP5 SWAP4 POP POP POP POP JUMP JUMPDEST DUP6 DUP2 MSTORE PUSH1 0xA0 PUSH1 0x20 DUP3 ADD MSTORE PUSH0 PUSH2 0x3512 PUSH1 0xA0 DUP4 ADD DUP8 PUSH2 0x2A69 JUMP JUMPDEST DUP3 DUP2 SUB PUSH1 0x40 DUP5 ADD MSTORE PUSH2 0x3524 DUP2 DUP8 PUSH2 0x2A69 JUMP JUMPDEST SWAP1 POP DUP5 PUSH1 0x60 DUP5 ADD MSTORE DUP3 DUP2 SUB PUSH1 0x80 DUP5 ADD MSTORE DUP1 DUP5 MLOAD DUP1 DUP4 MSTORE PUSH1 0x20 DUP4 ADD SWAP2 POP PUSH1 0x20 DUP2 PUSH1 0x5 SHL DUP5 ADD ADD PUSH1 0x20 DUP8 ADD PUSH0 JUMPDEST DUP4 DUP2 LT ISZERO PUSH2 0x3581 JUMPI PUSH1 0x1F NOT DUP7 DUP5 SUB ADD DUP6 MSTORE PUSH2 0x356B DUP4 DUP4 MLOAD PUSH2 0x2A69 JUMP JUMPDEST PUSH1 0x20 SWAP6 DUP7 ADD SWAP6 SWAP1 SWAP4 POP SWAP2 SWAP1 SWAP2 ADD SWAP1 PUSH1 0x1 ADD PUSH2 0x354F JUMP JUMPDEST POP SWAP1 SWAP12 SWAP11 POP POP POP POP POP POP POP POP POP POP POP JUMP JUMPDEST PUSH1 0x40 DUP2 MSTORE PUSH0 PUSH2 0x35A4 PUSH1 0x40 DUP4 ADD DUP6 PUSH2 0x2A69 JUMP JUMPDEST SWAP1 POP PUSH1 0x1 DUP1 PUSH1 0xA0 SHL SUB DUP4 AND PUSH1 0x20 DUP4 ADD MSTORE SWAP4 SWAP3 POP POP POP JUMP INVALID LOG2 PUSH5 0x6970667358 0x22 SLT KECCAK256 DUP6 0xD8 0x25 0xD8 CODESIZE 0x28 0xAE 0x2B CODESIZE PUSH18 0x23707790656781A12981E424828394EBAA92 BLOBBASEFEE SWAP14 CALLDATACOPY SWAP4 PUSH5 0x736F6C6343 STOP ADDMOD 0x1E STOP CALLER "
		},
		"gasEstimates": {
			"creation": {
				"codeDepositCost": "2761800",
				"executionCost": "infinite",
				"totalCost": "infinite"
			},
			"external": {
				"addFoodDetails(uint256,(string,uint256,uint256)[])": "infinite",
				"categoryManager()": "2445",
				"createFood(uint256,string,string,uint256,string[],(string,uint256,uint256)[])": "infinite",
				"deleteFood(uint256)": "infinite",
				"deleteFoodDetail(uint256,uint256)": "infinite",
				"getAllFoods()": "infinite",
				"getAllFoodsSortedBySoldQuantity()": "infinite",
				"getFood(uint256)": "infinite",
				"getFoodDetailByFoodId_FoodDetailId(uint256,uint256)": "infinite",
				"getFoodDetails(uint256)": "infinite",
				"increaseQuantiy(uint256,uint256,uint256)": "infinite",
				"increaseSoldQuantiy(uint256,uint256,uint256)": "infinite",
				"nextFoodDetailId()": "2395",
				"nextFoodId()": "2373",
				"reduceQuantiy(uint256,uint256,uint256)": "infinite",
				"reduceSoldQuantiy(uint256,uint256,uint256)": "infinite",
				"roleAccess()": "2403",
				"setFoodVisibility(uint256,bool)": "infinite",
				"updateFood(uint256,string,string,uint256,string[])": "infinite",
				"updateFoodDetail(uint256,uint256,(string,uint256,uint256))": "infinite"
			}
		},
		"methodIdentifiers": {
			"addFoodDetails(uint256,(string,uint256,uint256)[])": "64f77471",
			"categoryManager()": "d86ec238",
			"createFood(uint256,string,string,uint256,string[],(string,uint256,uint256)[])": "b447aaae",
			"deleteFood(uint256)": "d198b650",
			"deleteFoodDetail(uint256,uint256)": "4d30a39b",
			"getAllFoods()": "b9b5aae6",
			"getAllFoodsSortedBySoldQuantity()": "a6bc8c6a",
			"getFood(uint256)": "1e4de872",
			"getFoodDetailByFoodId_FoodDetailId(uint256,uint256)": "35085515",
			"getFoodDetails(uint256)": "af5607f9",
			"increaseQuantiy(uint256,uint256,uint256)": "094b9a53",
			"increaseSoldQuantiy(uint256,uint256,uint256)": "00e081dd",
			"nextFoodDetailId()": "1b0d77cc",
			"nextFoodId()": "1945ef58",
			"reduceQuantiy(uint256,uint256,uint256)": "9a69bfa6",
			"reduceSoldQuantiy(uint256,uint256,uint256)": "6c6b5baf",
			"roleAccess()": "42f54b89",
			"setFoodVisibility(uint256,bool)": "05207db2",
			"updateFood(uint256,string,string,uint256,string[])": "6dd2dd88",
			"updateFoodDetail(uint256,uint256,(string,uint256,uint256))": "baf85306"
		}
	},
	"abi": [
		{
			"inputs": [
				{
					"internalType": "address",
					"name": "_categoryManagerAddress",
					"type": "address"
				},
				{
					"internalType": "address",
					"name": "_roleAcces",
					"type": "address"
				}
			],
			"stateMutability": "nonpayable",
			"type": "constructor"
		},
		{
			"anonymous": false,
			"inputs": [
				{
					"indexed": false,
					"internalType": "uint256",
					"name": "foodId",
					"type": "uint256"
				},
				{
					"indexed": false,
					"internalType": "string",
					"name": "name",
					"type": "string"
				},
				{
					"indexed": false,
					"internalType": "string",
					"name": "description",
					"type": "string"
				},
				{
					"indexed": false,
					"internalType": "uint256",
					"name": "categoryId",
					"type": "uint256"
				},
				{
					"indexed": false,
					"internalType": "string[]",
					"name": "imageUrl",
					"type": "string[]"
				}
			],
			"name": "FoodCreated",
			"type": "event"
		},
		{
			"anonymous": false,
			"inputs": [
				{
					"indexed": false,
					"internalType": "uint256",
					"name": "foodId",
					"type": "uint256"
				}
			],
			"name": "FoodDeleted",
			"type": "event"
		},
		{
			"anonymous": false,
			"inputs": [
				{
					"indexed": false,
					"internalType": "uint256",
					"name": "foodId",
					"type": "uint256"
				},
				{
					"indexed": false,
					"internalType": "uint256",
					"name": "foodDetailId",
					"type": "uint256"
				}
			],
			"name": "FoodDetailDeleted",
			"type": "event"
		},
		{
			"anonymous": false,
			"inputs": [
				{
					"indexed": false,
					"internalType": "uint256",
					"name": "foodId",
					"type": "uint256"
				},
				{
					"indexed": false,
					"internalType": "uint256",
					"name": "foodDetailId",
					"type": "uint256"
				}
			],
			"name": "FoodDetailUpdated",
			"type": "event"
		},
		{
			"anonymous": false,
			"inputs": [
				{
					"indexed": false,
					"internalType": "uint256",
					"name": "foodId",
					"type": "uint256"
				}
			],
			"name": "FoodDetailsAdded",
			"type": "event"
		},
		{
			"anonymous": false,
			"inputs": [
				{
					"indexed": false,
					"internalType": "uint256",
					"name": "foodId",
					"type": "uint256"
				},
				{
					"indexed": false,
					"internalType": "string",
					"name": "name",
					"type": "string"
				},
				{
					"indexed": false,
					"internalType": "string",
					"name": "description",
					"type": "string"
				},
				{
					"indexed": false,
					"internalType": "uint256",
					"name": "categoryId",
					"type": "uint256"
				},
				{
					"indexed": false,
					"internalType": "string[]",
					"name": "imageUrl",
					"type": "string[]"
				}
			],
			"name": "FoodUpdated",
			"type": "event"
		},
		{
			"anonymous": false,
			"inputs": [
				{
					"indexed": false,
					"internalType": "uint256",
					"name": "_foodId",
					"type": "uint256"
				},
				{
					"indexed": false,
					"internalType": "bool",
					"name": "hidden",
					"type": "bool"
				}
			],
			"name": "FoodVisibilityChanged",
			"type": "event"
		},
		{
			"inputs": [
				{
					"internalType": "uint256",
					"name": "foodId",
					"type": "uint256"
				},
				{
					"components": [
						{
							"internalType": "string",
							"name": "size",
							"type": "string"
						},
						{
							"internalType": "uint256",
							"name": "quantity",
							"type": "uint256"
						},
						{
							"internalType": "uint256",
							"name": "price",
							"type": "uint256"
						}
					],
					"internalType": "struct UpdateFoodDetail[]",
					"name": "details",
					"type": "tuple[]"
				}
			],
			"name": "addFoodDetails",
			"outputs": [],
			"stateMutability": "nonpayable",
			"type": "function"
		},
		{
			"inputs": [],
			"name": "categoryManager",
			"outputs": [
				{
					"internalType": "contract ICategoryManager",
					"name": "",
					"type": "address"
				}
			],
			"stateMutability": "view",
			"type": "function"
		},
		{
			"inputs": [
				{
					"internalType": "uint256",
					"name": "_foodId",
					"type": "uint256"
				},
				{
					"internalType": "string",
					"name": "_name",
					"type": "string"
				},
				{
					"internalType": "string",
					"name": "_description",
					"type": "string"
				},
				{
					"internalType": "uint256",
					"name": "_categoryId",
					"type": "uint256"
				},
				{
					"internalType": "string[]",
					"name": "_imageUrl",
					"type": "string[]"
				},
				{
					"components": [
						{
							"internalType": "string",
							"name": "size",
							"type": "string"
						},
						{
							"internalType": "uint256",
							"name": "quantity",
							"type": "uint256"
						},
						{
							"internalType": "uint256",
							"name": "price",
							"type": "uint256"
						}
					],
					"internalType": "struct UpdateFoodDetail[]",
					"name": "_foodDetail",
					"type": "tuple[]"
				}
			],
			"name": "createFood",
			"outputs": [],
			"stateMutability": "nonpayable",
			"type": "function"
		},
		{
			"inputs": [
				{
					"internalType": "uint256",
					"name": "foodId",
					"type": "uint256"
				}
			],
			"name": "deleteFood",
			"outputs": [],
			"stateMutability": "nonpayable",
			"type": "function"
		},
		{
			"inputs": [
				{
					"internalType": "uint256",
					"name": "foodId",
					"type": "uint256"
				},
				{
					"internalType": "uint256",
					"name": "foodDetailId",
					"type": "uint256"
				}
			],
			"name": "deleteFoodDetail",
			"outputs": [],
			"stateMutability": "nonpayable",
			"type": "function"
		},
		{
			"inputs": [],
			"name": "getAllFoods",
			"outputs": [
				{
					"components": [
						{
							"components": [
								{
									"internalType": "uint256",
									"name": "foodId",
									"type": "uint256"
								},
								{
									"internalType": "string",
									"name": "name",
									"type": "string"
								},
								{
									"internalType": "string",
									"name": "description",
									"type": "string"
								},
								{
									"internalType": "uint256",
									"name": "categoryId",
									"type": "uint256"
								},
								{
									"internalType": "string[]",
									"name": "imageUrl",
									"type": "string[]"
								},
								{
									"internalType": "uint256",
									"name": "soldQuantity",
									"type": "uint256"
								},
								{
									"internalType": "uint256",
									"name": "quantity",
									"type": "uint256"
								},
								{
									"internalType": "uint256",
									"name": "sumRating",
									"type": "uint256"
								},
								{
									"internalType": "uint256",
									"name": "countRating",
									"type": "uint256"
								},
								{
									"internalType": "bool",
									"name": "isHidden",
									"type": "bool"
								}
							],
							"internalType": "struct Food",
							"name": "food",
							"type": "tuple"
						},
						{
							"components": [
								{
									"internalType": "uint256",
									"name": "foodDetailId",
									"type": "uint256"
								},
								{
									"internalType": "string",
									"name": "size",
									"type": "string"
								},
								{
									"internalType": "uint256",
									"name": "soldQuantity",
									"type": "uint256"
								},
								{
									"internalType": "uint256",
									"name": "quantity",
									"type": "uint256"
								},
								{
									"internalType": "uint256",
									"name": "price",
									"type": "uint256"
								}
							],
							"internalType": "struct FoodDetail[]",
							"name": "foodDetails",
							"type": "tuple[]"
						}
					],
					"internalType": "struct FoodWithDetails[]",
					"name": "",
					"type": "tuple[]"
				}
			],
			"stateMutability": "view",
			"type": "function"
		},
		{
			"inputs": [],
			"name": "getAllFoodsSortedBySoldQuantity",
			"outputs": [
				{
					"components": [
						{
							"internalType": "uint256",
							"name": "foodId",
							"type": "uint256"
						},
						{
							"internalType": "string",
							"name": "name",
							"type": "string"
						},
						{
							"internalType": "string",
							"name": "description",
							"type": "string"
						},
						{
							"internalType": "uint256",
							"name": "categoryId",
							"type": "uint256"
						},
						{
							"internalType": "string[]",
							"name": "imageUrl",
							"type": "string[]"
						},
						{
							"internalType": "uint256",
							"name": "soldQuantity",
							"type": "uint256"
						},
						{
							"internalType": "uint256",
							"name": "quantity",
							"type": "uint256"
						},
						{
							"internalType": "uint256",
							"name": "sumRating",
							"type": "uint256"
						},
						{
							"internalType": "uint256",
							"name": "countRating",
							"type": "uint256"
						},
						{
							"internalType": "bool",
							"name": "isHidden",
							"type": "bool"
						}
					],
					"internalType": "struct Food[]",
					"name": "",
					"type": "tuple[]"
				}
			],
			"stateMutability": "view",
			"type": "function"
		},
		{
			"inputs": [
				{
					"internalType": "uint256",
					"name": "_foodId",
					"type": "uint256"
				}
			],
			"name": "getFood",
			"outputs": [
				{
					"components": [
						{
							"internalType": "uint256",
							"name": "foodId",
							"type": "uint256"
						},
						{
							"internalType": "string",
							"name": "name",
							"type": "string"
						},
						{
							"internalType": "string",
							"name": "description",
							"type": "string"
						},
						{
							"internalType": "uint256",
							"name": "categoryId",
							"type": "uint256"
						},
						{
							"internalType": "string[]",
							"name": "imageUrl",
							"type": "string[]"
						},
						{
							"internalType": "uint256",
							"name": "soldQuantity",
							"type": "uint256"
						},
						{
							"internalType": "uint256",
							"name": "quantity",
							"type": "uint256"
						},
						{
							"internalType": "uint256",
							"name": "sumRating",
							"type": "uint256"
						},
						{
							"internalType": "uint256",
							"name": "countRating",
							"type": "uint256"
						},
						{
							"internalType": "bool",
							"name": "isHidden",
							"type": "bool"
						}
					],
					"internalType": "struct Food",
					"name": "",
					"type": "tuple"
				}
			],
			"stateMutability": "view",
			"type": "function"
		},
		{
			"inputs": [
				{
					"internalType": "uint256",
					"name": "_foodId",
					"type": "uint256"
				},
				{
					"internalType": "uint256",
					"name": "_foodDetailId",
					"type": "uint256"
				}
			],
			"name": "getFoodDetailByFoodId_FoodDetailId",
			"outputs": [
				{
					"components": [
						{
							"internalType": "uint256",
							"name": "foodDetailId",
							"type": "uint256"
						},
						{
							"internalType": "string",
							"name": "size",
							"type": "string"
						},
						{
							"internalType": "uint256",
							"name": "soldQuantity",
							"type": "uint256"
						},
						{
							"internalType": "uint256",
							"name": "quantity",
							"type": "uint256"
						},
						{
							"internalType": "uint256",
							"name": "price",
							"type": "uint256"
						}
					],
					"internalType": "struct FoodDetail",
					"name": "fd",
					"type": "tuple"
				}
			],
			"stateMutability": "view",
			"type": "function"
		},
		{
			"inputs": [
				{
					"internalType": "uint256",
					"name": "foodId",
					"type": "uint256"
				}
			],
			"name": "getFoodDetails",
			"outputs": [
				{
					"components": [
						{
							"internalType": "uint256",
							"name": "foodDetailId",
							"type": "uint256"
						},
						{
							"internalType": "string",
							"name": "size",
							"type": "string"
						},
						{
							"internalType": "uint256",
							"name": "soldQuantity",
							"type": "uint256"
						},
						{
							"internalType": "uint256",
							"name": "quantity",
							"type": "uint256"
						},
						{
							"internalType": "uint256",
							"name": "price",
							"type": "uint256"
						}
					],
					"internalType": "struct FoodDetail[]",
					"name": "",
					"type": "tuple[]"
				}
			],
			"stateMutability": "view",
			"type": "function"
		},
		{
			"inputs": [
				{
					"internalType": "uint256",
					"name": "_foodId",
					"type": "uint256"
				},
				{
					"internalType": "uint256",
					"name": "foodDetailId",
					"type": "uint256"
				},
				{
					"internalType": "uint256",
					"name": "_quantity",
					"type": "uint256"
				}
			],
			"name": "increaseQuantiy",
			"outputs": [],
			"stateMutability": "nonpayable",
			"type": "function"
		},
		{
			"inputs": [
				{
					"internalType": "uint256",
					"name": "_foodId",
					"type": "uint256"
				},
				{
					"internalType": "uint256",
					"name": "_foodDetailId",
					"type": "uint256"
				},
				{
					"internalType": "uint256",
					"name": "_quantity",
					"type": "uint256"
				}
			],
			"name": "increaseSoldQuantiy",
			"outputs": [],
			"stateMutability": "nonpayable",
			"type": "function"
		},
		{
			"inputs": [],
			"name": "nextFoodDetailId",
			"outputs": [
				{
					"internalType": "uint256",
					"name": "",
					"type": "uint256"
				}
			],
			"stateMutability": "view",
			"type": "function"
		},
		{
			"inputs": [],
			"name": "nextFoodId",
			"outputs": [
				{
					"internalType": "uint256",
					"name": "",
					"type": "uint256"
				}
			],
			"stateMutability": "view",
			"type": "function"
		},
		{
			"inputs": [
				{
					"internalType": "uint256",
					"name": "_foodId",
					"type": "uint256"
				},
				{
					"internalType": "uint256",
					"name": "foodDetailId",
					"type": "uint256"
				},
				{
					"internalType": "uint256",
					"name": "_quantity",
					"type": "uint256"
				}
			],
			"name": "reduceQuantiy",
			"outputs": [],
			"stateMutability": "nonpayable",
			"type": "function"
		},
		{
			"inputs": [
				{
					"internalType": "uint256",
					"name": "_foodId",
					"type": "uint256"
				},
				{
					"internalType": "uint256",
					"name": "foodDetailId",
					"type": "uint256"
				},
				{
					"internalType": "uint256",
					"name": "_quantity",
					"type": "uint256"
				}
			],
			"name": "reduceSoldQuantiy",
			"outputs": [],
			"stateMutability": "nonpayable",
			"type": "function"
		},
		{
			"inputs": [],
			"name": "roleAccess",
			"outputs": [
				{
					"internalType": "contract RoleAccess",
					"name": "",
					"type": "address"
				}
			],
			"stateMutability": "view",
			"type": "function"
		},
		{
			"inputs": [
				{
					"internalType": "uint256",
					"name": "_foodId",
					"type": "uint256"
				},
				{
					"internalType": "bool",
					"name": "hidden",
					"type": "bool"
				}
			],
			"name": "setFoodVisibility",
			"outputs": [],
			"stateMutability": "nonpayable",
			"type": "function"
		},
		{
			"inputs": [
				{
					"internalType": "uint256",
					"name": "_foodId",
					"type": "uint256"
				},
				{
					"internalType": "string",
					"name": "_name",
					"type": "string"
				},
				{
					"internalType": "string",
					"name": "_description",
					"type": "string"
				},
				{
					"internalType": "uint256",
					"name": "_categoryId",
					"type": "uint256"
				},
				{
					"internalType": "string[]",
					"name": "_imageUrl",
					"type": "string[]"
				}
			],
			"name": "updateFood",
			"outputs": [],
			"stateMutability": "nonpayable",
			"type": "function"
		},
		{
			"inputs": [
				{
					"internalType": "uint256",
					"name": "foodId",
					"type": "uint256"
				},
				{
					"internalType": "uint256",
					"name": "foodDetailId",
					"type": "uint256"
				},
				{
					"components": [
						{
							"internalType": "string",
							"name": "size",
							"type": "string"
						},
						{
							"internalType": "uint256",
							"name": "quantity",
							"type": "uint256"
						},
						{
							"internalType": "uint256",
							"name": "price",
							"type": "uint256"
						}
					],
					"internalType": "struct UpdateFoodDetail",
					"name": "newDetail",
					"type": "tuple"
				}
			],
			"name": "updateFoodDetail",
			"outputs": [],
			"stateMutability": "nonpayable",
			"type": "function"
		}
	]
}