{
	"data": {
		"bytecode": {
			"linkReferences": {},
			"object": "6080604052600160025560016003553480156018575f5ffd5b5060405161461b38038061461b833981016040819052603591607e565b5f80546001600160a01b039384166001600160a01b0319918216179091556001805492909316911617905560aa565b80516001600160a01b03811681146079575f5ffd5b919050565b5f5f60408385031215608e575f5ffd5b6095836064565b915060a1602084016064565b90509250929050565b614564806100b75f395ff3fe608060405234801561000f575f5ffd5b50600436106101ba575f3560e01c80636c6b5baf116100f3578063baf8530611610093578063cb0769b01161006e578063cb0769b0146103da578063d198b650146103e2578063d86ec238146103f5578063e21ba8c614610407575f5ffd5b8063baf85306146103a1578063c1d9726f146103b4578063cae79225146103c7575f5ffd5b8063a6bc8c6a116100ce578063a6bc8c6a14610344578063af5607f914610359578063b447aaae14610379578063b9b5aae61461038c575f5ffd5b80636c6b5baf1461030b5780636dd2dd881461031e5780639a69bfa614610331575f5ffd5b806328139b8d1161015e57806342f54b891161013957806342f54b89146102a75780634d30a39b146102d257806361ce7f78146102e557806364f77471146102f8575f5ffd5b806328139b8d146102615780633143e00f146102745780633508551514610287575f5ffd5b806314531a671161019957806314531a67146101f95780631945ef58146102215780631b0d77cc146102385780631e4de87214610241575f5ffd5b8062e081dd146101be57806305207db2146101d3578063094b9a53146101e6575b5f5ffd5b6101d16101cc3660046138eb565b61040f565b005b6101d16101e1366004613921565b6104d9565b6101d16101f43660046138eb565b6105f7565b61020c61020736600461394f565b6106b7565b60405190151581526020015b60405180910390f35b61022a60025481565b604051908152602001610218565b61022a60035481565b61025461024f36600461396f565b61071c565b6040516102189190613ab5565b6101d161026f36600461394f565b6109b2565b6101d16102823660046138eb565b610a00565b61029a61029536600461394f565b610a83565b6040516102189190613b22565b6001546102ba906001600160a01b031681565b6040516001600160a01b039091168152602001610218565b6101d16102e036600461394f565b610c7a565b6101d16102f3366004613b34565b610ff6565b6101d1610306366004613d6f565b6111b6565b6101d16103193660046138eb565b61140e565b6101d161032c366004613e30565b6115dc565b6101d161033f3660046138eb565b6117f2565b61034c611a14565b6040516102189190613ece565b61036c61036736600461396f565b611e39565b6040516102189190613f7f565b6101d1610387366004613f91565b611f96565b61039461246c565b6040516102189190614057565b6101d16103af3660046140d5565b612a5d565b6101d16103c236600461394f565b612c54565b61022a6103d536600461394f565b612cd8565b610394612d03565b6101d16103f036600461396f565b6131dd565b5f546102ba906001600160a01b031681565b61036c6133f6565b5f5b5f848152600560205260409020548110156104ae575f84815260056020526040902080548491908390811061044857610448614120565b905f5260205f2090600602015f0154036104a6575f84815260056020526040902080548391908390811061047e5761047e614120565b905f5260205f2090600602016002015f82825461049b9190614148565b909155506104ae9050565b600101610411565b505f83815260046020526040812060050180548392906104cf908490614148565b9091555050505050565b6001546040516395a8c58d60e01b81526001600160a01b03909116906395a8c58d9061050b9032905f9060040161415b565b602060405180830381865afa158015610526573d5f5f3e3d5ffd5b505050506040513d601f19601f8201168201806040525081019061054a9190614194565b61056f5760405162461bcd60e51b8152600401610566906141af565b60405180910390fd5b5f82815260046020526040812054900361059b5760405162461bcd60e51b8152600401610566906141d2565b5f82815260046020908152604091829020600901805460ff19168415159081179091558251858152918201527f8a071af4af756e1456f442c6adfa4a285d076afc427d8e2d440d78cf31bcef8791015b60405180910390a15050565b5f5b5f84815260056020526040902054811015610696575f84815260056020526040902080548491908390811061063057610630614120565b905f5260205f2090600602015f01540361068e575f84815260056020526040902080548391908390811061066657610666614120565b905f5260205f2090600602016003015f8282546106839190614148565b909155506106969050565b6001016105f9565b505f83815260046020526040812060060180548392906104cf908490614148565b5f805b5f83815260076020526040902054811015610711575f8381526007602052604090208054859190839081106106f1576106f1614120565b905f5260205f20015403610709576001915050610716565b6001016106ba565b505f90505b92915050565b610724613714565b5f8281526004602052604081205490036107505760405162461bcd60e51b8152600401610566906141d2565b60045f8381526020019081526020015f20604051806101400160405290815f8201548152602001600182018054610786906141ff565b80601f01602080910402602001604051908101604052809291908181526020018280546107b2906141ff565b80156107fd5780601f106107d4576101008083540402835291602001916107fd565b820191905f5260205f20905b8154815290600101906020018083116107e057829003601f168201915b50505050508152602001600282018054610816906141ff565b80601f0160208091040260200160405190810160405280929190818152602001828054610842906141ff565b801561088d5780601f106108645761010080835404028352916020019161088d565b820191905f5260205f20905b81548152906001019060200180831161087057829003601f168201915b505050505081526020016003820154815260200160048201805480602002602001604051908101604052809291908181526020015f905b8282101561096c578382905f5260205f200180546108e1906141ff565b80601f016020809104026020016040519081016040528092919081815260200182805461090d906141ff565b80156109585780601f1061092f57610100808354040283529160200191610958565b820191905f5260205f20905b81548152906001019060200180831161093b57829003601f168201915b5050505050815260200190600101906108c4565b505050908252506005820154602082015260068201546040820152600782015460608201526008820154608082015260099091015460ff16151560a09091015292915050565b5f8181526004602052604081205490036109de5760405162461bcd60e51b8152600401610566906141d2565b5f91825260076020908152604083208054600181018255908452922090910155565b5f83815260046020526040902054610a2a5760405162461bcd60e51b8152600401610566906141d2565b5f838152600460209081526040918290206007810185905560080183905581518581529081018490527f2b1620dbaa1055a3eb2ed172b9b42ea8057846cb255676cc6b555132e5d656cd910160405180910390a1505050565b610a8b613762565b5f83815260056020526040902054610ad65760405162461bcd60e51b815260206004820152600e60248201526d125b9d985b1a5908199bdbd9125960921b6044820152606401610566565b5f5b5f84815260056020526040902054811015610c31575f848152600560205260409020805484919083908110610b0f57610b0f614120565b905f5260205f2090600602015f015403610c29575f848152600560205260409020805482908110610b4257610b42614120565b905f5260205f2090600602016040518060c00160405290815f8201548152602001600182018054610b72906141ff565b80601f0160208091040260200160405190810160405280929190818152602001828054610b9e906141ff565b8015610be95780601f10610bc057610100808354040283529160200191610be9565b820191905f5260205f20905b815481529060010190602001808311610bcc57829003601f168201915b505050918352505060028201546020820152600382015460408201526004820154606082015260059091015460ff16151560809091015291506107169050565b600101610ad8565b5060405162461bcd60e51b815260206004820152601960248201527f466f6f6444657461696c206e6f7420666f756e64205f5f5f2e000000000000006044820152606401610566565b6001546040516395a8c58d60e01b81526001600160a01b03909116906395a8c58d90610cac9032905f9060040161415b565b602060405180830381865afa158015610cc7573d5f5f3e3d5ffd5b505050506040513d601f19601f82011682018060405250810190610ceb9190614194565b610d075760405162461bcd60e51b8152600401610566906141af565b5f828152600460205260408120549003610d335760405162461bcd60e51b8152600401610566906141d2565b5f82815260056020526040812090805b8254811015610fd25783838281548110610d5f57610d5f614120565b905f5260205f2090600602015f015403610fca578254600110610dbe576040518060c001604052805f815260200160405180602001604052805f81525081526020015f81526020015f81526020015f81526020015f1515815250610ebd565b82548390610dce90600190614237565b81548110610dde57610dde614120565b905f5260205f2090600602016040518060c00160405290815f8201548152602001600182018054610e0e906141ff565b80601f0160208091040260200160405190810160405280929190818152602001828054610e3a906141ff565b8015610e855780601f10610e5c57610100808354040283529160200191610e85565b820191905f5260205f20905b815481529060010190602001808311610e6857829003601f168201915b505050918352505060028201546020820152600382015460408201526004820154606082015260059091015460ff1615156080909101525b838281548110610ecf57610ecf614120565b905f5260205f2090600602015f820151815f01556020820151816001019081610ef8919061428e565b5060408201516002820155606082015160038201556080820151600482015560a0909101516005909101805460ff19169115159190911790558254839080610f4257610f42614348565b5f8281526020812060065f199093019283020181815590610f666001830182613795565b505f60028201819055600382018190556004820155600501805460ff1916905590556040805186815260208101869052600193507f55caa6a55acb7e3464dc13c54d94739e0f01b9141276caebb64f3ef500cd8900910160405180910390a1610fd2565b600101610d43565b5080610ff05760405162461bcd60e51b81526004016105669061435c565b50505050565b6001546040516395a8c58d60e01b81526001600160a01b03909116906395a8c58d906110289032905f9060040161415b565b602060405180830381865afa158015611043573d5f5f3e3d5ffd5b505050506040513d601f19601f820116820180604052508101906110679190614194565b6110835760405162461bcd60e51b8152600401610566906141af565b5f8381526004602052604081205490036110af5760405162461bcd60e51b8152600401610566906141d2565b5f805b5f85815260056020526040902054811015611151575f8581526005602052604090208054859190839081106110e9576110e9614120565b905f5260205f2090600602015f015403611149575f85815260056020526040902080548491908390811061111f5761111f614120565b5f9182526020909120600690910201600501805460ff191691151591909117905560019150611151565b6001016110b2565b508061116f5760405162461bcd60e51b81526004016105669061435c565b60408051858152602081018590528315158183015290517f0a3fd0c95f630ab397363cef70f0f9c67bbd8da3ee6b6aef206c7e06535675959181900360600190a150505050565b6001546040516395a8c58d60e01b81526001600160a01b03909116906395a8c58d906111e89032905f9060040161415b565b602060405180830381865afa158015611203573d5f5f3e3d5ffd5b505050506040513d601f19601f820116820180604052508101906112279190614194565b6112435760405162461bcd60e51b8152600401610566906141af565b5f82815260046020526040812054900361126f5760405162461bcd60e51b8152600401610566906141d2565b5f5b81518110156113dd5760038054905f61128983614393565b91905055505f6040518060c0016040528060035481526020018484815181106112b4576112b4614120565b60200260200101515f015181526020015f81526020018484815181106112dc576112dc614120565b60200260200101516020015181526020018484815181106112ff576112ff614120565b60200260200101516040015181526020015f1515815250905082828151811061132a5761132a614120565b60200260200101516020015160045f8681526020019081526020015f206006015f8282546113589190614148565b90915550505f84815260056020908152604082208054600181810183559184529282902084516006909402019283559083015183929182019061139b908261428e565b5060408201516002820155606082015160038201556080820151600482015560a0909101516005909101805460ff191691151591909117905550600101611271565b506040518281527f19a8e56286393226625dcdbc7cbb5a7611c71773d54c7e0680658cb9ceef6c22906020016105eb565b5f5b5f84815260056020526040902054811015611545575f84815260056020526040902080548491908390811061144757611447614120565b905f5260205f2090600602015f01540361153d575f84815260056020526040902080548391908390811061147d5761147d614120565b905f5260205f2090600602016002015410156114f35760405162461bcd60e51b815260206004820152602f60248201527f5175616e74697479277320666f6f642064657461696c2063616e6e6f7420626560448201526e020736d616c6c6572207468616e203608c1b6064820152608401610566565b5f84815260056020526040902080548391908390811061151557611515614120565b905f5260205f2090600602016002015f8282546115329190614237565b909155506115459050565b600101611410565b505f838152600460205260409020600501548111156115bc5760405162461bcd60e51b815260206004820152602d60248201527f536f6c64207175616e74697479277320666f6f642063616e6e6f74206265207360448201526c06d616c6c6572207468616e203609c1b6064820152608401610566565b5f83815260046020526040812060050180548392906104cf908490614237565b6001546040516395a8c58d60e01b81526001600160a01b03909116906395a8c58d9061160e9032905f9060040161415b565b602060405180830381865afa158015611629573d5f5f3e3d5ffd5b505050506040513d601f19601f8201168201806040525081019061164d9190614194565b6116695760405162461bcd60e51b8152600401610566906141af565b5f8581526004602052604081205490036116955760405162461bcd60e51b8152600401610566906141d2565b5f54604051637982969360e11b8152600481018490526001600160a01b039091169063f3052d26906024015f60405180830381865afa1580156116da573d5f5f3e3d5ffd5b505050506040513d5f823e601f3d908101601f1916820160405261170191908101906143ab565b515f0361174a5760405162461bcd60e51b815260206004820152601760248201527610d85d1959dbdc9e48191bd95cc81b9bdd08195e1a5cdd604a1b6044820152606401610566565b5f858152600460205260409020600101611764858261428e565b505f85815260046020526040902060020161177f848261428e565b505f8581526004602081815260409092206003810185905583516117ab939190920191908401906137cc565b507f4f49710e0e59ea2e7096d7bad0267390d8bb5c007687f72b0de2db3afdadd5e585858585856040516117e395949392919061445a565b60405180910390a15050505050565b61185060405180604001604052806006815260200165119bdbd9125960d21b81525060045f8681526020019081526020015f2060060154604051806040016040528060088152602001675175616e7469747960c01b815250846136a5565b5f5b5f84815260056020526040902054811015611982575f84815260056020526040902080548491908390811061188957611889614120565b905f5260205f2090600602015f01540361197a575f8481526005602052604090208054829081106118bc576118bc614120565b905f5260205f2090600602016003015482106119305760405162461bcd60e51b815260206004820152602d60248201527f5175616e74697479277320666f6f64206974656d2063616e6e6f74206265207360448201526c06d616c6c6572207468616e203609c1b6064820152608401610566565b5f84815260056020526040902080548391908390811061195257611952614120565b905f5260205f2090600602016003015f82825461196f9190614237565b909155506119829050565b600101611852565b505f838152600460205260409020600601548111156119f45760405162461bcd60e51b815260206004820152602860248201527f5175616e74697479277320666f6f642063616e6e6f7420626520736d616c6c65604482015267072207468616e20360c41b6064820152608401610566565b5f83815260046020526040812060060180548392906104cf908490614237565b6006546060905f816001600160401b03811115611a3357611a33613b6a565b604051908082528060200260200182016040528015611a6c57816020015b611a59613714565b815260200190600190039081611a515790505b5090505f5b82811015611d175760045f60068381548110611a8f57611a8f614120565b905f5260205f20015481526020019081526020015f20604051806101400160405290815f8201548152602001600182018054611aca906141ff565b80601f0160208091040260200160405190810160405280929190818152602001828054611af6906141ff565b8015611b415780601f10611b1857610100808354040283529160200191611b41565b820191905f5260205f20905b815481529060010190602001808311611b2457829003601f168201915b50505050508152602001600282018054611b5a906141ff565b80601f0160208091040260200160405190810160405280929190818152602001828054611b86906141ff565b8015611bd15780601f10611ba857610100808354040283529160200191611bd1565b820191905f5260205f20905b815481529060010190602001808311611bb457829003601f168201915b505050505081526020016003820154815260200160048201805480602002602001604051908101604052809291908181526020015f905b82821015611cb0578382905f5260205f20018054611c25906141ff565b80601f0160208091040260200160405190810160405280929190818152602001828054611c51906141ff565b8015611c9c5780601f10611c7357610100808354040283529160200191611c9c565b820191905f5260205f20905b815481529060010190602001808311611c7f57829003601f168201915b505050505081526020019060010190611c08565b505050908252506005820154602082015260068201546040820152600782015460608201526008820154608082015260099091015460ff16151560a0909101528251839083908110611d0457611d04614120565b6020908102919091010152600101611a71565b505f5b611d25600184614237565b811015611e32575f5b6001611d3a8386614237565b611d449190614237565b811015611e295782611d57826001614148565b81518110611d6757611d67614120565b602002602001015160a00151838281518110611d8557611d85614120565b602002602001015160a001511015611e21575f838281518110611daa57611daa614120565b6020026020010151905083826001611dc29190614148565b81518110611dd257611dd2614120565b6020026020010151848381518110611dec57611dec614120565b60209081029190910101528084611e04846001614148565b81518110611e1457611e14614120565b6020026020010181905250505b600101611d2e565b50600101611d1a565b5092915050565b5f8181526004602052604081205460609103611e675760405162461bcd60e51b8152600401610566906141d2565b5f82815260056020908152604080832080548251818502810185019093528083529193909284015b82821015611f8b578382905f5260205f2090600602016040518060c00160405290815f8201548152602001600182018054611ec9906141ff565b80601f0160208091040260200160405190810160405280929190818152602001828054611ef5906141ff565b8015611f405780601f10611f1757610100808354040283529160200191611f40565b820191905f5260205f20905b815481529060010190602001808311611f2357829003601f168201915b50505091835250506002820154602080830191909152600383015460408301526004830154606083015260059092015460ff1615156080909101529082526001929092019101611e8f565b505050509050919050565b6001546040516395a8c58d60e01b81526001600160a01b03909116906395a8c58d90611fc89032905f9060040161415b565b602060405180830381865afa158015611fe3573d5f5f3e3d5ffd5b505050506040513d601f19601f820116820180604052508101906120079190614194565b6120235760405162461bcd60e51b8152600401610566906141af565b5f868152600460205260409020541561207e5760405162461bcd60e51b815260206004820181905260248201527f466f6f642077697468207468697320494420616c7265616479206578697374736044820152606401610566565b5f54604051637982969360e11b8152600481018590526001600160a01b039091169063f3052d26906024015f60405180830381865afa1580156120c3573d5f5f3e3d5ffd5b505050506040513d5f823e601f3d908101601f191682016040526120ea91908101906143ab565b515f036121335760405162461bcd60e51b815260206004820152601760248201527610d85d1959dbdc9e48191bd95cc81b9bdd08195e1a5cdd604a1b6044820152606401610566565b5f805b82518110156121725782818151811061215157612151614120565b602002602001015160200151826121689190614148565b9150600101612136565b506040805161014081018252888152602080820189815282840189905260608301889052608083018790525f60a0840181905260c0840186905260e08401819052610100840181905261012084018190528b815260049092529290208151815591519091829160018201906121e7908261428e565b50604082015160028201906121fc908261428e565b5060608201516003820155608082015180516122229160048401916020909101906137cc565b5060a0820151600582015560c082015160068083019190915560e083015160078301556101008301516008830155610120909201516009909101805460ff191691151591909117905580546001810182555f9182527ff652222313e28459528d920b65115c16c04f3efc82aaedc97be59f3f377c0d3f01899055546040516317e01a7360e21b815260048101879052602481018a90526001600160a01b0390911690635f8069cc906044015f604051808303815f87803b1580156122e4575f5ffd5b505af11580156122f6573d5f5f3e3d5ffd5b505f925050505b8351811015612422575f6040518060c0016040528060035f81548092919061232490614393565b91905055815260200186848151811061233f5761233f614120565b60200260200101515f015181526020015f815260200186848151811061236757612367614120565b602002602001015160200151815260200186848151811061238a5761238a614120565b60209081029190910181015160409081015183525f9282018390528d8352600582528220805460018181018355918452928290208451600690940201928355908301519293508392908201906123e0908261428e565b5060408201516002820155606082015160038201556080820151600482015560a0909101516005909101805460ff1916911515919091179055506001016122fd565b507fbdf2814016d06bf27f22aa349fade26a888a8f7eac3e0963916b1c64cc37a5ce888888888860405161245a95949392919061445a565b60405180910390a15050505050505050565b60605f805b6006548110156124ce575f6006828154811061248f5761248f614120565b5f918252602080832090910154808352600490915260409091206009015490915060ff166124c557826124c181614393565b9350505b50600101612471565b505f816001600160401b038111156124e8576124e8613b6a565b60405190808252806020026020018201604052801561252157816020015b61250e613820565b8152602001906001900390816125065790505b5090505f805b600654811015612a54575f6006828154811061254557612545614120565b5f918252602080832090910154808352600490915260409091206009015490915060ff16612a4b575f805b5f838152600560205260409020548110156125d4575f8381526005602052604090208054829081106125a4576125a4614120565b5f91825260209091206005600690920201015460ff166125cc57816125c881614393565b9250505b600101612570565b505f816001600160401b038111156125ee576125ee613b6a565b60405190808252806020026020018201604052801561262757816020015b612614613762565b81526020019060019003908161260c5790505b5090505f805b5f858152600560205260409020548110156127ae575f85815260056020526040902080548290811061266157612661614120565b5f91825260209091206005600690920201015460ff166127a6575f85815260056020526040902080548290811061269a5761269a614120565b905f5260205f2090600602016040518060c00160405290815f82015481526020016001820180546126ca906141ff565b80601f01602080910402602001604051908101604052809291908181526020018280546126f6906141ff565b80156127415780601f1061271857610100808354040283529160200191612741565b820191905f5260205f20905b81548152906001019060200180831161272457829003601f168201915b505050918352505060028201546020820152600382015460408201526004820154606082015260059091015460ff161515608090910152835184908490811061278c5761278c614120565b602002602001018190525081806127a290614393565b9250505b60010161262d565b50604080515f86815260046020528290206101808201835280549282019283526001810180549293849390929160608501916127e9906141ff565b80601f0160208091040260200160405190810160405280929190818152602001828054612815906141ff565b80156128605780601f1061283757610100808354040283529160200191612860565b820191905f5260205f20905b81548152906001019060200180831161284357829003601f168201915b50505050508152602001600282018054612879906141ff565b80601f01602080910402602001604051908101604052809291908181526020018280546128a5906141ff565b80156128f05780601f106128c7576101008083540402835291602001916128f0565b820191905f5260205f20905b8154815290600101906020018083116128d357829003601f168201915b505050505081526020016003820154815260200160048201805480602002602001604051908101604052809291908181526020015f905b828210156129cf578382905f5260205f20018054612944906141ff565b80601f0160208091040260200160405190810160405280929190818152602001828054612970906141ff565b80156129bb5780601f10612992576101008083540402835291602001916129bb565b820191905f5260205f20905b81548152906001019060200180831161299e57829003601f168201915b505050505081526020019060010190612927565b50505090825250600582015460208083019190915260068301546040830152600783015460608301526008830154608083015260099092015460ff16151560a090910152908252018390528751889088908110612a2e57612a2e614120565b60200260200101819052508580612a4490614393565b9650505050505b50600101612527565b50909392505050565b6001546040516395a8c58d60e01b81526001600160a01b03909116906395a8c58d90612a8f9032905f9060040161415b565b602060405180830381865afa158015612aaa573d5f5f3e3d5ffd5b505050506040513d601f19601f82011682018060405250810190612ace9190614194565b612aea5760405162461bcd60e51b8152600401610566906141af565b5f838152600460205260408120549003612b165760405162461bcd60e51b8152600401610566906141d2565b5f83815260056020526040812090805b8254811015612c2f5784838281548110612b4257612b42614120565b905f5260205f2090600602015f015403612c2757835f0151838281548110612b6c57612b6c614120565b905f5260205f2090600602016001019081612b87919061428e565b508360200151838281548110612b9f57612b9f614120565b905f5260205f209060060201600301819055508360400151838281548110612bc957612bc9614120565b905f5260205f20906006020160040181905550600191507fe29e1e70959f0c301943d01c4bd294592a2105bc81e9b2523c4b1d7f7d1f393f8686604051612c1a929190918252602082015260400190565b60405180910390a1612c2f565b600101612b26565b5080612c4d5760405162461bcd60e51b81526004016105669061435c565b5050505050565b5f5b5f82815260076020526040902054811015612cd3575f828152600760205260409020805484919083908110612c8d57612c8d614120565b905f5260205f20015403612ccb575f828152600760205260409020805480612cb757612cb7614348565b600190038181905f5260205f20015f905590555b600101612c56565b505050565b6007602052815f5260405f208181548110612cf1575f80fd5b905f5260205f20015f91509150505481565b60605f805b600654811015612d66575f60068281548110612d2657612d26614120565b5f918252602080832090910154808352600490915260409091206009015490915060ff1615612d5d5782612d5981614393565b9350505b50600101612d08565b505f816001600160401b03811115612d8057612d80613b6a565b604051908082528060200260200182016040528015612db957816020015b612da6613820565b815260200190600190039081612d9e5790505b5090505f805b600654811015612a54575f60068281548110612ddd57612ddd614120565b5f918252602080832090910154808352600490915260409091206009015490915060ff16156131d457604080515f8381526004602052829020610180820183528054928201928352600181018054929384939092916060850191612e40906141ff565b80601f0160208091040260200160405190810160405280929190818152602001828054612e6c906141ff565b8015612eb75780601f10612e8e57610100808354040283529160200191612eb7565b820191905f5260205f20905b815481529060010190602001808311612e9a57829003601f168201915b50505050508152602001600282018054612ed0906141ff565b80601f0160208091040260200160405190810160405280929190818152602001828054612efc906141ff565b8015612f475780601f10612f1e57610100808354040283529160200191612f47565b820191905f5260205f20905b815481529060010190602001808311612f2a57829003601f168201915b505050505081526020016003820154815260200160048201805480602002602001604051908101604052809291908181526020015f905b82821015613026578382905f5260205f20018054612f9b906141ff565b80601f0160208091040260200160405190810160405280929190818152602001828054612fc7906141ff565b80156130125780601f10612fe957610100808354040283529160200191613012565b820191905f5260205f20905b815481529060010190602001808311612ff557829003601f168201915b505050505081526020019060010190612f7e565b50505050815260200160058201548152602001600682015481526020016007820154815260200160088201548152602001600982015f9054906101000a900460ff161515151581525050815260200160055f8481526020019081526020015f20805480602002602001604051908101604052809291908181526020015f905b828210156131a1578382905f5260205f2090600602016040518060c00160405290815f82015481526020016001820180546130df906141ff565b80601f016020809104026020016040519081016040528092919081815260200182805461310b906141ff565b80156131565780601f1061312d57610100808354040283529160200191613156565b820191905f5260205f20905b81548152906001019060200180831161313957829003601f168201915b50505091835250506002820154602080830191909152600383015460408301526004830154606083015260059092015460ff16151560809091015290825260019290920191016130a5565b505050508152508484815181106131ba576131ba614120565b602002602001018190525082806131d090614393565b9350505b50600101612dbf565b6001546040516395a8c58d60e01b81526001600160a01b03909116906395a8c58d9061320f9032905f9060040161415b565b602060405180830381865afa15801561322a573d5f5f3e3d5ffd5b505050506040513d601f19601f8201168201806040525081019061324e9190614194565b61326a5760405162461bcd60e51b8152600401610566906141af565b5f8181526004602052604081205490036132965760405162461bcd60e51b8152600401610566906141d2565b5f818152600460205260408120818155906132b46001830182613795565b6132c1600283015f613795565b600382015f9055600482015f6132d79190613840565b505f60058281018290556006830182905560078301829055600883018290556009909201805460ff19169055828152602091909152604081206133199161385b565b5f5b6006548110156133bf57816006828154811061333957613339614120565b905f5260205f200154036133b7576006805461335790600190614237565b8154811061336757613367614120565b905f5260205f2001546006828154811061338357613383614120565b5f91825260209091200155600680548061339f5761339f614348565b600190038181905f5260205f20015f905590556133bf565b60010161331b565b506040518181527f4d4e7c43d5805933523b1317fdd5acb7517962d3e9f52834633b9f01494772959060200160405180910390a150565b60605f805b600654811015613495575f6006828154811061341957613419614120565b5f91825260208220015491505b5f8281526005602052604090205481101561348b575f82815260056020526040902080548290811061345a5761345a614120565b5f91825260209091206005600690920201015460ff1615613483578361347f81614393565b9450505b600101613426565b50506001016133fb565b505f816001600160401b038111156134af576134af613b6a565b6040519080825280602002602001820160405280156134e857816020015b6134d5613762565b8152602001906001900390816134cd5790505b5090505f805b600654811015612a54575f6006828154811061350c5761350c614120565b5f91825260208220015491505b5f8281526005602052604090205481101561369b575f82815260056020526040902080548290811061354d5761354d614120565b5f91825260209091206005600690920201015460ff1615613693575f82815260056020526040902080548290811061358757613587614120565b905f5260205f2090600602016040518060c00160405290815f82015481526020016001820180546135b7906141ff565b80601f01602080910402602001604051908101604052809291908181526020018280546135e3906141ff565b801561362e5780601f106136055761010080835404028352916020019161362e565b820191905f5260205f20905b81548152906001019060200180831161361157829003601f168201915b505050918352505060028201546020820152600382015460408201526004820154606082015260059091015460ff161515608090910152855186908690811061367957613679614120565b6020026020010181905250838061368f90614393565b9450505b600101613519565b50506001016134ee565b610ff0848484846040516024016136bf94939291906144f2565b60408051601f198184030181529190526020810180516001600160e01b031663c67ea9d160e01b1790526136f2816136f5565b50565b5f6a636f6e736f6c652e6c6f6790505f5f835160208501845afa505050565b6040518061014001604052805f815260200160608152602001606081526020015f8152602001606081526020015f81526020015f81526020015f81526020015f81526020015f151581525090565b6040518060c001604052805f8152602001606081526020015f81526020015f81526020015f81526020015f151581525090565b5080546137a1906141ff565b5f825580601f106137b0575050565b601f0160209004905f5260205f20908101906136f29190613879565b828054828255905f5260205f20908101928215613810579160200282015b828111156138105782518290613800908261428e565b50916020019190600101906137ea565b5061381c92915061388d565b5090565b6040518060400160405280613833613714565b8152602001606081525090565b5080545f8255905f5260205f20908101906136f2919061388d565b5080545f8255600602905f5260205f20908101906136f291906138a9565b5b8082111561381c575f815560010161387a565b8082111561381c575f6138a08282613795565b5060010161388d565b8082111561381c575f8082556138c26001830182613795565b505f6002820181905560038201819055600482015560058101805460ff191690556006016138a9565b5f5f5f606084860312156138fd575f5ffd5b505081359360208301359350604090920135919050565b80151581146136f2575f5ffd5b5f5f60408385031215613932575f5ffd5b82359150602083013561394481613914565b809150509250929050565b5f5f60408385031215613960575f5ffd5b50508035926020909101359150565b5f6020828403121561397f575f5ffd5b5035919050565b5f81518084528060208401602086015e5f602082860101526020601f19601f83011685010191505092915050565b5f82825180855260208501945060208160051b830101602085015f5b83811015613a0257601f198584030188526139ec838351613986565b60209889019890935091909101906001016139d0565b50909695505050505050565b805182525f60208201516101406020850152613a2e610140850182613986565b905060408301518482036040860152613a478282613986565b9150506060830151606085015260808301518482036080860152613a6b82826139b4565b91505060a083015160a085015260c083015160c085015260e083015160e0850152610100830151610100850152610120830151613aad61012086018215159052565b509392505050565b602081525f613ac76020830184613a0e565b9392505050565b805182525f602082015160c06020850152613aec60c0850182613986565b905060408301516040850152606083015160608501526080830151608085015260a0830151151560a08501528091505092915050565b602081525f613ac76020830184613ace565b5f5f5f60608486031215613b46575f5ffd5b83359250602084013591506040840135613b5f81613914565b809150509250925092565b634e487b7160e01b5f52604160045260245ffd5b604080519081016001600160401b0381118282101715613ba057613ba0613b6a565b60405290565b604051601f8201601f191681016001600160401b0381118282101715613bce57613bce613b6a565b604052919050565b5f6001600160401b03821115613bee57613bee613b6a565b5060051b60200190565b5f6001600160401b03821115613c1057613c10613b6a565b50601f01601f191660200190565b5f82601f830112613c2d575f5ffd5b8135613c40613c3b82613bf8565b613ba6565b818152846020838601011115613c54575f5ffd5b816020850160208301375f918101602001919091529392505050565b5f60608284031215613c80575f5ffd5b604051606081016001600160401b0381118282101715613ca257613ca2613b6a565b60405290508082356001600160401b03811115613cbd575f5ffd5b613cc985828601613c1e565b82525060208381013590820152604092830135920191909152919050565b5f82601f830112613cf6575f5ffd5b8135613d04613c3b82613bd6565b8082825260208201915060208360051b860101925085831115613d25575f5ffd5b602085015b83811015613d655780356001600160401b03811115613d47575f5ffd5b613d56886020838a0101613c70565b84525060209283019201613d2a565b5095945050505050565b5f5f60408385031215613d80575f5ffd5b8235915060208301356001600160401b03811115613d9c575f5ffd5b613da885828601613ce7565b9150509250929050565b5f82601f830112613dc1575f5ffd5b8135613dcf613c3b82613bd6565b8082825260208201915060208360051b860101925085831115613df0575f5ffd5b602085015b83811015613d655780356001600160401b03811115613e12575f5ffd5b613e21886020838a0101613c1e565b84525060209283019201613df5565b5f5f5f5f5f60a08688031215613e44575f5ffd5b8535945060208601356001600160401b03811115613e60575f5ffd5b613e6c88828901613c1e565b94505060408601356001600160401b03811115613e87575f5ffd5b613e9388828901613c1e565b9350506060860135915060808601356001600160401b03811115613eb5575f5ffd5b613ec188828901613db2565b9150509295509295909350565b5f602082016020835280845180835260408501915060408160051b8601019250602086015f5b82811015613f2557603f19878603018452613f10858351613a0e565b94506020938401939190910190600101613ef4565b50929695505050505050565b5f82825180855260208501945060208160051b830101602085015f5b83811015613a0257601f19858403018852613f69838351613ace565b6020988901989093509190910190600101613f4d565b602081525f613ac76020830184613f31565b5f5f5f5f5f5f60c08789031215613fa6575f5ffd5b8635955060208701356001600160401b03811115613fc2575f5ffd5b613fce89828a01613c1e565b95505060408701356001600160401b03811115613fe9575f5ffd5b613ff589828a01613c1e565b9450506060870135925060808701356001600160401b03811115614017575f5ffd5b61402389828a01613db2565b92505060a08701356001600160401b0381111561403e575f5ffd5b61404a89828a01613ce7565b9150509295509295509295565b5f602082016020835280845180835260408501915060408160051b8601019250602086015f5b82811015613f2557603f1987860301845281518051604087526140a36040880182613a0e565b90506020820151915086810360208801526140be8183613f31565b96505050602093840193919091019060010161407d565b5f5f5f606084860312156140e7575f5ffd5b833592506020840135915060408401356001600160401b0381111561410a575f5ffd5b61411686828701613c70565b9150509250925092565b634e487b7160e01b5f52603260045260245ffd5b634e487b7160e01b5f52601160045260245ffd5b8082018082111561071657610716614134565b6001600160a01b0383168152604081016002831061418757634e487b7160e01b5f52602160045260245ffd5b8260208301529392505050565b5f602082840312156141a4575f5ffd5b8151613ac781613914565b6020808252600990820152682737ba1030b236b4b760b91b604082015260600190565b602080825260139082015272119bdbd908191bd95cc81b9bdd08195e1a5cdd606a1b604082015260600190565b600181811c9082168061421357607f821691505b60208210810361423157634e487b7160e01b5f52602260045260245ffd5b50919050565b8181038181111561071657610716614134565b601f821115612cd357805f5260205f20601f840160051c8101602085101561426f5750805b601f840160051c820191505b81811015612c4d575f815560010161427b565b81516001600160401b038111156142a7576142a7613b6a565b6142bb816142b584546141ff565b8461424a565b6020601f8211600181146142ed575f83156142d65750848201515b5f19600385901b1c1916600184901b178455612c4d565b5f84815260208120601f198516915b8281101561431c57878501518255602094850194600190920191016142fc565b508482101561433957868401515f19600387901b60f8161c191681555b50505050600190811b01905550565b634e487b7160e01b5f52603160045260245ffd5b60208082526019908201527f466f6f6444657461696c20646f6573206e6f7420657869737400000000000000604082015260600190565b5f600182016143a4576143a4614134565b5060010190565b5f602082840312156143bb575f5ffd5b81516001600160401b038111156143d0575f5ffd5b8201604081850312156143e1575f5ffd5b6143e9613b7e565b8151815260208201516001600160401b03811115614405575f5ffd5b80830192505084601f830112614419575f5ffd5b8151614427613c3b82613bf8565b81815286602083860101111561443b575f5ffd5b8160208501602083015e5f602092820183015290820152949350505050565b85815260a060208201525f61447260a0830187613986565b82810360408401526144848187613986565b9050846060840152828103608084015280845180835260208301915060208160051b840101602087015f5b838110156144e157601f198684030185526144cb838351613986565b60209586019590935091909101906001016144af565b50909b9a5050505050505050505050565b608081525f6145046080830187613986565b856020840152828103604084015261451c8186613986565b9150508260608301529594505050505056fea26469706673582212201258d41e420dea8b2611941711fbb7528ef1717ba43921a11e3e5ae17f789a7564736f6c634300081e0033",
			"opcodes": "PUSH1 0x80 PUSH1 0x40 MSTORE PUSH1 0x1 PUSH1 0x2 SSTORE PUSH1 0x1 PUSH1 0x3 SSTORE CALLVALUE DUP1 ISZERO PUSH1 0x18 JUMPI PUSH0 PUSH0 REVERT JUMPDEST POP PUSH1 0x40 MLOAD PUSH2 0x461B CODESIZE SUB DUP1 PUSH2 0x461B DUP4 CODECOPY DUP2 ADD PUSH1 0x40 DUP2 SWAP1 MSTORE PUSH1 0x35 SWAP2 PUSH1 0x7E JUMP JUMPDEST PUSH0 DUP1 SLOAD PUSH1 0x1 PUSH1 0x1 PUSH1 0xA0 SHL SUB SWAP4 DUP5 AND PUSH1 0x1 PUSH1 0x1 PUSH1 0xA0 SHL SUB NOT SWAP2 DUP3 AND OR SWAP1 SWAP2 SSTORE PUSH1 0x1 DUP1 SLOAD SWAP3 SWAP1 SWAP4 AND SWAP2 AND OR SWAP1 SSTORE PUSH1 0xAA JUMP JUMPDEST DUP1 MLOAD PUSH1 0x1 PUSH1 0x1 PUSH1 0xA0 SHL SUB DUP2 AND DUP2 EQ PUSH1 0x79 JUMPI PUSH0 PUSH0 REVERT JUMPDEST SWAP2 SWAP1 POP JUMP JUMPDEST PUSH0 PUSH0 PUSH1 0x40 DUP4 DUP6 SUB SLT ISZERO PUSH1 0x8E JUMPI PUSH0 PUSH0 REVERT JUMPDEST PUSH1 0x95 DUP4 PUSH1 0x64 JUMP JUMPDEST SWAP2 POP PUSH1 0xA1 PUSH1 0x20 DUP5 ADD PUSH1 0x64 JUMP JUMPDEST SWAP1 POP SWAP3 POP SWAP3 SWAP1 POP JUMP JUMPDEST PUSH2 0x4564 DUP1 PUSH2 0xB7 PUSH0 CODECOPY PUSH0 RETURN INVALID PUSH1 0x80 PUSH1 0x40 MSTORE CALLVALUE DUP1 ISZERO PUSH2 0xF JUMPI PUSH0 PUSH0 REVERT JUMPDEST POP PUSH1 0x4 CALLDATASIZE LT PUSH2 0x1BA JUMPI PUSH0 CALLDATALOAD PUSH1 0xE0 SHR DUP1 PUSH4 0x6C6B5BAF GT PUSH2 0xF3 JUMPI DUP1 PUSH4 0xBAF85306 GT PUSH2 0x93 JUMPI DUP1 PUSH4 0xCB0769B0 GT PUSH2 0x6E JUMPI DUP1 PUSH4 0xCB0769B0 EQ PUSH2 0x3DA JUMPI DUP1 PUSH4 0xD198B650 EQ PUSH2 0x3E2 JUMPI DUP1 PUSH4 0xD86EC238 EQ PUSH2 0x3F5 JUMPI DUP1 PUSH4 0xE21BA8C6 EQ PUSH2 0x407 JUMPI PUSH0 PUSH0 REVERT JUMPDEST DUP1 PUSH4 0xBAF85306 EQ PUSH2 0x3A1 JUMPI DUP1 PUSH4 0xC1D9726F EQ PUSH2 0x3B4 JUMPI DUP1 PUSH4 0xCAE79225 EQ PUSH2 0x3C7 JUMPI PUSH0 PUSH0 REVERT JUMPDEST DUP1 PUSH4 0xA6BC8C6A GT PUSH2 0xCE JUMPI DUP1 PUSH4 0xA6BC8C6A EQ PUSH2 0x344 JUMPI DUP1 PUSH4 0xAF5607F9 EQ PUSH2 0x359 JUMPI DUP1 PUSH4 0xB447AAAE EQ PUSH2 0x379 JUMPI DUP1 PUSH4 0xB9B5AAE6 EQ PUSH2 0x38C JUMPI PUSH0 PUSH0 REVERT JUMPDEST DUP1 PUSH4 0x6C6B5BAF EQ PUSH2 0x30B JUMPI DUP1 PUSH4 0x6DD2DD88 EQ PUSH2 0x31E JUMPI DUP1 PUSH4 0x9A69BFA6 EQ PUSH2 0x331 JUMPI PUSH0 PUSH0 REVERT JUMPDEST DUP1 PUSH4 0x28139B8D GT PUSH2 0x15E JUMPI DUP1 PUSH4 0x42F54B89 GT PUSH2 0x139 JUMPI DUP1 PUSH4 0x42F54B89 EQ PUSH2 0x2A7 JUMPI DUP1 PUSH4 0x4D30A39B EQ PUSH2 0x2D2 JUMPI DUP1 PUSH4 0x61CE7F78 EQ PUSH2 0x2E5 JUMPI DUP1 PUSH4 0x64F77471 EQ PUSH2 0x2F8 JUMPI PUSH0 PUSH0 REVERT JUMPDEST DUP1 PUSH4 0x28139B8D EQ PUSH2 0x261 JUMPI DUP1 PUSH4 0x3143E00F EQ PUSH2 0x274 JUMPI DUP1 PUSH4 0x35085515 EQ PUSH2 0x287 JUMPI PUSH0 PUSH0 REVERT JUMPDEST DUP1 PUSH4 0x14531A67 GT PUSH2 0x199 JUMPI DUP1 PUSH4 0x14531A67 EQ PUSH2 0x1F9 JUMPI DUP1 PUSH4 0x1945EF58 EQ PUSH2 0x221 JUMPI DUP1 PUSH4 0x1B0D77CC EQ PUSH2 0x238 JUMPI DUP1 PUSH4 0x1E4DE872 EQ PUSH2 0x241 JUMPI PUSH0 PUSH0 REVERT JUMPDEST DUP1 PUSH3 0xE081DD EQ PUSH2 0x1BE JUMPI DUP1 PUSH4 0x5207DB2 EQ PUSH2 0x1D3 JUMPI DUP1 PUSH4 0x94B9A53 EQ PUSH2 0x1E6 JUMPI JUMPDEST PUSH0 PUSH0 REVERT JUMPDEST PUSH2 0x1D1 PUSH2 0x1CC CALLDATASIZE PUSH1 0x4 PUSH2 0x38EB JUMP JUMPDEST PUSH2 0x40F JUMP JUMPDEST STOP JUMPDEST PUSH2 0x1D1 PUSH2 0x1E1 CALLDATASIZE PUSH1 0x4 PUSH2 0x3921 JUMP JUMPDEST PUSH2 0x4D9 JUMP JUMPDEST PUSH2 0x1D1 PUSH2 0x1F4 CALLDATASIZE PUSH1 0x4 PUSH2 0x38EB JUMP JUMPDEST PUSH2 0x5F7 JUMP JUMPDEST PUSH2 0x20C PUSH2 0x207 CALLDATASIZE PUSH1 0x4 PUSH2 0x394F JUMP JUMPDEST PUSH2 0x6B7 JUMP JUMPDEST PUSH1 0x40 MLOAD SWAP1 ISZERO ISZERO DUP2 MSTORE PUSH1 0x20 ADD JUMPDEST PUSH1 0x40 MLOAD DUP1 SWAP2 SUB SWAP1 RETURN JUMPDEST PUSH2 0x22A PUSH1 0x2 SLOAD DUP2 JUMP JUMPDEST PUSH1 0x40 MLOAD SWAP1 DUP2 MSTORE PUSH1 0x20 ADD PUSH2 0x218 JUMP JUMPDEST PUSH2 0x22A PUSH1 0x3 SLOAD DUP2 JUMP JUMPDEST PUSH2 0x254 PUSH2 0x24F CALLDATASIZE PUSH1 0x4 PUSH2 0x396F JUMP JUMPDEST PUSH2 0x71C JUMP JUMPDEST PUSH1 0x40 MLOAD PUSH2 0x218 SWAP2 SWAP1 PUSH2 0x3AB5 JUMP JUMPDEST PUSH2 0x1D1 PUSH2 0x26F CALLDATASIZE PUSH1 0x4 PUSH2 0x394F JUMP JUMPDEST PUSH2 0x9B2 JUMP JUMPDEST PUSH2 0x1D1 PUSH2 0x282 CALLDATASIZE PUSH1 0x4 PUSH2 0x38EB JUMP JUMPDEST PUSH2 0xA00 JUMP JUMPDEST PUSH2 0x29A PUSH2 0x295 CALLDATASIZE PUSH1 0x4 PUSH2 0x394F JUMP JUMPDEST PUSH2 0xA83 JUMP JUMPDEST PUSH1 0x40 MLOAD PUSH2 0x218 SWAP2 SWAP1 PUSH2 0x3B22 JUMP JUMPDEST PUSH1 0x1 SLOAD PUSH2 0x2BA SWAP1 PUSH1 0x1 PUSH1 0x1 PUSH1 0xA0 SHL SUB AND DUP2 JUMP JUMPDEST PUSH1 0x40 MLOAD PUSH1 0x1 PUSH1 0x1 PUSH1 0xA0 SHL SUB SWAP1 SWAP2 AND DUP2 MSTORE PUSH1 0x20 ADD PUSH2 0x218 JUMP JUMPDEST PUSH2 0x1D1 PUSH2 0x2E0 CALLDATASIZE PUSH1 0x4 PUSH2 0x394F JUMP JUMPDEST PUSH2 0xC7A JUMP JUMPDEST PUSH2 0x1D1 PUSH2 0x2F3 CALLDATASIZE PUSH1 0x4 PUSH2 0x3B34 JUMP JUMPDEST PUSH2 0xFF6 JUMP JUMPDEST PUSH2 0x1D1 PUSH2 0x306 CALLDATASIZE PUSH1 0x4 PUSH2 0x3D6F JUMP JUMPDEST PUSH2 0x11B6 JUMP JUMPDEST PUSH2 0x1D1 PUSH2 0x319 CALLDATASIZE PUSH1 0x4 PUSH2 0x38EB JUMP JUMPDEST PUSH2 0x140E JUMP JUMPDEST PUSH2 0x1D1 PUSH2 0x32C CALLDATASIZE PUSH1 0x4 PUSH2 0x3E30 JUMP JUMPDEST PUSH2 0x15DC JUMP JUMPDEST PUSH2 0x1D1 PUSH2 0x33F CALLDATASIZE PUSH1 0x4 PUSH2 0x38EB JUMP JUMPDEST PUSH2 0x17F2 JUMP JUMPDEST PUSH2 0x34C PUSH2 0x1A14 JUMP JUMPDEST PUSH1 0x40 MLOAD PUSH2 0x218 SWAP2 SWAP1 PUSH2 0x3ECE JUMP JUMPDEST PUSH2 0x36C PUSH2 0x367 CALLDATASIZE PUSH1 0x4 PUSH2 0x396F JUMP JUMPDEST PUSH2 0x1E39 JUMP JUMPDEST PUSH1 0x40 MLOAD PUSH2 0x218 SWAP2 SWAP1 PUSH2 0x3F7F JUMP JUMPDEST PUSH2 0x1D1 PUSH2 0x387 CALLDATASIZE PUSH1 0x4 PUSH2 0x3F91 JUMP JUMPDEST PUSH2 0x1F96 JUMP JUMPDEST PUSH2 0x394 PUSH2 0x246C JUMP JUMPDEST PUSH1 0x40 MLOAD PUSH2 0x218 SWAP2 SWAP1 PUSH2 0x4057 JUMP JUMPDEST PUSH2 0x1D1 PUSH2 0x3AF CALLDATASIZE PUSH1 0x4 PUSH2 0x40D5 JUMP JUMPDEST PUSH2 0x2A5D JUMP JUMPDEST PUSH2 0x1D1 PUSH2 0x3C2 CALLDATASIZE PUSH1 0x4 PUSH2 0x394F JUMP JUMPDEST PUSH2 0x2C54 JUMP JUMPDEST PUSH2 0x22A PUSH2 0x3D5 CALLDATASIZE PUSH1 0x4 PUSH2 0x394F JUMP JUMPDEST PUSH2 0x2CD8 JUMP JUMPDEST PUSH2 0x394 PUSH2 0x2D03 JUMP JUMPDEST PUSH2 0x1D1 PUSH2 0x3F0 CALLDATASIZE PUSH1 0x4 PUSH2 0x396F JUMP JUMPDEST PUSH2 0x31DD JUMP JUMPDEST PUSH0 SLOAD PUSH2 0x2BA SWAP1 PUSH1 0x1 PUSH1 0x1 PUSH1 0xA0 SHL SUB AND DUP2 JUMP JUMPDEST PUSH2 0x36C PUSH2 0x33F6 JUMP JUMPDEST PUSH0 JUMPDEST PUSH0 DUP5 DUP2 MSTORE PUSH1 0x5 PUSH1 0x20 MSTORE PUSH1 0x40 SWAP1 KECCAK256 SLOAD DUP2 LT ISZERO PUSH2 0x4AE JUMPI PUSH0 DUP5 DUP2 MSTORE PUSH1 0x5 PUSH1 0x20 MSTORE PUSH1 0x40 SWAP1 KECCAK256 DUP1 SLOAD DUP5 SWAP2 SWAP1 DUP4 SWAP1 DUP2 LT PUSH2 0x448 JUMPI PUSH2 0x448 PUSH2 0x4120 JUMP JUMPDEST SWAP1 PUSH0 MSTORE PUSH1 0x20 PUSH0 KECCAK256 SWAP1 PUSH1 0x6 MUL ADD PUSH0 ADD SLOAD SUB PUSH2 0x4A6 JUMPI PUSH0 DUP5 DUP2 MSTORE PUSH1 0x5 PUSH1 0x20 MSTORE PUSH1 0x40 SWAP1 KECCAK256 DUP1 SLOAD DUP4 SWAP2 SWAP1 DUP4 SWAP1 DUP2 LT PUSH2 0x47E JUMPI PUSH2 0x47E PUSH2 0x4120 JUMP JUMPDEST SWAP1 PUSH0 MSTORE PUSH1 0x20 PUSH0 KECCAK256 SWAP1 PUSH1 0x6 MUL ADD PUSH1 0x2 ADD PUSH0 DUP3 DUP3 SLOAD PUSH2 0x49B SWAP2 SWAP1 PUSH2 0x4148 JUMP JUMPDEST SWAP1 SWAP2 SSTORE POP PUSH2 0x4AE SWAP1 POP JUMP JUMPDEST PUSH1 0x1 ADD PUSH2 0x411 JUMP JUMPDEST POP PUSH0 DUP4 DUP2 MSTORE PUSH1 0x4 PUSH1 0x20 MSTORE PUSH1 0x40 DUP2 KECCAK256 PUSH1 0x5 ADD DUP1 SLOAD DUP4 SWAP3 SWAP1 PUSH2 0x4CF SWAP1 DUP5 SWAP1 PUSH2 0x4148 JUMP JUMPDEST SWAP1 SWAP2 SSTORE POP POP POP POP POP JUMP JUMPDEST PUSH1 0x1 SLOAD PUSH1 0x40 MLOAD PUSH4 0x95A8C58D PUSH1 0xE0 SHL DUP2 MSTORE PUSH1 0x1 PUSH1 0x1 PUSH1 0xA0 SHL SUB SWAP1 SWAP2 AND SWAP1 PUSH4 0x95A8C58D SWAP1 PUSH2 0x50B SWAP1 ORIGIN SWAP1 PUSH0 SWAP1 PUSH1 0x4 ADD PUSH2 0x415B JUMP JUMPDEST PUSH1 0x20 PUSH1 0x40 MLOAD DUP1 DUP4 SUB DUP2 DUP7 GAS STATICCALL ISZERO DUP1 ISZERO PUSH2 0x526 JUMPI RETURNDATASIZE PUSH0 PUSH0 RETURNDATACOPY RETURNDATASIZE PUSH0 REVERT JUMPDEST POP POP POP POP PUSH1 0x40 MLOAD RETURNDATASIZE PUSH1 0x1F NOT PUSH1 0x1F DUP3 ADD AND DUP3 ADD DUP1 PUSH1 0x40 MSTORE POP DUP2 ADD SWAP1 PUSH2 0x54A SWAP2 SWAP1 PUSH2 0x4194 JUMP JUMPDEST PUSH2 0x56F JUMPI PUSH1 0x40 MLOAD PUSH3 0x461BCD PUSH1 0xE5 SHL DUP2 MSTORE PUSH1 0x4 ADD PUSH2 0x566 SWAP1 PUSH2 0x41AF JUMP JUMPDEST PUSH1 0x40 MLOAD DUP1 SWAP2 SUB SWAP1 REVERT JUMPDEST PUSH0 DUP3 DUP2 MSTORE PUSH1 0x4 PUSH1 0x20 MSTORE PUSH1 0x40 DUP2 KECCAK256 SLOAD SWAP1 SUB PUSH2 0x59B JUMPI PUSH1 0x40 MLOAD PUSH3 0x461BCD PUSH1 0xE5 SHL DUP2 MSTORE PUSH1 0x4 ADD PUSH2 0x566 SWAP1 PUSH2 0x41D2 JUMP JUMPDEST PUSH0 DUP3 DUP2 MSTORE PUSH1 0x4 PUSH1 0x20 SWAP1 DUP2 MSTORE PUSH1 0x40 SWAP2 DUP3 SWAP1 KECCAK256 PUSH1 0x9 ADD DUP1 SLOAD PUSH1 0xFF NOT AND DUP5 ISZERO ISZERO SWAP1 DUP2 OR SWAP1 SWAP2 SSTORE DUP3 MLOAD DUP6 DUP2 MSTORE SWAP2 DUP3 ADD MSTORE PUSH32 0x8A071AF4AF756E1456F442C6ADFA4A285D076AFC427D8E2D440D78CF31BCEF87 SWAP2 ADD JUMPDEST PUSH1 0x40 MLOAD DUP1 SWAP2 SUB SWAP1 LOG1 POP POP JUMP JUMPDEST PUSH0 JUMPDEST PUSH0 DUP5 DUP2 MSTORE PUSH1 0x5 PUSH1 0x20 MSTORE PUSH1 0x40 SWAP1 KECCAK256 SLOAD DUP2 LT ISZERO PUSH2 0x696 JUMPI PUSH0 DUP5 DUP2 MSTORE PUSH1 0x5 PUSH1 0x20 MSTORE PUSH1 0x40 SWAP1 KECCAK256 DUP1 SLOAD DUP5 SWAP2 SWAP1 DUP4 SWAP1 DUP2 LT PUSH2 0x630 JUMPI PUSH2 0x630 PUSH2 0x4120 JUMP JUMPDEST SWAP1 PUSH0 MSTORE PUSH1 0x20 PUSH0 KECCAK256 SWAP1 PUSH1 0x6 MUL ADD PUSH0 ADD SLOAD SUB PUSH2 0x68E JUMPI PUSH0 DUP5 DUP2 MSTORE PUSH1 0x5 PUSH1 0x20 MSTORE PUSH1 0x40 SWAP1 KECCAK256 DUP1 SLOAD DUP4 SWAP2 SWAP1 DUP4 SWAP1 DUP2 LT PUSH2 0x666 JUMPI PUSH2 0x666 PUSH2 0x4120 JUMP JUMPDEST SWAP1 PUSH0 MSTORE PUSH1 0x20 PUSH0 KECCAK256 SWAP1 PUSH1 0x6 MUL ADD PUSH1 0x3 ADD PUSH0 DUP3 DUP3 SLOAD PUSH2 0x683 SWAP2 SWAP1 PUSH2 0x4148 JUMP JUMPDEST SWAP1 SWAP2 SSTORE POP PUSH2 0x696 SWAP1 POP JUMP JUMPDEST PUSH1 0x1 ADD PUSH2 0x5F9 JUMP JUMPDEST POP PUSH0 DUP4 DUP2 MSTORE PUSH1 0x4 PUSH1 0x20 MSTORE PUSH1 0x40 DUP2 KECCAK256 PUSH1 0x6 ADD DUP1 SLOAD DUP4 SWAP3 SWAP1 PUSH2 0x4CF SWAP1 DUP5 SWAP1 PUSH2 0x4148 JUMP JUMPDEST PUSH0 DUP1 JUMPDEST PUSH0 DUP4 DUP2 MSTORE PUSH1 0x7 PUSH1 0x20 MSTORE PUSH1 0x40 SWAP1 KECCAK256 SLOAD DUP2 LT ISZERO PUSH2 0x711 JUMPI PUSH0 DUP4 DUP2 MSTORE PUSH1 0x7 PUSH1 0x20 MSTORE PUSH1 0x40 SWAP1 KECCAK256 DUP1 SLOAD DUP6 SWAP2 SWAP1 DUP4 SWAP1 DUP2 LT PUSH2 0x6F1 JUMPI PUSH2 0x6F1 PUSH2 0x4120 JUMP JUMPDEST SWAP1 PUSH0 MSTORE PUSH1 0x20 PUSH0 KECCAK256 ADD SLOAD SUB PUSH2 0x709 JUMPI PUSH1 0x1 SWAP2 POP POP PUSH2 0x716 JUMP JUMPDEST PUSH1 0x1 ADD PUSH2 0x6BA JUMP JUMPDEST POP PUSH0 SWAP1 POP JUMPDEST SWAP3 SWAP2 POP POP JUMP JUMPDEST PUSH2 0x724 PUSH2 0x3714 JUMP JUMPDEST PUSH0 DUP3 DUP2 MSTORE PUSH1 0x4 PUSH1 0x20 MSTORE PUSH1 0x40 DUP2 KECCAK256 SLOAD SWAP1 SUB PUSH2 0x750 JUMPI PUSH1 0x40 MLOAD PUSH3 0x461BCD PUSH1 0xE5 SHL DUP2 MSTORE PUSH1 0x4 ADD PUSH2 0x566 SWAP1 PUSH2 0x41D2 JUMP JUMPDEST PUSH1 0x4 PUSH0 DUP4 DUP2 MSTORE PUSH1 0x20 ADD SWAP1 DUP2 MSTORE PUSH1 0x20 ADD PUSH0 KECCAK256 PUSH1 0x40 MLOAD DUP1 PUSH2 0x140 ADD PUSH1 0x40 MSTORE SWAP1 DUP2 PUSH0 DUP3 ADD SLOAD DUP2 MSTORE PUSH1 0x20 ADD PUSH1 0x1 DUP3 ADD DUP1 SLOAD PUSH2 0x786 SWAP1 PUSH2 0x41FF JUMP JUMPDEST DUP1 PUSH1 0x1F ADD PUSH1 0x20 DUP1 SWAP2 DIV MUL PUSH1 0x20 ADD PUSH1 0x40 MLOAD SWAP1 DUP2 ADD PUSH1 0x40 MSTORE DUP1 SWAP3 SWAP2 SWAP1 DUP2 DUP2 MSTORE PUSH1 0x20 ADD DUP3 DUP1 SLOAD PUSH2 0x7B2 SWAP1 PUSH2 0x41FF JUMP JUMPDEST DUP1 ISZERO PUSH2 0x7FD JUMPI DUP1 PUSH1 0x1F LT PUSH2 0x7D4 JUMPI PUSH2 0x100 DUP1 DUP4 SLOAD DIV MUL DUP4 MSTORE SWAP2 PUSH1 0x20 ADD SWAP2 PUSH2 0x7FD JUMP JUMPDEST DUP3 ADD SWAP2 SWAP1 PUSH0 MSTORE PUSH1 0x20 PUSH0 KECCAK256 SWAP1 JUMPDEST DUP2 SLOAD DUP2 MSTORE SWAP1 PUSH1 0x1 ADD SWAP1 PUSH1 0x20 ADD DUP1 DUP4 GT PUSH2 0x7E0 JUMPI DUP3 SWAP1 SUB PUSH1 0x1F AND DUP3 ADD SWAP2 JUMPDEST POP POP POP POP POP DUP2 MSTORE PUSH1 0x20 ADD PUSH1 0x2 DUP3 ADD DUP1 SLOAD PUSH2 0x816 SWAP1 PUSH2 0x41FF JUMP JUMPDEST DUP1 PUSH1 0x1F ADD PUSH1 0x20 DUP1 SWAP2 DIV MUL PUSH1 0x20 ADD PUSH1 0x40 MLOAD SWAP1 DUP2 ADD PUSH1 0x40 MSTORE DUP1 SWAP3 SWAP2 SWAP1 DUP2 DUP2 MSTORE PUSH1 0x20 ADD DUP3 DUP1 SLOAD PUSH2 0x842 SWAP1 PUSH2 0x41FF JUMP JUMPDEST DUP1 ISZERO PUSH2 0x88D JUMPI DUP1 PUSH1 0x1F LT PUSH2 0x864 JUMPI PUSH2 0x100 DUP1 DUP4 SLOAD DIV MUL DUP4 MSTORE SWAP2 PUSH1 0x20 ADD SWAP2 PUSH2 0x88D JUMP JUMPDEST DUP3 ADD SWAP2 SWAP1 PUSH0 MSTORE PUSH1 0x20 PUSH0 KECCAK256 SWAP1 JUMPDEST DUP2 SLOAD DUP2 MSTORE SWAP1 PUSH1 0x1 ADD SWAP1 PUSH1 0x20 ADD DUP1 DUP4 GT PUSH2 0x870 JUMPI DUP3 SWAP1 SUB PUSH1 0x1F AND DUP3 ADD SWAP2 JUMPDEST POP POP POP POP POP DUP2 MSTORE PUSH1 0x20 ADD PUSH1 0x3 DUP3 ADD SLOAD DUP2 MSTORE PUSH1 0x20 ADD PUSH1 0x4 DUP3 ADD DUP1 SLOAD DUP1 PUSH1 0x20 MUL PUSH1 0x20 ADD PUSH1 0x40 MLOAD SWAP1 DUP2 ADD PUSH1 0x40 MSTORE DUP1 SWAP3 SWAP2 SWAP1 DUP2 DUP2 MSTORE PUSH1 0x20 ADD PUSH0 SWAP1 JUMPDEST DUP3 DUP3 LT ISZERO PUSH2 0x96C JUMPI DUP4 DUP3 SWAP1 PUSH0 MSTORE PUSH1 0x20 PUSH0 KECCAK256 ADD DUP1 SLOAD PUSH2 0x8E1 SWAP1 PUSH2 0x41FF JUMP JUMPDEST DUP1 PUSH1 0x1F ADD PUSH1 0x20 DUP1 SWAP2 DIV MUL PUSH1 0x20 ADD PUSH1 0x40 MLOAD SWAP1 DUP2 ADD PUSH1 0x40 MSTORE DUP1 SWAP3 SWAP2 SWAP1 DUP2 DUP2 MSTORE PUSH1 0x20 ADD DUP3 DUP1 SLOAD PUSH2 0x90D SWAP1 PUSH2 0x41FF JUMP JUMPDEST DUP1 ISZERO PUSH2 0x958 JUMPI DUP1 PUSH1 0x1F LT PUSH2 0x92F JUMPI PUSH2 0x100 DUP1 DUP4 SLOAD DIV MUL DUP4 MSTORE SWAP2 PUSH1 0x20 ADD SWAP2 PUSH2 0x958 JUMP JUMPDEST DUP3 ADD SWAP2 SWAP1 PUSH0 MSTORE PUSH1 0x20 PUSH0 KECCAK256 SWAP1 JUMPDEST DUP2 SLOAD DUP2 MSTORE SWAP1 PUSH1 0x1 ADD SWAP1 PUSH1 0x20 ADD DUP1 DUP4 GT PUSH2 0x93B JUMPI DUP3 SWAP1 SUB PUSH1 0x1F AND DUP3 ADD SWAP2 JUMPDEST POP POP POP POP POP DUP2 MSTORE PUSH1 0x20 ADD SWAP1 PUSH1 0x1 ADD SWAP1 PUSH2 0x8C4 JUMP JUMPDEST POP POP POP SWAP1 DUP3 MSTORE POP PUSH1 0x5 DUP3 ADD SLOAD PUSH1 0x20 DUP3 ADD MSTORE PUSH1 0x6 DUP3 ADD SLOAD PUSH1 0x40 DUP3 ADD MSTORE PUSH1 0x7 DUP3 ADD SLOAD PUSH1 0x60 DUP3 ADD MSTORE PUSH1 0x8 DUP3 ADD SLOAD PUSH1 0x80 DUP3 ADD MSTORE PUSH1 0x9 SWAP1 SWAP2 ADD SLOAD PUSH1 0xFF AND ISZERO ISZERO PUSH1 0xA0 SWAP1 SWAP2 ADD MSTORE SWAP3 SWAP2 POP POP JUMP JUMPDEST PUSH0 DUP2 DUP2 MSTORE PUSH1 0x4 PUSH1 0x20 MSTORE PUSH1 0x40 DUP2 KECCAK256 SLOAD SWAP1 SUB PUSH2 0x9DE JUMPI PUSH1 0x40 MLOAD PUSH3 0x461BCD PUSH1 0xE5 SHL DUP2 MSTORE PUSH1 0x4 ADD PUSH2 0x566 SWAP1 PUSH2 0x41D2 JUMP JUMPDEST PUSH0 SWAP2 DUP3 MSTORE PUSH1 0x7 PUSH1 0x20 SWAP1 DUP2 MSTORE PUSH1 0x40 DUP4 KECCAK256 DUP1 SLOAD PUSH1 0x1 DUP2 ADD DUP3 SSTORE SWAP1 DUP5 MSTORE SWAP3 KECCAK256 SWAP1 SWAP2 ADD SSTORE JUMP JUMPDEST PUSH0 DUP4 DUP2 MSTORE PUSH1 0x4 PUSH1 0x20 MSTORE PUSH1 0x40 SWAP1 KECCAK256 SLOAD PUSH2 0xA2A JUMPI PUSH1 0x40 MLOAD PUSH3 0x461BCD PUSH1 0xE5 SHL DUP2 MSTORE PUSH1 0x4 ADD PUSH2 0x566 SWAP1 PUSH2 0x41D2 JUMP JUMPDEST PUSH0 DUP4 DUP2 MSTORE PUSH1 0x4 PUSH1 0x20 SWAP1 DUP2 MSTORE PUSH1 0x40 SWAP2 DUP3 SWAP1 KECCAK256 PUSH1 0x7 DUP2 ADD DUP6 SWAP1 SSTORE PUSH1 0x8 ADD DUP4 SWAP1 SSTORE DUP2 MLOAD DUP6 DUP2 MSTORE SWAP1 DUP2 ADD DUP5 SWAP1 MSTORE PUSH32 0x2B1620DBAA1055A3EB2ED172B9B42EA8057846CB255676CC6B555132E5D656CD SWAP2 ADD PUSH1 0x40 MLOAD DUP1 SWAP2 SUB SWAP1 LOG1 POP POP POP JUMP JUMPDEST PUSH2 0xA8B PUSH2 0x3762 JUMP JUMPDEST PUSH0 DUP4 DUP2 MSTORE PUSH1 0x5 PUSH1 0x20 MSTORE PUSH1 0x40 SWAP1 KECCAK256 SLOAD PUSH2 0xAD6 JUMPI PUSH1 0x40 MLOAD PUSH3 0x461BCD PUSH1 0xE5 SHL DUP2 MSTORE PUSH1 0x20 PUSH1 0x4 DUP3 ADD MSTORE PUSH1 0xE PUSH1 0x24 DUP3 ADD MSTORE PUSH14 0x125B9D985B1A5908199BDBD91259 PUSH1 0x92 SHL PUSH1 0x44 DUP3 ADD MSTORE PUSH1 0x64 ADD PUSH2 0x566 JUMP JUMPDEST PUSH0 JUMPDEST PUSH0 DUP5 DUP2 MSTORE PUSH1 0x5 PUSH1 0x20 MSTORE PUSH1 0x40 SWAP1 KECCAK256 SLOAD DUP2 LT ISZERO PUSH2 0xC31 JUMPI PUSH0 DUP5 DUP2 MSTORE PUSH1 0x5 PUSH1 0x20 MSTORE PUSH1 0x40 SWAP1 KECCAK256 DUP1 SLOAD DUP5 SWAP2 SWAP1 DUP4 SWAP1 DUP2 LT PUSH2 0xB0F JUMPI PUSH2 0xB0F PUSH2 0x4120 JUMP JUMPDEST SWAP1 PUSH0 MSTORE PUSH1 0x20 PUSH0 KECCAK256 SWAP1 PUSH1 0x6 MUL ADD PUSH0 ADD SLOAD SUB PUSH2 0xC29 JUMPI PUSH0 DUP5 DUP2 MSTORE PUSH1 0x5 PUSH1 0x20 MSTORE PUSH1 0x40 SWAP1 KECCAK256 DUP1 SLOAD DUP3 SWAP1 DUP2 LT PUSH2 0xB42 JUMPI PUSH2 0xB42 PUSH2 0x4120 JUMP JUMPDEST SWAP1 PUSH0 MSTORE PUSH1 0x20 PUSH0 KECCAK256 SWAP1 PUSH1 0x6 MUL ADD PUSH1 0x40 MLOAD DUP1 PUSH1 0xC0 ADD PUSH1 0x40 MSTORE SWAP1 DUP2 PUSH0 DUP3 ADD SLOAD DUP2 MSTORE PUSH1 0x20 ADD PUSH1 0x1 DUP3 ADD DUP1 SLOAD PUSH2 0xB72 SWAP1 PUSH2 0x41FF JUMP JUMPDEST DUP1 PUSH1 0x1F ADD PUSH1 0x20 DUP1 SWAP2 DIV MUL PUSH1 0x20 ADD PUSH1 0x40 MLOAD SWAP1 DUP2 ADD PUSH1 0x40 MSTORE DUP1 SWAP3 SWAP2 SWAP1 DUP2 DUP2 MSTORE PUSH1 0x20 ADD DUP3 DUP1 SLOAD PUSH2 0xB9E SWAP1 PUSH2 0x41FF JUMP JUMPDEST DUP1 ISZERO PUSH2 0xBE9 JUMPI DUP1 PUSH1 0x1F LT PUSH2 0xBC0 JUMPI PUSH2 0x100 DUP1 DUP4 SLOAD DIV MUL DUP4 MSTORE SWAP2 PUSH1 0x20 ADD SWAP2 PUSH2 0xBE9 JUMP JUMPDEST DUP3 ADD SWAP2 SWAP1 PUSH0 MSTORE PUSH1 0x20 PUSH0 KECCAK256 SWAP1 JUMPDEST DUP2 SLOAD DUP2 MSTORE SWAP1 PUSH1 0x1 ADD SWAP1 PUSH1 0x20 ADD DUP1 DUP4 GT PUSH2 0xBCC JUMPI DUP3 SWAP1 SUB PUSH1 0x1F AND DUP3 ADD SWAP2 JUMPDEST POP POP POP SWAP2 DUP4 MSTORE POP POP PUSH1 0x2 DUP3 ADD SLOAD PUSH1 0x20 DUP3 ADD MSTORE PUSH1 0x3 DUP3 ADD SLOAD PUSH1 0x40 DUP3 ADD MSTORE PUSH1 0x4 DUP3 ADD SLOAD PUSH1 0x60 DUP3 ADD MSTORE PUSH1 0x5 SWAP1 SWAP2 ADD SLOAD PUSH1 0xFF AND ISZERO ISZERO PUSH1 0x80 SWAP1 SWAP2 ADD MSTORE SWAP2 POP PUSH2 0x716 SWAP1 POP JUMP JUMPDEST PUSH1 0x1 ADD PUSH2 0xAD8 JUMP JUMPDEST POP PUSH1 0x40 MLOAD PUSH3 0x461BCD PUSH1 0xE5 SHL DUP2 MSTORE PUSH1 0x20 PUSH1 0x4 DUP3 ADD MSTORE PUSH1 0x19 PUSH1 0x24 DUP3 ADD MSTORE PUSH32 0x466F6F6444657461696C206E6F7420666F756E64205F5F5F2E00000000000000 PUSH1 0x44 DUP3 ADD MSTORE PUSH1 0x64 ADD PUSH2 0x566 JUMP JUMPDEST PUSH1 0x1 SLOAD PUSH1 0x40 MLOAD PUSH4 0x95A8C58D PUSH1 0xE0 SHL DUP2 MSTORE PUSH1 0x1 PUSH1 0x1 PUSH1 0xA0 SHL SUB SWAP1 SWAP2 AND SWAP1 PUSH4 0x95A8C58D SWAP1 PUSH2 0xCAC SWAP1 ORIGIN SWAP1 PUSH0 SWAP1 PUSH1 0x4 ADD PUSH2 0x415B JUMP JUMPDEST PUSH1 0x20 PUSH1 0x40 MLOAD DUP1 DUP4 SUB DUP2 DUP7 GAS STATICCALL ISZERO DUP1 ISZERO PUSH2 0xCC7 JUMPI RETURNDATASIZE PUSH0 PUSH0 RETURNDATACOPY RETURNDATASIZE PUSH0 REVERT JUMPDEST POP POP POP POP PUSH1 0x40 MLOAD RETURNDATASIZE PUSH1 0x1F NOT PUSH1 0x1F DUP3 ADD AND DUP3 ADD DUP1 PUSH1 0x40 MSTORE POP DUP2 ADD SWAP1 PUSH2 0xCEB SWAP2 SWAP1 PUSH2 0x4194 JUMP JUMPDEST PUSH2 0xD07 JUMPI PUSH1 0x40 MLOAD PUSH3 0x461BCD PUSH1 0xE5 SHL DUP2 MSTORE PUSH1 0x4 ADD PUSH2 0x566 SWAP1 PUSH2 0x41AF JUMP JUMPDEST PUSH0 DUP3 DUP2 MSTORE PUSH1 0x4 PUSH1 0x20 MSTORE PUSH1 0x40 DUP2 KECCAK256 SLOAD SWAP1 SUB PUSH2 0xD33 JUMPI PUSH1 0x40 MLOAD PUSH3 0x461BCD PUSH1 0xE5 SHL DUP2 MSTORE PUSH1 0x4 ADD PUSH2 0x566 SWAP1 PUSH2 0x41D2 JUMP JUMPDEST PUSH0 DUP3 DUP2 MSTORE PUSH1 0x5 PUSH1 0x20 MSTORE PUSH1 0x40 DUP2 KECCAK256 SWAP1 DUP1 JUMPDEST DUP3 SLOAD DUP2 LT ISZERO PUSH2 0xFD2 JUMPI DUP4 DUP4 DUP3 DUP2 SLOAD DUP2 LT PUSH2 0xD5F JUMPI PUSH2 0xD5F PUSH2 0x4120 JUMP JUMPDEST SWAP1 PUSH0 MSTORE PUSH1 0x20 PUSH0 KECCAK256 SWAP1 PUSH1 0x6 MUL ADD PUSH0 ADD SLOAD SUB PUSH2 0xFCA JUMPI DUP3 SLOAD PUSH1 0x1 LT PUSH2 0xDBE JUMPI PUSH1 0x40 MLOAD DUP1 PUSH1 0xC0 ADD PUSH1 0x40 MSTORE DUP1 PUSH0 DUP2 MSTORE PUSH1 0x20 ADD PUSH1 0x40 MLOAD DUP1 PUSH1 0x20 ADD PUSH1 0x40 MSTORE DUP1 PUSH0 DUP2 MSTORE POP DUP2 MSTORE PUSH1 0x20 ADD PUSH0 DUP2 MSTORE PUSH1 0x20 ADD PUSH0 DUP2 MSTORE PUSH1 0x20 ADD PUSH0 DUP2 MSTORE PUSH1 0x20 ADD PUSH0 ISZERO ISZERO DUP2 MSTORE POP PUSH2 0xEBD JUMP JUMPDEST DUP3 SLOAD DUP4 SWAP1 PUSH2 0xDCE SWAP1 PUSH1 0x1 SWAP1 PUSH2 0x4237 JUMP JUMPDEST DUP2 SLOAD DUP2 LT PUSH2 0xDDE JUMPI PUSH2 0xDDE PUSH2 0x4120 JUMP JUMPDEST SWAP1 PUSH0 MSTORE PUSH1 0x20 PUSH0 KECCAK256 SWAP1 PUSH1 0x6 MUL ADD PUSH1 0x40 MLOAD DUP1 PUSH1 0xC0 ADD PUSH1 0x40 MSTORE SWAP1 DUP2 PUSH0 DUP3 ADD SLOAD DUP2 MSTORE PUSH1 0x20 ADD PUSH1 0x1 DUP3 ADD DUP1 SLOAD PUSH2 0xE0E SWAP1 PUSH2 0x41FF JUMP JUMPDEST DUP1 PUSH1 0x1F ADD PUSH1 0x20 DUP1 SWAP2 DIV MUL PUSH1 0x20 ADD PUSH1 0x40 MLOAD SWAP1 DUP2 ADD PUSH1 0x40 MSTORE DUP1 SWAP3 SWAP2 SWAP1 DUP2 DUP2 MSTORE PUSH1 0x20 ADD DUP3 DUP1 SLOAD PUSH2 0xE3A SWAP1 PUSH2 0x41FF JUMP JUMPDEST DUP1 ISZERO PUSH2 0xE85 JUMPI DUP1 PUSH1 0x1F LT PUSH2 0xE5C JUMPI PUSH2 0x100 DUP1 DUP4 SLOAD DIV MUL DUP4 MSTORE SWAP2 PUSH1 0x20 ADD SWAP2 PUSH2 0xE85 JUMP JUMPDEST DUP3 ADD SWAP2 SWAP1 PUSH0 MSTORE PUSH1 0x20 PUSH0 KECCAK256 SWAP1 JUMPDEST DUP2 SLOAD DUP2 MSTORE SWAP1 PUSH1 0x1 ADD SWAP1 PUSH1 0x20 ADD DUP1 DUP4 GT PUSH2 0xE68 JUMPI DUP3 SWAP1 SUB PUSH1 0x1F AND DUP3 ADD SWAP2 JUMPDEST POP POP POP SWAP2 DUP4 MSTORE POP POP PUSH1 0x2 DUP3 ADD SLOAD PUSH1 0x20 DUP3 ADD MSTORE PUSH1 0x3 DUP3 ADD SLOAD PUSH1 0x40 DUP3 ADD MSTORE PUSH1 0x4 DUP3 ADD SLOAD PUSH1 0x60 DUP3 ADD MSTORE PUSH1 0x5 SWAP1 SWAP2 ADD SLOAD PUSH1 0xFF AND ISZERO ISZERO PUSH1 0x80 SWAP1 SWAP2 ADD MSTORE JUMPDEST DUP4 DUP3 DUP2 SLOAD DUP2 LT PUSH2 0xECF JUMPI PUSH2 0xECF PUSH2 0x4120 JUMP JUMPDEST SWAP1 PUSH0 MSTORE PUSH1 0x20 PUSH0 KECCAK256 SWAP1 PUSH1 0x6 MUL ADD PUSH0 DUP3 ADD MLOAD DUP2 PUSH0 ADD SSTORE PUSH1 0x20 DUP3 ADD MLOAD DUP2 PUSH1 0x1 ADD SWAP1 DUP2 PUSH2 0xEF8 SWAP2 SWAP1 PUSH2 0x428E JUMP JUMPDEST POP PUSH1 0x40 DUP3 ADD MLOAD PUSH1 0x2 DUP3 ADD SSTORE PUSH1 0x60 DUP3 ADD MLOAD PUSH1 0x3 DUP3 ADD SSTORE PUSH1 0x80 DUP3 ADD MLOAD PUSH1 0x4 DUP3 ADD SSTORE PUSH1 0xA0 SWAP1 SWAP2 ADD MLOAD PUSH1 0x5 SWAP1 SWAP2 ADD DUP1 SLOAD PUSH1 0xFF NOT AND SWAP2 ISZERO ISZERO SWAP2 SWAP1 SWAP2 OR SWAP1 SSTORE DUP3 SLOAD DUP4 SWAP1 DUP1 PUSH2 0xF42 JUMPI PUSH2 0xF42 PUSH2 0x4348 JUMP JUMPDEST PUSH0 DUP3 DUP2 MSTORE PUSH1 0x20 DUP2 KECCAK256 PUSH1 0x6 PUSH0 NOT SWAP1 SWAP4 ADD SWAP3 DUP4 MUL ADD DUP2 DUP2 SSTORE SWAP1 PUSH2 0xF66 PUSH1 0x1 DUP4 ADD DUP3 PUSH2 0x3795 JUMP JUMPDEST POP PUSH0 PUSH1 0x2 DUP3 ADD DUP2 SWAP1 SSTORE PUSH1 0x3 DUP3 ADD DUP2 SWAP1 SSTORE PUSH1 0x4 DUP3 ADD SSTORE PUSH1 0x5 ADD DUP1 SLOAD PUSH1 0xFF NOT AND SWAP1 SSTORE SWAP1 SSTORE PUSH1 0x40 DUP1 MLOAD DUP7 DUP2 MSTORE PUSH1 0x20 DUP2 ADD DUP7 SWAP1 MSTORE PUSH1 0x1 SWAP4 POP PUSH32 0x55CAA6A55ACB7E3464DC13C54D94739E0F01B9141276CAEBB64F3EF500CD8900 SWAP2 ADD PUSH1 0x40 MLOAD DUP1 SWAP2 SUB SWAP1 LOG1 PUSH2 0xFD2 JUMP JUMPDEST PUSH1 0x1 ADD PUSH2 0xD43 JUMP JUMPDEST POP DUP1 PUSH2 0xFF0 JUMPI PUSH1 0x40 MLOAD PUSH3 0x461BCD PUSH1 0xE5 SHL DUP2 MSTORE PUSH1 0x4 ADD PUSH2 0x566 SWAP1 PUSH2 0x435C JUMP JUMPDEST POP POP POP POP JUMP JUMPDEST PUSH1 0x1 SLOAD PUSH1 0x40 MLOAD PUSH4 0x95A8C58D PUSH1 0xE0 SHL DUP2 MSTORE PUSH1 0x1 PUSH1 0x1 PUSH1 0xA0 SHL SUB SWAP1 SWAP2 AND SWAP1 PUSH4 0x95A8C58D SWAP1 PUSH2 0x1028 SWAP1 ORIGIN SWAP1 PUSH0 SWAP1 PUSH1 0x4 ADD PUSH2 0x415B JUMP JUMPDEST PUSH1 0x20 PUSH1 0x40 MLOAD DUP1 DUP4 SUB DUP2 DUP7 GAS STATICCALL ISZERO DUP1 ISZERO PUSH2 0x1043 JUMPI RETURNDATASIZE PUSH0 PUSH0 RETURNDATACOPY RETURNDATASIZE PUSH0 REVERT JUMPDEST POP POP POP POP PUSH1 0x40 MLOAD RETURNDATASIZE PUSH1 0x1F NOT PUSH1 0x1F DUP3 ADD AND DUP3 ADD DUP1 PUSH1 0x40 MSTORE POP DUP2 ADD SWAP1 PUSH2 0x1067 SWAP2 SWAP1 PUSH2 0x4194 JUMP JUMPDEST PUSH2 0x1083 JUMPI PUSH1 0x40 MLOAD PUSH3 0x461BCD PUSH1 0xE5 SHL DUP2 MSTORE PUSH1 0x4 ADD PUSH2 0x566 SWAP1 PUSH2 0x41AF JUMP JUMPDEST PUSH0 DUP4 DUP2 MSTORE PUSH1 0x4 PUSH1 0x20 MSTORE PUSH1 0x40 DUP2 KECCAK256 SLOAD SWAP1 SUB PUSH2 0x10AF JUMPI PUSH1 0x40 MLOAD PUSH3 0x461BCD PUSH1 0xE5 SHL DUP2 MSTORE PUSH1 0x4 ADD PUSH2 0x566 SWAP1 PUSH2 0x41D2 JUMP JUMPDEST PUSH0 DUP1 JUMPDEST PUSH0 DUP6 DUP2 MSTORE PUSH1 0x5 PUSH1 0x20 MSTORE PUSH1 0x40 SWAP1 KECCAK256 SLOAD DUP2 LT ISZERO PUSH2 0x1151 JUMPI PUSH0 DUP6 DUP2 MSTORE PUSH1 0x5 PUSH1 0x20 MSTORE PUSH1 0x40 SWAP1 KECCAK256 DUP1 SLOAD DUP6 SWAP2 SWAP1 DUP4 SWAP1 DUP2 LT PUSH2 0x10E9 JUMPI PUSH2 0x10E9 PUSH2 0x4120 JUMP JUMPDEST SWAP1 PUSH0 MSTORE PUSH1 0x20 PUSH0 KECCAK256 SWAP1 PUSH1 0x6 MUL ADD PUSH0 ADD SLOAD SUB PUSH2 0x1149 JUMPI PUSH0 DUP6 DUP2 MSTORE PUSH1 0x5 PUSH1 0x20 MSTORE PUSH1 0x40 SWAP1 KECCAK256 DUP1 SLOAD DUP5 SWAP2 SWAP1 DUP4 SWAP1 DUP2 LT PUSH2 0x111F JUMPI PUSH2 0x111F PUSH2 0x4120 JUMP JUMPDEST PUSH0 SWAP2 DUP3 MSTORE PUSH1 0x20 SWAP1 SWAP2 KECCAK256 PUSH1 0x6 SWAP1 SWAP2 MUL ADD PUSH1 0x5 ADD DUP1 SLOAD PUSH1 0xFF NOT AND SWAP2 ISZERO ISZERO SWAP2 SWAP1 SWAP2 OR SWAP1 SSTORE PUSH1 0x1 SWAP2 POP PUSH2 0x1151 JUMP JUMPDEST PUSH1 0x1 ADD PUSH2 0x10B2 JUMP JUMPDEST POP DUP1 PUSH2 0x116F JUMPI PUSH1 0x40 MLOAD PUSH3 0x461BCD PUSH1 0xE5 SHL DUP2 MSTORE PUSH1 0x4 ADD PUSH2 0x566 SWAP1 PUSH2 0x435C JUMP JUMPDEST PUSH1 0x40 DUP1 MLOAD DUP6 DUP2 MSTORE PUSH1 0x20 DUP2 ADD DUP6 SWAP1 MSTORE DUP4 ISZERO ISZERO DUP2 DUP4 ADD MSTORE SWAP1 MLOAD PUSH32 0xA3FD0C95F630AB397363CEF70F0F9C67BBD8DA3EE6B6AEF206C7E0653567595 SWAP2 DUP2 SWAP1 SUB PUSH1 0x60 ADD SWAP1 LOG1 POP POP POP POP JUMP JUMPDEST PUSH1 0x1 SLOAD PUSH1 0x40 MLOAD PUSH4 0x95A8C58D PUSH1 0xE0 SHL DUP2 MSTORE PUSH1 0x1 PUSH1 0x1 PUSH1 0xA0 SHL SUB SWAP1 SWAP2 AND SWAP1 PUSH4 0x95A8C58D SWAP1 PUSH2 0x11E8 SWAP1 ORIGIN SWAP1 PUSH0 SWAP1 PUSH1 0x4 ADD PUSH2 0x415B JUMP JUMPDEST PUSH1 0x20 PUSH1 0x40 MLOAD DUP1 DUP4 SUB DUP2 DUP7 GAS STATICCALL ISZERO DUP1 ISZERO PUSH2 0x1203 JUMPI RETURNDATASIZE PUSH0 PUSH0 RETURNDATACOPY RETURNDATASIZE PUSH0 REVERT JUMPDEST POP POP POP POP PUSH1 0x40 MLOAD RETURNDATASIZE PUSH1 0x1F NOT PUSH1 0x1F DUP3 ADD AND DUP3 ADD DUP1 PUSH1 0x40 MSTORE POP DUP2 ADD SWAP1 PUSH2 0x1227 SWAP2 SWAP1 PUSH2 0x4194 JUMP JUMPDEST PUSH2 0x1243 JUMPI PUSH1 0x40 MLOAD PUSH3 0x461BCD PUSH1 0xE5 SHL DUP2 MSTORE PUSH1 0x4 ADD PUSH2 0x566 SWAP1 PUSH2 0x41AF JUMP JUMPDEST PUSH0 DUP3 DUP2 MSTORE PUSH1 0x4 PUSH1 0x20 MSTORE PUSH1 0x40 DUP2 KECCAK256 SLOAD SWAP1 SUB PUSH2 0x126F JUMPI PUSH1 0x40 MLOAD PUSH3 0x461BCD PUSH1 0xE5 SHL DUP2 MSTORE PUSH1 0x4 ADD PUSH2 0x566 SWAP1 PUSH2 0x41D2 JUMP JUMPDEST PUSH0 JUMPDEST DUP2 MLOAD DUP2 LT ISZERO PUSH2 0x13DD JUMPI PUSH1 0x3 DUP1 SLOAD SWAP1 PUSH0 PUSH2 0x1289 DUP4 PUSH2 0x4393 JUMP JUMPDEST SWAP2 SWAP1 POP SSTORE POP PUSH0 PUSH1 0x40 MLOAD DUP1 PUSH1 0xC0 ADD PUSH1 0x40 MSTORE DUP1 PUSH1 0x3 SLOAD DUP2 MSTORE PUSH1 0x20 ADD DUP5 DUP5 DUP2 MLOAD DUP2 LT PUSH2 0x12B4 JUMPI PUSH2 0x12B4 PUSH2 0x4120 JUMP JUMPDEST PUSH1 0x20 MUL PUSH1 0x20 ADD ADD MLOAD PUSH0 ADD MLOAD DUP2 MSTORE PUSH1 0x20 ADD PUSH0 DUP2 MSTORE PUSH1 0x20 ADD DUP5 DUP5 DUP2 MLOAD DUP2 LT PUSH2 0x12DC JUMPI PUSH2 0x12DC PUSH2 0x4120 JUMP JUMPDEST PUSH1 0x20 MUL PUSH1 0x20 ADD ADD MLOAD PUSH1 0x20 ADD MLOAD DUP2 MSTORE PUSH1 0x20 ADD DUP5 DUP5 DUP2 MLOAD DUP2 LT PUSH2 0x12FF JUMPI PUSH2 0x12FF PUSH2 0x4120 JUMP JUMPDEST PUSH1 0x20 MUL PUSH1 0x20 ADD ADD MLOAD PUSH1 0x40 ADD MLOAD DUP2 MSTORE PUSH1 0x20 ADD PUSH0 ISZERO ISZERO DUP2 MSTORE POP SWAP1 POP DUP3 DUP3 DUP2 MLOAD DUP2 LT PUSH2 0x132A JUMPI PUSH2 0x132A PUSH2 0x4120 JUMP JUMPDEST PUSH1 0x20 MUL PUSH1 0x20 ADD ADD MLOAD PUSH1 0x20 ADD MLOAD PUSH1 0x4 PUSH0 DUP7 DUP2 MSTORE PUSH1 0x20 ADD SWAP1 DUP2 MSTORE PUSH1 0x20 ADD PUSH0 KECCAK256 PUSH1 0x6 ADD PUSH0 DUP3 DUP3 SLOAD PUSH2 0x1358 SWAP2 SWAP1 PUSH2 0x4148 JUMP JUMPDEST SWAP1 SWAP2 SSTORE POP POP PUSH0 DUP5 DUP2 MSTORE PUSH1 0x5 PUSH1 0x20 SWAP1 DUP2 MSTORE PUSH1 0x40 DUP3 KECCAK256 DUP1 SLOAD PUSH1 0x1 DUP2 DUP2 ADD DUP4 SSTORE SWAP2 DUP5 MSTORE SWAP3 DUP3 SWAP1 KECCAK256 DUP5 MLOAD PUSH1 0x6 SWAP1 SWAP5 MUL ADD SWAP3 DUP4 SSTORE SWAP1 DUP4 ADD MLOAD DUP4 SWAP3 SWAP2 DUP3 ADD SWAP1 PUSH2 0x139B SWAP1 DUP3 PUSH2 0x428E JUMP JUMPDEST POP PUSH1 0x40 DUP3 ADD MLOAD PUSH1 0x2 DUP3 ADD SSTORE PUSH1 0x60 DUP3 ADD MLOAD PUSH1 0x3 DUP3 ADD SSTORE PUSH1 0x80 DUP3 ADD MLOAD PUSH1 0x4 DUP3 ADD SSTORE PUSH1 0xA0 SWAP1 SWAP2 ADD MLOAD PUSH1 0x5 SWAP1 SWAP2 ADD DUP1 SLOAD PUSH1 0xFF NOT AND SWAP2 ISZERO ISZERO SWAP2 SWAP1 SWAP2 OR SWAP1 SSTORE POP PUSH1 0x1 ADD PUSH2 0x1271 JUMP JUMPDEST POP PUSH1 0x40 MLOAD DUP3 DUP2 MSTORE PUSH32 0x19A8E56286393226625DCDBC7CBB5A7611C71773D54C7E0680658CB9CEEF6C22 SWAP1 PUSH1 0x20 ADD PUSH2 0x5EB JUMP JUMPDEST PUSH0 JUMPDEST PUSH0 DUP5 DUP2 MSTORE PUSH1 0x5 PUSH1 0x20 MSTORE PUSH1 0x40 SWAP1 KECCAK256 SLOAD DUP2 LT ISZERO PUSH2 0x1545 JUMPI PUSH0 DUP5 DUP2 MSTORE PUSH1 0x5 PUSH1 0x20 MSTORE PUSH1 0x40 SWAP1 KECCAK256 DUP1 SLOAD DUP5 SWAP2 SWAP1 DUP4 SWAP1 DUP2 LT PUSH2 0x1447 JUMPI PUSH2 0x1447 PUSH2 0x4120 JUMP JUMPDEST SWAP1 PUSH0 MSTORE PUSH1 0x20 PUSH0 KECCAK256 SWAP1 PUSH1 0x6 MUL ADD PUSH0 ADD SLOAD SUB PUSH2 0x153D JUMPI PUSH0 DUP5 DUP2 MSTORE PUSH1 0x5 PUSH1 0x20 MSTORE PUSH1 0x40 SWAP1 KECCAK256 DUP1 SLOAD DUP4 SWAP2 SWAP1 DUP4 SWAP1 DUP2 LT PUSH2 0x147D JUMPI PUSH2 0x147D PUSH2 0x4120 JUMP JUMPDEST SWAP1 PUSH0 MSTORE PUSH1 0x20 PUSH0 KECCAK256 SWAP1 PUSH1 0x6 MUL ADD PUSH1 0x2 ADD SLOAD LT ISZERO PUSH2 0x14F3 JUMPI PUSH1 0x40 MLOAD PUSH3 0x461BCD PUSH1 0xE5 SHL DUP2 MSTORE PUSH1 0x20 PUSH1 0x4 DUP3 ADD MSTORE PUSH1 0x2F PUSH1 0x24 DUP3 ADD MSTORE PUSH32 0x5175616E74697479277320666F6F642064657461696C2063616E6E6F74206265 PUSH1 0x44 DUP3 ADD MSTORE PUSH15 0x20736D616C6C6572207468616E203 PUSH1 0x8C SHL PUSH1 0x64 DUP3 ADD MSTORE PUSH1 0x84 ADD PUSH2 0x566 JUMP JUMPDEST PUSH0 DUP5 DUP2 MSTORE PUSH1 0x5 PUSH1 0x20 MSTORE PUSH1 0x40 SWAP1 KECCAK256 DUP1 SLOAD DUP4 SWAP2 SWAP1 DUP4 SWAP1 DUP2 LT PUSH2 0x1515 JUMPI PUSH2 0x1515 PUSH2 0x4120 JUMP JUMPDEST SWAP1 PUSH0 MSTORE PUSH1 0x20 PUSH0 KECCAK256 SWAP1 PUSH1 0x6 MUL ADD PUSH1 0x2 ADD PUSH0 DUP3 DUP3 SLOAD PUSH2 0x1532 SWAP2 SWAP1 PUSH2 0x4237 JUMP JUMPDEST SWAP1 SWAP2 SSTORE POP PUSH2 0x1545 SWAP1 POP JUMP JUMPDEST PUSH1 0x1 ADD PUSH2 0x1410 JUMP JUMPDEST POP PUSH0 DUP4 DUP2 MSTORE PUSH1 0x4 PUSH1 0x20 MSTORE PUSH1 0x40 SWAP1 KECCAK256 PUSH1 0x5 ADD SLOAD DUP2 GT ISZERO PUSH2 0x15BC JUMPI PUSH1 0x40 MLOAD PUSH3 0x461BCD PUSH1 0xE5 SHL DUP2 MSTORE PUSH1 0x20 PUSH1 0x4 DUP3 ADD MSTORE PUSH1 0x2D PUSH1 0x24 DUP3 ADD MSTORE PUSH32 0x536F6C64207175616E74697479277320666F6F642063616E6E6F742062652073 PUSH1 0x44 DUP3 ADD MSTORE PUSH13 0x6D616C6C6572207468616E203 PUSH1 0x9C SHL PUSH1 0x64 DUP3 ADD MSTORE PUSH1 0x84 ADD PUSH2 0x566 JUMP JUMPDEST PUSH0 DUP4 DUP2 MSTORE PUSH1 0x4 PUSH1 0x20 MSTORE PUSH1 0x40 DUP2 KECCAK256 PUSH1 0x5 ADD DUP1 SLOAD DUP4 SWAP3 SWAP1 PUSH2 0x4CF SWAP1 DUP5 SWAP1 PUSH2 0x4237 JUMP JUMPDEST PUSH1 0x1 SLOAD PUSH1 0x40 MLOAD PUSH4 0x95A8C58D PUSH1 0xE0 SHL DUP2 MSTORE PUSH1 0x1 PUSH1 0x1 PUSH1 0xA0 SHL SUB SWAP1 SWAP2 AND SWAP1 PUSH4 0x95A8C58D SWAP1 PUSH2 0x160E SWAP1 ORIGIN SWAP1 PUSH0 SWAP1 PUSH1 0x4 ADD PUSH2 0x415B JUMP JUMPDEST PUSH1 0x20 PUSH1 0x40 MLOAD DUP1 DUP4 SUB DUP2 DUP7 GAS STATICCALL ISZERO DUP1 ISZERO PUSH2 0x1629 JUMPI RETURNDATASIZE PUSH0 PUSH0 RETURNDATACOPY RETURNDATASIZE PUSH0 REVERT JUMPDEST POP POP POP POP PUSH1 0x40 MLOAD RETURNDATASIZE PUSH1 0x1F NOT PUSH1 0x1F DUP3 ADD AND DUP3 ADD DUP1 PUSH1 0x40 MSTORE POP DUP2 ADD SWAP1 PUSH2 0x164D SWAP2 SWAP1 PUSH2 0x4194 JUMP JUMPDEST PUSH2 0x1669 JUMPI PUSH1 0x40 MLOAD PUSH3 0x461BCD PUSH1 0xE5 SHL DUP2 MSTORE PUSH1 0x4 ADD PUSH2 0x566 SWAP1 PUSH2 0x41AF JUMP JUMPDEST PUSH0 DUP6 DUP2 MSTORE PUSH1 0x4 PUSH1 0x20 MSTORE PUSH1 0x40 DUP2 KECCAK256 SLOAD SWAP1 SUB PUSH2 0x1695 JUMPI PUSH1 0x40 MLOAD PUSH3 0x461BCD PUSH1 0xE5 SHL DUP2 MSTORE PUSH1 0x4 ADD PUSH2 0x566 SWAP1 PUSH2 0x41D2 JUMP JUMPDEST PUSH0 SLOAD PUSH1 0x40 MLOAD PUSH4 0x79829693 PUSH1 0xE1 SHL DUP2 MSTORE PUSH1 0x4 DUP2 ADD DUP5 SWAP1 MSTORE PUSH1 0x1 PUSH1 0x1 PUSH1 0xA0 SHL SUB SWAP1 SWAP2 AND SWAP1 PUSH4 0xF3052D26 SWAP1 PUSH1 0x24 ADD PUSH0 PUSH1 0x40 MLOAD DUP1 DUP4 SUB DUP2 DUP7 GAS STATICCALL ISZERO DUP1 ISZERO PUSH2 0x16DA JUMPI RETURNDATASIZE PUSH0 PUSH0 RETURNDATACOPY RETURNDATASIZE PUSH0 REVERT JUMPDEST POP POP POP POP PUSH1 0x40 MLOAD RETURNDATASIZE PUSH0 DUP3 RETURNDATACOPY PUSH1 0x1F RETURNDATASIZE SWAP1 DUP2 ADD PUSH1 0x1F NOT AND DUP3 ADD PUSH1 0x40 MSTORE PUSH2 0x1701 SWAP2 SWAP1 DUP2 ADD SWAP1 PUSH2 0x43AB JUMP JUMPDEST MLOAD PUSH0 SUB PUSH2 0x174A JUMPI PUSH1 0x40 MLOAD PUSH3 0x461BCD PUSH1 0xE5 SHL DUP2 MSTORE PUSH1 0x20 PUSH1 0x4 DUP3 ADD MSTORE PUSH1 0x17 PUSH1 0x24 DUP3 ADD MSTORE PUSH23 0x10D85D1959DBDC9E48191BD95CC81B9BDD08195E1A5CDD PUSH1 0x4A SHL PUSH1 0x44 DUP3 ADD MSTORE PUSH1 0x64 ADD PUSH2 0x566 JUMP JUMPDEST PUSH0 DUP6 DUP2 MSTORE PUSH1 0x4 PUSH1 0x20 MSTORE PUSH1 0x40 SWAP1 KECCAK256 PUSH1 0x1 ADD PUSH2 0x1764 DUP6 DUP3 PUSH2 0x428E JUMP JUMPDEST POP PUSH0 DUP6 DUP2 MSTORE PUSH1 0x4 PUSH1 0x20 MSTORE PUSH1 0x40 SWAP1 KECCAK256 PUSH1 0x2 ADD PUSH2 0x177F DUP5 DUP3 PUSH2 0x428E JUMP JUMPDEST POP PUSH0 DUP6 DUP2 MSTORE PUSH1 0x4 PUSH1 0x20 DUP2 DUP2 MSTORE PUSH1 0x40 SWAP1 SWAP3 KECCAK256 PUSH1 0x3 DUP2 ADD DUP6 SWAP1 SSTORE DUP4 MLOAD PUSH2 0x17AB SWAP4 SWAP2 SWAP1 SWAP3 ADD SWAP2 SWAP1 DUP5 ADD SWAP1 PUSH2 0x37CC JUMP JUMPDEST POP PUSH32 0x4F49710E0E59EA2E7096D7BAD0267390D8BB5C007687F72B0DE2DB3AFDADD5E5 DUP6 DUP6 DUP6 DUP6 DUP6 PUSH1 0x40 MLOAD PUSH2 0x17E3 SWAP6 SWAP5 SWAP4 SWAP3 SWAP2 SWAP1 PUSH2 0x445A JUMP JUMPDEST PUSH1 0x40 MLOAD DUP1 SWAP2 SUB SWAP1 LOG1 POP POP POP POP POP JUMP JUMPDEST PUSH2 0x1850 PUSH1 0x40 MLOAD DUP1 PUSH1 0x40 ADD PUSH1 0x40 MSTORE DUP1 PUSH1 0x6 DUP2 MSTORE PUSH1 0x20 ADD PUSH6 0x119BDBD91259 PUSH1 0xD2 SHL DUP2 MSTORE POP PUSH1 0x4 PUSH0 DUP7 DUP2 MSTORE PUSH1 0x20 ADD SWAP1 DUP2 MSTORE PUSH1 0x20 ADD PUSH0 KECCAK256 PUSH1 0x6 ADD SLOAD PUSH1 0x40 MLOAD DUP1 PUSH1 0x40 ADD PUSH1 0x40 MSTORE DUP1 PUSH1 0x8 DUP2 MSTORE PUSH1 0x20 ADD PUSH8 0x5175616E74697479 PUSH1 0xC0 SHL DUP2 MSTORE POP DUP5 PUSH2 0x36A5 JUMP JUMPDEST PUSH0 JUMPDEST PUSH0 DUP5 DUP2 MSTORE PUSH1 0x5 PUSH1 0x20 MSTORE PUSH1 0x40 SWAP1 KECCAK256 SLOAD DUP2 LT ISZERO PUSH2 0x1982 JUMPI PUSH0 DUP5 DUP2 MSTORE PUSH1 0x5 PUSH1 0x20 MSTORE PUSH1 0x40 SWAP1 KECCAK256 DUP1 SLOAD DUP5 SWAP2 SWAP1 DUP4 SWAP1 DUP2 LT PUSH2 0x1889 JUMPI PUSH2 0x1889 PUSH2 0x4120 JUMP JUMPDEST SWAP1 PUSH0 MSTORE PUSH1 0x20 PUSH0 KECCAK256 SWAP1 PUSH1 0x6 MUL ADD PUSH0 ADD SLOAD SUB PUSH2 0x197A JUMPI PUSH0 DUP5 DUP2 MSTORE PUSH1 0x5 PUSH1 0x20 MSTORE PUSH1 0x40 SWAP1 KECCAK256 DUP1 SLOAD DUP3 SWAP1 DUP2 LT PUSH2 0x18BC JUMPI PUSH2 0x18BC PUSH2 0x4120 JUMP JUMPDEST SWAP1 PUSH0 MSTORE PUSH1 0x20 PUSH0 KECCAK256 SWAP1 PUSH1 0x6 MUL ADD PUSH1 0x3 ADD SLOAD DUP3 LT PUSH2 0x1930 JUMPI PUSH1 0x40 MLOAD PUSH3 0x461BCD PUSH1 0xE5 SHL DUP2 MSTORE PUSH1 0x20 PUSH1 0x4 DUP3 ADD MSTORE PUSH1 0x2D PUSH1 0x24 DUP3 ADD MSTORE PUSH32 0x5175616E74697479277320666F6F64206974656D2063616E6E6F742062652073 PUSH1 0x44 DUP3 ADD MSTORE PUSH13 0x6D616C6C6572207468616E203 PUSH1 0x9C SHL PUSH1 0x64 DUP3 ADD MSTORE PUSH1 0x84 ADD PUSH2 0x566 JUMP JUMPDEST PUSH0 DUP5 DUP2 MSTORE PUSH1 0x5 PUSH1 0x20 MSTORE PUSH1 0x40 SWAP1 KECCAK256 DUP1 SLOAD DUP4 SWAP2 SWAP1 DUP4 SWAP1 DUP2 LT PUSH2 0x1952 JUMPI PUSH2 0x1952 PUSH2 0x4120 JUMP JUMPDEST SWAP1 PUSH0 MSTORE PUSH1 0x20 PUSH0 KECCAK256 SWAP1 PUSH1 0x6 MUL ADD PUSH1 0x3 ADD PUSH0 DUP3 DUP3 SLOAD PUSH2 0x196F SWAP2 SWAP1 PUSH2 0x4237 JUMP JUMPDEST SWAP1 SWAP2 SSTORE POP PUSH2 0x1982 SWAP1 POP JUMP JUMPDEST PUSH1 0x1 ADD PUSH2 0x1852 JUMP JUMPDEST POP PUSH0 DUP4 DUP2 MSTORE PUSH1 0x4 PUSH1 0x20 MSTORE PUSH1 0x40 SWAP1 KECCAK256 PUSH1 0x6 ADD SLOAD DUP2 GT ISZERO PUSH2 0x19F4 JUMPI PUSH1 0x40 MLOAD PUSH3 0x461BCD PUSH1 0xE5 SHL DUP2 MSTORE PUSH1 0x20 PUSH1 0x4 DUP3 ADD MSTORE PUSH1 0x28 PUSH1 0x24 DUP3 ADD MSTORE PUSH32 0x5175616E74697479277320666F6F642063616E6E6F7420626520736D616C6C65 PUSH1 0x44 DUP3 ADD MSTORE PUSH8 0x72207468616E203 PUSH1 0xC4 SHL PUSH1 0x64 DUP3 ADD MSTORE PUSH1 0x84 ADD PUSH2 0x566 JUMP JUMPDEST PUSH0 DUP4 DUP2 MSTORE PUSH1 0x4 PUSH1 0x20 MSTORE PUSH1 0x40 DUP2 KECCAK256 PUSH1 0x6 ADD DUP1 SLOAD DUP4 SWAP3 SWAP1 PUSH2 0x4CF SWAP1 DUP5 SWAP1 PUSH2 0x4237 JUMP JUMPDEST PUSH1 0x6 SLOAD PUSH1 0x60 SWAP1 PUSH0 DUP2 PUSH1 0x1 PUSH1 0x1 PUSH1 0x40 SHL SUB DUP2 GT ISZERO PUSH2 0x1A33 JUMPI PUSH2 0x1A33 PUSH2 0x3B6A JUMP JUMPDEST PUSH1 0x40 MLOAD SWAP1 DUP1 DUP3 MSTORE DUP1 PUSH1 0x20 MUL PUSH1 0x20 ADD DUP3 ADD PUSH1 0x40 MSTORE DUP1 ISZERO PUSH2 0x1A6C JUMPI DUP2 PUSH1 0x20 ADD JUMPDEST PUSH2 0x1A59 PUSH2 0x3714 JUMP JUMPDEST DUP2 MSTORE PUSH1 0x20 ADD SWAP1 PUSH1 0x1 SWAP1 SUB SWAP1 DUP2 PUSH2 0x1A51 JUMPI SWAP1 POP JUMPDEST POP SWAP1 POP PUSH0 JUMPDEST DUP3 DUP2 LT ISZERO PUSH2 0x1D17 JUMPI PUSH1 0x4 PUSH0 PUSH1 0x6 DUP4 DUP2 SLOAD DUP2 LT PUSH2 0x1A8F JUMPI PUSH2 0x1A8F PUSH2 0x4120 JUMP JUMPDEST SWAP1 PUSH0 MSTORE PUSH1 0x20 PUSH0 KECCAK256 ADD SLOAD DUP2 MSTORE PUSH1 0x20 ADD SWAP1 DUP2 MSTORE PUSH1 0x20 ADD PUSH0 KECCAK256 PUSH1 0x40 MLOAD DUP1 PUSH2 0x140 ADD PUSH1 0x40 MSTORE SWAP1 DUP2 PUSH0 DUP3 ADD SLOAD DUP2 MSTORE PUSH1 0x20 ADD PUSH1 0x1 DUP3 ADD DUP1 SLOAD PUSH2 0x1ACA SWAP1 PUSH2 0x41FF JUMP JUMPDEST DUP1 PUSH1 0x1F ADD PUSH1 0x20 DUP1 SWAP2 DIV MUL PUSH1 0x20 ADD PUSH1 0x40 MLOAD SWAP1 DUP2 ADD PUSH1 0x40 MSTORE DUP1 SWAP3 SWAP2 SWAP1 DUP2 DUP2 MSTORE PUSH1 0x20 ADD DUP3 DUP1 SLOAD PUSH2 0x1AF6 SWAP1 PUSH2 0x41FF JUMP JUMPDEST DUP1 ISZERO PUSH2 0x1B41 JUMPI DUP1 PUSH1 0x1F LT PUSH2 0x1B18 JUMPI PUSH2 0x100 DUP1 DUP4 SLOAD DIV MUL DUP4 MSTORE SWAP2 PUSH1 0x20 ADD SWAP2 PUSH2 0x1B41 JUMP JUMPDEST DUP3 ADD SWAP2 SWAP1 PUSH0 MSTORE PUSH1 0x20 PUSH0 KECCAK256 SWAP1 JUMPDEST DUP2 SLOAD DUP2 MSTORE SWAP1 PUSH1 0x1 ADD SWAP1 PUSH1 0x20 ADD DUP1 DUP4 GT PUSH2 0x1B24 JUMPI DUP3 SWAP1 SUB PUSH1 0x1F AND DUP3 ADD SWAP2 JUMPDEST POP POP POP POP POP DUP2 MSTORE PUSH1 0x20 ADD PUSH1 0x2 DUP3 ADD DUP1 SLOAD PUSH2 0x1B5A SWAP1 PUSH2 0x41FF JUMP JUMPDEST DUP1 PUSH1 0x1F ADD PUSH1 0x20 DUP1 SWAP2 DIV MUL PUSH1 0x20 ADD PUSH1 0x40 MLOAD SWAP1 DUP2 ADD PUSH1 0x40 MSTORE DUP1 SWAP3 SWAP2 SWAP1 DUP2 DUP2 MSTORE PUSH1 0x20 ADD DUP3 DUP1 SLOAD PUSH2 0x1B86 SWAP1 PUSH2 0x41FF JUMP JUMPDEST DUP1 ISZERO PUSH2 0x1BD1 JUMPI DUP1 PUSH1 0x1F LT PUSH2 0x1BA8 JUMPI PUSH2 0x100 DUP1 DUP4 SLOAD DIV MUL DUP4 MSTORE SWAP2 PUSH1 0x20 ADD SWAP2 PUSH2 0x1BD1 JUMP JUMPDEST DUP3 ADD SWAP2 SWAP1 PUSH0 MSTORE PUSH1 0x20 PUSH0 KECCAK256 SWAP1 JUMPDEST DUP2 SLOAD DUP2 MSTORE SWAP1 PUSH1 0x1 ADD SWAP1 PUSH1 0x20 ADD DUP1 DUP4 GT PUSH2 0x1BB4 JUMPI DUP3 SWAP1 SUB PUSH1 0x1F AND DUP3 ADD SWAP2 JUMPDEST POP POP POP POP POP DUP2 MSTORE PUSH1 0x20 ADD PUSH1 0x3 DUP3 ADD SLOAD DUP2 MSTORE PUSH1 0x20 ADD PUSH1 0x4 DUP3 ADD DUP1 SLOAD DUP1 PUSH1 0x20 MUL PUSH1 0x20 ADD PUSH1 0x40 MLOAD SWAP1 DUP2 ADD PUSH1 0x40 MSTORE DUP1 SWAP3 SWAP2 SWAP1 DUP2 DUP2 MSTORE PUSH1 0x20 ADD PUSH0 SWAP1 JUMPDEST DUP3 DUP3 LT ISZERO PUSH2 0x1CB0 JUMPI DUP4 DUP3 SWAP1 PUSH0 MSTORE PUSH1 0x20 PUSH0 KECCAK256 ADD DUP1 SLOAD PUSH2 0x1C25 SWAP1 PUSH2 0x41FF JUMP JUMPDEST DUP1 PUSH1 0x1F ADD PUSH1 0x20 DUP1 SWAP2 DIV MUL PUSH1 0x20 ADD PUSH1 0x40 MLOAD SWAP1 DUP2 ADD PUSH1 0x40 MSTORE DUP1 SWAP3 SWAP2 SWAP1 DUP2 DUP2 MSTORE PUSH1 0x20 ADD DUP3 DUP1 SLOAD PUSH2 0x1C51 SWAP1 PUSH2 0x41FF JUMP JUMPDEST DUP1 ISZERO PUSH2 0x1C9C JUMPI DUP1 PUSH1 0x1F LT PUSH2 0x1C73 JUMPI PUSH2 0x100 DUP1 DUP4 SLOAD DIV MUL DUP4 MSTORE SWAP2 PUSH1 0x20 ADD SWAP2 PUSH2 0x1C9C JUMP JUMPDEST DUP3 ADD SWAP2 SWAP1 PUSH0 MSTORE PUSH1 0x20 PUSH0 KECCAK256 SWAP1 JUMPDEST DUP2 SLOAD DUP2 MSTORE SWAP1 PUSH1 0x1 ADD SWAP1 PUSH1 0x20 ADD DUP1 DUP4 GT PUSH2 0x1C7F JUMPI DUP3 SWAP1 SUB PUSH1 0x1F AND DUP3 ADD SWAP2 JUMPDEST POP POP POP POP POP DUP2 MSTORE PUSH1 0x20 ADD SWAP1 PUSH1 0x1 ADD SWAP1 PUSH2 0x1C08 JUMP JUMPDEST POP POP POP SWAP1 DUP3 MSTORE POP PUSH1 0x5 DUP3 ADD SLOAD PUSH1 0x20 DUP3 ADD MSTORE PUSH1 0x6 DUP3 ADD SLOAD PUSH1 0x40 DUP3 ADD MSTORE PUSH1 0x7 DUP3 ADD SLOAD PUSH1 0x60 DUP3 ADD MSTORE PUSH1 0x8 DUP3 ADD SLOAD PUSH1 0x80 DUP3 ADD MSTORE PUSH1 0x9 SWAP1 SWAP2 ADD SLOAD PUSH1 0xFF AND ISZERO ISZERO PUSH1 0xA0 SWAP1 SWAP2 ADD MSTORE DUP3 MLOAD DUP4 SWAP1 DUP4 SWAP1 DUP2 LT PUSH2 0x1D04 JUMPI PUSH2 0x1D04 PUSH2 0x4120 JUMP JUMPDEST PUSH1 0x20 SWAP1 DUP2 MUL SWAP2 SWAP1 SWAP2 ADD ADD MSTORE PUSH1 0x1 ADD PUSH2 0x1A71 JUMP JUMPDEST POP PUSH0 JUMPDEST PUSH2 0x1D25 PUSH1 0x1 DUP5 PUSH2 0x4237 JUMP JUMPDEST DUP2 LT ISZERO PUSH2 0x1E32 JUMPI PUSH0 JUMPDEST PUSH1 0x1 PUSH2 0x1D3A DUP4 DUP7 PUSH2 0x4237 JUMP JUMPDEST PUSH2 0x1D44 SWAP2 SWAP1 PUSH2 0x4237 JUMP JUMPDEST DUP2 LT ISZERO PUSH2 0x1E29 JUMPI DUP3 PUSH2 0x1D57 DUP3 PUSH1 0x1 PUSH2 0x4148 JUMP JUMPDEST DUP2 MLOAD DUP2 LT PUSH2 0x1D67 JUMPI PUSH2 0x1D67 PUSH2 0x4120 JUMP JUMPDEST PUSH1 0x20 MUL PUSH1 0x20 ADD ADD MLOAD PUSH1 0xA0 ADD MLOAD DUP4 DUP3 DUP2 MLOAD DUP2 LT PUSH2 0x1D85 JUMPI PUSH2 0x1D85 PUSH2 0x4120 JUMP JUMPDEST PUSH1 0x20 MUL PUSH1 0x20 ADD ADD MLOAD PUSH1 0xA0 ADD MLOAD LT ISZERO PUSH2 0x1E21 JUMPI PUSH0 DUP4 DUP3 DUP2 MLOAD DUP2 LT PUSH2 0x1DAA JUMPI PUSH2 0x1DAA PUSH2 0x4120 JUMP JUMPDEST PUSH1 0x20 MUL PUSH1 0x20 ADD ADD MLOAD SWAP1 POP DUP4 DUP3 PUSH1 0x1 PUSH2 0x1DC2 SWAP2 SWAP1 PUSH2 0x4148 JUMP JUMPDEST DUP2 MLOAD DUP2 LT PUSH2 0x1DD2 JUMPI PUSH2 0x1DD2 PUSH2 0x4120 JUMP JUMPDEST PUSH1 0x20 MUL PUSH1 0x20 ADD ADD MLOAD DUP5 DUP4 DUP2 MLOAD DUP2 LT PUSH2 0x1DEC JUMPI PUSH2 0x1DEC PUSH2 0x4120 JUMP JUMPDEST PUSH1 0x20 SWAP1 DUP2 MUL SWAP2 SWAP1 SWAP2 ADD ADD MSTORE DUP1 DUP5 PUSH2 0x1E04 DUP5 PUSH1 0x1 PUSH2 0x4148 JUMP JUMPDEST DUP2 MLOAD DUP2 LT PUSH2 0x1E14 JUMPI PUSH2 0x1E14 PUSH2 0x4120 JUMP JUMPDEST PUSH1 0x20 MUL PUSH1 0x20 ADD ADD DUP2 SWAP1 MSTORE POP POP JUMPDEST PUSH1 0x1 ADD PUSH2 0x1D2E JUMP JUMPDEST POP PUSH1 0x1 ADD PUSH2 0x1D1A JUMP JUMPDEST POP SWAP3 SWAP2 POP POP JUMP JUMPDEST PUSH0 DUP2 DUP2 MSTORE PUSH1 0x4 PUSH1 0x20 MSTORE PUSH1 0x40 DUP2 KECCAK256 SLOAD PUSH1 0x60 SWAP2 SUB PUSH2 0x1E67 JUMPI PUSH1 0x40 MLOAD PUSH3 0x461BCD PUSH1 0xE5 SHL DUP2 MSTORE PUSH1 0x4 ADD PUSH2 0x566 SWAP1 PUSH2 0x41D2 JUMP JUMPDEST PUSH0 DUP3 DUP2 MSTORE PUSH1 0x5 PUSH1 0x20 SWAP1 DUP2 MSTORE PUSH1 0x40 DUP1 DUP4 KECCAK256 DUP1 SLOAD DUP3 MLOAD DUP2 DUP6 MUL DUP2 ADD DUP6 ADD SWAP1 SWAP4 MSTORE DUP1 DUP4 MSTORE SWAP2 SWAP4 SWAP1 SWAP3 DUP5 ADD JUMPDEST DUP3 DUP3 LT ISZERO PUSH2 0x1F8B JUMPI DUP4 DUP3 SWAP1 PUSH0 MSTORE PUSH1 0x20 PUSH0 KECCAK256 SWAP1 PUSH1 0x6 MUL ADD PUSH1 0x40 MLOAD DUP1 PUSH1 0xC0 ADD PUSH1 0x40 MSTORE SWAP1 DUP2 PUSH0 DUP3 ADD SLOAD DUP2 MSTORE PUSH1 0x20 ADD PUSH1 0x1 DUP3 ADD DUP1 SLOAD PUSH2 0x1EC9 SWAP1 PUSH2 0x41FF JUMP JUMPDEST DUP1 PUSH1 0x1F ADD PUSH1 0x20 DUP1 SWAP2 DIV MUL PUSH1 0x20 ADD PUSH1 0x40 MLOAD SWAP1 DUP2 ADD PUSH1 0x40 MSTORE DUP1 SWAP3 SWAP2 SWAP1 DUP2 DUP2 MSTORE PUSH1 0x20 ADD DUP3 DUP1 SLOAD PUSH2 0x1EF5 SWAP1 PUSH2 0x41FF JUMP JUMPDEST DUP1 ISZERO PUSH2 0x1F40 JUMPI DUP1 PUSH1 0x1F LT PUSH2 0x1F17 JUMPI PUSH2 0x100 DUP1 DUP4 SLOAD DIV MUL DUP4 MSTORE SWAP2 PUSH1 0x20 ADD SWAP2 PUSH2 0x1F40 JUMP JUMPDEST DUP3 ADD SWAP2 SWAP1 PUSH0 MSTORE PUSH1 0x20 PUSH0 KECCAK256 SWAP1 JUMPDEST DUP2 SLOAD DUP2 MSTORE SWAP1 PUSH1 0x1 ADD SWAP1 PUSH1 0x20 ADD DUP1 DUP4 GT PUSH2 0x1F23 JUMPI DUP3 SWAP1 SUB PUSH1 0x1F AND DUP3 ADD SWAP2 JUMPDEST POP POP POP SWAP2 DUP4 MSTORE POP POP PUSH1 0x2 DUP3 ADD SLOAD PUSH1 0x20 DUP1 DUP4 ADD SWAP2 SWAP1 SWAP2 MSTORE PUSH1 0x3 DUP4 ADD SLOAD PUSH1 0x40 DUP4 ADD MSTORE PUSH1 0x4 DUP4 ADD SLOAD PUSH1 0x60 DUP4 ADD MSTORE PUSH1 0x5 SWAP1 SWAP3 ADD SLOAD PUSH1 0xFF AND ISZERO ISZERO PUSH1 0x80 SWAP1 SWAP2 ADD MSTORE SWAP1 DUP3 MSTORE PUSH1 0x1 SWAP3 SWAP1 SWAP3 ADD SWAP2 ADD PUSH2 0x1E8F JUMP JUMPDEST POP POP POP POP SWAP1 POP SWAP2 SWAP1 POP JUMP JUMPDEST PUSH1 0x1 SLOAD PUSH1 0x40 MLOAD PUSH4 0x95A8C58D PUSH1 0xE0 SHL DUP2 MSTORE PUSH1 0x1 PUSH1 0x1 PUSH1 0xA0 SHL SUB SWAP1 SWAP2 AND SWAP1 PUSH4 0x95A8C58D SWAP1 PUSH2 0x1FC8 SWAP1 ORIGIN SWAP1 PUSH0 SWAP1 PUSH1 0x4 ADD PUSH2 0x415B JUMP JUMPDEST PUSH1 0x20 PUSH1 0x40 MLOAD DUP1 DUP4 SUB DUP2 DUP7 GAS STATICCALL ISZERO DUP1 ISZERO PUSH2 0x1FE3 JUMPI RETURNDATASIZE PUSH0 PUSH0 RETURNDATACOPY RETURNDATASIZE PUSH0 REVERT JUMPDEST POP POP POP POP PUSH1 0x40 MLOAD RETURNDATASIZE PUSH1 0x1F NOT PUSH1 0x1F DUP3 ADD AND DUP3 ADD DUP1 PUSH1 0x40 MSTORE POP DUP2 ADD SWAP1 PUSH2 0x2007 SWAP2 SWAP1 PUSH2 0x4194 JUMP JUMPDEST PUSH2 0x2023 JUMPI PUSH1 0x40 MLOAD PUSH3 0x461BCD PUSH1 0xE5 SHL DUP2 MSTORE PUSH1 0x4 ADD PUSH2 0x566 SWAP1 PUSH2 0x41AF JUMP JUMPDEST PUSH0 DUP7 DUP2 MSTORE PUSH1 0x4 PUSH1 0x20 MSTORE PUSH1 0x40 SWAP1 KECCAK256 SLOAD ISZERO PUSH2 0x207E JUMPI PUSH1 0x40 MLOAD PUSH3 0x461BCD PUSH1 0xE5 SHL DUP2 MSTORE PUSH1 0x20 PUSH1 0x4 DUP3 ADD DUP2 SWAP1 MSTORE PUSH1 0x24 DUP3 ADD MSTORE PUSH32 0x466F6F642077697468207468697320494420616C726561647920657869737473 PUSH1 0x44 DUP3 ADD MSTORE PUSH1 0x64 ADD PUSH2 0x566 JUMP JUMPDEST PUSH0 SLOAD PUSH1 0x40 MLOAD PUSH4 0x79829693 PUSH1 0xE1 SHL DUP2 MSTORE PUSH1 0x4 DUP2 ADD DUP6 SWAP1 MSTORE PUSH1 0x1 PUSH1 0x1 PUSH1 0xA0 SHL SUB SWAP1 SWAP2 AND SWAP1 PUSH4 0xF3052D26 SWAP1 PUSH1 0x24 ADD PUSH0 PUSH1 0x40 MLOAD DUP1 DUP4 SUB DUP2 DUP7 GAS STATICCALL ISZERO DUP1 ISZERO PUSH2 0x20C3 JUMPI RETURNDATASIZE PUSH0 PUSH0 RETURNDATACOPY RETURNDATASIZE PUSH0 REVERT JUMPDEST POP POP POP POP PUSH1 0x40 MLOAD RETURNDATASIZE PUSH0 DUP3 RETURNDATACOPY PUSH1 0x1F RETURNDATASIZE SWAP1 DUP2 ADD PUSH1 0x1F NOT AND DUP3 ADD PUSH1 0x40 MSTORE PUSH2 0x20EA SWAP2 SWAP1 DUP2 ADD SWAP1 PUSH2 0x43AB JUMP JUMPDEST MLOAD PUSH0 SUB PUSH2 0x2133 JUMPI PUSH1 0x40 MLOAD PUSH3 0x461BCD PUSH1 0xE5 SHL DUP2 MSTORE PUSH1 0x20 PUSH1 0x4 DUP3 ADD MSTORE PUSH1 0x17 PUSH1 0x24 DUP3 ADD MSTORE PUSH23 0x10D85D1959DBDC9E48191BD95CC81B9BDD08195E1A5CDD PUSH1 0x4A SHL PUSH1 0x44 DUP3 ADD MSTORE PUSH1 0x64 ADD PUSH2 0x566 JUMP JUMPDEST PUSH0 DUP1 JUMPDEST DUP3 MLOAD DUP2 LT ISZERO PUSH2 0x2172 JUMPI DUP3 DUP2 DUP2 MLOAD DUP2 LT PUSH2 0x2151 JUMPI PUSH2 0x2151 PUSH2 0x4120 JUMP JUMPDEST PUSH1 0x20 MUL PUSH1 0x20 ADD ADD MLOAD PUSH1 0x20 ADD MLOAD DUP3 PUSH2 0x2168 SWAP2 SWAP1 PUSH2 0x4148 JUMP JUMPDEST SWAP2 POP PUSH1 0x1 ADD PUSH2 0x2136 JUMP JUMPDEST POP PUSH1 0x40 DUP1 MLOAD PUSH2 0x140 DUP2 ADD DUP3 MSTORE DUP9 DUP2 MSTORE PUSH1 0x20 DUP1 DUP3 ADD DUP10 DUP2 MSTORE DUP3 DUP5 ADD DUP10 SWAP1 MSTORE PUSH1 0x60 DUP4 ADD DUP9 SWAP1 MSTORE PUSH1 0x80 DUP4 ADD DUP8 SWAP1 MSTORE PUSH0 PUSH1 0xA0 DUP5 ADD DUP2 SWAP1 MSTORE PUSH1 0xC0 DUP5 ADD DUP7 SWAP1 MSTORE PUSH1 0xE0 DUP5 ADD DUP2 SWAP1 MSTORE PUSH2 0x100 DUP5 ADD DUP2 SWAP1 MSTORE PUSH2 0x120 DUP5 ADD DUP2 SWAP1 MSTORE DUP12 DUP2 MSTORE PUSH1 0x4 SWAP1 SWAP3 MSTORE SWAP3 SWAP1 KECCAK256 DUP2 MLOAD DUP2 SSTORE SWAP2 MLOAD SWAP1 SWAP2 DUP3 SWAP2 PUSH1 0x1 DUP3 ADD SWAP1 PUSH2 0x21E7 SWAP1 DUP3 PUSH2 0x428E JUMP JUMPDEST POP PUSH1 0x40 DUP3 ADD MLOAD PUSH1 0x2 DUP3 ADD SWAP1 PUSH2 0x21FC SWAP1 DUP3 PUSH2 0x428E JUMP JUMPDEST POP PUSH1 0x60 DUP3 ADD MLOAD PUSH1 0x3 DUP3 ADD SSTORE PUSH1 0x80 DUP3 ADD MLOAD DUP1 MLOAD PUSH2 0x2222 SWAP2 PUSH1 0x4 DUP5 ADD SWAP2 PUSH1 0x20 SWAP1 SWAP2 ADD SWAP1 PUSH2 0x37CC JUMP JUMPDEST POP PUSH1 0xA0 DUP3 ADD MLOAD PUSH1 0x5 DUP3 ADD SSTORE PUSH1 0xC0 DUP3 ADD MLOAD PUSH1 0x6 DUP1 DUP4 ADD SWAP2 SWAP1 SWAP2 SSTORE PUSH1 0xE0 DUP4 ADD MLOAD PUSH1 0x7 DUP4 ADD SSTORE PUSH2 0x100 DUP4 ADD MLOAD PUSH1 0x8 DUP4 ADD SSTORE PUSH2 0x120 SWAP1 SWAP3 ADD MLOAD PUSH1 0x9 SWAP1 SWAP2 ADD DUP1 SLOAD PUSH1 0xFF NOT AND SWAP2 ISZERO ISZERO SWAP2 SWAP1 SWAP2 OR SWAP1 SSTORE DUP1 SLOAD PUSH1 0x1 DUP2 ADD DUP3 SSTORE PUSH0 SWAP2 DUP3 MSTORE PUSH32 0xF652222313E28459528D920B65115C16C04F3EFC82AAEDC97BE59F3F377C0D3F ADD DUP10 SWAP1 SSTORE SLOAD PUSH1 0x40 MLOAD PUSH4 0x17E01A73 PUSH1 0xE2 SHL DUP2 MSTORE PUSH1 0x4 DUP2 ADD DUP8 SWAP1 MSTORE PUSH1 0x24 DUP2 ADD DUP11 SWAP1 MSTORE PUSH1 0x1 PUSH1 0x1 PUSH1 0xA0 SHL SUB SWAP1 SWAP2 AND SWAP1 PUSH4 0x5F8069CC SWAP1 PUSH1 0x44 ADD PUSH0 PUSH1 0x40 MLOAD DUP1 DUP4 SUB DUP2 PUSH0 DUP8 DUP1 EXTCODESIZE ISZERO DUP1 ISZERO PUSH2 0x22E4 JUMPI PUSH0 PUSH0 REVERT JUMPDEST POP GAS CALL ISZERO DUP1 ISZERO PUSH2 0x22F6 JUMPI RETURNDATASIZE PUSH0 PUSH0 RETURNDATACOPY RETURNDATASIZE PUSH0 REVERT JUMPDEST POP PUSH0 SWAP3 POP POP POP JUMPDEST DUP4 MLOAD DUP2 LT ISZERO PUSH2 0x2422 JUMPI PUSH0 PUSH1 0x40 MLOAD DUP1 PUSH1 0xC0 ADD PUSH1 0x40 MSTORE DUP1 PUSH1 0x3 PUSH0 DUP2 SLOAD DUP1 SWAP3 SWAP2 SWAP1 PUSH2 0x2324 SWAP1 PUSH2 0x4393 JUMP JUMPDEST SWAP2 SWAP1 POP SSTORE DUP2 MSTORE PUSH1 0x20 ADD DUP7 DUP5 DUP2 MLOAD DUP2 LT PUSH2 0x233F JUMPI PUSH2 0x233F PUSH2 0x4120 JUMP JUMPDEST PUSH1 0x20 MUL PUSH1 0x20 ADD ADD MLOAD PUSH0 ADD MLOAD DUP2 MSTORE PUSH1 0x20 ADD PUSH0 DUP2 MSTORE PUSH1 0x20 ADD DUP7 DUP5 DUP2 MLOAD DUP2 LT PUSH2 0x2367 JUMPI PUSH2 0x2367 PUSH2 0x4120 JUMP JUMPDEST PUSH1 0x20 MUL PUSH1 0x20 ADD ADD MLOAD PUSH1 0x20 ADD MLOAD DUP2 MSTORE PUSH1 0x20 ADD DUP7 DUP5 DUP2 MLOAD DUP2 LT PUSH2 0x238A JUMPI PUSH2 0x238A PUSH2 0x4120 JUMP JUMPDEST PUSH1 0x20 SWAP1 DUP2 MUL SWAP2 SWAP1 SWAP2 ADD DUP2 ADD MLOAD PUSH1 0x40 SWAP1 DUP2 ADD MLOAD DUP4 MSTORE PUSH0 SWAP3 DUP3 ADD DUP4 SWAP1 MSTORE DUP14 DUP4 MSTORE PUSH1 0x5 DUP3 MSTORE DUP3 KECCAK256 DUP1 SLOAD PUSH1 0x1 DUP2 DUP2 ADD DUP4 SSTORE SWAP2 DUP5 MSTORE SWAP3 DUP3 SWAP1 KECCAK256 DUP5 MLOAD PUSH1 0x6 SWAP1 SWAP5 MUL ADD SWAP3 DUP4 SSTORE SWAP1 DUP4 ADD MLOAD SWAP3 SWAP4 POP DUP4 SWAP3 SWAP1 DUP3 ADD SWAP1 PUSH2 0x23E0 SWAP1 DUP3 PUSH2 0x428E JUMP JUMPDEST POP PUSH1 0x40 DUP3 ADD MLOAD PUSH1 0x2 DUP3 ADD SSTORE PUSH1 0x60 DUP3 ADD MLOAD PUSH1 0x3 DUP3 ADD SSTORE PUSH1 0x80 DUP3 ADD MLOAD PUSH1 0x4 DUP3 ADD SSTORE PUSH1 0xA0 SWAP1 SWAP2 ADD MLOAD PUSH1 0x5 SWAP1 SWAP2 ADD DUP1 SLOAD PUSH1 0xFF NOT AND SWAP2 ISZERO ISZERO SWAP2 SWAP1 SWAP2 OR SWAP1 SSTORE POP PUSH1 0x1 ADD PUSH2 0x22FD JUMP JUMPDEST POP PUSH32 0xBDF2814016D06BF27F22AA349FADE26A888A8F7EAC3E0963916B1C64CC37A5CE DUP9 DUP9 DUP9 DUP9 DUP9 PUSH1 0x40 MLOAD PUSH2 0x245A SWAP6 SWAP5 SWAP4 SWAP3 SWAP2 SWAP1 PUSH2 0x445A JUMP JUMPDEST PUSH1 0x40 MLOAD DUP1 SWAP2 SUB SWAP1 LOG1 POP POP POP POP POP POP POP POP JUMP JUMPDEST PUSH1 0x60 PUSH0 DUP1 JUMPDEST PUSH1 0x6 SLOAD DUP2 LT ISZERO PUSH2 0x24CE JUMPI PUSH0 PUSH1 0x6 DUP3 DUP2 SLOAD DUP2 LT PUSH2 0x248F JUMPI PUSH2 0x248F PUSH2 0x4120 JUMP JUMPDEST PUSH0 SWAP2 DUP3 MSTORE PUSH1 0x20 DUP1 DUP4 KECCAK256 SWAP1 SWAP2 ADD SLOAD DUP1 DUP4 MSTORE PUSH1 0x4 SWAP1 SWAP2 MSTORE PUSH1 0x40 SWAP1 SWAP2 KECCAK256 PUSH1 0x9 ADD SLOAD SWAP1 SWAP2 POP PUSH1 0xFF AND PUSH2 0x24C5 JUMPI DUP3 PUSH2 0x24C1 DUP2 PUSH2 0x4393 JUMP JUMPDEST SWAP4 POP POP JUMPDEST POP PUSH1 0x1 ADD PUSH2 0x2471 JUMP JUMPDEST POP PUSH0 DUP2 PUSH1 0x1 PUSH1 0x1 PUSH1 0x40 SHL SUB DUP2 GT ISZERO PUSH2 0x24E8 JUMPI PUSH2 0x24E8 PUSH2 0x3B6A JUMP JUMPDEST PUSH1 0x40 MLOAD SWAP1 DUP1 DUP3 MSTORE DUP1 PUSH1 0x20 MUL PUSH1 0x20 ADD DUP3 ADD PUSH1 0x40 MSTORE DUP1 ISZERO PUSH2 0x2521 JUMPI DUP2 PUSH1 0x20 ADD JUMPDEST PUSH2 0x250E PUSH2 0x3820 JUMP JUMPDEST DUP2 MSTORE PUSH1 0x20 ADD SWAP1 PUSH1 0x1 SWAP1 SUB SWAP1 DUP2 PUSH2 0x2506 JUMPI SWAP1 POP JUMPDEST POP SWAP1 POP PUSH0 DUP1 JUMPDEST PUSH1 0x6 SLOAD DUP2 LT ISZERO PUSH2 0x2A54 JUMPI PUSH0 PUSH1 0x6 DUP3 DUP2 SLOAD DUP2 LT PUSH2 0x2545 JUMPI PUSH2 0x2545 PUSH2 0x4120 JUMP JUMPDEST PUSH0 SWAP2 DUP3 MSTORE PUSH1 0x20 DUP1 DUP4 KECCAK256 SWAP1 SWAP2 ADD SLOAD DUP1 DUP4 MSTORE PUSH1 0x4 SWAP1 SWAP2 MSTORE PUSH1 0x40 SWAP1 SWAP2 KECCAK256 PUSH1 0x9 ADD SLOAD SWAP1 SWAP2 POP PUSH1 0xFF AND PUSH2 0x2A4B JUMPI PUSH0 DUP1 JUMPDEST PUSH0 DUP4 DUP2 MSTORE PUSH1 0x5 PUSH1 0x20 MSTORE PUSH1 0x40 SWAP1 KECCAK256 SLOAD DUP2 LT ISZERO PUSH2 0x25D4 JUMPI PUSH0 DUP4 DUP2 MSTORE PUSH1 0x5 PUSH1 0x20 MSTORE PUSH1 0x40 SWAP1 KECCAK256 DUP1 SLOAD DUP3 SWAP1 DUP2 LT PUSH2 0x25A4 JUMPI PUSH2 0x25A4 PUSH2 0x4120 JUMP JUMPDEST PUSH0 SWAP2 DUP3 MSTORE PUSH1 0x20 SWAP1 SWAP2 KECCAK256 PUSH1 0x5 PUSH1 0x6 SWAP1 SWAP3 MUL ADD ADD SLOAD PUSH1 0xFF AND PUSH2 0x25CC JUMPI DUP2 PUSH2 0x25C8 DUP2 PUSH2 0x4393 JUMP JUMPDEST SWAP3 POP POP JUMPDEST PUSH1 0x1 ADD PUSH2 0x2570 JUMP JUMPDEST POP PUSH0 DUP2 PUSH1 0x1 PUSH1 0x1 PUSH1 0x40 SHL SUB DUP2 GT ISZERO PUSH2 0x25EE JUMPI PUSH2 0x25EE PUSH2 0x3B6A JUMP JUMPDEST PUSH1 0x40 MLOAD SWAP1 DUP1 DUP3 MSTORE DUP1 PUSH1 0x20 MUL PUSH1 0x20 ADD DUP3 ADD PUSH1 0x40 MSTORE DUP1 ISZERO PUSH2 0x2627 JUMPI DUP2 PUSH1 0x20 ADD JUMPDEST PUSH2 0x2614 PUSH2 0x3762 JUMP JUMPDEST DUP2 MSTORE PUSH1 0x20 ADD SWAP1 PUSH1 0x1 SWAP1 SUB SWAP1 DUP2 PUSH2 0x260C JUMPI SWAP1 POP JUMPDEST POP SWAP1 POP PUSH0 DUP1 JUMPDEST PUSH0 DUP6 DUP2 MSTORE PUSH1 0x5 PUSH1 0x20 MSTORE PUSH1 0x40 SWAP1 KECCAK256 SLOAD DUP2 LT ISZERO PUSH2 0x27AE JUMPI PUSH0 DUP6 DUP2 MSTORE PUSH1 0x5 PUSH1 0x20 MSTORE PUSH1 0x40 SWAP1 KECCAK256 DUP1 SLOAD DUP3 SWAP1 DUP2 LT PUSH2 0x2661 JUMPI PUSH2 0x2661 PUSH2 0x4120 JUMP JUMPDEST PUSH0 SWAP2 DUP3 MSTORE PUSH1 0x20 SWAP1 SWAP2 KECCAK256 PUSH1 0x5 PUSH1 0x6 SWAP1 SWAP3 MUL ADD ADD SLOAD PUSH1 0xFF AND PUSH2 0x27A6 JUMPI PUSH0 DUP6 DUP2 MSTORE PUSH1 0x5 PUSH1 0x20 MSTORE PUSH1 0x40 SWAP1 KECCAK256 DUP1 SLOAD DUP3 SWAP1 DUP2 LT PUSH2 0x269A JUMPI PUSH2 0x269A PUSH2 0x4120 JUMP JUMPDEST SWAP1 PUSH0 MSTORE PUSH1 0x20 PUSH0 KECCAK256 SWAP1 PUSH1 0x6 MUL ADD PUSH1 0x40 MLOAD DUP1 PUSH1 0xC0 ADD PUSH1 0x40 MSTORE SWAP1 DUP2 PUSH0 DUP3 ADD SLOAD DUP2 MSTORE PUSH1 0x20 ADD PUSH1 0x1 DUP3 ADD DUP1 SLOAD PUSH2 0x26CA SWAP1 PUSH2 0x41FF JUMP JUMPDEST DUP1 PUSH1 0x1F ADD PUSH1 0x20 DUP1 SWAP2 DIV MUL PUSH1 0x20 ADD PUSH1 0x40 MLOAD SWAP1 DUP2 ADD PUSH1 0x40 MSTORE DUP1 SWAP3 SWAP2 SWAP1 DUP2 DUP2 MSTORE PUSH1 0x20 ADD DUP3 DUP1 SLOAD PUSH2 0x26F6 SWAP1 PUSH2 0x41FF JUMP JUMPDEST DUP1 ISZERO PUSH2 0x2741 JUMPI DUP1 PUSH1 0x1F LT PUSH2 0x2718 JUMPI PUSH2 0x100 DUP1 DUP4 SLOAD DIV MUL DUP4 MSTORE SWAP2 PUSH1 0x20 ADD SWAP2 PUSH2 0x2741 JUMP JUMPDEST DUP3 ADD SWAP2 SWAP1 PUSH0 MSTORE PUSH1 0x20 PUSH0 KECCAK256 SWAP1 JUMPDEST DUP2 SLOAD DUP2 MSTORE SWAP1 PUSH1 0x1 ADD SWAP1 PUSH1 0x20 ADD DUP1 DUP4 GT PUSH2 0x2724 JUMPI DUP3 SWAP1 SUB PUSH1 0x1F AND DUP3 ADD SWAP2 JUMPDEST POP POP POP SWAP2 DUP4 MSTORE POP POP PUSH1 0x2 DUP3 ADD SLOAD PUSH1 0x20 DUP3 ADD MSTORE PUSH1 0x3 DUP3 ADD SLOAD PUSH1 0x40 DUP3 ADD MSTORE PUSH1 0x4 DUP3 ADD SLOAD PUSH1 0x60 DUP3 ADD MSTORE PUSH1 0x5 SWAP1 SWAP2 ADD SLOAD PUSH1 0xFF AND ISZERO ISZERO PUSH1 0x80 SWAP1 SWAP2 ADD MSTORE DUP4 MLOAD DUP5 SWAP1 DUP5 SWAP1 DUP2 LT PUSH2 0x278C JUMPI PUSH2 0x278C PUSH2 0x4120 JUMP JUMPDEST PUSH1 0x20 MUL PUSH1 0x20 ADD ADD DUP2 SWAP1 MSTORE POP DUP2 DUP1 PUSH2 0x27A2 SWAP1 PUSH2 0x4393 JUMP JUMPDEST SWAP3 POP POP JUMPDEST PUSH1 0x1 ADD PUSH2 0x262D JUMP JUMPDEST POP PUSH1 0x40 DUP1 MLOAD PUSH0 DUP7 DUP2 MSTORE PUSH1 0x4 PUSH1 0x20 MSTORE DUP3 SWAP1 KECCAK256 PUSH2 0x180 DUP3 ADD DUP4 MSTORE DUP1 SLOAD SWAP3 DUP3 ADD SWAP3 DUP4 MSTORE PUSH1 0x1 DUP2 ADD DUP1 SLOAD SWAP3 SWAP4 DUP5 SWAP4 SWAP1 SWAP3 SWAP2 PUSH1 0x60 DUP6 ADD SWAP2 PUSH2 0x27E9 SWAP1 PUSH2 0x41FF JUMP JUMPDEST DUP1 PUSH1 0x1F ADD PUSH1 0x20 DUP1 SWAP2 DIV MUL PUSH1 0x20 ADD PUSH1 0x40 MLOAD SWAP1 DUP2 ADD PUSH1 0x40 MSTORE DUP1 SWAP3 SWAP2 SWAP1 DUP2 DUP2 MSTORE PUSH1 0x20 ADD DUP3 DUP1 SLOAD PUSH2 0x2815 SWAP1 PUSH2 0x41FF JUMP JUMPDEST DUP1 ISZERO PUSH2 0x2860 JUMPI DUP1 PUSH1 0x1F LT PUSH2 0x2837 JUMPI PUSH2 0x100 DUP1 DUP4 SLOAD DIV MUL DUP4 MSTORE SWAP2 PUSH1 0x20 ADD SWAP2 PUSH2 0x2860 JUMP JUMPDEST DUP3 ADD SWAP2 SWAP1 PUSH0 MSTORE PUSH1 0x20 PUSH0 KECCAK256 SWAP1 JUMPDEST DUP2 SLOAD DUP2 MSTORE SWAP1 PUSH1 0x1 ADD SWAP1 PUSH1 0x20 ADD DUP1 DUP4 GT PUSH2 0x2843 JUMPI DUP3 SWAP1 SUB PUSH1 0x1F AND DUP3 ADD SWAP2 JUMPDEST POP POP POP POP POP DUP2 MSTORE PUSH1 0x20 ADD PUSH1 0x2 DUP3 ADD DUP1 SLOAD PUSH2 0x2879 SWAP1 PUSH2 0x41FF JUMP JUMPDEST DUP1 PUSH1 0x1F ADD PUSH1 0x20 DUP1 SWAP2 DIV MUL PUSH1 0x20 ADD PUSH1 0x40 MLOAD SWAP1 DUP2 ADD PUSH1 0x40 MSTORE DUP1 SWAP3 SWAP2 SWAP1 DUP2 DUP2 MSTORE PUSH1 0x20 ADD DUP3 DUP1 SLOAD PUSH2 0x28A5 SWAP1 PUSH2 0x41FF JUMP JUMPDEST DUP1 ISZERO PUSH2 0x28F0 JUMPI DUP1 PUSH1 0x1F LT PUSH2 0x28C7 JUMPI PUSH2 0x100 DUP1 DUP4 SLOAD DIV MUL DUP4 MSTORE SWAP2 PUSH1 0x20 ADD SWAP2 PUSH2 0x28F0 JUMP JUMPDEST DUP3 ADD SWAP2 SWAP1 PUSH0 MSTORE PUSH1 0x20 PUSH0 KECCAK256 SWAP1 JUMPDEST DUP2 SLOAD DUP2 MSTORE SWAP1 PUSH1 0x1 ADD SWAP1 PUSH1 0x20 ADD DUP1 DUP4 GT PUSH2 0x28D3 JUMPI DUP3 SWAP1 SUB PUSH1 0x1F AND DUP3 ADD SWAP2 JUMPDEST POP POP POP POP POP DUP2 MSTORE PUSH1 0x20 ADD PUSH1 0x3 DUP3 ADD SLOAD DUP2 MSTORE PUSH1 0x20 ADD PUSH1 0x4 DUP3 ADD DUP1 SLOAD DUP1 PUSH1 0x20 MUL PUSH1 0x20 ADD PUSH1 0x40 MLOAD SWAP1 DUP2 ADD PUSH1 0x40 MSTORE DUP1 SWAP3 SWAP2 SWAP1 DUP2 DUP2 MSTORE PUSH1 0x20 ADD PUSH0 SWAP1 JUMPDEST DUP3 DUP3 LT ISZERO PUSH2 0x29CF JUMPI DUP4 DUP3 SWAP1 PUSH0 MSTORE PUSH1 0x20 PUSH0 KECCAK256 ADD DUP1 SLOAD PUSH2 0x2944 SWAP1 PUSH2 0x41FF JUMP JUMPDEST DUP1 PUSH1 0x1F ADD PUSH1 0x20 DUP1 SWAP2 DIV MUL PUSH1 0x20 ADD PUSH1 0x40 MLOAD SWAP1 DUP2 ADD PUSH1 0x40 MSTORE DUP1 SWAP3 SWAP2 SWAP1 DUP2 DUP2 MSTORE PUSH1 0x20 ADD DUP3 DUP1 SLOAD PUSH2 0x2970 SWAP1 PUSH2 0x41FF JUMP JUMPDEST DUP1 ISZERO PUSH2 0x29BB JUMPI DUP1 PUSH1 0x1F LT PUSH2 0x2992 JUMPI PUSH2 0x100 DUP1 DUP4 SLOAD DIV MUL DUP4 MSTORE SWAP2 PUSH1 0x20 ADD SWAP2 PUSH2 0x29BB JUMP JUMPDEST DUP3 ADD SWAP2 SWAP1 PUSH0 MSTORE PUSH1 0x20 PUSH0 KECCAK256 SWAP1 JUMPDEST DUP2 SLOAD DUP2 MSTORE SWAP1 PUSH1 0x1 ADD SWAP1 PUSH1 0x20 ADD DUP1 DUP4 GT PUSH2 0x299E JUMPI DUP3 SWAP1 SUB PUSH1 0x1F AND DUP3 ADD SWAP2 JUMPDEST POP POP POP POP POP DUP2 MSTORE PUSH1 0x20 ADD SWAP1 PUSH1 0x1 ADD SWAP1 PUSH2 0x2927 JUMP JUMPDEST POP POP POP SWAP1 DUP3 MSTORE POP PUSH1 0x5 DUP3 ADD SLOAD PUSH1 0x20 DUP1 DUP4 ADD SWAP2 SWAP1 SWAP2 MSTORE PUSH1 0x6 DUP4 ADD SLOAD PUSH1 0x40 DUP4 ADD MSTORE PUSH1 0x7 DUP4 ADD SLOAD PUSH1 0x60 DUP4 ADD MSTORE PUSH1 0x8 DUP4 ADD SLOAD PUSH1 0x80 DUP4 ADD MSTORE PUSH1 0x9 SWAP1 SWAP3 ADD SLOAD PUSH1 0xFF AND ISZERO ISZERO PUSH1 0xA0 SWAP1 SWAP2 ADD MSTORE SWAP1 DUP3 MSTORE ADD DUP4 SWAP1 MSTORE DUP8 MLOAD DUP9 SWAP1 DUP9 SWAP1 DUP2 LT PUSH2 0x2A2E JUMPI PUSH2 0x2A2E PUSH2 0x4120 JUMP JUMPDEST PUSH1 0x20 MUL PUSH1 0x20 ADD ADD DUP2 SWAP1 MSTORE POP DUP6 DUP1 PUSH2 0x2A44 SWAP1 PUSH2 0x4393 JUMP JUMPDEST SWAP7 POP POP POP POP POP JUMPDEST POP PUSH1 0x1 ADD PUSH2 0x2527 JUMP JUMPDEST POP SWAP1 SWAP4 SWAP3 POP POP POP JUMP JUMPDEST PUSH1 0x1 SLOAD PUSH1 0x40 MLOAD PUSH4 0x95A8C58D PUSH1 0xE0 SHL DUP2 MSTORE PUSH1 0x1 PUSH1 0x1 PUSH1 0xA0 SHL SUB SWAP1 SWAP2 AND SWAP1 PUSH4 0x95A8C58D SWAP1 PUSH2 0x2A8F SWAP1 ORIGIN SWAP1 PUSH0 SWAP1 PUSH1 0x4 ADD PUSH2 0x415B JUMP JUMPDEST PUSH1 0x20 PUSH1 0x40 MLOAD DUP1 DUP4 SUB DUP2 DUP7 GAS STATICCALL ISZERO DUP1 ISZERO PUSH2 0x2AAA JUMPI RETURNDATASIZE PUSH0 PUSH0 RETURNDATACOPY RETURNDATASIZE PUSH0 REVERT JUMPDEST POP POP POP POP PUSH1 0x40 MLOAD RETURNDATASIZE PUSH1 0x1F NOT PUSH1 0x1F DUP3 ADD AND DUP3 ADD DUP1 PUSH1 0x40 MSTORE POP DUP2 ADD SWAP1 PUSH2 0x2ACE SWAP2 SWAP1 PUSH2 0x4194 JUMP JUMPDEST PUSH2 0x2AEA JUMPI PUSH1 0x40 MLOAD PUSH3 0x461BCD PUSH1 0xE5 SHL DUP2 MSTORE PUSH1 0x4 ADD PUSH2 0x566 SWAP1 PUSH2 0x41AF JUMP JUMPDEST PUSH0 DUP4 DUP2 MSTORE PUSH1 0x4 PUSH1 0x20 MSTORE PUSH1 0x40 DUP2 KECCAK256 SLOAD SWAP1 SUB PUSH2 0x2B16 JUMPI PUSH1 0x40 MLOAD PUSH3 0x461BCD PUSH1 0xE5 SHL DUP2 MSTORE PUSH1 0x4 ADD PUSH2 0x566 SWAP1 PUSH2 0x41D2 JUMP JUMPDEST PUSH0 DUP4 DUP2 MSTORE PUSH1 0x5 PUSH1 0x20 MSTORE PUSH1 0x40 DUP2 KECCAK256 SWAP1 DUP1 JUMPDEST DUP3 SLOAD DUP2 LT ISZERO PUSH2 0x2C2F JUMPI DUP5 DUP4 DUP3 DUP2 SLOAD DUP2 LT PUSH2 0x2B42 JUMPI PUSH2 0x2B42 PUSH2 0x4120 JUMP JUMPDEST SWAP1 PUSH0 MSTORE PUSH1 0x20 PUSH0 KECCAK256 SWAP1 PUSH1 0x6 MUL ADD PUSH0 ADD SLOAD SUB PUSH2 0x2C27 JUMPI DUP4 PUSH0 ADD MLOAD DUP4 DUP3 DUP2 SLOAD DUP2 LT PUSH2 0x2B6C JUMPI PUSH2 0x2B6C PUSH2 0x4120 JUMP JUMPDEST SWAP1 PUSH0 MSTORE PUSH1 0x20 PUSH0 KECCAK256 SWAP1 PUSH1 0x6 MUL ADD PUSH1 0x1 ADD SWAP1 DUP2 PUSH2 0x2B87 SWAP2 SWAP1 PUSH2 0x428E JUMP JUMPDEST POP DUP4 PUSH1 0x20 ADD MLOAD DUP4 DUP3 DUP2 SLOAD DUP2 LT PUSH2 0x2B9F JUMPI PUSH2 0x2B9F PUSH2 0x4120 JUMP JUMPDEST SWAP1 PUSH0 MSTORE PUSH1 0x20 PUSH0 KECCAK256 SWAP1 PUSH1 0x6 MUL ADD PUSH1 0x3 ADD DUP2 SWAP1 SSTORE POP DUP4 PUSH1 0x40 ADD MLOAD DUP4 DUP3 DUP2 SLOAD DUP2 LT PUSH2 0x2BC9 JUMPI PUSH2 0x2BC9 PUSH2 0x4120 JUMP JUMPDEST SWAP1 PUSH0 MSTORE PUSH1 0x20 PUSH0 KECCAK256 SWAP1 PUSH1 0x6 MUL ADD PUSH1 0x4 ADD DUP2 SWAP1 SSTORE POP PUSH1 0x1 SWAP2 POP PUSH32 0xE29E1E70959F0C301943D01C4BD294592A2105BC81E9B2523C4B1D7F7D1F393F DUP7 DUP7 PUSH1 0x40 MLOAD PUSH2 0x2C1A SWAP3 SWAP2 SWAP1 SWAP2 DUP3 MSTORE PUSH1 0x20 DUP3 ADD MSTORE PUSH1 0x40 ADD SWAP1 JUMP JUMPDEST PUSH1 0x40 MLOAD DUP1 SWAP2 SUB SWAP1 LOG1 PUSH2 0x2C2F JUMP JUMPDEST PUSH1 0x1 ADD PUSH2 0x2B26 JUMP JUMPDEST POP DUP1 PUSH2 0x2C4D JUMPI PUSH1 0x40 MLOAD PUSH3 0x461BCD PUSH1 0xE5 SHL DUP2 MSTORE PUSH1 0x4 ADD PUSH2 0x566 SWAP1 PUSH2 0x435C JUMP JUMPDEST POP POP POP POP POP JUMP JUMPDEST PUSH0 JUMPDEST PUSH0 DUP3 DUP2 MSTORE PUSH1 0x7 PUSH1 0x20 MSTORE PUSH1 0x40 SWAP1 KECCAK256 SLOAD DUP2 LT ISZERO PUSH2 0x2CD3 JUMPI PUSH0 DUP3 DUP2 MSTORE PUSH1 0x7 PUSH1 0x20 MSTORE PUSH1 0x40 SWAP1 KECCAK256 DUP1 SLOAD DUP5 SWAP2 SWAP1 DUP4 SWAP1 DUP2 LT PUSH2 0x2C8D JUMPI PUSH2 0x2C8D PUSH2 0x4120 JUMP JUMPDEST SWAP1 PUSH0 MSTORE PUSH1 0x20 PUSH0 KECCAK256 ADD SLOAD SUB PUSH2 0x2CCB JUMPI PUSH0 DUP3 DUP2 MSTORE PUSH1 0x7 PUSH1 0x20 MSTORE PUSH1 0x40 SWAP1 KECCAK256 DUP1 SLOAD DUP1 PUSH2 0x2CB7 JUMPI PUSH2 0x2CB7 PUSH2 0x4348 JUMP JUMPDEST PUSH1 0x1 SWAP1 SUB DUP2 DUP2 SWAP1 PUSH0 MSTORE PUSH1 0x20 PUSH0 KECCAK256 ADD PUSH0 SWAP1 SSTORE SWAP1 SSTORE JUMPDEST PUSH1 0x1 ADD PUSH2 0x2C56 JUMP JUMPDEST POP POP POP JUMP JUMPDEST PUSH1 0x7 PUSH1 0x20 MSTORE DUP2 PUSH0 MSTORE PUSH1 0x40 PUSH0 KECCAK256 DUP2 DUP2 SLOAD DUP2 LT PUSH2 0x2CF1 JUMPI PUSH0 DUP1 REVERT JUMPDEST SWAP1 PUSH0 MSTORE PUSH1 0x20 PUSH0 KECCAK256 ADD PUSH0 SWAP2 POP SWAP2 POP POP SLOAD DUP2 JUMP JUMPDEST PUSH1 0x60 PUSH0 DUP1 JUMPDEST PUSH1 0x6 SLOAD DUP2 LT ISZERO PUSH2 0x2D66 JUMPI PUSH0 PUSH1 0x6 DUP3 DUP2 SLOAD DUP2 LT PUSH2 0x2D26 JUMPI PUSH2 0x2D26 PUSH2 0x4120 JUMP JUMPDEST PUSH0 SWAP2 DUP3 MSTORE PUSH1 0x20 DUP1 DUP4 KECCAK256 SWAP1 SWAP2 ADD SLOAD DUP1 DUP4 MSTORE PUSH1 0x4 SWAP1 SWAP2 MSTORE PUSH1 0x40 SWAP1 SWAP2 KECCAK256 PUSH1 0x9 ADD SLOAD SWAP1 SWAP2 POP PUSH1 0xFF AND ISZERO PUSH2 0x2D5D JUMPI DUP3 PUSH2 0x2D59 DUP2 PUSH2 0x4393 JUMP JUMPDEST SWAP4 POP POP JUMPDEST POP PUSH1 0x1 ADD PUSH2 0x2D08 JUMP JUMPDEST POP PUSH0 DUP2 PUSH1 0x1 PUSH1 0x1 PUSH1 0x40 SHL SUB DUP2 GT ISZERO PUSH2 0x2D80 JUMPI PUSH2 0x2D80 PUSH2 0x3B6A JUMP JUMPDEST PUSH1 0x40 MLOAD SWAP1 DUP1 DUP3 MSTORE DUP1 PUSH1 0x20 MUL PUSH1 0x20 ADD DUP3 ADD PUSH1 0x40 MSTORE DUP1 ISZERO PUSH2 0x2DB9 JUMPI DUP2 PUSH1 0x20 ADD JUMPDEST PUSH2 0x2DA6 PUSH2 0x3820 JUMP JUMPDEST DUP2 MSTORE PUSH1 0x20 ADD SWAP1 PUSH1 0x1 SWAP1 SUB SWAP1 DUP2 PUSH2 0x2D9E JUMPI SWAP1 POP JUMPDEST POP SWAP1 POP PUSH0 DUP1 JUMPDEST PUSH1 0x6 SLOAD DUP2 LT ISZERO PUSH2 0x2A54 JUMPI PUSH0 PUSH1 0x6 DUP3 DUP2 SLOAD DUP2 LT PUSH2 0x2DDD JUMPI PUSH2 0x2DDD PUSH2 0x4120 JUMP JUMPDEST PUSH0 SWAP2 DUP3 MSTORE PUSH1 0x20 DUP1 DUP4 KECCAK256 SWAP1 SWAP2 ADD SLOAD DUP1 DUP4 MSTORE PUSH1 0x4 SWAP1 SWAP2 MSTORE PUSH1 0x40 SWAP1 SWAP2 KECCAK256 PUSH1 0x9 ADD SLOAD SWAP1 SWAP2 POP PUSH1 0xFF AND ISZERO PUSH2 0x31D4 JUMPI PUSH1 0x40 DUP1 MLOAD PUSH0 DUP4 DUP2 MSTORE PUSH1 0x4 PUSH1 0x20 MSTORE DUP3 SWAP1 KECCAK256 PUSH2 0x180 DUP3 ADD DUP4 MSTORE DUP1 SLOAD SWAP3 DUP3 ADD SWAP3 DUP4 MSTORE PUSH1 0x1 DUP2 ADD DUP1 SLOAD SWAP3 SWAP4 DUP5 SWAP4 SWAP1 SWAP3 SWAP2 PUSH1 0x60 DUP6 ADD SWAP2 PUSH2 0x2E40 SWAP1 PUSH2 0x41FF JUMP JUMPDEST DUP1 PUSH1 0x1F ADD PUSH1 0x20 DUP1 SWAP2 DIV MUL PUSH1 0x20 ADD PUSH1 0x40 MLOAD SWAP1 DUP2 ADD PUSH1 0x40 MSTORE DUP1 SWAP3 SWAP2 SWAP1 DUP2 DUP2 MSTORE PUSH1 0x20 ADD DUP3 DUP1 SLOAD PUSH2 0x2E6C SWAP1 PUSH2 0x41FF JUMP JUMPDEST DUP1 ISZERO PUSH2 0x2EB7 JUMPI DUP1 PUSH1 0x1F LT PUSH2 0x2E8E JUMPI PUSH2 0x100 DUP1 DUP4 SLOAD DIV MUL DUP4 MSTORE SWAP2 PUSH1 0x20 ADD SWAP2 PUSH2 0x2EB7 JUMP JUMPDEST DUP3 ADD SWAP2 SWAP1 PUSH0 MSTORE PUSH1 0x20 PUSH0 KECCAK256 SWAP1 JUMPDEST DUP2 SLOAD DUP2 MSTORE SWAP1 PUSH1 0x1 ADD SWAP1 PUSH1 0x20 ADD DUP1 DUP4 GT PUSH2 0x2E9A JUMPI DUP3 SWAP1 SUB PUSH1 0x1F AND DUP3 ADD SWAP2 JUMPDEST POP POP POP POP POP DUP2 MSTORE PUSH1 0x20 ADD PUSH1 0x2 DUP3 ADD DUP1 SLOAD PUSH2 0x2ED0 SWAP1 PUSH2 0x41FF JUMP JUMPDEST DUP1 PUSH1 0x1F ADD PUSH1 0x20 DUP1 SWAP2 DIV MUL PUSH1 0x20 ADD PUSH1 0x40 MLOAD SWAP1 DUP2 ADD PUSH1 0x40 MSTORE DUP1 SWAP3 SWAP2 SWAP1 DUP2 DUP2 MSTORE PUSH1 0x20 ADD DUP3 DUP1 SLOAD PUSH2 0x2EFC SWAP1 PUSH2 0x41FF JUMP JUMPDEST DUP1 ISZERO PUSH2 0x2F47 JUMPI DUP1 PUSH1 0x1F LT PUSH2 0x2F1E JUMPI PUSH2 0x100 DUP1 DUP4 SLOAD DIV MUL DUP4 MSTORE SWAP2 PUSH1 0x20 ADD SWAP2 PUSH2 0x2F47 JUMP JUMPDEST DUP3 ADD SWAP2 SWAP1 PUSH0 MSTORE PUSH1 0x20 PUSH0 KECCAK256 SWAP1 JUMPDEST DUP2 SLOAD DUP2 MSTORE SWAP1 PUSH1 0x1 ADD SWAP1 PUSH1 0x20 ADD DUP1 DUP4 GT PUSH2 0x2F2A JUMPI DUP3 SWAP1 SUB PUSH1 0x1F AND DUP3 ADD SWAP2 JUMPDEST POP POP POP POP POP DUP2 MSTORE PUSH1 0x20 ADD PUSH1 0x3 DUP3 ADD SLOAD DUP2 MSTORE PUSH1 0x20 ADD PUSH1 0x4 DUP3 ADD DUP1 SLOAD DUP1 PUSH1 0x20 MUL PUSH1 0x20 ADD PUSH1 0x40 MLOAD SWAP1 DUP2 ADD PUSH1 0x40 MSTORE DUP1 SWAP3 SWAP2 SWAP1 DUP2 DUP2 MSTORE PUSH1 0x20 ADD PUSH0 SWAP1 JUMPDEST DUP3 DUP3 LT ISZERO PUSH2 0x3026 JUMPI DUP4 DUP3 SWAP1 PUSH0 MSTORE PUSH1 0x20 PUSH0 KECCAK256 ADD DUP1 SLOAD PUSH2 0x2F9B SWAP1 PUSH2 0x41FF JUMP JUMPDEST DUP1 PUSH1 0x1F ADD PUSH1 0x20 DUP1 SWAP2 DIV MUL PUSH1 0x20 ADD PUSH1 0x40 MLOAD SWAP1 DUP2 ADD PUSH1 0x40 MSTORE DUP1 SWAP3 SWAP2 SWAP1 DUP2 DUP2 MSTORE PUSH1 0x20 ADD DUP3 DUP1 SLOAD PUSH2 0x2FC7 SWAP1 PUSH2 0x41FF JUMP JUMPDEST DUP1 ISZERO PUSH2 0x3012 JUMPI DUP1 PUSH1 0x1F LT PUSH2 0x2FE9 JUMPI PUSH2 0x100 DUP1 DUP4 SLOAD DIV MUL DUP4 MSTORE SWAP2 PUSH1 0x20 ADD SWAP2 PUSH2 0x3012 JUMP JUMPDEST DUP3 ADD SWAP2 SWAP1 PUSH0 MSTORE PUSH1 0x20 PUSH0 KECCAK256 SWAP1 JUMPDEST DUP2 SLOAD DUP2 MSTORE SWAP1 PUSH1 0x1 ADD SWAP1 PUSH1 0x20 ADD DUP1 DUP4 GT PUSH2 0x2FF5 JUMPI DUP3 SWAP1 SUB PUSH1 0x1F AND DUP3 ADD SWAP2 JUMPDEST POP POP POP POP POP DUP2 MSTORE PUSH1 0x20 ADD SWAP1 PUSH1 0x1 ADD SWAP1 PUSH2 0x2F7E JUMP JUMPDEST POP POP POP POP DUP2 MSTORE PUSH1 0x20 ADD PUSH1 0x5 DUP3 ADD SLOAD DUP2 MSTORE PUSH1 0x20 ADD PUSH1 0x6 DUP3 ADD SLOAD DUP2 MSTORE PUSH1 0x20 ADD PUSH1 0x7 DUP3 ADD SLOAD DUP2 MSTORE PUSH1 0x20 ADD PUSH1 0x8 DUP3 ADD SLOAD DUP2 MSTORE PUSH1 0x20 ADD PUSH1 0x9 DUP3 ADD PUSH0 SWAP1 SLOAD SWAP1 PUSH2 0x100 EXP SWAP1 DIV PUSH1 0xFF AND ISZERO ISZERO ISZERO ISZERO DUP2 MSTORE POP POP DUP2 MSTORE PUSH1 0x20 ADD PUSH1 0x5 PUSH0 DUP5 DUP2 MSTORE PUSH1 0x20 ADD SWAP1 DUP2 MSTORE PUSH1 0x20 ADD PUSH0 KECCAK256 DUP1 SLOAD DUP1 PUSH1 0x20 MUL PUSH1 0x20 ADD PUSH1 0x40 MLOAD SWAP1 DUP2 ADD PUSH1 0x40 MSTORE DUP1 SWAP3 SWAP2 SWAP1 DUP2 DUP2 MSTORE PUSH1 0x20 ADD PUSH0 SWAP1 JUMPDEST DUP3 DUP3 LT ISZERO PUSH2 0x31A1 JUMPI DUP4 DUP3 SWAP1 PUSH0 MSTORE PUSH1 0x20 PUSH0 KECCAK256 SWAP1 PUSH1 0x6 MUL ADD PUSH1 0x40 MLOAD DUP1 PUSH1 0xC0 ADD PUSH1 0x40 MSTORE SWAP1 DUP2 PUSH0 DUP3 ADD SLOAD DUP2 MSTORE PUSH1 0x20 ADD PUSH1 0x1 DUP3 ADD DUP1 SLOAD PUSH2 0x30DF SWAP1 PUSH2 0x41FF JUMP JUMPDEST DUP1 PUSH1 0x1F ADD PUSH1 0x20 DUP1 SWAP2 DIV MUL PUSH1 0x20 ADD PUSH1 0x40 MLOAD SWAP1 DUP2 ADD PUSH1 0x40 MSTORE DUP1 SWAP3 SWAP2 SWAP1 DUP2 DUP2 MSTORE PUSH1 0x20 ADD DUP3 DUP1 SLOAD PUSH2 0x310B SWAP1 PUSH2 0x41FF JUMP JUMPDEST DUP1 ISZERO PUSH2 0x3156 JUMPI DUP1 PUSH1 0x1F LT PUSH2 0x312D JUMPI PUSH2 0x100 DUP1 DUP4 SLOAD DIV MUL DUP4 MSTORE SWAP2 PUSH1 0x20 ADD SWAP2 PUSH2 0x3156 JUMP JUMPDEST DUP3 ADD SWAP2 SWAP1 PUSH0 MSTORE PUSH1 0x20 PUSH0 KECCAK256 SWAP1 JUMPDEST DUP2 SLOAD DUP2 MSTORE SWAP1 PUSH1 0x1 ADD SWAP1 PUSH1 0x20 ADD DUP1 DUP4 GT PUSH2 0x3139 JUMPI DUP3 SWAP1 SUB PUSH1 0x1F AND DUP3 ADD SWAP2 JUMPDEST POP POP POP SWAP2 DUP4 MSTORE POP POP PUSH1 0x2 DUP3 ADD SLOAD PUSH1 0x20 DUP1 DUP4 ADD SWAP2 SWAP1 SWAP2 MSTORE PUSH1 0x3 DUP4 ADD SLOAD PUSH1 0x40 DUP4 ADD MSTORE PUSH1 0x4 DUP4 ADD SLOAD PUSH1 0x60 DUP4 ADD MSTORE PUSH1 0x5 SWAP1 SWAP3 ADD SLOAD PUSH1 0xFF AND ISZERO ISZERO PUSH1 0x80 SWAP1 SWAP2 ADD MSTORE SWAP1 DUP3 MSTORE PUSH1 0x1 SWAP3 SWAP1 SWAP3 ADD SWAP2 ADD PUSH2 0x30A5 JUMP JUMPDEST POP POP POP POP DUP2 MSTORE POP DUP5 DUP5 DUP2 MLOAD DUP2 LT PUSH2 0x31BA JUMPI PUSH2 0x31BA PUSH2 0x4120 JUMP JUMPDEST PUSH1 0x20 MUL PUSH1 0x20 ADD ADD DUP2 SWAP1 MSTORE POP DUP3 DUP1 PUSH2 0x31D0 SWAP1 PUSH2 0x4393 JUMP JUMPDEST SWAP4 POP POP JUMPDEST POP PUSH1 0x1 ADD PUSH2 0x2DBF JUMP JUMPDEST PUSH1 0x1 SLOAD PUSH1 0x40 MLOAD PUSH4 0x95A8C58D PUSH1 0xE0 SHL DUP2 MSTORE PUSH1 0x1 PUSH1 0x1 PUSH1 0xA0 SHL SUB SWAP1 SWAP2 AND SWAP1 PUSH4 0x95A8C58D SWAP1 PUSH2 0x320F SWAP1 ORIGIN SWAP1 PUSH0 SWAP1 PUSH1 0x4 ADD PUSH2 0x415B JUMP JUMPDEST PUSH1 0x20 PUSH1 0x40 MLOAD DUP1 DUP4 SUB DUP2 DUP7 GAS STATICCALL ISZERO DUP1 ISZERO PUSH2 0x322A JUMPI RETURNDATASIZE PUSH0 PUSH0 RETURNDATACOPY RETURNDATASIZE PUSH0 REVERT JUMPDEST POP POP POP POP PUSH1 0x40 MLOAD RETURNDATASIZE PUSH1 0x1F NOT PUSH1 0x1F DUP3 ADD AND DUP3 ADD DUP1 PUSH1 0x40 MSTORE POP DUP2 ADD SWAP1 PUSH2 0x324E SWAP2 SWAP1 PUSH2 0x4194 JUMP JUMPDEST PUSH2 0x326A JUMPI PUSH1 0x40 MLOAD PUSH3 0x461BCD PUSH1 0xE5 SHL DUP2 MSTORE PUSH1 0x4 ADD PUSH2 0x566 SWAP1 PUSH2 0x41AF JUMP JUMPDEST PUSH0 DUP2 DUP2 MSTORE PUSH1 0x4 PUSH1 0x20 MSTORE PUSH1 0x40 DUP2 KECCAK256 SLOAD SWAP1 SUB PUSH2 0x3296 JUMPI PUSH1 0x40 MLOAD PUSH3 0x461BCD PUSH1 0xE5 SHL DUP2 MSTORE PUSH1 0x4 ADD PUSH2 0x566 SWAP1 PUSH2 0x41D2 JUMP JUMPDEST PUSH0 DUP2 DUP2 MSTORE PUSH1 0x4 PUSH1 0x20 MSTORE PUSH1 0x40 DUP2 KECCAK256 DUP2 DUP2 SSTORE SWAP1 PUSH2 0x32B4 PUSH1 0x1 DUP4 ADD DUP3 PUSH2 0x3795 JUMP JUMPDEST PUSH2 0x32C1 PUSH1 0x2 DUP4 ADD PUSH0 PUSH2 0x3795 JUMP JUMPDEST PUSH1 0x3 DUP3 ADD PUSH0 SWAP1 SSTORE PUSH1 0x4 DUP3 ADD PUSH0 PUSH2 0x32D7 SWAP2 SWAP1 PUSH2 0x3840 JUMP JUMPDEST POP PUSH0 PUSH1 0x5 DUP3 DUP2 ADD DUP3 SWAP1 SSTORE PUSH1 0x6 DUP4 ADD DUP3 SWAP1 SSTORE PUSH1 0x7 DUP4 ADD DUP3 SWAP1 SSTORE PUSH1 0x8 DUP4 ADD DUP3 SWAP1 SSTORE PUSH1 0x9 SWAP1 SWAP3 ADD DUP1 SLOAD PUSH1 0xFF NOT AND SWAP1 SSTORE DUP3 DUP2 MSTORE PUSH1 0x20 SWAP2 SWAP1 SWAP2 MSTORE PUSH1 0x40 DUP2 KECCAK256 PUSH2 0x3319 SWAP2 PUSH2 0x385B JUMP JUMPDEST PUSH0 JUMPDEST PUSH1 0x6 SLOAD DUP2 LT ISZERO PUSH2 0x33BF JUMPI DUP2 PUSH1 0x6 DUP3 DUP2 SLOAD DUP2 LT PUSH2 0x3339 JUMPI PUSH2 0x3339 PUSH2 0x4120 JUMP JUMPDEST SWAP1 PUSH0 MSTORE PUSH1 0x20 PUSH0 KECCAK256 ADD SLOAD SUB PUSH2 0x33B7 JUMPI PUSH1 0x6 DUP1 SLOAD PUSH2 0x3357 SWAP1 PUSH1 0x1 SWAP1 PUSH2 0x4237 JUMP JUMPDEST DUP2 SLOAD DUP2 LT PUSH2 0x3367 JUMPI PUSH2 0x3367 PUSH2 0x4120 JUMP JUMPDEST SWAP1 PUSH0 MSTORE PUSH1 0x20 PUSH0 KECCAK256 ADD SLOAD PUSH1 0x6 DUP3 DUP2 SLOAD DUP2 LT PUSH2 0x3383 JUMPI PUSH2 0x3383 PUSH2 0x4120 JUMP JUMPDEST PUSH0 SWAP2 DUP3 MSTORE PUSH1 0x20 SWAP1 SWAP2 KECCAK256 ADD SSTORE PUSH1 0x6 DUP1 SLOAD DUP1 PUSH2 0x339F JUMPI PUSH2 0x339F PUSH2 0x4348 JUMP JUMPDEST PUSH1 0x1 SWAP1 SUB DUP2 DUP2 SWAP1 PUSH0 MSTORE PUSH1 0x20 PUSH0 KECCAK256 ADD PUSH0 SWAP1 SSTORE SWAP1 SSTORE PUSH2 0x33BF JUMP JUMPDEST PUSH1 0x1 ADD PUSH2 0x331B JUMP JUMPDEST POP PUSH1 0x40 MLOAD DUP2 DUP2 MSTORE PUSH32 0x4D4E7C43D5805933523B1317FDD5ACB7517962D3E9F52834633B9F0149477295 SWAP1 PUSH1 0x20 ADD PUSH1 0x40 MLOAD DUP1 SWAP2 SUB SWAP1 LOG1 POP JUMP JUMPDEST PUSH1 0x60 PUSH0 DUP1 JUMPDEST PUSH1 0x6 SLOAD DUP2 LT ISZERO PUSH2 0x3495 JUMPI PUSH0 PUSH1 0x6 DUP3 DUP2 SLOAD DUP2 LT PUSH2 0x3419 JUMPI PUSH2 0x3419 PUSH2 0x4120 JUMP JUMPDEST PUSH0 SWAP2 DUP3 MSTORE PUSH1 0x20 DUP3 KECCAK256 ADD SLOAD SWAP2 POP JUMPDEST PUSH0 DUP3 DUP2 MSTORE PUSH1 0x5 PUSH1 0x20 MSTORE PUSH1 0x40 SWAP1 KECCAK256 SLOAD DUP2 LT ISZERO PUSH2 0x348B JUMPI PUSH0 DUP3 DUP2 MSTORE PUSH1 0x5 PUSH1 0x20 MSTORE PUSH1 0x40 SWAP1 KECCAK256 DUP1 SLOAD DUP3 SWAP1 DUP2 LT PUSH2 0x345A JUMPI PUSH2 0x345A PUSH2 0x4120 JUMP JUMPDEST PUSH0 SWAP2 DUP3 MSTORE PUSH1 0x20 SWAP1 SWAP2 KECCAK256 PUSH1 0x5 PUSH1 0x6 SWAP1 SWAP3 MUL ADD ADD SLOAD PUSH1 0xFF AND ISZERO PUSH2 0x3483 JUMPI DUP4 PUSH2 0x347F DUP2 PUSH2 0x4393 JUMP JUMPDEST SWAP5 POP POP JUMPDEST PUSH1 0x1 ADD PUSH2 0x3426 JUMP JUMPDEST POP POP PUSH1 0x1 ADD PUSH2 0x33FB JUMP JUMPDEST POP PUSH0 DUP2 PUSH1 0x1 PUSH1 0x1 PUSH1 0x40 SHL SUB DUP2 GT ISZERO PUSH2 0x34AF JUMPI PUSH2 0x34AF PUSH2 0x3B6A JUMP JUMPDEST PUSH1 0x40 MLOAD SWAP1 DUP1 DUP3 MSTORE DUP1 PUSH1 0x20 MUL PUSH1 0x20 ADD DUP3 ADD PUSH1 0x40 MSTORE DUP1 ISZERO PUSH2 0x34E8 JUMPI DUP2 PUSH1 0x20 ADD JUMPDEST PUSH2 0x34D5 PUSH2 0x3762 JUMP JUMPDEST DUP2 MSTORE PUSH1 0x20 ADD SWAP1 PUSH1 0x1 SWAP1 SUB SWAP1 DUP2 PUSH2 0x34CD JUMPI SWAP1 POP JUMPDEST POP SWAP1 POP PUSH0 DUP1 JUMPDEST PUSH1 0x6 SLOAD DUP2 LT ISZERO PUSH2 0x2A54 JUMPI PUSH0 PUSH1 0x6 DUP3 DUP2 SLOAD DUP2 LT PUSH2 0x350C JUMPI PUSH2 0x350C PUSH2 0x4120 JUMP JUMPDEST PUSH0 SWAP2 DUP3 MSTORE PUSH1 0x20 DUP3 KECCAK256 ADD SLOAD SWAP2 POP JUMPDEST PUSH0 DUP3 DUP2 MSTORE PUSH1 0x5 PUSH1 0x20 MSTORE PUSH1 0x40 SWAP1 KECCAK256 SLOAD DUP2 LT ISZERO PUSH2 0x369B JUMPI PUSH0 DUP3 DUP2 MSTORE PUSH1 0x5 PUSH1 0x20 MSTORE PUSH1 0x40 SWAP1 KECCAK256 DUP1 SLOAD DUP3 SWAP1 DUP2 LT PUSH2 0x354D JUMPI PUSH2 0x354D PUSH2 0x4120 JUMP JUMPDEST PUSH0 SWAP2 DUP3 MSTORE PUSH1 0x20 SWAP1 SWAP2 KECCAK256 PUSH1 0x5 PUSH1 0x6 SWAP1 SWAP3 MUL ADD ADD SLOAD PUSH1 0xFF AND ISZERO PUSH2 0x3693 JUMPI PUSH0 DUP3 DUP2 MSTORE PUSH1 0x5 PUSH1 0x20 MSTORE PUSH1 0x40 SWAP1 KECCAK256 DUP1 SLOAD DUP3 SWAP1 DUP2 LT PUSH2 0x3587 JUMPI PUSH2 0x3587 PUSH2 0x4120 JUMP JUMPDEST SWAP1 PUSH0 MSTORE PUSH1 0x20 PUSH0 KECCAK256 SWAP1 PUSH1 0x6 MUL ADD PUSH1 0x40 MLOAD DUP1 PUSH1 0xC0 ADD PUSH1 0x40 MSTORE SWAP1 DUP2 PUSH0 DUP3 ADD SLOAD DUP2 MSTORE PUSH1 0x20 ADD PUSH1 0x1 DUP3 ADD DUP1 SLOAD PUSH2 0x35B7 SWAP1 PUSH2 0x41FF JUMP JUMPDEST DUP1 PUSH1 0x1F ADD PUSH1 0x20 DUP1 SWAP2 DIV MUL PUSH1 0x20 ADD PUSH1 0x40 MLOAD SWAP1 DUP2 ADD PUSH1 0x40 MSTORE DUP1 SWAP3 SWAP2 SWAP1 DUP2 DUP2 MSTORE PUSH1 0x20 ADD DUP3 DUP1 SLOAD PUSH2 0x35E3 SWAP1 PUSH2 0x41FF JUMP JUMPDEST DUP1 ISZERO PUSH2 0x362E JUMPI DUP1 PUSH1 0x1F LT PUSH2 0x3605 JUMPI PUSH2 0x100 DUP1 DUP4 SLOAD DIV MUL DUP4 MSTORE SWAP2 PUSH1 0x20 ADD SWAP2 PUSH2 0x362E JUMP JUMPDEST DUP3 ADD SWAP2 SWAP1 PUSH0 MSTORE PUSH1 0x20 PUSH0 KECCAK256 SWAP1 JUMPDEST DUP2 SLOAD DUP2 MSTORE SWAP1 PUSH1 0x1 ADD SWAP1 PUSH1 0x20 ADD DUP1 DUP4 GT PUSH2 0x3611 JUMPI DUP3 SWAP1 SUB PUSH1 0x1F AND DUP3 ADD SWAP2 JUMPDEST POP POP POP SWAP2 DUP4 MSTORE POP POP PUSH1 0x2 DUP3 ADD SLOAD PUSH1 0x20 DUP3 ADD MSTORE PUSH1 0x3 DUP3 ADD SLOAD PUSH1 0x40 DUP3 ADD MSTORE PUSH1 0x4 DUP3 ADD SLOAD PUSH1 0x60 DUP3 ADD MSTORE PUSH1 0x5 SWAP1 SWAP2 ADD SLOAD PUSH1 0xFF AND ISZERO ISZERO PUSH1 0x80 SWAP1 SWAP2 ADD MSTORE DUP6 MLOAD DUP7 SWAP1 DUP7 SWAP1 DUP2 LT PUSH2 0x3679 JUMPI PUSH2 0x3679 PUSH2 0x4120 JUMP JUMPDEST PUSH1 0x20 MUL PUSH1 0x20 ADD ADD DUP2 SWAP1 MSTORE POP DUP4 DUP1 PUSH2 0x368F SWAP1 PUSH2 0x4393 JUMP JUMPDEST SWAP5 POP POP JUMPDEST PUSH1 0x1 ADD PUSH2 0x3519 JUMP JUMPDEST POP POP PUSH1 0x1 ADD PUSH2 0x34EE JUMP JUMPDEST PUSH2 0xFF0 DUP5 DUP5 DUP5 DUP5 PUSH1 0x40 MLOAD PUSH1 0x24 ADD PUSH2 0x36BF SWAP5 SWAP4 SWAP3 SWAP2 SWAP1 PUSH2 0x44F2 JUMP JUMPDEST PUSH1 0x40 DUP1 MLOAD PUSH1 0x1F NOT DUP2 DUP5 SUB ADD DUP2 MSTORE SWAP2 SWAP1 MSTORE PUSH1 0x20 DUP2 ADD DUP1 MLOAD PUSH1 0x1 PUSH1 0x1 PUSH1 0xE0 SHL SUB AND PUSH4 0xC67EA9D1 PUSH1 0xE0 SHL OR SWAP1 MSTORE PUSH2 0x36F2 DUP2 PUSH2 0x36F5 JUMP JUMPDEST POP JUMP JUMPDEST PUSH0 PUSH11 0x636F6E736F6C652E6C6F67 SWAP1 POP PUSH0 PUSH0 DUP4 MLOAD PUSH1 0x20 DUP6 ADD DUP5 GAS STATICCALL POP POP POP JUMP JUMPDEST PUSH1 0x40 MLOAD DUP1 PUSH2 0x140 ADD PUSH1 0x40 MSTORE DUP1 PUSH0 DUP2 MSTORE PUSH1 0x20 ADD PUSH1 0x60 DUP2 MSTORE PUSH1 0x20 ADD PUSH1 0x60 DUP2 MSTORE PUSH1 0x20 ADD PUSH0 DUP2 MSTORE PUSH1 0x20 ADD PUSH1 0x60 DUP2 MSTORE PUSH1 0x20 ADD PUSH0 DUP2 MSTORE PUSH1 0x20 ADD PUSH0 DUP2 MSTORE PUSH1 0x20 ADD PUSH0 DUP2 MSTORE PUSH1 0x20 ADD PUSH0 DUP2 MSTORE PUSH1 0x20 ADD PUSH0 ISZERO ISZERO DUP2 MSTORE POP SWAP1 JUMP JUMPDEST PUSH1 0x40 MLOAD DUP1 PUSH1 0xC0 ADD PUSH1 0x40 MSTORE DUP1 PUSH0 DUP2 MSTORE PUSH1 0x20 ADD PUSH1 0x60 DUP2 MSTORE PUSH1 0x20 ADD PUSH0 DUP2 MSTORE PUSH1 0x20 ADD PUSH0 DUP2 MSTORE PUSH1 0x20 ADD PUSH0 DUP2 MSTORE PUSH1 0x20 ADD PUSH0 ISZERO ISZERO DUP2 MSTORE POP SWAP1 JUMP JUMPDEST POP DUP1 SLOAD PUSH2 0x37A1 SWAP1 PUSH2 0x41FF JUMP JUMPDEST PUSH0 DUP3 SSTORE DUP1 PUSH1 0x1F LT PUSH2 0x37B0 JUMPI POP POP JUMP JUMPDEST PUSH1 0x1F ADD PUSH1 0x20 SWAP1 DIV SWAP1 PUSH0 MSTORE PUSH1 0x20 PUSH0 KECCAK256 SWAP1 DUP2 ADD SWAP1 PUSH2 0x36F2 SWAP2 SWAP1 PUSH2 0x3879 JUMP JUMPDEST DUP3 DUP1 SLOAD DUP3 DUP3 SSTORE SWAP1 PUSH0 MSTORE PUSH1 0x20 PUSH0 KECCAK256 SWAP1 DUP2 ADD SWAP3 DUP3 ISZERO PUSH2 0x3810 JUMPI SWAP2 PUSH1 0x20 MUL DUP3 ADD JUMPDEST DUP3 DUP2 GT ISZERO PUSH2 0x3810 JUMPI DUP3 MLOAD DUP3 SWAP1 PUSH2 0x3800 SWAP1 DUP3 PUSH2 0x428E JUMP JUMPDEST POP SWAP2 PUSH1 0x20 ADD SWAP2 SWAP1 PUSH1 0x1 ADD SWAP1 PUSH2 0x37EA JUMP JUMPDEST POP PUSH2 0x381C SWAP3 SWAP2 POP PUSH2 0x388D JUMP JUMPDEST POP SWAP1 JUMP JUMPDEST PUSH1 0x40 MLOAD DUP1 PUSH1 0x40 ADD PUSH1 0x40 MSTORE DUP1 PUSH2 0x3833 PUSH2 0x3714 JUMP JUMPDEST DUP2 MSTORE PUSH1 0x20 ADD PUSH1 0x60 DUP2 MSTORE POP SWAP1 JUMP JUMPDEST POP DUP1 SLOAD PUSH0 DUP3 SSTORE SWAP1 PUSH0 MSTORE PUSH1 0x20 PUSH0 KECCAK256 SWAP1 DUP2 ADD SWAP1 PUSH2 0x36F2 SWAP2 SWAP1 PUSH2 0x388D JUMP JUMPDEST POP DUP1 SLOAD PUSH0 DUP3 SSTORE PUSH1 0x6 MUL SWAP1 PUSH0 MSTORE PUSH1 0x20 PUSH0 KECCAK256 SWAP1 DUP2 ADD SWAP1 PUSH2 0x36F2 SWAP2 SWAP1 PUSH2 0x38A9 JUMP JUMPDEST JUMPDEST DUP1 DUP3 GT ISZERO PUSH2 0x381C JUMPI PUSH0 DUP2 SSTORE PUSH1 0x1 ADD PUSH2 0x387A JUMP JUMPDEST DUP1 DUP3 GT ISZERO PUSH2 0x381C JUMPI PUSH0 PUSH2 0x38A0 DUP3 DUP3 PUSH2 0x3795 JUMP JUMPDEST POP PUSH1 0x1 ADD PUSH2 0x388D JUMP JUMPDEST DUP1 DUP3 GT ISZERO PUSH2 0x381C JUMPI PUSH0 DUP1 DUP3 SSTORE PUSH2 0x38C2 PUSH1 0x1 DUP4 ADD DUP3 PUSH2 0x3795 JUMP JUMPDEST POP PUSH0 PUSH1 0x2 DUP3 ADD DUP2 SWAP1 SSTORE PUSH1 0x3 DUP3 ADD DUP2 SWAP1 SSTORE PUSH1 0x4 DUP3 ADD SSTORE PUSH1 0x5 DUP2 ADD DUP1 SLOAD PUSH1 0xFF NOT AND SWAP1 SSTORE PUSH1 0x6 ADD PUSH2 0x38A9 JUMP JUMPDEST PUSH0 PUSH0 PUSH0 PUSH1 0x60 DUP5 DUP7 SUB SLT ISZERO PUSH2 0x38FD JUMPI PUSH0 PUSH0 REVERT JUMPDEST POP POP DUP2 CALLDATALOAD SWAP4 PUSH1 0x20 DUP4 ADD CALLDATALOAD SWAP4 POP PUSH1 0x40 SWAP1 SWAP3 ADD CALLDATALOAD SWAP2 SWAP1 POP JUMP JUMPDEST DUP1 ISZERO ISZERO DUP2 EQ PUSH2 0x36F2 JUMPI PUSH0 PUSH0 REVERT JUMPDEST PUSH0 PUSH0 PUSH1 0x40 DUP4 DUP6 SUB SLT ISZERO PUSH2 0x3932 JUMPI PUSH0 PUSH0 REVERT JUMPDEST DUP3 CALLDATALOAD SWAP2 POP PUSH1 0x20 DUP4 ADD CALLDATALOAD PUSH2 0x3944 DUP2 PUSH2 0x3914 JUMP JUMPDEST DUP1 SWAP2 POP POP SWAP3 POP SWAP3 SWAP1 POP JUMP JUMPDEST PUSH0 PUSH0 PUSH1 0x40 DUP4 DUP6 SUB SLT ISZERO PUSH2 0x3960 JUMPI PUSH0 PUSH0 REVERT JUMPDEST POP POP DUP1 CALLDATALOAD SWAP3 PUSH1 0x20 SWAP1 SWAP2 ADD CALLDATALOAD SWAP2 POP JUMP JUMPDEST PUSH0 PUSH1 0x20 DUP3 DUP5 SUB SLT ISZERO PUSH2 0x397F JUMPI PUSH0 PUSH0 REVERT JUMPDEST POP CALLDATALOAD SWAP2 SWAP1 POP JUMP JUMPDEST PUSH0 DUP2 MLOAD DUP1 DUP5 MSTORE DUP1 PUSH1 0x20 DUP5 ADD PUSH1 0x20 DUP7 ADD MCOPY PUSH0 PUSH1 0x20 DUP3 DUP7 ADD ADD MSTORE PUSH1 0x20 PUSH1 0x1F NOT PUSH1 0x1F DUP4 ADD AND DUP6 ADD ADD SWAP2 POP POP SWAP3 SWAP2 POP POP JUMP JUMPDEST PUSH0 DUP3 DUP3 MLOAD DUP1 DUP6 MSTORE PUSH1 0x20 DUP6 ADD SWAP5 POP PUSH1 0x20 DUP2 PUSH1 0x5 SHL DUP4 ADD ADD PUSH1 0x20 DUP6 ADD PUSH0 JUMPDEST DUP4 DUP2 LT ISZERO PUSH2 0x3A02 JUMPI PUSH1 0x1F NOT DUP6 DUP5 SUB ADD DUP9 MSTORE PUSH2 0x39EC DUP4 DUP4 MLOAD PUSH2 0x3986 JUMP JUMPDEST PUSH1 0x20 SWAP9 DUP10 ADD SWAP9 SWAP1 SWAP4 POP SWAP2 SWAP1 SWAP2 ADD SWAP1 PUSH1 0x1 ADD PUSH2 0x39D0 JUMP JUMPDEST POP SWAP1 SWAP7 SWAP6 POP POP POP POP POP POP JUMP JUMPDEST DUP1 MLOAD DUP3 MSTORE PUSH0 PUSH1 0x20 DUP3 ADD MLOAD PUSH2 0x140 PUSH1 0x20 DUP6 ADD MSTORE PUSH2 0x3A2E PUSH2 0x140 DUP6 ADD DUP3 PUSH2 0x3986 JUMP JUMPDEST SWAP1 POP PUSH1 0x40 DUP4 ADD MLOAD DUP5 DUP3 SUB PUSH1 0x40 DUP7 ADD MSTORE PUSH2 0x3A47 DUP3 DUP3 PUSH2 0x3986 JUMP JUMPDEST SWAP2 POP POP PUSH1 0x60 DUP4 ADD MLOAD PUSH1 0x60 DUP6 ADD MSTORE PUSH1 0x80 DUP4 ADD MLOAD DUP5 DUP3 SUB PUSH1 0x80 DUP7 ADD MSTORE PUSH2 0x3A6B DUP3 DUP3 PUSH2 0x39B4 JUMP JUMPDEST SWAP2 POP POP PUSH1 0xA0 DUP4 ADD MLOAD PUSH1 0xA0 DUP6 ADD MSTORE PUSH1 0xC0 DUP4 ADD MLOAD PUSH1 0xC0 DUP6 ADD MSTORE PUSH1 0xE0 DUP4 ADD MLOAD PUSH1 0xE0 DUP6 ADD MSTORE PUSH2 0x100 DUP4 ADD MLOAD PUSH2 0x100 DUP6 ADD MSTORE PUSH2 0x120 DUP4 ADD MLOAD PUSH2 0x3AAD PUSH2 0x120 DUP7 ADD DUP3 ISZERO ISZERO SWAP1 MSTORE JUMP JUMPDEST POP SWAP4 SWAP3 POP POP POP JUMP JUMPDEST PUSH1 0x20 DUP2 MSTORE PUSH0 PUSH2 0x3AC7 PUSH1 0x20 DUP4 ADD DUP5 PUSH2 0x3A0E JUMP JUMPDEST SWAP4 SWAP3 POP POP POP JUMP JUMPDEST DUP1 MLOAD DUP3 MSTORE PUSH0 PUSH1 0x20 DUP3 ADD MLOAD PUSH1 0xC0 PUSH1 0x20 DUP6 ADD MSTORE PUSH2 0x3AEC PUSH1 0xC0 DUP6 ADD DUP3 PUSH2 0x3986 JUMP JUMPDEST SWAP1 POP PUSH1 0x40 DUP4 ADD MLOAD PUSH1 0x40 DUP6 ADD MSTORE PUSH1 0x60 DUP4 ADD MLOAD PUSH1 0x60 DUP6 ADD MSTORE PUSH1 0x80 DUP4 ADD MLOAD PUSH1 0x80 DUP6 ADD MSTORE PUSH1 0xA0 DUP4 ADD MLOAD ISZERO ISZERO PUSH1 0xA0 DUP6 ADD MSTORE DUP1 SWAP2 POP POP SWAP3 SWAP2 POP POP JUMP JUMPDEST PUSH1 0x20 DUP2 MSTORE PUSH0 PUSH2 0x3AC7 PUSH1 0x20 DUP4 ADD DUP5 PUSH2 0x3ACE JUMP JUMPDEST PUSH0 PUSH0 PUSH0 PUSH1 0x60 DUP5 DUP7 SUB SLT ISZERO PUSH2 0x3B46 JUMPI PUSH0 PUSH0 REVERT JUMPDEST DUP4 CALLDATALOAD SWAP3 POP PUSH1 0x20 DUP5 ADD CALLDATALOAD SWAP2 POP PUSH1 0x40 DUP5 ADD CALLDATALOAD PUSH2 0x3B5F DUP2 PUSH2 0x3914 JUMP JUMPDEST DUP1 SWAP2 POP POP SWAP3 POP SWAP3 POP SWAP3 JUMP JUMPDEST PUSH4 0x4E487B71 PUSH1 0xE0 SHL PUSH0 MSTORE PUSH1 0x41 PUSH1 0x4 MSTORE PUSH1 0x24 PUSH0 REVERT JUMPDEST PUSH1 0x40 DUP1 MLOAD SWAP1 DUP2 ADD PUSH1 0x1 PUSH1 0x1 PUSH1 0x40 SHL SUB DUP2 GT DUP3 DUP3 LT OR ISZERO PUSH2 0x3BA0 JUMPI PUSH2 0x3BA0 PUSH2 0x3B6A JUMP JUMPDEST PUSH1 0x40 MSTORE SWAP1 JUMP JUMPDEST PUSH1 0x40 MLOAD PUSH1 0x1F DUP3 ADD PUSH1 0x1F NOT AND DUP2 ADD PUSH1 0x1 PUSH1 0x1 PUSH1 0x40 SHL SUB DUP2 GT DUP3 DUP3 LT OR ISZERO PUSH2 0x3BCE JUMPI PUSH2 0x3BCE PUSH2 0x3B6A JUMP JUMPDEST PUSH1 0x40 MSTORE SWAP2 SWAP1 POP JUMP JUMPDEST PUSH0 PUSH1 0x1 PUSH1 0x1 PUSH1 0x40 SHL SUB DUP3 GT ISZERO PUSH2 0x3BEE JUMPI PUSH2 0x3BEE PUSH2 0x3B6A JUMP JUMPDEST POP PUSH1 0x5 SHL PUSH1 0x20 ADD SWAP1 JUMP JUMPDEST PUSH0 PUSH1 0x1 PUSH1 0x1 PUSH1 0x40 SHL SUB DUP3 GT ISZERO PUSH2 0x3C10 JUMPI PUSH2 0x3C10 PUSH2 0x3B6A JUMP JUMPDEST POP PUSH1 0x1F ADD PUSH1 0x1F NOT AND PUSH1 0x20 ADD SWAP1 JUMP JUMPDEST PUSH0 DUP3 PUSH1 0x1F DUP4 ADD SLT PUSH2 0x3C2D JUMPI PUSH0 PUSH0 REVERT JUMPDEST DUP2 CALLDATALOAD PUSH2 0x3C40 PUSH2 0x3C3B DUP3 PUSH2 0x3BF8 JUMP JUMPDEST PUSH2 0x3BA6 JUMP JUMPDEST DUP2 DUP2 MSTORE DUP5 PUSH1 0x20 DUP4 DUP7 ADD ADD GT ISZERO PUSH2 0x3C54 JUMPI PUSH0 PUSH0 REVERT JUMPDEST DUP2 PUSH1 0x20 DUP6 ADD PUSH1 0x20 DUP4 ADD CALLDATACOPY PUSH0 SWAP2 DUP2 ADD PUSH1 0x20 ADD SWAP2 SWAP1 SWAP2 MSTORE SWAP4 SWAP3 POP POP POP JUMP JUMPDEST PUSH0 PUSH1 0x60 DUP3 DUP5 SUB SLT ISZERO PUSH2 0x3C80 JUMPI PUSH0 PUSH0 REVERT JUMPDEST PUSH1 0x40 MLOAD PUSH1 0x60 DUP2 ADD PUSH1 0x1 PUSH1 0x1 PUSH1 0x40 SHL SUB DUP2 GT DUP3 DUP3 LT OR ISZERO PUSH2 0x3CA2 JUMPI PUSH2 0x3CA2 PUSH2 0x3B6A JUMP JUMPDEST PUSH1 0x40 MSTORE SWAP1 POP DUP1 DUP3 CALLDATALOAD PUSH1 0x1 PUSH1 0x1 PUSH1 0x40 SHL SUB DUP2 GT ISZERO PUSH2 0x3CBD JUMPI PUSH0 PUSH0 REVERT JUMPDEST PUSH2 0x3CC9 DUP6 DUP3 DUP7 ADD PUSH2 0x3C1E JUMP JUMPDEST DUP3 MSTORE POP PUSH1 0x20 DUP4 DUP2 ADD CALLDATALOAD SWAP1 DUP3 ADD MSTORE PUSH1 0x40 SWAP3 DUP4 ADD CALLDATALOAD SWAP3 ADD SWAP2 SWAP1 SWAP2 MSTORE SWAP2 SWAP1 POP JUMP JUMPDEST PUSH0 DUP3 PUSH1 0x1F DUP4 ADD SLT PUSH2 0x3CF6 JUMPI PUSH0 PUSH0 REVERT JUMPDEST DUP2 CALLDATALOAD PUSH2 0x3D04 PUSH2 0x3C3B DUP3 PUSH2 0x3BD6 JUMP JUMPDEST DUP1 DUP3 DUP3 MSTORE PUSH1 0x20 DUP3 ADD SWAP2 POP PUSH1 0x20 DUP4 PUSH1 0x5 SHL DUP7 ADD ADD SWAP3 POP DUP6 DUP4 GT ISZERO PUSH2 0x3D25 JUMPI PUSH0 PUSH0 REVERT JUMPDEST PUSH1 0x20 DUP6 ADD JUMPDEST DUP4 DUP2 LT ISZERO PUSH2 0x3D65 JUMPI DUP1 CALLDATALOAD PUSH1 0x1 PUSH1 0x1 PUSH1 0x40 SHL SUB DUP2 GT ISZERO PUSH2 0x3D47 JUMPI PUSH0 PUSH0 REVERT JUMPDEST PUSH2 0x3D56 DUP9 PUSH1 0x20 DUP4 DUP11 ADD ADD PUSH2 0x3C70 JUMP JUMPDEST DUP5 MSTORE POP PUSH1 0x20 SWAP3 DUP4 ADD SWAP3 ADD PUSH2 0x3D2A JUMP JUMPDEST POP SWAP6 SWAP5 POP POP POP POP POP JUMP JUMPDEST PUSH0 PUSH0 PUSH1 0x40 DUP4 DUP6 SUB SLT ISZERO PUSH2 0x3D80 JUMPI PUSH0 PUSH0 REVERT JUMPDEST DUP3 CALLDATALOAD SWAP2 POP PUSH1 0x20 DUP4 ADD CALLDATALOAD PUSH1 0x1 PUSH1 0x1 PUSH1 0x40 SHL SUB DUP2 GT ISZERO PUSH2 0x3D9C JUMPI PUSH0 PUSH0 REVERT JUMPDEST PUSH2 0x3DA8 DUP6 DUP3 DUP7 ADD PUSH2 0x3CE7 JUMP JUMPDEST SWAP2 POP POP SWAP3 POP SWAP3 SWAP1 POP JUMP JUMPDEST PUSH0 DUP3 PUSH1 0x1F DUP4 ADD SLT PUSH2 0x3DC1 JUMPI PUSH0 PUSH0 REVERT JUMPDEST DUP2 CALLDATALOAD PUSH2 0x3DCF PUSH2 0x3C3B DUP3 PUSH2 0x3BD6 JUMP JUMPDEST DUP1 DUP3 DUP3 MSTORE PUSH1 0x20 DUP3 ADD SWAP2 POP PUSH1 0x20 DUP4 PUSH1 0x5 SHL DUP7 ADD ADD SWAP3 POP DUP6 DUP4 GT ISZERO PUSH2 0x3DF0 JUMPI PUSH0 PUSH0 REVERT JUMPDEST PUSH1 0x20 DUP6 ADD JUMPDEST DUP4 DUP2 LT ISZERO PUSH2 0x3D65 JUMPI DUP1 CALLDATALOAD PUSH1 0x1 PUSH1 0x1 PUSH1 0x40 SHL SUB DUP2 GT ISZERO PUSH2 0x3E12 JUMPI PUSH0 PUSH0 REVERT JUMPDEST PUSH2 0x3E21 DUP9 PUSH1 0x20 DUP4 DUP11 ADD ADD PUSH2 0x3C1E JUMP JUMPDEST DUP5 MSTORE POP PUSH1 0x20 SWAP3 DUP4 ADD SWAP3 ADD PUSH2 0x3DF5 JUMP JUMPDEST PUSH0 PUSH0 PUSH0 PUSH0 PUSH0 PUSH1 0xA0 DUP7 DUP9 SUB SLT ISZERO PUSH2 0x3E44 JUMPI PUSH0 PUSH0 REVERT JUMPDEST DUP6 CALLDATALOAD SWAP5 POP PUSH1 0x20 DUP7 ADD CALLDATALOAD PUSH1 0x1 PUSH1 0x1 PUSH1 0x40 SHL SUB DUP2 GT ISZERO PUSH2 0x3E60 JUMPI PUSH0 PUSH0 REVERT JUMPDEST PUSH2 0x3E6C DUP9 DUP3 DUP10 ADD PUSH2 0x3C1E JUMP JUMPDEST SWAP5 POP POP PUSH1 0x40 DUP7 ADD CALLDATALOAD PUSH1 0x1 PUSH1 0x1 PUSH1 0x40 SHL SUB DUP2 GT ISZERO PUSH2 0x3E87 JUMPI PUSH0 PUSH0 REVERT JUMPDEST PUSH2 0x3E93 DUP9 DUP3 DUP10 ADD PUSH2 0x3C1E JUMP JUMPDEST SWAP4 POP POP PUSH1 0x60 DUP7 ADD CALLDATALOAD SWAP2 POP PUSH1 0x80 DUP7 ADD CALLDATALOAD PUSH1 0x1 PUSH1 0x1 PUSH1 0x40 SHL SUB DUP2 GT ISZERO PUSH2 0x3EB5 JUMPI PUSH0 PUSH0 REVERT JUMPDEST PUSH2 0x3EC1 DUP9 DUP3 DUP10 ADD PUSH2 0x3DB2 JUMP JUMPDEST SWAP2 POP POP SWAP3 SWAP6 POP SWAP3 SWAP6 SWAP1 SWAP4 POP JUMP JUMPDEST PUSH0 PUSH1 0x20 DUP3 ADD PUSH1 0x20 DUP4 MSTORE DUP1 DUP5 MLOAD DUP1 DUP4 MSTORE PUSH1 0x40 DUP6 ADD SWAP2 POP PUSH1 0x40 DUP2 PUSH1 0x5 SHL DUP7 ADD ADD SWAP3 POP PUSH1 0x20 DUP7 ADD PUSH0 JUMPDEST DUP3 DUP2 LT ISZERO PUSH2 0x3F25 JUMPI PUSH1 0x3F NOT DUP8 DUP7 SUB ADD DUP5 MSTORE PUSH2 0x3F10 DUP6 DUP4 MLOAD PUSH2 0x3A0E JUMP JUMPDEST SWAP5 POP PUSH1 0x20 SWAP4 DUP5 ADD SWAP4 SWAP2 SWAP1 SWAP2 ADD SWAP1 PUSH1 0x1 ADD PUSH2 0x3EF4 JUMP JUMPDEST POP SWAP3 SWAP7 SWAP6 POP POP POP POP POP POP JUMP JUMPDEST PUSH0 DUP3 DUP3 MLOAD DUP1 DUP6 MSTORE PUSH1 0x20 DUP6 ADD SWAP5 POP PUSH1 0x20 DUP2 PUSH1 0x5 SHL DUP4 ADD ADD PUSH1 0x20 DUP6 ADD PUSH0 JUMPDEST DUP4 DUP2 LT ISZERO PUSH2 0x3A02 JUMPI PUSH1 0x1F NOT DUP6 DUP5 SUB ADD DUP9 MSTORE PUSH2 0x3F69 DUP4 DUP4 MLOAD PUSH2 0x3ACE JUMP JUMPDEST PUSH1 0x20 SWAP9 DUP10 ADD SWAP9 SWAP1 SWAP4 POP SWAP2 SWAP1 SWAP2 ADD SWAP1 PUSH1 0x1 ADD PUSH2 0x3F4D JUMP JUMPDEST PUSH1 0x20 DUP2 MSTORE PUSH0 PUSH2 0x3AC7 PUSH1 0x20 DUP4 ADD DUP5 PUSH2 0x3F31 JUMP JUMPDEST PUSH0 PUSH0 PUSH0 PUSH0 PUSH0 PUSH0 PUSH1 0xC0 DUP8 DUP10 SUB SLT ISZERO PUSH2 0x3FA6 JUMPI PUSH0 PUSH0 REVERT JUMPDEST DUP7 CALLDATALOAD SWAP6 POP PUSH1 0x20 DUP8 ADD CALLDATALOAD PUSH1 0x1 PUSH1 0x1 PUSH1 0x40 SHL SUB DUP2 GT ISZERO PUSH2 0x3FC2 JUMPI PUSH0 PUSH0 REVERT JUMPDEST PUSH2 0x3FCE DUP10 DUP3 DUP11 ADD PUSH2 0x3C1E JUMP JUMPDEST SWAP6 POP POP PUSH1 0x40 DUP8 ADD CALLDATALOAD PUSH1 0x1 PUSH1 0x1 PUSH1 0x40 SHL SUB DUP2 GT ISZERO PUSH2 0x3FE9 JUMPI PUSH0 PUSH0 REVERT JUMPDEST PUSH2 0x3FF5 DUP10 DUP3 DUP11 ADD PUSH2 0x3C1E JUMP JUMPDEST SWAP5 POP POP PUSH1 0x60 DUP8 ADD CALLDATALOAD SWAP3 POP PUSH1 0x80 DUP8 ADD CALLDATALOAD PUSH1 0x1 PUSH1 0x1 PUSH1 0x40 SHL SUB DUP2 GT ISZERO PUSH2 0x4017 JUMPI PUSH0 PUSH0 REVERT JUMPDEST PUSH2 0x4023 DUP10 DUP3 DUP11 ADD PUSH2 0x3DB2 JUMP JUMPDEST SWAP3 POP POP PUSH1 0xA0 DUP8 ADD CALLDATALOAD PUSH1 0x1 PUSH1 0x1 PUSH1 0x40 SHL SUB DUP2 GT ISZERO PUSH2 0x403E JUMPI PUSH0 PUSH0 REVERT JUMPDEST PUSH2 0x404A DUP10 DUP3 DUP11 ADD PUSH2 0x3CE7 JUMP JUMPDEST SWAP2 POP POP SWAP3 SWAP6 POP SWAP3 SWAP6 POP SWAP3 SWAP6 JUMP JUMPDEST PUSH0 PUSH1 0x20 DUP3 ADD PUSH1 0x20 DUP4 MSTORE DUP1 DUP5 MLOAD DUP1 DUP4 MSTORE PUSH1 0x40 DUP6 ADD SWAP2 POP PUSH1 0x40 DUP2 PUSH1 0x5 SHL DUP7 ADD ADD SWAP3 POP PUSH1 0x20 DUP7 ADD PUSH0 JUMPDEST DUP3 DUP2 LT ISZERO PUSH2 0x3F25 JUMPI PUSH1 0x3F NOT DUP8 DUP7 SUB ADD DUP5 MSTORE DUP2 MLOAD DUP1 MLOAD PUSH1 0x40 DUP8 MSTORE PUSH2 0x40A3 PUSH1 0x40 DUP9 ADD DUP3 PUSH2 0x3A0E JUMP JUMPDEST SWAP1 POP PUSH1 0x20 DUP3 ADD MLOAD SWAP2 POP DUP7 DUP2 SUB PUSH1 0x20 DUP9 ADD MSTORE PUSH2 0x40BE DUP2 DUP4 PUSH2 0x3F31 JUMP JUMPDEST SWAP7 POP POP POP PUSH1 0x20 SWAP4 DUP5 ADD SWAP4 SWAP2 SWAP1 SWAP2 ADD SWAP1 PUSH1 0x1 ADD PUSH2 0x407D JUMP JUMPDEST PUSH0 PUSH0 PUSH0 PUSH1 0x60 DUP5 DUP7 SUB SLT ISZERO PUSH2 0x40E7 JUMPI PUSH0 PUSH0 REVERT JUMPDEST DUP4 CALLDATALOAD SWAP3 POP PUSH1 0x20 DUP5 ADD CALLDATALOAD SWAP2 POP PUSH1 0x40 DUP5 ADD CALLDATALOAD PUSH1 0x1 PUSH1 0x1 PUSH1 0x40 SHL SUB DUP2 GT ISZERO PUSH2 0x410A JUMPI PUSH0 PUSH0 REVERT JUMPDEST PUSH2 0x4116 DUP7 DUP3 DUP8 ADD PUSH2 0x3C70 JUMP JUMPDEST SWAP2 POP POP SWAP3 POP SWAP3 POP SWAP3 JUMP JUMPDEST PUSH4 0x4E487B71 PUSH1 0xE0 SHL PUSH0 MSTORE PUSH1 0x32 PUSH1 0x4 MSTORE PUSH1 0x24 PUSH0 REVERT JUMPDEST PUSH4 0x4E487B71 PUSH1 0xE0 SHL PUSH0 MSTORE PUSH1 0x11 PUSH1 0x4 MSTORE PUSH1 0x24 PUSH0 REVERT JUMPDEST DUP1 DUP3 ADD DUP1 DUP3 GT ISZERO PUSH2 0x716 JUMPI PUSH2 0x716 PUSH2 0x4134 JUMP JUMPDEST PUSH1 0x1 PUSH1 0x1 PUSH1 0xA0 SHL SUB DUP4 AND DUP2 MSTORE PUSH1 0x40 DUP2 ADD PUSH1 0x2 DUP4 LT PUSH2 0x4187 JUMPI PUSH4 0x4E487B71 PUSH1 0xE0 SHL PUSH0 MSTORE PUSH1 0x21 PUSH1 0x4 MSTORE PUSH1 0x24 PUSH0 REVERT JUMPDEST DUP3 PUSH1 0x20 DUP4 ADD MSTORE SWAP4 SWAP3 POP POP POP JUMP JUMPDEST PUSH0 PUSH1 0x20 DUP3 DUP5 SUB SLT ISZERO PUSH2 0x41A4 JUMPI PUSH0 PUSH0 REVERT JUMPDEST DUP2 MLOAD PUSH2 0x3AC7 DUP2 PUSH2 0x3914 JUMP JUMPDEST PUSH1 0x20 DUP1 DUP3 MSTORE PUSH1 0x9 SWAP1 DUP3 ADD MSTORE PUSH9 0x2737BA1030B236B4B7 PUSH1 0xB9 SHL PUSH1 0x40 DUP3 ADD MSTORE PUSH1 0x60 ADD SWAP1 JUMP JUMPDEST PUSH1 0x20 DUP1 DUP3 MSTORE PUSH1 0x13 SWAP1 DUP3 ADD MSTORE PUSH19 0x119BDBD908191BD95CC81B9BDD08195E1A5CDD PUSH1 0x6A SHL PUSH1 0x40 DUP3 ADD MSTORE PUSH1 0x60 ADD SWAP1 JUMP JUMPDEST PUSH1 0x1 DUP2 DUP2 SHR SWAP1 DUP3 AND DUP1 PUSH2 0x4213 JUMPI PUSH1 0x7F DUP3 AND SWAP2 POP JUMPDEST PUSH1 0x20 DUP3 LT DUP2 SUB PUSH2 0x4231 JUMPI PUSH4 0x4E487B71 PUSH1 0xE0 SHL PUSH0 MSTORE PUSH1 0x22 PUSH1 0x4 MSTORE PUSH1 0x24 PUSH0 REVERT JUMPDEST POP SWAP2 SWAP1 POP JUMP JUMPDEST DUP2 DUP2 SUB DUP2 DUP2 GT ISZERO PUSH2 0x716 JUMPI PUSH2 0x716 PUSH2 0x4134 JUMP JUMPDEST PUSH1 0x1F DUP3 GT ISZERO PUSH2 0x2CD3 JUMPI DUP1 PUSH0 MSTORE PUSH1 0x20 PUSH0 KECCAK256 PUSH1 0x1F DUP5 ADD PUSH1 0x5 SHR DUP2 ADD PUSH1 0x20 DUP6 LT ISZERO PUSH2 0x426F JUMPI POP DUP1 JUMPDEST PUSH1 0x1F DUP5 ADD PUSH1 0x5 SHR DUP3 ADD SWAP2 POP JUMPDEST DUP2 DUP2 LT ISZERO PUSH2 0x2C4D JUMPI PUSH0 DUP2 SSTORE PUSH1 0x1 ADD PUSH2 0x427B JUMP JUMPDEST DUP2 MLOAD PUSH1 0x1 PUSH1 0x1 PUSH1 0x40 SHL SUB DUP2 GT ISZERO PUSH2 0x42A7 JUMPI PUSH2 0x42A7 PUSH2 0x3B6A JUMP JUMPDEST PUSH2 0x42BB DUP2 PUSH2 0x42B5 DUP5 SLOAD PUSH2 0x41FF JUMP JUMPDEST DUP5 PUSH2 0x424A JUMP JUMPDEST PUSH1 0x20 PUSH1 0x1F DUP3 GT PUSH1 0x1 DUP2 EQ PUSH2 0x42ED JUMPI PUSH0 DUP4 ISZERO PUSH2 0x42D6 JUMPI POP DUP5 DUP3 ADD MLOAD JUMPDEST PUSH0 NOT PUSH1 0x3 DUP6 SWAP1 SHL SHR NOT AND PUSH1 0x1 DUP5 SWAP1 SHL OR DUP5 SSTORE PUSH2 0x2C4D JUMP JUMPDEST PUSH0 DUP5 DUP2 MSTORE PUSH1 0x20 DUP2 KECCAK256 PUSH1 0x1F NOT DUP6 AND SWAP2 JUMPDEST DUP3 DUP2 LT ISZERO PUSH2 0x431C JUMPI DUP8 DUP6 ADD MLOAD DUP3 SSTORE PUSH1 0x20 SWAP5 DUP6 ADD SWAP5 PUSH1 0x1 SWAP1 SWAP3 ADD SWAP2 ADD PUSH2 0x42FC JUMP JUMPDEST POP DUP5 DUP3 LT ISZERO PUSH2 0x4339 JUMPI DUP7 DUP5 ADD MLOAD PUSH0 NOT PUSH1 0x3 DUP8 SWAP1 SHL PUSH1 0xF8 AND SHR NOT AND DUP2 SSTORE JUMPDEST POP POP POP POP PUSH1 0x1 SWAP1 DUP2 SHL ADD SWAP1 SSTORE POP JUMP JUMPDEST PUSH4 0x4E487B71 PUSH1 0xE0 SHL PUSH0 MSTORE PUSH1 0x31 PUSH1 0x4 MSTORE PUSH1 0x24 PUSH0 REVERT JUMPDEST PUSH1 0x20 DUP1 DUP3 MSTORE PUSH1 0x19 SWAP1 DUP3 ADD MSTORE PUSH32 0x466F6F6444657461696C20646F6573206E6F7420657869737400000000000000 PUSH1 0x40 DUP3 ADD MSTORE PUSH1 0x60 ADD SWAP1 JUMP JUMPDEST PUSH0 PUSH1 0x1 DUP3 ADD PUSH2 0x43A4 JUMPI PUSH2 0x43A4 PUSH2 0x4134 JUMP JUMPDEST POP PUSH1 0x1 ADD SWAP1 JUMP JUMPDEST PUSH0 PUSH1 0x20 DUP3 DUP5 SUB SLT ISZERO PUSH2 0x43BB JUMPI PUSH0 PUSH0 REVERT JUMPDEST DUP2 MLOAD PUSH1 0x1 PUSH1 0x1 PUSH1 0x40 SHL SUB DUP2 GT ISZERO PUSH2 0x43D0 JUMPI PUSH0 PUSH0 REVERT JUMPDEST DUP3 ADD PUSH1 0x40 DUP2 DUP6 SUB SLT ISZERO PUSH2 0x43E1 JUMPI PUSH0 PUSH0 REVERT JUMPDEST PUSH2 0x43E9 PUSH2 0x3B7E JUMP JUMPDEST DUP2 MLOAD DUP2 MSTORE PUSH1 0x20 DUP3 ADD MLOAD PUSH1 0x1 PUSH1 0x1 PUSH1 0x40 SHL SUB DUP2 GT ISZERO PUSH2 0x4405 JUMPI PUSH0 PUSH0 REVERT JUMPDEST DUP1 DUP4 ADD SWAP3 POP POP DUP5 PUSH1 0x1F DUP4 ADD SLT PUSH2 0x4419 JUMPI PUSH0 PUSH0 REVERT JUMPDEST DUP2 MLOAD PUSH2 0x4427 PUSH2 0x3C3B DUP3 PUSH2 0x3BF8 JUMP JUMPDEST DUP2 DUP2 MSTORE DUP7 PUSH1 0x20 DUP4 DUP7 ADD ADD GT ISZERO PUSH2 0x443B JUMPI PUSH0 PUSH0 REVERT JUMPDEST DUP2 PUSH1 0x20 DUP6 ADD PUSH1 0x20 DUP4 ADD MCOPY PUSH0 PUSH1 0x20 SWAP3 DUP3 ADD DUP4 ADD MSTORE SWAP1 DUP3 ADD MSTORE SWAP5 SWAP4 POP POP POP POP JUMP JUMPDEST DUP6 DUP2 MSTORE PUSH1 0xA0 PUSH1 0x20 DUP3 ADD MSTORE PUSH0 PUSH2 0x4472 PUSH1 0xA0 DUP4 ADD DUP8 PUSH2 0x3986 JUMP JUMPDEST DUP3 DUP2 SUB PUSH1 0x40 DUP5 ADD MSTORE PUSH2 0x4484 DUP2 DUP8 PUSH2 0x3986 JUMP JUMPDEST SWAP1 POP DUP5 PUSH1 0x60 DUP5 ADD MSTORE DUP3 DUP2 SUB PUSH1 0x80 DUP5 ADD MSTORE DUP1 DUP5 MLOAD DUP1 DUP4 MSTORE PUSH1 0x20 DUP4 ADD SWAP2 POP PUSH1 0x20 DUP2 PUSH1 0x5 SHL DUP5 ADD ADD PUSH1 0x20 DUP8 ADD PUSH0 JUMPDEST DUP4 DUP2 LT ISZERO PUSH2 0x44E1 JUMPI PUSH1 0x1F NOT DUP7 DUP5 SUB ADD DUP6 MSTORE PUSH2 0x44CB DUP4 DUP4 MLOAD PUSH2 0x3986 JUMP JUMPDEST PUSH1 0x20 SWAP6 DUP7 ADD SWAP6 SWAP1 SWAP4 POP SWAP2 SWAP1 SWAP2 ADD SWAP1 PUSH1 0x1 ADD PUSH2 0x44AF JUMP JUMPDEST POP SWAP1 SWAP12 SWAP11 POP POP POP POP POP POP POP POP POP POP POP JUMP JUMPDEST PUSH1 0x80 DUP2 MSTORE PUSH0 PUSH2 0x4504 PUSH1 0x80 DUP4 ADD DUP8 PUSH2 0x3986 JUMP JUMPDEST DUP6 PUSH1 0x20 DUP5 ADD MSTORE DUP3 DUP2 SUB PUSH1 0x40 DUP5 ADD MSTORE PUSH2 0x451C DUP2 DUP7 PUSH2 0x3986 JUMP JUMPDEST SWAP2 POP POP DUP3 PUSH1 0x60 DUP4 ADD MSTORE SWAP6 SWAP5 POP POP POP POP POP JUMP INVALID LOG2 PUSH5 0x6970667358 0x22 SLT KECCAK256 SLT PC 0xD4 0x1E TIMESTAMP 0xD 0xEA DUP12 0x26 GT SWAP5 OR GT EXTSTATICCALL 0xB7 MSTORE DUP15 CALL PUSH18 0x7BA43921A11E3E5AE17F789A7564736F6C63 NUMBER STOP ADDMOD 0x1E STOP CALLER "
		},
		"gasEstimates": {
			"creation": {
				"codeDepositCost": "3552800",
				"executionCost": "infinite",
				"totalCost": "infinite"
			},
			"external": {
				"addFoodDetails(uint256,(string,uint256,uint256)[])": "infinite",
				"addRaingWhenOrderSuccess(uint256,uint256)": "48921",
				"categoryManager()": "2423",
				"createFood(uint256,string,string,uint256,string[],(string,uint256,uint256)[])": "infinite",
				"deleteFood(uint256)": "infinite",
				"deleteFoodDetail(uint256,uint256)": "infinite",
				"getAllFoods()": "infinite",
				"getAllFoodsSortedBySoldQuantity()": "infinite",
				"getFood(uint256)": "infinite",
				"getFoodDetailByFoodId_FoodDetailId(uint256,uint256)": "infinite",
				"getFoodDetails(uint256)": "infinite",
				"getFoodInOrder(uint256,uint256)": "infinite",
				"getHiddenFoodDetails()": "infinite",
				"getHiddenFoods()": "infinite",
				"increaseQuantiy(uint256,uint256,uint256)": "infinite",
				"increaseSoldQuantiy(uint256,uint256,uint256)": "infinite",
				"nextFoodDetailId()": "2384",
				"nextFoodId()": "2362",
				"orderFoodRatings(uint256,uint256)": "4746",
				"reduceQuantiy(uint256,uint256,uint256)": "infinite",
				"reduceSoldQuantiy(uint256,uint256,uint256)": "infinite",
				"removeFoodInOrder(uint256,uint256)": "infinite",
				"roleAccess()": "2381",
				"setFoodDetailHidden(uint256,uint256,bool)": "infinite",
				"setFoodVisibility(uint256,bool)": "infinite",
				"updateFood(uint256,string,string,uint256,string[])": "infinite",
				"updateFoodDetail(uint256,uint256,(string,uint256,uint256))": "infinite",
				"updateRatingFood(uint256,uint256,uint256)": "48157"
			}
		},
		"methodIdentifiers": {
			"addFoodDetails(uint256,(string,uint256,uint256)[])": "64f77471",
			"addRaingWhenOrderSuccess(uint256,uint256)": "28139b8d",
			"categoryManager()": "d86ec238",
			"createFood(uint256,string,string,uint256,string[],(string,uint256,uint256)[])": "b447aaae",
			"deleteFood(uint256)": "d198b650",
			"deleteFoodDetail(uint256,uint256)": "4d30a39b",
			"getAllFoods()": "b9b5aae6",
			"getAllFoodsSortedBySoldQuantity()": "a6bc8c6a",
			"getFood(uint256)": "1e4de872",
			"getFoodDetailByFoodId_FoodDetailId(uint256,uint256)": "35085515",
			"getFoodDetails(uint256)": "af5607f9",
			"getFoodInOrder(uint256,uint256)": "14531a67",
			"getHiddenFoodDetails()": "e21ba8c6",
			"getHiddenFoods()": "cb0769b0",
			"increaseQuantiy(uint256,uint256,uint256)": "094b9a53",
			"increaseSoldQuantiy(uint256,uint256,uint256)": "00e081dd",
			"nextFoodDetailId()": "1b0d77cc",
			"nextFoodId()": "1945ef58",
			"orderFoodRatings(uint256,uint256)": "cae79225",
			"reduceQuantiy(uint256,uint256,uint256)": "9a69bfa6",
			"reduceSoldQuantiy(uint256,uint256,uint256)": "6c6b5baf",
			"removeFoodInOrder(uint256,uint256)": "c1d9726f",
			"roleAccess()": "42f54b89",
			"setFoodDetailHidden(uint256,uint256,bool)": "61ce7f78",
			"setFoodVisibility(uint256,bool)": "05207db2",
			"updateFood(uint256,string,string,uint256,string[])": "6dd2dd88",
			"updateFoodDetail(uint256,uint256,(string,uint256,uint256))": "baf85306",
			"updateRatingFood(uint256,uint256,uint256)": "3143e00f"
		}
	},
	"abi": [
		{
			"inputs": [
				{
					"internalType": "address",
					"name": "_categoryManagerAddress",
					"type": "address"
				},
				{
					"internalType": "address",
					"name": "_roleAcces",
					"type": "address"
				}
			],
			"stateMutability": "nonpayable",
			"type": "constructor"
		},
		{
			"anonymous": false,
			"inputs": [
				{
					"indexed": false,
					"internalType": "uint256",
					"name": "foodId",
					"type": "uint256"
				},
				{
					"indexed": false,
					"internalType": "string",
					"name": "name",
					"type": "string"
				},
				{
					"indexed": false,
					"internalType": "string",
					"name": "description",
					"type": "string"
				},
				{
					"indexed": false,
					"internalType": "uint256",
					"name": "categoryId",
					"type": "uint256"
				},
				{
					"indexed": false,
					"internalType": "string[]",
					"name": "imageUrl",
					"type": "string[]"
				}
			],
			"name": "FoodCreated",
			"type": "event"
		},
		{
			"anonymous": false,
			"inputs": [
				{
					"indexed": false,
					"internalType": "uint256",
					"name": "foodId",
					"type": "uint256"
				}
			],
			"name": "FoodDeleted",
			"type": "event"
		},
		{
			"anonymous": false,
			"inputs": [
				{
					"indexed": false,
					"internalType": "uint256",
					"name": "foodId",
					"type": "uint256"
				},
				{
					"indexed": false,
					"internalType": "uint256",
					"name": "foodDetailId",
					"type": "uint256"
				}
			],
			"name": "FoodDetailDeleted",
			"type": "event"
		},
		{
			"anonymous": false,
			"inputs": [
				{
					"indexed": false,
					"internalType": "uint256",
					"name": "foodId",
					"type": "uint256"
				},
				{
					"indexed": false,
					"internalType": "uint256",
					"name": "foodDetailId",
					"type": "uint256"
				}
			],
			"name": "FoodDetailUpdated",
			"type": "event"
		},
		{
			"anonymous": false,
			"inputs": [
				{
					"indexed": false,
					"internalType": "uint256",
					"name": "_foodId",
					"type": "uint256"
				},
				{
					"indexed": false,
					"internalType": "uint256",
					"name": "_foodDetailId",
					"type": "uint256"
				},
				{
					"indexed": false,
					"internalType": "bool",
					"name": "hidden",
					"type": "bool"
				}
			],
			"name": "FoodDetailVisibilityChanged",
			"type": "event"
		},
		{
			"anonymous": false,
			"inputs": [
				{
					"indexed": false,
					"internalType": "uint256",
					"name": "foodId",
					"type": "uint256"
				}
			],
			"name": "FoodDetailsAdded",
			"type": "event"
		},
		{
			"anonymous": false,
			"inputs": [
				{
					"indexed": false,
					"internalType": "uint256",
					"name": "_foodId",
					"type": "uint256"
				},
				{
					"indexed": false,
					"internalType": "uint256",
					"name": "_newTotalRatingSum",
					"type": "uint256"
				}
			],
			"name": "FoodRatingUpdate",
			"type": "event"
		},
		{
			"anonymous": false,
			"inputs": [
				{
					"indexed": false,
					"internalType": "uint256",
					"name": "foodId",
					"type": "uint256"
				},
				{
					"indexed": false,
					"internalType": "string",
					"name": "name",
					"type": "string"
				},
				{
					"indexed": false,
					"internalType": "string",
					"name": "description",
					"type": "string"
				},
				{
					"indexed": false,
					"internalType": "uint256",
					"name": "categoryId",
					"type": "uint256"
				},
				{
					"indexed": false,
					"internalType": "string[]",
					"name": "imageUrl",
					"type": "string[]"
				}
			],
			"name": "FoodUpdated",
			"type": "event"
		},
		{
			"anonymous": false,
			"inputs": [
				{
					"indexed": false,
					"internalType": "uint256",
					"name": "_foodId",
					"type": "uint256"
				},
				{
					"indexed": false,
					"internalType": "bool",
					"name": "hidden",
					"type": "bool"
				}
			],
			"name": "FoodVisibilityChanged",
			"type": "event"
		},
		{
			"inputs": [
				{
					"internalType": "uint256",
					"name": "foodId",
					"type": "uint256"
				},
				{
					"components": [
						{
							"internalType": "string",
							"name": "size",
							"type": "string"
						},
						{
							"internalType": "uint256",
							"name": "quantity",
							"type": "uint256"
						},
						{
							"internalType": "uint256",
							"name": "price",
							"type": "uint256"
						}
					],
					"internalType": "struct UpdateFoodDetail[]",
					"name": "details",
					"type": "tuple[]"
				}
			],
			"name": "addFoodDetails",
			"outputs": [],
			"stateMutability": "nonpayable",
			"type": "function"
		},
		{
			"inputs": [
				{
					"internalType": "uint256",
					"name": "_orderId",
					"type": "uint256"
				},
				{
					"internalType": "uint256",
					"name": "_foodId",
					"type": "uint256"
				}
			],
			"name": "addRaingWhenOrderSuccess",
			"outputs": [],
			"stateMutability": "nonpayable",
			"type": "function"
		},
		{
			"inputs": [],
			"name": "categoryManager",
			"outputs": [
				{
					"internalType": "contract ICategoryManager",
					"name": "",
					"type": "address"
				}
			],
			"stateMutability": "view",
			"type": "function"
		},
		{
			"inputs": [
				{
					"internalType": "uint256",
					"name": "_foodId",
					"type": "uint256"
				},
				{
					"internalType": "string",
					"name": "_name",
					"type": "string"
				},
				{
					"internalType": "string",
					"name": "_description",
					"type": "string"
				},
				{
					"internalType": "uint256",
					"name": "_categoryId",
					"type": "uint256"
				},
				{
					"internalType": "string[]",
					"name": "_imageUrl",
					"type": "string[]"
				},
				{
					"components": [
						{
							"internalType": "string",
							"name": "size",
							"type": "string"
						},
						{
							"internalType": "uint256",
							"name": "quantity",
							"type": "uint256"
						},
						{
							"internalType": "uint256",
							"name": "price",
							"type": "uint256"
						}
					],
					"internalType": "struct UpdateFoodDetail[]",
					"name": "_foodDetail",
					"type": "tuple[]"
				}
			],
			"name": "createFood",
			"outputs": [],
			"stateMutability": "nonpayable",
			"type": "function"
		},
		{
			"inputs": [
				{
					"internalType": "uint256",
					"name": "foodId",
					"type": "uint256"
				}
			],
			"name": "deleteFood",
			"outputs": [],
			"stateMutability": "nonpayable",
			"type": "function"
		},
		{
			"inputs": [
				{
					"internalType": "uint256",
					"name": "foodId",
					"type": "uint256"
				},
				{
					"internalType": "uint256",
					"name": "foodDetailId",
					"type": "uint256"
				}
			],
			"name": "deleteFoodDetail",
			"outputs": [],
			"stateMutability": "nonpayable",
			"type": "function"
		},
		{
			"inputs": [],
			"name": "getAllFoods",
			"outputs": [
				{
					"components": [
						{
							"components": [
								{
									"internalType": "uint256",
									"name": "foodId",
									"type": "uint256"
								},
								{
									"internalType": "string",
									"name": "name",
									"type": "string"
								},
								{
									"internalType": "string",
									"name": "description",
									"type": "string"
								},
								{
									"internalType": "uint256",
									"name": "categoryId",
									"type": "uint256"
								},
								{
									"internalType": "string[]",
									"name": "imageUrl",
									"type": "string[]"
								},
								{
									"internalType": "uint256",
									"name": "soldQuantity",
									"type": "uint256"
								},
								{
									"internalType": "uint256",
									"name": "quantity",
									"type": "uint256"
								},
								{
									"internalType": "uint256",
									"name": "sumRating",
									"type": "uint256"
								},
								{
									"internalType": "uint256",
									"name": "countRating",
									"type": "uint256"
								},
								{
									"internalType": "bool",
									"name": "isHidden",
									"type": "bool"
								}
							],
							"internalType": "struct Food",
							"name": "food",
							"type": "tuple"
						},
						{
							"components": [
								{
									"internalType": "uint256",
									"name": "foodDetailId",
									"type": "uint256"
								},
								{
									"internalType": "string",
									"name": "size",
									"type": "string"
								},
								{
									"internalType": "uint256",
									"name": "soldQuantity",
									"type": "uint256"
								},
								{
									"internalType": "uint256",
									"name": "quantity",
									"type": "uint256"
								},
								{
									"internalType": "uint256",
									"name": "price",
									"type": "uint256"
								},
								{
									"internalType": "bool",
									"name": "isHidden",
									"type": "bool"
								}
							],
							"internalType": "struct FoodDetail[]",
							"name": "foodDetails",
							"type": "tuple[]"
						}
					],
					"internalType": "struct FoodWithDetails[]",
					"name": "",
					"type": "tuple[]"
				}
			],
			"stateMutability": "view",
			"type": "function"
		},
		{
			"inputs": [],
			"name": "getAllFoodsSortedBySoldQuantity",
			"outputs": [
				{
					"components": [
						{
							"internalType": "uint256",
							"name": "foodId",
							"type": "uint256"
						},
						{
							"internalType": "string",
							"name": "name",
							"type": "string"
						},
						{
							"internalType": "string",
							"name": "description",
							"type": "string"
						},
						{
							"internalType": "uint256",
							"name": "categoryId",
							"type": "uint256"
						},
						{
							"internalType": "string[]",
							"name": "imageUrl",
							"type": "string[]"
						},
						{
							"internalType": "uint256",
							"name": "soldQuantity",
							"type": "uint256"
						},
						{
							"internalType": "uint256",
							"name": "quantity",
							"type": "uint256"
						},
						{
							"internalType": "uint256",
							"name": "sumRating",
							"type": "uint256"
						},
						{
							"internalType": "uint256",
							"name": "countRating",
							"type": "uint256"
						},
						{
							"internalType": "bool",
							"name": "isHidden",
							"type": "bool"
						}
					],
					"internalType": "struct Food[]",
					"name": "",
					"type": "tuple[]"
				}
			],
			"stateMutability": "view",
			"type": "function"
		},
		{
			"inputs": [
				{
					"internalType": "uint256",
					"name": "_foodId",
					"type": "uint256"
				}
			],
			"name": "getFood",
			"outputs": [
				{
					"components": [
						{
							"internalType": "uint256",
							"name": "foodId",
							"type": "uint256"
						},
						{
							"internalType": "string",
							"name": "name",
							"type": "string"
						},
						{
							"internalType": "string",
							"name": "description",
							"type": "string"
						},
						{
							"internalType": "uint256",
							"name": "categoryId",
							"type": "uint256"
						},
						{
							"internalType": "string[]",
							"name": "imageUrl",
							"type": "string[]"
						},
						{
							"internalType": "uint256",
							"name": "soldQuantity",
							"type": "uint256"
						},
						{
							"internalType": "uint256",
							"name": "quantity",
							"type": "uint256"
						},
						{
							"internalType": "uint256",
							"name": "sumRating",
							"type": "uint256"
						},
						{
							"internalType": "uint256",
							"name": "countRating",
							"type": "uint256"
						},
						{
							"internalType": "bool",
							"name": "isHidden",
							"type": "bool"
						}
					],
					"internalType": "struct Food",
					"name": "",
					"type": "tuple"
				}
			],
			"stateMutability": "view",
			"type": "function"
		},
		{
			"inputs": [
				{
					"internalType": "uint256",
					"name": "_foodId",
					"type": "uint256"
				},
				{
					"internalType": "uint256",
					"name": "_foodDetailId",
					"type": "uint256"
				}
			],
			"name": "getFoodDetailByFoodId_FoodDetailId",
			"outputs": [
				{
					"components": [
						{
							"internalType": "uint256",
							"name": "foodDetailId",
							"type": "uint256"
						},
						{
							"internalType": "string",
							"name": "size",
							"type": "string"
						},
						{
							"internalType": "uint256",
							"name": "soldQuantity",
							"type": "uint256"
						},
						{
							"internalType": "uint256",
							"name": "quantity",
							"type": "uint256"
						},
						{
							"internalType": "uint256",
							"name": "price",
							"type": "uint256"
						},
						{
							"internalType": "bool",
							"name": "isHidden",
							"type": "bool"
						}
					],
					"internalType": "struct FoodDetail",
					"name": "fd",
					"type": "tuple"
				}
			],
			"stateMutability": "view",
			"type": "function"
		},
		{
			"inputs": [
				{
					"internalType": "uint256",
					"name": "foodId",
					"type": "uint256"
				}
			],
			"name": "getFoodDetails",
			"outputs": [
				{
					"components": [
						{
							"internalType": "uint256",
							"name": "foodDetailId",
							"type": "uint256"
						},
						{
							"internalType": "string",
							"name": "size",
							"type": "string"
						},
						{
							"internalType": "uint256",
							"name": "soldQuantity",
							"type": "uint256"
						},
						{
							"internalType": "uint256",
							"name": "quantity",
							"type": "uint256"
						},
						{
							"internalType": "uint256",
							"name": "price",
							"type": "uint256"
						},
						{
							"internalType": "bool",
							"name": "isHidden",
							"type": "bool"
						}
					],
					"internalType": "struct FoodDetail[]",
					"name": "",
					"type": "tuple[]"
				}
			],
			"stateMutability": "view",
			"type": "function"
		},
		{
			"inputs": [
				{
					"internalType": "uint256",
					"name": "_foodId",
					"type": "uint256"
				},
				{
					"internalType": "uint256",
					"name": "_orderId",
					"type": "uint256"
				}
			],
			"name": "getFoodInOrder",
			"outputs": [
				{
					"internalType": "bool",
					"name": "",
					"type": "bool"
				}
			],
			"stateMutability": "view",
			"type": "function"
		},
		{
			"inputs": [],
			"name": "getHiddenFoodDetails",
			"outputs": [
				{
					"components": [
						{
							"internalType": "uint256",
							"name": "foodDetailId",
							"type": "uint256"
						},
						{
							"internalType": "string",
							"name": "size",
							"type": "string"
						},
						{
							"internalType": "uint256",
							"name": "soldQuantity",
							"type": "uint256"
						},
						{
							"internalType": "uint256",
							"name": "quantity",
							"type": "uint256"
						},
						{
							"internalType": "uint256",
							"name": "price",
							"type": "uint256"
						},
						{
							"internalType": "bool",
							"name": "isHidden",
							"type": "bool"
						}
					],
					"internalType": "struct FoodDetail[]",
					"name": "",
					"type": "tuple[]"
				}
			],
			"stateMutability": "view",
			"type": "function"
		},
		{
			"inputs": [],
			"name": "getHiddenFoods",
			"outputs": [
				{
					"components": [
						{
							"components": [
								{
									"internalType": "uint256",
									"name": "foodId",
									"type": "uint256"
								},
								{
									"internalType": "string",
									"name": "name",
									"type": "string"
								},
								{
									"internalType": "string",
									"name": "description",
									"type": "string"
								},
								{
									"internalType": "uint256",
									"name": "categoryId",
									"type": "uint256"
								},
								{
									"internalType": "string[]",
									"name": "imageUrl",
									"type": "string[]"
								},
								{
									"internalType": "uint256",
									"name": "soldQuantity",
									"type": "uint256"
								},
								{
									"internalType": "uint256",
									"name": "quantity",
									"type": "uint256"
								},
								{
									"internalType": "uint256",
									"name": "sumRating",
									"type": "uint256"
								},
								{
									"internalType": "uint256",
									"name": "countRating",
									"type": "uint256"
								},
								{
									"internalType": "bool",
									"name": "isHidden",
									"type": "bool"
								}
							],
							"internalType": "struct Food",
							"name": "food",
							"type": "tuple"
						},
						{
							"components": [
								{
									"internalType": "uint256",
									"name": "foodDetailId",
									"type": "uint256"
								},
								{
									"internalType": "string",
									"name": "size",
									"type": "string"
								},
								{
									"internalType": "uint256",
									"name": "soldQuantity",
									"type": "uint256"
								},
								{
									"internalType": "uint256",
									"name": "quantity",
									"type": "uint256"
								},
								{
									"internalType": "uint256",
									"name": "price",
									"type": "uint256"
								},
								{
									"internalType": "bool",
									"name": "isHidden",
									"type": "bool"
								}
							],
							"internalType": "struct FoodDetail[]",
							"name": "foodDetails",
							"type": "tuple[]"
						}
					],
					"internalType": "struct FoodWithDetails[]",
					"name": "",
					"type": "tuple[]"
				}
			],
			"stateMutability": "view",
			"type": "function"
		},
		{
			"inputs": [
				{
					"internalType": "uint256",
					"name": "_foodId",
					"type": "uint256"
				},
				{
					"internalType": "uint256",
					"name": "foodDetailId",
					"type": "uint256"
				},
				{
					"internalType": "uint256",
					"name": "_quantity",
					"type": "uint256"
				}
			],
			"name": "increaseQuantiy",
			"outputs": [],
			"stateMutability": "nonpayable",
			"type": "function"
		},
		{
			"inputs": [
				{
					"internalType": "uint256",
					"name": "_foodId",
					"type": "uint256"
				},
				{
					"internalType": "uint256",
					"name": "_foodDetailId",
					"type": "uint256"
				},
				{
					"internalType": "uint256",
					"name": "_quantity",
					"type": "uint256"
				}
			],
			"name": "increaseSoldQuantiy",
			"outputs": [],
			"stateMutability": "nonpayable",
			"type": "function"
		},
		{
			"inputs": [],
			"name": "nextFoodDetailId",
			"outputs": [
				{
					"internalType": "uint256",
					"name": "",
					"type": "uint256"
				}
			],
			"stateMutability": "view",
			"type": "function"
		},
		{
			"inputs": [],
			"name": "nextFoodId",
			"outputs": [
				{
					"internalType": "uint256",
					"name": "",
					"type": "uint256"
				}
			],
			"stateMutability": "view",
			"type": "function"
		},
		{
			"inputs": [
				{
					"internalType": "uint256",
					"name": "",
					"type": "uint256"
				},
				{
					"internalType": "uint256",
					"name": "",
					"type": "uint256"
				}
			],
			"name": "orderFoodRatings",
			"outputs": [
				{
					"internalType": "uint256",
					"name": "",
					"type": "uint256"
				}
			],
			"stateMutability": "view",
			"type": "function"
		},
		{
			"inputs": [
				{
					"internalType": "uint256",
					"name": "_foodId",
					"type": "uint256"
				},
				{
					"internalType": "uint256",
					"name": "foodDetailId",
					"type": "uint256"
				},
				{
					"internalType": "uint256",
					"name": "_quantity",
					"type": "uint256"
				}
			],
			"name": "reduceQuantiy",
			"outputs": [],
			"stateMutability": "nonpayable",
			"type": "function"
		},
		{
			"inputs": [
				{
					"internalType": "uint256",
					"name": "_foodId",
					"type": "uint256"
				},
				{
					"internalType": "uint256",
					"name": "foodDetailId",
					"type": "uint256"
				},
				{
					"internalType": "uint256",
					"name": "_quantity",
					"type": "uint256"
				}
			],
			"name": "reduceSoldQuantiy",
			"outputs": [],
			"stateMutability": "nonpayable",
			"type": "function"
		},
		{
			"inputs": [
				{
					"internalType": "uint256",
					"name": "_foodId",
					"type": "uint256"
				},
				{
					"internalType": "uint256",
					"name": "_orderId",
					"type": "uint256"
				}
			],
			"name": "removeFoodInOrder",
			"outputs": [],
			"stateMutability": "nonpayable",
			"type": "function"
		},
		{
			"inputs": [],
			"name": "roleAccess",
			"outputs": [
				{
					"internalType": "contract RoleAccess",
					"name": "",
					"type": "address"
				}
			],
			"stateMutability": "view",
			"type": "function"
		},
		{
			"inputs": [
				{
					"internalType": "uint256",
					"name": "_foodId",
					"type": "uint256"
				},
				{
					"internalType": "uint256",
					"name": "_foodDetailId",
					"type": "uint256"
				},
				{
					"internalType": "bool",
					"name": "hidden",
					"type": "bool"
				}
			],
			"name": "setFoodDetailHidden",
			"outputs": [],
			"stateMutability": "nonpayable",
			"type": "function"
		},
		{
			"inputs": [
				{
					"internalType": "uint256",
					"name": "_foodId",
					"type": "uint256"
				},
				{
					"internalType": "bool",
					"name": "hidden",
					"type": "bool"
				}
			],
			"name": "setFoodVisibility",
			"outputs": [],
			"stateMutability": "nonpayable",
			"type": "function"
		},
		{
			"inputs": [
				{
					"internalType": "uint256",
					"name": "_foodId",
					"type": "uint256"
				},
				{
					"internalType": "string",
					"name": "_name",
					"type": "string"
				},
				{
					"internalType": "string",
					"name": "_description",
					"type": "string"
				},
				{
					"internalType": "uint256",
					"name": "_categoryId",
					"type": "uint256"
				},
				{
					"internalType": "string[]",
					"name": "_imageUrl",
					"type": "string[]"
				}
			],
			"name": "updateFood",
			"outputs": [],
			"stateMutability": "nonpayable",
			"type": "function"
		},
		{
			"inputs": [
				{
					"internalType": "uint256",
					"name": "foodId",
					"type": "uint256"
				},
				{
					"internalType": "uint256",
					"name": "foodDetailId",
					"type": "uint256"
				},
				{
					"components": [
						{
							"internalType": "string",
							"name": "size",
							"type": "string"
						},
						{
							"internalType": "uint256",
							"name": "quantity",
							"type": "uint256"
						},
						{
							"internalType": "uint256",
							"name": "price",
							"type": "uint256"
						}
					],
					"internalType": "struct UpdateFoodDetail",
					"name": "newDetail",
					"type": "tuple"
				}
			],
			"name": "updateFoodDetail",
			"outputs": [],
			"stateMutability": "nonpayable",
			"type": "function"
		},
		{
			"inputs": [
				{
					"internalType": "uint256",
					"name": "_foodId",
					"type": "uint256"
				},
				{
					"internalType": "uint256",
					"name": "_sumRating",
					"type": "uint256"
				},
				{
					"internalType": "uint256",
					"name": "_countRating",
					"type": "uint256"
				}
			],
			"name": "updateRatingFood",
			"outputs": [],
			"stateMutability": "nonpayable",
			"type": "function"
		}
	]
}