{
	"data": {
		"bytecode": {
			"linkReferences": {},
			"object": "608060405260016003556001600455348015610019575f5ffd5b50604051613712380380613712833981810160405281019061003b919061011e565b335f5f6101000a81548173ffffffffffffffffffffffffffffffffffffffff021916908373ffffffffffffffffffffffffffffffffffffffff1602179055508060025f6101000a81548173ffffffffffffffffffffffffffffffffffffffff021916908373ffffffffffffffffffffffffffffffffffffffff16021790555050610149565b5f5ffd5b5f73ffffffffffffffffffffffffffffffffffffffff82169050919050565b5f6100ed826100c4565b9050919050565b6100fd816100e3565b8114610107575f5ffd5b50565b5f81519050610118816100f4565b92915050565b5f60208284031215610133576101326100c0565b5b5f6101408482850161010a565b91505092915050565b6135bc806101565f395ff3fe608060405234801561000f575f5ffd5b5060043610610114575f3560e01c806370480275116100a0578063b447aaae1161006f578063b447aaae146102c6578063b9b5aae6146102e2578063baf8530614610300578063d198b6501461031c578063d86ec2381461033857610114565b80637048027514610240578063893d20e81461025c5780639a69bfa61461027a578063af5607f91461029657610114565b80631e4de872116100e75780631e4de8721461018c57806324d7806c146101bc5780634d30a39b146101ec57806364f77471146102085780636dd2dd881461022457610114565b8063094b9a53146101185780631785f53c146101345780631945ef58146101505780631b0d77cc1461016e575b5f5ffd5b610132600480360381019061012d9190611ecc565b610356565b005b61014e60048036038101906101499190611f76565b61040f565b005b610158610476565b6040516101659190611fb0565b60405180910390f35b61017661047c565b6040516101839190611fb0565b60405180910390f35b6101a660048036038101906101a19190611fc9565b610482565b6040516101b391906121d5565b60405180910390f35b6101d660048036038101906101d19190611f76565b61071d565b6040516101e39190612268565b60405180910390f35b61020660048036038101906102019190612281565b61073a565b005b610222600480360381019061021d9190612552565b610a3d565b005b61023e6004803603810190610239919061268a565b610bec565b005b61025a60048036038101906102559190611f76565b610ded565b005b610264610e54565b6040516102719190612764565b60405180910390f35b610294600480360381019061028f9190611ecc565b610e7b565b005b6102b060048036038101906102ab9190611fc9565b610fa8565b6040516102bd9190612898565b60405180910390f35b6102e060048036038101906102db91906128b8565b611117565b005b6102ea611518565b6040516102f79190612bd7565b60405180910390f35b61031a60048036038101906103159190612bf7565b611937565b005b61033660048036038101906103319190611fc9565b611afd565b005b610340611cbf565b60405161034d9190612cbe565b60405180910390f35b5f5f90505b60065f8581526020019081526020015f2080549050811015610409578260065f8681526020019081526020015f20828154811061039b5761039a612cd7565b5b905f5260205f2090600402015f0154036103fc578160065f8681526020019081526020015f2082815481106103d3576103d2612cd7565b5b905f5260205f2090600402016002015f8282546103f09190612d31565b92505081905550610409565b808060010191505061035b565b50505050565b5f60015f8373ffffffffffffffffffffffffffffffffffffffff1673ffffffffffffffffffffffffffffffffffffffff1681526020019081526020015f205f6101000a81548160ff0219169083600281111561046e5761046d6121f5565b5b021790555050565b60035481565b60045481565b61048a611ce4565b5f60055f8481526020019081526020015f205f0154036104df576040517f08c379a00000000000000000000000000000000000000000000000000000000081526004016104d690612dbe565b60405180910390fd5b60055f8381526020019081526020015f206040518060e00160405290815f820154815260200160018201805461051490612e09565b80601f016020809104026020016040519081016040528092919081815260200182805461054090612e09565b801561058b5780601f106105625761010080835404028352916020019161058b565b820191905f5260205f20905b81548152906001019060200180831161056e57829003601f168201915b505050505081526020016002820180546105a490612e09565b80601f01602080910402602001604051908101604052809291908181526020018280546105d090612e09565b801561061b5780601f106105f25761010080835404028352916020019161061b565b820191905f5260205f20905b8154815290600101906020018083116105fe57829003601f168201915b505050505081526020016003820154815260200160048201805480602002602001604051908101604052809291908181526020015f905b828210156106fa578382905f5260205f2001805461066f90612e09565b80601f016020809104026020016040519081016040528092919081815260200182805461069b90612e09565b80156106e65780601f106106bd576101008083540402835291602001916106e6565b820191905f5260205f20905b8154815290600101906020018083116106c957829003601f168201915b505050505081526020019060010190610652565b505050508152602001600582015481526020016006820154815250509050919050565b6001602052805f5260405f205f915054906101000a900460ff1681565b5f60055f8481526020019081526020015f205f01540361078f576040517f08c379a000000000000000000000000000000000000000000000000000000000815260040161078690612dbe565b60405180910390fd5b5f60065f8481526020019081526020015f2090505f5f90505f5f90505b82805490508110156109f657838382815481106107cc576107cb612cd7565b5b905f5260205f2090600402015f0154036109e95760018380549050116108205760405180608001604052805f815260200160405180602001604052805f81525081526020015f81526020015f815250610908565b82600184805490506108329190612e39565b8154811061084357610842612cd7565b5b905f5260205f2090600402016040518060800160405290815f820154815260200160018201805461087390612e09565b80601f016020809104026020016040519081016040528092919081815260200182805461089f90612e09565b80156108ea5780601f106108c1576101008083540402835291602001916108ea565b820191905f5260205f20905b8154815290600101906020018083116108cd57829003601f168201915b50505050508152602001600282015481526020016003820154815250505b83828154811061091b5761091a612cd7565b5b905f5260205f2090600402015f820151815f015560208201518160010190816109449190613003565b5060408201518160020155606082015181600301559050508280548061096d5761096c6130d2565b5b600190038181905f5260205f2090600402015f5f82015f9055600182015f6109959190611d1d565b600282015f9055600382015f905550509055600191507f55caa6a55acb7e3464dc13c54d94739e0f01b9141276caebb64f3ef500cd890085856040516109dc9291906130ff565b60405180910390a16109f6565b80806001019150506107ac565b5080610a37576040517f08c379a0000000000000000000000000000000000000000000000000000000008152600401610a2e90613170565b60405180910390fd5b50505050565b5f60055f8481526020019081526020015f205f015403610a92576040517f08c379a0000000000000000000000000000000000000000000000000000000008152600401610a8990612dbe565b60405180910390fd5b5f5f90505b8151811015610bb05760045f815480929190610ab29061318e565b91905055505f60405180608001604052806004548152602001848481518110610ade57610add612cd7565b5b60200260200101515f01518152602001848481518110610b0157610b00612cd7565b5b6020026020010151602001518152602001848481518110610b2557610b24612cd7565b5b602002602001015160400151815250905060065f8581526020019081526020015f2081908060018154018082558091505060019003905f5260205f2090600402015f909190919091505f820151815f01556020820151816001019081610b8b9190613003565b5060408201518160020155606082015181600301555050508080600101915050610a97565b507f19a8e56286393226625dcdbc7cbb5a7611c71773d54c7e0680658cb9ceef6c2282604051610be09190611fb0565b60405180910390a15050565b5f60055f8781526020019081526020015f205f015403610c41576040517f08c379a0000000000000000000000000000000000000000000000000000000008152600401610c3890612dbe565b60405180910390fd5b5f60025f9054906101000a900473ffffffffffffffffffffffffffffffffffffffff1673ffffffffffffffffffffffffffffffffffffffff1663f3052d26846040518263ffffffff1660e01b8152600401610c9c9190611fb0565b5f60405180830381865afa158015610cb6573d5f5f3e3d5ffd5b505050506040513d5f823e3d601f19601f82011682018060405250810190610cde91906132c0565b5f015103610d21576040517f08c379a0000000000000000000000000000000000000000000000000000000008152600401610d1890613351565b60405180910390fd5b8360055f8781526020019081526020015f206001019081610d429190613003565b508260055f8781526020019081526020015f206002019081610d649190613003565b508160055f8781526020019081526020015f20600301819055508060055f8781526020019081526020015f206004019080519060200190610da6929190611d5a565b507f4f49710e0e59ea2e7096d7bad0267390d8bb5c007687f72b0de2db3afdadd5e58585858585604051610dde95949392919061342a565b60405180910390a15050505050565b6001805f8373ffffffffffffffffffffffffffffffffffffffff1673ffffffffffffffffffffffffffffffffffffffff1681526020019081526020015f205f6101000a81548160ff02191690836002811115610e4c57610e4b6121f5565b5b021790555050565b5f5f5f9054906101000a900473ffffffffffffffffffffffffffffffffffffffff16905090565b5f5f90505b60065f8581526020019081526020015f2080549050811015610fa2578260065f8681526020019081526020015f208281548110610ec057610ebf612cd7565b5b905f5260205f2090600402015f015403610f955760065f8581526020019081526020015f208181548110610ef757610ef6612cd7565b5b905f5260205f209060040201600201548210610f48576040517f08c379a0000000000000000000000000000000000000000000000000000000008152600401610f3f90613500565b60405180910390fd5b8160065f8681526020019081526020015f208281548110610f6c57610f6b612cd7565b5b905f5260205f2090600402016002015f828254610f899190612e39565b92505081905550610fa2565b8080600101915050610e80565b50505050565b60605f60055f8481526020019081526020015f205f015403610fff576040517f08c379a0000000000000000000000000000000000000000000000000000000008152600401610ff690612dbe565b60405180910390fd5b60065f8381526020019081526020015f20805480602002602001604051908101604052809291908181526020015f905b8282101561110c578382905f5260205f2090600402016040518060800160405290815f820154815260200160018201805461106990612e09565b80601f016020809104026020016040519081016040528092919081815260200182805461109590612e09565b80156110e05780601f106110b7576101008083540402835291602001916110e0565b820191905f5260205f20905b8154815290600101906020018083116110c357829003601f168201915b50505050508152602001600282015481526020016003820154815250508152602001906001019061102f565b505050509050919050565b5f60055f8881526020019081526020015f205f01541461116c576040517f08c379a000000000000000000000000000000000000000000000000000000000815260040161116390613568565b60405180910390fd5b5f60025f9054906101000a900473ffffffffffffffffffffffffffffffffffffffff1673ffffffffffffffffffffffffffffffffffffffff1663f3052d26856040518263ffffffff1660e01b81526004016111c79190611fb0565b5f60405180830381865afa1580156111e1573d5f5f3e3d5ffd5b505050506040513d5f823e3d601f19601f8201168201806040525081019061120991906132c0565b5f01510361124c576040517f08c379a000000000000000000000000000000000000000000000000000000000815260040161124390613351565b60405180910390fd5b5f6040518060e001604052808881526020018781526020018681526020018581526020018481526020015f81526020015f81525090508060055f8981526020019081526020015f205f820151815f015560208201518160010190816112b19190613003565b5060408201518160020190816112c79190613003565b506060820151816003015560808201518160040190805190602001906112ee929190611d5a565b5060a0820151816005015560c08201518160060155905050600787908060018154018082558091505060019003905f5260205f20015f909190919091505560025f9054906101000a900473ffffffffffffffffffffffffffffffffffffffff1673ffffffffffffffffffffffffffffffffffffffff16635f8069cc85896040518363ffffffff1660e01b81526004016113889291906130ff565b5f604051808303815f87803b15801561139f575f5ffd5b505af11580156113b1573d5f5f3e3d5ffd5b505050505f5f90505b82518110156114cf575f604051806080016040528060045f8154809291906113e19061318e565b9190505581526020018584815181106113fd576113fc612cd7565b5b60200260200101515f015181526020018584815181106114205761141f612cd7565b5b602002602001015160200151815260200185848151811061144457611443612cd7565b5b602002602001015160400151815250905060065f8a81526020019081526020015f2081908060018154018082558091505060019003905f5260205f2090600402015f909190919091505f820151815f015560208201518160010190816114aa9190613003565b50604082015181600201556060820151816003015550505080806001019150506113ba565b507fbdf2814016d06bf27f22aa349fade26a888a8f7eac3e0963916b1c64cc37a5ce878787878760405161150795949392919061342a565b60405180910390a150505050505050565b60605f60078054905067ffffffffffffffff81111561153a576115396122c3565b5b60405190808252806020026020018201604052801561157357816020015b611560611db1565b8152602001906001900390816115585790505b5090505f5f90505b60078054905081101561192f575f6007828154811061159d5761159c612cd7565b5b905f5260205f2001549050604051806040016040528060055f8481526020019081526020015f206040518060e00160405290815f82015481526020016001820180546115e890612e09565b80601f016020809104026020016040519081016040528092919081815260200182805461161490612e09565b801561165f5780601f106116365761010080835404028352916020019161165f565b820191905f5260205f20905b81548152906001019060200180831161164257829003601f168201915b5050505050815260200160028201805461167890612e09565b80601f01602080910402602001604051908101604052809291908181526020018280546116a490612e09565b80156116ef5780601f106116c6576101008083540402835291602001916116ef565b820191905f5260205f20905b8154815290600101906020018083116116d257829003601f168201915b505050505081526020016003820154815260200160048201805480602002602001604051908101604052809291908181526020015f905b828210156117ce578382905f5260205f2001805461174390612e09565b80601f016020809104026020016040519081016040528092919081815260200182805461176f90612e09565b80156117ba5780601f10611791576101008083540402835291602001916117ba565b820191905f5260205f20905b81548152906001019060200180831161179d57829003601f168201915b505050505081526020019060010190611726565b50505050815260200160058201548152602001600682015481525050815260200160065f8481526020019081526020015f20805480602002602001604051908101604052809291908181526020015f905b828210156118fc578382905f5260205f2090600402016040518060800160405290815f820154815260200160018201805461185990612e09565b80601f016020809104026020016040519081016040528092919081815260200182805461188590612e09565b80156118d05780601f106118a7576101008083540402835291602001916118d0565b820191905f5260205f20905b8154815290600101906020018083116118b357829003601f168201915b50505050508152602001600282015481526020016003820154815250508152602001906001019061181f565b5050505081525083838151811061191657611915612cd7565b5b602002602001018190525050808060010191505061157b565b508091505090565b5f60055f8581526020019081526020015f205f01540361198c576040517f08c379a000000000000000000000000000000000000000000000000000000000815260040161198390612dbe565b60405180910390fd5b5f60065f8581526020019081526020015f2090505f5f90505f5f90505b8280549050811015611ab557848382815481106119c9576119c8612cd7565b5b905f5260205f2090600402015f015403611aa857835f01518382815481106119f4576119f3612cd7565b5b905f5260205f2090600402016001019081611a0f9190613003565b508360200151838281548110611a2857611a27612cd7565b5b905f5260205f209060040201600201819055508360400151838281548110611a5357611a52612cd7565b5b905f5260205f20906004020160030181905550600191507fe29e1e70959f0c301943d01c4bd294592a2105bc81e9b2523c4b1d7f7d1f393f8686604051611a9b9291906130ff565b60405180910390a1611ab5565b80806001019150506119a9565b5080611af6576040517f08c379a0000000000000000000000000000000000000000000000000000000008152600401611aed90613170565b60405180910390fd5b5050505050565b5f60055f8381526020019081526020015f205f015403611b52576040517f08c379a0000000000000000000000000000000000000000000000000000000008152600401611b4990612dbe565b60405180910390fd5b60055f8281526020019081526020015f205f5f82015f9055600182015f611b799190611d1d565b600282015f611b889190611d1d565b600382015f9055600482015f611b9e9190611dd1565b600582015f9055600682015f9055505060065f8281526020019081526020015f205f611bca9190611def565b5f5f90505b600780549050811015611c84578160078281548110611bf157611bf0612cd7565b5b905f5260205f20015403611c775760076001600780549050611c139190612e39565b81548110611c2457611c23612cd7565b5b905f5260205f20015460078281548110611c4157611c40612cd7565b5b905f5260205f2001819055506007805480611c5f57611c5e6130d2565b5b600190038181905f5260205f20015f90559055611c84565b8080600101915050611bcf565b507f4d4e7c43d5805933523b1317fdd5acb7517962d3e9f52834633b9f014947729581604051611cb49190611fb0565b60405180910390a150565b60025f9054906101000a900473ffffffffffffffffffffffffffffffffffffffff1681565b6040518060e001604052805f815260200160608152602001606081526020015f8152602001606081526020015f81526020015f81525090565b508054611d2990612e09565b5f825580601f10611d3a5750611d57565b601f0160209004905f5260205f2090810190611d569190611e10565b5b50565b828054828255905f5260205f20908101928215611da0579160200282015b82811115611d9f578251829081611d8f9190613003565b5091602001919060010190611d78565b5b509050611dad9190611e2b565b5090565b6040518060400160405280611dc4611ce4565b8152602001606081525090565b5080545f8255905f5260205f2090810190611dec9190611e2b565b50565b5080545f8255600402905f5260205f2090810190611e0d9190611e4e565b50565b5b80821115611e27575f815f905550600101611e11565b5090565b5b80821115611e4a575f8181611e419190611d1d565b50600101611e2c565b5090565b5b80821115611e84575f5f82015f9055600182015f611e6d9190611d1d565b600282015f9055600382015f905550600401611e4f565b5090565b5f604051905090565b5f5ffd5b5f5ffd5b5f819050919050565b611eab81611e99565b8114611eb5575f5ffd5b50565b5f81359050611ec681611ea2565b92915050565b5f5f5f60608486031215611ee357611ee2611e91565b5b5f611ef086828701611eb8565b9350506020611f0186828701611eb8565b9250506040611f1286828701611eb8565b9150509250925092565b5f73ffffffffffffffffffffffffffffffffffffffff82169050919050565b5f611f4582611f1c565b9050919050565b611f5581611f3b565b8114611f5f575f5ffd5b50565b5f81359050611f7081611f4c565b92915050565b5f60208284031215611f8b57611f8a611e91565b5b5f611f9884828501611f62565b91505092915050565b611faa81611e99565b82525050565b5f602082019050611fc35f830184611fa1565b92915050565b5f60208284031215611fde57611fdd611e91565b5b5f611feb84828501611eb8565b91505092915050565b611ffd81611e99565b82525050565b5f81519050919050565b5f82825260208201905092915050565b8281835e5f83830152505050565b5f601f19601f8301169050919050565b5f61204582612003565b61204f818561200d565b935061205f81856020860161201d565b6120688161202b565b840191505092915050565b5f81519050919050565b5f82825260208201905092915050565b5f819050602082019050919050565b5f6120a7838361203b565b905092915050565b5f602082019050919050565b5f6120c582612073565b6120cf818561207d565b9350836020820285016120e18561208d565b805f5b8581101561211c57848403895281516120fd858261209c565b9450612108836120af565b925060208a019950506001810190506120e4565b50829750879550505050505092915050565b5f60e083015f8301516121435f860182611ff4565b506020830151848203602086015261215b828261203b565b91505060408301518482036040860152612175828261203b565b915050606083015161218a6060860182611ff4565b50608083015184820360808601526121a282826120bb565b91505060a08301516121b760a0860182611ff4565b5060c08301516121ca60c0860182611ff4565b508091505092915050565b5f6020820190508181035f8301526121ed818461212e565b905092915050565b7f4e487b71000000000000000000000000000000000000000000000000000000005f52602160045260245ffd5b60038110612233576122326121f5565b5b50565b5f81905061224382612222565b919050565b5f61225282612236565b9050919050565b61226281612248565b82525050565b5f60208201905061227b5f830184612259565b92915050565b5f5f6040838503121561229757612296611e91565b5b5f6122a485828601611eb8565b92505060206122b585828601611eb8565b9150509250929050565b5f5ffd5b7f4e487b71000000000000000000000000000000000000000000000000000000005f52604160045260245ffd5b6122f98261202b565b810181811067ffffffffffffffff82111715612318576123176122c3565b5b80604052505050565b5f61232a611e88565b905061233682826122f0565b919050565b5f67ffffffffffffffff821115612355576123546122c3565b5b602082029050602081019050919050565b5f5ffd5b5f5ffd5b5f5ffd5b5f5ffd5b5f67ffffffffffffffff8211156123905761238f6122c3565b5b6123998261202b565b9050602081019050919050565b828183375f83830152505050565b5f6123c66123c184612376565b612321565b9050828152602081018484840111156123e2576123e1612372565b5b6123ed8482856123a6565b509392505050565b5f82601f830112612409576124086122bf565b5b81356124198482602086016123b4565b91505092915050565b5f606082840312156124375761243661236a565b5b6124416060612321565b90505f82013567ffffffffffffffff8111156124605761245f61236e565b5b61246c848285016123f5565b5f83015250602061247f84828501611eb8565b602083015250604061249384828501611eb8565b60408301525092915050565b5f6124b16124ac8461233b565b612321565b905080838252602082019050602084028301858111156124d4576124d3612366565b5b835b8181101561251b57803567ffffffffffffffff8111156124f9576124f86122bf565b5b8086016125068982612422565b855260208501945050506020810190506124d6565b5050509392505050565b5f82601f830112612539576125386122bf565b5b813561254984826020860161249f565b91505092915050565b5f5f6040838503121561256857612567611e91565b5b5f61257585828601611eb8565b925050602083013567ffffffffffffffff81111561259657612595611e95565b5b6125a285828601612525565b9150509250929050565b5f67ffffffffffffffff8211156125c6576125c56122c3565b5b602082029050602081019050919050565b5f6125e96125e4846125ac565b612321565b9050808382526020820190506020840283018581111561260c5761260b612366565b5b835b8181101561265357803567ffffffffffffffff811115612631576126306122bf565b5b80860161263e89826123f5565b8552602085019450505060208101905061260e565b5050509392505050565b5f82601f830112612671576126706122bf565b5b81356126818482602086016125d7565b91505092915050565b5f5f5f5f5f60a086880312156126a3576126a2611e91565b5b5f6126b088828901611eb8565b955050602086013567ffffffffffffffff8111156126d1576126d0611e95565b5b6126dd888289016123f5565b945050604086013567ffffffffffffffff8111156126fe576126fd611e95565b5b61270a888289016123f5565b935050606061271b88828901611eb8565b925050608086013567ffffffffffffffff81111561273c5761273b611e95565b5b6127488882890161265d565b9150509295509295909350565b61275e81611f3b565b82525050565b5f6020820190506127775f830184612755565b92915050565b5f81519050919050565b5f82825260208201905092915050565b5f819050602082019050919050565b5f608083015f8301516127bb5f860182611ff4565b50602083015184820360208601526127d3828261203b565b91505060408301516127e86040860182611ff4565b5060608301516127fb6060860182611ff4565b508091505092915050565b5f61281183836127a6565b905092915050565b5f602082019050919050565b5f61282f8261277d565b6128398185612787565b93508360208202850161284b85612797565b805f5b8581101561288657848403895281516128678582612806565b945061287283612819565b925060208a0199505060018101905061284e565b50829750879550505050505092915050565b5f6020820190508181035f8301526128b08184612825565b905092915050565b5f5f5f5f5f5f60c087890312156128d2576128d1611e91565b5b5f6128df89828a01611eb8565b965050602087013567ffffffffffffffff811115612900576128ff611e95565b5b61290c89828a016123f5565b955050604087013567ffffffffffffffff81111561292d5761292c611e95565b5b61293989828a016123f5565b945050606061294a89828a01611eb8565b935050608087013567ffffffffffffffff81111561296b5761296a611e95565b5b61297789828a0161265d565b92505060a087013567ffffffffffffffff81111561299857612997611e95565b5b6129a489828a01612525565b9150509295509295509295565b5f81519050919050565b5f82825260208201905092915050565b5f819050602082019050919050565b5f60e083015f8301516129ef5f860182611ff4565b5060208301518482036020860152612a07828261203b565b91505060408301518482036040860152612a21828261203b565b9150506060830151612a366060860182611ff4565b5060808301518482036080860152612a4e82826120bb565b91505060a0830151612a6360a0860182611ff4565b5060c0830151612a7660c0860182611ff4565b508091505092915050565b5f82825260208201905092915050565b5f612a9b8261277d565b612aa58185612a81565b935083602082028501612ab785612797565b805f5b85811015612af25784840389528151612ad38582612806565b9450612ade83612819565b925060208a01995050600181019050612aba565b50829750879550505050505092915050565b5f604083015f8301518482035f860152612b1e82826129da565b91505060208301518482036020860152612b388282612a91565b9150508091505092915050565b5f612b508383612b04565b905092915050565b5f602082019050919050565b5f612b6e826129b1565b612b7881856129bb565b935083602082028501612b8a856129cb565b805f5b85811015612bc55784840389528151612ba68582612b45565b9450612bb183612b58565b925060208a01995050600181019050612b8d565b50829750879550505050505092915050565b5f6020820190508181035f830152612bef8184612b64565b905092915050565b5f5f5f60608486031215612c0e57612c0d611e91565b5b5f612c1b86828701611eb8565b9350506020612c2c86828701611eb8565b925050604084013567ffffffffffffffff811115612c4d57612c4c611e95565b5b612c5986828701612422565b9150509250925092565b5f819050919050565b5f612c86612c81612c7c84611f1c565b612c63565b611f1c565b9050919050565b5f612c9782612c6c565b9050919050565b5f612ca882612c8d565b9050919050565b612cb881612c9e565b82525050565b5f602082019050612cd15f830184612caf565b92915050565b7f4e487b71000000000000000000000000000000000000000000000000000000005f52603260045260245ffd5b7f4e487b71000000000000000000000000000000000000000000000000000000005f52601160045260245ffd5b5f612d3b82611e99565b9150612d4683611e99565b9250828201905080821115612d5e57612d5d612d04565b5b92915050565b5f82825260208201905092915050565b7f466f6f6420646f6573206e6f74206578697374000000000000000000000000005f82015250565b5f612da8601383612d64565b9150612db382612d74565b602082019050919050565b5f6020820190508181035f830152612dd581612d9c565b9050919050565b7f4e487b71000000000000000000000000000000000000000000000000000000005f52602260045260245ffd5b5f6002820490506001821680612e2057607f821691505b602082108103612e3357612e32612ddc565b5b50919050565b5f612e4382611e99565b9150612e4e83611e99565b9250828203905081811115612e6657612e65612d04565b5b92915050565b5f819050815f5260205f209050919050565b5f6020601f8301049050919050565b5f82821b905092915050565b5f60088302612ec87fffffffffffffffffffffffffffffffffffffffffffffffffffffffffffffffff82612e8d565b612ed28683612e8d565b95508019841693508086168417925050509392505050565b5f612f04612eff612efa84611e99565b612c63565b611e99565b9050919050565b5f819050919050565b612f1d83612eea565b612f31612f2982612f0b565b848454612e99565b825550505050565b5f5f905090565b612f48612f39565b612f53818484612f14565b505050565b5b81811015612f7657612f6b5f82612f40565b600181019050612f59565b5050565b601f821115612fbb57612f8c81612e6c565b612f9584612e7e565b81016020851015612fa4578190505b612fb8612fb085612e7e565b830182612f58565b50505b505050565b5f82821c905092915050565b5f612fdb5f1984600802612fc0565b1980831691505092915050565b5f612ff38383612fcc565b9150826002028217905092915050565b61300c82612003565b67ffffffffffffffff811115613025576130246122c3565b5b61302f8254612e09565b61303a828285612f7a565b5f60209050601f83116001811461306b575f8415613059578287015190505b6130638582612fe8565b8655506130ca565b601f19841661307986612e6c565b5f5b828110156130a05784890151825560018201915060208501945060208101905061307b565b868310156130bd57848901516130b9601f891682612fcc565b8355505b6001600288020188555050505b505050505050565b7f4e487b71000000000000000000000000000000000000000000000000000000005f52603160045260245ffd5b5f6040820190506131125f830185611fa1565b61311f6020830184611fa1565b9392505050565b7f466f6f6444657461696c20646f6573206e6f74206578697374000000000000005f82015250565b5f61315a601983612d64565b915061316582613126565b602082019050919050565b5f6020820190508181035f8301526131878161314e565b9050919050565b5f61319882611e99565b91507fffffffffffffffffffffffffffffffffffffffffffffffffffffffffffffffff82036131ca576131c9612d04565b5b600182019050919050565b5f815190506131e381611ea2565b92915050565b5f6131fb6131f684612376565b612321565b90508281526020810184848401111561321757613216612372565b5b61322284828561201d565b509392505050565b5f82601f83011261323e5761323d6122bf565b5b815161324e8482602086016131e9565b91505092915050565b5f6040828403121561326c5761326b61236a565b5b6132766040612321565b90505f613285848285016131d5565b5f83015250602082015167ffffffffffffffff8111156132a8576132a761236e565b5b6132b48482850161322a565b60208301525092915050565b5f602082840312156132d5576132d4611e91565b5b5f82015167ffffffffffffffff8111156132f2576132f1611e95565b5b6132fe84828501613257565b91505092915050565b7f43617465676f727920646f6573206e6f742065786973740000000000000000005f82015250565b5f61333b601783612d64565b915061334682613307565b602082019050919050565b5f6020820190508181035f8301526133688161332f565b9050919050565b5f61337982612003565b6133838185612d64565b935061339381856020860161201d565b61339c8161202b565b840191505092915050565b5f82825260208201905092915050565b5f6133c182612073565b6133cb81856133a7565b9350836020820285016133dd8561208d565b805f5b8581101561341857848403895281516133f9858261209c565b9450613404836120af565b925060208a019950506001810190506133e0565b50829750879550505050505092915050565b5f60a08201905061343d5f830188611fa1565b818103602083015261344f818761336f565b90508181036040830152613463818661336f565b90506134726060830185611fa1565b818103608083015261348481846133b7565b90509695505050505050565b7f5175616e74697479277320666f6f642063616e6e6f7420626520736d616c6c655f8201527f72207468616e2030000000000000000000000000000000000000000000000000602082015250565b5f6134ea602883612d64565b91506134f582613490565b604082019050919050565b5f6020820190508181035f830152613517816134de565b9050919050565b7f466f6f642077697468207468697320494420616c7265616479206578697374735f82015250565b5f613552602083612d64565b915061355d8261351e565b602082019050919050565b5f6020820190508181035f83015261357f81613546565b905091905056fea26469706673582212209156f68b39ee5339171873e2235f23dcacbfe86bcc8a68d7519bab5d0cb03bcf64736f6c634300081e0033",
			"opcodes": "PUSH1 0x80 PUSH1 0x40 MSTORE PUSH1 0x1 PUSH1 0x3 SSTORE PUSH1 0x1 PUSH1 0x4 SSTORE CALLVALUE DUP1 ISZERO PUSH2 0x19 JUMPI PUSH0 PUSH0 REVERT JUMPDEST POP PUSH1 0x40 MLOAD PUSH2 0x3712 CODESIZE SUB DUP1 PUSH2 0x3712 DUP4 CODECOPY DUP2 DUP2 ADD PUSH1 0x40 MSTORE DUP2 ADD SWAP1 PUSH2 0x3B SWAP2 SWAP1 PUSH2 0x11E JUMP JUMPDEST CALLER PUSH0 PUSH0 PUSH2 0x100 EXP DUP2 SLOAD DUP2 PUSH20 0xFFFFFFFFFFFFFFFFFFFFFFFFFFFFFFFFFFFFFFFF MUL NOT AND SWAP1 DUP4 PUSH20 0xFFFFFFFFFFFFFFFFFFFFFFFFFFFFFFFFFFFFFFFF AND MUL OR SWAP1 SSTORE POP DUP1 PUSH1 0x2 PUSH0 PUSH2 0x100 EXP DUP2 SLOAD DUP2 PUSH20 0xFFFFFFFFFFFFFFFFFFFFFFFFFFFFFFFFFFFFFFFF MUL NOT AND SWAP1 DUP4 PUSH20 0xFFFFFFFFFFFFFFFFFFFFFFFFFFFFFFFFFFFFFFFF AND MUL OR SWAP1 SSTORE POP POP PUSH2 0x149 JUMP JUMPDEST PUSH0 PUSH0 REVERT JUMPDEST PUSH0 PUSH20 0xFFFFFFFFFFFFFFFFFFFFFFFFFFFFFFFFFFFFFFFF DUP3 AND SWAP1 POP SWAP2 SWAP1 POP JUMP JUMPDEST PUSH0 PUSH2 0xED DUP3 PUSH2 0xC4 JUMP JUMPDEST SWAP1 POP SWAP2 SWAP1 POP JUMP JUMPDEST PUSH2 0xFD DUP2 PUSH2 0xE3 JUMP JUMPDEST DUP2 EQ PUSH2 0x107 JUMPI PUSH0 PUSH0 REVERT JUMPDEST POP JUMP JUMPDEST PUSH0 DUP2 MLOAD SWAP1 POP PUSH2 0x118 DUP2 PUSH2 0xF4 JUMP JUMPDEST SWAP3 SWAP2 POP POP JUMP JUMPDEST PUSH0 PUSH1 0x20 DUP3 DUP5 SUB SLT ISZERO PUSH2 0x133 JUMPI PUSH2 0x132 PUSH2 0xC0 JUMP JUMPDEST JUMPDEST PUSH0 PUSH2 0x140 DUP5 DUP3 DUP6 ADD PUSH2 0x10A JUMP JUMPDEST SWAP2 POP POP SWAP3 SWAP2 POP POP JUMP JUMPDEST PUSH2 0x35BC DUP1 PUSH2 0x156 PUSH0 CODECOPY PUSH0 RETURN INVALID PUSH1 0x80 PUSH1 0x40 MSTORE CALLVALUE DUP1 ISZERO PUSH2 0xF JUMPI PUSH0 PUSH0 REVERT JUMPDEST POP PUSH1 0x4 CALLDATASIZE LT PUSH2 0x114 JUMPI PUSH0 CALLDATALOAD PUSH1 0xE0 SHR DUP1 PUSH4 0x70480275 GT PUSH2 0xA0 JUMPI DUP1 PUSH4 0xB447AAAE GT PUSH2 0x6F JUMPI DUP1 PUSH4 0xB447AAAE EQ PUSH2 0x2C6 JUMPI DUP1 PUSH4 0xB9B5AAE6 EQ PUSH2 0x2E2 JUMPI DUP1 PUSH4 0xBAF85306 EQ PUSH2 0x300 JUMPI DUP1 PUSH4 0xD198B650 EQ PUSH2 0x31C JUMPI DUP1 PUSH4 0xD86EC238 EQ PUSH2 0x338 JUMPI PUSH2 0x114 JUMP JUMPDEST DUP1 PUSH4 0x70480275 EQ PUSH2 0x240 JUMPI DUP1 PUSH4 0x893D20E8 EQ PUSH2 0x25C JUMPI DUP1 PUSH4 0x9A69BFA6 EQ PUSH2 0x27A JUMPI DUP1 PUSH4 0xAF5607F9 EQ PUSH2 0x296 JUMPI PUSH2 0x114 JUMP JUMPDEST DUP1 PUSH4 0x1E4DE872 GT PUSH2 0xE7 JUMPI DUP1 PUSH4 0x1E4DE872 EQ PUSH2 0x18C JUMPI DUP1 PUSH4 0x24D7806C EQ PUSH2 0x1BC JUMPI DUP1 PUSH4 0x4D30A39B EQ PUSH2 0x1EC JUMPI DUP1 PUSH4 0x64F77471 EQ PUSH2 0x208 JUMPI DUP1 PUSH4 0x6DD2DD88 EQ PUSH2 0x224 JUMPI PUSH2 0x114 JUMP JUMPDEST DUP1 PUSH4 0x94B9A53 EQ PUSH2 0x118 JUMPI DUP1 PUSH4 0x1785F53C EQ PUSH2 0x134 JUMPI DUP1 PUSH4 0x1945EF58 EQ PUSH2 0x150 JUMPI DUP1 PUSH4 0x1B0D77CC EQ PUSH2 0x16E JUMPI JUMPDEST PUSH0 PUSH0 REVERT JUMPDEST PUSH2 0x132 PUSH1 0x4 DUP1 CALLDATASIZE SUB DUP2 ADD SWAP1 PUSH2 0x12D SWAP2 SWAP1 PUSH2 0x1ECC JUMP JUMPDEST PUSH2 0x356 JUMP JUMPDEST STOP JUMPDEST PUSH2 0x14E PUSH1 0x4 DUP1 CALLDATASIZE SUB DUP2 ADD SWAP1 PUSH2 0x149 SWAP2 SWAP1 PUSH2 0x1F76 JUMP JUMPDEST PUSH2 0x40F JUMP JUMPDEST STOP JUMPDEST PUSH2 0x158 PUSH2 0x476 JUMP JUMPDEST PUSH1 0x40 MLOAD PUSH2 0x165 SWAP2 SWAP1 PUSH2 0x1FB0 JUMP JUMPDEST PUSH1 0x40 MLOAD DUP1 SWAP2 SUB SWAP1 RETURN JUMPDEST PUSH2 0x176 PUSH2 0x47C JUMP JUMPDEST PUSH1 0x40 MLOAD PUSH2 0x183 SWAP2 SWAP1 PUSH2 0x1FB0 JUMP JUMPDEST PUSH1 0x40 MLOAD DUP1 SWAP2 SUB SWAP1 RETURN JUMPDEST PUSH2 0x1A6 PUSH1 0x4 DUP1 CALLDATASIZE SUB DUP2 ADD SWAP1 PUSH2 0x1A1 SWAP2 SWAP1 PUSH2 0x1FC9 JUMP JUMPDEST PUSH2 0x482 JUMP JUMPDEST PUSH1 0x40 MLOAD PUSH2 0x1B3 SWAP2 SWAP1 PUSH2 0x21D5 JUMP JUMPDEST PUSH1 0x40 MLOAD DUP1 SWAP2 SUB SWAP1 RETURN JUMPDEST PUSH2 0x1D6 PUSH1 0x4 DUP1 CALLDATASIZE SUB DUP2 ADD SWAP1 PUSH2 0x1D1 SWAP2 SWAP1 PUSH2 0x1F76 JUMP JUMPDEST PUSH2 0x71D JUMP JUMPDEST PUSH1 0x40 MLOAD PUSH2 0x1E3 SWAP2 SWAP1 PUSH2 0x2268 JUMP JUMPDEST PUSH1 0x40 MLOAD DUP1 SWAP2 SUB SWAP1 RETURN JUMPDEST PUSH2 0x206 PUSH1 0x4 DUP1 CALLDATASIZE SUB DUP2 ADD SWAP1 PUSH2 0x201 SWAP2 SWAP1 PUSH2 0x2281 JUMP JUMPDEST PUSH2 0x73A JUMP JUMPDEST STOP JUMPDEST PUSH2 0x222 PUSH1 0x4 DUP1 CALLDATASIZE SUB DUP2 ADD SWAP1 PUSH2 0x21D SWAP2 SWAP1 PUSH2 0x2552 JUMP JUMPDEST PUSH2 0xA3D JUMP JUMPDEST STOP JUMPDEST PUSH2 0x23E PUSH1 0x4 DUP1 CALLDATASIZE SUB DUP2 ADD SWAP1 PUSH2 0x239 SWAP2 SWAP1 PUSH2 0x268A JUMP JUMPDEST PUSH2 0xBEC JUMP JUMPDEST STOP JUMPDEST PUSH2 0x25A PUSH1 0x4 DUP1 CALLDATASIZE SUB DUP2 ADD SWAP1 PUSH2 0x255 SWAP2 SWAP1 PUSH2 0x1F76 JUMP JUMPDEST PUSH2 0xDED JUMP JUMPDEST STOP JUMPDEST PUSH2 0x264 PUSH2 0xE54 JUMP JUMPDEST PUSH1 0x40 MLOAD PUSH2 0x271 SWAP2 SWAP1 PUSH2 0x2764 JUMP JUMPDEST PUSH1 0x40 MLOAD DUP1 SWAP2 SUB SWAP1 RETURN JUMPDEST PUSH2 0x294 PUSH1 0x4 DUP1 CALLDATASIZE SUB DUP2 ADD SWAP1 PUSH2 0x28F SWAP2 SWAP1 PUSH2 0x1ECC JUMP JUMPDEST PUSH2 0xE7B JUMP JUMPDEST STOP JUMPDEST PUSH2 0x2B0 PUSH1 0x4 DUP1 CALLDATASIZE SUB DUP2 ADD SWAP1 PUSH2 0x2AB SWAP2 SWAP1 PUSH2 0x1FC9 JUMP JUMPDEST PUSH2 0xFA8 JUMP JUMPDEST PUSH1 0x40 MLOAD PUSH2 0x2BD SWAP2 SWAP1 PUSH2 0x2898 JUMP JUMPDEST PUSH1 0x40 MLOAD DUP1 SWAP2 SUB SWAP1 RETURN JUMPDEST PUSH2 0x2E0 PUSH1 0x4 DUP1 CALLDATASIZE SUB DUP2 ADD SWAP1 PUSH2 0x2DB SWAP2 SWAP1 PUSH2 0x28B8 JUMP JUMPDEST PUSH2 0x1117 JUMP JUMPDEST STOP JUMPDEST PUSH2 0x2EA PUSH2 0x1518 JUMP JUMPDEST PUSH1 0x40 MLOAD PUSH2 0x2F7 SWAP2 SWAP1 PUSH2 0x2BD7 JUMP JUMPDEST PUSH1 0x40 MLOAD DUP1 SWAP2 SUB SWAP1 RETURN JUMPDEST PUSH2 0x31A PUSH1 0x4 DUP1 CALLDATASIZE SUB DUP2 ADD SWAP1 PUSH2 0x315 SWAP2 SWAP1 PUSH2 0x2BF7 JUMP JUMPDEST PUSH2 0x1937 JUMP JUMPDEST STOP JUMPDEST PUSH2 0x336 PUSH1 0x4 DUP1 CALLDATASIZE SUB DUP2 ADD SWAP1 PUSH2 0x331 SWAP2 SWAP1 PUSH2 0x1FC9 JUMP JUMPDEST PUSH2 0x1AFD JUMP JUMPDEST STOP JUMPDEST PUSH2 0x340 PUSH2 0x1CBF JUMP JUMPDEST PUSH1 0x40 MLOAD PUSH2 0x34D SWAP2 SWAP1 PUSH2 0x2CBE JUMP JUMPDEST PUSH1 0x40 MLOAD DUP1 SWAP2 SUB SWAP1 RETURN JUMPDEST PUSH0 PUSH0 SWAP1 POP JUMPDEST PUSH1 0x6 PUSH0 DUP6 DUP2 MSTORE PUSH1 0x20 ADD SWAP1 DUP2 MSTORE PUSH1 0x20 ADD PUSH0 KECCAK256 DUP1 SLOAD SWAP1 POP DUP2 LT ISZERO PUSH2 0x409 JUMPI DUP3 PUSH1 0x6 PUSH0 DUP7 DUP2 MSTORE PUSH1 0x20 ADD SWAP1 DUP2 MSTORE PUSH1 0x20 ADD PUSH0 KECCAK256 DUP3 DUP2 SLOAD DUP2 LT PUSH2 0x39B JUMPI PUSH2 0x39A PUSH2 0x2CD7 JUMP JUMPDEST JUMPDEST SWAP1 PUSH0 MSTORE PUSH1 0x20 PUSH0 KECCAK256 SWAP1 PUSH1 0x4 MUL ADD PUSH0 ADD SLOAD SUB PUSH2 0x3FC JUMPI DUP2 PUSH1 0x6 PUSH0 DUP7 DUP2 MSTORE PUSH1 0x20 ADD SWAP1 DUP2 MSTORE PUSH1 0x20 ADD PUSH0 KECCAK256 DUP3 DUP2 SLOAD DUP2 LT PUSH2 0x3D3 JUMPI PUSH2 0x3D2 PUSH2 0x2CD7 JUMP JUMPDEST JUMPDEST SWAP1 PUSH0 MSTORE PUSH1 0x20 PUSH0 KECCAK256 SWAP1 PUSH1 0x4 MUL ADD PUSH1 0x2 ADD PUSH0 DUP3 DUP3 SLOAD PUSH2 0x3F0 SWAP2 SWAP1 PUSH2 0x2D31 JUMP JUMPDEST SWAP3 POP POP DUP2 SWAP1 SSTORE POP PUSH2 0x409 JUMP JUMPDEST DUP1 DUP1 PUSH1 0x1 ADD SWAP2 POP POP PUSH2 0x35B JUMP JUMPDEST POP POP POP POP JUMP JUMPDEST PUSH0 PUSH1 0x1 PUSH0 DUP4 PUSH20 0xFFFFFFFFFFFFFFFFFFFFFFFFFFFFFFFFFFFFFFFF AND PUSH20 0xFFFFFFFFFFFFFFFFFFFFFFFFFFFFFFFFFFFFFFFF AND DUP2 MSTORE PUSH1 0x20 ADD SWAP1 DUP2 MSTORE PUSH1 0x20 ADD PUSH0 KECCAK256 PUSH0 PUSH2 0x100 EXP DUP2 SLOAD DUP2 PUSH1 0xFF MUL NOT AND SWAP1 DUP4 PUSH1 0x2 DUP2 GT ISZERO PUSH2 0x46E JUMPI PUSH2 0x46D PUSH2 0x21F5 JUMP JUMPDEST JUMPDEST MUL OR SWAP1 SSTORE POP POP JUMP JUMPDEST PUSH1 0x3 SLOAD DUP2 JUMP JUMPDEST PUSH1 0x4 SLOAD DUP2 JUMP JUMPDEST PUSH2 0x48A PUSH2 0x1CE4 JUMP JUMPDEST PUSH0 PUSH1 0x5 PUSH0 DUP5 DUP2 MSTORE PUSH1 0x20 ADD SWAP1 DUP2 MSTORE PUSH1 0x20 ADD PUSH0 KECCAK256 PUSH0 ADD SLOAD SUB PUSH2 0x4DF JUMPI PUSH1 0x40 MLOAD PUSH32 0x8C379A000000000000000000000000000000000000000000000000000000000 DUP2 MSTORE PUSH1 0x4 ADD PUSH2 0x4D6 SWAP1 PUSH2 0x2DBE JUMP JUMPDEST PUSH1 0x40 MLOAD DUP1 SWAP2 SUB SWAP1 REVERT JUMPDEST PUSH1 0x5 PUSH0 DUP4 DUP2 MSTORE PUSH1 0x20 ADD SWAP1 DUP2 MSTORE PUSH1 0x20 ADD PUSH0 KECCAK256 PUSH1 0x40 MLOAD DUP1 PUSH1 0xE0 ADD PUSH1 0x40 MSTORE SWAP1 DUP2 PUSH0 DUP3 ADD SLOAD DUP2 MSTORE PUSH1 0x20 ADD PUSH1 0x1 DUP3 ADD DUP1 SLOAD PUSH2 0x514 SWAP1 PUSH2 0x2E09 JUMP JUMPDEST DUP1 PUSH1 0x1F ADD PUSH1 0x20 DUP1 SWAP2 DIV MUL PUSH1 0x20 ADD PUSH1 0x40 MLOAD SWAP1 DUP2 ADD PUSH1 0x40 MSTORE DUP1 SWAP3 SWAP2 SWAP1 DUP2 DUP2 MSTORE PUSH1 0x20 ADD DUP3 DUP1 SLOAD PUSH2 0x540 SWAP1 PUSH2 0x2E09 JUMP JUMPDEST DUP1 ISZERO PUSH2 0x58B JUMPI DUP1 PUSH1 0x1F LT PUSH2 0x562 JUMPI PUSH2 0x100 DUP1 DUP4 SLOAD DIV MUL DUP4 MSTORE SWAP2 PUSH1 0x20 ADD SWAP2 PUSH2 0x58B JUMP JUMPDEST DUP3 ADD SWAP2 SWAP1 PUSH0 MSTORE PUSH1 0x20 PUSH0 KECCAK256 SWAP1 JUMPDEST DUP2 SLOAD DUP2 MSTORE SWAP1 PUSH1 0x1 ADD SWAP1 PUSH1 0x20 ADD DUP1 DUP4 GT PUSH2 0x56E JUMPI DUP3 SWAP1 SUB PUSH1 0x1F AND DUP3 ADD SWAP2 JUMPDEST POP POP POP POP POP DUP2 MSTORE PUSH1 0x20 ADD PUSH1 0x2 DUP3 ADD DUP1 SLOAD PUSH2 0x5A4 SWAP1 PUSH2 0x2E09 JUMP JUMPDEST DUP1 PUSH1 0x1F ADD PUSH1 0x20 DUP1 SWAP2 DIV MUL PUSH1 0x20 ADD PUSH1 0x40 MLOAD SWAP1 DUP2 ADD PUSH1 0x40 MSTORE DUP1 SWAP3 SWAP2 SWAP1 DUP2 DUP2 MSTORE PUSH1 0x20 ADD DUP3 DUP1 SLOAD PUSH2 0x5D0 SWAP1 PUSH2 0x2E09 JUMP JUMPDEST DUP1 ISZERO PUSH2 0x61B JUMPI DUP1 PUSH1 0x1F LT PUSH2 0x5F2 JUMPI PUSH2 0x100 DUP1 DUP4 SLOAD DIV MUL DUP4 MSTORE SWAP2 PUSH1 0x20 ADD SWAP2 PUSH2 0x61B JUMP JUMPDEST DUP3 ADD SWAP2 SWAP1 PUSH0 MSTORE PUSH1 0x20 PUSH0 KECCAK256 SWAP1 JUMPDEST DUP2 SLOAD DUP2 MSTORE SWAP1 PUSH1 0x1 ADD SWAP1 PUSH1 0x20 ADD DUP1 DUP4 GT PUSH2 0x5FE JUMPI DUP3 SWAP1 SUB PUSH1 0x1F AND DUP3 ADD SWAP2 JUMPDEST POP POP POP POP POP DUP2 MSTORE PUSH1 0x20 ADD PUSH1 0x3 DUP3 ADD SLOAD DUP2 MSTORE PUSH1 0x20 ADD PUSH1 0x4 DUP3 ADD DUP1 SLOAD DUP1 PUSH1 0x20 MUL PUSH1 0x20 ADD PUSH1 0x40 MLOAD SWAP1 DUP2 ADD PUSH1 0x40 MSTORE DUP1 SWAP3 SWAP2 SWAP1 DUP2 DUP2 MSTORE PUSH1 0x20 ADD PUSH0 SWAP1 JUMPDEST DUP3 DUP3 LT ISZERO PUSH2 0x6FA JUMPI DUP4 DUP3 SWAP1 PUSH0 MSTORE PUSH1 0x20 PUSH0 KECCAK256 ADD DUP1 SLOAD PUSH2 0x66F SWAP1 PUSH2 0x2E09 JUMP JUMPDEST DUP1 PUSH1 0x1F ADD PUSH1 0x20 DUP1 SWAP2 DIV MUL PUSH1 0x20 ADD PUSH1 0x40 MLOAD SWAP1 DUP2 ADD PUSH1 0x40 MSTORE DUP1 SWAP3 SWAP2 SWAP1 DUP2 DUP2 MSTORE PUSH1 0x20 ADD DUP3 DUP1 SLOAD PUSH2 0x69B SWAP1 PUSH2 0x2E09 JUMP JUMPDEST DUP1 ISZERO PUSH2 0x6E6 JUMPI DUP1 PUSH1 0x1F LT PUSH2 0x6BD JUMPI PUSH2 0x100 DUP1 DUP4 SLOAD DIV MUL DUP4 MSTORE SWAP2 PUSH1 0x20 ADD SWAP2 PUSH2 0x6E6 JUMP JUMPDEST DUP3 ADD SWAP2 SWAP1 PUSH0 MSTORE PUSH1 0x20 PUSH0 KECCAK256 SWAP1 JUMPDEST DUP2 SLOAD DUP2 MSTORE SWAP1 PUSH1 0x1 ADD SWAP1 PUSH1 0x20 ADD DUP1 DUP4 GT PUSH2 0x6C9 JUMPI DUP3 SWAP1 SUB PUSH1 0x1F AND DUP3 ADD SWAP2 JUMPDEST POP POP POP POP POP DUP2 MSTORE PUSH1 0x20 ADD SWAP1 PUSH1 0x1 ADD SWAP1 PUSH2 0x652 JUMP JUMPDEST POP POP POP POP DUP2 MSTORE PUSH1 0x20 ADD PUSH1 0x5 DUP3 ADD SLOAD DUP2 MSTORE PUSH1 0x20 ADD PUSH1 0x6 DUP3 ADD SLOAD DUP2 MSTORE POP POP SWAP1 POP SWAP2 SWAP1 POP JUMP JUMPDEST PUSH1 0x1 PUSH1 0x20 MSTORE DUP1 PUSH0 MSTORE PUSH1 0x40 PUSH0 KECCAK256 PUSH0 SWAP2 POP SLOAD SWAP1 PUSH2 0x100 EXP SWAP1 DIV PUSH1 0xFF AND DUP2 JUMP JUMPDEST PUSH0 PUSH1 0x5 PUSH0 DUP5 DUP2 MSTORE PUSH1 0x20 ADD SWAP1 DUP2 MSTORE PUSH1 0x20 ADD PUSH0 KECCAK256 PUSH0 ADD SLOAD SUB PUSH2 0x78F JUMPI PUSH1 0x40 MLOAD PUSH32 0x8C379A000000000000000000000000000000000000000000000000000000000 DUP2 MSTORE PUSH1 0x4 ADD PUSH2 0x786 SWAP1 PUSH2 0x2DBE JUMP JUMPDEST PUSH1 0x40 MLOAD DUP1 SWAP2 SUB SWAP1 REVERT JUMPDEST PUSH0 PUSH1 0x6 PUSH0 DUP5 DUP2 MSTORE PUSH1 0x20 ADD SWAP1 DUP2 MSTORE PUSH1 0x20 ADD PUSH0 KECCAK256 SWAP1 POP PUSH0 PUSH0 SWAP1 POP PUSH0 PUSH0 SWAP1 POP JUMPDEST DUP3 DUP1 SLOAD SWAP1 POP DUP2 LT ISZERO PUSH2 0x9F6 JUMPI DUP4 DUP4 DUP3 DUP2 SLOAD DUP2 LT PUSH2 0x7CC JUMPI PUSH2 0x7CB PUSH2 0x2CD7 JUMP JUMPDEST JUMPDEST SWAP1 PUSH0 MSTORE PUSH1 0x20 PUSH0 KECCAK256 SWAP1 PUSH1 0x4 MUL ADD PUSH0 ADD SLOAD SUB PUSH2 0x9E9 JUMPI PUSH1 0x1 DUP4 DUP1 SLOAD SWAP1 POP GT PUSH2 0x820 JUMPI PUSH1 0x40 MLOAD DUP1 PUSH1 0x80 ADD PUSH1 0x40 MSTORE DUP1 PUSH0 DUP2 MSTORE PUSH1 0x20 ADD PUSH1 0x40 MLOAD DUP1 PUSH1 0x20 ADD PUSH1 0x40 MSTORE DUP1 PUSH0 DUP2 MSTORE POP DUP2 MSTORE PUSH1 0x20 ADD PUSH0 DUP2 MSTORE PUSH1 0x20 ADD PUSH0 DUP2 MSTORE POP PUSH2 0x908 JUMP JUMPDEST DUP3 PUSH1 0x1 DUP5 DUP1 SLOAD SWAP1 POP PUSH2 0x832 SWAP2 SWAP1 PUSH2 0x2E39 JUMP JUMPDEST DUP2 SLOAD DUP2 LT PUSH2 0x843 JUMPI PUSH2 0x842 PUSH2 0x2CD7 JUMP JUMPDEST JUMPDEST SWAP1 PUSH0 MSTORE PUSH1 0x20 PUSH0 KECCAK256 SWAP1 PUSH1 0x4 MUL ADD PUSH1 0x40 MLOAD DUP1 PUSH1 0x80 ADD PUSH1 0x40 MSTORE SWAP1 DUP2 PUSH0 DUP3 ADD SLOAD DUP2 MSTORE PUSH1 0x20 ADD PUSH1 0x1 DUP3 ADD DUP1 SLOAD PUSH2 0x873 SWAP1 PUSH2 0x2E09 JUMP JUMPDEST DUP1 PUSH1 0x1F ADD PUSH1 0x20 DUP1 SWAP2 DIV MUL PUSH1 0x20 ADD PUSH1 0x40 MLOAD SWAP1 DUP2 ADD PUSH1 0x40 MSTORE DUP1 SWAP3 SWAP2 SWAP1 DUP2 DUP2 MSTORE PUSH1 0x20 ADD DUP3 DUP1 SLOAD PUSH2 0x89F SWAP1 PUSH2 0x2E09 JUMP JUMPDEST DUP1 ISZERO PUSH2 0x8EA JUMPI DUP1 PUSH1 0x1F LT PUSH2 0x8C1 JUMPI PUSH2 0x100 DUP1 DUP4 SLOAD DIV MUL DUP4 MSTORE SWAP2 PUSH1 0x20 ADD SWAP2 PUSH2 0x8EA JUMP JUMPDEST DUP3 ADD SWAP2 SWAP1 PUSH0 MSTORE PUSH1 0x20 PUSH0 KECCAK256 SWAP1 JUMPDEST DUP2 SLOAD DUP2 MSTORE SWAP1 PUSH1 0x1 ADD SWAP1 PUSH1 0x20 ADD DUP1 DUP4 GT PUSH2 0x8CD JUMPI DUP3 SWAP1 SUB PUSH1 0x1F AND DUP3 ADD SWAP2 JUMPDEST POP POP POP POP POP DUP2 MSTORE PUSH1 0x20 ADD PUSH1 0x2 DUP3 ADD SLOAD DUP2 MSTORE PUSH1 0x20 ADD PUSH1 0x3 DUP3 ADD SLOAD DUP2 MSTORE POP POP JUMPDEST DUP4 DUP3 DUP2 SLOAD DUP2 LT PUSH2 0x91B JUMPI PUSH2 0x91A PUSH2 0x2CD7 JUMP JUMPDEST JUMPDEST SWAP1 PUSH0 MSTORE PUSH1 0x20 PUSH0 KECCAK256 SWAP1 PUSH1 0x4 MUL ADD PUSH0 DUP3 ADD MLOAD DUP2 PUSH0 ADD SSTORE PUSH1 0x20 DUP3 ADD MLOAD DUP2 PUSH1 0x1 ADD SWAP1 DUP2 PUSH2 0x944 SWAP2 SWAP1 PUSH2 0x3003 JUMP JUMPDEST POP PUSH1 0x40 DUP3 ADD MLOAD DUP2 PUSH1 0x2 ADD SSTORE PUSH1 0x60 DUP3 ADD MLOAD DUP2 PUSH1 0x3 ADD SSTORE SWAP1 POP POP DUP3 DUP1 SLOAD DUP1 PUSH2 0x96D JUMPI PUSH2 0x96C PUSH2 0x30D2 JUMP JUMPDEST JUMPDEST PUSH1 0x1 SWAP1 SUB DUP2 DUP2 SWAP1 PUSH0 MSTORE PUSH1 0x20 PUSH0 KECCAK256 SWAP1 PUSH1 0x4 MUL ADD PUSH0 PUSH0 DUP3 ADD PUSH0 SWAP1 SSTORE PUSH1 0x1 DUP3 ADD PUSH0 PUSH2 0x995 SWAP2 SWAP1 PUSH2 0x1D1D JUMP JUMPDEST PUSH1 0x2 DUP3 ADD PUSH0 SWAP1 SSTORE PUSH1 0x3 DUP3 ADD PUSH0 SWAP1 SSTORE POP POP SWAP1 SSTORE PUSH1 0x1 SWAP2 POP PUSH32 0x55CAA6A55ACB7E3464DC13C54D94739E0F01B9141276CAEBB64F3EF500CD8900 DUP6 DUP6 PUSH1 0x40 MLOAD PUSH2 0x9DC SWAP3 SWAP2 SWAP1 PUSH2 0x30FF JUMP JUMPDEST PUSH1 0x40 MLOAD DUP1 SWAP2 SUB SWAP1 LOG1 PUSH2 0x9F6 JUMP JUMPDEST DUP1 DUP1 PUSH1 0x1 ADD SWAP2 POP POP PUSH2 0x7AC JUMP JUMPDEST POP DUP1 PUSH2 0xA37 JUMPI PUSH1 0x40 MLOAD PUSH32 0x8C379A000000000000000000000000000000000000000000000000000000000 DUP2 MSTORE PUSH1 0x4 ADD PUSH2 0xA2E SWAP1 PUSH2 0x3170 JUMP JUMPDEST PUSH1 0x40 MLOAD DUP1 SWAP2 SUB SWAP1 REVERT JUMPDEST POP POP POP POP JUMP JUMPDEST PUSH0 PUSH1 0x5 PUSH0 DUP5 DUP2 MSTORE PUSH1 0x20 ADD SWAP1 DUP2 MSTORE PUSH1 0x20 ADD PUSH0 KECCAK256 PUSH0 ADD SLOAD SUB PUSH2 0xA92 JUMPI PUSH1 0x40 MLOAD PUSH32 0x8C379A000000000000000000000000000000000000000000000000000000000 DUP2 MSTORE PUSH1 0x4 ADD PUSH2 0xA89 SWAP1 PUSH2 0x2DBE JUMP JUMPDEST PUSH1 0x40 MLOAD DUP1 SWAP2 SUB SWAP1 REVERT JUMPDEST PUSH0 PUSH0 SWAP1 POP JUMPDEST DUP2 MLOAD DUP2 LT ISZERO PUSH2 0xBB0 JUMPI PUSH1 0x4 PUSH0 DUP2 SLOAD DUP1 SWAP3 SWAP2 SWAP1 PUSH2 0xAB2 SWAP1 PUSH2 0x318E JUMP JUMPDEST SWAP2 SWAP1 POP SSTORE POP PUSH0 PUSH1 0x40 MLOAD DUP1 PUSH1 0x80 ADD PUSH1 0x40 MSTORE DUP1 PUSH1 0x4 SLOAD DUP2 MSTORE PUSH1 0x20 ADD DUP5 DUP5 DUP2 MLOAD DUP2 LT PUSH2 0xADE JUMPI PUSH2 0xADD PUSH2 0x2CD7 JUMP JUMPDEST JUMPDEST PUSH1 0x20 MUL PUSH1 0x20 ADD ADD MLOAD PUSH0 ADD MLOAD DUP2 MSTORE PUSH1 0x20 ADD DUP5 DUP5 DUP2 MLOAD DUP2 LT PUSH2 0xB01 JUMPI PUSH2 0xB00 PUSH2 0x2CD7 JUMP JUMPDEST JUMPDEST PUSH1 0x20 MUL PUSH1 0x20 ADD ADD MLOAD PUSH1 0x20 ADD MLOAD DUP2 MSTORE PUSH1 0x20 ADD DUP5 DUP5 DUP2 MLOAD DUP2 LT PUSH2 0xB25 JUMPI PUSH2 0xB24 PUSH2 0x2CD7 JUMP JUMPDEST JUMPDEST PUSH1 0x20 MUL PUSH1 0x20 ADD ADD MLOAD PUSH1 0x40 ADD MLOAD DUP2 MSTORE POP SWAP1 POP PUSH1 0x6 PUSH0 DUP6 DUP2 MSTORE PUSH1 0x20 ADD SWAP1 DUP2 MSTORE PUSH1 0x20 ADD PUSH0 KECCAK256 DUP2 SWAP1 DUP1 PUSH1 0x1 DUP2 SLOAD ADD DUP1 DUP3 SSTORE DUP1 SWAP2 POP POP PUSH1 0x1 SWAP1 SUB SWAP1 PUSH0 MSTORE PUSH1 0x20 PUSH0 KECCAK256 SWAP1 PUSH1 0x4 MUL ADD PUSH0 SWAP1 SWAP2 SWAP1 SWAP2 SWAP1 SWAP2 POP PUSH0 DUP3 ADD MLOAD DUP2 PUSH0 ADD SSTORE PUSH1 0x20 DUP3 ADD MLOAD DUP2 PUSH1 0x1 ADD SWAP1 DUP2 PUSH2 0xB8B SWAP2 SWAP1 PUSH2 0x3003 JUMP JUMPDEST POP PUSH1 0x40 DUP3 ADD MLOAD DUP2 PUSH1 0x2 ADD SSTORE PUSH1 0x60 DUP3 ADD MLOAD DUP2 PUSH1 0x3 ADD SSTORE POP POP POP DUP1 DUP1 PUSH1 0x1 ADD SWAP2 POP POP PUSH2 0xA97 JUMP JUMPDEST POP PUSH32 0x19A8E56286393226625DCDBC7CBB5A7611C71773D54C7E0680658CB9CEEF6C22 DUP3 PUSH1 0x40 MLOAD PUSH2 0xBE0 SWAP2 SWAP1 PUSH2 0x1FB0 JUMP JUMPDEST PUSH1 0x40 MLOAD DUP1 SWAP2 SUB SWAP1 LOG1 POP POP JUMP JUMPDEST PUSH0 PUSH1 0x5 PUSH0 DUP8 DUP2 MSTORE PUSH1 0x20 ADD SWAP1 DUP2 MSTORE PUSH1 0x20 ADD PUSH0 KECCAK256 PUSH0 ADD SLOAD SUB PUSH2 0xC41 JUMPI PUSH1 0x40 MLOAD PUSH32 0x8C379A000000000000000000000000000000000000000000000000000000000 DUP2 MSTORE PUSH1 0x4 ADD PUSH2 0xC38 SWAP1 PUSH2 0x2DBE JUMP JUMPDEST PUSH1 0x40 MLOAD DUP1 SWAP2 SUB SWAP1 REVERT JUMPDEST PUSH0 PUSH1 0x2 PUSH0 SWAP1 SLOAD SWAP1 PUSH2 0x100 EXP SWAP1 DIV PUSH20 0xFFFFFFFFFFFFFFFFFFFFFFFFFFFFFFFFFFFFFFFF AND PUSH20 0xFFFFFFFFFFFFFFFFFFFFFFFFFFFFFFFFFFFFFFFF AND PUSH4 0xF3052D26 DUP5 PUSH1 0x40 MLOAD DUP3 PUSH4 0xFFFFFFFF AND PUSH1 0xE0 SHL DUP2 MSTORE PUSH1 0x4 ADD PUSH2 0xC9C SWAP2 SWAP1 PUSH2 0x1FB0 JUMP JUMPDEST PUSH0 PUSH1 0x40 MLOAD DUP1 DUP4 SUB DUP2 DUP7 GAS STATICCALL ISZERO DUP1 ISZERO PUSH2 0xCB6 JUMPI RETURNDATASIZE PUSH0 PUSH0 RETURNDATACOPY RETURNDATASIZE PUSH0 REVERT JUMPDEST POP POP POP POP PUSH1 0x40 MLOAD RETURNDATASIZE PUSH0 DUP3 RETURNDATACOPY RETURNDATASIZE PUSH1 0x1F NOT PUSH1 0x1F DUP3 ADD AND DUP3 ADD DUP1 PUSH1 0x40 MSTORE POP DUP2 ADD SWAP1 PUSH2 0xCDE SWAP2 SWAP1 PUSH2 0x32C0 JUMP JUMPDEST PUSH0 ADD MLOAD SUB PUSH2 0xD21 JUMPI PUSH1 0x40 MLOAD PUSH32 0x8C379A000000000000000000000000000000000000000000000000000000000 DUP2 MSTORE PUSH1 0x4 ADD PUSH2 0xD18 SWAP1 PUSH2 0x3351 JUMP JUMPDEST PUSH1 0x40 MLOAD DUP1 SWAP2 SUB SWAP1 REVERT JUMPDEST DUP4 PUSH1 0x5 PUSH0 DUP8 DUP2 MSTORE PUSH1 0x20 ADD SWAP1 DUP2 MSTORE PUSH1 0x20 ADD PUSH0 KECCAK256 PUSH1 0x1 ADD SWAP1 DUP2 PUSH2 0xD42 SWAP2 SWAP1 PUSH2 0x3003 JUMP JUMPDEST POP DUP3 PUSH1 0x5 PUSH0 DUP8 DUP2 MSTORE PUSH1 0x20 ADD SWAP1 DUP2 MSTORE PUSH1 0x20 ADD PUSH0 KECCAK256 PUSH1 0x2 ADD SWAP1 DUP2 PUSH2 0xD64 SWAP2 SWAP1 PUSH2 0x3003 JUMP JUMPDEST POP DUP2 PUSH1 0x5 PUSH0 DUP8 DUP2 MSTORE PUSH1 0x20 ADD SWAP1 DUP2 MSTORE PUSH1 0x20 ADD PUSH0 KECCAK256 PUSH1 0x3 ADD DUP2 SWAP1 SSTORE POP DUP1 PUSH1 0x5 PUSH0 DUP8 DUP2 MSTORE PUSH1 0x20 ADD SWAP1 DUP2 MSTORE PUSH1 0x20 ADD PUSH0 KECCAK256 PUSH1 0x4 ADD SWAP1 DUP1 MLOAD SWAP1 PUSH1 0x20 ADD SWAP1 PUSH2 0xDA6 SWAP3 SWAP2 SWAP1 PUSH2 0x1D5A JUMP JUMPDEST POP PUSH32 0x4F49710E0E59EA2E7096D7BAD0267390D8BB5C007687F72B0DE2DB3AFDADD5E5 DUP6 DUP6 DUP6 DUP6 DUP6 PUSH1 0x40 MLOAD PUSH2 0xDDE SWAP6 SWAP5 SWAP4 SWAP3 SWAP2 SWAP1 PUSH2 0x342A JUMP JUMPDEST PUSH1 0x40 MLOAD DUP1 SWAP2 SUB SWAP1 LOG1 POP POP POP POP POP JUMP JUMPDEST PUSH1 0x1 DUP1 PUSH0 DUP4 PUSH20 0xFFFFFFFFFFFFFFFFFFFFFFFFFFFFFFFFFFFFFFFF AND PUSH20 0xFFFFFFFFFFFFFFFFFFFFFFFFFFFFFFFFFFFFFFFF AND DUP2 MSTORE PUSH1 0x20 ADD SWAP1 DUP2 MSTORE PUSH1 0x20 ADD PUSH0 KECCAK256 PUSH0 PUSH2 0x100 EXP DUP2 SLOAD DUP2 PUSH1 0xFF MUL NOT AND SWAP1 DUP4 PUSH1 0x2 DUP2 GT ISZERO PUSH2 0xE4C JUMPI PUSH2 0xE4B PUSH2 0x21F5 JUMP JUMPDEST JUMPDEST MUL OR SWAP1 SSTORE POP POP JUMP JUMPDEST PUSH0 PUSH0 PUSH0 SWAP1 SLOAD SWAP1 PUSH2 0x100 EXP SWAP1 DIV PUSH20 0xFFFFFFFFFFFFFFFFFFFFFFFFFFFFFFFFFFFFFFFF AND SWAP1 POP SWAP1 JUMP JUMPDEST PUSH0 PUSH0 SWAP1 POP JUMPDEST PUSH1 0x6 PUSH0 DUP6 DUP2 MSTORE PUSH1 0x20 ADD SWAP1 DUP2 MSTORE PUSH1 0x20 ADD PUSH0 KECCAK256 DUP1 SLOAD SWAP1 POP DUP2 LT ISZERO PUSH2 0xFA2 JUMPI DUP3 PUSH1 0x6 PUSH0 DUP7 DUP2 MSTORE PUSH1 0x20 ADD SWAP1 DUP2 MSTORE PUSH1 0x20 ADD PUSH0 KECCAK256 DUP3 DUP2 SLOAD DUP2 LT PUSH2 0xEC0 JUMPI PUSH2 0xEBF PUSH2 0x2CD7 JUMP JUMPDEST JUMPDEST SWAP1 PUSH0 MSTORE PUSH1 0x20 PUSH0 KECCAK256 SWAP1 PUSH1 0x4 MUL ADD PUSH0 ADD SLOAD SUB PUSH2 0xF95 JUMPI PUSH1 0x6 PUSH0 DUP6 DUP2 MSTORE PUSH1 0x20 ADD SWAP1 DUP2 MSTORE PUSH1 0x20 ADD PUSH0 KECCAK256 DUP2 DUP2 SLOAD DUP2 LT PUSH2 0xEF7 JUMPI PUSH2 0xEF6 PUSH2 0x2CD7 JUMP JUMPDEST JUMPDEST SWAP1 PUSH0 MSTORE PUSH1 0x20 PUSH0 KECCAK256 SWAP1 PUSH1 0x4 MUL ADD PUSH1 0x2 ADD SLOAD DUP3 LT PUSH2 0xF48 JUMPI PUSH1 0x40 MLOAD PUSH32 0x8C379A000000000000000000000000000000000000000000000000000000000 DUP2 MSTORE PUSH1 0x4 ADD PUSH2 0xF3F SWAP1 PUSH2 0x3500 JUMP JUMPDEST PUSH1 0x40 MLOAD DUP1 SWAP2 SUB SWAP1 REVERT JUMPDEST DUP2 PUSH1 0x6 PUSH0 DUP7 DUP2 MSTORE PUSH1 0x20 ADD SWAP1 DUP2 MSTORE PUSH1 0x20 ADD PUSH0 KECCAK256 DUP3 DUP2 SLOAD DUP2 LT PUSH2 0xF6C JUMPI PUSH2 0xF6B PUSH2 0x2CD7 JUMP JUMPDEST JUMPDEST SWAP1 PUSH0 MSTORE PUSH1 0x20 PUSH0 KECCAK256 SWAP1 PUSH1 0x4 MUL ADD PUSH1 0x2 ADD PUSH0 DUP3 DUP3 SLOAD PUSH2 0xF89 SWAP2 SWAP1 PUSH2 0x2E39 JUMP JUMPDEST SWAP3 POP POP DUP2 SWAP1 SSTORE POP PUSH2 0xFA2 JUMP JUMPDEST DUP1 DUP1 PUSH1 0x1 ADD SWAP2 POP POP PUSH2 0xE80 JUMP JUMPDEST POP POP POP POP JUMP JUMPDEST PUSH1 0x60 PUSH0 PUSH1 0x5 PUSH0 DUP5 DUP2 MSTORE PUSH1 0x20 ADD SWAP1 DUP2 MSTORE PUSH1 0x20 ADD PUSH0 KECCAK256 PUSH0 ADD SLOAD SUB PUSH2 0xFFF JUMPI PUSH1 0x40 MLOAD PUSH32 0x8C379A000000000000000000000000000000000000000000000000000000000 DUP2 MSTORE PUSH1 0x4 ADD PUSH2 0xFF6 SWAP1 PUSH2 0x2DBE JUMP JUMPDEST PUSH1 0x40 MLOAD DUP1 SWAP2 SUB SWAP1 REVERT JUMPDEST PUSH1 0x6 PUSH0 DUP4 DUP2 MSTORE PUSH1 0x20 ADD SWAP1 DUP2 MSTORE PUSH1 0x20 ADD PUSH0 KECCAK256 DUP1 SLOAD DUP1 PUSH1 0x20 MUL PUSH1 0x20 ADD PUSH1 0x40 MLOAD SWAP1 DUP2 ADD PUSH1 0x40 MSTORE DUP1 SWAP3 SWAP2 SWAP1 DUP2 DUP2 MSTORE PUSH1 0x20 ADD PUSH0 SWAP1 JUMPDEST DUP3 DUP3 LT ISZERO PUSH2 0x110C JUMPI DUP4 DUP3 SWAP1 PUSH0 MSTORE PUSH1 0x20 PUSH0 KECCAK256 SWAP1 PUSH1 0x4 MUL ADD PUSH1 0x40 MLOAD DUP1 PUSH1 0x80 ADD PUSH1 0x40 MSTORE SWAP1 DUP2 PUSH0 DUP3 ADD SLOAD DUP2 MSTORE PUSH1 0x20 ADD PUSH1 0x1 DUP3 ADD DUP1 SLOAD PUSH2 0x1069 SWAP1 PUSH2 0x2E09 JUMP JUMPDEST DUP1 PUSH1 0x1F ADD PUSH1 0x20 DUP1 SWAP2 DIV MUL PUSH1 0x20 ADD PUSH1 0x40 MLOAD SWAP1 DUP2 ADD PUSH1 0x40 MSTORE DUP1 SWAP3 SWAP2 SWAP1 DUP2 DUP2 MSTORE PUSH1 0x20 ADD DUP3 DUP1 SLOAD PUSH2 0x1095 SWAP1 PUSH2 0x2E09 JUMP JUMPDEST DUP1 ISZERO PUSH2 0x10E0 JUMPI DUP1 PUSH1 0x1F LT PUSH2 0x10B7 JUMPI PUSH2 0x100 DUP1 DUP4 SLOAD DIV MUL DUP4 MSTORE SWAP2 PUSH1 0x20 ADD SWAP2 PUSH2 0x10E0 JUMP JUMPDEST DUP3 ADD SWAP2 SWAP1 PUSH0 MSTORE PUSH1 0x20 PUSH0 KECCAK256 SWAP1 JUMPDEST DUP2 SLOAD DUP2 MSTORE SWAP1 PUSH1 0x1 ADD SWAP1 PUSH1 0x20 ADD DUP1 DUP4 GT PUSH2 0x10C3 JUMPI DUP3 SWAP1 SUB PUSH1 0x1F AND DUP3 ADD SWAP2 JUMPDEST POP POP POP POP POP DUP2 MSTORE PUSH1 0x20 ADD PUSH1 0x2 DUP3 ADD SLOAD DUP2 MSTORE PUSH1 0x20 ADD PUSH1 0x3 DUP3 ADD SLOAD DUP2 MSTORE POP POP DUP2 MSTORE PUSH1 0x20 ADD SWAP1 PUSH1 0x1 ADD SWAP1 PUSH2 0x102F JUMP JUMPDEST POP POP POP POP SWAP1 POP SWAP2 SWAP1 POP JUMP JUMPDEST PUSH0 PUSH1 0x5 PUSH0 DUP9 DUP2 MSTORE PUSH1 0x20 ADD SWAP1 DUP2 MSTORE PUSH1 0x20 ADD PUSH0 KECCAK256 PUSH0 ADD SLOAD EQ PUSH2 0x116C JUMPI PUSH1 0x40 MLOAD PUSH32 0x8C379A000000000000000000000000000000000000000000000000000000000 DUP2 MSTORE PUSH1 0x4 ADD PUSH2 0x1163 SWAP1 PUSH2 0x3568 JUMP JUMPDEST PUSH1 0x40 MLOAD DUP1 SWAP2 SUB SWAP1 REVERT JUMPDEST PUSH0 PUSH1 0x2 PUSH0 SWAP1 SLOAD SWAP1 PUSH2 0x100 EXP SWAP1 DIV PUSH20 0xFFFFFFFFFFFFFFFFFFFFFFFFFFFFFFFFFFFFFFFF AND PUSH20 0xFFFFFFFFFFFFFFFFFFFFFFFFFFFFFFFFFFFFFFFF AND PUSH4 0xF3052D26 DUP6 PUSH1 0x40 MLOAD DUP3 PUSH4 0xFFFFFFFF AND PUSH1 0xE0 SHL DUP2 MSTORE PUSH1 0x4 ADD PUSH2 0x11C7 SWAP2 SWAP1 PUSH2 0x1FB0 JUMP JUMPDEST PUSH0 PUSH1 0x40 MLOAD DUP1 DUP4 SUB DUP2 DUP7 GAS STATICCALL ISZERO DUP1 ISZERO PUSH2 0x11E1 JUMPI RETURNDATASIZE PUSH0 PUSH0 RETURNDATACOPY RETURNDATASIZE PUSH0 REVERT JUMPDEST POP POP POP POP PUSH1 0x40 MLOAD RETURNDATASIZE PUSH0 DUP3 RETURNDATACOPY RETURNDATASIZE PUSH1 0x1F NOT PUSH1 0x1F DUP3 ADD AND DUP3 ADD DUP1 PUSH1 0x40 MSTORE POP DUP2 ADD SWAP1 PUSH2 0x1209 SWAP2 SWAP1 PUSH2 0x32C0 JUMP JUMPDEST PUSH0 ADD MLOAD SUB PUSH2 0x124C JUMPI PUSH1 0x40 MLOAD PUSH32 0x8C379A000000000000000000000000000000000000000000000000000000000 DUP2 MSTORE PUSH1 0x4 ADD PUSH2 0x1243 SWAP1 PUSH2 0x3351 JUMP JUMPDEST PUSH1 0x40 MLOAD DUP1 SWAP2 SUB SWAP1 REVERT JUMPDEST PUSH0 PUSH1 0x40 MLOAD DUP1 PUSH1 0xE0 ADD PUSH1 0x40 MSTORE DUP1 DUP9 DUP2 MSTORE PUSH1 0x20 ADD DUP8 DUP2 MSTORE PUSH1 0x20 ADD DUP7 DUP2 MSTORE PUSH1 0x20 ADD DUP6 DUP2 MSTORE PUSH1 0x20 ADD DUP5 DUP2 MSTORE PUSH1 0x20 ADD PUSH0 DUP2 MSTORE PUSH1 0x20 ADD PUSH0 DUP2 MSTORE POP SWAP1 POP DUP1 PUSH1 0x5 PUSH0 DUP10 DUP2 MSTORE PUSH1 0x20 ADD SWAP1 DUP2 MSTORE PUSH1 0x20 ADD PUSH0 KECCAK256 PUSH0 DUP3 ADD MLOAD DUP2 PUSH0 ADD SSTORE PUSH1 0x20 DUP3 ADD MLOAD DUP2 PUSH1 0x1 ADD SWAP1 DUP2 PUSH2 0x12B1 SWAP2 SWAP1 PUSH2 0x3003 JUMP JUMPDEST POP PUSH1 0x40 DUP3 ADD MLOAD DUP2 PUSH1 0x2 ADD SWAP1 DUP2 PUSH2 0x12C7 SWAP2 SWAP1 PUSH2 0x3003 JUMP JUMPDEST POP PUSH1 0x60 DUP3 ADD MLOAD DUP2 PUSH1 0x3 ADD SSTORE PUSH1 0x80 DUP3 ADD MLOAD DUP2 PUSH1 0x4 ADD SWAP1 DUP1 MLOAD SWAP1 PUSH1 0x20 ADD SWAP1 PUSH2 0x12EE SWAP3 SWAP2 SWAP1 PUSH2 0x1D5A JUMP JUMPDEST POP PUSH1 0xA0 DUP3 ADD MLOAD DUP2 PUSH1 0x5 ADD SSTORE PUSH1 0xC0 DUP3 ADD MLOAD DUP2 PUSH1 0x6 ADD SSTORE SWAP1 POP POP PUSH1 0x7 DUP8 SWAP1 DUP1 PUSH1 0x1 DUP2 SLOAD ADD DUP1 DUP3 SSTORE DUP1 SWAP2 POP POP PUSH1 0x1 SWAP1 SUB SWAP1 PUSH0 MSTORE PUSH1 0x20 PUSH0 KECCAK256 ADD PUSH0 SWAP1 SWAP2 SWAP1 SWAP2 SWAP1 SWAP2 POP SSTORE PUSH1 0x2 PUSH0 SWAP1 SLOAD SWAP1 PUSH2 0x100 EXP SWAP1 DIV PUSH20 0xFFFFFFFFFFFFFFFFFFFFFFFFFFFFFFFFFFFFFFFF AND PUSH20 0xFFFFFFFFFFFFFFFFFFFFFFFFFFFFFFFFFFFFFFFF AND PUSH4 0x5F8069CC DUP6 DUP10 PUSH1 0x40 MLOAD DUP4 PUSH4 0xFFFFFFFF AND PUSH1 0xE0 SHL DUP2 MSTORE PUSH1 0x4 ADD PUSH2 0x1388 SWAP3 SWAP2 SWAP1 PUSH2 0x30FF JUMP JUMPDEST PUSH0 PUSH1 0x40 MLOAD DUP1 DUP4 SUB DUP2 PUSH0 DUP8 DUP1 EXTCODESIZE ISZERO DUP1 ISZERO PUSH2 0x139F JUMPI PUSH0 PUSH0 REVERT JUMPDEST POP GAS CALL ISZERO DUP1 ISZERO PUSH2 0x13B1 JUMPI RETURNDATASIZE PUSH0 PUSH0 RETURNDATACOPY RETURNDATASIZE PUSH0 REVERT JUMPDEST POP POP POP POP PUSH0 PUSH0 SWAP1 POP JUMPDEST DUP3 MLOAD DUP2 LT ISZERO PUSH2 0x14CF JUMPI PUSH0 PUSH1 0x40 MLOAD DUP1 PUSH1 0x80 ADD PUSH1 0x40 MSTORE DUP1 PUSH1 0x4 PUSH0 DUP2 SLOAD DUP1 SWAP3 SWAP2 SWAP1 PUSH2 0x13E1 SWAP1 PUSH2 0x318E JUMP JUMPDEST SWAP2 SWAP1 POP SSTORE DUP2 MSTORE PUSH1 0x20 ADD DUP6 DUP5 DUP2 MLOAD DUP2 LT PUSH2 0x13FD JUMPI PUSH2 0x13FC PUSH2 0x2CD7 JUMP JUMPDEST JUMPDEST PUSH1 0x20 MUL PUSH1 0x20 ADD ADD MLOAD PUSH0 ADD MLOAD DUP2 MSTORE PUSH1 0x20 ADD DUP6 DUP5 DUP2 MLOAD DUP2 LT PUSH2 0x1420 JUMPI PUSH2 0x141F PUSH2 0x2CD7 JUMP JUMPDEST JUMPDEST PUSH1 0x20 MUL PUSH1 0x20 ADD ADD MLOAD PUSH1 0x20 ADD MLOAD DUP2 MSTORE PUSH1 0x20 ADD DUP6 DUP5 DUP2 MLOAD DUP2 LT PUSH2 0x1444 JUMPI PUSH2 0x1443 PUSH2 0x2CD7 JUMP JUMPDEST JUMPDEST PUSH1 0x20 MUL PUSH1 0x20 ADD ADD MLOAD PUSH1 0x40 ADD MLOAD DUP2 MSTORE POP SWAP1 POP PUSH1 0x6 PUSH0 DUP11 DUP2 MSTORE PUSH1 0x20 ADD SWAP1 DUP2 MSTORE PUSH1 0x20 ADD PUSH0 KECCAK256 DUP2 SWAP1 DUP1 PUSH1 0x1 DUP2 SLOAD ADD DUP1 DUP3 SSTORE DUP1 SWAP2 POP POP PUSH1 0x1 SWAP1 SUB SWAP1 PUSH0 MSTORE PUSH1 0x20 PUSH0 KECCAK256 SWAP1 PUSH1 0x4 MUL ADD PUSH0 SWAP1 SWAP2 SWAP1 SWAP2 SWAP1 SWAP2 POP PUSH0 DUP3 ADD MLOAD DUP2 PUSH0 ADD SSTORE PUSH1 0x20 DUP3 ADD MLOAD DUP2 PUSH1 0x1 ADD SWAP1 DUP2 PUSH2 0x14AA SWAP2 SWAP1 PUSH2 0x3003 JUMP JUMPDEST POP PUSH1 0x40 DUP3 ADD MLOAD DUP2 PUSH1 0x2 ADD SSTORE PUSH1 0x60 DUP3 ADD MLOAD DUP2 PUSH1 0x3 ADD SSTORE POP POP POP DUP1 DUP1 PUSH1 0x1 ADD SWAP2 POP POP PUSH2 0x13BA JUMP JUMPDEST POP PUSH32 0xBDF2814016D06BF27F22AA349FADE26A888A8F7EAC3E0963916B1C64CC37A5CE DUP8 DUP8 DUP8 DUP8 DUP8 PUSH1 0x40 MLOAD PUSH2 0x1507 SWAP6 SWAP5 SWAP4 SWAP3 SWAP2 SWAP1 PUSH2 0x342A JUMP JUMPDEST PUSH1 0x40 MLOAD DUP1 SWAP2 SUB SWAP1 LOG1 POP POP POP POP POP POP POP JUMP JUMPDEST PUSH1 0x60 PUSH0 PUSH1 0x7 DUP1 SLOAD SWAP1 POP PUSH8 0xFFFFFFFFFFFFFFFF DUP2 GT ISZERO PUSH2 0x153A JUMPI PUSH2 0x1539 PUSH2 0x22C3 JUMP JUMPDEST JUMPDEST PUSH1 0x40 MLOAD SWAP1 DUP1 DUP3 MSTORE DUP1 PUSH1 0x20 MUL PUSH1 0x20 ADD DUP3 ADD PUSH1 0x40 MSTORE DUP1 ISZERO PUSH2 0x1573 JUMPI DUP2 PUSH1 0x20 ADD JUMPDEST PUSH2 0x1560 PUSH2 0x1DB1 JUMP JUMPDEST DUP2 MSTORE PUSH1 0x20 ADD SWAP1 PUSH1 0x1 SWAP1 SUB SWAP1 DUP2 PUSH2 0x1558 JUMPI SWAP1 POP JUMPDEST POP SWAP1 POP PUSH0 PUSH0 SWAP1 POP JUMPDEST PUSH1 0x7 DUP1 SLOAD SWAP1 POP DUP2 LT ISZERO PUSH2 0x192F JUMPI PUSH0 PUSH1 0x7 DUP3 DUP2 SLOAD DUP2 LT PUSH2 0x159D JUMPI PUSH2 0x159C PUSH2 0x2CD7 JUMP JUMPDEST JUMPDEST SWAP1 PUSH0 MSTORE PUSH1 0x20 PUSH0 KECCAK256 ADD SLOAD SWAP1 POP PUSH1 0x40 MLOAD DUP1 PUSH1 0x40 ADD PUSH1 0x40 MSTORE DUP1 PUSH1 0x5 PUSH0 DUP5 DUP2 MSTORE PUSH1 0x20 ADD SWAP1 DUP2 MSTORE PUSH1 0x20 ADD PUSH0 KECCAK256 PUSH1 0x40 MLOAD DUP1 PUSH1 0xE0 ADD PUSH1 0x40 MSTORE SWAP1 DUP2 PUSH0 DUP3 ADD SLOAD DUP2 MSTORE PUSH1 0x20 ADD PUSH1 0x1 DUP3 ADD DUP1 SLOAD PUSH2 0x15E8 SWAP1 PUSH2 0x2E09 JUMP JUMPDEST DUP1 PUSH1 0x1F ADD PUSH1 0x20 DUP1 SWAP2 DIV MUL PUSH1 0x20 ADD PUSH1 0x40 MLOAD SWAP1 DUP2 ADD PUSH1 0x40 MSTORE DUP1 SWAP3 SWAP2 SWAP1 DUP2 DUP2 MSTORE PUSH1 0x20 ADD DUP3 DUP1 SLOAD PUSH2 0x1614 SWAP1 PUSH2 0x2E09 JUMP JUMPDEST DUP1 ISZERO PUSH2 0x165F JUMPI DUP1 PUSH1 0x1F LT PUSH2 0x1636 JUMPI PUSH2 0x100 DUP1 DUP4 SLOAD DIV MUL DUP4 MSTORE SWAP2 PUSH1 0x20 ADD SWAP2 PUSH2 0x165F JUMP JUMPDEST DUP3 ADD SWAP2 SWAP1 PUSH0 MSTORE PUSH1 0x20 PUSH0 KECCAK256 SWAP1 JUMPDEST DUP2 SLOAD DUP2 MSTORE SWAP1 PUSH1 0x1 ADD SWAP1 PUSH1 0x20 ADD DUP1 DUP4 GT PUSH2 0x1642 JUMPI DUP3 SWAP1 SUB PUSH1 0x1F AND DUP3 ADD SWAP2 JUMPDEST POP POP POP POP POP DUP2 MSTORE PUSH1 0x20 ADD PUSH1 0x2 DUP3 ADD DUP1 SLOAD PUSH2 0x1678 SWAP1 PUSH2 0x2E09 JUMP JUMPDEST DUP1 PUSH1 0x1F ADD PUSH1 0x20 DUP1 SWAP2 DIV MUL PUSH1 0x20 ADD PUSH1 0x40 MLOAD SWAP1 DUP2 ADD PUSH1 0x40 MSTORE DUP1 SWAP3 SWAP2 SWAP1 DUP2 DUP2 MSTORE PUSH1 0x20 ADD DUP3 DUP1 SLOAD PUSH2 0x16A4 SWAP1 PUSH2 0x2E09 JUMP JUMPDEST DUP1 ISZERO PUSH2 0x16EF JUMPI DUP1 PUSH1 0x1F LT PUSH2 0x16C6 JUMPI PUSH2 0x100 DUP1 DUP4 SLOAD DIV MUL DUP4 MSTORE SWAP2 PUSH1 0x20 ADD SWAP2 PUSH2 0x16EF JUMP JUMPDEST DUP3 ADD SWAP2 SWAP1 PUSH0 MSTORE PUSH1 0x20 PUSH0 KECCAK256 SWAP1 JUMPDEST DUP2 SLOAD DUP2 MSTORE SWAP1 PUSH1 0x1 ADD SWAP1 PUSH1 0x20 ADD DUP1 DUP4 GT PUSH2 0x16D2 JUMPI DUP3 SWAP1 SUB PUSH1 0x1F AND DUP3 ADD SWAP2 JUMPDEST POP POP POP POP POP DUP2 MSTORE PUSH1 0x20 ADD PUSH1 0x3 DUP3 ADD SLOAD DUP2 MSTORE PUSH1 0x20 ADD PUSH1 0x4 DUP3 ADD DUP1 SLOAD DUP1 PUSH1 0x20 MUL PUSH1 0x20 ADD PUSH1 0x40 MLOAD SWAP1 DUP2 ADD PUSH1 0x40 MSTORE DUP1 SWAP3 SWAP2 SWAP1 DUP2 DUP2 MSTORE PUSH1 0x20 ADD PUSH0 SWAP1 JUMPDEST DUP3 DUP3 LT ISZERO PUSH2 0x17CE JUMPI DUP4 DUP3 SWAP1 PUSH0 MSTORE PUSH1 0x20 PUSH0 KECCAK256 ADD DUP1 SLOAD PUSH2 0x1743 SWAP1 PUSH2 0x2E09 JUMP JUMPDEST DUP1 PUSH1 0x1F ADD PUSH1 0x20 DUP1 SWAP2 DIV MUL PUSH1 0x20 ADD PUSH1 0x40 MLOAD SWAP1 DUP2 ADD PUSH1 0x40 MSTORE DUP1 SWAP3 SWAP2 SWAP1 DUP2 DUP2 MSTORE PUSH1 0x20 ADD DUP3 DUP1 SLOAD PUSH2 0x176F SWAP1 PUSH2 0x2E09 JUMP JUMPDEST DUP1 ISZERO PUSH2 0x17BA JUMPI DUP1 PUSH1 0x1F LT PUSH2 0x1791 JUMPI PUSH2 0x100 DUP1 DUP4 SLOAD DIV MUL DUP4 MSTORE SWAP2 PUSH1 0x20 ADD SWAP2 PUSH2 0x17BA JUMP JUMPDEST DUP3 ADD SWAP2 SWAP1 PUSH0 MSTORE PUSH1 0x20 PUSH0 KECCAK256 SWAP1 JUMPDEST DUP2 SLOAD DUP2 MSTORE SWAP1 PUSH1 0x1 ADD SWAP1 PUSH1 0x20 ADD DUP1 DUP4 GT PUSH2 0x179D JUMPI DUP3 SWAP1 SUB PUSH1 0x1F AND DUP3 ADD SWAP2 JUMPDEST POP POP POP POP POP DUP2 MSTORE PUSH1 0x20 ADD SWAP1 PUSH1 0x1 ADD SWAP1 PUSH2 0x1726 JUMP JUMPDEST POP POP POP POP DUP2 MSTORE PUSH1 0x20 ADD PUSH1 0x5 DUP3 ADD SLOAD DUP2 MSTORE PUSH1 0x20 ADD PUSH1 0x6 DUP3 ADD SLOAD DUP2 MSTORE POP POP DUP2 MSTORE PUSH1 0x20 ADD PUSH1 0x6 PUSH0 DUP5 DUP2 MSTORE PUSH1 0x20 ADD SWAP1 DUP2 MSTORE PUSH1 0x20 ADD PUSH0 KECCAK256 DUP1 SLOAD DUP1 PUSH1 0x20 MUL PUSH1 0x20 ADD PUSH1 0x40 MLOAD SWAP1 DUP2 ADD PUSH1 0x40 MSTORE DUP1 SWAP3 SWAP2 SWAP1 DUP2 DUP2 MSTORE PUSH1 0x20 ADD PUSH0 SWAP1 JUMPDEST DUP3 DUP3 LT ISZERO PUSH2 0x18FC JUMPI DUP4 DUP3 SWAP1 PUSH0 MSTORE PUSH1 0x20 PUSH0 KECCAK256 SWAP1 PUSH1 0x4 MUL ADD PUSH1 0x40 MLOAD DUP1 PUSH1 0x80 ADD PUSH1 0x40 MSTORE SWAP1 DUP2 PUSH0 DUP3 ADD SLOAD DUP2 MSTORE PUSH1 0x20 ADD PUSH1 0x1 DUP3 ADD DUP1 SLOAD PUSH2 0x1859 SWAP1 PUSH2 0x2E09 JUMP JUMPDEST DUP1 PUSH1 0x1F ADD PUSH1 0x20 DUP1 SWAP2 DIV MUL PUSH1 0x20 ADD PUSH1 0x40 MLOAD SWAP1 DUP2 ADD PUSH1 0x40 MSTORE DUP1 SWAP3 SWAP2 SWAP1 DUP2 DUP2 MSTORE PUSH1 0x20 ADD DUP3 DUP1 SLOAD PUSH2 0x1885 SWAP1 PUSH2 0x2E09 JUMP JUMPDEST DUP1 ISZERO PUSH2 0x18D0 JUMPI DUP1 PUSH1 0x1F LT PUSH2 0x18A7 JUMPI PUSH2 0x100 DUP1 DUP4 SLOAD DIV MUL DUP4 MSTORE SWAP2 PUSH1 0x20 ADD SWAP2 PUSH2 0x18D0 JUMP JUMPDEST DUP3 ADD SWAP2 SWAP1 PUSH0 MSTORE PUSH1 0x20 PUSH0 KECCAK256 SWAP1 JUMPDEST DUP2 SLOAD DUP2 MSTORE SWAP1 PUSH1 0x1 ADD SWAP1 PUSH1 0x20 ADD DUP1 DUP4 GT PUSH2 0x18B3 JUMPI DUP3 SWAP1 SUB PUSH1 0x1F AND DUP3 ADD SWAP2 JUMPDEST POP POP POP POP POP DUP2 MSTORE PUSH1 0x20 ADD PUSH1 0x2 DUP3 ADD SLOAD DUP2 MSTORE PUSH1 0x20 ADD PUSH1 0x3 DUP3 ADD SLOAD DUP2 MSTORE POP POP DUP2 MSTORE PUSH1 0x20 ADD SWAP1 PUSH1 0x1 ADD SWAP1 PUSH2 0x181F JUMP JUMPDEST POP POP POP POP DUP2 MSTORE POP DUP4 DUP4 DUP2 MLOAD DUP2 LT PUSH2 0x1916 JUMPI PUSH2 0x1915 PUSH2 0x2CD7 JUMP JUMPDEST JUMPDEST PUSH1 0x20 MUL PUSH1 0x20 ADD ADD DUP2 SWAP1 MSTORE POP POP DUP1 DUP1 PUSH1 0x1 ADD SWAP2 POP POP PUSH2 0x157B JUMP JUMPDEST POP DUP1 SWAP2 POP POP SWAP1 JUMP JUMPDEST PUSH0 PUSH1 0x5 PUSH0 DUP6 DUP2 MSTORE PUSH1 0x20 ADD SWAP1 DUP2 MSTORE PUSH1 0x20 ADD PUSH0 KECCAK256 PUSH0 ADD SLOAD SUB PUSH2 0x198C JUMPI PUSH1 0x40 MLOAD PUSH32 0x8C379A000000000000000000000000000000000000000000000000000000000 DUP2 MSTORE PUSH1 0x4 ADD PUSH2 0x1983 SWAP1 PUSH2 0x2DBE JUMP JUMPDEST PUSH1 0x40 MLOAD DUP1 SWAP2 SUB SWAP1 REVERT JUMPDEST PUSH0 PUSH1 0x6 PUSH0 DUP6 DUP2 MSTORE PUSH1 0x20 ADD SWAP1 DUP2 MSTORE PUSH1 0x20 ADD PUSH0 KECCAK256 SWAP1 POP PUSH0 PUSH0 SWAP1 POP PUSH0 PUSH0 SWAP1 POP JUMPDEST DUP3 DUP1 SLOAD SWAP1 POP DUP2 LT ISZERO PUSH2 0x1AB5 JUMPI DUP5 DUP4 DUP3 DUP2 SLOAD DUP2 LT PUSH2 0x19C9 JUMPI PUSH2 0x19C8 PUSH2 0x2CD7 JUMP JUMPDEST JUMPDEST SWAP1 PUSH0 MSTORE PUSH1 0x20 PUSH0 KECCAK256 SWAP1 PUSH1 0x4 MUL ADD PUSH0 ADD SLOAD SUB PUSH2 0x1AA8 JUMPI DUP4 PUSH0 ADD MLOAD DUP4 DUP3 DUP2 SLOAD DUP2 LT PUSH2 0x19F4 JUMPI PUSH2 0x19F3 PUSH2 0x2CD7 JUMP JUMPDEST JUMPDEST SWAP1 PUSH0 MSTORE PUSH1 0x20 PUSH0 KECCAK256 SWAP1 PUSH1 0x4 MUL ADD PUSH1 0x1 ADD SWAP1 DUP2 PUSH2 0x1A0F SWAP2 SWAP1 PUSH2 0x3003 JUMP JUMPDEST POP DUP4 PUSH1 0x20 ADD MLOAD DUP4 DUP3 DUP2 SLOAD DUP2 LT PUSH2 0x1A28 JUMPI PUSH2 0x1A27 PUSH2 0x2CD7 JUMP JUMPDEST JUMPDEST SWAP1 PUSH0 MSTORE PUSH1 0x20 PUSH0 KECCAK256 SWAP1 PUSH1 0x4 MUL ADD PUSH1 0x2 ADD DUP2 SWAP1 SSTORE POP DUP4 PUSH1 0x40 ADD MLOAD DUP4 DUP3 DUP2 SLOAD DUP2 LT PUSH2 0x1A53 JUMPI PUSH2 0x1A52 PUSH2 0x2CD7 JUMP JUMPDEST JUMPDEST SWAP1 PUSH0 MSTORE PUSH1 0x20 PUSH0 KECCAK256 SWAP1 PUSH1 0x4 MUL ADD PUSH1 0x3 ADD DUP2 SWAP1 SSTORE POP PUSH1 0x1 SWAP2 POP PUSH32 0xE29E1E70959F0C301943D01C4BD294592A2105BC81E9B2523C4B1D7F7D1F393F DUP7 DUP7 PUSH1 0x40 MLOAD PUSH2 0x1A9B SWAP3 SWAP2 SWAP1 PUSH2 0x30FF JUMP JUMPDEST PUSH1 0x40 MLOAD DUP1 SWAP2 SUB SWAP1 LOG1 PUSH2 0x1AB5 JUMP JUMPDEST DUP1 DUP1 PUSH1 0x1 ADD SWAP2 POP POP PUSH2 0x19A9 JUMP JUMPDEST POP DUP1 PUSH2 0x1AF6 JUMPI PUSH1 0x40 MLOAD PUSH32 0x8C379A000000000000000000000000000000000000000000000000000000000 DUP2 MSTORE PUSH1 0x4 ADD PUSH2 0x1AED SWAP1 PUSH2 0x3170 JUMP JUMPDEST PUSH1 0x40 MLOAD DUP1 SWAP2 SUB SWAP1 REVERT JUMPDEST POP POP POP POP POP JUMP JUMPDEST PUSH0 PUSH1 0x5 PUSH0 DUP4 DUP2 MSTORE PUSH1 0x20 ADD SWAP1 DUP2 MSTORE PUSH1 0x20 ADD PUSH0 KECCAK256 PUSH0 ADD SLOAD SUB PUSH2 0x1B52 JUMPI PUSH1 0x40 MLOAD PUSH32 0x8C379A000000000000000000000000000000000000000000000000000000000 DUP2 MSTORE PUSH1 0x4 ADD PUSH2 0x1B49 SWAP1 PUSH2 0x2DBE JUMP JUMPDEST PUSH1 0x40 MLOAD DUP1 SWAP2 SUB SWAP1 REVERT JUMPDEST PUSH1 0x5 PUSH0 DUP3 DUP2 MSTORE PUSH1 0x20 ADD SWAP1 DUP2 MSTORE PUSH1 0x20 ADD PUSH0 KECCAK256 PUSH0 PUSH0 DUP3 ADD PUSH0 SWAP1 SSTORE PUSH1 0x1 DUP3 ADD PUSH0 PUSH2 0x1B79 SWAP2 SWAP1 PUSH2 0x1D1D JUMP JUMPDEST PUSH1 0x2 DUP3 ADD PUSH0 PUSH2 0x1B88 SWAP2 SWAP1 PUSH2 0x1D1D JUMP JUMPDEST PUSH1 0x3 DUP3 ADD PUSH0 SWAP1 SSTORE PUSH1 0x4 DUP3 ADD PUSH0 PUSH2 0x1B9E SWAP2 SWAP1 PUSH2 0x1DD1 JUMP JUMPDEST PUSH1 0x5 DUP3 ADD PUSH0 SWAP1 SSTORE PUSH1 0x6 DUP3 ADD PUSH0 SWAP1 SSTORE POP POP PUSH1 0x6 PUSH0 DUP3 DUP2 MSTORE PUSH1 0x20 ADD SWAP1 DUP2 MSTORE PUSH1 0x20 ADD PUSH0 KECCAK256 PUSH0 PUSH2 0x1BCA SWAP2 SWAP1 PUSH2 0x1DEF JUMP JUMPDEST PUSH0 PUSH0 SWAP1 POP JUMPDEST PUSH1 0x7 DUP1 SLOAD SWAP1 POP DUP2 LT ISZERO PUSH2 0x1C84 JUMPI DUP2 PUSH1 0x7 DUP3 DUP2 SLOAD DUP2 LT PUSH2 0x1BF1 JUMPI PUSH2 0x1BF0 PUSH2 0x2CD7 JUMP JUMPDEST JUMPDEST SWAP1 PUSH0 MSTORE PUSH1 0x20 PUSH0 KECCAK256 ADD SLOAD SUB PUSH2 0x1C77 JUMPI PUSH1 0x7 PUSH1 0x1 PUSH1 0x7 DUP1 SLOAD SWAP1 POP PUSH2 0x1C13 SWAP2 SWAP1 PUSH2 0x2E39 JUMP JUMPDEST DUP2 SLOAD DUP2 LT PUSH2 0x1C24 JUMPI PUSH2 0x1C23 PUSH2 0x2CD7 JUMP JUMPDEST JUMPDEST SWAP1 PUSH0 MSTORE PUSH1 0x20 PUSH0 KECCAK256 ADD SLOAD PUSH1 0x7 DUP3 DUP2 SLOAD DUP2 LT PUSH2 0x1C41 JUMPI PUSH2 0x1C40 PUSH2 0x2CD7 JUMP JUMPDEST JUMPDEST SWAP1 PUSH0 MSTORE PUSH1 0x20 PUSH0 KECCAK256 ADD DUP2 SWAP1 SSTORE POP PUSH1 0x7 DUP1 SLOAD DUP1 PUSH2 0x1C5F JUMPI PUSH2 0x1C5E PUSH2 0x30D2 JUMP JUMPDEST JUMPDEST PUSH1 0x1 SWAP1 SUB DUP2 DUP2 SWAP1 PUSH0 MSTORE PUSH1 0x20 PUSH0 KECCAK256 ADD PUSH0 SWAP1 SSTORE SWAP1 SSTORE PUSH2 0x1C84 JUMP JUMPDEST DUP1 DUP1 PUSH1 0x1 ADD SWAP2 POP POP PUSH2 0x1BCF JUMP JUMPDEST POP PUSH32 0x4D4E7C43D5805933523B1317FDD5ACB7517962D3E9F52834633B9F0149477295 DUP2 PUSH1 0x40 MLOAD PUSH2 0x1CB4 SWAP2 SWAP1 PUSH2 0x1FB0 JUMP JUMPDEST PUSH1 0x40 MLOAD DUP1 SWAP2 SUB SWAP1 LOG1 POP JUMP JUMPDEST PUSH1 0x2 PUSH0 SWAP1 SLOAD SWAP1 PUSH2 0x100 EXP SWAP1 DIV PUSH20 0xFFFFFFFFFFFFFFFFFFFFFFFFFFFFFFFFFFFFFFFF AND DUP2 JUMP JUMPDEST PUSH1 0x40 MLOAD DUP1 PUSH1 0xE0 ADD PUSH1 0x40 MSTORE DUP1 PUSH0 DUP2 MSTORE PUSH1 0x20 ADD PUSH1 0x60 DUP2 MSTORE PUSH1 0x20 ADD PUSH1 0x60 DUP2 MSTORE PUSH1 0x20 ADD PUSH0 DUP2 MSTORE PUSH1 0x20 ADD PUSH1 0x60 DUP2 MSTORE PUSH1 0x20 ADD PUSH0 DUP2 MSTORE PUSH1 0x20 ADD PUSH0 DUP2 MSTORE POP SWAP1 JUMP JUMPDEST POP DUP1 SLOAD PUSH2 0x1D29 SWAP1 PUSH2 0x2E09 JUMP JUMPDEST PUSH0 DUP3 SSTORE DUP1 PUSH1 0x1F LT PUSH2 0x1D3A JUMPI POP PUSH2 0x1D57 JUMP JUMPDEST PUSH1 0x1F ADD PUSH1 0x20 SWAP1 DIV SWAP1 PUSH0 MSTORE PUSH1 0x20 PUSH0 KECCAK256 SWAP1 DUP2 ADD SWAP1 PUSH2 0x1D56 SWAP2 SWAP1 PUSH2 0x1E10 JUMP JUMPDEST JUMPDEST POP JUMP JUMPDEST DUP3 DUP1 SLOAD DUP3 DUP3 SSTORE SWAP1 PUSH0 MSTORE PUSH1 0x20 PUSH0 KECCAK256 SWAP1 DUP2 ADD SWAP3 DUP3 ISZERO PUSH2 0x1DA0 JUMPI SWAP2 PUSH1 0x20 MUL DUP3 ADD JUMPDEST DUP3 DUP2 GT ISZERO PUSH2 0x1D9F JUMPI DUP3 MLOAD DUP3 SWAP1 DUP2 PUSH2 0x1D8F SWAP2 SWAP1 PUSH2 0x3003 JUMP JUMPDEST POP SWAP2 PUSH1 0x20 ADD SWAP2 SWAP1 PUSH1 0x1 ADD SWAP1 PUSH2 0x1D78 JUMP JUMPDEST JUMPDEST POP SWAP1 POP PUSH2 0x1DAD SWAP2 SWAP1 PUSH2 0x1E2B JUMP JUMPDEST POP SWAP1 JUMP JUMPDEST PUSH1 0x40 MLOAD DUP1 PUSH1 0x40 ADD PUSH1 0x40 MSTORE DUP1 PUSH2 0x1DC4 PUSH2 0x1CE4 JUMP JUMPDEST DUP2 MSTORE PUSH1 0x20 ADD PUSH1 0x60 DUP2 MSTORE POP SWAP1 JUMP JUMPDEST POP DUP1 SLOAD PUSH0 DUP3 SSTORE SWAP1 PUSH0 MSTORE PUSH1 0x20 PUSH0 KECCAK256 SWAP1 DUP2 ADD SWAP1 PUSH2 0x1DEC SWAP2 SWAP1 PUSH2 0x1E2B JUMP JUMPDEST POP JUMP JUMPDEST POP DUP1 SLOAD PUSH0 DUP3 SSTORE PUSH1 0x4 MUL SWAP1 PUSH0 MSTORE PUSH1 0x20 PUSH0 KECCAK256 SWAP1 DUP2 ADD SWAP1 PUSH2 0x1E0D SWAP2 SWAP1 PUSH2 0x1E4E JUMP JUMPDEST POP JUMP JUMPDEST JUMPDEST DUP1 DUP3 GT ISZERO PUSH2 0x1E27 JUMPI PUSH0 DUP2 PUSH0 SWAP1 SSTORE POP PUSH1 0x1 ADD PUSH2 0x1E11 JUMP JUMPDEST POP SWAP1 JUMP JUMPDEST JUMPDEST DUP1 DUP3 GT ISZERO PUSH2 0x1E4A JUMPI PUSH0 DUP2 DUP2 PUSH2 0x1E41 SWAP2 SWAP1 PUSH2 0x1D1D JUMP JUMPDEST POP PUSH1 0x1 ADD PUSH2 0x1E2C JUMP JUMPDEST POP SWAP1 JUMP JUMPDEST JUMPDEST DUP1 DUP3 GT ISZERO PUSH2 0x1E84 JUMPI PUSH0 PUSH0 DUP3 ADD PUSH0 SWAP1 SSTORE PUSH1 0x1 DUP3 ADD PUSH0 PUSH2 0x1E6D SWAP2 SWAP1 PUSH2 0x1D1D JUMP JUMPDEST PUSH1 0x2 DUP3 ADD PUSH0 SWAP1 SSTORE PUSH1 0x3 DUP3 ADD PUSH0 SWAP1 SSTORE POP PUSH1 0x4 ADD PUSH2 0x1E4F JUMP JUMPDEST POP SWAP1 JUMP JUMPDEST PUSH0 PUSH1 0x40 MLOAD SWAP1 POP SWAP1 JUMP JUMPDEST PUSH0 PUSH0 REVERT JUMPDEST PUSH0 PUSH0 REVERT JUMPDEST PUSH0 DUP2 SWAP1 POP SWAP2 SWAP1 POP JUMP JUMPDEST PUSH2 0x1EAB DUP2 PUSH2 0x1E99 JUMP JUMPDEST DUP2 EQ PUSH2 0x1EB5 JUMPI PUSH0 PUSH0 REVERT JUMPDEST POP JUMP JUMPDEST PUSH0 DUP2 CALLDATALOAD SWAP1 POP PUSH2 0x1EC6 DUP2 PUSH2 0x1EA2 JUMP JUMPDEST SWAP3 SWAP2 POP POP JUMP JUMPDEST PUSH0 PUSH0 PUSH0 PUSH1 0x60 DUP5 DUP7 SUB SLT ISZERO PUSH2 0x1EE3 JUMPI PUSH2 0x1EE2 PUSH2 0x1E91 JUMP JUMPDEST JUMPDEST PUSH0 PUSH2 0x1EF0 DUP7 DUP3 DUP8 ADD PUSH2 0x1EB8 JUMP JUMPDEST SWAP4 POP POP PUSH1 0x20 PUSH2 0x1F01 DUP7 DUP3 DUP8 ADD PUSH2 0x1EB8 JUMP JUMPDEST SWAP3 POP POP PUSH1 0x40 PUSH2 0x1F12 DUP7 DUP3 DUP8 ADD PUSH2 0x1EB8 JUMP JUMPDEST SWAP2 POP POP SWAP3 POP SWAP3 POP SWAP3 JUMP JUMPDEST PUSH0 PUSH20 0xFFFFFFFFFFFFFFFFFFFFFFFFFFFFFFFFFFFFFFFF DUP3 AND SWAP1 POP SWAP2 SWAP1 POP JUMP JUMPDEST PUSH0 PUSH2 0x1F45 DUP3 PUSH2 0x1F1C JUMP JUMPDEST SWAP1 POP SWAP2 SWAP1 POP JUMP JUMPDEST PUSH2 0x1F55 DUP2 PUSH2 0x1F3B JUMP JUMPDEST DUP2 EQ PUSH2 0x1F5F JUMPI PUSH0 PUSH0 REVERT JUMPDEST POP JUMP JUMPDEST PUSH0 DUP2 CALLDATALOAD SWAP1 POP PUSH2 0x1F70 DUP2 PUSH2 0x1F4C JUMP JUMPDEST SWAP3 SWAP2 POP POP JUMP JUMPDEST PUSH0 PUSH1 0x20 DUP3 DUP5 SUB SLT ISZERO PUSH2 0x1F8B JUMPI PUSH2 0x1F8A PUSH2 0x1E91 JUMP JUMPDEST JUMPDEST PUSH0 PUSH2 0x1F98 DUP5 DUP3 DUP6 ADD PUSH2 0x1F62 JUMP JUMPDEST SWAP2 POP POP SWAP3 SWAP2 POP POP JUMP JUMPDEST PUSH2 0x1FAA DUP2 PUSH2 0x1E99 JUMP JUMPDEST DUP3 MSTORE POP POP JUMP JUMPDEST PUSH0 PUSH1 0x20 DUP3 ADD SWAP1 POP PUSH2 0x1FC3 PUSH0 DUP4 ADD DUP5 PUSH2 0x1FA1 JUMP JUMPDEST SWAP3 SWAP2 POP POP JUMP JUMPDEST PUSH0 PUSH1 0x20 DUP3 DUP5 SUB SLT ISZERO PUSH2 0x1FDE JUMPI PUSH2 0x1FDD PUSH2 0x1E91 JUMP JUMPDEST JUMPDEST PUSH0 PUSH2 0x1FEB DUP5 DUP3 DUP6 ADD PUSH2 0x1EB8 JUMP JUMPDEST SWAP2 POP POP SWAP3 SWAP2 POP POP JUMP JUMPDEST PUSH2 0x1FFD DUP2 PUSH2 0x1E99 JUMP JUMPDEST DUP3 MSTORE POP POP JUMP JUMPDEST PUSH0 DUP2 MLOAD SWAP1 POP SWAP2 SWAP1 POP JUMP JUMPDEST PUSH0 DUP3 DUP3 MSTORE PUSH1 0x20 DUP3 ADD SWAP1 POP SWAP3 SWAP2 POP POP JUMP JUMPDEST DUP3 DUP2 DUP4 MCOPY PUSH0 DUP4 DUP4 ADD MSTORE POP POP POP JUMP JUMPDEST PUSH0 PUSH1 0x1F NOT PUSH1 0x1F DUP4 ADD AND SWAP1 POP SWAP2 SWAP1 POP JUMP JUMPDEST PUSH0 PUSH2 0x2045 DUP3 PUSH2 0x2003 JUMP JUMPDEST PUSH2 0x204F DUP2 DUP6 PUSH2 0x200D JUMP JUMPDEST SWAP4 POP PUSH2 0x205F DUP2 DUP6 PUSH1 0x20 DUP7 ADD PUSH2 0x201D JUMP JUMPDEST PUSH2 0x2068 DUP2 PUSH2 0x202B JUMP JUMPDEST DUP5 ADD SWAP2 POP POP SWAP3 SWAP2 POP POP JUMP JUMPDEST PUSH0 DUP2 MLOAD SWAP1 POP SWAP2 SWAP1 POP JUMP JUMPDEST PUSH0 DUP3 DUP3 MSTORE PUSH1 0x20 DUP3 ADD SWAP1 POP SWAP3 SWAP2 POP POP JUMP JUMPDEST PUSH0 DUP2 SWAP1 POP PUSH1 0x20 DUP3 ADD SWAP1 POP SWAP2 SWAP1 POP JUMP JUMPDEST PUSH0 PUSH2 0x20A7 DUP4 DUP4 PUSH2 0x203B JUMP JUMPDEST SWAP1 POP SWAP3 SWAP2 POP POP JUMP JUMPDEST PUSH0 PUSH1 0x20 DUP3 ADD SWAP1 POP SWAP2 SWAP1 POP JUMP JUMPDEST PUSH0 PUSH2 0x20C5 DUP3 PUSH2 0x2073 JUMP JUMPDEST PUSH2 0x20CF DUP2 DUP6 PUSH2 0x207D JUMP JUMPDEST SWAP4 POP DUP4 PUSH1 0x20 DUP3 MUL DUP6 ADD PUSH2 0x20E1 DUP6 PUSH2 0x208D JUMP JUMPDEST DUP1 PUSH0 JUMPDEST DUP6 DUP2 LT ISZERO PUSH2 0x211C JUMPI DUP5 DUP5 SUB DUP10 MSTORE DUP2 MLOAD PUSH2 0x20FD DUP6 DUP3 PUSH2 0x209C JUMP JUMPDEST SWAP5 POP PUSH2 0x2108 DUP4 PUSH2 0x20AF JUMP JUMPDEST SWAP3 POP PUSH1 0x20 DUP11 ADD SWAP10 POP POP PUSH1 0x1 DUP2 ADD SWAP1 POP PUSH2 0x20E4 JUMP JUMPDEST POP DUP3 SWAP8 POP DUP8 SWAP6 POP POP POP POP POP POP SWAP3 SWAP2 POP POP JUMP JUMPDEST PUSH0 PUSH1 0xE0 DUP4 ADD PUSH0 DUP4 ADD MLOAD PUSH2 0x2143 PUSH0 DUP7 ADD DUP3 PUSH2 0x1FF4 JUMP JUMPDEST POP PUSH1 0x20 DUP4 ADD MLOAD DUP5 DUP3 SUB PUSH1 0x20 DUP7 ADD MSTORE PUSH2 0x215B DUP3 DUP3 PUSH2 0x203B JUMP JUMPDEST SWAP2 POP POP PUSH1 0x40 DUP4 ADD MLOAD DUP5 DUP3 SUB PUSH1 0x40 DUP7 ADD MSTORE PUSH2 0x2175 DUP3 DUP3 PUSH2 0x203B JUMP JUMPDEST SWAP2 POP POP PUSH1 0x60 DUP4 ADD MLOAD PUSH2 0x218A PUSH1 0x60 DUP7 ADD DUP3 PUSH2 0x1FF4 JUMP JUMPDEST POP PUSH1 0x80 DUP4 ADD MLOAD DUP5 DUP3 SUB PUSH1 0x80 DUP7 ADD MSTORE PUSH2 0x21A2 DUP3 DUP3 PUSH2 0x20BB JUMP JUMPDEST SWAP2 POP POP PUSH1 0xA0 DUP4 ADD MLOAD PUSH2 0x21B7 PUSH1 0xA0 DUP7 ADD DUP3 PUSH2 0x1FF4 JUMP JUMPDEST POP PUSH1 0xC0 DUP4 ADD MLOAD PUSH2 0x21CA PUSH1 0xC0 DUP7 ADD DUP3 PUSH2 0x1FF4 JUMP JUMPDEST POP DUP1 SWAP2 POP POP SWAP3 SWAP2 POP POP JUMP JUMPDEST PUSH0 PUSH1 0x20 DUP3 ADD SWAP1 POP DUP2 DUP2 SUB PUSH0 DUP4 ADD MSTORE PUSH2 0x21ED DUP2 DUP5 PUSH2 0x212E JUMP JUMPDEST SWAP1 POP SWAP3 SWAP2 POP POP JUMP JUMPDEST PUSH32 0x4E487B7100000000000000000000000000000000000000000000000000000000 PUSH0 MSTORE PUSH1 0x21 PUSH1 0x4 MSTORE PUSH1 0x24 PUSH0 REVERT JUMPDEST PUSH1 0x3 DUP2 LT PUSH2 0x2233 JUMPI PUSH2 0x2232 PUSH2 0x21F5 JUMP JUMPDEST JUMPDEST POP JUMP JUMPDEST PUSH0 DUP2 SWAP1 POP PUSH2 0x2243 DUP3 PUSH2 0x2222 JUMP JUMPDEST SWAP2 SWAP1 POP JUMP JUMPDEST PUSH0 PUSH2 0x2252 DUP3 PUSH2 0x2236 JUMP JUMPDEST SWAP1 POP SWAP2 SWAP1 POP JUMP JUMPDEST PUSH2 0x2262 DUP2 PUSH2 0x2248 JUMP JUMPDEST DUP3 MSTORE POP POP JUMP JUMPDEST PUSH0 PUSH1 0x20 DUP3 ADD SWAP1 POP PUSH2 0x227B PUSH0 DUP4 ADD DUP5 PUSH2 0x2259 JUMP JUMPDEST SWAP3 SWAP2 POP POP JUMP JUMPDEST PUSH0 PUSH0 PUSH1 0x40 DUP4 DUP6 SUB SLT ISZERO PUSH2 0x2297 JUMPI PUSH2 0x2296 PUSH2 0x1E91 JUMP JUMPDEST JUMPDEST PUSH0 PUSH2 0x22A4 DUP6 DUP3 DUP7 ADD PUSH2 0x1EB8 JUMP JUMPDEST SWAP3 POP POP PUSH1 0x20 PUSH2 0x22B5 DUP6 DUP3 DUP7 ADD PUSH2 0x1EB8 JUMP JUMPDEST SWAP2 POP POP SWAP3 POP SWAP3 SWAP1 POP JUMP JUMPDEST PUSH0 PUSH0 REVERT JUMPDEST PUSH32 0x4E487B7100000000000000000000000000000000000000000000000000000000 PUSH0 MSTORE PUSH1 0x41 PUSH1 0x4 MSTORE PUSH1 0x24 PUSH0 REVERT JUMPDEST PUSH2 0x22F9 DUP3 PUSH2 0x202B JUMP JUMPDEST DUP2 ADD DUP2 DUP2 LT PUSH8 0xFFFFFFFFFFFFFFFF DUP3 GT OR ISZERO PUSH2 0x2318 JUMPI PUSH2 0x2317 PUSH2 0x22C3 JUMP JUMPDEST JUMPDEST DUP1 PUSH1 0x40 MSTORE POP POP POP JUMP JUMPDEST PUSH0 PUSH2 0x232A PUSH2 0x1E88 JUMP JUMPDEST SWAP1 POP PUSH2 0x2336 DUP3 DUP3 PUSH2 0x22F0 JUMP JUMPDEST SWAP2 SWAP1 POP JUMP JUMPDEST PUSH0 PUSH8 0xFFFFFFFFFFFFFFFF DUP3 GT ISZERO PUSH2 0x2355 JUMPI PUSH2 0x2354 PUSH2 0x22C3 JUMP JUMPDEST JUMPDEST PUSH1 0x20 DUP3 MUL SWAP1 POP PUSH1 0x20 DUP2 ADD SWAP1 POP SWAP2 SWAP1 POP JUMP JUMPDEST PUSH0 PUSH0 REVERT JUMPDEST PUSH0 PUSH0 REVERT JUMPDEST PUSH0 PUSH0 REVERT JUMPDEST PUSH0 PUSH0 REVERT JUMPDEST PUSH0 PUSH8 0xFFFFFFFFFFFFFFFF DUP3 GT ISZERO PUSH2 0x2390 JUMPI PUSH2 0x238F PUSH2 0x22C3 JUMP JUMPDEST JUMPDEST PUSH2 0x2399 DUP3 PUSH2 0x202B JUMP JUMPDEST SWAP1 POP PUSH1 0x20 DUP2 ADD SWAP1 POP SWAP2 SWAP1 POP JUMP JUMPDEST DUP3 DUP2 DUP4 CALLDATACOPY PUSH0 DUP4 DUP4 ADD MSTORE POP POP POP JUMP JUMPDEST PUSH0 PUSH2 0x23C6 PUSH2 0x23C1 DUP5 PUSH2 0x2376 JUMP JUMPDEST PUSH2 0x2321 JUMP JUMPDEST SWAP1 POP DUP3 DUP2 MSTORE PUSH1 0x20 DUP2 ADD DUP5 DUP5 DUP5 ADD GT ISZERO PUSH2 0x23E2 JUMPI PUSH2 0x23E1 PUSH2 0x2372 JUMP JUMPDEST JUMPDEST PUSH2 0x23ED DUP5 DUP3 DUP6 PUSH2 0x23A6 JUMP JUMPDEST POP SWAP4 SWAP3 POP POP POP JUMP JUMPDEST PUSH0 DUP3 PUSH1 0x1F DUP4 ADD SLT PUSH2 0x2409 JUMPI PUSH2 0x2408 PUSH2 0x22BF JUMP JUMPDEST JUMPDEST DUP2 CALLDATALOAD PUSH2 0x2419 DUP5 DUP3 PUSH1 0x20 DUP7 ADD PUSH2 0x23B4 JUMP JUMPDEST SWAP2 POP POP SWAP3 SWAP2 POP POP JUMP JUMPDEST PUSH0 PUSH1 0x60 DUP3 DUP5 SUB SLT ISZERO PUSH2 0x2437 JUMPI PUSH2 0x2436 PUSH2 0x236A JUMP JUMPDEST JUMPDEST PUSH2 0x2441 PUSH1 0x60 PUSH2 0x2321 JUMP JUMPDEST SWAP1 POP PUSH0 DUP3 ADD CALLDATALOAD PUSH8 0xFFFFFFFFFFFFFFFF DUP2 GT ISZERO PUSH2 0x2460 JUMPI PUSH2 0x245F PUSH2 0x236E JUMP JUMPDEST JUMPDEST PUSH2 0x246C DUP5 DUP3 DUP6 ADD PUSH2 0x23F5 JUMP JUMPDEST PUSH0 DUP4 ADD MSTORE POP PUSH1 0x20 PUSH2 0x247F DUP5 DUP3 DUP6 ADD PUSH2 0x1EB8 JUMP JUMPDEST PUSH1 0x20 DUP4 ADD MSTORE POP PUSH1 0x40 PUSH2 0x2493 DUP5 DUP3 DUP6 ADD PUSH2 0x1EB8 JUMP JUMPDEST PUSH1 0x40 DUP4 ADD MSTORE POP SWAP3 SWAP2 POP POP JUMP JUMPDEST PUSH0 PUSH2 0x24B1 PUSH2 0x24AC DUP5 PUSH2 0x233B JUMP JUMPDEST PUSH2 0x2321 JUMP JUMPDEST SWAP1 POP DUP1 DUP4 DUP3 MSTORE PUSH1 0x20 DUP3 ADD SWAP1 POP PUSH1 0x20 DUP5 MUL DUP4 ADD DUP6 DUP2 GT ISZERO PUSH2 0x24D4 JUMPI PUSH2 0x24D3 PUSH2 0x2366 JUMP JUMPDEST JUMPDEST DUP4 JUMPDEST DUP2 DUP2 LT ISZERO PUSH2 0x251B JUMPI DUP1 CALLDATALOAD PUSH8 0xFFFFFFFFFFFFFFFF DUP2 GT ISZERO PUSH2 0x24F9 JUMPI PUSH2 0x24F8 PUSH2 0x22BF JUMP JUMPDEST JUMPDEST DUP1 DUP7 ADD PUSH2 0x2506 DUP10 DUP3 PUSH2 0x2422 JUMP JUMPDEST DUP6 MSTORE PUSH1 0x20 DUP6 ADD SWAP5 POP POP POP PUSH1 0x20 DUP2 ADD SWAP1 POP PUSH2 0x24D6 JUMP JUMPDEST POP POP POP SWAP4 SWAP3 POP POP POP JUMP JUMPDEST PUSH0 DUP3 PUSH1 0x1F DUP4 ADD SLT PUSH2 0x2539 JUMPI PUSH2 0x2538 PUSH2 0x22BF JUMP JUMPDEST JUMPDEST DUP2 CALLDATALOAD PUSH2 0x2549 DUP5 DUP3 PUSH1 0x20 DUP7 ADD PUSH2 0x249F JUMP JUMPDEST SWAP2 POP POP SWAP3 SWAP2 POP POP JUMP JUMPDEST PUSH0 PUSH0 PUSH1 0x40 DUP4 DUP6 SUB SLT ISZERO PUSH2 0x2568 JUMPI PUSH2 0x2567 PUSH2 0x1E91 JUMP JUMPDEST JUMPDEST PUSH0 PUSH2 0x2575 DUP6 DUP3 DUP7 ADD PUSH2 0x1EB8 JUMP JUMPDEST SWAP3 POP POP PUSH1 0x20 DUP4 ADD CALLDATALOAD PUSH8 0xFFFFFFFFFFFFFFFF DUP2 GT ISZERO PUSH2 0x2596 JUMPI PUSH2 0x2595 PUSH2 0x1E95 JUMP JUMPDEST JUMPDEST PUSH2 0x25A2 DUP6 DUP3 DUP7 ADD PUSH2 0x2525 JUMP JUMPDEST SWAP2 POP POP SWAP3 POP SWAP3 SWAP1 POP JUMP JUMPDEST PUSH0 PUSH8 0xFFFFFFFFFFFFFFFF DUP3 GT ISZERO PUSH2 0x25C6 JUMPI PUSH2 0x25C5 PUSH2 0x22C3 JUMP JUMPDEST JUMPDEST PUSH1 0x20 DUP3 MUL SWAP1 POP PUSH1 0x20 DUP2 ADD SWAP1 POP SWAP2 SWAP1 POP JUMP JUMPDEST PUSH0 PUSH2 0x25E9 PUSH2 0x25E4 DUP5 PUSH2 0x25AC JUMP JUMPDEST PUSH2 0x2321 JUMP JUMPDEST SWAP1 POP DUP1 DUP4 DUP3 MSTORE PUSH1 0x20 DUP3 ADD SWAP1 POP PUSH1 0x20 DUP5 MUL DUP4 ADD DUP6 DUP2 GT ISZERO PUSH2 0x260C JUMPI PUSH2 0x260B PUSH2 0x2366 JUMP JUMPDEST JUMPDEST DUP4 JUMPDEST DUP2 DUP2 LT ISZERO PUSH2 0x2653 JUMPI DUP1 CALLDATALOAD PUSH8 0xFFFFFFFFFFFFFFFF DUP2 GT ISZERO PUSH2 0x2631 JUMPI PUSH2 0x2630 PUSH2 0x22BF JUMP JUMPDEST JUMPDEST DUP1 DUP7 ADD PUSH2 0x263E DUP10 DUP3 PUSH2 0x23F5 JUMP JUMPDEST DUP6 MSTORE PUSH1 0x20 DUP6 ADD SWAP5 POP POP POP PUSH1 0x20 DUP2 ADD SWAP1 POP PUSH2 0x260E JUMP JUMPDEST POP POP POP SWAP4 SWAP3 POP POP POP JUMP JUMPDEST PUSH0 DUP3 PUSH1 0x1F DUP4 ADD SLT PUSH2 0x2671 JUMPI PUSH2 0x2670 PUSH2 0x22BF JUMP JUMPDEST JUMPDEST DUP2 CALLDATALOAD PUSH2 0x2681 DUP5 DUP3 PUSH1 0x20 DUP7 ADD PUSH2 0x25D7 JUMP JUMPDEST SWAP2 POP POP SWAP3 SWAP2 POP POP JUMP JUMPDEST PUSH0 PUSH0 PUSH0 PUSH0 PUSH0 PUSH1 0xA0 DUP7 DUP9 SUB SLT ISZERO PUSH2 0x26A3 JUMPI PUSH2 0x26A2 PUSH2 0x1E91 JUMP JUMPDEST JUMPDEST PUSH0 PUSH2 0x26B0 DUP9 DUP3 DUP10 ADD PUSH2 0x1EB8 JUMP JUMPDEST SWAP6 POP POP PUSH1 0x20 DUP7 ADD CALLDATALOAD PUSH8 0xFFFFFFFFFFFFFFFF DUP2 GT ISZERO PUSH2 0x26D1 JUMPI PUSH2 0x26D0 PUSH2 0x1E95 JUMP JUMPDEST JUMPDEST PUSH2 0x26DD DUP9 DUP3 DUP10 ADD PUSH2 0x23F5 JUMP JUMPDEST SWAP5 POP POP PUSH1 0x40 DUP7 ADD CALLDATALOAD PUSH8 0xFFFFFFFFFFFFFFFF DUP2 GT ISZERO PUSH2 0x26FE JUMPI PUSH2 0x26FD PUSH2 0x1E95 JUMP JUMPDEST JUMPDEST PUSH2 0x270A DUP9 DUP3 DUP10 ADD PUSH2 0x23F5 JUMP JUMPDEST SWAP4 POP POP PUSH1 0x60 PUSH2 0x271B DUP9 DUP3 DUP10 ADD PUSH2 0x1EB8 JUMP JUMPDEST SWAP3 POP POP PUSH1 0x80 DUP7 ADD CALLDATALOAD PUSH8 0xFFFFFFFFFFFFFFFF DUP2 GT ISZERO PUSH2 0x273C JUMPI PUSH2 0x273B PUSH2 0x1E95 JUMP JUMPDEST JUMPDEST PUSH2 0x2748 DUP9 DUP3 DUP10 ADD PUSH2 0x265D JUMP JUMPDEST SWAP2 POP POP SWAP3 SWAP6 POP SWAP3 SWAP6 SWAP1 SWAP4 POP JUMP JUMPDEST PUSH2 0x275E DUP2 PUSH2 0x1F3B JUMP JUMPDEST DUP3 MSTORE POP POP JUMP JUMPDEST PUSH0 PUSH1 0x20 DUP3 ADD SWAP1 POP PUSH2 0x2777 PUSH0 DUP4 ADD DUP5 PUSH2 0x2755 JUMP JUMPDEST SWAP3 SWAP2 POP POP JUMP JUMPDEST PUSH0 DUP2 MLOAD SWAP1 POP SWAP2 SWAP1 POP JUMP JUMPDEST PUSH0 DUP3 DUP3 MSTORE PUSH1 0x20 DUP3 ADD SWAP1 POP SWAP3 SWAP2 POP POP JUMP JUMPDEST PUSH0 DUP2 SWAP1 POP PUSH1 0x20 DUP3 ADD SWAP1 POP SWAP2 SWAP1 POP JUMP JUMPDEST PUSH0 PUSH1 0x80 DUP4 ADD PUSH0 DUP4 ADD MLOAD PUSH2 0x27BB PUSH0 DUP7 ADD DUP3 PUSH2 0x1FF4 JUMP JUMPDEST POP PUSH1 0x20 DUP4 ADD MLOAD DUP5 DUP3 SUB PUSH1 0x20 DUP7 ADD MSTORE PUSH2 0x27D3 DUP3 DUP3 PUSH2 0x203B JUMP JUMPDEST SWAP2 POP POP PUSH1 0x40 DUP4 ADD MLOAD PUSH2 0x27E8 PUSH1 0x40 DUP7 ADD DUP3 PUSH2 0x1FF4 JUMP JUMPDEST POP PUSH1 0x60 DUP4 ADD MLOAD PUSH2 0x27FB PUSH1 0x60 DUP7 ADD DUP3 PUSH2 0x1FF4 JUMP JUMPDEST POP DUP1 SWAP2 POP POP SWAP3 SWAP2 POP POP JUMP JUMPDEST PUSH0 PUSH2 0x2811 DUP4 DUP4 PUSH2 0x27A6 JUMP JUMPDEST SWAP1 POP SWAP3 SWAP2 POP POP JUMP JUMPDEST PUSH0 PUSH1 0x20 DUP3 ADD SWAP1 POP SWAP2 SWAP1 POP JUMP JUMPDEST PUSH0 PUSH2 0x282F DUP3 PUSH2 0x277D JUMP JUMPDEST PUSH2 0x2839 DUP2 DUP6 PUSH2 0x2787 JUMP JUMPDEST SWAP4 POP DUP4 PUSH1 0x20 DUP3 MUL DUP6 ADD PUSH2 0x284B DUP6 PUSH2 0x2797 JUMP JUMPDEST DUP1 PUSH0 JUMPDEST DUP6 DUP2 LT ISZERO PUSH2 0x2886 JUMPI DUP5 DUP5 SUB DUP10 MSTORE DUP2 MLOAD PUSH2 0x2867 DUP6 DUP3 PUSH2 0x2806 JUMP JUMPDEST SWAP5 POP PUSH2 0x2872 DUP4 PUSH2 0x2819 JUMP JUMPDEST SWAP3 POP PUSH1 0x20 DUP11 ADD SWAP10 POP POP PUSH1 0x1 DUP2 ADD SWAP1 POP PUSH2 0x284E JUMP JUMPDEST POP DUP3 SWAP8 POP DUP8 SWAP6 POP POP POP POP POP POP SWAP3 SWAP2 POP POP JUMP JUMPDEST PUSH0 PUSH1 0x20 DUP3 ADD SWAP1 POP DUP2 DUP2 SUB PUSH0 DUP4 ADD MSTORE PUSH2 0x28B0 DUP2 DUP5 PUSH2 0x2825 JUMP JUMPDEST SWAP1 POP SWAP3 SWAP2 POP POP JUMP JUMPDEST PUSH0 PUSH0 PUSH0 PUSH0 PUSH0 PUSH0 PUSH1 0xC0 DUP8 DUP10 SUB SLT ISZERO PUSH2 0x28D2 JUMPI PUSH2 0x28D1 PUSH2 0x1E91 JUMP JUMPDEST JUMPDEST PUSH0 PUSH2 0x28DF DUP10 DUP3 DUP11 ADD PUSH2 0x1EB8 JUMP JUMPDEST SWAP7 POP POP PUSH1 0x20 DUP8 ADD CALLDATALOAD PUSH8 0xFFFFFFFFFFFFFFFF DUP2 GT ISZERO PUSH2 0x2900 JUMPI PUSH2 0x28FF PUSH2 0x1E95 JUMP JUMPDEST JUMPDEST PUSH2 0x290C DUP10 DUP3 DUP11 ADD PUSH2 0x23F5 JUMP JUMPDEST SWAP6 POP POP PUSH1 0x40 DUP8 ADD CALLDATALOAD PUSH8 0xFFFFFFFFFFFFFFFF DUP2 GT ISZERO PUSH2 0x292D JUMPI PUSH2 0x292C PUSH2 0x1E95 JUMP JUMPDEST JUMPDEST PUSH2 0x2939 DUP10 DUP3 DUP11 ADD PUSH2 0x23F5 JUMP JUMPDEST SWAP5 POP POP PUSH1 0x60 PUSH2 0x294A DUP10 DUP3 DUP11 ADD PUSH2 0x1EB8 JUMP JUMPDEST SWAP4 POP POP PUSH1 0x80 DUP8 ADD CALLDATALOAD PUSH8 0xFFFFFFFFFFFFFFFF DUP2 GT ISZERO PUSH2 0x296B JUMPI PUSH2 0x296A PUSH2 0x1E95 JUMP JUMPDEST JUMPDEST PUSH2 0x2977 DUP10 DUP3 DUP11 ADD PUSH2 0x265D JUMP JUMPDEST SWAP3 POP POP PUSH1 0xA0 DUP8 ADD CALLDATALOAD PUSH8 0xFFFFFFFFFFFFFFFF DUP2 GT ISZERO PUSH2 0x2998 JUMPI PUSH2 0x2997 PUSH2 0x1E95 JUMP JUMPDEST JUMPDEST PUSH2 0x29A4 DUP10 DUP3 DUP11 ADD PUSH2 0x2525 JUMP JUMPDEST SWAP2 POP POP SWAP3 SWAP6 POP SWAP3 SWAP6 POP SWAP3 SWAP6 JUMP JUMPDEST PUSH0 DUP2 MLOAD SWAP1 POP SWAP2 SWAP1 POP JUMP JUMPDEST PUSH0 DUP3 DUP3 MSTORE PUSH1 0x20 DUP3 ADD SWAP1 POP SWAP3 SWAP2 POP POP JUMP JUMPDEST PUSH0 DUP2 SWAP1 POP PUSH1 0x20 DUP3 ADD SWAP1 POP SWAP2 SWAP1 POP JUMP JUMPDEST PUSH0 PUSH1 0xE0 DUP4 ADD PUSH0 DUP4 ADD MLOAD PUSH2 0x29EF PUSH0 DUP7 ADD DUP3 PUSH2 0x1FF4 JUMP JUMPDEST POP PUSH1 0x20 DUP4 ADD MLOAD DUP5 DUP3 SUB PUSH1 0x20 DUP7 ADD MSTORE PUSH2 0x2A07 DUP3 DUP3 PUSH2 0x203B JUMP JUMPDEST SWAP2 POP POP PUSH1 0x40 DUP4 ADD MLOAD DUP5 DUP3 SUB PUSH1 0x40 DUP7 ADD MSTORE PUSH2 0x2A21 DUP3 DUP3 PUSH2 0x203B JUMP JUMPDEST SWAP2 POP POP PUSH1 0x60 DUP4 ADD MLOAD PUSH2 0x2A36 PUSH1 0x60 DUP7 ADD DUP3 PUSH2 0x1FF4 JUMP JUMPDEST POP PUSH1 0x80 DUP4 ADD MLOAD DUP5 DUP3 SUB PUSH1 0x80 DUP7 ADD MSTORE PUSH2 0x2A4E DUP3 DUP3 PUSH2 0x20BB JUMP JUMPDEST SWAP2 POP POP PUSH1 0xA0 DUP4 ADD MLOAD PUSH2 0x2A63 PUSH1 0xA0 DUP7 ADD DUP3 PUSH2 0x1FF4 JUMP JUMPDEST POP PUSH1 0xC0 DUP4 ADD MLOAD PUSH2 0x2A76 PUSH1 0xC0 DUP7 ADD DUP3 PUSH2 0x1FF4 JUMP JUMPDEST POP DUP1 SWAP2 POP POP SWAP3 SWAP2 POP POP JUMP JUMPDEST PUSH0 DUP3 DUP3 MSTORE PUSH1 0x20 DUP3 ADD SWAP1 POP SWAP3 SWAP2 POP POP JUMP JUMPDEST PUSH0 PUSH2 0x2A9B DUP3 PUSH2 0x277D JUMP JUMPDEST PUSH2 0x2AA5 DUP2 DUP6 PUSH2 0x2A81 JUMP JUMPDEST SWAP4 POP DUP4 PUSH1 0x20 DUP3 MUL DUP6 ADD PUSH2 0x2AB7 DUP6 PUSH2 0x2797 JUMP JUMPDEST DUP1 PUSH0 JUMPDEST DUP6 DUP2 LT ISZERO PUSH2 0x2AF2 JUMPI DUP5 DUP5 SUB DUP10 MSTORE DUP2 MLOAD PUSH2 0x2AD3 DUP6 DUP3 PUSH2 0x2806 JUMP JUMPDEST SWAP5 POP PUSH2 0x2ADE DUP4 PUSH2 0x2819 JUMP JUMPDEST SWAP3 POP PUSH1 0x20 DUP11 ADD SWAP10 POP POP PUSH1 0x1 DUP2 ADD SWAP1 POP PUSH2 0x2ABA JUMP JUMPDEST POP DUP3 SWAP8 POP DUP8 SWAP6 POP POP POP POP POP POP SWAP3 SWAP2 POP POP JUMP JUMPDEST PUSH0 PUSH1 0x40 DUP4 ADD PUSH0 DUP4 ADD MLOAD DUP5 DUP3 SUB PUSH0 DUP7 ADD MSTORE PUSH2 0x2B1E DUP3 DUP3 PUSH2 0x29DA JUMP JUMPDEST SWAP2 POP POP PUSH1 0x20 DUP4 ADD MLOAD DUP5 DUP3 SUB PUSH1 0x20 DUP7 ADD MSTORE PUSH2 0x2B38 DUP3 DUP3 PUSH2 0x2A91 JUMP JUMPDEST SWAP2 POP POP DUP1 SWAP2 POP POP SWAP3 SWAP2 POP POP JUMP JUMPDEST PUSH0 PUSH2 0x2B50 DUP4 DUP4 PUSH2 0x2B04 JUMP JUMPDEST SWAP1 POP SWAP3 SWAP2 POP POP JUMP JUMPDEST PUSH0 PUSH1 0x20 DUP3 ADD SWAP1 POP SWAP2 SWAP1 POP JUMP JUMPDEST PUSH0 PUSH2 0x2B6E DUP3 PUSH2 0x29B1 JUMP JUMPDEST PUSH2 0x2B78 DUP2 DUP6 PUSH2 0x29BB JUMP JUMPDEST SWAP4 POP DUP4 PUSH1 0x20 DUP3 MUL DUP6 ADD PUSH2 0x2B8A DUP6 PUSH2 0x29CB JUMP JUMPDEST DUP1 PUSH0 JUMPDEST DUP6 DUP2 LT ISZERO PUSH2 0x2BC5 JUMPI DUP5 DUP5 SUB DUP10 MSTORE DUP2 MLOAD PUSH2 0x2BA6 DUP6 DUP3 PUSH2 0x2B45 JUMP JUMPDEST SWAP5 POP PUSH2 0x2BB1 DUP4 PUSH2 0x2B58 JUMP JUMPDEST SWAP3 POP PUSH1 0x20 DUP11 ADD SWAP10 POP POP PUSH1 0x1 DUP2 ADD SWAP1 POP PUSH2 0x2B8D JUMP JUMPDEST POP DUP3 SWAP8 POP DUP8 SWAP6 POP POP POP POP POP POP SWAP3 SWAP2 POP POP JUMP JUMPDEST PUSH0 PUSH1 0x20 DUP3 ADD SWAP1 POP DUP2 DUP2 SUB PUSH0 DUP4 ADD MSTORE PUSH2 0x2BEF DUP2 DUP5 PUSH2 0x2B64 JUMP JUMPDEST SWAP1 POP SWAP3 SWAP2 POP POP JUMP JUMPDEST PUSH0 PUSH0 PUSH0 PUSH1 0x60 DUP5 DUP7 SUB SLT ISZERO PUSH2 0x2C0E JUMPI PUSH2 0x2C0D PUSH2 0x1E91 JUMP JUMPDEST JUMPDEST PUSH0 PUSH2 0x2C1B DUP7 DUP3 DUP8 ADD PUSH2 0x1EB8 JUMP JUMPDEST SWAP4 POP POP PUSH1 0x20 PUSH2 0x2C2C DUP7 DUP3 DUP8 ADD PUSH2 0x1EB8 JUMP JUMPDEST SWAP3 POP POP PUSH1 0x40 DUP5 ADD CALLDATALOAD PUSH8 0xFFFFFFFFFFFFFFFF DUP2 GT ISZERO PUSH2 0x2C4D JUMPI PUSH2 0x2C4C PUSH2 0x1E95 JUMP JUMPDEST JUMPDEST PUSH2 0x2C59 DUP7 DUP3 DUP8 ADD PUSH2 0x2422 JUMP JUMPDEST SWAP2 POP POP SWAP3 POP SWAP3 POP SWAP3 JUMP JUMPDEST PUSH0 DUP2 SWAP1 POP SWAP2 SWAP1 POP JUMP JUMPDEST PUSH0 PUSH2 0x2C86 PUSH2 0x2C81 PUSH2 0x2C7C DUP5 PUSH2 0x1F1C JUMP JUMPDEST PUSH2 0x2C63 JUMP JUMPDEST PUSH2 0x1F1C JUMP JUMPDEST SWAP1 POP SWAP2 SWAP1 POP JUMP JUMPDEST PUSH0 PUSH2 0x2C97 DUP3 PUSH2 0x2C6C JUMP JUMPDEST SWAP1 POP SWAP2 SWAP1 POP JUMP JUMPDEST PUSH0 PUSH2 0x2CA8 DUP3 PUSH2 0x2C8D JUMP JUMPDEST SWAP1 POP SWAP2 SWAP1 POP JUMP JUMPDEST PUSH2 0x2CB8 DUP2 PUSH2 0x2C9E JUMP JUMPDEST DUP3 MSTORE POP POP JUMP JUMPDEST PUSH0 PUSH1 0x20 DUP3 ADD SWAP1 POP PUSH2 0x2CD1 PUSH0 DUP4 ADD DUP5 PUSH2 0x2CAF JUMP JUMPDEST SWAP3 SWAP2 POP POP JUMP JUMPDEST PUSH32 0x4E487B7100000000000000000000000000000000000000000000000000000000 PUSH0 MSTORE PUSH1 0x32 PUSH1 0x4 MSTORE PUSH1 0x24 PUSH0 REVERT JUMPDEST PUSH32 0x4E487B7100000000000000000000000000000000000000000000000000000000 PUSH0 MSTORE PUSH1 0x11 PUSH1 0x4 MSTORE PUSH1 0x24 PUSH0 REVERT JUMPDEST PUSH0 PUSH2 0x2D3B DUP3 PUSH2 0x1E99 JUMP JUMPDEST SWAP2 POP PUSH2 0x2D46 DUP4 PUSH2 0x1E99 JUMP JUMPDEST SWAP3 POP DUP3 DUP3 ADD SWAP1 POP DUP1 DUP3 GT ISZERO PUSH2 0x2D5E JUMPI PUSH2 0x2D5D PUSH2 0x2D04 JUMP JUMPDEST JUMPDEST SWAP3 SWAP2 POP POP JUMP JUMPDEST PUSH0 DUP3 DUP3 MSTORE PUSH1 0x20 DUP3 ADD SWAP1 POP SWAP3 SWAP2 POP POP JUMP JUMPDEST PUSH32 0x466F6F6420646F6573206E6F7420657869737400000000000000000000000000 PUSH0 DUP3 ADD MSTORE POP JUMP JUMPDEST PUSH0 PUSH2 0x2DA8 PUSH1 0x13 DUP4 PUSH2 0x2D64 JUMP JUMPDEST SWAP2 POP PUSH2 0x2DB3 DUP3 PUSH2 0x2D74 JUMP JUMPDEST PUSH1 0x20 DUP3 ADD SWAP1 POP SWAP2 SWAP1 POP JUMP JUMPDEST PUSH0 PUSH1 0x20 DUP3 ADD SWAP1 POP DUP2 DUP2 SUB PUSH0 DUP4 ADD MSTORE PUSH2 0x2DD5 DUP2 PUSH2 0x2D9C JUMP JUMPDEST SWAP1 POP SWAP2 SWAP1 POP JUMP JUMPDEST PUSH32 0x4E487B7100000000000000000000000000000000000000000000000000000000 PUSH0 MSTORE PUSH1 0x22 PUSH1 0x4 MSTORE PUSH1 0x24 PUSH0 REVERT JUMPDEST PUSH0 PUSH1 0x2 DUP3 DIV SWAP1 POP PUSH1 0x1 DUP3 AND DUP1 PUSH2 0x2E20 JUMPI PUSH1 0x7F DUP3 AND SWAP2 POP JUMPDEST PUSH1 0x20 DUP3 LT DUP2 SUB PUSH2 0x2E33 JUMPI PUSH2 0x2E32 PUSH2 0x2DDC JUMP JUMPDEST JUMPDEST POP SWAP2 SWAP1 POP JUMP JUMPDEST PUSH0 PUSH2 0x2E43 DUP3 PUSH2 0x1E99 JUMP JUMPDEST SWAP2 POP PUSH2 0x2E4E DUP4 PUSH2 0x1E99 JUMP JUMPDEST SWAP3 POP DUP3 DUP3 SUB SWAP1 POP DUP2 DUP2 GT ISZERO PUSH2 0x2E66 JUMPI PUSH2 0x2E65 PUSH2 0x2D04 JUMP JUMPDEST JUMPDEST SWAP3 SWAP2 POP POP JUMP JUMPDEST PUSH0 DUP2 SWAP1 POP DUP2 PUSH0 MSTORE PUSH1 0x20 PUSH0 KECCAK256 SWAP1 POP SWAP2 SWAP1 POP JUMP JUMPDEST PUSH0 PUSH1 0x20 PUSH1 0x1F DUP4 ADD DIV SWAP1 POP SWAP2 SWAP1 POP JUMP JUMPDEST PUSH0 DUP3 DUP3 SHL SWAP1 POP SWAP3 SWAP2 POP POP JUMP JUMPDEST PUSH0 PUSH1 0x8 DUP4 MUL PUSH2 0x2EC8 PUSH32 0xFFFFFFFFFFFFFFFFFFFFFFFFFFFFFFFFFFFFFFFFFFFFFFFFFFFFFFFFFFFFFFFF DUP3 PUSH2 0x2E8D JUMP JUMPDEST PUSH2 0x2ED2 DUP7 DUP4 PUSH2 0x2E8D JUMP JUMPDEST SWAP6 POP DUP1 NOT DUP5 AND SWAP4 POP DUP1 DUP7 AND DUP5 OR SWAP3 POP POP POP SWAP4 SWAP3 POP POP POP JUMP JUMPDEST PUSH0 PUSH2 0x2F04 PUSH2 0x2EFF PUSH2 0x2EFA DUP5 PUSH2 0x1E99 JUMP JUMPDEST PUSH2 0x2C63 JUMP JUMPDEST PUSH2 0x1E99 JUMP JUMPDEST SWAP1 POP SWAP2 SWAP1 POP JUMP JUMPDEST PUSH0 DUP2 SWAP1 POP SWAP2 SWAP1 POP JUMP JUMPDEST PUSH2 0x2F1D DUP4 PUSH2 0x2EEA JUMP JUMPDEST PUSH2 0x2F31 PUSH2 0x2F29 DUP3 PUSH2 0x2F0B JUMP JUMPDEST DUP5 DUP5 SLOAD PUSH2 0x2E99 JUMP JUMPDEST DUP3 SSTORE POP POP POP POP JUMP JUMPDEST PUSH0 PUSH0 SWAP1 POP SWAP1 JUMP JUMPDEST PUSH2 0x2F48 PUSH2 0x2F39 JUMP JUMPDEST PUSH2 0x2F53 DUP2 DUP5 DUP5 PUSH2 0x2F14 JUMP JUMPDEST POP POP POP JUMP JUMPDEST JUMPDEST DUP2 DUP2 LT ISZERO PUSH2 0x2F76 JUMPI PUSH2 0x2F6B PUSH0 DUP3 PUSH2 0x2F40 JUMP JUMPDEST PUSH1 0x1 DUP2 ADD SWAP1 POP PUSH2 0x2F59 JUMP JUMPDEST POP POP JUMP JUMPDEST PUSH1 0x1F DUP3 GT ISZERO PUSH2 0x2FBB JUMPI PUSH2 0x2F8C DUP2 PUSH2 0x2E6C JUMP JUMPDEST PUSH2 0x2F95 DUP5 PUSH2 0x2E7E JUMP JUMPDEST DUP2 ADD PUSH1 0x20 DUP6 LT ISZERO PUSH2 0x2FA4 JUMPI DUP2 SWAP1 POP JUMPDEST PUSH2 0x2FB8 PUSH2 0x2FB0 DUP6 PUSH2 0x2E7E JUMP JUMPDEST DUP4 ADD DUP3 PUSH2 0x2F58 JUMP JUMPDEST POP POP JUMPDEST POP POP POP JUMP JUMPDEST PUSH0 DUP3 DUP3 SHR SWAP1 POP SWAP3 SWAP2 POP POP JUMP JUMPDEST PUSH0 PUSH2 0x2FDB PUSH0 NOT DUP5 PUSH1 0x8 MUL PUSH2 0x2FC0 JUMP JUMPDEST NOT DUP1 DUP4 AND SWAP2 POP POP SWAP3 SWAP2 POP POP JUMP JUMPDEST PUSH0 PUSH2 0x2FF3 DUP4 DUP4 PUSH2 0x2FCC JUMP JUMPDEST SWAP2 POP DUP3 PUSH1 0x2 MUL DUP3 OR SWAP1 POP SWAP3 SWAP2 POP POP JUMP JUMPDEST PUSH2 0x300C DUP3 PUSH2 0x2003 JUMP JUMPDEST PUSH8 0xFFFFFFFFFFFFFFFF DUP2 GT ISZERO PUSH2 0x3025 JUMPI PUSH2 0x3024 PUSH2 0x22C3 JUMP JUMPDEST JUMPDEST PUSH2 0x302F DUP3 SLOAD PUSH2 0x2E09 JUMP JUMPDEST PUSH2 0x303A DUP3 DUP3 DUP6 PUSH2 0x2F7A JUMP JUMPDEST PUSH0 PUSH1 0x20 SWAP1 POP PUSH1 0x1F DUP4 GT PUSH1 0x1 DUP2 EQ PUSH2 0x306B JUMPI PUSH0 DUP5 ISZERO PUSH2 0x3059 JUMPI DUP3 DUP8 ADD MLOAD SWAP1 POP JUMPDEST PUSH2 0x3063 DUP6 DUP3 PUSH2 0x2FE8 JUMP JUMPDEST DUP7 SSTORE POP PUSH2 0x30CA JUMP JUMPDEST PUSH1 0x1F NOT DUP5 AND PUSH2 0x3079 DUP7 PUSH2 0x2E6C JUMP JUMPDEST PUSH0 JUMPDEST DUP3 DUP2 LT ISZERO PUSH2 0x30A0 JUMPI DUP5 DUP10 ADD MLOAD DUP3 SSTORE PUSH1 0x1 DUP3 ADD SWAP2 POP PUSH1 0x20 DUP6 ADD SWAP5 POP PUSH1 0x20 DUP2 ADD SWAP1 POP PUSH2 0x307B JUMP JUMPDEST DUP7 DUP4 LT ISZERO PUSH2 0x30BD JUMPI DUP5 DUP10 ADD MLOAD PUSH2 0x30B9 PUSH1 0x1F DUP10 AND DUP3 PUSH2 0x2FCC JUMP JUMPDEST DUP4 SSTORE POP JUMPDEST PUSH1 0x1 PUSH1 0x2 DUP9 MUL ADD DUP9 SSTORE POP POP POP JUMPDEST POP POP POP POP POP POP JUMP JUMPDEST PUSH32 0x4E487B7100000000000000000000000000000000000000000000000000000000 PUSH0 MSTORE PUSH1 0x31 PUSH1 0x4 MSTORE PUSH1 0x24 PUSH0 REVERT JUMPDEST PUSH0 PUSH1 0x40 DUP3 ADD SWAP1 POP PUSH2 0x3112 PUSH0 DUP4 ADD DUP6 PUSH2 0x1FA1 JUMP JUMPDEST PUSH2 0x311F PUSH1 0x20 DUP4 ADD DUP5 PUSH2 0x1FA1 JUMP JUMPDEST SWAP4 SWAP3 POP POP POP JUMP JUMPDEST PUSH32 0x466F6F6444657461696C20646F6573206E6F7420657869737400000000000000 PUSH0 DUP3 ADD MSTORE POP JUMP JUMPDEST PUSH0 PUSH2 0x315A PUSH1 0x19 DUP4 PUSH2 0x2D64 JUMP JUMPDEST SWAP2 POP PUSH2 0x3165 DUP3 PUSH2 0x3126 JUMP JUMPDEST PUSH1 0x20 DUP3 ADD SWAP1 POP SWAP2 SWAP1 POP JUMP JUMPDEST PUSH0 PUSH1 0x20 DUP3 ADD SWAP1 POP DUP2 DUP2 SUB PUSH0 DUP4 ADD MSTORE PUSH2 0x3187 DUP2 PUSH2 0x314E JUMP JUMPDEST SWAP1 POP SWAP2 SWAP1 POP JUMP JUMPDEST PUSH0 PUSH2 0x3198 DUP3 PUSH2 0x1E99 JUMP JUMPDEST SWAP2 POP PUSH32 0xFFFFFFFFFFFFFFFFFFFFFFFFFFFFFFFFFFFFFFFFFFFFFFFFFFFFFFFFFFFFFFFF DUP3 SUB PUSH2 0x31CA JUMPI PUSH2 0x31C9 PUSH2 0x2D04 JUMP JUMPDEST JUMPDEST PUSH1 0x1 DUP3 ADD SWAP1 POP SWAP2 SWAP1 POP JUMP JUMPDEST PUSH0 DUP2 MLOAD SWAP1 POP PUSH2 0x31E3 DUP2 PUSH2 0x1EA2 JUMP JUMPDEST SWAP3 SWAP2 POP POP JUMP JUMPDEST PUSH0 PUSH2 0x31FB PUSH2 0x31F6 DUP5 PUSH2 0x2376 JUMP JUMPDEST PUSH2 0x2321 JUMP JUMPDEST SWAP1 POP DUP3 DUP2 MSTORE PUSH1 0x20 DUP2 ADD DUP5 DUP5 DUP5 ADD GT ISZERO PUSH2 0x3217 JUMPI PUSH2 0x3216 PUSH2 0x2372 JUMP JUMPDEST JUMPDEST PUSH2 0x3222 DUP5 DUP3 DUP6 PUSH2 0x201D JUMP JUMPDEST POP SWAP4 SWAP3 POP POP POP JUMP JUMPDEST PUSH0 DUP3 PUSH1 0x1F DUP4 ADD SLT PUSH2 0x323E JUMPI PUSH2 0x323D PUSH2 0x22BF JUMP JUMPDEST JUMPDEST DUP2 MLOAD PUSH2 0x324E DUP5 DUP3 PUSH1 0x20 DUP7 ADD PUSH2 0x31E9 JUMP JUMPDEST SWAP2 POP POP SWAP3 SWAP2 POP POP JUMP JUMPDEST PUSH0 PUSH1 0x40 DUP3 DUP5 SUB SLT ISZERO PUSH2 0x326C JUMPI PUSH2 0x326B PUSH2 0x236A JUMP JUMPDEST JUMPDEST PUSH2 0x3276 PUSH1 0x40 PUSH2 0x2321 JUMP JUMPDEST SWAP1 POP PUSH0 PUSH2 0x3285 DUP5 DUP3 DUP6 ADD PUSH2 0x31D5 JUMP JUMPDEST PUSH0 DUP4 ADD MSTORE POP PUSH1 0x20 DUP3 ADD MLOAD PUSH8 0xFFFFFFFFFFFFFFFF DUP2 GT ISZERO PUSH2 0x32A8 JUMPI PUSH2 0x32A7 PUSH2 0x236E JUMP JUMPDEST JUMPDEST PUSH2 0x32B4 DUP5 DUP3 DUP6 ADD PUSH2 0x322A JUMP JUMPDEST PUSH1 0x20 DUP4 ADD MSTORE POP SWAP3 SWAP2 POP POP JUMP JUMPDEST PUSH0 PUSH1 0x20 DUP3 DUP5 SUB SLT ISZERO PUSH2 0x32D5 JUMPI PUSH2 0x32D4 PUSH2 0x1E91 JUMP JUMPDEST JUMPDEST PUSH0 DUP3 ADD MLOAD PUSH8 0xFFFFFFFFFFFFFFFF DUP2 GT ISZERO PUSH2 0x32F2 JUMPI PUSH2 0x32F1 PUSH2 0x1E95 JUMP JUMPDEST JUMPDEST PUSH2 0x32FE DUP5 DUP3 DUP6 ADD PUSH2 0x3257 JUMP JUMPDEST SWAP2 POP POP SWAP3 SWAP2 POP POP JUMP JUMPDEST PUSH32 0x43617465676F727920646F6573206E6F74206578697374000000000000000000 PUSH0 DUP3 ADD MSTORE POP JUMP JUMPDEST PUSH0 PUSH2 0x333B PUSH1 0x17 DUP4 PUSH2 0x2D64 JUMP JUMPDEST SWAP2 POP PUSH2 0x3346 DUP3 PUSH2 0x3307 JUMP JUMPDEST PUSH1 0x20 DUP3 ADD SWAP1 POP SWAP2 SWAP1 POP JUMP JUMPDEST PUSH0 PUSH1 0x20 DUP3 ADD SWAP1 POP DUP2 DUP2 SUB PUSH0 DUP4 ADD MSTORE PUSH2 0x3368 DUP2 PUSH2 0x332F JUMP JUMPDEST SWAP1 POP SWAP2 SWAP1 POP JUMP JUMPDEST PUSH0 PUSH2 0x3379 DUP3 PUSH2 0x2003 JUMP JUMPDEST PUSH2 0x3383 DUP2 DUP6 PUSH2 0x2D64 JUMP JUMPDEST SWAP4 POP PUSH2 0x3393 DUP2 DUP6 PUSH1 0x20 DUP7 ADD PUSH2 0x201D JUMP JUMPDEST PUSH2 0x339C DUP2 PUSH2 0x202B JUMP JUMPDEST DUP5 ADD SWAP2 POP POP SWAP3 SWAP2 POP POP JUMP JUMPDEST PUSH0 DUP3 DUP3 MSTORE PUSH1 0x20 DUP3 ADD SWAP1 POP SWAP3 SWAP2 POP POP JUMP JUMPDEST PUSH0 PUSH2 0x33C1 DUP3 PUSH2 0x2073 JUMP JUMPDEST PUSH2 0x33CB DUP2 DUP6 PUSH2 0x33A7 JUMP JUMPDEST SWAP4 POP DUP4 PUSH1 0x20 DUP3 MUL DUP6 ADD PUSH2 0x33DD DUP6 PUSH2 0x208D JUMP JUMPDEST DUP1 PUSH0 JUMPDEST DUP6 DUP2 LT ISZERO PUSH2 0x3418 JUMPI DUP5 DUP5 SUB DUP10 MSTORE DUP2 MLOAD PUSH2 0x33F9 DUP6 DUP3 PUSH2 0x209C JUMP JUMPDEST SWAP5 POP PUSH2 0x3404 DUP4 PUSH2 0x20AF JUMP JUMPDEST SWAP3 POP PUSH1 0x20 DUP11 ADD SWAP10 POP POP PUSH1 0x1 DUP2 ADD SWAP1 POP PUSH2 0x33E0 JUMP JUMPDEST POP DUP3 SWAP8 POP DUP8 SWAP6 POP POP POP POP POP POP SWAP3 SWAP2 POP POP JUMP JUMPDEST PUSH0 PUSH1 0xA0 DUP3 ADD SWAP1 POP PUSH2 0x343D PUSH0 DUP4 ADD DUP9 PUSH2 0x1FA1 JUMP JUMPDEST DUP2 DUP2 SUB PUSH1 0x20 DUP4 ADD MSTORE PUSH2 0x344F DUP2 DUP8 PUSH2 0x336F JUMP JUMPDEST SWAP1 POP DUP2 DUP2 SUB PUSH1 0x40 DUP4 ADD MSTORE PUSH2 0x3463 DUP2 DUP7 PUSH2 0x336F JUMP JUMPDEST SWAP1 POP PUSH2 0x3472 PUSH1 0x60 DUP4 ADD DUP6 PUSH2 0x1FA1 JUMP JUMPDEST DUP2 DUP2 SUB PUSH1 0x80 DUP4 ADD MSTORE PUSH2 0x3484 DUP2 DUP5 PUSH2 0x33B7 JUMP JUMPDEST SWAP1 POP SWAP7 SWAP6 POP POP POP POP POP POP JUMP JUMPDEST PUSH32 0x5175616E74697479277320666F6F642063616E6E6F7420626520736D616C6C65 PUSH0 DUP3 ADD MSTORE PUSH32 0x72207468616E2030000000000000000000000000000000000000000000000000 PUSH1 0x20 DUP3 ADD MSTORE POP JUMP JUMPDEST PUSH0 PUSH2 0x34EA PUSH1 0x28 DUP4 PUSH2 0x2D64 JUMP JUMPDEST SWAP2 POP PUSH2 0x34F5 DUP3 PUSH2 0x3490 JUMP JUMPDEST PUSH1 0x40 DUP3 ADD SWAP1 POP SWAP2 SWAP1 POP JUMP JUMPDEST PUSH0 PUSH1 0x20 DUP3 ADD SWAP1 POP DUP2 DUP2 SUB PUSH0 DUP4 ADD MSTORE PUSH2 0x3517 DUP2 PUSH2 0x34DE JUMP JUMPDEST SWAP1 POP SWAP2 SWAP1 POP JUMP JUMPDEST PUSH32 0x466F6F642077697468207468697320494420616C726561647920657869737473 PUSH0 DUP3 ADD MSTORE POP JUMP JUMPDEST PUSH0 PUSH2 0x3552 PUSH1 0x20 DUP4 PUSH2 0x2D64 JUMP JUMPDEST SWAP2 POP PUSH2 0x355D DUP3 PUSH2 0x351E JUMP JUMPDEST PUSH1 0x20 DUP3 ADD SWAP1 POP SWAP2 SWAP1 POP JUMP JUMPDEST PUSH0 PUSH1 0x20 DUP3 ADD SWAP1 POP DUP2 DUP2 SUB PUSH0 DUP4 ADD MSTORE PUSH2 0x357F DUP2 PUSH2 0x3546 JUMP JUMPDEST SWAP1 POP SWAP2 SWAP1 POP JUMP INVALID LOG2 PUSH5 0x6970667358 0x22 SLT KECCAK256 SWAP2 JUMP 0xF6 DUP12 CODECOPY RETURNCONTRACT 0x53 CODECOPY OR XOR PUSH20 0xE2235F23DCACBFE86BCC8A68D7519BAB5D0CB03B 0xCF PUSH5 0x736F6C6343 STOP ADDMOD 0x1E STOP CALLER "
		},
		"gasEstimates": {
			"creation": {
				"codeDepositCost": "2751200",
				"executionCost": "infinite",
				"totalCost": "infinite"
			},
			"external": {
				"addAdmin(address)": "24846",
				"addFoodDetails(uint256,(string,uint256,uint256)[])": "infinite",
				"categoryManager()": "infinite",
				"createFood(uint256,string,string,uint256,string[],(string,uint256,uint256)[])": "infinite",
				"deleteFood(uint256)": "infinite",
				"deleteFoodDetail(uint256,uint256)": "infinite",
				"getAllFoods()": "infinite",
				"getFood(uint256)": "infinite",
				"getFoodDetails(uint256)": "infinite",
				"getOwner()": "2559",
				"increaseQuantiy(uint256,uint256,uint256)": "infinite",
				"isAdmin(address)": "2966",
				"nextFoodDetailId()": "2515",
				"nextFoodId()": "2493",
				"reduceQuantiy(uint256,uint256,uint256)": "infinite",
				"removeAdmin(address)": "24868",
				"updateFood(uint256,string,string,uint256,string[])": "infinite",
				"updateFoodDetail(uint256,uint256,(string,uint256,uint256))": "infinite"
			}
		},
		"methodIdentifiers": {
			"addAdmin(address)": "70480275",
			"addFoodDetails(uint256,(string,uint256,uint256)[])": "64f77471",
			"categoryManager()": "d86ec238",
			"createFood(uint256,string,string,uint256,string[],(string,uint256,uint256)[])": "b447aaae",
			"deleteFood(uint256)": "d198b650",
			"deleteFoodDetail(uint256,uint256)": "4d30a39b",
			"getAllFoods()": "b9b5aae6",
			"getFood(uint256)": "1e4de872",
			"getFoodDetails(uint256)": "af5607f9",
			"getOwner()": "893d20e8",
			"increaseQuantiy(uint256,uint256,uint256)": "094b9a53",
			"isAdmin(address)": "24d7806c",
			"nextFoodDetailId()": "1b0d77cc",
			"nextFoodId()": "1945ef58",
			"reduceQuantiy(uint256,uint256,uint256)": "9a69bfa6",
			"removeAdmin(address)": "1785f53c",
			"updateFood(uint256,string,string,uint256,string[])": "6dd2dd88",
			"updateFoodDetail(uint256,uint256,(string,uint256,uint256))": "baf85306"
		}
	},
	"abi": [
		{
			"inputs": [
				{
					"internalType": "address",
					"name": "_categoryManagerAddress",
					"type": "address"
				}
			],
			"stateMutability": "nonpayable",
			"type": "constructor"
		},
		{
			"anonymous": false,
			"inputs": [
				{
					"indexed": false,
					"internalType": "uint256",
					"name": "foodId",
					"type": "uint256"
				},
				{
					"indexed": false,
					"internalType": "string",
					"name": "name",
					"type": "string"
				},
				{
					"indexed": false,
					"internalType": "string",
					"name": "description",
					"type": "string"
				},
				{
					"indexed": false,
					"internalType": "uint256",
					"name": "categoryId",
					"type": "uint256"
				},
				{
					"indexed": false,
					"internalType": "string[]",
					"name": "imageUrl",
					"type": "string[]"
				}
			],
			"name": "FoodCreated",
			"type": "event"
		},
		{
			"anonymous": false,
			"inputs": [
				{
					"indexed": false,
					"internalType": "uint256",
					"name": "foodId",
					"type": "uint256"
				}
			],
			"name": "FoodDeleted",
			"type": "event"
		},
		{
			"anonymous": false,
			"inputs": [
				{
					"indexed": false,
					"internalType": "uint256",
					"name": "foodId",
					"type": "uint256"
				},
				{
					"indexed": false,
					"internalType": "uint256",
					"name": "foodDetailId",
					"type": "uint256"
				}
			],
			"name": "FoodDetailDeleted",
			"type": "event"
		},
		{
			"anonymous": false,
			"inputs": [
				{
					"indexed": false,
					"internalType": "uint256",
					"name": "foodId",
					"type": "uint256"
				},
				{
					"indexed": false,
					"internalType": "uint256",
					"name": "foodDetailId",
					"type": "uint256"
				}
			],
			"name": "FoodDetailUpdated",
			"type": "event"
		},
		{
			"anonymous": false,
			"inputs": [
				{
					"indexed": false,
					"internalType": "uint256",
					"name": "foodId",
					"type": "uint256"
				}
			],
			"name": "FoodDetailsAdded",
			"type": "event"
		},
		{
			"anonymous": false,
			"inputs": [
				{
					"indexed": false,
					"internalType": "uint256",
					"name": "foodId",
					"type": "uint256"
				},
				{
					"indexed": false,
					"internalType": "string",
					"name": "name",
					"type": "string"
				},
				{
					"indexed": false,
					"internalType": "string",
					"name": "description",
					"type": "string"
				},
				{
					"indexed": false,
					"internalType": "uint256",
					"name": "categoryId",
					"type": "uint256"
				},
				{
					"indexed": false,
					"internalType": "string[]",
					"name": "imageUrl",
					"type": "string[]"
				}
			],
			"name": "FoodUpdated",
			"type": "event"
		},
		{
			"inputs": [
				{
					"internalType": "address",
					"name": "_admin",
					"type": "address"
				}
			],
			"name": "addAdmin",
			"outputs": [],
			"stateMutability": "nonpayable",
			"type": "function"
		},
		{
			"inputs": [
				{
					"internalType": "uint256",
					"name": "foodId",
					"type": "uint256"
				},
				{
					"components": [
						{
							"internalType": "string",
							"name": "size",
							"type": "string"
						},
						{
							"internalType": "uint256",
							"name": "quantity",
							"type": "uint256"
						},
						{
							"internalType": "uint256",
							"name": "price",
							"type": "uint256"
						}
					],
					"internalType": "struct UpdateFoodDetail[]",
					"name": "details",
					"type": "tuple[]"
				}
			],
			"name": "addFoodDetails",
			"outputs": [],
			"stateMutability": "nonpayable",
			"type": "function"
		},
		{
			"inputs": [],
			"name": "categoryManager",
			"outputs": [
				{
					"internalType": "contract ICategoryManager",
					"name": "",
					"type": "address"
				}
			],
			"stateMutability": "view",
			"type": "function"
		},
		{
			"inputs": [
				{
					"internalType": "uint256",
					"name": "_foodId",
					"type": "uint256"
				},
				{
					"internalType": "string",
					"name": "_name",
					"type": "string"
				},
				{
					"internalType": "string",
					"name": "_description",
					"type": "string"
				},
				{
					"internalType": "uint256",
					"name": "_categoryId",
					"type": "uint256"
				},
				{
					"internalType": "string[]",
					"name": "_imageUrl",
					"type": "string[]"
				},
				{
					"components": [
						{
							"internalType": "string",
							"name": "size",
							"type": "string"
						},
						{
							"internalType": "uint256",
							"name": "quantity",
							"type": "uint256"
						},
						{
							"internalType": "uint256",
							"name": "price",
							"type": "uint256"
						}
					],
					"internalType": "struct UpdateFoodDetail[]",
					"name": "_foodDetail",
					"type": "tuple[]"
				}
			],
			"name": "createFood",
			"outputs": [],
			"stateMutability": "nonpayable",
			"type": "function"
		},
		{
			"inputs": [
				{
					"internalType": "uint256",
					"name": "foodId",
					"type": "uint256"
				}
			],
			"name": "deleteFood",
			"outputs": [],
			"stateMutability": "nonpayable",
			"type": "function"
		},
		{
			"inputs": [
				{
					"internalType": "uint256",
					"name": "foodId",
					"type": "uint256"
				},
				{
					"internalType": "uint256",
					"name": "foodDetailId",
					"type": "uint256"
				}
			],
			"name": "deleteFoodDetail",
			"outputs": [],
			"stateMutability": "nonpayable",
			"type": "function"
		},
		{
			"inputs": [],
			"name": "getAllFoods",
			"outputs": [
				{
					"components": [
						{
							"components": [
								{
									"internalType": "uint256",
									"name": "foodId",
									"type": "uint256"
								},
								{
									"internalType": "string",
									"name": "name",
									"type": "string"
								},
								{
									"internalType": "string",
									"name": "description",
									"type": "string"
								},
								{
									"internalType": "uint256",
									"name": "categoryId",
									"type": "uint256"
								},
								{
									"internalType": "string[]",
									"name": "imageUrl",
									"type": "string[]"
								},
								{
									"internalType": "uint256",
									"name": "sumRating",
									"type": "uint256"
								},
								{
									"internalType": "uint256",
									"name": "countRating",
									"type": "uint256"
								}
							],
							"internalType": "struct Food",
							"name": "food",
							"type": "tuple"
						},
						{
							"components": [
								{
									"internalType": "uint256",
									"name": "foodDetailId",
									"type": "uint256"
								},
								{
									"internalType": "string",
									"name": "size",
									"type": "string"
								},
								{
									"internalType": "uint256",
									"name": "quantity",
									"type": "uint256"
								},
								{
									"internalType": "uint256",
									"name": "price",
									"type": "uint256"
								}
							],
							"internalType": "struct FoodDetail[]",
							"name": "foodDetails",
							"type": "tuple[]"
						}
					],
					"internalType": "struct FoodWithDetails[]",
					"name": "",
					"type": "tuple[]"
				}
			],
			"stateMutability": "view",
			"type": "function"
		},
		{
			"inputs": [
				{
					"internalType": "uint256",
					"name": "foodId",
					"type": "uint256"
				}
			],
			"name": "getFood",
			"outputs": [
				{
					"components": [
						{
							"internalType": "uint256",
							"name": "foodId",
							"type": "uint256"
						},
						{
							"internalType": "string",
							"name": "name",
							"type": "string"
						},
						{
							"internalType": "string",
							"name": "description",
							"type": "string"
						},
						{
							"internalType": "uint256",
							"name": "categoryId",
							"type": "uint256"
						},
						{
							"internalType": "string[]",
							"name": "imageUrl",
							"type": "string[]"
						},
						{
							"internalType": "uint256",
							"name": "sumRating",
							"type": "uint256"
						},
						{
							"internalType": "uint256",
							"name": "countRating",
							"type": "uint256"
						}
					],
					"internalType": "struct Food",
					"name": "",
					"type": "tuple"
				}
			],
			"stateMutability": "view",
			"type": "function"
		},
		{
			"inputs": [
				{
					"internalType": "uint256",
					"name": "foodId",
					"type": "uint256"
				}
			],
			"name": "getFoodDetails",
			"outputs": [
				{
					"components": [
						{
							"internalType": "uint256",
							"name": "foodDetailId",
							"type": "uint256"
						},
						{
							"internalType": "string",
							"name": "size",
							"type": "string"
						},
						{
							"internalType": "uint256",
							"name": "quantity",
							"type": "uint256"
						},
						{
							"internalType": "uint256",
							"name": "price",
							"type": "uint256"
						}
					],
					"internalType": "struct FoodDetail[]",
					"name": "",
					"type": "tuple[]"
				}
			],
			"stateMutability": "view",
			"type": "function"
		},
		{
			"inputs": [],
			"name": "getOwner",
			"outputs": [
				{
					"internalType": "address",
					"name": "",
					"type": "address"
				}
			],
			"stateMutability": "view",
			"type": "function"
		},
		{
			"inputs": [
				{
					"internalType": "uint256",
					"name": "_foodId",
					"type": "uint256"
				},
				{
					"internalType": "uint256",
					"name": "foodDetailId",
					"type": "uint256"
				},
				{
					"internalType": "uint256",
					"name": "_quantity",
					"type": "uint256"
				}
			],
			"name": "increaseQuantiy",
			"outputs": [],
			"stateMutability": "nonpayable",
			"type": "function"
		},
		{
			"inputs": [
				{
					"internalType": "address",
					"name": "",
					"type": "address"
				}
			],
			"name": "isAdmin",
			"outputs": [
				{
					"internalType": "enum RoleAccess.Role",
					"name": "",
					"type": "uint8"
				}
			],
			"stateMutability": "view",
			"type": "function"
		},
		{
			"inputs": [],
			"name": "nextFoodDetailId",
			"outputs": [
				{
					"internalType": "uint256",
					"name": "",
					"type": "uint256"
				}
			],
			"stateMutability": "view",
			"type": "function"
		},
		{
			"inputs": [],
			"name": "nextFoodId",
			"outputs": [
				{
					"internalType": "uint256",
					"name": "",
					"type": "uint256"
				}
			],
			"stateMutability": "view",
			"type": "function"
		},
		{
			"inputs": [
				{
					"internalType": "uint256",
					"name": "_foodId",
					"type": "uint256"
				},
				{
					"internalType": "uint256",
					"name": "foodDetailId",
					"type": "uint256"
				},
				{
					"internalType": "uint256",
					"name": "_quantity",
					"type": "uint256"
				}
			],
			"name": "reduceQuantiy",
			"outputs": [],
			"stateMutability": "nonpayable",
			"type": "function"
		},
		{
			"inputs": [
				{
					"internalType": "address",
					"name": "_admin",
					"type": "address"
				}
			],
			"name": "removeAdmin",
			"outputs": [],
			"stateMutability": "nonpayable",
			"type": "function"
		},
		{
			"inputs": [
				{
					"internalType": "uint256",
					"name": "_foodId",
					"type": "uint256"
				},
				{
					"internalType": "string",
					"name": "_name",
					"type": "string"
				},
				{
					"internalType": "string",
					"name": "_description",
					"type": "string"
				},
				{
					"internalType": "uint256",
					"name": "_categoryId",
					"type": "uint256"
				},
				{
					"internalType": "string[]",
					"name": "_imageUrl",
					"type": "string[]"
				}
			],
			"name": "updateFood",
			"outputs": [],
			"stateMutability": "nonpayable",
			"type": "function"
		},
		{
			"inputs": [
				{
					"internalType": "uint256",
					"name": "foodId",
					"type": "uint256"
				},
				{
					"internalType": "uint256",
					"name": "foodDetailId",
					"type": "uint256"
				},
				{
					"components": [
						{
							"internalType": "string",
							"name": "size",
							"type": "string"
						},
						{
							"internalType": "uint256",
							"name": "quantity",
							"type": "uint256"
						},
						{
							"internalType": "uint256",
							"name": "price",
							"type": "uint256"
						}
					],
					"internalType": "struct UpdateFoodDetail",
					"name": "newDetail",
					"type": "tuple"
				}
			],
			"name": "updateFoodDetail",
			"outputs": [],
			"stateMutability": "nonpayable",
			"type": "function"
		}
	]
}