{
	"data": {
		"bytecode": {
			"linkReferences": {},
			"object": "608060405260016002556001600455348015610019575f5ffd5b506040516142a53803806142a5833981810160405281019061003b919061011f565b815f5f6101000a81548173ffffffffffffffffffffffffffffffffffffffff021916908373ffffffffffffffffffffffffffffffffffffffff1602179055508060015f6101000a81548173ffffffffffffffffffffffffffffffffffffffff021916908373ffffffffffffffffffffffffffffffffffffffff160217905550505061015d565b5f5ffd5b5f73ffffffffffffffffffffffffffffffffffffffff82169050919050565b5f6100ee826100c5565b9050919050565b6100fe816100e4565b8114610108575f5ffd5b50565b5f81519050610119816100f5565b92915050565b5f5f60408385031215610135576101346100c1565b5b5f6101428582860161010b565b92505060206101538582860161010b565b9150509250929050565b61413b8061016a5f395ff3fe608060405234801561000f575f5ffd5b50600436106100a7575f3560e01c806363c69f081161006f57806363c69f0814610151578063856652e9146101815780638a46e8eb146101b15780638ce2ec79146101cd578063a85c38ef146101fd578063aab3196d14610236576100a7565b80632a58b330146100ab5780633f9fb5fd146100c957806342f54b89146100e5578063439e61fa146101035780635055aa0114610121575b5f5ffd5b6100b3610252565b6040516100c091906125de565b60405180910390f35b6100e360048036038101906100de9190612632565b610258565b005b6100ed610275565b6040516100fa91906126ea565b60405180910390f35b61010b61029a565b6040516101189190612723565b60405180910390f35b61013b600480360381019061013691906129e0565b6102be565b6040516101489190612e0b565b60405180910390f35b61016b60048036038101906101669190612e2b565b610e52565b6040516101789190612efe565b60405180910390f35b61019b60048036038101906101969190612f1e565b610ee5565b6040516101a891906125de565b60405180910390f35b6101cb60048036038101906101c69190612f7f565b610f10565b005b6101e760048036038101906101e29190612ff2565b61147b565b6040516101f491906131e0565b60405180910390f35b61021760048036038101906102129190613200565b6119cd565b60405161022d9a99989796959493929190613291565b60405180910390f35b610250600480360381019061024b9190613347565b611c60565b005b60045481565b8060035f8481526020019081526020015f20600601819055505050565b60015f9054906101000a900473ffffffffffffffffffffffffffffffffffffffff1681565b5f5f9054906101000a900473ffffffffffffffffffffffffffffffffffffffff1681565b6102c661243f565b5f825111610309576040517f08c379a0000000000000000000000000000000000000000000000000000000008152600401610300906133f5565b60405180910390fd5b5f5f5f9054906101000a900473ffffffffffffffffffffffffffffffffffffffff1673ffffffffffffffffffffffffffffffffffffffff16631e4de872876040518263ffffffff1660e01b815260040161036391906125de565b5f60405180830381865afa15801561037d573d5f5f3e3d5ffd5b505050506040513d5f823e3d601f19601f820116820180604052508101906103a5919061368e565b90505f5f90505f60045f8154809291906103be90613702565b9190505590505f60035f8381526020019081526020015f20905081815f018190555089816001015f6101000a81548173ffffffffffffffffffffffffffffffffffffffff021916908373ffffffffffffffffffffffffffffffffffffffff16021790555087816002019081610433919061393d565b508360200151816004019081610449919061393d565b505f816006018190555086816003019081610464919061393d565b5083608001515f8151811061047c5761047b613a0c565b5b6020026020010151816005019081610494919061393d565b505f816009015f6101000a81548160ff021916908360028111156104bb576104ba612b52565b5b02179055504281600a01819055505f5f90505b865181101561088b575f5f5f9054906101000a900473ffffffffffffffffffffffffffffffffffffffff1673ffffffffffffffffffffffffffffffffffffffff1663350855158c8a858151811061052857610527613a0c565b5b6020026020010151602001516040518363ffffffff1660e01b8152600401610551929190613a39565b5f604051808303815f875af115801561056c573d5f5f3e3d5ffd5b505050506040513d5f823e3d601f19601f820116820180604052508101906105949190613b05565b90508782815181106105a9576105a8613a0c565b5b60200260200101516040015181608001516105c49190613b4c565b856105cf9190613b8d565b94505f5f9054906101000a900473ffffffffffffffffffffffffffffffffffffffff1673ffffffffffffffffffffffffffffffffffffffff16639a69bfa68c8a858151811061062157610620613a0c565b5b6020026020010151602001518b86815181106106405761063f613a0c565b5b6020026020010151604001516040518463ffffffff1660e01b815260040161066a93929190613bc0565b5f604051808303815f87803b158015610681575f5ffd5b505af1158015610693573d5f5f3e3d5ffd5b505050505f5f9054906101000a900473ffffffffffffffffffffffffffffffffffffffff1673ffffffffffffffffffffffffffffffffffffffff1662e081dd8c835f01518b86815181106106ea576106e9613a0c565b5b6020026020010151604001516040518463ffffffff1660e01b815260040161071493929190613bc0565b5f604051808303815f87803b15801561072b575f5ffd5b505af115801561073d573d5f5f3e3d5ffd5b50505050826007016040518060c0016040528060025f81548092919061076290613702565b9190505581526020018a858151811061077e5761077d613a0c565b5b60200260200101516020015181526020018a85815181106107a2576107a1613a0c565b5b60200260200101515f015181526020018a85815181106107c5576107c4613a0c565b5b6020026020010151604001518152602001836080015181526020016002808111156107f3576107f2612b52565b5b815250908060018154018082558091505060019003905f5260205f2090600602015f909190919091505f820151815f01556020820151816001015560408201518160020155606082015181600301556080820151816004015560a0820151816005015f6101000a81548160ff0219169083600281111561087657610875612b52565b5b021790555050505080806001019150506104ce565b508281600801819055508060035f8481526020019081526020015f205f820154815f0155600182015f9054906101000a900473ffffffffffffffffffffffffffffffffffffffff16816001015f6101000a81548173ffffffffffffffffffffffffffffffffffffffff021916908373ffffffffffffffffffffffffffffffffffffffff160217905550600282018160020190816109289190613c0a565b506003820181600301908161093d9190613c0a565b50600482018160040190816109529190613c0a565b50600582018160050190816109679190613c0a565b506006820154816006015560078201816007019080546109889291906124bb565b5060088201548160080155600982015f9054906101000a900460ff16816009015f6101000a81548160ff021916908360028111156109c9576109c8612b52565b5b0217905550600a82015481600a015590505060055f8b73ffffffffffffffffffffffffffffffffffffffff1673ffffffffffffffffffffffffffffffffffffffff1681526020019081526020015f2082908060018154018082558091505060019003905f5260205f20015f90919091909150557f4a7c6b1e984c5ac140f100a4898dce117573b0fe14a829675781be4f938a3065828b855f604051610a719493929190613cef565b60405180910390a180604051806101600160405290815f8201548152602001600182015f9054906101000a900473ffffffffffffffffffffffffffffffffffffffff1673ffffffffffffffffffffffffffffffffffffffff1673ffffffffffffffffffffffffffffffffffffffff168152602001600282018054610af490613776565b80601f0160208091040260200160405190810160405280929190818152602001828054610b2090613776565b8015610b6b5780601f10610b4257610100808354040283529160200191610b6b565b820191905f5260205f20905b815481529060010190602001808311610b4e57829003601f168201915b50505050508152602001600382018054610b8490613776565b80601f0160208091040260200160405190810160405280929190818152602001828054610bb090613776565b8015610bfb5780601f10610bd257610100808354040283529160200191610bfb565b820191905f5260205f20905b815481529060010190602001808311610bde57829003601f168201915b50505050508152602001600482018054610c1490613776565b80601f0160208091040260200160405190810160405280929190818152602001828054610c4090613776565b8015610c8b5780601f10610c6257610100808354040283529160200191610c8b565b820191905f5260205f20905b815481529060010190602001808311610c6e57829003601f168201915b50505050508152602001600582018054610ca490613776565b80601f0160208091040260200160405190810160405280929190818152602001828054610cd090613776565b8015610d1b5780601f10610cf257610100808354040283529160200191610d1b565b820191905f5260205f20905b815481529060010190602001808311610cfe57829003601f168201915b505050505081526020016006820154815260200160078201805480602002602001604051908101604052809291908181526020015f905b82821015610ded578382905f5260205f2090600602016040518060c00160405290815f820154815260200160018201548152602001600282015481526020016003820154815260200160048201548152602001600582015f9054906101000a900460ff166002811115610dc857610dc7612b52565b5b6002811115610dda57610dd9612b52565b5b8152505081526020019060010190610d52565b50505050815260200160088201548152602001600982015f9054906101000a900460ff166002811115610e2357610e22612b52565b5b6002811115610e3557610e34612b52565b5b8152602001600a8201548152505094505050505095945050505050565b606060055f8373ffffffffffffffffffffffffffffffffffffffff1673ffffffffffffffffffffffffffffffffffffffff1681526020019081526020015f20805480602002602001604051908101604052809291908181526020018280548015610ed957602002820191905f5260205f20905b815481526020019060010190808311610ec5575b50505050509050919050565b6005602052815f5260405f208181548110610efe575f80fd5b905f5260205f20015f91509150505481565b60015f9054906101000a900473ffffffffffffffffffffffffffffffffffffffff1673ffffffffffffffffffffffffffffffffffffffff166324d7806c336040518263ffffffff1660e01b8152600401610f6a9190613d32565b602060405180830381865afa158015610f85573d5f5f3e3d5ffd5b505050506040513d601f19601f82011682018060405250810190610fa99190613d80565b610fe8576040517f08c379a0000000000000000000000000000000000000000000000000000000008152600401610fdf90613df5565b60405180910390fd5b5f60035f8581526020019081526020015f205f01540361103d576040517f08c379a000000000000000000000000000000000000000000000000000000000815260040161103490613e5d565b60405180910390fd5b5f60035f8581526020019081526020015f206007018054905003611096576040517f08c379a000000000000000000000000000000000000000000000000000000000815260040161108d90613ec5565b60405180910390fd5b5f60035f8581526020019081526020015f2090505f5f90505f5f90505b82600701805490508110156113f857848360070182815481106110d9576110d8613a0c565b5b905f5260205f2090600602015f0154036113eb575f6002811115611100576110ff612b52565b5b83600701828154811061111657611115613a0c565b5b905f5260205f2090600602016005015f9054906101000a900460ff16600281111561114457611143612b52565b5b03611184576040517f08c379a000000000000000000000000000000000000000000000000000000000815260040161117b90613f53565b60405180910390fd5b8383600701828154811061119b5761119a613a0c565b5b905f5260205f2090600602016005015f6101000a81548160ff021916908360028111156111cb576111ca612b52565b5b02179055505f8360070182815481106111e7576111e6613a0c565b5b905f5260205f2090600602016040518060c00160405290815f820154815260200160018201548152602001600282015481526020016003820154815260200160048201548152602001600582015f9054906101000a900460ff16600281111561125357611252612b52565b5b600281111561126557611264612b52565b5b8152505090505f600281111561127e5761127d612b52565b5b85600281111561129157611290612b52565b5b146113c3575f5f9054906101000a900473ffffffffffffffffffffffffffffffffffffffff1673ffffffffffffffffffffffffffffffffffffffff1663094b9a538260400151836020015184606001516040518463ffffffff1660e01b81526004016112ff93929190613bc0565b5f604051808303815f87803b158015611316575f5ffd5b505af1158015611328573d5f5f3e3d5ffd5b505050505f5f9054906101000a900473ffffffffffffffffffffffffffffffffffffffff1673ffffffffffffffffffffffffffffffffffffffff16636c6b5baf8260400151836020015184606001516040518463ffffffff1660e01b815260040161139593929190613bc0565b5f604051808303815f87803b1580156113ac575f5ffd5b505af11580156113be573d5f5f3e3d5ffd5b505050505b8060800151846008015f8282546113da9190613f71565b9250508190555060019250506113f8565b80806001019150506110b3565b5080611439576040517f08c379a000000000000000000000000000000000000000000000000000000000815260040161143090613fee565b60405180910390fd5b7faed146b8e6504d3a57dea2f60152e1133fa978a366cbdfbfa83328f48ff1ec0985858560405161146c9392919061401b565b60405180910390a15050505050565b60605f5f90505f600190505b6004548110156114f8578360028111156114a4576114a3612b52565b5b60035f8381526020019081526020015f206009015f9054906101000a900460ff1660028111156114d7576114d6612b52565b5b036114eb5781806114e790613702565b9250505b8080600101915050611487565b505f8167ffffffffffffffff8111156115145761151361278f565b5b60405190808252806020026020018201604052801561154d57816020015b61153a61243f565b8152602001906001900390816115325790505b5090505f5f90505f600190505b6004548110156119c15785600281111561157757611576612b52565b5b60035f8381526020019081526020015f206009015f9054906101000a900460ff1660028111156115aa576115a9612b52565b5b036119b45760035f8281526020019081526020015f20604051806101600160405290815f8201548152602001600182015f9054906101000a900473ffffffffffffffffffffffffffffffffffffffff1673ffffffffffffffffffffffffffffffffffffffff1673ffffffffffffffffffffffffffffffffffffffff16815260200160028201805461163a90613776565b80601f016020809104026020016040519081016040528092919081815260200182805461166690613776565b80156116b15780601f10611688576101008083540402835291602001916116b1565b820191905f5260205f20905b81548152906001019060200180831161169457829003601f168201915b505050505081526020016003820180546116ca90613776565b80601f01602080910402602001604051908101604052809291908181526020018280546116f690613776565b80156117415780601f1061171857610100808354040283529160200191611741565b820191905f5260205f20905b81548152906001019060200180831161172457829003601f168201915b5050505050815260200160048201805461175a90613776565b80601f016020809104026020016040519081016040528092919081815260200182805461178690613776565b80156117d15780601f106117a8576101008083540402835291602001916117d1565b820191905f5260205f20905b8154815290600101906020018083116117b457829003601f168201915b505050505081526020016005820180546117ea90613776565b80601f016020809104026020016040519081016040528092919081815260200182805461181690613776565b80156118615780601f1061183857610100808354040283529160200191611861565b820191905f5260205f20905b81548152906001019060200180831161184457829003601f168201915b505050505081526020016006820154815260200160078201805480602002602001604051908101604052809291908181526020015f905b82821015611933578382905f5260205f2090600602016040518060c00160405290815f820154815260200160018201548152602001600282015481526020016003820154815260200160048201548152602001600582015f9054906101000a900460ff16600281111561190e5761190d612b52565b5b60028111156119205761191f612b52565b5b8152505081526020019060010190611898565b50505050815260200160088201548152602001600982015f9054906101000a900460ff16600281111561196957611968612b52565b5b600281111561197b5761197a612b52565b5b8152602001600a8201548152505083838061199590613702565b9450815181106119a8576119a7613a0c565b5b60200260200101819052505b808060010191505061155a565b50819350505050919050565b6003602052805f5260405f205f91509050805f015490806001015f9054906101000a900473ffffffffffffffffffffffffffffffffffffffff1690806002018054611a1790613776565b80601f0160208091040260200160405190810160405280929190818152602001828054611a4390613776565b8015611a8e5780601f10611a6557610100808354040283529160200191611a8e565b820191905f5260205f20905b815481529060010190602001808311611a7157829003601f168201915b505050505090806003018054611aa390613776565b80601f0160208091040260200160405190810160405280929190818152602001828054611acf90613776565b8015611b1a5780601f10611af157610100808354040283529160200191611b1a565b820191905f5260205f20905b815481529060010190602001808311611afd57829003601f168201915b505050505090806004018054611b2f90613776565b80601f0160208091040260200160405190810160405280929190818152602001828054611b5b90613776565b8015611ba65780601f10611b7d57610100808354040283529160200191611ba6565b820191905f5260205f20905b815481529060010190602001808311611b8957829003601f168201915b505050505090806005018054611bbb90613776565b80601f0160208091040260200160405190810160405280929190818152602001828054611be790613776565b8015611c325780601f10611c0957610100808354040283529160200191611c32565b820191905f5260205f20905b815481529060010190602001808311611c1557829003601f168201915b505050505090806006015490806008015490806009015f9054906101000a900460ff169080600a015490508a565b60015f9054906101000a900473ffffffffffffffffffffffffffffffffffffffff1673ffffffffffffffffffffffffffffffffffffffff166324d7806c336040518263ffffffff1660e01b8152600401611cba9190613d32565b602060405180830381865afa158015611cd5573d5f5f3e3d5ffd5b505050506040513d601f19601f82011682018060405250810190611cf99190613d80565b611d38576040517f08c379a0000000000000000000000000000000000000000000000000000000008152600401611d2f90613df5565b60405180910390fd5b5f60035f8481526020019081526020015f20604051806101600160405290815f8201548152602001600182015f9054906101000a900473ffffffffffffffffffffffffffffffffffffffff1673ffffffffffffffffffffffffffffffffffffffff1673ffffffffffffffffffffffffffffffffffffffff168152602001600282018054611dc490613776565b80601f0160208091040260200160405190810160405280929190818152602001828054611df090613776565b8015611e3b5780601f10611e1257610100808354040283529160200191611e3b565b820191905f5260205f20905b815481529060010190602001808311611e1e57829003601f168201915b50505050508152602001600382018054611e5490613776565b80601f0160208091040260200160405190810160405280929190818152602001828054611e8090613776565b8015611ecb5780601f10611ea257610100808354040283529160200191611ecb565b820191905f5260205f20905b815481529060010190602001808311611eae57829003601f168201915b50505050508152602001600482018054611ee490613776565b80601f0160208091040260200160405190810160405280929190818152602001828054611f1090613776565b8015611f5b5780601f10611f3257610100808354040283529160200191611f5b565b820191905f5260205f20905b815481529060010190602001808311611f3e57829003601f168201915b50505050508152602001600582018054611f7490613776565b80601f0160208091040260200160405190810160405280929190818152602001828054611fa090613776565b8015611feb5780601f10611fc257610100808354040283529160200191611feb565b820191905f5260205f20905b815481529060010190602001808311611fce57829003601f168201915b505050505081526020016006820154815260200160078201805480602002602001604051908101604052809291908181526020015f905b828210156120bd578382905f5260205f2090600602016040518060c00160405290815f820154815260200160018201548152602001600282015481526020016003820154815260200160048201548152602001600582015f9054906101000a900460ff16600281111561209857612097612b52565b5b60028111156120aa576120a9612b52565b5b8152505081526020019060010190612022565b50505050815260200160088201548152602001600982015f9054906101000a900460ff1660028111156120f3576120f2612b52565b5b600281111561210557612104612b52565b5b8152602001600a8201548152505090505f815f01510361215a576040517f08c379a000000000000000000000000000000000000000000000000000000000815260040161215190613e5d565b60405180910390fd5b6001600281111561216e5761216d612b52565b5b816101200151600281111561218657612185612b52565b5b036121c6576040517f08c379a00000000000000000000000000000000000000000000000000000000081526004016121bd906140c0565b60405180910390fd5b5f5f90505b8160e00151518110156123c5575f5f9054906101000a900473ffffffffffffffffffffffffffffffffffffffff1673ffffffffffffffffffffffffffffffffffffffff1663094b9a538360e00151838151811061222b5761222a613a0c565b5b6020026020010151604001518460e00151848151811061224e5761224d613a0c565b5b6020026020010151602001518560e00151858151811061227157612270613a0c565b5b6020026020010151606001516040518463ffffffff1660e01b815260040161229b93929190613bc0565b5f604051808303815f87803b1580156122b2575f5ffd5b505af11580156122c4573d5f5f3e3d5ffd5b505050505f5f9054906101000a900473ffffffffffffffffffffffffffffffffffffffff1673ffffffffffffffffffffffffffffffffffffffff16636c6b5baf8360e00151838151811061231b5761231a613a0c565b5b6020026020010151604001518460e00151848151811061233e5761233d613a0c565b5b6020026020010151602001518560e00151858151811061236157612360613a0c565b5b6020026020010151606001516040518463ffffffff1660e01b815260040161238b93929190613bc0565b5f604051808303815f87803b1580156123a2575f5ffd5b505af11580156123b4573d5f5f3e3d5ffd5b5050505080806001019150506121cb565b508160035f8581526020019081526020015f206009015f6101000a81548160ff021916908360028111156123fc576123fb612b52565b5b02179055507f575764e5527275e78fb8b8cecd6ae324a82d9904ef7a29349dabdff1e1f54c3583836040516124329291906140de565b60405180910390a1505050565b6040518061016001604052805f81526020015f73ffffffffffffffffffffffffffffffffffffffff168152602001606081526020016060815260200160608152602001606081526020015f8152602001606081526020015f81526020015f60028111156124af576124ae612b52565b5b81526020015f81525090565b828054828255905f5260205f20906006028101928215612569575f5260205f209160060282015b828111156125685782825f820154815f015560018201548160010155600282015481600201556003820154816003015560048201548160040155600582015f9054906101000a900460ff16816005015f6101000a81548160ff0219169083600281111561255257612551612b52565b5b02179055505050916006019190600601906124e2565b5b509050612576919061257a565b5090565b5b808211156125c2575f5f82015f9055600182015f9055600282015f9055600382015f9055600482015f9055600582015f6101000a81549060ff02191690555060060161257b565b5090565b5f819050919050565b6125d8816125c6565b82525050565b5f6020820190506125f15f8301846125cf565b92915050565b5f604051905090565b5f5ffd5b5f5ffd5b612611816125c6565b811461261b575f5ffd5b50565b5f8135905061262c81612608565b92915050565b5f5f6040838503121561264857612647612600565b5b5f6126558582860161261e565b92505060206126668582860161261e565b9150509250929050565b5f73ffffffffffffffffffffffffffffffffffffffff82169050919050565b5f819050919050565b5f6126b26126ad6126a884612670565b61268f565b612670565b9050919050565b5f6126c382612698565b9050919050565b5f6126d4826126b9565b9050919050565b6126e4816126ca565b82525050565b5f6020820190506126fd5f8301846126db565b92915050565b5f61270d826126b9565b9050919050565b61271d81612703565b82525050565b5f6020820190506127365f830184612714565b92915050565b5f61274682612670565b9050919050565b6127568161273c565b8114612760575f5ffd5b50565b5f813590506127718161274d565b92915050565b5f5ffd5b5f5ffd5b5f601f19601f8301169050919050565b7f4e487b71000000000000000000000000000000000000000000000000000000005f52604160045260245ffd5b6127c58261277f565b810181811067ffffffffffffffff821117156127e4576127e361278f565b5b80604052505050565b5f6127f66125f7565b905061280282826127bc565b919050565b5f67ffffffffffffffff8211156128215761282061278f565b5b61282a8261277f565b9050602081019050919050565b828183375f83830152505050565b5f61285761285284612807565b6127ed565b9050828152602081018484840111156128735761287261277b565b5b61287e848285612837565b509392505050565b5f82601f83011261289a57612899612777565b5b81356128aa848260208601612845565b91505092915050565b5f67ffffffffffffffff8211156128cd576128cc61278f565b5b602082029050602081019050919050565b5f5ffd5b5f5ffd5b5f5ffd5b5f606082840312156128ff576128fe6128e2565b5b61290960606127ed565b90505f6129188482850161261e565b5f83015250602061292b8482850161261e565b602083015250604061293f8482850161261e565b60408301525092915050565b5f61295d612958846128b3565b6127ed565b905080838252602082019050606084028301858111156129805761297f6128de565b5b835b818110156129a9578061299588826128ea565b845260208401935050606081019050612982565b5050509392505050565b5f82601f8301126129c7576129c6612777565b5b81356129d784826020860161294b565b91505092915050565b5f5f5f5f5f60a086880312156129f9576129f8612600565b5b5f612a0688828901612763565b9550506020612a178882890161261e565b945050604086013567ffffffffffffffff811115612a3857612a37612604565b5b612a4488828901612886565b935050606086013567ffffffffffffffff811115612a6557612a64612604565b5b612a7188828901612886565b925050608086013567ffffffffffffffff811115612a9257612a91612604565b5b612a9e888289016129b3565b9150509295509295909350565b612ab4816125c6565b82525050565b612ac38161273c565b82525050565b5f81519050919050565b5f82825260208201905092915050565b8281835e5f83830152505050565b5f612afb82612ac9565b612b058185612ad3565b9350612b15818560208601612ae3565b612b1e8161277f565b840191505092915050565b5f81519050919050565b5f82825260208201905092915050565b5f819050602082019050919050565b7f4e487b71000000000000000000000000000000000000000000000000000000005f52602160045260245ffd5b60038110612b9057612b8f612b52565b5b50565b5f819050612ba082612b7f565b919050565b5f612baf82612b93565b9050919050565b612bbf81612ba5565b82525050565b60c082015f820151612bd95f850182612aab565b506020820151612bec6020850182612aab565b506040820151612bff6040850182612aab565b506060820151612c126060850182612aab565b506080820151612c256080850182612aab565b5060a0820151612c3860a0850182612bb6565b50505050565b5f612c498383612bc5565b60c08301905092915050565b5f602082019050919050565b5f612c6b82612b29565b612c758185612b33565b9350612c8083612b43565b805f5b83811015612cb0578151612c978882612c3e565b9750612ca283612c55565b925050600181019050612c83565b5085935050505092915050565b60038110612cce57612ccd612b52565b5b50565b5f819050612cde82612cbd565b919050565b5f612ced82612cd1565b9050919050565b612cfd81612ce3565b82525050565b5f61016083015f830151612d195f860182612aab565b506020830151612d2c6020860182612aba565b5060408301518482036040860152612d448282612af1565b91505060608301518482036060860152612d5e8282612af1565b91505060808301518482036080860152612d788282612af1565b91505060a083015184820360a0860152612d928282612af1565b91505060c0830151612da760c0860182612aab565b5060e083015184820360e0860152612dbf8282612c61565b915050610100830151612dd6610100860182612aab565b50610120830151612deb610120860182612cf4565b50610140830151612e00610140860182612aab565b508091505092915050565b5f6020820190508181035f830152612e238184612d03565b905092915050565b5f60208284031215612e4057612e3f612600565b5b5f612e4d84828501612763565b91505092915050565b5f81519050919050565b5f82825260208201905092915050565b5f819050602082019050919050565b5f612e8a8383612aab565b60208301905092915050565b5f602082019050919050565b5f612eac82612e56565b612eb68185612e60565b9350612ec183612e70565b805f5b83811015612ef1578151612ed88882612e7f565b9750612ee383612e96565b925050600181019050612ec4565b5085935050505092915050565b5f6020820190508181035f830152612f168184612ea2565b905092915050565b5f5f60408385031215612f3457612f33612600565b5b5f612f4185828601612763565b9250506020612f528582860161261e565b9150509250929050565b60038110612f68575f5ffd5b50565b5f81359050612f7981612f5c565b92915050565b5f5f5f60608486031215612f9657612f95612600565b5b5f612fa38682870161261e565b9350506020612fb48682870161261e565b9250506040612fc586828701612f6b565b9150509250925092565b60038110612fdb575f5ffd5b50565b5f81359050612fec81612fcf565b92915050565b5f6020828403121561300757613006612600565b5b5f61301484828501612fde565b91505092915050565b5f81519050919050565b5f82825260208201905092915050565b5f819050602082019050919050565b5f61016083015f83015161305c5f860182612aab565b50602083015161306f6020860182612aba565b50604083015184820360408601526130878282612af1565b915050606083015184820360608601526130a18282612af1565b915050608083015184820360808601526130bb8282612af1565b91505060a083015184820360a08601526130d58282612af1565b91505060c08301516130ea60c0860182612aab565b5060e083015184820360e08601526131028282612c61565b915050610100830151613119610100860182612aab565b5061012083015161312e610120860182612cf4565b50610140830151613143610140860182612aab565b508091505092915050565b5f6131598383613046565b905092915050565b5f602082019050919050565b5f6131778261301d565b6131818185613027565b93508360208202850161319385613037565b805f5b858110156131ce57848403895281516131af858261314e565b94506131ba83613161565b925060208a01995050600181019050613196565b50829750879550505050505092915050565b5f6020820190508181035f8301526131f8818461316d565b905092915050565b5f6020828403121561321557613214612600565b5b5f6132228482850161261e565b91505092915050565b6132348161273c565b82525050565b5f82825260208201905092915050565b5f61325482612ac9565b61325e818561323a565b935061326e818560208601612ae3565b6132778161277f565b840191505092915050565b61328b81612ce3565b82525050565b5f610140820190506132a55f83018d6125cf565b6132b2602083018c61322b565b81810360408301526132c4818b61324a565b905081810360608301526132d8818a61324a565b905081810360808301526132ec818961324a565b905081810360a0830152613300818861324a565b905061330f60c08301876125cf565b61331c60e08301866125cf565b61332a610100830185613282565b6133386101208301846125cf565b9b9a5050505050505050505050565b5f5f6040838503121561335d5761335c612600565b5b5f61336a8582860161261e565b925050602061337b85828601612fde565b9150509250929050565b7f4f72646572206d75737420636f6e7461696e206174206c65617374206f6e65205f8201527f6974656d00000000000000000000000000000000000000000000000000000000602082015250565b5f6133df60248361323a565b91506133ea82613385565b604082019050919050565b5f6020820190508181035f83015261340c816133d3565b9050919050565b5f8151905061342181612608565b92915050565b5f61343961343484612807565b6127ed565b9050828152602081018484840111156134555761345461277b565b5b613460848285612ae3565b509392505050565b5f82601f83011261347c5761347b612777565b5b815161348c848260208601613427565b91505092915050565b5f67ffffffffffffffff8211156134af576134ae61278f565b5b602082029050602081019050919050565b5f6134d26134cd84613495565b6127ed565b905080838252602082019050602084028301858111156134f5576134f46128de565b5b835b8181101561353c57805167ffffffffffffffff81111561351a57613519612777565b5b8086016135278982613468565b855260208501945050506020810190506134f7565b5050509392505050565b5f82601f83011261355a57613559612777565b5b815161356a8482602086016134c0565b91505092915050565b5f6101008284031215613589576135886128e2565b5b6135946101006127ed565b90505f6135a384828501613413565b5f83015250602082015167ffffffffffffffff8111156135c6576135c56128e6565b5b6135d284828501613468565b602083015250604082015167ffffffffffffffff8111156135f6576135f56128e6565b5b61360284828501613468565b604083015250606061361684828501613413565b606083015250608082015167ffffffffffffffff81111561363a576136396128e6565b5b61364684828501613546565b60808301525060a061365a84828501613413565b60a08301525060c061366e84828501613413565b60c08301525060e061368284828501613413565b60e08301525092915050565b5f602082840312156136a3576136a2612600565b5b5f82015167ffffffffffffffff8111156136c0576136bf612604565b5b6136cc84828501613573565b91505092915050565b7f4e487b71000000000000000000000000000000000000000000000000000000005f52601160045260245ffd5b5f61370c826125c6565b91507fffffffffffffffffffffffffffffffffffffffffffffffffffffffffffffffff820361373e5761373d6136d5565b5b600182019050919050565b7f4e487b71000000000000000000000000000000000000000000000000000000005f52602260045260245ffd5b5f600282049050600182168061378d57607f821691505b6020821081036137a05761379f613749565b5b50919050565b5f819050815f5260205f209050919050565b5f6020601f8301049050919050565b5f82821b905092915050565b5f600883026138027fffffffffffffffffffffffffffffffffffffffffffffffffffffffffffffffff826137c7565b61380c86836137c7565b95508019841693508086168417925050509392505050565b5f61383e613839613834846125c6565b61268f565b6125c6565b9050919050565b5f819050919050565b61385783613824565b61386b61386382613845565b8484546137d3565b825550505050565b5f5f905090565b613882613873565b61388d81848461384e565b505050565b5b818110156138b0576138a55f8261387a565b600181019050613893565b5050565b601f8211156138f5576138c6816137a6565b6138cf846137b8565b810160208510156138de578190505b6138f26138ea856137b8565b830182613892565b50505b505050565b5f82821c905092915050565b5f6139155f19846008026138fa565b1980831691505092915050565b5f61392d8383613906565b9150826002028217905092915050565b61394682612ac9565b67ffffffffffffffff81111561395f5761395e61278f565b5b6139698254613776565b6139748282856138b4565b5f60209050601f8311600181146139a5575f8415613993578287015190505b61399d8582613922565b865550613a04565b601f1984166139b3866137a6565b5f5b828110156139da578489015182556001820191506020850194506020810190506139b5565b868310156139f757848901516139f3601f891682613906565b8355505b6001600288020188555050505b505050505050565b7f4e487b71000000000000000000000000000000000000000000000000000000005f52603260045260245ffd5b5f604082019050613a4c5f8301856125cf565b613a5960208301846125cf565b9392505050565b5f60a08284031215613a7557613a746128e2565b5b613a7f60a06127ed565b90505f613a8e84828501613413565b5f83015250602082015167ffffffffffffffff811115613ab157613ab06128e6565b5b613abd84828501613468565b6020830152506040613ad184828501613413565b6040830152506060613ae584828501613413565b6060830152506080613af984828501613413565b60808301525092915050565b5f60208284031215613b1a57613b19612600565b5b5f82015167ffffffffffffffff811115613b3757613b36612604565b5b613b4384828501613a60565b91505092915050565b5f613b56826125c6565b9150613b61836125c6565b9250828202613b6f816125c6565b91508282048414831517613b8657613b856136d5565b5b5092915050565b5f613b97826125c6565b9150613ba2836125c6565b9250828201905080821115613bba57613bb96136d5565b5b92915050565b5f606082019050613bd35f8301866125cf565b613be060208301856125cf565b613bed60408301846125cf565b949350505050565b5f81549050613c0381613776565b9050919050565b818103613c18575050613ced565b613c2182613bf5565b67ffffffffffffffff811115613c3a57613c3961278f565b5b613c448254613776565b613c4f8282856138b4565b5f601f831160018114613c7c575f8415613c6a578287015490505b613c748582613922565b865550613ce6565b601f198416613c8a876137a6565b9650613c95866137a6565b5f5b82811015613cbc57848901548255600182019150600185019450602081019050613c97565b86831015613cd95784890154613cd5601f891682613906565b8355505b6001600288020188555050505b5050505050505b565b5f608082019050613d025f8301876125cf565b613d0f602083018661322b565b613d1c60408301856125cf565b613d296060830184613282565b95945050505050565b5f602082019050613d455f83018461322b565b92915050565b5f8115159050919050565b613d5f81613d4b565b8114613d69575f5ffd5b50565b5f81519050613d7a81613d56565b92915050565b5f60208284031215613d9557613d94612600565b5b5f613da284828501613d6c565b91505092915050565b7f596f7520617265206e6f742061646d696e0000000000000000000000000000005f82015250565b5f613ddf60118361323a565b9150613dea82613dab565b602082019050919050565b5f6020820190508181035f830152613e0c81613dd3565b9050919050565b7f4f7264657220646f6573206e6f742065786973740000000000000000000000005f82015250565b5f613e4760148361323a565b9150613e5282613e13565b602082019050919050565b5f6020820190508181035f830152613e7481613e3b565b9050919050565b7f4f72646572206974656d20646f6573206e6f74206578697374000000000000005f82015250565b5f613eaf60198361323a565b9150613eba82613e7b565b602082019050919050565b5f6020820190508181035f830152613edc81613ea3565b9050919050565b7f4f72646572206974656d20616c7265616479206d61726b6564206173207375635f8201527f636573732e2043616e206e6f7420757064617465000000000000000000000000602082015250565b5f613f3d60348361323a565b9150613f4882613ee3565b604082019050919050565b5f6020820190508181035f830152613f6a81613f31565b9050919050565b5f613f7b826125c6565b9150613f86836125c6565b9250828203905081811115613f9e57613f9d6136d5565b5b92915050565b7f4f72646572206974656d206e6f7420666f756e640000000000000000000000005f82015250565b5f613fd860148361323a565b9150613fe382613fa4565b602082019050919050565b5f6020820190508181035f83015261400581613fcc565b9050919050565b61401581612ba5565b82525050565b5f60608201905061402e5f8301866125cf565b61403b60208301856125cf565b614048604083018461400c565b949350505050565b7f4f7264657220616c7265616479206d61726b656420617320636f6e6669726d2e5f8201527f2043616e206e6f74207570646174650000000000000000000000000000000000602082015250565b5f6140aa602f8361323a565b91506140b582614050565b604082019050919050565b5f6020820190508181035f8301526140d78161409e565b9050919050565b5f6040820190506140f15f8301856125cf565b6140fe6020830184613282565b939250505056fea2646970667358221220785d11668044696470854caacab3fd69ee97501e1344586e1143fd0154590e4c64736f6c634300081e0033",
			"opcodes": "PUSH1 0x80 PUSH1 0x40 MSTORE PUSH1 0x1 PUSH1 0x2 SSTORE PUSH1 0x1 PUSH1 0x4 SSTORE CALLVALUE DUP1 ISZERO PUSH2 0x19 JUMPI PUSH0 PUSH0 REVERT JUMPDEST POP PUSH1 0x40 MLOAD PUSH2 0x42A5 CODESIZE SUB DUP1 PUSH2 0x42A5 DUP4 CODECOPY DUP2 DUP2 ADD PUSH1 0x40 MSTORE DUP2 ADD SWAP1 PUSH2 0x3B SWAP2 SWAP1 PUSH2 0x11F JUMP JUMPDEST DUP2 PUSH0 PUSH0 PUSH2 0x100 EXP DUP2 SLOAD DUP2 PUSH20 0xFFFFFFFFFFFFFFFFFFFFFFFFFFFFFFFFFFFFFFFF MUL NOT AND SWAP1 DUP4 PUSH20 0xFFFFFFFFFFFFFFFFFFFFFFFFFFFFFFFFFFFFFFFF AND MUL OR SWAP1 SSTORE POP DUP1 PUSH1 0x1 PUSH0 PUSH2 0x100 EXP DUP2 SLOAD DUP2 PUSH20 0xFFFFFFFFFFFFFFFFFFFFFFFFFFFFFFFFFFFFFFFF MUL NOT AND SWAP1 DUP4 PUSH20 0xFFFFFFFFFFFFFFFFFFFFFFFFFFFFFFFFFFFFFFFF AND MUL OR SWAP1 SSTORE POP POP POP PUSH2 0x15D JUMP JUMPDEST PUSH0 PUSH0 REVERT JUMPDEST PUSH0 PUSH20 0xFFFFFFFFFFFFFFFFFFFFFFFFFFFFFFFFFFFFFFFF DUP3 AND SWAP1 POP SWAP2 SWAP1 POP JUMP JUMPDEST PUSH0 PUSH2 0xEE DUP3 PUSH2 0xC5 JUMP JUMPDEST SWAP1 POP SWAP2 SWAP1 POP JUMP JUMPDEST PUSH2 0xFE DUP2 PUSH2 0xE4 JUMP JUMPDEST DUP2 EQ PUSH2 0x108 JUMPI PUSH0 PUSH0 REVERT JUMPDEST POP JUMP JUMPDEST PUSH0 DUP2 MLOAD SWAP1 POP PUSH2 0x119 DUP2 PUSH2 0xF5 JUMP JUMPDEST SWAP3 SWAP2 POP POP JUMP JUMPDEST PUSH0 PUSH0 PUSH1 0x40 DUP4 DUP6 SUB SLT ISZERO PUSH2 0x135 JUMPI PUSH2 0x134 PUSH2 0xC1 JUMP JUMPDEST JUMPDEST PUSH0 PUSH2 0x142 DUP6 DUP3 DUP7 ADD PUSH2 0x10B JUMP JUMPDEST SWAP3 POP POP PUSH1 0x20 PUSH2 0x153 DUP6 DUP3 DUP7 ADD PUSH2 0x10B JUMP JUMPDEST SWAP2 POP POP SWAP3 POP SWAP3 SWAP1 POP JUMP JUMPDEST PUSH2 0x413B DUP1 PUSH2 0x16A PUSH0 CODECOPY PUSH0 RETURN INVALID PUSH1 0x80 PUSH1 0x40 MSTORE CALLVALUE DUP1 ISZERO PUSH2 0xF JUMPI PUSH0 PUSH0 REVERT JUMPDEST POP PUSH1 0x4 CALLDATASIZE LT PUSH2 0xA7 JUMPI PUSH0 CALLDATALOAD PUSH1 0xE0 SHR DUP1 PUSH4 0x63C69F08 GT PUSH2 0x6F JUMPI DUP1 PUSH4 0x63C69F08 EQ PUSH2 0x151 JUMPI DUP1 PUSH4 0x856652E9 EQ PUSH2 0x181 JUMPI DUP1 PUSH4 0x8A46E8EB EQ PUSH2 0x1B1 JUMPI DUP1 PUSH4 0x8CE2EC79 EQ PUSH2 0x1CD JUMPI DUP1 PUSH4 0xA85C38EF EQ PUSH2 0x1FD JUMPI DUP1 PUSH4 0xAAB3196D EQ PUSH2 0x236 JUMPI PUSH2 0xA7 JUMP JUMPDEST DUP1 PUSH4 0x2A58B330 EQ PUSH2 0xAB JUMPI DUP1 PUSH4 0x3F9FB5FD EQ PUSH2 0xC9 JUMPI DUP1 PUSH4 0x42F54B89 EQ PUSH2 0xE5 JUMPI DUP1 PUSH4 0x439E61FA EQ PUSH2 0x103 JUMPI DUP1 PUSH4 0x5055AA01 EQ PUSH2 0x121 JUMPI JUMPDEST PUSH0 PUSH0 REVERT JUMPDEST PUSH2 0xB3 PUSH2 0x252 JUMP JUMPDEST PUSH1 0x40 MLOAD PUSH2 0xC0 SWAP2 SWAP1 PUSH2 0x25DE JUMP JUMPDEST PUSH1 0x40 MLOAD DUP1 SWAP2 SUB SWAP1 RETURN JUMPDEST PUSH2 0xE3 PUSH1 0x4 DUP1 CALLDATASIZE SUB DUP2 ADD SWAP1 PUSH2 0xDE SWAP2 SWAP1 PUSH2 0x2632 JUMP JUMPDEST PUSH2 0x258 JUMP JUMPDEST STOP JUMPDEST PUSH2 0xED PUSH2 0x275 JUMP JUMPDEST PUSH1 0x40 MLOAD PUSH2 0xFA SWAP2 SWAP1 PUSH2 0x26EA JUMP JUMPDEST PUSH1 0x40 MLOAD DUP1 SWAP2 SUB SWAP1 RETURN JUMPDEST PUSH2 0x10B PUSH2 0x29A JUMP JUMPDEST PUSH1 0x40 MLOAD PUSH2 0x118 SWAP2 SWAP1 PUSH2 0x2723 JUMP JUMPDEST PUSH1 0x40 MLOAD DUP1 SWAP2 SUB SWAP1 RETURN JUMPDEST PUSH2 0x13B PUSH1 0x4 DUP1 CALLDATASIZE SUB DUP2 ADD SWAP1 PUSH2 0x136 SWAP2 SWAP1 PUSH2 0x29E0 JUMP JUMPDEST PUSH2 0x2BE JUMP JUMPDEST PUSH1 0x40 MLOAD PUSH2 0x148 SWAP2 SWAP1 PUSH2 0x2E0B JUMP JUMPDEST PUSH1 0x40 MLOAD DUP1 SWAP2 SUB SWAP1 RETURN JUMPDEST PUSH2 0x16B PUSH1 0x4 DUP1 CALLDATASIZE SUB DUP2 ADD SWAP1 PUSH2 0x166 SWAP2 SWAP1 PUSH2 0x2E2B JUMP JUMPDEST PUSH2 0xE52 JUMP JUMPDEST PUSH1 0x40 MLOAD PUSH2 0x178 SWAP2 SWAP1 PUSH2 0x2EFE JUMP JUMPDEST PUSH1 0x40 MLOAD DUP1 SWAP2 SUB SWAP1 RETURN JUMPDEST PUSH2 0x19B PUSH1 0x4 DUP1 CALLDATASIZE SUB DUP2 ADD SWAP1 PUSH2 0x196 SWAP2 SWAP1 PUSH2 0x2F1E JUMP JUMPDEST PUSH2 0xEE5 JUMP JUMPDEST PUSH1 0x40 MLOAD PUSH2 0x1A8 SWAP2 SWAP1 PUSH2 0x25DE JUMP JUMPDEST PUSH1 0x40 MLOAD DUP1 SWAP2 SUB SWAP1 RETURN JUMPDEST PUSH2 0x1CB PUSH1 0x4 DUP1 CALLDATASIZE SUB DUP2 ADD SWAP1 PUSH2 0x1C6 SWAP2 SWAP1 PUSH2 0x2F7F JUMP JUMPDEST PUSH2 0xF10 JUMP JUMPDEST STOP JUMPDEST PUSH2 0x1E7 PUSH1 0x4 DUP1 CALLDATASIZE SUB DUP2 ADD SWAP1 PUSH2 0x1E2 SWAP2 SWAP1 PUSH2 0x2FF2 JUMP JUMPDEST PUSH2 0x147B JUMP JUMPDEST PUSH1 0x40 MLOAD PUSH2 0x1F4 SWAP2 SWAP1 PUSH2 0x31E0 JUMP JUMPDEST PUSH1 0x40 MLOAD DUP1 SWAP2 SUB SWAP1 RETURN JUMPDEST PUSH2 0x217 PUSH1 0x4 DUP1 CALLDATASIZE SUB DUP2 ADD SWAP1 PUSH2 0x212 SWAP2 SWAP1 PUSH2 0x3200 JUMP JUMPDEST PUSH2 0x19CD JUMP JUMPDEST PUSH1 0x40 MLOAD PUSH2 0x22D SWAP11 SWAP10 SWAP9 SWAP8 SWAP7 SWAP6 SWAP5 SWAP4 SWAP3 SWAP2 SWAP1 PUSH2 0x3291 JUMP JUMPDEST PUSH1 0x40 MLOAD DUP1 SWAP2 SUB SWAP1 RETURN JUMPDEST PUSH2 0x250 PUSH1 0x4 DUP1 CALLDATASIZE SUB DUP2 ADD SWAP1 PUSH2 0x24B SWAP2 SWAP1 PUSH2 0x3347 JUMP JUMPDEST PUSH2 0x1C60 JUMP JUMPDEST STOP JUMPDEST PUSH1 0x4 SLOAD DUP2 JUMP JUMPDEST DUP1 PUSH1 0x3 PUSH0 DUP5 DUP2 MSTORE PUSH1 0x20 ADD SWAP1 DUP2 MSTORE PUSH1 0x20 ADD PUSH0 KECCAK256 PUSH1 0x6 ADD DUP2 SWAP1 SSTORE POP POP POP JUMP JUMPDEST PUSH1 0x1 PUSH0 SWAP1 SLOAD SWAP1 PUSH2 0x100 EXP SWAP1 DIV PUSH20 0xFFFFFFFFFFFFFFFFFFFFFFFFFFFFFFFFFFFFFFFF AND DUP2 JUMP JUMPDEST PUSH0 PUSH0 SWAP1 SLOAD SWAP1 PUSH2 0x100 EXP SWAP1 DIV PUSH20 0xFFFFFFFFFFFFFFFFFFFFFFFFFFFFFFFFFFFFFFFF AND DUP2 JUMP JUMPDEST PUSH2 0x2C6 PUSH2 0x243F JUMP JUMPDEST PUSH0 DUP3 MLOAD GT PUSH2 0x309 JUMPI PUSH1 0x40 MLOAD PUSH32 0x8C379A000000000000000000000000000000000000000000000000000000000 DUP2 MSTORE PUSH1 0x4 ADD PUSH2 0x300 SWAP1 PUSH2 0x33F5 JUMP JUMPDEST PUSH1 0x40 MLOAD DUP1 SWAP2 SUB SWAP1 REVERT JUMPDEST PUSH0 PUSH0 PUSH0 SWAP1 SLOAD SWAP1 PUSH2 0x100 EXP SWAP1 DIV PUSH20 0xFFFFFFFFFFFFFFFFFFFFFFFFFFFFFFFFFFFFFFFF AND PUSH20 0xFFFFFFFFFFFFFFFFFFFFFFFFFFFFFFFFFFFFFFFF AND PUSH4 0x1E4DE872 DUP8 PUSH1 0x40 MLOAD DUP3 PUSH4 0xFFFFFFFF AND PUSH1 0xE0 SHL DUP2 MSTORE PUSH1 0x4 ADD PUSH2 0x363 SWAP2 SWAP1 PUSH2 0x25DE JUMP JUMPDEST PUSH0 PUSH1 0x40 MLOAD DUP1 DUP4 SUB DUP2 DUP7 GAS STATICCALL ISZERO DUP1 ISZERO PUSH2 0x37D JUMPI RETURNDATASIZE PUSH0 PUSH0 RETURNDATACOPY RETURNDATASIZE PUSH0 REVERT JUMPDEST POP POP POP POP PUSH1 0x40 MLOAD RETURNDATASIZE PUSH0 DUP3 RETURNDATACOPY RETURNDATASIZE PUSH1 0x1F NOT PUSH1 0x1F DUP3 ADD AND DUP3 ADD DUP1 PUSH1 0x40 MSTORE POP DUP2 ADD SWAP1 PUSH2 0x3A5 SWAP2 SWAP1 PUSH2 0x368E JUMP JUMPDEST SWAP1 POP PUSH0 PUSH0 SWAP1 POP PUSH0 PUSH1 0x4 PUSH0 DUP2 SLOAD DUP1 SWAP3 SWAP2 SWAP1 PUSH2 0x3BE SWAP1 PUSH2 0x3702 JUMP JUMPDEST SWAP2 SWAP1 POP SSTORE SWAP1 POP PUSH0 PUSH1 0x3 PUSH0 DUP4 DUP2 MSTORE PUSH1 0x20 ADD SWAP1 DUP2 MSTORE PUSH1 0x20 ADD PUSH0 KECCAK256 SWAP1 POP DUP2 DUP2 PUSH0 ADD DUP2 SWAP1 SSTORE POP DUP10 DUP2 PUSH1 0x1 ADD PUSH0 PUSH2 0x100 EXP DUP2 SLOAD DUP2 PUSH20 0xFFFFFFFFFFFFFFFFFFFFFFFFFFFFFFFFFFFFFFFF MUL NOT AND SWAP1 DUP4 PUSH20 0xFFFFFFFFFFFFFFFFFFFFFFFFFFFFFFFFFFFFFFFF AND MUL OR SWAP1 SSTORE POP DUP8 DUP2 PUSH1 0x2 ADD SWAP1 DUP2 PUSH2 0x433 SWAP2 SWAP1 PUSH2 0x393D JUMP JUMPDEST POP DUP4 PUSH1 0x20 ADD MLOAD DUP2 PUSH1 0x4 ADD SWAP1 DUP2 PUSH2 0x449 SWAP2 SWAP1 PUSH2 0x393D JUMP JUMPDEST POP PUSH0 DUP2 PUSH1 0x6 ADD DUP2 SWAP1 SSTORE POP DUP7 DUP2 PUSH1 0x3 ADD SWAP1 DUP2 PUSH2 0x464 SWAP2 SWAP1 PUSH2 0x393D JUMP JUMPDEST POP DUP4 PUSH1 0x80 ADD MLOAD PUSH0 DUP2 MLOAD DUP2 LT PUSH2 0x47C JUMPI PUSH2 0x47B PUSH2 0x3A0C JUMP JUMPDEST JUMPDEST PUSH1 0x20 MUL PUSH1 0x20 ADD ADD MLOAD DUP2 PUSH1 0x5 ADD SWAP1 DUP2 PUSH2 0x494 SWAP2 SWAP1 PUSH2 0x393D JUMP JUMPDEST POP PUSH0 DUP2 PUSH1 0x9 ADD PUSH0 PUSH2 0x100 EXP DUP2 SLOAD DUP2 PUSH1 0xFF MUL NOT AND SWAP1 DUP4 PUSH1 0x2 DUP2 GT ISZERO PUSH2 0x4BB JUMPI PUSH2 0x4BA PUSH2 0x2B52 JUMP JUMPDEST JUMPDEST MUL OR SWAP1 SSTORE POP TIMESTAMP DUP2 PUSH1 0xA ADD DUP2 SWAP1 SSTORE POP PUSH0 PUSH0 SWAP1 POP JUMPDEST DUP7 MLOAD DUP2 LT ISZERO PUSH2 0x88B JUMPI PUSH0 PUSH0 PUSH0 SWAP1 SLOAD SWAP1 PUSH2 0x100 EXP SWAP1 DIV PUSH20 0xFFFFFFFFFFFFFFFFFFFFFFFFFFFFFFFFFFFFFFFF AND PUSH20 0xFFFFFFFFFFFFFFFFFFFFFFFFFFFFFFFFFFFFFFFF AND PUSH4 0x35085515 DUP13 DUP11 DUP6 DUP2 MLOAD DUP2 LT PUSH2 0x528 JUMPI PUSH2 0x527 PUSH2 0x3A0C JUMP JUMPDEST JUMPDEST PUSH1 0x20 MUL PUSH1 0x20 ADD ADD MLOAD PUSH1 0x20 ADD MLOAD PUSH1 0x40 MLOAD DUP4 PUSH4 0xFFFFFFFF AND PUSH1 0xE0 SHL DUP2 MSTORE PUSH1 0x4 ADD PUSH2 0x551 SWAP3 SWAP2 SWAP1 PUSH2 0x3A39 JUMP JUMPDEST PUSH0 PUSH1 0x40 MLOAD DUP1 DUP4 SUB DUP2 PUSH0 DUP8 GAS CALL ISZERO DUP1 ISZERO PUSH2 0x56C JUMPI RETURNDATASIZE PUSH0 PUSH0 RETURNDATACOPY RETURNDATASIZE PUSH0 REVERT JUMPDEST POP POP POP POP PUSH1 0x40 MLOAD RETURNDATASIZE PUSH0 DUP3 RETURNDATACOPY RETURNDATASIZE PUSH1 0x1F NOT PUSH1 0x1F DUP3 ADD AND DUP3 ADD DUP1 PUSH1 0x40 MSTORE POP DUP2 ADD SWAP1 PUSH2 0x594 SWAP2 SWAP1 PUSH2 0x3B05 JUMP JUMPDEST SWAP1 POP DUP8 DUP3 DUP2 MLOAD DUP2 LT PUSH2 0x5A9 JUMPI PUSH2 0x5A8 PUSH2 0x3A0C JUMP JUMPDEST JUMPDEST PUSH1 0x20 MUL PUSH1 0x20 ADD ADD MLOAD PUSH1 0x40 ADD MLOAD DUP2 PUSH1 0x80 ADD MLOAD PUSH2 0x5C4 SWAP2 SWAP1 PUSH2 0x3B4C JUMP JUMPDEST DUP6 PUSH2 0x5CF SWAP2 SWAP1 PUSH2 0x3B8D JUMP JUMPDEST SWAP5 POP PUSH0 PUSH0 SWAP1 SLOAD SWAP1 PUSH2 0x100 EXP SWAP1 DIV PUSH20 0xFFFFFFFFFFFFFFFFFFFFFFFFFFFFFFFFFFFFFFFF AND PUSH20 0xFFFFFFFFFFFFFFFFFFFFFFFFFFFFFFFFFFFFFFFF AND PUSH4 0x9A69BFA6 DUP13 DUP11 DUP6 DUP2 MLOAD DUP2 LT PUSH2 0x621 JUMPI PUSH2 0x620 PUSH2 0x3A0C JUMP JUMPDEST JUMPDEST PUSH1 0x20 MUL PUSH1 0x20 ADD ADD MLOAD PUSH1 0x20 ADD MLOAD DUP12 DUP7 DUP2 MLOAD DUP2 LT PUSH2 0x640 JUMPI PUSH2 0x63F PUSH2 0x3A0C JUMP JUMPDEST JUMPDEST PUSH1 0x20 MUL PUSH1 0x20 ADD ADD MLOAD PUSH1 0x40 ADD MLOAD PUSH1 0x40 MLOAD DUP5 PUSH4 0xFFFFFFFF AND PUSH1 0xE0 SHL DUP2 MSTORE PUSH1 0x4 ADD PUSH2 0x66A SWAP4 SWAP3 SWAP2 SWAP1 PUSH2 0x3BC0 JUMP JUMPDEST PUSH0 PUSH1 0x40 MLOAD DUP1 DUP4 SUB DUP2 PUSH0 DUP8 DUP1 EXTCODESIZE ISZERO DUP1 ISZERO PUSH2 0x681 JUMPI PUSH0 PUSH0 REVERT JUMPDEST POP GAS CALL ISZERO DUP1 ISZERO PUSH2 0x693 JUMPI RETURNDATASIZE PUSH0 PUSH0 RETURNDATACOPY RETURNDATASIZE PUSH0 REVERT JUMPDEST POP POP POP POP PUSH0 PUSH0 SWAP1 SLOAD SWAP1 PUSH2 0x100 EXP SWAP1 DIV PUSH20 0xFFFFFFFFFFFFFFFFFFFFFFFFFFFFFFFFFFFFFFFF AND PUSH20 0xFFFFFFFFFFFFFFFFFFFFFFFFFFFFFFFFFFFFFFFF AND PUSH3 0xE081DD DUP13 DUP4 PUSH0 ADD MLOAD DUP12 DUP7 DUP2 MLOAD DUP2 LT PUSH2 0x6EA JUMPI PUSH2 0x6E9 PUSH2 0x3A0C JUMP JUMPDEST JUMPDEST PUSH1 0x20 MUL PUSH1 0x20 ADD ADD MLOAD PUSH1 0x40 ADD MLOAD PUSH1 0x40 MLOAD DUP5 PUSH4 0xFFFFFFFF AND PUSH1 0xE0 SHL DUP2 MSTORE PUSH1 0x4 ADD PUSH2 0x714 SWAP4 SWAP3 SWAP2 SWAP1 PUSH2 0x3BC0 JUMP JUMPDEST PUSH0 PUSH1 0x40 MLOAD DUP1 DUP4 SUB DUP2 PUSH0 DUP8 DUP1 EXTCODESIZE ISZERO DUP1 ISZERO PUSH2 0x72B JUMPI PUSH0 PUSH0 REVERT JUMPDEST POP GAS CALL ISZERO DUP1 ISZERO PUSH2 0x73D JUMPI RETURNDATASIZE PUSH0 PUSH0 RETURNDATACOPY RETURNDATASIZE PUSH0 REVERT JUMPDEST POP POP POP POP DUP3 PUSH1 0x7 ADD PUSH1 0x40 MLOAD DUP1 PUSH1 0xC0 ADD PUSH1 0x40 MSTORE DUP1 PUSH1 0x2 PUSH0 DUP2 SLOAD DUP1 SWAP3 SWAP2 SWAP1 PUSH2 0x762 SWAP1 PUSH2 0x3702 JUMP JUMPDEST SWAP2 SWAP1 POP SSTORE DUP2 MSTORE PUSH1 0x20 ADD DUP11 DUP6 DUP2 MLOAD DUP2 LT PUSH2 0x77E JUMPI PUSH2 0x77D PUSH2 0x3A0C JUMP JUMPDEST JUMPDEST PUSH1 0x20 MUL PUSH1 0x20 ADD ADD MLOAD PUSH1 0x20 ADD MLOAD DUP2 MSTORE PUSH1 0x20 ADD DUP11 DUP6 DUP2 MLOAD DUP2 LT PUSH2 0x7A2 JUMPI PUSH2 0x7A1 PUSH2 0x3A0C JUMP JUMPDEST JUMPDEST PUSH1 0x20 MUL PUSH1 0x20 ADD ADD MLOAD PUSH0 ADD MLOAD DUP2 MSTORE PUSH1 0x20 ADD DUP11 DUP6 DUP2 MLOAD DUP2 LT PUSH2 0x7C5 JUMPI PUSH2 0x7C4 PUSH2 0x3A0C JUMP JUMPDEST JUMPDEST PUSH1 0x20 MUL PUSH1 0x20 ADD ADD MLOAD PUSH1 0x40 ADD MLOAD DUP2 MSTORE PUSH1 0x20 ADD DUP4 PUSH1 0x80 ADD MLOAD DUP2 MSTORE PUSH1 0x20 ADD PUSH1 0x2 DUP1 DUP2 GT ISZERO PUSH2 0x7F3 JUMPI PUSH2 0x7F2 PUSH2 0x2B52 JUMP JUMPDEST JUMPDEST DUP2 MSTORE POP SWAP1 DUP1 PUSH1 0x1 DUP2 SLOAD ADD DUP1 DUP3 SSTORE DUP1 SWAP2 POP POP PUSH1 0x1 SWAP1 SUB SWAP1 PUSH0 MSTORE PUSH1 0x20 PUSH0 KECCAK256 SWAP1 PUSH1 0x6 MUL ADD PUSH0 SWAP1 SWAP2 SWAP1 SWAP2 SWAP1 SWAP2 POP PUSH0 DUP3 ADD MLOAD DUP2 PUSH0 ADD SSTORE PUSH1 0x20 DUP3 ADD MLOAD DUP2 PUSH1 0x1 ADD SSTORE PUSH1 0x40 DUP3 ADD MLOAD DUP2 PUSH1 0x2 ADD SSTORE PUSH1 0x60 DUP3 ADD MLOAD DUP2 PUSH1 0x3 ADD SSTORE PUSH1 0x80 DUP3 ADD MLOAD DUP2 PUSH1 0x4 ADD SSTORE PUSH1 0xA0 DUP3 ADD MLOAD DUP2 PUSH1 0x5 ADD PUSH0 PUSH2 0x100 EXP DUP2 SLOAD DUP2 PUSH1 0xFF MUL NOT AND SWAP1 DUP4 PUSH1 0x2 DUP2 GT ISZERO PUSH2 0x876 JUMPI PUSH2 0x875 PUSH2 0x2B52 JUMP JUMPDEST JUMPDEST MUL OR SWAP1 SSTORE POP POP POP POP DUP1 DUP1 PUSH1 0x1 ADD SWAP2 POP POP PUSH2 0x4CE JUMP JUMPDEST POP DUP3 DUP2 PUSH1 0x8 ADD DUP2 SWAP1 SSTORE POP DUP1 PUSH1 0x3 PUSH0 DUP5 DUP2 MSTORE PUSH1 0x20 ADD SWAP1 DUP2 MSTORE PUSH1 0x20 ADD PUSH0 KECCAK256 PUSH0 DUP3 ADD SLOAD DUP2 PUSH0 ADD SSTORE PUSH1 0x1 DUP3 ADD PUSH0 SWAP1 SLOAD SWAP1 PUSH2 0x100 EXP SWAP1 DIV PUSH20 0xFFFFFFFFFFFFFFFFFFFFFFFFFFFFFFFFFFFFFFFF AND DUP2 PUSH1 0x1 ADD PUSH0 PUSH2 0x100 EXP DUP2 SLOAD DUP2 PUSH20 0xFFFFFFFFFFFFFFFFFFFFFFFFFFFFFFFFFFFFFFFF MUL NOT AND SWAP1 DUP4 PUSH20 0xFFFFFFFFFFFFFFFFFFFFFFFFFFFFFFFFFFFFFFFF AND MUL OR SWAP1 SSTORE POP PUSH1 0x2 DUP3 ADD DUP2 PUSH1 0x2 ADD SWAP1 DUP2 PUSH2 0x928 SWAP2 SWAP1 PUSH2 0x3C0A JUMP JUMPDEST POP PUSH1 0x3 DUP3 ADD DUP2 PUSH1 0x3 ADD SWAP1 DUP2 PUSH2 0x93D SWAP2 SWAP1 PUSH2 0x3C0A JUMP JUMPDEST POP PUSH1 0x4 DUP3 ADD DUP2 PUSH1 0x4 ADD SWAP1 DUP2 PUSH2 0x952 SWAP2 SWAP1 PUSH2 0x3C0A JUMP JUMPDEST POP PUSH1 0x5 DUP3 ADD DUP2 PUSH1 0x5 ADD SWAP1 DUP2 PUSH2 0x967 SWAP2 SWAP1 PUSH2 0x3C0A JUMP JUMPDEST POP PUSH1 0x6 DUP3 ADD SLOAD DUP2 PUSH1 0x6 ADD SSTORE PUSH1 0x7 DUP3 ADD DUP2 PUSH1 0x7 ADD SWAP1 DUP1 SLOAD PUSH2 0x988 SWAP3 SWAP2 SWAP1 PUSH2 0x24BB JUMP JUMPDEST POP PUSH1 0x8 DUP3 ADD SLOAD DUP2 PUSH1 0x8 ADD SSTORE PUSH1 0x9 DUP3 ADD PUSH0 SWAP1 SLOAD SWAP1 PUSH2 0x100 EXP SWAP1 DIV PUSH1 0xFF AND DUP2 PUSH1 0x9 ADD PUSH0 PUSH2 0x100 EXP DUP2 SLOAD DUP2 PUSH1 0xFF MUL NOT AND SWAP1 DUP4 PUSH1 0x2 DUP2 GT ISZERO PUSH2 0x9C9 JUMPI PUSH2 0x9C8 PUSH2 0x2B52 JUMP JUMPDEST JUMPDEST MUL OR SWAP1 SSTORE POP PUSH1 0xA DUP3 ADD SLOAD DUP2 PUSH1 0xA ADD SSTORE SWAP1 POP POP PUSH1 0x5 PUSH0 DUP12 PUSH20 0xFFFFFFFFFFFFFFFFFFFFFFFFFFFFFFFFFFFFFFFF AND PUSH20 0xFFFFFFFFFFFFFFFFFFFFFFFFFFFFFFFFFFFFFFFF AND DUP2 MSTORE PUSH1 0x20 ADD SWAP1 DUP2 MSTORE PUSH1 0x20 ADD PUSH0 KECCAK256 DUP3 SWAP1 DUP1 PUSH1 0x1 DUP2 SLOAD ADD DUP1 DUP3 SSTORE DUP1 SWAP2 POP POP PUSH1 0x1 SWAP1 SUB SWAP1 PUSH0 MSTORE PUSH1 0x20 PUSH0 KECCAK256 ADD PUSH0 SWAP1 SWAP2 SWAP1 SWAP2 SWAP1 SWAP2 POP SSTORE PUSH32 0x4A7C6B1E984C5AC140F100A4898DCE117573B0FE14A829675781BE4F938A3065 DUP3 DUP12 DUP6 PUSH0 PUSH1 0x40 MLOAD PUSH2 0xA71 SWAP5 SWAP4 SWAP3 SWAP2 SWAP1 PUSH2 0x3CEF JUMP JUMPDEST PUSH1 0x40 MLOAD DUP1 SWAP2 SUB SWAP1 LOG1 DUP1 PUSH1 0x40 MLOAD DUP1 PUSH2 0x160 ADD PUSH1 0x40 MSTORE SWAP1 DUP2 PUSH0 DUP3 ADD SLOAD DUP2 MSTORE PUSH1 0x20 ADD PUSH1 0x1 DUP3 ADD PUSH0 SWAP1 SLOAD SWAP1 PUSH2 0x100 EXP SWAP1 DIV PUSH20 0xFFFFFFFFFFFFFFFFFFFFFFFFFFFFFFFFFFFFFFFF AND PUSH20 0xFFFFFFFFFFFFFFFFFFFFFFFFFFFFFFFFFFFFFFFF AND PUSH20 0xFFFFFFFFFFFFFFFFFFFFFFFFFFFFFFFFFFFFFFFF AND DUP2 MSTORE PUSH1 0x20 ADD PUSH1 0x2 DUP3 ADD DUP1 SLOAD PUSH2 0xAF4 SWAP1 PUSH2 0x3776 JUMP JUMPDEST DUP1 PUSH1 0x1F ADD PUSH1 0x20 DUP1 SWAP2 DIV MUL PUSH1 0x20 ADD PUSH1 0x40 MLOAD SWAP1 DUP2 ADD PUSH1 0x40 MSTORE DUP1 SWAP3 SWAP2 SWAP1 DUP2 DUP2 MSTORE PUSH1 0x20 ADD DUP3 DUP1 SLOAD PUSH2 0xB20 SWAP1 PUSH2 0x3776 JUMP JUMPDEST DUP1 ISZERO PUSH2 0xB6B JUMPI DUP1 PUSH1 0x1F LT PUSH2 0xB42 JUMPI PUSH2 0x100 DUP1 DUP4 SLOAD DIV MUL DUP4 MSTORE SWAP2 PUSH1 0x20 ADD SWAP2 PUSH2 0xB6B JUMP JUMPDEST DUP3 ADD SWAP2 SWAP1 PUSH0 MSTORE PUSH1 0x20 PUSH0 KECCAK256 SWAP1 JUMPDEST DUP2 SLOAD DUP2 MSTORE SWAP1 PUSH1 0x1 ADD SWAP1 PUSH1 0x20 ADD DUP1 DUP4 GT PUSH2 0xB4E JUMPI DUP3 SWAP1 SUB PUSH1 0x1F AND DUP3 ADD SWAP2 JUMPDEST POP POP POP POP POP DUP2 MSTORE PUSH1 0x20 ADD PUSH1 0x3 DUP3 ADD DUP1 SLOAD PUSH2 0xB84 SWAP1 PUSH2 0x3776 JUMP JUMPDEST DUP1 PUSH1 0x1F ADD PUSH1 0x20 DUP1 SWAP2 DIV MUL PUSH1 0x20 ADD PUSH1 0x40 MLOAD SWAP1 DUP2 ADD PUSH1 0x40 MSTORE DUP1 SWAP3 SWAP2 SWAP1 DUP2 DUP2 MSTORE PUSH1 0x20 ADD DUP3 DUP1 SLOAD PUSH2 0xBB0 SWAP1 PUSH2 0x3776 JUMP JUMPDEST DUP1 ISZERO PUSH2 0xBFB JUMPI DUP1 PUSH1 0x1F LT PUSH2 0xBD2 JUMPI PUSH2 0x100 DUP1 DUP4 SLOAD DIV MUL DUP4 MSTORE SWAP2 PUSH1 0x20 ADD SWAP2 PUSH2 0xBFB JUMP JUMPDEST DUP3 ADD SWAP2 SWAP1 PUSH0 MSTORE PUSH1 0x20 PUSH0 KECCAK256 SWAP1 JUMPDEST DUP2 SLOAD DUP2 MSTORE SWAP1 PUSH1 0x1 ADD SWAP1 PUSH1 0x20 ADD DUP1 DUP4 GT PUSH2 0xBDE JUMPI DUP3 SWAP1 SUB PUSH1 0x1F AND DUP3 ADD SWAP2 JUMPDEST POP POP POP POP POP DUP2 MSTORE PUSH1 0x20 ADD PUSH1 0x4 DUP3 ADD DUP1 SLOAD PUSH2 0xC14 SWAP1 PUSH2 0x3776 JUMP JUMPDEST DUP1 PUSH1 0x1F ADD PUSH1 0x20 DUP1 SWAP2 DIV MUL PUSH1 0x20 ADD PUSH1 0x40 MLOAD SWAP1 DUP2 ADD PUSH1 0x40 MSTORE DUP1 SWAP3 SWAP2 SWAP1 DUP2 DUP2 MSTORE PUSH1 0x20 ADD DUP3 DUP1 SLOAD PUSH2 0xC40 SWAP1 PUSH2 0x3776 JUMP JUMPDEST DUP1 ISZERO PUSH2 0xC8B JUMPI DUP1 PUSH1 0x1F LT PUSH2 0xC62 JUMPI PUSH2 0x100 DUP1 DUP4 SLOAD DIV MUL DUP4 MSTORE SWAP2 PUSH1 0x20 ADD SWAP2 PUSH2 0xC8B JUMP JUMPDEST DUP3 ADD SWAP2 SWAP1 PUSH0 MSTORE PUSH1 0x20 PUSH0 KECCAK256 SWAP1 JUMPDEST DUP2 SLOAD DUP2 MSTORE SWAP1 PUSH1 0x1 ADD SWAP1 PUSH1 0x20 ADD DUP1 DUP4 GT PUSH2 0xC6E JUMPI DUP3 SWAP1 SUB PUSH1 0x1F AND DUP3 ADD SWAP2 JUMPDEST POP POP POP POP POP DUP2 MSTORE PUSH1 0x20 ADD PUSH1 0x5 DUP3 ADD DUP1 SLOAD PUSH2 0xCA4 SWAP1 PUSH2 0x3776 JUMP JUMPDEST DUP1 PUSH1 0x1F ADD PUSH1 0x20 DUP1 SWAP2 DIV MUL PUSH1 0x20 ADD PUSH1 0x40 MLOAD SWAP1 DUP2 ADD PUSH1 0x40 MSTORE DUP1 SWAP3 SWAP2 SWAP1 DUP2 DUP2 MSTORE PUSH1 0x20 ADD DUP3 DUP1 SLOAD PUSH2 0xCD0 SWAP1 PUSH2 0x3776 JUMP JUMPDEST DUP1 ISZERO PUSH2 0xD1B JUMPI DUP1 PUSH1 0x1F LT PUSH2 0xCF2 JUMPI PUSH2 0x100 DUP1 DUP4 SLOAD DIV MUL DUP4 MSTORE SWAP2 PUSH1 0x20 ADD SWAP2 PUSH2 0xD1B JUMP JUMPDEST DUP3 ADD SWAP2 SWAP1 PUSH0 MSTORE PUSH1 0x20 PUSH0 KECCAK256 SWAP1 JUMPDEST DUP2 SLOAD DUP2 MSTORE SWAP1 PUSH1 0x1 ADD SWAP1 PUSH1 0x20 ADD DUP1 DUP4 GT PUSH2 0xCFE JUMPI DUP3 SWAP1 SUB PUSH1 0x1F AND DUP3 ADD SWAP2 JUMPDEST POP POP POP POP POP DUP2 MSTORE PUSH1 0x20 ADD PUSH1 0x6 DUP3 ADD SLOAD DUP2 MSTORE PUSH1 0x20 ADD PUSH1 0x7 DUP3 ADD DUP1 SLOAD DUP1 PUSH1 0x20 MUL PUSH1 0x20 ADD PUSH1 0x40 MLOAD SWAP1 DUP2 ADD PUSH1 0x40 MSTORE DUP1 SWAP3 SWAP2 SWAP1 DUP2 DUP2 MSTORE PUSH1 0x20 ADD PUSH0 SWAP1 JUMPDEST DUP3 DUP3 LT ISZERO PUSH2 0xDED JUMPI DUP4 DUP3 SWAP1 PUSH0 MSTORE PUSH1 0x20 PUSH0 KECCAK256 SWAP1 PUSH1 0x6 MUL ADD PUSH1 0x40 MLOAD DUP1 PUSH1 0xC0 ADD PUSH1 0x40 MSTORE SWAP1 DUP2 PUSH0 DUP3 ADD SLOAD DUP2 MSTORE PUSH1 0x20 ADD PUSH1 0x1 DUP3 ADD SLOAD DUP2 MSTORE PUSH1 0x20 ADD PUSH1 0x2 DUP3 ADD SLOAD DUP2 MSTORE PUSH1 0x20 ADD PUSH1 0x3 DUP3 ADD SLOAD DUP2 MSTORE PUSH1 0x20 ADD PUSH1 0x4 DUP3 ADD SLOAD DUP2 MSTORE PUSH1 0x20 ADD PUSH1 0x5 DUP3 ADD PUSH0 SWAP1 SLOAD SWAP1 PUSH2 0x100 EXP SWAP1 DIV PUSH1 0xFF AND PUSH1 0x2 DUP2 GT ISZERO PUSH2 0xDC8 JUMPI PUSH2 0xDC7 PUSH2 0x2B52 JUMP JUMPDEST JUMPDEST PUSH1 0x2 DUP2 GT ISZERO PUSH2 0xDDA JUMPI PUSH2 0xDD9 PUSH2 0x2B52 JUMP JUMPDEST JUMPDEST DUP2 MSTORE POP POP DUP2 MSTORE PUSH1 0x20 ADD SWAP1 PUSH1 0x1 ADD SWAP1 PUSH2 0xD52 JUMP JUMPDEST POP POP POP POP DUP2 MSTORE PUSH1 0x20 ADD PUSH1 0x8 DUP3 ADD SLOAD DUP2 MSTORE PUSH1 0x20 ADD PUSH1 0x9 DUP3 ADD PUSH0 SWAP1 SLOAD SWAP1 PUSH2 0x100 EXP SWAP1 DIV PUSH1 0xFF AND PUSH1 0x2 DUP2 GT ISZERO PUSH2 0xE23 JUMPI PUSH2 0xE22 PUSH2 0x2B52 JUMP JUMPDEST JUMPDEST PUSH1 0x2 DUP2 GT ISZERO PUSH2 0xE35 JUMPI PUSH2 0xE34 PUSH2 0x2B52 JUMP JUMPDEST JUMPDEST DUP2 MSTORE PUSH1 0x20 ADD PUSH1 0xA DUP3 ADD SLOAD DUP2 MSTORE POP POP SWAP5 POP POP POP POP POP SWAP6 SWAP5 POP POP POP POP POP JUMP JUMPDEST PUSH1 0x60 PUSH1 0x5 PUSH0 DUP4 PUSH20 0xFFFFFFFFFFFFFFFFFFFFFFFFFFFFFFFFFFFFFFFF AND PUSH20 0xFFFFFFFFFFFFFFFFFFFFFFFFFFFFFFFFFFFFFFFF AND DUP2 MSTORE PUSH1 0x20 ADD SWAP1 DUP2 MSTORE PUSH1 0x20 ADD PUSH0 KECCAK256 DUP1 SLOAD DUP1 PUSH1 0x20 MUL PUSH1 0x20 ADD PUSH1 0x40 MLOAD SWAP1 DUP2 ADD PUSH1 0x40 MSTORE DUP1 SWAP3 SWAP2 SWAP1 DUP2 DUP2 MSTORE PUSH1 0x20 ADD DUP3 DUP1 SLOAD DUP1 ISZERO PUSH2 0xED9 JUMPI PUSH1 0x20 MUL DUP3 ADD SWAP2 SWAP1 PUSH0 MSTORE PUSH1 0x20 PUSH0 KECCAK256 SWAP1 JUMPDEST DUP2 SLOAD DUP2 MSTORE PUSH1 0x20 ADD SWAP1 PUSH1 0x1 ADD SWAP1 DUP1 DUP4 GT PUSH2 0xEC5 JUMPI JUMPDEST POP POP POP POP POP SWAP1 POP SWAP2 SWAP1 POP JUMP JUMPDEST PUSH1 0x5 PUSH1 0x20 MSTORE DUP2 PUSH0 MSTORE PUSH1 0x40 PUSH0 KECCAK256 DUP2 DUP2 SLOAD DUP2 LT PUSH2 0xEFE JUMPI PUSH0 DUP1 REVERT JUMPDEST SWAP1 PUSH0 MSTORE PUSH1 0x20 PUSH0 KECCAK256 ADD PUSH0 SWAP2 POP SWAP2 POP POP SLOAD DUP2 JUMP JUMPDEST PUSH1 0x1 PUSH0 SWAP1 SLOAD SWAP1 PUSH2 0x100 EXP SWAP1 DIV PUSH20 0xFFFFFFFFFFFFFFFFFFFFFFFFFFFFFFFFFFFFFFFF AND PUSH20 0xFFFFFFFFFFFFFFFFFFFFFFFFFFFFFFFFFFFFFFFF AND PUSH4 0x24D7806C CALLER PUSH1 0x40 MLOAD DUP3 PUSH4 0xFFFFFFFF AND PUSH1 0xE0 SHL DUP2 MSTORE PUSH1 0x4 ADD PUSH2 0xF6A SWAP2 SWAP1 PUSH2 0x3D32 JUMP JUMPDEST PUSH1 0x20 PUSH1 0x40 MLOAD DUP1 DUP4 SUB DUP2 DUP7 GAS STATICCALL ISZERO DUP1 ISZERO PUSH2 0xF85 JUMPI RETURNDATASIZE PUSH0 PUSH0 RETURNDATACOPY RETURNDATASIZE PUSH0 REVERT JUMPDEST POP POP POP POP PUSH1 0x40 MLOAD RETURNDATASIZE PUSH1 0x1F NOT PUSH1 0x1F DUP3 ADD AND DUP3 ADD DUP1 PUSH1 0x40 MSTORE POP DUP2 ADD SWAP1 PUSH2 0xFA9 SWAP2 SWAP1 PUSH2 0x3D80 JUMP JUMPDEST PUSH2 0xFE8 JUMPI PUSH1 0x40 MLOAD PUSH32 0x8C379A000000000000000000000000000000000000000000000000000000000 DUP2 MSTORE PUSH1 0x4 ADD PUSH2 0xFDF SWAP1 PUSH2 0x3DF5 JUMP JUMPDEST PUSH1 0x40 MLOAD DUP1 SWAP2 SUB SWAP1 REVERT JUMPDEST PUSH0 PUSH1 0x3 PUSH0 DUP6 DUP2 MSTORE PUSH1 0x20 ADD SWAP1 DUP2 MSTORE PUSH1 0x20 ADD PUSH0 KECCAK256 PUSH0 ADD SLOAD SUB PUSH2 0x103D JUMPI PUSH1 0x40 MLOAD PUSH32 0x8C379A000000000000000000000000000000000000000000000000000000000 DUP2 MSTORE PUSH1 0x4 ADD PUSH2 0x1034 SWAP1 PUSH2 0x3E5D JUMP JUMPDEST PUSH1 0x40 MLOAD DUP1 SWAP2 SUB SWAP1 REVERT JUMPDEST PUSH0 PUSH1 0x3 PUSH0 DUP6 DUP2 MSTORE PUSH1 0x20 ADD SWAP1 DUP2 MSTORE PUSH1 0x20 ADD PUSH0 KECCAK256 PUSH1 0x7 ADD DUP1 SLOAD SWAP1 POP SUB PUSH2 0x1096 JUMPI PUSH1 0x40 MLOAD PUSH32 0x8C379A000000000000000000000000000000000000000000000000000000000 DUP2 MSTORE PUSH1 0x4 ADD PUSH2 0x108D SWAP1 PUSH2 0x3EC5 JUMP JUMPDEST PUSH1 0x40 MLOAD DUP1 SWAP2 SUB SWAP1 REVERT JUMPDEST PUSH0 PUSH1 0x3 PUSH0 DUP6 DUP2 MSTORE PUSH1 0x20 ADD SWAP1 DUP2 MSTORE PUSH1 0x20 ADD PUSH0 KECCAK256 SWAP1 POP PUSH0 PUSH0 SWAP1 POP PUSH0 PUSH0 SWAP1 POP JUMPDEST DUP3 PUSH1 0x7 ADD DUP1 SLOAD SWAP1 POP DUP2 LT ISZERO PUSH2 0x13F8 JUMPI DUP5 DUP4 PUSH1 0x7 ADD DUP3 DUP2 SLOAD DUP2 LT PUSH2 0x10D9 JUMPI PUSH2 0x10D8 PUSH2 0x3A0C JUMP JUMPDEST JUMPDEST SWAP1 PUSH0 MSTORE PUSH1 0x20 PUSH0 KECCAK256 SWAP1 PUSH1 0x6 MUL ADD PUSH0 ADD SLOAD SUB PUSH2 0x13EB JUMPI PUSH0 PUSH1 0x2 DUP2 GT ISZERO PUSH2 0x1100 JUMPI PUSH2 0x10FF PUSH2 0x2B52 JUMP JUMPDEST JUMPDEST DUP4 PUSH1 0x7 ADD DUP3 DUP2 SLOAD DUP2 LT PUSH2 0x1116 JUMPI PUSH2 0x1115 PUSH2 0x3A0C JUMP JUMPDEST JUMPDEST SWAP1 PUSH0 MSTORE PUSH1 0x20 PUSH0 KECCAK256 SWAP1 PUSH1 0x6 MUL ADD PUSH1 0x5 ADD PUSH0 SWAP1 SLOAD SWAP1 PUSH2 0x100 EXP SWAP1 DIV PUSH1 0xFF AND PUSH1 0x2 DUP2 GT ISZERO PUSH2 0x1144 JUMPI PUSH2 0x1143 PUSH2 0x2B52 JUMP JUMPDEST JUMPDEST SUB PUSH2 0x1184 JUMPI PUSH1 0x40 MLOAD PUSH32 0x8C379A000000000000000000000000000000000000000000000000000000000 DUP2 MSTORE PUSH1 0x4 ADD PUSH2 0x117B SWAP1 PUSH2 0x3F53 JUMP JUMPDEST PUSH1 0x40 MLOAD DUP1 SWAP2 SUB SWAP1 REVERT JUMPDEST DUP4 DUP4 PUSH1 0x7 ADD DUP3 DUP2 SLOAD DUP2 LT PUSH2 0x119B JUMPI PUSH2 0x119A PUSH2 0x3A0C JUMP JUMPDEST JUMPDEST SWAP1 PUSH0 MSTORE PUSH1 0x20 PUSH0 KECCAK256 SWAP1 PUSH1 0x6 MUL ADD PUSH1 0x5 ADD PUSH0 PUSH2 0x100 EXP DUP2 SLOAD DUP2 PUSH1 0xFF MUL NOT AND SWAP1 DUP4 PUSH1 0x2 DUP2 GT ISZERO PUSH2 0x11CB JUMPI PUSH2 0x11CA PUSH2 0x2B52 JUMP JUMPDEST JUMPDEST MUL OR SWAP1 SSTORE POP PUSH0 DUP4 PUSH1 0x7 ADD DUP3 DUP2 SLOAD DUP2 LT PUSH2 0x11E7 JUMPI PUSH2 0x11E6 PUSH2 0x3A0C JUMP JUMPDEST JUMPDEST SWAP1 PUSH0 MSTORE PUSH1 0x20 PUSH0 KECCAK256 SWAP1 PUSH1 0x6 MUL ADD PUSH1 0x40 MLOAD DUP1 PUSH1 0xC0 ADD PUSH1 0x40 MSTORE SWAP1 DUP2 PUSH0 DUP3 ADD SLOAD DUP2 MSTORE PUSH1 0x20 ADD PUSH1 0x1 DUP3 ADD SLOAD DUP2 MSTORE PUSH1 0x20 ADD PUSH1 0x2 DUP3 ADD SLOAD DUP2 MSTORE PUSH1 0x20 ADD PUSH1 0x3 DUP3 ADD SLOAD DUP2 MSTORE PUSH1 0x20 ADD PUSH1 0x4 DUP3 ADD SLOAD DUP2 MSTORE PUSH1 0x20 ADD PUSH1 0x5 DUP3 ADD PUSH0 SWAP1 SLOAD SWAP1 PUSH2 0x100 EXP SWAP1 DIV PUSH1 0xFF AND PUSH1 0x2 DUP2 GT ISZERO PUSH2 0x1253 JUMPI PUSH2 0x1252 PUSH2 0x2B52 JUMP JUMPDEST JUMPDEST PUSH1 0x2 DUP2 GT ISZERO PUSH2 0x1265 JUMPI PUSH2 0x1264 PUSH2 0x2B52 JUMP JUMPDEST JUMPDEST DUP2 MSTORE POP POP SWAP1 POP PUSH0 PUSH1 0x2 DUP2 GT ISZERO PUSH2 0x127E JUMPI PUSH2 0x127D PUSH2 0x2B52 JUMP JUMPDEST JUMPDEST DUP6 PUSH1 0x2 DUP2 GT ISZERO PUSH2 0x1291 JUMPI PUSH2 0x1290 PUSH2 0x2B52 JUMP JUMPDEST JUMPDEST EQ PUSH2 0x13C3 JUMPI PUSH0 PUSH0 SWAP1 SLOAD SWAP1 PUSH2 0x100 EXP SWAP1 DIV PUSH20 0xFFFFFFFFFFFFFFFFFFFFFFFFFFFFFFFFFFFFFFFF AND PUSH20 0xFFFFFFFFFFFFFFFFFFFFFFFFFFFFFFFFFFFFFFFF AND PUSH4 0x94B9A53 DUP3 PUSH1 0x40 ADD MLOAD DUP4 PUSH1 0x20 ADD MLOAD DUP5 PUSH1 0x60 ADD MLOAD PUSH1 0x40 MLOAD DUP5 PUSH4 0xFFFFFFFF AND PUSH1 0xE0 SHL DUP2 MSTORE PUSH1 0x4 ADD PUSH2 0x12FF SWAP4 SWAP3 SWAP2 SWAP1 PUSH2 0x3BC0 JUMP JUMPDEST PUSH0 PUSH1 0x40 MLOAD DUP1 DUP4 SUB DUP2 PUSH0 DUP8 DUP1 EXTCODESIZE ISZERO DUP1 ISZERO PUSH2 0x1316 JUMPI PUSH0 PUSH0 REVERT JUMPDEST POP GAS CALL ISZERO DUP1 ISZERO PUSH2 0x1328 JUMPI RETURNDATASIZE PUSH0 PUSH0 RETURNDATACOPY RETURNDATASIZE PUSH0 REVERT JUMPDEST POP POP POP POP PUSH0 PUSH0 SWAP1 SLOAD SWAP1 PUSH2 0x100 EXP SWAP1 DIV PUSH20 0xFFFFFFFFFFFFFFFFFFFFFFFFFFFFFFFFFFFFFFFF AND PUSH20 0xFFFFFFFFFFFFFFFFFFFFFFFFFFFFFFFFFFFFFFFF AND PUSH4 0x6C6B5BAF DUP3 PUSH1 0x40 ADD MLOAD DUP4 PUSH1 0x20 ADD MLOAD DUP5 PUSH1 0x60 ADD MLOAD PUSH1 0x40 MLOAD DUP5 PUSH4 0xFFFFFFFF AND PUSH1 0xE0 SHL DUP2 MSTORE PUSH1 0x4 ADD PUSH2 0x1395 SWAP4 SWAP3 SWAP2 SWAP1 PUSH2 0x3BC0 JUMP JUMPDEST PUSH0 PUSH1 0x40 MLOAD DUP1 DUP4 SUB DUP2 PUSH0 DUP8 DUP1 EXTCODESIZE ISZERO DUP1 ISZERO PUSH2 0x13AC JUMPI PUSH0 PUSH0 REVERT JUMPDEST POP GAS CALL ISZERO DUP1 ISZERO PUSH2 0x13BE JUMPI RETURNDATASIZE PUSH0 PUSH0 RETURNDATACOPY RETURNDATASIZE PUSH0 REVERT JUMPDEST POP POP POP POP JUMPDEST DUP1 PUSH1 0x80 ADD MLOAD DUP5 PUSH1 0x8 ADD PUSH0 DUP3 DUP3 SLOAD PUSH2 0x13DA SWAP2 SWAP1 PUSH2 0x3F71 JUMP JUMPDEST SWAP3 POP POP DUP2 SWAP1 SSTORE POP PUSH1 0x1 SWAP3 POP POP PUSH2 0x13F8 JUMP JUMPDEST DUP1 DUP1 PUSH1 0x1 ADD SWAP2 POP POP PUSH2 0x10B3 JUMP JUMPDEST POP DUP1 PUSH2 0x1439 JUMPI PUSH1 0x40 MLOAD PUSH32 0x8C379A000000000000000000000000000000000000000000000000000000000 DUP2 MSTORE PUSH1 0x4 ADD PUSH2 0x1430 SWAP1 PUSH2 0x3FEE JUMP JUMPDEST PUSH1 0x40 MLOAD DUP1 SWAP2 SUB SWAP1 REVERT JUMPDEST PUSH32 0xAED146B8E6504D3A57DEA2F60152E1133FA978A366CBDFBFA83328F48FF1EC09 DUP6 DUP6 DUP6 PUSH1 0x40 MLOAD PUSH2 0x146C SWAP4 SWAP3 SWAP2 SWAP1 PUSH2 0x401B JUMP JUMPDEST PUSH1 0x40 MLOAD DUP1 SWAP2 SUB SWAP1 LOG1 POP POP POP POP POP JUMP JUMPDEST PUSH1 0x60 PUSH0 PUSH0 SWAP1 POP PUSH0 PUSH1 0x1 SWAP1 POP JUMPDEST PUSH1 0x4 SLOAD DUP2 LT ISZERO PUSH2 0x14F8 JUMPI DUP4 PUSH1 0x2 DUP2 GT ISZERO PUSH2 0x14A4 JUMPI PUSH2 0x14A3 PUSH2 0x2B52 JUMP JUMPDEST JUMPDEST PUSH1 0x3 PUSH0 DUP4 DUP2 MSTORE PUSH1 0x20 ADD SWAP1 DUP2 MSTORE PUSH1 0x20 ADD PUSH0 KECCAK256 PUSH1 0x9 ADD PUSH0 SWAP1 SLOAD SWAP1 PUSH2 0x100 EXP SWAP1 DIV PUSH1 0xFF AND PUSH1 0x2 DUP2 GT ISZERO PUSH2 0x14D7 JUMPI PUSH2 0x14D6 PUSH2 0x2B52 JUMP JUMPDEST JUMPDEST SUB PUSH2 0x14EB JUMPI DUP2 DUP1 PUSH2 0x14E7 SWAP1 PUSH2 0x3702 JUMP JUMPDEST SWAP3 POP POP JUMPDEST DUP1 DUP1 PUSH1 0x1 ADD SWAP2 POP POP PUSH2 0x1487 JUMP JUMPDEST POP PUSH0 DUP2 PUSH8 0xFFFFFFFFFFFFFFFF DUP2 GT ISZERO PUSH2 0x1514 JUMPI PUSH2 0x1513 PUSH2 0x278F JUMP JUMPDEST JUMPDEST PUSH1 0x40 MLOAD SWAP1 DUP1 DUP3 MSTORE DUP1 PUSH1 0x20 MUL PUSH1 0x20 ADD DUP3 ADD PUSH1 0x40 MSTORE DUP1 ISZERO PUSH2 0x154D JUMPI DUP2 PUSH1 0x20 ADD JUMPDEST PUSH2 0x153A PUSH2 0x243F JUMP JUMPDEST DUP2 MSTORE PUSH1 0x20 ADD SWAP1 PUSH1 0x1 SWAP1 SUB SWAP1 DUP2 PUSH2 0x1532 JUMPI SWAP1 POP JUMPDEST POP SWAP1 POP PUSH0 PUSH0 SWAP1 POP PUSH0 PUSH1 0x1 SWAP1 POP JUMPDEST PUSH1 0x4 SLOAD DUP2 LT ISZERO PUSH2 0x19C1 JUMPI DUP6 PUSH1 0x2 DUP2 GT ISZERO PUSH2 0x1577 JUMPI PUSH2 0x1576 PUSH2 0x2B52 JUMP JUMPDEST JUMPDEST PUSH1 0x3 PUSH0 DUP4 DUP2 MSTORE PUSH1 0x20 ADD SWAP1 DUP2 MSTORE PUSH1 0x20 ADD PUSH0 KECCAK256 PUSH1 0x9 ADD PUSH0 SWAP1 SLOAD SWAP1 PUSH2 0x100 EXP SWAP1 DIV PUSH1 0xFF AND PUSH1 0x2 DUP2 GT ISZERO PUSH2 0x15AA JUMPI PUSH2 0x15A9 PUSH2 0x2B52 JUMP JUMPDEST JUMPDEST SUB PUSH2 0x19B4 JUMPI PUSH1 0x3 PUSH0 DUP3 DUP2 MSTORE PUSH1 0x20 ADD SWAP1 DUP2 MSTORE PUSH1 0x20 ADD PUSH0 KECCAK256 PUSH1 0x40 MLOAD DUP1 PUSH2 0x160 ADD PUSH1 0x40 MSTORE SWAP1 DUP2 PUSH0 DUP3 ADD SLOAD DUP2 MSTORE PUSH1 0x20 ADD PUSH1 0x1 DUP3 ADD PUSH0 SWAP1 SLOAD SWAP1 PUSH2 0x100 EXP SWAP1 DIV PUSH20 0xFFFFFFFFFFFFFFFFFFFFFFFFFFFFFFFFFFFFFFFF AND PUSH20 0xFFFFFFFFFFFFFFFFFFFFFFFFFFFFFFFFFFFFFFFF AND PUSH20 0xFFFFFFFFFFFFFFFFFFFFFFFFFFFFFFFFFFFFFFFF AND DUP2 MSTORE PUSH1 0x20 ADD PUSH1 0x2 DUP3 ADD DUP1 SLOAD PUSH2 0x163A SWAP1 PUSH2 0x3776 JUMP JUMPDEST DUP1 PUSH1 0x1F ADD PUSH1 0x20 DUP1 SWAP2 DIV MUL PUSH1 0x20 ADD PUSH1 0x40 MLOAD SWAP1 DUP2 ADD PUSH1 0x40 MSTORE DUP1 SWAP3 SWAP2 SWAP1 DUP2 DUP2 MSTORE PUSH1 0x20 ADD DUP3 DUP1 SLOAD PUSH2 0x1666 SWAP1 PUSH2 0x3776 JUMP JUMPDEST DUP1 ISZERO PUSH2 0x16B1 JUMPI DUP1 PUSH1 0x1F LT PUSH2 0x1688 JUMPI PUSH2 0x100 DUP1 DUP4 SLOAD DIV MUL DUP4 MSTORE SWAP2 PUSH1 0x20 ADD SWAP2 PUSH2 0x16B1 JUMP JUMPDEST DUP3 ADD SWAP2 SWAP1 PUSH0 MSTORE PUSH1 0x20 PUSH0 KECCAK256 SWAP1 JUMPDEST DUP2 SLOAD DUP2 MSTORE SWAP1 PUSH1 0x1 ADD SWAP1 PUSH1 0x20 ADD DUP1 DUP4 GT PUSH2 0x1694 JUMPI DUP3 SWAP1 SUB PUSH1 0x1F AND DUP3 ADD SWAP2 JUMPDEST POP POP POP POP POP DUP2 MSTORE PUSH1 0x20 ADD PUSH1 0x3 DUP3 ADD DUP1 SLOAD PUSH2 0x16CA SWAP1 PUSH2 0x3776 JUMP JUMPDEST DUP1 PUSH1 0x1F ADD PUSH1 0x20 DUP1 SWAP2 DIV MUL PUSH1 0x20 ADD PUSH1 0x40 MLOAD SWAP1 DUP2 ADD PUSH1 0x40 MSTORE DUP1 SWAP3 SWAP2 SWAP1 DUP2 DUP2 MSTORE PUSH1 0x20 ADD DUP3 DUP1 SLOAD PUSH2 0x16F6 SWAP1 PUSH2 0x3776 JUMP JUMPDEST DUP1 ISZERO PUSH2 0x1741 JUMPI DUP1 PUSH1 0x1F LT PUSH2 0x1718 JUMPI PUSH2 0x100 DUP1 DUP4 SLOAD DIV MUL DUP4 MSTORE SWAP2 PUSH1 0x20 ADD SWAP2 PUSH2 0x1741 JUMP JUMPDEST DUP3 ADD SWAP2 SWAP1 PUSH0 MSTORE PUSH1 0x20 PUSH0 KECCAK256 SWAP1 JUMPDEST DUP2 SLOAD DUP2 MSTORE SWAP1 PUSH1 0x1 ADD SWAP1 PUSH1 0x20 ADD DUP1 DUP4 GT PUSH2 0x1724 JUMPI DUP3 SWAP1 SUB PUSH1 0x1F AND DUP3 ADD SWAP2 JUMPDEST POP POP POP POP POP DUP2 MSTORE PUSH1 0x20 ADD PUSH1 0x4 DUP3 ADD DUP1 SLOAD PUSH2 0x175A SWAP1 PUSH2 0x3776 JUMP JUMPDEST DUP1 PUSH1 0x1F ADD PUSH1 0x20 DUP1 SWAP2 DIV MUL PUSH1 0x20 ADD PUSH1 0x40 MLOAD SWAP1 DUP2 ADD PUSH1 0x40 MSTORE DUP1 SWAP3 SWAP2 SWAP1 DUP2 DUP2 MSTORE PUSH1 0x20 ADD DUP3 DUP1 SLOAD PUSH2 0x1786 SWAP1 PUSH2 0x3776 JUMP JUMPDEST DUP1 ISZERO PUSH2 0x17D1 JUMPI DUP1 PUSH1 0x1F LT PUSH2 0x17A8 JUMPI PUSH2 0x100 DUP1 DUP4 SLOAD DIV MUL DUP4 MSTORE SWAP2 PUSH1 0x20 ADD SWAP2 PUSH2 0x17D1 JUMP JUMPDEST DUP3 ADD SWAP2 SWAP1 PUSH0 MSTORE PUSH1 0x20 PUSH0 KECCAK256 SWAP1 JUMPDEST DUP2 SLOAD DUP2 MSTORE SWAP1 PUSH1 0x1 ADD SWAP1 PUSH1 0x20 ADD DUP1 DUP4 GT PUSH2 0x17B4 JUMPI DUP3 SWAP1 SUB PUSH1 0x1F AND DUP3 ADD SWAP2 JUMPDEST POP POP POP POP POP DUP2 MSTORE PUSH1 0x20 ADD PUSH1 0x5 DUP3 ADD DUP1 SLOAD PUSH2 0x17EA SWAP1 PUSH2 0x3776 JUMP JUMPDEST DUP1 PUSH1 0x1F ADD PUSH1 0x20 DUP1 SWAP2 DIV MUL PUSH1 0x20 ADD PUSH1 0x40 MLOAD SWAP1 DUP2 ADD PUSH1 0x40 MSTORE DUP1 SWAP3 SWAP2 SWAP1 DUP2 DUP2 MSTORE PUSH1 0x20 ADD DUP3 DUP1 SLOAD PUSH2 0x1816 SWAP1 PUSH2 0x3776 JUMP JUMPDEST DUP1 ISZERO PUSH2 0x1861 JUMPI DUP1 PUSH1 0x1F LT PUSH2 0x1838 JUMPI PUSH2 0x100 DUP1 DUP4 SLOAD DIV MUL DUP4 MSTORE SWAP2 PUSH1 0x20 ADD SWAP2 PUSH2 0x1861 JUMP JUMPDEST DUP3 ADD SWAP2 SWAP1 PUSH0 MSTORE PUSH1 0x20 PUSH0 KECCAK256 SWAP1 JUMPDEST DUP2 SLOAD DUP2 MSTORE SWAP1 PUSH1 0x1 ADD SWAP1 PUSH1 0x20 ADD DUP1 DUP4 GT PUSH2 0x1844 JUMPI DUP3 SWAP1 SUB PUSH1 0x1F AND DUP3 ADD SWAP2 JUMPDEST POP POP POP POP POP DUP2 MSTORE PUSH1 0x20 ADD PUSH1 0x6 DUP3 ADD SLOAD DUP2 MSTORE PUSH1 0x20 ADD PUSH1 0x7 DUP3 ADD DUP1 SLOAD DUP1 PUSH1 0x20 MUL PUSH1 0x20 ADD PUSH1 0x40 MLOAD SWAP1 DUP2 ADD PUSH1 0x40 MSTORE DUP1 SWAP3 SWAP2 SWAP1 DUP2 DUP2 MSTORE PUSH1 0x20 ADD PUSH0 SWAP1 JUMPDEST DUP3 DUP3 LT ISZERO PUSH2 0x1933 JUMPI DUP4 DUP3 SWAP1 PUSH0 MSTORE PUSH1 0x20 PUSH0 KECCAK256 SWAP1 PUSH1 0x6 MUL ADD PUSH1 0x40 MLOAD DUP1 PUSH1 0xC0 ADD PUSH1 0x40 MSTORE SWAP1 DUP2 PUSH0 DUP3 ADD SLOAD DUP2 MSTORE PUSH1 0x20 ADD PUSH1 0x1 DUP3 ADD SLOAD DUP2 MSTORE PUSH1 0x20 ADD PUSH1 0x2 DUP3 ADD SLOAD DUP2 MSTORE PUSH1 0x20 ADD PUSH1 0x3 DUP3 ADD SLOAD DUP2 MSTORE PUSH1 0x20 ADD PUSH1 0x4 DUP3 ADD SLOAD DUP2 MSTORE PUSH1 0x20 ADD PUSH1 0x5 DUP3 ADD PUSH0 SWAP1 SLOAD SWAP1 PUSH2 0x100 EXP SWAP1 DIV PUSH1 0xFF AND PUSH1 0x2 DUP2 GT ISZERO PUSH2 0x190E JUMPI PUSH2 0x190D PUSH2 0x2B52 JUMP JUMPDEST JUMPDEST PUSH1 0x2 DUP2 GT ISZERO PUSH2 0x1920 JUMPI PUSH2 0x191F PUSH2 0x2B52 JUMP JUMPDEST JUMPDEST DUP2 MSTORE POP POP DUP2 MSTORE PUSH1 0x20 ADD SWAP1 PUSH1 0x1 ADD SWAP1 PUSH2 0x1898 JUMP JUMPDEST POP POP POP POP DUP2 MSTORE PUSH1 0x20 ADD PUSH1 0x8 DUP3 ADD SLOAD DUP2 MSTORE PUSH1 0x20 ADD PUSH1 0x9 DUP3 ADD PUSH0 SWAP1 SLOAD SWAP1 PUSH2 0x100 EXP SWAP1 DIV PUSH1 0xFF AND PUSH1 0x2 DUP2 GT ISZERO PUSH2 0x1969 JUMPI PUSH2 0x1968 PUSH2 0x2B52 JUMP JUMPDEST JUMPDEST PUSH1 0x2 DUP2 GT ISZERO PUSH2 0x197B JUMPI PUSH2 0x197A PUSH2 0x2B52 JUMP JUMPDEST JUMPDEST DUP2 MSTORE PUSH1 0x20 ADD PUSH1 0xA DUP3 ADD SLOAD DUP2 MSTORE POP POP DUP4 DUP4 DUP1 PUSH2 0x1995 SWAP1 PUSH2 0x3702 JUMP JUMPDEST SWAP5 POP DUP2 MLOAD DUP2 LT PUSH2 0x19A8 JUMPI PUSH2 0x19A7 PUSH2 0x3A0C JUMP JUMPDEST JUMPDEST PUSH1 0x20 MUL PUSH1 0x20 ADD ADD DUP2 SWAP1 MSTORE POP JUMPDEST DUP1 DUP1 PUSH1 0x1 ADD SWAP2 POP POP PUSH2 0x155A JUMP JUMPDEST POP DUP2 SWAP4 POP POP POP POP SWAP2 SWAP1 POP JUMP JUMPDEST PUSH1 0x3 PUSH1 0x20 MSTORE DUP1 PUSH0 MSTORE PUSH1 0x40 PUSH0 KECCAK256 PUSH0 SWAP2 POP SWAP1 POP DUP1 PUSH0 ADD SLOAD SWAP1 DUP1 PUSH1 0x1 ADD PUSH0 SWAP1 SLOAD SWAP1 PUSH2 0x100 EXP SWAP1 DIV PUSH20 0xFFFFFFFFFFFFFFFFFFFFFFFFFFFFFFFFFFFFFFFF AND SWAP1 DUP1 PUSH1 0x2 ADD DUP1 SLOAD PUSH2 0x1A17 SWAP1 PUSH2 0x3776 JUMP JUMPDEST DUP1 PUSH1 0x1F ADD PUSH1 0x20 DUP1 SWAP2 DIV MUL PUSH1 0x20 ADD PUSH1 0x40 MLOAD SWAP1 DUP2 ADD PUSH1 0x40 MSTORE DUP1 SWAP3 SWAP2 SWAP1 DUP2 DUP2 MSTORE PUSH1 0x20 ADD DUP3 DUP1 SLOAD PUSH2 0x1A43 SWAP1 PUSH2 0x3776 JUMP JUMPDEST DUP1 ISZERO PUSH2 0x1A8E JUMPI DUP1 PUSH1 0x1F LT PUSH2 0x1A65 JUMPI PUSH2 0x100 DUP1 DUP4 SLOAD DIV MUL DUP4 MSTORE SWAP2 PUSH1 0x20 ADD SWAP2 PUSH2 0x1A8E JUMP JUMPDEST DUP3 ADD SWAP2 SWAP1 PUSH0 MSTORE PUSH1 0x20 PUSH0 KECCAK256 SWAP1 JUMPDEST DUP2 SLOAD DUP2 MSTORE SWAP1 PUSH1 0x1 ADD SWAP1 PUSH1 0x20 ADD DUP1 DUP4 GT PUSH2 0x1A71 JUMPI DUP3 SWAP1 SUB PUSH1 0x1F AND DUP3 ADD SWAP2 JUMPDEST POP POP POP POP POP SWAP1 DUP1 PUSH1 0x3 ADD DUP1 SLOAD PUSH2 0x1AA3 SWAP1 PUSH2 0x3776 JUMP JUMPDEST DUP1 PUSH1 0x1F ADD PUSH1 0x20 DUP1 SWAP2 DIV MUL PUSH1 0x20 ADD PUSH1 0x40 MLOAD SWAP1 DUP2 ADD PUSH1 0x40 MSTORE DUP1 SWAP3 SWAP2 SWAP1 DUP2 DUP2 MSTORE PUSH1 0x20 ADD DUP3 DUP1 SLOAD PUSH2 0x1ACF SWAP1 PUSH2 0x3776 JUMP JUMPDEST DUP1 ISZERO PUSH2 0x1B1A JUMPI DUP1 PUSH1 0x1F LT PUSH2 0x1AF1 JUMPI PUSH2 0x100 DUP1 DUP4 SLOAD DIV MUL DUP4 MSTORE SWAP2 PUSH1 0x20 ADD SWAP2 PUSH2 0x1B1A JUMP JUMPDEST DUP3 ADD SWAP2 SWAP1 PUSH0 MSTORE PUSH1 0x20 PUSH0 KECCAK256 SWAP1 JUMPDEST DUP2 SLOAD DUP2 MSTORE SWAP1 PUSH1 0x1 ADD SWAP1 PUSH1 0x20 ADD DUP1 DUP4 GT PUSH2 0x1AFD JUMPI DUP3 SWAP1 SUB PUSH1 0x1F AND DUP3 ADD SWAP2 JUMPDEST POP POP POP POP POP SWAP1 DUP1 PUSH1 0x4 ADD DUP1 SLOAD PUSH2 0x1B2F SWAP1 PUSH2 0x3776 JUMP JUMPDEST DUP1 PUSH1 0x1F ADD PUSH1 0x20 DUP1 SWAP2 DIV MUL PUSH1 0x20 ADD PUSH1 0x40 MLOAD SWAP1 DUP2 ADD PUSH1 0x40 MSTORE DUP1 SWAP3 SWAP2 SWAP1 DUP2 DUP2 MSTORE PUSH1 0x20 ADD DUP3 DUP1 SLOAD PUSH2 0x1B5B SWAP1 PUSH2 0x3776 JUMP JUMPDEST DUP1 ISZERO PUSH2 0x1BA6 JUMPI DUP1 PUSH1 0x1F LT PUSH2 0x1B7D JUMPI PUSH2 0x100 DUP1 DUP4 SLOAD DIV MUL DUP4 MSTORE SWAP2 PUSH1 0x20 ADD SWAP2 PUSH2 0x1BA6 JUMP JUMPDEST DUP3 ADD SWAP2 SWAP1 PUSH0 MSTORE PUSH1 0x20 PUSH0 KECCAK256 SWAP1 JUMPDEST DUP2 SLOAD DUP2 MSTORE SWAP1 PUSH1 0x1 ADD SWAP1 PUSH1 0x20 ADD DUP1 DUP4 GT PUSH2 0x1B89 JUMPI DUP3 SWAP1 SUB PUSH1 0x1F AND DUP3 ADD SWAP2 JUMPDEST POP POP POP POP POP SWAP1 DUP1 PUSH1 0x5 ADD DUP1 SLOAD PUSH2 0x1BBB SWAP1 PUSH2 0x3776 JUMP JUMPDEST DUP1 PUSH1 0x1F ADD PUSH1 0x20 DUP1 SWAP2 DIV MUL PUSH1 0x20 ADD PUSH1 0x40 MLOAD SWAP1 DUP2 ADD PUSH1 0x40 MSTORE DUP1 SWAP3 SWAP2 SWAP1 DUP2 DUP2 MSTORE PUSH1 0x20 ADD DUP3 DUP1 SLOAD PUSH2 0x1BE7 SWAP1 PUSH2 0x3776 JUMP JUMPDEST DUP1 ISZERO PUSH2 0x1C32 JUMPI DUP1 PUSH1 0x1F LT PUSH2 0x1C09 JUMPI PUSH2 0x100 DUP1 DUP4 SLOAD DIV MUL DUP4 MSTORE SWAP2 PUSH1 0x20 ADD SWAP2 PUSH2 0x1C32 JUMP JUMPDEST DUP3 ADD SWAP2 SWAP1 PUSH0 MSTORE PUSH1 0x20 PUSH0 KECCAK256 SWAP1 JUMPDEST DUP2 SLOAD DUP2 MSTORE SWAP1 PUSH1 0x1 ADD SWAP1 PUSH1 0x20 ADD DUP1 DUP4 GT PUSH2 0x1C15 JUMPI DUP3 SWAP1 SUB PUSH1 0x1F AND DUP3 ADD SWAP2 JUMPDEST POP POP POP POP POP SWAP1 DUP1 PUSH1 0x6 ADD SLOAD SWAP1 DUP1 PUSH1 0x8 ADD SLOAD SWAP1 DUP1 PUSH1 0x9 ADD PUSH0 SWAP1 SLOAD SWAP1 PUSH2 0x100 EXP SWAP1 DIV PUSH1 0xFF AND SWAP1 DUP1 PUSH1 0xA ADD SLOAD SWAP1 POP DUP11 JUMP JUMPDEST PUSH1 0x1 PUSH0 SWAP1 SLOAD SWAP1 PUSH2 0x100 EXP SWAP1 DIV PUSH20 0xFFFFFFFFFFFFFFFFFFFFFFFFFFFFFFFFFFFFFFFF AND PUSH20 0xFFFFFFFFFFFFFFFFFFFFFFFFFFFFFFFFFFFFFFFF AND PUSH4 0x24D7806C CALLER PUSH1 0x40 MLOAD DUP3 PUSH4 0xFFFFFFFF AND PUSH1 0xE0 SHL DUP2 MSTORE PUSH1 0x4 ADD PUSH2 0x1CBA SWAP2 SWAP1 PUSH2 0x3D32 JUMP JUMPDEST PUSH1 0x20 PUSH1 0x40 MLOAD DUP1 DUP4 SUB DUP2 DUP7 GAS STATICCALL ISZERO DUP1 ISZERO PUSH2 0x1CD5 JUMPI RETURNDATASIZE PUSH0 PUSH0 RETURNDATACOPY RETURNDATASIZE PUSH0 REVERT JUMPDEST POP POP POP POP PUSH1 0x40 MLOAD RETURNDATASIZE PUSH1 0x1F NOT PUSH1 0x1F DUP3 ADD AND DUP3 ADD DUP1 PUSH1 0x40 MSTORE POP DUP2 ADD SWAP1 PUSH2 0x1CF9 SWAP2 SWAP1 PUSH2 0x3D80 JUMP JUMPDEST PUSH2 0x1D38 JUMPI PUSH1 0x40 MLOAD PUSH32 0x8C379A000000000000000000000000000000000000000000000000000000000 DUP2 MSTORE PUSH1 0x4 ADD PUSH2 0x1D2F SWAP1 PUSH2 0x3DF5 JUMP JUMPDEST PUSH1 0x40 MLOAD DUP1 SWAP2 SUB SWAP1 REVERT JUMPDEST PUSH0 PUSH1 0x3 PUSH0 DUP5 DUP2 MSTORE PUSH1 0x20 ADD SWAP1 DUP2 MSTORE PUSH1 0x20 ADD PUSH0 KECCAK256 PUSH1 0x40 MLOAD DUP1 PUSH2 0x160 ADD PUSH1 0x40 MSTORE SWAP1 DUP2 PUSH0 DUP3 ADD SLOAD DUP2 MSTORE PUSH1 0x20 ADD PUSH1 0x1 DUP3 ADD PUSH0 SWAP1 SLOAD SWAP1 PUSH2 0x100 EXP SWAP1 DIV PUSH20 0xFFFFFFFFFFFFFFFFFFFFFFFFFFFFFFFFFFFFFFFF AND PUSH20 0xFFFFFFFFFFFFFFFFFFFFFFFFFFFFFFFFFFFFFFFF AND PUSH20 0xFFFFFFFFFFFFFFFFFFFFFFFFFFFFFFFFFFFFFFFF AND DUP2 MSTORE PUSH1 0x20 ADD PUSH1 0x2 DUP3 ADD DUP1 SLOAD PUSH2 0x1DC4 SWAP1 PUSH2 0x3776 JUMP JUMPDEST DUP1 PUSH1 0x1F ADD PUSH1 0x20 DUP1 SWAP2 DIV MUL PUSH1 0x20 ADD PUSH1 0x40 MLOAD SWAP1 DUP2 ADD PUSH1 0x40 MSTORE DUP1 SWAP3 SWAP2 SWAP1 DUP2 DUP2 MSTORE PUSH1 0x20 ADD DUP3 DUP1 SLOAD PUSH2 0x1DF0 SWAP1 PUSH2 0x3776 JUMP JUMPDEST DUP1 ISZERO PUSH2 0x1E3B JUMPI DUP1 PUSH1 0x1F LT PUSH2 0x1E12 JUMPI PUSH2 0x100 DUP1 DUP4 SLOAD DIV MUL DUP4 MSTORE SWAP2 PUSH1 0x20 ADD SWAP2 PUSH2 0x1E3B JUMP JUMPDEST DUP3 ADD SWAP2 SWAP1 PUSH0 MSTORE PUSH1 0x20 PUSH0 KECCAK256 SWAP1 JUMPDEST DUP2 SLOAD DUP2 MSTORE SWAP1 PUSH1 0x1 ADD SWAP1 PUSH1 0x20 ADD DUP1 DUP4 GT PUSH2 0x1E1E JUMPI DUP3 SWAP1 SUB PUSH1 0x1F AND DUP3 ADD SWAP2 JUMPDEST POP POP POP POP POP DUP2 MSTORE PUSH1 0x20 ADD PUSH1 0x3 DUP3 ADD DUP1 SLOAD PUSH2 0x1E54 SWAP1 PUSH2 0x3776 JUMP JUMPDEST DUP1 PUSH1 0x1F ADD PUSH1 0x20 DUP1 SWAP2 DIV MUL PUSH1 0x20 ADD PUSH1 0x40 MLOAD SWAP1 DUP2 ADD PUSH1 0x40 MSTORE DUP1 SWAP3 SWAP2 SWAP1 DUP2 DUP2 MSTORE PUSH1 0x20 ADD DUP3 DUP1 SLOAD PUSH2 0x1E80 SWAP1 PUSH2 0x3776 JUMP JUMPDEST DUP1 ISZERO PUSH2 0x1ECB JUMPI DUP1 PUSH1 0x1F LT PUSH2 0x1EA2 JUMPI PUSH2 0x100 DUP1 DUP4 SLOAD DIV MUL DUP4 MSTORE SWAP2 PUSH1 0x20 ADD SWAP2 PUSH2 0x1ECB JUMP JUMPDEST DUP3 ADD SWAP2 SWAP1 PUSH0 MSTORE PUSH1 0x20 PUSH0 KECCAK256 SWAP1 JUMPDEST DUP2 SLOAD DUP2 MSTORE SWAP1 PUSH1 0x1 ADD SWAP1 PUSH1 0x20 ADD DUP1 DUP4 GT PUSH2 0x1EAE JUMPI DUP3 SWAP1 SUB PUSH1 0x1F AND DUP3 ADD SWAP2 JUMPDEST POP POP POP POP POP DUP2 MSTORE PUSH1 0x20 ADD PUSH1 0x4 DUP3 ADD DUP1 SLOAD PUSH2 0x1EE4 SWAP1 PUSH2 0x3776 JUMP JUMPDEST DUP1 PUSH1 0x1F ADD PUSH1 0x20 DUP1 SWAP2 DIV MUL PUSH1 0x20 ADD PUSH1 0x40 MLOAD SWAP1 DUP2 ADD PUSH1 0x40 MSTORE DUP1 SWAP3 SWAP2 SWAP1 DUP2 DUP2 MSTORE PUSH1 0x20 ADD DUP3 DUP1 SLOAD PUSH2 0x1F10 SWAP1 PUSH2 0x3776 JUMP JUMPDEST DUP1 ISZERO PUSH2 0x1F5B JUMPI DUP1 PUSH1 0x1F LT PUSH2 0x1F32 JUMPI PUSH2 0x100 DUP1 DUP4 SLOAD DIV MUL DUP4 MSTORE SWAP2 PUSH1 0x20 ADD SWAP2 PUSH2 0x1F5B JUMP JUMPDEST DUP3 ADD SWAP2 SWAP1 PUSH0 MSTORE PUSH1 0x20 PUSH0 KECCAK256 SWAP1 JUMPDEST DUP2 SLOAD DUP2 MSTORE SWAP1 PUSH1 0x1 ADD SWAP1 PUSH1 0x20 ADD DUP1 DUP4 GT PUSH2 0x1F3E JUMPI DUP3 SWAP1 SUB PUSH1 0x1F AND DUP3 ADD SWAP2 JUMPDEST POP POP POP POP POP DUP2 MSTORE PUSH1 0x20 ADD PUSH1 0x5 DUP3 ADD DUP1 SLOAD PUSH2 0x1F74 SWAP1 PUSH2 0x3776 JUMP JUMPDEST DUP1 PUSH1 0x1F ADD PUSH1 0x20 DUP1 SWAP2 DIV MUL PUSH1 0x20 ADD PUSH1 0x40 MLOAD SWAP1 DUP2 ADD PUSH1 0x40 MSTORE DUP1 SWAP3 SWAP2 SWAP1 DUP2 DUP2 MSTORE PUSH1 0x20 ADD DUP3 DUP1 SLOAD PUSH2 0x1FA0 SWAP1 PUSH2 0x3776 JUMP JUMPDEST DUP1 ISZERO PUSH2 0x1FEB JUMPI DUP1 PUSH1 0x1F LT PUSH2 0x1FC2 JUMPI PUSH2 0x100 DUP1 DUP4 SLOAD DIV MUL DUP4 MSTORE SWAP2 PUSH1 0x20 ADD SWAP2 PUSH2 0x1FEB JUMP JUMPDEST DUP3 ADD SWAP2 SWAP1 PUSH0 MSTORE PUSH1 0x20 PUSH0 KECCAK256 SWAP1 JUMPDEST DUP2 SLOAD DUP2 MSTORE SWAP1 PUSH1 0x1 ADD SWAP1 PUSH1 0x20 ADD DUP1 DUP4 GT PUSH2 0x1FCE JUMPI DUP3 SWAP1 SUB PUSH1 0x1F AND DUP3 ADD SWAP2 JUMPDEST POP POP POP POP POP DUP2 MSTORE PUSH1 0x20 ADD PUSH1 0x6 DUP3 ADD SLOAD DUP2 MSTORE PUSH1 0x20 ADD PUSH1 0x7 DUP3 ADD DUP1 SLOAD DUP1 PUSH1 0x20 MUL PUSH1 0x20 ADD PUSH1 0x40 MLOAD SWAP1 DUP2 ADD PUSH1 0x40 MSTORE DUP1 SWAP3 SWAP2 SWAP1 DUP2 DUP2 MSTORE PUSH1 0x20 ADD PUSH0 SWAP1 JUMPDEST DUP3 DUP3 LT ISZERO PUSH2 0x20BD JUMPI DUP4 DUP3 SWAP1 PUSH0 MSTORE PUSH1 0x20 PUSH0 KECCAK256 SWAP1 PUSH1 0x6 MUL ADD PUSH1 0x40 MLOAD DUP1 PUSH1 0xC0 ADD PUSH1 0x40 MSTORE SWAP1 DUP2 PUSH0 DUP3 ADD SLOAD DUP2 MSTORE PUSH1 0x20 ADD PUSH1 0x1 DUP3 ADD SLOAD DUP2 MSTORE PUSH1 0x20 ADD PUSH1 0x2 DUP3 ADD SLOAD DUP2 MSTORE PUSH1 0x20 ADD PUSH1 0x3 DUP3 ADD SLOAD DUP2 MSTORE PUSH1 0x20 ADD PUSH1 0x4 DUP3 ADD SLOAD DUP2 MSTORE PUSH1 0x20 ADD PUSH1 0x5 DUP3 ADD PUSH0 SWAP1 SLOAD SWAP1 PUSH2 0x100 EXP SWAP1 DIV PUSH1 0xFF AND PUSH1 0x2 DUP2 GT ISZERO PUSH2 0x2098 JUMPI PUSH2 0x2097 PUSH2 0x2B52 JUMP JUMPDEST JUMPDEST PUSH1 0x2 DUP2 GT ISZERO PUSH2 0x20AA JUMPI PUSH2 0x20A9 PUSH2 0x2B52 JUMP JUMPDEST JUMPDEST DUP2 MSTORE POP POP DUP2 MSTORE PUSH1 0x20 ADD SWAP1 PUSH1 0x1 ADD SWAP1 PUSH2 0x2022 JUMP JUMPDEST POP POP POP POP DUP2 MSTORE PUSH1 0x20 ADD PUSH1 0x8 DUP3 ADD SLOAD DUP2 MSTORE PUSH1 0x20 ADD PUSH1 0x9 DUP3 ADD PUSH0 SWAP1 SLOAD SWAP1 PUSH2 0x100 EXP SWAP1 DIV PUSH1 0xFF AND PUSH1 0x2 DUP2 GT ISZERO PUSH2 0x20F3 JUMPI PUSH2 0x20F2 PUSH2 0x2B52 JUMP JUMPDEST JUMPDEST PUSH1 0x2 DUP2 GT ISZERO PUSH2 0x2105 JUMPI PUSH2 0x2104 PUSH2 0x2B52 JUMP JUMPDEST JUMPDEST DUP2 MSTORE PUSH1 0x20 ADD PUSH1 0xA DUP3 ADD SLOAD DUP2 MSTORE POP POP SWAP1 POP PUSH0 DUP2 PUSH0 ADD MLOAD SUB PUSH2 0x215A JUMPI PUSH1 0x40 MLOAD PUSH32 0x8C379A000000000000000000000000000000000000000000000000000000000 DUP2 MSTORE PUSH1 0x4 ADD PUSH2 0x2151 SWAP1 PUSH2 0x3E5D JUMP JUMPDEST PUSH1 0x40 MLOAD DUP1 SWAP2 SUB SWAP1 REVERT JUMPDEST PUSH1 0x1 PUSH1 0x2 DUP2 GT ISZERO PUSH2 0x216E JUMPI PUSH2 0x216D PUSH2 0x2B52 JUMP JUMPDEST JUMPDEST DUP2 PUSH2 0x120 ADD MLOAD PUSH1 0x2 DUP2 GT ISZERO PUSH2 0x2186 JUMPI PUSH2 0x2185 PUSH2 0x2B52 JUMP JUMPDEST JUMPDEST SUB PUSH2 0x21C6 JUMPI PUSH1 0x40 MLOAD PUSH32 0x8C379A000000000000000000000000000000000000000000000000000000000 DUP2 MSTORE PUSH1 0x4 ADD PUSH2 0x21BD SWAP1 PUSH2 0x40C0 JUMP JUMPDEST PUSH1 0x40 MLOAD DUP1 SWAP2 SUB SWAP1 REVERT JUMPDEST PUSH0 PUSH0 SWAP1 POP JUMPDEST DUP2 PUSH1 0xE0 ADD MLOAD MLOAD DUP2 LT ISZERO PUSH2 0x23C5 JUMPI PUSH0 PUSH0 SWAP1 SLOAD SWAP1 PUSH2 0x100 EXP SWAP1 DIV PUSH20 0xFFFFFFFFFFFFFFFFFFFFFFFFFFFFFFFFFFFFFFFF AND PUSH20 0xFFFFFFFFFFFFFFFFFFFFFFFFFFFFFFFFFFFFFFFF AND PUSH4 0x94B9A53 DUP4 PUSH1 0xE0 ADD MLOAD DUP4 DUP2 MLOAD DUP2 LT PUSH2 0x222B JUMPI PUSH2 0x222A PUSH2 0x3A0C JUMP JUMPDEST JUMPDEST PUSH1 0x20 MUL PUSH1 0x20 ADD ADD MLOAD PUSH1 0x40 ADD MLOAD DUP5 PUSH1 0xE0 ADD MLOAD DUP5 DUP2 MLOAD DUP2 LT PUSH2 0x224E JUMPI PUSH2 0x224D PUSH2 0x3A0C JUMP JUMPDEST JUMPDEST PUSH1 0x20 MUL PUSH1 0x20 ADD ADD MLOAD PUSH1 0x20 ADD MLOAD DUP6 PUSH1 0xE0 ADD MLOAD DUP6 DUP2 MLOAD DUP2 LT PUSH2 0x2271 JUMPI PUSH2 0x2270 PUSH2 0x3A0C JUMP JUMPDEST JUMPDEST PUSH1 0x20 MUL PUSH1 0x20 ADD ADD MLOAD PUSH1 0x60 ADD MLOAD PUSH1 0x40 MLOAD DUP5 PUSH4 0xFFFFFFFF AND PUSH1 0xE0 SHL DUP2 MSTORE PUSH1 0x4 ADD PUSH2 0x229B SWAP4 SWAP3 SWAP2 SWAP1 PUSH2 0x3BC0 JUMP JUMPDEST PUSH0 PUSH1 0x40 MLOAD DUP1 DUP4 SUB DUP2 PUSH0 DUP8 DUP1 EXTCODESIZE ISZERO DUP1 ISZERO PUSH2 0x22B2 JUMPI PUSH0 PUSH0 REVERT JUMPDEST POP GAS CALL ISZERO DUP1 ISZERO PUSH2 0x22C4 JUMPI RETURNDATASIZE PUSH0 PUSH0 RETURNDATACOPY RETURNDATASIZE PUSH0 REVERT JUMPDEST POP POP POP POP PUSH0 PUSH0 SWAP1 SLOAD SWAP1 PUSH2 0x100 EXP SWAP1 DIV PUSH20 0xFFFFFFFFFFFFFFFFFFFFFFFFFFFFFFFFFFFFFFFF AND PUSH20 0xFFFFFFFFFFFFFFFFFFFFFFFFFFFFFFFFFFFFFFFF AND PUSH4 0x6C6B5BAF DUP4 PUSH1 0xE0 ADD MLOAD DUP4 DUP2 MLOAD DUP2 LT PUSH2 0x231B JUMPI PUSH2 0x231A PUSH2 0x3A0C JUMP JUMPDEST JUMPDEST PUSH1 0x20 MUL PUSH1 0x20 ADD ADD MLOAD PUSH1 0x40 ADD MLOAD DUP5 PUSH1 0xE0 ADD MLOAD DUP5 DUP2 MLOAD DUP2 LT PUSH2 0x233E JUMPI PUSH2 0x233D PUSH2 0x3A0C JUMP JUMPDEST JUMPDEST PUSH1 0x20 MUL PUSH1 0x20 ADD ADD MLOAD PUSH1 0x20 ADD MLOAD DUP6 PUSH1 0xE0 ADD MLOAD DUP6 DUP2 MLOAD DUP2 LT PUSH2 0x2361 JUMPI PUSH2 0x2360 PUSH2 0x3A0C JUMP JUMPDEST JUMPDEST PUSH1 0x20 MUL PUSH1 0x20 ADD ADD MLOAD PUSH1 0x60 ADD MLOAD PUSH1 0x40 MLOAD DUP5 PUSH4 0xFFFFFFFF AND PUSH1 0xE0 SHL DUP2 MSTORE PUSH1 0x4 ADD PUSH2 0x238B SWAP4 SWAP3 SWAP2 SWAP1 PUSH2 0x3BC0 JUMP JUMPDEST PUSH0 PUSH1 0x40 MLOAD DUP1 DUP4 SUB DUP2 PUSH0 DUP8 DUP1 EXTCODESIZE ISZERO DUP1 ISZERO PUSH2 0x23A2 JUMPI PUSH0 PUSH0 REVERT JUMPDEST POP GAS CALL ISZERO DUP1 ISZERO PUSH2 0x23B4 JUMPI RETURNDATASIZE PUSH0 PUSH0 RETURNDATACOPY RETURNDATASIZE PUSH0 REVERT JUMPDEST POP POP POP POP DUP1 DUP1 PUSH1 0x1 ADD SWAP2 POP POP PUSH2 0x21CB JUMP JUMPDEST POP DUP2 PUSH1 0x3 PUSH0 DUP6 DUP2 MSTORE PUSH1 0x20 ADD SWAP1 DUP2 MSTORE PUSH1 0x20 ADD PUSH0 KECCAK256 PUSH1 0x9 ADD PUSH0 PUSH2 0x100 EXP DUP2 SLOAD DUP2 PUSH1 0xFF MUL NOT AND SWAP1 DUP4 PUSH1 0x2 DUP2 GT ISZERO PUSH2 0x23FC JUMPI PUSH2 0x23FB PUSH2 0x2B52 JUMP JUMPDEST JUMPDEST MUL OR SWAP1 SSTORE POP PUSH32 0x575764E5527275E78FB8B8CECD6AE324A82D9904EF7A29349DABDFF1E1F54C35 DUP4 DUP4 PUSH1 0x40 MLOAD PUSH2 0x2432 SWAP3 SWAP2 SWAP1 PUSH2 0x40DE JUMP JUMPDEST PUSH1 0x40 MLOAD DUP1 SWAP2 SUB SWAP1 LOG1 POP POP POP JUMP JUMPDEST PUSH1 0x40 MLOAD DUP1 PUSH2 0x160 ADD PUSH1 0x40 MSTORE DUP1 PUSH0 DUP2 MSTORE PUSH1 0x20 ADD PUSH0 PUSH20 0xFFFFFFFFFFFFFFFFFFFFFFFFFFFFFFFFFFFFFFFF AND DUP2 MSTORE PUSH1 0x20 ADD PUSH1 0x60 DUP2 MSTORE PUSH1 0x20 ADD PUSH1 0x60 DUP2 MSTORE PUSH1 0x20 ADD PUSH1 0x60 DUP2 MSTORE PUSH1 0x20 ADD PUSH1 0x60 DUP2 MSTORE PUSH1 0x20 ADD PUSH0 DUP2 MSTORE PUSH1 0x20 ADD PUSH1 0x60 DUP2 MSTORE PUSH1 0x20 ADD PUSH0 DUP2 MSTORE PUSH1 0x20 ADD PUSH0 PUSH1 0x2 DUP2 GT ISZERO PUSH2 0x24AF JUMPI PUSH2 0x24AE PUSH2 0x2B52 JUMP JUMPDEST JUMPDEST DUP2 MSTORE PUSH1 0x20 ADD PUSH0 DUP2 MSTORE POP SWAP1 JUMP JUMPDEST DUP3 DUP1 SLOAD DUP3 DUP3 SSTORE SWAP1 PUSH0 MSTORE PUSH1 0x20 PUSH0 KECCAK256 SWAP1 PUSH1 0x6 MUL DUP2 ADD SWAP3 DUP3 ISZERO PUSH2 0x2569 JUMPI PUSH0 MSTORE PUSH1 0x20 PUSH0 KECCAK256 SWAP2 PUSH1 0x6 MUL DUP3 ADD JUMPDEST DUP3 DUP2 GT ISZERO PUSH2 0x2568 JUMPI DUP3 DUP3 PUSH0 DUP3 ADD SLOAD DUP2 PUSH0 ADD SSTORE PUSH1 0x1 DUP3 ADD SLOAD DUP2 PUSH1 0x1 ADD SSTORE PUSH1 0x2 DUP3 ADD SLOAD DUP2 PUSH1 0x2 ADD SSTORE PUSH1 0x3 DUP3 ADD SLOAD DUP2 PUSH1 0x3 ADD SSTORE PUSH1 0x4 DUP3 ADD SLOAD DUP2 PUSH1 0x4 ADD SSTORE PUSH1 0x5 DUP3 ADD PUSH0 SWAP1 SLOAD SWAP1 PUSH2 0x100 EXP SWAP1 DIV PUSH1 0xFF AND DUP2 PUSH1 0x5 ADD PUSH0 PUSH2 0x100 EXP DUP2 SLOAD DUP2 PUSH1 0xFF MUL NOT AND SWAP1 DUP4 PUSH1 0x2 DUP2 GT ISZERO PUSH2 0x2552 JUMPI PUSH2 0x2551 PUSH2 0x2B52 JUMP JUMPDEST JUMPDEST MUL OR SWAP1 SSTORE POP POP POP SWAP2 PUSH1 0x6 ADD SWAP2 SWAP1 PUSH1 0x6 ADD SWAP1 PUSH2 0x24E2 JUMP JUMPDEST JUMPDEST POP SWAP1 POP PUSH2 0x2576 SWAP2 SWAP1 PUSH2 0x257A JUMP JUMPDEST POP SWAP1 JUMP JUMPDEST JUMPDEST DUP1 DUP3 GT ISZERO PUSH2 0x25C2 JUMPI PUSH0 PUSH0 DUP3 ADD PUSH0 SWAP1 SSTORE PUSH1 0x1 DUP3 ADD PUSH0 SWAP1 SSTORE PUSH1 0x2 DUP3 ADD PUSH0 SWAP1 SSTORE PUSH1 0x3 DUP3 ADD PUSH0 SWAP1 SSTORE PUSH1 0x4 DUP3 ADD PUSH0 SWAP1 SSTORE PUSH1 0x5 DUP3 ADD PUSH0 PUSH2 0x100 EXP DUP2 SLOAD SWAP1 PUSH1 0xFF MUL NOT AND SWAP1 SSTORE POP PUSH1 0x6 ADD PUSH2 0x257B JUMP JUMPDEST POP SWAP1 JUMP JUMPDEST PUSH0 DUP2 SWAP1 POP SWAP2 SWAP1 POP JUMP JUMPDEST PUSH2 0x25D8 DUP2 PUSH2 0x25C6 JUMP JUMPDEST DUP3 MSTORE POP POP JUMP JUMPDEST PUSH0 PUSH1 0x20 DUP3 ADD SWAP1 POP PUSH2 0x25F1 PUSH0 DUP4 ADD DUP5 PUSH2 0x25CF JUMP JUMPDEST SWAP3 SWAP2 POP POP JUMP JUMPDEST PUSH0 PUSH1 0x40 MLOAD SWAP1 POP SWAP1 JUMP JUMPDEST PUSH0 PUSH0 REVERT JUMPDEST PUSH0 PUSH0 REVERT JUMPDEST PUSH2 0x2611 DUP2 PUSH2 0x25C6 JUMP JUMPDEST DUP2 EQ PUSH2 0x261B JUMPI PUSH0 PUSH0 REVERT JUMPDEST POP JUMP JUMPDEST PUSH0 DUP2 CALLDATALOAD SWAP1 POP PUSH2 0x262C DUP2 PUSH2 0x2608 JUMP JUMPDEST SWAP3 SWAP2 POP POP JUMP JUMPDEST PUSH0 PUSH0 PUSH1 0x40 DUP4 DUP6 SUB SLT ISZERO PUSH2 0x2648 JUMPI PUSH2 0x2647 PUSH2 0x2600 JUMP JUMPDEST JUMPDEST PUSH0 PUSH2 0x2655 DUP6 DUP3 DUP7 ADD PUSH2 0x261E JUMP JUMPDEST SWAP3 POP POP PUSH1 0x20 PUSH2 0x2666 DUP6 DUP3 DUP7 ADD PUSH2 0x261E JUMP JUMPDEST SWAP2 POP POP SWAP3 POP SWAP3 SWAP1 POP JUMP JUMPDEST PUSH0 PUSH20 0xFFFFFFFFFFFFFFFFFFFFFFFFFFFFFFFFFFFFFFFF DUP3 AND SWAP1 POP SWAP2 SWAP1 POP JUMP JUMPDEST PUSH0 DUP2 SWAP1 POP SWAP2 SWAP1 POP JUMP JUMPDEST PUSH0 PUSH2 0x26B2 PUSH2 0x26AD PUSH2 0x26A8 DUP5 PUSH2 0x2670 JUMP JUMPDEST PUSH2 0x268F JUMP JUMPDEST PUSH2 0x2670 JUMP JUMPDEST SWAP1 POP SWAP2 SWAP1 POP JUMP JUMPDEST PUSH0 PUSH2 0x26C3 DUP3 PUSH2 0x2698 JUMP JUMPDEST SWAP1 POP SWAP2 SWAP1 POP JUMP JUMPDEST PUSH0 PUSH2 0x26D4 DUP3 PUSH2 0x26B9 JUMP JUMPDEST SWAP1 POP SWAP2 SWAP1 POP JUMP JUMPDEST PUSH2 0x26E4 DUP2 PUSH2 0x26CA JUMP JUMPDEST DUP3 MSTORE POP POP JUMP JUMPDEST PUSH0 PUSH1 0x20 DUP3 ADD SWAP1 POP PUSH2 0x26FD PUSH0 DUP4 ADD DUP5 PUSH2 0x26DB JUMP JUMPDEST SWAP3 SWAP2 POP POP JUMP JUMPDEST PUSH0 PUSH2 0x270D DUP3 PUSH2 0x26B9 JUMP JUMPDEST SWAP1 POP SWAP2 SWAP1 POP JUMP JUMPDEST PUSH2 0x271D DUP2 PUSH2 0x2703 JUMP JUMPDEST DUP3 MSTORE POP POP JUMP JUMPDEST PUSH0 PUSH1 0x20 DUP3 ADD SWAP1 POP PUSH2 0x2736 PUSH0 DUP4 ADD DUP5 PUSH2 0x2714 JUMP JUMPDEST SWAP3 SWAP2 POP POP JUMP JUMPDEST PUSH0 PUSH2 0x2746 DUP3 PUSH2 0x2670 JUMP JUMPDEST SWAP1 POP SWAP2 SWAP1 POP JUMP JUMPDEST PUSH2 0x2756 DUP2 PUSH2 0x273C JUMP JUMPDEST DUP2 EQ PUSH2 0x2760 JUMPI PUSH0 PUSH0 REVERT JUMPDEST POP JUMP JUMPDEST PUSH0 DUP2 CALLDATALOAD SWAP1 POP PUSH2 0x2771 DUP2 PUSH2 0x274D JUMP JUMPDEST SWAP3 SWAP2 POP POP JUMP JUMPDEST PUSH0 PUSH0 REVERT JUMPDEST PUSH0 PUSH0 REVERT JUMPDEST PUSH0 PUSH1 0x1F NOT PUSH1 0x1F DUP4 ADD AND SWAP1 POP SWAP2 SWAP1 POP JUMP JUMPDEST PUSH32 0x4E487B7100000000000000000000000000000000000000000000000000000000 PUSH0 MSTORE PUSH1 0x41 PUSH1 0x4 MSTORE PUSH1 0x24 PUSH0 REVERT JUMPDEST PUSH2 0x27C5 DUP3 PUSH2 0x277F JUMP JUMPDEST DUP2 ADD DUP2 DUP2 LT PUSH8 0xFFFFFFFFFFFFFFFF DUP3 GT OR ISZERO PUSH2 0x27E4 JUMPI PUSH2 0x27E3 PUSH2 0x278F JUMP JUMPDEST JUMPDEST DUP1 PUSH1 0x40 MSTORE POP POP POP JUMP JUMPDEST PUSH0 PUSH2 0x27F6 PUSH2 0x25F7 JUMP JUMPDEST SWAP1 POP PUSH2 0x2802 DUP3 DUP3 PUSH2 0x27BC JUMP JUMPDEST SWAP2 SWAP1 POP JUMP JUMPDEST PUSH0 PUSH8 0xFFFFFFFFFFFFFFFF DUP3 GT ISZERO PUSH2 0x2821 JUMPI PUSH2 0x2820 PUSH2 0x278F JUMP JUMPDEST JUMPDEST PUSH2 0x282A DUP3 PUSH2 0x277F JUMP JUMPDEST SWAP1 POP PUSH1 0x20 DUP2 ADD SWAP1 POP SWAP2 SWAP1 POP JUMP JUMPDEST DUP3 DUP2 DUP4 CALLDATACOPY PUSH0 DUP4 DUP4 ADD MSTORE POP POP POP JUMP JUMPDEST PUSH0 PUSH2 0x2857 PUSH2 0x2852 DUP5 PUSH2 0x2807 JUMP JUMPDEST PUSH2 0x27ED JUMP JUMPDEST SWAP1 POP DUP3 DUP2 MSTORE PUSH1 0x20 DUP2 ADD DUP5 DUP5 DUP5 ADD GT ISZERO PUSH2 0x2873 JUMPI PUSH2 0x2872 PUSH2 0x277B JUMP JUMPDEST JUMPDEST PUSH2 0x287E DUP5 DUP3 DUP6 PUSH2 0x2837 JUMP JUMPDEST POP SWAP4 SWAP3 POP POP POP JUMP JUMPDEST PUSH0 DUP3 PUSH1 0x1F DUP4 ADD SLT PUSH2 0x289A JUMPI PUSH2 0x2899 PUSH2 0x2777 JUMP JUMPDEST JUMPDEST DUP2 CALLDATALOAD PUSH2 0x28AA DUP5 DUP3 PUSH1 0x20 DUP7 ADD PUSH2 0x2845 JUMP JUMPDEST SWAP2 POP POP SWAP3 SWAP2 POP POP JUMP JUMPDEST PUSH0 PUSH8 0xFFFFFFFFFFFFFFFF DUP3 GT ISZERO PUSH2 0x28CD JUMPI PUSH2 0x28CC PUSH2 0x278F JUMP JUMPDEST JUMPDEST PUSH1 0x20 DUP3 MUL SWAP1 POP PUSH1 0x20 DUP2 ADD SWAP1 POP SWAP2 SWAP1 POP JUMP JUMPDEST PUSH0 PUSH0 REVERT JUMPDEST PUSH0 PUSH0 REVERT JUMPDEST PUSH0 PUSH0 REVERT JUMPDEST PUSH0 PUSH1 0x60 DUP3 DUP5 SUB SLT ISZERO PUSH2 0x28FF JUMPI PUSH2 0x28FE PUSH2 0x28E2 JUMP JUMPDEST JUMPDEST PUSH2 0x2909 PUSH1 0x60 PUSH2 0x27ED JUMP JUMPDEST SWAP1 POP PUSH0 PUSH2 0x2918 DUP5 DUP3 DUP6 ADD PUSH2 0x261E JUMP JUMPDEST PUSH0 DUP4 ADD MSTORE POP PUSH1 0x20 PUSH2 0x292B DUP5 DUP3 DUP6 ADD PUSH2 0x261E JUMP JUMPDEST PUSH1 0x20 DUP4 ADD MSTORE POP PUSH1 0x40 PUSH2 0x293F DUP5 DUP3 DUP6 ADD PUSH2 0x261E JUMP JUMPDEST PUSH1 0x40 DUP4 ADD MSTORE POP SWAP3 SWAP2 POP POP JUMP JUMPDEST PUSH0 PUSH2 0x295D PUSH2 0x2958 DUP5 PUSH2 0x28B3 JUMP JUMPDEST PUSH2 0x27ED JUMP JUMPDEST SWAP1 POP DUP1 DUP4 DUP3 MSTORE PUSH1 0x20 DUP3 ADD SWAP1 POP PUSH1 0x60 DUP5 MUL DUP4 ADD DUP6 DUP2 GT ISZERO PUSH2 0x2980 JUMPI PUSH2 0x297F PUSH2 0x28DE JUMP JUMPDEST JUMPDEST DUP4 JUMPDEST DUP2 DUP2 LT ISZERO PUSH2 0x29A9 JUMPI DUP1 PUSH2 0x2995 DUP9 DUP3 PUSH2 0x28EA JUMP JUMPDEST DUP5 MSTORE PUSH1 0x20 DUP5 ADD SWAP4 POP POP PUSH1 0x60 DUP2 ADD SWAP1 POP PUSH2 0x2982 JUMP JUMPDEST POP POP POP SWAP4 SWAP3 POP POP POP JUMP JUMPDEST PUSH0 DUP3 PUSH1 0x1F DUP4 ADD SLT PUSH2 0x29C7 JUMPI PUSH2 0x29C6 PUSH2 0x2777 JUMP JUMPDEST JUMPDEST DUP2 CALLDATALOAD PUSH2 0x29D7 DUP5 DUP3 PUSH1 0x20 DUP7 ADD PUSH2 0x294B JUMP JUMPDEST SWAP2 POP POP SWAP3 SWAP2 POP POP JUMP JUMPDEST PUSH0 PUSH0 PUSH0 PUSH0 PUSH0 PUSH1 0xA0 DUP7 DUP9 SUB SLT ISZERO PUSH2 0x29F9 JUMPI PUSH2 0x29F8 PUSH2 0x2600 JUMP JUMPDEST JUMPDEST PUSH0 PUSH2 0x2A06 DUP9 DUP3 DUP10 ADD PUSH2 0x2763 JUMP JUMPDEST SWAP6 POP POP PUSH1 0x20 PUSH2 0x2A17 DUP9 DUP3 DUP10 ADD PUSH2 0x261E JUMP JUMPDEST SWAP5 POP POP PUSH1 0x40 DUP7 ADD CALLDATALOAD PUSH8 0xFFFFFFFFFFFFFFFF DUP2 GT ISZERO PUSH2 0x2A38 JUMPI PUSH2 0x2A37 PUSH2 0x2604 JUMP JUMPDEST JUMPDEST PUSH2 0x2A44 DUP9 DUP3 DUP10 ADD PUSH2 0x2886 JUMP JUMPDEST SWAP4 POP POP PUSH1 0x60 DUP7 ADD CALLDATALOAD PUSH8 0xFFFFFFFFFFFFFFFF DUP2 GT ISZERO PUSH2 0x2A65 JUMPI PUSH2 0x2A64 PUSH2 0x2604 JUMP JUMPDEST JUMPDEST PUSH2 0x2A71 DUP9 DUP3 DUP10 ADD PUSH2 0x2886 JUMP JUMPDEST SWAP3 POP POP PUSH1 0x80 DUP7 ADD CALLDATALOAD PUSH8 0xFFFFFFFFFFFFFFFF DUP2 GT ISZERO PUSH2 0x2A92 JUMPI PUSH2 0x2A91 PUSH2 0x2604 JUMP JUMPDEST JUMPDEST PUSH2 0x2A9E DUP9 DUP3 DUP10 ADD PUSH2 0x29B3 JUMP JUMPDEST SWAP2 POP POP SWAP3 SWAP6 POP SWAP3 SWAP6 SWAP1 SWAP4 POP JUMP JUMPDEST PUSH2 0x2AB4 DUP2 PUSH2 0x25C6 JUMP JUMPDEST DUP3 MSTORE POP POP JUMP JUMPDEST PUSH2 0x2AC3 DUP2 PUSH2 0x273C JUMP JUMPDEST DUP3 MSTORE POP POP JUMP JUMPDEST PUSH0 DUP2 MLOAD SWAP1 POP SWAP2 SWAP1 POP JUMP JUMPDEST PUSH0 DUP3 DUP3 MSTORE PUSH1 0x20 DUP3 ADD SWAP1 POP SWAP3 SWAP2 POP POP JUMP JUMPDEST DUP3 DUP2 DUP4 MCOPY PUSH0 DUP4 DUP4 ADD MSTORE POP POP POP JUMP JUMPDEST PUSH0 PUSH2 0x2AFB DUP3 PUSH2 0x2AC9 JUMP JUMPDEST PUSH2 0x2B05 DUP2 DUP6 PUSH2 0x2AD3 JUMP JUMPDEST SWAP4 POP PUSH2 0x2B15 DUP2 DUP6 PUSH1 0x20 DUP7 ADD PUSH2 0x2AE3 JUMP JUMPDEST PUSH2 0x2B1E DUP2 PUSH2 0x277F JUMP JUMPDEST DUP5 ADD SWAP2 POP POP SWAP3 SWAP2 POP POP JUMP JUMPDEST PUSH0 DUP2 MLOAD SWAP1 POP SWAP2 SWAP1 POP JUMP JUMPDEST PUSH0 DUP3 DUP3 MSTORE PUSH1 0x20 DUP3 ADD SWAP1 POP SWAP3 SWAP2 POP POP JUMP JUMPDEST PUSH0 DUP2 SWAP1 POP PUSH1 0x20 DUP3 ADD SWAP1 POP SWAP2 SWAP1 POP JUMP JUMPDEST PUSH32 0x4E487B7100000000000000000000000000000000000000000000000000000000 PUSH0 MSTORE PUSH1 0x21 PUSH1 0x4 MSTORE PUSH1 0x24 PUSH0 REVERT JUMPDEST PUSH1 0x3 DUP2 LT PUSH2 0x2B90 JUMPI PUSH2 0x2B8F PUSH2 0x2B52 JUMP JUMPDEST JUMPDEST POP JUMP JUMPDEST PUSH0 DUP2 SWAP1 POP PUSH2 0x2BA0 DUP3 PUSH2 0x2B7F JUMP JUMPDEST SWAP2 SWAP1 POP JUMP JUMPDEST PUSH0 PUSH2 0x2BAF DUP3 PUSH2 0x2B93 JUMP JUMPDEST SWAP1 POP SWAP2 SWAP1 POP JUMP JUMPDEST PUSH2 0x2BBF DUP2 PUSH2 0x2BA5 JUMP JUMPDEST DUP3 MSTORE POP POP JUMP JUMPDEST PUSH1 0xC0 DUP3 ADD PUSH0 DUP3 ADD MLOAD PUSH2 0x2BD9 PUSH0 DUP6 ADD DUP3 PUSH2 0x2AAB JUMP JUMPDEST POP PUSH1 0x20 DUP3 ADD MLOAD PUSH2 0x2BEC PUSH1 0x20 DUP6 ADD DUP3 PUSH2 0x2AAB JUMP JUMPDEST POP PUSH1 0x40 DUP3 ADD MLOAD PUSH2 0x2BFF PUSH1 0x40 DUP6 ADD DUP3 PUSH2 0x2AAB JUMP JUMPDEST POP PUSH1 0x60 DUP3 ADD MLOAD PUSH2 0x2C12 PUSH1 0x60 DUP6 ADD DUP3 PUSH2 0x2AAB JUMP JUMPDEST POP PUSH1 0x80 DUP3 ADD MLOAD PUSH2 0x2C25 PUSH1 0x80 DUP6 ADD DUP3 PUSH2 0x2AAB JUMP JUMPDEST POP PUSH1 0xA0 DUP3 ADD MLOAD PUSH2 0x2C38 PUSH1 0xA0 DUP6 ADD DUP3 PUSH2 0x2BB6 JUMP JUMPDEST POP POP POP POP JUMP JUMPDEST PUSH0 PUSH2 0x2C49 DUP4 DUP4 PUSH2 0x2BC5 JUMP JUMPDEST PUSH1 0xC0 DUP4 ADD SWAP1 POP SWAP3 SWAP2 POP POP JUMP JUMPDEST PUSH0 PUSH1 0x20 DUP3 ADD SWAP1 POP SWAP2 SWAP1 POP JUMP JUMPDEST PUSH0 PUSH2 0x2C6B DUP3 PUSH2 0x2B29 JUMP JUMPDEST PUSH2 0x2C75 DUP2 DUP6 PUSH2 0x2B33 JUMP JUMPDEST SWAP4 POP PUSH2 0x2C80 DUP4 PUSH2 0x2B43 JUMP JUMPDEST DUP1 PUSH0 JUMPDEST DUP4 DUP2 LT ISZERO PUSH2 0x2CB0 JUMPI DUP2 MLOAD PUSH2 0x2C97 DUP9 DUP3 PUSH2 0x2C3E JUMP JUMPDEST SWAP8 POP PUSH2 0x2CA2 DUP4 PUSH2 0x2C55 JUMP JUMPDEST SWAP3 POP POP PUSH1 0x1 DUP2 ADD SWAP1 POP PUSH2 0x2C83 JUMP JUMPDEST POP DUP6 SWAP4 POP POP POP POP SWAP3 SWAP2 POP POP JUMP JUMPDEST PUSH1 0x3 DUP2 LT PUSH2 0x2CCE JUMPI PUSH2 0x2CCD PUSH2 0x2B52 JUMP JUMPDEST JUMPDEST POP JUMP JUMPDEST PUSH0 DUP2 SWAP1 POP PUSH2 0x2CDE DUP3 PUSH2 0x2CBD JUMP JUMPDEST SWAP2 SWAP1 POP JUMP JUMPDEST PUSH0 PUSH2 0x2CED DUP3 PUSH2 0x2CD1 JUMP JUMPDEST SWAP1 POP SWAP2 SWAP1 POP JUMP JUMPDEST PUSH2 0x2CFD DUP2 PUSH2 0x2CE3 JUMP JUMPDEST DUP3 MSTORE POP POP JUMP JUMPDEST PUSH0 PUSH2 0x160 DUP4 ADD PUSH0 DUP4 ADD MLOAD PUSH2 0x2D19 PUSH0 DUP7 ADD DUP3 PUSH2 0x2AAB JUMP JUMPDEST POP PUSH1 0x20 DUP4 ADD MLOAD PUSH2 0x2D2C PUSH1 0x20 DUP7 ADD DUP3 PUSH2 0x2ABA JUMP JUMPDEST POP PUSH1 0x40 DUP4 ADD MLOAD DUP5 DUP3 SUB PUSH1 0x40 DUP7 ADD MSTORE PUSH2 0x2D44 DUP3 DUP3 PUSH2 0x2AF1 JUMP JUMPDEST SWAP2 POP POP PUSH1 0x60 DUP4 ADD MLOAD DUP5 DUP3 SUB PUSH1 0x60 DUP7 ADD MSTORE PUSH2 0x2D5E DUP3 DUP3 PUSH2 0x2AF1 JUMP JUMPDEST SWAP2 POP POP PUSH1 0x80 DUP4 ADD MLOAD DUP5 DUP3 SUB PUSH1 0x80 DUP7 ADD MSTORE PUSH2 0x2D78 DUP3 DUP3 PUSH2 0x2AF1 JUMP JUMPDEST SWAP2 POP POP PUSH1 0xA0 DUP4 ADD MLOAD DUP5 DUP3 SUB PUSH1 0xA0 DUP7 ADD MSTORE PUSH2 0x2D92 DUP3 DUP3 PUSH2 0x2AF1 JUMP JUMPDEST SWAP2 POP POP PUSH1 0xC0 DUP4 ADD MLOAD PUSH2 0x2DA7 PUSH1 0xC0 DUP7 ADD DUP3 PUSH2 0x2AAB JUMP JUMPDEST POP PUSH1 0xE0 DUP4 ADD MLOAD DUP5 DUP3 SUB PUSH1 0xE0 DUP7 ADD MSTORE PUSH2 0x2DBF DUP3 DUP3 PUSH2 0x2C61 JUMP JUMPDEST SWAP2 POP POP PUSH2 0x100 DUP4 ADD MLOAD PUSH2 0x2DD6 PUSH2 0x100 DUP7 ADD DUP3 PUSH2 0x2AAB JUMP JUMPDEST POP PUSH2 0x120 DUP4 ADD MLOAD PUSH2 0x2DEB PUSH2 0x120 DUP7 ADD DUP3 PUSH2 0x2CF4 JUMP JUMPDEST POP PUSH2 0x140 DUP4 ADD MLOAD PUSH2 0x2E00 PUSH2 0x140 DUP7 ADD DUP3 PUSH2 0x2AAB JUMP JUMPDEST POP DUP1 SWAP2 POP POP SWAP3 SWAP2 POP POP JUMP JUMPDEST PUSH0 PUSH1 0x20 DUP3 ADD SWAP1 POP DUP2 DUP2 SUB PUSH0 DUP4 ADD MSTORE PUSH2 0x2E23 DUP2 DUP5 PUSH2 0x2D03 JUMP JUMPDEST SWAP1 POP SWAP3 SWAP2 POP POP JUMP JUMPDEST PUSH0 PUSH1 0x20 DUP3 DUP5 SUB SLT ISZERO PUSH2 0x2E40 JUMPI PUSH2 0x2E3F PUSH2 0x2600 JUMP JUMPDEST JUMPDEST PUSH0 PUSH2 0x2E4D DUP5 DUP3 DUP6 ADD PUSH2 0x2763 JUMP JUMPDEST SWAP2 POP POP SWAP3 SWAP2 POP POP JUMP JUMPDEST PUSH0 DUP2 MLOAD SWAP1 POP SWAP2 SWAP1 POP JUMP JUMPDEST PUSH0 DUP3 DUP3 MSTORE PUSH1 0x20 DUP3 ADD SWAP1 POP SWAP3 SWAP2 POP POP JUMP JUMPDEST PUSH0 DUP2 SWAP1 POP PUSH1 0x20 DUP3 ADD SWAP1 POP SWAP2 SWAP1 POP JUMP JUMPDEST PUSH0 PUSH2 0x2E8A DUP4 DUP4 PUSH2 0x2AAB JUMP JUMPDEST PUSH1 0x20 DUP4 ADD SWAP1 POP SWAP3 SWAP2 POP POP JUMP JUMPDEST PUSH0 PUSH1 0x20 DUP3 ADD SWAP1 POP SWAP2 SWAP1 POP JUMP JUMPDEST PUSH0 PUSH2 0x2EAC DUP3 PUSH2 0x2E56 JUMP JUMPDEST PUSH2 0x2EB6 DUP2 DUP6 PUSH2 0x2E60 JUMP JUMPDEST SWAP4 POP PUSH2 0x2EC1 DUP4 PUSH2 0x2E70 JUMP JUMPDEST DUP1 PUSH0 JUMPDEST DUP4 DUP2 LT ISZERO PUSH2 0x2EF1 JUMPI DUP2 MLOAD PUSH2 0x2ED8 DUP9 DUP3 PUSH2 0x2E7F JUMP JUMPDEST SWAP8 POP PUSH2 0x2EE3 DUP4 PUSH2 0x2E96 JUMP JUMPDEST SWAP3 POP POP PUSH1 0x1 DUP2 ADD SWAP1 POP PUSH2 0x2EC4 JUMP JUMPDEST POP DUP6 SWAP4 POP POP POP POP SWAP3 SWAP2 POP POP JUMP JUMPDEST PUSH0 PUSH1 0x20 DUP3 ADD SWAP1 POP DUP2 DUP2 SUB PUSH0 DUP4 ADD MSTORE PUSH2 0x2F16 DUP2 DUP5 PUSH2 0x2EA2 JUMP JUMPDEST SWAP1 POP SWAP3 SWAP2 POP POP JUMP JUMPDEST PUSH0 PUSH0 PUSH1 0x40 DUP4 DUP6 SUB SLT ISZERO PUSH2 0x2F34 JUMPI PUSH2 0x2F33 PUSH2 0x2600 JUMP JUMPDEST JUMPDEST PUSH0 PUSH2 0x2F41 DUP6 DUP3 DUP7 ADD PUSH2 0x2763 JUMP JUMPDEST SWAP3 POP POP PUSH1 0x20 PUSH2 0x2F52 DUP6 DUP3 DUP7 ADD PUSH2 0x261E JUMP JUMPDEST SWAP2 POP POP SWAP3 POP SWAP3 SWAP1 POP JUMP JUMPDEST PUSH1 0x3 DUP2 LT PUSH2 0x2F68 JUMPI PUSH0 PUSH0 REVERT JUMPDEST POP JUMP JUMPDEST PUSH0 DUP2 CALLDATALOAD SWAP1 POP PUSH2 0x2F79 DUP2 PUSH2 0x2F5C JUMP JUMPDEST SWAP3 SWAP2 POP POP JUMP JUMPDEST PUSH0 PUSH0 PUSH0 PUSH1 0x60 DUP5 DUP7 SUB SLT ISZERO PUSH2 0x2F96 JUMPI PUSH2 0x2F95 PUSH2 0x2600 JUMP JUMPDEST JUMPDEST PUSH0 PUSH2 0x2FA3 DUP7 DUP3 DUP8 ADD PUSH2 0x261E JUMP JUMPDEST SWAP4 POP POP PUSH1 0x20 PUSH2 0x2FB4 DUP7 DUP3 DUP8 ADD PUSH2 0x261E JUMP JUMPDEST SWAP3 POP POP PUSH1 0x40 PUSH2 0x2FC5 DUP7 DUP3 DUP8 ADD PUSH2 0x2F6B JUMP JUMPDEST SWAP2 POP POP SWAP3 POP SWAP3 POP SWAP3 JUMP JUMPDEST PUSH1 0x3 DUP2 LT PUSH2 0x2FDB JUMPI PUSH0 PUSH0 REVERT JUMPDEST POP JUMP JUMPDEST PUSH0 DUP2 CALLDATALOAD SWAP1 POP PUSH2 0x2FEC DUP2 PUSH2 0x2FCF JUMP JUMPDEST SWAP3 SWAP2 POP POP JUMP JUMPDEST PUSH0 PUSH1 0x20 DUP3 DUP5 SUB SLT ISZERO PUSH2 0x3007 JUMPI PUSH2 0x3006 PUSH2 0x2600 JUMP JUMPDEST JUMPDEST PUSH0 PUSH2 0x3014 DUP5 DUP3 DUP6 ADD PUSH2 0x2FDE JUMP JUMPDEST SWAP2 POP POP SWAP3 SWAP2 POP POP JUMP JUMPDEST PUSH0 DUP2 MLOAD SWAP1 POP SWAP2 SWAP1 POP JUMP JUMPDEST PUSH0 DUP3 DUP3 MSTORE PUSH1 0x20 DUP3 ADD SWAP1 POP SWAP3 SWAP2 POP POP JUMP JUMPDEST PUSH0 DUP2 SWAP1 POP PUSH1 0x20 DUP3 ADD SWAP1 POP SWAP2 SWAP1 POP JUMP JUMPDEST PUSH0 PUSH2 0x160 DUP4 ADD PUSH0 DUP4 ADD MLOAD PUSH2 0x305C PUSH0 DUP7 ADD DUP3 PUSH2 0x2AAB JUMP JUMPDEST POP PUSH1 0x20 DUP4 ADD MLOAD PUSH2 0x306F PUSH1 0x20 DUP7 ADD DUP3 PUSH2 0x2ABA JUMP JUMPDEST POP PUSH1 0x40 DUP4 ADD MLOAD DUP5 DUP3 SUB PUSH1 0x40 DUP7 ADD MSTORE PUSH2 0x3087 DUP3 DUP3 PUSH2 0x2AF1 JUMP JUMPDEST SWAP2 POP POP PUSH1 0x60 DUP4 ADD MLOAD DUP5 DUP3 SUB PUSH1 0x60 DUP7 ADD MSTORE PUSH2 0x30A1 DUP3 DUP3 PUSH2 0x2AF1 JUMP JUMPDEST SWAP2 POP POP PUSH1 0x80 DUP4 ADD MLOAD DUP5 DUP3 SUB PUSH1 0x80 DUP7 ADD MSTORE PUSH2 0x30BB DUP3 DUP3 PUSH2 0x2AF1 JUMP JUMPDEST SWAP2 POP POP PUSH1 0xA0 DUP4 ADD MLOAD DUP5 DUP3 SUB PUSH1 0xA0 DUP7 ADD MSTORE PUSH2 0x30D5 DUP3 DUP3 PUSH2 0x2AF1 JUMP JUMPDEST SWAP2 POP POP PUSH1 0xC0 DUP4 ADD MLOAD PUSH2 0x30EA PUSH1 0xC0 DUP7 ADD DUP3 PUSH2 0x2AAB JUMP JUMPDEST POP PUSH1 0xE0 DUP4 ADD MLOAD DUP5 DUP3 SUB PUSH1 0xE0 DUP7 ADD MSTORE PUSH2 0x3102 DUP3 DUP3 PUSH2 0x2C61 JUMP JUMPDEST SWAP2 POP POP PUSH2 0x100 DUP4 ADD MLOAD PUSH2 0x3119 PUSH2 0x100 DUP7 ADD DUP3 PUSH2 0x2AAB JUMP JUMPDEST POP PUSH2 0x120 DUP4 ADD MLOAD PUSH2 0x312E PUSH2 0x120 DUP7 ADD DUP3 PUSH2 0x2CF4 JUMP JUMPDEST POP PUSH2 0x140 DUP4 ADD MLOAD PUSH2 0x3143 PUSH2 0x140 DUP7 ADD DUP3 PUSH2 0x2AAB JUMP JUMPDEST POP DUP1 SWAP2 POP POP SWAP3 SWAP2 POP POP JUMP JUMPDEST PUSH0 PUSH2 0x3159 DUP4 DUP4 PUSH2 0x3046 JUMP JUMPDEST SWAP1 POP SWAP3 SWAP2 POP POP JUMP JUMPDEST PUSH0 PUSH1 0x20 DUP3 ADD SWAP1 POP SWAP2 SWAP1 POP JUMP JUMPDEST PUSH0 PUSH2 0x3177 DUP3 PUSH2 0x301D JUMP JUMPDEST PUSH2 0x3181 DUP2 DUP6 PUSH2 0x3027 JUMP JUMPDEST SWAP4 POP DUP4 PUSH1 0x20 DUP3 MUL DUP6 ADD PUSH2 0x3193 DUP6 PUSH2 0x3037 JUMP JUMPDEST DUP1 PUSH0 JUMPDEST DUP6 DUP2 LT ISZERO PUSH2 0x31CE JUMPI DUP5 DUP5 SUB DUP10 MSTORE DUP2 MLOAD PUSH2 0x31AF DUP6 DUP3 PUSH2 0x314E JUMP JUMPDEST SWAP5 POP PUSH2 0x31BA DUP4 PUSH2 0x3161 JUMP JUMPDEST SWAP3 POP PUSH1 0x20 DUP11 ADD SWAP10 POP POP PUSH1 0x1 DUP2 ADD SWAP1 POP PUSH2 0x3196 JUMP JUMPDEST POP DUP3 SWAP8 POP DUP8 SWAP6 POP POP POP POP POP POP SWAP3 SWAP2 POP POP JUMP JUMPDEST PUSH0 PUSH1 0x20 DUP3 ADD SWAP1 POP DUP2 DUP2 SUB PUSH0 DUP4 ADD MSTORE PUSH2 0x31F8 DUP2 DUP5 PUSH2 0x316D JUMP JUMPDEST SWAP1 POP SWAP3 SWAP2 POP POP JUMP JUMPDEST PUSH0 PUSH1 0x20 DUP3 DUP5 SUB SLT ISZERO PUSH2 0x3215 JUMPI PUSH2 0x3214 PUSH2 0x2600 JUMP JUMPDEST JUMPDEST PUSH0 PUSH2 0x3222 DUP5 DUP3 DUP6 ADD PUSH2 0x261E JUMP JUMPDEST SWAP2 POP POP SWAP3 SWAP2 POP POP JUMP JUMPDEST PUSH2 0x3234 DUP2 PUSH2 0x273C JUMP JUMPDEST DUP3 MSTORE POP POP JUMP JUMPDEST PUSH0 DUP3 DUP3 MSTORE PUSH1 0x20 DUP3 ADD SWAP1 POP SWAP3 SWAP2 POP POP JUMP JUMPDEST PUSH0 PUSH2 0x3254 DUP3 PUSH2 0x2AC9 JUMP JUMPDEST PUSH2 0x325E DUP2 DUP6 PUSH2 0x323A JUMP JUMPDEST SWAP4 POP PUSH2 0x326E DUP2 DUP6 PUSH1 0x20 DUP7 ADD PUSH2 0x2AE3 JUMP JUMPDEST PUSH2 0x3277 DUP2 PUSH2 0x277F JUMP JUMPDEST DUP5 ADD SWAP2 POP POP SWAP3 SWAP2 POP POP JUMP JUMPDEST PUSH2 0x328B DUP2 PUSH2 0x2CE3 JUMP JUMPDEST DUP3 MSTORE POP POP JUMP JUMPDEST PUSH0 PUSH2 0x140 DUP3 ADD SWAP1 POP PUSH2 0x32A5 PUSH0 DUP4 ADD DUP14 PUSH2 0x25CF JUMP JUMPDEST PUSH2 0x32B2 PUSH1 0x20 DUP4 ADD DUP13 PUSH2 0x322B JUMP JUMPDEST DUP2 DUP2 SUB PUSH1 0x40 DUP4 ADD MSTORE PUSH2 0x32C4 DUP2 DUP12 PUSH2 0x324A JUMP JUMPDEST SWAP1 POP DUP2 DUP2 SUB PUSH1 0x60 DUP4 ADD MSTORE PUSH2 0x32D8 DUP2 DUP11 PUSH2 0x324A JUMP JUMPDEST SWAP1 POP DUP2 DUP2 SUB PUSH1 0x80 DUP4 ADD MSTORE PUSH2 0x32EC DUP2 DUP10 PUSH2 0x324A JUMP JUMPDEST SWAP1 POP DUP2 DUP2 SUB PUSH1 0xA0 DUP4 ADD MSTORE PUSH2 0x3300 DUP2 DUP9 PUSH2 0x324A JUMP JUMPDEST SWAP1 POP PUSH2 0x330F PUSH1 0xC0 DUP4 ADD DUP8 PUSH2 0x25CF JUMP JUMPDEST PUSH2 0x331C PUSH1 0xE0 DUP4 ADD DUP7 PUSH2 0x25CF JUMP JUMPDEST PUSH2 0x332A PUSH2 0x100 DUP4 ADD DUP6 PUSH2 0x3282 JUMP JUMPDEST PUSH2 0x3338 PUSH2 0x120 DUP4 ADD DUP5 PUSH2 0x25CF JUMP JUMPDEST SWAP12 SWAP11 POP POP POP POP POP POP POP POP POP POP POP JUMP JUMPDEST PUSH0 PUSH0 PUSH1 0x40 DUP4 DUP6 SUB SLT ISZERO PUSH2 0x335D JUMPI PUSH2 0x335C PUSH2 0x2600 JUMP JUMPDEST JUMPDEST PUSH0 PUSH2 0x336A DUP6 DUP3 DUP7 ADD PUSH2 0x261E JUMP JUMPDEST SWAP3 POP POP PUSH1 0x20 PUSH2 0x337B DUP6 DUP3 DUP7 ADD PUSH2 0x2FDE JUMP JUMPDEST SWAP2 POP POP SWAP3 POP SWAP3 SWAP1 POP JUMP JUMPDEST PUSH32 0x4F72646572206D75737420636F6E7461696E206174206C65617374206F6E6520 PUSH0 DUP3 ADD MSTORE PUSH32 0x6974656D00000000000000000000000000000000000000000000000000000000 PUSH1 0x20 DUP3 ADD MSTORE POP JUMP JUMPDEST PUSH0 PUSH2 0x33DF PUSH1 0x24 DUP4 PUSH2 0x323A JUMP JUMPDEST SWAP2 POP PUSH2 0x33EA DUP3 PUSH2 0x3385 JUMP JUMPDEST PUSH1 0x40 DUP3 ADD SWAP1 POP SWAP2 SWAP1 POP JUMP JUMPDEST PUSH0 PUSH1 0x20 DUP3 ADD SWAP1 POP DUP2 DUP2 SUB PUSH0 DUP4 ADD MSTORE PUSH2 0x340C DUP2 PUSH2 0x33D3 JUMP JUMPDEST SWAP1 POP SWAP2 SWAP1 POP JUMP JUMPDEST PUSH0 DUP2 MLOAD SWAP1 POP PUSH2 0x3421 DUP2 PUSH2 0x2608 JUMP JUMPDEST SWAP3 SWAP2 POP POP JUMP JUMPDEST PUSH0 PUSH2 0x3439 PUSH2 0x3434 DUP5 PUSH2 0x2807 JUMP JUMPDEST PUSH2 0x27ED JUMP JUMPDEST SWAP1 POP DUP3 DUP2 MSTORE PUSH1 0x20 DUP2 ADD DUP5 DUP5 DUP5 ADD GT ISZERO PUSH2 0x3455 JUMPI PUSH2 0x3454 PUSH2 0x277B JUMP JUMPDEST JUMPDEST PUSH2 0x3460 DUP5 DUP3 DUP6 PUSH2 0x2AE3 JUMP JUMPDEST POP SWAP4 SWAP3 POP POP POP JUMP JUMPDEST PUSH0 DUP3 PUSH1 0x1F DUP4 ADD SLT PUSH2 0x347C JUMPI PUSH2 0x347B PUSH2 0x2777 JUMP JUMPDEST JUMPDEST DUP2 MLOAD PUSH2 0x348C DUP5 DUP3 PUSH1 0x20 DUP7 ADD PUSH2 0x3427 JUMP JUMPDEST SWAP2 POP POP SWAP3 SWAP2 POP POP JUMP JUMPDEST PUSH0 PUSH8 0xFFFFFFFFFFFFFFFF DUP3 GT ISZERO PUSH2 0x34AF JUMPI PUSH2 0x34AE PUSH2 0x278F JUMP JUMPDEST JUMPDEST PUSH1 0x20 DUP3 MUL SWAP1 POP PUSH1 0x20 DUP2 ADD SWAP1 POP SWAP2 SWAP1 POP JUMP JUMPDEST PUSH0 PUSH2 0x34D2 PUSH2 0x34CD DUP5 PUSH2 0x3495 JUMP JUMPDEST PUSH2 0x27ED JUMP JUMPDEST SWAP1 POP DUP1 DUP4 DUP3 MSTORE PUSH1 0x20 DUP3 ADD SWAP1 POP PUSH1 0x20 DUP5 MUL DUP4 ADD DUP6 DUP2 GT ISZERO PUSH2 0x34F5 JUMPI PUSH2 0x34F4 PUSH2 0x28DE JUMP JUMPDEST JUMPDEST DUP4 JUMPDEST DUP2 DUP2 LT ISZERO PUSH2 0x353C JUMPI DUP1 MLOAD PUSH8 0xFFFFFFFFFFFFFFFF DUP2 GT ISZERO PUSH2 0x351A JUMPI PUSH2 0x3519 PUSH2 0x2777 JUMP JUMPDEST JUMPDEST DUP1 DUP7 ADD PUSH2 0x3527 DUP10 DUP3 PUSH2 0x3468 JUMP JUMPDEST DUP6 MSTORE PUSH1 0x20 DUP6 ADD SWAP5 POP POP POP PUSH1 0x20 DUP2 ADD SWAP1 POP PUSH2 0x34F7 JUMP JUMPDEST POP POP POP SWAP4 SWAP3 POP POP POP JUMP JUMPDEST PUSH0 DUP3 PUSH1 0x1F DUP4 ADD SLT PUSH2 0x355A JUMPI PUSH2 0x3559 PUSH2 0x2777 JUMP JUMPDEST JUMPDEST DUP2 MLOAD PUSH2 0x356A DUP5 DUP3 PUSH1 0x20 DUP7 ADD PUSH2 0x34C0 JUMP JUMPDEST SWAP2 POP POP SWAP3 SWAP2 POP POP JUMP JUMPDEST PUSH0 PUSH2 0x100 DUP3 DUP5 SUB SLT ISZERO PUSH2 0x3589 JUMPI PUSH2 0x3588 PUSH2 0x28E2 JUMP JUMPDEST JUMPDEST PUSH2 0x3594 PUSH2 0x100 PUSH2 0x27ED JUMP JUMPDEST SWAP1 POP PUSH0 PUSH2 0x35A3 DUP5 DUP3 DUP6 ADD PUSH2 0x3413 JUMP JUMPDEST PUSH0 DUP4 ADD MSTORE POP PUSH1 0x20 DUP3 ADD MLOAD PUSH8 0xFFFFFFFFFFFFFFFF DUP2 GT ISZERO PUSH2 0x35C6 JUMPI PUSH2 0x35C5 PUSH2 0x28E6 JUMP JUMPDEST JUMPDEST PUSH2 0x35D2 DUP5 DUP3 DUP6 ADD PUSH2 0x3468 JUMP JUMPDEST PUSH1 0x20 DUP4 ADD MSTORE POP PUSH1 0x40 DUP3 ADD MLOAD PUSH8 0xFFFFFFFFFFFFFFFF DUP2 GT ISZERO PUSH2 0x35F6 JUMPI PUSH2 0x35F5 PUSH2 0x28E6 JUMP JUMPDEST JUMPDEST PUSH2 0x3602 DUP5 DUP3 DUP6 ADD PUSH2 0x3468 JUMP JUMPDEST PUSH1 0x40 DUP4 ADD MSTORE POP PUSH1 0x60 PUSH2 0x3616 DUP5 DUP3 DUP6 ADD PUSH2 0x3413 JUMP JUMPDEST PUSH1 0x60 DUP4 ADD MSTORE POP PUSH1 0x80 DUP3 ADD MLOAD PUSH8 0xFFFFFFFFFFFFFFFF DUP2 GT ISZERO PUSH2 0x363A JUMPI PUSH2 0x3639 PUSH2 0x28E6 JUMP JUMPDEST JUMPDEST PUSH2 0x3646 DUP5 DUP3 DUP6 ADD PUSH2 0x3546 JUMP JUMPDEST PUSH1 0x80 DUP4 ADD MSTORE POP PUSH1 0xA0 PUSH2 0x365A DUP5 DUP3 DUP6 ADD PUSH2 0x3413 JUMP JUMPDEST PUSH1 0xA0 DUP4 ADD MSTORE POP PUSH1 0xC0 PUSH2 0x366E DUP5 DUP3 DUP6 ADD PUSH2 0x3413 JUMP JUMPDEST PUSH1 0xC0 DUP4 ADD MSTORE POP PUSH1 0xE0 PUSH2 0x3682 DUP5 DUP3 DUP6 ADD PUSH2 0x3413 JUMP JUMPDEST PUSH1 0xE0 DUP4 ADD MSTORE POP SWAP3 SWAP2 POP POP JUMP JUMPDEST PUSH0 PUSH1 0x20 DUP3 DUP5 SUB SLT ISZERO PUSH2 0x36A3 JUMPI PUSH2 0x36A2 PUSH2 0x2600 JUMP JUMPDEST JUMPDEST PUSH0 DUP3 ADD MLOAD PUSH8 0xFFFFFFFFFFFFFFFF DUP2 GT ISZERO PUSH2 0x36C0 JUMPI PUSH2 0x36BF PUSH2 0x2604 JUMP JUMPDEST JUMPDEST PUSH2 0x36CC DUP5 DUP3 DUP6 ADD PUSH2 0x3573 JUMP JUMPDEST SWAP2 POP POP SWAP3 SWAP2 POP POP JUMP JUMPDEST PUSH32 0x4E487B7100000000000000000000000000000000000000000000000000000000 PUSH0 MSTORE PUSH1 0x11 PUSH1 0x4 MSTORE PUSH1 0x24 PUSH0 REVERT JUMPDEST PUSH0 PUSH2 0x370C DUP3 PUSH2 0x25C6 JUMP JUMPDEST SWAP2 POP PUSH32 0xFFFFFFFFFFFFFFFFFFFFFFFFFFFFFFFFFFFFFFFFFFFFFFFFFFFFFFFFFFFFFFFF DUP3 SUB PUSH2 0x373E JUMPI PUSH2 0x373D PUSH2 0x36D5 JUMP JUMPDEST JUMPDEST PUSH1 0x1 DUP3 ADD SWAP1 POP SWAP2 SWAP1 POP JUMP JUMPDEST PUSH32 0x4E487B7100000000000000000000000000000000000000000000000000000000 PUSH0 MSTORE PUSH1 0x22 PUSH1 0x4 MSTORE PUSH1 0x24 PUSH0 REVERT JUMPDEST PUSH0 PUSH1 0x2 DUP3 DIV SWAP1 POP PUSH1 0x1 DUP3 AND DUP1 PUSH2 0x378D JUMPI PUSH1 0x7F DUP3 AND SWAP2 POP JUMPDEST PUSH1 0x20 DUP3 LT DUP2 SUB PUSH2 0x37A0 JUMPI PUSH2 0x379F PUSH2 0x3749 JUMP JUMPDEST JUMPDEST POP SWAP2 SWAP1 POP JUMP JUMPDEST PUSH0 DUP2 SWAP1 POP DUP2 PUSH0 MSTORE PUSH1 0x20 PUSH0 KECCAK256 SWAP1 POP SWAP2 SWAP1 POP JUMP JUMPDEST PUSH0 PUSH1 0x20 PUSH1 0x1F DUP4 ADD DIV SWAP1 POP SWAP2 SWAP1 POP JUMP JUMPDEST PUSH0 DUP3 DUP3 SHL SWAP1 POP SWAP3 SWAP2 POP POP JUMP JUMPDEST PUSH0 PUSH1 0x8 DUP4 MUL PUSH2 0x3802 PUSH32 0xFFFFFFFFFFFFFFFFFFFFFFFFFFFFFFFFFFFFFFFFFFFFFFFFFFFFFFFFFFFFFFFF DUP3 PUSH2 0x37C7 JUMP JUMPDEST PUSH2 0x380C DUP7 DUP4 PUSH2 0x37C7 JUMP JUMPDEST SWAP6 POP DUP1 NOT DUP5 AND SWAP4 POP DUP1 DUP7 AND DUP5 OR SWAP3 POP POP POP SWAP4 SWAP3 POP POP POP JUMP JUMPDEST PUSH0 PUSH2 0x383E PUSH2 0x3839 PUSH2 0x3834 DUP5 PUSH2 0x25C6 JUMP JUMPDEST PUSH2 0x268F JUMP JUMPDEST PUSH2 0x25C6 JUMP JUMPDEST SWAP1 POP SWAP2 SWAP1 POP JUMP JUMPDEST PUSH0 DUP2 SWAP1 POP SWAP2 SWAP1 POP JUMP JUMPDEST PUSH2 0x3857 DUP4 PUSH2 0x3824 JUMP JUMPDEST PUSH2 0x386B PUSH2 0x3863 DUP3 PUSH2 0x3845 JUMP JUMPDEST DUP5 DUP5 SLOAD PUSH2 0x37D3 JUMP JUMPDEST DUP3 SSTORE POP POP POP POP JUMP JUMPDEST PUSH0 PUSH0 SWAP1 POP SWAP1 JUMP JUMPDEST PUSH2 0x3882 PUSH2 0x3873 JUMP JUMPDEST PUSH2 0x388D DUP2 DUP5 DUP5 PUSH2 0x384E JUMP JUMPDEST POP POP POP JUMP JUMPDEST JUMPDEST DUP2 DUP2 LT ISZERO PUSH2 0x38B0 JUMPI PUSH2 0x38A5 PUSH0 DUP3 PUSH2 0x387A JUMP JUMPDEST PUSH1 0x1 DUP2 ADD SWAP1 POP PUSH2 0x3893 JUMP JUMPDEST POP POP JUMP JUMPDEST PUSH1 0x1F DUP3 GT ISZERO PUSH2 0x38F5 JUMPI PUSH2 0x38C6 DUP2 PUSH2 0x37A6 JUMP JUMPDEST PUSH2 0x38CF DUP5 PUSH2 0x37B8 JUMP JUMPDEST DUP2 ADD PUSH1 0x20 DUP6 LT ISZERO PUSH2 0x38DE JUMPI DUP2 SWAP1 POP JUMPDEST PUSH2 0x38F2 PUSH2 0x38EA DUP6 PUSH2 0x37B8 JUMP JUMPDEST DUP4 ADD DUP3 PUSH2 0x3892 JUMP JUMPDEST POP POP JUMPDEST POP POP POP JUMP JUMPDEST PUSH0 DUP3 DUP3 SHR SWAP1 POP SWAP3 SWAP2 POP POP JUMP JUMPDEST PUSH0 PUSH2 0x3915 PUSH0 NOT DUP5 PUSH1 0x8 MUL PUSH2 0x38FA JUMP JUMPDEST NOT DUP1 DUP4 AND SWAP2 POP POP SWAP3 SWAP2 POP POP JUMP JUMPDEST PUSH0 PUSH2 0x392D DUP4 DUP4 PUSH2 0x3906 JUMP JUMPDEST SWAP2 POP DUP3 PUSH1 0x2 MUL DUP3 OR SWAP1 POP SWAP3 SWAP2 POP POP JUMP JUMPDEST PUSH2 0x3946 DUP3 PUSH2 0x2AC9 JUMP JUMPDEST PUSH8 0xFFFFFFFFFFFFFFFF DUP2 GT ISZERO PUSH2 0x395F JUMPI PUSH2 0x395E PUSH2 0x278F JUMP JUMPDEST JUMPDEST PUSH2 0x3969 DUP3 SLOAD PUSH2 0x3776 JUMP JUMPDEST PUSH2 0x3974 DUP3 DUP3 DUP6 PUSH2 0x38B4 JUMP JUMPDEST PUSH0 PUSH1 0x20 SWAP1 POP PUSH1 0x1F DUP4 GT PUSH1 0x1 DUP2 EQ PUSH2 0x39A5 JUMPI PUSH0 DUP5 ISZERO PUSH2 0x3993 JUMPI DUP3 DUP8 ADD MLOAD SWAP1 POP JUMPDEST PUSH2 0x399D DUP6 DUP3 PUSH2 0x3922 JUMP JUMPDEST DUP7 SSTORE POP PUSH2 0x3A04 JUMP JUMPDEST PUSH1 0x1F NOT DUP5 AND PUSH2 0x39B3 DUP7 PUSH2 0x37A6 JUMP JUMPDEST PUSH0 JUMPDEST DUP3 DUP2 LT ISZERO PUSH2 0x39DA JUMPI DUP5 DUP10 ADD MLOAD DUP3 SSTORE PUSH1 0x1 DUP3 ADD SWAP2 POP PUSH1 0x20 DUP6 ADD SWAP5 POP PUSH1 0x20 DUP2 ADD SWAP1 POP PUSH2 0x39B5 JUMP JUMPDEST DUP7 DUP4 LT ISZERO PUSH2 0x39F7 JUMPI DUP5 DUP10 ADD MLOAD PUSH2 0x39F3 PUSH1 0x1F DUP10 AND DUP3 PUSH2 0x3906 JUMP JUMPDEST DUP4 SSTORE POP JUMPDEST PUSH1 0x1 PUSH1 0x2 DUP9 MUL ADD DUP9 SSTORE POP POP POP JUMPDEST POP POP POP POP POP POP JUMP JUMPDEST PUSH32 0x4E487B7100000000000000000000000000000000000000000000000000000000 PUSH0 MSTORE PUSH1 0x32 PUSH1 0x4 MSTORE PUSH1 0x24 PUSH0 REVERT JUMPDEST PUSH0 PUSH1 0x40 DUP3 ADD SWAP1 POP PUSH2 0x3A4C PUSH0 DUP4 ADD DUP6 PUSH2 0x25CF JUMP JUMPDEST PUSH2 0x3A59 PUSH1 0x20 DUP4 ADD DUP5 PUSH2 0x25CF JUMP JUMPDEST SWAP4 SWAP3 POP POP POP JUMP JUMPDEST PUSH0 PUSH1 0xA0 DUP3 DUP5 SUB SLT ISZERO PUSH2 0x3A75 JUMPI PUSH2 0x3A74 PUSH2 0x28E2 JUMP JUMPDEST JUMPDEST PUSH2 0x3A7F PUSH1 0xA0 PUSH2 0x27ED JUMP JUMPDEST SWAP1 POP PUSH0 PUSH2 0x3A8E DUP5 DUP3 DUP6 ADD PUSH2 0x3413 JUMP JUMPDEST PUSH0 DUP4 ADD MSTORE POP PUSH1 0x20 DUP3 ADD MLOAD PUSH8 0xFFFFFFFFFFFFFFFF DUP2 GT ISZERO PUSH2 0x3AB1 JUMPI PUSH2 0x3AB0 PUSH2 0x28E6 JUMP JUMPDEST JUMPDEST PUSH2 0x3ABD DUP5 DUP3 DUP6 ADD PUSH2 0x3468 JUMP JUMPDEST PUSH1 0x20 DUP4 ADD MSTORE POP PUSH1 0x40 PUSH2 0x3AD1 DUP5 DUP3 DUP6 ADD PUSH2 0x3413 JUMP JUMPDEST PUSH1 0x40 DUP4 ADD MSTORE POP PUSH1 0x60 PUSH2 0x3AE5 DUP5 DUP3 DUP6 ADD PUSH2 0x3413 JUMP JUMPDEST PUSH1 0x60 DUP4 ADD MSTORE POP PUSH1 0x80 PUSH2 0x3AF9 DUP5 DUP3 DUP6 ADD PUSH2 0x3413 JUMP JUMPDEST PUSH1 0x80 DUP4 ADD MSTORE POP SWAP3 SWAP2 POP POP JUMP JUMPDEST PUSH0 PUSH1 0x20 DUP3 DUP5 SUB SLT ISZERO PUSH2 0x3B1A JUMPI PUSH2 0x3B19 PUSH2 0x2600 JUMP JUMPDEST JUMPDEST PUSH0 DUP3 ADD MLOAD PUSH8 0xFFFFFFFFFFFFFFFF DUP2 GT ISZERO PUSH2 0x3B37 JUMPI PUSH2 0x3B36 PUSH2 0x2604 JUMP JUMPDEST JUMPDEST PUSH2 0x3B43 DUP5 DUP3 DUP6 ADD PUSH2 0x3A60 JUMP JUMPDEST SWAP2 POP POP SWAP3 SWAP2 POP POP JUMP JUMPDEST PUSH0 PUSH2 0x3B56 DUP3 PUSH2 0x25C6 JUMP JUMPDEST SWAP2 POP PUSH2 0x3B61 DUP4 PUSH2 0x25C6 JUMP JUMPDEST SWAP3 POP DUP3 DUP3 MUL PUSH2 0x3B6F DUP2 PUSH2 0x25C6 JUMP JUMPDEST SWAP2 POP DUP3 DUP3 DIV DUP5 EQ DUP4 ISZERO OR PUSH2 0x3B86 JUMPI PUSH2 0x3B85 PUSH2 0x36D5 JUMP JUMPDEST JUMPDEST POP SWAP3 SWAP2 POP POP JUMP JUMPDEST PUSH0 PUSH2 0x3B97 DUP3 PUSH2 0x25C6 JUMP JUMPDEST SWAP2 POP PUSH2 0x3BA2 DUP4 PUSH2 0x25C6 JUMP JUMPDEST SWAP3 POP DUP3 DUP3 ADD SWAP1 POP DUP1 DUP3 GT ISZERO PUSH2 0x3BBA JUMPI PUSH2 0x3BB9 PUSH2 0x36D5 JUMP JUMPDEST JUMPDEST SWAP3 SWAP2 POP POP JUMP JUMPDEST PUSH0 PUSH1 0x60 DUP3 ADD SWAP1 POP PUSH2 0x3BD3 PUSH0 DUP4 ADD DUP7 PUSH2 0x25CF JUMP JUMPDEST PUSH2 0x3BE0 PUSH1 0x20 DUP4 ADD DUP6 PUSH2 0x25CF JUMP JUMPDEST PUSH2 0x3BED PUSH1 0x40 DUP4 ADD DUP5 PUSH2 0x25CF JUMP JUMPDEST SWAP5 SWAP4 POP POP POP POP JUMP JUMPDEST PUSH0 DUP2 SLOAD SWAP1 POP PUSH2 0x3C03 DUP2 PUSH2 0x3776 JUMP JUMPDEST SWAP1 POP SWAP2 SWAP1 POP JUMP JUMPDEST DUP2 DUP2 SUB PUSH2 0x3C18 JUMPI POP POP PUSH2 0x3CED JUMP JUMPDEST PUSH2 0x3C21 DUP3 PUSH2 0x3BF5 JUMP JUMPDEST PUSH8 0xFFFFFFFFFFFFFFFF DUP2 GT ISZERO PUSH2 0x3C3A JUMPI PUSH2 0x3C39 PUSH2 0x278F JUMP JUMPDEST JUMPDEST PUSH2 0x3C44 DUP3 SLOAD PUSH2 0x3776 JUMP JUMPDEST PUSH2 0x3C4F DUP3 DUP3 DUP6 PUSH2 0x38B4 JUMP JUMPDEST PUSH0 PUSH1 0x1F DUP4 GT PUSH1 0x1 DUP2 EQ PUSH2 0x3C7C JUMPI PUSH0 DUP5 ISZERO PUSH2 0x3C6A JUMPI DUP3 DUP8 ADD SLOAD SWAP1 POP JUMPDEST PUSH2 0x3C74 DUP6 DUP3 PUSH2 0x3922 JUMP JUMPDEST DUP7 SSTORE POP PUSH2 0x3CE6 JUMP JUMPDEST PUSH1 0x1F NOT DUP5 AND PUSH2 0x3C8A DUP8 PUSH2 0x37A6 JUMP JUMPDEST SWAP7 POP PUSH2 0x3C95 DUP7 PUSH2 0x37A6 JUMP JUMPDEST PUSH0 JUMPDEST DUP3 DUP2 LT ISZERO PUSH2 0x3CBC JUMPI DUP5 DUP10 ADD SLOAD DUP3 SSTORE PUSH1 0x1 DUP3 ADD SWAP2 POP PUSH1 0x1 DUP6 ADD SWAP5 POP PUSH1 0x20 DUP2 ADD SWAP1 POP PUSH2 0x3C97 JUMP JUMPDEST DUP7 DUP4 LT ISZERO PUSH2 0x3CD9 JUMPI DUP5 DUP10 ADD SLOAD PUSH2 0x3CD5 PUSH1 0x1F DUP10 AND DUP3 PUSH2 0x3906 JUMP JUMPDEST DUP4 SSTORE POP JUMPDEST PUSH1 0x1 PUSH1 0x2 DUP9 MUL ADD DUP9 SSTORE POP POP POP JUMPDEST POP POP POP POP POP POP JUMPDEST JUMP JUMPDEST PUSH0 PUSH1 0x80 DUP3 ADD SWAP1 POP PUSH2 0x3D02 PUSH0 DUP4 ADD DUP8 PUSH2 0x25CF JUMP JUMPDEST PUSH2 0x3D0F PUSH1 0x20 DUP4 ADD DUP7 PUSH2 0x322B JUMP JUMPDEST PUSH2 0x3D1C PUSH1 0x40 DUP4 ADD DUP6 PUSH2 0x25CF JUMP JUMPDEST PUSH2 0x3D29 PUSH1 0x60 DUP4 ADD DUP5 PUSH2 0x3282 JUMP JUMPDEST SWAP6 SWAP5 POP POP POP POP POP JUMP JUMPDEST PUSH0 PUSH1 0x20 DUP3 ADD SWAP1 POP PUSH2 0x3D45 PUSH0 DUP4 ADD DUP5 PUSH2 0x322B JUMP JUMPDEST SWAP3 SWAP2 POP POP JUMP JUMPDEST PUSH0 DUP2 ISZERO ISZERO SWAP1 POP SWAP2 SWAP1 POP JUMP JUMPDEST PUSH2 0x3D5F DUP2 PUSH2 0x3D4B JUMP JUMPDEST DUP2 EQ PUSH2 0x3D69 JUMPI PUSH0 PUSH0 REVERT JUMPDEST POP JUMP JUMPDEST PUSH0 DUP2 MLOAD SWAP1 POP PUSH2 0x3D7A DUP2 PUSH2 0x3D56 JUMP JUMPDEST SWAP3 SWAP2 POP POP JUMP JUMPDEST PUSH0 PUSH1 0x20 DUP3 DUP5 SUB SLT ISZERO PUSH2 0x3D95 JUMPI PUSH2 0x3D94 PUSH2 0x2600 JUMP JUMPDEST JUMPDEST PUSH0 PUSH2 0x3DA2 DUP5 DUP3 DUP6 ADD PUSH2 0x3D6C JUMP JUMPDEST SWAP2 POP POP SWAP3 SWAP2 POP POP JUMP JUMPDEST PUSH32 0x596F7520617265206E6F742061646D696E000000000000000000000000000000 PUSH0 DUP3 ADD MSTORE POP JUMP JUMPDEST PUSH0 PUSH2 0x3DDF PUSH1 0x11 DUP4 PUSH2 0x323A JUMP JUMPDEST SWAP2 POP PUSH2 0x3DEA DUP3 PUSH2 0x3DAB JUMP JUMPDEST PUSH1 0x20 DUP3 ADD SWAP1 POP SWAP2 SWAP1 POP JUMP JUMPDEST PUSH0 PUSH1 0x20 DUP3 ADD SWAP1 POP DUP2 DUP2 SUB PUSH0 DUP4 ADD MSTORE PUSH2 0x3E0C DUP2 PUSH2 0x3DD3 JUMP JUMPDEST SWAP1 POP SWAP2 SWAP1 POP JUMP JUMPDEST PUSH32 0x4F7264657220646F6573206E6F74206578697374000000000000000000000000 PUSH0 DUP3 ADD MSTORE POP JUMP JUMPDEST PUSH0 PUSH2 0x3E47 PUSH1 0x14 DUP4 PUSH2 0x323A JUMP JUMPDEST SWAP2 POP PUSH2 0x3E52 DUP3 PUSH2 0x3E13 JUMP JUMPDEST PUSH1 0x20 DUP3 ADD SWAP1 POP SWAP2 SWAP1 POP JUMP JUMPDEST PUSH0 PUSH1 0x20 DUP3 ADD SWAP1 POP DUP2 DUP2 SUB PUSH0 DUP4 ADD MSTORE PUSH2 0x3E74 DUP2 PUSH2 0x3E3B JUMP JUMPDEST SWAP1 POP SWAP2 SWAP1 POP JUMP JUMPDEST PUSH32 0x4F72646572206974656D20646F6573206E6F7420657869737400000000000000 PUSH0 DUP3 ADD MSTORE POP JUMP JUMPDEST PUSH0 PUSH2 0x3EAF PUSH1 0x19 DUP4 PUSH2 0x323A JUMP JUMPDEST SWAP2 POP PUSH2 0x3EBA DUP3 PUSH2 0x3E7B JUMP JUMPDEST PUSH1 0x20 DUP3 ADD SWAP1 POP SWAP2 SWAP1 POP JUMP JUMPDEST PUSH0 PUSH1 0x20 DUP3 ADD SWAP1 POP DUP2 DUP2 SUB PUSH0 DUP4 ADD MSTORE PUSH2 0x3EDC DUP2 PUSH2 0x3EA3 JUMP JUMPDEST SWAP1 POP SWAP2 SWAP1 POP JUMP JUMPDEST PUSH32 0x4F72646572206974656D20616C7265616479206D61726B656420617320737563 PUSH0 DUP3 ADD MSTORE PUSH32 0x636573732E2043616E206E6F7420757064617465000000000000000000000000 PUSH1 0x20 DUP3 ADD MSTORE POP JUMP JUMPDEST PUSH0 PUSH2 0x3F3D PUSH1 0x34 DUP4 PUSH2 0x323A JUMP JUMPDEST SWAP2 POP PUSH2 0x3F48 DUP3 PUSH2 0x3EE3 JUMP JUMPDEST PUSH1 0x40 DUP3 ADD SWAP1 POP SWAP2 SWAP1 POP JUMP JUMPDEST PUSH0 PUSH1 0x20 DUP3 ADD SWAP1 POP DUP2 DUP2 SUB PUSH0 DUP4 ADD MSTORE PUSH2 0x3F6A DUP2 PUSH2 0x3F31 JUMP JUMPDEST SWAP1 POP SWAP2 SWAP1 POP JUMP JUMPDEST PUSH0 PUSH2 0x3F7B DUP3 PUSH2 0x25C6 JUMP JUMPDEST SWAP2 POP PUSH2 0x3F86 DUP4 PUSH2 0x25C6 JUMP JUMPDEST SWAP3 POP DUP3 DUP3 SUB SWAP1 POP DUP2 DUP2 GT ISZERO PUSH2 0x3F9E JUMPI PUSH2 0x3F9D PUSH2 0x36D5 JUMP JUMPDEST JUMPDEST SWAP3 SWAP2 POP POP JUMP JUMPDEST PUSH32 0x4F72646572206974656D206E6F7420666F756E64000000000000000000000000 PUSH0 DUP3 ADD MSTORE POP JUMP JUMPDEST PUSH0 PUSH2 0x3FD8 PUSH1 0x14 DUP4 PUSH2 0x323A JUMP JUMPDEST SWAP2 POP PUSH2 0x3FE3 DUP3 PUSH2 0x3FA4 JUMP JUMPDEST PUSH1 0x20 DUP3 ADD SWAP1 POP SWAP2 SWAP1 POP JUMP JUMPDEST PUSH0 PUSH1 0x20 DUP3 ADD SWAP1 POP DUP2 DUP2 SUB PUSH0 DUP4 ADD MSTORE PUSH2 0x4005 DUP2 PUSH2 0x3FCC JUMP JUMPDEST SWAP1 POP SWAP2 SWAP1 POP JUMP JUMPDEST PUSH2 0x4015 DUP2 PUSH2 0x2BA5 JUMP JUMPDEST DUP3 MSTORE POP POP JUMP JUMPDEST PUSH0 PUSH1 0x60 DUP3 ADD SWAP1 POP PUSH2 0x402E PUSH0 DUP4 ADD DUP7 PUSH2 0x25CF JUMP JUMPDEST PUSH2 0x403B PUSH1 0x20 DUP4 ADD DUP6 PUSH2 0x25CF JUMP JUMPDEST PUSH2 0x4048 PUSH1 0x40 DUP4 ADD DUP5 PUSH2 0x400C JUMP JUMPDEST SWAP5 SWAP4 POP POP POP POP JUMP JUMPDEST PUSH32 0x4F7264657220616C7265616479206D61726B656420617320636F6E6669726D2E PUSH0 DUP3 ADD MSTORE PUSH32 0x2043616E206E6F74207570646174650000000000000000000000000000000000 PUSH1 0x20 DUP3 ADD MSTORE POP JUMP JUMPDEST PUSH0 PUSH2 0x40AA PUSH1 0x2F DUP4 PUSH2 0x323A JUMP JUMPDEST SWAP2 POP PUSH2 0x40B5 DUP3 PUSH2 0x4050 JUMP JUMPDEST PUSH1 0x40 DUP3 ADD SWAP1 POP SWAP2 SWAP1 POP JUMP JUMPDEST PUSH0 PUSH1 0x20 DUP3 ADD SWAP1 POP DUP2 DUP2 SUB PUSH0 DUP4 ADD MSTORE PUSH2 0x40D7 DUP2 PUSH2 0x409E JUMP JUMPDEST SWAP1 POP SWAP2 SWAP1 POP JUMP JUMPDEST PUSH0 PUSH1 0x40 DUP3 ADD SWAP1 POP PUSH2 0x40F1 PUSH0 DUP4 ADD DUP6 PUSH2 0x25CF JUMP JUMPDEST PUSH2 0x40FE PUSH1 0x20 DUP4 ADD DUP5 PUSH2 0x3282 JUMP JUMPDEST SWAP4 SWAP3 POP POP POP JUMP INVALID LOG2 PUSH5 0x6970667358 0x22 SLT KECCAK256 PUSH25 0x5D11668044696470854CAACAB3FD69EE97501E1344586E1143 REVERT ADD SLOAD MSIZE 0xE 0x4C PUSH5 0x736F6C6343 STOP ADDMOD 0x1E STOP CALLER "
		},
		"gasEstimates": {
			"creation": {
				"codeDepositCost": "3339800",
				"executionCost": "infinite",
				"totalCost": "infinite"
			},
			"external": {
				"addStaffForOrder(uint256,uint256)": "infinite",
				"createOrder(address,uint256,string,string,(uint256,uint256,uint256)[])": "infinite",
				"foodManager()": "infinite",
				"getOrdersByStatus(uint8)": "infinite",
				"getUserOrders(address)": "infinite",
				"nextOrderId()": "2426",
				"orders(uint256)": "infinite",
				"roleAccess()": "infinite",
				"updateOrderItemStatus(uint256,uint256,uint8)": "infinite",
				"updateOrderStatus(uint256,uint8)": "infinite",
				"userOrders(address,uint256)": "infinite"
			}
		},
		"methodIdentifiers": {
			"addStaffForOrder(uint256,uint256)": "3f9fb5fd",
			"createOrder(address,uint256,string,string,(uint256,uint256,uint256)[])": "5055aa01",
			"foodManager()": "439e61fa",
			"getOrdersByStatus(uint8)": "8ce2ec79",
			"getUserOrders(address)": "63c69f08",
			"nextOrderId()": "2a58b330",
			"orders(uint256)": "a85c38ef",
			"roleAccess()": "42f54b89",
			"updateOrderItemStatus(uint256,uint256,uint8)": "8a46e8eb",
			"updateOrderStatus(uint256,uint8)": "aab3196d",
			"userOrders(address,uint256)": "856652e9"
		}
	},
	"abi": [
		{
			"inputs": [
				{
					"internalType": "address",
					"name": "_foodManagerAddress",
					"type": "address"
				},
				{
					"internalType": "address",
					"name": "_roleAcces",
					"type": "address"
				}
			],
			"stateMutability": "nonpayable",
			"type": "constructor"
		},
		{
			"anonymous": false,
			"inputs": [
				{
					"indexed": false,
					"internalType": "uint256",
					"name": "orderId",
					"type": "uint256"
				},
				{
					"indexed": false,
					"internalType": "address",
					"name": "user",
					"type": "address"
				},
				{
					"indexed": false,
					"internalType": "uint256",
					"name": "totalAmount",
					"type": "uint256"
				},
				{
					"indexed": false,
					"internalType": "enum OrderStatus",
					"name": "status",
					"type": "uint8"
				}
			],
			"name": "OrderCreated",
			"type": "event"
		},
		{
			"anonymous": false,
			"inputs": [
				{
					"indexed": false,
					"internalType": "uint256",
					"name": "orderId",
					"type": "uint256"
				}
			],
			"name": "OrderDeleted",
			"type": "event"
		},
		{
			"anonymous": false,
			"inputs": [
				{
					"indexed": false,
					"internalType": "uint256",
					"name": "orderId",
					"type": "uint256"
				},
				{
					"indexed": false,
					"internalType": "uint256",
					"name": "orderItemId",
					"type": "uint256"
				},
				{
					"indexed": false,
					"internalType": "enum OrderItemStatus",
					"name": "newStatus",
					"type": "uint8"
				}
			],
			"name": "OrderItemStatusUpdated",
			"type": "event"
		},
		{
			"anonymous": false,
			"inputs": [
				{
					"indexed": false,
					"internalType": "uint256",
					"name": "orderId",
					"type": "uint256"
				},
				{
					"indexed": false,
					"internalType": "enum OrderStatus",
					"name": "status",
					"type": "uint8"
				}
			],
			"name": "OrderUpdated",
			"type": "event"
		},
		{
			"inputs": [
				{
					"internalType": "uint256",
					"name": "orderId",
					"type": "uint256"
				},
				{
					"internalType": "uint256",
					"name": "staffId",
					"type": "uint256"
				}
			],
			"name": "addStaffForOrder",
			"outputs": [],
			"stateMutability": "nonpayable",
			"type": "function"
		},
		{
			"inputs": [
				{
					"internalType": "address",
					"name": "_user",
					"type": "address"
				},
				{
					"internalType": "uint256",
					"name": "_foodId",
					"type": "uint256"
				},
				{
					"internalType": "string",
					"name": "_userInfo",
					"type": "string"
				},
				{
					"internalType": "string",
					"name": "_note",
					"type": "string"
				},
				{
					"components": [
						{
							"internalType": "uint256",
							"name": "foodId",
							"type": "uint256"
						},
						{
							"internalType": "uint256",
							"name": "foodDetailId",
							"type": "uint256"
						},
						{
							"internalType": "uint256",
							"name": "quantity",
							"type": "uint256"
						}
					],
					"internalType": "struct OrderItemRequest[]",
					"name": "_items",
					"type": "tuple[]"
				}
			],
			"name": "createOrder",
			"outputs": [
				{
					"components": [
						{
							"internalType": "uint256",
							"name": "orderId",
							"type": "uint256"
						},
						{
							"internalType": "address",
							"name": "user",
							"type": "address"
						},
						{
							"internalType": "string",
							"name": "userInfo",
							"type": "string"
						},
						{
							"internalType": "string",
							"name": "note",
							"type": "string"
						},
						{
							"internalType": "string",
							"name": "name",
							"type": "string"
						},
						{
							"internalType": "string",
							"name": "imgage",
							"type": "string"
						},
						{
							"internalType": "uint256",
							"name": "staffId",
							"type": "uint256"
						},
						{
							"components": [
								{
									"internalType": "uint256",
									"name": "orderItemId",
									"type": "uint256"
								},
								{
									"internalType": "uint256",
									"name": "foodDetailId",
									"type": "uint256"
								},
								{
									"internalType": "uint256",
									"name": "foodId",
									"type": "uint256"
								},
								{
									"internalType": "uint256",
									"name": "quantity",
									"type": "uint256"
								},
								{
									"internalType": "uint256",
									"name": "price",
									"type": "uint256"
								},
								{
									"internalType": "enum OrderItemStatus",
									"name": "status",
									"type": "uint8"
								}
							],
							"internalType": "struct OrderItem[]",
							"name": "items",
							"type": "tuple[]"
						},
						{
							"internalType": "uint256",
							"name": "totalAmount",
							"type": "uint256"
						},
						{
							"internalType": "enum OrderStatus",
							"name": "status",
							"type": "uint8"
						},
						{
							"internalType": "uint256",
							"name": "timestamp",
							"type": "uint256"
						}
					],
					"internalType": "struct Order",
					"name": "",
					"type": "tuple"
				}
			],
			"stateMutability": "nonpayable",
			"type": "function"
		},
		{
			"inputs": [],
			"name": "foodManager",
			"outputs": [
				{
					"internalType": "contract IFoodManager",
					"name": "",
					"type": "address"
				}
			],
			"stateMutability": "view",
			"type": "function"
		},
		{
			"inputs": [
				{
					"internalType": "enum OrderStatus",
					"name": "_status",
					"type": "uint8"
				}
			],
			"name": "getOrdersByStatus",
			"outputs": [
				{
					"components": [
						{
							"internalType": "uint256",
							"name": "orderId",
							"type": "uint256"
						},
						{
							"internalType": "address",
							"name": "user",
							"type": "address"
						},
						{
							"internalType": "string",
							"name": "userInfo",
							"type": "string"
						},
						{
							"internalType": "string",
							"name": "note",
							"type": "string"
						},
						{
							"internalType": "string",
							"name": "name",
							"type": "string"
						},
						{
							"internalType": "string",
							"name": "imgage",
							"type": "string"
						},
						{
							"internalType": "uint256",
							"name": "staffId",
							"type": "uint256"
						},
						{
							"components": [
								{
									"internalType": "uint256",
									"name": "orderItemId",
									"type": "uint256"
								},
								{
									"internalType": "uint256",
									"name": "foodDetailId",
									"type": "uint256"
								},
								{
									"internalType": "uint256",
									"name": "foodId",
									"type": "uint256"
								},
								{
									"internalType": "uint256",
									"name": "quantity",
									"type": "uint256"
								},
								{
									"internalType": "uint256",
									"name": "price",
									"type": "uint256"
								},
								{
									"internalType": "enum OrderItemStatus",
									"name": "status",
									"type": "uint8"
								}
							],
							"internalType": "struct OrderItem[]",
							"name": "items",
							"type": "tuple[]"
						},
						{
							"internalType": "uint256",
							"name": "totalAmount",
							"type": "uint256"
						},
						{
							"internalType": "enum OrderStatus",
							"name": "status",
							"type": "uint8"
						},
						{
							"internalType": "uint256",
							"name": "timestamp",
							"type": "uint256"
						}
					],
					"internalType": "struct Order[]",
					"name": "",
					"type": "tuple[]"
				}
			],
			"stateMutability": "view",
			"type": "function"
		},
		{
			"inputs": [
				{
					"internalType": "address",
					"name": "_user",
					"type": "address"
				}
			],
			"name": "getUserOrders",
			"outputs": [
				{
					"internalType": "uint256[]",
					"name": "",
					"type": "uint256[]"
				}
			],
			"stateMutability": "view",
			"type": "function"
		},
		{
			"inputs": [],
			"name": "nextOrderId",
			"outputs": [
				{
					"internalType": "uint256",
					"name": "",
					"type": "uint256"
				}
			],
			"stateMutability": "view",
			"type": "function"
		},
		{
			"inputs": [
				{
					"internalType": "uint256",
					"name": "",
					"type": "uint256"
				}
			],
			"name": "orders",
			"outputs": [
				{
					"internalType": "uint256",
					"name": "orderId",
					"type": "uint256"
				},
				{
					"internalType": "address",
					"name": "user",
					"type": "address"
				},
				{
					"internalType": "string",
					"name": "userInfo",
					"type": "string"
				},
				{
					"internalType": "string",
					"name": "note",
					"type": "string"
				},
				{
					"internalType": "string",
					"name": "name",
					"type": "string"
				},
				{
					"internalType": "string",
					"name": "imgage",
					"type": "string"
				},
				{
					"internalType": "uint256",
					"name": "staffId",
					"type": "uint256"
				},
				{
					"internalType": "uint256",
					"name": "totalAmount",
					"type": "uint256"
				},
				{
					"internalType": "enum OrderStatus",
					"name": "status",
					"type": "uint8"
				},
				{
					"internalType": "uint256",
					"name": "timestamp",
					"type": "uint256"
				}
			],
			"stateMutability": "view",
			"type": "function"
		},
		{
			"inputs": [],
			"name": "roleAccess",
			"outputs": [
				{
					"internalType": "contract RoleAccess",
					"name": "",
					"type": "address"
				}
			],
			"stateMutability": "view",
			"type": "function"
		},
		{
			"inputs": [
				{
					"internalType": "uint256",
					"name": "_orderId",
					"type": "uint256"
				},
				{
					"internalType": "uint256",
					"name": "_orderItemId",
					"type": "uint256"
				},
				{
					"internalType": "enum OrderItemStatus",
					"name": "_newStatus",
					"type": "uint8"
				}
			],
			"name": "updateOrderItemStatus",
			"outputs": [],
			"stateMutability": "nonpayable",
			"type": "function"
		},
		{
			"inputs": [
				{
					"internalType": "uint256",
					"name": "_orderId",
					"type": "uint256"
				},
				{
					"internalType": "enum OrderStatus",
					"name": "_status",
					"type": "uint8"
				}
			],
			"name": "updateOrderStatus",
			"outputs": [],
			"stateMutability": "nonpayable",
			"type": "function"
		},
		{
			"inputs": [
				{
					"internalType": "address",
					"name": "",
					"type": "address"
				},
				{
					"internalType": "uint256",
					"name": "",
					"type": "uint256"
				}
			],
			"name": "userOrders",
			"outputs": [
				{
					"internalType": "uint256",
					"name": "",
					"type": "uint256"
				}
			],
			"stateMutability": "view",
			"type": "function"
		}
	]
}