{
	"data": {
		"bytecode": {
			"linkReferences": {},
			"object": "6080604052600160035560016005553480156018575f5ffd5b506040516133c73803806133c7833981016040819052603591608f565b5f80546001600160a01b039485166001600160a01b03199182161790915560018054928516928216929092179091556002805492909316911617905560c8565b80516001600160a01b0381168114608a575f5ffd5b919050565b5f5f5f6060848603121560a0575f5ffd5b60a7846075565b925060b3602085016075565b915060bf604085016075565b90509250925092565b6132f2806100d55f395ff3fe608060405234801561000f575f5ffd5b50600436106100cb575f3560e01c8063892bb335116100885780638ce2ec79116100635780638ce2ec79146101b6578063914ee455146101d6578063a85c38ef146101e9578063aab3196d14610213575f5ffd5b8063892bb335146101705780638a46e8eb146101835780638c9da84314610196575f5ffd5b80632a58b330146100cf5780633f9fb5fd146100eb57806342f54b8914610100578063439e61fa1461012b57806363c69f081461013d578063856652e91461015d575b5f5ffd5b6100d860055481565b6040519081526020015b60405180910390f35b6100fe6100f9366004612610565b610226565b005b600254610113906001600160a01b031681565b6040516001600160a01b0390911681526020016100e2565b5f54610113906001600160a01b031681565b61015061014b36600461264b565b61031e565b6040516100e2919061266b565b6100d861016b3660046126ad565b610387565b600154610113906001600160a01b031681565b6100fe6101913660046126e1565b6103b2565b6101a96101a4366004612862565b61095b565b6040516100e29190612b64565b6101c96101c4366004612b76565b6113bb565b6040516100e29190612b91565b6100fe6101e4366004612610565b611893565b6101fc6101f7366004612bf4565b611982565b6040516100e29b9a99989796959493929190612c0b565b6100fe610221366004612ca9565b611bfb565b600254604051630935e01b60e21b81523260048201526001600160a01b03909116906324d7806c90602401602060405180830381865afa15801561026c573d5f5f3e3d5ffd5b505050506040513d601f19601f820116820180604052508101906102909190612cd7565b6102b55760405162461bcd60e51b81526004016102ac90612cf6565b60405180910390fd5b5f82815260046020526040812054900361030a5760405162461bcd60e51b815260206004820152601660248201527513dc99195c925908191bd95cc81b9bdd08195e1a5cdd60521b60448201526064016102ac565b5f9182526004602052604090912060060155565b6001600160a01b0381165f9081526006602090815260409182902080548351818402810184019094528084526060939283018282801561037b57602002820191905f5260205f20905b815481526020019060010190808311610367575b50505050509050919050565b6006602052815f5260405f2081815481106103a0575f80fd5b905f5260205f20015f91509150505481565b600254604051630935e01b60e21b81523260048201526001600160a01b03909116906324d7806c90602401602060405180830381865afa1580156103f8573d5f5f3e3d5ffd5b505050506040513d601f19601f8201168201806040525081019061041c9190612cd7565b6104385760405162461bcd60e51b81526004016102ac90612cf6565b5f83815260046020526040812054900361048b5760405162461bcd60e51b815260206004820152601460248201527313dc99195c88191bd95cc81b9bdd08195e1a5cdd60621b60448201526064016102ac565b5f8381526004602052604081206008015490036104ea5760405162461bcd60e51b815260206004820152601960248201527f4f72646572206974656d20646f6573206e6f742065786973740000000000000060448201526064016102ac565b5f83815260046020526040812090805b60088301548110156108d4578483600801828154811061051c5761051c612d21565b905f5260205f2090600602015f0154036108cc575f83600801828154811061054657610546612d21565b5f91825260209091206005600690920201015460ff16600281111561056d5761056d6129c5565b036105d75760405162461bcd60e51b815260206004820152603460248201527f4f72646572206974656d20616c7265616479206d61726b656420617320737563604482015273636573732e2043616e206e6f742075706461746560601b60648201526084016102ac565b60028360080182815481106105ee576105ee612d21565b5f91825260209091206005600690920201015460ff166002811115610615576106156129c5565b036106815760405162461bcd60e51b815260206004820152603660248201527f4f72646572206974656d20616c7265616479206d61726b65642061732063616e60448201527563656c6c65642e2043616e206e6f742075706461746560501b60648201526084016102ac565b8383600801828154811061069757610697612d21565b5f9182526020909120600560069092020101805460ff191660018360028111156106c3576106c36129c5565b021790555060028360080182815481106106df576106df612d21565b5f91825260209091206005600690920201015460ff166002811115610706576107066129c5565b036108c3575f83600801828154811061072157610721612d21565b905f5260205f2090600602016040518060c00160405290815f820154815260200160018201548152602001600282015481526020016003820154815260200160048201548152602001600582015f9054906101000a900460ff16600281111561078c5761078c6129c5565b600281111561079d5761079d6129c5565b90525090505f8560028111156107b5576107b56129c5565b146108a5575f5460408281015160208401516060850151925163094b9a5360e01b81526004810192909252602482015260448101919091526001600160a01b039091169063094b9a53906064015f604051808303815f87803b158015610819575f5ffd5b505af115801561082b573d5f5f3e3d5ffd5b50505f54604084810151602086015160608701519251636c6b5baf60e01b81526004810192909252602482015260448101919091526001600160a01b039091169250636c6b5baf91506064015f604051808303815f87803b15801561088e575f5ffd5b505af11580156108a0573d5f5f3e3d5ffd5b505050505b8060800151846009015f8282546108bc9190612d49565b9091555050505b600191506108d4565b6001016104fa565b50806109195760405162461bcd60e51b815260206004820152601460248201527313dc99195c881a5d195b481b9bdd08199bdd5b9960621b60448201526064016102ac565b7faed146b8e6504d3a57dea2f60152e1133fa978a366cbdfbfa83328f48ff1ec0985858560405161094c93929190612d62565b60405180910390a15050505050565b6109636124b3565b5f8251116109bf5760405162461bcd60e51b8152602060048201526024808201527f4f72646572206d75737420636f6e7461696e206174206c65617374206f6e65206044820152636974656d60e01b60648201526084016102ac565b5f8054604051630f26f43960e11b8152600481018990526001600160a01b0390911690631e4de872906024015f60405180830381865afa158015610a05573d5f5f3e3d5ffd5b505050506040513d5f823e601f3d908101601f19168201604052610a2c9190810190612e5c565b600580549192505f91829182610a4183612f4f565b909155505f8181526004602052604090208181556001810180546001600160a01b0319166001600160a01b038e1617905590915060028101610a838a82612feb565b5060208401516004820190610a989082612feb565b505f60068201556007810187905560038101610ab48982612feb565b5083608001515f81518110610acb57610acb612d21565b6020026020010151816005019081610ae39190612feb565b50600a8101805460ff1916600117905542600b8201555f5b8651811015610e58575f805488516001600160a01b03909116906335085515908e908b9086908110610b2f57610b2f612d21565b6020026020010151602001516040518363ffffffff1660e01b8152600401610b61929190918252602082015260400190565b5f604051808303815f875af1158015610b7c573d5f5f3e3d5ffd5b505050506040513d5f823e601f3d908101601f19168201604052610ba391908101906130a8565b9050878281518110610bb757610bb7612d21565b6020026020010151604001518160800151610bd2919061313c565b610bdc9086613153565b5f5489519196506001600160a01b031690639a69bfa6908e908b9086908110610c0757610c07612d21565b6020026020010151602001518b8681518110610c2557610c25612d21565b6020026020010151604001516040518463ffffffff1660e01b8152600401610c60939291909283526020830191909152604082015260600190565b5f604051808303815f87803b158015610c77575f5ffd5b505af1158015610c89573d5f5f3e3d5ffd5b50505f5483518b516001600160a01b03909216935062e081dd92508f918c9087908110610cb857610cb8612d21565b6020026020010151604001516040518463ffffffff1660e01b8152600401610cf3939291909283526020830191909152604082015260600190565b5f604051808303815f87803b158015610d0a575f5ffd5b505af1158015610d1c573d5f5f3e3d5ffd5b50505050826008016040518060c0016040528060035f815480929190610d4190612f4f565b9190505581526020018a8581518110610d5c57610d5c612d21565b60200260200101516020015181526020018a8581518110610d7f57610d7f612d21565b60200260200101515f015181526020018a8581518110610da157610da1612d21565b60200260200101516040015181526020018360800151815260200160016002811115610dcf57610dcf6129c5565b90528154600181810184555f938452602093849020835160069093020191825592820151818401556040820151600280830191909155606083015160038301556080830151600483015560a0830151600583018054949593949193909260ff19909216918490811115610e4457610e446129c5565b02179055505060019092019150610afb9050565b50600981018390555f8281526004602052604090208154815560018083015490820180546001600160a01b0319166001600160a01b039092169190911790558190600280820190610eab90840182613166565b50600381810190610ebe90840182613166565b50600481810190610ed190840182613166565b50600581810190610ee490840182613166565b5060068201548160060155600782015481600701556008820181600801908054610f0f929190612527565b5060098281015490820155600a80830154908201805460ff9092169160ff19166001836002811115610f4357610f436129c5565b0217905550600b918201549101558615610fb65760018054604051632d2bf54b60e21b81526001600160a01b039091169163b4afd52c91610f88918b91600401613232565b5f604051808303815f87803b158015610f9f575f5ffd5b505af1158015610fb1573d5f5f3e3d5ffd5b505050505b6001600160a01b038b165f90815260066020908152604080832080546001818101835591855292909320909101849055517f4a7c6b1e984c5ac140f100a4898dce117573b0fe14a829675781be4f938a3065916110199185918f91889190613256565b60405180910390a160408051610180810182528254815260018301546001600160a01b0316602082015260028301805491928492908401919061105b90612f67565b80601f016020809104026020016040519081016040528092919081815260200182805461108790612f67565b80156110d25780601f106110a9576101008083540402835291602001916110d2565b820191905f5260205f20905b8154815290600101906020018083116110b557829003601f168201915b505050505081526020016003820180546110eb90612f67565b80601f016020809104026020016040519081016040528092919081815260200182805461111790612f67565b80156111625780601f1061113957610100808354040283529160200191611162565b820191905f5260205f20905b81548152906001019060200180831161114557829003601f168201915b5050505050815260200160048201805461117b90612f67565b80601f01602080910402602001604051908101604052809291908181526020018280546111a790612f67565b80156111f25780601f106111c9576101008083540402835291602001916111f2565b820191905f5260205f20905b8154815290600101906020018083116111d557829003601f168201915b5050505050815260200160058201805461120b90612f67565b80601f016020809104026020016040519081016040528092919081815260200182805461123790612f67565b80156112825780601f1061125957610100808354040283529160200191611282565b820191905f5260205f20905b81548152906001019060200180831161126557829003601f168201915b50505050508152602001600682015481526020016007820154815260200160088201805480602002602001604051908101604052809291908181526020015f905b8282101561135c578382905f5260205f2090600602016040518060c00160405290815f820154815260200160018201548152602001600282015481526020016003820154815260200160048201548152602001600582015f9054906101000a900460ff166002811115611338576113386129c5565b6002811115611349576113496129c5565b81525050815260200190600101906112c3565b5050509082525060098201546020820152600a82015460409091019060ff16600281111561138c5761138c6129c5565b600281111561139d5761139d6129c5565b8152602001600b820154815250509450505050509695505050505050565b60605f60015b60055481101561141d578360028111156113dd576113dd6129c5565b5f828152600460205260409020600a015460ff166002811115611402576114026129c5565b03611415578161141181612f4f565b9250505b6001016113c1565b505f816001600160401b0381111561143757611437612717565b60405190808252806020026020018201604052801561147057816020015b61145d6124b3565b8152602001906001900390816114555790505b5090505f60015b60055481101561188957856002811115611493576114936129c5565b5f828152600460205260409020600a015460ff1660028111156114b8576114b86129c5565b03611881575f818152600460209081526040918290208251610180810184528154815260018201546001600160a01b031692810192909252600281018054929391929184019161150790612f67565b80601f016020809104026020016040519081016040528092919081815260200182805461153390612f67565b801561157e5780601f106115555761010080835404028352916020019161157e565b820191905f5260205f20905b81548152906001019060200180831161156157829003601f168201915b5050505050815260200160038201805461159790612f67565b80601f01602080910402602001604051908101604052809291908181526020018280546115c390612f67565b801561160e5780601f106115e55761010080835404028352916020019161160e565b820191905f5260205f20905b8154815290600101906020018083116115f157829003601f168201915b5050505050815260200160048201805461162790612f67565b80601f016020809104026020016040519081016040528092919081815260200182805461165390612f67565b801561169e5780601f106116755761010080835404028352916020019161169e565b820191905f5260205f20905b81548152906001019060200180831161168157829003601f168201915b505050505081526020016005820180546116b790612f67565b80601f01602080910402602001604051908101604052809291908181526020018280546116e390612f67565b801561172e5780601f106117055761010080835404028352916020019161172e565b820191905f5260205f20905b81548152906001019060200180831161171157829003601f168201915b50505050508152602001600682015481526020016007820154815260200160088201805480602002602001604051908101604052809291908181526020015f905b82821015611808578382905f5260205f2090600602016040518060c00160405290815f820154815260200160018201548152602001600282015481526020016003820154815260200160048201548152602001600582015f9054906101000a900460ff1660028111156117e4576117e46129c5565b60028111156117f5576117f56129c5565b815250508152602001906001019061176f565b5050509082525060098201546020820152600a82015460409091019060ff166002811115611838576118386129c5565b6002811115611849576118496129c5565b8152602001600b8201548152505083838061186390612f4f565b94508151811061187557611875612d21565b60200260200101819052505b600101611477565b5090949350505050565b600254604051630935e01b60e21b81523260048201526001600160a01b03909116906324d7806c90602401602060405180830381865afa1580156118d9573d5f5f3e3d5ffd5b505050506040513d601f19601f820116820180604052508101906118fd9190612cd7565b6119195760405162461bcd60e51b81526004016102ac90612cf6565b5f82815260046020526040812054900361196e5760405162461bcd60e51b815260206004820152601660248201527513dc99195c925908191bd95cc81b9bdd08195e1a5cdd60521b60448201526064016102ac565b5f9182526004602052604090912060070155565b60046020525f908152604090208054600182015460028301805492936001600160a01b03909216926119b390612f67565b80601f01602080910402602001604051908101604052809291908181526020018280546119df90612f67565b8015611a2a5780601f10611a0157610100808354040283529160200191611a2a565b820191905f5260205f20905b815481529060010190602001808311611a0d57829003601f168201915b505050505090806003018054611a3f90612f67565b80601f0160208091040260200160405190810160405280929190818152602001828054611a6b90612f67565b8015611ab65780601f10611a8d57610100808354040283529160200191611ab6565b820191905f5260205f20905b815481529060010190602001808311611a9957829003601f168201915b505050505090806004018054611acb90612f67565b80601f0160208091040260200160405190810160405280929190818152602001828054611af790612f67565b8015611b425780601f10611b1957610100808354040283529160200191611b42565b820191905f5260205f20905b815481529060010190602001808311611b2557829003601f168201915b505050505090806005018054611b5790612f67565b80601f0160208091040260200160405190810160405280929190818152602001828054611b8390612f67565b8015611bce5780601f10611ba557610100808354040283529160200191611bce565b820191905f5260205f20905b815481529060010190602001808311611bb157829003601f168201915b50505050600683015460078401546009850154600a860154600b90960154949592949193509160ff16908b565b600254604051630935e01b60e21b81523260048201526001600160a01b03909116906324d7806c90602401602060405180830381865afa158015611c41573d5f5f3e3d5ffd5b505050506040513d601f19601f82011682018060405250810190611c659190612cd7565b611c815760405162461bcd60e51b81526004016102ac90612cf6565b5f8281526004602090815260408083208151610180810183528154815260018201546001600160a01b0316938101939093526002810180549192840191611cc790612f67565b80601f0160208091040260200160405190810160405280929190818152602001828054611cf390612f67565b8015611d3e5780601f10611d1557610100808354040283529160200191611d3e565b820191905f5260205f20905b815481529060010190602001808311611d2157829003601f168201915b50505050508152602001600382018054611d5790612f67565b80601f0160208091040260200160405190810160405280929190818152602001828054611d8390612f67565b8015611dce5780601f10611da557610100808354040283529160200191611dce565b820191905f5260205f20905b815481529060010190602001808311611db157829003601f168201915b50505050508152602001600482018054611de790612f67565b80601f0160208091040260200160405190810160405280929190818152602001828054611e1390612f67565b8015611e5e5780601f10611e3557610100808354040283529160200191611e5e565b820191905f5260205f20905b815481529060010190602001808311611e4157829003601f168201915b50505050508152602001600582018054611e7790612f67565b80601f0160208091040260200160405190810160405280929190818152602001828054611ea390612f67565b8015611eee5780601f10611ec557610100808354040283529160200191611eee565b820191905f5260205f20905b815481529060010190602001808311611ed157829003601f168201915b50505050508152602001600682015481526020016007820154815260200160088201805480602002602001604051908101604052809291908181526020015f905b82821015611fc8578382905f5260205f2090600602016040518060c00160405290815f820154815260200160018201548152602001600282015481526020016003820154815260200160048201548152602001600582015f9054906101000a900460ff166002811115611fa457611fa46129c5565b6002811115611fb557611fb56129c5565b8152505081526020019060010190611f2f565b5050509082525060098201546020820152600a82015460409091019060ff166002811115611ff857611ff86129c5565b6002811115612009576120096129c5565b8152602001600b820154815250509050805f01515f036120625760405162461bcd60e51b815260206004820152601460248201527313dc99195c88191bd95cc81b9bdd08195e1a5cdd60621b60448201526064016102ac565b5f816101400151600281111561207a5761207a6129c5565b036120df5760405162461bcd60e51b815260206004820152602f60248201527f4f7264657220616c7265616479206d61726b656420617320636f6e6669726d2e60448201526e2043616e206e6f742075706461746560881b60648201526084016102ac565b600281610140015160028111156120f8576120f86129c5565b036121605760405162461bcd60e51b815260206004820152603260248201527f4f7264657220616c72656164792063616e63656c6c656420617320636f6e6669604482015271726d2e2043616e206e6f742075706461746560701b60648201526084016102ac565b5f5b81610100015151811015612332575f5461010083015180516001600160a01b039092169163094b9a5391908490811061219d5761219d612d21565b60200260200101516040015184610100015184815181106121c0576121c0612d21565b60200260200101516020015185610100015185815181106121e3576121e3612d21565b6020026020010151606001516040518463ffffffff1660e01b815260040161221e939291909283526020830191909152604082015260600190565b5f604051808303815f87803b158015612235575f5ffd5b505af1158015612247573d5f5f3e3d5ffd5b50505f5461010085015180516001600160a01b039092169350636c6b5baf9250908490811061227857612278612d21565b602002602001015160400151846101000151848151811061229b5761229b612d21565b60200260200101516020015185610100015185815181106122be576122be612d21565b6020026020010151606001516040518463ffffffff1660e01b81526004016122f9939291909283526020830191909152604082015260600190565b5f604051808303815f87803b158015612310575f5ffd5b505af1158015612322573d5f5f3e3d5ffd5b5050600190920191506121629050565b506123626040518060400160405280600981526020016803a30b13632a4b21d160bd1b8152508260e0015161243f565b60e0810151156123cf5760015460e0820151604051632d2bf54b60e21b81526001600160a01b039092169163b4afd52c916123a1915f90600401613232565b5f604051808303815f87803b1580156123b8575f5ffd5b505af11580156123ca573d5f5f3e3d5ffd5b505050505b5f838152600460205260409020600a01805483919060ff191660018360028111156123fc576123fc6129c5565b02179055507f575764e5527275e78fb8b8cecd6ae324a82d9904ef7a29349dabdff1e1f54c35838360405161243292919061328b565b60405180910390a1505050565b612484828260405160240161245592919061329b565b60408051601f198184030181529190526020810180516001600160e01b0316632d839cb360e21b179052612488565b5050565b61249181612494565b50565b5f6a636f6e736f6c652e6c6f6790505f5f835160208501845afa505050565b6040518061018001604052805f81526020015f6001600160a01b03168152602001606081526020016060815260200160608152602001606081526020015f81526020015f8152602001606081526020015f81526020015f600281111561251b5761251b6129c5565b81526020015f81525090565b828054828255905f5260205f209060060281019282156125c5575f5260205f209160060282015b828111156125c557825482556001808401548184015560028085015481850155600380860154908501556004808601549085015560058086015490850180548794879460ff9094169360ff199092169184908111156125af576125af6129c5565b021790555050509160060191906006019061254e565b506125d19291506125d5565b5090565b5b808211156125d1575f808255600182018190556002820181905560038201819055600482015560058101805460ff191690556006016125d6565b5f5f60408385031215612621575f5ffd5b50508035926020909101359150565b80356001600160a01b0381168114612646575f5ffd5b919050565b5f6020828403121561265b575f5ffd5b61266482612630565b9392505050565b602080825282518282018190525f918401906040840190835b818110156126a2578351835260209384019390920191600101612684565b509095945050505050565b5f5f604083850312156126be575f5ffd5b6126c783612630565b946020939093013593505050565b60038110612491575f5ffd5b5f5f5f606084860312156126f3575f5ffd5b8335925060208401359150604084013561270c816126d5565b809150509250925092565b634e487b7160e01b5f52604160045260245ffd5b604051606081016001600160401b038111828210171561274d5761274d612717565b60405290565b60405161010081016001600160401b038111828210171561274d5761274d612717565b60405160a081016001600160401b038111828210171561274d5761274d612717565b604051601f8201601f191681016001600160401b03811182821017156127c0576127c0612717565b604052919050565b5f6001600160401b038211156127e0576127e0612717565b50601f01601f191660200190565b5f82601f8301126127fd575f5ffd5b813561281061280b826127c8565b612798565b818152846020838601011115612824575f5ffd5b816020850160208301375f918101602001919091529392505050565b5f6001600160401b0382111561285857612858612717565b5060051b60200190565b5f5f5f5f5f5f60c08789031215612877575f5ffd5b61288087612630565b95506020870135945060408701356001600160401b038111156128a1575f5ffd5b6128ad89828a016127ee565b94505060608701356001600160401b038111156128c8575f5ffd5b6128d489828a016127ee565b9350506080870135915060a08701356001600160401b038111156128f6575f5ffd5b8701601f81018913612906575f5ffd5b803561291461280b82612840565b8082825260208201915060206060840285010192508b831115612935575f5ffd5b6020840193505b82841015612986576060848d031215612953575f5ffd5b61295b61272b565b843581526020808601358183015260408087013590830152908352606090940193919091019061293c565b809450505050509295509295509295565b5f81518084528060208401602086015e5f602082860101526020601f19601f83011685010191505092915050565b634e487b7160e01b5f52602160045260245ffd5b60038110612491576124916129c5565b5f8151808452602084019350602083015f5b82811015612a5b578151805187526020810151602088015260408101516040880152606081015160608801526080810151608088015260a08101519050612a41816129d9565b60a087015260c090950194602091909101906001016129fb565b5093949350505050565b612a6e816129d9565b9052565b805182525f6020820151612a9160208501826001600160a01b03169052565b5060408201516101806040850152612aad610180850182612997565b905060608301518482036060860152612ac68282612997565b91505060808301518482036080860152612ae08282612997565b91505060a083015184820360a0860152612afa8282612997565b91505060c083015160c085015260e083015160e0850152610100830151848203610100860152612b2a82826129e9565b915050610120830151610120850152610140830151612b4d610140860182612a65565b506101608301516101608501528091505092915050565b602081525f6126646020830184612a72565b5f60208284031215612b86575f5ffd5b8135612664816126d5565b5f602082016020835280845180835260408501915060408160051b8601019250602086015f5b82811015612be857603f19878603018452612bd3858351612a72565b94506020938401939190910190600101612bb7565b50929695505050505050565b5f60208284031215612c04575f5ffd5b5035919050565b8b81526001600160a01b038b166020820152610160604082018190525f90612c359083018c612997565b8281036060840152612c47818c612997565b90508281036080840152612c5b818b612997565b905082810360a0840152612c6f818a612997565b9150508660c08301528560e083015284610100830152612c8e846129d9565b61012082019390935261014001529998505050505050505050565b5f5f60408385031215612cba575f5ffd5b823591506020830135612ccc816126d5565b809150509250929050565b5f60208284031215612ce7575f5ffd5b81518015158114612664575f5ffd5b6020808252601190820152702cb7ba9030b932903737ba1030b236b4b760791b604082015260600190565b634e487b7160e01b5f52603260045260245ffd5b634e487b7160e01b5f52601160045260245ffd5b81810381811115612d5c57612d5c612d35565b92915050565b8381526020810183905260608101612d79836129d9565b826040830152949350505050565b5f82601f830112612d96575f5ffd5b8151612da461280b826127c8565b818152846020838601011115612db8575f5ffd5b8160208501602083015e5f918101602001919091529392505050565b5f82601f830112612de3575f5ffd5b8151612df161280b82612840565b8082825260208201915060208360051b860101925085831115612e12575f5ffd5b602085015b83811015612e525780516001600160401b03811115612e34575f5ffd5b612e43886020838a0101612d87565b84525060209283019201612e17565b5095945050505050565b5f60208284031215612e6c575f5ffd5b81516001600160401b03811115612e81575f5ffd5b82016101008185031215612e93575f5ffd5b612e9b612753565b8151815260208201516001600160401b03811115612eb7575f5ffd5b612ec386828501612d87565b60208301525060408201516001600160401b03811115612ee1575f5ffd5b612eed86828501612d87565b6040830152506060828101519082015260808201516001600160401b03811115612f15575f5ffd5b612f2186828501612dd4565b60808301525060a0828101519082015260c0808301519082015260e091820151918101919091529392505050565b5f60018201612f6057612f60612d35565b5060010190565b600181811c90821680612f7b57607f821691505b602082108103612f9957634e487b7160e01b5f52602260045260245ffd5b50919050565b601f821115612fe657805f5260205f20601f840160051c81016020851015612fc45750805b601f840160051c820191505b81811015612fe3575f8155600101612fd0565b50505b505050565b81516001600160401b0381111561300457613004612717565b613018816130128454612f67565b84612f9f565b6020601f82116001811461304d575f83156130335750848201515b600184901b5f19600386901b1c198216175b855550612fe3565b5f84815260208120601f198516915b8281101561307c578785015182556020948501946001909201910161305c565b508482101561309957868401515f19600387901b60f8161c191681555b50505050600190811b01905550565b5f602082840312156130b8575f5ffd5b81516001600160401b038111156130cd575f5ffd5b820160a081850312156130de575f5ffd5b6130e6612776565b8151815260208201516001600160401b03811115613102575f5ffd5b61310e86828501612d87565b6020830152506040828101519082015260608083015190820152608091820151918101919091529392505050565b8082028115828204841417612d5c57612d5c612d35565b80820180821115612d5c57612d5c612d35565b818103613171575050565b61317b8254612f67565b6001600160401b0381111561319257613192612717565b6131a0816130128454612f67565b5f601f8211600181146131cf575f8315613033575081850154600184901b5f19600386901b1c19821617613045565b5f8581526020808220868352908220601f198616925b8381101561320557828601548255600195860195909101906020016131e5565b508583101561322257818501545f19600388901b60f8161c191681555b5050505050600190811b01905550565b8281526040810160028310613249576132496129c5565b8260208301529392505050565b8481526001600160a01b0384166020820152604081018390526080810161327c836129d9565b82606083015295945050505050565b82815260408101613249836129d9565b604081525f6132ad6040830185612997565b9050826020830152939250505056fea2646970667358221220f12228e2fa19b149868ba454afbf9c39215d9fc9484b797002c74596d78c24cd64736f6c634300081e0033",
			"opcodes": "PUSH1 0x80 PUSH1 0x40 MSTORE PUSH1 0x1 PUSH1 0x3 SSTORE PUSH1 0x1 PUSH1 0x5 SSTORE CALLVALUE DUP1 ISZERO PUSH1 0x18 JUMPI PUSH0 PUSH0 REVERT JUMPDEST POP PUSH1 0x40 MLOAD PUSH2 0x33C7 CODESIZE SUB DUP1 PUSH2 0x33C7 DUP4 CODECOPY DUP2 ADD PUSH1 0x40 DUP2 SWAP1 MSTORE PUSH1 0x35 SWAP2 PUSH1 0x8F JUMP JUMPDEST PUSH0 DUP1 SLOAD PUSH1 0x1 PUSH1 0x1 PUSH1 0xA0 SHL SUB SWAP5 DUP6 AND PUSH1 0x1 PUSH1 0x1 PUSH1 0xA0 SHL SUB NOT SWAP2 DUP3 AND OR SWAP1 SWAP2 SSTORE PUSH1 0x1 DUP1 SLOAD SWAP3 DUP6 AND SWAP3 DUP3 AND SWAP3 SWAP1 SWAP3 OR SWAP1 SWAP2 SSTORE PUSH1 0x2 DUP1 SLOAD SWAP3 SWAP1 SWAP4 AND SWAP2 AND OR SWAP1 SSTORE PUSH1 0xC8 JUMP JUMPDEST DUP1 MLOAD PUSH1 0x1 PUSH1 0x1 PUSH1 0xA0 SHL SUB DUP2 AND DUP2 EQ PUSH1 0x8A JUMPI PUSH0 PUSH0 REVERT JUMPDEST SWAP2 SWAP1 POP JUMP JUMPDEST PUSH0 PUSH0 PUSH0 PUSH1 0x60 DUP5 DUP7 SUB SLT ISZERO PUSH1 0xA0 JUMPI PUSH0 PUSH0 REVERT JUMPDEST PUSH1 0xA7 DUP5 PUSH1 0x75 JUMP JUMPDEST SWAP3 POP PUSH1 0xB3 PUSH1 0x20 DUP6 ADD PUSH1 0x75 JUMP JUMPDEST SWAP2 POP PUSH1 0xBF PUSH1 0x40 DUP6 ADD PUSH1 0x75 JUMP JUMPDEST SWAP1 POP SWAP3 POP SWAP3 POP SWAP3 JUMP JUMPDEST PUSH2 0x32F2 DUP1 PUSH2 0xD5 PUSH0 CODECOPY PUSH0 RETURN INVALID PUSH1 0x80 PUSH1 0x40 MSTORE CALLVALUE DUP1 ISZERO PUSH2 0xF JUMPI PUSH0 PUSH0 REVERT JUMPDEST POP PUSH1 0x4 CALLDATASIZE LT PUSH2 0xCB JUMPI PUSH0 CALLDATALOAD PUSH1 0xE0 SHR DUP1 PUSH4 0x892BB335 GT PUSH2 0x88 JUMPI DUP1 PUSH4 0x8CE2EC79 GT PUSH2 0x63 JUMPI DUP1 PUSH4 0x8CE2EC79 EQ PUSH2 0x1B6 JUMPI DUP1 PUSH4 0x914EE455 EQ PUSH2 0x1D6 JUMPI DUP1 PUSH4 0xA85C38EF EQ PUSH2 0x1E9 JUMPI DUP1 PUSH4 0xAAB3196D EQ PUSH2 0x213 JUMPI PUSH0 PUSH0 REVERT JUMPDEST DUP1 PUSH4 0x892BB335 EQ PUSH2 0x170 JUMPI DUP1 PUSH4 0x8A46E8EB EQ PUSH2 0x183 JUMPI DUP1 PUSH4 0x8C9DA843 EQ PUSH2 0x196 JUMPI PUSH0 PUSH0 REVERT JUMPDEST DUP1 PUSH4 0x2A58B330 EQ PUSH2 0xCF JUMPI DUP1 PUSH4 0x3F9FB5FD EQ PUSH2 0xEB JUMPI DUP1 PUSH4 0x42F54B89 EQ PUSH2 0x100 JUMPI DUP1 PUSH4 0x439E61FA EQ PUSH2 0x12B JUMPI DUP1 PUSH4 0x63C69F08 EQ PUSH2 0x13D JUMPI DUP1 PUSH4 0x856652E9 EQ PUSH2 0x15D JUMPI JUMPDEST PUSH0 PUSH0 REVERT JUMPDEST PUSH2 0xD8 PUSH1 0x5 SLOAD DUP2 JUMP JUMPDEST PUSH1 0x40 MLOAD SWAP1 DUP2 MSTORE PUSH1 0x20 ADD JUMPDEST PUSH1 0x40 MLOAD DUP1 SWAP2 SUB SWAP1 RETURN JUMPDEST PUSH2 0xFE PUSH2 0xF9 CALLDATASIZE PUSH1 0x4 PUSH2 0x2610 JUMP JUMPDEST PUSH2 0x226 JUMP JUMPDEST STOP JUMPDEST PUSH1 0x2 SLOAD PUSH2 0x113 SWAP1 PUSH1 0x1 PUSH1 0x1 PUSH1 0xA0 SHL SUB AND DUP2 JUMP JUMPDEST PUSH1 0x40 MLOAD PUSH1 0x1 PUSH1 0x1 PUSH1 0xA0 SHL SUB SWAP1 SWAP2 AND DUP2 MSTORE PUSH1 0x20 ADD PUSH2 0xE2 JUMP JUMPDEST PUSH0 SLOAD PUSH2 0x113 SWAP1 PUSH1 0x1 PUSH1 0x1 PUSH1 0xA0 SHL SUB AND DUP2 JUMP JUMPDEST PUSH2 0x150 PUSH2 0x14B CALLDATASIZE PUSH1 0x4 PUSH2 0x264B JUMP JUMPDEST PUSH2 0x31E JUMP JUMPDEST PUSH1 0x40 MLOAD PUSH2 0xE2 SWAP2 SWAP1 PUSH2 0x266B JUMP JUMPDEST PUSH2 0xD8 PUSH2 0x16B CALLDATASIZE PUSH1 0x4 PUSH2 0x26AD JUMP JUMPDEST PUSH2 0x387 JUMP JUMPDEST PUSH1 0x1 SLOAD PUSH2 0x113 SWAP1 PUSH1 0x1 PUSH1 0x1 PUSH1 0xA0 SHL SUB AND DUP2 JUMP JUMPDEST PUSH2 0xFE PUSH2 0x191 CALLDATASIZE PUSH1 0x4 PUSH2 0x26E1 JUMP JUMPDEST PUSH2 0x3B2 JUMP JUMPDEST PUSH2 0x1A9 PUSH2 0x1A4 CALLDATASIZE PUSH1 0x4 PUSH2 0x2862 JUMP JUMPDEST PUSH2 0x95B JUMP JUMPDEST PUSH1 0x40 MLOAD PUSH2 0xE2 SWAP2 SWAP1 PUSH2 0x2B64 JUMP JUMPDEST PUSH2 0x1C9 PUSH2 0x1C4 CALLDATASIZE PUSH1 0x4 PUSH2 0x2B76 JUMP JUMPDEST PUSH2 0x13BB JUMP JUMPDEST PUSH1 0x40 MLOAD PUSH2 0xE2 SWAP2 SWAP1 PUSH2 0x2B91 JUMP JUMPDEST PUSH2 0xFE PUSH2 0x1E4 CALLDATASIZE PUSH1 0x4 PUSH2 0x2610 JUMP JUMPDEST PUSH2 0x1893 JUMP JUMPDEST PUSH2 0x1FC PUSH2 0x1F7 CALLDATASIZE PUSH1 0x4 PUSH2 0x2BF4 JUMP JUMPDEST PUSH2 0x1982 JUMP JUMPDEST PUSH1 0x40 MLOAD PUSH2 0xE2 SWAP12 SWAP11 SWAP10 SWAP9 SWAP8 SWAP7 SWAP6 SWAP5 SWAP4 SWAP3 SWAP2 SWAP1 PUSH2 0x2C0B JUMP JUMPDEST PUSH2 0xFE PUSH2 0x221 CALLDATASIZE PUSH1 0x4 PUSH2 0x2CA9 JUMP JUMPDEST PUSH2 0x1BFB JUMP JUMPDEST PUSH1 0x2 SLOAD PUSH1 0x40 MLOAD PUSH4 0x935E01B PUSH1 0xE2 SHL DUP2 MSTORE ORIGIN PUSH1 0x4 DUP3 ADD MSTORE PUSH1 0x1 PUSH1 0x1 PUSH1 0xA0 SHL SUB SWAP1 SWAP2 AND SWAP1 PUSH4 0x24D7806C SWAP1 PUSH1 0x24 ADD PUSH1 0x20 PUSH1 0x40 MLOAD DUP1 DUP4 SUB DUP2 DUP7 GAS STATICCALL ISZERO DUP1 ISZERO PUSH2 0x26C JUMPI RETURNDATASIZE PUSH0 PUSH0 RETURNDATACOPY RETURNDATASIZE PUSH0 REVERT JUMPDEST POP POP POP POP PUSH1 0x40 MLOAD RETURNDATASIZE PUSH1 0x1F NOT PUSH1 0x1F DUP3 ADD AND DUP3 ADD DUP1 PUSH1 0x40 MSTORE POP DUP2 ADD SWAP1 PUSH2 0x290 SWAP2 SWAP1 PUSH2 0x2CD7 JUMP JUMPDEST PUSH2 0x2B5 JUMPI PUSH1 0x40 MLOAD PUSH3 0x461BCD PUSH1 0xE5 SHL DUP2 MSTORE PUSH1 0x4 ADD PUSH2 0x2AC SWAP1 PUSH2 0x2CF6 JUMP JUMPDEST PUSH1 0x40 MLOAD DUP1 SWAP2 SUB SWAP1 REVERT JUMPDEST PUSH0 DUP3 DUP2 MSTORE PUSH1 0x4 PUSH1 0x20 MSTORE PUSH1 0x40 DUP2 KECCAK256 SLOAD SWAP1 SUB PUSH2 0x30A JUMPI PUSH1 0x40 MLOAD PUSH3 0x461BCD PUSH1 0xE5 SHL DUP2 MSTORE PUSH1 0x20 PUSH1 0x4 DUP3 ADD MSTORE PUSH1 0x16 PUSH1 0x24 DUP3 ADD MSTORE PUSH22 0x13DC99195C925908191BD95CC81B9BDD08195E1A5CDD PUSH1 0x52 SHL PUSH1 0x44 DUP3 ADD MSTORE PUSH1 0x64 ADD PUSH2 0x2AC JUMP JUMPDEST PUSH0 SWAP2 DUP3 MSTORE PUSH1 0x4 PUSH1 0x20 MSTORE PUSH1 0x40 SWAP1 SWAP2 KECCAK256 PUSH1 0x6 ADD SSTORE JUMP JUMPDEST PUSH1 0x1 PUSH1 0x1 PUSH1 0xA0 SHL SUB DUP2 AND PUSH0 SWAP1 DUP2 MSTORE PUSH1 0x6 PUSH1 0x20 SWAP1 DUP2 MSTORE PUSH1 0x40 SWAP2 DUP3 SWAP1 KECCAK256 DUP1 SLOAD DUP4 MLOAD DUP2 DUP5 MUL DUP2 ADD DUP5 ADD SWAP1 SWAP5 MSTORE DUP1 DUP5 MSTORE PUSH1 0x60 SWAP4 SWAP3 DUP4 ADD DUP3 DUP3 DUP1 ISZERO PUSH2 0x37B JUMPI PUSH1 0x20 MUL DUP3 ADD SWAP2 SWAP1 PUSH0 MSTORE PUSH1 0x20 PUSH0 KECCAK256 SWAP1 JUMPDEST DUP2 SLOAD DUP2 MSTORE PUSH1 0x20 ADD SWAP1 PUSH1 0x1 ADD SWAP1 DUP1 DUP4 GT PUSH2 0x367 JUMPI JUMPDEST POP POP POP POP POP SWAP1 POP SWAP2 SWAP1 POP JUMP JUMPDEST PUSH1 0x6 PUSH1 0x20 MSTORE DUP2 PUSH0 MSTORE PUSH1 0x40 PUSH0 KECCAK256 DUP2 DUP2 SLOAD DUP2 LT PUSH2 0x3A0 JUMPI PUSH0 DUP1 REVERT JUMPDEST SWAP1 PUSH0 MSTORE PUSH1 0x20 PUSH0 KECCAK256 ADD PUSH0 SWAP2 POP SWAP2 POP POP SLOAD DUP2 JUMP JUMPDEST PUSH1 0x2 SLOAD PUSH1 0x40 MLOAD PUSH4 0x935E01B PUSH1 0xE2 SHL DUP2 MSTORE ORIGIN PUSH1 0x4 DUP3 ADD MSTORE PUSH1 0x1 PUSH1 0x1 PUSH1 0xA0 SHL SUB SWAP1 SWAP2 AND SWAP1 PUSH4 0x24D7806C SWAP1 PUSH1 0x24 ADD PUSH1 0x20 PUSH1 0x40 MLOAD DUP1 DUP4 SUB DUP2 DUP7 GAS STATICCALL ISZERO DUP1 ISZERO PUSH2 0x3F8 JUMPI RETURNDATASIZE PUSH0 PUSH0 RETURNDATACOPY RETURNDATASIZE PUSH0 REVERT JUMPDEST POP POP POP POP PUSH1 0x40 MLOAD RETURNDATASIZE PUSH1 0x1F NOT PUSH1 0x1F DUP3 ADD AND DUP3 ADD DUP1 PUSH1 0x40 MSTORE POP DUP2 ADD SWAP1 PUSH2 0x41C SWAP2 SWAP1 PUSH2 0x2CD7 JUMP JUMPDEST PUSH2 0x438 JUMPI PUSH1 0x40 MLOAD PUSH3 0x461BCD PUSH1 0xE5 SHL DUP2 MSTORE PUSH1 0x4 ADD PUSH2 0x2AC SWAP1 PUSH2 0x2CF6 JUMP JUMPDEST PUSH0 DUP4 DUP2 MSTORE PUSH1 0x4 PUSH1 0x20 MSTORE PUSH1 0x40 DUP2 KECCAK256 SLOAD SWAP1 SUB PUSH2 0x48B JUMPI PUSH1 0x40 MLOAD PUSH3 0x461BCD PUSH1 0xE5 SHL DUP2 MSTORE PUSH1 0x20 PUSH1 0x4 DUP3 ADD MSTORE PUSH1 0x14 PUSH1 0x24 DUP3 ADD MSTORE PUSH20 0x13DC99195C88191BD95CC81B9BDD08195E1A5CDD PUSH1 0x62 SHL PUSH1 0x44 DUP3 ADD MSTORE PUSH1 0x64 ADD PUSH2 0x2AC JUMP JUMPDEST PUSH0 DUP4 DUP2 MSTORE PUSH1 0x4 PUSH1 0x20 MSTORE PUSH1 0x40 DUP2 KECCAK256 PUSH1 0x8 ADD SLOAD SWAP1 SUB PUSH2 0x4EA JUMPI PUSH1 0x40 MLOAD PUSH3 0x461BCD PUSH1 0xE5 SHL DUP2 MSTORE PUSH1 0x20 PUSH1 0x4 DUP3 ADD MSTORE PUSH1 0x19 PUSH1 0x24 DUP3 ADD MSTORE PUSH32 0x4F72646572206974656D20646F6573206E6F7420657869737400000000000000 PUSH1 0x44 DUP3 ADD MSTORE PUSH1 0x64 ADD PUSH2 0x2AC JUMP JUMPDEST PUSH0 DUP4 DUP2 MSTORE PUSH1 0x4 PUSH1 0x20 MSTORE PUSH1 0x40 DUP2 KECCAK256 SWAP1 DUP1 JUMPDEST PUSH1 0x8 DUP4 ADD SLOAD DUP2 LT ISZERO PUSH2 0x8D4 JUMPI DUP5 DUP4 PUSH1 0x8 ADD DUP3 DUP2 SLOAD DUP2 LT PUSH2 0x51C JUMPI PUSH2 0x51C PUSH2 0x2D21 JUMP JUMPDEST SWAP1 PUSH0 MSTORE PUSH1 0x20 PUSH0 KECCAK256 SWAP1 PUSH1 0x6 MUL ADD PUSH0 ADD SLOAD SUB PUSH2 0x8CC JUMPI PUSH0 DUP4 PUSH1 0x8 ADD DUP3 DUP2 SLOAD DUP2 LT PUSH2 0x546 JUMPI PUSH2 0x546 PUSH2 0x2D21 JUMP JUMPDEST PUSH0 SWAP2 DUP3 MSTORE PUSH1 0x20 SWAP1 SWAP2 KECCAK256 PUSH1 0x5 PUSH1 0x6 SWAP1 SWAP3 MUL ADD ADD SLOAD PUSH1 0xFF AND PUSH1 0x2 DUP2 GT ISZERO PUSH2 0x56D JUMPI PUSH2 0x56D PUSH2 0x29C5 JUMP JUMPDEST SUB PUSH2 0x5D7 JUMPI PUSH1 0x40 MLOAD PUSH3 0x461BCD PUSH1 0xE5 SHL DUP2 MSTORE PUSH1 0x20 PUSH1 0x4 DUP3 ADD MSTORE PUSH1 0x34 PUSH1 0x24 DUP3 ADD MSTORE PUSH32 0x4F72646572206974656D20616C7265616479206D61726B656420617320737563 PUSH1 0x44 DUP3 ADD MSTORE PUSH20 0x636573732E2043616E206E6F7420757064617465 PUSH1 0x60 SHL PUSH1 0x64 DUP3 ADD MSTORE PUSH1 0x84 ADD PUSH2 0x2AC JUMP JUMPDEST PUSH1 0x2 DUP4 PUSH1 0x8 ADD DUP3 DUP2 SLOAD DUP2 LT PUSH2 0x5EE JUMPI PUSH2 0x5EE PUSH2 0x2D21 JUMP JUMPDEST PUSH0 SWAP2 DUP3 MSTORE PUSH1 0x20 SWAP1 SWAP2 KECCAK256 PUSH1 0x5 PUSH1 0x6 SWAP1 SWAP3 MUL ADD ADD SLOAD PUSH1 0xFF AND PUSH1 0x2 DUP2 GT ISZERO PUSH2 0x615 JUMPI PUSH2 0x615 PUSH2 0x29C5 JUMP JUMPDEST SUB PUSH2 0x681 JUMPI PUSH1 0x40 MLOAD PUSH3 0x461BCD PUSH1 0xE5 SHL DUP2 MSTORE PUSH1 0x20 PUSH1 0x4 DUP3 ADD MSTORE PUSH1 0x36 PUSH1 0x24 DUP3 ADD MSTORE PUSH32 0x4F72646572206974656D20616C7265616479206D61726B65642061732063616E PUSH1 0x44 DUP3 ADD MSTORE PUSH22 0x63656C6C65642E2043616E206E6F7420757064617465 PUSH1 0x50 SHL PUSH1 0x64 DUP3 ADD MSTORE PUSH1 0x84 ADD PUSH2 0x2AC JUMP JUMPDEST DUP4 DUP4 PUSH1 0x8 ADD DUP3 DUP2 SLOAD DUP2 LT PUSH2 0x697 JUMPI PUSH2 0x697 PUSH2 0x2D21 JUMP JUMPDEST PUSH0 SWAP2 DUP3 MSTORE PUSH1 0x20 SWAP1 SWAP2 KECCAK256 PUSH1 0x5 PUSH1 0x6 SWAP1 SWAP3 MUL ADD ADD DUP1 SLOAD PUSH1 0xFF NOT AND PUSH1 0x1 DUP4 PUSH1 0x2 DUP2 GT ISZERO PUSH2 0x6C3 JUMPI PUSH2 0x6C3 PUSH2 0x29C5 JUMP JUMPDEST MUL OR SWAP1 SSTORE POP PUSH1 0x2 DUP4 PUSH1 0x8 ADD DUP3 DUP2 SLOAD DUP2 LT PUSH2 0x6DF JUMPI PUSH2 0x6DF PUSH2 0x2D21 JUMP JUMPDEST PUSH0 SWAP2 DUP3 MSTORE PUSH1 0x20 SWAP1 SWAP2 KECCAK256 PUSH1 0x5 PUSH1 0x6 SWAP1 SWAP3 MUL ADD ADD SLOAD PUSH1 0xFF AND PUSH1 0x2 DUP2 GT ISZERO PUSH2 0x706 JUMPI PUSH2 0x706 PUSH2 0x29C5 JUMP JUMPDEST SUB PUSH2 0x8C3 JUMPI PUSH0 DUP4 PUSH1 0x8 ADD DUP3 DUP2 SLOAD DUP2 LT PUSH2 0x721 JUMPI PUSH2 0x721 PUSH2 0x2D21 JUMP JUMPDEST SWAP1 PUSH0 MSTORE PUSH1 0x20 PUSH0 KECCAK256 SWAP1 PUSH1 0x6 MUL ADD PUSH1 0x40 MLOAD DUP1 PUSH1 0xC0 ADD PUSH1 0x40 MSTORE SWAP1 DUP2 PUSH0 DUP3 ADD SLOAD DUP2 MSTORE PUSH1 0x20 ADD PUSH1 0x1 DUP3 ADD SLOAD DUP2 MSTORE PUSH1 0x20 ADD PUSH1 0x2 DUP3 ADD SLOAD DUP2 MSTORE PUSH1 0x20 ADD PUSH1 0x3 DUP3 ADD SLOAD DUP2 MSTORE PUSH1 0x20 ADD PUSH1 0x4 DUP3 ADD SLOAD DUP2 MSTORE PUSH1 0x20 ADD PUSH1 0x5 DUP3 ADD PUSH0 SWAP1 SLOAD SWAP1 PUSH2 0x100 EXP SWAP1 DIV PUSH1 0xFF AND PUSH1 0x2 DUP2 GT ISZERO PUSH2 0x78C JUMPI PUSH2 0x78C PUSH2 0x29C5 JUMP JUMPDEST PUSH1 0x2 DUP2 GT ISZERO PUSH2 0x79D JUMPI PUSH2 0x79D PUSH2 0x29C5 JUMP JUMPDEST SWAP1 MSTORE POP SWAP1 POP PUSH0 DUP6 PUSH1 0x2 DUP2 GT ISZERO PUSH2 0x7B5 JUMPI PUSH2 0x7B5 PUSH2 0x29C5 JUMP JUMPDEST EQ PUSH2 0x8A5 JUMPI PUSH0 SLOAD PUSH1 0x40 DUP3 DUP2 ADD MLOAD PUSH1 0x20 DUP5 ADD MLOAD PUSH1 0x60 DUP6 ADD MLOAD SWAP3 MLOAD PUSH4 0x94B9A53 PUSH1 0xE0 SHL DUP2 MSTORE PUSH1 0x4 DUP2 ADD SWAP3 SWAP1 SWAP3 MSTORE PUSH1 0x24 DUP3 ADD MSTORE PUSH1 0x44 DUP2 ADD SWAP2 SWAP1 SWAP2 MSTORE PUSH1 0x1 PUSH1 0x1 PUSH1 0xA0 SHL SUB SWAP1 SWAP2 AND SWAP1 PUSH4 0x94B9A53 SWAP1 PUSH1 0x64 ADD PUSH0 PUSH1 0x40 MLOAD DUP1 DUP4 SUB DUP2 PUSH0 DUP8 DUP1 EXTCODESIZE ISZERO DUP1 ISZERO PUSH2 0x819 JUMPI PUSH0 PUSH0 REVERT JUMPDEST POP GAS CALL ISZERO DUP1 ISZERO PUSH2 0x82B JUMPI RETURNDATASIZE PUSH0 PUSH0 RETURNDATACOPY RETURNDATASIZE PUSH0 REVERT JUMPDEST POP POP PUSH0 SLOAD PUSH1 0x40 DUP5 DUP2 ADD MLOAD PUSH1 0x20 DUP7 ADD MLOAD PUSH1 0x60 DUP8 ADD MLOAD SWAP3 MLOAD PUSH4 0x6C6B5BAF PUSH1 0xE0 SHL DUP2 MSTORE PUSH1 0x4 DUP2 ADD SWAP3 SWAP1 SWAP3 MSTORE PUSH1 0x24 DUP3 ADD MSTORE PUSH1 0x44 DUP2 ADD SWAP2 SWAP1 SWAP2 MSTORE PUSH1 0x1 PUSH1 0x1 PUSH1 0xA0 SHL SUB SWAP1 SWAP2 AND SWAP3 POP PUSH4 0x6C6B5BAF SWAP2 POP PUSH1 0x64 ADD PUSH0 PUSH1 0x40 MLOAD DUP1 DUP4 SUB DUP2 PUSH0 DUP8 DUP1 EXTCODESIZE ISZERO DUP1 ISZERO PUSH2 0x88E JUMPI PUSH0 PUSH0 REVERT JUMPDEST POP GAS CALL ISZERO DUP1 ISZERO PUSH2 0x8A0 JUMPI RETURNDATASIZE PUSH0 PUSH0 RETURNDATACOPY RETURNDATASIZE PUSH0 REVERT JUMPDEST POP POP POP POP JUMPDEST DUP1 PUSH1 0x80 ADD MLOAD DUP5 PUSH1 0x9 ADD PUSH0 DUP3 DUP3 SLOAD PUSH2 0x8BC SWAP2 SWAP1 PUSH2 0x2D49 JUMP JUMPDEST SWAP1 SWAP2 SSTORE POP POP POP JUMPDEST PUSH1 0x1 SWAP2 POP PUSH2 0x8D4 JUMP JUMPDEST PUSH1 0x1 ADD PUSH2 0x4FA JUMP JUMPDEST POP DUP1 PUSH2 0x919 JUMPI PUSH1 0x40 MLOAD PUSH3 0x461BCD PUSH1 0xE5 SHL DUP2 MSTORE PUSH1 0x20 PUSH1 0x4 DUP3 ADD MSTORE PUSH1 0x14 PUSH1 0x24 DUP3 ADD MSTORE PUSH20 0x13DC99195C881A5D195B481B9BDD08199BDD5B99 PUSH1 0x62 SHL PUSH1 0x44 DUP3 ADD MSTORE PUSH1 0x64 ADD PUSH2 0x2AC JUMP JUMPDEST PUSH32 0xAED146B8E6504D3A57DEA2F60152E1133FA978A366CBDFBFA83328F48FF1EC09 DUP6 DUP6 DUP6 PUSH1 0x40 MLOAD PUSH2 0x94C SWAP4 SWAP3 SWAP2 SWAP1 PUSH2 0x2D62 JUMP JUMPDEST PUSH1 0x40 MLOAD DUP1 SWAP2 SUB SWAP1 LOG1 POP POP POP POP POP JUMP JUMPDEST PUSH2 0x963 PUSH2 0x24B3 JUMP JUMPDEST PUSH0 DUP3 MLOAD GT PUSH2 0x9BF JUMPI PUSH1 0x40 MLOAD PUSH3 0x461BCD PUSH1 0xE5 SHL DUP2 MSTORE PUSH1 0x20 PUSH1 0x4 DUP3 ADD MSTORE PUSH1 0x24 DUP1 DUP3 ADD MSTORE PUSH32 0x4F72646572206D75737420636F6E7461696E206174206C65617374206F6E6520 PUSH1 0x44 DUP3 ADD MSTORE PUSH4 0x6974656D PUSH1 0xE0 SHL PUSH1 0x64 DUP3 ADD MSTORE PUSH1 0x84 ADD PUSH2 0x2AC JUMP JUMPDEST PUSH0 DUP1 SLOAD PUSH1 0x40 MLOAD PUSH4 0xF26F439 PUSH1 0xE1 SHL DUP2 MSTORE PUSH1 0x4 DUP2 ADD DUP10 SWAP1 MSTORE PUSH1 0x1 PUSH1 0x1 PUSH1 0xA0 SHL SUB SWAP1 SWAP2 AND SWAP1 PUSH4 0x1E4DE872 SWAP1 PUSH1 0x24 ADD PUSH0 PUSH1 0x40 MLOAD DUP1 DUP4 SUB DUP2 DUP7 GAS STATICCALL ISZERO DUP1 ISZERO PUSH2 0xA05 JUMPI RETURNDATASIZE PUSH0 PUSH0 RETURNDATACOPY RETURNDATASIZE PUSH0 REVERT JUMPDEST POP POP POP POP PUSH1 0x40 MLOAD RETURNDATASIZE PUSH0 DUP3 RETURNDATACOPY PUSH1 0x1F RETURNDATASIZE SWAP1 DUP2 ADD PUSH1 0x1F NOT AND DUP3 ADD PUSH1 0x40 MSTORE PUSH2 0xA2C SWAP2 SWAP1 DUP2 ADD SWAP1 PUSH2 0x2E5C JUMP JUMPDEST PUSH1 0x5 DUP1 SLOAD SWAP2 SWAP3 POP PUSH0 SWAP2 DUP3 SWAP2 DUP3 PUSH2 0xA41 DUP4 PUSH2 0x2F4F JUMP JUMPDEST SWAP1 SWAP2 SSTORE POP PUSH0 DUP2 DUP2 MSTORE PUSH1 0x4 PUSH1 0x20 MSTORE PUSH1 0x40 SWAP1 KECCAK256 DUP2 DUP2 SSTORE PUSH1 0x1 DUP2 ADD DUP1 SLOAD PUSH1 0x1 PUSH1 0x1 PUSH1 0xA0 SHL SUB NOT AND PUSH1 0x1 PUSH1 0x1 PUSH1 0xA0 SHL SUB DUP15 AND OR SWAP1 SSTORE SWAP1 SWAP2 POP PUSH1 0x2 DUP2 ADD PUSH2 0xA83 DUP11 DUP3 PUSH2 0x2FEB JUMP JUMPDEST POP PUSH1 0x20 DUP5 ADD MLOAD PUSH1 0x4 DUP3 ADD SWAP1 PUSH2 0xA98 SWAP1 DUP3 PUSH2 0x2FEB JUMP JUMPDEST POP PUSH0 PUSH1 0x6 DUP3 ADD SSTORE PUSH1 0x7 DUP2 ADD DUP8 SWAP1 SSTORE PUSH1 0x3 DUP2 ADD PUSH2 0xAB4 DUP10 DUP3 PUSH2 0x2FEB JUMP JUMPDEST POP DUP4 PUSH1 0x80 ADD MLOAD PUSH0 DUP2 MLOAD DUP2 LT PUSH2 0xACB JUMPI PUSH2 0xACB PUSH2 0x2D21 JUMP JUMPDEST PUSH1 0x20 MUL PUSH1 0x20 ADD ADD MLOAD DUP2 PUSH1 0x5 ADD SWAP1 DUP2 PUSH2 0xAE3 SWAP2 SWAP1 PUSH2 0x2FEB JUMP JUMPDEST POP PUSH1 0xA DUP2 ADD DUP1 SLOAD PUSH1 0xFF NOT AND PUSH1 0x1 OR SWAP1 SSTORE TIMESTAMP PUSH1 0xB DUP3 ADD SSTORE PUSH0 JUMPDEST DUP7 MLOAD DUP2 LT ISZERO PUSH2 0xE58 JUMPI PUSH0 DUP1 SLOAD DUP9 MLOAD PUSH1 0x1 PUSH1 0x1 PUSH1 0xA0 SHL SUB SWAP1 SWAP2 AND SWAP1 PUSH4 0x35085515 SWAP1 DUP15 SWAP1 DUP12 SWAP1 DUP7 SWAP1 DUP2 LT PUSH2 0xB2F JUMPI PUSH2 0xB2F PUSH2 0x2D21 JUMP JUMPDEST PUSH1 0x20 MUL PUSH1 0x20 ADD ADD MLOAD PUSH1 0x20 ADD MLOAD PUSH1 0x40 MLOAD DUP4 PUSH4 0xFFFFFFFF AND PUSH1 0xE0 SHL DUP2 MSTORE PUSH1 0x4 ADD PUSH2 0xB61 SWAP3 SWAP2 SWAP1 SWAP2 DUP3 MSTORE PUSH1 0x20 DUP3 ADD MSTORE PUSH1 0x40 ADD SWAP1 JUMP JUMPDEST PUSH0 PUSH1 0x40 MLOAD DUP1 DUP4 SUB DUP2 PUSH0 DUP8 GAS CALL ISZERO DUP1 ISZERO PUSH2 0xB7C JUMPI RETURNDATASIZE PUSH0 PUSH0 RETURNDATACOPY RETURNDATASIZE PUSH0 REVERT JUMPDEST POP POP POP POP PUSH1 0x40 MLOAD RETURNDATASIZE PUSH0 DUP3 RETURNDATACOPY PUSH1 0x1F RETURNDATASIZE SWAP1 DUP2 ADD PUSH1 0x1F NOT AND DUP3 ADD PUSH1 0x40 MSTORE PUSH2 0xBA3 SWAP2 SWAP1 DUP2 ADD SWAP1 PUSH2 0x30A8 JUMP JUMPDEST SWAP1 POP DUP8 DUP3 DUP2 MLOAD DUP2 LT PUSH2 0xBB7 JUMPI PUSH2 0xBB7 PUSH2 0x2D21 JUMP JUMPDEST PUSH1 0x20 MUL PUSH1 0x20 ADD ADD MLOAD PUSH1 0x40 ADD MLOAD DUP2 PUSH1 0x80 ADD MLOAD PUSH2 0xBD2 SWAP2 SWAP1 PUSH2 0x313C JUMP JUMPDEST PUSH2 0xBDC SWAP1 DUP7 PUSH2 0x3153 JUMP JUMPDEST PUSH0 SLOAD DUP10 MLOAD SWAP2 SWAP7 POP PUSH1 0x1 PUSH1 0x1 PUSH1 0xA0 SHL SUB AND SWAP1 PUSH4 0x9A69BFA6 SWAP1 DUP15 SWAP1 DUP12 SWAP1 DUP7 SWAP1 DUP2 LT PUSH2 0xC07 JUMPI PUSH2 0xC07 PUSH2 0x2D21 JUMP JUMPDEST PUSH1 0x20 MUL PUSH1 0x20 ADD ADD MLOAD PUSH1 0x20 ADD MLOAD DUP12 DUP7 DUP2 MLOAD DUP2 LT PUSH2 0xC25 JUMPI PUSH2 0xC25 PUSH2 0x2D21 JUMP JUMPDEST PUSH1 0x20 MUL PUSH1 0x20 ADD ADD MLOAD PUSH1 0x40 ADD MLOAD PUSH1 0x40 MLOAD DUP5 PUSH4 0xFFFFFFFF AND PUSH1 0xE0 SHL DUP2 MSTORE PUSH1 0x4 ADD PUSH2 0xC60 SWAP4 SWAP3 SWAP2 SWAP1 SWAP3 DUP4 MSTORE PUSH1 0x20 DUP4 ADD SWAP2 SWAP1 SWAP2 MSTORE PUSH1 0x40 DUP3 ADD MSTORE PUSH1 0x60 ADD SWAP1 JUMP JUMPDEST PUSH0 PUSH1 0x40 MLOAD DUP1 DUP4 SUB DUP2 PUSH0 DUP8 DUP1 EXTCODESIZE ISZERO DUP1 ISZERO PUSH2 0xC77 JUMPI PUSH0 PUSH0 REVERT JUMPDEST POP GAS CALL ISZERO DUP1 ISZERO PUSH2 0xC89 JUMPI RETURNDATASIZE PUSH0 PUSH0 RETURNDATACOPY RETURNDATASIZE PUSH0 REVERT JUMPDEST POP POP PUSH0 SLOAD DUP4 MLOAD DUP12 MLOAD PUSH1 0x1 PUSH1 0x1 PUSH1 0xA0 SHL SUB SWAP1 SWAP3 AND SWAP4 POP PUSH3 0xE081DD SWAP3 POP DUP16 SWAP2 DUP13 SWAP1 DUP8 SWAP1 DUP2 LT PUSH2 0xCB8 JUMPI PUSH2 0xCB8 PUSH2 0x2D21 JUMP JUMPDEST PUSH1 0x20 MUL PUSH1 0x20 ADD ADD MLOAD PUSH1 0x40 ADD MLOAD PUSH1 0x40 MLOAD DUP5 PUSH4 0xFFFFFFFF AND PUSH1 0xE0 SHL DUP2 MSTORE PUSH1 0x4 ADD PUSH2 0xCF3 SWAP4 SWAP3 SWAP2 SWAP1 SWAP3 DUP4 MSTORE PUSH1 0x20 DUP4 ADD SWAP2 SWAP1 SWAP2 MSTORE PUSH1 0x40 DUP3 ADD MSTORE PUSH1 0x60 ADD SWAP1 JUMP JUMPDEST PUSH0 PUSH1 0x40 MLOAD DUP1 DUP4 SUB DUP2 PUSH0 DUP8 DUP1 EXTCODESIZE ISZERO DUP1 ISZERO PUSH2 0xD0A JUMPI PUSH0 PUSH0 REVERT JUMPDEST POP GAS CALL ISZERO DUP1 ISZERO PUSH2 0xD1C JUMPI RETURNDATASIZE PUSH0 PUSH0 RETURNDATACOPY RETURNDATASIZE PUSH0 REVERT JUMPDEST POP POP POP POP DUP3 PUSH1 0x8 ADD PUSH1 0x40 MLOAD DUP1 PUSH1 0xC0 ADD PUSH1 0x40 MSTORE DUP1 PUSH1 0x3 PUSH0 DUP2 SLOAD DUP1 SWAP3 SWAP2 SWAP1 PUSH2 0xD41 SWAP1 PUSH2 0x2F4F JUMP JUMPDEST SWAP2 SWAP1 POP SSTORE DUP2 MSTORE PUSH1 0x20 ADD DUP11 DUP6 DUP2 MLOAD DUP2 LT PUSH2 0xD5C JUMPI PUSH2 0xD5C PUSH2 0x2D21 JUMP JUMPDEST PUSH1 0x20 MUL PUSH1 0x20 ADD ADD MLOAD PUSH1 0x20 ADD MLOAD DUP2 MSTORE PUSH1 0x20 ADD DUP11 DUP6 DUP2 MLOAD DUP2 LT PUSH2 0xD7F JUMPI PUSH2 0xD7F PUSH2 0x2D21 JUMP JUMPDEST PUSH1 0x20 MUL PUSH1 0x20 ADD ADD MLOAD PUSH0 ADD MLOAD DUP2 MSTORE PUSH1 0x20 ADD DUP11 DUP6 DUP2 MLOAD DUP2 LT PUSH2 0xDA1 JUMPI PUSH2 0xDA1 PUSH2 0x2D21 JUMP JUMPDEST PUSH1 0x20 MUL PUSH1 0x20 ADD ADD MLOAD PUSH1 0x40 ADD MLOAD DUP2 MSTORE PUSH1 0x20 ADD DUP4 PUSH1 0x80 ADD MLOAD DUP2 MSTORE PUSH1 0x20 ADD PUSH1 0x1 PUSH1 0x2 DUP2 GT ISZERO PUSH2 0xDCF JUMPI PUSH2 0xDCF PUSH2 0x29C5 JUMP JUMPDEST SWAP1 MSTORE DUP2 SLOAD PUSH1 0x1 DUP2 DUP2 ADD DUP5 SSTORE PUSH0 SWAP4 DUP5 MSTORE PUSH1 0x20 SWAP4 DUP5 SWAP1 KECCAK256 DUP4 MLOAD PUSH1 0x6 SWAP1 SWAP4 MUL ADD SWAP2 DUP3 SSTORE SWAP3 DUP3 ADD MLOAD DUP2 DUP5 ADD SSTORE PUSH1 0x40 DUP3 ADD MLOAD PUSH1 0x2 DUP1 DUP4 ADD SWAP2 SWAP1 SWAP2 SSTORE PUSH1 0x60 DUP4 ADD MLOAD PUSH1 0x3 DUP4 ADD SSTORE PUSH1 0x80 DUP4 ADD MLOAD PUSH1 0x4 DUP4 ADD SSTORE PUSH1 0xA0 DUP4 ADD MLOAD PUSH1 0x5 DUP4 ADD DUP1 SLOAD SWAP5 SWAP6 SWAP4 SWAP5 SWAP2 SWAP4 SWAP1 SWAP3 PUSH1 0xFF NOT SWAP1 SWAP3 AND SWAP2 DUP5 SWAP1 DUP2 GT ISZERO PUSH2 0xE44 JUMPI PUSH2 0xE44 PUSH2 0x29C5 JUMP JUMPDEST MUL OR SWAP1 SSTORE POP POP PUSH1 0x1 SWAP1 SWAP3 ADD SWAP2 POP PUSH2 0xAFB SWAP1 POP JUMP JUMPDEST POP PUSH1 0x9 DUP2 ADD DUP4 SWAP1 SSTORE PUSH0 DUP3 DUP2 MSTORE PUSH1 0x4 PUSH1 0x20 MSTORE PUSH1 0x40 SWAP1 KECCAK256 DUP2 SLOAD DUP2 SSTORE PUSH1 0x1 DUP1 DUP4 ADD SLOAD SWAP1 DUP3 ADD DUP1 SLOAD PUSH1 0x1 PUSH1 0x1 PUSH1 0xA0 SHL SUB NOT AND PUSH1 0x1 PUSH1 0x1 PUSH1 0xA0 SHL SUB SWAP1 SWAP3 AND SWAP2 SWAP1 SWAP2 OR SWAP1 SSTORE DUP2 SWAP1 PUSH1 0x2 DUP1 DUP3 ADD SWAP1 PUSH2 0xEAB SWAP1 DUP5 ADD DUP3 PUSH2 0x3166 JUMP JUMPDEST POP PUSH1 0x3 DUP2 DUP2 ADD SWAP1 PUSH2 0xEBE SWAP1 DUP5 ADD DUP3 PUSH2 0x3166 JUMP JUMPDEST POP PUSH1 0x4 DUP2 DUP2 ADD SWAP1 PUSH2 0xED1 SWAP1 DUP5 ADD DUP3 PUSH2 0x3166 JUMP JUMPDEST POP PUSH1 0x5 DUP2 DUP2 ADD SWAP1 PUSH2 0xEE4 SWAP1 DUP5 ADD DUP3 PUSH2 0x3166 JUMP JUMPDEST POP PUSH1 0x6 DUP3 ADD SLOAD DUP2 PUSH1 0x6 ADD SSTORE PUSH1 0x7 DUP3 ADD SLOAD DUP2 PUSH1 0x7 ADD SSTORE PUSH1 0x8 DUP3 ADD DUP2 PUSH1 0x8 ADD SWAP1 DUP1 SLOAD PUSH2 0xF0F SWAP3 SWAP2 SWAP1 PUSH2 0x2527 JUMP JUMPDEST POP PUSH1 0x9 DUP3 DUP2 ADD SLOAD SWAP1 DUP3 ADD SSTORE PUSH1 0xA DUP1 DUP4 ADD SLOAD SWAP1 DUP3 ADD DUP1 SLOAD PUSH1 0xFF SWAP1 SWAP3 AND SWAP2 PUSH1 0xFF NOT AND PUSH1 0x1 DUP4 PUSH1 0x2 DUP2 GT ISZERO PUSH2 0xF43 JUMPI PUSH2 0xF43 PUSH2 0x29C5 JUMP JUMPDEST MUL OR SWAP1 SSTORE POP PUSH1 0xB SWAP2 DUP3 ADD SLOAD SWAP2 ADD SSTORE DUP7 ISZERO PUSH2 0xFB6 JUMPI PUSH1 0x1 DUP1 SLOAD PUSH1 0x40 MLOAD PUSH4 0x2D2BF54B PUSH1 0xE2 SHL DUP2 MSTORE PUSH1 0x1 PUSH1 0x1 PUSH1 0xA0 SHL SUB SWAP1 SWAP2 AND SWAP2 PUSH4 0xB4AFD52C SWAP2 PUSH2 0xF88 SWAP2 DUP12 SWAP2 PUSH1 0x4 ADD PUSH2 0x3232 JUMP JUMPDEST PUSH0 PUSH1 0x40 MLOAD DUP1 DUP4 SUB DUP2 PUSH0 DUP8 DUP1 EXTCODESIZE ISZERO DUP1 ISZERO PUSH2 0xF9F JUMPI PUSH0 PUSH0 REVERT JUMPDEST POP GAS CALL ISZERO DUP1 ISZERO PUSH2 0xFB1 JUMPI RETURNDATASIZE PUSH0 PUSH0 RETURNDATACOPY RETURNDATASIZE PUSH0 REVERT JUMPDEST POP POP POP POP JUMPDEST PUSH1 0x1 PUSH1 0x1 PUSH1 0xA0 SHL SUB DUP12 AND PUSH0 SWAP1 DUP2 MSTORE PUSH1 0x6 PUSH1 0x20 SWAP1 DUP2 MSTORE PUSH1 0x40 DUP1 DUP4 KECCAK256 DUP1 SLOAD PUSH1 0x1 DUP2 DUP2 ADD DUP4 SSTORE SWAP2 DUP6 MSTORE SWAP3 SWAP1 SWAP4 KECCAK256 SWAP1 SWAP2 ADD DUP5 SWAP1 SSTORE MLOAD PUSH32 0x4A7C6B1E984C5AC140F100A4898DCE117573B0FE14A829675781BE4F938A3065 SWAP2 PUSH2 0x1019 SWAP2 DUP6 SWAP2 DUP16 SWAP2 DUP9 SWAP2 SWAP1 PUSH2 0x3256 JUMP JUMPDEST PUSH1 0x40 MLOAD DUP1 SWAP2 SUB SWAP1 LOG1 PUSH1 0x40 DUP1 MLOAD PUSH2 0x180 DUP2 ADD DUP3 MSTORE DUP3 SLOAD DUP2 MSTORE PUSH1 0x1 DUP4 ADD SLOAD PUSH1 0x1 PUSH1 0x1 PUSH1 0xA0 SHL SUB AND PUSH1 0x20 DUP3 ADD MSTORE PUSH1 0x2 DUP4 ADD DUP1 SLOAD SWAP2 SWAP3 DUP5 SWAP3 SWAP1 DUP5 ADD SWAP2 SWAP1 PUSH2 0x105B SWAP1 PUSH2 0x2F67 JUMP JUMPDEST DUP1 PUSH1 0x1F ADD PUSH1 0x20 DUP1 SWAP2 DIV MUL PUSH1 0x20 ADD PUSH1 0x40 MLOAD SWAP1 DUP2 ADD PUSH1 0x40 MSTORE DUP1 SWAP3 SWAP2 SWAP1 DUP2 DUP2 MSTORE PUSH1 0x20 ADD DUP3 DUP1 SLOAD PUSH2 0x1087 SWAP1 PUSH2 0x2F67 JUMP JUMPDEST DUP1 ISZERO PUSH2 0x10D2 JUMPI DUP1 PUSH1 0x1F LT PUSH2 0x10A9 JUMPI PUSH2 0x100 DUP1 DUP4 SLOAD DIV MUL DUP4 MSTORE SWAP2 PUSH1 0x20 ADD SWAP2 PUSH2 0x10D2 JUMP JUMPDEST DUP3 ADD SWAP2 SWAP1 PUSH0 MSTORE PUSH1 0x20 PUSH0 KECCAK256 SWAP1 JUMPDEST DUP2 SLOAD DUP2 MSTORE SWAP1 PUSH1 0x1 ADD SWAP1 PUSH1 0x20 ADD DUP1 DUP4 GT PUSH2 0x10B5 JUMPI DUP3 SWAP1 SUB PUSH1 0x1F AND DUP3 ADD SWAP2 JUMPDEST POP POP POP POP POP DUP2 MSTORE PUSH1 0x20 ADD PUSH1 0x3 DUP3 ADD DUP1 SLOAD PUSH2 0x10EB SWAP1 PUSH2 0x2F67 JUMP JUMPDEST DUP1 PUSH1 0x1F ADD PUSH1 0x20 DUP1 SWAP2 DIV MUL PUSH1 0x20 ADD PUSH1 0x40 MLOAD SWAP1 DUP2 ADD PUSH1 0x40 MSTORE DUP1 SWAP3 SWAP2 SWAP1 DUP2 DUP2 MSTORE PUSH1 0x20 ADD DUP3 DUP1 SLOAD PUSH2 0x1117 SWAP1 PUSH2 0x2F67 JUMP JUMPDEST DUP1 ISZERO PUSH2 0x1162 JUMPI DUP1 PUSH1 0x1F LT PUSH2 0x1139 JUMPI PUSH2 0x100 DUP1 DUP4 SLOAD DIV MUL DUP4 MSTORE SWAP2 PUSH1 0x20 ADD SWAP2 PUSH2 0x1162 JUMP JUMPDEST DUP3 ADD SWAP2 SWAP1 PUSH0 MSTORE PUSH1 0x20 PUSH0 KECCAK256 SWAP1 JUMPDEST DUP2 SLOAD DUP2 MSTORE SWAP1 PUSH1 0x1 ADD SWAP1 PUSH1 0x20 ADD DUP1 DUP4 GT PUSH2 0x1145 JUMPI DUP3 SWAP1 SUB PUSH1 0x1F AND DUP3 ADD SWAP2 JUMPDEST POP POP POP POP POP DUP2 MSTORE PUSH1 0x20 ADD PUSH1 0x4 DUP3 ADD DUP1 SLOAD PUSH2 0x117B SWAP1 PUSH2 0x2F67 JUMP JUMPDEST DUP1 PUSH1 0x1F ADD PUSH1 0x20 DUP1 SWAP2 DIV MUL PUSH1 0x20 ADD PUSH1 0x40 MLOAD SWAP1 DUP2 ADD PUSH1 0x40 MSTORE DUP1 SWAP3 SWAP2 SWAP1 DUP2 DUP2 MSTORE PUSH1 0x20 ADD DUP3 DUP1 SLOAD PUSH2 0x11A7 SWAP1 PUSH2 0x2F67 JUMP JUMPDEST DUP1 ISZERO PUSH2 0x11F2 JUMPI DUP1 PUSH1 0x1F LT PUSH2 0x11C9 JUMPI PUSH2 0x100 DUP1 DUP4 SLOAD DIV MUL DUP4 MSTORE SWAP2 PUSH1 0x20 ADD SWAP2 PUSH2 0x11F2 JUMP JUMPDEST DUP3 ADD SWAP2 SWAP1 PUSH0 MSTORE PUSH1 0x20 PUSH0 KECCAK256 SWAP1 JUMPDEST DUP2 SLOAD DUP2 MSTORE SWAP1 PUSH1 0x1 ADD SWAP1 PUSH1 0x20 ADD DUP1 DUP4 GT PUSH2 0x11D5 JUMPI DUP3 SWAP1 SUB PUSH1 0x1F AND DUP3 ADD SWAP2 JUMPDEST POP POP POP POP POP DUP2 MSTORE PUSH1 0x20 ADD PUSH1 0x5 DUP3 ADD DUP1 SLOAD PUSH2 0x120B SWAP1 PUSH2 0x2F67 JUMP JUMPDEST DUP1 PUSH1 0x1F ADD PUSH1 0x20 DUP1 SWAP2 DIV MUL PUSH1 0x20 ADD PUSH1 0x40 MLOAD SWAP1 DUP2 ADD PUSH1 0x40 MSTORE DUP1 SWAP3 SWAP2 SWAP1 DUP2 DUP2 MSTORE PUSH1 0x20 ADD DUP3 DUP1 SLOAD PUSH2 0x1237 SWAP1 PUSH2 0x2F67 JUMP JUMPDEST DUP1 ISZERO PUSH2 0x1282 JUMPI DUP1 PUSH1 0x1F LT PUSH2 0x1259 JUMPI PUSH2 0x100 DUP1 DUP4 SLOAD DIV MUL DUP4 MSTORE SWAP2 PUSH1 0x20 ADD SWAP2 PUSH2 0x1282 JUMP JUMPDEST DUP3 ADD SWAP2 SWAP1 PUSH0 MSTORE PUSH1 0x20 PUSH0 KECCAK256 SWAP1 JUMPDEST DUP2 SLOAD DUP2 MSTORE SWAP1 PUSH1 0x1 ADD SWAP1 PUSH1 0x20 ADD DUP1 DUP4 GT PUSH2 0x1265 JUMPI DUP3 SWAP1 SUB PUSH1 0x1F AND DUP3 ADD SWAP2 JUMPDEST POP POP POP POP POP DUP2 MSTORE PUSH1 0x20 ADD PUSH1 0x6 DUP3 ADD SLOAD DUP2 MSTORE PUSH1 0x20 ADD PUSH1 0x7 DUP3 ADD SLOAD DUP2 MSTORE PUSH1 0x20 ADD PUSH1 0x8 DUP3 ADD DUP1 SLOAD DUP1 PUSH1 0x20 MUL PUSH1 0x20 ADD PUSH1 0x40 MLOAD SWAP1 DUP2 ADD PUSH1 0x40 MSTORE DUP1 SWAP3 SWAP2 SWAP1 DUP2 DUP2 MSTORE PUSH1 0x20 ADD PUSH0 SWAP1 JUMPDEST DUP3 DUP3 LT ISZERO PUSH2 0x135C JUMPI DUP4 DUP3 SWAP1 PUSH0 MSTORE PUSH1 0x20 PUSH0 KECCAK256 SWAP1 PUSH1 0x6 MUL ADD PUSH1 0x40 MLOAD DUP1 PUSH1 0xC0 ADD PUSH1 0x40 MSTORE SWAP1 DUP2 PUSH0 DUP3 ADD SLOAD DUP2 MSTORE PUSH1 0x20 ADD PUSH1 0x1 DUP3 ADD SLOAD DUP2 MSTORE PUSH1 0x20 ADD PUSH1 0x2 DUP3 ADD SLOAD DUP2 MSTORE PUSH1 0x20 ADD PUSH1 0x3 DUP3 ADD SLOAD DUP2 MSTORE PUSH1 0x20 ADD PUSH1 0x4 DUP3 ADD SLOAD DUP2 MSTORE PUSH1 0x20 ADD PUSH1 0x5 DUP3 ADD PUSH0 SWAP1 SLOAD SWAP1 PUSH2 0x100 EXP SWAP1 DIV PUSH1 0xFF AND PUSH1 0x2 DUP2 GT ISZERO PUSH2 0x1338 JUMPI PUSH2 0x1338 PUSH2 0x29C5 JUMP JUMPDEST PUSH1 0x2 DUP2 GT ISZERO PUSH2 0x1349 JUMPI PUSH2 0x1349 PUSH2 0x29C5 JUMP JUMPDEST DUP2 MSTORE POP POP DUP2 MSTORE PUSH1 0x20 ADD SWAP1 PUSH1 0x1 ADD SWAP1 PUSH2 0x12C3 JUMP JUMPDEST POP POP POP SWAP1 DUP3 MSTORE POP PUSH1 0x9 DUP3 ADD SLOAD PUSH1 0x20 DUP3 ADD MSTORE PUSH1 0xA DUP3 ADD SLOAD PUSH1 0x40 SWAP1 SWAP2 ADD SWAP1 PUSH1 0xFF AND PUSH1 0x2 DUP2 GT ISZERO PUSH2 0x138C JUMPI PUSH2 0x138C PUSH2 0x29C5 JUMP JUMPDEST PUSH1 0x2 DUP2 GT ISZERO PUSH2 0x139D JUMPI PUSH2 0x139D PUSH2 0x29C5 JUMP JUMPDEST DUP2 MSTORE PUSH1 0x20 ADD PUSH1 0xB DUP3 ADD SLOAD DUP2 MSTORE POP POP SWAP5 POP POP POP POP POP SWAP7 SWAP6 POP POP POP POP POP POP JUMP JUMPDEST PUSH1 0x60 PUSH0 PUSH1 0x1 JUMPDEST PUSH1 0x5 SLOAD DUP2 LT ISZERO PUSH2 0x141D JUMPI DUP4 PUSH1 0x2 DUP2 GT ISZERO PUSH2 0x13DD JUMPI PUSH2 0x13DD PUSH2 0x29C5 JUMP JUMPDEST PUSH0 DUP3 DUP2 MSTORE PUSH1 0x4 PUSH1 0x20 MSTORE PUSH1 0x40 SWAP1 KECCAK256 PUSH1 0xA ADD SLOAD PUSH1 0xFF AND PUSH1 0x2 DUP2 GT ISZERO PUSH2 0x1402 JUMPI PUSH2 0x1402 PUSH2 0x29C5 JUMP JUMPDEST SUB PUSH2 0x1415 JUMPI DUP2 PUSH2 0x1411 DUP2 PUSH2 0x2F4F JUMP JUMPDEST SWAP3 POP POP JUMPDEST PUSH1 0x1 ADD PUSH2 0x13C1 JUMP JUMPDEST POP PUSH0 DUP2 PUSH1 0x1 PUSH1 0x1 PUSH1 0x40 SHL SUB DUP2 GT ISZERO PUSH2 0x1437 JUMPI PUSH2 0x1437 PUSH2 0x2717 JUMP JUMPDEST PUSH1 0x40 MLOAD SWAP1 DUP1 DUP3 MSTORE DUP1 PUSH1 0x20 MUL PUSH1 0x20 ADD DUP3 ADD PUSH1 0x40 MSTORE DUP1 ISZERO PUSH2 0x1470 JUMPI DUP2 PUSH1 0x20 ADD JUMPDEST PUSH2 0x145D PUSH2 0x24B3 JUMP JUMPDEST DUP2 MSTORE PUSH1 0x20 ADD SWAP1 PUSH1 0x1 SWAP1 SUB SWAP1 DUP2 PUSH2 0x1455 JUMPI SWAP1 POP JUMPDEST POP SWAP1 POP PUSH0 PUSH1 0x1 JUMPDEST PUSH1 0x5 SLOAD DUP2 LT ISZERO PUSH2 0x1889 JUMPI DUP6 PUSH1 0x2 DUP2 GT ISZERO PUSH2 0x1493 JUMPI PUSH2 0x1493 PUSH2 0x29C5 JUMP JUMPDEST PUSH0 DUP3 DUP2 MSTORE PUSH1 0x4 PUSH1 0x20 MSTORE PUSH1 0x40 SWAP1 KECCAK256 PUSH1 0xA ADD SLOAD PUSH1 0xFF AND PUSH1 0x2 DUP2 GT ISZERO PUSH2 0x14B8 JUMPI PUSH2 0x14B8 PUSH2 0x29C5 JUMP JUMPDEST SUB PUSH2 0x1881 JUMPI PUSH0 DUP2 DUP2 MSTORE PUSH1 0x4 PUSH1 0x20 SWAP1 DUP2 MSTORE PUSH1 0x40 SWAP2 DUP3 SWAP1 KECCAK256 DUP3 MLOAD PUSH2 0x180 DUP2 ADD DUP5 MSTORE DUP2 SLOAD DUP2 MSTORE PUSH1 0x1 DUP3 ADD SLOAD PUSH1 0x1 PUSH1 0x1 PUSH1 0xA0 SHL SUB AND SWAP3 DUP2 ADD SWAP3 SWAP1 SWAP3 MSTORE PUSH1 0x2 DUP2 ADD DUP1 SLOAD SWAP3 SWAP4 SWAP2 SWAP3 SWAP2 DUP5 ADD SWAP2 PUSH2 0x1507 SWAP1 PUSH2 0x2F67 JUMP JUMPDEST DUP1 PUSH1 0x1F ADD PUSH1 0x20 DUP1 SWAP2 DIV MUL PUSH1 0x20 ADD PUSH1 0x40 MLOAD SWAP1 DUP2 ADD PUSH1 0x40 MSTORE DUP1 SWAP3 SWAP2 SWAP1 DUP2 DUP2 MSTORE PUSH1 0x20 ADD DUP3 DUP1 SLOAD PUSH2 0x1533 SWAP1 PUSH2 0x2F67 JUMP JUMPDEST DUP1 ISZERO PUSH2 0x157E JUMPI DUP1 PUSH1 0x1F LT PUSH2 0x1555 JUMPI PUSH2 0x100 DUP1 DUP4 SLOAD DIV MUL DUP4 MSTORE SWAP2 PUSH1 0x20 ADD SWAP2 PUSH2 0x157E JUMP JUMPDEST DUP3 ADD SWAP2 SWAP1 PUSH0 MSTORE PUSH1 0x20 PUSH0 KECCAK256 SWAP1 JUMPDEST DUP2 SLOAD DUP2 MSTORE SWAP1 PUSH1 0x1 ADD SWAP1 PUSH1 0x20 ADD DUP1 DUP4 GT PUSH2 0x1561 JUMPI DUP3 SWAP1 SUB PUSH1 0x1F AND DUP3 ADD SWAP2 JUMPDEST POP POP POP POP POP DUP2 MSTORE PUSH1 0x20 ADD PUSH1 0x3 DUP3 ADD DUP1 SLOAD PUSH2 0x1597 SWAP1 PUSH2 0x2F67 JUMP JUMPDEST DUP1 PUSH1 0x1F ADD PUSH1 0x20 DUP1 SWAP2 DIV MUL PUSH1 0x20 ADD PUSH1 0x40 MLOAD SWAP1 DUP2 ADD PUSH1 0x40 MSTORE DUP1 SWAP3 SWAP2 SWAP1 DUP2 DUP2 MSTORE PUSH1 0x20 ADD DUP3 DUP1 SLOAD PUSH2 0x15C3 SWAP1 PUSH2 0x2F67 JUMP JUMPDEST DUP1 ISZERO PUSH2 0x160E JUMPI DUP1 PUSH1 0x1F LT PUSH2 0x15E5 JUMPI PUSH2 0x100 DUP1 DUP4 SLOAD DIV MUL DUP4 MSTORE SWAP2 PUSH1 0x20 ADD SWAP2 PUSH2 0x160E JUMP JUMPDEST DUP3 ADD SWAP2 SWAP1 PUSH0 MSTORE PUSH1 0x20 PUSH0 KECCAK256 SWAP1 JUMPDEST DUP2 SLOAD DUP2 MSTORE SWAP1 PUSH1 0x1 ADD SWAP1 PUSH1 0x20 ADD DUP1 DUP4 GT PUSH2 0x15F1 JUMPI DUP3 SWAP1 SUB PUSH1 0x1F AND DUP3 ADD SWAP2 JUMPDEST POP POP POP POP POP DUP2 MSTORE PUSH1 0x20 ADD PUSH1 0x4 DUP3 ADD DUP1 SLOAD PUSH2 0x1627 SWAP1 PUSH2 0x2F67 JUMP JUMPDEST DUP1 PUSH1 0x1F ADD PUSH1 0x20 DUP1 SWAP2 DIV MUL PUSH1 0x20 ADD PUSH1 0x40 MLOAD SWAP1 DUP2 ADD PUSH1 0x40 MSTORE DUP1 SWAP3 SWAP2 SWAP1 DUP2 DUP2 MSTORE PUSH1 0x20 ADD DUP3 DUP1 SLOAD PUSH2 0x1653 SWAP1 PUSH2 0x2F67 JUMP JUMPDEST DUP1 ISZERO PUSH2 0x169E JUMPI DUP1 PUSH1 0x1F LT PUSH2 0x1675 JUMPI PUSH2 0x100 DUP1 DUP4 SLOAD DIV MUL DUP4 MSTORE SWAP2 PUSH1 0x20 ADD SWAP2 PUSH2 0x169E JUMP JUMPDEST DUP3 ADD SWAP2 SWAP1 PUSH0 MSTORE PUSH1 0x20 PUSH0 KECCAK256 SWAP1 JUMPDEST DUP2 SLOAD DUP2 MSTORE SWAP1 PUSH1 0x1 ADD SWAP1 PUSH1 0x20 ADD DUP1 DUP4 GT PUSH2 0x1681 JUMPI DUP3 SWAP1 SUB PUSH1 0x1F AND DUP3 ADD SWAP2 JUMPDEST POP POP POP POP POP DUP2 MSTORE PUSH1 0x20 ADD PUSH1 0x5 DUP3 ADD DUP1 SLOAD PUSH2 0x16B7 SWAP1 PUSH2 0x2F67 JUMP JUMPDEST DUP1 PUSH1 0x1F ADD PUSH1 0x20 DUP1 SWAP2 DIV MUL PUSH1 0x20 ADD PUSH1 0x40 MLOAD SWAP1 DUP2 ADD PUSH1 0x40 MSTORE DUP1 SWAP3 SWAP2 SWAP1 DUP2 DUP2 MSTORE PUSH1 0x20 ADD DUP3 DUP1 SLOAD PUSH2 0x16E3 SWAP1 PUSH2 0x2F67 JUMP JUMPDEST DUP1 ISZERO PUSH2 0x172E JUMPI DUP1 PUSH1 0x1F LT PUSH2 0x1705 JUMPI PUSH2 0x100 DUP1 DUP4 SLOAD DIV MUL DUP4 MSTORE SWAP2 PUSH1 0x20 ADD SWAP2 PUSH2 0x172E JUMP JUMPDEST DUP3 ADD SWAP2 SWAP1 PUSH0 MSTORE PUSH1 0x20 PUSH0 KECCAK256 SWAP1 JUMPDEST DUP2 SLOAD DUP2 MSTORE SWAP1 PUSH1 0x1 ADD SWAP1 PUSH1 0x20 ADD DUP1 DUP4 GT PUSH2 0x1711 JUMPI DUP3 SWAP1 SUB PUSH1 0x1F AND DUP3 ADD SWAP2 JUMPDEST POP POP POP POP POP DUP2 MSTORE PUSH1 0x20 ADD PUSH1 0x6 DUP3 ADD SLOAD DUP2 MSTORE PUSH1 0x20 ADD PUSH1 0x7 DUP3 ADD SLOAD DUP2 MSTORE PUSH1 0x20 ADD PUSH1 0x8 DUP3 ADD DUP1 SLOAD DUP1 PUSH1 0x20 MUL PUSH1 0x20 ADD PUSH1 0x40 MLOAD SWAP1 DUP2 ADD PUSH1 0x40 MSTORE DUP1 SWAP3 SWAP2 SWAP1 DUP2 DUP2 MSTORE PUSH1 0x20 ADD PUSH0 SWAP1 JUMPDEST DUP3 DUP3 LT ISZERO PUSH2 0x1808 JUMPI DUP4 DUP3 SWAP1 PUSH0 MSTORE PUSH1 0x20 PUSH0 KECCAK256 SWAP1 PUSH1 0x6 MUL ADD PUSH1 0x40 MLOAD DUP1 PUSH1 0xC0 ADD PUSH1 0x40 MSTORE SWAP1 DUP2 PUSH0 DUP3 ADD SLOAD DUP2 MSTORE PUSH1 0x20 ADD PUSH1 0x1 DUP3 ADD SLOAD DUP2 MSTORE PUSH1 0x20 ADD PUSH1 0x2 DUP3 ADD SLOAD DUP2 MSTORE PUSH1 0x20 ADD PUSH1 0x3 DUP3 ADD SLOAD DUP2 MSTORE PUSH1 0x20 ADD PUSH1 0x4 DUP3 ADD SLOAD DUP2 MSTORE PUSH1 0x20 ADD PUSH1 0x5 DUP3 ADD PUSH0 SWAP1 SLOAD SWAP1 PUSH2 0x100 EXP SWAP1 DIV PUSH1 0xFF AND PUSH1 0x2 DUP2 GT ISZERO PUSH2 0x17E4 JUMPI PUSH2 0x17E4 PUSH2 0x29C5 JUMP JUMPDEST PUSH1 0x2 DUP2 GT ISZERO PUSH2 0x17F5 JUMPI PUSH2 0x17F5 PUSH2 0x29C5 JUMP JUMPDEST DUP2 MSTORE POP POP DUP2 MSTORE PUSH1 0x20 ADD SWAP1 PUSH1 0x1 ADD SWAP1 PUSH2 0x176F JUMP JUMPDEST POP POP POP SWAP1 DUP3 MSTORE POP PUSH1 0x9 DUP3 ADD SLOAD PUSH1 0x20 DUP3 ADD MSTORE PUSH1 0xA DUP3 ADD SLOAD PUSH1 0x40 SWAP1 SWAP2 ADD SWAP1 PUSH1 0xFF AND PUSH1 0x2 DUP2 GT ISZERO PUSH2 0x1838 JUMPI PUSH2 0x1838 PUSH2 0x29C5 JUMP JUMPDEST PUSH1 0x2 DUP2 GT ISZERO PUSH2 0x1849 JUMPI PUSH2 0x1849 PUSH2 0x29C5 JUMP JUMPDEST DUP2 MSTORE PUSH1 0x20 ADD PUSH1 0xB DUP3 ADD SLOAD DUP2 MSTORE POP POP DUP4 DUP4 DUP1 PUSH2 0x1863 SWAP1 PUSH2 0x2F4F JUMP JUMPDEST SWAP5 POP DUP2 MLOAD DUP2 LT PUSH2 0x1875 JUMPI PUSH2 0x1875 PUSH2 0x2D21 JUMP JUMPDEST PUSH1 0x20 MUL PUSH1 0x20 ADD ADD DUP2 SWAP1 MSTORE POP JUMPDEST PUSH1 0x1 ADD PUSH2 0x1477 JUMP JUMPDEST POP SWAP1 SWAP5 SWAP4 POP POP POP POP JUMP JUMPDEST PUSH1 0x2 SLOAD PUSH1 0x40 MLOAD PUSH4 0x935E01B PUSH1 0xE2 SHL DUP2 MSTORE ORIGIN PUSH1 0x4 DUP3 ADD MSTORE PUSH1 0x1 PUSH1 0x1 PUSH1 0xA0 SHL SUB SWAP1 SWAP2 AND SWAP1 PUSH4 0x24D7806C SWAP1 PUSH1 0x24 ADD PUSH1 0x20 PUSH1 0x40 MLOAD DUP1 DUP4 SUB DUP2 DUP7 GAS STATICCALL ISZERO DUP1 ISZERO PUSH2 0x18D9 JUMPI RETURNDATASIZE PUSH0 PUSH0 RETURNDATACOPY RETURNDATASIZE PUSH0 REVERT JUMPDEST POP POP POP POP PUSH1 0x40 MLOAD RETURNDATASIZE PUSH1 0x1F NOT PUSH1 0x1F DUP3 ADD AND DUP3 ADD DUP1 PUSH1 0x40 MSTORE POP DUP2 ADD SWAP1 PUSH2 0x18FD SWAP2 SWAP1 PUSH2 0x2CD7 JUMP JUMPDEST PUSH2 0x1919 JUMPI PUSH1 0x40 MLOAD PUSH3 0x461BCD PUSH1 0xE5 SHL DUP2 MSTORE PUSH1 0x4 ADD PUSH2 0x2AC SWAP1 PUSH2 0x2CF6 JUMP JUMPDEST PUSH0 DUP3 DUP2 MSTORE PUSH1 0x4 PUSH1 0x20 MSTORE PUSH1 0x40 DUP2 KECCAK256 SLOAD SWAP1 SUB PUSH2 0x196E JUMPI PUSH1 0x40 MLOAD PUSH3 0x461BCD PUSH1 0xE5 SHL DUP2 MSTORE PUSH1 0x20 PUSH1 0x4 DUP3 ADD MSTORE PUSH1 0x16 PUSH1 0x24 DUP3 ADD MSTORE PUSH22 0x13DC99195C925908191BD95CC81B9BDD08195E1A5CDD PUSH1 0x52 SHL PUSH1 0x44 DUP3 ADD MSTORE PUSH1 0x64 ADD PUSH2 0x2AC JUMP JUMPDEST PUSH0 SWAP2 DUP3 MSTORE PUSH1 0x4 PUSH1 0x20 MSTORE PUSH1 0x40 SWAP1 SWAP2 KECCAK256 PUSH1 0x7 ADD SSTORE JUMP JUMPDEST PUSH1 0x4 PUSH1 0x20 MSTORE PUSH0 SWAP1 DUP2 MSTORE PUSH1 0x40 SWAP1 KECCAK256 DUP1 SLOAD PUSH1 0x1 DUP3 ADD SLOAD PUSH1 0x2 DUP4 ADD DUP1 SLOAD SWAP3 SWAP4 PUSH1 0x1 PUSH1 0x1 PUSH1 0xA0 SHL SUB SWAP1 SWAP3 AND SWAP3 PUSH2 0x19B3 SWAP1 PUSH2 0x2F67 JUMP JUMPDEST DUP1 PUSH1 0x1F ADD PUSH1 0x20 DUP1 SWAP2 DIV MUL PUSH1 0x20 ADD PUSH1 0x40 MLOAD SWAP1 DUP2 ADD PUSH1 0x40 MSTORE DUP1 SWAP3 SWAP2 SWAP1 DUP2 DUP2 MSTORE PUSH1 0x20 ADD DUP3 DUP1 SLOAD PUSH2 0x19DF SWAP1 PUSH2 0x2F67 JUMP JUMPDEST DUP1 ISZERO PUSH2 0x1A2A JUMPI DUP1 PUSH1 0x1F LT PUSH2 0x1A01 JUMPI PUSH2 0x100 DUP1 DUP4 SLOAD DIV MUL DUP4 MSTORE SWAP2 PUSH1 0x20 ADD SWAP2 PUSH2 0x1A2A JUMP JUMPDEST DUP3 ADD SWAP2 SWAP1 PUSH0 MSTORE PUSH1 0x20 PUSH0 KECCAK256 SWAP1 JUMPDEST DUP2 SLOAD DUP2 MSTORE SWAP1 PUSH1 0x1 ADD SWAP1 PUSH1 0x20 ADD DUP1 DUP4 GT PUSH2 0x1A0D JUMPI DUP3 SWAP1 SUB PUSH1 0x1F AND DUP3 ADD SWAP2 JUMPDEST POP POP POP POP POP SWAP1 DUP1 PUSH1 0x3 ADD DUP1 SLOAD PUSH2 0x1A3F SWAP1 PUSH2 0x2F67 JUMP JUMPDEST DUP1 PUSH1 0x1F ADD PUSH1 0x20 DUP1 SWAP2 DIV MUL PUSH1 0x20 ADD PUSH1 0x40 MLOAD SWAP1 DUP2 ADD PUSH1 0x40 MSTORE DUP1 SWAP3 SWAP2 SWAP1 DUP2 DUP2 MSTORE PUSH1 0x20 ADD DUP3 DUP1 SLOAD PUSH2 0x1A6B SWAP1 PUSH2 0x2F67 JUMP JUMPDEST DUP1 ISZERO PUSH2 0x1AB6 JUMPI DUP1 PUSH1 0x1F LT PUSH2 0x1A8D JUMPI PUSH2 0x100 DUP1 DUP4 SLOAD DIV MUL DUP4 MSTORE SWAP2 PUSH1 0x20 ADD SWAP2 PUSH2 0x1AB6 JUMP JUMPDEST DUP3 ADD SWAP2 SWAP1 PUSH0 MSTORE PUSH1 0x20 PUSH0 KECCAK256 SWAP1 JUMPDEST DUP2 SLOAD DUP2 MSTORE SWAP1 PUSH1 0x1 ADD SWAP1 PUSH1 0x20 ADD DUP1 DUP4 GT PUSH2 0x1A99 JUMPI DUP3 SWAP1 SUB PUSH1 0x1F AND DUP3 ADD SWAP2 JUMPDEST POP POP POP POP POP SWAP1 DUP1 PUSH1 0x4 ADD DUP1 SLOAD PUSH2 0x1ACB SWAP1 PUSH2 0x2F67 JUMP JUMPDEST DUP1 PUSH1 0x1F ADD PUSH1 0x20 DUP1 SWAP2 DIV MUL PUSH1 0x20 ADD PUSH1 0x40 MLOAD SWAP1 DUP2 ADD PUSH1 0x40 MSTORE DUP1 SWAP3 SWAP2 SWAP1 DUP2 DUP2 MSTORE PUSH1 0x20 ADD DUP3 DUP1 SLOAD PUSH2 0x1AF7 SWAP1 PUSH2 0x2F67 JUMP JUMPDEST DUP1 ISZERO PUSH2 0x1B42 JUMPI DUP1 PUSH1 0x1F LT PUSH2 0x1B19 JUMPI PUSH2 0x100 DUP1 DUP4 SLOAD DIV MUL DUP4 MSTORE SWAP2 PUSH1 0x20 ADD SWAP2 PUSH2 0x1B42 JUMP JUMPDEST DUP3 ADD SWAP2 SWAP1 PUSH0 MSTORE PUSH1 0x20 PUSH0 KECCAK256 SWAP1 JUMPDEST DUP2 SLOAD DUP2 MSTORE SWAP1 PUSH1 0x1 ADD SWAP1 PUSH1 0x20 ADD DUP1 DUP4 GT PUSH2 0x1B25 JUMPI DUP3 SWAP1 SUB PUSH1 0x1F AND DUP3 ADD SWAP2 JUMPDEST POP POP POP POP POP SWAP1 DUP1 PUSH1 0x5 ADD DUP1 SLOAD PUSH2 0x1B57 SWAP1 PUSH2 0x2F67 JUMP JUMPDEST DUP1 PUSH1 0x1F ADD PUSH1 0x20 DUP1 SWAP2 DIV MUL PUSH1 0x20 ADD PUSH1 0x40 MLOAD SWAP1 DUP2 ADD PUSH1 0x40 MSTORE DUP1 SWAP3 SWAP2 SWAP1 DUP2 DUP2 MSTORE PUSH1 0x20 ADD DUP3 DUP1 SLOAD PUSH2 0x1B83 SWAP1 PUSH2 0x2F67 JUMP JUMPDEST DUP1 ISZERO PUSH2 0x1BCE JUMPI DUP1 PUSH1 0x1F LT PUSH2 0x1BA5 JUMPI PUSH2 0x100 DUP1 DUP4 SLOAD DIV MUL DUP4 MSTORE SWAP2 PUSH1 0x20 ADD SWAP2 PUSH2 0x1BCE JUMP JUMPDEST DUP3 ADD SWAP2 SWAP1 PUSH0 MSTORE PUSH1 0x20 PUSH0 KECCAK256 SWAP1 JUMPDEST DUP2 SLOAD DUP2 MSTORE SWAP1 PUSH1 0x1 ADD SWAP1 PUSH1 0x20 ADD DUP1 DUP4 GT PUSH2 0x1BB1 JUMPI DUP3 SWAP1 SUB PUSH1 0x1F AND DUP3 ADD SWAP2 JUMPDEST POP POP POP POP PUSH1 0x6 DUP4 ADD SLOAD PUSH1 0x7 DUP5 ADD SLOAD PUSH1 0x9 DUP6 ADD SLOAD PUSH1 0xA DUP7 ADD SLOAD PUSH1 0xB SWAP1 SWAP7 ADD SLOAD SWAP5 SWAP6 SWAP3 SWAP5 SWAP2 SWAP4 POP SWAP2 PUSH1 0xFF AND SWAP1 DUP12 JUMP JUMPDEST PUSH1 0x2 SLOAD PUSH1 0x40 MLOAD PUSH4 0x935E01B PUSH1 0xE2 SHL DUP2 MSTORE ORIGIN PUSH1 0x4 DUP3 ADD MSTORE PUSH1 0x1 PUSH1 0x1 PUSH1 0xA0 SHL SUB SWAP1 SWAP2 AND SWAP1 PUSH4 0x24D7806C SWAP1 PUSH1 0x24 ADD PUSH1 0x20 PUSH1 0x40 MLOAD DUP1 DUP4 SUB DUP2 DUP7 GAS STATICCALL ISZERO DUP1 ISZERO PUSH2 0x1C41 JUMPI RETURNDATASIZE PUSH0 PUSH0 RETURNDATACOPY RETURNDATASIZE PUSH0 REVERT JUMPDEST POP POP POP POP PUSH1 0x40 MLOAD RETURNDATASIZE PUSH1 0x1F NOT PUSH1 0x1F DUP3 ADD AND DUP3 ADD DUP1 PUSH1 0x40 MSTORE POP DUP2 ADD SWAP1 PUSH2 0x1C65 SWAP2 SWAP1 PUSH2 0x2CD7 JUMP JUMPDEST PUSH2 0x1C81 JUMPI PUSH1 0x40 MLOAD PUSH3 0x461BCD PUSH1 0xE5 SHL DUP2 MSTORE PUSH1 0x4 ADD PUSH2 0x2AC SWAP1 PUSH2 0x2CF6 JUMP JUMPDEST PUSH0 DUP3 DUP2 MSTORE PUSH1 0x4 PUSH1 0x20 SWAP1 DUP2 MSTORE PUSH1 0x40 DUP1 DUP4 KECCAK256 DUP2 MLOAD PUSH2 0x180 DUP2 ADD DUP4 MSTORE DUP2 SLOAD DUP2 MSTORE PUSH1 0x1 DUP3 ADD SLOAD PUSH1 0x1 PUSH1 0x1 PUSH1 0xA0 SHL SUB AND SWAP4 DUP2 ADD SWAP4 SWAP1 SWAP4 MSTORE PUSH1 0x2 DUP2 ADD DUP1 SLOAD SWAP2 SWAP3 DUP5 ADD SWAP2 PUSH2 0x1CC7 SWAP1 PUSH2 0x2F67 JUMP JUMPDEST DUP1 PUSH1 0x1F ADD PUSH1 0x20 DUP1 SWAP2 DIV MUL PUSH1 0x20 ADD PUSH1 0x40 MLOAD SWAP1 DUP2 ADD PUSH1 0x40 MSTORE DUP1 SWAP3 SWAP2 SWAP1 DUP2 DUP2 MSTORE PUSH1 0x20 ADD DUP3 DUP1 SLOAD PUSH2 0x1CF3 SWAP1 PUSH2 0x2F67 JUMP JUMPDEST DUP1 ISZERO PUSH2 0x1D3E JUMPI DUP1 PUSH1 0x1F LT PUSH2 0x1D15 JUMPI PUSH2 0x100 DUP1 DUP4 SLOAD DIV MUL DUP4 MSTORE SWAP2 PUSH1 0x20 ADD SWAP2 PUSH2 0x1D3E JUMP JUMPDEST DUP3 ADD SWAP2 SWAP1 PUSH0 MSTORE PUSH1 0x20 PUSH0 KECCAK256 SWAP1 JUMPDEST DUP2 SLOAD DUP2 MSTORE SWAP1 PUSH1 0x1 ADD SWAP1 PUSH1 0x20 ADD DUP1 DUP4 GT PUSH2 0x1D21 JUMPI DUP3 SWAP1 SUB PUSH1 0x1F AND DUP3 ADD SWAP2 JUMPDEST POP POP POP POP POP DUP2 MSTORE PUSH1 0x20 ADD PUSH1 0x3 DUP3 ADD DUP1 SLOAD PUSH2 0x1D57 SWAP1 PUSH2 0x2F67 JUMP JUMPDEST DUP1 PUSH1 0x1F ADD PUSH1 0x20 DUP1 SWAP2 DIV MUL PUSH1 0x20 ADD PUSH1 0x40 MLOAD SWAP1 DUP2 ADD PUSH1 0x40 MSTORE DUP1 SWAP3 SWAP2 SWAP1 DUP2 DUP2 MSTORE PUSH1 0x20 ADD DUP3 DUP1 SLOAD PUSH2 0x1D83 SWAP1 PUSH2 0x2F67 JUMP JUMPDEST DUP1 ISZERO PUSH2 0x1DCE JUMPI DUP1 PUSH1 0x1F LT PUSH2 0x1DA5 JUMPI PUSH2 0x100 DUP1 DUP4 SLOAD DIV MUL DUP4 MSTORE SWAP2 PUSH1 0x20 ADD SWAP2 PUSH2 0x1DCE JUMP JUMPDEST DUP3 ADD SWAP2 SWAP1 PUSH0 MSTORE PUSH1 0x20 PUSH0 KECCAK256 SWAP1 JUMPDEST DUP2 SLOAD DUP2 MSTORE SWAP1 PUSH1 0x1 ADD SWAP1 PUSH1 0x20 ADD DUP1 DUP4 GT PUSH2 0x1DB1 JUMPI DUP3 SWAP1 SUB PUSH1 0x1F AND DUP3 ADD SWAP2 JUMPDEST POP POP POP POP POP DUP2 MSTORE PUSH1 0x20 ADD PUSH1 0x4 DUP3 ADD DUP1 SLOAD PUSH2 0x1DE7 SWAP1 PUSH2 0x2F67 JUMP JUMPDEST DUP1 PUSH1 0x1F ADD PUSH1 0x20 DUP1 SWAP2 DIV MUL PUSH1 0x20 ADD PUSH1 0x40 MLOAD SWAP1 DUP2 ADD PUSH1 0x40 MSTORE DUP1 SWAP3 SWAP2 SWAP1 DUP2 DUP2 MSTORE PUSH1 0x20 ADD DUP3 DUP1 SLOAD PUSH2 0x1E13 SWAP1 PUSH2 0x2F67 JUMP JUMPDEST DUP1 ISZERO PUSH2 0x1E5E JUMPI DUP1 PUSH1 0x1F LT PUSH2 0x1E35 JUMPI PUSH2 0x100 DUP1 DUP4 SLOAD DIV MUL DUP4 MSTORE SWAP2 PUSH1 0x20 ADD SWAP2 PUSH2 0x1E5E JUMP JUMPDEST DUP3 ADD SWAP2 SWAP1 PUSH0 MSTORE PUSH1 0x20 PUSH0 KECCAK256 SWAP1 JUMPDEST DUP2 SLOAD DUP2 MSTORE SWAP1 PUSH1 0x1 ADD SWAP1 PUSH1 0x20 ADD DUP1 DUP4 GT PUSH2 0x1E41 JUMPI DUP3 SWAP1 SUB PUSH1 0x1F AND DUP3 ADD SWAP2 JUMPDEST POP POP POP POP POP DUP2 MSTORE PUSH1 0x20 ADD PUSH1 0x5 DUP3 ADD DUP1 SLOAD PUSH2 0x1E77 SWAP1 PUSH2 0x2F67 JUMP JUMPDEST DUP1 PUSH1 0x1F ADD PUSH1 0x20 DUP1 SWAP2 DIV MUL PUSH1 0x20 ADD PUSH1 0x40 MLOAD SWAP1 DUP2 ADD PUSH1 0x40 MSTORE DUP1 SWAP3 SWAP2 SWAP1 DUP2 DUP2 MSTORE PUSH1 0x20 ADD DUP3 DUP1 SLOAD PUSH2 0x1EA3 SWAP1 PUSH2 0x2F67 JUMP JUMPDEST DUP1 ISZERO PUSH2 0x1EEE JUMPI DUP1 PUSH1 0x1F LT PUSH2 0x1EC5 JUMPI PUSH2 0x100 DUP1 DUP4 SLOAD DIV MUL DUP4 MSTORE SWAP2 PUSH1 0x20 ADD SWAP2 PUSH2 0x1EEE JUMP JUMPDEST DUP3 ADD SWAP2 SWAP1 PUSH0 MSTORE PUSH1 0x20 PUSH0 KECCAK256 SWAP1 JUMPDEST DUP2 SLOAD DUP2 MSTORE SWAP1 PUSH1 0x1 ADD SWAP1 PUSH1 0x20 ADD DUP1 DUP4 GT PUSH2 0x1ED1 JUMPI DUP3 SWAP1 SUB PUSH1 0x1F AND DUP3 ADD SWAP2 JUMPDEST POP POP POP POP POP DUP2 MSTORE PUSH1 0x20 ADD PUSH1 0x6 DUP3 ADD SLOAD DUP2 MSTORE PUSH1 0x20 ADD PUSH1 0x7 DUP3 ADD SLOAD DUP2 MSTORE PUSH1 0x20 ADD PUSH1 0x8 DUP3 ADD DUP1 SLOAD DUP1 PUSH1 0x20 MUL PUSH1 0x20 ADD PUSH1 0x40 MLOAD SWAP1 DUP2 ADD PUSH1 0x40 MSTORE DUP1 SWAP3 SWAP2 SWAP1 DUP2 DUP2 MSTORE PUSH1 0x20 ADD PUSH0 SWAP1 JUMPDEST DUP3 DUP3 LT ISZERO PUSH2 0x1FC8 JUMPI DUP4 DUP3 SWAP1 PUSH0 MSTORE PUSH1 0x20 PUSH0 KECCAK256 SWAP1 PUSH1 0x6 MUL ADD PUSH1 0x40 MLOAD DUP1 PUSH1 0xC0 ADD PUSH1 0x40 MSTORE SWAP1 DUP2 PUSH0 DUP3 ADD SLOAD DUP2 MSTORE PUSH1 0x20 ADD PUSH1 0x1 DUP3 ADD SLOAD DUP2 MSTORE PUSH1 0x20 ADD PUSH1 0x2 DUP3 ADD SLOAD DUP2 MSTORE PUSH1 0x20 ADD PUSH1 0x3 DUP3 ADD SLOAD DUP2 MSTORE PUSH1 0x20 ADD PUSH1 0x4 DUP3 ADD SLOAD DUP2 MSTORE PUSH1 0x20 ADD PUSH1 0x5 DUP3 ADD PUSH0 SWAP1 SLOAD SWAP1 PUSH2 0x100 EXP SWAP1 DIV PUSH1 0xFF AND PUSH1 0x2 DUP2 GT ISZERO PUSH2 0x1FA4 JUMPI PUSH2 0x1FA4 PUSH2 0x29C5 JUMP JUMPDEST PUSH1 0x2 DUP2 GT ISZERO PUSH2 0x1FB5 JUMPI PUSH2 0x1FB5 PUSH2 0x29C5 JUMP JUMPDEST DUP2 MSTORE POP POP DUP2 MSTORE PUSH1 0x20 ADD SWAP1 PUSH1 0x1 ADD SWAP1 PUSH2 0x1F2F JUMP JUMPDEST POP POP POP SWAP1 DUP3 MSTORE POP PUSH1 0x9 DUP3 ADD SLOAD PUSH1 0x20 DUP3 ADD MSTORE PUSH1 0xA DUP3 ADD SLOAD PUSH1 0x40 SWAP1 SWAP2 ADD SWAP1 PUSH1 0xFF AND PUSH1 0x2 DUP2 GT ISZERO PUSH2 0x1FF8 JUMPI PUSH2 0x1FF8 PUSH2 0x29C5 JUMP JUMPDEST PUSH1 0x2 DUP2 GT ISZERO PUSH2 0x2009 JUMPI PUSH2 0x2009 PUSH2 0x29C5 JUMP JUMPDEST DUP2 MSTORE PUSH1 0x20 ADD PUSH1 0xB DUP3 ADD SLOAD DUP2 MSTORE POP POP SWAP1 POP DUP1 PUSH0 ADD MLOAD PUSH0 SUB PUSH2 0x2062 JUMPI PUSH1 0x40 MLOAD PUSH3 0x461BCD PUSH1 0xE5 SHL DUP2 MSTORE PUSH1 0x20 PUSH1 0x4 DUP3 ADD MSTORE PUSH1 0x14 PUSH1 0x24 DUP3 ADD MSTORE PUSH20 0x13DC99195C88191BD95CC81B9BDD08195E1A5CDD PUSH1 0x62 SHL PUSH1 0x44 DUP3 ADD MSTORE PUSH1 0x64 ADD PUSH2 0x2AC JUMP JUMPDEST PUSH0 DUP2 PUSH2 0x140 ADD MLOAD PUSH1 0x2 DUP2 GT ISZERO PUSH2 0x207A JUMPI PUSH2 0x207A PUSH2 0x29C5 JUMP JUMPDEST SUB PUSH2 0x20DF JUMPI PUSH1 0x40 MLOAD PUSH3 0x461BCD PUSH1 0xE5 SHL DUP2 MSTORE PUSH1 0x20 PUSH1 0x4 DUP3 ADD MSTORE PUSH1 0x2F PUSH1 0x24 DUP3 ADD MSTORE PUSH32 0x4F7264657220616C7265616479206D61726B656420617320636F6E6669726D2E PUSH1 0x44 DUP3 ADD MSTORE PUSH15 0x2043616E206E6F7420757064617465 PUSH1 0x88 SHL PUSH1 0x64 DUP3 ADD MSTORE PUSH1 0x84 ADD PUSH2 0x2AC JUMP JUMPDEST PUSH1 0x2 DUP2 PUSH2 0x140 ADD MLOAD PUSH1 0x2 DUP2 GT ISZERO PUSH2 0x20F8 JUMPI PUSH2 0x20F8 PUSH2 0x29C5 JUMP JUMPDEST SUB PUSH2 0x2160 JUMPI PUSH1 0x40 MLOAD PUSH3 0x461BCD PUSH1 0xE5 SHL DUP2 MSTORE PUSH1 0x20 PUSH1 0x4 DUP3 ADD MSTORE PUSH1 0x32 PUSH1 0x24 DUP3 ADD MSTORE PUSH32 0x4F7264657220616C72656164792063616E63656C6C656420617320636F6E6669 PUSH1 0x44 DUP3 ADD MSTORE PUSH18 0x726D2E2043616E206E6F7420757064617465 PUSH1 0x70 SHL PUSH1 0x64 DUP3 ADD MSTORE PUSH1 0x84 ADD PUSH2 0x2AC JUMP JUMPDEST PUSH0 JUMPDEST DUP2 PUSH2 0x100 ADD MLOAD MLOAD DUP2 LT ISZERO PUSH2 0x2332 JUMPI PUSH0 SLOAD PUSH2 0x100 DUP4 ADD MLOAD DUP1 MLOAD PUSH1 0x1 PUSH1 0x1 PUSH1 0xA0 SHL SUB SWAP1 SWAP3 AND SWAP2 PUSH4 0x94B9A53 SWAP2 SWAP1 DUP5 SWAP1 DUP2 LT PUSH2 0x219D JUMPI PUSH2 0x219D PUSH2 0x2D21 JUMP JUMPDEST PUSH1 0x20 MUL PUSH1 0x20 ADD ADD MLOAD PUSH1 0x40 ADD MLOAD DUP5 PUSH2 0x100 ADD MLOAD DUP5 DUP2 MLOAD DUP2 LT PUSH2 0x21C0 JUMPI PUSH2 0x21C0 PUSH2 0x2D21 JUMP JUMPDEST PUSH1 0x20 MUL PUSH1 0x20 ADD ADD MLOAD PUSH1 0x20 ADD MLOAD DUP6 PUSH2 0x100 ADD MLOAD DUP6 DUP2 MLOAD DUP2 LT PUSH2 0x21E3 JUMPI PUSH2 0x21E3 PUSH2 0x2D21 JUMP JUMPDEST PUSH1 0x20 MUL PUSH1 0x20 ADD ADD MLOAD PUSH1 0x60 ADD MLOAD PUSH1 0x40 MLOAD DUP5 PUSH4 0xFFFFFFFF AND PUSH1 0xE0 SHL DUP2 MSTORE PUSH1 0x4 ADD PUSH2 0x221E SWAP4 SWAP3 SWAP2 SWAP1 SWAP3 DUP4 MSTORE PUSH1 0x20 DUP4 ADD SWAP2 SWAP1 SWAP2 MSTORE PUSH1 0x40 DUP3 ADD MSTORE PUSH1 0x60 ADD SWAP1 JUMP JUMPDEST PUSH0 PUSH1 0x40 MLOAD DUP1 DUP4 SUB DUP2 PUSH0 DUP8 DUP1 EXTCODESIZE ISZERO DUP1 ISZERO PUSH2 0x2235 JUMPI PUSH0 PUSH0 REVERT JUMPDEST POP GAS CALL ISZERO DUP1 ISZERO PUSH2 0x2247 JUMPI RETURNDATASIZE PUSH0 PUSH0 RETURNDATACOPY RETURNDATASIZE PUSH0 REVERT JUMPDEST POP POP PUSH0 SLOAD PUSH2 0x100 DUP6 ADD MLOAD DUP1 MLOAD PUSH1 0x1 PUSH1 0x1 PUSH1 0xA0 SHL SUB SWAP1 SWAP3 AND SWAP4 POP PUSH4 0x6C6B5BAF SWAP3 POP SWAP1 DUP5 SWAP1 DUP2 LT PUSH2 0x2278 JUMPI PUSH2 0x2278 PUSH2 0x2D21 JUMP JUMPDEST PUSH1 0x20 MUL PUSH1 0x20 ADD ADD MLOAD PUSH1 0x40 ADD MLOAD DUP5 PUSH2 0x100 ADD MLOAD DUP5 DUP2 MLOAD DUP2 LT PUSH2 0x229B JUMPI PUSH2 0x229B PUSH2 0x2D21 JUMP JUMPDEST PUSH1 0x20 MUL PUSH1 0x20 ADD ADD MLOAD PUSH1 0x20 ADD MLOAD DUP6 PUSH2 0x100 ADD MLOAD DUP6 DUP2 MLOAD DUP2 LT PUSH2 0x22BE JUMPI PUSH2 0x22BE PUSH2 0x2D21 JUMP JUMPDEST PUSH1 0x20 MUL PUSH1 0x20 ADD ADD MLOAD PUSH1 0x60 ADD MLOAD PUSH1 0x40 MLOAD DUP5 PUSH4 0xFFFFFFFF AND PUSH1 0xE0 SHL DUP2 MSTORE PUSH1 0x4 ADD PUSH2 0x22F9 SWAP4 SWAP3 SWAP2 SWAP1 SWAP3 DUP4 MSTORE PUSH1 0x20 DUP4 ADD SWAP2 SWAP1 SWAP2 MSTORE PUSH1 0x40 DUP3 ADD MSTORE PUSH1 0x60 ADD SWAP1 JUMP JUMPDEST PUSH0 PUSH1 0x40 MLOAD DUP1 DUP4 SUB DUP2 PUSH0 DUP8 DUP1 EXTCODESIZE ISZERO DUP1 ISZERO PUSH2 0x2310 JUMPI PUSH0 PUSH0 REVERT JUMPDEST POP GAS CALL ISZERO DUP1 ISZERO PUSH2 0x2322 JUMPI RETURNDATASIZE PUSH0 PUSH0 RETURNDATACOPY RETURNDATASIZE PUSH0 REVERT JUMPDEST POP POP PUSH1 0x1 SWAP1 SWAP3 ADD SWAP2 POP PUSH2 0x2162 SWAP1 POP JUMP JUMPDEST POP PUSH2 0x2362 PUSH1 0x40 MLOAD DUP1 PUSH1 0x40 ADD PUSH1 0x40 MSTORE DUP1 PUSH1 0x9 DUP2 MSTORE PUSH1 0x20 ADD PUSH9 0x3A30B13632A4B21D1 PUSH1 0xBD SHL DUP2 MSTORE POP DUP3 PUSH1 0xE0 ADD MLOAD PUSH2 0x243F JUMP JUMPDEST PUSH1 0xE0 DUP2 ADD MLOAD ISZERO PUSH2 0x23CF JUMPI PUSH1 0x1 SLOAD PUSH1 0xE0 DUP3 ADD MLOAD PUSH1 0x40 MLOAD PUSH4 0x2D2BF54B PUSH1 0xE2 SHL DUP2 MSTORE PUSH1 0x1 PUSH1 0x1 PUSH1 0xA0 SHL SUB SWAP1 SWAP3 AND SWAP2 PUSH4 0xB4AFD52C SWAP2 PUSH2 0x23A1 SWAP2 PUSH0 SWAP1 PUSH1 0x4 ADD PUSH2 0x3232 JUMP JUMPDEST PUSH0 PUSH1 0x40 MLOAD DUP1 DUP4 SUB DUP2 PUSH0 DUP8 DUP1 EXTCODESIZE ISZERO DUP1 ISZERO PUSH2 0x23B8 JUMPI PUSH0 PUSH0 REVERT JUMPDEST POP GAS CALL ISZERO DUP1 ISZERO PUSH2 0x23CA JUMPI RETURNDATASIZE PUSH0 PUSH0 RETURNDATACOPY RETURNDATASIZE PUSH0 REVERT JUMPDEST POP POP POP POP JUMPDEST PUSH0 DUP4 DUP2 MSTORE PUSH1 0x4 PUSH1 0x20 MSTORE PUSH1 0x40 SWAP1 KECCAK256 PUSH1 0xA ADD DUP1 SLOAD DUP4 SWAP2 SWAP1 PUSH1 0xFF NOT AND PUSH1 0x1 DUP4 PUSH1 0x2 DUP2 GT ISZERO PUSH2 0x23FC JUMPI PUSH2 0x23FC PUSH2 0x29C5 JUMP JUMPDEST MUL OR SWAP1 SSTORE POP PUSH32 0x575764E5527275E78FB8B8CECD6AE324A82D9904EF7A29349DABDFF1E1F54C35 DUP4 DUP4 PUSH1 0x40 MLOAD PUSH2 0x2432 SWAP3 SWAP2 SWAP1 PUSH2 0x328B JUMP JUMPDEST PUSH1 0x40 MLOAD DUP1 SWAP2 SUB SWAP1 LOG1 POP POP POP JUMP JUMPDEST PUSH2 0x2484 DUP3 DUP3 PUSH1 0x40 MLOAD PUSH1 0x24 ADD PUSH2 0x2455 SWAP3 SWAP2 SWAP1 PUSH2 0x329B JUMP JUMPDEST PUSH1 0x40 DUP1 MLOAD PUSH1 0x1F NOT DUP2 DUP5 SUB ADD DUP2 MSTORE SWAP2 SWAP1 MSTORE PUSH1 0x20 DUP2 ADD DUP1 MLOAD PUSH1 0x1 PUSH1 0x1 PUSH1 0xE0 SHL SUB AND PUSH4 0x2D839CB3 PUSH1 0xE2 SHL OR SWAP1 MSTORE PUSH2 0x2488 JUMP JUMPDEST POP POP JUMP JUMPDEST PUSH2 0x2491 DUP2 PUSH2 0x2494 JUMP JUMPDEST POP JUMP JUMPDEST PUSH0 PUSH11 0x636F6E736F6C652E6C6F67 SWAP1 POP PUSH0 PUSH0 DUP4 MLOAD PUSH1 0x20 DUP6 ADD DUP5 GAS STATICCALL POP POP POP JUMP JUMPDEST PUSH1 0x40 MLOAD DUP1 PUSH2 0x180 ADD PUSH1 0x40 MSTORE DUP1 PUSH0 DUP2 MSTORE PUSH1 0x20 ADD PUSH0 PUSH1 0x1 PUSH1 0x1 PUSH1 0xA0 SHL SUB AND DUP2 MSTORE PUSH1 0x20 ADD PUSH1 0x60 DUP2 MSTORE PUSH1 0x20 ADD PUSH1 0x60 DUP2 MSTORE PUSH1 0x20 ADD PUSH1 0x60 DUP2 MSTORE PUSH1 0x20 ADD PUSH1 0x60 DUP2 MSTORE PUSH1 0x20 ADD PUSH0 DUP2 MSTORE PUSH1 0x20 ADD PUSH0 DUP2 MSTORE PUSH1 0x20 ADD PUSH1 0x60 DUP2 MSTORE PUSH1 0x20 ADD PUSH0 DUP2 MSTORE PUSH1 0x20 ADD PUSH0 PUSH1 0x2 DUP2 GT ISZERO PUSH2 0x251B JUMPI PUSH2 0x251B PUSH2 0x29C5 JUMP JUMPDEST DUP2 MSTORE PUSH1 0x20 ADD PUSH0 DUP2 MSTORE POP SWAP1 JUMP JUMPDEST DUP3 DUP1 SLOAD DUP3 DUP3 SSTORE SWAP1 PUSH0 MSTORE PUSH1 0x20 PUSH0 KECCAK256 SWAP1 PUSH1 0x6 MUL DUP2 ADD SWAP3 DUP3 ISZERO PUSH2 0x25C5 JUMPI PUSH0 MSTORE PUSH1 0x20 PUSH0 KECCAK256 SWAP2 PUSH1 0x6 MUL DUP3 ADD JUMPDEST DUP3 DUP2 GT ISZERO PUSH2 0x25C5 JUMPI DUP3 SLOAD DUP3 SSTORE PUSH1 0x1 DUP1 DUP5 ADD SLOAD DUP2 DUP5 ADD SSTORE PUSH1 0x2 DUP1 DUP6 ADD SLOAD DUP2 DUP6 ADD SSTORE PUSH1 0x3 DUP1 DUP7 ADD SLOAD SWAP1 DUP6 ADD SSTORE PUSH1 0x4 DUP1 DUP7 ADD SLOAD SWAP1 DUP6 ADD SSTORE PUSH1 0x5 DUP1 DUP7 ADD SLOAD SWAP1 DUP6 ADD DUP1 SLOAD DUP8 SWAP5 DUP8 SWAP5 PUSH1 0xFF SWAP1 SWAP5 AND SWAP4 PUSH1 0xFF NOT SWAP1 SWAP3 AND SWAP2 DUP5 SWAP1 DUP2 GT ISZERO PUSH2 0x25AF JUMPI PUSH2 0x25AF PUSH2 0x29C5 JUMP JUMPDEST MUL OR SWAP1 SSTORE POP POP POP SWAP2 PUSH1 0x6 ADD SWAP2 SWAP1 PUSH1 0x6 ADD SWAP1 PUSH2 0x254E JUMP JUMPDEST POP PUSH2 0x25D1 SWAP3 SWAP2 POP PUSH2 0x25D5 JUMP JUMPDEST POP SWAP1 JUMP JUMPDEST JUMPDEST DUP1 DUP3 GT ISZERO PUSH2 0x25D1 JUMPI PUSH0 DUP1 DUP3 SSTORE PUSH1 0x1 DUP3 ADD DUP2 SWAP1 SSTORE PUSH1 0x2 DUP3 ADD DUP2 SWAP1 SSTORE PUSH1 0x3 DUP3 ADD DUP2 SWAP1 SSTORE PUSH1 0x4 DUP3 ADD SSTORE PUSH1 0x5 DUP2 ADD DUP1 SLOAD PUSH1 0xFF NOT AND SWAP1 SSTORE PUSH1 0x6 ADD PUSH2 0x25D6 JUMP JUMPDEST PUSH0 PUSH0 PUSH1 0x40 DUP4 DUP6 SUB SLT ISZERO PUSH2 0x2621 JUMPI PUSH0 PUSH0 REVERT JUMPDEST POP POP DUP1 CALLDATALOAD SWAP3 PUSH1 0x20 SWAP1 SWAP2 ADD CALLDATALOAD SWAP2 POP JUMP JUMPDEST DUP1 CALLDATALOAD PUSH1 0x1 PUSH1 0x1 PUSH1 0xA0 SHL SUB DUP2 AND DUP2 EQ PUSH2 0x2646 JUMPI PUSH0 PUSH0 REVERT JUMPDEST SWAP2 SWAP1 POP JUMP JUMPDEST PUSH0 PUSH1 0x20 DUP3 DUP5 SUB SLT ISZERO PUSH2 0x265B JUMPI PUSH0 PUSH0 REVERT JUMPDEST PUSH2 0x2664 DUP3 PUSH2 0x2630 JUMP JUMPDEST SWAP4 SWAP3 POP POP POP JUMP JUMPDEST PUSH1 0x20 DUP1 DUP3 MSTORE DUP3 MLOAD DUP3 DUP3 ADD DUP2 SWAP1 MSTORE PUSH0 SWAP2 DUP5 ADD SWAP1 PUSH1 0x40 DUP5 ADD SWAP1 DUP4 JUMPDEST DUP2 DUP2 LT ISZERO PUSH2 0x26A2 JUMPI DUP4 MLOAD DUP4 MSTORE PUSH1 0x20 SWAP4 DUP5 ADD SWAP4 SWAP1 SWAP3 ADD SWAP2 PUSH1 0x1 ADD PUSH2 0x2684 JUMP JUMPDEST POP SWAP1 SWAP6 SWAP5 POP POP POP POP POP JUMP JUMPDEST PUSH0 PUSH0 PUSH1 0x40 DUP4 DUP6 SUB SLT ISZERO PUSH2 0x26BE JUMPI PUSH0 PUSH0 REVERT JUMPDEST PUSH2 0x26C7 DUP4 PUSH2 0x2630 JUMP JUMPDEST SWAP5 PUSH1 0x20 SWAP4 SWAP1 SWAP4 ADD CALLDATALOAD SWAP4 POP POP POP JUMP JUMPDEST PUSH1 0x3 DUP2 LT PUSH2 0x2491 JUMPI PUSH0 PUSH0 REVERT JUMPDEST PUSH0 PUSH0 PUSH0 PUSH1 0x60 DUP5 DUP7 SUB SLT ISZERO PUSH2 0x26F3 JUMPI PUSH0 PUSH0 REVERT JUMPDEST DUP4 CALLDATALOAD SWAP3 POP PUSH1 0x20 DUP5 ADD CALLDATALOAD SWAP2 POP PUSH1 0x40 DUP5 ADD CALLDATALOAD PUSH2 0x270C DUP2 PUSH2 0x26D5 JUMP JUMPDEST DUP1 SWAP2 POP POP SWAP3 POP SWAP3 POP SWAP3 JUMP JUMPDEST PUSH4 0x4E487B71 PUSH1 0xE0 SHL PUSH0 MSTORE PUSH1 0x41 PUSH1 0x4 MSTORE PUSH1 0x24 PUSH0 REVERT JUMPDEST PUSH1 0x40 MLOAD PUSH1 0x60 DUP2 ADD PUSH1 0x1 PUSH1 0x1 PUSH1 0x40 SHL SUB DUP2 GT DUP3 DUP3 LT OR ISZERO PUSH2 0x274D JUMPI PUSH2 0x274D PUSH2 0x2717 JUMP JUMPDEST PUSH1 0x40 MSTORE SWAP1 JUMP JUMPDEST PUSH1 0x40 MLOAD PUSH2 0x100 DUP2 ADD PUSH1 0x1 PUSH1 0x1 PUSH1 0x40 SHL SUB DUP2 GT DUP3 DUP3 LT OR ISZERO PUSH2 0x274D JUMPI PUSH2 0x274D PUSH2 0x2717 JUMP JUMPDEST PUSH1 0x40 MLOAD PUSH1 0xA0 DUP2 ADD PUSH1 0x1 PUSH1 0x1 PUSH1 0x40 SHL SUB DUP2 GT DUP3 DUP3 LT OR ISZERO PUSH2 0x274D JUMPI PUSH2 0x274D PUSH2 0x2717 JUMP JUMPDEST PUSH1 0x40 MLOAD PUSH1 0x1F DUP3 ADD PUSH1 0x1F NOT AND DUP2 ADD PUSH1 0x1 PUSH1 0x1 PUSH1 0x40 SHL SUB DUP2 GT DUP3 DUP3 LT OR ISZERO PUSH2 0x27C0 JUMPI PUSH2 0x27C0 PUSH2 0x2717 JUMP JUMPDEST PUSH1 0x40 MSTORE SWAP2 SWAP1 POP JUMP JUMPDEST PUSH0 PUSH1 0x1 PUSH1 0x1 PUSH1 0x40 SHL SUB DUP3 GT ISZERO PUSH2 0x27E0 JUMPI PUSH2 0x27E0 PUSH2 0x2717 JUMP JUMPDEST POP PUSH1 0x1F ADD PUSH1 0x1F NOT AND PUSH1 0x20 ADD SWAP1 JUMP JUMPDEST PUSH0 DUP3 PUSH1 0x1F DUP4 ADD SLT PUSH2 0x27FD JUMPI PUSH0 PUSH0 REVERT JUMPDEST DUP2 CALLDATALOAD PUSH2 0x2810 PUSH2 0x280B DUP3 PUSH2 0x27C8 JUMP JUMPDEST PUSH2 0x2798 JUMP JUMPDEST DUP2 DUP2 MSTORE DUP5 PUSH1 0x20 DUP4 DUP7 ADD ADD GT ISZERO PUSH2 0x2824 JUMPI PUSH0 PUSH0 REVERT JUMPDEST DUP2 PUSH1 0x20 DUP6 ADD PUSH1 0x20 DUP4 ADD CALLDATACOPY PUSH0 SWAP2 DUP2 ADD PUSH1 0x20 ADD SWAP2 SWAP1 SWAP2 MSTORE SWAP4 SWAP3 POP POP POP JUMP JUMPDEST PUSH0 PUSH1 0x1 PUSH1 0x1 PUSH1 0x40 SHL SUB DUP3 GT ISZERO PUSH2 0x2858 JUMPI PUSH2 0x2858 PUSH2 0x2717 JUMP JUMPDEST POP PUSH1 0x5 SHL PUSH1 0x20 ADD SWAP1 JUMP JUMPDEST PUSH0 PUSH0 PUSH0 PUSH0 PUSH0 PUSH0 PUSH1 0xC0 DUP8 DUP10 SUB SLT ISZERO PUSH2 0x2877 JUMPI PUSH0 PUSH0 REVERT JUMPDEST PUSH2 0x2880 DUP8 PUSH2 0x2630 JUMP JUMPDEST SWAP6 POP PUSH1 0x20 DUP8 ADD CALLDATALOAD SWAP5 POP PUSH1 0x40 DUP8 ADD CALLDATALOAD PUSH1 0x1 PUSH1 0x1 PUSH1 0x40 SHL SUB DUP2 GT ISZERO PUSH2 0x28A1 JUMPI PUSH0 PUSH0 REVERT JUMPDEST PUSH2 0x28AD DUP10 DUP3 DUP11 ADD PUSH2 0x27EE JUMP JUMPDEST SWAP5 POP POP PUSH1 0x60 DUP8 ADD CALLDATALOAD PUSH1 0x1 PUSH1 0x1 PUSH1 0x40 SHL SUB DUP2 GT ISZERO PUSH2 0x28C8 JUMPI PUSH0 PUSH0 REVERT JUMPDEST PUSH2 0x28D4 DUP10 DUP3 DUP11 ADD PUSH2 0x27EE JUMP JUMPDEST SWAP4 POP POP PUSH1 0x80 DUP8 ADD CALLDATALOAD SWAP2 POP PUSH1 0xA0 DUP8 ADD CALLDATALOAD PUSH1 0x1 PUSH1 0x1 PUSH1 0x40 SHL SUB DUP2 GT ISZERO PUSH2 0x28F6 JUMPI PUSH0 PUSH0 REVERT JUMPDEST DUP8 ADD PUSH1 0x1F DUP2 ADD DUP10 SGT PUSH2 0x2906 JUMPI PUSH0 PUSH0 REVERT JUMPDEST DUP1 CALLDATALOAD PUSH2 0x2914 PUSH2 0x280B DUP3 PUSH2 0x2840 JUMP JUMPDEST DUP1 DUP3 DUP3 MSTORE PUSH1 0x20 DUP3 ADD SWAP2 POP PUSH1 0x20 PUSH1 0x60 DUP5 MUL DUP6 ADD ADD SWAP3 POP DUP12 DUP4 GT ISZERO PUSH2 0x2935 JUMPI PUSH0 PUSH0 REVERT JUMPDEST PUSH1 0x20 DUP5 ADD SWAP4 POP JUMPDEST DUP3 DUP5 LT ISZERO PUSH2 0x2986 JUMPI PUSH1 0x60 DUP5 DUP14 SUB SLT ISZERO PUSH2 0x2953 JUMPI PUSH0 PUSH0 REVERT JUMPDEST PUSH2 0x295B PUSH2 0x272B JUMP JUMPDEST DUP5 CALLDATALOAD DUP2 MSTORE PUSH1 0x20 DUP1 DUP7 ADD CALLDATALOAD DUP2 DUP4 ADD MSTORE PUSH1 0x40 DUP1 DUP8 ADD CALLDATALOAD SWAP1 DUP4 ADD MSTORE SWAP1 DUP4 MSTORE PUSH1 0x60 SWAP1 SWAP5 ADD SWAP4 SWAP2 SWAP1 SWAP2 ADD SWAP1 PUSH2 0x293C JUMP JUMPDEST DUP1 SWAP5 POP POP POP POP POP SWAP3 SWAP6 POP SWAP3 SWAP6 POP SWAP3 SWAP6 JUMP JUMPDEST PUSH0 DUP2 MLOAD DUP1 DUP5 MSTORE DUP1 PUSH1 0x20 DUP5 ADD PUSH1 0x20 DUP7 ADD MCOPY PUSH0 PUSH1 0x20 DUP3 DUP7 ADD ADD MSTORE PUSH1 0x20 PUSH1 0x1F NOT PUSH1 0x1F DUP4 ADD AND DUP6 ADD ADD SWAP2 POP POP SWAP3 SWAP2 POP POP JUMP JUMPDEST PUSH4 0x4E487B71 PUSH1 0xE0 SHL PUSH0 MSTORE PUSH1 0x21 PUSH1 0x4 MSTORE PUSH1 0x24 PUSH0 REVERT JUMPDEST PUSH1 0x3 DUP2 LT PUSH2 0x2491 JUMPI PUSH2 0x2491 PUSH2 0x29C5 JUMP JUMPDEST PUSH0 DUP2 MLOAD DUP1 DUP5 MSTORE PUSH1 0x20 DUP5 ADD SWAP4 POP PUSH1 0x20 DUP4 ADD PUSH0 JUMPDEST DUP3 DUP2 LT ISZERO PUSH2 0x2A5B JUMPI DUP2 MLOAD DUP1 MLOAD DUP8 MSTORE PUSH1 0x20 DUP2 ADD MLOAD PUSH1 0x20 DUP9 ADD MSTORE PUSH1 0x40 DUP2 ADD MLOAD PUSH1 0x40 DUP9 ADD MSTORE PUSH1 0x60 DUP2 ADD MLOAD PUSH1 0x60 DUP9 ADD MSTORE PUSH1 0x80 DUP2 ADD MLOAD PUSH1 0x80 DUP9 ADD MSTORE PUSH1 0xA0 DUP2 ADD MLOAD SWAP1 POP PUSH2 0x2A41 DUP2 PUSH2 0x29D9 JUMP JUMPDEST PUSH1 0xA0 DUP8 ADD MSTORE PUSH1 0xC0 SWAP1 SWAP6 ADD SWAP5 PUSH1 0x20 SWAP2 SWAP1 SWAP2 ADD SWAP1 PUSH1 0x1 ADD PUSH2 0x29FB JUMP JUMPDEST POP SWAP4 SWAP5 SWAP4 POP POP POP POP JUMP JUMPDEST PUSH2 0x2A6E DUP2 PUSH2 0x29D9 JUMP JUMPDEST SWAP1 MSTORE JUMP JUMPDEST DUP1 MLOAD DUP3 MSTORE PUSH0 PUSH1 0x20 DUP3 ADD MLOAD PUSH2 0x2A91 PUSH1 0x20 DUP6 ADD DUP3 PUSH1 0x1 PUSH1 0x1 PUSH1 0xA0 SHL SUB AND SWAP1 MSTORE JUMP JUMPDEST POP PUSH1 0x40 DUP3 ADD MLOAD PUSH2 0x180 PUSH1 0x40 DUP6 ADD MSTORE PUSH2 0x2AAD PUSH2 0x180 DUP6 ADD DUP3 PUSH2 0x2997 JUMP JUMPDEST SWAP1 POP PUSH1 0x60 DUP4 ADD MLOAD DUP5 DUP3 SUB PUSH1 0x60 DUP7 ADD MSTORE PUSH2 0x2AC6 DUP3 DUP3 PUSH2 0x2997 JUMP JUMPDEST SWAP2 POP POP PUSH1 0x80 DUP4 ADD MLOAD DUP5 DUP3 SUB PUSH1 0x80 DUP7 ADD MSTORE PUSH2 0x2AE0 DUP3 DUP3 PUSH2 0x2997 JUMP JUMPDEST SWAP2 POP POP PUSH1 0xA0 DUP4 ADD MLOAD DUP5 DUP3 SUB PUSH1 0xA0 DUP7 ADD MSTORE PUSH2 0x2AFA DUP3 DUP3 PUSH2 0x2997 JUMP JUMPDEST SWAP2 POP POP PUSH1 0xC0 DUP4 ADD MLOAD PUSH1 0xC0 DUP6 ADD MSTORE PUSH1 0xE0 DUP4 ADD MLOAD PUSH1 0xE0 DUP6 ADD MSTORE PUSH2 0x100 DUP4 ADD MLOAD DUP5 DUP3 SUB PUSH2 0x100 DUP7 ADD MSTORE PUSH2 0x2B2A DUP3 DUP3 PUSH2 0x29E9 JUMP JUMPDEST SWAP2 POP POP PUSH2 0x120 DUP4 ADD MLOAD PUSH2 0x120 DUP6 ADD MSTORE PUSH2 0x140 DUP4 ADD MLOAD PUSH2 0x2B4D PUSH2 0x140 DUP7 ADD DUP3 PUSH2 0x2A65 JUMP JUMPDEST POP PUSH2 0x160 DUP4 ADD MLOAD PUSH2 0x160 DUP6 ADD MSTORE DUP1 SWAP2 POP POP SWAP3 SWAP2 POP POP JUMP JUMPDEST PUSH1 0x20 DUP2 MSTORE PUSH0 PUSH2 0x2664 PUSH1 0x20 DUP4 ADD DUP5 PUSH2 0x2A72 JUMP JUMPDEST PUSH0 PUSH1 0x20 DUP3 DUP5 SUB SLT ISZERO PUSH2 0x2B86 JUMPI PUSH0 PUSH0 REVERT JUMPDEST DUP2 CALLDATALOAD PUSH2 0x2664 DUP2 PUSH2 0x26D5 JUMP JUMPDEST PUSH0 PUSH1 0x20 DUP3 ADD PUSH1 0x20 DUP4 MSTORE DUP1 DUP5 MLOAD DUP1 DUP4 MSTORE PUSH1 0x40 DUP6 ADD SWAP2 POP PUSH1 0x40 DUP2 PUSH1 0x5 SHL DUP7 ADD ADD SWAP3 POP PUSH1 0x20 DUP7 ADD PUSH0 JUMPDEST DUP3 DUP2 LT ISZERO PUSH2 0x2BE8 JUMPI PUSH1 0x3F NOT DUP8 DUP7 SUB ADD DUP5 MSTORE PUSH2 0x2BD3 DUP6 DUP4 MLOAD PUSH2 0x2A72 JUMP JUMPDEST SWAP5 POP PUSH1 0x20 SWAP4 DUP5 ADD SWAP4 SWAP2 SWAP1 SWAP2 ADD SWAP1 PUSH1 0x1 ADD PUSH2 0x2BB7 JUMP JUMPDEST POP SWAP3 SWAP7 SWAP6 POP POP POP POP POP POP JUMP JUMPDEST PUSH0 PUSH1 0x20 DUP3 DUP5 SUB SLT ISZERO PUSH2 0x2C04 JUMPI PUSH0 PUSH0 REVERT JUMPDEST POP CALLDATALOAD SWAP2 SWAP1 POP JUMP JUMPDEST DUP12 DUP2 MSTORE PUSH1 0x1 PUSH1 0x1 PUSH1 0xA0 SHL SUB DUP12 AND PUSH1 0x20 DUP3 ADD MSTORE PUSH2 0x160 PUSH1 0x40 DUP3 ADD DUP2 SWAP1 MSTORE PUSH0 SWAP1 PUSH2 0x2C35 SWAP1 DUP4 ADD DUP13 PUSH2 0x2997 JUMP JUMPDEST DUP3 DUP2 SUB PUSH1 0x60 DUP5 ADD MSTORE PUSH2 0x2C47 DUP2 DUP13 PUSH2 0x2997 JUMP JUMPDEST SWAP1 POP DUP3 DUP2 SUB PUSH1 0x80 DUP5 ADD MSTORE PUSH2 0x2C5B DUP2 DUP12 PUSH2 0x2997 JUMP JUMPDEST SWAP1 POP DUP3 DUP2 SUB PUSH1 0xA0 DUP5 ADD MSTORE PUSH2 0x2C6F DUP2 DUP11 PUSH2 0x2997 JUMP JUMPDEST SWAP2 POP POP DUP7 PUSH1 0xC0 DUP4 ADD MSTORE DUP6 PUSH1 0xE0 DUP4 ADD MSTORE DUP5 PUSH2 0x100 DUP4 ADD MSTORE PUSH2 0x2C8E DUP5 PUSH2 0x29D9 JUMP JUMPDEST PUSH2 0x120 DUP3 ADD SWAP4 SWAP1 SWAP4 MSTORE PUSH2 0x140 ADD MSTORE SWAP10 SWAP9 POP POP POP POP POP POP POP POP POP JUMP JUMPDEST PUSH0 PUSH0 PUSH1 0x40 DUP4 DUP6 SUB SLT ISZERO PUSH2 0x2CBA JUMPI PUSH0 PUSH0 REVERT JUMPDEST DUP3 CALLDATALOAD SWAP2 POP PUSH1 0x20 DUP4 ADD CALLDATALOAD PUSH2 0x2CCC DUP2 PUSH2 0x26D5 JUMP JUMPDEST DUP1 SWAP2 POP POP SWAP3 POP SWAP3 SWAP1 POP JUMP JUMPDEST PUSH0 PUSH1 0x20 DUP3 DUP5 SUB SLT ISZERO PUSH2 0x2CE7 JUMPI PUSH0 PUSH0 REVERT JUMPDEST DUP2 MLOAD DUP1 ISZERO ISZERO DUP2 EQ PUSH2 0x2664 JUMPI PUSH0 PUSH0 REVERT JUMPDEST PUSH1 0x20 DUP1 DUP3 MSTORE PUSH1 0x11 SWAP1 DUP3 ADD MSTORE PUSH17 0x2CB7BA9030B932903737BA1030B236B4B7 PUSH1 0x79 SHL PUSH1 0x40 DUP3 ADD MSTORE PUSH1 0x60 ADD SWAP1 JUMP JUMPDEST PUSH4 0x4E487B71 PUSH1 0xE0 SHL PUSH0 MSTORE PUSH1 0x32 PUSH1 0x4 MSTORE PUSH1 0x24 PUSH0 REVERT JUMPDEST PUSH4 0x4E487B71 PUSH1 0xE0 SHL PUSH0 MSTORE PUSH1 0x11 PUSH1 0x4 MSTORE PUSH1 0x24 PUSH0 REVERT JUMPDEST DUP2 DUP2 SUB DUP2 DUP2 GT ISZERO PUSH2 0x2D5C JUMPI PUSH2 0x2D5C PUSH2 0x2D35 JUMP JUMPDEST SWAP3 SWAP2 POP POP JUMP JUMPDEST DUP4 DUP2 MSTORE PUSH1 0x20 DUP2 ADD DUP4 SWAP1 MSTORE PUSH1 0x60 DUP2 ADD PUSH2 0x2D79 DUP4 PUSH2 0x29D9 JUMP JUMPDEST DUP3 PUSH1 0x40 DUP4 ADD MSTORE SWAP5 SWAP4 POP POP POP POP JUMP JUMPDEST PUSH0 DUP3 PUSH1 0x1F DUP4 ADD SLT PUSH2 0x2D96 JUMPI PUSH0 PUSH0 REVERT JUMPDEST DUP2 MLOAD PUSH2 0x2DA4 PUSH2 0x280B DUP3 PUSH2 0x27C8 JUMP JUMPDEST DUP2 DUP2 MSTORE DUP5 PUSH1 0x20 DUP4 DUP7 ADD ADD GT ISZERO PUSH2 0x2DB8 JUMPI PUSH0 PUSH0 REVERT JUMPDEST DUP2 PUSH1 0x20 DUP6 ADD PUSH1 0x20 DUP4 ADD MCOPY PUSH0 SWAP2 DUP2 ADD PUSH1 0x20 ADD SWAP2 SWAP1 SWAP2 MSTORE SWAP4 SWAP3 POP POP POP JUMP JUMPDEST PUSH0 DUP3 PUSH1 0x1F DUP4 ADD SLT PUSH2 0x2DE3 JUMPI PUSH0 PUSH0 REVERT JUMPDEST DUP2 MLOAD PUSH2 0x2DF1 PUSH2 0x280B DUP3 PUSH2 0x2840 JUMP JUMPDEST DUP1 DUP3 DUP3 MSTORE PUSH1 0x20 DUP3 ADD SWAP2 POP PUSH1 0x20 DUP4 PUSH1 0x5 SHL DUP7 ADD ADD SWAP3 POP DUP6 DUP4 GT ISZERO PUSH2 0x2E12 JUMPI PUSH0 PUSH0 REVERT JUMPDEST PUSH1 0x20 DUP6 ADD JUMPDEST DUP4 DUP2 LT ISZERO PUSH2 0x2E52 JUMPI DUP1 MLOAD PUSH1 0x1 PUSH1 0x1 PUSH1 0x40 SHL SUB DUP2 GT ISZERO PUSH2 0x2E34 JUMPI PUSH0 PUSH0 REVERT JUMPDEST PUSH2 0x2E43 DUP9 PUSH1 0x20 DUP4 DUP11 ADD ADD PUSH2 0x2D87 JUMP JUMPDEST DUP5 MSTORE POP PUSH1 0x20 SWAP3 DUP4 ADD SWAP3 ADD PUSH2 0x2E17 JUMP JUMPDEST POP SWAP6 SWAP5 POP POP POP POP POP JUMP JUMPDEST PUSH0 PUSH1 0x20 DUP3 DUP5 SUB SLT ISZERO PUSH2 0x2E6C JUMPI PUSH0 PUSH0 REVERT JUMPDEST DUP2 MLOAD PUSH1 0x1 PUSH1 0x1 PUSH1 0x40 SHL SUB DUP2 GT ISZERO PUSH2 0x2E81 JUMPI PUSH0 PUSH0 REVERT JUMPDEST DUP3 ADD PUSH2 0x100 DUP2 DUP6 SUB SLT ISZERO PUSH2 0x2E93 JUMPI PUSH0 PUSH0 REVERT JUMPDEST PUSH2 0x2E9B PUSH2 0x2753 JUMP JUMPDEST DUP2 MLOAD DUP2 MSTORE PUSH1 0x20 DUP3 ADD MLOAD PUSH1 0x1 PUSH1 0x1 PUSH1 0x40 SHL SUB DUP2 GT ISZERO PUSH2 0x2EB7 JUMPI PUSH0 PUSH0 REVERT JUMPDEST PUSH2 0x2EC3 DUP7 DUP3 DUP6 ADD PUSH2 0x2D87 JUMP JUMPDEST PUSH1 0x20 DUP4 ADD MSTORE POP PUSH1 0x40 DUP3 ADD MLOAD PUSH1 0x1 PUSH1 0x1 PUSH1 0x40 SHL SUB DUP2 GT ISZERO PUSH2 0x2EE1 JUMPI PUSH0 PUSH0 REVERT JUMPDEST PUSH2 0x2EED DUP7 DUP3 DUP6 ADD PUSH2 0x2D87 JUMP JUMPDEST PUSH1 0x40 DUP4 ADD MSTORE POP PUSH1 0x60 DUP3 DUP2 ADD MLOAD SWAP1 DUP3 ADD MSTORE PUSH1 0x80 DUP3 ADD MLOAD PUSH1 0x1 PUSH1 0x1 PUSH1 0x40 SHL SUB DUP2 GT ISZERO PUSH2 0x2F15 JUMPI PUSH0 PUSH0 REVERT JUMPDEST PUSH2 0x2F21 DUP7 DUP3 DUP6 ADD PUSH2 0x2DD4 JUMP JUMPDEST PUSH1 0x80 DUP4 ADD MSTORE POP PUSH1 0xA0 DUP3 DUP2 ADD MLOAD SWAP1 DUP3 ADD MSTORE PUSH1 0xC0 DUP1 DUP4 ADD MLOAD SWAP1 DUP3 ADD MSTORE PUSH1 0xE0 SWAP2 DUP3 ADD MLOAD SWAP2 DUP2 ADD SWAP2 SWAP1 SWAP2 MSTORE SWAP4 SWAP3 POP POP POP JUMP JUMPDEST PUSH0 PUSH1 0x1 DUP3 ADD PUSH2 0x2F60 JUMPI PUSH2 0x2F60 PUSH2 0x2D35 JUMP JUMPDEST POP PUSH1 0x1 ADD SWAP1 JUMP JUMPDEST PUSH1 0x1 DUP2 DUP2 SHR SWAP1 DUP3 AND DUP1 PUSH2 0x2F7B JUMPI PUSH1 0x7F DUP3 AND SWAP2 POP JUMPDEST PUSH1 0x20 DUP3 LT DUP2 SUB PUSH2 0x2F99 JUMPI PUSH4 0x4E487B71 PUSH1 0xE0 SHL PUSH0 MSTORE PUSH1 0x22 PUSH1 0x4 MSTORE PUSH1 0x24 PUSH0 REVERT JUMPDEST POP SWAP2 SWAP1 POP JUMP JUMPDEST PUSH1 0x1F DUP3 GT ISZERO PUSH2 0x2FE6 JUMPI DUP1 PUSH0 MSTORE PUSH1 0x20 PUSH0 KECCAK256 PUSH1 0x1F DUP5 ADD PUSH1 0x5 SHR DUP2 ADD PUSH1 0x20 DUP6 LT ISZERO PUSH2 0x2FC4 JUMPI POP DUP1 JUMPDEST PUSH1 0x1F DUP5 ADD PUSH1 0x5 SHR DUP3 ADD SWAP2 POP JUMPDEST DUP2 DUP2 LT ISZERO PUSH2 0x2FE3 JUMPI PUSH0 DUP2 SSTORE PUSH1 0x1 ADD PUSH2 0x2FD0 JUMP JUMPDEST POP POP JUMPDEST POP POP POP JUMP JUMPDEST DUP2 MLOAD PUSH1 0x1 PUSH1 0x1 PUSH1 0x40 SHL SUB DUP2 GT ISZERO PUSH2 0x3004 JUMPI PUSH2 0x3004 PUSH2 0x2717 JUMP JUMPDEST PUSH2 0x3018 DUP2 PUSH2 0x3012 DUP5 SLOAD PUSH2 0x2F67 JUMP JUMPDEST DUP5 PUSH2 0x2F9F JUMP JUMPDEST PUSH1 0x20 PUSH1 0x1F DUP3 GT PUSH1 0x1 DUP2 EQ PUSH2 0x304D JUMPI PUSH0 DUP4 ISZERO PUSH2 0x3033 JUMPI POP DUP5 DUP3 ADD MLOAD JUMPDEST PUSH1 0x1 DUP5 SWAP1 SHL PUSH0 NOT PUSH1 0x3 DUP7 SWAP1 SHL SHR NOT DUP3 AND OR JUMPDEST DUP6 SSTORE POP PUSH2 0x2FE3 JUMP JUMPDEST PUSH0 DUP5 DUP2 MSTORE PUSH1 0x20 DUP2 KECCAK256 PUSH1 0x1F NOT DUP6 AND SWAP2 JUMPDEST DUP3 DUP2 LT ISZERO PUSH2 0x307C JUMPI DUP8 DUP6 ADD MLOAD DUP3 SSTORE PUSH1 0x20 SWAP5 DUP6 ADD SWAP5 PUSH1 0x1 SWAP1 SWAP3 ADD SWAP2 ADD PUSH2 0x305C JUMP JUMPDEST POP DUP5 DUP3 LT ISZERO PUSH2 0x3099 JUMPI DUP7 DUP5 ADD MLOAD PUSH0 NOT PUSH1 0x3 DUP8 SWAP1 SHL PUSH1 0xF8 AND SHR NOT AND DUP2 SSTORE JUMPDEST POP POP POP POP PUSH1 0x1 SWAP1 DUP2 SHL ADD SWAP1 SSTORE POP JUMP JUMPDEST PUSH0 PUSH1 0x20 DUP3 DUP5 SUB SLT ISZERO PUSH2 0x30B8 JUMPI PUSH0 PUSH0 REVERT JUMPDEST DUP2 MLOAD PUSH1 0x1 PUSH1 0x1 PUSH1 0x40 SHL SUB DUP2 GT ISZERO PUSH2 0x30CD JUMPI PUSH0 PUSH0 REVERT JUMPDEST DUP3 ADD PUSH1 0xA0 DUP2 DUP6 SUB SLT ISZERO PUSH2 0x30DE JUMPI PUSH0 PUSH0 REVERT JUMPDEST PUSH2 0x30E6 PUSH2 0x2776 JUMP JUMPDEST DUP2 MLOAD DUP2 MSTORE PUSH1 0x20 DUP3 ADD MLOAD PUSH1 0x1 PUSH1 0x1 PUSH1 0x40 SHL SUB DUP2 GT ISZERO PUSH2 0x3102 JUMPI PUSH0 PUSH0 REVERT JUMPDEST PUSH2 0x310E DUP7 DUP3 DUP6 ADD PUSH2 0x2D87 JUMP JUMPDEST PUSH1 0x20 DUP4 ADD MSTORE POP PUSH1 0x40 DUP3 DUP2 ADD MLOAD SWAP1 DUP3 ADD MSTORE PUSH1 0x60 DUP1 DUP4 ADD MLOAD SWAP1 DUP3 ADD MSTORE PUSH1 0x80 SWAP2 DUP3 ADD MLOAD SWAP2 DUP2 ADD SWAP2 SWAP1 SWAP2 MSTORE SWAP4 SWAP3 POP POP POP JUMP JUMPDEST DUP1 DUP3 MUL DUP2 ISZERO DUP3 DUP3 DIV DUP5 EQ OR PUSH2 0x2D5C JUMPI PUSH2 0x2D5C PUSH2 0x2D35 JUMP JUMPDEST DUP1 DUP3 ADD DUP1 DUP3 GT ISZERO PUSH2 0x2D5C JUMPI PUSH2 0x2D5C PUSH2 0x2D35 JUMP JUMPDEST DUP2 DUP2 SUB PUSH2 0x3171 JUMPI POP POP JUMP JUMPDEST PUSH2 0x317B DUP3 SLOAD PUSH2 0x2F67 JUMP JUMPDEST PUSH1 0x1 PUSH1 0x1 PUSH1 0x40 SHL SUB DUP2 GT ISZERO PUSH2 0x3192 JUMPI PUSH2 0x3192 PUSH2 0x2717 JUMP JUMPDEST PUSH2 0x31A0 DUP2 PUSH2 0x3012 DUP5 SLOAD PUSH2 0x2F67 JUMP JUMPDEST PUSH0 PUSH1 0x1F DUP3 GT PUSH1 0x1 DUP2 EQ PUSH2 0x31CF JUMPI PUSH0 DUP4 ISZERO PUSH2 0x3033 JUMPI POP DUP2 DUP6 ADD SLOAD PUSH1 0x1 DUP5 SWAP1 SHL PUSH0 NOT PUSH1 0x3 DUP7 SWAP1 SHL SHR NOT DUP3 AND OR PUSH2 0x3045 JUMP JUMPDEST PUSH0 DUP6 DUP2 MSTORE PUSH1 0x20 DUP1 DUP3 KECCAK256 DUP7 DUP4 MSTORE SWAP1 DUP3 KECCAK256 PUSH1 0x1F NOT DUP7 AND SWAP3 JUMPDEST DUP4 DUP2 LT ISZERO PUSH2 0x3205 JUMPI DUP3 DUP7 ADD SLOAD DUP3 SSTORE PUSH1 0x1 SWAP6 DUP7 ADD SWAP6 SWAP1 SWAP2 ADD SWAP1 PUSH1 0x20 ADD PUSH2 0x31E5 JUMP JUMPDEST POP DUP6 DUP4 LT ISZERO PUSH2 0x3222 JUMPI DUP2 DUP6 ADD SLOAD PUSH0 NOT PUSH1 0x3 DUP9 SWAP1 SHL PUSH1 0xF8 AND SHR NOT AND DUP2 SSTORE JUMPDEST POP POP POP POP POP PUSH1 0x1 SWAP1 DUP2 SHL ADD SWAP1 SSTORE POP JUMP JUMPDEST DUP3 DUP2 MSTORE PUSH1 0x40 DUP2 ADD PUSH1 0x2 DUP4 LT PUSH2 0x3249 JUMPI PUSH2 0x3249 PUSH2 0x29C5 JUMP JUMPDEST DUP3 PUSH1 0x20 DUP4 ADD MSTORE SWAP4 SWAP3 POP POP POP JUMP JUMPDEST DUP5 DUP2 MSTORE PUSH1 0x1 PUSH1 0x1 PUSH1 0xA0 SHL SUB DUP5 AND PUSH1 0x20 DUP3 ADD MSTORE PUSH1 0x40 DUP2 ADD DUP4 SWAP1 MSTORE PUSH1 0x80 DUP2 ADD PUSH2 0x327C DUP4 PUSH2 0x29D9 JUMP JUMPDEST DUP3 PUSH1 0x60 DUP4 ADD MSTORE SWAP6 SWAP5 POP POP POP POP POP JUMP JUMPDEST DUP3 DUP2 MSTORE PUSH1 0x40 DUP2 ADD PUSH2 0x3249 DUP4 PUSH2 0x29D9 JUMP JUMPDEST PUSH1 0x40 DUP2 MSTORE PUSH0 PUSH2 0x32AD PUSH1 0x40 DUP4 ADD DUP6 PUSH2 0x2997 JUMP JUMPDEST SWAP1 POP DUP3 PUSH1 0x20 DUP4 ADD MSTORE SWAP4 SWAP3 POP POP POP JUMP INVALID LOG2 PUSH5 0x6970667358 0x22 SLT KECCAK256 CALL 0x22 0x28 0xE2 STATICCALL NOT 0xB1 BLOBHASH DUP7 DUP12 LOG4 SLOAD 0xAF 0xBF SWAP13 CODECOPY 0x21 TSTORE SWAP16 0xC9 BASEFEE 0x4B PUSH26 0x7002C74596D78C24CD64736F6C634300081E0033000000000000 "
		},
		"gasEstimates": {
			"creation": {
				"codeDepositCost": "2608400",
				"executionCost": "infinite",
				"totalCost": "infinite"
			},
			"external": {
				"addStaffForOrder(uint256,uint256)": "infinite",
				"addTableForOrder(uint256,uint256)": "infinite",
				"createOrder(address,uint256,string,string,uint256,(uint256,uint256,uint256)[])": "infinite",
				"foodManager()": "2402",
				"getOrdersByStatus(uint8)": "infinite",
				"getUserOrders(address)": "infinite",
				"nextOrderId()": "2284",
				"orders(uint256)": "infinite",
				"roleAccess()": "2381",
				"tableManager()": "2359",
				"updateOrderItemStatus(uint256,uint256,uint8)": "infinite",
				"updateOrderStatus(uint256,uint8)": "infinite",
				"userOrders(address,uint256)": "4836"
			}
		},
		"methodIdentifiers": {
			"addStaffForOrder(uint256,uint256)": "3f9fb5fd",
			"addTableForOrder(uint256,uint256)": "914ee455",
			"createOrder(address,uint256,string,string,uint256,(uint256,uint256,uint256)[])": "8c9da843",
			"foodManager()": "439e61fa",
			"getOrdersByStatus(uint8)": "8ce2ec79",
			"getUserOrders(address)": "63c69f08",
			"nextOrderId()": "2a58b330",
			"orders(uint256)": "a85c38ef",
			"roleAccess()": "42f54b89",
			"tableManager()": "892bb335",
			"updateOrderItemStatus(uint256,uint256,uint8)": "8a46e8eb",
			"updateOrderStatus(uint256,uint8)": "aab3196d",
			"userOrders(address,uint256)": "856652e9"
		}
	},
	"abi": [
		{
			"inputs": [
				{
					"internalType": "address",
					"name": "_foodManagerAddress",
					"type": "address"
				},
				{
					"internalType": "address",
					"name": "_roleAcces",
					"type": "address"
				},
				{
					"internalType": "address",
					"name": "_tableManager",
					"type": "address"
				}
			],
			"stateMutability": "nonpayable",
			"type": "constructor"
		},
		{
			"anonymous": false,
			"inputs": [
				{
					"indexed": false,
					"internalType": "uint256",
					"name": "orderId",
					"type": "uint256"
				},
				{
					"indexed": false,
					"internalType": "address",
					"name": "user",
					"type": "address"
				},
				{
					"indexed": false,
					"internalType": "uint256",
					"name": "totalAmount",
					"type": "uint256"
				},
				{
					"indexed": false,
					"internalType": "enum OrderStatus",
					"name": "status",
					"type": "uint8"
				}
			],
			"name": "OrderCreated",
			"type": "event"
		},
		{
			"anonymous": false,
			"inputs": [
				{
					"indexed": false,
					"internalType": "uint256",
					"name": "orderId",
					"type": "uint256"
				}
			],
			"name": "OrderDeleted",
			"type": "event"
		},
		{
			"anonymous": false,
			"inputs": [
				{
					"indexed": false,
					"internalType": "uint256",
					"name": "orderId",
					"type": "uint256"
				},
				{
					"indexed": false,
					"internalType": "uint256",
					"name": "orderItemId",
					"type": "uint256"
				},
				{
					"indexed": false,
					"internalType": "enum OrderItemStatus",
					"name": "newStatus",
					"type": "uint8"
				}
			],
			"name": "OrderItemStatusUpdated",
			"type": "event"
		},
		{
			"anonymous": false,
			"inputs": [
				{
					"indexed": false,
					"internalType": "uint256",
					"name": "orderId",
					"type": "uint256"
				},
				{
					"indexed": false,
					"internalType": "enum OrderStatus",
					"name": "status",
					"type": "uint8"
				}
			],
			"name": "OrderUpdated",
			"type": "event"
		},
		{
			"inputs": [
				{
					"internalType": "uint256",
					"name": "orderId",
					"type": "uint256"
				},
				{
					"internalType": "uint256",
					"name": "staffId",
					"type": "uint256"
				}
			],
			"name": "addStaffForOrder",
			"outputs": [],
			"stateMutability": "nonpayable",
			"type": "function"
		},
		{
			"inputs": [
				{
					"internalType": "uint256",
					"name": "_orderId",
					"type": "uint256"
				},
				{
					"internalType": "uint256",
					"name": "_tableId",
					"type": "uint256"
				}
			],
			"name": "addTableForOrder",
			"outputs": [],
			"stateMutability": "nonpayable",
			"type": "function"
		},
		{
			"inputs": [
				{
					"internalType": "address",
					"name": "_user",
					"type": "address"
				},
				{
					"internalType": "uint256",
					"name": "_foodId",
					"type": "uint256"
				},
				{
					"internalType": "string",
					"name": "_userInfo",
					"type": "string"
				},
				{
					"internalType": "string",
					"name": "_note",
					"type": "string"
				},
				{
					"internalType": "uint256",
					"name": "_tableId",
					"type": "uint256"
				},
				{
					"components": [
						{
							"internalType": "uint256",
							"name": "foodId",
							"type": "uint256"
						},
						{
							"internalType": "uint256",
							"name": "foodDetailId",
							"type": "uint256"
						},
						{
							"internalType": "uint256",
							"name": "quantity",
							"type": "uint256"
						}
					],
					"internalType": "struct OrderItemRequest[]",
					"name": "_items",
					"type": "tuple[]"
				}
			],
			"name": "createOrder",
			"outputs": [
				{
					"components": [
						{
							"internalType": "uint256",
							"name": "orderId",
							"type": "uint256"
						},
						{
							"internalType": "address",
							"name": "user",
							"type": "address"
						},
						{
							"internalType": "string",
							"name": "userInfo",
							"type": "string"
						},
						{
							"internalType": "string",
							"name": "note",
							"type": "string"
						},
						{
							"internalType": "string",
							"name": "name",
							"type": "string"
						},
						{
							"internalType": "string",
							"name": "imgage",
							"type": "string"
						},
						{
							"internalType": "uint256",
							"name": "staffId",
							"type": "uint256"
						},
						{
							"internalType": "uint256",
							"name": "tableId",
							"type": "uint256"
						},
						{
							"components": [
								{
									"internalType": "uint256",
									"name": "orderItemId",
									"type": "uint256"
								},
								{
									"internalType": "uint256",
									"name": "foodDetailId",
									"type": "uint256"
								},
								{
									"internalType": "uint256",
									"name": "foodId",
									"type": "uint256"
								},
								{
									"internalType": "uint256",
									"name": "quantity",
									"type": "uint256"
								},
								{
									"internalType": "uint256",
									"name": "price",
									"type": "uint256"
								},
								{
									"internalType": "enum OrderItemStatus",
									"name": "status",
									"type": "uint8"
								}
							],
							"internalType": "struct OrderItem[]",
							"name": "items",
							"type": "tuple[]"
						},
						{
							"internalType": "uint256",
							"name": "totalAmount",
							"type": "uint256"
						},
						{
							"internalType": "enum OrderStatus",
							"name": "status",
							"type": "uint8"
						},
						{
							"internalType": "uint256",
							"name": "timestamp",
							"type": "uint256"
						}
					],
					"internalType": "struct Order",
					"name": "",
					"type": "tuple"
				}
			],
			"stateMutability": "nonpayable",
			"type": "function"
		},
		{
			"inputs": [],
			"name": "foodManager",
			"outputs": [
				{
					"internalType": "contract IFoodManager",
					"name": "",
					"type": "address"
				}
			],
			"stateMutability": "view",
			"type": "function"
		},
		{
			"inputs": [
				{
					"internalType": "enum OrderStatus",
					"name": "_status",
					"type": "uint8"
				}
			],
			"name": "getOrdersByStatus",
			"outputs": [
				{
					"components": [
						{
							"internalType": "uint256",
							"name": "orderId",
							"type": "uint256"
						},
						{
							"internalType": "address",
							"name": "user",
							"type": "address"
						},
						{
							"internalType": "string",
							"name": "userInfo",
							"type": "string"
						},
						{
							"internalType": "string",
							"name": "note",
							"type": "string"
						},
						{
							"internalType": "string",
							"name": "name",
							"type": "string"
						},
						{
							"internalType": "string",
							"name": "imgage",
							"type": "string"
						},
						{
							"internalType": "uint256",
							"name": "staffId",
							"type": "uint256"
						},
						{
							"internalType": "uint256",
							"name": "tableId",
							"type": "uint256"
						},
						{
							"components": [
								{
									"internalType": "uint256",
									"name": "orderItemId",
									"type": "uint256"
								},
								{
									"internalType": "uint256",
									"name": "foodDetailId",
									"type": "uint256"
								},
								{
									"internalType": "uint256",
									"name": "foodId",
									"type": "uint256"
								},
								{
									"internalType": "uint256",
									"name": "quantity",
									"type": "uint256"
								},
								{
									"internalType": "uint256",
									"name": "price",
									"type": "uint256"
								},
								{
									"internalType": "enum OrderItemStatus",
									"name": "status",
									"type": "uint8"
								}
							],
							"internalType": "struct OrderItem[]",
							"name": "items",
							"type": "tuple[]"
						},
						{
							"internalType": "uint256",
							"name": "totalAmount",
							"type": "uint256"
						},
						{
							"internalType": "enum OrderStatus",
							"name": "status",
							"type": "uint8"
						},
						{
							"internalType": "uint256",
							"name": "timestamp",
							"type": "uint256"
						}
					],
					"internalType": "struct Order[]",
					"name": "",
					"type": "tuple[]"
				}
			],
			"stateMutability": "view",
			"type": "function"
		},
		{
			"inputs": [
				{
					"internalType": "address",
					"name": "_user",
					"type": "address"
				}
			],
			"name": "getUserOrders",
			"outputs": [
				{
					"internalType": "uint256[]",
					"name": "",
					"type": "uint256[]"
				}
			],
			"stateMutability": "view",
			"type": "function"
		},
		{
			"inputs": [],
			"name": "nextOrderId",
			"outputs": [
				{
					"internalType": "uint256",
					"name": "",
					"type": "uint256"
				}
			],
			"stateMutability": "view",
			"type": "function"
		},
		{
			"inputs": [
				{
					"internalType": "uint256",
					"name": "",
					"type": "uint256"
				}
			],
			"name": "orders",
			"outputs": [
				{
					"internalType": "uint256",
					"name": "orderId",
					"type": "uint256"
				},
				{
					"internalType": "address",
					"name": "user",
					"type": "address"
				},
				{
					"internalType": "string",
					"name": "userInfo",
					"type": "string"
				},
				{
					"internalType": "string",
					"name": "note",
					"type": "string"
				},
				{
					"internalType": "string",
					"name": "name",
					"type": "string"
				},
				{
					"internalType": "string",
					"name": "imgage",
					"type": "string"
				},
				{
					"internalType": "uint256",
					"name": "staffId",
					"type": "uint256"
				},
				{
					"internalType": "uint256",
					"name": "tableId",
					"type": "uint256"
				},
				{
					"internalType": "uint256",
					"name": "totalAmount",
					"type": "uint256"
				},
				{
					"internalType": "enum OrderStatus",
					"name": "status",
					"type": "uint8"
				},
				{
					"internalType": "uint256",
					"name": "timestamp",
					"type": "uint256"
				}
			],
			"stateMutability": "view",
			"type": "function"
		},
		{
			"inputs": [],
			"name": "roleAccess",
			"outputs": [
				{
					"internalType": "contract RoleAccess",
					"name": "",
					"type": "address"
				}
			],
			"stateMutability": "view",
			"type": "function"
		},
		{
			"inputs": [],
			"name": "tableManager",
			"outputs": [
				{
					"internalType": "contract ITableManager",
					"name": "",
					"type": "address"
				}
			],
			"stateMutability": "view",
			"type": "function"
		},
		{
			"inputs": [
				{
					"internalType": "uint256",
					"name": "_orderId",
					"type": "uint256"
				},
				{
					"internalType": "uint256",
					"name": "_orderItemId",
					"type": "uint256"
				},
				{
					"internalType": "enum OrderItemStatus",
					"name": "_newStatus",
					"type": "uint8"
				}
			],
			"name": "updateOrderItemStatus",
			"outputs": [],
			"stateMutability": "nonpayable",
			"type": "function"
		},
		{
			"inputs": [
				{
					"internalType": "uint256",
					"name": "_orderId",
					"type": "uint256"
				},
				{
					"internalType": "enum OrderStatus",
					"name": "_status",
					"type": "uint8"
				}
			],
			"name": "updateOrderStatus",
			"outputs": [],
			"stateMutability": "nonpayable",
			"type": "function"
		},
		{
			"inputs": [
				{
					"internalType": "address",
					"name": "",
					"type": "address"
				},
				{
					"internalType": "uint256",
					"name": "",
					"type": "uint256"
				}
			],
			"name": "userOrders",
			"outputs": [
				{
					"internalType": "uint256",
					"name": "",
					"type": "uint256"
				}
			],
			"stateMutability": "view",
			"type": "function"
		}
	]
}