{
	"data": {
		"bytecode": {
			"linkReferences": {},
			"object": "6080604052600180553480156012575f5ffd5b503360025f6101000a81548173ffffffffffffffffffffffffffffffffffffffff021916908373ffffffffffffffffffffffffffffffffffffffff1602179055506109f9806100605f395ff3fe608060405234801561000f575f5ffd5b5060043610610086575f3560e01c80638da5cb5b116100595780638da5cb5b14610128578063bea02f6214610146578063e1f1c48d14610162578063e6f318c61461019257610086565b80633844ac5b1461008a5780635cfd6607146100ba57806371671bf2146100d657806388a01cd71461010a575b5f5ffd5b6100a4600480360381019061009f9190610608565b6101ae565b6040516100b191906106c2565b60405180910390f35b6100d460048036038101906100cf91906106db565b61026d565b005b6100f060048036038101906100eb9190610608565b610343565b604051610101959493929190610749565b60405180910390f35b610112610380565b60405161011f919061079a565b60405180910390f35b610130610386565b60405161013d91906107f2565b60405180910390f35b610160600480360381019061015b919061080b565b6103ab565b005b61017c6004803603810190610177919061080b565b61041b565b604051610189919061079a565b60405180910390f35b6101ac60048036038101906101a79190610608565b61050d565b005b6101b66105a5565b5f5f5f8481526020019081526020015f205f01540361020a576040517f08c379a0000000000000000000000000000000000000000000000000000000008152600401610201906108a3565b60405180910390fd5b5f5f8381526020019081526020015f206040518060a00160405290815f8201548152602001600182015481526020016002820154815260200160038201548152602001600482015f9054906101000a900460ff1615151515815250509050919050565b5f5f5f8581526020019081526020015f205f0154036102c1576040517f08c379a00000000000000000000000000000000000000000000000000000000081526004016102b8906108a3565b60405180910390fd5b5f821180156102cf57505f81115b61030e576040517f08c379a000000000000000000000000000000000000000000000000000000000815260040161030590610931565b60405180910390fd5b815f5f8581526020019081526020015f2060010181905550805f5f8581526020019081526020015f2060020181905550505050565b5f602052805f5260405f205f91509050805f015490806001015490806002015490806003015490806004015f9054906101000a900460ff16905085565b60015481565b60025f9054906101000a900473ffffffffffffffffffffffffffffffffffffffff1681565b5f5f5f8481526020019081526020015f205f0154036103ff576040517f08c379a00000000000000000000000000000000000000000000000000000000081526004016103f6906108a3565b60405180910390fd5b805f5f8481526020019081526020015f20600301819055505050565b5f5f8311801561042a57505f82115b610469576040517f08c379a000000000000000000000000000000000000000000000000000000000815260040161046090610931565b60405180910390fd5b5f60015f81548092919061047c9061097c565b9190505590506040518060a001604052808281526020018581526020018481526020015f81526020015f15158152505f5f8381526020019081526020015f205f820151815f01556020820151816001015560408201518160020155606082015181600301556080820151816004015f6101000a81548160ff0219169083151502179055509050508091505092915050565b5f5f5f8381526020019081526020015f205f015403610561576040517f08c379a0000000000000000000000000000000000000000000000000000000008152600401610558906108a3565b60405180910390fd5b5f5f8281526020019081526020015f205f5f82015f9055600182015f9055600282015f9055600382015f9055600482015f6101000a81549060ff0219169055505050565b6040518060a001604052805f81526020015f81526020015f81526020015f81526020015f151581525090565b5f5ffd5b5f819050919050565b6105e7816105d5565b81146105f1575f5ffd5b50565b5f81359050610602816105de565b92915050565b5f6020828403121561061d5761061c6105d1565b5b5f61062a848285016105f4565b91505092915050565b61063c816105d5565b82525050565b5f8115159050919050565b61065681610642565b82525050565b60a082015f8201516106705f850182610633565b5060208201516106836020850182610633565b5060408201516106966040850182610633565b5060608201516106a96060850182610633565b5060808201516106bc608085018261064d565b50505050565b5f60a0820190506106d55f83018461065c565b92915050565b5f5f5f606084860312156106f2576106f16105d1565b5b5f6106ff868287016105f4565b9350506020610710868287016105f4565b9250506040610721868287016105f4565b9150509250925092565b610734816105d5565b82525050565b61074381610642565b82525050565b5f60a08201905061075c5f83018861072b565b610769602083018761072b565b610776604083018661072b565b610783606083018561072b565b610790608083018461073a565b9695505050505050565b5f6020820190506107ad5f83018461072b565b92915050565b5f73ffffffffffffffffffffffffffffffffffffffff82169050919050565b5f6107dc826107b3565b9050919050565b6107ec816107d2565b82525050565b5f6020820190506108055f8301846107e3565b92915050565b5f5f60408385031215610821576108206105d1565b5b5f61082e858286016105f4565b925050602061083f858286016105f4565b9150509250929050565b5f82825260208201905092915050565b7f5461626c6520646f6573206e6f742065786973740000000000000000000000005f82015250565b5f61088d601483610849565b915061089882610859565b602082019050919050565b5f6020820190508181035f8301526108ba81610881565b9050919050565b7f526f7720616e6420636f6c756d6e206d757374206265206772656174657220745f8201527f68616e2030000000000000000000000000000000000000000000000000000000602082015250565b5f61091b602583610849565b9150610926826108c1565b604082019050919050565b5f6020820190508181035f8301526109488161090f565b9050919050565b7f4e487b71000000000000000000000000000000000000000000000000000000005f52601160045260245ffd5b5f610986826105d5565b91507fffffffffffffffffffffffffffffffffffffffffffffffffffffffffffffffff82036109b8576109b761094f565b5b60018201905091905056fea2646970667358221220a9f23f7521d4bcb0a4d70053f0c325ae3820a75991bf51d6bef4a60bf2fe306564736f6c634300081e0033",
			"opcodes": "PUSH1 0x80 PUSH1 0x40 MSTORE PUSH1 0x1 DUP1 SSTORE CALLVALUE DUP1 ISZERO PUSH1 0x12 JUMPI PUSH0 PUSH0 REVERT JUMPDEST POP CALLER PUSH1 0x2 PUSH0 PUSH2 0x100 EXP DUP2 SLOAD DUP2 PUSH20 0xFFFFFFFFFFFFFFFFFFFFFFFFFFFFFFFFFFFFFFFF MUL NOT AND SWAP1 DUP4 PUSH20 0xFFFFFFFFFFFFFFFFFFFFFFFFFFFFFFFFFFFFFFFF AND MUL OR SWAP1 SSTORE POP PUSH2 0x9F9 DUP1 PUSH2 0x60 PUSH0 CODECOPY PUSH0 RETURN INVALID PUSH1 0x80 PUSH1 0x40 MSTORE CALLVALUE DUP1 ISZERO PUSH2 0xF JUMPI PUSH0 PUSH0 REVERT JUMPDEST POP PUSH1 0x4 CALLDATASIZE LT PUSH2 0x86 JUMPI PUSH0 CALLDATALOAD PUSH1 0xE0 SHR DUP1 PUSH4 0x8DA5CB5B GT PUSH2 0x59 JUMPI DUP1 PUSH4 0x8DA5CB5B EQ PUSH2 0x128 JUMPI DUP1 PUSH4 0xBEA02F62 EQ PUSH2 0x146 JUMPI DUP1 PUSH4 0xE1F1C48D EQ PUSH2 0x162 JUMPI DUP1 PUSH4 0xE6F318C6 EQ PUSH2 0x192 JUMPI PUSH2 0x86 JUMP JUMPDEST DUP1 PUSH4 0x3844AC5B EQ PUSH2 0x8A JUMPI DUP1 PUSH4 0x5CFD6607 EQ PUSH2 0xBA JUMPI DUP1 PUSH4 0x71671BF2 EQ PUSH2 0xD6 JUMPI DUP1 PUSH4 0x88A01CD7 EQ PUSH2 0x10A JUMPI JUMPDEST PUSH0 PUSH0 REVERT JUMPDEST PUSH2 0xA4 PUSH1 0x4 DUP1 CALLDATASIZE SUB DUP2 ADD SWAP1 PUSH2 0x9F SWAP2 SWAP1 PUSH2 0x608 JUMP JUMPDEST PUSH2 0x1AE JUMP JUMPDEST PUSH1 0x40 MLOAD PUSH2 0xB1 SWAP2 SWAP1 PUSH2 0x6C2 JUMP JUMPDEST PUSH1 0x40 MLOAD DUP1 SWAP2 SUB SWAP1 RETURN JUMPDEST PUSH2 0xD4 PUSH1 0x4 DUP1 CALLDATASIZE SUB DUP2 ADD SWAP1 PUSH2 0xCF SWAP2 SWAP1 PUSH2 0x6DB JUMP JUMPDEST PUSH2 0x26D JUMP JUMPDEST STOP JUMPDEST PUSH2 0xF0 PUSH1 0x4 DUP1 CALLDATASIZE SUB DUP2 ADD SWAP1 PUSH2 0xEB SWAP2 SWAP1 PUSH2 0x608 JUMP JUMPDEST PUSH2 0x343 JUMP JUMPDEST PUSH1 0x40 MLOAD PUSH2 0x101 SWAP6 SWAP5 SWAP4 SWAP3 SWAP2 SWAP1 PUSH2 0x749 JUMP JUMPDEST PUSH1 0x40 MLOAD DUP1 SWAP2 SUB SWAP1 RETURN JUMPDEST PUSH2 0x112 PUSH2 0x380 JUMP JUMPDEST PUSH1 0x40 MLOAD PUSH2 0x11F SWAP2 SWAP1 PUSH2 0x79A JUMP JUMPDEST PUSH1 0x40 MLOAD DUP1 SWAP2 SUB SWAP1 RETURN JUMPDEST PUSH2 0x130 PUSH2 0x386 JUMP JUMPDEST PUSH1 0x40 MLOAD PUSH2 0x13D SWAP2 SWAP1 PUSH2 0x7F2 JUMP JUMPDEST PUSH1 0x40 MLOAD DUP1 SWAP2 SUB SWAP1 RETURN JUMPDEST PUSH2 0x160 PUSH1 0x4 DUP1 CALLDATASIZE SUB DUP2 ADD SWAP1 PUSH2 0x15B SWAP2 SWAP1 PUSH2 0x80B JUMP JUMPDEST PUSH2 0x3AB JUMP JUMPDEST STOP JUMPDEST PUSH2 0x17C PUSH1 0x4 DUP1 CALLDATASIZE SUB DUP2 ADD SWAP1 PUSH2 0x177 SWAP2 SWAP1 PUSH2 0x80B JUMP JUMPDEST PUSH2 0x41B JUMP JUMPDEST PUSH1 0x40 MLOAD PUSH2 0x189 SWAP2 SWAP1 PUSH2 0x79A JUMP JUMPDEST PUSH1 0x40 MLOAD DUP1 SWAP2 SUB SWAP1 RETURN JUMPDEST PUSH2 0x1AC PUSH1 0x4 DUP1 CALLDATASIZE SUB DUP2 ADD SWAP1 PUSH2 0x1A7 SWAP2 SWAP1 PUSH2 0x608 JUMP JUMPDEST PUSH2 0x50D JUMP JUMPDEST STOP JUMPDEST PUSH2 0x1B6 PUSH2 0x5A5 JUMP JUMPDEST PUSH0 PUSH0 PUSH0 DUP5 DUP2 MSTORE PUSH1 0x20 ADD SWAP1 DUP2 MSTORE PUSH1 0x20 ADD PUSH0 KECCAK256 PUSH0 ADD SLOAD SUB PUSH2 0x20A JUMPI PUSH1 0x40 MLOAD PUSH32 0x8C379A000000000000000000000000000000000000000000000000000000000 DUP2 MSTORE PUSH1 0x4 ADD PUSH2 0x201 SWAP1 PUSH2 0x8A3 JUMP JUMPDEST PUSH1 0x40 MLOAD DUP1 SWAP2 SUB SWAP1 REVERT JUMPDEST PUSH0 PUSH0 DUP4 DUP2 MSTORE PUSH1 0x20 ADD SWAP1 DUP2 MSTORE PUSH1 0x20 ADD PUSH0 KECCAK256 PUSH1 0x40 MLOAD DUP1 PUSH1 0xA0 ADD PUSH1 0x40 MSTORE SWAP1 DUP2 PUSH0 DUP3 ADD SLOAD DUP2 MSTORE PUSH1 0x20 ADD PUSH1 0x1 DUP3 ADD SLOAD DUP2 MSTORE PUSH1 0x20 ADD PUSH1 0x2 DUP3 ADD SLOAD DUP2 MSTORE PUSH1 0x20 ADD PUSH1 0x3 DUP3 ADD SLOAD DUP2 MSTORE PUSH1 0x20 ADD PUSH1 0x4 DUP3 ADD PUSH0 SWAP1 SLOAD SWAP1 PUSH2 0x100 EXP SWAP1 DIV PUSH1 0xFF AND ISZERO ISZERO ISZERO ISZERO DUP2 MSTORE POP POP SWAP1 POP SWAP2 SWAP1 POP JUMP JUMPDEST PUSH0 PUSH0 PUSH0 DUP6 DUP2 MSTORE PUSH1 0x20 ADD SWAP1 DUP2 MSTORE PUSH1 0x20 ADD PUSH0 KECCAK256 PUSH0 ADD SLOAD SUB PUSH2 0x2C1 JUMPI PUSH1 0x40 MLOAD PUSH32 0x8C379A000000000000000000000000000000000000000000000000000000000 DUP2 MSTORE PUSH1 0x4 ADD PUSH2 0x2B8 SWAP1 PUSH2 0x8A3 JUMP JUMPDEST PUSH1 0x40 MLOAD DUP1 SWAP2 SUB SWAP1 REVERT JUMPDEST PUSH0 DUP3 GT DUP1 ISZERO PUSH2 0x2CF JUMPI POP PUSH0 DUP2 GT JUMPDEST PUSH2 0x30E JUMPI PUSH1 0x40 MLOAD PUSH32 0x8C379A000000000000000000000000000000000000000000000000000000000 DUP2 MSTORE PUSH1 0x4 ADD PUSH2 0x305 SWAP1 PUSH2 0x931 JUMP JUMPDEST PUSH1 0x40 MLOAD DUP1 SWAP2 SUB SWAP1 REVERT JUMPDEST DUP2 PUSH0 PUSH0 DUP6 DUP2 MSTORE PUSH1 0x20 ADD SWAP1 DUP2 MSTORE PUSH1 0x20 ADD PUSH0 KECCAK256 PUSH1 0x1 ADD DUP2 SWAP1 SSTORE POP DUP1 PUSH0 PUSH0 DUP6 DUP2 MSTORE PUSH1 0x20 ADD SWAP1 DUP2 MSTORE PUSH1 0x20 ADD PUSH0 KECCAK256 PUSH1 0x2 ADD DUP2 SWAP1 SSTORE POP POP POP POP JUMP JUMPDEST PUSH0 PUSH1 0x20 MSTORE DUP1 PUSH0 MSTORE PUSH1 0x40 PUSH0 KECCAK256 PUSH0 SWAP2 POP SWAP1 POP DUP1 PUSH0 ADD SLOAD SWAP1 DUP1 PUSH1 0x1 ADD SLOAD SWAP1 DUP1 PUSH1 0x2 ADD SLOAD SWAP1 DUP1 PUSH1 0x3 ADD SLOAD SWAP1 DUP1 PUSH1 0x4 ADD PUSH0 SWAP1 SLOAD SWAP1 PUSH2 0x100 EXP SWAP1 DIV PUSH1 0xFF AND SWAP1 POP DUP6 JUMP JUMPDEST PUSH1 0x1 SLOAD DUP2 JUMP JUMPDEST PUSH1 0x2 PUSH0 SWAP1 SLOAD SWAP1 PUSH2 0x100 EXP SWAP1 DIV PUSH20 0xFFFFFFFFFFFFFFFFFFFFFFFFFFFFFFFFFFFFFFFF AND DUP2 JUMP JUMPDEST PUSH0 PUSH0 PUSH0 DUP5 DUP2 MSTORE PUSH1 0x20 ADD SWAP1 DUP2 MSTORE PUSH1 0x20 ADD PUSH0 KECCAK256 PUSH0 ADD SLOAD SUB PUSH2 0x3FF JUMPI PUSH1 0x40 MLOAD PUSH32 0x8C379A000000000000000000000000000000000000000000000000000000000 DUP2 MSTORE PUSH1 0x4 ADD PUSH2 0x3F6 SWAP1 PUSH2 0x8A3 JUMP JUMPDEST PUSH1 0x40 MLOAD DUP1 SWAP2 SUB SWAP1 REVERT JUMPDEST DUP1 PUSH0 PUSH0 DUP5 DUP2 MSTORE PUSH1 0x20 ADD SWAP1 DUP2 MSTORE PUSH1 0x20 ADD PUSH0 KECCAK256 PUSH1 0x3 ADD DUP2 SWAP1 SSTORE POP POP POP JUMP JUMPDEST PUSH0 PUSH0 DUP4 GT DUP1 ISZERO PUSH2 0x42A JUMPI POP PUSH0 DUP3 GT JUMPDEST PUSH2 0x469 JUMPI PUSH1 0x40 MLOAD PUSH32 0x8C379A000000000000000000000000000000000000000000000000000000000 DUP2 MSTORE PUSH1 0x4 ADD PUSH2 0x460 SWAP1 PUSH2 0x931 JUMP JUMPDEST PUSH1 0x40 MLOAD DUP1 SWAP2 SUB SWAP1 REVERT JUMPDEST PUSH0 PUSH1 0x1 PUSH0 DUP2 SLOAD DUP1 SWAP3 SWAP2 SWAP1 PUSH2 0x47C SWAP1 PUSH2 0x97C JUMP JUMPDEST SWAP2 SWAP1 POP SSTORE SWAP1 POP PUSH1 0x40 MLOAD DUP1 PUSH1 0xA0 ADD PUSH1 0x40 MSTORE DUP1 DUP3 DUP2 MSTORE PUSH1 0x20 ADD DUP6 DUP2 MSTORE PUSH1 0x20 ADD DUP5 DUP2 MSTORE PUSH1 0x20 ADD PUSH0 DUP2 MSTORE PUSH1 0x20 ADD PUSH0 ISZERO ISZERO DUP2 MSTORE POP PUSH0 PUSH0 DUP4 DUP2 MSTORE PUSH1 0x20 ADD SWAP1 DUP2 MSTORE PUSH1 0x20 ADD PUSH0 KECCAK256 PUSH0 DUP3 ADD MLOAD DUP2 PUSH0 ADD SSTORE PUSH1 0x20 DUP3 ADD MLOAD DUP2 PUSH1 0x1 ADD SSTORE PUSH1 0x40 DUP3 ADD MLOAD DUP2 PUSH1 0x2 ADD SSTORE PUSH1 0x60 DUP3 ADD MLOAD DUP2 PUSH1 0x3 ADD SSTORE PUSH1 0x80 DUP3 ADD MLOAD DUP2 PUSH1 0x4 ADD PUSH0 PUSH2 0x100 EXP DUP2 SLOAD DUP2 PUSH1 0xFF MUL NOT AND SWAP1 DUP4 ISZERO ISZERO MUL OR SWAP1 SSTORE POP SWAP1 POP POP DUP1 SWAP2 POP POP SWAP3 SWAP2 POP POP JUMP JUMPDEST PUSH0 PUSH0 PUSH0 DUP4 DUP2 MSTORE PUSH1 0x20 ADD SWAP1 DUP2 MSTORE PUSH1 0x20 ADD PUSH0 KECCAK256 PUSH0 ADD SLOAD SUB PUSH2 0x561 JUMPI PUSH1 0x40 MLOAD PUSH32 0x8C379A000000000000000000000000000000000000000000000000000000000 DUP2 MSTORE PUSH1 0x4 ADD PUSH2 0x558 SWAP1 PUSH2 0x8A3 JUMP JUMPDEST PUSH1 0x40 MLOAD DUP1 SWAP2 SUB SWAP1 REVERT JUMPDEST PUSH0 PUSH0 DUP3 DUP2 MSTORE PUSH1 0x20 ADD SWAP1 DUP2 MSTORE PUSH1 0x20 ADD PUSH0 KECCAK256 PUSH0 PUSH0 DUP3 ADD PUSH0 SWAP1 SSTORE PUSH1 0x1 DUP3 ADD PUSH0 SWAP1 SSTORE PUSH1 0x2 DUP3 ADD PUSH0 SWAP1 SSTORE PUSH1 0x3 DUP3 ADD PUSH0 SWAP1 SSTORE PUSH1 0x4 DUP3 ADD PUSH0 PUSH2 0x100 EXP DUP2 SLOAD SWAP1 PUSH1 0xFF MUL NOT AND SWAP1 SSTORE POP POP POP JUMP JUMPDEST PUSH1 0x40 MLOAD DUP1 PUSH1 0xA0 ADD PUSH1 0x40 MSTORE DUP1 PUSH0 DUP2 MSTORE PUSH1 0x20 ADD PUSH0 DUP2 MSTORE PUSH1 0x20 ADD PUSH0 DUP2 MSTORE PUSH1 0x20 ADD PUSH0 DUP2 MSTORE PUSH1 0x20 ADD PUSH0 ISZERO ISZERO DUP2 MSTORE POP SWAP1 JUMP JUMPDEST PUSH0 PUSH0 REVERT JUMPDEST PUSH0 DUP2 SWAP1 POP SWAP2 SWAP1 POP JUMP JUMPDEST PUSH2 0x5E7 DUP2 PUSH2 0x5D5 JUMP JUMPDEST DUP2 EQ PUSH2 0x5F1 JUMPI PUSH0 PUSH0 REVERT JUMPDEST POP JUMP JUMPDEST PUSH0 DUP2 CALLDATALOAD SWAP1 POP PUSH2 0x602 DUP2 PUSH2 0x5DE JUMP JUMPDEST SWAP3 SWAP2 POP POP JUMP JUMPDEST PUSH0 PUSH1 0x20 DUP3 DUP5 SUB SLT ISZERO PUSH2 0x61D JUMPI PUSH2 0x61C PUSH2 0x5D1 JUMP JUMPDEST JUMPDEST PUSH0 PUSH2 0x62A DUP5 DUP3 DUP6 ADD PUSH2 0x5F4 JUMP JUMPDEST SWAP2 POP POP SWAP3 SWAP2 POP POP JUMP JUMPDEST PUSH2 0x63C DUP2 PUSH2 0x5D5 JUMP JUMPDEST DUP3 MSTORE POP POP JUMP JUMPDEST PUSH0 DUP2 ISZERO ISZERO SWAP1 POP SWAP2 SWAP1 POP JUMP JUMPDEST PUSH2 0x656 DUP2 PUSH2 0x642 JUMP JUMPDEST DUP3 MSTORE POP POP JUMP JUMPDEST PUSH1 0xA0 DUP3 ADD PUSH0 DUP3 ADD MLOAD PUSH2 0x670 PUSH0 DUP6 ADD DUP3 PUSH2 0x633 JUMP JUMPDEST POP PUSH1 0x20 DUP3 ADD MLOAD PUSH2 0x683 PUSH1 0x20 DUP6 ADD DUP3 PUSH2 0x633 JUMP JUMPDEST POP PUSH1 0x40 DUP3 ADD MLOAD PUSH2 0x696 PUSH1 0x40 DUP6 ADD DUP3 PUSH2 0x633 JUMP JUMPDEST POP PUSH1 0x60 DUP3 ADD MLOAD PUSH2 0x6A9 PUSH1 0x60 DUP6 ADD DUP3 PUSH2 0x633 JUMP JUMPDEST POP PUSH1 0x80 DUP3 ADD MLOAD PUSH2 0x6BC PUSH1 0x80 DUP6 ADD DUP3 PUSH2 0x64D JUMP JUMPDEST POP POP POP POP JUMP JUMPDEST PUSH0 PUSH1 0xA0 DUP3 ADD SWAP1 POP PUSH2 0x6D5 PUSH0 DUP4 ADD DUP5 PUSH2 0x65C JUMP JUMPDEST SWAP3 SWAP2 POP POP JUMP JUMPDEST PUSH0 PUSH0 PUSH0 PUSH1 0x60 DUP5 DUP7 SUB SLT ISZERO PUSH2 0x6F2 JUMPI PUSH2 0x6F1 PUSH2 0x5D1 JUMP JUMPDEST JUMPDEST PUSH0 PUSH2 0x6FF DUP7 DUP3 DUP8 ADD PUSH2 0x5F4 JUMP JUMPDEST SWAP4 POP POP PUSH1 0x20 PUSH2 0x710 DUP7 DUP3 DUP8 ADD PUSH2 0x5F4 JUMP JUMPDEST SWAP3 POP POP PUSH1 0x40 PUSH2 0x721 DUP7 DUP3 DUP8 ADD PUSH2 0x5F4 JUMP JUMPDEST SWAP2 POP POP SWAP3 POP SWAP3 POP SWAP3 JUMP JUMPDEST PUSH2 0x734 DUP2 PUSH2 0x5D5 JUMP JUMPDEST DUP3 MSTORE POP POP JUMP JUMPDEST PUSH2 0x743 DUP2 PUSH2 0x642 JUMP JUMPDEST DUP3 MSTORE POP POP JUMP JUMPDEST PUSH0 PUSH1 0xA0 DUP3 ADD SWAP1 POP PUSH2 0x75C PUSH0 DUP4 ADD DUP9 PUSH2 0x72B JUMP JUMPDEST PUSH2 0x769 PUSH1 0x20 DUP4 ADD DUP8 PUSH2 0x72B JUMP JUMPDEST PUSH2 0x776 PUSH1 0x40 DUP4 ADD DUP7 PUSH2 0x72B JUMP JUMPDEST PUSH2 0x783 PUSH1 0x60 DUP4 ADD DUP6 PUSH2 0x72B JUMP JUMPDEST PUSH2 0x790 PUSH1 0x80 DUP4 ADD DUP5 PUSH2 0x73A JUMP JUMPDEST SWAP7 SWAP6 POP POP POP POP POP POP JUMP JUMPDEST PUSH0 PUSH1 0x20 DUP3 ADD SWAP1 POP PUSH2 0x7AD PUSH0 DUP4 ADD DUP5 PUSH2 0x72B JUMP JUMPDEST SWAP3 SWAP2 POP POP JUMP JUMPDEST PUSH0 PUSH20 0xFFFFFFFFFFFFFFFFFFFFFFFFFFFFFFFFFFFFFFFF DUP3 AND SWAP1 POP SWAP2 SWAP1 POP JUMP JUMPDEST PUSH0 PUSH2 0x7DC DUP3 PUSH2 0x7B3 JUMP JUMPDEST SWAP1 POP SWAP2 SWAP1 POP JUMP JUMPDEST PUSH2 0x7EC DUP2 PUSH2 0x7D2 JUMP JUMPDEST DUP3 MSTORE POP POP JUMP JUMPDEST PUSH0 PUSH1 0x20 DUP3 ADD SWAP1 POP PUSH2 0x805 PUSH0 DUP4 ADD DUP5 PUSH2 0x7E3 JUMP JUMPDEST SWAP3 SWAP2 POP POP JUMP JUMPDEST PUSH0 PUSH0 PUSH1 0x40 DUP4 DUP6 SUB SLT ISZERO PUSH2 0x821 JUMPI PUSH2 0x820 PUSH2 0x5D1 JUMP JUMPDEST JUMPDEST PUSH0 PUSH2 0x82E DUP6 DUP3 DUP7 ADD PUSH2 0x5F4 JUMP JUMPDEST SWAP3 POP POP PUSH1 0x20 PUSH2 0x83F DUP6 DUP3 DUP7 ADD PUSH2 0x5F4 JUMP JUMPDEST SWAP2 POP POP SWAP3 POP SWAP3 SWAP1 POP JUMP JUMPDEST PUSH0 DUP3 DUP3 MSTORE PUSH1 0x20 DUP3 ADD SWAP1 POP SWAP3 SWAP2 POP POP JUMP JUMPDEST PUSH32 0x5461626C6520646F6573206E6F74206578697374000000000000000000000000 PUSH0 DUP3 ADD MSTORE POP JUMP JUMPDEST PUSH0 PUSH2 0x88D PUSH1 0x14 DUP4 PUSH2 0x849 JUMP JUMPDEST SWAP2 POP PUSH2 0x898 DUP3 PUSH2 0x859 JUMP JUMPDEST PUSH1 0x20 DUP3 ADD SWAP1 POP SWAP2 SWAP1 POP JUMP JUMPDEST PUSH0 PUSH1 0x20 DUP3 ADD SWAP1 POP DUP2 DUP2 SUB PUSH0 DUP4 ADD MSTORE PUSH2 0x8BA DUP2 PUSH2 0x881 JUMP JUMPDEST SWAP1 POP SWAP2 SWAP1 POP JUMP JUMPDEST PUSH32 0x526F7720616E6420636F6C756D6E206D75737420626520677265617465722074 PUSH0 DUP3 ADD MSTORE PUSH32 0x68616E2030000000000000000000000000000000000000000000000000000000 PUSH1 0x20 DUP3 ADD MSTORE POP JUMP JUMPDEST PUSH0 PUSH2 0x91B PUSH1 0x25 DUP4 PUSH2 0x849 JUMP JUMPDEST SWAP2 POP PUSH2 0x926 DUP3 PUSH2 0x8C1 JUMP JUMPDEST PUSH1 0x40 DUP3 ADD SWAP1 POP SWAP2 SWAP1 POP JUMP JUMPDEST PUSH0 PUSH1 0x20 DUP3 ADD SWAP1 POP DUP2 DUP2 SUB PUSH0 DUP4 ADD MSTORE PUSH2 0x948 DUP2 PUSH2 0x90F JUMP JUMPDEST SWAP1 POP SWAP2 SWAP1 POP JUMP JUMPDEST PUSH32 0x4E487B7100000000000000000000000000000000000000000000000000000000 PUSH0 MSTORE PUSH1 0x11 PUSH1 0x4 MSTORE PUSH1 0x24 PUSH0 REVERT JUMPDEST PUSH0 PUSH2 0x986 DUP3 PUSH2 0x5D5 JUMP JUMPDEST SWAP2 POP PUSH32 0xFFFFFFFFFFFFFFFFFFFFFFFFFFFFFFFFFFFFFFFFFFFFFFFFFFFFFFFFFFFFFFFF DUP3 SUB PUSH2 0x9B8 JUMPI PUSH2 0x9B7 PUSH2 0x94F JUMP JUMPDEST JUMPDEST PUSH1 0x1 DUP3 ADD SWAP1 POP SWAP2 SWAP1 POP JUMP INVALID LOG2 PUSH5 0x6970667358 0x22 SLT KECCAK256 0xA9 CALLCODE EXTCODEHASH PUSH22 0x21D4BCB0A4D70053F0C325AE3820A75991BF51D6BEF4 0xA6 SIGNEXTEND CALLCODE INVALID ADDRESS PUSH6 0x64736F6C6343 STOP ADDMOD 0x1E STOP CALLER "
		},
		"gasEstimates": {
			"creation": {
				"codeDepositCost": "510600",
				"executionCost": "46912",
				"totalCost": "557512"
			},
			"external": {
				"addTable(uint256,uint256)": "infinite",
				"deleteTable(uint256)": "47055",
				"editTable(uint256,uint256,uint256)": "infinite",
				"getTableById(uint256)": "infinite",
				"nextTableId()": "2492",
				"owner()": "2508",
				"tables(uint256)": "infinite",
				"updateStaffTable(uint256,uint256)": "infinite"
			}
		},
		"methodIdentifiers": {
			"addTable(uint256,uint256)": "e1f1c48d",
			"deleteTable(uint256)": "e6f318c6",
			"editTable(uint256,uint256,uint256)": "5cfd6607",
			"getTableById(uint256)": "3844ac5b",
			"nextTableId()": "88a01cd7",
			"owner()": "8da5cb5b",
			"tables(uint256)": "71671bf2",
			"updateStaffTable(uint256,uint256)": "bea02f62"
		}
	},
	"abi": [
		{
			"inputs": [],
			"stateMutability": "nonpayable",
			"type": "constructor"
		},
		{
			"inputs": [
				{
					"internalType": "uint256",
					"name": "_row",
					"type": "uint256"
				},
				{
					"internalType": "uint256",
					"name": "_col",
					"type": "uint256"
				}
			],
			"name": "addTable",
			"outputs": [
				{
					"internalType": "uint256",
					"name": "",
					"type": "uint256"
				}
			],
			"stateMutability": "nonpayable",
			"type": "function"
		},
		{
			"inputs": [
				{
					"internalType": "uint256",
					"name": "_tableId",
					"type": "uint256"
				}
			],
			"name": "deleteTable",
			"outputs": [],
			"stateMutability": "nonpayable",
			"type": "function"
		},
		{
			"inputs": [
				{
					"internalType": "uint256",
					"name": "_tableId",
					"type": "uint256"
				},
				{
					"internalType": "uint256",
					"name": "_row",
					"type": "uint256"
				},
				{
					"internalType": "uint256",
					"name": "_col",
					"type": "uint256"
				}
			],
			"name": "editTable",
			"outputs": [],
			"stateMutability": "nonpayable",
			"type": "function"
		},
		{
			"inputs": [
				{
					"internalType": "uint256",
					"name": "_tableId",
					"type": "uint256"
				}
			],
			"name": "getTableById",
			"outputs": [
				{
					"components": [
						{
							"internalType": "uint256",
							"name": "tableId",
							"type": "uint256"
						},
						{
							"internalType": "uint256",
							"name": "row",
							"type": "uint256"
						},
						{
							"internalType": "uint256",
							"name": "col",
							"type": "uint256"
						},
						{
							"internalType": "uint256",
							"name": "staffId",
							"type": "uint256"
						},
						{
							"internalType": "bool",
							"name": "isReserved",
							"type": "bool"
						}
					],
					"internalType": "struct ITableManager.Table",
					"name": "",
					"type": "tuple"
				}
			],
			"stateMutability": "view",
			"type": "function"
		},
		{
			"inputs": [],
			"name": "nextTableId",
			"outputs": [
				{
					"internalType": "uint256",
					"name": "",
					"type": "uint256"
				}
			],
			"stateMutability": "view",
			"type": "function"
		},
		{
			"inputs": [],
			"name": "owner",
			"outputs": [
				{
					"internalType": "address",
					"name": "",
					"type": "address"
				}
			],
			"stateMutability": "view",
			"type": "function"
		},
		{
			"inputs": [
				{
					"internalType": "uint256",
					"name": "",
					"type": "uint256"
				}
			],
			"name": "tables",
			"outputs": [
				{
					"internalType": "uint256",
					"name": "tableId",
					"type": "uint256"
				},
				{
					"internalType": "uint256",
					"name": "row",
					"type": "uint256"
				},
				{
					"internalType": "uint256",
					"name": "col",
					"type": "uint256"
				},
				{
					"internalType": "uint256",
					"name": "staffId",
					"type": "uint256"
				},
				{
					"internalType": "bool",
					"name": "isReserved",
					"type": "bool"
				}
			],
			"stateMutability": "view",
			"type": "function"
		},
		{
			"inputs": [
				{
					"internalType": "uint256",
					"name": "_tableId",
					"type": "uint256"
				},
				{
					"internalType": "uint256",
					"name": "_staffId",
					"type": "uint256"
				}
			],
			"name": "updateStaffTable",
			"outputs": [],
			"stateMutability": "nonpayable",
			"type": "function"
		}
	]
}